1                        J E S 2  J O B  L O G  --  S Y S T E M  S Y S B  --  N O D E  R L G
0
 13.00.49 JOB03589 ---- MONDAY,    15 MAR 2004 ----
 13.00.49 JOB03589  ICH70001I GG$SLP   LAST ACCESS AT 13:00:39 ON MONDAY, MARCH 15, 2004
 13.00.49 JOB03589  $HASP373 WYL#WBUG STARTED - INIT 6    - CLASS B - SYS SYSB
 13.00.49 JOB03589  ***  HCMD      STEP $$QUIET
 13.00.49 JOB03589  PUR * Q OUT MUL
 13.00.49 JOB03589  JOB 5453 WYL#WBUG WILL BE PURGED
 13.00.50 JOB03589  WYL#WBUG.$$QUIET .         RC=Zero TapeIO=0000 DiskIO=0000 CPU=  .01s Elapsed=49.39s
 13.01.03 JOB03589  WYL#WBUG.ASM     .         RC=Zero TapeIO=0000 DiskIO=0846 CPU= 7.31s Elapsed=50.63s
 13.01.05 JOB03589  WYL#WBUG.EDIT    .         RC=Zero TapeIO=0000 DiskIO=0409 CPU= 1.26s Elapsed=63.42s
 13.01.05 JOB03589  WYL#WBUG Ended.  Name=Assemble WBUG                  Total CPU= 8.58s Elapsed=49.39s
 13.01.05 JOB03589
 13.01.05 JOB03589  Execution charges   Priority=Standard   Block=Day
 13.01.05 JOB03589
 13.01.05 JOB03589  CPU Usage         159.00          $98.58   Standard Processing Unit Equivalent
 13.01.05 JOB03589                                   =======
 13.01.05 JOB03589                                    $98.58   Total Job execution charge
 13.01.05 JOB03589
 13.01.05 JOB03589  See back separator page for print charges
 13.01.05 JOB03589
 13.01.05 JOB03589  $HASP395 WYL#WBUG ENDED  ASM=0, EDIT=0
1        1 //WYL#WBUG JOB SLP$GG,'Assemble WBUG',TIME=4,REGION=4M                  JOB03589
           //*
           /*JOBPARM LINES=99,COPIES=1
           /*JOBPARM FORMS=3HOL,PFORMAT=LAND,CHARS=BD13,DUPLEX=YES,FLASH=BAR4
           //*
           /*JOBPARM NOTIFY=GG.SLP,HOLD=OUTPUT                                     WYLGEN
         2 //$$QUIET EXEC PGM=HCMDX,PARM='PUR * Q OUT MUL'
           //*
         3 //ASM    EXEC PGM=ASMA90,REGION=8M,
           //            PARM=('NORENT,TERM,FLAG(NOCONT),US(MAP,WARN(10)),NODECK',
           //            'LC(32767),XREF(SHORT),ESD,DXREF,NOOBJECT')
         4 //STEPLIB DD DSN=SYS3.IS.TESTASM,DISP=SHR
         5 //SYSLIB   DD  DSN=WYL.GS.WYL.WYLBUR.MACLIB,DISP=SHR
         6 //         DD  DSN=WYL.GG.SYS.MACLIB,DISP=SHR
         7 //         DD  DSN=SYS3.IS.MACLIB,DISP=SHR
         8 //         DD  DSN=SYS3.MACLIB,DISP=SHR
         9 //         DD  DSN=SYS1.MACLIB,DISP=SHR
        10 //         DD  DSN=SYS1.MODGEN,DISP=SHR
        11 //SYSUT1   DD DSN=&&SYSUT1,UNIT=VIO,DISP=(,DELETE),
           //            SPACE=(4088,(500,250),,CONTIG,ROUND)
        12 //SYSTERM  DD SYSOUT=T
        13 //SYSPRINT DD DSN=&&PRINT,UNIT=SYSDA,DISP=(,PASS),
           //            SPACE=(6650,(250,250),RLSE),
           //            DCB=(BLKSIZE=6650,LRECL=133,RECFM=FB)
        14 //SYSUDUMP DD SYSOUT=A
        15 //SYSIN    DD  DSN=WYL.GS.WYL.WYLBUR.SOURCE(WBUG),DISP=SHR
           //*
        16 //EDIT    EXEC PGM=ASMEDIT,TIME=2,REGION=4000K,
           //             PARM='STMT'
        17 //STEPLIB  DD  DSN=WYL.GG.SYS.LINKLIB,DISP=SHR
        18 //ASMOUT   DD  DSN=&PRINT,DISP=(OLD,DELETE)
        19 //SYSPRINT DD  SYSOUT=A
1 STMT NO. MESSAGE
 -
        11 IGD01010I STORCLAS= TEMP STORGROUP =
        11 IGD01010I STORGRP=VIO ASSIGNED.
        13 IGD01010I STORCLAS= TEMP STORGROUP =
        13 IGD01010I STORGRP=VIO ASSIGNED.
 ICH70001I GG$SLP   LAST ACCESS AT 13:00:39 ON MONDAY, MARCH 15, 2004
 IEF142I WYL#WBUG $$QUIET - STEP WAS EXECUTED - COND CODE 0000
 *********************************************************************************
 *   WYL#WBUG/$$QUIET /                    Return Code      Zero                 *
 *   Region used      260K (16K user + 244K system)                              *
 *   Extended region  9692K (4K user + 9688K system)                             *
 *                                                                               *
 *   Paging              In      Out                                             *
 *   Private <-> Aux      0        0       CPU time (TCB)   00:00:00.01          *
 *   Private <-> Exp      0        0       CPU time (SRB)   00:00:00.00          *
 *   VIO                  0        0       Elapsed time    917:27:03.57          *
 *   Common               0      ---                                             *
 *                                                                               *
 *                                                                               *
 *   CPU Usage          0.18         $0.11  Standard Processing Unit Equivalent  *
 *                                   $0.11  Total Step execution charge          *
 *                                                                               *
 *    I/O count  DDname   Type Addr           I/O count  DDname   Type Addr      *
 *                         *** No I/O for this step ***                          *
 *********************************************************************************
 IEF373I STEP/$$QUIET /START 2004075.1300
 IEF374I STEP/$$QUIET /STOP  2004075.1300 CPU    0MIN 00.01SEC SRB    0MIN 00.00SEC VIRT    16K SYS   244K EXT       4K SYS    9688K
 IEF236I ALLOC. FOR WYL#WBUG ASM
 IEF237I 04DC ALLOCATED TO STEPLIB
 IEF237I 04DC ALLOCATED TO SYSLIB
 IEF237I 04DC ALLOCATED TO
 IEF237I 04DC ALLOCATED TO
 IEF237I 0402 ALLOCATED TO
 IEF237I 04A0 ALLOCATED TO
 IEF237I 04A0 ALLOCATED TO
 IGD101I SMS ALLOCATED TO DDNAME (SYSUT1  )
         DSN (SYS04075.T130049.RA000.WYL#WBUG.SYSUT1.H01  )
         STORCLAS (TEMP) MGMTCLAS (        ) DATACLAS (        )
         VOL SER NOS= VIO
 IEF237I JES2 ALLOCATED TO SYSTERM
 IGD101I SMS ALLOCATED TO DDNAME (SYSPRINT)
         DSN (SYS04075.T130049.RA000.WYL#WBUG.PRINT.H01   )
         STORCLAS (TEMP) MGMTCLAS (        ) DATACLAS (        )
         VOL SER NOS= SCR101
 IEF237I JES2 ALLOCATED TO SYSUDUMP
 IEF237I 04DC ALLOCATED TO SYSIN
 IEF142I WYL#WBUG ASM - STEP WAS EXECUTED - COND CODE 0000
 IEF285I   SYS3.IS.TESTASM                              KEPT
 IEF285I   VOL SER NOS= SYSB05.
 IEF285I   WYL.GS.WYL.WYLBUR.MACLIB                     KEPT
 IEF285I   VOL SER NOS= SYSB05.
 IEF285I   WYL.GG.SYS.MACLIB                            KEPT
 IEF285I   VOL SER NOS= SYSB05.
 IEF285I   SYS3.IS.MACLIB                               KEPT
 IEF285I   VOL SER NOS= SYSB05.
 IEF285I   SYS3.MACLIB                                  KEPT
 IEF285I   VOL SER NOS= SYSB02.
 IEF285I   SYS1.MACLIB                                  KEPT
 IEF285I   VOL SER NOS= MVSBR9.
 IEF285I   SYS1.MODGEN                                  KEPT
 IEF285I   VOL SER NOS= MVSBR9.
 IGD105I SYS04075.T130049.RA000.WYL#WBUG.SYSUT1.H01   DELETED,   DDNAME=SYSUT1
 IEF285I   GG$SLP.WYL#WBUG.JOB03589.D0000101.?          SYSOUT
 IGD106I SYS04075.T130049.RA000.WYL#WBUG.PRINT.H01    PASSED,    DDNAME=SYSPRINT
 IEF285I   GG$SLP.WYL#WBUG.JOB03589.D0000102.?          SYSOUT
 IEF285I   WYL.GS.WYL.WYLBUR.SOURCE                     KEPT
 IEF285I   VOL SER NOS= SYSB05.
 *********************************************************************************
 *   WYL#WBUG/ASM     /                    Return Code      Zero                 *
 *   Region used      4376K (4096K user + 280K system)                           *
 *   Extended region  10300K (412K user + 9888K system)                          *
 *                                                                               *
 *   Paging              In      Out                                             *
 *   Private <-> Aux      0        0       CPU time (TCB)   00:00:07.25          *
 *   Private <-> Exp      0        0       CPU time (SRB)   00:00:00.06          *
 *   VIO                  0        0       Elapsed time    917:27:02.33          *
 *   Common               0      ---                                             *
 *                                                                               *
 *                                                                               *
 *   CPU Usage        135.93        $84.27  Standard Processing Unit Equivalent  *
 *                                  $84.27  Total Step execution charge          *
 *                                                                               *
 *    I/O count  DDname   Type Addr           I/O count  DDname   Type Addr      *
 *           83  STEPLIB  Disk 04DC                 336  SYSLIB   Disk 04DC      *
 *            0  SYSLIB   Disk 04DC                   0  SYSLIB   Disk 04DC      *
 *            0  SYSLIB   Disk 0402                   5  SYSLIB   Disk 04A0      *
 *            0  SYSLIB   Disk 04A0                 311  SYSUT1   VIO  ----      *
 *            0  SYSTERM       ----                 406  SYSPRINT Disk 04E3      *
 *            0  SYSUDUMP      ----                  16  SYSIN    Disk 04DC      *
 *********************************************************************************
 IEF373I STEP/ASM     /START 2004075.1300
 IEF374I STEP/ASM     /STOP  2004075.1301 CPU    0MIN 07.25SEC SRB    0MIN 00.06SEC VIRT  4096K SYS   280K EXT     412K SYS    9888K
 IEF236I ALLOC. FOR WYL#WBUG EDIT
 IEF237I 0402 ALLOCATED TO STEPLIB
 IGD103I SMS ALLOCATED TO DDNAME ASMOUT
 IEF237I JES2 ALLOCATED TO SYSPRINT
 IEF142I WYL#WBUG EDIT - STEP WAS EXECUTED - COND CODE 0000
 IEF285I   WYL.GG.SYS.LINKLIB                           KEPT
 IEF285I   VOL SER NOS= SYSB02.
 IGD105I SYS04075.T130049.RA000.WYL#WBUG.PRINT.H01    DELETED,   DDNAME=ASMOUT
 IEF285I   GG$SLP.WYL#WBUG.JOB03589.D0000103.?          SYSOUT
 *********************************************************************************
 *   WYL#WBUG/EDIT    /                    Return Code      Zero                 *
 *   Region used      380K (116K user + 264K system)                             *
 *   Extended region  9812K (4K user + 9808K system)                             *
 *                                                                               *
 *   Paging              In      Out                                             *
 *   Private <-> Aux      0        0       CPU time (TCB)   00:00:01.22          *
 *   Private <-> Exp      0        0       CPU time (SRB)   00:00:00.04          *
 *   VIO                  0        0       Elapsed time    917:26:49.54          *
 *   Common               0      ---                                             *
 *                                                                               *
 *                                                                               *
 *   CPU Usage         22.87        $14.17  Standard Processing Unit Equivalent  *
 *                                  $14.17  Total Step execution charge          *
 *                                                                               *
 *    I/O count  DDname   Type Addr           I/O count  DDname   Type Addr      *
 *            2  STEPLIB  Disk 0402                 407  ASMOUT   Disk 04E3      *
 *            0  SYSPRINT      ----                                              *
 *********************************************************************************
 IEF373I STEP/EDIT    /START 2004075.1301
 IEF374I STEP/EDIT    /STOP  2004075.1301 CPU    0MIN 01.22SEC SRB    0MIN 00.04SEC VIRT   116K SYS   264K EXT       4K SYS    9808K
 *********************************************************************************
 *                                                                               *
 *                      S t a n f o r d   U n i v e r s i t y                    *
 *                                                                               *
 *                              *** Job Summary ***                              *
 *                                                                               *
 *   System Id      SYSB                   Input time     12:39:39  Mar 15, 2004 *
 *                                                                               *
 *   System Release SP6.1.0                Start time     13:00:49  Mar 15, 2004 *
 *                                                                               *
 *   Job name       WYL#WBUG               Stop  time     00:00:00  Mar 15, 2004 *
 *                                                                               *
 *   Account        SLP$GG                 Elapsed time  917:27:03.57            *
 *                                                                               *
 *   User Name      Assemble WBUG          CPU time       00:00:08.48            *
 *                                                                               *
 *   Job class      B                      SRB Time       00:00:00.10            *
 *                                                                               *
 *********************************************************************************
 IEF375I  JOB/WYL#WBUG/START 2004075.1300
 IEF376I  JOB/WYL#WBUG/STOP  2004075.1301 CPU    0MIN 08.48SEC SRB    0MIN 00.10SEC
1Assembler Done WBUG No Statements Flagged
1         High Level Assembler Option Summary                   (PTF P72483 )                                               Page    1
-                                                                                            HLASM R4.0  2004/03/15 13.00
0  No Overriding ASMAOPT Parameters
   Overriding Parameters-  NORENT,TERM,FLAG(NOCONT),US(MAP,WARN(10)),NODECK,LC(32767),XREF(SHORT),ESD,DXREF,NOOBJECT
   No Process Statements


   Options for this Assembly
0  NOADATA
     ALIGN
   NOASA
     BATCH
     CODEPAGE(047C)
   NOCOMPAT
   NODBCS
 3 NODECK
 3   DXREF
 3   ESD
   NOEXIT
 3   FLAG(0,ALIGN,NOCONT,NOIMPLEN,NOPAGE0,PUSH,RECORD,NOSUBSTR,USING0)
   NOFOLD
   NOGOFF
   NOINFO
     LANGUAGE(EN)
   NOLIBMAC
 3   LINECOUNT(32767)
     LIST(121)
     MXREF(SOURCE)
 3 NOOBJECT
     OPTABLE(UNI,NOLIST)
   NOPCONTROL
   NOPESTOP
   NOPROFILE
   NORA2
 3 NORENT
     RLD
     RXREF
     SIZE(MAX)
     SYSPARM()
 3   TERM(WIDE)
   NOTEST
     THREAD
   NOTRANSLATE
 3   USING(NOLIMIT,MAP,WARN(10))
 3   XREF(SHORT)

   No Overriding DD Names

1WBUG     External Symbol Dictionary                                                                                        Page    2
-Symbol   Type   Id     Address  Length     LD ID  Flags Alias-of                            HLASM R4.0  2004/03/15 13.00
0WYLWBUG   SD 00000001 00000000 000CD650             00
 WBUG2025  LD          00000000           00000001
 DBUGINIT  LD          00000018           00000001
 DEBUGSG   LD          00000080           00000001
 DEBDISP   LD          000002E2           00000001
 GETCORE   ER 00000002
 SEGCR     ER 00000003
 FREECORE  ER 00000004
 SEGWR     ER 00000005
 CV        ER 00000006
 PLOCKA    ER 00000007
 PLOCKB    ER 00000008
 PUNLOCKA  ER 00000009
 PUNLOCKB  ER 0000000A
 GETRSC    ER 0000000B
 DISPATCH  ER 0000000C
 SETDEBUG  LD          000010B0           00000001
 MINT      ER 0000000D
 MALL      ER 0000000E
 SCNINVAL  ER 0000000F
 SHOWDBUG  LD          00001360           00000001
 CLRDEBUG  LD          00001490           00000001
 WDEBUG    LD          000015D8           00000001
 MTOKEN    ER 00000010
 NOTVALID  ER 00000011
 YESREQ    ER 00000012
 NSCAN     ER 00000013
 SCANCHK   ER 00000014
 SEG       ER 00000015
 SEGDC     ER 00000016
 WGO       LD          00001BE0           00000001
 WGOTO     LD          00001C7A           00000001
 WST       LD          00001EE8           00000001
 WSTS      LD          00002358           00000001
 LTNPSH    ER 00000017
 QUIETPSH  ER 00000018
 COLLPSH   ER 00000019
 WCT       LD          000025A4           00000001
 WCTS      LD          00002752           00000001
 SEGHX     ER 0000001A
 SEGTB     ER 0000001B
 WSC2      LD          00002BA0           00000001
 WDISASM   LD          00002DAC           00000001
 WPC2      LD          00002F6C           00000001
 MPARM     ER 0000001C
 WSG       LD          0000330C           00000001
 WPG       LD          00003528           00000001
 DEQSTR    ER 0000001D
 HEXSTR    ER 0000001E
 HEXFMT    ER 0000001F
 WSPG      LD          00003868           00000001
 WSPSW     LD          00003B5A           00000001
 WSCC      LD          00003D3C           00000001
 PGETNEW   ER 00000020
 DBGREAD   ER 00000021
1WBUG     External Symbol Dictionary                                                                                        Page    3
 PJUNKA    ER 00000022
 WPCC      LD          00004114           00000001
 WPIA      LD          00004520           00000001
 WTRACE    LD          000046D6           00000001
 MNULL     ER 00000023
 TRAPTRC   LD          000048C0           00000001
 WSA       LD          00004A8C           00000001
 SCUPCASE  ER 00000024
 XTB       ER 00000025
 DTB       ER 00000026
 SYMBOLS   ER 00000027
 DISPCORE  LD          000054EA           00000001
 BTX       ER 00000028
 SEGCOL    ER 00000029
 CHKRADDR  LD          000069F0           00000001
 CHKSADDR  LD          00006A54           00000001
 CHKIADDR  LD          00006AB6           00000001
 SEGT      ER 0000002A

1WBUG     WYLBUR Debugger                                                                                                   Page    4
0Loc    Object Code    Addr1 Addr2  Stmt Lv Lineno    Source Statement                    (Asmedit 3.3)  HLASM R4.0  2004/03/15 13.00
+___    ______ ____    _____ _____  ____ __ ______    ______ _________
0                                      2              *******************************************************************
                                       3              *                                                                 *
                                       4              *     WYLBUR/370 - Release VI - Class I - Stanford Proprietary    *
                                       5              *                                                                 *
                                       6              *******************************************************************
                                       7                       HIBAL
                                     988
                                     989                       SYSDEFN
 000000                00000 CD650   990              WYLWBUG  CSECT
                                     994                       REGS  FSR,,,,,,,BR,(WAR,LSR),PAR,PBR,CPR,CVR,SPR,RAR
                                    1130
                                    1131              WBUG     IDENT 2025                11:49:38 01/25/02  (SLP)
                                    1134             +
                                    1135    01-IDENT +         ENTRY WBUG2025
                                    1136             +
 000000 16E6C2E4C7F2F0F2            1137    01-IDENT +WBUG2025 DC    AL1(22),C'WBUG2025,15MAR04,13:00'
                                    1138             +*
-                                   1141              *
                                    1142                       PUSH  DSECTS
 USING  CP,R11                      1153             =         USING (CP),(CV)
 USING  CV,R12
 000017                00000 CD650  1172             =         POP   PRINT
1WBUG     (WBUG2025) (13:00) (15MAR04) WYLBUR Debugger                                                                      Page    5
0Current Usings:  (CP,R11) (CV,R12)
0Loc    Object Code    Addr1 Addr2  Stmt Lv Lineno    Source Statement           (Hibal 5, Asmedit 3.3)  HLASM R4.0  2004/03/15 13.00
+___    ______ ____    _____ _____  ____ __ ______    ______ _________
0                                   6692                       ¿þþþþþþþþþþþþþþþþÜ
                                    6693                       Ÿ  LOCAL MACROS  Ÿ
                                    6694                       ¾þþþþþþþþþþþþþþþþ»
                                    6695                       MACRO
                                    6696              &L       COMMENT &OP
                                    6697                       MEND
-                                   6699
                                    6700                       MACRO
                                    6701              &L       STOP    &OP
                                    6702                       DC    H'0'
                                    6703                       MEND
-                                   6705                       ¿þþþþþþþþþþþþþþþþþþþþþþþþþþþþþþþþþþþþþþþþþþþþþþþþþþþþÜ
                                    6706                       Ÿ  INSTR MACRO,  CREATES ENTRY IN INSTRUCTION TABLE  Ÿ
                                    6707                       ¾þþþþþþþþþþþþþþþþþþþþþþþþþþþþþþþþþþþþþþþþþþþþþþþþþþþþ»
                                    6708                       MACRO
                                    6709              &L       INSTR &NAME,&TYPE,&OPCD
                                    6710              &L       DC    XL1'&OPCD',AL1(L'I&TYPE),CL6'&NAME'
                                    6711                       MEND
                                    6712
1WBUG     (WBUG2025) (13:00) (15MAR04) DEBUG DATA AREA                                                                      Page    6
0Current Usings:  (CP,R11) (CV,R12)
0Loc    Object Code    Addr1 Addr2  Stmt Lv Lineno    Source Statement           (Hibal 5, Asmedit 3.3)  HLASM R4.0  2004/03/15 13.00
+___    ______ ____    _____ _____  ____ __ ______    ______ _________
0                                   6714              ¿þþþþþþþþþþþþþþþþþþþþþþþþþþþþþþþþþþþþþþþþþþþþþþþþþþþþþþþþþþþþþþþþþþþþþÜ
                                    6715              Ÿ                                                                     Ÿ
                                    6716              Ÿ                                                                     Ÿ
                                    6717              Ÿ  DBAREA - DEBUG DATA AREA                                           Ÿ
                                    6718              Ÿ                                                                     Ÿ
                                    6719              Ÿ  Note: This is the debug data area dsect.  The actual debug         Ÿ
                                    6720              Ÿ        data area is at end of debug module, it is zeroed when       Ÿ
                                    6721              Ÿ        WYLBUR starts.  Debug is not reentrant.                      Ÿ
                                    6722              Ÿ                                                                     Ÿ
                                    6723              Ÿ                                                                     Ÿ
                                                      ¾þþþþþþþþþþþþþþþþþþþþþþþþþþþþþþþþþþþþþþþþþþþþþþþþþþþþþþþþþþþþþþþþþþþþþ»
0000000                00000 C62B4  6724              DBDSECT  DSECT ,                  DEBUG DATA AREA DSECT
 000000                             6725                       DS    CL8                'DBAREA  '
 000008 00                          6726              DBFLAG   FLAG  ,
 DBFLAG.DBACTIVE   80 ONES          6730                       FLAG  DBACTIVE           DEBUG ACTIVE
 DBFLAG.DBBREAK    40 ONES          6735                       FLAG  DBBREAK            DEBUG BREAK HAPPENING NOW
 DBFLAG.DBRNO      20 ONES          6740                       FLAG  DBRNO              NO RECURSION, TRAPS MUST BE OFF
 000009 00                          6745              DBCMDS   FLAG  ,
 DBCMDS.DBCLEAR    80 ONES          6749                       FLAG  DBCLEAR            CLEAR DEBUG
 DBCMDS.DBTRACE    40 ONES          6754                       FLAG  DBTRACE            TRACE IS ON
 00000A 00                          6759              DBMISC   FLAG  ,
 DBMISC.DBEXECD    80 ONES          6763                       FLAG  DBEXECD            TRAPS IN DISPATCHER, NOT TRAPPED
 DBMISC.DBFMSG     40 ONES          6768                       FLAG  DBFMSG              DEBUG message is waiting
 DBMISC.DBFMSGDISP 20 ONES          6773                       FLAG  DBFMSGDISP          DEBUG message(s) from dispatcher
                                    6778
 00000C                             6779              DBERJCB  DS    F                  JCB OF DEBUGER
 000010                             6780              DBEEJCB  DS    F                  JCB OF DEBUGEE
 000014                             6781              DBEECP   DS    F                  CP OF DEBUGEE
                                    6782
 000018                             6783              DBMSGQH  DS    A                   DEBUG message queue head
 00001C                             6784              DBMSGQT  DS    A                   DEBUG message queue tail
                                    6785              *
                                    6786              * BREAK INFO
                                    6787              *
 000020                             6788              DBIA     DS    F                  BREAK INSTRUCTION ADDR
 000024                             6789              DBCC     DS    F                  BREAK CC
 000028                             6790              DBIC     DS    F                  BREAD INTERRUPTION CODE
 00002C                             6791              DBILC    DS    F                  BREAK ILC (FROM PSW)
 000030                             6792              DBILEN   DS    F                  LENGTH OF TRAPPED INSTRUCTION
 000034                             6793              DBINSTR  DS    2F                 PLACE TO SIMULATE TRAPPED INSTR
                                    6794
 00003C                             6795              DBPSW    DS    2F                 BREAK PSW
                                    6796              DBPSWCC  EQU   DBPSW+2,1          PSW CC IS BITS 2-3
                                    6797              DBPSWIA  EQU   DBPSW+4,4          PSW INSTRUCTION ADDRESS
                                    6798
 000044                             6799              DBREGS   DS    16F                BREAK REGISTERS
                                    6800              DBREG0   EQU   DBREGS+0*4
                                    6801              DBREG1   EQU   DBREGS+1*4
                                    6802              *
                                    6803              * TRAP INFO
                                    6804              *
 000084                             6805              DBTRAPNF DS    4F                 TRAP INFO FOR CURRENT BREAK
 000094                             6806              DBTRAPS  DS    64F                16*4F TRAP ENTRIES
1WBUG     (WBUG2025) (13:00) (15MAR04) DEBUG DATA AREA                                                                      Page    7
0Current Usings:  (CP,R11) (CV,R12)
0Loc    Object Code    Addr1 Addr2  Stmt Lv Lineno    Source Statement           (Hibal 5, Asmedit 3.3)  HLASM R4.0  2004/03/15 13.00
+___    ______ ____    _____ _____  ____ __ ______    ______ _________
0000194                             6807              DBTRAPI  DS    4F                 SIMULATED INSTRUCTION TRAP
 0001A4                             6808              DBTRAPC  DS    4F                 SIMULATED CONTINUE TRAP
 0001B4                             6809              DBTRAPT  DS    4F                 TRACE TRAP
 0001C4                             6810              DBTRAPE  DS    4F                 TRACE ENTRY TRAP
 0001D4                             6811              DBTRAPR  DS    4F                 TRACE RETURN TRAP STACK (16 DEEP)
 0001E4                             6812              DBTRAPR2 DS    56F                TRACE RETURN TRAP STACK
 0002C4                             6813              DBTRAPRL DS    4F                 LAST TRAP IN RETURN TRAP STACK
                                    6814              USERTC   EQU   16                 NUMBER OF USER TRAPS ALLOWED
                                    6815              SPECTC   EQU   20                 NUMBER OF SPECIAL TRAPS
                                    6816              RETTC    EQU   12                 NUMBER OF RETURN TRAPS
                                    6817              TRAPCODE EQU   X'09BB'            TRAP OP CODE, CAUSES 0C1
                                    6818
 000000                00000 00010  6819              DBTRAP   RECORD BEGIN ,,          TRAP DSECT
 000000                             6827  1           DBTPADDR   DS    F                  TRAP ADDRESS
 000004                             6828  1           DBTPOPCD   DS    H                  OP CODE OF TRAPED INSTRUCTION
 000006 00                          6829  1           DBTPTYPE   FLAG  ,                  TYPE OF TRAP
 DBTPTYPE.DBTPNORM 80 ONES          6833  1                      FLAG  DBTPNORM           TRAP TYPE: NORMAL
 DBTPTYPE.DBTPINST 40 ONES          6838  1                      FLAG  DBTPINST           TRAP TYPE: SIMULATED INSTRUCTION
 DBTPTYPE.DBTPCONT 20 ONES          6843  1                      FLAG  DBTPCONT           TRAP TYPE: SIMULATED CONTINUE
 DBTPTYPE.DBTPTRC  10 ONES          6848  1                      FLAG  DBTPTRC            TRAP TYPE: TRACE TRAP
 DBTPTYPE.DBTPNTY  08 ONES          6853  1                      FLAG  DBTPNTY            TRAP TYPE: TRACE ENTRY TRAP
 DBTPTYPE.DBTPRET  04 ONES          6858  1                      FLAG  DBTPRET            TRAP TYPE: TRACE RETURN TRAP
 DBTPTYPE.DBTPIRPT 02 ONES          6863  1                      FLAG  DBTPIRPT           TRAP TYPE: PGM INTRUPT, NOT A TRAP
 000007 00                          6868  1           DBRESV     FLAG  ,                  UNUSED BYTE
 000008                             6872  1           DBTPNAME   DS    CL8                TRACE TRAP NAME
                                    6873  1           DBTPINFO   EQU   DBTPNAME           TRAP NAME OR TRAP INFO
 000010                             6874  1           DBTPNEXT   DS    0H                 START OF NEXT TRAP IN LIST
 000010                00010 00010  6875                       END
                                    6884              ¿þþþþþþÜ
                                    6885              Ÿ      Ÿ
                                    6886              ¾þþþþþþ»
                                    6887              DBSTKLEN EQU   512                DEBUG STACK LENGTH
                                    6888              *$ DEBUG STACK IS AT LAST BIT OF USER STACK, BE CAREFUL
                                    6889              *
 0002D4                             6890              DBPAGENO DS    H                  DEBUGEE WPAGE NUMBER
 0002D8                             6891              DBPAR    DS    A
 0002DC                             6892              DBPBR    DS    A
                                    6893
 0002E0                             6894              DBSPIEAD DS    F                  PUSH CVSPIEAD DURING BREAK
 0002E4                             6895              DBRTN    DS    A                  REQUEST ROUTINE ADDR
 0002E8                             6896              DBPARMS  DS    4F                 REQUEST ROUTINE PARMS
 0002F8                             6897              DBRETC   DS    F                  RETURN CODE FROM REQUEST ROUTINE
 0002FC                             6898              DBTRCSAV DS    16F                TRACE SAVE AREA
                                    6899
 00033C                             6900              DBCP     DS    (CPXSIZE)X           DEBUGEE PAGES
 00133C                             6901              DBSTACK  DS    (128*1024)X
 02133C                             6902              DBDSTACK DS    (128*1024)X
 04133C                             6903              DBHEAP   DS    (512*1024)X
 0C133C                             6904              DBPAGE   DS    (CVPSZ)X
                                    6905
                                    6906              DBLENGTH EQU   *-DBDSECT
1WBUG     (WBUG2025) (13:00) (15MAR04) DEBUG DATA AREA                                                                      Page    8
0Current Usings:  (CP,R11) (CV,R12)
0D-Loc  Object Code    Addr1 Addr2  Stmt Lv Lineno    Source Statement           (Hibal 5, Asmedit 3.3)  HLASM R4.0  2004/03/15 13.00
+_____  ______ ____    _____ _____  ____ __ ______    ______ _________
0000000                00000 00008  6908              IRECORD  RECORD BEGIN             INSTRUCTION TABLE ENTRY
 000000                             6916  1           IOPCD      DS    X
 000001 00                          6917  1           ITYPE      FLAG  ,
 ITYPE.IRR         80 ONES          6921  1                      FLAG  IRR                RR INSTRUCTION
 ITYPE.IRX         40 ONES          6926  1                      FLAG  IRX                RX INSTRUCTION
 ITYPE.IRS         20 ONES          6931  1                      FLAG  IRS                RS INSTRUCTION
 ITYPE.ISI         10 ONES          6936  1                      FLAG  ISI                SI INSTRUCTION
 ITYPE.ISS         08 ONES          6941  1                      FLAG  ISS                SS INSTRUCTION
 ITYPE.IBCR        04 ONES          6946  1                      FLAG  IBCR               BCR INSTRUCTION
 ITYPE.IBC         02 ONES          6951  1                      FLAG  IBC                BC INSTRUCTION
 ITYPE.IOTHER      01 ONES          6956  1                      FLAG  IOTHER             OTHER INSTRUCTION
 000002                             6961  1           INAME      DS    CL6                NAME OF INSTRUCTION
                                    6962  1           INEXT      EQU   *
 000008                00008 00008  6963                       END
-                                   6973                       COPY  SYMBOL
 000000                00000 00010  6974             =SYMBOL   RECORD BEGIN              Map of symbol entry
 000000 00                          6982  1          =SYMFLGS    FLAG
 SYMFLGS.SYMFEND   FF EQ            6986  1          =           FLAG  (SYMFEND,X'FF',EQ)  - end of table
 SYMFLGS.SYMFCSCT  80 ONES          6996  1          =           FLAG  SYMFCSCT            - symbol is csect
 000001                             7001  1          =SYMADDR    DS    AL3                 Symbol addr
                                    7002  1          =SYMLOC     EQU   SYMFLGS,4,C'F'
 000004                             7003  1          =SYMLEN     DS    Y                   Length of section
 000006                             7004  1          =           DS    Y                   Reserved
 000008                             7005  1          =SYMNAME    DS    CL8                 Symbol name
                                    7006  1          =
                                    7007  1          =SYMNEXT    EQU   *
 000010                00010 00010  7008             =         END
-                                   7018                       COPY  TP
 000000                00000 00010  7019             =TP       RECORD BEGIN              Trace paramater area
 000000 00                          7027  1          =TPFLGS     FLAG  ,                   Flags
 TPFLGS.TPFDATA    80 ONES          7031  1          =           FLAG  TPFDATA             - trace data in cvtrcdat
 TPFLGS.TPFKAPUT   40 ONES          7036  1          =           FLAG  TPFKAPUT            - kaput request
 TPFLGS.TPFDUMP    20 ONES          7041  1          =           FLAG  TPFDUMP             - kaput with dump
 TPFLGS.TPFMSG     10 ONES          7046  1          =           FLAG  TPFMSG              - kaput with msg
 TPFLGS.TPFNREST   08 ONES          7051  1          =           FLAG  TPFNREST            - kaput without restart
                                    7056  1          =
 000001                             7057  1          =           DS    X                   Reserved
                                    7058  1          =
 000002                             7059  1          =TPRGMSK    DS    H                   Register print mask
                                    7060  1          =
 000004                             7061  1          =TPNAME     DS    CL8                 Name
                                    7062  1          =TPEND      EQU   *                   End of inline data
                                    7063  1          =*
                                    7064  1          =*  The following data is present if TPFKAPUT and TPFMSG flags are on...
                                    7065  1          =TPMSGLEN   EQU   *,1                 Length of msg in high byte
 00000C                             7066  1          =TPMSGADR   DS    A                   Addr of msg
                                    7067  1          =TPENDK     EQU   *                   End of inline data with kaput msg
 000010                00010 00010  7068             =         END
                                    7077              *
                                    7078              *
1WBUG     (WBUG2025) (13:00) (15MAR04) DEBUG DATA AREA                                                                      Page    9
0Current Usings:  (CP,R11) (CV,R12)
0D-Loc  Object Code    Addr1 Addr2  Stmt Lv Lineno    Source Statement           (Hibal 5, Asmedit 3.3)  HLASM R4.0  2004/03/15 13.00
+_____  ______ ____    _____ _____  ____ __ ______    ______ _________
0000017                00000 CD650  7079              WYLWBUG  CSECT
1WBUG     (WBUG2025) (13:00) (15MAR04) WYLBUR Debugger                                                                      Page   10
0Current Usings:  (CP,R11) (CV,R12)
0Loc    Object Code    Addr1 Addr2  Stmt Lv Lineno    Source Statement           (Hibal 5, Asmedit 3.3)  HLASM R4.0  2004/03/15 13.00
+___    ______ ____    _____ _____  ____ __ ______    ______ _________
0000017                00000 CD650  7082              WYLWBUG  CSECT
                                    7084              ¿þþþþþþþþþþþþþþþþþþþþþþþþþþþþþþþþþþþþþþþþþþþþþþþþþþþþþþþþþþþþþþþþþþþþþÜ
                                    7085              Ÿ                                                                     Ÿ
                                    7086              Ÿ                                                                     Ÿ
                                    7087              Ÿ  DBUGINIT - initialize debug                                        Ÿ
                                    7088              Ÿ                                                                     Ÿ
                                    7089              Ÿ                                                                     Ÿ
                                                      ¾þþþþþþþþþþþþþþþþþþþþþþþþþþþþþþþþþþþþþþþþþþþþþþþþþþþþþþþþþþþþþþþþþþþþþ»
0000018 50E0 D000/9008_      00000  7090              DBUGINIT XPROC ,
 USING  *,R7
                                    7130                       ¿þþþþþþþþþþþþþþþþþþþþþþþþþþþþþþþþþþþþþþþþþþþþþþþþþþþþþþþþþþþþÜ
                                    7131                       Ÿ  SET SPIE EXIT                                             Ÿ
                                    7132                       Ÿ                                                            Ÿ
                                    7133                       Ÿ  Note:  The only reason CVFNSPIE would be set would be if  Ÿ
                                    7134                       Ÿ   WYLBUR was started with PARM=NOSPIE -- for debugging     Ÿ
                                    7135                       Ÿ   purposes.                                                Ÿ
                                    7136                       ¾þþþþþþþþþþþþþþþþþþþþþþþþþþþþþþþþþþþþþþþþþþþþþþþþþþþþþþþþþþþþ»
 000032 9102 C4C7/4710_004C7        7137                       IF    ~CVFNSPIE,BEGIN     OK to set SPIE exit...
 00003A 0700/4D10 701E_             7152  1                      ESPIE SET,SPIEPROC,(1,2,3,4,5,6,7,8,9,10,11,12,13,14,15)
 00005A                             7165                       END
                                    7169                       ¿þþþþþþþþþþþþþþþþþþþÜ
                                    7170                       Ÿ  ZERO DEBUG AREA  Ÿ
                                    7171                       ¾þþþþþþþþþþþþþþþþþþþ»
 00005A 5820 7BAE            00BE0  7172                       L     R2,=A(DBAREA)
 00005E 5830 7BB2            00BE4  7173                       L     R3,=A(DBLENGTH)
 000062 1B55                        7174                       SR    R5,R5
 000064 0E24                        7175                       MVCL  R2,R4
 000066 5820 7BAE            00BE0  7176                       L     R2,=A(DBAREA)
 00006A D207 2000 7BA6 00000 00BD8  7177                       MVC   0(8,R2),=CL8'DBAREA'
                                    7178
 000070 18D8/9808 D004_             7179                       PEND  ,
 DROP   *,R7
1WBUG     (WBUG2025) (13:00) (15MAR04) DEBUG ROUTINE: process DEBUG string                                                  Page   11
0Current Usings:  (CP,R11) (CV,R12)
0Loc    Object Code    Addr1 Addr2  Stmt Lv Lineno    Source Statement           (Hibal 5, Asmedit 3.3)  HLASM R4.0  2004/03/15 13.00
+___    ______ ____    _____ _____  ____ __ ______    ______ _________
0                                   7200              ***
                                    7201              ***  DEBUG Seg Control Block.
                                    7202              ***    (Pointed to by CVDEBUGP.  See DEBUG macro.)
                                    7203              ***
                                    7204                       ENTRY DEBUGSG
 000080 00/00/0000/00000_           7205              DEBUGSG  SEGCB DEBUGBUF,,RTN=DEBUGRTN
 DEBUGSGCOD.DEBUGS 01 EQ
 DEBUGSGCOD.DEBUGS 02 EQ
 DEBUGSGCOD.DEBUGS 03 EQ
 DEBUGSGCOD.DEBUGS 04 EQ
 DEBUGSGCOD.DEBUGS 05 EQ
 DEBUGSGCOD.DEBUGS 06 EQ
 DEBUGSGCOD.DEBUGS 07 EQ
                                    7293
 0000BC                             7294              DEBUGBUF DS    CL300               DEBUG seg buffer
1WBUG     (WBUG2025) (13:00) (15MAR04) DEBUG ROUTINE: process DEBUG string                                                  Page   12
0Current Usings:  (CP,R11) (CV,R12)
0Loc    Object Code    Addr1 Addr2  Stmt Lv Lineno    Source Statement           (Hibal 5, Asmedit 3.3)  HLASM R4.0  2004/03/15 13.00
+___    ______ ____    _____ _____  ____ __ ______    ______ _________
0                                   7296              ¿þþþþþþþþþþþþþþþþþþþþþþþþþþþþþþþþþþþþþþþþþþþþþþþþþþþþþþþþþþþþþþþþþþþþþÜ
                                    7297              Ÿ                                                                     Ÿ
                                    7298              Ÿ  DEBUGRTN -- Routine to process DEBUG statement.  This routine is   Ÿ
                                    7299              Ÿ      entered as a SEG exit routine, with the SEGCB containing       Ÿ
                                    7300              Ÿ      a flag indicating what kind of action is desired.              Ÿ
                                    7301              Ÿ                                                                     Ÿ
                                    7302              Ÿ    On entry:                                                        Ÿ
                                    7303              Ÿ      R15 - SEGCB ptr                                                Ÿ
                                    7304              Ÿ                                                                     Ÿ
                                                      ¾þþþþþþþþþþþþþþþþþþþþþþþþþþþþþþþþþþþþþþþþþþþþþþþþþþþþþþþþþþþþþþþþþþþþþ»
00001E8 50E0 D000/9008_      00000  7305              DEBUGRTN PROC  ,
 USING  *,R7
 000202 5860 79DE            00BE0  7344                       L     R6,=A(DBAREA)
 USING  DBDSECT,R6                  7345                       WITH  (DBDSECT,R6)
                                    7358
 000206 185F                        7359                       LR    R5,R15
 USING  SEGCB,R5                    7360                       WITH  (SEGCB,R5)
                                    7373                       ¿þþþþþþþþþþþþþþþþþþþþþþþþþþþþþþþþþþþþþþþþþþþþþþþþþþþþþþþÜ
                                    7374                       Ÿ  Before doing anything else, figure out if we should  Ÿ
                                    7375                       Ÿ    ignore this call (because it's not the debugee).   Ÿ
                                    7376                       ¾þþþþþþþþþþþþþþþþþþþþþþþþþþþþþþþþþþþþþþþþþþþþþþþþþþþþþþþ»
 000208 9180 6008/47E0_00008        7377                       IF    ~DBACTIVE,DEBUGXIT  No debugging, scram
                                    7395
 000210 D603 C1C8 C1C8_001C8 001C8  7396                       IF    (CVCURJCB,NZ),BEGIN  Running in user mode...
 00021A D603 6010 6010_00010 00010  7412  1                      IF    (DBEEJCB,Z),BEGIN   No debugee yet...
 000224 D503 C1C8 600C_001C8 0000C  7428  2                        IF    (CVCURJCB,EQ,DBERJCB),DEBUGXIT  Can't stop debugger
 00022E D203 6010 C1C8 00010 001C8  7449  2                        MVC   DBEEJCB,CVCURJCB    Assign debugee
 000234                             7450  1                      END
                                    7454  1
 000234 D503 6010 C1C8_00010 001C8  7455  1                      IF    (DBEEJCB,NE,CVCURJCB),DEBUGXIT  Not for us, skip it
 00023E                             7476                       END
                                    7480              *
                                    7481                       ¿þþþþþþþþþþþþþþþþÜ
                                    7482                       Ÿ  SEGCR/SEGWR.  Ÿ
                                    7483                       ¾þþþþþþþþþþþþþþþþ»
 00023E 9506 5000/4780_00000        7484                       IF    (SEGCBCR,OR,SEGCBWR),BEGIN  Write...
                                    7513  1                      ¿þþþþþþþþþþþþþþþþþþþþþþþþþþþþþþþþþþþþþþþþþþþþþþþþþþþþþþþÜ
                                    7514  1                      Ÿ  Save the message text in a linked list of messages.  Ÿ
                                    7515  1                      ¾þþþþþþþþþþþþþþþþþþþþþþþþþþþþþþþþþþþþþþþþþþþþþþþþþþþþþþþ»
 00024E 1820                        7516  1                      LR    R2,R0               Current message length
 000250 1831                        7517  1                      LR    R3,R1               Current message location
                                    7518  1
 000252 4100 2008            00008  7519  1                      LA    R0,8+@R2            Get enough memory for msg+link
 000256 58E0 79E6/0DEE       00BE8  7520  1                      VCALL GETCORE
 00025C 1841                        7524  1                      LR    R4,R1               Save message buffer ptr
 00025E D703 4000 4000 00000 00000  7525  1                      CLEAR (@R4,4)             No forward link yet
 000264 5020 4004            00004  7532  1                      ST    R2,@R4+4            Message length
 000268 41E0 4008/18F2_      00008  7533  1                      MOVEL @R4+8,@R3,(R2)      Copy message text
                                    7555  1
 000274 5820 601C/1222       0001C  7556  1                      LT    R2,DBMSGQT          Last message in queue
 00027A 4770 7084            00286  7560  1                      IF    Z,BEGIN             We are the only message...
 00027E 5040 6018            00018  7571  2                        ST    R4,DBMSGQH          We are the queue head
 000282 5040 601C            0001C  7572  2                        ST    R4,DBMSGQT          We are the queue tail too
1WBUG     (WBUG2025) (13:00) (15MAR04) DEBUG ROUTINE: process DEBUG string                                                  Page   13
0Current Usings:  (SEGCB,R5) (DBDSECT,R6) (*,R7) (CP,R11) (CV,R12)
0Loc    Object Code    Addr1 Addr2  Stmt Lv Lineno    Source Statement           (Hibal 5, Asmedit 3.3)  HLASM R4.0  2004/03/15 13.00
+___    ______ ____    _____ _____  ____ __ ______    ______ _________
0000286                             7573  1                      END
                                    7577  1
 000286 7088/47F0 7090 00286 0027C  7578  1                      ELSE  BEGIN               Add our message to the end...
 00028A 5040 2000            00000  7589  2                        ST    R4,@R2              Link us in old last msg
 00028E 5040 601C            0001C  7590  2                        ST    R4,DBMSGQT          We are now the last
 000292                             7591  1                      END
                                    7595  1                      ¿þþþþþþþþþþþþþþþþþþþþþþþþþþþþþþþþþþþþþþþþþþþþþþþþþþþþþþþþÜ
                                    7596  1                      Ÿ  We are in dispatcher mode now, so set a flag for the  Ÿ
                                    7597  1                      Ÿ     dispatcher to call DEBDISP when it's safe to       Ÿ
                                    7598  1                      Ÿ     start up the "debugger" user.                      Ÿ
                                    7599  1                      ¾þþþþþþþþþþþþþþþþþþþþþþþþþþþþþþþþþþþþþþþþþþþþþþþþþþþþþþþþ»
 000292 D603 C1C8 C1C8_001C8 001C8  7600  1                      IF    (CVCURJCB,Z),BEGIN  Dispatcher mode...
 00029C 9680 C4CC      004CC        7616  2                        SET   CVFDEBUGIO          DEBUG message(s) waiting
 0002A0 1BFF                        7622  2                        CLEAR R15
 0002A2 47F0 70D2            002D4  7626  2                        B     DEBUGXIT            Scram
 0002A6                             7627  1                      END
                                    7631  1                      ¿þþþþþþþþþþþþþþþþþþþþþþþþþþþþþþþþþþþþþþþþþþþþþþþþþþþþþþþþþÜ
                                    7632  1                      Ÿ  We are running the "debugee" user now, so we will run  Ÿ
                                    7633  1                      Ÿ     the debugger user and suspend ourselves.            Ÿ
                                    7634  1                      ¾þþþþþþþþþþþþþþþþþþþþþþþþþþþþþþþþþþþþþþþþþþþþþþþþþþþþþþþþþ»
 0002A6 D703 500C 500C_0000C 0000C  7635  1                      CLEAR SEGCBLENF,SEGCBMRKF Reset seg (reentry case)
 0002B2 947F C4CC      004CC        7647  1                      CLEAR CVFDEBUGIO          We'll pick up these msgs
                                    7654  1           *
                                    7655  1           ***???   ACALL LOCKP               Lock user's pages
                                    7656  1           ***???   ACALL SAVEP               Save user's CP, STACK and HEAP
                                    7657  1           ***???   SET   DBBREAK             Session break now in progress
 0002B6 9640 600A      0000A        7658  1                      SET   DBFMSG              DEBUG message is waiting
 0002BA 94DF 600A      0000A        7664  1                      CLEAR DBFMSGDISP          (Shouldn't ever be set)
                                    7671  1                      ¿þþþþþþþþþþþþþþþþþþþþþþþþþþþþþþþþþþþþþþþþþþþþþþþÜ
                                    7672  1                      Ÿ  Put debugger on the run queue and pause us.  Ÿ
                                    7673  1                      ¾þþþþþþþþþþþþþþþþþþþþþþþþþþþþþþþþþþþþþþþþþþþþþþþ»
 0002BE 5810 600C            0000C  7674  1                      L     R1,DBERJCB
 0002C2 58E0 79EA/0DEE       00BEC  7675  1                      ACALL STARTJCB            Start debugger
                                    7679  1
 0002C8 5810 6010            00010  7680  1                      L     R1,DBEEJCB
 0002CC 58E0 79EE/0DEE       00BF0  7681  1                      ACALL PAUSEJCB            Pause us
                                    7685  1                      ¿þþþþþþþþþþþþþþþþþþþþþþþþþþþþþþþþþþþþþþþþþþþþþþþþþþþþþþþþþþþÜ
                                    7686  1                      Ÿ  We resume execution here after the debugger has written  Ÿ
                                    7687  1                      Ÿ    out the debug text to the control terminal.            Ÿ
                                    7688  1                      ¾þþþþþþþþþþþþþþþþþþþþþþþþþþþþþþþþþþþþþþþþþþþþþþþþþþþþþþþþþþþ»
                                    7689  1           ***????  CLEAR DBBREAK             Done with session break
                                    7690  1           *????    ACALL RESTOREP            Restore user's CP, STACK, HEAP
                                    7691  1           *????    ACALL UNLOCKP             Unlock user's pages
                                    7692  1           *
 0002D2 1BFF                        7693  1                      CLEAR R15                 A-ok
 0002D4                             7697                       END
                                    7701
 0002D4 18D8/9808 D004_             7702              DEBUGXIT PEND  ,
 DROP   SEGCB,R5
 DROP   DBDSECT,R6
 DROP   *,R7
1WBUG     (WBUG2025) (13:00) (15MAR04) DEBUG ROUTINE: process DEBUG string                                                  Page   14
0Current Usings:  (CP,R11) (CV,R12)
0Loc    Object Code    Addr1 Addr2  Stmt Lv Lineno    Source Statement           (Hibal 5, Asmedit 3.3)  HLASM R4.0  2004/03/15 13.00
+___    ______ ____    _____ _____  ____ __ ______    ______ _________
0                                   7734              ¿þþþþþþþþþþþþþþþþþþþþþþþþþþþþþþþþþþþþþþþþþþþþþþþþþþþþþþþþþþþþþþþþþþþþþÜ
                                    7735              Ÿ                                                                     Ÿ
                                    7736              Ÿ  DEBDISP -- Called by the dispatcher to write the queued up         Ÿ
                                    7737              Ÿ    messages.  We put the debugger line on the setup queue and       Ÿ
                                    7738              Ÿ    leave.                                                           Ÿ
                                    7739              Ÿ                                                                     Ÿ
                                                      ¾þþþþþþþþþþþþþþþþþþþþþþþþþþþþþþþþþþþþþþþþþþþþþþþþþþþþþþþþþþþþþþþþþþþþþ»
00002E2 50E0 D000/9008_      00000  7740              DEBDISP  XPROC ,
 USING  *,R7
 0002FC 5860 78E4            00BE0  7780                       L     R6,=A(DBAREA)
 USING  DBDSECT,R6                  7781                       WITH  (DBDSECT,R6)
                                    7794
 000300 D603 6018 6018_00018 00018  7795                       IF    (DBMSGQH,NZ),BEGIN  We have DEBUG messages waiting...
 00030A 9620 600A      0000A        7811  1                      SET   DBFMSGDISP          DEBUG message from dispatcher
 00030E 94BF 600A      0000A        7817  1                      CLEAR DBFMSG              (Shouldn't ever be set)
                                    7824  1                      ¿þþþþþþþþþþþþþþþþþþþþþþþþþþþþþþþþþþþþÜ
                                    7825  1                      Ÿ  Put debugger on the setup queue.  Ÿ
                                    7826  1                      ¾þþþþþþþþþþþþþþþþþþþþþþþþþþþþþþþþþþþþ»
 000312 5810 600C            0000C  7827  1                      L     R1,DBERJCB
 000316 58E0 78F0/0DEE       00BEC  7828  1                      ACALL STARTJCB            Start debugger
                                    7832  1
 00031C 9240 C720      00720        7833  1                      MVI   CVECB,X'40'         We have work now
 000320                             7834                       END
 000320 18D8/9808 D004_             7838                       PEND  ,
 DROP   DBDSECT,R6
 DROP   *,R7
1WBUG     (WBUG2025) (13:00) (15MAR04) DEBUG ROUTINE: process DEBUG string                                                  Page   15
0Current Usings:  (CP,R11) (CV,R12)
0Loc    Object Code    Addr1 Addr2  Stmt Lv Lineno    Source Statement           (Hibal 5, Asmedit 3.3)  HLASM R4.0  2004/03/15 13.00
+___    ______ ____    _____ _____  ____ __ ______    ______ _________
0                                   7864              ¿þþþþþþþþþþþþþþþþþþþþþþþþþþþþþþþþþþþþþþþþþþþþþþþþþþþþþþþþþþþþþþþþþþþþþÜ
                                    7865              Ÿ                                                                     Ÿ
                                    7866              Ÿ  DEBWRITE -- Called when running under the debugger's terminal.     Ÿ
                                    7867              Ÿ                                                                     Ÿ
                                    7868              Ÿ    On entry:                                                        Ÿ
                                    7869              Ÿ      DBAREA has flag set if we have a message                       Ÿ
                                    7870              Ÿ                                                                     Ÿ
                                    7871              Ÿ    On exit, R15 (and cc):                                           Ÿ
                                    7872              Ÿ      0 - OK                                                         Ÿ
                                    7873              Ÿ      nz- ATTN, logging off, etc.                                    Ÿ
                                    7874              Ÿ                                                                     Ÿ
                                                      ¾þþþþþþþþþþþþþþþþþþþþþþþþþþþþþþþþþþþþþþþþþþþþþþþþþþþþþþþþþþþþþþþþþþþþþ»
000032E 50E0 D000/9008_      00000  7875              DEBWRITE PROC  ,
 USING  *,R7
 000348 5860 7898            00BE0  7914                       L     R6,=A(DBAREA)
 USING  DBDSECT,R6                  7915                       WITH  (DBDSECT,R6)
                                    7928
 00034C 5850 78AC            00BF4  7929                       L     R5,=A(DEBUGSG)
 USING  SEGCB,R5                    7930                       WITH  (SEGCB,R5)
                                    7943                       ¿þþþþþþþþþþþþþþþþþþþþþþþþþþþþþþþþþþþÜ
                                    7944                       Ÿ  Write all saved debug messages.  Ÿ
                                    7945                       ¾þþþþþþþþþþþþþþþþþþþþþþþþþþþþþþþþþþþ»
 000350 5840 6018/1244_      00018  7946                       WHILE ('LT R4,DBMSGQH',NZ),BEGIN  Keep processing msgs...
 00035A D203 6018 4000 00018 00000  7964  1                      MVC   DBMSGQH,@R4         Dequeue it
 000360 D603 6018 6018_00018 00018  7965  1                      IF    (DBMSGQH,Z),'CLEAR DBMSGQT'  No messages left
                                    7993  1
 000370 4110 4008/5800_      00008  7994  1                      TSEG  @R4+8,L:@R4+4,CR    DEBUG message text
                                    8022  1
 000382 1814                        8023  1                      LR    R1,R4
 000384 58E0 78B4/0DEE       00BFC  8024  1                      VCALL FREECORE            Release message entry
 00038A 47F0 7008            00350  8028                       END
                                    8033                       ¿þþþþþþþþþþþþþþþþþþþþþþþþþþþÜ
                                    8034                       Ÿ  Force terminal I/O now.  Ÿ
                                    8035                       ¾þþþþþþþþþþþþþþþþþþþþþþþþþþþ»
 00038E 1B00/41F0 B050_             8036                       TWRITE
 00039A 18D8/9808 D004_             8061                       PEND  ,
 DROP   SEGCB,R5
 DROP   DBDSECT,R6
 DROP   *,R7
1WBUG     (WBUG2025) (13:00) (15MAR04) SPIE ROUTINE: process interrupts and breakpoints                                     Page   16
0Current Usings:  (CP,R11) (CV,R12)
0Loc    Object Code    Addr1 Addr2  Stmt Lv Lineno    Source Statement           (Hibal 5, Asmedit 3.3)  HLASM R4.0  2004/03/15 13.00
+___    ______ ____    _____ _____  ____ __ ______    ______ _________
0                                   8092              ¿þþþþþþþþþþþþþþþþþþþþþþþþþþþþþþþþþþþþþþþþþþþþþþþþþþþþþþþþþþþþþþþþþþþþþÜ
                                    8093              Ÿ                                                                     Ÿ
                                    8094              Ÿ                                                                     Ÿ
                                    8095              Ÿ  SPIE ROUTINE                                                       Ÿ
                                    8096              Ÿ                                                                     Ÿ
                                    8097              Ÿ  The SPIE routine handles three situations,                         Ÿ
                                    8098              Ÿ            a. DEBUG interrupts                                      Ÿ
                                    8099              Ÿ            b. expected interrupts                                   Ÿ
                                    8100              Ÿ            c. unexpected interrupts                                 Ÿ
                                    8101              Ÿ                                                                     Ÿ
                                    8102              Ÿ  DEBUG interrupts are handled by saving the current users state     Ÿ
                                    8103              Ÿ  information, stopping the user and starting the debugger user.     Ÿ
                                    8104              Ÿ  The debugger user allows the debuger to look at and change the     Ÿ
                                    8105              Ÿ  state information of the user being debugged.  All traps are       Ÿ
                                    8106              Ÿ  turned off during the debug break to avoid recursion.              Ÿ
                                    8107              Ÿ                                                                     Ÿ
                                    8108              Ÿ  Expected interrupts are handled by the spieroutine by branching    Ÿ
                                    8109              Ÿ  to the routine address saved in CVSPIEAD.  It is important to      Ÿ
                                    8110              Ÿ  note that CVSPIEAD is cleared by the dispatcher and is only        Ÿ
                                    8111              Ÿ  valid for sections of code that do not get dispatched.             Ÿ
                                    8112              Ÿ                                                                     Ÿ
                                    8113              Ÿ  Unexpected interrupts will generate a DEBUG break if a debugging   Ÿ
                                    8114              Ÿ  session is active, otherwise a failsoft bomb will occur.           Ÿ
                                    8115              Ÿ                                                                     Ÿ
                                    8116              Ÿ  The SPIE routine does not allow in general for recursion.  If      Ÿ
                                    8117              Ÿ  a program interrupt occurs while we are processing a previous      Ÿ
                                    8118              Ÿ  SPIE request (ie. we are in the middle of a trap pause),  then     Ÿ
                                    8119              Ÿ  we execute the second level SPIE routine below.  This in general   Ÿ
                                    8120              Ÿ  results in a failsoft bomb of the users session.                   Ÿ
                                    8121              Ÿ                                                                     Ÿ
                                    8122              Ÿ                                                                     Ÿ
                                    8123              Ÿ                                                                     Ÿ
                                                      ¾þþþþþþþþþþþþþþþþþþþþþþþþþþþþþþþþþþþþþþþþþþþþþþþþþþþþþþþþþþþþþþþþþþþþþ»
00003A8                             8124              SPIEPROC LABEL ,                  SPECIAL ENTRY FOR SPIE
 USING  *,R15                       8126                       WITH  (*,R15),BEGIN
 0003A8 900F F794            00B3C  8141  1                      STM   R0,R15,SPIEREGS    ENTER SPIE ROUTINE
 0003AC 5010 F7D4            00B7C  8142  1                      ST    R1,SPIEEPIE
                                    8143  1           ***      QSNAP 'SPIE ENTRY: EPIE AND REGS'
                                    8144  1           ***      QSNAP 0(R1),128
                                    8145  1           ***      QSNAP SPIEREGS,64
 DROP   *,R15                       8146                       END
 0003B0 0570                        8154                       BALR  BR,0               GET ADDRESSIBILITY
 USING  *,R7                        8155                       USING *,BR
 0003B2 5860 782E            00BE0  8165                       L     R6,=A(DBAREA)
 USING  DBDSECT,R6                  8166                       USING DBDSECT,R6
 0003B6 58C0 7852            00C04  8175                       L     CVR,=V(CV)
 0003BA 9120 6008/4710_00008        8176                       IF    ~DBRNO,BEGIN       IF NOT CURRENTLY IN SPIE ROUTINE
 0003C2 58E0 7856/0DEE       00C08  8191  1                      ACALL SPIELEV1           PROCESS SPIE, LEVEL=1
 0003C8                             8195                       END
 0003C8 701A/47F0 7020 003C8 003C0  8199                       ELSE  BEGIN ,,           ELSE
 0003CC 58E0 785A/0DEE       00C0C  8210  1                      ACALL SPIELEV2           PROCESS SPIE, LEVEL=2
 0003D2                             8214                       END
                                    8218              ***      QSNAP 'SPIE EXIT: REGS AND EPIE'
1WBUG     (WBUG2025) (13:00) (15MAR04) SPIE ROUTINE: process interrupts and breakpoints                                     Page   17
0Current Usings:  (DBDSECT,R6) (*,R7) (CP,R11) (CV,R12)
0Loc    Object Code    Addr1 Addr2  Stmt Lv Lineno    Source Statement           (Hibal 5, Asmedit 3.3)  HLASM R4.0  2004/03/15 13.00
+___    ______ ____    _____ _____  ____ __ ______    ______ _________
0                                   8219              ***      QSNAP SPIEREGS,64
 0003D2 980F 778A            00B3C  8220                       LM    R0,R15,SPIEREGS    EXIT SPIE ROUTINE
                                    8221              ***      QSNAP 0(R1),128
 0003D6 07FE                        8222                       BR    R14
1WBUG     (WBUG2025) (13:00) (15MAR04) SPIE ROUTINE: process interrupts and breakpoints                                     Page   18
0Current Usings:  (DBDSECT,R6) (*,R7) (CP,R11) (CV,R12)
0Loc    Object Code    Addr1 Addr2  Stmt Lv Lineno    Source Statement           (Hibal 5, Asmedit 3.3)  HLASM R4.0  2004/03/15 13.00
+___    ______ ____    _____ _____  ____ __ ______    ______ _________
0                                   8224                        ¿þþþþþþþþþþþþþþþþþþþþþþþþþþþþþþþþþþþÜ
                                    8225                        Ÿ                                   Ÿ
                                    8226                        Ÿ   SPIE ROUTINE, LEVEL=1           Ÿ
                                    8227                        Ÿ                                   Ÿ
                                    8228                        Ÿ   WE HANDLE THE FOLLOWING CASES:  Ÿ
                                    8229                        Ÿ  1. DEBUG TRAP HIT                Ÿ
                                    8230                        Ÿ  2. USER EXIT, TAKE CVPSIEAD      Ÿ
                                    8231                        Ÿ  3. INTERRUPT                     Ÿ
                                    8232                        Ÿ                                   Ÿ
                                    8233                        ¾þþþþþþþþþþþþþþþþþþþþþþþþþþþþþþþþþþþ»
 0003D8                             8234              SPIELEV1 LABEL ,
 0003D8 9620 6008      00008        8236                       SET   DBRNO              NO RECURSION ALLOWED
 0003DC 58D0 C278            00278  8242                       L     R13,CVSTACKE       USE LAST BIT OF STACK FOR DEBUG
 0003E0 5BD0 785E            00C10  8243                       S     R13,=A(DBSTKLEN)
                                    8244              *        BE CAREFUL!!, THIS STACK IS SMALL, IN AKWARD PLACE
 0003E4 50E0 D000/41D0_      00000  8245                       XPUSH RAR,,
 0003EC 58E0 7862/0DEE       00C14  8248                       ACALL TRAPSOFF           TURN OFF TRAPS, AVOID RECUSION
 0003F2 5820 77A6            00B58  8252                       L     R2,SPIEREGS+(R7*4)
 0003F6 900F C780/4DE0_      00780  8253                       XTRACE SPIE1,REGS=(R1,R2) TRACE
                                    8260
 USING  EPIE,R1                     8261                       WITH  (EPIE,R1),BEGIN    ADJUST IA TO INTRUPT ADDR
 00040A 5820 104C            0004C  8275  1                      L     R2,EPIEIA              INTRUPT ADDR = IA - ILC
 00040E 4800 1050            00050  8276  1                      LH    R0,EPIEILC
 000412 1B20                        8277  1                      SR    R2,R0
 000414 5020 104C            0004C  8278  1                      ST    R2,EPIEIA
 000418 1B00                        8279  1                      SR    R0,R0                  SET ILC TO ZERO
 00041A 4000 1050            00050  8280  1                      STH   R0,EPIEILC
 DROP   EPIE,R1                     8281                       END
                                    8289                       ¿þþþþþþþþþþþþþþþþþþþÜ
                                    8290                       Ÿ  IF TRAP HIT ,,,  Ÿ
                                    8291                       ¾þþþþþþþþþþþþþþþþþþþ»
 00041E 58E0 7866/0DEE       00C18  8292                       ACALL TRAPCHK
 000424 4770 7080            00432  8296                       IF    E,BEGIN            IF TRAP SPRUNG,,
 000428 58E0 786A/0DEE       00C1C  8307  1                      ACALL TRAPUSER               TRAP USER
 00042E 47F0 70D0            00482  8311  1                      B     SPIERET1
 000432                             8312                       END
                                    8316                       ¿þþþþþþþþþþþþþþþþþþþþþþþþþÜ
                                    8317                       Ÿ  IF USER SPIE EXIT ,,,  Ÿ
                                    8318                       ¾þþþþþþþþþþþþþþþþþþþþþþþþþ»
 000432 D503 7822 C710_00BD4 00710  8319                       IF    (CVSPIEAD,NE,0),BEGIN   IF USER SPIE EXIT,
 USING  EPIE,R1                     8337  1                      WITH  (EPIE,R1),BEGIN
 00043C D403 104C 786E 0004C 00C20  8351  2                        NC    EPIEIA(4),=X'80000000'       RETAIN AMODE BIT
 000442 D603 104C C710 0004C 00710  8352  2                        OC    EPIEIA(4),CVSPIEAD           EXIT TO USER (NO RETURN)
 DROP   EPIE,R1                     8353  1                      END   , WITH (EPIE,R1)
 000448 D703 C710 C710 00710 00710  8361  1                      CLEAR CVSPIEAD
 00044E 47F0 70D0            00482  8368  1                      B     SPIERET1
 000452                             8369                       END
                                    8373                       ¿þþþþþþþþþþþþþþþþþÜ
                                    8374                       Ÿ  IF INTERRUPT,  Ÿ
                                    8375                       ¾þþþþþþþþþþþþþþþþþ»
 000452 9180 6008/47E0_00008        8376                       IF    DBACTIVE,BEGIN     IF DEBUG ACTIVE AND NOT IN BREAK,
 00045A 58E0 786A/0DEE       00C1C  8391  1                      ACALL TRAPUSER                AND TRAP USER AT INTERRUPT
 000460 47F0 70D0            00482  8395  1                      B     SPIERET1
 000464                             8396                       END
1WBUG     (WBUG2025) (13:00) (15MAR04) SPIE ROUTINE: process interrupts and breakpoints                                     Page   19
0Current Usings:  (DBDSECT,R6) (*,R7) (CP,R11) (CV,R12)
0Loc    Object Code    Addr1 Addr2  Stmt Lv Lineno    Source Statement           (Hibal 5, Asmedit 3.3)  HLASM R4.0  2004/03/15 13.00
+___    ______ ____    _____ _____  ____ __ ______    ______ _________
0                                   8400                   ¿þþþþþþþþþþþþþþþþþþþþþþþþþþþþþþþþþþþþþþþþþþþþþþþþþþþþþþþþþþþþþþþþþþþÜ
                                    8401                   Ÿ  Program check occurred, go to SPIE restart routine to failsoft.  Ÿ
                                    8402                   ¾þþþþþþþþþþþþþþþþþþþþþþþþþþþþþþþþþþþþþþþþþþþþþþþþþþþþþþþþþþþþþþþþþþþ»
 000464 5810 77CA            00B7C  8403                       L     R1,SPIEEPIE
 USING  EPIE,R1                     8404                       WITH  (EPIE,R1),BEGIN
 000468 D253 77CE 1000 00B80 00000  8418  1                      MVC   SPIESAVE,EPIE       Save EPIE
 00046E 4120 7150            00502  8419  1                      LA    R2,SPIEFAIL         Failsoft exit
 000472 9180 104C/47E0_0004C        8420  1                      IF    EPIEIA.X'80','O R2,=A(X"80000000")'  Preserve AMODE
 00047E 5020 104C            0004C  8442  1                      ST    R2,EPIEIA           Set restart routine address
 DROP   EPIE,R1                     8443                       END
                                    8451                       ¿þþþþþþþþþþÜ
                                    8452                       Ÿ  RETURN  Ÿ
                                    8453                       ¾þþþþþþþþþþ»
 000482                             8454              SPIERET1 LABEL ,
 000482 900F C780/4DE0_      00780  8456                       XTRACE SPIERET1,REGS=(R1,R6)
 000496 94DF 6008      00008        8463                       CLEAR DBRNO              CLEAR ANTI-RECURSION LOCK
 00049A 58E0 7876/0DEE       00C28  8470                       ACALL TRAPSON            TURN TRAPS BACK ON, DONE W/SPIE
 0004A0 4BD0 78C2/58E0_      00C74  8474                       XPOP  RAR,,
 0004A8 07FE                        8477                       BR    RAR
1WBUG     (WBUG2025) (13:00) (15MAR04) SPIE ROUTINE: process interrupts and breakpoints                                     Page   20
0Current Usings:  (DBDSECT,R6) (*,R7) (CP,R11) (CV,R12)
0Loc    Object Code    Addr1 Addr2  Stmt Lv Lineno    Source Statement           (Hibal 5, Asmedit 3.3)  HLASM R4.0  2004/03/15 13.00
+___    ______ ____    _____ _____  ____ __ ______    ______ _________
0                                   8479                       ¿þþþþþþþþþþþþþþþþþþþþþþþþþþþþþþþþþþþþþþþþþÜ
                                    8480                       Ÿ  SPIE ROUTINE, LEVEL=2                  Ÿ
                                    8481                       Ÿ                                         Ÿ
                                    8482                       Ÿ  USE ONLY REGISTERS R1,R2 !!! OR ELSE.  Ÿ
                                    8483                       ¾þþþþþþþþþþþþþþþþþþþþþþþþþþþþþþþþþþþþþþþþþ»
 0004AA                             8484              SPIELEV2 LABEL ,
 0004AA 5820 77A6            00B58  8486                       L     R2,SPIEREGS+(R7*4)
 0004AE 900F C780/4DE0_      00780  8487                       XTRACE SPIE2,REGS=(R1,R2)  Leave some tracks
                                    8494
 USING  EPIE,R1                     8495                       WITH  (EPIE,R1),BEGIN
 0004C2 D253 77CE 1000 00B80 00000  8509  1                      MVC   SPIESAVE,EPIE       Save EPIE
                                    8510  1
 0004C8 5820 C710/1222       00710  8511  1                      LT    R2,CVSPIEAD         User SPIE exit
 0004CE 4770 7124/4120_      004D6  8515  1                      IF    Z,'LA R2,SPIEFAIL'  No user exit, provide our own
 0004D6 9180 104C/47E0_0004C        8532  1                      IF    EPIEIA.X'80','O R2,=A(X"80000000")'  Preserve AMODE
 0004E2 5020 104C            0004C  8554  1                      ST    R2,EPIEIA           Set restart routine address
 DROP   EPIE,R1                     8555                       END
                                    8563
 0004E6 D703 C710 C710 00710 00710  8564                       CLEAR CVSPIEAD            Reset SPIE exit addr
                                    8571
 0004EC 900F C780/4DE0_      00780  8572                       XTRACE SPIERET,REGS=(R1,R2)
 000500 07FE                        8579                       BR    RAR                 Go off to user routine
-                                   8581                 ¿þþþþþþþþþþþþþþþþþþþþþþþþþþþþþþþþþþþþþþþþþþþþþþþþþþþþþþþþþþþþþþþþþþþþþÜ
                                    8582                 Ÿ  SPIEFAIL -- Entered when the user didn't have a CVSPIEAD routine.  Ÿ
                                    8583                 ¾þþþþþþþþþþþþþþþþþþþþþþþþþþþþþþþþþþþþþþþþþþþþþþþþþþþþþþþþþþþþþþþþþþþþþ»
 000502 0DF0                        8584              SPIEFAIL BASR  R15,0
 USING  *,R15                       8585                       WITH  (*,R15),BEGIN
 000504 4110 F67C            00B80  8600  1                      LA    R1,SPIESAVE         EPIE for FAIL/TRACE
 000508 900F C780/4DE0_      00780  8601  1                      KAPUT PGMCHK              Failsoft
 00051C 0000                        8607  1                      STOP  ,                   (No return)
 DROP   *,R15                       8609                       END
1WBUG     (WBUG2025) (13:00) (15MAR04) SPIE ROUTINE: process interrupts and breakpoints                                     Page   21
0Current Usings:  (DBDSECT,R6) (*,R7) (CP,R11) (CV,R12)
0Loc    Object Code    Addr1 Addr2  Stmt Lv Lineno    Source Statement           (Hibal 5, Asmedit 3.3)  HLASM R4.0  2004/03/15 13.00
+___    ______ ____    _____ _____  ____ __ ______    ______ _________
0                                   8618              ¿þþþþþþþþþþþþþþþþþþþþþþþþþþþþþþþþþþþþþþþþþþþþþþþþþþþþþþþþþþþþþþþþþþþþþÜ
                                    8619              Ÿ                                                                     Ÿ
                                    8620              Ÿ                                                                     Ÿ
                                    8621              Ÿ  TRAPCHK - CHECK IF WE HIT USER TRAP                                Ÿ
                                    8622              Ÿ                                                                     Ÿ
                                    8623              Ÿ       RETURNS -  CC=0, USER TRAP,    CC=NE  NOT USER TRAP           Ÿ
                                    8624              Ÿ                                                                     Ÿ
                                    8625              Ÿ                                                                     Ÿ
                                                      ¾þþþþþþþþþþþþþþþþþþþþþþþþþþþþþþþþþþþþþþþþþþþþþþþþþþþþþþþþþþþþþþþþþþþþþ»
000051E 50E0 D000/9008_      00000  8626              TRAPCHK  PROC  ,
 DROP   *,R7
 USING  *,R7
 000538 5810 7644            00B7C  8668                       L     R1,SPIEEPIE
 USING  EPIE,R1                     8669                       WITH  (EPIE,R1),BEGIN
 00053C 5810 104C            0004C  8683  1                      L     R1,EPIEIA          R1 - INSTRUCTION ADDR
 000540 4111 0000            00000  8684  1                      LA    R1,0(R1)                CLEAR AMODE BIT
 DROP   EPIE,R1                     8685                       END   , WITH (EPIE,R1)
 USING  DBTRAP,R5                   8693                       WITH  (DBTRAP,R5),BEGIN  LOOP LOOKING FOR MATCH TRAP ADDR
 000544 4150 6094            00094  8707  1                      LA    R5,DBTRAPS         R5 - TRAP LIST ADDR
 000548 4140 0024            00024  8708  1                      LA    R4,USERTC+SPECTC
 00054C 1244/4780 702C_             8709  1                      WHILE ((R4,NZ),AND,(R1,NE,DBTPADDR)),BEGIN
 00055A 4150 5010            00010  8741  2                        LA    R5,DBTPNEXT
 00055E 0640                        8742  2                        BCTR  R4,0
 000560 47F0 7014            0054C  8743  1                      END
 DROP   DBTRAP,R5                   8748                       END   , WITH (DBTRAP,R5)
-000564 1244/4780 7034_             8757                       IF    (R4,NZ),' CLEAR R15 '   WE HAVE USER TRAP
 00056C 1244/4770 703E_             8780                       IF    (R4,Z),'  LA R15,4  '   WE NO HAVE USER TRAP
 000576 18D8/9808 D004_             8800                       PEND  ,
 DROP   *,R7
 USING  *,R7
1WBUG     (WBUG2025) (13:00) (15MAR04) SPIE ROUTINE: process interrupts and breakpoints                                     Page   22
0Current Usings:  (DBDSECT,R6) (*,R7) (CP,R11) (CV,R12)
0Loc    Object Code    Addr1 Addr2  Stmt Lv Lineno    Source Statement           (Hibal 5, Asmedit 3.3)  HLASM R4.0  2004/03/15 13.00
+___    ______ ____    _____ _____  ____ __ ______    ______ _________
0                                   8828              ¿þþþþþþþþþþþþþþþþþþþþþþþþþþþþþþþþþþþþþþþþþþþþþþþþþþþþþþþþþþþþþþþþþþþþþÜ
                                    8829              Ÿ                                                                     Ÿ
                                    8830              Ÿ                                                                     Ÿ
                                    8831              Ÿ  TRAPSOFF - turn off traps, we avoid recursive traping              Ÿ
                                    8832              Ÿ                                                                     Ÿ
                                    8833              Ÿ                                                                     Ÿ
                                                      ¾þþþþþþþþþþþþþþþþþþþþþþþþþþþþþþþþþþþþþþþþþþþþþþþþþþþþþþþþþþþþþþþþþþþþþ»
0000584 50E0 D000/9008_      00000  8834              TRAPSOFF PROC  ,TRACE=NO    NO RECURSIVE TRACING !!
 DROP   *,R7
 USING  *,R7
 USING  DBTRAP,R5                   8875                       WITH  (DBTRAP,R5),BEGIN
 000594 4150 6094            00094  8889  1                      LA    R5,DBTRAPS         LOOP THRU ALL TRAPS,
 000598 4140 0024            00024  8890  1                      LA    R4,USERTC+SPECTC
 00059C 1244/4780 702A              8891  1                      WHILE (R4,NZ),BEGIN      LOOP THRU ALL TRAPS
 0005A2 5810 5000            00000  8907  2                        L     R1,DBTPADDR        R1 - TRAP ADDRESS
 0005A6 1211/4780 7020              8908  2                        IF    (R1,NZ),BEGIN
 0005AC 4800 5004            00004  8922  3                          LH    R0,DBTPOPCD        R0 - ORIGINAL OPCODE
 0005B0 4001 0000            00000  8923  3                          STH   R0,0(R1)           RESTORE ORIGINAL OPCODE
 0005B4                             8924  2                        END
 0005B4 0640                        8928  2                        BCTR  R4,0
 0005B6 4150 5010            00010  8929  2                        LA    R5,DBTPNEXT
 0005BA 47F0 7008            0059C  8930  1                      END
 DROP   DBTRAP,R5                   8935                       END   , WITH (DBTRAP,R5)
 0005BE 18D8/9808 D004_             8943                       PEND  ,
 DROP   *,R7
 USING  *,R7
1WBUG     (WBUG2025) (13:00) (15MAR04) SPIE ROUTINE: process interrupts and breakpoints                                     Page   23
0Current Usings:  (DBDSECT,R6) (*,R7) (CP,R11) (CV,R12)
0Loc    Object Code    Addr1 Addr2  Stmt Lv Lineno    Source Statement           (Hibal 5, Asmedit 3.3)  HLASM R4.0  2004/03/15 13.00
+___    ______ ____    _____ _____  ____ __ ______    ______ _________
0                                   8971              ¿þþþþþþþþþþþþþþþþþþþþþþþþþþþþþþþþþþþþþþþþþþþþþþþþþþþþþþþþþþþþþþþþþþþþþÜ
                                    8972              Ÿ                                                                     Ÿ
                                    8973              Ÿ                                                                     Ÿ
                                    8974              Ÿ  TRAPSON - turn traps back on, they may be off to avoid             Ÿ
                                    8975              Ÿ            recursive traping.                                       Ÿ
                                    8976              Ÿ                                                                     Ÿ
                                    8977              Ÿ                                                                     Ÿ
                                                      ¾þþþþþþþþþþþþþþþþþþþþþþþþþþþþþþþþþþþþþþþþþþþþþþþþþþþþþþþþþþþþþþþþþþþþþ»
00005CC 50E0 D000/9008_      00000  8978              TRAPSON  PROC  ,TRACE=NO    NO RECURSIVE TRACING !!!
 DROP   *,R7
 USING  *,R7
 0005DC 9120 6008/4710_00008        9019                       IF    ~DBRNO,BEGIN       IF ANTI-RECURSION FLAG IS OFF
                                    9034  1                      COMMENT                     WE CAN TURN TRAPS BACK ON
                                    9035  1                      ¿þþþþþþþþþþþþþþþþþþþþþþþþþþþþþþþþþþþþþÜ
                                    9036  1                      Ÿ  UPDATE OPCODE FIELD FOR ALL TRAPS  Ÿ
                                    9037  1                      ¾þþþþþþþþþþþþþþþþþþþþþþþþþþþþþþþþþþþþþ»
 USING  DBTRAP,R5                   9038  1                      WITH  (DBTRAP,R5),BEGIN
 0005E4 4150 6094            00094  9052  2                        LA    R5,DBTRAPS         RESET ALL OPCODES
 0005E8 4140 0024            00024  9053  2                        LA    R4,USERTC+SPECTC
 0005EC 1244/4780 703A              9054  2                        WHILE (R4,NZ),BEGIN      LOOP THRU ALL TRAPS
 0005F2 5810 5000            00000  9070  3                          L     R1,DBTPADDR        R1 - TRAP ADDRESS
 0005F6 1211/4780 7030              9071  3                          IF    (R1,NZ),BEGIN
 0005FC 4801 0000            00000  9085  4                            LH    R0,0(R1)           R0 - TRAPPED INSTR OPCODE
 000600 4900 769A            00C76  9086  4                            CH    R0,=AL2(TRAPCODE)
 000604 4780 7030            0060C  9087  4                            IF    NE,BEGIN           IF VALID OPCODE, SAVE IT
 000608 4000 5004            00004  9098  5                              STH   R0,DBTPOPCD
 00060C                             9099  4                            END
 00060C                             9103  3                          END
 00060C 4150 5010            00010  9107  3                          LA    R5,DBTPNEXT
 000610 0640                        9108  3                          BCTR  R4,0
 000612 47F0 7010            005EC  9109  2                        END
                                    9114  2                        ¿þþþþþþþþþþþþþþþþþþþþþþþÜ
                                    9115  2                        Ÿ  INSERT TRAP OPCODES  Ÿ
                                    9116  2                        ¾þþþþþþþþþþþþþþþþþþþþþþþ»
 000616 4150 6094            00094  9117  2                        LA    R5,DBTRAPS
 00061A 4140 0024            00024  9118  2                        LA    R4,USERTC+SPECTC
 00061E 1244/4780 7064              9119  2                        WHILE (R4,NZ),BEGIN      LOOP THRU ALL TRAPS
 000624 5810 5000            00000  9135  3                          L     R1,DBTPADDR
 000628 1211/4780 705A              9136  3                          IF    (R1,NZ),BEGIN
 00062E 4800 769A            00C76  9150  4                            LH    R0,=AL2(TRAPCODE)  R0 - TRAP OPCODE
 000632 4001 0000            00000  9151  4                            STH   R0,0(R1)
 000636                             9152  3                          END
 000636 0640                        9156  3                          BCTR  R4,0
 000638 4150 5010            00010  9157  3                          LA    R5,DBTPNEXT
 00063C 47F0 7042            0061E  9158  2                        END
 000640 4150 6194            00194  9163  2                        LA    R5,DBTRAPI         DO NOT TRAP SIM INSTRUCTION
 000644 D201 6034 5004 00034 00004  9164  2                        MVC   DBINSTR(2),DBTPOPCD
 DROP   DBTRAP,R5                   9165  1                      END   , WITH (DBTRAP,R5)
 00064A                             9173                       END
                                    9177
 00064A 18D8/9808 D004_             9178                       PEND  ,
 DROP   *,R7
 USING  *,R7
1WBUG     (WBUG2025) (13:00) (15MAR04) SPIE ROUTINE: process interrupts and breakpoints                                     Page   24
0Current Usings:  (DBDSECT,R6) (*,R7) (CP,R11) (CV,R12)
0Loc    Object Code    Addr1 Addr2  Stmt Lv Lineno    Source Statement           (Hibal 5, Asmedit 3.3)  HLASM R4.0  2004/03/15 13.00
+___    ______ ____    _____ _____  ____ __ ______    ______ _________
0000000                00000 00010  9206              STWA     RECORD BEGIN
 000000                             9214  1           STTEMP     DS    CL(L'DBTRAP)
 000010                00010 00010  9215                       END
                                    9224              ¿þþþþþþþþþþþþþþþþþþþþþþþþþþþþþþþþþþþþþþþþþþþþþþþþþþþþþþþþþþþþþþþþþþþþþÜ
                                    9225              Ÿ                                                                     Ÿ
                                    9226              Ÿ                                                                     Ÿ
                                    9227              Ÿ  SETTRAP - set trap opcode                                          Ÿ
                                    9228              Ÿ                                                                     Ÿ
                                    9229              Ÿ  this routine should be called to set trap opcode into place.       Ÿ
                                    9230              Ÿ  it sets the trap checking for recursion, and also for multiple     Ÿ
                                    9231              Ÿ  traps at the same address                                          Ÿ
                                    9232              Ÿ                                                                     Ÿ
                                    9233              Ÿ  on entry:  R5 - trap entry address                                 Ÿ
                                    9234              Ÿ                                                                     Ÿ
                                    9235              Ÿ  on exit:  DBTPOPCD set, and trap turned on if appropriate          Ÿ
                                    9236              Ÿ                                                                     Ÿ
                                    9237              Ÿ                                                                     Ÿ
                                    9238              Ÿ                                                                     Ÿ
                                                      ¾þþþþþþþþþþþþþþþþþþþþþþþþþþþþþþþþþþþþþþþþþþþþþþþþþþþþþþþþþþþþþþþþþþþþþ»
0000658 50E0 D000/9008_      00000  9239              SETTRAP  PROC  STWA,TRACE=NO  NO RECURSIVE TRACING !!!
 DROP   *,R7
 USING  *,R7
 USING  STWA-(4+36),R8
 USING  DBTRAP,R5                   9291                       WITH  (DBTRAP,R5),BEGIN  R5 - TRAP ENTRY ADDRESS
 000668 D20F 8028 5000 00000 00000  9305  1                      MVC   STTEMP(L'DBTRAP),DBTRAP
 00066E D70F 5000 5000 00000 00000  9306  1                      CLEAR DBTRAP
 000674 58E0 75AC/0DEE       00C14  9313  1                      ACALL TRAPSOFF           RESTORE CORRECT OPCODE
 00067A D20F 5000 8028 00000 00000  9317  1                      MVC   DBTRAP(L'DBTRAP),STTEMP
 000680 5810 5000            00000  9318  1                      L     R1,DBTPADDR        SET OPCODE IN TRAP ENTRY
 000684 4801 0000            00000  9319  1                      LH    R0,0(R1)
 000688 4000 5004            00004  9320  1                      STH   R0,DBTPOPCD
 00068C 58E0 75C0/0DEE       00C28  9321  1                      ACALL TRAPSON            TURN TRAPS IF NO RECURSION PROB
 DROP   DBTRAP,R5                   9325                       END   , WITH(DPTRAP,R5)
 000692 18D8/9808 D004_             9333                       PEND  ,
 DROP   STWA-(4+36),R8
 DROP   *,R7
 USING  *,R7
1WBUG     (WBUG2025) (13:00) (15MAR04) SPIE ROUTINE: trap user                                                              Page   25
0Current Usings:  (DBDSECT,R6) (*,R7) (CP,R11) (CV,R12)
0Loc    Object Code    Addr1 Addr2  Stmt Lv Lineno    Source Statement           (Hibal 5, Asmedit 3.3)  HLASM R4.0  2004/03/15 13.00
+___    ______ ____    _____ _____  ____ __ ______    ______ _________
0                                   9366              ¿þþþþþþþþþþþþþþþþþþþþþþþþþþþþþþþþþþþþþþþþþþþþþþþþþþþþþþþþþþþþþþþþþþþþþÜ
                                    9367              Ÿ                                                                     Ÿ
                                    9368              Ÿ                                                                     Ÿ
                                    9369              Ÿ  TRAPUSER - STOP USER AND START UP DEBUG TERMINAL                   Ÿ
                                    9370              Ÿ                                                                     Ÿ
                                    9371              Ÿ  WE DO THE FOLLOWING:                                               Ÿ
                                    9372              Ÿ       1.  SET UP DEBUG AREA FOR BREAK                               Ÿ
                                    9373              Ÿ       2.  PROCESS UNUSUAL TRAP TYPES                                Ÿ
                                    9374              Ÿ       3.  LOCK ALL PAGES                                            Ÿ
                                    9375              Ÿ       4.  SAVE CP, STACK, AND HEAP AREAS                            Ÿ
                                    9376              Ÿ       5.  ENABLE SPIE RECUSION                                      Ÿ
                                    9377              Ÿ       6.  PAUSE THIS USER, START DEBUGER TERMINAL                   Ÿ
                                    9378              Ÿ       7.  WAIT                                                      Ÿ
                                    9379              Ÿ       8.  REVERSE STEPS 2,3,4,5,6                                   Ÿ
                                    9380              Ÿ       9.  SIMULATE TRAPED INSTRUCTION                               Ÿ
                                    9381              Ÿ                                                                     Ÿ
                                    9382              Ÿ                                                                     Ÿ
                                                      ¾þþþþþþþþþþþþþþþþþþþþþþþþþþþþþþþþþþþþþþþþþþþþþþþþþþþþþþþþþþþþþþþþþþþþþ»
00006A0 50E0 D000/9008_      00000  9383              TRAPUSER PROC ,      SET UP TRAP AND STOP USER
 DROP   *,R7
 USING  *,R7
                                    9425                       ¿þþþþþþþþþþþþþþþþþþþþþþþþþþþþþþþþþþþþþþþþþþþþþþþþþÜ
                                    9426                       Ÿ  SET UP DEBUG DATA AREA WITH BREAK INFORMATION  Ÿ
                                    9427                       ¾þþþþþþþþþþþþþþþþþþþþþþþþþþþþþþþþþþþþþþþþþþþþþþþþþ»
 0006BA 58E0 7572/0DEE       00C2C  9428                       ACALL DBSETUP            SET UP DEBUG AREA
                                    9432              *
                                    9433              *  CHECK IF THIS TRAP SHOULD BE TAKEN
                                    9434              *
                                    9435              ***      QSNAP 'DBDSECT AFTER DBAREA SET UP'
                                    9436              ***      QSNAP DBDSECT,240
 0006C0 9180 6008/4710_00008        9437                       IF    ~DBACTIVE,BEGIN               IF DEBUG NOT ACTIVE,
 0006C8 58E0 7576/0DEE       00C30  9452  1                      ACALL TRAPSKIP                      SKIP TRAP
 0006CE 47F0 7170            0082A  9456  1                      B     TRAPEXIT
 0006D2                             9457                       END
                                    9461
 0006D2 D503 751A 6010_00BD4 00010  9462                       IF    (DBEEJCB,EQ,0),BEGIN          IF NO DEBUGEE SPECIFIED,
 0006DC D503 C1C8 600C_001C8 0000C  9480  1                      IF    (CVCURJCB,NE,DBERJCB),BEGIN   THEN DEBUG THIS USER
 0006E6 D203 6010 C1C8 00010 001C8  9498  2                        MVC   DBEEJCB,CVCURJCB
 0006EC                             9499  1                      END
 0006EC                             9503                       END
                                    9507
 0006EC D503 C1C8 6010_001C8 00010  9508                       IF    (CVCURJCB,NE,DBEEJCB),BEGIN   IF USER NOT DEBUGEE,
 0006F6 58E0 7576/0DEE       00C30  9526  1                      ACALL TRAPSKIP                       SKIP TRAP
 0006FC 47F0 7170            0082A  9530  1                      B     TRAPEXIT
 000700                             9531                       END
                                    9535              *
                                    9536              *  TRAPS IN DISPATCHER ARE EXECUTED AND NOT TRAPPED
                                    9537              *  WE CHECK STACK PTR TO SEE IF IN DISPATCHER,  VERY TRICKY
 000700 5810 74B6            00B70  9538                       L     R1,SPIEREGS+R13*4
 000704 5910 C274/4740_      00274  9539                       IF    ((R1,LT,CVSTACK),OR,(R1,GT,CVSTACKE)),BEGIN
 000714 9680 600A      0000A        9572  1                      SET   DBEXECD             MARK TRAP EXECUTED, NOT TRAPPED
 000718 58E0 7576/0DEE       00C30  9578  1                      ACALL TRAPSKIP
 00071E 47F0 7170            0082A  9582  1                      B     TRAPEXIT
1WBUG     (WBUG2025) (13:00) (15MAR04) SPIE ROUTINE: trap user                                                              Page   26
0Current Usings:  (DBDSECT,R6) (*,R7) (CP,R11) (CV,R12)
0Loc    Object Code    Addr1 Addr2  Stmt Lv Lineno    Source Statement           (Hibal 5, Asmedit 3.3)  HLASM R4.0  2004/03/15 13.00
+___    ______ ____    _____ _____  ____ __ ______    ______ _________
0000722                             9583                       END   ,
                                    9587                       ¿þþþþþþþþþþþþþþþþþþþþþþþþþþþþþþþþþþÜ
                                    9588                       Ÿ  PROCESS VARIOUS TYPES OF TRAPS  Ÿ
                                    9589                       ¾þþþþþþþþþþþþþþþþþþþþþþþþþþþþþþþþþþ»
 000722 4150 6084            00084  9590                       LA    R5,DBTRAPNF        R5 - CURRENT BREAK TRAP INFO
 USING  DBTRAP,R5                   9591                       WITH  (DBTRAP,R5),BEGIN
                                    9605  1
 000726 9120 5006/47E0_00006        9606  1                      IF    DBTPCONT,BEGIN     IF CONTINUE TRAP SPRUNG,,,
 00072E 5810 5008            00008  9621  2                        L     R1,DBTPINFO          ADDR OF INSTR + LEN = NEXT INSTR
 000732 5A10 500C            0000C  9622  2                        A     R1,DBTPINFO+4        PATCH THIS INTO START ADDR
 000736 5010 6020            00020  9623  2                        ST    R1,DBIA
 00073A 58E0 757A/0DEE       00C34  9624  2                        ACALL DBRESET              RESET PSW, REGS
 000740 47F0 7170            0082A  9628  2                        B     TRAPEXIT
 000744                             9629  1                      END
                                    9633  1
 000744 9140 5006/47E0_00006        9634  1                      IF    DBTPINST,BEGIN     IF SIMULATE INSTR. TRAP SPRUNG,,,
 00074C 5810 5008            00008  9649  2                        L     R1,DBTPINFO          R1 - INSTRUCTION THAT WAS TRAPPED
 000750 5010 6020            00020  9650  2                        ST    R1,DBIA
 000754 4150 6094            00094  9651  2                        LA    R5,DBTRAPS           FIND TRAP FOR SIMULATED INSTR
 000758 4140 0024            00024  9652  2                        LA    R4,USERTC+SPECTC
 00075C 5940 757E/47D0_      00C38  9653  2                        WHILE ((R4,GT,0),AND,(' C R1,DBTPADDR',NE)),BEGIN
 00076C 4150 5010            00010  9684  3                          LA    R5,DBTPNEXT
 000770 0640                        9685  3                          BCTR  R4,0
 000772 47F0 70A2            0075C  9686  2                        END
 000776 D20F 6084 5000 00084 00000  9691  2                        MVC   DBTRAPNF(16),DBTRAP  GET ACTUAL TRAP INFO
 00077C 4150 6084            00084  9692  2                        LA    R5,DBTRAPNF
 000780 9602 5006      00006        9693  2                        SET   DBTPIRPT             SET INTERRUPT FLAG
 000784 4150 6084            00084  9699  2                        LA    R5,DBTRAPNF
 000788                             9700  1                      END
                                    9704  1
 000788 9110 5006/47E0_00006        9705  1                      IF    DBTPTRC,BEGIN      IF TRACE TRAP SPRUNG,,
 000790 4150 61B4            001B4  9720  2                        LA    R5,DBTRAPT           CLEAR TRACE TRAP
 000794 D70F 5000 5000 00000 00000  9721  2                        CLEAR DBTRAP
 00079A 4150 6084            00084  9728  2                        LA    R5,DBTRAPNF
 00079E                             9729  1                      END
                                    9733  1
 00079E 9108 5006/47E0_00006        9734  1                      IF    DBTPNTY,BEGIN      IF ROUTINE ENTRY TRAP SPRUNG,,,
 0007A6 4150 61C4            001C4  9749  2                        LA    R5,DBTRAPE            CLEAR ENTRY TRAP
 0007AA D70F 5000 5000 00000 00000  9750  2                        CLEAR DBTRAP
 0007B0 4150 6084            00084  9757  2                        LA    R5,DBTRAPNF
 0007B4                             9758  1                      END
                                    9762  1
 0007B4 9104 5006/47E0_00006        9763  1                      IF    DBTPRET,BEGIN      IF ROUTINE RETURN TRAP SPRUNG,,,
 0007BC 4150 62C4            002C4  9778  2                        LA    R5,DBTRAPRL           CLEAR RETURN TRAP BY POPPING
 0007C0 D70F 5000 5000 00000 00000  9779  2                        CLEAR DBTRAP                RETURN TRAP STACK
 0007C6 4150 61D4            001D4  9786  2                        LA    R5,DBTRAPR
 0007CA 5810 6020            00020  9787  2                        L     R1,DBIA
 0007CE 5910 5000/4780_      00000  9788  2                        WHILE (R1,NE,DBTPADDR),BEGIN    IF NOT 1ST TRAP, KEEP POPING
 0007D6 D2AF 61D4 61E4 001D4 001E4  9807  3                          MVC   DBTRAPR((RETTC-1)*L'DBTRAP),DBTRAPR2
 0007DC 47F0 7114            007CE  9808  2                        END
 0007E0 D2AF 61D4 61E4 001D4 001E4  9813  2                        MVC   DBTRAPR((RETTC-1)*L'DBTRAP),DBTRAPR2
 0007E6 4150 6084            00084  9814  2                        LA    R5,DBTRAPNF
 0007EA                             9815  1                      END
 DROP   DBTRAP,R5                   9819                       END   , WITH (DBTRAP,R5)
1WBUG     (WBUG2025) (13:00) (15MAR04) SPIE ROUTINE: trap user                                                              Page   27
0Current Usings:  (DBDSECT,R6) (*,R7) (CP,R11) (CV,R12)
0Loc    Object Code    Addr1 Addr2  Stmt Lv Lineno    Source Statement           (Hibal 5, Asmedit 3.3)  HLASM R4.0  2004/03/15 13.00
+___    ______ ____    _____ _____  ____ __ ______    ______ _________
0                                   9827                       ¿þþþþþþþþþþþþþþþþþþþþþþþþþþþþþþþþþþþþþþþþþþþþþþþþþþþþþþþþþþþþþþÜ
                                    9828                       Ÿ                                                              Ÿ
                                    9829                       Ÿ  TURN OFF TRAPS, LOCK USERS PAGES IN CORE, ALLOW INTERRUPTS  Ÿ
                                    9830                       ¾þþþþþþþþþþþþþþþþþþþþþþþþþþþþþþþþþþþþþþþþþþþþþþþþþþþþþþþþþþþþþþ»
 0007EA 58E0 7582/0DEE       00C3C  9831                       ACALL LOCKP              LOCK USERS PAGES
 0007F0 58E0 7586/0DEE       00C40  9835                       ACALL SAVEP              SAVE USERS CP, STACK, HEAP PAGES
                                    9839              *$       FIX SPIE RECURSION !
                                    9840              *$       L     R1,SPIEEPIE        TURN ON SPIE RECURSION FLAG
                                    9841              *$       NI    0(R1),X'7F'
 0007F6 9640 6008      00008        9842                       SET   DBBREAK            WE START SESSION BREAK
                                    9848                       ¿þþþþþþþþþþþþþþþþþþþþþþþþþþþþþþþþþþþþþþþþþþþþþþþþþþþþÜ
                                    9849                       Ÿ  PUT DEBUGGER ON RUN QUEUE AND PAUSE DEBUGEE (US)  Ÿ
                                    9850                       ¾þþþþþþþþþþþþþþþþþþþþþþþþþþþþþþþþþþþþþþþþþþþþþþþþþþþþ»
 0007FA 5810 600C            0000C  9851                       L     R1,DBERJCB         START DEBUGGER
 0007FE 58E0 7532/0DEE       00BEC  9852                       ACALL STARTJCB
 000804 5810 6010            00010  9856                       L     R1,DBEEJCB         PAUSE US
 000808 58E0 7536/0DEE       00BF0  9857                       ACALL PAUSEJCB
                                    9861                       ¿þþþþþþþþþþþþþþþþþþþþþþþþþþþþþþþþþþþþþþþþÜ
                                    9862                       Ÿ  WE RESUME EXECUTION HERE AFTER BREAK  Ÿ
                                    9863                       ¾þþþþþþþþþþþþþþþþþþþþþþþþþþþþþþþþþþþþþþþþ»
 00080E 94BF 6008      00008        9864                       CLEAR DBBREAK            WE ARE DONE WITH SESSION BREAK
                                    9871              *$       FIX SPIE RECURSION
                                    9872              *$       L     R1,SPIEEPIE        TURN OFF SPIE RECURSION FLAG
                                    9873              *$       OI    0(R1),X'80'
 000812 58E0 758A/0DEE       00C44  9874                       ACALL RESTOREP           RESTORE USERS CP, STACK, HEAP PAGES
 000818 58E0 758E/0DEE       00C48  9878                       ACALL UNLOCKP            UNLOCK USER PAGES
 00081E 58E0 7592/0DEE       00C4C  9882                       ACALL SIMULATE           SIMULATE TRAPED INSTUCTION
 000824 58E0 757A/0DEE       00C34  9886                       ACALL DBRESET            SET UP SPIE EXIT AND EXIT BELOW
                                    9890                       ¿þþþþþþþþþþþþþþþþþþþþþþþþþþþþþþþþþþþþþÜ
                                    9891                       Ÿ  TRAP COMPLETED EXIT VIA SPIE EXIT  Ÿ
                                    9892                       ¾þþþþþþþþþþþþþþþþþþþþþþþþþþþþþþþþþþþþþ»
 00082A                             9893              TRAPEXIT LABEL ,
 00082A 18D8/9808 D004_             9895                       PEND  ,
 DROP   *,R7
 USING  *,R7
1WBUG     (WBUG2025) (13:00) (15MAR04) SPIE ROUTINE: trap user                                                              Page   28
0Current Usings:  (DBDSECT,R6) (*,R7) (CP,R11) (CV,R12)
0Loc    Object Code    Addr1 Addr2  Stmt Lv Lineno    Source Statement           (Hibal 5, Asmedit 3.3)  HLASM R4.0  2004/03/15 13.00
+___    ______ ____    _____ _____  ____ __ ______    ______ _________
0                                   9923              ¿þþþþþþþþþþþþþþþþþþþþþþþþþþþþþþþþþþþþþþþþþþþþþþþþþþþþþþþþþþþþþþþþþþþþþÜ
                                    9924              Ÿ                                                                     Ÿ
                                    9925              Ÿ                                                                     Ÿ
                                    9926              Ÿ  TRAPSKIP - skip trap                                               Ÿ
                                    9927              Ÿ                                                                     Ÿ
                                    9928              Ÿ    we skip trap by simulating instruction.  main callers of this    Ÿ
                                    9929              Ÿ    routine are non-debug users hitting debug traps.                 Ÿ
                                    9930              Ÿ                                                                     Ÿ
                                    9931              Ÿ                                                                     Ÿ
                                                      ¾þþþþþþþþþþþþþþþþþþþþþþþþþþþþþþþþþþþþþþþþþþþþþþþþþþþþþþþþþþþþþþþþþþþþþ»
0000838 50E0 D000/9008_      00000  9932              TRAPSKIP PROC  ,
 DROP   *,R7
 USING  *,R7
 000852 4150 6084            00084  9974                       LA    R5,DBTRAPNF        R5 - CURRENT BREAK TRAP INFO
 USING  DBTRAP,R5                   9975                       WITH  (DBTRAP,R5),BEGIN
                                    9989  1           *
                                    9990  1           * first handle any problems from previous instuction skip,,
                                    9991  1           *
 000856 9120 5006/47E0_00006        9992  1                      IF    DBTPCONT,BEGIN     IF CONTINUE PREVIOUS SIMULATE,
 00085E 5810 5008            00008 10007  2                        L     R1,DBTPINFO           PATCH NEXT INSTR ADDR INTO PSW
 000862 5A10 500C            0000C 10008  2                        A     R1,DBTPINFO+4         INSTR ADDR+INSTR LEN=NEXT INSTR
 000866 5010 6020            00020 10009  2                        ST    R1,DBIA               AND CONTINUE USER'S EXECUTION
 00086A 58E0 73E2/0DEE       00C34 10010  2                        ACALL DBRESET
 000870 47F0 705C            008AE 10014  2                        B     TSKIPRET
 000874                            10015  1                      END
 000874 9140 5006/47E0_00006       10019  1                      IF    DBTPINST,BEGIN      IF INSTR SIMULATED BOMBED,
 00087C D203 6020 5008 00020 00008 10034  2                        MVC   DBIA(4),DBTPINFO                    BOMB THIS USER
 000882 58E0 73E2/0DEE       00C34 10035  2                        ACALL DBRESET
 000888 5810 732A            00B7C 10039  2                        L     R1,SPIEEPIE
 00088C 900F C780/4DE0_      00780 10040  2                        KAPUT PGMCHK              BOMB
 0008A0 0000                       10046  2                        STOP
 0008A2                            10048  1                      END
                                   10052  1                      ¿þþþþþþþþþþþþþÜ
                                   10053  1                      Ÿ  skip trap  Ÿ
                                   10054  1                      ¾þþþþþþþþþþþþþ»
 0008A2 58E0 73FA/0DEE       00C4C 10055  1                      ACALL SIMULATE            SIMULATE TRAPED INSTRUCTION
 0008A8 58E0 73E2/0DEE       00C34 10059  1                      ACALL DBRESET             SET UP SPIE EXIT
                                   10063  1                      COMMENT                   WE SKIP TRAP AND EXIT
 DROP   DBTRAP,R5                  10064                       END   , WITH (DBTRAP,R5)
                                   10072
 0008AE                            10073              TSKIPRET LABEL ,
 0008AE 18D8/9808 D004_            10075                       PEND  ,
 DROP   *,R7
 USING  *,R7
1WBUG     (WBUG2025) (13:00) (15MAR04) SPIE ROUTINE: trap user                                                              Page   29
0Current Usings:  (DBDSECT,R6) (*,R7) (CP,R11) (CV,R12)
0Loc    Object Code    Addr1 Addr2  Stmt Lv Lineno    Source Statement           (Hibal 5, Asmedit 3.3)  HLASM R4.0  2004/03/15 13.00
+___    ______ ____    _____ _____  ____ __ ______    ______ _________
0                                  10103              ¿þþþþþþþþþþþþþþþþþþþþþþþþþþþþþþþþþþþþþþþþþþþþþþþþþþþþþþþþþþþþþþþþþþþþþÜ
                                   10104              Ÿ                                                                     Ÿ
                                   10105              Ÿ                                                                     Ÿ
                                   10106              Ÿ                                                                     Ÿ
                                   10107              Ÿ  DBSETUP - set up users debug area with spie info, break info       Ÿ
                                   10108              Ÿ                                                                     Ÿ
                                   10109              Ÿ                                                                     Ÿ
                                                      ¾þþþþþþþþþþþþþþþþþþþþþþþþþþþþþþþþþþþþþþþþþþþþþþþþþþþþþþþþþþþþþþþþþþþþþ»
00008BC 50E0 D000/9008_      00000 10110              DBSETUP  PROC  ,
 DROP   *,R7
 USING  *,R7
 0008D6 50B0 6014            00014 10152                       ST    CPR,DBEECP          DEBUGEE CP ADDRESS
                                   10153                       ¿þþþþþþþþþþþþþþþþþþþþþþþþÜ
                                   10154                       Ÿ  SAVE SPIE STATE INFO  Ÿ
                                   10155                       ¾þþþþþþþþþþþþþþþþþþþþþþþþ»
 0008DA 5810 72A6            00B7C 10156                       L     R1,SPIEEPIE         R1 - PIE ADDRESS
 USING  EPIE,R1                    10157                       WITH  (EPIE,R1),BEGIN
 0008DE D207 603C 1048 0003C 00048 10171  1                      MVC   DBPSW(8),EPIEPSW        SAVE BREAK PSW
 0008E4 D23F 6044 1008 00044 00008 10172  1                      MVC   DBREGS(64),EPIEREGS     SAVE BREAK REGISTERS
 0008EA 4820 1050            00050 10173  1                      LH    R2,EPIEILC              SAVE ILC
 0008EE 5020 602C            0002C 10174  1                      ST    R2,DBILC
 0008F2 4820 1052            00052 10175  1                      LH    R2,EPIEIC
 0008F6 5020 6028            00028 10176  1                      ST    R2,DBIC
 0008FA 5820 104C            0004C 10177  1                      L     R2,EPIEIA               SAVE INSRUCTION ADDRESS
 0008FE 4122 0000            00000 10178  1                      LA    R2,0(R2)
 000902 5020 6020            00020 10179  1                      ST    R2,DBIA
 000906 4320 104A            0004A 10180  1                      IC    R2,EPIECC               CC
 00090A 8920 001A            0001A 10181  1                      SLL   R2,26                       IN BITS 2-3
 00090E 8820 001E            0001E 10182  1                      SRL   R2,30
 000912 5020 6024            00024 10183  1                      ST    R2,DBCC
 DROP   EPIE,R1                    10184                       END   , WITH (PIE,R1)
                                   10192              *
                                   10193              * FIND TRAP, AND TRAP TYPE
                                   10194              *
 000916 D70F 6084 6084 00084 00084 10195                       XC    DBTRAPNF(16),DBTRAPNF   CLEAR TRAP INFO
 00091C 4150 6094            00094 10196                       LA    R5,DBTRAPS         R5 - TRAP LIST, TRAP DSECT
 USING  DBTRAP,R5                  10197                       WITH  (DBTRAP,R5),BEGIN
 000920 5810 6020            00020 10211  1                      L     R1,DBIA            R1 - INSTRUCTION ADDRESS
 000924 4140 0024            00024 10212  1                      LA    R4,USERTC+SPECTC   FIND TRAP, LOOP THRU ALL TRAPS
 000928 5940 7362/47D0_      00C38 10213  1                      WHILE ((R4,GT,0),AND,(R1,NE,DBTPADDR)),BEGIN
 000938 4150 5010            00010 10248  2                        LA    R5,DBTPNEXT
 00093C 0640                       10249  2                        BCTR  R4,0
 00093E 47F0 7052            00928 10250  1                      END
 000942 1244/4780 7078             10255  1                      IF    (R4,NZ),BEGIN      IF TRAP FOUND,
 000948 D20F 6084 5000 00084 00000 10269  2                        MVC   DBTRAPNF(16),DBTRAP     SAVE CURRENT TRAP INFO
 00094E                            10270  1                      END
 00094E 4150 6084            00084 10274  1                      LA    R5,DBTRAPNF        R5 - CURRENT TRAP INFO
 000952 D503 72FE 5000_00BD4 00000 10275  1                      IF    (DBTPADDR,EQ,0),BEGIN   IF NO TRAP, MUST BE INTRUPT
 00095C 9602 5006      00006       10293  2                        SET   DBTPIRPT
 000960                            10299  1                      END
 DROP   DBTRAP,R5                  10303                       END   , WITH (DBTRAP,R5)
                                   10311              *
                                   10312              *
1WBUG     (WBUG2025) (13:00) (15MAR04) SPIE ROUTINE: trap user                                                              Page   30
0Current Usings:  (DBDSECT,R6) (*,R7) (CP,R11) (CV,R12)
0Loc    Object Code    Addr1 Addr2  Stmt Lv Lineno    Source Statement           (Hibal 5, Asmedit 3.3)  HLASM R4.0  2004/03/15 13.00
+___    ______ ____    _____ _____  ____ __ ______    ______ _________
0000960 5810 C710            00710 10313                       L     R1,CVSPIEAD        SAVE SPIE EXIT ADDRESS
 000964 5010 62E0            002E0 10314                       ST    R1,DBSPIEAD
 000968 1B11                       10315                       SR    R1,R1
 00096A 5010 C710            00710 10316                       ST    R1,CVSPIEAD
                                   10317              *
                                   10318              * EXIT
                                   10319              *
 00096E 18D8/9808 D004_            10320                       PEND  ,
 DROP   *,R7
 USING  *,R7
1WBUG     (WBUG2025) (13:00) (15MAR04) SPIE ROUTINE: trap user                                                              Page   31
0Current Usings:  (DBDSECT,R6) (*,R7) (CP,R11) (CV,R12)
0Loc    Object Code    Addr1 Addr2  Stmt Lv Lineno    Source Statement           (Hibal 5, Asmedit 3.3)  HLASM R4.0  2004/03/15 13.00
+___    ______ ____    _____ _____  ____ __ ______    ______ _________
0                                  10348              *
                                   10349              **
                                   10350              **  LOCKP - lock users pages in core
                                   10351              **
                                   10352              *$
                                   10353              *$ may need to save page addresses and free pages, etc. etc.
                                   10354              *$
                                   10355              *
 00097C 50E0 D000/9008_      00000 10356              LOCKP    PROC  ,
 DROP   *,R7
 USING  *,R7
 000996 58E0 72BA/0DEE       00C50 10398                       VCALL PLOCKA              Lock PAR
 00099C 58E0 72BE/0DEE       00C54 10402                       VCALL PLOCKB              Lock PBR
 0009A2 18D8/9808 D004_            10406                       PEND  ,
 DROP   *,R7
 USING  *,R7
1WBUG     (WBUG2025) (13:00) (15MAR04) SPIE ROUTINE: trap user                                                              Page   32
0Current Usings:  (DBDSECT,R6) (*,R7) (CP,R11) (CV,R12)
0Loc    Object Code    Addr1 Addr2  Stmt Lv Lineno    Source Statement           (Hibal 5, Asmedit 3.3)  HLASM R4.0  2004/03/15 13.00
+___    ______ ____    _____ _____  ____ __ ______    ______ _________
0                                  10434              ¿þþþþþþþþþþþþþþþþþþþþþþþþþþþþþþþþþþþþþþþþþþþþþþþþþþþþþþþþþþþþþþþþþþþþþÜ
                                   10435              Ÿ                                                                     Ÿ
                                   10436              Ÿ                                                                     Ÿ
                                   10437              Ÿ  UNLOCKP - unlock users pages, no longer need be in core.           Ÿ
                                   10438              Ÿ                                                                     Ÿ
                                   10439              Ÿ                                                                     Ÿ
                                                      ¾þþþþþþþþþþþþþþþþþþþþþþþþþþþþþþþþþþþþþþþþþþþþþþþþþþþþþþþþþþþþþþþþþþþþþ»
00009B0 50E0 D000/9008_      00000 10440              UNLOCKP  PROC  ,
 DROP   *,R7
 USING  *,R7
 0009CA 58E0 728E/0DEE       00C58 10482                       VCALL PUNLOCKA            Unlock PAR
 0009D0 58E0 7292/0DEE       00C5C 10486                       VCALL PUNLOCKB            Unlock PBR
 0009D6 18D8/9808 D004_            10490                       PEND  ,
 DROP   *,R7
 USING  *,R7
1WBUG     (WBUG2025) (13:00) (15MAR04) SPIE ROUTINE: trap user                                                              Page   33
0Current Usings:  (DBDSECT,R6) (*,R7) (CP,R11) (CV,R12)
0Loc    Object Code    Addr1 Addr2  Stmt Lv Lineno    Source Statement           (Hibal 5, Asmedit 3.3)  HLASM R4.0  2004/03/15 13.00
+___    ______ ____    _____ _____  ____ __ ______    ______ _________
0                                  10518              ¿þþþþþþþþþþþþþþþþþþþþþþþþþþþþþþþþþþþþþþþþþþþþþþþþþþþþþþþþþþþþþþþþþþþþþÜ
                                   10519              Ÿ                                                                     Ÿ
                                   10520              Ÿ                                                                     Ÿ
                                   10521              Ÿ  SAVEP -  save cp, stack, heap, directory contents,                 Ÿ
                                   10522              Ÿ           and A and B pages.                                        Ÿ
                                   10523              Ÿ                                                                     Ÿ
                                   10524              Ÿ                                                                     Ÿ
                                   10525              Ÿ                                                                     Ÿ
                                                      ¾þþþþþþþþþþþþþþþþþþþþþþþþþþþþþþþþþþþþþþþþþþþþþþþþþþþþþþþþþþþþþþþþþþþþþ»
00009E4 50E0 D000/9008_      00000 10526              SAVEP    PROC  ,
 DROP   *,R7
 USING  *,R7
 0009FE 5820 C274            00274 10568                       L     R2,CVSTACK          MOVE STACK
 000A02 5830 C278            00278 10569                       L     R3,CVSTACKE
 000A06 1B32                       10570                       SR    R3,R2
 000A08 5840 7262            00C60 10571                       L     R4,=A(DBASTACK)
 000A0C 1853                       10572                       LR    R5,R3
 000A0E 0E42                       10573                       MVCL  R4,R2
 000A10 5820 C270            00270 10574                       L     R2,CVDSTK           MOVE DISPATCHER STACK
 000A14 5830 C26C            0026C 10575                       L     R3,CVSTACKL
 000A18 5840 7266            00C64 10576                       L     R4,=A(DBADSTK)
 000A1C 1853                       10577                       LR    R5,R3
 000A1E 0E42                       10578                       MVCL  R4,R2
 000A20 5820 C280            00280 10579                       L     R2,CVHEAP           MOVE HEAP
 000A24 5830 C284            00284 10580                       L     R3,CVHEAPE
 000A28 1B32                       10581                       SR    R3,R2
 000A2A 5840 726A            00C68 10582                       L     R4,=A(DBAHEAP)
 000A2E 1853                       10583                       LR    R5,R3
 000A30 0E42                       10584                       MVCL  R4,R2
 000A32 5090 62D8            002D8 10585                       ST    PAR,DBPAR           SAVE A PAGE INFO
 000A36 58E0 7252/0DEE       00C50 10586                       VCALL PLOCKA              Lock PAR page
 000A3C 1B99                       10590                       CLEAR PAR
 000A3E 50A0 62DC            002DC 10594                       ST    PBR,DBPBR           SAVE B PAGE INFO
 000A42 58E0 7256/0DEE       00C54 10595                       VCALL PLOCKB              Lock PBR page
 000A48 1BAA                       10599                       CLEAR PBR
                                   10603
 000A4A 18D8/9808 D004_            10604                       PEND  ,
 DROP   *,R7
 USING  *,R7
1WBUG     (WBUG2025) (13:00) (15MAR04) SPIE ROUTINE: trap user                                                              Page   34
0Current Usings:  (DBDSECT,R6) (*,R7) (CP,R11) (CV,R12)
0Loc    Object Code    Addr1 Addr2  Stmt Lv Lineno    Source Statement           (Hibal 5, Asmedit 3.3)  HLASM R4.0  2004/03/15 13.00
+___    ______ ____    _____ _____  ____ __ ______    ______ _________
0                                  10632              ¿þþþþþþþþþþþþþþþþþþþþþþþþþþþþþþþþþþþþþþþþþþþþþþþþþþþþþþþþþþþþþþþþþþþþþÜ
                                   10633              Ÿ                                                                     Ÿ
                                   10634              Ÿ                                                                     Ÿ
                                   10635              Ÿ  RESTOREP -  restore saved cp, stack, heap, directory,              Ÿ
                                   10636              Ÿ              and A and B pages.                                     Ÿ
                                   10637              Ÿ                                                                     Ÿ
                                   10638              Ÿ                                                                     Ÿ
                                   10639              Ÿ                                                                     Ÿ
                                                      ¾þþþþþþþþþþþþþþþþþþþþþþþþþþþþþþþþþþþþþþþþþþþþþþþþþþþþþþþþþþþþþþþþþþþþþ»
0000A58 50E0 D000/9008_      00000 10640              RESTOREP PROC  ,
 DROP   *,R7
 USING  *,R7
 000A72 5820 C274            00274 10682                       L     R2,CVSTACK         MOVE STACK
 000A76 5830 C278            00278 10683                       L     R3,CVSTACKE
 000A7A 1B32                       10684                       SR    R3,R2
 000A7C 5B30 719E            00C10 10685                       S     R3,=A(DBSTKLEN)      DEBUG STACK IS LAST BIT OF STACK
 000A80 5840 71EE            00C60 10686                       L     R4,=A(DBASTACK)
 000A84 1853                       10687                       LR    R5,R3
 000A86 0E24                       10688                       MVCL  R2,R4
 000A88 5820 C270            00270 10689                       L     R2,CVDSTK          MOVE DISPATCHER STACK
 000A8C 5830 C26C            0026C 10690                       L     R3,CVSTACKL
 000A90 5840 71F2            00C64 10691                       L     R4,=A(DBADSTK)
 000A94 1853                       10692                       LR    R5,R3
 000A96 0E24                       10693                       MVCL  R2,R4
 000A98 5820 C280            00280 10694                       L     R2,CVHEAP          MOVE HEAP
 000A9C 5830 C284            00284 10695                       L     R3,CVHEAPE
 000AA0 1B32                       10696                       SR    R3,R2
 000AA2 5840 71F6            00C68 10697                       L     R4,=A(DBAHEAP)
 000AA6 1853                       10698                       LR    R5,R3
 000AA8 0E24                       10699                       MVCL  R2,R4
 000AAA D703 62D8 62D8 002D8 002D8 10700                       CLEAR DBPAR              CLEAR A,B PAGE POINTERS
 000AB0 D703 62DC 62DC 002DC 002DC 10707                       CLEAR DBPBR
                                   10714                       COMMENT                  PAR AND PBR ARE SET UP AT SPIE EXIT
                                   10715
 000AB6 18D8/9808 D004_            10716                       PEND  ,
 DROP   *,R7
 USING  *,R7
1WBUG     (WBUG2025) (13:00) (15MAR04) SPIE ROUTINE: trap user                                                              Page   35
0Current Usings:  (DBDSECT,R6) (*,R7) (CP,R11) (CV,R12)
0Loc    Object Code    Addr1 Addr2  Stmt Lv Lineno    Source Statement           (Hibal 5, Asmedit 3.3)  HLASM R4.0  2004/03/15 13.00
+___    ______ ____    _____ _____  ____ __ ______    ______ _________
0                                  10744              ¿þþþþþþþþþþþþþþþþþþþþþþþþþþþþþþþþþþþþþþþþþþþþþþþþþþþþþþþþþþþþþþþþþþþþþÜ
                                   10745              Ÿ                                                                     Ÿ
                                   10746              Ÿ                                                                     Ÿ
                                   10747              Ÿ  DBRESET - set up pie spie returns from debug data area             Ÿ
                                   10748              Ÿ                                                                     Ÿ
                                   10749              Ÿ  note: debug data area may be modified by debugger routines.        Ÿ
                                   10750              Ÿ                                                                     Ÿ
                                   10751              Ÿ                                                                     Ÿ
                                                      ¾þþþþþþþþþþþþþþþþþþþþþþþþþþþþþþþþþþþþþþþþþþþþþþþþþþþþþþþþþþþþþþþþþþþþþ»
0000AC4 50E0 D000/9008_      00000 10752              DBRESET  PROC  ,
 DROP   *,R7
 USING  *,R7
 000ADE 5810 709E            00B7C 10794                       L     R1,SPIEEPIE        R1 - PIE ADDRESS
 USING  EPIE,R1                    10795                       WITH  (EPIE,R1),BEGIN
 000AE2 D403 104C 7142 0004C 00C20 10809  1                      NC    EPIEIA(4),=X'80000000'
 000AE8 D603 104C 6020 0004C 00020 10810  1                      OC    EPIEIA(4),DBIA         SET PSW INSTR. ADDR
 000AEE 94CF 104A      0004A       10811  1                      NI    EPIECC,X'CF'           SET PSW CC
 000AF2 4330 104A            0004A 10812  1                      IC    R3,EPIECC
 000AF6 5820 6024            00024 10813  1                      L     R2,DBCC
 000AFA 8920 0004            00004 10814  1                      SLL   R2,4
 000AFE 1632                       10815  1                      OR    R3,R2
 000B00 4230 104A            0004A 10816  1                      STC   R3,EPIECC
 000B04 D23F 1008 6044 00008 00044 10817  1                      MVC   EPIEREGS(64),DBREGS  SET REGISTERS, R3-R13
 000B0A D73F 6044 6044 00044 00044 10818  1                      XC    DBREGS(64),DBREGS    CLEAR DEBUG REGISTERS
 DROP   EPIE,R1                    10819                       END   , WITH (PIE,R1)
 000B10 5810 62E0            002E0 10827                       L     R1,DBSPIEAD
 000B14 5010 C710            00710 10828                       ST    R1,CVSPIEAD        RESET SPIE EXIT ADDRESS
                                   10829
 000B18 9180 6009/47E0_00009       10830                       IF    DBCLEAR,BEGIN      IF CLEAR DEBUG, CLEAR DEBUG AREA
 000B20 5820 718E            00C6C 10845  1                      L     R2,=A(DBAREA+8)
 000B24 5830 7192            00C70 10846  1                      L     R3,=A(DBLENGTH-8)
 000B28 1B55                       10847  1                      CLEAR R5
 000B2A 0E24                       10851  1                      MVCL  R2,R4
 000B2C                            10852                       END
                                   10856              *
                                   10857              *
 000B2C 18D8/9808 D004_            10858                       PEND  ,
 DROP   *,R7
 USING  *,R7
1WBUG     (WBUG2025) (13:00) (15MAR04) SPIE ROUTINE: process interrupts and breakpoints                                     Page   36
0Current Usings:  (DBDSECT,R6) (*,R7) (CP,R11) (CV,R12)
0Loc    Object Code    Addr1 Addr2  Stmt Lv Lineno    Source Statement           (Hibal 5, Asmedit 3.3)  HLASM R4.0  2004/03/15 13.00
+___    ______ ____    _____ _____  ____ __ ______    ______ _________
0                                  10886              **
                                   10887              **  EPIE format (for ESPIE routines).
                                   10888              **
 000000                00000 00054 10889              EPIE     RECORD BEGIN
 000000                            10897  1           EPIEID     DS    F                   'EPIE' ID
 000004                            10898  1           EPIEUSER   DS    F                   USER SUPPLIED PARM LIST
 000008                            10899  1           EPIEREGS   DS    16F                 USER REGESTERS AT INTERRUPTION
 000048                            10900  1           EPIEPSW    DS    2F                  USER PSW AT INTERRUPTION
                                   10901  1           EPIECC     EQU   EPIEPSW+2,1         PSW CC
                                   10902  1           EPIEIA     EQU   EPIEPSW+4,4         PSW INSTRUCTION ADDRESS
 000050                            10903  1           EPIEILC    DS    H                   INSTRUCTION LENGTH CODE
 000052                            10904  1           EPIEIC     DS    H                   INTERRUPTION CODE
                                   10905  1           * FOLLOWED BY RESERVED FIELDS.
 000054                00054 00054 10906                       END
                                   10915              **
                                   10916              **  IN LINE SAVE AREA FOR SPIE, PIE DATA
                                   10917              **
 000B3C                            10918              SPIEREGS DS    16F                 REGISTERS AT SPIE ENTRY
 000B7C                            10919              SPIEEPIE DS    A                   EPIE ADDRESS AT SPIE ENTRY
 000B80                            10920              SPIESAVE DS    XL(L'EPIE)          Saved EPIE for Failsoft Kaput
                                   10921              *
                                   10922              *
1WBUG     (WBUG2025) (13:00) (15MAR04) SPIE ROUTINE: process interrupts and breakpoints                                     Page   37
0Current Usings:  (DBDSECT,R6) (*,R7) (CP,R11) (CV,R12)
0Loc    Object Code    Addr1 Addr2  Stmt Lv Lineno    Source Statement           (Hibal 5, Asmedit 3.3)  HLASM R4.0  2004/03/15 13.00
+___    ______ ____    _____ _____  ____ __ ______    ______ _________
0                                  10924                       QLTORG
1WBUG     (WBUG2025) (13:00) (15MAR04) SPIE ROUTINE: simulate trapped instruction                                           Page   38
0Current Usings:  (DBDSECT,R6) (*,R7) (CP,R11) (CV,R12)
0Loc    Object Code    Addr1 Addr2  Stmt Lv Lineno    Source Statement           (Hibal 5, Asmedit 3.3)  HLASM R4.0  2004/03/15 13.00
+___    ______ ____    _____ _____  ____ __ ______    ______ _________
0                                  10978              ¿þþþþþþþþþþþþþþþþþþþþþþþþþþþþþþþþþþþþþþþþþþþþþþþþþþþþþþþþþþþþþþþþþþþþþÜ
                                   10979              Ÿ                                                                     Ÿ
                                   10980              Ÿ                                                                     Ÿ
                                   10981              Ÿ  SIMULATE - simulate trapped instruction                            Ÿ
                                   10982              Ÿ                                                                     Ÿ
                                   10983              Ÿ                                                                     Ÿ
                                   10984              Ÿ  Trapped instructions are executed in the debug area.               Ÿ
                                   10985              Ÿ                                                                     Ÿ
                                   10986              Ÿ                                                                     Ÿ
                                                      ¾þþþþþþþþþþþþþþþþþþþþþþþþþþþþþþþþþþþþþþþþþþþþþþþþþþþþþþþþþþþþþþþþþþþþþ»
0000C78 50E0 D000/9008_      00000 10987              SIMULATE PROC  ,
 DROP   *,R7
 USING  *,R7
 000C92 4150 6084            00084 11029                       LA    R5,DBTRAPNF        R5 - CURRENT TRAP INSTRUCTION
 USING  DBTRAP,R5                  11030                       WITH  (DBTRAP,R5),BEGIN
                                   11044  1                      ¿þþþþþþþþþþþþþþþþþþþþþþþþþþþþþþþþþþþÜ
                                   11045  1                      Ÿ  CHECK IF SHOULD SKIP SIMULATION  Ÿ
                                   11046  1                      ¾þþþþþþþþþþþþþþþþþþþþþþþþþþþþþþþþþþþ»
 000C96 9102 5006/4710_00006       11047  1                      IF    DBTPIRPT,SIMEXIT   IF INTERUPT, DO NOT SIMULATE
 000C9E 5810 6020            00020 11065  1                      L     R1,DBIA
 000CA2 5820 6040            00040 11066  1                      L     R2,DBPSWIA
 000CA6 4122 0000            00000 11067  1                      LA    R2,0(R2)
 000CAA 1912/4770 7104             11068  1                      IF    (R1,NE,R2),SIMEXIT IF USER PATCHED PIA, DO NOT SIM.
 000CB0 5810 5000            00000 11086  1                      L     R1,DBTPADDR        IF NO TRAP AT ADDR, DO NOT SIM.
 000CB4 4150 6094            00094 11087  1                      LA    R5,DBTRAPS
 000CB8 4140 0024            00024 11088  1                      LA    R4,USERTC+SPECTC
 000CBC 1244/4780 7042_            11089  1                      WHILE ((R4,NZ),AND,(R1,NE,DBTPADDR)),BEGIN
 000CCA 4150 5010            00010 11121  2                        LA    R5,DBTPNEXT
 000CCE 0640                       11122  2                        BCTR  R4,0
 000CD0 47F0 702A            00CBC 11123  1                      END
 000CD4 1244/4780 7104             11128  1                      IF    (R4,Z),SIMEXIT     NO TRAP AT ADDR, WE DO NOT SIM.
 000CDA 4150 6084            00084 11145  1                      LA    R5,DBTRAPNF
                                   11146  1                      ¿þþþþþþþþþþþþþþþþþþþþþþþþþþÜ
                                   11147  1                      Ÿ  GET INSTRUCTION LENGTH  Ÿ
                                   11148  1                      ¾þþþþþþþþþþþþþþþþþþþþþþþþþþ»
 000CDE 4110 0002            00002 11149  1                      LA    R1,2               GET AND SAVE INSTRUCTION LENGTH
 000CE2 9540 5004      00004       11150  1                      CLI   DBTPOPCD,X'40'
 000CE6 4750 705C/4110_      00CEE 11151  1                      IF    GE,' LA R1,4 '
 000CEE 95D0 5004      00004       11168  1                      CLI   DBTPOPCD,X'D0'
 000CF2 4750 7068/4110_      00CFA 11169  1                      IF    GE,' LA R1,6 '
 000CFA 5010 6030            00030 11186  1                      ST    R1,DBILEN          R1 - LENGTH OF SIM INSTR.
                                   11187  1                      ¿þþþþþþþþþþþþþþþþþþþþþþþþþþþþþþþþþþþþþþþþþþþþþþþþþþþþþþþþþþþþÜ
                                   11188  1                      Ÿ  MOVE INTRUCTION INTO DEBUG AREA, SET UP INSTRUCTION TRAP  Ÿ
                                   11189  1                      ¾þþþþþþþþþþþþþþþþþþþþþþþþþþþþþþþþþþþþþþþþþþþþþþþþþþþþþþþþþþþþ»
 000CFE 5820 6020            00020 11190  1                      L     R2,DBIA            R2 - INSTRUCTION TO SIMULATE
 000D02 0610/4410 7390_            11191  1                      DEX   R1,' MVC DBINSTR(0),0(R2)'   MOVE INSTR TO DEBUG AREA
 000D08 D201 6034 5004 00034 00004 11210  1                      MVC   DBINSTR(2),DBTPOPCD
 000D0E 4150 6194            00194 11211  1                      LA    R5,DBTRAPI         R5 - INSTRUCTION TRAP
 000D12 4110 6034            00034 11212  1                      LA    R1,DBINSTR              SET UP INTRUCTION TRAP
 000D16 5010 5000            00000 11213  1                      ST    R1,DBTPADDR
 000D1A 9640 5006      00006       11214  1                      SET   DBTPINST
 000D1E D201 5004 6034 00004 00034 11220  1                      MVC   DBTPOPCD(2),DBINSTR
 000D24 D203 5008 6020 00008 00020 11221  1                      MVC   DBTPINFO(4),DBIA
1WBUG     (WBUG2025) (13:00) (15MAR04) SPIE ROUTINE: simulate trapped instruction                                           Page   39
0Current Usings:  (DBTRAP,R5) (DBDSECT,R6) (*,R7) (CP,R11) (CV,R12)
0Loc    Object Code    Addr1 Addr2  Stmt Lv Lineno    Source Statement           (Hibal 5, Asmedit 3.3)  HLASM R4.0  2004/03/15 13.00
+___    ______ ____    _____ _____  ____ __ ______    ______ _________
0                                  11222  1                      ¿þþþþþþþþþþþþþþþþþþþþþþþþþþþþþþþþþþþþþþþþþþþþþþþþþþþþþÜ
                                   11223  1                      Ÿ  SET UP CONTINUE TRAP, AFTER SIMULATED INSTRUCTION  Ÿ
                                   11224  1                      ¾þþþþþþþþþþþþþþþþþþþþþþþþþþþþþþþþþþþþþþþþþþþþþþþþþþþþþ»
 000D2A 4110 6034            00034 11225  1                      LA    R1,DBINSTR         MOVE TRAP IN BEHIND SIM. INSTR.
 000D2E 5A10 6030            00030 11226  1                      A     R1,DBILEN
 000D32 D201 1000 738E 00000 01020 11227  1                      MVC   0(2,R1),=AL2(TRAPCODE)
 000D38 4150 61A4            001A4 11228  1                      LA    R5,DBTRAPC         R5 - CONTINUE TRAP
 000D3C 5010 5000            00000 11229  1                      ST    R1,DBTPADDR             SET UP CONTINUE TRAP
 000D40 9620 5006      00006       11230  1                      SET   DBTPCONT
 000D44 D201 5004 738E 00004 01020 11236  1                      MVC   DBTPOPCD(2),=AL2(TRAPCODE)
 000D4A D203 5008 6020 00008 00020 11237  1                      MVC   DBTPINFO(4),DBIA
 000D50 D203 500C 6030 0000C 00030 11238  1                      MVC   DBTPINFO+4(4),DBILEN
                                   11239  1                  ¿þþþþþþþþþþþþþþþþþþþþþþþþþþþþþþþþþþþþþþþþþþþþþþþþþþþþþþþþþþþþþþþþþþþÜ
                                   11240  1                  Ÿ  SIMULATED INSTR IS EXECUTED IN DEBUG DATA AREA, POINT PSW AT IT  Ÿ
                                   11241  1                  ¾þþþþþþþþþþþþþþþþþþþþþþþþþþþþþþþþþþþþþþþþþþþþþþþþþþþþþþþþþþþþþþþþþþþ»
 000D56 4110 6034            00034 11242  1                      LA    R1,DBINSTR         INSTR ADDR IN DATA AREA
 000D5A 5010 6020            00020 11243  1                      ST    R1,DBIA            SAVE INSTR ADDR
                                   11244  1                      ¿þþþþþþþþþþþþþþþþþþþþþþþþþþþþþþþþþþþþþþþþþþþþþþþÜ
                                   11245  1                      Ÿ  SPECIAL PROCESS BAL, BALR, BAS, BASR, BASSM  Ÿ
                                   11246  1                      ¾þþþþþþþþþþþþþþþþþþþþþþþþþþþþþþþþþþþþþþþþþþþþþþþ»
 000D5E 9505 6034      00034       11247  1                      CLI   DBINSTR,X'05'      BALR
 000D62 4770 70DA/58E0_      00D6C 11248  1                      IF    E,' ACALL SIMBALR'
 000D6C 950D 6034      00034       11268  1                      CLI   DBINSTR,X'0D'      BASR
 000D70 4770 70E8/58E0_      00D7A 11269  1                      IF    E,' ACALL SIMBASR'
 000D7A 9545 6034      00034       11289  1                      CLI   DBINSTR,X'45'      BAL
 000D7E 4770 70F6/58E0_      00D88 11290  1                      IF    E,' ACALL SIMBAL'
 000D88 954D 6034      00034       11310  1                      CLI   DBINSTR,X'4D'      BAS
 000D8C 4770 7104/58E0_      00D96 11311  1                      IF    E,' ACALL SIMBAS'
 DROP   DBTRAP,R5                  11331                       END   , WITH (DBTRAP,R5)
                                   11339                       ¿þþþþþþþþÜ
                                   11340                       Ÿ  EXIT  Ÿ
                                   11341                       ¾þþþþþþþþ»
 000D96                            11342              SIMEXIT  LABEL ,
 000D96 18D8/9808 D004_            11344                       PEND  ,
 DROP   *,R7
 USING  *,R7
1WBUG     (WBUG2025) (13:00) (15MAR04) SPIE ROUTINE: simulate trapped instruction                                           Page   40
0Current Usings:  (DBDSECT,R6) (*,R7) (CP,R11) (CV,R12)
0Loc    Object Code    Addr1 Addr2  Stmt Lv Lineno    Source Statement           (Hibal 5, Asmedit 3.3)  HLASM R4.0  2004/03/15 13.00
+___    ______ ____    _____ _____  ____ __ ______    ______ _________
0                                  11372              ¿þþþþþþþþþþþþþþþþþþþþþþþþþþþþþþþþþþþþþþþþþþþþþþþþþþþþþþþþþþþþþþþþþþþþþÜ
                                   11373              Ÿ                                                                     Ÿ
                                   11374              Ÿ                                                                     Ÿ
                                   11375              Ÿ  SIMBALR - simulate branch and link register instruction            Ÿ
                                   11376              Ÿ                                                                     Ÿ
                                   11377              Ÿ                                                                     Ÿ
                                   11378              Ÿ                                                                     Ÿ
                                                      ¾þþþþþþþþþþþþþþþþþþþþþþþþþþþþþþþþþþþþþþþþþþþþþþþþþþþþþþþþþþþþþþþþþþþþþ»
0000DA4 50E0 D000/9008_      00000 11379              SIMBALR  PROC  ,
 DROP   *,R7
 USING  *,R7
 000DBE 4150 6084            00084 11421                       LA    R5,DBTRAPNF        POINT TO CURRENT TRAP ADDRESS
 USING  DBTRAP,R5                  11422                       WITH  (DBTRAP,R5),BEGIN
                                   11436  1                      ¿þþþþþþþþþþþþþþþþþþþþþþþþþþþþþþþþÜ
                                   11437  1                      Ÿ  PUT BRANCH ADDRESS INTO PSW,  Ÿ
                                   11438  1                      ¾þþþþþþþþþþþþþþþþþþþþþþþþþþþþþþþþ»
 000DC2 4320 6035            00035 11439  1                      IC    R2,DBINSTR+1       R2 - REGISTER CONTAINING BR ADDR
 000DC6 8920 001C            0001C 11440  1                      SLL   R2,28
 000DCA 8820 001C            0001C 11441  1                      SRL   R2,28
 000DCE 1222/4770 7022             11442  1                      IF    (R2,Z),BEGIN       IF BALR RX,0    NO BRANCH
 000DD4 5810 5000            00000 11456  2                        L     R1,DBTPADDR           SPIE RETURNS TO NEXT INSTR
 000DD8 5A10 6030            00030 11457  2                        A     R1,DBILEN
 000DDC 5010 6020            00020 11458  2                        ST    R1,DBIA
 000DE0                            11459  1                      END
 000DE0 1222/4780 7038             11463  1                      IF    (R2,NZ),BEGIN      IF BALR RX1,RX2
 000DE6 8920 0002            00002 11477  2                        SLL   R2,2                  SPIE RETURNS TO ADDR IN RX2
 000DEA 5812 6044            00044 11478  2                        L     R1,DBREGS(R2)
 000DEE 4111 0000            00000 11479  2                        LA    R1,0(R1)
 000DF2 5010 6020            00020 11480  2                        ST    R1,DBIA               BRANCH ADDRESS
 000DF6                            11481  1                      END
                                   11485  1                       ¿þþþþþþþþþþþþþþþþþþþþþþþþþþþþÜ
                                   11486  1                       Ÿ  FIX BALR RETURN REGISTER  Ÿ
                                   11487  1                       ¾þþþþþþþþþþþþþþþþþþþþþþþþþþþþ»
 000DF6 5810 5000            00000 11488  1                      L     R1,DBTPADDR        R1 - ADDR OF NEXT INSTRUCTION
 000DFA 5A10 6030            00030 11489  1                      A     R1,DBILEN
 000DFE 5820 6030            00030 11490  1                      L     R2,DBILEN          BALR SETS HIGH ORDER BYTE JUNK
 000E02 8920 001E            0001E 11491  1                      SLL   R2,30                LENGTH, CC, MASK BITS
 000E06 1612                       11492  1                      OR    R1,R2
 000E08 5820 6024            00024 11493  1                      L     R2,DBCC
 000E0C 8920 001C            0001C 11494  1                      SLL   R2,28
 000E10 1612                       11495  1                      OR    R1,R2
 000E12 4320 6040            00040 11496  1                      IC    R2,DBPSWIA
 000E16 8920 001C            0001C 11497  1                      SLL   R2,28
 000E1A 8820 0004            00004 11498  1                      SRL   R2,4
 000E1E 1612                       11499  1                      OR    R1,R2
 000E20 1B22                       11500  1                      SR    R2,R2
 000E22 4320 6035            00035 11501  1                      IC    R2,DBINSTR+1       R2 - # OF RETURN REGISTER
 000E26 8820 0004            00004 11502  1                      SRL   R2,4
 000E2A 8920 0002            00002 11503  1                      SLL   R2,2
 000E2E 5012 6044            00044 11504  1                      ST    R1,DBREGS(R2)      SAVE RETURN REGISTER
                                   11505  1
 DROP   DBTRAP,R5                  11506                       END   , WITH (DBTRAP,R5)
 000E32 18D8/9808 D004_            11514                       PEND  ,
1WBUG     (WBUG2025) (13:00) (15MAR04) SPIE ROUTINE: simulate trapped instruction                                           Page   41
0Current Usings:  (DBDSECT,R6) (*,R7) (CP,R11) (CV,R12)
0Loc    Object Code    Addr1 Addr2  Stmt Lv Lineno    Source Statement           (Hibal 5, Asmedit 3.3)  HLASM R4.0  2004/03/15 13.00
+___    ______ ____    _____ _____  ____ __ ______    ______ _________
0DROP   *,R7
 USING  *,R7
1WBUG     (WBUG2025) (13:00) (15MAR04) SPIE ROUTINE: simulate trapped instruction                                           Page   42
0Current Usings:  (DBDSECT,R6) (*,R7) (CP,R11) (CV,R12)
0Loc    Object Code    Addr1 Addr2  Stmt Lv Lineno    Source Statement           (Hibal 5, Asmedit 3.3)  HLASM R4.0  2004/03/15 13.00
+___    ______ ____    _____ _____  ____ __ ______    ______ _________
0                                  11542              ¿þþþþþþþþþþþþþþþþþþþþþþþþþþþþþþþþþþþþþþþþþþþþþþþþþþþþþþþþþþþþþþþþþþþþþÜ
                                   11543              Ÿ                                                                     Ÿ
                                   11544              Ÿ                                                                     Ÿ
                                   11545              Ÿ  SIMBAL - simulate branch and link instruction                      Ÿ
                                   11546              Ÿ                                                                     Ÿ
                                   11547              Ÿ                                                                     Ÿ
                                   11548              Ÿ                                                                     Ÿ
                                                      ¾þþþþþþþþþþþþþþþþþþþþþþþþþþþþþþþþþþþþþþþþþþþþþþþþþþþþþþþþþþþþþþþþþþþþþ»
0000E40 50E0 D000/9008_      00000 11549              SIMBAL   PROC  ,
 DROP   *,R7
 USING  *,R7
                                   11591                       ¿þþþþþþþþþþþþþþþþþþþþþþþþþþþþþþþþÜ
                                   11592                       Ÿ  PUT BRANCH ADDRESS INTO PSW,  Ÿ
                                   11593                       ¾þþþþþþþþþþþþþþþþþþþþþþþþþþþþþþþþ»
 000E5A 4320 6035            00035 11594                       IC    R2,DBINSTR+1       R2 - BASE REGISTER
 000E5E 8920 001C            0001C 11595                       SLL   R2,28
 000E62 8820 001C            0001C 11596                       SRL   R2,28
 000E66 1222/4780 701E             11597                       IF    (R2,NZ),BEGIN
 000E6C 8920 0002            00002 11611  1                      SLL   R2,2
 000E70 5822 6044            00044 11612  1                      L     R2,DBREGS(R2)
 000E74 4122 0000            00000 11613  1                      LA    R2,0(R2)
 000E78                            11614                       END
 000E78 1B33                       11618                       SR    R3,R3              R3 - ANOTHER BASE REGISTER
 000E7A 4330 6036            00036 11619                       IC    R3,DBINSTR+2
 000E7E 8830 0004            00004 11620                       SRL   R3,4
 000E82 1233/4780 703A             11621                       IF    (R3,NZ),BEGIN
 000E88 8930 0002            00002 11635  1                      SLL   R3,2
 000E8C 5833 6044            00044 11636  1                      L     R3,DBREGS(R3)
 000E90 4133 0000            00000 11637  1                      LA    R3,0(R3)
 000E94                            11638                       END
 000E94 5840 6034            00034 11642                       L     R4,DBINSTR         R4 - DISPLACEMENT
 000E98 8940 0014            00014 11643                       SLL   R4,20
 000E9C 8840 0014            00014 11644                       SRL   R4,20
 000EA0 1B11                       11645                       SR    R1,R1              R1 - GRAND TOTAL = BRANCH ADDRESS
 000EA2 1A12                       11646                       AR    R1,R2
 000EA4 1A13                       11647                       AR    R1,R3
 000EA6 1A14                       11648                       AR    R1,R4
 000EA8 5010 6020            00020 11649                       ST    R1,DBIA            SAVE BRANCH ADDRESS
                                   11650                        ¿þþþþþþþþþþþþþþþþþþþþþþþþþþþÜ
                                   11651                        Ÿ  FIX BAL RETURN REGISTER  Ÿ
                                   11652                        ¾þþþþþþþþþþþþþþþþþþþþþþþþþþþ»
 000EAC 4150 6084            00084 11653                       LA    R5,DBTRAPNF        GET CURRENT TRAP ADDRESS
 USING  DBTRAP,R5                  11654                       WITH  (DBTRAP,R5),BEGIN
 000EB0 5810 5000            00000 11668  1                      L     R1,DBTPADDR        R1 - ADDR OF NEXT INSTRUCTION
 000EB4 5A10 6030            00030 11669  1                      A     R1,DBILEN
 000EB8 5820 6030            00030 11670  1                      L     R2,DBILEN          BAL SETS HIGH ORDER BYTE JUNK
 000EBC 8920 001E            0001E 11671  1                      SLL   R2,30                LENGTH, CC, MASK BITS
 000EC0 1612                       11672  1                      OR    R1,R2
 000EC2 5820 6024            00024 11673  1                      L     R2,DBCC
 000EC6 8920 001C            0001C 11674  1                      SLL   R2,28
 000ECA 1612                       11675  1                      OR    R1,R2
 000ECC 4320 6040            00040 11676  1                      IC    R2,DBPSWIA
 000ED0 8920 001C            0001C 11677  1                      SLL   R2,28
1WBUG     (WBUG2025) (13:00) (15MAR04) SPIE ROUTINE: simulate trapped instruction                                           Page   43
0Current Usings:  (DBTRAP,R5) (DBDSECT,R6) (*,R7) (CP,R11) (CV,R12)
0Loc    Object Code    Addr1 Addr2  Stmt Lv Lineno    Source Statement           (Hibal 5, Asmedit 3.3)  HLASM R4.0  2004/03/15 13.00
+___    ______ ____    _____ _____  ____ __ ______    ______ _________
0000ED4 8820 0004            00004 11678  1                      SRL   R2,4
 000ED8 1612                       11679  1                      OR    R1,R2
 000EDA 1B22                       11680  1                      SR    R2,R2
 000EDC 4320 6035            00035 11681  1                      IC    R2,DBINSTR+1       R2 - # OF RETURN REGISTER
 000EE0 8820 0004            00004 11682  1                      SRL   R2,4
 000EE4 8920 0002            00002 11683  1                      SLL   R2,2
 000EE8 5012 6044            00044 11684  1                      ST    R1,DBREGS(R2)      SAVE RETURN REGISTER
 DROP   DBTRAP,R5                  11685                       END   , WITH (DBTRAP,R5)
                                   11693
 000EEC 18D8/9808 D004_            11694                       PEND  ,
 DROP   *,R7
 USING  *,R7
1WBUG     (WBUG2025) (13:00) (15MAR04) SPIE ROUTINE: simulate trapped instruction                                           Page   44
0Current Usings:  (DBDSECT,R6) (*,R7) (CP,R11) (CV,R12)
0Loc    Object Code    Addr1 Addr2  Stmt Lv Lineno    Source Statement           (Hibal 5, Asmedit 3.3)  HLASM R4.0  2004/03/15 13.00
+___    ______ ____    _____ _____  ____ __ ______    ______ _________
0                                  11722              ¿þþþþþþþþþþþþþþþþþþþþþþþþþþþþþþþþþþþþþþþþþþþþþþþþþþþþþþþþþþþþþþþþþþþþþÜ
                                   11723              Ÿ                                                                     Ÿ
                                   11724              Ÿ                                                                     Ÿ
                                   11725              Ÿ  SIMBASR - simulate branch and save register instruction            Ÿ
                                   11726              Ÿ                                                                     Ÿ
                                   11727              Ÿ                                                                     Ÿ
                                   11728              Ÿ                                                                     Ÿ
                                                      ¾þþþþþþþþþþþþþþþþþþþþþþþþþþþþþþþþþþþþþþþþþþþþþþþþþþþþþþþþþþþþþþþþþþþþþ»
0000EFA 50E0 D000/9008_      00000 11729              SIMBASR  PROC  ,
 DROP   *,R7
 USING  *,R7
 000F14 4150 6084            00084 11771                       LA    R5,DBTRAPNF        POINT TO  CURRENT TRAP ADDRESS
 USING  DBTRAP,R5                  11772                       WITH  (DBTRAP,R5),BEGIN
                                   11786  1                      ¿þþþþþþþþþþþþþþþþþþþþþþþþþþþþþþþþÜ
                                   11787  1                      Ÿ  PUT BRANCH ADDRESS INTO PSW,  Ÿ
                                   11788  1                      ¾þþþþþþþþþþþþþþþþþþþþþþþþþþþþþþþþ»
 000F18 4320 6035            00035 11789  1                      IC    R2,DBINSTR+1       R2 - REGISTER CONTAINING BR ADDR
 000F1C 8920 001C            0001C 11790  1                      SLL   R2,28
 000F20 8820 001C            0001C 11791  1                      SRL   R2,28
 000F24 1222/4770 7022             11792  1                      IF    (R2,Z),BEGIN       IF BASR RX,0    NO BRANCH
 000F2A 5810 5000            00000 11806  2                        L     R1,DBTPADDR           SPIE RETURNS TO NEXT INSTR
 000F2E 5A10 6030            00030 11807  2                        A     R1,DBILEN
 000F32 5010 6020            00020 11808  2                        ST    R1,DBIA
 000F36                            11809  1                      END
 000F36 1222/4780 7038             11813  1                      IF    (R2,NZ),BEGIN      IF BASR RX1,RX2
 000F3C 8920 0002            00002 11827  2                        SLL   R2,2                  SPIE RETURNS TO ADDR IN RX2
 000F40 5812 6044            00044 11828  2                        L     R1,DBREGS(R2)
 000F44 4111 0000            00000 11829  2                        LA    R1,0(R1)
 000F48 5010 6020            00020 11830  2                        ST    R1,DBIA               BRANCH ADDRESS
 000F4C                            11831  1                      END
                                   11835  1                       ¿þþþþþþþþþþþþþþþþþþþþþþþþþþþþÜ
                                   11836  1                       Ÿ  FIX BASR RETURN REGISTER  Ÿ
                                   11837  1                       ¾þþþþþþþþþþþþþþþþþþþþþþþþþþþþ»
 000F4C 5810 5000            00000 11838  1                      L     R1,DBTPADDR        R1 - ADDR OF NEXT INSTRUCTION
 000F50 5A10 6030            00030 11839  1                      A     R1,DBILEN
 000F54 1B22                       11840  1                      SR    R2,R2
 000F56 4320 6035            00035 11841  1                      IC    R2,DBINSTR+1       R2 - # OF RETURN REGISTER
 000F5A 8820 0004            00004 11842  1                      SRL   R2,4
 000F5E 8920 0002            00002 11843  1                      SLL   R2,2
 000F62 5012 6044            00044 11844  1                      ST    R1,DBREGS(R2)      SAVE RETURN REGISTER
                                   11845  1
 DROP   DBTRAP,R5                  11846                       END   , WITH (DBTRAP,R5)
 000F66 18D8/9808 D004_            11854                       PEND  ,
 DROP   *,R7
 USING  *,R7
1WBUG     (WBUG2025) (13:00) (15MAR04) SPIE ROUTINE: simulate trapped instruction                                           Page   45
0Current Usings:  (DBDSECT,R6) (*,R7) (CP,R11) (CV,R12)
0Loc    Object Code    Addr1 Addr2  Stmt Lv Lineno    Source Statement           (Hibal 5, Asmedit 3.3)  HLASM R4.0  2004/03/15 13.00
+___    ______ ____    _____ _____  ____ __ ______    ______ _________
0                                  11882              ¿þþþþþþþþþþþþþþþþþþþþþþþþþþþþþþþþþþþþþþþþþþþþþþþþþþþþþþþþþþþþþþþþþþþþþÜ
                                   11883              Ÿ                                                                     Ÿ
                                   11884              Ÿ                                                                     Ÿ
                                   11885              Ÿ  SIMBAS - simulate branch and save instruction                      Ÿ
                                   11886              Ÿ                                                                     Ÿ
                                   11887              Ÿ                                                                     Ÿ
                                   11888              Ÿ                                                                     Ÿ
                                                      ¾þþþþþþþþþþþþþþþþþþþþþþþþþþþþþþþþþþþþþþþþþþþþþþþþþþþþþþþþþþþþþþþþþþþþþ»
0000F74 50E0 D000/9008_      00000 11889              SIMBAS   PROC  ,
 DROP   *,R7
 USING  *,R7
                                   11931                       ¿þþþþþþþþþþþþþþþþþþþþþþþþþþþþþþþþÜ
                                   11932                       Ÿ  PUT BRANCH ADDRESS INTO PSW,  Ÿ
                                   11933                       ¾þþþþþþþþþþþþþþþþþþþþþþþþþþþþþþþþ»
 000F8E 4320 6035            00035 11934                       IC    R2,DBINSTR+1       R2 - BASE REGISTER
 000F92 8920 001C            0001C 11935                       SLL   R2,28
 000F96 8820 001C            0001C 11936                       SRL   R2,28
 000F9A 1222/4780 701E             11937                       IF    (R2,NZ),BEGIN
 000FA0 8920 0002            00002 11951  1                      SLL   R2,2
 000FA4 5822 6044            00044 11952  1                      L     R2,DBREGS(R2)
 000FA8 4122 0000            00000 11953  1                      LA    R2,0(R2)
 000FAC                            11954                       END
 000FAC 1B33                       11958                       SR    R3,R3              R3 - ANOTHER BASE REGISTER
 000FAE 4330 6036            00036 11959                       IC    R3,DBINSTR+2
 000FB2 8830 0004            00004 11960                       SRL   R3,4
 000FB6 1233/4780 703A             11961                       IF    (R3,NZ),BEGIN
 000FBC 8930 0002            00002 11975  1                      SLL   R3,2
 000FC0 5833 6044            00044 11976  1                      L     R3,DBREGS(R3)
 000FC4 4133 0000            00000 11977  1                      LA    R3,0(R3)
 000FC8                            11978                       END
 000FC8 5840 6034            00034 11982                       L     R4,DBINSTR         R4 - DISPLACEMENT
 000FCC 8940 0014            00014 11983                       SLL   R4,20
 000FD0 8840 0014            00014 11984                       SRL   R4,20
 000FD4 1B11                       11985                       SR    R1,R1              R1 - GRAND TOTAL = BRANCH ADDRESS
 000FD6 1A12                       11986                       AR    R1,R2
 000FD8 1A13                       11987                       AR    R1,R3
 000FDA 1A14                       11988                       AR    R1,R4
 000FDC 5010 6020            00020 11989                       ST    R1,DBIA            SAVE BRANCH ADDRESS
                                   11990                        ¿þþþþþþþþþþþþþþþþþþþþþþþþþþþÜ
                                   11991                        Ÿ  FIX BAS RETURN REGISTER  Ÿ
                                   11992                        ¾þþþþþþþþþþþþþþþþþþþþþþþþþþþ»
 000FE0 4150 6084            00084 11993                       LA    R5,DBTRAPNF        GET CURRENT TRAP ADDRESS
 USING  DBTRAP,R5                  11994                       WITH  (DBTRAP,R5),BEGIN
 000FE4 5810 5000            00000 12008  1                      L     R1,DBTPADDR        R1 - ADDR OF NEXT INSTRUCTION
 000FE8 5A10 6030            00030 12009  1                      A     R1,DBILEN
 000FEC 1B22                       12010  1                      SR    R2,R2
 000FEE 4320 6035            00035 12011  1                      IC    R2,DBINSTR+1       R2 - # OF RETURN REGISTER
 000FF2 8820 0004            00004 12012  1                      SRL   R2,4
 000FF6 8920 0002            00002 12013  1                      SLL   R2,2
 000FFA 5012 6044            00044 12014  1                      ST    R1,DBREGS(R2)      SAVE RETURN REGISTER
 DROP   DBTRAP,R5                  12015                       END   , WITH (DBTRAP,R5)
                                   12023
 000FFE 18D8/9808 D004_            12024                       PEND  ,
1WBUG     (WBUG2025) (13:00) (15MAR04) SPIE ROUTINE: simulate trapped instruction                                           Page   46
0Current Usings:  (DBDSECT,R6) (*,R7) (CP,R11) (CV,R12)
0Loc    Object Code    Addr1 Addr2  Stmt Lv Lineno    Source Statement           (Hibal 5, Asmedit 3.3)  HLASM R4.0  2004/03/15 13.00
+___    ______ ____    _____ _____  ____ __ ______    ______ _________
0DROP   *,R7
 USING  *,R7
1WBUG     (WBUG2025) (13:00) (15MAR04) SPIE ROUTINE: simulate trapped instruction                                           Page   47
0Current Usings:  (DBDSECT,R6) (*,R7) (CP,R11) (CV,R12)
0Loc    Object Code    Addr1 Addr2  Stmt Lv Lineno    Source Statement           (Hibal 5, Asmedit 3.3)  HLASM R4.0  2004/03/15 13.00
+___    ______ ____    _____ _____  ____ __ ______    ______ _________
0                                  12052                       QLTORG
1WBUG     (WBUG2025) (13:00) (15MAR04) SPIE ROUTINE: pause and start user                                                   Page   48
0Current Usings:  (DBDSECT,R6) (*,R7) (CP,R11) (CV,R12)
0Loc    Object Code    Addr1 Addr2  Stmt Lv Lineno    Source Statement           (Hibal 5, Asmedit 3.3)  HLASM R4.0  2004/03/15 13.00
+___    ______ ____    _____ _____  ____ __ ______    ______ _________
0                                  12070              ¿þþþþþþþþþþþþþþþþþþþþþþþþþþþþþþþþþþþþþþþþþþþþþþþþþþþþþþþþþþþþþþþþþþþþþÜ
                                   12071              Ÿ                                                                     Ÿ
                                   12072              Ÿ   STARTJCB  -  start a paused user                                  Ÿ
                                   12073              Ÿ                                                                     Ÿ
                                   12074              Ÿ       on entry:  r1 - jcb address of user paused by debug           Ÿ
                                   12075              Ÿ                                                                     Ÿ
                                                      ¾þþþþþþþþþþþþþþþþþþþþþþþþþþþþþþþþþþþþþþþþþþþþþþþþþþþþþþþþþþþþþþþþþþþþþ»
0001028 50E0 D000/9008_      00000 12076              STARTJCB PROC  ,
 DROP   *,R7
 USING  *,R7
 001042 1851                       12118                       LR    R5,R1              R5 - JCB ADDRESS
 USING  JCB,R5                     12119                       WITH  (JCB,R5)
                                   12132
 001044 94FE 5060      00060       12133                       CLEAR JCBWFERR           CLEAR DEBUG WAIT FLAG
 001048 18F5/9610 F062_            12140                       SETUP JCB                AND CAUSE JCB TO BE PUT ON RUN Q
 00105E 18D8/9808 D004_            12168                       PEND  ,
 DROP   JCB,R5
 DROP   *,R7
 USING  *,R7
-                                  12201              ¿þþþþþþþþþþþþþþþþþþþþþþþþþþþþþþþþþþþþþþþþþþþþþþþþþþþþþþþþþþþþþþþþþþþþþÜ
                                   12202              Ÿ                                                                     Ÿ
                                   12203              Ÿ   PAUSEJCB  -  pause a user                                         Ÿ
                                   12204              Ÿ                                                                     Ÿ
                                   12205              Ÿ       on entry:  r1 - jcb of user to pause                          Ÿ
                                   12206              Ÿ                                                                     Ÿ
                                                      ¾þþþþþþþþþþþþþþþþþþþþþþþþþþþþþþþþþþþþþþþþþþþþþþþþþþþþþþþþþþþþþþþþþþþþþ»
000106C 50E0 D000/9008_      00000 12207              PAUSEJCB PROC  ,
 DROP   *,R7
 USING  *,R7
 001086 1851                       12249                       LR    R5,R1
 USING  JCB,R5                     12250                       WITH  (JCB,R5)
                                   12263
 001088 9601 5060      00060       12264                       SET   JCBWFERR           SET DEBUG WAIT FLAG
 00108C 41E0 7014/900F_      0109A 12270                       PAUSE ,                  AND PAUSE
 00109A 18D8/9808 D004_            12277                       PEND  ,
 DROP   JCB,R5
 DROP   *,R7
 USING  *,R7
1WBUG     (WBUG2025) (13:00) (15MAR04) SPIE ROUTINE: pause and start user                                                   Page   49
0Current Usings:  (DBDSECT,R6) (*,R7) (CP,R11) (CV,R12)
0Loc    Object Code    Addr1 Addr2  Stmt Lv Lineno    Source Statement           (Hibal 5, Asmedit 3.3)  HLASM R4.0  2004/03/15 13.00
+___    ______ ____    _____ _____  ____ __ ______    ______ _________
0                                  12310                       QLTORG
1WBUG     (WBUG2025) (13:00) (15MAR04) SET DEBUG - initialize/start debugging session                                       Page   50
0Current Usings:  (DBDSECT,R6) (*,R7) (CP,R11) (CV,R12)
0Loc    Object Code    Addr1 Addr2  Stmt Lv Lineno    Source Statement           (Hibal 5, Asmedit 3.3)  HLASM R4.0  2004/03/15 13.00
+___    ______ ____    _____ _____  ____ __ ______    ______ _________
0                                  12325              ¿þþþþþþþþþþþþþþþþþþþþþþþþþþþþþþþþþþþþþþþþþþþþþþþþþþþþþþþþþþþþþþþþþþþþþÜ
                                   12326              Ÿ                                                                     Ÿ
                                   12327              Ÿ                                                                     Ÿ
                                   12328              Ÿ  SET DEBUG  <line no.>                                              Ÿ
                                   12329              Ÿ                                                                     Ÿ
                                   12330              Ÿ   IDENTIFY USER WE ARE DEBUGING AND IDENTIFY US AS DEBUGGER.        Ÿ
                                   12331              Ÿ   THEN PAUSE US WAITING FOR DEBUG BREAK.                            Ÿ
                                   12332              Ÿ                                                                     Ÿ
                                   12333              Ÿ                                                                     Ÿ
                                   12334              Ÿ                                                                     Ÿ
                                                      ¾þþþþþþþþþþþþþþþþþþþþþþþþþþþþþþþþþþþþþþþþþþþþþþþþþþþþþþþþþþþþþþþþþþþþþ»
00010B0 50E0 D000/9008_      00000 12335              SETDEBUG XPROC ,
 DROP   *,R7
 USING  *,R7
 0010CA 9120 B3BE/4710_003BE       12378                       IF    ~CPSFSPR,' VCALL NOTVALID'
 0010D8 9102 C4C5/4710_004C5       12402                       IF    ~CVFTEST,BEGIN
 0010E0 4110 7A1E/4100_      01AE8 12417  1                      TSEG  'SET DEBUG is only available for test systems.',,CR
 0010F2 4110 7946/4100_      01A10 12435  1                      SETMSG 'Do it anyway'
 0010FA 58E0 7952/0DEE       01A1C 12439  1                      VCALL YESREQ
 001100                            12443                       END
                                   12447
 001100 5860 7956            01A20 12448                       L     R6,=A(DBAREA)      R6 - DEBUG DATA AREA
                                   12449                       USING DBDSECT,R6
 001104 1B55                       12451                       SR    R5,R5              R5 - JCB ADDRESS
 USING  JCB,R5                     12452                       USING JCB,R5
 001106 9180 6008/47E0_00008       12461                       IF    DBACTIVE,BEGIN     IF ALREADY DEBUGING,,
 00110E 4110 7A4B/4100_      01B15 12476  1                      TSEG  'Debugging session already active.',,CR
 001120 4110 7A6C/4100_      01B36 12494  1                      TSEG  'Use CLEAR DEBUG to terminate debug session.',,CR
 001132 47F0 C7DA            007DA 12512  1                      B     CVABORT
 001136                            12513                       END
                                   12517                       ¿þþþþþþþþþþþþþþþþþþþþþþþþþþþþþþþþÜ
                                   12518                       Ÿ  SCAN FOR DEBUGEE LINE NUMBER  Ÿ
                                   12519                       ¾þþþþþþþþþþþþþþþþþþþþþþþþþþþþþþþþ»
 001136 5810 B08C/1B00_      0008C 12520                       SCAN  SETDBPRT
 001188 58E0 7962/0DEE       01A2C 12552                       SCANCHK
                                   12557                       ¿þþþþþþþþþþþþþþþþþþþþþþþþþþþÜ
                                   12558                       Ÿ  IF DEBUG LINE SPECIFIED  Ÿ
                                   12559                       ¾þþþþþþþþþþþþþþþþþþþþþþþþþþþ»
 00118E 1255/4780 7168             12560                       IF    (R5,NZ),BEGIN      IF JCB SPECIFIED
 001194 5950 C1C8/4770_      001C8 12574  1                      IF    (R5,EQ,CVCURJCB),BEGIN
 00119C D207 B886 78FE_00886 019C8 12591  2                        ABORT 'Debugger may not debug itself.  Command ignored.',,CR
 0011AE                            12599  1                      END
 0011AE 9180 5060/47E0_00060       12603  1                      IF    JCBWFSO,BEGIN      IF WAITING FOR SIGN ON,
 0011B6 4110 7A97/4100_      01B61 12618  2                        TSEG  'Line '
 0011C8 4810 5048/1B00_      00048 12636  2                        TNUM  LH:JCBSEQ
 0011D8 4110 7998/4100_      01A62 12657  2                        TSEG  ' is not logged on.'
 0011EA 47F0 C7DA            007DA 12675  2                        B     CVABORT
 0011EE                            12676  1                      END
                                   12680  1                      COMMENT                  IF LINE # OK, ASK IF OK TO DEBUG
 0011EE 4110 79AA/4100_      01A74 12681  1                      TSEG  'OK to debug line ('
 001200 4810 5048/1B00_      00048 12699  1                      TNUM  LH:JCBSEQ
 001210 4110 7936/4100_      01A00 12720  1                      TSEG  '), user '         OK to debug line (18), user ...?
 001222 1815                       12738  1                      LR    R1,R5
1WBUG     (WBUG2025) (13:00) (15MAR04) SET DEBUG - initialize/start debugging session                                       Page   51
0Current Usings:  (JCB,R5) (DBDSECT,R6) (*,R7) (CP,R11) (CV,R12)
0Loc    Object Code    Addr1 Addr2  Stmt Lv Lineno    Source Statement           (Hibal 5, Asmedit 3.3)  HLASM R4.0  2004/03/15 13.00
+___    ______ ____    _____ _____  ____ __ ______    ______ _________
0001224 58E0 796E/0DEE       01A38 12739  1                      ACALL TSEGUSER
 00122A 1B00                       12743  1                      SR    R0,R0
 00122C 58E0 7952/0DEE       01A1C 12744  1                      VCALL YESREQ
 001232                            12748                       END
                                   12752                       ¿þþþþþþþþþþþþþþþþþþþþþþþþþþþþþþþþþþþþþþþþþþþþþþþÜ
                                   12753                       Ÿ  PAUSE WAITING FOR DEBUGEE, TO REACTIVATE US  Ÿ
                                   12754                       ¾þþþþþþþþþþþþþþþþþþþþþþþþþþþþþþþþþþþþþþþþþþþþþþþ»
 001232 4110 7A9C/4100_      01B66 12755                       TSEG  'Terminal paused, waiting for debug break.',,WR
 001244 9680 6008      00008       12773                       SET   DBACTIVE           ACTIVE IN DEBUG
 001248 940F C751      00751       12779                       SET   CVENTON            TURN ON FAILSOFT TRACING
 00124C 5050 6010            00010 12785                       ST    R5,DBEEJCB         SAVE JCB BEING DEBUGGED
                                   12786
 001250 5810 C1C8            001C8 12787              DEBLP    L     R1,CVCURJCB        SAVE JCB DOING THE DEBUGGING
 001254 5010 600C            0000C 12788                       ST    R1,DBERJCB
 001258 58E0 7976/0DEE       01A40 12789                       ACALL PAUSEJCB           PAUSE THIS SESSION RIGHT HERE
                                   12793                       ¿þþþþþþþþþþþþþþþþþþþþþþþþþþþþþþþþþþþþþþþþþþþþþþþþþþþþþþþþÜ
                                   12794                       Ÿ  RESTARTED HERE BY DEBUG BREAK OR CLEAR DEBUG COMMAND  Ÿ
                                   12795                       ¾þþþþþþþþþþþþþþþþþþþþþþþþþþþþþþþþþþþþþþþþþþþþþþþþþþþþþþþþ»
 00125E 9180 6008/47E0_00008       12796                       IF    DBACTIVE,BEGIN      Debugging is still active...
 001266 D503 C1C8 600C_001C8 0000C 12811  1                      IF    (CVCURJCB,NE,DBERJCB),EXIT  We aren't it anymore
                                   12832  1                      ¿þþþþþþþþþþþþþþþþþþþþþþþþþþþþþþþþþþþþþþþþþþþþþþþþþþþÜ
                                   12833  1                      Ÿ  See if we were woken to process DEBUG messages.  Ÿ
                                   12834  1                      ¾þþþþþþþþþþþþþþþþþþþþþþþþþþþþþþþþþþþþþþþþþþþþþþþþþþþ»
 001270 9140 600A/4710_0000A       12835  1                      IF    (DBFMSG,OR,DBFMSGDISP),BEGIN  Process DEBUG msg...
 001280 9640 6008      00008       12864  2                        SET   DBBREAK             Session break in progress
 001284 58E0 797A/0DEE       01A44 12870  2                        ACALL DEBWRITE            Write DEBUG message(s)
 00128A 9140 600A/47E0_0000A       12874  2                        IF    DBFMSG,BEGIN        Other user is paused now...
 001292 5810 6010            00010 12889  3                          L     R1,DBEEJCB
 001296 58E0 797E/0DEE       01A48 12890  3                          ACALL STARTJCB            Restart paused user
 00129C                            12894  2                        END
 00129C 94BF 600A/94DF_0000A       12898  2                        CLEAR DBFMSG,DBFMSGDISP   Reset msg pending flags
 0012A4 94BF 6008      00008       12910  2                        CLEAR DBBREAK             Clear session break flag
 0012A8 47F0 7186            01250 12917  2                        B     DEBLP               Loop back
 0012AC                            12918  1                      END
                                   12922  1                      ¿þþþþþþþþþþþþþþþþþþþþþþþþþþþþþþþþþþþþþþþþþþþþþþÜ
                                   12923  1                      Ÿ  We were woken because the debugee blew up.  Ÿ
                                   12924  1                      ¾þþþþþþþþþþþþþþþþþþþþþþþþþþþþþþþþþþþþþþþþþþþþþþ»
 0012AC 58E0 797A/0DEE       01A44 12925  1                      ACALL DEBWRITE            Write any DEBUG msgs
 0012B2 58E0 7982/0DEE       01A4C 12929  1                      ACALL STOPMSG             Give pause message
 0012B8                            12933                       END
 0012B8 47F0 C7DE            007DE 12937                       B     CVNEXT
 0012BC 18D8/9808 D004_            12938                       PEND  ,
 DROP   *,R7
 USING  *,R7
                                   12965              *
                                   12966              *
 0012CC 4040404040404040_          12967              SETDBPRT SCKW  ,WJCBLNO,I,5000
 0012F4 4040404040404040_          12982                       SCKW  ,V(SCNINVAL)
                                   12997
 00131C 50E0 D000/9008_      00000 12998              WJCBLNO  PROC  ,
 DROP   *,R7
 USING  *,R7
 001336 4C00 7750            01A86 13040                       MH    R0,=AL2(L'JCB)
 00133A 5850 C1C0            001C0 13041                       L     R5,CVFJCB
1WBUG     (WBUG2025) (13:00) (15MAR04) SET DEBUG - initialize/start debugging session                                       Page   52
0Current Usings:  (JCB,R5) (DBDSECT,R6) (*,R7) (CP,R11) (CV,R12)
0Loc    Object Code    Addr1 Addr2  Stmt Lv Lineno    Source Statement           (Hibal 5, Asmedit 3.3)  HLASM R4.0  2004/03/15 13.00
+___    ______ ____    _____ _____  ____ __ ______    ______ _________
000133E 1A50                       13042                       AR    R5,R0
 001340 5950 C1C4/4750_      001C4 13043                       IF    (R5,GE,CVLJCB),' VCALL NOTVALID'
 00134E 5058 0018            00018 13069                       PRETURN (R5)
 001352 18D8/9808 D004_            13071                       PEND  ,
 DROP   *,R7
 USING  *,R7
 DROP   JCB,R5                     13098                       DROP  R5
1WBUG     (WBUG2025) (13:00) (15MAR04) SHOW DEBUG - show debug session info                                                 Page   53
0Current Usings:  (DBDSECT,R6) (*,R7) (CP,R11) (CV,R12)
0Loc    Object Code    Addr1 Addr2  Stmt Lv Lineno    Source Statement           (Hibal 5, Asmedit 3.3)  HLASM R4.0  2004/03/15 13.00
+___    ______ ____    _____ _____  ____ __ ______    ______ _________
0                                  13106              ¿þþþþþþþþþþþþþþþþþþþþþþþþþþþþþþþþþþþþþþþþþþþþþþþþþþþþþþþþþþþþþþþþþþþþþÜ
                                   13107              Ÿ                                                                     Ÿ
                                   13108              Ÿ                                                                     Ÿ
                                   13109              Ÿ  SHOW DEBUG - show debug info,                                      Ÿ
                                   13110              Ÿ                                                                     Ÿ
                                   13111              Ÿ                                                                     Ÿ
                                   13112              Ÿ                                                                     Ÿ
                                                      ¾þþþþþþþþþþþþþþþþþþþþþþþþþþþþþþþþþþþþþþþþþþþþþþþþþþþþþþþþþþþþþþþþþþþþþ»
0001360 50E0 D000/9008_      00000 13113              SHOWDBUG XPROC ,
 DROP   *,R7
 USING  *,R7
 00137A 9120 B3BE/4710_003BE       13156                       IF    ~CPSFSPR,' VCALL NOTVALID'
 001388 5860 76A6            01A20 13180                       L     R6,=A(DBAREA)
                                   13181                       USING DBDSECT,R6
                                   13183
 00138C 9180 6008/4710_00008       13184                       IF    ~DBACTIVE,BEGIN
 001394 4110 7815/4100_      01B8F 13199  1                      TSEG  'Debugging session not active.'
 0013A6 47F0 C7DE            007DE 13217  1                      B     CVNEXT
 0013AA                            13218                       END
                                   13222
 USING  JCB,R5                     13223                       WITH  (JCB,R5),BEGIN       IF DEBUGGEE IS KNOWN,,
 0013AA D503 7646 6010_019C0 00010 13237  1                      IF    (DBEEJCB,NE,0),BEGIN
 0013B4 5850 600C            0000C 13255  2                        L     R5,DBERJCB           DEBUGGER is debugging
 0013B8 1815                       13256  2                        LR    R1,R5
 0013BA 58E0 76BE/0DEE       01A38 13257  2                        ACALL TSEGUSER
 0013C0 4110 7832/4100_      01BAC 13261  2                        TSEG  ' (line '
 0013D2 4810 5048/1B00_      00048 13279  2                        TNUM  LH:JCBSEQ
 0013E2 4110 7839/4100_      01BB3 13300  2                        TSEG  ') is debugging '
 0013F4 5850 6010            00010 13318  2                        L     R5,DBEEJCB           DEBUGEE
 0013F8 1815                       13319  2                        LR    R1,R5
 0013FA 58E0 76BE/0DEE       01A38 13320  2                        ACALL TSEGUSER
 001400 4110 7832/4100_      01BAC 13324  2                        TSEG  ' (line '
 001412 4810 5048/1B00_      00048 13342  2                        TNUM  LH:JCBSEQ
 001422 4110 770E/4100_      01A88 13363  2                        TSEG  ').',,CR
 001434                            13381  1                      END
                                   13385  1
 001434 D503 7646 6010_019C0 00010 13386  1                      IF    (DBEEJCB,EQ,0),BEGIN IF DEBUGGEE IS NOT KNOWN
 00143E 5850 600C            0000C 13404  2                        L     R5,DBERJCB           DEBUGGER is debugging
 001442 1815                       13405  2                        LR    R1,R5
 001444 58E0 76BE/0DEE       01A38 13406  2                        ACALL TSEGUSER
 00144A 4110 7832/4100_      01BAC 13410  2                        TSEG  ' (line '
 00145C 4810 5048/1B00_      00048 13428  2                        TNUM  LH:JCBSEQ
 00146C 4110 7710/4100_      01A8A 13449  2                        TSEG  ') is waiting to debug an unspecified user.'
 00147E                            13467  1                      END
 DROP   JCB,R5                     13471                       END   , WITH (JCB,R5)
                                   13479
 00147E 47F0 C7DE            007DE 13480                       B     CVNEXT
 001482 18D8/9808 D004_            13481                       PEND  ,
 DROP   *,R7
 USING  *,R7
1WBUG     (WBUG2025) (13:00) (15MAR04) CLEAR DEBUG - clear debugging session                                                Page   54
0Current Usings:  (DBDSECT,R6) (*,R7) (CP,R11) (CV,R12)
0Loc    Object Code    Addr1 Addr2  Stmt Lv Lineno    Source Statement           (Hibal 5, Asmedit 3.3)  HLASM R4.0  2004/03/15 13.00
+___    ______ ____    _____ _____  ____ __ ______    ______ _________
0                                  13509              ¿þþþþþþþþþþþþþþþþþþþþþþþþþþþþþþþþþþþþþþþþþþþþþþþþþþþþþþþþþþþþþþþþþþþþþÜ
                                   13510              Ÿ                                                                     Ÿ
                                   13511              Ÿ                                                                     Ÿ
                                   13512              Ÿ   CLEAR DEBUG - clear debugging session                             Ÿ
                                   13513              Ÿ                                                                     Ÿ
                                   13514              Ÿ                                                                     Ÿ
                                   13515              Ÿ   we process three different cases,  1. debuggee , 2. debugger      Ÿ
                                   13516              Ÿ          3. sombody else,,,, issued CLEAR DEBUG command             Ÿ
                                   13517              Ÿ                                                                     Ÿ
                                   13518              Ÿ                                                                     Ÿ
                                                      ¾þþþþþþþþþþþþþþþþþþþþþþþþþþþþþþþþþþþþþþþþþþþþþþþþþþþþþþþþþþþþþþþþþþþþþ»
0001490 50E0 D000/9008_      00000 13519              CLRDEBUG XPROC ,
 DROP   *,R7
 USING  *,R7
 0014AA 9120 B3BE/4710_003BE       13562                       IF    ~CPSFSPR,' VCALL NOTVALID'
 0014B8 5860 7576            01A20 13586                       L     R6,=A(DBAREA)
                                   13587                       USING DBDSECT,R6
                                   13589
 0014BC 9180 6008/4710_00008       13590                       IF    ~DBACTIVE,BEGIN
 0014C4 4110 76E5/4100_      01B8F 13605  1                      ABORT 'Debugging session not active.'
 0014D0                            13612                       END
 0014D0 947F 6008      00008       13616                       CLEAR DBACTIVE
                                   13623
 0014D4 5820 6010            00010 13624                       L     R2,DBEEJCB         R2 - DEBUGGEE JCB
 0014D8 5830 600C            0000C 13625                       L     R3,DBERJCB         R3 - DEBUGGER JCB
                                   13626
 0014DC 5920 C1C8/4770_      001C8 13627                       IF    (CVCURJCB,EQ,R2),BEGIN     IF DEBUGEE,
 0014E4 58E0 75A6/0DEE       01A50 13644  1                      ACALL CLRALL             CLEAR ALL TRAPS
 0014EA 5800 75AA            01A54 13648  1                      L     R0,=A(DBAREA+8)    CLEAR DEBUG AREA
 0014EE 5810 75AE            01A58 13649  1                      L     R1,=A(DBLENGTH-8)
 0014F2 1B55                       13650  1                      CLEAR R5
 0014F4 0E04                       13654  1                      MVCL  R0,R4
 0014F6 1813                       13655  1                      LR    R1,R3              START UP DEBUGGER
 0014F8 58E0 759E/0DEE       01A48 13656  1                      ACALL STARTJCB
 0014FE 4110 7718/4100_      01BC2 13660  1                      TSEG  'Debugging session terminated.'
 001510 47F0 711C            015C6 13678  1                      B     CLREXIT
 001514                            13679                       END
                                   13683
 001514 5930 C1C8/4770_      001C8 13684                       IF    (CVCURJCB,EQ,R3),BEGIN     IF DEBUGGER
 00151C 58E0 75A6/0DEE       01A50 13701  1                      ACALL CLRALL             CLEAR ALL TRAPS
 001522 9680 6009      00009       13705  1                      SET   DBCLEAR            SET CLEAR FLAG
 001526 1812                       13711  1                      LR    R1,R2              START UP DEBUGEE
 001528 1211/4780 708A             13712  1                      IF    (R1,NZ),BEGIN
 00152E 58E0 759E/0DEE       01A48 13726  2                        ACALL STARTJCB
 001534                            13730  1                      END
 001534 4110 7718/4100_      01BC2 13734  1                      TSEG  'Debugging session terminated.'
 001546 47F0 711C            015C6 13752  1                      B     CLREXIT
 00154A                            13753                       END
                                   13757
 00154A 5920 C1C8/4770_      001C8 13758                       IF    ((CVCURJCB,NE,R2),OR,(CVCURJCB,NE,R3)),BEGIN
 USING  JCB,R5                     13791  1                      WITH  (JCB,R5),BEGIN
 00155A 1852                       13805  2                        LR    R5,R2
 00155C 9101 5060/47E0_00060       13806  2                        IF    JCBWFERR,BEGIN     IF DEBUGEE PAUSED,,
1WBUG     (WBUG2025) (13:00) (15MAR04) CLEAR DEBUG - clear debugging session                                                Page   55
0Current Usings:  (JCB,R5) (DBDSECT,R6) (*,R7) (CP,R11) (CV,R12)
0Loc    Object Code    Addr1 Addr2  Stmt Lv Lineno    Source Statement           (Hibal 5, Asmedit 3.3)  HLASM R4.0  2004/03/15 13.00
+___    ______ ____    _____ _____  ____ __ ______    ______ _________
0001564 58E0 75A6/0DEE       01A50 13821  3                          ACALL CLRALL             CLEAR ALL TRAPS
 00156A 9680 6009      00009       13825  3                          SET   DBCLEAR            SET CLEAR FLAG
 00156E 1812                       13831  3                          LR    R1,R2              START UP DEBUGEE
 001570 58E0 759E/0DEE       01A48 13832  3                          ACALL STARTJCB
 001576 4110 760A/4100_      01AB4 13836  3                          TSEG  'Debugging session terminated. '
 001588 47F0 711C            015C6 13854  3                          B     CLREXIT
 00158C                            13855  2                        END
 00158C 1853                       13859  2                        LR    R5,R3
 00158E 9101 5060/47E0_00060       13860  2                        IF    JCBWFERR,BEGIN     IF DEBUGGER PAUSED,,
 001596 58E0 75A6/0DEE       01A50 13875  3                          ACALL CLRALL             CLEAR ALL TRAPS
 00159C 5800 75AA            01A54 13879  3                          L     R0,=A(DBAREA+8)    CLEAR DEBUG AREA
 0015A0 5810 75AE            01A58 13880  3                          L     R1,=A(DBLENGTH-8)
 0015A4 1B55                       13881  3                          CLEAR R5
 0015A6 0E04                       13885  3                          MVCL  R0,R4
 0015A8 1813                       13886  3                          LR    R1,R3              START UP DEBUGGER
 0015AA 58E0 759E/0DEE       01A48 13887  3                          ACALL STARTJCB
 0015B0 4110 7718/4100_      01BC2 13891  3                          TSEG  'Debugging session terminated.'
 0015C2 47F0 711C            015C6 13909  3                          B     CLREXIT
 0015C6                            13910  2                        END
 DROP   JCB,R5                     13914  1                      END   , WITH (JCB,R5)
 0015C6                            13922                       END
                                   13926              *
                                   13927              *
 0015C6                            13928              CLREXIT  LABEL ,
 0015C6 47F0 C7DE            007DE 13930                       B     CVNEXT
 0015CA 18D8/9808 D004_            13931                       PEND  ,
 DROP   *,R7
 USING  *,R7
1WBUG     (WBUG2025) (13:00) (15MAR04) DEBUG - entry point for most debug commands                                          Page   56
0Current Usings:  (DBDSECT,R6) (*,R7) (CP,R11) (CV,R12)
0Loc    Object Code    Addr1 Addr2  Stmt Lv Lineno    Source Statement           (Hibal 5, Asmedit 3.3)  HLASM R4.0  2004/03/15 13.00
+___    ______ ____    _____ _____  ____ __ ______    ______ _________
0                                  13959              ¿þþþþþþþþþþþþþþþþþþþþþþþþþþþþþþþþþþþþþþþþþþþþþþþþþþþþþþþþþþþþþþþþþþþþþÜ
                                   13960              Ÿ                                                                     Ÿ
                                   13961              Ÿ                                                                     Ÿ
                                   13962              Ÿ  DEBUG - root and entry point for most debugging commands           Ÿ
                                   13963              Ÿ                                                                     Ÿ
                                   13964              Ÿ                                                                     Ÿ
                                   13965              Ÿ                                                                     Ÿ
                                   13966              Ÿ                                                                     Ÿ
                                                      ¾þþþþþþþþþþþþþþþþþþþþþþþþþþþþþþþþþþþþþþþþþþþþþþþþþþþþþþþþþþþþþþþþþþþþþ»
00015D8 50E0 D000/9008_      00000 13967              WDEBUG   XPROC ,
 DROP   *,R7
 USING  *,R7
 0015F2 9120 B3BE/4710_003BE       14010                       IF    ~CPSFSPR,' VCALL NOTVALID'
                                   14034
 001600 5860 742E            01A20 14035                       L     R6,=A(DBAREA)
                                   14036                       USING DBDSECT,R6
                                   14038
 001604 5810 B08C/1B00_      0008C 14039                       SCAN  DEBUGPRT
 001656 58E0 743A/0DEE       01A2C 14071                       SCANCHK ,
 00165C 4110 74E0/4100_      01AD2 14076                       ABORT 'Missing debug command.'
 001668 18D8/9808 D004_            14083                       PEND  ,
 DROP   *,R7
 USING  *,R7
                                   14110
 001678 E240404040404040_          14111              DEBUGPRT SCKW  S,SETDEBUG          S IS FOR DEBUG START
 0016A0 C7D6404040404040_          14126                       SCKW  GO,WGO,A
 0016C8 C7D6E3D640404040_          14141                       SCKW  GOTO,WGOTO
 0016F0 E2E3404040404040_          14156                       SCKW  ST,WST
 001718 E2E3E24040404040_          14171                       SCKW  STS,WSTS
 001740 C3E3404040404040_          14186                       SCKW  CT,WCT
 001768 C3E3E24040404040_          14201                       SCKW  CTS,WCTS
 001790 E2C3404040404040_          14216                       SCKW  SC,WSC2
 0017B8 C4C9E2C1E2D44040_          14231                       SCKW  DISASM,WDISASM,A
 0017E0 D7C3404040404040_          14246                       SCKW  PC,WPC2
 001808 E2C7404040404040_          14261                       SCKW  SG,WSG
 001830 D7C7404040404040_          14276                       SCKW  PG,WPG
 001858 E2D7C74040404040_          14291                       SCKW  SPG,WSPG
 001880 D7D7C74040404040_          14306                       SCKW  PPG,WPPG
 0018A8 E2D7E2E640404040_          14321                       SCKW  SPSW,WSPSW
 0018D0 E2C3C34040404040_          14336                       SCKW  SCC,WSCC
 0018F8 D7C3C34040404040_          14351                       SCKW  PCC,WPCC
 001920 D7C9C14040404040_          14366                       SCKW  PIA,WPIA
 001948 E3D9C1C3C5404040_          14381                       SCKW  TRACE,WTRACE,A
 001970 E2C1404040404040_          14396                       SCKW  SA,WSA
 001998 4040404040404040_          14411                       SCKW  ,V(SCNINVAL)
1WBUG     (WBUG2025) (13:00) (15MAR04) DEBUG - entry point for most debug commands                                          Page   57
0Current Usings:  (DBDSECT,R6) (*,R7) (CP,R11) (CV,R12)
0Loc    Object Code    Addr1 Addr2  Stmt Lv Lineno    Source Statement           (Hibal 5, Asmedit 3.3)  HLASM R4.0  2004/03/15 13.00
+___    ______ ____    _____ _____  ____ __ ______    ______ _________
0                                  14427                       QLTORG
1WBUG     (WBUG2025) (13:00) (15MAR04) GO - continue execution after breakpoint                                             Page   58
0Current Usings:  (DBDSECT,R6) (*,R7) (CP,R11) (CV,R12)
0Loc    Object Code    Addr1 Addr2  Stmt Lv Lineno    Source Statement           (Hibal 5, Asmedit 3.3)  HLASM R4.0  2004/03/15 13.00
+___    ______ ____    _____ _____  ____ __ ______    ______ _________
0                                  14481              ¿þþþþþþþþþþþþþþþþþþþþþþþþþþþþþþþþþþþþþþþþþþþþþþþþþþþþþþþþþþþþþþþþþþþþþÜ
                                   14482              Ÿ                                                                     Ÿ
                                   14483              Ÿ                                                                     Ÿ
                                   14484              Ÿ  WGO                                                                Ÿ
                                   14485              Ÿ                                                                     Ÿ
                                   14486              Ÿ   START USER WE ARE DEBUGGING AND PAUSE OURSELVES.                  Ÿ
                                   14487              Ÿ                                                                     Ÿ
                                   14488              Ÿ                                                                     Ÿ
                                                      ¾þþþþþþþþþþþþþþþþþþþþþþþþþþþþþþþþþþþþþþþþþþþþþþþþþþþþþþþþþþþþþþþþþþþþþ»
0001BE0 50E0 D000/9008_      00000 14489              WGO      XPROC ,
 DROP   *,R7
 USING  *,R7
 001BFA 5860 7C76            02870 14532                       L     R6,=A(DBAREA)      R6 - DEBUG DATA AREA
                                   14533                       USING DBDSECT,R6
                                   14535                       ¿þþþþþþþþþþþþþþþþþþþþþþþþþþÜ
                                   14536                       Ÿ  CHECK COMMAND VALIDITY  Ÿ
                                   14537                       ¾þþþþþþþþþþþþþþþþþþþþþþþþþþ»
 001BFE 9180 6008/4710_00008       14538                       IF    ~DBACTIVE,BEGIN
 001C06 4110 7E34/4100_      02A2E 14553  1                      ABORT 'Debugging session not active.'
 001C12                            14560                       END
 001C12 D503 C1C8 600C_001C8 0000C 14564                       IF    (CVCURJCB,NE,DBERJCB),BEGIN
 001C1C 4110 7D7A/4100_      02974 14582  1                      ABORT 'Current line not debugger.'
 001C28                            14589                       END
 001C28 9140 6008/4710_00008       14593                       IF    ~DBBREAK,BEGIN
 001C30 4110 7E51/4100_      02A4B 14608  1                      ABORT 'Not in debugging session break.  Command ignored.'
 001C3C                            14615                       END
                                   14619                       ¿þþþþþþþþþþþþþþþþþþþþþþþþþþþþÜ
                                   14620                       Ÿ  SCAN FOR COMMAND OPTIONS  Ÿ
                                   14621                       ¾þþþþþþþþþþþþþþþþþþþþþþþþþþþþ»
                                   14622                       COMMENT                  NO OPTIONS YET BUD
                                   14623                       COMMENT
                                   14624                       COMMENT
                                   14625                       ¿þþþþþþþþþþþþþþþþþþþþþþþþþþþþþþþþþþþþþþþþþþþþþþþþþÜ
                                   14626                       Ÿ  START DEBUGEE, AND PAUSE DEBUGGER (THAT'S US)  Ÿ
                                   14627                       ¾þþþþþþþþþþþþþþþþþþþþþþþþþþþþþþþþþþþþþþþþþþþþþþþþþ»
 001C3C 5810 6010            00010 14628                       L     R1,DBEEJCB
 001C40 58E0 7C7A/0DEE       02874 14629                       ACALL STARTJCB           START UP PAUSED DEBUGEE
 001C46 5810 600C            0000C 14633                       L     R1,DBERJCB
 001C4A 58E0 7C7E/0DEE       02878 14634                       ACALL PAUSEJCB           AND PAUSE DEBUGGER
                                   14638                       ¿þþþþþþþþþþþþþþþþþþþþþþþþþþþþþþþþþþþþþþþþþþþþþþþþþþþþþþþþÜ
                                   14639                       Ÿ  RESTARTED HERE BY DEBUG BREAK OR CLEAR DEBUG COMMAND  Ÿ
                                   14640                       ¾þþþþþþþþþþþþþþþþþþþþþþþþþþþþþþþþþþþþþþþþþþþþþþþþþþþþþþþþ»
 001C50 9180 6008/47E0_00008       14641                       IF    DBACTIVE,BEGIN     IF DEBUG IS STILL ACTIVE AND WE
 001C58 D503 C1C8 600C_001C8 0000C 14656  1                      IF    (CVCURJCB,EQ,DBERJCB),BEGIN     STILL ARE THE DEBUGER
 001C62 58E0 7C82/0DEE       0287C 14674  2                        ACALL STOPMSG            GIVE PAUSE MESSAGE
 001C68                            14678  1                      END
 001C68                            14682                       END
 001C68 47F0 C7DE            007DE 14686                       B     CVNEXT
 001C6C 18D8/9808 D004_            14687                       PEND  ,
 DROP   *,R7
 USING  *,R7
1WBUG     (WBUG2025) (13:00) (15MAR04) GOTO - continue execution at specified address                                       Page   59
0Current Usings:  (DBDSECT,R6) (*,R7) (CP,R11) (CV,R12)
0Loc    Object Code    Addr1 Addr2  Stmt Lv Lineno    Source Statement           (Hibal 5, Asmedit 3.3)  HLASM R4.0  2004/03/15 13.00
+___    ______ ____    _____ _____  ____ __ ______    ______ _________
0                                  14715              ¿þþþþþþþþþþþþþþþþþþþþþþþþþþþþþþþþþþþþþþþþþþþþþþþþþþþþþþþþþþþþþþþþþþþþþÜ
                                   14716              Ÿ                                                                     Ÿ
                                   14717              Ÿ                                                                     Ÿ
                                   14718              Ÿ  GOTO <address> - resume execution at specified address             Ÿ
                                   14719              Ÿ                                                                     Ÿ
                                   14720              Ÿ                                                                     Ÿ
                                   14721              Ÿ                                                                     Ÿ
                                   14722              Ÿ                                                                     Ÿ
                                                      ¾þþþþþþþþþþþþþþþþþþþþþþþþþþþþþþþþþþþþþþþþþþþþþþþþþþþþþþþþþþþþþþþþþþþþþ»
0001C7A 50E0 D000/9008_      00000 14723              WGOTO    XPROC ,
 DROP   *,R7
 USING  *,R7
 001C94 9120 B3BE/4710_003BE       14766                       IF    ~CPSFSPR,' VCALL NOTVALID'
 001CA2 5860 7BDC            02870 14790                       L     R6,=A(DBAREA)
                                   14791                       USING DBDSECT,R6
                                   14793
 001CA6 9180 6008/4710_00008       14794                       IF    ~DBACTIVE,BEGIN
 001CAE 4110 7D9A/4100_      02A2E 14809  1                      ABORT 'Debugging session not active.'
 001CBA                            14816                       END
 001CBA D503 C1C8 600C_001C8 0000C 14820                       IF    (CVCURJCB,NE,DBERJCB),BEGIN
 001CC4 4110 7CE0/4100_      02974 14838  1                      ABORT 'Current line not debugger.'
 001CD0                            14845                       END
 001CD0 9140 6008/4710_00008       14849                       IF    ~DBBREAK,BEGIN
 001CD8 4110 7DB7/4100_      02A4B 14864  1                      ABORT 'Not in debugging session break.  Command ignored.'
 001CE4                            14871                       END
                                   14875                       ¿þþþþþþþþþþþþþþþþþþþþþþþþÜ
                                   14876                       Ÿ  SCAN ADDRESS OPTIONS  Ÿ
                                   14877                       ¾þþþþþþþþþþþþþþþþþþþþþþþþ»
 001CE4 58E0 B08C/581E_      0008C 14878                       SCINFO
 001CF2 1821                       14887                       LR    R2,R1              R2,R3 - LOC,LEN OF ADDRESS
 001CF4 1830                       14888                       LR    R3,R0
 001CF6 5810 B08C/1B00_      0008C 14889                       SCAN WGOTOPRT           SCAN DOES NOT RETURN
 001D48 58E0 7BF8/0DEE       0288C 14921                       SCANCHK ,
 001D4E 0000                       14926                       BOMB
                                   14928
 001D50 D5C5E7E340404040_          14929              WGOTOPRT SCKW  NEXT,WGTNEXT
 001D78 C1C2D6D9E3404040_          14944                       SCKW  ABORT,WGTABORT
 001DA0 4040404040404040_          14959                       SCKW  ,WGTEXPR
                                   14974                        ¿þþþþþþþþþþþþþþþþþþþþþþþþþþþþþþþþþþþþþþÜ
                                   14975                        Ÿ  PROCESS GENERAL ADDRESS EXPRESSION  Ÿ
                                   14976                        ¾þþþþþþþþþþþþþþþþþþþþþþþþþþþþþþþþþþþþþþ»
 001DC8 50E0 D000/9008_      00000 14977              WGTEXPR  PROC  ,                  PROCESS GENERAL ADDRESS EXPRESSION
 DROP   *,R7
 USING  *,R7
 001DE2 1812                       15019                       LR    R1,R2              R1,R0 - LOC, LEN OF ADDR EXPRESSION
 001DE4 1803                       15020                       LR    R0,R3
 001DE6 58E0 B08C/501E_      0008C 15021                       SCINIT
 001DF4 58E0 7AAE/0DEE       02890 15031                       ACALL EVALXPRN           EVALUATE INSTRUCTION ADDRESS
                                   15035                       COMMENT                    RETURNS R1=ADDR, R15=CC
 001DFA 59F0 7AB2/4770_      02894 15036                       IF    (R15,EQ,4),BEGIN
 001E02 4110 7A4E/4100_      02830 15053  1                      ABORT 'Missing address operand.'
 001E0E                            15060                       END
 001E0E 59F0 7AB6/4770_      02898 15064                       IF    (R15,EQ,8),BEGIN
1WBUG     (WBUG2025) (13:00) (15MAR04) GOTO - continue execution at specified address                                       Page   60
0Current Usings:  (DBDSECT,R6) (*,R7) (CP,R11) (CV,R12)
0Loc    Object Code    Addr1 Addr2  Stmt Lv Lineno    Source Statement           (Hibal 5, Asmedit 3.3)  HLASM R4.0  2004/03/15 13.00
+___    ______ ____    _____ _____  ____ __ ______    ______ _________
0001E16 4110 7A66/4100_      02848 15081  1                      ABORT 'Invalid address.'
 001E22                            15088                       END
 001E22 58E0 7ABA/0DEE       0289C 15092                       ACALL CHKRADDR
 001E28 4780 7056            01E38 15096                       IF    NZ,BEGIN
 001E2C 4110 7A66/4100_      02848 15107  1                      ABORT 'Invalid address.'
 001E38                            15114                       END
 001E38 58E0 7ABE/0DEE       028A0 15118                       ACALL CHKIADDR
 001E3E 4780 706C            01E4E 15122                       IF    NZ,BEGIN
 001E42 4110 7AC2/4100_      028A4 15133  1                      ABORT 'Invalid instruction address.'
 001E4E                            15140                       END
                                   15144
 001E4E 5010 6020            00020 15145                       ST    R1,DBIA            SAVE NEW INSTRUCTION ADDRESS
 001E52 58E0 7ADE/0DEE       028C0 15146                       ACALL WGO                EXIT VIA GO CODE
 001E58 0000                       15150                       BOMB
 001E5A 18D8/9808 D004_            15152                       PEND
 DROP   *,R7
 USING  *,R7
                                   15179                       ¿þþþþþþþþþþþþþþþþþþþþþþþþþþþþþþþþþþþþþþÜ
                                   15180                       Ÿ  PROCESS GOTO NEXT,  GOTO ABORT,,,,  Ÿ
                                   15181                       ¾þþþþþþþþþþþþþþþþþþþþþþþþþþþþþþþþþþþþþþ»
 001E68 50E0 D000/9008_      00000 15182              WGTNEXT  PROC  ,
 DROP   *,R7
 USING  *,R7
 001E82 4110 C7DE            007DE 15224                       LA    R1,CVNEXT          PATCH INSTR ADDR W/NEXT ADDR
 001E86 5010 6020            00020 15225                       ST    R1,DBIA
 001E8A 58E0 7A3E/0DEE       028C0 15226                       ACALL WGO                EXIT VIA GO CODE
 001E90 0000                       15230                       BOMB
 001E92 18D8/9808 D004_            15232                       PEND
 DROP   *,R7
 USING  *,R7
                                   15259
 001EA0 50E0 D000/9008_      00000 15260              WGTABORT PROC  ,
 DROP   *,R7
 USING  *,R7
 001EBA 4110 7A0A/4100_      028C4 15302                       SETMSG 'Command aborted by debugger.'
 001EC2 5000 6044            00044 15306                       ST    R0,DBREG0          SAVE MESSAGE POINTERS
 001EC6 5010 6048            00048 15307                       ST    R1,DBREG1
 001ECA 4110 C7CC            007CC 15308                       LA    R1,CVABTMSG        PATCH INSTR ADDR W/ABORT ADDR
 001ECE 5010 6020            00020 15309                       ST    R1,DBIA
 001ED2 58E0 7A06/0DEE       028C0 15310                       ACALL WGO                EXIT VIA GO CODE
 001ED8 0000                       15314                       BOMB
 001EDA 18D8/9808 D004_            15316                       PEND
 DROP   *,R7
 USING  *,R7
1WBUG     (WBUG2025) (13:00) (15MAR04) ST - set trap                                                                        Page   61
0Current Usings:  (DBDSECT,R6) (*,R7) (CP,R11) (CV,R12)
0Loc    Object Code    Addr1 Addr2  Stmt Lv Lineno    Source Statement           (Hibal 5, Asmedit 3.3)  HLASM R4.0  2004/03/15 13.00
+___    ______ ____    _____ _____  ____ __ ______    ______ _________
0000000                00000 00009 15344              WSTWA    RECORD BEGIN
 000000                            15352  1           WSTNAME    DS    CL8                TRAP NAME, IF SPECIFIED
 000008 00                         15353  1           WSTFLAG    FLAG   ,
 WSTFLAG.WSTNOCHK  80 ONES         15357  1                      FLAG   WSTNOCHK          DO NOT CHECK TRAP ADDR VALIDITY
 000009                00009 00009 15362                       END
-                                  15372              ¿þþþþþþþþþþþþþþþþþþþþþþþþþþþþþþþþþþþþþþþþþþþþþþþþþþþþþþþþþþþþþþþþþþþþþÜ
                                   15373              Ÿ                                                                     Ÿ
                                   15374              Ÿ                                                                     Ÿ
                                   15375              Ÿ  WST - set trap                                                     Ÿ
                                   15376              Ÿ                                                                     Ÿ
                                   15377              Ÿ                                                                     Ÿ
                                   15378              Ÿ                                                                     Ÿ
                                   15379              Ÿ                                                                     Ÿ
                                                      ¾þþþþþþþþþþþþþþþþþþþþþþþþþþþþþþþþþþþþþþþþþþþþþþþþþþþþþþþþþþþþþþþþþþþþþ»
0001EE8 50E0 D000/9008_      00000 15380              WST      XPROC WSTWA
 DROP   *,R7
 USING  *,R7
 USING  WSTWA-(4+36),R8
 001F02 D708 8028 8028 00000 00000 15434                       CLEAR WSTWA
 001F08 5860 796E            02870 15441                       L     R6,=A(DBAREA)
                                   15442                       USING DBDSECT,R6
                                   15444
 001F0C 9102 C4C5/4710_004C5       15445                       IF    ~CVFTEST,BEGIN
 001F14 4110 7B7A/4100_      02A7C 15460  1                      TSEG  'WDEBUG TRAPS are only available for test '
 001F26 4110 7956/4100_      02858 15478  1                      TSEG  'systems.',,CR
 001F38 4110 79E6/4100_      028E8 15496  1                      SETMSG 'Do it anyway'
 001F40 58E0 79F2/0DEE       028F4 15500  1                      VCALL YESREQ
 001F46                            15504                       END
                                   15508                       ¿þþþþþþþþþþþþþþþþþþþþþþþþþþþþþþþþÜ
                                   15509                       Ÿ  CHECK FOR #ROUTINE TYPE TRAP  Ÿ
                                   15510                       ¾þþþþþþþþþþþþþþþþþþþþþþþþþþþþþþþþ»
 001F46 58E0 79F6/0DEE       028F8 15511                       ACALL EVAL#SYM
 001F4C 4780 705C            01F5E 15515                       IF    NZ,BEGIN           IF #ROUTINE, GO SET #ROUTINE TRAP
 001F50 4120 8028            00000 15526  1                      LA    R2,WSTWA
 001F54 58E0 79FA/0DEE       028FC 15527  1                      ACALL WST#SYM
 001F5A 47F0 72CC            021CE 15531  1                      B     WSTEXIT
 001F5E                            15532                       END
                                   15536                       ¿þþþþþþþþþþþþþþþþþþþþÜ
                                   15537                       Ÿ  GET TRAP ADDRESS  Ÿ
                                   15538                       ¾þþþþþþþþþþþþþþþþþþþþ»
 001F5E 58E0 798E/0DEE       02890 15539                       ACALL EVALXPRN           EVALUATE TRAP ADDRESS EXPRESSION
                                   15543                       COMMENT                  RETURNS R1 - ADDRESS,  R15 - CC
 001F64 59F0 7992/4770_      02894 15544                       IF    (R15,EQ,4),BEGIN
 001F6C 4110 7BA3/4100_      02AA5 15561  1                      ABORT 'Trap specification missing.'
 001F78                            15568                       END
 001F78 59F0 7996/4770_      02898 15572                       IF    (R15,EQ,8),BEGIN
 001F80 4110 7A8E/4100_      02990 15589  1                ABORT 'Invalid trap (address) specification, command ignored.'
 001F8C                            15596                       END
                                   15600
 001F8C 5010 D000/41D0_      00000 15601                       XPUSH R1,,
 001F94 4140 8028            00000 15604                       LA    R4,WSTWA
1WBUG     (WBUG2025) (13:00) (15MAR04) ST - set trap                                                                        Page   62
0Current Usings:  (DBDSECT,R6) (*,R7) (WSTWA-(4+36),R8) (CP,R11) (CV,R12)
0Loc    Object Code    Addr1 Addr2  Stmt Lv Lineno    Source Statement           (Hibal 5, Asmedit 3.3)  HLASM R4.0  2004/03/15 13.00
+___    ______ ____    _____ _____  ____ __ ______    ______ _________
0001F98 5810 B08C/1B00_      0008C 15605                       SCAN  WSTPRT             SCAN TRAP OPTIONS
 001FEA 58E0 798A/0DEE       0288C 15637                       SCANCHK ,
 001FF0 4BD0 7AC4/5810_      029C6 15642                       XPOP  R1,,
                                   15645                       ¿þþþþþþþþþþþþþþþþþþþþþþþþþþþþþþþþþþþþþþþþþþþþþþþþþþÜ
                                   15646                       Ÿ  SEE IF TRAP ALREADY EXISTS,  R1 - TRAP ADDRESS  Ÿ
                                   15647                       ¾þþþþþþþþþþþþþþþþþþþþþþþþþþþþþþþþþþþþþþþþþþþþþþþþþþ»
 USING  DBTRAP,R5                  15648                       WITH  (DBTRAP,R5),BEGIN
 001FF8 1211/4780 712E             15662  1                      IF    (R1,NZ),BEGIN      SEE IF TRAP ALREADY EXISTS
 001FFE 4150 6094            00094 15676  2                        LA    R5,DBTRAPS
 002002 4140 0010            00010 15677  2                        LA    R4,USERTC
 002006 1244/4780 711C_            15678  2                        WHILE ((R4,NZ),AND,(R1,NE,DBTPADDR)),BEGIN
 002014 4150 5010            00010 15710  3                          LA    R5,DBTPNEXT
 002018 0640                       15711  3                          BCTR  R4,0
 00201A 47F0 7104            02006 15712  2                        END
 00201E 1244/4780 712E             15717  2                        IF    (R4,NZ),BEGIN
 002024 4110 7A02/4100_      02904 15731  3                          ABORT 'Trap already there, command ignored.'
 002030                            15738  2                        END
 002030                            15742  1                      END
                                   15746  1                      ¿þþþþþþþþþþþþþþþþþþþþþþþþþþþþþþþþþþþþþþþþþþþÜ
                                   15747  1                      Ÿ  IS THERE ROOM FOR ANOTHER TRAP IN TABLE  Ÿ
                                   15748  1                      ¾þþþþþþþþþþþþþþþþþþþþþþþþþþþþþþþþþþþþþþþþþþþ»
 002030 4150 6094            00094 15749  1                      LA    R5,DBTRAPS
 002034 4140 0010            00010 15750  1                      LA    R4,USERTC
 002038 1244/4780 7150_            15751  1                      WHILE ((R4,NZ),AND,(DBTRAP,NE,0)),BEGIN
 002048 4150 5010            00010 15784  2                        LA    R5,DBTPNEXT
 00204C 0640                       15785  2                        BCTR  R4,0
 00204E 47F0 7136            02038 15786  1                      END
 002052 1244/4770 7162             15791  1                      IF    (R4,Z),BEGIN
 002058 4110 7AC6/4100_      029C8 15805  2                        ABORT 'Trap table full. Trap not set.'
 002064                            15812  1                      END
                                   15816  1                      ¿þþþþþþþþþþþþþþþþþþþþþþþþþþþþþþþþþþþþþþþþþÜ
                                   15817  1                      Ÿ  CHECK TRAP ADDRESS, R1 - TRAP ADDRESS  Ÿ
                                   15818  1                      ¾þþþþþþþþþþþþþþþþþþþþþþþþþþþþþþþþþþþþþþþþþ»
 002064 58E0 7A26/0DEE       02928 15819  1                      ACALL CHKSADDR           CHECK ADDRESS (for store)
 00206A 4780 7178            0207A 15823  1                      IF    NZ,BEGIN
 00206E 4110 7BBE/4100_      02AC0 15834  2                        ABORT 'Invalid address, command ignored.'
 00207A                            15841  1                      END
 00207A 9180 8030/4710_00008       15845  1                      IF    ~WSTNOCHK,BEGIN    IF TRAP ADDR CHECK, THEN CHECK
 002082 58E0 799E/0DEE       028A0 15860  2                        ACALL CHKIADDR           CHECK IF INSTRUCTION ADDRESS
 002088 4780 719A            0209C 15864  2                        IF    NZ,BEGIN
 00208C 4110 7BDF/4100_      02AE1 15875  3                          ABORT 'Invalid instruction address, command ignored.'
 002098 47F0 C7DA            007DA 15882  3                          B     CVABORT
 00209C                            15883  2                        END
 00209C 950A 1000      00000       15887  2                        CLI   0(R1),X'0A'        MAY NOT TRAP SVC'S
 0020A0 4770 71AE            020B0 15888  2                        IF    E,BEGIN
 0020A4 4110 7AE4/4100_      029E6 15899  3                  ABORT  'SVC instructions may not be trapped.  Command ignored.'
 0020B0                            15906  2                        END
 0020B0 9544 1000      00000       15910  2                        CLI   0(R1),X'44'        MAY NOT TRAP EX INSTRUCTIONS
 0020B4 4770 71C2            020C4 15911  2                        IF    E,BEGIN
 0020B8 4110 7C0C/4100_      02B0E 15922  3                  ABORT  'EX instructions may not be trapped.  Command ignored.'
 0020C4                            15929  2                        END
 0020C4 5820 7A2A            0292C 15933  2                        L     R2,=A(WYLWBUG)     MAY NOT TRAP WITHIN DEBUG
 0020C8 1912/4750 71E2             15934  2                        IF    (R1,GE,R2),BEGIN
 0020CE 5A20 7A2E            02930 15949  3                          A     R2,=A(DEBUGLEN)
1WBUG     (WBUG2025) (13:00) (15MAR04) ST - set trap                                                                        Page   63
0Current Usings:  (DBTRAP,R5) (DBDSECT,R6) (*,R7) (WSTWA-(4+36),R8) (CP,R11) (CV,R12)
0Loc    Object Code    Addr1 Addr2  Stmt Lv Lineno    Source Statement           (Hibal 5, Asmedit 3.3)  HLASM R4.0  2004/03/15 13.00
+___    ______ ____    _____ _____  ____ __ ______    ______ _________
00020D2 1912/47B0 71E2             15950  3                          IF    (R1,LT,R2),BEGIN
 0020D8 4110 7BDF/4100_      02AE1 15965  4                            ABORT 'Invalid instruction address, command ignored.'
 0020E4                            15972  3                          END
 0020E4                            15976  2                        END
 0020E4                            15980  1                      END
                                   15984  1                      ¿þþþþþþþþþþþþþþþþþþþþþþþÜ
                                   15985  1                      Ÿ  FIND PLACE FOR TRAP  Ÿ
                                   15986  1                      ¾þþþþþþþþþþþþþþþþþþþþþþþ»
 0020E4 4150 6094            00094 15987  1                      LA    R5,DBTRAPS
 0020E8 4140 0010            00010 15988  1                      LA    R4,USERTC
 0020EC 4130 0001            00001 15989  1                      LA    R3,1
 0020F0 1244/4780 720C_            15990  1                      WHILE ((R4,NZ),AND,(DBTRAP,NE,0)),BEGIN
 002100 4150 5010            00010 16023  2                        LA    R5,DBTPNEXT
 002104 4133 0001            00001 16024  2                        LA    R3,1(R3)           R3 - TRAP NUMBER
 002108 0640                       16025  2                        BCTR  R4,0
 00210A 47F0 71EE            020F0 16026  1                      END
                                   16031  1                      ¿þþþþþþþþþþþþþþþþþþþþþþþþþþþþþÜ
                                   16032  1                      Ÿ  GIVE SET TRAP MESSAGE NOW  Ÿ
                                   16033  1                      ¾þþþþþþþþþþþþþþþþþþþþþþþþþþþþþ»
 00210E 1821                       16034  1                      LR    R2,R1              R2, R1 - INSTRUCTION ADDRESS
                                   16035  1                      COMMENT
 002110 4110 7C41/4100_      02B43 16036  1                      TSEG  'Trap '            'Trap n set at (hex) instruction'
 002122 1813/1B00/41F0_            16054  1                      TNUM  (R3)
 002130 4110 7C46/4100_      02B48 16076  1                      TSEG  ' set at ('
 002142 4810 2000/4100_      00000 16094  1                      THEX  LH:@R2,4           ASSUME INSTR LENGTH IS 2
 002154 9540 2000/4750_00000       16118  1                      IF    (@R2,GE,X'40'),BEGIN   IF INSTR LENGTH IS 4
 00215C 4110 7C4F/4100_      02B51 16134  2                        TSEG  ' '
 00216E 4810 2002/4100_      00002 16152  2                        THEX  LH:@R2+2,4
 002180                            16176  1                      END
 002180 95D0 2000/4750_00000       16180  1                      IF    (@R2,GE,X'D0'),BEGIN   IF INSTR LENGTH IS 6
 002188 4110 7C4F/4100_      02B51 16196  2                        TSEG  ' '
 00219A 4810 2004/4100_      00004 16214  2                        THEX  LH:@R2+4,4
 0021AC                            16238  1                      END
 0021AC 4110 7B1A/4100_      02A1C 16242  1                      TSEG  ') instruction.',,CR
 0021BE 1812                       16260  1                      LR    R1,R2               R1 - TRAP ADDRESS
                                   16261  1                      ¿þþþþþþþþþþþþþþþþþþþþþþþþþþþþþþþþÜ
                                   16262  1                      Ÿ  SET TRAP,  R1 - TRAP ADDRESS  Ÿ
                                   16263  1                      ¾þþþþþþþþþþþþþþþþþþþþþþþþþþþþþþþþ»
 0021C0 5010 5000            00000 16264  1                      ST    R1,DBTPADDR        SET ADDRESS
 0021C4 9680 5006      00006       16265  1                      SET   DBTPNORM           SET TYPE: NORMAL
 0021C8 58E0 7A3A/0DEE       0293C 16271  1                      ACALL SETTRAP            SET TRAP OPCODE
 DROP   DBTRAP,R5                  16275                       END   , WITH (DBTRAP,R5)
                                   16283
 0021CE                            16284              WSTEXIT  LABEL ,
 0021CE 47F0 C7DE            007DE 16286                       B     CVNEXT
 0021D2 18D8/9808 D004_            16287                       PEND
 DROP   WSTWA-(4+36),R8
 DROP   *,R7
 USING  *,R7
1WBUG     (WBUG2025) (13:00) (15MAR04) ST - set trap                                                                        Page   64
0Current Usings:  (DBDSECT,R6) (*,R7) (CP,R11) (CV,R12)
0Loc    Object Code    Addr1 Addr2  Stmt Lv Lineno    Source Statement           (Hibal 5, Asmedit 3.3)  HLASM R4.0  2004/03/15 13.00
+___    ______ ____    _____ _____  ____ __ ______    ______ _________
0                                  16320                       ¿þþþþþþþþþþþþþþþþþþþþþþþÜ
                                   16321                       Ÿ  SCAN SET TRAP PARMS  Ÿ
                                   16322                       ¾þþþþþþþþþþþþþþþþþþþþþþþ»
 0021E0 D5D6C3C8C5C3D240_          16323              WSTPRT   SCKW  NOCHECK,WSTNOCK
 002208 4040404040404040_          16338                       SCKW  ,V(SCNINVAL)
-
 002230 50E0 D000/9008_      00000 16354              WSTNOCK  DPROC ,
 DROP   *,R7
 USING  *,R7
 USING  WSTWA,R4                   16397                       USING WSTWA,R4
 00224A 9680 4008      00008       16406                       SET   WSTNOCHK
 00224E 18D8/9808 D004_            16412                       PEND
 DROP   *,R7
 USING  *,R7
 DROP   WSTWA,R4                   16439                       DROP  R4
1WBUG     (WBUG2025) (13:00) (15MAR04) ST - set trap                                                                        Page   65
0Current Usings:  (DBDSECT,R6) (*,R7) (CP,R11) (CV,R12)
0Loc    Object Code    Addr1 Addr2  Stmt Lv Lineno    Source Statement           (Hibal 5, Asmedit 3.3)  HLASM R4.0  2004/03/15 13.00
+___    ______ ____    _____ _____  ____ __ ______    ______ _________
0                                  16447              ¿þþþþþþþþþþþþþþþþþþþþþþþþþþþþþþþþþþþþþþþþþþþþþþþþþþþþþþþþþþþþþþþþþþþþþÜ
                                   16448              Ÿ                                                                     Ÿ
                                   16449              Ÿ                                                                     Ÿ
                                   16450              Ÿ  WST#SYM - set #routine type trap                                   Ÿ
                                   16451              Ÿ                                                                     Ÿ
                                   16452              Ÿ                                                                     Ÿ
                                   16453              Ÿ  on entry:  r15,r0 are trap name                                    Ÿ
                                   16454              Ÿ             r2 is WSTWA                                             Ÿ
                                   16455              Ÿ                                                                     Ÿ
                                   16456              Ÿ                                                                     Ÿ
                                                      ¾þþþþþþþþþþþþþþþþþþþþþþþþþþþþþþþþþþþþþþþþþþþþþþþþþþþþþþþþþþþþþþþþþþþþþ»
000225C 50E0 D000/9008_      00000 16457              WST#SYM  PROC  ,
 DROP   *,R7
 USING  *,R7
 USING  WSTWA,R2                   16499                       USING WSTWA,R2
 002276 90F0 2000            00000 16508                       STM   R15,R0,WSTNAME     SAVE ROUTINE NAME
                                   16509                       ¿þþþþþþþþþþþþþþþþþþþþþþþþþþþþþÜ
                                   16510                       Ÿ  CHECK FOR DUPLICATE TRAPS  Ÿ
                                   16511                       ¾þþþþþþþþþþþþþþþþþþþþþþþþþþþþþ»
 USING  DBTRAP,R5                  16512                       WITH  (DBTRAP,R5),BEGIN
 00227A 4150 6094            00094 16526  1                      LA    R5,DBTRAPS
 00227E 4140 0010            00010 16527  1                      LA    R4,USERTC
 002282 1244/4780 7026_            16528  1                      WHILE ((R4,NZ),AND,(' CLC DBTPNAME(8),WSTNAME',NE)),BEGIN
 002292 4150 5010            00010 16556  2                        LA    R5,DBTPNEXT
 002296 0640                       16557  2                        BCTR  R4,0
 002298 47F0 700C            02282 16558  1                      END
 00229C 1244/4780 7038             16563  1                      IF    (R4,NZ),BEGIN
 0022A2 4110 768E/4100_      02904 16577  2                        ABORT 'Trap already there, command ignored.'
 0022AE                            16584  1                      END
                                   16588  1                      ¿þþþþþþþþþþþþþþþþþþþþþþþÜ
                                   16589  1                      Ÿ  FIND PLACE FOR TRAP  Ÿ
                                   16590  1                      ¾þþþþþþþþþþþþþþþþþþþþþþþ»
 0022AE 4150 6094            00094 16591  1                      LA    R5,DBTRAPS
 0022B2 4140 0010            00010 16592  1                      LA    R4,USERTC
 0022B6 4130 0001            00001 16593  1                      LA    R3,1
 0022BA 1244/4780 7062_            16594  1                      WHILE ((R4,NZ),AND,(DBTRAP,NE,0)),BEGIN
 0022CA 4150 5010            00010 16627  2                        LA    R5,DBTPNEXT
 0022CE 4133 0001            00001 16628  2                        LA    R3,1(R3)           R3 - TRAP NUMBER
 0022D2 0640                       16629  2                        BCTR  R4,0
 0022D4 47F0 7044            022BA 16630  1                      END
 0022D8 1244/4770 7074             16635  1                      IF    (R4,Z),BEGIN
 0022DE 4110 7752/4100_      029C8 16649  2                        ABORT 'Trap table full. Trap not set.'
 0022EA                            16656  1                      END
                                   16660  1                      ¿þþþþþþþþþþþþþþþþþþþþþþþþþþþþþþÜ
                                   16661  1                      Ÿ  SET TRAP, R3 - TRAP NUMBER  Ÿ
                                   16662  1                      ¾þþþþþþþþþþþþþþþþþþþþþþþþþþþþþþ»
 0022EA 9680 5006      00006       16663  1                      SET   DBTPNORM            SET TRAP TYPE: NORMAL
 0022EE D207 5008 2000 00008 00000 16669  1                      MVC   DBTPNAME(8),WSTNAME MOVE IN TRAP NAME
1WBUG     (WBUG2025) (13:00) (15MAR04) ST - set trap                                                                        Page   66
0Current Usings:  (WSTWA,R2) (DBTRAP,R5) (DBDSECT,R6) (*,R7) (CP,R11) (CV,R12)
0Loc    Object Code    Addr1 Addr2  Stmt Lv Lineno    Source Statement           (Hibal 5, Asmedit 3.3)  HLASM R4.0  2004/03/15 13.00
+___    ______ ____    _____ _____  ____ __ ______    ______ _________
0                                  16670  1                      ¿þþþþþþþþþþþþÜ
                                   16671  1                      Ÿ  TRAP SET  Ÿ
                                   16672  1                      ¾þþþþþþþþþþþþ»
 0022F4 4110 78CD/4100_      02B43 16673  1                      TSEG  'Trap '            'Trap n set at <xxx> routine. '
 002306 1813/1B00/41F0_            16691  1                      TNUM  (R3)
 002314 4110 75EA/4100_      02860 16713  1                      TSEG  ' set at '
 002326 4110 2000/4100_      00000 16731  1                      TSEG  WSTNAME,8,TB
 002338 4110 75F2/4100_      02868 16761  1                      TSEG  'routine.',,CR
 DROP   DBTRAP,R5                  16779                       END   , WITH (DBTRAP,R5)
                                   16787
 00234A 18D8/9808 D004_            16788                       PEND  ,
 DROP   *,R7
 USING  *,R7
 DROP   WSTWA,R2                   16815                       DROP  R2
1WBUG     (WBUG2025) (13:00) (15MAR04) STS - show traps set                                                                 Page   67
0Current Usings:  (DBDSECT,R6) (*,R7) (CP,R11) (CV,R12)
0Loc    Object Code    Addr1 Addr2  Stmt Lv Lineno    Source Statement           (Hibal 5, Asmedit 3.3)  HLASM R4.0  2004/03/15 13.00
+___    ______ ____    _____ _____  ____ __ ______    ______ _________
0                                  16823              ¿þþþþþþþþþþþþþþþþþþþþþþþþþþþþþþþþþþþþþþþþþþþþþþþþþþþþþþþþþþþþþþþþþþþþþÜ
                                   16824              Ÿ                                                                     Ÿ
                                   16825              Ÿ                                                                     Ÿ
                                   16826              Ÿ  WSTS - show WYLBUR traps set                                       Ÿ
                                   16827              Ÿ                                                                     Ÿ
                                   16828              Ÿ                                                                     Ÿ
                                   16829              Ÿ    note: to see format of output, do a couple of WSTS commands      Ÿ
                                   16830              Ÿ                                                                     Ÿ
                                   16831              Ÿ                                                                     Ÿ
                                                      ¾þþþþþþþþþþþþþþþþþþþþþþþþþþþþþþþþþþþþþþþþþþþþþþþþþþþþþþþþþþþþþþþþþþþþþ»
0002358 50E0 D000/9008_      00000 16832              WSTS     XPROC ,
 DROP   *,R7
 USING  *,R7
 002372 9120 B3BE/4710_003BE       16875                       IF    ~CPSFSPR,' VCALL NOTVALID'
 002380 5860 74FE            02870 16899                       L     R6,=A(DBAREA)
                                   16900                       USING DBDSECT,R6
                                   16902
 002384 5810 B08C/1B00_      0008C 16903                       SCAN  WSTSPRT
 0023D6 58E0 751A/0DEE       0288C 16935                       SCANCHK ,
                                   16940
 0023DC 4120 6094            00094 16941                       LA    R2,DBTRAPS         SEE IF THERE ARE TRAPS
 0023E0 4130 0100            00100 16942                       LA    R3,USERTC*(L'DBTRAP)
 0023E4 1B55                       16943                       SR    R5,R5
 0023E6 0F24                       16944                       CLCL  R2,R4
 0023E8 4770 7090            02402 16945                       IF    E,BEGIN
 0023EC 4110 77E0/4100_      02B52 16956  1                      TSEG  'No Traps set.'    IF NO TRAPS, SAY SO, EXIT
 0023FE 47F0 C7DE            007DE 16974  1                      B     CVNEXT
 002402                            16975                       END
                                   16979                        ¿þþþþþþþþþþþþþþþþþþþþþþþþÜ
                                   16980                        Ÿ  IF TRAPS, PRINT THEM  Ÿ
                                   16981                        ¾þþþþþþþþþþþþþþþþþþþþþþþþ»
 USING  DBTRAP,R5                  16982                       WITH  (DBTRAP,R5),BEGIN
 002402 4150 6094            00094 16996  1                      LA    R5,DBTRAPS
 002406 4140 0010            00010 16997  1                      LA    R4,USERTC
 00240A 4130 0001            00001 16998  1                      LA    R3,1
 00240E 1244/4780 7180             16999  1                      WHILE (R4,NZ),BEGIN      LOOP THRU ALL TRAPS
 002414 D50F 74AE 5000_02820 00000 17015  2                        IF    (DBTRAP,NE,0),BEGIN     IF TRAP, PRINT TRAP INFO
 00241E 4110 77DF/4100_      02B51 17033  3                          TSEG  ' '
 002430 5930 75D6/4730_      02948 17051  3                          IF    (R3,LE,9),BEGIN
 002438 4110 77DF/4100_      02B51 17068  4                            TSEG  ' '
 00244A                            17086  3                          END
 00244A 1813/1B00/41F0_            17090  3                          TNUM  (R3)
 002458 4110 76B8/4100_      02A2A 17112  3                          TSEG  ' ('
 00246A D501 74AE 5004_02820 00004 17130  3                          IF    (DBTPOPCD,NE,0),BEGIN
 002474 4810 5004/4100_      00004 17148  4                            THEX  LH:DBTPOPCD,4
 002486                            17172  3                          END
 002486 7118/47F0 712A 02486 02472 17176  3                          ELSE  BEGIN ,
 00248A 4110 75DA/4100_      0294C 17187  4                            TSEG  '----'
 00249C                            17205  3                          END
 00249C 4110 77ED/4100_      02B5F 17209  3                          TSEG  ') at '
 0024AE D507 74AE 5008_02820 00008 17227  3                          IF    (DBTPNAME,EQ,0),BEGIN
 0024B8 5810 5000            00000 17245  4                            L     R1,DBTPADDR
 0024BC 58E0 75DE/0DEE       02950 17246  4                            ACALL TSEGADDR
1WBUG     (WBUG2025) (13:00) (15MAR04) STS - show traps set                                                                 Page   68
0Current Usings:  (DBTRAP,R5) (DBDSECT,R6) (*,R7) (CP,R11) (CV,R12)
0Loc    Object Code    Addr1 Addr2  Stmt Lv Lineno    Source Statement           (Hibal 5, Asmedit 3.3)  HLASM R4.0  2004/03/15 13.00
+___    ______ ____    _____ _____  ____ __ ______    ______ _________
00024C2                            17250  3                          END
 0024C2 7154/47F0 7166 024C2 024B6 17254  3                          ELSE  BEGIN ,
 0024C6 4110 5008/4100_      00008 17265  4                            TSEG  DBTPNAME,8,TB
 0024D8                            17295  3                          END
 0024D8 1B00/41F0 B050_            17299  3                          TCR
 0024E4                            17324  2                        END   , PRINT TRAP INFO
 0024E4 4150 5010            00010 17328  2                        LA    R5,DBTPNEXT        KEEP LOOPING
 0024E8 0640                       17329  2                        BCTR  R4,0
 0024EA 4133 0001            00001 17330  2                        LA    R3,1(R3)
 0024EE 47F0 709C            0240E 17331  1                      END   , WHILE LOOP
 DROP   DBTRAP,R5                  17336                       END   , WITH (DBTRAP,R5)
 0024F2 47F0 C7DE            007DE 17344                       B     CVNEXT
 0024F6 18D8/9808 D004_            17345                       PEND  ,
 DROP   *,R7
 USING  *,R7
-
-                                  17373                       ¿þþþþþþþþþþþþþþþþþþþþþþþþþþþþÜ
                                   17374                       Ÿ  SHOW TRAPS PRINT OPTIONS  Ÿ
                                   17375                       ¾þþþþþþþþþþþþþþþþþþþþþþþþþþþþ»
 002504 4040404040404040_          17376              WSTSPRT  SCKW  ,V(LTNPSH),PUSH
 00252C 4040404040404040_          17391                       SCKW  ,V(QUIETPSH),PUSH
 002554 4040404040404040_          17406                       SCKW  ,V(COLLPSH),PUSH
 00257C 4040404040404040_          17421                       SCKW  ,V(SCNINVAL)
1WBUG     (WBUG2025) (13:00) (15MAR04) CT - clear trap                                                                      Page   69
0Current Usings:  (DBDSECT,R6) (*,R7) (CP,R11) (CV,R12)
0Loc    Object Code    Addr1 Addr2  Stmt Lv Lineno    Source Statement           (Hibal 5, Asmedit 3.3)  HLASM R4.0  2004/03/15 13.00
+___    ______ ____    _____ _____  ____ __ ______    ______ _________
0000000                00000 00008 17437              WCTWA    RECORD BEGIN
 000000                            17445  1           WCTNAME    DS    CL8                 TRAP NAME, IF ANY
 000008                00008 00008 17446                       END
-                                  17456              ¿þþþþþþþþþþþþþþþþþþþþþþþþþþþþþþþþþþþþþþþþþþþþþþþþþþþþþþþþþþþþþþþþþþþþþÜ
                                   17457              Ÿ                                                                     Ÿ
                                   17458              Ÿ                                                                     Ÿ
                                   17459              Ÿ   CT - clear a trap                                                 Ÿ
                                   17460              Ÿ                                                                     Ÿ
                                   17461              Ÿ                                                                     Ÿ
                                   17462              Ÿ                                                                     Ÿ
                                   17463              Ÿ$ IF TRACE TRAP AND TRAP AT SAME LOC, CLR TRAP CLEARS BOTH, OH NO!   Ÿ
                                   17464              Ÿ$                                                                    Ÿ
                                                      ¾þþþþþþþþþþþþþþþþþþþþþþþþþþþþþþþþþþþþþþþþþþþþþþþþþþþþþþþþþþþþþþþþþþþþþ»
00025A4 50E0 D000/9008_      00000 17465              WCT      XPROC WCTWA
 DROP   *,R7
 USING  *,R7
 USING  WCTWA-(4+36),R8
 USING  DBTRAP,R5                  17519                       WITH  (DBTRAP,R5),BEGIN
                                   17533  1
 0025BE 58E0 733A/0DEE       028F8 17534  1                      ACALL EVAL#SYM           SCAN FOR #ROUTINE
 0025C4 4780 7018            025D6 17538  1                      IF    NZ,BEGIN           IF #ROUTINE, CLEAR IT
 0025C8 4120 8028            00000 17549  2                        LA    R2,WCTWA
 0025CC 58E0 7396/0DEE       02954 17550  2                        ACALL WCT#SYM
 0025D2 47F0 70E4            026A2 17554  2                        B     WCTEXIT
 0025D6                            17555  1                      END
                                   17559  1
 0025D6 58E0 72D2/0DEE       02890 17560  1                      ACALL EVALXPRN           SCAN TRAP EXPRESSION
 0025DC 59F0 72D6/4770_      02894 17564  1                      IF    (R15,EQ,4),BEGIN
 0025E4 4110 74E7/4100_      02AA5 17581  2                        ABORT 'Trap specification missing.'
 0025F0                            17588  1                      END
 0025F0 59F0 72DA/4770_      02898 17592  1                      IF    (R15,EQ,8),BEGIN
 0025F8 4110 75A6/4100_      02B64 17609  2                        ABORT 'Invalid trap specification.'
 002604                            17616  1                      END
                                   17620  1
 002604 5910 739A/4750_      02958 17621  1                      IF    ((R1,GE,1),AND,(R1,LE,16)),BEGIN    IF TRAP #, CLEAR
 002614 4150 6094            00094 17654  2                        LA    R5,DBTRAPS
 002618 5B10 73A2            02960 17655  2                        S     R1,=F'1'
 00261C 4C10 746E            02A2C 17656  2                        MH    R1,=AL2(L'DBTRAP)
 002620 1A51                       17657  2                        AR    R5,R1
 002622 D503 7262 5000_02820 00000 17658  2                        IF    (DBTPADDR,NE,0),BEGIN               CLEAR NORMAL TRAP
 00262C 5810 5000            00000 17676  3                          L     R1,DBTPADDR
 002630 4800 5004            00004 17677  3                          LH    R0,DBTPOPCD
 002634 4001 0000            00000 17678  3                          STH   R0,0(R1)
 002638 D70F 5000 5000 00000 00000 17679  3                          CLEAR DBTRAP
 00263E 47F0 70E4            026A2 17686  3                          B     WCTEXIT
 002642                            17687  2                        END
 002642 D507 7262 5008_02820 00008 17691  2                        IF    (DBTPNAME,NE,0),BEGIN               IF #ROUTINE,
 00264C 98F0 5008            00008 17709  3                          LM    R15,R0,DBTPNAME
 002650 58E0 7396/0DEE       02954 17710  3                          ACALL WCT#SYM
 002656 47F0 70E4            026A2 17714  3                          B     WCTEXIT
 00265A                            17715  2                        END
1WBUG     (WBUG2025) (13:00) (15MAR04) CT - clear trap                                                                      Page   70
0Current Usings:  (DBTRAP,R5) (DBDSECT,R6) (*,R7) (WCTWA-(4+36),R8) (CP,R11) (CV,R12)
0Loc    Object Code    Addr1 Addr2  Stmt Lv Lineno    Source Statement           (Hibal 5, Asmedit 3.3)  HLASM R4.0  2004/03/15 13.00
+___    ______ ____    _____ _____  ____ __ ______    ______ _________
000265A                            17719  1                      END
                                   17723  1
 00265A                            17724  1                      BEGIN ,                           IF ADDR SPECIFIED
 00265A 4150 6094            00094 17728  2                        LA    R5,DBTRAPS
 00265E 4140 0010            00010 17729  2                        LA    R4,USERTC
 002662 1244/4780 70BC_            17730  2                        WHILE ((R4,NZ),AND,(R1,NE,DBTPADDR)),BEGIN
 002670 4150 5010            00010 17762  3                          LA    R5,DBTPNEXT
 002674 0640                       17763  3                          BCTR  R4,0
 002676 47F0 70A4            02662 17764  2                        END
 00267A 1244/4770 70CE             17769  2                        IF    (R4,Z),BEGIN
 002680 4110 75C1/4100_      02B7F 17783  3                          ABORT 'No such trap found.'
 00268C                            17790  2                        END
 00268C 5810 5000            00000 17794  2                        L     R1,DBTPADDR
 002690 4800 5004            00004 17795  2                        LH    R0,DBTPOPCD
 002694 4001 0000            00000 17796  2                        STH   R0,0(R1)
 002698 D70F 5000 5000 00000 00000 17797  2                        CLEAR DBTRAP
 00269E 47F0 70E4            026A2 17804  2                        B     WCTEXIT
 0026A2                            17805  1                      END
 DROP   DBTRAP,R5                  17809                       END   , WITH (DBTRAP,R5)
                                   17817
 0026A2                            17818              WCTEXIT  LABEL ,
 0026A2 4110 75D4/4100_      02B92 17820                       TSEG  'Trap cleared.',,CR
 0026B4 47F0 C7DE            007DE 17838                       B     CVNEXT
 0026B8 18D8/9808 D004_            17839                       PEND  ,
 DROP   WCTWA-(4+36),R8
 DROP   *,R7
 USING  *,R7
1WBUG     (WBUG2025) (13:00) (15MAR04) CT - clear trap                                                                      Page   71
0Current Usings:  (DBDSECT,R6) (*,R7) (CP,R11) (CV,R12)
0Loc    Object Code    Addr1 Addr2  Stmt Lv Lineno    Source Statement           (Hibal 5, Asmedit 3.3)  HLASM R4.0  2004/03/15 13.00
+___    ______ ____    _____ _____  ____ __ ______    ______ _________
0                                  17872              ¿þþþþþþþþþþþþþþþþþþþþþþþþþþþþþþþþþþþþþþþþþþþþþþþþþþþþþþþþþþþþþþþþþþþþþÜ
                                   17873              Ÿ                                                                     Ÿ
                                   17874              Ÿ                                                                     Ÿ
                                   17875              Ÿ   WCT#SYM - clear a #routine trap                                   Ÿ
                                   17876              Ÿ                                                                     Ÿ
                                   17877              Ÿ                                                                     Ÿ
                                   17878              Ÿ   on entry - r15,r0  are trap name                                  Ÿ
                                   17879              Ÿ              r2 is WCTWA                                            Ÿ
                                   17880              Ÿ                                                                     Ÿ
                                   17881              Ÿ                                                                     Ÿ
                                                      ¾þþþþþþþþþþþþþþþþþþþþþþþþþþþþþþþþþþþþþþþþþþþþþþþþþþþþþþþþþþþþþþþþþþþþþ»
00026C6 50E0 D000/9008_      00000 17882              WCT#SYM  PROC  ,
 DROP   *,R7
 USING  *,R7
 USING  WCTWA,R2                   17924                       USING WCTWA,R2
 0026E0 90F0 2000            00000 17933                       STM   R15,R0,WCTNAME     SAVE ROUTINE NAME
 USING  DBTRAP,R5                  17934                       WITH  (DBTRAP,R5),BEGIN
                                   17948  1
 0026E4 4150 6094            00094 17949  1                      LA    R5,DBTRAPS         FIND TRAP
 0026E8 4140 0010            00010 17950  1                      LA    R4,USERTC
 0026EC 1244/4780 7026_            17951  1                      WHILE ((R4,NZ),AND,(' CLC DBTPNAME(8),WCTNAME ',NE)),BEGIN
 0026FC 4150 5010            00010 17979  2                        LA    R5,DBTPNEXT
 002700 0640                       17980  2                        BCTR  R4,0
 002702 47F0 700C            026EC 17981  1                      END
 002706 1244/4770 7038             17986  1                      IF    (R4,Z),BEGIN
 00270C 4110 749F/4100_      02B7F 18000  2                        ABORT 'No such trap found.'
 002718                            18007  1                      END
 002718 D503 7140 5000_02820 00000 18011  1                      IF    (DBTPADDR,NE,0),BEGIN      CLEAR TRAP
 002722 5810 5000            00000 18029  2                        L     R1,DBTPADDR
 002726 4800 5004            00004 18030  2                        LH    R0,DBTPOPCD
 00272A 4001 0000            00000 18031  2                        STH   R0,0(R1)
 00272E D70F 5000 5000 00000 00000 18032  2                        CLEAR DBTRAP
 002734                            18039  1                      END
 002734 D507 7140 5008_02820 00008 18043  1                      IF    (DBTPNAME,NE,0),BEGIN
 00273E D70F 5000 5000 00000 00000 18061  2                        CLEAR DBTRAP
 002744                            18068  1                      END
 DROP   DBTRAP,R5                  18072                       END   , WITH (DBTRAP,R5)
                                   18080
 002744 18D8/9808 D004_            18081                       PEND  ,
 DROP   *,R7
 USING  *,R7
 DROP   WCTWA,R2                   18108                       DROP  R2
1WBUG     (WBUG2025) (13:00) (15MAR04) CTS - clear all traps set                                                            Page   72
0Current Usings:  (DBDSECT,R6) (*,R7) (CP,R11) (CV,R12)
0Loc    Object Code    Addr1 Addr2  Stmt Lv Lineno    Source Statement           (Hibal 5, Asmedit 3.3)  HLASM R4.0  2004/03/15 13.00
+___    ______ ____    _____ _____  ____ __ ______    ______ _________
0                                  18116              ¿þþþþþþþþþþþþþþþþþþþþþþþþþþþþþþþþþþþþþþþþþþþþþþþþþþþþþþþþþþþþþþþþþþþþþÜ
                                   18117              Ÿ                                                                     Ÿ
                                   18118              Ÿ                                                                     Ÿ
                                   18119              Ÿ  WCTS - clear all traps set                                         Ÿ
                                   18120              Ÿ                                                                     Ÿ
                                   18121              Ÿ                                                                     Ÿ
                                   18122              Ÿ                                                                     Ÿ
                                   18123              Ÿ                                                                     Ÿ
                                                      ¾þþþþþþþþþþþþþþþþþþþþþþþþþþþþþþþþþþþþþþþþþþþþþþþþþþþþþþþþþþþþþþþþþþþþþ»
0002752 50E0 D000/9008_      00000 18124              WCTS     XPROC ,
 DROP   *,R7
 USING  *,R7
 00276C 9120 B3BE/4710_003BE       18167                       IF    ~CPSFSPR,' VCALL NOTVALID'
 00277A 5860 7104            02870 18191                       L     R6,=A(DBAREA)
                                   18192                       USING DBDSECT,R6
                                   18194
 00277E 58E0 71F8/0DEE       02964 18195                       ACALL CLRTRAPS           CLEAR USER TRAPS
 002784 9140 6009/4710_00009       18199                       IF    ~DBTRACE,BEGIN     IF NOT TRACING CLEAR ALL TRAPS
 00278C 58E0 71FC/0DEE       02968 18214  1                      ACALL CLRALL                BOTH USER AND TRACE TRAPS
 002792                            18218                       END
                                   18222
 002792 47F0 C7DE            007DE 18223                       B     CVNEXT
 002796 18D8/9808 D004_            18224                       PEND
 DROP   *,R7
 USING  *,R7
1WBUG     (WBUG2025) (13:00) (15MAR04) CTS - clear all traps set                                                            Page   73
0Current Usings:  (DBDSECT,R6) (*,R7) (CP,R11) (CV,R12)
0Loc    Object Code    Addr1 Addr2  Stmt Lv Lineno    Source Statement           (Hibal 5, Asmedit 3.3)  HLASM R4.0  2004/03/15 13.00
+___    ______ ____    _____ _____  ____ __ ______    ______ _________
0                                  18252              ¿þþþþþþþþþþþþþþþþþþþþþþþþþþþþþþþþþþþþþþþþþþþþþþþþþþþþþþþþþþþþþþþþþþþþþÜ
                                   18253              Ÿ                                                                     Ÿ
                                   18254              Ÿ                                                                     Ÿ
                                   18255              Ÿ  CLRTRAPS - clear all user traps                                    Ÿ
                                   18256              Ÿ                                                                     Ÿ
                                   18257              Ÿ                                                                     Ÿ
                                   18258              Ÿ                                                                     Ÿ
                                                      ¾þþþþþþþþþþþþþþþþþþþþþþþþþþþþþþþþþþþþþþþþþþþþþþþþþþþþþþþþþþþþþþþþþþþþþ»
00027A4 50E0 D000/9008_      00000 18259              CLRTRAPS PROC  ,
 DROP   *,R7
 USING  *,R7
 0027BE 58E0 71AE/0DEE       0296C 18301                       ACALL TRAPSOFF           TURN OFF TRAPS,
 0027C4 4120 6094            00094 18305                       LA    R2,DBTRAPS         CLEAR USER TRAP ENTRIES
 0027C8 4130 0100            00100 18306                       LA    R3,USERTC*(L'DBTRAP)
 0027CC 1B55                       18307                       SR    R5,R5
 0027CE 0E24                       18308                       MVCL  R2,R4
 0027D0 58E0 71B2/0DEE       02970 18309                       ACALL TRAPSON            TURN ON ANY REMAINING TRACE TRAPS
 0027D6 18D8/9808 D004_            18313                       PEND  ,
 DROP   *,R7
 USING  *,R7
1WBUG     (WBUG2025) (13:00) (15MAR04) CTS - clear all traps set                                                            Page   74
0Current Usings:  (DBDSECT,R6) (*,R7) (CP,R11) (CV,R12)
0Loc    Object Code    Addr1 Addr2  Stmt Lv Lineno    Source Statement           (Hibal 5, Asmedit 3.3)  HLASM R4.0  2004/03/15 13.00
+___    ______ ____    _____ _____  ____ __ ______    ______ _________
0                                  18341              ¿þþþþþþþþþþþþþþþþþþþþþþþþþþþþþþþþþþþþþþþþþþþþþþþþþþþþþþþþþþþþþþþþþþþþþÜ
                                   18342              Ÿ                                                                     Ÿ
                                   18343              Ÿ                                                                     Ÿ
                                   18344              Ÿ  CLRALL - clear ALL traps, both user and trace                      Ÿ
                                   18345              Ÿ                                                                     Ÿ
                                   18346              Ÿ                                                                     Ÿ
                                   18347              Ÿ                                                                     Ÿ
                                                      ¾þþþþþþþþþþþþþþþþþþþþþþþþþþþþþþþþþþþþþþþþþþþþþþþþþþþþþþþþþþþþþþþþþþþþþ»
00027E4 50E0 D000/9008_      00000 18348              CLRALL   PROC  ,
 DROP   *,R7
 USING  *,R7
 0027FE 58E0 716E/0DEE       0296C 18390                       ACALL TRAPSOFF           TURN OFF TRAPS,
 002804 4120 6094            00094 18394                       LA    R2,DBTRAPS         CLEAR USER AND TRACE TRAPS
 002808 4130 0240            00240 18395                       LA    R3,(USERTC+SPECTC)*(L'DBTRAP)
 00280C 1B55                       18396                       SR    R5,R5
 00280E 0E24                       18397                       MVCL  R2,R4
 002810 18D8/9808 D004_            18398                       PEND  ,
 DROP   *,R7
 USING  *,R7
                                   18425
                                   18426                       QLTORG
1WBUG     (WBUG2025) (13:00) (15MAR04) SC - show core                                                                       Page   75
0Current Usings:  (DBDSECT,R6) (*,R7) (CP,R11) (CV,R12)
0Loc    Object Code    Addr1 Addr2  Stmt Lv Lineno    Source Statement           (Hibal 5, Asmedit 3.3)  HLASM R4.0  2004/03/15 13.00
+___    ______ ____    _____ _____  ____ __ ______    ______ _________
0                                  18512              ¿þþþþþþþþþþþþþþþþþþþþþþþþþþþþþþþþþþþþþþþþþþþþþþþþþþþþþþþþþþþþþþþþþþþþþÜ
                                   18513              Ÿ                                                                     Ÿ
                                   18514              Ÿ                                                                     Ÿ
                                   18515              Ÿ  WSC - show WYLBUR memory                                           Ÿ
                                   18516              Ÿ                                                                     Ÿ
                                   18517              Ÿ                                                                     Ÿ
                                   18518              Ÿ                                                                     Ÿ
                                                      ¾þþþþþþþþþþþþþþþþþþþþþþþþþþþþþþþþþþþþþþþþþþþþþþþþþþþþþþþþþþþþþþþþþþþþþ»
0002BA0 50E0 D000/9008_      00000 18519              WSC2     XPROC ,
 DROP   *,R7
 USING  *,R7
 002BBA 9120 B3BE/4710_003BE       18562                       IF    ~CPSFSPR,' VCALL NOTVALID'
 002BC8 5860 7AC2            0367C 18586                       L     R6,=A(DBAREA)
                                   18587                       USING DBDSECT,R6
                                   18589
 002BCC 58E0 7AC6/0DEE       03680 18590                       ACALL EVALXPRN           EVALUATE ADDRESS EXPRESSION
 002BD2 59F0 7ACA/4770_      03684 18594                       IF    (R15,EQ,4),BEGIN
 002BDA 4110 7BE8/4100_      037A2 18611  1                      ABORT 'Missing address expression.'
 002BE6                            18618                       END
 002BE6 59F0 7ACE/4770_      03688 18622                       IF    (R15,EQ,8),BEGIN
 002BEE 4110 7C03/4100_      037BD 18639  1                      ABORT 'Invalid address expression.'
 002BFA                            18646                       END
 002BFA 1821                       18650                       LR    R2,R1              R2 - ADDR TO START SHOWING
 002BFC 1841                       18651                       LR    R4,R1              R4 - ADDR TO START SHOWING
                                   18652
 002BFE 58E0 7AC6/0DEE       03680 18653                       ACALL EVALXPRN           EVALUATE LENGTH EXPRESSION
 002C04 59F0 7ACA/4770_      03684 18657                       IF    (R15,EQ,4),' LA R1,64 '     DEFAULT LENGTH IS 64
 002C10 59F0 7ACE/4770_      03688 18680                       IF    (R15,EQ,8),BEGIN
 002C18 4110 7B4E/4100_      03708 18697  1                      ABORT 'Invalid length expression.'
 002C24                            18704                       END
 002C24 1831                       18708                       LR    R3,R1              R3 - LENGTH TO DISPLAY
                                   18709              *
                                   18710              *$ CHECK FOR BREAK AS WELL AS DEBUGGER BELOW, OR ALWAYS SYNCHNOUS
 002C26 D503 C1C8 600C_001C8 0000C 18711                       IF    (CVCURJCB,EQ,DBERJCB),BEGIN    IF DEBUGGER,
 002C30 1812                       18729  1                      LR    R1,R2                          WE SHOW DEBUGEE CORE
 002C32 58E0 7AD2/0DEE       0368C 18730  1                      ACALL RELOC                          R2 - RELOCATED ADDR
 002C38 1821                       18734  1                      LR    R2,R1
 002C3A                            18735                       END
                                   18739
 002C3A D703 BD60 BD60 00D60 00D60 18740                       CLEAR CPWK1               Reset ASCII translate flag
 002C40 5810 B08C/1B00_      0008C 18747                       SCAN  WSCPRT
 002C92 58E0 7ADE/0DEE       03698 18779                       SCANCHK ,
                                   18784
 002C98 1812                       18785                       LR    R1,R2              NOW R1,R0 - ADDR, LEN TO SHOW
 002C9A 1803                       18786                       LR    R0,R3                    R15 - ADDR TO PRINT
 002C9C 18F4                       18787                       LR    R15,R4
 002C9E 58E0 7AE2/0DEE       0369C 18788                       ACALL DISPCORE           DISPLAY MEMORY
 002CA4 47F0 C7DE            007DE 18792                       B     CVNEXT
 002CA8 18D8/9808 D004_            18793                       PEND  ,
 DROP   *,R7
 USING  *,R7
1WBUG     (WBUG2025) (13:00) (15MAR04) SC - show core                                                                       Page   76
0Current Usings:  (DBDSECT,R6) (*,R7) (CP,R11) (CV,R12)
0Loc    Object Code    Addr1 Addr2  Stmt Lv Lineno    Source Statement           (Hibal 5, Asmedit 3.3)  HLASM R4.0  2004/03/15 13.00
+___    ______ ____    _____ _____  ____ __ ______    ______ _________
0
-                                  18821                       ¿þþþþþþþþþþþþþþþþþþþþþþþþþþþÜ
                                   18822                       Ÿ  SHOW CORE PRINT OPTIONS  Ÿ
                                   18823                       ¾þþþþþþþþþþþþþþþþþþþþþþþþþþþ»
 002CB8 C1E2C3C9C9404040_          18824              WSCPRT   SCKW  ASCII,WSCASCII,A
 002CE0 4040404040404040_          18839                       SCKW  ,V(LTNPSH),PUSH
 002D08 4040404040404040_          18854                       SCKW  ,V(QUIETPSH),PUSH
 002D30 4040404040404040_          18869                       SCKW  ,V(COLLPSH),PUSH
 002D58 4040404040404040_          18884                       SCKW  ,V(SCNINVAL)
                                   18899
 002D80 50E0 D000/9008_      00000 18900              WSCASCII PROC  ,                   Set ASCII translate flag
 DROP   *,R7
 USING  *,R7
 002D9A 92FF BD60      00D60       18942                       MVI   CPWK1,X'FF'
 002D9E 18D8/9808 D004_            18943                       PEND  ,
 DROP   *,R7
 USING  *,R7
1WBUG     (WBUG2025) (13:00) (15MAR04) DISASM - disassemble memory                                                          Page   77
0Current Usings:  (DBDSECT,R6) (*,R7) (CP,R11) (CV,R12)
0Loc    Object Code    Addr1 Addr2  Stmt Lv Lineno    Source Statement           (Hibal 5, Asmedit 3.3)  HLASM R4.0  2004/03/15 13.00
+___    ______ ____    _____ _____  ____ __ ______    ______ _________
0                                  18971              ¿þþþþþþþþþþþþþþþþþþþþþþþþþþþþþþþþþþþþþþþþþþþþþþþþþþþþþþþþþþþþþþþþþþþþþÜ
                                   18972              Ÿ                                                                     Ÿ
                                   18973              Ÿ                                                                     Ÿ
                                   18974              Ÿ   DISASM - disasemble memory into 370 instructions                  Ÿ
                                   18975              Ÿ                                                                     Ÿ
                                   18976              Ÿ                                                                     Ÿ
                                   18977              Ÿ                                                                     Ÿ
                                   18978              Ÿ                                                                     Ÿ
                                                      ¾þþþþþþþþþþþþþþþþþþþþþþþþþþþþþþþþþþþþþþþþþþþþþþþþþþþþþþþþþþþþþþþþþþþþþ»
0002DAC 50E0 D000/9008_      00000 18979              WDISASM  XPROC ,
 DROP   *,R7
 USING  *,R7
 002DC6 9120 B3BE/4710_003BE       19022                       IF    ~CPSFSPR,' VCALL NOTVALID'
 002DD4 5860 78B6            0367C 19046                       L     R6,=A(DBAREA)
                                   19047                       USING DBDSECT,R6
                                   19049
 002DD8 58E0 78BA/0DEE       03680 19050                       ACALL EVALXPRN           EVALUATE ADDRESS EXPRESSION
 002DDE 59F0 78BE/4770_      03684 19054                       IF    (R15,EQ,4),BEGIN
 002DE6 4110 79DC/4100_      037A2 19071  1                      ABORT 'Missing address expression.'
 002DF2                            19078                       END
 002DF2 59F0 78C2/4770_      03688 19082                       IF    (R15,EQ,8),BEGIN
 002DFA 4110 79F7/4100_      037BD 19099  1                      ABORT 'Invalid address expression.'
 002E06                            19106                       END
 002E06 1821                       19110                       LR    R2,R1              R2 - ADDR TO START SHOWING
                                   19111
 002E08 58E0 78BA/0DEE       03680 19112                       ACALL EVALXPRN           EVALUATE LENGTH EXPRESSION
 002E0E 59F0 78BE/4770_      03684 19116                       IF    (R15,EQ,4),' LA R1,64 '     DEFAULT LENGTH IS 64
 002E1A 59F0 78C2/4770_      03688 19139                       IF    (R15,EQ,8),BEGIN
 002E22 4110 7942/4100_      03708 19156  1                      ABORT 'Invalid length expression.'
 002E2E                            19163                       END
 002E2E 1831                       19167                       LR    R3,R1              R3 - LENGTH TO DISPLAY
                                   19168              *
                                   19169              *$ DO NOT SHOW CP, STACK, HEAP, OR DIR RELOCATED ADDRESSES
 002E30 D503 C1C8 600C_001C8 0000C 19170                       IF    (CVCURJCB,EQ,DBERJCB),BEGIN
 002E3A 1812                       19188  1                      LR    R1,R2
 002E3C 58E0 78C6/0DEE       0368C 19189  1                      ACALL RELOC
 002E42 1912/4780 708E             19193  1                      IF    (R1,NE,R2),BEGIN
 002E48 4110 795E/4100_      03724 19208  2                  ABORT 'Unable to disassemble debuggee CP, STACK, HEAP, or DIR'
 002E54                            19215  1                      END
 002E54                            19219                       END
                                   19223
 002E54 5810 B08C/1B00_      0008C 19224                       SCAN  WDISPRT
 002EA6 58E0 78D2/0DEE       03698 19256                       SCANCHK
                                   19261
 002EAC 1812                       19262                       LR    R1,R2              NOW R1,R0 - ADDR, LEN TO SHOW
 002EAE 1803                       19263                       LR    R0,R3                    R15 - ADDR TO PRINT
 002EB0 18F4                       19264                       LR    R15,R4
 002EB2 58E0 78DE/0DEE       036A4 19265                       ACALL DISPASM            DISPLAY DISASSEMBLED MEMORY
 002EB8 47F0 C7DE            007DE 19269                       B     CVNEXT
 002EBC 18D8/9808 D004_            19270                       PEND  ,
 DROP   *,R7
 USING  *,R7
1WBUG     (WBUG2025) (13:00) (15MAR04) DISASM - disassemble memory                                                          Page   78
0Current Usings:  (DBDSECT,R6) (*,R7) (CP,R11) (CV,R12)
0Loc    Object Code    Addr1 Addr2  Stmt Lv Lineno    Source Statement           (Hibal 5, Asmedit 3.3)  HLASM R4.0  2004/03/15 13.00
+___    ______ ____    _____ _____  ____ __ ______    ______ _________
0
-                                  19298                       ¿þþþþþþþþþþþþþþþþþþþþþþþþþþþþþÜ
                                   19299                       Ÿ  DISSASEMBLE PRINT OPTIONS  Ÿ
                                   19300                       ¾þþþþþþþþþþþþþþþþþþþþþþþþþþþþþ»
 002ECC 4040404040404040_          19301              WDISPRT  SCKW  ,V(LTNPSH),PUSH
 002EF4 4040404040404040_          19316                       SCKW  ,V(QUIETPSH),PUSH
 002F1C 4040404040404040_          19331                       SCKW  ,V(COLLPSH),PUSH
 002F44 4040404040404040_          19346                       SCKW  ,V(SCNINVAL)
                                   19361
1WBUG     (WBUG2025) (13:00) (15MAR04) PC - patch core                                                                      Page   79
0Current Usings:  (DBDSECT,R6) (*,R7) (CP,R11) (CV,R12)
0Loc    Object Code    Addr1 Addr2  Stmt Lv Lineno    Source Statement           (Hibal 5, Asmedit 3.3)  HLASM R4.0  2004/03/15 13.00
+___    ______ ____    _____ _____  ____ __ ______    ______ _________
0000000                00000 001DD 19363              PCWA     RECORD BEGIN
 000000 00                         19371  1           PCFLAG     FLAG
 PCFLAG.PCSYS      80 ONES         19375  1                      FLAG  PCSYS              SYSTEM (NO YES/NO PROMPT) OPTION
 000002                            19380  1           PCTLEN     DS    H                  LENGTH OF REPLACEMENT TEXT
                                   19381  1           PCTEXT     DS    CL(&LINESZ)        REPLACEMENT TEXT
 000004                                   1          +PCTEXT     DS    CL(235)            REPLACEMENT TEXT
 0000F0                            19382  1           PCVLEN     DS    H                  VERIFICATION TEXT LENGTH
                                   19383  1           PCVTXT     DS    CL(&LINESZ)        VERIFICATION TEXT
 0000F2                                   1          +PCVTXT     DS    CL(235)            VERIFICATION TEXT
 0001DD                001DD 001DD 19384                       END
-                                  19394              ¿þþþþþþþþþþþþþþþþþþþþþþþþþþþþþþþþþþþþþþþþþþþþþþþþþþþþþþþþþþþþþþþþþþþþþÜ
                                   19395              Ÿ                                                                     Ÿ
                                   19396              Ÿ                                                                     Ÿ
                                   19397              Ÿ  PC - patch wylbur core                                             Ÿ
                                   19398              Ÿ                                                                     Ÿ
                                   19399              Ÿ                                                                     Ÿ
                                   19400              Ÿ                                                                     Ÿ
                                   19401              Ÿ                                                                     Ÿ
                                                      ¾þþþþþþþþþþþþþþþþþþþþþþþþþþþþþþþþþþþþþþþþþþþþþþþþþþþþþþþþþþþþþþþþþþþþþ»
0002F6C 50E0 D000/9008_      00000 19402              WPC2     XPROC PCWA
 DROP   *,R7
 USING  *,R7
 USING  PCWA-(4+36),R8
 002F86 4150 8028            00000 19456                       LA    R5,PCWA
 USING  PCWA,R5                    19457                       USING PCWA,R5
 002F8A 9120 B3BE/4710_003BE       19466                       IF    ~CPSFSPR,' VCALL NOTVALID'
 002F98 5860 76F6            0367C 19490                       L     R6,=A(DBAREA)
                                   19491                       USING DBDSECT,R6
 002F9C D7FF 5000 5000_00000 00000 19493                       CLEAR PCWA
                                   19501
 002FA8 58E0 76FA/0DEE       03680 19502                       ACALL EVALXPRN           EVALUATE ADDRESS EXPRESSION
 002FAE 1821                       19506                       LR    R2,R1                RETURNS R1 - ADDRESS
 002FB0 59F0 76FE/4770_      03684 19507                       IF    (R15,EQ,4),BEGIN
 002FB8 4110 781C/4100_      037A2 19524  1                      ABORT 'Missing address expression.'
 002FC4                            19531                       END
 002FC4 59F0 7702/4770_      03688 19535                       IF    (R15,EQ,8),BEGIN
 002FCC 4110 7837/4100_      037BD 19552  1                      ABORT 'Invalid address expression.'
 002FD8                            19559                       END
                                   19563              *
                                   19564              *$ CHECK FOR BREAK AS WELL AS DEBUGGER BELOW, OR ALWAYS SYNCHNOUS
 002FD8 D503 C1C8 600C_001C8 0000C 19565                       IF    (CVCURJCB,EQ,DBERJCB),BEGIN   IF DEBUGER,
 002FE2 58E0 7706/0DEE       0368C 19583  1                      ACALL RELOC                         PATCH DEBUGEE CORE
 002FE8 1821                       19587  1                      LR    R2,R1
 002FEA                            19588                       END
                                   19592
 002FEA 5810 B08C/1B00_      0008C 19593                       SCAN  ,
 003038 58E0 7712/0DEE       03698 19624                       SCANCHK ,
 00303E 1200/4780 C7F0             19629                       IF    (R0,Z),CVABSENT
 003044 41F0 5004            00004 19646                       LA    R15,PCTEXT
 003048 58E0 7722/0DEE       036A8 19647                       VCALL DEQSTR             DEQOUTE TEXT
 00304E 47B0 70F0            03076 19651                       IF    NEG,BEGIN          NOT A STRING...
1WBUG     (WBUG2025) (13:00) (15MAR04) PC - patch core                                                                      Page   80
0Current Usings:  (PCWA,R5) (DBDSECT,R6) (*,R7) (PCWA-(4+36),R8) (CP,R11) (CV,R12)
0Loc    Object Code    Addr1 Addr2  Stmt Lv Lineno    Source Statement           (Hibal 5, Asmedit 3.3)  HLASM R4.0  2004/03/15 13.00
+___    ______ ____    _____ _____  ____ __ ______    ______ _________
0003052 41F0 5004            00004 19662  1                      LA    R15,PCTEXT
 003056 58E0 7726/0DEE       036AC 19663  1                      VCALL HEXSTR             CHECK FOR HEX
 00305C 47B0 70F0            03076 19667  1                      IF    NEG,BEGIN
 003060 41F0 B050/58E0_      00050 19678  2                        TSEG  (R1),(R0)
 00306A 4110 772E/4100_      036B4 19702  2                        ERROR ': invalid hex digits'
 003076                            19709  1                      END
 003076                            19713                       END
 003076 5900 7742/47D0_      036C8 19717                       CEIL  R0,L'PCTEXT
 003082 4000 5002            00002 19736                       STH   R0,PCTLEN
                                   19737
 003086 5810 B08C/1B00_      0008C 19738                       SCAN  WPCPRT
 0030D8 58E0 7712/0DEE       03698 19770                       SCANCHK ,
 0030DE 4780 7162/58E0_      030E8 19775                       IF    NZ,' VCALL NOTVALID'
                                   19795
 0030E8 1812                       19796                       LR    R1,R2               CHECK IF OK TO STORE AT ADDR
 0030EA 4800 5002            00002 19797                       LH    R0,PCTLEN
 0030EE 58E0 774A/0DEE       036D0 19798                       ACALL CHKSADDR
 0030F4 4780 717E            03104 19802                       IF    NZ,BEGIN
 0030F8 4110 76A2/4100_      03628 19813  1                      ABORT 'Invalid address.'
 003104                            19820                       END
                                   19824
 003104 4110 7852/4100_      037D8 19825                       TSEG  'Old data was '
 003116 1812/4800 5002             19843                       SETMSG (R2),LH:PCTLEN     ORIGINAL DATA
 00311C 4900 50F0/47B0_      000F0 19854                       FLOOR R0,PCVLEN
 003128 5900 76FE/47B0_      03684 19860                       FLOOR R0,4
 003134 41F0 0004            00004 19879                       LA    R15,4
 003138 58E0 774E/0DEE       036D4 19880                       VCALL HEXFMT
                                   19884
 00313E 48F0 50F0/12FF_      000F0 19885                       IF    ('LTH R15,PCVLEN',NZ),BEGIN
 003148 06F0/12FF/4740_            19901  1                      CMPR  R15,@R2,PCVTXT     COMPARE TEXT
 003154 4780 71DE/4110_      03164 19939  1                      IF    NE,'ABORT "Verify failed."'
 003164                            19962                       END
                                   19966
 003164 9180 5000/4710_00000       19967                       IF    ~PCSYS,BEGIN
 00316C 4110 785F/4100_      037E5 19982  1                      SETMSG 'Patch'
 003174 58E0 7752/0DEE       036D8 19986  1                      VCALL YESREQ
 00317A                            19990                       END
                                   19994
 00317A 48F0 5002/12FF_      00002 19995                       IF    ('LTH R15,PCTLEN',NZ),BEGIN
 003184 06F0/12FF/4740_            20011  1                      MOVE  R15,@R2,PCTEXT     REPLACE TEXT
 003190                            20049                       END
                                   20053
 003190 4110 7864/4100_      037EA 20054                       SETMSG 'Done.'
 003198 47F0 C7D0            007D0 20058                       B     CVNXTMSG
 00319C 18D8/9808 D004_            20059                       PEND  ,
 DROP   PCWA-(4+36),R8
 DROP   *,R7
 USING  *,R7
-0031AC E5C5D9C9C6E84040_          20092              WPCPRT   SCKW  VERIFY,PCVER,(A,P)
 0031D4 E2E8E2E3C5D44040_          20107                       SCKW  SYSTEM,PCSETSYS,A
 0031FC 4040404040404040_          20122                       SCKW  ,V(COLLPSH),PUSH
 003224 4040404040404040_          20137                       SCKW  ,V(QUIETPSH),PUSH
1WBUG     (WBUG2025) (13:00) (15MAR04) PC - patch core                                                                      Page   81
0Current Usings:  (PCWA,R5) (DBDSECT,R6) (*,R7) (CP,R11) (CV,R12)
0Loc    Object Code    Addr1 Addr2  Stmt Lv Lineno    Source Statement           (Hibal 5, Asmedit 3.3)  HLASM R4.0  2004/03/15 13.00
+___    ______ ____    _____ _____  ____ __ ______    ______ _________
000324C 4040404040404040_          20152                       SCKW  ,V(SCNINVAL)
                                   20167
 003274 50E0 D000/9008_      00000 20168              PCSETSYS PROC  ,
 DROP   *,R7
 USING  *,R7
 00328E 9680 5000      00000       20210                       SET   PCSYS
 003292 18D8/9808 D004_            20216                       PEND
 DROP   *,R7
 USING  *,R7
                                   20243
 0032A0 50E0 D000/9008_      00000 20244              PCVER    PROC  ,
 DROP   *,R7
 USING  *,R7
 0032BA 41F0 50F2            000F2 20286                       LA    R15,PCVTXT
 0032BE 58E0 73EE/0DEE       036A8 20287                       VCALL DEQSTR             DEQUOTE TEXT
 0032C4 47B0 7032            032EC 20291                       IF    NEG,BEGIN          NOT A STRING...
 0032C8 41F0 50F2            000F2 20302  1                      LA    R15,PCVTXT
 0032CC 58E0 73F2/0DEE       036AC 20303  1                      VCALL HEXSTR             CHECK FOR HEX
 0032D2 47B0 7032            032EC 20307  1                      IF    NEG,BEGIN
 0032D6 41F0 B050/58E0_      00050 20318  2                        TSEG  (R1),(R0)
 0032E0 4110 73FA/4100_      036B4 20342  2                        ERROR ': invalid hex digits'
 0032EC                            20349  1                      END
 0032EC                            20353                       END
 0032EC 5900 7422/47D0_      036DC 20357                       CEIL  R0,L'PCVTXT
 0032F8 4000 50F0            000F0 20376                       STH   R0,PCVLEN
 0032FC 1BFF                       20377                       CLEAR R15
 0032FE 18D8/9808 D004_            20381                       PEND  ,
 DROP   *,R7
 USING  *,R7
                                   20408
 DROP   PCWA,R5                    20409                       DROP  R5
1WBUG     (WBUG2025) (13:00) (15MAR04) SG - show registers                                                                  Page   82
0Current Usings:  (DBDSECT,R6) (*,R7) (CP,R11) (CV,R12)
0Loc    Object Code    Addr1 Addr2  Stmt Lv Lineno    Source Statement           (Hibal 5, Asmedit 3.3)  HLASM R4.0  2004/03/15 13.00
+___    ______ ____    _____ _____  ____ __ ______    ______ _________
0                                  20417              ¿þþþþþþþþþþþþþþþþþþþþþþþþþþþþþþþþþþþþþþþþþþþþþþþþþþþþþþþþþþþþþþþþþþþþþÜ
                                   20418              Ÿ                                                                     Ÿ
                                   20419              Ÿ                                                                     Ÿ
                                   20420              Ÿ   WSG - show WYLBUR's general purpose registers                     Ÿ
                                   20421              Ÿ                                                                     Ÿ
                                   20422              Ÿ                                                                     Ÿ
                                   20423              Ÿ                                                                     Ÿ
                                   20424              Ÿ                                                                     Ÿ
                                                      ¾þþþþþþþþþþþþþþþþþþþþþþþþþþþþþþþþþþþþþþþþþþþþþþþþþþþþþþþþþþþþþþþþþþþþþ»
000330C 50E0 D000/9008_      00000 20425              WSG      XPROC ,
 DROP   *,R7
 USING  *,R7
 003326 9120 B3BE/4710_003BE       20468                       IF    ~CPSFSPR,' VCALL NOTVALID'
 003334 5860 7356            0367C 20492                       L     R6,=A(DBAREA)
                                   20493                       USING DBDSECT,R6
 003338 9180 6008/4710_00008       20495                       IF    ~DBACTIVE,BEGIN
 003340 4110 74C9/4100_      037EF 20510  1                      ABORT 'Debugging session not active.'
 00334C                            20517                       END
 00334C D503 C1C8 600C_001C8 0000C 20521                       IF    (CVCURJCB,NE,DBERJCB),BEGIN
 003356 4110 7442/4100_      03768 20539  1                      ABORT 'Current line not debugger.'
 003362                            20546                       END
 003362 9140 6008/4710_00008       20550                       IF    ~DBBREAK,BEGIN
 00336A 4110 74E6/4100_      0380C 20565  1                      ABORT 'Not in debugging session break.  Command ignored.'
 003376                            20572                       END
                                   20576
 003376 58E0 735A/0DEE       03680 20577                       ACALL EVALXPRN           EVALUATE 1ST REG SPECIFICATION
 00337C 59F0 735E/4770_      03684 20581                       IF    (R15,EQ,4),BEGIN   IF NO REG SPECIFICATION, ,,,
 003384 4100 000E            0000E 20598  1                      LA    R0,14                 SHOW REGS 14 THRU 1
 003388 4110 0001            00001 20599  1                      LA    R1,1
 00338C 58E0 73BA/0DEE       036E0 20600  1                      ACALL DISPREGS              DISPLAY R14 THRU R1
 003392 47F0 C7DE            007DE 20604  1                      B     CVNEXT
 003396                            20605                       END
 003396 59F0 7362/4770_      03688 20609                       IF    (R15,EQ,8),BEGIN
 00339E 4110 7517/4100_      0383D 20626  1                      ABORT 'Invalid register specification.'
 0033AA                            20633                       END
 0033AA 1211/4740 7092_            20637                       IF    ((R1,NEG),OR,(R1,GT,15)),BEGIN
 0033B8 4110 7517/4100_      0383D 20667  1                      ABORT 'Invalid register specification.'
 0033C4                            20674                       END
 0033C4 1821                       20678                       LR    R2,R1              R2 - FIRST REGISTER TO SHOW
                                   20679
 0033C6 58E0 735A/0DEE       03680 20680                       ACALL EVALXPRN           EVALUATE LAST REG SPECIFICATION
 0033CC 59F0 735E/4770_      03684 20684                       IF    (R15,EQ,4),BEGIN
 0033D4 1812                       20701  1                      LR    R1,R2
 0033D6                            20702                       END
 0033D6 59F0 7362/4770_      03688 20706                       IF    (R15,EQ,8),BEGIN
 0033DE 4110 7312/4100_      03638 20723  1                      ABORT 'Invalid register specification for 2nd register.'
 0033EA                            20730                       END
 0033EA 1211/4740 70D2_            20734                       IF    ((R1,NEG),OR,(R1,GT,15)),BEGIN
 0033F8 4110 7312/4100_      03638 20764  1                      ABORT 'Invalid register specification for 2nd register.'
 003404                            20771                       END
                                   20775
 003404 1802                       20776                       LR    R0,R2              NOW R0,R1 - 1ST, LAST REGISTER
                                   20777
1WBUG     (WBUG2025) (13:00) (15MAR04) SG - show registers                                                                  Page   83
0Current Usings:  (DBDSECT,R6) (*,R7) (CP,R11) (CV,R12)
0Loc    Object Code    Addr1 Addr2  Stmt Lv Lineno    Source Statement           (Hibal 5, Asmedit 3.3)  HLASM R4.0  2004/03/15 13.00
+___    ______ ____    _____ _____  ____ __ ______    ______ _________
0003406 9001 D000/41D0_      00000 20778                       XPUSH R0,R1
 00340E 5810 B08C/1B00_      0008C 20781                       SCAN  WSGPRT             SCAN REMAINING DISPLAY OPTIONS
 003460 58E0 7372/0DEE       03698 20813                       SCANCHK
 003466 4BD0 745C/9801_      03782 20818                       XPOP  R0,R1
                                   20821
 00346E 58E0 73BA/0DEE       036E0 20822                       ACALL DISPREGS           DISPLAY REGISTERS
 003474 47F0 C7DE            007DE 20826                       B     CVNEXT
 003478 18D8/9808 D004_            20827                       PEND  ,
 DROP   *,R7
 USING  *,R7
-
-                                  20855                       ¿þþþþþþþþþþþþþþþþþþþþþþþþþþþþþþþÜ
                                   20856                       Ÿ  SHOW REGISTER PRINT OPTIONS  Ÿ
                                   20857                       ¾þþþþþþþþþþþþþþþþþþþþþþþþþþþþþþþ»
 003488 4040404040404040_          20858              WSGPRT   SCKW  ,V(LTNPSH),PUSH
 0034B0 4040404040404040_          20873                       SCKW  ,V(QUIETPSH),PUSH
 0034D8 4040404040404040_          20888                       SCKW  ,V(COLLPSH),PUSH
 003500 4040404040404040_          20903                       SCKW  ,V(SCNINVAL)
                                   20918
1WBUG     (WBUG2025) (13:00) (15MAR04) PG - patch general purpose register                                                  Page   84
0Current Usings:  (DBDSECT,R6) (*,R7) (CP,R11) (CV,R12)
0Loc    Object Code    Addr1 Addr2  Stmt Lv Lineno    Source Statement           (Hibal 5, Asmedit 3.3)  HLASM R4.0  2004/03/15 13.00
+___    ______ ____    _____ _____  ____ __ ______    ______ _________
0                                  20920              ¿þþþþþþþþþþþþþþþþþþþþþþþþþþþþþþþþþþþþþþþþþþþþþþþþþþþþþþþþþþþþþþþþþþþþþÜ
                                   20921              Ÿ                                                                     Ÿ
                                   20922              Ÿ                                                                     Ÿ
                                   20923              Ÿ  WPG - patch general purpose register                               Ÿ
                                   20924              Ÿ                                                                     Ÿ
                                   20925              Ÿ                                                                     Ÿ
                                   20926              Ÿ                                                                     Ÿ
                                   20927              Ÿ                                                                     Ÿ
                                                      ¾þþþþþþþþþþþþþþþþþþþþþþþþþþþþþþþþþþþþþþþþþþþþþþþþþþþþþþþþþþþþþþþþþþþþþ»
0003528 50E0 D000/9008_      00000 20928              WPG      XPROC ,
 DROP   *,R7
 USING  *,R7
 003542 9120 B3BE/4710_003BE       20971                       IF    ~CPSFSPR,' VCALL NOTVALID'
 003550 5860 713A            0367C 20995                       L     R6,=A(DBAREA)
                                   20996                       USING DBDSECT,R6
                                   20998
 003554 9180 6008/4710_00008       20999                       IF    ~DBACTIVE,BEGIN
 00355C 4110 72AD/4100_      037EF 21014  1                      ABORT 'Debugging session not active.'
 003568                            21021                       END
 003568 D503 C1C8 600C_001C8 0000C 21025                       IF    (CVCURJCB,NE,DBERJCB),BEGIN
 003572 4110 7226/4100_      03768 21043  1                      ABORT 'Current line not debugger.'
 00357E                            21050                       END
 00357E 9140 6008/4710_00008       21054                       IF    ~DBBREAK,BEGIN
 003586 4110 72CA/4100_      0380C 21069  1                      ABORT 'Not in debugging session break.  Command ignored.'
 003592                            21076                       END
                                   21080
 003592 58E0 713E/0DEE       03680 21081                       ACALL EVALXPRN           EVALUATE REGISTER OPERAND
 003598 59F0 7142/4770_      03684 21085                       IF    (R15,EQ,4),BEGIN
 0035A0 4110 7126/4100_      03668 21102  1                      ABORT 'Missing operands'
 0035AC                            21109                       END
 0035AC 59F0 7146/4770_      03688 21113                       IF    (R15,EQ,8),BEGIN
 0035B4 4110 72FB/4100_      0383D 21130  1                      ABORT 'Invalid register specification.'
 0035C0                            21137                       END
 0035C0 1211/4740 708C_            21141                       IF    ((R1,NEG),OR,(R1,GT,15)),BEGIN
 0035CE 4110 72FB/4100_      0383D 21171  1                      ABORT 'Invalid register specification.'
 0035DA                            21178                       END
 0035DA 1821                       21182                       LR    R2,R1              R2 - REGISTER # TO PATCH
                                   21183
 0035DC 58E0 713E/0DEE       03680 21184                       ACALL EVALXPRN           EVALUATE PATCH VALUE
 0035E2 59F0 7142/4770_      03684 21188                       IF    (R15,EQ,4),BEGIN
 0035EA 4110 71AA/4100_      036EC 21205  1                      ABORT 'Missing patch value operand.'
 0035F6                            21212                       END
 0035F6 59F0 7146/4770_      03688 21216                       IF    (R15,EQ,8),BEGIN
 0035FE 4110 7242/4100_      03784 21233  1                      ABORT 'Invalid patch value specified.'
 00360A                            21240                       END
                                   21244                       COMMENT                  R1 - VALUE OF PATCH
                                   21245
 00360A 8920 0002            00002 21246                       SLL   R2,2               R2 - REGISTER OFFSET
 00360E 5012 6044            00044 21247                       ST    R1,DBREGS(R2)      PATCH REGISTER !!
                                   21248
 003612 47F0 C7DE            007DE 21249                       B     CVNEXT             WE DONE.
 003616 18D8/9808 D004_            21250                       PEND  ,
 DROP   *,R7
1WBUG     (WBUG2025) (13:00) (15MAR04) PG - patch general purpose register                                                  Page   85
0Current Usings:  (DBDSECT,R6) (*,R7) (CP,R11) (CV,R12)
0Loc    Object Code    Addr1 Addr2  Stmt Lv Lineno    Source Statement           (Hibal 5, Asmedit 3.3)  HLASM R4.0  2004/03/15 13.00
+___    ______ ____    _____ _____  ____ __ ______    ______ _________
0USING  *,R7
1WBUG     (WBUG2025) (13:00) (15MAR04) PG - patch general purpose register                                                  Page   86
0Current Usings:  (DBDSECT,R6) (*,R7) (CP,R11) (CV,R12)
0Loc    Object Code    Addr1 Addr2  Stmt Lv Lineno    Source Statement           (Hibal 5, Asmedit 3.3)  HLASM R4.0  2004/03/15 13.00
+___    ______ ____    _____ _____  ____ __ ______    ______ _________
0                                  21278                       QLTORG
1WBUG     (WBUG2025) (13:00) (15MAR04) PG - patch general purpose register                                                  Page   87
0Current Usings:  (DBDSECT,R6) (*,R7) (CP,R11) (CV,R12)
0Loc    Object Code    Addr1 Addr2  Stmt Lv Lineno    Source Statement           (Hibal 5, Asmedit 3.3)  HLASM R4.0  2004/03/15 13.00
+___    ______ ____    _____ _____  ____ __ ______    ______ _________
0                                  21335              ¿þþþþþþþþþþþþþþþþþþþþþþþþþþþþþþþþþþþþþþþþþþþþþþþþþþþþþþþþþþþþþþþþþþþþþÜ
                                   21336              Ÿ                                                                     Ÿ
                                   21337              Ÿ                                                                     Ÿ
                                   21338              Ÿ   SPG - show wylbur page                                            Ÿ
                                   21339              Ÿ                                                                     Ÿ
                                   21340              Ÿ   SPG <page number>  <offset>  <len>                                Ÿ
                                   21341              Ÿ                                                                     Ÿ
                                   21342              Ÿ                                                                     Ÿ
                                   21343              Ÿ                                                                     Ÿ
                                                      ¾þþþþþþþþþþþþþþþþþþþþþþþþþþþþþþþþþþþþþþþþþþþþþþþþþþþþþþþþþþþþþþþþþþþþþ»
0000000                00000 00014 21344              WSPGWA   RECORD BEGIN ,
 000000                            21352  1           WSPGNUMB   DS    F                   PAGE NUMBER
 000004                            21353  1           WSPGOFF    DS    F                   DISPLAY OFFSET
 000008                            21354  1           WSPGLEN    DS    F                   DISPLAY LENGTH
 00000C                            21355  1           WSPGJCB    DS    F                   JCB ADDR OF PAGE OWNER
 000010                            21356  1           WSPGTEMP   DS    F                   TEMP PAGE NUMBER, FOR SAREAD
 000014                00014 00014 21357                       END
                                   21366              *
                                   21367              *
 003868 50E0 D000/9008_      00000 21368              WSPG     XPROC WSPGWA
 DROP   *,R7
 USING  *,R7
 USING  WSPGWA-(4+36),R8
                                   21422                       USING DBDSECT,R6
 003882 9120 B3BE/4710_003BE       21424                       IF    ~CPSFSPR,' VCALL NOTVALID'
 003890 5860 76BA            03F3C 21448                       L     R6,=A(DBAREA)
                                   21449                       ¿þþþþþþþþþþþþþþþþþþþþþþþþþþþþþþþþþþþþþþþþþþþþþþþþþþþÜ
                                   21450                       Ÿ  get page number, display offset, display length  Ÿ
                                   21451                       ¾þþþþþþþþþþþþþþþþþþþþþþþþþþþþþþþþþþþþþþþþþþþþþþþþþþþ»
 003894 58E0 76BE/0DEE       03F40 21452                       ACALL EVALXPRN
 00389A 4780 7028            038AA 21456                       IF    NZ,BEGIN
 00389E 4110 77D0/4100_      04052 21467  1                      ERROR 'Invalid or missing page number specification.'
 0038AA                            21474                       END
 0038AA 5010 8028            00000 21478                       ST    R1,WSPGNUMB         SAVE PAGE NUMBER
 0038AE 58E0 76BE/0DEE       03F40 21479                       ACALL EVALXPRN
 0038B4 59F0 76C2/4770_      03F44 21483                       IF    (R15,EQ,0),BEGIN
 0038BC 5010 802C            00004 21500  1                      ST    R1,WSPGOFF          SAVE DISPLAY OFFSET
 0038C0                            21501                       END
 0038C0 59F0 76C6/4770_      03F48 21505                       IF    (R15,EQ,4),BEGIN
 0038C8 D203 802C 76CA 00004 03F4C 21522  1                      MVC   WSPGOFF(4),=F'-1'
 0038CE                            21523                       END
 0038CE 59F0 76CE/4770_      03F50 21527                       IF    (R15,EQ,8),BEGIN
 0038D6 4110 773E/4100_      03FC0 21544  1                      ERROR 'Invalid page offset specification.'
 0038E2                            21551                       END
 0038E2 58E0 76BE/0DEE       03F40 21555                       ACALL EVALXPRN
 0038E8 59F0 76C2/4770_      03F44 21559                       IF    (R15,EQ,0),BEGIN
 0038F0 5910 76D2/47D0_      03F54 21576  1                      CEIL  R1,1024             ** REMOVE LIMIT WHEN PLOCK FIXED
 0038FC 5010 8030            00008 21595  1                      ST    R1,WSPGLEN          SAVE DISPLAY LENGTH
 003900                            21596                       END
 003900 59F0 76C6/4770_      03F48 21600                       IF    (R15,EQ,4),BEGIN
 003908 D203 8030 76D6 00008 03F58 21617  1                      MVC   WSPGLEN(4),=F'128'
 00390E                            21618                       END
 00390E 59F0 76CE/4770_      03F50 21622                       IF    (R15,EQ,8),BEGIN
1WBUG     (WBUG2025) (13:00) (15MAR04) PG - patch general purpose register                                                  Page   88
0Current Usings:  (DBDSECT,R6) (*,R7) (WSPGWA-(4+36),R8) (CP,R11) (CV,R12)
0Loc    Object Code    Addr1 Addr2  Stmt Lv Lineno    Source Statement           (Hibal 5, Asmedit 3.3)  HLASM R4.0  2004/03/15 13.00
+___    ______ ____    _____ _____  ____ __ ______    ______ _________
0003916 4110 7760/4100_      03FE2 21639  1                      ERROR 'Invalid page length specification.'
 003922                            21646                       END
 003922 5810 B08C/1B00_      0008C 21650                       SCAN  WSPGPRT
 003974 58E0 76E2/0DEE       03F64 21682                       SCANCHK
                                   21687                       ¿þþþþþþþþþþþþþþþþþþþþþþþþþþþþþþþþþþþþþþþþþþþþþþþÜ
                                   21688                       Ÿ  get a dummy page, then do debug page read !  Ÿ
                                   21689                       ¾þþþþþþþþþþþþþþþþþþþþþþþþþþþþþþþþþþþþþþþþþþþþþþþ»
 00397A 58E0 76E6/0DEE       03F68 21690                       VCALL PGETNEW             GET TEMP PAGE in PAR
 003980 5000 8038            00010 21694                       ST    R0,WSPGTEMP         SAVE TEMP PAGE NUMBER
 003984 58E0 76EA/0DEE       03F6C 21695                       VCALL PLOCKA              Lock PAR page
 00398A 5800 8028            00000 21699                       L     R0,WSPGNUMB
 00398E 58E0 76EE/0DEE       03F70 21700                       VCALL DBGREAD             SPECIAL DEBUG PAGE READ !
 003994 5010 8034            0000C 21704                       ST    R1,WSPGJCB
 003998 4780 714C            039CE 21705                       IF    NZ,BEGIN
 00399C 50F0 D000/41D0_      00000 21716  1                      XPUSH R15
 0039A4 58E0 76F2/0DEE       03F74 21719  1                      VCALL PUNLOCKA            Unlock PAR page
 0039AA 58E0 76F6/0DEE       03F78 21723  1                      PFREE PAR,EMPTY
 0039B0 4BD0 7784/58F0_      04006 21729  1                      XPOP  R15
 0039B8 4110 7786/4100_      04008 21732  1                      TSEG  ' Command ignored. '
 0039CA 47F0 C7D6            007D6 21750  1                      B     CVERROR
 0039CE                            21751                       END
                                   21755                       ¿þþþþþþþþþþþþþþþþþþþþþþþþþþÜ
                                   21756                       Ÿ  page read,, display it  Ÿ
                                   21757                       ¾þþþþþþþþþþþþþþþþþþþþþþþþþþ»
 0039CE D503 76FE 802C_03F80 00004 21758                       IF    (WSPGOFF,EQ,-1),BEGIN   if offset not specified,
 0039D8 D703 802C 802C 00004 00004 21776  1                      CLEAR WSPGOFF                     display page owner
 0039DE 4110 7702/4100_      03F84 21783  1                      TSEG  'Page number '
 0039F0 5810 8028/1B00_      00000 21801  1                      TNUM  WSPGNUMB
 003A00 D503 76B2 8034_03F34 0000C 21823  1                      IF    ((WSPGJCB,EQ,0),OR,(WSPGNUMB,EQ,WSPGTEMP)),BEGIN
 003A14 4110 7798/4100_      0401A 21858  2                        TSEG  ' is not owned.',,CR
 003A26                            21876  1                      END
 003A26 71A8/47F0 71D6 03A26 03A12 21880  1                      ELSE BEGIN
 003A2A 4110 77FD/4100_      0407F 21891  2                        TSEG  ' is owned by '
 003A3C 5810 8034            0000C 21909  2                        L     R1,WSPGJCB
 003A40 58E0 7716/0DEE       03F98 21910  2                        ACALL TSEGUSER
 003A46 4110 780A/4100_      0408C 21914  2                        TSEG  '.',,CR
 003A58                            21932  1                      END
 003A58                            21936                       END
                                   21940
 003A58 1819                       21941                       LR    R1,PAR
 003A5A 5A10 802C            00004 21942                       A     R1,WSPGOFF          R1 - DISPLAY ADDRESS (ACTUAL)
 003A5E 5800 8030            00008 21943                       L     R0,WSPGLEN          R0 - DISPLAY LENGTH
 003A62 58F0 802C            00004 21944                       L     R15,WSPGOFF         R15 - DISPLAY ADDRESS (TYPED)
 003A66 58E0 771A/0DEE       03F9C 21945                       ACALL DISPCORE            DISPLAY CORE
 003A6C 58E0 76F2/0DEE       03F74 21949                       VCALL PUNLOCKA            Unlock PAR page
 003A72 58E0 76F6/0DEE       03F78 21953                       PFREE PAR,EMPTY           FREE UP PAGE
 003A78 47F0 C7DE            007DE 21959                       B     CVNEXT              DONE
 003A7C 18D8/9808 D004_            21960                       PEND  ,
 DROP   WSPGWA-(4+36),R8
 DROP   *,R7
 USING  *,R7
-
1WBUG     (WBUG2025) (13:00) (15MAR04) PG - patch general purpose register                                                  Page   89
0Current Usings:  (DBDSECT,R6) (*,R7) (CP,R11) (CV,R12)
0Loc    Object Code    Addr1 Addr2  Stmt Lv Lineno    Source Statement           (Hibal 5, Asmedit 3.3)  HLASM R4.0  2004/03/15 13.00
+___    ______ ____    _____ _____  ____ __ ______    ______ _________
0                                  21993                       ¿þþþþþþþþþþþþþþþþþþþþþþþþþþþÜ
                                   21994                       Ÿ  SHOW PAGE PRINT OPTIONS  Ÿ
                                   21995                       ¾þþþþþþþþþþþþþþþþþþþþþþþþþþþ»
 003A8C 4040404040404040_          21996              WSPGPRT  SCKW  ,V(LTNPSH),PUSH
 003AB4 4040404040404040_          22011                       SCKW  ,V(QUIETPSH),PUSH
 003ADC 4040404040404040_          22026                       SCKW  ,V(COLLPSH),PUSH
 003B04 4040404040404040_          22041                       SCKW  ,V(SCNINVAL)
                                   22056
1WBUG     (WBUG2025) (13:00) (15MAR04) PG - patch general purpose register                                                  Page   90
0Current Usings:  (DBDSECT,R6) (*,R7) (CP,R11) (CV,R12)
0Loc    Object Code    Addr1 Addr2  Stmt Lv Lineno    Source Statement           (Hibal 5, Asmedit 3.3)  HLASM R4.0  2004/03/15 13.00
+___    ______ ____    _____ _____  ____ __ ______    ______ _________
0                                  22058              *
                                   22059              *  PATCH PAGE
                                   22060              *
                                   22061              *  NOT IMPLEMENTED
                                   22062              *
                                   22063              *
 003B2C 50E0 D000/9008_      00000 22064              WPPG     PROC  ,
 DROP   *,R7
 USING  *,R7
 003B46 58E0 73F2/0DEE       03F38 22106                       VCALL NOTVALID            PATCH PAGE
 003B4C 18D8/9808 D004_            22110                       PEND  ,
 DROP   *,R7
 USING  *,R7
1WBUG     (WBUG2025) (13:00) (15MAR04) SP - show psw                                                                        Page   91
0Current Usings:  (DBDSECT,R6) (*,R7) (CP,R11) (CV,R12)
0Loc    Object Code    Addr1 Addr2  Stmt Lv Lineno    Source Statement           (Hibal 5, Asmedit 3.3)  HLASM R4.0  2004/03/15 13.00
+___    ______ ____    _____ _____  ____ __ ______    ______ _________
0                                  22138              ¿þþþþþþþþþþþþþþþþþþþþþþþþþþþþþþþþþþþþþþþþþþþþþþþþþþþþþþþþþþþþþþþþþþþþþÜ
                                   22139              Ÿ                                                                     Ÿ
                                   22140              Ÿ                                                                     Ÿ
                                   22141              Ÿ  WSP - show psw                                                     Ÿ
                                   22142              Ÿ                                                                     Ÿ
                                   22143              Ÿ                                                                     Ÿ
                                   22144              Ÿ                                                                     Ÿ
                                                      ¾þþþþþþþþþþþþþþþþþþþþþþþþþþþþþþþþþþþþþþþþþþþþþþþþþþþþþþþþþþþþþþþþþþþþþ»
0003B5A 50E0 D000/9008_      00000 22145              WSPSW    XPROC ,
 DROP   *,R7
 USING  *,R7
 003B74 9120 B3BE/4710_003BE       22188                       IF    ~CPSFSPR,' VCALL NOTVALID'
 003B82 5860 73C8            03F3C 22212                       L     R6,=A(DBAREA)
                                   22213                       USING DBDSECT,R6
                                   22215
 003B86 9180 6008/4710_00008       22216                       IF    ~DBACTIVE,BEGIN
 003B8E 4110 7519/4100_      0408D 22231  1                      ABORT 'Debugging session not active.'
 003B9A                            22238                       END
 003B9A D503 C1C8 600C_001C8 0000C 22242                       IF    (CVCURJCB,NE,DBERJCB),BEGIN
 003BA4 4110 74B4/4100_      04028 22260  1                      ABORT 'Current line not debugger.'
 003BB0                            22267                       END
 003BB0 9140 6008/4710_00008       22271                       IF    ~DBBREAK,BEGIN
 003BB8 4110 7536/4100_      040AA 22286  1                      ABORT 'Not in debugging session break.  Command ignored.'
 003BC4                            22293                       END
                                   22297
 003BC4 5810 B08C/1B00_      0008C 22298                       SCAN  WSPPRT
 003C16 58E0 73F0/0DEE       03F64 22330                       SCANCHK ,
                                   22335
 003C1C 4110 7567/4100_      040DB 22336                       TSEG  ' '
 003C2E 5810 603C/4100_      0003C 22354                       THEX  L:DBPSW,8
 003C40 4110 7567/4100_      040DB 22379                       TSEG  ' '
 003C52 5810 6040            00040 22397                       L     R1,DBPSWIA
 003C56 5410 7434            03FA8 22398                       N     R1,=X'80000000'     SET AMODE BIT OF PSW ADDRESS
 003C5A 5610 6020            00020 22399                       O     R1,DBIA
 003C5E 4100 0008/41F0_      00008 22400                       THEX  (R1),8
 003C6C 4110 74CE/4100_      04042 22424                       TSEG  '  '
 003C7E 5810 6020            00020 22442                       L     R1,DBIA
 003C82 58E0 7438/0DEE       03FAC 22443                       ACALL TSEGSYM
                                   22447
 003C88 47F0 C7DE            007DE 22448                       B     CVNEXT
 003C8C 18D8/9808 D004_            22449                       PEND  ,
 DROP   *,R7
 USING  *,R7
-
-                                  22477                       ¿þþþþþþþþþþþþþþþþþþþþþþþþþþÜ
                                   22478                       Ÿ  SHOW PSW PRINT OPTIONS  Ÿ
                                   22479                       ¾þþþþþþþþþþþþþþþþþþþþþþþþþþ»
 003C9C 4040404040404040_          22480              WSPPRT   SCKW  ,V(LTNPSH),PUSH
 003CC4 4040404040404040_          22495                       SCKW  ,V(QUIETPSH),PUSH
1WBUG     (WBUG2025) (13:00) (15MAR04) SP - show psw                                                                        Page   92
0Current Usings:  (DBDSECT,R6) (*,R7) (CP,R11) (CV,R12)
0Loc    Object Code    Addr1 Addr2  Stmt Lv Lineno    Source Statement           (Hibal 5, Asmedit 3.3)  HLASM R4.0  2004/03/15 13.00
+___    ______ ____    _____ _____  ____ __ ______    ______ _________
0003CEC 4040404040404040_          22510                       SCKW  ,V(COLLPSH),PUSH
 003D14 4040404040404040_          22525                       SCKW  ,V(SCNINVAL)
1WBUG     (WBUG2025) (13:00) (15MAR04) SCC - show psw condition code                                                        Page   93
0Current Usings:  (DBDSECT,R6) (*,R7) (CP,R11) (CV,R12)
0Loc    Object Code    Addr1 Addr2  Stmt Lv Lineno    Source Statement           (Hibal 5, Asmedit 3.3)  HLASM R4.0  2004/03/15 13.00
+___    ______ ____    _____ _____  ____ __ ______    ______ _________
0                                  22541              ¿þþþþþþþþþþþþþþþþþþþþþþþþþþþþþþþþþþþþþþþþþþþþþþþþþþþþþþþþþþþþþþþþþþþþþÜ
                                   22542              Ÿ                                                                     Ÿ
                                   22543              Ÿ                                                                     Ÿ
                                   22544              Ÿ  SCC - show condition code                                          Ÿ
                                   22545              Ÿ                                                                     Ÿ
                                   22546              Ÿ                                                                     Ÿ
                                   22547              Ÿ                                                                     Ÿ
                                                      ¾þþþþþþþþþþþþþþþþþþþþþþþþþþþþþþþþþþþþþþþþþþþþþþþþþþþþþþþþþþþþþþþþþþþþþ»
0003D3C 50E0 D000/9008_      00000 22548              WSCC     XPROC ,
 DROP   *,R7
 USING  *,R7
 003D56 5860 71E6            03F3C 22591                       L     R6,=A(DBAREA)
                                   22592                       USING DBDSECT,R6
 003D5A 9180 6008/4710_00008       22594                       IF    ~DBACTIVE,BEGIN
 003D62 4110 7337/4100_      0408D 22609  1                      ABORT 'Debugging session not active.'
 003D6E                            22616                       END
 003D6E D503 C1C8 600C_001C8 0000C 22620                       IF    (CVCURJCB,NE,DBERJCB),BEGIN
 003D78 4110 72D2/4100_      04028 22638  1                      ABORT 'Current line not debugger.'
 003D84                            22645                       END
 003D84 9140 6008/4710_00008       22649                       IF    ~DBBREAK,BEGIN
 003D8C 4110 7354/4100_      040AA 22664  1                      ABORT 'Not in debugging session break.  Command ignored.'
 003D98                            22671                       END
                                   22675
 003D98 5810 B08C/1B00_      0008C 22676                       SCAN  WSCCPRT
 003DEA 58E0 720E/0DEE       03F64 22708                       SCANCHK
                                   22713
 003DF0 4110 7386/4100_      040DC 22714                       TSEG  'CC='
 003E02 5810 6024/1B00_      00024 22732                       TNUM  DBCC
 003E12 D503 71DE 6024_03F34 00024 22754                       IF    (DBCC,EQ,0),BEGIN
 003E1C 4110 72EE/4100_      04044 22772  1                      TSEG  '  (zero,equal)'
 003E2E                            22790                       END
 003E2E D503 725E 6024_03FB4 00024 22794                       IF    (DBCC,EQ,1),BEGIN
 003E38 4110 7389/4100_      040DF 22812  1                      TSEG  '  (minus,mixed,low)'
 003E4A                            22830                       END
 003E4A D503 7262 6024_03FB8 00024 22834                       IF    (DBCC,EQ,2),BEGIN
 003E54 4110 739C/4100_      040F2 22852  1                      TSEG  '  (positive,high)'
 003E66                            22870                       END
 003E66 D503 7266 6024_03FBC 00024 22874                       IF    (DBCC,EQ,3),BEGIN
 003E70 4110 73AD/4100_      04103 22892  1                      TSEG  '  (ones,overflow)'
 003E82                            22910                       END
 003E82 47F0 C7DE            007DE 22914                       B     CVNEXT
 003E86 18D8/9808 D004_            22915                       PEND  ,
 DROP   *,R7
 USING  *,R7
-
-                                  22943                       ¿þþþþþþþþþþþþþþþþþþþþþþþþþÜ
                                   22944                       Ÿ  SHOW CC PRINT OPTIONS  Ÿ
                                   22945                       ¾þþþþþþþþþþþþþþþþþþþþþþþþþ»
 003E94 4040404040404040_          22946              WSCCPRT  SCKW  ,V(LTNPSH),PUSH
1WBUG     (WBUG2025) (13:00) (15MAR04) SCC - show psw condition code                                                        Page   94
0Current Usings:  (DBDSECT,R6) (*,R7) (CP,R11) (CV,R12)
0Loc    Object Code    Addr1 Addr2  Stmt Lv Lineno    Source Statement           (Hibal 5, Asmedit 3.3)  HLASM R4.0  2004/03/15 13.00
+___    ______ ____    _____ _____  ____ __ ______    ______ _________
0003EBC 4040404040404040_          22961                       SCKW  ,V(QUIETPSH),PUSH
 003EE4 4040404040404040_          22976                       SCKW  ,V(COLLPSH),PUSH
 003F0C 4040404040404040_          22991                       SCKW  ,V(SCNINVAL)
1WBUG     (WBUG2025) (13:00) (15MAR04) SCC - show psw condition code                                                        Page   95
0Current Usings:  (DBDSECT,R6) (*,R7) (CP,R11) (CV,R12)
0Loc    Object Code    Addr1 Addr2  Stmt Lv Lineno    Source Statement           (Hibal 5, Asmedit 3.3)  HLASM R4.0  2004/03/15 13.00
+___    ______ ____    _____ _____  ____ __ ______    ______ _________
0                                  23007                       QLTORG
1WBUG     (WBUG2025) (13:00) (15MAR04) PCC - patch psw condition code                                                       Page   96
0Current Usings:  (DBDSECT,R6) (*,R7) (CP,R11) (CV,R12)
0Loc    Object Code    Addr1 Addr2  Stmt Lv Lineno    Source Statement           (Hibal 5, Asmedit 3.3)  HLASM R4.0  2004/03/15 13.00
+___    ______ ____    _____ _____  ____ __ ______    ______ _________
0                                  23072              ¿þþþþþþþþþþþþþþþþþþþþþþþþþþþþþþþþþþþþþþþþþþþþþþþþþþþþþþþþþþþþþþþþþþþþþÜ
                                   23073              Ÿ                                                                     Ÿ
                                   23074              Ÿ                                                                     Ÿ
                                   23075              Ÿ  PCC - patch condition code                                         Ÿ
                                   23076              Ÿ                                                                     Ÿ
                                   23077              Ÿ                                                                     Ÿ
                                   23078              Ÿ                                                                     Ÿ
                                   23079              Ÿ                                                                     Ÿ
                                                      ¾þþþþþþþþþþþþþþþþþþþþþþþþþþþþþþþþþþþþþþþþþþþþþþþþþþþþþþþþþþþþþþþþþþþþþ»
0004114 50E0 D000/9008_      00000 23080              WPCC     XPROC ,
 DROP   *,R7
 USING  *,R7
 00412E 5860 74FA            04628 23123                       L     R6,=A(DBAREA)
                                   23124                       USING DBDSECT,R6
                                   23126
 004132 9180 6008/4710_00008       23127                       IF    ~DBACTIVE,BEGIN
 00413A 4110 755A/4100_      04688 23142  1                      ABORT 'Debugging session not active.'
 004146                            23149                       END
 004146 D503 C1C8 600C_001C8 0000C 23153                       IF    (CVCURJCB,NE,DBERJCB),BEGIN
 004150 4110 753E/4100_      0466C 23171  1                      ABORT 'Current line not debugger.'
 00415C                            23178                       END
 00415C 9140 6008/4710_00008       23182                       IF    ~DBBREAK,BEGIN
 004164 4110 7577/4100_      046A5 23197  1                      ABORT 'Not in debugging session break.  Command ignored.'
 004170                            23204                       END
                                   23208
 004170 D703 6024 6024 00024 00024 23209                       CLEAR DBCC               DEFAULT IS CC=0
 004176 5810 B08C/1B00_      0008C 23216                       SCAN  WPCCPRT            SCAN AND PROCESS OPTION
 0041C8 58E0 7506/0DEE       04634 23248                       SCANCHK
 0041CE 47F0 C7DE            007DE 23253                       B     CVNEXT
 0041D2 18D8/9808 D004_            23254                       PEND  ,
 DROP   *,R7
 USING  *,R7
-
-                                  23282                        ¿þþþþþþþþþþþþþþÜ
                                   23283                        Ÿ  CC OPTIONS  Ÿ
                                   23284                        ¾þþþþþþþþþþþþþþ»
 0041E0 F040404040404040_          23285              WPCCPRT  SCKW  0,WPCC0
 004208 E9C5D9D640404040_          23300                       SCKW  ZERO,WPCC0,A
 004230 C5D8E4C1D3404040_          23315                       SCKW  EQUAL,WPCC0,A
 004258 F140404040404040_          23330                       SCKW  1,WPCC1
 004280 D5C5C7C1E3C9E5C5_          23345                       SCKW  NEGATIVE,WPCC1,A
 0042A8 D3D6E64040404040_          23360                       SCKW  LOW,WPCC1
 0042D0 D4C9E7C5C4404040_          23375                       SCKW  MIXED,WPCC1,A
 0042F8 D4C9D5E4E2404040_          23390                       SCKW  MINUS,WPCC1,A
 004320 F240404040404040_          23405                       SCKW  2,WPCC2
 004348 D7D6E2C9E3C9E5C5_          23420                       SCKW  POSITIVE,WPCC2,A
 004370 C8C9C7C840404040_          23435                       SCKW  HIGH,WPCC2
 004398 D7D3E4E240404040_          23450                       SCKW  PLUS,WPCC2
 0043C0 F340404040404040_          23465                       SCKW  3,WPCC3
1WBUG     (WBUG2025) (13:00) (15MAR04) PCC - patch psw condition code                                                       Page   97
0Current Usings:  (DBDSECT,R6) (*,R7) (CP,R11) (CV,R12)
0Loc    Object Code    Addr1 Addr2  Stmt Lv Lineno    Source Statement           (Hibal 5, Asmedit 3.3)  HLASM R4.0  2004/03/15 13.00
+___    ______ ____    _____ _____  ____ __ ______    ______ _________
00043E8 D6D5C5E240404040_          23480                       SCKW  ONES,WPCC3
 004410 D6E5C5D9C6D3D6E6_          23495                       SCKW  OVERFLOW,WPCC3,A
 004438 4040404040404040_          23510                       SCKW  ,V(SCNINVAL)
                                   23525                       ¿þþþþþþþþþþþþþþþþþþþÜ
                                   23526                       Ÿ  CC SET ROUTINES  Ÿ
                                   23527                       ¾þþþþþþþþþþþþþþþþþþþ»
 004460 50E0 D000/9008_      00000 23528              WPCC0    PROC  ,                  SET CC=0
 DROP   *,R7
 USING  *,R7
 00447A 4110 0000            00000 23570                       LA    R1,0
 00447E 5010 6024            00024 23571                       ST    R1,DBCC
 004482 18D8/9808 D004_            23572                       PEND  ,
 DROP   *,R7
 USING  *,R7
                                   23599
 004490 50E0 D000/9008_      00000 23600              WPCC1    PROC  ,                  SET CC=1
 DROP   *,R7
 USING  *,R7
 0044AA 4110 0001            00001 23642                       LA    R1,1
 0044AE 5010 6024            00024 23643                       ST    R1,DBCC
 0044B2 18D8/9808 D004_            23644                       PEND  ,
 DROP   *,R7
 USING  *,R7
                                   23671
 0044C0 50E0 D000/9008_      00000 23672              WPCC2    PROC  ,                  SET CC=2
 DROP   *,R7
 USING  *,R7
 0044DA 4110 0002            00002 23714                       LA    R1,2
 0044DE 5010 6024            00024 23715                       ST    R1,DBCC
 0044E2 18D8/9808 D004_            23716                       PEND  ,
 DROP   *,R7
 USING  *,R7
                                   23743
 0044F0 50E0 D000/9008_      00000 23744              WPCC3    PROC  ,                  SET CC=3
 DROP   *,R7
 USING  *,R7
 00450A 4110 0003            00003 23786                       LA    R1,3
 00450E 5010 6024            00024 23787                       ST    R1,DBCC
 004512 18D8/9808 D004_            23788                       PEND  ,
 DROP   *,R7
 USING  *,R7
1WBUG     (WBUG2025) (13:00) (15MAR04) PIA - patch instruction address                                                      Page   98
0Current Usings:  (DBDSECT,R6) (*,R7) (CP,R11) (CV,R12)
0Loc    Object Code    Addr1 Addr2  Stmt Lv Lineno    Source Statement           (Hibal 5, Asmedit 3.3)  HLASM R4.0  2004/03/15 13.00
+___    ______ ____    _____ _____  ____ __ ______    ______ _________
0                                  23816              ¿þþþþþþþþþþþþþþþþþþþþþþþþþþþþþþþþþþþþþþþþþþþþþþþþþþþþþþþþþþþþþþþþþþþþþÜ
                                   23817              Ÿ                                                                     Ÿ
                                   23818              Ÿ                                                                     Ÿ
                                   23819              Ÿ  WPIA - patch instruction address                                   Ÿ
                                   23820              Ÿ                                                                     Ÿ
                                   23821              Ÿ                                                                     Ÿ
                                   23822              Ÿ                                                                     Ÿ
                                   23823              Ÿ                                                                     Ÿ
                                                      ¾þþþþþþþþþþþþþþþþþþþþþþþþþþþþþþþþþþþþþþþþþþþþþþþþþþþþþþþþþþþþþþþþþþþþþ»
0004520 50E0 D000/9008_      00000 23824              WPIA     XPROC ,
 DROP   *,R7
 USING  *,R7
 00453A 9120 B3BE/4710_003BE       23867                       IF    ~CPSFSPR,' VCALL NOTVALID'
 004548 5860 70EE            04628 23891                       L     R6,=A(DBAREA)
                                   23892                       USING DBDSECT,R6
                                   23894
 00454C 9180 6008/4710_00008       23895                       IF    ~DBACTIVE,BEGIN
 004554 4110 714E/4100_      04688 23910  1                      ABORT 'Debugging session not active.'
 004560                            23917                       END
 004560 D503 C1C8 600C_001C8 0000C 23921                       IF    (CVCURJCB,NE,DBERJCB),BEGIN
 00456A 4110 7132/4100_      0466C 23939  1                      ABORT 'Current line not debugger.'
 004576                            23946                       END
 004576 9140 6008/4710_00008       23950                       IF    ~DBBREAK,BEGIN
 00457E 4110 716B/4100_      046A5 23965  1                      ABORT 'Not in debugging session break.  Command ignored.'
 00458A                            23972                       END
                                   23976
 00458A 58E0 7102/0DEE       0463C 23977                       ACALL EVALXPRN           EVALUATE INSTRUCTION ADDRESS
                                   23981                       COMMENT                    RETURNS R1=ADDR, R15=CC
 004590 59F0 7106/4770_      04640 23982                       IF    (R15,EQ,4),BEGIN
 004598 4110 70C6/4100_      04600 23999  1                      ABORT 'Missing address operand.'
 0045A4                            24006                       END
 0045A4 59F0 710A/4770_      04644 24010                       IF    (R15,EQ,8),BEGIN
 0045AC 4110 70DE/4100_      04618 24027  1                      ABORT 'Invalid address.'
 0045B8                            24034                       END
 0045B8 58E0 710E/0DEE       04648 24038                       ACALL CHKRADDR
 0045BE 4780 7094            045CE 24042                       IF    NZ,BEGIN
 0045C2 4110 70DE/4100_      04618 24053  1                      ABORT 'Invalid address.'
 0045CE                            24060                       END
 0045CE 58E0 7112/0DEE       0464C 24064                       ACALL CHKIADDR
 0045D4 4780 70AA            045E4 24068                       IF    NZ,BEGIN
 0045D8 4110 7116/4100_      04650 24079  1                      ABORT 'Invalid instruction address.'
 0045E4                            24086                       END
                                   24090
 0045E4 5010 6020            00020 24091                       ST    R1,DBIA            SAVE NEW INSTRUCTION ADDRESS
                                   24092
 0045E8 47F0 C7DE            007DE 24093                       B     CVNEXT
 0045EC 18D8/9808 D004_            24094                       PEND  ,
 DROP   *,R7
 USING  *,R7
1WBUG     (WBUG2025) (13:00) (15MAR04) PIA - patch instruction address                                                      Page   99
0Current Usings:  (DBDSECT,R6) (*,R7) (CP,R11) (CV,R12)
0Loc    Object Code    Addr1 Addr2  Stmt Lv Lineno    Source Statement           (Hibal 5, Asmedit 3.3)  HLASM R4.0  2004/03/15 13.00
+___    ______ ____    _____ _____  ____ __ ______    ______ _________
0                                  24122                       QLTORG
1WBUG     (WBUG2025) (13:00) (15MAR04) TRACE - turn on/off debug tracing                                                    Page  100
0Current Usings:  (DBDSECT,R6) (*,R7) (CP,R11) (CV,R12)
0Loc    Object Code    Addr1 Addr2  Stmt Lv Lineno    Source Statement           (Hibal 5, Asmedit 3.3)  HLASM R4.0  2004/03/15 13.00
+___    ______ ____    _____ _____  ____ __ ______    ______ _________
0                                  24152              ¿þþþþþþþþþþþþþþþþþþþþþþþþþþþþþþþþþþþþþþþþþþþþþþþþþþþþþþþþþþþþþþþþþþþþþÜ
                                   24153              Ÿ                                                                     Ÿ
                                   24154              Ÿ                                                                     Ÿ
                                   24155              Ÿ  TRACE - turn on/off debug tracing                                  Ÿ
                                   24156              Ÿ                                                                     Ÿ
                                   24157              Ÿ                                                                     Ÿ
                                   24158              Ÿ  note: failsoft type tracing is turned on automatically when        Ÿ
                                   24159              Ÿ        a debugging session is started.                              Ÿ
                                   24160              Ÿ                                                                     Ÿ
                                   24161              Ÿ                                                                     Ÿ
                                   24162              Ÿ                                                                     Ÿ
                                                      ¾þþþþþþþþþþþþþþþþþþþþþþþþþþþþþþþþþþþþþþþþþþþþþþþþþþþþþþþþþþþþþþþþþþþþþ»
00046D6 50E0 D000/9008_      00000 24163              WTRACE   XPROC ,
 DROP   *,R7
 USING  *,R7
 0046F0 5860 7538            04C28 24206                       L     R6,=A(DBAREA)
                                   24207
 0046F4 5810 B08C/1B00_      0008C 24208                       SCAN  TRACEPRT ,,        SCAN FOR ON/OFF
 004746 58E0 7544/0DEE       04C34 24240                       SCANCHK
 00474C 47F0 C7DE            007DE 24245                       B     CVNEXT
 004750 18D8/9808 D004_            24246                       PEND  ,
 DROP   *,R7
 USING  *,R7
-
 004760 4040404040404040_          24274              TRACEPRT SCKW  ,TRACEON,NULL       DEFAULT IS ON
 004788 D6D5404040404040_          24289                       SCKW  ON,TRACEON
 0047B0 E8C5E24040404040_          24304                       SCKW  YES,TRACEON
 0047D8 D6C6C64040404040_          24319                       SCKW  OFF,TRACEOFF
 004800 D5D6404040404040_          24334                       SCKW  NO,TRACEOFF
 004828 4040404040404040_          24349                       SCKW  ,V(SCNINVAL)
-
                                   24365                       ¿þþþþþþþþþþþþÜ
                                   24366                       Ÿ  TRACE ON  Ÿ
                                   24367                       ¾þþþþþþþþþþþþ»
 004850 50E0 D000/9008_      00000 24368              TRACEON  PROC  ,                  TURN TRACE ON
 DROP   *,R7
 USING  *,R7
 00486A 9640 6009      00009       24410                       SET   DBTRACE
 00486E 18D8/9808 D004_            24416                       PEND  ,
 DROP   *,R7
 USING  *,R7
-                                  24444                       ¿þþþþþþþþþþþþþÜ
                                   24445                       Ÿ  TRACE OFF  Ÿ
                                   24446                       ¾þþþþþþþþþþþþþ»
 00487C 50E0 D000/9008_      00000 24447              TRACEOFF PROC  ,                  TURN TRACE OFF
 DROP   *,R7
 USING  *,R7
1WBUG     (WBUG2025) (13:00) (15MAR04) TRACE - turn on/off debug tracing                                                    Page  101
0Current Usings:  (DBDSECT,R6) (*,R7) (CP,R11) (CV,R12)
0Loc    Object Code    Addr1 Addr2  Stmt Lv Lineno    Source Statement           (Hibal 5, Asmedit 3.3)  HLASM R4.0  2004/03/15 13.00
+___    ______ ____    _____ _____  ____ __ ______    ______ _________
0004896 94BF 6009      00009       24489                       CLEAR DBTRACE
 00489A 58E0 73A2/0DEE       04C38 24496                       ACALL TRAPSOFF           TURN OFF TRAPS, RESTORES OPCODES
 0048A0 4120 61B4            001B4 24500                       LA    R2,DBTRAPT         CLEAR ALL TRACE TRAPS
 0048A4 4130 00E0            000E0 24501                       LA    R3,(RETTC+2)*(L'DBTRAP)
 0048A8 1B55                       24502                       CLEAR R5
 0048AA 0E24                       24506                       MVCL  R2,R4
 0048AC 58E0 73A6/0DEE       04C3C 24507                       ACALL TRAPSON            TURN REMAINING TRAPS BACK ON
 0048B2 18D8/9808 D004_            24511                       PEND  ,
 DROP   *,R7
 USING  *,R7
1WBUG     (WBUG2025) (13:00) (15MAR04) TRACE - set trace traps                                                              Page  102
0Current Usings:  (DBDSECT,R6) (*,R7) (CP,R11) (CV,R12)
0Loc    Object Code    Addr1 Addr2  Stmt Lv Lineno    Source Statement           (Hibal 5, Asmedit 3.3)  HLASM R4.0  2004/03/15 13.00
+___    ______ ____    _____ _____  ____ __ ______    ______ _________
0                                  24539              ¿þþþþþþþþþþþþþþþþþþþþþþþþþþþþþþþþþþþþþþþþþþþþþþþþþþþþþþþþþþþþþþþþþþþþþÜ
                                   24540              Ÿ                                                                     Ÿ
                                   24541              Ÿ                                                                     Ÿ
                                   24542              Ÿ  TRAPTRC - set trace traps                                          Ÿ
                                   24543              Ÿ                                                                     Ÿ
                                   24544              Ÿ  This routine is called from the trace routine in FAIL.  trace      Ÿ
                                   24545              Ÿ  routine linkages are a bit tricky.  see CVENT in CV and TRC in     Ÿ
                                   24546              Ÿ  FAIL for hints.                                                    Ÿ
                                   24547              Ÿ                                                                     Ÿ
                                   24548              Ÿ  * !!!!                                                             Ÿ
                                   24549              Ÿ  * DO NOT DO XPROC FOR C COMPATIBILITY !!!                          Ÿ
                                   24550              Ÿ  * !!!!                                                             Ÿ
                                   24551              Ÿ                                                                     Ÿ
                                                      ¾þþþþþþþþþþþþþþþþþþþþþþþþþþþþþþþþþþþþþþþþþþþþþþþþþþþþþþþþþþþþþþþþþþþþþ»
00048C0                            24552              TRAPTRC  LABEL ,                  UNIQUE ENTRY
                                   24554                       ENTRY TRAPTRC
 0048C0 0510                       24555                       BALR  R1,0
 USING  *,R1                       24556                       USING *,R1
 0048C2 5810 1366            04C28 24566                       L     R1,=A(DBAREA)
 0048C6 900F 12FC            002FC 24567                       STM   R0,R15,DBTRCSAV-DBDSECT(R1)
 DROP   *,R1                       24568                       DROP  R1
 0048CA 0570                       24575                       BALR  BR,0
 DROP   *,R7                       24576                       USING *,BR
 USING  *,R7
 0048CC 5860 735C            04C28 24589                       L     R6,=A(DBAREA)
                                   24590                       USING DBDSECT,R6
 0048D0 58C0 7374            04C40 24592                       L     CVR,=V(CV)
 0048D4 58D0 C278            00278 24593                       L     R13,CVSTACKE       USE LAST BIT OF STACK FOR DEBUG
 0048D8 5BD0 7378            04C44 24594                       S     R13,=A(DBSTKLEN)
                                   24595              *        BE CAREFUL!!, THIS STACK IS SMALL, IN AKWARD PLACE
                                   24596                   ¿þþþþþþþþþþþþþþþþþþþþþþþþþþþþþþþþþþþþþþþþþþþþþþþþþþþþþþþþþþþþþþþþþþþÜ
                                   24597                   Ÿ  TRACE ONLY IF DEBUG IS ACTIVE, USER IS DEBUGEE, AND NOT ALREADY  Ÿ
                                   24598                   Ÿ      PROCESSING SPIE ROUTINE LEVEL=1, AND IF NOT IN DISPATCHER    Ÿ
                                   24599                   ¾þþþþþþþþþþþþþþþþþþþþþþþþþþþþþþþþþþþþþþþþþþþþþþþþþþþþþþþþþþþþþþþþþþþ»
 0048DC 9180 6008/47E0_00008       24600                       IF    ~DBACTIVE,TTRCEXIT
 0048E4 D503 C1C8 6010_001C8 00010 24618                       IF    ((CVCURJCB,NE,DBEEJCB),AND,(DBEEJCB,NE,0)),TTRCEXIT
 0048F8 9120 6008/4710_00008       24656                       IF    DBRNO,TTRCEXIT
 004900 5810 C7B4            007B4 24674                       L     R1,CVLNKRGS+R13*4  **** TEST FOR DISPATCHER
 004904 5910 C274/4740_      00274 24675                       IF    ((R1,LT,CVSTACK),OR,(R1,GT,CVSTACKE)),TTRCEXIT
                                   24711                       ¿þþþþþþþþþþþþþþþþþþÜ
                                   24712                       Ÿ  GET TRACE INFO  Ÿ
                                   24713                       ¾þþþþþþþþþþþþþþþþþþ»
 USING  TP,R5                      24714                       WITH  (TP,R5),BEGIN      GET TRACE INFO, ADDRESSES
 004914 5850 C7B0            007B0 24728  1                      L     R5,CVLNKRTN
 004918 4110 5004            00004 24729  1                      LA    R1,TPNAME
 00491C 4120 500C            0000C 24730  1                      LA    R2,TPEND  ,
 004920 9150 5000/47E0_00000       24731  1                      IF    TPFKAPUT*TPFMSG,' LA R2,TPENDK'
 00492C 1B33                       24755  1                      SR    R3,R3
 00492E 1B44                       24756  1                      SR    R4,R4
 004930 D507 7354 5004_04C20 00004 24757  1                      IF    (TPNAME,EQ,'ENTRY   '),BEGIN
 00493A 5810 C79C            0079C 24774  2                        L     R1,CVLNKRGS+(R7*4)
 00493E 5B10 737C            04C48 24775  2                        S     R1,=F'8'
 004942 1B22                       24776  2                        SR    R2,R2
1WBUG     (WBUG2025) (13:00) (15MAR04) TRACE - set trace traps                                                              Page  103
0Current Usings:  (TP,R5) (DBDSECT,R6) (*,R7) (CP,R11) (CV,R12)
0Loc    Object Code    Addr1 Addr2  Stmt Lv Lineno    Source Statement           (Hibal 5, Asmedit 3.3)  HLASM R4.0  2004/03/15 13.00
+___    ______ ____    _____ _____  ____ __ ______    ______ _________
0004944 5830 C79C            0079C 24777  2                        L     R3,CVLNKRGS+(R7*4)
 004948 5840 C7B8            007B8 24778  2                        L     R4,CVLNKRGS+(R14*4)
 00494C                            24779  1                      END
 00494C 4101 0000            00000 24783  1                      LA    R0,0(R1)           R1 - ROUTINE NAME ADDR
 004950 4122 0000            00000 24784  1                      LA    R2,0(R2)           R2 - TRACE ADDR
 004954 4133 0000            00000 24785  1                      LA    R3,0(R3)           R3 - ROUTINE ENTRY ADDR
 004958 4144 0000            00000 24786  1                      LA    R4,0(R4)           R4 - ROUTINE RETURN ADDR
 DROP   TP,R5                      24787                       END   , WITH (TP,R5)
                                   24795
 USING  DBTRAP,R5                  24796                       WITH  (DBTRAP,R5),BEGIN  CLEAR TRACE AND ENTRY TRAPS
 00495C 4150 61B4            001B4 24810  1                      LA    R5,DBTRAPT
 004960 D70F 5000 5000 00000 00000 24811  1                      CLEAR DBTRAP
 004966 4150 61C4            001C4 24818  1                      LA    R5,DBTRAPE
 00496A D70F 5000 5000 00000 00000 24819  1                      CLEAR DBTRAP
                                   24826  1                      ¿þþþþþþþþþþþþþþþþþþþþþþþþþþþþþÜ
                                   24827  1                      Ÿ  IF TRACE, SET TRACE TRAPS  Ÿ
                                   24828  1                      ¾þþþþþþþþþþþþþþþþþþþþþþþþþþþþþ»
 004970 9140 6009/47E0_00009       24829  1                      IF    DBTRACE,BEGIN      IF TRACE IS ON, SET TRACE TRAPS
 004978 5920 7380/4780_      04C4C 24844  2                        IF    (R2,NE,0),BEGIN    SET TRACE TRAP
 004980 4150 61B4            001B4 24861  3                          LA    R5,DBTRAPT
 004984 9610 5006      00006       24862  3                          SET   DBTPTRC
 004988 5020 5000            00000 24868  3                          ST    R2,DBTPADDR
 00498C 58E0 7384/0DEE       04C50 24869  3                          ACALL SETTRAP
 004992 D207 5008 1000 00008 00000 24873  3                          MVC   DBTPNAME(8),0(R1)
 004998                            24874  2                        END
 004998 5930 7380/4780_      04C4C 24878  2                        IF    (R3,NE,0),BEGIN    SET ENTRY TRAP
 0049A0 4150 61C4            001C4 24895  3                          LA    R5,DBTRAPE
 0049A4 9608 5006      00006       24896  3                          SET   DBTPNTY
 0049A8 5030 5000            00000 24902  3                          ST    R3,DBTPADDR
 0049AC 58E0 7384/0DEE       04C50 24903  3                          ACALL SETTRAP
 0049B2 D207 5008 1000 00008 00000 24907  3                          MVC   DBTPNAME(8),0(R1)
 0049B8                            24908  2                        END
                                   24912  2           *$ COULD MAKE BELOW CODE LOOK BETTER
 0049B8 5940 7380/4780_      04C4C 24913  2                        IF    (R4,NE,0),BEGIN    SET RETURN TRAP
 0049C0 4150 62C4            002C4 24930  3                          LA    R5,DBTRAPRL        PUSH RETURN TRAP LIST
 0049C4 D503 7350 5000_04C1C 00000 24931  3                          IF    (DBTPADDR,NE,0),BEGIN   IF LAST TRAP EXITS, CLR IT
 0049CE 5010 D000/41D0_      00000 24949  4                            XPUSH R1,,                       BEFORE PUSHING OFF LIST
 0049D6 5810 5000            00000 24952  4                            L     R1,DBTPADDR
 0049DA 4800 5004            00004 24953  4                            LH    R0,DBTPOPCD
 0049DE 4001 0000            00000 24954  4                            STH   R0,0(R1)
 0049E2 4BD0 73AA/5810_      04C76 24955  4                            XPOP  R1,,
 0049EA                            24958  3                          END
 0049EA 4150 62C4            002C4 24962  3                          LA    R5,DBTRAPRL        PUSH RETURN TRAP LIST
 0049EE 4100 61D4            001D4 24963  3                          LA    R0,DBTRAPR
 0049F2 1950/47D0 713A             24964  3                          WHILE (R5,GT,R0),BEGIN
 0049F8 5B50 7388            04C54 24981  4                            S     R5,=A(L'DBTRAP)
 0049FC D20F 5010 5000 00010 00000 24982  4                            MVC   DBTPNEXT(L'DBTRAP),DBTRAP
 004A02 47F0 7126            049F2 24983  3                          END
 004A06 4150 61D4            001D4 24988  3                          LA    R5,DBTRAPR
 004A0A 9604 5006      00006       24989  3                          SET   DBTPRET
 004A0E 5040 5000            00000 24995  3                          ST    R4,DBTPADDR
 004A12 58E0 7384/0DEE       04C50 24996  3                          ACALL SETTRAP
 004A18 D207 5008 1000 00008 00000 25000  3                          MVC   DBTPNAME,0(R1)
 004A1E                            25001  2                        END
1WBUG     (WBUG2025) (13:00) (15MAR04) TRACE - set trace traps                                                              Page  104
0Current Usings:  (DBTRAP,R5) (DBDSECT,R6) (*,R7) (CP,R11) (CV,R12)
0Loc    Object Code    Addr1 Addr2  Stmt Lv Lineno    Source Statement           (Hibal 5, Asmedit 3.3)  HLASM R4.0  2004/03/15 13.00
+___    ______ ____    _____ _____  ____ __ ______    ______ _________
0004A1E                            25005  1                      END
                                   25009  1                      ¿þþþþþþþþþþþþþþþþþþþþþþþþþþþþþþþþþþþþþþþþÜ
                                   25010  1                      Ÿ  IF NOT TRACE, CHECK FOR TRAP BY NAME  Ÿ
                                   25011  1                      ¾þþþþþþþþþþþþþþþþþþþþþþþþþþþþþþþþþþþþþþþþ»
 004A1E 4150 6094            00094 25012  1                      LA    R5,DBTRAPS         LOOK FOR TRAP WITH SAME NAME
 004A22 4140 0010            00010 25013  1                      LA    R4,USERTC
 004A26 1244/47D0 7174_            25014  1                      WHILE ((R4,POS),AND,(@R1,NE,DBTPNAME)),BEGIN
 004A36 4150 5010            00010 25046  2                        LA    R5,DBTPNEXT
 004A3A 0640                       25047  2                        BCTR  R4,0
 004A3C 47F0 715A            04A26 25048  1                      END
 004A40 1244/4780 71BA             25053  1                      IF    (R4,NZ),BEGIN      IF #ROUTINE TRAP NAME MATCHES,,
 004A46 5920 7380/4780_      04C4C 25067  2                        IF    (R2,NE,0),BEGIN    SET TRACE TRAP
 004A4E 4150 61B4            001B4 25084  3                          LA    R5,DBTRAPT
 004A52 9610 5006      00006       25085  3                          SET   DBTPTRC
 004A56 5020 5000            00000 25091  3                          ST    R2,DBTPADDR
 004A5A 58E0 7384/0DEE       04C50 25092  3                          ACALL SETTRAP
 004A60 D207 5008 1000 00008 00000 25096  3                          MVC   DBTPNAME(8),0(R1)
 004A66                            25097  2                        END
 004A66 5930 7380/4780_      04C4C 25101  2                        IF    (R3,NE,0),BEGIN    SET ENTRY TRAP
 004A6E 4150 61C4            001C4 25118  3                          LA    R5,DBTRAPE
 004A72 9608 5006      00006       25119  3                          SET   DBTPNTY
 004A76 5030 5000            00000 25125  3                          ST    R3,DBTPADDR
 004A7A 58E0 7384/0DEE       04C50 25126  3                          ACALL SETTRAP
 004A80 D207 5008 1000 00008 00000 25130  3                          MVC   DBTPNAME(8),0(R1)
 004A86                            25131  2                        END
 004A86                            25135  1                      END
 DROP   DBTRAP,R5                  25139                       END   , WITH (DBTRAP,R5)
                                   25147              ¿þþþþþþÜ
                                   25148              Ÿ      Ÿ
                                   25149              ¾þþþþþþ»
 004A86                            25150              TTRCEXIT LABEL ,
 004A86 980F 62FC            002FC 25152                       LM    R0,R15,DBTRCSAV
 004A8A 07FE                       25153                       BR    RAR
1WBUG     (WBUG2025) (13:00) (15MAR04) SA - show WYLBUR address                                                             Page  105
0Current Usings:  (DBDSECT,R6) (*,R7) (CP,R11) (CV,R12)
0Loc    Object Code    Addr1 Addr2  Stmt Lv Lineno    Source Statement           (Hibal 5, Asmedit 3.3)  HLASM R4.0  2004/03/15 13.00
+___    ______ ____    _____ _____  ____ __ ______    ______ _________
0                                  25155              ¿þþþþþþþþþþþþþþþþþþþþþþþþþþþþþþþþþþþþþþþþþþþþþþþþþþþþþþþþþþþþþþþþþþþþþÜ
                                   25156              Ÿ                                                                     Ÿ
                                   25157              Ÿ                                                                     Ÿ
                                   25158              Ÿ  WSA - show wylbur address                                          Ÿ
                                   25159              Ÿ                                                                     Ÿ
                                   25160              Ÿ                                                                     Ÿ
                                   25161              Ÿ                                                                     Ÿ
                                                      ¾þþþþþþþþþþþþþþþþþþþþþþþþþþþþþþþþþþþþþþþþþþþþþþþþþþþþþþþþþþþþþþþþþþþþþ»
0004A8C 50E0 D000/9008_      00000 25162              WSA      XPROC ,
 DROP   *,R7
 USING  *,R7
 004AA6 5860 7182            04C28 25205                       L     R6,=A(DBAREA)
                                   25206                       USING DBDSECT,R6
 004AAA 58E0 71B2/0DEE       04C58 25208                       ACALL EVALXPRN           EVALUATE ADDRESS EXPRESSION
 004AB0 4780 701A            04AC0 25212                       IF    NZ,BEGIN
 004AB4 4110 71D2/4100_      04C78 25223  1                      ABORT 'Invalid address expression.'
 004AC0                            25230                       END
 004AC0 1821                       25234                       LR    R2,R1              R2 - ADDRESS
                                   25235
 004AC2 5810 B08C/1B00_      0008C 25236                       SCAN  WSAPRT
 004B14 58E0 718E/0DEE       04C34 25268                       SCANCHK
                                   25273
 004B1A 1812/1B00/41F0_            25274                       TNUM  (R2)
 004B28 4110 71BE/4100_      04C64 25296                       TSEG  '   0'
 004B3A 1222/4780 70A8             25314                       IF    (R2,NZ),BEGIN
 004B40 1812/1B00/41F0_            25328  1                      THEX  (R2)
 004B4E                            25350                       END
 004B4E 4110 71ED/4100_      04C93 25354                       TSEG ' '
 004B60 1812                       25372                       LR    R1,R2
 004B62 58E0 71CA/0DEE       04C70 25373                       ACALL TSEGSYM            IF SYMBOLIC FORM, PRINT IT TOO
 004B68 47F0 C7DE            007DE 25377                       B     CVNEXT
 004B6C 18D8/9808 D004_            25378                       PEND  ,
 DROP   *,R7
 USING  *,R7
-
-                                  25406                       ¿þþþþþþþþþþþþþþþþþþþþÜ
                                   25407                       Ÿ  SA PRINT OPTIONS  Ÿ
                                   25408                       ¾þþþþþþþþþþþþþþþþþþþþ»
 004B7C 4040404040404040_          25409              WSAPRT   SCKW  ,V(LTNPSH),PUSH
 004BA4 4040404040404040_          25424                       SCKW  ,V(QUIETPSH),PUSH
 004BCC 4040404040404040_          25439                       SCKW  ,V(COLLPSH),PUSH
 004BF4 4040404040404040_          25454                       SCKW  ,V(SCNINVAL)
1WBUG     (WBUG2025) (13:00) (15MAR04) SA - show WYLBUR address                                                             Page  106
0Current Usings:  (DBDSECT,R6) (*,R7) (CP,R11) (CV,R12)
0Loc    Object Code    Addr1 Addr2  Stmt Lv Lineno    Source Statement           (Hibal 5, Asmedit 3.3)  HLASM R4.0  2004/03/15 13.00
+___    ______ ____    _____ _____  ____ __ ______    ______ _________
0                                  25470                       QLTORG
1WBUG     (WBUG2025) (13:00) (15MAR04) Debug Subroutines - Evaluate ...                                                     Page  107
0Current Usings:  (DBDSECT,R6) (*,R7) (CP,R11) (CV,R12)
0Loc    Object Code    Addr1 Addr2  Stmt Lv Lineno    Source Statement           (Hibal 5, Asmedit 3.3)  HLASM R4.0  2004/03/15 13.00
+___    ______ ____    _____ _____  ____ __ ______    ______ _________
0                                  25508              ¿þþþþþþþþþþþþþþþþþþþþþþþþþþþþþþþþþþþþþþþþþþþþþþþþþþþþþþþþþþþþþþþþþþþþþÜ
                                   25509              Ÿ                                                                     Ÿ
                                   25510              Ÿ                                                                     Ÿ
                                   25511              Ÿ       EVALXPRN - EVALUATE AN ADDRESS EXPRESSION                     Ÿ
                                   25512              Ÿ                                                                     Ÿ
                                   25513              Ÿ       ON ENTRY: SCANNER IS SET UP TO POINT AT EXPRESSION            Ÿ
                                   25514              Ÿ                                                                     Ÿ
                                   25515              Ÿ       ON EXIT:  R1 - VALUE OF EXPRESSION                            Ÿ
                                   25516              Ÿ                 CC SET,  R15=0  OK                                  Ÿ
                                   25517              Ÿ                          R15=4  NO EXPRESSION FOUND                 Ÿ
                                   25518              Ÿ                          R15=8  INVALID EXPRESSION                  Ÿ
                                   25519              Ÿ                                                                     Ÿ
                                   25520              Ÿ                                                                     Ÿ
                                   25521              Ÿ       NOTE: EXPRESSION MUST BE SIMPLE. PLUSES AND MINUSES,          Ÿ
                                   25522              Ÿ             SYMBOLS, @REGISTERS, *, HEXIDCIMAL, AND DECIMAL         Ÿ
                                   25523              Ÿ             VALUES ARE ALLOWED. NOTHING ELSE.                       Ÿ
                                   25524              Ÿ                                                                     Ÿ
                                   25525              Ÿ                                                                     Ÿ
                                   25526              Ÿ                                                                     Ÿ
                                                      ¾þþþþþþþþþþþþþþþþþþþþþþþþþþþþþþþþþþþþþþþþþþþþþþþþþþþþþþþþþþþþþþþþþþþþþ»
0000000                00000 00005 25527              EVWA     RECORD BEGIN ,
 000000                            25535  1           EVVALUE    DS    F                  VALUE OF EXPRESSION
 000004                            25536  1           EVOPR      DS    X                  VALUE OF OPERATOR +/-
 000005                00005 00005 25537                       END   ,
-                                  25547                       ¿þþþþþþþþþþþþþþþþþþþþþþþþþþþþþþþþþþþþþþÜ
                                   25548                       Ÿ  EVALUATE SIMPLE ADDRESS EXPRESSION  Ÿ
                                   25549                       Ÿ                                      Ÿ
                                   25550                       ¾þþþþþþþþþþþþþþþþþþþþþþþþþþþþþþþþþþþþþþ»
 004C94 50E0 D000/9008_      00000 25551              EVALXPRN PROC  EVWA
 DROP   *,R7
 USING  *,R7
 USING  EVWA-(4+36),R8
 004CAE D704 8028 8028 00000 00000 25604                       CLEAR EVWA               INITIALIZE WORK AREA TO ZEROS
 004CB4 D203 8028 77CA 00000 05478 25611                       MVC   EVVALUE(4),=F'0'   ZERO EXPRESSION VALUE
                                   25612
 004CBA 5810 B08C/1B00_      0008C 25613                       SCAN  ,                  SCAN FIRST TERM OF EXPRESSION
 004D08 58E0 77D2/0DEE       05480 25644                       SCANCHK ,
 004D0E 1200/4780 72BE             25649                       IF    (R0,Z),NOEXPR
 004D14 957D 1000/4770_00000       25666                       IF    ((@R1,NE,''''),OR,(@R1,NE,'"')),BEGIN UPCASE TERM
 004D24 58F0 B08C/58E0_      0008C 25697  1                      SCUPCASE (R1),(R0)
 004D2E                            25714                       END
 004D2E 47F0 7124            04DD2 25718                       B     EVALTERM           EVALUATE IT
0                                  25720                       ¿þþþþþþþþþþþþþþþþþþþþþþþþþþþþþþþþþþþþþÜ
                                   25721                       Ÿ  LOOP THRU ALL TERMS IN EXPRESSION  Ÿ
                                   25722                       ¾þþþþþþþþþþþþþþþþþþþþþþþþþþþþþþþþþþþþþ»
 004D32                            25723              EVALLOOP LABEL ,
 004D32 58E0 B08C/581E_      0008C 25725                       SCINFO
 004D40 1200/4780 72AC             25734                       IF    (R0,Z),EVALDONE           IF NO MORE TERMS, EXIT
 004D46 9540 1000/4780_00000       25751                       IF    (@R1,EQ,' '),EVALDONE     IF END OF EXPRESSION, EXIT
 004D4E 956B 1000/4780_00000       25770                       IF    (@R1,EQ,','),EVALDONE     IF END OF EXPRESSION, EXIT
1WBUG     (WBUG2025) (13:00) (15MAR04) Debug Subroutines - Evaluate ...                                                     Page  108
0Current Usings:  (DBDSECT,R6) (*,R7) (EVWA-(4+36),R8) (CP,R11) (CV,R12)
0Loc    Object Code    Addr1 Addr2  Stmt Lv Lineno    Source Statement           (Hibal 5, Asmedit 3.3)  HLASM R4.0  2004/03/15 13.00
+___    ______ ____    _____ _____  ____ __ ______    ______ _________
0004D56 957E 1000/4780_00000       25789                       IF    (@R1,EQ,'='),EVALDONE     IF END OF EXPRESSION, EXIT
                                   25808
 004D5E 5810 B08C/1B00_      0008C 25809                       SCAN  ,                  SCAN NEXT TERM
 004DAC 58E0 77D2/0DEE       05480 25840                       SCANCHK ,
 004DB2 1200/4780 72AC             25845                       IF    (R0,Z),EVALDONE           IF NO NEXT TERM, EXIT
 004DB8 957D 1000/4770_00000       25862                       IF    ((@R1,NE,''''),OR,(@R1,NE,'"')),BEGIN UPCASE TERM
 004DC8 58F0 B08C/58E0_      0008C 25893  1                      SCUPCASE (R1),(R0)
 004DD2                            25910                       END
                                   25914              *
                                   25915              *                                 EVALUATE EXPRESSION TERMS
 004DD2                            25916              EVALTERM LABEL ,                  OH YEAH !!
                                   25918                       COMMENT
0                                  25920                       ¿þþþþþþþþþþþþþÜ
                                   25921                       Ÿ  PLUS SIGN  Ÿ
                                   25922                       ¾þþþþþþþþþþþþþ»
 004DD2 954E 1000/4770_00000       25923                       IF    (@R1,EQ,'+'),BEGIN
 004DDA 9500 802C      00004       25939  1                      CLI   EVOPR,0
 004DDE 4770 72C8            04F76 25940  1                      BNE   BADEXPR
 004DE2 924E 802C      00004       25941  1                      MVI   EVOPR,C'+'         SET ADDITION OPERATOR
 004DE6 47F0 7084            04D32 25942  1                      B     EVALLOOP
 004DEA                            25943                       END
                                   25947                       ¿þþþþþþþþþþþþþþÜ
                                   25948                       Ÿ  MINUS SIGN  Ÿ
                                   25949                       ¾þþþþþþþþþþþþþþ»
 004DEA 9560 1000/4770_00000       25950                       IF    (@R1,EQ,'-'),BEGIN
 004DF2 9500 802C      00004       25966  1                      CLI   EVOPR,0
 004DF6 4770 72C8            04F76 25967  1                      BNE   BADEXPR
 004DFA 9260 802C      00004       25968  1                      MVI   EVOPR,C'-'         SET SUBTRACT OPERATOR
 004DFE 47F0 7084            04D32 25969  1                      B     EVALLOOP
 004E02                            25970                       END
                                   25974                       ¿þþþþþþþþþþþþþþÜ
                                   25975                       Ÿ  @ REGISTER  Ÿ
                                   25976                       ¾þþþþþþþþþþþþþþ»
 004E02 957C 1000/4770_00000       25977                       IF    (@R1,EQ,'@'),BEGIN
 004E0A 9140 6008/47E0_00008       25993  1                      IF    ~DBBREAK,BADEXPR   NOT AT BREAK, NO REGISTERS
 004E12 4111 0001            00001 26011  1                      LA    R1,1(R1)           SKIP TO REGISTER NUMBER
 004E16 5B00 77DA            05488 26012  1                      S     R0,=F'1'
 004E1A 47D0 72C8            04F76 26013  1                      BNP   BADEXPR
 004E1E 95F0 1000/4770_00000       26014  1                      IF    (@R1,EQ,'0'),' VCALL XTB '    CONVERT REG # TO BINARY
 004E2C 7182/47F0 7188_04E2C 04E24 26039  1                      ELSE  'VCALL DTB '
 004E36 1200/4720 72C8             26059  1                      IF    (R0,POS),BADEXPR
 004E3C 59F0 77E6/4740_      05494 26076  1                      IF    ((R15,LT,0),OR,(R15,GT,15)),BADEXPR  0 <= REG # <= 15
 004E4C 89F0 0002            00002 26112  1                      SLL   R15,2
 004E50 581F 6044            00044 26113  1                      L     R1,DBREGS(R15)     GET VALUE OF REGISTER
 004E54 5820 77EE            0549C 26114  1                      L     R2,=X'FF000000'
 004E58 1421                       26115  1                      NR    R2,R1
 004E5A 5920 77F2/4780_      054A0 26116  1                      IF    (R2,NE,X'FF000000'),BEGIN
 004E62 4111 0000            00000 26133  2                        LA    R1,0(R1)
 004E66                            26134  1                      END
 004E66 9560 802C/4770_00004       26138  1                      IF    (EVOPR,EQ,'-'),BEGIN
 004E6E 1311                       26155  2                        LCR   R1,R1
 004E70                            26156  1                      END   ,                  SUBTRACT OR ADD
 004E70 5A10 8028            00000 26160  1                      A     R1,EVVALUE         ADD VALUE TO EXPRESSION
1WBUG     (WBUG2025) (13:00) (15MAR04) Debug Subroutines - Evaluate ...                                                     Page  109
0Current Usings:  (DBDSECT,R6) (*,R7) (EVWA-(4+36),R8) (CP,R11) (CV,R12)
0Loc    Object Code    Addr1 Addr2  Stmt Lv Lineno    Source Statement           (Hibal 5, Asmedit 3.3)  HLASM R4.0  2004/03/15 13.00
+___    ______ ____    _____ _____  ____ __ ______    ______ _________
0004E74 5010 8028            00000 26161  1                      ST    R1,EVVALUE
 004E78 9200 802C      00004       26162  1                      MVI   EVOPR,0            CLEAR OPERATOR
 004E7C 47F0 7084            04D32 26163  1                      B     EVALLOOP
 004E80                            26164                       END
                                   26168                       ¿þþþþþþþþþþþþþþþþþþþþþþþþþþþþþþþþþþþÜ
                                   26169                       Ÿ  *,  CURRENT INSTRUCTION ADDRESS  Ÿ
                                   26170                       ¾þþþþþþþþþþþþþþþþþþþþþþþþþþþþþþþþþþþ»
 004E80 955C 1000/4770_00000       26171                       IF    ((@R1,EQ,'*'),AND,(R0,EQ,1)),BEGIN
 004E90 9140 6008/47E0_00008       26203  1                      IF    ~DBBREAK,BADEXPR
 004E98 5810 6020            00020 26221  1                      L     R1,DBIA            GET INSTRUCTION ADDR VALUE
 004E9C 9560 802C/4770_00004       26222  1                      IF    (EVOPR,EQ,'-'),BEGIN
 004EA4 1311                       26239  2                        LCR   R1,R1
 004EA6                            26240  1                      END   ,                   SUBTRACT OR
 004EA6 5A10 8028            00000 26244  1                      A     R1,EVVALUE         ADD VALUE TO EXPRESSION
 004EAA 5010 8028            00000 26245  1                      ST    R1,EVVALUE
 004EAE 9200 802C      00004       26246  1                      MVI   EVOPR,0            CLEAR OPERATOR
 004EB2 47F0 7084            04D32 26247  1                      B     EVALLOOP
 004EB6                            26248                       END
                                   26252                       ¿þþþþþþþþþþþþþþÜ
                                   26253                       Ÿ  HEX NUMBER  Ÿ
                                   26254                       ¾þþþþþþþþþþþþþþ»
 004EB6 95F0 1000/4770_00000       26255                       IF    (@R1,EQ,'0'),BEGIN
 004EBE 5900 77E6/47C0_      05494 26271  1                      IF    (R0,LE,0),BADEXPR
 004EC6 58E0 77DE/0DEE       0548C 26291  1                      VCALL XTB                CONVERT HEX TO BINARY
 004ECC 1200/4720 72C8             26295  1                      IF    (R0,POS),BADEXPR
 004ED2 181F                       26312  1                      LR    R1,R15             R1 - HEX VALUE
 004ED4 9560 802C/4770_00004       26313  1                      IF    (EVOPR,EQ,'-'),BEGIN
 004EDC 1311                       26330  2                        LCR   R1,R1
 004EDE                            26331  1                      END   ,                  SUBTRACT OR,
 004EDE 5A10 8028            00000 26335  1                      A     R1,EVVALUE         ADD VALUE TO EXPRESSION
 004EE2 5010 8028            00000 26336  1                      ST    R1,EVVALUE
 004EE6 9200 802C      00004       26337  1                      MVI   EVOPR,0            CLEAR OPERATOR
 004EEA 47F0 7084            04D32 26338  1                      B     EVALLOOP
 004EEE                            26339                       END
                                   26343                       ¿þþþþþþþþþþþþþþþþþþÜ
                                   26344                       Ÿ  DECIMAL NUMBER  Ÿ
                                   26345                       ¾þþþþþþþþþþþþþþþþþþ»
 004EEE 95F1 1000/4750_00000       26346                       IF    ((@R1,GE,'1'),AND,(@R1,LE,'9')),BEGIN
 004EFE 5900 77E6/47C0_      05494 26377  1                      IF    (R0,LE,0),BADEXPR
 004F06 58E0 77E2/0DEE       05490 26397  1                      VCALL DTB                CONVERT DEC TO BINARY
 004F0C 1200/4720 72C8             26401  1                      IF    (R0,POS),BADEXPR
 004F12 181F                       26418  1                      LR    R1,R15             R1 - DECIMAL VALUE
 004F14 9560 802C/4770_00004       26419  1                      IF    (EVOPR,EQ,'-'),BEGIN
 004F1C 1311                       26436  2                        LCR   R1,R1
 004F1E                            26437  1                      END   ,                  SUBTRACT OR
 004F1E 5A10 8028            00000 26441  1                      A     R1,EVVALUE         ADD VALUE TO EXPRESSION
 004F22 5010 8028            00000 26442  1                      ST    R1,EVVALUE
 004F26 9200 802C      00004       26443  1                      MVI   EVOPR,0            CLEAR OPERATOR
 004F2A 47F0 7084            04D32 26444  1                      B     EVALLOOP
 004F2E                            26445                       END
1WBUG     (WBUG2025) (13:00) (15MAR04) Debug Subroutines - Evaluate ...                                                     Page  110
0Current Usings:  (DBDSECT,R6) (*,R7) (EVWA-(4+36),R8) (CP,R11) (CV,R12)
0Loc    Object Code    Addr1 Addr2  Stmt Lv Lineno    Source Statement           (Hibal 5, Asmedit 3.3)  HLASM R4.0  2004/03/15 13.00
+___    ______ ____    _____ _____  ____ __ ______    ______ _________
0                                  26449                       ¿þþþþþþþþþþþþþþþþþþþþþþþþþþþþþÜ
                                   26450                       Ÿ  TRACE SUBROUTINE ADDRESS,  Ÿ
                                   26451                       ¾þþþþþþþþþþþþþþþþþþþþþþþþþþþþþ»
 004F2E 957B 1000/4770_00000       26452                       IF    (@R1,EQ,'#'),BEGIN
                                   26468  1                      COMMENT                  TRACE SUBROUTINES CAN NOT BE
                                   26469  1                      COMMENT                  EVALUATED, PROCESS AS #SYMBOL BELOW
 004F36                            26470                       END
                                   26474                       ¿þþþþþþþþþþÜ
                                   26475                       Ÿ  SYMBOL  Ÿ
                                   26476                       ¾þþþþþþþþþþ»
 004F36                            26477                       BEGIN
 004F36 58E0 77FA/0DEE       054A8 26481  1                      ACALL EVALSYM            EVALUATE SYMBOL, VALUE
 004F3C 4770 72C8            04F76 26485  1                      BNZ   BADEXPR            R1 - SYMBOL VALUE
 004F40 9560 802C/4770_00004       26486  1                      IF    (EVOPR,EQ,'-'),BEGIN
 004F48 1311                       26503  2                        LCR   R1,R1
 004F4A                            26504  1                      END   ,                  SUBTRACT OR ,,
 004F4A 5A10 8028            00000 26508  1                      A     R1,EVVALUE         ADD VALUE TO EXPRESSION
 004F4E 5010 8028            00000 26509  1                      ST    R1,EVVALUE
 004F52 9200 802C      00004       26510  1                      MVI   EVOPR,0            CLEAR OPERATOR
 004F56 47F0 7084            04D32 26511  1                      B     EVALLOOP
 004F5A                            26512                       END
                                   26516                       ¿þþþþþþþþþþþþþþþþþþþþþþþþþþþþþþþþþþþÜ
                                   26517                       Ÿ  GOT EVALUATED ADDRESS, CHECK IT  Ÿ
                                   26518                       ¾þþþþþþþþþþþþþþþþþþþþþþþþþþþþþþþþþþþ»
 004F5A                            26519              EVALDONE LABEL ,
 004F5A 9500 802C      00004       26521                       CLI   EVOPR,0            NO HANGING OPERATORS
 004F5E 4770 72C8            04F76 26522                       BNE   BADEXPR
 004F62 5810 8028            00000 26523                       L     R1,EVVALUE         RETURN VALUE, CC=0
 004F66 1BFF                       26524                       SR    R15,R15
 004F68 47F0 72D2            04F80 26525                       B     EVALEXIT
                                   26526                       ¿þþþþþþþþþþþþþþþþþþþþþþþþþþþþþþþþþÜ
                                   26527                       Ÿ  ERROR IN EXPRESION EVAULATION  Ÿ
                                   26528                       ¾þþþþþþþþþþþþþþþþþþþþþþþþþþþþþþþþþ»
 004F6C                            26529              NOEXPR   LABEL ,                  NO EXPRESSION
 004F6C 1B11                       26531                       SR    R1,R1
 004F6E 41F0 0004            00004 26532                       LA    R15,4
 004F72 47F0 72D2            04F80 26533                       B     EVALEXIT
                                   26534
 004F76                            26535              BADEXPR  LABEL ,                  INVALID EXPRESSION
 004F76 1B11                       26537                       SR    R1,R1
 004F78 41F0 0008            00008 26538                       LA    R15,8
 004F7C 47F0 72D2            04F80 26539                       B     EVALEXIT
                                   26540              *
                                   26541              *
                                   26542              *
 004F80                            26543              EVALEXIT LABEL ,
 004F80 9001 8004            00004 26545                       PRETURN (R0,R1)
 004F84 18D8/9808 D004_            26547                       PEND  ,
 DROP   EVWA-(4+36),R8
 DROP   *,R7
 USING  *,R7
1WBUG     (WBUG2025) (13:00) (15MAR04) Debug Subroutines - Evaluate ...                                                     Page  111
0Current Usings:  (DBDSECT,R6) (*,R7) (CP,R11) (CV,R12)
0Loc    Object Code    Addr1 Addr2  Stmt Lv Lineno    Source Statement           (Hibal 5, Asmedit 3.3)  HLASM R4.0  2004/03/15 13.00
+___    ______ ____    _____ _____  ____ __ ______    ______ _________
0                                  26580              ¿þþþþþþþþþþþþþþþþþþþþþþþþþþþþþþþþþþþþþþþþþþþþþþþþþþþþþþþþþþþþþþþþþþþþþÜ
                                   26581              Ÿ                                                                     Ÿ
                                   26582              Ÿ                                                                     Ÿ
                                   26583              Ÿ  EVALSYM - find value of symbolic address                           Ÿ
                                   26584              Ÿ                                                                     Ÿ
                                   26585              Ÿ  on entry:  r1 - location of symbol                                 Ÿ
                                   26586              Ÿ             r0 - length of symbol                                   Ÿ
                                   26587              Ÿ                                                                     Ÿ
                                   26588              Ÿ  on exit:   r1 - symbol address                                     Ÿ
                                   26589              Ÿ            r15 - CC=0 symbol found,  CC=NZ symbol not found (r1=0)  Ÿ
                                   26590              Ÿ                                                                     Ÿ
                                   26591              Ÿ                                                                     Ÿ
                                   26592              Ÿ                                                                     Ÿ
                                                      ¾þþþþþþþþþþþþþþþþþþþþþþþþþþþþþþþþþþþþþþþþþþþþþþþþþþþþþþþþþþþþþþþþþþþþþ»
0000000                00000 00010 26593              EVWA2    RECORD BEGIN ,           WORK AREA FOR SYMBOL, ADDR EVAL
 000000                            26601  1           EV2SYM     DS    CL8                SYMBOL
 000008                            26602  1           EV2ADDR    DS    F                  ADDR
 00000C                            26603  1           EV2OFF     DS    F                  OFFSET
 000010                00010 00010 26604                       END   ,
-                                  26614                        ¿þþþþþþþþþþþþþþþþþþþÜ
                                   26615                        Ÿ  EVALUATE SYMBOL  Ÿ
                                   26616                        Ÿ                   Ÿ
                                   26617                        ¾þþþþþþþþþþþþþþþþþþþ»
 004F92 50E0 D000/9008_      00000 26618              EVALSYM  PROC  EVWA2
 DROP   *,R7
 USING  *,R7
 USING  EVWA2-(4+36),R8
 004FAC D207 8028 C4D8 00000 004D8 26671                       MVC   EV2SYM(8),CVBLANKS
 004FB2 5900 74F8/4740_      054A4 26672                       IF    ((R0,LT,1),OR,(R0,GT,8)),BADSYM
 004FC2 1820                       26708                       LR    R2,R0
 004FC4 0620/4420 7532_            26709                       DEX   R2,' MVC EV2SYM(0),0(R1)'
                                   26728                        ¿þþþþþþþþþþþþþþþþþþþþþþÜ
                                   26729                        Ÿ  CHECK SYMBOL TABLE  Ÿ
                                   26730                        ¾þþþþþþþþþþþþþþþþþþþþþþ»
 004FCA 5820 7504            054B0 26731                       L     R2,=V(SYMBOLS)
 USING  SYMBOL,R2                  26732                       WITH  (SYMBOL,R2),BEGIN
 004FCE 95FF 2000/4780_00000       26746  1                      UNTIL SYMFEND,BEGIN      LOOP THRU SYMBOL TABLE
 004FD6 D507 2008 8028_00008 00000 26766  2                        IF    (SYMNAME,EQ,EV2SYM),BEGIN    IF SYMBOL FOUND, ,,,
 004FE0 1F11/BF17 2001             26784  3                          L3    R1,SYMADDR                         R1 - ADDR, CC = 0
 004FE6 4111 0000            00000 26792  3                          LA    R1,0(R1)
 004FEA 1BFF                       26793  3                          SR    R15,R15
 004FEC 47F0 7136            050E2 26794  3                          B     ESYMEXIT
 004FF0                            26795  2                        END
 004FF0 4120 2010            00010 26799  2                        LA    R2,SYMNEXT
 004FF4 47F0 7022            04FCE 26800  1                      END
 DROP   SYMBOL,R2                  26805                       END   , WITH (SYMBOL,R2)
1WBUG     (WBUG2025) (13:00) (15MAR04) Debug Subroutines - Evaluate ...                                                     Page  112
0Current Usings:  (DBDSECT,R6) (*,R7) (EVWA2-(4+36),R8) (CP,R11) (CV,R12)
0Loc    Object Code    Addr1 Addr2  Stmt Lv Lineno    Source Statement           (Hibal 5, Asmedit 3.3)  HLASM R4.0  2004/03/15 13.00
+___    ______ ____    _____ _____  ____ __ ______    ______ _________
0                                  26813                       ¿þþþþþþþþþþþþþþþþþþþþþþþþþÜ
                                   26814                       Ÿ  CHECK ODDBALL SYMBOLS  Ÿ
                                   26815                       ¾þþþþþþþþþþþþþþþþþþþþþþþþþ»
 004FF8 D507 7494 8028_05440 00000 26816                       IF    (EV2SYM,EQ,'CP      '),BEGIN    IF CP,
                                   26833  1                      COMMENT
 005002 D503 C1C8 600C_001C8 0000C 26834  1                      IF    ((CVCURJCB,EQ,DBERJCB),AND,(DBEEJCB,NE,0)),BEGIN
 005016 5810 6014            00014 26869  2                        L     R1,DBEECP
 00501A 1BFF                       26870  2                        SR    R15,R15                         IF DEBUGGER,
 00501C 47F0 7136            050E2 26871  2                        B     ESYMEXIT                           SHOW DEBUGGEE CP
 005020                            26872  1                      END
 005020 7078/7078/47F0_05020 0500A 26876  1                      ELSE  BEGIN
 005024 4110 B000            00000 26889  2                        LA    R1,CP
 005028 1BFF                       26890  2                        SR    R15,R15
 00502A 47F0 7136            050E2 26891  2                        B     ESYMEXIT
 00502E                            26892  1                      END
 00502E                            26896                       END
 00502E D507 749C 8028_05448 00000 26900                       IF    (EV2SYM,EQ,'STACK   '),BEGIN    IF STACK ,,
 005038 5810 C274            00274 26917  1                      L     R1,CVSTACK
 00503C 1BFF                       26918  1                      SR    R15,R15
 00503E 47F0 7136            050E2 26919  1                      B     ESYMEXIT
 005042                            26920                       END
 005042 D507 74A4 8028_05450 00000 26924                       IF    (EV2SYM,EQ,'HEAP    '),BEGIN    IF HEAP ,,
 00504C 5810 C280            00280 26941  1                      L     R1,CVHEAP
 005050 1BFF                       26942  1                      SR    R15,R15
 005052 47F0 7136            050E2 26943  1                      B     ESYMEXIT
 005056                            26944                       END
 005056 D507 74AC 8028_05458 00000 26948                       IF    (EV2SYM,EQ,'JCB     '),BEGIN    IF JCB,,
                                   26965  1                      COMMENT
 005060 D503 C1C8 600C_001C8 0000C 26966  1                      IF    ((CVCURJCB,EQ,DBERJCB),AND,(DBEEJCB,NE,0)),BEGIN
 005074 5810 6010            00010 27001  2                        L     R1,DBEEJCB
 005078 1BFF                       27002  2                        SR    R15,R15                         IF DEBUGGER,
 00507A 47F0 7136            050E2 27003  2                        B     ESYMEXIT                           SHOW DEBUGEE JCB
 00507E                            27004  1                      END
 00507E 70D6/70D6/47F0_0507E 05068 27008  1                      ELSE  BEGIN
 005082 5810 C1C8            001C8 27021  2                        L     R1,CVCURJCB
 005086 1BFF                       27022  2                        SR    R15,R15
 005088 47F0 7136            050E2 27023  2                        B     ESYMEXIT
 00508C                            27024  1                      END
 00508C                            27028                       END
 00508C D507 74B4 8028_05460 00000 27032                       IF    (EV2SYM,EQ,'PGA     '),BEGIN    IF PAGE A ,,
 005096 D503 7490 62D8_0543C 002D8 27049  1                      IF    (DBPAR,NE,0),BEGIN                  AND PAGE A EXISTS
 0050A0 5810 62D8            002D8 27067  2                        L     R1,DBPAR
 0050A4 1BFF                       27068  2                        SR    R15,R15
 0050A6 47F0 7136            050E2 27069  2                        B     ESYMEXIT
 0050AA                            27070  1                      END
 0050AA                            27074                       END
 0050AA D507 74BC 8028_05468 00000 27078                       IF    (EV2SYM,EQ,'PGB     '),BEGIN    IF PAGE B ,,
 0050B4 D503 7490 62D8_0543C 002D8 27095  1                      IF    (DBPAR,NE,0),BEGIN                  AND PAGE B EXISTS
 0050BE 5810 62DC            002DC 27113  2                        L     R1,DBPBR
 0050C2 1BFF                       27114  2                        SR    R15,R15
 0050C4 47F0 7136            050E2 27115  2                        B     ESYMEXIT
 0050C8                            27116  1                      END
 0050C8                            27120                       END
 0050C8 D507 74C4 8028_05470 00000 27124                       IF    (EV2SYM,EQ,'DBAREA  '),BEGIN   IF DBAREA ,,
1WBUG     (WBUG2025) (13:00) (15MAR04) Debug Subroutines - Evaluate ...                                                     Page  113
0Current Usings:  (DBDSECT,R6) (*,R7) (EVWA2-(4+36),R8) (CP,R11) (CV,R12)
0Loc    Object Code    Addr1 Addr2  Stmt Lv Lineno    Source Statement           (Hibal 5, Asmedit 3.3)  HLASM R4.0  2004/03/15 13.00
+___    ______ ____    _____ _____  ____ __ ______    ______ _________
00050D2 5810 7508            054B4 27141  1                      L     R1,=A(DBAREA)
 0050D6 1BFF                       27142  1                      SR    R15,R15
 0050D8 47F0 7136            050E2 27143  1                      B     ESYMEXIT
 0050DC                            27144                       END
-                                  27149
 0050DC                            27150              BADSYM   LABEL ,                  BAD OR NO SYMBOL
 0050DC 1B11                       27152                       SR    R1,R1                 R1 = 0, CC = NZ
 0050DE 41F0 0004            00004 27153                       LA    R15,4
                                   27154
 0050E2                            27155              ESYMEXIT LABEL ,
 0050E2 9001 8004            00004 27157                       PRETURN (R0,R1)
 0050E6 18D8/9808 D004_            27159                       PEND  ,
 DROP   EVWA2-(4+36),R8
 DROP   *,R7
 USING  *,R7
1WBUG     (WBUG2025) (13:00) (15MAR04) Debug Subroutines - Evaluate ...                                                     Page  114
0Current Usings:  (DBDSECT,R6) (*,R7) (CP,R11) (CV,R12)
0Loc    Object Code    Addr1 Addr2  Stmt Lv Lineno    Source Statement           (Hibal 5, Asmedit 3.3)  HLASM R4.0  2004/03/15 13.00
+___    ______ ____    _____ _____  ____ __ ______    ______ _________
0                                  27192              ¿þþþþþþþþþþþþþþþþþþþþþþþþþþþþþþþþþþþþþþþþþþþþþþþþþþþþþþþþþþþþþþþþþþþþþÜ
                                   27193              Ÿ                                                                     Ÿ
                                   27194              Ÿ                                                                     Ÿ
                                   27195              Ÿ  EVALADDR - evaluate address into CSECT+OFFSET value                Ÿ
                                   27196              Ÿ                                                                     Ÿ
                                   27197              Ÿ  on entry:   r1 - address                                           Ÿ
                                   27198              Ÿ                                                                     Ÿ
                                   27199              Ÿ  on exit:    r1 - offset                                            Ÿ
                                   27200              Ÿ              r15,r0 - csect name                                    Ÿ
                                   27201              Ÿ              if r15=0, no csect found, r1 = address                 Ÿ
                                   27202              Ÿ                                                                     Ÿ
                                   27203              Ÿ                                                                     Ÿ
                                                      ¾þþþþþþþþþþþþþþþþþþþþþþþþþþþþþþþþþþþþþþþþþþþþþþþþþþþþþþþþþþþþþþþþþþþþþ»
00050F4 50E0 D000/9008_      00000 27204              EVALADDR PROC  EVWA2
 DROP   *,R7
 USING  *,R7
 USING  EVWA2-(4+36),R8
 00510E 5010 8030            00008 27257                       ST    R1,EV2ADDR         INIT WORK AREA
 005112 4111 0000            00000 27258                       LA    R1,0(R1)
                                   27259              *
                                   27260              * CHECK FOR ODDBALLS FIRST
                                   27261              *
 005116 4120 B000            00000 27262                       LA    R2,CP                                        IF CP,
 00511A 1832                       27263                       LR    R3,R2
 00511C 5A30 73AA            054B8 27264                       A     R3,=A(CPXSIZE)
 005120 1912/4750 702E_            27265                       IF    ((R1,GE,R2),AND,(R1,LT,R3)),BEGIN
 00512C D207 8028 7332 00000 05440 27294  1                      MVC   EV2SYM(8),=C'CP      '
 005132 1B12                       27295  1                      SR    R1,R2
 005134 5010 8034            0000C 27296  1                      ST    R1,EV2OFF
 005138 47F0 71AC            052BA 27297  1                      B     EADREXIT
 00513C                            27298                       END
                                   27302
 00513C D503 C1C8 600C_001C8 0000C 27303                       IF    ((CVCURJCB,EQ,DBERJCB),AND,(DBEEJCB,NE,0)),BEGIN
 005150 5820 6014            00014 27338  1                      L     R2,DBEECP
 005154 1832                       27339  1                      LR    R3,R2                             IF DEBUGGER,
 005156 5A30 73AA            054B8 27340  1                      A     R3,=A(CPXSIZE)                      CHECK DEBUGGEE CP
 00515A 1912/4750 7068_            27341  1                      IF    ((R1,GE,R2),AND,(R1,LT,R3)),BEGIN
 005166 D207 8028 7332 00000 05440 27370  2                        MVC   EV2SYM(8),=C'CP      '
 00516C 1B12                       27371  2                        SR    R1,R2
 00516E 5010 8034            0000C 27372  2                        ST    R1,EV2OFF
 005172 47F0 71AC            052BA 27373  2                        B     EADREXIT
 005176                            27374  1                      END
 005176                            27378                       END
                                   27382
 005176 5910 C274/4750_      00274 27383                       IF    ((R1,GE,CVSTACK),AND,(R1,LT,CVSTACKE)),BEGIN IF STACK,
 005186 D207 8028 733A 00000 05448 27416  1                      MVC   EV2SYM(8),=C'STACK   '
 00518C 5B10 C274            00274 27417  1                      S     R1,CVSTACK
 005190 5010 8034            0000C 27418  1                      ST    R1,EV2OFF
 005194 47F0 71AC            052BA 27419  1                      B     EADREXIT
 005198                            27420                       END
                                   27424
 005198 5910 C280/4750_      00280 27425                       IF    ((R1,GE,CVHEAP),AND,(R1,LT,CVHEAPE)),BEGIN  IF HEAP,
 0051A8 D207 8028 7342 00000 05450 27458  1                      MVC   EV2SYM(8),=C'HEAP    '
1WBUG     (WBUG2025) (13:00) (15MAR04) Debug Subroutines - Evaluate ...                                                     Page  115
0Current Usings:  (DBDSECT,R6) (*,R7) (EVWA2-(4+36),R8) (CP,R11) (CV,R12)
0Loc    Object Code    Addr1 Addr2  Stmt Lv Lineno    Source Statement           (Hibal 5, Asmedit 3.3)  HLASM R4.0  2004/03/15 13.00
+___    ______ ____    _____ _____  ____ __ ______    ______ _________
00051AE 5B10 C280            00280 27459  1                      S     R1,CVHEAP
 0051B2 5010 8034            0000C 27460  1                      ST    R1,EV2OFF
 0051B6 47F0 71AC            052BA 27461  1                      B     EADREXIT
 0051BA                            27462                       END
                                   27466
 0051BA 5820 62D8            002D8 27467                       L     R2,DBPAR                               IF PAR, ,,,
 0051BE 1222/4780 70D8             27468                       IF    (R2,NZ),BEGIN
 0051C4 1832                       27482  1                      LR    R3,R2
 0051C6 4A30 73CC            054DA 27483  1                      AH    R3,=AL2(CVPSZ)
 0051CA 1912/4750 70D8_            27484  1                      IF    ((R1,GE,R2),AND,(R1,LT,R3)),BEGIN
 0051D6 D207 8028 7352 00000 05460 27513  2                        MVC   EV2SYM(8),=C'PGA     '
 0051DC 1B12                       27514  2                        SR    R1,R2
 0051DE 5010 8034            0000C 27515  2                        ST    R1,EV2OFF
 0051E2 47F0 71AC            052BA 27516  2                        B     EADREXIT
 0051E6                            27517  1                      END
 0051E6                            27521                       END
                                   27525
 0051E6 5820 62DC            002DC 27526                       L     R2,DBPBR                               IF PBR, ,,,
 0051EA 1222/4780 7104             27527                       IF    (R2,NZ),BEGIN
 0051F0 1832                       27541  1                      LR    R3,R2
 0051F2 4A30 73CC            054DA 27542  1                      AH    R3,=AL2(CVPSZ)
 0051F6 1912/4750 7104_            27543  1                      IF    ((R1,GE,R2),AND,(R1,LT,R3)),BEGIN
 005202 D207 8028 735A 00000 05468 27572  2                        MVC   EV2SYM(8),=C'PGB     '
 005208 1B12                       27573  2                        SR    R1,R2
 00520A 5010 8034            0000C 27574  2                        ST    R1,EV2OFF
 00520E 47F0 71AC            052BA 27575  2                        B     EADREXIT
 005212                            27576  1                      END
 005212                            27580                       END
                                   27584
                                   27585                       COMMENT                                           IF JCB,
 USING  JCB,R2                     27586                       WITH  (JCB,R2),BEGIN
 005212 5820 C1C8            001C8 27600  1                      L     R2,CVCURJCB
 005216 4130 20D0            000D0 27601  1                      LA    R3,JCBNEXT
 00521A 1912/4750 7128_            27602  1                      IF    ((R1,GE,R2),AND,(R1,LT,R3)),BEGIN
 005226 D207 8028 734A 00000 05458 27631  2                        MVC   EV2SYM(8),=C'JCB     '
 00522C 1B12                       27632  2                        SR    R1,R2
 00522E 5010 8034            0000C 27633  2                        ST    R1,EV2OFF
 005232 47F0 71AC            052BA 27634  2                        B     EADREXIT
 005236                            27635  1                      END
 DROP   JCB,R2                     27639                       END   , WITH (JCB,R2)
                                   27647
                                   27648                       COMMENT                                           IF JCB,
 USING  JCB,R2                     27649                       WITH  (JCB,R2),BEGIN
 005236 D503 C1C8 600C_001C8 0000C 27663  1                      IF    ((CVCURJCB,EQ,DBERJCB),AND,(DBEEJCB,NE,0)),BEGIN
 00524A 5820 6010            00010 27698  2                        L     R2,DBEEJCB
 00524E 4130 20D0            000D0 27699  2                        LA    R3,JCBNEXT
 005252 1912/4750 7160_            27700  2                        IF    ((R1,GE,R2),AND,(R1,LT,R3)),BEGIN
 00525E D207 8028 734A 00000 05458 27729  3                          MVC   EV2SYM(8),=C'JCB     '
 005264 1B12                       27730  3                          SR    R1,R2                       IF DEBUGGER,
 005266 5010 8034            0000C 27731  3                          ST    R1,EV2OFF                     CHECK IF DEBUGGEE JCB
 00526A 47F0 71AC            052BA 27732  3                          B     EADREXIT
 00526E                            27733  2                        END
 00526E                            27737  1                      END
 DROP   JCB,R2                     27741                       END   , WITH (JCB,R2)
1WBUG     (WBUG2025) (13:00) (15MAR04) Debug Subroutines - Evaluate ...                                                     Page  116
0Current Usings:  (DBDSECT,R6) (*,R7) (EVWA2-(4+36),R8) (CP,R11) (CV,R12)
0Loc    Object Code    Addr1 Addr2  Stmt Lv Lineno    Source Statement           (Hibal 5, Asmedit 3.3)  HLASM R4.0  2004/03/15 13.00
+___    ______ ____    _____ _____  ____ __ ______    ______ _________
0                                  27749                       ¿þþþþþþþþþþþþþþþþþþþþþþÜ
                                   27750                       Ÿ  CHECK SYMBOL TABLE  Ÿ
                                   27751                       ¾þþþþþþþþþþþþþþþþþþþþþþ»
 00526E 5820 73A2            054B0 27752                       L     R2,=V(SYMBOLS)
 USING  SYMBOL,R2                  27753                       WITH  (SYMBOL,R2),BEGIN
 005272 1832                       27767  1                      LR    R3,R2
 005274 95FF 2000/4780_00000       27768  1                   WHILE ((~SYMFEND),AND,(' CLC EV2ADDR+1(3),SYMADDR',GE)),BEGIN
 005286 1832                       27797  2                        LR    R3,R2
 005288 4120 2010            00010 27798  2                        LA    R2,SYMNEXT
 00528C 47F0 7166            05274 27799  1                      END
                                   27804  1                      COMMENT                  FOUND SYMBOL, PREVIOUS ONE IS IT
 005290 1923/4780 71A0             27805  1                      IF    (R2,EQ,R3),NOSYM
 005296 1823                       27823  1                      LR    R2,R3              GET PREVIOUS
 005298 D207 8028 2008 00000 00008 27824  1                      MVC   EV2SYM(8),SYMNAME  SAVE NAME
 00529E 1F33/BF37 2001             27825  1                      L3    R3,SYMADDR
 0052A4 1B13                       27833  1                      SR    R1,R3              SAVE OFFSET
 0052A6 5010 8034            0000C 27834  1                      ST    R1,EV2OFF
 0052AA 47F0 71AC            052BA 27835  1                      B     EADREXIT
 DROP   SYMBOL,R2                  27836                       END   , WITH (SYMBOL,R2)
-                                  27845
 0052AE                            27846              NOSYM    LABEL ,                  IF NO SYMBOL,
 0052AE D203 8034 8030 0000C 00008 27848                       MVC   EV2OFF(4),EV2ADDR        OFFSET IS ADDRESS,
 0052B4 D207 8028 73AE 00000 054BC 27849                       MVC   EV2SYM(8),=X'00000000'   SYMBOL IS ZERO
0                                  27851                       ¿þþþþþþþþÜ
                                   27852                       Ÿ  EXIT  Ÿ
                                   27853                       ¾þþþþþþþþ»
 0052BA                            27854              EADREXIT LABEL ,
 0052BA 98F0 8028            00000 27856                       LM    R15,R0,EV2SYM      RETURN SYMBOL, OFFSET
 0052BE 5810 8034            0000C 27857                       L     R1,EV2OFF
 0052C2 1211/4740 71C2_            27858                       IF    ((R1,NEG),OR,(R1,GT,65536)),BEGIN  IF BAD OFFSET,
 0052D0 5810 8030            00008 27888  1                      L     R1,EV2ADDR                            DON'T USE IT
 0052D4 1BFF/1BFF                  27889  1                      CLEAR R15,R15
 0052D8                            27895                       END
 0052D8 9001 8004            00004 27899                       PRETURN (R0,R1)
 0052DC 18D8/9808 D004_            27901                       PEND  ,
 DROP   EVWA2-(4+36),R8
 DROP   *,R7
 USING  *,R7
1WBUG     (WBUG2025) (13:00) (15MAR04) Debug Subroutines - Evaluate ...                                                     Page  117
0Current Usings:  (DBDSECT,R6) (*,R7) (CP,R11) (CV,R12)
0Loc    Object Code    Addr1 Addr2  Stmt Lv Lineno    Source Statement           (Hibal 5, Asmedit 3.3)  HLASM R4.0  2004/03/15 13.00
+___    ______ ____    _____ _____  ____ __ ______    ______ _________
0                                  27934              ¿þþþþþþþþþþþþþþþþþþþþþþþþþþþþþþþþþþþþþþþþþþþþþþþþþþþþþþþþþþþþþþþþþþþþþÜ
                                   27935              Ÿ                                                                     Ÿ
                                   27936              Ÿ                                                                     Ÿ
                                   27937              Ÿ   EVAL#SYM - scan for #rountine                                     Ÿ
                                   27938              Ÿ                                                                     Ÿ
                                   27939              Ÿ   on entry:  scan setup                                             Ÿ
                                   27940              Ÿ                                                                     Ÿ
                                   27941              Ÿ   on exit:   r15,r0 - routine name (as if lm)                       Ÿ
                                   27942              Ÿ              if r15 - 0, no routine name, scan status restored      Ÿ
                                   27943              Ÿ                                                                     Ÿ
                                   27944              Ÿ                                                                     Ÿ
                                   27945              Ÿ                                                                     Ÿ
                                                      ¾þþþþþþþþþþþþþþþþþþþþþþþþþþþþþþþþþþþþþþþþþþþþþþþþþþþþþþþþþþþþþþþþþþþþþ»
00052EA 50E0 D000/9008_      00000 27946              EVAL#SYM PROC  EVWA2
 DROP   *,R7
 USING  *,R7
 USING  EVWA2-(4+36),R8
 005304 58E0 B08C/D2AF_      0008C 27999                       SCPUSH
 005312 D207 8028 C4D8 00000 004D8 28005                       MVC   EV2SYM(8),CVBLANKS BLANK NAME
 005318 5810 B08C/1B00_      0008C 28006                       SCAN  ,
 005366 58E0 717C/0DEE       05480 28037                       SCANCHK ,
 00536C 58F0 B08C/58E0_      0008C 28042                       SCUPCASE (R1),(R0)
 005376 41F0 0000            00000 28059                       LA    R15,0              ASSUME #ROUTINE NOT SCANNED
                                   28060                       COMMENT                  ABOVE INSTR MUST NOT SET CC
                                   28061                       COMMENT
 00537A 1200/4780 70A6             28062                       IF    (R0,NZ),BEGIN      IF SCANNED SOMETHING
 005380 957B 1000/4770_00000       28076  1                      IF    (@R1,EQ,'#'),BEGIN    AND IT STARTED WITH '#'
 005388 5900 71C0/4750_      054C4 28092  2                        IF    ((R0,GE,2),AND,(R0,LE,9)),BEGIN    AND OF LENGTH 2-9
 005398 4111 0001            00001 28125  3                          LA    R1,1(R1)           SKIP PAST '#'
 00539C 1820                       28126  3                          LR    R2,R0
 00539E 0620                       28127  3                          BCTR  R2,R0
 0053A0 0620/4420 71E0_            28128  3                          DEX   R2,' MVC EV2SYM(0),0(R1) '
 0053A6 98F0 8028            00000 28147  3                          LM    R15,R0,EV2SYM
 0053AA                            28148  2                        END
 0053AA                            28152  1                      END
 0053AA                            28156                       END
 0053AA 12FF/4770 70BC             28160                       IF    (R15,Z),BEGIN      IF NO #ROUTINE, RESTORE SCAN
 0053B0 58E0 B08C/4BD0_      0008C 28174  1                      SCPOP ,
 0053BE 1BFF                       28180  1                      SR    R15,R15
 0053C0                            28181                       END
 0053C0 9001 8004            00004 28185                       PRETURN (R0,R1)
 0053C4 18D8/9808 D004_            28187                       PEND  ,
 DROP   EVWA2-(4+36),R8
 DROP   *,R7
 USING  *,R7
1WBUG     (WBUG2025) (13:00) (15MAR04) Debug Subroutines                                                                    Page  118
0Current Usings:  (DBDSECT,R6) (*,R7) (CP,R11) (CV,R12)
0Loc    Object Code    Addr1 Addr2  Stmt Lv Lineno    Source Statement           (Hibal 5, Asmedit 3.3)  HLASM R4.0  2004/03/15 13.00
+___    ______ ____    _____ _____  ____ __ ______    ______ _________
0                                  28220              ¿þþþþþþþþþþþþþþþþþþþþþþþþþþþþþþþþþþþþþþþþþþþþþþþþþþþþþþþþþþþþþþþþþþþþþÜ
                                   28221              Ÿ                                                                     Ÿ
                                   28222              Ÿ                                                                     Ÿ
                                   28223              Ÿ  RELOC - relocate cp, stack, heap, dir, page A, and page B          Ÿ
                                   28224              Ÿ          addresses to point to debugee saved copies                 Ÿ
                                   28225              Ÿ                                                                     Ÿ
                                   28226              Ÿ  on entry:   r1 - address to relocate                               Ÿ
                                   28227              Ÿ                                                                     Ÿ
                                   28228              Ÿ  on exit:    r1 - relocated address                                 Ÿ
                                   28229              Ÿ                                                                     Ÿ
                                   28230              Ÿ                                                                     Ÿ
                                                      ¾þþþþþþþþþþþþþþþþþþþþþþþþþþþþþþþþþþþþþþþþþþþþþþþþþþþþþþþþþþþþþþþþþþþþþ»
0000000                00000 00010 28231              REWA     RECORD BEGIN ,
 000000                            28239  1           READDR     DS    F                  ADDRESS
 000004                            28240  1           RESYM      DS    CL8                SYMBOL
 00000C                            28241  1           REOFF      DS    F                  OFFSET
 000010                00010 00010 28242                       END   ,
0                                  28252                        ¿þþþþþþþþþþþþþþþþþþþþÜ
                                   28253                        Ÿ  RELOCATE ADDRESS  Ÿ
                                   28254                        Ÿ                    Ÿ
                                   28255                        ¾þþþþþþþþþþþþþþþþþþþþ»
 0053D2 50E0 D000/9008_      00000 28256              RELOC    PROC  REWA
 DROP   *,R7
 USING  *,R7
 USING  REWA-(4+36),R8
 0053EC 5010 8028            00000 28309                       ST    R1,READDR
 0053F0 58E0 70E0/0DEE       054CC 28310                       ACALL EVALADDR           GET SYMBOLIC FORM OF ADDR
 0053F6 4780 703A            05426 28314                       IF    NZ,BEGIN
 0053FA 90F0 802C            00004 28325  1                      STM   R15,R0,RESYM       SAVE SYMBOL
 0053FE 5010 8034            0000C 28326  1                      ST    R1,REOFF
 005402 D507 705C 802C_05448 00004 28327  1                      IF    (RESYM,EQ,'STACK   '),BEGIN     IF STACK, ,,,
 00540C 5A10 70E4            054D0 28344  2                        A     R1,=A(DBASTACK)
 005410 47F0 703E            0542A 28345  2                        B     RELOEXIT
 005414                            28346  1                      END
 005414 D507 7064 802C_05450 00004 28350  1                      IF    (RESYM,EQ,'HEAP    '),BEGIN     IF HEAP,  ,,,
 00541E 5A10 70E8            054D4 28367  2                        A     R1,=A(DBAHEAP)
 005422 47F0 703E            0542A 28368  2                        B     RELOEXIT
 005426                            28369  1                      END
 005426                            28373                       END
 005426 5810 8028            00000 28377                       L     R1,READDR          IF NOT RELOCATED, RETURN ENTRY
                                   28378                       COMMENT                     ADDRESS VALUE
                                   28379                       ¿þþþþþþþþÜ
                                   28380                       Ÿ  EXIT  Ÿ
                                   28381                       ¾þþþþþþþþ»
 00542A                            28382              RELOEXIT LABEL ,
 00542A 9001 8004            00004 28384                       PRETURN (R0,R1)
 00542E 18D8/9808 D004_            28386                       PEND  ,
 DROP   REWA-(4+36),R8
 DROP   *,R7
 USING  *,R7
1WBUG     (WBUG2025) (13:00) (15MAR04) Debug Subroutines                                                                    Page  119
0Current Usings:  (DBDSECT,R6) (*,R7) (CP,R11) (CV,R12)
0Loc    Object Code    Addr1 Addr2  Stmt Lv Lineno    Source Statement           (Hibal 5, Asmedit 3.3)  HLASM R4.0  2004/03/15 13.00
+___    ______ ____    _____ _____  ____ __ ______    ______ _________
0                                  28419                       QLTORG
1WBUG     (WBUG2025) (13:00) (15MAR04) Debug Subroutines - Display ...                                                      Page  120
0Current Usings:  (DBDSECT,R6) (*,R7) (CP,R11) (CV,R12)
0Loc    Object Code    Addr1 Addr2  Stmt Lv Lineno    Source Statement           (Hibal 5, Asmedit 3.3)  HLASM R4.0  2004/03/15 13.00
+___    ______ ____    _____ _____  ____ __ ______    ______ _________
0                                  28467              ¿þþþþþþþþþþþþþþþþþþþþþþþþþþþþþþþþþþþþþþþþþþþþþþþþþþþþþþþþþþþþþþþþþþþþþÜ
                                   28468              Ÿ                                                                     Ÿ
                                   28469              Ÿ                                                                     Ÿ
                                   28470              Ÿ  DISPCORE - DISPLAY CORE                                            Ÿ
                                   28471              Ÿ                                                                     Ÿ
                                   28472              Ÿ       ON ENTRY:                                                     Ÿ
                                   28473              Ÿ             R1  - ACTUAL ADDRESS OF MEMORY                          Ÿ
                                   28474              Ÿ             R0  - LENGTH OF MEMORY, 0 - DEFAULTS TO 64              Ÿ
                                   28475              Ÿ             R15 - ADDRESS TO PRINT AS DISPLAY ADDR                  Ÿ
                                   28476              Ÿ                                                                     Ÿ
                                   28477              Ÿ                                                                     Ÿ
                                   28478              Ÿ                                                                     Ÿ
                                                      ¾þþþþþþþþþþþþþþþþþþþþþþþþþþþþþþþþþþþþþþþþþþþþþþþþþþþþþþþþþþþþþþþþþþþþþ»
0000000                00000 00068 28479              DCWA     RECORD BEGIN ,
 000000                            28487  1           DCSTART    DS    F                  ADDR TO START DISPLAYING
 000004                            28488  1           DCPSTART   DS    F                  ADDR TO PRINT AS START
 000008                            28489  1           DCADDR     DS    F                  ADDR CURRENTLY DISPLAYING
 00000C                            28490  1           DCPADDR    DS    F                  ADDR TO PRINT AS WE DISPLAY
 000010                            28491  1           DCEND      DS    F                  LAST ADDRESS TO DISPLAY
 000014                            28492  1           DCLEN      DS    F                  LENGTH TO DISPLAY (0 MEANS ALL)
 000018                            28493  1           DCTEMPLT   DS    CL80               DISPLAY LINE TEMPLATE
                                   28494  1           DCTPADDR   EQU   DCTEMPLT           ADDRESS IN TEMPLATE
                                   28495  1           DCTPHEX1   EQU   DCTEMPLT+10
                                   28496  1           DCTPHEX2   EQU   DCTEMPLT+19
                                   28497  1           DCTPHEX3   EQU   DCTEMPLT+28
                                   28498  1           DCTPHEX4   EQU   DCTEMPLT+37
                                   28499  1           DCTPCHAR   EQU   DCTEMPLT+47
                                   28500  1           DCTPMSG    EQU   DCTEMPLT+66
 000068                00068 00068 28501                       END
-
-                                  28511              ¿þþþþþþþþþþþþþþþþþþþþþþþþþþþþþþþþþþþþþþþþþþþþþþþþþþþþþþþþþþþþþþþþþþþþþÜ
                                   28512              Ÿ                                                                     Ÿ
                                   28513              Ÿ                                                                     Ÿ
                                   28514              Ÿ       DISPLAY CORE                                                  Ÿ
                                   28515              Ÿ                                                                     Ÿ
                                   28516              Ÿ                                                                     Ÿ
                                                      ¾þþþþþþþþþþþþþþþþþþþþþþþþþþþþþþþþþþþþþþþþþþþþþþþþþþþþþþþþþþþþþþþþþþþþþ»
00054EA 50E0 D000/9008_      00000 28517              DISPCORE XPROC DCWA
 DROP   *,R7
 USING  *,R7
 USING  DCWA-(4+36),R8
                                   28571                       ¿þþþþþþþþþþþþþþþþþþþþþþþþÜ
                                   28572                       Ÿ  INITIALIZE WORK AREA  Ÿ
                                   28573                       ¾þþþþþþþþþþþþþþþþþþþþþþþþ»
 005504 D767 8028 8028 00000 00000 28574                       CLEAR DCWA               CLEAR WORKAREA
 00550A 4111 0000            00000 28581                       LA    R1,0(R1)
 00550E 41FF 0000            00000 28582                       LA    R15,0(R15)
 005512 5010 8028            00000 28583                       ST    R1,DCSTART         SAVE START AND LENGTH TO DISPLAY
1WBUG     (WBUG2025) (13:00) (15MAR04) Debug Subroutines - Display ...                                                      Page  121
0Current Usings:  (DBDSECT,R6) (*,R7) (DCWA-(4+36),R8) (CP,R11) (CV,R12)
0Loc    Object Code    Addr1 Addr2  Stmt Lv Lineno    Source Statement           (Hibal 5, Asmedit 3.3)  HLASM R4.0  2004/03/15 13.00
+___    ______ ____    _____ _____  ____ __ ______    ______ _________
0005516 50F0 802C            00004 28584                       ST    R15,DCPSTART
 00551A 5000 803C            00014 28585                       ST    R0,DCLEN
 00551E 5900 7514/4770_      05A18 28586                       IF    (R0,EQ,0),' LA R0,64'    R0=0, DEFAULTS TO 64
 00552A 1A01                       28609                       AR    R0,R1
 00552C 5000 8038            00010 28610                       ST    R0,DCEND
 005530 182F                       28611                       LR    R2,R15             ROUND ADDRESS TO NEAREST 16
 005532 8820 0004            00004 28612                       SRL   R2,4
 005536 8920 0004            00004 28613                       SLL   R2,4
 00553A 1B2F                       28614                       SR    R2,R15             R2=ROUNDED ADDR-ADDR=
 00553C 5810 8028            00000 28615                       L     R1,DCSTART           =STARTING OFFSET (NEGATIVE)
 005540 1A12                       28616                       AR    R1,R2
 005542 5010 8030            00008 28617                       ST    R1,DCADDR
 005546 58F0 802C            00004 28618                       L     R15,DCPSTART
 00554A 1AF2                       28619                       AR    R15,R2
 00554C 50F0 8034            0000C 28620                       ST    R15,DCPADDR
 005550 D603 B05C B05C_0005C 0005C 28621                       TCCR
                                   28683              *
                                   28684              * LOOP DISPLAYING 16 BYTES AT A TIME
                                   28685              *
 005570 D503 8030 8038_00008 00010 28686                       WHILE (DCADDR,LT,DCEND),BEGIN
 00557A D24F 8040 71D0 00018 056D4 28706  1                      MVC   DCTEMPLT(L'DCTEMPLT),TEMPLT  INITIALIZE TEMPLET
 005580 5820 8030            00008 28707  1                      L     R2,DCADDR          R2 - ADDR OF CURRENT 16 BYTES
 005584 1812                       28708  1                      LR    R1,R2
 005586 4100 0010            00010 28709  1                      LA    R0,16
 00558A 58E0 751C/0DEE       05A20 28710  1                      ACALL CHKRADDR           CHECK ADDR (for read)
 005590 4780 70A6            055AA 28714  1                      IF    NZ,BEGIN
 005594 4110 7504/4100_      05A08 28725  2                        TSEG  'Invalid address.',,CR
 0055A6 47F0 71C2            056C6 28743  2                        B     DISPEXIT
 0055AA                            28744  1                      END
 0055AA 58F0 8034            0000C 28748  1                      L     R15,DCPADDR        OUTPUT 6 BYTES OF ADDRESS
 0055AE 4110 8040            00018 28749  1                      LA    R1,DCTPADDR
 0055B2 4100 0008            00008 28750  1                      LA    R0,8
 0055B6 58E0 7520/0DEE       05A24 28751  1                      VCALL BTX
 0055BC 58F2 0000            00000 28755  1                      L     R15,0(R2)          OUTPUT 1ST 4 BYTES OF HEX
 0055C0 4110 804A            00022 28756  1                      LA    R1,DCTPHEX1
 0055C4 4100 0008            00008 28757  1                      LA    R0,8
 0055C8 58E0 7520/0DEE       05A24 28758  1                      VCALL BTX
 0055CE 58F2 0004            00004 28762  1                      L     R15,4(R2)          OUTPUT 2ND 4 BYTES OF HEX
 0055D2 4110 8053            0002B 28763  1                      LA    R1,DCTPHEX2
 0055D6 4100 0008            00008 28764  1                      LA    R0,8
 0055DA 58E0 7520/0DEE       05A24 28765  1                      VCALL BTX
 0055E0 58F2 0008            00008 28769  1                      L     R15,8(R2)          OUTPUT 3RD 4 BYTES OF HEX
 0055E4 4110 805C            00034 28770  1                      LA    R1,DCTPHEX3
 0055E8 4100 0008            00008 28771  1                      LA    R0,8
 0055EC 58E0 7520/0DEE       05A24 28772  1                      VCALL BTX
 0055F2 58F2 000C            0000C 28776  1                      L     R15,12(R2)         OUTPUT 4TH 4 BYTES OF HEX
 0055F6 4110 8065            0003D 28777  1                      LA    R1,DCTPHEX4
 0055FA 4100 0008            00008 28778  1                      LA    R0,8
 0055FE 58E0 7520/0DEE       05A24 28779  1                      VCALL BTX
 005604 D20F 806F 2000 00047 00000 28783  1                      MVC   DCTPCHAR(16),0(R2) OUTPUT 16 BYTES IN CHARACTER FORM
 00560A 95FF BD60/4770_00D60       28784  1                      IF    (CPWK1,EQ,X'FF'),BEGIN
 005612 5810 C8B4            008B4 28801  2                        L     R1,CVEBCTBL         Point to ASCII->EBCIDIC table
 005616 DC0F 806F 1000 00047 00000 28802  2                        TR    DCTPCHAR(16),@R1    Translate so I can read it
 00561C                            28803  1                      END
1WBUG     (WBUG2025) (13:00) (15MAR04) Debug Subroutines - Display ...                                                      Page  122
0Current Usings:  (DBDSECT,R6) (*,R7) (DCWA-(4+36),R8) (CP,R11) (CV,R12)
0Loc    Object Code    Addr1 Addr2  Stmt Lv Lineno    Source Statement           (Hibal 5, Asmedit 3.3)  HLASM R4.0  2004/03/15 13.00
+___    ______ ____    _____ _____  ____ __ ______    ______ _________
000561C DC0F 806F 7220 00047 05724 28807  1                      TR    DCTPCHAR(16),DOTMASK      MASK OUT UNPRINTABLES
                                   28808  1                     ¿þþþþþþþþþþþþþþþþþþþþþþþþþþþþþþþþþþþþþþþþþþþþþþþþþþþþþþþþþþþþþþþþÜ
                                   28809  1                     Ÿ  IF BEFORE START ADDR,  BLANK OUT HEX, DOT OUT CHARACTER DATA  Ÿ
                                   28810  1                     Ÿ        (OCCURS WHEN WE ROUND DOWN START ADDRESS)               Ÿ
                                   28811  1                     ¾þþþþþþþþþþþþþþþþþþþþþþþþþþþþþþþþþþþþþþþþþþþþþþþþþþþþþþþþþþþþþþþþ»
 005622 D503 8030 8028_00008 00000 28812  1                      IF    (DCADDR,LT,DCSTART),BEGIN
 00562C 58F0 802C            00004 28830  2                        L     R15,DCPSTART       PRINT OFFSET START ADDRESS
 005630 4110 8040            00018 28831  2                        LA    R1,DCTPADDR
 005634 4100 0008            00008 28832  2                        LA    R0,8
 005638 58E0 7520/0DEE       05A24 28833  2                        VCALL BTX
 00563E 5840 8030            00008 28837  2                        L     R4,DCADDR          BLANK, DOT OUT CHARS AS NEEDED
 005642 5850 8028            00000 28838  2                        L     R5,DCSTART
 005646 1B54                       28839  2                        SR    R5,R4              R5,R4 - AMOUNT BEFORE START
 005648 1845                       28840  2                        LR    R4,R5
 00564A 1835                       28841  2                        LR    R3,R5
 00564C 8940 0001            00001 28842  2                        SLL   R4,1                    TWO CHARS PER HEX BYTE
 005650 8830 0002            00002 28843  2                        SRL   R3,2                    NUMBER OF HEX SEPARATORS
 005654 1A43                       28844  2                        AR    R4,R3              R4 - AMOUNT PLUS HEX SEPARATORS
                                   28845  2                        COMMENT                       THAT OCCUR EVERY 4 HEX BYTES
 005656 0650/4450 754C_            28846  2                        DEX   R5,' MVC DCTPCHAR(0),DOTMASK'   DOT OUT CHARACTERS
 00565C 0640/4440 7552_            28865  2                        DEX   R4,' MVC DCTPHEX1(0),CVBLANKS'  BLANK OUT HEX
 005662                            28884  1                      END
 005662 D503 8030 8028_00008 00000 28888  1                      IF    (DCADDR,LE,DCSTART),BEGIN
 00566C D503 8030 8034_00008 0000C 28906  2                        IF    (DCADDR,NE,DCPADDR),BEGIN  IF REAL ADDR IS DIFFERENT
 005676 D203 8082 7524 0005A 05A28 28924  3                          MVC   DCTPMSG(4),=CL4'(RA='         PRINT OUT REAL ADDR
 00567C 58F0 8028            00000 28925  3                          L     R15,DCSTART
 005680 4110 8086            0005E 28926  3                          LA    R1,DCTPMSG+4
 005684 4100 0008            00008 28927  3                          LA    R0,8
 005688 58E0 7520/0DEE       05A24 28928  3                          VCALL BTX
 00568E D200 808E 7546 00066 05A4A 28932  3                          MVC   DCTPMSG+12(1),=CL1')'
 005694                            28933  2                        END
 005694                            28937  1                      END
                                   28941  1                      ¿þþþþþþþþþþþþþþþþþþþþþþþþþþþþþþÜ
                                   28942  1                      Ÿ  DISPLAY 16 BYTES OF MEMORY  Ÿ
                                   28943  1                      ¾þþþþþþþþþþþþþþþþþþþþþþþþþþþþþþ»
 005694 4110 8040/4100_      00018 28944  1                      TSEG  DCTEMPLT,80,CR     DISPLAY LINE OF MEMORY
                                   28974  1
 0056A6 4770 71C2            056C6 28975  1                      BNZ   DISPEXIT           IF ATTN HIT, EXIT
 0056AA 5820 8030            00008 28976  1                      L     R2,DCADDR
 0056AE 4122 0010            00010 28977  1                      LA    R2,16(R2)          BUMP MEMORY, VIRTUAL ADDR BY 16
 0056B2 5020 8030            00008 28978  1                      ST    R2,DCADDR
 0056B6 5820 8034            0000C 28979  1                      L     R2,DCPADDR
 0056BA 4122 0010            00010 28980  1                      LA    R2,16(R2)
 0056BE 5020 8034            0000C 28981  1                      ST    R2,DCPADDR         AND LOOP
 0056C2 47F0 706C            05570 28982                       END
                                   28987              *
                                   28988              * EXIT
                                   28989              *
 0056C6                            28990              DISPEXIT LABEL ,
 0056C6 18D8/9808 D004_            28992                       PEND  ,
 DROP   DCWA-(4+36),R8
 DROP   *,R7
 USING  *,R7
1WBUG     (WBUG2025) (13:00) (15MAR04) Debug Subroutines - Display ...                                                      Page  123
0Current Usings:  (DBDSECT,R6) (*,R7) (CP,R11) (CV,R12)
0Loc    Object Code    Addr1 Addr2  Stmt Lv Lineno    Source Statement           (Hibal 5, Asmedit 3.3)  HLASM R4.0  2004/03/15 13.00
+___    ______ ____    _____ _____  ____ __ ______    ______ _________
0
-0056D4 4040404040404040           29025              TEMPLT   DC    CL80' '
 005724                05724 05702 29026                       ORG   TEMPLT+46
 005702 4F                         29027                       DC    C'|'
 005703                05703 05713 29028                       ORG   TEMPLT+63
 005713 4F                         29029                       DC    C'|'
 005714                05714 05724 29030                       ORG   TEMPLT+L'TEMPLT
                                   29031              *
                                   29032              * DOTMASK,  TRANSLATE UNPRITABLES TO DOTS
                                   29033              *
 005724                            29034              DOTMASK  LABEL ,
 005724 4B4B4B4B4B4B4B4B           29036                       DC    X'4B4B4B4B4B4B4B4B4B4B4B4B4B4B4B4B'
 005734 4B4B4B4B4B4B4B4B           29037                       DC    X'4B4B4B4B4B4B4B4B4B4B4B4B4B4B4B4B'
 005744 4B4B4B4B4B4B4B4B           29038                       DC    X'4B4B4B4B4B4B4B4B4B4B4B4B4B4B4B4B'
 005754 4B4B4B4B4B4B4B4B           29039                       DC    X'4B4B4B4B4B4B4B4B4B4B4B4B4B4B4B4B'
 005764 404B4B4B4B4B4B4B           29040                       DC    X'404B4B4B4B4B4B4B4B4B4A4B4C4D4E4F'
 005774 504B4B4B4B4B4B4B           29041                       DC    X'504B4B4B4B4B4B4B4B4B5A5B5C5D5E5F'
 005784 60614B4B4B4B4B4B           29042                       DC    X'60614B4B4B4B4B4B4B4B4B6B6C6D6E6F'
 005794 4B4B4B4B4B4B4B4B           29043                       DC    X'4B4B4B4B4B4B4B4B4B797A7B7C7D7E7F'
 0057A4 4B81828384858687           29044                       DC    X'4B8182838485868788894B4B4B4B4B4B'
 0057B4 4B91929394959697           29045                       DC    X'4B9192939495969798994B4B4B4B4B4B'
 0057C4 4B4BA2A3A4A5A6A7           29046                       DC    X'4B4BA2A3A4A5A6A7A8A94B4B4BAD4B4B'
 0057D4 4B4B4B4B4B4B4B4B           29047                       DC    X'4B4B4B4B4B4B4B4B4B4B4B4B4BBD4B4B'
 0057E4 C0C1C2C3C4C5C6C7           29048                       DC    X'C0C1C2C3C4C5C6C7C8C94B4B4B4B4B4B'
 0057F4 D0D1D2D3D4D5D6D7           29049                       DC    X'D0D1D2D3D4D5D6D7D8D94B4B4B4B4B4B'
 005804 4B4BE2E3E4E5E6E7           29050                       DC    X'4B4BE2E3E4E5E6E7E8E94B4B4B4B4B4B'
 005814 F0F1F2F3F4F5F6F7           29051                       DC    X'F0F1F2F3F4F5F6F7F8F94B4B4B4B4B4B'
1WBUG     (WBUG2025) (13:00) (15MAR04) Debug Subroutines - Display ...                                                      Page  124
0Current Usings:  (DBDSECT,R6) (*,R7) (CP,R11) (CV,R12)
0Loc    Object Code    Addr1 Addr2  Stmt Lv Lineno    Source Statement           (Hibal 5, Asmedit 3.3)  HLASM R4.0  2004/03/15 13.00
+___    ______ ____    _____ _____  ____ __ ______    ______ _________
0                                  29053              ¿þþþþþþþþþþþþþþþþþþþþþþþþþþþþþþþþþþþþþþþþþþþþþþþþþþþþþþþþþþþþþþþþþþþþþÜ
                                   29054              Ÿ                                                                     Ÿ
                                   29055              Ÿ                                                                     Ÿ
                                   29056              Ÿ  DISPREGS - display registers                                       Ÿ
                                   29057              Ÿ                                                                     Ÿ
                                   29058              Ÿ  on entry:  r0 - first register to display                          Ÿ
                                   29059              Ÿ             r1 - last register to display                           Ÿ
                                   29060              Ÿ  sample:                                                            Ÿ
                                   29061              Ÿ     R0 = 0000034F             R1 = 001C00A3 TERM+0F2E               Ÿ
                                   29062              Ÿ     R2 = 001C00A3 TERM+0F2E   R3 = 00000000                         Ÿ
                                   29063              Ÿ                                                                     Ÿ
                                   29064              Ÿ                                                                     Ÿ
                                   29065              Ÿ  note: r15 wraps to r0                                              Ÿ
                                   29066              Ÿ                                                                     Ÿ
                                                      ¾þþþþþþþþþþþþþþþþþþþþþþþþþþþþþþþþþþþþþþþþþþþþþþþþþþþþþþþþþþþþþþþþþþþþþ»
0005824 50E0 D000/9008_      00000 29067              DISPREGS PROC  ,
 DROP   *,R7
 USING  *,R7
 00583E 1840                       29109                       LR    R4,R0              R4 - FIRST REG, USED AS INDEX
 005840 1851                       29110                       LR    R5,R1              R5 - LAST REG, USED AS TEST
 005842 8840 0001            00001 29111                       SRL   R4,1               FIRST IS EVEN REG, LAST IS ODD
 005846 8940 0001            00001 29112                       SLL   R4,1
 00584A 8850 0001            00001 29113                       SRL   R5,1
 00584E 8950 0001            00001 29114                       SLL   R5,1
 005852 4155 0001            00001 29115                       LA    R5,1(R5)
 005856 1945/47D0 703A             29116                       IF    (R4,GT,R5),BEGIN   IF REGISTERS WRAP, ,,,
 00585C 4130 000F            0000F 29131  1                      LA    R3,15
 005860 1943/47B0 7038             29132  1                      WHILE (R4,LT,R3),BEGIN      SHO REGS FIRST THRU R15
 005866 1814                       29149  2                        LR    R1,R4
 005868 58E0 71EE/0DEE       05A2C 29150  2                        ACALL DISPPAIR              DISPLAY REGISTER PAIR
 00586E 4144 0002            00002 29154  2                        LA    R4,2(R4)
 005872 47F0 7022            05860 29155  1                      END
 005876 1B44                       29160  1                      SR    R4,R4
 005878                            29161                       END
 005878 1945/47B0 7050             29165                       WHILE (R4,LT,R5),BEGIN  IF REGISTERS DO NOT WRAP ,,,
 00587E 1814                       29182  1                      LR    R1,R4
 005880 58E0 71EE/0DEE       05A2C 29183  1                      ACALL DISPPAIR             DISPLAY REGISTER PAIR
 005886 4144 0002            00002 29187  1                      LA    R4,2(R4)
 00588A 47F0 703A            05878 29188                       END
 00588E 18D8/9808 D004_            29193                       PEND  ,
 DROP   *,R7
 USING  *,R7
1WBUG     (WBUG2025) (13:00) (15MAR04) Debug Subroutines - Display ...                                                      Page  125
0Current Usings:  (DBDSECT,R6) (*,R7) (CP,R11) (CV,R12)
0Loc    Object Code    Addr1 Addr2  Stmt Lv Lineno    Source Statement           (Hibal 5, Asmedit 3.3)  HLASM R4.0  2004/03/15 13.00
+___    ______ ____    _____ _____  ____ __ ______    ______ _________
0                                  29221              ¿þþþþþþþþþþþþþþþþþþþþþþþþþþþþþþþþþþþþþþþþþþþþþþþþþþþþþþþþþþþþþþþþþþþþþÜ
                                   29222              Ÿ                                                                     Ÿ
                                   29223              Ÿ                                                                     Ÿ
                                   29224              Ÿ  DISPPAIR - display register pair                                   Ÿ
                                   29225              Ÿ                                                                     Ÿ
                                   29226              Ÿ  on entry:  r1 - even register number                               Ÿ
                                   29227              Ÿ                                                                     Ÿ
                                   29228              Ÿ                                                                     Ÿ
                                                      ¾þþþþþþþþþþþþþþþþþþþþþþþþþþþþþþþþþþþþþþþþþþþþþþþþþþþþþþþþþþþþþþþþþþþþþ»
000589C 50E0 D000/9008_      00000 29229              DISPPAIR PROC  ,
 DROP   *,R7
 USING  *,R7
 0058B6 1841                       29271                       LR    R4,R1              R4 - EVEN REGISTER NUMBER
 0058B8 D603 B05C B05C_0005C 0005C 29272                       TCCR                     START OUTPUT ON NEW LINE
 0058D8 5940 717A/4730_      05A30 29334                       IF    (R4,LE,9),BEGIN    OUTPUT EVEN REGISTER
 0058E0 4110 7195/4100_      05A4B 29351  1                      TSEG  ' '
 0058F2                            29369                       END
 0058F2 4110 7192/4100_      05A48 29373                       TSEG  ' R'
 005904 1814/1B00/41F0_            29391                       TNUM  (R4)
 005912 4110 7196/4100_      05A4C 29413                       TSEG  ' = '
 005924 1824                       29431                       LR    R2,R4
 005926 8920 0002            00002 29432                       SLL   R2,2
 00592A 5822 6044            00044 29433                       L     R2,DBREGS(R2)          R2 - REGISTER VALUE
 00592E 1812/4100 0008_            29434                       THEX  (R2),8
 00593E 4110 7195/4100_      05A4B 29459                       TSEG  ' '
 005950 1812                       29477                       LR    R1,R2
 005952 58E0 718A/0DEE       05A40 29478                       ACALL TSEGSYM                IF SYMBOLIC FORM, TYPE IT
 005958 4100 001E            0001E 29482                       LA    R0,30                  START ODD REGISTER IN COL 30
 00595C 41F0 B050            00050 29483                       LA    R15,CPSEG
 005960 58E0 718E/0DEE       05A44 29484                       VCALL SEGCOL
 005966 4144 0001            00001 29488                       LA    R4,1(R4)           R4 - ODD REGISTER
 00596A 5940 717A/4730_      05A30 29489                       IF    (R4,LE,9),BEGIN    OUTPUT ODD REGISTER
 005972 4110 7195/4100_      05A4B 29506  1                      TSEG  ' '
 005984                            29524                       END
 005984 4110 7192/4100_      05A48 29528                       TSEG  ' R'
 005996 1814/1B00/41F0_            29546                       TNUM  (R4)
 0059A4 4110 7196/4100_      05A4C 29568                       TSEG  ' = '
 0059B6 1824                       29586                       LR    R2,R4
 0059B8 8920 0002            00002 29587                       SLL   R2,2
 0059BC 5822 6044            00044 29588                       L     R2,DBREGS(R2)          R2 - REGISTER VALUE
 0059C0 1812/4100 0008_            29589                       THEX  (R2),8
 0059D0 4110 7195/4100_      05A4B 29614                       TSEG  ' '
 0059E2 1812                       29632                       LR    R1,R2
 0059E4 58E0 718A/0DEE       05A40 29633                       ACALL TSEGSYM                IF SYMBOLIC FORM, TYPE IT
 0059EA 1B00/41F0 B050_            29637                       TCR
 0059F6 18D8/9808 D004_            29662                       PEND  ,
 DROP   *,R7
 USING  *,R7
1WBUG     (WBUG2025) (13:00) (15MAR04) Debug Subroutines - Display ...                                                      Page  126
0Current Usings:  (DBDSECT,R6) (*,R7) (CP,R11) (CV,R12)
0Loc    Object Code    Addr1 Addr2  Stmt Lv Lineno    Source Statement           (Hibal 5, Asmedit 3.3)  HLASM R4.0  2004/03/15 13.00
+___    ______ ____    _____ _____  ____ __ ______    ______ _________
0                                  29690                       QLTORG
1WBUG     (WBUG2025) (13:00) (15MAR04) Debug Subroutines - Display ...                                                      Page  127
0Current Usings:  (DBDSECT,R6) (*,R7) (CP,R11) (CV,R12)
0Loc    Object Code    Addr1 Addr2  Stmt Lv Lineno    Source Statement           (Hibal 5, Asmedit 3.3)  HLASM R4.0  2004/03/15 13.00
+___    ______ ____    _____ _____  ____ __ ______    ______ _________
0000000                00000 00010 29720              DMWA     RECORD BEGIN
 000000                            29728  1           DMSTART    DS    F                  START OF MEMORY TO DISPLAY
 000004                            29729  1           DMLEN      DS    F                  LENGTH OF MEMORY TO DISPLAY
 000008                            29730  1           DMADDR     DS    F                  ADDR OF MEMORY DISPLAYING
 00000C                            29731  1           DMEND      DS    F                  END OF MEMORY TO DISPLAY
 000010                00010 00010 29732                       END
-                                  29742              ¿þþþþþþþþþþþþþþþþþþþþþþþþþþþþþþþþþþþþþþþþþþþþþþþþþþþþþþþþþþþþþþþþþþþþþÜ
                                   29743              Ÿ                                                                     Ÿ
                                   29744              Ÿ                                                                     Ÿ
                                   29745              Ÿ  DISPASM - display disassembled memory                              Ÿ
                                   29746              Ÿ                                                                     Ÿ
                                   29747              Ÿ       on entry:  r1 - address                                       Ÿ
                                   29748              Ÿ                  r0 - length (defaults to 64 if 0)                  Ÿ
                                   29749              Ÿ                                                                     Ÿ
                                   29750              Ÿ                                                                     Ÿ
                                   29751              Ÿ                                                                     Ÿ
                                   29752              Ÿ                                                                     Ÿ
                                                      ¾þþþþþþþþþþþþþþþþþþþþþþþþþþþþþþþþþþþþþþþþþþþþþþþþþþþþþþþþþþþþþþþþþþþþþ»
0005A5C 50E0 D000/9008_      00000 29753              DISPASM  PROC  DMWA
 DROP   *,R7
 USING  *,R7
 USING  DMWA-(4+36),R8
 005A76 4111 0000            00000 29806                       LA    R1,0(R1)           SAVE MEMORY POINTERS
 005A7A 8910 0001            00001 29807                       SLL   R1,1               MUST BE EVEN ADDRESS
 005A7E 8810 0001            00001 29808                       SRL   R1,1
 005A82 1200/4770 7016_            29809                       IF    (R0,Z),' LA R0,64 '
 005A8C 5010 8028            00000 29829                       ST    R1,DMSTART
 005A90 5010 8030            00008 29830                       ST    R1,DMADDR
 005A94 1A10                       29831                       AR    R1,R0
 005A96 5010 8034            0000C 29832                       ST    R1,DMEND
 005A9A 5000 802C            00004 29833                       ST    R0,DMLEN
                                   29834
 005A9E D503 8030 8034_00008 0000C 29835                       WHILE (DMADDR,LT,DMEND),BEGIN   LOOP DISPLAYING
 005AA8 5810 8030            00008 29855  1                      L     R1,DMADDR
 005AAC 58E0 7B32/0DEE       065A8 29856  1                      ACALL CHKINST            CHECK FOR INSTR/DATA
 005AB2 4770 704E            05AC4 29860  1                      IF    Z,BEGIN            IF INSTRUCTION,  DISPLAY IT
 005AB6 5810 8030            00008 29871  2                        L     R1,DMADDR
 005ABA 58E0 7B36/0DEE       065AC 29872  2                        ACALL DISPINST
 005AC0 5010 8030            00008 29876  2                        ST    R1,DMADDR
 005AC4                            29877  1                      END
 005AC4 7052/47F0 7060 05AC4 05AB4 29881  1                      ELSE  BEGIN ,            IF DATA, DISPLAY IT
 005AC8 5810 8030            00008 29892  2                        L     R1,DMADDR
 005ACC 58E0 7B3A/0DEE       065B0 29893  2                        ACALL DISPDATA
 005AD2 5010 8030            00008 29897  2                        ST    R1,DMADDR
 005AD6                            29898  1                      END
 005AD6 47F0 7028            05A9E 29902                       END   ,                  LOOP DISPLAYING MEMORY
                                   29907
 005ADA 18D8/9808 D004_            29908                       PEND  ,
 DROP   DMWA-(4+36),R8
 DROP   *,R7
 USING  *,R7
1WBUG     (WBUG2025) (13:00) (15MAR04) Debug Subroutines - Display ...                                                      Page  128
0Current Usings:  (DBDSECT,R6) (*,R7) (CP,R11) (CV,R12)
0Loc    Object Code    Addr1 Addr2  Stmt Lv Lineno    Source Statement           (Hibal 5, Asmedit 3.3)  HLASM R4.0  2004/03/15 13.00
+___    ______ ____    _____ _____  ____ __ ______    ______ _________
0                                  29941              ¿þþþþþþþþþþþþþþþþþþþþþþþþþþþþþþþþþþþþþþþþþþþþþþþþþþþþþþþþþþþþþþþþþþþþþÜ
                                   29942              Ÿ                                                                     Ÿ
                                   29943              Ÿ                                                                     Ÿ
                                   29944              Ÿ  DISPDATA - display up to 8 bytes of data                           Ÿ
                                   29945              Ÿ                                                                     Ÿ
                                   29946              Ÿ       on entry:  r1 - data address                                  Ÿ
                                   29947              Ÿ       on exit:   r1 - address updated                               Ÿ
                                   29948              Ÿ                                                                     Ÿ
                                   29949              Ÿ                                                                     Ÿ
                                   29950              Ÿ  notes: data is displayed in simi-assembler format.  address        Ÿ
                                   29951              Ÿ  in r1 must be even, and may not point at valid opcode.  if         Ÿ
                                   29952              Ÿ  a valid opcode occurrs before 8 bytes,  then only data will        Ÿ
                                   29953              Ÿ  be written out.                                                    Ÿ
                                   29954              Ÿ                                                                     Ÿ
                                   29955              Ÿ                                                                     Ÿ
                                   29956              Ÿ                                                                     Ÿ
                                                      ¾þþþþþþþþþþþþþþþþþþþþþþþþþþþþþþþþþþþþþþþþþþþþþþþþþþþþþþþþþþþþþþþþþþþþþ»
0005AE8 50E0 D000/9008_      00000 29957              DISPDATA PROC  ,
 DROP   *,R7
 USING  *,R7
 005B02 1851                       29999                       LR    R5,R1              R5 - ADDRESS OF DATA
 005B04 4100 0020            00020 30000                       LA    R0,32
 005B08 58E0 7AB2/0DEE       065B4 30001                       ACALL CHKRADDR           CHECK ADDRESS
 005B0E 4780 701C            05B1E 30005                       IF    NZ,BEGIN
 005B12 4110 7A96/4100_      06598 30016  1                      ABORT 'Invalid address.'
 005B1E                            30023                       END
 005B1E D603 B05C B05C_0005C 0005C 30027                       TCCR
                                   30089                       ¿þþþþþþþþþþþþþþþþþþþþþþþþþþþþþþþþþþþþþþþþþþþþþþÜ
                                   30090                       Ÿ  FIND LENGTH OF DATA TO PUT (UP TO 8 BYTES)  Ÿ
                                   30091                       ¾þþþþþþþþþþþþþþþþþþþþþþþþþþþþþþþþþþþþþþþþþþþþþþ»
 005B3E 1815                       30092                       LR    R1,R5              R1,R0 - START, END OF DATA TO PUT
 005B40 4101 0008            00008 30093                       LA    R0,8(R1)
 005B44 5B10 7ABA            065BC 30094                       S     R1,=F'2'
 005B48 4780 705E/1910_      05B60 30095                       WHILE (NZ,AND,(R1,LT,R0)),BEGIN   LOOK FOR NEXT INSTR.
 005B52 4111 0002            00002 30122  1                      LA    R1,2(R1)
 005B56 58E0 7AA6/0DEE       065A8 30123  1                      ACALL CHKINST
 005B5C 47F0 7046            05B48 30127                       END
 005B60 1B15                       30132                       SR    R1,R5              R1 - LENGTH OF DATA TO PUT
 005B62 1841                       30133                       LR    R4,R1              R4 - LENGTH OF DATA TO PUT !!
 005B64 1244/4780 718E             30134                       IF    (R4,Z),DDEXIT      IF NO DATA, NO DISPLAY
                                   30151                       ¿þþþþþþþþþþþþþþþþþþþþþþþþþþÜ
                                   30152                       Ÿ  WRITE OUT LINE OF DATA  Ÿ
                                   30153                       ¾þþþþþþþþþþþþþþþþþþþþþþþþþþ»
 005B6A 4110 7BDC/4100_      066DE 30154                       TSEG  ' '
 005B7C 1815                       30172                       LR    R1,R5              DATA ADDRESS
 005B7E 58E0 7AC2/0DEE       065C4 30173                       ACALL TSEGADDR
 005B84 4100 0010            00010 30177                       LA    R0,16
 005B88 41F0 B050            00050 30178                       LA    R15,CPSEG
 005B8C 58E0 7AC6/0DEE       065C8 30179                       VCALL SEGCOL             MOVE TO COLUMN 14
 005B92 4815 0000/4100_      00000 30183                       THEX  LH:0(R5),4
 005BA4 5940 7ACE/47D0_      065D0 30207                       IF    (R4,GT,2),BEGIN    PUT OUT DATA IN HEX
 005BAC 4815 0002/4100_      00002 30224  1                      THEX  LH:2(R5),4
 005BBE                            30248                       END
1WBUG     (WBUG2025) (13:00) (15MAR04) Debug Subroutines - Display ...                                                      Page  129
0Current Usings:  (DBDSECT,R6) (*,R7) (CP,R11) (CV,R12)
0Loc    Object Code    Addr1 Addr2  Stmt Lv Lineno    Source Statement           (Hibal 5, Asmedit 3.3)  HLASM R4.0  2004/03/15 13.00
+___    ______ ____    _____ _____  ____ __ ______    ______ _________
0005BBE 4110 7BDC/4100_      066DE 30252                       TSEG  ' '
 005BD0 5940 7AD2/47D0_      065D4 30270                       IF    (R4,GT,4),BEGIN
 005BD8 4815 0004/4100_      00004 30287  1                      THEX  LH:4(R5),4
 005BEA                            30311                       END
 005BEA 5940 7AD6/47D0_      065D8 30315                       IF    (R4,GT,6),BEGIN
 005BF2 4815 0006/4100_      00006 30332  1                      THEX  LH:6(R5),4
 005C04                            30356                       END
 005C04 4100 0026            00026 30360                       LA    R0,38
 005C08 41F0 B050            00050 30361                       LA    R15,CPSEG
 005C0C 58E0 7AC6/0DEE       065C8 30362                       VCALL SEGCOL             MOVE TO COLUMN 34
 005C12 4110 7B32/4100_      06634 30366                       TSEG  'DC'               PUT 'DC'
 005C24 4100 0042            00042 30384                       LA    R0,66
 005C28 41F0 B050            00050 30385                       LA    R15,CPSEG
 005C2C 58E0 7AC6/0DEE       065C8 30386                       VCALL SEGCOL             MOVE TO COLUMN 66
 005C32 4110 7BDD/4100_      066DF 30390                       TSEG  ''''
 005C44 181D/41D0 D008             30408                       XPUSH ,,8,PTR=R1
 005C4A D207 1000 5000 00000 00000 30411                       MVC   0(8,R1),0(R5)      PUT DATA IN CHAR FORM
 005C50 5820 7ADA            065DC 30412                       L     R2,=A(DOTMASK)     DOT OUT UNPRINTABLES
 005C54 DC07 1000 2000 00000 00000 30413                       TR    0(8,R1),0(R2)
 005C5A 4111 0000/1804_      00000 30414                       TSEG  0(R1),(R4)
 005C6A 4BD0 7B34            06636 30442                       XPOP  ,,8
 005C6E 4110 7BDD/4100_      066DF 30444                       TSEG  ''''
 005C80 1B00/41F0 B050_            30462                       TCR                      TERMINATE LINE WITH <CR>
                                   30487              *$$$$$$$ HEY SET THIS IS A SNEAKY EXIT
 005C8C 4770 C7DE            007DE 30488                       BNZ   CVNEXT             IF ATTENTION, EXIT
                                   30489              *
                                   30490              *
 005C90                            30491              DDEXIT   LABEL ,
 005C90 1815                       30493                       LR    R1,R5              R1 - UPDATE MEMORY ADDRESS
 005C92 1A14                       30494                       AR    R1,R4
 005C94 9001 8004            00004 30495                       PRETURN (R0,R1)
 005C98 18D8/9808 D004_            30497                       PEND  ,
 DROP   *,R7
 USING  *,R7
1WBUG     (WBUG2025) (13:00) (15MAR04) Debug Subroutines - Display Instruction                                              Page  130
0Current Usings:  (DBDSECT,R6) (*,R7) (CP,R11) (CV,R12)
0Loc    Object Code    Addr1 Addr2  Stmt Lv Lineno    Source Statement           (Hibal 5, Asmedit 3.3)  HLASM R4.0  2004/03/15 13.00
+___    ______ ____    _____ _____  ____ __ ______    ______ _________
0                                  30525              ¿þþþþþþþþþþþþþþþþþþþþþþþþþþþþþþþþþþþþþþþþþþþþþþþþþþþþþþþþþþþþþþþþþþþþþÜ
                                   30526              Ÿ                                                                     Ÿ
                                   30527              Ÿ                                                                     Ÿ
                                   30528              Ÿ  DISPINST - display one instruction                                 Ÿ
                                   30529              Ÿ                                                                     Ÿ
                                   30530              Ÿ       on entry: r1 - address                                        Ÿ
                                   30531              Ÿ                                                                     Ÿ
                                   30532              Ÿ       on exit:  r1 - address of next instruction (data)             Ÿ
                                   30533              Ÿ                                                                     Ÿ
                                   30534              Ÿ                                                                     Ÿ
                                   30535              Ÿ                                                                     Ÿ
                                   30536              Ÿ                                                                     Ÿ
                                                      ¾þþþþþþþþþþþþþþþþþþþþþþþþþþþþþþþþþþþþþþþþþþþþþþþþþþþþþþþþþþþþþþþþþþþþþ»
0005CA6 50E0 D000/9008_      00000 30537              DISPINST PROC  ,
 DROP   *,R7
 USING  *,R7
 005CC0 4151 0000            00000 30579                       LA    R5,0(R1)           R5 - INSTRUCTION ADDRESS
 005CC4 4140 0002            00002 30580                       LA    R4,2               R4 - INSTRUCTION LENGTH
 005CC8 9540 5000/4750_00000       30581                       IF    (@R5,GE,X'40'),' LA R4,4 '
 005CD4 95D0 5000/4750_00000       30603                       IF    (@R5,GE,X'D0'),' LA R4,6 '
                                   30625
 005CE0 1815                       30626                       LR    R1,R5              CHECK ADDRESS
 005CE2 1804                       30627                       LR    R0,R4
 005CE4 58E0 78F4/0DEE       065B4 30628                       ACALL CHKRADDR
 005CEA 4780 703A            05CFA 30632                       IF    NZ,BEGIN
 005CEE 4110 78D8/4100_      06598 30643  1                      ABORT 'Invalid address.'
 005CFA                            30650                       END
                                   30654
 005CFA D603 B05C B05C_0005C 0005C 30655                       TCCR ,                   START OUTPUT ON NEW LINE
                                   30717
 005D1A 4110 7A1E/4100_      066DE 30718                       TSEG  ' '
 005D2C 1815                       30736                       LR    R1,R5              WRITE ADDRESS
 005D2E 58E0 7904/0DEE       065C4 30737                       ACALL TSEGADDR
 005D34 4100 0010            00010 30741                       LA    R0,16
 005D38 41F0 B050            00050 30742                       LA    R15,CPSEG          MOVE TO COLUMN 16
 005D3C 58E0 7908/0DEE       065C8 30743                       VCALL SEGCOL
 005D42 4815 0000/4100_      00000 30747                       THEX  LH:0(R5),4
 005D54 5940 7910/47D0_      065D0 30771                       IF    (R4,GT,2),BEGIN    INSTRUCTION IN HEX
 005D5C 4110 7A1E/4100_      066DE 30788  1                      TSEG  ' '
 005D6E 4815 0002/4100_      00002 30806  1                      THEX  LH:2(R5),4
 005D80                            30830                       END
 005D80 5940 7914/47D0_      065D4 30834                       IF    (R4,GT,4),BEGIN
 005D88 4110 7A1E/4100_      066DE 30851  1                      TSEG  ' '
 005D9A 4815 0004/4100_      00004 30869  1                      THEX  LH:4(R5),4
 005DAC                            30893                       END
                                   30897
 005DAC 4100 0026            00026 30898                       LA    R0,38
 005DB0 41F0 B050            00050 30899                       LA    R15,CPSEG
 005DB4 58E0 7908/0DEE       065C8 30900                       VCALL SEGCOL
1WBUG     (WBUG2025) (13:00) (15MAR04) Debug Subroutines - Display Instruction                                              Page  131
0Current Usings:  (DBDSECT,R6) (*,R7) (CP,R11) (CV,R12)
0Loc    Object Code    Addr1 Addr2  Stmt Lv Lineno    Source Statement           (Hibal 5, Asmedit 3.3)  HLASM R4.0  2004/03/15 13.00
+___    ______ ____    _____ _____  ____ __ ______    ______ _________
0                                  30904                       ¿þþþþþþþþþþþþþþþþþþþþþþþþþþþþþþþÜ
                                   30905                       Ÿ  LOOK UP INSTRUCTION NEMONIC  Ÿ
                                   30906                       ¾þþþþþþþþþþþþþþþþþþþþþþþþþþþþþþþ»
 005DBA 1B22                       30907                       SR    R2,R2              R2 - INSTRUCTION OP CODE
 005DBC 4325 0000            00000 30908                       IC    R2,0(R5)
 005DC0 4130 7A2E            066EE 30909                       LA    R3,INSTTAB         R3 - INSTRUCTION TABLE
 USING  IRECORD,R3                 30910                       WITH  (IRECORD,R3),BEGIN
 005DC4 BD21 3000/4780_      00000 30924  1                      WHILE ((R2,NE,IOPCD),AND,(IOPCD,NE,0)),BEGIN
 005DD4 4130 3008            00008 30960  2                        LA    R3,INEXT
 005DD8 47F0 7104            05DC4 30961  1                      END
                                   30966  1                      COMMENT                  R3 - INSTRUCTION TABLE ENTRY
                                   30967  1                      ¿þþþþþþþþþþþþþþþþþþþþþþÜ
                                   30968  1                      Ÿ  FORMAT INSTRUCTION  Ÿ
                                   30969  1                      ¾þþþþþþþþþþþþþþþþþþþþþþ»
 005DDC 9500 3000/4770_00000       30970  1                      IF    (IOPCD,EQ,0),BEGIN IF UNRECOGNIZED OPCODE
 005DE4 4110 7A20/4100_      066E0 30988  2                        TSEG  '???   ???'
 005DF6 47F0 78B0            06570 31006  2                        B     DISPIRET
 005DFA                            31007  1                      END
                                   31011  1
 005DFA 9180 3001/47E0_00001       31012  1                      IF    IRR,BEGIN          IF RR INSTRUCTION,
 005E02 4110 3002/4100_      00002 31027  2                        TSEG  INAME,6
 005E14 4110 7A29/4100_      066E9 31057  2                        TSEG  'R'
 005E26 5815 0000            00000 31075  2                        L     R1,0(R5)
 005E2A 5410 7920            065E0 31076  2                        N     R1,=X'00F00000'
 005E2E 8810 0014            00014 31077  2                        SRL   R1,20
 005E32 1B00/41F0 B050_            31078  2                        TNUM  (R1)
 005E3E 4110 7978/4100_      06638 31099  2                        TSEG  ',R'
 005E50 5815 0000            00000 31117  2                        L     R1,0(R5)
 005E54 5410 7928            065E8 31118  2                        N     R1,=X'000F0000'
 005E58 8810 0010            00010 31119  2                        SRL   R1,16
 005E5C 1B00/41F0 B050_            31120  2                        TNUM  (R1)
 005E68 47F0 78B0            06570 31141  2                        B     DISPIRET
 005E6C                            31142  1                      END
                                   31146  1
 005E6C 9140 3001/47E0_00001       31147  1                      IF    IRX,BEGIN          IF RX INSTRUCTION
 005E74 4110 3002/4100_      00002 31162  2                        TSEG  INAME,6
 005E86 4110 7A29/4100_      066E9 31192  2                        TSEG  'R'
 005E98 5815 0000            00000 31210  2                        L     R1,0(R5)
 005E9C 5410 7920            065E0 31211  2                        N     R1,=X'00F00000'
 005EA0 8810 0014            00014 31212  2                        SRL   R1,20
 005EA4 1B00/41F0 B050_            31213  2                        TNUM  (R1)
 005EB0 4110 7A2A/4100_      066EA 31234  2                        TSEG  ','
 005EC2 5815 0000            00000 31252  2                        L     R1,0(R5)
 005EC6 5410 792C            065EC 31253  2                        N     R1,=X'00000FFF'
 005ECA 1B00/41F0 B050_            31254  2                        TNUM  (R1)
 005ED6 5815 0000            00000 31275  2                        L     R1,0(R5)
 005EDA 5410 7930            065F0 31276  2                        N     R1,=X'000FF000'
 005EDE 4780 72A0            05F60 31277  2                        IF    NZ,BEGIN
 005EE2 4110 797A/4100_      0663A 31288  3                          TSEG  '(R'
 005EF4 5815 0000            00000 31306  3                          L     R1,0(R5)
 005EF8 5410 7928            065E8 31307  3                          N     R1,=X'000F0000'
 005EFC 8810 0010            00010 31308  3                          SRL   R1,16
 005F00 1211/4780 7270             31309  3                          IF    (R1,NZ),BEGIN
 005F06 1B00/41F0 B050_            31323  4                            TNUM  (R1)
1WBUG     (WBUG2025) (13:00) (15MAR04) Debug Subroutines - Display Instruction                                              Page  132
0Current Usings:  (IRECORD,R3) (DBDSECT,R6) (*,R7) (CP,R11) (CV,R12)
0Loc    Object Code    Addr1 Addr2  Stmt Lv Lineno    Source Statement           (Hibal 5, Asmedit 3.3)  HLASM R4.0  2004/03/15 13.00
+___    ______ ____    _____ _____  ____ __ ______    ______ _________
0005F12 5815 0000            00000 31344  4                            L     R1,0(R5)
 005F16 5410 7934            065F4 31345  4                            N     R1,=X'0000F000'
 005F1A 4780 7270            05F30 31346  4                            IF    NZ,BEGIN
 005F1E 4110 7A2A/4100_      066EA 31357  5                              TSEG  ','
 005F30                            31375  4                            END
 005F30                            31379  3                          END
 005F30 5815 0000            00000 31383  3                          L     R1,0(R5)
 005F34 5410 7934            065F4 31384  3                          N     R1,=X'0000F000'
 005F38 8810 000C            0000C 31385  3                          SRL   R1,12
 005F3C 1211/4780 728E             31386  3                          IF    (R1,NZ),BEGIN
 005F42 1B00/41F0 B050_            31400  4                            TNUM  (R1)
 005F4E                            31421  3                          END
 005F4E 4110 7A2B/4100_      066EB 31425  3                          TSEG  ')'
 005F60                            31443  2                        END
 005F60 47F0 78B0            06570 31447  2                        B     DISPIRET
 005F64                            31448  1                      END
                                   31452  1
 005F64 9120 3001/47E0_00001       31453  1                      IF    IRS,BEGIN          IF RS INSTRUCTION,
 005F6C 4110 3002/4100_      00002 31468  2                        TSEG  INAME,6
 005F7E 4110 7A29/4100_      066E9 31498  2                        TSEG  'R'
 005F90 5815 0000            00000 31516  2                        L     R1,0(R5)
 005F94 5410 7920            065E0 31517  2                        N     R1,=X'00F00000'
 005F98 8810 0014            00014 31518  2                        SRL   R1,20
 005F9C 1B00/41F0 B050_            31519  2                        TNUM  (R1)
 005FA8 4110 7978/4100_      06638 31540  2                        TSEG  ',R'
 005FBA 5815 0000            00000 31558  2                        L     R1,0(R5)
 005FBE 5410 7928            065E8 31559  2                        N     R1,=X'000F0000'
 005FC2 8810 0010            00010 31560  2                        SRL   R1,16
 005FC6 1B00/41F0 B050_            31561  2                        TNUM  (R1)
 005FD2 4110 7A2A/4100_      066EA 31582  2                        TSEG  ','
 005FE4 5815 0000            00000 31600  2                        L     R1,0(R5)
 005FE8 5410 792C            065EC 31601  2                        N     R1,=X'00000FFF'
 005FEC 1B00/41F0 B050_            31602  2                        TNUM  (R1)
 005FF8 4110 797A/4100_      0663A 31623  2                        TSEG  '(R'
 00600A 5815 0000            00000 31641  2                        L     R1,0(R5)
 00600E 5410 7934            065F4 31642  2                        N     R1,=X'0000F000'
 006012 8810 000C            0000C 31643  2                        SRL   R1,12
 006016 1B00/41F0 B050_            31644  2                        TNUM  (R1)
 006022 4110 7A2B/4100_      066EB 31665  2                        TSEG  ')'
 006034 47F0 78B0            06570 31683  2                        B     DISPIRET
 006038                            31684  1                      END
                                   31688  1
 006038 9110 3001/47E0_00001       31689  1                      IF    ISI,BEGIN          IF SI INSTRUCTION,
 006040 4110 3002/4100_      00002 31704  2                        TSEG  INAME,6
 006052 5815 0000            00000 31734  2                        L     R1,0(R5)
 006056 5410 792C            065EC 31735  2                        N     R1,=X'00000FFF'
 00605A 1B00/41F0 B050_            31736  2                        TNUM  (R1)
 006066 4110 797A/4100_      0663A 31757  2                        TSEG  '(R'
 006078 5815 0000            00000 31775  2                        L     R1,0(R5)
 00607C 5410 7934            065F4 31776  2                        N     R1,=X'0000F000'
 006080 8810 000C            0000C 31777  2                        SRL   R1,12
 006084 1B00/41F0 B050_            31778  2                        TNUM  (R1)
 006090 4110 7938/4100_      065F8 31799  2                        TSEG  '),X'''
 0060A2 5815 0000            00000 31817  2                        L     R1,0(R5)
1WBUG     (WBUG2025) (13:00) (15MAR04) Debug Subroutines - Display Instruction                                              Page  133
0Current Usings:  (IRECORD,R3) (DBDSECT,R6) (*,R7) (CP,R11) (CV,R12)
0Loc    Object Code    Addr1 Addr2  Stmt Lv Lineno    Source Statement           (Hibal 5, Asmedit 3.3)  HLASM R4.0  2004/03/15 13.00
+___    ______ ____    _____ _____  ____ __ ______    ______ _________
00060A6 5410 793C            065FC 31818  2                        N     R1,=X'00FF0000'
 0060AA 8810 0010            00010 31819  2                        SRL   R1,16
 0060AE 4100 0002/41F0_      00002 31820  2                        THEX  (R1),2
 0060BC 4110 7A1F/4100_      066DF 31844  2                        TSEG  ''''
 0060CE 47F0 78B0            06570 31862  2                        B     DISPIRET
 0060D2                            31863  1                      END
                                   31867  1
 0060D2 9108 3001/47E0_00001       31868  1                      IF    ISS,BEGIN          IF SS INSTRUCTION,,,
 0060DA 4110 3002/4100_      00002 31883  2                        TSEG  INAME,6
 0060EC 5815 0000            00000 31913  2                        L     R1,0(R5)
 0060F0 5410 792C            065EC 31914  2                        N     R1,=X'00000FFF'
 0060F4 1B00/41F0 B050_            31915  2                        TNUM  (R1)
 006100 4110 7A2C/4100_      066EC 31936  2                        TSEG  '('
 006112 5815 0000            00000 31954  2                        L     R1,0(R5)
 006116 5410 793C            065FC 31955  2                        N     R1,=X'00FF0000'
 00611A 8810 0010            00010 31956  2                        SRL   R1,16
 00611E 4111 0001            00001 31957  2                        LA    R1,1(R1)
 006122 1B00/41F0 B050_            31958  2                        TNUM  (R1)
 00612E 4110 7978/4100_      06638 31979  2                        TSEG  ',R'
 006140 5815 0000            00000 31997  2                        L     R1,0(R5)
 006144 5410 7934            065F4 31998  2                        N     R1,=X'0000F000'
 006148 8810 000C            0000C 31999  2                        SRL   R1,12
 00614C 1B00/41F0 B050_            32000  2                        TNUM  (R1)
 006158 4110 797C/4100_      0663C 32021  2                        TSEG  '),'
 00616A 5815 0002            00002 32039  2                        L     R1,2(R5)
 00616E 5410 792C            065EC 32040  2                        N     R1,=X'00000FFF'
 006172 1B00/41F0 B050_            32041  2                        TNUM  (R1)
 00617E 4110 797A/4100_      0663A 32062  2                        TSEG  '(R'
 006190 5815 0002            00002 32080  2                        L     R1,2(R5)
 006194 5410 7934            065F4 32081  2                        N     R1,=X'0000F000'
 006198 8810 000C            0000C 32082  2                        SRL   R1,12
 00619C 1B00/41F0 B050_            32083  2                        TNUM  (R1)
 0061A8 4110 7A2B/4100_      066EB 32104  2                        TSEG  ')'
 0061BA 47F0 78B0            06570 32122  2                        B     DISPIRET
 0061BE                            32123  1                      END
                                   32127  1
 0061BE 9104 3001/47E0_00001       32128  1                      IF    IBCR,BEGIN         IF BCR, BEGIN
 0061C6 5815 0000            00000 32143  2                        L     R1,0(R5)
 0061CA 5410 7920            065E0 32144  2                        N     R1,=X'00F00000'
 0061CE 8810 0014            00014 32145  2                        SRL   R1,20
 0061D2 1821                       32146  2                        LR    R2,R1
 0061D4 5920 7940/4770_      06600 32147  2                        IF    (R2,EQ,0),BEGIN
 0061DC 4110 797E/4100_      0663E 32164  3                          TSEG  'NOPR  '
 0061EE                            32182  2                        END
 0061EE 5920 7944/4770_      06604 32186  2                        IF    (R2,EQ,1),BEGIN
 0061F6 4110 7984/4100_      06644 32203  3                          TSEG  'BOR   '
 006208                            32221  2                        END
 006208 5920 7910/4770_      065D0 32225  2                        IF    (R2,EQ,2),BEGIN
 006210 4110 798A/4100_      0664A 32242  3                          TSEG  'BHR   '
 006222                            32260  2                        END
 006222 5920 7914/4770_      065D4 32264  2                        IF    (R2,EQ,4),BEGIN
 00622A 4110 7990/4100_      06650 32281  3                          TSEG  'BLR   '
 00623C                            32299  2                        END
 00623C 5920 7948/4770_      06608 32303  2                        IF    (R2,EQ,7),BEGIN
1WBUG     (WBUG2025) (13:00) (15MAR04) Debug Subroutines - Display Instruction                                              Page  134
0Current Usings:  (IRECORD,R3) (DBDSECT,R6) (*,R7) (CP,R11) (CV,R12)
0Loc    Object Code    Addr1 Addr2  Stmt Lv Lineno    Source Statement           (Hibal 5, Asmedit 3.3)  HLASM R4.0  2004/03/15 13.00
+___    ______ ____    _____ _____  ____ __ ______    ______ _________
0006244 4110 7996/4100_      06656 32320  3                          TSEG  'BNER  '
 006256                            32338  2                        END
 006256 5920 794C/4770_      0660C 32342  2                        IF    (R2,EQ,8),BEGIN
 00625E 4110 799C/4100_      0665C 32359  3                          TSEG  'BER   '
 006270                            32377  2                        END
 006270 5920 7950/4770_      06610 32381  2                        IF    (R2,EQ,11),BEGIN
 006278 4110 79A2/4100_      06662 32398  3                          TSEG  'BNLR  '
 00628A                            32416  2                        END
 00628A 5920 7954/4770_      06614 32420  2                        IF    (R2,EQ,13),BEGIN
 006292 4110 79A8/4100_      06668 32437  3                          TSEG  'BNHR  '
 0062A4                            32455  2                        END
 0062A4 5920 7958/4770_      06618 32459  2                        IF    (R2,EQ,15),BEGIN
 0062AC 4110 79AE/4100_      0666E 32476  3                          TSEG  'BR    '
 0062BE                            32494  2                        END
 0062BE 4110 7A29/4100_      066E9 32498  2                        TSEG  'R'
 0062D0 5815 0000            00000 32516  2                        L     R1,0(R5)
 0062D4 5410 7928            065E8 32517  2                        N     R1,=X'000F0000'
 0062D8 8810 0010            00010 32518  2                        SRL   R1,16
 0062DC 1B00/41F0 B050_            32519  2                        TNUM  (R1)
 0062E8 47F0 78B0            06570 32540  2                        B     DISPIRET
 0062EC                            32541  1                      END
                                   32545  1
 0062EC 9102 3001/47E0_00001       32546  1                      IF    IBC,BEGIN          IF BC, BEGIN
 0062F4 5815 0000            00000 32561  2                        L     R1,0(R5)
 0062F8 5410 7920            065E0 32562  2                        N     R1,=X'00F00000'
 0062FC 8810 0014            00014 32563  2                        SRL   R1,20
 006300 1821                       32564  2                        LR    R2,R1
 006302 5920 7940/4770_      06600 32565  2                        IF    (R2,EQ,0),BEGIN
 00630A 4110 79B4/4100_      06674 32582  3                          TSEG  'NOP   '
 00631C                            32600  2                        END
 00631C 5920 7944/4770_      06604 32604  2                        IF    (R2,EQ,1),BEGIN
 006324 4110 79BA/4100_      0667A 32621  3                          TSEG  'BO    '
 006336                            32639  2                        END
 006336 5920 7910/4770_      065D0 32643  2                        IF    (R2,EQ,2),BEGIN
 00633E 4110 79C0/4100_      06680 32660  3                          TSEG  'BH    '
 006350                            32678  2                        END
 006350 5920 795C/4770_      0661C 32682  2                        IF    (R2,EQ,3),BEGIN
 006358 4110 79C6/4100_      06686 32699  3                          TSEG  'BH-   '
 00636A                            32717  2                        END
 00636A 5920 7914/4770_      065D4 32721  2                        IF    (R2,EQ,4),BEGIN
 006372 4110 79CC/4100_      0668C 32738  3                          TSEG  'BL    '
 006384                            32756  2                        END
 006384 5920 7960/4770_      06620 32760  2                        IF    (R2,EQ,5),BEGIN
 00638C 4110 79D2/4100_      06692 32777  3                          TSEG  'BL-   '
 00639E                            32795  2                        END
 00639E 5920 7918/4770_      065D8 32799  2                        IF    (R2,EQ,6),BEGIN
 0063A6 4110 79D8/4100_      06698 32816  3                          TSEG  'BNE-  '
 0063B8                            32834  2                        END
 0063B8 5920 7948/4770_      06608 32838  2                        IF    (R2,EQ,7),BEGIN
 0063C0 4110 79DE/4100_      0669E 32855  3                          TSEG  'BNE   '
 0063D2                            32873  2                        END
 0063D2 5920 794C/4770_      0660C 32877  2                        IF    (R2,EQ,8),BEGIN
 0063DA 4110 79E4/4100_      066A4 32894  3                          TSEG  'BE    '
 0063EC                            32912  2                        END
1WBUG     (WBUG2025) (13:00) (15MAR04) Debug Subroutines - Display Instruction                                              Page  135
0Current Usings:  (IRECORD,R3) (DBDSECT,R6) (*,R7) (CP,R11) (CV,R12)
0Loc    Object Code    Addr1 Addr2  Stmt Lv Lineno    Source Statement           (Hibal 5, Asmedit 3.3)  HLASM R4.0  2004/03/15 13.00
+___    ______ ____    _____ _____  ____ __ ______    ______ _________
00063EC 5920 7964/4770_      06624 32916  2                        IF    (R2,EQ,9),BEGIN
 0063F4 4110 79EA/4100_      066AA 32933  3                          TSEG  'BE-   '
 006406                            32951  2                        END
 006406 5920 7968/4770_      06628 32955  2                        IF    (R2,EQ,10),BEGIN
 00640E 4110 79F0/4100_      066B0 32972  3                          TSEG  'BNL-  '
 006420                            32990  2                        END
 006420 5920 7950/4770_      06610 32994  2                        IF    (R2,EQ,11),BEGIN
 006428 4110 79F6/4100_      066B6 33011  3                          TSEG  'BNL   '
 00643A                            33029  2                        END
 00643A 5920 796C/4770_      0662C 33033  2                        IF    (R2,EQ,12),BEGIN
 006442 4110 79FC/4100_      066BC 33050  3                          TSEG  'BNH-  '
 006454                            33068  2                        END
 006454 5920 7954/4770_      06614 33072  2                        IF    (R2,EQ,13),BEGIN
 00645C 4110 7A02/4100_      066C2 33089  3                          TSEG  'BNH   '
 00646E                            33107  2                        END
 00646E 5920 7970/4770_      06630 33111  2                        IF    (R2,EQ,14),BEGIN
 006476 4110 7A08/4100_      066C8 33128  3                          TSEG  'BNO   '
 006488                            33146  2                        END
 006488 5920 7958/4770_      06618 33150  2                        IF    (R2,EQ,15),BEGIN
 006490 4110 7A0E/4100_      066CE 33167  3                          TSEG  'B     '
 0064A2                            33185  2                        END
 0064A2 5815 0000            00000 33189  2                        L     R1,0(R5)
 0064A6 5410 792C            065EC 33190  2                        N     R1,=X'00000FFF'
 0064AA 1B00/41F0 B050_            33191  2                        TNUM  (R1)
 0064B6 5815 0000            00000 33212  2                        L     R1,0(R5)
 0064BA 5410 7930            065F0 33213  2                        N     R1,=X'000FF000'
 0064BE 4780 7880            06540 33214  2                        IF    NZ,BEGIN
 0064C2 4110 797A/4100_      0663A 33225  3                          TSEG  '(R'
 0064D4 5815 0000            00000 33243  3                          L     R1,0(R5)
 0064D8 5410 7928            065E8 33244  3                          N     R1,=X'000F0000'
 0064DC 8810 0010            00010 33245  3                          SRL   R1,16
 0064E0 1211/4780 7850             33246  3                          IF    (R1,NZ),BEGIN
 0064E6 1B00/41F0 B050_            33260  4                            TNUM  (R1)
 0064F2 5815 0000            00000 33281  4                            L     R1,0(R5)
 0064F6 5410 7934            065F4 33282  4                            N     R1,=X'0000F000'
 0064FA 4780 7850            06510 33283  4                            IF    NZ,BEGIN
 0064FE 4110 7A2A/4100_      066EA 33294  5                              TSEG  ','
 006510                            33312  4                            END
 006510                            33316  3                          END
 006510 5815 0000            00000 33320  3                          L     R1,0(R5)
 006514 5410 7934            065F4 33321  3                          N     R1,=X'0000F000'
 006518 8810 000C            0000C 33322  3                          SRL   R1,12
 00651C 1211/4780 786E             33323  3                          IF    (R1,NZ),BEGIN
 006522 1B00/41F0 B050_            33337  4                            TNUM  (R1)
 00652E                            33358  3                          END
 00652E 4110 7A2B/4100_      066EB 33362  3                          TSEG  ')'
 006540                            33380  2                        END
 006540 47F0 78B0            06570 33384  2                        B     DISPIRET
 006544                            33385  1                      END
                                   33389  1
 006544 9101 3001/47E0_00001       33390  1                      IF    IOTHER,BEGIN       IF NONE OF THE ABOVE,,,
 00654C 4110 3002/4100_      00002 33405  2                        TSEG  INAME,6
 00655E 4110 7A14/4100_      066D4 33435  2                        TSEG  'OPERAND(S)'
 006570                            33453  1                      END
1WBUG     (WBUG2025) (13:00) (15MAR04) Debug Subroutines - Display Instruction                                              Page  136
0Current Usings:  (DBDSECT,R6) (*,R7) (CP,R11) (CV,R12)
0Loc    Object Code    Addr1 Addr2  Stmt Lv Lineno    Source Statement           (Hibal 5, Asmedit 3.3)  HLASM R4.0  2004/03/15 13.00
+___    ______ ____    _____ _____  ____ __ ______    ______ _________
0DROP   IRECORD,R3                 33457                       END   , WITH (IRECORD,R3)
                                   33465
 006570                            33466              DISPIRET LABEL ,
 006570 1B00/41F0 B050_            33468                       TCR   ,
                                   33493              *$$$$$$ THIS IS SNEAKY EXIT,,,, SHOULD FIX IT !!
 00657C 4770 C7DE            007DE 33494                       BNZ   CVNEXT             IF ATTENTION,, EXIT
 006580 1815                       33495                       LR    R1,R5              R1 - INSTRUCTION ADDRESS
 006582 1A14                       33496                       AR    R1,R4              R1 - NEXT INSTRUCTION ADDRESS
 006584 9001 8004            00004 33497                       PRETURN (R0,R1)
 006588 18D8/9808 D004_            33499                       PEND  ,
 DROP   *,R7
 USING  *,R7
1WBUG     (WBUG2025) (13:00) (15MAR04) Debug Subroutines - Display Instruction                                              Page  137
0Current Usings:  (DBDSECT,R6) (*,R7) (CP,R11) (CV,R12)
0Loc    Object Code    Addr1 Addr2  Stmt Lv Lineno    Source Statement           (Hibal 5, Asmedit 3.3)  HLASM R4.0  2004/03/15 13.00
+___    ______ ____    _____ _____  ____ __ ______    ______ _________
0                                  33527                       QLTORG
1WBUG     (WBUG2025) (13:00) (15MAR04) Debug Subroutines                                                                    Page  138
0Current Usings:  (DBDSECT,R6) (*,R7) (CP,R11) (CV,R12)
0Loc    Object Code    Addr1 Addr2  Stmt Lv Lineno    Source Statement           (Hibal 5, Asmedit 3.3)  HLASM R4.0  2004/03/15 13.00
+___    ______ ____    _____ _____  ____ __ ______    ______ _________
0                                  33614              ¿þþþþþþþþþþþþþþþþþþþþþþþþþþþþþþþþþþþþþþþþþþþþþþþþþþþþþþþþþþþþþþþþþþþþþÜ
                                   33615              Ÿ                                                                     Ÿ
                                   33616              Ÿ                                                                     Ÿ
                                   33617              Ÿ   Instruction table                                                 Ÿ
                                   33618              Ÿ                                                                     Ÿ
                                   33619              Ÿ                                                                     Ÿ
                                   33620              Ÿ                                                                     Ÿ
                                                      ¾þþþþþþþþþþþþþþþþþþþþþþþþþþþþþþþþþþþþþþþþþþþþþþþþþþþþþþþþþþþþþþþþþþþþþ»
00066EE                            33621              INSTTAB  LABEL ,
 0066EE 1A80C1D940404040           33623                       INSTR AR,RR,1A
 0066F6 5A40C14040404040           33625                       INSTR A,RX,5A
 0066FE 4A40C1C840404040           33627                       INSTR AH,RX,4A
 006706 1E80C1D3D9404040           33629                       INSTR ALR,RR,1E
 00670E 5E40C1D340404040           33631                       INSTR AL,RX,5E
 006716 1480D5D940404040           33633                       INSTR NR,RR,14
 00671E 5440D54040404040           33635                       INSTR N,RX,54
 006726 D408D5C340404040           33637                       INSTR NC,SS,D4
 00672E 9410D5C940404040           33639                       INSTR NI,SI,94
 006736 0580C2C1D3D94040           33641                       INSTR BALR,RR,05
 00673E 4540C2C1D3404040           33643                       INSTR BAL,RX,45
 006746 0D80C2C1E2D94040           33645                       INSTR BASR,RR,0D
 00674E 4D40C2C1E2404040           33647                       INSTR BAS,RX,4D
 006756 0C80C2C1E2E2D440           33649                       INSTR BASSM,RR,0C
 00675E 0B80C2E2D4404040           33651                       INSTR BSM,RR,0B
 006766 0704C2C3D9404040           33653                       INSTR BCR,BCR,07
 00676E 4702C2C340404040           33655                       INSTR BC,BC,47
 006776 0680C2C3E3D94040           33657                       INSTR BCTR,RR,06
 00677E 4640C2C3E3404040           33659                       INSTR BCT,RX,46
 006786 8620C2E7C8404040           33661                       INSTR BXH,RS,86
 00678E 8720C2E7D3C54040           33663                       INSTR BXLE,RS,87
 006796 B201C2F2D6D74040           33665                       INSTR B2OP,OTHER,B2
 00679E 1980C3D940404040           33667                       INSTR CR,RR,19
 0067A6 5940C34040404040           33669                       INSTR C,RX,59
 0067AE BA20C3E240404040           33671                       INSTR CS,RS,BA
 0067B6 BB20C3C4E2404040           33673                       INSTR CDS,RS,BB
 0067BE 4940C3C840404040           33675                       INSTR CH,RX,49
 0067C6 1580C3D3D9404040           33677                       INSTR CLR,RR,15
 0067CE 5540C3D340404040           33679                       INSTR CL,RX,55
 0067D6 D508C3D3C3404040           33681                       INSTR CLC,SS,D5
 0067DE 9510C3D3C9404040           33683                       INSTR CLI,SI,95
 0067E6 BD20C3D3D4404040           33685                       INSTR CLM,RS,BD
 0067EE 0F80C3D3C3D34040           33687                       INSTR CLCL,RR,0F
 0067F6 4F40C3E5C2404040           33689                       INSTR CVB,RX,4F
 0067FE 4E40C3E5C4404040           33691                       INSTR CVD,RX,4E
 006806 1D80C4D940404040           33693                       INSTR DR,RR,1D
 00680E 5D40C44040404040           33695                       INSTR D,RX,5D
 006816 1780E7D940404040           33697                       INSTR XR,RR,17
 00681E 5740E74040404040           33699                       INSTR X,RX,57
 006826 D708E7C340404040           33701                       INSTR XC,SS,D7
 00682E 9710E7C940404040           33703                       INSTR XI,SI,97
 006836 4440C5E740404040           33705                       INSTR EX,RX,44
 00683E 4340C9C340404040           33707                       INSTR IC,RX,43
 006846 BF20C9C3D4404040           33709                       INSTR ICM,RS,BF
1WBUG     (WBUG2025) (13:00) (15MAR04) Debug Subroutines                                                                    Page  139
0Current Usings:  (DBDSECT,R6) (*,R7) (CP,R11) (CV,R12)
0Loc    Object Code    Addr1 Addr2  Stmt Lv Lineno    Source Statement           (Hibal 5, Asmedit 3.3)  HLASM R4.0  2004/03/15 13.00
+___    ______ ____    _____ _____  ____ __ ______    ______ _________
000684E B201C9D7D4404040           33711                       INSTR IPM,OTHER,B2
 006856 1880D3D940404040           33713                       INSTR LR,RR,18
 00685E 5840D34040404040           33715                       INSTR L,RX,58
 006866 4140D3C140404040           33717                       INSTR LA,RX,41
 00686E 1280D3E3D9404040           33719                       INSTR LTR,RR,12
 006876 1380D3C3D9404040           33721                       INSTR LCR,RR,13
 00687E 4840D3C840404040           33723                       INSTR LH,RX,48
 006886 9820D3D440404040           33725                       INSTR LM,RS,98
 00688E 1180D3D5D9404040           33727                       INSTR LNR,RR,11
 006896 1080D3D7D9404040           33729                       INSTR LPR,RR,10
 00689E AF10D4C340404040           33731                       INSTR MC,SI,AF
 0068A6 D208D4E5C3404040           33733                       INSTR MVC,SS,D2
 0068AE 9210D4E5C9404040           33735                       INSTR MVI,SI,92
 0068B6 0E80D4E5C3D34040           33737                       INSTR MVCL,RR,0E
 0068BE E108D4E5D5404040           33739                       INSTR MVN,SS,E1
 0068C6 F108D4E5D6404040           33741                       INSTR MVO,SS,F1
 0068CE D308D4E5E9404040           33743                       INSTR MVZ,SS,D3
 0068D6 1C80D4D940404040           33745                       INSTR MR,RR,1C
 0068DE 5C40D44040404040           33747                       INSTR M,RX,5C
 0068E6 4C40D4C840404040           33749                       INSTR MH,RX,4C
 0068EE 1680D6D940404040           33751                       INSTR OR,RR,16
 0068F6 5640D64040404040           33753                       INSTR O,RX,56
 0068FE D608D6C340404040           33755                       INSTR OC,SS,D6
 006906 9610D6C940404040           33757                       INSTR OI,SI,96
 00690E F208D7C1C3D24040           33759                       INSTR PACK,SS,F2
 006916 0401E2D7D4404040           33761                       INSTR SPM,OTHER,04
 00691E 8F40E2D3C4C14040           33763                       INSTR SLDA,RX,8F
 006926 8D40E2D3C4D34040           33765                       INSTR SLDL,RX,8D
 00692E 8B40E2D3C1404040           33767                       INSTR SLA,RX,8B
 006936 8940E2D3D3404040           33769                       INSTR SLL,RX,89
 00693E 8E40E2D9C4C14040           33771                       INSTR SRDA,RX,8E
 006946 8C40E2D9C4D34040           33773                       INSTR SRDL,RX,8C
 00694E 8A40E2D9C1404040           33775                       INSTR SRA,RX,8A
 006956 8840E2D9D3404040           33777                       INSTR SRL,RX,88
 00695E 5040E2E340404040           33779                       INSTR ST,RX,50
 006966 4240E2E3C3404040           33781                       INSTR STC,RX,42
 00696E BE20E2E3C3D44040           33783                       INSTR STCM,RS,BE
 006976 B201E2E3C3D24040           33785                       INSTR STCK,OTHER,B2
 00697E 4040E2E3C8404040           33787                       INSTR STH,RX,40
 006986 9020E2E3D4404040           33789                       INSTR STM,RS,90
 00698E 1B80E2D940404040           33791                       INSTR SR,RR,1B
 006996 5B40E24040404040           33793                       INSTR S,RX,5B
 00699E 4B40E2C840404040           33795                       INSTR SH,RX,4B
 0069A6 1F80E2D3D9404040           33797                       INSTR SLR,RR,1F
 0069AE 5F40E2D340404040           33799                       INSTR SL,RX,5F
 0069B6 0A01E2E5C3404040           33801                       INSTR SVC,OTHER,0A
 0069BE 9301E3E240404040           33803                       INSTR TS,OTHER,93
 0069C6 9110E3D440404040           33805                       INSTR TM,SI,91
 0069CE DC08E3D940404040           33807                       INSTR TR,SS,DC
 0069D6 DD08E3D9E3404040           33809                       INSTR TRT,SS,DD
 0069DE F308E4D5D7D24040           33811                       INSTR UNPK,SS,F3
 0069E6 00016F6F6F404040           33813                       INSTR ???,OTHER,00       END OF LIST
1WBUG     (WBUG2025) (13:00) (15MAR04) Debug Subroutines                                                                    Page  140
0Current Usings:  (DBDSECT,R6) (*,R7) (CP,R11) (CV,R12)
0Loc    Object Code    Addr1 Addr2  Stmt Lv Lineno    Source Statement           (Hibal 5, Asmedit 3.3)  HLASM R4.0  2004/03/15 13.00
+___    ______ ____    _____ _____  ____ __ ______    ______ _________
0                                  33816                       QLTORG
1WBUG     (WBUG2025) (13:00) (15MAR04) Debug Subroutines                                                                    Page  141
0Current Usings:  (DBDSECT,R6) (*,R7) (CP,R11) (CV,R12)
0Loc    Object Code    Addr1 Addr2  Stmt Lv Lineno    Source Statement           (Hibal 5, Asmedit 3.3)  HLASM R4.0  2004/03/15 13.00
+___    ______ ____    _____ _____  ____ __ ______    ______ _________
0                                  33829              ¿þþþþþþþþþþþþþþþþþþþþþþþþþþþþþþþþþþþþþþþþþþþþþþþþþþþþþþþþþþþþþþþþþþþþþÜ
                                   33830              Ÿ                                                                     Ÿ
                                   33831              Ÿ                                                                     Ÿ
                                   33832              Ÿ  CHKRADDR - see if address is valid for read                        Ÿ
                                   33833              Ÿ                                                                     Ÿ
                                   33834              Ÿ  on entry:   r1 - address to check                                  Ÿ
                                   33835              Ÿ              r0 - length to check  (<256)                           Ÿ
                                   33836              Ÿ                                                                     Ÿ
                                   33837              Ÿ  on exit:   r15 - CC=0  valid address,  CC=NZ invalid address       Ÿ
                                   33838              Ÿ                                                                     Ÿ
                                   33839              Ÿ                                                                     Ÿ
                                                      ¾þþþþþþþþþþþþþþþþþþþþþþþþþþþþþþþþþþþþþþþþþþþþþþþþþþþþþþþþþþþþþþþþþþþþþ»
00069F0 50E0 D000/9008_      00000 33840              CHKRADDR XPROC ,
 DROP   *,R7
 USING  *,R7
 006A0A 1820                       33883                       LR    R2,R0              R1,R2 - LOC, LEN TO CHECK
 006A0C 4130 702E            06A38 33884                       LA    R3,BADRADDR
 006A10 5030 C710            00710 33885                       ST    R3,CVSPIEAD              SET SPIE EXIT
 006A14 5920 78D6/47D0_      072E0 33886                       CEIL  R2,256
 006A20 5920 78DA/47B0_      072E4 33905                       FLOOR R2,2
 006A2C 0620/4420 7982_            33924                       DEX   R2,' CLC 0(0,R1),0(R1)'  TEST ADDRESS
 006A32 1BFF                       33943                       SR    R15,R15
 006A34 47F0 7036            06A40 33944                       B     CHKREXIT
                                   33945
 006A38                            33946              BADRADDR LABEL ,
 006A38 41F0 0004            00004 33948                       LA    R15,4
 006A3C 47F0 7036            06A40 33949                       B     CHKREXIT
                                   33950
 006A40                            33951              CHKREXIT LABEL ,
 006A40 D703 C710 C710 00710 00710 33953                       CLEAR CVSPIEAD
 006A46 18D8/9808 D004_            33960                       PEND  ,
 DROP   *,R7
 USING  *,R7
1WBUG     (WBUG2025) (13:00) (15MAR04) Debug Subroutines                                                                    Page  142
0Current Usings:  (DBDSECT,R6) (*,R7) (CP,R11) (CV,R12)
0Loc    Object Code    Addr1 Addr2  Stmt Lv Lineno    Source Statement           (Hibal 5, Asmedit 3.3)  HLASM R4.0  2004/03/15 13.00
+___    ______ ____    _____ _____  ____ __ ______    ______ _________
0                                  33988              ¿þþþþþþþþþþþþþþþþþþþþþþþþþþþþþþþþþþþþþþþþþþþþþþþþþþþþþþþþþþþþþþþþþþþþþÜ
                                   33989              Ÿ                                                                     Ÿ
                                   33990              Ÿ                                                                     Ÿ
                                   33991              Ÿ  CHKSADDR - see if address is valid for store                       Ÿ
                                   33992              Ÿ                                                                     Ÿ
                                   33993              Ÿ  on entry:   r1 - address to check                                  Ÿ
                                   33994              Ÿ              r0 - length to check  (<256)                           Ÿ
                                   33995              Ÿ                                                                     Ÿ
                                   33996              Ÿ  on exit:   r15 - CC=0  valid address,  CC=NZ invalid address       Ÿ
                                   33997              Ÿ                                                                     Ÿ
                                   33998              Ÿ                                                                     Ÿ
                                                      ¾þþþþþþþþþþþþþþþþþþþþþþþþþþþþþþþþþþþþþþþþþþþþþþþþþþþþþþþþþþþþþþþþþþþþþ»
0006A54 50E0 D000/9008_      00000 33999              CHKSADDR XPROC ,
 DROP   *,R7
 USING  *,R7
 006A6E 1820                       34042                       LR    R2,R0              R1,R2 - LOC, LEN TO CHECK
 006A70 4130 702C            06A9A 34043                       LA    R3,BADSADDR
 006A74 5030 C710            00710 34044                       ST    R3,CVSPIEAD              SET SPIE EXIT
 006A78 5920 7872/47D0_      072E0 34045                       CEIL  R2,256
 006A84 5920 7876/47B0_      072E4 34064                       FLOOR R2,2
 006A90 4420 7924/D200_      07392 34083                       EX    R2,' MVC 0(0,R1),0(R1)'  TEST ADDRESS
 006A94 1BFF                       34099                       SR    R15,R15
 006A96 47F0 7034            06AA2 34100                       B     CHKSEXIT
                                   34101
 006A9A                            34102              BADSADDR LABEL ,
 006A9A 41F0 0004            00004 34104                       LA    R15,4
 006A9E 47F0 7034            06AA2 34105                       B     CHKSEXIT
                                   34106
 006AA2                            34107              CHKSEXIT LABEL ,
 006AA2 D703 C710 C710 00710 00710 34109                       CLEAR CVSPIEAD
 006AA8 18D8/9808 D004_            34116                       PEND  ,
 DROP   *,R7
 USING  *,R7
1WBUG     (WBUG2025) (13:00) (15MAR04) Debug Subroutines                                                                    Page  143
0Current Usings:  (DBDSECT,R6) (*,R7) (CP,R11) (CV,R12)
0Loc    Object Code    Addr1 Addr2  Stmt Lv Lineno    Source Statement           (Hibal 5, Asmedit 3.3)  HLASM R4.0  2004/03/15 13.00
+___    ______ ____    _____ _____  ____ __ ______    ______ _________
0000000                00000 00008 34144              CHKIWA   RECORD BEGIN
 000000                            34152  1           CHKINAME   DS    CL8
 000008                00008 00008 34153                       END
-                                  34163              ¿þþþþþþþþþþþþþþþþþþþþþþþþþþþþþþþþþþþþþþþþþþþþþþþþþþþþþþþþþþþþþþþþþþþþþÜ
                                   34164              Ÿ                                                                     Ÿ
                                   34165              Ÿ                                                                     Ÿ
                                   34166              Ÿ  CHKIADDR - see if address is an instruction address,               Ÿ
                                   34167              Ÿ             we check for valid opcode, and check a bit to           Ÿ
                                   34168              Ÿ             see if the address is in the program, not data area     Ÿ
                                   34169              Ÿ                                                                     Ÿ
                                   34170              Ÿ  on entry:   r1 - address to check                                  Ÿ
                                   34171              Ÿ                                                                     Ÿ
                                   34172              Ÿ  on exit:   r15 - CC=0  valid address,  CC=NZ invalid address       Ÿ
                                   34173              Ÿ                                                                     Ÿ
                                   34174              Ÿ                                                                     Ÿ
                                                      ¾þþþþþþþþþþþþþþþþþþþþþþþþþþþþþþþþþþþþþþþþþþþþþþþþþþþþþþþþþþþþþþþþþþþþþ»
0006AB6 50E0 D000/9008_      00000 34175              CHKIADDR XPROC CHKIWA
 DROP   *,R7
 USING  *,R7
 USING  CHKIWA-(4+36),R8
                                   34229                       COMMENT                  R1 - ADDRESS TO CHECK
 006AD0 4100 0002            00002 34230                       LA    R0,2
 006AD4 58E0 7818/0DEE       072E8 34231                       ACALL CHKRADDR           CHECK ADDR FOR READ, WEAK CHECK
 006ADA 4770 7058            06B28 34235                       IF    NZ,BADIADDR
 006ADE 1821                       34249                       LR    R2,R1              CHECK FOR EVEN ADDRESS
 006AE0 8820 001F            0001F 34250                       SRL   R2,31
 006AE4 1222/4770 7058             34251                       IF    (R2,NZ),BADIADDR
 006AEA 1B22                       34268                       SR    R2,R2              CHECK FOR INSTRUCTION OP CODE
 006AEC 4321 0000            00000 34269                       IC    R2,0(R1)
 006AF0 4322 706E            06B3E 34270                       IC    R2,INSTTYPE(R2)
 006AF4 1222/4770 7058             34271                       IF    (R2,NZ),BADIADDR
 006AFA 58E0 781C/0DEE       072EC 34288                       ACALL EVALADDR           CHECK IF NOT IN PROGRAM CSECTS
 006B00 90F0 8028            00000 34292                       STM   R15,R0,CHKINAME             (DESTROYS ADDR IN R1)
 006B04 D507 8028 77E8 00000 072B8 34293                       CLC   CHKINAME(8),=C'CV      '
 006B0A 4780 7058            06B28 34294                       BE    BADIADDR
 006B0E D507 8028 77F0 00000 072C0 34295                       CLC   CHKINAME(8),=C'CP      '
 006B14 4780 7058            06B28 34296                       BE    BADIADDR
 006B18 D507 8028 77F8 00000 072C8 34297                       CLC   CHKINAME(8),=C'STACK   '
 006B1E 4780 7058            06B28 34298                       BE    BADIADDR
 006B22 1BFF                       34299                       SR    R15,R15            IF NOT BAD, THEN IT MUST BE OK
 006B24 47F0 7060            06B30 34300                       B     CHKIEXIT
-
0006B28                            34302              BADIADDR LABEL ,
 006B28 41F0 0004            00004 34304                       LA    R15,4
 006B2C 47F0 7060            06B30 34305                       B     CHKIEXIT
1WBUG     (WBUG2025) (13:00) (15MAR04) Debug Subroutines                                                                    Page  144
0Current Usings:  (DBDSECT,R6) (*,R7) (CHKIWA-(4+36),R8) (CP,R11) (CV,R12)
0Loc    Object Code    Addr1 Addr2  Stmt Lv Lineno    Source Statement           (Hibal 5, Asmedit 3.3)  HLASM R4.0  2004/03/15 13.00
+___    ______ ____    _____ _____  ____ __ ______    ______ _________
0                                  34306                       ¿þþþþþþþþÜ
                                   34307                       Ÿ  EXIT  Ÿ
                                   34308                       ¾þþþþþþþþ»
 006B30                            34309              CHKIEXIT LABEL ,
 006B30 18D8/9808 D004_            34311                       PEND  ,
 DROP   CHKIWA-(4+36),R8
 DROP   *,R7
 USING  *,R7
1WBUG     (WBUG2025) (13:00) (15MAR04) Debug Subroutines                                                                    Page  145
0Current Usings:  (DBDSECT,R6) (*,R7) (CP,R11) (CV,R12)
0Loc    Object Code    Addr1 Addr2  Stmt Lv Lineno    Source Statement           (Hibal 5, Asmedit 3.3)  HLASM R4.0  2004/03/15 13.00
+___    ______ ____    _____ _____  ____ __ ______    ______ _________
0                                  34344              ¿þþþþþþþþþþþþþþþþþþþþþþþþþþþþþþþþþþþþþþþþþþþþþþþþþþþþþþþþþþþþþþþþþþþþþÜ
                                   34345              Ÿ                                                                     Ÿ
                                   34346              Ÿ                                                                     Ÿ
                                   34347              Ÿ   INSTRUCTION TYPE TABLE  (370-XA)                                  Ÿ
                                   34348              Ÿ                                                                     Ÿ
                                   34349              Ÿ     0 - GENERAL INSTRUCTION                                         Ÿ
                                   34350              Ÿ     4 - INVALID OPCODE                                              Ÿ
                                   34351              Ÿ     8 - DECIMAL                                                     Ÿ
                                   34352              Ÿ    12 - FLOATING POINT                                              Ÿ
                                   34353              Ÿ    16 - CONTROL                                                     Ÿ
                                   34354              Ÿ    20 - I/O AND MORE (B2 OPCODE)                                    Ÿ
                                   34355              Ÿ                                                                     Ÿ
                                   34356              Ÿ                                                                     Ÿ
                                   34357              Ÿ               0 1 2 3 4 5 6 7 8 9 A B C D E F                       Ÿ
                                   34358              Ÿ                                                                     Ÿ
                                                      ¾þþþþþþþþþþþþþþþþþþþþþþþþþþþþþþþþþþþþþþþþþþþþþþþþþþþþþþþþþþþþþþþþþþþþþ»
0006B3E 0404040400000000           34359              INSTTYPE DC    X'04040404000000000404000000000000'   0
 006B4E 0000000000000000           34360                       DC    X'00000000000000000000000000000000'   1
 006B5E 0C0C0C0C0C0C0C0C           34361                       DC    X'0C0C0C0C0C0C0C0C0C0C0C0C0C0C0C0C'   2
 006B6E 0C0C0C0C0C0C0C0C           34362                       DC    X'0C0C0C0C0C0C0C0C0C0C0C0C0C0C0C0C'   3
 006B7E 0000000000000000           34363                       DC    X'00000000000000000000000000000000'   4
 006B8E 0004040400000000           34364                       DC    X'00040404000000000000000000000000'   5
 006B9E 0C0404040404040C           34365                       DC    X'0C0404040404040C0C0C0C0C0C0C0C0C'   6
 006BAE 0C04040404040404           34366                       DC    X'0C040404040404040C0C0C0C0C0C0C0C'   7
 006BBE 1004101004040000           34367                       DC    X'10041010040400000000000000000000'   8
 006BCE 0000000000000000           34368                       DC    X'00000000000000000010040404040404'   9
 006BDE 0404040404040404           34369                       DC    X'04040404040404040404040410101000'   A
 006BEE 0410140404041010           34370                       DC    X'04101404040410100404000004000000'   B
 006BFE 0404040404040404           34371                       DC    X'04040404040404040404040404040404'   C
 006C0E 0400000000000000           34372                       DC    X'04000000000000000410101000000808'   F
 006C1E 0404040404100404           34373                       DC    X'04040404041004040404040404040404'   E
 006C2E 0800000004040404           34374                       DC    X'08000000040404040808080808080404'   F
1WBUG     (WBUG2025) (13:00) (15MAR04) Debug Subroutines                                                                    Page  146
0Current Usings:  (DBDSECT,R6) (*,R7) (CP,R11) (CV,R12)
0Loc    Object Code    Addr1 Addr2  Stmt Lv Lineno    Source Statement           (Hibal 5, Asmedit 3.3)  HLASM R4.0  2004/03/15 13.00
+___    ______ ____    _____ _____  ____ __ ______    ______ _________
0000000                00000 00008 34376              CKINWA   RECORD BEGIN
 000000                            34384  1           CKINTEMP   DS    CL8
 000008                00008 00008 34385                       END
-                                  34395              ¿þþþþþþþþþþþþþþþþþþþþþþþþþþþþþþþþþþþþþþþþþþþþþþþþþþþþþþþþþþþþþþþþþþþþþÜ
                                   34396              Ÿ                                                                     Ÿ
                                   34397              Ÿ                                                                     Ÿ
                                   34398              Ÿ  CHKINST - Check if instruction or data                             Ÿ
                                   34399              Ÿ                                                                     Ÿ
                                   34400              Ÿ       on entry:  r1 - address                                       Ÿ
                                   34401              Ÿ                                                                     Ÿ
                                   34402              Ÿ       on exit:   r15=0 - yes,  r15=NZ - not instruction             Ÿ
                                   34403              Ÿ                                                                     Ÿ
                                   34404              Ÿ                                                                     Ÿ
                                   34405              Ÿ  This routine makes an attemp to determine whether we are           Ÿ
                                   34406              Ÿ  looking at an instruction or data.  We make a number of            Ÿ
                                   34407              Ÿ  tests none are always right,,,  we try to error in favor           Ÿ
                                   34408              Ÿ  of the instruction.                                                Ÿ
                                   34409              Ÿ                                                                     Ÿ
                                   34410              Ÿ                                                                     Ÿ
                                   34411              Ÿ                                                                     Ÿ
                                                      ¾þþþþþþþþþþþþþþþþþþþþþþþþþþþþþþþþþþþþþþþþþþþþþþþþþþþþþþþþþþþþþþþþþþþþþ»
0006C3E 50E0 D000/9008_      00000 34412              CHKINST  PROC  CKINWA
 DROP   *,R7
 USING  *,R7
 USING  CKINWA-(4+36),R8
                                   34465
 006C58 4100 0020            00020 34466                       LA    R0,32              CHECK READ ACCESS FOR 32 BYTES
 006C5C 58E0 7690/0DEE       072E8 34467                       ACALL CHKRADDR
 006C62 4780 701A            06C72 34471                       IF    NZ,BEGIN
 006C66 4110 7678/4100_      072D0 34482  1                      ABORT 'Invalid address.'
 006C72                            34489                       END
                                   34493
 006C72 4140 0004            00004 34494                       LA    R4,4               CHECK FOR 4 INSTRUCTIONS
 006C76 1244/4780 710C             34495                       WHILE (R4,NZ),BEGIN      LOOP THRU 4 INSTRUCTIONS
                                   34511  1
 006C7C 5830 7698            072F0 34512  1                      L     R3,=A(INSTTYPE)    CHECK FOR VALID OPCODE
 006C80 1B22                       34513  1                      SR    R2,R2
 006C82 4321 0000            00000 34514  1                      IC    R2,0(R1)
 006C86 4323 2000            00000 34515  1                      IC    R2,0(R3,R2)
 006C8A 1222/4770 7118             34516  1                      IF    (R2,NZ),NOTINST
                                   34533  1
 006C90 9505 1000/4780_00000       34534  1                      IF    (@R1,EQ,X'05'),GOTINST    CHECK FOR BRANCH OPCODES
 006C98 9507 1000/4780_00000       34553  1                      IF    (@R1,EQ,X'07'),GOTINST
 006CA0 950B 1000/4780_00000       34572  1                      IF    (@R1,EQ,X'0B'),GOTINST
 006CA8 950C 1000/4780_00000       34591  1                      IF    (@R1,EQ,X'0C'),GOTINST
 006CB0 950D 1000/4780_00000       34610  1                      IF    (@R1,EQ,X'0D'),GOTINST
 006CB8 9545 1000/4780_00000       34629  1                      IF    (@R1,EQ,X'45'),GOTINST
 006CC0 9547 1000/4780_00000       34648  1                      IF    (@R1,EQ,X'47'),GOTINST
 006CC8 954D 1000/4780_00000       34667  1                      IF    (@R1,EQ,X'4D'),GOTINST
                                   34686  1
 006CD0 D503 769C 1000_072F4 00000 34687  1                      IF    (@R1,EQ,'    '),NOTINST   CHECK FOR BLANKS, LETTERS
1WBUG     (WBUG2025) (13:00) (15MAR04) Debug Subroutines                                                                    Page  147
0Current Usings:  (DBDSECT,R6) (*,R7) (CKINWA-(4+36),R8) (CP,R11) (CV,R12)
0Loc    Object Code    Addr1 Addr2  Stmt Lv Lineno    Source Statement           (Hibal 5, Asmedit 3.3)  HLASM R4.0  2004/03/15 13.00
+___    ______ ____    _____ _____  ____ __ ______    ______ _________
0006CDA 1B00                       34706  1                      SR    R0,R0
 006CDC 1821                       34707  1                      LR    R2,R1
 006CDE 4130 0006            00006 34708  1                      LA    R3,6
 006CE2 1233/47D0 70AE             34709  1                      WHILE (R3,POS),BEGIN     CHECK FOR 6 UPPER CASE LETTERS
 006CE8 95C0 2000/4730_00000       34725  2                        IF    ((@R2,LE,X'C0'),AND,(@R2,NE,X'40')),' LA R0,1 '
 006CFC 4122 0001            00001 34762  2                        LA    R2,1(R2)
 006D00 0630                       34763  2                        BCTR  R3,0
 006D02 47F0 708A            06CE2 34764  1                      END
 006D06 1200/4780 7118             34769  1                      IF    (R0,Z),NOTINST
 006D0C 1B00                       34786  1                      SR    R0,R0
 006D0E 1821                       34787  1                      LR    R2,R1
 006D10 4130 0008            00008 34788  1                      LA    R3,8
 006D14 1233/47D0 70E0             34789  1                      WHILE (R3,POS),BEGIN     CHECK FOR 8 LOWER CASE LETTERS
 006D1A 9580 2000/4730_00000       34805  2                        IF    ((@R2,LE,X'80'),AND,(@R2,NE,X'40')),' LA R0,1 '
 006D2E 4122 0001            00001 34842  2                        LA    R2,1(R2)
 006D32 0630                       34843  2                        BCTR  R3,0
 006D34 47F0 70BC            06D14 34844  1                      END
 006D38 1200/4780 7118             34849  1                      IF    (R0,Z),NOTINST
                                   34866  1
 006D3E 4120 0002            00002 34867  1                      LA    R2,2                      CHECK NEXT INSTRUCTION
 006D42 9540 1000/4750_00000       34868  1                      IF    (@R1,GE,X'40'),' LA R2,4 '      GET INSTRUCTION LEN
 006D4E 95D0 1000/4750_00000       34890  1                      IF    (@R1,GE,X'D0'),' LA R2,6 '
 006D5A 4112 1000            00000 34912  1                      LA    R1,0(R2,R1)
 006D5E 0640                       34913  1                      BCTR  R4,0
 006D60 47F0 701E            06C76 34914                       END   ,                  LOOP CHECKING NEXT INSTRUCTION
 006D64 47F0 7110            06D68 34919                       B     GOTINST            FALL THRU INDICATES WE HAVE INSTR.
                                   34920
 006D68                            34921              GOTINST  LABEL ,
 006D68 1BFF/1BFF                  34923                       CLEAR R15,R15
 006D6C 47F0 7120            06D78 34929                       B     CKINEXIT
                                   34930
 006D70                            34931              NOTINST  LABEL ,
 006D70 41F0 0004            00004 34933                       LA    R15,4
 006D74 47F0 7120            06D78 34934                       B     CKINEXIT
                                   34935
 006D78                            34936              CKINEXIT LABEL ,
 006D78 18D8/9808 D004_            34938                       PEND  ,
 DROP   CKINWA-(4+36),R8
 DROP   *,R7
 USING  *,R7
1WBUG     (WBUG2025) (13:00) (15MAR04) Debug Subroutines                                                                    Page  148
0Current Usings:  (DBDSECT,R6) (*,R7) (CP,R11) (CV,R12)
0Loc    Object Code    Addr1 Addr2  Stmt Lv Lineno    Source Statement           (Hibal 5, Asmedit 3.3)  HLASM R4.0  2004/03/15 13.00
+___    ______ ____    _____ _____  ____ __ ______    ______ _________
0000000                00000 00008 34971              STOPWA   RECORD BEGIN
 000000                            34979  1           STOPNAME   DS    CL8
 000008                00008 00008 34980                       END
-                                  34990              ¿þþþþþþþþþþþþþþþþþþþþþþþþþþþþþþþþþþþþþþþþþþþþþþþþþþþþþþþþþþþþþþþþþþþþþÜ
                                   34991              Ÿ                                                                     Ÿ
                                   34992              Ÿ                                                                     Ÿ
                                   34993              Ÿ  STOPMSG - print break message                                      Ÿ
                                   34994              Ÿ                                                                     Ÿ
                                   34995              Ÿ  samples:                                                           Ÿ
                                   34996              Ÿ      TRAP,  GG.XX2 stopped at CR+01448 (SEGDC entry)                Ÿ
                                   34997              Ÿ      TRAP,  GG.XX2 stopped at CR+01458                              Ÿ
                                   34998              Ÿ      TRAP,  GG.XX2 stopped at CR+0145C (SEGDC return)               Ÿ
                                   34999              Ÿ      TRACE, GG.XX2 stopped at SCAN+0234 (SCANINIT entry)            Ÿ
                                   35000              Ÿ      INTERRUPT (0005), GG.XX2 stopped at DEBUG+0123                 Ÿ
                                   35001              Ÿ                                                                     Ÿ
                                   35002              Ÿ                                                                     Ÿ
                                                      ¾þþþþþþþþþþþþþþþþþþþþþþþþþþþþþþþþþþþþþþþþþþþþþþþþþþþþþþþþþþþþþþþþþþþþþ»
0006D86 50E0 D000/9008_      00000 35003              STOPMSG  PROC  STOPWA
 DROP   *,R7
 USING  *,R7
 USING  STOPWA-(4+36),R8
 006DA0 5860 7558            072F8 35056                       L     R6,=A(DBAREA)      GET ADDRIBILITY
                                   35057
 006DA4 4150 6084            00084 35058                       LA    R5,DBTRAPNF
 USING  DBTRAP,R5                  35059                       WITH  (DBTRAP,R5),BEGIN
                                   35073  1
 006DA8 9180 600A/47E0_0000A       35074  1                      IF    DBEXECD,BEGIN
 006DB0 947F 600A      0000A       35089  2                        CLEAR DBEXECD
 006DB4 4110 755C/4100_      072FC 35096  2                        TSEG  '  ... trap(s) hit and ignored in dispatcher.',,CR
 006DC6                            35114  1                      END
                                   35118  1
 006DC6 9102 5006/47E0_00006       35119  1                      IF    DBTPIRPT,BEGIN     IF INTERRUPT (000X),
 006DCE 4110 75C6/4100_      07366 35134  2                        TSEG  'INTERRUPT ('
 006DE0 5810 6028/4100_      00028 35152  2                        THEX  L:DBIC,4
 006DF2 4110 75D1/4100_      07371 35177  2                        TSEG  '), '
 006E04 5810 6010            00010 35195  2                        L     R1,DBEEJCB
 006E08 58E0 7594/0DEE       07334 35196  2                        ACALL TSEGUSER
 006E0E 4110 7598/4100_      07338 35200  2                        TSEG  ' stopped at '
 006E20 5810 6020            00020 35218  2                        L     R1,DBIA
 006E24 58E0 75A4/0DEE       07344 35219  2                        ACALL TSEGADDR
 006E2A 47F0 7372            07112 35223  2                        B     SMSGEXIT
 006E2E                            35224  1                      END
                                   35228  1
 006E2E 9180 5006/47E0_00006       35229  1                      IF    DBTPNORM,BEGIN     IF USER TRAP,,
 006E36 4110 75D4/4100_      07374 35244  2                        TSEG  'TRAP,  '
 006E48 5810 6010            00010 35262  2                        L     R1,DBEEJCB
 006E4C 58E0 7594/0DEE       07334 35263  2                        ACALL TSEGUSER
 006E52 4110 7598/4100_      07338 35267  2                        TSEG  ' stopped at '
 006E64 5810 6020            00020 35285  2                        L     R1,DBIA
 006E68 58E0 75A4/0DEE       07344 35286  2                        ACALL TSEGADDR
 006E6E 4150 61B4            001B4 35290  2                        LA    R5,DBTRAPT         SEE IF WE KNOW ROUTINE NAME
1WBUG     (WBUG2025) (13:00) (15MAR04) Debug Subroutines                                                                    Page  149
0Current Usings:  (DBTRAP,R5) (DBDSECT,R6) (*,R7) (STOPWA-(4+36),R8) (CP,R11) (CV,R12)
0Loc    Object Code    Addr1 Addr2  Stmt Lv Lineno    Source Statement           (Hibal 5, Asmedit 3.3)  HLASM R4.0  2004/03/15 13.00
+___    ______ ____    _____ _____  ____ __ ______    ______ _________
0006E72 4140 000E            0000E 35291  2                        LA    R4,RETTC+2         LOOP THRU ENTRY AND RETURN TRAPS
 006E76 5810 6020            00020 35292  2                        L     R1,DBIA
 006E7A 1244/4780 70F2_            35293  2                        WHILE ((R4,NZ),AND,(R1,NE,DBTPADDR)),BEGIN
 006E88 4150 5010            00010 35325  3                          LA    R5,DBTPNEXT
 006E8C 0640                       35326  3                          BCTR  R4,0
 006E8E 47F0 70DA            06E7A 35327  2                        END
 006E92 1244/4780 716A             35332  2                        IF    (R4,NZ),BEGIN      IF TRAP AT TRACE ADDR, GIVE
 006E98 4110 75B4/4100_      07354 35346  3                          TSEG  ' ('                  ROUTINE ADDRESS
 006EAA 4110 5008/4100_      00008 35364  3                          TSEG  DBTPNAME,8,TB
 006EBC 9110 5006/47E0_00006       35394  3                          IF    DBTPTRC,BEGIN
 006EC4 4110 75B6/4100_      07356 35409  4                            TSEG  'trace)'
 006ED6                            35427  3                          END
 006ED6 9108 5006/47E0_00006       35431  3                          IF    DBTPNTY,BEGIN
 006EDE 4110 75BC/4100_      0735C 35446  4                            TSEG  'entry)'
 006EF0                            35464  3                          END
 006EF0 9104 5006/47E0_00006       35468  3                          IF    DBTPRET,BEGIN
 006EF8 4110 75DB/4100_      0737B 35483  4                            TSEG  'return)'
 006F0A                            35501  3                          END
 006F0A                            35505  2                        END
 006F0A 47F0 7372            07112 35509  2                        B     SMSGEXIT
 006F0E                            35510  1                      END
                                   35514  1
 006F0E 9110 5006/47E0_00006       35515  1                      IF    DBTPTRC,BEGIN      IF TRACE,
 006F16 D207 8028 5008 00000 00008 35530  2                        MVC   STOPNAME(8),DBTPNAME   SEE IF THERE IS #ROUTINE TRAP
 006F1C 4150 6094            00094 35531  2                        LA    R5,DBTRAPS             TRAP TAKES PRECEDENT OVER TRACE
 006F20 4140 0010            00010 35532  2                        LA    R4,USERTC
 006F24 1244/4780 719E_            35533  2                        WHILE ((R4,NZ),AND,(' CLC STOPNAME(8),DBTPNAME',NE)),BEGIN
 006F34 4150 5010            00010 35561  3                          LA    R5,DBTPNEXT
 006F38 0640                       35562  3                          BCTR  R4,0
 006F3A 47F0 7184            06F24 35563  2                        END
 006F3E 4150 6084            00084 35568  2                        LA    R5,DBTRAPNF
 006F42 1244/4780 71BA             35569  2                        IF    (R4,NZ),BEGIN      FOUND #ROUTINE TRAP AT ENTRY
 006F48 4110 75D4/4100_      07374 35583  3                          TSEG  'TRAP,  '
 006F5A                            35601  2                        END
 006F5A 1244/4770 71D2             35605  2                        IF    (R4,Z),BEGIN       DID NOT FIND TRAP AT ENTRY TRACE
 006F60 4110 75E2/4100_      07382 35619  3                          TSEG  'TRACE, '
 006F72                            35637  2                        END
 006F72 5810 6010            00010 35641  2                        L     R1,DBEEJCB
 006F76 58E0 7594/0DEE       07334 35642  2                        ACALL TSEGUSER
 006F7C 4110 7598/4100_      07338 35646  2                        TSEG  ' stopped at '
 006F8E 5810 6020            00020 35664  2                        L     R1,DBIA
 006F92 58E0 75A4/0DEE       07344 35665  2                        ACALL TSEGADDR
 006F98 4110 75B4/4100_      07354 35669  2                        TSEG  ' ('
 006FAA 4110 5008/4100_      00008 35687  2                        TSEG  DBTPNAME,8,TB
 006FBC 4110 75B6/4100_      07356 35717  2                        TSEG  'trace)'
 006FCE 47F0 7372            07112 35735  2                        B     SMSGEXIT
 006FD2                            35736  1                      END
                                   35740  1
 006FD2 9108 5006/47E0_00006       35741  1                      IF    DBTPNTY,BEGIN      IF TRACE ENTRY,,
 006FDA D207 8028 5008 00000 00008 35756  2                        MVC   STOPNAME(8),DBTPNAME  SEE IF THERE IS #ROUTINE TRAP
 006FE0 4150 6094            00094 35757  2                        LA    R5,DBTRAPS            TRAP TAKES PRECEDENT OVER TRACE
 006FE4 4140 0010            00010 35758  2                        LA    R4,USERTC
 006FE8 1244/4780 7262_            35759  2                        WHILE ((R4,NZ),AND,(' CLC STOPNAME(8),DBTPNAME',NE)),BEGIN
 006FF8 4150 5010            00010 35787  3                          LA    R5,DBTPNEXT
1WBUG     (WBUG2025) (13:00) (15MAR04) Debug Subroutines                                                                    Page  150
0Current Usings:  (DBTRAP,R5) (DBDSECT,R6) (*,R7) (STOPWA-(4+36),R8) (CP,R11) (CV,R12)
0Loc    Object Code    Addr1 Addr2  Stmt Lv Lineno    Source Statement           (Hibal 5, Asmedit 3.3)  HLASM R4.0  2004/03/15 13.00
+___    ______ ____    _____ _____  ____ __ ______    ______ _________
0006FFC 0640                       35788  3                          BCTR  R4,0
 006FFE 47F0 7248            06FE8 35789  2                        END
 007002 4150 6084            00084 35794  2                        LA    R5,DBTRAPNF
 007006 1244/4780 727E             35795  2                        IF    (R4,NZ),BEGIN      FOUND #ROUTINE TRAP AT ENTRY
 00700C 4110 75D4/4100_      07374 35809  3                          TSEG  'TRAP,  '
 00701E                            35827  2                        END
 00701E 1244/4770 7296             35831  2                        IF    (R4,Z),BEGIN       DID NOT FIND TRAP AT ENTRY TRACE
 007024 4110 75E2/4100_      07382 35845  3                          TSEG  'TRACE, '
 007036                            35863  2                        END
 007036 5810 6010            00010 35867  2                        L     R1,DBEEJCB
 00703A 58E0 7594/0DEE       07334 35868  2                        ACALL TSEGUSER
 007040 4110 7598/4100_      07338 35872  2                        TSEG  ' stopped at '
 007052 5810 6020            00020 35890  2                        L     R1,DBIA
 007056 58E0 75A4/0DEE       07344 35891  2                        ACALL TSEGADDR
 00705C 4110 75B4/4100_      07354 35895  2                        TSEG  ' ('
 00706E 4110 5008/4100_      00008 35913  2                        TSEG  DBTPNAME,8,TB
 007080 4110 75BC/4100_      0735C 35943  2                        TSEG  'entry)'
 007092 47F0 7372            07112 35961  2                        B     SMSGEXIT
 007096                            35962  1                      END
                                   35966  1
 007096 9104 5006/47E0_00006       35967  1                      IF    DBTPRET,BEGIN      IF TRACE RETURN,,
 00709E 4110 75E2/4100_      07382 35982  2                        TSEG  'TRACE, '
 0070B0 5810 6010            00010 36000  2                        L     R1,DBEEJCB
 0070B4 58E0 7594/0DEE       07334 36001  2                        ACALL TSEGUSER
 0070BA 4110 7598/4100_      07338 36005  2                        TSEG  ' stopped at '
 0070CC 5810 6020            00020 36023  2                        L     R1,DBIA
 0070D0 58E0 75A4/0DEE       07344 36024  2                        ACALL TSEGADDR
 0070D6 4110 75B4/4100_      07354 36028  2                        TSEG  ' ('
 0070E8 4110 5008/4100_      00008 36046  2                        TSEG  DBTPNAME,8,TB
 0070FA 4110 75DB/4100_      0737B 36076  2                        TSEG  'return)'
 00710C 47F0 7372            07112 36094  2                        B     SMSGEXIT
 007110                            36095  1                      END
                                   36099  1
 007110 0000                       36100  1                      STOP                     ANYBODY ELSE IS BOMB
 DROP   DBTRAP,R5                  36102                       END   , WITH (DBTRAP,R5)
                                   36110              ¿þþþþþþÜ
                                   36111              Ÿ      Ÿ
                                   36112              ¾þþþþþþ»
 007112                            36113              SMSGEXIT LABEL ,
 007112 1B00/41F0 B050_            36115                       TCR
 00711E 18D8/9808 D004_            36140                       PEND  ,
 DROP   STOPWA-(4+36),R8
 DROP   *,R7
 USING  *,R7
1WBUG     (WBUG2025) (13:00) (15MAR04) Debug Subroutines                                                                    Page  151
0Current Usings:  (DBDSECT,R6) (*,R7) (CP,R11) (CV,R12)
0Loc    Object Code    Addr1 Addr2  Stmt Lv Lineno    Source Statement           (Hibal 5, Asmedit 3.3)  HLASM R4.0  2004/03/15 13.00
+___    ______ ____    _____ _____  ____ __ ______    ______ _________
0                                  36173              ¿þþþþþþþþþþþþþþþþþþþþþþþþþþþþþþþþþþþþþþþþþþþþþþþþþþþþþþþþþþþþþþþþþþþþþÜ
                                   36174              Ÿ                                                                     Ÿ
                                   36175              Ÿ                                                                     Ÿ
                                   36176              Ÿ  TSEGUSER - tseg gg.uuu or gg.uuu#nn                                Ÿ
                                   36177              Ÿ                                                                     Ÿ
                                   36178              Ÿ    on input,  R1 - JCB ADDR                                         Ÿ
                                   36179              Ÿ                                                                     Ÿ
                                   36180              Ÿ                                                                     Ÿ
                                                      ¾þþþþþþþþþþþþþþþþþþþþþþþþþþþþþþþþþþþþþþþþþþþþþþþþþþþþþþþþþþþþþþþþþþþþþ»
000712C 50E0 D000/9008_      00000 36181              TSEGUSER PROC  ,
 DROP   *,R7
 USING  *,R7
 007146 1851                       36223                       LR    R5,R1
 USING  JCB,R5                     36224                       WITH  (JCB,R5)
                                   36237
 007148 4110 504D/4100_      0004D 36238                       TSEG  JCBGRP
 00715A 4110 7243/4100_      07389 36266                       TSEG  '.'
 00716C 4110 504A/4100_      0004A 36284                       TSEG  JCBUSER
                                   36312
 00717E D501 721C 504F_07362 0004F 36313                       IF    (JCBANO,GT,1),BEGIN
 007188 4110 7244/4100_      0738A 36331  1                      TSEG  '#'
 00719A 1F11/BF13 504F_            36349  1                      TNUM  L2:JCBANO
 0071AC                            36377                       END
                                   36381
 0071AC 18D8/9808 D004_            36382                       PEND  ,
 DROP   JCB,R5
 DROP   *,R7
 USING  *,R7
1WBUG     (WBUG2025) (13:00) (15MAR04) Debug Subroutines                                                                    Page  152
0Current Usings:  (DBDSECT,R6) (*,R7) (CP,R11) (CV,R12)
0Loc    Object Code    Addr1 Addr2  Stmt Lv Lineno    Source Statement           (Hibal 5, Asmedit 3.3)  HLASM R4.0  2004/03/15 13.00
+___    ______ ____    _____ _____  ____ __ ______    ______ _________
0000000                00000 00008 36415              TAWA     RECORD BEGIN
 000000                            36423  1           TANAME     DS    CL8
 000008                00008 00008 36424                       END
                                   36433              ¿þþþþþþþþþþþþþþþþþþþþþþþþþþþþþþþþþþþþþþþþþþþþþþþþþþþþþþþþþþþþþþþþþþþþþÜ
                                   36434              Ÿ                                                                     Ÿ
                                   36435              Ÿ                                                                     Ÿ
                                   36436              Ÿ  TSEGADDR - tseg an address,                                        Ÿ
                                   36437              Ÿ             gives MODULE+OFFSET, or ADDRESS                         Ÿ
                                   36438              Ÿ                                                                     Ÿ
                                   36439              Ÿ   on input, R1 - ADDRESS                                            Ÿ
                                   36440              Ÿ                                                                     Ÿ
                                   36441              Ÿ                                                                     Ÿ
                                                      ¾þþþþþþþþþþþþþþþþþþþþþþþþþþþþþþþþþþþþþþþþþþþþþþþþþþþþþþþþþþþþþþþþþþþþþ»
00071BA 50E0 D000/9008_      00000 36442              TSEGADDR PROC  TAWA
 DROP   *,R7
 USING  *,R7
 USING  TAWA-(4+36),R8
 0071D4 58E0 7118/0DEE       072EC 36495                       ACALL EVALADDR           GET MODULE+OFFSET REPRESENTATION
 0071DA 90F0 8028            00000 36499                       STM   R15,R0,TANAME      MODULE NAME
 0071DE 1821                       36500                       LR    R2,R1              OFFSET  (OR ADDR)
 0071E0 12FF/4780 704A             36501                       IF    (R15,NZ),BEGIN     IF MODULE NAME,
 0071E6 4110 8028/4100_      00000 36515  1                      TSEG  TANAME,8,T         MODULE+
 0071F8 1222/4780 704A             36545  1                      IF    (R2,NZ),BEGIN
 0071FE 4110 7190/4100_      07364 36559  2                        TSEG  '+0'                      0HHHEX
 007210 1812/1B00/41F0_            36577  2                        THEX  (R2)
 00721E                            36599  1                      END
 00721E                            36603                       END
 00721E 704E/47F0 705E 0721E 071E4 36607                       ELSE  BEGIN ,            IF NO MODULE NAME, JUST GIVE ADDR
 007222 1812/4100 0008_            36618  1                      THEX  (R2),8
 007232                            36643                       END
 007232 18D8/9808 D004_            36647                       PEND  ,
 DROP   TAWA-(4+36),R8
 DROP   *,R7
 USING  *,R7
1WBUG     (WBUG2025) (13:00) (15MAR04) Debug Subroutines                                                                    Page  153
0Current Usings:  (DBDSECT,R6) (*,R7) (CP,R11) (CV,R12)
0Loc    Object Code    Addr1 Addr2  Stmt Lv Lineno    Source Statement           (Hibal 5, Asmedit 3.3)  HLASM R4.0  2004/03/15 13.00
+___    ______ ____    _____ _____  ____ __ ______    ______ _________
0000000                00000 00008 36680              TSWA     RECORD BEGIN
 000000                            36688  1           TSNAME     DS    CL8                 SYMBOL NAME
 000008                00008 00008 36689                       END
                                   36698              ¿þþþþþþþþþþþþþþþþþþþþþþþþþþþþþþþþþþþþþþþþþþþþþþþþþþþþþþþþþþþþþþþþþþþþþÜ
                                   36699              Ÿ                                                                     Ÿ
                                   36700              Ÿ                                                                     Ÿ
                                   36701              Ÿ  TSEGSYM - tseg symbolic form of address if there is one            Ÿ
                                   36702              Ÿ            gives MODULE+OFFSET, or nothing                          Ÿ
                                   36703              Ÿ                                                                     Ÿ
                                   36704              Ÿ  on entry: r1 - address                                             Ÿ
                                   36705              Ÿ                                                                     Ÿ
                                   36706              Ÿ                                                                     Ÿ
                                   36707              Ÿ                                                                     Ÿ
                                                      ¾þþþþþþþþþþþþþþþþþþþþþþþþþþþþþþþþþþþþþþþþþþþþþþþþþþþþþþþþþþþþþþþþþþþþþ»
0007240 50E0 D000/9008_      00000 36708              TSEGSYM  PROC  TSWA
 DROP   *,R7
 USING  *,R7
 USING  TSWA-(4+36),R8
 00725A 58E0 7092/0DEE       072EC 36761                       ACALL EVALADDR
 007260 4780 7048            072A2 36765                       IF    NZ,BEGIN           IF SYMBOLIC FORM, PRINT IT
 007264 90F0 8028            00000 36776  1                      STM   R15,R0,TSNAME      SYMBOL
 007268 1821                       36777  1                      LR    R2,R1              OFFSET
 00726A 4110 8028/4100_      00000 36778  1                      TSEG  TSNAME,8,T
 00727C 1222/4780 7048             36808  1                      IF    (R2,NZ),BEGIN
 007282 4110 710A/4100_      07364 36822  2                        TSEG  '+0'
 007294 1812/1B00/41F0_            36840  2                        THEX  (R2)
 0072A2                            36862  1                      END
 0072A2                            36866                       END
 0072A2 18D8/9808 D004_            36870                       PEND  ,
 DROP   TSWA-(4+36),R8
 DROP   *,R7
 USING  *,R7
1WBUG     (WBUG2025) (13:00) (15MAR04) Debug Subroutines                                                                    Page  154
0Current Usings:  (DBDSECT,R6) (*,R7) (CP,R11) (CV,R12)
0Loc    Object Code    Addr1 Addr2  Stmt Lv Lineno    Source Statement           (Hibal 5, Asmedit 3.3)  HLASM R4.0  2004/03/15 13.00
+___    ______ ____    _____ _____  ____ __ ______    ______ _________
0                                  36903                       ¿þþþþþþþþþþþþþþþþþþþÜ
                                   36904                       Ÿ  FUTURE ROUTINES  Ÿ
                                   36905                       ¾þþþþþþþþþþþþþþþþþþþ»
 0072B0 0000                       36906                       STOP
1WBUG     (WBUG2025) (13:00) (15MAR04) Debug Subroutines                                                                    Page  155
0Current Usings:  (DBDSECT,R6) (*,R7) (CP,R11) (CV,R12)
0Loc    Object Code    Addr1 Addr2  Stmt Lv Lineno    Source Statement           (Hibal 5, Asmedit 3.3)  HLASM R4.0  2004/03/15 13.00
+___    ______ ____    _____ _____  ____ __ ______    ______ _________
0                                  36909                       QLTORG
1WBUG     (WBUG2025) (13:00) (15MAR04) Debug Subroutines                                                                    Page  156
0Current Usings:  (DBDSECT,R6) (*,R7) (CP,R11) (CV,R12)
0Loc    Object Code    Addr1 Addr2  Stmt Lv Lineno    Source Statement           (Hibal 5, Asmedit 3.3)  HLASM R4.0  2004/03/15 13.00
+___    ______ ____    _____ _____  ____ __ ______    ______ _________
0                                  36955              ¿þþþþþþþþþþþþþþþþþþþþþþþþþþþþþþþþþþþþþþþþþþþþþþþþþþþþþþþþþþþþþþþþþþþþþÜ
                                   36956              Ÿ                                                                     Ÿ
                                   36957              Ÿ                                                                     Ÿ
                                   36958              Ÿ  DATA AREA FOR DEBUG DESECT                                         Ÿ
                                   36959              Ÿ                                                                     Ÿ
                                   36960              Ÿ                                                                     Ÿ
                                                      ¾þþþþþþþþþþþþþþþþþþþþþþþþþþþþþþþþþþþþþþþþþþþþþþþþþþþþþþþþþþþþþþþþþþþþþ»
0007398                            36961              DBAREA   DS    0D
 007398                            36962                       DS    (DBLENGTH)X
                                   36963              DBASTACK EQU   DBAREA+(DBSTACK-DBDSECT)
                                   36964              DBADSTK  EQU   DBAREA+(DBDSTACK-DBDSECT)
                                   36965              DBAHEAP  EQU   DBAREA+(DBHEAP-DBDSECT)
                                   36966              DBAPAGE  EQU   DBAREA+(DBPAGE-DBDSECT)
1WBUG     (WBUG2025) (13:00) (15MAR04) Debug Subroutines                                                                    Page  157
0Current Usings:  (DBDSECT,R6) (*,R7) (CP,R11) (CV,R12)
0Loc    Object Code    Addr1 Addr2  Stmt Lv Lineno    Source Statement           (Hibal 5, Asmedit 3.3)  HLASM R4.0  2004/03/15 13.00
+___    ______ ____    _____ _____  ____ __ ______    ______ _________
0                                  36968              DEBUGLEN EQU   *-WYLWBUG
1WBUG     (WBUG2025) (13:00) (15MAR04) Debug Subroutines                                                                    Page  158
0Current Usings:  (DBDSECT,R6) (*,R7) (CP,R11) (CV,R12)
0Loc    Object Code    Addr1 Addr2  Stmt Lv Lineno    Source Statement           (Hibal 5, Asmedit 3.3)  HLASM R4.0  2004/03/15 13.00
+___    ______ ____    _____ _____  ____ __ ______    ______ _________
00CD650                CD650 CD650 36970                       END   .

1WBUG     (WBUG2025) (13:00) (15MAR04) Relocation Dictionary                                                                Page  159
-   Pos.Id   Rel.Id   Flags    Address                                                       HLASM R4.0  2004/03/15 13.00
0  00000001 00000001    0C    00000040
   00000001 00000001    0C    000000A0
   00000001 00000001    0C    000000A4
   00000001 00000001    0C    00000BE0
   00000001 00000001    0C    00000BEC
   00000001 00000001    0C    00000BF0
   00000001 00000001    0C    00000BF4
   00000001 00000001    0C    00000C08
   00000001 00000001    0C    00000C0C
   00000001 00000001    0C    00000C14
   00000001 00000001    0C    00000C18
   00000001 00000001    0C    00000C1C
   00000001 00000001    0C    00000C28
   00000001 00000001    0C    00000C2C
   00000001 00000001    0C    00000C30
   00000001 00000001    0C    00000C34
   00000001 00000001    0C    00000C3C
   00000001 00000001    0C    00000C40
   00000001 00000001    0C    00000C44
   00000001 00000001    0C    00000C48
   00000001 00000001    0C    00000C4C
   00000001 00000001    0C    00000C60
   00000001 00000001    0C    00000C64
   00000001 00000001    0C    00000C68
   00000001 00000001    0C    00000C6C
   00000001 00000001    0C    00001010
   00000001 00000001    0C    00001014
   00000001 00000001    0C    00001018
   00000001 00000001    0C    0000101C
   00000001 00000001    0C    000012F0
   00000001 00000001    0C    0000169C
   00000001 00000001    0C    000016C4
   00000001 00000001    0C    000016EC
   00000001 00000001    0C    00001714
   00000001 00000001    0C    0000173C
   00000001 00000001    0C    00001764
   00000001 00000001    0C    0000178C
   00000001 00000001    0C    000017B4
   00000001 00000001    0C    000017DC
   00000001 00000001    0C    00001804
   00000001 00000001    0C    0000182C
   00000001 00000001    0C    00001854
   00000001 00000001    0C    0000187C
   00000001 00000001    0C    000018A4
   00000001 00000001    0C    000018CC
   00000001 00000001    0C    000018F4
   00000001 00000001    0C    0000191C
   00000001 00000001    0C    00001944
   00000001 00000001    0C    0000196C
   00000001 00000001    0C    00001994
   00000001 00000001    0C    00001A20
   00000001 00000001    0C    00001A24
   00000001 00000001    0C    00001A38
   00000001 00000001    0C    00001A40
   00000001 00000001    0C    00001A44
1WBUG     (WBUG2025) (13:00) (15MAR04) Relocation Dictionary                                                                Page  160
   00000001 00000001    0C    00001A48
   00000001 00000001    0C    00001A4C
   00000001 00000001    0C    00001A50
   00000001 00000001    0C    00001A54
   00000001 00000001    0C    00001A5C
   00000001 00000001    0C    00001D74
   00000001 00000001    0C    00001D9C
   00000001 00000001    0C    00001DC4
   00000001 00000001    0C    00002204
   00000001 00000001    0C    00002870
   00000001 00000001    0C    00002874
   00000001 00000001    0C    00002878
   00000001 00000001    0C    0000287C
   00000001 00000001    0C    00002884
   00000001 00000001    0C    00002890
   00000001 00000001    0C    0000289C
   00000001 00000001    0C    000028A0
   00000001 00000001    0C    000028C0
   00000001 00000001    0C    000028F8
   00000001 00000001    0C    000028FC
   00000001 00000001    0C    00002900
   00000001 00000001    0C    00002928
   00000001 00000001    0C    0000292C
   00000001 00000001    0C    0000293C
   00000001 00000001    0C    00002944
   00000001 00000001    0C    00002950
   00000001 00000001    0C    00002954
   00000001 00000001    0C    00002964
   00000001 00000001    0C    00002968
   00000001 00000001    0C    0000296C
   00000001 00000001    0C    00002970
   00000001 00000001    0C    00002CDC
   00000001 00000001    0C    000031D0
   00000001 00000001    0C    000031F8
   00000001 00000001    0C    0000367C
   00000001 00000001    0C    00003680
   00000001 00000001    0C    0000368C
   00000001 00000001    0C    00003690
   00000001 00000001    0C    0000369C
   00000001 00000001    0C    000036A0
   00000001 00000001    0C    000036A4
   00000001 00000001    0C    000036CC
   00000001 00000001    0C    000036D0
   00000001 00000001    0C    000036E0
   00000001 00000001    0C    000036E8
   00000001 00000001    0C    00003F3C
   00000001 00000001    0C    00003F40
   00000001 00000001    0C    00003F5C
   00000001 00000001    0C    00003F98
   00000001 00000001    0C    00003F9C
   00000001 00000001    0C    00003FA0
   00000001 00000001    0C    00003FAC
   00000001 00000001    0C    00003FB0
   00000001 00000001    0C    00004204
   00000001 00000001    0C    0000422C
   00000001 00000001    0C    00004254
   00000001 00000001    0C    0000427C
   00000001 00000001    0C    000042A4
   00000001 00000001    0C    000042CC
1WBUG     (WBUG2025) (13:00) (15MAR04) Relocation Dictionary                                                                Page  161
   00000001 00000001    0C    000042F4
   00000001 00000001    0C    0000431C
   00000001 00000001    0C    00004344
   00000001 00000001    0C    0000436C
   00000001 00000001    0C    00004394
   00000001 00000001    0C    000043BC
   00000001 00000001    0C    000043E4
   00000001 00000001    0C    0000440C
   00000001 00000001    0C    00004434
   00000001 00000001    0C    00004628
   00000001 00000001    0C    0000462C
   00000001 00000001    0C    0000463C
   00000001 00000001    0C    00004648
   00000001 00000001    0C    0000464C
   00000001 00000001    0C    00004784
   00000001 00000001    0C    000047AC
   00000001 00000001    0C    000047D4
   00000001 00000001    0C    000047FC
   00000001 00000001    0C    00004824
   00000001 00000001    0C    00004C28
   00000001 00000001    0C    00004C2C
   00000001 00000001    0C    00004C38
   00000001 00000001    0C    00004C3C
   00000001 00000001    0C    00004C50
   00000001 00000001    0C    00004C58
   00000001 00000001    0C    00004C5C
   00000001 00000001    0C    00004C70
   00000001 00000001    0C    000054A8
   00000001 00000001    0C    000054B4
   00000001 00000001    0C    000054CC
   00000001 00000001    0C    000054D0
   00000001 00000001    0C    000054D4
   00000001 00000001    0C    00005A20
   00000001 00000001    0C    00005A2C
   00000001 00000001    0C    00005A40
   00000001 00000001    0C    000065A8
   00000001 00000001    0C    000065AC
   00000001 00000001    0C    000065B0
   00000001 00000001    0C    000065B4
   00000001 00000001    0C    000065C4
   00000001 00000001    0C    000065DC
   00000001 00000001    0C    000072E8
   00000001 00000001    0C    000072EC
   00000001 00000001    0C    000072F0
   00000001 00000001    0C    000072F8
   00000001 00000001    0C    00007334
   00000001 00000001    0C    00007344
   00000001 00000002    1C    00000BE8
   00000001 00000003    1C    00000BF8
   00000001 00000003    1C    00001A0C
   00000001 00000003    1C    000028E4
   00000001 00000003    1C    00003F94
   00000001 00000003    1C    00005A1C
   00000001 00000003    1C    000065B8
   00000001 00000003    1C    00007328
   00000001 00000004    1C    00000BFC
   00000001 00000005    1C    00000C00
   00000001 00000005    1C    00001A3C
   00000001 00000006    1C    00000C04
1WBUG     (WBUG2025) (13:00) (15MAR04) Relocation Dictionary                                                                Page  162
   00000001 00000006    1C    00004C40
   00000001 00000007    1C    00000C50
   00000001 00000007    1C    00003F6C
   00000001 00000008    1C    00000C54
   00000001 00000009    1C    00000C58
   00000001 00000009    1C    00003F74
   00000001 0000000A    1C    00000C5C
   00000001 0000000B    1C    000010A8
   00000001 0000000C    1C    000010AC
   00000001 0000000D    1C    000012EC
   00000001 0000000E    1C    00001314
   00000001 0000000E    1C    000019B8
   00000001 0000000E    1C    00001DC0
   00000001 0000000E    1C    00002228
   00000001 0000000E    1C    0000259C
   00000001 0000000E    1C    00002D78
   00000001 0000000E    1C    00002F64
   00000001 0000000E    1C    0000326C
   00000001 0000000E    1C    00003520
   00000001 0000000E    1C    00003B24
   00000001 0000000E    1C    00003D34
   00000001 0000000E    1C    00003F2C
   00000001 0000000E    1C    00004458
   00000001 0000000E    1C    00004848
   00000001 0000000E    1C    00004C14
   00000001 0000000F    1C    00001318
   00000001 0000000F    1C    000019BC
   00000001 0000000F    1C    0000222C
   00000001 0000000F    1C    000025A0
   00000001 0000000F    1C    00002D7C
   00000001 0000000F    1C    00002F68
   00000001 0000000F    1C    00003270
   00000001 0000000F    1C    00003524
   00000001 0000000F    1C    00003B28
   00000001 0000000F    1C    00003D38
   00000001 0000000F    1C    00003F30
   00000001 0000000F    1C    0000445C
   00000001 0000000F    1C    0000484C
   00000001 0000000F    1C    00004C18
   00000001 00000010    1C    00001698
   00000001 00000010    1C    000016C0
   00000001 00000010    1C    000016E8
   00000001 00000010    1C    00001710
   00000001 00000010    1C    00001738
   00000001 00000010    1C    00001760
   00000001 00000010    1C    00001788
   00000001 00000010    1C    000017B0
   00000001 00000010    1C    000017D8
   00000001 00000010    1C    00001800
   00000001 00000010    1C    00001828
   00000001 00000010    1C    00001850
   00000001 00000010    1C    00001878
   00000001 00000010    1C    000018A0
   00000001 00000010    1C    000018C8
   00000001 00000010    1C    000018F0
   00000001 00000010    1C    00001918
   00000001 00000010    1C    00001940
   00000001 00000010    1C    00001968
   00000001 00000010    1C    00001990
1WBUG     (WBUG2025) (13:00) (15MAR04) Relocation Dictionary                                                                Page  163
   00000001 00000010    1C    00001D70
   00000001 00000010    1C    00001D98
   00000001 00000010    1C    00002200
   00000001 00000010    1C    00002CD8
   00000001 00000010    1C    000031F4
   00000001 00000010    1C    00004200
   00000001 00000010    1C    00004228
   00000001 00000010    1C    00004250
   00000001 00000010    1C    00004278
   00000001 00000010    1C    000042A0
   00000001 00000010    1C    000042C8
   00000001 00000010    1C    000042F0
   00000001 00000010    1C    00004318
   00000001 00000010    1C    00004340
   00000001 00000010    1C    00004368
   00000001 00000010    1C    00004390
   00000001 00000010    1C    000043B8
   00000001 00000010    1C    000043E0
   00000001 00000010    1C    00004408
   00000001 00000010    1C    00004430
   00000001 00000010    1C    000047A8
   00000001 00000010    1C    000047D0
   00000001 00000010    1C    000047F8
   00000001 00000010    1C    00004820
   00000001 00000011    1C    00001A08
   00000001 00000011    1C    00002880
   00000001 00000011    1C    00003678
   00000001 00000011    1C    00003F38
   00000001 00000011    1C    00004638
   00000001 00000012    1C    00001A1C
   00000001 00000012    1C    000028F4
   00000001 00000012    1C    000036D8
   00000001 00000013    1C    00001A28
   00000001 00000013    1C    00002888
   00000001 00000013    1C    00003694
   00000001 00000013    1C    00003F60
   00000001 00000013    1C    00004630
   00000001 00000013    1C    00004C30
   00000001 00000013    1C    0000547C
   00000001 00000014    1C    00001A2C
   00000001 00000014    1C    0000288C
   00000001 00000014    1C    00003698
   00000001 00000014    1C    00003F64
   00000001 00000014    1C    00004634
   00000001 00000014    1C    00004C34
   00000001 00000014    1C    00005480
   00000001 00000015    1C    00001A30
   00000001 00000015    1C    000028E0
   00000001 00000015    1C    000036B0
   00000001 00000015    1C    00003F7C
   00000001 00000015    1C    00004C68
   00000001 00000015    1C    00005A34
   00000001 00000015    1C    000065C0
   00000001 00000015    1C    0000732C
   00000001 00000016    1C    00001A34
   00000001 00000016    1C    00002934
   00000001 00000016    1C    00003F90
   00000001 00000016    1C    00004C60
   00000001 00000016    1C    00005A38
1WBUG     (WBUG2025) (13:00) (15MAR04) Relocation Dictionary                                                                Page  164
   00000001 00000016    1C    000065E4
   00000001 00000016    1C    0000734C
   00000001 00000017    1C    00002528
   00000001 00000017    1C    00002D04
   00000001 00000017    1C    00002EF0
   00000001 00000017    1C    000034AC
   00000001 00000017    1C    00003AB0
   00000001 00000017    1C    00003CC0
   00000001 00000017    1C    00003EB8
   00000001 00000017    1C    00004BA0
   00000001 00000018    1C    00002550
   00000001 00000018    1C    00002D2C
   00000001 00000018    1C    00002F18
   00000001 00000018    1C    00003248
   00000001 00000018    1C    000034D4
   00000001 00000018    1C    00003AD8
   00000001 00000018    1C    00003CE8
   00000001 00000018    1C    00003EE0
   00000001 00000018    1C    00004BC8
   00000001 00000019    1C    00002578
   00000001 00000019    1C    00002D54
   00000001 00000019    1C    00002F40
   00000001 00000019    1C    00003220
   00000001 00000019    1C    000034FC
   00000001 00000019    1C    00003B00
   00000001 00000019    1C    00003D10
   00000001 00000019    1C    00003F08
   00000001 00000019    1C    00004BF0
   00000001 0000001A    1C    00002938
   00000001 0000001A    1C    00003FA4
   00000001 0000001A    1C    00004C6C
   00000001 0000001A    1C    00005A3C
   00000001 0000001A    1C    000065CC
   00000001 0000001A    1C    00007330
   00000001 0000001B    1C    00002940
   00000001 0000001B    1C    00007348
   00000001 0000001C    1C    000031CC
   00000001 0000001D    1C    000036A8
   00000001 0000001E    1C    000036AC
   00000001 0000001F    1C    000036D4
   00000001 00000020    1C    00003F68
   00000001 00000021    1C    00003F70
   00000001 00000022    1C    00003F78
   00000001 00000023    1C    00004780
   00000001 00000024    1C    00005484
   00000001 00000025    1C    0000548C
   00000001 00000026    1C    00005490
   00000001 00000027    1C    000054B0
   00000001 00000028    1C    00005A24
   00000001 00000029    1C    00005A44
   00000001 00000029    1C    000065C8
   00000001 0000002A    1C    00007350

1WBUG     (WBUG2025) (13:00) (15MAR04) Ordinary Symbol and Literal Cross Reference                                          Page  165
-Symbol   Length   Value     Id    R Type   Defn References                                  HLASM R4.0  2004/03/15 13.00
0$$$@R0        1 00000000 FFFFFFFE     J     705  1007
 $$$@R10       1 00000000 FFFFFFF4     J     835  1071
 $$$@R11       1 00000000 FFFFFFF3     J     848  1084
 $$$@R12       1 00000000 FFFFFFF2     J     861  1097
 $$$@R13       1 00000000 FFFFFFF1     J     874  1110
 $$$@R14       1 00000000 FFFFFFF0     J     887  1123
 $$$@R7        1 00000000 FFFFFFF7     J     796  1020
 $$$@R8        1 00000000 FFFFFFF6     J     809  1033   1045
 $$$@R9        1 00000000 FFFFFFF5     J     822  1058
 $$$C1WYLWBUG
               1 00000C78 00000001     J   10972 10974  11208
 $$$C10WYLWBUG
               1 000054EA 00000001     J   28461 28463  28508  28863  28882
 $$$C11WYLWBUG
               1 00005A5C 00000001     J   29714 29716  29739
 $$$C12WYLWBUG
               1 000066ED 00000001     J   33608 33610
 $$$C13WYLWBUG
               1 000069F0 00000001     J   33823 33825  33941  34097  34160  34392  34987  36431  36696
 $$$C14WYLWBUG
               1 00007398 00000001     J   36949 36951
 $$$C15WYLWBUG
               1 000CD650 00000001     J   36973 36975
 $$$C2WYLWBUG
               1 00001028 00000001     J   12064 12066
 $$$C3WYLWBUG
               1 000010B0 00000001     J   12319 12321
 $$$C4WYLWBUG
               1 00001BDF 00000001     J   14475 14477  15369  17453
 $$$C5WYLWBUG
               1 00002B9F 00000001     J   18506 18508  19391  19933  20043
 $$$C6WYLWBUG
               1 00003868 00000001     J   21329 21331  21364
 $$$C7WYLWBUG
               1 00004114 00000001     J   23066 23068
 $$$C8WYLWBUG
               1 000046D6 00000001     J   24146 24148
 $$$C9WYLWBUG
               1 00004C94 00000001     J   25502 25504  25544  26611  26726  28145  28249
 $$$D1WYLWBUG
               1 00001022 00000001     J   10973 11197
 $$$D10WYLWBUG
               1 00005A4F 00000001     J   28462 28852  28871
 $$$D13WYLWBUG
               1 0000738B 00000001     J   33824 33930  34086
 $$$D5WYLWBUG
               1 0000385C 00000001     J   18507 19922  20032
 $$$D9WYLWBUG
               1 000054DE 00000001     J   25503 26715  28134
 $$$RCHKIWA
               1 00000000 FFFFFFD7     J   34146 34159  34159
 $$$RCKINWA
               1 00000000 FFFFFFD6     J   34378 34391  34391
 $$$RCP        1 00000000 FFFFFFEC     J    2452  4712   6186   6186
 $$$RCV        1 00000000 FFFFFFEE     J    1177  2362   2362
1WBUG     (WBUG2025) (13:00) (15MAR04) Ordinary Symbol and Literal Cross Reference                                          Page  166
 $$$RDBTRAP
               1 00000000 FFFFFFE6     J    6821  6881   6881
 $$$RDCWA      1 00000000 FFFFFFD9     J   28481 28507  28507
 $$$RDEV       1 00000000 FFFFFFEB     J    4666  4711   4711
 $$$RDMWA      1 00000000 FFFFFFD8     J   29722 29738  29738
 $$$REPIE      1 00000000 FFFFFFE1     J   10891 10912  10912
 $$$REVWA      1 00000000 FFFFFFDC     J   25529 25543  25543
 $$$REVWA2
               1 00000000 FFFFFFDB     J   26595 26610  26610
 $$$RIRECORD
               1 00000000 FFFFFFE5     J    6910  6969   6969
 $$$RJCB       1 00000000 FFFFFFE9     J    6304  6578   6578
 $$$RNSCNCB
               1 00000000 FFFFFFED     J    2373  2446   2446
 $$$RPCWA      1 00000000 FFFFFFDE     J   19365 19390  19390
 $$$RREWA      1 00000000 FFFFFFDA     J   28233 28248  28248
 $$$RSEGCB
               1 00000000 FFFFFFE8     J    6584  6684   6684
 $$$RSTOPWA
               1 00000000 FFFFFFD5     J   34973 34986  34986
 $$$RSTWA      1 00000000 FFFFFFE2     J    9208  9221   9221
 $$$RSYMBOL
               1 00000000 FFFFFFE4     J    6976  7014   7014
 $$$RTAWA      1 00000000 FFFFFFD4     J   36417 36430  36430
 $$$RTP        1 00000000 FFFFFFE3     J    7021  7074   7074
 $$$RTSWA      1 00000000 FFFFFFD3     J   36682 36695  36695
 $$$RTTYPE
               1 00000000 FFFFFFEA     J    6197  6298   6298
 $$$RWCTWA
               1 00000000 FFFFFFDF     J   17439 17452  17452
 $$$RWSPGWA
               1 00000000 FFFFFFDD     J   21346 21363  21363
 $$$RWSTWA
               1 00000000 FFFFFFE0     J   15346 15368  15368
 $$$SEGCB0
               4 00000050 FFFFFFEC     F    2483  2569   2569
 $$$SEGCB55
               4 00000080 00000001     F    7206  7292   7292
 $$$Z0         4 00000BD4 00000001     F   10930  8331   9474  10287
 $$$Z3         4 000019C0 00000001     F   14433 13249  13398
 $$$Z4         4 00002820 00000001     F   18432 15778  16017  16621  17027  17142  17239  17670  17703  18023  18055
 $$$Z6         4 00003F34 00000001     F   23013 21837  22766
 $$$Z8         4 00004C1C 00000001     F   25476 24647  24943
 $$$Z9         4 0000543C 00000001     F   28425 26863  26995  27061  27107  27332  27692
 $$$101B       1 00000538 00000001     X    8649  8659U
 $$$102F       2 00000564 00000001     H    8747  8722B  8736B
 $$$102S       2 0000054C 00000001     H    8714  8746B
 $$$105F       2 0000056C 00000001     H    8779  8766B
 $$$106F       2 00000576 00000001     H    8799  8789B
 $$$107        1 00000050 00000001 A   U    8824  8821   8823
 $$$109B       1 00000594 00000001     X    8856  8866U
 $$$110F       2 000005BE 00000001     H    8934  8902B
 $$$110S       2 0000059C 00000001     H    8896  8933B
 $$$112F       2 000005B4 00000001     H    8927  8917B
 $$$113        1 00000050 00000001 A   U    8967  8964   8966
 $$$115B       1 000005DC 00000001     X    9000  9010U
 $$$116F       2 0000064A 00000001     H    9176  9029B
 $$$117F       2 00000616 00000001     H    9113  9065B
 $$$117S       2 000005EC 00000001     H    9059  9112B
1WBUG     (WBUG2025) (13:00) (15MAR04) Ordinary Symbol and Literal Cross Reference                                          Page  167
 $$$119F       2 0000060C 00000001     H    9106  9080B
 $$$120F       2 0000060C 00000001     H    9102  9093B
 $$$121F       2 00000640 00000001     H    9162  9130B
 $$$121S       2 0000061E 00000001     H    9124  9161B
 $$$123F       2 00000636 00000001     H    9155  9145B
 $$$124        1 00000050 00000001 A   U    9202  9199   9201
 $$$126B       1 00000668 00000001     X    9263  9273U
 $$$127        1 00000060 00000001 A   U    9362  9359   9361
 $$$129B       1 000006BA 00000001     X    9406  9416U
 $$$130F       2 000006D2 00000001     H    9460  9447B
 $$$131F       2 000006EC 00000001     H    9506  9475B
 $$$132F       2 000006EC 00000001     H    9502  9493B
 $$$133F       2 00000700 00000001     H    9534  9521B
 $$$134F       2 00000722 00000001     H    9586  9567B
 $$$134T       2 00000714 00000001     H    9570  9555B
 $$$136F       2 00000744 00000001     H    9632  9616B
 $$$137F       2 00000788 00000001     H    9703  9644B
 $$$138F       2 00000776 00000001     H    9690  9669B  9679B
 $$$138S       2 0000075C 00000001     H    9658  9689B
 $$$141F       2 0000079E 00000001     H    9732  9715B
 $$$142F       2 000007B4 00000001     H    9761  9744B
 $$$143F       2 000007EA 00000001     H    9818  9773B
 $$$144F       2 000007E0 00000001     H    9812  9802B
 $$$144S       2 000007CE 00000001     H    9793  9811B
 $$$146        1 00000050 00000001 A   U    9919  9916   9918
 $$$148B       1 00000852 00000001     X    9955  9965U
 $$$149F       2 00000874 00000001     H   10018 10002B
 $$$150F       2 000008A2 00000001     H   10051 10029B
 $$$151        1 00000050 00000001 A   U   10099 10096  10098
 $$$153B       1 000008D6 00000001     X   10133 10143U
 $$$154F       2 00000942 00000001     H   10254 10229B 10243B
 $$$154S       2 00000928 00000001     H   10218 10253B
 $$$157F       2 0000094E 00000001     H   10273 10264B
 $$$158F       2 00000960 00000001     H   10302 10288B
 $$$159        1 00000050 00000001 A   U   10344 10341  10343
 $$$161B       1 00000996 00000001     X   10379 10389U
 $$$162        1 00000050 00000001 A   U   10430 10427  10429
 $$$164B       1 000009CA 00000001     X   10463 10473U
 $$$165        1 00000050 00000001 A   U   10514 10511  10513
 $$$167B       1 000009FE 00000001     X   10549 10559U
 $$$168        1 00000050 00000001 A   U   10628 10625  10627
 $$$170B       1 00000A72 00000001     X   10663 10673U
 $$$171        1 00000050 00000001 A   U   10740 10737  10739
 $$$173B       1 00000ADE 00000001     X   10775 10785U
 $$$174F       2 00000B2C 00000001     H   10855 10840B
 $$$175        1 00000050 00000001 A   U   10882 10879  10881
 $$$177B       1 00000C92 00000001     X   11010 11020U
 $$$180F       2 00000CD4 00000001     H   11127 11102B 11116B
 $$$180S       2 00000CBC 00000001     H   11094 11126B
 $$$184F       2 00000CEE 00000001     H   11167 11157B
 $$$185F       2 00000CFA 00000001     H   11185 11175B
 $$$186        6 00001022 00000001     I   11203 11195X
 $$$187        6 00001022 00000001     I   11202 11203  11203
 $$$188F       2 00000D6C 00000001     H   11267 11254B
 $$$189F       2 00000D7A 00000001     H   11288 11275B
 $$$190F       2 00000D88 00000001     H   11309 11296B
 $$$191F       2 00000D96 00000001     H   11330 11317B
 $$$192        1 00000050 00000001 A   U   11368 11365  11367
 $$$194B       1 00000DBE 00000001     X   11402 11412U
1WBUG     (WBUG2025) (13:00) (15MAR04) Ordinary Symbol and Literal Cross Reference                                          Page  168
 $$$195F       2 00000DE0 00000001     H   11462 11451B
 $$$196F       2 00000DF6 00000001     H   11484 11472B
 $$$197        1 00000050 00000001 A   U   11538 11535  11537
 $$$199B       1 00000E5A 00000001     X   11572 11582U
 $$$200F       2 00000E78 00000001     H   11617 11606B
 $$$201F       2 00000E94 00000001     H   11641 11630B
 $$$202        1 00000050 00000001 A   U   11718 11715  11717
 $$$204B       1 00000F14 00000001     X   11752 11762U
 $$$205F       2 00000F36 00000001     H   11812 11801B
 $$$206F       2 00000F4C 00000001     H   11834 11822B
 $$$207        1 00000050 00000001 A   U   11878 11875  11877
 $$$209B       1 00000F8E 00000001     X   11912 11922U
 $$$210F       2 00000FAC 00000001     H   11957 11946B
 $$$211F       2 00000FC8 00000001     H   11981 11970B
 $$$212        1 00000050 00000001 A   U   12048 12045  12047
 $$$214B       1 00001042 00000001     X   12099 12109U
 $$$215        1 00000050 00000001 A   U   12197 12194  12196
 $$$217B       1 00001086 00000001     X   12230 12240U
 $$$218        1 00000050 00000001 A   U   12306 12303  12305
 $$$220B       1 000010CA 00000001     X   12359 12369U
 $$$221F       2 000010D8 00000001     H   12401 12388B
 $$$222F       2 00001100 00000001     H   12446 12412B
 $$$223F       2 00001136 00000001     H   12516 12471B
 $$$224F       2 00001232 00000001     H   12751 12569B
 $$$225F       2 000011AE 00000001     H   12602 12586B
 $$$226F       2 000011EE 00000001     H   12679 12613B
 $$$227F       2 000012B8 00000001     H   12936 12806B 12826B
 $$$229F       2 000012AC 00000001     H   12921 12859B
 $$$229T       2 00001280 00000001     H   12862 12849B
 $$$231F       2 0000129C 00000001     H   12897 12884B
 $$$232        1 00000050 00000001 A   U   12962 12959  12961
 $$$234B       1 00001336 00000001     X   13021 13031U
 $$$235F       2 0000134E 00000001     H   13068 13055B
 $$$236        1 00000050 00000001 A   U   13095 13092  13094
 $$$238B       1 0000137A 00000001     X   13137 13147U
 $$$239F       2 00001388 00000001     H   13179 13166B
 $$$240F       2 000013AA 00000001     H   13221 13194B
 $$$241F       2 00001434 00000001     H   13384 13250B
 $$$242F       2 0000147E 00000001     H   13470 13399B
 $$$243        1 00000050 00000001 A   U   13505 13502  13504
 $$$245B       1 000014AA 00000001     X   13543 13553U
 $$$246F       2 000014B8 00000001     H   13585 13572B
 $$$247F       2 000014D0 00000001     H   13615 13600B
 $$$248F       2 00001514 00000001     H   13682 13639B
 $$$249F       2 0000154A 00000001     H   13756 13696B
 $$$250F       2 00001534 00000001     H   13733 13721B
 $$$251F       2 000015C6 00000001     H   13925 13786B
 $$$251T       2 0000155A 00000001     H   13789 13774B
 $$$253F       2 0000158C 00000001     H   13858 13816B
 $$$254F       2 000015C6 00000001     H   13913 13870B
 $$$255        1 00000050 00000001 A   U   13955 13952  13954
 $$$257B       1 000015F2 00000001     X   13991 14001U
 $$$258F       2 00001600 00000001     H   14033 14020B
 $$$259        1 00000050 00000001 A   U   14107 14104  14106
 $$$261B       1 00001BFA 00000001     X   14513 14523U
 $$$262F       2 00001C12 00000001     H   14563 14548B
 $$$263F       2 00001C28 00000001     H   14592 14577B
 $$$264F       2 00001C3C 00000001     H   14618 14603B
 $$$265F       2 00001C68 00000001     H   14685 14651B
1WBUG     (WBUG2025) (13:00) (15MAR04) Ordinary Symbol and Literal Cross Reference                                          Page  169
 $$$266F       2 00001C68 00000001     H   14681 14669B
 $$$267        1 00000050 00000001 A   U   14711 14708  14710
 $$$269B       1 00001C94 00000001     X   14747 14757U 15165U 15245U 15329U 16305U 16425U 16801U 17358U 17857U 18094U
                                                 18237U 18326U 18411U 18806U 18956U 19283U 20077U 20229U 20394U 20840U
                                                 21263U 21978U 22123U 22462U 22928U 23267U 23585U 23657U 23729U 23801U
                                                 24107U 24259U 24429U 24524U
 $$$270F       2 00001CA2 00000001     H   14789 14776B
 $$$271F       2 00001CBA 00000001     H   14819 14804B
 $$$272F       2 00001CD0 00000001     H   14848 14833B
 $$$273F       2 00001CE4 00000001     H   14874 14859B
 $$$275B       1 00001DE2 00000001     X   15000 15010U
 $$$276F       2 00001E0E 00000001     H   15063 15048B
 $$$277F       2 00001E22 00000001     H   15091 15076B
 $$$278F       2 00001E38 00000001     H   15117 15102B
 $$$279F       2 00001E4E 00000001     H   15143 15128B
 $$$280        1 00000050 00000001 A   U   15176 15173  15175
 $$$282B       1 00001E82 00000001     X   15205 15215U
 $$$283        1 00000050 00000001 A   U   15256 15253  15255
 $$$285B       1 00001EBA 00000001     X   15283 15293U
 $$$286        1 00000050 00000001 A   U   15340 15337  15339
 $$$288B       1 00001F02 00000001     X   15406 15416U
 $$$289F       2 00001F46 00000001     H   15507 15455B
 $$$290F       2 00001F5E 00000001     H   15535 15521B
 $$$291F       2 00001F78 00000001     H   15571 15556B
 $$$292F       2 00001F8C 00000001     H   15599 15584B
 $$$293F       2 00002030 00000001     H   15745 15671B
 $$$294F       2 0000201E 00000001     H   15716 15691B 15705B
 $$$294S       2 00002006 00000001     H   15683 15715B
 $$$297F       2 00002030 00000001     H   15741 15726B
 $$$298F       2 00002052 00000001     H   15790 15764B 15779B
 $$$298S       2 00002038 00000001     H   15756 15789B
 $$$301F       2 00002064 00000001     H   15815 15800B
 $$$302F       2 0000207A 00000001     H   15844 15829B
 $$$303F       2 000020E4 00000001     H   15983 15855B
 $$$304F       2 0000209C 00000001     H   15886 15870B
 $$$305F       2 000020B0 00000001     H   15909 15894B
 $$$306F       2 000020C4 00000001     H   15932 15917B
 $$$307F       2 000020E4 00000001     H   15979 15944B
 $$$308F       2 000020E4 00000001     H   15975 15960B
 $$$309F       2 0000210E 00000001     H   16030 16003B 16018B
 $$$309S       2 000020F0 00000001     H   15995 16029B
 $$$312F       2 00002180 00000001     H   16179 16129B
 $$$313F       2 000021AC 00000001     H   16241 16191B
 $$$314        1 0000005C 00000001 A   U   16316 16313  16315
 $$$316B       1 0000224A 00000001     X   16378 16388U
 $$$317        1 00000050 00000001 A   U   16436 16433  16435
 $$$319B       1 00002276 00000001     X   16480 16490U
 $$$320F       2 0000229C 00000001     H   16562 16541B 16551B
 $$$320S       2 00002282 00000001     H   16533 16561B
 $$$323F       2 000022AE 00000001     H   16587 16572B
 $$$324F       2 000022D8 00000001     H   16634 16607B 16622B
 $$$324S       2 000022BA 00000001     H   16599 16633B
 $$$327F       2 000022EA 00000001     H   16659 16644B
 $$$328        1 00000050 00000001 A   U   16812 16809  16811
 $$$330B       1 00002372 00000001     X   16856 16866U
 $$$331F       2 00002380 00000001     H   16898 16885B
 $$$332F       2 00002402 00000001     H   16978 16951B
 $$$333F       2 000024F2 00000001     H   17335 17010B
 $$$333S       2 0000240E 00000001     H   17004 17334B
1WBUG     (WBUG2025) (13:00) (15MAR04) Ordinary Symbol and Literal Cross Reference                                          Page  170
 $$$335F       2 000024E4 00000001     H   17327 17028B
 $$$336F       2 0000244A 00000001     H   17089 17063B
 $$$337B       4 00002470 00000001     I   17143 17178
 $$$337F       2 00002486 00000001     H   17175 17143B 17177
 $$$338E       2 0000248A 00000001     H   17185 17179
 $$$338F       2 0000249C 00000001     H   17208 17181B
 $$$339B       4 000024B4 00000001     I   17240 17256
 $$$339F       2 000024C2 00000001     H   17253 17240B 17255
 $$$340E       2 000024C6 00000001     H   17263 17257
 $$$340F       2 000024D8 00000001     H   17298 17259B
 $$$341        1 00000050 00000001 A   U   17369 17366  17368
 $$$343B       1 000025BE 00000001     X   17491 17501U
 $$$344F       2 000025D6 00000001     H   17558 17544B
 $$$345F       2 000025F0 00000001     H   17591 17576B
 $$$346F       2 00002604 00000001     H   17619 17604B
 $$$347F       2 0000265A 00000001     H   17722 17635B 17649B
 $$$349F       2 00002642 00000001     H   17690 17671B
 $$$350F       2 0000265A 00000001     H   17718 17704B
 $$$352F       2 0000267A 00000001     H   17768 17743B 17757B
 $$$352S       2 00002662 00000001     H   17735 17767B
 $$$355F       2 0000268C 00000001     H   17793 17778B
 $$$356        1 00000058 00000001 A   U   17868 17865  17867
 $$$358B       1 000026E0 00000001     X   17905 17915U
 $$$359F       2 00002706 00000001     H   17985 17964B 17974B
 $$$359S       2 000026EC 00000001     H   17956 17984B
 $$$362F       2 00002718 00000001     H   18010 17995B
 $$$363F       2 00002734 00000001     H   18042 18024B
 $$$364F       2 00002744 00000001     H   18071 18056B
 $$$365        1 00000050 00000001 A   U   18105 18102  18104
 $$$367B       1 0000276C 00000001     X   18148 18158U
 $$$368F       2 0000277A 00000001     H   18190 18177B
 $$$369F       2 00002792 00000001     H   18221 18209B
 $$$370        1 00000050 00000001 A   U   18248 18245  18247
 $$$372B       1 000027BE 00000001     X   18282 18292U
 $$$373        1 00000050 00000001 A   U   18337 18334  18336
 $$$375B       1 000027FE 00000001     X   18371 18381U
 $$$376        1 00000050 00000001 A   U   18422 18419  18421
 $$$378B       1 00002BBA 00000001     X   18543 18553U
 $$$379F       2 00002BC8 00000001     H   18585 18572B
 $$$380F       2 00002BE6 00000001     H   18621 18606B
 $$$381F       2 00002BFA 00000001     H   18649 18634B
 $$$382F       2 00002C10 00000001     H   18679 18669B
 $$$383F       2 00002C24 00000001     H   18707 18692B
 $$$384F       2 00002C3A 00000001     H   18738 18724B
 $$$385        1 00000050 00000001 A   U   18817 18814  18816
 $$$387B       1 00002D9A 00000001     X   18923 18933U
 $$$388        1 00000050 00000001 A   U   18967 18964  18966
 $$$390B       1 00002DC6 00000001     X   19003 19013U
 $$$391F       2 00002DD4 00000001     H   19045 19032B
 $$$392F       2 00002DF2 00000001     H   19081 19066B
 $$$393F       2 00002E06 00000001     H   19109 19094B
 $$$394F       2 00002E1A 00000001     H   19138 19128B
 $$$395F       2 00002E2E 00000001     H   19166 19151B
 $$$396F       2 00002E54 00000001     H   19222 19183B
 $$$397F       2 00002E54 00000001     H   19218 19203B
 $$$398        1 00000050 00000001 A   U   19294 19291  19293
 $$$400B       1 00002F86 00000001     X   19428 19438U
 $$$401F       2 00002F98 00000001     H   19489 19476B
 $$$402F       2 00002FC4 00000001     H   19534 19519B
1WBUG     (WBUG2025) (13:00) (15MAR04) Ordinary Symbol and Literal Cross Reference                                          Page  171
 $$$403F       2 00002FD8 00000001     H   19562 19547B
 $$$404F       2 00002FEA 00000001     H   19591 19578B
 $$$406F       2 00003076 00000001     H   19716 19657B
 $$$407F       2 00003076 00000001     H   19712 19673B
 $$$408F       2 00003082 00000001     H   19735 19726B
 $$$409F       2 000030E8 00000001     H   19794 19781B
 $$$410F       2 00003104 00000001     H   19823 19808B
 $$$411F       2 00003134 00000001     H   19878 19869B
 $$$412F       2 00003164 00000001     H   19965 19896B
 $$$413F       2 00003154 00000001     H   19938 19914B
 $$$414        6 0000385C 00000001     I   19928 19920X
 $$$415        6 0000385C 00000001     I   19927 19928  19928
 $$$416F       2 00003164 00000001     H   19961 19945B
 $$$417F       2 0000317A 00000001     H   19993 19977B
 $$$418F       2 00003190 00000001     H   20052 20006B
 $$$419F       2 00003190 00000001     H   20048 20024B
 $$$420        6 00003862 00000001     I   20038 20030X
 $$$421        6 00003862 00000001     I   20037 20038  20038
 $$$422        1 00000230 00000001 A   U   20088 20085  20087
 $$$424B       1 0000328E 00000001     X   20191 20201U
 $$$425        1 00000050 00000001 A   U   20240 20237  20239
 $$$427B       1 000032BA 00000001     X   20267 20277U
 $$$428F       2 000032EC 00000001     H   20356 20297B
 $$$429F       2 000032EC 00000001     H   20352 20313B
 $$$430F       2 000032F8 00000001     H   20375 20366B
 $$$431        1 00000050 00000001 A   U   20405 20402  20404
 $$$433B       1 00003326 00000001     X   20449 20459U
 $$$434F       2 00003334 00000001     H   20491 20478B
 $$$435F       2 0000334C 00000001     H   20520 20505B
 $$$436F       2 00003362 00000001     H   20549 20534B
 $$$437F       2 00003376 00000001     H   20575 20560B
 $$$438F       2 00003396 00000001     H   20608 20593B
 $$$439F       2 000033AA 00000001     H   20636 20621B
 $$$440F       2 000033C4 00000001     H   20677 20662B
 $$$440T       2 000033B8 00000001     H   20665 20650B
 $$$442F       2 000033D6 00000001     H   20705 20696B
 $$$443F       2 000033EA 00000001     H   20733 20718B
 $$$444F       2 00003404 00000001     H   20774 20759B
 $$$444T       2 000033F8 00000001     H   20762 20747B
 $$$446        1 00000050 00000001 A   U   20851 20848  20850
 $$$448B       1 00003542 00000001     X   20952 20962U
 $$$449F       2 00003550 00000001     H   20994 20981B
 $$$450F       2 00003568 00000001     H   21024 21009B
 $$$451F       2 0000357E 00000001     H   21053 21038B
 $$$452F       2 00003592 00000001     H   21079 21064B
 $$$453F       2 000035AC 00000001     H   21112 21097B
 $$$454F       2 000035C0 00000001     H   21140 21125B
 $$$455F       2 000035DA 00000001     H   21181 21166B
 $$$455T       2 000035CE 00000001     H   21169 21154B
 $$$457F       2 000035F6 00000001     H   21215 21200B
 $$$458F       2 0000360A 00000001     H   21243 21228B
 $$$459        1 00000050 00000001 A   U   21274 21271  21273
 $$$461B       1 00003882 00000001     X   21394 21404U
 $$$462F       2 00003890 00000001     H   21447 21434B
 $$$463F       2 000038AA 00000001     H   21477 21462B
 $$$464F       2 000038C0 00000001     H   21504 21495B
 $$$465F       2 000038CE 00000001     H   21526 21517B
 $$$466F       2 000038E2 00000001     H   21554 21539B
 $$$467F       2 00003900 00000001     H   21599 21571B
1WBUG     (WBUG2025) (13:00) (15MAR04) Ordinary Symbol and Literal Cross Reference                                          Page  172
 $$$468F       2 000038FC 00000001     H   21594 21585B
 $$$469F       2 0000390E 00000001     H   21621 21612B
 $$$470F       2 00003922 00000001     H   21649 21634B
 $$$471F       2 000039CE 00000001     H   21754 21711B
 $$$472F       2 00003A58 00000001     H   21939 21771B
 $$$473B       4 00003A10 00000001     I   21853 21882
 $$$473F       2 00003A26 00000001     H   21879 21853B 21881
 $$$473T       2 00003A14 00000001     H   21856 21840B
 $$$475E       2 00003A2A 00000001     H   21889 21883
 $$$475F       2 00003A58 00000001     H   21935 21885B
 $$$476        1 00000064 00000001 A   U   21989 21986  21988
 $$$478B       1 00003B46 00000001     X   22087 22097U
 $$$479        1 00000050 00000001 A   U   22134 22131  22133
 $$$481B       1 00003B74 00000001     X   22169 22179U
 $$$482F       2 00003B82 00000001     H   22211 22198B
 $$$483F       2 00003B9A 00000001     H   22241 22226B
 $$$484F       2 00003BB0 00000001     H   22270 22255B
 $$$485F       2 00003BC4 00000001     H   22296 22281B
 $$$486        1 00000050 00000001 A   U   22473 22470  22472
 $$$488B       1 00003D56 00000001     X   22572 22582U
 $$$489F       2 00003D6E 00000001     H   22619 22604B
 $$$490F       2 00003D84 00000001     H   22648 22633B
 $$$491F       2 00003D98 00000001     H   22674 22659B
 $$$492F       2 00003E2E 00000001     H   22793 22767B
 $$$493F       2 00003E4A 00000001     H   22833 22807B
 $$$494F       2 00003E66 00000001     H   22873 22847B
 $$$495F       2 00003E82 00000001     H   22913 22887B
 $$$496        1 00000050 00000001 A   U   22939 22936  22938
 $$$498B       1 0000412E 00000001     X   23104 23114U
 $$$499F       2 00004146 00000001     H   23152 23137B
 $$$500F       2 0000415C 00000001     H   23181 23166B
 $$$501F       2 00004170 00000001     H   23207 23192B
 $$$502        1 00000050 00000001 A   U   23278 23275  23277
 $$$504B       1 0000447A 00000001     X   23551 23561U
 $$$505        1 00000050 00000001 A   U   23596 23593  23595
 $$$507B       1 000044AA 00000001     X   23623 23633U
 $$$508        1 00000050 00000001 A   U   23668 23665  23667
 $$$510B       1 000044DA 00000001     X   23695 23705U
 $$$511        1 00000050 00000001 A   U   23740 23737  23739
 $$$513B       1 0000450A 00000001     X   23767 23777U
 $$$514        1 00000050 00000001 A   U   23812 23809  23811
 $$$516B       1 0000453A 00000001     X   23848 23858U
 $$$517F       2 00004548 00000001     H   23890 23877B
 $$$518F       2 00004560 00000001     H   23920 23905B
 $$$519F       2 00004576 00000001     H   23949 23934B
 $$$52B        1 00000032 00000001     X    7114  7121U
 $$$520F       2 0000458A 00000001     H   23975 23960B
 $$$521F       2 000045A4 00000001     H   24009 23994B
 $$$522F       2 000045B8 00000001     H   24037 24022B
 $$$523F       2 000045CE 00000001     H   24063 24048B
 $$$524F       2 000045E4 00000001     H   24089 24074B
 $$$525        1 00000050 00000001 A   U   24118 24115  24117
 $$$527B       1 000046F0 00000001     X   24187 24197U
 $$$528        1 00000050 00000001 A   U   24270 24267  24269
 $$$53F        2 0000005A 00000001     H    7168  7147B
 $$$530B       1 0000486A 00000001     X   24391 24401U
 $$$531        1 00000050 00000001 A   U   24440 24437  24439
 $$$533B       1 00004896 00000001     X   24470 24480U
 $$$534        1 00000050 00000001 A   U   24535 24532  24534
1WBUG     (WBUG2025) (13:00) (15MAR04) Ordinary Symbol and Literal Cross Reference                                          Page  173
 $$$535B       1 000048C2 00000001     X   24557 24564U
 $$$536B       1 000048CC 00000001     X   24577 24587U 25391U 26565U 27177U 27919U 28205U 28404U 29010U 29206U 29675U
                                                 29926U 30510U 33512U 33973U 34129U 34329U 34956U 36158U 36400U 36665U
                                                 36888U
 $$$538F       2 000048F8 00000001     H   24653 24633B
 $$$54         1 00000050 00000001 A   U    7196  7193   7195
 $$$543F       2 0000492C 00000001     H   24754 24744B
 $$$544F       2 0000494C 00000001     H   24782 24769B
 $$$545F       2 00004A1E 00000001     H   25008 24839B
 $$$546F       2 00004998 00000001     H   24877 24856B
 $$$547F       2 000049B8 00000001     H   24911 24890B
 $$$548F       2 00004A1E 00000001     H   25004 24925B
 $$$549F       2 000049EA 00000001     H   24961 24944B
 $$$550F       2 00004A06 00000001     H   24987 24976B
 $$$550S       2 000049F2 00000001     H   24969 24986B
 $$$552F       2 00004A40 00000001     H   25052 25027B 25041B
 $$$552S       2 00004A26 00000001     H   25019 25051B
 $$$555F       2 00004A86 00000001     H   25138 25062B
 $$$556F       2 00004A66 00000001     H   25100 25079B
 $$$557F       2 00004A86 00000001     H   25134 25113B
 $$$559B       1 00004AA6 00000001     X   25186 25196U
 $$$560F       2 00004AC0 00000001     H   25233 25218B
 $$$561F       2 00004B4E 00000001     H   25353 25323B
 $$$562        1 00000050 00000001 A   U   25402 25399  25401
 $$$564B       1 00004CAE 00000001     X   25576 25586U
 $$$566F       2 00004D2E 00000001     H   25717 25692B
 $$$566T       2 00004D24 00000001     H   25695 25681B
 $$$573F       2 00004DD2 00000001     H   25913 25888B
 $$$573T       2 00004DC8 00000001     H   25891 25877B
 $$$575F       2 00004DEA 00000001     H   25946 25934B
 $$$576F       2 00004E02 00000001     H   25973 25961B
 $$$577F       2 00004E80 00000001     H   26167 25988B
 $$$579B       4 00004E22 00000001     I   26025 26041
 $$$579F       2 00004E2C 00000001     H   26038 26025B 26040
 $$$580E       2 00004E30 00000001     H   26048 26042
 $$$580F       2 00004E36 00000001     H   26058 26044B
 $$$584F       2 00004E66 00000001     H   26137 26128B
 $$$585F       2 00004E70 00000001     H   26159 26150B
 $$$586F       2 00004EB6 00000001     H   26251 26184B 26198B
 $$$589F       2 00004EA6 00000001     H   26243 26234B
 $$$590F       2 00004EEE 00000001     H   26342 26266B
 $$$593F       2 00004EDE 00000001     H   26334 26325B
 $$$594F       2 00004F2E 00000001     H   26448 26359B 26372B
 $$$598F       2 00004F1E 00000001     H   26440 26431B
 $$$599F       2 00004F36 00000001     H   26473 26463B
 $$$601F       2 00004F4A 00000001     H   26507 26498B
 $$$602        1 00000058 00000001 A   U   26576 26573  26575
 $$$604B       1 00004FAC 00000001     X   26643 26653U
 $$$607        6 000054DE 00000001     I   26721 26713X
 $$$608        6 000054DE 00000001     I   26720 26721  26721
 $$$609F       2 00004FF8 00000001     H   26804 26761B
 $$$609S       2 00004FCE 00000001     H   26752 26803B
 $$$611F       2 00004FF0 00000001     H   26798 26779B
 $$$612F       2 0000502E 00000001     H   26899 26828B
 $$$613B       4 00005012 00000001     I   26864 26880
 $$$613F       2 00005020 00000001     H   26875 26849B 26864B 26877
 $$$614B       4 00005008 00000001     I   26849 26878
 $$$615E       2 00005024 00000001     H   26887 26879  26881
 $$$615F       2 0000502E 00000001     H   26895 26883B
1WBUG     (WBUG2025) (13:00) (15MAR04) Ordinary Symbol and Literal Cross Reference                                          Page  174
 $$$616F       2 00005042 00000001     H   26923 26912B
 $$$617F       2 00005056 00000001     H   26947 26936B
 $$$618F       2 0000508C 00000001     H   27031 26960B
 $$$619B       4 00005070 00000001     I   26996 27012
 $$$619F       2 0000507E 00000001     H   27007 26981B 26996B 27009
 $$$620B       4 00005066 00000001     I   26981 27010
 $$$621E       2 00005082 00000001     H   27019 27011  27013
 $$$621F       2 0000508C 00000001     H   27027 27015B
 $$$622F       2 000050AA 00000001     H   27077 27044B
 $$$623F       2 000050AA 00000001     H   27073 27062B
 $$$624F       2 000050C8 00000001     H   27123 27090B
 $$$625F       2 000050C8 00000001     H   27119 27108B
 $$$626F       2 000050DC 00000001     H   27147 27136B
 $$$627        1 00000060 00000001 A   U   27188 27185  27187
 $$$629B       1 0000510E 00000001     X   27229 27239U
 $$$630F       2 0000513C 00000001     H   27301 27277B 27289B
 $$$632F       2 00005176 00000001     H   27381 27318B 27333B
 $$$634F       2 00005176 00000001     H   27377 27353B 27365B
 $$$636F       2 00005198 00000001     H   27423 27397B 27411B
 $$$638F       2 000051BA 00000001     H   27465 27439B 27453B
 $$$64B        1 00000202 00000001     X    7328  7335U
 $$$640F       2 000051E6 00000001     H   27524 27477B
 $$$641F       2 000051E6 00000001     H   27520 27496B 27508B
 $$$643F       2 00005212 00000001     H   27583 27536B
 $$$644F       2 00005212 00000001     H   27579 27555B 27567B
 $$$646F       2 00005236 00000001     H   27638 27614B 27626B
 $$$648F       2 0000526E 00000001     H   27740 27678B 27693B
 $$$650F       2 0000526E 00000001     H   27736 27712B 27724B
 $$$652F       2 00005290 00000001     H   27803 27782B 27792B
 $$$652S       2 00005274 00000001     H   27773 27802B
 $$$656F       2 000052D8 00000001     H   27898 27883B
 $$$656T       2 000052D0 00000001     H   27886 27871B
 $$$658        1 00000060 00000001 A   U   27930 27927  27929
 $$$66F        2 0000023E 00000001     H    7479  7407B
 $$$660B       1 00005304 00000001     X   27971 27981U
 $$$661F       2 000053AA 00000001     H   28159 28071B
 $$$662F       2 000053AA 00000001     H   28155 28087B
 $$$663F       2 000053AA 00000001     H   28151 28106B 28120B
 $$$665        6 000054E4 00000001     I   28140 28132X
 $$$666        6 000054E4 00000001     I   28139 28140  28140
 $$$667F       2 000053C0 00000001     H   28184 28169B
 $$$668        1 00000060 00000001 A   U   28216 28213  28215
 $$$67F        2 00000234 00000001     H    7453  7423B
 $$$670B       1 000053EC 00000001     X   28281 28291U
 $$$671F       2 00005426 00000001     H   28376 28320B
 $$$672F       2 00005414 00000001     H   28349 28339B
 $$$673F       2 00005426 00000001     H   28372 28362B
 $$$674        1 00000060 00000001 A   U   28415 28412  28414
 $$$676B       1 00005504 00000001     X   28543 28553U
 $$$677F       2 0000552A 00000001     H   28608 28598B
 $$$678F       2 00005570 00000001     H   28682 28635B 28650B
 $$$680F       2 000056C6 00000001     H   28986 28701B
 $$$680S       2 00005570 00000001     H   28691 28985B
 $$$682F       2 000055AA 00000001     H   28747 28720B
 $$$683F       2 0000561C 00000001     H   28806 28796B
 $$$684F       2 00005662 00000001     H   28887 28825B
 $$$685        6 00005A50 00000001     I   28858 28850X
 $$$686        6 00005A50 00000001     I   28857 28858  28858
 $$$687        6 00005A56 00000001     I   28877 28869X
1WBUG     (WBUG2025) (13:00) (15MAR04) Ordinary Symbol and Literal Cross Reference                                          Page  175
 $$$688        6 00005A56 00000001     I   28876 28877  28877
 $$$689F       2 00005694 00000001     H   28940 28901B
 $$$690F       2 00005694 00000001     H   28936 28919B
 $$$691        1 000000B8 00000001 A   U   29021 29018  29020
 $$$693B       1 0000583E 00000001     X   29090 29100U
 $$$694F       2 00005878 00000001     H   29164 29126B
 $$$695F       2 00005876 00000001     H   29159 29144B
 $$$695S       2 00005860 00000001     H   29137 29158B
 $$$697F       2 0000588E 00000001     H   29192 29177B
 $$$697S       2 00005878 00000001     H   29170 29191B
 $$$699        1 00000050 00000001 A   U   29217 29214  29216
 $$$70F        2 000002D4 00000001     H    7700  7508B
 $$$70T        2 0000024E 00000001     H    7511  7498B
 $$$701B       1 000058B6 00000001     X   29252 29262U
 $$$702F       2 000058D8 00000001     H   29333 29286B 29301B
 $$$704F       2 000058F2 00000001     H   29372 29346B
 $$$705F       2 00005984 00000001     H   29527 29501B
 $$$706        1 00000050 00000001 A   U   29686 29683  29685
 $$$708B       1 00005A76 00000001     X   29778 29788U
 $$$709F       2 00005A8C 00000001     H   29828 29818B
 $$$710F       2 00005ADA 00000001     H   29906 29850B
 $$$710S       2 00005A9E 00000001     H   29840 29905B
 $$$712B       4 00005AB2 00000001     I   29866 29883
 $$$712F       2 00005AC4 00000001     H   29880 29866B 29882
 $$$713E       2 00005AC8 00000001     H   29890 29884
 $$$713F       2 00005AD6 00000001     H   29901 29886B
 $$$714        1 00000060 00000001 A   U   29937 29934  29936
 $$$716B       1 00005B02 00000001     X   29980 29990U
 $$$717F       2 00005B1E 00000001     H   30026 30011B
 $$$718F       2 00005B3E 00000001     H   30088 30041B 30056B
 $$$720F       2 00005B60 00000001     H   30131 30105B 30117B
 $$$720S       2 00005B48 00000001     H   30100 30130B
 $$$724F       2 00005BBE 00000001     H   30251 30219B
 $$$725F       2 00005BEA 00000001     H   30314 30282B
 $$$726F       2 00005C04 00000001     H   30359 30327B
 $$$727        1 00000050 00000001 A   U   30521 30518  30520
 $$$729B       1 00005CC0 00000001     X   30560 30570U
 $$$73B        4 0000027A 00000001     I    7566  7580
 $$$73F        2 00000286 00000001     H    7576  7566B  7579
 $$$730F       2 00005CD4 00000001     H   30602 30592B
 $$$731F       2 00005CE0 00000001     H   30624 30614B
 $$$732F       2 00005CFA 00000001     H   30653 30638B
 $$$733F       2 00005D1A 00000001     H   30716 30669B 30684B
 $$$735F       2 00005D80 00000001     H   30833 30783B
 $$$736F       2 00005DAC 00000001     H   30896 30846B
 $$$737F       2 00005DDC 00000001     H   30965 30940B 30955B
 $$$737S       2 00005DC4 00000001     H   30929 30964B
 $$$74E        2 0000028A 00000001     H    7587  7581
 $$$74F        2 00000292 00000001     H    7594  7583B
 $$$740F       2 00005DFA 00000001     H   31010 30983B
 $$$741F       2 00005E6C 00000001     H   31145 31022B
 $$$742F       2 00005F64 00000001     H   31451 31157B
 $$$743F       2 00005F60 00000001     H   31446 31283B
 $$$744F       2 00005F30 00000001     H   31382 31318B
 $$$745F       2 00005F30 00000001     H   31378 31352B
 $$$746F       2 00005F4E 00000001     H   31424 31395B
 $$$747F       2 00006038 00000001     H   31687 31463B
 $$$748F       2 000060D2 00000001     H   31866 31699B
 $$$749F       2 000061BE 00000001     H   32126 31878B
1WBUG     (WBUG2025) (13:00) (15MAR04) Ordinary Symbol and Literal Cross Reference                                          Page  176
 $$$75F        2 000002A6 00000001     H    7630  7611B
 $$$750F       2 000062EC 00000001     H   32544 32138B
 $$$751F       2 000061EE 00000001     H   32185 32159B
 $$$752F       2 00006208 00000001     H   32224 32198B
 $$$753F       2 00006222 00000001     H   32263 32237B
 $$$754F       2 0000623C 00000001     H   32302 32276B
 $$$755F       2 00006256 00000001     H   32341 32315B
 $$$756F       2 00006270 00000001     H   32380 32354B
 $$$757F       2 0000628A 00000001     H   32419 32393B
 $$$758F       2 000062A4 00000001     H   32458 32432B
 $$$759F       2 000062BE 00000001     H   32497 32471B
 $$$76         1 00000050 00000001 A   U    7730  7727   7729
 $$$760F       2 00006544 00000001     H   33388 32556B
 $$$761F       2 0000631C 00000001     H   32603 32577B
 $$$762F       2 00006336 00000001     H   32642 32616B
 $$$763F       2 00006350 00000001     H   32681 32655B
 $$$764F       2 0000636A 00000001     H   32720 32694B
 $$$765F       2 00006384 00000001     H   32759 32733B
 $$$766F       2 0000639E 00000001     H   32798 32772B
 $$$767F       2 000063B8 00000001     H   32837 32811B
 $$$768F       2 000063D2 00000001     H   32876 32850B
 $$$769F       2 000063EC 00000001     H   32915 32889B
 $$$770F       2 00006406 00000001     H   32954 32928B
 $$$771F       2 00006420 00000001     H   32993 32967B
 $$$772F       2 0000643A 00000001     H   33032 33006B
 $$$773F       2 00006454 00000001     H   33071 33045B
 $$$774F       2 0000646E 00000001     H   33110 33084B
 $$$775F       2 00006488 00000001     H   33149 33123B
 $$$776F       2 000064A2 00000001     H   33188 33162B
 $$$777F       2 00006540 00000001     H   33383 33220B
 $$$778F       2 00006510 00000001     H   33319 33255B
 $$$779F       2 00006510 00000001     H   33315 33289B
 $$$78B        1 000002FC 00000001     X    7764  7771U
 $$$780F       2 0000652E 00000001     H   33361 33332B
 $$$781F       2 00006570 00000001     H   33456 33400B
 $$$782        1 00000050 00000001 A   U   33523 33520  33522
 $$$784B       1 00006A0A 00000001     X   33864 33874U
 $$$785F       2 00006A20 00000001     H   33904 33895B
 $$$786F       2 00006A2C 00000001     H   33923 33914B
 $$$787        6 0000738C 00000001     I   33936 33928X
 $$$788        6 0000738C 00000001     I   33935 33936  33936
 $$$789        1 00000050 00000001 A   U   33984 33981  33983
 $$$79F        2 00000320 00000001     H    7837  7806B
 $$$791B       1 00006A6E 00000001     X   34023 34033U
 $$$792F       2 00006A84 00000001     H   34063 34054B
 $$$793F       2 00006A90 00000001     H   34082 34073B
 $$$794        6 00007392 00000001     I   34092 34084X
 $$$795        6 00007392 00000001     I   34091 34092  34092
 $$$796        1 00000050 00000001 A   U   34140 34137  34139
 $$$798B       1 00006AD0 00000001     X   34201 34211U
 $$$80         1 00000050 00000001 A   U    7860  7857   7859
 $$$802        1 00000058 00000001 A   U   34340 34337  34339
 $$$804B       1 00006C58 00000001     X   34437 34447U
 $$$805F       2 00006C72 00000001     H   34492 34477B
 $$$806F       2 00006D64 00000001     H   34918 34506B
 $$$806S       2 00006C76 00000001     H   34500 34917B
 $$$818F       2 00006D06 00000001     H   34768 34720B
 $$$818S       2 00006CE2 00000001     H   34714 34767B
 $$$82B        1 00000348 00000001     X    7898  7905U
1WBUG     (WBUG2025) (13:00) (15MAR04) Ordinary Symbol and Literal Cross Reference                                          Page  177
 $$$820F       2 00006CFC 00000001     H   34761 34738B 34751B
 $$$823F       2 00006D38 00000001     H   34848 34800B
 $$$823S       2 00006D14 00000001     H   34794 34847B
 $$$825F       2 00006D2E 00000001     H   34841 34818B 34831B
 $$$828F       2 00006D4E 00000001     H   34889 34879B
 $$$829F       2 00006D5A 00000001     H   34911 34901B
 $$$83F        2 0000038E 00000001     H    8032  7959B
 $$$83S        2 00000350 00000001     H    7951  8031B
 $$$830        1 00000058 00000001 A   U   34967 34964  34966
 $$$832B       1 00006DA0 00000001     X   35028 35038U
 $$$833F       2 00006DC6 00000001     H   35117 35084B
 $$$834F       2 00006E2E 00000001     H   35227 35129B
 $$$835F       2 00006F0E 00000001     H   35513 35239B
 $$$836F       2 00006E92 00000001     H   35331 35306B 35320B
 $$$836S       2 00006E7A 00000001     H   35298 35330B
 $$$839F       2 00006F0A 00000001     H   35508 35341B
 $$$840F       2 00006ED6 00000001     H   35430 35404B
 $$$841F       2 00006EF0 00000001     H   35467 35441B
 $$$842F       2 00006F0A 00000001     H   35504 35478B
 $$$843F       2 00006FD2 00000001     H   35739 35525B
 $$$844F       2 00006F3E 00000001     H   35567 35546B 35556B
 $$$844S       2 00006F24 00000001     H   35538 35566B
 $$$847F       2 00006F5A 00000001     H   35604 35578B
 $$$848F       2 00006F72 00000001     H   35640 35614B
 $$$849F       2 00007096 00000001     H   35965 35751B
 $$$85F        2 00000370 00000001     H    7992  7976B
 $$$850F       2 00007002 00000001     H   35793 35772B 35782B
 $$$850S       2 00006FE8 00000001     H   35764 35792B
 $$$853F       2 0000701E 00000001     H   35830 35804B
 $$$854F       2 00007036 00000001     H   35866 35840B
 $$$855F       2 00007110 00000001     H   36098 35977B
 $$$856        1 00000058 00000001 A   U   36169 36166  36168
 $$$858B       1 00007146 00000001     X   36204 36214U
 $$$859F       2 000071AC 00000001     H   36380 36326B
 $$$86         1 00000050 00000001 A   U    8088  8085   8087
 $$$860        1 00000050 00000001 A   U   36411 36408  36410
 $$$862B       1 000071D4 00000001     X   36467 36477U
 $$$863B       4 000071E2 00000001     I   36510 36609
 $$$863F       2 0000721E 00000001     H   36606 36510B 36608
 $$$864F       2 0000721E 00000001     H   36602 36554B
 $$$865E       2 00007222 00000001     H   36616 36610
 $$$865F       2 00007232 00000001     H   36646 36612B
 $$$866        1 00000058 00000001 A   U   36676 36673  36675
 $$$868B       1 0000725A 00000001     X   36733 36743U
 $$$869F       2 000072A2 00000001     H   36869 36771B
 $$$87B        1 000003A8 00000001     X    8129  8136U
 $$$870F       2 000072A2 00000001     H   36865 36817B
 $$$871        1 00000058 00000001 A   U   36899 36896  36898
 $$$88B        1 000003B2 00000001     X    8156  8163U  8813U  8956U  9191U  9351U  9908U 10088U 10333U 10419U 10503U
                                                 10617U 10729U 10871U 11357U 11527U 11707U 11867U 12037U 12186U 12295U
                                                 12951U 13084U 13494U 13944U 14096U 14700U
 $$$89B        4 000003BE 00000001     I    8186  8201
 $$$89F        2 000003C8 00000001     H    8198  8186B  8200
 $$$90E        2 000003CC 00000001     H    8208  8202
 $$$90F        2 000003D2 00000001     H    8217  8204B
 $$$91F        2 00000432 00000001     H    8315  8302B
 $$$92F        2 00000452 00000001     H    8372  8332B
 $$$93F        2 00000464 00000001     H    8399  8386B
 $$$94F        2 0000047E 00000001     H    8441  8431B
1WBUG     (WBUG2025) (13:00) (15MAR04) Ordinary Symbol and Literal Cross Reference                                          Page  178
 $$$96F        2 000004D6 00000001     H    8531  8521B
 $$$97F        2 000004E2 00000001     H    8553  8543B
 $$$99B        1 00000504 00000001     X    8588  8595U
 @RAR          0 00000000 FFFFFFF0     @    1124  2160   2168B
 @R0           0 00000000 FFFFFFFE     @     706   982U
 @R1           0 00000000 FFFFFFFD     @     719   978U  2166   2167   8287U  8359U  8449U  8561U  8691U 10190U 10825U
                                                 24573U 25040  25678  25691  25761  25780  25799  25874  25887  25933
                                                 25960  25987  26024  26183  26265  26358  26371  26462  26791U 28086
                                                 28802  34544  34563  34582  34601  34620  34639  34658  34677  34697
                                                 34878  34900  36360U
 @R10          0 00000000 FFFFFFF4     @     836   942U
 @R11          0 00000000 FFFFFFF3     @     849   938U
 @R12          0 00000000 FFFFFFF2     @     862   934U
 @R13          0 00000000 FFFFFFF1     @     875   930U 28179
 @R14          0 00000000 FFFFFFF0     @     888   926U
 @R15          0 00000000 FFFFFFEF     @     901   922U  8152U  8615U
 @R2           0 00000000 FFFFFFFC     @     732   974U  7519   7589M 16098  16128  16156  16190  16218  16820U 18113U
                                                 19927  20037M 26811U 27645U 27747U 27842U 34737  34750  34817  34830
 @R3           0 00000000 FFFFFFFB     @     745   970U 27832U 33463U
 @R4           0 00000000 FFFFFFFA     @     758   966U  7531M  7531   7532M  7540   7964   8004   8009  16444U
 @R5           0 00000000 FFFFFFF9     @     771   962U  7709U  8067U  8754U  8941U  9171U  9331U  9825U 10070U 10309U
                                                 11337U 11512U 11691U 11852U 12021U 12174U 12283U 13103U 13477U 13920U
                                                 16281U 16785U 17342U 17815U 18078U 20414U 24793U 25145U 30591  30613
                                                 36108U 36388U
 @R6           0 00000000 FFFFFFF8     @     784   958U  7714U  7844U  8072U
 @R7           0 00000000 FFFFFFF7     @     797   954U  7185U  7719U  7849U  8077U  8656U  8810U  8863U  8953U  9007U
                                                  9188U  9270U  9348U  9413U  9905U  9962U 10085U 10140U 10330U 10386U
                                                 10416U 10470U 10500U 10556U 10614U 10670U 10726U 10782U 10868U 11017U
                                                 11354U 11409U 11524U 11579U 11704U 11759U 11864U 11919U 12034U 12106U
                                                 12183U 12237U 12292U 12366U 12948U 13028U 13081U 13144U 13491U 13550U
                                                 13941U 13998U 14093U 14520U 14697U 14754U 15007U 15162U 15212U 15242U
                                                 15290U 15326U 15413U 16302U 16385U 16422U 16487U 16798U 16863U 17355U
                                                 17498U 17854U 17912U 18091U 18155U 18234U 18289U 18323U 18378U 18408U
                                                 18550U 18803U 18930U 18953U 19010U 19280U 19435U 20074U 20198U 20226U
                                                 20274U 20391U 20456U 20837U 20959U 21260U 21401U 21975U 22094U 22120U
                                                 22176U 22459U 22579U 22925U 23111U 23264U 23558U 23582U 23630U 23654U
                                                 23702U 23726U 23774U 23798U 23855U 24104U 24194U 24256U 24398U 24426U
                                                 24477U 24521U 24584U 25193U 25388U 25583U 26562U 26650U 27174U 27236U
                                                 27916U 27978U 28202U 28288U 28401U 28550U 29007U 29097U 29203U 29259U
                                                 29672U 29785U 29923U 29987U 30507U 30567U 33509U 33871U 33970U 34030U
                                                 34126U 34208U 34326U 34444U 34953U 35035U 36155U 36211U 36397U 36474U
                                                 36662U 36740U 36885U
 @R8           0 00000000 FFFFFFF6     @     810   950U  9339U 16293U 17845U 20065U 21966U 26553U 27165U 27907U 28193U
                                                 28392U 28998U 29914U 34317U 34944U 36146U 36653U 36876U
 @R9           0 00000000 FFFFFFF5     @     823   946U
 ABSCENT       1 00000000 00000000 A   T    2176  2176
 ASCTBL        1 00000000 00000000 A   T    2184  2184
 BADEXPR       2 00004F76 00000001     H   26536 25940B 25967B 26005B 26013B 26070B 26092B 26106B 26215B 26285B 26306B
                                                 26391B 26412B 26485B 26522B
 BADIADDR      2 00006B28 00000001     H   34303 34243B 34262B 34282B 34294B 34296B 34298B
 BADRADDR      2 00006A38 00000001     H   33947 33884
 BADSADDR      2 00006A9A 00000001     H   34103 34043
 BADSYM        2 000050DC 00000001     H   27151 26688B 26702B
 BLTBL         1 00000000 00000000 A   T    2186  2186
 BR            7 00000007 00000001 A   #    1014  7109M  7323M  7759M  7893M  8154M  8163U  8644M  9401M  9950M 10128M
                                                 10374M 10458M 10544M 10658M 10770M 11005M 11397M 11567M 11747M 11907M
                                                 12094M 12225M 12354M 13016M 13132M 13538M 13986M 14508M 14742M 14995M
                                                 15200M 15278M 15401M 16373M 16475M 16851M 17486M 17900M 18143M 18277M
                                                 18366M 18538M 18918M 18998M 19423M 20186M 20262M 20444M 20947M 21389M
1WBUG     (WBUG2025) (13:00) (15MAR04) Ordinary Symbol and Literal Cross Reference                                          Page  179
                                                 22082M 22164M 22567M 23099M 23546M 23618M 23690M 23762M 23843M 24182M
                                                 24386M 24465M 24575M 24587U 25181M 25571M 26638M 27224M 27966M 28276M
                                                 28538M 29085M 29247M 29773M 29975M 30555M 33859M 34018M 34196M 34432M
                                                 35023M 36199M 36462M 36728M
 BTX           1 00000000 00000028     T   29701 29701
 CHECKIOB      1 00000000 00000000 A   T    2232  2232
 CHKIADDR      2 00006AB6 00000001     H   34180 18451  24140  34176
 CHKIEXIT      2 00006B30 00000001     H   34310 34300B 34305B
 CHKINAME      8 00000000 FFFFFFD7     C   34152 34292M 34293  34295  34297
 CHKINST       2 00006C3E 00000001     H   34416 33535
 CHKIWA        8 00000000 FFFFFFD7     J   34159 34193  34225U 34337  34339  34340
 CHKRADDR      2 000069F0 00000001     H   33845 18450  24139  29700  33538  33841  36922
 CHKREXIT      2 00006A40 00000001     H   33952 33944B 33949B
 CHKSADDR      2 00006A54 00000001     H   34004 18463  21306  34000
 CHKSEXIT      2 00006AA2 00000001     H   34108 34100B 34105B
 CKINEXIT      2 00006D78 00000001     H   34937 34929B 34934B
 CKINWA        8 00000000 FFFFFFD6     J   34391 34429  34461U 34964  34966  34967
 CLRALL        2 000027E4 00000001     H   18352 14454  18479
 CLRDEBUG      2 00001490 00000001     H   13524 13520
 CLREXIT       2 000015C6 00000001     H   13929 13678B 13752B 13854B 13909B
 CLRTRAPS      2 000027A4 00000001     H   18263 18478
 COLLPSH       1 00000000 00000019     T   17420 17420  18883  19345  20136  20902  22040  22524  22990  25453
 COMMAND       1 00000000 00000000 A   T    2172  2172
 COMMSEG       1 00000000 00000000 A   T    2173  2173
 CP         4096 00000000 FFFFFFEC     J    6186  1161U 26889  27262
 CP#XSTK       1 00000010 FFFFFFEC A   U    3918  3919
 CPACFLG       1 000005D5 FFFFFFEC     R    4021  4025   4030   4035   4040   4045
 CPACFLN       4 000005C4 FFFFFFEC     F    4013  4048   4048
 CPAFLAG       1 000005C3 FFFFFFEC     R    3985  3989   3994   3999   4004
 CPANAME       8 00000588 FFFFFFEC     C    3967  4063   4063
 CPAUTFLG      1 000008A9 FFFFFFEC     R    4331  4335   4340   4345   4350
 CPCHFLAG      1 00000B68 FFFFFFEC     R    4958  4962
 CPDFLG        1 0000084C FFFFFFEC     R    4218  4222   4227   4232   4237   4242
 CPDFLG2       1 0000084D FFFFFFEC     R    4247  4251   4256   4261   4266   4271   4276
 CPERRID       8 00000886 FFFFFFEC     C    4317 12593M
 CPEXFLG       1 00000758 FFFFFFEC     R    4087  4091
 CPEXFLG2      1 00000759 FFFFFFEC     R    4097  4106   4116
 CPEXFLG3      1 0000075A FFFFFFEC     R    4123  4127   4132
 CPEXTFLG      1 00000E28 FFFFFFEC     R    5769  5773   5778   5783   5788   5793   5798
 CPFABORT    128 00000D5A FFFFFFEC         5535  2136M  2136   2141M  2141
 CPFERROR     64 00000D5A FFFFFFEC         5540  2135M  2135   2140M  2140
 CPFNTEX       1 00000040 FFFFFFEC A   U    5387  5388
 CPFRDRNG      1 00000D88 FFFFFFEC     R    5655  5659   5664   5669   5674   5679   5684   5689
 CPFRDSRC      1 00000D89 FFFFFFEC     R    5694  5703   5713   5723
 CPFUNUM       1 00000080 FFFFFFEC A   U    5386  5388
 CPFXDFLG      1 000007E4 FFFFFFEC     R    4165  4169   4174
 CPGFLG1       1 00000474 FFFFFFEC     R    3528  3532   3537   3542   3547   3552   3882   3882
 CPGFLG10      1 0000047D FFFFFFEC     R    3765  3769   3774   3779   3784   3789   3794
 CPGFLG11      1 0000047E FFFFFFEC     R    3800  3804   3809
 CPGFLG12      1 0000047F FFFFFFEC     R    3815  3819   3824   3829
 CPGFLG13      1 00000480 FFFFFFEC     R    3835  3839
 CPGFLG14      1 00000481 FFFFFFEC     R    3845  3849   3854   3859   3864   3869
 CPGFLG4       1 00000477 FFFFFFEC     R    3581  3592   3601   3610   3619   3628
 CPGFLG5       1 00000478 FFFFFFEC     R    3634  3638   3643   3648   3653   3658   3663   3668   3673
 CPGFLG6       1 00000479 FFFFFFEC     R    3679  3683   3688   3693
 CPGFLG7       1 0000047A FFFFFFEC     R    3699  3703   3708   3713   3718
 CPGFLG8       1 0000047B FFFFFFEC     R    3724  3728   3733   3738   3743
 CPGFLG9       1 0000047C FFFFFFEC     R    3749  3753   3759
 CPINIT        1 00000174 FFFFFFEC     U    2698  6155
1WBUG     (WBUG2025) (13:00) (15MAR04) Ordinary Symbol and Literal Cross Reference                                          Page  180
 CPJESFLG      1 000009E1 FFFFFFEC     R    4430  4434   4439   4444   4449   4454   4459   4464   4469
 CPJESFLY      1 000009FD FFFFFFEC     R    4480  4484   4489   4494
 CPJESHFL      1 000009E0 FFFFFFEC     R    4415  4419   4424   4503   4503
 CPLFLG10      1 00000D59 FFFFFFEC     R    5521  5525
 CPLFLG11      1 00000D5A FFFFFFEC     R    5531  5535   5540   5545   5550
 CPLFLG12      1 00000D5B FFFFFFEC     R    5556  5560
 CPLFLG14      1 00000D5C FFFFFFEC     R    5566  5570   5575   5580   5585   5590
 CPLFLG6       1 00000D55 FFFFFFEC     R    5396  5400   5405   5410   5415   5420   5425
 CPLFLG7       1 00000D56 FFFFFFEC     R    5431  5435   5440   5445   5450   5455
 CPLFLG8       1 00000D57 FFFFFFEC     R    5461  5465   5470   5475   5480
 CPLFLG9       1 00000D58 FFFFFFEC     R    5486  5490   5495   5500   5505   5510   5515
 CPLOCALZ      1 00000C48 FFFFFFEC     U    4988  6149   6149
 CPMFLG        1 0000084F FFFFFFEC     R    4285  4289
 CPMODFLG      1 00000C78 FFFFFFEC     R    5016  5020   5025   5030   5035   5040
 CPNAMELN      1 00000010 FFFFFFEC A   U    3911  4158
 CPNEDPFX     10 00000E29 FFFFFFEC     X    5802  5803   5804
 CPNSCANP      4 0000008C FFFFFFEC     A    2571 12522  12529  12545  14041  14048  14064  14880  14891  14898  14914
                                                 15024  15607  15614  15630  16905  16912  16928  18749  18756  18772
                                                 19226  19233  19249  19595  19602  19617  19740  19747  19763  20783
                                                 20790  20806  21652  21659  21675  22300  22307  22323  22678  22685
                                                 22701  23218  23225  23241  24210  24217  24233  25238  25245  25261
                                                 25615  25622  25637  25699  25727  25811  25818  25833  25895  28001
                                                 28008  28015  28030  28044  28176
 CPNUMFLG      1 00000C79 FFFFFFEC     R    5046  5058
 CPORVCMD      1 00000140 FFFFFFEC     R    2580  2584   2589   2594   2599   2604   2609   2614   2619   2624   2624
                                                  2675   2675
 CPORVFLG      1 00000149 FFFFFFEC     R    2631  2635   2640   2645   2650   2655   2660   2665   2670
 CPORVWF       1 00000150 FFFFFFEC     R    2683  2687
 CPOSCANX      4 00000CA8 FFFFFFEC     F    5215  5282   5282
 CPR          11 0000000B 00000001 A   #    1078  1161U 10152
 CPRACBAD     16 000001FC FFFFFFEC         2749  2783   2783   2784   2784
 CPRACF1       1 000001FC FFFFFFEC     R    2730  2734   2739   2744   2749   2754   2759   2764   2769   2785
 CPRACPSW     32 000001FC FFFFFFEC         2744  2782   2782   2784   2784
 CPRACUND     64 000001FC FFFFFFEC         2739  2782   2782   2783   2783
 CPRCVCUR      4 00000730 FFFFFFEC     A    4066  4068   4068
 CPREGS        4 00000004 FFFFFFEC     A    2461 12273M
 CPRFLG        1 000008AA FFFFFFEC     R    4356  4360   4365   4370   4375   4380   4385
 CPS         254 00000344 FFFFFFEC     X    3500  3503   3504   3506   3506
 CPSACCT       5 000003B4 FFFFFFEC     C    3099  3262   3262
 CPSAMCOD      1 00000A22 FFFFFFEC     R    4552  4560   4570   4580   4589   4598   4607   4617   4626   4635
 CPSAMFLG      1 00000A21 FFFFFFEC     R    4512  4516   4521   4526   4531   4536   4541   4546   4657   4657
 CPSCNFLG      1 00000CD0 FFFFFFEC     R    5228  5239   5248   5259
 CPSCNF2       1 00000CD1 FFFFFFEC     R    5264  5268
 CPSCNMAX      1 00000014 FFFFFFEC A   U    5280  5281
 CPSCRI        2 00000434 FFFFFFEC     H    3489  3494   3494
 CPSEG        60 00000050 FFFFFFEC     X    2569  8017   8056  12430  12489  12507  12631  12652  12670  12694  12715
                                                 12733  12768  13212  13274  13295  13313  13337  13358  13376  13423
                                                 13444  13462  13673  13747  13849  13904  15473  15491  16049  16071
                                                 16089  16113  16147  16171  16209  16233  16255  16686  16708  16726
                                                 16756  16774  16969  17046  17081  17107  17125  17167  17200  17222
                                                 17290  17319  17833  19697  19838  20337  21745  21796  21818  21871
                                                 21904  21927  22349  22374  22392  22419  22437  22727  22749  22785
                                                 22825  22865  22905  25291  25309  25345  25367  28674  28738  28969
                                                 29325  29364  29386  29408  29426  29454  29472  29483  29519  29541
                                                 29563  29581  29609  29627  29657  30080  30167  30178  30202  30243
                                                 30265  30306  30351  30361  30379  30385  30403  30437  30457  30482
                                                 30708  30731  30742  30766  30801  30825  30864  30888  30899  31001
                                                 31052  31070  31094  31112  31136  31187  31205  31229  31247  31270
                                                 31301  31339  31370  31416  31438  31493  31511  31535  31553  31577
1WBUG     (WBUG2025) (13:00) (15MAR04) Ordinary Symbol and Literal Cross Reference                                          Page  181
                                                 31595  31618  31636  31660  31678  31729  31752  31770  31794  31812
                                                 31839  31857  31908  31931  31949  31974  31992  32016  32034  32057
                                                 32075  32099  32117  32177  32216  32255  32294  32333  32372  32411
                                                 32450  32489  32511  32535  32595  32634  32673  32712  32751  32790
                                                 32829  32868  32907  32946  32985  33024  33063  33102  33141  33180
                                                 33207  33238  33276  33307  33353  33375  33430  33448  33488  35109
                                                 35147  35172  35190  35213  35257  35280  35359  35389  35422  35459
                                                 35496  35596  35632  35659  35682  35712  35730  35822  35858  35885
                                                 35908  35938  35956  35995  36018  36041  36071  36089  36135  36261
                                                 36279  36307  36344  36372  36540  36572  36594  36638  36803  36835
                                                 36857
 CPSEGCOD      1 00000050 FFFFFFEC     R    2486  2495   2505   2515   2525   2535   2545   2555
 CPSEGLENF
               4 0000005C FFFFFFEC     A    2561 28634M 28634  28649  29285M 29285  29300  30040M 30040  30055  30668M
                                                 30668  30683
 CPSEGMRKF
               4 00000058 FFFFFFEC     A    2560 28649  29300  30055  30683
 CPSFL         1 00000384 FFFFFFEC     R    2837  2841   2846   2851   2856   2861
 CPSFLG        1 000003F8 FFFFFFEC     R    3377  3381   3386   3391   3396   3401   3406   3411   3416
 CPSFLG2       1 000003F9 FFFFFFEC     R    3422  3426   3431   3436
 CPSFL2        1 00000385 FFFFFFEC     R    2867  2871   2876   2881   2886
 CPSFL3        1 00000386 FFFFFFEC     R    2892  2896   2901   2906
 CPSFL4        1 00000387 FFFFFFEC     R    2912  2916   2921   2926
 CPSFL5        1 00000388 FFFFFFEC     R    2932  2936   2941   2946
 CPSFSPR      32 000003BE FFFFFFEC         3202 12387  13165  13571  14019  14775  16884  18176  18571  19031  19475
                                                 20477  20980  21433  22197  23876
 CPSKAFL       1 000003BF FFFFFFEC     R    3233  3237   3242   3247   3252   3257
 CPSKIFL       1 000003BE FFFFFFEC     R    3188  3192   3197   3202   3207   3212   3217   3222   3227
 CPSOF         1 000001F8 FFFFFFEC     X    2720  2722   2722
 CPSOFLAG      1 00000416 FFFFFFEC     R    3447  3451   3456   3461   3466   3471
 CPSOPST       4 000003C4 FFFFFFEC     F    3267  3496   3496
 CPSPORT       8 00000354 FFFFFFEC     C    2831  2951   2951
 CPSQFLG       1 000003EC FFFFFFEC     R    3296  3300
 CPSSFLG       1 000003BB FFFFFFEC     R    3106  3110   3115   3120   3125   3130   3135
 CPSSTART      4 00000344 FFFFFFEC     F    2823  2827   2827   3263   3263   3368   3368   3500   3500
 CPSSTAT       1 0000038F FFFFFFEC     R    3043  3047   3052   3057   3062   3067   3072   3077
 CPSTACF       1 000003BC FFFFFFEC     R    3141  3145   3150   3155   3160   3165   3170   3175   3180
 CPSTART       4 00000000 FFFFFFEC     C    2459  6153   6157
 CPSTFLAG      1 000003EA FFFFFFEC     R    3274  3278   3283   3288
 CPSTYPE       1 0000038C FFFFFFEC     R    2956  2965   2975   2985   2995   3005   3015   3025   3035
 CPSUFLG       1 000003EE FFFFFFEC     R    3311  3315   3320   3325   3330   3335   3340   3345   3350
 CPSUFLG2      1 000003EF FFFFFFEC     R    3356  3360   3365
 CPSVPGM       8 0000039C FFFFFFEC     C    3089  3095   3095
 CPS1ST        4 0000038C FFFFFFEC     F    2953  3498   3498
 CPTEMPP#      1 0000005F FFFFFFEC A   U    4406  4408
 CPTRMFL1      1 00000C7A FFFFFFEC     R    5064  5068   5073   5078   5202   5202
 CPTRMFL2      1 00000C7B FFFFFFEC     R    5084  5088   5093   5098   5103   5108   5113
 CPTRMFL3      1 00000C7C FFFFFFEC     R    5119  5123   5128   5133   5138   5143   5148   5153
 CPTRMFL4      1 00000C7D FFFFFFEC     R    5159  5163   5168   5173   5178   5183   5188   5193
 CPUSED        1 00000FBC FFFFFFEC A   U    6153  6154
 CPVACURS      8 00000AF0 FFFFFFEC     D    4931  4932   4933
 CPVCURS       8 00000AE0 FFFFFFEC     D    4925  4926   4927
 CPVFLAG       1 00000AC8 FFFFFFEC     R    4726  4730   4735   4740   4745   4750
 CPVFLAG2      1 00000AC9 FFFFFFEC     R    4756  4760   4765   4770   4775   4780   4785
 CPVFLAG3      1 00000ACA FFFFFFEC     R    4791  4795   4800   4805   4810   4815   4820
 CPVFLAG4      1 00000ACB FFFFFFEC     R    4826  4830   4835   4840
 CPVLFLAG      1 00000ACE FFFFFFEC     R    4895  4899   4904   4909
 CPVMODE       1 00000ACC FFFFFFEC     R    4848  4852   4857   4862   4867   4872   4877   4882   4887
 CPVTWID       2 00000AD0 FFFFFFEC     H    4915  4918   4918
1WBUG     (WBUG2025) (13:00) (15MAR04) Ordinary Symbol and Literal Cross Reference                                          Page  182
 CPWK1         4 00000D60 FFFFFFEC     F    5599  5614   5637  18746M 18746  18942M 28795
 CPWK2         4 00000D64 FFFFFFEC     F    5600  5615   5629
 CPWK3         4 00000D68 FFFFFFEC     F    5601  5616   5630
 CPWK4         4 00000D6C FFFFFFEC     F    5602  5617   5631
 CPWK5         4 00000D70 FFFFFFEC     F    5603  5619   5624   5632
 CPWK6         4 00000D74 FFFFFFEC     F    5604  5620   5625   5633   5640   5642
 CPWK7         4 00000D78 FFFFFFEC     F    5605  5618   5634
 CPXFLAG       1 000007FD FFFFFFEC     R    4193  4197
 CPXSIZE       1 00001000 FFFFFFEC A   U    6157  6900  28450
 CPXSTATE      4 000007F8 FFFFFFEC     F    4187  4200   4200
 CV         4016 00000000 FFFFFFEE     J    2362  1170U
 CV            1 00000000 00000006     T   10942 10942  25485
 CVABORT       4 000007DA FFFFFFEE     I    2141 12512B 12675B 15882B
 CVABSENT      4 000007F0 FFFFFFEE     I    2151 19640B
 CVABSRTN      4 0000088C FFFFFFEE     V    2176  2151
 CVABTMSG      4 000007CC FFFFFFEE     I    2136 12598B 13611B 14082B 14559B 14588B 14614B 14815B 14844B 14870B 15059B
                                                 15087B 15113B 15139B 15308  15567B 15595B 15737B 15811B 15840B 15881B
                                                 15905B 15928B 15971B 16583B 16655B 17587B 17615B 17789B 18006B 18617B
                                                 18645B 18703B 19077B 19105B 19162B 19214B 19530B 19558B 19819B 19957B
                                                 20516B 20545B 20571B 20632B 20673B 20729B 20770B 21020B 21049B 21075B
                                                 21108B 21136B 21177B 21211B 21239B 22237B 22266B 22292B 22615B 22644B
                                                 22670B 23148B 23177B 23203B 23916B 23945B 23971B 24005B 24033B 24059B
                                                 24085B 25229B 30022B 30649B 34488B
 CVBLANKS    235 000004D8 FFFFFFEE     C    1956 26671  28005  28876
 CVBRMSK       1 00000751 FFFFFFEE     X    2092  2093   2094
 CVCFLAG       1 00000A00 FFFFFFEE     R    2257  2261   2266   2271   2276   2281
 CVCHKST       8 000009F0 FFFFFFEE     D    2247  2337   2337
 CVCHKST2      8 00000E28 FFFFFFEE     D    2340  2343   2343
 CVCOMRTN      4 0000087C FFFFFFEE     V    2172  2142
 CVCURJCB      4 000001C8 FFFFFFEE     A    1441  7406M  7406   7440   7449   7467   7610M  7610   9492   9498   9520
                                                 12585  12787  12823  13638  13695  13771  13785  14576  14668  14832
                                                 18723  19182  19577  20533  21037  22254  22632  23165  23933  24632
                                                 26848  26980  27021  27317  27600  27677
 CVDBGFLG      1 000004CC FFFFFFEE     R    1946  1950
 CVDSTK        4 00000270 FFFFFFEE     A    1513 10574  10689
 CVEBCTBL      4 000008B4 FFFFFFEE     V    2185 28801
 CVECB         4 00000720 FFFFFFEE     F    2064  7833M
 CVENT         4 0000074C FFFFFFEE     I    2090  7109B  7323B  7759B  7893B  8644B  9401B  9950B 10128B 10374B 10458B
                                                 10544B 10658B 10770B 11005B 11397B 11567B 11747B 11907B 12094B 12225B
                                                 12354B 13016B 13132B 13538B 13986B 14508B 14742B 14995B 15200B 15278B
                                                 15401B 16373B 16475B 16851B 17486B 17900B 18143B 18277B 18366B 18538B
                                                 18918B 18998B 19423B 20186B 20262B 20444B 20947B 21389B 22082B 22164B
                                                 22567B 23099B 23546B 23618B 23690B 23762B 23843B 24182B 24386B 24465B
                                                 25181B 25571B 26638B 27224B 27966B 28276B 28538B 29085B 29247B 29773B
                                                 29975B 30555B 33859B 34018B 34196B 34432B 35023B 36199B 36462B 36728B
 CVENTBR       2 00000750 FFFFFFEE     I    2091  2092
 CVENTON     240 00000751 FFFFFFEE         2093 12784M
 CVERRMSG      4 000007C8 FFFFFFEE     I    2135 19708B 20348B 21473B 21550B 21645B
 CVERROR       4 000007D6 FFFFFFEE     I    2140  2156B 21750B
 CVEXIRTN      4 0000077C FFFFFFEE     V    2120  2116
 CVFCHRKBPR
               8 000004C9 FFFFFFEE         1861  1877   1877
 CVFCHRKBSE
               4 000004C9 FFFFFFEE         1866  1877   1877
 CVFCHRKCPR
               2 000004C9 FFFFFFEE         1883  1899   1899
 CVFCHRKCSE
               1 000004C9 FFFFFFEE         1888  1899   1899
 CVFCHRUBPR
1WBUG     (WBUG2025) (13:00) (15MAR04) Ordinary Symbol and Literal Cross Reference                                          Page  183
             128 000004C9 FFFFFFEE         1817  1833   1833
 CVFCHRUBSE
              64 000004C9 FFFFFFEE         1822  1833   1833
 CVFCHRUCPR
              32 000004C9 FFFFFFEE         1839  1855   1855
 CVFCHRUCSE
              16 000004C9 FFFFFFEE         1844  1855   1855
 CVFDEBUGIO
             128 000004CC FFFFFFEE         1950  7621M  7653M
 CVFJCB        4 000001C0 FFFFFFEE     A    1439 13041
 CVFL          1 000004C4 FFFFFFEE     R    1613  1617   1622   1627   1632   1637   1642   1647   1652
 CVFL2         1 000004C5 FFFFFFEE     R    1658  1662   1667   1672   1677   1682   1687   1692   1697
 CVFL3         1 000004C6 FFFFFFEE     R    1703  1707   1712   1717   1722   1727   1732   1737   1742
 CVFL4         1 000004C7 FFFFFFEE     R    1748  1752   1757   1762   1767   1772   1777   1782
 CVFL5         1 000004C8 FFFFFFEE     R    1788  1792   1797   1802   1807
 CVFL6         1 000004C9 FFFFFFEE     R    1813  1817   1822   1834   1839   1844   1856   1861   1866   1878   1883
                                                  1888   1900
 CVFNSPIE      2 000004C7 FFFFFFEE         1782  7146
 CVFTEST       2 000004C5 FFFFFFEE         1692 12411  15454
 CVHEAP        4 00000280 FFFFFFEE     A    1521 10579  10694  26941  27438  27459
 CVHEAP#       1 00000200 FFFFFFEE A   U    1519  1520
 CVHEAPE       4 00000284 FFFFFFEE     A    1522 10580  10695  27452
 CVINVRTN      4 00000888 FFFFFFEE     V    2175  2145
 CVJESFLG      1 000004CA FFFFFFEE     R    1906  1910
 CVLJCB        4 000001C4 FFFFFFEE     A    1440 13054
 CVLNKRGS      4 00000780 FFFFFFEE     F    2122  2097M  2123   8255M  8458M  8489M  8574M  8604M 10043M 24674  24774
                                                 24777  24778
 CVLNKRTN      4 000007B0 FFFFFFEE     U    2123  2112M 24728
 CVLOCK1       1 00000088 FFFFFFEE     R    1264  1268   1273
 CVLOCK2       1 00000089 FFFFFFEE     R    1278  1282
 CVLOCK3       1 0000008A FFFFFFEE     R    1287  1291
 CVLOCK4       1 0000008B FFFFFFEE     R    1296  1300
 CVLOGMOD      1 00000068 FFFFFFEE     R    1251  1255
 CVMACH        1 00000067 FFFFFFEE     R    1211  1215   1220   1225   1230   1235   1240   1245
 CVMILRTN      4 00000884 FFFFFFEE     V    2174  2154
 CVNEXT        4 000007DE FFFFFFEE     I    2142 12937B 13217B 13480B 13930B 14686B 15224  16286B 16974B 17344B 17838B
                                                 18223B 18792B 19269B 20604B 20826B 21249B 21959B 22448B 22914B 23253B
                                                 24093B 24245B 25377B 30488B 33494B
 CVNOARTN      4 00000890 FFFFFFEE     V    2177  2148
 CVNWDATE      4 00000608 FFFFFFEE     F    1979  1983   1983
 CVNWMPG#      1 00000008 FFFFFFEE A   U    1981  1982
 CVNXTMSG      4 000007D0 FFFFFFEE     I    2137 20058B
 CVPFXRTN      1 00000000 00000000 A   T    2120  2120
 CVPGFLAG      1 00000A01 FFFFFFEE     R    2287  2291   2296   2301
 CVPIOSZ       1 00004F80 FFFFFFEE A   U    1350  1352
 CVPPDBQH      4 0000009C FFFFFFEE     A    1308  1309
 CVPSFNO       1 000003E9 FFFFFFEE A   N    1472  1474
 CVPSLNO       1 000007CF FFFFFFEE A   N    1473  1474
 CVPSZ         1 00004F78 FFFFFFEE A   U    1352  6904  28459
 CVPXSZ        1 00000008 FFFFFFEE A   U    1351  1352
 CVR          12 0000000C 00000001 A   #    1091  1170U  8175M 24592M
 CVRKEY        1 00000008 FFFFFFEE A   U    2045  2046
 CVRSET        1 00000002 FFFFFFEE A   U    2039 12156
 CVSEGRTN      4 00000880 FFFFFFEE     V    2173  2137
 CVSPIEAD      4 00000710 FFFFFFEE     A    2059  8331   8352   8367M  8367   8513   8570M  8570  10313  10316M 10828M
                                                 33885M 33959M 33959  34044M 34115M 34115
 CVSTACK       4 00000274 FFFFFFEE     A    1514  9552  10568  10682  24688  26917  27396  27417
 CVSTACK#      1 00000080 FFFFFFEE A   U    1511  1512
 CVSTACKE      4 00000278 FFFFFFEE     A    1515  8242   9566  10569  10683  24593  24702  27410
1WBUG     (WBUG2025) (13:00) (15MAR04) Ordinary Symbol and Literal Cross Reference                                          Page  184
 CVSTACKL      4 0000026C FFFFFFEE     A    1512 10575  10690
 CVSTART       4 00000000 FFFFFFEE     C    1184  2355
 CVTRC         4 00000768 FFFFFFEE     I    2112  2098B  8256B  8459B  8490B  8575B  8605B 10044B
 CVTRCRTN      4 00000778 FFFFFFEE     V    2119  2113
 CVUSFNO       1 00000001 FFFFFFEE A   N    1479  1481
 CVUSLNO       1 000003E7 FFFFFFEE A   N    1480  1481
 CVVOL#        1 00000005 FFFFFFEE A   U    2330  2331
 CVWTOFLG      1 000004CB FFFFFFEE     R    1916  1920   1925   1930   1935   1940
 DBACTIVE    128 00000008 FFFFFFE7         6732  7386   8385   9446  12470  12778M 12805  13193  13599  13622M 14547
                                                 14650  14803  20504  21008  22225  22603  23136  23904  24609
 DBADSTK       8 000286D4 00000001     U   36964 10966
 DBAHEAP       8 000486D4 00000001     U   36965 10967  28457
 DBAREA        8 00007398 00000001     D   36961 10933  10968  14442  14455  18439  21289  23016  24131  25479  28449
                                                 36926  36963  36964  36965  36966
 DBASTACK      8 000086D4 00000001     U   36963 10965  28456
 DBBREAK      64 00000008 FFFFFFE7         6737  9847M  9870M 12869M 12916M 14602  14858  20559  21063  22280  22658
                                                 23191  23959  26002  26212
 DBCC          4 00000024 FFFFFFE7     F    6789 10183M 10813  11493  11673  22737  22766  22806  22846  22886  23215M
                                                 23215  23571M 23643M 23715M 23787M
 DBCLEAR     128 00000009 FFFFFFE7         6751 10839  13710M 13830M
 DBCMDS        1 00000009 FFFFFFE7     R    6747  6751   6756
 DBDSECT       1 00000000 FFFFFFE7     J    6724  6882   6906   6970   7015   7075   7354U  7790U  7924U  8173U 24567M
                                                 36963  36964  36965  36966
 DBDSTACK      1 0002133C FFFFFFE7     X    6902 36964
 DBEECP        4 00000014 FFFFFFE7     F    6781 10152M 26869  27338
 DBEEJCB       4 00000010 FFFFFFE7     F    6780  7422M  7422   7449M  7467   7680   9474   9498M  9520   9856  12785M
                                                 12889  13249  13318  13398  13624  14628  24632  24647  26863  26995
                                                 27001  27332  27692  27698  35195  35262  35641  35867  36000
 DBERJCB       4 0000000C FFFFFFE7     F    6779  7440   7674   7827   9492   9851  12788M 12823  13255  13404  13625
                                                 14576  14633  14668  14832  18723  19182  19577  20533  21037  22254
                                                 22632  23165  23933  26848  26980  27317  27677
 DBEXECD     128 0000000A FFFFFFE7         6765  9577M 35083  35095M
 DBFLAG        1 00000008 FFFFFFE7     R    6728  6732   6737   6742
 DBFMSG       64 0000000A FFFFFFE7         6770  7663M  7823M 12846  12883  12904M
 DBFMSGDISP
              32 0000000A FFFFFFE7         6775  7670M  7816M 12858  12909M
 DBGREAD       1 00000000 00000021     T   23029 23029
 DBHEAP        1 0004133C FFFFFFE7     X    6903 36965
 DBIA          4 00000020 FFFFFFE7     F    6788  9623M  9650M  9787  10009M 10034M 10179M 10211  10810  11065  11190
                                                 11221  11237  11243M 11458M 11480M 11649M 11808M 11830M 11989M 15145M
                                                 15225M 15309M 22399  22442  24091M 26221  35218  35285  35292  35664
                                                 35890  36023
 DBIC          4 00000028 FFFFFFE7     F    6790 10176M 35157
 DBILC         4 0000002C FFFFFFE7     F    6791 10174M
 DBILEN        4 00000030 FFFFFFE7     F    6792 11186M 11226  11238  11457  11489  11490  11669  11670  11807  11839
                                                 12009
 DBINSTR       4 00000034 FFFFFFE7     F    6793  9164M 11202M 11210M 11212  11220  11225  11242  11247  11268  11289
                                                 11310  11439  11501  11594  11619  11642  11681  11789  11841  11934
                                                 11959  11982  12011
 DBLENGTH      1 000C62B4 FFFFFFE7 A   U    6906 10934  10969  14456  36962
 DBMISC        1 0000000A FFFFFFE7     R    6761  6765   6770   6775
 DBMSGQH       4 00000018 FFFFFFE7     A    6783  7571M  7805M  7805   7957   7964M  7975M  7975
 DBMSGQT       4 0000001C FFFFFFE7     A    6784  7558   7572M  7590M  7988M  7988
 DBPAGE        1 000C133C FFFFFFE7     X    6904 36966
 DBPAR         4 000002D8 FFFFFFE7     A    6891 10585M 10706M 10706  27061  27067  27107  27467
 DBPBR         4 000002DC FFFFFFE7     A    6892 10594M 10713M 10713  27113  27526
 DBPSW         4 0000003C FFFFFFE7     F    6795  6796   6797  10171M 22359
 DBPSWIA       4 00000040 FFFFFFE7     U    6797 11066  11496  11676  22397
 DBREGS        4 00000044 FFFFFFE7     F    6799  6800   6801  10172M 10817  10818M 10818  11478  11504M 11612  11636
1WBUG     (WBUG2025) (13:00) (15MAR04) Ordinary Symbol and Literal Cross Reference                                          Page  185
                                                 11684M 11828  11844M 11952  11976  12014M 21247M 26113  29433  29588
 DBREG0        4 00000044 FFFFFFE7     U    6800 15306M
 DBREG1        4 00000048 FFFFFFE7     U    6801 15307M
 DBRESET       2 00000AC4 00000001     H   10756 10954
 DBRNO        32 00000008 FFFFFFE7         6742  8185   8241M  8469M  9028  24665
 DBSETUP       2 000008BC 00000001     H   10114 10952
 DBSPIEAD      4 000002E0 FFFFFFE7     F    6894 10314M 10827
 DBSTACK       1 0000133C FFFFFFE7     X    6901 36963
 DBSTKLEN      1 00000200 FFFFFFE7 A   U    6887 10945  25486
 DBTPADDR      4 00000000 FFFFFFE6     F    6827  8735   8907   9070   9135   9318   9678   9801  10242  10287  11086
                                                 11115  11213M 11229M 11456  11488  11668  11806  11838  12008  15704
                                                 16264M 17245  17670  17676  17756  17794  18023  18029  24868M 24902M
                                                 24943  24952  24995M 25091M 25125M 35319
 DBTPCONT     32 00000006 FFFFFFE6         6845  9615  10001  11235M
 DBTPINFO      8 00000008 FFFFFFE6     U    6873  9621   9622   9649  10007  10008  10034  11221M 11237M 11238M
 DBTPINST     64 00000006 FFFFFFE6         6840  9643  10028  11219M
 DBTPIRPT      2 00000006 FFFFFFE6         6865  9698M 10298M 11056  35128
 DBTPNAME      8 00000008 FFFFFFE6     C    6872  6873  16550  16669M 17239  17275  17703  17709  17973  18055  24873M
                                                 24907M 25000M 25040  25096M 25130M 35374  35530  35555  35697  35756
                                                 35781  35923  36056
 DBTPNEXT      2 00000010 FFFFFFE6     H    6874  8741   8929   9107   9157   9684  10248  11121  15710  15784  16023
                                                 16556  16627  17328  17762  17979  24982M 25046  35325  35561  35787
 DBTPNORM    128 00000006 FFFFFFE6         6835 16270M 16668M 35238
 DBTPNTY       8 00000006 FFFFFFE6         6855  9743  24901M 25124M 35440  35750
 DBTPOPCD      2 00000004 FFFFFFE6     H    6828  8922   9098M  9164   9320M 11150  11168  11210  11220M 11236M 17142
                                                 17152  17677  17795  18030  24953
 DBTPRET       4 00000006 FFFFFFE6         6860  9772  24994M 35477  35976
 DBTPTRC      16 00000006 FFFFFFE6         6850  9714  24867M 25090M 35403  35524
 DBTPTYPE      1 00000006 FFFFFFE6     R    6831  6835   6840   6845   6850   6855   6860   6865
 DBTRACE      64 00000009 FFFFFFE7         6756 18208  24415M 24495M 24838
 DBTRAP       16 00000000 FFFFFFE6     J    6881  8702U  8884U  9047U  9214   9300U  9305   9305   9312M  9312   9317
                                                  9317M  9600U  9691   9727M  9727   9756M  9756   9785M  9785   9807
                                                  9813   9984U 10206U 10269  11039U 11431U 11663U 11781U 12003U 15657U
                                                 15778  16017  16521U 16621  16942  16991U 17027  17528U 17685M 17685
                                                 17803M 17803  17943U 18038M 18038  18067M 18067  18306  18395  18490
                                                 24501  24805U 24817M 24817  24825M 24825  24982  24982  25490  35068U
 DBTRAPC       4 000001A4 FFFFFFE7     F    6808 11228
 DBTRAPE       4 000001C4 FFFFFFE7     F    6810  9749  24818  24895  25118
 DBTRAPI       4 00000194 FFFFFFE7     F    6807  9163  11211
 DBTRAPNF      4 00000084 FFFFFFE7     F    6805  9590   9691M  9692   9699   9728   9757   9814   9974  10195M 10195
                                                 10269M 10274  11029  11145  11421  11653  11771  11993  35058  35568
                                                 35794
 DBTRAPR       4 000001D4 FFFFFFE7     F    6811  9786   9807M  9813M 24963  24988
 DBTRAPRL      4 000002C4 FFFFFFE7     F    6813  9778  24930  24962
 DBTRAPR2      4 000001E4 FFFFFFE7     F    6812  9807   9813
 DBTRAPS       4 00000094 FFFFFFE7     F    6806  8707   8889   9052   9117   9651  10196  11087  15676  15749  15987
                                                 16526  16591  16941  16996  17654  17728  17949  18305  18394  25012
                                                 35531  35757
 DBTRAPT       4 000001B4 FFFFFFE7     F    6809  9720  24500  24810  24861  25084  35290
 DBTRCSAV      4 000002FC FFFFFFE7     F    6898 24567M 25152
 DBUGINIT      2 00000018 00000001     H    7095  7091
 DCADDR        4 00000008 FFFFFFD9     F   28489 28617M 28700  28707  28824  28837  28900  28918  28976  28978M
 DCEND         4 00000010 FFFFFFD9     F   28491 28610M 28700
 DCLEN         4 00000014 FFFFFFD9     F   28492 28585M
 DCPADDR       4 0000000C FFFFFFD9     F   28490 28620M 28748  28918  28979  28981M
 DCPSTART      4 00000004 FFFFFFD9     F   28488 28584M 28618  28830
 DCSTART       4 00000000 FFFFFFD9     F   28487 28583M 28615  28824  28838  28900  28925
 DCTEMPLT     80 00000018 FFFFFFD9     C   28493 28494  28495  28496  28497  28498  28499  28500  28706  28706M 28954
 DCTPADDR     80 00000018 FFFFFFD9     U   28494 28749  28831
1WBUG     (WBUG2025) (13:00) (15MAR04) Ordinary Symbol and Literal Cross Reference                                          Page  186
 DCTPCHAR     80 00000047 FFFFFFD9     U   28499 28783M 28802M 28807M 28857M
 DCTPHEX1     80 00000022 FFFFFFD9     U   28495 28756  28876M
 DCTPHEX2     80 0000002B FFFFFFD9     U   28496 28763
 DCTPHEX3     80 00000034 FFFFFFD9     U   28497 28770
 DCTPHEX4     80 0000003D FFFFFFD9     U   28498 28777
 DCTPMSG      80 0000005A FFFFFFD9     U   28500 28924M 28926  28932M
 DCWA        104 00000000 FFFFFFD9     J   28507 28535  28567U 28580M 28580  29018  29020  29021
 DDEXIT        2 00005C90 00000001     H   30492 30145B
 DEBDISP       2 000002E2 00000001     H    7745  7741
 DEBLP         4 00001250 00000001     I   12787 12917B
 DEBUGBUF    300 000000BC 00000001     C    7294  7282   7288
 DEBUGLEN      1 000CD64C 00000001 A   U   36968 18465
 DEBUGPRT      4 00001678 00000001     F   14113 14457
 DEBUGRTN      2 000001E8 00000001     H    7309  7289
 DEBUGSG      60 00000080 00000001     X    7292  7204  10938
 DEBUGSG       1 00000000 00000000 A   T    2073  2073
 DEBUGSGCOD
               1 00000080 00000001     R    7209  7218   7228   7238   7248   7258   7268   7278
 DEBUGXIT      2 000002D4 00000001     H    7705  7389B  7443B  7470B  7626B
 DEBWRITE      2 0000032E 00000001     H    7879 14451
 DEQSTR        1 00000000 0000001D     T   21300 21300
 DEV          12 00000000 FFFFFFEB     J    4711  4719
 DEVMAX#       1 00000002 FFFFFFEC A   U    4662  4719
 DEVTYPE       1 00000001 FFFFFFEB     R    4679  4688   4698
 DISPASM       2 00005A5C 00000001     H   29757 21299
 DISPATCH      1 00000000 0000000C     T   12318 12318
 DISPCORE      2 000054EA 00000001     H   28522 21297  23038  28518
 DISPDATA      2 00005AE8 00000001     H   29961 33537
 DISPEXIT      2 000056C6 00000001     H   28991 28743B 28975B
 DISPINST      2 00005CA6 00000001     H   30541 33536
 DISPIRET      2 00006570 00000001     H   33467 31006B 31141B 31447B 31683B 31862B 32122B 32540B 33384B
 DISPPAIR      2 0000589C 00000001     H   29233 29703
 DISPREGS      2 00005824 00000001     H   29071 21310
 DMADDR        4 00000008 FFFFFFD8     F   29730 29830M 29849  29855  29871  29876M 29892  29897M
 DMEND         4 0000000C FFFFFFD8     F   29731 29832M 29849
 DMLEN         4 00000004 FFFFFFD8     F   29729 29833M
 DMSTART       4 00000000 FFFFFFD8     F   29728 29829M
 DMWA         16 00000000 FFFFFFD8     J   29738 29770  29802U 29934  29936  29937
 DOTMASK       2 00005724 00000001     H   29035 28807  28857  33548
 DOTTBL        1 00000000 00000000 A   T    2189  2189
 DRENCFLG      1 00000F9F FFFFFFEC     R    6117  6121   6126   6131   6136   6141
 DRENPROT      1 00000F9E FFFFFFEC     R    6104  6112
 DSNON        40 00000E90 FFFFFFEC     C    5837  5838
 DSNWADSN     44 00000E5C FFFFFFEC     C    5824  5825   5826   5827   5836   5844   6075   6081   6083   6089   6092
                                                  6094   6097   6146
 DSNWAF4       1 00000F37 FFFFFFEC     R    5892  5896   5901   5906   5911   5916   5921   5926   5931
 DSNWAF5       1 00000F38 FFFFFFEC     R    5937  5941   5946   5951   5956   5961   5966   5971   5976
 DSNWAF6       1 00000F39 FFFFFFEC     R    5982  5986   5991   5996   6001   6006   6011   6016   6021
 DSNWAF7       1 00000F3A FFFFFFEC     R    6027  6031   6036   6041   6046
 DSNXG         1 00000004 FFFFFFEC A   U    5829  5831
 DSNXGL        1 00000003 FFFFFFEC A   U    5830  5831
 DSNXU         1 00000007 FFFFFFEC A   U    5831  5833
 DSNXUL        1 00000004 FFFFFFEC A   U    5832  5833
 DSSIZ         1 00000108 FFFFFFEC A   U    6075  6083   6092   6097
 DTB           1 00000000 00000026     T   28440 28440
 EADREXIT      2 000052BA 00000001     H   27855 27297B 27373B 27419B 27461B 27516B 27575B 27634B 27732B 27835B
 EBCTBL        1 00000000 00000000 A   T    2185  2185
 EBCTBL7       1 00000000 00000000 A   T    2188  2188
 ECBLIST       1 00000000 00000000 A   T    2048  2048
1WBUG     (WBUG2025) (13:00) (15MAR04) Ordinary Symbol and Literal Cross Reference                                          Page  187
 EPARTBL       1 00000000 00000000 A   T    2180  2180
 EPIE         84 00000000 FFFFFFE1     J   10912  8270U  8346U  8413U  8418   8504U  8509   8678U 10166U 10804U 10920
 EPIECC        1 0000004A FFFFFFE1     U   10901 10180  10811M 10812  10816M
 EPIEIA        4 0000004C FFFFFFE1     U   10902  8275   8278M  8351M  8352M  8430   8442M  8542   8554M  8683  10177
                                                 10809M 10810M
 EPIEIC        2 00000052 FFFFFFE1     H   10904 10175
 EPIEILC       2 00000050 FFFFFFE1     H   10903  8276   8280M 10173
 EPIEPSW       4 00000048 FFFFFFE1     F   10900 10171  10901  10902
 EPIEREGS      4 00000008 FFFFFFE1     F   10899 10172  10817M
 ESYMEXIT      2 000050E2 00000001     H   27156 26794B 26871B 26891B 26919B 26943B 27003B 27023B 27069B 27115B 27143B
 EVAL#SYM      2 000052EA 00000001     H   27950 18459
 EVALADDR      2 000050F4 00000001     H   27208 28455  36923
 EVALDONE      2 00004F5A 00000001     H   26520 25745B 25764B 25783B 25802B 25856B
 EVALEXIT      2 00004F80 00000001     H   26544 26525B 26533B 26539B
 EVALLOOP      2 00004D32 00000001     H   25724 25942B 25969B 26163B 26247B 26338B 26444B 26511B
 EVALSYM       2 00004F92 00000001     H   26622 28446
 EVALTERM      2 00004DD2 00000001     H   25917 25718B
 EVALXPRN      2 00004C94 00000001     H   25555 18447  21290  23017  24136  25491
 EVOPR         1 00000004 FFFFFFDC     X   25536 25939  25941M 25966  25968M 26149  26162M 26233  26246M 26324  26337M
                                                 26430  26443M 26497  26510M 26521
 EVVALUE       4 00000000 FFFFFFDC     F   25535 25611M 26160  26161M 26244  26245M 26335  26336M 26441  26442M 26508
                                                 26509M 26523
 EVWA          5 00000000 FFFFFFDC     J   25543 25568  25600U 25610M 25610  26573  26575  26576
 EVWA2        16 00000000 FFFFFFDB     J   26610 26635  26667U 27185  27187  27188  27221  27253U 27927  27929  27930
                                                 27963  27995U 28213  28215  28216
 EV2ADDR       4 00000008 FFFFFFDB     F   26602 27257M 27791  27848  27888
 EV2OFF        4 0000000C FFFFFFDB     F   26603 27296M 27372M 27418M 27460M 27515M 27574M 27633M 27731M 27834M 27848M
                                                 27857
 EV2SYM        8 00000000 FFFFFFDB     C   26601 26671M 26720M 26778  26827  26911  26935  26959  27043  27089  27135
                                                 27294M 27370M 27416M 27458M 27513M 27572M 27631M 27729M 27824M 27849M
                                                 27856  28005M 28139M 28147
 FREECORE      1 00000000 00000004     T   10940 10940
 FSR           0 00000000 00000001 A   #    1001  7104   7193M  7318   7727M  7754   7857M  7888   8085M  8639   8821M
                                                  8847   8964M  8991   9199M  9253   9359M  9396   9916M  9945  10096M
                                                 10123  10341M 10369  10427M 10453  10511M 10539  10625M 10653  10737M
                                                 10765  10879M 11000  11365M 11392  11535M 11562  11715M 11742  11875M
                                                 11902  12045M 12089  12194M 12220  12303M 12349  12959M 13011  13070M
                                                 13092M 13127  13502M 13533  13952M 13981  14104M 14503  14708M 14737
                                                 14990  15173M 15195  15253M 15273  15337M 15395  16313M 16368  16433M
                                                 16470  16809M 16846  17366M 17480  17865M 17895  18102M 18138  18245M
                                                 18272  18334M 18361  18419M 18533  18814M 18913  18964M 18993  19291M
                                                 19417  20085M 20181  20237M 20257  20402M 20439  20848M 20942  21271M
                                                 21383  21986M 22077  22131M 22159  22470M 22562  22936M 23094  23275M
                                                 23541  23593M 23613  23665M 23685  23737M 23757  23809M 23838  24115M
                                                 24177  24267M 24381  24437M 24460  24532M 25176  25399M 25565  26546M
                                                 26573M 26632  27158M 27185M 27218  27900M 27927M 27960  28186M 28213M
                                                 28270  28385M 28412M 28532  29018M 29080  29214M 29242  29683M 29767
                                                 29934M 29970  30496M 30518M 30550  33498M 33520M 33854  33981M 34013
                                                 34137M 34190  34337M 34426  34964M 35017  36166M 36194  36408M 36456
                                                 36673M 36722  36896M
 GETCORE       1 00000000 00000002     T   10935 10935
 GETRSC        1 00000000 0000000B     T   12317 12317
 GOTINST       2 00006D68 00000001     H   34922 34547B 34566B 34585B 34604B 34623B 34642B 34661B 34680B 34919B
 HEXFMT        1 00000000 0000001F     T   21307 21307
 HEXSTR        1 00000000 0000001E     T   21301 21301
 HIBAL         1 00000000 FFFFFFFF     J     691   707    720    733    746    759    772    785    798    811    824
                                                   837    850    863    876    889    902
 IBC           2 00000001 FFFFFFE5         6953 32555  33656
 IBCR          4 00000001 FFFFFFE5         6948 32137  33654
1WBUG     (WBUG2025) (13:00) (15MAR04) Ordinary Symbol and Literal Cross Reference                                          Page  188
 INAME         6 00000002 FFFFFFE5     C    6961 31037  31172  31478  31714  31893  33415
 INEXT         1 00000008 FFFFFFE5     U    6962 30960
 INSTTAB       2 000066EE 00000001     H   33622 30909
 INSTTYPE     16 00006B3E 00000001     X   34359 34270  36924
 INVALID       1 00000000 00000000 A   T    2175  2175
 IOPCD         1 00000000 FFFFFFE5     X    6916 30939  30954  30982
 IOTHER        1 00000001 FFFFFFE5         6958 33399  33666  33712  33762  33786  33802  33804  33814
 IRECORD       8 00000000 FFFFFFE5     J    6969 30919U
 IRR         128 00000001 FFFFFFE5         6923 31021  33624  33630  33634  33642  33646  33650  33652  33658  33668
                                                 33678  33688  33694  33698  33714  33720  33722  33728  33730  33738
                                                 33746  33752  33792  33798
 IRS          32 00000001 FFFFFFE5         6933 31462  33662  33664  33672  33674  33686  33710  33726  33784  33790
 IRX          64 00000001 FFFFFFE5         6928 31156  33626  33628  33632  33636  33644  33648  33660  33670  33676
                                                 33680  33690  33692  33696  33700  33706  33708  33716  33718  33724
                                                 33748  33750  33754  33764  33766  33768  33770  33772  33774  33776
                                                 33778  33780  33782  33788  33794  33796  33800
 ISI          16 00000001 FFFFFFE5         6938 31698  33640  33684  33704  33732  33736  33758  33806
 ISS           8 00000001 FFFFFFE5         6943 31877  33638  33682  33702  33734  33740  33742  33744  33756  33760
                                                 33808  33810  33812
 ITYPE         1 00000001 FFFFFFE5     R    6919  6923   6928   6933   6938   6943   6948   6953   6958
 JCB         208 00000000 FFFFFFE9     J    6578 12128U 12148M 12259U 12459U 13232U 13800U 14461  27595U 27658U 36233U
 JCBAFL        1 00000062 FFFFFFE9     R    6423  6427   6432   6437   6442   6447   6452   6457   6462
 JCBANO        2 0000004F FFFFFFE9     X    6343 36325  36359
 JCBAPDSP     16 00000062 FFFFFFE9         6442 12148M 12148
 JCBBFL        1 00000063 FFFFFFE9     R    6468  6472   6477   6482   6487   6492   6497   6502
 JCBBILLX      8 00000088 FFFFFFE9     D    6553  6561   6561
 JCBGRP        2 0000004D FFFFFFE9     C    6342 36248  36253
 JCBNEXT       4 000000D0 FFFFFFE9     F    6571 27601  27699
 JCBRSCF1      1 00000064 FFFFFFE9     R    6508  6512   6517   6522
 JCBSEQ        2 00000048 FFFFFFE9     H    6339 12640  12703  13283  13346  13432
 JCBSFLG1      1 00000065 FFFFFFE9     R    6528  6532   6537
 JCBUSER       3 0000004A FFFFFFE9     C    6341 36294  36299
 JCBWFERR      1 00000060 FFFFFFE9         6391 12139M 12269M 13815  13869
 JCBWFL        1 00000060 FFFFFFE9     R    6352  6356   6361   6366   6371   6376   6381   6386   6391   6419
 JCBWFSO     128 00000060 FFFFFFE9         6356 12612
 JCBWWFL       1 00000061 FFFFFFE9     R    6397  6401   6406   6411   6416
 LOCKP         2 0000097C 00000001     H   10360 10956
 LOWTBL        1 00000000 00000000 A   T    2183  2183
 LSR           8 00000008 00000001 A   #    1039  7104   7193M  7318   7727M  7754   7857M  7888   8085M  8639   8821M
                                                  8847   8964M  8991   9199M  9253   9359M  9396   9916M  9945  10096M
                                                 10123  10341M 10369  10427M 10453  10511M 10539  10625M 10653  10737M
                                                 10765  10879M 11000  11365M 11392  11535M 11562  11715M 11742  11875M
                                                 11902  12045M 12089  12194M 12220  12303M 12349  12959M 13011  13092M
                                                 13127  13502M 13533  13952M 13981  14104M 14503  14708M 14737  14990
                                                 15173M 15195  15253M 15273  15337M 15395  16313M 16368  16433M 16470
                                                 16809M 16846  17366M 17480  17865M 17895  18102M 18138  18245M 18272
                                                 18334M 18361  18419M 18533  18814M 18913  18964M 18993  19291M 19417
                                                 20085M 20181  20237M 20257  20402M 20439  20848M 20942  21271M 21383
                                                 21986M 22077  22131M 22159  22470M 22562  22936M 23094  23275M 23541
                                                 23593M 23613  23665M 23685  23737M 23757  23809M 23838  24115M 24177
                                                 24267M 24381  24437M 24460  24532M 25176  25399M 25565  26573M 26632
                                                 27185M 27218  27927M 27960  28213M 28270  28412M 28532  29018M 29080
                                                 29214M 29242  29683M 29767  29934M 29970  30518M 30550  33520M 33854
                                                 33981M 34013  34137M 34190  34337M 34426  34964M 35017  36166M 36194
                                                 36408M 36456  36673M 36722  36896M
 LTNPSH        1 00000000 00000017     T   17390 17390  18853  19315  20872  22010  22494  22960  25423
 MALL          1 00000000 0000000E     T   12995 12995  14424  14972  16351  17434  18897  19359  20165  20916  22054
                                                 22538  23004  23523  24362  25467
 MILERR        1 00000000 00000000 A   T    2174  2174
1WBUG     (WBUG2025) (13:00) (15MAR04) Ordinary Symbol and Literal Cross Reference                                          Page  189
 MINT          1 00000000 0000000D     T   12980 12980
 MNULL         1 00000000 00000023     T   24287 24287
 MPARM         1 00000000 0000001C     T   20105 20105
 MTOKEN        1 00000000 00000010     T   14124 14124  14139  14154  14169  14184  14199  14214  14229  14244  14259
                                                 14274  14289  14304  14319  14334  14349  14364  14379  14394  14409
                                                 14942  14957  16336  18837  20120  23298  23313  23328  23343  23358
                                                 23373  23388  23403  23418  23433  23448  23463  23478  23493  23508
                                                 24302  24317  24332  24347
 NBLTBL        1 00000000 00000000 A   T    2187  2187
 NOACTION      1 00000000 00000000 A   T    2177  2177
 NOEXPR        2 00004F6C 00000001     H   26530 25660B
 NOSYM         2 000052AE 00000001     H   27847 27817B
 NOTINST       2 00006D70 00000001     H   34932 34527B 34700B 34780B 34860B
 NOTVALID      1 00000000 00000011     T   14438 14438  18443  21288  23015  24135
 NPARTBL       1 00000000 00000000 A   T    2181  2181
 NSCAN         1 00000000 00000013     T   14444 14444  18445  21295  23025  24133  25481  28435
 NSCNCB      176 00000000 FFFFFFED     J    2446  2572  12530  12531  12532  12535M 12536M 12538M 12548M 12549M 12550M
                                                 14049  14050  14051  14054M 14055M 14057M 14067M 14068M 14069M 14881
                                                 14882  14899  14900  14901  14904M 14905M 14907M 14917M 14918M 14919M
                                                 15025M 15026M 15615  15616  15617  15620M 15621M 15623M 15633M 15634M
                                                 15635M 16913  16914  16915  16918M 16919M 16921M 16931M 16932M 16933M
                                                 18757  18758  18759  18762M 18763M 18765M 18775M 18776M 18777M 19234
                                                 19235  19236  19239M 19240M 19242M 19252M 19253M 19254M 19603  19604
                                                 19605  19608M 19609M 19610M 19620M 19621M 19622M 19748  19749  19750
                                                 19753M 19754M 19756M 19766M 19767M 19768M 20791  20792  20793  20796M
                                                 20797M 20799M 20809M 20810M 20811M 21660  21661  21662  21665M 21666M
                                                 21668M 21678M 21679M 21680M 22308  22309  22310  22313M 22314M 22316M
                                                 22326M 22327M 22328M 22686  22687  22688  22691M 22692M 22694M 22704M
                                                 22705M 22706M 23226  23227  23228  23231M 23232M 23234M 23244M 23245M
                                                 23246M 24218  24219  24220  24223M 24224M 24226M 24236M 24237M 24238M
                                                 25246  25247  25248  25251M 25252M 25254M 25264M 25265M 25266M 25623
                                                 25624  25625  25628M 25629M 25630M 25640M 25641M 25642M 25728  25729
                                                 25819  25820  25821  25824M 25825M 25826M 25836M 25837M 25838M 28002
                                                 28004  28016  28017  28018  28021M 28022M 28023M 28033M 28034M 28035M
                                                 28179  28460
 NSCNFLGS      1 00000008 FFFFFFED     R    2383  2387   2392
 NSCNKWS       4 00000028 FFFFFFED     A    2432 12530  12538M 12548M 14049  14057M 14067M 14899  14907M 14917M 15615
                                                 15623M 15633M 16913  16921M 16931M 18757  18765M 18775M 19234  19242M
                                                 19252M 19603  19610M 19620M 19748  19756M 19766M 20791  20799M 20809M
                                                 21660  21668M 21678M 22308  22316M 22326M 22686  22694M 22704M 23226
                                                 23234M 23244M 24218  24226M 24236M 25246  25254M 25264M 25623  25630M
                                                 25640M 25819  25826M 25836M 28016  28023M 28033M
 NSCNLEN       4 00000004 FFFFFFED     F    2380 14882  15026M 25729
 NSCNLOC       4 00000000 FFFFFFED     A    2379 14881  15025M 25728
 NSCNSKIP      4 00000024 FFFFFFED     A    2431 12531  12535M 12549M 14050  14054M 14068M 14900  14904M 14918M 15616
                                                 15620M 15634M 16914  16918M 16932M 18758  18762M 18776M 19235  19239M
                                                 19253M 19604  19608M 19621M 19749  19753M 19767M 20792  20796M 20810M
                                                 21661  21665M 21679M 22309  22313M 22327M 22687  22691M 22705M 23227
                                                 23231M 23245M 24219  24223M 24237M 25247  25251M 25265M 25624  25628M
                                                 25641M 25820  25824M 25837M 28017  28021M 28034M
 NSCNSTOP      4 00000020 FFFFFFED     A    2430 12532  12536M 12550M 14051  14055M 14069M 14901  14905M 14919M 15617
                                                 15621M 15635M 16915  16919M 16933M 18759  18763M 18777M 19236  19240M
                                                 19254M 19605  19609M 19622M 19750  19754M 19768M 20793  20797M 20811M
                                                 21662  21666M 21680M 22310  22314M 22328M 22688  22692M 22706M 23228
                                                 23232M 23246M 24220  24224M 24238M 25248  25252M 25266M 25625  25629M
                                                 25642M 25821  25825M 25838M 28018  28022M 28035M
 NSCNTYPE      1 00000018 FFFFFFED     R    2401  2405   2410   2415   2420   2425
 PAR           9 00000009 00000001 A   #    1052 10585  10593M 10593  21941
 PAUSEJCB      2 0000106C 00000001     H   12211 10937  14450  18441
1WBUG     (WBUG2025) (13:00) (15MAR04) Ordinary Symbol and Literal Cross Reference                                          Page  190
 PBR          10 0000000A 00000001 A   #    1065 10594  10602M 10602
 PCFLAG        1 00000000 FFFFFFDE     R   19373 19377
 PCSETSYS      2 00003274 00000001     H   20172 20121
 PCSYS       128 00000000 FFFFFFDE        19377 19976  20215M
 PCTEXT      235 00000004 FFFFFFDE     C   19381 19646  19662  20037  21304
 PCTLEN        2 00000002 FFFFFFDE     H   19380 19736M 19797  19853  20004
 PCVER         2 000032A0 00000001     H   20248 20106
 PCVLEN        2 000000F0 FFFFFFDE     H   19382 19857  19859  19894  20376M
 PCVTXT      235 000000F2 FFFFFFDE     C   19383 19927  20286  20302  21309
 PCWA        477 00000000 FFFFFFDE     J   19390 19420  19452U 19456  19464U 19499M 19499  19500M 19500  20085  20087
                                                 20088
 PGETNEW       1 00000000 00000020     T   23027 23027
 PJUNKA        1 00000000 00000022     T   23031 23031
 PLOCKA        1 00000000 00000007     T   10961 10961  23028
 PLOCKB        1 00000000 00000008     T   10962 10962
 PUNLOCKA      1 00000000 00000009     T   10963 10963  23030
 PUNLOCKB      1 00000000 0000000A     T   10964 10964
 QUIETPSH      1 00000000 00000018     T   17405 17405  18868  19330  20151  20887  22025  22509  22975  25438
 RAR          14 0000000E 00000001 A   #    1117  2112   2113M  2114B  2116M  2117B  2137M  2138B  2142M  2143B  2145M
                                                  2146B  2148M  2149B  2151M  2152B  2154M  2155M  2155B  2161   7101
                                                  7195M  7198B  7315   7522M  7523M  7523B  7677M  7678M  7678B  7683M
                                                  7684M  7684B  7729M  7732B  7751   7830M  7831M  7831B  7859M  7862B
                                                  7885   8020M  8021M  8021B  8026M  8027M  8027B  8059M  8060M  8060B
                                                  8087M  8090B  8193M  8194M  8194B  8212M  8213M  8213B  8246   8250M
                                                  8251M  8251B  8294M  8295M  8295B  8309M  8310M  8310B  8393M  8394M
                                                  8394B  8472M  8473M  8473B  8476M  8477B  8579B  8636   8823M  8826B
                                                  8844   8966M  8969B  8988   9201M  9204B  9250   9315M  9316M  9316B
                                                  9323M  9324M  9324B  9361M  9364B  9393   9430M  9431M  9431B  9454M
                                                  9455M  9455B  9528M  9529M  9529B  9580M  9581M  9581B  9626M  9627M
                                                  9627B  9833M  9834M  9834B  9837M  9838M  9838B  9854M  9855M  9855B
                                                  9859M  9860M  9860B  9876M  9877M  9877B  9880M  9881M  9881B  9884M
                                                  9885M  9885B  9888M  9889M  9889B  9918M  9921B  9942  10012M 10013M
                                                 10013B 10037M 10038M 10038B 10057M 10058M 10058B 10061M 10062M 10062B
                                                 10098M 10101B 10120  10343M 10346B 10366  10400M 10401M 10401B 10404M
                                                 10405M 10405B 10429M 10432B 10450  10484M 10485M 10485B 10488M 10489M
                                                 10489B 10513M 10516B 10536  10588M 10589M 10589B 10597M 10598M 10598B
                                                 10627M 10630B 10650  10739M 10742B 10762  10881M 10884B 10997  11262M
                                                 11263M 11263B 11283M 11284M 11284B 11304M 11305M 11305B 11325M 11326M
                                                 11326B 11367M 11370B 11389  11537M 11540B 11559  11717M 11720B 11739
                                                 11877M 11880B 11899  12047M 12050B 12086  12166M 12167M 12167B 12196M
                                                 12199B 12217  12305M 12308B 12346  12396M 12397M 12397B 12433M 12434M
                                                 12434B 12441M 12442M 12442B 12492M 12493M 12493B 12510M 12511M 12511B
                                                 12541M 12542M 12542B 12555M 12556M 12556B 12634M 12635M 12635B 12655M
                                                 12656M 12656B 12673M 12674M 12674B 12697M 12698M 12698B 12718M 12719M
                                                 12719B 12736M 12737M 12737B 12741M 12742M 12742B 12746M 12747M 12747B
                                                 12771M 12772M 12772B 12791M 12792M 12792B 12872M 12873M 12873B 12892M
                                                 12893M 12893B 12927M 12928M 12928B 12931M 12932M 12932B 12961M 12964B
                                                 13008  13063M 13064M 13064B 13094M 13097B 13124  13174M 13175M 13175B
                                                 13215M 13216M 13216B 13259M 13260M 13260B 13277M 13278M 13278B 13298M
                                                 13299M 13299B 13316M 13317M 13317B 13322M 13323M 13323B 13340M 13341M
                                                 13341B 13361M 13362M 13362B 13379M 13380M 13380B 13408M 13409M 13409B
                                                 13426M 13427M 13427B 13447M 13448M 13448B 13465M 13466M 13466B 13504M
                                                 13507B 13530  13580M 13581M 13581B 13646M 13647M 13647B 13658M 13659M
                                                 13659B 13676M 13677M 13677B 13703M 13704M 13704B 13728M 13729M 13729B
                                                 13750M 13751M 13751B 13823M 13824M 13824B 13834M 13835M 13835B 13852M
                                                 13853M 13853B 13877M 13878M 13878B 13889M 13890M 13890B 13907M 13908M
                                                 13908B 13954M 13957B 13978  14028M 14029M 14029B 14060M 14061M 14061B
                                                 14074M 14075M 14075B 14106M 14109B 14500  14631M 14632M 14632B 14636M
                                                 14637M 14637B 14676M 14677M 14677B 14710M 14713B 14734  14784M 14785M
1WBUG     (WBUG2025) (13:00) (15MAR04) Ordinary Symbol and Literal Cross Reference                                          Page  191
                                                 14785B 14910M 14911M 14911B 14924M 14925M 14925B 14987  15033M 15034M
                                                 15034B 15094M 15095M 15095B 15120M 15121M 15121B 15148M 15149M 15149B
                                                 15175M 15178B 15192  15228M 15229M 15229B 15255M 15258B 15270  15312M
                                                 15313M 15313B 15339M 15342B 15392  15476M 15477M 15477B 15494M 15495M
                                                 15495B 15502M 15503M 15503B 15513M 15514M 15514B 15529M 15530M 15530B
                                                 15541M 15542M 15542B 15626M 15627M 15627B 15640M 15641M 15641B 15821M
                                                 15822M 15822B 15862M 15863M 15863B 16052M 16053M 16053B 16074M 16075M
                                                 16075B 16092M 16093M 16093B 16116M 16117M 16117B 16150M 16151M 16151B
                                                 16174M 16175M 16175B 16212M 16213M 16213B 16236M 16237M 16237B 16258M
                                                 16259M 16259B 16273M 16274M 16274B 16315M 16318B 16365  16435M 16438B
                                                 16467  16689M 16690M 16690B 16711M 16712M 16712B 16729M 16730M 16730B
                                                 16759M 16760M 16760B 16777M 16778M 16778B 16811M 16814B 16843  16893M
                                                 16894M 16894B 16924M 16925M 16925B 16938M 16939M 16939B 16972M 16973M
                                                 16973B 17049M 17050M 17050B 17084M 17085M 17085B 17110M 17111M 17111B
                                                 17128M 17129M 17129B 17170M 17171M 17171B 17203M 17204M 17204B 17225M
                                                 17226M 17226B 17248M 17249M 17249B 17293M 17294M 17294B 17322M 17323M
                                                 17323B 17368M 17371B 17477  17536M 17537M 17537B 17552M 17553M 17553B
                                                 17562M 17563M 17563B 17712M 17713M 17713B 17836M 17837M 17837B 17867M
                                                 17870B 17892  18104M 18107B 18135  18185M 18186M 18186B 18197M 18198M
                                                 18198B 18216M 18217M 18217B 18247M 18250B 18269  18303M 18304M 18304B
                                                 18311M 18312M 18312B 18336M 18339B 18358  18392M 18393M 18393B 18421M
                                                 18424B 18530  18580M 18581M 18581B 18592M 18593M 18593B 18655M 18656M
                                                 18656B 18732M 18733M 18733B 18768M 18769M 18769B 18782M 18783M 18783B
                                                 18790M 18791M 18791B 18816M 18819B 18910  18966M 18969B 18990  19040M
                                                 19041M 19041B 19052M 19053M 19053B 19114M 19115M 19115B 19191M 19192M
                                                 19192B 19245M 19246M 19246B 19259M 19260M 19260B 19267M 19268M 19268B
                                                 19293M 19296B 19414  19484M 19485M 19485B 19504M 19505M 19505B 19585M
                                                 19586M 19586B 19613M 19614M 19614B 19627M 19628M 19628B 19649M 19650M
                                                 19650B 19665M 19666M 19666B 19700M 19701M 19701B 19759M 19760M 19760B
                                                 19773M 19774M 19774B 19789M 19790M 19790B 19800M 19801M 19801B 19841M
                                                 19842M 19842B 19882M 19883M 19883B 19988M 19989M 19989B 20087M 20090B
                                                 20178  20239M 20242B 20254  20289M 20290M 20290B 20305M 20306M 20306B
                                                 20340M 20341M 20341B 20404M 20407B 20436  20486M 20487M 20487B 20579M
                                                 20580M 20580B 20602M 20603M 20603B 20682M 20683M 20683B 20802M 20803M
                                                 20803B 20816M 20817M 20817B 20824M 20825M 20825B 20850M 20853B 20939
                                                 20989M 20990M 20990B 21083M 21084M 21084B 21186M 21187M 21187B 21273M
                                                 21276B 21380  21442M 21443M 21443B 21454M 21455M 21455B 21481M 21482M
                                                 21482B 21557M 21558M 21558B 21671M 21672M 21672B 21685M 21686M 21686B
                                                 21692M 21693M 21693B 21697M 21698M 21698B 21702M 21703M 21703B 21721M
                                                 21722M 21722B 21727M 21728M 21728B 21748M 21749M 21749B 21799M 21800M
                                                 21800B 21821M 21822M 21822B 21874M 21875M 21875B 21907M 21908M 21908B
                                                 21912M 21913M 21913B 21930M 21931M 21931B 21947M 21948M 21948B 21951M
                                                 21952M 21952B 21957M 21958M 21958B 21988M 21991B 22074  22108M 22109M
                                                 22109B 22133M 22136B 22156  22206M 22207M 22207B 22319M 22320M 22320B
                                                 22333M 22334M 22334B 22352M 22353M 22353B 22377M 22378M 22378B 22395M
                                                 22396M 22396B 22422M 22423M 22423B 22440M 22441M 22441B 22445M 22446M
                                                 22446B 22472M 22475B 22559  22697M 22698M 22698B 22711M 22712M 22712B
                                                 22730M 22731M 22731B 22752M 22753M 22753B 22788M 22789M 22789B 22828M
                                                 22829M 22829B 22868M 22869M 22869B 22908M 22909M 22909B 22938M 22941B
                                                 23091  23237M 23238M 23238B 23251M 23252M 23252B 23277M 23280B 23538
                                                 23595M 23598B 23610  23667M 23670B 23682  23739M 23742B 23754  23811M
                                                 23814B 23835  23885M 23886M 23886B 23979M 23980M 23980B 24040M 24041M
                                                 24041B 24066M 24067M 24067B 24117M 24120B 24174  24229M 24230M 24230B
                                                 24243M 24244M 24244B 24269M 24272B 24378  24439M 24442B 24457  24498M
                                                 24499M 24499B 24509M 24510M 24510B 24534M 24537B 24871M 24872M 24872B
                                                 24905M 24906M 24906B 24998M 24999M 24999B 25094M 25095M 25095B 25128M
                                                 25129M 25129B 25153B 25173  25210M 25211M 25211B 25257M 25258M 25258B
                                                 25271M 25272M 25272B 25294M 25295M 25295B 25312M 25313M 25313B 25348M
                                                 25349M 25349B 25370M 25371M 25371B 25375M 25376M 25376B 25401M 25404B
1WBUG     (WBUG2025) (13:00) (15MAR04) Ordinary Symbol and Literal Cross Reference                                          Page  192
                                                 25562  25633M 25634M 25634B 25647M 25648M 25648B 25712M 25713M 25713B
                                                 25829M 25830M 25830B 25843M 25844M 25844B 25908M 25909M 25909B 26033M
                                                 26034M 26034B 26053M 26054M 26054B 26293M 26294M 26294B 26399M 26400M
                                                 26400B 26483M 26484M 26484B 26575M 26578B 26629  27187M 27190B 27215
                                                 27929M 27932B 27957  28026M 28027M 28027B 28040M 28041M 28041B 28057M
                                                 28058M 28058B 28215M 28218B 28267  28312M 28313M 28313B 28414M 28417B
                                                 28529  28677M 28678M 28678B 28712M 28713M 28713B 28741M 28742M 28742B
                                                 28753M 28754M 28754B 28760M 28761M 28761B 28767M 28768M 28768B 28774M
                                                 28775M 28775B 28781M 28782M 28782B 28835M 28836M 28836B 28930M 28931M
                                                 28931B 28972M 28973M 28973B 29020M 29023B 29077  29152M 29153M 29153B
                                                 29185M 29186M 29186B 29216M 29219B 29239  29328M 29329M 29329B 29367M
                                                 29368M 29368B 29389M 29390M 29390B 29411M 29412M 29412B 29429M 29430M
                                                 29430B 29457M 29458M 29458B 29475M 29476M 29476B 29480M 29481M 29481B
                                                 29486M 29487M 29487B 29522M 29523M 29523B 29544M 29545M 29545B 29566M
                                                 29567M 29567B 29584M 29585M 29585B 29612M 29613M 29613B 29630M 29631M
                                                 29631B 29635M 29636M 29636B 29660M 29661M 29661B 29685M 29688B 29764
                                                 29858M 29859M 29859B 29874M 29875M 29875B 29895M 29896M 29896B 29936M
                                                 29939B 29967  30003M 30004M 30004B 30083M 30084M 30084B 30125M 30126M
                                                 30126B 30170M 30171M 30171B 30175M 30176M 30176B 30181M 30182M 30182B
                                                 30205M 30206M 30206B 30246M 30247M 30247B 30268M 30269M 30269B 30309M
                                                 30310M 30310B 30354M 30355M 30355B 30364M 30365M 30365B 30382M 30383M
                                                 30383B 30388M 30389M 30389B 30406M 30407M 30407B 30440M 30441M 30441B
                                                 30460M 30461M 30461B 30485M 30486M 30486B 30520M 30523B 30547  30630M
                                                 30631M 30631B 30711M 30712M 30712B 30734M 30735M 30735B 30739M 30740M
                                                 30740B 30745M 30746M 30746B 30769M 30770M 30770B 30804M 30805M 30805B
                                                 30828M 30829M 30829B 30867M 30868M 30868B 30891M 30892M 30892B 30902M
                                                 30903M 30903B 31004M 31005M 31005B 31055M 31056M 31056B 31073M 31074M
                                                 31074B 31097M 31098M 31098B 31115M 31116M 31116B 31139M 31140M 31140B
                                                 31190M 31191M 31191B 31208M 31209M 31209B 31232M 31233M 31233B 31250M
                                                 31251M 31251B 31273M 31274M 31274B 31304M 31305M 31305B 31342M 31343M
                                                 31343B 31373M 31374M 31374B 31419M 31420M 31420B 31441M 31442M 31442B
                                                 31496M 31497M 31497B 31514M 31515M 31515B 31538M 31539M 31539B 31556M
                                                 31557M 31557B 31580M 31581M 31581B 31598M 31599M 31599B 31621M 31622M
                                                 31622B 31639M 31640M 31640B 31663M 31664M 31664B 31681M 31682M 31682B
                                                 31732M 31733M 31733B 31755M 31756M 31756B 31773M 31774M 31774B 31797M
                                                 31798M 31798B 31815M 31816M 31816B 31842M 31843M 31843B 31860M 31861M
                                                 31861B 31911M 31912M 31912B 31934M 31935M 31935B 31952M 31953M 31953B
                                                 31977M 31978M 31978B 31995M 31996M 31996B 32019M 32020M 32020B 32037M
                                                 32038M 32038B 32060M 32061M 32061B 32078M 32079M 32079B 32102M 32103M
                                                 32103B 32120M 32121M 32121B 32180M 32181M 32181B 32219M 32220M 32220B
                                                 32258M 32259M 32259B 32297M 32298M 32298B 32336M 32337M 32337B 32375M
                                                 32376M 32376B 32414M 32415M 32415B 32453M 32454M 32454B 32492M 32493M
                                                 32493B 32514M 32515M 32515B 32538M 32539M 32539B 32598M 32599M 32599B
                                                 32637M 32638M 32638B 32676M 32677M 32677B 32715M 32716M 32716B 32754M
                                                 32755M 32755B 32793M 32794M 32794B 32832M 32833M 32833B 32871M 32872M
                                                 32872B 32910M 32911M 32911B 32949M 32950M 32950B 32988M 32989M 32989B
                                                 33027M 33028M 33028B 33066M 33067M 33067B 33105M 33106M 33106B 33144M
                                                 33145M 33145B 33183M 33184M 33184B 33210M 33211M 33211B 33241M 33242M
                                                 33242B 33279M 33280M 33280B 33310M 33311M 33311B 33356M 33357M 33357B
                                                 33378M 33379M 33379B 33433M 33434M 33434B 33451M 33452M 33452B 33491M
                                                 33492M 33492B 33522M 33525B 33851  33983M 33986B 34010  34139M 34142B
                                                 34187  34233M 34234M 34234B 34290M 34291M 34291B 34339M 34342B 34423
                                                 34469M 34470M 34470B 34966M 34969B 35014  35112M 35113M 35113B 35150M
                                                 35151M 35151B 35175M 35176M 35176B 35193M 35194M 35194B 35198M 35199M
                                                 35199B 35216M 35217M 35217B 35221M 35222M 35222B 35260M 35261M 35261B
                                                 35265M 35266M 35266B 35283M 35284M 35284B 35288M 35289M 35289B 35362M
                                                 35363M 35363B 35392M 35393M 35393B 35425M 35426M 35426B 35462M 35463M
                                                 35463B 35499M 35500M 35500B 35599M 35600M 35600B 35635M 35636M 35636B
                                                 35644M 35645M 35645B 35662M 35663M 35663B 35667M 35668M 35668B 35685M
1WBUG     (WBUG2025) (13:00) (15MAR04) Ordinary Symbol and Literal Cross Reference                                          Page  193
                                                 35686M 35686B 35715M 35716M 35716B 35733M 35734M 35734B 35825M 35826M
                                                 35826B 35861M 35862M 35862B 35870M 35871M 35871B 35888M 35889M 35889B
                                                 35893M 35894M 35894B 35911M 35912M 35912B 35941M 35942M 35942B 35959M
                                                 35960M 35960B 35998M 35999M 35999B 36003M 36004M 36004B 36021M 36022M
                                                 36022B 36026M 36027M 36027B 36044M 36045M 36045B 36074M 36075M 36075B
                                                 36092M 36093M 36093B 36138M 36139M 36139B 36168M 36171B 36191  36264M
                                                 36265M 36265B 36282M 36283M 36283B 36310M 36311M 36311B 36347M 36348M
                                                 36348B 36375M 36376M 36376B 36410M 36413B 36453  36497M 36498M 36498B
                                                 36543M 36544M 36544B 36575M 36576M 36576B 36597M 36598M 36598B 36641M
                                                 36642M 36642B 36675M 36678B 36719  36763M 36764M 36764B 36806M 36807M
                                                 36807B 36838M 36839M 36839B 36860M 36861M 36861B 36898M 36901B
 READDR        4 00000000 FFFFFFDA     F   28239 28309M 28377
 RELOC         2 000053D2 00000001     H   28260 21293
 RELOEXIT      2 0000542A 00000001     H   28383 28345B 28368B
 REOFF         4 0000000C FFFFFFDA     F   28241 28326M
 RESTOREP      2 00000A58 00000001     H   10644 10958
 RESYM         8 00000004 FFFFFFDA     C   28240 28325M 28338  28361
 RETTC         1 0000000C FFFFFFE7 A   U    6816  9807   9813  24501  35291
 REWA         16 00000000 FFFFFFDA     J   28248 28273  28305U 28412  28414  28415
 R0            0 00000000 FFFFFFFF A   #     699  2097   2166M  7516   7519M  7552M  7553M  7554M  8009M  8048M  8048
                                                  8141   8220M  8255   8276M  8277   8279M  8279   8280   8458   8489
                                                  8574   8604   8922M  8923   9085M  9086   9098   9150M  9151   9319M
                                                  9320  10043  12162M 12273  12422M 12438M 12481M 12499M 12526M 12526
                                                 12535  12536  12597M 12623M 12644M 12644  12662M 12686M 12707M 12707
                                                 12725M 12743M 12743  12760M 13040M 13042  13204M 13266M 13287M 13287
                                                 13305M 13329M 13350M 13350  13368M 13415M 13436M 13436  13454M 13610M
                                                 13648M 13654M 13665M 13739M 13841M 13879M 13885M 13896M 14045M 14045
                                                 14054  14055  14081M 14558M 14587M 14613M 14814M 14843M 14869M 14882M
                                                 14888  14895M 14895  14904  14905  15020M 15026  15058M 15086M 15112M
                                                 15138M 15305M 15306  15465M 15483M 15499M 15566M 15594M 15611M 15611
                                                 15620  15621  15736M 15810M 15839M 15880M 15904M 15927M 15970M 16041M
                                                 16063M 16063  16081M 16105M 16139M 16163M 16201M 16225M 16247M 16508
                                                 16582M 16654M 16678M 16700M 16700  16718M 16748M 16766M 16909M 16909
                                                 16918  16919  16961M 17038M 17073M 17099M 17099  17117M 17159M 17192M
                                                 17214M 17282M 17311M 17311  17586M 17614M 17677M 17678  17709M 17788M
                                                 17795M 17796  17825M 17933  18005M 18030M 18031  18616M 18644M 18702M
                                                 18753M 18753  18762  18763  18786M 19076M 19104M 19161M 19213M 19230M
                                                 19230  19239  19240  19263M 19529M 19557M 19599M 19599  19608  19609
                                                 19610  19637M 19637  19707M 19719  19731M 19736  19744M 19744  19753
                                                 19754  19797M 19818M 19830M 19853M 19857  19859M 19862  19874M 19956M
                                                 19985M 20057M 20347M 20359  20371M 20376  20515M 20544M 20570M 20598M
                                                 20631M 20672M 20728M 20769M 20776M 20779  20780  20780  20780  20787M
                                                 20787  20796  20797  20820M 21019M 21048M 21074M 21107M 21135M 21176M
                                                 21210M 21238M 21319  21319  21319  21472M 21549M 21644M 21656M 21656
                                                 21665  21666  21694  21699M 21737M 21788M 21810M 21810  21863M 21896M
                                                 21919M 21943M 22236M 22265M 22291M 22304M 22304  22313  22314  22341M
                                                 22366M 22384M 22411M 22429M 22614M 22643M 22669M 22682M 22682  22691
                                                 22692  22719M 22741M 22741  22777M 22817M 22857M 22897M 23147M 23176M
                                                 23202M 23222M 23222  23231  23232  23915M 23944M 23970M 24004M 24032M
                                                 24058M 24084M 24214M 24214  24223  24224  24567  24783M 24953M 24954
                                                 24963M 24975  25152M 25228M 25242M 25242  25251  25252  25283M 25283
                                                 25301M 25337M 25337  25359M 25619M 25619  25628  25629  25630  25657M
                                                 25657  25729M 25742M 25742  25815M 25815  25824  25825  25826  25853M
                                                 25853  26012M 26067M 26067  26197  26282  26303M 26303  26388  26409M
                                                 26409  26546  26546M 26685  26699  26708  27158  27158M 27856M 27900
                                                 27900M 28012M 28012  28021  28022  28023  28070M 28070  28105  28119
                                                 28126  28127B 28147M 28186  28186M 28325  28385  28385M 28585  28597
                                                 28604M 28609M 28610  28666M 28666  28709M 28730M 28750M 28757M 28764M
                                                 28771M 28778M 28832M 28927M 28961M 29109  29317M 29317  29356M 29378M
1WBUG     (WBUG2025) (13:00) (15MAR04) Ordinary Symbol and Literal Cross Reference                                          Page  194
                                                 29400M 29400  29418M 29446M 29464M 29482M 29511M 29533M 29555M 29555
                                                 29573M 29601M 29619M 29649M 29649  29817M 29817  29824M 29831  29833
                                                 30000M 30021M 30072M 30072  30093M 30116  30159M 30177M 30194M 30235M
                                                 30257M 30298M 30343M 30360M 30371M 30384M 30395M 30429M 30449M 30474M
                                                 30474  30496  30496M 30627M 30648M 30700M 30700  30723M 30741M 30758M
                                                 30793M 30817M 30856M 30880M 30898M 30993M 31044M 31062M 31086M 31086
                                                 31104M 31128M 31128  31179M 31197M 31221M 31221  31239M 31262M 31262
                                                 31293M 31331M 31331  31362M 31408M 31408  31430M 31485M 31503M 31527M
                                                 31527  31545M 31569M 31569  31587M 31610M 31610  31628M 31652M 31652
                                                 31670M 31721M 31744M 31744  31762M 31786M 31786  31804M 31831M 31849M
                                                 31900M 31923M 31923  31941M 31966M 31966  31984M 32008M 32008  32026M
                                                 32049M 32049  32067M 32091M 32091  32109M 32169M 32208M 32247M 32286M
                                                 32325M 32364M 32403M 32442M 32481M 32503M 32527M 32527  32587M 32626M
                                                 32665M 32704M 32743M 32782M 32821M 32860M 32899M 32938M 32977M 33016M
                                                 33055M 33094M 33133M 33172M 33199M 33199  33230M 33268M 33268  33299M
                                                 33345M 33345  33367M 33422M 33440M 33480M 33480  33498  33498M 33883
                                                 34042  34230M 34292  34466M 34487M 34706M 34706  34757M 34777M 34777
                                                 34786M 34786  34837M 34857M 34857  35101M 35139M 35164M 35182M 35205M
                                                 35249M 35272M 35351M 35381M 35414M 35451M 35488M 35588M 35624M 35651M
                                                 35674M 35704M 35722M 35814M 35850M 35877M 35900M 35930M 35948M 35987M
                                                 36010M 36033M 36063M 36081M 36127M 36127  36253M 36271M 36299M 36336M
                                                 36364M 36364  36499  36532M 36564M 36586M 36586  36630M 36776  36795M
                                                 36827M 36849M 36849
 R1            1 00000001 FFFFFFFF A   #     712  2160M  2161M  2167M  7517   7524   7674M  7680M  7827M  8004M  8023M
                                                  8142   8270U  8346U  8403M  8413U  8504U  8600M  8668M  8678U  8683M
                                                  8684M  8684   8735   8907M  8916M  8916   8923   9070M  9079M  9079
                                                  9085   9135M  9144M  9144   9151   9318M  9319   9538M  9552   9566
                                                  9621M  9622M  9623   9649M  9650   9678   9787M  9801   9851M  9856M
                                                 10007M 10008M 10009  10039M 10156M 10166U 10211M 10242  10313M 10314
                                                 10315M 10315  10316  10794M 10804U 10827M 10828  11065M 11077  11086M
                                                 11115  11149M 11163M 11181M 11186  11193M 11195  11212M 11213  11225M
                                                 11226M 11227  11229  11242M 11243  11456M 11457M 11458  11478M 11479M
                                                 11479  11480  11488M 11489M 11492M 11495M 11499M 11504  11645M 11645
                                                 11646M 11647M 11648M 11649  11668M 11669M 11672M 11675M 11679M 11684
                                                 11806M 11807M 11808  11828M 11829M 11829  11830  11838M 11839M 11844
                                                 11985M 11985  11986M 11987M 11988M 11989  12008M 12009M 12014  12118
                                                 12156M 12249  12421M 12437M 12480M 12498M 12522M 12535  12536  12538
                                                 12596M 12622M 12640M 12661M 12685M 12703M 12724M 12738M 12759M 12787M
                                                 12788  12889M 13203M 13256M 13265M 13283M 13304M 13319M 13328M 13346M
                                                 13367M 13405M 13414M 13432M 13453M 13609M 13649M 13655M 13664M 13711M
                                                 13720M 13720  13738M 13831M 13840M 13880M 13886M 13895M 14041M 14054
                                                 14055  14057  14080M 14557M 14586M 14612M 14628M 14633M 14813M 14842M
                                                 14868M 14881M 14887  14891M 14904  14905  14907  15019M 15025  15057M
                                                 15085M 15111M 15137M 15145  15224M 15225  15304M 15307  15308M 15309
                                                 15464M 15482M 15498M 15565M 15593M 15602  15607M 15620  15621  15623
                                                 15644M 15670M 15670  15704  15735M 15809M 15838M 15879M 15887  15903M
                                                 15910  15926M 15943  15959  15969M 16034  16040M 16059M 16080M 16098M
                                                 16138M 16156M 16200M 16218M 16246M 16260M 16264  16581M 16653M 16677M
                                                 16696M 16717M 16741M 16765M 16905M 16918  16919  16921  16960M 17037M
                                                 17072M 17095M 17116M 17152M 17191M 17213M 17245M 17275M 17585M 17613M
                                                 17634  17648  17655M 17656M 17657  17676M 17678  17756  17787M 17794M
                                                 17796  17824M 18004M 18029M 18031  18615M 18643M 18650  18651  18675M
                                                 18701M 18708  18729M 18734  18749M 18762  18763  18765  18785M 19075M
                                                 19103M 19110  19134M 19160M 19167  19188M 19202  19212M 19226M 19239
                                                 19240  19242  19262M 19506  19528M 19556M 19587  19595M 19608  19609
                                                 19610  19706M 19740M 19753  19754  19756  19796M 19817M 19829M 19849M
                                                 19955M 19984M 20056M 20346M 20514M 20543M 20569M 20599M 20630M 20647M
                                                 20647  20661  20671M 20678  20701M 20727M 20744M 20744  20758  20768M
                                                 20779  20780  20780  20780  20783M 20796  20797  20799  20820M 21018M
1WBUG     (WBUG2025) (13:00) (15MAR04) Ordinary Symbol and Literal Cross Reference                                          Page  195
                                                 21047M 21073M 21106M 21134M 21151M 21151  21165  21175M 21182  21209M
                                                 21237M 21247  21319  21319  21319  21471M 21478  21500  21548M 21578
                                                 21590M 21595  21643M 21652M 21665  21666  21668  21704  21736M 21787M
                                                 21806M 21862M 21895M 21909M 21918M 21941M 21942M 22235M 22264M 22290M
                                                 22300M 22313  22314  22316  22340M 22359M 22383M 22397M 22398M 22399M
                                                 22428M 22442M 22613M 22642M 22668M 22678M 22691  22692  22694  22718M
                                                 22737M 22776M 22816M 22856M 22896M 23146M 23175M 23201M 23218M 23231
                                                 23232  23234  23570M 23571  23642M 23643  23714M 23715  23786M 23787
                                                 23914M 23943M 23969M 24003M 24031M 24057M 24083M 24091  24210M 24223
                                                 24224  24226  24555M 24564U 24566M 24567  24674M 24688  24702  24729M
                                                 24774M 24775M 24783  24873  24907  24950  24952M 24954  24957M 25000
                                                 25096  25130  25227M 25234  25238M 25251  25252  25254  25279M 25300M
                                                 25333M 25358M 25372M 25615M 25628  25629  25630  25728M 25811M 25824
                                                 25825  25826  26011M 26011  26113M 26115  26133M 26133  26155M 26155
                                                 26160M 26161  26221M 26239M 26239  26244M 26245  26312M 26330M 26330
                                                 26335M 26336  26418M 26436M 26436  26441M 26442  26503M 26503  26508M
                                                 26509  26523M 26531M 26531  26537M 26537  26546  26720  26790M 26792M
                                                 26792  26869M 26889M 26917M 26941M 27001M 27021M 27067M 27113M 27141M
                                                 27152M 27152  27158  27257  27258M 27258  27276  27288  27295M 27296
                                                 27352  27364  27371M 27372  27396  27410  27417M 27418  27438  27452
                                                 27459M 27460  27495  27507  27514M 27515  27554  27566  27573M 27574
                                                 27613  27625  27632M 27633  27711  27723  27730M 27731  27833M 27834
                                                 27857M 27868M 27868  27882  27888M 27900  28008M 28021  28022  28023
                                                 28125M 28125  28139  28186  28309  28326  28344M 28367M 28377M 28385
                                                 28581M 28581  28583  28609  28615M 28616M 28617  28708M 28729M 28749M
                                                 28756M 28763M 28770M 28777M 28801M 28831M 28926M 28954M 29110  29149M
                                                 29182M 29271  29355M 29377M 29396M 29417M 29439M 29463M 29477M 29510M
                                                 29532M 29551M 29572M 29594M 29618M 29632M 29806M 29806  29807M 29808M
                                                 29829  29830  29831M 29832  29855M 29871M 29876  29892M 29897  29999
                                                 30020M 30092M 30093  30094M 30116  30122M 30122  30132M 30133  30158M
                                                 30172M 30187M 30228M 30256M 30291M 30336M 30370M 30394M 30409M 30411
                                                 30413  30424M 30424  30448M 30493M 30494M 30496  30579  30626M 30647M
                                                 30722M 30736M 30751M 30792M 30810M 30855M 30873M 30992M 31037M 31061M
                                                 31075M 31076M 31077M 31103M 31117M 31118M 31119M 31172M 31196M 31210M
                                                 31211M 31212M 31238M 31252M 31253M 31275M 31276M 31292M 31306M 31307M
                                                 31308M 31317M 31317  31344M 31345M 31361M 31383M 31384M 31385M 31394M
                                                 31394  31429M 31478M 31502M 31516M 31517M 31518M 31544M 31558M 31559M
                                                 31560M 31586M 31600M 31601M 31627M 31641M 31642M 31643M 31669M 31714M
                                                 31734M 31735M 31761M 31775M 31776M 31777M 31803M 31817M 31818M 31819M
                                                 31848M 31893M 31913M 31914M 31940M 31954M 31955M 31956M 31957M 31957
                                                 31983M 31997M 31998M 31999M 32025M 32039M 32040M 32066M 32080M 32081M
                                                 32082M 32108M 32143M 32144M 32145M 32146  32168M 32207M 32246M 32285M
                                                 32324M 32363M 32402M 32441M 32480M 32502M 32516M 32517M 32518M 32561M
                                                 32562M 32563M 32564  32586M 32625M 32664M 32703M 32742M 32781M 32820M
                                                 32859M 32898M 32937M 32976M 33015M 33054M 33093M 33132M 33171M 33189M
                                                 33190M 33212M 33213M 33229M 33243M 33244M 33245M 33254M 33254  33281M
                                                 33282M 33298M 33320M 33321M 33322M 33331M 33331  33366M 33415M 33439M
                                                 33495M 33496M 33498  33935  33935  34091  34091  34249  34269  34486M
                                                 34514  34707  34787  34912M 34912  35100M 35138M 35157M 35181M 35195M
                                                 35204M 35218M 35248M 35262M 35271M 35285M 35292M 35319  35350M 35374M
                                                 35413M 35450M 35487M 35587M 35623M 35641M 35650M 35664M 35673M 35697M
                                                 35721M 35813M 35849M 35867M 35876M 35890M 35899M 35923M 35947M 35986M
                                                 36000M 36009M 36023M 36032M 36056M 36080M 36223  36248M 36270M 36294M
                                                 36335M 36359M 36500  36525M 36563M 36582M 36623M 36777  36788M 36826M
                                                 36845M
 R12          12 0000000C FFFFFFFF A   #     855  2123
 R13          13 0000000D FFFFFFFF A   #     868  8242M  8243M  9538  12530  12531  12532  12548  12549  12550  14049
                                                 14050  14051  14067  14068  14069  14899  14900  14901  14917  14918
                                                 14919  15615  15616  15617  15633  15634  15635  16913  16914  16915
1WBUG     (WBUG2025) (13:00) (15MAR04) Ordinary Symbol and Literal Cross Reference                                          Page  196
                                                 16931  16932  16933  18757  18758  18759  18775  18776  18777  19234
                                                 19235  19236  19252  19253  19254  19603  19604  19605  19620  19621
                                                 19622  19748  19749  19750  19766  19767  19768  20791  20792  20793
                                                 20809  20810  20811  21660  21661  21662  21678  21679  21680  22308
                                                 22309  22310  22326  22327  22328  22686  22687  22688  22704  22705
                                                 22706  23226  23227  23228  23244  23245  23246  24218  24219  24220
                                                 24236  24237  24238  24593M 24594M 24674  25246  25247  25248  25264
                                                 25265  25266  25623  25624  25625  25640  25641  25642  25819  25820
                                                 25821  25836  25837  25838  28002  28016  28017  28018  28033  28034
                                                 28035
 R14          14 0000000E FFFFFFFF A   #     881  2098M  7540M  7545M  7553   7554M  8222B  8256M  8459M  8490M  8575M
                                                  8605M 10044M 12272M 12529M 12530  12531  12532  12537M 12538  12545M
                                                 12548  12549  12550  14048M 14049  14050  14051  14056M 14057  14064M
                                                 14067  14068  14069  14880M 14881  14882  14886M 14886  14898M 14899
                                                 14900  14901  14906M 14907  14914M 14917  14918  14919  15024M 15025
                                                 15026  15030M 15030  15614M 15615  15616  15617  15622M 15623  15630M
                                                 15633  15634  15635  16912M 16913  16914  16915  16920M 16921  16928M
                                                 16931  16932  16933  18756M 18757  18758  18759  18764M 18765  18772M
                                                 18775  18776  18777  19233M 19234  19235  19236  19241M 19242  19249M
                                                 19252  19253  19254  19602M 19603  19604  19605  19617M 19620  19621
                                                 19622  19747M 19748  19749  19750  19755M 19756  19763M 19766  19767
                                                 19768  20790M 20791  20792  20793  20798M 20799  20806M 20809  20810
                                                 20811  21659M 21660  21661  21662  21667M 21668  21675M 21678  21679
                                                 21680  22307M 22308  22309  22310  22315M 22316  22323M 22326  22327
                                                 22328  22685M 22686  22687  22688  22693M 22694  22701M 22704  22705
                                                 22706  23225M 23226  23227  23228  23233M 23234  23241M 23244  23245
                                                 23246  24217M 24218  24219  24220  24225M 24226  24233M 24236  24237
                                                 24238  24778  25245M 25246  25247  25248  25253M 25254  25261M 25264
                                                 25265  25266  25622M 25623  25624  25625  25637M 25640  25641  25642
                                                 25727M 25728  25729  25733M 25733  25818M 25819  25820  25821  25833M
                                                 25836  25837  25838  28001M 28002  28015M 28016  28017  28018  28030M
                                                 28033  28034  28035  28176M 28179
 R15          15 0000000F FFFFFFFF A   #     894  2097   7197M  7197   7359   7625M  7625   7696M  7696   7731M  7731
                                                  7861M  7861   8017M  8056M  8089M  8089   8136U  8141   8220M  8255
                                                  8458   8489   8574   8584M  8595U  8604   8775M  8775   8795M  8825M
                                                  8825   8968M  8968   9203M  9203   9363M  9363   9920M  9920  10043
                                                 10100M 10100  10345M 10345  10431M 10431  10515M 10515  10629M 10629
                                                 10741M 10741  10883M 10883  11369M 11369  11539M 11539  11719M 11719
                                                 11879M 11879  12049M 12049  12147M 12148  12163M 12198M 12198  12273
                                                 12274M 12275B 12307M 12307  12430M 12489M 12507M 12551M 12551  12631M
                                                 12652M 12670M 12694M 12715M 12733M 12768M 12963M 12963  13096M 13096
                                                 13212M 13274M 13295M 13313M 13337M 13358M 13376M 13423M 13444M 13462M
                                                 13506M 13506  13673M 13747M 13849M 13904M 13956M 13956  14070M 14070
                                                 14108M 14108  14712M 14712  14920M 14920  15047  15075  15177M 15177
                                                 15257M 15257  15341M 15341  15473M 15491M 15555  15583  15636M 15636
                                                 16049M 16071M 16089M 16113M 16147M 16171M 16209M 16233M 16255M 16317M
                                                 16317  16437M 16437  16508  16686M 16708M 16726M 16756M 16774M 16813M
                                                 16813  16934M 16934  16969M 17046M 17081M 17107M 17125M 17167M 17200M
                                                 17222M 17290M 17319M 17370M 17370  17575  17603  17709M 17833M 17869M
                                                 17869  17933  18106M 18106  18249M 18249  18338M 18338  18423M 18423
                                                 18605  18633  18668  18691  18778M 18778  18787M 18818M 18818  18968M
                                                 18968  19065  19093  19127  19150  19255M 19255  19264M 19295M 19295
                                                 19518  19546  19623M 19623  19646M 19662M 19697M 19769M 19769  19838M
                                                 19879M 19894M 19895M 19895  19904M 19913M 19913  19920  20004M 20005M
                                                 20005  20014M 20023M 20023  20030  20089M 20089  20241M 20241  20286M
                                                 20302M 20337M 20380M 20380  20406M 20406  20592  20620  20695  20717
                                                 20812M 20812  20852M 20852  21096  21124  21199  21227  21275M 21275
                                                 21494  21516  21538  21570  21611  21633  21681M 21681  21717  21731M
                                                 21745M 21796M 21818M 21871M 21904M 21927M 21944M 21990M 21990  22135M
1WBUG     (WBUG2025) (13:00) (15MAR04) Ordinary Symbol and Literal Cross Reference                                          Page  197
                                                 22135  22329M 22329  22349M 22374M 22392M 22419M 22437M 22474M 22474
                                                 22707M 22707  22727M 22749M 22785M 22825M 22865M 22905M 22940M 22940
                                                 23247M 23247  23279M 23279  23597M 23597  23669M 23669  23741M 23741
                                                 23813M 23813  23993  24021  24119M 24119  24239M 24239  24271M 24271
                                                 24441M 24441  24536M 24536  24567  25152M 25267M 25267  25291M 25309M
                                                 25345M 25367M 25403M 25403  25643M 25643  25699M 25839M 25839  25895M
                                                 26089  26103  26112M 26113  26312  26418  26524M 26524  26532M 26538M
                                                 26577M 26577  26793M 26793  26870M 26870  26890M 26890  26918M 26918
                                                 26942M 26942  27002M 27002  27022M 27022  27068M 27068  27114M 27114
                                                 27142M 27142  27153M 27189M 27189  27856M 27892M 27892  27894M 27894
                                                 27931M 27931  28036M 28036  28044M 28059M 28147M 28168M 28168  28180M
                                                 28180  28217M 28217  28325  28416M 28416  28582M 28582  28584  28611
                                                 28614  28618M 28619M 28620  28674M 28738M 28748M 28755M 28762M 28769M
                                                 28776M 28830M 28925M 28969M 29022M 29022  29218M 29218  29325M 29364M
                                                 29386M 29408M 29426M 29454M 29472M 29483M 29519M 29541M 29563M 29581M
                                                 29609M 29627M 29657M 29687M 29687  29938M 29938  30080M 30167M 30178M
                                                 30202M 30243M 30265M 30306M 30351M 30361M 30379M 30385M 30403M 30437M
                                                 30457M 30482M 30522M 30522  30708M 30731M 30742M 30766M 30801M 30825M
                                                 30864M 30888M 30899M 31001M 31052M 31070M 31094M 31112M 31136M 31187M
                                                 31205M 31229M 31247M 31270M 31301M 31339M 31370M 31416M 31438M 31493M
                                                 31511M 31535M 31553M 31577M 31595M 31618M 31636M 31660M 31678M 31729M
                                                 31752M 31770M 31794M 31812M 31839M 31857M 31908M 31931M 31949M 31974M
                                                 31992M 32016M 32034M 32057M 32075M 32099M 32117M 32177M 32216M 32255M
                                                 32294M 32333M 32372M 32411M 32450M 32489M 32511M 32535M 32595M 32634M
                                                 32673M 32712M 32751M 32790M 32829M 32868M 32907M 32946M 32985M 33024M
                                                 33063M 33102M 33141M 33180M 33207M 33238M 33276M 33307M 33353M 33375M
                                                 33430M 33448M 33488M 33524M 33524  33943M 33943  33948M 33985M 33985
                                                 34099M 34099  34104M 34141M 34141  34292  34299M 34299  34304M 34341M
                                                 34341  34926M 34926  34928M 34928  34933M 34968M 34968  35109M 35147M
                                                 35172M 35190M 35213M 35257M 35280M 35359M 35389M 35422M 35459M 35496M
                                                 35596M 35632M 35659M 35682M 35712M 35730M 35822M 35858M 35885M 35908M
                                                 35938M 35956M 35995M 36018M 36041M 36071M 36089M 36135M 36170M 36170
                                                 36261M 36279M 36307M 36344M 36372M 36412M 36412  36499  36509M 36509
                                                 36540M 36572M 36594M 36638M 36677M 36677  36776  36803M 36835M 36857M
                                                 36900M 36900
 R2            2 00000002 FFFFFFFF A   #     725  7172M  7175M  7176M  7177   7516M  7532   7545   7558M  7559M  7559
                                                  8252M  8275M  8277M  8278   8419M  8437M  8442   8486M  8513M  8514M
                                                  8514   8527M  8549M  8554  10173M 10174  10175M 10176  10177M 10178M
                                                 10178  10179  10180M 10181M 10182M 10183  10568M 10570  10573M 10574M
                                                 10578M 10579M 10581  10584M 10682M 10684  10688M 10689M 10693M 10694M
                                                 10696  10699M 10813M 10814M 10815  10845M 10851M 11066M 11067M 11067
                                                 11077  11190M 11202  11439M 11440M 11441M 11450M 11450  11471M 11471
                                                 11477M 11478  11490M 11491M 11492  11493M 11494M 11495  11496M 11497M
                                                 11498M 11499  11500M 11500  11501M 11502M 11503M 11504  11594M 11595M
                                                 11596M 11605M 11605  11611M 11612M 11612  11613M 11613  11646  11670M
                                                 11671M 11672  11673M 11674M 11675  11676M 11677M 11678M 11679  11680M
                                                 11680  11681M 11682M 11683M 11684  11789M 11790M 11791M 11800M 11800
                                                 11821M 11821  11827M 11828  11840M 11840  11841M 11842M 11843M 11844
                                                 11934M 11935M 11936M 11945M 11945  11951M 11952M 11952  11953M 11953
                                                 11986  12010M 12010  12011M 12012M 12013M 12014  13624M 13638  13711
                                                 13771  13805  13831  14887M 15019  15526M 15933M 15943  15949M 15959
                                                 16034M 16260  16506U 16941M 16944M 17549M 17931U 18305M 18308M 18394M
                                                 18397M 18650M 18729  18734M 18785  19110M 19188  19202  19262  19506M
                                                 19587M 19796  19849  20678M 20701  20776  21182M 21246M 21247  24500M
                                                 24506M 24730M 24750M 24776M 24776  24784M 24784  24855  24868  25078
                                                 25091  25234M 25279  25322M 25322  25333  25372  26114M 26115M 26127
                                                 26708M 26711M 26713  26731M 26741U 26799M 27262M 27263  27276  27295
                                                 27338M 27339  27352  27371  27467M 27476M 27476  27482  27495  27514
                                                 27526M 27535M 27535  27541  27554  27573  27595U 27600M 27613  27632
1WBUG     (WBUG2025) (13:00) (15MAR04) Ordinary Symbol and Literal Cross Reference                                          Page  198
                                                 27658U 27698M 27711  27730  27752M 27762U 27767  27797  27798M 27814
                                                 27823M 28126M 28127M 28130M 28132  28611M 28612M 28613M 28614M 28616
                                                 28619  28707M 28708  28755  28762  28769  28776  28783  28976M 28977M
                                                 28977  28978  28979M 28980M 28980  28981  29431M 29432M 29433M 29433
                                                 29439  29477  29586M 29587M 29588M 29588  29594  29632  30412M 30413
                                                 30907M 30907  30908M 30939  32146M 32158  32197  32236  32275  32314
                                                 32353  32392  32431  32470  32564M 32576  32615  32654  32693  32732
                                                 32771  32810  32849  32888  32927  32966  33005  33044  33083  33122
                                                 33161  33883M 33888  33900M 33907  33919M 33926M 33928  34042M 34047
                                                 34059M 34066  34078M 34084  34249M 34250M 34259M 34259  34268M 34268
                                                 34269M 34270M 34270  34279M 34279  34513M 34513  34514M 34515M 34515
                                                 34524M 34524  34707M 34762M 34762  34787M 34842M 34842  34867M 34885M
                                                 34907M 34912  36500M 36553M 36553  36582  36623  36777M 36816M 36816
                                                 36845
 R3            3 00000003 FFFFFFFF A   #     738  7173M  7517M 10569M 10570M 10572  10575M 10577  10580M 10581M 10583
                                                 10683M 10684M 10685M 10687  10690M 10692  10695M 10696M 10698  10812M
                                                 10815M 10816  10846M 11618M 11618  11619M 11620M 11629M 11629  11635M
                                                 11636M 11636  11637M 11637  11647  11958M 11958  11959M 11960M 11969M
                                                 11969  11975M 11976M 11976  11977M 11977  11987  13625M 13655  13695
                                                 13785  13859  13886  14888M 15020  15989M 16024M 16024  16059  16593M
                                                 16628M 16628  16696  16942M 16998M 17062  17095  17330M 17330  18306M
                                                 18395M 18708M 18786  19167M 19263  24501M 24755M 24755  24777M 24785M
                                                 24785  24889  24902  25112  25125  27263M 27264M 27288  27339M 27340M
                                                 27364  27482M 27483M 27507  27541M 27542M 27566  27601M 27625  27699M
                                                 27723  27767M 27797M 27814  27823  27831M 27833  28841M 28843M 28844
                                                 29131M 29143  30909M 30919U 30960M 33884M 33885  34043M 34044  34512M
                                                 34515  34708M 34719M 34719  34763M 34788M 34799M 34799  34843M
 R4            4 00000004 FFFFFFFF A   #     751  7175M  7524M  7571   7572   7589   7590   7957M  7958M  7958   8023
                                                  8708M  8721M  8721   8742M  8765M  8765   8788M  8788   8890M  8901M
                                                  8901   8928M  9053M  9064M  9064   9108M  9118M  9129M  9129   9156M
                                                  9652M  9668   9685M 10212M 10228  10249M 10263M 10263  10571M 10573M
                                                 10576M 10578M 10582M 10584M 10686M 10688M 10691M 10693M 10697M 10699M
                                                 10851M 11088M 11101M 11101  11122M 11136M 11136  11642M 11643M 11644M
                                                 11648  11982M 11983M 11984M 11988  13654M 13885M 15604M 15677M 15690M
                                                 15690  15711M 15725M 15725  15750M 15763M 15763  15785M 15799M 15799
                                                 15988M 16002M 16002  16025M 16404U 16527M 16540M 16540  16557M 16571M
                                                 16571  16592M 16606M 16606  16629M 16643M 16643  16944M 16997M 17009M
                                                 17009  17329M 17729M 17742M 17742  17763M 17777M 17777  17950M 17963M
                                                 17963  17980M 17994M 17994  18308M 18397M 18651M 18787  19264  24506M
                                                 24756M 24756  24778M 24786M 24786  24924  24995  25013M 25026M 25026
                                                 25047M 25061M 25061  28837M 28839  28840M 28842M 28844M 28867M 28869
                                                 29109M 29111M 29112M 29125  29143  29149  29154M 29154  29160M 29160
                                                 29176  29182  29187M 29187  29271M 29345  29396  29431  29488M 29488
                                                 29500  29551  29586  30133M 30142M 30142  30218  30281  30326  30429
                                                 30494  30580M 30598M 30620M 30627  30782  30845  33496  34494M 34505M
                                                 34505  34913M 35291M 35305M 35305  35326M 35340M 35340  35532M 35545M
                                                 35545  35562M 35577M 35577  35613M 35613  35758M 35771M 35771  35788M
                                                 35803M 35803  35839M 35839
 R5            5 00000005 FFFFFFFF A   #     764  7174M  7174   7359M  7369U  7929M  7939U  8702U  8707M  8741M  8884U
                                                  8889M  8929M  9047U  9052M  9107M  9117M  9157M  9163M  9300U  9590M
                                                  9600U  9651M  9684M  9692M  9699M  9720M  9728M  9749M  9757M  9778M
                                                  9786M  9814M  9974M  9984U 10196M 10206U 10248M 10274M 10572M 10577M
                                                 10583M 10687M 10692M 10698M 10850M 10850  11029M 11039U 11087M 11121M
                                                 11145M 11211M 11228M 11421M 11431U 11653M 11663U 11771M 11781U 11993M
                                                 12003U 12118M 12128U 12249M 12259U 12451M 12451  12459U 12568M 12568
                                                 12585  12738  12785  13041M 13042M 13054  13070  13070M 13232U 13255M
                                                 13256  13318M 13319  13404M 13405  13653M 13653  13800U 13805M 13859M
                                                 13884M 13884  15657U 15676M 15710M 15749M 15784M 15987M 16023M 16521U
                                                 16526M 16556M 16591M 16627M 16943M 16943  16991U 16996M 17328M 17528U
1WBUG     (WBUG2025) (13:00) (15MAR04) Ordinary Symbol and Literal Cross Reference                                          Page  199
                                                 17654M 17657M 17728M 17762M 17943U 17949M 17979M 18307M 18307  18396M
                                                 18396  19456M 19464U 24505M 24505  24723U 24728M 24805U 24810M 24818M
                                                 24861M 24895M 24930M 24962M 24975  24981M 24988M 25012M 25046M 25084M
                                                 25118M 28838M 28839M 28840  28841  28848M 28850  29110M 29113M 29114M
                                                 29115M 29115  29125  29176  29999M 30092  30132  30172  30187  30228
                                                 30291  30336  30411  30493  30579M 30626  30736  30751  30810  30873
                                                 30908  31075  31117  31210  31252  31275  31306  31344  31383  31516
                                                 31558  31600  31641  31734  31775  31817  31913  31954  31997  32039
                                                 32080  32143  32516  32561  33189  33212  33243  33281  33320  33495
                                                 35058M 35068U 35290M 35325M 35531M 35561M 35568M 35757M 35787M 35794M
                                                 36223M 36233U
 R6            6 00000006 FFFFFFFF A   #     777  7344M  7354U  7780M  7790U  7914M  7924U  8165M  8173U 12448M 13180M
                                                 13586M 14035M 14532M 14790M 15441M 16899M 18191M 18586M 19046M 19490M
                                                 20492M 20995M 21448M 22212M 22591M 23123M 23891M 24206M 24589M 25205M
                                                 35056M
 R7            7 00000007 FFFFFFFF A   #     790  2090M  2090   2091B  2103B  8252   8486  24774  24777
 R8            8 00000008 FFFFFFFF A   #     803  9287U 15430U 17515U 19452U 21418U 25600U 26667U 27253U 27995U 28305U
                                                 28567U 29802U 34225U 34461U 35052U 36491U 36757U
 SAVEP         2 000009E4 00000001     H   10530 10957
 SCANCHK       1 00000000 00000014     T   14445 14445  18446  21296  23026  24134  25482  28436
 SCNINVAL      1 00000000 0000000F     T   12996 12996  14425  16352  17435  18898  19360  20166  20917  22055  22539
                                                 23005  23524  24363  25468
 SCUPCASE      1 00000000 00000024     T   28437 28437
 SDSNQSZ       1 0000002C FFFFFFEC A   U    6078  6079   6080
 SEG           1 00000000 00000015     T   14446 14446  18455  21302  23032  25495  29705  33541  36929
 SEGCB        60 00000000 FFFFFFE8     J    6684  7369U  7939U
 SEGCBCOD      1 00000000 FFFFFFE8     R    6595  6604   6614   6624   6634   6644   6654   6664
 SEGCBCR       6 00000000 FFFFFFE8         6654  7495
 SEGCBLENF
               4 0000000C FFFFFFE8     A    6670  7641M  7641
 SEGCBMRKF
               4 00000008 FFFFFFE8     A    6669  7646M  7646
 SEGCBWR       2 00000000 FFFFFFE8         6614  7507
 SEGCOL        1 00000000 00000029     T   29709 29709  33543
 SEGCR         1 00000000 00000003     T   10939 10939  14439  18456  23036  29699  33539  36928
 SEGDC         1 00000000 00000016     T   14447 14447  18466  23035  25493  29706  33550  36935
 SEGHX         1 00000000 0000001A     T   18467 18467  23040  25496  29707  33544  36930
 SEGT          1 00000000 0000002A     T   36936 36936
 SEGTB         1 00000000 0000001B     T   18469 18469  36934
 SEGWR         1 00000000 00000005     T   10941 10941  14449
 SETDBPRT      4 000012CC 00000001     F   12969 14443
 SETDEBUG      2 000010B0 00000001     H   12340 12336  14125
 SETTRAP       2 00000658 00000001     H    9243 18468  25489
 SHOWDBUG      2 00001360 00000001     H   13118 13114
 SIMBAL        2 00000E40 00000001     H   11553 12061
 SIMBALR       2 00000DA4 00000001     H   11383 12059
 SIMBAS        2 00000F74 00000001     H   11893 12062
 SIMBASR       2 00000EFA 00000001     H   11733 12060
 SIMEXIT       2 00000D96 00000001     H   11343 11059B 11080B 11139B
 SIMULATE      2 00000C78 00000001     H   10991 10960
 SMSGEXIT      2 00007112 00000001     H   36114 35223B 35509B 35735B 35961B 36094B
 SPECTC        1 00000014 FFFFFFE7 A   U    6815  8708   8890   9053   9118   9652  10212  11088  18395
 SPIEEPIE      4 00000B7C 00000001     A   10919  8142M  8403   8668  10039  10156  10794
 SPIEFAIL      2 00000502 00000001     I    8584  8419   8527
 SPIELEV1      2 000003D8 00000001     H    8235 10943
 SPIELEV2      2 000004AA 00000001     H    8485 10944
 SPIEPROC      2 000003A8 00000001     H    8125  7157
 SPIEREGS      4 00000B3C 00000001     F   10918  8141M  8220   8252   8486   9538
 SPIERET1      2 00000482 00000001     H    8455  8311B  8368B  8395B
1WBUG     (WBUG2025) (13:00) (15MAR04) Ordinary Symbol and Literal Cross Reference                                          Page  200
 SPIESAVE     84 00000B80 00000001     X   10920  8418M  8509M  8600
 SPR          13 0000000D 00000001 A   #    1104  7101   7104   7105   7106M  7106   7189M  7193   7195   7315   7318
                                                  7319   7320M  7320   7723M  7727   7729   7751   7754   7755   7756M
                                                  7756   7853M  7857   7859   7885   7888   7889   7890M  7890   8081M
                                                  8085   8087   8636   8639   8640   8641M  8641   8817M  8821   8823
                                                  8844   8847   8848   8849M  8849   8960M  8964   8966   8988   8991
                                                  8992   8993M  8993   9195M  9199   9201   9250   9253   9255   9256M
                                                  9256   9355M  9359   9361   9393   9396   9397   9398M  9398   9912M
                                                  9916   9918   9942   9945   9946   9947M  9947  10092M 10096  10098
                                                 10120  10123  10124  10125M 10125  10337M 10341  10343  10366  10369
                                                 10370  10371M 10371  10423M 10427  10429  10450  10453  10454  10455M
                                                 10455  10507M 10511  10513  10536  10539  10540  10541M 10541  10621M
                                                 10625  10627  10650  10653  10654  10655M 10655  10733M 10737  10739
                                                 10762  10765  10766  10767M 10767  10875M 10879  10881  10997  11000
                                                 11001  11002M 11002  11361M 11365  11367  11389  11392  11393  11394M
                                                 11394  11531M 11535  11537  11559  11562  11563  11564M 11564  11711M
                                                 11715  11717  11739  11742  11743  11744M 11744  11871M 11875  11877
                                                 11899  11902  11903  11904M 11904  12041M 12045  12047  12086  12089
                                                 12090  12091M 12091  12190M 12194  12196  12217  12220  12221  12222M
                                                 12222  12299M 12303  12305  12346  12349  12350  12351M 12351  12955M
                                                 12959  12961  13008  13011  13012  13013M 13013  13088M 13092  13094
                                                 13124  13127  13128  13129M 13129  13498M 13502  13504  13530  13533
                                                 13534  13535M 13535  13948M 13952  13954  13978  13981  13982  13983M
                                                 13983  14100M 14104  14106  14500  14503  14504  14505M 14505  14704M
                                                 14708  14710  14734  14737  14738  14739M 14739  14987  14990  14991
                                                 14992M 14992  15169M 15173  15175  15192  15195  15196  15197M 15197
                                                 15249M 15253  15255  15270  15273  15274  15275M 15275  15333M 15337
                                                 15339  15392  15395  15397  15398M 15398  16309M 16313  16315  16365
                                                 16368  16369  16370M 16370  16429M 16433  16435  16467  16470  16471
                                                 16472M 16472  16805M 16809  16811  16843  16846  16847  16848M 16848
                                                 17362M 17366  17368  17477  17480  17482  17483M 17483  17861M 17865
                                                 17867  17892  17895  17896  17897M 17897  18098M 18102  18104  18135
                                                 18138  18139  18140M 18140  18241M 18245  18247  18269  18272  18273
                                                 18274M 18274  18330M 18334  18336  18358  18361  18362  18363M 18363
                                                 18415M 18419  18421  18530  18533  18534  18535M 18535  18810M 18814
                                                 18816  18910  18913  18914  18915M 18915  18960M 18964  18966  18990
                                                 18993  18994  18995M 18995  19287M 19291  19293  19414  19417  19419
                                                 19420M 19420  20081M 20085  20087  20178  20181  20182  20183M 20183
                                                 20233M 20237  20239  20254  20257  20258  20259M 20259  20398M 20402
                                                 20404  20436  20439  20440  20441M 20441  20844M 20848  20850  20939
                                                 20942  20943  20944M 20944  21267M 21271  21273  21380  21383  21385
                                                 21386M 21386  21982M 21986  21988  22074  22077  22078  22079M 22079
                                                 22127M 22131  22133  22156  22159  22160  22161M 22161  22466M 22470
                                                 22472  22559  22562  22563  22564M 22564  22932M 22936  22938  23091
                                                 23094  23095  23096M 23096  23271M 23275  23277  23538  23541  23542
                                                 23543M 23543  23589M 23593  23595  23610  23613  23614  23615M 23615
                                                 23661M 23665  23667  23682  23685  23686  23687M 23687  23733M 23737
                                                 23739  23754  23757  23758  23759M 23759  23805M 23809  23811  23835
                                                 23838  23839  23840M 23840  24111M 24115  24117  24174  24177  24178
                                                 24179M 24179  24263M 24267  24269  24378  24381  24382  24383M 24383
                                                 24433M 24437  24439  24457  24460  24461  24462M 24462  24528M 24532
                                                 24534  25173  25176  25177  25178M 25178  25395M 25399  25401  25562
                                                 25565  25567  25568M 25568  26569M 26573  26575  26629  26632  26634
                                                 26635M 26635  27181M 27185  27187  27215  27218  27220  27221M 27221
                                                 27923M 27927  27929  27957  27960  27962  27963M 27963  28209M 28213
                                                 28215  28267  28270  28272  28273M 28273  28408M 28412  28414  28529
                                                 28532  28534  28535M 28535  29014M 29018  29020  29077  29080  29081
                                                 29082M 29082  29210M 29214  29216  29239  29242  29243  29244M 29244
                                                 29679M 29683  29685  29764  29767  29769  29770M 29770  29930M 29934
1WBUG     (WBUG2025) (13:00) (15MAR04) Ordinary Symbol and Literal Cross Reference                                          Page  201
                                                 29936  29967  29970  29971  29972M 29972  30514M 30518  30520  30547
                                                 30550  30551  30552M 30552  33516M 33520  33522  33851  33854  33855
                                                 33856M 33856  33977M 33981  33983  34010  34013  34014  34015M 34015
                                                 34133M 34137  34139  34187  34190  34192  34193M 34193  34333M 34337
                                                 34339  34423  34426  34428  34429M 34429  34960M 34964  34966  35014
                                                 35017  35019  35020M 35020  36162M 36166  36168  36191  36194  36195
                                                 36196M 36196  36404M 36408  36410  36453  36456  36458  36459M 36459
                                                 36669M 36673  36675  36719  36722  36724  36725M 36725  36892M 36896
                                                 36898
 STARTJCB      2 00001028 00000001     H   12080 10936  14452  18440
 STOPMSG       2 00006D86 00000001     H   35007 14453  18442
 STOPNAME      8 00000000 FFFFFFD5     C   34979 35530M 35555  35756M 35781
 STOPWA        8 00000000 FFFFFFD5     J   34986 35020  35052U 36166  36168  36169
 STTEMP       16 00000000 FFFFFFE2     C    9214  9305M  9317
 STWA         16 00000000 FFFFFFE2     J    9221  9256   9287U  9359   9361   9362
 SYMADDR       3 00000001 FFFFFFE4     R    7001 26790  27791  27831
 SYMBOL       16 00000000 FFFFFFE4     J    7014 26741U 27762U
 SYMBOLS       1 00000000 00000027     T   28448 28448
 SYMFEND     255 00000000 FFFFFFE4         6993 26760  27781
 SYMFLGS       1 00000000 FFFFFFE4     R    6984  6993   6998   7002
 SYMNAME       8 00000008 FFFFFFE4     C    7005 26778  27824
 SYMNEXT       1 00000010 FFFFFFE4     U    7007 26799  27798
 TANAME        8 00000000 FFFFFFD4     C   36423 36499M 36525
 TAWA          8 00000000 FFFFFFD4     J   36430 36459  36491U 36673  36675  36676
 TEMPLT       80 000056D4 00000001     C   29025 28706  29026  29028  29030  29030
 TP           16 00000000 FFFFFFE3     J    7074 24723U
 TPEND         1 0000000C FFFFFFE3     U    7062 24730
 TPENDK        1 00000010 FFFFFFE3     U    7067 24750
 TPFKAPUT     64 00000000 FFFFFFE3         7038 24742  24742  24743
 TPFLGS        1 00000000 FFFFFFE3     R    7029  7033   7038   7043   7048   7053
 TPFMSG       16 00000000 FFFFFFE3         7048 24742  24742
 TPNAME        8 00000004 FFFFFFE3     C    7061 24729  24768
 TRACEOFF      2 0000487C 00000001     H   24451 24333  24348
 TRACEON       2 00004850 00000001     H   24372 24288  24303  24318
 TRACEPRT      4 00004760 00000001     F   24276 25480
 TRAPCHK       2 0000051E 00000001     H    8630 10947
 TRAPCODE      1 000009BB FFFFFFE7 A   U    6817 10971  12063
 TRAPEXIT      2 0000082A 00000001     H    9894  9456B  9530B  9582B  9628B
 TRAPSKIP      2 00000838 00000001     H    9936 10953
 TRAPSOFF      2 00000584 00000001     H    8838 10946  18480  25483
 TRAPSON       2 000005CC 00000001     H    8982 10951  18481  25484
 TRAPTRC       2 000048C0 00000001     H   24553 24554
 TRAPUSER      2 000006A0 00000001     H    9387 10948
 TRC           1 00000000 00000000 A   T    2119  2119
 TSEGADDR      2 000071BA 00000001     H   36446 18473  33542  36933
 TSEGSYM       2 00007240 00000001     H   36712 23042  25497  29708
 TSEGUSER      2 0000712C 00000001     H   36185 14448  23037  36931
 TSKIPRET      2 000008AE 00000001     H   10074 10014B
 TSNAME        8 00000000 FFFFFFD3     C   36688 36776M 36788
 TSWA          8 00000000 FFFFFFD3     J   36695 36725  36757U 36896  36898  36899
 TTRCEXIT      2 00004A86 00000001     H   25151 24612B 24650B 24668B 24691B 24705B
 TTYFLAG       1 00000004 FFFFFFEA     R    6207  6211
 TTYMAX#       1 00000006 FFFFFFEA A   U    6263  6264
 TTYTFLAG      1 00000005 FFFFFFEA     R    6217  6221   6226   6231   6236   6241   6246   6251
 UNLOCKP       2 000009B0 00000001     H   10444 10959
 UPPTBL        1 00000000 00000000 A   T    2182  2182
 USERTC        1 00000010 FFFFFFE7 A   U    6814  8708   8890   9053   9118   9652  10212  11088  15677  15750  15988
                                                 16527  16592  16942  16997  17729  17950  18306  18395  25013  35532
                                                 35758
1WBUG     (WBUG2025) (13:00) (15MAR04) Ordinary Symbol and Literal Cross Reference                                          Page  202
 WAR           8 00000008 00000001 A   #    1027  7105M  7189   7319M  7723   7755M  7853   7889M  8081   8640M  8817
                                                  8848M  8960   8992M  9195   9255M  9355   9397M  9912   9946M 10092
                                                 10124M 10337  10370M 10423  10454M 10507  10540M 10621  10654M 10733
                                                 10766M 10875  11001M 11361  11393M 11531  11563M 11711  11743M 11871
                                                 11903M 12041  12090M 12190  12221M 12299  12350M 12955  13012M 13070
                                                 13088  13128M 13498  13534M 13948  13982M 14100  14504M 14704  14738M
                                                 14991M 15169  15196M 15249  15274M 15333  15397M 16309  16369M 16429
                                                 16471M 16805  16847M 17362  17482M 17861  17896M 18098  18139M 18241
                                                 18273M 18330  18362M 18415  18534M 18810  18914M 18960  18994M 19287
                                                 19419M 20081  20182M 20233  20258M 20398  20440M 20844  20943M 21267
                                                 21385M 21982  22078M 22127  22160M 22466  22563M 22932  23095M 23271
                                                 23542M 23589  23614M 23661  23686M 23733  23758M 23805  23839M 24111
                                                 24178M 24263  24382M 24433  24461M 24528  25177M 25395  25567M 26546
                                                 26569  26634M 27158  27181  27220M 27900  27923  27962M 28186  28209
                                                 28272M 28385  28408  28534M 29014  29081M 29210  29243M 29679  29769M
                                                 29930  29971M 30496  30514  30551M 33498  33516  33855M 33977  34014M
                                                 34133  34192M 34333  34428M 34960  35019M 36162  36195M 36404  36458M
                                                 36669  36724M 36892
 WBUG2025      1 00000000 00000001     R    1137  1135
 WCT           2 000025A4 00000001     H   17470 14200  17466
 WCT#SYM       2 000026C6 00000001     H   17886 18474
 WCTEXIT       2 000026A2 00000001     H   17819 17554B 17686B 17714B 17804B
 WCTNAME       8 00000000 FFFFFFDF     C   17445 17933M 17973
 WCTS          2 00002752 00000001     H   18129 14215  18125
 WCTWA         8 00000000 FFFFFFDF     J   17452 17483  17515U 17549  17865  17867  17868  17931U
 WDEBUG        2 000015D8 00000001     H   13972 13968
 WDISASM       2 00002DAC 00000001     H   18984 14245  18980
 WDISPRT       4 00002ECC 00000001     F   19303 21298
 WGO           2 00001BE0 00000001     H   14494 14140  14490  18453
 WGOTO         2 00001C7A 00000001     H   14728 14155  14724
 WGOTOPRT      4 00001D50 00000001     F   14931 18444
 WGTABORT      2 00001EA0 00000001     H   15264 14958
 WGTEXPR       2 00001DC8 00000001     H   14981 14973
 WGTNEXT       2 00001E68 00000001     H   15186 14943
 WJCBLNO       2 0000131C 00000001     H   13002 12981
 WPCC          2 00004114 00000001     H   23085 14365  23081
 WPCCPRT       4 000041E0 00000001     F   23287 24132
 WPCC0         2 00004460 00000001     H   23532 23299  23314  23329
 WPCC1         2 00004490 00000001     H   23604 23344  23359  23374  23389  23404
 WPCC2         2 000044C0 00000001     H   23676 23419  23434  23449  23464
 WPCC3         2 000044F0 00000001     H   23748 23479  23494  23509
 WPCPRT        4 000031AC 00000001     F   20094 21305
 WPC2          2 00002F6C 00000001     H   19407 14260  19403
 WPG           2 00003528 00000001     H   20933 14290  20929
 WPIA          2 00004520 00000001     H   23829 14380  23825
 WPPG          2 00003B2C 00000001     H   22068 14320
 WSA           2 00004A8C 00000001     H   25167 14410  25163
 WSAPRT        4 00004B7C 00000001     F   25411 25492
 WSCASCII      2 00002D80 00000001     H   18904 18838
 WSCC          2 00003D3C 00000001     H   22553 14350  22549
 WSCCPRT       4 00003E94 00000001     F   22948 23043
 WSCPRT        4 00002CB8 00000001     F   18826 21294
 WSC2          2 00002BA0 00000001     H   18524 14230  18520
 WSG           2 0000330C 00000001     H   20430 14275  20426
 WSGPRT        4 00003488 00000001     F   20860 21312
 WSPG          2 00003868 00000001     H   21373 14305  21369
 WSPGJCB       4 0000000C FFFFFFDD     F   21355 21704M 21837  21909
 WSPGLEN       4 00000008 FFFFFFDD     F   21354 21595M 21617M 21943
 WSPGNUMB      4 00000000 FFFFFFDD     F   21352 21478M 21699  21806  21852
1WBUG     (WBUG2025) (13:00) (15MAR04) Ordinary Symbol and Literal Cross Reference                                          Page  203
 WSPGOFF       4 00000004 FFFFFFDD     F   21353 21500M 21522M 21770  21782M 21782  21942  21944
 WSPGPRT       4 00003A8C 00000001     F   21998 23024
 WSPGTEMP      4 00000010 FFFFFFDD     F   21356 21694M 21852
 WSPGWA       20 00000000 FFFFFFDD     J   21363 21386  21418U 21986  21988  21989
 WSPPRT        4 00003C9C 00000001     F   22482 23039
 WSPSW         2 00003B5A 00000001     H   22150 14335  22146
 WST           2 00001EE8 00000001     H   15385 14170  15381
 WST#SYM       2 0000225C 00000001     H   16461 18460
 WSTEXIT       2 000021CE 00000001     H   16285 15531B
 WSTFLAG       1 00000008 FFFFFFE0     R   15355 15359
 WSTNAME       8 00000000 FFFFFFE0     C   15352 16508M 16550  16669  16741
 WSTNOCHK    128 00000008 FFFFFFE0        15359 15854  16411M
 WSTNOCK       2 00002230 00000001     H   16359 16337
 WSTPRT        4 000021E0 00000001     F   16325 18461
 WSTS          2 00002358 00000001     H   16837 14185  16833
 WSTSPRT       4 00002504 00000001     F   17378 18470
 WSTWA         9 00000000 FFFFFFE0     J   15368 15398  15430U 15440M 15440  15526  15604  16313  16315  16316  16404U
                                                 16506U
 WTOSG         1 00000000 00000000 A   T    2079  2079
 WTRACE        2 000046D6 00000001     H   24168 14395  24164
 WYLWBUG       1 00000000 00000001     J     991   993   1009   1022   1035   1047   1060   1073   1086   1099   1112
                                                  1125   2363   2447   6187   6299   6579   6685   6689   7080   7083
                                                  9222  10913  18464  36968
 XTB           1 00000000 00000025     T   28439 28439
 YESREQ        1 00000000 00000012     T   14441 14441  18458  21308
 =A(CHKIADDR)
               4 000028A0 00000001     A   18451 15120  15862
 =A(CHKIADDR)
               4 0000464C 00000001     A   24140 24066
 =A(CHKINST)
               4 000065A8 00000001     A   33535 29858  30125
 =A(CHKRADDR)
               4 0000289C 00000001     A   18450 15094
 =A(CHKRADDR)
               4 00004648 00000001     A   24139 24040
 =A(CHKRADDR)
               4 00005A20 00000001     A   29700 28712
 =A(CHKRADDR)
               4 000065B4 00000001     A   33538 30003  30630
 =A(CHKRADDR)
               4 000072E8 00000001     A   36922 34233  34469
 =A(CHKSADDR)
               4 00002928 00000001     A   18463 15821
 =A(CHKSADDR)
               4 000036D0 00000001     A   21306 19800
 =A(CLRALL)
               4 00001A50 00000001     A   14454 13646  13703  13823  13877
 =A(CLRALL)
               4 00002968 00000001     A   18479 18216
 =A(CLRTRAPS)
               4 00002964 00000001     A   18478 18197
 =A(CPXSIZE)
               4 000054B8 00000001     A   28450 27264  27340
 =A(DBADSTK)
               4 00000C64 00000001     A   10966 10576  10691
 =A(DBAHEAP)
               4 00000C68 00000001     A   10967 10582  10697
 =A(DBAHEAP)
               4 000054D4 00000001     A   28457 28367
1WBUG     (WBUG2025) (13:00) (15MAR04) Ordinary Symbol and Literal Cross Reference                                          Page  204
 =A(DBAREA+8)
               4 00000C6C 00000001     A   10968 10845
 =A(DBAREA+8)
               4 00001A54 00000001     A   14455 13648  13879
 =A(DBAREA)
               4 00000BE0 00000001     A   10933  7172   7176   7344   7780   7914   8165
 =A(DBAREA)
               4 00001A20 00000001     A   14442 12448  13180  13586  14035
 =A(DBAREA)
               4 00002870 00000001     A   18439 14532  14790  15441  16899  18191
 =A(DBAREA)
               4 0000367C 00000001     A   21289 18586  19046  19490  20492  20995
 =A(DBAREA)
               4 00003F3C 00000001     A   23016 21448  22212  22591
 =A(DBAREA)
               4 00004628 00000001     A   24131 23123  23891
 =A(DBAREA)
               4 00004C28 00000001     A   25479 24206  24566  24589  25205
 =A(DBAREA)
               4 000054B4 00000001     A   28449 27141
 =A(DBAREA)
               4 000072F8 00000001     A   36926 35056
 =A(DBASTACK)
               4 00000C60 00000001     A   10965 10571  10686
 =A(DBASTACK)
               4 000054D0 00000001     A   28456 28344
 =A(DBLENGTH)
               4 00000BE4 00000001     A   10934  7173
 =A(DBLENGTH-8)
               4 00000C70 00000001     A   10969 10846
 =A(DBLENGTH-8)
               4 00001A58 00000001     A   14456 13649  13880
 =A(DBRESET)
               4 00000C34 00000001     A   10954  9626   9888  10012  10037  10061
 =A(DBSETUP)
               4 00000C2C 00000001     A   10952  9430
 =A(DBSTKLEN)
               4 00000C10 00000001     A   10945  8243  10685
 =A(DBSTKLEN)
               4 00004C44 00000001     A   25486 24594
 =A(DEBUGLEN)
               4 00002930 00000001     A   18465 15949
 =A(DEBUGPRT)
               4 00001A5C 00000001     A   14457 14056
 =A(DEBUGSG)
               4 00000BF4 00000001     A   10938  7929
 =A(DEBWRITE)
               4 00001A44 00000001     A   14451 12872  12927
 =A(DISPASM)
               4 000036A4 00000001     A   21299 19267
 =A(DISPCORE)
               4 0000369C 00000001     A   21297 18790
 =A(DISPCORE)
               4 00003F9C 00000001     A   23038 21947
 =A(DISPDATA)
               4 000065B0 00000001     A   33537 29895
 =A(DISPINST)
               4 000065AC 00000001     A   33536 29874
 =A(DISPPAIR)
1WBUG     (WBUG2025) (13:00) (15MAR04) Ordinary Symbol and Literal Cross Reference                                          Page  205
               4 00005A2C 00000001     A   29703 29152  29185
 =A(DISPREGS)
               4 000036E0 00000001     A   21310 20602  20824
 =A(DOTMASK)
               4 000065DC 00000001     A   33548 30412
 =A(EVAL#SYM)
               4 000028F8 00000001     A   18459 15513  17536
 =A(EVALADDR)
               4 000054CC 00000001     A   28455 28312
 =A(EVALADDR)
               4 000072EC 00000001     A   36923 34290  36497  36763
 =A(EVALSYM)
               4 000054A8 00000001     A   28446 26483
 =A(EVALXPRN)
               4 00002890 00000001     A   18447 15033  15541  17562
 =A(EVALXPRN)
               4 00003680 00000001     A   21290 18592  18655  19052  19114  19504  20579  20682  21083  21186
 =A(EVALXPRN)
               4 00003F40 00000001     A   23017 21454  21481  21557
 =A(EVALXPRN)
               4 0000463C 00000001     A   24136 23979
 =A(EVALXPRN)
               4 00004C58 00000001     A   25491 25210
 =A(INSTTYPE)
               4 000072F0 00000001     A   36924 34512
 =A(L'DBTRAP)
               4 00004C54 00000001     A   25490 24981
 =A(L'PCTEXT)
               4 000036C8 00000001     A   21304 19719  19731
 =A(L'PCVTXT)
               4 000036DC 00000001     A   21309 20359  20371
 =A(LOCKP)
               4 00000C3C 00000001     A   10956  9833
 =A(PAUSEJCB)
               4 00000BF0 00000001     A   10937  7683   9859
 =A(PAUSEJCB)
               4 00001A40 00000001     A   14450 12791
 =A(PAUSEJCB)
               4 00002878 00000001     A   18441 14636
 =A(RELOC)
               4 0000368C 00000001     A   21293 18732  19191  19585
 =A(RESTOREP)
               4 00000C44 00000001     A   10958  9876
 =A(SAVEP)
               4 00000C40 00000001     A   10957  9837
 =A(SETDBPRT)
               4 00001A24 00000001     A   14443 12537
 =A(SETTRAP)
               4 0000293C 00000001     A   18468 16273
 =A(SETTRAP)
               4 00004C50 00000001     A   25489 24871  24905  24998  25094  25128
 =A(SIMBAL)
               4 00001018 00000001     A   12061 11304
 =A(SIMBALR)
               4 00001010 00000001     A   12059 11262
 =A(SIMBAS)
               4 0000101C 00000001     A   12062 11325
 =A(SIMBASR)
               4 00001014 00000001     A   12060 11283
1WBUG     (WBUG2025) (13:00) (15MAR04) Ordinary Symbol and Literal Cross Reference                                          Page  206
 =A(SIMULATE)
               4 00000C4C 00000001     A   10960  9884  10057
 =A(SPIELEV1)
               4 00000C08 00000001     A   10943  8193
 =A(SPIELEV2)
               4 00000C0C 00000001     A   10944  8212
 =A(STARTJCB)
               4 00000BEC 00000001     A   10936  7677   7830   9854
 =A(STARTJCB)
               4 00001A48 00000001     A   14452 12892  13658  13728  13834  13889
 =A(STARTJCB)
               4 00002874 00000001     A   18440 14631
 =A(STOPMSG)
               4 00001A4C 00000001     A   14453 12931
 =A(STOPMSG)
               4 0000287C 00000001     A   18442 14676
 =A(TRACEPRT)
               4 00004C2C 00000001     A   25480 24225
 =A(TRAPCHK)
               4 00000C18 00000001     A   10947  8294
 =A(TRAPSKIP)
               4 00000C30 00000001     A   10953  9454   9528   9580
 =A(TRAPSOFF)
               4 00000C14 00000001     A   10946  8250   9315
 =A(TRAPSOFF)
               4 0000296C 00000001     A   18480 18303  18392
 =A(TRAPSOFF)
               4 00004C38 00000001     A   25483 24498
 =A(TRAPSON)
               4 00000C28 00000001     A   10951  8472   9323
 =A(TRAPSON)
               4 00002970 00000001     A   18481 18311
 =A(TRAPSON)
               4 00004C3C 00000001     A   25484 24509
 =A(TRAPUSER)
               4 00000C1C 00000001     A   10948  8309   8393
 =A(TSEGADDR)
               4 00002950 00000001     A   18473 17248
 =A(TSEGADDR)
               4 000065C4 00000001     A   33542 30175  30739
 =A(TSEGADDR)
               4 00007344 00000001     A   36933 35221  35288  35667  35893  36026
 =A(TSEGSYM)
               4 00003FAC 00000001     A   23042 22445
 =A(TSEGSYM)
               4 00004C70 00000001     A   25497 25375
 =A(TSEGSYM)
               4 00005A40 00000001     A   29708 29480  29635
 =A(TSEGUSER)
               4 00001A38 00000001     A   14448 12741  13259  13322  13408
 =A(TSEGUSER)
               4 00003F98 00000001     A   23037 21912
 =A(TSEGUSER)
               4 00007334 00000001     A   36931 35198  35265  35644  35870  36003
 =A(UNLOCKP)
               4 00000C48 00000001     A   10959  9880
 =A(WCT#SYM)
               4 00002954 00000001     A   18474 17552  17712
 =A(WDISPRT)
1WBUG     (WBUG2025) (13:00) (15MAR04) Ordinary Symbol and Literal Cross Reference                                          Page  207
               4 000036A0 00000001     A   21298 19241
 =A(WGO)       4 000028C0 00000001     A   18453 15148  15228  15312
 =A(WGOTOPRT)
               4 00002884 00000001     A   18444 14906
 =A(WPCCPRT)
               4 0000462C 00000001     A   24132 23233
 =A(WPCPRT)
               4 000036CC 00000001     A   21305 19755
 =A(WSAPRT)
               4 00004C5C 00000001     A   25492 25253
 =A(WSCCPRT)
               4 00003FB0 00000001     A   23043 22693
 =A(WSCPRT)
               4 00003690 00000001     A   21294 18764
 =A(WSGPRT)
               4 000036E8 00000001     A   21312 20798
 =A(WSPGPRT)
               4 00003F5C 00000001     A   23024 21667
 =A(WSPPRT)
               4 00003FA0 00000001     A   23039 22315
 =A(WST#SYM)
               4 000028FC 00000001     A   18460 15529
 =A(WSTPRT)
               4 00002900 00000001     A   18461 15622
 =A(WSTSPRT)
               4 00002944 00000001     A   18470 16920
 =A(WYLWBUG)
               4 0000292C 00000001     A   18464 15933
 =A(X'FF000000')
               4 000054A0 00000001     A   28444 26127
 =A(X'80000000')
               4 00000C24 00000001     A   10950  8437   8549
 =A(0)         4 00000C38 00000001     A   10955  9668  10228
 =A(0)         4 00003F44 00000001     A   23018 21494  21570
 =A(0)         4 00004C4C 00000001     A   25488 24855  24889  24924  25078  25112
 =A(0)         4 00005494 00000001     A   28441 26089  26282  26388
 =A(0)         4 00005A18 00000001     A   29698 28597
 =A(0)         4 00006600 00000001     A   33557 32158  32576
 =A(1)         4 00002958 00000001     A   18475 17634
 =A(1)         4 000054A4 00000001     A   28445 26197  26685
 =A(1)         4 00006604 00000001     A   33558 32197  32615
 =A(10)        4 00006628 00000001     A   33567 32966
 =A(1024)      4 00003F54 00000001     A   23022 21578  21590
 =A(11)        4 00006610 00000001     A   33561 32392  33005
 =A(12)        4 0000662C 00000001     A   33568 33044
 =A(13)        4 00006614 00000001     A   33562 32431  33083
 =A(14)        4 00006630 00000001     A   33569 33122
 =A(15)        4 000036E4 00000001     A   21311 20661  20758  21165
 =A(15)        4 00005498 00000001     A   28442 26103
 =A(15)        4 00006618 00000001     A   33563 32470  33161
 =A(16)        4 0000295C 00000001     A   18476 17648
 =A(2)         4 000054C4 00000001     A   28453 28105
 =A(2)         4 000065D0 00000001     A   33545 30218  30782  32236  32654
 =A(2)         4 000072E4 00000001     A   36921 33907  33919  34066  34078
 =A(256)       4 000072E0 00000001     A   36920 33888  33900  34047  34059
 =A(3)         4 0000661C 00000001     A   33564 32693
 =A(4)         4 00002894 00000001     A   18448 15047  15555  17575
 =A(4)         4 00003684 00000001     A   21291 18605  18668  19065  19127  19518  19862  19874  20592  20695  21096
                                                 21199
1WBUG     (WBUG2025) (13:00) (15MAR04) Ordinary Symbol and Literal Cross Reference                                          Page  208
 =A(4)         4 00003F48 00000001     A   23019 21516  21611
 =A(4)         4 00004640 00000001     A   24137 23993
 =A(4)         4 000065D4 00000001     A   33546 30281  30845  32275  32732
 =A(5)         4 00006620 00000001     A   33565 32771
 =A(6)         4 000065D8 00000001     A   33547 30326  32810
 =A(65536)
               4 000054C0 00000001     A   28452 27882
 =A(7)         4 00006608 00000001     A   33559 32314  32849
 =A(8)         4 00002898 00000001     A   18449 15075  15583  17603
 =A(8)         4 00003688 00000001     A   21292 18633  18691  19093  19150  19546  20620  20717  21124  21227
 =A(8)         4 00003F50 00000001     A   23021 21538  21633
 =A(8)         4 00004644 00000001     A   24138 24021
 =A(8)         4 000054AC 00000001     A   28447 26699
 =A(8)         4 0000660C 00000001     A   33560 32353  32888
 =A(9)         4 00002948 00000001     A   18471 17062
 =A(9)         4 000054C8 00000001     A   28454 28119
 =A(9)         4 00005A30 00000001     A   29704 29345  29500
 =A(9)         4 00006624 00000001     A   33566 32927
 =AL2(CVPSZ)
               2 000054DA 00000001     R   28459 27483  27542
 =AL2(L'DBTRAP)
               2 00002A2C 00000001     R   18490 17656
 =AL2(L'JCB)
               2 00001A86 00000001     R   14461 13040
 =AL2(TRAPCODE)
               2 00000C76 00000001     R   10971  9086   9150
 =AL2(TRAPCODE)
               2 00001020 00000001     R   12063 11227  11236
 =AL2(1)       2 00007362 00000001     R   36940 36325
 =AL4(-1)      4 00003F80 00000001     R   23033 21770
 =AL4(1)       4 00003FB4 00000001     R   23044 22806
 =AL4(2)       4 00003FB8 00000001     R   23045 22846
 =AL4(3)       4 00003FBC 00000001     R   23046 22886
 =C'    '      4 000072F4 00000001     C   36925 34697
 =C'   0'      4 00004C64 00000001     C   25494 25300
 =C'  ... trap(s) hit and ignored in dispatcher.'
              44 000072FC 00000001     C   36927 35100
 =C'  (minus,mixed,low)'
              19 000040DF 00000001     C   23063 22816
 =C'  (ones,overflow)'
              17 00004103 00000001     C   23065 22896
 =C'  (positive,high)'
              17 000040F2 00000001     C   23064 22856
 =C'  (zero,equal)'
              14 00004044 00000001     C   23055 22776
 =C'  '        2 00004042 00000001     C   23054 22428
 =C' ('        2 00002A2A 00000001     C   18489 17116
 =C' ('        2 00007354 00000001     C   36937 35350  35673  35899  36032
 =C' (line '
               7 00001BAC 00000001     C   14472 13265  13328  13414
 =C' '         1 00002B51 00000001     C   18500 16138  16200  17037  17072
 =C' '         1 000040DB 00000001     C   23061 22340  22383
 =C' '         1 00004C93 00000001     C   25501 25358
 =C' '         1 00005A4B 00000001     C   29712 29355  29463  29510  29618
 =C' '         1 000066DE 00000001     C   33601 30158  30256  30722  30792  30855
 =C' = '       3 00005A4C 00000001     C   29713 29417  29572
 =C' is not logged on.'
              18 00001A62 00000001     C   14459 12661
 =C' is not owned.'
1WBUG     (WBUG2025) (13:00) (15MAR04) Ordinary Symbol and Literal Cross Reference                                          Page  209
              14 0000401A 00000001     C   23052 21862
 =C' is owned by '
              13 0000407F 00000001     C   23057 21895
 =C' set at ('
               9 00002B48 00000001     C   18499 16080
 =C' set at '
               8 00002860 00000001     C   18437 16717
 =C' stopped at '
              12 00007338 00000001     C   36932 35204  35271  35650  35876  36009
 =C' Command ignored. '
              18 00004008 00000001     C   23051 21736
 =C' R'        2 00005A48 00000001     C   29710 29377  29532
 =C'.'         1 0000408C 00000001     C   23058 21918
 =C'.'         1 00007389 00000001     C   36947 36270
 =C'('         1 000066EC 00000001     C   33607 31940
 =C'(R'        2 0000663A 00000001     C   33573 31292  31627  31761  32066  33229
 =C'+0'        2 00007364 00000001     C   36941 36563  36826
 =C') at '
               5 00002B5F 00000001     C   18502 17213
 =C') instruction.'
              14 00002A1C 00000001     C   18488 16246
 =C') is debugging '
              15 00001BB3 00000001     C   14473 13304
 =C') is waiting to debug an unspecified user.'
              42 00001A8A 00000001     C   14463 13453
 =C').'        2 00001A88 00000001     C   14462 13367
 =C'), '       3 00007371 00000001     C   36943 35181
 =C'), user '
               8 00001A00 00000001     C   14437 12724
 =C'),'        2 0000663C 00000001     C   33574 32025
 =C'),X'''
               4 000065F8 00000001     C   33555 31803
 =C')'         1 000066EB 00000001     C   33606 31429  31669  32108  33366
 =C'----'      4 0000294C 00000001     C   18472 17191
 =C','         1 000066EA 00000001     C   33605 31238  31361  31586  33298
 =C',R'        2 00006638 00000001     C   33572 31103  31544  31983
 =C'???   ???'
               9 000066E0 00000001     C   33603 30992
 =C': invalid hex digits'
              20 000036B4 00000001     C   21303 19706  20346
 =C'#'         1 0000738A 00000001     C   36948 36335
 =C''''        1 000066DF 00000001     C   33602 30394  30448  31848
 =C'entry)'
               6 0000735C 00000001     C   36939 35450  35947
 =C'return)'
               7 0000737B 00000001     C   36945 35487  36080
 =C'routine.'
               8 00002868 00000001     C   18438 16765
 =C'systems.'
               8 00002858 00000001     C   18436 15482
 =C'trace)'
               6 00007356 00000001     C   36938 35413  35721
 =C'B     '
               6 000066CE 00000001     C   33599 33171
 =C'BE    '
               6 000066A4 00000001     C   33592 32898
 =C'BE-   '
               6 000066AA 00000001     C   33593 32937
 =C'BER   '
1WBUG     (WBUG2025) (13:00) (15MAR04) Ordinary Symbol and Literal Cross Reference                                          Page  210
               6 0000665C 00000001     C   33580 32363
 =C'BH    '
               6 00006680 00000001     C   33586 32664
 =C'BH-   '
               6 00006686 00000001     C   33587 32703
 =C'BHR   '
               6 0000664A 00000001     C   33577 32246
 =C'BL    '
               6 0000668C 00000001     C   33588 32742
 =C'BL-   '
               6 00006692 00000001     C   33589 32781
 =C'BLR   '
               6 00006650 00000001     C   33578 32285
 =C'BNE   '
               6 0000669E 00000001     C   33591 32859
 =C'BNE-  '
               6 00006698 00000001     C   33590 32820
 =C'BNER  '
               6 00006656 00000001     C   33579 32324
 =C'BNH   '
               6 000066C2 00000001     C   33597 33093
 =C'BNH-  '
               6 000066BC 00000001     C   33596 33054
 =C'BNHR  '
               6 00006668 00000001     C   33582 32441
 =C'BNL   '
               6 000066B6 00000001     C   33595 33015
 =C'BNL-  '
               6 000066B0 00000001     C   33594 32976
 =C'BNLR  '
               6 00006662 00000001     C   33581 32402
 =C'BNO   '
               6 000066C8 00000001     C   33598 33132
 =C'BO    '
               6 0000667A 00000001     C   33585 32625
 =C'BOR   '
               6 00006644 00000001     C   33576 32207
 =C'BR    '
               6 0000666E 00000001     C   33583 32480
 =C'Command aborted by debugger.'
              28 000028C4 00000001     C   18454 15304
 =C'Current line not debugger.'
              26 00002974 00000001     C   18482 14586  14842
 =C'Current line not debugger.'
              26 00003768 00000001     C   21318 20543  21047
 =C'Current line not debugger.'
              26 00004028 00000001     C   23053 22264  22642
 =C'Current line not debugger.'
              26 0000466C 00000001     C   24142 23175  23943
 =C'CC='       3 000040DC 00000001     C   23062 22718
 =C'CP      '
               8 00005440 00000001     C   28427 26827  27294  27370
 =C'CP      '
               8 000072C0 00000001     C   36917 34295
 =C'CV      '
               8 000072B8 00000001     C   36916 34293
 =C'Debugger may not debug itself.  Command ignored.'
              48 000019D0 00000001     C   14436 12596
 =C'Debugging session already active.'
1WBUG     (WBUG2025) (13:00) (15MAR04) Ordinary Symbol and Literal Cross Reference                                          Page  211
              33 00001B15 00000001     C   14467 12480
 =C'Debugging session not active.'
              29 00001B8F 00000001     C   14471 13203  13609
 =C'Debugging session not active.'
              29 00002A2E 00000001     C   18491 14557  14813
 =C'Debugging session not active.'
              29 000037EF 00000001     C   21326 20514  21018
 =C'Debugging session not active.'
              29 0000408D 00000001     C   23059 22235  22613
 =C'Debugging session not active.'
              29 00004688 00000001     C   24144 23146  23914
 =C'Debugging session terminated. '
              30 00001AB4 00000001     C   14464 13840
 =C'Debugging session terminated.'
              29 00001BC2 00000001     C   14474 13664  13738  13895
 =C'Do it anyway'
              12 00001A10 00000001     C   14440 12437
 =C'Do it anyway'
              12 000028E8 00000001     C   18457 15498
 =C'Done.'
               5 000037EA 00000001     C   21325 20056
 =C'DBAREA  '
               8 00005470 00000001     C   28433 27135
 =C'DC'        2 00006634 00000001     C   33570 30370
 =C'ENTRY   '
               8 00004C20 00000001     C   25478 24768
 =C'EX instructions may not be trapped.  Command ignored.'
              53 00002B0E 00000001     C   18497 15926
 =C'HEAP    '
               8 00005450 00000001     C   28429 26935  27458  28361
 =C'Invalid address expression.'
              27 000037BD 00000001     C   21322 18643  19103  19556
 =C'Invalid address expression.'
              27 00004C78 00000001     C   25500 25227
 =C'Invalid address.'
              16 00002848 00000001     C   18435 15085  15111
 =C'Invalid address.'
              16 00003628 00000001     C   21285 19817
 =C'Invalid address.'
              16 00004618 00000001     C   24130 24031  24057
 =C'Invalid address.'
              16 00005A08 00000001     C   29697 28729
 =C'Invalid address.'
              16 00006598 00000001     C   33534 30020  30647
 =C'Invalid address.'
              16 000072D0 00000001     C   36919 34486
 =C'Invalid address, command ignored.'
              33 00002AC0 00000001     C   18495 15838
 =C'Invalid instruction address.'
              28 000028A4 00000001     C   18452 15137
 =C'Invalid instruction address.'
              28 00004650 00000001     C   24141 24083
 =C'Invalid instruction address, command ignored.'
              45 00002AE1 00000001     C   18496 15879  15969
 =C'Invalid length expression.'
              26 00003708 00000001     C   21314 18701  19160
 =C'Invalid or missing page number specification.'
              45 00004052 00000001     C   23056 21471
 =C'Invalid page length specification.'
1WBUG     (WBUG2025) (13:00) (15MAR04) Ordinary Symbol and Literal Cross Reference                                          Page  212
              34 00003FE2 00000001     C   23048 21643
 =C'Invalid page offset specification.'
              34 00003FC0 00000001     C   23047 21548
 =C'Invalid patch value specified.'
              30 00003784 00000001     C   21320 21237
 =C'Invalid register specification for 2nd register.'
              48 00003638 00000001     C   21286 20727  20768
 =C'Invalid register specification.'
              31 0000383D 00000001     C   21328 20630  20671  21134  21175
 =C'Invalid trap (address) specification, command ignored.'
              54 00002990 00000001     C   18484 15593
 =C'Invalid trap specification.'
              27 00002B64 00000001     C   18503 17613
 =C'INTERRUPT ('
              11 00007366 00000001     C   36942 35138
 =C'JCB     '
               8 00005458 00000001     C   28430 26959  27631  27729
 =C'Line '
               5 00001B61 00000001     C   14469 12622
 =C'Missing address expression.'
              27 000037A2 00000001     C   21321 18615  19075  19528
 =C'Missing address operand.'
              24 00002830 00000001     C   18434 15057
 =C'Missing address operand.'
              24 00004600 00000001     C   24129 24003
 =C'Missing debug command.'
              22 00001AD2 00000001     C   14465 14080
 =C'Missing operands'
              16 00003668 00000001     C   21287 21106
 =C'Missing patch value operand.'
              28 000036EC 00000001     C   21313 21209
 =C'No such trap found.'
              19 00002B7F 00000001     C   18504 17787  18004
 =C'No Traps set.'
              13 00002B52 00000001     C   18501 16960
 =C'Not in debugging session break.  Command ignored.'
              49 00002A4B 00000001     C   18492 14612  14868
 =C'Not in debugging session break.  Command ignored.'
              49 0000380C 00000001     C   21327 20569  21073
 =C'Not in debugging session break.  Command ignored.'
              49 000040AA 00000001     C   23060 22290  22668
 =C'Not in debugging session break.  Command ignored.'
              49 000046A5 00000001     C   24145 23201  23969
 =C'NOP   '
               6 00006674 00000001     C   33584 32586
 =C'NOPR  '
               6 0000663E 00000001     C   33575 32168
 =C'Old data was '
              13 000037D8 00000001     C   21323 19829
 =C'OK to debug line ('
              18 00001A74 00000001     C   14460 12685
 =C'OPERAND(S)'
              10 000066D4 00000001     C   33600 33439
 =C'Page number '
              12 00003F84 00000001     C   23034 21787
 =C'Patch'
               5 000037E5 00000001     C   21324 19984
 =C'PGA     '
               8 00005460 00000001     C   28431 27043  27513
1WBUG     (WBUG2025) (13:00) (15MAR04) Ordinary Symbol and Literal Cross Reference                                          Page  213
 =C'PGB     '
               8 00005468 00000001     C   28432 27089  27572
 =C'R'         1 000066E9 00000001     C   33604 31061  31196  31502  32502
 =C'SET DEBUG is only available for test systems.'
              45 00001AE8 00000001     C   14466 12421
 =C'STACK   '
               8 00005448 00000001     C   28428 26911  27416  28338
 =C'STACK   '
               8 000072C8 00000001     C   36918 34297
 =C'SVC instructions may not be trapped.  Command ignored.'
              54 000029E6 00000001     C   18487 15903
 =C'Terminal paused, waiting for debug break.'
              41 00001B66 00000001     C   14470 12759
 =C'Trap '
               5 00002B43 00000001     C   18498 16040  16677
 =C'Trap already there, command ignored.'
              36 00002904 00000001     C   18462 15735  16581
 =C'Trap cleared.'
              13 00002B92 00000001     C   18505 17824
 =C'Trap specification missing.'
              27 00002AA5 00000001     C   18494 15565  17585
 =C'Trap table full. Trap not set.'
              30 000029C8 00000001     C   18486 15809  16653
 =C'TRACE, '
               7 00007382 00000001     C   36946 35623  35849  35986
 =C'TRAP,  '
               7 00007374 00000001     C   36944 35248  35587  35813
 =C'Unable to disassemble debuggee CP, STACK, HEAP, or DIR'
              54 00003724 00000001     C   21316 19212
 =C'Use CLEAR DEBUG to terminate debug session.'
              43 00001B36 00000001     C   14468 12498
 =C'Verify failed.'
              14 0000375A 00000001     C   21317 19955
 =C'WDEBUG TRAPS are only available for test '
              41 00002A7C 00000001     C   18493 15464
 =CL1')'       1 00005A4A 00000001     C   29711 28932
 =CL4'(RA='
               4 00005A28 00000001     C   29702 28924
 =CL8'CR'      8 000019C8 00000001     C   14435 12593
 =CL8'DBAREA'
               8 00000BD8 00000001     C   10932  7177
 =F'-1'        4 00003F4C 00000001     F   23020 21522
 =F'0'         4 00005478 00000001     F   28434 25611
 =F'1'         4 00002960 00000001     F   18477 17655
 =F'1'         4 00005488 00000001     F   28438 26012
 =F'128'       4 00003F58 00000001     F   23023 21617
 =F'2'         4 000065BC 00000001     F   33540 30094
 =F'8'         4 00004C48 00000001     F   25487 24775
 =V(BTX)       4 00005A24 00000001     V   29701 28753  28760  28767  28774  28781  28835  28930
 =V(CV)        4 00000C04 00000001     V   10942  8175
 =V(CV)        4 00004C40 00000001     V   25485 24592
 =V(DBGREAD)
               4 00003F70 00000001     V   23029 21702
 =V(DEQSTR)
               4 000036A8 00000001     V   21300 19649  20289
 =V(DISPATCH)
               4 000010AC 00000001     V   12318 12274
 =V(DTB)       4 00005490 00000001     V   28440 26053  26399
 =V(FREECORE)
1WBUG     (WBUG2025) (13:00) (15MAR04) Ordinary Symbol and Literal Cross Reference                                          Page  214
               4 00000BFC 00000001     V   10940  8026
 =V(GETCORE)
               4 00000BE8 00000001     V   10935  7522
 =V(GETRSC)
               4 000010A8 00000001     V   12317 12166
 =V(HEXFMT)
               4 000036D4 00000001     V   21307 19882
 =V(HEXSTR)
               4 000036AC 00000001     V   21301 19665  20305
 =V(NOTVALID)
               4 00001A08 00000001     V   14438 12396  13063  13174  13580  14028
 =V(NOTVALID)
               4 00002880 00000001     V   18443 14784  16893  18185
 =V(NOTVALID)
               4 00003678 00000001     V   21288 18580  19040  19484  19789  20486  20989
 =V(NOTVALID)
               4 00003F38 00000001     V   23015 21442  22108  22206
 =V(NOTVALID)
               4 00004638 00000001     V   24135 23885
 =V(NSCAN)
               4 00001A28 00000001     V   14444 12541  14060
 =V(NSCAN)
               4 00002888 00000001     V   18445 14910  15626  16924
 =V(NSCAN)
               4 00003694 00000001     V   21295 18768  19245  19613  19759  20802
 =V(NSCAN)
               4 00003F60 00000001     V   23025 21671  22319  22697
 =V(NSCAN)
               4 00004630 00000001     V   24133 23237
 =V(NSCAN)
               4 00004C30 00000001     V   25481 24229  25257
 =V(NSCAN)
               4 0000547C 00000001     V   28435 25633  25829  28026
 =V(PGETNEW)
               4 00003F68 00000001     V   23027 21692
 =V(PJUNKA)
               4 00003F78 00000001     V   23031 21727  21957
 =V(PLOCKA)
               4 00000C50 00000001     V   10961 10400  10588
 =V(PLOCKA)
               4 00003F6C 00000001     V   23028 21697
 =V(PLOCKB)
               4 00000C54 00000001     V   10962 10404  10597
 =V(PUNLOCKA)
               4 00000C58 00000001     V   10963 10484
 =V(PUNLOCKA)
               4 00003F74 00000001     V   23030 21721  21951
 =V(PUNLOCKB)
               4 00000C5C 00000001     V   10964 10488
 =V(SCANCHK)
               4 00001A2C 00000001     V   14445 12555  14074
 =V(SCANCHK)
               4 0000288C 00000001     V   18446 14924  15640  16938
 =V(SCANCHK)
               4 00003698 00000001     V   21296 18782  19259  19627  19773  20816
 =V(SCANCHK)
               4 00003F64 00000001     V   23026 21685  22333  22711
 =V(SCANCHK)
               4 00004634 00000001     V   24134 23251
1WBUG     (WBUG2025) (13:00) (15MAR04) Ordinary Symbol and Literal Cross Reference                                          Page  215
 =V(SCANCHK)
               4 00004C34 00000001     V   25482 24243  25271
 =V(SCANCHK)
               4 00005480 00000001     V   28436 25647  25843  28040
 =V(SCUPCASE)
               4 00005484 00000001     V   28437 25712  25908  28057
 =V(SEG)       4 00001A30 00000001     V   14446 12634  12673  12697  12736  13215  13277  13316  13340  13426  13465
                                                 13676  13750  13852  13907
 =V(SEG)       4 000028E0 00000001     V   18455 15476  16052  16092  16150  16212  16689  16729  16972  17049  17084
                                                 17128  17203  17225
 =V(SEG)       4 000036B0 00000001     V   21302 19700  19841  20340
 =V(SEG)       4 00003F7C 00000001     V   23032 21748  21799  21907  22352  22395  22440  22730  22788  22828  22868
                                                 22908
 =V(SEG)       4 00004C68 00000001     V   25495 25312  25370
 =V(SEG)       4 00005A34 00000001     V   29705 29367  29389  29429  29475  29522  29544  29584  29630
 =V(SEG)       4 000065C0 00000001     V   33541 30170  30268  30382  30406  30440  30460  30734  30804  30867  31004
                                                 31055  31073  31115  31190  31208  31250  31304  31373  31441  31496
                                                 31514  31556  31598  31639  31681  31732  31773  31815  31860  31911
                                                 31952  31995  32037  32078  32120  32180  32219  32258  32297  32336
                                                 32375  32414  32453  32492  32514  32598  32637  32676  32715  32754
                                                 32793  32832  32871  32910  32949  32988  33027  33066  33105  33144
                                                 33183  33241  33310  33378  33433  33451
 =V(SEG)       4 0000732C 00000001     V   36929 35150  35193  35216  35260  35283  35362  35425  35462  35499  35599
                                                 35635  35662  35685  35733  35825  35861  35888  35911  35959  35998
                                                 36021  36044  36092  36264  36282  36310  36347  36575  36838
 =V(SEGCOL)
               4 00005A44 00000001     V   29709 29486
 =V(SEGCOL)
               4 000065C8 00000001     V   33543 30181  30364  30388  30745  30902
 =V(SEGCR)
               4 00000BF8 00000001     V   10939  8020
 =V(SEGCR)
               4 00001A0C 00000001     V   14439 12433  12492  12510  13379
 =V(SEGCR)
               4 000028E4 00000001     V   18456 15494  16258  16777  17322  17836
 =V(SEGCR)
               4 00003F94 00000001     V   23036 21874  21930
 =V(SEGCR)
               4 00005A1C 00000001     V   29699 28677  28741  28972  29328  29660
 =V(SEGCR)
               4 000065B8 00000001     V   33539 30083  30485  30711  33491
 =V(SEGCR)
               4 00007328 00000001     V   36928 35112  36138
 =V(SEGDC)
               4 00001A34 00000001     V   14447 12655  12718  13298  13361  13447
 =V(SEGDC)
               4 00002934 00000001     V   18466 16074  16711  17110
 =V(SEGDC)
               4 00003F90 00000001     V   23035 21821  22752
 =V(SEGDC)
               4 00004C60 00000001     V   25493 25294
 =V(SEGDC)
               4 00005A38 00000001     V   29706 29411  29566
 =V(SEGDC)
               4 000065E4 00000001     V   33550 31097  31139  31232  31273  31342  31419  31538  31580  31621  31663
                                                 31755  31797  31934  31977  32019  32060  32102  32538  33210  33279
                                                 33356
 =V(SEGDC)
               4 0000734C 00000001     V   36935 36375
1WBUG     (WBUG2025) (13:00) (15MAR04) Ordinary Symbol and Literal Cross Reference                                          Page  216
 =V(SEGHX)
               4 00002938 00000001     V   18467 16116  16174  16236  17170
 =V(SEGHX)
               4 00003FA4 00000001     V   23040 22377  22422
 =V(SEGHX)
               4 00004C6C 00000001     V   25496 25348
 =V(SEGHX)
               4 00005A3C 00000001     V   29707 29457  29612
 =V(SEGHX)
               4 000065CC 00000001     V   33544 30205  30246  30309  30354  30769  30828  30891  31842
 =V(SEGHX)
               4 00007330 00000001     V   36930 35175  36597  36641  36860
 =V(SEGT)      4 00007350 00000001     V   36936 36543  36806
 =V(SEGTB)
               4 00002940 00000001     V   18469 16759  17293
 =V(SEGTB)
               4 00007348 00000001     V   36934 35392  35715  35941  36074
 =V(SEGWR)
               4 00000C00 00000001     V   10941  8059
 =V(SEGWR)
               4 00001A3C 00000001     V   14449 12771
 =V(SYMBOLS)
               4 000054B0 00000001     V   28448 26731  27752
 =V(XTB)       4 0000548C 00000001     V   28439 26033  26293
 =V(YESREQ)
               4 00001A1C 00000001     V   14441 12441  12746
 =V(YESREQ)
               4 000028F4 00000001     V   18458 15502
 =V(YESREQ)
               4 000036D8 00000001     V   21308 19988
 =X'FF000000'
               4 0000549C 00000001     X   28443 26114
 =X'00FF0000'
               4 000065FC 00000001     X   33556 31818  31955
 =X'00F00000'
               4 000065E0 00000001     X   33549 31076  31211  31517  32144  32562
 =X'000FF000'
               4 000065F0 00000001     X   33553 31276  33213
 =X'000F0000'
               4 000065E8 00000001     X   33551 31118  31307  31559  32517  33244
 =X'0000F000'
               4 000065F4 00000001     X   33554 31345  31384  31642  31776  31998  32081  33282  33321
 =X'00000FFF'
               4 000065EC 00000001     X   33552 31253  31601  31735  31914  32040  33190
 =X'00000000'
               4 000054BC 00000001     X   28451 27849
 =X'80000000'
               4 00000C20 00000001     X   10949  8351  10809
 =X'80000000'
               4 00003FA8 00000001     X   23041 22398
 =Y((L'NSCNCB+3)/4*4)
               2 000054DC 00000001     Y   28460 28178
 =Y((R1+1-(R0)+16*((R0)/(R1+1))/((R0)/(R1+1)))*4)
               2 00003782 00000001     Y   21319 20819
 =Y((12+3)/4*4)
               2 00001A60 00000001     Y   14458 12547  14066
 =Y((12+3)/4*4)
               2 0000298E 00000001     Y   18483 14916  15632  16930
 =Y((12+3)/4*4)
1WBUG     (WBUG2025) (13:00) (15MAR04) Ordinary Symbol and Literal Cross Reference                                          Page  217
               2 00003722 00000001     Y   21315 18774  19251  19619  19765  20808
 =Y((12+3)/4*4)
               2 00004004 00000001     Y   23049 21677  22325  22703
 =Y((12+3)/4*4)
               2 00004686 00000001     Y   24143 23243
 =Y((12+3)/4*4)
               2 00004C74 00000001     Y   25498 24235  25263
 =Y((12+3)/4*4)
               2 000054D8 00000001     Y   28458 25639  25835  28032
 =Y((8+3)/4*4)
               2 00006636 00000001     Y   33571 30443
 =Y(4)         2 00000C74 00000001     Y   10970  8475
 =Y(4)         2 000029C6 00000001     Y   18485 15643
 =Y(4)         2 00004006 00000001     Y   23050 21730
 =Y(4)         2 00004C76 00000001     Y   25499 24956

1WBUG     (WBUG2025) (13:00) (15MAR04) Macro and Copy Code Source Summary                                                   Page  218
- Con Source                                        Volume    Members                        HLASM R4.0  2004/03/15 13.00
0     PRIMARY INPUT                                           COMMENT  CSECT    DROP     END      EX       INSTR
                                                              LTORG    POP      PRINT    PUSH     START    STOP
                                                              USING
   L1 WYL.GS.WYL.WYLBUR.MACLIB                      SYSB05    ABORT    AINFO    BASE     BOMB     COLINFO  CONTROL  CP
                                                              CPLOCAL  CV       CVLOCAL  ERROR    GETRSC   JCB
                                                              KAPUT    PAUSE    PFREE    RG       SCAN     SCANCB
                                                              SCANCHK  SCCBADR  SCINFO   SCINIT   SCKW     SCPOP
                                                              SCPUSH   SCUPCASE SETUP    SYMBOL   TCCR     TCR      THEX
                                                              TNUM     TP       TSEG     TTYPE    TWRITE   XTRACE
   L2 WYL.GG.SYS.MACLIB                             SYSB05    $BC      $BFLKUP  $BV      $CCLKUP  $CRS     $CSS     $L
                                                              $LA      $LBLAD   $LEXP    $LOR     $REL     $RGLKUP
                                                              $USLKUP  ACALL    BEGIN    CEIL     CLEAR    CMPR
                                                              COMPROC  CSECT    DATA     DECR     DEFCC    DEX
                                                              DPROC    DROP     DTEX     ELSE     END      EX       FLAG
                                                              FLOOR    GEN      HIBAL    IDENT    IF       LABEL    LC
                                                              LCM      LS       LT       LTH      LTORG    L2       L3
                                                              MOVE     MOVEL    PEND     POP      PRETURN  PRINT    PROC
                                                              PUSH     QLTORG   RECORD   REG      REGS     SET
                                                              SETMSG   START    UNTIL    USING    VCALL    WHILE    WITH
                                                              XPROC
   L3 SYS3.IS.MACLIB                                SYSB05    SEG      SEGCB    SEGCR    SEGDC    SEGHX    SEGLD
                                                              SEGWR    SIB      SYSDEFN  XPOP     XPUSH
   L5 SYS1.MACLIB                                   MVSBR9    ESPIE

1WBUG     (WBUG2025) (13:00) (15MAR04) Dsect Cross Reference                                                                Page  219
-Dsect     Length      Id       Defn                                                         HLASM R4.0  2004/03/15 13.00
0$$$@R0   00000000  FFFFFFFE     705
 $$$@R1   00000000  FFFFFFFD     718
 $$$@R10  00000000  FFFFFFF4     835
 $$$@R11  00000000  FFFFFFF3     848
 $$$@R12  00000000  FFFFFFF2     861
 $$$@R13  00000000  FFFFFFF1     874
 $$$@R14  00000000  FFFFFFF0     887
 $$$@R15  00000000  FFFFFFEF     900
 $$$@R2   00000000  FFFFFFFC     731
 $$$@R3   00000000  FFFFFFFB     744
 $$$@R4   00000000  FFFFFFFA     757
 $$$@R5   00000000  FFFFFFF9     770
 $$$@R6   00000000  FFFFFFF8     783
 $$$@R7   00000000  FFFFFFF7     796
 $$$@R8   00000000  FFFFFFF6     809
 $$$@R9   00000000  FFFFFFF5     822
 $$$RCHKIWA
          00000008  FFFFFFD7   34146
 $$$RCKINWA
          00000008  FFFFFFD6   34378
 $$$RCP   00001000  FFFFFFEC    2452
 $$$RCV   00000FB0  FFFFFFEE    1177
 $$$RDBTRAP
          00000010  FFFFFFE6    6821
 $$$RDCWA 00000068  FFFFFFD9   28481
 $$$RDEV  0000000C  FFFFFFEB    4666
 $$$RDMWA 00000010  FFFFFFD8   29722
 $$$REPIE 00000054  FFFFFFE1   10891
 $$$REVWA 00000005  FFFFFFDC   25529
 $$$REVWA2
          00000010  FFFFFFDB   26595
 $$$RIRECORD
          00000008  FFFFFFE5    6910
 $$$RJCB  000000D0  FFFFFFE9    6304
 $$$RNSCNCB
          000000B0  FFFFFFED    2373
 $$$RPCWA 000001DD  FFFFFFDE   19365
 $$$RREWA 00000010  FFFFFFDA   28233
 $$$RSEGCB
          0000003C  FFFFFFE8    6584
 $$$RSTOPWA
          00000008  FFFFFFD5   34973
 $$$RSTWA 00000010  FFFFFFE2    9208
 $$$RSYMBOL
          00000010  FFFFFFE4    6976
 $$$RTAWA 00000008  FFFFFFD4   36417
 $$$RTP   00000010  FFFFFFE3    7021
 $$$RTSWA 00000008  FFFFFFD3   36682
 $$$RTTYPE
          0000010C  FFFFFFEA    6197
 $$$RWCTWA
          00000008  FFFFFFDF   17439
 $$$RWSPGWA
          00000014  FFFFFFDD   21346
 $$$RWSTWA
1WBUG     (WBUG2025) (13:00) (15MAR04) Dsect Cross Reference                                                                Page  220
          00000009  FFFFFFE0   15346
 DBDSECT  000C62B4  FFFFFFE7    6724
 HIBAL    00000000  FFFFFFFF     691

1WBUG     (WBUG2025) (13:00) (15MAR04) Using Map                                                                            Page  221
-                                                                                            HLASM R4.0  2004/03/15 13.00
   Stmt  -----Location----- Action ----------------Using----------------- Reg Max    Last  Label and Using Text
           Count      Id           Type          Value    Range     Id        Disp   Stmt
0   922  00000000  FFFFFFFF USING  ORDINARY    00000000 00001000 FFFFFFEF  15 000          @R15,15
    926  00000000  FFFFFFFF USING  ORDINARY    00000000 00001000 FFFFFFF0  14 002    2168  @R14,14
    930  00000000  FFFFFFFF USING  ORDINARY    00000000 00001000 FFFFFFF1  13 000   28179  @R13,13
    934  00000000  FFFFFFFF USING  ORDINARY    00000000 00001000 FFFFFFF2  12 000          @R12,12
    938  00000000  FFFFFFFF USING  ORDINARY    00000000 00001000 FFFFFFF3  11 000          @R11,11
    942  00000000  FFFFFFFF USING  ORDINARY    00000000 00001000 FFFFFFF4  10 000          @R10,10
    946  00000000  FFFFFFFF USING  ORDINARY    00000000 00001000 FFFFFFF5   9 000          @R9,9
    950  00000000  FFFFFFFF USING  ORDINARY    00000000 00001000 FFFFFFF6   8 000          @R8,8
    954  00000000  FFFFFFFF USING  ORDINARY    00000000 00001000 FFFFFFF7   7 000          @R7,7
    958  00000000  FFFFFFFF USING  ORDINARY    00000000 00001000 FFFFFFF8   6 000          @R6,6
    962  00000000  FFFFFFFF USING  ORDINARY    00000000 00001000 FFFFFFF9   5 000          @R5,5
    966  00000000  FFFFFFFF USING  ORDINARY    00000000 00001000 FFFFFFFA   4 008    8009  @R4,4
    970  00000000  FFFFFFFF USING  ORDINARY    00000000 00001000 FFFFFFFB   3 000          @R3,3
    974  00000000  FFFFFFFF USING  ORDINARY    00000000 00001000 FFFFFFFC   2 008   16218  @R2,2
    978  00000000  FFFFFFFF USING  ORDINARY    00000000 00001000 FFFFFFFD   1 001    2167  @R1,1
    982  00000000  FFFFFFFF USING  ORDINARY    00000000 00001000 FFFFFFFE   0 000          @R0,0
    983  00000000  FFFFFFFF DROP                                            0              0
   1161  00000017  00000001 USING  ORDINARY    00000000 00001000 FFFFFFEC  11 D60   36857  CP,CPR
   1170  00000017  00000001 USING  ORDINARY    00000000 00001000 FFFFFFEE  12 8B4   36728  CV,CVR
   7121  00000032  00000001 USING  ORDINARY    00000032 00001000 00000001   7 BB2    7177  $$$52B,7
   7185  00000070  00000001 USING  ORDINARY    00000000 00001000 FFFFFFF7   7 000          @R7,7
   7335  00000202  00000001 USING  ORDINARY    00000202 00001000 00000001   7 9EE    7683  $$$64B,7
   7354  00000206  00000001 USING  ORDINARY    00000000 00001000 FFFFFFE7   6 01C    7680  DBDSECT,R6
   7369  00000208  00000001 USING  ORDINARY    00000000 00001000 FFFFFFE8   5 00C    7646  SEGCB,R5
   7709  000002D4  00000001 USING  ORDINARY    00000000 00001000 FFFFFFF9   5 000          @R5,5
   7714  000002D4  00000001 USING  ORDINARY    00000000 00001000 FFFFFFF8   6 000          @R6,6
   7719  000002D4  00000001 USING  ORDINARY    00000000 00001000 FFFFFFF7   7 000          @R7,7
   7771  000002FC  00000001 USING  ORDINARY    000002FC 00001000 00000001   7 8F0    7830  $$$78B,7
   7790  00000300  00000001 USING  ORDINARY    00000000 00001000 FFFFFFE7   6 018    7827  DBDSECT,R6
   7844  00000320  00000001 USING  ORDINARY    00000000 00001000 FFFFFFF8   6 000          @R6,6
   7849  00000320  00000001 USING  ORDINARY    00000000 00001000 FFFFFFF7   7 000          @R7,7
   7905  00000348  00000001 USING  ORDINARY    00000348 00001000 00000001   7 8B8    8059  $$$82B,7
   7924  0000034C  00000001 USING  ORDINARY    00000000 00001000 FFFFFFE7   6 01C    7988  DBDSECT,R6
   7939  00000350  00000001 USING  ORDINARY    00000000 00001000 FFFFFFE8   5 000          SEGCB,R5
   8067  0000039A  00000001 USING  ORDINARY    00000000 00001000 FFFFFFF9   5 000          @R5,5
   8072  0000039A  00000001 USING  ORDINARY    00000000 00001000 FFFFFFF8   6 000          @R6,6
   8077  0000039A  00000001 USING  ORDINARY    00000000 00001000 FFFFFFF7   7 000          @R7,7
   8136  000003A8  00000001 USING  ORDINARY    000003A8 00001000 00000001  15 7D4    8142  $$$87B,R15
   8152  000003B0  00000001 USING  ORDINARY    00000000 00001000 FFFFFFEF  15 000          @R15,15
   8163  000003B2  00000001 USING  ORDINARY    000003B2 00001000 00000001   7 8C2    8549  $$$88B,BR
   8173  000003B6  00000001 USING  ORDINARY    00000000 00001000 FFFFFFE7   6 2FC   36023  DBDSECT,R6
   8270  0000040A  00000001 USING  ORDINARY    00000000 00001000 FFFFFFE1   1 050    8280  EPIE,R1
   8287  0000041E  00000001 USING  ORDINARY    00000000 00001000 FFFFFFFD   1 000          @R1,1
   8346  0000043C  00000001 USING  ORDINARY    00000000 00001000 FFFFFFE1   1 04C    8352  EPIE,R1
   8359  00000448  00000001 USING  ORDINARY    00000000 00001000 FFFFFFFD   1 000          @R1,1
   8413  00000468  00000001 USING  ORDINARY    00000000 00001000 FFFFFFE1   1 04C    8442  EPIE,R1
   8449  00000482  00000001 USING  ORDINARY    00000000 00001000 FFFFFFFD   1 000          @R1,1
   8504  000004C2  00000001 USING  ORDINARY    00000000 00001000 FFFFFFE1   1 04C    8554  EPIE,R1
   8561  000004E6  00000001 USING  ORDINARY    00000000 00001000 FFFFFFFD   1 000          @R1,1
   8595  00000504  00000001 USING  ORDINARY    00000504 00001000 00000001  15 67C    8600  $$$99B,R15
   8615  0000051E  00000001 USING  ORDINARY    00000000 00001000 FFFFFFEF  15 000          @R15,15
   8656  00000538  00000001 USING  ORDINARY    00000000 00001000 FFFFFFF7   7 000          @R7,7
   8659  00000538  00000001 USING  ORDINARY    00000538 00001000 00000001   7 644    8789  $$$101B,7
1WBUG     (WBUG2025) (13:00) (15MAR04) Using Map                                                                            Page  222
   8678  0000053C  00000001 USING  ORDINARY    00000000 00001000 FFFFFFE1   1 04C    8683  EPIE,R1
   8691  00000544  00000001 USING  ORDINARY    00000000 00001000 FFFFFFFD   1 000          @R1,1
   8702  00000544  00000001 USING  ORDINARY    00000000 00001000 FFFFFFE6   5 010    8741  DBTRAP,R5
   8754  00000564  00000001 USING  ORDINARY    00000000 00001000 FFFFFFF9   5 000          @R5,5
   8810  00000576  00000001 USING  ORDINARY    00000000 00001000 FFFFFFF7   7 000          @R7,7
   8813  00000576  00000001 USING  ORDINARY    000003B2 00001000 00000001   7 000          $$$88B,7
   8863  00000594  00000001 USING  ORDINARY    00000000 00001000 FFFFFFF7   7 000          @R7,7
   8866  00000594  00000001 USING  ORDINARY    00000594 00001000 00000001   7 02A    8933  $$$109B,7
   8884  00000594  00000001 USING  ORDINARY    00000000 00001000 FFFFFFE6   5 010    8929  DBTRAP,R5
   8941  000005BE  00000001 USING  ORDINARY    00000000 00001000 FFFFFFF9   5 000          @R5,5
   8953  000005BE  00000001 USING  ORDINARY    00000000 00001000 FFFFFFF7   7 000          @R7,7
   8956  000005BE  00000001 USING  ORDINARY    000003B2 00001000 00000001   7 000          $$$88B,7
   9007  000005DC  00000001 USING  ORDINARY    00000000 00001000 FFFFFFF7   7 000          @R7,7
   9010  000005DC  00000001 USING  ORDINARY    000005DC 00001000 00000001   7 69A    9161  $$$115B,7
   9047  000005E4  00000001 USING  ORDINARY    00000000 00001000 FFFFFFE6   5 010    9164  DBTRAP,R5
   9171  0000064A  00000001 USING  ORDINARY    00000000 00001000 FFFFFFF9   5 000          @R5,5
   9188  0000064A  00000001 USING  ORDINARY    00000000 00001000 FFFFFFF7   7 000          @R7,7
   9191  0000064A  00000001 USING  ORDINARY    000003B2 00001000 00000001   7 000          $$$88B,7
   9270  00000668  00000001 USING  ORDINARY    00000000 00001000 FFFFFFF7   7 000          @R7,7
   9273  00000668  00000001 USING  ORDINARY    00000668 00001000 00000001   7 5C0    9323  $$$126B,7
   9287  00000668  00000001 USING  ORDINARY    FFFFFFD8 00001000 FFFFFFE2   8 028    9317  STWA-(4+36),R8
   9300  00000668  00000001 USING  ORDINARY    00000000 00001000 FFFFFFE6   5 004    9320  DBTRAP,R5
   9331  00000692  00000001 USING  ORDINARY    00000000 00001000 FFFFFFF9   5 000          @R5,5
   9339  00000692  00000001 USING  ORDINARY    00000000 00001000 FFFFFFF6   8 000          @R8,8
   9348  00000692  00000001 USING  ORDINARY    00000000 00001000 FFFFFFF7   7 000          @R7,7
   9351  00000692  00000001 USING  ORDINARY    000003B2 00001000 00000001   7 000          $$$88B,7
   9413  000006BA  00000001 USING  ORDINARY    00000000 00001000 FFFFFFF7   7 000          @R7,7
   9416  000006BA  00000001 USING  ORDINARY    000006BA 00001000 00000001   7 592    9888  $$$129B,7
   9600  00000726  00000001 USING  ORDINARY    00000000 00001000 FFFFFFE6   5 010    9801  DBTRAP,R5
   9825  000007EA  00000001 USING  ORDINARY    00000000 00001000 FFFFFFF9   5 000          @R5,5
   9905  0000082A  00000001 USING  ORDINARY    00000000 00001000 FFFFFFF7   7 000          @R7,7
   9908  0000082A  00000001 USING  ORDINARY    000003B2 00001000 00000001   7 000          $$$88B,7
   9962  00000852  00000001 USING  ORDINARY    00000000 00001000 FFFFFFF7   7 000          @R7,7
   9965  00000852  00000001 USING  ORDINARY    00000852 00001000 00000001   7 3FA   10061  $$$148B,7
   9984  00000856  00000001 USING  ORDINARY    00000000 00001000 FFFFFFE6   5 00C   10034  DBTRAP,R5
  10070  000008AE  00000001 USING  ORDINARY    00000000 00001000 FFFFFFF9   5 000          @R5,5
  10085  000008AE  00000001 USING  ORDINARY    00000000 00001000 FFFFFFF7   7 000          @R7,7
  10088  000008AE  00000001 USING  ORDINARY    000003B2 00001000 00000001   7 000          $$$88B,7
  10140  000008D6  00000001 USING  ORDINARY    00000000 00001000 FFFFFFF7   7 000          @R7,7
  10143  000008D6  00000001 USING  ORDINARY    000008D6 00001000 00000001   7 362   10288  $$$153B,7
  10166  000008DE  00000001 USING  ORDINARY    00000000 00001000 FFFFFFE1   1 052   10180  EPIE,R1
  10190  00000916  00000001 USING  ORDINARY    00000000 00001000 FFFFFFFD   1 000          @R1,1
  10206  00000920  00000001 USING  ORDINARY    00000000 00001000 FFFFFFE6   5 010   10298  DBTRAP,R5
  10309  00000960  00000001 USING  ORDINARY    00000000 00001000 FFFFFFF9   5 000          @R5,5
  10330  0000096E  00000001 USING  ORDINARY    00000000 00001000 FFFFFFF7   7 000          @R7,7
  10333  0000096E  00000001 USING  ORDINARY    000003B2 00001000 00000001   7 000          $$$88B,7
  10386  00000996  00000001 USING  ORDINARY    00000000 00001000 FFFFFFF7   7 000          @R7,7
  10389  00000996  00000001 USING  ORDINARY    00000996 00001000 00000001   7 2BE   10404  $$$161B,7
  10416  000009A2  00000001 USING  ORDINARY    00000000 00001000 FFFFFFF7   7 000          @R7,7
  10419  000009A2  00000001 USING  ORDINARY    000003B2 00001000 00000001   7 000          $$$88B,7
  10470  000009CA  00000001 USING  ORDINARY    00000000 00001000 FFFFFFF7   7 000          @R7,7
  10473  000009CA  00000001 USING  ORDINARY    000009CA 00001000 00000001   7 292   10488  $$$164B,7
  10500  000009D6  00000001 USING  ORDINARY    00000000 00001000 FFFFFFF7   7 000          @R7,7
  10503  000009D6  00000001 USING  ORDINARY    000003B2 00001000 00000001   7 000          $$$88B,7
  10556  000009FE  00000001 USING  ORDINARY    00000000 00001000 FFFFFFF7   7 000          @R7,7
  10559  000009FE  00000001 USING  ORDINARY    000009FE 00001000 00000001   7 26A   10597  $$$167B,7
  10614  00000A4A  00000001 USING  ORDINARY    00000000 00001000 FFFFFFF7   7 000          @R7,7
  10617  00000A4A  00000001 USING  ORDINARY    000003B2 00001000 00000001   7 000          $$$88B,7
  10670  00000A72  00000001 USING  ORDINARY    00000000 00001000 FFFFFFF7   7 000          @R7,7
1WBUG     (WBUG2025) (13:00) (15MAR04) Using Map                                                                            Page  223
  10673  00000A72  00000001 USING  ORDINARY    00000A72 00001000 00000001   7 1F6   10697  $$$170B,7
  10726  00000AB6  00000001 USING  ORDINARY    00000000 00001000 FFFFFFF7   7 000          @R7,7
  10729  00000AB6  00000001 USING  ORDINARY    000003B2 00001000 00000001   7 000          $$$88B,7
  10782  00000ADE  00000001 USING  ORDINARY    00000000 00001000 FFFFFFF7   7 000          @R7,7
  10785  00000ADE  00000001 USING  ORDINARY    00000ADE 00001000 00000001   7 192   10846  $$$173B,7
  10804  00000AE2  00000001 USING  ORDINARY    00000000 00001000 FFFFFFE1   1 04C   10817  EPIE,R1
  10825  00000B10  00000001 USING  ORDINARY    00000000 00001000 FFFFFFFD   1 000          @R1,1
  10868  00000B2C  00000001 USING  ORDINARY    00000000 00001000 FFFFFFF7   7 000          @R7,7
  10871  00000B2C  00000001 USING  ORDINARY    000003B2 00001000 00000001   7 000          $$$88B,7
  11017  00000C92  00000001 USING  ORDINARY    00000000 00001000 FFFFFFF7   7 000          @R7,7
  11020  00000C92  00000001 USING  ORDINARY    00000C92 00001000 00000001   7 390   11325  $$$177B,7
  11039  00000C96  00000001 USING  ORDINARY    00000000 00001000 FFFFFFE6   5 010   11238  DBTRAP,R5
  11337  00000D96  00000001 USING  ORDINARY    00000000 00001000 FFFFFFF9   5 000          @R5,5
  11354  00000D96  00000001 USING  ORDINARY    00000000 00001000 FFFFFFF7   7 000          @R7,7
  11357  00000D96  00000001 USING  ORDINARY    000003B2 00001000 00000001   7 000          $$$88B,7
  11409  00000DBE  00000001 USING  ORDINARY    00000000 00001000 FFFFFFF7   7 000          @R7,7
  11412  00000DBE  00000001 USING  ORDINARY    00000DBE 00001000 00000001   7 038   11472  $$$194B,7
  11431  00000DC2  00000001 USING  ORDINARY    00000000 00001000 FFFFFFE6   5 000   11488  DBTRAP,R5
  11512  00000E32  00000001 USING  ORDINARY    00000000 00001000 FFFFFFF9   5 000          @R5,5
  11524  00000E32  00000001 USING  ORDINARY    00000000 00001000 FFFFFFF7   7 000          @R7,7
  11527  00000E32  00000001 USING  ORDINARY    000003B2 00001000 00000001   7 000          $$$88B,7
  11579  00000E5A  00000001 USING  ORDINARY    00000000 00001000 FFFFFFF7   7 000          @R7,7
  11582  00000E5A  00000001 USING  ORDINARY    00000E5A 00001000 00000001   7 03A   11630  $$$199B,7
  11663  00000EB0  00000001 USING  ORDINARY    00000000 00001000 FFFFFFE6   5 000   11668  DBTRAP,R5
  11691  00000EEC  00000001 USING  ORDINARY    00000000 00001000 FFFFFFF9   5 000          @R5,5
  11704  00000EEC  00000001 USING  ORDINARY    00000000 00001000 FFFFFFF7   7 000          @R7,7
  11707  00000EEC  00000001 USING  ORDINARY    000003B2 00001000 00000001   7 000          $$$88B,7
  11759  00000F14  00000001 USING  ORDINARY    00000000 00001000 FFFFFFF7   7 000          @R7,7
  11762  00000F14  00000001 USING  ORDINARY    00000F14 00001000 00000001   7 038   11822  $$$204B,7
  11781  00000F18  00000001 USING  ORDINARY    00000000 00001000 FFFFFFE6   5 000   11838  DBTRAP,R5
  11852  00000F66  00000001 USING  ORDINARY    00000000 00001000 FFFFFFF9   5 000          @R5,5
  11864  00000F66  00000001 USING  ORDINARY    00000000 00001000 FFFFFFF7   7 000          @R7,7
  11867  00000F66  00000001 USING  ORDINARY    000003B2 00001000 00000001   7 000          $$$88B,7
  11919  00000F8E  00000001 USING  ORDINARY    00000000 00001000 FFFFFFF7   7 000          @R7,7
  11922  00000F8E  00000001 USING  ORDINARY    00000F8E 00001000 00000001   7 03A   11970  $$$209B,7
  12003  00000FE4  00000001 USING  ORDINARY    00000000 00001000 FFFFFFE6   5 000   12008  DBTRAP,R5
  12021  00000FFE  00000001 USING  ORDINARY    00000000 00001000 FFFFFFF9   5 000          @R5,5
  12034  00000FFE  00000001 USING  ORDINARY    00000000 00001000 FFFFFFF7   7 000          @R7,7
  12037  00000FFE  00000001 USING  ORDINARY    000003B2 00001000 00000001   7 000          $$$88B,7
  12106  00001042  00000001 USING  ORDINARY    00000000 00001000 FFFFFFF7   7 000          @R7,7
  12109  00001042  00000001 USING  ORDINARY    00001042 00001000 00000001   7 066   12166  $$$214B,7
  12128  00001044  00000001 USING  ORDINARY    00000000 00001000 FFFFFFE9   5 060   12139  JCB,R5
  12174  0000105E  00000001 USING  ORDINARY    00000000 00001000 FFFFFFF9   5 000          @R5,5
  12183  0000105E  00000001 USING  ORDINARY    00000000 00001000 FFFFFFF7   7 000          @R7,7
  12186  0000105E  00000001 USING  ORDINARY    000003B2 00001000 00000001   7 000          $$$88B,7
  12237  00001086  00000001 USING  ORDINARY    00000000 00001000 FFFFFFF7   7 000          @R7,7
  12240  00001086  00000001 USING  ORDINARY    00001086 00001000 00000001   7 026   12274  $$$217B,7
  12259  00001088  00000001 USING  ORDINARY    00000000 00001000 FFFFFFE9   5 060   12269  JCB,R5
  12283  0000109A  00000001 USING  ORDINARY    00000000 00001000 FFFFFFF9   5 000          @R5,5
  12292  0000109A  00000001 USING  ORDINARY    00000000 00001000 FFFFFFF7   7 000          @R7,7
  12295  0000109A  00000001 USING  ORDINARY    000003B2 00001000 00000001   7 000          $$$88B,7
  12366  000010CA  00000001 USING  ORDINARY    00000000 00001000 FFFFFFF7   7 000          @R7,7
  12369  000010CA  00000001 USING  ORDINARY    000010CA 00001000 00000001   7 A9C   12931  $$$220B,7
  12459  00001106  00000001 USING  ORDINARY    00000000 00001000 FFFFFFE9   5 060   12703  JCB,R5
  12948  000012BC  00000001 USING  ORDINARY    00000000 00001000 FFFFFFF7   7 000          @R7,7
  12951  000012BC  00000001 USING  ORDINARY    000003B2 00001000 00000001   7 000          $$$88B,7
  13028  00001336  00000001 USING  ORDINARY    00000000 00001000 FFFFFFF7   7 000          @R7,7
  13031  00001336  00000001 USING  ORDINARY    00001336 00001000 00000001   7 750   13063  $$$234B,7
  13081  00001352  00000001 USING  ORDINARY    00000000 00001000 FFFFFFF7   7 000          @R7,7
1WBUG     (WBUG2025) (13:00) (15MAR04) Using Map                                                                            Page  224
  13084  00001352  00000001 USING  ORDINARY    000003B2 00001000 00000001   7 000          $$$88B,7
  13103  00001360  00000001 USING  ORDINARY    00000000 00001000 FFFFFFF9   5 000          @R5,5
  13144  0000137A  00000001 USING  ORDINARY    00000000 00001000 FFFFFFF7   7 000          @R7,7
  13147  0000137A  00000001 USING  ORDINARY    0000137A 00001000 00000001   7 839   13465  $$$238B,7
  13232  000013AA  00000001 USING  ORDINARY    00000000 00001000 FFFFFFE9   5 048   13432  JCB,R5
  13477  0000147E  00000001 USING  ORDINARY    00000000 00001000 FFFFFFF9   5 000          @R5,5
  13491  00001482  00000001 USING  ORDINARY    00000000 00001000 FFFFFFF7   7 000          @R7,7
  13494  00001482  00000001 USING  ORDINARY    000003B2 00001000 00000001   7 000          $$$88B,7
  13550  000014AA  00000001 USING  ORDINARY    00000000 00001000 FFFFFFF7   7 000          @R7,7
  13553  000014AA  00000001 USING  ORDINARY    000014AA 00001000 00000001   7 718   13909  $$$245B,7
  13800  0000155A  00000001 USING  ORDINARY    00000000 00001000 FFFFFFE9   5 060   13869  JCB,R5
  13920  000015C6  00000001 USING  ORDINARY    00000000 00001000 FFFFFFF9   5 000          @R5,5
  13941  000015CA  00000001 USING  ORDINARY    00000000 00001000 FFFFFFF7   7 000          @R7,7
  13944  000015CA  00000001 USING  ORDINARY    000003B2 00001000 00000001   7 000          $$$88B,7
  13998  000015F2  00000001 USING  ORDINARY    00000000 00001000 FFFFFFF7   7 000          @R7,7
  14001  000015F2  00000001 USING  ORDINARY    000015F2 00001000 00000001   7 4E0   14080  $$$257B,7
  14093  00001668  00000001 USING  ORDINARY    00000000 00001000 FFFFFFF7   7 000          @R7,7
  14096  00001668  00000001 USING  ORDINARY    000003B2 00001000 00000001   7 000          $$$88B,7
  14520  00001BFA  00000001 USING  ORDINARY    00000000 00001000 FFFFFFF7   7 000          @R7,7
  14523  00001BFA  00000001 USING  ORDINARY    00001BFA 00001000 00000001   7 E51   14676  $$$261B,7
  14697  00001C6C  00000001 USING  ORDINARY    00000000 00001000 FFFFFFF7   7 000          @R7,7
  14700  00001C6C  00000001 USING  ORDINARY    000003B2 00001000 00000001   7 000          $$$88B,7
  14754  00001C94  00000001 USING  ORDINARY    00000000 00001000 FFFFFFF7   7 000          @R7,7
  14757  00001C94  00000001 USING  ORDINARY    00001C94 00001000 00000001   7 DB7   14924  $$$269B,7
  15007  00001DE2  00000001 USING  ORDINARY    00000000 00001000 FFFFFFF7   7 000          @R7,7
  15010  00001DE2  00000001 USING  ORDINARY    00001DE2 00001000 00000001   7 ADE   15148  $$$275B,7
  15162  00001E5A  00000001 USING  ORDINARY    00000000 00001000 FFFFFFF7   7 000          @R7,7
  15165  00001E5A  00000001 USING  ORDINARY    00001C94 00001000 00000001   7 000          $$$269B,7
  15212  00001E82  00000001 USING  ORDINARY    00000000 00001000 FFFFFFF7   7 000          @R7,7
  15215  00001E82  00000001 USING  ORDINARY    00001E82 00001000 00000001   7 A3E   15228  $$$282B,7
  15242  00001E92  00000001 USING  ORDINARY    00000000 00001000 FFFFFFF7   7 000          @R7,7
  15245  00001E92  00000001 USING  ORDINARY    00001C94 00001000 00000001   7 000          $$$269B,7
  15290  00001EBA  00000001 USING  ORDINARY    00000000 00001000 FFFFFFF7   7 000          @R7,7
  15293  00001EBA  00000001 USING  ORDINARY    00001EBA 00001000 00000001   7 A0A   15312  $$$285B,7
  15326  00001EDA  00000001 USING  ORDINARY    00000000 00001000 FFFFFFF7   7 000          @R7,7
  15329  00001EDA  00000001 USING  ORDINARY    00001C94 00001000 00000001   7 000          $$$269B,7
  15413  00001F02  00000001 USING  ORDINARY    00000000 00001000 FFFFFFF7   7 000          @R7,7
  15416  00001F02  00000001 USING  ORDINARY    00001F02 00001000 00000001   7 C4F   16273  $$$288B,7
  15430  00001F02  00000001 USING  ORDINARY    FFFFFFD8 00001000 FFFFFFE0   8 030   15854  WSTWA-(4+36),R8
  15657  00001FF8  00000001 USING  ORDINARY    00000000 00001000 FFFFFFE6   5 010   16270  DBTRAP,R5
  16281  000021CE  00000001 USING  ORDINARY    00000000 00001000 FFFFFFF9   5 000          @R5,5
  16293  000021D2  00000001 USING  ORDINARY    00000000 00001000 FFFFFFF6   8 000          @R8,8
  16302  000021D2  00000001 USING  ORDINARY    00000000 00001000 FFFFFFF7   7 000          @R7,7
  16305  000021D2  00000001 USING  ORDINARY    00001C94 00001000 00000001   7 000          $$$269B,7
  16385  0000224A  00000001 USING  ORDINARY    00000000 00001000 FFFFFFF7   7 000          @R7,7
  16388  0000224A  00000001 USING  ORDINARY    0000224A 00001000 00000001   7 000          $$$316B,7
  16404  0000224A  00000001 USING  ORDINARY    00000000 00001000 FFFFFFE0   4 008   16411  WSTWA,R4
  16422  0000224E  00000001 USING  ORDINARY    00000000 00001000 FFFFFFF7   7 000          @R7,7
  16425  0000224E  00000001 USING  ORDINARY    00001C94 00001000 00000001   7 000          $$$269B,7
  16444  0000225C  00000001 USING  ORDINARY    00000000 00001000 FFFFFFFA   4 000          @R4,4
  16487  00002276  00000001 USING  ORDINARY    00000000 00001000 FFFFFFF7   7 000          @R7,7
  16490  00002276  00000001 USING  ORDINARY    00002276 00001000 00000001   7 8CD   16777  $$$319B,7
  16506  00002276  00000001 USING  ORDINARY    00000000 00001000 FFFFFFE0   2 000   16741  WSTWA,R2
  16521  0000227A  00000001 USING  ORDINARY    00000000 00001000 FFFFFFE6   5 010   16669  DBTRAP,R5
  16785  0000234A  00000001 USING  ORDINARY    00000000 00001000 FFFFFFF9   5 000          @R5,5
  16798  0000234A  00000001 USING  ORDINARY    00000000 00001000 FFFFFFF7   7 000          @R7,7
  16801  0000234A  00000001 USING  ORDINARY    00001C94 00001000 00000001   7 000          $$$269B,7
  16820  00002358  00000001 USING  ORDINARY    00000000 00001000 FFFFFFFC   2 000          @R2,2
  16863  00002372  00000001 USING  ORDINARY    00000000 00001000 FFFFFFF7   7 000          @R7,7
1WBUG     (WBUG2025) (13:00) (15MAR04) Using Map                                                                            Page  225
  16866  00002372  00000001 USING  ORDINARY    00002372 00001000 00000001   7 7ED   17334  $$$330B,7
  16991  00002402  00000001 USING  ORDINARY    00000000 00001000 FFFFFFE6   5 010   17328  DBTRAP,R5
  17342  000024F2  00000001 USING  ORDINARY    00000000 00001000 FFFFFFF9   5 000          @R5,5
  17355  000024F6  00000001 USING  ORDINARY    00000000 00001000 FFFFFFF7   7 000          @R7,7
  17358  000024F6  00000001 USING  ORDINARY    00001C94 00001000 00000001   7 000          $$$269B,7
  17498  000025BE  00000001 USING  ORDINARY    00000000 00001000 FFFFFFF7   7 000          @R7,7
  17501  000025BE  00000001 USING  ORDINARY    000025BE 00001000 00000001   7 5D4   17836  $$$343B,7
  17515  000025BE  00000001 USING  ORDINARY    FFFFFFD8 00001000 FFFFFFDF   8 028   17549  WCTWA-(4+36),R8
  17528  000025BE  00000001 USING  ORDINARY    00000000 00001000 FFFFFFE6   5 010   17803  DBTRAP,R5
  17815  000026A2  00000001 USING  ORDINARY    00000000 00001000 FFFFFFF9   5 000          @R5,5
  17845  000026B8  00000001 USING  ORDINARY    00000000 00001000 FFFFFFF6   8 000          @R8,8
  17854  000026B8  00000001 USING  ORDINARY    00000000 00001000 FFFFFFF7   7 000          @R7,7
  17857  000026B8  00000001 USING  ORDINARY    00001C94 00001000 00000001   7 000          $$$269B,7
  17912  000026E0  00000001 USING  ORDINARY    00000000 00001000 FFFFFFF7   7 000          @R7,7
  17915  000026E0  00000001 USING  ORDINARY    000026E0 00001000 00000001   7 49F   18056  $$$358B,7
  17931  000026E0  00000001 USING  ORDINARY    00000000 00001000 FFFFFFDF   2 000   17973  WCTWA,R2
  17943  000026E4  00000001 USING  ORDINARY    00000000 00001000 FFFFFFE6   5 010   18067  DBTRAP,R5
  18078  00002744  00000001 USING  ORDINARY    00000000 00001000 FFFFFFF9   5 000          @R5,5
  18091  00002744  00000001 USING  ORDINARY    00000000 00001000 FFFFFFF7   7 000          @R7,7
  18094  00002744  00000001 USING  ORDINARY    00001C94 00001000 00000001   7 000          $$$269B,7
  18113  00002752  00000001 USING  ORDINARY    00000000 00001000 FFFFFFFC   2 000   20037  @R2,2
  18155  0000276C  00000001 USING  ORDINARY    00000000 00001000 FFFFFFF7   7 000          @R7,7
  18158  0000276C  00000001 USING  ORDINARY    0000276C 00001000 00000001   7 1FC   18216  $$$367B,7
  18234  00002796  00000001 USING  ORDINARY    00000000 00001000 FFFFFFF7   7 000          @R7,7
  18237  00002796  00000001 USING  ORDINARY    00001C94 00001000 00000001   7 000          $$$269B,7
  18289  000027BE  00000001 USING  ORDINARY    00000000 00001000 FFFFFFF7   7 000          @R7,7
  18292  000027BE  00000001 USING  ORDINARY    000027BE 00001000 00000001   7 1B2   18311  $$$372B,7
  18323  000027D6  00000001 USING  ORDINARY    00000000 00001000 FFFFFFF7   7 000          @R7,7
  18326  000027D6  00000001 USING  ORDINARY    00001C94 00001000 00000001   7 000          $$$269B,7
  18378  000027FE  00000001 USING  ORDINARY    00000000 00001000 FFFFFFF7   7 000          @R7,7
  18381  000027FE  00000001 USING  ORDINARY    000027FE 00001000 00000001   7 16E   18392  $$$375B,7
  18408  00002810  00000001 USING  ORDINARY    00000000 00001000 FFFFFFF7   7 000          @R7,7
  18411  00002810  00000001 USING  ORDINARY    00001C94 00001000 00000001   7 000          $$$269B,7
  18550  00002BBA  00000001 USING  ORDINARY    00000000 00001000 FFFFFFF7   7 000          @R7,7
  18553  00002BBA  00000001 USING  ORDINARY    00002BBA 00001000 00000001   7 C03   18790  $$$378B,7
  18803  00002CA8  00000001 USING  ORDINARY    00000000 00001000 FFFFFFF7   7 000          @R7,7
  18806  00002CA8  00000001 USING  ORDINARY    00001C94 00001000 00000001   7 000          $$$269B,7
  18930  00002D9A  00000001 USING  ORDINARY    00000000 00001000 FFFFFFF7   7 000          @R7,7
  18933  00002D9A  00000001 USING  ORDINARY    00002D9A 00001000 00000001   7 000          $$$387B,7
  18953  00002D9E  00000001 USING  ORDINARY    00000000 00001000 FFFFFFF7   7 000          @R7,7
  18956  00002D9E  00000001 USING  ORDINARY    00001C94 00001000 00000001   7 000          $$$269B,7
  19010  00002DC6  00000001 USING  ORDINARY    00000000 00001000 FFFFFFF7   7 000          @R7,7
  19013  00002DC6  00000001 USING  ORDINARY    00002DC6 00001000 00000001   7 9F7   19267  $$$390B,7
  19280  00002EBC  00000001 USING  ORDINARY    00000000 00001000 FFFFFFF7   7 000          @R7,7
  19283  00002EBC  00000001 USING  ORDINARY    00001C94 00001000 00000001   7 000          $$$269B,7
  19435  00002F86  00000001 USING  ORDINARY    00000000 00001000 FFFFFFF7   7 000          @R7,7
  19438  00002F86  00000001 USING  ORDINARY    00002F86 00001000 00000001   7 8DC   20056  $$$400B,7
  19452  00002F86  00000001 USING  ORDINARY    FFFFFFD8 00001000 FFFFFFDE   8 028   19456  PCWA-(4+36),R8
  19464  00002F8A  00000001 USING  ORDINARY    00000000 00001000 FFFFFFDE   5 100   20376  PCWA,R5
  20065  0000319C  00000001 USING  ORDINARY    00000000 00001000 FFFFFFF6   8 000          @R8,8
  20074  0000319C  00000001 USING  ORDINARY    00000000 00001000 FFFFFFF7   7 000          @R7,7
  20077  0000319C  00000001 USING  ORDINARY    00001C94 00001000 00000001   7 000          $$$269B,7
  20198  0000328E  00000001 USING  ORDINARY    00000000 00001000 FFFFFFF7   7 000          @R7,7
  20201  0000328E  00000001 USING  ORDINARY    0000328E 00001000 00000001   7 000          $$$424B,7
  20226  00003292  00000001 USING  ORDINARY    00000000 00001000 FFFFFFF7   7 000          @R7,7
  20229  00003292  00000001 USING  ORDINARY    00001C94 00001000 00000001   7 000          $$$269B,7
  20274  000032BA  00000001 USING  ORDINARY    00000000 00001000 FFFFFFF7   7 000          @R7,7
  20277  000032BA  00000001 USING  ORDINARY    000032BA 00001000 00000001   7 422   20371  $$$427B,7
  20391  000032FE  00000001 USING  ORDINARY    00000000 00001000 FFFFFFF7   7 000          @R7,7
1WBUG     (WBUG2025) (13:00) (15MAR04) Using Map                                                                            Page  226
  20394  000032FE  00000001 USING  ORDINARY    00001C94 00001000 00000001   7 000          $$$269B,7
  20414  0000330C  00000001 USING  ORDINARY    00000000 00001000 FFFFFFF9   5 000          @R5,5
  20456  00003326  00000001 USING  ORDINARY    00000000 00001000 FFFFFFF7   7 000          @R7,7
  20459  00003326  00000001 USING  ORDINARY    00003326 00001000 00000001   7 517   20824  $$$433B,7
  20837  00003478  00000001 USING  ORDINARY    00000000 00001000 FFFFFFF7   7 000          @R7,7
  20840  00003478  00000001 USING  ORDINARY    00001C94 00001000 00000001   7 000          $$$269B,7
  20959  00003542  00000001 USING  ORDINARY    00000000 00001000 FFFFFFF7   7 000          @R7,7
  20962  00003542  00000001 USING  ORDINARY    00003542 00001000 00000001   7 2FB   21237  $$$448B,7
  21260  00003616  00000001 USING  ORDINARY    00000000 00001000 FFFFFFF7   7 000          @R7,7
  21263  00003616  00000001 USING  ORDINARY    00001C94 00001000 00000001   7 000          $$$269B,7
  21401  00003882  00000001 USING  ORDINARY    00000000 00001000 FFFFFFF7   7 000          @R7,7
  21404  00003882  00000001 USING  ORDINARY    00003882 00001000 00000001   7 80A   21957  $$$461B,7
  21418  00003882  00000001 USING  ORDINARY    FFFFFFD8 00001000 FFFFFFDD   8 038   21944  WSPGWA-(4+36),R8
  21966  00003A7C  00000001 USING  ORDINARY    00000000 00001000 FFFFFFF6   8 000          @R8,8
  21975  00003A7C  00000001 USING  ORDINARY    00000000 00001000 FFFFFFF7   7 000          @R7,7
  21978  00003A7C  00000001 USING  ORDINARY    00001C94 00001000 00000001   7 000          $$$269B,7
  22094  00003B46  00000001 USING  ORDINARY    00000000 00001000 FFFFFFF7   7 000          @R7,7
  22097  00003B46  00000001 USING  ORDINARY    00003B46 00001000 00000001   7 3F2   22108  $$$478B,7
  22120  00003B4C  00000001 USING  ORDINARY    00000000 00001000 FFFFFFF7   7 000          @R7,7
  22123  00003B4C  00000001 USING  ORDINARY    00001C94 00001000 00000001   7 000          $$$269B,7
  22176  00003B74  00000001 USING  ORDINARY    00000000 00001000 FFFFFFF7   7 000          @R7,7
  22179  00003B74  00000001 USING  ORDINARY    00003B74 00001000 00000001   7 567   22445  $$$481B,7
  22459  00003C8C  00000001 USING  ORDINARY    00000000 00001000 FFFFFFF7   7 000          @R7,7
  22462  00003C8C  00000001 USING  ORDINARY    00001C94 00001000 00000001   7 000          $$$269B,7
  22579  00003D56  00000001 USING  ORDINARY    00000000 00001000 FFFFFFF7   7 000          @R7,7
  22582  00003D56  00000001 USING  ORDINARY    00003D56 00001000 00000001   7 3AD   22908  $$$488B,7
  22925  00003E86  00000001 USING  ORDINARY    00000000 00001000 FFFFFFF7   7 000          @R7,7
  22928  00003E86  00000001 USING  ORDINARY    00001C94 00001000 00000001   7 000          $$$269B,7
  23111  0000412E  00000001 USING  ORDINARY    00000000 00001000 FFFFFFF7   7 000          @R7,7
  23114  0000412E  00000001 USING  ORDINARY    0000412E 00001000 00000001   7 577   23251  $$$498B,7
  23264  000041D2  00000001 USING  ORDINARY    00000000 00001000 FFFFFFF7   7 000          @R7,7
  23267  000041D2  00000001 USING  ORDINARY    00001C94 00001000 00000001   7 000          $$$269B,7
  23558  0000447A  00000001 USING  ORDINARY    00000000 00001000 FFFFFFF7   7 000          @R7,7
  23561  0000447A  00000001 USING  ORDINARY    0000447A 00001000 00000001   7 000          $$$504B,7
  23582  00004482  00000001 USING  ORDINARY    00000000 00001000 FFFFFFF7   7 000          @R7,7
  23585  00004482  00000001 USING  ORDINARY    00001C94 00001000 00000001   7 000          $$$269B,7
  23630  000044AA  00000001 USING  ORDINARY    00000000 00001000 FFFFFFF7   7 000          @R7,7
  23633  000044AA  00000001 USING  ORDINARY    000044AA 00001000 00000001   7 000          $$$507B,7
  23654  000044B2  00000001 USING  ORDINARY    00000000 00001000 FFFFFFF7   7 000          @R7,7
  23657  000044B2  00000001 USING  ORDINARY    00001C94 00001000 00000001   7 000          $$$269B,7
  23702  000044DA  00000001 USING  ORDINARY    00000000 00001000 FFFFFFF7   7 000          @R7,7
  23705  000044DA  00000001 USING  ORDINARY    000044DA 00001000 00000001   7 000          $$$510B,7
  23726  000044E2  00000001 USING  ORDINARY    00000000 00001000 FFFFFFF7   7 000          @R7,7
  23729  000044E2  00000001 USING  ORDINARY    00001C94 00001000 00000001   7 000          $$$269B,7
  23774  0000450A  00000001 USING  ORDINARY    00000000 00001000 FFFFFFF7   7 000          @R7,7
  23777  0000450A  00000001 USING  ORDINARY    0000450A 00001000 00000001   7 000          $$$513B,7
  23798  00004512  00000001 USING  ORDINARY    00000000 00001000 FFFFFFF7   7 000          @R7,7
  23801  00004512  00000001 USING  ORDINARY    00001C94 00001000 00000001   7 000          $$$269B,7
  23855  0000453A  00000001 USING  ORDINARY    00000000 00001000 FFFFFFF7   7 000          @R7,7
  23858  0000453A  00000001 USING  ORDINARY    0000453A 00001000 00000001   7 16B   24083  $$$516B,7
  24104  000045EC  00000001 USING  ORDINARY    00000000 00001000 FFFFFFF7   7 000          @R7,7
  24107  000045EC  00000001 USING  ORDINARY    00001C94 00001000 00000001   7 000          $$$269B,7
  24194  000046F0  00000001 USING  ORDINARY    00000000 00001000 FFFFFFF7   7 000          @R7,7
  24197  000046F0  00000001 USING  ORDINARY    000046F0 00001000 00000001   7 584   24243  $$$527B,7
  24256  00004750  00000001 USING  ORDINARY    00000000 00001000 FFFFFFF7   7 000          @R7,7
  24259  00004750  00000001 USING  ORDINARY    00001C94 00001000 00000001   7 000          $$$269B,7
  24398  0000486A  00000001 USING  ORDINARY    00000000 00001000 FFFFFFF7   7 000          @R7,7
  24401  0000486A  00000001 USING  ORDINARY    0000486A 00001000 00000001   7 000          $$$530B,7
  24426  0000486E  00000001 USING  ORDINARY    00000000 00001000 FFFFFFF7   7 000          @R7,7
1WBUG     (WBUG2025) (13:00) (15MAR04) Using Map                                                                            Page  227
  24429  0000486E  00000001 USING  ORDINARY    00001C94 00001000 00000001   7 000          $$$269B,7
  24477  00004896  00000001 USING  ORDINARY    00000000 00001000 FFFFFFF7   7 000          @R7,7
  24480  00004896  00000001 USING  ORDINARY    00004896 00001000 00000001   7 3A6   24509  $$$533B,7
  24521  000048B2  00000001 USING  ORDINARY    00000000 00001000 FFFFFFF7   7 000          @R7,7
  24524  000048B2  00000001 USING  ORDINARY    00001C94 00001000 00000001   7 000          $$$269B,7
  24564  000048C2  00000001 USING  ORDINARY    000048C2 00001000 00000001   1 366   24566  $$$535B,R1
  24573  000048CA  00000001 USING  ORDINARY    00000000 00001000 FFFFFFFD   1 000   26462  @R1,1
  24584  000048CC  00000001 USING  ORDINARY    00000000 00001000 FFFFFFF7   7 000          @R7,7
  24587  000048CC  00000001 USING  ORDINARY    000048CC 00001000 00000001   7 3AA   25128  $$$536B,BR
  24723  00004914  00000001 USING  ORDINARY    00000000 00001000 FFFFFFE3   5 010   24768  TP,R5
  24793  0000495C  00000001 USING  ORDINARY    00000000 00001000 FFFFFFF9   5 000          @R5,5
  24805  0000495C  00000001 USING  ORDINARY    00000000 00001000 FFFFFFE6   5 010   25130  DBTRAP,R5
  25145  00004A86  00000001 USING  ORDINARY    00000000 00001000 FFFFFFF9   5 000   30613  @R5,5
  25193  00004AA6  00000001 USING  ORDINARY    00000000 00001000 FFFFFFF7   7 000          @R7,7
  25196  00004AA6  00000001 USING  ORDINARY    00004AA6 00001000 00000001   7 1ED   25375  $$$559B,7
  25388  00004B6C  00000001 USING  ORDINARY    00000000 00001000 FFFFFFF7   7 000          @R7,7
  25391  00004B6C  00000001 USING  ORDINARY    000048CC 00001000 00000001   7 000          $$$536B,7
  25583  00004CAE  00000001 USING  ORDINARY    00000000 00001000 FFFFFFF7   7 000          @R7,7
  25586  00004CAE  00000001 USING  ORDINARY    00004CAE 00001000 00000001   7 82A   26539  $$$564B,7
  25600  00004CAE  00000001 USING  ORDINARY    FFFFFFD8 00001000 FFFFFFDC   8 02C   26523  EVWA-(4+36),R8
  26553  00004F84  00000001 USING  ORDINARY    00000000 00001000 FFFFFFF6   8 000          @R8,8
  26562  00004F84  00000001 USING  ORDINARY    00000000 00001000 FFFFFFF7   7 000          @R7,7
  26565  00004F84  00000001 USING  ORDINARY    000048CC 00001000 00000001   7 000          $$$536B,7
  26650  00004FAC  00000001 USING  ORDINARY    00000000 00001000 FFFFFFF7   7 000          @R7,7
  26653  00004FAC  00000001 USING  ORDINARY    00004FAC 00001000 00000001   7 532   27143  $$$604B,7
  26667  00004FAC  00000001 USING  ORDINARY    FFFFFFD8 00001000 FFFFFFDB   8 028   27135  EVWA2-(4+36),R8
  26741  00004FCE  00000001 USING  ORDINARY    00000000 00001000 FFFFFFE4   2 010   26799  SYMBOL,R2
  26787  00004FE0  00000001 DROP                                            1              1
  26791  00004FE6  00000001 USING  ORDINARY    00000000 00001000 FFFFFFFD   1 000   34900  @R1,1
  26811  00004FF8  00000001 USING  ORDINARY    00000000 00001000 FFFFFFFC   2 000          @R2,2
  27165  000050E6  00000001 USING  ORDINARY    00000000 00001000 FFFFFFF6   8 000          @R8,8
  27174  000050E6  00000001 USING  ORDINARY    00000000 00001000 FFFFFFF7   7 000          @R7,7
  27177  000050E6  00000001 USING  ORDINARY    000048CC 00001000 00000001   7 000          $$$536B,7
  27236  0000510E  00000001 USING  ORDINARY    00000000 00001000 FFFFFFF7   7 000          @R7,7
  27239  0000510E  00000001 USING  ORDINARY    0000510E 00001000 00000001   7 3CC   27883  $$$629B,7
  27253  0000510E  00000001 USING  ORDINARY    FFFFFFD8 00001000 FFFFFFDB   8 034   27888  EVWA2-(4+36),R8
  27595  00005212  00000001 USING  ORDINARY    00000000 00001000 FFFFFFE9   2 0D0   27601  JCB,R2
  27645  00005236  00000001 USING  ORDINARY    00000000 00001000 FFFFFFFC   2 000          @R2,2
  27658  00005236  00000001 USING  ORDINARY    00000000 00001000 FFFFFFE9   2 0D0   27699  JCB,R2
  27747  0000526E  00000001 USING  ORDINARY    00000000 00001000 FFFFFFFC   2 000          @R2,2
  27762  00005272  00000001 USING  ORDINARY    00000000 00001000 FFFFFFE4   2 010   27831  SYMBOL,R2
  27828  0000529E  00000001 DROP                                            3              3
  27832  000052A4  00000001 USING  ORDINARY    00000000 00001000 FFFFFFFB   3 000          @R3,3
  27842  000052AE  00000001 USING  ORDINARY    00000000 00001000 FFFFFFFC   2 000   34830  @R2,2
  27907  000052DC  00000001 USING  ORDINARY    00000000 00001000 FFFFFFF6   8 000          @R8,8
  27916  000052DC  00000001 USING  ORDINARY    00000000 00001000 FFFFFFF7   7 000          @R7,7
  27919  000052DC  00000001 USING  ORDINARY    000048CC 00001000 00000001   7 000          $$$536B,7
  27978  00005304  00000001 USING  ORDINARY    00000000 00001000 FFFFFFF7   7 000          @R7,7
  27981  00005304  00000001 USING  ORDINARY    00005304 00001000 00000001   7 1E0   28178  $$$660B,7
  27995  00005304  00000001 USING  ORDINARY    FFFFFFD8 00001000 FFFFFFDB   8 028   28147  EVWA2-(4+36),R8
  28193  000053C4  00000001 USING  ORDINARY    00000000 00001000 FFFFFFF6   8 000          @R8,8
  28202  000053C4  00000001 USING  ORDINARY    00000000 00001000 FFFFFFF7   7 000          @R7,7
  28205  000053C4  00000001 USING  ORDINARY    000048CC 00001000 00000001   7 000          $$$536B,7
  28288  000053EC  00000001 USING  ORDINARY    00000000 00001000 FFFFFFF7   7 000          @R7,7
  28291  000053EC  00000001 USING  ORDINARY    000053EC 00001000 00000001   7 0E8   28368  $$$670B,7
  28305  000053EC  00000001 USING  ORDINARY    FFFFFFD8 00001000 FFFFFFDA   8 034   28377  REWA-(4+36),R8
  28392  0000542E  00000001 USING  ORDINARY    00000000 00001000 FFFFFFF6   8 000          @R8,8
  28401  0000542E  00000001 USING  ORDINARY    00000000 00001000 FFFFFFF7   7 000          @R7,7
  28404  0000542E  00000001 USING  ORDINARY    000048CC 00001000 00000001   7 000          $$$536B,7
1WBUG     (WBUG2025) (13:00) (15MAR04) Using Map                                                                            Page  228
  28550  00005504  00000001 USING  ORDINARY    00000000 00001000 FFFFFFF7   7 000          @R7,7
  28553  00005504  00000001 USING  ORDINARY    00005504 00001000 00000001   7 552   28985  $$$676B,7
  28567  00005504  00000001 USING  ORDINARY    FFFFFFD8 00001000 FFFFFFD9   8 08E   28981  DCWA-(4+36),R8
  28998  000056C6  00000001 USING  ORDINARY    00000000 00001000 FFFFFFF6   8 000          @R8,8
  29007  000056C6  00000001 USING  ORDINARY    00000000 00001000 FFFFFFF7   7 000          @R7,7
  29010  000056C6  00000001 USING  ORDINARY    000048CC 00001000 00000001   7 000          $$$536B,7
  29097  0000583E  00000001 USING  ORDINARY    00000000 00001000 FFFFFFF7   7 000          @R7,7
  29100  0000583E  00000001 USING  ORDINARY    0000583E 00001000 00000001   7 1EE   29191  $$$693B,7
  29203  0000588E  00000001 USING  ORDINARY    00000000 00001000 FFFFFFF7   7 000          @R7,7
  29206  0000588E  00000001 USING  ORDINARY    000048CC 00001000 00000001   7 000          $$$536B,7
  29259  000058B6  00000001 USING  ORDINARY    00000000 00001000 FFFFFFF7   7 000          @R7,7
  29262  000058B6  00000001 USING  ORDINARY    000058B6 00001000 00000001   7 196   29660  $$$701B,7
  29672  000059F6  00000001 USING  ORDINARY    00000000 00001000 FFFFFFF7   7 000          @R7,7
  29675  000059F6  00000001 USING  ORDINARY    000048CC 00001000 00000001   7 000          $$$536B,7
  29785  00005A76  00000001 USING  ORDINARY    00000000 00001000 FFFFFFF7   7 000          @R7,7
  29788  00005A76  00000001 USING  ORDINARY    00005A76 00001000 00000001   7 B3A   29905  $$$708B,7
  29802  00005A76  00000001 USING  ORDINARY    FFFFFFD8 00001000 FFFFFFD8   8 034   29897  DMWA-(4+36),R8
  29914  00005ADA  00000001 USING  ORDINARY    00000000 00001000 FFFFFFF6   8 000          @R8,8
  29923  00005ADA  00000001 USING  ORDINARY    00000000 00001000 FFFFFFF7   7 000          @R7,7
  29926  00005ADA  00000001 USING  ORDINARY    000048CC 00001000 00000001   7 000          $$$536B,7
  29987  00005B02  00000001 USING  ORDINARY    00000000 00001000 FFFFFFF7   7 000          @R7,7
  29990  00005B02  00000001 USING  ORDINARY    00005B02 00001000 00000001   7 BDD   30485  $$$716B,7
  30507  00005C98  00000001 USING  ORDINARY    00000000 00001000 FFFFFFF7   7 000          @R7,7
  30510  00005C98  00000001 USING  ORDINARY    000048CC 00001000 00000001   7 000          $$$536B,7
  30567  00005CC0  00000001 USING  ORDINARY    00000000 00001000 FFFFFFF7   7 000          @R7,7
  30570  00005CC0  00000001 USING  ORDINARY    00005CC0 00001000 00000001   7 A2E   33491  $$$729B,7
  30919  00005DC4  00000001 USING  ORDINARY    00000000 00001000 FFFFFFE5   3 008   33415  IRECORD,R3
  33463  00006570  00000001 USING  ORDINARY    00000000 00001000 FFFFFFFB   3 000          @R3,3
  33509  00006588  00000001 USING  ORDINARY    00000000 00001000 FFFFFFF7   7 000          @R7,7
  33512  00006588  00000001 USING  ORDINARY    000048CC 00001000 00000001   7 000          $$$536B,7
  33871  00006A0A  00000001 USING  ORDINARY    00000000 00001000 FFFFFFF7   7 000          @R7,7
  33874  00006A0A  00000001 USING  ORDINARY    00006A0A 00001000 00000001   7 982   33949  $$$784B,7
  33970  00006A46  00000001 USING  ORDINARY    00000000 00001000 FFFFFFF7   7 000          @R7,7
  33973  00006A46  00000001 USING  ORDINARY    000048CC 00001000 00000001   7 000          $$$536B,7
  34030  00006A6E  00000001 USING  ORDINARY    00000000 00001000 FFFFFFF7   7 000          @R7,7
  34033  00006A6E  00000001 USING  ORDINARY    00006A6E 00001000 00000001   7 924   34105  $$$791B,7
  34126  00006AA8  00000001 USING  ORDINARY    00000000 00001000 FFFFFFF7   7 000          @R7,7
  34129  00006AA8  00000001 USING  ORDINARY    000048CC 00001000 00000001   7 000          $$$536B,7
  34208  00006AD0  00000001 USING  ORDINARY    00000000 00001000 FFFFFFF7   7 000          @R7,7
  34211  00006AD0  00000001 USING  ORDINARY    00006AD0 00001000 00000001   7 81C   34305  $$$798B,7
  34225  00006AD0  00000001 USING  ORDINARY    FFFFFFD8 00001000 FFFFFFD7   8 028   34297  CHKIWA-(4+36),R8
  34317  00006B30  00000001 USING  ORDINARY    00000000 00001000 FFFFFFF6   8 000          @R8,8
  34326  00006B30  00000001 USING  ORDINARY    00000000 00001000 FFFFFFF7   7 000          @R7,7
  34329  00006B30  00000001 USING  ORDINARY    000048CC 00001000 00000001   7 000          $$$536B,7
  34444  00006C58  00000001 USING  ORDINARY    00000000 00001000 FFFFFFF7   7 000          @R7,7
  34447  00006C58  00000001 USING  ORDINARY    00006C58 00001000 00000001   7 69C   34934  $$$804B,7
  34461  00006C58  00000001 USING  ORDINARY    FFFFFFD8 00001000 FFFFFFD6   8 000          CKINWA-(4+36),R8
  34944  00006D78  00000001 USING  ORDINARY    00000000 00001000 FFFFFFF6   8 000          @R8,8
  34953  00006D78  00000001 USING  ORDINARY    00000000 00001000 FFFFFFF7   7 000          @R7,7
  34956  00006D78  00000001 USING  ORDINARY    000048CC 00001000 00000001   7 000          $$$536B,7
  35035  00006DA0  00000001 USING  ORDINARY    00000000 00001000 FFFFFFF7   7 000          @R7,7
  35038  00006DA0  00000001 USING  ORDINARY    00006DA0 00001000 00000001   7 5E2   36138  $$$832B,7
  35052  00006DA0  00000001 USING  ORDINARY    FFFFFFD8 00001000 FFFFFFD5   8 028   35781  STOPWA-(4+36),R8
  35068  00006DA8  00000001 USING  ORDINARY    00000000 00001000 FFFFFFE6   5 010   36056  DBTRAP,R5
  36108  00007112  00000001 USING  ORDINARY    00000000 00001000 FFFFFFF9   5 000          @R5,5
  36146  0000711E  00000001 USING  ORDINARY    00000000 00001000 FFFFFFF6   8 000          @R8,8
  36155  0000711E  00000001 USING  ORDINARY    00000000 00001000 FFFFFFF7   7 000          @R7,7
  36158  0000711E  00000001 USING  ORDINARY    000048CC 00001000 00000001   7 000          $$$536B,7
  36211  00007146  00000001 USING  ORDINARY    00000000 00001000 FFFFFFF7   7 000          @R7,7
1WBUG     (WBUG2025) (13:00) (15MAR04) Using Map                                                                            Page  229
  36214  00007146  00000001 USING  ORDINARY    00007146 00001000 00000001   7 244   36375  $$$858B,7
  36233  00007148  00000001 USING  ORDINARY    00000000 00001000 FFFFFFE9   5 04F   36359  JCB,R5
  36356  0000719A  00000001 DROP                                            1              1
  36360  000071A0  00000001 USING  ORDINARY    00000000 00001000 FFFFFFFD   1 000          @R1,1
  36388  000071AC  00000001 USING  ORDINARY    00000000 00001000 FFFFFFF9   5 000          @R5,5
  36397  000071AC  00000001 USING  ORDINARY    00000000 00001000 FFFFFFF7   7 000          @R7,7
  36400  000071AC  00000001 USING  ORDINARY    000048CC 00001000 00000001   7 000          $$$536B,7
  36474  000071D4  00000001 USING  ORDINARY    00000000 00001000 FFFFFFF7   7 000          @R7,7
  36477  000071D4  00000001 USING  ORDINARY    000071D4 00001000 00000001   7 190   36641  $$$862B,7
  36491  000071D4  00000001 USING  ORDINARY    FFFFFFD8 00001000 FFFFFFD4   8 028   36525  TAWA-(4+36),R8
  36653  00007232  00000001 USING  ORDINARY    00000000 00001000 FFFFFFF6   8 000          @R8,8
  36662  00007232  00000001 USING  ORDINARY    00000000 00001000 FFFFFFF7   7 000          @R7,7
  36665  00007232  00000001 USING  ORDINARY    000048CC 00001000 00000001   7 000          $$$536B,7
  36740  0000725A  00000001 USING  ORDINARY    00000000 00001000 FFFFFFF7   7 000          @R7,7
  36743  0000725A  00000001 USING  ORDINARY    0000725A 00001000 00000001   7 10A   36860  $$$868B,7
  36757  0000725A  00000001 USING  ORDINARY    FFFFFFD8 00001000 FFFFFFD3   8 028   36788  TSWA-(4+36),R8
  36876  000072A2  00000001 USING  ORDINARY    00000000 00001000 FFFFFFF6   8 000          @R8,8
  36885  000072A2  00000001 USING  ORDINARY    00000000 00001000 FFFFFFF7   7 000          @R7,7
  36888  000072A2  00000001 USING  ORDINARY    000048CC 00001000 00000001   7 000          $$$536B,7

1         (WBUG2025) (13:00) (15MAR04) General Purpose Register Cross Reference                                             Page  230
- Register  References (M=modified, B=branch, U=USING, D=DROP, N=index)                      HLASM R4.0  2004/03/15 13.00
0    0(0)      982U   983D  2097   2165M  2165   2166M  7104   7162M  7193M  7318   7516   7519M  7552M  7554M  7727M
              7754   7857M  7888   8009M  8048M  8048   8085M  8141   8220M  8255   8276M  8277   8279M  8279   8280
              8458   8489   8574   8604   8639   8821M  8847   8922M  8923   8964M  8991   9085M  9086   9098   9150M
              9151   9199M  9253   9319M  9320   9359M  9396   9916M  9945  10043  10096M 10123  10341M 10369  10427M
             10453  10511M 10539  10625M 10653  10737M 10765  10879M 11000  11365M 11392  11535M 11562  11715M 11742
             11875M 11902  12045M 12089  12162M 12194M 12220  12273  12303M 12349  12422M 12438M 12481M 12499M 12526M
             12526  12535  12536  12597M 12623M 12644M 12644  12662M 12686M 12707M 12707  12725M 12743M 12743  12760M
             12959M 13011  13040M 13042  13092M 13127  13204M 13266M 13287M 13287  13305M 13329M 13350M 13350  13368M
             13415M 13436M 13436  13454M 13502M 13533  13610M 13648M 13654M 13665M 13739M 13841M 13879M 13885M 13896M
             13952M 13981  14045M 14045  14054  14055  14081M 14104M 14503  14558M 14587M 14613M 14708M 14737  14814M
             14843M 14869M 14882M 14888  14895M 14895  14904  14905  14990  15020M 15026  15058M 15086M 15112M 15138M
             15173M 15195  15253M 15273  15305M 15306  15337M 15395  15465M 15483M 15499M 15566M 15594M 15611M 15611
             15620  15621  15736M 15810M 15839M 15880M 15904M 15927M 15970M 16041M 16063M 16063  16081M 16105M 16139M
             16163M 16201M 16225M 16247M 16313M 16368  16433M 16470  16508  16582M 16654M 16678M 16700M 16700  16718M
             16748M 16766M 16809M 16846  16909M 16909  16918  16919  16961M 17038M 17073M 17099M 17099  17117M 17159M
             17192M 17214M 17282M 17311M 17311  17366M 17480  17586M 17614M 17677M 17678  17709M 17788M 17795M 17796
             17825M 17865M 17895  17933  18005M 18030M 18031  18102M 18138  18245M 18272  18334M 18361  18419M 18533
             18616M 18644M 18702M 18753M 18753  18762  18763  18786M 18814M 18913  18964M 18993  19076M 19104M 19161M
             19213M 19230M 19230  19239  19240  19263M 19291M 19417  19529M 19557M 19599M 19599  19608  19609  19610
             19637M 19637  19707M 19719  19731M 19736  19744M 19744  19753  19754  19797M 19818M 19830M 19853M 19857
             19859M 19862  19874M 19956M 19985M 20057M 20085M 20181  20237M 20257  20347M 20359  20371M 20376  20402M
             20439  20515M 20544M 20570M 20598M 20631M 20672M 20728M 20769M 20776M 20779  20787M 20787  20796  20797
             20820M 20848M 20942  21019M 21048M 21074M 21107M 21135M 21176M 21210M 21238M 21271M 21383  21472M 21549M
             21644M 21656M 21656  21665  21666  21694  21699M 21737M 21788M 21810M 21810  21863M 21896M 21919M 21943M
             21986M 22077  22131M 22159  22236M 22265M 22291M 22304M 22304  22313  22314  22341M 22366M 22384M 22411M
             22429M 22470M 22562  22614M 22643M 22669M 22682M 22682  22691  22692  22719M 22741M 22741  22777M 22817M
             22857M 22897M 22936M 23094  23147M 23176M 23202M 23222M 23222  23231  23232  23275M 23541  23593M 23613
             23665M 23685  23737M 23757  23809M 23838  23915M 23944M 23970M 24004M 24032M 24058M 24084M 24115M 24177
             24214M 24214  24223  24224  24267M 24381  24437M 24460  24532M 24567  24783M 24953M 24954  24963M 24975
             25152M 25176  25228M 25242M 25242  25251  25252  25283M 25283  25301M 25337M 25337  25359M 25399M 25565
             25619M 25619  25628  25629  25630  25657M 25657  25729M 25742M 25742  25815M 25815  25824  25825  25826
             25853M 25853  26012M 26067M 26067  26197  26282  26303M 26303  26388  26409M 26409  26546  26573M 26632
             26685  26699  26708  27158  27185M 27218  27856M 27900  27927M 27960  28012M 28012  28021  28022  28023
             28070M 28070  28105  28119  28126  28147M 28186  28213M 28270  28325  28385  28412M 28532  28585  28597
             28604M 28609M 28610  28666M 28666  28709M 28730M 28750M 28757M 28764M 28771M 28778M 28832M 28927M 28961M
             29018M 29080  29109  29214M 29242  29317M 29317  29356M 29378M 29400M 29400  29418M 29446M 29464M 29482M
             29511M 29533M 29555M 29555  29573M 29601M 29619M 29649M 29649  29683M 29767  29817M 29817  29824M 29831
             29833  29934M 29970  30000M 30021M 30072M 30072  30093M 30116  30159M 30177M 30194M 30235M 30257M 30298M
             30343M 30360M 30371M 30384M 30395M 30429M 30449M 30474M 30474  30496  30518M 30550  30627M 30648M 30700M
             30700  30723M 30741M 30758M 30793M 30817M 30856M 30880M 30898M 30993M 31044M 31062M 31086M 31086  31104M
             31128M 31128  31179M 31197M 31221M 31221  31239M 31262M 31262  31293M 31331M 31331  31362M 31408M 31408
             31430M 31485M 31503M 31527M 31527  31545M 31569M 31569  31587M 31610M 31610  31628M 31652M 31652  31670M
             31721M 31744M 31744  31762M 31786M 31786  31804M 31831M 31849M 31900M 31923M 31923  31941M 31966M 31966
             31984M 32008M 32008  32026M 32049M 32049  32067M 32091M 32091  32109M 32169M 32208M 32247M 32286M 32325M
             32364M 32403M 32442M 32481M 32503M 32527M 32527  32587M 32626M 32665M 32704M 32743M 32782M 32821M 32860M
             32899M 32938M 32977M 33016M 33055M 33094M 33133M 33172M 33199M 33199  33230M 33268M 33268  33299M 33345M
             33345  33367M 33422M 33440M 33480M 33480  33498  33520M 33854  33883  33981M 34013  34042  34137M 34190
             34230M 34292  34337M 34426  34466M 34487M 34706M 34706  34757M 34777M 34777  34786M 34786  34837M 34857M
             34857  34964M 35017  35101M 35139M 35164M 35182M 35205M 35249M 35272M 35351M 35381M 35414M 35451M 35488M
             35588M 35624M 35651M 35674M 35704M 35722M 35814M 35850M 35877M 35900M 35930M 35948M 35987M 36010M 36033M
             36063M 36081M 36127M 36127  36166M 36194  36253M 36271M 36299M 36336M 36364M 36364  36408M 36456  36499
             36532M 36564M 36586M 36586  36630M 36673M 36722  36776  36795M 36827M 36849M 36849  36896M
     1(1)      978U  2097   2160M  2161M  2167M  7104   7155M  7193M  7318   7517   7524   7553M  7554M  7674M  7680M
              7727M  7754   7827M  7857M  7888   8004M  8023M  8085M  8141   8142   8220M  8255   8270U  8287U  8346U
              8359U  8403M  8413U  8449U  8458   8489   8504U  8561U  8574   8600M  8604   8639   8668M  8678U  8683M
1         (WBUG2025) (13:00) (15MAR04) General Purpose Register Cross Reference                                             Page  231
              8684M  8684N  8691U  8735   8821M  8847   8907M  8916M  8916   8923N  8964M  8991   9070M  9079M  9079
              9085N  9135M  9144M  9144   9151N  9199M  9253   9318M  9319N  9359M  9396   9538M  9552   9566   9621M
              9622M  9623   9649M  9650   9678   9787M  9801   9851M  9856M  9916M  9945  10007M 10008M 10009  10039M
             10043  10096M 10123  10156M 10166U 10190U 10211M 10242  10313M 10314  10315M 10315  10316  10341M 10369
             10427M 10453  10511M 10539  10625M 10653  10737M 10765  10794M 10804U 10825U 10827M 10828  10879M 11000
             11065M 11077  11086M 11115  11149M 11163M 11181M 11186  11193M 11195  11212M 11213  11225M 11226M 11227
             11229  11242M 11243  11365M 11392  11456M 11457M 11458  11478M 11479M 11479N 11480  11488M 11489M 11492M
             11495M 11499M 11504  11535M 11562  11645M 11645  11646M 11647M 11648M 11649  11668M 11669M 11672M 11675M
             11679M 11684  11715M 11742  11806M 11807M 11808  11828M 11829M 11829N 11830  11838M 11839M 11844  11875M
             11902  11985M 11985  11986M 11987M 11988M 11989  12008M 12009M 12014  12045M 12089  12118  12156M 12194M
             12220  12249  12273  12303M 12349  12421M 12437M 12480M 12498M 12522M 12535N 12536N 12538N 12596M 12622M
             12640M 12661M 12685M 12703M 12724M 12738M 12759M 12787M 12788  12889M 12959M 13011  13092M 13127  13203M
             13256M 13265M 13283M 13304M 13319M 13328M 13346M 13367M 13405M 13414M 13432M 13453M 13502M 13533  13609M
             13649M 13654M 13655M 13664M 13711M 13720M 13720  13738M 13831M 13840M 13880M 13885M 13886M 13895M 13952M
             13981  14041M 14054N 14055N 14057N 14080M 14104M 14503  14557M 14586M 14612M 14628M 14633M 14708M 14737
             14813M 14842M 14868M 14881M 14887  14891M 14904N 14905N 14907N 14990  15019M 15025  15057M 15085M 15111M
             15137M 15145  15173M 15195  15224M 15225  15253M 15273  15304M 15307  15308M 15309  15337M 15395  15464M
             15482M 15498M 15565M 15593M 15602  15607M 15620N 15621N 15623N 15644M 15670M 15670  15704  15735M 15809M
             15838M 15879M 15887  15903M 15910  15926M 15943  15959  15969M 16034  16040M 16059M 16080M 16098M 16138M
             16156M 16200M 16218M 16246M 16260M 16264  16313M 16368  16433M 16470  16581M 16653M 16677M 16696M 16717M
             16741M 16765M 16809M 16846  16905M 16918N 16919N 16921N 16960M 17037M 17072M 17095M 17116M 17152M 17191M
             17213M 17245M 17275M 17366M 17480  17585M 17613M 17634  17648  17655M 17656M 17657  17676M 17678N 17756
             17787M 17794M 17796N 17824M 17865M 17895  18004M 18029M 18031N 18102M 18138  18245M 18272  18334M 18361
             18419M 18533  18615M 18643M 18650  18651  18675M 18701M 18708  18729M 18734  18749M 18762N 18763N 18765N
             18785M 18814M 18913  18964M 18993  19075M 19103M 19110  19134M 19160M 19167  19188M 19202  19212M 19226M
             19239N 19240N 19242N 19262M 19291M 19417  19506  19528M 19556M 19587  19595M 19608N 19609N 19610N 19706M
             19740M 19753N 19754N 19756N 19796M 19817M 19829M 19849M 19955M 19984M 20056M 20085M 20181  20237M 20257
             20346M 20402M 20439  20514M 20543M 20569M 20599M 20630M 20647M 20647  20661  20671M 20678  20701M 20727M
             20744M 20744  20758  20768M 20779  20783M 20796N 20797N 20799N 20820M 20848M 20942  21018M 21047M 21073M
             21106M 21134M 21151M 21151  21165  21175M 21182  21209M 21237M 21247  21271M 21383  21471M 21478  21500
             21548M 21578  21590M 21595  21643M 21652M 21665N 21666N 21668N 21704  21736M 21787M 21806M 21862M 21895M
             21909M 21918M 21941M 21942M 21986M 22077  22131M 22159  22235M 22264M 22290M 22300M 22313N 22314N 22316N
             22340M 22359M 22383M 22397M 22398M 22399M 22428M 22442M 22470M 22562  22613M 22642M 22668M 22678M 22691N
             22692N 22694N 22718M 22737M 22776M 22816M 22856M 22896M 22936M 23094  23146M 23175M 23201M 23218M 23231N
             23232N 23234N 23275M 23541  23570M 23571  23593M 23613  23642M 23643  23665M 23685  23714M 23715  23737M
             23757  23786M 23787  23809M 23838  23914M 23943M 23969M 24003M 24031M 24057M 24083M 24091  24115M 24177
             24210M 24223N 24224N 24226N 24267M 24381  24437M 24460  24532M 24555M 24564U 24566M 24567  24567  24573U
             24674M 24688  24702  24729M 24774M 24775M 24783N 24873  24907  24950  24952M 24954N 24957M 25000  25096
             25130  25152M 25176  25227M 25234  25238M 25251N 25252N 25254N 25279M 25300M 25333M 25358M 25372M 25399M
             25565  25615M 25628N 25629N 25630N 25728M 25811M 25824N 25825N 25826N 26011M 26011N 26113M 26115  26133M
             26133N 26155M 26155  26160M 26161  26221M 26239M 26239  26244M 26245  26312M 26330M 26330  26335M 26336
             26418M 26436M 26436  26441M 26442  26503M 26503  26508M 26509  26523M 26531M 26531  26537M 26537  26546
             26573M 26632  26720  26787D 26789M 26789  26790M 26791U 26792M 26792N 26869M 26889M 26917M 26941M 27001M
             27021M 27067M 27113M 27141M 27152M 27152  27158  27185M 27218  27257  27258M 27258N 27276  27288  27295M
             27296  27352  27364  27371M 27372  27396  27410  27417M 27418  27438  27452  27459M 27460  27495  27507
             27514M 27515  27554  27566  27573M 27574  27613  27625  27632M 27633  27711  27723  27730M 27731  27833M
             27834  27857M 27868M 27868  27882  27888M 27900  27927M 27960  28008M 28021N 28022N 28023N 28125M 28125N
             28139  28186  28213M 28270  28309  28326  28344M 28367M 28377M 28385  28412M 28532  28581M 28581N 28583
             28609  28615M 28616M 28617  28708M 28729M 28749M 28756M 28763M 28770M 28777M 28801M 28831M 28926M 28954M
             29018M 29080  29110  29149M 29182M 29214M 29242  29271  29355M 29377M 29396M 29417M 29439M 29463M 29477M
             29510M 29532M 29551M 29572M 29594M 29618M 29632M 29683M 29767  29806M 29806N 29807M 29808M 29829  29830
             29831M 29832  29855M 29871M 29876  29892M 29897  29934M 29970  29999  30020M 30092M 30093N 30094M 30116
             30122M 30122N 30132M 30133  30158M 30172M 30187M 30228M 30256M 30291M 30336M 30370M 30394M 30409M 30411
             30413  30424M 30424N 30448M 30493M 30494M 30496  30518M 30550  30579N 30626M 30647M 30722M 30736M 30751M
             30792M 30810M 30855M 30873M 30992M 31037M 31061M 31075M 31076M 31077M 31103M 31117M 31118M 31119M 31172M
             31196M 31210M 31211M 31212M 31238M 31252M 31253M 31275M 31276M 31292M 31306M 31307M 31308M 31317M 31317
             31344M 31345M 31361M 31383M 31384M 31385M 31394M 31394  31429M 31478M 31502M 31516M 31517M 31518M 31544M
             31558M 31559M 31560M 31586M 31600M 31601M 31627M 31641M 31642M 31643M 31669M 31714M 31734M 31735M 31761M
             31775M 31776M 31777M 31803M 31817M 31818M 31819M 31848M 31893M 31913M 31914M 31940M 31954M 31955M 31956M
1         (WBUG2025) (13:00) (15MAR04) General Purpose Register Cross Reference                                             Page  232
             31957M 31957N 31983M 31997M 31998M 31999M 32025M 32039M 32040M 32066M 32080M 32081M 32082M 32108M 32143M
             32144M 32145M 32146  32168M 32207M 32246M 32285M 32324M 32363M 32402M 32441M 32480M 32502M 32516M 32517M
             32518M 32561M 32562M 32563M 32564  32586M 32625M 32664M 32703M 32742M 32781M 32820M 32859M 32898M 32937M
             32976M 33015M 33054M 33093M 33132M 33171M 33189M 33190M 33212M 33213M 33229M 33243M 33244M 33245M 33254M
             33254  33281M 33282M 33298M 33320M 33321M 33322M 33331M 33331  33366M 33415M 33439M 33495M 33496M 33498
             33520M 33854  33935  33935  33981M 34013  34091  34091  34137M 34190  34249  34269N 34337M 34426  34486M
             34514N 34707  34787  34912M 34912  34964M 35017  35100M 35138M 35157M 35181M 35195M 35204M 35218M 35248M
             35262M 35271M 35285M 35292M 35319  35350M 35374M 35413M 35450M 35487M 35587M 35623M 35641M 35650M 35664M
             35673M 35697M 35721M 35813M 35849M 35867M 35876M 35890M 35899M 35923M 35947M 35986M 36000M 36009M 36023M
             36032M 36056M 36080M 36166M 36194  36223  36248M 36270M 36294M 36335M 36356D 36358M 36358  36359M 36360U
             36408M 36456  36500  36525M 36563M 36582M 36623M 36673M 36722  36777  36788M 36826M 36845M 36896M
     2(2)      974U  2097   7104   7172M  7175M  7176M  7177   7193M  7318   7516M  7532   7545   7558M  7559M  7559
              7727M  7754   7857M  7888   8085M  8141   8220M  8252M  8255   8275M  8277M  8278   8419M  8437M  8442
              8458   8486M  8489   8513M  8514M  8514   8527M  8549M  8554   8574   8604   8639   8821M  8847   8964M
              8991   9199M  9253   9359M  9396   9916M  9945  10043  10096M 10123  10173M 10174  10175M 10176  10177M
             10178M 10178N 10179  10180M 10181M 10182M 10183  10341M 10369  10427M 10453  10511M 10539  10568M 10570
             10573M 10574M 10578M 10579M 10581  10584M 10625M 10653  10682M 10684  10688M 10689M 10693M 10694M 10696
             10699M 10737M 10765  10813M 10814M 10815  10845M 10851M 10879M 11000  11066M 11067M 11067N 11077  11190M
             11202  11365M 11392  11439M 11440M 11441M 11450M 11450  11471M 11471  11477M 11478N 11490M 11491M 11492
             11493M 11494M 11495  11496M 11497M 11498M 11499  11500M 11500  11501M 11502M 11503M 11504N 11535M 11562
             11594M 11595M 11596M 11605M 11605  11611M 11612M 11612N 11613M 11613N 11646  11670M 11671M 11672  11673M
             11674M 11675  11676M 11677M 11678M 11679  11680M 11680  11681M 11682M 11683M 11684N 11715M 11742  11789M
             11790M 11791M 11800M 11800  11821M 11821  11827M 11828N 11840M 11840  11841M 11842M 11843M 11844N 11875M
             11902  11934M 11935M 11936M 11945M 11945  11951M 11952M 11952N 11953M 11953N 11986  12010M 12010  12011M
             12012M 12013M 12014N 12045M 12089  12194M 12220  12273  12303M 12349  12959M 13011  13092M 13127  13502M
             13533  13624M 13638  13711  13771  13805  13831  13952M 13981  14104M 14503  14708M 14737  14887M 14990
             15019  15173M 15195  15253M 15273  15337M 15395  15526M 15933M 15943  15949M 15959  16034M 16260  16313M
             16368  16433M 16470  16506U 16809M 16820U 16846  16941M 16944M 17366M 17480  17549M 17865M 17895  17931U
             18102M 18113U 18138  18245M 18272  18305M 18308M 18334M 18361  18394M 18397M 18419M 18533  18650M 18729
             18734M 18785  18814M 18913  18964M 18993  19110M 19188  19202  19262  19291M 19417  19506M 19587M 19796
             19849  20085M 20181  20237M 20257  20402M 20439  20678M 20701  20776  20848M 20942  21182M 21246M 21247N
             21271M 21383  21986M 22077  22131M 22159  22470M 22562  22936M 23094  23275M 23541  23593M 23613  23665M
             23685  23737M 23757  23809M 23838  24115M 24177  24267M 24381  24437M 24460  24500M 24506M 24532M 24567
             24730M 24750M 24776M 24776  24784M 24784N 24855  24868  25078  25091  25152M 25176  25234M 25279  25322M
             25322  25333  25372  25399M 25565  26114M 26115M 26127  26573M 26632  26708M 26711M 26713  26731M 26741U
             26799M 26811U 27185M 27218  27262M 27263  27276  27295  27338M 27339  27352  27371  27467M 27476M 27476
             27482  27495  27514  27526M 27535M 27535  27541  27554  27573  27595U 27600M 27613  27632  27645U 27658U
             27698M 27711  27730  27747U 27752M 27762U 27767  27797  27798M 27814  27823M 27842U 27927M 27960  28126M
             28127M 28130M 28132  28213M 28270  28412M 28532  28611M 28612M 28613M 28614M 28616  28619  28707M 28708
             28755N 28762N 28769N 28776N 28783  28976M 28977M 28977N 28978  28979M 28980M 28980N 28981  29018M 29080
             29214M 29242  29431M 29432M 29433M 29433N 29439  29477  29586M 29587M 29588M 29588N 29594  29632  29683M
             29767  29934M 29970  30412M 30413  30518M 30550  30907M 30907  30908M 30939  32146M 32158  32197  32236
             32275  32314  32353  32392  32431  32470  32564M 32576  32615  32654  32693  32732  32771  32810  32849
             32888  32927  32966  33005  33044  33083  33122  33161  33520M 33854  33883M 33888  33900M 33907  33919M
             33926M 33928  33981M 34013  34042M 34047  34059M 34066  34078M 34084  34137M 34190  34249M 34250M 34259M
             34259  34268M 34268  34269M 34270M 34270N 34279M 34279  34337M 34426  34513M 34513  34514M 34515M 34515
             34524M 34524  34707M 34762M 34762N 34787M 34842M 34842N 34867M 34885M 34907M 34912N 34964M 35017  36166M
             36194  36408M 36456  36500M 36553M 36553  36582  36623  36673M 36722  36777M 36816M 36816  36845  36896M
     3(3)      970U  2097   7104   7173M  7175M  7193M  7318   7517M  7552   7727M  7754   7857M  7888   8085M  8141
              8220M  8255   8458   8489   8574   8604   8639   8821M  8847   8964M  8991   9199M  9253   9359M  9396
              9916M  9945  10043  10096M 10123  10341M 10369  10427M 10453  10511M 10539  10569M 10570M 10572  10573M
             10575M 10577  10578M 10580M 10581M 10583  10584M 10625M 10653  10683M 10684M 10685M 10687  10688M 10690M
             10692  10693M 10695M 10696M 10698  10699M 10737M 10765  10812M 10815M 10816  10846M 10851M 10879M 11000
             11365M 11392  11535M 11562  11618M 11618  11619M 11620M 11629M 11629  11635M 11636M 11636N 11637M 11637N
             11647  11715M 11742  11875M 11902  11958M 11958  11959M 11960M 11969M 11969  11975M 11976M 11976N 11977M
             11977N 11987  12045M 12089  12194M 12220  12273  12303M 12349  12959M 13011  13092M 13127  13502M 13533
             13625M 13655  13695  13785  13859  13886  13952M 13981  14104M 14503  14708M 14737  14888M 14990  15020
             15173M 15195  15253M 15273  15337M 15395  15989M 16024M 16024N 16059  16313M 16368  16433M 16470  16593M
             16628M 16628N 16696  16809M 16846  16942M 16944M 16998M 17062  17095  17330M 17330N 17366M 17480  17865M
1         (WBUG2025) (13:00) (15MAR04) General Purpose Register Cross Reference                                             Page  233
             17895  18102M 18138  18245M 18272  18306M 18308M 18334M 18361  18395M 18397M 18419M 18533  18708M 18786
             18814M 18913  18964M 18993  19167M 19263  19291M 19417  20085M 20181  20237M 20257  20402M 20439  20848M
             20942  21271M 21383  21986M 22077  22131M 22159  22470M 22562  22936M 23094  23275M 23541  23593M 23613
             23665M 23685  23737M 23757  23809M 23838  24115M 24177  24267M 24381  24437M 24460  24501M 24506M 24532M
             24567  24755M 24755  24777M 24785M 24785N 24889  24902  25112  25125  25152M 25176  25399M 25565  26573M
             26632  27185M 27218  27263M 27264M 27288  27339M 27340M 27364  27482M 27483M 27507  27541M 27542M 27566
             27601M 27625  27699M 27723  27767M 27797M 27814  27823  27828D 27830M 27830  27831M 27832U 27833  27927M
             27960  28213M 28270  28412M 28532  28841M 28843M 28844  29018M 29080  29131M 29143  29214M 29242  29683M
             29767  29934M 29970  30518M 30550  30909M 30919U 30960M 33463U 33520M 33854  33884M 33885  33981M 34013
             34043M 34044  34137M 34190  34337M 34426  34512M 34515N 34708M 34719M 34719  34763M 34788M 34799M 34799
             34843M 34964M 35017  36166M 36194  36408M 36456  36673M 36722  36896M
     4(4)      966U  2097   7104   7175M  7193M  7318   7524M  7571   7572   7589   7590   7727M  7754   7857M  7888
              7957M  7958M  7958   8023   8085M  8141   8220M  8255   8458   8489   8574   8604   8639   8708M  8721M
              8721   8742M  8765M  8765   8788M  8788   8821M  8847   8890M  8901M  8901   8928M  8964M  8991   9053M
              9064M  9064   9108M  9118M  9129M  9129   9156M  9199M  9253   9359M  9396   9652M  9668   9685M  9916M
              9945  10043  10096M 10123  10212M 10228  10249M 10263M 10263  10341M 10369  10427M 10453  10511M 10539
             10571M 10573M 10576M 10578M 10582M 10584M 10625M 10653  10686M 10688M 10691M 10693M 10697M 10699M 10737M
             10765  10851M 10879M 11000  11088M 11101M 11101  11122M 11136M 11136  11365M 11392  11535M 11562  11642M
             11643M 11644M 11648  11715M 11742  11875M 11902  11982M 11983M 11984M 11988  12045M 12089  12194M 12220
             12273  12303M 12349  12959M 13011  13092M 13127  13502M 13533  13654M 13885M 13952M 13981  14104M 14503
             14708M 14737  14990  15173M 15195  15253M 15273  15337M 15395  15604M 15677M 15690M 15690  15711M 15725M
             15725  15750M 15763M 15763  15785M 15799M 15799  15988M 16002M 16002  16025M 16313M 16368  16404U 16433M
             16444U 16470  16527M 16540M 16540  16557M 16571M 16571  16592M 16606M 16606  16629M 16643M 16643  16809M
             16846  16944M 16997M 17009M 17009  17329M 17366M 17480  17729M 17742M 17742  17763M 17777M 17777  17865M
             17895  17950M 17963M 17963  17980M 17994M 17994  18102M 18138  18245M 18272  18308M 18334M 18361  18397M
             18419M 18533  18651M 18787  18814M 18913  18964M 18993  19264  19291M 19417  20085M 20181  20237M 20257
             20402M 20439  20848M 20942  21271M 21383  21986M 22077  22131M 22159  22470M 22562  22936M 23094  23275M
             23541  23593M 23613  23665M 23685  23737M 23757  23809M 23838  24115M 24177  24267M 24381  24437M 24460
             24506M 24532M 24567  24756M 24756  24778M 24786M 24786N 24924  24995  25013M 25026M 25026  25047M 25061M
             25061  25152M 25176  25399M 25565  26573M 26632  27185M 27218  27927M 27960  28213M 28270  28412M 28532
             28837M 28839  28840M 28842M 28844M 28867M 28869  29018M 29080  29109M 29111M 29112M 29125  29143  29149
             29154M 29154N 29160M 29160  29176  29182  29187M 29187N 29214M 29242  29271M 29345  29396  29431  29488M
             29488N 29500  29551  29586  29683M 29767  29934M 29970  30133M 30142M 30142  30218  30281  30326  30429
             30494  30518M 30550  30580M 30598M 30620M 30627  30782  30845  33496  33520M 33854  33981M 34013  34137M
             34190  34337M 34426  34494M 34505M 34505  34913M 34964M 35017  35291M 35305M 35305  35326M 35340M 35340
             35532M 35545M 35545  35562M 35577M 35577  35613M 35613  35758M 35771M 35771  35788M 35803M 35803  35839M
             35839  36166M 36194  36408M 36456  36673M 36722  36896M
     5(5)      962U  2097   7104   7174M  7174   7175M  7193M  7318   7359M  7369U  7709U  7727M  7754   7857M  7888
              7929M  7939U  8067U  8085M  8141   8220M  8255   8458   8489   8574   8604   8639   8702U  8707M  8741M
              8754U  8821M  8847   8884U  8889M  8929M  8941U  8964M  8991   9047U  9052M  9107M  9117M  9157M  9163M
              9171U  9199M  9253   9300U  9331U  9359M  9396   9590M  9600U  9651M  9684M  9692M  9699M  9720M  9728M
              9749M  9757M  9778M  9786M  9814M  9825U  9916M  9945   9974M  9984U 10043  10070U 10096M 10123  10196M
             10206U 10248M 10274M 10309U 10341M 10369  10427M 10453  10511M 10539  10572M 10573M 10577M 10578M 10583M
             10584M 10625M 10653  10687M 10688M 10692M 10693M 10698M 10699M 10737M 10765  10850M 10850  10851M 10879M
             11000  11029M 11039U 11087M 11121M 11145M 11211M 11228M 11337U 11365M 11392  11421M 11431U 11512U 11535M
             11562  11653M 11663U 11691U 11715M 11742  11771M 11781U 11852U 11875M 11902  11993M 12003U 12021U 12045M
             12089  12118M 12128U 12147  12174U 12194M 12220  12249M 12259U 12273  12283U 12303M 12349  12451M 12451
             12459U 12568M 12568  12585  12738  12785  12959M 13011  13041M 13042M 13054  13070  13092M 13103U 13127
             13232U 13255M 13256  13318M 13319  13404M 13405  13477U 13502M 13533  13653M 13653  13654M 13800U 13805M
             13859M 13884M 13884  13885M 13920U 13952M 13981  14104M 14503  14708M 14737  14990  15173M 15195  15253M
             15273  15337M 15395  15657U 15676M 15710M 15749M 15784M 15987M 16023M 16281U 16313M 16368  16433M 16470
             16521U 16526M 16556M 16591M 16627M 16785U 16809M 16846  16943M 16943  16944M 16991U 16996M 17328M 17342U
             17366M 17480  17528U 17654M 17657M 17728M 17762M 17815U 17865M 17895  17943U 17949M 17979M 18078U 18102M
             18138  18245M 18272  18307M 18307  18308M 18334M 18361  18396M 18396  18397M 18419M 18533  18814M 18913
             18964M 18993  19291M 19417  19456M 19464U 20085M 20181  20237M 20257  20402M 20414U 20439  20848M 20942
             21271M 21383  21986M 22077  22131M 22159  22470M 22562  22936M 23094  23275M 23541  23593M 23613  23665M
             23685  23737M 23757  23809M 23838  24115M 24177  24267M 24381  24437M 24460  24505M 24505  24506M 24532M
             24567  24723U 24728M 24793U 24805U 24810M 24818M 24861M 24895M 24930M 24962M 24975  24981M 24988M 25012M
             25046M 25084M 25118M 25145U 25152M 25176  25399M 25565  26573M 26632  27185M 27218  27927M 27960  28213M
1         (WBUG2025) (13:00) (15MAR04) General Purpose Register Cross Reference                                             Page  234
             28270  28412M 28532  28838M 28839M 28840  28841  28848M 28850  29018M 29080  29110M 29113M 29114M 29115M
             29115N 29125  29176  29214M 29242  29683M 29767  29934M 29970  29999M 30092  30132  30172  30187N 30228N
             30291N 30336N 30411  30493  30518M 30550  30579M 30626  30736  30751N 30810N 30873N 30908N 31075N 31117N
             31210N 31252N 31275N 31306N 31344N 31383N 31516N 31558N 31600N 31641N 31734N 31775N 31817N 31913N 31954N
             31997N 32039N 32080N 32143N 32516N 32561N 33189N 33212N 33243N 33281N 33320N 33495  33520M 33854  33981M
             34013  34137M 34190  34337M 34426  34964M 35017  35058M 35068U 35290M 35325M 35531M 35561M 35568M 35757M
             35787M 35794M 36108U 36166M 36194  36223M 36233U 36388U 36408M 36456  36673M 36722  36896M
     6(6)      958U  2097   7104   7193M  7318   7344M  7354U  7714U  7727M  7754   7780M  7790U  7844U  7857M  7888
              7914M  7924U  8072U  8085M  8141   8165M  8173U  8220M  8255   8458   8489   8574   8604   8639   8821M
              8847   8964M  8991   9199M  9253   9359M  9396   9916M  9945  10043  10096M 10123  10341M 10369  10427M
             10453  10511M 10539  10625M 10653  10737M 10765  10879M 11000  11365M 11392  11535M 11562  11715M 11742
             11875M 11902  12045M 12089  12194M 12220  12273  12303M 12349  12448M 12959M 13011  13092M 13127  13180M
             13502M 13533  13586M 13952M 13981  14035M 14104M 14503  14532M 14708M 14737  14790M 14990  15173M 15195
             15253M 15273  15337M 15395  15441M 16313M 16368  16433M 16470  16809M 16846  16899M 17366M 17480  17865M
             17895  18102M 18138  18191M 18245M 18272  18334M 18361  18419M 18533  18586M 18814M 18913  18964M 18993
             19046M 19291M 19417  19490M 20085M 20181  20237M 20257  20402M 20439  20492M 20848M 20942  20995M 21271M
             21383  21448M 21986M 22077  22131M 22159  22212M 22470M 22562  22591M 22936M 23094  23123M 23275M 23541
             23593M 23613  23665M 23685  23737M 23757  23809M 23838  23891M 24115M 24177  24206M 24267M 24381  24437M
             24460  24532M 24567  24589M 25152M 25176  25205M 25399M 25565  26573M 26632  27185M 27218  27927M 27960
             28213M 28270  28412M 28532  29018M 29080  29214M 29242  29683M 29767  29934M 29970  30518M 30550  33520M
             33854  33981M 34013  34137M 34190  34337M 34426  34964M 35017  35056M 36166M 36194  36408M 36456  36673M
             36722  36896M
     7(7)      954U  2090M  2090   2091B  2097   2103B  7104   7109M  7121U  7185U  7193M  7318   7323M  7335U  7719U
              7727M  7754   7759M  7771U  7849U  7857M  7888   7893M  7905U  8077U  8085M  8141   8154M  8163U  8220M
              8255   8458   8489   8574   8604   8639   8644M  8656U  8659U  8810U  8813U  8821M  8847   8852M  8863U
              8866U  8953U  8956U  8964M  8991   8996M  9007U  9010U  9188U  9191U  9199M  9253   9259M  9270U  9273U
              9348U  9351U  9359M  9396   9401M  9413U  9416U  9905U  9908U  9916M  9945   9950M  9962U  9965U 10043
             10085U 10088U 10096M 10123  10128M 10140U 10143U 10330U 10333U 10341M 10369  10374M 10386U 10389U 10416U
             10419U 10427M 10453  10458M 10470U 10473U 10500U 10503U 10511M 10539  10544M 10556U 10559U 10614U 10617U
             10625M 10653  10658M 10670U 10673U 10726U 10729U 10737M 10765  10770M 10782U 10785U 10868U 10871U 10879M
             11000  11005M 11017U 11020U 11354U 11357U 11365M 11392  11397M 11409U 11412U 11524U 11527U 11535M 11562
             11567M 11579U 11582U 11704U 11707U 11715M 11742  11747M 11759U 11762U 11864U 11867U 11875M 11902  11907M
             11919U 11922U 12034U 12037U 12045M 12089  12094M 12106U 12109U 12183U 12186U 12194M 12220  12225M 12237U
             12240U 12273  12292U 12295U 12303M 12349  12354M 12366U 12369U 12948U 12951U 12959M 13011  13016M 13028U
             13031U 13081U 13084U 13092M 13127  13132M 13144U 13147U 13491U 13494U 13502M 13533  13538M 13550U 13553U
             13941U 13944U 13952M 13981  13986M 13998U 14001U 14093U 14096U 14104M 14503  14508M 14520U 14523U 14697U
             14700U 14708M 14737  14742M 14754U 14757U 14990  14995M 15007U 15010U 15162U 15165U 15173M 15195  15200M
             15212U 15215U 15242U 15245U 15253M 15273  15278M 15290U 15293U 15326U 15329U 15337M 15395  15401M 15413U
             15416U 16302U 16305U 16313M 16368  16373M 16385U 16388U 16422U 16425U 16433M 16470  16475M 16487U 16490U
             16798U 16801U 16809M 16846  16851M 16863U 16866U 17355U 17358U 17366M 17480  17486M 17498U 17501U 17854U
             17857U 17865M 17895  17900M 17912U 17915U 18091U 18094U 18102M 18138  18143M 18155U 18158U 18234U 18237U
             18245M 18272  18277M 18289U 18292U 18323U 18326U 18334M 18361  18366M 18378U 18381U 18408U 18411U 18419M
             18533  18538M 18550U 18553U 18803U 18806U 18814M 18913  18918M 18930U 18933U 18953U 18956U 18964M 18993
             18998M 19010U 19013U 19280U 19283U 19291M 19417  19423M 19435U 19438U 20074U 20077U 20085M 20181  20186M
             20198U 20201U 20226U 20229U 20237M 20257  20262M 20274U 20277U 20391U 20394U 20402M 20439  20444M 20456U
             20459U 20837U 20840U 20848M 20942  20947M 20959U 20962U 21260U 21263U 21271M 21383  21389M 21401U 21404U
             21975U 21978U 21986M 22077  22082M 22094U 22097U 22120U 22123U 22131M 22159  22164M 22176U 22179U 22459U
             22462U 22470M 22562  22567M 22579U 22582U 22925U 22928U 22936M 23094  23099M 23111U 23114U 23264U 23267U
             23275M 23541  23546M 23558U 23561U 23582U 23585U 23593M 23613  23618M 23630U 23633U 23654U 23657U 23665M
             23685  23690M 23702U 23705U 23726U 23729U 23737M 23757  23762M 23774U 23777U 23798U 23801U 23809M 23838
             23843M 23855U 23858U 24104U 24107U 24115M 24177  24182M 24194U 24197U 24256U 24259U 24267M 24381  24386M
             24398U 24401U 24426U 24429U 24437M 24460  24465M 24477U 24480U 24521U 24524U 24532M 24567  24575M 24584U
             24587U 25152M 25176  25181M 25193U 25196U 25388U 25391U 25399M 25565  25571M 25583U 25586U 26562U 26565U
             26573M 26632  26638M 26650U 26653U 27174U 27177U 27185M 27218  27224M 27236U 27239U 27916U 27919U 27927M
             27960  27966M 27978U 27981U 28202U 28205U 28213M 28270  28276M 28288U 28291U 28401U 28404U 28412M 28532
             28538M 28550U 28553U 29007U 29010U 29018M 29080  29085M 29097U 29100U 29203U 29206U 29214M 29242  29247M
             29259U 29262U 29672U 29675U 29683M 29767  29773M 29785U 29788U 29923U 29926U 29934M 29970  29975M 29987U
             29990U 30507U 30510U 30518M 30550  30555M 30567U 30570U 33509U 33512U 33520M 33854  33859M 33871U 33874U
             33970U 33973U 33981M 34013  34018M 34030U 34033U 34126U 34129U 34137M 34190  34196M 34208U 34211U 34326U
1         (WBUG2025) (13:00) (15MAR04) General Purpose Register Cross Reference                                             Page  235
             34329U 34337M 34426  34432M 34444U 34447U 34953U 34956U 34964M 35017  35023M 35035U 35038U 36155U 36158U
             36166M 36194  36199M 36211U 36214U 36397U 36400U 36408M 36456  36462M 36474U 36477U 36662U 36665U 36673M
             36722  36728M 36740U 36743U 36885U 36888U 36896M
     8(8)      950U  2097   7104   7105M  7189   7193M  7318   7319M  7723   7727M  7754   7755M  7853   7857M  7888
              7889M  8081   8085M  8141   8220M  8255   8458   8489   8574   8604   8639   8640M  8817   8821M  8847
              8848M  8960   8964M  8991   8992M  9195   9199M  9253   9255M  9287U  9339U  9355   9359M  9396   9397M
              9912   9916M  9945   9946M 10043  10092  10096M 10123  10124M 10337  10341M 10369  10370M 10423  10427M
             10453  10454M 10507  10511M 10539  10540M 10621  10625M 10653  10654M 10733  10737M 10765  10766M 10875
             10879M 11000  11001M 11361  11365M 11392  11393M 11531  11535M 11562  11563M 11711  11715M 11742  11743M
             11871  11875M 11902  11903M 12041  12045M 12089  12090M 12190  12194M 12220  12221M 12273  12299  12303M
             12349  12350M 12955  12959M 13011  13012M 13070N 13088  13092M 13127  13128M 13498  13502M 13533  13534M
             13948  13952M 13981  13982M 14100  14104M 14503  14504M 14704  14708M 14737  14738M 14990  14991M 15169
             15173M 15195  15196M 15249  15253M 15273  15274M 15333  15337M 15395  15397M 15430U 16293U 16309  16313M
             16368  16369M 16429  16433M 16470  16471M 16805  16809M 16846  16847M 17362  17366M 17480  17482M 17515U
             17845U 17861  17865M 17895  17896M 18098  18102M 18138  18139M 18241  18245M 18272  18273M 18330  18334M
             18361  18362M 18415  18419M 18533  18534M 18810  18814M 18913  18914M 18960  18964M 18993  18994M 19287
             19291M 19417  19419M 19452U 20065U 20081  20085M 20181  20182M 20233  20237M 20257  20258M 20398  20402M
             20439  20440M 20844  20848M 20942  20943M 21267  21271M 21383  21385M 21418U 21966U 21982  21986M 22077
             22078M 22127  22131M 22159  22160M 22466  22470M 22562  22563M 22932  22936M 23094  23095M 23271  23275M
             23541  23542M 23589  23593M 23613  23614M 23661  23665M 23685  23686M 23733  23737M 23757  23758M 23805
             23809M 23838  23839M 24111  24115M 24177  24178M 24263  24267M 24381  24382M 24433  24437M 24460  24461M
             24528  24532M 24567  25152M 25176  25177M 25395  25399M 25565  25567M 25600U 26546  26553U 26569  26573M
             26632  26634M 26667U 27158  27165U 27181  27185M 27218  27220M 27253U 27900  27907U 27923  27927M 27960
             27962M 27995U 28186  28193U 28209  28213M 28270  28272M 28305U 28385  28392U 28408  28412M 28532  28534M
             28567U 28998U 29014  29018M 29080  29081M 29210  29214M 29242  29243M 29679  29683M 29767  29769M 29802U
             29914U 29930  29934M 29970  29971M 30496  30514  30518M 30550  30551M 33498  33516  33520M 33854  33855M
             33977  33981M 34013  34014M 34133  34137M 34190  34192M 34225U 34317U 34333  34337M 34426  34428M 34461U
             34944U 34960  34964M 35017  35019M 35052U 36146U 36162  36166M 36194  36195M 36404  36408M 36456  36458M
             36491U 36653U 36669  36673M 36722  36724M 36757U 36876U 36892  36896M
     9(9)      946U  2097   8141   8220M  8255   8458   8489   8574   8604  10043  10585  10593M 10593  12273  21941
             24567  25152M
    10(A)      942U  2097   8141   8220M  8255   8458   8489   8574   8604  10043  10594  10602M 10602  12273  24567
             25152M
    11(B)      938U  1161U  2097   8141   8220M  8255   8458   8489   8574   8604  10043  10152  12273  24567  25152M
    12(C)      934U  1170U  2097   8141   8175M  8220M  8255   8458   8489   8574   8604  10043  12273  24567  24592M
             25152M
    13(D)      930U  2097   7101   7104   7105   7106M  7106   7189M  7193   7195   7315   7318   7319   7320M  7320
              7723M  7727   7729   7751   7754   7755   7756M  7756   7853M  7857   7859   7885   7888   7889   7890M
              7890   8081M  8085   8087   8141   8220M  8242M  8243M  8246   8247M  8247   8255   8458   8475M  8476
              8489   8574   8604   8636   8639   8640   8641M  8641   8817M  8821   8823   8844   8847   8848   8849M
              8849   8960M  8964   8966   8988   8991   8992   8993M  8993   9195M  9199   9201   9250   9253   9255
              9256M  9256   9355M  9359   9361   9393   9396   9397   9398M  9398   9912M  9916   9918   9942   9945
              9946   9947M  9947  10043  10092M 10096  10098  10120  10123  10124  10125M 10125  10337M 10341  10343
             10366  10369  10370  10371M 10371  10423M 10427  10429  10450  10453  10454  10455M 10455  10507M 10511
             10513  10536  10539  10540  10541M 10541  10621M 10625  10627  10650  10653  10654  10655M 10655  10733M
             10737  10739  10762  10765  10766  10767M 10767  10875M 10879  10881  10997  11000  11001  11002M 11002
             11361M 11365  11367  11389  11392  11393  11394M 11394  11531M 11535  11537  11559  11562  11563  11564M
             11564  11711M 11715  11717  11739  11742  11743  11744M 11744  11871M 11875  11877  11899  11902  11903
             11904M 11904  12041M 12045  12047  12086  12089  12090  12091M 12091  12190M 12194  12196  12217  12220
             12221  12222M 12222  12273  12299M 12303  12305  12346  12349  12350  12351M 12351  12530  12531  12532
             12534M 12534  12547M 12548  12549  12550  12955M 12959  12961  13008  13011  13012  13013M 13013  13088M
             13092  13094  13124  13127  13128  13129M 13129  13498M 13502  13504  13530  13533  13534  13535M 13535
             13948M 13952  13954  13978  13981  13982  13983M 13983  14049  14050  14051  14053M 14053  14066M 14067
             14068  14069  14100M 14104  14106  14500  14503  14504  14505M 14505  14704M 14708  14710  14734  14737
             14738  14739M 14739  14899  14900  14901  14903M 14903  14916M 14917  14918  14919  14987  14990  14991
             14992M 14992  15169M 15173  15175  15192  15195  15196  15197M 15197  15249M 15253  15255  15270  15273
             15274  15275M 15275  15333M 15337  15339  15392  15395  15397  15398M 15398  15602  15603M 15603  15615
             15616  15617  15619M 15619  15632M 15633  15634  15635  15643M 15644  16309M 16313  16315  16365  16368
             16369  16370M 16370  16429M 16433  16435  16467  16470  16471  16472M 16472  16805M 16809  16811  16843
1         (WBUG2025) (13:00) (15MAR04) General Purpose Register Cross Reference                                             Page  236
             16846  16847  16848M 16848  16913  16914  16915  16917M 16917  16930M 16931  16932  16933  17362M 17366
             17368  17477  17480  17482  17483M 17483  17861M 17865  17867  17892  17895  17896  17897M 17897  18098M
             18102  18104  18135  18138  18139  18140M 18140  18241M 18245  18247  18269  18272  18273  18274M 18274
             18330M 18334  18336  18358  18361  18362  18363M 18363  18415M 18419  18421  18530  18533  18534  18535M
             18535  18757  18758  18759  18761M 18761  18774M 18775  18776  18777  18810M 18814  18816  18910  18913
             18914  18915M 18915  18960M 18964  18966  18990  18993  18994  18995M 18995  19234  19235  19236  19238M
             19238  19251M 19252  19253  19254  19287M 19291  19293  19414  19417  19419  19420M 19420  19603  19604
             19605  19607M 19607  19619M 19620  19621  19622  19748  19749  19750  19752M 19752  19765M 19766  19767
             19768  20081M 20085  20087  20178  20181  20182  20183M 20183  20233M 20237  20239  20254  20257  20258
             20259M 20259  20398M 20402  20404  20436  20439  20440  20441M 20441  20779  20780M 20780  20791  20792
             20793  20795M 20795  20808M 20809  20810  20811  20819M 20820  20844M 20848  20850  20939  20942  20943
             20944M 20944  21267M 21271  21273  21380  21383  21385  21386M 21386  21660  21661  21662  21664M 21664
             21677M 21678  21679  21680  21717  21718M 21718  21730M 21731  21982M 21986  21988  22074  22077  22078
             22079M 22079  22127M 22131  22133  22156  22159  22160  22161M 22161  22308  22309  22310  22312M 22312
             22325M 22326  22327  22328  22466M 22470  22472  22559  22562  22563  22564M 22564  22686  22687  22688
             22690M 22690  22703M 22704  22705  22706  22932M 22936  22938  23091  23094  23095  23096M 23096  23226
             23227  23228  23230M 23230  23243M 23244  23245  23246  23271M 23275  23277  23538  23541  23542  23543M
             23543  23589M 23593  23595  23610  23613  23614  23615M 23615  23661M 23665  23667  23682  23685  23686
             23687M 23687  23733M 23737  23739  23754  23757  23758  23759M 23759  23805M 23809  23811  23835  23838
             23839  23840M 23840  24111M 24115  24117  24174  24177  24178  24179M 24179  24218  24219  24220  24222M
             24222  24235M 24236  24237  24238  24263M 24267  24269  24378  24381  24382  24383M 24383  24433M 24437
             24439  24457  24460  24461  24462M 24462  24528M 24532  24534  24567  24593M 24594M 24950  24951M 24951
             24956M 24957  25152M 25173  25176  25177  25178M 25178  25246  25247  25248  25250M 25250  25263M 25264
             25265  25266  25395M 25399  25401  25562  25565  25567  25568M 25568  25623  25624  25625  25627M 25627
             25639M 25640  25641  25642  25819  25820  25821  25823M 25823  25835M 25836  25837  25838  26569M 26573
             26575  26629  26632  26634  26635M 26635  27181M 27185  27187  27215  27218  27220  27221M 27221  27923M
             27927  27929  27957  27960  27962  27963M 27963  28002  28004M 28004  28016  28017  28018  28020M 28020
             28032M 28033  28034  28035  28178M 28209M 28213  28215  28267  28270  28272  28273M 28273  28408M 28412
             28414  28529  28532  28534  28535M 28535  29014M 29018  29020  29077  29080  29081  29082M 29082  29210M
             29214  29216  29239  29242  29243  29244M 29244  29679M 29683  29685  29764  29767  29769  29770M 29770
             29930M 29934  29936  29967  29970  29971  29972M 29972  30409  30410M 30410  30443M 30514M 30518  30520
             30547  30550  30551  30552M 30552  33516M 33520  33522  33851  33854  33855  33856M 33856  33977M 33981
             33983  34010  34013  34014  34015M 34015  34133M 34137  34139  34187  34190  34192  34193M 34193  34333M
             34337  34339  34423  34426  34428  34429M 34429  34960M 34964  34966  35014  35017  35019  35020M 35020
             36162M 36166  36168  36191  36194  36195  36196M 36196  36404M 36408  36410  36453  36456  36458  36459M
             36459  36669M 36673  36675  36719  36722  36724  36725M 36725  36892M 36896  36898
    14(E)      926U  2097   2098M  2112   2113M  2114B  2116M  2117B  2137M  2138B  2142M  2143B  2145M  2146B  2148M
              2149B  2151M  2152B  2154M  2155M  2155B  2161   7101   7195M  7198B  7315   7522M  7523M  7523B  7540M
              7554M  7677M  7678M  7678B  7683M  7684M  7684B  7729M  7732B  7751   7830M  7831M  7831B  7859M  7862B
              7885   8020M  8021M  8021B  8026M  8027M  8027B  8059M  8060M  8060B  8087M  8090B  8141   8193M  8194M
              8194B  8212M  8213M  8213B  8220M  8222B  8246   8250M  8251M  8251B  8255   8256M  8294M  8295M  8295B
              8309M  8310M  8310B  8393M  8394M  8394B  8458   8459M  8472M  8473M  8473B  8476M  8477B  8489   8490M
              8574   8575M  8579B  8604   8605M  8636   8823M  8826B  8844   8966M  8969B  8988   9201M  9204B  9250
              9315M  9316M  9316B  9323M  9324M  9324B  9361M  9364B  9393   9430M  9431M  9431B  9454M  9455M  9455B
              9528M  9529M  9529B  9580M  9581M  9581B  9626M  9627M  9627B  9833M  9834M  9834B  9837M  9838M  9838B
              9854M  9855M  9855B  9859M  9860M  9860B  9876M  9877M  9877B  9880M  9881M  9881B  9884M  9885M  9885B
              9888M  9889M  9889B  9918M  9921B  9942  10012M 10013M 10013B 10037M 10038M 10038B 10043  10044M 10057M
             10058M 10058B 10061M 10062M 10062B 10098M 10101B 10120  10343M 10346B 10366  10400M 10401M 10401B 10404M
             10405M 10405B 10429M 10432B 10450  10484M 10485M 10485B 10488M 10489M 10489B 10513M 10516B 10536  10588M
             10589M 10589B 10597M 10598M 10598B 10627M 10630B 10650  10739M 10742B 10762  10881M 10884B 10997  11262M
             11263M 11263B 11283M 11284M 11284B 11304M 11305M 11305B 11325M 11326M 11326B 11367M 11370B 11389  11537M
             11540B 11559  11717M 11720B 11739  11877M 11880B 11899  12047M 12050B 12086  12166M 12167M 12167B 12196M
             12199B 12217  12272M 12273  12305M 12308B 12346  12396M 12397M 12397B 12433M 12434M 12434B 12441M 12442M
             12442B 12492M 12493M 12493B 12510M 12511M 12511B 12529M 12530  12531  12532  12537M 12538  12541M 12542M
             12542B 12545M 12548  12549  12550  12555M 12556M 12556B 12634M 12635M 12635B 12655M 12656M 12656B 12673M
             12674M 12674B 12697M 12698M 12698B 12718M 12719M 12719B 12736M 12737M 12737B 12741M 12742M 12742B 12746M
             12747M 12747B 12771M 12772M 12772B 12791M 12792M 12792B 12872M 12873M 12873B 12892M 12893M 12893B 12927M
             12928M 12928B 12931M 12932M 12932B 12961M 12964B 13008  13063M 13064M 13064B 13094M 13097B 13124  13174M
             13175M 13175B 13215M 13216M 13216B 13259M 13260M 13260B 13277M 13278M 13278B 13298M 13299M 13299B 13316M
1         (WBUG2025) (13:00) (15MAR04) General Purpose Register Cross Reference                                             Page  237
             13317M 13317B 13322M 13323M 13323B 13340M 13341M 13341B 13361M 13362M 13362B 13379M 13380M 13380B 13408M
             13409M 13409B 13426M 13427M 13427B 13447M 13448M 13448B 13465M 13466M 13466B 13504M 13507B 13530  13580M
             13581M 13581B 13646M 13647M 13647B 13658M 13659M 13659B 13676M 13677M 13677B 13703M 13704M 13704B 13728M
             13729M 13729B 13750M 13751M 13751B 13823M 13824M 13824B 13834M 13835M 13835B 13852M 13853M 13853B 13877M
             13878M 13878B 13889M 13890M 13890B 13907M 13908M 13908B 13954M 13957B 13978  14028M 14029M 14029B 14048M
             14049  14050  14051  14056M 14057  14060M 14061M 14061B 14064M 14067  14068  14069  14074M 14075M 14075B
             14106M 14109B 14500  14631M 14632M 14632B 14636M 14637M 14637B 14676M 14677M 14677B 14710M 14713B 14734
             14784M 14785M 14785B 14880M 14881N 14882N 14886M 14886  14898M 14899  14900  14901  14906M 14907  14910M
             14911M 14911B 14914M 14917  14918  14919  14924M 14925M 14925B 14987  15024M 15025N 15026N 15030M 15030
             15033M 15034M 15034B 15094M 15095M 15095B 15120M 15121M 15121B 15148M 15149M 15149B 15175M 15178B 15192
             15228M 15229M 15229B 15255M 15258B 15270  15312M 15313M 15313B 15339M 15342B 15392  15476M 15477M 15477B
             15494M 15495M 15495B 15502M 15503M 15503B 15513M 15514M 15514B 15529M 15530M 15530B 15541M 15542M 15542B
             15614M 15615  15616  15617  15622M 15623  15626M 15627M 15627B 15630M 15633  15634  15635  15640M 15641M
             15641B 15821M 15822M 15822B 15862M 15863M 15863B 16052M 16053M 16053B 16074M 16075M 16075B 16092M 16093M
             16093B 16116M 16117M 16117B 16150M 16151M 16151B 16174M 16175M 16175B 16212M 16213M 16213B 16236M 16237M
             16237B 16258M 16259M 16259B 16273M 16274M 16274B 16315M 16318B 16365  16435M 16438B 16467  16689M 16690M
             16690B 16711M 16712M 16712B 16729M 16730M 16730B 16759M 16760M 16760B 16777M 16778M 16778B 16811M 16814B
             16843  16893M 16894M 16894B 16912M 16913  16914  16915  16920M 16921  16924M 16925M 16925B 16928M 16931
             16932  16933  16938M 16939M 16939B 16972M 16973M 16973B 17049M 17050M 17050B 17084M 17085M 17085B 17110M
             17111M 17111B 17128M 17129M 17129B 17170M 17171M 17171B 17203M 17204M 17204B 17225M 17226M 17226B 17248M
             17249M 17249B 17293M 17294M 17294B 17322M 17323M 17323B 17368M 17371B 17477  17536M 17537M 17537B 17552M
             17553M 17553B 17562M 17563M 17563B 17712M 17713M 17713B 17836M 17837M 17837B 17867M 17870B 17892  18104M
             18107B 18135  18185M 18186M 18186B 18197M 18198M 18198B 18216M 18217M 18217B 18247M 18250B 18269  18303M
             18304M 18304B 18311M 18312M 18312B 18336M 18339B 18358  18392M 18393M 18393B 18421M 18424B 18530  18580M
             18581M 18581B 18592M 18593M 18593B 18655M 18656M 18656B 18732M 18733M 18733B 18756M 18757  18758  18759
             18764M 18765  18768M 18769M 18769B 18772M 18775  18776  18777  18782M 18783M 18783B 18790M 18791M 18791B
             18816M 18819B 18910  18966M 18969B 18990  19040M 19041M 19041B 19052M 19053M 19053B 19114M 19115M 19115B
             19191M 19192M 19192B 19233M 19234  19235  19236  19241M 19242  19245M 19246M 19246B 19249M 19252  19253
             19254  19259M 19260M 19260B 19267M 19268M 19268B 19293M 19296B 19414  19484M 19485M 19485B 19504M 19505M
             19505B 19585M 19586M 19586B 19602M 19603  19604  19605  19613M 19614M 19614B 19617M 19620  19621  19622
             19627M 19628M 19628B 19649M 19650M 19650B 19665M 19666M 19666B 19700M 19701M 19701B 19747M 19748  19749
             19750  19755M 19756  19759M 19760M 19760B 19763M 19766  19767  19768  19773M 19774M 19774B 19789M 19790M
             19790B 19800M 19801M 19801B 19841M 19842M 19842B 19882M 19883M 19883B 19988M 19989M 19989B 20087M 20090B
             20178  20239M 20242B 20254  20289M 20290M 20290B 20305M 20306M 20306B 20340M 20341M 20341B 20404M 20407B
             20436  20486M 20487M 20487B 20579M 20580M 20580B 20602M 20603M 20603B 20682M 20683M 20683B 20790M 20791
             20792  20793  20798M 20799  20802M 20803M 20803B 20806M 20809  20810  20811  20816M 20817M 20817B 20824M
             20825M 20825B 20850M 20853B 20939  20989M 20990M 20990B 21083M 21084M 21084B 21186M 21187M 21187B 21273M
             21276B 21380  21442M 21443M 21443B 21454M 21455M 21455B 21481M 21482M 21482B 21557M 21558M 21558B 21659M
             21660  21661  21662  21667M 21668  21671M 21672M 21672B 21675M 21678  21679  21680  21685M 21686M 21686B
             21692M 21693M 21693B 21697M 21698M 21698B 21702M 21703M 21703B 21721M 21722M 21722B 21727M 21728M 21728B
             21748M 21749M 21749B 21799M 21800M 21800B 21821M 21822M 21822B 21874M 21875M 21875B 21907M 21908M 21908B
             21912M 21913M 21913B 21930M 21931M 21931B 21947M 21948M 21948B 21951M 21952M 21952B 21957M 21958M 21958B
             21988M 21991B 22074  22108M 22109M 22109B 22133M 22136B 22156  22206M 22207M 22207B 22307M 22308  22309
             22310  22315M 22316  22319M 22320M 22320B 22323M 22326  22327  22328  22333M 22334M 22334B 22352M 22353M
             22353B 22377M 22378M 22378B 22395M 22396M 22396B 22422M 22423M 22423B 22440M 22441M 22441B 22445M 22446M
             22446B 22472M 22475B 22559  22685M 22686  22687  22688  22693M 22694  22697M 22698M 22698B 22701M 22704
             22705  22706  22711M 22712M 22712B 22730M 22731M 22731B 22752M 22753M 22753B 22788M 22789M 22789B 22828M
             22829M 22829B 22868M 22869M 22869B 22908M 22909M 22909B 22938M 22941B 23091  23225M 23226  23227  23228
             23233M 23234  23237M 23238M 23238B 23241M 23244  23245  23246  23251M 23252M 23252B 23277M 23280B 23538
             23595M 23598B 23610  23667M 23670B 23682  23739M 23742B 23754  23811M 23814B 23835  23885M 23886M 23886B
             23979M 23980M 23980B 24040M 24041M 24041B 24066M 24067M 24067B 24117M 24120B 24174  24217M 24218  24219
             24220  24225M 24226  24229M 24230M 24230B 24233M 24236  24237  24238  24243M 24244M 24244B 24269M 24272B
             24378  24439M 24442B 24457  24498M 24499M 24499B 24509M 24510M 24510B 24534M 24537B 24567  24871M 24872M
             24872B 24905M 24906M 24906B 24998M 24999M 24999B 25094M 25095M 25095B 25128M 25129M 25129B 25152M 25153B
             25173  25210M 25211M 25211B 25245M 25246  25247  25248  25253M 25254  25257M 25258M 25258B 25261M 25264
             25265  25266  25271M 25272M 25272B 25294M 25295M 25295B 25312M 25313M 25313B 25348M 25349M 25349B 25370M
             25371M 25371B 25375M 25376M 25376B 25401M 25404B 25562  25622M 25623  25624  25625  25633M 25634M 25634B
             25637M 25640  25641  25642  25647M 25648M 25648B 25712M 25713M 25713B 25727M 25728N 25729N 25733M 25733
             25818M 25819  25820  25821  25829M 25830M 25830B 25833M 25836  25837  25838  25843M 25844M 25844B 25908M
1         (WBUG2025) (13:00) (15MAR04) General Purpose Register Cross Reference                                             Page  238
             25909M 25909B 26033M 26034M 26034B 26053M 26054M 26054B 26293M 26294M 26294B 26399M 26400M 26400B 26483M
             26484M 26484B 26575M 26578B 26629  27187M 27190B 27215  27929M 27932B 27957  28001M 28002  28015M 28016
             28017  28018  28026M 28027M 28027B 28030M 28033  28034  28035  28040M 28041M 28041B 28057M 28058M 28058B
             28176M 28179  28215M 28218B 28267  28312M 28313M 28313B 28414M 28417B 28529  28677M 28678M 28678B 28712M
             28713M 28713B 28741M 28742M 28742B 28753M 28754M 28754B 28760M 28761M 28761B 28767M 28768M 28768B 28774M
             28775M 28775B 28781M 28782M 28782B 28835M 28836M 28836B 28930M 28931M 28931B 28972M 28973M 28973B 29020M
             29023B 29077  29152M 29153M 29153B 29185M 29186M 29186B 29216M 29219B 29239  29328M 29329M 29329B 29367M
             29368M 29368B 29389M 29390M 29390B 29411M 29412M 29412B 29429M 29430M 29430B 29457M 29458M 29458B 29475M
             29476M 29476B 29480M 29481M 29481B 29486M 29487M 29487B 29522M 29523M 29523B 29544M 29545M 29545B 29566M
             29567M 29567B 29584M 29585M 29585B 29612M 29613M 29613B 29630M 29631M 29631B 29635M 29636M 29636B 29660M
             29661M 29661B 29685M 29688B 29764  29858M 29859M 29859B 29874M 29875M 29875B 29895M 29896M 29896B 29936M
             29939B 29967  30003M 30004M 30004B 30083M 30084M 30084B 30125M 30126M 30126B 30170M 30171M 30171B 30175M
             30176M 30176B 30181M 30182M 30182B 30205M 30206M 30206B 30246M 30247M 30247B 30268M 30269M 30269B 30309M
             30310M 30310B 30354M 30355M 30355B 30364M 30365M 30365B 30382M 30383M 30383B 30388M 30389M 30389B 30406M
             30407M 30407B 30440M 30441M 30441B 30460M 30461M 30461B 30485M 30486M 30486B 30520M 30523B 30547  30630M
             30631M 30631B 30711M 30712M 30712B 30734M 30735M 30735B 30739M 30740M 30740B 30745M 30746M 30746B 30769M
             30770M 30770B 30804M 30805M 30805B 30828M 30829M 30829B 30867M 30868M 30868B 30891M 30892M 30892B 30902M
             30903M 30903B 31004M 31005M 31005B 31055M 31056M 31056B 31073M 31074M 31074B 31097M 31098M 31098B 31115M
             31116M 31116B 31139M 31140M 31140B 31190M 31191M 31191B 31208M 31209M 31209B 31232M 31233M 31233B 31250M
             31251M 31251B 31273M 31274M 31274B 31304M 31305M 31305B 31342M 31343M 31343B 31373M 31374M 31374B 31419M
             31420M 31420B 31441M 31442M 31442B 31496M 31497M 31497B 31514M 31515M 31515B 31538M 31539M 31539B 31556M
             31557M 31557B 31580M 31581M 31581B 31598M 31599M 31599B 31621M 31622M 31622B 31639M 31640M 31640B 31663M
             31664M 31664B 31681M 31682M 31682B 31732M 31733M 31733B 31755M 31756M 31756B 31773M 31774M 31774B 31797M
             31798M 31798B 31815M 31816M 31816B 31842M 31843M 31843B 31860M 31861M 31861B 31911M 31912M 31912B 31934M
             31935M 31935B 31952M 31953M 31953B 31977M 31978M 31978B 31995M 31996M 31996B 32019M 32020M 32020B 32037M
             32038M 32038B 32060M 32061M 32061B 32078M 32079M 32079B 32102M 32103M 32103B 32120M 32121M 32121B 32180M
             32181M 32181B 32219M 32220M 32220B 32258M 32259M 32259B 32297M 32298M 32298B 32336M 32337M 32337B 32375M
             32376M 32376B 32414M 32415M 32415B 32453M 32454M 32454B 32492M 32493M 32493B 32514M 32515M 32515B 32538M
             32539M 32539B 32598M 32599M 32599B 32637M 32638M 32638B 32676M 32677M 32677B 32715M 32716M 32716B 32754M
             32755M 32755B 32793M 32794M 32794B 32832M 32833M 32833B 32871M 32872M 32872B 32910M 32911M 32911B 32949M
             32950M 32950B 32988M 32989M 32989B 33027M 33028M 33028B 33066M 33067M 33067B 33105M 33106M 33106B 33144M
             33145M 33145B 33183M 33184M 33184B 33210M 33211M 33211B 33241M 33242M 33242B 33279M 33280M 33280B 33310M
             33311M 33311B 33356M 33357M 33357B 33378M 33379M 33379B 33433M 33434M 33434B 33451M 33452M 33452B 33491M
             33492M 33492B 33522M 33525B 33851  33983M 33986B 34010  34139M 34142B 34187  34233M 34234M 34234B 34290M
             34291M 34291B 34339M 34342B 34423  34469M 34470M 34470B 34966M 34969B 35014  35112M 35113M 35113B 35150M
             35151M 35151B 35175M 35176M 35176B 35193M 35194M 35194B 35198M 35199M 35199B 35216M 35217M 35217B 35221M
             35222M 35222B 35260M 35261M 35261B 35265M 35266M 35266B 35283M 35284M 35284B 35288M 35289M 35289B 35362M
             35363M 35363B 35392M 35393M 35393B 35425M 35426M 35426B 35462M 35463M 35463B 35499M 35500M 35500B 35599M
             35600M 35600B 35635M 35636M 35636B 35644M 35645M 35645B 35662M 35663M 35663B 35667M 35668M 35668B 35685M
             35686M 35686B 35715M 35716M 35716B 35733M 35734M 35734B 35825M 35826M 35826B 35861M 35862M 35862B 35870M
             35871M 35871B 35888M 35889M 35889B 35893M 35894M 35894B 35911M 35912M 35912B 35941M 35942M 35942B 35959M
             35960M 35960B 35998M 35999M 35999B 36003M 36004M 36004B 36021M 36022M 36022B 36026M 36027M 36027B 36044M
             36045M 36045B 36074M 36075M 36075B 36092M 36093M 36093B 36138M 36139M 36139B 36168M 36171B 36191  36264M
             36265M 36265B 36282M 36283M 36283B 36310M 36311M 36311B 36347M 36348M 36348B 36375M 36376M 36376B 36410M
             36413B 36453  36497M 36498M 36498B 36543M 36544M 36544B 36575M 36576M 36576B 36597M 36598M 36598B 36641M
             36642M 36642B 36675M 36678B 36719  36763M 36764M 36764B 36806M 36807M 36807B 36838M 36839M 36839B 36860M
             36861M 36861B 36898M 36901B
    15(F)      922U  2097   7163M  7197M  7197   7359   7545M  7553   7554M  7625M  7625   7696M  7696   7731M  7731
              7861M  7861   8017M  8056M  8089M  8089   8136U  8141   8152U  8220M  8255   8458   8489   8574   8584M
              8595U  8604   8615U  8775M  8775   8795M  8825M  8825   8968M  8968   9203M  9203   9363M  9363   9920M
              9920  10043  10100M 10100  10345M 10345  10431M 10431  10515M 10515  10629M 10629  10741M 10741  10883M
             10883  11369M 11369  11539M 11539  11719M 11719  11879M 11879  12049M 12049  12147M 12148  12162  12163M
             12198M 12198  12273  12274M 12275B 12307M 12307  12430M 12489M 12507M 12551M 12551  12631M 12652M 12670M
             12694M 12715M 12733M 12768M 12963M 12963  13096M 13096  13212M 13274M 13295M 13313M 13337M 13358M 13376M
             13423M 13444M 13462M 13506M 13506  13673M 13747M 13849M 13904M 13956M 13956  14070M 14070  14108M 14108
             14712M 14712  14920M 14920  15047  15075  15177M 15177  15257M 15257  15341M 15341  15473M 15491M 15555
             15583  15636M 15636  16049M 16071M 16089M 16113M 16147M 16171M 16209M 16233M 16255M 16317M 16317  16437M
             16437  16508  16686M 16708M 16726M 16756M 16774M 16813M 16813  16934M 16934  16969M 17046M 17081M 17107M
             17125M 17167M 17200M 17222M 17290M 17319M 17370M 17370  17575  17603  17709M 17833M 17869M 17869  17933
1         (WBUG2025) (13:00) (15MAR04) General Purpose Register Cross Reference                                             Page  239
             18106M 18106  18249M 18249  18338M 18338  18423M 18423  18605  18633  18668  18691  18778M 18778  18787M
             18818M 18818  18968M 18968  19065  19093  19127  19150  19255M 19255  19264M 19295M 19295  19518  19546
             19623M 19623  19646M 19662M 19697M 19769M 19769  19838M 19879M 19894M 19895M 19895  19904M 19913M 19913
             19920  20004M 20005M 20005  20014M 20023M 20023  20030  20089M 20089  20241M 20241  20286M 20302M 20337M
             20380M 20380  20406M 20406  20592  20620  20695  20717  20812M 20812  20852M 20852  21096  21124  21199
             21227  21275M 21275  21494  21516  21538  21570  21611  21633  21681M 21681  21717  21731M 21745M 21796M
             21818M 21871M 21904M 21927M 21944M 21990M 21990  22135M 22135  22329M 22329  22349M 22374M 22392M 22419M
             22437M 22474M 22474  22707M 22707  22727M 22749M 22785M 22825M 22865M 22905M 22940M 22940  23247M 23247
             23279M 23279  23597M 23597  23669M 23669  23741M 23741  23813M 23813  23993  24021  24119M 24119  24239M
             24239  24271M 24271  24441M 24441  24536M 24536  24567  25152M 25267M 25267  25291M 25309M 25345M 25367M
             25403M 25403  25643M 25643  25699M 25839M 25839  25895M 26089  26103  26112M 26113N 26312  26418  26524M
             26524  26532M 26538M 26577M 26577  26793M 26793  26870M 26870  26890M 26890  26918M 26918  26942M 26942
             27002M 27002  27022M 27022  27068M 27068  27114M 27114  27142M 27142  27153M 27189M 27189  27856M 27892M
             27892  27894M 27894  27931M 27931  28036M 28036  28044M 28059M 28147M 28168M 28168  28180M 28180  28217M
             28217  28325  28416M 28416  28582M 28582N 28584  28611  28614  28618M 28619M 28620  28674M 28738M 28748M
             28755M 28762M 28769M 28776M 28830M 28925M 28969M 29022M 29022  29218M 29218  29325M 29364M 29386M 29408M
             29426M 29454M 29472M 29483M 29519M 29541M 29563M 29581M 29609M 29627M 29657M 29687M 29687  29938M 29938
             30080M 30167M 30178M 30202M 30243M 30265M 30306M 30351M 30361M 30379M 30385M 30403M 30437M 30457M 30482M
             30522M 30522  30708M 30731M 30742M 30766M 30801M 30825M 30864M 30888M 30899M 31001M 31052M 31070M 31094M
             31112M 31136M 31187M 31205M 31229M 31247M 31270M 31301M 31339M 31370M 31416M 31438M 31493M 31511M 31535M
             31553M 31577M 31595M 31618M 31636M 31660M 31678M 31729M 31752M 31770M 31794M 31812M 31839M 31857M 31908M
             31931M 31949M 31974M 31992M 32016M 32034M 32057M 32075M 32099M 32117M 32177M 32216M 32255M 32294M 32333M
             32372M 32411M 32450M 32489M 32511M 32535M 32595M 32634M 32673M 32712M 32751M 32790M 32829M 32868M 32907M
             32946M 32985M 33024M 33063M 33102M 33141M 33180M 33207M 33238M 33276M 33307M 33353M 33375M 33430M 33448M
             33488M 33524M 33524  33943M 33943  33948M 33985M 33985  34099M 34099  34104M 34141M 34141  34292  34299M
             34299  34304M 34341M 34341  34926M 34926  34928M 34928  34933M 34968M 34968  35109M 35147M 35172M 35190M
             35213M 35257M 35280M 35359M 35389M 35422M 35459M 35496M 35596M 35632M 35659M 35682M 35712M 35730M 35822M
             35858M 35885M 35908M 35938M 35956M 35995M 36018M 36041M 36071M 36089M 36135M 36170M 36170  36261M 36279M
             36307M 36344M 36372M 36412M 36412  36499  36509M 36509  36540M 36572M 36594M 36638M 36677M 36677  36776
             36803M 36835M 36857M 36900M 36900

1WBUG     (WBUG2025) (13:00) (15MAR04) Diagnostic Cross Reference and Assembler Summary                                     Page  240
-                                                                                            HLASM R4.0  2004/03/15 13.00
0     No Statements Flagged in this Assembly
 HIGH LEVEL ASSEMBLER, 5696-234, RELEASE 4.0, PTF P72483
0SYSTEM: OS/390 02.10.00            JOBNAME: WYL#WBUG    STEPNAME: ASM        PROCSTEP: (NOPROC)
0Datasets Allocated for this Assembly
  Con DDname   Dataset Name                                 Volume  Member
   P1 SYSIN    WYL.GS.WYL.WYLBUR.SOURCE                     SYSB05  WBUG
   L1 SYSLIB   WYL.GS.WYL.WYLBUR.MACLIB                     SYSB05
   L2          WYL.GG.SYS.MACLIB                            SYSB05
   L3          SYS3.IS.MACLIB                               SYSB05
   L4          SYS3.MACLIB                                  SYSB02
   L5          SYS1.MACLIB                                  MVSBR9
   L6          SYS1.MODGEN                                  MVSBR9
      SYSPRINT SYS04075.T130049.RA000.WYL#WBUG.PRINT.H01    SCR101
      SYSTERM  GG$SLP.WYL#WBUG.JOB03589.D0000101.?

    3668K allocated to Buffer Pool,         4397K would be required for this to be an In-Storage Assembly
    4975 Primary Input Records Read         7474 Library Records Read                126 Work File Reads
       0 ASMAOPT Records Read              20267 Primary Print Records Written       185 Work File Writes
       0 Punch Records Written                 0 ADATA Records Written
0Assembly Start Time: 13.00.51 Stop Time: 13.01.03 Processor Time: 00.00.07.1378
 Return Code 000
