1                        J E S 2  J O B  L O G  --  S Y S T E M  S Y S B  --  N O D E  R L G
0
 12.57.12 JOB03569 ---- MONDAY,    15 MAR 2004 ----
 12.57.12 JOB03569  ICH70001I GG$SLP   LAST ACCESS AT 12:56:50 ON MONDAY, MARCH 15, 2004
 12.57.12 JOB03569  $HASP373 WYL#TEST STARTED - INIT 6    - CLASS B - SYS SYSB
 12.57.12 JOB03569  ***  HCMD      STEP $$QUIET
 12.57.12 JOB03569  PUR * Q OUT MUL
 12.57.12 JOB03569  JOB 5431 WYL#TEST WILL BE PURGED
 12.57.13 JOB03569  WYL#TEST.$$QUIET .         RC=Zero TapeIO=0000 DiskIO=0000 CPU=  .01s Elapsed=32.57s
 12.57.17 JOB03569  WYL#TEST.ASM     .         RC=Zero TapeIO=0000 DiskIO=0459 CPU= 1.53s Elapsed=33.60s
 12.57.17 JOB03569  WYL#TEST.EDIT    .         RC=Zero TapeIO=0000 DiskIO=0035 CPU=  .11s Elapsed=37.55s
 12.57.17 JOB03569  WYL#TEST Ended.  Name=Assemble TEST                  Total CPU= 1.65s Elapsed=32.57s
 12.57.17 JOB03569
 12.57.17 JOB03569  Execution charges   Priority=Standard   Block=Day
 12.57.17 JOB03569
 12.57.17 JOB03569  CPU Usage          30.00          $18.60   Standard Processing Unit Equivalent
 12.57.17 JOB03569                                   =======
 12.57.17 JOB03569                                    $18.60   Total Job execution charge
 12.57.17 JOB03569
 12.57.17 JOB03569  See back separator page for print charges
 12.57.17 JOB03569
 12.57.17 JOB03569  $HASP395 WYL#TEST ENDED  ASM=0, EDIT=0
1        1 //WYL#TEST JOB SLP$GG,'Assemble TEST',TIME=4,REGION=4M                  JOB03569
           //*
           /*JOBPARM LINES=99,COPIES=1
           /*JOBPARM FORMS=3HOL,PFORMAT=LAND,CHARS=BD13,DUPLEX=YES,FLASH=BAR4
           //*
           /*JOBPARM NOTIFY=GG.SLP,HOLD=OUTPUT                                     WYLGEN
         2 //$$QUIET EXEC PGM=HCMDX,PARM='PUR * Q OUT MUL'
           //*
         3 //ASM    EXEC PGM=ASMA90,REGION=8M,
           //            PARM=('NORENT,TERM,FLAG(NOCONT),US(MAP,WARN(10)),NODECK',
           //            'LC(32767),XREF(SHORT),ESD,DXREF,NOOBJECT')
         4 //STEPLIB DD DSN=SYS3.IS.TESTASM,DISP=SHR
         5 //SYSLIB   DD  DSN=WYL.GS.WYL.WYLBUR.MACLIB,DISP=SHR
         6 //         DD  DSN=WYL.GG.SYS.MACLIB,DISP=SHR
         7 //         DD  DSN=SYS3.IS.MACLIB,DISP=SHR
         8 //         DD  DSN=SYS3.MACLIB,DISP=SHR
         9 //         DD  DSN=SYS1.MACLIB,DISP=SHR
        10 //         DD  DSN=SYS1.MODGEN,DISP=SHR
        11 //SYSUT1   DD DSN=&&SYSUT1,UNIT=VIO,DISP=(,DELETE),
           //            SPACE=(4088,(500,250),,CONTIG,ROUND)
        12 //SYSTERM  DD SYSOUT=T
        13 //SYSPRINT DD DSN=&&PRINT,UNIT=SYSDA,DISP=(,PASS),
           //            SPACE=(6650,(250,250),RLSE),
           //            DCB=(BLKSIZE=6650,LRECL=133,RECFM=FB)
        14 //SYSUDUMP DD SYSOUT=A
        15 //SYSIN    DD  DSN=WYL.GS.WYL.WYLBUR.SOURCE(TEST),DISP=SHR
           //*
        16 //EDIT    EXEC PGM=ASMEDIT,TIME=2,REGION=4000K,
           //             PARM='STMT'
        17 //STEPLIB  DD  DSN=WYL.GG.SYS.LINKLIB,DISP=SHR
        18 //ASMOUT   DD  DSN=&PRINT,DISP=(OLD,DELETE)
        19 //SYSPRINT DD  SYSOUT=A
1 STMT NO. MESSAGE
 -
        11 IGD01010I STORCLAS= TEMP STORGROUP =
        11 IGD01010I STORGRP=VIO ASSIGNED.
        13 IGD01010I STORCLAS= TEMP STORGROUP =
        13 IGD01010I STORGRP=VIO ASSIGNED.
 ICH70001I GG$SLP   LAST ACCESS AT 12:56:50 ON MONDAY, MARCH 15, 2004
 IEF142I WYL#TEST $$QUIET - STEP WAS EXECUTED - COND CODE 0000
 *********************************************************************************
 *   WYL#TEST/$$QUIET /                    Return Code      Zero                 *
 *   Region used      260K (16K user + 244K system)                              *
 *   Extended region  9692K (4K user + 9688K system)                             *
 *                                                                               *
 *   Paging              In      Out                                             *
 *   Private <-> Aux      0        0       CPU time (TCB)   00:00:00.01          *
 *   Private <-> Exp      0        0       CPU time (SRB)   00:00:00.00          *
 *   VIO                  0        0       Elapsed time    917:30:40.39          *
 *   Common               0      ---                                             *
 *                                                                               *
 *                                                                               *
 *   CPU Usage          0.18         $0.11  Standard Processing Unit Equivalent  *
 *                                   $0.11  Total Step execution charge          *
 *                                                                               *
 *    I/O count  DDname   Type Addr           I/O count  DDname   Type Addr      *
 *                         *** No I/O for this step ***                          *
 *********************************************************************************
 IEF373I STEP/$$QUIET /START 2004075.1257
 IEF374I STEP/$$QUIET /STOP  2004075.1257 CPU    0MIN 00.01SEC SRB    0MIN 00.00SEC VIRT    16K SYS   244K EXT       4K SYS    9688K
 IEF236I ALLOC. FOR WYL#TEST ASM
 IEF237I 04DC ALLOCATED TO STEPLIB
 IEF237I 04DC ALLOCATED TO SYSLIB
 IEF237I 04DC ALLOCATED TO
 IEF237I 04DC ALLOCATED TO
 IEF237I 0402 ALLOCATED TO
 IEF237I 04A0 ALLOCATED TO
 IEF237I 04A0 ALLOCATED TO
 IGD101I SMS ALLOCATED TO DDNAME (SYSUT1  )
         DSN (SYS04075.T125712.RA000.WYL#TEST.SYSUT1.H01  )
         STORCLAS (TEMP) MGMTCLAS (        ) DATACLAS (        )
         VOL SER NOS= VIO
 IEF237I JES2 ALLOCATED TO SYSTERM
 IGD101I SMS ALLOCATED TO DDNAME (SYSPRINT)
         DSN (SYS04075.T125712.RA000.WYL#TEST.PRINT.H01   )
         STORCLAS (TEMP) MGMTCLAS (        ) DATACLAS (        )
         VOL SER NOS= SCR101
 IEF237I JES2 ALLOCATED TO SYSUDUMP
 IEF237I 04DC ALLOCATED TO SYSIN
 IEF142I WYL#TEST ASM - STEP WAS EXECUTED - COND CODE 0000
 IEF285I   SYS3.IS.TESTASM                              KEPT
 IEF285I   VOL SER NOS= SYSB05.
 IEF285I   WYL.GS.WYL.WYLBUR.MACLIB                     KEPT
 IEF285I   VOL SER NOS= SYSB05.
 IEF285I   WYL.GG.SYS.MACLIB                            KEPT
 IEF285I   VOL SER NOS= SYSB05.
 IEF285I   SYS3.IS.MACLIB                               KEPT
 IEF285I   VOL SER NOS= SYSB05.
 IEF285I   SYS3.MACLIB                                  KEPT
 IEF285I   VOL SER NOS= SYSB02.
 IEF285I   SYS1.MACLIB                                  KEPT
 IEF285I   VOL SER NOS= MVSBR9.
 IEF285I   SYS1.MODGEN                                  KEPT
 IEF285I   VOL SER NOS= MVSBR9.
 IGD105I SYS04075.T125712.RA000.WYL#TEST.SYSUT1.H01   DELETED,   DDNAME=SYSUT1
 IEF285I   GG$SLP.WYL#TEST.JOB03569.D0000101.?          SYSOUT
 IGD106I SYS04075.T125712.RA000.WYL#TEST.PRINT.H01    PASSED,    DDNAME=SYSPRINT
 IEF285I   GG$SLP.WYL#TEST.JOB03569.D0000102.?          SYSOUT
 IEF285I   WYL.GS.WYL.WYLBUR.SOURCE                     KEPT
 IEF285I   VOL SER NOS= SYSB05.
 *********************************************************************************
 *   WYL#TEST/ASM     /                    Return Code      Zero                 *
 *   Region used      4376K (4096K user + 280K system)                           *
 *   Extended region  10292K (412K user + 9880K system)                          *
 *                                                                               *
 *   Paging              In      Out                                             *
 *   Private <-> Aux      0        0       CPU time (TCB)   00:00:01.48          *
 *   Private <-> Exp      0        0       CPU time (SRB)   00:00:00.05          *
 *   VIO                  0        0       Elapsed time    917:30:39.36          *
 *   Common               0      ---                                             *
 *                                                                               *
 *                                                                               *
 *   CPU Usage         27.75        $17.20  Standard Processing Unit Equivalent  *
 *                                  $17.20  Total Step execution charge          *
 *                                                                               *
 *    I/O count  DDname   Type Addr           I/O count  DDname   Type Addr      *
 *           90  STEPLIB  Disk 04DC                 272  SYSLIB   Disk 04DC      *
 *            0  SYSLIB   Disk 04DC                   0  SYSLIB   Disk 04DC      *
 *            0  SYSLIB   Disk 0402                  63  SYSLIB   Disk 04A0      *
 *            0  SYSLIB   Disk 04A0                   0  SYSUT1   VIO  ----      *
 *            0  SYSTERM       ----                  32  SYSPRINT Disk 04E3      *
 *            0  SYSUDUMP      ----                   2  SYSIN    Disk 04DC      *
 *********************************************************************************
 IEF373I STEP/ASM     /START 2004075.1257
 IEF374I STEP/ASM     /STOP  2004075.1257 CPU    0MIN 01.48SEC SRB    0MIN 00.05SEC VIRT  4096K SYS   280K EXT     412K SYS    9880K
 IEF236I ALLOC. FOR WYL#TEST EDIT
 IEF237I 0402 ALLOCATED TO STEPLIB
 IGD103I SMS ALLOCATED TO DDNAME ASMOUT
 IEF237I JES2 ALLOCATED TO SYSPRINT
 IEF142I WYL#TEST EDIT - STEP WAS EXECUTED - COND CODE 0000
 IEF285I   WYL.GG.SYS.LINKLIB                           KEPT
 IEF285I   VOL SER NOS= SYSB02.
 IGD105I SYS04075.T125712.RA000.WYL#TEST.PRINT.H01    DELETED,   DDNAME=ASMOUT
 IEF285I   GG$SLP.WYL#TEST.JOB03569.D0000103.?          SYSOUT
 *********************************************************************************
 *   WYL#TEST/EDIT    /                    Return Code      Zero                 *
 *   Region used      380K (116K user + 264K system)                             *
 *   Extended region  9812K (4K user + 9808K system)                             *
 *                                                                               *
 *   Paging              In      Out                                             *
 *   Private <-> Aux      0        0       CPU time (TCB)   00:00:00.11          *
 *   Private <-> Exp      0        0       CPU time (SRB)   00:00:00.00          *
 *   VIO                  0        0       Elapsed time    917:30:35.41          *
 *   Common               0      ---                                             *
 *                                                                               *
 *                                                                               *
 *   CPU Usage          2.06         $1.27  Standard Processing Unit Equivalent  *
 *                                   $1.27  Total Step execution charge          *
 *                                                                               *
 *    I/O count  DDname   Type Addr           I/O count  DDname   Type Addr      *
 *            2  STEPLIB  Disk 0402                  33  ASMOUT   Disk 04E3      *
 *            0  SYSPRINT      ----                                              *
 *********************************************************************************
 IEF373I STEP/EDIT    /START 2004075.1257
 IEF374I STEP/EDIT    /STOP  2004075.1257 CPU    0MIN 00.11SEC SRB    0MIN 00.00SEC VIRT   116K SYS   264K EXT       4K SYS    9808K
 *********************************************************************************
 *                                                                               *
 *                      S t a n f o r d   U n i v e r s i t y                    *
 *                                                                               *
 *                              *** Job Summary ***                              *
 *                                                                               *
 *   System Id      SYSB                   Input time     12:39:27  Mar 15, 2004 *
 *                                                                               *
 *   System Release SP6.1.0                Start time     12:57:12  Mar 15, 2004 *
 *                                                                               *
 *   Job name       WYL#TEST               Stop  time     00:00:00  Mar 15, 2004 *
 *                                                                               *
 *   Account        SLP$GG                 Elapsed time  917:30:40.39            *
 *                                                                               *
 *   User Name      Assemble TEST          CPU time       00:00:01.60            *
 *                                                                               *
 *   Job class      B                      SRB Time       00:00:00.05            *
 *                                                                               *
 *********************************************************************************
 IEF375I  JOB/WYL#TEST/START 2004075.1257
 IEF376I  JOB/WYL#TEST/STOP  2004075.1257 CPU    0MIN 01.60SEC SRB    0MIN 00.05SEC
1Assembler Done TEST No Statements Flagged
1         High Level Assembler Option Summary                   (PTF P72483 )                                               Page    1
-                                                                                            HLASM R4.0  2004/03/15 12.57
0  No Overriding ASMAOPT Parameters
   Overriding Parameters-  NORENT,TERM,FLAG(NOCONT),US(MAP,WARN(10)),NODECK,LC(32767),XREF(SHORT),ESD,DXREF,NOOBJECT
   No Process Statements


   Options for this Assembly
0  NOADATA
     ALIGN
   NOASA
     BATCH
     CODEPAGE(047C)
   NOCOMPAT
   NODBCS
 3 NODECK
 3   DXREF
 3   ESD
   NOEXIT
 3   FLAG(0,ALIGN,NOCONT,NOIMPLEN,NOPAGE0,PUSH,RECORD,NOSUBSTR,USING0)
   NOFOLD
   NOGOFF
   NOINFO
     LANGUAGE(EN)
   NOLIBMAC
 3   LINECOUNT(32767)
     LIST(121)
     MXREF(SOURCE)
 3 NOOBJECT
     OPTABLE(UNI,NOLIST)
   NOPCONTROL
   NOPESTOP
   NOPROFILE
   NORA2
 3 NORENT
     RLD
     RXREF
     SIZE(MAX)
     SYSPARM()
 3   TERM(WIDE)
   NOTEST
     THREAD
   NOTRANSLATE
 3   USING(NOLIMIT,MAP,WARN(10))
 3   XREF(SHORT)

   No Overriding DD Names

1TEST     External Symbol Dictionary                                                                                        Page    2
-Symbol   Type   Id     Address  Length     LD ID  Flags Alias-of                            HLASM R4.0  2004/03/15 12.57
0WYLTEST   SD 00000001 00000000 00000540             00
 TEST2025  LD          00000000           00000001
 WTEST     LD          00000018           00000001
 MTOKEN    ER 00000002
 MALL      ER 00000003
 SCNINVAL  ER 00000004
 SEGCR     ER 00000005
 YESREQ    ER 00000006
 NSCAN     ER 00000007
 SCANCHK   ER 00000008
 PGETNEW   ER 00000009
 SEG       ER 0000000A
 SEGDC     ER 0000000B
 SEGHX     ER 0000000C
 SEGWR     ER 0000000D
 CV        ER 0000000E

1TEST     WYLBUR Generic Module Template                                                                                    Page    3
0Loc    Object Code    Addr1 Addr2  Stmt Lv Lineno    Source Statement                    (Asmedit 3.3)  HLASM R4.0  2004/03/15 12.57
+___    ______ ____    _____ _____  ____ __ ______    ______ _________
0                                      2              *******************************************************************
                                       3              *                                                                 *
                                       4              *     WYLBUR/370 - Release VI - Class I - Stanford Proprietary    *
                                       5              *                                                                 *
                                       6              *******************************************************************
                                       7                       HIBAL
                                     988
 000000                00000 00540   989              WYLTEST  CSECT
                                     993                       REGS  FSR,,,,,,,BR,(WAR,LSR),PAR,PBR,CPR,CVR,SPR,RAR
                                    1129
                                    1130              TEST     IDENT 2025                11:49:35 01/25/02  (SLP)
                                    1133             +
                                    1134    01-IDENT +         ENTRY TEST2025
                                    1135             +
 000000 16E3C5E2E3F2F0F2            1136    01-IDENT +TEST2025 DC    AL1(22),C'TEST2025,15MAR04,12:57'
                                    1137             +*
                                    1139              *
                                    1140                       SYSDEFN ,                 Define installation values
                                    1141
                                    1142                       PUSH  DSECTS
 USING  CP,R11                      1153             =         USING (CP),(CV)
 USING  CV,R12
 000017                00000 00540  1172             =         POP   PRINT
                                    8927
1TEST     (TEST2025) (12:57) (15MAR04) Common Control Blocks                                                                Page    4
0Current Usings:  (CP,R11) (CV,R12)
0Loc    Object Code    Addr1 Addr2  Stmt Lv Lineno    Source Statement           (Hibal 5, Asmedit 3.3)  HLASM R4.0  2004/03/15 12.57
+___    ______ ____    _____ _____  ____ __ ______    ______ _________
0                                   8929                       COPY  FFINFO
                                    8930             =*
                                    8931             =*
                                    8932             =*  FILE INFO DSECT
                                    8933             =*
                                    8934             =*  THIS DSECT CONTAINS THE INFO NEEDED TO OPEN FILES.
                                    8935             =*  IT CONTAINS THE FILE NAME, FILE OPTIONS, FILE SYSTEM
                                    8936             =*  NAME AND FILE SYSTEM OPTIONS. THIS DSECT SHOULD CONTAIN
                                    8937             =*  ONLY DESCRIPTIVE INFO NEEDED TO OPEN THE FILE.
                                    8938             =*
                                    8939             =*
                                    8940             =FNAMELN  EQU   128                 MAXIMUM FILE NAME LENGTH
                                    8941             =FSYSLN   EQU   128                 MAXIMUM FILE SYSTEM LENGTH
                                    8942             =FHOSTLN  EQU   128                 MAXIMUM FILE SYSTEM HOST LENGTH
                                    8943             =*
                                    8944             =*
 000000                00000 003A0  8945             =FFINFO   RECORD BEGIN
 000000 00                          8953  1          =FFTYPE     FLAG  ,                   FILE SYSTEM TYPE FLAGS
 FFTYPE.FFFWINGS   01 EQ            8957  1          =           FLAG  (FFFWINGS,1,EQ)     WINGS
 FFTYPE.FFFUNIX    02 EQ            8967  1          =           FLAG  (FFFUNIX,2,EQ)      UNIX (NOT IMPLEMENTED)
 FFTYPE.FFFSAM     03 EQ            8977  1          =           FLAG  (FFFSAM,3,EQ)       SAMSON
 FFTYPE.FFFNET     04 EQ            8987  1          =           FLAG  (FFFNET,4,EQ)       NET
 FFTYPE.FFFOLD     05 EQ            8997  1          =           FLAG  (FFFOLD,5,EQ)       OLD IBM
 000001 00                          9007  1          =FFRQTYPE   FLAG  ,                   REQUEST TYPE FLAGS
 FFRQTYPE.FFFREAD  01 EQ            9011  1          =           FLAG  (FFFREAD,1,EQ)      READ (DEFAULT)
 FFRQTYPE.FFFWRITE 02 EQ            9021  1          =           FLAG  (FFFWRITE,2,EQ)     WRITE
 FFRQTYPE.FFFAPPD  04 EQ            9031  1          =           FLAG  (FFFAPPD,4,EQ)      APPEND
 FFRQTYPE.FFFREPL  08 EQ            9041  1          =           FLAG  (FFFREPL,8,EQ)      REPLACE
 000002 00                          9051  1          =FFMISC     FLAG  ,                   MISC FLAGS
 FFMISC.FFFPASSW   80 ONES          9055  1          =           FLAG  FFFPASSW            PASSWORD ACCESS OK
 FFMISC.FFFDIFFV   40 ONES          9060  1          =           FLAG  FFFDIFFV            DIFFERENT VOL SAVE OK
 FFMISC.FFFCHFMT   20 ONES          9065  1          =           FLAG  FFFCHFMT            CHANGE DSN FORMAT OK
 FFMISC.FFFNRACF   10 ONES          9070  1          =           FLAG  FFFNRACF            NO RACF PROCESSING
 FFMISC.FFFPDS     08 ONES          9075  1          =           FLAG  FFFPDS              OP APPLIES TO PDS
 000003 00                          9080  1          =FFPTYPE    FLAG  ,                   PREVIOUS FILE TYPE
 FFPTYPE.FFFPWINGS 01 EQ            9084  1          =           FLAG  (FFFPWINGS,1,EQ)    WINGS
 FFPTYPE.FFFPUNIX  02 EQ            9094  1          =           FLAG  (FFFPUNIX,2,EQ)     UNIX (NOT IMPLEMENTED)
 FFPTYPE.FFFPSAM   03 EQ            9104  1          =           FLAG  (FFFPSAM,3,EQ)      SAMSON
 FFPTYPE.FFFPNET   04 EQ            9114  1          =           FLAG  (FFFPNET,4,EQ)      NET
 FFPTYPE.FFFPOLD   05 EQ            9124  1          =           FLAG  (FFFPOLD,5,EQ)      OLD IBM
 000004 00                          9134  1          =FFFLAG4    FLAG  ,
 000008                             9138  1          =FFNAMEL    DS    F                   FILE NAME
 00000C                             9139  1          =FFNAME     DS    CL128
 00008C                             9140  1          =FFHOSTL    DS    F                   FILE HOST
 000090                             9141  1          =FFHOST     DS    CL128
 000110                             9142  1          =FFOPTSL    DS    F                   FILE OPTIONS (FORMAT ETC)
 000114                             9143  1          =FFOPTS     DS    CL256
 000214                             9144  1          =FFRNAMEL   DS    F                   RESOLVED FULL FILE NAME
 000218                             9145  1          =FFRNAME    DS    CL128
 000298                             9146  1          =FFPNAMEL   DS    F                   PREVIOUS FILE NAME (IE. *)
 00029C                             9147  1          =FFPNAME    DS    CL128
 00031C                             9148  1          =FFPHOSTL   DS    F                   PREVIOUS HOST
 000320                             9149  1          =FFPHOST    DS    CL128
 0003A0                003A0 003A0  9150             =         END   ,
1TEST     (TEST2025) (12:57) (15MAR04) Common Control Blocks                                                                Page    5
0Current Usings:  (CP,R11) (CV,R12)
0Loc    Object Code    Addr1 Addr2  Stmt Lv Lineno    Source Statement           (Hibal 5, Asmedit 3.3)  HLASM R4.0  2004/03/15 12.57
+___    ______ ____    _____ _____  ____ __ ______    ______ _________
0                                   9159
 000017                00000 00540  9160              WYLTEST  CSECT
1TEST     (TEST2025) (12:57) (15MAR04) WTEST Command                                                                        Page    6
0Current Usings:  (CP,R11) (CV,R12)
0Loc    Object Code    Addr1 Addr2  Stmt Lv Lineno    Source Statement           (Hibal 5, Asmedit 3.3)  HLASM R4.0  2004/03/15 12.57
+___    ______ ____    _____ _____  ____ __ ______    ______ _________
0                                   9163              ¿þþþþþþþþþþþþþþþþþþþþþþþþþþþþþþþþþþþþþþþþþþþþþþþþþþþþþþþþþþþþþþþþþþþþþÜ
                                    9164              Ÿ                                                                     Ÿ
                                    9165              Ÿ  WTEST -- Entry point for all test commands.                        Ÿ
                                    9166              Ÿ                                                                     Ÿ
                                                      ¾þþþþþþþþþþþþþþþþþþþþþþþþþþþþþþþþþþþþþþþþþþþþþþþþþþþþþþþþþþþþþþþþþþþþþ»
0000018 50E0 D000/9008_      00000  9167              WTEST    XPROC
 USING  *,R7
 000032 9120 B3BE/47E0_003BE        9207                       IF    ~CPSFSPR,CVNVALID
                                    9225
 00003A 9102 C4C5/4710_004C5        9226                       IF    ~CVFTEST,BEGIN
 000042 4110 7496/4100_      004C8  9241  1                      TSEG  'This is production Wylbur.',,CR
 000054 4110 74B0/4100_      004E2  9259  1                      SETMSG 'Are you sure you want to use the WTEST command'
 00005C 58E0 7462/0DEE       00494  9263  1                      VCALL YESREQ
 000062                             9267                       END
                                    9271
 000062 5810 B08C/1B00_      0008C  9272                       SCAN DEBUGPRT
 0000B4 58E0 746E/0DEE       004A0  9304                       SCANCHK
 0000BA 47F0 C7DE            007DE  9309                       B     CVNEXT
 0000BE 18D8/9808 D004_             9310                       PEND
 DROP   *,R7
                                    9330
 0000CC C6C1C9D3E2D6C6E3_           9331              DEBUGPRT SCKW  FAILSOFT,FAILSOFT
 0000F4 D7C7C5E340404040_           9346                       SCKW  PGET,PGETTEST
 00011C D5C5E6E3C1E2D240_           9361                       SCKW  NEWTASK,NEWTASK
 000144 C3C8C1E940404040_           9376                       SCKW  CHAZ,CHAZ
 00016C D5D6C3C8C1E94040_           9391                       SCKW  NOCHAZ,NOCHAZ
 000194 D1E4D5D240404040_           9406                       SCKW  JUNK,JUNK
 0001BC 4040404040404040_           9421                       SCKW  ,V(SCNINVAL)
                                    9436              ¿þþþþþþþþþþþþþþþþþþþþþþþþþþþþþþþþþþþþþþþþþþþþþþþþþþþþþþþþþþþþþþþþþþþþþÜ
                                    9437              Ÿ                                                                     Ÿ
                                    9438              Ÿ        FAILSOFT                                                     Ÿ
                                    9439              Ÿ                                                                     Ÿ
                                                      ¾þþþþþþþþþþþþþþþþþþþþþþþþþþþþþþþþþþþþþþþþþþþþþþþþþþþþþþþþþþþþþþþþþþþþþ»
00001E4 50E0 D000/9008_      00000  9440              FAILSOFT PROC
 USING  *,R7
 0001FE 9120 B3BE/4710_003BE        9479                       IF    ~CPSFSPR,'ERROR "No way."'
 000212 900F C780/4DE0_      00780  9506                       KAPUT FAIL,'WTEST failsoft'
 00022A 18D8/9808 D004_             9513                       PEND
 DROP   *,R7
                                    9533              ¿þþþþþþþþþþþþþþþþþþþþþþþþþþþþþþþþþþþþþþþþþþþþþþþþþþþþþþþþþþþþþþþþþþþþþÜ
                                    9534              Ÿ                                                                     Ÿ
                                    9535              Ÿ        PGET                                                         Ÿ
                                    9536              Ÿ                                                                     Ÿ
                                                      ¾þþþþþþþþþþþþþþþþþþþþþþþþþþþþþþþþþþþþþþþþþþþþþþþþþþþþþþþþþþþþþþþþþþþþþ»
0000238 50E0 D000/9008_      00000  9537              PGETTEST PROC
 USING  *,R7
 000252 58E0 7252/0DEE       004A4  9576                       VCALL PGETNEW
 000258 1820                        9580                       LR    R2,R0
 00025A 4110 72CD/4100_      0051F  9581                       TSEG  'Page '
 00026C 1812/1B00/41F0_             9599                       TNUM  (R2)
                                    9621
1TEST     (TEST2025) (12:57) (15MAR04) WTEST Command                                                                        Page    7
0Current Usings:  (*,R7) (CP,R11) (CV,R12)
0Loc    Object Code    Addr1 Addr2  Stmt Lv Lineno    Source Statement           (Hibal 5, Asmedit 3.3)  HLASM R4.0  2004/03/15 12.57
+___    ______ ____    _____ _____  ____ __ ______    ______ _________
000027A 4110 722E/4100_      00480  9622                       TSEG  ': PAR = '
 00028C 4110 9000/4100_      00000  9640                       THEX  LA:@PAR,8
 00029E 1B00/41F0 B050_             9665                       TWRITE
                                    9690              *
                                    9691              *        PFLIP ,
                                    9692              *        PGET  PAR,(R2)
                                    9693              *        TSEG  'PAR = '
                                    9694              *        THEX  LA:@PAR,8
                                    9695              *        TSEG  '  PBR = '
                                    9696              *        THEX  LA:@PBR,8
 0002AA 1B00/41F0 B050_             9697                       TWRITE
                                    9722
 0002B6 47F0 C7DE            007DE  9723                       B     CVNEXT
 0002BA 18D8/9808 D004_             9724                       PEND
 DROP   *,R7
                                    9744              ¿þþþþþþþþþþþþþþþþþþþþþþþþþþþþþþþþþþþþþþþþþþþþþþþþþþþþþþþþþþþþþþþþþþþþþÜ
                                    9745              Ÿ                                                                     Ÿ
                                    9746              Ÿ        NEWTASK                                                      Ÿ
                                    9747              Ÿ                                                                     Ÿ
                                                      ¾þþþþþþþþþþþþþþþþþþþþþþþþþþþþþþþþþþþþþþþþþþþþþþþþþþþþþþþþþþþþþþþþþþþþþ»
00002C8 50E0 D000/9008_      00000  9748              NEWTASK  PROC
 USING  *,R7
 0002E2 1B22                        9787                       CLEAR R2
 0002E4                             9791                       LOOP  BEGIN
 0002E4 4120 2001            00001  9797  1                      LA    R2,@R2+1
 0002E8 4500 7012/D5C5_      002F4  9798  1                      IDENTIFY EP=NEWTASK,ENTRY=XSUBTASK
 0002FA 41F0 7022/47F0_      00304  9804  1                      ATTACH EP=NEWTASK
 00034E 4110 71A6/4100_      00488  9834  1                      TSEG  'Subtask '
 000360 1812/1B00/41F0_             9852  1                      TNUM  (R2)
 00036E 4110 7242/4100_      00524  9874  1                      TSEG  ' started.',,WR
 000380 4770 C7DA            007DA  9892  1                      BNZ   CVABORT
 000384 47F0 7002            002E4  9893                       END
                                    9898
 000388 47F0 C7DE            007DE  9899                       B     CVNEXT
 00038C 18D8/9808 D004_             9900                       PEND
 DROP   *,R7
                                    9920              ¿þþþþþþþþþþþþþþþþþþþþþþþþþþþþþþþþþþþþþþþþþþþþþþþþþþþþþþþþþþþþþþþþþþþþþÜ
                                    9921              Ÿ                                                                     Ÿ
                                    9922              Ÿ        Worker subtask                                               Ÿ
                                    9923              Ÿ                                                                     Ÿ
                                                      ¾þþþþþþþþþþþþþþþþþþþþþþþþþþþþþþþþþþþþþþþþþþþþþþþþþþþþþþþþþþþþþþþþþþþþþ»
000039A 0D70                        9924              XSUBTASK BASR  BR,0
 USING  *,R7                        9925                       USING *,BR
                                    9935
 00039C 58C0 711C            004B8  9936                       L     CVR,=V(CV)          Global CV ptr
 0003A0 1BBB                        9937                       CLEAR CPR                 No CP
                                    9941
 0003A2                             9942                       LOOP  BEGIN
 0003A2 4110 7120/1BFF_      004BC  9948  1                      STIMER WAIT,BINTVL==A(5*60*100)
 0003B2 47F0 7006            003A2  9956                       END
                                    9961
 0003B6 0A03                        9962                       SVC   3                   Scram
1TEST     (TEST2025) (12:57) (15MAR04) WTEST Command                                                                        Page    8
0Current Usings:  (*,R7) (CP,R11) (CV,R12)
0Loc    Object Code    Addr1 Addr2  Stmt Lv Lineno    Source Statement           (Hibal 5, Asmedit 3.3)  HLASM R4.0  2004/03/15 12.57
+___    ______ ____    _____ _____  ____ __ ______    ______ _________
0                                   9963
 DROP   *,R7                        9964                       DROP  BR
                                    9971              ***
                                    9972              ***      WTEST CHAZ
                                    9973              ***
 0003B8 50E0 D000/9008_      00000  9974              CHAZ     PROC
 USING  *,R7
 0003D2 D203 C3BC 70EE 003BC 004C0 10013                       MVC   CVCHAZF7,=F'1'
 0003D8 4110 70F2/4100_      004C4 10014                       TSEG  'Chaz'
 0003EA 47F0 C7DE            007DE 10032                       B     CVNEXT
 0003EE 18D8/9808 D004_            10033                       PEND
 DROP   *,R7
                                   10053              ***
                                   10054              ***      WTEST NOCHAZ
                                   10055              ***
 0003FC 50E0 D000/9008_      00000 10056              NOCHAZ   PROC
 USING  *,R7
 000416 D703 C3BC C3BC 003BC 003BC 10095                       CLEAR CVCHAZF7
 00041C 4110 70FC/4100_      00512 10102                       TSEG  'NoChaz'
 00042E 47F0 C7DE            007DE 10120                       B     CVNEXT
 000432 18D8/9808 D004_            10121                       PEND
 DROP   *,R7
                                   10141              ***
                                   10142              ***      WTEST JUNK
                                   10143              ***
 000440 50E0 D000/9008_      00000 10144              JUNK     PROC
 USING  *,R7
 00045A 4110 70D3/4100_      0052D 10183                       TSEG  'Junk!'
 00046C 47F0 C7DE            007DE 10201                       B     CVNEXT
 000470 18D8/9808 D004_            10202                       PEND
 DROP   *,R7
                                   10222
                                   10223                       QLTORG
                                   10259
                                   10260                       VLTORG
 000540                00540 00540 10269                       END   .

1TEST     (TEST2025) (12:57) (15MAR04) Relocation Dictionary                                                                Page    9
-   Pos.Id   Rel.Id   Flags    Address                                                       HLASM R4.0  2004/03/15 12.57
0  00000001 00000001    0C    000000F0
   00000001 00000001    0C    00000118
   00000001 00000001    0C    00000140
   00000001 00000001    0C    00000168
   00000001 00000001    0C    00000190
   00000001 00000001    0C    000001B8
   00000001 00000001    08    00000227
   00000001 00000001    0C    00000304
   00000001 00000001    0C    00000498
   00000001 00000002    1C    000000EC
   00000001 00000002    1C    00000114
   00000001 00000002    1C    0000013C
   00000001 00000002    1C    00000164
   00000001 00000002    1C    0000018C
   00000001 00000002    1C    000001B4
   00000001 00000003    1C    000001DC
   00000001 00000004    1C    000001E0
   00000001 00000005    1C    00000490
   00000001 00000006    1C    00000494
   00000001 00000007    1C    0000049C
   00000001 00000008    1C    000004A0
   00000001 00000009    1C    000004A4
   00000001 0000000A    1C    000004A8
   00000001 0000000B    1C    000004AC
   00000001 0000000C    1C    000004B0
   00000001 0000000D    1C    000004B4
   00000001 0000000E    1C    000004B8

1TEST     (TEST2025) (12:57) (15MAR04) Ordinary Symbol and Literal Cross Reference                                          Page   10
-Symbol   Length   Value     Id    R Type   Defn References                                  HLASM R4.0  2004/03/15 12.57
0$$$@R0        1 00000000 FFFFFFFE     J     705  1006
 $$$@R10       1 00000000 FFFFFFF4     J     835  1070
 $$$@R11       1 00000000 FFFFFFF3     J     848  1083
 $$$@R12       1 00000000 FFFFFFF2     J     861  1096
 $$$@R13       1 00000000 FFFFFFF1     J     874  1109
 $$$@R14       1 00000000 FFFFFFF0     J     887  1122
 $$$@R7        1 00000000 FFFFFFF7     J     796  1019
 $$$@R8        1 00000000 FFFFFFF6     J     809  1032   1044
 $$$@R9        1 00000000 FFFFFFF5     J     822  1057
 $$$C1WYLTEST
               1 00000532 00000001     J   10254 10256
 $$$C2WYLTEST
               1 00000540 00000001     J   10272 10274
 $$$RCP        1 00000000 FFFFFFEC     J    2452  4712   6186   6186
 $$$RCV        1 00000000 FFFFFFEE     J    1177  2362   2362
 $$$RDEV       1 00000000 FFFFFFEB     J    4666  4711   4711
 $$$RFFINFO
               1 00000000 FFFFFFDB     J    8947  9156   9156
 $$$RJCB       1 00000000 FFFFFFE9     J    6304  6578   6578
 $$$RNSCNCB
               1 00000000 FFFFFFED     J    2373  2446   2446
 $$$RPDB       1 00000000 FFFFFFE8     J    6584  6776   6776
 $$$RSEGCB
               1 00000000 FFFFFFE7     J    6782  6882   6882
 $$$RSSB       1 00000000 FFFFFFE6     J    6892  6931   6931
 $$$RTTYPE
               1 00000000 FFFFFFEA     J    6197  6298   6298
 $$$SEGCB0
               4 00000050 FFFFFFEC     F    2483  2569   2569
 $$$V01       14 00000532 00000001     C   10266  9512
 $$$65B        1 00000032 00000001     X    9191  9198U
 $$$67F        2 00000062 00000001     H    9270  9236B
 $$$68         1 00000050 00000001 A   U    9327  9324   9326
 $$$70B        1 000001FE 00000001     X    9463  9470U
 $$$71F        2 00000212 00000001     H    9505  9489B
 $$$72         1 00000050 00000001 A   U    9530  9527   9529
 $$$74B        1 00000252 00000001     X    9560  9567U
 $$$75         1 00000050 00000001 A   U    9741  9738   9740
 $$$77B        1 000002E2 00000001     X    9771  9778U
 $$$78S        2 000002E4 00000001     H    9795  9896B
 $$$79         1 00000050 00000001 A   U    9917  9914   9916
 $$$80B        1 0000039C 00000001     X    9926  9933U
 $$$81S        2 000003A2 00000001     H    9946  9959B
 $$$83B        1 000003D2 00000001     X    9997 10004U
 $$$84         1 00000050 00000001 A   U   10050 10047  10049
 $$$86B        1 00000416 00000001     X   10079 10086U
 $$$87         1 00000050 00000001 A   U   10138 10135  10137
 $$$89B        1 0000045A 00000001     X   10167 10174U
 $$$90         1 00000050 00000001 A   U   10219 10216  10218
 @PAR          0 00000000 FFFFFFF5     @    1058  9645
 @RAR          0 00000000 FFFFFFF0     @    1123  2160   2168B
 @R0           0 00000000 FFFFFFFE     @     706   982U
 @R1           0 00000000 FFFFFFFD     @     719   978U  2166   2167
 @R10          0 00000000 FFFFFFF4     @     836   942U
 @R11          0 00000000 FFFFFFF3     @     849   938U
1TEST     (TEST2025) (12:57) (15MAR04) Ordinary Symbol and Literal Cross Reference                                          Page   11
 @R12          0 00000000 FFFFFFF2     @     862   934U
 @R13          0 00000000 FFFFFFF1     @     875   930U
 @R14          0 00000000 FFFFFFF0     @     888   926U
 @R15          0 00000000 FFFFFFEF     @     901   922U
 @R2           0 00000000 FFFFFFFC     @     732   974U  9797
 @R3           0 00000000 FFFFFFFB     @     745   970U
 @R4           0 00000000 FFFFFFFA     @     758   966U
 @R5           0 00000000 FFFFFFF9     @     771   962U
 @R6           0 00000000 FFFFFFF8     @     784   958U
 @R7           0 00000000 FFFFFFF7     @     797   954U  9316U  9519U  9730U  9906U  9969U 10039U 10127U 10208U
 @R8           0 00000000 FFFFFFF6     @     810   950U
 @R9           0 00000000 FFFFFFF5     @     823   946U
 ABSCENT       1 00000000 00000000 A   T    2176  2176
 ASCTBL        1 00000000 00000000 A   T    2184  2184
 BLTBL         1 00000000 00000000 A   T    2186  2186
 BR            7 00000007 00000001 A   #    1013  9186M  9458M  9555M  9766M  9924M  9933U  9992M 10074M 10162M
 CHAZ          2 000003B8 00000001     H    9978  9390
 CHECKIOB      1 00000000 00000000 A   T    2232  2232
 COMMAND       1 00000000 00000000 A   T    2172  2172
 COMMSEG       1 00000000 00000000 A   T    2173  2173
 CP         4096 00000000 FFFFFFEC     J    6186  1161U
 CP#XSTK       1 00000010 FFFFFFEC A   U    3918  3919
 CPACFLG       1 000005D5 FFFFFFEC     R    4021  4025   4030   4035   4040   4045
 CPACFLN       4 000005C4 FFFFFFEC     F    4013  4048   4048
 CPAFLAG       1 000005C3 FFFFFFEC     R    3985  3989   3994   3999   4004
 CPANAME       8 00000588 FFFFFFEC     C    3967  4063   4063
 CPAUTFLG      1 000008A9 FFFFFFEC     R    4331  4335   4340   4345   4350
 CPCHFLAG      1 00000B68 FFFFFFEC     R    4958  4962
 CPDFLG        1 0000084C FFFFFFEC     R    4218  4222   4227   4232   4237   4242
 CPDFLG2       1 0000084D FFFFFFEC     R    4247  4251   4256   4261   4266   4271   4276
 CPEXFLG       1 00000758 FFFFFFEC     R    4087  4091
 CPEXFLG2      1 00000759 FFFFFFEC     R    4097  4106   4116
 CPEXFLG3      1 0000075A FFFFFFEC     R    4123  4127   4132
 CPEXTFLG      1 00000E28 FFFFFFEC     R    5769  5773   5778   5783   5788   5793   5798
 CPFABORT    128 00000D5A FFFFFFEC         5535  2136M  2136   2141M  2141
 CPFERROR     64 00000D5A FFFFFFEC         5540  2135M  2135   2140M  2140
 CPFNTEX       1 00000040 FFFFFFEC A   U    5387  5388
 CPFRDRNG      1 00000D88 FFFFFFEC     R    5655  5659   5664   5669   5674   5679   5684   5689
 CPFRDSRC      1 00000D89 FFFFFFEC     R    5694  5703   5713   5723
 CPFUNUM       1 00000080 FFFFFFEC A   U    5386  5388
 CPFXDFLG      1 000007E4 FFFFFFEC     R    4165  4169   4174
 CPGFLG1       1 00000474 FFFFFFEC     R    3528  3532   3537   3542   3547   3552   3882   3882
 CPGFLG10      1 0000047D FFFFFFEC     R    3765  3769   3774   3779   3784   3789   3794
 CPGFLG11      1 0000047E FFFFFFEC     R    3800  3804   3809
 CPGFLG12      1 0000047F FFFFFFEC     R    3815  3819   3824   3829
 CPGFLG13      1 00000480 FFFFFFEC     R    3835  3839
 CPGFLG14      1 00000481 FFFFFFEC     R    3845  3849   3854   3859   3864   3869
 CPGFLG4       1 00000477 FFFFFFEC     R    3581  3592   3601   3610   3619   3628
 CPGFLG5       1 00000478 FFFFFFEC     R    3634  3638   3643   3648   3653   3658   3663   3668   3673
 CPGFLG6       1 00000479 FFFFFFEC     R    3679  3683   3688   3693
 CPGFLG7       1 0000047A FFFFFFEC     R    3699  3703   3708   3713   3718
 CPGFLG8       1 0000047B FFFFFFEC     R    3724  3728   3733   3738   3743
 CPGFLG9       1 0000047C FFFFFFEC     R    3749  3753   3759
 CPINIT        1 00000174 FFFFFFEC     U    2698  6155
 CPJESFLG      1 000009E1 FFFFFFEC     R    4430  4434   4439   4444   4449   4454   4459   4464   4469
 CPJESFLY      1 000009FD FFFFFFEC     R    4480  4484   4489   4494
 CPJESHFL      1 000009E0 FFFFFFEC     R    4415  4419   4424   4503   4503
 CPLFLG10      1 00000D59 FFFFFFEC     R    5521  5525
 CPLFLG11      1 00000D5A FFFFFFEC     R    5531  5535   5540   5545   5550
1TEST     (TEST2025) (12:57) (15MAR04) Ordinary Symbol and Literal Cross Reference                                          Page   12
 CPLFLG12      1 00000D5B FFFFFFEC     R    5556  5560
 CPLFLG14      1 00000D5C FFFFFFEC     R    5566  5570   5575   5580   5585   5590
 CPLFLG6       1 00000D55 FFFFFFEC     R    5396  5400   5405   5410   5415   5420   5425
 CPLFLG7       1 00000D56 FFFFFFEC     R    5431  5435   5440   5445   5450   5455
 CPLFLG8       1 00000D57 FFFFFFEC     R    5461  5465   5470   5475   5480
 CPLFLG9       1 00000D58 FFFFFFEC     R    5486  5490   5495   5500   5505   5510   5515
 CPLOCALZ      1 00000C48 FFFFFFEC     U    4988  6149   6149
 CPMFLG        1 0000084F FFFFFFEC     R    4285  4289
 CPMODFLG      1 00000C78 FFFFFFEC     R    5016  5020   5025   5030   5035   5040
 CPNAMELN      1 00000010 FFFFFFEC A   U    3911  4158
 CPNEDPFX     10 00000E29 FFFFFFEC     X    5802  5803   5804
 CPNSCANP      4 0000008C FFFFFFEC     A    2571  9274   9281   9297
 CPNUMFLG      1 00000C79 FFFFFFEC     R    5046  5058
 CPORVCMD      1 00000140 FFFFFFEC     R    2580  2584   2589   2594   2599   2604   2609   2614   2619   2624   2624
                                                  2675   2675
 CPORVFLG      1 00000149 FFFFFFEC     R    2631  2635   2640   2645   2650   2655   2660   2665   2670
 CPORVWF       1 00000150 FFFFFFEC     R    2683  2687
 CPOSCANX      4 00000CA8 FFFFFFEC     F    5215  5282   5282
 CPR          11 0000000B 00000001 A   #    1077  1161U  9940M  9940
 CPRACBAD     16 000001FC FFFFFFEC         2749  2783   2783   2784   2784
 CPRACF1       1 000001FC FFFFFFEC     R    2730  2734   2739   2744   2749   2754   2759   2764   2769   2785
 CPRACPSW     32 000001FC FFFFFFEC         2744  2782   2782   2784   2784
 CPRACUND     64 000001FC FFFFFFEC         2739  2782   2782   2783   2783
 CPRCVCUR      4 00000730 FFFFFFEC     A    4066  4068   4068
 CPRFLG        1 000008AA FFFFFFEC     R    4356  4360   4365   4370   4375   4380   4385
 CPS         254 00000344 FFFFFFEC     X    3500  3503   3504   3506   3506
 CPSACCT       5 000003B4 FFFFFFEC     C    3099  3262   3262
 CPSAMCOD      1 00000A22 FFFFFFEC     R    4552  4560   4570   4580   4589   4598   4607   4617   4626   4635
 CPSAMFLG      1 00000A21 FFFFFFEC     R    4512  4516   4521   4526   4531   4536   4541   4546   4657   4657
 CPSCNFLG      1 00000CD0 FFFFFFEC     R    5228  5239   5248   5259
 CPSCNF2       1 00000CD1 FFFFFFEC     R    5264  5268
 CPSCNMAX      1 00000014 FFFFFFEC A   U    5280  5281
 CPSCRI        2 00000434 FFFFFFEC     H    3489  3494   3494
 CPSEG        60 00000050 FFFFFFEC     X    2569  9254   9594   9616   9635   9660   9685   9717   9847   9869   9887
                                                 10027  10115  10196
 CPSEGCOD      1 00000050 FFFFFFEC     R    2486  2495   2505   2515   2525   2535   2545   2555
 CPSFL         1 00000384 FFFFFFEC     R    2837  2841   2846   2851   2856   2861
 CPSFLG        1 000003F8 FFFFFFEC     R    3377  3381   3386   3391   3396   3401   3406   3411   3416
 CPSFLG2       1 000003F9 FFFFFFEC     R    3422  3426   3431   3436
 CPSFL2        1 00000385 FFFFFFEC     R    2867  2871   2876   2881   2886
 CPSFL3        1 00000386 FFFFFFEC     R    2892  2896   2901   2906
 CPSFL4        1 00000387 FFFFFFEC     R    2912  2916   2921   2926
 CPSFL5        1 00000388 FFFFFFEC     R    2932  2936   2941   2946
 CPSFSPR      32 000003BE FFFFFFEC         3202  9216   9488
 CPSKAFL       1 000003BF FFFFFFEC     R    3233  3237   3242   3247   3252   3257
 CPSKIFL       1 000003BE FFFFFFEC     R    3188  3192   3197   3202   3207   3212   3217   3222   3227
 CPSOF         1 000001F8 FFFFFFEC     X    2720  2722   2722
 CPSOFLAG      1 00000416 FFFFFFEC     R    3447  3451   3456   3461   3466   3471
 CPSOPST       4 000003C4 FFFFFFEC     F    3267  3496   3496
 CPSPORT       8 00000354 FFFFFFEC     C    2831  2951   2951
 CPSQFLG       1 000003EC FFFFFFEC     R    3296  3300
 CPSSFLG       1 000003BB FFFFFFEC     R    3106  3110   3115   3120   3125   3130   3135
 CPSSTART      4 00000344 FFFFFFEC     F    2823  2827   2827   3263   3263   3368   3368   3500   3500
 CPSSTAT       1 0000038F FFFFFFEC     R    3043  3047   3052   3057   3062   3067   3072   3077
 CPSTACF       1 000003BC FFFFFFEC     R    3141  3145   3150   3155   3160   3165   3170   3175   3180
 CPSTART       4 00000000 FFFFFFEC     C    2459  6153   6157
 CPSTFLAG      1 000003EA FFFFFFEC     R    3274  3278   3283   3288
 CPSTYPE       1 0000038C FFFFFFEC     R    2956  2965   2975   2985   2995   3005   3015   3025   3035
 CPSUFLG       1 000003EE FFFFFFEC     R    3311  3315   3320   3325   3330   3335   3340   3345   3350
1TEST     (TEST2025) (12:57) (15MAR04) Ordinary Symbol and Literal Cross Reference                                          Page   13
 CPSUFLG2      1 000003EF FFFFFFEC     R    3356  3360   3365
 CPSVPGM       8 0000039C FFFFFFEC     C    3089  3095   3095
 CPS1ST        4 0000038C FFFFFFEC     F    2953  3498   3498
 CPTEMPP#      1 0000005F FFFFFFEC A   U    4406  4408
 CPTRMFL1      1 00000C7A FFFFFFEC     R    5064  5068   5073   5078   5202   5202
 CPTRMFL2      1 00000C7B FFFFFFEC     R    5084  5088   5093   5098   5103   5108   5113
 CPTRMFL3      1 00000C7C FFFFFFEC     R    5119  5123   5128   5133   5138   5143   5148   5153
 CPTRMFL4      1 00000C7D FFFFFFEC     R    5159  5163   5168   5173   5178   5183   5188   5193
 CPUSED        1 00000FBC FFFFFFEC A   U    6153  6154
 CPVACURS      8 00000AF0 FFFFFFEC     D    4931  4932   4933
 CPVCURS       8 00000AE0 FFFFFFEC     D    4925  4926   4927
 CPVFLAG       1 00000AC8 FFFFFFEC     R    4726  4730   4735   4740   4745   4750
 CPVFLAG2      1 00000AC9 FFFFFFEC     R    4756  4760   4765   4770   4775   4780   4785
 CPVFLAG3      1 00000ACA FFFFFFEC     R    4791  4795   4800   4805   4810   4815   4820
 CPVFLAG4      1 00000ACB FFFFFFEC     R    4826  4830   4835   4840
 CPVLFLAG      1 00000ACE FFFFFFEC     R    4895  4899   4904   4909
 CPVMODE       1 00000ACC FFFFFFEC     R    4848  4852   4857   4862   4867   4872   4877   4882   4887
 CPVTWID       2 00000AD0 FFFFFFEC     H    4915  4918   4918
 CPWK1         4 00000D60 FFFFFFEC     F    5599  5614   5637
 CPWK2         4 00000D64 FFFFFFEC     F    5600  5615   5629
 CPWK3         4 00000D68 FFFFFFEC     F    5601  5616   5630
 CPWK4         4 00000D6C FFFFFFEC     F    5602  5617   5631
 CPWK5         4 00000D70 FFFFFFEC     F    5603  5619   5624   5632
 CPWK6         4 00000D74 FFFFFFEC     F    5604  5620   5625   5633   5640   5642
 CPWK7         4 00000D78 FFFFFFEC     F    5605  5618   5634
 CPXFLAG       1 000007FD FFFFFFEC     R    4193  4197
 CPXSTATE      4 000007F8 FFFFFFEC     F    4187  4200   4200
 CV         4016 00000000 FFFFFFEE     J    2362  1170U
 CV            1 00000000 0000000E     T   10242 10242
 CVABORT       4 000007DA FFFFFFEE     I    2141  9892B
 CVABSRTN      4 0000088C FFFFFFEE     V    2176  2151
 CVBRMSK       1 00000751 FFFFFFEE     X    2092  2093   2094
 CVCFLAG       1 00000A00 FFFFFFEE     R    2257  2261   2266   2271   2276   2281
 CVCHAZF7      4 000003BC FFFFFFEE     F    1607 10013M 10101M 10101
 CVCHKST       8 000009F0 FFFFFFEE     D    2247  2337   2337
 CVCHKST2      8 00000E28 FFFFFFEE     D    2340  2343   2343
 CVCOMRTN      4 0000087C FFFFFFEE     V    2172  2142
 CVDBGFLG      1 000004CC FFFFFFEE     R    1946  1950
 CVENT         4 0000074C FFFFFFEE     I    2090  9186B  9458B  9555B  9766B  9992B 10074B 10162B
 CVENTBR       2 00000750 FFFFFFEE     I    2091  2092
 CVERRMSG      4 000007C8 FFFFFFEE     I    2135  9501B
 CVERROR       4 000007D6 FFFFFFEE     I    2140  2156B
 CVEXIRTN      4 0000077C FFFFFFEE     V    2120  2116
 CVFCHRKBPR
               8 000004C9 FFFFFFEE         1861  1877   1877
 CVFCHRKBSE
               4 000004C9 FFFFFFEE         1866  1877   1877
 CVFCHRKCPR
               2 000004C9 FFFFFFEE         1883  1899   1899
 CVFCHRKCSE
               1 000004C9 FFFFFFEE         1888  1899   1899
 CVFCHRUBPR
             128 000004C9 FFFFFFEE         1817  1833   1833
 CVFCHRUBSE
              64 000004C9 FFFFFFEE         1822  1833   1833
 CVFCHRUCPR
              32 000004C9 FFFFFFEE         1839  1855   1855
 CVFCHRUCSE
              16 000004C9 FFFFFFEE         1844  1855   1855
1TEST     (TEST2025) (12:57) (15MAR04) Ordinary Symbol and Literal Cross Reference                                          Page   14
 CVFL          1 000004C4 FFFFFFEE     R    1613  1617   1622   1627   1632   1637   1642   1647   1652
 CVFL2         1 000004C5 FFFFFFEE     R    1658  1662   1667   1672   1677   1682   1687   1692   1697
 CVFL3         1 000004C6 FFFFFFEE     R    1703  1707   1712   1717   1722   1727   1732   1737   1742
 CVFL4         1 000004C7 FFFFFFEE     R    1748  1752   1757   1762   1767   1772   1777   1782
 CVFL5         1 000004C8 FFFFFFEE     R    1788  1792   1797   1802   1807
 CVFL6         1 000004C9 FFFFFFEE     R    1813  1817   1822   1834   1839   1844   1856   1861   1866   1878   1883
                                                  1888   1900
 CVFTEST       2 000004C5 FFFFFFEE         1692  9235
 CVHEAP#       1 00000200 FFFFFFEE A   U    1519  1520
 CVINVRTN      4 00000888 FFFFFFEE     V    2175  2145
 CVJESFLG      1 000004CA FFFFFFEE     R    1906  1910
 CVLNKRGS      4 00000780 FFFFFFEE     F    2122  2097M  2123   9509M
 CVLNKRTN      4 000007B0 FFFFFFEE     U    2123  2112M
 CVLOCK1       1 00000088 FFFFFFEE     R    1264  1268   1273
 CVLOCK2       1 00000089 FFFFFFEE     R    1278  1282
 CVLOCK3       1 0000008A FFFFFFEE     R    1287  1291
 CVLOCK4       1 0000008B FFFFFFEE     R    1296  1300
 CVLOGMOD      1 00000068 FFFFFFEE     R    1251  1255
 CVMACH        1 00000067 FFFFFFEE     R    1211  1215   1220   1225   1230   1235   1240   1245
 CVMILRTN      4 00000884 FFFFFFEE     V    2174  2154
 CVNEXT        4 000007DE FFFFFFEE     I    2142  9309B  9723B  9899B 10032B 10120B 10201B
 CVNOARTN      4 00000890 FFFFFFEE     V    2177  2148
 CVNVALID      4 000007E4 FFFFFFEE     I    2145  9219B
 CVNWDATE      4 00000608 FFFFFFEE     F    1979  1983   1983
 CVNWMPG#      1 00000008 FFFFFFEE A   U    1981  1982
 CVPFXRTN      1 00000000 00000000 A   T    2120  2120
 CVPGFLAG      1 00000A01 FFFFFFEE     R    2287  2291   2296   2301
 CVPIOSZ       1 00004F80 FFFFFFEE A   U    1350  1352
 CVPPDBQH      4 0000009C FFFFFFEE     A    1308  1309
 CVPSFNO       1 000003E9 FFFFFFEE A   N    1472  1474
 CVPSLNO       1 000007CF FFFFFFEE A   N    1473  1474
 CVPXSZ        1 00000008 FFFFFFEE A   U    1351  1352
 CVR          12 0000000C 00000001 A   #    1090  1170U  9936M
 CVRKEY        1 00000008 FFFFFFEE A   U    2045  2046
 CVSEGRTN      4 00000880 FFFFFFEE     V    2173  2137
 CVSTACK#      1 00000080 FFFFFFEE A   U    1511  1512
 CVSTART       4 00000000 FFFFFFEE     C    1184  2355
 CVTRC         4 00000768 FFFFFFEE     I    2112  2098B  9510B
 CVTRCRTN      4 00000778 FFFFFFEE     V    2119  2113
 CVUSFNO       1 00000001 FFFFFFEE A   N    1479  1481
 CVUSLNO       1 000003E7 FFFFFFEE A   N    1480  1481
 CVVOL#        1 00000005 FFFFFFEE A   U    2330  2331
 CVWTOFLG      1 000004CB FFFFFFEE     R    1916  1920   1925   1930   1935   1940
 DEBUGPRT      4 000000CC 00000001     F    9333 10234
 DEBUGSG       1 00000000 00000000 A   T    2073  2073
 DEV          12 00000000 FFFFFFEB     J    4711  4719
 DEVMAX#       1 00000002 FFFFFFEC A   U    4662  4719
 DEVTYPE       1 00000001 FFFFFFEB     R    4679  4688   4698
 DOTTBL        1 00000000 00000000 A   T    2189  2189
 DRENCFLG      1 00000F9F FFFFFFEC     R    6117  6121   6126   6131   6136   6141
 DRENPROT      1 00000F9E FFFFFFEC     R    6104  6112
 DSNON        40 00000E90 FFFFFFEC     C    5837  5838
 DSNWADSN     44 00000E5C FFFFFFEC     C    5824  5825   5826   5827   5836   5844   6075   6081   6083   6089   6092
                                                  6094   6097   6146
 DSNWAF4       1 00000F37 FFFFFFEC     R    5892  5896   5901   5906   5911   5916   5921   5926   5931
 DSNWAF5       1 00000F38 FFFFFFEC     R    5937  5941   5946   5951   5956   5961   5966   5971   5976
 DSNWAF6       1 00000F39 FFFFFFEC     R    5982  5986   5991   5996   6001   6006   6011   6016   6021
 DSNWAF7       1 00000F3A FFFFFFEC     R    6027  6031   6036   6041   6046
 DSNXG         1 00000004 FFFFFFEC A   U    5829  5831
1TEST     (TEST2025) (12:57) (15MAR04) Ordinary Symbol and Literal Cross Reference                                          Page   15
 DSNXGL        1 00000003 FFFFFFEC A   U    5830  5831
 DSNXU         1 00000007 FFFFFFEC A   U    5831  5833
 DSNXUL        1 00000004 FFFFFFEC A   U    5832  5833
 DSSIZ         1 00000108 FFFFFFEC A   U    6075  6083   6092   6097
 EBCTBL        1 00000000 00000000 A   T    2185  2185
 EBCTBL7       1 00000000 00000000 A   T    2188  2188
 ECBLIST       1 00000000 00000000 A   T    2048  2048
 EPARTBL       1 00000000 00000000 A   T    2180  2180
 FAILSOFT      2 000001E4 00000001     H    9444  9345
 FFMISC        1 00000002 FFFFFFDB     R    9053  9057   9062   9067   9072   9077
 FFPTYPE       1 00000003 FFFFFFDB     R    9082  9091   9101   9111   9121   9131
 FFRQTYPE      1 00000001 FFFFFFDB     R    9009  9018   9028   9038   9048
 FFTYPE        1 00000000 FFFFFFDB     R    8955  8964   8974   8984   8994   9004
 FSR           0 00000000 00000001 A   #    1000  9181   9324M  9453   9527M  9550   9738M  9761   9914M  9987  10047M
                                                 10069  10135M 10157  10216M
 HIBAL         1 00000000 FFFFFFFF     J     691   707    720    733    746    759    772    785    798    811    824
                                                   837    850    863    876    889    902
 IHB1609       4 00000304 00000001     F    9811  9809
 INVALID       1 00000000 00000000 A   T    2175  2175
 JCBAFL        1 00000062 FFFFFFE9     R    6423  6427   6432   6437   6442   6447   6452   6457   6462
 JCBBFL        1 00000063 FFFFFFE9     R    6468  6472   6477   6482   6487   6492   6497   6502
 JCBBILLX      8 00000088 FFFFFFE9     D    6553  6561   6561
 JCBRSCF1      1 00000064 FFFFFFE9     R    6508  6512   6517   6522
 JCBSFLG1      1 00000065 FFFFFFE9     R    6528  6532   6537
 JCBWFL        1 00000060 FFFFFFE9     R    6352  6356   6361   6366   6371   6376   6381   6386   6391   6419
 JCBWWFL       1 00000061 FFFFFFE9     R    6397  6401   6406   6411   6416
 JUNK          2 00000440 00000001     H   10148  9420
 LOWTBL        1 00000000 00000000 A   T    2183  2183
 LSR           8 00000008 00000001 A   #    1038  9181   9324M  9453   9527M  9550   9738M  9761   9914M  9987  10047M
                                                 10069  10135M 10157  10216M
 MALL          1 00000000 00000003     T    9434  9434
 MILERR        1 00000000 00000000 A   T    2174  2174
 MTOKEN        1 00000000 00000002     T    9344  9344   9359   9374   9389   9404   9419
 NBLTBL        1 00000000 00000000 A   T    2187  2187
 NEWTASK       2 000002C8 00000001     H    9752  9375
 NOACTION      1 00000000 00000000 A   T    2177  2177
 NOCHAZ        2 000003FC 00000001     H   10060  9405
 NPARTBL       1 00000000 00000000 A   T    2181  2181
 NSCAN         1 00000000 00000007     T   10235 10235
 NSCNCB      176 00000000 FFFFFFED     J    2446  2572   9282   9283   9284   9287M  9288M  9290M  9300M  9301M  9302M
 NSCNFLGS      1 00000008 FFFFFFED     R    2383  2387   2392
 NSCNKWS       4 00000028 FFFFFFED     A    2432  9282   9290M  9300M
 NSCNSKIP      4 00000024 FFFFFFED     A    2431  9283   9287M  9301M
 NSCNSTOP      4 00000020 FFFFFFED     A    2430  9284   9288M  9302M
 NSCNTYPE      1 00000018 FFFFFFED     R    2401  2405   2410   2415   2420   2425
 PDBBYT1       1 0000000E FFFFFFE8     X    6615  6647
 PDBBYT2       1 0000000F FFFFFFE8     X    6616  6653
 PDBCMDFL      1 00000007 FFFFFFE8     X    6603  6639   6639   6645
 PDBINCT       2 00000030 FFFFFFE8     H    6633  6637   6637
 PDBSINP       4 00000010 FFFFFFE8     A    6618  6619
 PDBSTRT       4 00000000 FFFFFFE8     F    6595  6640   6640
 PDBVPGM       8 00000014 FFFFFFE8     C    6621  6627   6627
 PGETNEW       1 00000000 00000009     T   10237 10237
 PGETTEST      2 00000238 00000001     H    9541  9360
 RAR          14 0000000E 00000001 A   #    1116  2112   2113M  2114B  2116M  2117B  2137M  2138B  2142M  2143B  2145M
                                                  2146B  2148M  2149B  2151M  2152B  2154M  2155M  2155B  2161   9178
                                                  9257M  9258M  9258B  9265M  9266M  9266B  9293M  9294M  9294B  9307M
                                                  9308M  9308B  9326M  9329B  9450   9529M  9532B  9547   9578M  9579M
                                                  9579B  9597M  9598M  9598B  9619M  9620M  9620B  9638M  9639M  9639B
1TEST     (TEST2025) (12:57) (15MAR04) Ordinary Symbol and Literal Cross Reference                                          Page   16
                                                  9663M  9664M  9664B  9688M  9689M  9689B  9720M  9721M  9721B  9740M
                                                  9743B  9758   9850M  9851M  9851B  9872M  9873M  9873B  9890M  9891M
                                                  9891B  9916M  9919B  9984  10030M 10031M 10031B 10049M 10052B 10066
                                                 10118M 10119M 10119B 10137M 10140B 10154  10199M 10200M 10200B 10218M
                                                 10221B
 R0            0 00000000 FFFFFFFF A   #     699  2097   2166M  9246M  9262M  9278M  9278   9287   9288   9500M  9509
                                                  9580   9586M  9608M  9608   9627M  9652M  9677M  9677   9709M  9709
                                                  9839M  9861M  9861   9879M 10019M 10107M 10188M
 R1            1 00000001 FFFFFFFF A   #     712  2160M  2161M  2167M  9245M  9261M  9274M  9287   9288   9290   9499M
                                                  9585M  9604M  9626M  9645M  9838M  9857M  9878M 10018M 10106M 10187M
 R12          12 0000000C FFFFFFFF A   #     855  2123
 R13          13 0000000D FFFFFFFF A   #     868  9282   9283   9284   9300   9301   9302
 R14          14 0000000E FFFFFFFF A   #     881  2098M  9281M  9282   9283   9284   9289M  9290   9297M  9300   9301
                                                  9302   9510M
 R15          15 0000000F FFFFFFFF A   #     894  2097   9254M  9303M  9303   9328M  9328   9509   9531M  9531   9594M
                                                  9616M  9635M  9660M  9685M  9717M  9742M  9742   9847M  9869M  9887M
                                                  9918M  9918  10027M 10051M 10051  10115M 10139M 10139  10196M 10220M
                                                 10220
 R2            2 00000002 FFFFFFFF A   #     725  9580M  9604   9790M  9790   9797M  9857
 R7            7 00000007 FFFFFFFF A   #     790  2090M  2090   2091B  2103B
 SCANCHK       1 00000000 00000008     T   10236 10236
 SCNINVAL      1 00000000 00000004     T    9435  9435
 SDSNQSZ       1 0000002C FFFFFFEC A   U    6078  6079   6080
 SDWA          1 00000000 FFFFFFE5     J    7183  8179   8922
 SDWACLEN      8 000001C8 FFFFFFDD A   U    8182  8189   8190
 SDWADEND      8 000000F0 FFFFFFDD     D    8176  8186
 SDWADLEN      8 000000F0 FFFFFFDD A   U    8186  8187
 SDWAEEND      8 00000150 FFFFFFE1     D    8127  8188
 SDWAELEN      8 00000150 FFFFFFDD A   U    8188  8189   8190   8197
 SDWAEND       8 00000298 FFFFFFE5     D    7822  8179
 SDWAIEND      8 00000010 FFFFFFE3     D    8049  8183
 SDWAILEN      8 00000010 FFFFFFDD A   U    8183  8189   8190
 SDWALEN       8 00000298 FFFFFFDD A   U    8179  8190
 SDWALEND      8 00000020 FFFFFFE2     D    8097  8184
 SDWALLEN      8 00000020 FFFFFFDD A   U    8184  8189   8190
 SDWAMLEN      8 00000600 FFFFFFDD A   U    8191  8194   8200
 SDWAMLNP      8 000005E0 FFFFFFDD A   U    8190  8191
 SDWANLNS      8 000001F0 FFFFFFDD A   U    8187  8194   8202
 SDWANRC1      1 00000000 FFFFFFDF     J    8151  8181
 SDWANRC2      1 00000000 FFFFFFDE     J    8160  8185
 SDWANRC3      1 00000000 FFFFFFDD     J    8173  8186
 SDWAPEND      8 00000020 FFFFFFE0     D    8145  8180
 SDWAPLEN      8 00000020 FFFFFFDD A   U    8180  8191
 SDWAPTRS      1 00000000 FFFFFFE0     J    8136  8180
 SDWARC1       1 00000000 FFFFFFE4     J    7824  8182
 SDWARC2       1 00000000 FFFFFFE3     J    8043  8183
 SDWARC3       1 00000000 FFFFFFE2     J    8055  8184
 SDWARC4       1 00000000 FFFFFFE1     J    8105  8188
 SDWAREND      8 000000F0 FFFFFFDF     D    8153  8181
 SDWARLEN      8 000000F0 FFFFFFDD A   U    8181  8187
 SDWASEN       8 00000010 FFFFFFDE     D    8166  8185
 SDWASEND      8 000001C8 FFFFFFE4     D    8037  8182
 SDWASLEN      8 00000710 FFFFFFDD A   U    8200  8202
 SDWASPL       8 00000010 FFFFFFDD A   U    8185  8187
 SDWATLEN      8 000007F0 FFFFFFDD A   U    8194  8197
 SDWATRAN      4 00000074 FFFFFFE5     A    7345  7347
 SEG           1 00000000 0000000A     T   10238 10238
 SEGCBCOD      1 00000000 FFFFFFE7     R    6793  6802   6812   6822   6832   6842   6852   6862
 SEGCR         1 00000000 00000005     T   10232 10232
1TEST     (TEST2025) (12:57) (15MAR04) Ordinary Symbol and Literal Cross Reference                                          Page   17
 SEGDC         1 00000000 0000000B     T   10239 10239
 SEGHX         1 00000000 0000000C     T   10240 10240
 SEGWR         1 00000000 0000000D     T   10241 10241
 SPR          13 0000000D 00000001 A   #    1103  9178   9181   9182   9183M  9183   9320M  9324   9326   9450   9453
                                                  9454   9455M  9455   9523M  9527   9529   9547   9550   9551   9552M
                                                  9552   9734M  9738   9740   9758   9761   9762   9763M  9763   9910M
                                                  9914   9916   9984   9987   9988   9989M  9989  10043M 10047  10049
                                                 10066  10069  10070  10071M 10071  10131M 10135  10137  10154  10157
                                                 10158  10159M 10159  10212M 10216  10218
 SSBFLAG       1 00000014 FFFFFFE6     R    6905  6909
 SSBNAME       8 00000004 FFFFFFE6     C    6901  6924   6924
 TEST2025      1 00000000 00000001     R    1136  1134
 TRC           1 00000000 00000000 A   T    2119  2119
 TTYFLAG       1 00000004 FFFFFFEA     R    6207  6211
 TTYMAX#       1 00000006 FFFFFFEA A   U    6263  6264
 TTYTFLAG      1 00000005 FFFFFFEA     R    6217  6221   6226   6231   6236   6241   6246   6251
 UPPTBL        1 00000000 00000000 A   T    2182  2182
 VRADAT        1 00000002 FFFFFFDC     G    8335  8339
 VRAKL         2 00000000 FFFFFFDC     G    8327  8339
 WAR           8 00000008 00000001 A   #    1026  9182M  9320   9454M  9523   9551M  9734   9762M  9910   9988M 10043
                                                 10070M 10131  10158M 10212
 WTEST         2 00000018 00000001     H    9172  9168
 WTOSG         1 00000000 00000000 A   T    2079  2079
 WYLTEST       1 00000000 00000001     J     990   992   1008   1021   1034   1046   1059   1072   1085   1098   1111
                                                  1124   2363   2447   6187   6299   6579   6777   6883   6932   8925
                                                  9157   9161
 XSUBTASK      2 0000039A 00000001     I    9924  9802
 YESREQ        1 00000000 00000006     T   10233 10233
 =A(DEBUGPRT)
               4 00000498 00000001     A   10234  9289
 =A(5*60*100)
               4 000004BC 00000001     A   10243  9951
 =C' started.'
               9 00000524 00000001     C   10252  9878
 =C': PAR = '
               8 00000480 00000001     C   10230  9626
 =C'Are you sure you want to use the WTEST command'
              46 000004E2 00000001     C   10247  9261
 =C'Chaz'      4 000004C4 00000001     C   10245 10018
 =C'Junk!'
               5 0000052D 00000001     C   10253 10187
 =C'No way.'
               7 00000518 00000001     C   10250  9499
 =C'NoChaz'
               6 00000512 00000001     C   10249 10106
 =C'Page '
               5 0000051F 00000001     C   10251  9585
 =C'Subtask '
               8 00000488 00000001     C   10231  9838
 =C'This is production Wylbur.'
              26 000004C8 00000001     C   10246  9245
 =F'1'         4 000004C0 00000001     F   10244 10013
 =V(CV)        4 000004B8 00000001     V   10242  9936
 =V(NSCAN)
               4 0000049C 00000001     V   10235  9293
 =V(PGETNEW)
               4 000004A4 00000001     V   10237  9578
 =V(SCANCHK)
               4 000004A0 00000001     V   10236  9307
1TEST     (TEST2025) (12:57) (15MAR04) Ordinary Symbol and Literal Cross Reference                                          Page   18
 =V(SEG)       4 000004A8 00000001     V   10238  9597   9638   9850  10030  10118  10199
 =V(SEGCR)
               4 00000490 00000001     V   10232  9257
 =V(SEGDC)
               4 000004AC 00000001     V   10239  9619   9872
 =V(SEGHX)
               4 000004B0 00000001     V   10240  9663
 =V(SEGWR)
               4 000004B4 00000001     V   10241  9688   9720   9890
 =V(YESREQ)
               4 00000494 00000001     V   10233  9265
 =Y((12+3)/4*4)
               2 00000510 00000001     Y   10248  9299

1TEST     (TEST2025) (12:57) (15MAR04) Macro and Copy Code Source Summary                                                   Page   19
- Con Source                                        Volume    Members                        HLASM R4.0  2004/03/15 12.57
0     PRIMARY INPUT                                           CSECT    DROP     END      EX       LTORG    POP
                                                              PRINT    PUSH     START    USING
   L1 WYL.GS.WYL.WYLBUR.MACLIB                      SYSB05    AINFO    BASE     COLINFO  CONTROL  CP       CPLOCAL  CV
                                                              CVLOCAL  ERROR    FFINFO   JCB      KAPUT    RG       SCAN
                                                              SCANCB   SCANCHK  SCCBADR  SCKW     SCPOP    SCPUSH   THEX
                                                              TNUM     TSEG     TTYPE    TWRITE   VLTORG   XTRACE
   L2 WYL.GG.SYS.MACLIB                             SYSB05    $BC      $BFLKUP  $BV      $CCLKUP  $L       $LA
                                                              $LBLAD   $LEXP    $LOR     $REL     $RGLKUP  $USLKUP
                                                              BEGIN    CLEAR    COMPROC  CSECT    DEFCC    DROP     END
                                                              EX       FLAG     GEN      HIBAL    IDENT    IF
                                                              LABEL    LC       LOOP     LS       LTORG    PEND     POP
                                                              PRINT    PROC     PUSH     QLTORG   RECORD   REG      REGS
                                                              SETMSG   START    USING    VCALL    WITH     XPROC
   L3 SYS3.IS.MACLIB                                SYSB05    PDB      SEG      SEGCB    SEGDC    SEGHX    SEGLD
                                                              SEGWR    SIB      SSB      SYSDEFN  XPOP     XPUSH
   L5 SYS1.MACLIB                                   MVSBR9    ATTACH   IDENTIFY IHASDWA  IHAVRA   IHBINNRA SPLEVEL
                                                              STIMER   SYSSTATE

1TEST     (TEST2025) (12:57) (15MAR04) Dsect Cross Reference                                                                Page   20
-Dsect     Length      Id       Defn                                                         HLASM R4.0  2004/03/15 12.57
0$$$@R0   00000000  FFFFFFFE     705
 $$$@R1   00000000  FFFFFFFD     718
 $$$@R10  00000000  FFFFFFF4     835
 $$$@R11  00000000  FFFFFFF3     848
 $$$@R12  00000000  FFFFFFF2     861
 $$$@R13  00000000  FFFFFFF1     874
 $$$@R14  00000000  FFFFFFF0     887
 $$$@R15  00000000  FFFFFFEF     900
 $$$@R2   00000000  FFFFFFFC     731
 $$$@R3   00000000  FFFFFFFB     744
 $$$@R4   00000000  FFFFFFFA     757
 $$$@R5   00000000  FFFFFFF9     770
 $$$@R6   00000000  FFFFFFF8     783
 $$$@R7   00000000  FFFFFFF7     796
 $$$@R8   00000000  FFFFFFF6     809
 $$$@R9   00000000  FFFFFFF5     822
 $$$RCP   00001000  FFFFFFEC    2452
 $$$RCV   00000FB0  FFFFFFEE    1177
 $$$RDEV  0000000C  FFFFFFEB    4666
 $$$RFFINFO
          000003A0  FFFFFFDB    8947
 $$$RJCB  000000D0  FFFFFFE9    6304
 $$$RNSCNCB
          000000B0  FFFFFFED    2373
 $$$RPDB  00000038  FFFFFFE8    6584
 $$$RSEGCB
          0000003C  FFFFFFE7    6782
 $$$RSSB  00000038  FFFFFFE6    6892
 $$$RTTYPE
          0000010C  FFFFFFEA    6197
 HIBAL    00000000  FFFFFFFF     691
 SDWA     00000298  FFFFFFE5    7183
 SDWANRC1 000000F0  FFFFFFDF    8151
 SDWANRC2 00000010  FFFFFFDE    8160
 SDWANRC3 000000F0  FFFFFFDD    8173
 SDWAPTRS 00000020  FFFFFFE0    8136
 SDWARC1  000001C8  FFFFFFE4    7824
 SDWARC2  00000010  FFFFFFE3    8043
 SDWARC3  00000020  FFFFFFE2    8055
 SDWARC4  00000150  FFFFFFE1    8105
 VRAMAP   00000002  FFFFFFDC    8326

1TEST     (TEST2025) (12:57) (15MAR04) Using Map                                                                            Page   21
-                                                                                            HLASM R4.0  2004/03/15 12.57
   Stmt  -----Location----- Action ----------------Using----------------- Reg Max    Last  Label and Using Text
           Count      Id           Type          Value    Range     Id        Disp   Stmt
0   922  00000000  FFFFFFFF USING  ORDINARY    00000000 00001000 FFFFFFEF  15 000          @R15,15
    926  00000000  FFFFFFFF USING  ORDINARY    00000000 00001000 FFFFFFF0  14 002    2168  @R14,14
    930  00000000  FFFFFFFF USING  ORDINARY    00000000 00001000 FFFFFFF1  13 000          @R13,13
    934  00000000  FFFFFFFF USING  ORDINARY    00000000 00001000 FFFFFFF2  12 000          @R12,12
    938  00000000  FFFFFFFF USING  ORDINARY    00000000 00001000 FFFFFFF3  11 000          @R11,11
    942  00000000  FFFFFFFF USING  ORDINARY    00000000 00001000 FFFFFFF4  10 000          @R10,10
    946  00000000  FFFFFFFF USING  ORDINARY    00000000 00001000 FFFFFFF5   9 000    9645  @R9,9
    950  00000000  FFFFFFFF USING  ORDINARY    00000000 00001000 FFFFFFF6   8 000          @R8,8
    954  00000000  FFFFFFFF USING  ORDINARY    00000000 00001000 FFFFFFF7   7 000          @R7,7
    958  00000000  FFFFFFFF USING  ORDINARY    00000000 00001000 FFFFFFF8   6 000          @R6,6
    962  00000000  FFFFFFFF USING  ORDINARY    00000000 00001000 FFFFFFF9   5 000          @R5,5
    966  00000000  FFFFFFFF USING  ORDINARY    00000000 00001000 FFFFFFFA   4 000          @R4,4
    970  00000000  FFFFFFFF USING  ORDINARY    00000000 00001000 FFFFFFFB   3 000          @R3,3
    974  00000000  FFFFFFFF USING  ORDINARY    00000000 00001000 FFFFFFFC   2 001    9797  @R2,2
    978  00000000  FFFFFFFF USING  ORDINARY    00000000 00001000 FFFFFFFD   1 001    2167  @R1,1
    982  00000000  FFFFFFFF USING  ORDINARY    00000000 00001000 FFFFFFFE   0 000          @R0,0
    983  00000000  FFFFFFFF DROP                                            0              0
   1161  00000017  00000001 USING  ORDINARY    00000000 00001000 FFFFFFEC  11 D5A   10196  CP,CPR
   1170  00000017  00000001 USING  ORDINARY    00000000 00001000 FFFFFFEE  12 890   10201  CV,CVR
   9198  00000032  00000001 USING  ORDINARY    00000032 00001000 00000001   7 4DE    9307  $$$65B,7
   9316  000000BE  00000001 USING  ORDINARY    00000000 00001000 FFFFFFF7   7 000          @R7,7
   9470  000001FE  00000001 USING  ORDINARY    000001FE 00001000 00000001   7 31A    9499  $$$70B,7
   9519  0000022A  00000001 USING  ORDINARY    00000000 00001000 FFFFFFF7   7 000          @R7,7
   9567  00000252  00000001 USING  ORDINARY    00000252 00001000 00000001   7 2CD    9720  $$$74B,7
   9730  000002BA  00000001 USING  ORDINARY    00000000 00001000 FFFFFFF7   7 000          @R7,7
   9778  000002E2  00000001 USING  ORDINARY    000002E2 00001000 00000001   7 242    9896  $$$77B,7
   9906  0000038C  00000001 USING  ORDINARY    00000000 00001000 FFFFFFF7   7 000          @R7,7
   9933  0000039C  00000001 USING  ORDINARY    0000039C 00001000 00000001   7 120    9959  $$$80B,BR
   9969  000003B8  00000001 USING  ORDINARY    00000000 00001000 FFFFFFF7   7 000          @R7,7
  10004  000003D2  00000001 USING  ORDINARY    000003D2 00001000 00000001   7 0F2   10030  $$$83B,7
  10039  000003EE  00000001 USING  ORDINARY    00000000 00001000 FFFFFFF7   7 000          @R7,7
  10086  00000416  00000001 USING  ORDINARY    00000416 00001000 00000001   7 0FC   10118  $$$86B,7
  10127  00000432  00000001 USING  ORDINARY    00000000 00001000 FFFFFFF7   7 000          @R7,7
  10174  0000045A  00000001 USING  ORDINARY    0000045A 00001000 00000001   7 0D3   10199  $$$89B,7
  10208  00000470  00000001 USING  ORDINARY    00000000 00001000 FFFFFFF7   7 000          @R7,7

1         (TEST2025) (12:57) (15MAR04) General Purpose Register Cross Reference                                             Page   22
- Register  References (M=modified, B=branch, U=USING, D=DROP, N=index)                      HLASM R4.0  2004/03/15 12.57
0    0(0)      982U   983D  2097   2165M  2165   2166M  9181   9246M  9262M  9278M  9278   9287   9288   9324M  9453
              9500M  9509   9527M  9550   9580   9586M  9608M  9608   9627M  9652M  9677M  9677   9709M  9709   9738M
              9761   9799M  9839M  9861M  9861   9879M  9914M  9953M  9954M  9987  10019M 10047M 10069  10107M 10135M
             10157  10188M 10216M
     1(1)      978U  2097   2160M  2161M  2167M  9181   9245M  9261M  9274M  9287N  9288N  9290N  9324M  9453   9499M
              9509   9527M  9550   9585M  9604M  9626M  9645M  9738M  9761   9802M  9838M  9857M  9878M  9914M  9951M
              9987  10018M 10047M 10069  10106M 10135M 10157  10187M 10216M
     2(2)      974U  2097   9181   9324M  9453   9509   9527M  9550   9580M  9604   9738M  9761   9790M  9790   9797M
              9857   9914M  9987  10047M 10069  10135M 10157  10216M
     3(3)      970U  2097   9181   9324M  9453   9509   9527M  9550   9738M  9761   9914M  9987  10047M 10069  10135M
             10157  10216M
     4(4)      966U  2097   9181   9324M  9453   9509   9527M  9550   9738M  9761   9914M  9987  10047M 10069  10135M
             10157  10216M
     5(5)      962U  2097   9181   9324M  9453   9509   9527M  9550   9738M  9761   9914M  9987  10047M 10069  10135M
             10157  10216M
     6(6)      958U  2097   9181   9324M  9453   9509   9527M  9550   9738M  9761   9914M  9987  10047M 10069  10135M
             10157  10216M
     7(7)      954U  2090M  2090   2091B  2097   2103B  9181   9186M  9198U  9316U  9324M  9453   9458M  9470U  9509
              9519U  9527M  9550   9555M  9567U  9730U  9738M  9761   9766M  9778U  9906U  9914M  9924M  9933U  9969U
              9987   9992M 10004U 10039U 10047M 10069  10074M 10086U 10127U 10135M 10157  10162M 10174U 10208U 10216M
     8(8)      950U  2097   9181   9182M  9320   9324M  9453   9454M  9509   9523   9527M  9550   9551M  9734   9738M
              9761   9762M  9910   9914M  9987   9988M 10043  10047M 10069  10070M 10131  10135M 10157  10158M 10212
             10216M
     9(9)      946U  2097   9509
    10(A)      942U  2097   9509
    11(B)      938U  1161U  2097   9509   9940M  9940
    12(C)      934U  1170U  2097   9509   9936M
    13(D)      930U  2097   9178   9181   9182   9183M  9183   9282   9283   9284   9286M  9286   9299M  9300   9301
              9302   9320M  9324   9326   9450   9453   9454   9455M  9455   9509   9523M  9527   9529   9547   9550
              9551   9552M  9552   9734M  9738   9740   9758   9761   9762   9763M  9763   9910M  9914   9916   9984
              9987   9988   9989M  9989  10043M 10047  10049  10066  10069  10070  10071M 10071  10131M 10135  10137
             10154  10157  10158  10159M 10159  10212M 10216  10218
    14(E)      926U  2097   2098M  2112   2113M  2114B  2116M  2117B  2137M  2138B  2142M  2143B  2145M  2146B  2148M
              2149B  2151M  2152B  2154M  2155M  2155B  2161   9178   9257M  9258M  9258B  9265M  9266M  9266B  9281M
              9282   9283   9284   9289M  9290   9293M  9294M  9294B  9297M  9300   9301   9302   9307M  9308M  9308B
              9326M  9329B  9450   9509   9510M  9529M  9532B  9547   9578M  9579M  9579B  9597M  9598M  9598B  9619M
              9620M  9620B  9638M  9639M  9639B  9663M  9664M  9664B  9688M  9689M  9689B  9720M  9721M  9721B  9740M
              9743B  9758   9850M  9851M  9851B  9872M  9873M  9873B  9890M  9891M  9891B  9916M  9919B  9984  10030M
             10031M 10031B 10049M 10052B 10066  10118M 10119M 10119B 10137M 10140B 10154  10199M 10200M 10200B 10218M
             10221B
    15(F)      922U  2097   9254M  9303M  9303   9328M  9328   9509   9531M  9531   9594M  9616M  9635M  9660M  9685M
              9717M  9742M  9742   9809M  9810   9847M  9869M  9887M  9918M  9918   9952M  9952  10027M 10051M 10051
             10115M 10139M 10139  10196M 10220M 10220

1TEST     (TEST2025) (12:57) (15MAR04) Diagnostic Cross Reference and Assembler Summary                                     Page   23
-                                                                                            HLASM R4.0  2004/03/15 12.57
0     No Statements Flagged in this Assembly
 HIGH LEVEL ASSEMBLER, 5696-234, RELEASE 4.0, PTF P72483
0SYSTEM: OS/390 02.10.00            JOBNAME: WYL#TEST    STEPNAME: ASM        PROCSTEP: (NOPROC)
0Datasets Allocated for this Assembly
  Con DDname   Dataset Name                                 Volume  Member
   P1 SYSIN    WYL.GS.WYL.WYLBUR.SOURCE                     SYSB05  TEST
   L1 SYSLIB   WYL.GS.WYL.WYLBUR.MACLIB                     SYSB05
   L2          WYL.GG.SYS.MACLIB                            SYSB05
   L3          SYS3.IS.MACLIB                               SYSB05
   L4          SYS3.MACLIB                                  SYSB02
   L5          SYS1.MACLIB                                  MVSBR9
   L6          SYS1.MODGEN                                  MVSBR9
      SYSPRINT SYS04075.T125712.RA000.WYL#TEST.PRINT.H01    SCR101
      SYSTERM  GG$SLP.WYL#TEST.JOB03569.D0000101.?

    3668K allocated to Buffer Pool,         1905K would be required for this to be an In-Storage Assembly
     156 Primary Input Records Read        10452 Library Records Read                  0 Work File Reads
       0 ASMAOPT Records Read               1586 Primary Print Records Written         0 Work File Writes
       0 Punch Records Written                 0 ADATA Records Written
0Assembly Start Time: 12.57.14 Stop Time: 12.57.17 Processor Time: 00.00.01.3822
 Return Code 000
