1                        J E S 2  J O B  L O G  --  S Y S T E M  S Y S B  --  N O D E  R L G
0
 12.39.15 JOB03503 ---- MONDAY,    15 MAR 2004 ----
 12.39.15 JOB03503  ICH70001I GG$SLP   LAST ACCESS AT 12:37:35 ON MONDAY, MARCH 15, 2004
 12.39.15 JOB03503  $HASP373 WYL#ACCT STARTED - INIT 6    - CLASS B - SYS SYSB
 12.39.15 JOB03503  ***  HCMD      STEP $$QUIET
 12.39.15 JOB03503  PUR * Q OUT MUL
 12.39.15 JOB03503  JOB 5366 WYL#ACCT WILL BE PURGED
 12.39.16 JOB03503  WYL#ACCT.$$QUIET .         RC=Zero TapeIO=0000 DiskIO=0000 CPU=  .01s Elapsed=55.15s
 12.39.29 JOB03503  WYL#ACCT.ASM     .         RC=Zero TapeIO=0000 DiskIO=0839 CPU= 6.00s Elapsed=56.18s
 12.39.31 JOB03503  WYL#ACCT.EDIT    .         RC=Zero TapeIO=0000 DiskIO=0291 CPU=  .92s Elapsed=69.77s
 12.39.31 JOB03503  WYL#ACCT Ended.  Name=Assemble ACCT                  Total CPU= 6.93s Elapsed=55.15s
 12.39.31 JOB03503
 12.39.31 JOB03503  Execution charges   Priority=Standard   Block=Day
 12.39.31 JOB03503
 12.39.31 JOB03503  CPU Usage         128.06          $79.39   Standard Processing Unit Equivalent
 12.39.31 JOB03503                                   =======
 12.39.31 JOB03503                                    $79.39   Total Job execution charge
 12.39.31 JOB03503
 12.39.31 JOB03503  See back separator page for print charges
 12.39.31 JOB03503
 12.39.31 JOB03503  $HASP395 WYL#ACCT ENDED  ASM=0, EDIT=0
1        1 //WYL#ACCT JOB SLP$GG,'Assemble ACCT',TIME=4,REGION=4M                  JOB03503
           //*
           /*JOBPARM LINES=99,COPIES=1
           /*JOBPARM FORMS=3HOL,PFORMAT=LAND,CHARS=BD13,DUPLEX=YES,FLASH=BAR4
           //*
           /*JOBPARM NOTIFY=GG.SLP,HOLD=OUTPUT                                     WYLGEN
         2 //$$QUIET EXEC PGM=HCMDX,PARM='PUR * Q OUT MUL'
           //*
         3 //ASM    EXEC PGM=ASMA90,REGION=8M,
           //            PARM=('NORENT,TERM,FLAG(NOCONT),US(MAP,WARN(10)),NODECK',
           //            'LC(32767),XREF(SHORT),ESD,DXREF,NOOBJECT')
         4 //STEPLIB DD DSN=SYS3.IS.TESTASM,DISP=SHR
         5 //SYSLIB   DD  DSN=WYL.GS.WYL.WYLBUR.MACLIB,DISP=SHR
         6 //         DD  DSN=WYL.GG.SYS.MACLIB,DISP=SHR
         7 //         DD  DSN=SYS3.IS.MACLIB,DISP=SHR
         8 //         DD  DSN=SYS3.MACLIB,DISP=SHR
         9 //         DD  DSN=SYS1.MACLIB,DISP=SHR
        10 //         DD  DSN=SYS1.MODGEN,DISP=SHR
        11 //SYSUT1   DD DSN=&&SYSUT1,UNIT=VIO,DISP=(,DELETE),
           //            SPACE=(4088,(500,250),,CONTIG,ROUND)
        12 //SYSTERM  DD SYSOUT=T
        13 //SYSPRINT DD DSN=&&PRINT,UNIT=SYSDA,DISP=(,PASS),
           //            SPACE=(6650,(250,250),RLSE),
           //            DCB=(BLKSIZE=6650,LRECL=133,RECFM=FB)
        14 //SYSUDUMP DD SYSOUT=A
        15 //SYSIN    DD  DSN=WYL.GS.WYL.WYLBUR.SOURCE(ACCT),DISP=SHR
           //*
        16 //EDIT    EXEC PGM=ASMEDIT,TIME=2,REGION=4000K,
           //             PARM='STMT'
        17 //STEPLIB  DD  DSN=WYL.GG.SYS.LINKLIB,DISP=SHR
        18 //ASMOUT   DD  DSN=&PRINT,DISP=(OLD,DELETE)
        19 //SYSPRINT DD  SYSOUT=A
1 STMT NO. MESSAGE
 -
        11 IGD01010I STORCLAS= TEMP STORGROUP =
        11 IGD01010I STORGRP=VIO ASSIGNED.
        13 IGD01010I STORCLAS= TEMP STORGROUP =
        13 IGD01010I STORGRP=VIO ASSIGNED.
 ICH70001I GG$SLP   LAST ACCESS AT 12:37:35 ON MONDAY, MARCH 15, 2004
 IEF142I WYL#ACCT $$QUIET - STEP WAS EXECUTED - COND CODE 0000
 *********************************************************************************
 *   WYL#ACCT/$$QUIET /                    Return Code      Zero                 *
 *   Region used      260K (16K user + 244K system)                              *
 *   Extended region  9692K (4K user + 9688K system)                             *
 *                                                                               *
 *   Paging              In      Out                                             *
 *   Private <-> Aux      0        0       CPU time (TCB)   00:00:00.01          *
 *   Private <-> Exp      0        0       CPU time (SRB)   00:00:00.00          *
 *   VIO                  0        0       Elapsed time    917:48:37.81          *
 *   Common               0      ---                                             *
 *                                                                               *
 *                                                                               *
 *   CPU Usage          0.18         $0.11  Standard Processing Unit Equivalent  *
 *                                   $0.11  Total Step execution charge          *
 *                                                                               *
 *    I/O count  DDname   Type Addr           I/O count  DDname   Type Addr      *
 *                         *** No I/O for this step ***                          *
 *********************************************************************************
 IEF373I STEP/$$QUIET /START 2004075.1239
 IEF374I STEP/$$QUIET /STOP  2004075.1239 CPU    0MIN 00.01SEC SRB    0MIN 00.00SEC VIRT    16K SYS   244K EXT       4K SYS    9688K
 IEF236I ALLOC. FOR WYL#ACCT ASM
 IEF237I 04DC ALLOCATED TO STEPLIB
 IEF237I 04DC ALLOCATED TO SYSLIB
 IEF237I 04DC ALLOCATED TO
 IEF237I 04DC ALLOCATED TO
 IEF237I 0402 ALLOCATED TO
 IEF237I 04A0 ALLOCATED TO
 IEF237I 04A0 ALLOCATED TO
 IGD101I SMS ALLOCATED TO DDNAME (SYSUT1  )
         DSN (SYS04075.T123915.RA000.WYL#ACCT.SYSUT1.H01  )
         STORCLAS (TEMP) MGMTCLAS (        ) DATACLAS (        )
         VOL SER NOS= VIO
 IEF237I JES2 ALLOCATED TO SYSTERM
 IGD101I SMS ALLOCATED TO DDNAME (SYSPRINT)
         DSN (SYS04075.T123915.RA000.WYL#ACCT.PRINT.H01   )
         STORCLAS (TEMP) MGMTCLAS (        ) DATACLAS (        )
         VOL SER NOS= SCR100
 IEF237I JES2 ALLOCATED TO SYSUDUMP
 IEF237I 04DC ALLOCATED TO SYSIN
 IEF142I WYL#ACCT ASM - STEP WAS EXECUTED - COND CODE 0000
 IEF285I   SYS3.IS.TESTASM                              KEPT
 IEF285I   VOL SER NOS= SYSB05.
 IEF285I   WYL.GS.WYL.WYLBUR.MACLIB                     KEPT
 IEF285I   VOL SER NOS= SYSB05.
 IEF285I   WYL.GG.SYS.MACLIB                            KEPT
 IEF285I   VOL SER NOS= SYSB05.
 IEF285I   SYS3.IS.MACLIB                               KEPT
 IEF285I   VOL SER NOS= SYSB05.
 IEF285I   SYS3.MACLIB                                  KEPT
 IEF285I   VOL SER NOS= SYSB02.
 IEF285I   SYS1.MACLIB                                  KEPT
 IEF285I   VOL SER NOS= MVSBR9.
 IEF285I   SYS1.MODGEN                                  KEPT
 IEF285I   VOL SER NOS= MVSBR9.
 IGD105I SYS04075.T123915.RA000.WYL#ACCT.SYSUT1.H01   DELETED,   DDNAME=SYSUT1
 IEF285I   GG$SLP.WYL#ACCT.JOB03503.D0000101.?          SYSOUT
 IGD106I SYS04075.T123915.RA000.WYL#ACCT.PRINT.H01    PASSED,    DDNAME=SYSPRINT
 IEF285I   GG$SLP.WYL#ACCT.JOB03503.D0000102.?          SYSOUT
 IEF285I   WYL.GS.WYL.WYLBUR.SOURCE                     KEPT
 IEF285I   VOL SER NOS= SYSB05.
 *********************************************************************************
 *   WYL#ACCT/ASM     /                    Return Code      Zero                 *
 *   Region used      4376K (4096K user + 280K system)                           *
 *   Extended region  10308K (412K user + 9896K system)                          *
 *                                                                               *
 *   Paging              In      Out                                             *
 *   Private <-> Aux      0        0       CPU time (TCB)   00:00:05.93          *
 *   Private <-> Exp      0        0       CPU time (SRB)   00:00:00.07          *
 *   VIO                  0        0       Elapsed time    917:48:36.78          *
 *   Common               0      ---                                             *
 *                                                                               *
 *                                                                               *
 *   CPU Usage        111.18        $68.93  Standard Processing Unit Equivalent  *
 *                                  $68.93  Total Step execution charge          *
 *                                                                               *
 *    I/O count  DDname   Type Addr           I/O count  DDname   Type Addr      *
 *           84  STEPLIB  Disk 04DC                 364  SYSLIB   Disk 04DC      *
 *            0  SYSLIB   Disk 04DC                   0  SYSLIB   Disk 04DC      *
 *            6  SYSLIB   Disk 0402                  85  SYSLIB   Disk 04A0      *
 *            0  SYSLIB   Disk 04A0                 433  SYSUT1   VIO  ----      *
 *            0  SYSTERM       ----                 288  SYSPRINT Disk 038B      *
 *            0  SYSUDUMP      ----                  12  SYSIN    Disk 04DC      *
 *********************************************************************************
 IEF373I STEP/ASM     /START 2004075.1239
 IEF374I STEP/ASM     /STOP  2004075.1239 CPU    0MIN 05.93SEC SRB    0MIN 00.07SEC VIRT  4096K SYS   280K EXT     412K SYS    9896K
 IEF236I ALLOC. FOR WYL#ACCT EDIT
 IEF237I 0402 ALLOCATED TO STEPLIB
 IGD103I SMS ALLOCATED TO DDNAME ASMOUT
 IEF237I JES2 ALLOCATED TO SYSPRINT
 IEF142I WYL#ACCT EDIT - STEP WAS EXECUTED - COND CODE 0000
 IEF285I   WYL.GG.SYS.LINKLIB                           KEPT
 IEF285I   VOL SER NOS= SYSB02.
 IGD105I SYS04075.T123915.RA000.WYL#ACCT.PRINT.H01    DELETED,   DDNAME=ASMOUT
 IEF285I   GG$SLP.WYL#ACCT.JOB03503.D0000103.?          SYSOUT
 *********************************************************************************
 *   WYL#ACCT/EDIT    /                    Return Code      Zero                 *
 *   Region used      380K (116K user + 264K system)                             *
 *   Extended region  9812K (4K user + 9808K system)                             *
 *                                                                               *
 *   Paging              In      Out                                             *
 *   Private <-> Aux      0        0       CPU time (TCB)   00:00:00.89          *
 *   Private <-> Exp      0        0       CPU time (SRB)   00:00:00.03          *
 *   VIO                  0        0       Elapsed time    917:48:23.19          *
 *   Common               0      ---                                             *
 *                                                                               *
 *                                                                               *
 *   CPU Usage         16.68        $10.34  Standard Processing Unit Equivalent  *
 *                                  $10.34  Total Step execution charge          *
 *                                                                               *
 *    I/O count  DDname   Type Addr           I/O count  DDname   Type Addr      *
 *            2  STEPLIB  Disk 0402                 289  ASMOUT   Disk 038B      *
 *            0  SYSPRINT      ----                                              *
 *********************************************************************************
 IEF373I STEP/EDIT    /START 2004075.1239
 IEF374I STEP/EDIT    /STOP  2004075.1239 CPU    0MIN 00.89SEC SRB    0MIN 00.03SEC VIRT   116K SYS   264K EXT       4K SYS    9808K
 *********************************************************************************
 *                                                                               *
 *                      S t a n f o r d   U n i v e r s i t y                    *
 *                                                                               *
 *                              *** Job Summary ***                              *
 *                                                                               *
 *   System Id      SYSB                   Input time     12:39:14  Mar 15, 2004 *
 *                                                                               *
 *   System Release SP6.1.0                Start time     12:39:15  Mar 15, 2004 *
 *                                                                               *
 *   Job name       WYL#ACCT               Stop  time     00:00:00  Mar 15, 2004 *
 *                                                                               *
 *   Account        SLP$GG                 Elapsed time  917:48:37.81            *
 *                                                                               *
 *   User Name      Assemble ACCT          CPU time       00:00:06.83            *
 *                                                                               *
 *   Job class      B                      SRB Time       00:00:00.10            *
 *                                                                               *
 *********************************************************************************
 IEF375I  JOB/WYL#ACCT/START 2004075.1239
 IEF376I  JOB/WYL#ACCT/STOP  2004075.1239 CPU    0MIN 06.83SEC SRB    0MIN 00.10SEC
1Assembler Done ACCT No Statements Flagged
1         High Level Assembler Option Summary                   (PTF P72483 )                                               Page    1
-                                                                                            HLASM R4.0  2004/03/15 12.39
0  No Overriding ASMAOPT Parameters
   Overriding Parameters-  NORENT,TERM,FLAG(NOCONT),US(MAP,WARN(10)),NODECK,LC(32767),XREF(SHORT),ESD,DXREF,NOOBJECT
   No Process Statements


   Options for this Assembly
0  NOADATA
     ALIGN
   NOASA
     BATCH
     CODEPAGE(047C)
   NOCOMPAT
   NODBCS
 3 NODECK
 3   DXREF
 3   ESD
   NOEXIT
 3   FLAG(0,ALIGN,NOCONT,NOIMPLEN,NOPAGE0,PUSH,RECORD,NOSUBSTR,USING0)
   NOFOLD
   NOGOFF
   NOINFO
     LANGUAGE(EN)
   NOLIBMAC
 3   LINECOUNT(32767)
     LIST(121)
     MXREF(SOURCE)
 3 NOOBJECT
     OPTABLE(UNI,NOLIST)
   NOPCONTROL
   NOPESTOP
   NOPROFILE
   NORA2
 3 NORENT
     RLD
     RXREF
     SIZE(MAX)
     SYSPARM()
 3   TERM(WIDE)
   NOTEST
     THREAD
   NOTRANSLATE
 3   USING(NOLIMIT,MAP,WARN(10))
 3   XREF(SHORT)

   No Overriding DD Names

1ACCT     External Symbol Dictionary                                                                                        Page    2
-Symbol   Type   Id     Address  Length     LD ID  Flags Alias-of                            HLASM R4.0  2004/03/15 12.39
0WYLACCT   SD 00000001 00000000 00004338             00
 ACCT2025  LD          00000000           00000001
 SHOWTIME  LD          00000018           00000001
 MTOKEN    ER 00000002
 COLLPSH   ER 00000003
 MALL      ER 00000004
 NOTVALID  ER 00000005
 SHOWSCOS  LD          00000574           00000001
 MINT      ER 00000006
 SHOWSCS   LD          000007A2           00000001
 NSCAN     ER 00000007
 SCANCHK   ER 00000008
 SEGT      ER 00000009
 SEG       ER 0000000A
 BTR       ER 0000000B
 SEGDC     ER 0000000C
 SEGCR     ER 0000000D
 FMTTIME   ER 0000000E
 LOCALTOD  ER 0000000F
 FMTXDATE  ER 00000010
 SEGCOL    ER 00000011
 COLLOPTS  ER 00000012
 SHOWWCTR  LD          00000C36           00000001
 MPINT     ER 00000013
 SETWCTR   LD          00000FE2           00000001
 WCOUNT    LD          0000132A           00000001
 GETWCNT   LD          00001566           00000001
 SEGTB     ER 00000014
 WCTRINCR  LD          000017DA           00000001
 WBILL     LD          00001AD0           00000001
 DISPLGF   LD          00001CDE           00000001
 DISPCOST  LD          00001E28           00000001
 GETCORE   ER 00000015
 FREECORE  ER 00000016
 SCUPCASE  ER 00000017
 SEGWR     ER 00000018
 SEGB      ER 00000019
 BTD       ER 0000001A
 GETCTOT   LD          00002486           00000001
 GETCVAR   LD          00002566           00000001
 GETCPU    ER 0000001B
 CPUFIX    LD          0000270A           00000001
 BILLCHK   LD          0000280C           00000001
 FMTCLCK   ER 0000001C
 DOWNBILL  LD          00002F42           00000001
 DOBILL    LD          00002FB2           00000001
 TIMEDATE  ER 0000001D
 FREEBILL  LD          000039DC           00000001
 LOGKWR    LD          00003B66           00000001
 SMFLOG    LD          00003BFC           00000001
 GETUID    LD          00003F32           00000001
 GETUIDL   LD          00003FD6           00000001
 GETACCT   LD          00004056           00000001
 CHKACCT   LD          000041E8           00000001
 KEYGET    ER 0000001E
1ACCT     External Symbol Dictionary                                                                                        Page    3
 LRTRIM    ER 0000001F
 KWIO      ER 00000020

1ACCT     WYLBUR'S Accounting Routines                                                                                      Page    4
0Loc    Object Code    Addr1 Addr2  Stmt Lv Lineno    Source Statement                    (Asmedit 3.3)  HLASM R4.0  2004/03/15 12.39
+___    ______ ____    _____ _____  ____ __ ______    ______ _________
0                                      2              *******************************************************************
                                       3              *                                                                 *
                                       4              *     WYLBUR/370 - Release VI - Class I - Stanford Proprietary    *
                                       5              *                                                                 *
                                       6              *******************************************************************
                                       7                       HIBAL
                                     988
 000000                00000 04338   989              WYLACCT  CSECT
                                     993              ACCT     IDENT 2025                11:49:19 01/25/02  (SLP)
                                     996             +
                                     997    01-IDENT +         ENTRY ACCT2025
                                     998             +
 000000 16C1C3C3E3F2F0F2             999    01-IDENT +ACCT2025 DC    AL1(22),C'ACCT2025,15MAR04,12:39'
                                    1000             +*
                                    1002                       REGS  FSR,,,,,,,BR,(WAR,LSR),PAR,PBR,CPR,CVR,SPR,RAR
                                    1138
                                    1139                       SYSDEFN ,                 Define installation params
                                    1140
                                    1141                       GBLA  &WSMFSYS,&WSMFBIL           (See SYSDEFN)
                                    1142                       GBLA  &WSMFLOG,&WSMFKWR           (See SYSDEFN)
                                    1143                       GBLC  &INSTALN,                   (See SYSDEFN)
                                    1144                       GBLC  &STDFORM                    (See SYSDEFN)
                                    1145                       GBLB  &JOBAUTH,&SETLTIM,&KEYUPLO  (See SYSDEFN)
                                    1146                       GBLB  &SPACE,&BUDGET              (See SYSDEFN)
                                    1147
                                    1148                       PUSH  DSECTS
 USING  CP,R11                      1159             =         USING (CP),(CV)
 USING  CV,R12
 000017                00000 04338  1178             =         POP   PRINT
                                    9824
1ACCT     (ACCT2025) (12:39) (15MAR04) Common Control Blocks                                                                Page    5
0Current Usings:  (CP,R11) (CV,R12)
0Loc    Object Code    Addr1 Addr2  Stmt Lv Lineno    Source Statement           (Hibal 5, Asmedit 3.3)  HLASM R4.0  2004/03/15 12.39
+___    ______ ____    _____ _____  ____ __ ______    ______ _________
0000000                00000 00064  9826              UCE      RECORD BEGIN
                                    9834  1                      COPY  UCE
                                    9835= 1          =¿þþþþþþþþþþþþþþþþþþþþþþþþþþþþþþþþþþþþþþþþþþþþþþþþþþþþþþþþþþþþþþþþþþþþþÜ
                                    9836= 1          =Ÿ                                                                     Ÿ
                                    9837= 1          =Ÿ    User Charge Entry                                                Ÿ
                                    9838= 1          =Ÿ                                                                     Ÿ
                                          1           ¾þþþþþþþþþþþþþþþþþþþþþþþþþþþþþþþþþþþþþþþþþþþþþþþþþþþþþþþþþþþþþþþþþþþþþ»
0000000                             9839  1          =           DS    0F
 000000                             9840  1          =UCEID      DS    CL4'UCE'
 000004                             9841  1          =UCELINK    DS    F                   Next UCE ptr (or zero)
                                    9842  1          =
 000008 00                          9843  1          =UCEFLAG    FLAG
 UCEFLAG.UCEFNOCHA 80 ONES          9847  1          =           FLAG  UCEFNOCHARGE        - Don't charge user for this
                                    9852  1          =
 000009                             9853  1          =           DS    XL3                 Reserved
                                    9854  1          =
 00000C                             9855  1          =UCECOMP    DS    CL16                Current charge component name
 00001C                             9856  1          =UCEBLK     DS    CL8                 Current time-block (e.g., "DAY")
 000024                             9857  1          =UCEPROJ    DS    CL8                 Project id
                                    9858  1          =UCEKEY     EQU   UCECOMP,*-UCECOMP,C'X'
                                    9859  1          =
 000030                             9860  1          =UCEECLK    DS    D                   Elapsed time (in STCK increments)
 000038                             9861  1          =UCECON$    DS    F
 00003C                             9862  1          =UCETIO     DS    F                   Terminal I/O's
 000040                             9863  1          =UCETIO$    DS    F
 000044                             9864  1          =UCEWCPU    DS    F                   WYLBUR cpu in tu's (1/38400 sec)
 000048                             9865  1          =UCEWCPU$   DS    F
 00004C                             9866  1          =UCEWIO     DS    F                   WYLBUR disk I/O's
 000050                             9867  1          =UCEWIO$    DS    F
 000054                             9868  1          =UCEVCPU    DS    F                   ORVYL cpu in tu's (1/38400 sec)
 000058                             9869  1          =UCEVCPU$   DS    F
 00005C                             9870  1          =UCEVIO     DS    F                   ORVYL disk I/O's
 000060                             9871  1          =UCEVIO$    DS    F
 000064                00064 00064  9872                       END
                                    9881
1ACCT     (ACCT2025) (12:39) (15MAR04) Common Control Blocks                                                                Page    6
0Current Usings:  (CP,R11) (CV,R12)
0Loc    Object Code    Addr1 Addr2  Stmt Lv Lineno    Source Statement           (Hibal 5, Asmedit 3.3)  HLASM R4.0  2004/03/15 12.39
+___    ______ ____    _____ _____  ____ __ ______    ______ _________
0000000                00000 00038  9883              SMFHDR   RECORD BEGIN
                                    9891  1                      COPY  SMFHDR
 000000                             9892  1          =           DS    H                   Not part of record -- reserved
                                    9893  1          =
 000002                             9894  1          =SMFLEN     DS    H                   Record len
                                    9895= 1          =           ¿þþþþþþþþþþþþþþþÜ
                                    9896= 1          =           Ÿ  Smf header.  Ÿ
                                    9897= 1          =           ¾þþþþþþþþþþþþþþþ»
 000004                             9898  1          =SMFSTRT    DS    H,X
 000007                             9899  1          =SMFTYPE    DS    X                   Smf record no.
 000008                             9900  1          =SMFTIME    DS    F                   Time stamp (in .01 sec)
 00000C                             9901  1          =SMFDATE    DS    F                   Date (00yydddf)
 000010                             9902  1          =SMFSID     DS    CL4                 System identification
                                    9903= 1          =           ¿þþþþþþþþþþþþþþþþþþþþþþþÜ
                                    9904= 1          =           Ÿ  Interactive header.  Ÿ
                                    9905= 1          =           ¾þþþþþþþþþþþþþþþþþþþþþþþ»
                                    9906  1          =SMFIACCT   EQU   *,5,C'C'            Account (uuugg) follows
 000014                             9907  1          =SMFUSER    DS    CL3                 User id
 000017                             9908  1          =SMFGRP     DS    CL4                 Group (and 2 char project)
 00001B                             9909  1          =SMFTETYP   DS    C                   Terminal connection type
 00001C                             9910  1          =SMFSYSTM   DS    CL8                 Subsystem name (e.g., wylbur)
 000024                             9911  1          =SMFTACF    DS    X                   Account flags
 000025                             9912  1          =SMFTRM     DS    CL3                 Terminal id
 000028                             9913  1          =SMFPROJ    DS    CL8                 Project id
 000030                             9914  1          =SMFTON     DS    F                   Session start time
 000034                             9915  1          =SMFDON     DS    F                   Session start date
                                    9916  1          =SMFINIT    EQU   SMFSTRT,*-SMFSTRT,C'X'
 000038                00038 00038  9917                       END
                                    9926
1ACCT     (ACCT2025) (12:39) (15MAR04) Common Control Blocks                                                                Page    7
0Current Usings:  (CP,R11) (CV,R12)
0Loc    Object Code    Addr1 Addr2  Stmt Lv Lineno    Source Statement           (Hibal 5, Asmedit 3.3)  HLASM R4.0  2004/03/15 12.39
+___    ______ ____    _____ _____  ____ __ ______    ______ _________
0000000                00000 00062  9928              SMFACCT  RECORD BEGIN
 000000                             9936  1                      DS    XL(L'SMFHDR)        Standard header
                                    9937  1                      COPY  SMFACCT             Old subsystem charge record
 000038                             9938  1          =           DS    XL3                 Reserved
 00003B                             9939  1          =SMFTMBLK   DS    X                   Charged time block
                                    9940  1          =
 00003C                             9941  1          =SMFDATA    DS    0F
                                    9942= 1          =           ¿þþþþþþþþþþþþþþþþþþþþþþþþþþþþþþþþþþÜ
                                    9943= 1          =           Ÿ  MILTEN accounting information.  Ÿ
                                    9944= 1          =           ¾þþþþþþþþþþþþþþþþþþþþþþþþþþþþþþþþþþ»
 00003C                             9945  1          =SMFMCON    DS    F                   Connect time in .01 sec
 000040                             9946  1          =SMFMTIO    DS    F                   No. of terminal i/o's
                                    9947  1          =SMFMIL     EQU   *                   (End of MILTEN record)
                                    9948= 1          =           ¿þþþþþþþþþþþþþþþþþþþþþþþþþþþþþþþþþþÜ
                                    9949= 1          =           Ÿ  WYLBUR accounting information.  Ÿ
                                    9950= 1          =           ¾þþþþþþþþþþþþþþþþþþþþþþþþþþþþþþþþþþ»
 000044                00044 0003C  9951  1          =           ORG   SMFDATA
 00003C                             9952  1          =SMFWCPU    DS    F                   CPU time in .01 sec
 000040                             9953  1          =           DS    8H                  Reserved
 000050                             9954  1          =SMFWDIO    DS    H                   Disk i/o's
 000052                             9955  1          =           DS    XL16                Reserved
                                    9956  1          =SMFWYL     EQU   *                   (End of WYLBUR record)
                                    9957= 1          =           ¿þþþþþþþþþþþþþþþþþþþþþþþþþþþþþþþþþÜ
                                    9958= 1          =           Ÿ  ORVYL accounting information.  Ÿ
                                    9959= 1          =           ¾þþþþþþþþþþþþþþþþþþþþþþþþþþþþþþþþþ»
 000062                00062 0003C  9960  1          =           ORG   SMFDATA
 00003C                             9961  1          =SMFVCPU    DS    F                   CPU time in tu's
 000040                             9962  1          =           DS    F                   Reserved
 000044                             9963  1          =SMFVDIO    DS    F                   File i/o's
                                    9964  1          =SMFORV     EQU   *                   (End of ORVYL record)
 000048                00048 00062  9965                       END
                                    9974
1ACCT     (ACCT2025) (12:39) (15MAR04) Common Control Blocks                                                                Page    8
0Current Usings:  (CP,R11) (CV,R12)
0Loc    Object Code    Addr1 Addr2  Stmt Lv Lineno    Source Statement           (Hibal 5, Asmedit 3.3)  HLASM R4.0  2004/03/15 12.39
+___    ______ ____    _____ _____  ____ __ ______    ______ _________
0000000                00000 00100  9976              SMFSCRC  RECORD BEGIN
 000000                             9984  1                      DS    XL(L'SMFHDR)        SMF Standard header
                                    9985  1                      COPY  SMFSCRC             SMF Session charging record
                                    9986= 1          =           ¿þþþþþþþþþþþþþþþþþþþþþþþþþþþþþþþþþþþþþþþþþþþþþþþÜ
                                    9987= 1          =           Ÿ  Session Charge Record                        Ÿ
                                    9988= 1          =           Ÿ                                               Ÿ
                                    9989= 1          =           Ÿ  (Integrated Interactive SMF Charge Record.)  Ÿ
                                    9990= 1          =           ¾þþþþþþþþþþþþþþþþþþþþþþþþþþþþþþþþþþþþþþþþþþþþþþþ»
 000038                             9991  1          =SCRCSTRT   DS    0D                  Start of record
 000038                             9992  1          =SCRCVER    DS    F                   Charging record version number
                                    9993  1          =SCRCVER#   EQU   9                   - Current version number
 00003C                             9994  1          =SCRCTYPE   DS    CL8                 Charging record type:
                                    9995  1          =*                                     "LOGOFF"  Normal logoff
                                    9996  1          =*                                     "CRASH"   System crash
                                    9997  1          =*                                     "HOURLY"  Statistics only
 000044                             9998  1          =SCRSTAG    DS    CL16                Session tag (unique session id)
 000054                             9999  1          =SCRCUID    DS    CL20                User id
 000068                            10000  1          =SCRCNAME   DS    CL20                User name
 00007C                            10001  1          =SCRCWAPP   DS    CL8                 Application defined information
 000084                            10002  1          =           DS    CL12                Reserved
 000090                            10003  1          =SCRCFE     DS    CL8                 Front-end name
 000098                            10004  1          =SCRCPORT   DS    CL8                 Port name
 0000A0                            10005  1          =           DS    CL10                Reserved
 0000AA                            10006  1          =SCRCSOF    DS    C                   Source of funds code
 0000AB                            10007  1          =SCRCAR     DS    C                   Accounts receivable code
 0000AC                            10008  1          =SCRCMULT   DS    F                   CPU multiplying factor
 0000B0                            10009  1          =SCRCSURG   DS    F                   CPU surcharge factor (ext. accts)
 0000B4                            10010  1          =           DS    2F                  Reserved
                                   10011= 1          =           ¿þþþþþþþþþþþþþþþþþþþþþþþþþþþþþþþþþþþþþþþþþþþþþþþþþþþþþþþþþþþþþþþÜ
                                   10012= 1          =           Ÿ  Resource summary information.                                Ÿ
                                   10013= 1          =           Ÿ                                                               Ÿ
                                   10014= 1          =           Ÿ  Note:  The CPU time numbers below are the "raw total" CPU    Ÿ
                                   10015= 1          =           Ÿ         time used for this session.  The information is       Ÿ
                                   10016= 1          =           Ÿ         included for resource monitoring.  Unlike the CPU     Ÿ
                                   10017= 1          =           Ÿ         time in the charging component entries, these CPU     Ÿ
                                   10018= 1          =           Ÿ         times have NOT been multiplied by the CPU             Ÿ
                                   10019= 1          =           Ÿ         multiplier.  They include internal overhead for this  Ÿ
                                   10020= 1          =           Ÿ         session, so the sum of the CPU time in all the        Ÿ
                                   10021= 1          =           Ÿ         components is not necessarily the same as the         Ÿ
                                   10022= 1          =           Ÿ         numbers here.                                         Ÿ
                                   10023= 1          =           ¾þþþþþþþþþþþþþþþþþþþþþþþþþþþþþþþþþþþþþþþþþþþþþþþþþþþþþþþþþþþþþþþ»
 0000BC                            10024  1          =SCRCCOST   DS    F                   Total ses charges (in .1 cents)
 0000C0                            10025  1          =SCRCLDAT   DS    F                   Session start date ("yydddF")
 0000C4                            10026  1          =SCRCLTIM   DS    F                   Session start time (.01 sec)
 0000C8                            10027  1          =SCRCET     DS    F                   Elapsed time (in .01 seconds)
 0000CC                            10028  1          =SCRCTIO    DS    F                   Session terminal I/O's
 0000D0                            10029  1          =SCRCWCPU   DS    F                   Total Wylbur CPU time (in tu's)
 0000D4                            10030  1          =SCRCWIO    DS    F                   Total Wylbur disk I/O's
 0000D8                            10031  1          =SCRCVCPU   DS    F                   Total Orvyl CPU time (in tu's)
 0000DC                            10032  1          =SCRCVIO    DS    F                   Total Orvyl disk I/O's
 0000E0                            10033  1          =           DS    4F                  Reserved
1ACCT     (ACCT2025) (12:39) (15MAR04) Common Control Blocks                                                                Page    9
0Current Usings:  (CP,R11) (CV,R12)
0Loc    Object Code    Addr1 Addr2  Stmt Lv Lineno    Source Statement           (Hibal 5, Asmedit 3.3)  HLASM R4.0  2004/03/15 12.39
+___    ______ ____    _____ _____  ____ __ ______    ______ _________
0                                  10034= 1          =           ¿þþþþþþþþþþþþþþþþþþþþþþþþþþþþþþþþþþþþþþþþþÜ
                                   10035= 1          =           Ÿ  Component charge records information.  Ÿ
                                   10036= 1          =           ¾þþþþþþþþþþþþþþþþþþþþþþþþþþþþþþþþþþþþþþþþþ»
 0000F0                            10037  1          =           DS    F                   Reserved
 0000F4                            10038  1          =SCRCCHCT   DS    H                   Number of component charge recs
 0000F6                            10039  1          =SCRCCHLN   DS    H                   Length of a component charge rec
                                   10040= 1          =           ¿þþþþþþþþþþþþþþþþþþþþþþþþþþþþþþþÜ
                                   10041= 1          =           Ÿ  Counter record information.  Ÿ
                                   10042= 1          =           ¾þþþþþþþþþþþþþþþþþþþþþþþþþþþþþþþ»
 0000F8                            10043  1          =           DS    F                   Reserved
 0000FC                            10044  1          =SCRCCTCT   DS    H                   Number of counter records
 0000FE                            10045  1          =SCRCCTLN   DS    H                   Length of a counter record
                                   10046= 1          =      ¿þþþþþþþþþþþþþþþþþþþþþþþþþþþþþþþþþþþþþþþþþþþþþþþþþþþþþþþþþþþþþþþþÜ
                                   10047= 1          =      Ÿ  One or more component charge records are concatenated to the  Ÿ
                                   10048= 1          =      Ÿ  end of a bill record.  Zero or more counter records are       Ÿ
                                   10049= 1          =      Ÿ  concatenated to the end of the last component charge record.  Ÿ
                                   10050= 1          =      Ÿ  The address of the list of charge or counter records can      Ÿ
                                   10051= 1          =      Ÿ  be calculated using the info above.                           Ÿ
                                   10052= 1          =      ¾þþþþþþþþþþþþþþþþþþþþþþþþþþþþþþþþþþþþþþþþþþþþþþþþþþþþþþþþþþþþþþþþ»
 000100                            10053  1          =SCRCEND    DS    0F                  End of record header
 000100                00100 00100 10054                       END
                                   10063
1ACCT     (ACCT2025) (12:39) (15MAR04) Common Control Blocks                                                                Page   10
0Current Usings:  (CP,R11) (CV,R12)
0Loc    Object Code    Addr1 Addr2  Stmt Lv Lineno    Source Statement           (Hibal 5, Asmedit 3.3)  HLASM R4.0  2004/03/15 12.39
+___    ______ ____    _____ _____  ____ __ ______    ______ _________
0000000                00000 00060 10065              SMFCCRC  RECORD BEGIN
                                   10073  1                      COPY   SMFCCRC            SMF Component charging record
                                   10074= 1          =           ¿þþþþþþþþþþþþþþþþþþþþþþþþþþþþþþÜ
                                   10075= 1          =           Ÿ  Component charging record.  Ÿ
                                   10076= 1          =           ¾þþþþþþþþþþþþþþþþþþþþþþþþþþþþþþ»
 000000                            10077  1          =CCRCPROJ   DS    CL8                 Project id
 000008                            10078  1          =CCRCCOMP   DS    CL16                Charging component ("GENERAL")
 000018                            10079  1          =CCRCBLK    DS    CL8                 Time block ("DAY")
                                   10080= 1          =           ¿þþþþþþþþþþþþþþþþþþþþþþþþþþþþþþþþþþþþþþþþþþþþþþþþþþþþþþþþþþþþþþÜ
                                   10081= 1          =           Ÿ  CPU time information:                                       Ÿ
                                   10082= 1          =           Ÿ    A "tu" is a "timer unit", which is 1/38400 of a second.   Ÿ
                                   10083= 1          =           Ÿ    The CPU numbers below have the CPU multiplier and         Ÿ
                                   10084= 1          =           Ÿ    surcharge percentage already applied to them (i.e., they  Ÿ
                                   10085= 1          =           Ÿ    are the same numbers that are displayed to users).        Ÿ
                                   10086= 1          =           Ÿ                                                              Ÿ
                                   10087= 1          =           Ÿ  All dollar amounts below are in .1 cent units (when Wylbur  Ÿ
                                   10088= 1          =           Ÿ    displays them to users, it rounds to the nearest cent).   Ÿ
                                   10089= 1          =           ¾þþþþþþþþþþþþþþþþþþþþþþþþþþþþþþþþþþþþþþþþþþþþþþþþþþþþþþþþþþþþþþ»
 000020                            10090  1          =CCRCCON    DS    F                   Connect time (in .01 seconds)
 000024                            10091  1          =CCRCCON$   DS    F
 000028                            10092  1          =CCRCTIO    DS    F                   Terminal I/O count
 00002C                            10093  1          =CCRCTIO$   DS    F
 000030                            10094  1          =CCRCWCPU   DS    F                   Wylbur CPU time (in tu's)
 000034                            10095  1          =CCRCWCPU$   DS   F
 000038                            10096  1          =CCRCWIO    DS    F                   Wylbur disk I/Os
 00003C                            10097  1          =CCRCWIO$   DS    F
 000040                            10098  1          =CCRCVCPU   DS    F                   Orvyl CPU time (in tu's)
 000044                            10099  1          =CCRCVCPU$   DS   F
 000048                            10100  1          =CCRCVIO    DS    F                   Orvyl disk I/Os
 00004C                            10101  1          =CCRCVIO$   DS    F
 000050                            10102  1          =           DS    3F                  Reserved
 00005C 00                         10103  1          =CCRCFLAG   FLAG
 CCRCFLAG.CCRCFNOC 80 ONES         10107  1          =           FLAG  CCRCFNOCHARGE       - Don't charge user for this
 00005D                            10112  1          =           DS    XL3                 Reserved
                                   10113  1          =CCRCNEXT   EQU   *                   (Next component entry follows...)
 000060                00060 00060 10114                       END
                                   10123
1ACCT     (ACCT2025) (12:39) (15MAR04) Common Control Blocks                                                                Page   11
0Current Usings:  (CP,R11) (CV,R12)
0Loc    Object Code    Addr1 Addr2  Stmt Lv Lineno    Source Statement           (Hibal 5, Asmedit 3.3)  HLASM R4.0  2004/03/15 12.39
+___    ______ ____    _____ _____  ____ __ ______    ______ _________
0000000                00000 00020 10125              SMFCTRC  RECORD BEGIN
                                   10133  1                      COPY   SMFCTRC            SMF Counter Record
                                   10134= 1          =      ¿þþþþþþþþþþþþþþþþþþÜ
                                   10135= 1          =      Ÿ  Counter Record  Ÿ
                                   10136= 1          =      ¾þþþþþþþþþþþþþþþþþþ»
 000000                            10137  1          =CTRCNAME   DS    CL16                Counter variable name
 000010                            10138  1          =CTRCVAL    DS    F                   Variable value
 000014                            10139  1          =CTRCVAL$   DS    F                   Dollar amount (in .1 cent units)
 000018                            10140  1          =CTRCTEXT   DS    CL8                 Text associated with the counter
 000020                00020 00020 10141                       END
                                   10150
 000000                00000 00008 10151              CTAREA   RECORD BEGIN
 000000                            10159  1           CTAREAL    DS    F                   AREA LENGTH (NOT INCLUDING HDR)
 000004                            10160  1           CTARECSL   DS    F                   LENGTH OF RECORDS
 000008                            10161  1           CTARECS    DS    0F                  START OF N COUNTER RECORDS
                                   10162  1           CTAHDRL    EQU   8                   HEADER LENGTH
                                   10163  1           CTALEN1    EQU   CTAHDRL+8*L'SMFCTRC  1ST LEN TO ALLOCATE FOR AREA
                                   10164  1           CTALEN2    EQU   16*L'SMFCTRC        INCREMENTAL LENGTH
                                   10165  1           CTAMAX     EQU   4096                MAX COUNTER AREA TO GET
 000008                00008 00008 10166                       END
1ACCT     (ACCT2025) (12:39) (15MAR04) Common Control Blocks                                                                Page   12
0Current Usings:  (CP,R11) (CV,R12)
0Loc    Object Code    Addr1 Addr2  Stmt Lv Lineno    Source Statement           (Hibal 5, Asmedit 3.3)  HLASM R4.0  2004/03/15 12.39
+___    ______ ____    _____ _____  ____ __ ______    ______ _________
0000000                00000 00044 10176              SMFGLOG  RECORD BEGIN
 000000                            10184  1                      DS    XL(L'SMFHDR)        Standard header
                                   10185  1
 000038                            10186  1                      DS    XL4                 Reserved
                                   10187  1
 00003C                            10188  1           SMFLID     DS    CL8                 Smf log id  (record type)
 000044                            10189  1           SMFLTEXT   DS    0C
 000044                00044 00044 10190                       END
                                   10199
 000000                00000 00130 10200              SMFKWR   RECORD BEGIN
 000000                            10208  1                      DS    XL(L'SMFHDR)        Standard header
                                   10209  1
 000038                            10210  1                      DS    XL4                 Reserved
                                   10211  1
                                   10212  1                      COPY  SMFKWR
                                   10213  1          =*  Type &wsmfkwr KWR accounting record...
 00003C                            10214  1          =SMFKIFL    DS    X                   Copy of kwrifl
 00003D                            10215  1          =SMFKAFL    DS    X                   Copy of kwrafl
 00003E                            10216  1          =SMFRACCT   DS    CL5                 Referenced account
                                   10217  1          =*  WYLBUR only...
 000043                            10218  1          =SMFWFL     DS    X                   WYLBUR flags
                                   10219  1          =SMFWMAST   EQU   X'80'               - Set/show master
                                   10220  1          =SMFWKEY    EQU   X'40'               - Set keyword
                                   10221  1          =SMFWAUTH   EQU   X'20'               - Authority correct
                                   10222  1          =*  (If SMFWAUTH is off, the request was not honored because
                                   10223  1          =*  the command required privs the issuer did not have.)
                                   10224  1          =SMFWOUT    EQU   X'10'               - Set output
                                   10225  1          =SMFWJOB    EQU   X'08'               - Set job
                                   10226  1          =SMFWAUTO   EQU   X'08'                 Set auto
                                   10227  1          =SMFWNAME   EQU   X'08'                 Set name
                                   10228  1          =SMFWMAIL   EQU   X'04'                 Set mail
                                   10229  1          =SMFWSECL   EQU   X'02'               - Security violation at logon
                                   10230  1          =SMFWSEC    EQU   X'01'               - Security violation
                                   10231  1          =
 000044                            10232  1          =SMFWLEN    DS    X                   Command length
 000045                            10233  1          =SMFWCMD    DS    CL235               Command text
 000130                00130 00130 10234                       END
1ACCT     (ACCT2025) (12:39) (15MAR04) Common Control Blocks                                                                Page   13
0Current Usings:  (CP,R11) (CV,R12)
0Loc    Object Code    Addr1 Addr2  Stmt Lv Lineno    Source Statement           (Hibal 5, Asmedit 3.3)  HLASM R4.0  2004/03/15 12.39
+___    ______ ____    _____ _____  ____ __ ______    ______ _________
0000000                00000 00034 10244              COSTCB   RECORD BEGIN
 000000                            10252  1           COSTECLK   DS    D                   Connect time in STCK units
 000008                            10253  1           COSTCON$   DS    F                   (Returns cost in .1 cents)
                                   10254  1
 00000C                            10255  1           COSTTIO    DS    F                   Terminal I/O's
 000010                            10256  1           COSTTIO$   DS    F                   (Returns cost in .1 cents)
                                   10257  1
 000014                            10258  1           COSTWCPU   DS    F                   WYLBUR cpu in tu's (1/38400 sec)
 000018                            10259  1           COSTWCPU$   DS   F                   (Returns cost in .1 cents)
                                   10260  1
 00001C                            10261  1           COSTWIO    DS    F                   WYLBUR disk I/O's
 000020                            10262  1           COSTWIO$   DS    F                   (Returns cost in .1 cents)
                                   10263  1
 000024                            10264  1           COSTVCPU   DS    F                   ORVYL cpu in tu's (1/38400 sec)
 000028                            10265  1           COSTVCPU$   DS   F                   (Returns cost in .1 cents)
                                   10266  1
 00002C                            10267  1           COSTVIO    DS    F                   ORVYL disk I/O's
 000030                            10268  1           COSTVIO$   DS    F                   (Returns cost in .1 cents)
 000034                00034 00034 10269                       END
1ACCT     (ACCT2025) (12:39) (15MAR04) SHOW TIME Command                                                                    Page   14
0Current Usings:  (CP,R11) (CV,R12)
0Loc    Object Code    Addr1 Addr2  Stmt Lv Lineno    Source Statement           (Hibal 5, Asmedit 3.3)  HLASM R4.0  2004/03/15 12.39
+___    ______ ____    _____ _____  ____ __ ______    ______ _________
0                                  10279              ¿þþþþþþþþþþþþþþþþþþþþþþþþþþþþþþþþþþþþþþþþþþþþþþþþþþþþþþþþþþþþþþþþþþþþþÜ
                                   10280              Ÿ                                                                     Ÿ
                                   10281              Ÿ  SHOWTIME -- SHOW TIME command.                                     Ÿ
                                   10282              Ÿ                                                                     Ÿ
                                                      ¾þþþþþþþþþþþþþþþþþþþþþþþþþþþþþþþþþþþþþþþþþþþþþþþþþþþþþþþþþþþþþþþþþþþþþ»
0000000                00000 00001 10283              TMWA     RECORD BEGIN
 000000 00                         10291  1           TMFLAG     FLAG
 TMFLAG.TMFALL     80 ONES         10295  1                      FLAG  TMFALL              - ALL option
 000001                00001 00001 10300                       END
                                   10309              þþþþ
 000018 50E0 D000/9008_      00000 10310              SHOWTIME XPROC TMWA
 USING  *,R7
 USING  TMWA-(4+36),R8
 000032 4160 8028            00000 10361                       LA    R6,TMWA
 USING  TMWA,R6                    10362                       USING TMWA,R6
 000036 9200 6000      00000       10371                       CLEAR TMWA
                                   10378
 00003A 5810 B08C/1B00_      0008C 10379                       SCAN TIMEPRT
 00008C 58E0 7A8E/0DEE       00AC0 10411                       SCANCHK
                                   10416
 000092 9180 6000/47E0_00000       10417                       IF    TMFALL,'LCALL TIMEALL'
 00009E 7070/47F0 7074_0009E 00098 10439                       ELSE  'LCALL TIMESUM'
 0000A6 47F0 C7DE            007DE 10457                       B     CVNEXT
 0000AA 18D8/9808 D004_            10458                       PEND  ,
 DROP   TMWA-(4+36),R8
 DROP   *,R7
                                   10483                       ¿þþþþþþþþþþþþþþþþþþþþþþÜ
                                   10484                       Ÿ  SHOW TIME options.  Ÿ
                                   10485                       ¾þþþþþþþþþþþþþþþþþþþþþþ»
 0000B8 C1D3D34040404040_          10486              TIMEPRT  SCKW  ALL,TMALL
 0000E0 4040404040404040_          10501                       SCKW  ,V(COLLPSH),PUSH
 000108 4040404040404040_          10516                       SCKW  ,V(NOTVALID)
                                   10531
 000130 50E0 D000/9008_      00000 10532              TMALL    PROC  ,
 USING  *,R7
 00014A 9680 6000      00000       10571                       SET   TMFALL
 00014E 18D8/9808 D004_            10577                       PEND  ,
 DROP   *,R7
                                   10597
 DROP   TMWA,R6                    10598                       DROP  R6
1ACCT     (ACCT2025) (12:39) (15MAR04) SHOW TIME Command                                                                    Page   15
0Current Usings:  (CP,R11) (CV,R12)
0Loc    Object Code    Addr1 Addr2  Stmt Lv Lineno    Source Statement           (Hibal 5, Asmedit 3.3)  HLASM R4.0  2004/03/15 12.39
+___    ______ ____    _____ _____  ____ __ ______    ______ _________
0                                  10606              ¿þþþþþþþþþþþþþþþþþþþþþþþþþþþþþþþþþþþþþþþþþþþþþþþþþþþþþþþþþþþþþþþþþþþþþÜ
                                   10607              Ÿ                                                                     Ÿ
                                   10608              Ÿ  TIMESUM -- Routine to display current session CPU time             Ÿ
                                   10609              Ÿ    summary.                                                         Ÿ
                                   10610              Ÿ                                                                     Ÿ
                                                      ¾þþþþþþþþþþþþþþþþþþþþþþþþþþþþþþþþþþþþþþþþþþþþþþþþþþþþþþþþþþþþþþþþþþþþþ»
000015C 50E0 D000/9008_      00000 10611              TIMESUM  PROC
 USING  *,R7
                                   10650                       ¿þþþþþþþþþþþþþþÜ
                                   10651                       Ÿ  Get costs.  Ÿ
                                   10652                       ¾þþþþþþþþþþþþþþ»
 000176 186D/41D0 D034             10653                       XPUSH ,,L'COSTCB,PTR=R6
 USING  COSTCB,R6                  10656                       WITH  (COSTCB,R6)
 00017C 1816                       10669                       LR    R1,R6
 00017E 58E0 794E/0DEE       00AC4 10670                       ACALL GETCOST             Get costs
                                   10674                       ¿þþþþþþþþþþþþþþþþþþþþþþþþþþÜ
                                   10675                       Ÿ  Display ORVYL charges.  Ÿ
                                   10676                       ¾þþþþþþþþþþþþþþþþþþþþþþþþþþ»
 000184 4110 B8BC/4100_      008BC 10677                       SETMSG CPORVYL
 00018C D607 B8BC B8BC_008BC 008BC 10691                       IF    (CPORVYL,Z),'SETMSG "ORVYL"'
 00019E 41F0 B050/58E0_      00050 10716                       TSEG  (R1),(R0),T
 0001A8 4110 79D4/4100_      00B4A 10740                       TSEG  ': '
                                   10758
 0001BA 58F0 6024            00024 10759                       L     R15,COSTVCPU        CPU time in tu's
 0001BE 58E0 795A/0DEE       00AD0 10760                       ACALL CPUFIX              Convert to virtual cpu seconds
 0001C4 1BEE                       10764                       CLEAR R14
 0001C6 5DE0 795E            00AD4 10768                       D     R14,=F'384'         Convert to .01 sec
 0001CA 59E0 7962/4750_      00AD8 10769                       IF    (R14,GE,384/2),'INCR R15'  Round
 0001D6 4100 0002/4110_      00002 10794                       BTR   CPDOUB,(0,2),(R15)
 0001E4 41F0 B050/58E0_      00050 10816                       TSEG  (R1),(R0)
 0001EE 4110 79D6/4100_      00B4C 10840                       TSEG  ' CPU SECONDS, '
                                   10858
 000200 5810 602C/1B00_      0002C 10859                       TNUM  L:COSTVIO
 000210 4110 7A17/4100_      00B8D 10881                       TSEG  ' FILE I/O''S',,CR
                                   10899                       ¿þþþþþþþþþþþþþþþþþþþþþþþþþþþÜ
                                   10900                       Ÿ  Display WYLBUR charges.  Ÿ
                                   10901                       ¾þþþþþþþþþþþþþþþþþþþþþþþþþþþ»
 000222 4110 C028/4100_      00028 10902                       TSEG  CVWYLSSN,,T         WYLBUR
 000234 4110 79D4/4100_      00B4A 10930                       TSEG  ': '
                                   10948
 000246 58F0 6014            00014 10949                       L     R15,COSTWCPU        CPU time in tu's
 00024A 58E0 795A/0DEE       00AD0 10950                       ACALL CPUFIX              Convert to virtual cpu seconds
 000250 1BEE                       10954                       CLEAR R14
 000252 5DE0 795E            00AD4 10958                       D     R14,=F'384'         Convert to .01 sec
 000256 59E0 7962/4750_      00AD8 10959                       IF    (R14,GE,384/2),'INCR R15'  Round
 000262 4100 0002/4110_      00002 10984                       BTR   CPDOUB,(0,2),(R15)
 000270 41F0 B050/58E0_      00050 11006                       TSEG  (R1),(R0)
 00027A 4110 79D6/4100_      00B4C 11030                       TSEG  ' CPU SECONDS, '
                                   11048
 00028C 5810 601C/1B00_      0001C 11049                       TNUM  L:COSTWIO
 00029C 4110 7A22/4100_      00B98 11071                       TSEG  ' DISK I/O''S'
 0002AE 1B00/41F0 B050_            11089                       TCR
1ACCT     (ACCT2025) (12:39) (15MAR04) SHOW TIME Command                                                                    Page   16
0Current Usings:  (COSTCB,R6) (*,R7) (CP,R11) (CV,R12)
0Loc    Object Code    Addr1 Addr2  Stmt Lv Lineno    Source Statement           (Hibal 5, Asmedit 3.3)  HLASM R4.0  2004/03/15 12.39
+___    ______ ____    _____ _____  ____ __ ______    ______ _________
0                                  11114                       ¿þþþþþþþþþþþþþþþþþþþþþþþþþþþÜ
                                   11115                       Ÿ  Display MILTEN charges.  Ÿ
                                   11116                       ¾þþþþþþþþþþþþþþþþþþþþþþþþþþþ»
 0002BA 4110 7A2D/4100_      00BA3 11117                       TSEG  'ELAPSED TIME = '
 0002CC 9801 6000            00000 11135                       LM    R0,R1,COSTECLK      Elapsed time
 0002D0 18FD/41D0 D020             11136                       XPUSH ,,32,PTR=R15
 0002D6 58E0 7976/0DEE       00AEC 11139                       VCALL FMTTIME             Format "hh:mm:ss.hh"
 0002DC 4100 0008/41F0_      00008 11143                       TSEG  (R1),8              Hh:mm:ss
 0002EA 4BD0 79E4            00B5A 11170                       XPOP  ,,32
                                   11172
 0002EE 4110 7A3C/4100_      00BB2 11173                       TSEG  '  TERMINAL I/O''S = '
 000300 5810 600C/1B00_      0000C 11191                       TNUM  L:COSTTIO
                                   11213
 000310 18D8/9808 D004_            11214                       PEND
 DROP   COSTCB,R6
 DROP   *,R7
1ACCT     (ACCT2025) (12:39) (15MAR04) SHOW TIME Command                                                                    Page   17
0Current Usings:  (CP,R11) (CV,R12)
0Loc    Object Code    Addr1 Addr2  Stmt Lv Lineno    Source Statement           (Hibal 5, Asmedit 3.3)  HLASM R4.0  2004/03/15 12.39
+___    ______ ____    _____ _____  ____ __ ______    ______ _________
0                                  11240              ¿þþþþþþþþþþþþþþþþþþþþþþþþþþþþþþþþþþþþþþþþþþþþþþþþþþþþþþþþþþþþþþþþþþþþþÜ
                                   11241              Ÿ                                                                     Ÿ
                                   11242              Ÿ  TIMEALL -- Routine to display current session CPU time             Ÿ
                                   11243              Ÿ    information in detail.                                           Ÿ
                                   11244              Ÿ                                                                     Ÿ
                                                      ¾þþþþþþþþþþþþþþþþþþþþþþþþþþþþþþþþþþþþþþþþþþþþþþþþþþþþþþþþþþþþþþþþþþþþþ»
000031E 50E0 D000/9008_      00000 11245              TIMEALL  PROC
 USING  *,R7
 000338 5850 C1C8            001C8 11284                       L     R5,CVCURJCB
 USING  JCB,R5                     11285                       WITH  (JCB,R5)
                                   11298                       ¿þþþþþþþþþþþþþþþþþþþþþþþþþþþþþþþþþþþþþþþþþþþþþþþþþþþþÜ
                                   11299                       Ÿ  Update the current component charge information.  Ÿ
                                   11300                       ¾þþþþþþþþþþþþþþþþþþþþþþþþþþþþþþþþþþþþþþþþþþþþþþþþþþþþ»
 00033C 41F0 5000            00000 11301                       LA    R15,JCB
 000340 58E0 77B8/0DEE       00AF0 11302                       ACALL BILLUPD             Update current component info
                                   11306
 000346 41F0 5000            00000 11307                       LA    R15,JCB
 00034A 58E0 77BC/0DEE       00AF4 11308                       ACALL BILLUPD$            Update dollar costs too
                                   11312                       ¿þþþþþþþþþþþþþþþþþþþþþþþþþþþþþþþþþþÜ
                                   11313                       Ÿ  Display the component charges.  Ÿ
                                   11314                       ¾þþþþþþþþþþþþþþþþþþþþþþþþþþþþþþþþþþ»
 000350 4110 788D/4100_      00BC5 11315                       TSEG  'Session time for '
 000362 5820 5038            00038 11333                       L     R2,JCBSINP
 USING  SIN,R2                     11334                       WITH  (SIN,R2),BEGIN
 000366 4110 2052/4100_      00052 11348  1                      TSEG  SINSTAG,,T
 DROP   SIN,R2                     11376                       END
 000378 4110 7824/4100_      00B5C 11384                       TSEG  ' ('
                                   11402
 00038A 58E0 77C0/0DEE       00AF8 11403                       VCALL LOCALTOD
 000390 18FD/41D0 D040             11407                       XPUSH ,,64,PTR=R15
 000396 58E0 77C4/0DEE       00AFC 11410                       VCALL FMTXDATE            (SHOW XDATE style)
 00039C 41F0 B050/58E0_      00050 11414                       TSEG  (R1),(R0)
 0003A6 4BD0 7826            00B5E 11438                       XPOP  ,,64
                                   11440
 0003AA 4110 7828/4100_      00B60 11441                       TSEG  '):',,CR
 0003BC 1B00/41F0 B050_            11459                       TCR
                                   11484
 0003C8 4140 5070            00070 11485                       LA    R4,JCBUCEQH-(UCELINK-UCE)  Dummy first link
 0003CC 4110 789E/4100_      00BD6 11486                       TSEG  'Components                Elapsed  '
 0003DE 4110 77C8/4100_      00B00 11504                       TSEG  'Term I/O  Wyl CPU  Wyl I/O  Orv CPU  Orv I/O',,CR
                                   11522
 USING  UCE,R4                     11523                       WITH  (UCE,R4)
 0003F0 5840 4004/1244_      00004 11536                       WHILE ('LT R4,UCELINK',NZ),BEGIN
 0003FA 4110 C4D8/4100_      004D8 11554  1                      SETMSG CVBLANKS,1
 000402 5940 5070/4770_      00070 11570  1                      IF    (R4,EQ,JCBUCEP),'SETMSG ">"'
 000412 41F0 B050/58E0_      00050 11596  1                      TSEG  (R1),(R0)
 00041C 4110 400C/4100_      0000C 11620  1                      TSEG  UCECOMP,,T
 00042E 4110 78C2/4100_      00BFA 11648  1                      TSEG  '.'
 000440 4110 401C/4100_      0001C 11666  1                      TSEG  UCEBLK,,T
 000452 D607 4024 4024_00024 00024 11694  1                      IF    (UCEPROJ,NZ),'TSEG "."; TSEG UCEPROJ,,T'
 000480 4100 001B/41F0_      0001B 11761  1                      TCOL  27
                                   11782  1
 00048E 18FD/41D0 D020             11783  1                      XPUSH ,,32,PTR=R15
1ACCT     (ACCT2025) (12:39) (15MAR04) SHOW TIME Command                                                                    Page   18
0Current Usings:  (UCE,R4) (JCB,R5) (*,R7) (CP,R11) (CV,R12)
0Loc    Object Code    Addr1 Addr2  Stmt Lv Lineno    Source Statement           (Hibal 5, Asmedit 3.3)  HLASM R4.0  2004/03/15 12.39
+___    ______ ____    _____ _____  ____ __ ______    ______ _________
0000494 9801 4030            00030 11786  1                      LM    R0,R1,UCEECLK       Elapsed time
 000498 58E0 77B4/0DEE       00AEC 11787  1                      VCALL FMTTIME             Format "hh:mm:ss.hh"
 00049E 4100 0008/41F0_      00008 11791  1                      TSEG  (R1),8              Write "hh:mm:ss" only
 0004AC 4BD0 7822            00B5A 11818  1                      XPOP  ,,32
                                   11820  1
 0004B0 5810 403C/4100_      0003C 11821  1                      TNUM  L:UCETIO,9          Terminal I/Os
                                   11846  1
 0004C2 58F0 4044            00044 11847  1                      L     R15,UCEWCPU
 0004C6 58E0 7798/0DEE       00AD0 11848  1                      ACALL CPUFIX              Convert to virtual cpu seconds
 0004CC 1BEE                       11852  1                      CLEAR R14
 0004CE 5CE0 77F8            00B30 11856  1                      M     R14,=F'10'
 0004D2 5DE0 779C            00AD4 11857  1                      D     R14,=F'384'         Convert to .001 sec
 0004D6 59E0 77A0/4750_      00AD8 11858  1                      IF    (R14,GE,384/2),'INCR R15'  Round
 0004E2 4100 0903/4110_      00903 11883  1                      BTR   CPDOUB,(9,3),(R15)
 0004F0 41F0 B050/58E0_      00050 11905  1                      TSEG  (R1),(R0)           Wylbur CPU
                                   11929  1
 0004FA 5810 404C/4100_      0004C 11930  1                      TNUM  L:UCEWIO,9          Wylbur I/Os
                                   11955  1
 00050C 58F0 4054            00054 11956  1                      L     R15,UCEVCPU
 000510 58E0 7798/0DEE       00AD0 11957  1                      ACALL CPUFIX              Convert to virtual cpu seconds
 000516 1BEE                       11961  1                      CLEAR R14
 000518 5CE0 77F8            00B30 11965  1                      M     R14,=F'10'
 00051C 5DE0 779C            00AD4 11966  1                      D     R14,=F'384'         Convert to .001 sec
 000520 59E0 77A0/4750_      00AD8 11967  1                      IF    (R14,GE,384/2),'INCR R15'  Round
 00052C 4100 0903/4110_      00903 11992  1                      BTR   CPDOUB,(9,3),(R15)
 00053A 41F0 B050/58E0_      00050 12014  1                      TSEG  (R1),(R0)           Orvyl CPU
                                   12038  1
 000544 5810 405C/4100_      0005C 12039  1                      TNUM  L:UCEVIO,9          Orvyl I/Os
                                   12064  1
 000556 1B00/41F0 B050_            12065  1                      TCR
 000562 47F0 70B8            003F0 12090                       END
                                   12095
 000566 18D8/9808 D004_            12096                       PEND
 DROP   UCE,R4
 DROP   JCB,R5
 DROP   *,R7
1ACCT     (ACCT2025) (12:39) (15MAR04) Accounting Routines                                                                  Page   19
0Current Usings:  (CP,R11) (CV,R12)
0Loc    Object Code    Addr1 Addr2  Stmt Lv Lineno    Source Statement           (Hibal 5, Asmedit 3.3)  HLASM R4.0  2004/03/15 12.39
+___    ______ ____    _____ _____  ____ __ ______    ______ _________
0                                  12127              ¿þþþþþþþþþþþþþþþþþþþþþþþþþþþþþþþþþþþþþþþþþþþþþþþþþþþþþþþþþþþþþþþþþþþþþÜ
                                   12128              Ÿ                                                                     Ÿ
                                   12129              Ÿ  SHOWSCOS -- SHOW SCOST Command.                                    Ÿ
                                   12130              Ÿ                                                                     Ÿ
                                                      ¾þþþþþþþþþþþþþþþþþþþþþþþþþþþþþþþþþþþþþþþþþþþþþþþþþþþþþþþþþþþþþþþþþþþþþ»
0000000                00000 00008 12131              SCOSTWA  RECORD BEGIN
 000000 00                         12139  1           SCOSTFLG   FLAG
 SCOSTFLG.SCOSTFSY 80 ONES         12143  1                      FLAG  SCOSTFSYS           - Display "SYS_" stuff
                                   12148  1
 000004                            12149  1           SCOSTLIN   DS    F                   Line number to display
 000008                00008 00008 12150                       END
                                   12159              þþþþ
 000574 50E0 D000/9008_      00000 12160              SHOWSCOS XPROC SCOSTWA
 USING  *,R7
 USING  SCOSTWA-(4+36),R8
 00058E 4160 8028            00000 12211                       LA    R6,SCOSTWA
 USING  SCOSTWA,R6                 12212                       USING SCOSTWA,R6
 000592 D707 6000 6000 00000 00000 12221                       CLEAR SCOSTWA
                                   12228
 000598 5810 B08C/1B00_      0008C 12229                       SCAN  SCOSTPRT
 0005EA 58E0 7532/0DEE       00AC0 12261                       SCANCHK
                                   12266
 0005F0 5850 C1C8            001C8 12267                       L     R5,CVCURJCB
 0005F4 58F0 6004/12FF_      00004 12268                       IF    ('LT R15,SCOSTLIN',NZ),BEGIN  Another line...
 0005FE 185F                       12284  1                      LR    R5,R15
 000600 4C50 75D4            00B62 12285  1                      MH    R5,=AL2(L'JCB)
 000604 5E50 C1C0            001C0 12286  1                      AL    R5,CVFJCB           Other user's JCB ptr
 000608 5550 C1C4/4750_      001C4 12287  1                      IF    (R5,LGE,CVLJCB),BEGIN
 000610 4110 766D/4100_      00BFB 12304  2                        TSEG  'Line '
 000622 5810 6004/1B00_      00004 12322  2                        TNUM  L:SCOSTLIN
 000632 4110 75D6/4100_      00B64 12344  2                        ERROR ' is out of bounds.'
 00063E                            12351  1                      END
 00063E                            12355                       END
                                   12359
 USING  JCB,R5                     12360                       WITH  (JCB,R5),BEGIN
 00063E 9180 5060/47E0_00060       12374  1                      IF    JCBWFSO,BEGIN       Not logged on...
 000646 4110 766D/4100_      00BFB 12389  2                        TSEG  'Line '
 000658 4810 5048/1B00_      00048 12407  2                        TNUM  LH:JCBSEQ
 000668 4110 75E8/4100_      00B76 12428  2                        ERROR ' is not logged on.'
 000674                            12435  1                      END
                                   12439  1
 000674 1B00                       12440  1                      CLEAR R0
 000676 9180 6000/47E0_00000       12444  1                      IF    SCOSTFSYS,'LA R0,1'
 000682 41F0 5000            00000 12465  1                      LA    R15,JCB
 000686 4DE0 727E            0080C 12466  1                      LCALL DISPSC              Display sessions costs
 DROP   JCB,R5                     12468                       END
                                   12476
 00068A 47F0 C7DE            007DE 12477                       B     CVNEXT
 00068E 18D8/9808 D004_            12478                       PEND  ,
 DROP   SCOSTWA-(4+36),R8
 DROP   *,R7
1ACCT     (ACCT2025) (12:39) (15MAR04) Accounting Routines                                                                  Page   20
0Current Usings:  (SCOSTWA,R6) (CP,R11) (CV,R12)
0Loc    Object Code    Addr1 Addr2  Stmt Lv Lineno    Source Statement           (Hibal 5, Asmedit 3.3)  HLASM R4.0  2004/03/15 12.39
+___    ______ ____    _____ _____  ____ __ ______    ______ _________
0                                  12503                       ¿þþþþþþþþþþþþþþþþþþþþþþþÜ
                                   12504                       Ÿ  SHOW SCOST options.  Ÿ
                                   12505                       ¾þþþþþþþþþþþþþþþþþþþþþþþ»
 00069C 4040404040404040_          12506              SCOSTPRT SCKW  ,SSCLIN,I
 0006C4 E2E8E2E3C5D44040_          12521                       SCKW  SYSTEM,SSCSYS,A
 0006EC 4040404040404040_          12536                       SCKW  ,V(COLLPSH),PUSH
 000714 4040404040404040_          12551                       SCKW  ,V(NOTVALID)
                                   12566
 00073C 50E0 D000/9008_      00000 12567              SSCLIN   PROC  ,
 USING  *,R7
 000756 9120 B3BE/4710_003BE       12606                       IF    ~CPSFSPR,'VCALL NOTVALID'   Priv'd option
 000764 5000 6004            00004 12630                       ST    R0,SCOSTLIN
 000768 18D8/9808 D004_            12631                       PEND  ,
 DROP   *,R7
                                   12651
 000776 50E0 D000/9008_      00000 12652              SSCSYS   PROC  ,
 USING  *,R7
 000790 9680 6000      00000       12691                       SET   SCOSTFSYS
 000794 18D8/9808 D004_            12697                       PEND  ,
 DROP   *,R7
                                   12717
 DROP   SCOSTWA,R6                 12718                       DROP  R6
1ACCT     (ACCT2025) (12:39) (15MAR04) Accounting Routines                                                                  Page   21
0Current Usings:  (CP,R11) (CV,R12)
0Loc    Object Code    Addr1 Addr2  Stmt Lv Lineno    Source Statement           (Hibal 5, Asmedit 3.3)  HLASM R4.0  2004/03/15 12.39
+___    ______ ____    _____ _____  ____ __ ______    ______ _________
0                                  12726              ¿þþþþþþþþþþþþþþþþþþþþþþþþþþþþþþþþþþþþþþþþþþþþþþþþþþþþþþþþþþþþþþþþþþþþþÜ
                                   12727              Ÿ                                                                     Ÿ
                                   12728              Ÿ  SHOWSCS -- SHOW SCOSTS Command.                                    Ÿ
                                   12729              Ÿ                                                                     Ÿ
                                                      ¾þþþþþþþþþþþþþþþþþþþþþþþþþþþþþþþþþþþþþþþþþþþþþþþþþþþþþþþþþþþþþþþþþþþþþ»
00007A2 50E0 D000/9008_      00000 12730              SHOWSCS  XPROC ,
 USING  *,R7
 0007BC 58E0 7380/0DEE       00B3C 12770                       VCALL COLLOPTS
                                   12774
 0007C2 5850 C1C0            001C0 12775                       L     R5,CVFJCB
 0007C6                            12776                       LOOP  BEGIN
 USING  JCB,R5                     12782  1                      WITH  (JCB,R5)
 0007C6 D604 504A 504A_0004A 0004A 12795  1                      IF    (JCBACCT,NZ),BEGIN  Logged on...
 0007D0 1B00                       12811  2                        CLEAR R0                  Normal options
 0007D2 18F5                       12815  2                        LR    R15,R5
 0007D4 58E0 7384/0DEE       00B40 12816  2                        ACALL DISPSC              Display costs
 0007DA 1B00/41F0 B050_            12820  2                        TCR
 0007E6 4770 C7DA            007DA 12845  2                        BNZ   CVABORT
 0007EA                            12846  1                      END
 0007EA 4150 50D0            000D0 12850  1                      LA    R5,JCBNEXT
 0007EE 5950 C1C4/47A0_      001C4 12851  1                      UNTIL (R5,GE,CVLJCB)
 0007F6 47F0 700A            007C6 12872                       END
 DROP   JCB,R5
 0007FA 47F0 C7DE            007DE 12882                       B     CVNEXT
                                   12883
 0007FE 18D8/9808 D004_            12884                       PEND  ,
 DROP   *,R7
1ACCT     (ACCT2025) (12:39) (15MAR04) Accounting Routines                                                                  Page   22
0Current Usings:  (CP,R11) (CV,R12)
0Loc    Object Code    Addr1 Addr2  Stmt Lv Lineno    Source Statement           (Hibal 5, Asmedit 3.3)  HLASM R4.0  2004/03/15 12.39
+___    ______ ____    _____ _____  ____ __ ______    ______ _________
0                                  12905              ¿þþþþþþþþþþþþþþþþþþþþþþþþþþþþþþþþþþþþþþþþþþþþþþþþþþþþþþþþþþþþþþþþþþþþþÜ
                                   12906              Ÿ                                                                     Ÿ
                                   12907              Ÿ  DISPSC -- Local routine to display sessions component costs for    Ÿ
                                   12908              Ÿ    the user specified.                                              Ÿ
                                   12909              Ÿ                                                                     Ÿ
                                   12910              Ÿ    R0  - option:  0=normal, 1=include SYS_ components               Ÿ
                                   12911              Ÿ    R15 - JCB ptr for user whose costs are to be displayed           Ÿ
                                   12912              Ÿ                                                                     Ÿ
                                                      ¾þþþþþþþþþþþþþþþþþþþþþþþþþþþþþþþþþþþþþþþþþþþþþþþþþþþþþþþþþþþþþþþþþþþþþ»
0000000                00000 00001 12913              DSCWA    RECORD BEGIN
 000000 00                         12921  1           DSCFLAG    FLAG
 DSCFLAG.DSCFSYS   80 ONES         12925  1                      FLAG  DSCFSYS             - Include SYS_ components
 000001                00001 00001 12930                       END
                                   12939              þþþþ
 00080C 50E0 D000/9008_      00000 12940              DISPSC   PROC  DSCWA
 USING  *,R7
 USING  DSCWA-(4+36),R8
 000826 9200 8028      00000       12990                       CLEAR DSCWA
 00082A 1200/4780 700E_            12997                       IF    (R0,NZ),'SET DSCFSYS'
                                   13022
 000834 185F                       13023                       LR    R5,R15
 USING  JCB,R5                     13024                       WITH  (JCB,R5)
                                   13037                       ¿þþþþþþþþþþþþþþþþþþþþþþþþþþþþþþþþþþþþþþþþþþþþþþþþþþþþÜ
                                   13038                       Ÿ  Update the current component charge information.  Ÿ
                                   13039                       ¾þþþþþþþþþþþþþþþþþþþþþþþþþþþþþþþþþþþþþþþþþþþþþþþþþþþþ»
 000836 41F0 5000            00000 13040                       LA    R15,JCB
 00083A 58E0 72CA/0DEE       00AF0 13041                       ACALL BILLUPD             Update current component info
                                   13045
 000840 41F0 5000            00000 13046                       LA    R15,JCB
 000844 58E0 72CE/0DEE       00AF4 13047                       ACALL BILLUPD$            Update dollar costs too
                                   13051                       ¿þþþþþþþþþþþþþþþþþþþþþþþþþþþþþþþþþþÜ
                                   13052                       Ÿ  Display the component charges.  Ÿ
                                   13053                       ¾þþþþþþþþþþþþþþþþþþþþþþþþþþþþþþþþþþ»
 00084A 4110 73D5/4100_      00BFB 13054                       TSEG  'Line '
 00085C 4810 5048/1B00_      00048 13072                       TNUM  LH:JCBSEQ
 00086C 4110 73DA/4100_      00C00 13093                       TSEG  ' '
 00087E 4110 504D/4100_      0004D 13111                       TSEG  JCBGRP
 000890 4110 73D4/4100_      00BFA 13139                       TSEG  '.'
 0008A2 4110 504A/4100_      0004A 13157                       TSEG  JCBUSER
 0008B4 4110 73DB/4100_      00C01 13185                       TSEG  ' (session tag is '
 0008C6 5820 5038            00038 13203                       L     R2,JCBSINP
 USING  SIN,R2                     13204                       WITH  (SIN,R2),BEGIN
 0008CA 4110 2052/4100_      00052 13218  1                      TSEG  SINSTAG,,T
 DROP   SIN,R2                     13246                       END
 0008DC 4110 733A/4100_      00B60 13254                       TSEG  '):',,CR
                                   13272
 0008EE 4140 5070            00070 13273                       LA    R4,JCBUCEQH-(UCELINK-UCE)  Dummy first link
 0008F2 4110 73EC/4100_      00C12 13274                       TSEG  'Timeblock Component       Elapsed  '
 000904 4110 72DA/4100_      00B00 13292                       TSEG  'Term I/O  Wyl CPU  Wyl I/O  Orv CPU  Orv I/O',,CR
                                   13310
 USING  UCE,R4                     13311                       WITH  (UCE,R4)
 000916 5840 4004/1244_      00004 13324                       WHILE ('LT R4,UCELINK',NZ),BEGIN
                                   13342  1         C            IF    ((UCECOMP,NE,'SYS_'),OR,DSCFSYS,
1ACCT     (ACCT2025) (12:39) (15MAR04) Accounting Routines                                                                  Page   23
0Current Usings:  (UCE,R4) (JCB,R5) (*,R7) (DSCWA-(4+36),R8) (CP,R11) (CV,R12)
0Loc    Object Code    Addr1 Addr2  Stmt Lv Lineno    Source Statement           (Hibal 5, Asmedit 3.3)  HLASM R4.0  2004/03/15 12.39
+___    ______ ____    _____ _____  ____ __ ______    ______ _________
0000920 D503 731E 400C_00B44 0000C        1                            OR,(R4,EQ,JCBUCEP)),BEGIN
 00093A 4110 C4D8/4100_      004D8 13387  2                        SETMSG CVBLANKS,1
 000942 5940 5070/4770_      00070 13403  2                        IF    (R4,EQ,JCBUCEP),'SETMSG ">"'
 000952 41F0 B050/58E0_      00050 13429  2                        TSEG  (R1),(R0)
 00095C 4110 401C/4100_      0001C 13453  2                        TSEG  UCEBLK
 00096E 4110 73DA/4100_      00C00 13481  2                        TSEG  ' '
 000980 4110 400C/4100_      0000C 13499  2                        TSEG  UCECOMP,,T
 000992 D607 4024 4024_00024 00024 13527  2                        IF    (UCEPROJ,NZ),'TSEG "."; TSEG UCEPROJ,,T'
 0009C0 4100 001B/41F0_      0001B 13594  2                        TCOL  27
                                   13615  2
 0009CE 18FD/41D0 D020             13616  2                        XPUSH ,,32,PTR=R15
 0009D4 9801 4030            00030 13619  2                        LM    R0,R1,UCEECLK       Elapsed time
 0009D8 58E0 72C6/0DEE       00AEC 13620  2                        VCALL FMTTIME             Format "hh:mm:ss.hh"
 0009DE 4100 0008/41F0_      00008 13624  2                        TSEG  (R1),8              Write "hh:mm:ss" only
 0009EC 4BD0 7334            00B5A 13651  2                        XPOP  ,,32
                                   13653  2
 0009F0 5810 403C/4100_      0003C 13654  2                        TNUM  L:UCETIO,9          Terminal I/Os
                                   13679  2
 000A02 58F0 4044            00044 13680  2                        L     R15,UCEWCPU
 000A06 58E0 72AA/0DEE       00AD0 13681  2                        ACALL CPUFIX              Convert to virtual cpu seconds
 000A0C 1BEE                       13685  2                        CLEAR R14
 000A0E 5CE0 730A            00B30 13689  2                        M     R14,=F'10'
 000A12 5DE0 72AE            00AD4 13690  2                        D     R14,=F'384'         Convert to .001 sec
 000A16 59E0 72B2/4750_      00AD8 13691  2                        IF    (R14,GE,384/2),'INCR R15'  Round
 000A22 4100 0903/4110_      00903 13716  2                        BTR   CPDOUB,(9,3),(R15)
 000A30 41F0 B050/58E0_      00050 13738  2                        TSEG  (R1),(R0)           Wylbur CPU
                                   13762  2
 000A3A 5810 404C/4100_      0004C 13763  2                        TNUM  L:UCEWIO,9          Wylbur I/Os
                                   13788  2
 000A4C 58F0 4054            00054 13789  2                        L     R15,UCEVCPU
 000A50 58E0 72AA/0DEE       00AD0 13790  2                        ACALL CPUFIX              Convert to virtual cpu seconds
 000A56 1BEE                       13794  2                        CLEAR R14
 000A58 5CE0 730A            00B30 13798  2                        M     R14,=F'10'
 000A5C 5DE0 72AE            00AD4 13799  2                        D     R14,=F'384'         Convert to .001 sec
 000A60 59E0 72B2/4750_      00AD8 13800  2                        IF    (R14,GE,384/2),'INCR R15'  Round
 000A6C 4100 0903/4110_      00903 13825  2                        BTR   CPDOUB,(9,3),(R15)
 000A7A 41F0 B050/58E0_      00050 13847  2                        TSEG  (R1),(R0)           Orvyl CPU
                                   13871  2
 000A84 5810 405C/4100_      0005C 13872  2                        TNUM  L:UCEVIO,9          Orvyl I/Os
                                   13897  2
 000A96 1B00/41F0 B050_            13898  2                        TCR
 000AA2                            13923  1                      END
 000AA2 47F0 70F0            00916 13927                       END
                                   13932
 000AA6 18D8/9808 D004_            13933                       PEND
 DROP   UCE,R4
 DROP   JCB,R5
 DROP   DSCWA-(4+36),R8
 DROP   *,R7
                                   13968
                                   13969                       QLTORG
1ACCT     (ACCT2025) (12:39) (15MAR04) Accounting Routines                                                                  Page   24
0Current Usings:  (CP,R11) (CV,R12)
0Loc    Object Code    Addr1 Addr2  Stmt Lv Lineno    Source Statement           (Hibal 5, Asmedit 3.3)  HLASM R4.0  2004/03/15 12.39
+___    ______ ____    _____ _____  ____ __ ______    ______ _________
0                                  14031              ¿þþþþþþþþþþþþþþþþþþþþþþþþþþþþþþþþþþþþþþþþþþþþþþþþþþþþþþþþþþþþþþþþþþþþþÜ
                                   14032              Ÿ                                                                     Ÿ
                                   14033              Ÿ  SHOW WCOUNT name|ALL [LINE nnn]                                    Ÿ
                                   14034              Ÿ                                                                     Ÿ
                                                      ¾þþþþþþþþþþþþþþþþþþþþþþþþþþþþþþþþþþþþþþþþþþþþþþþþþþþþþþþþþþþþþþþþþþþþþ»
0000000                00000 00014 14035              SWCWA    RECORD BEGIN
 000000                            14043  1           SWCJCB     DS    F                   JCB POINTER
 000004                            14044  1           SWCNAME    DS    XL(L'CTRCNAME)      NAME OF POINTER
 000014                00014 00014 14045                       END
                                   14054              þþþþ
 000C36 50E0 D000/9008_      00000 14055              SHOWWCTR XPROC SWCWA
 USING  *,R7
 USING  SWCWA-(4+36),R8
 000C50 4160 8028            00000 14106                       LA    R6,SWCWA
 USING  SWCWA,R6                   14107                       USING SWCWA,R6
 USING  SMFCTRC,R2                 14116                       USING SMFCTRC,R2
 USING  CTAREA,R4                  14125                       USING CTAREA,R4
 USING  JCB,R5                     14134                       USING JCB,R5
                                   14143
 000C54 D713 6000 6000 00000 00000 14144                       CLEAR SWCWA
 000C5A D203 6000 C1C8 00000 001C8 14151                       MVC   SWCJCB,CVCURJCB
                                   14152
                                   14153                       COMMENT                   SCAN, SAVE COUNTER NAME
 000C60 5810 B08C/1B00_      0008C 14154                       SCAN
 000CAE 58E0 79C4/0DEE       01614 14185                       SCANCHK
 000CB4 1200/4770 7076             14190                       IF    (R0,Z),BEGIN
 000CBA 4110 7A4A/4100_      0169A 14204  1                      ERROR 'Missing counter name.'
 000CC6                            14211                       END
 000CC6 4120 6004            00004 14215                       LA    R2,SWCNAME
 000CCA 4130 0010            00010 14216                       LA    R3,L'CTRCNAME
 000CCE 1841                       14217                       LR    R4,R1
 000CD0 1850                       14218                       LR    R5,R0
 000CD2 5650 79C8            01618 14219                       O     R5,=X'40000000'
 000CD6 0E24                       14220                       MVCL  R2,R4
 000CD8 D504 7A5F 6004_016AF 00004 14221                       IF    (SWCNAME,EQ,'LINE '),BEGIN
 000CE2 4110 7A64/4100_      016B4 14238  1                      ERROR 'LINE: invalid counter name.'
 000CEE                            14245                       END
                                   14249
                                   14250                       COMMENT                   SCAN REST OF COMMAND
 000CEE 5810 B08C/1B00_      0008C 14251                       SCAN  SWCPRT
 000D40 58E0 79C4/0DEE       01614 14283                       SCANCHK
                                   14288
                                   14289                       COMMENT                   LINE <NNN>, PRIVLVGD OPTION
 000D46 5850 6000            00000 14290                       L     R5,SWCJCB
 000D4A D503 6000 C1C8_00000 001C8 14291                       IF    (SWCJCB,NE,CVCURJCB),BEGIN
 000D54 9120 B3BE/4710_003BE       14309  1                      IF    ~CPSFSPR,BEGIN
 000D5C 4110 7A7F/4100_      016CF 14324  2                        ERROR 'LINE: invalid option.'
 000D68                            14331  1                      END
 000D68 9180 5060/47E0_00060       14335  1                      IF    JCBWFSO,BEGIN
 000D70 4110 7A94/4100_      016E4 14350  2                        TSEG  'Line '
 000D82 4810 5048/1B00_      00048 14368  2                        TNUM  LH:JCBSEQ
 000D92 4110 7A16/4100_      01666 14389  2                        ERROR ' is not logged on.'
 000D9E                            14396  1                      END
1ACCT     (ACCT2025) (12:39) (15MAR04) Accounting Routines                                                                  Page   25
0Current Usings:  (SMFCTRC,R2) (CTAREA,R4) (JCB,R5) (SWCWA,R6) (*,R7) (SWCWA-(4+36),R8) (CP,R11) (CV,R12)
0Loc    Object Code    Addr1 Addr2  Stmt Lv Lineno    Source Statement           (Hibal 5, Asmedit 3.3)  HLASM R4.0  2004/03/15 12.39
+___    ______ ____    _____ _____  ____ __ ______    ______ _________
0000D9E                            14400                       END
                                   14404                       ¿þþþþþþþþþþþþþþþþþþþþþþþþþþþþþþþþþþþþþþÜ
                                   14405                       Ÿ  Display all counters if requested.  Ÿ
                                   14406                       ¾þþþþþþþþþþþþþþþþþþþþþþþþþþþþþþþþþþþþþþ»
 000D9E D503 79D8 6004_01628 00004 14407                       IF    (SWCNAME,EQ,'ALL '),BEGIN
 000DA8 4110 7A28/4100_      01678 14424  1                      TSEG  'Counter             Value   Value$',,CR
 000DBA 5850 6000            00000 14442  1                      L     R5,SWCJCB
 000DBE 5840 50A8            000A8 14443  1                      L     R4,JCBCTP
 000DC2 1244/4770 717C             14444  1                      IF    (R4,Z),BEGIN        SKIP IF NO COUNTERS
 000DC8 47F0 C7DE            007DE 14458  2                        B     CVNEXT
 000DCC                            14459  1                      END
 000DCC 4120 4008            00008 14463  1                      LA    R2,CTARECS          R2,R3 - START, END OF COUNTERS
 000DD0 5830 4004            00004 14464  1                      L     R3,CTARECSL
 000DD4 1A32                       14465  1                      AR    R3,R2
 000DD6 1923/47B0 7204             14466  1                      WHILE (R2,LT,R3),BEGIN    LOOP THRU ALL COUNTERS
 000DDC 4110 2000/4100_      00000 14483  2                        TSEG  CTRCNAME
 000DEE 4110 7A99/4100_      016E9 14511  2                        TSEG  ' '
 000E00 5810 2010            00010 14529  2                        L     R1,CTRCVAL
 000E04 4100 0008/41F0_      00008 14530  2                        TNUM  (R1),8
 000E12 5810 2014            00014 14554  2                        L     R1,CTRCVAL$
 000E16 1211/4780 71F0             14555  2                        IF    (R1,NZ),BEGIN
 000E1C 4110 7A99/4100_      016E9 14569  3                          TSEG  ' '
 000E2E 5810 2014            00014 14587  3                          L     R1,CTRCVAL$
 000E32 4100 0008/41F0_      00008 14588  3                          TNUM  (R1),8
 000E40                            14612  2                        END
 000E40 1B00/41F0 B050_            14616  2                        TCR
 000E4C 4122 0020            00020 14641  2                        LA    R2,L'SMFCTRC(R2)
 000E50 47F0 7186            00DD6 14642  1                      END
 000E54                            14647                       END
                                   14651                       ¿þþþþþþþþþþþþþþþþþþþþþþþþþþþþþþþÜ
                                   14652                       Ÿ  Display a specific counter.  Ÿ
                                   14653                       ¾þþþþþþþþþþþþþþþþþþþþþþþþþþþþþþþ»
 000E54 7208/47F0 72C2 00E54 00DA6 14654                       ELSE  BEGIN               WRITE SPECIFIC COUNTER...
 000E58 5850 6000            00000 14665  1                      L     R5,SWCJCB
 000E5C 4120 6004            00004 14666  1                      LA    R2,SWCNAME
 000E60 58E0 79E0/0DEE       01630 14667  1                      ACALL WCTRFIND
 000E66 12FF/4780 724C             14671  1                      IF    (R15,NZ),BEGIN
 000E6C 4110 7988/4100_      015D8 14685  2                        TSEG  'Counter '
 000E7E 4110 6004/4100_      00004 14703  2                        TSEG  SWCNAME,,TB
 000E90 4110 7A9A/4100_      016EA 14731  2                        ERROR 'does not exist.'
 000E9C                            14738  1                      END
 000E9C 1821                       14742  1                      LR    R2,R1
 000E9E 4110 2000/4100_      00000 14743  1                      TSEG  CTRCNAME
 000EB0 4110 7A99/4100_      016E9 14771  1                      TSEG  ' '
 000EC2 5810 2010            00010 14789  1                      L     R1,CTRCVAL
 000EC6 4100 0008/41F0_      00008 14790  1                      TNUM  (R1),8
 000ED4 5810 2014            00014 14814  1                      L     R1,CTRCVAL$
 000ED8 1211/4780 72B2             14815  1                      IF    (R1,NZ),BEGIN
 000EDE 4110 7A99/4100_      016E9 14829  2                        TSEG  ' '
 000EF0 5810 2014            00014 14847  2                        L     R1,CTRCVAL$
 000EF4 4100 0008/41F0_      00008 14848  2                        TNUM  (R1),8
 000F02                            14872  1                      END
 000F02 1B00/41F0 B050_            14876  1                      TCR
 000F0E 4122 0020            00020 14901  1                      LA    R2,L'SMFCTRC(R2)
1ACCT     (ACCT2025) (12:39) (15MAR04) Accounting Routines                                                                  Page   26
0Current Usings:  (SMFCTRC,R2) (CTAREA,R4) (JCB,R5) (SWCWA,R6) (*,R7) (SWCWA-(4+36),R8) (CP,R11) (CV,R12)
0Loc    Object Code    Addr1 Addr2  Stmt Lv Lineno    Source Statement           (Hibal 5, Asmedit 3.3)  HLASM R4.0  2004/03/15 12.39
+___    ______ ____    _____ _____  ____ __ ______    ______ _________
0000F12                            14902                       END
                                   14906
 000F12 47F0 C7DE            007DE 14907                       B     CVNEXT              EXIT, THIS IS A COMMAND
 000F16 18D8/9808 D004_            14908                       PEND  ,
 DROP   SWCWA-(4+36),R8
 DROP   *,R7
                                   14933                       ¿þþþþþþþþþþþþþþþþþþþþþþþþþþþþþþþÜ
                                   14934                       Ÿ  END OF SHOW WCOUNT COMMAND.  Ÿ
                                   14935                       ¾þþþþþþþþþþþþþþþþþþþþþþþþþþþþþþþ»
 DROP   SMFCTRC,R2                 14936                       DROP  R2
 DROP   CTAREA,R4                  14943                       DROP  R4
 DROP   JCB,R5                     14950                       DROP  R5
-                                  14958                       ¿þþþþþþþþþþþþþþþþþþþþþþþþþþþþÜ
                                   14959                       Ÿ  SHOW WCOUNT SCAN OPTIONS  Ÿ
                                   14960                       ¾þþþþþþþþþþþþþþþþþþþþþþþþþþþþ»
 000F24 D3C9D5C540404040_          14961              SWCPRT   SCKW  LINE,SWCPLINE,(P,PI,A),5000
 000F4C 4040404040404040_          14976                       SCKW  ,V(COLLPSH),PUSH
 000F74 4040404040404040_          14991                       SCKW  ,V(NOTVALID)
                                   15006
 000F9C 50E0 D000/9008_      00000 15007              SWCPLINE PROC ,
 USING  *,R7
 000FB6 1810                       15046                       LR    R1,R0
 000FB8 4100 00D0            000D0 15047                       LA    R0,L'JCB
 000FBC 1C00                       15048                       MR    R0,R0
 000FBE 5A10 C1C0            001C0 15049                       A     R1,CVFJCB
 000FC2 5010 6000            00000 15050                       ST    R1,SWCJCB
 000FC6 5910 C1C4/4750_      001C4 15051                       IF    (R1,GE,CVLJCB),'VCALL NOTVALID'
 000FD4 18D8/9808 D004_            15077                       PEND  ,
 DROP   *,R7
                                   15097
 DROP   SWCWA,R6                   15098                       DROP  R6
1ACCT     (ACCT2025) (12:39) (15MAR04) Accounting Routines                                                                  Page   27
0Current Usings:  (CP,R11) (CV,R12)
0Loc    Object Code    Addr1 Addr2  Stmt Lv Lineno    Source Statement           (Hibal 5, Asmedit 3.3)  HLASM R4.0  2004/03/15 12.39
+___    ______ ____    _____ _____  ____ __ ______    ______ _________
0                                  15106              ¿þþþþþþþþþþþþþþþþþþþþþþþþþþþþþþþþþþþþþþþþþþþþþþþþþþþþþþþþþþþþþþþþþþþþþÜ
                                   15107              Ÿ                                                                     Ÿ
                                   15108              Ÿ  SET WCOUNT name [VAL=int] [VAL$=int] [LINE nnn]                    Ÿ
                                   15109              Ÿ                                                                     Ÿ
                                                      ¾þþþþþþþþþþþþþþþþþþþþþþþþþþþþþþþþþþþþþþþþþþþþþþþþþþþþþþþþþþþþþþþþþþþþþ»
0000000                00000 0001C 15110              STCWA    RECORD BEGIN
 000000                            15118  1           STCJCB     DS    F                   JCB POINTER
 000004                            15119  1           STCVAL     DS    F                   VALUE OF COUNTER
 000008                            15120  1           STCVAL$    DS    F                   VALUE$ OF COUNTER
 00000C                            15121  1           STCNAME    DS    XL(L'CTRCNAME)      NAME OF COUNTER
 00001C                0001C 0001C 15122                       END
                                   15131              þþþþ
 000FE2 50E0 D000/9008_      00000 15132              SETWCTR  XPROC STCWA
 USING  *,R7
 USING  STCWA-(4+36),R8
 000FFC 4160 8028            00000 15183                       LA    R6,STCWA
 USING  STCWA,R6                   15184                       USING STCWA,R6
 USING  SMFCTRC,R2                 15193                       USING SMFCTRC,R2
 USING  CTAREA,R4                  15202                       USING CTAREA,R4
 USING  JCB,R5                     15211                       USING JCB,R5
                                   15220
 001000 D71B 6000 6000 00000 00000 15221                       CLEAR STCWA
 001006 D203 6000 C1C8 00000 001C8 15228                       MVC   STCJCB,CVCURJCB
                                   15229
                                   15230                       COMMENT                   SET IS PRIVLEGED COMMAND (?)
 00100C 9120 B3BE/4710_003BE       15231                       IF    ~CPSFSPR,BEGIN
 001014 47F0 C7DE            007DE 15246  1                      B     CVNEXT
 001018                            15247                       END
                                   15251
                                   15252                       COMMENT                   SCAN, SAVE COUNTER NAME
 001018 5810 B08C/1B00_      0008C 15253                       SCAN ,
 001066 58E0 7618/0DEE       01614 15284                       SCANCHK
 00106C 1200/4770 7082             15289                       IF    (R0,Z),BEGIN
 001072 4110 7640/4100_      0163C 15303  1                      ERROR 'Missing counter name'
 00107E                            15310                       END
 00107E 4120 600C            0000C 15314                       LA    R2,STCNAME
 001082 4130 0010            00010 15315                       LA    R3,L'CTRCNAME
 001086 1841                       15316                       LR    R4,R1
 001088 1850                       15317                       LR    R5,R0
 00108A 5650 761C            01618 15318                       O     R5,=X'40000000'
 00108E 0E24                       15319                       MVCL  R2,R4
                                   15320
                                   15321                       COMMENT                   SCAN REST OF COMMAND
 001090 5810 B08C/1B00_      0008C 15322                       SCAN  STCPRT
 0010E2 58E0 7618/0DEE       01614 15354                       SCANCHK
                                   15359
                                   15360                       COMMENT                   LINE <NNN>, PRIVLVGD OPTION
 0010E8 5850 6000            00000 15361                       L     R5,STCJCB
 0010EC D503 6000 C1C8_00000 001C8 15362                       IF    (STCJCB,NE,CVCURJCB),BEGIN
 0010F6 9120 B3BE/4710_003BE       15380  1                      IF    ~CPSFSPR,BEGIN
 0010FE 4110 76D3/4100_      016CF 15395  2                        ERROR 'LINE: invalid option.'
 00110A                            15402  1                      END
 00110A 9180 5060/47E0_00060       15406  1                      IF    JCBWFSO,BEGIN
1ACCT     (ACCT2025) (12:39) (15MAR04) Accounting Routines                                                                  Page   28
0Current Usings:  (SMFCTRC,R2) (CTAREA,R4) (JCB,R5) (STCWA,R6) (*,R7) (STCWA-(4+36),R8) (CP,R11) (CV,R12)
0Loc    Object Code    Addr1 Addr2  Stmt Lv Lineno    Source Statement           (Hibal 5, Asmedit 3.3)  HLASM R4.0  2004/03/15 12.39
+___    ______ ____    _____ _____  ____ __ ______    ______ _________
0001112 4110 76E8/4100_      016E4 15421  2                        TSEG  'Line '
 001124 4810 5048/1B00_      00048 15439  2                        TNUM  LH:JCBSEQ
 001134 4110 766A/4100_      01666 15460  2                        ERROR ' is not logged on.'
 001140                            15467  1                      END
 001140                            15471                       END
                                   15475
                                   15476                       COMMENT                   SET COUNTER
 001140 5800 6004            00004 15477                       L     R0,STCVAL
 001144 5810 6008            00008 15478                       L     R1,STCVAL$
 001148 4120 600C            0000C 15479                       LA    R2,STCNAME
 00114C 58E0 7658/0DEE       01654 15480                       ACALL WCTRSET             SET COUNTER
 001152 4780 7166            01162 15484                       IF    NZ,BEGIN
 001156 4110 75E4/4100_      015E0 15495  1                      ERROR 'Unable to allocate counter.  Counter space full.'
 001162                            15502                       END
                                   15506
 001162 47F0 C7DE            007DE 15507                       B     CVNEXT              EXIT, THIS IS A COMMAND
 001166 18D8/9808 D004_            15508                       PEND  ,
 DROP   STCWA-(4+36),R8
 DROP   *,R7
                                   15533                       ¿þþþþþþþþþþþþþþþþþþþþþþþþþþþþþþÜ
                                   15534                       Ÿ  END OF SET WCOUNT COMMAND.  Ÿ
                                   15535                       ¾þþþþþþþþþþþþþþþþþþþþþþþþþþþþþþ»
 DROP   SMFCTRC,R2                 15536                       DROP  R2
 DROP   CTAREA,R4                  15543                       DROP  R4
 DROP   JCB,R5                     15550                       DROP  R5
-                                  15558                       ¿þþþþþþþþþþþþþþþþþþþþþþþþþþþþÜ
                                   15559                       Ÿ  SET WCOUNT SCAN OPTIONS.  Ÿ
                                   15560                       ¾þþþþþþþþþþþþþþþþþþþþþþþþþþþþ»
 001174 D3C9D5C540404040_          15561              STCPRT   SCKW  LINE,STCPLINE,(P,PI,A),5000
 00119C E5C1D3E4C5404040_          15576                       SCKW  VALUE,STCPVAL,(P,PI)
 0011C4 E5C1D34040404040_          15591                       SCKW  VAL,STCPVAL,(P,PI)
 0011EC E5C1D3E4C55B4040_          15606                       SCKW  VALUE$,STCPVAL$,(P,PI)
 001214 E5C1D35B40404040_          15621                       SCKW  VAL$,STCPVAL$,(P,PI)
 00123C 4040404040404040_          15636                       SCKW  ,V(COLLPSH),PUSH
 001264 4040404040404040_          15651                       SCKW  ,V(NOTVALID)
                                   15666
 00128C 50E0 D000/9008_      00000 15667              STCPLINE PROC  ,
 USING  *,R7
 0012A6 1810                       15706                       LR    R1,R0
 0012A8 4100 00D0            000D0 15707                       LA    R0,L'JCB
 0012AC 1C00                       15708                       MR    R0,R0
 0012AE 5A10 C1C0            001C0 15709                       A     R1,CVFJCB
 0012B2 5010 6000            00000 15710                       ST    R1,STCJCB
 0012B6 5910 C1C4/4750_      001C4 15711                       IF    (R1,GE,CVLJCB),'VCALL NOTVALID'
 0012C4 18D8/9808 D004_            15737                       PEND  ,
 DROP   *,R7
                                   15757
 0012D2 50E0 D000/9008_      00000 15758              STCPVAL  PROC  ,
 USING  *,R7
 0012EC 5000 6004            00004 15797                       ST    R0,STCVAL
 0012F0 18D8/9808 D004_            15798                       PEND  ,
 DROP   *,R7
1ACCT     (ACCT2025) (12:39) (15MAR04) Accounting Routines                                                                  Page   29
0Current Usings:  (STCWA,R6) (CP,R11) (CV,R12)
0Loc    Object Code    Addr1 Addr2  Stmt Lv Lineno    Source Statement           (Hibal 5, Asmedit 3.3)  HLASM R4.0  2004/03/15 12.39
+___    ______ ____    _____ _____  ____ __ ______    ______ _________
0                                  15818
 0012FE 50E0 D000/9008_      00000 15819              STCPVAL$ PROC  ,
 USING  *,R7
 001318 5000 6008            00008 15858                       ST    R0,STCVAL$
 00131C 18D8/9808 D004_            15859                       PEND  ,
 DROP   *,R7
                                   15879
 DROP   STCWA,R6                   15880                       DROP  R6
1ACCT     (ACCT2025) (12:39) (15MAR04) Accounting Routines                                                                  Page   30
0Current Usings:  (CP,R11) (CV,R12)
0Loc    Object Code    Addr1 Addr2  Stmt Lv Lineno    Source Statement           (Hibal 5, Asmedit 3.3)  HLASM R4.0  2004/03/15 12.39
+___    ______ ____    _____ _____  ____ __ ______    ______ _________
0                                  15888              ¿þþþþþþþþþþþþþþþþþþþþþþþþþþþþþþþþþþþþþþþþþþþþþþþþþþþþþþþþþþþþþþþþþþþþþÜ
                                   15889              Ÿ                                                                     Ÿ
                                   15890              Ÿ        WCOUNT name [LINE nnn]                                       Ÿ
                                   15891              Ÿ                                                                     Ÿ
                                                      ¾þþþþþþþþþþþþþþþþþþþþþþþþþþþþþþþþþþþþþþþþþþþþþþþþþþþþþþþþþþþþþþþþþþþþþ»
0000000                00000 00014 15892              WCTWA    RECORD BEGIN
 000000                            15900  1           WCTJCB     DS    F                   JCB POINTER
 000004                            15901  1           WCTNAME    DS    XL(L'CTRCNAME)      NAME OF COUNTER
 000014                00014 00014 15902                       END
                                   15911              þþþþ
 00132A 50E0 D000/9008_      00000 15912              WCOUNT   XPROC WCTWA
 USING  *,R7
 USING  WCTWA-(4+36),R8
 001344 4160 8028            00000 15963                       LA    R6,WCTWA
 USING  WCTWA,R6                   15964                       USING WCTWA,R6
 USING  SMFCTRC,R2                 15973                       USING SMFCTRC,R2
 USING  CTAREA,R4                  15982                       USING CTAREA,R4
 USING  JCB,R5                     15991                       USING JCB,R5
                                   16000
 001348 D713 6000 6000 00000 00000 16001                       CLEAR WCTWA
 00134E D203 6000 C1C8 00000 001C8 16008                       MVC   WCTJCB,CVCURJCB
                                   16009
                                   16010                       COMMENT                   SCAN, SAVE COUNTER NAME
 001354 5810 B08C/1B00_      0008C 16011                       SCAN  ,
 0013A2 58E0 72D0/0DEE       01614 16042                       SCANCHK
 0013A8 1200/4770 7076             16047                       IF    (R0,Z),BEGIN
 0013AE 4110 7356/4100_      0169A 16061  1                      ERROR 'Missing counter name.'
 0013BA                            16068                       END
 0013BA 4120 6004            00004 16072                       LA    R2,WCTNAME
 0013BE 4130 0010            00010 16073                       LA    R3,L'CTRCNAME
 0013C2 1841                       16074                       LR    R4,R1
 0013C4 1850                       16075                       LR    R5,R0
 0013C6 5650 72D4            01618 16076                       O     R5,=X'40000000'
 0013CA 0E24                       16077                       MVCL  R2,R4
                                   16078
                                   16079                       COMMENT                   SCAN REST OF COMMAND
 0013CC 5810 B08C/1B00_      0008C 16080                       SCAN  WCTPRT
 00141E 58E0 72D0/0DEE       01614 16112                       SCANCHK
                                   16117
                                   16118                       COMMENT                   LINE <NNN>, PRIVLVGD OPTION
 001424 5850 6000            00000 16119                       L     R5,WCTJCB
 001428 D503 6000 C1C8_00000 001C8 16120                       IF    (WCTJCB,NE,CVCURJCB),BEGIN
 001432 9120 B3BE/4710_003BE       16138  1                      IF    ~CPSFSPR,BEGIN
 00143A 4110 738B/4100_      016CF 16153  2                        ERROR 'LINE: invalid option.'
 001446                            16160  1                      END
 001446 9180 5060/47E0_00060       16164  1                      IF    JCBWFSO,BEGIN
 00144E 4110 73A0/4100_      016E4 16179  2                        TSEG  'Line '
 001460 4810 5048/1B00_      00048 16197  2                        TNUM  LH:JCBSEQ
 001470 4110 7322/4100_      01666 16218  2                        ERROR ' is not logged on.'
 00147C                            16225  1                      END
 00147C                            16229                       END
                                   16233
                                   16234                       COMMENT                   INCREMENT COUNTER
1ACCT     (ACCT2025) (12:39) (15MAR04) Accounting Routines                                                                  Page   31
0Current Usings:  (SMFCTRC,R2) (CTAREA,R4) (JCB,R5) (WCTWA,R6) (*,R7) (WCTWA-(4+36),R8) (CP,R11) (CV,R12)
0Loc    Object Code    Addr1 Addr2  Stmt Lv Lineno    Source Statement           (Hibal 5, Asmedit 3.3)  HLASM R4.0  2004/03/15 12.39
+___    ______ ____    _____ _____  ____ __ ______    ______ _________
000147C 4120 6004            00004 16235                       LA    R2,WCTNAME
 001480 58E0 7318/0DEE       0165C 16236                       ACALL WCTRINCR            INCREMENT COUNTER
 001486 4780 7152            01496 16240                       IF    NZ,BEGIN
 00148A 4110 729C/4100_      015E0 16251  1                      ERROR 'Unable to allocate counter.  Counter space full.'
 001496                            16258                       END
                                   16262
 001496 47F0 C7DE            007DE 16263                       B     CVNEXT              EXIT, THIS IS A COMMAND
 00149A 18D8/9808 D004_            16264                       PEND  ,
 DROP   WCTWA-(4+36),R8
 DROP   *,R7
                                   16289                       ¿þþþþþþþþþþþþþþþþþþþþþþþþþþÜ
                                   16290                       Ÿ  END OF WCOUNT COMMAND.  Ÿ
                                   16291                       ¾þþþþþþþþþþþþþþþþþþþþþþþþþþ»
 DROP   SMFCTRC,R2                 16292                       DROP  R2
 DROP   CTAREA,R4                  16299                       DROP  R4
 DROP   JCB,R5                     16306                       DROP  R5
-                                  16314                       ¿þþþþþþþþþþþþþþþþþþþþþþþþÜ
                                   16315                       Ÿ  WCOUNT SCAN OPTIONS.  Ÿ
                                   16316                       ¾þþþþþþþþþþþþþþþþþþþþþþþþ»
 0014A8 D3C9D5C540404040_          16317              WCTPRT   SCKW  LINE,WCTPLINE,(P,PI,A),5000
 0014D0 4040404040404040_          16332                       SCKW  ,V(COLLPSH),PUSH
 0014F8 4040404040404040_          16347                       SCKW  ,V(NOTVALID)
                                   16362
 001520 50E0 D000/9008_      00000 16363              WCTPLINE PROC  ,
 USING  *,R7
 00153A 1810                       16402                       LR    R1,R0
 00153C 4100 00D0            000D0 16403                       LA    R0,L'JCB
 001540 1C00                       16404                       MR    R0,R0
 001542 5A10 C1C0            001C0 16405                       A     R1,CVFJCB
 001546 5010 6000            00000 16406                       ST    R1,WCTJCB
 00154A 5910 C1C4/4750_      001C4 16407                       IF    (R1,GE,CVLJCB),'VCALL NOTVALID'
 001558 18D8/9808 D004_            16433                       PEND  ,
 DROP   *,R7
                                   16453
 DROP   WCTWA,R6                   16454                       DROP  R6
1ACCT     (ACCT2025) (12:39) (15MAR04) Accounting Routines                                                                  Page   32
0Current Usings:  (CP,R11) (CV,R12)
0Loc    Object Code    Addr1 Addr2  Stmt Lv Lineno    Source Statement           (Hibal 5, Asmedit 3.3)  HLASM R4.0  2004/03/15 12.39
+___    ______ ____    _____ _____  ____ __ ______    ______ _________
0                                  16462              ¿þþþþþþþþþþþþþþþþþþþþþþþþþþþþþþþþþþþþþþþþþþþþþþþþþþþþþþþþþþþþþþþþþþþþþÜ
                                   16463              Ÿ                                                                     Ÿ
                                   16464              Ÿ  GETWCNT -- Routine to return the value of a counter.               Ÿ
                                   16465              Ÿ                                                                     Ÿ
                                   16466              Ÿ    On entry:                                                        Ÿ
                                   16467              Ÿ      R1,R0 - counter name (loc,len)                                 Ÿ
                                   16468              Ÿ                                                                     Ÿ
                                   16469              Ÿ    On exit, R15 (and cc):                                           Ÿ
                                   16470              Ÿ      value of counter (zero if not found)                           Ÿ
                                   16471              Ÿ                                                                     Ÿ
                                                      ¾þþþþþþþþþþþþþþþþþþþþþþþþþþþþþþþþþþþþþþþþþþþþþþþþþþþþþþþþþþþþþþþþþþþþþ»
0000000                00000 00010 16472              WCWA     RECORD BEGIN
 000000                            16480  1           WCWANAME   DS    CL16                Counter name
 000010                00010 00010 16481                       END
                                   16490              þþþþ
 001566 50E0 D000/9008_      00000 16491              GETWCNT  XPROC WCWA
 USING  *,R7
 USING  WCWA-(4+36),R8
 001580 D20F 8028 C4D8 00000 004D8 16542                       MVC   WCWANAME,CVBLANKS   Pre-blank
 001586 5900 70E0/47D0_      01660 16543                       CEIL  R0,L'WCWANAME
 001592 18F0                       16562                       LR    R15,R0
 001594 06F0/12FF/4740_            16563                       MOVE  R15,WCWANAME,@R1    Copy counter name
 0015A0 5820 C8A8            008A8 16601                       L     R2,CVUPPTBL
 0015A4 DC0F 8028 2000 00000 00000 16602                       TR    WCWANAME,@R2        Translate to upper case
                                   16603
 0015AA 4120 8028            00000 16604                       LA    R2,WCWANAME         Counter name
 0015AE 5850 C1C8            001C8 16605                       L     R5,CVCURJCB         Current user
 0015B2 58E0 70B0/0DEE       01630 16606                       ACALL WCTRFIND            Get CTRC for this counter
 0015B8 4780 703E/1BFF       015BE 16610                       IF    NZ,'CLEAR R15'      No counter by this name
 0015BE 7042/47F0 7046 015BE 015BA 16630                       ELSE  BEGIN
 USING  SMFCTRC,R1                 16641  1                      WITH  (SMFCTRC,R1)
 0015C2 58F0 1010            00010 16654  1                      L     R15,CTRCVAL         Get counter value
 DROP   SMFCTRC,R1                 16655                       END
                                   16664
 0015C6 18D8/9808 D004_            16665                       PEND
 DROP   WCWA-(4+36),R8
 DROP   *,R7
                                   16690
                                   16691                       QLTORG
1ACCT     (ACCT2025) (12:39) (15MAR04) Accounting Routines                                                                  Page   33
0Current Usings:  (CP,R11) (CV,R12)
0Loc    Object Code    Addr1 Addr2  Stmt Lv Lineno    Source Statement           (Hibal 5, Asmedit 3.3)  HLASM R4.0  2004/03/15 12.39
+___    ______ ____    _____ _____  ____ __ ______    ______ _________
0                                  16733              ¿þþþþþþþþþþþþþþþþþþþþþþþþþþþþþþþþþþþþþþþþþþþþþþþþþþþþþþþþþþþþþþþþþþþþþÜ
                                   16734              Ÿ                                                                     Ÿ
                                   16735              Ÿ                                                                     Ÿ
                                   16736              Ÿ  WCTRGET - GET WCOUNT VALUE.                                        Ÿ
                                   16737              Ÿ                                                                     Ÿ
                                   16738              Ÿ  ON ENTRY:                                                          Ÿ
                                   16739              Ÿ        R2 - 16 CHAR LEFT JUSTIFIED COUNTER NAME                     Ÿ
                                   16740              Ÿ        R5 - JCB POINTER                                             Ÿ
                                   16741              Ÿ                                                                     Ÿ
                                   16742              Ÿ  ON EXIT:                                                           Ÿ
                                   16743              Ÿ        R0 - COUNTER VALUE                                           Ÿ
                                   16744              Ÿ        R1 - COUNTER COST INFO                                       Ÿ
                                   16745              Ÿ        R15 - ZERO, COUNTER EXISTS; NZ IF COUNTER DOES NOT EXIST.    Ÿ
                                   16746              Ÿ                                                                     Ÿ
                                   16747              Ÿ                                                                     Ÿ
                                   16748              Ÿ                                                                     Ÿ
                                                      ¾þþþþþþþþþþþþþþþþþþþþþþþþþþþþþþþþþþþþþþþþþþþþþþþþþþþþþþþþþþþþþþþþþþþþþ»
0001700 50E0 D000/9008_      00000 16749              WCTRGET  PROC
 USING  *,R7
 USING  SMFCTRC,R1                 16788                       WITH  (SMFCTRC,R1)
                                   16801                       ¿þþþþþþþþþþþþþþþþþþþþþþþÜ
                                   16802                       Ÿ  Get and find entry.  Ÿ
                                   16803                       ¾þþþþþþþþþþþþþþþþþþþþþþþ»
 00171A 58E0 7C1E/0DEE       02338 16804                       ACALL WCTRFIND
 001720 12FF/4770 7018             16808                       IF    (R15,Z),BEGIN
 001726 5800 1010            00010 16822  1                      L     R0,CTRCVAL
 00172A 5810 1014            00014 16823  1                      L     R1,CTRCVAL$
 00172E 9001 8004            00004 16824  1                      PRETURN (R0,R1)
 001732                            16826                       END
                                   16830
 001732 18D8/9808 D004_            16831                       PEND
 DROP   SMFCTRC,R1
 DROP   *,R7
1ACCT     (ACCT2025) (12:39) (15MAR04) Accounting Routines                                                                  Page   34
0Current Usings:  (CP,R11) (CV,R12)
0Loc    Object Code    Addr1 Addr2  Stmt Lv Lineno    Source Statement           (Hibal 5, Asmedit 3.3)  HLASM R4.0  2004/03/15 12.39
+___    ______ ____    _____ _____  ____ __ ______    ______ _________
0                                  16857              ¿þþþþþþþþþþþþþþþþþþþþþþþþþþþþþþþþþþþþþþþþþþþþþþþþþþþþþþþþþþþþþþþþþþþþþÜ
                                   16858              Ÿ                                                                     Ÿ
                                   16859              Ÿ  WCTRSET - SET WCOUNT                                               Ÿ
                                   16860              Ÿ                                                                     Ÿ
                                   16861              Ÿ  ON ENTRY:                                                          Ÿ
                                   16862              Ÿ        R0 - VALUE                                                   Ÿ
                                   16863              Ÿ        R1 - VALUE$                                                  Ÿ
                                   16864              Ÿ        R2 - 16 CHAR LEFT JUSTIFIED COUNTER NAME                     Ÿ
                                   16865              Ÿ        R5 - JCB ADDRESS                                             Ÿ
                                   16866              Ÿ                                                                     Ÿ
                                   16867              Ÿ  ON EXIT:                                                           Ÿ
                                   16868              Ÿ        R15 - ZERO, IF SET;                                          Ÿ
                                   16869              Ÿ              NZ, IF NEW AND UNABLE TO ALLOCATE MEMORY FOR COUNTER   Ÿ
                                   16870              Ÿ                                                                     Ÿ
                                   16871              Ÿ  NOTE:  THIS ROUTINE WILL ONLY FAIL IF TOO MANY COUNTERS ARE        Ÿ
                                   16872              Ÿ    ALLOCATED (>200).  IF THE COUNTER DOES NOT EXIST, IT WILL        Ÿ
                                   16873              Ÿ    BE CREATED AND SET TO SPECIFIED VALUE.                           Ÿ
                                   16874              Ÿ                                                                     Ÿ
                                                      ¾þþþþþþþþþþþþþþþþþþþþþþþþþþþþþþþþþþþþþþþþþþþþþþþþþþþþþþþþþþþþþþþþþþþþþ»
0001740 50E0 D000/9008_      00000 16875              WCTRSET  PROC
 USING  *,R7
                                   16914
 USING  SMFCTRC,R1                 16915                       USING SMFCTRC,R1
 USING  CTAREA,R4                  16924                       USING CTAREA,R4
 USING  JCB,R5                     16933                       USING JCB,R5
 00175A 1831                       16942                       LR    R3,R1               R3 - VALUE$
                                   16943
                                   16944                       COMMENT                   GET COUNTER RECORD POINTER
 00175C 58E0 7BDE/0DEE       02338 16945                       ACALL WCTRFIND            RETURNS R1-COUNTER RECORD ADDR
 001762 12FF/4780 702E             16949                       IF    (R15,NZ),BEGIN      IF NO RECORD, MAKE ONE
 001768 58E0 7BE2/0DEE       0233C 16963  1                      ACALL WCTRMAKE
 00176E 12FF/4780 701E             16967  1                      IF    (R15,NZ),BEGIN
 001774 47F0 7072            017CC 16981  2                        B     CTSTDONE
 001778                            16982  1                      END
 001778 58E0 7BDE/0DEE       02338 16986  1                      ACALL WCTRFIND
 00177E 12FF/4780 702E             16990  1                      IF    (R15,NZ),BEGIN
 001784 47F0 7072            017CC 17004  2                        B     CTSTDONE
 001788                            17005  1                      END
 001788                            17009                       END
                                   17013
                                   17014                       COMMENT                   SET COUNTER VALUE
 001788 5000 1010            00010 17015                       ST    R0,CTRCVAL
 00178C 5030 1014            00014 17016                       ST    R3,CTRCVAL$
                                   17017
                                   17018                       COMMENT                   SHIFT COUNTER TO FRONT,,,
                                   17019                       COMMENT
                                   17020                       COMMENT ,                 (THIS MAY BE DUMB - UNPROVEN
                                   17021                       COMMENT                   OPTIMIZATION OFTEN FAILS)
 001790 5840 50A8            000A8 17022                       L     R4,JCBCTP
 001794 4130 4008            00008 17023                       LA    R3,CTARECS
 001798 1913/47D0 7070             17024                       IF    (R1,GT,R3),BEGIN    IF NOT 1ST COUNTER
 00179E 1823                       17039  1                      LR    R2,R3               COPY LEADING COUNTERS TO STACK
 0017A0 1831                       17040  1                      LR    R3,R1
1ACCT     (ACCT2025) (12:39) (15MAR04) Accounting Routines                                                                  Page   35
0Current Usings:  (SMFCTRC,R1) (CTAREA,R4) (JCB,R5) (*,R7) (CP,R11) (CV,R12)
0Loc    Object Code    Addr1 Addr2  Stmt Lv Lineno    Source Statement           (Hibal 5, Asmedit 3.3)  HLASM R4.0  2004/03/15 12.39
+___    ______ ____    _____ _____  ____ __ ______    ______ _________
00017A2 1B32                       17041  1                      SR    R3,R2
 0017A4 18ED                       17042  1                      LR    R14,R13
 0017A6 18F3                       17043  1                      LR    R15,R3
 0017A8 0EE2                       17044  1                      MVCL  R14,R2
 0017AA 41E0 4008            00008 17045  1                      LA    R14,CTARECS         COPY SET COUNTER TO FRONT
 0017AE 41F0 0020            00020 17046  1                      LA    R15,L'SMFCTRC
 0017B2 1821                       17047  1                      LR    R2,R1
 0017B4 183F                       17048  1                      LR    R3,R15
 0017B6 0EE2                       17049  1                      MVCL  R14,R2              COPY LEADING COUNTER FROM STACK
 0017B8 41E0 4008            00008 17050  1                      LA    R14,CTARECS
 0017BC 18F1                       17051  1                      LR    R15,R1
 0017BE 1BFE                       17052  1                      SR    R15,R14
 0017C0 41EE 0020            00020 17053  1                      LA    R14,L'SMFCTRC(R14)
 0017C4 182D                       17054  1                      LR    R2,R13
 0017C6 183F                       17055  1                      LR    R3,R15
 0017C8 0EE2                       17056  1                      MVCL  R14,R2
 0017CA                            17057                       END
                                   17061
 0017CA 1BFF                       17062                       CLEAR R15                 COUNTER SET OK
                                   17066
 0017CC                            17067              CTSTDONE LABEL ,
 0017CC 18D8/9808 D004_            17069                       PEND
 DROP   *,R7
 DROP   SMFCTRC,R1                 17089                       DROP  R1
 DROP   CTAREA,R4                  17096                       DROP  R4
 DROP   JCB,R5                     17103                       DROP  R5
1ACCT     (ACCT2025) (12:39) (15MAR04) Accounting Routines                                                                  Page   36
0Current Usings:  (CP,R11) (CV,R12)
0Loc    Object Code    Addr1 Addr2  Stmt Lv Lineno    Source Statement           (Hibal 5, Asmedit 3.3)  HLASM R4.0  2004/03/15 12.39
+___    ______ ____    _____ _____  ____ __ ______    ______ _________
0                                  17111              ¿þþþþþþþþþþþþþþþþþþþþþþþþþþþþþþþþþþþþþþþþþþþþþþþþþþþþþþþþþþþþþþþþþþþþþÜ
                                   17112              Ÿ                                                                     Ÿ
                                   17113              Ÿ                                                                     Ÿ
                                   17114              Ÿ  WCTRINCR - INCREMENT WCOUNT                                        Ÿ
                                   17115              Ÿ                                                                     Ÿ
                                   17116              Ÿ  ON ENTRY:                                                          Ÿ
                                   17117              Ÿ        R2 - 16 CHAR LEFT JUSTIFIED COUNTER NAME                     Ÿ
                                   17118              Ÿ        R5 - JCB ADDRESS                                             Ÿ
                                   17119              Ÿ                                                                     Ÿ
                                   17120              Ÿ  ON EXIT:                                                           Ÿ
                                   17121              Ÿ        R15 - ZERO, IF INCREMENT                                     Ÿ
                                   17122              Ÿ              NZ, IF NEW AND UNABLE TO ALLOCATE MEMORY FOR COUNTER   Ÿ
                                   17123              Ÿ                                                                     Ÿ
                                   17124              Ÿ  NOTE:  THIS ROUTINE WILL ONLY FAIL IF TOO MANY COUNTERS ARE        Ÿ
                                   17125              Ÿ    ALLOCATED (>200).  IF THE COUNTER DOES NOT EXIST, IT WILL        Ÿ
                                   17126              Ÿ    BE CREATED AND SET TO 1.                                         Ÿ
                                   17127              Ÿ                                                                     Ÿ
                                   17128              Ÿ                                                                     Ÿ
                                   17129              Ÿ                                                                     Ÿ
                                                      ¾þþþþþþþþþþþþþþþþþþþþþþþþþþþþþþþþþþþþþþþþþþþþþþþþþþþþþþþþþþþþþþþþþþþþþ»
00017DA 50E0 D000/9008_      00000 17130              WCTRINCR XPROC
 USING  *,R7
                                   17170
 USING  SMFCTRC,R1                 17171                       USING SMFCTRC,R1
 USING  CTAREA,R4                  17180                       USING CTAREA,R4
 USING  JCB,R5                     17189                       USING JCB,R5
                                   17198
                                   17199                       COMMENT                   GET COUNTER RECORD POINTER
 0017F4 58E0 7B44/0DEE       02338 17200                       ACALL WCTRFIND            RETURNS R1-COUNTER RECORD ADDR
 0017FA 12FF/4780 702C             17204                       IF    (R15,NZ),BEGIN      IF NO RECORD, MAKE ONE
 001800 58E0 7B48/0DEE       0233C 17218  1                      ACALL WCTRMAKE
 001806 12FF/4780 701C             17222  1                      IF    (R15,NZ),BEGIN
 00180C 47F0 7074            01868 17236  2                        B     CTINDONE
 001810                            17237  1                      END
 001810 58E0 7B44/0DEE       02338 17241  1                      ACALL WCTRFIND
 001816 12FF/4780 702C             17245  1                      IF    (R15,NZ),BEGIN
 00181C 47F0 7074            01868 17259  2                        B     CTINDONE
 001820                            17260  1                      END
 001820                            17264                       END
                                   17268
                                   17269                       COMMENT                   INCREMENT COUNTER VALUE
 001820 5800 1010            00010 17270                       L     R0,CTRCVAL
 001824 5A00 7B4C            02340 17271                       A     R0,=F'1'
 001828 5000 1010            00010 17272                       ST    R0,CTRCVAL
                                   17273
                                   17274                       COMMENT                   SHIFT COUNTER TO FRONT,,,
                                   17275                       COMMENT
                                   17276                       COMMENT ,                 (THIS MAY BE DUMB - UNPROVEN
                                   17277                       COMMENT                   OPTIMIZATION OFTEN FAILS)
 00182C 5840 50A8            000A8 17278                       L     R4,JCBCTP
 001830 4130 4008            00008 17279                       LA    R3,CTARECS
 001834 1913/47D0 7072             17280                       IF    (R1,GT,R3),BEGIN    IF NOT 1ST COUNTER
 00183A 1823                       17295  1                      LR    R2,R3               COPY LEADING COUNTERS TO STACK
1ACCT     (ACCT2025) (12:39) (15MAR04) Accounting Routines                                                                  Page   37
0Current Usings:  (SMFCTRC,R1) (CTAREA,R4) (JCB,R5) (*,R7) (CP,R11) (CV,R12)
0Loc    Object Code    Addr1 Addr2  Stmt Lv Lineno    Source Statement           (Hibal 5, Asmedit 3.3)  HLASM R4.0  2004/03/15 12.39
+___    ______ ____    _____ _____  ____ __ ______    ______ _________
000183C 1831                       17296  1                      LR    R3,R1
 00183E 1B32                       17297  1                      SR    R3,R2
 001840 18ED                       17298  1                      LR    R14,R13
 001842 18F3                       17299  1                      LR    R15,R3
 001844 0EE2                       17300  1                      MVCL  R14,R2
 001846 41E0 4008            00008 17301  1                      LA    R14,CTARECS         COPY SET COUNTER TO FRONT
 00184A 41F0 0020            00020 17302  1                      LA    R15,L'SMFCTRC
 00184E 1821                       17303  1                      LR    R2,R1
 001850 183F                       17304  1                      LR    R3,R15
 001852 0EE2                       17305  1                      MVCL  R14,R2              COPY LEADING COUNTER FROM STACK
 001854 41E0 4008            00008 17306  1                      LA    R14,CTARECS
 001858 18F1                       17307  1                      LR    R15,R1
 00185A 1BFE                       17308  1                      SR    R15,R14
 00185C 41EE 0020            00020 17309  1                      LA    R14,L'SMFCTRC(R14)
 001860 182D                       17310  1                      LR    R2,R13
 001862 183F                       17311  1                      LR    R3,R15
 001864 0EE2                       17312  1                      MVCL  R14,R2
 001866                            17313                       END
                                   17317
 001866 1BFF                       17318                       CLEAR R15                 COUNTER SET OK
                                   17322
 001868                            17323              CTINDONE LABEL ,
 001868 18D8/9808 D004_            17325                       PEND
 DROP   *,R7
 DROP   SMFCTRC,R1                 17345                       DROP  R1
 DROP   CTAREA,R4                  17352                       DROP  R4
 DROP   JCB,R5                     17359                       DROP  R5
1ACCT     (ACCT2025) (12:39) (15MAR04) Accounting Routines                                                                  Page   38
0Current Usings:  (CP,R11) (CV,R12)
0Loc    Object Code    Addr1 Addr2  Stmt Lv Lineno    Source Statement           (Hibal 5, Asmedit 3.3)  HLASM R4.0  2004/03/15 12.39
+___    ______ ____    _____ _____  ____ __ ______    ______ _________
0                                  17367              ¿þþþþþþþþþþþþþþþþþþþþþþþþþþþþþþþþþþþþþþþþþþþþþþþþþþþþþþþþþþþþþþþþþþþþþÜ
                                   17368              Ÿ                                                                     Ÿ
                                   17369              Ÿ                                                                     Ÿ
                                   17370              Ÿ  FIND WCOUNT AREA                                                   Ÿ
                                   17371              Ÿ                                                                     Ÿ
                                   17372              Ÿ  ON ENTRY:                                                          Ÿ
                                   17373              Ÿ        R2 - 16 CHAR LEFT JUSTIFIED COUNTER NAME                     Ÿ
                                   17374              Ÿ        R5 - JCB PTR                                                 Ÿ
                                   17375              Ÿ                                                                     Ÿ
                                   17376              Ÿ  ON EXIT:                                                           Ÿ
                                   17377              Ÿ        R1 - ADDRESS OF COUNTER RECORD, IF ANY                       Ÿ
                                   17378              Ÿ        R15 - ZERO IF FOUND, NZ IF NO RECORD                         Ÿ
                                   17379              Ÿ                                                                     Ÿ
                                   17380              Ÿ                                                                     Ÿ
                                   17381              Ÿ                                                                     Ÿ
                                                      ¾þþþþþþþþþþþþþþþþþþþþþþþþþþþþþþþþþþþþþþþþþþþþþþþþþþþþþþþþþþþþþþþþþþþþþ»
0001876 50E0 D000/9008_      00000 17382              WCTRFIND PROC
 USING  *,R7
                                   17421
 USING  SMFCTRC,R1                 17422                       USING SMFCTRC,R1
 USING  CTAREA,R4                  17431                       USING CTAREA,R4
 USING  JCB,R5                     17440                       USING JCB,R5
                                   17449
                                   17450                       COMMENT                   ASSUME NOT FOUND
 001890 41F0 0001            00001 17451                       LA    R15,1
                                   17452
 001894 5840 50A8            000A8 17453                       L     R4,JCBCTP
 001898 1244/4770 700E             17454                       IF    (R4,Z),BEGIN        IF NO COUNTER AREA, NO COUNTER
 00189E                            17468                       END
                                   17472
 00189E 7012/47F0 7040 0189E 0189C 17473                       ELSE  BEGIN ,             COUNTER AREA EXISTS
 0018A2 4110 4008            00008 17484  1                      LA    R1,CTARECS          R1 - START OF COUNTER RECORDS
 0018A6 1831                       17485  1                      LR    R3,R1
 0018A8 5A30 4004            00004 17486  1                      A     R3,CTARECSL         R3 - END OF COUNTER RECORDS
 0018AC 1913/47B0 7034_            17487  1                      WHILE ((R1,LT,R3),AND,(CTRCNAME,NE,@R2)),BEGIN
 0018BC 4111 0020            00020 17520  2                        LA    R1,L'SMFCTRC(R1)
 0018C0 47F0 701C            018AC 17521  1                      END
                                   17526  1
                                   17527  1                      COMMENT                   IF FOUND RECORD,,,
 0018C4 1913/47B0 7040             17528  1                      IF (R1,LT,R3),BEGIN
 0018CA 1BFF                       17543  2                        CLEAR R15
 0018CC 5018 0008            00008 17547  2                        PRETURN R1
 0018D0                            17549  1                      END
 0018D0                            17553                       END
                                   17557
 0018D0 18D8/9808 D004_            17558                       PEND
 DROP   *,R7
 DROP   SMFCTRC,R1                 17578                       DROP  R1
 DROP   CTAREA,R4                  17585                       DROP  R4
 DROP   JCB,R5                     17592                       DROP  R5
1ACCT     (ACCT2025) (12:39) (15MAR04) Accounting Routines                                                                  Page   39
0Current Usings:  (CP,R11) (CV,R12)
0Loc    Object Code    Addr1 Addr2  Stmt Lv Lineno    Source Statement           (Hibal 5, Asmedit 3.3)  HLASM R4.0  2004/03/15 12.39
+___    ______ ____    _____ _____  ____ __ ______    ______ _________
0                                  17600              ¿þþþþþþþþþþþþþþþþþþþþþþþþþþþþþþþþþþþþþþþþþþþþþþþþþþþþþþþþþþþþþþþþþþþþþÜ
                                   17601              Ÿ                                                                     Ÿ
                                   17602              Ÿ  WCOUNT MAKE (IE. CREATE)                                           Ÿ
                                   17603              Ÿ                                                                     Ÿ
                                   17604              Ÿ  THIS ROUTINE WILL CREATE A COUNTER ENTRY.  THE COUNT FIELD         Ÿ
                                   17605              Ÿ  IS SET TO ZERO.  IF THE  COUNTER ALREADY EXISTS, IT IS SET         Ÿ
                                   17606              Ÿ  TO ZERO.                                                           Ÿ
                                   17607              Ÿ                                                                     Ÿ
                                   17608              Ÿ  ON ENTRY:                                                          Ÿ
                                   17609              Ÿ        R2 - 16 CHAR LEFT JUSTIFIED COUNTER NAME                     Ÿ
                                   17610              Ÿ        R5 - JCB PTR                                                 Ÿ
                                   17611              Ÿ                                                                     Ÿ
                                   17612              Ÿ  ON EXIT:                                                           Ÿ
                                   17613              Ÿ        R15 - ZERO, IF SUCCESSFUL, NZ OTHERWISE                      Ÿ
                                   17614              Ÿ                                                                     Ÿ
                                                      ¾þþþþþþþþþþþþþþþþþþþþþþþþþþþþþþþþþþþþþþþþþþþþþþþþþþþþþþþþþþþþþþþþþþþþþ»
00018DE 50E0 D000/9008_      00000 17615              WCTRMAKE PROC
 USING  *,R7
                                   17654
 USING  SMFCTRC,R1                 17655                       USING SMFCTRC,R1
 USING  CTAREA,R4                  17664                       USING CTAREA,R4
 USING  JCB,R5                     17673                       USING JCB,R5
                                   17682
                                   17683                       COMMENT                   SEE IF ONE ALREADY EXISTS
 0018F8 58E0 7A40/0DEE       02338 17684                       ACALL WCTRFIND
                                   17688
                                   17689                       COMMENT                   IF WE ALREADY HAVE ONE,
 0018FE 12FF/4770 701E             17690                       IF    (R15,Z),BEGIN       JUST ZERO ENTRY
 001904 D703 1010 1010 00010 00010 17704  1                      CLEAR CTRCVAL
 00190A D703 1014 1014 00014 00014 17711  1                      CLEAR CTRCVAL$
 001910 1BFF                       17718  1                      CLEAR R15
 001912 47F0 7146            01A3E 17722  1                      B     CTMKDONE
 001916                            17723                       END
                                   17727
                                   17728                       COMMENT                   IF NO COUNTER AREA, GET ONE
 001916 D503 7A0C 50A8_02304 000A8 17729                       IF    (JCBCTP,EQ,0),BEGIN IF NO COUNTER AREA, GET ONE
 001920 5840 50A8            000A8 17747  1                      L     R4,JCBCTP
 001924 4100 0108            00108 17748  1                      LA    R0,CTALEN1
 001928 1830                       17749  1                      LR    R3,R0
 00192A 58E0 7A4C/0DEE       02344 17750  1                      VCALL GETCORE
 001930 1903/47B0 704C             17754  1                      IF    (R0,LT,R3),BEGIN    IF NO MEMORY, ERROR
 001936 58E0 7A50/0DEE       02348 17769  2                        VCALL FREECORE
 00193C 41F0 0001            00001 17773  2                        LA    R15,1
 001940 47F0 7146            01A3E 17774  2                        B     CTMKDONE
 001944                            17775  1                      END
 001944 1841                       17779  1                      LR    R4,R1               GOT AREA, SET IT UP
 001946 5010 50A8            000A8 17780  1                      ST    R1,JCBCTP
 00194A 5B00 7A54            0234C 17781  1                      S     R0,=A(CTAHDRL)
 00194E 5000 4000            00000 17782  1                      ST    R0,CTAREAL
 001952 4100 0020            00020 17783  1                      LA    R0,L'SMFCTRC
 001956 5000 4004            00004 17784  1                      ST    R0,CTARECSL
 00195A 4110 4008            00008 17785  1                      LA    R1,CTARECS
 00195E D20F 1000 2000 00000 00000 17786  1                      MVC   CTRCNAME,@R2        ADD ENTRY
1ACCT     (ACCT2025) (12:39) (15MAR04) Accounting Routines                                                                  Page   40
0Current Usings:  (SMFCTRC,R1) (CTAREA,R4) (JCB,R5) (*,R7) (CP,R11) (CV,R12)
0Loc    Object Code    Addr1 Addr2  Stmt Lv Lineno    Source Statement           (Hibal 5, Asmedit 3.3)  HLASM R4.0  2004/03/15 12.39
+___    ______ ____    _____ _____  ____ __ ______    ______ _________
0001964 D703 1010 1010 00010 00010 17787  1                      CLEAR CTRCVAL
 00196A D703 1014 1014 00014 00014 17794  1                      CLEAR CTRCVAL$
 001970 1BFF                       17801  1                      CLEAR R15
 001972 47F0 7146            01A3E 17805  1                      B     CTMKDONE
 001976                            17806                       END
                                   17810
                                   17811                       COMMENT                   COUNTER AREA EXISTS,
                                   17812                       COMMENT                   BUT AREA IS FULL
 001976 5840 50A8            000A8 17813                       L     R4,JCBCTP
 00197A 5830 4004            00004 17814                       L     R3,CTARECSL
 00197E 4133 0020            00020 17815                       LA    R3,L'SMFCTRC(R3)
 001982 5930 4000/47D0_      00000 17816                       IF    (R3,GT,CTAREAL),BEGIN  IF AREA NOT LARGE ENOUGH,
 00198A 4100 0200            00200 17833  1                      LA    R0,CTALEN2             WE GET LARGER AREA
 00198E 5A00 4000            00000 17834  1                      A     R0,CTAREAL
 001992 5900 7A58/47D0_      02350 17835  1                      IF    (R0,GT,=A(CTAMAX)),BEGIN   ERROR IF TOO MANY COUNTERS
 00199A 41F0 0001            00001 17851  2                        LA    R15,1
 00199E 47F0 7146            01A3E 17852  2                        B     CTMKDONE
 0019A2                            17853  1                      END
 0019A2 1830                       17857  1                      LR    R3,R0
 0019A4 58E0 7A4C/0DEE       02344 17858  1                      VCALL GETCORE
 0019AA 1903/47B0 70C6             17862  1                      IF    (R0,LT,R3),BEGIN    IF NO MEMORY, ERROR
 0019B0 58E0 7A50/0DEE       02348 17877  2                        VCALL FREECORE
 0019B6 41F0 0001            00001 17881  2                        LA    R15,1
 0019BA 47F0 7146            01A3E 17882  2                        B     CTMKDONE
 0019BE                            17883  1                      END
 0019BE 5010 50A8            000A8 17887  1                      ST    R1,JCBCTP           SET UP NEW AREA
 0019C2 5B00 7A54            0234C 17888  1                      S     R0,=A(CTAHDRL)
 0019C6 5001 0000            00000 17889  1                      ST    R0,CTAREAL-CTAREA(R1)
 0019CA 5830 4004            00004 17890  1                      L     R3,CTARECSL
 0019CE 4133 0020            00020 17891  1                      LA    R3,L'SMFCTRC(R3)
 0019D2 5031 0004            00004 17892  1                      ST    R3,CTARECSL-CTAREA(R1)
 0019D6 18E1                       17893  1                      LR    R14,R1              COPY OLD AREA TO NEW
 0019D8 41EE 0028            00028 17894  1                      LA    R14,L'SMFCTRC+CTAHDRL(R14)  LEAVE ROOM FOR NEW
 0019DC 58F0 4004            00004 17895  1                      L     R15,CTARECSL             ENTRY AT START
 0019E0 4100 4008            00008 17896  1                      LA    R0,CTARECS
 0019E4 181F                       17897  1                      LR    R1,R15
 0019E6 0EE0                       17898  1                      MVCL  R14,R0             COPY OLD AREA TO NEW
 0019E8 4110 4000            00000 17899  1                      LA    R1,CTAREA
 0019EC 58E0 7A50/0DEE       02348 17900  1                      VCALL FREECORE           FREE UP OLD AREA
 0019F2 5840 50A8            000A8 17904  1                      L     R4,JCBCTP          ADD ENTRY AT START
 0019F6 4110 4008            00008 17905  1                      LA    R1,CTARECS
 0019FA D20F 1000 2000 00000 00000 17906  1                      MVC   CTRCNAME,@R2
 001A00 D703 1010 1010 00010 00010 17907  1                      CLEAR CTRCVAL
 001A06 D703 1014 1014 00014 00014 17914  1                      CLEAR CTRCVAL$
 001A0C 1BFF                       17921  1                      CLEAR R15
 001A0E 47F0 7146            01A3E 17925  1                      B     CTMKDONE
 001A12                            17926                       END
                                   17930
                                   17931                       COMMENT                   COUNTER AREA EXISTS, AND
                                   17932                       COMMENT                   AREA HAS ROOM FOR NEW COUNTER
 001A12 4110 4008            00008 17933                       LA    R1,CTARECS          ADD NEW COUNTER RECORD AT END
 001A16 5A10 4004            00004 17934                       A     R1,CTARECSL
 001A1A D20F 1000 2000 00000 00000 17935                       MVC   CTRCNAME,@R2
 001A20 5830 4004            00004 17936                       L     R3,CTARECSL
1ACCT     (ACCT2025) (12:39) (15MAR04) Accounting Routines                                                                  Page   41
0Current Usings:  (SMFCTRC,R1) (CTAREA,R4) (JCB,R5) (*,R7) (CP,R11) (CV,R12)
0Loc    Object Code    Addr1 Addr2  Stmt Lv Lineno    Source Statement           (Hibal 5, Asmedit 3.3)  HLASM R4.0  2004/03/15 12.39
+___    ______ ____    _____ _____  ____ __ ______    ______ _________
0001A24 4133 0020            00020 17937                       LA    R3,L'SMFCTRC(R3)
 001A28 5030 4004            00004 17938                       ST    R3,CTARECSL
 001A2C D703 1010 1010 00010 00010 17939                       CLEAR CTRCVAL
 001A32 D703 1014 1014 00014 00014 17946                       CLEAR CTRCVAL$
 001A38 1BFF                       17953                       CLEAR R15
 001A3A 47F0 7146            01A3E 17957                       B     CTMKDONE
                                   17958
 001A3E                            17959              CTMKDONE LABEL ,
 001A3E 18D8/9808 D004_            17961                       PEND
 DROP   *,R7
 DROP   SMFCTRC,R1                 17981                       DROP  R1
 DROP   CTAREA,R4                  17988                       DROP  R4
 DROP   JCB,R5                     17995                       DROP  R5
1ACCT     (ACCT2025) (12:39) (15MAR04) Accounting Routines                                                                  Page   42
0Current Usings:  (CP,R11) (CV,R12)
0Loc    Object Code    Addr1 Addr2  Stmt Lv Lineno    Source Statement           (Hibal 5, Asmedit 3.3)  HLASM R4.0  2004/03/15 12.39
+___    ______ ____    _____ _____  ____ __ ______    ______ _________
0                                  18003              ¿þþþþþþþþþþþþþþþþþþþþþþþþþþþþþþþþþþþþþþþþþþþþþþþþþþþþþþþþþþþþþþþþþþþþþÜ
                                   18004              Ÿ                                                                     Ÿ
                                   18005              Ÿ  WCTRCOPY - COPY ALL COUNTER RECORDS.                               Ÿ
                                   18006              Ÿ                                                                     Ÿ
                                   18007              Ÿ  ON ENTRY:                                                          Ÿ
                                   18008              Ÿ        R0 - MAX LENGTH                                              Ÿ
                                   18009              Ÿ        R1 - DESTINATION ADDRESS                                     Ÿ
                                   18010              Ÿ        R15 - JCB POINTER                                            Ÿ
                                   18011              Ÿ                                                                     Ÿ
                                   18012              Ÿ  ON EXIT:                                                           Ÿ
                                   18013              Ÿ        R0 - LENGTH OF COUNTER RECORDS COPIED                        Ÿ
                                   18014              Ÿ        R15 - ZERO, SUCCESS; NZ, TOO MANY RECORDS, SOME NOT COPIED   Ÿ
                                   18015              Ÿ                                                                     Ÿ
                                                      ¾þþþþþþþþþþþþþþþþþþþþþþþþþþþþþþþþþþþþþþþþþþþþþþþþþþþþþþþþþþþþþþþþþþþþþ»
0001A4C 50E0 D000/9008_      00000 18016              WCTRCOPY PROC
 USING  *,R7
                                   18055
 USING  CTAREA,R4                  18056                       USING CTAREA,R4
 USING  JCB,R5                     18065                       USING JCB,R5
 001A66 185F                       18074                       LR    R5,R15
                                   18075
                                   18076                       COMMENT                   COPY RECORDS
 001A68 5840 50A8            000A8 18077                       L     R4,JCBCTP
                                   18078
                                   18079                       COMMENT                   IF NO RECORDS,,,
 001A6C 1244/4770 7014             18080                       IF    (R4,Z),BEGIN
 001A72 1B00                       18094  1                      CLEAR R0
 001A74 1BFF                       18098  1                      CLEAR R15
 001A76 5008 0004            00004 18102  1                      PRETURN R0
 001A7A                            18104                       END
                                   18108
                                   18109                       COMMENT                   IF TOO MANY RECORDS,,,
 001A7A 7018/47F0 7042_01A7A 01A70 18110                       ELSEIF (R0,LT,CTARECSL),BEGIN
 001A86 1BEE                       18136  1                      CLEAR R14                 MAKE R0 MULTILPLE OF REC LEN
 001A88 18F0                       18140  1                      LR    R15,R0
 001A8A 5DE0 78EE            02354 18141  1                      D     R14,=A(L'SMFCTRC)
 001A8E 4CF0 78EE            02354 18142  1                      MH    R15,=A(L'SMFCTRC)
 001A92 180F                       18143  1                      LR    R0,R15
 001A94 1821                       18144  1                      LR    R2,R1               COPY RECS TO AREA
 001A96 1830                       18145  1                      LR    R3,R0
 001A98 41E0 4008            00008 18146  1                      LA    R14,CTARECS
 001A9C 18F0                       18147  1                      LR    R15,R0
 001A9E 0E2E                       18148  1                      MVCL  R2,R14
 001AA0 41F0 0001            00001 18149  1                      LA    R15,1
 001AA4 5008 0004            00004 18150  1                      PRETURN R0
 001AA8                            18152                       END
                                   18156
                                   18157                       COMMENT                   CAN COPY ALL RECORDS TO AREA
 001AA8 7046/47F0 705C 01AA8 01A84 18158                       ELSE  BEGIN
 001AAC 5800 4004            00004 18169  1                      L     R0,CTARECSL
 001AB0 1821                       18170  1                      LR    R2,R1               COPY RECS TO AREA
 001AB2 1830                       18171  1                      LR    R3,R0
 001AB4 41E0 4008            00008 18172  1                      LA    R14,CTARECS
1ACCT     (ACCT2025) (12:39) (15MAR04) Accounting Routines                                                                  Page   43
0Current Usings:  (CTAREA,R4) (JCB,R5) (*,R7) (CP,R11) (CV,R12)
0Loc    Object Code    Addr1 Addr2  Stmt Lv Lineno    Source Statement           (Hibal 5, Asmedit 3.3)  HLASM R4.0  2004/03/15 12.39
+___    ______ ____    _____ _____  ____ __ ______    ______ _________
0001AB8 18F0                       18173  1                      LR    R15,R0
 001ABA 0E2E                       18174  1                      MVCL  R2,R14
 001ABC 1BFF                       18175  1                      CLEAR R15
 001ABE 5008 0004            00004 18179  1                      PRETURN R0
 001AC2                            18181                       END
                                   18185
 001AC2 18D8/9808 D004_            18186                       PEND
 DROP   *,R7
 DROP   CTAREA,R4                  18206                       DROP  R4
 DROP   JCB,R5                     18213                       DROP  R5
1ACCT     (ACCT2025) (12:39) (15MAR04) Accounting Routines                                                                  Page   44
0Current Usings:  (CP,R11) (CV,R12)
0Loc    Object Code    Addr1 Addr2  Stmt Lv Lineno    Source Statement           (Hibal 5, Asmedit 3.3)  HLASM R4.0  2004/03/15 12.39
+___    ______ ____    _____ _____  ____ __ ______    ______ _________
0                                  18221              ¿þþþþþþþþþþþþþþþþþþþþþþþþþþþþþþþþþþþþþþþþþþþþþþþþþþþþþþþþþþþþþþþþþþþþþÜ
                                   18222              Ÿ                                                                     Ÿ
                                   18223              Ÿ  WBILL -- WBILL Command.                                            Ÿ
                                   18224              Ÿ                                                                     Ÿ
                                                      ¾þþþþþþþþþþþþþþþþþþþþþþþþþþþþþþþþþþþþþþþþþþþþþþþþþþþþþþþþþþþþþþþþþþþþþ»
0000000                00000 00018 18225              WBILLWA  RECORD BEGIN
 000000                            18233  1           WBILNAME   DS    CL8                 BILL type
 000008                            18234  1           WBILTAG    DS    CL(L'SINSTAG)       Saved session tag
 000018                00018 00018 18235                       END
                                   18244              þþþþ
 001AD0 50E0 D000/9008_      00000 18245              WBILL    XPROC WBILLWA
 USING  *,R7
 USING  WBILLWA-(4+36),R8
 DROP   WBILLWA-(4+36),R8          18296                       USING WBILLWA,WAR
 USING  WBILLWA,R8
 001AEA D717 8000 8000 00000 00000 18308                       CLEAR WBILLWA
                                   18315
 001AF0 5810 B08C/1B00_      0008C 18316                       SCAN  ,
 001B3E 58E0 7872/0DEE       0235C 18347                       SCANCHK
 001B44 1200/4780 C7F0             18352                       IF    (R0,Z),CVABSENT
                                   18369
 001B4A 58F0 B08C/4110_      0008C 18370                       SCUPCASE WBILNAME         Save billing name
 001B5C D507 781E 8000_02308 00000 18391                       IF    (WBILNAME,EQ,=CL8'LOGON'),'VCALL NOTVALID'
 001B6C D507 7826 8000_02310 00000 18417                       IF    (WBILNAME,EQ,=CL8'LOGOFF'),'VCALL NOTVALID'
 001B7C D507 782E 8000_02318 00000 18443                       IF    (WBILNAME,EQ,=CL8'CRASH'),'VCALL NOTVALID'
                                   18469
 001B8C 9120 B3BE/4710_003BE       18470                       IF    ~CPSFSPR,BEGIN      Not priv'd...
 001B94 D503 787E 8000_02368 00000 18485  1                      IF    (WBILNAME,EQ,'TEST'),EXIT  Allow "TESTxxxx"
 001B9E 58E0 787A/0DEE       02364 18505  1                      VCALL NOTVALID            Sorry pal
 001BA4                            18509                       END
                                   18513
 001BA4 5850 C1C0            001C0 18514                       L     R5,CVFJCB
 001BA8                            18515                       LOOP  BEGIN
 USING  JCB,R5                     18521  1                      WITH  (JCB,R5)
 001BA8 9180 5060/4710_00060       18534  1                      IF    ~JCBWFSO,BEGIN      User is logged on...
 001BB0 9102 5063/4710_00063       18549  2                        IF    JCBFBILLED,WBILNEXT   Already billed, forget it
 001BB8 D604 504A 504A_0004A 0004A 18567  2                        IF    (JCBACCT,Z),WBILNEXT  Not really logged on
 001BC2 D603 5070 5070_00070 00070 18586  2                        IF    (JCBUCEP,Z),WBILNEXT
                                   18605  2
 001BCC 5830 5038/1233       00038 18606  2                        LT    R3,JCBSINP          SIN ptr
 001BD2 4780 71D2            01CBC 18610  2                        IF    Z,WBILNEXT          Nothing, scram
 USING  SIN,R3                     18624  2                        WITH  (SIN,R3),BEGIN
 001BD6 D502 791C 3000_02406 00000 18638  3                          IF    (SIN,NE,'SIN'),WBILNEXT  Not valid, scram
 001BE0 D607 3014 3014_00014 00014 18658  3                          IF    (SINLCLCK,Z),WBILNEXT    Not set up yet, scram
 001BEA D20F 8008 3052 00008 00052 18677  3                          MVC   WBILTAG,SINSTAG     Save session tag
 DROP   SIN,R3                     18678  2                        END
                                   18686  2
 001BF0 41F0 5000            00000 18687  2                        LA    R15,JCB
 001BF4 4110 8000            00000 18688  2                        LA    R1,WBILNAME
 001BF8 58E0 7882/0DEE       0236C 18689  2                        ACALL DOBILL              Write billing record
                                   18693  2
 001BFE 4110 8000/4100_      00000 18694  2                        TSEG  WBILNAME,,T
 001C10 4110 791F/4100_      02409 18722  2                        TSEG  ' billing record written for line '
1ACCT     (ACCT2025) (12:39) (15MAR04) Accounting Routines                                                                  Page   45
0Current Usings:  (JCB,R5) (*,R7) (WBILLWA,R8) (CP,R11) (CV,R12)
0Loc    Object Code    Addr1 Addr2  Stmt Lv Lineno    Source Statement           (Hibal 5, Asmedit 3.3)  HLASM R4.0  2004/03/15 12.39
+___    ______ ____    _____ _____  ____ __ ______    ______ _________
0001C22 4810 5048/1B00_      00048 18740  2                        TNUM  LH:JCBSEQ
 001C32 4110 78EC/4100_      023D6 18761  2                        TSEG  ' ('
 001C44 4110 504D/4100_      0004D 18779  2                        TSEG  JCBGRP
 001C56 4110 7940/4100_      0242A 18807  2                        TSEG  '.'
 001C68 4110 504A/4100_      0004A 18825  2                        TSEG  JCBUSER
 001C7A 4110 7941/4100_      0242B 18853  2                        TSEG  ')'
 001C8C 4110 78EE/4100_      023D8 18871  2                        TSEG  ', session '
 001C9E 4110 8008/4100_      00008 18889  2                        TSEG  WBILTAG,,T
 001CB0 1B00/41F0 B050_            18917  2                        TWRITE
 001CBC                            18942  1                      END
                                   18946  1
 001CBC 4150 50D0            000D0 18947  1           WBILNEXT   LA    R5,JCBNEXT
 001CC0 5950 C1C4/47A0_      001C4 18948  1                      UNTIL (R5,GE,CVLJCB)
 001CC8 47F0 70BE            01BA8 18969                       END
 DROP   JCB,R5
                                   18979
 001CCC 47F0 C7DE            007DE 18980                       B     CVNEXT
                                   18981
 001CD0 18D8/9808 D004_            18982                       PEND  ,
 DROP   WBILLWA,R8
 DROP   *,R7
1ACCT     (ACCT2025) (12:39) (15MAR04) Accounting Routines                                                                  Page   46
0Current Usings:  (CP,R11) (CV,R12)
0Loc    Object Code    Addr1 Addr2  Stmt Lv Lineno    Source Statement           (Hibal 5, Asmedit 3.3)  HLASM R4.0  2004/03/15 12.39
+___    ______ ____    _____ _____  ____ __ ______    ______ _________
0                                  19008              ¿þþþþþþþþþþþþþþþþþþþþþþþþþþþþþþþþþþþþþþþþþþþþþþþþþþþþþþþþþþþþþþþþþþþþþÜ
                                   19009              Ÿ                                                                     Ÿ
                                   19010              Ÿ  DISPLGF -- Routine to display logoff messages.                     Ÿ
                                   19011              Ÿ                                                                     Ÿ
                                                      ¾þþþþþþþþþþþþþþþþþþþþþþþþþþþþþþþþþþþþþþþþþþþþþþþþþþþþþþþþþþþþþþþþþþþþþ»
0001CDE 50E0 D000/9008_      00000 19012              DISPLGF  XPROC
 USING  *,R7
                                   19052                       ¿þþþþþþþþþþþþþþþþþþþþþþþþþþþþþþþþþþþþþþþþþþþþþþþþÜ
                                   19053                       Ÿ  Skip logoff statistics for printer sessions.  Ÿ
                                   19054                       ¾þþþþþþþþþþþþþþþþþþþþþþþþþþþþþþþþþþþþþþþþþþþþþþþþ»
 001CF8 9104 B3BB/4710_003BB       19055                       IF    CPSSFPRT,DISPLXIT   No statistics, scram
                                   19073                       ¿þþþþþþþþþþþþþþþþþþþþþþþþþþþþþþþþþþþþþþþþþþþÜ
                                   19074                       Ÿ  Logoff message with session statistics.  Ÿ
                                   19075                       ¾þþþþþþþþþþþþþþþþþþþþþþþþþþþþþþþþþþþþþþþþþþþ»
 001D00 9180 B3BC/4710_003BC       19076                       IF    ~CPSFNST,BEGIN      Display cost statistics...
 001D08 4DE0 7130            01E28 19091  1                      LCALL DISPCOST
 001D0C 47F0 7122            01E1A 19093  1                      B     DISPLXIT
 001D10                            19094                       END
                                   19098                       ¿þþþþþþþþþþþþþþþþþþþþþþþþþþþþþþþþþþþþþþþþþþþþþþÜ
                                   19099                       Ÿ  Logoff message without session statistics.  Ÿ
                                   19100                       ¾þþþþþþþþþþþþþþþþþþþþþþþþþþþþþþþþþþþþþþþþþþþþþþ»
 001D10 186D/41D0 D034             19101                       XPUSH ,,L'COSTCB,PTR=R6
 USING  COSTCB,R6                  19104                       USING COSTCB,R6
 001D16 1816                       19113                       LR    R1,R6
 001D18 58E0 7688/0DEE       02380 19114                       ACALL GETCOST             Get costs
                                   19118                       ¿þþþþþþþþþþþþþþþþþþþþþþþþþÜ
                                   19119                       Ÿ  Display elapsed time.  Ÿ
                                   19120                       ¾þþþþþþþþþþþþþþþþþþþþþþþþþ»
 001D1E 4110 7734/4100_      0242C 19121                       TSEG  'You were logged on for '
                                   19139
 001D30 9845 6000            00000 19140                       LM    R4,R5,COSTECLK      Elapsed time
 001D34 8C40 000C            0000C 19141                       SRDL  R4,12               .000001 of a sec
 001D38 5D40 768C            02384 19142                       D     R4,=A(1000000)      We want seconds
 001D3C 5940 7690/4750_      02388 19143                       IF    (R4,GE,1000000/2),'INCR R5'  Round
                                   19168
 001D48 1B44                       19169                       CLEAR R4
 001D4A 5D40 7698            02390 19173                       D     R4,=A(60)           Minutes
 001D4E 1834                       19174                       LR    R3,R4               R3=seconds
                                   19175
 001D50 1B44                       19176                       CLEAR R4
 001D52 5D40 7698            02390 19180                       D     R4,=A(60)           R4=min, R5=hours
                                   19181
 001D56 1255/4770 706A_            19182                       IF    ((R5,NZ),OR,(R4,NZ)),BEGIN  Display hours and mins...
 001D62 1255/4780 70B2             19209  1                      IF    (R5,NZ),BEGIN       Display hours...
 001D68 1815/1B00/41F0_            19223  2                        TNUM  (R5)
 001D76 4110 76EA/4100_      023E2 19245  2                        SETMSG ' hours'
 001D7E 5950 7694/4770_      0238C 19249  2                        IF    (R5,EQ,1),'DECR R0'
 001D88 41F0 B050/58E0_      00050 19273  2                        TSEG  (R1),(R0)
 001D92 1244/4780 70B2_            19297  2                        IF    (R4,NZ),'TSEG " and "'
 001DAA                            19334  1                      END
                                   19338  1
 001DAA 1244/4780 70E2             19339  1                      IF    (R4,NZ),BEGIN       Display minutes...
 001DB0 1814/1B00/41F0_            19353  2                        TNUM  (R4)
1ACCT     (ACCT2025) (12:39) (15MAR04) Accounting Routines                                                                  Page   47
0Current Usings:  (COSTCB,R6) (*,R7) (CP,R11) (CV,R12)
0Loc    Object Code    Addr1 Addr2  Stmt Lv Lineno    Source Statement           (Hibal 5, Asmedit 3.3)  HLASM R4.0  2004/03/15 12.39
+___    ______ ____    _____ _____  ____ __ ______    ______ _________
0001DBE 4110 7628/4100_      02320 19375  2                        SETMSG ' minutes'
 001DC6 5940 7694/4770_      0238C 19379  2                        IF    (R4,EQ,1),'DECR R0'
 001DD0 41F0 B050/58E0_      00050 19403  2                        TSEG  (R1),(R0)
 001DDA                            19427  1                      END
 001DDA                            19431                       END
                                   19435
 001DDA 70E6/47F0 7110 01DDA 01D60 19436                       ELSE  BEGIN               Just display seconds...
 001DDE 1813/1B00/41F0_            19447  1                      TNUM  (R3)
 001DEC 4110 7630/4100_      02328 19469  1                      SETMSG ' seconds'
 001DF4 5930 7694/4770_      0238C 19473  1                      IF    (R3,EQ,1),'DECR R0'
 001DFE 41F0 B050/58E0_      00050 19497  1                      TSEG  (R1),(R0)
 001E08                            19521                       END
                                   19525
 001E08 4110 7750/4100_      02448 19526                       TSEG  '.  '
 001E1A 18D8/9808 D004_            19544              DISPLXIT PEND
 DROP   *,R7
 DROP   COSTCB,R6                  19565                       DROP  COSTCB
1ACCT     (ACCT2025) (12:39) (15MAR04) Accounting Routines                                                                  Page   48
0Current Usings:  (CP,R11) (CV,R12)
0Loc    Object Code    Addr1 Addr2  Stmt Lv Lineno    Source Statement           (Hibal 5, Asmedit 3.3)  HLASM R4.0  2004/03/15 12.39
+___    ______ ____    _____ _____  ____ __ ______    ______ _________
0                                  19574              ¿þþþþþþþþþþþþþþþþþþþþþþþþþþþþþþþþþþþþþþþþþþþþþþþþþþþþþþþþþþþþþþþþþþþþþÜ
                                   19575              Ÿ                                                                     Ÿ
                                   19576              Ÿ  DISPCOST -- Routine to display current session costs.              Ÿ
                                   19577              Ÿ                                                                     Ÿ
                                                      ¾þþþþþþþþþþþþþþþþþþþþþþþþþþþþþþþþþþþþþþþþþþþþþþþþþþþþþþþþþþþþþþþþþþþþþ»
0001E28 50E0 D000/9008_      00000 19578              DISPCOST XPROC
 USING  *,R7
 001E42 186D/41D0 D034             19618                       XPUSH ,,L'COSTCB,PTR=R6
 USING  COSTCB,R6                  19621                       USING COSTCB,R6
 001E48 1816                       19630                       LR    R1,R6
 001E4A 58E0 753E/0DEE       02380 19631                       ACALL GETCOST             Get costs
                                   19635                       ¿þþþþþþþþþþþþþþþþþþþþþþþþþþþþþþÜ
                                   19636                       Ÿ  SHOW COST INTERNAL format.  Ÿ
                                   19637                       ¾þþþþþþþþþþþþþþþþþþþþþþþþþþþþþþ»
 001E50 9110 BD58/47E0_00D58       19638                       IF    CPFINT,BEGIN        Internal format...
 001E58 58F0 6008            00008 19653  1                      L     R15,COSTCON$
 001E5C 5EF0 6010            00010 19654  1                      AL    R15,COSTTIO$
 001E60 5EF0 6018            00018 19655  1                      AL    R15,COSTWCPU$
 001E64 5EF0 6020            00020 19656  1                      AL    R15,COSTWIO$
 001E68 5EF0 6028            00028 19657  1                      AL    R15,COSTVCPU$
 001E6C 5EF0 6030            00030 19658  1                      AL    R15,COSTVIO$
 001E70 4DE0 7436            02278 19659  1                      LCALL DISPDOLI            Total dollar cost
                                   19661  1
 001E74 98EF 6000            00000 19662  1                      LM    R14,R15,COSTECLK    Elapsed time
 001E78 8CE0 000C            0000C 19663  1                      SRDL  R14,12              .000001 of a sec
 001E7C 5DE0 7542            02384 19664  1                      D     R14,=A(1000000)     We want seconds
 001E80 59E0 7546/4750_      02388 19665  1                      IF    (R14,GE,1000000/2),'INCR R15'  Round
 001E8C 181F/4100 0006_            19690  1                      TNUM  (R15),6             Elapsed seconds
 001E9C 4110 C4D8/4100_      004D8 19715  1                      TSEG  CVBLANKS,1
                                   19745  1
 001EAE 58F0 6008            00008 19746  1                      L     R15,COSTCON$
 001EB2 4DE0 7436            02278 19747  1                      LCALL DISPDOLI            Elapsed cost
                                   19749  1
 001EB6 58F0 6014            00014 19750  1                      L     R15,COSTWCPU
 001EBA 58E0 7552/0DEE       02394 19751  1                      ACALL CPUFIX              Convert to virtual cpu seconds
 001EC0 1BEE                       19755  1                      CLEAR R14
 001EC2 5CE0 7556            02398 19759  1                      M     R14,=F'10'
 001EC6 5DE0 755A            0239C 19760  1                      D     R14,=F'384'         .001 of a CPU second
 001ECA 59E0 755E/4750_      023A0 19761  1                      IF    (R14,GE,384/2),'INCR R15'  Round
 001ED6 4100 0803/4110_      00803 19786  1                      BTR   CPDOUB,(8,3),(R15)
 001EE4 41F0 B050/58E0_      00050 19808  1                      TSEG  (R1),(R0),B         WYLBUR CPU seconds
                                   19832  1
 001EEE 58F0 6018            00018 19833  1                      L     R15,COSTWCPU$
 001EF2 4DE0 7436            02278 19834  1                      LCALL DISPDOLI            WYLBUR CPU cost
                                   19836  1
 001EF6 58F0 6024            00024 19837  1                      L     R15,COSTVCPU
 001EFA 58E0 7552/0DEE       02394 19838  1                      ACALL CPUFIX              Convert to virtual cpu seconds
 001F00 1BEE                       19842  1                      CLEAR R14
 001F02 5CE0 7556            02398 19846  1                      M     R14,=F'10'
 001F06 5DE0 755A            0239C 19847  1                      D     R14,=F'384'         .001 of a CPU second
 001F0A 59E0 755E/4750_      023A0 19848  1                      IF    (R14,GE,384/2),'INCR R15'  Round
 001F16 4100 0803/4110_      00803 19873  1                      BTR   CPDOUB,(8,3),(R15)
 001F24 41F0 B050/58E0_      00050 19895  1                      TSEG  (R1),(R0),B         ORVYL CPU seconds
1ACCT     (ACCT2025) (12:39) (15MAR04) Accounting Routines                                                                  Page   49
0Current Usings:  (COSTCB,R6) (*,R7) (CP,R11) (CV,R12)
0Loc    Object Code    Addr1 Addr2  Stmt Lv Lineno    Source Statement           (Hibal 5, Asmedit 3.3)  HLASM R4.0  2004/03/15 12.39
+___    ______ ____    _____ _____  ____ __ ______    ______ _________
0                                  19919  1
 001F2E 58F0 6028            00028 19920  1                      L     R15,COSTVCPU$
 001F32 4DE0 7436            02278 19921  1                      LCALL DISPDOLI            ORVYL CPU cost
                                   19923  1
 001F36 5810 601C/4100_      0001C 19924  1                      TNUM  L:COSTWIO,6         WYLBUR disk I/O's
 001F48 4110 C4D8/4100_      004D8 19949  1                      TSEG  CVBLANKS,1
                                   19979  1
 001F5A 58F0 6020            00020 19980  1                      L     R15,COSTWIO$
 001F5E 4DE0 7436            02278 19981  1                      LCALL DISPDOLI            WYLBUR disk I/O cost
                                   19983  1
 001F62 5810 602C/4100_      0002C 19984  1                      TNUM  COSTVIO,6           ORVYL disk I/O's
 001F74 4110 C4D8/4100_      004D8 20009  1                      TSEG  CVBLANKS,1
                                   20039  1
 001F86 58F0 6030            00030 20040  1                      L     R15,COSTVIO$
 001F8A 4DE0 7436            02278 20041  1                      LCALL DISPDOLI            ORVYL disk I/O cost
                                   20043  1
 001F8E 5810 600C/4100_      0000C 20044  1                      TNUM  COSTTIO,6           Terminal I/O's
 001FA0 4110 C4D8/4100_      004D8 20069  1                      TSEG  CVBLANKS,1
                                   20099  1
 001FB2 58F0 6010            00010 20100  1                      L     R15,COSTTIO$
 001FB6 4DE0 7436            02278 20101  1                      LCALL DISPDOLI            Terminal I/O cost
                                   20103  1
 001FBA 47F0 737E            021C0 20104  1                      B     DISPCXIT
 001FBE                            20105                       END
                                   20109                       ¿þþþþþþþþþþþþþþþþþþþþþþþþþþþþþþþþþÜ
                                   20110                       Ÿ  Regular SHOW COST formatting.  Ÿ
                                   20111                       ¾þþþþþþþþþþþþþþþþþþþþþþþþþþþþþþþþþ»
 001FBE 5820 B05C            0005C 20112                       L     R2,CPSEGLENF        (For column alignment later)
                                   20113
 001FC2 9801 6000            00000 20114                       LM    R0,R1,COSTECLK      Elapsed time
 001FC6 18FD/41D0 D020             20115                       XPUSH ,,32,PTR=R15
 001FCC 58E0 756A/0DEE       023AC 20118                       VCALL FMTTIME             Format "hh:mm:ss.hh"
 001FD2 4100 0008/41F0_      00008 20122                       TSEG  (R1),8              Hh:mm:ss
 001FE0 4BD0 75A6            023E8 20149                       XPOP  ,,32
 001FE4 4110 7609/4100_      0244B 20151                       TSEG  ' elapsed time'
 001FF6 58F0 6008            00008 20169                       L     R15,COSTCON$
 001FFA 4DE0 7398            021DA 20170                       LCALL DISPDOL             ($n.nn)
                                   20172
 001FFE 4100 2023            00023 20173                       LA    R0,@R2+35
 002002 5B00 B05C            0005C 20174                       S     R0,CPSEGLENF
 002006 4720 71CC/4100_      0200E 20175                       IF    NP,'LA R0,2'
 00200E 4110 C4D8/41F0_      004D8 20192                       TSEG  CVBLANKS,(R0)       Align to column 35
                                   20219
 00201C 58F0 601C            0001C 20220                       L     R15,COSTWIO         WYLBUR disk I/O's
 002020 5EF0 602C            0002C 20221                       AL    R15,COSTVIO         plus ORVYL disk I/O's
 002024 181F/1B00/41F0_            20222                       TNUM  (R15)
 002032 4110 7616/4100_      02458 20244                       TSEG  ' disk I/O''s'
 002044 58F0 6020            00020 20262                       L     R15,COSTWIO$
 002048 5EF0 6030            00030 20263                       AL    R15,COSTVIO$        Disk I/O cost
 00204C 4DE0 7398            021DA 20264                       LCALL DISPDOL             ($n.nn)
 002050 1B00/41F0 B050_            20266                       TCR
                                   20291
 00205C 5820 B05C            0005C 20292                       L     R2,CPSEGLENF
 002060 58F0 6014            00014 20293                       L     R15,COSTWCPU        WYLBUR CPU time
1ACCT     (ACCT2025) (12:39) (15MAR04) Accounting Routines                                                                  Page   50
0Current Usings:  (COSTCB,R6) (*,R7) (CP,R11) (CV,R12)
0Loc    Object Code    Addr1 Addr2  Stmt Lv Lineno    Source Statement           (Hibal 5, Asmedit 3.3)  HLASM R4.0  2004/03/15 12.39
+___    ______ ____    _____ _____  ____ __ ______    ______ _________
0002064 5EF0 6024            00024 20294                       AL    R15,COSTVCPU        Plus ORVYL CPU time
 002068 58E0 7552/0DEE       02394 20295                       ACALL CPUFIX              Convert to virtual cpu seconds
 00206E 1BEE                       20299                       CLEAR R14
 002070 5DE0 755A            0239C 20303                       D     R14,=F'384'         Convert to .01 sec
 002074 59E0 755E/4750_      023A0 20304                       IF    (R14,GE,384/2),'INCR R15'  round
 002080 4100 0002/4110_      00002 20329                       BTR   CPDOUB,(0,2),(R15)
 00208E 41F0 B050/58E0_      00050 20351                       TSEG  (R1),(R0)
 002098 4110 7572/4100_      023B4 20375                       TSEG  ' CPU seconds'
 0020AA 58F0 6018            00018 20393                       L     R15,COSTWCPU$
 0020AE 5EF0 6028            00028 20394                       AL    R15,COSTVCPU$       CPU cost
 0020B2 4DE0 7398            021DA 20395                       LCALL DISPDOL             ($n.nn)
                                   20397
 0020B6 4100 2023            00023 20398                       LA    R0,@R2+35
 0020BA 5B00 B05C            0005C 20399                       S     R0,CPSEGLENF
 0020BE 4720 7284/4100_      020C6 20400                       IF    NP,'LA R0,2'
 0020C6 4110 C4D8/41F0_      004D8 20417                       TSEG  CVBLANKS,(R0)       Align to column 35
                                   20444
 0020D4 5810 600C/1B00_      0000C 20445                       TNUM  L:COSTTIO           Terminal I/O's
 0020E4 4110 7621/4100_      02463 20467                       TSEG  ' terminal I/O''s'
 0020F6 58F0 6010            00010 20485                       L     R15,COSTTIO$
 0020FA 4DE0 7398            021DA 20486                       LCALL DISPDOL             ($n.nn)
 0020FE 1B00/41F0 B050_            20488                       TCR
                                   20513                      ¿þþþþþþþþþþþþþþþþþþþþþþþþþþþþþþþþþþþþþþþþþþþþþþþþþþþþþþþþþþþþþþþþÜ
                                   20514                      Ÿ  Don't give dollar amount if this is the RLG or SYSC machine.  Ÿ
                                   20515                      Ÿ     (This is Stanford specific.)                               Ÿ
                                   20516                      ¾þþþþþþþþþþþþþþþþþþþþþþþþþþþþþþþþþþþþþþþþþþþþþþþþþþþþþþþþþþþþþþþþ»
 00210A 9110 C4C4/4710_004C4       20517                       IF    ~CVFRLG,BEGIN       Give dollar amount if not RLG...
 002112 1911/4780 737E             20532  1                      IF    (R1,EQ,R1),EXIT     !! Never display $ amounts !!
 002118 D504 7630 C00C_02472 0000C 20550  1                      IF    (CVMACHID,EQ,'SYSC '),EXIT  Don't give dollar amount
 002122 1B00/41F0 B050_            20570  1                      TCR
 00212E 4110 75A8/4100_      023EA 20595  1                      SETMSG 'Total '
 002136 D502 7635 BD24_02477 00D24 20599  1                      IF    (CPCMNM,EQ,'COS'),'SETMSG "Current "'
 002148 41F0 B050/58E0_      00050 20625  1                      TSEG  (R1),(R0)
 002152 4110 75AE/4100_      023F0 20649  1                      TSEG  'session charges: $'
 002164 58F0 6008            00008 20667  1                      L     R15,COSTCON$
 002168 5EF0 6010            00010 20668  1                      AL    R15,COSTTIO$
 00216C 5EF0 6018            00018 20669  1                      AL    R15,COSTWCPU$
 002170 5EF0 6020            00020 20670  1                      AL    R15,COSTWIO$
 002174 5EF0 6028            00028 20671  1                      AL    R15,COSTVCPU$
 002178 5EF0 6030            00030 20672  1                      AL    R15,COSTVIO$
 00217C 1BEE                       20673  1                      CLEAR R14
 00217E 5DE0 7556            02398 20677  1                      D     R14,=F'10'
 002182 59E0 757E/4750_      023C0 20678  1                      IF    (R14,GE,5),'INCR R15'  Round
 00218E 4100 0002/4110_      00002 20703  1                      BTR   CPDOUB,(0,2),(R15)
 00219C 41F0 B050/58E0_      00050 20725  1                      TSEG  (R1),(R0),B
 0021A6 9120 CA00/47E0_00A00       20749  1                      IF    CVFNOSMF,'TSEG "(Not billed)"'
 0021C0                            20787                       END
 0021C0 1B00/41F0 B050_            20791              DISPCXIT TWRITE
 0021CC 18D8/9808 D004_            20817                       PEND
 DROP   *,R7
                                   20837
 DROP   COSTCB,R6                  20838                       DROP  COSTCB
1ACCT     (ACCT2025) (12:39) (15MAR04) Accounting Routines                                                                  Page   51
0Current Usings:  (CP,R11) (CV,R12)
0Loc    Object Code    Addr1 Addr2  Stmt Lv Lineno    Source Statement           (Hibal 5, Asmedit 3.3)  HLASM R4.0  2004/03/15 12.39
+___    ______ ____    _____ _____  ____ __ ______    ______ _________
0                                  20847              ¿þþþþþþþþþþþþþþþþþþþþþþþþþþþþþþþþþþþþþþþþþþþþþþþþþþþþþþþþþþþþþþþþþþþþþÜ
                                   20848              Ÿ                                                                     Ÿ
                                   20849              Ÿ  DISPDOL -- Local routine to display an amount in dollars.          Ÿ
                                   20850              Ÿ                                                                     Ÿ
                                   20851              Ÿ    On entry:                                                        Ÿ
                                   20852              Ÿ      R15 - amount, in .1 cents                                      Ÿ
                                   20853              Ÿ                                                                     Ÿ
                                                      ¾þþþþþþþþþþþþþþþþþþþþþþþþþþþþþþþþþþþþþþþþþþþþþþþþþþþþþþþþþþþþþþþþþþþþþ»
00021DA 50E0 D000/9008_      00000 20854              DISPDOL  PROC
 USING  *,R7
 0021F4 9110 C4C4/47E0_004C4       20893                       IF    CVFRLG,'CLEAR R15'  Don't show dollar amounts
 0021FE 1911/4770 7012_            20917                       IF    (R1,EQ,R1),'CLEAR R15'  !! Never display $ amounts !!
 002206 D504 727E C00C_02472 0000C 20941                       IF    (CVMACHID,EQ,'SYSC '),'CLEAR R15'  No dollars either
                                   20967
 002212 122F/4780 7076             20968                       IF    ('LTR R2,R15',NZ),BEGIN  We have some charges...
                                   20981  1                      ¿þþþþþþþþþþþþþþþþþþþþþþþþþÜ
                                   20982  1                      Ÿ  Write "$n.nn" amount.  Ÿ
                                   20983  1                      ¾þþþþþþþþþþþþþþþþþþþþþþþþþ»
 002218 1BEE                       20984  1                      CLEAR R14
 00221A 5DE0 71A4            02398 20988  1                      D     R14,=F'10'
 00221E 59E0 71CC/4750_      023C0 20989  1                      IF    (R14,GE,5),'INCR R15'  Round
 00222A 182F                       21014  1                      LR    R2,R15
                                   21015  1
 00222C 4110 7286/4100_      0247A 21016  1                      TSEG  ' ($'
 00223E 18F2/4100 0002_            21034  1                      BTR   CPDOUB,(0,2),(R2)
 00224E 41F0 B050/58E0_      00050 21057  1                      TSEG  (R1),(R0)
 002258 4110 720E/4100_      02402 21081  1                      TSEG  ') '
 00226A                            21099                       END
                                   21103
 00226A 18D8/9808 D004_            21104                       PEND
 DROP   *,R7
                                   21124
 002278 50E0 D000/9008_      00000 21125              DISPDOLI PROC
 USING  *,R7
 002292 182D/41D0 D008             21164                       XPUSH ,,8,PTR=R2
 002298 4100 0007/1812_      00007 21167                       BTD   @R2,7,(R15)
 0022A4 D606 2000 71EB 00000 0247D 21189                       OC    @R2(7),=C'0000000'
 0022AA 4110 71F2/4100_      02484 21190                       TSEG  '$'
 0022BC 1812/4100 0004_            21208                       TSEG  @R2,4
 0022CC 4110 7198/4100_      0242A 21238                       TSEG  '.'
 0022DE 4110 2004/4100_      00004 21256                       TSEG  @R2+4,3,B
 0022F0 4BD0 7172            02404 21286                       XPOP  ,,8
 0022F4 18D8/9808 D004_            21288                       PEND
 DROP   *,R7
                                   21308
                                   21309                       QLTORG
1ACCT     (ACCT2025) (12:39) (15MAR04) Accounting Routines                                                                  Page   52
0Current Usings:  (CP,R11) (CV,R12)
0Loc    Object Code    Addr1 Addr2  Stmt Lv Lineno    Source Statement           (Hibal 5, Asmedit 3.3)  HLASM R4.0  2004/03/15 12.39
+___    ______ ____    _____ _____  ____ __ ______    ______ _________
0                                  21388              ¿þþþþþþþþþþþþþþþþþþþþþþþþþþþþþþþþþþþþþþþþþþþþþþþþþþþþþþþþþþþþþþþþþþþþþÜ
                                   21389              Ÿ                                                                     Ÿ
                                   21390              Ÿ  GETCTOT -- Routine to get a specific charge field.                 Ÿ
                                   21391              Ÿ    Used to retreive the values for the WYLBUR_CPU,                  Ÿ
                                   21392              Ÿ    WYLBUR_IO, ORVYL_CPU and ORVYL_IO variables.                     Ÿ
                                   21393              Ÿ                                                                     Ÿ
                                   21394              Ÿ    On entry:                                                        Ÿ
                                   21395              Ÿ      @R15 - name of field to get                                    Ÿ
                                   21396              Ÿ                                                                     Ÿ
                                   21397              Ÿ    On exit:                                                         Ÿ
                                   21398              Ÿ      R15 - value                                                    Ÿ
                                   21399              Ÿ                                                                     Ÿ
                                                      ¾þþþþþþþþþþþþþþþþþþþþþþþþþþþþþþþþþþþþþþþþþþþþþþþþþþþþþþþþþþþþþþþþþþþþþ»
0002486 50E0 D000/9008_      00000 21400              GETCTOT  XPROC
 USING  *,R7
 0024A0 5850 C1C8            001C8 21440                       L     R5,CVCURJCB
 USING  JCB,R5                     21441                       WITH  (JCB,R5)
                                   21454                       ¿þþþþþþþþþþþþþþþþþþþþþþþþþþþþþþþþþþþþþþþþþþþþþþþþþÜ
                                   21455                       Ÿ  WYLBUR_CPU (returned in .001 sec increments).  Ÿ
                                   21456                       ¾þþþþþþþþþþþþþþþþþþþþþþþþþþþþþþþþþþþþþþþþþþþþþþþþþ»
 0024A4 D509 7218 F000_026B8 00000 21457                       IF    (@R15,EQ,'WYLBUR_CPU'),BEGIN
 0024AE 58E0 71F8/0DEE       02698 21473  1                      VCALL GETCPU              Get time since last dispatch
 0024B4 18F0                       21477  1                      LR    R15,R0              Time since last dispatch
 0024B6 5EF0 507C            0007C 21478  1                      AL    R15,JCBWCPU         Add in accumulated total
 0024BA 58E0 71FC/0DEE       0269C 21479  1                      ACALL CPUFIX              Convert to virtual cpu seconds
 0024C0 1BEE                       21483  1                      CLEAR R14
 0024C2 5CE0 7200            026A0 21487  1                      M     R14,=F'10'
 0024C6 5DE0 7204            026A4 21488  1                      D     R14,=F'384'         .001 of a CPU second
 0024CA 59E0 7208/4750_      026A8 21489  1                      IF    (R14,GE,384/2),'INCR R15'  Round
 0024D6 47F0 70B8            02558 21514  1                      B     CTOTEXIT
 0024DA                            21515                       END
                                   21519                       ¿þþþþþþþþþþþþþþÜ
                                   21520                       Ÿ  WYLBUR_IO.  Ÿ
                                   21521                       ¾þþþþþþþþþþþþþþ»
 0024DA D508 7238 F000_026D8 00000 21522                       IF    (@R15,EQ,'WYLBUR_IO'),BEGIN
 0024E4 58F0 5080            00080 21538  1                      L     R15,JCBWIO          WYLBUR disk I/O's
 0024E8 47F0 70B8            02558 21539  1                      B     CTOTEXIT
 0024EC                            21540                       END
                                   21544                       ¿þþþþþþþþþþþþþþþþþþþþþþþþþþþþþþþþþþþþþþþþþþþþþþþþÜ
                                   21545                       Ÿ  ORVYL_CPU (returned in .001 sec increments).  Ÿ
                                   21546                       ¾þþþþþþþþþþþþþþþþþþþþþþþþþþþþþþþþþþþþþþþþþþþþþþþþ»
 0024EC D508 7241 F000_026E1 00000 21547                       IF    (@R15,EQ,'ORVYL_CPU'),BEGIN
 0024F6 5820 5038/1222       00038 21563  1                      LT    R2,JCBSINP
 0024FC 4770 7062/1BFF       02502 21567  1                      IF    Z,'CLEAR R15'       (Shouldn't happen)
 002502 7066/47F0 706E 02502 024FE 21587  1                      ELSE  BEGIN
 USING  SIN,R2                     21598  2                        WITH  (SIN,R2)
 002506 58F0 20A0            000A0 21611  2                        L     R15,SINVCPU         ORVYL CPU time
 00250A 5EF0 20A8            000A8 21612  2                        AL    R15,SINVOCPU        Add in previous ORVYL CPU time
 DROP   SIN,R2                     21613  1                      END
                                   21622  1           *  (We now have the total ORVYL CPU time in R15.)
 00250E 58E0 71FC/0DEE       0269C 21623  1                      ACALL CPUFIX              Convert to virtual cpu seconds
 002514 1BEE                       21627  1                      CLEAR R14
 002516 5CE0 7200            026A0 21631  1                      M     R14,=F'10'
1ACCT     (ACCT2025) (12:39) (15MAR04) Accounting Routines                                                                  Page   53
0Current Usings:  (JCB,R5) (*,R7) (CP,R11) (CV,R12)
0Loc    Object Code    Addr1 Addr2  Stmt Lv Lineno    Source Statement           (Hibal 5, Asmedit 3.3)  HLASM R4.0  2004/03/15 12.39
+___    ______ ____    _____ _____  ____ __ ______    ______ _________
000251A 5DE0 7204            026A4 21632  1                      D     R14,=F'384'         .001 of a CPU second
 00251E 59E0 7208/4750_      026A8 21633  1                      IF    (R14,GE,384/2),'INCR R15'  Round
 00252A 47F0 70B8            02558 21658  1                      B     CTOTEXIT
 00252E                            21659                       END
                                   21663                       ¿þþþþþþþþþþþþþÜ
                                   21664                       Ÿ  ORVYL_IO.  Ÿ
                                   21665                       ¾þþþþþþþþþþþþþ»
 00252E D507 71F0 F000_02690 00000 21666                       IF    (@R15,EQ,'ORVYL_IO'),BEGIN
 002538 5820 5038/1222       00038 21682  1                      LT    R2,JCBSINP
 00253E 4770 70A4/1BFF       02544 21686  1                      IF    Z,'CLEAR R15'       (Shouldn't happen)
 002544 70A8/47F0 70B2 02544 02540 21706  1                      ELSE  BEGIN
 USING  SIN,R2                     21717  2                        WITH  (SIN,R2)
 002548 1FFF/BFF7 20A5             21730  2                        L3    R15,SINVDIO         ORVYL disk I/Os
 00254E 5EF0 20AC            000AC 21738  2                        AL    R15,SINVODIO        Add in previous ORVYL I/O count
 DROP   SIN,R2                     21739  1                      END
 002552 47F0 70B8            02558 21748  1                      B     CTOTEXIT
 002556                            21749                       END
                                   21753                       ¿þþþþþþþþþþþþþþþþþþþþþþþþþþþþþþþþþþþþþþþþþþþþþþþþþþÜ
                                   21754                       Ÿ  We don't know about the field, so return zero.  Ÿ
                                   21755                       ¾þþþþþþþþþþþþþþþþþþþþþþþþþþþþþþþþþþþþþþþþþþþþþþþþþþ»
 002556 1BFF                       21756                       CLEAR R15
 002558 18D8/9808 D004_            21760              CTOTEXIT PEND
 DROP   JCB,R5
 DROP   *,R7
1ACCT     (ACCT2025) (12:39) (15MAR04) Accounting Routines                                                                  Page   54
0Current Usings:  (CP,R11) (CV,R12)
0Loc    Object Code    Addr1 Addr2  Stmt Lv Lineno    Source Statement           (Hibal 5, Asmedit 3.3)  HLASM R4.0  2004/03/15 12.39
+___    ______ ____    _____ _____  ____ __ ______    ______ _________
0                                  21787              ¿þþþþþþþþþþþþþþþþþþþþþþþþþþþþþþþþþþþþþþþþþþþþþþþþþþþþþþþþþþþþþþþþþþþþþÜ
                                   21788              Ÿ                                                                     Ÿ
                                   21789              Ÿ  GETCVAR -- Routine to get a specific charge component field.       Ÿ
                                   21790              Ÿ                                                                     Ÿ
                                   21791              Ÿ    On entry:                                                        Ÿ
                                   21792              Ÿ      R1,R0 - charging component name                                Ÿ
                                   21793              Ÿ      @R15 - name of field to get                                    Ÿ
                                   21794              Ÿ                                                                     Ÿ
                                   21795              Ÿ    On exit:                                                         Ÿ
                                   21796              Ÿ      R15 - value                                                    Ÿ
                                   21797              Ÿ                                                                     Ÿ
                                                      ¾þþþþþþþþþþþþþþþþþþþþþþþþþþþþþþþþþþþþþþþþþþþþþþþþþþþþþþþþþþþþþþþþþþþþþ»
0000000                00000 00022 21798              CVARWA   RECORD BEGIN
 000000                            21806  1           CVARTYPE   DS    CL16                Charge type (e.g., WYLBUR_CPU)
 000010                            21807  1           CVARCLEN   DS    H                   Component name length
 000012                            21808  1           CVARCOMP   DS    CL16                Component name to match
 000022                00022 00022 21809                       END
                                   21818              þþþþ
 002566 50E0 D000/9008_      00000 21819              GETCVAR  XPROC CVARWA
 USING  *,R7
 USING  CVARWA-(4+36),R8
 002580 D721 8028 8028 00000 00000 21870                       CLEAR CVARWA
 002586 D20F 8028 F000 00000 00000 21877                       MVC   CVARTYPE,@R15       Save charge type
 00258C D20F 803A C4D8 00012 004D8 21878                       MVC   CVARCOMP,CVBLANKS   Pre-blank component name
 002592 5900 7130/47D0_      026B0 21879                       CEIL  R0,L'CVARCOMP
 00259E 4000 8038            00010 21898                       STH   R0,CVARCLEN         Save component name length
 0025A2 18F0                       21899                       LR    R15,R0
 0025A4 06F0/12FF/4740_            21900                       MOVE  R15,CVARCOMP,@R1    Save charge component name
 0025B0 5810 C8A8            008A8 21938                       L     R1,CVUPPTBL
 0025B4 DC0F 803A 1000 00012 00000 21939                       TR    CVARCOMP,@R1        Convert to upper case
                                   21940
 0025BA 5850 C1C8            001C8 21941                       L     R5,CVCURJCB
 USING  JCB,R5                     21942                       WITH  (JCB,R5)
                                   21955                       ¿þþþþþþþþþþþþþþþþþþþþþþþþþþþþþþþþþþþþþþþþþþþþþþþþþþþþþþþþþþþþÜ
                                   21956                       Ÿ  Make sure resource information for the current component  Ÿ
                                   21957                       Ÿ    is up to date.                                          Ÿ
                                   21958                       ¾þþþþþþþþþþþþþþþþþþþþþþþþþþþþþþþþþþþþþþþþþþþþþþþþþþþþþþþþþþþþ»
 0025BE 41F0 5000            00000 21959                       LA    R15,JCB
 0025C2 58E0 7134/0DEE       026B4 21960                       ACALL BILLUPD             Update current component info
                                   21964                       ¿þþþþþþþþþþþþþþþþþþþþþþþþþþþþþþþþþþþþþþþþþþþþþþþþþþþþÜ
                                   21965                       Ÿ  Build the total for the resource type requested.  Ÿ
                                   21966                       ¾þþþþþþþþþþþþþþþþþþþþþþþþþþþþþþþþþþþþþþþþþþþþþþþþþþþþ»
 0025C8 1B66                       21967                       CLEAR R6                  Cummulative resource total
                                   21971
 0025CA 4140 5070            00070 21972                       LA    R4,JCBUCEQH-(UCELINK-UCE)  Dummy first link
 USING  UCE,R4                     21973                       WITH  (UCE,R4)
 0025CE 5840 4004/1244_      00004 21986                       WHILE ('LT R4,UCELINK',NZ),BEGIN  Go through components...
 0025D8 48F0 8038/12FF       00010 22004  1                      LTH   R15,CVARCLEN
 0025DE 47D0 7084            02604 22008  1                      BNP   CVARMAT             Zero length means match everything
 0025E2 06F0/12FF/4740_            22009  1                      CMPR  R15,UCECOMP,CVARCOMP  Does component name stem match?
 0025EE 4780 7084            02604 22047  1                      BE    CVARMAT             Yes
 0025F2 D501 7142 803A_026C2 00012 22048  1                      IF    ((CVARCOMP,EQ,'* '),AND,(R4,EQ,JCBUCEP)),BEGIN
 002604 D509 7144 8028_026C4 00000 22081  2           CVARMAT      IF    (CVARTYPE,EQ,'ORVYL_CPU '),'AL R6,UCEVCPU'
1ACCT     (ACCT2025) (12:39) (15MAR04) Accounting Routines                                                                  Page   55
0Current Usings:  (UCE,R4) (JCB,R5) (*,R7) (CVARWA-(4+36),R8) (CP,R11) (CV,R12)
0Loc    Object Code    Addr1 Addr2  Stmt Lv Lineno    Source Statement           (Hibal 5, Asmedit 3.3)  HLASM R4.0  2004/03/15 12.39
+___    ______ ____    _____ _____  ____ __ ______    ______ _________
0002612 7096/47F0 70A4_02612 0260C 22105  2                        ELSEIF (CVARTYPE,EQ,'ORVYL_IO '),'AL R6,UCEVIO'
 002624 70A8/47F0 70B6_02624 0261E 22137  2                        ELSEIF (CVARTYPE,EQ,'WYLBUR_CPU '),'AL R6,UCEWCPU'
 002636 70BA/47F0 70C8_02636 02630 22169  2                        ELSEIF (CVARTYPE,EQ,'WYLBUR_IO '),'AL R6,UCEWIO'
 002648                            22201  1                      END
 002648 47F0 704E            025CE 22205                       END
                                   22210
 00264C 18F6                       22211                       LR    R15,R6              Resource total
                                   22212
                                   22213            C          IF    ((CVARTYPE,EQ,'ORVYL_CPU '),OR,
 00264E D509 7144 8028_026C4 00000                                   (CVARTYPE,EQ,'WYLBUR_CPU ')),BEGIN  Cvt CPU units...
 002662 58E0 711C/0DEE       0269C 22246  1                      ACALL CPUFIX              Convert to virtual cpu seconds
 002668 1BEE                       22250  1                      CLEAR R14
 00266A 5CE0 7120            026A0 22254  1                      M     R14,=F'10'
 00266E 5DE0 7124            026A4 22255  1                      D     R14,=F'384'         Convert to .001 sec
 002672 59E0 7128/4750_      026A8 22256  1                      IF    (R14,GE,384/2),'INCR R15'  Round
 00267E                            22281                       END
                                   22285
 00267E 18D8/9808 D004_            22286                       PEND
 DROP   UCE,R4
 DROP   JCB,R5
 DROP   CVARWA-(4+36),R8
 DROP   *,R7
                                   22321
                                   22322                       QLTORG
1ACCT     (ACCT2025) (12:39) (15MAR04) Accounting Routines                                                                  Page   56
0Current Usings:  (CP,R11) (CV,R12)
0Loc    Object Code    Addr1 Addr2  Stmt Lv Lineno    Source Statement           (Hibal 5, Asmedit 3.3)  HLASM R4.0  2004/03/15 12.39
+___    ______ ____    _____ _____  ____ __ ______    ______ _________
0                                  22352              ¿þþþþþþþþþþþþþþþþþþþþþþþþþþþþþþþþþþþþþþþþþþþþþþþþþþþþþþþþþþþþþþþþþþþþþÜ
                                   22353              Ÿ                                                                     Ÿ
                                   22354              Ÿ  CPUFIX -- Routine to convert actual CPU seconds to                 Ÿ
                                   22355              Ÿ    "virtual" CPU seconds.                                           Ÿ
                                   22356              Ÿ                                                                     Ÿ
                                   22357              Ÿ    On entry:                                                        Ÿ
                                   22358              Ÿ      R15 - Real cpu seconds (in any increments)                     Ÿ
                                   22359              Ÿ                                                                     Ÿ
                                   22360              Ÿ    On exit:                                                         Ÿ
                                   22361              Ÿ      R15 - Virtual cpu seconds                                      Ÿ
                                   22362              Ÿ                                                                     Ÿ
                                   22363              Ÿ  Note: we limit R15 to x'04000000' maximum value.  this             Ÿ
                                   22364              Ÿ   eliminates S0C9 abend on Divide instruction.                      Ÿ
                                   22365              Ÿ   We assume that accounting will catch such LARGE! values of        Ÿ
                                   22366              Ÿ   CPU time and FLAG them as errors.  (these large values            Ÿ
                                   22367              Ÿ   represent not minutes, not hours, but DAYS! of cpu time.)         Ÿ
                                   22368              Ÿ                                                                     Ÿ
                                   22369              Ÿ                                                                     Ÿ
                                                      ¾þþþþþþþþþþþþþþþþþþþþþþþþþþþþþþþþþþþþþþþþþþþþþþþþþþþþþþþþþþþþþþþþþþþþþ»
000270A 50E0 D000/9008_      00000 22370              CPUFIX   XPROC
 USING  *,R7
 002724 D603 CDFC CDFC_00DFC 00DFC 22410                       IF    (CVCPUMUL,NZ),BEGIN  We have a cpu multiplier...
                                   22426  1           *        CEIL  R15,=X'04000000'    Avoid S0C9 abend if r15 LARGE!
 00272E 55F0 70D4/47D0_      027F8 22427  1                      IF    (R15,LGT,X'04000000'),BEGIN
 002736 58F0 70D8            027FC 22444  2                        L     R15,=X'04000000'
 00273A                            22445  1                      END
 00273A 1BEE                       22449  1                      CLEAR R14
 00273C 5CE0 CDFC            00DFC 22453  1                      M     R14,CVCPUMUL        Multiply by "cpu factor"
 002740 5DE0 70DC            02800 22454  1                      D     R14,=F'1000'
 002744 59E0 70E0/4750_      02804 22455  1                      IF    (R14,GE,500),'INCR R15'  Round
 002750                            22480                       END
 002750 18D8/9808 D004_            22484                       PEND
 DROP   *,R7
1ACCT     (ACCT2025) (12:39) (15MAR04) Accounting Routines                                                                  Page   57
0Current Usings:  (CP,R11) (CV,R12)
0Loc    Object Code    Addr1 Addr2  Stmt Lv Lineno    Source Statement           (Hibal 5, Asmedit 3.3)  HLASM R4.0  2004/03/15 12.39
+___    ______ ____    _____ _____  ____ __ ______    ______ _________
0                                  22505              ¿þþþþþþþþþþþþþþþþþþþþþþþþþþþþþþþþþþþþþþþþþþþþþþþþþþþþþþþþþþþþþþþþþþþþþÜ
                                   22506              Ÿ                                                                     Ÿ
                                   22507              Ÿ  SURCHARG -- Routine to apply surcharge to the (dollar) value       Ÿ
                                   22508              Ÿ    passed to it.                                                    Ÿ
                                   22509              Ÿ                                                                     Ÿ
                                   22510              Ÿ    The accounting system's "source of funds" (sof) and "accounts    Ÿ
                                   22511              Ÿ    receivable" (ar) codes determine the surcharge rate.  Here is    Ÿ
                                   22512              Ÿ    the current definition:                                          Ÿ
                                   22513              Ÿ                                                                     Ÿ
                                   22514              Ÿ    Only SOF=2 accounts can have a surcharge; the AR code            Ÿ
                                   22515              Ÿ    deterimines the percentage surcharge:                            Ÿ
                                   22516              Ÿ         AR=0    15% surcharge    Stanford Faculty/Staff             Ÿ
                                   22517              Ÿ         AR=1    35% surcharge    Educational                        Ÿ
                                   22518              Ÿ         AR=4    35% surcharge    Non-profit organization            Ÿ
                                   22519              Ÿ         AR=5    35% surcharge    Government organization            Ÿ
                                   22520              Ÿ         AR=7    35% surcharge    Other                              Ÿ
                                   22521              Ÿ         AR=9    15% surcharge    Stanford Student                   Ÿ
                                   22522              Ÿ                                                                     Ÿ
                                   22523              Ÿ    On entry:                                                        Ÿ
                                   22524              Ÿ      @R1 - ptr to user's sof/ar codes (2 char field)                Ÿ
                                   22525              Ÿ      R15 - Value                                                    Ÿ
                                   22526              Ÿ                                                                     Ÿ
                                   22527              Ÿ    On exit:                                                         Ÿ
                                   22528              Ÿ      R15 - Value with surcharge applied                             Ÿ
                                   22529              Ÿ                                                                     Ÿ
                                                      ¾þþþþþþþþþþþþþþþþþþþþþþþþþþþþþþþþþþþþþþþþþþþþþþþþþþþþþþþþþþþþþþþþþþþþþ»
000275E 50E0 D000/9008_      00000 22530              SURCHARG PROC
 USING  *,R7
 002778 1841                       22569                       LR    R4,R1               Ptr to sof/ar codes
                                   22570                       ¿þþþþþþþþþþþþþþþþþþþþþþþþþþþþþþþþþþþþþþþþþþþþþÜ
                                   22571                       Ÿ  Surcharge is only done on sof=2 accounts.  Ÿ
                                   22572                       ¾þþþþþþþþþþþþþþþþþþþþþþþþþþþþþþþþþþþþþþþþþþþþþ»
 00277A 95F2 4000/4770_00000       22573                       IF    (@R4,EQ,'2'),BEGIN  External account...
 002782 1B22                       22589  1                      CLEAR R2                  No surcharge
                                   22593  1                      AIF   ('&INSTALN' NE 'STANFORD').NOSURCH
 002784 95F0 4001/4770_00001       22594  1                      IF    (@R4+1,EQ,'0'),'LA R2,1150'  15% surcharge
 002790 95F1 4001/4770_00001       22616  1                      IF    (@R4+1,EQ,'1'),'LA R2,1350'  35% surcharge
 00279C 95F4 4001/4770_00001       22638  1                      IF    (@R4+1,EQ,'4'),'LA R2,1350'  35% surcharge
 0027A8 95F5 4001/4770_00001       22660  1                      IF    (@R4+1,EQ,'5'),'LA R2,1350'  35% surcharge
 0027B4 95F7 4001/4770_00001       22682  1                      IF    (@R4+1,EQ,'7'),'LA R2,1350'  35% surcharge
 0027C0 95F9 4001/4770_00001       22704  1                      IF    (@R4+1,EQ,'9'),'LA R2,1150'  15% surcharge
                                   22726  1           .NOSURCH   ANOP
 0027CC 1222/4780 706E             22727  1                      IF    (R2,Z),EXIT         No surcharge, scram
                                   22744  1                      ¿þþþþþþþþþþþþþþþþþþþþþþþþÜ
                                   22745  1                      Ÿ  Apply the surcharge.  Ÿ
                                   22746  1                      ¾þþþþþþþþþþþþþþþþþþþþþþþþ»
 0027D2 1BEE                       22747  1                      CLEAR R14
 0027D4 1CE2                       22751  1                      MR    R14,R2              Multiply by "surcharge factor"
 0027D6 5DE0 7088            02800 22752  1                      D     R14,=F'1000'
 0027DA 59E0 708C/4750_      02804 22753  1                      IF    (R14,GE,500),'INCR R15'  Round
 0027E6                            22778                       END
                                   22782
 0027E6 18D8/9808 D004_            22783                       PEND
1ACCT     (ACCT2025) (12:39) (15MAR04) Accounting Routines                                                                  Page   58
0Current Usings:  (CP,R11) (CV,R12)
0Loc    Object Code    Addr1 Addr2  Stmt Lv Lineno    Source Statement           (Hibal 5, Asmedit 3.3)  HLASM R4.0  2004/03/15 12.39
+___    ______ ____    _____ _____  ____ __ ______    ______ _________
0DROP   *,R7
                                   22803
                                   22804                       QLTORG
1ACCT     (ACCT2025) (12:39) (15MAR04) Accounting Routines                                                                  Page   59
0Current Usings:  (CP,R11) (CV,R12)
0Loc    Object Code    Addr1 Addr2  Stmt Lv Lineno    Source Statement           (Hibal 5, Asmedit 3.3)  HLASM R4.0  2004/03/15 12.39
+___    ______ ____    _____ _____  ____ __ ______    ______ _________
0                                  22822              ¿þþþþþþþþþþþþþþþþþþþþþþþþþþþþþþþþþþþþþþþþþþþþþþþþþþþþþþþþþþþþþþþþþþþþþÜ
                                   22823              Ÿ                                                                     Ÿ
                                   22824              Ÿ  BILLCHK -- Routine to switch the user charging entry if the        Ÿ
                                   22825              Ÿ    component, project-id or time-block has changed.                 Ÿ
                                   22826              Ÿ                                                                     Ÿ
                                                      ¾þþþþþþþþþþþþþþþþþþþþþþþþþþþþþþþþþþþþþþþþþþþþþþþþþþþþþþþþþþþþþþþþþþþþþ»
0000000                00000 00040 22827              BILLWA   RECORD BEGIN
 000000                            22835  1           BILLCOMP   DS    CL16                Current charge component name
 000010                            22836  1           BILLBLK    DS    CL8                 Current time-block (e.g., "DAY")
 000018                            22837  1           BILLPROJ   DS    CL8                 Current project id
                                   22838  1           BILLKEY    EQU   BILLCOMP,*-BILLCOMP,C'X'
                                   22839  1
 000020                            22840  1           BILLDATE   DS    CL32                Date: hh:mm:ss mm/dd/yy...
 000040                00040 00040 22841                       END
                                   22850              þþþþ
 00280C 50E0 D000/9008_      00000 22851              BILLCHK  XPROC BILLWA
 USING  *,R7
 USING  BILLWA-(4+36),R8
                                   22902                       ¿þþþþþþþþþþþþþþþþþþþþþþþþþþþÜ
                                   22903                       Ÿ  Build charge entry key.  Ÿ
                                   22904                       ¾þþþþþþþþþþþþþþþþþþþþþþþþþþþ»
 002826 D207 8040 B188 00018 00188 22905                       MVC   BILLPROJ,CPWPROJ    Set current project-id
 00282C D20F 8028 B448 00000 00448 22906                       MVC   BILLCOMP,CPWCHAR    Set current component
 002832 D60F BC56 BC56_00C56 00C56 22907                       IF    (CPLWCHAR,NZ),'MVC BILLCOMP,CPLWCHAR'  Local override
                                   22929
 002842 1B00/1B11                  22930                       CLEAR R0,R1               Assume current TOD clock
 002846 4120 0063            00063 22936                       LA    R2,99               Assume bad time block
                                   22937
 00284A 58F0 0010            00010 22938                       L     R15,CVTPTR
 00284E 58F0 F0CC            000CC 22939                       WITH  (CVT,R15),'L R15,CVTUSER'
 USING  CVT,R15
 DROP   CVT,R15
 002852 12FF/4780 7046_            22963                       IF    ((R15,NZ),AND,(@R15,EQ,'SCIP')),BEGIN
 USING  USERCVT,R15                22992  1                      WITH  (USERCVT,R15)
 002862 9801 F064            00064 23005  1                      LM    R0,R1,USEBLKCK      STCK when time-block changed
 002866 1F22/4320 F00F             23006  1                      LC    R2,USEBLOCK         Current time-block
 DROP   USERCVT,R15                23013                       END
                                   23022
 00286C 5920 7136/47D0_      0295C 23023                       IF    (R2,GT,4),'LA R2,TIMEERR'
                                   23046                       ¿þþþþþþþþþþþþþþþþþþþþþþþþþþþþþþþþþþþþþþþþþþþþþþþþþþþþþþþþÜ
                                   23047                       Ÿ  Build an 8-character timeblock field consisting of    Ÿ
                                   23048                       Ÿ    "mmdd/hhX", where mm is month, dd is day of month,  Ÿ
                                   23049                       Ÿ    hh is hour and X is the first character of the      Ÿ
                                   23050                       Ÿ    current timeblock (e.g., "D" for DAY).              Ÿ
                                   23051                       ¾þþþþþþþþþþþþþþþþþþþþþþþþþþþþþþþþþþþþþþþþþþþþþþþþþþþþþþþþ»
 002878 41F0 8048            00020 23052                       LA    R15,BILLDATE        Put time/date here
 00287C 58E0 713A/0DEE       02960 23053                       VCALL FMTCLCK             Format (clock already in R0,R1)
                                   23057
 002882 4C20 7146            0296C 23058                       MH    R2,=H'8'
 002886 4122 7148            0296E 23059                       LA    R2,TIMEBLKS(R2)
                                   23060
 00288A D201 8038 8051 00010 00029 23061                       MVC   BILLBLK(2),BILLDATE+9     Month
 002890 D201 803A 8054 00012 0002C 23062                       MVC   BILLBLK+2(2),BILLDATE+12  Day
1ACCT     (ACCT2025) (12:39) (15MAR04) Accounting Routines                                                                  Page   60
0Current Usings:  (*,R7) (BILLWA-(4+36),R8) (CP,R11) (CV,R12)
0Loc    Object Code    Addr1 Addr2  Stmt Lv Lineno    Source Statement           (Hibal 5, Asmedit 3.3)  HLASM R4.0  2004/03/15 12.39
+___    ______ ____    _____ _____  ____ __ ______    ______ _________
0002896 9261 803C      00014       23063                       MVI   BILLBLK+4,C'/'            /
 00289A D201 803D 8048 00015 00020 23064                       MVC   BILLBLK+5(2),BILLDATE     Hour
 0028A0 D200 803F 2000 00017 00000 23065                       MVC   BILLBLK+7(1),@R2          Timeblock (1 char)
                                   23066                       ¿þþþþþþþþþþþþþþþþþþþþþþþþþþþþþþþþþþþþþþþþþþþþþþþþþþþþþþÜ
                                   23067                       Ÿ  Switch components if the charging key has changed.  Ÿ
                                   23068                       ¾þþþþþþþþþþþþþþþþþþþþþþþþþþþþþþþþþþþþþþþþþþþþþþþþþþþþþþ»
 0028A6 5850 C1C8            001C8 23069                       L     R5,CVCURJCB
 USING  JCB,R5                     23070                       WITH  (JCB,R5)
                                   23083                       ¿þþþþþþþþþþþþþþþþþþþþþþþþþþþþþþþþþþþþþþþþþþþþþþþþþþþþþþþþþþþþÜ
                                   23084                       Ÿ  The most frequent case is that the 'charging key' hasn't  Ÿ
                                   23085                       Ÿ    changed, and we will exit without doing anything.       Ÿ
                                   23086                       ¾þþþþþþþþþþþþþþþþþþþþþþþþþþþþþþþþþþþþþþþþþþþþþþþþþþþþþþþþþþþþ»
 USING  UCE,R4                     23087                       WITH  (UCE,R4)
                                   23100
 0028AA 5840 5070/1244       00070 23101                       LT    R4,JCBUCEP          Current charging component
 0028B0 4780 70B6            028DC 23105                       IF    NZ,BEGIN            We have one...
 0028B4 D51F 400C 8028_0000C 00000 23116  1                      IF    (UCEKEY,EQ,BILLKEY),BILLEXIT  No changes, scram
                                   23137  1                      ¿þþþþþþþþþþþþþþþþþþþþþþþþþþþþþþþþþþþþþþþþþþþþþþþþþþþþþþþþþþÜ
                                   23138  1                      Ÿ  If the key has changed because the time block changed   Ÿ
                                   23139  1                      Ÿ    then call BILLTBLK to update the charging components  Ÿ
                                   23140  1                      Ÿ    for ALL users.                                        Ÿ
                                   23141  1                      ¾þþþþþþþþþþþþþþþþþþþþþþþþþþþþþþþþþþþþþþþþþþþþþþþþþþþþþþþþþþ»
 0028BE D507 401C 8038_0001C 00010 23142  1                      IF    (UCEBLK,NE,BILLBLK),BEGIN  Time block changed...
 0028C8 4110 8038            00010 23160  2                        LA    R1,BILLBLK          New time block name
 0028CC 4DE0 7178            0299E 23161  2                        LCALL BILLTBLK            Switch all time blocks
 0028D0 47F0 711E            02944 23163  2                        B     BILLEXIT
 0028D4                            23164  1                      END
                                   23168  1                      ¿þþþþþþþþþþþþþþþþþþþþþþþþþþþþþþþþþþþþþþþþþþþþþþþþþþþþþþþþþÜ
                                   23169  1                      Ÿ  We need to change to different charge key, update the  Ÿ
                                   23170  1                      Ÿ    the current component before switching.              Ÿ
                                   23171  1                      ¾þþþþþþþþþþþþþþþþþþþþþþþþþþþþþþþþþþþþþþþþþþþþþþþþþþþþþþþþþ»
 0028D4 58F0 C1C8            001C8 23172  1                      L     R15,CVCURJCB        Our JCB ptr
 0028D8 4DE0 7266            02A8C 23173  1                      LCALL BILLUPD             Update current charge entry
 0028DC                            23175                       END
                                   23179                       ¿þþþþþþþþþþþþþþþþþþþþþþþþþþþþþþþþþþþþþþþþþÜ
                                   23180                       Ÿ  Switch to another existing component.  Ÿ
                                   23181                       ¾þþþþþþþþþþþþþþþþþþþþþþþþþþþþþþþþþþþþþþþþþ»
 0028DC 4140 5070            00070 23182                       LA    R4,JCBUCEQH-(UCELINK-UCE)  Dummy first link
                                   23183
 0028E0 5840 4004/1244_      00004 23184                       WHILE ('LT R4,UCELINK',NZ),BEGIN  Go through UCEs...
 0028EA D51F 400C 8028_0000C 00000 23202  1                      IF    (UCEKEY,EQ,BILLKEY),BEGIN  Switch back...
 0028F4 5040 5070            00070 23220  2                        ST    R4,JCBUCEP          Set new current component ptr
 0028F8 47F0 711E            02944 23221  2                        B     BILLEXIT            Scram
 0028FC                            23222  1                      END
 0028FC 47F0 70BA            028E0 23226                       END
                                   23231                       ¿þþþþþþþþþþþþþþþþþþþþþþþþþþþþþþþþþþÜ
                                   23232                       Ÿ  Make a new charging component.  Ÿ
                                   23233                       ¾þþþþþþþþþþþþþþþþþþþþþþþþþþþþþþþþþþ»
 002900 4100 0064            00064 23234                       LA    R0,L'UCE
 002904 58E0 713E/0DEE       02964 23235                       VCALL GETCORE
 00290A 1841                       23239                       LR    R4,R1
 00290C D763 4000 4000 00000 00000 23240                       CLEAR UCE
 002912 D203 4000 7142 00000 02968 23247                       MVC   UCE(4),=CL4'UCE'    Set self-identification
 002918 D21F 400C 8028 0000C 00000 23248                       MVC   UCEKEY,BILLKEY      Set charging key
1ACCT     (ACCT2025) (12:39) (15MAR04) Accounting Routines                                                                  Page   61
0Current Usings:  (UCE,R4) (JCB,R5) (*,R7) (BILLWA-(4+36),R8) (CP,R11) (CV,R12)
0Loc    Object Code    Addr1 Addr2  Stmt Lv Lineno    Source Statement           (Hibal 5, Asmedit 3.3)  HLASM R4.0  2004/03/15 12.39
+___    ______ ____    _____ _____  ____ __ ______    ______ _________
0                                  23249
 00291E D603 5074 5074_00074 00074 23250                       IF    (JCBUCEQH,Z),BEGIN  First UCE on the queue...
 002928 5040 5074            00074 23266  1                      ST    R4,JCBUCEQH         We are the queue head
 00292C 5040 5078            00078 23267  1                      ST    R4,JCBUCEQT         ...and the tail
 002930                            23268                       END
                                   23272
 002930 710E/47F0 711A 02930 02926 23273                       ELSE  BEGIN               Add UCE to end of queue...
 002934 58F0 5078            00078 23284  1                      L     R15,JCBUCEQT        Previous queue tail
 002938 5040 F004            00004 23285  1                      ST    R4,UCELINK-UCE(,R15)  Link previous to us
 00293C 5040 5078            00078 23286  1                      ST    R4,JCBUCEQT         We are the new queue tail
 002940                            23287                       END
                                   23291
 002940 5040 5070            00070 23292                       ST    R4,JCBUCEP          Set current component ptr
                                   23293
 002944 18D8/9808 D004_            23294              BILLEXIT PEND
 DROP   UCE,R4
 DROP   JCB,R5
 DROP   BILLWA-(4+36),R8
 DROP   *,R7
                                   23330
                                   23331                       QLTORG
                                   23349
                                   23350              TIMEERR  EQU   5,,C'N'             Bad time block number
                                   23351
 00296E C4C1E84040404040           23352              TIMEBLKS DC    CL8'DAY'            0
 002976 C5E5C5D5C9D5C740           23353                       DC    CL8'EVENING'        1
 00297E D5C9C7C8E3404040           23354                       DC    CL8'NIGHT'          2
 002986 E6C5C5D2C5D5C440           23355                       DC    CL8'WEEKEND'        3
 00298E D7C5C1D240404040           23356                       DC    CL8'PEAK'           4
 002996 6F6F6F4040404040           23357                       DC    CL8'???'            5+ (error)
1ACCT     (ACCT2025) (12:39) (15MAR04) Accounting Routines                                                                  Page   62
0Current Usings:  (CP,R11) (CV,R12)
0Loc    Object Code    Addr1 Addr2  Stmt Lv Lineno    Source Statement           (Hibal 5, Asmedit 3.3)  HLASM R4.0  2004/03/15 12.39
+___    ______ ____    _____ _____  ____ __ ______    ______ _________
0                                  23359              ¿þþþþþþþþþþþþþþþþþþþþþþþþþþþþþþþþþþþþþþþþþþþþþþþþþþþþþþþþþþþþþþþþþþþþþÜ
                                   23360              Ÿ                                                                     Ÿ
                                   23361              Ÿ  BILLTBLK -- Routine to switch user component entries for           Ÿ
                                   23362              Ÿ    ALL users whose time block is not the same as the current        Ÿ
                                   23363              Ÿ    time block name passed to us.                                    Ÿ
                                   23364              Ÿ                                                                     Ÿ
                                   23365              Ÿ    This is an internal routine called by BILLCHK when the           Ÿ
                                   23366              Ÿ    time-block changes, since if the time block changes for one      Ÿ
                                   23367              Ÿ    user then it has changed for everyone.                           Ÿ
                                   23368              Ÿ                                                                     Ÿ
                                   23369              Ÿ    On entry:                                                        Ÿ
                                   23370              Ÿ      R1 - current time-block (8 characters)                         Ÿ
                                   23371              Ÿ                                                                     Ÿ
                                                      ¾þþþþþþþþþþþþþþþþþþþþþþþþþþþþþþþþþþþþþþþþþþþþþþþþþþþþþþþþþþþþþþþþþþþþþ»
0DROP   CP,R11                     23372                       DROP  CP                  (We shouldn't need to ref CP...)
                                   23380
 000000                00000 00020 23381              BTWA     RECORD BEGIN
 000000                            23389  1           BTCOMP     DS    CL16                Current charge component name
 000010                            23390  1           BTBLK      DS    CL8                 Current time-block (e.g., "DAY")
 000018                            23391  1           BTPROJ     DS    CL8                 Current project id
                                   23392  1           BTKEY      EQU   BTCOMP,*-BTCOMP,C'X'
 000020                00020 00020 23393                       END
                                   23402              þþþþ
 00299E 50E0 D000/9008_      00000 23403              BILLTBLK PROC  BTWA
 USING  *,R7
 USING  BTWA-(4+36),R8
 0029B8 D207 8038 1000 00010 00000 23453                       MVC   BTBLK,@R1           Save current time block
                                   23454
 0029BE 5850 C1C0            001C0 23455                       L     R5,CVFJCB
 0029C2                            23456                       LOOP  BEGIN
 USING  JCB,R5                     23462  1                      WITH  (JCB,R5)
 0029C2 9180 5060/4710_00060       23475  1                      IF    JCBWFSO,BTNEXT      User isn't logged on
 0029CA D604 504A 504A_0004A 0004A 23493  1                      IF    (JCBACCT,Z),BTNEXT
 0029D4 D603 5038 5038_00038 00038 23512  1                      IF    (JCBSINP,Z),BTNEXT
                                   23531  1
 0029DE 5840 5070/1244       00070 23532  1                      LT    R4,JCBUCEP          Current charging component
 0029E4 4780 70B6            02A6E 23536  1                      IF    Z,BTNEXT
 USING  UCE,R4                     23550  1                      WITH  (UCE,R4)
                                   23563  1                      ¿þþþþþþþþþþþþþþþþþþþþþþþþþþþþþþþþþþþþþþþþþþþþþþþþþþþþÜ
                                   23564  1                      Ÿ  Time block has changed for this user, we need to  Ÿ
                                   23565  1                      Ÿ    update the charging component.                  Ÿ
                                   23566  1                      ¾þþþþþþþþþþþþþþþþþþþþþþþþþþþþþþþþþþþþþþþþþþþþþþþþþþþþ»
 0029E8 D507 401C 8038_0001C 00010 23567  1                      IF    (UCEBLK,NE,BTBLK),BEGIN  New time-block...
 0029F2 D20F 8028 400C 00000 0000C 23585  2                        MVC   BTCOMP,UCECOMP      Component stays the same
 0029F8 D207 8040 4024 00018 00024 23586  2                        MVC   BTPROJ,UCEPROJ      Project id stays the same
                                   23587  2                        ¿þþþþþþþþþþþþþþþþþþþþþþþþþþþþþþþþþþþþþþþþþþþþþþþþþþþþþþþþþÜ
                                   23588  2                        Ÿ  We need to change to different charge key, update the  Ÿ
                                   23589  2                        Ÿ    the current component before switching.              Ÿ
                                   23590  2                        ¾þþþþþþþþþþþþþþþþþþþþþþþþþþþþþþþþþþþþþþþþþþþþþþþþþþþþþþþþþ»
 0029FE 41F0 5000            00000 23591  2                        LA    R15,JCB             JCB ptr
 002A02 4DE0 70D4            02A8C 23592  2                        LCALL BILLUPD             Update current charge entry
1ACCT     (ACCT2025) (12:39) (15MAR04) Accounting Routines                                                                  Page   63
0Current Usings:  (UCE,R4) (JCB,R5) (*,R7) (BTWA-(4+36),R8) (CV,R12)
0Loc    Object Code    Addr1 Addr2  Stmt Lv Lineno    Source Statement           (Hibal 5, Asmedit 3.3)  HLASM R4.0  2004/03/15 12.39
+___    ______ ____    _____ _____  ____ __ ______    ______ _________
0                                  23594  2                        ¿þþþþþþþþþþþþþþþþþþþþþþþþþþþþþþþþþþþþþþþþþÜ
                                   23595  2                        Ÿ  Switch to another existing component.  Ÿ
                                   23596  2                        ¾þþþþþþþþþþþþþþþþþþþþþþþþþþþþþþþþþþþþþþþþþ»
 002A06 4140 5070            00070 23597  2                        LA    R4,JCBUCEQH-(UCELINK-UCE)  Dummy first link
                                   23598  2
 002A0A 5840 4004/1244_      00004 23599  2                        WHILE ('LT R4,UCELINK',NZ),BEGIN  Go through UCEs...
 002A14 D51F 400C 8028_0000C 00000 23617  3                          IF    (UCEKEY,EQ,BTKEY),BEGIN  Switch back...
 002A1E 5040 5070            00070 23635  4                            ST    R4,JCBUCEP          Set new current component ptr
 002A22 47F0 70B6            02A6E 23636  4                            B     BTNEXT              Next JCB
 002A26                            23637  3                          END
 002A26 47F0 7052            02A0A 23641  2                        END
                                   23646  2                        ¿þþþþþþþþþþþþþþþþþþþþþþþþþþþþþþþþþþÜ
                                   23647  2                        Ÿ  Make a new charging component.  Ÿ
                                   23648  2                        ¾þþþþþþþþþþþþþþþþþþþþþþþþþþþþþþþþþþ»
 002A2A 4100 0064            00064 23649  2                        LA    R0,L'UCE
 002A2E 58E0 7520/0DEE       02ED8 23650  2                        VCALL GETCORE
 002A34 1841                       23654  2                        LR    R4,R1
 002A36 D763 4000 4000 00000 00000 23655  2                        CLEAR UCE
 002A3C D203 4000 7524 00000 02EDC 23662  2                        MVC   UCE(4),=CL4'UCE'    Set self-identification
 002A42 D21F 400C 8028 0000C 00000 23663  2                        MVC   UCEKEY,BTKEY        Set charging key
                                   23664  2
 002A48 D603 5074 5074_00074 00074 23665  2                        IF    (JCBUCEQH,Z),BEGIN  First UCE on the queue...
 002A52 5040 5074            00074 23681  3                          ST    R4,JCBUCEQH         We are the queue head
 002A56 5040 5078            00078 23682  3                          ST    R4,JCBUCEQT         ...and the tail
 002A5A                            23683  2                        END
                                   23687  2
 002A5A 70A6/47F0 70B2 02A5A 02A50 23688  2                        ELSE  BEGIN               Add UCE to end of queue...
 002A5E 58F0 5078            00078 23699  3                          L     R15,JCBUCEQT        Previous queue tail
 002A62 5040 F004            00004 23700  3                          ST    R4,UCELINK-UCE(,R15)  Link previous to us
 002A66 5040 5078            00078 23701  3                          ST    R4,JCBUCEQT         We are the new queue tail
 002A6A                            23702  2                        END
                                   23706  2
 002A6A 5040 5070            00070 23707  2                        ST    R4,JCBUCEP          Set current component ptr
 002A6E                            23708  1                      END
                                   23712  1                      ¿þþþþþþþþþþþþþþþþþþþþþþþþþþþþÜ
                                   23713  1                      Ÿ  Get next user's JCB ptr.  Ÿ
                                   23714  1                      ¾þþþþþþþþþþþþþþþþþþþþþþþþþþþþ»
 002A6E 4150 50D0            000D0 23715  1           BTNEXT     LA    R5,JCBNEXT
 002A72 5950 C1C4/47A0_      001C4 23716  1                      UNTIL (R5,GE,CVLJCB)
 002A7A 47F0 700A            029C2 23737                       END
 DROP   UCE,R4
 DROP   JCB,R5
                                   23752
 002A7E 18D8/9808 D004_            23753                       PEND
 DROP   BTWA-(4+36),R8
 DROP   *,R7
                                   23778
 USING  CP,R11                     23779                       USING CP                  (Restore CP addressibility)
1ACCT     (ACCT2025) (12:39) (15MAR04) Accounting Routines                                                                  Page   64
0Current Usings:  (CP,R11) (CV,R12)
0Loc    Object Code    Addr1 Addr2  Stmt Lv Lineno    Source Statement           (Hibal 5, Asmedit 3.3)  HLASM R4.0  2004/03/15 12.39
+___    ______ ____    _____ _____  ____ __ ______    ______ _________
0                                  23789              ¿þþþþþþþþþþþþþþþþþþþþþþþþþþþþþþþþþþþþþþþþþþþþþþþþþþþþþþþþþþþþþþþþþþþþþÜ
                                   23790              Ÿ                                                                     Ÿ
                                   23791              Ÿ  BILLUPD -- Routine to update the current charge component          Ÿ
                                   23792              Ÿ    entry with the most up to date information.                      Ÿ
                                   23793              Ÿ                                                                     Ÿ
                                   23794              Ÿ    On entry:                                                        Ÿ
                                   23795              Ÿ      R15 - JCB ptr of user whose charge entries are to be updated   Ÿ
                                   23796              Ÿ                                                                     Ÿ
                                                      ¾þþþþþþþþþþþþþþþþþþþþþþþþþþþþþþþþþþþþþþþþþþþþþþþþþþþþþþþþþþþþþþþþþþþþþ»
0DROP   CP,R11                     23797                       DROP  CP                  (We shouldn't need to ref CP...)
                                   23805
 002A8C 50E0 D000/9008_      00000 23806              BILLUPD  PROC
 USING  *,R7
 002AA6 185F                       23845                       LR    R5,R15
 USING  JCB,R5                     23846                       WITH  (JCB,R5)
 002AA8 5840 5070/1244       00070 23859                       LT    R4,JCBUCEP          Current charge component
 002AAE 4780 7100            02BA6 23863                       IF    NZ,BEGIN
 USING  UCE,R4                     23874  1                      WITH  (UCE,R4)
 002AB2 D502 748C 4000_02F32 00000 23887  1                      FAIL  (UCE,NE,'UCE'),BILLUPD,'Bad billing info (UCE ptr)'
                                   23916  1
 002AD4 5830 5038/1233       00038 23917  1                      LT    R3,JCBSINP          Session information ptr
 002ADA 4780 7100            02BA6 23921  1                      IF    Z,EXIT              Trouble, scram
 USING  SIN,R3                     23935  1                      WITH  (SIN,R3)
                                   23948  1                      ¿þþþþþþþþþþþþþþþþþþþþþþþþþþþþþþþþþþþþþþþþþþþþþþþÜ
                                   23949  1                      Ÿ  Update terminal I/O count and elapsed time.  Ÿ
                                   23950  1                      ¾þþþþþþþþþþþþþþþþþþþþþþþþþþþþþþþþþþþþþþþþþþþþþþþ»
 002ADE 5820 301C            0001C 23951  1                      L     R2,SINTIO           Current no. of terminal I/Os
 002AE2 18F2                       23952  1                      LR    R15,R2
 002AE4 5FF0 5090            00090 23953  1                      SL    R15,JCBITIO         Calc terminal I/O increment only
 002AE8 47B0 7048/1BFF       02AEE 23954  1                      IF    NEG,'CLEAR R15'     (Testwyl reset accounting info)
 002AEE 5EF0 403C            0003C 23974  1                      AL    R15,UCETIO          Add increment to prev total
 002AF2 50F0 403C            0003C 23975  1                      ST    R15,UCETIO          New total terminal I/Os
 002AF6 5020 5090            00090 23976  1                      ST    R2,JCBITIO          Save total for next time
                                   23977  1
 002AFA D607 3014 3014_00014 00014 23978  1                      IF    (SINLCLCK,NZ),BEGIN  Logon time has been set...
 002B04 58E0 743A/0DEE       02EE0 23994  2                        VCALL LOCALTOD            Get current time/date
 002B0A 5F10 3018/47B0_      00018 23998  2                        SDL   R0,SINLCLCK         Calculate elapsed time
 002B18 9001 D000/41D0_      00000 24003  2                        XPUSH R0,R1
 002B20 5F10 508C/47B0_      0008C 24006  2                        SDL   R0,JCBIECLK         Calc elapsed time increment only
 002B2E 1200/47B0 7092_            24011  2                        IF    (R0,NEG),'CLEAR R0,R1'  (Testwyl reset accting info)
 002B38 5E10 4034/47C0_      00034 24036  2                        ADL   R0,UCEECLK          New total elapsed time
 002B48 9001 4030            00030 24057  2                        STM   R0,R1,UCEECLK       Save total elapsed time
 002B4C 4BD0 7476/9801_      02F1C 24058  2                        XPOP  R0,R1
 002B54 5500 7442/47D0_      02EE8 24061  2                        IF    (R0,LGT,=A(X'000FFFFF')),'CLEAR R0,R1'  (Safety)
 002B60 9001 5088            00088 24088  2                        STM   R0,R1,JCBIECLK      Save total for next time
 002B64                            24089  1                      END
                                   24093  1                      ¿þþþþþþþþþþþþþþþþþþþþþþþþþþþþþþþþþþþþþþþþþþþþþþþþþþþþþþþþþþÜ
                                   24094  1                      Ÿ  Update ORVYL CPU and I/O amounts in the current charge  Ÿ
                                   24095  1                      Ÿ    component.                                            Ÿ
                                   24096  1                      ¾þþþþþþþþþþþþþþþþþþþþþþþþþþþþþþþþþþþþþþþþþþþþþþþþþþþþþþþþþþ»
 002B64 5820 30A0            000A0 24097  1                      L     R2,SINVCPU          Total ORVYL cpu time
 002B68 5E20 30A8            000A8 24098  1                      AL    R2,SINVOCPU         Plus any cpu by prev ORVYLs
 002B6C 18F2                       24099  1                      LR    R15,R2
1ACCT     (ACCT2025) (12:39) (15MAR04) Accounting Routines                                                                  Page   65
0Current Usings:  (SIN,R3) (UCE,R4) (JCB,R5) (*,R7) (CV,R12)
0Loc    Object Code    Addr1 Addr2  Stmt Lv Lineno    Source Statement           (Hibal 5, Asmedit 3.3)  HLASM R4.0  2004/03/15 12.39
+___    ______ ____    _____ _____  ____ __ ______    ______ _________
0002B6E 5FF0 5094            00094 24100  1                      SL    R15,JCBVICPU        Calc CPU increment only
 002B72 47B0 70D2/1BFF       02B78 24101  1                      IF    NEG,'CLEAR R15'     (Testwyl reset accounting info)
 002B78 5EF0 4054            00054 24121  1                      AL    R15,UCEVCPU         Add increment to prev total
 002B7C 50F0 4054            00054 24122  1                      ST    R15,UCEVCPU         New total ORVYL cpu time
 002B80 5020 5094            00094 24123  1                      ST    R2,JCBVICPU         Save total for next time
                                   24124  1
 002B84 1F22/BF27 30A5             24125  1                      L3    R2,SINVDIO          Total ORVYL disk I/Os
 002B8A 5E20 30AC            000AC 24133  1                      AL    R2,SINVODIO         Plus any I/Os by prev ORVYLs
 002B8E 18F2                       24134  1                      LR    R15,R2
 002B90 5FF0 5098            00098 24135  1                      SL    R15,JCBVIDIO        Calc I/O increment only
 002B94 47B0 70F4/1BFF       02B9A 24136  1                      IF    NEG,'CLEAR R15'     (Testwyl reset accounting info)
 002B9A 5EF0 405C            0005C 24156  1                      AL    R15,UCEVIO          Add increment to prev total
 002B9E 50F0 405C            0005C 24157  1                      ST    R15,UCEVIO          New total ORVYL disk I/Os
 002BA2 5020 5098            00098 24158  1                      ST    R2,JCBVIDIO         Save total for next time
 DROP   SIN,R3                     24159                       END
 DROP   UCE,R4
 002BA6 18D8/9808 D004_            24173                       PEND
 DROP   JCB,R5
 DROP   *,R7
                                   24198
 USING  CP,R11                     24199                       USING CP                  (Restore CP addressibility)
1ACCT     (ACCT2025) (12:39) (15MAR04) Accounting Routines                                                                  Page   66
0Current Usings:  (CP,R11) (CV,R12)
0Loc    Object Code    Addr1 Addr2  Stmt Lv Lineno    Source Statement           (Hibal 5, Asmedit 3.3)  HLASM R4.0  2004/03/15 12.39
+___    ______ ____    _____ _____  ____ __ ______    ______ _________
0                                  24209              ¿þþþþþþþþþþþþþþþþþþþþþþþþþþþþþþþþþþþþþþþþþþþþþþþþþþþþþþþþþþþþþþþþþþþþþÜ
                                   24210              Ÿ                                                                     Ÿ
                                   24211              Ÿ  BILLUPD$ -- Routine to update the current dollar amounts for       Ÿ
                                   24212              Ÿ    each of the component entries.                                   Ÿ
                                   24213              Ÿ                                                                     Ÿ
                                   24214              Ÿ    On entry:                                                        Ÿ
                                   24215              Ÿ      R15 - JCB ptr of user whose charge entries are to be updated   Ÿ
                                   24216              Ÿ                                                                     Ÿ
                                                      ¾þþþþþþþþþþþþþþþþþþþþþþþþþþþþþþþþþþþþþþþþþþþþþþþþþþþþþþþþþþþþþþþþþþþþþ»
0DROP   CP,R11                     24217                       DROP  CP                  (We shouldn't need to ref CP...)
                                   24225
 000000                00000 00003 24226              BUDWA    RECORD BEGIN
 000000 00                         24234  1           BUDFLAG    FLAG
 BUDFLAG.BUDFLEAS  80 ONES         24238  1                      FLAG  BUDFLEAS            - User is using a leased port
 BUDFLAG.BUDFTEL   40 ONES         24243  1                      FLAG  BUDFTEL             - User is using Telenet/Tymnet
 BUDFLAG.BUDFVIRT  20 ONES         24248  1                      FLAG  BUDFVIRT            - Virtual terminal session
 BUDFLAG.BUDFFLAT  10 ONES         24253  1                      FLAG  BUDFFLAT            - Use flat rate if non-prime time
                                   24258  1
 000001                            24259  1           BUDSOF     DS    C                   Source of funds code
 000002                            24260  1           BUDAR      DS    C                   Accounts receivable code
 000003                00003 00003 24261                       END
                                   24270              þþþþ
 002BB4 50E0 D000/9008_      00000 24271              BILLUPD$ PROC  BUDWA
 USING  *,R7
 USING  BUDWA-(4+36),R8
 002BCE D702 8028 8028 00000 00000 24321                       CLEAR BUDWA
                                   24328
 002BD4 185F                       24329                       LR    R5,R15
 USING  JCB,R5                     24330                       WITH  (JCB,R5)
                                   24343                       ¿þþþþþþþþþþþþþþþþþþþþþþþþþþþþþþþþþþþþþþþþþþþþþþþþþþþÜ
                                   24344                       Ÿ  Get charging related fields from the user's CP.  Ÿ
                                   24345                       ¾þþþþþþþþþþþþþþþþþþþþþþþþþþþþþþþþþþþþþþþþþþþþþþþþþþþ»
 002BD6                            24346                       BEGIN
 002BD6 58F0 5014            00014 24350  1                      L     R15,JCBCPX          Get user's CP ptr
 USING  CP,R15                     24351  1                      WITH  (CP,R15)
                                   24364  1
 002BDA 9180 F385/47E0_00385       24365  1                      IF    CPSFLEAS,'SET BUDFLEAS'  Leased
 002BE6 9160 F385/4780_00385       24391  1                      IF    CPSFTEL+CPSFTYM,'SET BUDFTEL'  Telenet/tymnet
 002BF2 9505 F38C/4770_0038C       24420  1                      IF    CPSTVIRT,'SET BUDFVIRT' Virtual
 002BFE 9180 FB68/47E0_00B68       24446  1                      IF    CPFFLAT,'SET BUDFFLAT'  Flat rate for non-prime time
                                   24472  1
 002C0A D201 8029 F1F8 00001 001F8 24473  1                      MVC   BUDSOF(2),CPSOF     Copy sof/ar codes
 DROP   CP,R15                     24474                       END
                                   24483                       ¿þþþþþþþþþþþþþþþþþþþþþþþþþþþþþþþþþþþþþþþþþþþþþþþþþþþþþþþþþþþþÜ
                                   24484                       Ÿ  Go through each component entry and calculate the dollar  Ÿ
                                   24485                       Ÿ    cost for each field.                                    Ÿ
                                   24486                       ¾þþþþþþþþþþþþþþþþþþþþþþþþþþþþþþþþþþþþþþþþþþþþþþþþþþþþþþþþþþþþ»
 002C10 5850 5074            00074 24487                       L     R5,JCBUCEQH         Get first charge component
                                   24488
 002C14 1255/4780 72A0             24489                       WHILE (R5,NZ),BEGIN       Go through UCEs...
 DROP   JCB,R5                     24505  1                      WITH  (UCE,R5)
 USING  UCE,R5
 002C1A D502 7364 5000_02F32 00000 24521  1                      FAIL  (UCE,NE,'UCE'),BILLUPD$,'Bad billing info (UCE ptr)'
1ACCT     (ACCT2025) (12:39) (15MAR04) Accounting Routines                                                                  Page   67
0Current Usings:  (UCE,R5) (*,R7) (BUDWA-(4+36),R8) (CV,R12)
0Loc    Object Code    Addr1 Addr2  Stmt Lv Lineno    Source Statement           (Hibal 5, Asmedit 3.3)  HLASM R4.0  2004/03/15 12.39
+___    ______ ____    _____ _____  ____ __ ______    ______ _________
0                                  24550  1                      ¿þþþþþþþþþþþþþþþþþþþþþþþþþþþþþþþþþþþþþþþþþþþþþþþþþþþþþþþþþþþþþÜ
                                   24551  1                      Ÿ  Skip charge accumulation for the non-billable components.  Ÿ
                                   24552  1                      ¾þþþþþþþþþþþþþþþþþþþþþþþþþþþþþþþþþþþþþþþþþþþþþþþþþþþþþþþþþþþþþ»
 002C3C D503 731E 500C_02EEC 0000C 24553  1                      IF    (UCECOMP,EQ,'SYS_'),BUDNEXT
                                   24573  1
 002C46 D505 7350 500C_02F1E 0000C 24574  1                      IF    (UCECOMP,EQ,'FOLIO_'),BUDNEXT
                                   24594  1
 002C50 D505 7356 500C_02F24 0000C 24595  1                      IF    (UCECOMP,EQ,'PRISM_'),BEGIN
 002C5A D50C 7367 500C_02F35 0000C 24612  2                        IF    (UCECOMP,EQ,'PRISM_GENERAL'),EXIT
 002C64 47F0 7298            02E66 24632  2                        B     BUDNEXT
 002C68                            24633  1                      END
                                   24637  1
 002C68 D507 72FA 500C_02EC8 0000C 24638  1                      IF    (UCECOMP,EQ,'PUBLISH '),BUDNEXT
                                   24658  1                      ¿þþþþþþþþþþþþþþþþþþþþþþþþþþþþþþþþþþþþþþþþþþþþþþþþþþþþþþþþþþþþþþþÜ
                                   24659  1                      Ÿ  Skip charge accumulation for uncharged EMS and Wylbur Mail.  Ÿ
                                   24660  1                      ¾þþþþþþþþþþþþþþþþþþþþþþþþþþþþþþþþþþþþþþþþþþþþþþþþþþþþþþþþþþþþþþþ»
 002C72 D503 7322 500C_02EF0 0000C 24661  1                      IF  ((UCECOMP,EQ,'EMS_'),OR,(UCECOMP,EQ,'WYLMAIL_')),BEGIN
 002C86 95C4 5023/4770_00023       24694  2                        IF    (UCEBLK+7,NE,'D'),EXIT    Only eligible in DAY block
                                   24714  2                        ¿þþþþþþþþþþþþþþþþþþþþþþþþþþþþþþþþþþþþþþþþþþþþþþþþþþþþþþþþþþþþþþÜ
                                   24715  2                        Ÿ  Somewhat elaborate list of SOF codes which are eligible...  Ÿ
                                   24716  2                        ¾þþþþþþþþþþþþþþþþþþþþþþþþþþþþþþþþþþþþþþþþþþþþþþþþþþþþþþþþþþþþþþ»
 002C8E 95F1 8029/4780_00001       24717  2                        IF    (BUDSOF,EQ,'1'),BUDNEXT
 002C96 95F3 8029/4750_00001       24737  2                        IF    ((BUDSOF,GE,'3'),AND,(BUDSOF,LE,'7')),BUDNEXT
 002CA6 95F9 8029/4780_00001       24773  2                        IF    (BUDSOF,EQ,'9'),BUDNEXT
 002CAE D501 735C 8029_02F2A 00001 24793  2                        IF    ((BUDSOF,GE,'D1'),AND,(BUDSOF,LE,'D9')),BUDNEXT
 002CC2 D501 7360 8029_02F2E 00001 24829  2                        IF    ((BUDSOF,GE,'DN'),AND,(BUDSOF,LE,'DV')),BUDNEXT
 002CD6                            24865  1                      END
                                   24869  1                      ¿þþþþþþþþþþþþþþþþþþþþþþþþþþþþþþþþÜ
                                   24870  1                      Ÿ  Calculate component charges.  Ÿ
                                   24871  1                      ¾þþþþþþþþþþþþþþþþþþþþþþþþþþþþþþþþ»
 002CD6 1B44                       24872  1                      CLEAR R4                  Assume index for day block values
 002CD8 95C5 5023/4770_00023       24876  1                      IF    (UCEBLK+7,EQ,'E'),'LA R4,4'   New style field
 002CE4 95D5 5023/4770_00023       24899  1                      IF    (UCEBLK+7,EQ,'N'),'LA R4,4'   |
 002CF0 95E6 5023/4770_00023       24922  1                      IF    (UCEBLK+7,EQ,'W'),'LA R4,8'   |
                                   24945  1
 002CFC 1244/4780 7140             24946  1                      IF    (R4,NZ),BEGIN       Not prime time...
 002D02 9110 8028/47E0_00000       24960  2                        IF    BUDFFLAT,'LA R4,12'  Use "flat rate"
 002D0E                            24981  1                      END
                                   24985  1                      ¿þþþþþþþþþþþþþþþþþþþþþþþþþþþÜ
                                   24986  1                      Ÿ  Elapsed (connect) time.  Ÿ
                                   24987  1                      ¾þþþþþþþþþþþþþþþþþþþþþþþþþþþ»
 002D0E 58F4 72AE            02E7C 24988  1                      L     R15,RATECON(R4)
 002D12 9180 8028/47E0_00000       24989  1                      IF    BUDFLEAS,BEGIN      Leased is special...
 002D1A 1BFF                       25004  2                        CLEAR R15                 Assume no connect charge
 002D1C 1244/4780 7160_            25008  2                        IF    ((R4,NZ),AND,BUDFFLAT),'L R15,RATEFLLC'  Flat charge
 002D2E                            25042  1                      END
                                   25046  1
 002D2E 9140 8028/47E0_00000       25047  1                      IF    BUDFTEL,'A R15,RATETEL'  TELENET/TYMNET Surcharge
                                   25068  1
 002D3A 4110 8029            00001 25069  1                      LA    R1,BUDSOF
 002D3E 58E0 7326/0DEE       02EF4 25070  1                      ACALL SURCHARG            Apply surcharge to rate
 002D44 182F                       25074  1                      LR    R2,R15              R15 is the rate
                                   25075  1
 002D46 98EF 5030            00030 25076  1                      LM    R14,R15,UCEECLK     Elapsed time (in STCK units)
1ACCT     (ACCT2025) (12:39) (15MAR04) Accounting Routines                                                                  Page   68
0Current Usings:  (UCE,R5) (*,R7) (BUDWA-(4+36),R8) (CV,R12)
0Loc    Object Code    Addr1 Addr2  Stmt Lv Lineno    Source Statement           (Hibal 5, Asmedit 3.3)  HLASM R4.0  2004/03/15 12.39
+___    ______ ____    _____ _____  ____ __ ______    ______ _________
0002D4A 8CE0 000C            0000C 25077  1                      SRDL  R14,12              .000001 of a sec
 002D4E 5DE0 732A            02EF8 25078  1                      D     R14,=A(10000)       We want .01 of a sec
 002D52 59E0 732E/4750_      02EFC 25079  1                      IF    (R14,GE,10000/2),'INCR R15'  Round
                                   25104  1
 002D5E 1CE2                       25105  1                      MR    R14,R2
 002D60 5DE0 7332            02F00 25106  1                      D     R14,=A(60*60*1000)  Get value in .1 cents
 002D64 59E0 7336/4750_      02F04 25107  1                      IF    (R14,GE,30*60*1000),'INCR R15' round
 002D70 9120 8028/47E0_00000       25132  1                      IF    BUDFVIRT,'CLEAR R15'  No connect charge if virtual
 002D7A 50F0 5038            00038 25156  1                      ST    R15,UCECON$         Save dollar total
                                   25157  1                      ¿þþþþþþþþþþþþþþþþþþÜ
                                   25158  1                      Ÿ  Terminal I/Os.  Ÿ
                                   25159  1                      ¾þþþþþþþþþþþþþþþþþþ»
 002D7E 4110 8029            00001 25160  1                      LA    R1,BUDSOF
 002D82 58F4 72CE            02E9C 25161  1                      L     R15,RATETIO(R4)     Basic disk I/O rate
 002D86 58E0 7326/0DEE       02EF4 25162  1                      ACALL SURCHARG            Apply surcharge to rate
 002D8C 182F                       25166  1                      LR    R2,R15              R15 is this user's rate
                                   25167  1
 002D8E 58F0 503C            0003C 25168  1                      L     R15,UCETIO          Current component charges
 002D92 1CE2                       25169  1                      MR    R14,R2
 002D94 5DE0 733A            02F08 25170  1                      D     R14,=A(1000*10)     Get value in .1 cents
 002D98 59E0 733E/4750_      02F0C 25171  1                      IF    (R14,GE,500*10),'INCR R15'  Round
 002DA4 9120 8028/47E0_00000       25196  1                      IF    BUDFVIRT,'CLEAR R15'  No connect charge if virtual
 002DAE 50F0 5040            00040 25220  1                      ST    R15,UCETIO$         Save dollar total
                                   25221  1                      ¿þþþþþþþþþþþþþþþþþþþþþþþþþþþÜ
                                   25222  1                      Ÿ  Update Wylbur CPU cost.  Ÿ
                                   25223  1                      ¾þþþþþþþþþþþþþþþþþþþþþþþþþþþ»
 002DB2 4110 8029            00001 25224  1                      LA    R1,BUDSOF
 002DB6 58F4 72BE            02E8C 25225  1                      L     R15,RATECPU(R4)     Basic CPU rate
 002DBA 58E0 7326/0DEE       02EF4 25226  1                      ACALL SURCHARG            Apply surcharge to rate
 002DC0 182F                       25230  1                      LR    R2,R15              R15 is this user's rate
                                   25231  1
 002DC2 58F0 5044            00044 25232  1                      L     R15,UCEWCPU         Current component charges
 002DC6 58E0 7342/0DEE       02F10 25233  1                      ACALL CPUFIX              Convert to virtual cpu seconds
 002DCC 1CE2                       25237  1                      MR    R14,R2
 002DCE 5DE0 7346            02F14 25238  1                      D     R14,=A(60*1000*384)  Get value in .1 cents
 002DD2 59E0 734A/4750_      02F18 25239  1                      IF    (R14,GE,30*1000*384),'INCR R15'  Round
 002DDE 50F0 5048            00048 25264  1                      ST    R15,UCEWCPU$        Save dollar total
                                   25265  1                      ¿þþþþþþþþþþþþþþþþþþþþþþþþþþþÜ
                                   25266  1                      Ÿ  Update Wylbur I/O cost.  Ÿ
                                   25267  1                      ¾þþþþþþþþþþþþþþþþþþþþþþþþþþþ»
 002DE2 4110 8029            00001 25268  1                      LA    R1,BUDSOF
 002DE6 58F4 72DE            02EAC 25269  1                      L     R15,RATEDIO(R4)     Basic disk I/O rate
 002DEA 58E0 7326/0DEE       02EF4 25270  1                      ACALL SURCHARG            Apply surcharge to rate
 002DF0 182F                       25274  1                      LR    R2,R15              R15 is this user's rate
                                   25275  1
 002DF2 58F0 504C            0004C 25276  1                      L     R15,UCEWIO          Current component charges
 002DF6 1CE2                       25277  1                      MR    R14,R2
 002DF8 5DE0 733A            02F08 25278  1                      D     R14,=A(1000*10)     Get value in .1 cents
 002DFC 59E0 733E/4750_      02F0C 25279  1                      IF    (R14,GE,500*10),'INCR R15'  Round
 002E08 50F0 5050            00050 25304  1                      ST    R15,UCEWIO$         Save dollar total
1ACCT     (ACCT2025) (12:39) (15MAR04) Accounting Routines                                                                  Page   69
0Current Usings:  (UCE,R5) (*,R7) (BUDWA-(4+36),R8) (CV,R12)
0Loc    Object Code    Addr1 Addr2  Stmt Lv Lineno    Source Statement           (Hibal 5, Asmedit 3.3)  HLASM R4.0  2004/03/15 12.39
+___    ______ ____    _____ _____  ____ __ ______    ______ _________
0                                  25305  1                      ¿þþþþþþþþþþþþþþþþþþþþþþþþþþÜ
                                   25306  1                      Ÿ  Update ORVYL CPU cost.  Ÿ
                                   25307  1                      ¾þþþþþþþþþþþþþþþþþþþþþþþþþþ»
 002E0C 4110 8029            00001 25308  1                      LA    R1,BUDSOF
 002E10 58F4 72BE            02E8C 25309  1                      L     R15,RATECPU(R4)     Basic CPU rate
 002E14 58E0 7326/0DEE       02EF4 25310  1                      ACALL SURCHARG            Apply surcharge to rate
 002E1A 182F                       25314  1                      LR    R2,R15              R15 is this user's rate
                                   25315  1
 002E1C 58F0 5054            00054 25316  1                      L     R15,UCEVCPU         Current component charges
 002E20 58E0 7342/0DEE       02F10 25317  1                      ACALL CPUFIX              Convert to virtual cpu seconds
 002E26 1CE2                       25321  1                      MR    R14,R2
 002E28 5DE0 7346            02F14 25322  1                      D     R14,=A(60*1000*384)  Get value in .1 cents
 002E2C 59E0 734A/4750_      02F18 25323  1                      IF    (R14,GE,30*1000*384),'INCR R15'  Round
 002E38 50F0 5058            00058 25348  1                      ST    R15,UCEVCPU$        Save dollar total
                                   25349  1                      ¿þþþþþþþþþþþþþþþþþþþþþþþþþþÜ
                                   25350  1                      Ÿ  Update ORVYL I/O cost.  Ÿ
                                   25351  1                      ¾þþþþþþþþþþþþþþþþþþþþþþþþþþ»
 002E3C 4110 8029            00001 25352  1                      LA    R1,BUDSOF
 002E40 58F4 72DE            02EAC 25353  1                      L     R15,RATEDIO(R4)     Basic disk I/O rate
 002E44 58E0 7326/0DEE       02EF4 25354  1                      ACALL SURCHARG            Apply surcharge to rate
 002E4A 182F                       25358  1                      LR    R2,R15              R15 is this user's rate
                                   25359  1
 002E4C 58F0 505C            0005C 25360  1                      L     R15,UCEVIO          Current component charges
 002E50 1CE2                       25361  1                      MR    R14,R2
 002E52 5DE0 733A            02F08 25362  1                      D     R14,=A(1000*10)     Get value in .1 cents
 002E56 59E0 733E/4750_      02F0C 25363  1                      IF    (R14,GE,500*10),'INCR R15'  Round
 002E62 50F0 5060            00060 25388  1                      ST    R15,UCEVIO$         Save dollar total
                                   25389  1
 002E66 5850 5004            00004 25390  1           BUDNEXT    L     R5,UCELINK          Next UCE (if any)
 002E6A 47F0 7046            02C14 25391                       END
 DROP   UCE,R5
 USING  JCB,R5
                                   25408
 002E6E 18D8/9808 D004_            25409                       PEND
 DROP   JCB,R5
 DROP   BUDWA-(4+36),R8
 DROP   *,R7
                                   25439
 USING  CP,R11                     25440                       USING CP                  (Restore CP addressibility)
1ACCT     (ACCT2025) (12:39) (15MAR04) Accounting Routines                                                                  Page   70
0Current Usings:  (CP,R11) (CV,R12)
0Loc    Object Code    Addr1 Addr2  Stmt Lv Lineno    Source Statement           (Hibal 5, Asmedit 3.3)  HLASM R4.0  2004/03/15 12.39
+___    ______ ____    _____ _____  ____ __ ______    ______ _________
0                                  25450              ¿þþþþþþþþþþþþþþþþþþþþþþþþþþþþþþþþþþþþþþþþþþþþþþþþþþþþþþþþþþþþþþþþþþþþþÜ
                                   25451              Ÿ                                                                     Ÿ
                                   25452              Ÿ        RATE TABLE                                                   Ÿ
                                   25453              Ÿ                                                                     Ÿ
                                   25454              Ÿ           -- Corresponds to "Rate Schedule #18"                     Ÿ
                                   25455              Ÿ                                                                     Ÿ
                                   25456              Ÿ                                                                     Ÿ
                                   25457              Ÿ        The fields below are costs, entered in 100ths of a cent,     Ÿ
                                   25458              Ÿ        they are:                                                    Ÿ
                                   25459              Ÿ          . connect time   -- cost per hour                          Ÿ
                                   25460              Ÿ          . terminal I/O's -- cost per thousand I/O's                Ÿ
                                   25461              Ÿ          . CPU time       -- cost per minute                        Ÿ
                                   25462              Ÿ          . disk I/O's     -- cost per thousand I/O's                Ÿ
                                   25463              Ÿ                                                                     Ÿ
                                   25464              Ÿ        The four values in each field are for:                       Ÿ
                                   25465              Ÿ          . day time-block                                           Ÿ
                                   25466              Ÿ          . night time-block                                         Ÿ
                                   25467              Ÿ          . weekend time-block                                       Ÿ
                                   25468              Ÿ          . flat connect rate (non-prime time only)                  Ÿ
                                   25469              Ÿ                                                                     Ÿ
                                                      ¾þþþþþþþþþþþþþþþþþþþþþþþþþþþþþþþþþþþþþþþþþþþþþþþþþþþþþþþþþþþþþþþþþþþþþ»
0002E7C 0000000000000000           25470              RATECON  DC    A(0,0,0,100*100)                     Connect time
 002E8C 0005AD20000278D0           25471              RATECPU  DC    A(3720*100,1620*100,1620*100,0)      CPU time
 002E9C 0000000000000000           25472              RATETIO  DC    A(0,0,0,0)                           Terminal I/O's
 002EAC 0000000000000000           25473              RATEDIO  DC    A(0,0,0,0)                           Disk I/O's
                                   25474
 002EBC 00003A98                   25475              RATEFLLC DC    A(150*100)          Flat rate connect charge...
                                   25476              *                                  ...for a leased port
                                   25477              *
 002EC0 00014C08                   25478              RATETEL  DC    A(850*100)          TELENET/TYMNET connect surcharge
                                   25479
                                   25480                       QLTORG
1ACCT     (ACCT2025) (12:39) (15MAR04) Accounting Routines                                                                  Page   71
0Current Usings:  (CP,R11) (CV,R12)
0Loc    Object Code    Addr1 Addr2  Stmt Lv Lineno    Source Statement           (Hibal 5, Asmedit 3.3)  HLASM R4.0  2004/03/15 12.39
+___    ______ ____    _____ _____  ____ __ ______    ______ _________
0                                  25521              ¿þþþþþþþþþþþþþþþþþþþþþþþþþþþþþþþþþþþþþþþþþþþþþþþþþþþþþþþþþþþþþþþþþþþþþÜ
                                   25522              Ÿ                                                                     Ÿ
                                   25523              Ÿ  DOWNBILL -- Routine to write "crash" billing records for all       Ÿ
                                   25524              Ÿ    logged on users.  This routine is called when Wylbur is          Ÿ
                                   25525              Ÿ    going down.                                                      Ÿ
                                   25526              Ÿ                                                                     Ÿ
                                                      ¾þþþþþþþþþþþþþþþþþþþþþþþþþþþþþþþþþþþþþþþþþþþþþþþþþþþþþþþþþþþþþþþþþþþþþ»
0DROP   CP,R11                     25527                       DROP  CP                  (We shouldn't need to ref CP...)
                                   25535
 002F42 50E0 D000/9008_      00000 25536              DOWNBILL XPROC
 USING  *,R7
                                   25576
 002F5C 5850 C1C0            001C0 25577                       L     R5,CVFJCB
 002F60                            25578                       LOOP  BEGIN
 USING  JCB,R5                     25584  1                      WITH  (JCB,R5)
 002F60 9180 5060/4710_00060       25597  1                      IF    ~JCBWFSO,BEGIN      User is logged on...
 002F68 D604 504A 504A_0004A 0004A 25612  2                        IF    (JCBACCT,Z),EXIT    Not really logged on
 002F72 D603 5038 5038_00038 00038 25631  2                        IF    (JCBSINP,Z),EXIT
 002F7C D603 5070 5070_00070 00070 25650  2                        IF    (JCBUCEP,Z),EXIT
                                   25669  2
 002F86 41F0 5000            00000 25670  2                        LA    R15,JCB
 002F8A 4110 72E4            03240 25671  2                        LA    R1,=CL8'CRASH'
 002F8E 58E0 72EC/0DEE       03248 25672  2                        ACALL DOBILL              Display costs
 002F94                            25676  1                      END
                                   25680  1
 002F94 4150 50D0            000D0 25681  1                      LA    R5,JCBNEXT
 002F98 5950 C1C4/47A0_      001C4 25682  1                      UNTIL (R5,GE,CVLJCB)
 002FA0 47F0 7004            02F60 25703                       END
 DROP   JCB,R5
                                   25713
 002FA4 18D8/9808 D004_            25714                       PEND
 DROP   *,R7
                                   25734
 USING  CP,R11                     25735                       USING CP                  (Restore CP addressibility)
1ACCT     (ACCT2025) (12:39) (15MAR04) Accounting Routines                                                                  Page   72
0Current Usings:  (CP,R11) (CV,R12)
0Loc    Object Code    Addr1 Addr2  Stmt Lv Lineno    Source Statement           (Hibal 5, Asmedit 3.3)  HLASM R4.0  2004/03/15 12.39
+___    ______ ____    _____ _____  ____ __ ______    ______ _________
0                                  25745              ¿þþþþþþþþþþþþþþþþþþþþþþþþþþþþþþþþþþþþþþþþþþþþþþþþþþþþþþþþþþþþþþþþþþþþþÜ
                                   25746              Ÿ                                                                     Ÿ
                                   25747              Ÿ  DOBILL -- Routine to write the charge record for the user          Ÿ
                                   25748              Ÿ    specified by the JCB passed as a parameter.  Note that we may    Ÿ
                                   25749              Ÿ    not be writing the charge record for the current user (so be     Ÿ
                                   25750              Ÿ    careful not to reference the CP for a charge field since you     Ÿ
                                   25751              Ÿ    will get the current user's CP and not the target user's CP).    Ÿ
                                   25752              Ÿ                                                                     Ÿ
                                   25753              Ÿ    On entry:                                                        Ÿ
                                   25754              Ÿ      R1 - 8 char ID ("LOGOFF", "CRASH", etc.)                       Ÿ
                                   25755              Ÿ      R15- JCB ptr for user whose charge record is to be written     Ÿ
                                   25756              Ÿ                                                                     Ÿ
                                                      ¾þþþþþþþþþþþþþþþþþþþþþþþþþþþþþþþþþþþþþþþþþþþþþþþþþþþþþþþþþþþþþþþþþþþþþ»
0DROP   CP,R11                     25757                       DROP  CP                  (We shouldn't need to ref CP...)
                                   25765
 000000                00000 0000C 25766              DBWA     RECORD BEGIN
 000000                            25774  1           DBID       DS    CL8                 Record type ID
 000008                            25775  1           DBWLEN     DS    F                   Working record length
                                   25776  1
                                   25777  1           DBMAXLN#   EQU   31*1024             Our max SMF record length
 00000C                0000C 0000C 25778                       END
                                   25787              þþþþ
 002FB2 50E0 D000/9008_      00000 25788              DOBILL   XPROC DBWA
 USING  *,R7
 USING  DBWA-(4+36),R8
 002FCC 185F                       25839                       LR    R5,R15              JCB ptr
 USING  JCB,R5                     25840                       WITH  (JCB,R5)
                                   25853
 002FCE D207 8028 1000 00000 00000 25854                       MVC   DBID,@R1            Save record type ID
 002FD4 D703 8030 8030 00008 00008 25855                       CLEAR DBWLEN              Initialize working length
                                   25862
 002FDA 58F0 7280            0324C 25863                       L     R15,=A(DBMAXLN#)
 002FDE 186D/1ADF/41D0_            25864                       XPUSH ,,(R15),PTR=R6      Get room for a jumbo SMF record
 USING  SMFSCRC,R6                 25869                       WITH  (SMFSCRC,R6)
 002FEA D7FF 6000 6000 00000 00000 25882                       CLEAR SMFSCRC             Initialize fixed part
                                   25889                       ¿þþþþþþþþþþþþþþþþþþþþþþþþþþþþþþþþþþþþþþþþÜ
                                   25890                       Ÿ  Update charge component information.  Ÿ
                                   25891                       ¾þþþþþþþþþþþþþþþþþþþþþþþþþþþþþþþþþþþþþþþþ»
 002FF0 41F0 5000            00000 25892                       LA    R15,JCB
 002FF4 58E0 7288/0DEE       03254 25893                       ACALL BILLUPD             Update charge component info
                                   25897                       ¿þþþþþþþþþþþþþþþþþþþþþþþþþþþþþþþÜ
                                   25898                       Ÿ  Skip all charging in VISTA.  Ÿ
                                   25899                       ¾þþþþþþþþþþþþþþþþþþþþþþþþþþþþþþþ»
 002FFA 9180 C4C8/4710_004C8       25900                       IF    CVFVISTA,EXIT,DOBILL    Skip charging in VISTA
                                   25918                       ¿þþþþþþþþþþþþþþþþþþþþþþþþÜ
                                   25919                       Ÿ  Build charge header.  Ÿ
                                   25920                       ¾þþþþþþþþþþþþþþþþþþþþþþþþ»
 003002 5840 5038            00038 25921                       L     R4,JCBSINP
 USING  SIN,R4                     25922                       WITH  (SIN,R4),BEGIN
 003006 D203 6038 728C 00038 03258 25936  1                      MVC   SCRCVER,=A(SCRCVER#)  Record version number
 00300C D207 603C 8028 0003C 00000 25937  1                      MVC   SCRCTYPE,DBID       Save record type ID
                                   25938  1
 003012 5830 5014            00014 25939  1                      L     R3,JCBCPX           This user's CP
1ACCT     (ACCT2025) (12:39) (15MAR04) Accounting Routines                                                                  Page   73
0Current Usings:  (CP,R3) (SIN,R4) (JCB,R5) (SMFSCRC,R6) (*,R7) (DBWA-(4+36),R8) (CV,R12)
0Loc    Object Code    Addr1 Addr2  Stmt Lv Lineno    Source Statement           (Hibal 5, Asmedit 3.3)  HLASM R4.0  2004/03/15 12.39
+___    ______ ____    _____ _____  ____ __ ______    ______ _________
0USING  CP,R3                      25940  1                      WITH  (CP,R3),BEGIN
 003016 D213 6054 C4D8 00054 004D8 25954  2                        MVC   SCRCUID,CVBLANKS    No userid yet
 00301C D213 6068 33C6 00068 003C6 25955  2                        MVC   SCRCNAME,CPSNAME    User name
 003022 D207 607C 3190 0007C 00190 25956  2                        MVC   SCRCWAPP,CPWAPP     WAPP info
 003028 D207 6090 334C 00090 0034C 25957  2                        MVC   SCRCFE,CPSFE        Front end name
 00302E D207 6098 3354 00098 00354 25958  2                        MVC   SCRCPORT,CPSPORT    Port name
 003034 D201 60AA 31F8 000AA 001F8 25959  2                        MVC   SCRCSOF(2),CPSOF    Save SOF/AR codes
 DROP   CP,R3                      25960  1                      END
                                   25968  1
 00303A D203 60AC CDFC 000AC 00DFC 25969  1                      MVC   SCRCMULT,CVCPUMUL   CPU multiplication factor
 003040 D603 60AC 60AC_000AC 000AC 25970  1                      IF    (SCRCMULT,Z),'MVC SCRCMULT,=F"1000"'  1.000
                                   25992  1
 003050 4110 60AA            000AA 25993  1                      LA    R1,SCRCSOF          User's sof/ar codes
 003054 41F0 03E8            003E8 25994  1                      LA    R15,1000            Start with 1000
 003058 58E0 7294/0DEE       03260 25995  1                      ACALL SURCHARG            Apply appropriate surcharge
 00305E 50F0 60B0            000B0 25999  1                      ST    R15,SCRCSURG        Save surcharge factor
                                   26000  1
 003062 5830 5038            00038 26001  1                      L     R3,JCBSINP
 DROP   SIN,R4                     26002  1                      WITH  (SIN,R3),BEGIN
 USING  SIN,R3
 003066 D502 72D6 3000_032A2 00000 26024  2                        IF    (SIN,EQ,'SIN'),BEGIN
 003070 D20F 6044 3052 00044 00052 26041  3                          MVC   SCRSTAG,SINSTAG     Session tag
 003076 9801 3014            00014 26042  3                          LM    R0,R1,SINLCLCK      Clock at time of logon
 00307A 1200/4770 70BA_            26043  3                          IF    ((R0,NZ),OR,(R1,NZ)),BEGIN  We have one...
 003086 58E0 7298/0DEE       03264 26070  4                            VCALL TIMEDATE            Convert to time/date
 00308C 5010 60C0            000C0 26074  4                            ST    R1,SCRCLDAT         Session start date
 003090 5000 60C4            000C4 26075  4                            ST    R0,SCRCLTIM         Session start time
 003094 D203 60CC 301C 000CC 0001C 26076  4                            MVC   SCRCTIO,SINTIO      Total terminal I/O's
 00309A 58E0 729C/0DEE       03268 26077  4                            VCALL LOCALTOD            Get current time/date
 0030A0 5F10 3018/47B0_      00018 26081  4                            SDL   R0,SINLCLCK         Calculate elapsed time
 0030AE 8C00 000C            0000C 26086  4                            SRDL  R0,12               .000001 of a sec
 0030B2 5D00 72A0            0326C 26087  4                            D     R0,=A(10000)        We want .01 of a sec
 0030B6 5900 72A4/4750_      03270 26088  4                            IF    (R0,GE,10000/2),'INCR R1'  Round
 0030C2                            26113  3                          END
 0030C2 5010 60C8            000C8 26117  3                          ST    R1,SCRCET           Save elapsed time
 0030C6                            26118  2                        END
 USING  SIN,R4                     26122  1                      END
 DROP   SIN,R3
                                   26139  1
 0030C6 D203 60D0 507C 000D0 0007C 26140  1                      MVC   SCRCWCPU,JCBWCPU    Total WYLBUR CPU time used
 0030CC D203 60D4 5080 000D4 00080 26141  1                      MVC   SCRCWIO,JCBWIO      Total WYLBUR I/O's
                                   26142  1
 0030D2 58F0 40A0            000A0 26143  1                      L     R15,SINVCPU         Total ORVYL CPU time used
 0030D6 5EF0 40A8            000A8 26144  1                      AL    R15,SINVOCPU        Plus ORVYL CPU from prev ORVYLs
 0030DA 50F0 60D8            000D8 26145  1                      ST    R15,SCRCVCPU        Save it in the record
                                   26146  1
 0030DE 1FFF/BFF7 40A5             26147  1                      L3    R15,SINVDIO         Total ORVYL disk I/Os
 0030E4 5EF0 40AC            000AC 26155  1                      AL    R15,SINVODIO        Plus ORVYL I/Os from prev ORVYLs
 0030E8 50F0 60DC            000DC 26156  1                      ST    R15,SCRCVIO         Save it in the record
 DROP   SIN,R4                     26157                       END
                                   26165
 0030EC D203 8030 72AC 00008 03278 26166                       MVC   DBWLEN,=A(SCRCEND-SMFSCRC)  Set total length
1ACCT     (ACCT2025) (12:39) (15MAR04) Accounting Routines                                                                  Page   74
0Current Usings:  (JCB,R5) (SMFSCRC,R6) (*,R7) (DBWA-(4+36),R8) (CV,R12)
0Loc    Object Code    Addr1 Addr2  Stmt Lv Lineno    Source Statement           (Hibal 5, Asmedit 3.3)  HLASM R4.0  2004/03/15 12.39
+___    ______ ____    _____ _____  ____ __ ______    ______ _________
0                                  26167                       ¿þþþþþþþþþþþþþþþþþþþþþþþþþþþþþþþþþþþÜ
                                   26168                       Ÿ  Build charge component entries.  Ÿ
                                   26169                       ¾þþþþþþþþþþþþþþþþþþþþþþþþþþþþþþþþþþþ»
 0030F2 D201 60F6 72CC 000F6 03298 26170                       MVC   SCRCCHLN,=AL2(L'SMFCCRC)  Set component entry len
                                   26171
 0030F8 4130 6100            00100 26172                       LA    R3,SCRCEND
 USING  SMFCCRC,R3                 26173                       WITH  (SMFCCRC,R3)
 0030FC 4140 5070            00070 26186                       LA    R4,JCBUCEQH-(UCELINK-UCE)  Dummy first entry
 003100                            26187                       LOOP  BEGIN
 USING  UCE,R4                     26193  1                      WITH  (UCE,R4)
 003100 5840 4004/1244_      00004 26206  1                      WHILE ('LT R4,UCELINK',NZ)
 00310A D75F 3000 3000 00000 00000 26223  1                      CLEAR SMFCCRC             Initialize component entry
 003110 D207 3000 4024 00000 00024 26230  1                      MVC   CCRCPROJ,UCEPROJ    Project-id
 003116 D20F 3008 400C 00008 0000C 26231  1                      MVC   CCRCCOMP,UCECOMP    Charging component
 00311C D207 3018 401C 00018 0001C 26232  1                      MVC   CCRCBLK,UCEBLK      Time-block
 003122 D200 305C 4008 0005C 00008 26233  1                      MVC   CCRCFLAG,UCEFLAG    Copy component flag
                                   26234  1
 003128 9801 4030            00030 26235  1                      LM    R0,R1,UCEECLK       Elapsed time (in STCK units)
 00312C 8C00 000C            0000C 26236  1                      SRDL  R0,12               .000001 of a sec
 003130 5D00 72A0            0326C 26237  1                      D     R0,=A(10000)        We want .01 of a sec
 003134 5900 72A4/4750_      03270 26238  1                      IF    (R0,GE,10000/2),'INCR R1'  Round
 003140 5010 3020            00020 26263  1                      ST    R1,CCRCCON          Save elapsed time
 003144 D203 3024 4038 00024 00038 26264  1                      MVC   CCRCCON$,UCECON$
                                   26265  1
 00314A D203 3028 403C 00028 0003C 26266  1                      MVC   CCRCTIO,UCETIO      Terminal I/O
 003150 D203 302C 4040 0002C 00040 26267  1                      MVC   CCRCTIO$,UCETIO$
 003156 58F0 4044            00044 26268  1                      L     R15,UCEWCPU         WYLBUR CPU
 00315A 58E0 72B0/0DEE       0327C 26269  1                      ACALL CPUFIX              Convert to "virtual CPU seconds"
 003160 50F0 3030            00030 26273  1                      ST    R15,CCRCWCPU
 003164 D203 3034 4048 00034 00048 26274  1                      MVC   CCRCWCPU$,UCEWCPU$
 00316A D203 3038 404C 00038 0004C 26275  1                      MVC   CCRCWIO,UCEWIO      WYLBUR I/Os
 003170 D203 303C 4050 0003C 00050 26276  1                      MVC   CCRCWIO$,UCEWIO$
 003176 58F0 4054            00054 26277  1                      L     R15,UCEVCPU         ORVYL CPU
 00317A 58E0 72B0/0DEE       0327C 26278  1                      ACALL CPUFIX              Convert to "virtual CPU seconds"
 003180 50F0 3040            00040 26282  1                      ST    R15,CCRCVCPU
 003184 D203 3044 4058 00044 00058 26283  1                      MVC   CCRCVCPU$,UCEVCPU$
 00318A D203 3048 405C 00048 0005C 26284  1                      MVC   CCRCVIO,UCEVIO      ORVYL I/Os
 003190 D203 304C 4060 0004C 00060 26285  1                      MVC   CCRCVIO$,UCEVIO$
                                   26286  1
 003196 41F0 0001/4AF0_      00001 26287  1                      INCR  R15,SCRCCHCT        Count no. of charge components
                                   26293  1
 0031A2 4130 3060            00060 26294  1                      LA    R3,CCRCNEXT         Kick ptr to next component entry
                                   26295  1
 0031A6 58F0 8030            00008 26296  1                      L     R15,DBWLEN          Current record length
 0031AA 5AF0 72B4            03280 26297  1                      A     R15,=A(L'SMFCCRC)   Add amount we just used
 0031AE 50F0 8030            00008 26298  1                      ST    R15,DBWLEN          Save new length
                                   26299  1
 0031B2 59F0 72B8/47A0_      03284 26300  1                      IF    (R15,GE,DBMAXLN#-512),EXIT  Overflow, scram
 0031BA 47F0 7134            03100 26320                       END
 DROP   UCE,R4
1ACCT     (ACCT2025) (12:39) (15MAR04) Accounting Routines                                                                  Page   75
0Current Usings:  (SMFCCRC,R3) (JCB,R5) (SMFSCRC,R6) (*,R7) (DBWA-(4+36),R8) (CV,R12)
0Loc    Object Code    Addr1 Addr2  Stmt Lv Lineno    Source Statement           (Hibal 5, Asmedit 3.3)  HLASM R4.0  2004/03/15 12.39
+___    ______ ____    _____ _____  ____ __ ______    ______ _________
0                                  26330                       ¿þþþþþþþþþþþþþþþþþþþþþþþþþþþþþþþþþþþþþþþþþþþþþþþþþþþþþþþþÜ
                                   26331                       Ÿ  Copy counter records to end of session charge record  Ÿ
                                   26332                       ¾þþþþþþþþþþþþþþþþþþþþþþþþþþþþþþþþþþþþþþþþþþþþþþþþþþþþþþþþ»
 0031BE 5800 72B8            03284 26333                       L     R0,=A(DBMAXLN#-512) GET MAX SPACE LEFT FOR COUNTERS
 0031C2 5B00 8030            00008 26334                       S     R0,DBWLEN           R0 = MAX LEN
 0031C6 4110 6000            00000 26335                       LA    R1,SMFSCRC          PUT COUNTERS AT END OF RECORD
 0031CA 5A10 8030            00008 26336                       A     R1,DBWLEN           R1 = LOC TO PUT COUNTER RECDS
 0031CE 41F0 5000            00000 26337                       LA    R15,JCB
 0031D2 58E0 72BC/0DEE       03288 26338                       ACALL WCTRCOPY            COPY COUNTERS TO END
                                   26342                       COMMENT                   RETURNS TOTAL LENGTH
00031D8 5810 8030            00008 26344                       L     R1,DBWLEN           UPDATE TOTAL LENGTH
 0031DC 1A10                       26345                       AR    R1,R0
 0031DE 5010 8030            00008 26346                       ST    R1,DBWLEN
 0031E2 1BEE                       26347                       CLEAR R14                 CALC TOTAL NO OF COUNTERS
 0031E4 18F0                       26351                       LR    R15,R0
 0031E6 5DE0 72C0            0328C 26352                       D     R14,=A(L'SMFCTRC)
 0031EA 40F0 60FC            000FC 26353                       STH   R15,SCRCCTCT              SET COUNTER RECD COUNT
 0031EE D201 60FE 72CE 000FE 0329A 26354                       MVC   SCRCCTLN,=AL2(L'SMFCTRC)  SET COUNTER RECD LENGTH
                                   26355                       ¿þþþþþþþþþþþþþþþþþþþþþþþþþþþþþþþþþþþþÜ
                                   26356                       Ÿ  Write the integrated SMF record.  Ÿ
                                   26357                       ¾þþþþþþþþþþþþþþþþþþþþþþþþþþþþþþþþþþþþ»
 0031F4 1816/5800 8030             26358                       SETMSG SMFSCRC,L:DBWLEN
 0031FA 41F0 5000            00000 26372                       LA    R15,JCB
 0031FE 58E0 72C4/0DEE       03290 26373                       ACALL SMFIHDR             Initialize standard header
                                   26377                       ¿þþþþþþþþþþþþþþþþþþþþþþþþþþþþþþþþþþþþþþþþþþþþþþþþþþþþþþþþþÜ
                                   26378                       Ÿ  Write SMF records (skip SMF writes for LOGON record).  Ÿ
                                   26379                       ¾þþþþþþþþþþþþþþþþþþþþþþþþþþþþþþþþþþþþþþþþþþþþþþþþþþþþþþþþþ»
 003204 D505 72D0 603C_0329C 0003C 26380                       IF    (SCRCTYPE,NE,'LOGON '),BEGIN
 00320E 1816/5800 8030             26397  1                      SETMSG SMFSCRC,L:DBWLEN
 003214 41F0 00AB            000AB 26411  1                      LA    R15,&WSMFBIL
 003218 58E0 72C8/0DEE       03294 26412  1                      ACALL SMFWRITE            Write the charge record
                                   26416  1                      ¿þþþþþþþþþþþþþþþþþþþþþþþþþþþþþþþþþþþþþþþþþþþþþþþþþþþþþþþþÜ
                                   26417  1                      Ÿ  Call the compatibility routine with a pointer to the  Ÿ
                                   26418  1                      Ÿ    charging record which was just written.             Ÿ
                                   26419  1                      ¾þþþþþþþþþþþþþþþþþþþþþþþþþþþþþþþþþþþþþþþþþþþþþþþþþþþþþþþþ»
 00321E 4110 6000            00000 26420  1                      LA    R1,SMFSCRC
 003222 41F0 5000            00000 26421  1                      LA    R15,JCB
 003226 4DE0 72DA            032A6 26422  1                      LCALL OLDBILL             Do any compatibility work
 00322A                            26424                       END
                                   26428
 00322A 1BFF                       26429                       CLEAR R15                 (Neatness)
 00322C 18D8/9808 D004_            26433                       PEND
 DROP   SMFCCRC,R3
 DROP   SMFSCRC,R6
 DROP   JCB,R5
 DROP   DBWA-(4+36),R8
 DROP   *,R7
                                   26473
                                   26474                       QLTORG
                                   26511
 USING  CP,R11                     26512                       USING CP                  (Restore CP addressability)
1ACCT     (ACCT2025) (12:39) (15MAR04) Accounting Routines                                                                  Page   76
0Current Usings:  (CP,R11) (CV,R12)
0Loc    Object Code    Addr1 Addr2  Stmt Lv Lineno    Source Statement           (Hibal 5, Asmedit 3.3)  HLASM R4.0  2004/03/15 12.39
+___    ______ ____    _____ _____  ____ __ ______    ______ _________
0                                  26522              ¿þþþþþþþþþþþþþþþþþþþþþþþþþþþþþþþþþþþþþþþþþþþþþþþþþþþþþþþþþþþþþþþþþþþþþÜ
                                   26523              Ÿ                                                                     Ÿ
                                   26524              Ÿ   OLDBILL -- Routine to write the old charging records, given       Ÿ
                                   26525              Ÿ     the new charging record.                                        Ÿ
                                   26526              Ÿ                                                                     Ÿ
                                   26527              Ÿ   This is for compatibility with the accounting system; the new     Ÿ
                                   26528              Ÿ   &WSMFBIL (type 171) records contain all the information the       Ÿ
                                   26529              Ÿ   billing information in one record.  The old &WSMFSYS (type 170)   Ÿ
                                   26530              Ÿ   records are produced here in the old format to allow the          Ÿ
                                   26531              Ÿ   existing accounting programs to run unchanged.                    Ÿ
                                   26532              Ÿ                                                                     Ÿ
                                   26533              Ÿ                                                                     Ÿ
                                   26534              Ÿ   This routine is straight forward. the new smf record              Ÿ
                                   26535              Ÿ   data structure has several sub-records, each one of               Ÿ
                                   26536              Ÿ   which generates three old SMF type records. (one for              Ÿ
                                   26537              Ÿ   milten, one for orvyl, and one for wylbur)  all we                Ÿ
                                   26538              Ÿ   do here is loop thru each component charge sub-record             Ÿ
                                   26539              Ÿ   creating and writing out the appropriate old type                 Ÿ
                                   26540              Ÿ   records.                                                          Ÿ
                                   26541              Ÿ                                                                     Ÿ
                                   26542              Ÿ                                                                     Ÿ
                                   26543              Ÿ   On entry:                                                         Ÿ
                                   26544              Ÿ     R1 - New SMF accounting record                                  Ÿ
                                   26545              Ÿ     R15- JCB ptr for user whose charge record is to be written      Ÿ
                                   26546              Ÿ                                                                     Ÿ
                                   26547              Ÿ   On exit:                                                          Ÿ
                                   26548              Ÿ     Old style SMF records written out from information obtained     Ÿ
                                   26549              Ÿ     from the new record.                                            Ÿ
                                   26550              Ÿ                                                                     Ÿ
                                   26551              Ÿ   Note:                                                             Ÿ
                                   26552              Ÿ     Any unrecognized new style accounting record is                 Ÿ
                                   26553              Ÿ     ignored (i.e., routine will not generate errors.).              Ÿ
                                   26554              Ÿ                                                                     Ÿ
                                   26555              Ÿ                                                                     Ÿ
                                                      ¾þþþþþþþþþþþþþþþþþþþþþþþþþþþþþþþþþþþþþþþþþþþþþþþþþþþþþþþþþþþþþþþþþþþþþ»
0DROP   CP,R11                     26556                       DROP  CP                  (We shouldn't need to ref CP...)
                                   26564
 0032A6 50E0 D000/9008_      00000 26565              OLDBILL  PROC
 USING  *,R7
                                   26604
 USING  SMFSCRC,R6                 26605                       WITH  (SMFSCRC,R6)
 0032C0 1861                       26618                       LR    R6,R1
 0032C2 185F                       26619                       LR    R5,R15
                                   26620                       ¿þþþþþþþþþþþþþþþþþþþþþþþþþþþþþþþþþþþþÜ
                                   26621                       Ÿ  Only process LOGOFF/CRASH calls.  Ÿ
                                   26622                       ¾þþþþþþþþþþþþþþþþþþþþþþþþþþþþþþþþþþþþ»
                                   26623            C          IF    ((SCRCTYPE,EQ,'LOGOFF '),OR,
 0032C4 D506 725A 603C_0351A 0003C                                   (SCRCTYPE,EQ,'CRASH ')),BEGIN
1ACCT     (ACCT2025) (12:39) (15MAR04) Accounting Routines                                                                  Page   77
0Current Usings:  (SMFSCRC,R6) (*,R7) (CV,R12)
0Loc    Object Code    Addr1 Addr2  Stmt Lv Lineno    Source Statement           (Hibal 5, Asmedit 3.3)  HLASM R4.0  2004/03/15 12.39
+___    ______ ____    _____ _____  ____ __ ______    ______ _________
0                                  26656  1                      ¿þþþþþþþþþþþþþþþþþþþþþþþþþþþþþþþþþþþÜ
                                   26657  1                      Ÿ  Loop through component records.  Ÿ
                                   26658  1                      ¾þþþþþþþþþþþþþþþþþþþþþþþþþþþþþþþþþþþ»
 0032D8 4110 6100            00100 26659  1                      LA    R1,SCRCEND           R1 - 1ST COMPONENT REC PTR
 0032DC 4820 60F4            000F4 26660  1                      LH    R2,SCRCCHCT          R2 - COMPONENT REC COUNT
 0032E0 4830 60F6            000F6 26661  1                      LH    R3,SCRCCHLN          R3 - COMPONENT REC LENGTH
 0032E4 1222/47D0 7038             26662  1                      WHILE (R2,POS),BEGIN
                                   26678  2                        COMMENT                   R1 - COMPONENT RECORD
                                   26679  2                        COMMENT                   R6 - SESSION RECORD
 0032EA 18F5                       26680  2                        LR    R15,R5              R15 - JCB
 0032EC 4DE0 7046            03306 26681  2                        LCALL DOCOMP              PROCESS EACH COMPONENT RECORD
 0032F0 0620                       26683  2                        DECR  R2
 0032F2 1A13                       26685  2                        AR    R1,R3
 0032F4 47F0 7024            032E4 26686  1                      END
 0032F8                            26691                       END
                                   26695
 0032F8 18D8/9808 D004_            26696                       PEND
 DROP   SMFSCRC,R6
 DROP   *,R7
1ACCT     (ACCT2025) (12:39) (15MAR04) Accounting Routines                                                                  Page   78
0Current Usings:  (CV,R12)
0Loc    Object Code    Addr1 Addr2  Stmt Lv Lineno    Source Statement           (Hibal 5, Asmedit 3.3)  HLASM R4.0  2004/03/15 12.39
+___    ______ ____    _____ _____  ____ __ ______    ______ _________
0                                  26722              ¿þþþþþþþþþþþþþþþþþþþþþþþþþþþþþþþþþþþþþþþþþþþþþþþþþþþþþþþþþþþþþþþþþþþþþÜ
                                   26723              Ÿ                                                                     Ÿ
                                   26724              Ÿ  PROCESS COMPONENT CHARGE RECORDS INTO 3 OLD STYLE SMF RECORDS      Ÿ
                                   26725              Ÿ                                                                     Ÿ
                                   26726              Ÿ  ON ENTRY:                                                          Ÿ
                                   26727              Ÿ       R1 - CHARGE SUB-RECORD                                        Ÿ
                                   26728              Ÿ       R6 - NEW TOTAL BILL RECORD                                    Ÿ
                                   26729              Ÿ       R15- JCB ptr for user whose charge record is to be written    Ÿ
                                   26730              Ÿ                                                                     Ÿ
                                   26731              Ÿ  REGISTER USAGE:                                                    Ÿ
                                   26732              Ÿ       R5 - CHARGE SUB-RECORD                                        Ÿ
                                   26733              Ÿ       R6 - NEW TOTAL BILL RECORD                                    Ÿ
                                   26734              Ÿ       R2 - OLD ACCT RECORD                                          Ÿ
                                   26735              Ÿ                                                                     Ÿ
                                                      ¾þþþþþþþþþþþþþþþþþþþþþþþþþþþþþþþþþþþþþþþþþþþþþþþþþþþþþþþþþþþþþþþþþþþþþ»
0000000                00000 0012A 26736              DCWA     RECORD BEGIN
 000000                            26744  1                      DS    0F
 000000                            26745  1           DCSMFWYL   DS    XL(L'SMFACCT)       WYLBUR OLD STYLE SMF RECORD
 000064                            26746  1                      DS    0F
 000064                            26747  1           DCSMFMIL   DS    XL(L'SMFACCT)       MILTEN OLD STYLE SMF RECORD
 0000C8                            26748  1                      DS    0F
 0000C8                            26749  1           DCSMFORV   DS    XL(L'SMFACCT)       ORVYL OLD STYLE SMF RECORD
 00012A                0012A 0012A 26750                       END
                                   26759              þþþþ
 003306 50E0 D000/9008_      00000 26760              DOCOMP   PROC  DCWA
 USING  *,R7
 USING  DCWA-(4+36),R8
                                   26810
 USING  SMFSCRC,R6                 26811                       USING SMFSCRC,R6
 USING  SMFCCRC,R5                 26820                       USING SMFCCRC,R5
 USING  SMFHDR,R2                  26829                       USING SMFHDR,R2
 003320 1851                       26838                       LR    R5,R1
 003322 D7FF 8028 8028_00000 00000 26839                       CLEAR DCWA
                                   26847
                                   26848                       COMMENT                   SETUP OLD STYLE WYLBUR SMF HDR
 00332E 4120 8028            00000 26849                       LA    R2,DCSMFWYL         GET SMF RECORD ADDRBILITY
 003332 4110 8028            00000 26850                       LA    R1,DCSMFWYL
 003336 4100 0062            00062 26851                       LA    R0,L'DCSMFWYL
                                   26852                       COMMENT , R15=JCB PTR
 00333A 58E0 71D8/0DEE       034F8 26853                       ACALL SMFIHDR             INITIALIZE SMF HDR
 003340 D200 2007 00AA 00007 000AA 26857                       MVC   SMFTYPE,&WSMFSYS
                                   26858
 003346 41F0 0000            00000 26859                       LA    R15,0               Set time block number
 00334A D507 71A0 5018_034C0 00018 26860                       IF    (CCRCBLK,EQ,'DAY     '),'LA R15,0'  Old form...
 003358 D507 71A8 5018_034C8 00018 26883                       IF    (CCRCBLK,EQ,'EVENING '),'LA R15,1'
 003366 D507 71B0 5018_034D0 00018 26906                       IF    (CCRCBLK,EQ,'NIGHT   '),'LA R15,2'
 003374 D507 71B8 5018_034D8 00018 26929                       IF    (CCRCBLK,EQ,'WEEKEND '),'LA R15,3'
 003382 D507 71C0 5018_034E0 00018 26952                       IF    (CCRCBLK,EQ,'PEAK    '),'LA R15,4'
                                   26975
 003390 95C4 501F/4770_0001F       26976                       IF    (CCRCBLK+7,EQ,'D'),'LA R15,0'  New form...
 00339C 95C5 501F/4770_0001F       26999                       IF    (CCRCBLK+7,EQ,'E'),'LA R15,1'
 0033A8 95D5 501F/4770_0001F       27022                       IF    (CCRCBLK+7,EQ,'N'),'LA R15,2'
 0033B4 95E6 501F/4770_0001F       27045                       IF    (CCRCBLK+7,EQ,'W'),'LA R15,3'
1ACCT     (ACCT2025) (12:39) (15MAR04) Accounting Routines                                                                  Page   79
0Current Usings:  (SMFHDR,R2) (SMFCCRC,R5) (SMFSCRC,R6) (*,R7) (DCWA-(4+36),R8) (CV,R12)
0Loc    Object Code    Addr1 Addr2  Stmt Lv Lineno    Source Statement           (Hibal 5, Asmedit 3.3)  HLASM R4.0  2004/03/15 12.39
+___    ______ ____    _____ _____  ____ __ ______    ______ _________
00033C0 95D7 501F/4770_0001F       27068                       IF    (CCRCBLK+7,EQ,'P'),'LA R15,4'
                                   27091
 0033CC 42F2 003B            0003B 27092                       STC   R15,SMFTMBLK-SMFACCT(R2)  Save time block number
 0033D0 1815                       27093                       LR    R1,R5               R1 - COMPONENT CHARGE RECORD
                                   27094                       COMMENT                   R2 - OLD WYLBUR SMF RECORD
                                   27095                       COMMENT                   R6 - SESSION CHARGE RECORD
                                   27096                       ¿þþþþþþþþþþþþþþþþþþþþþþþþþþþþþþþþþþþþþþþþþþþþþþþþþþþþþþþþÜ
                                   27097                       Ÿ  Change billing account for "charge diversion" logic.  Ÿ
                                   27098                       ¾þþþþþþþþþþþþþþþþþþþþþþþþþþþþþþþþþþþþþþþþþþþþþþþþþþþþþþþþ»
 0033D2 58E0 71DC/0DEE       034FC 27099                       ACALL CHKPROJ             FIX ACCOUNT FOR SOME PROJ-IDS
 0033D8 D604 2014 2014_00014 00014 27103                       IF    (SMFIACCT,NZ),BEGIN  We need to write the record...
                                   27119  1                      ¿þþþþþþþþþþþþþþþþþþþþþþþþþþþþþþþþþþþþÜ
                                   27120  1                      Ÿ  SET UP OLD STYLE MILTEN SMF HDR.  Ÿ
                                   27121  1                      ¾þþþþþþþþþþþþþþþþþþþþþþþþþþþþþþþþþþþþ»
 0033E2 4120 808C            00064 27122  1                      LA    R2,DCSMFMIL
 0033E6 D261 808C 8028 00064 00000 27123  1                      MVC   DCSMFMIL,DCSMFWYL   DITTO MILTEN HDR FROM WYLBUR HDR
 0033EC D207 201C 71C8 0001C 034E8 27124  1                      MVC   SMFSYSTM,=CL8'MILTEN  '
                                   27125  1                      ¿þþþþþþþþþþþþþþþþþþþþþþþþþþþþþþþþþþþþÜ
                                   27126  1                      Ÿ  SET UP OLD STYLE MILTEN SMF HDR.  Ÿ
                                   27127  1                      ¾þþþþþþþþþþþþþþþþþþþþþþþþþþþþþþþþþþþþ»
 0033F2 4120 80F0            000C8 27128  1                      LA    R2,DCSMFORV
 0033F6 D261 80F0 8028 000C8 00000 27129  1                      MVC   DCSMFORV,DCSMFWYL   DITTO ORVYL HDR FROM WYLBUR HDR
 0033FC D207 201C 71D0 0001C 034F0 27130  1                      MVC   SMFSYSTM,=CL8'ORVYL   '
                                   27131  1
 DROP   SMFHDR,R2                  27132  1                      DROP  R2
 USING  SMFACCT,R2                 27139  1                      USING SMFACCT,R2
                                   27148  1                      ¿þþþþþþþþþþþþþþþþþþþþþþþÜ
                                   27149  1                      Ÿ  SET WYLBUR CHARGES.  Ÿ
                                   27150  1                      ¾þþþþþþþþþþþþþþþþþþþþþþþ»
 003402 4120 8028            00000 27151  1                      LA    R2,DCSMFWYL
 003406 1BEE                       27152  1                      CLEAR R14
 003408 58F0 5030            00030 27156  1                      L     R15,CCRCWCPU        Wylbur CPU seconds
 00340C D603 CDFC CDFC_00DFC 00DFC 27157  1                      IF    (CVCPUMUL,NZ),BEGIN  We have a CPU multiplier...
 003416 5CE0 71E0            03500 27173  2                        M     R14,=F'1000'        <<<  Convert back to real
 00341A 5DE0 CDFC            00DFC 27174  2                        D     R14,CVCPUMUL        <<<  CPU seconds
 00341E                            27175  1                      END
 00341E 1BEE                       27179  1                      CLEAR R14
 003420 5DE0 71E4            03504 27183  1                      D     R14,=F'384'         GET 100THS SECS FROM TU'S
 003424 59E0 71E8/47D0_      03508 27184  1                      IF    (R14,GT,384/2),' INCR R15 ' ROUND
 003430 50F0 203C            0003C 27209  1                      ST    R15,SMFWCPU
 003434 58F0 5038            00038 27210  1                      L     R15,CCRCWIO
 003438 40F0 2050            00050 27211  1                      STH   R15,SMFWDIO
                                   27212  1                      ¿þþþþþþþþþþþþþþþþþþþþþþþÜ
                                   27213  1                      Ÿ  SET MILTEN CHARGES.  Ÿ
                                   27214  1                      ¾þþþþþþþþþþþþþþþþþþþþþþþ»
 00343C 4120 808C            00064 27215  1                      LA    R2,DCSMFMIL
 003440 D203 203C 5020 0003C 00020 27216  1                      MVC   SMFMCON,CCRCCON     Set elapsed time (in .01 sec)
 003446 D203 2040 5028 00040 00028 27217  1                      MVC   SMFMTIO,CCRCTIO     Set terminal I/Os
                                   27218  1                      ¿þþþþþþþþþþþþþþþþþþþþþþÜ
                                   27219  1                      Ÿ  SET ORVYL CHARGES.  Ÿ
                                   27220  1                      ¾þþþþþþþþþþþþþþþþþþþþþþ»
 00344C 4120 80F0            000C8 27221  1                      LA    R2,DCSMFORV
 003450 1BEE                       27222  1                      CLEAR R14
 003452 58F0 5040            00040 27226  1                      L     R15,CCRCVCPU        ORVYL CPU seconds
1ACCT     (ACCT2025) (12:39) (15MAR04) Accounting Routines                                                                  Page   80
0Current Usings:  (SMFACCT,R2) (SMFCCRC,R5) (SMFSCRC,R6) (*,R7) (DCWA-(4+36),R8) (CV,R12)
0Loc    Object Code    Addr1 Addr2  Stmt Lv Lineno    Source Statement           (Hibal 5, Asmedit 3.3)  HLASM R4.0  2004/03/15 12.39
+___    ______ ____    _____ _____  ____ __ ______    ______ _________
0003456 D603 CDFC CDFC_00DFC 00DFC 27227  1                      IF    (CVCPUMUL,NZ),BEGIN  We have a CPU multiplier...
 003460 5CE0 71E0            03500 27243  2                        M     R14,=F'1000'        <<<  Convert back to real
 003464 5DE0 CDFC            00DFC 27244  2                        D     R14,CVCPUMUL        <<<  CPU seconds
 003468                            27245  1                      END
 003468 50F0 203C            0003C 27249  1                      ST    R15,SMFVCPU
 00346C 58F0 5048            00048 27250  1                      L     R15,CCRCVIO
 003470 50F0 2044            00044 27251  1                      ST    R15,SMFVDIO
                                   27252  1                      ¿þþþþþþþþþþþþþþþþþþþþþþþþþþþþþþþþþþþþÜ
                                   27253  1                      Ÿ  Write the old style SMF records.  Ÿ
                                   27254  1                      ¾þþþþþþþþþþþþþþþþþþþþþþþþþþþþþþþþþþþþ»
 003474 4110 808C/4100_      00064 27255  1                      SETMSG DCSMFMIL,L'DCSMFMIL
 00347C 41F0 00AA            000AA 27271  1                      LA    R15,&WSMFSYS
 003480 58E0 71F0/0DEE       03510 27272  1                      ACALL SMFWRITE
                                   27276  1
 003486 4110 8028/4100_      00000 27277  1                      SETMSG DCSMFWYL,L'DCSMFWYL
 00348E 41F0 00AA            000AA 27293  1                      LA    R15,&WSMFSYS
 003492 58E0 71F0/0DEE       03510 27294  1                      ACALL SMFWRITE
                                   27298  1
 003498 4110 80F0/4100_      000C8 27299  1                      SETMSG DCSMFORV,L'DCSMFORV
 0034A0 41F0 00AA            000AA 27315  1                      LA    R15,&WSMFSYS
 0034A4 58E0 71F0/0DEE       03510 27316  1                      ACALL SMFWRITE
 0034AA                            27320                       END
                                   27324
 0034AA 1BFF                       27325                       CLEAR R15
 0034AC 18D8/9808 D004_            27329                       PEND
 DROP   DCWA-(4+36),R8
 DROP   *,R7
 DROP   SMFSCRC,R6                 27354                       DROP  R6
 DROP   SMFCCRC,R5                 27361                       DROP  R5
 DROP   SMFACCT,R2                 27368                       DROP  R2
                                   27375
                                   27376                       QLTORG
1ACCT     (ACCT2025) (12:39) (15MAR04) Accounting Routines                                                                  Page   81
0Current Usings:  (CV,R12)
0Loc    Object Code    Addr1 Addr2  Stmt Lv Lineno    Source Statement           (Hibal 5, Asmedit 3.3)  HLASM R4.0  2004/03/15 12.39
+___    ______ ____    _____ _____  ____ __ ______    ______ _________
0                                  27405              ¿þþþþþþþþþþþþþþþþþþþþþþþþþþþþþþþþþþþþþþþþþþþþþþþþþþþþþþþþþþþþþþþþþþþþþÜ
                                   27406              Ÿ                                                                     Ÿ
                                   27407              Ÿ  CHKPROJ - We are required to change the charged user ids for       Ÿ
                                   27408              Ÿ    certain project/componet cobinations.  For example, some         Ÿ
                                   27409              Ÿ    prism session charges are all diverted to account HQ.CLS.        Ÿ
                                   27410              Ÿ                                                                     Ÿ
                                   27411              Ÿ    ON ENTRY:                                                        Ÿ
                                   27412              Ÿ        R1 - component charge record                                 Ÿ
                                   27413              Ÿ             (contains project/compenent info)                       Ÿ
                                   27414              Ÿ        R2 - smf record to output                                    Ÿ
                                   27415              Ÿ             (contains user id to change)                            Ÿ
                                   27416              Ÿ        R6 - session charge record                                   Ÿ
                                   27417              Ÿ             (contains source of funds, etc)                         Ÿ
                                   27418              Ÿ                                                                     Ÿ
                                   27419              Ÿ    ON EXIT:                                                         Ÿ
                                   27420              Ÿ        @R2 - output smf record user id field is updated             Ÿ
                                   27421              Ÿ              if appropriate                                         Ÿ
                                   27422              Ÿ                                                                     Ÿ
                                                      ¾þþþþþþþþþþþþþþþþþþþþþþþþþþþþþþþþþþþþþþþþþþþþþþþþþþþþþþþþþþþþþþþþþþþþþ»
0000000                00000 00001 27423              CHKPWA   RECORD BEGIN
 000000 00                         27431  1           CHKPFLAG   FLAG
 CHKPFLAG.CHKPCOMM 80 ONES         27435  1                      FLAG  CHKPCOMM            - Commercial user
 CHKPFLAG.CHKPFREE 40 ONES         27440  1                      FLAG  CHKPFREEMAIL        - Eligible for "uncharged mail"
 000001                00001 00001 27445                       END
                                   27454              þþþþ
 003522 50E0 D000/9008_      00000 27455              CHKPROJ  PROC CHKPWA
 USING  *,R7
 USING  CHKPWA-(4+36),R8
                                   27505
                                   27506                       AIF   ('&INSTALN' NE 'STANFORD').CKPSKIP
                                   27507
 USING  SMFCCRC,R1                 27508                       USING SMFCCRC,R1
 USING  SMFHDR,R2                  27517                       USING SMFHDR,R2
 USING  SMFSCRC,R6                 27526                       USING SMFSCRC,R6
 00353C 9200 8028      00000       27535                       CLEAR CHKPWA
                                   27542                       ¿þþþþþþþþþþþþþþþþþþþþþþþþþþþþþþþþþþþþþþþþþþþþÜ
                                   27543                       Ÿ  Set commercial/non-commercial user flag.  Ÿ
                                   27544                       ¾þþþþþþþþþþþþþþþþþþþþþþþþþþþþþþþþþþþþþþþþþþþþ»
 003540 9680 8028      00000       27545                       SET   CHKPCOMM            Assume commercial user
                                   27551            C          IF    ((SCRCSOF,NE,'2'),OR,
 003544 95F2 60AA/4770_000AA                                         ((SCRCSOF,EQ,'20'),OR,(SCRCSOF,EQ,'29'))),BEGIN
 003560 D501 7324 60AA_03860 000AA 27600  1                      IF    (SCRCSOF,EQ,'D1'),EXIT  SOF=D1 is commercial
 00356A 947F 8028      00000       27620  1                      CLEAR CHKPCOMM            Non-commercial
 00356E                            27627                       END
                                   27631                       ¿þþþþþþþþþþþþþþþþþþþþþþþþþþþþþþþþþþþþþþþþþþþþþÜ
                                   27632                       Ÿ  Set FREEMAIL flag if account is eligible.  Ÿ
                                   27633                       ¾þþþþþþþþþþþþþþþþþþþþþþþþþþþþþþþþþþþþþþþþþþþþþ»
 00356E 95C4 101F/4770_0001F       27634                       IF    (CCRCBLK+7,EQ,'D'),BEGIN  Day (not PEAK)...
 003576 95F1 60AA/4780_000AA       27651  1                      IF    (SCRCSOF,EQ,'1'),CKFRYES
 00357E 95F3 60AA/4750_000AA       27671  1                      IF    ((SCRCSOF,GE,'3'),AND,(SCRCSOF,LE,'7')),CKFRYES
 00358E 95F9 60AA/4780_000AA       27707  1                      IF    (SCRCSOF,EQ,'9'),CKFRYES
 003596 D501 7326 60AA_03862 000AA 27727  1                      IF    (SCRCSOF,EQ,'DE'),CKFRYES
 0035A0 D501 7328 60AA_03864 000AA 27747  1                      IF    (SCRCSOF,EQ,'D2'),CKFRYES
1ACCT     (ACCT2025) (12:39) (15MAR04) Accounting Routines                                                                  Page   82
0Current Usings:  (SMFCCRC,R1) (SMFHDR,R2) (SMFSCRC,R6) (*,R7) (CHKPWA-(4+36),R8) (CV,R12)
0Loc    Object Code    Addr1 Addr2  Stmt Lv Lineno    Source Statement           (Hibal 5, Asmedit 3.3)  HLASM R4.0  2004/03/15 12.39
+___    ______ ____    _____ _____  ____ __ ______    ______ _________
00035AA D501 732A 60AA_03866 000AA 27767  1                      IF    (SCRCSOF,EQ,'D3'),CKFRYES
 0035B4 D501 732C 60AA_03868 000AA 27787  1                      IF    (SCRCSOF,EQ,'D5'),CKFRYES
 0035BE D501 732E 60AA_0386A 000AA 27807  1                      IF    (SCRCSOF,EQ,'D6'),CKFRYES
 0035C8 47F0 7094            035D0 27827  1                      EXIT
                                   27830  1
 0035CC 9640 8028      00000       27831  1           CKFRYES    SET   CHKPFREEMAIL        Set FREEMAIL flag
 0035D0                            27838                       END
                                   27842              *
                                   27843              ******** No CP addressability, skip authorized check
                                   27844              ******** IF    (CPSVFLAG.CPSVFRUN*CPSVFAUTH,AND,~CHKPCOMM),BEGIN
                                   27845                       ¿þþþþþþþþþþþþþþþþþþþþþþþþþþþþþþþþÜ
                                   27846                       Ÿ  Diversions for all accounts.  Ÿ
                                   27847                       ¾þþþþþþþþþþþþþþþþþþþþþþþþþþþþþþþþ»
 0035D0 D50B 72F4 1008_03830 00008 27848                       IF    (CCRCCOMP,EQ,'PRISM_IPRIS '),BEGIN
 0035DA D204 2014 7396 00014 038D2 27865  1                      MVC   SMFIACCT,=C'TLCGE'
 0035E0                            27866                       END
                                   27870
 0035E0 D50D 7330 1008_0386C 00008 27871                       IF    (CCRCCOMP,EQ,'PRISM_EXTAPES '),BEGIN
 0035EA D204 2014 739B 00014 038D7 27888  1                      MVC   SMFIACCT,=C'LIBGW'
 0035F0                            27889                       END
                                   27893
 0035F0 D50D 733E 1008_0387A 00008 27894                       IF    (CCRCCOMP,EQ,'PRISM_REFUNDS '),BEGIN
 0035FA D204 2014 73A0 00014 038DC 27911  1                      MVC   SMFIACCT,=C'REFGA'
 003600                            27912                       END
                                   27916                       ¿þþþþþþþþþþþþþþþþþþþþþþþþþþþþþþþþþþþþþþþþþþþþþþþÜ
                                   27917                       Ÿ  Diversions for non-comercial accounts only.  Ÿ
                                   27918                       ¾þþþþþþþþþþþþþþþþþþþþþþþþþþþþþþþþþþþþþþþþþþþþþþþ»
 003600 9180 8028/4710_00000       27919                       IF    ~CHKPCOMM,BEGIN     If not commercial...
                                   27934  1                      ¿þþþþþþþþþþþþþþþþþþþþþþþþþþþþþÜ
                                   27935  1                      Ÿ  Folio billing diversions.  Ÿ
                                   27936  1                      ¾þþþþþþþþþþþþþþþþþþþþþþþþþþþþþ»
 003608 D50D 734C 1008_03888 00008 27937  1                      IF    (CCRCCOMP,EQ,'FOLIO_GENERAL '),BEGIN
 003612 D501 6017 735A 00017 03896 27954  2                        CLC   SMFGRP-SMFHDR(2,R6),=C'YA'  Awards consortium(see Bo)
 003618 4780 70E6            03622 27955  2                        IF    EQ,EXIT
 00361C D204 2014 73A5 00014 038E1 27969  2                        MVC   SMFIACCT,=C'FOLEC'
 003622                            27970  1                      END
                                   27974  1
 003622 D50E 73AA 1008_038E6 00008 27975  1                      IF    (CCRCCOMP,EQ,'FOLIO_SOCRATES '),BEGIN
 00362C D501 6017 735C 00017 03898 27992  2                        CLC   SMFGRP-SMFHDR(2,R6),=C'EC'  Charge group EC
 003632 4780 710A            03646 27993  2                        IF    EQ,EXIT
 003636 D501 6017 735A 00017 03896 28007  2                        CLC   SMFGRP-SMFHDR(2,R6),=C'YA'  Awards consortium(see Bo)
 00363C 4780 710A            03646 28008  2                        IF    EQ,EXIT
 003640 D204 2014 73B9 00014 038F5 28022  2                        MVC   SMFIACCT,=C'DMOED'
 003646                            28023  1                      END
                                   28027  1
 003646 D50C 73BE 1008_038FA 00008 28028  1                      IF    (CCRCCOMP,EQ,'FOLIO_HOOVER '),BEGIN
 003650 D204 2014 73CB 00014 03907 28045  2                        MVC   SMFIACCT,=C'HPCED'
 003656                            28046  1                      END
                                   28050  1
 003656 D509 735E 1008_0389A 00008 28051  1                      IF    (CCRCCOMP,EQ,'FOLIO_HBR '),BEGIN
 003660 D204 2014 73D0 00014 0390C 28068  2                        MVC   SMFIACCT,=C'HBRED'
 003666                            28069  1                      END
                                   28073  1
 003666 D50F 72B4 1008_037F0 00008 28074  1                      IF    (CCRCCOMP,EQ,'FOLIO_IAP_INSPEC'),BEGIN
1ACCT     (ACCT2025) (12:39) (15MAR04) Accounting Routines                                                                  Page   83
0Current Usings:  (SMFCCRC,R1) (SMFHDR,R2) (SMFSCRC,R6) (*,R7) (CHKPWA-(4+36),R8) (CV,R12)
0Loc    Object Code    Addr1 Addr2  Stmt Lv Lineno    Source Statement           (Hibal 5, Asmedit 3.3)  HLASM R4.0  2004/03/15 12.39
+___    ______ ____    _____ _____  ____ __ ______    ______ _________
0003670 D204 2014 73D5 00014 03911 28091  2                        MVC   SMFIACCT,=C'IAPGB'
 003676                            28092  1                      END
                                   28096  1
 003676 D50D 7368 1008_038A4 00008 28097  1                      IF    (CCRCCOMP,EQ,'FOLIO_IAP_PSY '),BEGIN
 003680 D204 2014 73D5 00014 03911 28114  2                        MVC   SMFIACCT,=C'IAPGB'
 003686                            28115  1                      END
                                   28119  1
 003686 D50E 73DA 1008_03916 00008 28120  1                      IF    (CCRCCOMP,EQ,'FOLIO_IAP_ERIC '),BEGIN
 003690 D204 2014 73D5 00014 03911 28137  2                        MVC   SMFIACCT,=C'IAPGB'
 003696                            28138  1                      END
                                   28142  1
 003696 D509 7376 1008_038B2 00008 28143  1                      IF    (CCRCCOMP,EQ,'FOLIO_AIR '),BEGIN
 0036A0 D204 2014 73E9 00014 03925 28160  2                        MVC   SMFIACCT,=C'AIRHQ'
 0036A6                            28161  1                      END
                                   28165  1
 0036A6 D50F 72C4 1008_03800 00008 28166  1                      IF    (CCRCCOMP,EQ,'FOLIO_BOOKSTORE '),BEGIN
 0036B0 D204 2014 73EE 00014 0392A 28183  2                        MVC   SMFIACCT,=C'SBSEC'
 0036B6                            28184  1                      END
                                   28188  1
 0036B6 D50C 73F3 1008_0392F 00008 28189  1                      IF    (CCRCCOMP,EQ,'FOLIO_INVEST '),BEGIN
 0036C0 D204 2014 7400 00014 0393C 28206  2                        MVC   SMFIACCT,=C'INVHQ'
 0036C6                            28207  1                      END
                                   28211  1
 0036C6 D50C 7405 1008_03941 00008 28212  1                      IF    (CCRCCOMP,EQ,'FOLIO_MLKING '),BEGIN
 0036D0 D204 2014 7412 00014 0394E 28229  2                        MVC   SMFIACCT,=C'MLKHQ'
 0036D6                            28230  1                      END
                                   28234  1
 0036D6 D50E 7417 1008_03953 00008 28235  1                      IF    (CCRCCOMP,EQ,'FOLIO_COMMINFO '),BEGIN
 0036E0 D204 2014 7426 00014 03962 28252  2                        MVC   SMFIACCT,=C'CIPHQ'
 0036E6                            28253  1                      END
                                   28257  1                      ¿þþþþþþþþþþþþþþþþþþþþþþþþþþþþþÜ
                                   28258  1                      Ÿ  Prism billing diversions.  Ÿ
                                   28259  1                      Ÿ    (Skip core accounts)     Ÿ
                                   28260  1                      ¾þþþþþþþþþþþþþþþþþþþþþþþþþþþþþ»
                                   28261  1         C            IF    ((SCRCSOF,NE,'C'),OR,
 0036E6 95C3 60AA/4770_000AA              1                            (SCRCSOF,EQ,'CA')),BEGIN     Skip core accounts
 0036F8 D508 742B 1008_03967 00008 28294  2                        IF    (CCRCCOMP,EQ,'PRISM_NC '),BEGIN
 003702 D204 2014 7434 00014 03970 28311  3                          MVC   SMFIACCT,=C'DMOHQ'
 003708                            28312  2                        END
                                   28316  2
 003708 D50A 7439 1008_03975 00008 28317  2                        IF    (CCRCCOMP,EQ,'PRISM_SMAS '),BEGIN
 003712 D204 2014 7444 00014 03980 28334  3                          MVC   SMFIACCT,=C'SMSHQ'
 003718                            28335  2                        END
                                   28339  2
 003718 D50F 72D4 1008_03810 00008 28340  2                        IF    (CCRCCOMP,EQ,'PRISM_PUBEVENTS '),BEGIN
 003722 D204 2014 73A5 00014 038E1 28357  3                          MVC   SMFIACCT,=C'FOLEC'
 003728                            28358  2                        END
                                   28362  2
 003728 D50B 7300 1008_0383C 00008 28363  2                        IF    (CCRCCOMP,EQ,'PRISM_SUFIN '),BEGIN
 003732 D204 2014 7449 00014 03985 28380  3                          MVC   SMFIACCT,=C'SFNHQ'
 003738                            28381  2                        END
                                   28385  2
 003738 D509 7382 1008_038BE 00008 28386  2                        IF    (CCRCCOMP,EQ,'PRISM_NSI '),BEGIN
 003742 D204 2014 744E 00014 0398A 28403  3                          MVC   SMFIACCT,=C'SSSHQ'
1ACCT     (ACCT2025) (12:39) (15MAR04) Accounting Routines                                                                  Page   84
0Current Usings:  (SMFCCRC,R1) (SMFHDR,R2) (SMFSCRC,R6) (*,R7) (CHKPWA-(4+36),R8) (CV,R12)
0Loc    Object Code    Addr1 Addr2  Stmt Lv Lineno    Source Statement           (Hibal 5, Asmedit 3.3)  HLASM R4.0  2004/03/15 12.39
+___    ______ ____    _____ _____  ____ __ ______    ______ _________
0003748                            28404  2                        END
                                   28408  2
 003748 D50A 7453 1008_0398F 00008 28409  2                        IF    (CCRCCOMP,EQ,'PRISM_SNAP '),BEGIN
 003752 D204 2014 745E 00014 0399A 28426  3                          MVC   SMFIACCT,=C'SNPHQ'
 003758                            28427  2                        END
                                   28431  2
 003758 D50B 730C 1008_03848 00008 28432  2                        IF    (CCRCCOMP,EQ,'PRISM_CLASS '),BEGIN
 003762 D204 2014 7463 00014 0399F 28449  3                          MVC   SMFIACCT,=C'CLSHQ'
 003768                            28450  2                        END
                                   28454  2
 003768 D50A 7468 1008_039A4 00008 28455  2                        IF    (CCRCCOMP,EQ,'PRISM_MISC '),BEGIN
 003772 D204 2014 7473 00014 039AF 28472  3                          MVC   SMFIACCT,=C'OTHHQ'
 003778                            28473  2                        END
                                   28477  2
 003778 D50E 7478 1008_039B4 00008 28478  2                        IF    (CCRCCOMP,EQ,'PRISM_PARTNERS '),BEGIN
 003782 D204 2014 7487 00014 039C3 28495  3                          MVC   SMFIACCT,=C'WIZGE'
 003788                            28496  2                        END
                                   28500  2
 003788 D509 738C 1008_038C8 00008 28501  2                        IF    (CCRCCOMP,EQ,'PRISM_CDS '),BEGIN
 003792 D204 2014 748C 00014 039C8 28518  3                          MVC   SMFIACCT,=C'TIPHQ'
 003798                            28519  2                        END
                                   28523  2
 003798                            28524  1                      END   , of no prism charge diversion for core accounts
 003798                            28528                       END   , of no charge diversion for commercial accounts
                                   28532                       ¿þþþþþþþþþþþþþþþþþþþþþþþþþþþþþþþþþþþþþþþþþþþþþþþþþþÜ
                                   28533                       Ÿ  Divert charges for "free EMS and Wylbur Mail".  Ÿ
                                   28534                       ¾þþþþþþþþþþþþþþþþþþþþþþþþþþþþþþþþþþþþþþþþþþþþþþþþþþ»
 003798 9140 8028/47E0_00000       28535                       IF    CHKPFREEMAIL,BEGIN  Eligible for free mail...
 0037A0 D503 7318 1008_03854 00008 28550  1                      IF    (CCRCCOMP,EQ,'EMS_'),BEGIN
 0037AA D204 2014 7491 00014 039CD 28567  2                        MVC   SMFIACCT,=C'EMSGB'
 0037B0                            28568  1                      END
                                   28572  1
 0037B0 D507 72E4 1008_03820 00008 28573  1                      IF    (CCRCCOMP,EQ,'WYLMAIL_'),BEGIN
 0037BA D204 2014 7496 00014 039D2 28590  2                        MVC   SMFIACCT,=C'WYLGB'
 0037C0                            28591  1                      END
 0037C0                            28595                       END
                                   28599
 0037C0 D507 72EC 1008_03828 00008 28600                       IF    (CCRCCOMP,EQ,'PUBLISH '),BEGIN
 0037CA D204 2014 749B 00014 039D7 28617  1                      MVC   SMFIACCT,=C'PBLGB'
 0037D0                            28618                       END
                                   28622
                                   28623              .CKPSKIP ANOP
                                   28624                       ¿þþþþþþþþþþþþþþþþþþþþþþþþþþþþþþþþþþþþþþþþþþþþþþþþþþþþþÜ
                                   28625                       Ÿ  Never charge for SYS_ components, they are system  Ÿ
                                   28626                       Ÿ    overhead.                                        Ÿ
                                   28627                       ¾þþþþþþþþþþþþþþþþþþþþþþþþþþþþþþþþþþþþþþþþþþþþþþþþþþþþþ»
 0037D0 D503 731C 1008_03858 00008 28628                       IF    (CCRCCOMP,EQ,'SYS_'),BEGIN
 0037DA D704 2014 2014 00014 00014 28645  1                      CLEAR SMFIACCT            No account (not billed)
 0037E0                            28652                       END
                                   28656
 0037E0 1BFF                       28657                       CLEAR R15                 (Neatness)
 0037E2 18D8/9808 D004_            28661                       PEND
 DROP   CHKPWA-(4+36),R8
 DROP   *,R7
1ACCT     (ACCT2025) (12:39) (15MAR04) Accounting Routines                                                                  Page   85
0Current Usings:  (SMFHDR,R2) (SMFSCRC,R6) (CV,R12)
0Loc    Object Code    Addr1 Addr2  Stmt Lv Lineno    Source Statement           (Hibal 5, Asmedit 3.3)  HLASM R4.0  2004/03/15 12.39
+___    ______ ____    _____ _____  ____ __ ______    ______ _________
0DROP   SMFCCRC,R1                 28686                       DROP  R1
 DROP   SMFHDR,R2                  28693                       DROP  R2
 DROP   SMFSCRC,R6                 28700                       DROP  R6
                                   28707
                                   28708                       QLTORG
                                   28785
 USING  CP,R11                     28786                       USING CP                  (Restore CP addressiblity)
1ACCT     (ACCT2025) (12:39) (15MAR04) Accounting Routines                                                                  Page   86
0Current Usings:  (CP,R11) (CV,R12)
0Loc    Object Code    Addr1 Addr2  Stmt Lv Lineno    Source Statement           (Hibal 5, Asmedit 3.3)  HLASM R4.0  2004/03/15 12.39
+___    ______ ____    _____ _____  ____ __ ______    ______ _________
0                                  28796              ¿þþþþþþþþþþþþþþþþþþþþþþþþþþþþþþþþþþþþþþþþþþþþþþþþþþþþþþþþþþþþþþþþþþþþþÜ
                                   28797              Ÿ                                                                     Ÿ
                                   28798              Ÿ  FREEBILL -- Routine to free the user's billing information.        Ÿ
                                   28799              Ÿ    Called at logoff.                                                Ÿ
                                   28800              Ÿ                                                                     Ÿ
                                   28801              Ÿ  On entry:                                                          Ÿ
                                   28802              Ÿ        R1 - JCB pointer                                             Ÿ
                                   28803              Ÿ                                                                     Ÿ
                                                      ¾þþþþþþþþþþþþþþþþþþþþþþþþþþþþþþþþþþþþþþþþþþþþþþþþþþþþþþþþþþþþþþþþþþþþþ»
0DROP   CP,R11                     28804                       DROP  CP                  (We shouldn't need to ref CP...)
                                   28812
 0039DC 50E0 D000/9008_      00000 28813              FREEBILL XPROC
 USING  *,R7
 0039F6 1851                       28853                       LR    R5,R1
 USING  JCB,R5                     28854                       WITH  (JCB,R5)
                                   28867                       ¿þþþþþþþþþþþþþþþþþþþþþþþþþþþþþþþþþÜ
                                   28868                       Ÿ  Free the charging components.  Ÿ
                                   28869                       ¾þþþþþþþþþþþþþþþþþþþþþþþþþþþþþþþþþ»
 0039F8 5840 5074            00074 28870                       L     R4,JCBUCEQH         First charging component entry
 0039FC D703 5074 5074_00074 00074 28871                       CLEAR JCBUCEQH,JCBUCEP    Reset
                                   28883
 USING  UCE,R4                     28884                       WITH  (UCE,R4),BEGIN
 003A08 1244/4780 7042             28898  1                      WHILE (R4,NZ),BEGIN       Free all entries...
 003A0E D502 78E4 4000_042DA 00000 28914  2                        IF    (UCE,NE,'UCE'),EXIT  This is strange, scram
 003A18 5830 4004            00004 28934  2                        L     R3,UCELINK          Get next UCE ptr
                                   28935  2
 003A1C D203 4004 7872 00004 04268 28936  2                        MVC   UCELINK,=F'-1'      Reset link ptr
 003A22 D203 4000 7876 00000 0426C 28937  2                        MVC   UCE(4),=C'FUCE'     Change ID
                                   28938  2
 003A28 4110 4000            00000 28939  2                        LA    R1,UCE
 003A2C 58E0 787A/0DEE       04270 28940  2                        VCALL FREECORE            Free this UCE entry
                                   28944  2
 003A32 1843                       28945  2                        LR    R4,R3               Set next UCE ptr
 003A34 47F0 7012            03A08 28946  1                      END
 DROP   UCE,R4                     28951                       END
                                   28959                       ¿þþþþþþþþþþþþþþþþþþþþþþÜ
                                   28960                       Ÿ  Free the counters.  Ÿ
                                   28961                       ¾þþþþþþþþþþþþþþþþþþþþþþ»
 003A38 5810 50A8/1211       000A8 28962                       LT    R1,JCBCTP           Pointer to counter area
 003A3E 1211/4780 705A_            28966                       IF    (R1,NZ),'CLEAR JCBCTP; VCALL FREECORE'
                                   28996                       ¿þþþþþþþþþþþþþþþþþþþþþþþþþþþþþþþþþþþþÜ
                                   28997                       Ÿ  Reset other billing information.  Ÿ
                                   28998                       ¾þþþþþþþþþþþþþþþþþþþþþþþþþþþþþþþþþþþþ»
 003A50 D71F 5088 5088 00088 00088 28999                       CLEAR JCBBILL             Reset other billing fields
                                   29006
 003A56 18D8/9808 D004_            29007                       PEND
 DROP   JCB,R5
 DROP   *,R7
                                   29032
 USING  CP,R11                     29033                       USING CP                  (Restore CP addressability)
1ACCT     (ACCT2025) (12:39) (15MAR04) Accounting Routines                                                                  Page   87
0Current Usings:  (CP,R11) (CV,R12)
0Loc    Object Code    Addr1 Addr2  Stmt Lv Lineno    Source Statement           (Hibal 5, Asmedit 3.3)  HLASM R4.0  2004/03/15 12.39
+___    ______ ____    _____ _____  ____ __ ______    ______ _________
0                                  29043              ¿þþþþþþþþþþþþþþþþþþþþþþþþþþþþþþþþþþþþþþþþþþþþþþþþþþþþþþþþþþþþþþþþþþþþþÜ
                                   29044              Ÿ                                                                     Ÿ
                                   29045              Ÿ  GETCOST -- Routine to return charged CPU seconds and the           Ÿ
                                   29046              Ÿ    associated costs.                                                Ÿ
                                   29047              Ÿ                                                                     Ÿ
                                   29048              Ÿ    On entry:                                                        Ÿ
                                   29049              Ÿ      R1 - COSTCB ptr (nothing filled in)                            Ÿ
                                   29050              Ÿ                                                                     Ÿ
                                   29051              Ÿ    On exit:                                                         Ÿ
                                   29052              Ÿ      R1 - COSTCB ptr (with counts and $'s filled in)                Ÿ
                                   29053              Ÿ                                                                     Ÿ
                                                      ¾þþþþþþþþþþþþþþþþþþþþþþþþþþþþþþþþþþþþþþþþþþþþþþþþþþþþþþþþþþþþþþþþþþþþþ»
0003A64 50E0 D000/9008_      00000 29054              GETCOST  PROC
 USING  *,R7
 003A7E 1861                       29093                       LR    R6,R1
 USING  COSTCB,R6                  29094                       WITH  (COSTCB,R6)
 003A80 D733 6000 6000 00000 00000 29107                       CLEAR COSTCB
                                   29114
 003A86 58F0 C1C8            001C8 29115                       L     R15,CVCURJCB        Current user
 003A8A 58E0 77F6/0DEE       04274 29116                       ACALL BILLUPD             Update current charge component
                                   29120
 003A90 58F0 C1C8            001C8 29121                       L     R15,CVCURJCB        Current user
 003A94 58E0 77FA/0DEE       04278 29122                       ACALL BILLUPD$            Update component charges
                                   29126
 003A9A 5850 C1C8            001C8 29127                       L     R5,CVCURJCB
 003A9E 5850 5074            00074 29128                       WITH  (JCB,R5),'L R5,JCBUCEQH'  Get first charge component
 USING  JCB,R5
 DROP   JCB,R5
                                   29152                       ¿þþþþþþþþþþþþþþþþþþþþþþþþþþþþþþþþþþþþþþþþþþþþþþþþþþþþþþþþþÜ
                                   29153                       Ÿ  Go through each charge entry and accumulate the total  Ÿ
                                   29154                       Ÿ    costs.                                               Ÿ
                                   29155                       ¾þþþþþþþþþþþþþþþþþþþþþþþþþþþþþþþþþþþþþþþþþþþþþþþþþþþþþþþþþ»
 003AA2 1255/4780 70DA             29156                       WHILE (R5,NZ),BEGIN       Go through UCEs...
 USING  UCE,R5                     29172  1                      WITH  (UCE,R5)
 003AA8 1B44                       29185  1                      CLEAR R4                  Assume index for day block values
                                   29189  1                      ¿þþþþþþþþþþþþþþþþþþþþþþþþþþþþþþþþþþþþþþþþþþþþþþþþÜ
                                   29190  1                      Ÿ  Accumulate elapsed (connect) time and costs.  Ÿ
                                   29191  1                      ¾þþþþþþþþþþþþþþþþþþþþþþþþþþþþþþþþþþþþþþþþþþþþþþþþ»
 003AAA 98EF 5030            00030 29192  1                      LM    R14,R15,UCEECLK     Elapsed time (in STCK units)
 003AAE 5EF0 6004/47C0_      00004 29193  1                      ADL   R14,COSTECLK
 003ABE 90EF 6000            00000 29214  1                      STM   R14,R15,COSTECLK    Save new total
                                   29215  1
 003AC2 58F0 5038            00038 29216  1                      L     R15,UCECON$         Ditto for Elapsed time costs
 003AC6 5EF0 6008            00008 29217  1                      AL    R15,COSTCON$
 003ACA 50F0 6008            00008 29218  1                      ST    R15,COSTCON$        Save new dollar total
                                   29219  1                      ¿þþþþþþþþþþþþþþþþþþþþþþþþþþþþþþþþþþþþþþþþþþþþþþþþþþþþþþþþÜ
                                   29220  1                      Ÿ  Internal components (those beginning with "SYS_") do  Ÿ
                                   29221  1                      Ÿ    not accumulate CPU or I/O.                          Ÿ
                                   29222  1                      ¾þþþþþþþþþþþþþþþþþþþþþþþþþþþþþþþþþþþþþþþþþþþþþþþþþþþþþþþþ»
 003ACE D503 7802 500C_04280 0000C 29223  1                      IF    (UCECOMP,EQ,'SYS_'),GETCNEXT
1ACCT     (ACCT2025) (12:39) (15MAR04) Accounting Routines                                                                  Page   88
0Current Usings:  (UCE,R5) (COSTCB,R6) (*,R7) (CP,R11) (CV,R12)
0Loc    Object Code    Addr1 Addr2  Stmt Lv Lineno    Source Statement           (Hibal 5, Asmedit 3.3)  HLASM R4.0  2004/03/15 12.39
+___    ______ ____    _____ _____  ____ __ ______    ______ _________
0                                  29243  1                      ¿þþþþþþþþþþþþþþþþþþþþþþþþþþþþþþþþþþþþþþþÜ
                                   29244  1                      Ÿ  Accumulate terminal I/Os and costs.  Ÿ
                                   29245  1                      ¾þþþþþþþþþþþþþþþþþþþþþþþþþþþþþþþþþþþþþþþ»
 003AD8 58F0 503C            0003C 29246  1                      L     R15,UCETIO          Terminal I/Os
 003ADC 5EF0 600C            0000C 29247  1                      AL    R15,COSTTIO         Add to previous total
 003AE0 50F0 600C            0000C 29248  1                      ST    R15,COSTTIO         Save new total
                                   29249  1
 003AE4 58F0 5040            00040 29250  1                      L     R15,UCETIO$         Ditto for Terminal I/O costs
 003AE8 5EF0 6010            00010 29251  1                      AL    R15,COSTTIO$
 003AEC 50F0 6010            00010 29252  1                      ST    R15,COSTTIO$        Save new dollar total
                                   29253  1                      ¿þþþþþþþþþþþþþþþþþþþþþþþþþþþþþþþþþþþþþþþþþÜ
                                   29254  1                      Ÿ  Accumulate Wylbur CPU time and costs.  Ÿ
                                   29255  1                      ¾þþþþþþþþþþþþþþþþþþþþþþþþþþþþþþþþþþþþþþþþþ»
 003AF0 58F0 5044            00044 29256  1                      L     R15,UCEWCPU         Wylbur CPU time
 003AF4 5EF0 6014            00014 29257  1                      AL    R15,COSTWCPU        Add to previous total
 003AF8 50F0 6014            00014 29258  1                      ST    R15,COSTWCPU        Save new total
                                   29259  1
 003AFC 58F0 5048            00048 29260  1                      L     R15,UCEWCPU$        Ditto for Wylbur CPU costs
 003B00 5EF0 6018            00018 29261  1                      AL    R15,COSTWCPU$
 003B04 50F0 6018            00018 29262  1                      ST    R15,COSTWCPU$       Save new dollar total
                                   29263  1                      ¿þþþþþþþþþþþþþþþþþþþþþþþþþþþþþþþþþþþþþÜ
                                   29264  1                      Ÿ  Accumulate Wylbur I/Os and costs.  Ÿ
                                   29265  1                      ¾þþþþþþþþþþþþþþþþþþþþþþþþþþþþþþþþþþþþþ»
 003B08 58F0 504C            0004C 29266  1                      L     R15,UCEWIO          Wylbur I/Os
 003B0C 5EF0 601C            0001C 29267  1                      AL    R15,COSTWIO         Add to previous total
 003B10 50F0 601C            0001C 29268  1                      ST    R15,COSTWIO         Save new total
                                   29269  1
 003B14 58F0 5050            00050 29270  1                      L     R15,UCEWIO$         Ditto for Wylbur I/O costs
 003B18 5EF0 6020            00020 29271  1                      AL    R15,COSTWIO$
 003B1C 50F0 6020            00020 29272  1                      ST    R15,COSTWIO$        Save new dollar total
                                   29273  1                      ¿þþþþþþþþþþþþþþþþþþþþþþþþþþþþþþþþþþþþþþþþÜ
                                   29274  1                      Ÿ  Accumulate Orvyl CPU time and costs.  Ÿ
                                   29275  1                      ¾þþþþþþþþþþþþþþþþþþþþþþþþþþþþþþþþþþþþþþþþ»
 003B20 58F0 5054            00054 29276  1                      L     R15,UCEVCPU         Orvyl CPU time
 003B24 5EF0 6024            00024 29277  1                      AL    R15,COSTVCPU        Add to previous total
 003B28 50F0 6024            00024 29278  1                      ST    R15,COSTVCPU        Save new total
                                   29279  1
 003B2C 58F0 5058            00058 29280  1                      L     R15,UCEVCPU$        Ditto for Orvyl CPU costs
 003B30 5EF0 6028            00028 29281  1                      AL    R15,COSTVCPU$
 003B34 50F0 6028            00028 29282  1                      ST    R15,COSTVCPU$       Save new dollar total
                                   29283  1                      ¿þþþþþþþþþþþþþþþþþþþþþþþþþþþþþþþþþþþþÜ
                                   29284  1                      Ÿ  Accumulate Orvyl I/Os and costs.  Ÿ
                                   29285  1                      ¾þþþþþþþþþþþþþþþþþþþþþþþþþþþþþþþþþþþþ»
 003B38 58F0 505C            0005C 29286  1                      L     R15,UCEVIO          Orvyl I/Os
 003B3C 5EF0 602C            0002C 29287  1                      AL    R15,COSTVIO         Add to previous total
 003B40 50F0 602C            0002C 29288  1                      ST    R15,COSTVIO         Save new total
                                   29289  1
 003B44 58F0 5060            00060 29290  1                      L     R15,UCEVIO$         Ditto for Orvyl I/O costs
 003B48 5EF0 6030            00030 29291  1                      AL    R15,COSTVIO$
 003B4C 50F0 6030            00030 29292  1                      ST    R15,COSTVIO$        Save new dollar total
                                   29293  1
 003B50 5850 5004            00004 29294  1           GETCNEXT   L     R5,UCELINK          Next UCE (if any)
 003B54 47F0 7024            03AA2 29295                       END
 DROP   UCE,R5
1ACCT     (ACCT2025) (12:39) (15MAR04) Accounting Routines                                                                  Page   89
0Current Usings:  (COSTCB,R6) (*,R7) (CP,R11) (CV,R12)
0Loc    Object Code    Addr1 Addr2  Stmt Lv Lineno    Source Statement           (Hibal 5, Asmedit 3.3)  HLASM R4.0  2004/03/15 12.39
+___    ______ ____    _____ _____  ____ __ ______    ______ _________
0                                  29305
 003B58 18D8/9808 D004_            29306                       PEND
 DROP   COSTCB,R6
 DROP   *,R7
1ACCT     (ACCT2025) (12:39) (15MAR04) Accounting Routines                                                                  Page   90
0Current Usings:  (CP,R11) (CV,R12)
0Loc    Object Code    Addr1 Addr2  Stmt Lv Lineno    Source Statement           (Hibal 5, Asmedit 3.3)  HLASM R4.0  2004/03/15 12.39
+___    ______ ____    _____ _____  ____ __ ______    ______ _________
0                                  29332              ¿þþþþþþþþþþþþþþþþþþþþþþþþþþþþþþþþþþþþþþþþþþþþþþþþþþþþþþþþþþþþþþþþþþþþþÜ
                                   29333              Ÿ                                                                     Ÿ
                                   29334              Ÿ  LOGKWR -- Routine to write SMF record to log accounting            Ÿ
                                   29335              Ÿ    command usage.                                                   Ÿ
                                   29336              Ÿ                                                                     Ÿ
                                   29337              Ÿ      On entry:                                                      Ÿ
                                   29338              Ÿ        R0 - flags (SMFWFL)                                          Ÿ
                                   29339              Ÿ                                                                     Ÿ
                                                      ¾þþþþþþþþþþþþþþþþþþþþþþþþþþþþþþþþþþþþþþþþþþþþþþþþþþþþþþþþþþþþþþþþþþþþþ»
0003B66 50E0 D000/9008_      00000 29340              LOGKWR   XPROC
 USING  *,R7
 003B80 186D/41D0 D130             29380                       XPUSH ,,L'SMFKWR,PTR=R6
 USING  SMFKWR,R6                  29383                       WITH  (SMFKWR,R6)
 003B86 D7FF 6000 6000_00000 00000 29396                       CLEAR SMFKWR
 003B92 D200 603C B3BE 0003C 003BE 29404                       MVC   SMFKIFL,CPSKIFL
 003B98 D200 603D B3BF 0003D 003BF 29405                       MVC   SMFKAFL,CPSKAFL
 003B9E D204 603E BC48 0003E 00C48 29406                       MVC   SMFRACCT,CPCACCT    Referenced account
 003BA4 4200 6043            00043 29407                       STC   R0,SMFWFL           Save flag info
 003BA8 D2EA 6045 C4D8 00045 004D8 29408                       MVC   SMFWCMD,CVBLANKS
 003BAE 48F0 B240            00240 29409                       LH    R15,CPCMDLEN
 003BB2 59F0 7704/47D0_      04284 29410                       CEIL  R15,L'SMFWCMD
 003BBE 42F0 6044            00044 29429                       STC   R15,SMFWLEN
 003BC2 06F0/12FF/4740_            29430                       MOVE  R15,SMFWCMD,CPCMD   Move command into record
                                   29468
 003BCE 1816/4100 0130             29469                       SETMSG SMFKWR              Record
 003BD4 58F0 C1C8            001C8 29483                       L     R15,CVCURJCB
 003BD8 58E0 7708/0DEE       04288 29484                       ACALL SMFIHDR             Initialize standard SMF header
                                   29488
 003BDE 1816/4100 0130             29489                       SETMSG SMFKWR              Record
 003BE4 41F0 0083            00083 29503                       LA    R15,&WSMFKWR        Kwr log record no.
 003BE8 58E0 770C/0DEE       0428C 29504                       ACALL SMFWRITE
 003BEE 18D8/9808 D004_            29508                       PEND
 DROP   SMFKWR,R6
 DROP   *,R7
1ACCT     (ACCT2025) (12:39) (15MAR04) Accounting Routines                                                                  Page   91
0Current Usings:  (CP,R11) (CV,R12)
0Loc    Object Code    Addr1 Addr2  Stmt Lv Lineno    Source Statement           (Hibal 5, Asmedit 3.3)  HLASM R4.0  2004/03/15 12.39
+___    ______ ____    _____ _____  ____ __ ______    ______ _________
0                                  29534              ¿þþþþþþþþþþþþþþþþþþþþþþþþþþþþþþþþþþþþþþþþþþþþþþþþþþþþþþþþþþþþþþþþþþþþþÜ
                                   29535              Ÿ                                                                     Ÿ
                                   29536              Ÿ  SMFLOG -- Routine to write a general purpose smf log record.       Ÿ
                                   29537              Ÿ                                                                     Ÿ
                                   29538              Ÿ    On entry:                                                        Ÿ
                                   29539              Ÿ      R1,R0 - msg loc, len                                           Ÿ
                                   29540              Ÿ      R15 - addr of 8 char SMF id                                    Ÿ
                                   29541              Ÿ                                                                     Ÿ
                                                      ¾þþþþþþþþþþþþþþþþþþþþþþþþþþþþþþþþþþþþþþþþþþþþþþþþþþþþþþþþþþþþþþþþþþþþþ»
0003BFC 50E0 D000/9008_      00000 29542              SMFLOG   XPROC
 USING  *,R7
 003C16 5900 767A/47B0_      04290 29582                       FLOOR R0,0
 003C22 5900 767E/47D0_      04294 29601                       CEIL  R0,512              (Be reasonable)
 003C2E 1820                       29620                       LR    R2,R0
 003C30 4130 2044            00044 29621                       LA    R3,L'SMFGLOG+@R2
 003C34 186D                       29622                       LR    R6,R13
 003C36 41DD 3003            00003 29623                       LA    R13,@R3+3(R13)
 003C3A 54D0 7682            04298 29624                       N     R13,=F'-4'
 USING  SMFGLOG,R6                 29625                       WITH  (SMFGLOG,R6)
 003C3E D207 603C F000 0003C 00000 29638                       MVC   SMFLID,@R15         Id
 003C44 41E0 6044/18F2_      00044 29639                       MOVEL SMFLTEXT,(R1),(R2)  Text
                                   29659
 003C50 1816/1803                  29660                       SETMSG (R6),(R3)
 003C54 58F0 C1C8            001C8 29672                       L     R15,CVCURJCB
 003C58 58E0 7672/0DEE       04288 29673                       ACALL SMFIHDR             Initialize standard header
                                   29677
 003C5E 1816/1803                  29678                       SETMSG (R6),(R3)
 003C62 41F0 00B5            000B5 29690                       LA    R15,&WSMFLOG        General log no.
 003C66 58E0 7676/0DEE       0428C 29691                       ACALL SMFWRITE
 003C6C 18D8/9808 D004_            29695                       PEND
 DROP   SMFGLOG,R6
 DROP   *,R7
1ACCT     (ACCT2025) (12:39) (15MAR04) Accounting Routines                                                                  Page   92
0Current Usings:  (CP,R11) (CV,R12)
0Loc    Object Code    Addr1 Addr2  Stmt Lv Lineno    Source Statement           (Hibal 5, Asmedit 3.3)  HLASM R4.0  2004/03/15 12.39
+___    ______ ____    _____ _____  ____ __ ______    ______ _________
0                                  29721              ¿þþþþþþþþþþþþþþþþþþþþþþþþþþþþþþþþþþþþþþþþþþþþþþþþþþþþþþþþþþþþþþþþþþþþþÜ
                                   29722              Ÿ                                                                     Ÿ
                                   29723              Ÿ  SMFIHDR -- Routine to initialize the standard SMF header fields.   Ÿ
                                   29724              Ÿ                                                                     Ÿ
                                   29725              Ÿ    On entry:                                                        Ÿ
                                   29726              Ÿ      R1,R0 - recond loc, len                                        Ÿ
                                   29727              Ÿ      R15 - JCB ptr for user whose charge record is to be written    Ÿ
                                   29728              Ÿ                                                                     Ÿ
                                                      ¾þþþþþþþþþþþþþþþþþþþþþþþþþþþþþþþþþþþþþþþþþþþþþþþþþþþþþþþþþþþþþþþþþþþþþ»
0DROP   CP,R11                     29729                       DROP  CP                  (Don't assume CP addressiblity...)
                                   29737
 003C7A 50E0 D000/9008_      00000 29738              SMFIHDR  PROC
 USING  *,R7
 003C94 185F                       29777                       LR    R5,R15
 USING  JCB,R5                     29778                       WITH  (JCB,R5)
 003C96 1861                       29791                       LR    R6,R1
 USING  SMFHDR,R6                  29792                       WITH  (SMFHDR,R6)
 003C98 D733 6004 6004 00004 00004 29805                       CLEAR SMFINIT
                                   29812
 003C9E 5810 0010            00010 29813                       L     R1,CVTPTR
 003CA2 5810 10C4            000C4 29814                       WITH  (CVT,R1),'L R1,CVTSMCA'
 USING  CVT,R1
 DROP   CVT,R1
 003CA6 D203 6010 1010 00010 00010 29838                       WITH  (SMCABASE,R1),'MVC SMFSID,SMCASID'
 USING  SMCABASE,R1
 DROP   SMCABASE,R1
                                   29862
 003CAC 58E0 7608/0DEE       0429C 29863                       VCALL LOCALTOD            Get current time/date
 003CB2 58E0 760C/0DEE       042A0 29867                       VCALL TIMEDATE
 003CB8 9001 6008            00008 29871                       STM   R0,R1,SMFTIME       Time stamp
                                   29872                       ¿þþþþþþþþþþþþþþþþþþþþþþþþþþþþþþþþþþþþþþþþþþÜ
                                   29873                       Ÿ  Fill in Interactive System SMF header.  Ÿ
                                   29874                       ¾þþþþþþþþþþþþþþþþþþþþþþþþþþþþþþþþþþþþþþþþþþ»
 003CBC 5840 5014            00014 29875                       L     R4,JCBCPX
 USING  CP,R4                      29876                       WITH  (CP,R4),BEGIN
 003CC0 D202 6014 43B4 00014 003B4 29890  1                      MVC   SMFUSER,CPSUSER     User id
 003CC6 D201 6017 43B7 00017 003B7 29891  1                      MVC   SMFGRP(2),CPSGRP    Group
 003CCC D201 6019 43F0 00019 003F0 29892  1                      MVC   SMFGRP+2(2),CPSPROJ  2 char subgroup (compatability)
 003CD2 D207 6028 43F0 00028 003F0 29893  1                      MVC   SMFPROJ,CPSPROJ     Project id
 003CD8 D607 6028 C4D8 00028 004D8 29894  1                      OC    SMFPROJ,CVBLANKS
 003CDE D200 6024 43BC 00024 003BC 29895  1                      MVC   SMFTACF,CPSTACF     Account flags (lcip, etc.)
 003CE4 D202 6025 43DA 00025 003DA 29896  1                      MVC   SMFTRM,CPSTID       Terminal id
 003CEA D602 6025 C4D8 00025 004D8 29897  1                      OC    SMFTRM,CVBLANKS     Convert zeros to blanks
                                   29898  1
 003CF0 9500 4392/4780_00392       29899  1                      IF    (CPSTETYP,NZ),'MVC SMFTETYP,CPSTETYP'  Explicit
 003CFE 706E/47F0 70EE 03CFE 03CF6 29921  1                      ELSE  BEGIN               Otherwise calc SMF port type...
 003D02 9240 601B      0001B       29932  2                        MVI   SMFTETYP,C' '       Blank is the default
 003D06 9180 4385/47E0_00385       29933  2                        IF    CPSFLEAS,BEGIN      Leased port...
 003D0E 92D3 601B      0001B       29948  3                          MVI   SMFTETYP,C'L'       Leased
 003D12 9502 438C/4770_0038C       29949  3                          IF    CPSTASYN,'MVI SMFTETYP,C"M"'  Async (memorex 1270)
 003D1E 9503 438C/4770_0038C       29970  3                          IF    CPSTPDP,'MVI SMFTETYP,C"P"'   Pdp
 003D2A                            29991  2                        END
 003D2A 9140 4385/47E0_00385       29995  2                        IF    CPSFTEL,'MVI SMFTETYP,C"T"'   Telenet
1ACCT     (ACCT2025) (12:39) (15MAR04) Accounting Routines                                                                  Page   93
0Current Usings:  (CP,R4) (JCB,R5) (SMFHDR,R6) (*,R7) (CV,R12)
0Loc    Object Code    Addr1 Addr2  Stmt Lv Lineno    Source Statement           (Hibal 5, Asmedit 3.3)  HLASM R4.0  2004/03/15 12.39
+___    ______ ____    _____ _____  ____ __ ______    ______ _________
0003D36 9120 4385/47E0_00385       30016  2                        IF    CPSFTYM,'MVI SMFTETYP,C"Y"'   Tymnet
 003D42 9505 438C/4770_0038C       30037  2                        IF    CPSTVIRT,'MVI SMFTETYP,C"V"'  Virtual
 003D4E 9110 C4C4/47E0_004C4       30058  2                        IF    CVFRLG,BEGIN        RLG only...
 003D56 9506 438C/4770_0038C       30073  3                          IF    CPSTNSC,'MVI SMFTETYP,C"N"'   NSC sessions
 003D62 9540 601B/4770_0001B       30094  3                          IF    ((SMFTETYP,EQ,' '),AND,CPSTASYN),'MVI SMFTETYP,C"Z"'
 003D76 9507 438C/4770_0038C       30131  3                          IF    CPSTELF,'MVI SMFTETYP,C"I"'   TCP/Telnet (Internet)
 003D82                            30152  2                        END
 003D82                            30156  1                      END
                                   30160  1
 003D82 D207 601C C028 0001C 00028 30161  1                      MVC   SMFSYSTM,CVWYLSSN   WYLBUR
                                   30162  1
 003D88 9801 43AC            003AC 30163  1                      LM    R0,R1,CPSLCLCK      Clock at logon
 003D8C 58E0 760C/0DEE       042A0 30164  1                      VCALL TIMEDATE
 003D92 9001 6030            00030 30168  1                      STM   R0,R1,SMFTON        Save logon time, date
 DROP   CP,R4                      30169                       END
 003D96 18D8/9808 D004_            30177                       PEND
 DROP   SMFHDR,R6
 DROP   JCB,R5
 DROP   *,R7
                                   30207
 USING  CP,R11                     30208                       USING CP                  (Restore CP addressiblity)
1ACCT     (ACCT2025) (12:39) (15MAR04) Accounting Routines                                                                  Page   94
0Current Usings:  (CP,R11) (CV,R12)
0Loc    Object Code    Addr1 Addr2  Stmt Lv Lineno    Source Statement           (Hibal 5, Asmedit 3.3)  HLASM R4.0  2004/03/15 12.39
+___    ______ ____    _____ _____  ____ __ ______    ______ _________
0                                  30218              ¿þþþþþþþþþþþþþþþþþþþþþþþþþþþþþþþþþþþþþþþþþþþþþþþþþþþþþþþþþþþþþþþþþþþþþÜ
                                   30219              Ÿ                                                                     Ÿ
                                   30220              Ÿ  SMFWRITE -- Routine to format the SMF record header and write      Ÿ
                                   30221              Ÿ    the record.                                                      Ÿ
                                   30222              Ÿ                                                                     Ÿ
                                   30223              Ÿ      On entry:                                                      Ÿ
                                   30224              Ÿ        R1,R0 - record loc,len                                       Ÿ
                                   30225              Ÿ        R15 - SMF type number (zero means don't log)                 Ÿ
                                   30226              Ÿ                                                                     Ÿ
                                                      ¾þþþþþþþþþþþþþþþþþþþþþþþþþþþþþþþþþþþþþþþþþþþþþþþþþþþþþþþþþþþþþþþþþþþþþ»
0DROP   CP,R11                     30227                       DROP  CP                  (Don't assume CP addressiblity...)
                                   30235
 003DA4 50E0 D000/9008_      00000 30236              SMFWRITE PROC
 USING  *,R7
 003DBE 185F                       30275                       LR    R5,R15
 003DC0 1861                       30276                       LR    R6,R1
 USING  SMFHDR,R6                  30277                       WITH  (SMFHDR,R6)
 003DC2 5900 74E6/4740_      042A4 30290                       FAIL  ((R0,LT,L'SMFHDR),OR,(R0,GT,32767)),BADSMF
 003DE6 4B00 751A            042D8 30334                       SH    R0,=H'2'            Deduct first hw -- not part of rcd
 003DEA 4000 6002            00002 30335                       STH   R0,SMFLEN
                                   30336                       ¿þþþþþþþþþþþþþþþþþþþþþþþþþþþþþþþþþþþþþþþþþþþþþþþþþþþþþþþþþþþþÜ
                                   30337                       Ÿ  Check for billing SMF record and charging it turned off.  Ÿ
                                   30338                       ¾þþþþþþþþþþþþþþþþþþþþþþþþþþþþþþþþþþþþþþþþþþþþþþþþþþþþþþþþþþþþ»
 003DEE 1255/4740 703E_            30339                       FAIL  ((R5,NEG),OR,(R5,GT,255)),BADSMF2
                                   30380
 003E10 1255/4780 70F0             30381                       IF    (R5,Z),SMFWEXIT     Don't write if zero
                                   30398
                                   30399                       COMMENT                   DO NOT WRITE OLD 170 RECS ON SYSA
 003E16 5950 74F2/4770_      042B0 30400                       IF    ((R5,EQ,&WSMFSYS),AND,(CVMACHID,EQ,'SYSA')),SMFWEXIT
                                   30436
 003E28 5950 74F2/4780_      042B0 30437                       IF    ((R5,EQ,&WSMFSYS),OR,(R5,EQ,&WSMFBIL)),BEGIN
 003E38 9120 CA00/4710_00A00       30470  1                      IF    CVFNOSMF,SMFWEXIT   No charging, scram
 003E40 41F0 0001/5EF0_      00001 30488  1                      INCR  R15,CVNASMF         Count accounting SMF write
 003E4C                            30494                       END
                                   30498
 003E4C 4250 6007            00007 30499                       STC   R5,SMFTYPE          Save record no
                                   30500
 003E50 4510 709A/0000_      03E58 30501                       MODESET KEY=ZERO          ********
 003E5E 4110 6002/0A53       00002 30508                       SMFWTM  SMFLEN            Write SMF record (start @ SMFLEN)
 003E64 182F                       30511                       LR    R2,R15              Return code
 003E66 0700/4510 70B2_            30512                       MODESET KEY=NZERO         ********
                                   30519
 003E76 41F0 0001/5EF0_      00001 30520                       INCR  R15,CVNSMF          Count SMF write
 003E82 1222/4780 70F0_            30526                       IF    (R2,NZ),'WTO "Unable to write SMF record."'
 003EAE 18D8/9808 D004_            30553              SMFWEXIT PEND
 DROP   SMFHDR,R6
 DROP   *,R7
                                   30579
 USING  CP,R11                     30580                       USING CP                  (Restore CP addressiblity)
1ACCT     (ACCT2025) (12:39) (15MAR04) Accounting Routines                                                                  Page   95
0Current Usings:  (CP,R11) (CV,R12)
0Loc    Object Code    Addr1 Addr2  Stmt Lv Lineno    Source Statement           (Hibal 5, Asmedit 3.3)  HLASM R4.0  2004/03/15 12.39
+___    ______ ____    _____ _____  ____ __ ______    ______ _________
0                                  30590              ¿þþþþþþþþþþþþþþþþþþþþþþþþþþþþþþþþþþþþþþþþþþþþþþþþþþþþþþþþþþþþþþþþþþþþþÜ
                                   30591              Ÿ                                                                     Ÿ
                                   30592              Ÿ  GTUIDREC -- Routine to get a record from USERID file               Ÿ
                                   30593              Ÿ                                                                     Ÿ
                                   30594              Ÿ    On entry:                                                        Ÿ
                                   30595              Ÿ      R1 - Points to an area large enough to hold an                 Ÿ
                                   30596              Ÿ           entire USERID record.                                     Ÿ
                                   30597              Ÿ      R15   - address of the account in "uuugg" format               Ÿ
                                   30598              Ÿ                                                                     Ÿ
                                   30599              Ÿ    On exit, R15 (and cc):                                           Ÿ
                                   30600              Ÿ      0 -  Record successfully read                                  Ÿ
                                   30601              Ÿ      nz - The error code if an error occurred.                      Ÿ
                                   30602              Ÿ                                                                     Ÿ
                                                      ¾þþþþþþþþþþþþþþþþþþþþþþþþþþþþþþþþþþþþþþþþþþþþþþþþþþþþþþþþþþþþþþþþþþþþþ»
0000000                00000 00154 30603              GETUWA   RECORD BEGIN
 000000                            30611  1           GETUPTRS   DS    2A                  Working ptrs
 000008                            30612  1           GETUREQ    DS    XL(L'UIDREC)        Userid record
 000154                00154 00154 30613                       END
                                   30622              þþþþ
 003EBC 50E0 D000/9008_      00000 30623              GTUIDREC PROC  GETUWA
 USING  *,R7
 USING  GETUWA-(4+36),R8
 003ED6 4100 014C            0014C 30673                       LA    R0,L'GETUREQ
 003EDA 9001 8028            00000 30674                       STM   R0,R1,GETUPTRS     Save return area ptrs
                                   30675
 003EDE 4130 8030            00008 30676                       LA    R3,GETUREQ
 USING  UIDREC,R3                  30677                       WITH  (UIDREC,R3),BEGIN
 003EE2 D23F 3000 C4D8 00000 004D8 30691  1                      MVC   UIDKEY,CVBLANKS     Build key...
 003EE8 D20C 3000 7407 00000 042DD 30692  1                      MVC   UIDKEY(13),=C'gg.uuu_IDLIST'
 003EEE D201 3000 F003 00000 00003 30693  1                      MVC   UIDKEY(2),@R15+3   gg
 003EF4 D202 3003 F000 00003 00000 30694  1                      MVC   UIDKEY+3(3),@R15   uuu
 003EFA D605 3000 C4D8 00000 004D8 30695  1                      OC    UIDKEY(6),CVBLANKS  Force upper case
                                   30696  1
 003F00 4110 8030/4100_      00008 30697  1                      SETMSG GETUREQ             Here's the transaction address
 003F08 9823 8028            00000 30711  1                      LM    R2,R3,GETUPTRS      Return the result here
 003F0C 4340 7414            042EA 30712  1                      IC    R4,=C'U'            Access the USERID file
 003F10 58E0 73E6/0DEE       042BC 30713  1                      VCALL KEYGET              Get record
 DROP   UIDREC,R3                  30717                       END
 003F16 4780 704E            03F24 30725                       IF    NZ,BEGIN            Just return the input
 003F1A 5830 802C            00004 30736  1                      L     R3,GETUPTRS+4         key on failure
 003F1E D23F 3000 8030 00000 00008 30737  1                      MVC   @R3(L'UIDKEY),GETUREQ+(UIDKEY-UIDREC)
 003F24                            30738                       END
 003F24 18D8/9808 D004_            30742                       PEND
 DROP   GETUWA-(4+36),R8
 DROP   *,R7
1ACCT     (ACCT2025) (12:39) (15MAR04) Accounting Routines                                                                  Page   96
0Current Usings:  (CP,R11) (CV,R12)
0Loc    Object Code    Addr1 Addr2  Stmt Lv Lineno    Source Statement           (Hibal 5, Asmedit 3.3)  HLASM R4.0  2004/03/15 12.39
+___    ______ ____    _____ _____  ____ __ ______    ______ _________
0                                  30768              ¿þþþþþþþþþþþþþþþþþþþþþþþþþþþþþþþþþþþþþþþþþþþþþþþþþþþþþþþþþþþþþþþþþþþþþÜ
                                   30769              Ÿ                                                                     Ÿ
                                   30770              Ÿ  GETUID -- Routine to get the primary userid, given the account.    Ÿ
                                   30771              Ÿ                                                                     Ÿ
                                   30772              Ÿ    On entry:                                                        Ÿ
                                   30773              Ÿ      R1,R0 - ID is returned here (work area loc, len)               Ÿ
                                   30774              Ÿ      R15   - address of the account in "uuugg" format               Ÿ
                                   30775              Ÿ                                                                     Ÿ
                                   30776              Ÿ    On exit, R15 (and cc):                                           Ÿ
                                   30777              Ÿ      0 - ID returned;             R1,R0 = ID loc, len               Ÿ
                                   30778              Ÿ      nz- no ID for this account;  R1,R0 = account in "gg.uuu" form  Ÿ
                                   30779              Ÿ                                                                     Ÿ
                                                      ¾þþþþþþþþþþþþþþþþþþþþþþþþþþþþþþþþþþþþþþþþþþþþþþþþþþþþþþþþþþþþþþþþþþþþþ»
0003F32 50E0 D000/9008_      00000 30780              GETUID   XPROC GETUWA
 USING  *,R7
 USING  GETUWA-(4+36),R8
 003F4C 9001 8028            00000 30831                       STM   R0,R1,GETUPTRS      Save return area ptrs
 003F50 4110 8030            00008 30832                       LA    R1,GETUREQ
 003F54 58E0 7374/0DEE       042C0 30833                       ACALL GTUIDREC
 003F5A 4130 8030            00008 30837                       LA    R3,GETUREQ          Point to returned transaction
 USING  UIDREC,R3                  30838                       WITH  (UIDREC,R3),BEGIN
 003F5E 4780 701E/4110_      03F6A 30852  1                      IF    NZ,'SETMSG UIDKEY,6'
 003F6A 7022/47F0 704E 03F6A 03F60 30884  1                      ELSE  BEGIN
                                   30895  2                        ¿þþþþþþþþþþþþþþþþþþþþþþþþþþþþþþþþþþþþþþþþþþþþþþþþþþþþþþþþþþþþÜ
                                   30896  2                        Ÿ  We get a list of IDs returned in the form "id1;id2;...".  Ÿ
                                   30897  2                        Ÿ  This routine only returns the first ID.                   Ÿ
                                   30898  2                        ¾þþþþþþþþþþþþþþþþþþþþþþþþþþþþþþþþþþþþþþþþþþþþþþþþþþþþþþþþþþþþ»
 003F6E 4110 3048            00048 30899  2                        LA    R1,UIDUDATA          Point to data start
 003F72 4800 3046            00046 30900  2                        LH    R0,UIDULEN            and get length
 003F76 1B22                       30901  2                        CLEAR R2                  Working length
 003F78 1200/47D0 7048_            30905  2                        WHILE ((R0,POS),AND,(@R1,NE,';')),BEGIN  Look for sep...
 003F86 4110 1001            00001 30936  3                          LA    R1,@R1+1            Next position
 003F8A 4120 2001            00001 30937  3                          LA    R2,@R2+1            Kick working length
 003F8E 0600                       30938  3                          DECR  R0
 003F90 47F0 702C            03F78 30940  2                        END
 003F94 1802                       30945  2                        LR    R0,R2               Copy working length
 003F96 4110 3048            00048 30946  2                        LA    R1,UIDUDATA          Point to data start again
 003F9A                            30947  1                      END
                                   30951  1
 003F9A 9845 8028            00000 30952  1                      LM    R4,R5,GETUPTRS      Return area ptrs
 003F9E 0640/1244/4740_            30953  1                      MOVE  R4,@R5,CVBLANKS     Pre-blank output area
 003FAA 9845 8028            00000 30991  1                      LM    R4,R5,GETUPTRS      Get 'em back
 003FAE 1904/47D0 706A_            30992  1                      CEIL  R0,R4               Actual length can't exceed this
 003FB6 1820                       30998  1                      LR    R2,R0               Set actual length
 003FB8 0620/1222/4740_            30999  1                      MOVE  R2,@R5,@R1          Copy data to caller's area
 003FC4 5008 0004            00004 31037  1                      PRETURN (R0)              Return actual userid length
 DROP   UIDREC,R3                  31039                       END
 003FC8 18D8/9808 D004_            31047                       PEND
 DROP   GETUWA-(4+36),R8
 DROP   *,R7
1ACCT     (ACCT2025) (12:39) (15MAR04) Accounting Routines                                                                  Page   97
0Current Usings:  (CP,R11) (CV,R12)
0Loc    Object Code    Addr1 Addr2  Stmt Lv Lineno    Source Statement           (Hibal 5, Asmedit 3.3)  HLASM R4.0  2004/03/15 12.39
+___    ______ ____    _____ _____  ____ __ ______    ______ _________
0                                  31073              ¿þþþþþþþþþþþþþþþþþþþþþþþþþþþþþþþþþþþþþþþþþþþþþþþþþþþþþþþþþþþþþþþþþþþþþÜ
                                   31074              Ÿ                                                                     Ÿ
                                   31075              Ÿ  GETUIDL -- Routine to get the userid list, given the account.      Ÿ
                                   31076              Ÿ    (This routine is the same as GETUID, except that the list of     Ÿ
                                   31077              Ÿ    userids is returned instead of just the first ID.)               Ÿ
                                   31078              Ÿ                                                                     Ÿ
                                   31079              Ÿ    On entry:                                                        Ÿ
                                   31080              Ÿ      R1,R0 - ID list is returned here (work area loc, len)          Ÿ
                                   31081              Ÿ      R15   - address of account in "uuugg" format                   Ÿ
                                   31082              Ÿ                                                                     Ÿ
                                   31083              Ÿ    On exit, R15 (and cc):                                           Ÿ
                                   31084              Ÿ      0 - ID list returned;        R1,R0 = ID loc, len               Ÿ
                                   31085              Ÿ      nz- no ID for this account;  R1,R0 = account in "gg.uuu" form  Ÿ
                                   31086              Ÿ                                                                     Ÿ
                                                      ¾þþþþþþþþþþþþþþþþþþþþþþþþþþþþþþþþþþþþþþþþþþþþþþþþþþþþþþþþþþþþþþþþþþþþþ»
0003FD6 50E0 D000/9008_      00000 31087              GETUIDL  XPROC GETUWA
 USING  *,R7
 USING  GETUWA-(4+36),R8
 003FF0 9001 8028            00000 31138                       STM   R0,R1,GETUPTRS      Save return area ptrs
 003FF4 4110 8030            00008 31139                       LA    R1,GETUREQ
 003FF8 58E0 72D0/0DEE       042C0 31140                       ACALL GTUIDREC
 003FFE 4130 8030            00008 31144                       LA    R3,GETUREQ          Point to returned transaction
 USING  UIDREC,R3                  31145                       WITH  (UIDREC,R3),BEGIN
 004002 4780 701E/4110_      0400E 31159  1                      IF    NZ,'SETMSG UIDKEY,6'
 00400E 7022/47F0 702A 0400E 04004 31191  1                      ELSE  BEGIN
 004012 4110 3048            00048 31202  2                        LA    R1,UIDUDATA          Point to data start
 004016 4800 3046            00046 31203  2                        LH    R0,UIDULEN            and get length
 00401A                            31204  1                      END
                                   31208  1
 00401A 9845 8028            00000 31209  1                      LM    R4,R5,GETUPTRS      Return area ptrs
 00401E 0640/1244/4740_            31210  1                      MOVE  R4,@R5,CVBLANKS     Pre-blank output area
 00402A 9845 8028            00000 31248  1                      LM    R4,R5,GETUPTRS      Get 'em back
 00402E 1904/47D0 7046_            31249  1                      CEIL  R0,R4               Actual length can't exceed this
 004036 1820                       31255  1                      LR    R2,R0               Set actual length
 004038 0620/1222/4740_            31256  1                      MOVE  R2,@R5,@R1          Copy data to caller's area
 004044 5008 0004            00004 31294  1                      PRETURN (R0)              Return actual length
 DROP   UIDREC,R3                  31296                       END
 004048 18D8/9808 D004_            31304                       PEND
 DROP   GETUWA-(4+36),R8
 DROP   *,R7
1ACCT     (ACCT2025) (12:39) (15MAR04) Accounting Routines                                                                  Page   98
0Current Usings:  (CP,R11) (CV,R12)
0Loc    Object Code    Addr1 Addr2  Stmt Lv Lineno    Source Statement           (Hibal 5, Asmedit 3.3)  HLASM R4.0  2004/03/15 12.39
+___    ______ ____    _____ _____  ____ __ ______    ______ _________
0                                  31330              ¿þþþþþþþþþþþþþþþþþþþþþþþþþþþþþþþþþþþþþþþþþþþþþþþþþþþþþþþþþþþþþþþþþþþþþÜ
                                   31331              Ÿ                                                                     Ÿ
                                   31332              Ÿ  GETACCT -- Routine to get the account, given the userid.           Ÿ
                                   31333              Ÿ                                                                     Ÿ
                                   31334              Ÿ    On entry:                                                        Ÿ
                                   31335              Ÿ      R1,R0 - ACCT or ID loc,len                                     Ÿ
                                   31336              Ÿ      R15   - ptr to a 5 char return area (for "uuugg")              Ÿ
                                   31337              Ÿ                                                                     Ÿ
                                   31338              Ÿ    On exit, R15 (and cc):                                           Ÿ
                                   31339              Ÿ      0 - account returned                                           Ÿ
                                   31340              Ÿ      nz- no ID for this account                                     Ÿ
                                   31341              Ÿ                                                                     Ÿ
                                   31342              Ÿ  NOTE:                                                              Ÿ
                                   31343              Ÿ  GETACCT and CHKACCT are very similar.  They both take a            Ÿ
                                   31344              Ÿ  UserID or account as input.  They differ in that GETACCT           Ÿ
                                   31345              Ÿ  will not check to see if the account exists. CHKACCT does          Ÿ
                                   31346              Ÿ  check to see that the account exists.                              Ÿ
                                   31347              Ÿ     GETACCT of 'GG.UUU' returns r15=0                               Ÿ
                                   31348              Ÿ     CHKACCT of 'GG.UUU' returns r15=nz                              Ÿ
                                   31349              Ÿ                                                                     Ÿ
                                   31350              Ÿ                                                                     Ÿ
                                                      ¾þþþþþþþþþþþþþþþþþþþþþþþþþþþþþþþþþþþþþþþþþþþþþþþþþþþþþþþþþþþþþþþþþþþþþ»
0000000                00000 00158 31351              GETAWA   RECORD BEGIN
 000000                            31359  1           GETALOC    DS    F                   ID loc
 000004                            31360  1           GETALEN    DS    F                   ID len
 000008                            31361  1           GETARETN   DS    F                   ID return area
 00000C                            31362  1           GETADATA   DS    XL(L'UIDREC)
 000158                00158 00158 31363                       END
                                   31372              *
                                   31373              *
 004056 50E0 D000/9008_      00000 31374              GETACCT  XPROC GETAWA
 USING  *,R7
 USING  GETAWA-(4+36),R8
                                   31425
 004070 D7FF 8028 8028_00000 00000 31426                       CLEAR GETAWA              Init work area
 00407C 5010 8028            00000 31434                       ST    R1,GETALOC
 004080 5000 802C            00004 31435                       ST    R0,GETALEN
 004084 50F0 8030            00008 31436                       ST    R15,GETARETN
                                   31437
 004088 185F                       31438                       LR    R5,R15              Save return area ptr
                                   31439
 00408A 58E0 7254/0DEE       042C4 31440                       VCALL LRTRIM
                                   31444                       COMMENT                   If gg.uuu form, got account
                                   31445                       COMMENT                   If gg$uuu form, got account
 004090 5900 7258/4770_      042C8 31446                       IF    (R0,EQ,6),BEGIN
 004098 954B 1002/4780_00002       31463  1                      IF    ((@R1+2,EQ,'.'),OR,(@R1+2,EQ,'$')),BEGIN  gg.uuu...
 0040A8 D202 5000 1003 00000 00003 31494  2                        MVC   @R5(3),@R1+3        uuu
 0040AE D201 5003 1000 00003 00000 31495  2                        MVC   @R5+3(2),@R1        gg
 0040B4 D604 5000 C4D8 00000 004D8 31496  2                        OC    @R5(5),CVBLANKS     Convert to upper case
 0040BA 1BFF                       31497  2                        CLEAR R15                 A-ok
 0040BC 47F0 715C            041CC 31501  2                        B     GOTAACCT
 0040C0                            31502  1                      END
                                   31506  1
1ACCT     (ACCT2025) (12:39) (15MAR04) Accounting Routines                                                                  Page   99
0Current Usings:  (*,R7) (GETAWA-(4+36),R8) (CP,R11) (CV,R12)
0Loc    Object Code    Addr1 Addr2  Stmt Lv Lineno    Source Statement           (Hibal 5, Asmedit 3.3)  HLASM R4.0  2004/03/15 12.39
+___    ______ ____    _____ _____  ____ __ ______    ______ _________
0                                  31507  1                      COMMENT                   If uuu$gg form, got account
 0040C0 955B 1003/4770_00003       31508  1                      IF    (@R1+3,EQ,'$'),BEGIN  uuu$gg...
 0040C8 D202 5000 1000 00000 00000 31524  2                        MVC   @R5(3),@R1          uuu
 0040CE D201 5003 1004 00003 00004 31525  2                        MVC   @R5+3(2),@R1+4      gg
 0040D4 D604 5000 C4D8 00000 004D8 31526  2                        OC    @R5(5),CVBLANKS     Convert to upper case
 0040DA 1BFF                       31527  2                        CLEAR R15                 A-ok
 0040DC 47F0 715C            041CC 31531  2                        B     GOTAACCT
 0040E0                            31532  1                      END
 0040E0                            31536                       END
                                   31540
                                   31541                       COMMENT                   Format USERID
 0040E0 4140 8034            0000C 31542                       LA    R4,GETADATA
 USING  UIDREC,R4                  31543                       WITH  (UIDREC,R4),BEGIN
 0040E4 D23F 4000 C4D8 00000 004D8 31557  1                      MVC   UIDKEY,CVBLANKS    Build key...
 0040EA D202 4000 727B 00000 042EB 31558  1                      MVC   UIDKEY(3),=C'ID_'
 0040F0 5900 725C/47D0_      042CC 31559  1                      CEIL  R0,L'UIDKEY-3
 0040FC 18F0                       31578  1                      LR    R15,R0
 0040FE 06F0/12FF/4740_            31579  1                      MOVE  R15,UIDKEY+3,@R1   Save key data
 00410A 5820 C8A8            008A8 31617  1                      L     R2,CVUPPTBL
 00410E 12FF/4740 70A8_            31618  1                      TEX   R15,'TR UIDKEY+3,@R2'  Convert to upper case
 004118 4110 4003            00003 31653  1                      LA    R1,UIDKEY+3
 00411C 5800 802C            00004 31654  1                      L     R0,GETALEN
 DROP   UIDREC,R4                  31655                       END   ,
                                   31663              *
                                   31664              * Reject impossible userids
                                   31665              *
 004120 1200/47D0 7162             31666                       IF    (R0,NP),NOTAACCT
 004126 95C1 1000/4740_00000       31683                       IF    ((@R1,LT,'A'),OR,(@R1,GT,'Z')),NOTAACCT
 004136 5E10 720C            0427C 31717                       INCR  R1
 00413A 0600                       31720                       DECR  R0
 00413C 1200/47D0 7110             31722                       WHILE (R0,POS),BEGIN
 004142 95C1 1000/47B0_00000       31738  1                      IF    ((@R1,LT,'A'),AND,(@R1,GT,'Z')),BEGIN
 004152 95F0 1000/47B0_00000       31769  2                        IF    ((@R1,LT,'0'),AND,(@R1,GT,'9')),BEGIN
 004162 954B 1000/4780_00000       31800  3                          IF    ((@R1,NE,'.'),AND,(@R1,NE,'_')),BEGIN
 004172 47F0 7162            041D2 31831  4                            B     NOTAACCT
 004176                            31832  3                          END
 004176                            31836  2                        END
 004176                            31840  1                      END
 004176 5E10 720C            0427C 31844  1                      INCR  R1
 00417A 0600                       31847  1                      DECR  R0
 00417C 47F0 70CC            0413C 31849                       END
                                   31854              *
                                   31855              *
                                   31856                       COMMENT                   Lookup userid
 004180 4110 8034/4100_      0000C 31857                       SETMSG GETADATA
 004188 1820                       31871                       LR    R2,R0
 00418A 1831                       31872                       LR    R3,R1
 00418C 4340 727A            042EA 31873                       IC    R4,=C'U'            Access the USERID file
 004190 58E0 724C/0DEE       042BC 31874                       VCALL KEYGET              Get record (and set rc)
 004196 4770 7162            041D2 31878                       IF    NZ,NOTAACCT         No record found
 00419A 4130 8034            0000C 31892                       LA    R3,GETADATA
 USING  UIDREC,R3                  31893                       WITH  (UIDREC,R3),BEGIN
 00419E 4800 3046            00046 31907  1                      LH    R0,UIDULEN
 0041A2 4110 3048            00048 31908  1                      LA    R1,UIDUDATA
1ACCT     (ACCT2025) (12:39) (15MAR04) Accounting Routines                                                                  Page  100
0Current Usings:  (*,R7) (GETAWA-(4+36),R8) (CP,R11) (CV,R12)
0Loc    Object Code    Addr1 Addr2  Stmt Lv Lineno    Source Statement           (Hibal 5, Asmedit 3.3)  HLASM R4.0  2004/03/15 12.39
+___    ______ ____    _____ _____  ____ __ ______    ______ _________
0DROP   UIDREC,R3                  31909                       END
 0041A6 5900 7258/4770_      042C8 31917                       IF    ((R0,NE,6),OR,(@R1+2,NE,'.')),NOTAACCT bad data
                                   31952                       COMMENT                   Read key worked
 0041B6 D202 5000 1003 00000 00003 31953                       MVC   @R5(3),@R1+3        uuu
 0041BC D201 5003 1000 00003 00000 31954                       MVC   @R5+3(2),@R1        gg
 0041C2 D604 5000 C4D8 00000 004D8 31955                       OC    @R5(5),CVBLANKS     Convert to upper case
 0041C8 47F0 715C            041CC 31956                       B     GOTAACCT
                                   31957
 0041CC                            31958              GOTAACCT LABEL ,                   Got account, check if exists
 0041CC 1BFF                       31960                       CLEAR R15
 0041CE 47F0 716A            041DA 31964                       B     GETAEXIT
                                   31965
 0041D2                            31966              NOTAACCT LABEL ,
 0041D2 41F0 0004            00004 31968                       LA    R15,4
 0041D6 47F0 716A            041DA 31969                       B     GETAEXIT
                                   31970
 0041DA                            31971              GETAEXIT LABEL ,
 0041DA 18D8/9808 D004_            31973                       PEND
 DROP   GETAWA-(4+36),R8
 DROP   *,R7
1ACCT     (ACCT2025) (12:39) (15MAR04) Accounting Routines                                                                  Page  101
0Current Usings:  (CP,R11) (CV,R12)
0Loc    Object Code    Addr1 Addr2  Stmt Lv Lineno    Source Statement           (Hibal 5, Asmedit 3.3)  HLASM R4.0  2004/03/15 12.39
+___    ______ ____    _____ _____  ____ __ ______    ______ _________
0                                  31999              ¿þþþþþþþþþþþþþþþþþþþþþþþþþþþþþþþþþþþþþþþþþþþþþþþþþþþþþþþþþþþþþþþþþþþþþÜ
                                   32000              Ÿ                                                                     Ÿ
                                   32001              Ÿ  CHKACCT -- Routine to get/check the account, given the userid.     Ÿ
                                   32002              Ÿ                                                                     Ÿ
                                   32003              Ÿ    On entry:                                                        Ÿ
                                   32004              Ÿ      R1,R0 - ACCT or ID loc,len                                     Ÿ
                                   32005              Ÿ      R15   - ptr to a 5 char return area (for "uuugg")              Ÿ
                                   32006              Ÿ                                                                     Ÿ
                                   32007              Ÿ    On exit, R15 (and cc):                                           Ÿ
                                   32008              Ÿ      0 - account returned                                           Ÿ
                                   32009              Ÿ      nz- no ID for this account or account does not exist           Ÿ
                                   32010              Ÿ                                                                     Ÿ
                                   32011              Ÿ  NOTE:                                                              Ÿ
                                   32012              Ÿ  GETACCT and CHKACCT are very similar.  They both take a            Ÿ
                                   32013              Ÿ  UserID or account as input.  They differ in that GETACCT           Ÿ
                                   32014              Ÿ  will not check to see if the account exists. CHKACCT does          Ÿ
                                   32015              Ÿ  check to see that the account exists.                              Ÿ
                                   32016              Ÿ     GETACCT of 'GG.UUU' returns r15=0                               Ÿ
                                   32017              Ÿ     CHKACCT of 'GG.UUU' returns r15=nz                              Ÿ
                                   32018              Ÿ                                                                     Ÿ
                                   32019              Ÿ                                                                     Ÿ
                                                      ¾þþþþþþþþþþþþþþþþþþþþþþþþþþþþþþþþþþþþþþþþþþþþþþþþþþþþþþþþþþþþþþþþþþþþþ»
0000000                00000 001F8 32020              CHKAWA   RECORD BEGIN
 000000                            32028  1           CHKAKWR    DS    XL(L'KWR)
 0001F8                001F8 001F8 32029                       END
                                   32038              þþþþ
 0041E8 50E0 D000/9008_      00000 32039              CHKACCT  XPROC CHKAWA
 USING  *,R7
 USING  CHKAWA-(4+36),R8
 004202 4160 8028            00000 32090                       LA    R6,CHKAKWR
 USING  KWR,R6                     32091                       USING KWR,R6
                                   32100
 004206 185F                       32101                       LR    R5,R15
 004208 58E0 70CE/0DEE       042D0 32102                       ACALL GETACCT
                                   32106
 00420E 4770 7046            04248 32107                       IF    Z,BEGIN             If ID/ACCT ok check if exists
 004212 D7FF 6000 6000_00000 00000 32118  1                      CLEAR KWR
 00421E D202 6000 5000 00000 00000 32126  1                      MVC   KWRUSER,@R5
 004224 D201 6003 5003 00003 00003 32127  1                      MVC   KWRGRP,@R5+3
 00422A 1816/4100 0040_            32128  1                      KREAD KWR
 004236 9180 600E/4710_0000E       32141  1                      IF    ~KWRIFL.KWRIFVAL,BEGIN  if no kwd record,
 00423E 41F0 0004            00004 32157  2                        LA    R15,4
 004242                            32158  1                      END
 004242 7044/47F0 7046 04242 0423C 32162  1                      ELSE  BEGIN               if kwd record
 004246 1BFF                       32173  2                        CLEAR R15
 004248                            32177  1                      END
 004248                            32181                       END
                                   32185
 004248 D7FF 6000 6000_00000 00000 32186                       CLEAR KWR
 004254 18D8/9808 D004_            32194                       PEND
 DROP   CHKAWA-(4+36),R8
 DROP   *,R7
                                   32219                       QLTORG
1ACCT     (ACCT2025) (12:39) (15MAR04) Accounting Routines                                                                  Page  102
0Current Usings:  (KWR,R6) (CP,R11) (CV,R12)
0Loc    Object Code    Addr1 Addr2  Stmt Lv Lineno    Source Statement           (Hibal 5, Asmedit 3.3)  HLASM R4.0  2004/03/15 12.39
+___    ______ ____    _____ _____  ____ __ ______    ______ _________
0                                  32264                       VLTORG
                                   32273
 004338                04338 04338 32274                       END   .

1ACCT     (ACCT2025) (12:39) (15MAR04) Relocation Dictionary                                                                Page  103
-   Pos.Id   Rel.Id   Flags    Address                                                       HLASM R4.0  2004/03/15 12.39
0  00000001 00000001    0C    000000DC
   00000001 00000001    0C    000006C0
   00000001 00000001    0C    000006E8
   00000001 00000001    0C    00000AB8
   00000001 00000001    0C    00000AC4
   00000001 00000001    0C    00000AD0
   00000001 00000001    0C    00000AF0
   00000001 00000001    0C    00000AF4
   00000001 00000001    0C    00000B34
   00000001 00000001    0C    00000B40
   00000001 00000001    0C    00000F48
   00000001 00000001    0C    00001198
   00000001 00000001    0C    000011C0
   00000001 00000001    0C    000011E8
   00000001 00000001    0C    00001210
   00000001 00000001    0C    00001238
   00000001 00000001    0C    000014CC
   00000001 00000001    0C    0000161C
   00000001 00000001    0C    00001630
   00000001 00000001    0C    00001650
   00000001 00000001    0C    00001654
   00000001 00000001    0C    00001658
   00000001 00000001    0C    0000165C
   00000001 00000001    0C    00002338
   00000001 00000001    0C    0000233C
   00000001 00000001    0C    0000236C
   00000001 00000001    0C    00002380
   00000001 00000001    0C    00002394
   00000001 00000001    0C    0000269C
   00000001 00000001    0C    000026B4
   00000001 00000001    08    00002AD1
   00000001 00000001    08    00002C39
   00000001 00000001    0C    00002EF4
   00000001 00000001    0C    00002F10
   00000001 00000001    0C    00003248
   00000001 00000001    0C    00003254
   00000001 00000001    0C    00003260
   00000001 00000001    0C    0000327C
   00000001 00000001    0C    00003288
   00000001 00000001    0C    00003290
   00000001 00000001    0C    00003294
   00000001 00000001    0C    000034F8
   00000001 00000001    0C    000034FC
   00000001 00000001    0C    00003510
   00000001 00000001    0C    00004274
   00000001 00000001    0C    00004278
   00000001 00000001    0C    00004288
   00000001 00000001    0C    0000428C
   00000001 00000001    0C    000042C0
   00000001 00000001    0C    000042D0
   00000001 00000002    1C    000000D8
   00000001 00000002    1C    000006E4
   00000001 00000003    1C    00000104
   00000001 00000003    1C    00000710
   00000001 00000003    1C    00000F70
1ACCT     (ACCT2025) (12:39) (15MAR04) Relocation Dictionary                                                                Page  104
   00000001 00000003    1C    00001260
   00000001 00000003    1C    000014F4
   00000001 00000004    1C    00000128
   00000001 00000004    1C    00000734
   00000001 00000004    1C    00000F94
   00000001 00000004    1C    00001284
   00000001 00000004    1C    00001518
   00000001 00000005    1C    0000012C
   00000001 00000005    1C    00000738
   00000001 00000005    1C    00000B38
   00000001 00000005    1C    00000F98
   00000001 00000005    1C    00001288
   00000001 00000005    1C    0000151C
   00000001 00000005    1C    00001638
   00000001 00000005    1C    00002364
   00000001 00000006    1C    000006BC
   00000001 00000007    1C    00000ABC
   00000001 00000007    1C    00001610
   00000001 00000007    1C    00002358
   00000001 00000008    1C    00000AC0
   00000001 00000008    1C    00001614
   00000001 00000008    1C    0000235C
   00000001 00000009    1C    00000AC8
   00000001 00000009    1C    00002370
   00000001 0000000A    1C    00000ACC
   00000001 0000000A    1C    00001620
   00000001 0000000A    1C    00002374
   00000001 0000000B    1C    00000AE0
   00000001 0000000B    1C    000023A4
   00000001 0000000C    1C    00000AE4
   00000001 0000000C    1C    00001624
   00000001 0000000C    1C    00002378
   00000001 0000000D    1C    00000AE8
   00000001 0000000D    1C    0000162C
   00000001 0000000D    1C    000023B0
   00000001 0000000E    1C    00000AEC
   00000001 0000000E    1C    000023AC
   00000001 0000000F    1C    00000AF8
   00000001 0000000F    1C    00002EE0
   00000001 0000000F    1C    00003268
   00000001 0000000F    1C    0000429C
   00000001 00000010    1C    00000AFC
   00000001 00000011    1C    00000B2C
   00000001 00000012    1C    00000B3C
   00000001 00000013    1C    00000F44
   00000001 00000013    1C    00001194
   00000001 00000013    1C    000011BC
   00000001 00000013    1C    000011E4
   00000001 00000013    1C    0000120C
   00000001 00000013    1C    00001234
   00000001 00000013    1C    000014C8
   00000001 00000014    1C    00001634
   00000001 00000015    1C    00002344
   00000001 00000015    1C    00002964
   00000001 00000015    1C    00002ED8
   00000001 00000016    1C    00002348
   00000001 00000016    1C    00004270
   00000001 00000017    1C    00002360
   00000001 00000018    1C    0000237C
1ACCT     (ACCT2025) (12:39) (15MAR04) Relocation Dictionary                                                                Page  105
   00000001 00000019    1C    000023A8
   00000001 0000001A    1C    000023D0
   00000001 0000001B    1C    00002698
   00000001 0000001C    1C    00002960
   00000001 0000001D    1C    00003264
   00000001 0000001D    1C    000042A0
   00000001 0000001E    1C    000042BC
   00000001 0000001F    1C    000042C4
   00000001 00000020    1C    000042D4

1ACCT     (ACCT2025) (12:39) (15MAR04) Ordinary Symbol and Literal Cross Reference                                          Page  106
-Symbol   Length   Value     Id    R Type   Defn References                                  HLASM R4.0  2004/03/15 12.39
0$$$@R0        1 00000000 FFFFFFFE     J     705  1015
 $$$@R10       1 00000000 FFFFFFF4     J     835  1079
 $$$@R11       1 00000000 FFFFFFF3     J     848  1092
 $$$@R12       1 00000000 FFFFFFF2     J     861  1105
 $$$@R13       1 00000000 FFFFFFF1     J     874  1118
 $$$@R14       1 00000000 FFFFFFF0     J     887  1131
 $$$@R7        1 00000000 FFFFFFF7     J     796  1028
 $$$@R8        1 00000000 FFFFFFF6     J     809  1041   1053
 $$$@R9        1 00000000 FFFFFFF5     J     822  1066
 $$$C1WYLACCT
               1 00000C35 00000001     J   14025 14027  14052  15129  15909  16488  16595
 $$$C10WYLACCT
               1 000039DC 00000001     J   28780 28782  29462  30620  30985  31031  31242  31288  31370  31611  31647
                                                 32036
 $$$C11WYLACCT
               1 00004318 00000001     J   32259 32261
 $$$C12WYLACCT
               1 00004338 00000001     J   32277 32279
 $$$C2WYLACCT
               1 00001700 00000001     J   16727 16729  18242
 $$$C3WYLACCT
               1 00002485 00000001     J   21382 21384  21816  21932  22041
 $$$C4WYLACCT
               1 0000270A 00000001     J   22346 22348
 $$$C5WYLACCT
               1 0000280C 00000001     J   22816 22818  22848
 $$$C6WYLACCT
               1 0000296E 00000001     J   23344 23346  23400  24268
 $$$C7WYLACCT
               1 00002F42 00000001     J   25515 25517  25785
 $$$C8WYLACCT
               1 000032A5 00000001     J   26506 26508  26757
 $$$C9WYLACCT
               1 00003521 00000001     J   27399 27401  27452
 $$$D1WYLACCT
               1 000016F9 00000001     J   14026 16584
 $$$D10WYLACCT
               1 000042EE 00000001     J   28781 29451  30974  31020  31231  31277  31600  31636
 $$$D3WYLACCT
               1 000026FE 00000001     J   21383 21921  22030
 $$$RBILLWA
               1 00000000 FFFFFFCA     J   22829 22847  22847
 $$$RBTWA      1 00000000 FFFFFFC9     J   23383 23399  23399
 $$$RBUDWA
               1 00000000 FFFFFFC8     J   24228 24267  24267
 $$$RCHKAWA
               1 00000000 FFFFFFC2     J   32022 32035  32035
 $$$RCHKPWA
               1 00000000 FFFFFFC5     J   27425 27451  27451
 $$$RCOSTCB
               1 00000000 FFFFFFD4     J   10246 10275  10275
 $$$RCP        1 00000000 FFFFFFEC     J    2458  4718   6192   6192
 $$$RCTAREA
               1 00000000 FFFFFFD7     J   10153 10172  10172
 $$$RCV        1 00000000 FFFFFFEE     J    1183  2368   2368
1ACCT     (ACCT2025) (12:39) (15MAR04) Ordinary Symbol and Literal Cross Reference                                          Page  107
 $$$RCVARWA
               1 00000000 FFFFFFCB     J   21800 21815  21815
 $$$RDBWA      1 00000000 FFFFFFC7     J   25768 25784  25784
 $$$RDCWA      1 00000000 FFFFFFC6     J   26738 26756  26756
 $$$RDEV       1 00000000 FFFFFFEB     J    4672  4717   4717
 $$$RDSCWA
               1 00000000 FFFFFFD1     J   12915 12936  12936
 $$$RGETAWA
               1 00000000 FFFFFFC3     J   31353 31369  31369
 $$$RGETUWA
               1 00000000 FFFFFFC4     J   30605 30619  30619
 $$$RJCB       1 00000000 FFFFFFE0     J    9422  9696   9696
 $$$RKWR       1 00000000 FFFFFFE1     J    9211  9416   9416
 $$$RNSCNCB
               1 00000000 FFFFFFED     J    2379  2452   2452
 $$$RSCOSTWA
               1 00000000 FFFFFFD2     J   12133 12156  12156
 $$$RSIN       1 00000000 FFFFFFDE     J    9746  9817   9817
 $$$RSMFACCT
               1 00000000 FFFFFFDB     J    9930  9971   9971
 $$$RSMFCCRC
               1 00000000 FFFFFFD9     J   10067 10120  10120
 $$$RSMFCTRC
               1 00000000 FFFFFFD8     J   10127 10147  10147
 $$$RSMFGLOG
               1 00000000 FFFFFFD6     J   10178 10196  10196
 $$$RSMFHDR
               1 00000000 FFFFFFDC     J    9885  9923   9923
 $$$RSMFKWR
               1 00000000 FFFFFFD5     J   10202 10240  10240
 $$$RSMFSCRC
               1 00000000 FFFFFFDA     J    9978 10060  10060
 $$$RSTCWA
               1 00000000 FFFFFFCF     J   15112 15128  15128
 $$$RSWCWA
               1 00000000 FFFFFFD0     J   14037 14051  14051
 $$$RTMWA      1 00000000 FFFFFFD3     J   10285 10306  10306
 $$$RTTYPE
               1 00000000 FFFFFFEA     J    6203  6304   6304
 $$$RUCE       1 00000000 FFFFFFDD     J    9828  9878   9878
 $$$RUIDREC
               1 00000000 FFFFFFDF     J    9708  9739   9739
 $$$RUSERCVT
               1 00000000 FFFFFFE3     J    8537  8620   8620
 $$$RWBILLWA
               1 00000000 FFFFFFCC     J   18227 18241  18241
 $$$RWCTWA
               1 00000000 FFFFFFCE     J   15894 15908  15908
 $$$RWCWA      1 00000000 FFFFFFCD     J   16474 16487  16487
 $$$SEGCB0
               4 00000050 FFFFFFEC     F    2489  2575   2575
 $$$V01       26 00004318 00000001     C   32270 23911  24545
 $$$Z2         4 00002304 00000001     F   21315 17741
 $$$101F       2 00000AA2 00000001     H   13926 13382B
 $$$101T       2 0000093A 00000001     H   13385 13358B 13370B
 $$$104F       2 00000952 00000001     H   13428 13415B
 $$$105F       2 000009C0 00000001     H   13593 13538B
 $$$106F       2 00000A22 00000001     H   13715 13703B
 $$$107F       2 00000A6C 00000001     H   13824 13812B
1ACCT     (ACCT2025) (12:39) (15MAR04) Ordinary Symbol and Literal Cross Reference                                          Page  108
 $$$108        1 00000054 00000001 A   U   13965 13962  13964
 $$$110B       1 00000C50 00000001     X   14081 14088U
 $$$111F       2 00000CC6 00000001     H   14214 14199B
 $$$112F       2 00000CEE 00000001     H   14248 14233B
 $$$113F       2 00000D9E 00000001     H   14403 14304B
 $$$114F       2 00000D68 00000001     H   14334 14319B
 $$$115F       2 00000D9E 00000001     H   14399 14345B
 $$$116B       4 00000DA4 00000001     I   14419 14656
 $$$116F       2 00000E54 00000001     H   14650 14419B 14655
 $$$117F       2 00000DCC 00000001     H   14462 14453B
 $$$118F       2 00000E54 00000001     H   14646 14478B
 $$$118S       2 00000DD6 00000001     H   14471 14645B
 $$$120F       2 00000E40 00000001     H   14615 14564B
 $$$121E       2 00000E58 00000001     H   14663 14657
 $$$121F       2 00000F12 00000001     H   14905 14659B
 $$$122F       2 00000E9C 00000001     H   14741 14680B
 $$$123F       2 00000F02 00000001     H   14875 14824B
 $$$124        1 00000064 00000001 A   U   14930 14927  14929
 $$$126B       1 00000FB6 00000001     X   15030 15037U
 $$$127F       2 00000FD4 00000001     H   15076 15063B
 $$$128        1 00000050 00000001 A   U   15094 15091  15093
 $$$130B       1 00000FFC 00000001     X   15158 15165U
 $$$131F       2 00001018 00000001     H   15250 15241B
 $$$132F       2 0000107E 00000001     H   15313 15298B
 $$$133F       2 00001140 00000001     H   15474 15375B
 $$$134F       2 0000110A 00000001     H   15405 15390B
 $$$135F       2 00001140 00000001     H   15470 15416B
 $$$136F       2 00001162 00000001     H   15505 15490B
 $$$137        1 0000006C 00000001 A   U   15530 15527  15529
 $$$139B       1 000012A6 00000001     X   15690 15697U
 $$$140F       2 000012C4 00000001     H   15736 15723B
 $$$141        1 00000050 00000001 A   U   15754 15751  15753
 $$$143B       1 000012EC 00000001     X   15781 15788U
 $$$144        1 00000050 00000001 A   U   15815 15812  15814
 $$$146B       1 00001318 00000001     X   15842 15849U
 $$$147        1 00000050 00000001 A   U   15876 15873  15875
 $$$149B       1 00001344 00000001     X   15938 15945U
 $$$150F       2 000013BA 00000001     H   16071 16056B
 $$$151F       2 0000147C 00000001     H   16232 16133B
 $$$152F       2 00001446 00000001     H   16163 16148B
 $$$153F       2 0000147C 00000001     H   16228 16174B
 $$$154F       2 00001496 00000001     H   16261 16246B
 $$$155        1 00000064 00000001 A   U   16286 16283  16285
 $$$157B       1 0000153A 00000001     X   16386 16393U
 $$$158F       2 00001558 00000001     H   16432 16419B
 $$$159        1 00000050 00000001 A   U   16450 16447  16449
 $$$161B       1 00001580 00000001     X   16517 16524U
 $$$162F       2 00001592 00000001     H   16561 16552B
 $$$163F       2 000015A0 00000001     H   16600 16576B
 $$$164        6 000016FA 00000001     I   16590 16582X
 $$$165        6 000016FA 00000001     I   16589 16590  16590
 $$$166B       4 000015B8 00000001     I   16616 16632
 $$$166F       2 000015BE 00000001     H   16629 16616B 16631
 $$$167E       2 000015C2 00000001     H   16639 16633
 $$$167F       2 000015C6 00000001     H   16663 16635B
 $$$168        1 00000060 00000001 A   U   16687 16684  16686
 $$$170B       1 0000171A 00000001     X   16772 16779U
 $$$171F       2 00001732 00000001     H   16829 16817B
 $$$172        1 00000050 00000001 A   U   16853 16850  16852
1ACCT     (ACCT2025) (12:39) (15MAR04) Ordinary Symbol and Literal Cross Reference                                          Page  109
 $$$174B       1 0000175A 00000001     X   16898 16905U
 $$$175F       2 00001788 00000001     H   17012 16958B
 $$$176F       2 00001778 00000001     H   16985 16976B
 $$$177F       2 00001788 00000001     H   17008 16999B
 $$$178F       2 000017CA 00000001     H   17060 17034B
 $$$179        1 00000050 00000001 A   U   17086 17083  17085
 $$$181B       1 000017F4 00000001     X   17154 17161U
 $$$182F       2 00001820 00000001     H   17267 17213B
 $$$183F       2 00001810 00000001     H   17240 17231B
 $$$184F       2 00001820 00000001     H   17263 17254B
 $$$185F       2 00001866 00000001     H   17316 17290B
 $$$186        1 00000050 00000001 A   U   17342 17339  17341
 $$$188B       1 00001890 00000001     X   17405 17412U
 $$$189B       4 0000189A 00000001     I   17463 17475
 $$$189F       2 0000189E 00000001     H   17471 17463B 17474
 $$$190E       2 000018A2 00000001     H   17482 17476
 $$$190F       2 000018D0 00000001     H   17556 17478B
 $$$191F       2 000018C4 00000001     H   17525 17501B 17515B
 $$$191S       2 000018AC 00000001     H   17492 17524B
 $$$194F       2 000018D0 00000001     H   17552 17538B
 $$$195        1 00000050 00000001 A   U   17575 17572  17574
 $$$197B       1 000018F8 00000001     X   17638 17645U
 $$$198F       2 00001916 00000001     H   17726 17699B
 $$$199F       2 00001976 00000001     H   17809 17742B
 $$$200F       2 00001944 00000001     H   17778 17764B
 $$$201F       2 00001A12 00000001     H   17929 17828B
 $$$202F       2 000019A2 00000001     H   17856 17846B
 $$$203F       2 000019BE 00000001     H   17886 17872B
 $$$204        1 00000050 00000001 A   U   17978 17975  17977
 $$$206B       1 00001A66 00000001     X   18039 18046U
 $$$207B       4 00001A6E 00000001     I   18089 18113
 $$$207F       2 00001A7A 00000001     H   18107 18089B 18112
 $$$208B       4 00001A82 00000001     I   18131 18160
 $$$208E       2 00001A7E 00000001     H   18120 18114
 $$$208F       2 00001AA8 00000001     H   18155 18116B 18131B 18159
 $$$210E       2 00001AAC 00000001     H   18167 18161
 $$$210F       2 00001AC2 00000001     H   18184 18163B
 $$$211        1 00000050 00000001 A   U   18203 18200  18202
 $$$213B       1 00001AEA 00000001     X   18271 18278U
 $$$215F       2 00001B6C 00000001     H   18416 18403B
 $$$216F       2 00001B7C 00000001     H   18442 18429B
 $$$217F       2 00001B8C 00000001     H   18468 18455B
 $$$218F       2 00001BA4 00000001     H   18512 18480B 18499B
 $$$220F       2 00001CCC 00000001     H   18978 18964B
 $$$220S       2 00001BA8 00000001     H   18519 18977B
 $$$221F       2 00001CBC 00000001     H   18945 18544B
 $$$230        1 00000068 00000001 A   U   19004 19001  19003
 $$$232B       1 00001CF8 00000001     X   19036 19043U
 $$$234F       2 00001D10 00000001     H   19097 19086B
 $$$235F       2 00001D48 00000001     H   19167 19155B
 $$$236B       4 00001D5E 00000001     I   19204 19438
 $$$236F       2 00001DDA 00000001     H   19434 19204B 19437
 $$$236T       2 00001D62 00000001     H   19207 19195B
 $$$238F       2 00001DAA 00000001     H   19337 19218B
 $$$239F       2 00001D88 00000001     H   19272 19261B
 $$$240F       2 00001DAA 00000001     H   19333 19306B
 $$$241F       2 00001DDA 00000001     H   19430 19348B
 $$$242F       2 00001DD0 00000001     H   19402 19391B
 $$$243E       2 00001DDE 00000001     H   19445 19439
1ACCT     (ACCT2025) (12:39) (15MAR04) Ordinary Symbol and Literal Cross Reference                                          Page  110
 $$$243F       2 00001E08 00000001     H   19524 19441B
 $$$244F       2 00001DFE 00000001     H   19496 19485B
 $$$245        1 00000050 00000001 A   U   19562 19559  19561
 $$$247B       1 00001E42 00000001     X   19602 19609U
 $$$248F       2 00001FBE 00000001     H   20108 19648B
 $$$249F       2 00001E8C 00000001     H   19689 19677B
 $$$250F       2 00001ED6 00000001     H   19785 19773B
 $$$251F       2 00001F16 00000001     H   19872 19860B
 $$$252F       2 0000200E 00000001     H   20191 20181B
 $$$253F       2 00002080 00000001     H   20328 20316B
 $$$254F       2 000020C6 00000001     H   20416 20406B
 $$$255F       2 000021C0 00000001     H   20790 20527B 20544B 20564B
 $$$258F       2 00002148 00000001     H   20624 20611B
 $$$259F       2 0000218E 00000001     H   20702 20690B
 $$$260F       2 000021C0 00000001     H   20786 20759B
 $$$261        1 00000050 00000001 A   U   20834 20831  20833
 $$$263B       1 000021F4 00000001     X   20877 20884U
 $$$264F       2 000021FE 00000001     H   20916 20903B
 $$$265F       2 00002206 00000001     H   20940 20927B
 $$$266F       2 00002212 00000001     H   20966 20953B
 $$$267F       2 0000226A 00000001     H   21102 20976B
 $$$268F       2 0000222A 00000001     H   21013 21001B
 $$$269        1 00000050 00000001 A   U   21121 21118  21120
 $$$271B       1 00002292 00000001     X   21148 21155U
 $$$272        1 00000050 00000001 A   U   21305 21302  21304
 $$$274B       1 000024A0 00000001     X   21424 21431U
 $$$275F       2 000024DA 00000001     H   21518 21468B
 $$$276F       2 000024D6 00000001     H   21513 21501B
 $$$277F       2 000024EC 00000001     H   21543 21533B
 $$$278F       2 0000252E 00000001     H   21662 21558B
 $$$279B       4 000024FC 00000001     I   21573 21589
 $$$279F       2 00002502 00000001     H   21586 21573B 21588
 $$$280E       2 00002506 00000001     H   21596 21590
 $$$280F       2 0000250E 00000001     H   21621 21592B
 $$$281F       2 0000252A 00000001     H   21657 21645B
 $$$282F       2 00002556 00000001     H   21752 21677B
 $$$283B       4 0000253E 00000001     I   21692 21708
 $$$283F       2 00002544 00000001     H   21705 21692B 21707
 $$$284E       2 00002548 00000001     H   21715 21709
 $$$284F       2 00002552 00000001     H   21747 21711B
 $$$285        1 00000050 00000001 A   U   21783 21780  21782
 $$$287B       1 00002580 00000001     X   21845 21852U
 $$$288F       2 0000259E 00000001     H   21897 21888B
 $$$289F       2 000025B0 00000001     H   21937 21913B
 $$$290        6 000026FE 00000001     I   21927 21919X
 $$$291        6 000026FE 00000001     I   21926 21927  21927
 $$$292F       2 0000264C 00000001     H   22209 21999B
 $$$292S       2 000025CE 00000001     H   21991 22208B
 $$$294F       2 000025EE 00000001     H   22046 22022B
 $$$295        6 00002704 00000001     I   22036 22028X
 $$$296        6 00002704 00000001     I   22035 22036  22036
 $$$297F       2 00002648 00000001     H   22204 22062B 22076B
 $$$299B       4 0000260A 00000001     I   22094 22108
 $$$299F       2 00002612 00000001     H   22104 22094B 22107
 $$$300B       4 0000261C 00000001     I   22126 22140
 $$$300E       2 00002616 00000001     H   22115 22109
 $$$300F       2 00002624 00000001     H   22136 22111B 22126B 22139
 $$$302B       4 0000262E 00000001     I   22158 22172
 $$$302E       2 00002628 00000001     H   22147 22141
1ACCT     (ACCT2025) (12:39) (15MAR04) Ordinary Symbol and Literal Cross Reference                                          Page  111
 $$$302F       2 00002636 00000001     H   22168 22143B 22158B 22171
 $$$304E       2 0000263A 00000001     H   22179 22173
 $$$304F       2 00002648 00000001     H   22200 22175B 22190B
 $$$306F       2 0000267E 00000001     H   22284 22241B
 $$$306T       2 00002662 00000001     H   22244 22229B
 $$$308F       2 0000267E 00000001     H   22280 22268B
 $$$309        1 00000074 00000001 A   U   22318 22315  22317
 $$$311B       1 00002724 00000001     X   22394 22401U
 $$$312F       2 00002750 00000001     H   22483 22421B
 $$$313F       2 0000273A 00000001     H   22448 22439B
 $$$314F       2 00002750 00000001     H   22479 22467B
 $$$315        1 00000050 00000001 A   U   22501 22498  22500
 $$$317B       1 00002778 00000001     X   22553 22560U
 $$$318F       2 000027E6 00000001     H   22781 22584B 22738B
 $$$319F       2 00002790 00000001     H   22615 22605B
 $$$320F       2 0000279C 00000001     H   22637 22627B
 $$$321F       2 000027A8 00000001     H   22659 22649B
 $$$322F       2 000027B4 00000001     H   22681 22671B
 $$$323F       2 000027C0 00000001     H   22703 22693B
 $$$324F       2 000027CC 00000001     H   22725 22715B
 $$$326F       2 000027E6 00000001     H   22777 22765B
 $$$327        1 00000050 00000001 A   U   22800 22797  22799
 $$$329B       1 00002826 00000001     X   22877 22884U
 $$$330F       2 00002842 00000001     H   22928 22918B
 $$$331F       2 0000286C 00000001     H   23021 22974B 22987B
 $$$333F       2 00002878 00000001     H   23045 23035B
 $$$334F       2 000028DC 00000001     H   23178 23111B
 $$$336F       2 000028D4 00000001     H   23167 23155B
 $$$337F       2 00002900 00000001     H   23230 23197B
 $$$337S       2 000028E0 00000001     H   23189 23229B
 $$$339F       2 000028FC 00000001     H   23225 23215B
 $$$340B       4 00002924 00000001     I   23261 23275
 $$$340F       2 00002930 00000001     H   23271 23261B 23274
 $$$341E       2 00002934 00000001     H   23282 23276
 $$$341F       2 00002940 00000001     H   23290 23278B
 $$$342        1 00000090 00000001 A   U   23327 23324  23326
 $$$344B       1 000029B8 00000001     X   23428 23435U
 $$$345F       2 00002A7E 00000001     H   23751 23732B
 $$$345S       2 000029C2 00000001     H   23460 23750B
 $$$350F       2 00002A6E 00000001     H   23711 23580B
 $$$351F       2 00002A2A 00000001     H   23645 23612B
 $$$351S       2 00002A0A 00000001     H   23604 23644B
 $$$353F       2 00002A26 00000001     H   23640 23630B
 $$$354B       4 00002A4E 00000001     I   23676 23690
 $$$354F       2 00002A5A 00000001     H   23686 23676B 23689
 $$$355E       2 00002A5E 00000001     H   23697 23691
 $$$355F       2 00002A6A 00000001     H   23705 23693B
 $$$358        1 00000070 00000001 A   U   23775 23772  23774
 $$$360B       1 00002AA6 00000001     X   23829 23836U
 $$$361F       2 00002BA6 00000001     H   24172 23869B 23929B
 $$$362F       2 00002AD4 00000001     H   23915 23900B
 $$$364F       2 00002AEE 00000001     H   23973 23960B
 $$$365F       2 00002B64 00000001     H   24092 23989B
 $$$366F       2 00002B38 00000001     H   24035 24020B
 $$$367F       2 00002B44 00000001     H   24055 24045B
 $$$368F       2 00002B60 00000001     H   24087 24072B
 $$$369F       2 00002B78 00000001     H   24120 24107B
 $$$370F       2 00002B9A 00000001     H   24155 24142B
 $$$371        1 00000050 00000001 A   U   24195 24192  24194
1ACCT     (ACCT2025) (12:39) (15MAR04) Ordinary Symbol and Literal Cross Reference                                          Page  112
 $$$373B       1 00002BCE 00000001     X   24296 24303U
 $$$375F       2 00002BE6 00000001     H   24390 24375B
 $$$376F       2 00002BF2 00000001     H   24419 24404B
 $$$377F       2 00002BFE 00000001     H   24445 24430B
 $$$378F       2 00002C0A 00000001     H   24471 24456B
 $$$379F       2 00002E6E 00000001     H   25407 24500B
 $$$379S       2 00002C14 00000001     H   24494 25406B
 $$$381F       2 00002C3C 00000001     H   24549 24534B
 $$$384F       2 00002C68 00000001     H   24636 24607B 24626B
 $$$387F       2 00002CD6 00000001     H   24868 24689B 24708B
 $$$387T       2 00002C86 00000001     H   24692 24677B
 $$$391F       2 00002CA6 00000001     H   24770 24751B
 $$$394F       2 00002CC2 00000001     H   24826 24807B
 $$$396F       2 00002CD6 00000001     H   24862 24843B
 $$$398F       2 00002CE4 00000001     H   24898 24888B
 $$$399F       2 00002CF0 00000001     H   24921 24911B
 $$$400F       2 00002CFC 00000001     H   24944 24934B
 $$$401F       2 00002D0E 00000001     H   24984 24955B
 $$$402F       2 00002D0E 00000001     H   24980 24970B
 $$$403F       2 00002D2E 00000001     H   25045 24999B
 $$$404F       2 00002D2E 00000001     H   25041 25019B 25031B
 $$$406F       2 00002D3A 00000001     H   25067 25057B
 $$$407F       2 00002D5E 00000001     H   25103 25091B
 $$$408F       2 00002D70 00000001     H   25131 25119B
 $$$409F       2 00002D7A 00000001     H   25155 25142B
 $$$410F       2 00002DA4 00000001     H   25195 25183B
 $$$411F       2 00002DAE 00000001     H   25219 25206B
 $$$412F       2 00002DDE 00000001     H   25263 25251B
 $$$413F       2 00002E08 00000001     H   25303 25291B
 $$$414F       2 00002E38 00000001     H   25347 25335B
 $$$415F       2 00002E62 00000001     H   25387 25375B
 $$$416        1 00000054 00000001 A   U   25436 25433  25435
 $$$418B       1 00002F5C 00000001     X   25560 25567U
 $$$419F       2 00002FA4 00000001     H   25712 25698B
 $$$419S       2 00002F60 00000001     H   25582 25711B
 $$$420F       2 00002F94 00000001     H   25679 25607B 25625B 25644B 25663B
 $$$426        1 00000050 00000001 A   U   25731 25728  25730
 $$$427F       2 0000322C 00000001     H   26461 25912B
 $$$428B       1 00002FCC 00000001     X   25814 25821U
 $$$430F       2 00003050 00000001     H   25991 25981B
 $$$431F       2 000030C6 00000001     H   26121 26036B
 $$$432F       2 000030C2 00000001     H   26116 26065B
 $$$432T       2 00003086 00000001     H   26068 26056B
 $$$434F       2 000030C2 00000001     H   26112 26100B
 $$$435F       2 000031BE 00000001     H   26329 26218B 26314B
 $$$435S       2 00003100 00000001     H   26191 26328B
 $$$438F       2 00003140 00000001     H   26262 26250B
 $$$440F       2 0000322A 00000001     H   26427 26392B
 $$$441        1 0000005C 00000001 A   U   26470 26467  26469
 $$$443B       1 000032C0 00000001     X   26588 26595U
 $$$444F       2 000032F8 00000001     H   26694 26651B
 $$$444T       2 000032D8 00000001     H   26654 26639B
 $$$446F       2 000032F8 00000001     H   26690 26673B
 $$$446S       2 000032E4 00000001     H   26667 26689B
 $$$448        1 00000050 00000001 A   U   26718 26715  26717
 $$$450B       1 00003320 00000001     X   26785 26792U
 $$$451F       2 00003358 00000001     H   26882 26872B
 $$$452F       2 00003366 00000001     H   26905 26895B
 $$$453F       2 00003374 00000001     H   26928 26918B
1ACCT     (ACCT2025) (12:39) (15MAR04) Ordinary Symbol and Literal Cross Reference                                          Page  113
 $$$454F       2 00003382 00000001     H   26951 26941B
 $$$455F       2 00003390 00000001     H   26974 26964B
 $$$456F       2 0000339C 00000001     H   26998 26988B
 $$$457F       2 000033A8 00000001     H   27021 27011B
 $$$458F       2 000033B4 00000001     H   27044 27034B
 $$$459F       2 000033C0 00000001     H   27067 27057B
 $$$460F       2 000033CC 00000001     H   27090 27080B
 $$$461F       2 000034AA 00000001     H   27323 27114B
 $$$462F       2 0000341E 00000001     H   27178 27168B
 $$$463F       2 00003430 00000001     H   27208 27196B
 $$$464F       2 00003468 00000001     H   27248 27238B
 $$$465        1 0000017C 00000001 A   U   27351 27348  27350
 $$$467B       1 0000353C 00000001     X   27480 27487U
 $$$468F       2 0000356E 00000001     H   27630 27595B 27614B
 $$$468T       2 00003560 00000001     H   27598 27567B 27583B
 $$$472F       2 000035D0 00000001     H   27841 27646B 27829B
 $$$474F       2 0000358E 00000001     H   27704 27685B
 $$$482F       2 000035E0 00000001     H   27869 27860B
 $$$483F       2 000035F0 00000001     H   27892 27883B
 $$$484F       2 00003600 00000001     H   27915 27906B
 $$$485F       2 00003798 00000001     H   28531 27929B
 $$$486F       2 00003622 00000001     H   27973 27949B 27963B
 $$$488F       2 00003646 00000001     H   28026 27987B 28001B 28016B
 $$$491F       2 00003656 00000001     H   28049 28040B
 $$$492F       2 00003666 00000001     H   28072 28063B
 $$$493F       2 00003676 00000001     H   28095 28086B
 $$$494F       2 00003686 00000001     H   28118 28109B
 $$$495F       2 00003696 00000001     H   28141 28132B
 $$$496F       2 000036A6 00000001     H   28164 28155B
 $$$497F       2 000036B6 00000001     H   28187 28178B
 $$$498F       2 000036C6 00000001     H   28210 28201B
 $$$499F       2 000036D6 00000001     H   28233 28224B
 $$$500F       2 000036E6 00000001     H   28256 28247B
 $$$501F       2 00003798 00000001     H   28527 28289B
 $$$501T       2 000036F8 00000001     H   28292 28277B
 $$$503F       2 00003708 00000001     H   28315 28306B
 $$$504F       2 00003718 00000001     H   28338 28329B
 $$$505F       2 00003728 00000001     H   28361 28352B
 $$$506F       2 00003738 00000001     H   28384 28375B
 $$$507F       2 00003748 00000001     H   28407 28398B
 $$$508F       2 00003758 00000001     H   28430 28421B
 $$$509F       2 00003768 00000001     H   28453 28444B
 $$$510F       2 00003778 00000001     H   28476 28467B
 $$$511F       2 00003788 00000001     H   28499 28490B
 $$$512F       2 00003798 00000001     H   28522 28513B
 $$$513F       2 000037C0 00000001     H   28598 28545B
 $$$514F       2 000037B0 00000001     H   28571 28562B
 $$$515F       2 000037C0 00000001     H   28594 28585B
 $$$516F       2 000037D0 00000001     H   28621 28612B
 $$$517F       2 000037E0 00000001     H   28655 28640B
 $$$518        1 00000054 00000001 A   U   28683 28680  28682
 $$$520B       1 000039F6 00000001     X   28837 28844U
 $$$521F       2 00003A38 00000001     H   28950 28909B 28928B
 $$$521S       2 00003A08 00000001     H   28903 28949B
 $$$524F       2 00003A50 00000001     H   28995 28975B
 $$$525        1 00000050 00000001 A   U   29029 29026  29028
 $$$527B       1 00003A7E 00000001     X   29077 29084U
 $$$528F       2 00003B58 00000001     H   29304 29167B
 $$$528S       2 00003AA2 00000001     H   29161 29303B
1ACCT     (ACCT2025) (12:39) (15MAR04) Ordinary Symbol and Literal Cross Reference                                          Page  114
 $$$53B        1 00000032 00000001     X   10336 10343U
 $$$530F       2 00003ABA 00000001     H   29212 29202B
 $$$532        1 00000050 00000001 A   U   29328 29325  29327
 $$$534B       1 00003B80 00000001     X   29364 29371U
 $$$535F       2 00003BBE 00000001     H   29428 29419B
 $$$536F       2 00003BCE 00000001     H   29467 29443B
 $$$537        6 000042EE 00000001     I   29457 29449X
 $$$538        6 000042EE 00000001     I   29456 29457  29457
 $$$539        1 00000050 00000001 A   U   29530 29527  29529
 $$$54B        4 00000096 00000001     I   10427 10441
 $$$54F        2 0000009E 00000001     H   10438 10427B 10440
 $$$541B       1 00003C16 00000001     X   29566 29573U
 $$$542F       2 00003C22 00000001     H   29600 29591B
 $$$543F       2 00003C2E 00000001     H   29619 29610B
 $$$544        1 00000050 00000001 A   U   29717 29714  29716
 $$$546B       1 00003C94 00000001     X   29761 29768U
 $$$547B       4 00003CF4 00000001     I   29910 29923
 $$$547F       2 00003CFE 00000001     H   29920 29910B 29922
 $$$548E       2 00003D02 00000001     H   29930 29924
 $$$548F       2 00003D82 00000001     H   30159 29926B
 $$$549F       2 00003D2A 00000001     H   29994 29943B
 $$$55E        2 000000A2 00000001     H   10448 10442
 $$$55F        2 000000A6 00000001     H   10456 10444B
 $$$550F       2 00003D1E 00000001     H   29969 29959B
 $$$551F       2 00003D2A 00000001     H   29990 29980B
 $$$552F       2 00003D36 00000001     H   30015 30005B
 $$$553F       2 00003D42 00000001     H   30036 30026B
 $$$554F       2 00003D4E 00000001     H   30057 30047B
 $$$555F       2 00003D82 00000001     H   30155 30068B
 $$$556F       2 00003D62 00000001     H   30093 30083B
 $$$557F       2 00003D76 00000001     H   30130 30108B 30120B
 $$$559F       2 00003D82 00000001     H   30151 30141B
 $$$56         1 00000054 00000001 A   U   10480 10477  10479
 $$$560        1 00000050 00000001 A   U   30204 30201  30203
 $$$562B       1 00003DBE 00000001     X   30259 30266U
 $$$563F       2 00003DE6 00000001     H   30333 30319B
 $$$563T       2 00003DD2 00000001     H   30322 30307B
 $$$565F       2 00003E10 00000001     H   30379 30365B
 $$$565T       2 00003DFC 00000001     H   30368 30353B
 $$$568F       2 00003E28 00000001     H   30433 30414B
 $$$570F       2 00003E4C 00000001     H   30497 30465B
 $$$570T       2 00003E38 00000001     H   30468 30453B
 $$$573F       2 00003EAE 00000001     H   30552 30535B
 $$$574        1 00000050 00000001 A   U   30576 30573  30575
 $$$576B       1 00003ED6 00000001     X   30648 30655U
 $$$577F       2 00003F24 00000001     H   30741 30731B
 $$$578        1 000001A4 00000001 A   U   30764 30761  30763
 $$$58B        1 0000014A 00000001     X   10555 10562U
 $$$580B       1 00003F4C 00000001     X   30806 30813U
 $$$581B       4 00003F5E 00000001     I   30858 30886
 $$$581F       2 00003F6A 00000001     H   30883 30858B 30885
 $$$582E       2 00003F6E 00000001     H   30893 30887
 $$$582F       2 00003F9A 00000001     H   30950 30889B
 $$$583F       2 00003F94 00000001     H   30944 30918B 30931B
 $$$583S       2 00003F78 00000001     H   30910 30943B
 $$$586F       2 00003FAA 00000001     H   30990 30966B
 $$$587        6 000042F4 00000001     I   30980 30972X
 $$$588        6 000042F4 00000001     I   30979 30980  30980
 $$$589F       2 00003FC4 00000001     H   31036 31012B
1ACCT     (ACCT2025) (12:39) (15MAR04) Ordinary Symbol and Literal Cross Reference                                          Page  115
 $$$59         1 00000050 00000001 A   U   10594 10591  10593
 $$$590        6 000042FA 00000001     I   31026 31018X
 $$$591        6 000042FA 00000001     I   31025 31026  31026
 $$$592        1 000001A4 00000001 A   U   31069 31066  31068
 $$$594B       1 00003FF0 00000001     X   31113 31120U
 $$$595B       4 00004002 00000001     I   31165 31193
 $$$595F       2 0000400E 00000001     H   31190 31165B 31192
 $$$596E       2 00004012 00000001     H   31200 31194
 $$$596F       2 0000401A 00000001     H   31207 31196B
 $$$597F       2 0000402A 00000001     H   31247 31223B
 $$$598        6 00004300 00000001     I   31237 31229X
 $$$599        6 00004300 00000001     I   31236 31237  31237
 $$$600F       2 00004044 00000001     H   31293 31269B
 $$$601        6 00004306 00000001     I   31283 31275X
 $$$602        6 00004306 00000001     I   31282 31283  31283
 $$$603        1 000001A4 00000001 A   U   31326 31323  31325
 $$$605B       1 00004070 00000001     X   31400 31407U
 $$$606F       2 000040E0 00000001     H   31539 31458B
 $$$607F       2 000040C0 00000001     H   31505 31489B
 $$$607T       2 000040A8 00000001     H   31492 31478B
 $$$609F       2 000040E0 00000001     H   31535 31519B
 $$$61B        1 00000176 00000001     X   10634 10641U
 $$$610F       2 000040FC 00000001     H   31577 31568B
 $$$611F       2 0000410A 00000001     H   31616 31592B
 $$$612        6 0000430C 00000001     I   31606 31598X
 $$$613        6 0000430C 00000001     I   31605 31606  31606
 $$$614F       2 00004118 00000001     H   31652 31628B
 $$$615        6 00004312 00000001     I   31642 31634X
 $$$616        6 00004312 00000001     I   31641 31642  31642
 $$$62F        2 0000019E 00000001     H   10715 10702B
 $$$620F       2 00004180 00000001     H   31853 31733B
 $$$620S       2 0000413C 00000001     H   31727 31852B
 $$$622F       2 00004176 00000001     H   31843 31751B 31764B
 $$$624F       2 00004176 00000001     H   31839 31782B 31795B
 $$$626F       2 00004176 00000001     H   31835 31813B 31826B
 $$$63F        2 000001D6 00000001     H   10793 10781B
 $$$631        1 000001A8 00000001 A   U   31995 31992  31994
 $$$633B       1 00004202 00000001     X   32065 32072U
 $$$634F       2 00004248 00000001     H   32184 32113B
 $$$635B       4 0000423A 00000001     I   32152 32164
 $$$635F       2 00004242 00000001     H   32161 32152B 32163
 $$$637E       2 00004246 00000001     H   32171 32165
 $$$637F       2 00004248 00000001     H   32180 32167B
 $$$638        1 00000248 00000001 A   U   32216 32213  32215
 $$$64F        2 00000262 00000001     H   10983 10971B
 $$$65         1 00000050 00000001 A   U   11236 11233  11235
 $$$67B        1 00000338 00000001     X   11268 11275U
 $$$68F        2 00000566 00000001     H   12094 11549B
 $$$68S        2 000003F0 00000001     H   11541 12093B
 $$$70F        2 00000412 00000001     H   11595 11582B
 $$$71F        2 00000480 00000001     H   11760 11705B
 $$$72F        2 000004E2 00000001     H   11882 11870B
 $$$73F        2 0000052C 00000001     H   11991 11979B
 $$$74         1 00000050 00000001 A   U   12123 12120  12122
 $$$76B        1 0000058E 00000001     X   12186 12193U
 $$$77F        2 0000063E 00000001     H   12358 12279B
 $$$78F        2 0000063E 00000001     H   12354 12299B
 $$$79F        2 00000674 00000001     H   12438 12384B
 $$$80F        2 00000682 00000001     H   12464 12454B
1ACCT     (ACCT2025) (12:39) (15MAR04) Ordinary Symbol and Literal Cross Reference                                          Page  116
 $$$81         1 00000058 00000001 A   U   12500 12497  12499
 $$$83B        1 00000756 00000001     X   12590 12597U
 $$$84F        2 00000764 00000001     H   12629 12616B
 $$$85         1 00000050 00000001 A   U   12648 12645  12647
 $$$87B        1 00000790 00000001     X   12675 12682U
 $$$88         1 00000050 00000001 A   U   12714 12711  12713
 $$$90B        1 000007BC 00000001     X   12754 12761U
 $$$91F        2 000007FA 00000001     H   12881 12867B
 $$$91S        2 000007C6 00000001     H   12780 12880B
 $$$92F        2 000007EA 00000001     H   12849 12806B
 $$$95         1 00000050 00000001 A   U   12901 12898  12900
 $$$97B        1 00000826 00000001     X   12965 12972U
 $$$98F        2 00000834 00000001     H   13021 13006B
 $$$99F        2 00000AA6 00000001     H   13931 13337B
 $$$99S        2 00000916 00000001     H   13329 13930B
 $USINTMS      1 00000004 FFFFFFE2 A   U    9164  9175
 $USINTSY      1 00000008 FFFFFFE2 A   U    9166  9175
 $USINTUS      1 00000002 FFFFFFE2 A   U    9162  9175
 $USSTC        1 00000020 FFFFFFE2 A   U    9170  9175
 @RAR          0 00000000 FFFFFFF0     @    1132  2166   2174B
 @R0           0 00000000 FFFFFFFE     @     706   982U
 @R1           0 00000000 FFFFFFFD     @     719   978U  2172   2173  16589  16660U 16837U 17094U 17350U 17583U 17986U
                                                 21926  21939  23453  25854  28691U 29836U 29860U 30930  30936  31025
                                                 31282  31475  31488  31494  31495  31518  31524  31525  31605  31695
                                                 31708  31750  31763  31781  31794  31812  31825  31943  31953  31954
 @R10          0 00000000 FFFFFFF4     @     836   942U
 @R11          0 00000000 FFFFFFF3     @     849   938U 23378U 23803U 24223U 25533U 25763U 26562U 28810U 29735U 30233U
 @R12          0 00000000 FFFFFFF2     @     862   934U
 @R13          0 00000000 FFFFFFF1     @     875   930U
 @R14          0 00000000 FFFFFFF0     @     888   926U
 @R15          0 00000000 FFFFFFEF     @     901   922U 21467  21532  21557  21676  21737U 21877  22961U 22986  23018U
                                                 24479U 26154U 29638  30693  30694
 @R2           0 00000000 FFFFFFFC     @     732   974U 11382U 13252U 14941U 15541U 16297U 16602  17514  17786  17906
                                                 17935  20173  20398  21189M 21266  21618U 21744U 23012U 23065  24132U
                                                 27137U 27373U 28698U 29621  30937  31641
 @R3           0 00000000 FFFFFFFB     @     745   970U 18684U 24164U 25966U 26137U 26439U 29623  30723U 30737M 31045U
                                                 31302U 31915U
 @R4           0 00000000 FFFFFFFA     @     758   966U 12102U 13939U 14948U 15548U 16304U 17101U 17357U 17590U 17993U
                                                 18211U 22292U 22583  22604  22626  22648  22670  22692  22714  23301U
                                                 23742U 24169U 26016U 26163U 26325U 28957U 30175U 31661U
 @R5           0 00000000 FFFFFFF9     @     771   962U 12107U 12474U 12877U 13944U 14955U 15555U 16311U 17108U 17364U
                                                 17597U 18000U 18218U 18974U 21767U 22297U 23306U 23747U 24179U 24514U
                                                 25400U 25415U 25708U 26449U 27366U 29013U 29150U 29300U 30188U 30979M
                                                 31025M 31236M 31282M 31494M 31495M 31496M 31524M 31525M 31526M 31953M
                                                 31954M 31955M 32126  32127
 @R6           0 00000000 FFFFFFF8     @     784   958U 10603U 11220U 12723U 15103U 15885U 16459U 19571U 20844U 26444U
                                                 26702U 27359U 28705U 29312U 29514U 29701U 30183U 30560U
 @R7           0 00000000 FFFFFFF7     @     797   954U 10469U 10583U 11225U 12112U 12489U 12637U 12703U 12890U 13954U
                                                 14919U 15083U 15519U 15743U 15804U 15865U 16275U 16439U 16676U 16842U
                                                 17075U 17331U 17564U 17967U 18192U 18993U 19551U 20823U 21110U 21294U
                                                 21772U 22307U 22490U 22789U 23316U 23764U 24184U 25425U 25720U 26459U
                                                 26707U 27340U 28672U 29018U 29317U 29519U 29706U 30193U 30565U 30753U
                                                 31058U 31315U 31984U 32205U
 @R8           0 00000000 FFFFFFF6     @     810   950U 10464U 12484U 13949U 14914U 15514U 16270U 16671U 18303U 18988U
                                                 22302U 23311U 23759U 25420U 26454U 27335U 28667U 30748U 31053U 31310U
                                                 31979U 32200U
 @R9           0 00000000 FFFFFFF5     @     823   946U
 ABSCENT       1 00000000 00000000 A   T    2182  2182
 ACCT2025      1 00000000 00000001     R     999   997
1ACCT     (ACCT2025) (12:39) (15MAR04) Ordinary Symbol and Literal Cross Reference                                          Page  117
 AHLHEAD       1 00000000 00000000 A   T    7610  7610
 AHLVCCR8      1 00000000 00000000 A   T    8101  8101
 ASCTBL        1 00000000 00000000 A   T    2190  2190
 ASMVT         1 00000000 00000000 A   T    7990  7990
 BILLBLK       8 00000010 FFFFFFCA     C   22836 23061M 23062M 23063M 23064M 23065M 23154  23160
 BILLCHK       2 0000280C 00000001     H   22856 22852
 BILLCOMP     16 00000000 FFFFFFCA     C   22835 22838  22838  22906M 22924M
 BILLDATE     32 00000020 FFFFFFCA     C   22840 23052  23061  23062  23064
 BILLEXIT      2 00002944 00000001     H   23297 23131B 23163B 23221B
 BILLKEY      32 00000000 FFFFFFCA     X   22838 23128  23214  23248
 BILLPROJ      8 00000018 FFFFFFCA     C   22837 22905M
 BILLTBLK      2 0000299E 00000001     H   23407 23162B
 BILLUPD       2 00002A8C 00000001     H   23810 13990  22337  23174B 23593B 26485  32229
 BILLUPD$      2 00002BB4 00000001     H   24275 13991  32230
 BILLWA       64 00000000 FFFFFFCA     J   22847 22869  22898U 23324  23326  23327
 BIT0          1 00000080 FFFFFFE2 A   U    8806  8821   8835   8890   9114   9120
 BIT1          1 00000040 FFFFFFE2 A   U    8807  8822   8836   8891   9115   9121
 BIT2          1 00000020 FFFFFFE2 A   U    8808  8823   8845   8892   9122
 BIT3          1 00000010 FFFFFFE2 A   U    8809  8824   8847   8893   9123
 BIT4          1 00000008 FFFFFFE2 A   U    8810  8825   8848   8894   9099   9124
 BIT5          1 00000004 FFFFFFE2 A   U    8811  8826   8827   8850   8895   9100   9125
 BIT6          1 00000002 FFFFFFE2 A   U    8812  8828   8851   8896   9101   9126
 BIT7          1 00000001 FFFFFFE2 A   U    8813  8830   8854   8898   9102   9127
 BLTBL         1 00000000 00000000 A   T    2192  2192
 BR            7 00000007 00000001 A   #    1022 10331M 10550M 10629M 11263M 12181M 12585M 12670M 12749M 12960M 14076M
                                                 15025M 15153M 15685M 15776M 15837M 15933M 16381M 16512M 16767M 16893M
                                                 17149M 17400M 17633M 18034M 18266M 19031M 19597M 20872M 21143M 21419M
                                                 21840M 22389M 22548M 22872M 23423M 23824M 24291M 25555M 25809M 26583M
                                                 26780M 27475M 28832M 29072M 29359M 29561M 29756M 30254M 30643M 30801M
                                                 31108M 31395M 32060M
 BTBLK         8 00000010 FFFFFFC9     C   23390 23453M 23579
 BTCOMP       16 00000000 FFFFFFC9     C   23389 23392  23392  23585M
 BTD           1 00000000 0000001A     T   21357 21357
 BTKEY        32 00000000 FFFFFFC9     X   23392 23629  23663
 BTNEXT        4 00002A6E 00000001     I   23715 23487B 23506B 23525B 23544B 23636B
 BTPROJ        8 00000018 FFFFFFC9     C   23391 23586M
 BTR           1 00000000 0000000B     T   13986 13986  21350
 BTWA         32 00000000 FFFFFFC9     J   23399 23420  23449U 23772  23774  23775
 BUDFFLAT     16 00000000 FFFFFFC8        24255 24467M 24969  25030
 BUDFLAG       1 00000000 FFFFFFC8     R   24236 24240  24245  24250  24255
 BUDFLEAS    128 00000000 FFFFFFC8        24240 24386M 24998
 BUDFTEL      64 00000000 FFFFFFC8        24245 24415M 25056
 BUDFVIRT     32 00000000 FFFFFFC8        24250 24441M 25141  25205
 BUDNEXT       4 00002E66 00000001     I   25390 24567B 24588B 24632B 24652B 24731B 24767B 24787B 24823B 24859B
 BUDSOF        1 00000001 FFFFFFC8     C   24259 24473M 24728  24750  24764  24784  24806  24820  24842  24856  25069
                                                 25160  25224  25268  25308  25352
 BUDWA         3 00000000 FFFFFFC8     J   24267 24288  24317U 24327M 24327  25433  25435  25436
 CBBRANCH      1 00000000 00000000 A   T    8146  8146
 CCRCBLK       8 00000018 FFFFFFD9     C   10079 26232M 26871  26894  26917  26940  26963  26987  27010  27033  27056
                                                 27079  27645
 CCRCCOMP     16 00000008 FFFFFFD9     C   10078 26231M 27859  27882  27905  27948  27986  28039  28062  28085  28108
                                                 28131  28154  28177  28200  28223  28246  28305  28328  28351  28374
                                                 28397  28420  28443  28466  28489  28512  28561  28584  28611  28639
 CCRCCON       4 00000020 FFFFFFD9     F   10090 26263M 27216
 CCRCCON$      4 00000024 FFFFFFD9     F   10091 26264M
 CCRCFLAG      1 0000005C FFFFFFD9     R   10105 10109  26233M
 CCRCNEXT      1 00000060 FFFFFFD9     U   10113 26294
 CCRCPROJ      8 00000000 FFFFFFD9     C   10077 26230M
 CCRCTIO       4 00000028 FFFFFFD9     F   10092 26266M 27217
1ACCT     (ACCT2025) (12:39) (15MAR04) Ordinary Symbol and Literal Cross Reference                                          Page  118
 CCRCTIO$      4 0000002C FFFFFFD9     F   10093 26267M
 CCRCVCPU      4 00000040 FFFFFFD9     F   10098 26282M 27226
 CCRCVCPU$
               4 00000044 FFFFFFD9     F   10099 26283M
 CCRCVIO       4 00000048 FFFFFFD9     F   10100 26284M 27250
 CCRCVIO$      4 0000004C FFFFFFD9     F   10101 26285M
 CCRCWCPU      4 00000030 FFFFFFD9     F   10094 26273M 27156
 CCRCWCPU$
               4 00000034 FFFFFFD9     F   10095 26274M
 CCRCWIO       4 00000038 FFFFFFD9     F   10096 26275M 27210
 CCRCWIO$      4 0000003C FFFFFFD9     F   10097 26276M
 CHECKIOB      1 00000000 00000000 A   T    2238  2238
 CHKACCT       2 000041E8 00000001     H   32044 32040
 CHKAKWR     504 00000000 FFFFFFC2     X   32028 32090
 CHKAWA      504 00000000 FFFFFFC2     J   32035 32057  32086U 32213  32215  32216
 CHKPCOMM    128 00000000 FFFFFFC5        27437 27550M 27626M 27928
 CHKPFLAG      1 00000000 FFFFFFC5     R   27433 27437  27442
 CHKPFREEMAIL
              64 00000000 FFFFFFC5        27442 27837M 28544
 CHKPROJ       2 00003522 00000001     H   27459 27391
 CHKPWA        1 00000000 FFFFFFC5     J   27451 27472  27501U 27541M 28680  28682  28683
 CKFRYES       2 000035CC 00000001     H   27833 27665B 27701B 27721B 27741B 27761B 27781B 27801B 27821B
 COLLOPTS      1 00000000 00000012     T   13999 13999
 COLLPSH       1 00000000 00000003     T   10515 10515  12550  14990  15650  16346
 COMMAND       1 00000000 00000000 A   T    2178  2178
 COMMSEG       1 00000000 00000000 A   T    2179  2179
 COSTCB       52 00000000 FFFFFFD4     J   10275 10655  10665U 19103  19111U 19620  19628U 29103U 29113M 29113
 COSTCON$      4 00000008 FFFFFFD4     F   10253 19653  19746  20169  20667  29217  29218M
 COSTECLK      8 00000000 FFFFFFD4     D   10252 11135  19140  19662  20114  29201  29213  29214M
 COSTTIO       4 0000000C FFFFFFD4     F   10255 11196  20049  20450  29247  29248M
 COSTTIO$      4 00000010 FFFFFFD4     F   10256 19654  20100  20485  20668  29251  29252M
 COSTVCPU      4 00000024 FFFFFFD4     F   10264 10759  19837  20294  29277  29278M
 COSTVCPU$
               4 00000028 FFFFFFD4     F   10265 19657  19920  20394  20671  29281  29282M
 COSTVIO       4 0000002C FFFFFFD4     F   10267 10864  19989  20221  29287  29288M
 COSTVIO$      4 00000030 FFFFFFD4     F   10268 19658  20040  20263  20672  29291  29292M
 COSTWCPU      4 00000014 FFFFFFD4     F   10258 10949  19750  20293  29257  29258M
 COSTWCPU$
               4 00000018 FFFFFFD4     F   10259 19655  19833  20393  20669  29261  29262M
 COSTWIO       4 0000001C FFFFFFD4     F   10261 11054  19929  20220  29267  29268M
 COSTWIO$      4 00000020 FFFFFFD4     F   10262 19656  19980  20262  20670  29271  29272M
 CP         4096 00000000 FFFFFFEC     J    6192  1167U 23786U 24206U 24360U 25447U 25742U 25949U 26519U 28793U 29040U
                                                 29885U 30215U 30587U
 CP#XSTK       1 00000010 FFFFFFEC A   U    3924  3925
 CPACFLG       1 000005D5 FFFFFFEC     R    4027  4031   4036   4041   4046   4051
 CPACFLN       4 000005C4 FFFFFFEC     F    4019  4054   4054
 CPAFLAG       1 000005C3 FFFFFFEC     R    3991  3995   4000   4005   4010
 CPANAME       8 00000588 FFFFFFEC     C    3973  4069   4069
 CPAUTFLG      1 000008A9 FFFFFFEC     R    4337  4341   4346   4351   4356
 CPCACCT       5 00000C48 FFFFFFEC     C    5002 29406
 CPCHFLAG      1 00000B68 FFFFFFEC     R    4964  4968
 CPCMD       235 00000242 FFFFFFEC     C    2817 29456
 CPCMDLEN      2 00000240 FFFFFFEC     H    2816 29409
 CPCMNM        3 00000D24 FFFFFFEC     C    5290 20610
 CPDFLG        1 0000084C FFFFFFEC     R    4224  4228   4233   4238   4243   4248
 CPDFLG2       1 0000084D FFFFFFEC     R    4253  4257   4262   4267   4272   4277   4282
 CPDOUB        8 00000C88 FFFFFFEC     D    5210 10811  11001  11900  12009  13733  13842  19803  19890  20346  20720
                                                 21052
 CPEXFLG       1 00000758 FFFFFFEC     R    4093  4097
1ACCT     (ACCT2025) (12:39) (15MAR04) Ordinary Symbol and Literal Cross Reference                                          Page  119
 CPEXFLG2      1 00000759 FFFFFFEC     R    4103  4112   4122
 CPEXFLG3      1 0000075A FFFFFFEC     R    4129  4133   4138
 CPEXTFLG      1 00000E28 FFFFFFEC     R    5775  5779   5784   5789   5794   5799   5804
 CPFABORT    128 00000D5A FFFFFFEC         5541  2142M  2142   2147M  2147
 CPFERROR     64 00000D5A FFFFFFEC         5546  2141M  2141   2146M  2146
 CPFFLAT     128 00000B68 FFFFFFEC         4968 24455
 CPFINT       16 00000D58 FFFFFFEC         5511 19647
 CPFNTEX       1 00000040 FFFFFFEC A   U    5393  5394
 CPFRDRNG      1 00000D88 FFFFFFEC     R    5661  5665   5670   5675   5680   5685   5690   5695
 CPFRDSRC      1 00000D89 FFFFFFEC     R    5700  5709   5719   5729
 CPFUNUM       1 00000080 FFFFFFEC A   U    5392  5394
 CPFXDFLG      1 000007E4 FFFFFFEC     R    4171  4175   4180
 CPGFLG1       1 00000474 FFFFFFEC     R    3534  3538   3543   3548   3553   3558   3888   3888
 CPGFLG10      1 0000047D FFFFFFEC     R    3771  3775   3780   3785   3790   3795   3800
 CPGFLG11      1 0000047E FFFFFFEC     R    3806  3810   3815
 CPGFLG12      1 0000047F FFFFFFEC     R    3821  3825   3830   3835
 CPGFLG13      1 00000480 FFFFFFEC     R    3841  3845
 CPGFLG14      1 00000481 FFFFFFEC     R    3851  3855   3860   3865   3870   3875
 CPGFLG4       1 00000477 FFFFFFEC     R    3587  3598   3607   3616   3625   3634
 CPGFLG5       1 00000478 FFFFFFEC     R    3640  3644   3649   3654   3659   3664   3669   3674   3679
 CPGFLG6       1 00000479 FFFFFFEC     R    3685  3689   3694   3699
 CPGFLG7       1 0000047A FFFFFFEC     R    3705  3709   3714   3719   3724
 CPGFLG8       1 0000047B FFFFFFEC     R    3730  3734   3739   3744   3749
 CPGFLG9       1 0000047C FFFFFFEC     R    3755  3759   3765
 CPINIT        1 00000174 FFFFFFEC     U    2704  6161
 CPJESFLG      1 000009E1 FFFFFFEC     R    4436  4440   4445   4450   4455   4460   4465   4470   4475
 CPJESFLY      1 000009FD FFFFFFEC     R    4486  4490   4495   4500
 CPJESHFL      1 000009E0 FFFFFFEC     R    4421  4425   4430   4509   4509
 CPLFLG10      1 00000D59 FFFFFFEC     R    5527  5531
 CPLFLG11      1 00000D5A FFFFFFEC     R    5537  5541   5546   5551   5556
 CPLFLG12      1 00000D5B FFFFFFEC     R    5562  5566
 CPLFLG14      1 00000D5C FFFFFFEC     R    5572  5576   5581   5586   5591   5596
 CPLFLG6       1 00000D55 FFFFFFEC     R    5402  5406   5411   5416   5421   5426   5431
 CPLFLG7       1 00000D56 FFFFFFEC     R    5437  5441   5446   5451   5456   5461
 CPLFLG8       1 00000D57 FFFFFFEC     R    5467  5471   5476   5481   5486
 CPLFLG9       1 00000D58 FFFFFFEC     R    5492  5496   5501   5506   5511   5516   5521
 CPLOCALZ      1 00000C48 FFFFFFEC     U    4994  6155   6155
 CPLWCHAR     16 00000C56 FFFFFFEC     C    5012 22917M 22917  22924
 CPMFLG        1 0000084F FFFFFFEC     R    4291  4295
 CPMODFLG      1 00000C78 FFFFFFEC     R    5022  5026   5031   5036   5041   5046
 CPNAMELN      1 00000010 FFFFFFEC A   U    3917  4164
 CPNEDPFX     10 00000E29 FFFFFFEC     X    5808  5809   5810
 CPNSCANP      4 0000008C FFFFFFEC     A    2577 10381  10388  10404  12231  12238  12254  14156  14163  14178  14253
                                                 14260  14276  15255  15262  15277  15324  15331  15347  16013  16020
                                                 16035  16082  16089  16105  18318  18325  18340  18372
 CPNUMFLG      1 00000C79 FFFFFFEC     R    5052  5064
 CPORVCMD      1 00000140 FFFFFFEC     R    2586  2590   2595   2600   2605   2610   2615   2620   2625   2630   2630
                                                  2681   2681
 CPORVFLG      1 00000149 FFFFFFEC     R    2637  2641   2646   2651   2656   2661   2666   2671   2676
 CPORVWF       1 00000150 FFFFFFEC     R    2689  2693
 CPORVYL       8 000008BC FFFFFFEC     C    4401 10685  10690  10701M 10701
 CPOSCANX      4 00000CA8 FFFFFFEC     F    5221  5288   5288
 CPR          11 0000000B 00000001 A   #    1086  1167U 23786U 24206U 25447U 25742U 26519U 28793U 29040U 30215U 30587U
 CPRACBAD     16 000001FC FFFFFFEC         2755  2789   2789   2790   2790
 CPRACF1       1 000001FC FFFFFFEC     R    2736  2740   2745   2750   2755   2760   2765   2770   2775   2791
 CPRACPSW     32 000001FC FFFFFFEC         2750  2788   2788   2790   2790
 CPRACUND     64 000001FC FFFFFFEC         2745  2788   2788   2789   2789
 CPRCVCUR      4 00000730 FFFFFFEC     A    4072  4074   4074
 CPRFLG        1 000008AA FFFFFFEC     R    4362  4366   4371   4376   4381   4386   4391
1ACCT     (ACCT2025) (12:39) (15MAR04) Ordinary Symbol and Literal Cross Reference                                          Page  120
 CPS         254 00000344 FFFFFFEC     X    3506  3509   3510   3512   3512
 CPSACCT       5 000003B4 FFFFFFEC     C    3105  3268   3268
 CPSAMCOD      1 00000A22 FFFFFFEC     R    4558  4566   4576   4586   4595   4604   4613   4623   4632   4641
 CPSAMFLG      1 00000A21 FFFFFFEC     R    4518  4522   4527   4532   4537   4542   4547   4552   4663   4663
 CPSCNFLG      1 00000CD0 FFFFFFEC     R    5234  5245   5254   5265
 CPSCNF2       1 00000CD1 FFFFFFEC     R    5270  5274
 CPSCNMAX      1 00000014 FFFFFFEC A   U    5286  5287
 CPSCRI        2 00000434 FFFFFFEC     H    3495  3500   3500
 CPSEG        60 00000050 FFFFFFEC     X    2575 10735  10753  10835  10853  10876  10894  10925  10943  11025  11043
                                                 11066  11084  11109  11130  11165  11186  11208  11328  11371  11397
                                                 11433  11454  11479  11499  11517  11615  11643  11661  11689  11724
                                                 11752  11777  11813  11841  11924  11950  12033  12059  12085  12317
                                                 12339  12402  12423  12840  13067  13088  13106  13134  13152  13180
                                                 13198  13241  13267  13287  13305  13448  13476  13494  13522  13557
                                                 13585  13610  13646  13674  13757  13783  13866  13892  13918  14363
                                                 14384  14437  14506  14524  14549  14582  14607  14636  14698  14726
                                                 14766  14784  14809  14842  14867  14896  15434  15455  16192  16213
                                                 18717  18735  18756  18774  18802  18820  18848  18866  18884  18912
                                                 18937  19134  19240  19292  19325  19370  19422  19464  19516  19539
                                                 19710  19740  19827  19914  19944  19974  20004  20034  20064  20094
                                                 20144  20164  20214  20239  20257  20286  20370  20388  20439  20462
                                                 20480  20508  20590  20644  20662  20744  20778  20812  21029  21076
                                                 21094  21203  21233  21251  21281
 CPSEGCOD      1 00000050 FFFFFFEC     R    2492  2501   2511   2521   2531   2541   2551   2561
 CPSEGLENF
               4 0000005C FFFFFFEC     A    2567 20112  20174  20292  20399
 CPSFE         8 0000034C FFFFFFEC     C    2835 25957
 CPSFL         1 00000384 FFFFFFEC     R    2843  2847   2852   2857   2862   2867
 CPSFLEAS    128 00000385 FFFFFFEC         2877 24374  29942
 CPSFLG        1 000003F8 FFFFFFEC     R    3383  3387   3392   3397   3402   3407   3412   3417   3422
 CPSFLG2       1 000003F9 FFFFFFEC     R    3428  3432   3437   3442
 CPSFL2        1 00000385 FFFFFFEC     R    2873  2877   2882   2887   2892
 CPSFL3        1 00000386 FFFFFFEC     R    2898  2902   2907   2912
 CPSFL4        1 00000387 FFFFFFEC     R    2918  2922   2927   2932
 CPSFL5        1 00000388 FFFFFFEC     R    2938  2942   2947   2952
 CPSFNST     128 000003BC FFFFFFEC         3151 19085
 CPSFSPR      32 000003BE FFFFFFEC         3208 12615  14318  15240  15389  16147  18479
 CPSFTEL      64 00000385 FFFFFFEC         2882 24402  24402  24403  30004
 CPSFTYM      32 00000385 FFFFFFEC         2887 24402  24402  30025
 CPSGRP        2 000003B7 FFFFFFEC     C    3107 29891
 CPSKAFL       1 000003BF FFFFFFEC     R    3239  3243   3248   3253   3258   3263  29405
 CPSKIFL       1 000003BE FFFFFFEC     R    3194  3198   3203   3208   3213   3218   3223   3228   3233  29404
 CPSLCLCK      8 000003AC FFFFFFEC     X    3103 30163
 CPSNAME      20 000003C6 FFFFFFEC     C    3275 25955
 CPSOF         1 000001F8 FFFFFFEC     X    2726  2728   2728  24473  25959
 CPSOFLAG      1 00000416 FFFFFFEC     R    3453  3457   3462   3467   3472   3477
 CPSOPST       4 000003C4 FFFFFFEC     F    3273  3502   3502
 CPSPORT       8 00000354 FFFFFFEC     C    2837  2957   2957  25958
 CPSPROJ       8 000003F0 FFFFFFEC     C    3379 29892  29893
 CPSQFLG       1 000003EC FFFFFFEC     R    3302  3306
 CPSSFLG       1 000003BB FFFFFFEC     R    3112  3116   3121   3126   3131   3136   3141
 CPSSFPRT      4 000003BB FFFFFFEC         3141 19064
 CPSSTART      4 00000344 FFFFFFEC     F    2829  2833   2833   3269   3269   3374   3374   3506   3506
 CPSSTAT       1 0000038F FFFFFFEC     R    3049  3053   3058   3063   3068   3073   3078   3083
 CPSTACF       1 000003BC FFFFFFEC     R    3147  3151   3156   3161   3166   3171   3176   3181   3186  29895
 CPSTART       4 00000000 FFFFFFEC     C    2465  6159   6163
 CPSTASYN      2 0000038C FFFFFFEC         2981 29958  30119
 CPSTELF       7 0000038C FFFFFFEC         3031 30140
 CPSTETYP      1 00000392 FFFFFFEC     C    3089 29909  29916
1ACCT     (ACCT2025) (12:39) (15MAR04) Ordinary Symbol and Literal Cross Reference                                          Page  121
 CPSTFLAG      1 000003EA FFFFFFEC     R    3280  3284   3289   3294
 CPSTID        8 000003DA FFFFFFEC     C    3276 29896
 CPSTNSC       6 0000038C FFFFFFEC         3021 30082
 CPSTPDP       3 0000038C FFFFFFEC         2991 29979
 CPSTVIRT      5 0000038C FFFFFFEC         3011 24429  30046
 CPSTYPE       1 0000038C FFFFFFEC     R    2962  2971   2981   2991   3001   3011   3021   3031   3041
 CPSUFLG       1 000003EE FFFFFFEC     R    3317  3321   3326   3331   3336   3341   3346   3351   3356
 CPSUFLG2      1 000003EF FFFFFFEC     R    3362  3366   3371
 CPSUSER       3 000003B4 FFFFFFEC     C    3106 29890
 CPSVPGM       8 0000039C FFFFFFEC     C    3095  3101   3101
 CPS1ST        4 0000038C FFFFFFEC     F    2959  3504   3504
 CPTEMPP#      1 0000005F FFFFFFEC A   U    4412  4414
 CPTRMFL1      1 00000C7A FFFFFFEC     R    5070  5074   5079   5084   5208   5208
 CPTRMFL2      1 00000C7B FFFFFFEC     R    5090  5094   5099   5104   5109   5114   5119
 CPTRMFL3      1 00000C7C FFFFFFEC     R    5125  5129   5134   5139   5144   5149   5154   5159
 CPTRMFL4      1 00000C7D FFFFFFEC     R    5165  5169   5174   5179   5184   5189   5194   5199
 CPUFIX        2 0000270A 00000001     H   22375 13982  21346  22331  22371  25503  26495
 CPUSED        1 00000FBC FFFFFFEC A   U    6159  6160
 CPVACURS      8 00000AF0 FFFFFFEC     D    4937  4938   4939
 CPVCURS       8 00000AE0 FFFFFFEC     D    4931  4932   4933
 CPVFLAG       1 00000AC8 FFFFFFEC     R    4732  4736   4741   4746   4751   4756
 CPVFLAG2      1 00000AC9 FFFFFFEC     R    4762  4766   4771   4776   4781   4786   4791
 CPVFLAG3      1 00000ACA FFFFFFEC     R    4797  4801   4806   4811   4816   4821   4826
 CPVFLAG4      1 00000ACB FFFFFFEC     R    4832  4836   4841   4846
 CPVLFLAG      1 00000ACE FFFFFFEC     R    4901  4905   4910   4915
 CPVMODE       1 00000ACC FFFFFFEC     R    4854  4858   4863   4868   4873   4878   4883   4888   4893
 CPVTWID       2 00000AD0 FFFFFFEC     H    4921  4924   4924
 CPWAPP        8 00000190 FFFFFFEC     C    2707 25956
 CPWCHAR      16 00000448 FFFFFFEC     C    3517 22906
 CPWK1         4 00000D60 FFFFFFEC     F    5605  5620   5643
 CPWK2         4 00000D64 FFFFFFEC     F    5606  5621   5635
 CPWK3         4 00000D68 FFFFFFEC     F    5607  5622   5636
 CPWK4         4 00000D6C FFFFFFEC     F    5608  5623   5637
 CPWK5         4 00000D70 FFFFFFEC     F    5609  5625   5630   5638
 CPWK6         4 00000D74 FFFFFFEC     F    5610  5626   5631   5639   5646   5648
 CPWK7         4 00000D78 FFFFFFEC     F    5611  5624   5640
 CPWPROJ       8 00000188 FFFFFFEC     C    2706 22905
 CPXFLAG       1 000007FD FFFFFFEC     R    4199  4203
 CPXSTATE      4 000007F8 FFFFFFEC     F    4193  4206   4206
 CRBRANCH      1 00000000 00000000 A   T    7887  7887
 CSRTABLE      1 00000000 00000000 A   T    7907  7907
 CSVARMGR      1 00000000 00000000 A   T    7955  7955
 CSVEXIT       1 00000000 00000000 A   T    7828  7828
 CSVLLCB       1 00000000 00000000 A   T    7428  7428
 CSVLLTRM      1 00000000 00000000 A   T    7429  7429
 CSVMEM        1 00000000 00000000 A   T    7656  7656
 CSVVFGET      1 00000000 00000000 A   T    8220  8220
 CSVVFIND      1 00000000 00000000 A   T    8218  8218
 CTAHDRL       1 00000008 FFFFFFD7 A   U   10162 10163  17894  21328
 CTALEN1       1 00000108 FFFFFFD7 A   U   10163 17748
 CTALEN2       1 00000200 FFFFFFD7 A   U   10164 17833
 CTAMAX        1 00001000 FFFFFFD7 A   U   10165 21329
 CTAREA        8 00000000 FFFFFFD7     J   10172 14132U 15209U 15989U 16931U 17187U 17438U 17671U 17889M 17892M 17899
                                                 18063U
 CTAREAL       4 00000000 FFFFFFD7     F   10159 17782M 17827  17834  17889M
 CTARECS       4 00000008 FFFFFFD7     F   10161 14463  17023  17045  17050  17279  17301  17306  17484  17785  17896
                                                 17905  17933  18146  18172
 CTARECSL      4 00000004 FFFFFFD7     F   10160 14464  17486  17784M 17814  17890  17892M 17895  17934  17936  17938M
                                                 18130  18169
1ACCT     (ACCT2025) (12:39) (15MAR04) Ordinary Symbol and Literal Cross Reference                                          Page  122
 CTINDONE      2 00001868 00000001     H   17324 17236B 17259B
 CTMKDONE      2 00001A3E 00000001     H   17960 17722B 17774B 17805B 17852B 17882B 17925B 17957B
 CTOTEXIT      2 00002558 00000001     H   21763 21514B 21539B 21658B 21748B
 CTRCNAME     16 00000000 FFFFFFD8     C   10137 14044  14216  14493  14498  14753  14758  15121  15315  15901  16073
                                                 17514  17786M 17906M 17935M
 CTRCVAL       4 00000010 FFFFFFD8     F   10138 14529  14789  16654  16822  17015M 17270  17272M 17710M 17710  17793M
                                                 17793  17913M 17913  17945M 17945
 CTRCVAL$      4 00000014 FFFFFFD8     F   10139 14554  14587  14814  14847  16823  17016M 17717M 17717  17800M 17800
                                                 17920M 17920  17952M 17952
 CTSTDONE      2 000017CC 00000001     H   17068 16981B 17004B
 CV         4016 00000000 FFFFFFEE     J    2368  1176U
 CVABORT       4 000007DA FFFFFFEE     I    2147 12845B
 CVABSENT      4 000007F0 FFFFFFEE     I    2157 18363B
 CVABSRTN      4 0000088C FFFFFFEE     V    2182  2157
 CVARCLEN      2 00000010 FFFFFFCB     H   21807 21898M 22006
 CVARCOMP     16 00000012 FFFFFFCB     C   21808 21878M 21926M 21939M 22035  22061  22336
 CVARMAT       2 00002604 00000001     H   22083 22008B 22047B
 CVARTYPE     16 00000000 FFFFFFCB     C   21806 21877M 22093  22125  22157  22189  22226  22240
 CVARWA       34 00000000 FFFFFFCB     J   21815 21837  21866U 21876M 21876  22315  22317  22318
 CVBLANKS    235 000004D8 FFFFFFEE     C    1962 11562  13395  16542  19725  19959  20019  20079  20202  20427  21878
                                                 25954  29408  29894  29897  30691  30695  30979  31236  31496  31526
                                                 31557  31955
 CVBRMSK       1 00000751 FFFFFFEE     X    2098  2099   2100
 CVCFLAG       1 00000A00 FFFFFFEE     R    2263  2267   2272   2277   2282   2287
 CVCHKST       8 000009F0 FFFFFFEE     D    2253  2343   2343
 CVCHKST2      8 00000E28 FFFFFFEE     D    2346  2349   2349
 CVCOMRTN      4 0000087C FFFFFFEE     V    2178  2148
 CVCPUMUL      4 00000DFC FFFFFFEE     F    2339 22420M 22420  22453  25969  27167M 27167  27174  27237M 27237  27244
 CVCURJCB      4 000001C8 FFFFFFEE     A    1447 11284  12267  14151  14303  15228  15374  16008  16132  16605  21440
                                                 21941  23069  23172  29115  29121  29127  29483  29672
 CVDBGFLG      1 000004CC FFFFFFEE     R    1952  1956
 CVENT         4 0000074C FFFFFFEE     I    2096 10331B 10550B 10629B 11263B 12181B 12585B 12670B 12749B 12960B 14076B
                                                 15025B 15153B 15685B 15776B 15837B 15933B 16381B 16512B 16767B 16893B
                                                 17149B 17400B 17633B 18034B 18266B 19031B 19597B 20872B 21143B 21419B
                                                 21840B 22389B 22548B 22872B 23423B 23824B 24291B 25555B 25809B 26583B
                                                 26780B 27475B 28832B 29072B 29359B 29561B 29756B 30254B 30643B 30801B
                                                 31108B 31395B 32060B
 CVENTBR       2 00000750 FFFFFFEE     I    2097  2098
 CVERRMSG      4 000007C8 FFFFFFEE     I    2141 12350B 12434B 14210B 14244B 14330B 14395B 14737B 15309B 15401B 15466B
                                                 15501B 16067B 16159B 16224B 16257B
 CVERROR       4 000007D6 FFFFFFEE     I    2146  2162B
 CVEXIRTN      4 0000077C FFFFFFEE     V    2126  2122
 CVFCHRKBPR
               8 000004C9 FFFFFFEE         1867  1883   1883
 CVFCHRKBSE
               4 000004C9 FFFFFFEE         1872  1883   1883
 CVFCHRKCPR
               2 000004C9 FFFFFFEE         1889  1905   1905
 CVFCHRKCSE
               1 000004C9 FFFFFFEE         1894  1905   1905
 CVFCHRUBPR
             128 000004C9 FFFFFFEE         1823  1839   1839
 CVFCHRUBSE
              64 000004C9 FFFFFFEE         1828  1839   1839
 CVFCHRUCPR
              32 000004C9 FFFFFFEE         1845  1861   1861
 CVFCHRUCSE
              16 000004C9 FFFFFFEE         1850  1861   1861
 CVFJCB        4 000001C0 FFFFFFEE     A    1445 12286  12775  15049  15709  16405  18514  23455  25577
1ACCT     (ACCT2025) (12:39) (15MAR04) Ordinary Symbol and Literal Cross Reference                                          Page  123
 CVFL          1 000004C4 FFFFFFEE     R    1619  1623   1628   1633   1638   1643   1648   1653   1658
 CVFL2         1 000004C5 FFFFFFEE     R    1664  1668   1673   1678   1683   1688   1693   1698   1703
 CVFL3         1 000004C6 FFFFFFEE     R    1709  1713   1718   1723   1728   1733   1738   1743   1748
 CVFL4         1 000004C7 FFFFFFEE     R    1754  1758   1763   1768   1773   1778   1783   1788
 CVFL5         1 000004C8 FFFFFFEE     R    1794  1798   1803   1808   1813
 CVFL6         1 000004C9 FFFFFFEE     R    1819  1823   1828   1840   1845   1850   1862   1867   1872   1884   1889
                                                  1894   1906
 CVFNOSMF     32 00000A00 FFFFFFEE         2277 20758  30479
 CVFRLG       16 000004C4 FFFFFFEE         1638 20526  20902  30067
 CVFVISTA    128 000004C8 FFFFFFEE         1798 25909
 CVHEAP#       1 00000200 FFFFFFEE A   U    1525  1526
 CVINVRTN      4 00000888 FFFFFFEE     V    2181  2151
 CVJESFLG      1 000004CA FFFFFFEE     R    1912  1916
 CVLJCB        4 000001C4 FFFFFFEE     A    1446 12298  12866  15062  15722  16418  18963  23731  25697
 CVLNKRGS      4 00000780 FFFFFFEE     F    2128  2103M  2129  23908M 24542M 30327M 30373M
 CVLNKRTN      4 000007B0 FFFFFFEE     U    2129  2118M
 CVLOCK1       1 00000088 FFFFFFEE     R    1270  1274   1279
 CVLOCK2       1 00000089 FFFFFFEE     R    1284  1288
 CVLOCK3       1 0000008A FFFFFFEE     R    1293  1297
 CVLOCK4       1 0000008B FFFFFFEE     R    1302  1306
 CVLOGMOD      1 00000068 FFFFFFEE     R    1257  1261
 CVMACH        1 00000067 FFFFFFEE     R    1217  1221   1226   1231   1236   1241   1246   1251
 CVMACHID      8 0000000C FFFFFFEE     C    1197 20561  20952  30427
 CVMILRTN      4 00000884 FFFFFFEE     V    2180  2160
 CVNASMF       4 000000E0 FFFFFFEE     F    1371 30492  30493M
 CVNEXT        4 000007DE FFFFFFEE     I    2148 10457B 12477B 12882B 14458B 14907B 15246B 15507B 16263B 18980B
 CVNOARTN      4 00000890 FFFFFFEE     V    2183  2154
 CVNSMF        4 000000DC FFFFFFEE     F    1370 30524  30525M
 CVNWDATE      4 00000608 FFFFFFEE     F    1985  1989   1989
 CVNWMPG#      1 00000008 FFFFFFEE A   U    1987  1988
 CVPFXRTN      1 00000000 00000000 A   T    2126  2126
 CVPGFLAG      1 00000A01 FFFFFFEE     R    2293  2297   2302   2307
 CVPIOSZ       1 00004F80 FFFFFFEE A   U    1356  1358
 CVPPDBQH      4 0000009C FFFFFFEE     A    1314  1315
 CVPSFNO       1 000003E9 FFFFFFEE A   N    1478  1480
 CVPSLNO       1 000007CF FFFFFFEE A   N    1479  1480
 CVPXSZ        1 00000008 FFFFFFEE A   U    1357  1358
 CVR          12 0000000C 00000001 A   #    1099  1176U
 CVRKEY        1 00000008 FFFFFFEE A   U    2051  2052
 CVSEGRTN      4 00000880 FFFFFFEE     V    2179  2143
 CVSTACK#      1 00000080 FFFFFFEE A   U    1517  1518
 CVSTART       4 00000000 FFFFFFEE     C    1190  2361
 CVT           1 00000000 FFFFFFE7     J    7398 22948U 29823U
 CVTBRET       2 00000052 FFFFFFE7     H    7453  7966   8045
 CVTPTR        1 00000010 00000001 A   U    7394 22938  29813
 CVTRC         4 00000768 FFFFFFEE     I    2118  2104B 23909B 24543B 30328B 30374B
 CVTRCRTN      4 00000778 FFFFFFEE     V    2125  2119
 CVTSMCA       4 000000C4 FFFFFFE7     A    7572 29829
 CVTUSER       4 000000CC FFFFFFE7     A    7578 22954
 CVTVSTGX      1 00000000 FFFFFFE6     J    8418  8282
 CVTXTNT1      1 00000000 FFFFFFE5     J    8457  7625
 CVTXTNT2      1 00000000 FFFFFFE4     J    8465  7695   8621
 CVT4MS1       1 00000010 FFFFFFE7 A   U    7478  7486
 CVT6DAT       1 00000002 FFFFFFE7 A   U    7482  7486
 CVUPPTBL      4 000008A8 FFFFFFEE     V    2188 16601  21938  31617
 CVUSFNO       1 00000001 FFFFFFEE A   N    1485  1487
 CVUSLNO       1 000003E7 FFFFFFEE A   N    1486  1487
 CVVOL#        1 00000005 FFFFFFEE A   U    2336  2337
 CVWTOFLG      1 000004CB FFFFFFEE     R    1922  1926   1931   1936   1941   1946
1ACCT     (ACCT2025) (12:39) (15MAR04) Ordinary Symbol and Literal Cross Reference                                          Page  124
 CVWYLSSN      8 00000028 FFFFFFEE     C    1202 10912  10917  30161
 DBID          8 00000000 FFFFFFC7     C   25774 25854M 25937
 DBMAXLN#      1 00007C00 FFFFFFC7 A   U   25777 26483  26497
 DBWA         12 00000000 FFFFFFC7     J   25784 25806  25835U 26467  26469  26470
 DBWLEN        4 00000008 FFFFFFC7     F   25775 25861M 25861  26166M 26296  26298M 26334  26336  26344  26346M 26371
                                                 26410
 DCSMFMIL     98 00000064 FFFFFFC6     X   26747 27122  27123M 27215  27263  27270
 DCSMFORV     98 000000C8 FFFFFFC6     X   26749 27128  27129M 27221  27307  27314
 DCSMFWYL     98 00000000 FFFFFFC6     X   26745 26849  26850  26851  27123  27129  27151  27285  27292
 DCWA        298 00000000 FFFFFFC6     J   26756 26777  26806U 26845M 26845  26846M 26846  27348  27350  27351
 DEBUGSG       1 00000000 00000000 A   T    2079  2079
 DEV          12 00000000 FFFFFFEB     J    4717  4725
 DEVMAX#       1 00000002 FFFFFFEC A   U    4668  4725
 DEVTYPE       1 00000001 FFFFFFEB     R    4685  4694   4704
 DFAIDTAB      1 00000000 00000000 A   T    8295  8295
 DISPCOST      2 00001E28 00000001     H   19583 19092B 19579
 DISPCXIT      2 000021C0 00000001     H   20800 20104B
 DISPDOL       2 000021DA 00000001     H   20858 20171B 20265B 20396B 20487B
 DISPDOLI      2 00002278 00000001     H   21129 19660B 19748B 19835B 19922B 19982B 20042B 20102B
 DISPLGF       2 00001CDE 00000001     H   19017 19013
 DISPLXIT      2 00001E1A 00000001     H   19547 19067B 19093B
 DISPSC        2 0000080C 00000001     H   12944 12467B 14000
 DOBILL        2 00002FB2 00000001     H   25793 21336  25789  26482
 DOCOMP        2 00003306 00000001     H   26764 26682B
 DOTTBL        1 00000000 00000000 A   T    2195  2195
 DOWNBILL      2 00002F42 00000001     H   25541 25537
 DRENCFLG      1 00000F9F FFFFFFEC     R    6123  6127   6132   6137   6142   6147
 DRENPROT      1 00000F9E FFFFFFEC     R    6110  6118
 DSCFLAG       1 00000000 FFFFFFD1     R   12923 12927
 DSCFSYS     128 00000000 FFFFFFD1        12927 13017M 13367
 DSCWA         1 00000000 FFFFFFD1     J   12936 12957  12986U 12996M 13962  13964  13965
 DSNON        40 00000E90 FFFFFFEC     C    5843  5844
 DSNWADSN     44 00000E5C FFFFFFEC     C    5830  5831   5832   5833   5842   5850   6081   6087   6089   6095   6098
                                                  6100   6103   6152
 DSNWAF4       1 00000F37 FFFFFFEC     R    5898  5902   5907   5912   5917   5922   5927   5932   5937
 DSNWAF5       1 00000F38 FFFFFFEC     R    5943  5947   5952   5957   5962   5967   5972   5977   5982
 DSNWAF6       1 00000F39 FFFFFFEC     R    5988  5992   5997   6002   6007   6012   6017   6022   6027
 DSNWAF7       1 00000F3A FFFFFFEC     R    6033  6037   6042   6047   6052
 DSNXG         1 00000004 FFFFFFEC A   U    5835  5837
 DSNXGL        1 00000003 FFFFFFEC A   U    5836  5837
 DSNXU         1 00000007 FFFFFFEC A   U    5837  5839
 DSNXUL        1 00000004 FFFFFFEC A   U    5838  5839
 DSSIZ         1 00000108 FFFFFFEC A   U    6081  6089   6098   6103
 EBCTBL        1 00000000 00000000 A   T    2191  2191
 EBCTBL7       1 00000000 00000000 A   T    2194  2194
 ECBLIST       1 00000000 00000000 A   T    2054  2054
 EPARTBL       1 00000000 00000000 A   T    2186  2186
 FMBRANCH      1 00000000 00000000 A   T    8071  8071
 FMTCLCK       1 00000000 0000001C     T   23340 23340
 FMTTIME       1 00000000 0000000E     T   13989 13989  21352
 FMTXDATE      1 00000000 00000010     T   13993 13993
 FREEBILL      2 000039DC 00000001     H   28818 28814
 FREECORE      1 00000000 00000016     T   21327 21327  32228
 FSR           0 00000000 00000001 A   #    1009 10325  10477M 10545  10591M 10624  11233M 11258  12120M 12175  12497M
                                                 12580  12645M 12665  12711M 12744  12898M 12954  13962M 14070  14927M
                                                 15020  15091M 15147  15527M 15680  15751M 15771  15812M 15832  15873M
                                                 15927  16283M 16376  16447M 16506  16684M 16762  16825M 16850M 16888
                                                 17083M 17144  17339M 17395  17548M 17572M 17628  17975M 18029  18103M
                                                 18151M 18180M 18200M 18260  19001M 19026  19559M 19592  20831M 20867
1ACCT     (ACCT2025) (12:39) (15MAR04) Ordinary Symbol and Literal Cross Reference                                          Page  125
                                                 21118M 21138  21302M 21414  21780M 21834  22315M 22384  22498M 22543
                                                 22797M 22866  23324M 23417  23772M 23819  24192M 24285  25433M 25550
                                                 25728M 25803  26467M 26578  26715M 26774  27348M 27469  28680M 28827
                                                 29026M 29067  29325M 29354  29527M 29556  29714M 29751  30201M 30249
                                                 30573M 30637  30761M 30795  31038M 31066M 31102  31295M 31323M 31389
                                                 31992M 32054  32213M
 GETACCT       2 00004056 00000001     H   31379 31375  32252
 GETADATA    332 0000000C FFFFFFC3     X   31362 31542  31865  31870  31892
 GETAEXIT      2 000041DA 00000001     H   31972 31964B 31969B
 GETALEN       4 00000004 FFFFFFC3     F   31360 31435M 31654
 GETALOC       4 00000000 FFFFFFC3     F   31359 31434M
 GETARETN      4 00000008 FFFFFFC3     F   31361 31436M
 GETAWA      344 00000000 FFFFFFC3     J   31369 31392  31421U 31432M 31432  31433M 31433  31992  31994  31995
 GETCNEXT      4 00003B50 00000001     I   29294 29237B
 GETCORE       1 00000000 00000015     T   21326 21326  23341  25489
 GETCOST       2 00003A64 00000001     H   29058 13979  21341
 GETCPU        1 00000000 0000001B     T   22330 22330
 GETCTOT       2 00002486 00000001     H   21405 21401
 GETCVAR       2 00002566 00000001     H   21824 21820
 GETUID        2 00003F32 00000001     H   30785 30781
 GETUIDL       2 00003FD6 00000001     H   31092 31088
 GETUPTRS      4 00000000 FFFFFFC4     A   30611 30674M 30711  30736  30831M 30952  30991  31138M 31209  31248
 GETUREQ     332 00000008 FFFFFFC4     X   30612 30673  30676  30705  30710  30737  30832  30837  31139  31144
 GETUWA      340 00000000 FFFFFFC4     J   30619 30640  30669U 30761  30763  30764  30798  30827U 31066  31068  31069
                                                 31105  31134U 31323  31325  31326
 GETWCNT       2 00001566 00000001     H   16496 16492
 GLBRANCH      1 00000000 00000000 A   T    7977  7977
 GMBRANCH      1 00000000 00000000 A   T    8073  8073
 GOTAACCT      2 000041CC 00000001     H   31959 31501B 31531B 31956B
 GTUIDREC      2 00003EBC 00000001     H   30627 32248
 GVT           1 00000000 00000000 A   T    7839  7839
 HIBAL         1 00000000 FFFFFFFF     J     691   707    720    733    746    759    772    785    798    811    824
                                                   837    850    863    876    889    902
 HSPFMIL       1 00000080 FFFFFFE3 A   U    8549  8553   8554
 HSPFORV       1 00000020 FFFFFFE3 A   U    8551  8553
 HSPFORVR      1 00000010 FFFFFFE3 A   U    8552  8554
 HSPFWYL       1 00000040 FFFFFFE3 A   U    8550  8553   8554
 IARMPVT       1 00000000 00000000 A   T    7714  7714
 IARMRRCE      1 00000000 00000000 A   T    8259  8259
 IARPIBR       1 00000000 00000000 A   T    8229  8229
 IARPSIV       1 00000000 00000000 A   T    8053  8053
 IARPSXM       1 00000000 00000000 A   T    8202  8202
 IARXKEY       1 00000000 00000000 A   T    8160  8160
 IARXVIO       1 00000000 00000000 A   T    8054  8054
 ICYMMVTC      1 00000000 00000000 A   T    8485  8485
 IDA121CV      1 00000000 00000000 A   T    7992  7992
 IEABEND       1 00000000 00000000 A   T    7576  7576
 IEADQIQE      1 00000000 00000000 A   T    7972  7972
 IEAECVT       1 00000000 00000000 A   T    7501  7501
 IEAGSMQ       1 00000000 00000000 A   T    7949  7949
 IEAIHASU      1 00000000 00000000 A   T    8189  8189
 IEALSMQ       1 00000000 00000000 A   T    7951  7951
 IEAMASCB      1 00000000 00000000 A   T    7919  7919   7923
 IEAPATCH      1 00000000 00000000 A   T    7584  7584
 IEAPDSRT      1 00000000 00000000 A   T    7847  7847
 IEAPTRV       1 00000000 00000000 A   T    7663  7663
 IEAQCDSR      1 00000000 00000000 A   T    7567  7567
 IEAQCS01      1 00000000 00000000 A   T    7959  7959
 IEAQLPAQ      1 00000000 00000000 A   T    7568  7568
1ACCT     (ACCT2025) (12:39) (15MAR04) Ordinary Symbol and Literal Cross Reference                                          Page  126
 IEAQTD00      1 00000000 00000000 A   T    7464  7464
 IEAQTE00      1 00000000 00000000 A   T    7462  7462
 IEARPOST      1 00000000 00000000 A   T    7974  7974
 IEASMFEX      1 00000000 00000000 A   T    7851  7851
 IEASMFSP      1 00000000 00000000 A   T    8197  8197
 IEASPOST      1 00000000 00000000 A   T    7994  7994
 IEASVDCB      1 00000000 00000000 A   T    7455  7455
 IEATCBP       1 00000000 00000000 A   T    7405  7405
 IEATPC        1 00000000 00000000 A   T    7457  7457
 IEATRSCN      1 00000000 00000000 A   T    7815  7815
 IEAVAR02      1 00000000 00000000 A   T    7899  7899
 IEAVBLDP      1 00000000 00000000 A   T    7883  7883
 IEAVDELP      1 00000000 00000000 A   T    7886  7886
 IEAVEAC0      1 00000000 00000000 A   T    7976  7976
 IEAVEADV      1 00000000 00000000 A   T    8134  8134
 IEAVEDR1      1 00000000 00000000 A   T    8019  8019
 IEAVELRM      1 00000000 00000000 A   T    7968  7968
 IEAVENLU      1 00000000 00000000 A   T    8315  8315
 IEAVENQ2      1 00000000 00000000 A   T    7965  7965
 IEAVEQV1      1 00000000 00000000 A   T    8122  8122
 IEAVEQV2      1 00000000 00000000 A   T    8125  8125
 IEAVEQV3      1 00000000 00000000 A   T    8128  8128
 IEAVERI1      1 00000000 00000000 A   T    8021  8021
 IEAVERP1      1 00000000 00000000 A   T    8023  8023
 IEAVERX1      1 00000000 00000000 A   T    8211  8211
 IEAVESC1      1 00000000 00000000 A   T    8150  8150
 IEAVESPR      1 00000000 00000000 A   T    8079  8079
 IEAVESTU      1 00000000 00000000 A   T    8313  8313
 IEAVESVT      1 00000000 00000000 A   T    8085  8085
 IEAVET6E      1 00000000 00000000 A   T    8185  8185
 IEAVEVT2      1 00000000 00000000 A   T    8139  8139
 IEAVEXPR      1 00000000 00000000 A   T    7947  7947
 IEAVEXP1      1 00000000 00000000 A   T    8116  8116
 IEAVFRCL      1 00000000 00000000 A   T    7885  7885
 IEAVGSDA      1 00000000 00000000 A   T    8130  8130
 IEAVGTCL      1 00000000 00000000 A   T    7884  7884
 IEAVGWSA      1 00000000 00000000 A   T    7979  7979
 IEAVLKRM      1 00000000 00000000 A   T    7686  7686
 IEAVMFRM      1 00000000 00000000 A   T    8064  8064
 IEAVMSGS      1 00000000 00000000 A   T    7633  7633
 IEAVNVT0      1 00000000 00000000 A   T    8298  8298
 IEAVRSUH      1 00000000 00000000 A   T    8177  8177
 IEAVRT03      1 00000000 00000000 A   T    7791  7791
 IEAVSPND      1 00000000 00000000 A   T    8187  8187
 IEAVSTAG      1 00000000 00000000 A   T    7927  7927
 IEAVTCTL      1 00000000 00000000 A   T    8179  8179
 IEAVTEST      1 00000000 00000000 A   T    7690  7690
 IEAVTRGR      1 00000000 00000000 A   T    7987  7987
 IEAVTRG1      1 00000000 00000000 A   T    7436  7436
 IEAVTRV3      1 00000000 00000000 A   T    7683  7683
 IEAVTSBP      1 00000000 00000000 A   T    7933  7933
 IEAVTSFR      1 00000000 00000000 A   T    7654  7654
 IEAVTSGL      1 00000000 00000000 A   T    7931  7931
 IEAVVMSR      1 00000000 00000000 A   T    7712  7712
 IEAVWAIT      1 00000000 00000000 A   T    7954  7954
 IEAVWSAC      1 00000000 00000000 A   T    7985  7985
 IEAVWSAG      1 00000000 00000000 A   T    7983  7983
 IEAVWSAL      1 00000000 00000000 A   T    7981  7981
 IEAVXEXT      1 00000000 00000000 A   T    8062  8062
1ACCT     (ACCT2025) (12:39) (15MAR04) Ordinary Symbol and Literal Cross Reference                                          Page  127
 IEAVXSFT      1 00000000 00000000 A   T    8029  8029
 IEAVXSTN      1 00000000 00000000 A   T    8035  8035
 IEAVXSTS      1 00000000 00000000 A   T    8033  8033
 IEAVXUNN      1 00000000 00000000 A   T    8058  8058
 IEAVXUNS      1 00000000 00000000 A   T    8037  8037
 IEAWTCB       1 00000000 00000000 A   T    8094  8094
 IEA0DS        1 00000000 00000000 A   T    7500  7500
 IEA0EF00      1 00000000 00000000 A   T    7406  7406
 IEA0EF01      1 00000000 00000000 A   T    7446  7446
 IEA0PT0E      1 00000000 00000000 A   T    8166  8166
 IEA0PT01      1 00000000 00000000 A   T    7507  7507
 IEA0PT02      1 00000000 00000000 A   T    8091  8091
 IEA0PT03      1 00000000 00000000 A   T    8168  8168
 IEA0VL00      1 00000000 00000000 A   T    7417  7417
 IEA0VL01      1 00000000 00000000 A   T    7824  7824
 IECIXAVL      1 00000000 00000000 A   T    7492  7492
 IECPCNVT      1 00000000 00000000 A   T    7420  7420
 IECPRLTV      1 00000000 00000000 A   T    7424  7424
 IECVEXCL      1 00000000 00000000 A   T    8056  8056
 IECXAPG       1 00000000 00000000 A   T    7415  7415
 IECXITP       1 00000000 00000000 A   T    7445  7445
 IECXTLER      1 00000000 00000000 A   T    7431  7431
 IEC0SCR1      1 00000000 00000000 A   T    7590  7590
 IEECUCB       1 00000000 00000000 A   T    7461  7461
 IEEMSER       1 00000000 00000000 A   T    7439  7439   7505
 IEEVEXSN      1 00000000 00000000 A   T    7794  7794
 IEEVSTOP      1 00000000 00000000 A   T    8104  8104
 IEFAQTOP      1 00000000 00000000 A   T    7911  7911
 IEFAUSDM      1 00000000 00000000 A   T    7411  7411
 IEFENFDM      1 00000000 00000000 A   T    7570  7570
 IEFJESCT      1 00000000 00000000 A   T    7670  7670
 IEFLINK       1 00000000 00000000 A   T    7408  7408
 IEFQMWR       1 00000000 00000000 A   T    7521  7521
 IEWFBOSV      1 00000000 00000000 A   T    7498  7498
 IEWMSEPT      1 00000000 00000000 A   T    8003  8003
 IFBDCB        1 00000000 00000000 A   T    7487  7487
 IFDOLT0A      1 00000000 00000000 A   T    7849  7849
 IFGDEBVR      1 00000000 00000000 A   T    8480  8480
 IGC043BR      1 00000000 00000000 A   T    7895  7895
 IGC044R2      1 00000000 00000000 A   T    8005  8005
 IGC062R1      1 00000000 00000000 A   T    7975  7975
 IGC07903      1 00000000 00000000 A   T    8120  8120
 IGC124        1 00000000 00000000 A   T    8136  8136
 IGFRVT        1 00000000 00000000 A   T    7585  7585
 IGVCPBDB      1 00000000 00000000 A   T    8251  8251
 IGVCPDLB      1 00000000 00000000 A   T    8253  8253
 IGVCPFRE      1 00000000 00000000 A   T    8243  8243
 IGVCPGTC      1 00000000 00000000 A   T    8241  8241
 IGVCPGUB      1 00000000 00000000 A   T    8235  8235
 IGVCPGUP      1 00000000 00000000 A   T    8238  8238
 IGVCPGUS      1 00000000 00000000 A   T    8261  8261
 IGVGCAS       1 00000000 00000000 A   T    7889  7889
 IGVGFAS       1 00000000 00000000 A   T    7893  7893
 IGVGRRGN      1 00000000 00000000 A   T    8265  8265
 IGVGVRGN      1 00000000 00000000 A   T    8267  8267
 IGVQSPET      1 00000000 00000000 A   T    7891  7891
 IGVSLIST      1 00000000 00000000 A   T    8245  8245
 IGVSLOC       1 00000000 00000000 A   T    8249  8249
 IGVSREGN      1 00000000 00000000 A   T    8247  8247
1ACCT     (ACCT2025) (12:39) (15MAR04) Ordinary Symbol and Literal Cross Reference                                          Page  128
 IGVSTSKI      1 00000000 00000000 A   T    8232  8232
 IHB13552A
               2 00003EAC 00000001     H   30547 30543B
 ILRJTERM      1 00000000 00000000 A   T    8174  8174
 INVALID       1 00000000 00000000 A   T    2181  2181
 IOSVDEVN      1 00000000 00000000 A   T    8191  8191
 IOSVHID       1 00000000 00000000 A   T    8201  8201
 IOSVSUCB      1 00000000 00000000 A   T    8204  8204
 IRARMCNS      1 00000000 00000000 A   T    7945  7945
 IRARMEPS      1 00000000 00000000 A   T    8163  8163
 IRARMI00      1 00000000 00000000 A   T    7902  7902
 ISNBRNCH      1 00000000 00000000 A   T    8060  8060
 JCB         208 00000000 FFFFFFE0     J    9696 11294U 11301  11307  12369U 12465  12791U 13033U 13040  13046  14009
                                                 14141U 15047  15218U 15707  15998U 16403  16940U 17196U 17447U 17680U
                                                 18072U 18530U 18687  21450U 21951U 21959  23079U 23471U 23591  23855U
                                                 24339U 25403U 25593U 25670  25849U 25892  26337  26372  26421  28863U
                                                 29137U 29787U
 JCBACCT       5 0000004A FFFFFFE0     C    9458 12805M 12805  18577M 18577  23503M 23503  25622M 25622
 JCBAFL        1 00000062 FFFFFFE0     R    9541  9545   9550   9555   9560   9565   9570   9575   9580
 JCBBFL        1 00000063 FFFFFFE0     R    9586  9590   9595   9600   9605   9610   9615   9620
 JCBBILL      32 00000088 FFFFFFE0     X    9679 29005M 29005
 JCBBILLX      8 00000088 FFFFFFE0     D    9671  9679   9679
 JCBCPX        4 00000014 FFFFFFE0     A    9438 24350  25939  29875
 JCBCTP        4 000000A8 FFFFFFE0     F    9681 14443  17022  17278  17453  17741  17747  17780M 17813  17887M 17904
                                                 18077  28964  28987M 28987
 JCBFBILLED
               2 00000063 FFFFFFE0         9620 18558
 JCBGRP        2 0000004D FFFFFFE0     C    9460 13121  13126  18789  18794
 JCBIECLK      8 00000088 FFFFFFE0     D    9672 24007  24010  24088M
 JCBITIO       4 00000090 FFFFFFE0     F    9673 23953  23976M
 JCBNEXT       4 000000D0 FFFFFFE0     F    9689 12850  18947  23715  25681
 JCBRSCF1      1 00000064 FFFFFFE0     R    9626  9630   9635   9640
 JCBSEQ        2 00000048 FFFFFFE0     H    9457 12411  13076  14372  15443  16201  18744
 JCBSFLG1      1 00000065 FFFFFFE0     R    9646  9650   9655
 JCBSINP       4 00000038 FFFFFFE0     A    9451 11333  13203  18608  21565  21684  23522M 23522  23919  25641M 25641
                                                 25921  26001
 JCBUCEP       4 00000070 FFFFFFE0     A    9663 11581  13381  13414  18596M 18596  22075  23103  23220M 23292M 23534
                                                 23635M 23707M 23861  25660M 25660  28882M 28882
 JCBUCEQH      4 00000074 FFFFFFE0     A    9664 11485  13273  21972  23182  23260M 23260  23266M 23597  23675M 23675
                                                 23681M 24487  26186  28870  28877M 28877  29143
 JCBUCEQT      4 00000078 FFFFFFE0     A    9665 23267M 23284  23286M 23682M 23699  23701M
 JCBUSER       3 0000004A FFFFFFE0     C    9459 13167  13172  18835  18840
 JCBVICPU      4 00000094 FFFFFFE0     F    9674 24100  24123M
 JCBVIDIO      4 00000098 FFFFFFE0     F    9675 24135  24158M
 JCBWCPU       4 0000007C FFFFFFE0     F    9667 21478  26140
 JCBWFL        1 00000060 FFFFFFE0     R    9470  9474   9479   9484   9489   9494   9499   9504   9509   9537
 JCBWFSO     128 00000060 FFFFFFE0         9474 12383  14344  15415  16173  18543  23484  25606
 JCBWIO        4 00000080 FFFFFFE0     F    9668 21538  26141
 JCBWWFL       1 00000061 FFFFFFE0     R    9515  9519   9524   9529   9534
 KEYGET        1 00000000 0000001E     T   32247 32247
 KWIO          1 00000000 00000020     T   32253 32253
 KWR         504 00000000 FFFFFFE1     J    9416 32028  32098U 32124M 32124  32125M 32125  32192M 32192  32193M 32193
 KWRCRD        1 00000040 FFFFFFE1 A   U    9408 32136
 KWRDSTRT      1 00000005 FFFFFFE1     U    9227  9389   9389
 KWRGRP        2 00000003 FFFFFFE1     C    9224 32127M
 KWRIFL        1 0000000E FFFFFFE1     X    9233 32151
 KWRIFVAL      1 00000080 FFFFFFE1 A   U    9234 32149
 KWRSTART      4 00000000 FFFFFFE1     F    9222  9403
 KWRUSER       3 00000000 FFFFFFE1     C    9223  9225   9225  32126M
1ACCT     (ACCT2025) (12:39) (15MAR04) Ordinary Symbol and Literal Cross Reference                                          Page  129
 LOCALTOD      1 00000000 0000000F     T   13992 13992  25491  26490  32239
 LOGKWR        2 00003B66 00000001     H   29345 29341
 LOWTBL        1 00000000 00000000 A   T    2189  2189
 LRTRIM        1 00000000 0000001F     T   32249 32249
 LSR           8 00000008 00000001 A   #    1047 10325  10477M 10545  10591M 10624  11233M 11258  12120M 12175  12497M
                                                 12580  12645M 12665  12711M 12744  12898M 12954  13962M 14070  14927M
                                                 15020  15091M 15147  15527M 15680  15751M 15771  15812M 15832  15873M
                                                 15927  16283M 16376  16447M 16506  16684M 16762  16850M 16888  17083M
                                                 17144  17339M 17395  17572M 17628  17975M 18029  18200M 18260  19001M
                                                 19026  19559M 19592  20831M 20867  21118M 21138  21302M 21414  21780M
                                                 21834  22315M 22384  22498M 22543  22797M 22866  23324M 23417  23772M
                                                 23819  24192M 24285  25433M 25550  25728M 25803  26467M 26578  26715M
                                                 26774  27348M 27469  28680M 28827  29026M 29067  29325M 29354  29527M
                                                 29556  29714M 29751  30201M 30249  30573M 30637  30761M 30795  31066M
                                                 31102  31323M 31389  31992M 32054  32213M
 MALL          1 00000000 00000004     T   10529 10529  12564  15004  15664  16360
 MILERR        1 00000000 00000000 A   T    2180  2180
 MINT          1 00000000 00000006     T   12519 12519
 MPINT         1 00000000 00000013     T   14974 14974  15574  15589  15604  15619  15634  16330
 MTOKEN        1 00000000 00000002     T   10499 10499  12534
 NBLTBL        1 00000000 00000000 A   T    2193  2193
 NOACTION      1 00000000 00000000 A   T    2183  2183
 NOTAACCT      2 000041D2 00000001     H   31967 31677B 31698B 31711B 31831B 31886B 31933B 31946B
 NOTVALID      1 00000000 00000005     T   10530 10530  12565  13998  15005  15665  16361  16710  21334
 NPARTBL       1 00000000 00000000 A   T    2187  2187
 NSCAN         1 00000000 00000007     T   13977 13977  16700  21331
 NSCNCB      176 00000000 FFFFFFED     J    2452  2578  10389  10390  10391  10394M 10395M 10397M 10407M 10408M 10409M
                                                 12239  12240  12241  12244M 12245M 12247M 12257M 12258M 12259M 14164
                                                 14165  14166  14169M 14170M 14171M 14181M 14182M 14183M 14261  14262
                                                 14263  14266M 14267M 14269M 14279M 14280M 14281M 15263  15264  15265
                                                 15268M 15269M 15270M 15280M 15281M 15282M 15332  15333  15334  15337M
                                                 15338M 15340M 15350M 15351M 15352M 16021  16022  16023  16026M 16027M
                                                 16028M 16038M 16039M 16040M 16090  16091  16092  16095M 16096M 16098M
                                                 16108M 16109M 16110M 18326  18327  18328  18331M 18332M 18333M 18343M
                                                 18344M 18345M
 NSCNFLGS      1 00000008 FFFFFFED     R    2389  2393   2398
 NSCNKWS       4 00000028 FFFFFFED     A    2438 10389  10397M 10407M 12239  12247M 12257M 14164  14171M 14181M 14261
                                                 14269M 14279M 15263  15270M 15280M 15332  15340M 15350M 16021  16028M
                                                 16038M 16090  16098M 16108M 18326  18333M 18343M
 NSCNSKIP      4 00000024 FFFFFFED     A    2437 10390  10394M 10408M 12240  12244M 12258M 14165  14169M 14182M 14262
                                                 14266M 14280M 15264  15268M 15281M 15333  15337M 15351M 16022  16026M
                                                 16039M 16091  16095M 16109M 18327  18331M 18344M
 NSCNSTOP      4 00000020 FFFFFFED     A    2436 10391  10395M 10409M 12241  12245M 12259M 14166  14170M 14183M 14263
                                                 14267M 14281M 15265  15269M 15282M 15334  15338M 15352M 16023  16027M
                                                 16040M 16092  16096M 16110M 18328  18332M 18345M
 NSCNTYPE      1 00000018 FFFFFFED     R    2407  2411   2416   2421   2426   2431
 OLDBILL       2 000032A6 00000001     H   26569 26423B
 PDBBYT1       1 0000000E FFFFFFE8     X    7040  7072
 PDBBYT2       1 0000000F FFFFFFE8     X    7041  7078
 PDBCMDFL      1 00000007 FFFFFFE8     X    7028  7064   7064   7070
 PDBINCT       2 00000030 FFFFFFE8     H    7058  7062   7062
 PDBSINP       4 00000010 FFFFFFE8     A    7043  7044
 PDBSTRT       4 00000000 FFFFFFE8     F    7020  7065   7065
 PDBVPGM       8 00000014 FFFFFFE8     C    7046  7052   7052
 RAR          14 0000000E 00000001 A   #    1125  2118   2119M  2120B  2122M  2123B  2143M  2144B  2148M  2149B  2151M
                                                  2152B  2154M  2155B  2157M  2158B  2160M  2161M  2161B  2167  10322
                                                 10400M 10401M 10401B 10414M 10415M 10415B 10434M 10452M 10479M 10482B
                                                 10542  10593M 10596B 10621  10672M 10673M 10673B 10738M 10739M 10739B
                                                 10756M 10757M 10757B 10762M 10763M 10763B 10814M 10815M 10815B 10838M
1ACCT     (ACCT2025) (12:39) (15MAR04) Ordinary Symbol and Literal Cross Reference                                          Page  130
                                                 10839M 10839B 10856M 10857M 10857B 10879M 10880M 10880B 10897M 10898M
                                                 10898B 10928M 10929M 10929B 10946M 10947M 10947B 10952M 10953M 10953B
                                                 11004M 11005M 11005B 11028M 11029M 11029B 11046M 11047M 11047B 11069M
                                                 11070M 11070B 11087M 11088M 11088B 11112M 11113M 11113B 11133M 11134M
                                                 11134B 11141M 11142M 11142B 11168M 11169M 11169B 11189M 11190M 11190B
                                                 11211M 11212M 11212B 11235M 11238B 11255  11304M 11305M 11305B 11310M
                                                 11311M 11311B 11331M 11332M 11332B 11374M 11375M 11375B 11400M 11401M
                                                 11401B 11405M 11406M 11406B 11412M 11413M 11413B 11436M 11437M 11437B
                                                 11457M 11458M 11458B 11482M 11483M 11483B 11502M 11503M 11503B 11520M
                                                 11521M 11521B 11618M 11619M 11619B 11646M 11647M 11647B 11664M 11665M
                                                 11665B 11692M 11693M 11693B 11727M 11728M 11728B 11755M 11756M 11756B
                                                 11780M 11781M 11781B 11789M 11790M 11790B 11816M 11817M 11817B 11844M
                                                 11845M 11845B 11850M 11851M 11851B 11903M 11904M 11904B 11927M 11928M
                                                 11928B 11953M 11954M 11954B 11959M 11960M 11960B 12012M 12013M 12013B
                                                 12036M 12037M 12037B 12062M 12063M 12063B 12088M 12089M 12089B 12122M
                                                 12125B 12172  12250M 12251M 12251B 12264M 12265M 12265B 12320M 12321M
                                                 12321B 12342M 12343M 12343B 12405M 12406M 12406B 12426M 12427M 12427B
                                                 12467M 12499M 12502B 12577  12624M 12625M 12625B 12647M 12650B 12662
                                                 12713M 12716B 12741  12772M 12773M 12773B 12818M 12819M 12819B 12843M
                                                 12844M 12844B 12900M 12903B 12951  13043M 13044M 13044B 13049M 13050M
                                                 13050B 13070M 13071M 13071B 13091M 13092M 13092B 13109M 13110M 13110B
                                                 13137M 13138M 13138B 13155M 13156M 13156B 13183M 13184M 13184B 13201M
                                                 13202M 13202B 13244M 13245M 13245B 13270M 13271M 13271B 13290M 13291M
                                                 13291B 13308M 13309M 13309B 13451M 13452M 13452B 13479M 13480M 13480B
                                                 13497M 13498M 13498B 13525M 13526M 13526B 13560M 13561M 13561B 13588M
                                                 13589M 13589B 13613M 13614M 13614B 13622M 13623M 13623B 13649M 13650M
                                                 13650B 13677M 13678M 13678B 13683M 13684M 13684B 13736M 13737M 13737B
                                                 13760M 13761M 13761B 13786M 13787M 13787B 13792M 13793M 13793B 13845M
                                                 13846M 13846B 13869M 13870M 13870B 13895M 13896M 13896B 13921M 13922M
                                                 13922B 13964M 13967B 14067  14174M 14175M 14175B 14188M 14189M 14189B
                                                 14272M 14273M 14273B 14286M 14287M 14287B 14366M 14367M 14367B 14387M
                                                 14388M 14388B 14440M 14441M 14441B 14509M 14510M 14510B 14527M 14528M
                                                 14528B 14552M 14553M 14553B 14585M 14586M 14586B 14610M 14611M 14611B
                                                 14639M 14640M 14640B 14669M 14670M 14670B 14701M 14702M 14702B 14729M
                                                 14730M 14730B 14769M 14770M 14770B 14787M 14788M 14788B 14812M 14813M
                                                 14813B 14845M 14846M 14846B 14870M 14871M 14871B 14899M 14900M 14900B
                                                 14929M 14932B 15017  15071M 15072M 15072B 15093M 15096B 15144  15273M
                                                 15274M 15274B 15287M 15288M 15288B 15343M 15344M 15344B 15357M 15358M
                                                 15358B 15437M 15438M 15438B 15458M 15459M 15459B 15482M 15483M 15483B
                                                 15529M 15532B 15677  15731M 15732M 15732B 15753M 15756B 15768  15814M
                                                 15817B 15829  15875M 15878B 15924  16031M 16032M 16032B 16045M 16046M
                                                 16046B 16101M 16102M 16102B 16115M 16116M 16116B 16195M 16196M 16196B
                                                 16216M 16217M 16217B 16238M 16239M 16239B 16285M 16288B 16373  16427M
                                                 16428M 16428B 16449M 16452B 16503  16608M 16609M 16609B 16686M 16689B
                                                 16759  16806M 16807M 16807B 16852M 16855B 16885  16947M 16948M 16948B
                                                 16965M 16966M 16966B 16988M 16989M 16989B 17085M 17088B 17141  17202M
                                                 17203M 17203B 17220M 17221M 17221B 17243M 17244M 17244B 17341M 17344B
                                                 17392  17574M 17577B 17625  17686M 17687M 17687B 17752M 17753M 17753B
                                                 17771M 17772M 17772B 17860M 17861M 17861B 17879M 17880M 17880B 17902M
                                                 17903M 17903B 17977M 17980B 18026  18202M 18205B 18257  18336M 18337M
                                                 18337B 18350M 18351M 18351B 18389M 18390M 18390B 18411M 18412M 18412B
                                                 18437M 18438M 18438B 18463M 18464M 18464B 18507M 18508M 18508B 18691M
                                                 18692M 18692B 18720M 18721M 18721B 18738M 18739M 18739B 18759M 18760M
                                                 18760B 18777M 18778M 18778B 18805M 18806M 18806B 18823M 18824M 18824B
                                                 18851M 18852M 18852B 18869M 18870M 18870B 18887M 18888M 18888B 18915M
                                                 18916M 18916B 18940M 18941M 18941B 19003M 19006B 19023  19092M 19116M
                                                 19117M 19117B 19137M 19138M 19138B 19243M 19244M 19244B 19295M 19296M
                                                 19296B 19328M 19329M 19329B 19373M 19374M 19374B 19425M 19426M 19426B
                                                 19467M 19468M 19468B 19519M 19520M 19520B 19542M 19543M 19543B 19561M
1ACCT     (ACCT2025) (12:39) (15MAR04) Ordinary Symbol and Literal Cross Reference                                          Page  131
                                                 19564B 19589  19633M 19634M 19634B 19660M 19713M 19714M 19714B 19743M
                                                 19744M 19744B 19748M 19753M 19754M 19754B 19806M 19807M 19807B 19830M
                                                 19831M 19831B 19835M 19840M 19841M 19841B 19893M 19894M 19894B 19917M
                                                 19918M 19918B 19922M 19947M 19948M 19948B 19977M 19978M 19978B 19982M
                                                 20007M 20008M 20008B 20037M 20038M 20038B 20042M 20067M 20068M 20068B
                                                 20097M 20098M 20098B 20102M 20120M 20121M 20121B 20147M 20148M 20148B
                                                 20167M 20168M 20168B 20171M 20217M 20218M 20218B 20242M 20243M 20243B
                                                 20260M 20261M 20261B 20265M 20289M 20290M 20290B 20297M 20298M 20298B
                                                 20349M 20350M 20350B 20373M 20374M 20374B 20391M 20392M 20392B 20396M
                                                 20442M 20443M 20443B 20465M 20466M 20466B 20483M 20484M 20484B 20487M
                                                 20511M 20512M 20512B 20593M 20594M 20594B 20647M 20648M 20648B 20665M
                                                 20666M 20666B 20723M 20724M 20724B 20747M 20748M 20748B 20781M 20782M
                                                 20782B 20815M 20816M 20816B 20833M 20836B 20864  21032M 21033M 21033B
                                                 21055M 21056M 21056B 21079M 21080M 21080B 21097M 21098M 21098B 21120M
                                                 21123B 21135  21187M 21188M 21188B 21206M 21207M 21207B 21236M 21237M
                                                 21237B 21254M 21255M 21255B 21284M 21285M 21285B 21304M 21307B 21411
                                                 21475M 21476M 21476B 21481M 21482M 21482B 21625M 21626M 21626B 21782M
                                                 21785B 21831  21962M 21963M 21963B 22248M 22249M 22249B 22317M 22320B
                                                 22381  22500M 22503B 22540  22799M 22802B 22863  23055M 23056M 23056B
                                                 23162M 23174M 23237M 23238M 23238B 23326M 23329B 23414  23593M 23652M
                                                 23653M 23653B 23774M 23777B 23816  23996M 23997M 23997B 24194M 24197B
                                                 24282  25072M 25073M 25073B 25164M 25165M 25165B 25228M 25229M 25229B
                                                 25235M 25236M 25236B 25272M 25273M 25273B 25312M 25313M 25313B 25319M
                                                 25320M 25320B 25356M 25357M 25357B 25435M 25438B 25547  25674M 25675M
                                                 25675B 25730M 25733B 25800  25895M 25896M 25896B 25997M 25998M 25998B
                                                 26072M 26073M 26073B 26079M 26080M 26080B 26271M 26272M 26272B 26280M
                                                 26281M 26281B 26340M 26341M 26341B 26375M 26376M 26376B 26414M 26415M
                                                 26415B 26423M 26469M 26472B 26575  26682M 26717M 26720B 26771  26855M
                                                 26856M 26856B 27101M 27102M 27102B 27274M 27275M 27275B 27296M 27297M
                                                 27297B 27318M 27319M 27319B 27350M 27353B 27466  28682M 28685B 28824
                                                 28942M 28943M 28943B 28990M 28991M 28991B 29028M 29031B 29064  29118M
                                                 29119M 29119B 29124M 29125M 29125B 29327M 29330B 29351  29486M 29487M
                                                 29487B 29506M 29507M 29507B 29529M 29532B 29553  29675M 29676M 29676B
                                                 29693M 29694M 29694B 29716M 29719B 29748  29865M 29866M 29866B 29869M
                                                 29870M 29870B 30166M 30167M 30167B 30203M 30206B 30246  30575M 30578B
                                                 30634  30715M 30716M 30716B 30763M 30766B 30792  30835M 30836M 30836B
                                                 31068M 31071B 31099  31142M 31143M 31143B 31325M 31328B 31386  31442M
                                                 31443M 31443B 31876M 31877M 31877B 31994M 31997B 32051  32104M 32105M
                                                 32105B 32139M 32140M 32140B 32215M 32218B
 RATECON       4 00002E7C 00000001     A   25470 24988
 RATECPU       4 00002E8C 00000001     A   25471 25225  25309
 RATEDIO       4 00002EAC 00000001     A   25473 25269  25353
 RATEFLLC      4 00002EBC 00000001     A   25475 25037
 RATETEL       4 00002EC0 00000001     A   25478 25063
 RATETIO       4 00002E9C 00000001     A   25472 25161
 RMBRANCH      1 00000000 00000000 A   T    8070  8070
 R0            0 00000000 FFFFFFFF A   #     699  2103   2172M 10385M 10385  10394  10395  10690M 10711M 10745M 10804M
                                                 10845M 10868M 10868  10886M 10917M 10935M 10994M 11035M 11058M 11058
                                                 11076M 11101M 11101  11122M 11135M 11157M 11178M 11200M 11200  11320M
                                                 11363M 11389M 11446M 11471M 11471  11491M 11509M 11569M 11591M 11635M
                                                 11653M 11681M 11716M 11744M 11769M 11786M 11805M 11833M 11893M 11942M
                                                 12002M 12051M 12077M 12077  12235M 12235  12244  12245  12309M 12331M
                                                 12331  12349M 12394M 12415M 12415  12433M 12443M 12443  12460M 12630
                                                 12814M 12814  12832M 12832  13005M 13005  13059M 13080M 13080  13098M
                                                 13126M 13144M 13172M 13190M 13233M 13259M 13279M 13297M 13402M 13424M
                                                 13468M 13486M 13514M 13549M 13577M 13602M 13619M 13638M 13666M 13726M
                                                 13775M 13835M 13884M 13910M 13910  14160M 14160  14169  14170  14171
                                                 14198M 14198  14209M 14218  14243M 14257M 14257  14266  14267  14329M
                                                 14355M 14376M 14376  14394M 14429M 14498M 14516M 14541M 14574M 14599M
1ACCT     (ACCT2025) (12:39) (15MAR04) Ordinary Symbol and Literal Cross Reference                                          Page  132
                                                 14628M 14628  14690M 14718M 14736M 14758M 14776M 14801M 14834M 14859M
                                                 14888M 14888  15046  15047M 15048M 15048  15259M 15259  15268  15269
                                                 15270  15297M 15297  15308M 15317  15328M 15328  15337  15338  15400M
                                                 15426M 15447M 15447  15465M 15477M 15500M 15706  15707M 15708M 15708
                                                 15797  15858  16017M 16017  16026  16027  16028  16055M 16055  16066M
                                                 16075  16086M 16086  16095  16096  16158M 16184M 16205M 16205  16223M
                                                 16256M 16402  16403M 16404M 16404  16545  16557M 16562  16822M 16825
                                                 16825M 17015  17270M 17271M 17272  17748M 17749  17763  17781M 17782
                                                 17783M 17784  17833M 17834M 17845  17857  17871  17888M 17889  17896M
                                                 17898M 18097M 18097  18103  18103M 18130  18140  18143M 18145  18147
                                                 18151  18151M 18169M 18171  18173  18180  18180M 18322M 18322  18331
                                                 18332  18333  18360M 18360  18386M 18709M 18727M 18748M 18748  18766M
                                                 18794M 18812M 18840M 18858M 18876M 18904M 18929M 18929  19126M 19232M
                                                 19232  19248M 19268M 19317M 19362M 19362  19378M 19398M 19456M 19456
                                                 19472M 19492M 19531M 19702M 19732M 19796M 19883M 19936M 19966M 19996M
                                                 20026M 20056M 20086M 20114M 20136M 20156M 20173M 20174M 20187M 20231M
                                                 20231  20249M 20278M 20278  20339M 20380M 20398M 20399M 20412M 20454M
                                                 20454  20472M 20500M 20500  20582M 20582  20598M 20620M 20654M 20713M
                                                 20770M 20804M 20804  21021M 21045M 21086M 21177M 21195M 21225M 21243M
                                                 21273M 21477  21881  21893M 21898  21899  22933M 22933  23005M 23234M
                                                 23649M 23908  23999M 24001M 24002M 24004  24005  24005  24005  24007M
                                                 24009M 24010M 24019M 24019  24029M 24029  24044M 24051M 24056M 24057
                                                 24060M 24071  24081M 24081  24088  24542  25506  25506  25506  26042M
                                                 26053M 26053  26075  26082M 26084M 26085M 26086M 26087M 26099  26235M
                                                 26236M 26237M 26249  26333M 26334M 26345  26351  26371M 26410M 26851M
                                                 27270M 27292M 27314M 29407  29482M 29502M 29584  29596M 29603  29615M
                                                 29620  29656M 29657M 29658M 29671M 29689M 29871  30163M 30168  30304
                                                 30318  30327  30334M 30335  30373  30673M 30674  30710M 30831  30879M
                                                 30900M 30917M 30917  30939M 30945M 30995  30997M 30998  31038  31038M
                                                 31138  31186M 31203M 31252  31254M 31255  31295  31295M 31435  31457
                                                 31561  31573M 31578  31654M 31674M 31674  31721M 31732M 31732  31848M
                                                 31870M 31871  31907M 31930
 R1            1 00000001 FFFFFFFF A   #     712  2166M  2167M  2173M 10381M 10394  10395  10397  10669M 10685M 10710M
                                                 10744M 10811M 10844M 10864M 10885M 10912M 10934M 11001M 11034M 11054M
                                                 11075M 11121M 11135M 11177M 11196M 11319M 11358M 11388M 11445M 11490M
                                                 11508M 11562M 11590M 11630M 11652M 11676M 11715M 11739M 11786M 11826M
                                                 11900M 11935M 12009M 12044M 12231M 12244  12245  12247  12308M 12327M
                                                 12348M 12393M 12411M 12432M 13058M 13076M 13097M 13121M 13143M 13167M
                                                 13189M 13228M 13258M 13278M 13296M 13395M 13423M 13463M 13485M 13509M
                                                 13548M 13572M 13619M 13659M 13733M 13768M 13842M 13877M 14156M 14169
                                                 14170  14171  14208M 14217  14242M 14253M 14266  14267  14269  14328M
                                                 14354M 14372M 14393M 14428M 14493M 14515M 14529M 14554M 14563M 14563
                                                 14573M 14587M 14689M 14713M 14735M 14742  14753M 14775M 14789M 14814M
                                                 14823M 14823  14833M 14847M 15046M 15049M 15050  15062  15255M 15268
                                                 15269  15270  15307M 15316  15324M 15337  15338  15340  15399M 15425M
                                                 15443M 15464M 15478M 15499M 15706M 15709M 15710  15722  16013M 16026
                                                 16027  16028  16065M 16074  16082M 16095  16096  16098  16157M 16183M
                                                 16201M 16222M 16255M 16402M 16405M 16406  16418  16650U 16797U 16823M
                                                 16825  16922U 16942  17033  17040  17047  17051  17178U 17289  17296
                                                 17303  17307  17429U 17484M 17485  17500  17520M 17520  17537  17548
                                                 17548M 17662U 17779  17780  17785M 17887  17889  17892  17893  17897M
                                                 17899M 17905M 17933M 17934M 18144  18170  18318M 18331  18332  18333
                                                 18381M 18688M 18704M 18726M 18744M 18765M 18789M 18811M 18835M 18857M
                                                 18875M 18899M 19113M 19125M 19228M 19247M 19316M 19358M 19377M 19452M
                                                 19471M 19530M 19630M 19695M 19725M 19803M 19890M 19929M 19959M 19989M
                                                 20019M 20049M 20079M 20114M 20155M 20202M 20227M 20248M 20346M 20379M
                                                 20427M 20450M 20471M 20541  20541  20597M 20619M 20653M 20720M 20769M
                                                 20926  20926  21020M 21052M 21085M 21184M 21194M 21218M 21242M 21266M
                                                 21938M 22569  22935M 22935  23005M 23160M 23239  23654  24004  24005
1ACCT     (ACCT2025) (12:39) (15MAR04) Ordinary Symbol and Literal Cross Reference                                          Page  133
                                                 24005  24005  24031M 24031  24057  24060M 24083M 24083  24088  25069M
                                                 25160M 25224M 25268M 25308M 25352M 25506  25506  25506  25671M 25993M
                                                 26042M 26064M 26064  26074  26108M 26117  26235M 26258M 26263  26335M
                                                 26336M 26344M 26345M 26346  26366M 26405M 26420M 26618  26659M 26685M
                                                 26838  26850M 27093M 27263M 27285M 27307M 27515U 28853  28939M 28964M
                                                 28965M 28965  28974M 28974  29093  29477M 29497M 29656  29666M 29684M
                                                 29791  29813M 29823U 29829M 29847U 29871  30163M 30168  30276  30674
                                                 30705M 30831  30832M 30872M 30899M 30936M 30946M 31138  31139M 31179M
                                                 31202M 31434  31653M 31719M 31846M 31865M 31872  31908M 32135M
 R12          12 0000000C FFFFFFFF A   #     855  2129
 R13          13 0000000D FFFFFFFF A   #     868 10389  10390  10391  10407  10408  10409  12239  12240  12241  12257
                                                 12258  12259  14164  14165  14166  14181  14182  14183  14261  14262
                                                 14263  14279  14280  14281  15263  15264  15265  15280  15281  15282
                                                 15332  15333  15334  15350  15351  15352  16021  16022  16023  16038
                                                 16039  16040  16090  16091  16092  16108  16109  16110  17042  17054
                                                 17298  17310  18326  18327  18328  18343  18344  18345  29622  29623M
                                                 29623  29624M
 R14          14 0000000E FFFFFFFF A   #     881  2104M 10388M 10389  10390  10391  10396M 10397  10404M 10407  10408
                                                 10409  10767M 10767  10768M 10780  10957M 10957  10958M 10970  11855M
                                                 11855  11856M 11857M 11869  11964M 11964  11965M 11966M 11978  12238M
                                                 12239  12240  12241  12246M 12247  12254M 12257  12258  12259  13688M
                                                 13688  13689M 13690M 13702  13797M 13797  13798M 13799M 13811  14163M
                                                 14164  14165  14166  14178M 14181  14182  14183  14260M 14261  14262
                                                 14263  14268M 14269  14276M 14279  14280  14281  15262M 15263  15264
                                                 15265  15277M 15280  15281  15282  15331M 15332  15333  15334  15339M
                                                 15340  15347M 15350  15351  15352  16020M 16021  16022  16023  16035M
                                                 16038  16039  16040  16089M 16090  16091  16092  16097M 16098  16105M
                                                 16108  16109  16110  17042M 17044M 17045M 17049M 17050M 17052  17053M
                                                 17053  17056M 17298M 17300M 17301M 17305M 17306M 17308  17309M 17309
                                                 17312M 17893M 17894M 17894  17898M 18139M 18139  18141M 18146M 18148M
                                                 18172M 18174M 18325M 18326  18327  18328  18340M 18343  18344  18345
                                                 19662M 19663M 19664M 19676  19758M 19758  19759M 19760M 19772  19845M
                                                 19845  19846M 19847M 19859  20302M 20302  20303M 20315  20676M 20676
                                                 20677M 20689  20987M 20987  20988M 21000  21486M 21486  21487M 21488M
                                                 21500  21630M 21630  21631M 21632M 21644  22253M 22253  22254M 22255M
                                                 22267  22452M 22452  22453M 22454M 22466  22750M 22750  22751M 22752M
                                                 22764  23909M 24543M 25076M 25077M 25078M 25090  25105M 25106M 25118
                                                 25169M 25170M 25182  25237M 25238M 25250  25277M 25278M 25290  25321M
                                                 25322M 25334  25361M 25362M 25374  26350M 26350  26352M 27155M 27155
                                                 27173M 27174M 27182M 27182  27183M 27195  27225M 27225  27243M 27244M
                                                 29192M 29201M 29208M 29213M 29214  29646M 29651M 29657  29658M 30328M
                                                 30374M
 R15          15 0000000F FFFFFFFF A   #     894  2103  10410M 10410  10481M 10481  10595M 10595  10735M 10753M 10759M
                                                 10789M 10835M 10853M 10876M 10894M 10925M 10943M 10949M 10979M 11025M
                                                 11043M 11066M 11084M 11109M 11130M 11137M 11165M 11186M 11208M 11237M
                                                 11237  11301M 11307M 11328M 11371M 11397M 11408M 11433M 11454M 11479M
                                                 11499M 11517M 11615M 11643M 11661M 11689M 11724M 11752M 11777M 11784M
                                                 11813M 11841M 11847M 11878M 11924M 11950M 11956M 11987M 12033M 12059M
                                                 12085M 12124M 12124  12260M 12260  12277M 12278M 12278  12284  12317M
                                                 12339M 12402M 12423M 12465M 12501M 12501  12649M 12649  12715M 12715
                                                 12815M 12840M 12902M 12902  13023  13040M 13046M 13067M 13088M 13106M
                                                 13134M 13152M 13180M 13198M 13241M 13267M 13287M 13305M 13448M 13476M
                                                 13494M 13522M 13557M 13585M 13610M 13617M 13646M 13674M 13680M 13711M
                                                 13757M 13783M 13789M 13820M 13866M 13892M 13918M 13966M 13966  14184M
                                                 14184  14282M 14282  14363M 14384M 14437M 14506M 14524M 14549M 14582M
                                                 14607M 14636M 14679M 14679  14698M 14726M 14766M 14784M 14809M 14842M
                                                 14867M 14896M 14931M 14931  15095M 15095  15283M 15283  15353M 15353
                                                 15434M 15455M 15531M 15531  15755M 15755  15816M 15816  15877M 15877
                                                 16041M 16041  16111M 16111  16192M 16213M 16287M 16287  16451M 16451
1ACCT     (ACCT2025) (12:39) (15MAR04) Ordinary Symbol and Literal Cross Reference                                          Page  134
                                                 16562M 16566M 16575M 16575  16582  16625M 16625  16654M 16688M 16688
                                                 16816M 16816  16854M 16854  16957M 16957  16975M 16975  16998M 16998
                                                 17043M 17046M 17048  17051M 17052M 17055  17065M 17065  17087M 17087
                                                 17212M 17212  17230M 17230  17253M 17253  17299M 17302M 17304  17307M
                                                 17308M 17311  17321M 17321  17343M 17343  17451M 17546M 17546  17576M
                                                 17576  17698M 17698  17721M 17721  17773M 17804M 17804  17851M 17881M
                                                 17895M 17897  17924M 17924  17956M 17956  17979M 17979  18074  18101M
                                                 18101  18140M 18142M 18143  18147M 18149M 18173M 18178M 18178  18204M
                                                 18204  18346M 18346  18372M 18687M 18717M 18735M 18756M 18774M 18802M
                                                 18820M 18848M 18866M 18884M 18912M 18937M 19005M 19005  19134M 19240M
                                                 19292M 19325M 19370M 19422M 19464M 19516M 19539M 19563M 19563  19653M
                                                 19654M 19655M 19656M 19657M 19658M 19662M 19685M 19695  19710M 19740M
                                                 19746M 19750M 19781M 19827M 19833M 19837M 19868M 19914M 19920M 19944M
                                                 19974M 19980M 20004M 20034M 20040M 20064M 20094M 20100M 20116M 20144M
                                                 20164M 20169M 20214M 20220M 20221M 20227  20239M 20257M 20262M 20263M
                                                 20286M 20293M 20294M 20324M 20370M 20388M 20393M 20394M 20439M 20462M
                                                 20480M 20485M 20508M 20590M 20644M 20662M 20667M 20668M 20669M 20670M
                                                 20671M 20672M 20698M 20744M 20778M 20812M 20835M 20835  20912M 20912
                                                 20936M 20936  20962M 20962  20975  21009M 21014  21029M 21038M 21076M
                                                 21094M 21122M 21122  21203M 21233M 21251M 21281M 21306M 21306  21477M
                                                 21478M 21509M 21538M 21582M 21582  21611M 21612M 21653M 21701M 21701
                                                 21736M 21738M 21759M 21759  21784M 21784  21899M 21903M 21912M 21912
                                                 21919  21959M 22006M 22007M 22007  22012M 22021M 22021  22028  22211M
                                                 22276M 22319M 22319  22438  22444M 22475M 22502M 22502  22773M 22801M
                                                 22801  22938M 22948U 22954M 22973M 22973  23001U 23052M 23172M 23284M
                                                 23285  23328M 23328  23591M 23699M 23700  23776M 23776  23845  23908
                                                 23952M 23953M 23969M 23969  23974M 23975  24099M 24100M 24116M 24116
                                                 24121M 24122  24134M 24135M 24151M 24151  24156M 24157  24196M 24196
                                                 24329  24350M 24360U 24542  24988M 25007M 25007  25037M 25063M 25074
                                                 25076M 25099M 25127M 25151M 25151  25156  25161M 25166  25168M 25191M
                                                 25215M 25215  25220  25225M 25230  25232M 25259M 25264  25269M 25274
                                                 25276M 25299M 25304  25309M 25314  25316M 25343M 25348  25353M 25358
                                                 25360M 25383M 25388  25437M 25437  25670M 25732M 25732  25839  25863M
                                                 25866  25892M 25994M 25999  26143M 26144M 26145  26153M 26155M 26156
                                                 26268M 26273  26277M 26282  26290M 26291M 26292  26296M 26297M 26298
                                                 26311  26337M 26351M 26353  26372M 26411M 26421M 26432M 26432  26471M
                                                 26471  26619  26680M 26719M 26719  26859M 26878M 26901M 26924M 26947M
                                                 26970M 26994M 27017M 27040M 27063M 27086M 27092  27156M 27204M 27209
                                                 27210M 27211  27226M 27249  27250M 27251  27271M 27293M 27315M 27328M
                                                 27328  27352M 27352  28660M 28660  28684M 28684  29030M 29030  29115M
                                                 29121M 29192M 29214  29216M 29217M 29218  29246M 29247M 29248  29250M
                                                 29251M 29252  29256M 29257M 29258  29260M 29261M 29262  29266M 29267M
                                                 29268  29270M 29271M 29272  29276M 29277M 29278  29280M 29281M 29282
                                                 29286M 29287M 29288  29290M 29291M 29292  29329M 29329  29409M 29412
                                                 29424M 29429  29433M 29442M 29442  29449  29483M 29503M 29531M 29531
                                                 29672M 29690M 29718M 29718  29777  30205M 30205  30275  30327  30373
                                                 30491M 30492M 30493  30511  30523M 30524M 30525  30577M 30577  30765M
                                                 30765  31070M 31070  31327M 31327  31436  31438  31500M 31500  31530M
                                                 31530  31578M 31582M 31591M 31591  31598  31627M 31627  31634  31963M
                                                 31963  31968M 31996M 31996  32101  32157M 32176M 32176  32217M 32217
 R2            2 00000002 FFFFFFFF A   #     725 11333M 11343U 13203M 13213U 14123U 14215M 14220M 14463M 14465  14477
                                                 14641M 14641  14666M 14742M 14901M 14901  15200U 15314M 15319M 15479M
                                                 15980U 16072M 16077M 16235M 16601M 16604M 17039M 17041  17044M 17047M
                                                 17049M 17054M 17056M 17295M 17297  17300M 17303M 17305M 17310M 17312M
                                                 18144M 18148M 18170M 18174M 20112M 20292M 20975M 21014M 21038  21165M
                                                 21565M 21566M 21566  21607U 21684M 21685M 21685  21726U 22592M 22592
                                                 22611M 22633M 22655M 22677M 22699M 22721M 22735M 22735  22751  22936M
                                                 23011M 23034  23041M 23058M 23059M 23059  23951M 23952  23976  24097M
                                                 24098M 24099  24123  24131M 24133M 24134  24158  25074M 25105  25166M
1ACCT     (ACCT2025) (12:39) (15MAR04) Ordinary Symbol and Literal Cross Reference                                          Page  135
                                                 25169  25230M 25237  25274M 25277  25314M 25321  25358M 25361  26660M
                                                 26672M 26672  26684M 26836U 26849M 27092  27122M 27128M 27146U 27151M
                                                 27215M 27221M 27524U 29620M 29651  30511M 30534M 30534  30711M 30904M
                                                 30904  30937M 30945  30998M 31002M 31011M 31011  31018  31255M 31259M
                                                 31268M 31268  31275  31617M 31871M
 R3            3 00000003 FFFFFFFF A   #     738 14216M 14464M 14465M 14477  15315M 16073M 16942M 17016  17023M 17033
                                                 17039  17040M 17041M 17043  17048M 17055M 17279M 17289  17295  17296M
                                                 17297M 17299  17304M 17311M 17485M 17486M 17500  17537  17749M 17763
                                                 17814M 17815M 17815  17827  17857M 17871  17890M 17891M 17891  17892
                                                 17936M 17937M 17937  17938  18145M 18171M 18608M 18609M 18609  18633U
                                                 19174M 19452  19484  23919M 23920M 23920  23944U 25939M 25949U 26001M
                                                 26019U 26172M 26182U 26294M 26661M 26685  28934M 28945  29621M 29671
                                                 29689  30676M 30686U 30711M 30736M 30837M 30847U 31144M 31154U 31872M
                                                 31892M 31902U
 R4            4 00000004 FFFFFFFF A   #     751 11485M 11532U 11547M 11548M 11548  11581  13273M 13320U 13335M 13336M
                                                 13336  13381  13414  14132U 14217M 14220M 14443M 14452M 14452  15209U
                                                 15316M 15319M 15989U 16074M 16077M 16931U 17022M 17187U 17278M 17438U
                                                 17453M 17462M 17462  17671U 17747M 17779M 17813M 17904M 18063U 18077M
                                                 18088M 18088  19140M 19141M 19142M 19154  19172M 19172  19173M 19174
                                                 19179M 19179  19180M 19203M 19203  19305M 19305  19347M 19347  19358
                                                 19390  21972M 21982U 21997M 21998M 21998  22075  22569M 23096U 23103M
                                                 23104M 23104  23182M 23195M 23196M 23196  23220  23239M 23266  23267
                                                 23285  23286  23292  23534M 23535M 23535  23559U 23597M 23610M 23611M
                                                 23611  23635  23654M 23681  23682  23700  23701  23707  23861M 23862M
                                                 23862  23883U 24875M 24875  24894M 24917M 24940M 24954M 24954  24976M
                                                 24988  25018M 25018  25161  25225  25269  25309  25353  25921M 25931U
                                                 26186M 26202U 26216M 26217M 26217  28870M 28893U 28908M 28908  28945M
                                                 29188M 29188  29875M 29885U 30712M 30952M 30956M 30965M 30965  30972
                                                 30991M 30995  30997  31209M 31213M 31222M 31222  31229  31248M 31252
                                                 31254  31542M 31552U 31873M
 R5            5 00000005 FFFFFFFF A   #     764 11284M 11294U 12267M 12284M 12285M 12286M 12298  12369U 12775M 12791U
                                                 12815  12850M 12866  13023M 13033U 14141U 14218M 14219M 14290M 14442M
                                                 14665M 15218U 15317M 15318M 15361M 15998U 16075M 16076M 16119M 16605M
                                                 16940U 17196U 17447U 17680U 18072U 18074M 18514M 18530U 18947M 18963
                                                 19140M 19163M 19192M 19192  19217M 19217  19228  19260  21440M 21450U
                                                 21941M 21951U 23069M 23079U 23455M 23471U 23715M 23731  23845M 23855U
                                                 24329M 24339U 24487M 24499M 24499  24517U 25390M 25577M 25593U 25681M
                                                 25697  25839M 25849U 26619M 26680  26827U 26838M 27093  28853M 28863U
                                                 29127M 29137U 29143M 29166M 29166  29181U 29294M 29777M 29787U 30275M
                                                 30350M 30350  30364  30389M 30389  30413  30450  30464  30499  30952M
                                                 30991M 31209M 31248M 31438M 32101M
 R6            6 00000006 FFFFFFFF A   #     777 10361M 10369U 10654M 10665U 10669  12211M 12219U 14106M 14114U 15183M
                                                 15191U 15963M 15971U 19102M 19111U 19113  19619M 19628U 19630  21970M
                                                 21970  22100M 22132M 22164M 22196M 22211  25865M 25878U 26614U 26618M
                                                 26818U 27533U 27954  27992  28007  29093M 29103U 29381M 29392U 29622M
                                                 29634U 29666  29684  29791M 29801U 30276M 30286U 32090M 32098U
 R7            7 00000007 FFFFFFFF A   #     790  2096M  2096   2097B  2109B
 R8            8 00000008 FFFFFFFF A   #     803 10357U 12207U 12986U 14102U 15179U 15959U 16538U 18292U 21866U 22898U
                                                 23449U 24317U 25835U 26806U 27501U 30669U 30827U 31134U 31421U 32086U
 SCANCHK       1 00000000 00000008     T   13978 13978  16701  21332
 SCOSTFLG      1 00000000 FFFFFFD2     R   12141 12145
 SCOSTFSYS
             128 00000000 FFFFFFD2        12145 12453  12696M
 SCOSTLIN      4 00000004 FFFFFFD2     F   12149 12277  12327  12630M
 SCOSTPRT      4 0000069C 00000001     F   12508 13997
 SCOSTWA       8 00000000 FFFFFFD2     J   12156 12178  12207U 12211  12219U 12227M 12227  12497  12499  12500
 SCRCCHCT      2 000000F4 FFFFFFDA     H   10038 26291  26292M 26660
 SCRCCHLN      2 000000F6 FFFFFFDA     H   10039 26170M 26661
 SCRCCTCT      2 000000FC FFFFFFDA     H   10044 26353M
1ACCT     (ACCT2025) (12:39) (15MAR04) Ordinary Symbol and Literal Cross Reference                                          Page  136
 SCRCCTLN      2 000000FE FFFFFFDA     H   10045 26354M
 SCRCEND       4 00000100 FFFFFFDA     F   10053 26172  26494  26659
 SCRCET        4 000000C8 FFFFFFDA     F   10027 26117M
 SCRCFE        8 00000090 FFFFFFDA     C   10003 25957M
 SCRCLDAT      4 000000C0 FFFFFFDA     F   10025 26074M
 SCRCLTIM      4 000000C4 FFFFFFDA     F   10026 26075M
 SCRCMULT      4 000000AC FFFFFFDA     F   10008 25969M 25980M 25980  25987M
 SCRCNAME     20 00000068 FFFFFFDA     C   10000 25955M
 SCRCPORT      8 00000098 FFFFFFDA     C   10004 25958M
 SCRCSOF       1 000000AA FFFFFFDA     C   10006 25959M 25993  27564  27580  27594  27611  27662  27684  27698  27718
                                                 27738  27758  27778  27798  27818  28274  28288
 SCRCSURG      4 000000B0 FFFFFFDA     F   10009 25999M
 SCRCTIO       4 000000CC FFFFFFDA     F   10028 26076M
 SCRCTYPE      8 0000003C FFFFFFDA     C    9994 25937M 26391  26636  26650
 SCRCUID      20 00000054 FFFFFFDA     C    9999 25954M
 SCRCVCPU      4 000000D8 FFFFFFDA     F   10031 26145M
 SCRCVER       4 00000038 FFFFFFDA     F    9992 25936M
 SCRCVER#      1 00000009 FFFFFFDA A   U    9993 26486
 SCRCVIO       4 000000DC FFFFFFDA     F   10032 26156M
 SCRCWAPP      8 0000007C FFFFFFDA     C   10001 25956M
 SCRCWCPU      4 000000D0 FFFFFFDA     F   10029 26140M
 SCRCWIO       4 000000D4 FFFFFFDA     F   10030 26141M
 SCRSTAG      16 00000044 FFFFFFDA     C    9998 26041M
 SCUPCASE      1 00000000 00000017     T   21333 21333
 SDSNQSZ       1 0000002C FFFFFFEC A   U    6084  6085   6086
 SEG           1 00000000 0000000A     T   13981 13981  16704  21338
 SEGB          1 00000000 00000019     T   21351 21351
 SEGCOL        1 00000000 00000011     T   13995 13995
 SEGCR         1 00000000 0000000D     T   13988 13988  16707  21353
 SEGDC         1 00000000 0000000C     T   13987 13987  16705  21339
 SEGT          1 00000000 00000009     T   13980 13980  21337
 SEGTB         1 00000000 00000014     T   16709 16709
 SEGWR         1 00000000 00000018     T   21340 21340
 SETWCTR       2 00000FE2 00000001     H   15137 15133
 SHOWSCOS      2 00000574 00000001     H   12165 12161
 SHOWSCS       2 000007A2 00000001     H   12735 12731
 SHOWTIME      2 00000018 00000001     H   10315 10311
 SHOWWCTR      2 00000C36 00000001     H   14060 14056
 SIBACCT       5 00000070 FFFFFFE9     C    6595  6758   6758
 SIBCRI        2 000000F0 FFFFFFE9     H    6985  6990   6990
 SIBFL         1 00000040 FFFFFFE9     R    6333  6337   6342   6347   6352   6357
 SIBFLG        1 000000B4 FFFFFFE9     R    6873  6877   6882   6887   6892   6897   6902   6907   6912
 SIBFLG2       1 000000B5 FFFFFFE9     R    6918  6922   6927   6932
 SIBFL2        1 00000041 FFFFFFE9     R    6363  6367   6372   6377   6382
 SIBFL3        1 00000042 FFFFFFE9     R    6388  6392   6397   6402
 SIBFL4        1 00000043 FFFFFFE9     R    6408  6412   6417   6422
 SIBFL5        1 00000044 FFFFFFE9     R    6428  6432   6437   6442
 SIBKAFL       1 0000007B FFFFFFE9     R    6729  6733   6738   6743   6748   6753
 SIBKIFL       1 0000007A FFFFFFE9     R    6684  6688   6693   6698   6703   6708   6713   6718   6723
 SIBOFLAG      1 000000D2 FFFFFFE9     R    6943  6947   6952   6957   6962   6967
 SIBOPST       4 00000080 FFFFFFE9     F    6763  6992   6992
 SIBPORT       8 00000010 FFFFFFE9     C    6327  6447   6447
 SIBQFLG       1 000000A8 FFFFFFE9     R    6792  6796
 SIBSFLG       1 00000077 FFFFFFE9     R    6602  6606   6611   6616   6621   6626   6631
 SIBSTART      4 00000000 FFFFFFE9     F    6319  6323   6323   6759   6759   6864   6864   6996   6996
 SIBSTAT       1 0000004B FFFFFFE9     R    6539  6543   6548   6553   6558   6563   6568   6573
 SIBTACF       1 00000078 FFFFFFE9     R    6637  6641   6646   6651   6656   6661   6666   6671   6676
 SIBTFLAG      1 000000A6 FFFFFFE9     R    6770  6774   6779   6784
 SIBTYPE       1 00000048 FFFFFFE9     R    6452  6461   6471   6481   6491   6501   6511   6521   6531
1ACCT     (ACCT2025) (12:39) (15MAR04) Ordinary Symbol and Literal Cross Reference                                          Page  137
 SIBUFLG       1 000000AA FFFFFFE9     R    6807  6811   6816   6821   6826   6831   6836   6841   6846
 SIBUFLG2      1 000000AB FFFFFFE9     R    6852  6856   6861
 SIBVPGM       8 00000058 FFFFFFE9     C    6585  6591   6591
 SIB1ST        4 00000048 FFFFFFE9     F    6449  6994   6994
 SIN         224 00000000 FFFFFFDE     J    9817 11343U 13213U 18633U 18649  21607U 21726U 23944U 25931U 26019U 26035
                                                 26132U
 SINLCLCK      8 00000014 FFFFFFDE     X    9763 18668M 18668  23988M 23988  23999  24002  26042  26082  26085
 SINSTAG      16 00000052 FFFFFFDE     C    9775 11358  11363  13228  13233  18234  18677  26041
 SINTIO        4 0000001C FFFFFFDE     F    9764 23951  26076
 SINVCPU       4 000000A0 FFFFFFDE     F    9786 21611  24097  26143
 SINVDIO       3 000000A5 FFFFFFDE     X    9790 21736  24131  26153
 SINVOCPU      4 000000A8 FFFFFFDE     F    9795 21612  24098  26144
 SINVODIO      4 000000AC FFFFFFDE     F    9796 21738  24133  26155
 SINVPGM       8 00000098 FFFFFFDE     C    9785  9791   9791
 SMCABASE      1 00000000 FFFFFFE2     J    8802  9152   9417   9697   9740   9818  29847U
 SMCAEND       1 000001E0 FFFFFFE2     U    9151  9152
 SMCASID       4 00000010 FFFFFFE2     C    8865 29853
 SMFACCT      98 00000000 FFFFFFDB     J    9971 26745  26747  26749  27092M 27146U
 SMFCCRC      96 00000000 FFFFFFD9     J   10120 26182U 26229M 26229  26496  26502  26827U 27515U
 SMFCTRC      32 00000000 FFFFFFD8     J   10147 10163  10164  14123U 14641  14901  15200U 15980U 16650U 16797U 16922U
                                                 17046  17053  17178U 17302  17309  17429U 17520  17662U 17783  17815
                                                 17891  17894  17937  21330  26499  26503
 SMFDATA       4 0000003C FFFFFFDB     F    9941  9951   9960
 SMFGLOG      68 00000000 FFFFFFD6     J   10196 29621  29634U
 SMFGRP        4 00000017 FFFFFFDC     C    9908 27954  27992  28007  29891M 29892M
 SMFHDR       56 00000000 FFFFFFDC     J    9923  9936   9984  10184  10208  26836U 27524U 27954  27992  28007  29801U
                                                 30286U 32241
 SMFIACCT      5 00000014 FFFFFFDC     C    9906 27113M 27113  27865M 27888M 27911M 27969M 28022M 28045M 28068M 28091M
                                                 28114M 28137M 28160M 28183M 28206M 28229M 28252M 28311M 28334M 28357M
                                                 28380M 28403M 28426M 28449M 28472M 28495M 28518M 28567M 28590M 28617M
                                                 28651M 28651
 SMFIHDR       2 00003C7A 00000001     H   29742 26500  27390  32234
 SMFINIT      52 00000004 FFFFFFDC     X    9916 29811M 29811
 SMFKAFL       1 0000003D FFFFFFD5     X   10215 29405M
 SMFKIFL       1 0000003C FFFFFFD5     X   10214 29404M
 SMFKWR      304 00000000 FFFFFFD5     J   10240 29382  29392U 29402M 29402  29403M 29403  29482  29502
 SMFLEN        2 00000002 FFFFFFDC     H    9894 30335M 30509
 SMFLID        8 0000003C FFFFFFD6     C   10188 29638M
 SMFLOG        2 00003BFC 00000001     H   29547 29543
 SMFLTEXT      1 00000044 FFFFFFD6     C   10189 29646
 SMFMCON       4 0000003C FFFFFFDB     F    9945 27216M
 SMFMTIO       4 00000040 FFFFFFDB     F    9946 27217M
 SMFPROJ       8 00000028 FFFFFFDC     C    9913 29893M 29894M
 SMFRACCT      5 0000003E FFFFFFD5     C   10216 29406M
 SMFSCRC     256 00000000 FFFFFFDA     J   10060 25878U 25888M 25888  26335  26420  26494  26614U 26818U 27533U
 SMFSID        4 00000010 FFFFFFDC     C    9902 29853M
 SMFSTRT       2 00000004 FFFFFFDC     H    9898  9916   9916
 SMFSYSTM      8 0000001C FFFFFFDC     C    9910 27124M 27130M 30161M
 SMFTACF       1 00000024 FFFFFFDC     X    9911 29895M
 SMFTETYP      1 0000001B FFFFFFDC     C    9909 29916M 29932M 29948M 29965M 29986M 30011M 30032M 30053M 30089M 30107
                                                 30126M 30147M
 SMFTIME       4 00000008 FFFFFFDC     F    9900 29871M
 SMFTMBLK      1 0000003B FFFFFFDB     X    9939 27092M
 SMFTON        4 00000030 FFFFFFDC     F    9914 30168M
 SMFTRM        3 00000025 FFFFFFDC     C    9912 29896M 29897M
 SMFTYPE       1 00000007 FFFFFFDC     X    9899 26857M 30499M
 SMFUSER       3 00000014 FFFFFFDC     C    9907 29890M
 SMFVCPU       4 0000003C FFFFFFDB     F    9961 27249M
 SMFVDIO       4 00000044 FFFFFFDB     F    9963 27251M
1ACCT     (ACCT2025) (12:39) (15MAR04) Ordinary Symbol and Literal Cross Reference                                          Page  138
 SMFWCMD     235 00000045 FFFFFFD5     C   10233 29408M 29456M 32233
 SMFWCPU       4 0000003C FFFFFFDB     F    9952 27209M
 SMFWDIO       2 00000050 FFFFFFDB     H    9954 27211M
 SMFWEXIT      2 00003EAE 00000001     H   30556 30392B 30430B 30482B
 SMFWFL        1 00000043 FFFFFFD5     X   10218 29407M
 SMFWLEN       1 00000044 FFFFFFD5     X   10232 29429M
 SMFWRITE      2 00003DA4 00000001     H   30240 26501  27396  32235
 SPR          13 0000000D 00000001 A   #    1112 10322  10325  10327  10328M 10328  10473M 10477  10479  10542  10545
                                                 10546  10547M 10547  10587M 10591  10593  10621  10624  10625  10626M
                                                 10626  11229M 11233  11235  11255  11258  11259  11260M 11260  12116M
                                                 12120  12122  12172  12175  12177  12178M 12178  12493M 12497  12499
                                                 12577  12580  12581  12582M 12582  12641M 12645  12647  12662  12665
                                                 12666  12667M 12667  12707M 12711  12713  12741  12744  12745  12746M
                                                 12746  12894M 12898  12900  12951  12954  12956  12957M 12957  13958M
                                                 13962  13964  14067  14070  14072  14073M 14073  14923M 14927  14929
                                                 15017  15020  15021  15022M 15022  15087M 15091  15093  15144  15147
                                                 15149  15150M 15150  15523M 15527  15529  15677  15680  15681  15682M
                                                 15682  15747M 15751  15753  15768  15771  15772  15773M 15773  15808M
                                                 15812  15814  15829  15832  15833  15834M 15834  15869M 15873  15875
                                                 15924  15927  15929  15930M 15930  16279M 16283  16285  16373  16376
                                                 16377  16378M 16378  16443M 16447  16449  16503  16506  16508  16509M
                                                 16509  16680M 16684  16686  16759  16762  16763  16764M 16764  16846M
                                                 16850  16852  16885  16888  16889  16890M 16890  17079M 17083  17085
                                                 17141  17144  17145  17146M 17146  17335M 17339  17341  17392  17395
                                                 17396  17397M 17397  17568M 17572  17574  17625  17628  17629  17630M
                                                 17630  17971M 17975  17977  18026  18029  18030  18031M 18031  18196M
                                                 18200  18202  18257  18260  18262  18263M 18263  18997M 19001  19003
                                                 19023  19026  19027  19028M 19028  19555M 19559  19561  19589  19592
                                                 19593  19594M 19594  20827M 20831  20833  20864  20867  20868  20869M
                                                 20869  21114M 21118  21120  21135  21138  21139  21140M 21140  21298M
                                                 21302  21304  21411  21414  21415  21416M 21416  21776M 21780  21782
                                                 21831  21834  21836  21837M 21837  22311M 22315  22317  22381  22384
                                                 22385  22386M 22386  22494M 22498  22500  22540  22543  22544  22545M
                                                 22545  22793M 22797  22799  22863  22866  22868  22869M 22869  23320M
                                                 23324  23326  23414  23417  23419  23420M 23420  23768M 23772  23774
                                                 23816  23819  23820  23821M 23821  24188M 24192  24194  24282  24285
                                                 24287  24288M 24288  25429M 25433  25435  25547  25550  25551  25552M
                                                 25552  25724M 25728  25730  25800  25803  25805  25806M 25806  26463M
                                                 26467  26469  26575  26578  26579  26580M 26580  26711M 26715  26717
                                                 26771  26774  26776  26777M 26777  27344M 27348  27350  27466  27469
                                                 27471  27472M 27472  28676M 28680  28682  28824  28827  28828  28829M
                                                 28829  29022M 29026  29028  29064  29067  29068  29069M 29069  29321M
                                                 29325  29327  29351  29354  29355  29356M 29356  29523M 29527  29529
                                                 29553  29556  29557  29558M 29558  29710M 29714  29716  29748  29751
                                                 29752  29753M 29753  30197M 30201  30203  30246  30249  30250  30251M
                                                 30251  30569M 30573  30575  30634  30637  30639  30640M 30640  30757M
                                                 30761  30763  30792  30795  30797  30798M 30798  31062M 31066  31068
                                                 31099  31102  31104  31105M 31105  31319M 31323  31325  31386  31389
                                                 31391  31392M 31392  31988M 31992  31994  32051  32054  32056  32057M
                                                 32057  32209M 32213  32215
 SSCLIN        2 0000073C 00000001     H   12571 12520
 SSCSYS        2 00000776 00000001     H   12656 12535
 STCJCB        4 00000000 FFFFFFCF     F   15118 15228M 15361  15374  15710M
 STCNAME      16 0000000C FFFFFFCF     X   15121 15314  15479
 STCPLINE      2 0000128C 00000001     H   15671 15575
 STCPRT        4 00001174 00000001     F   15563 16712
 STCPVAL       2 000012D2 00000001     H   15762 15590  15605
 STCPVAL$      2 000012FE 00000001     H   15823 15620  15635
 STCVAL        4 00000004 FFFFFFCF     F   15119 15477  15797M
1ACCT     (ACCT2025) (12:39) (15MAR04) Ordinary Symbol and Literal Cross Reference                                          Page  139
 STCVAL$       4 00000008 FFFFFFCF     F   15120 15478  15858M
 STCWA        28 00000000 FFFFFFCF     J   15128 15150  15179U 15183  15191U 15227M 15227  15527  15529  15530
 SURCHARG      2 0000275E 00000001     H   22534 25496  26488
 SWCJCB        4 00000000 FFFFFFD0     F   14043 14151M 14290  14303  14442  14665  15050M
 SWCNAME      16 00000004 FFFFFFD0     X   14044 14215  14232  14418  14666  14713  14718
 SWCPLINE      2 00000F9C 00000001     H   15011 14975
 SWCPRT        4 00000F24 00000001     F   14963 16703
 SWCWA        20 00000000 FFFFFFD0     J   14051 14073  14102U 14106  14114U 14150M 14150  14927  14929  14930
 TIMEALL       2 0000031E 00000001     H   11249 10434B
 TIMEBLKS      8 0000296E 00000001     C   23352 23059
 TIMEDATE      1 00000000 0000001D     T   26489 26489  32240
 TIMEERR       1 00000005 00000001 A   N   23350 23041
 TIMEPRT       4 000000B8 00000001     F   10488 13976
 TIMESUM       2 0000015C 00000001     H   10615 10452B
 TMALL         2 00000130 00000001     H   10536 10500
 TMFALL      128 00000000 FFFFFFD3        10297 10426  10576M
 TMFLAG        1 00000000 FFFFFFD3     R   10293 10297
 TMWA          1 00000000 FFFFFFD3     J   10306 10328  10357U 10361  10369U 10377M 10477  10479  10480
 TRC           1 00000000 00000000 A   T    2125  2125
 TTYFLAG       1 00000004 FFFFFFEA     R    6213  6217
 TTYMAX#       1 00000006 FFFFFFEA A   U    6269  6270
 TTYTFLAG      1 00000005 FFFFFFEA     R    6223  6227   6232   6237   6242   6247   6252   6257
 UCE         100 00000000 FFFFFFDD     J    9878 11485  11532U 13273  13320U 21972  21982U 23096U 23182  23234  23246M
                                                 23246  23247M 23285M 23559U 23597  23649  23661M 23661  23662M 23700M
                                                 23883U 23899  24517U 24533  26186  26202U 28893U 28925  28937M 28939
                                                 29181U
 UCEBLK        8 0000001C FFFFFFDD     C    9856 11676  11681  13463  13468  23154  23579  24705  24887  24910  24933
                                                 26232
 UCECOMP      16 0000000C FFFFFFDD     C    9855  9858   9858  11630  11635  13355  13509  13514  22035  23585  24564
                                                 24585  24606  24623  24649  24674  24688  26231  29234
 UCECON$       4 00000038 FFFFFFDD     F    9861 25156M 26264  29216
 UCEECLK       8 00000030 FFFFFFDD     D    9860 11786  13619  24044  24056  24057M 25076  26235  29192
 UCEFLAG       1 00000008 FFFFFFDD     R    9845  9849  26233
 UCEKEY       32 0000000C FFFFFFDD     X    9858 23128  23214  23248M 23629  23663M
 UCELINK       4 00000004 FFFFFFDD     F    9841 11485  11547  13273  13335  21972  21997  23182  23195  23285M 23597
                                                 23610  23700M 25390  26186  26216  28934  28936M 29294
 UCEPROJ       8 00000024 FFFFFFDD     C    9857 11704M 11704  11739  11744  13537M 13537  13572  13577  23586  26230
 UCETIO        4 0000003C FFFFFFDD     F    9862 11826  13659  23974  23975M 25168  26266  29246
 UCETIO$       4 00000040 FFFFFFDD     F    9863 25220M 26267  29250
 UCEVCPU       4 00000054 FFFFFFDD     F    9868 11956  13789  22100  24121  24122M 25316  26277  29276
 UCEVCPU$      4 00000058 FFFFFFDD     F    9869 25348M 26283  29280
 UCEVIO        4 0000005C FFFFFFDD     F    9870 12044  13877  22132  24156  24157M 25360  26284  29286
 UCEVIO$       4 00000060 FFFFFFDD     F    9871 25388M 26285  29290
 UCEWCPU       4 00000044 FFFFFFDD     F    9864 11847  13680  22164  25232  26268  29256
 UCEWCPU$      4 00000048 FFFFFFDD     F    9865 25264M 26274  29260
 UCEWIO        4 0000004C FFFFFFDD     F    9866 11935  13768  22196  25276  26275  29266
 UCEWIO$       4 00000050 FFFFFFDD     F    9867 25304M 26276  29270
 UIDDATA     268 00000040 FFFFFFDF     C    9724  9726
 UIDDL#        1 0000010C FFFFFFDF A   N    9715  9724   9730
 UIDKEY       64 00000000 FFFFFFDF     C    9723 30691M 30692M 30693M 30694M 30695M 30737  30737  30872  31179  31557M
                                                 31558M 31605M 31641M 31653  32251
 UIDKL#        1 00000040 FFFFFFDF A   N    9714  9723
 UIDREC      332 00000000 FFFFFFDF     J    9739 30612  30686U 30737  30847U 31154U 31362  31552U 31902U
 UIDUDATA    256 00000048 FFFFFFDF     X    9730 30899  30946  31202  31908
 UIDULEN       2 00000046 FFFFFFDF     H    9729 30900  31203  31907
 UPPTBL        1 00000000 00000000 A   T    2188  2188
 USEBLKCK      8 00000064 FFFFFFE3     X    8600 23005
 USEBLOCK      1 0000000F FFFFFFE3     X    8576 23011
 USERCVT     863 00000000 FFFFFFE3     J    8620 23001U
1ACCT     (ACCT2025) (12:39) (15MAR04) Ordinary Symbol and Literal Cross Reference                                          Page  140
 WAR           8 00000008 00000001 A   #    1035 10327M 10473  10546M 10587  10625M 11229  11259M 12116  12177M 12493
                                                 12581M 12641  12666M 12707  12745M 12894  12956M 13958  14072M 14923
                                                 15021M 15087  15149M 15523  15681M 15747  15772M 15808  15833M 15869
                                                 15929M 16279  16377M 16443  16508M 16680  16763M 16825  16846  16889M
                                                 17079  17145M 17335  17396M 17548  17568  17629M 17971  18030M 18103
                                                 18151  18180  18196  18262M 18306U 18997  19027M 19555  19593M 20827
                                                 20868M 21114  21139M 21298  21415M 21776  21836M 22311  22385M 22494
                                                 22544M 22793  22868M 23320  23419M 23768  23820M 24188  24287M 25429
                                                 25551M 25724  25805M 26463  26579M 26711  26776M 27344  27471M 28676
                                                 28828M 29022  29068M 29321  29355M 29523  29557M 29710  29752M 30197
                                                 30250M 30569  30639M 30757  30797M 31038  31062  31104M 31295  31319
                                                 31391M 31988  32056M 32209
 WBILL         2 00001AD0 00000001     H   18250 18246
 WBILLWA      24 00000000 FFFFFFCC     J   18241 18263  18292U 18306U 18314M 18314  19001  19003  19004
 WBILNAME      8 00000000 FFFFFFCC     C   18233 18381  18386  18402  18428  18454  18496  18688  18704  18709
 WBILNEXT      4 00001CBC 00000001     I   18947 18561B 18580B 18599B 18618B 18652B 18671B
 WBILTAG      16 00000008 FFFFFFCC     C   18234 18677M 18899  18904
 WCOUNT        2 0000132A 00000001     H   15917 15913
 WCTJCB        4 00000000 FFFFFFCE     F   15900 16008M 16119  16132  16406M
 WCTNAME      16 00000004 FFFFFFCE     X   15901 16072  16235
 WCTPLINE      2 00001520 00000001     H   16367 16331
 WCTPRT        4 000014A8 00000001     F   16319 16714
 WCTRCOPY      2 00001A4C 00000001     H   18020 26498
 WCTRFIND      2 00001876 00000001     H   17386 16708  21323
 WCTRINCR      2 000017DA 00000001     H   17135 16715  17131
 WCTRMAKE      2 000018DE 00000001     H   17619 21324
 WCTRSET       2 00001740 00000001     H   16879 16713
 WCTWA        20 00000000 FFFFFFCE     J   15908 15930  15959U 15963  15971U 16007M 16007  16283  16285  16286
 WCWA         16 00000000 FFFFFFCD     J   16487 16509  16538U 16684  16686  16687
 WCWANAME     16 00000000 FFFFFFCD     C   16480 16542M 16589M 16602M 16604  16716
 WTOSG         1 00000000 00000000 A   T    2085  2085
 WYLACCT       1 00000000 00000001     J     990   992   1017   1030   1043   1055   1068   1081   1094   1107   1120
                                                  1133   2369   2453   6193   6305   7004   7201   9822   9879   9924
                                                  9972  10061  10121  10148  10173  10197  10241  10276  10307  12157
                                                 12937
 =A(BILLUPD$)
               4 00000AF4 00000001     A   13991 11310  13049
 =A(BILLUPD$)
               4 00004278 00000001     A   32230 29124
 =A(BILLUPD)
               4 00000AF0 00000001     A   13990 11304  13043
 =A(BILLUPD)
               4 000026B4 00000001     A   22337 21962
 =A(BILLUPD)
               4 00003254 00000001     A   26485 25895
 =A(BILLUPD)
               4 00004274 00000001     A   32229 29118
 =A(CHKPROJ)
               4 000034FC 00000001     A   27391 27101
 =A(CPUFIX)
               4 00000AD0 00000001     A   13982 10762  10952  11850  11959  13683  13792
 =A(CPUFIX)
               4 00002394 00000001     A   21346 19753  19840  20297
 =A(CPUFIX)
               4 0000269C 00000001     A   22331 21481  21625  22248
 =A(CPUFIX)
               4 00002F10 00000001     A   25503 25235  25319
 =A(CPUFIX)
               4 0000327C 00000001     A   26495 26271  26280
1ACCT     (ACCT2025) (12:39) (15MAR04) Ordinary Symbol and Literal Cross Reference                                          Page  141
 =A(CTAHDRL)
               4 0000234C 00000001     A   21328 17781  17888
 =A(CTAMAX)
               4 00002350 00000001     A   21329 17845
 =A(DBMAXLN#)
               4 0000324C 00000001     A   26483 25863
 =A(DBMAXLN#-512)
               4 00003284 00000001     A   26497 26311  26333
 =A(DISPSC)
               4 00000B40 00000001     A   14000 12818
 =A(DOBILL)
               4 0000236C 00000001     A   21336 18691
 =A(DOBILL)
               4 00003248 00000001     A   26482 25674
 =A(GETACCT)
               4 000042D0 00000001     A   32252 32104
 =A(GETCOST)
               4 00000AC4 00000001     A   13979 10672
 =A(GETCOST)
               4 00002380 00000001     A   21341 19116  19633
 =A(GTUIDREC)
               4 000042C0 00000001     A   32248 30835  31142
 =A(L'CVARCOMP)
               4 000026B0 00000001     A   22336 21881  21893
 =A(L'SMFCCRC)
               4 00003280 00000001     A   26496 26297
 =A(L'SMFCTRC)
               4 00002354 00000001     A   21330 18141  18142
 =A(L'SMFCTRC)
               4 0000328C 00000001     A   26499 26352
 =A(L'SMFHDR)
               4 000042A4 00000001     A   32241 30304
 =A(L'SMFWCMD)
               4 00004284 00000001     A   32233 29412  29424
 =A(L'UIDKEY-3)
               4 000042CC 00000001     A   32251 31561  31573
 =A(L'WCWANAME)
               4 00001660 00000001     A   16716 16545  16557
 =A(SCOSTPRT)
               4 00000B34 00000001     A   13997 12246
 =A(SCRCEND-SMFSCRC)
               4 00003278 00000001     A   26494 26166
 =A(SCRCVER#)
               4 00003258 00000001     A   26486 25936
 =A(SMFIHDR)
               4 00003290 00000001     A   26500 26375
 =A(SMFIHDR)
               4 000034F8 00000001     A   27390 26855
 =A(SMFIHDR)
               4 00004288 00000001     A   32234 29486  29675
 =A(SMFWRITE)
               4 00003294 00000001     A   26501 26414
 =A(SMFWRITE)
               4 00003510 00000001     A   27396 27274  27296  27318
 =A(SMFWRITE)
               4 0000428C 00000001     A   32235 29506  29693
 =A(STCPRT)
               4 00001650 00000001     A   16712 15339
 =A(SURCHARG)
1ACCT     (ACCT2025) (12:39) (15MAR04) Ordinary Symbol and Literal Cross Reference                                          Page  142
               4 00002EF4 00000001     A   25496 25072  25164  25228  25272  25312  25356
 =A(SURCHARG)
               4 00003260 00000001     A   26488 25997
 =A(SWCPRT)
               4 0000161C 00000001     A   16703 14268
 =A(TIMEPRT)
               4 00000AB8 00000001     A   13976 10396
 =A(WCTPRT)
               4 00001658 00000001     A   16714 16097
 =A(WCTRCOPY)
               4 00003288 00000001     A   26498 26340
 =A(WCTRFIND)
               4 00001630 00000001     A   16708 14669  16608
 =A(WCTRFIND)
               4 00002338 00000001     A   21323 16806  16947  16988  17202  17243  17686
 =A(WCTRINCR)
               4 0000165C 00000001     A   16715 16238
 =A(WCTRMAKE)
               4 0000233C 00000001     A   21324 16965  17220
 =A(WCTRSET)
               4 00001654 00000001     A   16713 15482
 =A(X'000FFFFF')
               4 00002EE8 00000001     A   25493 24071
 =A(X'04000000')
               4 000027F8 00000001     A   22811 22438
 =A(0)         4 00004290 00000001     A   32236 29584  29596
 =A(1)         4 00000ADC 00000001     A   13985 10789  10979  11878  11987  13711  13820
 =A(1)         4 0000238C 00000001     A   21344 19163  19260  19390  19484  19685  19781  19868  20324  20698  21009
 =A(1)         4 000026AC 00000001     A   22335 21509  21653  22276
 =A(1)         4 00002808 00000001     A   22815 22475  22773
 =A(1)         4 00002EE4 00000001     A   25492 24051  25099  25127  25191  25259  25299  25343  25383
 =A(1)         4 00003274 00000001     A   26493 26108  26258
 =A(1)         4 0000350C 00000001     A   27395 27204
 =A(1)         4 0000427C 00000001     A   32231 29208  31719  31846
 =A(1000*10)
               4 00002F08 00000001     A   25501 25170  25278  25362
 =A(10000)
               4 00002EF8 00000001     A   25497 25078
 =A(10000)
               4 0000326C 00000001     A   26491 26087  26237
 =A(10000/2)
               4 00002EFC 00000001     A   25498 25090
 =A(10000/2)
               4 00003270 00000001     A   26492 26099  26249
 =A(1000000)
               4 00002384 00000001     A   21342 19142  19664
 =A(1000000/2)
               4 00002388 00000001     A   21343 19154  19676
 =A(170)       4 000042B0 00000001     A   32244 30413  30450
 =A(171)       4 000042B8 00000001     A   32246 30464
 =A(255)       4 000042AC 00000001     A   32243 30364
 =A(30*1000*384)
               4 00002F18 00000001     A   25505 25250  25334
 =A(30*60*1000)
               4 00002F04 00000001     A   25500 25118
 =A(32767)
               4 000042A8 00000001     A   32242 30318
 =A(384/2)
               4 00000AD8 00000001     A   13984 10780  10970  11869  11978  13702  13811
1ACCT     (ACCT2025) (12:39) (15MAR04) Ordinary Symbol and Literal Cross Reference                                          Page  143
 =A(384/2)
               4 000023A0 00000001     A   21349 19772  19859  20315
 =A(384/2)
               4 000026A8 00000001     A   22334 21500  21644  22267
 =A(384/2)
               4 00003508 00000001     A   27394 27195
 =A(4)         4 0000295C 00000001     A   23339 23034
 =A(5)         4 000023C0 00000001     A   21355 20689  21000
 =A(500*10)
               4 00002F0C 00000001     A   25502 25182  25290  25374
 =A(500)       4 00002804 00000001     A   22814 22466  22764
 =A(512)       4 00004294 00000001     A   32237 29603  29615
 =A(6)         4 000042C8 00000001     A   32250 31457  31930
 =A(60*1000*384)
               4 00002F14 00000001     A   25504 25238  25322
 =A(60*60*1000)
               4 00002F00 00000001     A   25499 25106
 =A(60)        4 00002390 00000001     A   21345 19173  19180
 =AL2(L'JCB)
               2 00000B62 00000001     R   14009 12285
 =AL2(L'SMFCCRC)
               2 00003298 00000001     R   26502 26170
 =AL2(L'SMFCTRC)
               2 0000329A 00000001     R   26503 26354
 =C'  TERMINAL I/O''S = '
              19 00000BB2 00000001     C   14016 11177
 =C' ($'       3 0000247A 00000001     C   21379 21020
 =C' ('        2 00000B5C 00000001     C   14006 11388
 =C' ('        2 000023D6 00000001     C   21359 18765
 =C' (session tag is '
              17 00000C01 00000001     C   14023 13189
 =C' '         1 00000C00 00000001     C   14022 13097  13485
 =C' '         1 000016E9 00000001     C   16725 14515  14573  14775  14833
 =C' and '
               5 00002443 00000001     C   21372 19316
 =C' billing record written for line '
              33 00002409 00000001     C   21368 18726
 =C' disk I/O''s'
              11 00002458 00000001     C   21375 20248
 =C' elapsed time'
              13 0000244B 00000001     C   21374 20155
 =C' hours'
               6 000023E2 00000001     C   21361 19247
 =C' is not logged on.'
              18 00000B76 00000001     C   14011 12432
 =C' is not logged on.'
              18 00001666 00000001     C   16718 14393  15464  16222
 =C' is out of bounds.'
              18 00000B64 00000001     C   14010 12348
 =C' minutes'
               8 00002320 00000001     C   21320 19377
 =C' seconds'
               8 00002328 00000001     C   21321 19471
 =C' terminal I/O''s'
              15 00002463 00000001     C   21376 20471
 =C' CPU seconds'
              12 000023B4 00000001     C   21354 20379
 =C' CPU SECONDS, '
              14 00000B4C 00000001     C   14004 10844  11034
1ACCT     (ACCT2025) (12:39) (15MAR04) Ordinary Symbol and Literal Cross Reference                                          Page  144
 =C' DISK I/O''S'
              11 00000B98 00000001     C   14014 11075
 =C' FILE I/O''S'
              11 00000B8D 00000001     C   14013 10885
 =C'.  '       3 00002448 00000001     C   21373 19530
 =C'.'         1 00000BFA 00000001     C   14020 11652  11715  13143  13548
 =C'.'         1 0000242A 00000001     C   21369 18811  21242
 =C'(Not billed)'
              12 000023C4 00000001     C   21356 20769
 =C'$'         1 00002484 00000001     C   21381 21194
 =C'* '        2 000026C2 00000001     C   22339 22061
 =C') '        2 00002402 00000001     C   21365 21085
 =C'):'        2 00000B60 00000001     C   14008 11445  13258
 =C')'         1 0000242B 00000001     C   21370 18857
 =C', session '
              10 000023D8 00000001     C   21360 18875
 =C'>'         1 00000BF9 00000001     C   14019 11590  13423
 =C': '        2 00000B4A 00000001     C   14003 10744  10934
 =C'does not exist.'
              15 000016EA 00000001     C   16726 14735
 =C'gg.uuu_IDLIST'
              13 000042DD 00000001     C   32256 30692
 =C'session charges: $'
              18 000023F0 00000001     C   21364 20653
 =C'AIRHQ'
               5 00003925 00000001     C   28755 28160
 =C'ALL '      4 00001628 00000001     C   16706 14418
 =C'Components                Elapsed  '
              35 00000BD6 00000001     C   14018 11490
 =C'Counter             Value   Value$'
              34 00001678 00000001     C   16719 14428
 =C'Counter '
               8 000015D8 00000001     C   16698 14689
 =C'Current '
               8 00002330 00000001     C   21322 20619
 =C'CA'        2 000038BC 00000001     C   28741 28288
 =C'CIPHQ'
               5 00003962 00000001     C   28762 28252
 =C'CLSHQ'
               5 0000399F 00000001     C   28771 28449
 =C'COS'       3 00002477 00000001     C   21378 20610
 =C'CRASH '
               6 00003514 00000001     C   27397 26650
 =C'DAY     '
               8 000034C0 00000001     C   27383 26871
 =C'DE'        2 00003862 00000001     C   28728 27738
 =C'DMOED'
               5 000038F5 00000001     C   28749 28022
 =C'DMOHQ'
               5 00003970 00000001     C   28764 28311
 =C'DN'        2 00002F2E 00000001     C   25511 24842
 =C'DV'        2 00002F30 00000001     C   25512 24856
 =C'D1'        2 00002F2A 00000001     C   25509 24806
 =C'D1'        2 00003860 00000001     C   28727 27611
 =C'D2'        2 00003864 00000001     C   28729 27758
 =C'D3'        2 00003866 00000001     C   28730 27778
 =C'D5'        2 00003868 00000001     C   28731 27798
 =C'D6'        2 0000386A 00000001     C   28732 27818
 =C'D9'        2 00002F2C 00000001     C   25510 24820
1ACCT     (ACCT2025) (12:39) (15MAR04) Ordinary Symbol and Literal Cross Reference                                          Page  145
 =C'EC'        2 00003898 00000001     C   28737 27992
 =C'ELAPSED TIME = '
              15 00000BA3 00000001     C   14015 11121
 =C'EMS_'      4 00002EF0 00000001     C   25495 24674
 =C'EMS_'      4 00003854 00000001     C   28723 28561
 =C'EMSGB'
               5 000039CD 00000001     C   28777 28567
 =C'EVENING '
               8 000034C8 00000001     C   27384 26894
 =C'FOLEC'
               5 000038E1 00000001     C   28747 27969  28357
 =C'FOLIO_'
               6 00002F1E 00000001     C   25507 24585
 =C'FOLIO_AIR '
              10 000038B2 00000001     C   28740 28154
 =C'FOLIO_BOOKSTORE '
              16 00003800 00000001     C   28716 28177
 =C'FOLIO_COMMINFO '
              15 00003953 00000001     C   28761 28246
 =C'FOLIO_GENERAL '
              14 00003888 00000001     C   28735 27948
 =C'FOLIO_HBR '
              10 0000389A 00000001     C   28738 28062
 =C'FOLIO_HOOVER '
              13 000038FA 00000001     C   28750 28039
 =C'FOLIO_IAP_ERIC '
              15 00003916 00000001     C   28754 28131
 =C'FOLIO_IAP_INSPEC'
              16 000037F0 00000001     C   28715 28085
 =C'FOLIO_IAP_PSY '
              14 000038A4 00000001     C   28739 28108
 =C'FOLIO_INVEST '
              13 0000392F 00000001     C   28757 28200
 =C'FOLIO_MLKING '
              13 00003941 00000001     C   28759 28223
 =C'FOLIO_SOCRATES '
              15 000038E6 00000001     C   28748 27986
 =C'FUCE'      4 0000426C 00000001     C   32227 28937
 =C'HBRED'
               5 0000390C 00000001     C   28752 28068
 =C'HPCED'
               5 00003907 00000001     C   28751 28045
 =C'IAPGB'
               5 00003911 00000001     C   28753 28091  28114  28137
 =C'ID_'       3 000042EB 00000001     C   32258 31558
 =C'INVHQ'
               5 0000393C 00000001     C   28758 28206
 =C'Line '
               5 00000BFB 00000001     C   14021 12308  12393  13058
 =C'Line '
               5 000016E4 00000001     C   16724 14354  15425  16183
 =C'LIBGW'
               5 000038D7 00000001     C   28745 27888
 =C'LINE '
               5 000016AF 00000001     C   16721 14232
 =C'LINE: invalid counter name.'
              27 000016B4 00000001     C   16722 14242
 =C'LINE: invalid option.'
              21 000016CF 00000001     C   16723 14328  15399  16157
1ACCT     (ACCT2025) (12:39) (15MAR04) Ordinary Symbol and Literal Cross Reference                                          Page  146
 =C'LOGOFF '
               7 0000351A 00000001     C   27398 26636
 =C'LOGON '
               6 0000329C 00000001     C   26504 26391
 =C'Missing counter name.'
              21 0000169A 00000001     C   16720 14208  16065
 =C'Missing counter name'
              20 0000163C 00000001     C   16711 15307
 =C'MLKHQ'
               5 0000394E 00000001     C   28760 28229
 =C'NIGHT   '
               8 000034D0 00000001     C   27385 26917
 =C'ORVYL_CPU '
              10 000026C4 00000001     C   22340 22093  22226
 =C'ORVYL_CPU'
               9 000026E1 00000001     C   22343 21557
 =C'ORVYL_IO '
               9 000026EA 00000001     C   22344 22125
 =C'ORVYL_IO'
               8 00002690 00000001     C   22329 21676
 =C'ORVYL'
               5 00000B88 00000001     C   14012 10710
 =C'OTHHQ'
               5 000039AF 00000001     C   28773 28472
 =C'PBLGB'
               5 000039D7 00000001     C   28779 28617
 =C'PEAK    '
               8 000034E0 00000001     C   27387 26963
 =C'PRISM_'
               6 00002F24 00000001     C   25508 24606
 =C'PRISM_CDS '
              10 000038C8 00000001     C   28743 28512
 =C'PRISM_CLASS '
              12 00003848 00000001     C   28722 28443
 =C'PRISM_EXTAPES '
              14 0000386C 00000001     C   28733 27882
 =C'PRISM_GENERAL'
              13 00002F35 00000001     C   25514 24623
 =C'PRISM_IPRIS '
              12 00003830 00000001     C   28720 27859
 =C'PRISM_MISC '
              11 000039A4 00000001     C   28772 28466
 =C'PRISM_NC '
               9 00003967 00000001     C   28763 28305
 =C'PRISM_NSI '
              10 000038BE 00000001     C   28742 28397
 =C'PRISM_PARTNERS '
              15 000039B4 00000001     C   28774 28489
 =C'PRISM_PUBEVENTS '
              16 00003810 00000001     C   28717 28351
 =C'PRISM_REFUNDS '
              14 0000387A 00000001     C   28734 27905
 =C'PRISM_SMAS '
              11 00003975 00000001     C   28765 28328
 =C'PRISM_SNAP '
              11 0000398F 00000001     C   28769 28420
 =C'PRISM_SUFIN '
              12 0000383C 00000001     C   28721 28374
 =C'PUBLISH '
1ACCT     (ACCT2025) (12:39) (15MAR04) Ordinary Symbol and Literal Cross Reference                                          Page  147
               8 00002EC8 00000001     C   25487 24649
 =C'PUBLISH '
               8 00003828 00000001     C   28719 28611
 =C'REFGA'
               5 000038DC 00000001     C   28746 27911
 =C'Session time for '
              17 00000BC5 00000001     C   14017 11319
 =C'SBSEC'
               5 0000392A 00000001     C   28756 28183
 =C'SCIP'      4 00002958 00000001     C   23338 22986
 =C'SFNHQ'
               5 00003985 00000001     C   28767 28380
 =C'SIN'       3 00002406 00000001     C   21367 18649
 =C'SIN'       3 000032A2 00000001     C   26505 26035
 =C'SMSHQ'
               5 00003980 00000001     C   28766 28334
 =C'SNPHQ'
               5 0000399A 00000001     C   28770 28426
 =C'SSSHQ'
               5 0000398A 00000001     C   28768 28403
 =C'SYS_'      4 00000B44 00000001     C   14001 13355
 =C'SYS_'      4 00002EEC 00000001     C   25494 24564
 =C'SYS_'      4 00003858 00000001     C   28724 28639
 =C'SYS_'      4 00004280 00000001     C   32232 29234
 =C'SYSA'      4 000042B4 00000001     C   32245 30427
 =C'SYSC '
               5 00002472 00000001     C   21377 20561  20952
 =C'Term I/O  Wyl CPU  Wyl I/O  Orv CPU  Orv I/O'
              44 00000B00 00000001     C   13994 11508  13296
 =C'Timeblock Component       Elapsed  '
              35 00000C12 00000001     C   14024 13278
 =C'Total '
               6 000023EA 00000001     C   21363 20597
 =C'TEST'      4 00002368 00000001     C   21335 18496
 =C'TIPHQ'
               5 000039C8 00000001     C   28776 28518
 =C'TLCGE'
               5 000038D2 00000001     C   28744 27865
 =C'U'         1 000042EA 00000001     C   32257 30712  31873
 =C'Unable to allocate counter.  Counter space full.'
              48 000015E0 00000001     C   16699 15499  16255
 =C'UCE'       3 00002F32 00000001     C   25513 23899  24533
 =C'UCE'       3 000042DA 00000001     C   32255 28925
 =C'WEEKEND '
               8 000034D8 00000001     C   27386 26940
 =C'WIZGE'
               5 000039C3 00000001     C   28775 28495
 =C'WYLBUR_CPU '
              11 000026F3 00000001     C   22345 22157  22240
 =C'WYLBUR_CPU'
              10 000026B8 00000001     C   22338 21467
 =C'WYLBUR_IO '
              10 000026CE 00000001     C   22341 22189
 =C'WYLBUR_IO'
               9 000026D8 00000001     C   22342 21532
 =C'WYLGB'
               5 000039D2 00000001     C   28778 28590
 =C'WYLMAIL_'
               8 00002ED0 00000001     C   25488 24688
1ACCT     (ACCT2025) (12:39) (15MAR04) Ordinary Symbol and Literal Cross Reference                                          Page  148
 =C'WYLMAIL_'
               8 00003820 00000001     C   28718 28584
 =C'You were logged on for '
              23 0000242C 00000001     C   21371 19125
 =C'YA'        2 00003896 00000001     C   28736 27954  28007
 =C'0000000'
               7 0000247D 00000001     C   21380 21189
 =C'20'        2 0000385C 00000001     C   28725 27580
 =C'29'        2 0000385E 00000001     C   28726 27594
 =CL4'UCE'
               4 00002968 00000001     C   23342 23247
 =CL4'UCE'
               4 00002EDC 00000001     C   25490 23662
 =CL8'CRASH'
               8 00002318 00000001     C   21319 18454
 =CL8'CRASH'
               8 00003240 00000001     C   26481 25671
 =CL8'LOGOFF'
               8 00002310 00000001     C   21318 18428
 =CL8'LOGON'
               8 00002308 00000001     C   21317 18402
 =CL8'MILTEN  '
               8 000034E8 00000001     C   27388 27124
 =CL8'ORVYL   '
               8 000034F0 00000001     C   27389 27130
 =F'-1'        4 00004268 00000001     F   32226 28936
 =F'-4'        4 00003250 00000001     F   26484 25868
 =F'-4'        4 00004298 00000001     F   32238 29624
 =F'1'         4 00002340 00000001     F   21325 17271
 =F'10'        4 00000B30 00000001     F   13996 11856  11965  13689  13798
 =F'10'        4 00002398 00000001     F   21347 19759  19846  20677  20988
 =F'10'        4 000026A0 00000001     F   22332 21487  21631  22254
 =F'1000'      4 00002800 00000001     F   22813 22454  22752
 =F'1000'      4 0000325C 00000001     F   26487 25987
 =F'1000'      4 00003500 00000001     F   27392 27173  27243
 =F'384'       4 00000AD4 00000001     F   13983 10768  10958  11857  11966  13690  13799
 =F'384'       4 0000239C 00000001     F   21348 19760  19847  20303
 =F'384'       4 000026A4 00000001     F   22333 21488  21632  22255
 =F'384'       4 00003504 00000001     F   27393 27183
 =H'2'         2 000042D8 00000001     H   32254 30334
 =H'8'         2 0000296C 00000001     H   23343 23058
 =V(BTD)       4 000023D0 00000001     V   21357 21187
 =V(BTR)       4 00000AE0 00000001     V   13986 10814  11004  11903  12012  13736  13845
 =V(BTR)       4 000023A4 00000001     V   21350 19806  19893  20349  20723  21055
 =V(COLLOPTS)
               4 00000B3C 00000001     V   13999 12772
 =V(FMTCLCK)
               4 00002960 00000001     V   23340 23055
 =V(FMTTIME)
               4 00000AEC 00000001     V   13989 11141  11789  13622
 =V(FMTTIME)
               4 000023AC 00000001     V   21352 20120
 =V(FMTXDATE)
               4 00000AFC 00000001     V   13993 11412
 =V(FREECORE)
               4 00002348 00000001     V   21327 17771  17879  17902
 =V(FREECORE)
               4 00004270 00000001     V   32228 28942  28990
 =V(GETCORE)
1ACCT     (ACCT2025) (12:39) (15MAR04) Ordinary Symbol and Literal Cross Reference                                          Page  149
               4 00002344 00000001     V   21326 17752  17860
 =V(GETCORE)
               4 00002964 00000001     V   23341 23237
 =V(GETCORE)
               4 00002ED8 00000001     V   25489 23652
 =V(GETCPU)
               4 00002698 00000001     V   22330 21475
 =V(KEYGET)
               4 000042BC 00000001     V   32247 30715  31876
 =V(KWIO)      4 000042D4 00000001     V   32253 32139
 =V(LOCALTOD)
               4 00000AF8 00000001     V   13992 11405
 =V(LOCALTOD)
               4 00002EE0 00000001     V   25491 23996
 =V(LOCALTOD)
               4 00003268 00000001     V   26490 26079
 =V(LOCALTOD)
               4 0000429C 00000001     V   32239 29865
 =V(LRTRIM)
               4 000042C4 00000001     V   32249 31442
 =V(NOTVALID)
               4 00000B38 00000001     V   13998 12624
 =V(NOTVALID)
               4 00001638 00000001     V   16710 15071  15731  16427
 =V(NOTVALID)
               4 00002364 00000001     V   21334 18411  18437  18463  18507
 =V(NSCAN)
               4 00000ABC 00000001     V   13977 10400  12250
 =V(NSCAN)
               4 00001610 00000001     V   16700 14174  14272  15273  15343  16031  16101
 =V(NSCAN)
               4 00002358 00000001     V   21331 18336
 =V(SCANCHK)
               4 00000AC0 00000001     V   13978 10414  12264
 =V(SCANCHK)
               4 00001614 00000001     V   16701 14188  14286  15287  15357  16045  16115
 =V(SCANCHK)
               4 0000235C 00000001     V   21332 18350
 =V(SCUPCASE)
               4 00002360 00000001     V   21333 18389
 =V(SEG)       4 00000ACC 00000001     V   13981 10756  10838  10856  10946  11028  11046  11087  11133  11168  11189
                                                 11331  11400  11436  11502  11618  11664  11727  11816  11927  12036
                                                 12320  12405  13070  13109  13137  13155  13183  13201  13290  13451
                                                 13479  13497  13560  13649  13760  13869
 =V(SEG)       4 00001620 00000001     V   16704 14366  14509  14527  14585  14701  14769  14787  14845  15437  16195
 =V(SEG)       4 00002374 00000001     V   21338 18738  18777  18805  18823  18851  18869  18887  19137  19295  19328
                                                 19425  19519  19542  19743  19977  20037  20097  20147  20167  20217
                                                 20260  20373  20391  20442  20483  20647  20665  20781  21032  21079
                                                 21097  21206  21236  21254
 =V(SEGB)      4 000023A8 00000001     V   21351 19830  19917  20747  21284
 =V(SEGCOL)
               4 00000B2C 00000001     V   13995 11780  13613
 =V(SEGCR)
               4 00000AE8 00000001     V   13988 10897  11112  11457  11482  11520  12088  12843  13270  13308  13921
 =V(SEGCR)
               4 0000162C 00000001     V   16707 14440  14639  14899
 =V(SEGCR)
               4 000023B0 00000001     V   21353 20289  20511  20593
 =V(SEGDC)
1ACCT     (ACCT2025) (12:39) (15MAR04) Ordinary Symbol and Literal Cross Reference                                          Page  150
               4 00000AE4 00000001     V   13987 10879  11069  11211  11844  11953  12062  12342  12426  13091  13677
                                                 13786  13895
 =V(SEGDC)
               4 00001624 00000001     V   16705 14387  14552  14610  14812  14870  15458  16216
 =V(SEGDC)
               4 00002378 00000001     V   21339 18759  19243  19373  19467  19713  19947  20007  20067  20242  20465
 =V(SEGT)      4 00000AC8 00000001     V   13980 10738  10928  11374  11646  11692  11755  13244  13525  13588
 =V(SEGT)      4 00002370 00000001     V   21337 18720  18915
 =V(SEGTB)
               4 00001634 00000001     V   16709 14729
 =V(SEGWR)
               4 0000237C 00000001     V   21340 18940  20815
 =V(TIMEDATE)
               4 00003264 00000001     V   26489 26072
 =V(TIMEDATE)
               4 000042A0 00000001     V   32240 29869  30166
 =X'04000000'
               4 000027FC 00000001     X   22812 22444
 =X'40000000'
               4 00001618 00000001     X   16702 14219  15318  16076
 =Y((R1+1-(R0)+16*((R0)/(R1+1))/((R0)/(R1+1)))*4)
               2 00002F1C 00000001     Y   25506 24059
 =Y((12+3)/4*4)
               2 00000B48 00000001     Y   14002 10406  12256
 =Y((12+3)/4*4)
               2 00001664 00000001     Y   16717 14180  14278  15279  15349  16037  16107
 =Y((12+3)/4*4)
               2 000023D4 00000001     Y   21358 18342
 =Y((32+3)/4*4)
               2 00000B5A 00000001     Y   14005 11171  11819  13652
 =Y((32+3)/4*4)
               2 000023E8 00000001     Y   21362 20150
 =Y((64+3)/4*4)
               2 00000B5E 00000001     Y   14007 11439
 =Y((8+3)/4*4)
               2 00002404 00000001     Y   21366 21287

1ACCT     (ACCT2025) (12:39) (15MAR04) Macro and Copy Code Source Summary                                                   Page  151
- Con Source                                        Volume    Members                        HLASM R4.0  2004/03/15 12.39
0     PRIMARY INPUT                                           CSECT    DROP     END      EX       LTORG    POP
                                                              PRINT    PUSH     START    USING
   L1 WYL.GS.WYL.WYLBUR.MACLIB                      SYSB05    AINFO    BASE     BTD      BTR      COLINFO  COMMENT
                                                              CONTROL  CP       CPLOCAL  CV       CVLOCAL  ERROR    FAIL
                                                              JCB      KAPUT    KREAD    RG       RTNCODES SCAN
                                                              SCANCB   SCANCHK  SCCBADR  SCKW     SCPOP    SCPUSH
                                                              SCUPCASE TCOL     TCR      TNUM     TSEG     TTYPE
                                                              TWRITE   UCE      VLTORG   XTRACE
   L2 WYL.GG.SYS.MACLIB                             SYSB05    $BC      $BFLKUP  $BV      $CCLKUP  $CRS     $CSS     $L
                                                              $LA      $LBLAD   $LEXP    $LOR     $REL     $RGLKUP
                                                              $USLKUP  ACALL    ADL      BEGIN    CEIL     CLEAR    CMPR
                                                              COMPROC  CSECT    DATA     DECR     DEFCC    DROP     DTEX
                                                              ELSE     ELSEIF   END      EX       EXIT     FLAG
                                                              FLOOR    GEN      HIBAL    IDENT    IF       INCR
                                                              LABEL    LC       LCALL    LCM      LOOP     LS       LT
                                                              LTH      LTORG    L3       MOVE     MOVEL    PEND     POP
                                                              PRETURN  PRINT    PROC     PUSH     QLTORG   RECORD   REG
                                                              REGS     SDL      SET      SETMSG   START    TEX
                                                              UNTIL    USING    VCALL    WHILE    WITH     XPROC
   L3 SYS3.IS.MACLIB                                SYSB05    KWR      PDB      SEG      SEGCB    SEGCOL   SEGCR
                                                              SEGDC    SEGLD    SEGWR    SIB      SIN      SMFACCT
                                                              SMFCCRC  SMFCTRC  SMFHDR   SMFKWR   SMFSCRC  SYSDEFN  UID
                                                              XPOP     XPUSH
   L4 SYS3.MACLIB                                   SYSB02    SCIPCVT  USERCVT  UTYPDEFN
   L5 SYS1.MACLIB                                   MVSBR9    CVT      IEESMCA  MODESET  SMFWTM   WTO
   L6 SYS1.MODGEN                                   MVSBR9    IEZBITS

1ACCT     (ACCT2025) (12:39) (15MAR04) Dsect Cross Reference                                                                Page  152
-Dsect     Length      Id       Defn                                                         HLASM R4.0  2004/03/15 12.39
0$$$@R0   00000000  FFFFFFFE     705
 $$$@R1   00000000  FFFFFFFD     718
 $$$@R10  00000000  FFFFFFF4     835
 $$$@R11  00000000  FFFFFFF3     848
 $$$@R12  00000000  FFFFFFF2     861
 $$$@R13  00000000  FFFFFFF1     874
 $$$@R14  00000000  FFFFFFF0     887
 $$$@R15  00000000  FFFFFFEF     900
 $$$@R2   00000000  FFFFFFFC     731
 $$$@R3   00000000  FFFFFFFB     744
 $$$@R4   00000000  FFFFFFFA     757
 $$$@R5   00000000  FFFFFFF9     770
 $$$@R6   00000000  FFFFFFF8     783
 $$$@R7   00000000  FFFFFFF7     796
 $$$@R8   00000000  FFFFFFF6     809
 $$$@R9   00000000  FFFFFFF5     822
 $$$RBILLWA
          00000040  FFFFFFCA   22829
 $$$RBTWA 00000020  FFFFFFC9   23383
 $$$RBUDWA
          00000003  FFFFFFC8   24228
 $$$RCHKAWA
          000001F8  FFFFFFC2   32022
 $$$RCHKPWA
          00000001  FFFFFFC5   27425
 $$$RCOSTCB
          00000034  FFFFFFD4   10246
 $$$RCP   00001000  FFFFFFEC    2458
 $$$RCTAREA
          00000008  FFFFFFD7   10153
 $$$RCV   00000FB0  FFFFFFEE    1183
 $$$RCVARWA
          00000022  FFFFFFCB   21800
 $$$RDBWA 0000000C  FFFFFFC7   25768
 $$$RDCWA 0000012A  FFFFFFC6   26738
 $$$RDEV  0000000C  FFFFFFEB    4672
 $$$RDSCWA
          00000001  FFFFFFD1   12915
 $$$RGETAWA
          00000158  FFFFFFC3   31353
 $$$RGETUWA
          00000154  FFFFFFC4   30605
 $$$RJCB  000000D0  FFFFFFE0    9422
 $$$RKWR  000001F8  FFFFFFE1    9211
 $$$RNSCNCB
          000000B0  FFFFFFED    2379
 $$$RSCOSTWA
          00000008  FFFFFFD2   12133
 $$$RSIN  000000E0  FFFFFFDE    9746
 $$$RSMFACCT
          00000062  FFFFFFDB    9930
 $$$RSMFCCRC
          00000060  FFFFFFD9   10067
 $$$RSMFCTRC
          00000020  FFFFFFD8   10127
1ACCT     (ACCT2025) (12:39) (15MAR04) Dsect Cross Reference                                                                Page  153
 $$$RSMFGLOG
          00000044  FFFFFFD6   10178
 $$$RSMFHDR
          00000038  FFFFFFDC    9885
 $$$RSMFKWR
          00000130  FFFFFFD5   10202
 $$$RSMFSCRC
          00000100  FFFFFFDA    9978
 $$$RSTCWA
          0000001C  FFFFFFCF   15112
 $$$RSWCWA
          00000014  FFFFFFD0   14037
 $$$RTMWA 00000001  FFFFFFD3   10285
 $$$RTTYPE
          0000010C  FFFFFFEA    6203
 $$$RUCE  00000064  FFFFFFDD    9828
 $$$RUIDREC
          0000014C  FFFFFFDF    9708
 $$$RUSERCVT
          0000035F  FFFFFFE3    8537
 $$$RWBILLWA
          00000018  FFFFFFCC   18227
 $$$RWCTWA
          00000014  FFFFFFCE   15894
 $$$RWCWA 00000010  FFFFFFCD   16474
 $$$R42   000000FE  FFFFFFE9    6310
 $$$R51   00000038  FFFFFFE8    7009
 CVT      00000500  FFFFFFE7    7398
 CVTVSTGX 00000050  FFFFFFE6    8418
 CVTXTNT1 0000000C  FFFFFFE5    8457
 CVTXTNT2 00000084  FFFFFFE4    8465
 HIBAL    00000000  FFFFFFFF     691
 SMCABASE 000001E0  FFFFFFE2    8802

1ACCT     (ACCT2025) (12:39) (15MAR04) Using Map                                                                            Page  154
-                                                                                            HLASM R4.0  2004/03/15 12.39
   Stmt  -----Location----- Action ----------------Using----------------- Reg Max    Last  Label and Using Text
           Count      Id           Type          Value    Range     Id        Disp   Stmt
0   922  00000000  FFFFFFFF USING  ORDINARY    00000000 00001000 FFFFFFEF  15 000   21676  @R15,15
    926  00000000  FFFFFFFF USING  ORDINARY    00000000 00001000 FFFFFFF0  14 002    2174  @R14,14
    930  00000000  FFFFFFFF USING  ORDINARY    00000000 00001000 FFFFFFF1  13 000          @R13,13
    934  00000000  FFFFFFFF USING  ORDINARY    00000000 00001000 FFFFFFF2  12 000          @R12,12
    938  00000000  FFFFFFFF USING  ORDINARY    00000000 00001000 FFFFFFF3  11 000          @R11,11
    942  00000000  FFFFFFFF USING  ORDINARY    00000000 00001000 FFFFFFF4  10 000          @R10,10
    946  00000000  FFFFFFFF USING  ORDINARY    00000000 00001000 FFFFFFF5   9 000          @R9,9
    950  00000000  FFFFFFFF USING  ORDINARY    00000000 00001000 FFFFFFF6   8 000          @R8,8
    954  00000000  FFFFFFFF USING  ORDINARY    00000000 00001000 FFFFFFF7   7 000          @R7,7
    958  00000000  FFFFFFFF USING  ORDINARY    00000000 00001000 FFFFFFF8   6 000          @R6,6
    962  00000000  FFFFFFFF USING  ORDINARY    00000000 00001000 FFFFFFF9   5 000          @R5,5
    966  00000000  FFFFFFFF USING  ORDINARY    00000000 00001000 FFFFFFFA   4 000          @R4,4
    970  00000000  FFFFFFFF USING  ORDINARY    00000000 00001000 FFFFFFFB   3 000          @R3,3
    974  00000000  FFFFFFFF USING  ORDINARY    00000000 00001000 FFFFFFFC   2 000          @R2,2
    978  00000000  FFFFFFFF USING  ORDINARY    00000000 00001000 FFFFFFFD   1 001   16589  @R1,1
    982  00000000  FFFFFFFF USING  ORDINARY    00000000 00001000 FFFFFFFE   0 000          @R0,0
    983  00000000  FFFFFFFF DROP                                            0              0
   1167  00000017  00000001 USING  ORDINARY    00000000 00001000 FFFFFFEC  11 D5A   22924  CP,CPR
   1176  00000017  00000001 USING  ORDINARY    00000000 00001000 FFFFFFEE  12 DFC   32060  CV,CVR
  10343  00000032  00000001 USING  ORDINARY    00000032 00001000 00000001   7 B16   10452  $$$53B,7
  10357  00000032  00000001 USING  ORDINARY    FFFFFFD8 00001000 FFFFFFD3   8 028   10361  TMWA-(4+36),R8
  10369  00000036  00000001 USING  ORDINARY    00000000 00001000 FFFFFFD3   6 000   10576  TMWA,R6
  10464  000000AA  00000001 USING  ORDINARY    00000000 00001000 FFFFFFF6   8 000          @R8,8
  10469  000000AA  00000001 USING  ORDINARY    00000000 00001000 FFFFFFF7   7 000          @R7,7
  10562  0000014A  00000001 USING  ORDINARY    0000014A 00001000 00000001   7 000          $$$58B,7
  10583  0000014E  00000001 USING  ORDINARY    00000000 00001000 FFFFFFF7   7 000          @R7,7
  10603  0000015C  00000001 USING  ORDINARY    00000000 00001000 FFFFFFF8   6 000          @R6,6
  10641  00000176  00000001 USING  ORDINARY    00000176 00001000 00000001   7 A3C   11211  $$$61B,7
  10665  0000017C  00000001 USING  ORDINARY    00000000 00001000 FFFFFFD4   6 02C   11196  COSTCB,R6
  11220  00000310  00000001 USING  ORDINARY    00000000 00001000 FFFFFFF8   6 000          @R6,6
  11225  00000310  00000001 USING  ORDINARY    00000000 00001000 FFFFFFF7   7 000          @R7,7
  11275  00000338  00000001 USING  ORDINARY    00000338 00001000 00000001   7 8C2   12093  $$$67B,7
  11294  0000033C  00000001 USING  ORDINARY    00000000 00001000 FFFFFFE0   5 070   11581  JCB,R5
  11343  00000366  00000001 USING  ORDINARY    00000000 00001000 FFFFFFDE   2 052   11358  SIN,R2
  11382  00000378  00000001 USING  ORDINARY    00000000 00001000 FFFFFFFC   2 000          @R2,2
  11532  000003F0  00000001 USING  ORDINARY    00000000 00001000 FFFFFFDD   4 05C   12044  UCE,R4
  12102  00000566  00000001 USING  ORDINARY    00000000 00001000 FFFFFFFA   4 000          @R4,4
  12107  00000566  00000001 USING  ORDINARY    00000000 00001000 FFFFFFF9   5 000          @R5,5
  12112  00000566  00000001 USING  ORDINARY    00000000 00001000 FFFFFFF7   7 000          @R7,7
  12193  0000058E  00000001 USING  ORDINARY    0000058E 00001000 00000001   7 66D   12467  $$$76B,7
  12207  0000058E  00000001 USING  ORDINARY    FFFFFFD8 00001000 FFFFFFD2   8 028   12211  SCOSTWA-(4+36),R8
  12219  00000592  00000001 USING  ORDINARY    00000000 00001000 FFFFFFD2   6 004   12696  SCOSTWA,R6
  12369  0000063E  00000001 USING  ORDINARY    00000000 00001000 FFFFFFE0   5 060   12465  JCB,R5
  12474  0000068A  00000001 USING  ORDINARY    00000000 00001000 FFFFFFF9   5 000          @R5,5
  12484  0000068E  00000001 USING  ORDINARY    00000000 00001000 FFFFFFF6   8 000          @R8,8
  12489  0000068E  00000001 USING  ORDINARY    00000000 00001000 FFFFFFF7   7 000          @R7,7
  12597  00000756  00000001 USING  ORDINARY    00000756 00001000 00000001   7 3E2   12624  $$$83B,7
  12637  00000768  00000001 USING  ORDINARY    00000000 00001000 FFFFFFF7   7 000          @R7,7
  12682  00000790  00000001 USING  ORDINARY    00000790 00001000 00000001   7 000          $$$87B,7
  12703  00000794  00000001 USING  ORDINARY    00000000 00001000 FFFFFFF7   7 000          @R7,7
  12723  000007A2  00000001 USING  ORDINARY    00000000 00001000 FFFFFFF8   6 000          @R6,6
  12761  000007BC  00000001 USING  ORDINARY    000007BC 00001000 00000001   7 384   12880  $$$90B,7
  12791  000007C6  00000001 USING  ORDINARY    00000000 00001000 FFFFFFE0   5 0D0   12850  JCB,R5
1ACCT     (ACCT2025) (12:39) (15MAR04) Using Map                                                                            Page  155
  12877  000007F6  00000001 USING  ORDINARY    00000000 00001000 FFFFFFF9   5 000          @R5,5
  12890  000007FE  00000001 USING  ORDINARY    00000000 00001000 FFFFFFF7   7 000          @R7,7
  12972  00000826  00000001 USING  ORDINARY    00000826 00001000 00000001   7 3EC   13930  $$$97B,7
  12986  00000826  00000001 USING  ORDINARY    FFFFFFD8 00001000 FFFFFFD1   8 028   13367  DSCWA-(4+36),R8
  13033  00000836  00000001 USING  ORDINARY    00000000 00001000 FFFFFFE0   5 070   13414  JCB,R5
  13213  000008CA  00000001 USING  ORDINARY    00000000 00001000 FFFFFFDE   2 052   13228  SIN,R2
  13252  000008DC  00000001 USING  ORDINARY    00000000 00001000 FFFFFFFC   2 000          @R2,2
  13320  00000916  00000001 USING  ORDINARY    00000000 00001000 FFFFFFDD   4 05C   13877  UCE,R4
  13939  00000AA6  00000001 USING  ORDINARY    00000000 00001000 FFFFFFFA   4 000          @R4,4
  13944  00000AA6  00000001 USING  ORDINARY    00000000 00001000 FFFFFFF9   5 000          @R5,5
  13949  00000AA6  00000001 USING  ORDINARY    00000000 00001000 FFFFFFF6   8 000          @R8,8
  13954  00000AA6  00000001 USING  ORDINARY    00000000 00001000 FFFFFFF7   7 000          @R7,7
  14088  00000C50  00000001 USING  ORDINARY    00000C50 00001000 00000001   7 A9A   14899  $$$110B,7
  14102  00000C50  00000001 USING  ORDINARY    FFFFFFD8 00001000 FFFFFFD0   8 028   14106  SWCWA-(4+36),R8
  14114  00000C54  00000001 USING  ORDINARY    00000000 00001000 FFFFFFD0   6 004   15050  SWCWA,R6
  14123  00000C54  00000001 USING  ORDINARY    00000000 00001000 FFFFFFD8   2 014   14847  SMFCTRC,R2
  14132  00000C54  00000001 USING  ORDINARY    00000000 00001000 FFFFFFD7   4 008   14464  CTAREA,R4
  14141  00000C54  00000001 USING  ORDINARY    00000000 00001000 FFFFFFE0   5 0A8   14443  JCB,R5
  14914  00000F16  00000001 USING  ORDINARY    00000000 00001000 FFFFFFF6   8 000          @R8,8
  14919  00000F16  00000001 USING  ORDINARY    00000000 00001000 FFFFFFF7   7 000          @R7,7
  14941  00000F24  00000001 USING  ORDINARY    00000000 00001000 FFFFFFFC   2 000          @R2,2
  14948  00000F24  00000001 USING  ORDINARY    00000000 00001000 FFFFFFFA   4 000          @R4,4
  14955  00000F24  00000001 USING  ORDINARY    00000000 00001000 FFFFFFF9   5 000          @R5,5
  15037  00000FB6  00000001 USING  ORDINARY    00000FB6 00001000 00000001   7 682   15071  $$$126B,7
  15083  00000FD4  00000001 USING  ORDINARY    00000000 00001000 FFFFFFF7   7 000          @R7,7
  15103  00000FE2  00000001 USING  ORDINARY    00000000 00001000 FFFFFFF8   6 000          @R6,6
  15165  00000FFC  00000001 USING  ORDINARY    00000FFC 00001000 00000001   7 6E8   15499  $$$130B,7
  15179  00000FFC  00000001 USING  ORDINARY    FFFFFFD8 00001000 FFFFFFCF   8 028   15183  STCWA-(4+36),R8
  15191  00001000  00000001 USING  ORDINARY    00000000 00001000 FFFFFFCF   6 00C   15858  STCWA,R6
  15200  00001000  00000001 USING  ORDINARY    00000000 00001000 FFFFFFD8   2 000          SMFCTRC,R2
  15209  00001000  00000001 USING  ORDINARY    00000000 00001000 FFFFFFD7   4 000          CTAREA,R4
  15218  00001000  00000001 USING  ORDINARY    00000000 00001000 FFFFFFE0   5 060   15443  JCB,R5
  15514  00001166  00000001 USING  ORDINARY    00000000 00001000 FFFFFFF6   8 000          @R8,8
  15519  00001166  00000001 USING  ORDINARY    00000000 00001000 FFFFFFF7   7 000          @R7,7
  15541  00001174  00000001 USING  ORDINARY    00000000 00001000 FFFFFFFC   2 000          @R2,2
  15548  00001174  00000001 USING  ORDINARY    00000000 00001000 FFFFFFFA   4 000          @R4,4
  15555  00001174  00000001 USING  ORDINARY    00000000 00001000 FFFFFFF9   5 000          @R5,5
  15697  000012A6  00000001 USING  ORDINARY    000012A6 00001000 00000001   7 392   15731  $$$139B,7
  15743  000012C4  00000001 USING  ORDINARY    00000000 00001000 FFFFFFF7   7 000          @R7,7
  15788  000012EC  00000001 USING  ORDINARY    000012EC 00001000 00000001   7 000          $$$143B,7
  15804  000012F0  00000001 USING  ORDINARY    00000000 00001000 FFFFFFF7   7 000          @R7,7
  15849  00001318  00000001 USING  ORDINARY    00001318 00001000 00000001   7 000          $$$146B,7
  15865  0000131C  00000001 USING  ORDINARY    00000000 00001000 FFFFFFF7   7 000          @R7,7
  15885  0000132A  00000001 USING  ORDINARY    00000000 00001000 FFFFFFF8   6 000          @R6,6
  15945  00001344  00000001 USING  ORDINARY    00001344 00001000 00000001   7 3A0   16255  $$$149B,7
  15959  00001344  00000001 USING  ORDINARY    FFFFFFD8 00001000 FFFFFFCE   8 028   15963  WCTWA-(4+36),R8
  15971  00001348  00000001 USING  ORDINARY    00000000 00001000 FFFFFFCE   6 004   16406  WCTWA,R6
  15980  00001348  00000001 USING  ORDINARY    00000000 00001000 FFFFFFD8   2 000          SMFCTRC,R2
  15989  00001348  00000001 USING  ORDINARY    00000000 00001000 FFFFFFD7   4 000          CTAREA,R4
  15998  00001348  00000001 USING  ORDINARY    00000000 00001000 FFFFFFE0   5 060   16201  JCB,R5
  16270  0000149A  00000001 USING  ORDINARY    00000000 00001000 FFFFFFF6   8 000          @R8,8
  16275  0000149A  00000001 USING  ORDINARY    00000000 00001000 FFFFFFF7   7 000          @R7,7
  16297  000014A8  00000001 USING  ORDINARY    00000000 00001000 FFFFFFFC   2 023   21266  @R2,2
  16304  000014A8  00000001 USING  ORDINARY    00000000 00001000 FFFFFFFA   4 000          @R4,4
  16311  000014A8  00000001 USING  ORDINARY    00000000 00001000 FFFFFFF9   5 000          @R5,5
  16393  0000153A  00000001 USING  ORDINARY    0000153A 00001000 00000001   7 0FE   16427  $$$157B,7
  16439  00001558  00000001 USING  ORDINARY    00000000 00001000 FFFFFFF7   7 000          @R7,7
  16459  00001566  00000001 USING  ORDINARY    00000000 00001000 FFFFFFF8   6 000          @R6,6
  16524  00001580  00000001 USING  ORDINARY    00001580 00001000 00000001   7 17A   16635  $$$161B,7
1ACCT     (ACCT2025) (12:39) (15MAR04) Using Map                                                                            Page  156
  16538  00001580  00000001 USING  ORDINARY    FFFFFFD8 00001000 FFFFFFCD   8 028   16604  WCWA-(4+36),R8
  16650  000015C2  00000001 USING  ORDINARY    00000000 00001000 FFFFFFD8   1 010   16654  SMFCTRC,R1
  16660  000015C6  00000001 USING  ORDINARY    00000000 00001000 FFFFFFFD   1 000          @R1,1
  16671  000015C6  00000001 USING  ORDINARY    00000000 00001000 FFFFFFF6   8 000          @R8,8
  16676  000015C6  00000001 USING  ORDINARY    00000000 00001000 FFFFFFF7   7 000          @R7,7
  16779  0000171A  00000001 USING  ORDINARY    0000171A 00001000 00000001   7 C1E   16817  $$$170B,7
  16797  0000171A  00000001 USING  ORDINARY    00000000 00001000 FFFFFFD8   1 014   16823  SMFCTRC,R1
  16837  00001732  00000001 USING  ORDINARY    00000000 00001000 FFFFFFFD   1 000          @R1,1
  16842  00001732  00000001 USING  ORDINARY    00000000 00001000 FFFFFFF7   7 000          @R7,7
  16905  0000175A  00000001 USING  ORDINARY    0000175A 00001000 00000001   7 BE2   17034  $$$174B,7
  16922  0000175A  00000001 USING  ORDINARY    00000000 00001000 FFFFFFD8   1 014   17016  SMFCTRC,R1
  16931  0000175A  00000001 USING  ORDINARY    00000000 00001000 FFFFFFD7   4 008   17050  CTAREA,R4
  16940  0000175A  00000001 USING  ORDINARY    00000000 00001000 FFFFFFE0   5 0A8   17022  JCB,R5
  17075  000017CC  00000001 USING  ORDINARY    00000000 00001000 FFFFFFF7   7 000          @R7,7
  17094  000017DA  00000001 USING  ORDINARY    00000000 00001000 FFFFFFFD   1 000          @R1,1
  17101  000017DA  00000001 USING  ORDINARY    00000000 00001000 FFFFFFFA   4 000          @R4,4
  17108  000017DA  00000001 USING  ORDINARY    00000000 00001000 FFFFFFF9   5 000          @R5,5
  17161  000017F4  00000001 USING  ORDINARY    000017F4 00001000 00000001   7 B4C   17290  $$$181B,7
  17178  000017F4  00000001 USING  ORDINARY    00000000 00001000 FFFFFFD8   1 010   17272  SMFCTRC,R1
  17187  000017F4  00000001 USING  ORDINARY    00000000 00001000 FFFFFFD7   4 008   17306  CTAREA,R4
  17196  000017F4  00000001 USING  ORDINARY    00000000 00001000 FFFFFFE0   5 0A8   17278  JCB,R5
  17331  00001868  00000001 USING  ORDINARY    00000000 00001000 FFFFFFF7   7 000          @R7,7
  17350  00001876  00000001 USING  ORDINARY    00000000 00001000 FFFFFFFD   1 000          @R1,1
  17357  00001876  00000001 USING  ORDINARY    00000000 00001000 FFFFFFFA   4 000          @R4,4
  17364  00001876  00000001 USING  ORDINARY    00000000 00001000 FFFFFFF9   5 000          @R5,5
  17412  00001890  00000001 USING  ORDINARY    00001890 00001000 00000001   7 040   17538  $$$188B,7
  17429  00001890  00000001 USING  ORDINARY    00000000 00001000 FFFFFFD8   1 000   17514  SMFCTRC,R1
  17438  00001890  00000001 USING  ORDINARY    00000000 00001000 FFFFFFD7   4 008   17486  CTAREA,R4
  17447  00001890  00000001 USING  ORDINARY    00000000 00001000 FFFFFFE0   5 0A8   17453  JCB,R5
  17564  000018D0  00000001 USING  ORDINARY    00000000 00001000 FFFFFFF7   7 000          @R7,7
  17583  000018DE  00000001 USING  ORDINARY    00000000 00001000 FFFFFFFD   1 000          @R1,1
  17590  000018DE  00000001 USING  ORDINARY    00000000 00001000 FFFFFFFA   4 000          @R4,4
  17597  000018DE  00000001 USING  ORDINARY    00000000 00001000 FFFFFFF9   5 000          @R5,5
  17645  000018F8  00000001 USING  ORDINARY    000018F8 00001000 00000001   7 A58   17957  $$$197B,7
  17662  000018F8  00000001 USING  ORDINARY    00000000 00001000 FFFFFFD8   1 014   17952  SMFCTRC,R1
  17671  000018F8  00000001 USING  ORDINARY    00000000 00001000 FFFFFFD7   4 008   17938  CTAREA,R4
  17680  000018F8  00000001 USING  ORDINARY    00000000 00001000 FFFFFFE0   5 0A8   17904  JCB,R5
  17967  00001A3E  00000001 USING  ORDINARY    00000000 00001000 FFFFFFF7   7 000          @R7,7
  17986  00001A4C  00000001 USING  ORDINARY    00000000 00001000 FFFFFFFD   1 000   25854  @R1,1
  17993  00001A4C  00000001 USING  ORDINARY    00000000 00001000 FFFFFFFA   4 000          @R4,4
  18000  00001A4C  00000001 USING  ORDINARY    00000000 00001000 FFFFFFF9   5 000          @R5,5
  18046  00001A66  00000001 USING  ORDINARY    00001A66 00001000 00000001   7 8EE   18163  $$$206B,7
  18063  00001A66  00000001 USING  ORDINARY    00000000 00001000 FFFFFFD7   4 008   18172  CTAREA,R4
  18072  00001A66  00000001 USING  ORDINARY    00000000 00001000 FFFFFFE0   5 0A8   18077  JCB,R5
  18192  00001AC2  00000001 USING  ORDINARY    00000000 00001000 FFFFFFF7   7 000          @R7,7
  18211  00001AD0  00000001 USING  ORDINARY    00000000 00001000 FFFFFFFA   4 000          @R4,4
  18218  00001AD0  00000001 USING  ORDINARY    00000000 00001000 FFFFFFF9   5 000          @R5,5
  18278  00001AEA  00000001 USING  ORDINARY    00001AEA 00001000 00000001   7 941   18977  $$$213B,7
  18292  00001AEA  00000001 USING  ORDINARY    FFFFFFD8 00001000 FFFFFFCC   8 000          WBILLWA-(4+36),R8
  18303  00001AEA  00000001 USING  ORDINARY    00000000 00001000 FFFFFFF6   8 000          @R8,8
  18306  00001AEA  00000001 USING  ORDINARY    00000000 00001000 FFFFFFCC   8 008   18899  WBILLWA,WAR
  18530  00001BA8  00000001 USING  ORDINARY    00000000 00001000 FFFFFFE0   5 0D0   18947  JCB,R5
  18633  00001BD6  00000001 USING  ORDINARY    00000000 00001000 FFFFFFDE   3 052   18677  SIN,R3
  18684  00001BF0  00000001 USING  ORDINARY    00000000 00001000 FFFFFFFB   3 000          @R3,3
  18974  00001CC8  00000001 USING  ORDINARY    00000000 00001000 FFFFFFF9   5 000          @R5,5
  18988  00001CD0  00000001 USING  ORDINARY    00000000 00001000 FFFFFFF6   8 000          @R8,8
  18993  00001CD0  00000001 USING  ORDINARY    00000000 00001000 FFFFFFF7   7 000          @R7,7
  19043  00001CF8  00000001 USING  ORDINARY    00001CF8 00001000 00000001   7 750   19542  $$$232B,7
  19111  00001D16  00000001 USING  ORDINARY    00000000 00001000 FFFFFFD4   6 000   19140  COSTCB,R6
1ACCT     (ACCT2025) (12:39) (15MAR04) Using Map                                                                            Page  157
  19551  00001E1A  00000001 USING  ORDINARY    00000000 00001000 FFFFFFF7   7 000          @R7,7
  19571  00001E28  00000001 USING  ORDINARY    00000000 00001000 FFFFFFF8   6 000          @R6,6
  19609  00001E42  00000001 USING  ORDINARY    00001E42 00001000 00000001   7 635   20815  $$$247B,7
  19628  00001E48  00000001 USING  ORDINARY    00000000 00001000 FFFFFFD4   6 030   20672  COSTCB,R6
  20823  000021CC  00000001 USING  ORDINARY    00000000 00001000 FFFFFFF7   7 000          @R7,7
  20844  000021DA  00000001 USING  ORDINARY    00000000 00001000 FFFFFFF8   6 000          @R6,6
  20884  000021F4  00000001 USING  ORDINARY    000021F4 00001000 00000001   7 286   21097  $$$263B,7
  21110  0000226A  00000001 USING  ORDINARY    00000000 00001000 FFFFFFF7   7 000          @R7,7
  21155  00002292  00000001 USING  ORDINARY    00002292 00001000 00000001   7 1F2   21287  $$$271B,7
  21294  000022F4  00000001 USING  ORDINARY    00000000 00001000 FFFFFFF7   7 000          @R7,7
  21431  000024A0  00000001 USING  ORDINARY    000024A0 00001000 00000001   7 241   21748  $$$274B,7
  21450  000024A4  00000001 USING  ORDINARY    00000000 00001000 FFFFFFE0   5 080   21684  JCB,R5
  21607  00002506  00000001 USING  ORDINARY    00000000 00001000 FFFFFFDE   2 0A8   21612  SIN,R2
  21618  0000250E  00000001 USING  ORDINARY    00000000 00001000 FFFFFFFC   2 000          @R2,2
  21726  00002548  00000001 USING  ORDINARY    00000000 00001000 FFFFFFDE   2 0AC   21738  SIN,R2
  21733  00002548  00000001 DROP                                           15              15
  21737  0000254E  00000001 USING  ORDINARY    00000000 00001000 FFFFFFEF  15 000   21877  @R15,15
  21744  00002552  00000001 USING  ORDINARY    00000000 00001000 FFFFFFFC   2 000          @R2,2
  21767  00002558  00000001 USING  ORDINARY    00000000 00001000 FFFFFFF9   5 000          @R5,5
  21772  00002558  00000001 USING  ORDINARY    00000000 00001000 FFFFFFF7   7 000          @R7,7
  21852  00002580  00000001 USING  ORDINARY    00002580 00001000 00000001   7 184   22276  $$$287B,7
  21866  00002580  00000001 USING  ORDINARY    FFFFFFD8 00001000 FFFFFFCB   8 03A   22240  CVARWA-(4+36),R8
  21951  000025BE  00000001 USING  ORDINARY    00000000 00001000 FFFFFFE0   5 070   22075  JCB,R5
  21982  000025CE  00000001 USING  ORDINARY    00000000 00001000 FFFFFFDD   4 05C   22196  UCE,R4
  22292  0000267E  00000001 USING  ORDINARY    00000000 00001000 FFFFFFFA   4 001   22714  @R4,4
  22297  0000267E  00000001 USING  ORDINARY    00000000 00001000 FFFFFFF9   5 000          @R5,5
  22302  0000267E  00000001 USING  ORDINARY    00000000 00001000 FFFFFFF6   8 000          @R8,8
  22307  0000267E  00000001 USING  ORDINARY    00000000 00001000 FFFFFFF7   7 000          @R7,7
  22401  00002724  00000001 USING  ORDINARY    00002724 00001000 00000001   7 0E4   22475  $$$311B,7
  22490  00002750  00000001 USING  ORDINARY    00000000 00001000 FFFFFFF7   7 000          @R7,7
  22560  00002778  00000001 USING  ORDINARY    00002778 00001000 00000001   7 090   22773  $$$317B,7
  22789  000027E6  00000001 USING  ORDINARY    00000000 00001000 FFFFFFF7   7 000          @R7,7
  22884  00002826  00000001 USING  ORDINARY    00002826 00001000 00000001   7 266   23278  $$$329B,7
  22898  00002826  00000001 USING  ORDINARY    FFFFFFD8 00001000 FFFFFFCA   8 054   23248  BILLWA-(4+36),R8
  22948  0000284E  00000001 USING  ORDINARY    00000000 00001000 FFFFFFE7  15 0CC   22954  CVT,R15
  22961  00002852  00000001 USING  ORDINARY    00000000 00001000 FFFFFFEF  15 000   22986  @R15,15
  23001  00002862  00000001 USING  ORDINARY    00000000 00001000 FFFFFFE3  15 064   23011  USERCVT,R15
  23008  00002866  00000001 DROP                                            2              2
  23012  0000286C  00000001 USING  ORDINARY    00000000 00001000 FFFFFFFC   2 000   23065  @R2,2
  23018  0000286C  00000001 USING  ORDINARY    00000000 00001000 FFFFFFEF  15 000          @R15,15
  23079  000028AA  00000001 USING  ORDINARY    00000000 00001000 FFFFFFE0   5 078   23292  JCB,R5
  23096  000028AA  00000001 USING  ORDINARY    00000000 00001000 FFFFFFDD   4 01C   23248  UCE,R4
  23301  00002944  00000001 USING  ORDINARY    00000000 00001000 FFFFFFFA   4 000          @R4,4
  23306  00002944  00000001 USING  ORDINARY    00000000 00001000 FFFFFFF9   5 000          @R5,5
  23311  00002944  00000001 USING  ORDINARY    00000000 00001000 FFFFFFF6   8 000          @R8,8
  23316  00002944  00000001 USING  ORDINARY    00000000 00001000 FFFFFFF7   7 000          @R7,7
  23378  0000299E  00000001 USING  ORDINARY    00000000 00001000 FFFFFFF3  11 000          @R11,11
  23435  000029B8  00000001 USING  ORDINARY    000029B8 00001000 00000001   7 524   23750  $$$344B,7
  23449  000029B8  00000001 USING  ORDINARY    FFFFFFD8 00001000 FFFFFFC9   8 040   23663  BTWA-(4+36),R8
  23471  000029C2  00000001 USING  ORDINARY    00000000 00001000 FFFFFFE0   5 0D0   23715  JCB,R5
  23559  000029E8  00000001 USING  ORDINARY    00000000 00001000 FFFFFFDD   4 024   23663  UCE,R4
  23742  00002A7A  00000001 USING  ORDINARY    00000000 00001000 FFFFFFFA   4 000          @R4,4
  23747  00002A7A  00000001 USING  ORDINARY    00000000 00001000 FFFFFFF9   5 000          @R5,5
  23759  00002A7E  00000001 USING  ORDINARY    00000000 00001000 FFFFFFF6   8 000          @R8,8
  23764  00002A7E  00000001 USING  ORDINARY    00000000 00001000 FFFFFFF7   7 000          @R7,7
  23786  00002A8C  00000001 USING  ORDINARY    00000000 00001000 FFFFFFEC  11 000          CP,CPR
  23803  00002A8C  00000001 USING  ORDINARY    00000000 00001000 FFFFFFF3  11 000          @R11,11
  23836  00002AA6  00000001 USING  ORDINARY    00002AA6 00001000 00000001   7 48C   24142  $$$360B,7
  23855  00002AA8  00000001 USING  ORDINARY    00000000 00001000 FFFFFFE0   5 098   24158  JCB,R5
1ACCT     (ACCT2025) (12:39) (15MAR04) Using Map                                                                            Page  158
  23883  00002AB2  00000001 USING  ORDINARY    00000000 00001000 FFFFFFDD   4 05C   24157  UCE,R4
  23944  00002ADE  00000001 USING  ORDINARY    00000000 00001000 FFFFFFDE   3 0AC   24133  SIN,R3
  24128  00002B84  00000001 DROP                                            2              2
  24132  00002B8A  00000001 USING  ORDINARY    00000000 00001000 FFFFFFFC   2 000          @R2,2
  24164  00002BA6  00000001 USING  ORDINARY    00000000 00001000 FFFFFFFB   3 000          @R3,3
  24169  00002BA6  00000001 USING  ORDINARY    00000000 00001000 FFFFFFFA   4 000          @R4,4
  24179  00002BA6  00000001 USING  ORDINARY    00000000 00001000 FFFFFFF9   5 000          @R5,5
  24184  00002BA6  00000001 USING  ORDINARY    00000000 00001000 FFFFFFF7   7 000          @R7,7
  24206  00002BB4  00000001 USING  ORDINARY    00000000 00001000 FFFFFFEC  11 000          CP,CPR
  24223  00002BB4  00000001 USING  ORDINARY    00000000 00001000 FFFFFFF3  11 000          @R11,11
  24303  00002BCE  00000001 USING  ORDINARY    00002BCE 00001000 00000001   7 367   25406  $$$373B,7
  24317  00002BCE  00000001 USING  ORDINARY    FFFFFFD8 00001000 FFFFFFC8   8 029   25352  BUDWA-(4+36),R8
  24339  00002BD6  00000001 USING  ORDINARY    00000000 00001000 FFFFFFE0   5 074   24487  JCB,R5
  24360  00002BDA  00000001 USING  ORDINARY    00000000 00001000 FFFFFFEC  15 B68   24473  CP,R15
  24479  00002C10  00000001 USING  ORDINARY    00000000 00001000 FFFFFFEF  15 000          @R15,15
  24514  00002C1A  00000001 USING  ORDINARY    00000000 00001000 FFFFFFF9   5 000          @R5,5
  24517  00002C1A  00000001 USING  ORDINARY    00000000 00001000 FFFFFFDD   5 060   25390  UCE,R5
  25400  00002E6A  00000001 USING  ORDINARY    00000000 00001000 FFFFFFF9   5 000          @R5,5
  25403  00002E6A  00000001 USING  ORDINARY    00000000 00001000 FFFFFFE0   5 000          JCB,5
  25415  00002E6E  00000001 USING  ORDINARY    00000000 00001000 FFFFFFF9   5 000          @R5,5
  25420  00002E6E  00000001 USING  ORDINARY    00000000 00001000 FFFFFFF6   8 000          @R8,8
  25425  00002E6E  00000001 USING  ORDINARY    00000000 00001000 FFFFFFF7   7 000          @R7,7
  25447  00002E7C  00000001 USING  ORDINARY    00000000 00001000 FFFFFFEC  11 000          CP,CPR
  25533  00002F42  00000001 USING  ORDINARY    00000000 00001000 FFFFFFF3  11 000          @R11,11
  25567  00002F5C  00000001 USING  ORDINARY    00002F5C 00001000 00000001   7 2EC   25711  $$$418B,7
  25593  00002F60  00000001 USING  ORDINARY    00000000 00001000 FFFFFFE0   5 0D0   25681  JCB,R5
  25708  00002FA0  00000001 USING  ORDINARY    00000000 00001000 FFFFFFF9   5 000          @R5,5
  25720  00002FA4  00000001 USING  ORDINARY    00000000 00001000 FFFFFFF7   7 000          @R7,7
  25742  00002FB2  00000001 USING  ORDINARY    00000000 00001000 FFFFFFEC  11 000          CP,CPR
  25763  00002FB2  00000001 USING  ORDINARY    00000000 00001000 FFFFFFF3  11 000          @R11,11
  25821  00002FCC  00000001 USING  ORDINARY    00002FCC 00001000 00000001   7 2DA   26423  $$$428B,7
  25835  00002FCC  00000001 USING  ORDINARY    FFFFFFD8 00001000 FFFFFFC7   8 030   26410  DBWA-(4+36),R8
  25849  00002FCE  00000001 USING  ORDINARY    00000000 00001000 FFFFFFE0   5 080   26421  JCB,R5
  25878  00002FEA  00000001 USING  ORDINARY    00000000 00001000 FFFFFFDA   6 100   26420  SMFSCRC,R6
  25931  00003006  00000001 USING  ORDINARY    00000000 00001000 FFFFFFDE   4 000          SIN,R4
  25949  00003016  00000001 USING  ORDINARY    00000000 00001000 FFFFFFEC   3 3C6   25959  CP,R3
  25966  0000303A  00000001 USING  ORDINARY    00000000 00001000 FFFFFFFB   3 000          @R3,3
  26016  00003066  00000001 USING  ORDINARY    00000000 00001000 FFFFFFFA   4 000          @R4,4
  26019  00003066  00000001 USING  ORDINARY    00000000 00001000 FFFFFFDE   3 052   26085  SIN,R3
  26132  000030C6  00000001 USING  ORDINARY    00000000 00001000 FFFFFFDE   4 0AC   26155  SIN,4
  26137  000030C6  00000001 USING  ORDINARY    00000000 00001000 FFFFFFFB   3 000          @R3,3
  26150  000030DE  00000001 DROP                                           15              15
  26154  000030E4  00000001 USING  ORDINARY    00000000 00001000 FFFFFFEF  15 003   30694  @R15,15
  26163  000030EC  00000001 USING  ORDINARY    00000000 00001000 FFFFFFFA   4 000          @R4,4
  26182  000030FC  00000001 USING  ORDINARY    00000000 00001000 FFFFFFD9   3 060   26294  SMFCCRC,R3
  26202  00003100  00000001 USING  ORDINARY    00000000 00001000 FFFFFFDD   4 060   26285  UCE,R4
  26325  000031BA  00000001 USING  ORDINARY    00000000 00001000 FFFFFFFA   4 000          @R4,4
  26439  0000322C  00000001 USING  ORDINARY    00000000 00001000 FFFFFFFB   3 003   29623  @R3,3
  26444  0000322C  00000001 USING  ORDINARY    00000000 00001000 FFFFFFF8   6 000          @R6,6
  26449  0000322C  00000001 USING  ORDINARY    00000000 00001000 FFFFFFF9   5 000          @R5,5
  26454  0000322C  00000001 USING  ORDINARY    00000000 00001000 FFFFFFF6   8 000          @R8,8
  26459  0000322C  00000001 USING  ORDINARY    00000000 00001000 FFFFFFF7   7 000          @R7,7
  26519  000032A5  00000001 USING  ORDINARY    00000000 00001000 FFFFFFEC  11 000          CP,CPR
  26562  000032A5  00000001 USING  ORDINARY    00000000 00001000 FFFFFFF3  11 000          @R11,11
  26595  000032C0  00000001 USING  ORDINARY    000032C0 00001000 00000001   7 25A   26689  $$$443B,7
  26614  000032C0  00000001 USING  ORDINARY    00000000 00001000 FFFFFFDA   6 100   26661  SMFSCRC,R6
  26702  000032F8  00000001 USING  ORDINARY    00000000 00001000 FFFFFFF8   6 000          @R6,6
  26707  000032F8  00000001 USING  ORDINARY    00000000 00001000 FFFFFFF7   7 000          @R7,7
  26792  00003320  00000001 USING  ORDINARY    00003320 00001000 00000001   7 1F0   27318  $$$450B,7
1ACCT     (ACCT2025) (12:39) (15MAR04) Using Map                                                                            Page  159
  26806  00003320  00000001 USING  ORDINARY    FFFFFFD8 00001000 FFFFFFC6   8 128   27307  DCWA-(4+36),R8
  26818  00003320  00000001 USING  ORDINARY    00000000 00001000 FFFFFFDA   6 000          SMFSCRC,R6
  26827  00003320  00000001 USING  ORDINARY    00000000 00001000 FFFFFFD9   5 048   27250  SMFCCRC,R5
  26836  00003320  00000001 USING  ORDINARY    00000000 00001000 FFFFFFDC   2 01C   27130  SMFHDR,R2
  27137  00003402  00000001 USING  ORDINARY    00000000 00001000 FFFFFFFC   2 000          @R2,2
  27146  00003402  00000001 USING  ORDINARY    00000000 00001000 FFFFFFDB   2 050   27251  SMFACCT,R2
  27335  000034AC  00000001 USING  ORDINARY    00000000 00001000 FFFFFFF6   8 000          @R8,8
  27340  000034AC  00000001 USING  ORDINARY    00000000 00001000 FFFFFFF7   7 000          @R7,7
  27359  000034BA  00000001 USING  ORDINARY    00000000 00001000 FFFFFFF8   6 000          @R6,6
  27366  000034BA  00000001 USING  ORDINARY    00000000 00001000 FFFFFFF9   5 000          @R5,5
  27373  000034BA  00000001 USING  ORDINARY    00000000 00001000 FFFFFFFC   2 000          @R2,2
  27487  0000353C  00000001 USING  ORDINARY    0000353C 00001000 00000001   7 49B   28640  $$$467B,7
  27501  0000353C  00000001 USING  ORDINARY    FFFFFFD8 00001000 FFFFFFC5   8 028   28544  CHKPWA-(4+36),R8
  27515  0000353C  00000001 USING  ORDINARY    00000000 00001000 FFFFFFD9   1 01F   28639  SMFCCRC,R1
  27524  0000353C  00000001 USING  ORDINARY    00000000 00001000 FFFFFFDC   2 014   28651  SMFHDR,R2
  27533  0000353C  00000001 USING  ORDINARY    00000000 00001000 FFFFFFDA   6 0AA   28288  SMFSCRC,R6
  28667  000037E2  00000001 USING  ORDINARY    00000000 00001000 FFFFFFF6   8 000          @R8,8
  28672  000037E2  00000001 USING  ORDINARY    00000000 00001000 FFFFFFF7   7 000          @R7,7
  28691  000037F0  00000001 USING  ORDINARY    00000000 00001000 FFFFFFFD   1 000          @R1,1
  28698  000037F0  00000001 USING  ORDINARY    00000000 00001000 FFFFFFFC   2 044   31641  @R2,2
  28705  000037F0  00000001 USING  ORDINARY    00000000 00001000 FFFFFFF8   6 000          @R6,6
  28793  000039DC  00000001 USING  ORDINARY    00000000 00001000 FFFFFFEC  11 000          CP,CPR
  28810  000039DC  00000001 USING  ORDINARY    00000000 00001000 FFFFFFF3  11 000          @R11,11
  28844  000039F6  00000001 USING  ORDINARY    000039F6 00001000 00000001   7 8E4   28990  $$$520B,7
  28863  000039F8  00000001 USING  ORDINARY    00000000 00001000 FFFFFFE0   5 0A8   29005  JCB,R5
  28893  00003A08  00000001 USING  ORDINARY    00000000 00001000 FFFFFFDD   4 004   28939  UCE,R4
  28957  00003A38  00000001 USING  ORDINARY    00000000 00001000 FFFFFFFA   4 000          @R4,4
  29013  00003A56  00000001 USING  ORDINARY    00000000 00001000 FFFFFFF9   5 000          @R5,5
  29018  00003A56  00000001 USING  ORDINARY    00000000 00001000 FFFFFFF7   7 000          @R7,7
  29040  00003A64  00000001 USING  ORDINARY    00000000 00001000 FFFFFFEC  11 C48   29456  CP,CPR
  29084  00003A7E  00000001 USING  ORDINARY    00003A7E 00001000 00000001   7 802   29303  $$$527B,7
  29103  00003A80  00000001 USING  ORDINARY    00000000 00001000 FFFFFFD4   6 030   29292  COSTCB,R6
  29137  00003A9E  00000001 USING  ORDINARY    00000000 00001000 FFFFFFE0   5 074   29143  JCB,R5
  29150  00003AA2  00000001 USING  ORDINARY    00000000 00001000 FFFFFFF9   5 000          @R5,5
  29181  00003AA8  00000001 USING  ORDINARY    00000000 00001000 FFFFFFDD   5 060   29294  UCE,R5
  29300  00003B54  00000001 USING  ORDINARY    00000000 00001000 FFFFFFF9   5 000          @R5,5
  29312  00003B58  00000001 USING  ORDINARY    00000000 00001000 FFFFFFF8   6 000          @R6,6
  29317  00003B58  00000001 USING  ORDINARY    00000000 00001000 FFFFFFF7   7 000          @R7,7
  29371  00003B80  00000001 USING  ORDINARY    00003B80 00001000 00000001   7 76E   29506  $$$534B,7
  29392  00003B86  00000001 USING  ORDINARY    00000000 00001000 FFFFFFD5   6 100   29456  SMFKWR,R6
  29514  00003BEE  00000001 USING  ORDINARY    00000000 00001000 FFFFFFF8   6 000          @R6,6
  29519  00003BEE  00000001 USING  ORDINARY    00000000 00001000 FFFFFFF7   7 000          @R7,7
  29573  00003C16  00000001 USING  ORDINARY    00003C16 00001000 00000001   7 682   29693  $$$541B,7
  29634  00003C3E  00000001 USING  ORDINARY    00000000 00001000 FFFFFFD6   6 044   29646  SMFGLOG,R6
  29701  00003C6C  00000001 USING  ORDINARY    00000000 00001000 FFFFFFF8   6 000          @R6,6
  29706  00003C6C  00000001 USING  ORDINARY    00000000 00001000 FFFFFFF7   7 000          @R7,7
  29735  00003C7A  00000001 USING  ORDINARY    00000000 00001000 FFFFFFF3  11 000          @R11,11
  29768  00003C94  00000001 USING  ORDINARY    00003C94 00001000 00000001   7 60C   30166  $$$546B,7
  29787  00003C96  00000001 USING  ORDINARY    00000000 00001000 FFFFFFE0   5 014   29875  JCB,R5
  29801  00003C98  00000001 USING  ORDINARY    00000000 00001000 FFFFFFDC   6 030   30168  SMFHDR,R6
  29823  00003CA2  00000001 USING  ORDINARY    00000000 00001000 FFFFFFE7   1 0C4   29829  CVT,R1
  29836  00003CA6  00000001 USING  ORDINARY    00000000 00001000 FFFFFFFD   1 000          @R1,1
  29847  00003CA6  00000001 USING  ORDINARY    00000000 00001000 FFFFFFE2   1 010   29853  SMCABASE,R1
  29860  00003CAC  00000001 USING  ORDINARY    00000000 00001000 FFFFFFFD   1 004   31954  @R1,1
  29885  00003CC0  00000001 USING  ORDINARY    00000000 00001000 FFFFFFEC   4 3F0   30163  CP,R4
  30175  00003D96  00000001 USING  ORDINARY    00000000 00001000 FFFFFFFA   4 000          @R4,4
  30183  00003D96  00000001 USING  ORDINARY    00000000 00001000 FFFFFFF8   6 000          @R6,6
  30188  00003D96  00000001 USING  ORDINARY    00000000 00001000 FFFFFFF9   5 003   32127  @R5,5
  30193  00003D96  00000001 USING  ORDINARY    00000000 00001000 FFFFFFF7   7 000          @R7,7
1ACCT     (ACCT2025) (12:39) (15MAR04) Using Map                                                                            Page  160
  30215  00003DA4  00000001 USING  ORDINARY    00000000 00001000 FFFFFFEC  11 000          CP,CPR
  30233  00003DA4  00000001 USING  ORDINARY    00000000 00001000 FFFFFFF3  11 000          @R11,11
  30266  00003DBE  00000001 USING  ORDINARY    00003DBE 00001000 00000001   7 51A   30543  $$$562B,7
  30286  00003DC2  00000001 USING  ORDINARY    00000000 00001000 FFFFFFDC   6 007   30509  SMFHDR,R6
  30560  00003EAE  00000001 USING  ORDINARY    00000000 00001000 FFFFFFF8   6 000          @R6,6
  30565  00003EAE  00000001 USING  ORDINARY    00000000 00001000 FFFFFFF7   7 000          @R7,7
  30587  00003EBC  00000001 USING  ORDINARY    00000000 00001000 FFFFFFEC  11 000          CP,CPR
  30655  00003ED6  00000001 USING  ORDINARY    00003ED6 00001000 00000001   7 414   30731  $$$576B,7
  30669  00003ED6  00000001 USING  ORDINARY    FFFFFFD8 00001000 FFFFFFC4   8 030   30737  GETUWA-(4+36),R8
  30686  00003EE2  00000001 USING  ORDINARY    00000000 00001000 FFFFFFDF   3 003   30695  UIDREC,R3
  30723  00003F16  00000001 USING  ORDINARY    00000000 00001000 FFFFFFFB   3 000   30737  @R3,3
  30748  00003F24  00000001 USING  ORDINARY    00000000 00001000 FFFFFFF6   8 000          @R8,8
  30753  00003F24  00000001 USING  ORDINARY    00000000 00001000 FFFFFFF7   7 000          @R7,7
  30813  00003F4C  00000001 USING  ORDINARY    00003F4C 00001000 00000001   7 3AE   31018  $$$580B,7
  30827  00003F4C  00000001 USING  ORDINARY    FFFFFFD8 00001000 FFFFFFC4   8 030   30991  GETUWA-(4+36),R8
  30847  00003F5E  00000001 USING  ORDINARY    00000000 00001000 FFFFFFDF   3 048   30946  UIDREC,R3
  31045  00003FC8  00000001 USING  ORDINARY    00000000 00001000 FFFFFFFB   3 000          @R3,3
  31053  00003FC8  00000001 USING  ORDINARY    00000000 00001000 FFFFFFF6   8 000          @R8,8
  31058  00003FC8  00000001 USING  ORDINARY    00000000 00001000 FFFFFFF7   7 000          @R7,7
  31120  00003FF0  00000001 USING  ORDINARY    00003FF0 00001000 00000001   7 316   31275  $$$594B,7
  31134  00003FF0  00000001 USING  ORDINARY    FFFFFFD8 00001000 FFFFFFC4   8 030   31248  GETUWA-(4+36),R8
  31154  00004002  00000001 USING  ORDINARY    00000000 00001000 FFFFFFDF   3 048   31203  UIDREC,R3
  31302  00004048  00000001 USING  ORDINARY    00000000 00001000 FFFFFFFB   3 000          @R3,3
  31310  00004048  00000001 USING  ORDINARY    00000000 00001000 FFFFFFF6   8 000          @R8,8
  31315  00004048  00000001 USING  ORDINARY    00000000 00001000 FFFFFFF7   7 000          @R7,7
  31407  00004070  00000001 USING  ORDINARY    00004070 00001000 00000001   7 2A2   31969  $$$605B,7
  31421  00004070  00000001 USING  ORDINARY    FFFFFFD8 00001000 FFFFFFC3   8 128   31892  GETAWA-(4+36),R8
  31552  000040E4  00000001 USING  ORDINARY    00000000 00001000 FFFFFFDF   4 003   31653  UIDREC,R4
  31661  00004120  00000001 USING  ORDINARY    00000000 00001000 FFFFFFFA   4 000          @R4,4
  31902  0000419E  00000001 USING  ORDINARY    00000000 00001000 FFFFFFDF   3 048   31908  UIDREC,R3
  31915  000041A6  00000001 USING  ORDINARY    00000000 00001000 FFFFFFFB   3 000          @R3,3
  31979  000041DA  00000001 USING  ORDINARY    00000000 00001000 FFFFFFF6   8 000          @R8,8
  31984  000041DA  00000001 USING  ORDINARY    00000000 00001000 FFFFFFF7   7 000          @R7,7
  32072  00004202  00000001 USING  ORDINARY    00004202 00001000 00000001   7 0D2   32167  $$$633B,7
  32086  00004202  00000001 USING  ORDINARY    FFFFFFD8 00001000 FFFFFFC2   8 028   32090  CHKAWA-(4+36),R8
  32098  00004206  00000001 USING  ORDINARY    00000000 00001000 FFFFFFE1   6 100   32193  KWR,R6
  32200  00004254  00000001 USING  ORDINARY    00000000 00001000 FFFFFFF6   8 000          @R8,8
  32205  00004254  00000001 USING  ORDINARY    00000000 00001000 FFFFFFF7   7 000          @R7,7

1         (ACCT2025) (12:39) (15MAR04) General Purpose Register Cross Reference                                             Page  161
- Register  References (M=modified, B=branch, U=USING, D=DROP, N=index)                      HLASM R4.0  2004/03/15 12.39
0    0(0)      982U   983D  2103   2171M  2171   2172M 10325  10385M 10385  10394  10395  10477M 10545  10591M 10624
             10690M 10711M 10745M 10804M 10845M 10868M 10868  10886M 10917M 10935M 10994M 11035M 11058M 11058  11076M
             11101M 11101  11122M 11135M 11157M 11178M 11200M 11200  11233M 11258  11320M 11363M 11389M 11446M 11471M
             11471  11491M 11509M 11569M 11591M 11635M 11653M 11681M 11716M 11744M 11769M 11786M 11805M 11833M 11893M
             11942M 12002M 12051M 12077M 12077  12120M 12175  12235M 12235  12244  12245  12309M 12331M 12331  12349M
             12394M 12415M 12415  12433M 12443M 12443  12460M 12497M 12580  12630  12645M 12665  12711M 12744  12814M
             12814  12832M 12832  12898M 12954  13005M 13005  13059M 13080M 13080  13098M 13126M 13144M 13172M 13190M
             13233M 13259M 13279M 13297M 13402M 13424M 13468M 13486M 13514M 13549M 13577M 13602M 13619M 13638M 13666M
             13726M 13775M 13835M 13884M 13910M 13910  13962M 14070  14160M 14160  14169  14170  14171  14198M 14198
             14209M 14218  14243M 14257M 14257  14266  14267  14329M 14355M 14376M 14376  14394M 14429M 14498M 14516M
             14541M 14574M 14599M 14628M 14628  14690M 14718M 14736M 14758M 14776M 14801M 14834M 14859M 14888M 14888
             14927M 15020  15046  15047M 15048M 15048  15091M 15147  15259M 15259  15268  15269  15270  15297M 15297
             15308M 15317  15328M 15328  15337  15338  15400M 15426M 15447M 15447  15465M 15477M 15500M 15527M 15680
             15706  15707M 15708M 15708  15751M 15771  15797  15812M 15832  15858  15873M 15927  16017M 16017  16026
             16027  16028  16055M 16055  16066M 16075  16086M 16086  16095  16096  16158M 16184M 16205M 16205  16223M
             16256M 16283M 16376  16402  16403M 16404M 16404  16447M 16506  16545  16557M 16562  16684M 16762  16822M
             16825  16850M 16888  17015  17083M 17144  17270M 17271M 17272  17339M 17395  17572M 17628  17748M 17749
             17763  17781M 17782  17783M 17784  17833M 17834M 17845  17857  17871  17888M 17889  17896M 17898M 17975M
             18029  18097M 18097  18103  18130  18140  18143M 18145  18147  18151  18169M 18171  18173  18180  18200M
             18260  18322M 18322  18331  18332  18333  18360M 18360  18386M 18709M 18727M 18748M 18748  18766M 18794M
             18812M 18840M 18858M 18876M 18904M 18929M 18929  19001M 19026  19126M 19232M 19232  19248M 19268M 19317M
             19362M 19362  19378M 19398M 19456M 19456  19472M 19492M 19531M 19559M 19592  19702M 19732M 19796M 19883M
             19936M 19966M 19996M 20026M 20056M 20086M 20114M 20136M 20156M 20173M 20174M 20187M 20231M 20231  20249M
             20278M 20278  20339M 20380M 20398M 20399M 20412M 20454M 20454  20472M 20500M 20500  20582M 20582  20598M
             20620M 20654M 20713M 20770M 20804M 20804  20831M 20867  21021M 21045M 21086M 21118M 21138  21177M 21195M
             21225M 21243M 21273M 21302M 21414  21477  21780M 21834  21881  21893M 21898  21899  22315M 22384  22498M
             22543  22797M 22866  22933M 22933  23005M 23234M 23324M 23417  23649M 23772M 23819  23908  24001M 24002M
             24004  24009M 24010M 24019M 24019  24029M 24029  24051M 24056M 24057  24060M 24071  24081M 24081  24088
             24192M 24285  24542  25433M 25550  25728M 25803  26042M 26053M 26053  26075  26084M 26085M 26086M 26087M
             26099  26235M 26236M 26237M 26249  26333M 26334M 26345  26351  26371M 26410M 26467M 26578  26715M 26774
             26851M 27270M 27292M 27314M 27348M 27469  28680M 28827  29026M 29067  29325M 29354  29407  29482M 29502M
             29527M 29556  29584  29596M 29603  29615M 29620  29656M 29658M 29671M 29689M 29714M 29751  29871  30163M
             30168  30201M 30249  30304  30318  30327  30334M 30335  30373  30573M 30637  30673M 30674  30710M 30761M
             30795  30831  30879M 30900M 30917M 30917  30939M 30945M 30995  30997M 30998  31038  31066M 31102  31138
             31186M 31203M 31252  31254M 31255  31295  31323M 31389  31435  31457  31561  31573M 31578  31654M 31674M
             31674  31721M 31732M 31732  31848M 31870M 31871  31907M 31930  31992M 32054  32136M 32213M
     1(1)      978U  2103   2166M  2167M  2173M 10325  10381M 10394N 10395N 10397N 10477M 10545  10591M 10624  10669M
             10685M 10710M 10744M 10811M 10844M 10864M 10885M 10912M 10934M 11001M 11034M 11054M 11075M 11121M 11135M
             11177M 11196M 11233M 11258  11319M 11358M 11388M 11445M 11490M 11508M 11562M 11590M 11630M 11652M 11676M
             11715M 11739M 11786M 11826M 11900M 11935M 12009M 12044M 12120M 12175  12231M 12244N 12245N 12247N 12308M
             12327M 12348M 12393M 12411M 12432M 12497M 12580  12645M 12665  12711M 12744  12898M 12954  13058M 13076M
             13097M 13121M 13143M 13167M 13189M 13228M 13258M 13278M 13296M 13395M 13423M 13463M 13485M 13509M 13548M
             13572M 13619M 13659M 13733M 13768M 13842M 13877M 13962M 14070  14156M 14169N 14170N 14171N 14208M 14217
             14242M 14253M 14266N 14267N 14269N 14328M 14354M 14372M 14393M 14428M 14493M 14515M 14529M 14554M 14563M
             14563  14573M 14587M 14689M 14713M 14735M 14742  14753M 14775M 14789M 14814M 14823M 14823  14833M 14847M
             14927M 15020  15046M 15048M 15049M 15050  15062  15091M 15147  15255M 15268N 15269N 15270N 15307M 15316
             15324M 15337N 15338N 15340N 15399M 15425M 15443M 15464M 15478M 15499M 15527M 15680  15706M 15708M 15709M
             15710  15722  15751M 15771  15812M 15832  15873M 15927  16013M 16026N 16027N 16028N 16065M 16074  16082M
             16095N 16096N 16098N 16157M 16183M 16201M 16222M 16255M 16283M 16376  16402M 16404M 16405M 16406  16418
             16447M 16506  16650U 16660U 16684M 16762  16797U 16823M 16825  16837U 16850M 16888  16922U 16942  17033
             17040  17047  17051  17083M 17094U 17144  17178U 17289  17296  17303  17307  17339M 17350U 17395  17429U
             17484M 17485  17500  17520M 17520N 17537  17548  17572M 17583U 17628  17662U 17779  17780  17785M 17887
             17889N 17892N 17893  17897M 17898M 17899M 17905M 17933M 17934M 17975M 17986U 18029  18144  18170  18200M
             18260  18318M 18331N 18332N 18333N 18381M 18688M 18704M 18726M 18744M 18765M 18789M 18811M 18835M 18857M
             18875M 18899M 19001M 19026  19113M 19125M 19228M 19247M 19316M 19358M 19377M 19452M 19471M 19530M 19559M
1         (ACCT2025) (12:39) (15MAR04) General Purpose Register Cross Reference                                             Page  162
             19592  19630M 19695M 19725M 19803M 19890M 19929M 19959M 19989M 20019M 20049M 20079M 20114M 20155M 20202M
             20227M 20248M 20346M 20379M 20427M 20450M 20471M 20541  20541  20597M 20619M 20653M 20720M 20769M 20831M
             20867  20926  20926  21020M 21052M 21085M 21118M 21138  21184M 21194M 21218M 21242M 21266M 21302M 21414
             21780M 21834  21938M 22315M 22384  22498M 22543  22569  22797M 22866  22935M 22935  23005M 23160M 23239
             23324M 23417  23654  23772M 23819  23908  23999M 24004  24007M 24031M 24031  24044M 24057  24060M 24083M
             24083  24088  24192M 24285  24542  25069M 25160M 25224M 25268M 25308M 25352M 25433M 25550  25671M 25728M
             25803  25993M 26042M 26064M 26064  26074  26082M 26086M 26087M 26108M 26117  26235M 26236M 26237M 26258M
             26263  26335M 26336M 26344M 26345M 26346  26366M 26405M 26420M 26467M 26578  26618  26659M 26685M 26715M
             26774  26838  26850M 27093M 27263M 27285M 27307M 27348M 27469  27515U 28680M 28691U 28827  28853  28939M
             28964M 28965M 28965  28974M 28974  29026M 29067  29093  29325M 29354  29477M 29497M 29527M 29556  29656
             29657M 29658M 29666M 29684M 29714M 29751  29791  29813M 29823U 29829M 29836U 29847U 29860U 29871  30163M
             30168  30201M 30249  30276  30327  30373  30504M 30506M 30506  30509M 30515M 30517M 30517  30543M 30573M
             30637  30674  30705M 30761M 30795  30831  30832M 30872M 30899M 30936M 30946M 31066M 31102  31138  31139M
             31179M 31202M 31323M 31389  31434  31653M 31719M 31846M 31865M 31872  31908M 31992M 32054  32135M 32213M
     2(2)      974U  2103  10325  10477M 10545  10591M 10624  11233M 11258  11333M 11343U 11382U 12120M 12175  12497M
             12580  12645M 12665  12711M 12744  12898M 12954  13203M 13213U 13252U 13962M 14070  14123U 14215M 14220M
             14463M 14465  14477  14641M 14641N 14666M 14742M 14901M 14901N 14927M 14941U 15020  15091M 15147  15200U
             15314M 15319M 15479M 15527M 15541U 15680  15751M 15771  15812M 15832  15873M 15927  15980U 16072M 16077M
             16235M 16283M 16297U 16376  16447M 16506  16601M 16604M 16684M 16762  16850M 16888  17039M 17041  17044M
             17047M 17049M 17054M 17056M 17083M 17144  17295M 17297  17300M 17303M 17305M 17310M 17312M 17339M 17395
             17572M 17628  17975M 18029  18144M 18148M 18170M 18174M 18200M 18260  19001M 19026  19559M 19592  20112M
             20292M 20831M 20867  20975M 21014M 21038  21118M 21138  21165M 21184  21218  21302M 21414  21565M 21566M
             21566  21607U 21618U 21684M 21685M 21685  21726U 21744U 21780M 21834  22315M 22384  22498M 22543  22592M
             22592  22611M 22633M 22655M 22677M 22699M 22721M 22735M 22735  22751  22797M 22866  22936M 23008D 23010M
             23010  23011M 23012U 23034  23041M 23058M 23059M 23059N 23324M 23417  23772M 23819  23908  23951M 23952
             23976  24097M 24098M 24099  24123  24128D 24130M 24130  24131M 24132U 24133M 24134  24158  24192M 24285
             24542  25074M 25105  25166M 25169  25230M 25237  25274M 25277  25314M 25321  25358M 25361  25433M 25550
             25728M 25803  26467M 26578  26660M 26672M 26672  26684M 26715M 26774  26836U 26849M 27092N 27122M 27128M
             27137U 27146U 27151M 27215M 27221M 27348M 27373U 27469  27524U 28680M 28698U 28827  29026M 29067  29325M
             29354  29527M 29556  29620M 29651  29714M 29751  30201M 30249  30327  30373  30511M 30534M 30534  30573M
             30637  30711M 30761M 30795  30904M 30904  30937M 30945  30998M 31002M 31011M 31011  31018  31066M 31102
             31255M 31259M 31268M 31268  31275  31323M 31389  31617M 31871M 31992M 32054  32213M
     3(3)      970U  2103  10325  10477M 10545  10591M 10624  11233M 11258  12120M 12175  12497M 12580  12645M 12665
             12711M 12744  12898M 12954  13962M 14070  14216M 14220M 14464M 14465M 14477  14927M 15020  15091M 15147
             15315M 15319M 15527M 15680  15751M 15771  15812M 15832  15873M 15927  16073M 16077M 16283M 16376  16447M
             16506  16684M 16762  16850M 16888  16942M 17016  17023M 17033  17039  17040M 17041M 17043  17044M 17048M
             17049M 17055M 17056M 17083M 17144  17279M 17289  17295  17296M 17297M 17299  17300M 17304M 17305M 17311M
             17312M 17339M 17395  17485M 17486M 17500  17537  17572M 17628  17749M 17763  17814M 17815M 17815N 17827
             17857M 17871  17890M 17891M 17891N 17892  17936M 17937M 17937N 17938  17975M 18029  18145M 18148M 18171M
             18174M 18200M 18260  18608M 18609M 18609  18633U 18684U 19001M 19026  19174M 19452  19484  19559M 19592
             20831M 20867  21118M 21138  21302M 21414  21780M 21834  22315M 22384  22498M 22543  22797M 22866  23324M
             23417  23772M 23819  23908  23919M 23920M 23920  23944U 24164U 24192M 24285  24542  25433M 25550  25728M
             25803  25939M 25949U 25966U 26001M 26019U 26137U 26172M 26182U 26294M 26439U 26467M 26578  26661M 26685
             26715M 26774  27348M 27469  28680M 28827  28934M 28945  29026M 29067  29325M 29354  29527M 29556  29621M
             29671  29689  29714M 29751  30201M 30249  30327  30373  30573M 30637  30676M 30686U 30711M 30723U 30736M
             30761M 30795  30837M 30847U 31045U 31066M 31102  31144M 31154U 31302U 31323M 31389  31872M 31892M 31902U
             31915U 31992M 32054  32213M
     4(4)      966U  2103  10325  10477M 10545  10591M 10624  11233M 11258  11485M 11532U 11547M 11548M 11548  11581
             12102U 12120M 12175  12497M 12580  12645M 12665  12711M 12744  12898M 12954  13273M 13320U 13335M 13336M
             13336  13381  13414  13939U 13962M 14070  14132U 14217M 14220M 14443M 14452M 14452  14927M 14948U 15020
             15091M 15147  15209U 15316M 15319M 15527M 15548U 15680  15751M 15771  15812M 15832  15873M 15927  15989U
             16074M 16077M 16283M 16304U 16376  16447M 16506  16684M 16762  16850M 16888  16931U 17022M 17083M 17101U
             17144  17187U 17278M 17339M 17357U 17395  17438U 17453M 17462M 17462  17572M 17590U 17628  17671U 17747M
             17779M 17813M 17904M 17975M 17993U 18029  18063U 18077M 18088M 18088  18200M 18211U 18260  19001M 19026
             19140M 19141M 19142M 19154  19172M 19172  19173M 19174  19179M 19179  19180M 19203M 19203  19305M 19305
             19347M 19347  19358  19390  19559M 19592  20831M 20867  21118M 21138  21302M 21414  21780M 21834  21972M
             21982U 21997M 21998M 21998  22075  22292U 22315M 22384  22498M 22543  22569M 22797M 22866  23096U 23103M
             23104M 23104  23182M 23195M 23196M 23196  23220  23239M 23266  23267  23285  23286  23292  23301U 23324M
             23417  23534M 23535M 23535  23559U 23597M 23610M 23611M 23611  23635  23654M 23681  23682  23700  23701
1         (ACCT2025) (12:39) (15MAR04) General Purpose Register Cross Reference                                             Page  163
             23707  23742U 23772M 23819  23861M 23862M 23862  23883U 23908  24169U 24192M 24285  24542  24875M 24875
             24894M 24917M 24940M 24954M 24954  24976M 24988N 25018M 25018  25161N 25225N 25269N 25309N 25353N 25433M
             25550  25728M 25803  25921M 25931U 26016U 26132U 26163U 26186M 26202U 26216M 26217M 26217  26325U 26467M
             26578  26715M 26774  27348M 27469  28680M 28827  28870M 28893U 28908M 28908  28945M 28957U 29026M 29067
             29188M 29188  29325M 29354  29527M 29556  29714M 29751  29875M 29885U 30175U 30201M 30249  30327  30373
             30573M 30637  30712M 30761M 30795  30952M 30956M 30965M 30965  30972  30991M 30995  30997  31066M 31102
             31209M 31213M 31222M 31222  31229  31248M 31252  31254  31323M 31389  31542M 31552U 31661U 31873M 31992M
             32054  32213M
     5(5)      962U  2103  10325  10477M 10545  10591M 10624  11233M 11258  11284M 11294U 12107U 12120M 12175  12267M
             12284M 12285M 12286M 12298  12369U 12474U 12497M 12580  12645M 12665  12711M 12744  12775M 12791U 12815
             12850M 12866  12877U 12898M 12954  13023M 13033U 13944U 13962M 14070  14141U 14218M 14219M 14220M 14290M
             14442M 14665M 14927M 14955U 15020  15091M 15147  15218U 15317M 15318M 15319M 15361M 15527M 15555U 15680
             15751M 15771  15812M 15832  15873M 15927  15998U 16075M 16076M 16077M 16119M 16283M 16311U 16376  16447M
             16506  16605M 16684M 16762  16850M 16888  16940U 17083M 17108U 17144  17196U 17339M 17364U 17395  17447U
             17572M 17597U 17628  17680U 17975M 18000U 18029  18072U 18074M 18200M 18218U 18260  18514M 18530U 18947M
             18963  18974U 19001M 19026  19140M 19141M 19142M 19163M 19173M 19180M 19192M 19192  19217M 19217  19228
             19260  19559M 19592  20831M 20867  21118M 21138  21302M 21414  21440M 21450U 21767U 21780M 21834  21941M
             21951U 22297U 22315M 22384  22498M 22543  22797M 22866  23069M 23079U 23306U 23324M 23417  23455M 23471U
             23715M 23731  23747U 23772M 23819  23845M 23855U 23908  24179U 24192M 24285  24329M 24339U 24487M 24499M
             24499  24514U 24517U 24542  25390M 25400U 25403U 25415U 25433M 25550  25577M 25593U 25681M 25697  25708U
             25728M 25803  25839M 25849U 26449U 26467M 26578  26619M 26680  26715M 26774  26827U 26838M 27093  27348M
             27366U 27469  28680M 28827  28853M 28863U 29013U 29026M 29067  29127M 29137U 29143M 29150U 29166M 29166
             29181U 29294M 29300U 29325M 29354  29527M 29556  29714M 29751  29777M 29787U 30188U 30201M 30249  30275M
             30327  30350M 30350  30364  30373  30389M 30389  30413  30450  30464  30499  30573M 30637  30761M 30795
             30952M 30991M 31066M 31102  31209M 31248M 31323M 31389  31438M 31992M 32054  32101M 32213M
     6(6)      958U  2103  10325  10361M 10369U 10477M 10545  10591M 10603U 10624  10654M 10665U 10669  11220U 11233M
             11258  12120M 12175  12211M 12219U 12497M 12580  12645M 12665  12711M 12723U 12744  12898M 12954  13962M
             14070  14106M 14114U 14927M 15020  15091M 15103U 15147  15183M 15191U 15527M 15680  15751M 15771  15812M
             15832  15873M 15885U 15927  15963M 15971U 16283M 16376  16447M 16459U 16506  16684M 16762  16850M 16888
             17083M 17144  17339M 17395  17572M 17628  17975M 18029  18200M 18260  19001M 19026  19102M 19111U 19113
             19559M 19571U 19592  19619M 19628U 19630  20831M 20844U 20867  21118M 21138  21302M 21414  21780M 21834
             21970M 21970  22100M 22132M 22164M 22196M 22211  22315M 22384  22498M 22543  22797M 22866  23324M 23417
             23772M 23819  23908  24192M 24285  24542  25433M 25550  25728M 25803  25865M 25878U 26366  26405  26444U
             26467M 26578  26614U 26618M 26702U 26715M 26774  26818U 27348M 27359U 27469  27533U 27954  27992  28007
             28680M 28705U 28827  29026M 29067  29093M 29103U 29312U 29325M 29354  29381M 29392U 29477  29497  29514U
             29527M 29556  29622M 29634U 29666  29684  29701U 29714M 29751  29791M 29801U 30183U 30201M 30249  30276M
             30286U 30327  30373  30560U 30573M 30637  30761M 30795  31066M 31102  31323M 31389  31992M 32054  32090M
             32098U 32135  32213M
     7(7)      954U  2096M  2096   2097B  2103   2109B 10325  10331M 10343U 10469U 10477M 10545  10550M 10562U 10583U
             10591M 10624  10629M 10641U 11225U 11233M 11258  11263M 11275U 12112U 12120M 12175  12181M 12193U 12489U
             12497M 12580  12585M 12597U 12637U 12645M 12665  12670M 12682U 12703U 12711M 12744  12749M 12761U 12890U
             12898M 12954  12960M 12972U 13954U 13962M 14070  14076M 14088U 14919U 14927M 15020  15025M 15037U 15083U
             15091M 15147  15153M 15165U 15519U 15527M 15680  15685M 15697U 15743U 15751M 15771  15776M 15788U 15804U
             15812M 15832  15837M 15849U 15865U 15873M 15927  15933M 15945U 16275U 16283M 16376  16381M 16393U 16439U
             16447M 16506  16512M 16524U 16676U 16684M 16762  16767M 16779U 16842U 16850M 16888  16893M 16905U 17075U
             17083M 17144  17149M 17161U 17331U 17339M 17395  17400M 17412U 17564U 17572M 17628  17633M 17645U 17967U
             17975M 18029  18034M 18046U 18192U 18200M 18260  18266M 18278U 18993U 19001M 19026  19031M 19043U 19551U
             19559M 19592  19597M 19609U 20823U 20831M 20867  20872M 20884U 21110U 21118M 21138  21143M 21155U 21294U
             21302M 21414  21419M 21431U 21772U 21780M 21834  21840M 21852U 22307U 22315M 22384  22389M 22401U 22490U
             22498M 22543  22548M 22560U 22789U 22797M 22866  22872M 22884U 23316U 23324M 23417  23423M 23435U 23764U
             23772M 23819  23824M 23836U 23908  24184U 24192M 24285  24291M 24303U 24542  25425U 25433M 25550  25555M
             25567U 25720U 25728M 25803  25809M 25821U 26459U 26467M 26578  26583M 26595U 26707U 26715M 26774  26780M
             26792U 27340U 27348M 27469  27475M 27487U 28672U 28680M 28827  28832M 28844U 29018U 29026M 29067  29072M
             29084U 29317U 29325M 29354  29359M 29371U 29519U 29527M 29556  29561M 29573U 29706U 29714M 29751  29756M
             29768U 30193U 30201M 30249  30254M 30266U 30327  30373  30565U 30573M 30637  30643M 30655U 30753U 30761M
             30795  30801M 30813U 31058U 31066M 31102  31108M 31120U 31315U 31323M 31389  31395M 31407U 31984U 31992M
             32054  32060M 32072U 32205U 32213M
     8(8)      950U  2103  10325  10327M 10357U 10464U 10473  10477M 10545  10546M 10587  10591M 10624  10625M 11229
             11233M 11258  11259M 12116  12120M 12175  12177M 12207U 12484U 12493  12497M 12580  12581M 12641  12645M
1         (ACCT2025) (12:39) (15MAR04) General Purpose Register Cross Reference                                             Page  164
             12665  12666M 12707  12711M 12744  12745M 12894  12898M 12954  12956M 12986U 13949U 13958  13962M 14070
             14072M 14102U 14914U 14923  14927M 15020  15021M 15087  15091M 15147  15149M 15179U 15514U 15523  15527M
             15680  15681M 15747  15751M 15771  15772M 15808  15812M 15832  15833M 15869  15873M 15927  15929M 15959U
             16270U 16279  16283M 16376  16377M 16443  16447M 16506  16508M 16538U 16671U 16680  16684M 16762  16763M
             16825  16846  16850M 16888  16889M 17079  17083M 17144  17145M 17335  17339M 17395  17396M 17548N 17568
             17572M 17628  17629M 17971  17975M 18029  18030M 18103N 18151N 18180N 18196  18200M 18260  18262M 18292U
             18303U 18306U 18988U 18997  19001M 19026  19027M 19555  19559M 19592  19593M 20827  20831M 20867  20868M
             21114  21118M 21138  21139M 21298  21302M 21414  21415M 21776  21780M 21834  21836M 21866U 22302U 22311
             22315M 22384  22385M 22494  22498M 22543  22544M 22793  22797M 22866  22868M 22898U 23311U 23320  23324M
             23417  23419M 23449U 23759U 23768  23772M 23819  23820M 23908  24188  24192M 24285  24287M 24317U 24542
             25420U 25429  25433M 25550  25551M 25724  25728M 25803  25805M 25835U 26454U 26463  26467M 26578  26579M
             26711  26715M 26774  26776M 26806U 27335U 27344  27348M 27469  27471M 27501U 28667U 28676  28680M 28827
             28828M 29022  29026M 29067  29068M 29321  29325M 29354  29355M 29523  29527M 29556  29557M 29710  29714M
             29751  29752M 30197  30201M 30249  30250M 30327  30373  30569  30573M 30637  30639M 30669U 30748U 30757
             30761M 30795  30797M 30827U 31038N 31053U 31062  31066M 31102  31104M 31134U 31295N 31310U 31319  31323M
             31389  31391M 31421U 31979U 31988  31992M 32054  32056M 32086U 32200U 32209  32213M
     9(9)      946U  2103  23908  24542  30327  30373
    10(A)      942U  2103  23908  24542  30327  30373
    11(B)      938U  1167U  2103   7813B  7814B 23378U 23786U 23803U 23908  24206U 24223U 24542  25447U 25533U 25742U
             25763U 26519U 26562U 28793U 28810U 29040U 29735U 30215U 30233U 30327  30373  30587U
    12(C)      934U  1176U  2103  23908  24542  30327  30373
    13(D)      930U  2103  10322  10325  10327  10328M 10328  10389  10390  10391  10393M 10393  10406M 10407  10408
             10409  10473M 10477  10479  10542  10545  10546  10547M 10547  10587M 10591  10593  10621  10624  10625
             10626M 10626  10654  10655M 10655  11137  11138M 11138  11171M 11229M 11233  11235  11255  11258  11259
             11260M 11260  11408  11409M 11409  11439M 11784  11785M 11785  11819M 12116M 12120  12122  12172  12175
             12177  12178M 12178  12239  12240  12241  12243M 12243  12256M 12257  12258  12259  12493M 12497  12499
             12577  12580  12581  12582M 12582  12641M 12645  12647  12662  12665  12666  12667M 12667  12707M 12711
             12713  12741  12744  12745  12746M 12746  12894M 12898  12900  12951  12954  12956  12957M 12957  13617
             13618M 13618  13652M 13958M 13962  13964  14067  14070  14072  14073M 14073  14164  14165  14166  14168M
             14168  14180M 14181  14182  14183  14261  14262  14263  14265M 14265  14278M 14279  14280  14281  14923M
             14927  14929  15017  15020  15021  15022M 15022  15087M 15091  15093  15144  15147  15149  15150M 15150
             15263  15264  15265  15267M 15267  15279M 15280  15281  15282  15332  15333  15334  15336M 15336  15349M
             15350  15351  15352  15523M 15527  15529  15677  15680  15681  15682M 15682  15747M 15751  15753  15768
             15771  15772  15773M 15773  15808M 15812  15814  15829  15832  15833  15834M 15834  15869M 15873  15875
             15924  15927  15929  15930M 15930  16021  16022  16023  16025M 16025  16037M 16038  16039  16040  16090
             16091  16092  16094M 16094  16107M 16108  16109  16110  16279M 16283  16285  16373  16376  16377  16378M
             16378  16443M 16447  16449  16503  16506  16508  16509M 16509  16680M 16684  16686  16759  16762  16763
             16764M 16764  16846M 16850  16852  16885  16888  16889  16890M 16890  17042  17054  17079M 17083  17085
             17141  17144  17145  17146M 17146  17298  17310  17335M 17339  17341  17392  17395  17396  17397M 17397
             17568M 17572  17574  17625  17628  17629  17630M 17630  17971M 17975  17977  18026  18029  18030  18031M
             18031  18196M 18200  18202  18257  18260  18262  18263M 18263  18326  18327  18328  18330M 18330  18342M
             18343  18344  18345  18997M 19001  19003  19023  19026  19027  19028M 19028  19102  19103M 19103  19555M
             19559  19561  19589  19592  19593  19594M 19594  19619  19620M 19620  20116  20117M 20117  20150M 20827M
             20831  20833  20864  20867  20868  20869M 20869  21114M 21118  21120  21135  21138  21139  21140M 21140
             21165  21166M 21166  21287M 21298M 21302  21304  21411  21414  21415  21416M 21416  21776M 21780  21782
             21831  21834  21836  21837M 21837  22311M 22315  22317  22381  22384  22385  22386M 22386  22494M 22498
             22500  22540  22543  22544  22545M 22545  22793M 22797  22799  22863  22866  22868  22869M 22869  23320M
             23324  23326  23414  23417  23419  23420M 23420  23768M 23772  23774  23816  23819  23820  23821M 23821
             23908  24004  24005M 24005  24059M 24060  24188M 24192  24194  24282  24285  24287  24288M 24288  24542
             25429M 25433  25435  25547  25550  25551  25552M 25552  25724M 25728  25730  25800  25803  25805  25806M
             25806  25865  25866M 25867M 25867  25868M 26463M 26467  26469  26575  26578  26579  26580M 26580  26711M
             26715  26717  26771  26774  26776  26777M 26777  27344M 27348  27350  27466  27469  27471  27472M 27472
             28676M 28680  28682  28824  28827  28828  28829M 28829  29022M 29026  29028  29064  29067  29068  29069M
             29069  29321M 29325  29327  29351  29354  29355  29356M 29356  29381  29382M 29382  29523M 29527  29529
             29553  29556  29557  29558M 29558  29622  29623M 29623N 29624M 29710M 29714  29716  29748  29751  29752
             29753M 29753  30197M 30201  30203  30246  30249  30250  30251M 30251  30327  30373  30569M 30573  30575
             30634  30637  30639  30640M 30640  30757M 30761  30763  30792  30795  30797  30798M 30798  31062M 31066
             31068  31099  31102  31104  31105M 31105  31319M 31323  31325  31386  31389  31391  31392M 31392  31988M
             31992  31994  32051  32054  32056  32057M 32057  32209M 32213  32215
1         (ACCT2025) (12:39) (15MAR04) General Purpose Register Cross Reference                                             Page  165
    14(E)      926U  2103   2104M  2118   2119M  2120B  2122M  2123B  2143M  2144B  2148M  2149B  2151M  2152B  2154M
              2155B  2157M  2158B  2160M  2161M  2161B  2167  10322  10388M 10389  10390  10391  10396M 10397  10400M
             10401M 10401B 10404M 10407  10408  10409  10414M 10415M 10415B 10434M 10452M 10479M 10482B 10542  10593M
             10596B 10621  10672M 10673M 10673B 10738M 10739M 10739B 10756M 10757M 10757B 10762M 10763M 10763B 10767M
             10767  10768M 10780  10814M 10815M 10815B 10838M 10839M 10839B 10856M 10857M 10857B 10879M 10880M 10880B
             10897M 10898M 10898B 10928M 10929M 10929B 10946M 10947M 10947B 10952M 10953M 10953B 10957M 10957  10958M
             10970  11004M 11005M 11005B 11028M 11029M 11029B 11046M 11047M 11047B 11069M 11070M 11070B 11087M 11088M
             11088B 11112M 11113M 11113B 11133M 11134M 11134B 11141M 11142M 11142B 11168M 11169M 11169B 11189M 11190M
             11190B 11211M 11212M 11212B 11235M 11238B 11255  11304M 11305M 11305B 11310M 11311M 11311B 11331M 11332M
             11332B 11374M 11375M 11375B 11400M 11401M 11401B 11405M 11406M 11406B 11412M 11413M 11413B 11436M 11437M
             11437B 11457M 11458M 11458B 11482M 11483M 11483B 11502M 11503M 11503B 11520M 11521M 11521B 11618M 11619M
             11619B 11646M 11647M 11647B 11664M 11665M 11665B 11692M 11693M 11693B 11727M 11728M 11728B 11755M 11756M
             11756B 11780M 11781M 11781B 11789M 11790M 11790B 11816M 11817M 11817B 11844M 11845M 11845B 11850M 11851M
             11851B 11855M 11855  11856M 11857M 11869  11903M 11904M 11904B 11927M 11928M 11928B 11953M 11954M 11954B
             11959M 11960M 11960B 11964M 11964  11965M 11966M 11978  12012M 12013M 12013B 12036M 12037M 12037B 12062M
             12063M 12063B 12088M 12089M 12089B 12122M 12125B 12172  12238M 12239  12240  12241  12246M 12247  12250M
             12251M 12251B 12254M 12257  12258  12259  12264M 12265M 12265B 12320M 12321M 12321B 12342M 12343M 12343B
             12405M 12406M 12406B 12426M 12427M 12427B 12467M 12499M 12502B 12577  12624M 12625M 12625B 12647M 12650B
             12662  12713M 12716B 12741  12772M 12773M 12773B 12818M 12819M 12819B 12843M 12844M 12844B 12900M 12903B
             12951  13043M 13044M 13044B 13049M 13050M 13050B 13070M 13071M 13071B 13091M 13092M 13092B 13109M 13110M
             13110B 13137M 13138M 13138B 13155M 13156M 13156B 13183M 13184M 13184B 13201M 13202M 13202B 13244M 13245M
             13245B 13270M 13271M 13271B 13290M 13291M 13291B 13308M 13309M 13309B 13451M 13452M 13452B 13479M 13480M
             13480B 13497M 13498M 13498B 13525M 13526M 13526B 13560M 13561M 13561B 13588M 13589M 13589B 13613M 13614M
             13614B 13622M 13623M 13623B 13649M 13650M 13650B 13677M 13678M 13678B 13683M 13684M 13684B 13688M 13688
             13689M 13690M 13702  13736M 13737M 13737B 13760M 13761M 13761B 13786M 13787M 13787B 13792M 13793M 13793B
             13797M 13797  13798M 13799M 13811  13845M 13846M 13846B 13869M 13870M 13870B 13895M 13896M 13896B 13921M
             13922M 13922B 13964M 13967B 14067  14163M 14164  14165  14166  14174M 14175M 14175B 14178M 14181  14182
             14183  14188M 14189M 14189B 14260M 14261  14262  14263  14268M 14269  14272M 14273M 14273B 14276M 14279
             14280  14281  14286M 14287M 14287B 14366M 14367M 14367B 14387M 14388M 14388B 14440M 14441M 14441B 14509M
             14510M 14510B 14527M 14528M 14528B 14552M 14553M 14553B 14585M 14586M 14586B 14610M 14611M 14611B 14639M
             14640M 14640B 14669M 14670M 14670B 14701M 14702M 14702B 14729M 14730M 14730B 14769M 14770M 14770B 14787M
             14788M 14788B 14812M 14813M 14813B 14845M 14846M 14846B 14870M 14871M 14871B 14899M 14900M 14900B 14929M
             14932B 15017  15071M 15072M 15072B 15093M 15096B 15144  15262M 15263  15264  15265  15273M 15274M 15274B
             15277M 15280  15281  15282  15287M 15288M 15288B 15331M 15332  15333  15334  15339M 15340  15343M 15344M
             15344B 15347M 15350  15351  15352  15357M 15358M 15358B 15437M 15438M 15438B 15458M 15459M 15459B 15482M
             15483M 15483B 15529M 15532B 15677  15731M 15732M 15732B 15753M 15756B 15768  15814M 15817B 15829  15875M
             15878B 15924  16020M 16021  16022  16023  16031M 16032M 16032B 16035M 16038  16039  16040  16045M 16046M
             16046B 16089M 16090  16091  16092  16097M 16098  16101M 16102M 16102B 16105M 16108  16109  16110  16115M
             16116M 16116B 16195M 16196M 16196B 16216M 16217M 16217B 16238M 16239M 16239B 16285M 16288B 16373  16427M
             16428M 16428B 16449M 16452B 16503  16608M 16609M 16609B 16686M 16689B 16759  16806M 16807M 16807B 16852M
             16855B 16885  16947M 16948M 16948B 16965M 16966M 16966B 16988M 16989M 16989B 17042M 17044M 17045M 17049M
             17050M 17052  17053M 17053N 17056M 17085M 17088B 17141  17202M 17203M 17203B 17220M 17221M 17221B 17243M
             17244M 17244B 17298M 17300M 17301M 17305M 17306M 17308  17309M 17309N 17312M 17341M 17344B 17392  17574M
             17577B 17625  17686M 17687M 17687B 17752M 17753M 17753B 17771M 17772M 17772B 17860M 17861M 17861B 17879M
             17880M 17880B 17893M 17894M 17894N 17898M 17902M 17903M 17903B 17977M 17980B 18026  18139M 18139  18141M
             18146M 18148M 18172M 18174M 18202M 18205B 18257  18325M 18326  18327  18328  18336M 18337M 18337B 18340M
             18343  18344  18345  18350M 18351M 18351B 18389M 18390M 18390B 18411M 18412M 18412B 18437M 18438M 18438B
             18463M 18464M 18464B 18507M 18508M 18508B 18691M 18692M 18692B 18720M 18721M 18721B 18738M 18739M 18739B
             18759M 18760M 18760B 18777M 18778M 18778B 18805M 18806M 18806B 18823M 18824M 18824B 18851M 18852M 18852B
             18869M 18870M 18870B 18887M 18888M 18888B 18915M 18916M 18916B 18940M 18941M 18941B 19003M 19006B 19023
             19092M 19116M 19117M 19117B 19137M 19138M 19138B 19243M 19244M 19244B 19295M 19296M 19296B 19328M 19329M
             19329B 19373M 19374M 19374B 19425M 19426M 19426B 19467M 19468M 19468B 19519M 19520M 19520B 19542M 19543M
             19543B 19561M 19564B 19589  19633M 19634M 19634B 19660M 19662M 19663M 19664M 19676  19713M 19714M 19714B
             19743M 19744M 19744B 19748M 19753M 19754M 19754B 19758M 19758  19759M 19760M 19772  19806M 19807M 19807B
             19830M 19831M 19831B 19835M 19840M 19841M 19841B 19845M 19845  19846M 19847M 19859  19893M 19894M 19894B
             19917M 19918M 19918B 19922M 19947M 19948M 19948B 19977M 19978M 19978B 19982M 20007M 20008M 20008B 20037M
             20038M 20038B 20042M 20067M 20068M 20068B 20097M 20098M 20098B 20102M 20120M 20121M 20121B 20147M 20148M
             20148B 20167M 20168M 20168B 20171M 20217M 20218M 20218B 20242M 20243M 20243B 20260M 20261M 20261B 20265M
             20289M 20290M 20290B 20297M 20298M 20298B 20302M 20302  20303M 20315  20349M 20350M 20350B 20373M 20374M
1         (ACCT2025) (12:39) (15MAR04) General Purpose Register Cross Reference                                             Page  166
             20374B 20391M 20392M 20392B 20396M 20442M 20443M 20443B 20465M 20466M 20466B 20483M 20484M 20484B 20487M
             20511M 20512M 20512B 20593M 20594M 20594B 20647M 20648M 20648B 20665M 20666M 20666B 20676M 20676  20677M
             20689  20723M 20724M 20724B 20747M 20748M 20748B 20781M 20782M 20782B 20815M 20816M 20816B 20833M 20836B
             20864  20987M 20987  20988M 21000  21032M 21033M 21033B 21055M 21056M 21056B 21079M 21080M 21080B 21097M
             21098M 21098B 21120M 21123B 21135  21187M 21188M 21188B 21206M 21207M 21207B 21236M 21237M 21237B 21254M
             21255M 21255B 21284M 21285M 21285B 21304M 21307B 21411  21475M 21476M 21476B 21481M 21482M 21482B 21486M
             21486  21487M 21488M 21500  21625M 21626M 21626B 21630M 21630  21631M 21632M 21644  21782M 21785B 21831
             21962M 21963M 21963B 22248M 22249M 22249B 22253M 22253  22254M 22255M 22267  22317M 22320B 22381  22452M
             22452  22453M 22454M 22466  22500M 22503B 22540  22750M 22750  22751M 22752M 22764  22799M 22802B 22863
             23055M 23056M 23056B 23162M 23174M 23237M 23238M 23238B 23326M 23329B 23414  23593M 23652M 23653M 23653B
             23774M 23777B 23816  23908  23909M 23996M 23997M 23997B 24194M 24197B 24282  24542  24543M 25072M 25073M
             25073B 25076M 25077M 25078M 25090  25105M 25106M 25118  25164M 25165M 25165B 25169M 25170M 25182  25228M
             25229M 25229B 25235M 25236M 25236B 25237M 25238M 25250  25272M 25273M 25273B 25277M 25278M 25290  25312M
             25313M 25313B 25319M 25320M 25320B 25321M 25322M 25334  25356M 25357M 25357B 25361M 25362M 25374  25435M
             25438B 25547  25674M 25675M 25675B 25730M 25733B 25800  25895M 25896M 25896B 25997M 25998M 25998B 26072M
             26073M 26073B 26079M 26080M 26080B 26271M 26272M 26272B 26280M 26281M 26281B 26340M 26341M 26341B 26350M
             26350  26352M 26375M 26376M 26376B 26414M 26415M 26415B 26423M 26469M 26472B 26575  26682M 26717M 26720B
             26771  26855M 26856M 26856B 27101M 27102M 27102B 27155M 27155  27173M 27174M 27182M 27182  27183M 27195
             27225M 27225  27243M 27244M 27274M 27275M 27275B 27296M 27297M 27297B 27318M 27319M 27319B 27350M 27353B
             27466  28682M 28685B 28824  28942M 28943M 28943B 28990M 28991M 28991B 29028M 29031B 29064  29118M 29119M
             29119B 29124M 29125M 29125B 29192M 29208M 29213M 29214  29327M 29330B 29351  29486M 29487M 29487B 29506M
             29507M 29507B 29529M 29532B 29553  29646M 29658M 29675M 29676M 29676B 29693M 29694M 29694B 29716M 29719B
             29748  29865M 29866M 29866B 29869M 29870M 29870B 30166M 30167M 30167B 30203M 30206B 30246  30327  30328M
             30373  30374M 30575M 30578B 30634  30715M 30716M 30716B 30763M 30766B 30792  30835M 30836M 30836B 31068M
             31071B 31099  31142M 31143M 31143B 31325M 31328B 31386  31442M 31443M 31443B 31876M 31877M 31877B 31994M
             31997B 32051  32104M 32105M 32105B 32139M 32140M 32140B 32215M 32218B
    15(F)      922U  2103   8275M  8275  10410M 10410  10481M 10481  10595M 10595  10735M 10753M 10759M 10768M 10789M
             10835M 10853M 10876M 10894M 10925M 10943M 10949M 10958M 10979M 11025M 11043M 11066M 11084M 11109M 11130M
             11137M 11165M 11186M 11208M 11237M 11237  11301M 11307M 11328M 11371M 11397M 11408M 11433M 11454M 11479M
             11499M 11517M 11615M 11643M 11661M 11689M 11724M 11752M 11777M 11784M 11813M 11841M 11847M 11856M 11857M
             11878M 11924M 11950M 11956M 11965M 11966M 11987M 12033M 12059M 12085M 12124M 12124  12260M 12260  12277M
             12278M 12278  12284  12317M 12339M 12402M 12423M 12465M 12501M 12501  12649M 12649  12715M 12715  12815M
             12840M 12902M 12902  13023  13040M 13046M 13067M 13088M 13106M 13134M 13152M 13180M 13198M 13241M 13267M
             13287M 13305M 13448M 13476M 13494M 13522M 13557M 13585M 13610M 13617M 13646M 13674M 13680M 13689M 13690M
             13711M 13757M 13783M 13789M 13798M 13799M 13820M 13866M 13892M 13918M 13966M 13966  14184M 14184  14282M
             14282  14363M 14384M 14437M 14506M 14524M 14549M 14582M 14607M 14636M 14679M 14679  14698M 14726M 14766M
             14784M 14809M 14842M 14867M 14896M 14931M 14931  15095M 15095  15283M 15283  15353M 15353  15434M 15455M
             15531M 15531  15755M 15755  15816M 15816  15877M 15877  16041M 16041  16111M 16111  16192M 16213M 16287M
             16287  16451M 16451  16562M 16566M 16575M 16575  16582  16625M 16625  16654M 16688M 16688  16816M 16816
             16854M 16854  16957M 16957  16975M 16975  16998M 16998  17043M 17044M 17046M 17048  17049M 17051M 17052M
             17055  17056M 17065M 17065  17087M 17087  17212M 17212  17230M 17230  17253M 17253  17299M 17300M 17302M
             17304  17305M 17307M 17308M 17311  17312M 17321M 17321  17343M 17343  17451M 17546M 17546  17576M 17576
             17698M 17698  17721M 17721  17773M 17804M 17804  17851M 17881M 17895M 17897  17898M 17924M 17924  17956M
             17956  17979M 17979  18074  18101M 18101  18140M 18141M 18142M 18143  18147M 18148M 18149M 18173M 18174M
             18178M 18178  18204M 18204  18346M 18346  18372M 18687M 18717M 18735M 18756M 18774M 18802M 18820M 18848M
             18866M 18884M 18912M 18937M 19005M 19005  19134M 19240M 19292M 19325M 19370M 19422M 19464M 19516M 19539M
             19563M 19563  19653M 19654M 19655M 19656M 19657M 19658M 19662M 19663M 19664M 19685M 19695  19710M 19740M
             19746M 19750M 19759M 19760M 19781M 19827M 19833M 19837M 19846M 19847M 19868M 19914M 19920M 19944M 19974M
             19980M 20004M 20034M 20040M 20064M 20094M 20100M 20116M 20144M 20164M 20169M 20214M 20220M 20221M 20227
             20239M 20257M 20262M 20263M 20286M 20293M 20294M 20303M 20324M 20370M 20388M 20393M 20394M 20439M 20462M
             20480M 20485M 20508M 20590M 20644M 20662M 20667M 20668M 20669M 20670M 20671M 20672M 20677M 20698M 20744M
             20778M 20812M 20835M 20835  20912M 20912  20936M 20936  20962M 20962  20975  20988M 21009M 21014  21029M
             21038M 21076M 21094M 21122M 21122  21203M 21233M 21251M 21281M 21306M 21306  21477M 21478M 21487M 21488M
             21509M 21538M 21582M 21582  21611M 21612M 21631M 21632M 21653M 21701M 21701  21733D 21735M 21735  21736M
             21737U 21738M 21759M 21759  21784M 21784  21899M 21903M 21912M 21912  21919  21959M 22006M 22007M 22007
             22012M 22021M 22021  22028  22211M 22254M 22255M 22276M 22319M 22319  22438  22444M 22453M 22454M 22475M
             22502M 22502  22751M 22752M 22773M 22801M 22801  22938M 22948U 22954M 22961U 22973M 22973  23001U 23018U
             23052M 23172M 23284M 23285  23328M 23328  23591M 23699M 23700  23776M 23776  23845  23908  23952M 23953M
             23969M 23969  23974M 23975  24099M 24100M 24116M 24116  24121M 24122  24134M 24135M 24151M 24151  24156M
1         (ACCT2025) (12:39) (15MAR04) General Purpose Register Cross Reference                                             Page  167
             24157  24196M 24196  24329  24350M 24360U 24479U 24542  24988M 25007M 25007  25037M 25063M 25074  25076M
             25077M 25078M 25099M 25105M 25106M 25127M 25151M 25151  25156  25161M 25166  25168M 25169M 25170M 25191M
             25215M 25215  25220  25225M 25230  25232M 25237M 25238M 25259M 25264  25269M 25274  25276M 25277M 25278M
             25299M 25304  25309M 25314  25316M 25321M 25322M 25343M 25348  25353M 25358  25360M 25361M 25362M 25383M
             25388  25437M 25437  25670M 25732M 25732  25839  25863M 25866  25892M 25994M 25999  26143M 26144M 26145
             26150D 26152M 26152  26153M 26154U 26155M 26156  26268M 26273  26277M 26282  26290M 26291M 26292  26296M
             26297M 26298  26311  26337M 26351M 26352M 26353  26372M 26411M 26421M 26432M 26432  26471M 26471  26619
             26680M 26719M 26719  26859M 26878M 26901M 26924M 26947M 26970M 26994M 27017M 27040M 27063M 27086M 27092
             27156M 27173M 27174M 27183M 27204M 27209  27210M 27211  27226M 27243M 27244M 27249  27250M 27251  27271M
             27293M 27315M 27328M 27328  27352M 27352  28660M 28660  28684M 28684  29030M 29030  29115M 29121M 29192M
             29201M 29214  29216M 29217M 29218  29246M 29247M 29248  29250M 29251M 29252  29256M 29257M 29258  29260M
             29261M 29262  29266M 29267M 29268  29270M 29271M 29272  29276M 29277M 29278  29280M 29281M 29282  29286M
             29287M 29288  29290M 29291M 29292  29329M 29329  29409M 29412  29424M 29429  29433M 29442M 29442  29449
             29483M 29503M 29531M 29531  29651M 29657  29658M 29672M 29690M 29718M 29718  29777  30205M 30205  30275
             30327  30373  30491M 30492M 30493  30511  30523M 30524M 30525  30577M 30577  30765M 30765  31070M 31070
             31327M 31327  31436  31438  31500M 31500  31530M 31530  31578M 31582M 31591M 31591  31598  31627M 31627
             31634  31963M 31963  31968M 31996M 31996  32101  32157M 32176M 32176  32217M 32217

1ACCT     (ACCT2025) (12:39) (15MAR04) Diagnostic Cross Reference and Assembler Summary                                     Page  168
-                                                                                            HLASM R4.0  2004/03/15 12.39
0     No Statements Flagged in this Assembly
 HIGH LEVEL ASSEMBLER, 5696-234, RELEASE 4.0, PTF P72483
0SYSTEM: OS/390 02.10.00            JOBNAME: WYL#ACCT    STEPNAME: ASM        PROCSTEP: (NOPROC)
0Datasets Allocated for this Assembly
  Con DDname   Dataset Name                                 Volume  Member
   P1 SYSIN    WYL.GS.WYL.WYLBUR.SOURCE                     SYSB05  ACCT
   L1 SYSLIB   WYL.GS.WYL.WYLBUR.MACLIB                     SYSB05
   L2          WYL.GG.SYS.MACLIB                            SYSB05
   L3          SYS3.IS.MACLIB                               SYSB05
   L4          SYS3.MACLIB                                  SYSB02
   L5          SYS1.MACLIB                                  MVSBR9
   L6          SYS1.MODGEN                                  MVSBR9
      SYSPRINT SYS04075.T123915.RA000.WYL#ACCT.PRINT.H01    SCR100
      SYSTERM  GG$SLP.WYL#ACCT.JOB03503.D0000101.?

    3668K allocated to Buffer Pool,         4617K would be required for this to be an In-Storage Assembly
    3609 Primary Input Records Read        13923 Library Records Read                192 Work File Reads
       0 ASMAOPT Records Read              14360 Primary Print Records Written       241 Work File Writes
       0 Punch Records Written                 0 ADATA Records Written
0Assembly Start Time: 12.39.16 Stop Time: 12.39.29 Processor Time: 00.00.05.8186
 Return Code 000
