1                        J E S 2  J O B  L O G  --  S Y S T E M  S Y S B  --  N O D E  R L G
0
 12.42.57 JOB03517 ---- MONDAY,    15 MAR 2004 ----
 12.42.57 JOB03517  ICH70001I GG$SLP   LAST ACCESS AT 12:42:25 ON MONDAY, MARCH 15, 2004
 12.42.57 JOB03517  $HASP373 WYL#DOPT STARTED - INIT 9    - CLASS B - SYS SYSB
 12.42.57 JOB03517  ***  HCMD      STEP $$QUIET
 12.42.57 JOB03517  PUR * Q OUT MUL
 12.42.57 JOB03517  JOB 5381 WYL#DOPT WILL BE PURGED
 12.42.58 JOB03517  WYL#DOPT.$$QUIET .         RC=Zero TapeIO=0000 DiskIO=0000 CPU=  .01s Elapsed=77.46s
 12.43.05 JOB03517  WYL#DOPT.ASM     .         RC=Zero TapeIO=0000 DiskIO=0517 CPU= 2.95s Elapsed=78.50s
 12.43.06 JOB03517  WYL#DOPT.EDIT    .         RC=Zero TapeIO=0000 DiskIO=0141 CPU=  .46s Elapsed=85.68s
 12.43.06 JOB03517  WYL#DOPT Ended.  Name=Assemble DOPT                  Total CPU= 3.42s Elapsed=77.46s
 12.43.06 JOB03517
 12.43.06 JOB03517  Execution charges   Priority=Standard   Block=Day
 12.43.06 JOB03517
 12.43.06 JOB03517  CPU Usage          63.18          $39.17   Standard Processing Unit Equivalent
 12.43.06 JOB03517                                   =======
 12.43.06 JOB03517                                    $39.17   Total Job execution charge
 12.43.06 JOB03517
 12.43.06 JOB03517  See back separator page for print charges
 12.43.06 JOB03517
 12.43.07 JOB03517  $HASP395 WYL#DOPT ENDED  ASM=0, EDIT=0
1        1 //WYL#DOPT JOB SLP$GG,'Assemble DOPT',TIME=4,REGION=4M                  JOB03517
           //*
           /*JOBPARM LINES=99,COPIES=1
           /*JOBPARM FORMS=3HOL,PFORMAT=LAND,CHARS=BD13,DUPLEX=YES,FLASH=BAR4
           //*
           /*JOBPARM NOTIFY=GG.SLP,HOLD=OUTPUT                                     WYLGEN
         2 //$$QUIET EXEC PGM=HCMDX,PARM='PUR * Q OUT MUL'
           //*
         3 //ASM    EXEC PGM=ASMA90,REGION=8M,
           //            PARM=('NORENT,TERM,FLAG(NOCONT),US(MAP,WARN(10)),NODECK',
           //            'LC(32767),XREF(SHORT),ESD,DXREF,NOOBJECT')
         4 //STEPLIB DD DSN=SYS3.IS.TESTASM,DISP=SHR
         5 //SYSLIB   DD  DSN=WYL.GS.WYL.WYLBUR.MACLIB,DISP=SHR
         6 //         DD  DSN=WYL.GG.SYS.MACLIB,DISP=SHR
         7 //         DD  DSN=SYS3.IS.MACLIB,DISP=SHR
         8 //         DD  DSN=SYS3.MACLIB,DISP=SHR
         9 //         DD  DSN=SYS1.MACLIB,DISP=SHR
        10 //         DD  DSN=SYS1.MODGEN,DISP=SHR
        11 //SYSUT1   DD DSN=&&SYSUT1,UNIT=VIO,DISP=(,DELETE),
           //            SPACE=(4088,(500,250),,CONTIG,ROUND)
        12 //SYSTERM  DD SYSOUT=T
        13 //SYSPRINT DD DSN=&&PRINT,UNIT=SYSDA,DISP=(,PASS),
           //            SPACE=(6650,(250,250),RLSE),
           //            DCB=(BLKSIZE=6650,LRECL=133,RECFM=FB)
        14 //SYSUDUMP DD SYSOUT=A
        15 //SYSIN    DD  DSN=WYL.GS.WYL.WYLBUR.SOURCE(DOPT),DISP=SHR
           //*
        16 //EDIT    EXEC PGM=ASMEDIT,TIME=2,REGION=4000K,
           //             PARM='STMT'
        17 //STEPLIB  DD  DSN=WYL.GG.SYS.LINKLIB,DISP=SHR
        18 //ASMOUT   DD  DSN=&PRINT,DISP=(OLD,DELETE)
        19 //SYSPRINT DD  SYSOUT=A
1 STMT NO. MESSAGE
 -
        11 IGD01010I STORCLAS= TEMP STORGROUP =
        11 IGD01010I STORGRP=VIO ASSIGNED.
        13 IGD01010I STORCLAS= TEMP STORGROUP =
        13 IGD01010I STORGRP=VIO ASSIGNED.
 ICH70001I GG$SLP   LAST ACCESS AT 12:42:25 ON MONDAY, MARCH 15, 2004
 IEF142I WYL#DOPT $$QUIET - STEP WAS EXECUTED - COND CODE 0000
 *********************************************************************************
 *   WYL#DOPT/$$QUIET /                    Return Code      Zero                 *
 *   Region used      260K (16K user + 244K system)                              *
 *   Extended region  9464K (4K user + 9460K system)                             *
 *                                                                               *
 *   Paging              In      Out                                             *
 *   Private <-> Aux      0        0       CPU time (TCB)   00:00:00.01          *
 *   Private <-> Exp      0        0       CPU time (SRB)   00:00:00.00          *
 *   VIO                  0        0       Elapsed time    917:44:55.50          *
 *   Common               0      ---                                             *
 *                                                                               *
 *                                                                               *
 *   CPU Usage          0.18         $0.11  Standard Processing Unit Equivalent  *
 *                                   $0.11  Total Step execution charge          *
 *                                                                               *
 *    I/O count  DDname   Type Addr           I/O count  DDname   Type Addr      *
 *                         *** No I/O for this step ***                          *
 *********************************************************************************
 IEF373I STEP/$$QUIET /START 2004075.1242
 IEF374I STEP/$$QUIET /STOP  2004075.1242 CPU    0MIN 00.01SEC SRB    0MIN 00.00SEC VIRT    16K SYS   244K EXT       4K SYS    9460K
 IEF236I ALLOC. FOR WYL#DOPT ASM
 IEF237I 04DC ALLOCATED TO STEPLIB
 IEF237I 04DC ALLOCATED TO SYSLIB
 IEF237I 04DC ALLOCATED TO
 IEF237I 04DC ALLOCATED TO
 IEF237I 0402 ALLOCATED TO
 IEF237I 04A0 ALLOCATED TO
 IEF237I 04A0 ALLOCATED TO
 IGD101I SMS ALLOCATED TO DDNAME (SYSUT1  )
         DSN (SYS04075.T124257.RA000.WYL#DOPT.SYSUT1.H01  )
         STORCLAS (TEMP) MGMTCLAS (        ) DATACLAS (        )
         VOL SER NOS= VIO
 IEF237I JES2 ALLOCATED TO SYSTERM
 IGD101I SMS ALLOCATED TO DDNAME (SYSPRINT)
         DSN (SYS04075.T124257.RA000.WYL#DOPT.PRINT.H01   )
         STORCLAS (TEMP) MGMTCLAS (        ) DATACLAS (        )
         VOL SER NOS= SCR100
 IEF237I JES2 ALLOCATED TO SYSUDUMP
 IEF237I 04DC ALLOCATED TO SYSIN
 IEF142I WYL#DOPT ASM - STEP WAS EXECUTED - COND CODE 0000
 IEF285I   SYS3.IS.TESTASM                              KEPT
 IEF285I   VOL SER NOS= SYSB05.
 IEF285I   WYL.GS.WYL.WYLBUR.MACLIB                     KEPT
 IEF285I   VOL SER NOS= SYSB05.
 IEF285I   WYL.GG.SYS.MACLIB                            KEPT
 IEF285I   VOL SER NOS= SYSB05.
 IEF285I   SYS3.IS.MACLIB                               KEPT
 IEF285I   VOL SER NOS= SYSB05.
 IEF285I   SYS3.MACLIB                                  KEPT
 IEF285I   VOL SER NOS= SYSB02.
 IEF285I   SYS1.MACLIB                                  KEPT
 IEF285I   VOL SER NOS= MVSBR9.
 IEF285I   SYS1.MODGEN                                  KEPT
 IEF285I   VOL SER NOS= MVSBR9.
 IGD105I SYS04075.T124257.RA000.WYL#DOPT.SYSUT1.H01   DELETED,   DDNAME=SYSUT1
 IEF285I   GG$SLP.WYL#DOPT.JOB03517.D0000101.?          SYSOUT
 IGD106I SYS04075.T124257.RA000.WYL#DOPT.PRINT.H01    PASSED,    DDNAME=SYSPRINT
 IEF285I   GG$SLP.WYL#DOPT.JOB03517.D0000102.?          SYSOUT
 IEF285I   WYL.GS.WYL.WYLBUR.SOURCE                     KEPT
 IEF285I   VOL SER NOS= SYSB05.
 *********************************************************************************
 *   WYL#DOPT/ASM     /                    Return Code      Zero                 *
 *   Region used      4376K (4096K user + 280K system)                           *
 *   Extended region  10064K (412K user + 9652K system)                          *
 *                                                                               *
 *   Paging              In      Out                                             *
 *   Private <-> Aux      0        0       CPU time (TCB)   00:00:02.91          *
 *   Private <-> Exp      0        0       CPU time (SRB)   00:00:00.04          *
 *   VIO                  0        0       Elapsed time    917:44:54.46          *
 *   Common               0      ---                                             *
 *                                                                               *
 *                                                                               *
 *   CPU Usage         54.56        $33.82  Standard Processing Unit Equivalent  *
 *                                  $33.82  Total Step execution charge          *
 *                                                                               *
 *    I/O count  DDname   Type Addr           I/O count  DDname   Type Addr      *
 *           83  STEPLIB  Disk 04DC                 289  SYSLIB   Disk 04DC      *
 *            0  SYSLIB   Disk 04DC                   0  SYSLIB   Disk 04DC      *
 *            0  SYSLIB   Disk 0402                   0  SYSLIB   Disk 04A0      *
 *            0  SYSLIB   Disk 04A0                   0  SYSUT1   VIO  ----      *
 *            0  SYSTERM       ----                 138  SYSPRINT Disk 038B      *
 *            0  SYSUDUMP      ----                   7  SYSIN    Disk 04DC      *
 *********************************************************************************
 IEF373I STEP/ASM     /START 2004075.1242
 IEF374I STEP/ASM     /STOP  2004075.1243 CPU    0MIN 02.91SEC SRB    0MIN 00.04SEC VIRT  4096K SYS   280K EXT     412K SYS    9652K
 IEF236I ALLOC. FOR WYL#DOPT EDIT
 IEF237I 0402 ALLOCATED TO STEPLIB
 IGD103I SMS ALLOCATED TO DDNAME ASMOUT
 IEF237I JES2 ALLOCATED TO SYSPRINT
 IEF142I WYL#DOPT EDIT - STEP WAS EXECUTED - COND CODE 0000
 IEF285I   WYL.GG.SYS.LINKLIB                           KEPT
 IEF285I   VOL SER NOS= SYSB02.
 IGD105I SYS04075.T124257.RA000.WYL#DOPT.PRINT.H01    DELETED,   DDNAME=ASMOUT
 IEF285I   GG$SLP.WYL#DOPT.JOB03517.D0000103.?          SYSOUT
 *********************************************************************************
 *   WYL#DOPT/EDIT    /                    Return Code      Zero                 *
 *   Region used      380K (116K user + 264K system)                             *
 *   Extended region  9584K (4K user + 9580K system)                             *
 *                                                                               *
 *   Paging              In      Out                                             *
 *   Private <-> Aux      0        0       CPU time (TCB)   00:00:00.45          *
 *   Private <-> Exp      0        0       CPU time (SRB)   00:00:00.01          *
 *   VIO                  0        0       Elapsed time    917:44:47.28          *
 *   Common               0      ---                                             *
 *                                                                               *
 *                                                                               *
 *   CPU Usage          8.43         $5.22  Standard Processing Unit Equivalent  *
 *                                   $5.22  Total Step execution charge          *
 *                                                                               *
 *    I/O count  DDname   Type Addr           I/O count  DDname   Type Addr      *
 *            2  STEPLIB  Disk 0402                 139  ASMOUT   Disk 038B      *
 *            0  SYSPRINT      ----                                              *
 *********************************************************************************
 IEF373I STEP/EDIT    /START 2004075.1243
 IEF374I STEP/EDIT    /STOP  2004075.1243 CPU    0MIN 00.45SEC SRB    0MIN 00.01SEC VIRT   116K SYS   264K EXT       4K SYS    9580K
 *********************************************************************************
 *                                                                               *
 *                      S t a n f o r d   U n i v e r s i t y                    *
 *                                                                               *
 *                              *** Job Summary ***                              *
 *                                                                               *
 *   System Id      SYSB                   Input time     12:39:17  Mar 15, 2004 *
 *                                                                               *
 *   System Release SP6.1.0                Start time     12:42:57  Mar 15, 2004 *
 *                                                                               *
 *   Job name       WYL#DOPT               Stop  time     00:00:00  Mar 15, 2004 *
 *                                                                               *
 *   Account        SLP$GG                 Elapsed time  917:44:55.50            *
 *                                                                               *
 *   User Name      Assemble DOPT          CPU time       00:00:03.37            *
 *                                                                               *
 *   Job class      B                      SRB Time       00:00:00.05            *
 *                                                                               *
 *********************************************************************************
 IEF375I  JOB/WYL#DOPT/START 2004075.1242
 IEF376I  JOB/WYL#DOPT/STOP  2004075.1243 CPU    0MIN 03.37SEC SRB    0MIN 00.05SEC
1Assembler Done DOPT No Statements Flagged
1         High Level Assembler Option Summary                   (PTF P72483 )                                               Page    1
-                                                                                            HLASM R4.0  2004/03/15 12.42
0  No Overriding ASMAOPT Parameters
   Overriding Parameters-  NORENT,TERM,FLAG(NOCONT),US(MAP,WARN(10)),NODECK,LC(32767),XREF(SHORT),ESD,DXREF,NOOBJECT
   No Process Statements


   Options for this Assembly
0  NOADATA
     ALIGN
   NOASA
     BATCH
     CODEPAGE(047C)
   NOCOMPAT
   NODBCS
 3 NODECK
 3   DXREF
 3   ESD
   NOEXIT
 3   FLAG(0,ALIGN,NOCONT,NOIMPLEN,NOPAGE0,PUSH,RECORD,NOSUBSTR,USING0)
   NOFOLD
   NOGOFF
   NOINFO
     LANGUAGE(EN)
   NOLIBMAC
 3   LINECOUNT(32767)
     LIST(121)
     MXREF(SOURCE)
 3 NOOBJECT
     OPTABLE(UNI,NOLIST)
   NOPCONTROL
   NOPESTOP
   NOPROFILE
   NORA2
 3 NORENT
     RLD
     RXREF
     SIZE(MAX)
     SYSPARM()
 3   TERM(WIDE)
   NOTEST
     THREAD
   NOTRANSLATE
 3   USING(NOLIMIT,MAP,WARN(10))
 3   XREF(SHORT)

   No Overriding DD Names

1DOPT     External Symbol Dictionary                                                                                        Page    2
-Symbol   Type   Id     Address  Length     LD ID  Flags Alias-of                            HLASM R4.0  2004/03/15 12.42
0WYLDOPT   SD 00000001 00000000 00002880             00
 DOPT2025  LD          00000000           00000001
 ACCTPRTL  LD          00000017           00000001
 ACCTPRTN  LD          00000020           00000001
 ACCTPRTC  LD          00000029           00000001
 ACCTPRT   LD          0000002D           00000001
 INVALID   ER 00000002
 LTNPRT    LD          000003B0           00000001
 LISTPRT   LD          000003C1           00000001
 TEXTPRT   LD          000003DD           00000001
 RNUMPRT   LD          000003EC           00000001
 NUMPRT    LD          000003F8           00000001
 CASEPRT   LD          0000042C           00000001
 LENPRT    LD          00000443           00000001
 VERPRT    LD          00000462           00000001
 COLSPRT   LD          000004FA           00000001
 QUIETPRT  LD          000005BE           00000001
 COLLPRT   LD          000005D2           00000001
 INTPRT    LD          000005A6           00000001
 NOOPTPRT  LD          000005A2           00000001
 SCRPRT    LD          0000077A           00000001
 CLSCRPRT  LD          00000791           00000001
 CLRPRT    LD          00000795           00000001
 SEG       ER 00000003
 SCNRES    ER 00000004
 CHARCHKA  ER 00000005
 GETACCT   ER 00000006
 SCAN      ER 00000007
 BLNKTOK   ER 00000008
 CLRTEXT   ER 00000009
 ENDLNO    ER 0000000A
 LNENOPRT  LD          000009F2           00000001
 LNENOPRN  LD          00000A06           00000001
 SCNEND    LD          00000B46           00000001
 ZTTNLINE  LD          00000D66           00000001
 EXFRSTLN  ER 0000000B
 EXLASTLN  ER 0000000C
 LOCATE    ER 0000000D
 EXLOCATE  ER 0000000E
 ADDER     ER 0000000F
 SEGB      ER 00000010
 PREVLNO   ER 00000011
 EXPREV    ER 00000012
 LNENOPRT  ER 00000013
 SCINFO    ER 00000014
 SCSET     ER 00000015
 LABELLNO  ER 00000016
 SCTELL    ER 00000017
 SEGCR     ER 00000018
 ZSNSCAN   LD          000010CA           00000001
 ZODSNM    LD          00001100           00000001
 LRTRIM    ER 00000019
 SCANSTR   ER 0000001A
 DEQUOTE   ER 0000001B
 SCINIT    ER 0000001C
1DOPT     External Symbol Dictionary                                                                                        Page    3
 EXIT2     ER 0000001D
 RETFMEM   ER 0000001E
 RETFNAME  ER 0000001F
 ZSNFIN    LD          00001C9E           00000001
 ZSNSTDDO  LD          00001EC8           00000001
 ZSNUDSDO  LD          00001F34           00000001
 ZNVCODE   LD          00002388           00000001
 FINDDEV   ER 00000020
 SEGT      ER 00000021
 RTRIM     ER 00000022
 VOLCHK    ER 00000023
 SCANWTOK  ER 00000024
 DSNPRT    LD          000027C6           00000001
 DSNPRTF   LD          000026FA           00000001
 DSNPRTON  LD          00002846           00000001
 SCNNOOP   ER 00000025

1DOPT     WYLBUR's Common Scan Tables                                                                                       Page    4
0Loc    Object Code    Addr1 Addr2  Stmt Lv Lineno    Source Statement                    (Asmedit 3.3)  HLASM R4.0  2004/03/15 12.42
+___    ______ ____    _____ _____  ____ __ ______    ______ _________
0                                      2              *******************************************************************
                                       3              *                                                                 *
                                       4              *     WYLBUR/370 - Release VI - Class I - Stanford Proprietary    *
                                       5              *                                                                 *
                                       6              *******************************************************************
                                       7                       HIBAL
                                     988
                                     989                       SYSDEFN
                                     990                       GBLC  &PUBUSER,&PUBGRP
                                     991
 000000                00000 02880   992              WYLDOPT  CSECT
                                     996                       REGS  FSR,,,,,,,BR,(WAR,LSR),PAR,PBR,CPR,CVR,SPR,RAR
                                    1132
                                    1133              DOPT     IDENT 2025                11:49:22 01/25/02  (SLP)
                                    1136             +
                                    1137    01-IDENT +         ENTRY DOPT2025
                                    1138             +
 000000 16C4D6D7E3F2F0F2            1139    01-IDENT +DOPT2025 DC    AL1(22),C'DOPT2025,15MAR04,12:42'
                                    1140             +*
                                    1142              *
                                    1143                       PUSH  DSECTS
 USING  CP,R11                      1435             =         USING (CP),(CV)
 USING  CV,R12
 000017                00000 02880  1454             =         POP   PRINT
1DOPT     (DOPT2025) (12:42) (15MAR04) Account Scan Table                                                                   Page    5
0Current Usings:  (CP,R11) (CV,R12)
0Loc    Object Code    Addr1 Addr2  Stmt Lv Lineno    Source Statement           (Hibal 5, Asmedit 3.3)  HLASM R4.0  2004/03/15 12.42
+___    ______ ____    _____ _____  ____ __ ______    ______ _________
0                                   6589                       ENTRY ACCTPRTL,ACCTPRTN,ACCTPRTC,ACCTPRT
-000017 FF00006E                    6591              ACCTPRTL OSCKW ,SCNLCHK            Gg.uuu[.project]
 00001B F9                          6593                       OSCKW ,,POP
 00001C FF000000                    6595                       OSCKW ,V(INVALID)
-000020 FF0000F2                    6598              ACCTPRTN OSCKW ,SCNACHK            Gg.uuu or uuu$gg
 000024 F9                          6600                       OSCKW ,,POP
 000025 FF000000                    6602                       OSCKW ,V(INVALID)
-000029 FF0000F2                    6605              ACCTPRTC OSCKW ,SCNACHK            Gg.uuu or uuu$gg
 00002D 8E00015AC1C3C3D6            6607              ACCTPRT  OSCKW ACCOUNT,SCNACCT,(A,P)
 000038 8300015AC1C3C3E3            6609                       OSCKW ACCT,SCNACCT,P
 000040 8B000246E4E2C5D9            6611                       OSCKW USER,SCNUSER,(A,P)
 000048 82000246E4E2D9              6613                       OSCKW USR,SCNUSER,P
 00004F 8C000322C7D9D6E4            6615                       OSCKW GROUP,SCNGRP,(A,P)
 000058 82000322C7D9D7              6617                       OSCKW GRP,SCNGRP,P
 00005F 850002D6E4E2C5D9            6619                       OSCKW USERID,SCNUID,P
 000069 F9                          6621                       OSCKW ,,POP
 00006A FF000000                    6623                       OSCKW ,V(INVALID)
-00006E 50E0 D000/9028_      00000  6626              SCNLCHK  XENTER R2,R8,,LOCAL
 USING  *,R7
 000088 5900 7820/4750_      008A8  6644                       IF    (R0,GE,7),BEGIN
 000090 954B 1002/4770_00002        6661  1                      IF    ((@R1+2,NE,'.'),OR,(@R1+2,NE,'$')),EXIT
 0000A0 954B 1006/4770_00006        6695  1                      IF    (@R1+6,NE,'.'),EXIT
 0000A8 1821                        6714  1                      LR    R2,R1
 0000AA 4110 1007            00007  6715  1                      LA    R1,@R1+7
 0000AE 4B00 787C            00904  6716  1                      SH    R0,=H'7'
 0000B2 5900 7824/47D0_      008AC  6717  1                      IF    (R0,GT,L'CPSPROJ),BEGIN
 0000BA 41F0 B050/58E0_      00050  6734  2                        TSEG  (R1),(R0)
 0000C4 4110 78B2/4100_      0093A  6758  2                        ERROR ': project-id is too long (max is 8 characters).'
 0000D0                             6765  1                      END
 0000D0 D207 B3F0 C4D8 003F0 004D8  6769  1                      MVC   CPSPROJ,CVBLANKS
 0000D6 18F0                        6770  1                      LR    R15,R0
 0000D8 06F0/12FF/4740_             6771  1                      MOVE  R15,CPSPROJ,@R1     Set project
 0000E4 1812/4100 0006              6809  1                      SETMSG (R2),6              Account
 0000EA 47F0 70EC            00174  6823  1                      B     SCNACCTB            Common
 0000EE                             6824                       END
                                    6828
 0000EE 47F0 7084            0010C  6829                       B     SCNACOM
 DROP   *,R7                        6830                       DROP  BR
-0000F2 50E0 D000/9028_      00000  6838              SCNACHK  XENTER R2,R8,,LOCAL
 USING  *,R7
 00010C 0D70                        6856              SCNACOM  BASE
 DROP   *,R7
 USING  *,R7
 00010E 5900 77A6/4770_      008B4  6873                       IF    (R0,EQ,6),BEGIN
1DOPT     (DOPT2025) (12:42) (15MAR04) Account Scan Table                                                                   Page    6
0Current Usings:  (*,R7) (CP,R11) (CV,R12)
0Loc    Object Code    Addr1 Addr2  Stmt Lv Lineno    Source Statement           (Hibal 5, Asmedit 3.3)  HLASM R4.0  2004/03/15 12.42
+___    ______ ____    _____ _____  ____ __ ______    ______ _________
0000116 954B 1002/4780_00002        6890  1                      IF    ((@R1+2,EQ,'.'),OR,(@R1+2,EQ,'$')),SCNACCTB
 000126 955B 1003/4780_00003        6924  1                      IF    (@R1+3,EQ,'$'),SCNACCTB
 00012E 954B 1003/4770_00003        6943  1                      IF    (@R1+3,EQ,'.'),BEGIN
 000136 4110 785B/4100_      00969  6959  2                        SETMSG 'Account should be specified in "gg.uuu" format.'
 00013E D207 B886 76F2_00886 00800  6963  2                        ERROR (R1),(R0),BADACCT
 000148                             6977  1                      END
 000148                             6981                       END
 000148 D203 8000 77AA 00000 008B8  6985                       MVC   @R8(4),=V(SCNRES)   Continue scanning
 00014E 18D8/58E0 D000_             6986                       XEXIT
 DROP   *,R7                        6991                       DROP  BR
                                    6998
 00015A 50E0 D000/9028_      00000  6999              SCNACCT  XENTER R2,R8,,LOCAL
 USING  *,R7
 000174 0D70                        7017              SCNACCTB BASE
 DROP   *,R7
 USING  *,R7
 000176 5900 773E/4770_      008B4  7034                       IF    (R0,NE,6),INVACCT
 00017E 1861                        7054                       LR    R6,R1
                                    7055                       ¿þþþþþþþþþþþþþþþþþþþþþÜ
                                    7056                       Ÿ  gg.uuu or gg$uuu.  Ÿ
                                    7057                       ¾þþþþþþþþþþþþþþþþþþþþþ»
 000180 954B 6002/4780_00002        7058                       IF    ((@R6+2,EQ,'.'),OR,(@R6+2,EQ,'$')),BEGIN  gg.uuu...
 000190 1816/4100 0002              7089  1                      SETMSG @R6,2               Gg
 000196 58E0 7746/0DEE       008BC  7105  1                      VCALL CHARCHKA
 00019C 4770 70A2            00218  7109  1                      BNZ   INVACCTC
 0001A0 D201 BC4B 6000 00C4B 00000  7110  1                      MVC   CPCGRP,@R6
 0001A6 4110 6003/4100_      00003  7111  1                      SETMSG @R6+3,3             Uuu
 0001AE 58E0 7746/0DEE       008BC  7127  1                      VCALL CHARCHKA
 0001B4 4770 70A2            00218  7131  1                      BNZ   INVACCTC
 0001B8 D202 BC48 6003 00C48 00003  7132  1                      MVC   CPCUSER,@R6+3
 0001BE 47F0 70C4            0023A  7133  1                      B     SCNACCTX
 0001C2                             7134                       END
                                    7138                       ¿þþþþþþþþþþþþþþþþþþþþþþþþþþþþþþþþþþþþþÜ
                                    7139                       Ÿ  Allow "uuu$gg" for compatibility.  Ÿ
                                    7140                       ¾þþþþþþþþþþþþþþþþþþþþþþþþþþþþþþþþþþþþþ»
 0001C2 955B 6003/4770_00003        7141                       IF    (@R6+3,EQ,'$'),BEGIN  uuu$gg...
 0001CA 1816/4100 0003              7157  1                      SETMSG @R6,3               Uuu
 0001D0 58E0 7746/0DEE       008BC  7173  1                      VCALL CHARCHKA
 0001D6 4770 70A2            00218  7177  1                      BNZ   INVACCTC
 0001DA D202 BC48 6000 00C48 00000  7178  1                      MVC   CPCUSER,@R6
 0001E0 4110 6004/4100_      00004  7179  1                      SETMSG @R6+4,2             Gg
 0001E8 58E0 7746/0DEE       008BC  7195  1                      VCALL CHARCHKA
 0001EE 4770 70A2            00218  7199  1                      BNZ   INVACCTC
 0001F2 D201 BC4B 6004 00C4B 00004  7200  1                      MVC   CPCGRP,@R6+4
 0001F8 47F0 70C4            0023A  7201  1                      B     SCNACCTX
 0001FC                             7202                       END
                                    7206
 0001FC 41F0 B050/58E0_      00050  7207              INVACCT  TSEG  (R1),(R0)
 000206 D207 B886 7692_00886 00808  7232                       ERROR ': invalid account.',,INVACCT
                                    7240
 000218 1816/4100 0006_             7241              INVACCTC TSEG  (R6),6
 000228 D207 B886 769A_00886 00810  7269                       ERROR ': invalid characters in account.',,INVCHARS
                                    7277
 00023A 18D8/58E0 D000_             7278              SCNACCTX XEXIT
1DOPT     (DOPT2025) (12:42) (15MAR04) Account Scan Table                                                                   Page    7
0Current Usings:  (CP,R11) (CV,R12)
0Loc    Object Code    Addr1 Addr2  Stmt Lv Lineno    Source Statement           (Hibal 5, Asmedit 3.3)  HLASM R4.0  2004/03/15 12.42
+___    ______ ____    _____ _____  ____ __ ______    ______ _________
0DROP   *,R7                        7283                       DROP  BR
                                    7290
 000246 50E0 D000/9028_      00000  7291              SCNUSER  XENTER R2,R8,,LOCAL
 USING  *,R7
 000260 5900 7660/4770_      008C0  7309                       IF    ((R0,EQ,1),AND,(@R1,EQ,'&&')),'SETMSG CPSUSER'
 00027A 5900 7664/4770_      008C4  7360                       IF    (R0,NE,3),INVUSER
 000282 58E0 765C/0DEE       008BC  7380                       VCALL CHARCHKA
 000288 4770 705A            002BA  7384                       BNZ   INVUSERC
 00028C D202 BC48 1000 00C48 00000  7385                       MVC   CPCUSER,@R1
 000292 18D8/58E0 D000_             7386                       XEXIT
                                    7391
 00029E 41F0 B050/58E0_      00050  7392              INVUSER  TSEG  (R1),(R0)
 0002A8 D207 B886 75D8_00886 00838  7417                       ERROR ': invalid user.',,INVUSER
                                    7425
 0002BA 41F0 B050/58E0_      00050  7426              INVUSERC TSEG  (R1),(R0)
 0002C4 D207 B886 75B0_00886 00810  7451                       ERROR ': invalid characters in user-id.',,INVCHARS
 DROP   *,R7                        7459                       DROP  BR
                                    7466              *
                                    7467              *        userid
                                    7468              *
 0002D6 50E0 D000/9028_      00000  7469              SCNUID   XENTER R2,R8,,LOCAL
 USING  *,R7
 0002F0 41F0 BC48            00C48  7487                       LA    R15,CPCACCT
 0002F4 58E0 75D8/0DEE       008C8  7488                       VCALL GETACCT             Convert userid to account
 0002FA 4780 7024            00314  7492                       IF    NZ,BEGIN            Unknown userid...
 0002FE 41F0 B050/58E0_      00050  7503  1                      TSEG  (R1),(R0)
 000308 4110 76B8/4100_      009A8  7527  1                      ERROR ' is an unknown user-ID.'
 000314                             7534                       END
 000314 1BFF                        7538                       CLEAR R15                 A-ok
 000316 18D8/58E0 D000_             7542                       XEXIT
 DROP   *,R7                        7547                       DROP  BR
                                    7554
 000322 50E0 D000/9028_      00000  7555              SCNGRP   XENTER R2,R8,,LOCAL
 USING  *,R7
 00033C 5900 7584/4770_      008C0  7573                       IF    ((R0,EQ,1),AND,(@R1,EQ,'@')),'SETMSG CPSGRP'
 000354 5900 7590/4770_      008CC  7624                       IF    (R0,NE,2),INVGRP
 00035C 58E0 7580/0DEE       008BC  7644                       VCALL CHARCHKA
 000362 4770 7058            00394  7648                       BNZ   INVGRPC
 000366 D201 BC4B 1000 00C4B 00000  7649                       MVC   CPCGRP,@R1
 00036C 18D8/58E0 D000_             7650                       XEXIT
                                    7655
 000378 41F0 B050/58E0_      00050  7656              INVGRP   TSEG  (R1),(R0)
 000382 D207 B886 7524_00886 00860  7681                       ERROR ': invalid group.',,INVGRP
                                    7689
 000394 41F0 B050/58E0_      00050  7690              INVGRPC  TSEG  (R1),(R0)
 00039E D207 B886 74D4_00886 00810  7715                       ERROR ': invalid characters in group.',,INVCHARS
 DROP   *,R7                        7723                       DROP  BR
1DOPT     (DOPT2025) (12:42) (15MAR04) Editing Command Scan Tables                                                          Page    8
0Current Usings:  (CP,R11) (CV,R12)
0Loc    Object Code    Addr1 Addr2  Stmt Lv Lineno    Source Statement           (Hibal 5, Asmedit 3.3)  HLASM R4.0  2004/03/15 12.42
+___    ______ ____    _____ _____  ____ __ ______    ______ _________
0                                   7731                       ENTRY LTNPRT,LISTPRT,TEXTPRT,RNUMPRT,NUMPRT
                                    7732                       ENTRY CASEPRT,LENPRT,VERPRT
-                                   7734                       ¿þþþþþþþþþþþþþþþþþþþþÜ
                                    7735                       Ÿ  list options prt  Ÿ
                                    7736                       ¾þþþþþþþþþþþþþþþþþþþþ»
 0003B0 F80003C1                    7737              LTNPRT   OSCKW ,LISTPRT,PUSH
 0003B4 F80003DD                    7739                       OSCKW ,TEXTPRT,PUSH
 0003B8 F80003F8                    7741                       OSCKW ,NUMPRT,PUSH
 0003BC F9                          7743                       OSCKW ,,POP
 0003BD FF000000                    7745                       OSCKW ,V(INVALID)
                                    7747                       ¿þþþþþþþþþþþþþþþþþþþÜ
                                    7748                       Ÿ  list/nolist prt  Ÿ
                                    7749                       ¾þþþþþþþþþþþþþþþþþþþ»
 0003C1 0B00047ED3C9E2E3            7750              LISTPRT  OSCKW LIST,SCNLIST,A
 0003C9 0D000484D5D6D3C9            7752                       OSCKW NOLIST,SCNNLST,A
 0003D3 00000484D5                  7754                       OSCKW N,SCNNLST
 0003D8 F9                          7756                       OSCKW ,,POP
 0003D9 FF000000                    7758                       OSCKW ,V(INVALID)
                                    7760                       ¿þþþþþþþþþþþþþþÜ
                                    7761                       Ÿ  notext prt  Ÿ
                                    7762                       ¾þþþþþþþþþþþþþþ»
 0003DD 0D00048AD5D6E3C5            7763              TEXTPRT  OSCKW NOTEXT,SCNNTEX,A
 0003E7 F9                          7765                       OSCKW ,,POP
 0003E8 FF000000                    7767                       OSCKW ,V(INVALID)
                                    7769                       ¿þþþþþþþþþþþþþþþþÜ
                                    7770                       Ÿ  numbered prt  Ÿ
                                    7771                       ¾þþþþþþþþþþþþþþþþ»
 0003EC 0F0004A4D9D5E4D4            7772              RNUMPRT  OSCKW RNUMBERED,SCNRNUM,A
 0003F8 0F0004B2D5E4D4C2            7774              NUMPRT   OSCKW NUMBERED,SCNNUM,A
 000404 0F00049AE4D5D5E4            7776                       OSCKW UNNUMBERED,SCNUNUM,A
 000410 0F000494D5D6D5E4            7778                       OSCKW NONUMBER,SCNONUM,A
 00041C 0E0004C0C9D5E3C5            7780                       OSCKW INTEGER,SCNINT,A
 000427 F9                          7782                       OSCKW ,,POP
 000428 FF000000                    7784                       OSCKW ,V(INVALID)
                                    7786                       ¿þþþþþþþþþþþþþþþþþþþþþþþþþþÜ
                                    7787                       Ÿ  case (upper/uplow) prt  Ÿ
                                    7788                       ¾þþþþþþþþþþþþþþþþþþþþþþþþþþ»
 00042C 0C0004D4E4D7D7C5            7789              CASEPRT  OSCKW UPPER,SCNUPP,A
 000435 0C0004DAE4D7D3D6            7791                       OSCKW UPLOW,SCNUPL,A
 00043E F9                          7793                       OSCKW ,,POP
 00043F FF000000                    7795                       OSCKW ,V(INVALID)
                                    7797                       ¿þþþþþþþþþþþþþþÜ
                                    7798                       Ÿ  length prt  Ÿ
                                    7799                       ¾þþþþþþþþþþþþþþ»
 000443 0F0004E4D5D6D3C5            7800              LENPRT   OSCKW NOLENGTH,SCNNOLEN,A
 00044F BD0004E8D3C5D5C7_           7802                       OSCKW LENGTH,SCNLEN,(A,P,PI),&LINESZ
 00045D F9                          7805                       OSCKW ,,POP
 00045E FF000000                    7807                       OSCKW ,V(INVALID)
1DOPT     (DOPT2025) (12:42) (15MAR04) Editing Command Scan Tables                                                          Page    9
0Current Usings:  (CP,R11) (CV,R12)
0Loc    Object Code    Addr1 Addr2  Stmt Lv Lineno    Source Statement           (Hibal 5, Asmedit 3.3)  HLASM R4.0  2004/03/15 12.42
+___    ______ ____    _____ _____  ____ __ ______    ______ _________
0                                   7809                       ¿þþþþþþþþþþþþþþÜ
                                    7810                       Ÿ  verify prt  Ÿ
                                    7811                       ¾þþþþþþþþþþþþþþ»
 000462 0D0004EEE5C5D9C9            7812              VERPRT   OSCKW VERIFY,SCNVER,A
 00046C 0F0004F4D5D6E5C5            7814                       OSCKW NOVERIFY,SCNNVER,A
 000478 F9                          7816                       OSCKW ,,POP
 000479 FF000000                    7818                       OSCKW ,V(INVALID)
1DOPT     (DOPT2025) (12:42) (15MAR04) Editing Command Scan Tables                                                          Page   10
0Current Usings:  (CP,R11) (CV,R12)
0Loc    Object Code    Addr1 Addr2  Stmt Lv Lineno    Source Statement           (Hibal 5, Asmedit 3.3)  HLASM R4.0  2004/03/15 12.42
+___    ______ ____    _____ _____  ____ __ ______    ______ _________
000047E 94DF BD54      00D54        7821              SCNLIST  CLEAR CPLFLG5.CPFNLST
 000482 07FE                        7830                       BR    RAR
                                    7831
 000484 9620 BD54      00D54        7832              SCNNLST  SET   CPLFLG5.CPFNLST
 000488 07FE                        7840                       BR    RAR
                                    7841
 00048A 941F BD54      00D54        7842              SCNNTEX  NI    CPLFLG5,255-CPFNONUM-CPFNLST  reset options & list
 00048E 9650 BD54      00D54        7843                       OI    CPLFLG5,CPFNTEX+CPFFOPT  turn on notext flag
 000492 07FE                        7844                       BR    RAR
                                    7845
 000494 96D0 BD54      00D54        7846              SCNONUM  SET   CPLFLG5.CPFNONUM*CPFFOPT
 000498 07FE                        7857                       BR    RAR
                                    7858
 00049A 943F BD54      00D54        7859              SCNUNUM  CLEAR CPLFLG5.CPFNONUM
 00049E 9690 BD54      00D54        7868                       SET   CPLFLG5.CPFUNUM+CPFFOPT
 0004A2 07FE                        7878                       BR    RAR
                                    7879
 0004A4 943F BD54      00D54        7880              SCNRNUM  CLEAR CPLFLG5.CPFNONUM
 0004A8 9608 BC79/9610_00C79        7889                       SET   CPNFRNUM,CPLFLG5.CPFFOPT
 0004B0 07FE                        7900                       BR    RAR
                                    7901
 0004B2 943F BD54/94F7_00D54        7902              SCNNUM   CLEAR CPLFLG5.CPFNONUM,CPNFRNUM
 0004BA 9610 BD54      00D54        7916                       SET   CPLFLG5.CPFFOPT
 0004BE 07FE                        7923                       BR    RAR
                                    7924
 0004C0 9608 BD54      00D54        7925              SCNINT   SET   CPLFLG5.CPNFINT
 0004C4 9110 BD54      00D54        7933                       TM    CPLFLG5,CPFFOPT     Has an option been given
 0004C8 071E                        7934                       BOR   RAR                 Yes, scan on
 0004CA 943F BD54      00D54        7935                       NI    CPLFLG5,255-CPFNONUM  no, turn on numbered
 0004CE 9610 BD54      00D54        7936                       OI    CPLFLG5,CPFFOPT     Set option given
 0004D2 07FE                        7937                       BR    RAR
                                    7938
 0004D4 9630 BD57      00D57        7939              SCNUPP   SET   CPFCASE+CPFUPPER
 0004D8 07FE                        7949                       BR    RAR
                                    7950
 0004DA 9620 BD57/94EF_00D57        7951              SCNUPL   SET   CPFCASE,(CPFUPPER,OFF)
 0004E2 07FE                        7963                       BR    RAR
                                    7964
 0004E4 41F0 00EB            000EB  7965              SCNNOLEN LA    R15,&LINESZ
 0004E8 40F0 BC52            00C52  7966              SCNLEN   STH   R15,CPLLEN
 0004EC 07FE                        7967                       BR    RAR
                                    7968
 0004EE 9620 BD58      00D58        7969              SCNVER   SET   CPFVER
 0004F2 07FE                        7976                       BR    RAR
                                    7977
 0004F4 94DF BD58      00D58        7978              SCNNVER  CLEAR CPFVER
 0004F8 07FE                        7986                       BR    RAR
1DOPT     (DOPT2025) (12:42) (15MAR04) Editing Command Scan Tables                                                          Page   11
0Current Usings:  (CP,R11) (CV,R12)
0Loc    Object Code    Addr1 Addr2  Stmt Lv Lineno    Source Statement           (Hibal 5, Asmedit 3.3)  HLASM R4.0  2004/03/15 12.42
+___    ______ ____    _____ _____  ____ __ ______    ______ _________
0                                   7988                       ENTRY COLSPRT
-                                   7990              *
                                    7991              *  columns=x(/y)
 0004FA BE00051AC3D6D3E4_           7992              COLSPRT  OSCKW COLUMNS,SCNCOLS,(A,P,PI),&LINESZ
 000509 BB00051AC3D6D3E2_           7995                       OSCKW COLS,SCNCOLS,(A,P,PI),&LINESZ
 000515 F9                          7998                       OSCKW ,,POP
 000516 FF000000                    8000                       OSCKW ,V(INVALID)
-00051A 50E0 D000/9028_      00000  8003              SCNCOLS  XENTER R2,R8,*+L'CPOSCAN,LOCAL
 USING  *,R7
 000534 06F0                        8021                       DECR  R15
 000536 40F0 BC4E            00C4E  8023                       STH   R15,CPFCOL          Save starting col-1
 00053A D201 BC50 7402 00C50 00936  8024                       MVC   CPLCOL,=Y(&LINESZ)  Default ending col
 000540 D27B 8020 BCA8 00020 00CA8  8025                       MVC   @R8+32(L'CPOSCAN),CPOSCAN  scansave
 000546 4110 702E/58E0_      00562  8026                       OSCAN COLSPRT2            Look for "/ending col"
 000550 D27B BCA8 8020 00CA8 00020  8039              SCNCOLSR MVC   CPOSCAN,@R8+32       Scanrstr
 000556 18D8/58E0 D000_             8040              SCNCOLSE XEXIT
                                    8045
 000562 B000057061/00000_           8046              COLSPRT2 OSCKW /,SCNCOLS2,(P,PI),&LINESZ
 00056B FF000550                    8049                       OSCKW ,SCNCOLSR
                                    8051
 00056F 00
 000570 40F0 BC50            00C50  8052              SCNCOLS2 STH   R15,CPLCOL          Save ending col
 000574 4BF0 BC4E/4720_      00C4E  8053                       IF    ('SH R15,CPFCOL',NP),BEGIN
 00057C 41F0 B050/58E0_      00050  8066  1                      TSEG  (R1),(R0)
 000586 D207 B886 7344_00886 00878  8090  1                      ERROR ': bad ending column.',,BADCOL
 000598                             8098                       END
 000598 D275 BCAE 8026 00CAE 00026  8102                       MVC   CPOSCAN+6(L'CPOSCAN-6),@R8+32+6  restore scan opts
 00059E 47F0 7022            00556  8103                       B     SCNCOLSE
                                    8104
 DROP   *,R7                        8105                       DROP  BR
1DOPT     (DOPT2025) (12:42) (15MAR04) Editing Command Scan Tables                                                          Page   12
0Current Usings:  (CP,R11) (CV,R12)
0Loc    Object Code    Addr1 Addr2  Stmt Lv Lineno    Source Statement           (Hibal 5, Asmedit 3.3)  HLASM R4.0  2004/03/15 12.42
+___    ______ ____    _____ _____  ____ __ ______    ______ _________
0                                   8113                       ENTRY QUIETPRT,COLLPRT,INTPRT,NOOPTPRT
-0005A2                             8115              NOOPTPRT LABEL ,
 0005A2 FF000000                    8117                       OSCKW ,V(INVALID)
                                    8119
 0005A6 0F0005B8C9D5E3C5            8120              INTPRT   OSCKW INTERNAL,SCNINTRL,A
 0005B2 F9                          8122                       OSCKW ,,POP
 0005B3 FF000000                    8124                       OSCKW ,V(INVALID)
                                    8126
 0005B8 9610 BD58      00D58        8127              SCNINTRL SET   CPFINT
 0005BC 07FE                        8134                       BR    RAR
-0005BE 0C0005CCD8E4C9C5            8136              QUIETPRT OSCKW QUIET,SCNQUIET,A
 0005C7 F9                          8138                       OSCKW ,,POP
 0005C8 FF000000                    8140                       OSCKW ,V(INVALID)
                                    8142
 0005CC 9640 BD55      00D55        8143              SCNQUIET SET   CPFQUIET            don't write msgs
 0005D0 07FE                        8150                       BR    RAR
-0005D2 0E0005E6C3D6D3D3            8152              COLLPRT  OSCKW COLLECT,SCNCOLL,A
 0005DD FF000690                    8154                       OSCKW ,SCNCHK
 0005E1 F9                          8156                       OSCKW ,,POP
 0005E2 FF000000                    8158                       OSCKW ,V(INVALID)
                                    8160
 0005E6 50E0 D000/9028_      00000  8161              SCNCOLL  XENTER R2,R8,,LOCAL
 USING  *,R7
 000600                             8179              COLBASE  LABEL
 000600 D604 B3B4 B3B4_003B4 003B4  8181                       IF    (CPSACCT,Z),BEGIN
 00060A 4110 7280/4100_      00880  8197  1                      ABORT 'Collect option not allowed before logon.'
 000616                             8204                       END
                                    8208
 000616 9104 B149/47E0_00149        8209                       IF    CPOFNCHG,BEGIN      ACTIVE file mods blocked...
 00061E 4110 73BF/4100_      009BF  8224  1                      ABORT 'ACTIVE file changes blocked by ORVYL program.'
 00062A                             8231                       END
 00062A 9680 BD55      00D55        8235                       SET   CPFDUMP             Route output to active file
 00062E 58E0 72E8/0DEE       008E8  8241                       VCALL BLNKTOK             Blank token if wanted
 000634 185D/41D0 D07C              8245                       XPUSH ,,L'CPOSCAN,PTR=R5
 00063A D27B 5000 BCA8 00000 00CA8  8248                       MVC   @R5(L'CPOSCAN),CPOSCAN  save scanner state
 000640 9640 BCD0      00CD0        8249                       SET   CPSCNFLG.CPFRTNER
 000644 D203 BCC8 72EC 00CC8 008EC  8256                       MVC   CPSCNERT,=A(COLONLY)
 00064A 4160 707E            0067E  8257                       LA    R6,COLLINE
 00064E 4110 7164/58E0_      00764  8258                       OSCAN COLLN
 000658 9280 BC68      00C68        8271              COLONLY  MVI   CPDMPLST,X'80'      No lineno yet
 00065C D203 B5A8 72F0 005A8 008F0  8272                       MVC   CPACLNO,=F'-1000'   No current lineno
 000662 D205 BCA8 5000 00CA8 00000  8273                       MVC   CPOSCAN(6),@R5       Backup
 000668 D275 BCAE 5006 00CAE 00006  8274              COLRSTR  MVC   CPOSCAN+6(L'CPOSCAN-6),@R5+6  scanner
 00066E 947F BCD0      00CD0        8275                       CLEAR CPSCNFLG.CPFSBLK    don't blank kw
 000672 18D8/58E0 D000_             8283                       XEXIT
                                    8288
 00067E 9680 BD57      00D57        8289              COLLINE  SET   CPLCOLXP            Lineno is explicit
 000682 9001 BC68            00C68  8296                       STM   R0,R1,CPDMPLST      Save lineno & implied delta
1DOPT     (DOPT2025) (12:42) (15MAR04) Editing Command Scan Tables                                                          Page   13
0Current Usings:  (*,R7) (CP,R11) (CV,R12)
0Loc    Object Code    Addr1 Addr2  Stmt Lv Lineno    Source Statement           (Hibal 5, Asmedit 3.3)  HLASM R4.0  2004/03/15 12.42
+___    ______ ____    _____ _____  ____ __ ______    ______ _________
0000686 58E0 72E8/0DEE       008E8  8297                       VCALL BLNKTOK             Blank token if wanted
 00068C 47F0 7068            00668  8301                       B     COLRSTR
-000690 50E0 D000/9028_      00000  8303              SCNCHK   XENTER R2,R8,,LOCAL
 DROP   *,R7
 USING  *,R7
 0006AA 5870 724A            008F4  8324                       BASE  COLBASE
 DROP   *,R7
 USING  COLBASE,R7
 0006AE 185D/41D0 D07C              8342                       XPUSH ,,L'CPOSCAN,PTR=R5
 0006B4 D27B 5000 BCA8 00000 00CA8  8345                       MVC   @R5(L'CPOSCAN),CPOSCAN
 0006BA 9640 BCD0      00CD0        8346                       SET   CPSCNFLG.CPFRTNER
 0006BE 9180 BD55/47E0_00D55        8353                       IF    CPFDUMP,BEGIN
 0006C6 D205 BCA8 BCC0 00CA8 00CC0  8368  1                      OSCBACK ,                 Backup scanner
 0006CC 1B44                        8370  1                      CLEAR R4
 0006CE 9118 BD55/4780_00D55        8374  1                      IF    CPFCLEAR+CPFKEEP,'LA R4,1'
 0006DA 9640 BCD0      00CD0        8398  1           COLOSCN    SET   CPSCNFLG.CPFRTNER
 0006DE D203 BCC8 72F8 00CC8 008F8  8406  1                      MVC   CPSCNERT,=A(COLRES)
 0006E4 4110 716C/58E0_      0076C  8407  1                      OSCAN COLOPTS
 0006EE 1244/4770 711E_             8420  1           COLRES     IF    ((R4,Z),AND,CPFCLEAR+CPFKEEP),BEGIN
 0006FC D27B D008 BCA8 00008 00CA8  8452  2                        MVC   @R13+8(L'CPOSCAN),CPOSCAN  scansave
 000702 9001 D000/41D0_      00000  8453  2                        XPUSH R0,R1,8+L'CPOSCAN
 00070A 58E0 72FC/0DEE       008FC  8456  2                        VCALL CLRTEXT
 000710 4BD0 7338/9801_      00938  8460  2                        XPOP  R0,R1,8+L'CPOSCAN
 000718 D27B BCA8 D008 00CA8 00008  8463  2                        MVC   CPOSCAN,@R13+8       Scanrstr
 00071E                             8464  1                      END
 00071E D505 BCA8 5000_00CA8 00000  8468  1                      IF    ('CLC CPSCNLOC(6),@R5',NE),BEGIN
 000728 1211/4780 7068              8481  2                        IF    (R1,Z),COLRSTR      Scan is complete
 00072E D205 BCA8 BCC0 00CA8 00CC0  8498  2                        OSCBACK ,                Backup scanner
 000734 47F0 7068            00668  8500  2                        B     COLRSTR             Start over at top of prt
 000738                             8501  1                      END
 000738                             8505                       END
 000738 58E0 72B8            008B8  8509                       L     RAR,=V(SCNRES)
 00073C 50E0 8000            00000  8510                       ST    RAR,@R8
 000740 47F0 7068            00668  8511                       B     COLRSTR
                                    8512
 000744 12FF/4780 C7E4              8513              COLBY    IF    (R15,Z),CVNVALID
 00074A 50F0 BC6C            00C6C  8531                       ST    R15,CPDMPDLT        Collect delta
 00074E 182E                        8532                       LR    R2,RAR
 000750 9180 BC68/47E0_00C68        8533                       IF    CPDMPLST.X'80',BEGIN  No collect lineno yet...
 000758 58E0 7300/0DEE       00900  8549  1                      VCALL ENDLNO              Get END line-number
 00075E 5000 BC68            00C68  8553  1                      ST    R0,CPDMPLST         Set starting lineno
 000762                             8554                       END
 000762 07F2                        8558                       BR    R2
                                    8559
 000764 F80009F2                    8560              COLLN    OSCKW ,LNENOPRT,PUSH
 000768 FF000658                    8562                       OSCKW ,COLONLY
                                    8564
 00076C E1000744C2E8                8565              COLOPTS  OSCKW BY,COLBY,(P,LN)
 000772 F8000795                    8567                       OSCKW ,CLRPRT,PUSH
 000776 FF0006EE                    8569                       OSCKW ,COLRES
1DOPT     (DOPT2025) (12:42) (15MAR04) SCRATCH/CLEAR PRTs                                                                   Page   14
0Current Usings:  (COLBASE,R7) (CP,R11) (CV,R12)
0Loc    Object Code    Addr1 Addr2  Stmt Lv Lineno    Source Statement           (Hibal 5, Asmedit 3.3)  HLASM R4.0  2004/03/15 12.42
+___    ______ ____    _____ _____  ____ __ ______    ______ _________
0                                   8572              * scratch prt
                                    8573                       ENTRY SCRPRT
 00077A 0E0007D4E2C3D9C1            8574              SCRPRT   OSCKW SCRATCH,SCNSCR,A
 000785 0E0007D4D9C5D7D3            8576                       OSCKW REPLACE,SCNSCR,A
 000790 F9                          8578                       OSCKW ,,POP
                                    8580              *
                                    8581              * clear/noclear and scratch/noscratch
                                    8582                       ENTRY CLSCRPRT
 000791 F800077A                    8583              CLSCRPRT OSCKW ,SCRPRT,PUSH
                                    8585                       ENTRY CLRPRT
 000795 0C0007DAC3D3C5C1            8586              CLRPRT   OSCKW CLEAR,SCNCLR,A
 00079E 0A0007DAC3D3D9              8588                       OSCKW CLR,SCNCLR,A
 0007A5 0B0007E4D2C5C5D7            8590                       OSCKW KEEP,SCNKEEP,A
 0007AD 0E0007E4D5D6C3D3            8592                       OSCKW NOCLEAR,SCNKEEP,A
 0007B8 0C0007E4D5D6C3D3            8594                       OSCKW NOCLR,SCNKEEP,A
 0007C1 0B0007F4E6C1D9D5            8596                       OSCKW WARN,SCNWARN,A
 0007C9 0D0007EED5D6E6C1            8598                       OSCKW NOWARN,SCNOWRN,A
 0007D3 F9                          8600                       OSCKW ,,POP
                                    8602
 0007D4 9640 BD51      00D51        8603              SCNSCR   SET   CPLFLG2.CPFSCRTC
 0007D8 07FE                        8611                       BR    RAR
                                    8612
 0007DA 9610 BD55      00D55        8613              SCNCLR   SET   CPFCLEAR
 0007DE 94F7 BD55      00D55        8620                       CLEAR CPFKEEP
 0007E2 07FE                        8627                       BR    RAR
                                    8628
 0007E4 9608 BD55      00D55        8629              SCNKEEP  SET   CPFKEEP
 0007E8 94EF BD55      00D55        8636                       CLEAR CPFCLEAR
 0007EC 07FE                        8643                       BR    RAR
                                    8644
 0007EE 9604 BD55      00D55        8645              SCNOWRN  SET   CPFNWARN
 0007F2 07FE                        8652                       BR    RAR
                                    8653
 0007F4 94FB BD55      00D55        8654              SCNWARN  CLEAR CPFNWARN
 0007F8 07FE                        8662                       BR    RAR
                                    8663
                                    8664                       QLTORG
1DOPT     (DOPT2025) (12:42) (15MAR04) Line Number Recognition Routine                                                      Page   15
0Current Usings:  (COLBASE,R7) (CP,R11) (CV,R12)
0Loc    Object Code    Addr1 Addr2  Stmt Lv Lineno    Source Statement           (Hibal 5, Asmedit 3.3)  HLASM R4.0  2004/03/15 12.42
+___    ______ ____    _____ _____  ____ __ ______    ______ _________
0                                   8717              * to use this prt, register r6 must be set to the desired
                                    8718              * return address if a line number is recognized
                                    8719              *
                                    8720              * R0 contains the specified line number on exit
                                    8721              * R1 has a delta that can be used by collect, move and copy
                                    8722              * R15 has return codes to show which way the line no was
                                    8723              * specified.
                                    8724              * R15 -  0 regular line number specified
                                    8725              *        4 first specified
                                    8726              *        8 current specified
                                    8727              *       12 last specified
                                    8728              *       16 end specified
                                    8729              *       20 next specified
                                    8730              *       24 previous specified
                                    8731              *       28 return specified
                                    8732              *       32 ATTN specified
                                    8733              *       36 ABORT specified
                                    8734              *
                                    8735              * after the line number specified has been processed,
                                    8736              * an increment is scanned for and added in if found
                                    8737              * unless cpfnoinc bit is on in cplflg4.
                                    8738              *
                                    8739                       ENTRY LNENOPRT,LNENOPRN
 0009F2 00000A60C6                  8740              LNENOPRT OSCKW F,SCNFRST
 0009F7 00000AA6D3                  8742                       OSCKW L,SCNLAST
 0009FC 0D000BD0D9C5E3E4            8744                       OSCKW RETURN,SCNRETN,A
 000A06 60000B8240                  8746              LNENOPRN OSCKW ,SCNLNENO,LN
 000A0B 0C000A60C6C9D9E2            8748                       OSCKW FIRST,SCNFRST,A
 000A14 0E000AEEC3E4D9D9            8750                       OSCKW CURRENT,SCNCURR,A
 000A1F 0B000AA6D3C1E2E3            8752                       OSCKW LAST,SCNLAST,A
 000A27 02000B46C5D5C4              8754                       OSCKW END,SCNEND
 000A2E 0B000C58D5C5E7E3            8756                       OSCKW NEXT,SCNNEXT,A
 000A36 0F000C4ED7D9C5E5            8758                       OSCKW PREVIOUS,SCNPREV,A
 000A42 0D000B8CC6C2D3D6            8760                       OSCKW FBLOCK,SCNFBLK,A
 000A4C 0D000BAED3C2D3D6            8762                       OSCKW LBLOCK,SCNLBLK,A
 000A56 00000AEE5C                  8764                       OSCKW *,SCNCURR
                                    8766              *IOWA*   OSCKW ATTN,SCNATTN,A
                                    8767              *IOWA*   OSCKW ATTENTION,SCNATTN,A
                                    8768              *IOWA*   OSCKW ABORT,SCNABORT,A
 000A5B F9                          8769                       OSCKW ,,POP
 000A5C FF000000                    8771                       OSCKW ,V(INVALID)
                                    8773
 000A60 50E0 D000/9028_      00000  8774              SCNFRST  XENTER R2,R8,,LOCAL
 DROP   COLBASE,R7
 USING  *,R7
 000A7A 5800 B5A0            005A0  8795                       L     R0,CPAFLNO          R0 = FIRST line-number
 000A7E 41F0 0004            00004  8796                       LA    R15,4               Set code for FIRST
 000A82 9503 BD89/4780_00D89        8797                       IF    (~CPFRDEXT,AND,~CPFRDEXE),INCRSCN1  IF ACTIVE
                                    8829
 000A92 1B00                        8830                       CLEAR R0                  Set first possible for external
 000A94 9503 BD89/4780_00D89        8834                       IF    CPFRDEXT,INCRSCN1   External
                                    8852
 000A9C 58E0 740E/0DEE       00E88  8853                       VCALL EXFRSTLN            Assume select from exec
 000AA2 47F0 74DA            00F54  8857                       B     INCRSCN1
1DOPT     (DOPT2025) (12:42) (15MAR04) Line Number Recognition Routine                                                      Page   16
0Current Usings:  (CP,R11) (CV,R12)
0Loc    Object Code    Addr1 Addr2  Stmt Lv Lineno    Source Statement           (Hibal 5, Asmedit 3.3)  HLASM R4.0  2004/03/15 12.42
+___    ______ ____    _____ _____  ____ __ ______    ______ _________
0DROP   *,R7                        8858                       DROP  BR
                                    8865              *
                                    8866              *
 000AA6 50E0 D000/9028_      00000  8867              SCNLAST  XENTER R2,R8,,LOCAL
 USING  *,R7
 000AC0 5800 B5A4            005A4  8885                       L     R0,CPALLNO          R0 = LAST line-number
 000AC4 41F0 000C            0000C  8886                       LA    R15,12              Set code for LAST
 000AC8 9503 BD89/4780_00D89        8887                       IF    (~CPFRDEXT,AND,~CPFRDEXE),INCRSCN1  IF ACTIVE
                                    8919
 000AD8 5800 C15C            0015C  8920                       L     R0,CVMAXLNO         Set last possible for external
 000ADC 9503 BD89/4780_00D89        8921                       IF    CPFRDEXT,INCRSCN1   External
                                    8939
 000AE4 58E0 73CC/0DEE       00E8C  8940                       VCALL EXLASTLN            Assume select from exec
 000AEA 47F0 7494            00F54  8944                       B     INCRSCN1
 DROP   *,R7                        8945                       DROP  BR
                                    8952              *
                                    8953              *
 000AEE 50E0 D000/9028_      00000  8954              SCNCURR  XENTER R2,R8,,LOCAL       Current
 USING  *,R7
 000B08 41F0 0008            00008  8972                       LA    R15,8               Set code for current
 000B0C 5800 B5A8            005A8  8973                       L     R0,CPACLNO          Get current in acitve file
 000B10 9503 BD89/4780_00D89        8974                       IF    CPFRDEXT,CVNVALID   Test if correct selection
 000B18 9502 BD89/4770_00D89        8992                       IF    ~CPFRDEXE,CURRTST   If active
 000B20 5800 B75C            0075C  9010                       L     R0,CPEXLINE         Assume select from exec
 000B24 1200                        9011              CURRTST  LTR   R0,R0               See if valid line number
 000B26 47B0 744C            00F54  9012                       BNM   INCRSCN1            Branch if okay
 000B2A 9102 BD53      00D53        9013                       TM    CPLFLG4,CPFNOCUR    Is it ok not to have current
 000B2E 4710 7036            00B3E  9014                       BO    CURRMIN             Br yes to return -1
 000B32 4110 7348/4100_      00E50  9015                       SETMSG 'Current line is not set.'
 000B3A 47F0 756E            01076  9019                       B     SCNABRT
                                    9020
 000B3E 4800 7404            00F0C  9021              CURRMIN  LH    R0,=H'-1000'        Set R0 to -1.000
 000B42 47F0 744C            00F54  9022                       B     INCRSCN1            Now go look for any increment
                                    9023                       DROP  RAR
                                    9027
 000B46 50E0 D000/9028_      00000  9028              SCNEND   XENTER R2,R8              End
 DROP   *,R7
 USING  *,R7
 000B60 9503 BD89/4780_00D89        9050                       IF    CPFRDEXT,CVNVALID   Only select from active
 000B68 9502 BD89/4780_00D89        9068                       IF    CPFRDEXE,CVNVALID   Branch not from active
 000B70 58E0 7330/0DEE       00E90  9086                       VCALL ENDLNO
 000B76 4740 C7E4            007E4  9090                       BM    CVNVALID            Error
 000B7A 41F0 0010            00010  9091                       LA    R15,16              Set code for end
 000B7E 47F0 73F4            00F54  9092                       B     INCRSCN1            Go get incr if given
 DROP   *,R7                        9093                       DROP  BR
                                    9100
 000B82 0DE0                        9101              SCNLNENO BASE  RAR                 Temp base
 USING  *,R14
 000B84 180F                        9115                       LR    R0,R15              Put normal line no in R0
 000B86 1BFF                        9116                       CLEAR R15                 Set code for normal line no
 000B88 47F0 E3B6            00F3A  9120                       B     INCRSCN             Go scan for increment
                                    9121
 000B8C 0DE0                        9122              SCNFBLK  BASE  RAR
 DROP   *,R14
1DOPT     (DOPT2025) (12:42) (15MAR04) Line Number Recognition Routine                                                      Page   17
0Current Usings:  (CP,R11) (CV,R12) (*,R14)
0Loc    Object Code    Addr1 Addr2  Stmt Lv Lineno    Source Statement           (Hibal 5, Asmedit 3.3)  HLASM R4.0  2004/03/15 12.42
+___    ______ ____    _____ _____  ____ __ ______    ______ _________
0USING  *,R14
 000B8E 5800 B74C            0074C  9139                       L     R0,CPFBKLNO         FBLOCK line-number
 000B92 D603 B748 B748_00748 00748  9140                       IF    ((CPBLKACT,Z),OR,CPVFHIDE),'L R0,=F"-1000"'
 000BA8 1BFF                        9176                       CLEAR R15                 Normal line-number
 000BAA 47F0 E3AC            00F3A  9180                       B     INCRSCN
                                    9181
 000BAE 0DE0                        9182              SCNLBLK  BASE  RAR
 DROP   *,R14
 USING  *,R14
 000BB0 5800 B750            00750  9199                       L     R0,CPLBKLNO         LBLOCK line-number
 000BB4 D603 B748 B748_00748 00748  9200                       IF    ((CPBLKACT,Z),OR,CPVFHIDE),'L R0,=F"-1000"'
 000BCA 1BFF                        9236                       CLEAR R15                 Normal line-number
 000BCC 47F0 E38A            00F3A  9240                       B     INCRSCN
                                    9241
 000BD0 0DE0                        9242              SCNRETN  BASE  RAR                 Temp base
 DROP   *,R14
 USING  *,R14
 000BD2 5800 B764            00764  9259                       L     R0,CPRETURN         get value of 'return'
 000BD6 41F0 001C            0001C  9260                       LA    R15,28              Set code for return
 000BDA 47F0 E368            00F3A  9261                       B     INCRSCN             Go scan for increment
                                    9262
 000BDE 50E0 D000/9028_      00000  9263              SCNATTN  XENTER R2,R8,,LOCAL       ATTN was specified
 USING  *,R7
 000BF8 41F0 0020            00020  9281                       LA    R15,32              Set code for ATTN
 000BFC 5800 B89C            0089C  9282                       L     R0,CPEXATTN         Load ATTN line number
 000C00 1200/4770 701A              9283                       IF    (R0,Z),BEGIN
 000C06 4110 7270/4100_      00E68  9297  1                      SETMSG 'ATTN line number not set'
 000C0E 47F0 747E            01076  9301  1                      B     SCNABRT
 000C12                             9302                       END
 000C12 47F0 735C            00F54  9306                       B     INCRSCN1            Continue ...
 DROP   *,R7                        9307                       DROP  BR
                                    9314
 000C16 50E0 D000/9028_      00000  9315              SCNABORT XENTER R2,R8,,LOCAL       ABORT was specified
 USING  *,R7
 000C30 41F0 0024            00024  9333                       LA    R15,36              Set code for ABRT
 000C34 5800 B898            00898  9334                       L     R0,CPEXABRT         Load ABRT line number
 000C38 1200/4770 701A              9335                       IF    (R0,Z),BEGIN
 000C3E 4110 72E2/4100_      00F12  9349  1                      SETMSG 'ABORT line number not set'
 000C46 47F0 7446            01076  9353  1                      B     SCNABRT
 000C4A                             9354                       END
 000C4A 47F0 7324            00F54  9358                       B     INCRSCN1            Continue ...
 DROP   *,R7                        9359                       DROP  BR
                                    9366
 000C4E 0DE0                        9367              SCNPREV  BASE  RAR                 Temp base
 DROP   *,R14
 USING  *,R14
 000C50 4810 E2BE            00F0E  9384                       LH    R1,=H'-1'           Set negative increment
 000C54 47F0 E00C            00C5C  9385                       B     SCNNEXTC            Go join next code
 DROP   *,R14                       9386                       DROP  RAR
                                    9393
 000C58 4110 0001            00001  9394              SCNNEXT  LA    R1,1                Set positive increment
 000C5C 50E0 D000/9028_      00000  9395              SCNNEXTC XENTER R2,R8,,LOCAL
 USING  *,R7
 000C76 9503 BD89/4780_00D89        9413                       IF    CPFRDEXT,CVNVALID   Invalid if external file
1DOPT     (DOPT2025) (12:42) (15MAR04) Line Number Recognition Routine                                                      Page   18
0Current Usings:  (*,R7) (CP,R11) (CV,R12)
0Loc    Object Code    Addr1 Addr2  Stmt Lv Lineno    Source Statement           (Hibal 5, Asmedit 3.3)  HLASM R4.0  2004/03/15 12.42
+___    ______ ____    _____ _____  ____ __ ______    ______ _________
0000C7E 9502 BD89/4780_00D89        9431                       IF    CPFRDEXE,SCNNEXT1   Branch if from exec file
 000C86 5800 B5A8            005A8  9449                       L     R0,CPACLNO          Get current in active file
 000C8A 5850 7222            00E98  9450                       L     R5,=V(LOCATE)       Use locate routine
 000C8E 47F0 7024            00C9A  9451                       B     SCNNEXT2
                                    9452
 000C92 5800 B75C            0075C  9453              SCNNEXT1 L     R0,CPEXLINE         Use current in exec file
 000C96 5850 7226            00E9C  9454                       L     R5,=V(EXLOCATE)     Use exec locate routine
 000C9A 1200                        9455              SCNNEXT2 LTR   R0,R0               Is line number valid
 000C9C 4740 7058            00CCE  9456                       BM    NONEXTST            Br if not
 000CA0 58E0 722A/0DEE       00EA0  9457                       VCALL ADDER               Add line number & increment
 000CA6 4740 7058            00CCE  9461                       BM    NONEXTST            Branch if invalid line
 000CAA 5000 B73C            0073C  9462                       ST    R0,CPLCNO           Store line no. to locate
 000CAE 1211                        9463                       LTR   R1,R1               Set cc for prev or next
 000CB0 4110 B73C            0073C  9464                       LA    R1,CPLCNO           Point to locate line
 000CB4 4740 7090            00D06  9465                       BM    SCNPREV1            Branch if previous line
 000CB8 0DE5                        9466                       BASR  RAR,R5              Go locate next line
 000CBA 91C0 BD84      00D84        9467                       TM    CPDRPT,CPFNTYT+CPFHIGH  does it exist
 000CBE 4770 705E            00CD4  9468                       BNZ   NONEXT              Branch no
 000CC2 5800 B73C            0073C  9469                       L     R0,CPLCNO           Load line no. of next
 000CC6 41F0 0014            00014  9470                       LA    R15,20              Set return code
 000CCA 47F0 72DE            00F54  9471                       B     INCRSCN1            Go scan for increment
                                    9472
 000CCE 1211                        9473              NONEXTST LTR   R1,R1               Is next or prev bad
 000CD0 4740 70E4            00D5A  9474                       BM    NOPREV              Branch if previous
 000CD4 4110 722E/4100_      00EA4  9475              NONEXT   SETMSG 'NEXT'
 000CDC 9102 BD53      00D53        9479              NONEXT1  TM    CPLFLG4,CPFNOCUR    Is it ok to not exist
 000CE0 4780 707A            00CF0  9480                       BE    NONEXT2             Br no to do error
 000CE4 4800 7296            00F0C  9481                       LH    R0,=H'-1000'        Set R0 to -1.000
 000CE8 5810 B738            00738  9482                       L     R1,CPDELTA          Set R1 to global delta
 000CEC 47F0 7330            00FA6  9483                       B     INCRXIT             Exit to line number routine
                                    9484
 000CF0 41F0 B050/58E0_      00050  9485              NONEXT2  TSEG  (R1),(R0),B
 000CFA 4110 7236/4100_      00EAC  9510                       SETMSG 'line does not exist.'
 000D02 47F0 7400            01076  9514                       B     SCNABRT
                                    9515
 000D06 41F0 0001/5EF0_      00001  9516              SCNPREV1 INCR  R15,CPLCNO          Current lineno
 000D12 9502 BD89/4780_00D89        9522                       IF    (~CPFRDEXE,AND,~CPFRDEXT),BEGIN  Active lineno...
 000D22 58E0 724A/0DEE       00EC0  9551  1                      VCALL PREVLNO             Get previous lineno
 000D28 4740 70E4            00D5A  9555  1                      BM    NOPREV              Sorry
 000D2C                             9556                       END
                                    9560
 000D2C 70BA/70BA/47F0_00D2C 00D18  9561                       ELSE  BEGIN               Previous Exec lineno...
 000D30 181D/41D0 D0EC              9574  1                      XPUSH ,,&LINESZ,PTR=R1
 000D36 4100 00EB            000EB  9577  1                      SETMSG (R1),&LINESZ        Put line text here
 000D3A 4120 B73C            0073C  9590  1                      LA    R2,CPLCNO
 000D3E 58E0 724E/0DEE       00EC4  9591  1                      VCALL EXPREV              Get previous exec lineno
 000D44 4BD0 729A            00F10  9595  1                      XPOP  ,,&LINESZ
 000D48 12FF/4770 70E4              9597  1                      IF    (R15,NZ),NOPREV     No previous lineno
 000D4E                             9614                       END
                                    9618
 000D4E 5800 B73C            0073C  9619                       L     R0,CPLCNO           Previous lineno
 000D52 41F0 0018            00018  9620                       LA    R15,24              Set return code
 000D56 4780 72DE            00F54  9621                       BZ    INCRSCN1            Branch yes to increment
                                    9622
1DOPT     (DOPT2025) (12:42) (15MAR04) Line Number Recognition Routine                                                      Page   19
0Current Usings:  (*,R7) (CP,R11) (CV,R12)
0Loc    Object Code    Addr1 Addr2  Stmt Lv Lineno    Source Statement           (Hibal 5, Asmedit 3.3)  HLASM R4.0  2004/03/15 12.42
+___    ______ ____    _____ _____  ____ __ ______    ______ _________
0000D5A 4110 720A/4100_      00E80  9623              NOPREV   SETMSG 'PREVIOUS'
 000D62 47F0 7066            00CDC  9627                       B     NONEXT1             Go finish message
                                    9628
 DROP   *,R7                        9629                       DROP  BR
1DOPT     (DOPT2025) (12:42) (15MAR04) Line Number Recognition Routine                                                      Page   20
0Current Usings:  (CP,R11) (CV,R12)
0Loc    Object Code    Addr1 Addr2  Stmt Lv Lineno    Source Statement           (Hibal 5, Asmedit 3.3)  HLASM R4.0  2004/03/15 12.42
+___    ______ ____    _____ _____  ____ __ ______    ______ _________
0                                   9637              ¿þþþþþþþþþþþþþþþþþþþþþþþþþþþþþþþþþþþþþþþþþþþþþþþþþþþþþþþþþþþþþþþþþþþþþÜ
                                    9638              Ÿ                                                                     Ÿ
                                    9639              Ÿ                                                                     Ÿ
                                    9640              Ÿ  ATTNLINE - GET ATTENTION LINE NUMBER                               Ÿ
                                    9641              Ÿ                                                                     Ÿ
                                    9642              Ÿ  ON ENTRY:                                                          Ÿ
                                    9643              Ÿ       SCANCB - POINTS JUST PAST 'ATTN' KEYWORD                      Ÿ
                                    9644              Ÿ                                                                     Ÿ
                                    9645              Ÿ  ON EXIT:                                                           Ÿ
                                    9646              Ÿ       SCANCB - UPDATED                                              Ÿ
                                    9647              Ÿ       R0 - ATTENTION LINE NUMBER                                    Ÿ
                                    9648              Ÿ                                                                     Ÿ
                                    9649              Ÿ                                                                     Ÿ
                                    9650              Ÿ  WE TREAT TWO CASES: 1. IN OLD EXECS A LINE NUMBER                  Ÿ
                                    9651              Ÿ     MUST BE SPECIFIED.  2. IN EXTENDED EXECS A LABEL                Ÿ
                                    9652              Ÿ     MUST BE SPECIFIED.                                              Ÿ
                                    9653              Ÿ                                                                     Ÿ
                                    9654              Ÿ                                                                     Ÿ
                                                      ¾þþþþþþþþþþþþþþþþþþþþþþþþþþþþþþþþþþþþþþþþþþþþþþþþþþþþþþþþþþþþþþþþþþþþþ»
0000D66 50E0 D000/9018_      00000  9655              ZTTNLINE XENTER R1,R8
 USING  *,R7
                                    9674
 000D80 9180 B758/4710_00758        9675                       IF    ~CPFEXEC,BEGIN
 000D88 4110 71AB/4100_      00F2B  9690  1                      TSEG  'ATTN: invalid. '
 000D9A 4110 714C/4100_      00ECC  9708  1                      ERROR 'ATTN option may only be used in EXEC files. '
 000DA6                             9715                       END
                                    9719
 000DA6 702A/47F0 7054_00DA6 00D86  9720                       ELSEIF  CPFXOLD,BEGIN     IF OLD,
 000DB2 4320 BD89            00D89  9744  1                      IC    R2,CPFRDSRC         GET LINENO IS STANDARD (OLD)
 000DB6 9200 BD89      00D89        9745  1                      CLEAR CPFRDSRC                FASION
 000DBA 9202 BD89      00D89        9752  1                      SET   CPFRDEXE
 000DBE 4160 7050            00DD0  9758  1                      LA    R6,GOTALINE
 000DC2 5810 7178/58E0_      00EF8  9759  1                      OSCAN L:=V(LNENOPRT)
 000DCC 47F0 C7F0            007F0  9770  1                      B     CVABSENT
 000DD0                             9771  1           GOTALINE   LABEL ,                   RETURNS R0=LINENO
 000DD0 4220 BD89            00D89  9773  1                      STC   R2,CPFRDSRC
 000DD4                             9774                       END
                                    9778
                                    9779                       COMMENT                   IF EXTENDED MODE, LABELS ONLY
                                    9780                       COMMENT
 000DD4 7058/47F0 70B4_00DD4 00DB0  9781                       ELSEIF CPFXTEND,BEGIN     PROCSSES ATTN = LABEL
 000DE0 58E0 7180/0DEE       00F00  9805  1                      OSCINFO
 000DE6 1A01                        9810  1                      AR    R0,R1
 000DE8 9540 1000/4770_00000        9811  1                      WHILE ((@R1,EQ,' '),AND,(R1,LT,R0)),BEGIN    SKIP BLANKS
 000DF6 4111 0001            00001  9843  2                        LA    R1,1(R1)
 000DFA 47F0 7068            00DE8  9844  1                      END
 000DFE 957E 1000/4770_00000        9849  1                      IF    ((@R1,EQ,'='),AND,(R1,LT,R0)),BEGIN    SKIP '='
 000E0C 4111 0001            00001  9879  2                        LA    R1,1(R1)
 000E10                             9880  1                      END
 000E10 9540 1000/4770_00000        9884  1                      WHILE ((@R1,EQ,' '),AND,(R1,LT,R0)),BEGIN    SKIP BLANKS
 000E1E 4111 0001            00001  9916  2                        LA    R1,1(R1)
 000E22 47F0 7090            00E10  9917  1                      END
 000E26 1B01                        9922  1                      SR    R0,R1
1DOPT     (DOPT2025) (12:42) (15MAR04) Line Number Recognition Routine                                                      Page   21
0Current Usings:  (*,R7) (CP,R11) (CV,R12)
0Loc    Object Code    Addr1 Addr2  Stmt Lv Lineno    Source Statement           (Hibal 5, Asmedit 3.3)  HLASM R4.0  2004/03/15 12.42
+___    ______ ____    _____ _____  ____ __ ______    ______ _________
0000E28 58E0 7184/0DEE       00F04  9923  1                      OSCSET (R1),(R0)
 000E2E 58E0 7188/0DEE       00F08  9939  1                      VCALL LABELLNO            PROCESS LABEL
                                    9943  1                      COMMENT                   RETURNS R0=LABEL LINENO
 000E34                             9944                       END
                                    9948
 000E34 70B8/47F0 70BA 00E34 00DDE  9949                       ELSE  BEGIN               MUST HAVE BEEN ONE OF ABOVE
 000E38 0000                        9960  1                      BOMB
 000E3A                             9962                       END
                                    9966
 000E3A 1BFF                        9967                       CLEAR R15
 000E3C 18D8/58E0 D000_             9971                       XEXIT R1,R8,LTR
1DOPT     (DOPT2025) (12:42) (15MAR04) Line Number Recognition Routine                                                      Page   22
0Current Usings:  (*,R7) (CP,R11) (CV,R12)
0Loc    Object Code    Addr1 Addr2  Stmt Lv Lineno    Source Statement           (Hibal 5, Asmedit 3.3)  HLASM R4.0  2004/03/15 12.42
+___    ______ ____    _____ _____  ____ __ ______    ______ _________
0                                   9978                       QLTORG
1DOPT     (DOPT2025) (12:42) (15MAR04) Scan for Line Number Increment                                                       Page   23
0Current Usings:  (*,R7) (CP,R11) (CV,R12)
0Loc    Object Code    Addr1 Addr2  Stmt Lv Lineno    Source Statement           (Hibal 5, Asmedit 3.3)  HLASM R4.0  2004/03/15 12.42
+___    ______ ____    _____ _____  ____ __ ______    ______ _________
0                                  10018              * try to find a line number increment
                                   10019              * R0 - line number + increment (if found)
                                   10020              * R15 - restored to value on entry from lnenoprt
                                   10021              *
 000F3A 50E0 D000/9028_      00000 10022              INCRSCN  XENTER R2,R8,,LOCAL       Define base & save area
 DROP   *,R7
 USING  *,R7
 000F54 0D70                       10043              INCRSCN1 BASE
 DROP   *,R7
 USING  *,R7
 000F56 1850                       10060                       LR    R5,R0               Save first line number
 000F58 184F                       10061                       LR    R4,R15              Save R15 return code
 000F5A 58E0 715A/0DEE       010B0 10062                       OSCTELL ,                 Check to see if last token
 000F60 1200                       10067                       LTR   R0,R0               Is it the end?
 000F62 1805                       10068                       LR    R0,R5               Restore before we branch
 000F64 47D0 702C            00F82 10069                       BNP   DELTACAL            Yes - skip the incr check
 000F68 5810 BCA0            00CA0 10070                       L     R1,CPSAVE+4         Point to
 000F6C 1831                       10071                       LR    R3,R1               Save pointer
 000F6E 5E10 BC9C            00C9C 10072                       AL    R1,CPSAVE           End of last toke
 000F72 954E 1000      00000       10073                       CLI   @R1,C'+'            Plus increment
 000F76 4780 706C            00FC2 10074                       BE    INCRSCND            Yes go scan for it
 000F7A 9560 1000      00000       10075                       CLI   @R1,C'-'            Minus increment
 000F7E 4780 706C            00FC2 10076                       BE    INCRSCND            Yes go scan for it
 000F82 12FF                       10077              DELTACAL LTR   R15,R15             Regular line no given
 000F84 4770 7046            00F9C 10078                       BNZ   DELTAUSE            No use global delta
 000F88 9856 BC9C            00C9C 10079                       LM    R5,R6,CPSAVE        Yes calc delta from it
 000F8C 954B 6000      00000       10080              DELTALP  CLI   @R6,C'.'            Find period
 000F90 4780 705A            00FB0 10081                       BE    DELTAPER            Yes
 000F94 4160 6001            00001 10082                       LA    R6,@R6+1            No, step to next
 000F98 4650 7036            00F8C 10083                       BCT   R5,DELTALP          Reduce count & loop
 000F9C 5810 B738            00738 10084              DELTAUSE L     R1,CPDELTA          Set R1 to global delta
 000FA0 58E0 715E/0DEE       010B4 10085                       VCALL BLNKTOK
 000FA6 18F4                       10089              INCRXIT  LR    R15,R4
 000FA8 18D8                       10090                       LR    R13,R8              Restore R13 for exit
 000FAA 9828 D004            00004 10091                       LM    R2,R8,@R13+4        Restore return registers
 000FAE 07F6                       10092                       BR    R6                  Return
                                   10093
 000FB0 4355 7067            00FBD 10094              DELTAPER IC    R5,DELTATBL-1(R5)   Get delta from table
 000FB4 1215                       10095                       LTR   R1,R5               Set R1 and test value
 000FB6 4770 7050            00FA6 10096                       BNZ   INCRXIT             O.k. it not zero
 000FBA 47F0 7046            00F9C 10097                       B     DELTAUSE            Use cpgldl if zero
                                   10098
 000FBE 00640A01                   10099              DELTATBL DC    FL1'0,100,10,1'     Table of deltas
                                   10100
 000FC2 9101 BD53      00D53       10101              INCRSCND TM    CPLFLG4,CPFNOINC    Is the no incr flag set
 000FC6 4710 702C            00F82 10102                       BO    DELTACAL            Br yes to skip incr
 000FCA 58E0 715E/0DEE       010B4 10103                       VCALL BLNKTOK
 000FD0 4110 70FC/58E0_      01052 10107                       OSCAN INCRPRT             Scan for increment
 000FDA 1805                       10120                       LR    R0,R5               Nothing restore R0
 000FDC 47F0 7046            00F9C 10121                       B     DELTAUSE            Use delta increment
                                   10122
 000FE0 4160 70AA            01000 10123              MINUS    LA    R6,INCOMPL          Set complement return
 000FE4 47F0 7096            00FEC 10124                       B     INCRSCN2            Go get line number
                                   10125
1DOPT     (DOPT2025) (12:42) (15MAR04) Scan for Line Number Increment                                                       Page   24
0Current Usings:  (*,R7) (CP,R11) (CV,R12)
0Loc    Object Code    Addr1 Addr2  Stmt Lv Lineno    Source Statement           (Hibal 5, Asmedit 3.3)  HLASM R4.0  2004/03/15 12.42
+___    ______ ____    _____ _____  ____ __ ______    ______ _________
0000FE8 4160 70AC            01002 10126              PLUS     LA    R6,INCROK           Set incr ok return
 000FEC 58E0 715E/0DEE       010B4 10127              INCRSCN2 VCALL BLNKTOK             Blank token if needed
 000FF2 4110 710A/58E0_      01060 10131                       OSCAN INCRPRT2            Scan for line number
 000FFC 47F0 C7F0            007F0 10144                       B     CVABSENT            Missing
                                   10145
 001000 1300                       10146              INCOMPL  LCR   R0,R0               Complement result
 001002 1815                       10147              INCROK   LR    R1,R5               Set entry value for adder
 001004 58E0 7166/0DEE       010BC 10148                       VCALL ADDER               Add lineno and incr
 00100A 47B0 702C            00F82 10152                       BNM   DELTACAL            Return if value okay
 00100E 9801 BC9C            00C9C 10153                       LM    R0,R1,CPSAVE        Get end of last token
 001012 1A01                       10154                       AR    R0,R1               Into R0
 001014 1813                       10155                       LR    R1,R3               Get start of this line number
 001016 1B01                       10156                       SR    R0,R1               Calculate length of number
 001018 41F0 B050/58E0_      00050 10157                       TSEG  (R1),(R0)           Put part of message
 001022 4110 714A/4100_      010A0 10181                       SETMSG ': invalid value.'
 00102A 47F0 711C            01072 10185                       B     SCNERR
                                   10186
 00102E 180F                       10187              LNENOINC LR    R0,R15              Normal line number found
 001030 1BFF                       10188                       CLEAR R15                 Zero R15 for deltacal
 001032 47F0 70E4            0103A 10192                       B     LNENORTN            Go finish up
                                   10193
 001036 5800 B738            00738 10194              DELTAINC L     R0,CPDELTA          Delta specified
 00103A 90F0 D000/41D0_      00000 10195              LNENORTN XPUSH R15,R0
 001042 58E0 715E/0DEE       010B4 10198                       VCALL BLNKTOK             Blank token if needed
 001048 4BD0 7172/98F0_      010C8 10202                       XPOP  R15,R0
 001050 07F6                       10205                       BR    R6                  Go finish up
                                   10206
 001052 00000FE84E                 10207              INCRPRT  OSCKW +,PLUS
 001057 00000FE060                 10209                       OSCKW -,MINUS
 00105C FF000000                   10211                       OSCKW ,V(INVALID)
                                   10213
 001060 6000102E40                 10214              INCRPRT2 OSCKW ,LNENOINC,LN
 001065 0C001036C4C5D3E3           10216                       OSCKW DELTA,DELTAINC,A
 00106E FF000000                   10218                       OSCKW ,V(INVALID)
 DROP   *,R7                       10220                       DROP  BR
                                   10227
 001072 9640 BD5A      00D5A       10228              SCNERR   SET   CPFERROR
 001076 9140 BCD0/47E0_00CD0       10235              SCNABRT  IF    ~CPSCNFLG.CPFRTNER,CVABTMSG
 00107E 0D70                       10255                       BASE
 USING  *,R7
 001080 41F0 B050/58E0_      00050 10269                       TSEG  (R1),(R0),CR
 00108A 58E0 BCC8            00CC8 10293                       L     RAR,CPSCNERT        Error rtn addr
 00108E 1B00/94BF BCD0             10294                       CLEAR R0,CPSCNFLG.CPFRTNER
 001094 18D8                       10304                       LR    R13,R8              Unstack
 001096 9828 D004            00004 10305                       LM    R2,R8,@R13+4        Restore regs
 00109A 07FE                       10306                       BR    RAR
                                   10307
 DROP   *,R7                       10308                       DROP  BR
1DOPT     (DOPT2025) (12:42) (15MAR04) Scan Line for EXECUTE and/or FROM                                                    Page   25
0Current Usings:  (CP,R11) (CV,R12)
0Loc    Object Code    Addr1 Addr2  Stmt Lv Lineno    Source Statement           (Hibal 5, Asmedit 3.3)  HLASM R4.0  2004/03/15 12.42
+___    ______ ____    _____ _____  ____ __ ______    ______ _________
0                                  10316              *
                                   10317              * NO LONGER USED   -CH 2/91
                                   10318              *
                                   10319                       AGO   .SKIPSCN
                                   10320              .SKIPSCN ANOP
                                   10321                       QLTORG
1DOPT     (DOPT2025) (12:42) (15MAR04) ZSNSCAN/ZODSNM Routines                                                              Page   26
0Current Usings:  (CP,R11) (CV,R12)
0Loc    Object Code    Addr1 Addr2  Stmt Lv Lineno    Source Statement           (Hibal 5, Asmedit 3.3)  HLASM R4.0  2004/03/15 12.42
+___    ______ ____    _____ _____  ____ __ ______    ______ _________
0                                  10342              ¿þþþþþþþþþþþþþþþþþþþþþþþþþþþþþþþþþþþþþþþþþþþþþþþþþþþþþþþþþþþþþþþþþþþþþÜ
                                   10343              Ÿ                                                                     Ÿ
                                   10344              Ÿ  ZSNSCAN -- Entered as SCKW routine to process dsname.              Ÿ
                                   10345              Ÿ                                                                     Ÿ
                                                      ¾þþþþþþþþþþþþþþþþþþþþþþþþþþþþþþþþþþþþþþþþþþþþþþþþþþþþþþþþþþþþþþþþþþþþþ»
00010CA 50E0 D000/9078_      00000 10346              ZSNSCAN  XENTER R7,R8,*+L'CPOSCAN
 USING  *,R7
 0010E4 D27B 800C BCA8 0000C 00CA8 10365                       MVC   @R8+12(L'CPOSCAN),CPOSCAN
 0010EA 4DE0 701C            01100 10366                       LCALL  ZODSNM             Process dsname
 0010EE D275 BCAE 8012 00CAE 00012 10368                       MVC   CPOSCAN+6(L'CPOSCAN-6),@R8+12+6  restore scan stuff
 0010F4 18D8/58E0 D000_            10369                       XEXIT R7,R8
 DROP   *,R7                       10374                       DROP  BR
-                                  10382              * dodsnm takes 1st token found as dsname and handles it.
                                   10383              *
                                   10384              * errors are resolved internally
 001100 50E0 D000/9028_      00000 10385              ZODSNM   XENTER R2,R8,*+8
 USING  *,R7
 00111A 9102 BD50/47E0_00D50       10404                       IF    CPLFLG1.CPFDSN1,BEGIN  This is a re-entry...
 001122 9240 BE5C      00E5C       10420  1                      MVI   DSNWADSN,X'40'      Blank part of work area
 001126 D232 BE5D BE5C 00E5D 00E5C 10421  1                      MVC   DSNWADSN+1(DSNWACL2-1),DSNWADSN
 00112C D701 BF04 BF04_00F04 00F04 10422  1                      CLEAR DSNWLEN,DSNWFILE
 001138 9200 BF34      00F34       10434  1                      MVI   DSNWAF1,0           Reset attribute types
 00113C                            10435                       END
                                   10439
 00113C 7026/47F0 7050 0113C 01120 10440                       ELSE  BEGIN               First time initialization...
 001140 9602 BD50      00D50       10451  1                      SET   CPLFLG1.CPFDSN1     Set first entry done
 001144 D203 BDA0 799E 00DA0 01AB8 10458  1                      MVC   CPSEQFLD(4),=H'-1,8'  Initialize seqflds
 00114A 9280 BD9C      00D9C       10459  1                      MVI   CPLRCL,X'80'        Set file type to undefined
 00114E D7FF BE5C BE5C_00E5C 00E5C 10460  1                      CLEAR (CPDSNWA,DSSIZ)     Clear dsname work area
 00115A 9240 BE5C      00E5C       10468  1                      MVI   DSNWADSN,X'40'
 00115E D2A8 BE5D BE5C 00E5D 00E5C 10469  1                      MVC   DSNWADSN+1(DSNWACLR-1),DSNWADSN
 001164 D727 BE90 BE90 00E90 00E90 10470  1                      CLEAR DSNON
 00116A                            10477                       END
                                   10481
 00116A 1B66                       10482                       SR    R6,R6               Zero length counter
 00116C 4150 BE5C            00E5C 10483                       LA    R5,DSNWADSN         Addr of dsname work area
                                   10484                      ¿þþþþþþþþþþþþþþþþþþþþþþþþþþþþþþþþþþþþþþþþþþþþþþþþþþþþþþþþþþþþþþþþÜ
                                   10485                      Ÿ  Scan next operand for a dsname.  We use "SCANSTR" instead of  Ÿ
                                   10486                      Ÿ     the original scanner because we want to allow special      Ÿ
                                   10487                      Ÿ     characters in the dsname that would ordinarily stop the    Ÿ
                                   10488                      Ÿ     scan (such as / and -).  Network file names have these     Ÿ
                                   10489                      Ÿ     characters in them.                                        Ÿ
                                   10490                      ¾þþþþþþþþþþþþþþþþþþþþþþþþþþþþþþþþþþþþþþþþþþþþþþþþþþþþþþþþþþþþþþþþ»
 001170 9025 D000/41D0_      00000 10491                       XPUSH R2,R5               Save regs used by scan
 001178 58E0 79A2/0DEE       01ABC 10494                       OSCTELL ,                 R1,R0 - scan loc, len
 00117E 58E0 79A6/0DEE       01AC0 10499                       VCALL LRTRIM
                                   10503
 001184 1200/47D0 708C             10504                       IF    (R0,POS),BEGIN      Do quoted string specially...
 00118A 957D 1000/4780_00000       10518  1                      IF    ((@R1,EQ,''''),OR,(@R1,EQ,'"')),BEGIN
 00119A 1B11/58E0 79AA_            10549  2                        OSCAN
 0011A2 47F0 7110            0122A 10559  2                        B     QDSNCONT            Continue
1DOPT     (DOPT2025) (12:42) (15MAR04) ZSNSCAN/ZODSNM Routines                                                              Page   27
0Current Usings:  (*,R7) (CP,R11) (CV,R12)
0Loc    Object Code    Addr1 Addr2  Stmt Lv Lineno    Source Statement           (Hibal 5, Asmedit 3.3)  HLASM R4.0  2004/03/15 12.42
+___    ______ ____    _____ _____  ____ __ ______    ______ _________
00011A6                            10560  1                      END
 0011A6                            10564                       END
                                   10568
 0011A6 4120 7AB4/4130_      01BCE 10569                       LS    R2,R3,' ,='         Scan skip string
 0011AE 4140 79AE/4150_      01AC8 10572                       LS    R4,R5,' ,;('        Scan stop string
 0011B6 58E0 79B2/0DEE       01ACC 10575                       VCALL SCANSTR             Isolate dsname
 0011BC 1200/4770 70CC             10579                       IF    (R0,Z),BEGIN        No dsname...
 0011C2 9110 BD5C/47E0_00D5C       10593  1                      IF    CPFDSNNE,BEGIN      Error suppression requested?
 0011CA D207 B886 7926 00886 01A40 10608  2                        MVC   CPERRID,=CL8'MISSDSN'
 0011D0 47F0 78B6            019D0 10609  2                        B     DOERREX
 0011D4                            10610  1                      END
 0011D4 D207 B886 7926_00886 01A40 10614  1                      ERROR 'Missing data set name.',,MISSDSN
 0011E6                            10622                       END
 0011E6 954D 1000/4770_00000       10626                       IF    (@R1,EQ,'('),BEGIN
 0011EE 9110 BD5C/47E0_00D5C       10642  1                      IF    CPFDSNNE,BEGIN      Error suppression requested?
 0011F6 D207 B886 792E 00886 01A48 10657  2                        MVC   CPERRID,=CL8'BADDSN'
 0011FC 47F0 78B6            019D0 10658  2                        B     DOERREX
 001200                            10659  1                      END
 001200 4110 7AB7/4100_      01BD1 10663  1                      ERROR '(: invalid data set name.'
 00120C                            10670                       END
 00120C 9001 BC9C            00C9C 10674                       STM   R0,R1,CPSAVE        Save scan token ptrs (for later)
 001210 9001 D000/41D0_      00000 10675                       XPUSH R0,R1               Token (dsname) loc, len
 001218 1812/1803/58E0_            10678                       OSCSET (R2),(R3)          Update scanner ptrs
 001222 4BD0 7A0C/9801_      01B26 10696                       XPOP  R0,R1               Restore token ptrs
 00122A 4BD0 7A0E/9825_      01B28 10699              QDSNCONT XPOP  R2,R5               Restore regs used by scan
                                   10702
 001232 58E0 79BA/0DEE       01AD4 10703                       VCALL DEQUOTE             Dequote if quoted
 001238 4740 7126/9610_      01240 10707                       IF    NM,'SET DSNWAF1.DSNFQDSN'  Quoted dsname
                                   10730                       ¿þþþþþþþþþþþþþþþþþþþþþþþþþþþþþþþþþþþþþþþþþþþþþþþþþþþþþþþþþþþþÜ
                                   10731                       Ÿ  Save the file name as the user typed it (for network      Ÿ
                                   10732                       Ÿ    files).  This entire data set name scanning code needs  Ÿ
                                   10733                       Ÿ    to be re-coded.                                         Ÿ
                                   10734                       ¾þþþþþþþþþþþþþþþþþþþþþþþþþþþþþþþþþþþþþþþþþþþþþþþþþþþþþþþþþþþþ»
 001240 5020 D000/41D0_      00000 10735                       XPUSH R2
 001248 1820                       10738                       LR    R2,R0
 00124A 5920 79BE/47D0_      01AD8 10739                       CEIL  R2,L'DSNWFILE
 001256 4020 BF04            00F04 10758                       STH   R2,DSNWLEN          Save file name length
 00125A D22B BF08 C4D8 00F08 004D8 10759                       MVC   DSNWFILE,CVBLANKS   Pre-blank
 001260 0620/1222/4740_            10760                       MOVE  R2,DSNWFILE,@R1     Save file name (in uplow)
 00126C 4BD0 7A10/5820_      01B2A 10798                       XPOP  R2
                                   10801
 001274 9110 BF34/4710_00F34       10802                       IF    ~DSNWAF1.DSNFQDSN,BEGIN  Not-quoted dsname...
 00127C 18F0                       10818  1                      LR    R15,R0
 00127E 58E0 C8A8            008A8 10819  1                      L     R14,CVUPPTBL
 001282 06F0/12FF/4740_            10820  1                      DTEX  R15,'TR @R1(0),@R14'   Convert to upper case
 00128E                            10857                       END
                                   10861
 00128E 1841                       10862                       LR    R4,R1
 001290 1820                       10863                       LR    R2,R0
1DOPT     (DOPT2025) (12:42) (15MAR04) ZSNSCAN/ZODSNM Routines                                                              Page   28
0Current Usings:  (*,R7) (CP,R11) (CV,R12)
0Loc    Object Code    Addr1 Addr2  Stmt Lv Lineno    Source Statement           (Hibal 5, Asmedit 3.3)  HLASM R4.0  2004/03/15 12.42
+___    ______ ____    _____ _____  ____ __ ______    ______ _________
0                                  10864                       ¿þþþþþþþþþþþþþþþþþþþþþþþþþþþþþþþþþþþþþþþþþþþþþþþþþþþþþþþþþþþþÜ
                                   10865                       Ÿ  If not quoted, check for "<dev>" and "volume:" prefixes.  Ÿ
                                   10866                       ¾þþþþþþþþþþþþþþþþþþþþþþþþþþþþþþþþþþþþþþþþþþþþþþþþþþþþþþþþþþþþ»
 001292 9110 BF34/4710_00F34       10867                       IF    ~DSNWAF1.DSNFQDSN,BEGIN  Not quoted dsname...
                                   10883  1                      ¿þþþþþþþþþþþþþþþþþþþþþþþþþþþþþþþþþþþÜ
                                   10884  1                      Ÿ  Check for <device-type> prefix.  Ÿ
                                   10885  1                      ¾þþþþþþþþþþþþþþþþþþþþþþþþþþþþþþþþþþþ»
                                   10886  1         C            IF    ((R2,POS),AND,
 00129A 1222/47D0 7230_                   1                            (@R4,EQ,'<')),BEGIN  We have <>...
 0012A8 4110 1001            00001 10915  2                        LA    R1,@R1+1            Skip past "<"
 0012AC 0600                       10916  2                        DECR  R0
                                   10918  2
 0012AE 1200/47D0 71AC             10919  2                        WHILE (R0,POS),BEGIN
 0012B4 956E 1000/4780_00000       10935  3                          IF    (@R1,EQ,'>'),EXIT   End quote, scram
 0012BC 4110 1001            00001 10954  3                          LA    R1,@R1+1
 0012C0 0600                       10955  3                          DECR  R0
 0012C2 47F0 7194            012AE 10957  2                        END
                                   10962  2
 0012C6 1200/4770 71D4             10963  2                        IF    (R0,Z),BEGIN
 0012CC 9110 BD5C/4710_00D5C       10977  3                          IF    CPFDSNNE,DOERREX    Error suppression request?
 0012D4 4110 7AD0/4100_      01BEA 10995  3                          TSEG  'Missing ">" in '
 0012E6 1814/1802/47F0_            11013  3                          ABORT (R4),(R2)
 0012EE                            11028  2                        END
                                   11032  2
 0012EE 18FD/41D0 D07C             11033  2                        XPUSH ,,L'CPOSCAN,PTR=R15
 0012F4 D27B F000 BCA8 00000 00CA8 11036  2                        MVC   @R15(L'CPOSCAN),CPOSCAN  OSCSAVE
                                   11037  2
 0012FA 9001 D000/41D0_      00000 11038  2                        XPUSH R0,R1
                                   11041  2
 001302 1801                       11042  2                        LR    R0,R1
 001304 1B04                       11043  2                        SR    R0,R4
 001306 0600                       11044  2                        DECR  R0                  Length of text inside brackets
 001308 4110 4001/58E0_      00001 11046  2                        OSCINIT @R4+1,(R0)
                                   11065  2
 001312 4BD0 7A0C/9801_      01B26 11066  2                        XPOP  R0,R1
 00131A 4140 1001            00001 11069  2                        LA    R4,@R1+1            Dsname ptr past [dev]
 00131E 1820                       11070  2                        LR    R2,R0               Dsname length
 001320 0620                       11071  2                        DECR  R2
                                   11073  2
 001322 4110 7822/58E0_      0193C 11074  2                        OSCAN DEVPRT
 00132C 9110 BD5C/4710_00D5C       11087  2                        IF    CPFDSNNE,DOERREX    Error suppression request?
 001334 4110 7ADF/4100_      01BF9 11105  2                        ABORT 'Missing device-type name.'
                                   11112  2
 001340 4BD0 7A12            01B2C 11113  2           DEVCONT      XPOP  ,,L'CPOSCAN
 001344 D27B BCA8 D000 00CA8 00000 11115  2                        MVC   CPOSCAN,@R13         OSCRSTR **SCAN**
 00134A                            11116  1                      END
                                   11120  1                      ¿þþþþþþþþþþþþþþþþþþþþþþþþþþþþþþþþþþþþþÜ
                                   11121  1                      Ÿ  Check for volume:dsname notation.  Ÿ
                                   11122  1                      ¾þþþþþþþþþþþþþþþþþþþþþþþþþþþþþþþþþþþþþ»
 00134A 1814                       11123  1                      LR    R1,R4
 00134C 1802                       11124  1                      LR    R0,R2
                                   11125  1
 00134E 1200/47D0 72EE             11126  1                      WHILE (R0,POS),BEGIN      Scan for a :...
 001354 957B 1000/4780_00000       11142  2                        IF    ((@R1,EQ,'#'),OR,(@R1,EQ,'(')),EXIT  Scram if member
1DOPT     (DOPT2025) (12:42) (15MAR04) ZSNSCAN/ZODSNM Routines                                                              Page   29
0Current Usings:  (*,R7) (CP,R11) (CV,R12)
0Loc    Object Code    Addr1 Addr2  Stmt Lv Lineno    Source Statement           (Hibal 5, Asmedit 3.3)  HLASM R4.0  2004/03/15 12.42
+___    ______ ____    _____ _____  ____ __ ______    ______ _________
0                                  11176  2
 001364 957A 1000/4770_00000       11177  2                        IF    (@R1,EQ,':'),BEGIN
 00136C 18F1                       11193  3                          LR    R15,R1
 00136E 1BF4                       11194  3                          SR    R15,R4
 001370 47D0 72B8            013D2 11195  3                          IF    POS,BEGIN
 001374 D502 7AF8 4000_01C12 00000 11206  4                            IF    (@R4,EQ,'CAT'),'CLEAR R15'  Allow "CAT:"
 001380 D502 7AFB 4000_01C15 00000 11231  4                            IF    (@R4,EQ,'TEM'),BEGIN  Allow "TEMP:"...
 00138A 9001 D000/41D0_      00000 11247  5                              XPUSH R0,R1               Exit will wipe R0,R1
 001392 58E0 79CA/0DEE       01AE4 11250  5                              VCALL EXIT2               Get scratch volser
 001398 1841                       11254  5                              LR    R4,R1               Copy volser ptr
 00139A 18F0                       11255  5                              LR    R15,R0              Copy volser length
 00139C 4BD0 7A0C/9801_      01B26 11256  5                              XPOP  R0,R1               Restore R0,R1
 0013A4                            11259  4                            END
 0013A4 59F0 79CE/47D0_      01AE8 11263  4                            CEIL  R15,L'DSNON         Not too long now
                                   11282  4
 0013B0 D227 BE90 C4D8 00E90 004D8 11283  4                            MVC   DSNON,CVBLANKS
 0013B6 06F0/12FF/4740_            11284  4                            MOVE  R15,DSNON,@R4       Set volume
 0013C2 D527 BE90 C4D8_00E90 004D8 11322  4                            IF    (DSNON,EQ,CVBLANKS),'CLEAR DSNON'
 0013D2                            11352  3                          END
                                   11356  3
 0013D2 4140 1001            00001 11357  3                          LA    R4,@R1+1            Update dsname...
 0013D6 1820                       11358  3                          LR    R2,R0               ...ptrs
 0013D8 0620                       11359  3                          DECR  R2
                                   11361  3
 0013DA 1222/4720 72E0             11362  3                          IF    (R2,NP),BEGIN       Null dsname...
 0013E0 D701 BF06 BF06 00F06 00F06 11376  4                            CLEAR DSNWANL             No dsname
 0013E6 D22B BE5C C4D8 00E5C 004D8 11383  4                            MVC   DSNWADSN,CVBLANKS   Nada
 0013EC D707 BE88 BE88 00E88 00E88 11384  4                            CLEAR DSNWAMBR            No member either
 0013F2 947F BF34      00F34       11391  4                            CLEAR DSNWAF1.DSNFSTD     Not a standard file name
 0013F6 47F0 7910            01A2A 11399  4                            B     DSCNEXIT            Scam
 0013FA                            11400  3                          END
                                   11404  3
 0013FA 47F0 72EE            01408 11405  3                          B     DMORE
 0013FE                            11406  2                        END
                                   11410  2
 0013FE 4110 1001            00001 11411  2                        LA    R1,@R1+1
 001402 0600                       11412  2                        DECR  R0
 001404 47F0 7234            0134E 11414  1                      END
 001408                            11419                       END
                                   11423
 001408 1834                       11424              DMORE    LR    R3,R4
 00140A 1A32                       11425                       AR    R3,R2               End of operand +1
                                   11426              *  If 'WYL.' specified treat as full dsname.
 00140C D503 79D2 4000 01AEC 00000 11427                       CLC   =C'WYL.',0(R4)
 001412 4780 74FC            01616 11428                       BE    MAINDSN
                                   11429              *  Check for "SYSn." and treat as full dsname.
 001416 D502 7AFE 4000_01C18 00000 11430                       IF    (@R4,EQ,'SYS'),BEGIN
 001420 954B 4004/4770_00004       11446  1                      IF    (@R4+4,NE,'.'),EXIT
 001428 95F0 4003/4740_00003       11465  1                      IF    ((@R4+3,LT,'0'),OR,(@R4+3,GT,'9')),EXIT
 001438 47F0 74FC            01616 11499  1                      B     MAINDSN             Ok, treat as full dsname
 00143C                            11500                       END
1DOPT     (DOPT2025) (12:42) (15MAR04) ZSNSCAN/ZODSNM Routines                                                              Page   30
0Current Usings:  (*,R7) (CP,R11) (CV,R12)
0Loc    Object Code    Addr1 Addr2  Stmt Lv Lineno    Source Statement           (Hibal 5, Asmedit 3.3)  HLASM R4.0  2004/03/15 12.42
+___    ______ ____    _____ _____  ____ __ ______    ______ _________
0                                  11504                       ¿þþþþþþþþþþþþþþþþþþþþþþþþþþþþþþþþþþþþþþþþþþþþþþþþþþþþþþþþþþþþÜ
                                   11505                       Ÿ  For network file names:  If file name begins with % then  Ÿ
                                   11506                       Ÿ    it is a network file.                                   Ÿ
                                   11507                       ¾þþþþþþþþþþþþþþþþþþþþþþþþþþþþþþþþþþþþþþþþþþþþþþþþþþþþþþþþþþþþ»
 00143C 956C 4000/4770_00000       11508                       IF    (@R4,EQ,'%'),BEGIN  Also a network file name...
 001444 D627 BE90 BE90_00E90 00E90 11524  1                      IF    (DSNON,Z),BEGIN     No volume...
 00144E D61F B1BD B1BD_001BD 001BD 11540  2                        IF    (CPHOST,Z),BEGIN    No default host...
 001458 4110 7A14/4100_      01B2E 11556  3                          TSEG  'Can''t access remote file, no default host set.',,CR
 00146A D207 B886 7936_00886 01A50 11574  3                          ABORT 'Type HELP SET HOST for more information.',,REMFILE
 00147C                            11582  2                        END
                                   11586  2
 00147C D227 BE90 C4D8 00E90 004D8 11587  2                        MVC   DSNON,CVBLANKS
 001482 D21F BE90 B1BD 00E90 001BD 11588  2                        MVC   DSNON(L'CPHOST),CPHOST  Set default host
                                   11589  2
 001488 956C BF08/4770_00F08       11590  2                        IF    (DSNWFILE,EQ,'%'),BEGIN  Tidy up other dsname...
 001490 D22A BF08 BF09 00F08 00F09 11607  3                          MVC   DSNWFILE(L'DSNWFILE-1),DSNWFILE+1  Remove %
 001496 9240 BF33      00F33       11608  3                          MVI   DSNWFILE+L'DSNWFILE-1,C' '
 00149A 48F0 BF04/06F0_      00F04 11609  3                          DECR  R15,DSNWLEN         Adjust file name length
 0014A4 12FF/47B0 7396_            11614  3                          IF    (R15,NEG),'CLEAR DSNWLEN'
 0014B0                            11640  2                        END
 0014B0                            11644  1                      END
                                   11648  1
 0014B0 4140 4001            00001 11649  1                      LA    R4,@R4+1            Skip over %
 0014B4 47F0 74FC            01616 11650  1                      B     MAINDSN
 0014B8                            11651                       END
                                   11655                       ¿þþþþþþþþþþþþþþþþþþþþþþþþþþþþþþþþþþþþþÜ
                                   11656                       Ÿ  If '$' specified its full dsname.  Ÿ
                                   11657                       ¾þþþþþþþþþþþþþþþþþþþþþþþþþþþþþþþþþþþþþ»
 0014B8 955B 4000      00000       11658                       CLI   0(R4),C'$'
 0014BC 4780 74F4            0160E 11659                       BE    HAVDOL
                                   11660              *  full dsn not spec - construct first part of dsn as default
 0014C0 D203 5000 79D2 00000 01AEC 11661                       MVC   0(4,R5),=C'WYL.'
 0014C6 D201 5004 B1BB 00004 001BB 11662                       MVC   DSNXG(DSNXGL-1,R5),CPGRPSV
 0014CC 924B 5006      00006       11663                       MVI   DSNXG+DSNXGL-1(R5),C'.'
 0014D0 D202 5007 B1B8 00007 001B8 11664                       MVC   DSNXU(DSNXUL-1,R5),CPUSERSV
 0014D6 924B 500A      0000A       11665                       MVI   DSNXU+DSNXUL-1(R5),C'.'
                                   11666
 0014DA D604 B7F8 B7F8_007F8 007F8 11667                       IF    (CPPACCT,NZ),BEGIN  PACCOUNT is set...
 0014E4 9180 B758/47E0_00758       11683  1                      IF    ~CPFEXEC,EXIT       Only do if in exec mode
 0014EC D201 5004 B7FB 00004 007FB 11701  1                      MVC   DSNXG(DSNXGL-1,R5),CPPGRP
 0014F2 D202 5007 B7F8 00007 007F8 11702  1                      MVC   DSNXU(DSNXUL-1,R5),CPPUSER
 0014F8                            11703                       END
 0014F8 4160 000B            0000B 11707                       LA    R6,DSNXN
                                   11708              WYLDSNL  EQU   *-2                 Length of wyl dsn std stuff (hcon)
-                                  11710              *  check operand for overrides
 0014FC 1543                       11711              DODSNOR  CLR   R4,R3               Check if operand exhausted
 0014FE 47B0 74FC            01616 11712                       BNL   MAINDSN             Br if yes
 001502 41F0 74A0            015BA 11713                       LA    R15,OVERGRP
 001506 957C 4000/4780_00000       11714                       IF    (@R4,EQ,'@'),OVERRIDE  Group override
 00150E 41F0 744C            01566 11733                       LA    R15,OVERUSER
 001512 D500 7B01 4000_01C1B 00000 11734                       IF    (@R4,EQ,'&&'),OVERRIDE  User override
 00151C 47F0 74FC            01616 11753                       B     MAINDSN
1DOPT     (DOPT2025) (12:42) (15MAR04) ZSNSCAN/ZODSNM Routines                                                              Page   31
0Current Usings:  (*,R7) (CP,R11) (CV,R12)
0Loc    Object Code    Addr1 Addr2  Stmt Lv Lineno    Source Statement           (Hibal 5, Asmedit 3.3)  HLASM R4.0  2004/03/15 12.42
+___    ______ ____    _____ _____  ____ __ ______    ______ _________
0                                  11755              **  common routine to override specified operand
                                   11756              *     R15=address of default field
                                   11757              *
 001520                            11758              OVERRIDE LABEL
                                   11760              *  find end of override
 001520 1814                       11761                       LR    R1,R4               Set to start of field
 001522 1803                       11762                       LR    R0,R3
 001524 1B01                       11763                       SR    R0,R1               Length remaining in operand
 001526 1821                       11764                       LR    R2,R1
 001528 47F0 7422            0153C 11765                       B     ORSRCHST            Go enter search loop
                                   11766
 00152C 954B 2000      00000       11767              ORSRCH   CLI   @R2,C'.'            Is it delimiter?
 001530 4780 742A            01544 11768                       BE    ORDELIM             Br if yes
 001534 957B 2000      00000       11769                       CLI   @R2,C'#'            Is it member specification
 001538 4780 742A            01544 11770                       BE    ORDELIM             Br if yes
 00153C 4120 2001            00001 11771              ORSRCHST LA    R2,@R2+1
 001540 4600 7412            0152C 11772                       BCT   R0,ORSRCH
                                   11773              *  found a delim for override or end of operand
 001544 1B21                       11774              ORDELIM  SR    R2,R1               Length of override
                                   11775              **  process override value
                                   11776              *     R1=addr of override operand
                                   11777              *     R2=length of override
                                   11778              *
 001546 1802                       11779              OREADY   LR    R0,R2
 001548 4142 4000            00000 11780                       LA    R4,0(R2,R4)
 00154C 0DEF                       11781                       BASR  RAR,R15             Go do override
 00154E 954B 4000      00000       11782              ORDONE   CLI   0(R4),C'.'          Normal delim?
 001552 4770 74FC            01616 11783                       BNE   MAINDSN             Br if no - no more overrides
 001556 4144 0001            00001 11784                       LA    R4,1(R4)            Past delim char
 00155A 47F0 73E2            014FC 11785                       B     DODSNOR             Go test for others
-                                  11787              *  override value is null - use logon value
 00155E 181F                       11788              PLUGORIG LR    R1,R15              Address of source
 001560 1B22                       11789                       SR    R2,R2               Indicate null override
 001562 47F0 742C            01546 11790                       B     OREADY
-001566 5900 79DA/4770_      01AF4 11792              OVERUSER IF    (R0,EQ,1),'MVC CPCUSER,CPSUSER; BR RAR'
 001576 5900 79DE/4770_      01AF8 11817                       IF    (R0,EQ,4),'MVC CPCUSER,@R1+1; BR RAR'
 001586 4110 1001            00001 11841                       LA    R1,@R1+1
 00158A 0600                       11842                       DECR  R0
 00158C 9110 BD5C/47E0_00D5C       11844                       IF    CPFDSNNE,BEGIN      Error suppression requested?
 001594 D207 B886 7966 00886 01A80 11859  1                      MVC   CPERRID,=CL8'INVUSER'
 00159A 47F0 78B6            019D0 11860  1                      B     DOERREX
 00159E                            11861                       END
 00159E 41F0 B050/58E0_      00050 11865                       TSEG  (R1),(R0)
 0015A8 D207 B886 7966_00886 01A80 11889                       ERROR ': invalid user.',,INVUSER
-0015BA 5900 79DA/4770_      01AF4 11898              OVERGRP  IF    (R0,EQ,1),'MVC CPCGRP,CPSGRP; BR RAR'
 0015CA 5900 79E2/4770_      01AFC 11923                       IF    (R0,EQ,3),'MVC CPCGRP,@R1+1; BR RAR'
 0015DA 4110 1001            00001 11947                       LA    R1,@R1+1
 0015DE 0600                       11948                       DECR  R0
1DOPT     (DOPT2025) (12:42) (15MAR04) ZSNSCAN/ZODSNM Routines                                                              Page   32
0Current Usings:  (*,R7) (CP,R11) (CV,R12)
0Loc    Object Code    Addr1 Addr2  Stmt Lv Lineno    Source Statement           (Hibal 5, Asmedit 3.3)  HLASM R4.0  2004/03/15 12.42
+___    ______ ____    _____ _____  ____ __ ______    ______ _________
00015E0 9110 BD5C/47E0_00D5C       11950                       IF    CPFDSNNE,BEGIN      Error suppression requested?
 0015E8 D207 B886 796E 00886 01A88 11965  1                      MVC   CPERRID,=CL8'INVGRP'
 0015EE 47F0 78B6            019D0 11966  1                      B     DOERREX
 0015F2                            11967                       END
 0015F2 41F0 B050/58E0_      00050 11971                       TSEG  (R1),(R0)
 0015FC D207 B886 796E_00886 01A88 11995                       ERROR ': invalid group.',,INVGRP
1DOPT     (DOPT2025) (12:42) (15MAR04) ZSNSCAN/ZODSNM Routines                                                              Page   33
0Current Usings:  (*,R7) (CP,R11) (CV,R12)
0Loc    Object Code    Addr1 Addr2  Stmt Lv Lineno    Source Statement           (Hibal 5, Asmedit 3.3)  HLASM R4.0  2004/03/15 12.42
+___    ______ ____    _____ _____  ____ __ ______    ______ _________
0                                  12004              **  full dsn specified with '$'
 00160E 4144 0001            00001 12005              HAVDOL   LA    R4,1(R4)            Bump past $
 001612 925B BF06      00F06       12006                       MVI   DSNWANL,C'$'        Flag $ dsname for later
-                                  12008              **  process dsn after overrides or entire dsname
 001616 1A56                       12009              MAINDSN  AR    R5,R6               Update dsn pointer
 001618 1823                       12010                       LR    R2,R3               End of operand
 00161A 1B24                       12011                       SR    R2,R4               Length remaining
 00161C 47D0 76BE            017D8 12012                       BNP   ENDSNOP             Br if nothing left
                                   12013              *  check whether use of prefix was specified
 001620 955C 4000      00000       12014                       CLI   0(R4),C'*'          Prefix char?
 001624 4770 767A            01794 12015                       BNE   NOPFX
                                   12016                       ¿þþþþþþþþþþþþþþþþþþþþþþþþþþþþþþþþþþþþþþþþþþþþþþþþþþþþþþþþþþþþÜ
                                   12017                       Ÿ  Don't allow "*XYZ" as a dsname; it's "*" or nothing.      Ÿ
                                   12018                       Ÿ  (But all the code to handle "*xxx" still remains below).  Ÿ
                                   12019                       ¾þþþþþþþþþþþþþþþþþþþþþþþþþþþþþþþþþþþþþþþþþþþþþþþþþþþþþþþþþþþþ»
 001628 5920 79DA/4780_      01AF4 12020                       IF    (R2,NE,1),BEGIN     Only allow "*" as dsname...
 001630 957B 4001/4780_00001       12037  1                      IF    ((@R4+1,EQ,'#'),OR,(@R4+1,EQ,'(')),EXIT  "*#member"
 001640 9110 BD5C/47E0_00D5C       12071  1                      IF    CPFDSNNE,BEGIN      Error suppression...
 001648 D207 B886 7986 00886 01AA0 12086  2                        MVC   CPERRID,=CL8'STARBAD'
 00164E 47F0 78B6            019D0 12087  2                        B     DOERREX
 001652                            12088  1                      END
 001652 1814/1802/41F0_            12092  1                      TSEG  (R4),(R2)
 001660 D207 B886 7986_00886 01AA0 12118  1                      ERROR ': invalid characters in dsname.',,STARBAD
 001672                            12126                       END
                                   12130              **  prefix to be used
 001672 9610 BF34      00F34       12131                       SET   DSNWAF1.DSNFQDSN    Avoid OS dsname check
 001676 D503 791E B628_01A38 00628 12138                       IF    (CPAFNAMEL,EQ,0),BEGIN
 001680 9110 BD5C/47E0_00D5C       12156  1                      IF    CPFDSNNE,BEGIN      Error suppression requested?
 001688 D207 B886 798E 00886 01AA8 12171  2                        MVC   CPERRID,=CL8'NOSTAR'
 00168E 47F0 78B6            019D0 12172  2                        B     DOERREX
 001692                            12173  1                      END
 001692 D207 B886 798E_00886 01AA8 12177  1                      ERROR 'The current dsname is not set.',,NOSTAR
 0016A4                            12185                       END
 0016A4 D627 BE90 BE90_00E90 00E90 12189                       IF    (DSNON,Z),BEGIN     DO HOST
 0016AE 5820 B6AC            006AC 12205  1                      L     R2,CPAHOSTL
 0016B2 1222/47D0 75BC             12206  1                      IF    (R2,POS),BEGIN
 0016B8 5920 79CE/47D0_      01AE8 12220  2                        CEIL  R2,L'DSNON
 0016C4 D227 BE90 C4D8 00E90 004D8 12239  2                        MVC   DSNON,CVBLANKS
 0016CA 0620/1222/4740_            12240  2                        MOVE  R2,DSNON,CPAHOST
 0016D6                            12278  1                      END
 0016D6                            12282                       END
 0016D6 90E1 D000/41D0_      00000 12286                       XPUSH R14,R1              DO MEMBER IF ANY
 0016DE 4110 B62C/5800_      0062C 12289                       SETMSG CPAFNAME,L:CPAFNAMEL
 0016E6 58E0 79E6/0DEE       01B00 12303                       VCALL RETFMEM
 0016EC 1200/47D0 75EC             12307                       IF    (R0,POS),BEGIN
 0016F2 D207 BE88 C4D8 00E88 004D8 12321  1                      MVC   DSNWAMBR,CVBLANKS
 0016F8 1820                       12322  1                      LR    R2,R0
 0016FA 0620/1222/4740_            12323  1                      MOVE  R2,DSNWAMBR,@R1
 001706                            12361                       END
 001706 4110 B62C/5800_      0062C 12365                       SETMSG CPAFNAME,L:CPAFNAMEL
 00170E 58E0 79EA/0DEE       01B04 12379                       VCALL RETFNAME
 001714 1820                       12383                       LR    R2,R0               R2 prefix length
1DOPT     (DOPT2025) (12:42) (15MAR04) ZSNSCAN/ZODSNM Routines                                                              Page   34
0Current Usings:  (*,R7) (CP,R11) (CV,R12)
0Loc    Object Code    Addr1 Addr2  Stmt Lv Lineno    Source Statement           (Hibal 5, Asmedit 3.3)  HLASM R4.0  2004/03/15 12.42
+___    ______ ____    _____ _____  ____ __ ______    ______ _________
0001716 4BD0 7A60/98E1_      01B7A 12384                       XPOP  R14,R1
 00171E 4144 0001            00001 12387              DOPFX    LA    R4,1(R4)            Past *
                                   12388              **  insert prefix
 001722 41F0 B62C            0062C 12389                       LA    R15,CPAFNAME
 001726 D503 79D2 F000_01AEC 00000 12390                       IF    (@R15,EQ,'WYL.'),BEGIN  Wylbur dsn...
 001730 5920 79EE/47C0_      01B08 12406  1                      IF    (R2,LE,11),EXIT  Nope
 001738 954B F003/4770_00003       12426  1                      IF    ((@R15+3,NE,'.'),OR,(@R15+6,NE,'.')),EXIT
 001748 954B F00A/4770_0000A       12460  1                      IF    (@R15+10,NE,'.'),EXIT
 001750 9680 BF34      00F34       12479  1                      SET   DSNWAF1.DSNFSTD     Standard dsn
 001754 47F0 764C            01766 12486  1                      B     PFXCOMA
 001758                            12487                       END
                                   12491
 001758 955B F000      00000       12492                       CLI   @R15,C'$'           Is prefix entire dsn spec
                                   12493              *        BNE   INSPFX              Br if no
 00175C 4770 764C            01766 12494                       BNE   PFXCOMA             Br if no   CH - 05/91
 001760 41F0 F001            00001 12495                       LA    R15,@R15+1          Past $
 001764 0620                       12496                       DECR  R2                  Decr len
 001766 1B56                       12498              PFXCOMA  SR    R5,R6               Start over again
 001768 1266                       12499                       LTR   R6,R6               Test if nothing generated yet
 00176A 4780 7666            01780 12500                       BZ    INSPFX              Bypass re-clear
 00176E 4100 0040            00040 12501                       LA    R0,X'40'            Set up blank
 001772 4206 5000            00000 12502              PFXLOOP  STC   R0,0(R6,R5)         Blank orig dsname
 001776 4660 7658            01772 12503                       BCT   R6,PFXLOOP          doesn't clear first char - tough
 00177A 1222/47D0 767A             12504                       IF    (R2,NP),NOPFX       Br if $ was alone in pfx
 001780 1A62                       12521              INSPFX   AR    R6,R2               Compute total dsn length
 001782 4960 7A62            01B7C 12522                       CH    R6,=H'44'           Is there room for pfx
 001786 4720 777E            01898 12523                       BH    DSNLONG             No
 00178A 0620/4420 7882             12524                       DEX   R2,PFXMVC           Add prefix to dsn
 001790 4152 5001            00001 12529                       LA    R5,1(R2,R5)         Update dsn pointer
-                                  12531              ** continue processing operand
 001794 1543                       12532              NOPFX    CLR   R4,R3               Is scan at end of operand
 001796 47B0 76BE            017D8 12533                       BNL   ENDSNOP             Br if yes
 00179A 954D 4000      00000       12534                       CLI   0(R4),C'('          Test paren specified alone
 00179E 4780 76BE            017D8 12535                       BE    ENDSNOP             Br if yes
                                   12536              *  scan for member spec (#) - scanner takes care of parens
 0017A2 1803                       12537                       LR    R0,R3
 0017A4 1B04                       12538                       SR    R0,R4               Length remaining
 0017A6 1824                       12539                       LR    R2,R4               Current pointer
 0017A8 957B 2000      00000       12540              MEMSRCH  CLI   @R2,C'#'
 0017AC 4780 769E            017B8 12541                       BE    HVDSNSTR            Found end of string
 0017B0 4120 2001            00001 12542                       LA    R2,@R2+1
 0017B4 4600 768E            017A8 12543                       BCT   R0,MEMSRCH
                                   12544              **  have end of dsname string
 0017B8 1B24                       12545              HVDSNSTR SR    R2,R4               Length of string
 0017BA 4780 76BE            017D8 12546                       BZ    ENDSNOP             Br if null string
 0017BE 1A62                       12547              HVDSTR2  AR    R6,R2               Compute total length
 0017C0 4960 7A62            01B7C 12548                       CH    R6,=H'44'           Is it too long?
 0017C4 4720 777E            01898 12549                       BH    DSNLONG             Br if yes
 0017C8 18F4                       12550                       LR    R15,R4              For ex mvc
 0017CA 0620/4420 7882             12551                       DEX   R2,PFXMVC           Move string
 0017D0 4120 2001            00001 12556                       LA    R2,@R2+1            Restore length
 0017D4 1A42                       12557                       AR    R4,R2               Update scan pointer
1DOPT     (DOPT2025) (12:42) (15MAR04) ZSNSCAN/ZODSNM Routines                                                              Page   35
0Current Usings:  (*,R7) (CP,R11) (CV,R12)
0Loc    Object Code    Addr1 Addr2  Stmt Lv Lineno    Source Statement           (Hibal 5, Asmedit 3.3)  HLASM R4.0  2004/03/15 12.42
+___    ______ ____    _____ _____  ____ __ ______    ______ _________
00017D6 1A52                       12558                       AR    R5,R2               Update dsn pointer
-                                  12560              ***  end of dsn operand except member spec
 0017D8 18F5                       12561              ENDSNOP  LR    R15,R5              Current point
 0017DA 1B56                       12562                       SR    R5,R6               Start of name
-                                  12564              **  now process member name present
 0017DC 1543                       12565                       CLR   R4,R3               Is operand at the end?
 0017DE 47B0 76D4            017EE 12566                       BNL   PARENSCN            Br if yes
 0017E2 957B 4000      00000       12567                       CLI   0(R4),C'#'          Is it #?
 0017E6 4780 7714            0182E 12568                       BE    HAVEMEM
                                   12569              *  only other possibility is '('
 0017EA 47F0 7712            0182C 12570                       B     PARENMEM
-                                  12572              **  end of scanned stuff - check member in parens or # after ''
 0017EE 9801 BC9C            00C9C 12573              PARENSCN LM    R0,R1,CPSAVE        Get pointers to dsname
 0017F2 1A10                       12574                       AR    R1,R0               Point to character after
 0017F4 957B 1000      00000       12575                       CLI   @R1,C'#'            Member after quoted dsn?
 0017F8 4780 76EA            01804 12576                       BE    MBRSCN              Br if yes
 0017FC 954D 1000      00000       12577                       CLI   @R1,C'('
 001800 4770 7894            019AE 12578                       BNE   DSNDONE             No member specified
 001804 58E0 79A2/0DEE       01ABC 12579              MBRSCN   OSCTELL ,                 Find out if any left to scan
 00180A 1200                       12584                       LTR   R0,R0               Was there anything left?
 00180C 47D0 7894            019AE 12585                       BNP   DSNDONE             Br if finished
 001810 5810 79F2/58E0_      01B0C 12586                       OSCAN L:=A(DSPRTB)        Go scan for member name
 00181A 47F0 7894            019AE 12597                       B     DSNDONE             Done if nothing there
-                                  12599              **  have member in parens or # following quoted dsname
 00181E 1841                       12600              BGOOD    LR    R4,R1               Loc of lparen
 001820 1831                       12601                       LR    R3,R1
 001822 1A30                       12602                       AR    R3,R0               Loc of rparen+1
 001824 957B 4000      00000       12603                       CLI   0(R4),C'#'
 001828 4780 7714            0182E 12604                       BE    HAVEMEM
 00182C 0630                       12605              PARENMEM DECR  R3                  Loc of rparen
                                   12607              *  process member name in parens or by #
 00182E 4144 0001            00001 12608              HAVEMEM  LA    R4,1(R4)            Past # or (
 001832 1823                       12609                       LR    R2,R3
 001834 1B24                       12610                       SR    R2,R4               Length of member name
 001836 4780 788E            019A8 12611                       BZ    NULLMBR             Br if null override
000183A D501 7A64 4000_01B7E 00000 12613                       IF    ((@R4,EQ,'0)'),OR,(@R4,EQ,'-'),OR,(@R4,EQ,'+')),BEGIN
 001854 18F5                       12657  1                      LR    R15,R5              R15 -> Start of dsn
 001856 1AF6                       12658  1                      AR    R15,R6              R15 -> End of dsn + 1
 001858 0640                       12659  1                      BCTR  R4,0                Fall back to start of gen#
 00185A 4122 0002            00002 12660  1                      LA    R2,2(R2)            Compute the gen# length
 00185E 1A62                       12661  1                      AR    R6,R2               Add into total dsn length
 001860 0620/4420 7B78_            12662  1                      DEX   R2,'MVC @R15(0),@R4' Move in generation number
 001866 9604 BD58      00D58       12681  1                      SET   CPFGEN              Flag as generation data set
 00186A 47F0 7894            019AE 12687  1                      B     DSNDONE             Finish up
 00186E                            12688                       END
1DOPT     (DOPT2025) (12:42) (15MAR04) ZSNSCAN/ZODSNM Routines                                                              Page   36
0Current Usings:  (*,R7) (CP,R11) (CV,R12)
0Loc    Object Code    Addr1 Addr2  Stmt Lv Lineno    Source Statement           (Hibal 5, Asmedit 3.3)  HLASM R4.0  2004/03/15 12.42
+___    ______ ____    _____ _____  ____ __ ______    ______ _________
000186E 4920 7A66            01B80 12693                       CH    R2,=H'8'            Check length
 001872 47D0 77A4            018BE 12694                       BNH   REPLMEM             Br if ok
                                   12695              *  member name is too long
 001876 9110 BD5C/4710_00D5C       12696              MBRLONG  IF    CPFDSNNE,DOERREX    Error suppression request?
 00187E 1814/1802/41F0_            12715                       TSEG  (R4),(R2)
 00188C 4110 7B30/4100_      01C4A 12741                       ERROR ': member name too long.'
                                   12748              *  dsname is too long
 001898 1806                       12749              DSNLONG  LR    R0,R6
 00189A 1B62                       12750                       SR    R6,R2               Back up to prev length
 00189C 1B56                       12751                       SR    R5,R6               Find start of dsname
 00189E 9110 BD5C/4710_00D5C       12752                       IF    CPFDSNNE,DOERREX    Error suppression request?
 0018A6 1815/41F0 B050_            12770                       TSEG  (R5),(R0)
 0018B2 4110 7A68/4100_      01B82 12795                       ERROR ': dsname too long.'
-                                  12803              **  insert specified member name
 0018BE D207 BE88 C4D8 00E88 004D8 12804              REPLMEM  MVC   DSNWAMBR,CVBLANKS
 0018C4 0620/4420 7888             12805                       DEX   R2,MEMMVC           Move member name
 0018CA D507 7996 BE88_01AB0 00E88 12810                       IF    (DSNWAMBR,EQ,=CL8'*'),BEGIN
 0018D4 90E2 D000/41D0_      00000 12827  1                      XPUSH R14,R2
 0018DC 4110 B62C/5800_      0062C 12830  1                      SETMSG CPAFNAME,L:CPAFNAMEL
 0018E4 58E0 79E6/0DEE       01B00 12844  1                      VCALL RETFMEM
 0018EA 1820                       12848  1                      LR    R2,R0
 0018EC D207 BE88 C4D8 00E88 004D8 12849  1                      MVC   DSNWAMBR,CVBLANKS
 0018F2 0620/1222/4740_            12850  1                      MOVE  R2,DSNWAMBR,@R1
 0018FE 4BD0 7A7A/98E2_      01B94 12888  1                      XPOP  R14,R2
 001906 9540 BE88/4770_00E88       12891  1                      IF    (DSNWAMBR,NE,' '),EXIT
 00190E 9110 BD5C/47E0_00D5C       12911  1                      IF    CPFDSNNE,BEGIN      Error suppression requested?
 001916 D207 B886 798E 00886 01AA8 12926  2                        MVC   CPERRID,=CL8'NOSTAR'
 00191C 47F0 78B6            019D0 12927  2                        B     DOERREX
 001920                            12928  1                      END
 001920 D207 B886 798E_00886 01AA8 12932  1                      ERROR 'The current member is not set.',,NOSTAR
 001932                            12940                       END
 001932 D607 BE88 C4D8 00E88 004D8 12944                       OC    DSNWAMBR,CVBLANKS   Convert to upper case
 001938 47F0 7894            019AE 12945                       B     DSNDONE
1DOPT     (DOPT2025) (12:42) (15MAR04) ZSNSCAN/ZODSNM Routines                                                              Page   37
0Current Usings:  (*,R7) (CP,R11) (CV,R12)
0Loc    Object Code    Addr1 Addr2  Stmt Lv Lineno    Source Statement           (Hibal 5, Asmedit 3.3)  HLASM R4.0  2004/03/15 12.42
+___    ______ ____    _____ _____  ____ __ ______    ______ _________
000193C 03001966C4C9E2D2           12947              DEVPRT   OSCKW DISK,DEVDISK
 001944 0400196ED4C9C3D9           12949                       OSCKW MICRO,DEVMICRO
 00194D 0500196EE2C1D4E2           12951                       OSCKW SAMSON,DEVMICRO     (Compat--Remove me after 8/85)
 001957 0E001976D5C5E3E6           12953                       OSCKW NETWORK,DEVNET,A
 001962 FF00197E                   12955                       OSCKW ,INVDEV
                                   12957
 001966 9201 BF3B      00F3B       12958              DEVDISK  MVI   DSNDTYPE,DSNDDISK
 00196A 47F0 7226            01340 12959                       B     DEVCONT
                                   12960
 00196E 9202 BF3B      00F3B       12961              DEVMICRO MVI   DSNDTYPE,DSNDSAM
 001972 47F0 7226            01340 12962                       B     DEVCONT
                                   12963
 001976 9203 BF3B      00F3B       12964              DEVNET   MVI   DSNDTYPE,DSNDNET
 00197A 47F0 7226            01340 12965                       B     DEVCONT
                                   12966
 00197E 9110 BD5C/4710_00D5C       12967              INVDEV   IF    CPFDSNNE,DOERREX    Error suppression request?
 001986 41F0 B050/58E0_      00050 12986                       TSEG  (R1),(R0)
 001990 4110 7A9A/4100_      01BB4 13010                       ABORT ' is an unkown device type.'
1DOPT     (DOPT2025) (12:42) (15MAR04) ZSNSCAN/ZODSNM Routines                                                              Page   38
0Current Usings:  (*,R7) (CP,R11) (CV,R12)
0Loc    Object Code    Addr1 Addr2  Stmt Lv Lineno    Source Statement           (Hibal 5, Asmedit 3.3)  HLASM R4.0  2004/03/15 12.42
+___    ______ ____    _____ _____  ____ __ ______    ______ _________
000199C D200 5000 F000 00000 00000 13018              PFXMVC   MVC   0(0,R5),@R15
 0019A2 D200 BE88 4000 00E88 00000 13019              MEMMVC   MVC   DSNWAMBR(0),@R4
-                                  13021              ***  done with dsname
 0019A8 D707 BE88 BE88 00E88 00E88 13022              NULLMBR  CLEAR DSNWAMBR            Flag explicit null member
 0019AE 9120 BD51      00D51       13030              DSNDONE  TM    CPLFLG2,CPFDSNMS    Test null ok
 0019B2 4710 78BE            019D8 13031                       BO    DOLGO               Br if so
 0019B6 1266                       13032              DSNDONE2 LTR   R6,R6
 0019B8 4720 78BE            019D8 13033                       BP    DOLGO
 0019BC 9110 BD5C/4710_00D5C       13034                       IF    CPFDSNNE,DOERREX    Error suppression request?
 0019C4 4110 7B47/4100_      01C61 13052                       ERROR 'Dsname is null.'
 0019D0 9608 BD5C      00D5C       13059              DOERREX  SET   CPFDSNBD            Set error
 0019D4 47F0 7910            01A2A 13066                       B     DSCNEXIT
 0019D8 4060 BF06            00F06 13067              DOLGO    STH   R6,DSNWANL          Save length for dsnstddo
 0019DC 4DE0 7DAE            01EC8 13068                       LCALL ZSNSTDDO            Go set dsname flags
                                   13070              **  if std wyl dsname check null after userid
 0019E0 9180 BF34      00F34       13071                       TM    DSNWAF1,DSNFSTD     Is it std wyl dsn?
 0019E4 4780 790A            01A24 13072                       BZ    DOLGO2              Br if no
 0019E8 4960 73E0            014FA 13073                       CH    R6,WYLDSNL          Is wyl name just std length?
 0019EC 4770 790A            01A24 13074                       BNE   DOLGO2              Br if no
                                   13075              **  default dsname = 'lib'
 0019F0 D502 7B56 BD24_01C70 00D24 13076                       IF    (CPCMNM,EQ,'PFX'),PFXLIB  IT'S ok, mom
 0019FA 9120 BD51      00D51       13096                       TM    CPLFLG2,CPFDSNMS    Is default permitted?
 0019FE 4710 790A            01A24 13097                       BO    DOLGO2              Br if no
 001A02 D207 BE67 B8AB 00E67 008AB 13098              PFXLIB   MVC   DSNWADSN+DSNXN(L'CPLIB),CPLIB  move in def lib
 001A08 9620 BF34      00F34       13099                       OI    DSNWAF1,DSNFWLIB    Flag wylbur library
 001A0C 41F0 BE67            00E67 13100                       LA    R15,DSNWADSN+DSNXN
 001A10 9540 F000      00000       13101              BLKLOOP  CLI   @R15,C' '           At end of dsn
 001A14 4780 790A            01A24 13102                       BE    DOLGO2              Yes, have correct length
 001A18 4160 6001            00001 13103                       LA    R6,1(,R6)           No, increment length
 001A1C 41F0 F001            00001 13104                       LA    R15,@R15+1          Pt to next slot
 001A20 47F0 78F6            01A10 13105                       B     BLKLOOP             And look for end
 001A24 1806                       13106              DOLGO2   LR    R0,R6
 001A26 4000 BF06            00F06 13107                       STH   R0,DSNWANL          Save dsname length
 001A2A 18D8/58E0 D000_            13108              DSCNEXIT XEXIT
 DROP   *,R7                       13113                       DROP  BR
                                   13120
                                   13121                       QLTORG
1DOPT     (DOPT2025) (12:42) (15MAR04) Dsname Finish Routine -- Do Overrides                                                Page   39
0Current Usings:  (CP,R11) (CV,R12)
0Loc    Object Code    Addr1 Addr2  Stmt Lv Lineno    Source Statement           (Hibal 5, Asmedit 3.3)  HLASM R4.0  2004/03/15 12.42
+___    ______ ____    _____ _____  ____ __ ______    ______ _________
0                                  13195              * this routine processes any group or user overrides found.
                                   13196              * it must be called after scanning has been completed.
                                   13197              *
 001C9E 50E0 D000/9008_      00000 13198              ZSNFIN   XPROC
 USING  *,R7
                                   13238                       ¿þþþþþþþþþþþþþþþþþþþþþþÜ
                                   13239                       Ÿ  Validity checking.  Ÿ
                                   13240                       ¾þþþþþþþþþþþþþþþþþþþþþþ»
 001CB8 9160 BF3A/4780_00F3A       13241                       IF    DSNFASCII+DSNFEBCDIC,BEGIN  ASCII/EBCDIC explicit...
 001CC0 9180 BF39/4710_00F39       13259  1                      IF    DSNFTRAN,EXIT       It's OK, scram
 001CC8 4110 7940/4100_      025F8 13277  1                      TSEG  'TRANSPARENT must be specified '
 001CDA 4110 7998/4100_      02650 13295  1                      ERROR 'if ASCII/EBCDIC is specified.'
 001CE6                            13302                       END
                                   13306
 001CE6 9500 BF3B/4770_00F3B       13307                       IF    (DSNDTYPE,Z),BEGIN  Default device type...
                                   13323  1                      ¿þþþþþþþþþþþþþþþþþþþþþþþþþþþþþþþþþþþþþþþþþþþþþþÜ
                                   13324  1                      Ÿ  Check the device type based on the volume.  Ÿ
                                   13325  1                      ¾þþþþþþþþþþþþþþþþþþþþþþþþþþþþþþþþþþþþþþþþþþþþþþ»
 001CEE 9201 BF3B      00F3B       13326  1                      MVI   DSNDTYPE,DSNDDISK   Assume disk
                                   13327  1
 001CF2 D627 BE90 BE90_00E90 00E90 13328  1                      IF    (DSNON,NZ),BEGIN    Have a volume...
                                   13344  2                        ¿þþþþþþþþþþþþþþþþþþþþþþþþþþþþþþþþþþþþþÜ
                                   13345  2                        Ÿ  Check for Samson looking devices.  Ÿ
                                   13346  2                        ¾þþþþþþþþþþþþþþþþþþþþþþþþþþþþþþþþþþþþþ»
 001CFC 9140 B3EA/47E0_003EA       13347  2                        IF    CPSFSAM,BEGIN       Samson terminal...
 001D04 95C1 BE90/4750_00E90       13362  3                          IF    ((DSNON,GE,'A'),AND,(DSNON,LE,'Z')),BEGIN
 001D14 9540 BE91/4770_00E91       13395  4                            IF    (DSNON+1,NE,' '),EXIT  Looking for one char device
 001D1C 9202 BF3B      00F3B       13415  4                            MVI   DSNDTYPE,DSNDSAM    It's a samson device
 001D20 47F0 7096            01D4E 13416  4                            B     DFINEXT
 001D24                            13417  3                          END
                                   13421  3
 001D24 D504 79B5 BE90_0266D 00E90 13422  3                          IF    ((DSNON,EQ,'CLIP '),OR,(DSNON,EQ,'CLIPBOARD ')),BEGIN
 001D38 9202 BF3B      00F3B       13455  4                            MVI   DSNDTYPE,DSNDSAM    It's a samson device
 001D3C 47F0 7096            01D4E 13456  4                            B     DFINEXT
 001D40                            13457  3                          END
 001D40                            13461  2                        END
                                   13465  2                        ¿þþþþþþþþþþþþþþþþþþþþþþþþþþþþþþþþþþþþþþþþþþþþþþþÜ
                                   13466  2                        Ÿ  Check for volume name which is a host name.  Ÿ
                                   13467  2                        ¾þþþþþþþþþþþþþþþþþþþþþþþþþþþþþþþþþþþþþþþþþþþþþþþ»
 001D40 58E0 78FC/0DEE       025B4 13468  2                        ACALL HOSTCHK             Check DSNON for host name
 001D46 4770 7096/9203_      01D4E 13472  2                        IF    Z,'MVI DSNDTYPE,DSNDNET'  It's a network file
                                   13489  2                        ¿þþþþþþþþþþþþþþþþþþþþþþþþþþþþþþþþþþþþþþþþÜ
                                   13490  2                        Ÿ  Check for user defined device names.  Ÿ
                                   13491  2                        ¾þþþþþþþþþþþþþþþþþþþþþþþþþþþþþþþþþþþþþþþþ»
 001D4E 4110 BE90/4100_      00E90 13492  2           DFINEXT      SETMSG DSNON
                                   13506  2                        ¿þþþþþþþþþþþþþþþþþþþþþþþþþþþþþþþþþþþþþþþþþþþþþþþþþþÜ
                                   13507  2                        Ÿ  This is for an explicit device type set by the  Ÿ
                                   13508  2                        Ÿ    SET DEVICE command (it's not really used).    Ÿ
                                   13509  2                        ¾þþþþþþþþþþþþþþþþþþþþþþþþþþþþþþþþþþþþþþþþþþþþþþþþþþ»
 001D56 58E0 7900/0DEE       025B8 13510  2                        VCALL FINDDEV             Is it an external device?
 001D5C 4770 70C0            01D78 13514  2                        IF    Z,BEGIN             Yes...
 USING  DEV,R1                     13525  3                          WITH  (DEV,R1)
 001D60 9501 1001/4770_00001       13538  3                          IF    DEVTSAM,'MVI DSNDTYPE,DSNDSAM'
 001D6C 9502 1001/4770_00001       13559  3                          IF    DEVTNET,'MVI DSNDTYPE,DSNDNET'
1DOPT     (DOPT2025) (12:42) (15MAR04) Dsname Finish Routine -- Do Overrides                                                Page   40
0Current Usings:  (*,R7) (CP,R11) (CV,R12)
0Loc    Object Code    Addr1 Addr2  Stmt Lv Lineno    Source Statement           (Hibal 5, Asmedit 3.3)  HLASM R4.0  2004/03/15 12.42
+___    ______ ____    _____ _____  ____ __ ______    ______ _________
0DROP   DEV,R1                     13580  2                        END
 001D78                            13589  1                      END
 001D78                            13593                       END
                                   13597                       ¿þþþþþþþþþþþþþþþþþþþþþþþþþþþþþþþþþþþþþþþþþþþþþÜ
                                   13598                       Ÿ  Process a disk device the same as before.  Ÿ
                                   13599                       ¾þþþþþþþþþþþþþþþþþþþþþþþþþþþþþþþþþþþþþþþþþþþþþ»
 001D78 9501 BF3B/4770_00F3B       13600                       IF    (DSNDTYPE,EQ,DSNDDISK),BEGIN  Disk...
 001D80 D627 BE90 BE90_00E90 00E90 13618  1                      IF    (DSNON,NZ),BEGIN    Check volume name...
 001D8A D521 BE96 C4D8 00E96 004D8 13634  2                        CLC   DSNON+6(L'DSNON-6),CVBLANKS  Extra chars in vol name?
 001D90 4780 70FA            01DB2 13635  2                        IF    EQ,EXIT             Yes, scram
 001D94 4110 BE90/4100_      00E90 13649  2                        TSEG  DSNON,,T
 001DA6 4110 78B0/4100_      02568 13677  2                        ERROR ': volume/host not found.'
 001DB2                            13684  1                      END
 001DB2                            13688                       END
                                   13692
 001DB2 9180 BF34/47E0_00F34       13693                       IF    DSNWAF1.DSNFSTD,BEGIN  Process user/group override...
 001DBA D601 BC4B BC4B_00C4B 00C4B 13709  1                      IF    (CPCGRP,NZ),'MVC DSNWADSN+DSNXG(DSNXGL-1),CPCGRP'
 001DCA D602 BC48 BC48_00C48 00C48 13731  1                      IF    (CPCUSER,NZ),'MVC DSNWADSN+DSNXU(DSNXUL-1),CPCUSER'
 001DDA                            13753                       END
                                   13757
 001DDA 4DE0 727C            01F34 13758                       LCALL ZSNUDSDO            Go set user data set flags
                                   13760
 001DDE 9501 BF3B/4770_00F3B       13761                       IF    (DSNDTYPE,EQ,DSNDDISK),BEGIN  Check dsname...
 001DE6 D508 79BA BE5C_02672 00E5C 13779  1                      IF    (DSNWADSN,EQ,'NULLFILE '),XIBADNM  Never, never
                                   13799  1
 001DF0 9120 BF37/47E0_00F37       13800  1                      IF    (DSNFBADN,AND,~DSNWAF1.DSNFQDSN),BEGIN  Bad name...
 001E00 9104 BD58/4710_00D58       13830  2                        IF    CPFGEN,EXIT         Allow funny chars if GDG dsname
 001E08 4DE0 7362            0201A 13848  2                        LCALL DSNCHK              Is dsn ok?
 001E0C 4780 71A4            01E5C 13850  2                        IF    Z,EXIT              (Shouldn't happen)
 001E10 182F                       13864  2                        LR    R2,R15
 001E12 9110 BD5C/47E0_00D5C       13865  2           XIBADNM      IF    CPFDSNNE,BEGIN      Error suppression request?
 001E1A D207 B886 78C8 00886 02580 13881  3                          MVC   CPERRID,=CL8'INVDSN'
 001E20 9608 BD5C      00D5C       13882  3                          SET   CPFDSNBD            Set error
 001E24 47F0 7202            01EBA 13888  3                          EXIT  ZSNFIN
 001E28                            13891  2                        END
 001E28 4110 BE5C/4800_      00E5C 13895  2                        TSEG  DSNWADSN,LH:DSNWANL
 001E3A 4110 79C3/4100_      0267B 13922  2                        SETMSG ': invalid dsname.'
 001E42 5920 7908/4770_      025C0 13926  2                        IF    (R2,EQ,8),'SETMSG ": invalid characters in dsname."'
 001E52 D207 B886 78C8_00886 02580 13952  2                        ABORT (R1),(R0),INVDSN
 001E5C                            13966  1                      END
 001E5C                            13970                       END
                                   13974                       ¿þþþþþþþþþþþþþþþþþþþþþþþþþþþþþþþþþþþþþþþþþþþþþþþþþþþþþþþþþþþÜ
                                   13975                       Ÿ  Check the exact copy of the file name the user specifed  Ÿ
                                   13976                       Ÿ    for "*".  If it is an asterisk, then use the saved     Ÿ
                                   13977                       Ÿ    dsname.                                                Ÿ
                                   13978                       ¾þþþþþþþþþþþþþþþþþþþþþþþþþþþþþþþþþþþþþþþþþþþþþþþþþþþþþþþþþþþ»
 001E5C D501 7968 BF04_02620 00F04 13979                       IF    ((DSNWLEN,EQ,1),AND,(DSNWFILE,EQ,'*')),BEGIN
 001E6E 4110 BE5C/4800_      00E5C 14013  1                      SETMSG DSNWADSN,LH:DSNWANL  Complete file name
 001E76 9501 BF3B/4780_00F3B       14026  1                      IF    (DSNDTYPE,NE,DSNDDISK),BEGIN  Non-disk...
 001E7E 9180 BF34/47E0_00F34       14044  2                        IF    DSNWAF1.DSNFSTD,'LA R1,@R1+11; SH R0,=H"11"'  No pfx
 001E8E                            14067  1                      END
                                   14071  1
 001E8E 5900 790C/47D0_      025C4 14072  1                      CEIL  R0,L'DSNWFILE       (Safety)
 001E9A 12FF/4720 71EA_            14091  1                      IF    (R15,NP),'CLEAR R0'
1DOPT     (DOPT2025) (12:42) (15MAR04) Dsname Finish Routine -- Do Overrides                                                Page   41
0Current Usings:  (*,R7) (CP,R11) (CV,R12)
0Loc    Object Code    Addr1 Addr2  Stmt Lv Lineno    Source Statement           (Hibal 5, Asmedit 3.3)  HLASM R4.0  2004/03/15 12.42
+___    ______ ____    _____ _____  ____ __ ______    ______ _________
0001EA2 4000 BF04            00F04 14114  1                      STH   R0,DSNWLEN
 001EA6 18F0                       14115  1                      LR    R15,R0              File length
 001EA8 D22B BF08 C4D8 00F08 004D8 14116  1                      MVC   DSNWFILE,CVBLANKS   Blank out file name
 001EAE 06F0/12FF/4740_            14117  1                      MOVE  R15,DSNWFILE,@R1    Save file name
 001EBA                            14155                       END
                                   14159
 001EBA 18D8/9808 D004_            14160                       PEND
 DROP   *,R7
1DOPT     (DOPT2025) (12:42) (15MAR04) Dsname Attribute and Possession Routines                                             Page   42
0Current Usings:  (CP,R11) (CV,R12)
0Loc    Object Code    Addr1 Addr2  Stmt Lv Lineno    Source Statement           (Hibal 5, Asmedit 3.3)  HLASM R4.0  2004/03/15 12.42
+___    ______ ____    _____ _____  ____ __ ______    ______ _________
0                                  14181              ***  routine to set dsname attribute flags
                                   14182              *
 001EC8 50E0 D000/90F8_      00000 14183              ZSNSTDDO XENTER R15,R8
 USING  *,R7
 001EE2 945F BF34      00F34       14202                       CLEAR DSNWAF1.DSNFSTD+DSNFWLIB  reset flags
 001EE6 D503 76E6 BE5C 025C8 00E5C 14213                       CLC   =C'WYL.',DSNWADSN   First level ok?
 001EEC 4770 7046            01F28 14214                       BNE   DODSNNS             Br if not std
 001EF0 954B BE62      00E62       14215                       CLI   DSNWADSN+DSNXG+DSNXGL-1,C'.'  Group delim?
 001EF4 4770 7046            01F28 14216                       BNE   DODSNNS             Br if not
 001EF8 954B BE66      00E66       14217                       CLI   DSNWADSN+DSNXU+DSNXUL-1,C'.'  User delim?
 001EFC 4770 7046            01F28 14218                       BNE   DODSNNS             Br if not
 001F00 4800 BF06            00F06 14219                       LH    R0,DSNWANL          Get dsname length
 001F04 4900 7742            02624 14220                       CH    R0,=Y(DSNXN)        Is it long enough?
 001F08 4740 7046            01F28 14221                       BL    DODSNNS             Br if not
 001F0C 9680 BF34      00F34       14222                       OI    DSNWAF1,DSNFSTD     Set std wyl dsn flag
 001F10 4120 0013            00013 14223                       LA    R2,DSNXN+8          Length of std pfx +8
 001F14 1902                       14224                       CR    R0,R2               Is that the length?
 001F16 4720 7046            01F28 14225                       BH    DODSNNS             Br if not
 001F1A D507 B8AB BE67 008AB 00E67 14226                       CLC   CPLIB,DSNWADSN+DSNXN  Is a wylbur lib?
 001F20 4770 7046            01F28 14227                       BNE   DODSNNS             Br if not
 001F24 9620 BF34      00F34       14228                       OI    DSNWAF1,DSNFWLIB    Say so
 001F28 18D8/58E0 D000_            14229              DODSNNS  XEXIT R15,R8
 DROP   *,R7                       14234                       DROP  BR
1DOPT     (DOPT2025) (12:42) (15MAR04) Dsname Attribute and Possession Routines                                             Page   43
0Current Usings:  (CP,R11) (CV,R12)
0Loc    Object Code    Addr1 Addr2  Stmt Lv Lineno    Source Statement           (Hibal 5, Asmedit 3.3)  HLASM R4.0  2004/03/15 12.42
+___    ______ ____    _____ _____  ____ __ ______    ______ _________
0                                  14242              ***  routine to set dsname possession flags
                                   14243              *
 001F34 50E0 D000/90F8_      00000 14244              ZSNUDSDO XENTER R15,R8
 USING  *,R7
 001F4E 94DF BF37      00F37       14263                       CLEAR DSNFBADN            Assume a-ok dsname
 001F52 9104 BD58/4710_00D58       14270                       IF    ~CPFGEN,BEGIN       Not a GDG...
 001F5A 4DE0 70CC            0201A 14285  1                      LCALL DSNCHK              Is it a valid os dsname?
 001F5E 4780 7018/9620_      01F66 14287  1                      IF    NZ,'SET DSNFBADN'   Flag as invalid
 001F66                            14309                       END
                                   14313
 001F66 94BF BF34      00F34       14314                       NI    DSNWAF1,255-DSNFMYDS  reset
 001F6A 9180 BF34      00F34       14315                       TM    DSNWAF1,DSNFSTD     Is it std data set?
 001F6E 4780 7046            01F94 14316                       BZ    DODSNSX             Br if not
 001F72 D501 BE60 B3B7 00E60 003B7 14317                       CLC   DSNWADSN+DSNXG(DSNXGL-1),CPSGRP  his group?
 001F78 4770 7052            01FA0 14318                       BNE   DODSNGSV            Br no to test saved group
 001F7C D502 BE63 B3B4 00E63 003B4 14319                       CLC   DSNWADSN+DSNXU(DSNXUL-1),CPSUSER  his id?
 001F82 4780 7042            01F90 14320                       BE    DODSNSMY            Br if yes
 001F86 D502 BE63 775D 00E63 026AB 14321                       CLC   DSNWADSN+DSNXU(DSNXUL-1),=C'&PUBUSER'  pub?
 001F8C 4770 7052            01FA0 14322                       BNE   DODSNGSV            Br no to test saved group
 001F90 9640 BF34      00F34       14323              DODSNSMY OI    DSNWAF1,DSNFMYDS    Set my data set flag
 001F94 18D8/58E0 D000_            14324              DODSNSX  XEXIT R15,R8
                                   14329
 001FA0 9180 B476      00476       14330              DODSNGSV TM    CPGFLG3,CPFKWENT    Did user give kw for save grp
 001FA4 4780 707C            01FCA 14331                       BZ    DODSNSA             no, don't test saved group
 001FA8 D501 BE60 B1BB 00E60 001BB 14332                       CLC   DSNWADSN+DSNXG(DSNXGL-1),CPGRPSV  saved group?
 001FAE 4770 707C            01FCA 14333                       BNE   DODSNSA             Br if not
 001FB2 D502 BE63 B1B8 00E63 001B8 14334                       CLC   DSNWADSN+DSNXU(DSNXUL-1),CPUSERSV  saved user?
 001FB8 4780 7042            01F90 14335                       BE    DODSNSMY            Br yes to set my data set
 001FBC D502 BE63 775D 00E63 026AB 14336                       CLC   DSNWADSN+DSNXU(DSNXUL-1),=C'&PUBUSER'  pub?
 001FC2 4780 7042            01F90 14337                       BE    DODSNSMY            Br yes to set my data set
 001FC6 47F0 7046            01F94 14338                       B     DODSNSX             Br to set not mine
                                   14339
 001FCA D604 B7F8 B7F8_007F8 007F8 14340              DODSNSA  IF    (CPPACCT,NZ),BEGIN  Check PACCOUNT...
 001FD4 9180 B758/47E0_00758       14357  1                      IF    ~CPFEXEC,EXIT       Only in exec mode
 001FDC D501 BE60 B7FB 00E60 007FB 14375  1                      CLC   DSNWADSN+DSNXG(DSNXGL-1),CPPGRP  PACCT group?
 001FE2 4770 70A2            01FF0 14376  1                      IF    NE,EXIT             No
 001FE6 D502 BE63 B7F8 00E63 007F8 14390  1                      CLC   DSNWADSN+DSNXU(DSNXUL-1),CPPUSER  PACCT user?
 001FEC 4780 7042            01F90 14391  1                      BE    DODSNSMY            Br if yes
 001FF0                            14392                       END
                                   14396
 001FF0 9140 B477      00477       14397                       TM    CPGFLG4,CPFAUSET    Authority field set?
 001FF4 4780 7046            01F94 14398                       BZ    DODSNSX             no, don't test auth group
 001FF8 D501 BE60 B8A7 00E60 008A7 14399                       CLC   DSNWADSN+DSNXG(DSNXGL-1),CPAUTHGP  auth group?
 001FFE 4770 7046            01F94 14400                       BNE   DODSNSX             Br if not
 002002 D502 BE63 B8A4 00E63 008A4 14401                       CLC   DSNWADSN+DSNXU(DSNXUL-1),CPAUTHUS  auth user?
 002008 4780 7042            01F90 14402                       BE    DODSNSMY            Br yes to set my data set
 00200C D502 BE63 775D 00E63 026AB 14403                       CLC   DSNWADSN+DSNXU(DSNXUL-1),=C'&PUBUSER'  pub?
 002012 4780 7042            01F90 14404                       BE    DODSNSMY            Br yes to set my data set
 002016 47F0 7046            01F94 14405                       B     DODSNSX             Exit
 DROP   *,R7                       14406                       DROP  BR
1DOPT     (DOPT2025) (12:42) (15MAR04) Dsname Attribute and Possession Routines                                             Page   44
0Current Usings:  (CP,R11) (CV,R12)
0Loc    Object Code    Addr1 Addr2  Stmt Lv Lineno    Source Statement           (Hibal 5, Asmedit 3.3)  HLASM R4.0  2004/03/15 12.42
+___    ______ ____    _____ _____  ____ __ ______    ______ _________
0                                  14414              ¿þþþþþþþþþþþþþþþþþþþþþþþþþþþþþþþþþþþþþþþþþþþþþþþþþþþþþþþþþþþþþþþþþþþþþÜ
                                   14415              Ÿ                                                                     Ÿ
                                   14416              Ÿ  DSNCHK -- Routine to check that dsname conforms to OS              Ÿ
                                   14417              Ÿ    data set name conventions.                                       Ÿ
                                   14418              Ÿ                                                                     Ÿ
                                   14419              Ÿ      On entry:                                                      Ÿ
                                   14420              Ÿ        DSNWA - contains dsname, etc.                                Ÿ
                                   14421              Ÿ                                                                     Ÿ
                                   14422              Ÿ      On exit, R15 (and CC):                                         Ÿ
                                   14423              Ÿ        0 - ok                                                       Ÿ
                                   14424              Ÿ        4 - bad os dsname                                            Ÿ
                                   14425              Ÿ        8 - bad chars in dsname                                      Ÿ
                                   14426              Ÿ                                                                     Ÿ
                                                      ¾þþþþþþþþþþþþþþþþþþþþþþþþþþþþþþþþþþþþþþþþþþþþþþþþþþþþþþþþþþþþþþþþþþþþþ»
000201A 50E0 D000/9028_      00000 14427              DSNCHK   XENTER R2,R8,,LOCAL
 USING  *,R7
 002034 1BFF                       14445                       CLEAR R15                 Assume ok
                                   14449
 002036 4160 BE5C            00E5C 14450                       LA    R6,DSNWADSN
 00203A 4850 BF06/1255       00F06 14451                       LTH   R5,DSNWANL
 002040 47D0 706C            020A0 14455                       BNP   DSNRC4              Null dsname is n.g.
                                   14456
 002044 4140 0008            00008 14457                       LA    R4,8                Max no. of chars per level
 002048 4130 0002            00002 14458                       LA    R3,2                Allow dot, alpha, or national
 00204C 1255/47D0 7068             14459                       WHILE (R5,POS),BEGIN
 002052 1F22/4320 6000             14475  1                      LC    R2,@R6              Get char
 002058 1F00/4302 707E             14482  1                      LC    R0,DSNCHR(R2)       Get char type
 00205E 1200/4770 7040             14487  1                      IF    (R0,Z),BEGIN        It's a dot...
 002064 5940 758C/47A0_      025C0 14501  2                        IF    (R4,GE,8),DSNRC4    Dot can't be first char
 00206C 4140 0008            00008 14521  2                        LA    R4,8                Allow eight more chars
 002070 4130 0002            00002 14522  2                        LA    R3,2                Allow dot, alpha, or national
 002074                            14523  1                      END
 002074 7044/47F0 705E 02074 02062 14527  1                      ELSE  BEGIN
 002078 1903/47D0 7052_            14538  2                        IF    (R0,GT,R3),'LA R15,8; B DSNCHKX'  bad chars
 002086 0640                       14560  2                        DECR  R4
 002088 1244/4740 706C             14562  2                        IF    (R4,NEG),DSNRC4     Over 8 chars w/o a dot
 00208E 4130 0003            00003 14579  2                        LA    R3,3                Allow numbers too now
 002092                            14580  1                      END
 002092 4160 6001            00001 14584  1                      LA    R6,@R6+1
 002096 0650                       14585  1                      DECR  R5
 002098 47F0 7018            0204C 14587                       END
 00209C 47F0 7070            020A4 14592                       B     DSNCHKX             All done, aok -- scram
                                   14593
 0020A0 41F0 0004            00004 14594              DSNRC4   LA    R15,4
 0020A4 18D8/58E0 D000_            14595              DSNCHKX  XEXIT ,,LTR
 DROP   *,R7                       14601                       DROP  BR
1DOPT     (DOPT2025) (12:42) (15MAR04) Dsname Attribute and Possession Routines                                             Page   45
0Current Usings:  (CP,R11) (CV,R12)
0Loc    Object Code    Addr1 Addr2  Stmt Lv Lineno    Source Statement           (Hibal 5, Asmedit 3.3)  HLASM R4.0  2004/03/15 12.42
+___    ______ ____    _____ _____  ____ __ ______    ______ _________
0                                  14609                       ¿þþþþþþþþþþþþþþþþþþþþþþþþþþþþþþþþþÜ
                                   14610                       Ÿ   Dsname character type table.  Ÿ
                                   14611                       Ÿ                                 Ÿ
                                   14612                       Ÿ  0 - Dot (.)                    Ÿ
                                   14613                       Ÿ  1 - Alphabetic                 Ÿ
                                   14614                       Ÿ  2 - National ($,@,#)           Ÿ
                                   14615                       Ÿ  3 - Numeric                    Ÿ
                                   14616                       Ÿ      255 - Everything else      Ÿ
                                   14617                       ¾þþþþþþþþþþþþþþþþþþþþþþþþþþþþþþþþþ»
 0020B2 FFFFFFFFFFFFFFFF           14618              DSNCHR   DC    256X'FF'
 0021B2                021B2 020FD 14619                       ORG   DSNCHR+C'.'
 0020FD 00                         14620                       DC    X'00'
 0020FE                020FE 02173 14621                       ORG   DSNCHR+C'A'
 002173 0101010101010101           14622                       DC    X'010101010101010101'
 00217C                0217C 02183 14623                       ORG   DSNCHR+C'J'
 002183 0101010101010101           14624                       DC    X'010101010101010101'
 00218C                0218C 02194 14625                       ORG   DSNCHR+C'S'
 002194 0101010101010101           14626                       DC    X'0101010101010101'
 00219C                0219C 0210D 14627                       ORG   DSNCHR+C'$'
 00210D 02                         14628                       DC    X'02'
 00210E                0210E 0212E 14629                       ORG   DSNCHR+C'@'
 00212E 02                         14630                       DC    X'02'
 00212F                0212F 0212D 14631                       ORG   DSNCHR+C'#'
 00212D 02                         14632                       DC    X'02'
 00212E                0212E 021A2 14633                       ORG   DSNCHR+C'0'
 0021A2 0303030303030303           14634                       DC    X'03030303030303030303'
 0021AC                021AC 021B2 14635                       ORG
1DOPT     (DOPT2025) (12:42) (15MAR04) Dsname Attribute and Possession Routines                                             Page   46
0Current Usings:  (CP,R11) (CV,R12)
0Loc    Object Code    Addr1 Addr2  Stmt Lv Lineno    Source Statement           (Hibal 5, Asmedit 3.3)  HLASM R4.0  2004/03/15 12.42
+___    ______ ____    _____ _____  ____ __ ______    ______ _________
0                                  14637              ¿þþþþþþþþþþþþþþþþþþþþþþþþþþþþþþþþþþþþþþþþþþþþþþþþþþþþþþþþþþþþþþþþþþþþþÜ
                                   14638              Ÿ                                                                     Ÿ
                                   14639              Ÿ  HOSTCHK -- Routine to check to see if name passed is               Ÿ
                                   14640              Ÿ    the name of another host computer on the network.                Ÿ
                                   14641              Ÿ                                                                     Ÿ
                                   14642              Ÿ    On entry:                                                        Ÿ
                                   14643              Ÿ      DSNON = possible host name                                     Ÿ
                                   14644              Ÿ                                                                     Ÿ
                                   14645              Ÿ    On exit, R15 (and cc):                                           Ÿ
                                   14646              Ÿ      0 - yes, this is a host name                                   Ÿ
                                   14647              Ÿ      4 - no, it is not a host name                                  Ÿ
                                   14648              Ÿ                                                                     Ÿ
                                                      ¾þþþþþþþþþþþþþþþþþþþþþþþþþþþþþþþþþþþþþþþþþþþþþþþþþþþþþþþþþþþþþþþþþþþþþ»
00021B2 50E0 D000/9008_      00000 14649              HOSTCHK  PROC
 USING  *,R7
 0021CC 4110 BE90/4100_      00E90 14688                       SETMSG DSNON               Possible host name
 0021D4 58E0 7400/0DEE       025CC 14702                       VCALL RTRIM               Get length
 0021DA 5900 7404/4740_      025D0 14706                       IF    (R0,LT,2),HOSTNO    Too short, can't be host name
 0021E2 5900 7408/4720_      025D4 14726                       IF    (R0,GT,6),HOSTYES   Too long for OS volume
                                   14746                       ¿þþþþþþþþþþþþþþþþþþþþþþþþþþþþþþþþþþþþþþþþþþþþþþþþþþþþþþÜ
                                   14747                       Ÿ  Check for "aaannn" (a=alpha,n=numeric) style name.  Ÿ
                                   14748                       Ÿ    If we find a name like this then assume it is a   Ÿ
                                   14749                       Ÿ    disk volume name.                                 Ÿ
                                   14750                       ¾þþþþþþþþþþþþþþþþþþþþþþþþþþþþþþþþþþþþþþþþþþþþþþþþþþþþþþ»
 0021EA 5900 7408/4770_      025D4 14751                       IF    (R0,EQ,6),BEGIN     Exactly 6 characters...
                                   14768  1         C            IF    ((DSNON,GE,'A'),AND,(DSNON,LE,'Z'),AND,
                                          1         C                  (DSNON+1,GE,'A'),AND,(DSNON+1,LE,'Z'),AND,
                                          1         C                  (DSNON+2,GE,'A'),AND,(DSNON+2,LE,'Z'),AND,
                                          1         C                  (DSNON+3,GE,'0'),AND,(DSNON+3,LE,'9'),AND,
                                          1         C                  (DSNON+4,GE,'0'),AND,(DSNON+4,LE,'9'),AND,
 0021F2 95C1 BE90/4750_00E90              1                            (DSNON+5,GE,'0'),AND,(DSNON+5,LE,'9')),HOSTNO
 002252                            14944                       END
                                   14948                       ¿þþþþþþþþþþþþþþþþþþþþþþþþþþþþþþþþþþþþþþþþþþþþþþþþþþþþþþþþþþþÜ
                                   14949                       Ÿ  Check the volume table to see if this is a disk volume.  Ÿ
                                   14950                       ¾þþþþþþþþþþþþþþþþþþþþþþþþþþþþþþþþþþþþþþþþþþþþþþþþþþþþþþþþþþþ»
 002252 4110 BE90            00E90 14951                       LA    R1,DSNON
 002256 58E0 740C/0DEE       025D8 14952                       VCALL VOLCHK              Is this a disk volume?
 00225C 4770 709C            02268 14956                       BNZ   HOSTYES             No, then maybe it's a host
                                   14957
 002260 41F0 0004            00004 14958              HOSTNO   LA    R15,4               It's not a host name
 002264 47F0 709E            0226A 14959                       B     HOSTEXIT
                                   14960
 002268 1BFF                       14961              HOSTYES  CLEAR R15                 It is a host name
 00226A 18D8/9808 D004_            14966              HOSTEXIT PEND
 DROP   *,R7
1DOPT     (DOPT2025) (12:42) (15MAR04) Dsname Parameter Scan Routines                                                       Page   47
0Current Usings:  (CP,R11) (CV,R12)
0Loc    Object Code    Addr1 Addr2  Stmt Lv Lineno    Source Statement           (Hibal 5, Asmedit 3.3)  HLASM R4.0  2004/03/15 12.42
+___    ______ ____    _____ _____  ____ __ ______    ______ _________
0                                  14988              * the dsname parameter scan routines are used by including
                                   14989              * a push pointer to dsnprt in the scan table for a command.
                                   14990              * these routines recognize group and user overrides. at the
                                   14991              * end of the scan of a line, the routine dsnfin completes
                                   14992              * processing of these parameters and must be called.
                                   14993              *
 002278 50E0 D000/9008_      00000 14994              HAVTEMP  PROC
 USING  *,R7
 002292 58E0 734A/0DEE       025DC 15033                       VCALL EXIT2               Get scratch volser
 002298 5900 734E/47D0_      025E0 15037                       CEIL  R0,L'DSNON
 0022A4 D227 BE90 C4D8 00E90 004D8 15056                       MVC   DSNON,CVBLANKS
 0022AA 18F0                       15057                       LR    R15,R0
 0022AC 06F0/12FF/4740_            15058                       MOVE  R15,DSNON,@R1       Set volume name
 0022B8 18D8/9808 D004_            15096                       PEND
 DROP   *,R7
                                   15116
 0022C6 50E0 D000/9008_      00000 15117              HAVOLM   PROC
 USING  *,R7
 0022E0 58E0 7304/0DEE       025E4 15156                       VCALL SCANWTOK            Pick off next token
 0022E6 4780 7026            02306 15160                       IF    NZ,BEGIN            Nothing more...
 0022EA 9110 BD5C/47E0_00D5C       15171  1                      IF    CPFDSNNE,BEGIN      Error suppression requested?
 0022F2 9608 BD5C      00D5C       15186  2                        SET   CPFDSNBD
 0022F6 47F0 7074            02354 15192  2                        EXIT  HAVOLM
 0022FA                            15195  1                      END
 0022FA 4110 7346/4100_      02626 15199  1                      ERROR 'Missing disk/host name after "ON".'
 002306                            15206                       END
                                   15210
 002306 5900 7300/47D0_      025E0 15211                       CEIL  R0,L'DSNON
 002312 D227 BE90 C4D8 00E90 004D8 15230                       MVC   DSNON,CVBLANKS      Pre-blank
 002318 18F0                       15231                       LR    R15,R0
 00231A 06F0/12FF/4740_            15232                       MOVE  R15,DSNON,@R1       Save volume/host name
 002326 58F0 C8A8            008A8 15270                       L     R15,CVUPPTBL
 00232A DC27 BE90 F000 00E90 00000 15271                       TR    DSNON,@R15          Convert to upper case
                                   15272
                                   15273            C          IF    ((DSNON,EQ,'CATALOG '),OR,(DSNON,EQ,'CATLG '),
 002330 D507 72A8 BE90_02588 00E90                                   OR,(DSNON,EQ,'CAT ')),'CLEAR DSNON'  Reset volume
 002354 18D8/9808 D004_            15332                       PEND
 DROP   *,R7
                                   15352
 002362 9680 BD52      00D52       15353              SETSET   OI    CPLFLG3,CPFSET      Turn on set operand
 002366 07FE                       15354                       BR    RAR
                                   15355
 002368 947F BD52      00D52       15356              SETNOSET NI    CPLFLG3,255-CPFSET  Turn off set flag
 00236C 07FE                       15357                       BR    RAR
                                   15358
 00236E 0DF0                       15359              HAVGUEST BASE  R15
 USING  *,R15
 002370 D21F BEC4 F220 00EC4 02590 15373                       MVC   DSNNUSER,=CL(L'DSNNUSER)'guest'
 002376 D21F BEE4 C4D8 00EE4 004D8 15374                       MVC   DSNNPASS,CVBLANKS
 00237C 07FE                       15375                       BR    RAR
 DROP   *,R15                      15376                       DROP  R15
                                   15383
 00237E 0DF0                       15384              HAVPUB   BASE  R15
 USING  *,R15
1DOPT     (DOPT2025) (12:42) (15MAR04) Dsname Parameter Scan Routines                                                       Page   48
0Current Usings:  (CP,R11) (CV,R12) (*,R15)
0Loc    Object Code    Addr1 Addr2  Stmt Lv Lineno    Source Statement           (Hibal 5, Asmedit 3.3)  HLASM R4.0  2004/03/15 12.42
+___    ______ ____    _____ _____  ____ __ ______    ______ _________
0002380 D204 BC48 F32E 00C48 026AE 15398                       MVC   CPCACCT,=C'&PUBUSER&PUBGRP'  Public account
 002386 07FE                       15399                       BR    RAR
 DROP   *,R15                      15400                       DROP  R15
                                   15407
 002388 50E0 D000/9078_      00000 15408              ZNVCODE  XENTER R7,R8,*
 USING  *,R7
 0023A2 18F0                       15427                       LR    R15,R0              Load length of code string
 0023A4 59F0 721E/4740_      025C0 15428                       IF    ((R15,LT,8),OR,(R15,GT,16)),BEGIN
 0023B4 4110 7311/4100_      026B3 15461  1                      ERROR 'CODE must be 8-16 characters in length.'
 0023C0                            15468                       END
 0023C0 D70F D000 D000 00000 00000 15472                       CLEAR (@R13,16)           Clear work area
 0023C6 9620 BF38      00F38       15479                       SET   DSNFCODE            Set encode/decode flag
 0023CA 06F0/44F0 734E_            15485                       DEX   R15,'MVC @R13(0),@R1'  Move code str to work area
 0023D0 58F0 D000            00000 15504                       L     R15,@R13            Load 1st four bytes
 0023D4 5EF0 D004            00004 15505                       AL    R15,@R13+4          Add 2nd four bytes
 0023D8 5EF0 D008            00008 15506                       AL    R15,@R13+8          Add 3rd four bytes
 0023DC 5EF0 D00C            0000C 15507                       AL    R15,@R13+12         Add 4th four bytes
 0023E0 10FF                       15508                       LPR   R15,R15             Make code value positive
 0023E2 50F0 BF5C            00F5C 15509                       ST    R15,DSNCODE         Store code value
 0023E6 18D8/58E0 D000_            15510                       XEXIT R7,R8
                                   15515
 0023F2 50F0 BD9C            00D9C 15516              LRECLA   ST    R15,CPLRCL          Set LRECL
 0023F6 07FE                       15517                       BR    RAR
                                   15518
 0023F8 9680 BE28      00E28       15519              NEWEDIT  SET   CPFNEWED            NEWEDIT
 0023FC D703 BD9C BD9C 00D9C 00D9C 15526                       CLEAR CPLRCL              Set Edit format
 002402 07FE                       15533                       BR    RAR
                                   15534
 002404 947F BE28      00E28       15535              OLDEDIT  CLEAR CPFNEWED            OLDEDIT
 002408 D703 BD9C BD9C 00D9C 00D9C 15543                       CLEAR CPLRCL              Set Edit format
 00240E 07FE                       15550                       BR    RAR
                                   15551
 002410 D703 BD9C BD9C 00D9C 00D9C 15552              EDITA    CLEAR CPLRCL              Set Edit format
 002416 07FE                       15560                       BR    RAR
                                   15561
 002418 41F0 0050            00050 15562              CARDA    LA    R15,80
 00241C 50F0 BD9C            00D9C 15563                       ST    R15,CPLRCL          Set CARD format
 002420 07FE                       15564                       BR    RAR
                                   15565
 002422 41F0 0085            00085 15566              PRNTA    LA    R15,133
 002426 50F0 BD9C            00D9C 15567                       ST    R15,CPLRCL          Set PRINT format
 00242A 07FE                       15568                       BR    RAR
                                   15569
 00242C 9602 BF39      00F39       15570              TABS     SET   DSNFTABS            Keep TAB characters
 002430 07FE                       15577                       BR    RAR
                                   15578
 002432 94FD BF39      00F39       15579              NOTABS   CLEAR DSNFTABS            Expand TAB characters in data
 002436 07FE                       15587                       BR    RAR
                                   15588
 002438 94FC BF39      00F39       15589              FMT      CLEAR DSNFUFMT+DSNFTABS   FORMATTED
 00243C 07FE                       15600                       BR    RAR
                                   15601
 00243E 9603 BF39      00F39       15602              UNFMT    SET   DSNFUFMT+DSNFTABS   UNFORMATTED
 002442 07FE                       15612                       BR    RAR
1DOPT     (DOPT2025) (12:42) (15MAR04) Dsname Parameter Scan Routines                                                       Page   49
0Current Usings:  (*,R7) (CP,R11) (CV,R12)
0Loc    Object Code    Addr1 Addr2  Stmt Lv Lineno    Source Statement           (Hibal 5, Asmedit 3.3)  HLASM R4.0  2004/03/15 12.42
+___    ______ ____    _____ _____  ____ __ ______    ______ _________
0                                  15613
 002444 9680 BF3A      00F3A       15614              TEXTONLY SET   DSNFTEXTONLY        TEXTONLY
 002448 07FE                       15621                       BR    RAR
                                   15622
 00244A 9680 BF39      00F39       15623              TRANS    SET   DSNFTRAN            Set TRANSPARENT format
 00244E 07FE                       15630                       BR    RAR
                                   15631
 002450 9684 BF39      00F39       15632              DTRANS   SET   DSNFDTRAN+DSNFTRAN  Set DTRANSPARENT format
 002454 07FE                       15642                       BR    RAR
                                   15643
 002456 9640 BF3A      00F3A       15644              ASCII    SET   DSNFASCII           ASCII
 00245A 94DF BF3A      00F3A       15651                       CLEAR DSNFEBCDIC          Not EBCDIC
 00245E 07FE                       15658                       BR    RAR
                                   15659
 002460 9620 BF3A      00F3A       15660              EBCDIC   SET   DSNFEBCDIC          EBCDIC
 002464 94BF BF3A      00F3A       15667                       CLEAR DSNFASCII           Not ASCII
 002468 07FE                       15674                       BR    RAR
                                   15675
 00246A D502 7338 BD24_026DA 00D24 15676              WRAP     IF    (CPCMNM,EQ,'SAV'),CVNVALID  WRAP invalid on SAVE
 002474 94DF BF39      00F39       15697                       CLEAR DSNFSPLT            WRAP, not SPLIT
 002478 40F0 BF42            00F42 15704                       STH   R15,DSNWRAPL        Save WRAP length
 00247C 07FE                       15705                       BR    RAR
                                   15706
 00247E D502 7338 BD24_026DA 00D24 15707              SPLIT    IF    (CPCMNM,EQ,'SAV'),CVNVALID  SPLIT invalid on SAVE
 002488 9620 BF39      00F39       15728                       SET   DSNFSPLT            SPLIT, not WRAP
 00248C 40F0 BF42            00F42 15734                       STH   R15,DSNWRAPL        Save WRAP length
 002490 07FE                       15735                       BR    RAR
                                   15736
 002492 50E0 D000/9008_      00000 15737              NOENQ    PROC  ,
 DROP   *,R7
 USING  *,R7
 0024AC 9120 B3BE/47E0_003BE       15779                       IF    ~CPSFSPR,CVNVALID   Only the strong survive ...
 0024B4 9610 BF38      00F38       15797                       SET   DSNFNONQ            No enqueue on dataset
 0024B8 18D8/9808 D004_            15803                       PEND  ,
 DROP   *,R7
 USING  *,R7
                                   15830
 0024C6 50E0 D000/9078_      00000 15831              SETSEQ   XENTER R7,R8,12+L'CPOSCAN,LOCAL  Regsave+scan save area
 DROP   *,R7
 USING  *,R7
 0024E0 943F BD54      00D54       15852                       NI    CPLFLG5,255-CPFNONUM  Set numbered default
 0024E4 9610 BD54      00D54       15853                       OI    CPLFLG5,CPFFOPT     Set number option given
 0024E8 D27B 800C BCA8 0000C 00CA8 15854                       MVC   @R8+12(L'CPOSCAN),CPOSCAN  scan pointer save
 0024EE 9801 BC9C            00C9C 15855                       LM    R0,R1,CPSAVE        Get seq fld pointers
 0024F2 954D 1000      00000       15856                       CLI   @R1,C'('            Need left paren
 0024F6 4770 7026            02506 15857                       BNE   SETSEQ1             No, only position given
 0024FA 4B00 716E            0264E 15858                       SH    R0,=Y(2)            Strip paren count
 0024FE 4740 C7E4            007E4 15859                       BM    CVNVALID
 002502 4110 1001            00001 15860                       LA    R1,@R1+1            Kick pointer past "("
 002506 58E0 7110/0DEE       025F0 15861              SETSEQ1  OSCINIT (R1),(R0)         Initialize scanner
 00250C 4110 737B/58E0_      0285B 15878                       OSCAN SEQPRT1             Scan for seqfld
 002516 47F0 7070            02550 15891                       B     SETSEQ3             Nothing found
                                   15892
 00251A 9680 BDA0      00DA0       15893              SSEQEND  OI    CPSEQFLD,X'80'      Set seq fld at end
1DOPT     (DOPT2025) (12:42) (15MAR04) Dsname Parameter Scan Routines                                                       Page   50
0Current Usings:  (*,R7) (CP,R11) (CV,R12)
0Loc    Object Code    Addr1 Addr2  Stmt Lv Lineno    Source Statement           (Hibal 5, Asmedit 3.3)  HLASM R4.0  2004/03/15 12.42
+___    ______ ____    _____ _____  ____ __ ______    ______ _________
000251E 47F0 704C            0252C 15894                       B     SETSEQ2             Go to get length
                                   15895
 002522 12FF                       15896              SSEQFLD  LTR   R15,R15             Test length
 002524 47D0 C7E4            007E4 15897                       BNP   CVNVALID            Must be positive
 002528 40F0 BDA0            00DA0 15898                       STH   R15,CPSEQFLD        Save seq fld position
 00252C 4110 738F/58E0_      0286F 15899              SETSEQ2  OSCAN SEQPRT2             Scan for length
 002536 47F0 7070            02550 15913                       B     SETSEQ3             Done, leave length alone
                                   15914
 00253A 12FF                       15915              SSEQLN   LTR   R15,R15
 00253C 47D0 C7E4            007E4 15916                       BNP   CVNVALID            Length must be positive
 002540 40F0 BDA2            00DA2 15917                       STH   R15,CPSEQLN         Save length
 002544 1B11/58E0 7114_            15918                       OSCAN ,                   Check rest of parm blank
 00254C 4770 C7E4            007E4 15928                       BNZ   CVNVALID            Error if not blank
 002550 D27B BCA8 800C 00CA8 0000C 15929              SETSEQ3  MVC   CPOSCAN,@R8+12       Restore scan values
 002556 18D8/58E0 D000_            15930                       XEXIT R7,R8
 DROP   *,R7                       15935                       DROP  BR
                                   15942
                                   15943              RTNAD    EQU   32
                                   15944              PRESTPT  EQU   32+4
                                   15945              LINAREA  EQU   32+8
                                   15946              WRKAREA  EQU   32+16
1DOPT     (DOPT2025) (12:42) (15MAR04) Literals                                                                             Page   51
0Current Usings:  (CP,R11) (CV,R12)
0Loc    Object Code    Addr1 Addr2  Stmt Lv Lineno    Source Statement           (Hibal 5, Asmedit 3.3)  HLASM R4.0  2004/03/15 12.42
+___    ______ ____    _____ _____  ____ __ ______    ______ _________
0                                  15948                       QLTORG
1DOPT     (DOPT2025) (12:42) (15MAR04) Literals                                                                             Page   52
0Current Usings:  (CP,R11) (CV,R12)
0Loc    Object Code    Addr1 Addr2  Stmt Lv Lineno    Source Statement           (Hibal 5, Asmedit 3.3)  HLASM R4.0  2004/03/15 12.42
+___    ______ ____    _____ _____  ____ __ ______    ______ _________
0                                  16000              * for dodsnm routine
                                   16001              *
 0026F6 FF00181E                   16002              DSPRTB   OSCKW ,BGOOD
                                   16004              *
                                   16005              * dsnprtf is the scanner prt used by use, save, exec from,
                                   16006              * and copy from to recognize format dsname keywords as well
                                   16007              * as the normal dsname keywords.
                                   16008              *
                                   16009                       ENTRY DSNPRT,DSNPRTF,DSNPRTON
                                   16010
 0026FA 0B002410C5C4C9E3           16011              DSNPRTF  OSCKW EDIT,EDITA,A
 002702 060023F8D5C5E6C5           16013                       OSCKW NEWEDIT,NEWEDIT
 00270D 06002404D6D3C4C5           16015                       OSCKW OLDEDIT,OLDEDIT
 002718 0B002418C3C1D9C4           16017                       OSCKW CARD,CARDA,A
 002720 0C002422D7D9C9D5           16019                       OSCKW PRINT,PRNTA,A
 002729 0B00242CE3C1C2E2           16021                       OSCKW TABS,TABS,A
 002731 0D002432D5D6E3C1           16023                       OSCKW NOTABS,NOTABS,A
 00273B 0F00243EE4D5C6D6           16025                       OSCKW UNFORMATTED,UNFMT,A
 002747 0F002438C6D6D9D4           16027                       OSCKW FORMATTED,FMT,A
 002753 0F002444E3C5E7E3           16029                       OSCKW TEXTONLY,TEXTONLY,A
 00275F 0F00244AE3D9C1D5           16031                       OSCKW TRANSPARENT,TRANS,A
 00276B 0F002450C4E3D9C1           16033                       OSCKW DTRANSPARENT,DTRANS,A
 002777 0C002456C1E2C3C9           16035                       OSCKW ASCII,ASCII,A
 002780 0D002460C5C2C3C4           16037                       OSCKW EBCDIC,EBCDIC,A
 00278A BB00246AE6D9C1D7_          16039                       OSCKW WRAP,WRAP,(A,P,PI),&LINESZ
 002796 BC00247EE2D7D3C9_          16042                       OSCKW SPLIT,SPLIT,(A,P,PI),&LINESZ
 0027A3 BC0023F2D3D9C5C3_          16045                       OSCKW LRECL,LRECLA,(P,PI,A),256
 0027B0 8B002388C3D6C4C5           16048                       OSCKW CODE,ZNVCODE,(P,A)
 0027B8 F80003F8                   16050                       OSCKW ,NUMPRT,PUSH
 0027BC 8D0024C6E2C5D8C6           16052                       OSCKW SEQFLD,SETSEQ,(A,P)
                                   16054              *
                                   16055              * dsnprt is the scanner prt used by all of wylbur to
                                   16056              * recognize dsname keywords.
                                   16057              *
 0027C6 010022C6D6D5               16058              DSNPRT   OSCKW ON,HAVOLM
 0027CC 0D0022C6E5D6D3E4           16060                       OSCKW VOLUME,HAVOLM,A
 0027D6 04000000E6C9D5C7           16062                       OSCKW WINGS,V(SCNNOOP)    ALLOW, IGNORE TYPES IN
 0027DF 03000000E4D5C9E7           16064                       OSCKW UNIX,V(SCNNOOP)     OLD FILE OPTIONS SCANNING
 0027E7 0D000000E2C1D4E2           16066                       OSCKW SAMSON,V(SCNNOOP),A
 0027F1 02000000D5C5E3             16068                       OSCKW NET,V(SCNNOOP)
 0027F8 0D000000D6D3C4C9           16070                       OSCKW OLDIBM,V(SCNNOOP),A
 002802 0F002278E3C5D4D7           16072                       OSCKW TEMPORARY,HAVTEMP,A
 00280E 02002362E2C5E3             16074                       OSCKW SET,SETSET
 002815 0C002368D5D6E2C5           16076                       OSCKW NOSET,SETNOSET,A
 00281E 0D00237ED7E4C2D3           16078                       OSCKW PUBLIC,HAVPUB,A
 002828 0C00236EC7E4C5E2           16080                       OSCKW GUEST,HAVGUEST,A
 002831 0F002492D5D6C5D5           16082                       OSCKW NOENQUEUE,NOENQ,A
 00283D F800002D                   16084                       OSCKW ,ACCTPRT,PUSH
 002841 F9                         16086                       OSCKW ,,POP
 002842 FF000000                   16088                       OSCKW ,V(INVALID)
                                   16090
 002846 010022C6D6D5               16091              DSNPRTON OSCKW ON,HAVOLM
 00284C 0D0022C6E5D6D3E4           16093                       OSCKW VOLUME,HAVOLM,A
 002856 F9                         16095                       OSCKW ,,POP
1DOPT     (DOPT2025) (12:42) (15MAR04) Literals                                                                             Page   53
0Current Usings:  (CP,R11) (CV,R12)
0Loc    Object Code    Addr1 Addr2  Stmt Lv Lineno    Source Statement           (Hibal 5, Asmedit 3.3)  HLASM R4.0  2004/03/15 12.42
+___    ______ ____    _____ _____  ____ __ ______    ______ _________
0002857 FF000000                   16097                       OSCKW ,V(INVALID)
                                   16099
 00285B 0200251AC5D5C4             16100              SEQPRT1  OSCKW END,SSEQEND
 002862 3000252240/00000_          16102                       OSCKW ,SSEQFLD,PI,&LINESZ
 00286B FF000000                   16105                       OSCKW ,V(INVALID)
                                   16107
 00286F 3000253A40/00000_          16108              SEQPRT2  OSCKW ,SSEQLN,PI,9
 002878 FF000000                   16111                       OSCKW ,V(INVALID)
                                   16113
                                   16114                       VLTORG
 002880                02880 02880 16122                       END   .

1DOPT     (DOPT2025) (12:42) (15MAR04) Relocation Dictionary                                                                Page   54
-   Pos.Id   Rel.Id   Flags    Address                                                       HLASM R4.0  2004/03/15 12.42
0  00000001 00000001    08    00000018
   00000001 00000001    08    00000021
   00000001 00000001    08    0000002A
   00000001 00000001    08    0000002E
   00000001 00000001    08    00000039
   00000001 00000001    08    00000041
   00000001 00000001    08    00000049
   00000001 00000001    08    00000050
   00000001 00000001    08    00000059
   00000001 00000001    08    00000060
   00000001 00000001    08    000003B1
   00000001 00000001    08    000003B5
   00000001 00000001    08    000003B9
   00000001 00000001    08    000003C2
   00000001 00000001    08    000003CA
   00000001 00000001    08    000003D4
   00000001 00000001    08    000003DE
   00000001 00000001    08    000003ED
   00000001 00000001    08    000003F9
   00000001 00000001    08    00000405
   00000001 00000001    08    00000411
   00000001 00000001    08    0000041D
   00000001 00000001    08    0000042D
   00000001 00000001    08    00000436
   00000001 00000001    08    00000444
   00000001 00000001    08    00000450
   00000001 00000001    08    00000463
   00000001 00000001    08    0000046D
   00000001 00000001    08    000004FB
   00000001 00000001    08    0000050A
   00000001 00000001    08    00000563
   00000001 00000001    08    0000056C
   00000001 00000001    08    000005A7
   00000001 00000001    08    000005BF
   00000001 00000001    08    000005D3
   00000001 00000001    08    000005DE
   00000001 00000001    08    00000765
   00000001 00000001    08    00000769
   00000001 00000001    08    0000076D
   00000001 00000001    08    00000773
   00000001 00000001    08    00000777
   00000001 00000001    08    0000077B
   00000001 00000001    08    00000786
   00000001 00000001    08    00000792
   00000001 00000001    08    00000796
   00000001 00000001    08    0000079F
   00000001 00000001    08    000007A6
   00000001 00000001    08    000007AE
   00000001 00000001    08    000007B9
   00000001 00000001    08    000007C2
   00000001 00000001    08    000007CA
   00000001 00000001    0C    000008EC
   00000001 00000001    0C    000008F4
   00000001 00000001    0C    000008F8
   00000001 00000001    08    000009F3
1DOPT     (DOPT2025) (12:42) (15MAR04) Relocation Dictionary                                                                Page   55
   00000001 00000001    08    000009F8
   00000001 00000001    08    000009FD
   00000001 00000001    08    00000A07
   00000001 00000001    08    00000A0C
   00000001 00000001    08    00000A15
   00000001 00000001    08    00000A20
   00000001 00000001    08    00000A28
   00000001 00000001    08    00000A2F
   00000001 00000001    08    00000A37
   00000001 00000001    08    00000A43
   00000001 00000001    08    00000A4D
   00000001 00000001    08    00000A57
   00000001 00000001    08    00001053
   00000001 00000001    08    00001058
   00000001 00000001    08    00001061
   00000001 00000001    08    00001066
   00000001 00000001    08    0000193D
   00000001 00000001    08    00001945
   00000001 00000001    08    0000194E
   00000001 00000001    08    00001958
   00000001 00000001    08    00001963
   00000001 00000001    0C    00001B0C
   00000001 00000001    0C    000025B4
   00000001 00000001    08    000026F7
   00000001 00000001    08    000026FB
   00000001 00000001    08    00002703
   00000001 00000001    08    0000270E
   00000001 00000001    08    00002719
   00000001 00000001    08    00002721
   00000001 00000001    08    0000272A
   00000001 00000001    08    00002732
   00000001 00000001    08    0000273C
   00000001 00000001    08    00002748
   00000001 00000001    08    00002754
   00000001 00000001    08    00002760
   00000001 00000001    08    0000276C
   00000001 00000001    08    00002778
   00000001 00000001    08    00002781
   00000001 00000001    08    0000278B
   00000001 00000001    08    00002797
   00000001 00000001    08    000027A4
   00000001 00000001    08    000027B1
   00000001 00000001    08    000027B9
   00000001 00000001    08    000027BD
   00000001 00000001    08    000027C7
   00000001 00000001    08    000027CD
   00000001 00000001    08    00002803
   00000001 00000001    08    0000280F
   00000001 00000001    08    00002816
   00000001 00000001    08    0000281F
   00000001 00000001    08    00002829
   00000001 00000001    08    00002832
   00000001 00000001    08    0000283E
   00000001 00000001    08    00002847
   00000001 00000001    08    0000284D
   00000001 00000001    08    0000285C
   00000001 00000001    08    00002863
   00000001 00000001    08    00002870
   00000001 00000002    18    0000001D
1DOPT     (DOPT2025) (12:42) (15MAR04) Relocation Dictionary                                                                Page   56
   00000001 00000002    18    00000026
   00000001 00000002    18    0000006B
   00000001 00000002    18    000003BE
   00000001 00000002    18    000003DA
   00000001 00000002    18    000003E9
   00000001 00000002    18    00000429
   00000001 00000002    18    00000440
   00000001 00000002    18    0000045F
   00000001 00000002    18    0000047A
   00000001 00000002    18    00000517
   00000001 00000002    18    000005A3
   00000001 00000002    18    000005B4
   00000001 00000002    18    000005C9
   00000001 00000002    18    000005E3
   00000001 00000002    18    00000A5D
   00000001 00000002    18    0000105D
   00000001 00000002    18    0000106F
   00000001 00000002    18    00002843
   00000001 00000002    18    00002858
   00000001 00000002    18    0000286C
   00000001 00000002    18    00002879
   00000001 00000003    1C    000008B0
   00000001 00000003    1C    00000EC8
   00000001 00000003    1C    000010C0
   00000001 00000003    1C    00001ADC
   00000001 00000003    1C    000025B0
   00000001 00000004    1C    000008B8
   00000001 00000005    1C    000008BC
   00000001 00000006    1C    000008C8
   00000001 00000007    1C    000008D0
   00000001 00000007    1C    00000EFC
   00000001 00000007    1C    000010B8
   00000001 00000007    1C    00001AC4
   00000001 00000007    1C    000025F4
   00000001 00000008    1C    000008E8
   00000001 00000008    1C    000010B4
   00000001 00000009    1C    000008FC
   00000001 0000000A    1C    00000900
   00000001 0000000A    1C    00000E90
   00000001 0000000B    1C    00000E88
   00000001 0000000C    1C    00000E8C
   00000001 0000000D    1C    00000E98
   00000001 0000000E    1C    00000E9C
   00000001 0000000F    1C    00000EA0
   00000001 0000000F    1C    000010BC
   00000001 00000010    1C    00000EA8
   00000001 00000011    1C    00000EC0
   00000001 00000012    1C    00000EC4
   00000001 00000013    1C    00000EF8
   00000001 00000014    1C    00000F00
   00000001 00000015    1C    00000F04
   00000001 00000015    1C    00001AD0
   00000001 00000016    1C    00000F08
   00000001 00000017    1C    000010B0
   00000001 00000017    1C    00001ABC
   00000001 00000018    1C    000010C4
   00000001 00000018    1C    00001AF0
   00000001 00000019    1C    00001AC0
   00000001 0000001A    1C    00001ACC
1DOPT     (DOPT2025) (12:42) (15MAR04) Relocation Dictionary                                                                Page   57
   00000001 0000001B    1C    00001AD4
   00000001 0000001C    1C    00001AE0
   00000001 0000001C    1C    000025F0
   00000001 0000001D    1C    00001AE4
   00000001 0000001D    1C    000025DC
   00000001 0000001E    1C    00001B00
   00000001 0000001F    1C    00001B04
   00000001 00000020    1C    000025B8
   00000001 00000021    1C    000025BC
   00000001 00000022    1C    000025CC
   00000001 00000023    1C    000025D8
   00000001 00000024    1C    000025E4
   00000001 00000025    18    000027D7
   00000001 00000025    18    000027E0
   00000001 00000025    18    000027E8
   00000001 00000025    18    000027F2
   00000001 00000025    18    000027F9

1DOPT     (DOPT2025) (12:42) (15MAR04) Ordinary Symbol and Literal Cross Reference                                          Page   58
-Symbol   Length   Value     Id    R Type   Defn References                                  HLASM R4.0  2004/03/15 12.42
0$$$@R0        1 00000000 FFFFFFFE     J     705  1009
 $$$@R10       1 00000000 FFFFFFF4     J     835  1073
 $$$@R11       1 00000000 FFFFFFF3     J     848  1086
 $$$@R12       1 00000000 FFFFFFF2     J     861  1099
 $$$@R13       1 00000000 FFFFFFF1     J     874  1112
 $$$@R14       1 00000000 FFFFFFF0     J     887  1125
 $$$@R7        1 00000000 FFFFFFF7     J     796  1022
 $$$@R8        1 00000000 FFFFFFF6     J     809  1035   1047
 $$$@R9        1 00000000 FFFFFFF5     J     822  1060
 $$$C1WYLDOPT
               1 000009F2 00000001     J    8711  8713
 $$$C2WYLDOPT
               1 00000F3A 00000001     J   10012 10014
 $$$C3WYLDOPT
               1 000010CA 00000001     J   10336 10338  10792  10851  11316  12272  12355  12679  12882
 $$$C4WYLDOPT
               1 00001C9E 00000001     J   13189 13191  14149  15090  15264  15502
 $$$C5WYLDOPT
               1 000026F6 00000001     J   15994 15996
 $$$C6WYLDOPT
               1 00002880 00000001     J   16125 16127
 $$$D0WYLDOPT
               1 000009EC 00000001     J     994  6792
 $$$D3WYLDOPT
               1 00001C73 00000001     J   10337 10781  10840  11305  12261  12344  12668  12871
 $$$D4WYLDOPT
               1 000026DD 00000001     J   13190 14138  15079  15253  15491
 $$$RCP        1 00000000 FFFFFFEB     J    2734  4994   6468   6468
 $$$RCV        1 00000000 FFFFFFED     J    1459  2644   2644
 $$$RDEV       1 00000000 FFFFFFEA     J    4948  4993   4993
 $$$RJCB       1 00000000 FFFFFFEE     J    1151  1425   1425
 $$$RNSCNCB
               1 00000000 FFFFFFEC     J    2655  2728   2728
 $$$RTTYPE
               1 00000000 FFFFFFE9     J    6479  6580   6580
 $$$SEGCB0
               4 00000050 FFFFFFEB     F    2765  2851   2851
 $$$Z3         4 00001A38 00000001     F   13127 12150
 $$$100F       2 00000738 00000001     H    8504  8476B
 $$$103F       2 00000762 00000001     H    8557  8544B
 $$$106B       1 00000A7A 00000001     X    8783  8793U
 $$$107F       2 00000A92 00000001     H    8826  8809B
 $$$110B       1 00000AC0 00000001     X    8876  8883U
 $$$111F       2 00000AD8 00000001     H    8916  8899B
 $$$114B       1 00000B08 00000001     X    8963  8970U
 $$$117B       1 00000B60 00000001     X    9038  9048U
 $$$120B       1 00000B84 00000001     X    9106  9113U
 $$$121B       1 00000B8E 00000001     X    9127  9137U
 $$$122F       2 00000BA8 00000001     H    9175  9165B
 $$$122T       2 00000BA4 00000001     H    9168  9155B
 $$$124B       1 00000BB0 00000001     X    9187  9197U
 $$$125F       2 00000BCA 00000001     H    9235  9225B
 $$$125T       2 00000BC6 00000001     H    9228  9215B
 $$$127B       1 00000BD2 00000001     X    9247  9257U
 $$$128B       1 00000BF8 00000001     X    9272  9279U
1DOPT     (DOPT2025) (12:42) (15MAR04) Ordinary Symbol and Literal Cross Reference                                          Page   59
 $$$129F       2 00000C12 00000001     H    9305  9292B
 $$$130B       1 00000C30 00000001     X    9324  9331U
 $$$131F       2 00000C4A 00000001     H    9357  9344B
 $$$132B       1 00000C50 00000001     X    9372  9382U
 $$$133B       1 00000C76 00000001     X    9404  9411U
 $$$136B       4 00000D1E 00000001     I    9546  9565
 $$$136F       2 00000D2C 00000001     H    9559  9534B  9546B  9562
 $$$137B       4 00000D16 00000001     I    9534  9563
 $$$138E       2 00000D30 00000001     H    9572  9564   9566
 $$$138F       2 00000D4E 00000001     H    9617  9568B
 $$$140B       1 00000D80 00000001     X    9665  9672U
 $$$141B       4 00000D84 00000001     I    9685  9723
 $$$141F       2 00000DA6 00000001     H    9718  9685B  9722
 $$$142B       4 00000DAE 00000001     I    9739  9784
 $$$142E       2 00000DAA 00000001     H    9730  9724
 $$$142F       2 00000DD4 00000001     H    9777  9726B  9739B  9783
 $$$144B       4 00000DDC 00000001     I    9800  9951
 $$$144E       2 00000DD8 00000001     H    9791  9785
 $$$144F       2 00000E34 00000001     H    9947  9787B  9800B  9950
 $$$146F       2 00000DFE 00000001     H    9848  9826B  9838B
 $$$146S       2 00000DE8 00000001     H    9816  9847B
 $$$149F       2 00000E10 00000001     H    9883  9862B  9874B
 $$$151F       2 00000E26 00000001     H    9921  9899B  9911B
 $$$151S       2 00000E10 00000001     H    9889  9920B
 $$$154E       2 00000E38 00000001     H    9958  9952
 $$$154F       2 00000E3A 00000001     H    9965  9954B
 $$$155B       1 00000F54 00000001     X   10031 10041U
 $$$156B       1 00000F56 00000001     X   10048 10058U
 $$$159B       1 00001080 00000001     X   10260 10267U
 $$$161B       1 000010E4 00000001     X   10356 10363U
 $$$162B       1 0000111A 00000001     X   10395 10402U
 $$$163B       4 0000111E 00000001     I   10415 10442
 $$$163F       2 0000113C 00000001     H   10438 10415B 10441
 $$$165E       2 00001140 00000001     H   10449 10443
 $$$165F       2 0000116A 00000001     H   10480 10445B
 $$$168F       2 000011A6 00000001     H   10567 10513B
 $$$169F       2 000011A6 00000001     H   10563 10544B
 $$$169T       2 0000119A 00000001     H   10547 10533B
 $$$171F       2 000011E6 00000001     H   10625 10588B
 $$$172F       2 000011D4 00000001     H   10613 10603B
 $$$173F       2 0000120C 00000001     H   10673 10637B
 $$$174F       2 00001200 00000001     H   10662 10652B
 $$$175F       2 00001240 00000001     H   10729 10713B
 $$$177F       2 00001256 00000001     H   10757 10748B
 $$$178F       2 0000126C 00000001     H   10797 10773B
 $$$179        6 00001C74 00000001     I   10787 10779X
 $$$180        6 00001C74 00000001     I   10786 10787  10787
 $$$181F       2 0000128E 00000001     H   10860 10813B
 $$$183F       2 0000128E 00000001     H   10856 10832B
 $$$184        6 00001C7A 00000001     I   10846 10838X
 $$$185        6 00001C7A 00000001     I   10845 10846  10846
 $$$186F       2 00001408 00000001     H   11422 10878B
 $$$188F       2 0000134A 00000001     H   11119 10897B 10910B
 $$$190F       2 000012C6 00000001     H   10961 10930B 10948B
 $$$190S       2 000012AE 00000001     H   10924 10960B
 $$$193F       2 000012EE 00000001     H   11031 10972B
 $$$196F       2 00001408 00000001     H   11418 11137B 11157B 11170B
 $$$196S       2 0000134E 00000001     H   11131 11417B
 $$$200F       2 000013FE 00000001     H   11409 11188B
1DOPT     (DOPT2025) (12:42) (15MAR04) Ordinary Symbol and Literal Cross Reference                                          Page   60
 $$$201F       2 000013D2 00000001     H   11355 11201B
 $$$202F       2 00001380 00000001     H   11230 11217B
 $$$203F       2 000013A4 00000001     H   11262 11242B
 $$$204F       2 000013B0 00000001     H   11281 11272B
 $$$205F       2 000013C2 00000001     H   11321 11297B
 $$$206        6 00001C80 00000001     I   11311 11303X
 $$$207        6 00001C80 00000001     I   11310 11311  11311
 $$$208F       2 000013D2 00000001     H   11351 11335B
 $$$209F       2 000013FA 00000001     H   11403 11371B
 $$$211F       2 0000143C 00000001     H   11503 11441B 11459B 11480B 11493B
 $$$215F       2 000014B8 00000001     H   11654 11519B
 $$$216F       2 000014B0 00000001     H   11647 11535B
 $$$217F       2 0000147C 00000001     H   11585 11551B
 $$$218F       2 000014B0 00000001     H   11643 11602B
 $$$219F       2 000014B0 00000001     H   11639 11623B
 $$$220F       2 000014F8 00000001     H   11706 11678B 11695B
 $$$224F       2 00001576 00000001     H   11816 11805B
 $$$225F       2 00001586 00000001     H   11840 11829B
 $$$226F       2 0000159E 00000001     H   11864 11854B
 $$$227F       2 000015CA 00000001     H   11922 11911B
 $$$228F       2 000015DA 00000001     H   11946 11935B
 $$$229F       2 000015F2 00000001     H   11970 11960B
 $$$230F       2 00001672 00000001     H   12129 12032B 12052B 12065B
 $$$233F       2 00001652 00000001     H   12091 12081B
 $$$235F       2 000016A4 00000001     H   12188 12151B
 $$$236F       2 00001692 00000001     H   12176 12166B
 $$$237F       2 000016D6 00000001     H   12285 12200B
 $$$238F       2 000016D6 00000001     H   12281 12215B
 $$$239F       2 000016C4 00000001     H   12238 12229B
 $$$240F       2 000016D6 00000001     H   12277 12253B
 $$$241        6 00001C86 00000001     I   12267 12259X
 $$$242        6 00001C86 00000001     I   12266 12267  12267
 $$$243F       2 00001706 00000001     H   12364 12316B
 $$$244F       2 00001706 00000001     H   12360 12336B
 $$$245        6 00001C8C 00000001     I   12350 12342X
 $$$246        6 00001C8C 00000001     I   12349 12350  12350
 $$$247F       2 00001758 00000001     H   12490 12401B 12420B 12441B 12454B 12473B
 $$$256F       2 0000186E 00000001     H   12691 12652B
 $$$256T       2 00001854 00000001     H   12655 12628B 12641B
 $$$259        6 00001C92 00000001     I   12674 12666X
 $$$260        6 00001C92 00000001     I   12673 12674  12674
 $$$264F       2 00001932 00000001     H   12943 12822B 12905B
 $$$265F       2 000018FE 00000001     H   12887 12863B
 $$$266        6 00001C98 00000001     I   12877 12869X
 $$$267        6 00001C98 00000001     I   12876 12877  12877
 $$$269F       2 00001920 00000001     H   12931 12921B
 $$$273F       2 00001EBA 00000001     H   14168 13890B
 $$$274B       1 00001CB8 00000001     X   13222 13229U
 $$$275F       2 00001CE6 00000001     H   13305 13254B 13271B
 $$$277F       2 00001D78 00000001     H   13596 13318B
 $$$278F       2 00001D78 00000001     H   13592 13339B
 $$$279F       2 00001D40 00000001     H   13464 13357B
 $$$280F       2 00001D24 00000001     H   13420 13376B 13390B 13409B
 $$$283F       2 00001D40 00000001     H   13460 13450B
 $$$283T       2 00001D38 00000001     H   13453 13438B
 $$$285F       2 00001D4E 00000001     H   13488 13478B
 $$$286F       2 00001D78 00000001     H   13588 13520B
 $$$287F       2 00001D6C 00000001     H   13558 13548B
 $$$288F       2 00001D78 00000001     H   13579 13569B
1DOPT     (DOPT2025) (12:42) (15MAR04) Ordinary Symbol and Literal Cross Reference                                          Page   61
 $$$289F       2 00001DB2 00000001     H   13691 13613B
 $$$290F       2 00001DB2 00000001     H   13687 13629B 13643B
 $$$292F       2 00001DDA 00000001     H   13756 13704B
 $$$294F       2 00001DCA 00000001     H   13730 13720B
 $$$295F       2 00001DDA 00000001     H   13752 13742B
 $$$296F       2 00001E5C 00000001     H   13973 13774B
 $$$298F       2 00001E5C 00000001     H   13969 13812B 13825B 13842B 13858B
 $$$303F       2 00001E28 00000001     H   13894 13876B
 $$$304F       2 00001E52 00000001     H   13951 13938B
 $$$305F       2 00001EBA 00000001     H   14158 13994B 14008B
 $$$307F       2 00001E8E 00000001     H   14070 14039B
 $$$308F       2 00001E8E 00000001     H   14066 14055B
 $$$310F       2 00001E9A 00000001     H   14090 14081B
 $$$311F       2 00001EA2 00000001     H   14113 14100B
 $$$312F       2 00001EBA 00000001     H   14154 14130B
 $$$313        6 000026DE 00000001     I   14144 14136X
 $$$314        6 000026DE 00000001     I   14143 14144  14144
 $$$315        1 00000050 00000001 A   U   14177 14174  14176
 $$$316B       1 00001EE2 00000001     X   14193 14200U
 $$$319B       1 00001F4E 00000001     X   14254 14261U
 $$$320F       2 00001F66 00000001     H   14312 14280B
 $$$321F       2 00001F66 00000001     H   14308 14293B
 $$$322F       2 00001FF0 00000001     H   14395 14352B 14369B 14384B
 $$$325B       1 00002034 00000001     X   14436 14443U
 $$$326F       2 0000209C 00000001     H   14591 14470B
 $$$326S       2 0000204C 00000001     H   14464 14590B
 $$$328B       4 00002060 00000001     I   14496 14529
 $$$328F       2 00002074 00000001     H   14526 14496B 14528
 $$$330E       2 00002078 00000001     H   14536 14530
 $$$330F       2 00002092 00000001     H   14583 14532B
 $$$331F       2 00002086 00000001     H   14559 14548B
 $$$334B       1 000021CC 00000001     X   14672 14679U
 $$$337F       2 00002252 00000001     H   14947 14763B
 $$$338F       2 00002252 00000001     H   14941 14782B 14796B 14810B 14824B 14838B 14852B 14866B 14880B 14894B 14908B
                                                 14922B
 $$$350        1 00000050 00000001 A   U   14984 14981  14983
 $$$352B       1 00002292 00000001     X   15017 15024U
 $$$353F       2 000022A4 00000001     H   15055 15046B
 $$$354F       2 000022B8 00000001     H   15095 15071B
 $$$355        6 000026E4 00000001     I   15085 15077X
 $$$356        6 000026E4 00000001     I   15084 15085  15085
 $$$357        1 00000050 00000001 A   U   15113 15110  15112
 $$$358F       2 00002354 00000001     H   15340 15194B
 $$$359B       1 000022E0 00000001     X   15140 15147U
 $$$360F       2 00002306 00000001     H   15209 15166B
 $$$361F       2 000022FA 00000001     H   15198 15181B
 $$$362F       2 00002312 00000001     H   15229 15220B
 $$$363F       2 00002326 00000001     H   15269 15245B
 $$$364        6 000026EA 00000001     I   15259 15251X
 $$$365        6 000026EA 00000001     I   15258 15259  15259
 $$$366F       2 00002354 00000001     H   15331 15315B
 $$$366T       2 0000234E 00000001     H   15318 15289B 15303B
 $$$369        1 00000050 00000001 A   U   15349 15346  15348
 $$$370B       1 00002370 00000001     X   15364 15371U
 $$$371B       1 00002380 00000001     X   15389 15396U
 $$$372B       1 000023A2 00000001     X   15418 15425U 15816U
 $$$373F       2 000023C0 00000001     H   15471 15456B
 $$$373T       2 000023B4 00000001     H   15459 15444B
 $$$376        6 000026F0 00000001     I   15497 15489X
1DOPT     (DOPT2025) (12:42) (15MAR04) Ordinary Symbol and Literal Cross Reference                                          Page   62
 $$$377        6 000026F0 00000001     I   15496 15497  15497
 $$$381B       1 000024AC 00000001     X   15760 15770U
 $$$383        1 00000050 00000001 A   U   15827 15824  15826
 $$$384B       1 000024E0 00000001     X   15840 15850U
 $$$42B        1 00000088 00000001     X    6635  6642U
 $$$43F        2 000000EE 00000001     H    6827  6656B  6676B  6689B  6708B
 $$$47F        2 000000D0 00000001     H    6768  6729B
 $$$48F        2 000000E4 00000001     H    6808  6784B
 $$$49         6 000009EC 00000001     I    6798  6790X
 $$$50         6 000009EC 00000001     I    6797  6798   6798
 $$$51B        1 0000010C 00000001     X    6847  6854U
 $$$52B        1 0000010E 00000001     X    6861  6871U
 $$$53F        2 00000148 00000001     H    6984  6885B
 $$$57F        2 00000148 00000001     H    6980  6954B
 $$$58B        1 00000174 00000001     X    7008  7015U
 $$$59B        1 00000176 00000001     X    7022  7032U
 $$$61F        2 000001C2 00000001     H    7137  7084B
 $$$61T        2 00000190 00000001     H    7087  7073B
 $$$63F        2 000001FC 00000001     H    7205  7152B
 $$$64B        1 00000260 00000001     X    7300  7307U
 $$$65F        2 0000027A 00000001     H    7359  7323B  7336B
 $$$68B        1 000002F0 00000001     X    7478  7485U
 $$$69F        2 00000314 00000001     H    7537  7498B
 $$$70B        1 0000033C 00000001     X    7564  7571U
 $$$71F        2 00000354 00000001     H    7623  7587B  7600B
 $$$86B        1 00000534 00000001     X    8012  8019U
 $$$87F        2 00000598 00000001     H    8101  8061B
 $$$88B        1 00000600 00000001     X    8170  8177U
 $$$89F        2 00000616 00000001     H    8207  8192B
 $$$90F        2 0000062A 00000001     H    8234  8219B
 $$$93B        1 000006AA 00000001     X    8312  8322U
 $$$95F        2 00000738 00000001     H    8508  8363B
 $$$96F        2 000006DA 00000001     H    8397  8387B
 $$$98F        2 0000071E 00000001     H    8467  8432B  8447B
 @RAR          0 00000000 FFFFFFF0     @    1126  2442   2450B
 @R0           0 00000000 FFFFFFFE     @     706   982U
 @R1           0 00000000 FFFFFFFD     @     719   978U  2448   2449   6673   6686   6705   6715   6797   6902   6915
                                                  6934   6953   7335   7385   7599   7649   9825   9861   9898  10073
                                                 10075  10530  10543  10636  10786  10845M 10915  10945  10954  11069
                                                 11154  11167  11187  11357  11411  11835  11841  11941  11947  12349
                                                 12575  12577  12876  13585U 14061  14143  15084  15258  15496  15856
                                                 15860
 @R10          0 00000000 FFFFFFF4     @     836   942U
 @R11          0 00000000 FFFFFFF3     @     849   938U
 @R12          0 00000000 FFFFFFF2     @     862   934U
 @R13          0 00000000 FFFFFFF1     @     875   930U  6627M  6839M  7000M  7292M  7470M  7556M  8004M  8162M  8304M
                                                  8452M  8463   8775M  8868M  8955M  9030M  9264M  9316M  9396M  9657M
                                                 10023M 10091  10305  10348M 10387M 11115  14185M 14246M 14428M 15410M
                                                 15478M 15478  15496M 15504  15505  15506  15507  15832M
 @R14          0 00000000 FFFFFFF0     @     888   926U  9134U  9194U  9254U  9379U  9391U 10845
 @R15          0 00000000 FFFFFFEF     @     901   922U 11036M 12400  12438  12451  12470  12492  12495  12673M 13018
                                                 13101  13104  15271  15381U 15405U
 @R2           0 00000000 FFFFFFFC     @     732   974U 11767  11769  11771  12540  12542  12556  14481U
 @R3           0 00000000 FFFFFFFB     @     745   970U
 @R4           0 00000000 FFFFFFFA     @     758   966U 10909  11056  11216  11241  11310  11440  11456  11477  11490
                                                 11518  11649  11724  11744  12049  12062  12625  12638  12651  12673
                                                 13019
 @R5           0 00000000 FFFFFFF9     @     771   962U  8248M  8273   8274   8345M  8475
 @R6           0 00000000 FFFFFFF8     @     784   958U  7070   7083   7110   7119   7132   7151   7178   7187   7200
1DOPT     (DOPT2025) (12:42) (15MAR04) Ordinary Symbol and Literal Cross Reference                                          Page   63
                                                 10080  10082  14480  14584
 @R7           0 00000000 FFFFFFF7     @     797   954U  6835U  6868U  6996U  7029U  7288U  7464U  7552U  7728U  8110U
                                                  8319U  8337U  8790U  8863U  8950U  9045U  9098U  9312U  9364U  9634U
                                                 10038U 10055U 10225U 10313U 10379U 13118U 14166U 14239U 14411U 14606U
                                                 14973U 15102U 15338U 15767U 15813U 15847U 15940U
 @R8           0 00000000 FFFFFFF6     @     810   950U  6985M  8025M  8039   8102   8510M 10365M 10368  15854M 15929
 @R9           0 00000000 FFFFFFF5     @     823   946U
 ABSCENT       1 00000000 00000000 A   T    2458  2458
 ACCTPRT       1 0000002D 00000001     R    6608  6589  16085
 ACCTPRTC      1 00000029 00000001     X    6606  6589
 ACCTPRTL      1 00000017 00000001     X    6592  6589
 ACCTPRTN      1 00000020 00000001     X    6599  6589
 ADDER         1 00000000 0000000F     T    9994  9994  10332
 ASCII         2 00002456 00000001     H   15646 16036
 ASCTBL        1 00000000 00000000 A   T    2466  2466
 BGOOD         2 0000181E 00000001     I   12600 16003
 BLKLOOP       4 00001A10 00000001     I   13101 13105B
 BLNKTOK       1 00000000 00000008     T    8693  8693  10330
 BLTBL         1 00000000 00000000 A   T    2468  2468
 BR            7 00000007 00000001 A   #    1016  6632M  6642U  6844M  6854U  7005M  7015U  7297M  7307U  7475M  7485U
                                                  7561M  7571U  8009M  8019U  8167M  8177U  8309M  8322U  8780M  8793U
                                                  8873M  8883U  8960M  8970U  9035M  9048U  9269M  9279U  9321M  9331U
                                                  9401M  9411U  9662M  9672U 10028M 10041U 10353M 10363U 10392M 10402U
                                                 13217M 14190M 14200U 14251M 14261U 14433M 14443U 14667M 15012M 15135M
                                                 15415M 15425U 15755M 15837M 15850U
 CARDA         4 00002418 00000001     I   15562 16018
 CASEPRT       1 0000042C 00000001     R    7790  7732
 CHARCHKA      1 00000000 00000005     T    8686  8686
 CHECKIOB      1 00000000 00000000 A   T    2514  2514
 CLRPRT        1 00000795 00000001     R    8587  8568   8585
 CLRTEXT       1 00000000 00000009     T    8698  8698
 CLSCRPRT      1 00000791 00000001     X    8584  8582
 COLBASE       2 00000600 00000001     H    8180  8340U  8696
 COLBY         2 00000744 00000001     H    8515  8566
 COLLINE       2 0000067E 00000001     H    8291  8257
 COLLN         1 00000764 00000001     X    8561  8266
 COLLPRT       1 000005D2 00000001     R    8153  8113
 COLONLY       4 00000658 00000001     I    8271  8563   8694
 COLOPTS       1 0000076C 00000001     R    8566  8415
 COLRES        2 000006EE 00000001     H    8422  8570   8697
 COLRSTR       6 00000668 00000001     I    8274  8301B  8492B  8500B  8511B
 COLSPRT       1 000004FA 00000001     R    7993  7988
 COLSPRT2      1 00000562 00000001     R    8047  8034
 COMMAND       1 00000000 00000000 A   T    2454  2454
 COMMSEG       1 00000000 00000000 A   T    2455  2455
 CP         4096 00000000 FFFFFFEB     J    6468  1443U
 CP#XSTK       1 00000010 FFFFFFEB A   U    4200  4201
 CPACFLG       1 000005D5 FFFFFFEB     R    4303  4307   4312   4317   4322   4327
 CPACFLN       4 000005C4 FFFFFFEB     F    4295  4330   4330
 CPACLNO       4 000005A8 FFFFFFEB     F    4257  8272M  8973   9449
 CPAFLAG       1 000005C3 FFFFFFEB     R    4267  4271   4276   4281   4286
 CPAFLNO       4 000005A0 FFFFFFEB     F    4255  8795
 CPAFNAME    128 0000062C FFFFFFEB     C    4341 12297  12373  12389  12838
 CPAFNAMEL
               4 00000628 FFFFFFEB     F    4340 12150  12302  12378  12843
 CPAHOST     128 000006B0 FFFFFFEB     C    4343 12266
 CPAHOSTL      4 000006AC FFFFFFEB     F    4342 12205
 CPALLNO       4 000005A4 FFFFFFEB     F    4256  8885
 CPANAME       8 00000588 FFFFFFEB     C    4249  4345   4345
1DOPT     (DOPT2025) (12:42) (15MAR04) Ordinary Symbol and Literal Cross Reference                                          Page   64
 CPAUTFLG      1 000008A9 FFFFFFEB     R    4613  4617   4622   4627   4632
 CPAUTHGP      2 000008A7 FFFFFFEB     C    4609 14399
 CPAUTHUS      3 000008A4 FFFFFFEB     C    4608 14401
 CPBLKACT      4 00000748 FFFFFFEB     F    4359  9152M  9152   9212M  9212
 CPCACCT       5 00000C48 FFFFFFEB     C    5278  7487  15398M
 CPCGRP        2 00000C4B FFFFFFEB     C    5280  7110M  7200M  7649M 11917M 11941M 13719M 13719  13726
 CPCHFLAG      1 00000B68 FFFFFFEB     R    5240  5244
 CPCMNM        3 00000D24 FFFFFFEB     C    5566 13087  15688  15719
 CPCUSER       3 00000C48 FFFFFFEB     C    5279  7132M  7178M  7385M 11811M 11835M 13741M 13741  13748
 CPDELTA       4 00000738 FFFFFFEB     F    4352  9482  10084  10194
 CPDFLG        1 0000084C FFFFFFEB     R    4500  4504   4509   4514   4519   4524
 CPDFLG2       1 0000084D FFFFFFEB     R    4529  4533   4538   4543   4548   4553   4558
 CPDMPDLT      4 00000C6C FFFFFFEB     F    5291  8531M
 CPDMPLST      4 00000C68 FFFFFFEB     F    5290  8271M  8296M  8543   8553M
 CPDRPT        4 00000D84 FFFFFFEB     F    5928  9467
 CPDSNWA       4 00000E5C FFFFFFEB     F    6105 10466M 10466  10467M 10467
 CPERRID       8 00000886 FFFFFFEB     C    4599  6965M  7234M  7271M  7419M  7453M  7683M  7717M  8092M 10608M 10616M
                                                 10657M 11576M 11859M 11891M 11965M 11997M 12086M 12120M 12171M 12179M
                                                 12926M 12934M 13881M 13954M
 CPEXABRT      4 00000898 FFFFFFEB     F    4602  9334
 CPEXATTN      4 0000089C FFFFFFEB     F    4603  9282
 CPEXFLG       1 00000758 FFFFFFEB     R    4369  4373
 CPEXFLG2      1 00000759 FFFFFFEB     R    4379  4388   4398
 CPEXFLG3      1 0000075A FFFFFFEB     R    4405  4409   4414
 CPEXLINE      4 0000075C FFFFFFEB     F    4422  9010   9453
 CPEXTFLG      1 00000E28 FFFFFFEB     R    6051  6055   6060   6065   6070   6075   6080
 CPFABORT    128 00000D5A FFFFFFEB         5817  2418M  2418   2423M  2423
 CPFAUSET      1 00000040 FFFFFFEB A   U    3866 14397
 CPFBKLNO      4 0000074C FFFFFFEB     F    4360  9139
 CPFCASE      32 00000D57 FFFFFFEB         5757  7947   7947   7948M  7957M
 CPFCLEAR     16 00000D55 FFFFFFEB         5697  8385   8385   8386   8445   8445   8446   8619M  8642M
 CPFCOL        2 00000C4E FFFFFFEB     H    5282  8023M  8060
 CPFDSNBD      8 00000D5C FFFFFFEB         5872 13065M 13887M 15191M
 CPFDSNMS      1 00000020 FFFFFFEB A   U    5593 13030  13096
 CPFDSNNE     16 00000D5C FFFFFFEB         5867 10602  10651  10986  11096  11853  11959  12080  12165  12706  12761
                                                 12920  12977  13043  13875  15180
 CPFDSN1       1 00000002 FFFFFFEB A   U    5585 10412  10455
 CPFDUMP     128 00000D55 FFFFFFEB         5682  8240M  8362
 CPFERROR     64 00000D5A FFFFFFEB         5822  2417M  2417   2422M  2422  10234M
 CPFEXEC     128 00000758 FFFFFFEB         4373  9684  11692  14366
 CPFFOPT       1 00000010 FFFFFFEB A   U    5672  7843   7854   7875   7897   7920   7933   7936  15853
 CPFGEN        4 00000D58 FFFFFFEB         5797 12686M 13839  14279
 CPFHIGH       1 00000040 FFFFFFEB A   U    5931  9467
 CPFINT       16 00000D58 FFFFFFEB         5787  8133M
 CPFKEEP       8 00000D55 FFFFFFEB         5702  8385   8385   8445   8445   8626M  8635M
 CPFKWENT      1 00000080 FFFFFFEB A   U    3852 14330
 CPFNEWED    128 00000E28 FFFFFFEB         6055 15525M 15542M
 CPFNLST       1 00000020 FFFFFFEB A   U    5671  7827   7837   7842
 CPFNOCUR      1 00000002 FFFFFFEB A   U    5659  9013   9479
 CPFNOINC      1 00000001 FFFFFFEB A   U    5661 10101
 CPFNONUM      1 000000C0 FFFFFFEB A   U    5670  7842   7851   7865   7886   7908   7935  15852
 CPFNTEX       1 00000040 FFFFFFEB A   U    5669  5670   7843
 CPFNTYT       1 00000080 FFFFFFEB A   U    5930  9467
 CPFNWARN      4 00000D55 FFFFFFEB         5707  8651M  8661M
 CPFQUIET     64 00000D55 FFFFFFEB         5687  8149M
 CPFRDEXE      2 00000D89 FFFFFFEB         5995  8820   8910   9001   9077   9440   9533   9757M
 CPFRDEXT      3 00000D89 FFFFFFEB         6005  8808   8843   8898   8930   8983   9059   9422   9545
 CPFRDRNG      1 00000D88 FFFFFFEB     R    5937  5941   5946   5951   5956   5961   5966   5971
 CPFRDSRC      1 00000D89 FFFFFFEB     R    5976  5985   5995   6005   9744   9751M  9773M
1DOPT     (DOPT2025) (12:42) (15MAR04) Ordinary Symbol and Literal Cross Reference                                          Page   65
 CPFRTNER      1 00000040 FFFFFFEB A   U    5513  8253   8350   8403  10244  10301
 CPFSBLK       1 00000080 FFFFFFEB A   U    5512  8280
 CPFSCRTC      1 00000040 FFFFFFEB A   U    5592  8608
 CPFSET        1 00000080 FFFFFFEB A   U    5623 15353  15356
 CPFUNUM       1 00000080 FFFFFFEB A   U    5668  5670   7872
 CPFUPPER     16 00000D57 FFFFFFEB         5762  7947   7947   7962M
 CPFVER       32 00000D58 FFFFFFEB         5782  7975M  7985M
 CPFXDFLG      1 000007E4 FFFFFFEB     R    4447  4451   4456
 CPFXOLD       2 00000759 FFFFFFEB         4398  9738
 CPFXTEND      1 00000759 FFFFFFEB         4388  9799
 CPGFLG1       1 00000474 FFFFFFEB     R    3810  3814   3819   3824   3829   3834   4164   4164
 CPGFLG10      1 0000047D FFFFFFEB     R    4047  4051   4056   4061   4066   4071   4076
 CPGFLG11      1 0000047E FFFFFFEB     R    4082  4086   4091
 CPGFLG12      1 0000047F FFFFFFEB     R    4097  4101   4106   4111
 CPGFLG13      1 00000480 FFFFFFEB     R    4117  4121
 CPGFLG14      1 00000481 FFFFFFEB     R    4127  4131   4136   4141   4146   4151
 CPGFLG3       1 00000476 FFFFFFEB     R    3850 14330
 CPGFLG4       1 00000477 FFFFFFEB     R    3863  3874   3883   3892   3901   3910  14397
 CPGFLG5       1 00000478 FFFFFFEB     R    3916  3920   3925   3930   3935   3940   3945   3950   3955
 CPGFLG6       1 00000479 FFFFFFEB     R    3961  3965   3970   3975
 CPGFLG7       1 0000047A FFFFFFEB     R    3981  3985   3990   3995   4000
 CPGFLG8       1 0000047B FFFFFFEB     R    4006  4010   4015   4020   4025
 CPGFLG9       1 0000047C FFFFFFEB     R    4031  4035   4041
 CPGRPSV       2 000001BB FFFFFFEB     C    2988 11662  14332
 CPHOST       32 000001BD FFFFFFEB     C    2990 11550M 11550  11588  11588
 CPINIT        1 00000174 FFFFFFEB     U    2980  6437
 CPJESFLG      1 000009E1 FFFFFFEB     R    4712  4716   4721   4726   4731   4736   4741   4746   4751
 CPJESFLY      1 000009FD FFFFFFEB     R    4762  4766   4771   4776
 CPJESHFL      1 000009E0 FFFFFFEB     R    4697  4701   4706   4785   4785
 CPLBKLNO      4 00000750 FFFFFFEB     F    4361  9199
 CPLCNO        4 0000073C FFFFFFEB     F    4354  9462M  9464   9469   9520   9521M  9590   9619
 CPLCOL        2 00000C50 FFFFFFEB     H    5283  8024M  8052M
 CPLCOLXP    128 00000D57 FFFFFFEB         5747  8295M
 CPLFLG1       1 00000D50 FFFFFFEB     R    5580 10414  10457M
 CPLFLG10      1 00000D59 FFFFFFEB     R    5803  5807
 CPLFLG11      1 00000D5A FFFFFFEB     R    5813  5817   5822   5827   5832
 CPLFLG12      1 00000D5B FFFFFFEB     R    5838  5842
 CPLFLG14      1 00000D5C FFFFFFEB     R    5848  5852   5857   5862   5867   5872
 CPLFLG2       1 00000D51 FFFFFFEB     R    5590  8610M 13030  13096
 CPLFLG3       1 00000D52 FFFFFFEB     R    5621 15353M 15356M
 CPLFLG4       1 00000D53 FFFFFFEB     R    5646  9013   9479  10101
 CPLFLG5       1 00000D54 FFFFFFEB     R    5665  7829M  7839M  7842M  7843M  7856M  7867M  7877M  7888M  7899M  7910M
                                                  7922M  7932M  7933   7935M  7936M 15852M 15853M
 CPLFLG6       1 00000D55 FFFFFFEB     R    5678  5682   5687   5692   5697   5702   5707
 CPLFLG7       1 00000D56 FFFFFFEB     R    5713  5717   5722   5727   5732   5737
 CPLFLG8       1 00000D57 FFFFFFEB     R    5743  5747   5752   5757   5762
 CPLFLG9       1 00000D58 FFFFFFEB     R    5768  5772   5777   5782   5787   5792   5797
 CPLIB         8 000008AB FFFFFFEB     C    4671 13098  13098  14226
 CPLLEN        2 00000C52 FFFFFFEB     H    5285  7966M
 CPLOCALZ      1 00000C48 FFFFFFEB     U    5270  6431   6431
 CPLRCL        4 00000D9C FFFFFFEB     F    6012 10459M 15516M 15532M 15532  15549M 15549  15559M 15559  15563M 15567M
 CPMFLG        1 0000084F FFFFFFEB     R    4567  4571
 CPMODFLG      1 00000C78 FFFFFFEB     R    5298  5302   5307   5312   5317   5322
 CPNAMELN      1 00000010 FFFFFFEB A   U    4193  4440
 CPNEDPFX     10 00000E29 FFFFFFEB     X    6084  6085   6086
 CPNFINT       1 00000008 FFFFFFEB A   U    5673  7930
 CPNFRNUM      8 00000C79 FFFFFFEB         5340  7894M  7915M
 CPNUMFLG      1 00000C79 FFFFFFEB     R    5328  5340
 CPOFNCHG      4 00000149 FFFFFFEB         2942  8218
1DOPT     (DOPT2025) (12:42) (15MAR04) Ordinary Symbol and Literal Cross Reference                                          Page   66
 CPORVCMD      1 00000140 FFFFFFEB     R    2862  2866   2871   2876   2881   2886   2891   2896   2901   2906   2906
                                                  2957   2957
 CPORVFLG      1 00000149 FFFFFFEB     R    2913  2917   2922   2927   2932   2937   2942   2947   2952
 CPORVWF       1 00000150 FFFFFFEB     R    2965  2969
 CPOSCAN     124 00000CA8 FFFFFFEB     X    5564  8008   8025   8025   8039M  8102   8102M  8247   8248   8248   8273M
                                                  8274   8274M  8344   8345   8345   8369M  8452   8452   8455   8463M
                                                  8499M  8704  10352  10365  10365  10368  10368M 11035  11036  11036
                                                 11115M 13165  15836  15854  15854  15929M
 CPOSCANX      4 00000CA8 FFFFFFEB     F    5497  5564   5564
 CPPACCT       5 000007F8 FFFFFFEB     C    4470 11677M 11677  14351M 14351
 CPPGRP        2 000007FB FFFFFFEB     C    4472 11701  14375
 CPPUSER       3 000007F8 FFFFFFEB     C    4471 11702  14390
 CPR          11 0000000B 00000001 A   #    1080  1443U
 CPRACBAD     16 000001FC FFFFFFEB         3031  3065   3065   3066   3066
 CPRACF1       1 000001FC FFFFFFEB     R    3012  3016   3021   3026   3031   3036   3041   3046   3051   3067
 CPRACPSW     32 000001FC FFFFFFEB         3026  3064   3064   3066   3066
 CPRACUND     64 000001FC FFFFFFEB         3021  3064   3064   3065   3065
 CPRCVCUR      4 00000730 FFFFFFEB     A    4348  4350   4350
 CPRETURN      4 00000764 FFFFFFEB     F    4424  9259
 CPRFLG        1 000008AA FFFFFFEB     R    4638  4642   4647   4652   4657   4662   4667
 CPS         254 00000344 FFFFFFEB     X    3782  3785   3786   3788   3788
 CPSACCT       5 000003B4 FFFFFFEB     C    3381  3544   3544   8191M  8191
 CPSAMCOD      1 00000A22 FFFFFFEB     R    4834  4842   4852   4862   4871   4880   4889   4899   4908   4917
 CPSAMFLG      1 00000A21 FFFFFFEB     R    4794  4798   4803   4808   4813   4818   4823   4828   4939   4939
 CPSAVE        4 00000C9C FFFFFFEB     A    5491 10070  10072  10079  10153  10674M 12573  15855
 CPSCANBK      6 00000CC0 FFFFFFEB     X    5504  8369   8499
 CPSCNERT      4 00000CC8 FFFFFFEB     A    5505  8256M  8406M 10293
 CPSCNFLG      1 00000CD0 FFFFFFEB     R    5510  5521   5530   5541   8255M  8282M  8352M  8405M 10246  10303M
 CPSCNF2       1 00000CD1 FFFFFFEB     R    5546  5550
 CPSCNLOC      4 00000CA8 FFFFFFEB     F    5498  8475
 CPSCNMAX      1 00000014 FFFFFFEB A   U    5562  5563
 CPSCRI        2 00000434 FFFFFFEB     H    3771  3776   3776
 CPSEG        60 00000050 FFFFFFEB     X    2851  6753   7227   7264   7412   7446   7522   7676   7710   8085   9505
                                                  9703  10176  10288  11008  11569  11884  11990  12113  12736  12790
                                                 13005  13290  13672  13917
 CPSEGCOD      1 00000050 FFFFFFEB     R    2768  2777   2787   2797   2807   2817   2827   2837
 CPSEQFLD      2 00000DA0 FFFFFFEB     H    6013 10458M 15893M 15898M
 CPSEQLN       2 00000DA2 FFFFFFEB     H    6014 15917M
 CPSFL         1 00000384 FFFFFFEB     R    3119  3123   3128   3133   3138   3143
 CPSFLG        1 000003F8 FFFFFFEB     R    3659  3663   3668   3673   3678   3683   3688   3693   3698
 CPSFLG2       1 000003F9 FFFFFFEB     R    3704  3708   3713   3718
 CPSFL2        1 00000385 FFFFFFEB     R    3149  3153   3158   3163   3168
 CPSFL3        1 00000386 FFFFFFEB     R    3174  3178   3183   3188
 CPSFL4        1 00000387 FFFFFFEB     R    3194  3198   3203   3208
 CPSFL5        1 00000388 FFFFFFEB     R    3214  3218   3223   3228
 CPSFSAM      64 000003EA FFFFFFEB         3565 13356
 CPSFSPR      32 000003BE FFFFFFEB         3484 15788
 CPSGRP        2 000003B7 FFFFFFEB     C    3383  7614   7619  11917  14317
 CPSKAFL       1 000003BF FFFFFFEB     R    3515  3519   3524   3529   3534   3539
 CPSKIFL       1 000003BE FFFFFFEB     R    3470  3474   3479   3484   3489   3494   3499   3504   3509
 CPSOF         1 000001F8 FFFFFFEB     X    3002  3004   3004
 CPSOFLAG      1 00000416 FFFFFFEB     R    3729  3733   3738   3743   3748   3753
 CPSOPST       4 000003C4 FFFFFFEB     F    3549  3778   3778
 CPSPORT       8 00000354 FFFFFFEB     C    3113  3233   3233
 CPSPROJ       8 000003F0 FFFFFFEB     C    3655  6769M  6797M  8682
 CPSQFLG       1 000003EC FFFFFFEB     R    3578  3582
 CPSSFLG       1 000003BB FFFFFFEB     R    3388  3392   3397   3402   3407   3412   3417
 CPSSTART      4 00000344 FFFFFFEB     F    3105  3109   3109   3545   3545   3650   3650   3782   3782
 CPSSTAT       1 0000038F FFFFFFEB     R    3325  3329   3334   3339   3344   3349   3354   3359
1DOPT     (DOPT2025) (12:42) (15MAR04) Ordinary Symbol and Literal Cross Reference                                          Page   67
 CPSTACF       1 000003BC FFFFFFEB     R    3423  3427   3432   3437   3442   3447   3452   3457   3462
 CPSTART       4 00000000 FFFFFFEB     C    2741  6435   6439
 CPSTFLAG      1 000003EA FFFFFFEB     R    3556  3560   3565   3570
 CPSTYPE       1 0000038C FFFFFFEB     R    3238  3247   3257   3267   3277   3287   3297   3307   3317
 CPSUFLG       1 000003EE FFFFFFEB     R    3593  3597   3602   3607   3612   3617   3622   3627   3632
 CPSUFLG2      1 000003EF FFFFFFEB     R    3638  3642   3647
 CPSUSER       3 000003B4 FFFFFFEB     C    3382  7350   7355  11811  14319
 CPSVPGM       8 0000039C FFFFFFEB     C    3371  3377   3377
 CPS1ST        4 0000038C FFFFFFEB     F    3235  3780   3780
 CPTEMPP#      1 0000005F FFFFFFEB A   U    4688  4690
 CPTRMFL1      1 00000C7A FFFFFFEB     R    5346  5350   5355   5360   5484   5484
 CPTRMFL2      1 00000C7B FFFFFFEB     R    5366  5370   5375   5380   5385   5390   5395
 CPTRMFL3      1 00000C7C FFFFFFEB     R    5401  5405   5410   5415   5420   5425   5430   5435
 CPTRMFL4      1 00000C7D FFFFFFEB     R    5441  5445   5450   5455   5460   5465   5470   5475
 CPUSED        1 00000FBC FFFFFFEB A   U    6435  6436
 CPUSERSV      3 000001B8 FFFFFFEB     C    2987 11664  14334
 CPVACURS      8 00000AF0 FFFFFFEB     D    5213  5214   5215
 CPVCURS       8 00000AE0 FFFFFFEB     D    5207  5208   5209
 CPVFHIDE      8 00000AC8 FFFFFFEB         5032  9164   9224
 CPVFLAG       1 00000AC8 FFFFFFEB     R    5008  5012   5017   5022   5027   5032
 CPVFLAG2      1 00000AC9 FFFFFFEB     R    5038  5042   5047   5052   5057   5062   5067
 CPVFLAG3      1 00000ACA FFFFFFEB     R    5073  5077   5082   5087   5092   5097   5102
 CPVFLAG4      1 00000ACB FFFFFFEB     R    5108  5112   5117   5122
 CPVLFLAG      1 00000ACE FFFFFFEB     R    5177  5181   5186   5191
 CPVMODE       1 00000ACC FFFFFFEB     R    5130  5134   5139   5144   5149   5154   5159   5164   5169
 CPVTWID       2 00000AD0 FFFFFFEB     H    5197  5200   5200
 CPWK1         4 00000D60 FFFFFFEB     F    5881  5896   5919
 CPWK2         4 00000D64 FFFFFFEB     F    5882  5897   5911
 CPWK3         4 00000D68 FFFFFFEB     F    5883  5898   5912
 CPWK4         4 00000D6C FFFFFFEB     F    5884  5899   5913
 CPWK5         4 00000D70 FFFFFFEB     F    5885  5901   5906   5914
 CPWK6         4 00000D74 FFFFFFEB     F    5886  5902   5907   5915   5922   5924
 CPWK7         4 00000D78 FFFFFFEB     F    5887  5900   5916
 CPXFLAG       1 000007FD FFFFFFEB     R    4475  4479
 CPXSTATE      4 000007F8 FFFFFFEB     F    4469  4482   4482
 CURRMIN       4 00000B3E 00000001     I    9021  9014B
 CURRTST       2 00000B24 00000001     I    9011  9004B
 CV         4016 00000000 FFFFFFED     J    2644  1452U
 CVABSENT      4 000007F0 FFFFFFED     I    2433  9770B 10144B
 CVABSRTN      4 0000088C FFFFFFED     V    2458  2433
 CVABTMSG      4 000007CC FFFFFFED     I    2418  8203B  8230B 10249B 11027B 11111B 11581B 13016B 13965B
 CVBLANKS    235 000004D8 FFFFFFED     C    2238  6769  10759  11283  11334  11383  11587  12239  12321  12804  12849
                                                 12944  13634  14116  15056  15230  15374
 CVBRMSK       1 00000751 FFFFFFED     X    2374  2375   2376
 CVCFLAG       1 00000A00 FFFFFFED     R    2539  2543   2548   2553   2558   2563
 CVCHKST       8 000009F0 FFFFFFED     D    2529  2619   2619
 CVCHKST2      8 00000E28 FFFFFFED     D    2622  2625   2625
 CVCOMRTN      4 0000087C FFFFFFED     V    2454  2424
 CVDBGFLG      1 000004CC FFFFFFED     R    2228  2232
 CVENT         4 0000074C FFFFFFED     I    2372  6632B  6844B  7005B  7297B  7475B  7561B  8009B  8167B  8309B  8780B
                                                  8873B  8960B  9035B  9269B  9321B  9401B  9662B 10028B 10353B 10392B
                                                 13217B 14190B 14251B 14433B 14667B 15012B 15135B 15415B 15755B 15837B
 CVENTBR       2 00000750 FFFFFFED     I    2373  2374
 CVERRMSG      4 000007C8 FFFFFFED     I    2417  6764B  6976B  7239B  7276B  7424B  7458B  7533B  7688B  7722B  8097B
                                                  9714B 10621B 10669B 11896B 12002B 12125B 12184B 12747B 12801B 12939B
                                                 13058B 13301B 13683B 15205B 15467B
 CVERROR       4 000007D6 FFFFFFED     I    2422  2438B
 CVEXIRTN      4 0000077C FFFFFFED     V    2402  2398
 CVFCHRKBPR
1DOPT     (DOPT2025) (12:42) (15MAR04) Ordinary Symbol and Literal Cross Reference                                          Page   68
               8 000004C9 FFFFFFED         2143  2159   2159
 CVFCHRKBSE
               4 000004C9 FFFFFFED         2148  2159   2159
 CVFCHRKCPR
               2 000004C9 FFFFFFED         2165  2181   2181
 CVFCHRKCSE
               1 000004C9 FFFFFFED         2170  2181   2181
 CVFCHRUBPR
             128 000004C9 FFFFFFED         2099  2115   2115
 CVFCHRUBSE
              64 000004C9 FFFFFFED         2104  2115   2115
 CVFCHRUCPR
              32 000004C9 FFFFFFED         2121  2137   2137
 CVFCHRUCSE
              16 000004C9 FFFFFFED         2126  2137   2137
 CVFL          1 000004C4 FFFFFFED     R    1895  1899   1904   1909   1914   1919   1924   1929   1934
 CVFL2         1 000004C5 FFFFFFED     R    1940  1944   1949   1954   1959   1964   1969   1974   1979
 CVFL3         1 000004C6 FFFFFFED     R    1985  1989   1994   1999   2004   2009   2014   2019   2024
 CVFL4         1 000004C7 FFFFFFED     R    2030  2034   2039   2044   2049   2054   2059   2064
 CVFL5         1 000004C8 FFFFFFED     R    2070  2074   2079   2084   2089
 CVFL6         1 000004C9 FFFFFFED     R    2095  2099   2104   2116   2121   2126   2138   2143   2148   2160   2165
                                                  2170   2182
 CVHEAP#       1 00000200 FFFFFFED A   U    1801  1802
 CVINVRTN      4 00000888 FFFFFFED     V    2457  2427
 CVJESFLG      1 000004CA FFFFFFED     R    2188  2192
 CVLNKRGS      4 00000780 FFFFFFED     F    2404  2379M  2405
 CVLNKRTN      4 000007B0 FFFFFFED     U    2405  2394M
 CVLOCK1       1 00000088 FFFFFFED     R    1546  1550   1555
 CVLOCK2       1 00000089 FFFFFFED     R    1560  1564
 CVLOCK3       1 0000008A FFFFFFED     R    1569  1573
 CVLOCK4       1 0000008B FFFFFFED     R    1578  1582
 CVLOGMOD      1 00000068 FFFFFFED     R    1533  1537
 CVMACH        1 00000067 FFFFFFED     R    1493  1497   1502   1507   1512   1517   1522   1527
 CVMAXLNO      4 0000015C FFFFFFED     A    1687  8920
 CVMILRTN      4 00000884 FFFFFFED     V    2456  2436
 CVNOARTN      4 00000890 FFFFFFED     V    2459  2430
 CVNVALID      4 000007E4 FFFFFFED     I    2427  8525B  8986B  9062B  9080B  9090B  9425B 15691B 15722B 15791B 15859B
                                                 15897B 15916B 15928B
 CVNWDATE      4 00000608 FFFFFFED     F    2261  2265   2265
 CVNWMPG#      1 00000008 FFFFFFED A   U    2263  2264
 CVPFXRTN      1 00000000 00000000 A   T    2402  2402
 CVPGFLAG      1 00000A01 FFFFFFED     R    2569  2573   2578   2583
 CVPIOSZ       1 00004F80 FFFFFFED A   U    1632  1634
 CVPPDBQH      4 0000009C FFFFFFED     A    1590  1591
 CVPSFNO       1 000003E9 FFFFFFED A   N    1754  1756
 CVPSLNO       1 000007CF FFFFFFED A   N    1755  1756
 CVPXSZ        1 00000008 FFFFFFED A   U    1633  1634
 CVR          12 0000000C 00000001 A   #    1093  1452U
 CVRKEY        1 00000008 FFFFFFED A   U    2327  2328
 CVSEGRTN      4 00000880 FFFFFFED     V    2455  2419
 CVSTACK#      1 00000080 FFFFFFED A   U    1793  1794
 CVSTART       4 00000000 FFFFFFED     C    1466  2637
 CVTRC         4 00000768 FFFFFFED     I    2394  2380B
 CVTRCRTN      4 00000778 FFFFFFED     V    2401  2395
 CVUPPTBL      4 000008A8 FFFFFFED     V    2464 10819  15270
 CVUSFNO       1 00000001 FFFFFFED A   N    1761  1763
 CVUSLNO       1 000003E7 FFFFFFED A   N    1762  1763
 CVVOL#        1 00000005 FFFFFFED A   U    2612  2613
 CVWTOFLG      1 000004CB FFFFFFED     R    2198  2202   2207   2212   2217   2222
1DOPT     (DOPT2025) (12:42) (15MAR04) Ordinary Symbol and Literal Cross Reference                                          Page   69
 DEBUGSG       1 00000000 00000000 A   T    2355  2355
 DELTACAL      2 00000F82 00000001     I   10077 10069B 10102B 10152B
 DELTAINC      4 00001036 00000001     I   10194 10217
 DELTALP       4 00000F8C 00000001     I   10080 10083B
 DELTAPER      4 00000FB0 00000001     I   10094 10081B
 DELTATBL      1 00000FBE 00000001     G   10099 10094
 DELTAUSE      4 00000F9C 00000001     I   10084 10078B 10097B 10121B
 DEQUOTE       1 00000000 0000001B     T   13146 13146
 DEV          12 00000000 FFFFFFEA     J    4993  5001  13534U
 DEVCONT       4 00001340 00000001     I   11114 12959B 12962B 12965B
 DEVDISK       4 00001966 00000001     I   12958 12948
 DEVMAX#       1 00000002 FFFFFFEB A   U    4944  5001
 DEVMICRO      4 0000196E 00000001     I   12961 12950  12952
 DEVNET        4 00001976 00000001     I   12964 12954
 DEVPRT        1 0000193C 00000001     R   12948 11082
 DEVTNET       2 00000001 FFFFFFEA         4980 13568
 DEVTSAM       1 00000001 FFFFFFEA         4970 13547
 DEVTYPE       1 00000001 FFFFFFEA     R    4961  4970   4980
 DFINEXT       4 00001D4E 00000001     I   13500 13416B 13456B
 DMORE         2 00001408 00000001     I   11424 11405B
 DODSNGSV      4 00001FA0 00000001     I   14330 14318B 14322B
 DODSNNS       2 00001F28 00000001     I   14230 14214B 14216B 14218B 14221B 14225B 14227B
 DODSNOR       2 000014FC 00000001     I   11711 11785B
 DODSNSA       2 00001FCA 00000001     H   14342 14331B 14333B
 DODSNSMY      4 00001F90 00000001     I   14323 14320B 14335B 14337B 14391B 14402B 14404B
 DODSNSX       2 00001F94 00000001     I   14325 14316B 14338B 14398B 14400B 14405B
 DOERREX       2 000019D0 00000001     H   13061 10609B 10658B 10989B 11099B 11860B 11966B 12087B 12172B 12709B 12764B
                                                 12927B 12980B 13046B
 DOLGO         4 000019D8 00000001     I   13067 13031B 13033B
 DOLGO2        2 00001A24 00000001     I   13106 13072B 13074B 13097B 13102B
 DOPT2025      1 00000000 00000001     R    1139  1137
 DOTTBL        1 00000000 00000000 A   T    2471  2471
 DRENCFLG      1 00000F9F FFFFFFEB     R    6399  6403   6408   6413   6418   6423
 DRENPROT      1 00000F9E FFFFFFEB     R    6386  6394
 DSCNEXIT      2 00001A2A 00000001     I   13109 11399B 13066B
 DSNCHK        4 0000201A 00000001     I   14428 13849B 14286B
 DSNCHKX       2 000020A4 00000001     I   14596 14555B 14592B
 DSNCHR        1 000020B2 00000001     X   14618 14486  14619  14621  14623  14625  14627  14629  14631  14633
 DSNCODE       4 00000F5C FFFFFFEB     F    6352 15509M
 DSNDDISK      1 00000001 FFFFFFEB A   U    6333 12958  13326  13612  13773  14038
 DSNDNET       1 00000003 FFFFFFEB A   U    6335 12964  13484  13575
 DSNDONE       4 000019AE 00000001     I   13030 12578B 12585B 12597B 12687B 12945B
 DSNDSAM       1 00000002 FFFFFFEB A   U    6334 12961  13415  13455  13554
 DSNDTYPE      1 00000F3B FFFFFFEB     X    6332 12958M 12961M 12964M 13317  13326M 13415M 13455M 13484M 13554M 13575M
                                                 13612  13773  14038
 DSNFASCII
              64 00000F3A FFFFFFEB         6318 13252  13252  13253  15650M 15673M
 DSNFBADN     32 00000F37 FFFFFFEB         6188 13811  14269M 14304M
 DSNFCODE     32 00000F38 FFFFFFEB         6233 15484M
 DSNFDTRAN
               4 00000F39 FFFFFFEB         6293 15640  15640  15641M
 DSNFEBCDIC
              32 00000F3A FFFFFFEB         6323 13252  13252  15657M 15666M
 DSNFMYDS      1 00000040 FFFFFFEB A   U    6136 14314  14323
 DSNFNONQ     16 00000F38 FFFFFFEB         6238 15802M
 DSNFQDSN      1 00000010 FFFFFFEB A   U    6138 10723  10810  10875  12135  13822
 DSNFSPLT     32 00000F39 FFFFFFEB         6278 15703M 15733M
 DSNFSTD       1 00000080 FFFFFFEB A   U    6135 11396  12483  13071  13701  14052  14207  14222  14315
 DSNFTABS      2 00000F39 FFFFFFEB         6298 15576M 15586M 15598  15598  15610  15610
1DOPT     (DOPT2025) (12:42) (15MAR04) Ordinary Symbol and Literal Cross Reference                                          Page   70
 DSNFTEXTONLY
             128 00000F3A FFFFFFEB         6313 15620M
 DSNFTRAN    128 00000F39 FFFFFFEB         6268 13268  15629M 15640  15640
 DSNFUFMT      1 00000F39 FFFFFFEB         6303 15598  15598  15599M 15610  15610  15611M
 DSNFWLIB      1 00000020 FFFFFFEB A   U    6137 13099  14210  14228
 DSNLONG       2 00001898 00000001     I   12749 12523B 12549B
 DSNNPASS     32 00000EE4 FFFFFFEB     C    6124 15374M
 DSNNUSER     32 00000EC4 FFFFFFEB     C    6123 15373M 15958
 DSNON        40 00000E90 FFFFFFEB     C    6119  6120  10476M 10476  11283M 11310M 11334  11347M 11347  11534M 11534
                                                 11587M 11588M 12199M 12199  12239M 12266M 13151  13338M 13338  13375
                                                 13389  13406  13435  13449  13500  13505  13628M 13628  13634  13634
                                                 13659  13664  14696  14701  14781  14795  14809  14823  14837  14851
                                                 14865  14879  14893  14907  14921  14935  14951  15056M 15084M 15230M
                                                 15258M 15271M 15286  15300  15314  15327M 15327  15971
 DSNPRT        1 000027C6 00000001     R   16059 16009
 DSNPRTF       1 000026FA 00000001     R   16012 16009
 DSNPRTON      1 00002846 00000001     R   16092 16009
 DSNRC4        4 000020A0 00000001     I   14594 14455B 14515B 14573B
 DSNWACLR      1 000000AA FFFFFFEB A   U    6126 10469
 DSNWACL2      1 00000034 FFFFFFEB A   U    6118 10421
 DSNWADSN     44 00000E5C FFFFFFEB     C    6106  6107   6108   6109   6118   6126   6357   6363   6365   6371   6374
                                                  6376   6379   6428  10420M 10421M 10421  10468M 10469M 10469  10483
                                                 11383M 13098M 13100  13726M 13748M 13790  13905  14021  14213  14215
                                                 14217  14226  14317  14319  14321  14332  14334  14336  14375  14390
                                                 14399  14401  14403  14450
 DSNWAF1       1 00000F34 FFFFFFEB     R    6133 10434M 10725M 10812  10877  11398M 12137M 12485M 13071  13099M 13703
                                                 13824  14054  14212M 14222M 14228M 14314M 14315  14323M
 DSNWAF4       1 00000F37 FFFFFFEB     R    6174  6178   6183   6188   6193   6198   6203   6208   6213
 DSNWAF5       1 00000F38 FFFFFFEB     R    6219  6223   6228   6233   6238   6243   6248   6253   6258
 DSNWAF6       1 00000F39 FFFFFFEB     R    6264  6268   6273   6278   6283   6288   6293   6298   6303
 DSNWAF7       1 00000F3A FFFFFFEB     R    6309  6313   6318   6323   6328
 DSNWAMBR      8 00000E88 FFFFFFEB     C    6117 11390M 11390  12321M 12349M 12804M 12821  12849M 12876M 12902  12944M
                                                 13019M 13029M 13029
 DSNWANL       2 00000F06 FFFFFFEB     H    6127 11382M 11382  12006M 13067M 13107M 13909  14025  14219  14453
 DSNWFILE     44 00000F08 FFFFFFEB     C    6129 10433M 10433  10759M 10786M 11601  11607  11607M 11607  11608M 11608M
                                                 13147  14007  14116M 14143M 15964
 DSNWLEN       2 00000F04 FFFFFFEB     H    6125 10428M 10428  10758M 11611  11613M 11635M 11635  13993  14114M
 DSNWRAPL      2 00000F42 FFFFFFEB     H    6342 15704M 15734M
 DSNXG         1 00000004 FFFFFFEB A   U    6111  6113  11662M 11663M 11701M 13726M 14215  14317  14332  14375  14399
 DSNXGL        1 00000003 FFFFFFEB A   U    6112  6113  11662  11663M 11701  13726  14215  14317  14332  14375  14399
 DSNXN         1 0000000B FFFFFFEB A   U    6115 11707  13098M 13100  14223  14226  15981
 DSNXU         1 00000007 FFFFFFEB A   U    6113  6115  11664M 11665M 11702M 13748M 14217  14319  14321  14334  14336
                                                 14390  14401  14403
 DSNXUL        1 00000004 FFFFFFEB A   U    6114  6115  11664  11665M 11702  13748  14217  14319  14321  14334  14336
                                                 14390  14401  14403
 DSPRTB        1 000026F6 00000001     X   16003 13160
 DSSIZ         1 00000108 FFFFFFEB A   U    6357  6365   6374   6379  10465
 DTRANS        2 00002450 00000001     H   15634 16034
 EBCDIC        2 00002460 00000001     H   15662 16038
 EBCTBL        1 00000000 00000000 A   T    2467  2467
 EBCTBL7       1 00000000 00000000 A   T    2470  2470
 ECBLIST       1 00000000 00000000 A   T    2330  2330
 EDITA         2 00002410 00000001     H   15554 16012
 ENDLNO        1 00000000 0000000A     T    8699  8699   9990
 ENDSNOP       2 000017D8 00000001     I   12561 12012B 12533B 12535B 12546B
 EPARTBL       1 00000000 00000000 A   T    2462  2462
 EXFRSTLN      1 00000000 0000000B     T    9988  9988
 EXIT2         1 00000000 0000001D     T   13150 13150  15970
 EXLASTLN      1 00000000 0000000C     T    9989  9989
1DOPT     (DOPT2025) (12:42) (15MAR04) Ordinary Symbol and Literal Cross Reference                                          Page   71
 EXLOCATE      1 00000000 0000000E     T    9993  9993
 EXPREV        1 00000000 00000012     T    9999  9999
 FINDDEV       1 00000000 00000020     T   15961 15961
 FMT           2 00002438 00000001     H   15591 16028
 FSR           0 00000000 00000001 A   #    1003 13212  14174M 14662  14981M 15007  15110M 15130  15346M 15750  15824M
 GETACCT       1 00000000 00000006     T    8689  8689
 GOTALINE      2 00000DD0 00000001     H    9772  9758
 HAVDOL        4 0000160E 00000001     I   12005 11659B
 HAVEMEM       4 0000182E 00000001     I   12608 12568B 12604B
 HAVGUEST      2 0000236E 00000001     I   15361 16081
 HAVOLM        2 000022C6 00000001     H   15121 16059  16061  16092  16094
 HAVPUB        2 0000237E 00000001     I   15386 16079
 HAVTEMP       2 00002278 00000001     H   14998 16073
 HIBAL         1 00000000 FFFFFFFF     J     691   707    720    733    746    759    772    785    798    811    824
                                                   837    850    863    876    889    902
 HOSTCHK       2 000021B2 00000001     H   14653 15960
 HOSTEXIT      2 0000226A 00000001     H   14969 14959B
 HOSTNO        4 00002260 00000001     I   14958 14720B 14938B
 HOSTYES       2 00002268 00000001     H   14963 14740B 14956B
 HVDSNSTR      2 000017B8 00000001     I   12545 12541B
 INCOMPL       2 00001000 00000001     I   10146 10123
 INCROK        2 00001002 00000001     I   10147 10126
 INCRPRT       1 00001052 00000001     R   10208 10115
 INCRPRT2      1 00001060 00000001     R   10215 10139
 INCRSCN       4 00000F3A 00000001     I   10023  9120B  9180B  9240B  9261B
 INCRSCND      4 00000FC2 00000001     I   10101 10074B 10076B
 INCRSCN1      2 00000F54 00000001     I   10045  8823B  8846B  8857B  8913B  8933B  8944B  9012B  9022B  9092B  9306B
                                                  9358B  9471B  9621B
 INCRSCN2      4 00000FEC 00000001     I   10129 10124B
 INCRXIT       2 00000FA6 00000001     I   10089  9483B 10096B
 INSPFX        2 00001780 00000001     I   12521 12500B
 INTPRT        1 000005A6 00000001     R    8121  8113
 INVACCT       2 000001FC 00000001     H    7215  7048B
 INVACCTC      2 00000218 00000001     I    7249  7109B  7131B  7177B  7199B
 INVALID       1 00000000 00000002     T    2457  2457   6596   6603   6624   7746   7759   7768   7785   7796   7808
                                                  7819   8001   8118   8125   8141   8159   8772  10212  10219  16089
                                                 16098  16106  16112
 INVDEV        2 0000197E 00000001     H   12969 12956
 INVGRP        2 00000378 00000001     H    7664  7638B
 INVGRPC       2 00000394 00000001     H    7698  7648B
 INVUSER       2 0000029E 00000001     H    7400  7374B
 INVUSERC      2 000002BA 00000001     H    7434  7384B
 JCBAFL        1 00000062 FFFFFFEE     R    1270  1274   1279   1284   1289   1294   1299   1304   1309
 JCBBFL        1 00000063 FFFFFFEE     R    1315  1319   1324   1329   1334   1339   1344   1349
 JCBBILLX      8 00000088 FFFFFFEE     D    1400  1408   1408
 JCBRSCF1      1 00000064 FFFFFFEE     R    1355  1359   1364   1369
 JCBSFLG1      1 00000065 FFFFFFEE     R    1375  1379   1384
 JCBWFL        1 00000060 FFFFFFEE     R    1199  1203   1208   1213   1218   1223   1228   1233   1238   1266
 JCBWWFL       1 00000061 FFFFFFEE     R    1244  1248   1253   1258   1263
 LABELLNO      1 00000000 00000016     T   10006 10006
 LENPRT        1 00000443 00000001     R    7801  7732
 LISTPRT       1 000003C1 00000001     R    7751  7731   7738
 LNENOINC      2 0000102E 00000001     I   10187 10215
 LNENOPRN      1 00000A06 00000001     R    8747  8739
 LNENOPRT      1 000009F2 00000001     R    8741  8561   8739
 LNENOPRT      1 00000000 00000013     T   10002 10002
 LNENORTN      4 0000103A 00000001     I   10196 10192B
 LOCATE        1 00000000 0000000D     T    9992  9992
 LOWTBL        1 00000000 00000000 A   T    2465  2465
1DOPT     (DOPT2025) (12:42) (15MAR04) Ordinary Symbol and Literal Cross Reference                                          Page   72
 LRECLA        4 000023F2 00000001     I   15516 16046
 LRTRIM        1 00000000 00000019     T   13141 13141
 LSR           8 00000008 00000001 A   #    1041 13212  14174M 14662  14981M 15007  15110M 15130  15346M 15750  15824M
 LTNPRT        1 000003B0 00000001     X    7738  7731
 MAINDSN       2 00001616 00000001     I   12009 11428B 11499B 11650B 11712B 11753B 11783B
 MBRSCN        4 00001804 00000001     I   12582 12576B
 MEMMVC        6 000019A2 00000001     I   13019 12809X
 MEMSRCH       4 000017A8 00000001     I   12540 12543B
 MILERR        1 00000000 00000000 A   T    2456  2456
 MINUS         4 00000FE0 00000001     I   10123 10210
 NBLTBL        1 00000000 00000000 A   T    2469  2469
 NEWEDIT       2 000023F8 00000001     H   15521 16014
 NOACTION      1 00000000 00000000 A   T    2459  2459
 NOENQ         2 00002492 00000001     H   15741 16083
 NONEXT        4 00000CD4 00000001     I    9477  9468B
 NONEXTST      2 00000CCE 00000001     I    9473  9456B  9461B
 NONEXT1       4 00000CDC 00000001     I    9479  9627B
 NONEXT2       2 00000CF0 00000001     H    9493  9480B
 NOOPTPRT      2 000005A2 00000001     H    8116  8113
 NOPFX         2 00001794 00000001     I   12532 12015B 12515B
 NOPREV        4 00000D5A 00000001     I    9625  9474B  9555B  9608B
 NOTABS        2 00002432 00000001     H   15581 16024
 NPARTBL       1 00000000 00000000 A   T    2463  2463
 NSCNCB      176 00000000 FFFFFFEC     J    2728  2854
 NSCNFLGS      1 00000008 FFFFFFEC     R    2665  2669   2674
 NSCNTYPE      1 00000018 FFFFFFEC     R    2683  2687   2692   2697   2702   2707
 NULLMBR       2 000019A8 00000001     H   13024 12611B
 NUMPRT        1 000003F8 00000001     R    7775  7731   7742  16051
 OLDEDIT       2 00002404 00000001     H   15537 16016
 ORDELIM       2 00001544 00000001     I   11774 11768B 11770B
 OREADY        2 00001546 00000001     I   11779 11790B
 ORSRCH        4 0000152C 00000001     I   11767 11772B
 ORSRCHST      4 0000153C 00000001     I   11771 11765B
 OVERGRP       2 000015BA 00000001     H   11900 11713
 OVERRIDE      2 00001520 00000001     H   11759 11727B 11747B
 OVERUSER      2 00001566 00000001     H   11794 11733
 PARENMEM      2 0000182C 00000001     I   12606 12570B
 PARENSCN      4 000017EE 00000001     I   12573 12566B
 PFXCOMA       2 00001766 00000001     I   12498 12486B 12494B
 PFXLIB        6 00001A02 00000001     I   13098 13090B
 PFXLOOP       4 00001772 00000001     I   12502 12503B
 PFXMVC        6 0000199C 00000001     I   13018 12528X 12555X
 PLUS          4 00000FE8 00000001     I   10126 10208
 PREVLNO       1 00000000 00000011     T    9998  9998
 PRNTA         4 00002422 00000001     I   15566 16020
 QDSNCONT      4 0000122A 00000001     I   10700 10559B
 QUIETPRT      1 000005BE 00000001     R    8137  8113
 RAR          14 0000000E 00000001 A   #    1119  2394   2395M  2396B  2398M  2399B  2419M  2420B  2424M  2425B  2427M
                                                  2428B  2430M  2431B  2433M  2434B  2436M  2437M  2437B  2443   6756M
                                                  6757M  6757B  7107M  7108M  7108B  7129M  7130M  7130B  7175M  7176M
                                                  7176B  7197M  7198M  7198B  7230M  7231M  7231B  7267M  7268M  7268B
                                                  7382M  7383M  7383B  7415M  7416M  7416B  7449M  7450M  7450B  7490M
                                                  7491M  7491B  7525M  7526M  7526B  7646M  7647M  7647B  7679M  7680M
                                                  7680B  7713M  7714M  7714B  7830B  7840B  7844B  7857B  7878B  7900B
                                                  7923B  7934B  7937B  7949B  7963B  7967B  7976B  7986B  8037M  8038M
                                                  8038B  8088M  8089M  8089B  8134B  8150B  8243M  8244M  8244B  8269M
                                                  8270M  8270B  8299M  8300M  8300B  8418M  8419M  8419B  8458M  8459M
                                                  8459B  8509M  8510   8532   8551M  8552M  8552B  8611B  8627B  8643B
                                                  8652B  8662B  8855M  8856M  8856B  8942M  8943M  8943B  9088M  9089M
1DOPT     (DOPT2025) (12:42) (15MAR04) Ordinary Symbol and Literal Cross Reference                                          Page   73
                                                  9089B  9459M  9460M  9460B  9466M  9508M  9509M  9509B  9553M  9554M
                                                  9554B  9593M  9594M  9594B  9706M  9707M  9707B  9768M  9769M  9769B
                                                  9808M  9809M  9809B  9937M  9938M  9938B  9941M  9942M  9942B 10065M
                                                 10066M 10066B 10087M 10088M 10088B 10105M 10106M 10106B 10118M 10119M
                                                 10119B 10129M 10130M 10130B 10142M 10143M 10143B 10150M 10151M 10151B
                                                 10179M 10180M 10180B 10200M 10201M 10201B 10291M 10292M 10292B 10293M
                                                 10306B 10367M 10497M 10498M 10498B 10501M 10502M 10502B 10557M 10558M
                                                 10558B 10577M 10578M 10578B 10694M 10695M 10695B 10705M 10706M 10706B
                                                 11011M 11012M 11012B 11063M 11064M 11064B 11085M 11086M 11086B 11252M
                                                 11253M 11253B 11572M 11573M 11573B 11781M 11812B 11836B 11887M 11888M
                                                 11888B 11918B 11942B 11993M 11994M 11994B 12116M 12117M 12117B 12305M
                                                 12306M 12306B 12381M 12382M 12382B 12582M 12583M 12583B 12595M 12596M
                                                 12596B 12739M 12740M 12740B 12793M 12794M 12794B 12846M 12847M 12847B
                                                 13008M 13009M 13009B 13069M 13209  13293M 13294M 13294B 13470M 13471M
                                                 13471B 13512M 13513M 13513B 13675M 13676M 13676B 13759M 13849M 13920M
                                                 13921M 13921B 14176M 14179B 14286M 14659  14704M 14705M 14705B 14954M
                                                 14955M 14955B 14983M 14986B 15004  15035M 15036M 15036B 15112M 15115B
                                                 15127  15158M 15159M 15159B 15348M 15351B 15354B 15357B 15375B 15399B
                                                 15517B 15533B 15550B 15560B 15564B 15568B 15577B 15587B 15600B 15612B
                                                 15621B 15630B 15642B 15658B 15674B 15705B 15735B 15747  15826M 15829B
                                                 15876M 15877M 15877B 15889M 15890M 15890B 15911M 15912M 15912B 15926M
                                                 15927M 15927B
 REPLMEM       6 000018BE 00000001     I   12804 12694B
 RETFMEM       1 00000000 0000001E     T   13157 13157
 RETFNAME      1 00000000 0000001F     T   13158 13158
 RNUMPRT       1 000003EC 00000001     R    7773  7731
 RTRIM         1 00000000 00000022     T   15966 15966
 R0            0 00000000 FFFFFFFF A   #     699  2379   2448M  6655   6716M  6728   6763M  6770   6822M  6884   6962M
                                                  7045   7104M  7126M  7172M  7194M  7238M  7256M  7275M  7322   7355M
                                                  7371   7423M  7457M  7532M  7586   7619M  7635   7687M  7721M  8096M
                                                  8202M  8229M  8296   8454   8462M  8553   8795M  8833M  8833   8885M
                                                  8920M  8973M  9010M  9011M  9011   9018M  9021M  9115M  9139M  9171M
                                                  9199M  9231M  9259M  9282M  9291M  9291   9300M  9334M  9343M  9343
                                                  9352M  9449M  9453M  9455M  9455   9462   9469M  9478M  9481M  9513M
                                                  9589M  9619M  9626M  9695M  9713M  9810M  9837   9873   9910   9922M
                                                 10060  10067M 10067  10068M 10120M 10146M 10146  10153M 10154M 10156M
                                                 10184M 10187M 10194M 10196  10197  10197  10197  10204M 10297M 10297
                                                 10335  10335  10335  10512M 10512  10587M 10587  10620M 10668M 10674
                                                 10676  10677  10677  10677  10691M 10698M 10738  10818  10863  10917M
                                                 10929M 10929  10956M 10971M 10971  11000M 11026M 11039  11040  11040
                                                 11040  11042M 11043M 11045M 11068M 11070  11110M 11124M 11136M 11136
                                                 11248  11249  11249  11249  11255  11258M 11358  11413M 11561M 11580M
                                                 11762M 11763M 11772M 11779M 11804  11828  11843M 11895M 11910  11934
                                                 11949M 12001M 12105M 12124M 12183M 12302M 12315M 12315  12322  12378M
                                                 12383  12501M 12502  12537M 12538M 12543M 12573M 12574  12584M 12584
                                                 12602  12728M 12746M 12749M 12800M 12843M 12848  12938M 13015M 13057M
                                                 13106M 13107  13162  13162  13162  13282M 13300M 13505M 13664M 13682M
                                                 13909M 13925M 13947M 14025M 14062M 14074  14086M 14109M 14109  14114
                                                 14115  14219M 14220  14224  14486M 14495M 14495  14547  14701M 14717
                                                 14737  14762  15039  15051M 15057  15204M 15213  15225M 15231  15427
                                                 15466M 15855M 15858M
 R1            1 00000001 FFFFFFFF A   #     712  2442M  2443M  2449M  6714   6715M  6762M  6815M  6961M  7054   7097M
                                                  7119M  7165M  7187M  7237M  7249M  7274M  7350M  7422M  7456M  7531M
                                                  7614M  7686M  7720M  8034M  8095M  8201M  8228M  8266M  8296   8415M
                                                  8454   8462M  8489M  8489   9017M  9299M  9351M  9384M  9394M  9463M
                                                  9463   9464M  9473M  9473   9477M  9482M  9512M  9575M  9625M  9659
                                                  9661   9661   9661   9694M  9712M  9765M  9810   9837   9843M  9843
                                                  9873   9879M  9879   9910   9916M  9916   9922   9974M 10070M 10071
                                                 10072M 10084M 10095M 10115M 10139M 10147M 10153M 10154  10155M 10156
1DOPT     (DOPT2025) (12:42) (15MAR04) Ordinary Symbol and Literal Cross Reference                                          Page   74
                                                 10183M 10554M 10554  10619M 10667M 10674  10676  10677  10677  10677
                                                 10686M 10698M 10862  10915M 10954M 10999M 11021M 11039  11040  11040
                                                 11040  11042  11056M 11068M 11082M 11109M 11123M 11193  11248  11249
                                                 11249  11249  11254  11258M 11411M 11560M 11579M 11761M 11763  11764
                                                 11774  11788M 11841M 11894M 11947M 12000M 12100M 12123M 12182M 12287
                                                 12288  12288  12288  12297M 12373M 12386M 12573M 12574M 12592M 12600
                                                 12601  12723M 12745M 12778M 12799M 12838M 12937M 13014M 13056M 13162
                                                 13162  13162  13168  13168  13168  13281M 13299M 13500M 13534U 13659M
                                                 13681M 13905M 13924M 13946M 14021M 14061M 14696M 14951M 15203M 15465M
                                                 15855M 15860M 15886M 15908M 15923M 15923
 R12          12 0000000C FFFFFFFF A   #     855  2405
 R13          13 0000000D FFFFFFFF A   #     868 10090M 10304M
 R14          14 0000000E FFFFFFFF A   #     881  2380M  6627   6839   7000   7292   7470   7556   8004   8162   8304
                                                  8775   8868   8955   9030   9264   9316   9396   9657  10023  10348
                                                 10387  10819M 12287  12288  12288  12288  12386M 12828  12829  12829
                                                 12829  12890M 13168  13168  13168  13173  13173  13173  14185  14246
                                                 14428  15410  15832
 R15          15 0000000F FFFFFFFF A   #     894  2379   6753M  6770M  6774M  6783M  6783   6790   7227M  7264M  7412M
                                                  7446M  7487M  7522M  7541M  7541   7676M  7710M  7965M  7966   8022M
                                                  8023   8052   8060M  8085M  8522M  8522   8531   8796M  8886M  8972M
                                                  9091M  9115   9119M  9119   9179M  9179   9239M  9239   9260M  9281M
                                                  9333M  9470M  9505M  9519M  9520M  9521   9605M  9605   9620M  9703M
                                                  9970M  9970  10061  10077M 10077  10089M 10176M 10187  10191M 10191
                                                 10196  10197  10197  10197  10204M 10288M 10335  10335  10335  10818M
                                                 10822M 10831M 10831  10838  11008M 11034M 11193M 11194M 11226M 11226
                                                 11255M 11265  11277M 11287M 11296M 11296  11303  11569M 11611M 11612M
                                                 11613  11622M 11622  11713M 11733M 11781B 11788  11884M 11990M 12113M
                                                 12389M 12495M 12550M 12561M 12657M 12658M 12736M 12790M 13005M 13100M
                                                 13104M 13290M 13672M 13864  13917M 14099M 14099  14115M 14120M 14129M
                                                 14129  14136  14178M 14178  14187  14189  14189  14189  14232M 14248
                                                 14250  14250  14250  14327M 14448M 14448  14554M 14594M 14958M 14965M
                                                 14965  14985M 14985  15057M 15061M 15070M 15070  15077  15114M 15114
                                                 15231M 15235M 15244M 15244  15251  15270M 15350M 15350  15427M 15441
                                                 15455  15487M 15489  15504M 15505M 15506M 15507M 15508M 15508  15509
                                                 15516  15562M 15563  15566M 15567  15704  15734  15828M 15828  15896M
                                                 15896  15898  15915M 15915  15917
 R2            2 00000002 FFFFFFFF A   #     725  6629   6631   6631   6631   6714M  6815   6841   6843   6843   6843
                                                  7002   7004   7004   7004   7294   7296   7296   7296   7472   7474
                                                  7474   7474   7558   7560   7560   7560   8006   8008   8008   8008
                                                  8164   8166   8166   8166   8306   8308   8308   8308   8532M  8558B
                                                  8777   8779   8779   8779   8870   8872   8872   8872   8957   8959
                                                  8959   8959   9032   9034   9034   9034   9266   9268   9268   9268
                                                  9318   9320   9320   9320   9398   9400   9400   9400   9590M  9744M
                                                  9773  10025  10027  10027  10027  10091M 10305M 10389  10391  10391
                                                 10391  10492  10493  10493  10493  10570M 10686  10701M 10736  10738M
                                                 10741  10753M 10758  10763M 10772M 10772  10779  10800M 10863M 10896M
                                                 10896  11026  11070M 11072M 11124  11358M 11360M 11370M 11370  11425
                                                 11764M 11771M 11774M 11779  11780  11789M 11789  12010M 12011M 12031
                                                 12105  12205M 12214M 12214  12222  12234M 12243M 12252M 12252  12259
                                                 12322M 12326M 12335M 12335  12342  12383M 12417  12497M 12512M 12512
                                                 12521  12526M 12528  12529  12539M 12542M 12545M 12547  12553M 12555
                                                 12556M 12557  12558  12609M 12610M 12660M 12660  12661  12664M 12666
                                                 12693  12728  12750  12807M 12809  12828  12829  12829  12829  12848M
                                                 12853M 12862M 12862  12869  12890M 13163  13163  13163  13173  13173
                                                 13173  13864M 13937  14223M 14224  14430  14432  14432  14432  14480M
                                                 14486
 R3            3 00000003 FFFFFFFF A   #     738 10071M 10155  10571M 10691  11424M 11425M 11711  11762  12010  12532
                                                 12537  12565  12601M 12602M 12606M 12609  14458M 14522M 14547  14579M
 R4            4 00000004 FFFFFFFF A   #     751  8373M  8373   8393M  8431M  8431  10061M 10089  10573M 10862M 11021
1DOPT     (DOPT2025) (12:42) (15MAR04) Ordinary Symbol and Literal Cross Reference                                          Page   75
                                                 11043  11069M 11123  11194  11254M 11357M 11424  11427  11649M 11658
                                                 11711  11761  11780M 11780  11782  11784M 11784  12005M 12005  12011
                                                 12014  12100  12387M 12387  12532  12534  12538  12539  12545  12550
                                                 12557M 12565  12567  12600M 12603  12608M 12608  12610  12659M 12723
                                                 14457M 14512  14521M 14561M 14570M 14570
 R5            5 00000005 FFFFFFFF A   #     764  8246M  8343M  9450M  9454M  9466B 10060M 10068  10079M 10083M 10094M
                                                 10094  10095  10120  10147  10483M 10492  10493  10493  10493  10574M
                                                 10701M 11661  11662  11663  11664  11665  11701  11702  12009M 12498M
                                                 12502  12529M 12529  12558M 12561  12562M 12657  12751M 12778  13018
                                                 13163  13163  13163  14453M 14454M 14454  14469M 14469  14586M
 R6            6 00000006 FFFFFFFF A   #     777  7054M  7249   8257M  9758M 10079M 10082M 10092B 10123M 10126M 10205B
                                                 10482M 10482  11707M 12009  12498  12499M 12499  12502  12503M 12521M
                                                 12522  12547M 12548  12562  12658  12661M 12749  12750M 12751  13032M
                                                 13032  13067  13073  13103M 13103  13106  14450M 14584M
 R7            7 00000007 FFFFFFFF A   #     790  2372M  2372   2373B  2385B 10350  10352  10352  10352  10372M 15412
                                                 15414  15414  15414  15513M 15834  15933M
 R8            8 00000008 FFFFFFFF A   #     803  6629   6630M  6631   6631   6631   6841   6842M  6843   6843   6843
                                                  7002   7003M  7004   7004   7004   7294   7295M  7296   7296   7296
                                                  7472   7473M  7474   7474   7474   7558   7559M  7560   7560   7560
                                                  8006   8007M  8008   8008   8008   8164   8165M  8166   8166   8166
                                                  8306   8307M  8308   8308   8308   8777   8778M  8779   8779   8779
                                                  8870   8871M  8872   8872   8872   8957   8958M  8959   8959   8959
                                                  9032   9033M  9034   9034   9034   9266   9267M  9268   9268   9268
                                                  9318   9319M  9320   9320   9320   9398   9399M  9400   9400   9400
                                                  9659   9660M  9661   9661   9661   9974M 10025  10026M 10027  10027
                                                 10027  10090  10091M 10304  10305M 10350  10351M 10352  10352  10352
                                                 10372M 10389  10390M 10391  10391  10391  14187  14188M 14189  14189
                                                 14189  14232M 14248  14249M 14250  14250  14250  14327M 14430  14431M
                                                 14432  14432  14432  15412  15413M 15414  15414  15414  15513M 15834
                                                 15835M 15933M
 SCAN          1 00000000 00000007     T    8691  8691  10003  10331  13142  15976
 SCANSTR       1 00000000 0000001A     T   13144 13144
 SCANWTOK      1 00000000 00000024     T   15972 15972
 SCINFO        1 00000000 00000014     T   10004 10004
 SCINIT        1 00000000 0000001C     T   13149 13149  15975
 SCNABRT       2 00001076 00000001     H   10237  9019B  9301B  9353B  9514B
 SCNACCT       4 0000015A 00000001     I    7000  6608   6610
 SCNACCTB      2 00000174 00000001     I    7019  6823B  6905B  6918B  6937B
 SCNACCTX      2 0000023A 00000001     I    7279  7133B  7201B
 SCNACHK       4 000000F2 00000001     I    6839  6599   6606
 SCNACOM       2 0000010C 00000001     I    6858  6829B
 SCNCHK        4 00000690 00000001     I    8304  8155
 SCNCLR        2 000007DA 00000001     H    8615  8587   8589
 SCNCOLL       4 000005E6 00000001     I    8162  8153
 SCNCOLS       4 0000051A 00000001     I    8004  7993   7996
 SCNCOLSE      2 00000556 00000001     I    8041  8103B
 SCNCOLSR      6 00000550 00000001     I    8039  8050
 SCNCOLS2      4 00000570 00000001     I    8052  8047
 SCNCURR       4 00000AEE 00000001     I    8955  8751   8765
 SCNEND        4 00000B46 00000001     I    9030  8755   9029
 SCNERR        2 00001072 00000001     H   10230 10185B
 SCNFBLK       2 00000B8C 00000001     I    9124  8761
 SCNFRST       4 00000A60 00000001     I    8775  8741   8749
 SCNGRP        4 00000322 00000001     I    7556  6616   6618
 SCNINT        2 000004C0 00000001     H    7927  7781
 SCNINTRL      2 000005B8 00000001     H    8129  8121
 SCNKEEP       2 000007E4 00000001     H    8631  8591   8593   8595
 SCNLAST       4 00000AA6 00000001     I    8868  8743   8753
 SCNLBLK       2 00000BAE 00000001     I    9184  8763
1DOPT     (DOPT2025) (12:42) (15MAR04) Ordinary Symbol and Literal Cross Reference                                          Page   76
 SCNLCHK       4 0000006E 00000001     I    6627  6592
 SCNLEN        4 000004E8 00000001     I    7966  7803
 SCNLIST       2 0000047E 00000001     H    7823  7751
 SCNLNENO      2 00000B82 00000001     I    9103  8747
 SCNNEXT       4 00000C58 00000001     I    9394  8757
 SCNNEXTC      4 00000C5C 00000001     I    9396  9385B
 SCNNEXT1      4 00000C92 00000001     I    9453  9443B
 SCNNEXT2      2 00000C9A 00000001     I    9455  9451B
 SCNNLST       2 00000484 00000001     H    7834  7753   7755
 SCNNOLEN      4 000004E4 00000001     I    7965  7801
 SCNNOOP       1 00000000 00000025     T   16063 16063  16065  16067  16069  16071
 SCNNTEX       4 0000048A 00000001     I    7842  7764
 SCNNUM        2 000004B2 00000001     H    7904  7775
 SCNNVER       2 000004F4 00000001     H    7980  7815
 SCNONUM       2 00000494 00000001     H    7848  7779
 SCNOWRN       2 000007EE 00000001     H    8647  8599
 SCNPREV       2 00000C4E 00000001     I    9369  8759
 SCNPREV1      4 00000D06 00000001     I    9519  9465B
 SCNQUIET      2 000005CC 00000001     H    8145  8137
 SCNRES        1 00000000 00000004     T    8685  8685
 SCNRETN       2 00000BD0 00000001     I    9244  8745
 SCNRNUM       2 000004A4 00000001     H    7882  7773
 SCNSCR        2 000007D4 00000001     H    8605  8575   8577
 SCNUID        4 000002D6 00000001     I    7470  6620
 SCNUNUM       2 0000049A 00000001     H    7861  7777
 SCNUPL        2 000004DA 00000001     H    7953  7792
 SCNUPP        2 000004D4 00000001     H    7941  7790
 SCNUSER       4 00000246 00000001     I    7292  6612   6614
 SCNVER        2 000004EE 00000001     H    7971  7813
 SCNWARN       2 000007F4 00000001     H    8656  8597
 SCRPRT        1 0000077A 00000001     R    8575  8573   8584
 SCSET         1 00000000 00000015     T   10005 10005  13145
 SCTELL        1 00000000 00000017     T   10329 10329  13140
 SDSNQSZ       1 0000002C FFFFFFEB A   U    6360  6361   6362
 SEG           1 00000000 00000003     T    8683  8683  10000  10333  13148  15959
 SEGB          1 00000000 00000010     T    9996  9996
 SEGCR         1 00000000 00000018     T   10334 10334  13153
 SEGT          1 00000000 00000021     T   15962 15962
 SEQPRT1       1 0000285B 00000001     R   16101 15886
 SEQPRT2       1 0000286F 00000001     R   16109 15908
 SETNOSET      4 00002368 00000001     I   15356 16077
 SETSEQ        4 000024C6 00000001     I   15832 16053
 SETSEQ1       2 00002506 00000001     H   15863 15857B
 SETSEQ2       2 0000252C 00000001     H   15901 15894B
 SETSEQ3       6 00002550 00000001     I   15929 15891B 15913B
 SETSET        4 00002362 00000001     I   15353 16075
 SPLIT         2 0000247E 00000001     H   15709 16043
 SPR          13 0000000D 00000001 A   #    1106 13209  13212  13213  13214M 13214  14170M 14174  14176  14659  14662
                                                 14663  14664M 14664  14977M 14981  14983  15004  15007  15008  15009M
                                                 15009  15106M 15110  15112  15127  15130  15131  15132M 15132  15342M
                                                 15346  15348  15747  15750  15751  15752M 15752  15820M 15824  15826
 SSEQEND       4 0000251A 00000001     I   15893 16101
 SSEQFLD       2 00002522 00000001     I   15896 16103
 SSEQLN        2 0000253A 00000001     I   15915 16109
 TABS          2 0000242C 00000001     H   15572 16022
 TEXTONLY      2 00002444 00000001     H   15616 16030
 TEXTPRT       1 000003DD 00000001     R    7764  7731   7740
 TRANS         2 0000244A 00000001     H   15625 16032
 TRC           1 00000000 00000000 A   T    2401  2401
1DOPT     (DOPT2025) (12:42) (15MAR04) Ordinary Symbol and Literal Cross Reference                                          Page   77
 TTYFLAG       1 00000004 FFFFFFE9     R    6489  6493
 TTYMAX#       1 00000006 FFFFFFE9 A   U    6545  6546
 TTYTFLAG      1 00000005 FFFFFFE9     R    6499  6503   6508   6513   6518   6523   6528   6533
 UNFMT         2 0000243E 00000001     H   15604 16026
 UPPTBL        1 00000000 00000000 A   T    2464  2464
 VERPRT        1 00000462 00000001     R    7813  7732
 VOLCHK        1 00000000 00000023     T   15969 15969
 WAR           8 00000008 00000001 A   #    1029 13213M 14170  14663M 14977  15008M 15106  15131M 15342  15751M 15820
 WRAP          2 0000246A 00000001     H   15678 16040
 WTOSG         1 00000000 00000000 A   T    2361  2361
 WYLDOPT       1 00000000 00000001     J     993   995   1011   1024   1037   1049   1062   1075   1088   1101   1114
                                                  1127   1426   2645   2729   6469   6581   6586   6803
 WYLDSNL       1 000014FA 00000001     U   11708 13073
 XIBADNM       2 00001E12 00000001     H   13867 13793B
 ZNVCODE       4 00002388 00000001     I   15410 15409  16049
 ZODSNM        4 00001100 00000001     I   10387 10367B 10386
 ZSNFIN        2 00001C9E 00000001     H   13203 13199
 ZSNSCAN       4 000010CA 00000001     I   10348 10347
 ZSNSTDDO      4 00001EC8 00000001     I   14185 13069B 14184
 ZSNUDSDO      4 00001F34 00000001     I   14246 13759B 14245
 ZTTNLINE      4 00000D66 00000001     I    9657  9656
 =A(COLBASE)
               4 000008F4 00000001     A    8696  8328
 =A(COLONLY)
               4 000008EC 00000001     A    8694  8256
 =A(COLRES)
               4 000008F8 00000001     A    8697  8406
 =A(DSPRTB)
               4 00001B0C 00000001     A   13160 12592
 =A(HOSTCHK)
               4 000025B4 00000001     A   15960 13470
 =A(L'CPSPROJ)
               4 000008AC 00000001     A    8682  6728
 =A(L'DSNON)
               4 00001AE8 00000001     A   13151 11265  11277  12222  12234
 =A(L'DSNON)
               4 000025E0 00000001     A   15971 15039  15051  15213  15225
 =A(L'DSNWFILE)
               4 00001AD8 00000001     A   13147 10741  10753
 =A(L'DSNWFILE)
               4 000025C4 00000001     A   15964 14074  14086
 =A(1)         4 000008C0 00000001     A    8687  7322   7586
 =A(1)         4 00001AF4 00000001     A   13154 11804  11910  12031
 =A(11)        4 00001B08 00000001     A   13159 12417
 =A(16)        4 000025EC 00000001     A   15974 15455
 =A(2)         4 000008CC 00000001     A    8690  7635
 =A(2)         4 000025D0 00000001     A   15967 14717
 =A(3)         4 000008C4 00000001     A    8688  7371
 =A(3)         4 00001AFC 00000001     A   13156 11934
 =A(4)         4 00001AF8 00000001     A   13155 11828
 =A(6)         4 000008B4 00000001     A    8684  6884   7045
 =A(6)         4 000025D4 00000001     A   15968 14737  14762
 =A(7)         4 000008A8 00000001     A    8681  6655
 =A(8)         4 000025C0 00000001     A   15963 13937  14512  15441
 =AL2(1)       2 00002620 00000001     R   15979 13993
 =C' ,;('      4 00001AC8 00000001     C   13143 10573
 =C' ,='       3 00001BCE 00000001     C   13176 10570
 =C' is an unknown user-ID.'
              23 000009A8 00000001     C    8709  7531
1DOPT     (DOPT2025) (12:42) (15MAR04) Ordinary Symbol and Literal Cross Reference                                          Page   78
 =C' is an unkown device type.'
              26 00001BB4 00000001     C   13175 13014
 =C'(: invalid data set name.'
              25 00001BD1 00000001     C   13177 10667
 =C'&&'        1 00000998 00000001     C    8707  7335
 =C'&&'        1 00001C1B 00000001     C   13183 11744
 =C': bad ending column.'
              20 000008D4 00000001     C    8692  8095
 =C': dsname too long.'
              18 00001B82 00000001     C   13172 12799
 =C': invalid account.'
              18 00000906 00000001     C    8701  7237
 =C': invalid characters in account.'
              32 00000818 00000001     C    8674  7274
 =C': invalid characters in dsname.'
              31 00001C2B 00000001     C   13185 12123
 =C': invalid characters in dsname.'
              31 0000268C 00000001     C   15989 13946
 =C': invalid characters in group.'
              30 00000918 00000001     C    8702  7720
 =C': invalid characters in user-id.'
              32 00000840 00000001     C    8676  7456
 =C': invalid dsname.'
              17 0000267B 00000001     C   15988 13924
 =C': invalid group.'
              16 00000868 00000001     C    8678  7686
 =C': invalid group.'
              16 00001A90 00000001     C   13135 12000
 =C': invalid user.'
              15 00000999 00000001     C    8708  7422
 =C': invalid user.'
              15 00001C1C 00000001     C   13184 11894
 =C': invalid value.'
              16 000010A0 00000001     C   10328 10183
 =C': member name too long.'
              23 00001C4A 00000001     C   13186 12745
 =C': project-id is too long (max is 8 characters).'
              47 0000093A 00000001     C    8705  6762
 =C': volume/host not found.'
              24 00002568 00000001     C   15955 13681
 =C'if ASCII/EBCDIC is specified.'
              29 00002650 00000001     C   15985 13299
 =C'line does not exist.'
              20 00000EAC 00000001     C    9997  9512
 =C'Account should be specified in "gg.uuu" format.'
              47 00000969 00000001     C    8706  6961
 =C'ABORT line number not set'
              25 00000F12 00000001     C   10010  9351
 =C'ACTIVE file changes blocked by ORVYL program.'
              45 000009BF 00000001     C    8710  8228
 =C'ATTN line number not set'
              24 00000E68 00000001     C    9986  9299
 =C'ATTN option may only be used in EXEC files. '
              44 00000ECC 00000001     C   10001  9712
 =C'ATTN: invalid. '
              15 00000F2B 00000001     C   10011  9694
 =C'Can''t access remote file, no default host set.'
              46 00001B2E 00000001     C   13166 11560
 =C'Collect option not allowed before logon.'
1DOPT     (DOPT2025) (12:42) (15MAR04) Ordinary Symbol and Literal Cross Reference                                          Page   79
              40 00000880 00000001     C    8680  8201
 =C'Current line is not set.'
              24 00000E50 00000001     C    9985  9017
 =C'CAT '      4 000025E8 00000001     C   15973 15314
 =C'CAT'       3 00001C12 00000001     C   13180 11216
 =C'CATALOG '
               8 00002588 00000001     C   15957 15286
 =C'CATLG '
               6 00002648 00000001     C   15983 15300
 =C'CLIP '
               5 0000266D 00000001     C   15986 13435
 =C'CLIPBOARD '
              10 00002616 00000001     C   15978 13449
 =C'CODE must be 8-16 characters in length.'
              39 000026B3 00000001     C   15992 15465
 =C'Dsname is null.'
              15 00001C61 00000001     C   13187 13056
 =C'Missing ">" in '
              15 00001BEA 00000001     C   13178 10999
 =C'Missing data set name.'
              22 00001B10 00000001     C   13161 10619
 =C'Missing device-type name.'
              25 00001BF9 00000001     C   13179 11109
 =C'Missing disk/host name after "ON".'
              34 00002626 00000001     C   15982 15203
 =C'NEXT'      4 00000EA4 00000001     C    9995  9477
 =C'NULLFILE '
               9 00002672 00000001     C   15987 13790
 =C'PFX'       3 00001C70 00000001     C   13188 13087
 =C'PREVIOUS'
               8 00000E80 00000001     C    9987  9625
 =C'PUB'       3 000026AB 00000001     C   15990 14321  14336  14403
 =C'PUBGA'
               5 000026AE 00000001     C   15991 15398
 =C'SAV'       3 000026DA 00000001     C   15993 15688  15719
 =C'SYS'       3 00001C18 00000001     C   13182 11440
 =C'The current dsname is not set.'
              30 00001B5C 00000001     C   13167 12182
 =C'The current member is not set.'
              30 00001B96 00000001     C   13174 12937
 =C'Type HELP SET HOST for more information.'
              40 00001A58 00000001     C   13132 11579
 =C'TEM'       3 00001C15 00000001     C   13181 11241
 =C'TRANSPARENT must be specified '
              30 000025F8 00000001     C   15977 13281
 =C'WYL.'      4 00001AEC 00000001     C   13152 11427  11661  12400
 =C'WYL.'      4 000025C8 00000001     C   15965 14213
 =C'0)'        2 00001B7E 00000001     C   13170 12625
 =CL(L'DSNNUSER)'guest'
              32 00002590 00000001     C   15958 15373
 =CL8'*'       8 00001AB0 00000001     C   13138 12821
 =CL8'BADACCT'
               8 00000800 00000001     C    8671  6965
 =CL8'BADCOL'
               8 00000878 00000001     C    8679  8092
 =CL8'BADDSN'
               8 00001A48 00000001     C   13130 10657
 =CL8'INVACCT'
               8 00000808 00000001     C    8672  7234
1DOPT     (DOPT2025) (12:42) (15MAR04) Ordinary Symbol and Literal Cross Reference                                          Page   80
 =CL8'INVCHARS'
               8 00000810 00000001     C    8673  7271   7453   7717
 =CL8'INVDSN'
               8 00002580 00000001     C   15956 13881  13954
 =CL8'INVGRP'
               8 00000860 00000001     C    8677  7683
 =CL8'INVGRP'
               8 00001A88 00000001     C   13134 11965  11997
 =CL8'INVUSER'
               8 00000838 00000001     C    8675  7419
 =CL8'INVUSER'
               8 00001A80 00000001     C   13133 11859  11891
 =CL8'MISSDSN'
               8 00001A40 00000001     C   13129 10608  10616
 =CL8'NOSTAR'
               8 00001AA8 00000001     C   13137 12171  12179  12926  12934
 =CL8'REMFILE'
               8 00001A50 00000001     C   13131 11576
 =CL8'STARBAD'
               8 00001AA0 00000001     C   13136 12086  12120
 =F'-1000'
               4 000008F0 00000001     F    8695  8272
 =F'-1000'
               4 00000E94 00000001     F    9991  9171   9231
 =H'-1,8'      2 00001AB8 00000001     H   13139 10458
 =H'-1'        2 00000F0E 00000001     H   10008  9384
 =H'-1000'
               2 00000F0C 00000001     H   10007  9021   9481
 =H'11'        2 00002622 00000001     H   15980 14062
 =H'44'        2 00001B7C 00000001     H   13169 12522  12548
 =H'7'         2 00000904 00000001     H    8700  6716
 =H'8'         2 00001B80 00000001     H   13171 12693
 =V(ADDER)
               4 00000EA0 00000001     V    9994  9459
 =V(ADDER)
               4 000010BC 00000001     V   10332 10150
 =V(BLNKTOK)
               4 000008E8 00000001     V    8693  8243   8299
 =V(BLNKTOK)
               4 000010B4 00000001     V   10330 10087  10105  10129  10200
 =V(CHARCHKA)
               4 000008BC 00000001     V    8686  7107   7129   7175   7197   7382   7646
 =V(CLRTEXT)
               4 000008FC 00000001     V    8698  8458
 =V(DEQUOTE)
               4 00001AD4 00000001     V   13146 10705
 =V(ENDLNO)
               4 00000900 00000001     V    8699  8551
 =V(ENDLNO)
               4 00000E90 00000001     V    9990  9088
 =V(EXFRSTLN)
               4 00000E88 00000001     V    9988  8855
 =V(EXIT2)
               4 00001AE4 00000001     V   13150 11252
 =V(EXIT2)
               4 000025DC 00000001     V   15970 15035
 =V(EXLASTLN)
               4 00000E8C 00000001     V    9989  8942
 =V(EXLOCATE)
1DOPT     (DOPT2025) (12:42) (15MAR04) Ordinary Symbol and Literal Cross Reference                                          Page   81
               4 00000E9C 00000001     V    9993  9454
 =V(EXPREV)
               4 00000EC4 00000001     V    9999  9593
 =V(FINDDEV)
               4 000025B8 00000001     V   15961 13512
 =V(GETACCT)
               4 000008C8 00000001     V    8689  7490
 =V(LABELLNO)
               4 00000F08 00000001     V   10006  9941
 =V(LNENOPRT)
               4 00000EF8 00000001     V   10002  9765
 =V(LOCATE)
               4 00000E98 00000001     V    9992  9450
 =V(LRTRIM)
               4 00001AC0 00000001     V   13141 10501
 =V(PREVLNO)
               4 00000EC0 00000001     V    9998  9553
 =V(RETFMEM)
               4 00001B00 00000001     V   13157 12305  12846
 =V(RETFNAME)
               4 00001B04 00000001     V   13158 12381
 =V(RTRIM)
               4 000025CC 00000001     V   15966 14704
 =V(SCAN)      4 000008D0 00000001     V    8691  8037   8269   8418
 =V(SCAN)      4 00000EFC 00000001     V   10003  9768
 =V(SCAN)      4 000010B8 00000001     V   10331 10118  10142
 =V(SCAN)      4 00001AC4 00000001     V   13142 10557  11085  12595
 =V(SCAN)      4 000025F4 00000001     V   15976 15889  15911  15926
 =V(SCANSTR)
               4 00001ACC 00000001     V   13144 10577
 =V(SCANWTOK)
               4 000025E4 00000001     V   15972 15158
 =V(SCINFO)
               4 00000F00 00000001     V   10004  9808
 =V(SCINIT)
               4 00001AE0 00000001     V   13149 11063
 =V(SCINIT)
               4 000025F0 00000001     V   15975 15876
 =V(SCNRES)
               4 000008B8 00000001     V    8685  6985   8509
 =V(SCSET)
               4 00000F04 00000001     V   10005  9937
 =V(SCSET)
               4 00001AD0 00000001     V   13145 10694
 =V(SCTELL)
               4 000010B0 00000001     V   10329 10065
 =V(SCTELL)
               4 00001ABC 00000001     V   13140 10497  12582
 =V(SEG)       4 000008B0 00000001     V    8683  6756   7230   7267   7415   7449   7525   7679   7713   8088
 =V(SEG)       4 00000EC8 00000001     V   10000  9706
 =V(SEG)       4 000010C0 00000001     V   10333 10179
 =V(SEG)       4 00001ADC 00000001     V   13148 11011  11887  11993  12116  12739  12793  13008
 =V(SEG)       4 000025B0 00000001     V   15959 13293  13920
 =V(SEGB)      4 00000EA8 00000001     V    9996  9508
 =V(SEGCR)
               4 000010C4 00000001     V   10334 10291
 =V(SEGCR)
               4 00001AF0 00000001     V   13153 11572
 =V(SEGT)      4 000025BC 00000001     V   15962 13675
1DOPT     (DOPT2025) (12:42) (15MAR04) Ordinary Symbol and Literal Cross Reference                                          Page   82
 =V(VOLCHK)
               4 000025D8 00000001     V   15969 14954
 =Y((L'CPOSCAN+3)/4*4)
               2 00001B2C 00000001     Y   13165 11114
 =Y((R0+1-(R15)+16*((R15)/(R0+1))/((R15)/(R0+1)))*4)
               2 000010C8 00000001     Y   10335 10203
 =Y((R1+1-(R0)+16*((R0)/(R1+1))/((R0)/(R1+1)))*4)
               2 00001B26 00000001     Y   13162 10697  11067  11257
 =Y((R1+1-(R14)+16*((R14)/(R1+1))/((R14)/(R1+1)))*4)
               2 00001B7A 00000001     Y   13168 12385
 =Y((R2+1-(R14)+16*((R14)/(R2+1))/((R14)/(R2+1)))*4)
               2 00001B94 00000001     Y   13173 12889
 =Y((R5+1-(R2)+16*((R2)/(R5+1))/((R2)/(R5+1)))*4)
               2 00001B28 00000001     Y   13163 10700
 =Y((235+3)/4*4)
               2 00000F10 00000001     Y   10009  9596
 =Y((8+L'CPOSCAN+3)/4*4)
               2 00000938 00000001     Y    8704  8461
 =Y(DSNXN)
               2 00002624 00000001     Y   15981 14220
 =Y(2)         2 0000264E 00000001     Y   15984 15858
 =Y(235)       2 00000936 00000001     Y    8703  8024
 =Y(4)         2 00001B2A 00000001     Y   13164 10799

1DOPT     (DOPT2025) (12:42) (15MAR04) Macro and Copy Code Source Summary                                                   Page   83
- Con Source                                        Volume    Members                        HLASM R4.0  2004/03/15 12.42
0     PRIMARY INPUT                                           CSECT    DROP     END      EX       LTORG    POP
                                                              PRINT    PUSH     START    USING
   L1 WYL.GS.WYL.WYLBUR.MACLIB                      SYSB05    ABORT    AINFO    BASE     BOMB     COLINFO  COMMENT
                                                              CONTROL  CP       CPLOCAL  CV       CVLOCAL  ERROR    JCB
                                                              OSCAN    OSCBACK  OSCINFO  OSCINIT  OSCKW    OSCSET
                                                              OSCTELL  RG       SCANCB   TSEG     TTYPE    VLTORG
                                                              XENTER   XEXIT    XTRACE
   L2 WYL.GG.SYS.MACLIB                             SYSB05    $BC      $BFLKUP  $BV      $CCLKUP  $CRS     $CSS     $L
                                                              $LA      $LBLAD   $LEXP    $LOR     $REL     $RGLKUP
                                                              $USLKUP  ACALL    BEGIN    CEIL     CLEAR    COMPROC
                                                              CSECT    DATA     DECR     DEFCC    DEX      DROP     DTEX
                                                              ELSE     ELSEIF   END      EX       EXIT     FLAG     GEN
                                                              HIBAL    IDENT    IF       INCR     LABEL    LC
                                                              LCALL    LS       LTH      LTORG    MOVE     PEND     POP
                                                              PRINT    PROC     PUSH     QLTORG   RECORD   REG      REGS
                                                              SET      SETMSG   START    USING    VCALL    WHILE    WITH
                                                              XPROC
   L3 SYS3.IS.MACLIB                                SYSB05    SEG      SEGCB    SEGLD    SIB      SYSDEFN  XPOP
                                                              XPUSH

1DOPT     (DOPT2025) (12:42) (15MAR04) Dsect Cross Reference                                                                Page   84
-Dsect     Length      Id       Defn                                                         HLASM R4.0  2004/03/15 12.42
0$$$@R0   00000000  FFFFFFFE     705
 $$$@R1   00000000  FFFFFFFD     718
 $$$@R10  00000000  FFFFFFF4     835
 $$$@R11  00000000  FFFFFFF3     848
 $$$@R12  00000000  FFFFFFF2     861
 $$$@R13  00000000  FFFFFFF1     874
 $$$@R14  00000000  FFFFFFF0     887
 $$$@R15  00000000  FFFFFFEF     900
 $$$@R2   00000000  FFFFFFFC     731
 $$$@R3   00000000  FFFFFFFB     744
 $$$@R4   00000000  FFFFFFFA     757
 $$$@R5   00000000  FFFFFFF9     770
 $$$@R6   00000000  FFFFFFF8     783
 $$$@R7   00000000  FFFFFFF7     796
 $$$@R8   00000000  FFFFFFF6     809
 $$$@R9   00000000  FFFFFFF5     822
 $$$RCP   00001000  FFFFFFEB    2734
 $$$RCV   00000FB0  FFFFFFED    1459
 $$$RDEV  0000000C  FFFFFFEA    4948
 $$$RJCB  000000D0  FFFFFFEE    1151
 $$$RNSCNCB
          000000B0  FFFFFFEC    2655
 $$$RTTYPE
          0000010C  FFFFFFE9    6479
 HIBAL    00000000  FFFFFFFF     691

1DOPT     (DOPT2025) (12:42) (15MAR04) Using Map                                                                            Page   85
-                                                                                            HLASM R4.0  2004/03/15 12.42
   Stmt  -----Location----- Action ----------------Using----------------- Reg Max    Last  Label and Using Text
           Count      Id           Type          Value    Range     Id        Disp   Stmt
0   922  00000000  FFFFFFFF USING  ORDINARY    00000000 00001000 FFFFFFEF  15 00A   15271  @R15,15
    926  00000000  FFFFFFFF USING  ORDINARY    00000000 00001000 FFFFFFF0  14 002    2450  @R14,14
    930  00000000  FFFFFFFF USING  ORDINARY    00000000 00001000 FFFFFFF1  13 00C   15832  @R13,13
    934  00000000  FFFFFFFF USING  ORDINARY    00000000 00001000 FFFFFFF2  12 000          @R12,12
    938  00000000  FFFFFFFF USING  ORDINARY    00000000 00001000 FFFFFFF3  11 000          @R11,11
    942  00000000  FFFFFFFF USING  ORDINARY    00000000 00001000 FFFFFFF4  10 000          @R10,10
    946  00000000  FFFFFFFF USING  ORDINARY    00000000 00001000 FFFFFFF5   9 000          @R9,9
    950  00000000  FFFFFFFF USING  ORDINARY    00000000 00001000 FFFFFFF6   8 026   15929  @R8,8
    954  00000000  FFFFFFFF USING  ORDINARY    00000000 00001000 FFFFFFF7   7 000          @R7,7
    958  00000000  FFFFFFFF USING  ORDINARY    00000000 00001000 FFFFFFF8   6 004   14584  @R6,6
    962  00000000  FFFFFFFF USING  ORDINARY    00000000 00001000 FFFFFFF9   5 006    8475  @R5,5
    966  00000000  FFFFFFFF USING  ORDINARY    00000000 00001000 FFFFFFFA   4 004   13019  @R4,4
    970  00000000  FFFFFFFF USING  ORDINARY    00000000 00001000 FFFFFFFB   3 000          @R3,3
    974  00000000  FFFFFFFF USING  ORDINARY    00000000 00001000 FFFFFFFC   2 001   12556  @R2,2
    978  00000000  FFFFFFFF USING  ORDINARY    00000000 00001000 FFFFFFFD   1 007   12876  @R1,1
    982  00000000  FFFFFFFF USING  ORDINARY    00000000 00001000 FFFFFFFE   0 000          @R0,0
    983  00000000  FFFFFFFF DROP                                            0              0
   1443  00000017  00000001 USING  ORDINARY    00000000 00001000 FFFFFFEB  11 F5C   15929  CP,CPR
   1452  00000017  00000001 USING  ORDINARY    00000000 00001000 FFFFFFED  12 8A8   15928  CV,CVR
   6642  00000088  00000001 USING  ORDINARY    00000088 00001000 00000001   7 964    6829  $$$42B,BR
   6835  000000F2  00000001 USING  ORDINARY    00000000 00001000 FFFFFFF7   7 000          @R7,7
   6854  0000010C  00000001 USING  ORDINARY    0000010C 00001000 00000001   7 000          $$$51B,BR
   6868  0000010E  00000001 USING  ORDINARY    00000000 00001000 FFFFFFF7   7 000          @R7,7
   6871  0000010E  00000001 USING  ORDINARY    0000010E 00001000 00000001   7 85B    6985  $$$52B,7
   6996  0000015A  00000001 USING  ORDINARY    00000000 00001000 FFFFFFF7   7 000          @R7,7
   7015  00000174  00000001 USING  ORDINARY    00000174 00001000 00000001   7 000          $$$58B,BR
   7029  00000176  00000001 USING  ORDINARY    00000000 00001000 FFFFFFF7   7 000          @R7,7
   7032  00000176  00000001 USING  ORDINARY    00000176 00001000 00000001   7 790    7274  $$$59B,7
   7288  00000246  00000001 USING  ORDINARY    00000000 00001000 FFFFFFF7   7 000          @R7,7
   7307  00000260  00000001 USING  ORDINARY    00000260 00001000 00000001   7 739    7456  $$$64B,BR
   7464  000002D6  00000001 USING  ORDINARY    00000000 00001000 FFFFFFF7   7 000          @R7,7
   7485  000002F0  00000001 USING  ORDINARY    000002F0 00001000 00000001   7 6B8    7531  $$$68B,BR
   7552  00000322  00000001 USING  ORDINARY    00000000 00001000 FFFFFFF7   7 000          @R7,7
   7571  0000033C  00000001 USING  ORDINARY    0000033C 00001000 00000001   7 5DC    7720  $$$70B,BR
   7728  000003B0  00000001 USING  ORDINARY    00000000 00001000 FFFFFFF7   7 000          @R7,7
   8019  00000534  00000001 USING  ORDINARY    00000534 00001000 00000001   7 402    8103  $$$86B,BR
   8110  000005A2  00000001 USING  ORDINARY    00000000 00001000 FFFFFFF7   7 000          @R7,7
   8177  00000600  00000001 USING  ORDINARY    00000600 00001000 00000001   7 3BF    8301  $$$88B,BR
   8319  000006AA  00000001 USING  ORDINARY    00000000 00001000 FFFFFFF7   7 000          @R7,7
   8322  000006AA  00000001 USING  ORDINARY    000006AA 00001000 00000001   7 24A    8328  $$$93B,BR
   8337  000006AE  00000001 USING  ORDINARY    00000000 00001000 FFFFFFF7   7 000          @R7,7
   8340  000006AE  00000001 USING  ORDINARY    00000600 00001000 00000001   7 338    8551  COLBASE,7
   8790  00000A7A  00000001 USING  ORDINARY    00000000 00001000 FFFFFFF7   7 000          @R7,7
   8793  00000A7A  00000001 USING  ORDINARY    00000A7A 00001000 00000001   7 4DA    8857  $$$106B,BR
   8863  00000AA6  00000001 USING  ORDINARY    00000000 00001000 FFFFFFF7   7 000          @R7,7
   8883  00000AC0  00000001 USING  ORDINARY    00000AC0 00001000 00000001   7 494    8944  $$$110B,BR
   8950  00000AEE  00000001 USING  ORDINARY    00000000 00001000 FFFFFFF7   7 000          @R7,7
   8970  00000B08  00000001 USING  ORDINARY    00000B08 00001000 00000001   7 56E    9022  $$$114B,BR
   9045  00000B60  00000001 USING  ORDINARY    00000000 00001000 FFFFFFF7   7 000          @R7,7
   9048  00000B60  00000001 USING  ORDINARY    00000B60 00001000 00000001   7 3F4    9092  $$$117B,BR
   9098  00000B82  00000001 USING  ORDINARY    00000000 00001000 FFFFFFF7   7 000          @R7,7
   9113  00000B84  00000001 USING  ORDINARY    00000B84 00001000 00000001  14 3B6    9120  $$$120B,14
   9134  00000B8E  00000001 USING  ORDINARY    00000000 00001000 FFFFFFF0  14 000          @R14,14
1DOPT     (DOPT2025) (12:42) (15MAR04) Using Map                                                                            Page   86
   9137  00000B8E  00000001 USING  ORDINARY    00000B8E 00001000 00000001  14 3AC    9180  $$$121B,14
   9194  00000BB0  00000001 USING  ORDINARY    00000000 00001000 FFFFFFF0  14 000          @R14,14
   9197  00000BB0  00000001 USING  ORDINARY    00000BB0 00001000 00000001  14 38A    9240  $$$124B,14
   9254  00000BD2  00000001 USING  ORDINARY    00000000 00001000 FFFFFFF0  14 000          @R14,14
   9257  00000BD2  00000001 USING  ORDINARY    00000BD2 00001000 00000001  14 368    9261  $$$127B,14
   9279  00000BF8  00000001 USING  ORDINARY    00000BF8 00001000 00000001   7 47E    9306  $$$128B,BR
   9312  00000C16  00000001 USING  ORDINARY    00000000 00001000 FFFFFFF7   7 000          @R7,7
   9331  00000C30  00000001 USING  ORDINARY    00000C30 00001000 00000001   7 446    9358  $$$130B,BR
   9364  00000C4E  00000001 USING  ORDINARY    00000000 00001000 FFFFFFF7   7 000          @R7,7
   9379  00000C50  00000001 USING  ORDINARY    00000000 00001000 FFFFFFF0  14 000          @R14,14
   9382  00000C50  00000001 USING  ORDINARY    00000C50 00001000 00000001  14 2BE    9385  $$$132B,14
   9391  00000C58  00000001 USING  ORDINARY    00000000 00001000 FFFFFFF0  14 000   10845  @R14,14
   9411  00000C76  00000001 USING  ORDINARY    00000C76 00001000 00000001   7 400    9627  $$$133B,BR
   9634  00000D66  00000001 USING  ORDINARY    00000000 00001000 FFFFFFF7   7 000          @R7,7
   9672  00000D80  00000001 USING  ORDINARY    00000D80 00001000 00000001   7 1AB    9954  $$$140B,BR
  10038  00000F54  00000001 USING  ORDINARY    00000000 00001000 FFFFFFF7   7 000          @R7,7
  10041  00000F54  00000001 USING  ORDINARY    00000F54 00001000 00000001   7 000          $$$155B,BR
  10055  00000F56  00000001 USING  ORDINARY    00000000 00001000 FFFFFFF7   7 000          @R7,7
  10058  00000F56  00000001 USING  ORDINARY    00000F56 00001000 00000001   7 172   10203  $$$156B,7
  10225  00001072  00000001 USING  ORDINARY    00000000 00001000 FFFFFFF7   7 000          @R7,7
  10267  00001080  00000001 USING  ORDINARY    00001080 00001000 00000001   7 044   10291  $$$159B,7
  10313  0000109C  00000001 USING  ORDINARY    00000000 00001000 FFFFFFF7   7 000          @R7,7
  10363  000010E4  00000001 USING  ORDINARY    000010E4 00001000 00000001   7 01C   10367  $$$161B,BR
  10379  00001100  00000001 USING  ORDINARY    00000000 00001000 FFFFFFF7   7 000          @R7,7
  10402  0000111A  00000001 USING  ORDINARY    0000111A 00001000 00000001   7 DAE   13105  $$$162B,BR
  13118  00001A36  00000001 USING  ORDINARY    00000000 00001000 FFFFFFF7   7 000          @R7,7
  13229  00001CB8  00000001 USING  ORDINARY    00001CB8 00001000 00000001   7 A26   14136  $$$274B,7
  13534  00001D60  00000001 USING  ORDINARY    00000000 00001000 FFFFFFEA   1 001   13568  DEV,R1
  13585  00001D78  00000001 USING  ORDINARY    00000000 00001000 FFFFFFFD   1 00B   15860  @R1,1
  14166  00001EBA  00000001 USING  ORDINARY    00000000 00001000 FFFFFFF7   7 000          @R7,7
  14200  00001EE2  00000001 USING  ORDINARY    00001EE2 00001000 00000001   7 742   14227  $$$316B,BR
  14239  00001F34  00000001 USING  ORDINARY    00000000 00001000 FFFFFFF7   7 000          @R7,7
  14261  00001F4E  00000001 USING  ORDINARY    00001F4E 00001000 00000001   7 75D   14405  $$$319B,BR
  14411  0000201A  00000001 USING  ORDINARY    00000000 00001000 FFFFFFF7   7 000          @R7,7
  14443  00002034  00000001 USING  ORDINARY    00002034 00001000 00000001   7 58C   14592  $$$325B,BR
  14477  00002052  00000001 DROP                                            2              2
  14481  00002058  00000001 USING  ORDINARY    00000000 00001000 FFFFFFFC   2 000          @R2,2
  14606  000020B2  00000001 USING  ORDINARY    00000000 00001000 FFFFFFF7   7 000          @R7,7
  14679  000021CC  00000001 USING  ORDINARY    000021CC 00001000 00000001   7 40C   14959  $$$334B,7
  14973  0000226A  00000001 USING  ORDINARY    00000000 00001000 FFFFFFF7   7 000          @R7,7
  15024  00002292  00000001 USING  ORDINARY    00002292 00001000 00000001   7 452   15077  $$$352B,7
  15102  000022B8  00000001 USING  ORDINARY    00000000 00001000 FFFFFFF7   7 000          @R7,7
  15147  000022E0  00000001 USING  ORDINARY    000022E0 00001000 00000001   7 40A   15315  $$$359B,7
  15338  00002354  00000001 USING  ORDINARY    00000000 00001000 FFFFFFF7   7 000          @R7,7
  15371  00002370  00000001 USING  ORDINARY    00002370 00001000 00000001  15 220   15373  $$$370B,15
  15381  0000237E  00000001 USING  ORDINARY    00000000 00001000 FFFFFFEF  15 000          @R15,15
  15396  00002380  00000001 USING  ORDINARY    00002380 00001000 00000001  15 32E   15398  $$$371B,15
  15405  00002388  00000001 USING  ORDINARY    00000000 00001000 FFFFFFEF  15 000          @R15,15
  15425  000023A2  00000001 USING  ORDINARY    000023A2 00001000 00000001   7 34E   15719  $$$372B,BR
  15767  000024AC  00000001 USING  ORDINARY    00000000 00001000 FFFFFFF7   7 000          @R7,7
  15770  000024AC  00000001 USING  ORDINARY    000024AC 00001000 00000001   7 000          $$$381B,7
  15813  000024B8  00000001 USING  ORDINARY    00000000 00001000 FFFFFFF7   7 000          @R7,7
  15816  000024B8  00000001 USING  ORDINARY    000023A2 00001000 00000001   7 000          $$$372B,7
  15847  000024E0  00000001 USING  ORDINARY    00000000 00001000 FFFFFFF7   7 000          @R7,7
  15850  000024E0  00000001 USING  ORDINARY    000024E0 00001000 00000001   7 38F   15926  $$$384B,BR
  15940  00002562  00000001 USING  ORDINARY    00000000 00001000 FFFFFFF7   7 000          @R7,7

1         (DOPT2025) (12:42) (15MAR04) General Purpose Register Cross Reference                                             Page   87
- Register  References (M=modified, B=branch, U=USING, D=DROP, N=index)                      HLASM R4.0  2004/03/15 12.42
0    0(0)      982U   983D  2379   2447M  2447   2448M  6655   6716M  6728   6763M  6770   6822M  6884   6962M  7045
              7104M  7126M  7172M  7194M  7238M  7256M  7275M  7322   7355M  7371   7423M  7457M  7532M  7586   7619M
              7635   7687M  7721M  8096M  8202M  8229M  8296   8454   8462M  8553   8795M  8833M  8833   8885M  8920M
              8973M  9010M  9011M  9011   9018M  9021M  9115M  9139M  9171M  9199M  9231M  9259M  9282M  9291M  9291
              9300M  9334M  9343M  9343   9352M  9449M  9453M  9455M  9455   9462   9469M  9478M  9481M  9513M  9589M
              9619M  9626M  9695M  9713M  9810M  9837   9873   9910   9922M 10060  10067M 10067  10068M 10120M 10146M
             10146  10153M 10154M 10156M 10184M 10187M 10194M 10196  10204M 10297M 10297  10512M 10512  10587M 10587
             10620M 10668M 10674  10676  10691M 10698M 10738  10818  10863  10917M 10929M 10929  10956M 10971M 10971
             11000M 11026M 11039  11042M 11043M 11045M 11068M 11070  11110M 11124M 11136M 11136  11248  11255  11258M
             11358  11413M 11561M 11580M 11762M 11763M 11772M 11779M 11804  11828  11843M 11895M 11910  11934  11949M
             12001M 12105M 12124M 12183M 12287  12302M 12315M 12315  12322  12378M 12383  12386M 12501M 12502  12537M
             12538M 12543M 12573M 12574  12584M 12584  12602  12728M 12746M 12749M 12800M 12828  12843M 12848  12890M
             12938M 13015M 13057M 13106M 13107  13212  13282M 13300M 13505M 13664M 13682M 13909M 13925M 13947M 14025M
             14062M 14074  14086M 14109M 14109  14114  14115  14174M 14187  14219M 14220  14224  14232M 14248  14327M
             14485M 14485  14486M 14495M 14495  14547  14662  14701M 14717  14737  14762  14981M 15007  15039  15051M
             15057  15110M 15130  15204M 15213  15225M 15231  15346M 15427  15466M 15750  15824M 15855M 15858M
     1(1)      978U  2379   2442M  2443M  2449M  6714   6715M  6762M  6815M  6961M  7054   7097M  7119M  7165M  7187M
              7237M  7249M  7274M  7350M  7422M  7456M  7531M  7614M  7686M  7720M  8034M  8095M  8201M  8228M  8266M
              8296   8415M  8454   8462M  8489M  8489   9017M  9299M  9351M  9384M  9394M  9463M  9463   9464M  9473M
              9473   9477M  9482M  9512M  9575M  9625M  9659   9694M  9712M  9765M  9810   9837   9843M  9843N  9873
              9879M  9879N  9910   9916M  9916N  9922   9974M 10070M 10071  10072M 10084M 10095M 10115M 10139M 10147M
             10153M 10154  10155M 10156  10183M 10554M 10554  10619M 10667M 10674  10676  10686M 10698M 10862  10915M
             10954M 10999M 11021M 11039  11042  11056M 11068M 11082M 11109M 11123M 11193  11248  11254  11258M 11411M
             11560M 11579M 11761M 11763  11764  11774  11788M 11841M 11894M 11947M 12000M 12100M 12123M 12182M 12287
             12297M 12373M 12386M 12573M 12574M 12592M 12600  12601  12723M 12745M 12778M 12799M 12828  12838M 12890M
             12937M 13014M 13056M 13212  13281M 13299M 13500M 13534U 13585U 13659M 13681M 13905M 13924M 13946M 14021M
             14061M 14174M 14187  14232M 14248  14327M 14662  14696M 14951M 14981M 15007  15110M 15130  15203M 15346M
             15465M 15750  15824M 15855M 15860M 15886M 15908M 15923M 15923
     2(2)      974U  2379   6629   6714M  6815   6841   6989M  7002   7281M  7294   7389M  7472   7545M  7558   7653M
              8006   8043M  8164   8286M  8306   8532M  8558B  8777   8870   8957   9032   9266   9318   9398   9590M
              9659   9744M  9773   9974M 10025  10091M 10305M 10389  10492  10570M 10686  10701M 10736  10738M 10741
             10753M 10758  10763M 10772M 10772  10779  10800M 10863M 10896M 10896  11026  11070M 11072M 11124  11358M
             11360M 11370M 11370  11425  11764M 11771M 11774M 11779  11780N 11789M 11789  12010M 12011M 12031  12105
             12205M 12214M 12214  12222  12234M 12243M 12252M 12252  12259  12322M 12326M 12335M 12335  12342  12383M
             12417  12497M 12512M 12512  12521  12526M 12528  12529N 12539M 12542M 12545M 12547  12553M 12555  12556M
             12557  12558  12609M 12610M 12660M 12660N 12661  12664M 12666  12693  12728  12750  12807M 12809  12828
             12848M 12853M 12862M 12862  12869  12890M 13111M 13212  13864M 13937  14174M 14187  14223M 14224  14232M
             14248  14327M 14430  14477D 14479M 14479  14480M 14486N 14598M 14662  14981M 15007  15110M 15130  15346M
             15750  15824M
     3(3)      970U  2379   6629   6841   6989M  7002   7281M  7294   7389M  7472   7545M  7558   7653M  8006   8043M
              8164   8286M  8306   8777   8870   8957   9032   9266   9318   9398   9659   9974M 10025  10071M 10091M
             10155  10305M 10389  10492  10571M 10691  10701M 11424M 11425M 11711  11762  12010  12532  12537  12565
             12601M 12602M 12606M 12609  13111M 13212  14174M 14187  14232M 14248  14327M 14430  14458M 14522M 14547
             14579M 14598M 14662  14981M 15007  15110M 15130  15346M 15750  15824M
     4(4)      966U  2379   6629   6841   6989M  7002   7281M  7294   7389M  7472   7545M  7558   7653M  8006   8043M
              8164   8286M  8306   8373M  8373   8393M  8431M  8431   8777   8870   8957   9032   9266   9318   9398
              9659   9974M 10025  10061M 10089  10091M 10305M 10389  10492  10573M 10701M 10862M 11021  11043  11069M
             11123  11194  11254M 11357M 11424  11427  11649M 11658  11711  11761  11780M 11780  11782  11784M 11784N
             12005M 12005N 12011  12014  12100  12387M 12387N 12532  12534  12538  12539  12545  12550  12557M 12565
             12567  12600M 12603  12608M 12608N 12610  12659M 12723  13111M 13212  14174M 14187  14232M 14248  14327M
             14430  14457M 14512  14521M 14561M 14570M 14570  14598M 14662  14981M 15007  15110M 15130  15346M 15750
             15824M
     5(5)      962U  2379   6629   6841   6989M  7002   7281M  7294   7389M  7472   7545M  7558   7653M  8006   8043M
              8164   8246M  8286M  8306   8343M  8777   8870   8957   9032   9266   9318   9398   9450M  9454M  9466B
              9659   9974M 10025  10060M 10068  10079M 10083M 10091M 10094M 10094N 10095  10120  10147  10305M 10389
1         (DOPT2025) (12:42) (15MAR04) General Purpose Register Cross Reference                                             Page   88
             10483M 10492  10574M 10701M 11661  11662  11663  11664  11665  11701  11702  12009M 12498M 12502  12529M
             12529  12558M 12561  12562M 12657  12751M 12778  13018  13111M 13212  14174M 14187  14232M 14248  14327M
             14430  14453M 14454M 14454  14469M 14469  14586M 14598M 14662  14981M 15007  15110M 15130  15346M 15750
             15824M
     6(6)      958U  2379   6629   6841   6989M  7002   7054M  7097   7165   7249   7281M  7294   7389M  7472   7545M
              7558   7653M  8006   8043M  8164   8257M  8286M  8306   8777   8870   8957   9032   9266   9318   9398
              9659   9758M  9974M 10025  10079M 10082M 10091M 10092B 10123M 10126M 10205B 10305M 10389  10482M 10482
             11707M 12009  12498  12499M 12499  12502N 12503M 12521M 12522  12547M 12548  12562  12658  12661M 12749
             12750M 12751  13032M 13032  13067  13073  13103M 13103  13106  13111M 13212  14174M 14187  14232M 14248
             14327M 14430  14450M 14584M 14598M 14662  14981M 15007  15110M 15130  15346M 15750  15824M
     7(7)      954U  2372M  2372   2373B  2379   2385B  6629   6632M  6642U  6835U  6841   6844M  6854U  6858M  6868U
              6871U  6989M  6996U  7002   7005M  7015U  7019M  7029U  7032U  7281M  7288U  7294   7297M  7307U  7389M
              7464U  7472   7475M  7485U  7545M  7552U  7558   7561M  7571U  7653M  7728U  8006   8009M  8019U  8043M
              8110U  8164   8167M  8177U  8286M  8306   8309M  8319U  8322U  8328M  8337U  8340U  8777   8780M  8790U
              8793U  8863U  8870   8873M  8883U  8950U  8957   8960M  8970U  9032   9035M  9045U  9048U  9098U  9266
              9269M  9279U  9312U  9318   9321M  9331U  9364U  9398   9401M  9411U  9634U  9659   9662M  9672U  9974M
             10025  10028M 10038U 10041U 10045M 10055U 10058U 10091M 10225U 10257M 10267U 10305M 10313U 10350  10353M
             10372M 10379U 10389  10392M 10402U 13111M 13118U 13212  13217M 13229U 14166U 14174M 14187  14190M 14200U
             14232M 14239U 14248  14251M 14261U 14327M 14411U 14430  14433M 14443U 14598M 14606U 14662  14667M 14679U
             14973U 14981M 15007  15012M 15024U 15102U 15110M 15130  15135M 15147U 15338U 15346M 15412  15415M 15513M
             15750  15755M 15767U 15770U 15813U 15816U 15824M 15834  15837M 15933M 15940U
     8(8)      950U  2379   6629   6630M  6841   6842M  6987   6989M  7002   7003M  7279   7281M  7294   7295M  7387
              7389M  7472   7473M  7543   7545M  7558   7559M  7651   7653M  8006   8007M  8041   8043M  8164   8165M
              8284   8286M  8306   8307M  8777   8778M  8870   8871M  8957   8958M  9032   9033M  9266   9267M  9318
              9319M  9398   9399M  9659   9660M  9972   9974M 10025  10026M 10090  10091M 10304  10305M 10350  10351M
             10370  10372M 10389  10390M 13109  13111M 13212  13213M 14170  14174M 14187  14188M 14230  14232M 14248
             14249M 14325  14327M 14430  14431M 14596  14598M 14662  14663M 14977  14981M 15007  15008M 15106  15110M
             15130  15131M 15342  15346M 15412  15413M 15511  15513M 15750  15751M 15820  15824M 15834  15835M 15931
             15933M
     9(9)      946U  2379
    10(A)      942U  2379
    11(B)      938U  1443U  2379
    12(C)      934U  1452U  2379
    13(D)      930U  2379   6629   6630   6631M  6631   6841   6842   6843M  6843   6987M  6988   6989   7002   7003
              7004M  7004   7279M  7280   7281   7294   7295   7296M  7296   7387M  7388   7389   7472   7473   7474M
              7474   7543M  7544   7545   7558   7559   7560M  7560   7651M  7652   7653   8006   8007   8008M  8008
              8041M  8042   8043   8164   8165   8166M  8166   8246   8247M  8247   8284M  8285   8286   8306   8307
              8308M  8308   8343   8344M  8344   8454   8455M  8455   8461M  8462   8777   8778   8779M  8779   8870
              8871   8872M  8872   8957   8958   8959M  8959   9032   9033   9034M  9034   9266   9267   9268M  9268
              9318   9319   9320M  9320   9398   9399   9400M  9400   9575   9576M  9576   9596M  9659   9660   9661M
              9661   9972M  9973   9974  10025  10026  10027M 10027  10090M 10196  10197M 10197  10203M 10204  10304M
             10350  10351  10352M 10352  10370M 10371  10372  10389  10390  10391M 10391  10492  10493M 10493  10676
             10677M 10677  10697M 10698  10700M 10701  10736  10737M 10737  10799M 10800  11034  11035M 11035  11039
             11040M 11040  11067M 11068  11114M 11248  11249M 11249  11257M 11258  12287  12288M 12288  12385M 12386
             12828  12829M 12829  12889M 12890  13109M 13110  13111  13209  13212  13213  13214M 13214  14170M 14174
             14176  14187  14188  14189M 14189  14230M 14231  14232  14248  14249  14250M 14250  14325M 14326  14327
             14430  14431  14432M 14432  14596M 14597  14598  14659  14662  14663  14664M 14664  14977M 14981  14983
             15004  15007  15008  15009M 15009  15106M 15110  15112  15127  15130  15131  15132M 15132  15342M 15346
             15348  15412  15413  15414M 15414  15511M 15512  15513  15747  15750  15751  15752M 15752  15820M 15824
             15826  15834  15835  15836M 15836  15931M 15932  15933
    14(E)      926U  2379   2380M  2394   2395M  2396B  2398M  2399B  2419M  2420B  2424M  2425B  2427M  2428B  2430M
              2431B  2433M  2434B  2436M  2437M  2437B  2443   6627   6756M  6757M  6757B  6839   6988M  6990B  7000
              7107M  7108M  7108B  7129M  7130M  7130B  7175M  7176M  7176B  7197M  7198M  7198B  7230M  7231M  7231B
              7267M  7268M  7268B  7280M  7282B  7292   7382M  7383M  7383B  7388M  7390B  7415M  7416M  7416B  7449M
              7450M  7450B  7470   7490M  7491M  7491B  7525M  7526M  7526B  7544M  7546B  7556   7646M  7647M  7647B
              7652M  7654B  7679M  7680M  7680B  7713M  7714M  7714B  7830B  7840B  7844B  7857B  7878B  7900B  7923B
              7934B  7937B  7949B  7963B  7967B  7976B  7986B  8004   8037M  8038M  8038B  8042M  8044B  8088M  8089M
              8089B  8134B  8150B  8162   8243M  8244M  8244B  8269M  8270M  8270B  8285M  8287B  8299M  8300M  8300B
              8304   8418M  8419M  8419B  8458M  8459M  8459B  8509M  8510   8532   8551M  8552M  8552B  8611B  8627B
1         (DOPT2025) (12:42) (15MAR04) General Purpose Register Cross Reference                                             Page   89
              8643B  8652B  8662B  8775   8855M  8856M  8856B  8868   8942M  8943M  8943B  8955   9030   9088M  9089M
              9089B  9103M  9113U  9124M  9134U  9137U  9184M  9194U  9197U  9244M  9254U  9257U  9264   9316   9369M
              9379U  9382U  9391U  9396   9459M  9460M  9460B  9466M  9508M  9509M  9509B  9553M  9554M  9554B  9593M
              9594M  9594B  9657   9706M  9707M  9707B  9768M  9769M  9769B  9808M  9809M  9809B  9937M  9938M  9938B
              9941M  9942M  9942B  9973M  9976B 10023  10065M 10066M 10066B 10087M 10088M 10088B 10105M 10106M 10106B
             10118M 10119M 10119B 10129M 10130M 10130B 10142M 10143M 10143B 10150M 10151M 10151B 10179M 10180M 10180B
             10200M 10201M 10201B 10291M 10292M 10292B 10293M 10306B 10348  10367M 10371M 10373B 10387  10497M 10498M
             10498B 10501M 10502M 10502B 10557M 10558M 10558B 10577M 10578M 10578B 10694M 10695M 10695B 10705M 10706M
             10706B 10819M 11011M 11012M 11012B 11063M 11064M 11064B 11085M 11086M 11086B 11252M 11253M 11253B 11572M
             11573M 11573B 11781M 11812B 11836B 11887M 11888M 11888B 11918B 11942B 11993M 11994M 11994B 12116M 12117M
             12117B 12287  12305M 12306M 12306B 12381M 12382M 12382B 12386M 12582M 12583M 12583B 12595M 12596M 12596B
             12739M 12740M 12740B 12793M 12794M 12794B 12828  12846M 12847M 12847B 12890M 13008M 13009M 13009B 13069M
             13110M 13112B 13209  13293M 13294M 13294B 13470M 13471M 13471B 13512M 13513M 13513B 13675M 13676M 13676B
             13759M 13849M 13920M 13921M 13921B 14176M 14179B 14185  14231M 14233B 14246  14286M 14326M 14328B 14428
             14597M 14600B 14659  14704M 14705M 14705B 14954M 14955M 14955B 14983M 14986B 15004  15035M 15036M 15036B
             15112M 15115B 15127  15158M 15159M 15159B 15348M 15351B 15354B 15357B 15375B 15399B 15410  15512M 15514B
             15517B 15533B 15550B 15560B 15564B 15568B 15577B 15587B 15600B 15612B 15621B 15630B 15642B 15658B 15674B
             15705B 15735B 15747  15826M 15829B 15832  15876M 15877M 15877B 15889M 15890M 15890B 15911M 15912M 15912B
             15926M 15927M 15927B 15932M 15934B
    15(F)      922U  2379   6753M  6770M  6774M  6783M  6783   6790   7227M  7264M  7412M  7446M  7487M  7522M  7541M
              7541   7676M  7710M  7965M  7966   8022M  8023   8052   8060M  8085M  8522M  8522   8531   8796M  8886M
              8972M  9091M  9115   9119M  9119   9179M  9179   9239M  9239   9260M  9281M  9333M  9470M  9505M  9519M
              9520M  9521   9605M  9605   9620M  9703M  9970M  9970   9975M  9975  10061  10077M 10077  10089M 10176M
             10187  10191M 10191  10196  10204M 10288M 10818M 10822M 10831M 10831  10838  11008M 11034M 11193M 11194M
             11226M 11226  11255M 11265  11277M 11287M 11296M 11296  11303  11569M 11611M 11612M 11613  11622M 11622
             11713M 11733M 11781B 11788  11884M 11990M 12113M 12287  12386M 12389M 12495M 12550M 12561M 12657M 12658M
             12736M 12790M 12828  12890M 13005M 13100M 13104M 13290M 13672M 13864  13917M 14099M 14099  14115M 14120M
             14129M 14129  14136  14178M 14178  14187  14232M 14248  14327M 14448M 14448  14554M 14594M 14599M 14599
             14958M 14965M 14965  14985M 14985  15057M 15061M 15070M 15070  15077  15114M 15114  15231M 15235M 15244M
             15244  15251  15270M 15350M 15350  15361M 15371U 15381U 15386M 15396U 15405U 15427M 15441  15455  15487M
             15489  15504M 15505M 15506M 15507M 15508M 15508  15509  15516  15562M 15563  15566M 15567  15704  15734
             15828M 15828  15896M 15896  15898  15915M 15915  15917

1DOPT     (DOPT2025) (12:42) (15MAR04) Diagnostic Cross Reference and Assembler Summary                                     Page   90
-                                                                                            HLASM R4.0  2004/03/15 12.42
0     No Statements Flagged in this Assembly
 HIGH LEVEL ASSEMBLER, 5696-234, RELEASE 4.0, PTF P72483
0SYSTEM: OS/390 02.10.00            JOBNAME: WYL#DOPT    STEPNAME: ASM        PROCSTEP: (NOPROC)
0Datasets Allocated for this Assembly
  Con DDname   Dataset Name                                 Volume  Member
   P1 SYSIN    WYL.GS.WYL.WYLBUR.SOURCE                     SYSB05  DOPT
   L1 SYSLIB   WYL.GS.WYL.WYLBUR.MACLIB                     SYSB05
   L2          WYL.GG.SYS.MACLIB                            SYSB05
   L3          SYS3.IS.MACLIB                               SYSB05
   L4          SYS3.MACLIB                                  SYSB02
   L5          SYS1.MACLIB                                  MVSBR9
   L6          SYS1.MODGEN                                  MVSBR9
      SYSPRINT SYS04075.T124257.RA000.WYL#DOPT.PRINT.H01    SCR100
      SYSTERM  GG$SLP.WYL#DOPT.JOB03517.D0000101.?

    3668K allocated to Buffer Pool,         2125K would be required for this to be an In-Storage Assembly
    1957 Primary Input Records Read         6394 Library Records Read                  0 Work File Reads
       0 ASMAOPT Records Read               6899 Primary Print Records Written         0 Work File Writes
       0 Punch Records Written                 0 ADATA Records Written
0Assembly Start Time: 12.42.58 Stop Time: 12.43.05 Processor Time: 00.00.02.8047
 Return Code 000
