1                        J E S 2  J O B  L O G  --  S Y S T E M  S Y S B  --  N O D E  R L G
0
 12.41.59 JOB03515 ---- MONDAY,    15 MAR 2004 ----
 12.41.59 JOB03515  ICH70001I GG$SLP   LAST ACCESS AT 12:41:37 ON MONDAY, MARCH 15, 2004
 12.41.59 JOB03515  $HASP373 WYL#DISK STARTED - INIT 9    - CLASS B - SYS SYSB
 12.41.59 JOB03515  ***  HCMD      STEP $$QUIET
 12.41.59 JOB03515  PUR * Q OUT MUL
 12.41.59 JOB03515  JOB 5378 WYL#DISK WILL BE PURGED
 12.42.00 JOB03515  WYL#DISK.$$QUIET .         RC=Zero TapeIO=0000 DiskIO=0000 CPU=  .01s Elapsed=19.29s
 12.42.22 JOB03515  WYL#DISK.ASM     .         RC=Zero TapeIO=0000 DiskIO=1467 CPU= 7.10s Elapsed=20.41s
 12.42.24 JOB03515  WYL#DISK.EDIT    .         RC=Zero TapeIO=0000 DiskIO=0311 CPU= 1.10s Elapsed=42.50s
 12.42.24 JOB03515  WYL#DISK Ended.  Name=Assemble DISK                  Total CPU= 8.21s Elapsed=19.29s
 12.42.24 JOB03515
 12.42.24 JOB03515  Execution charges   Priority=Standard   Block=Day
 12.42.24 JOB03515
 12.42.24 JOB03515  CPU Usage         150.56          $93.34   Standard Processing Unit Equivalent
 12.42.24 JOB03515                                   =======
 12.42.24 JOB03515                                    $93.34   Total Job execution charge
 12.42.24 JOB03515
 12.42.24 JOB03515  See back separator page for print charges
 12.42.24 JOB03515
 12.42.24 JOB03515  $HASP395 WYL#DISK ENDED  ASM=0, EDIT=0
1        1 //WYL#DISK JOB SLP$GG,'Assemble DISK',TIME=4,REGION=4M                  JOB03515
           //*
           /*JOBPARM LINES=99,COPIES=1
           /*JOBPARM FORMS=3HOL,PFORMAT=LAND,CHARS=BD13,DUPLEX=YES,FLASH=BAR4
           //*
           /*JOBPARM NOTIFY=GG.SLP,HOLD=OUTPUT                                     WYLGEN
         2 //$$QUIET EXEC PGM=HCMDX,PARM='PUR * Q OUT MUL'
           //*
         3 //ASM    EXEC PGM=ASMA90,REGION=8M,
           //            PARM=('NORENT,TERM,FLAG(NOCONT),US(MAP,WARN(10)),NODECK',
           //            'LC(32767),XREF(SHORT),ESD,DXREF,NOOBJECT')
         4 //STEPLIB DD DSN=SYS3.IS.TESTASM,DISP=SHR
         5 //SYSLIB   DD  DSN=WYL.GS.WYL.WYLBUR.MACLIB,DISP=SHR
         6 //         DD  DSN=WYL.GG.SYS.MACLIB,DISP=SHR
         7 //         DD  DSN=SYS3.IS.MACLIB,DISP=SHR
         8 //         DD  DSN=SYS3.MACLIB,DISP=SHR
         9 //         DD  DSN=SYS1.MACLIB,DISP=SHR
        10 //         DD  DSN=SYS1.MODGEN,DISP=SHR
        11 //SYSUT1   DD DSN=&&SYSUT1,UNIT=VIO,DISP=(,DELETE),
           //            SPACE=(4088,(500,250),,CONTIG,ROUND)
        12 //SYSTERM  DD SYSOUT=T
        13 //SYSPRINT DD DSN=&&PRINT,UNIT=SYSDA,DISP=(,PASS),
           //            SPACE=(6650,(250,250),RLSE),
           //            DCB=(BLKSIZE=6650,LRECL=133,RECFM=FB)
        14 //SYSUDUMP DD SYSOUT=A
        15 //SYSIN    DD  DSN=WYL.GS.WYL.WYLBUR.SOURCE(DISK),DISP=SHR
           //*
        16 //EDIT    EXEC PGM=ASMEDIT,TIME=2,REGION=4000K,
           //             PARM='STMT'
        17 //STEPLIB  DD  DSN=WYL.GG.SYS.LINKLIB,DISP=SHR
        18 //ASMOUT   DD  DSN=&PRINT,DISP=(OLD,DELETE)
        19 //SYSPRINT DD  SYSOUT=A
1 STMT NO. MESSAGE
 -
        11 IGD01010I STORCLAS= TEMP STORGROUP =
        11 IGD01010I STORGRP=VIO ASSIGNED.
        13 IGD01010I STORCLAS= TEMP STORGROUP =
        13 IGD01010I STORGRP=VIO ASSIGNED.
 ICH70001I GG$SLP   LAST ACCESS AT 12:41:37 ON MONDAY, MARCH 15, 2004
 IEF142I WYL#DISK $$QUIET - STEP WAS EXECUTED - COND CODE 0000
 *********************************************************************************
 *   WYL#DISK/$$QUIET /                    Return Code      Zero                 *
 *   Region used      260K (16K user + 244K system)                              *
 *   Extended region  9464K (4K user + 9460K system)                             *
 *                                                                               *
 *   Paging              In      Out                                             *
 *   Private <-> Aux      0        0       CPU time (TCB)   00:00:00.01          *
 *   Private <-> Exp      0        0       CPU time (SRB)   00:00:00.00          *
 *   VIO                  0        0       Elapsed time    917:45:53.67          *
 *   Common               0      ---                                             *
 *                                                                               *
 *                                                                               *
 *   CPU Usage          0.18         $0.11  Standard Processing Unit Equivalent  *
 *                                   $0.11  Total Step execution charge          *
 *                                                                               *
 *    I/O count  DDname   Type Addr           I/O count  DDname   Type Addr      *
 *                         *** No I/O for this step ***                          *
 *********************************************************************************
 IEF373I STEP/$$QUIET /START 2004075.1241
 IEF374I STEP/$$QUIET /STOP  2004075.1242 CPU    0MIN 00.01SEC SRB    0MIN 00.00SEC VIRT    16K SYS   244K EXT       4K SYS    9460K
 IEF236I ALLOC. FOR WYL#DISK ASM
 IEF237I 04DC ALLOCATED TO STEPLIB
 IEF237I 04DC ALLOCATED TO SYSLIB
 IEF237I 04DC ALLOCATED TO
 IEF237I 04DC ALLOCATED TO
 IEF237I 0402 ALLOCATED TO
 IEF237I 04A0 ALLOCATED TO
 IEF237I 04A0 ALLOCATED TO
 IGD101I SMS ALLOCATED TO DDNAME (SYSUT1  )
         DSN (SYS04075.T124159.RA000.WYL#DISK.SYSUT1.H01  )
         STORCLAS (TEMP) MGMTCLAS (        ) DATACLAS (        )
         VOL SER NOS= VIO
 IEF237I JES2 ALLOCATED TO SYSTERM
 IGD101I SMS ALLOCATED TO DDNAME (SYSPRINT)
         DSN (SYS04075.T124159.RA000.WYL#DISK.PRINT.H01   )
         STORCLAS (TEMP) MGMTCLAS (        ) DATACLAS (        )
         VOL SER NOS= SCR101
 IEF237I JES2 ALLOCATED TO SYSUDUMP
 IEF237I 04DC ALLOCATED TO SYSIN
 IEF142I WYL#DISK ASM - STEP WAS EXECUTED - COND CODE 0000
 IEF285I   SYS3.IS.TESTASM                              KEPT
 IEF285I   VOL SER NOS= SYSB05.
 IEF285I   WYL.GS.WYL.WYLBUR.MACLIB                     KEPT
 IEF285I   VOL SER NOS= SYSB05.
 IEF285I   WYL.GG.SYS.MACLIB                            KEPT
 IEF285I   VOL SER NOS= SYSB05.
 IEF285I   SYS3.IS.MACLIB                               KEPT
 IEF285I   VOL SER NOS= SYSB05.
 IEF285I   SYS3.MACLIB                                  KEPT
 IEF285I   VOL SER NOS= SYSB02.
 IEF285I   SYS1.MACLIB                                  KEPT
 IEF285I   VOL SER NOS= MVSBR9.
 IEF285I   SYS1.MODGEN                                  KEPT
 IEF285I   VOL SER NOS= MVSBR9.
 IGD105I SYS04075.T124159.RA000.WYL#DISK.SYSUT1.H01   DELETED,   DDNAME=SYSUT1
 IEF285I   GG$SLP.WYL#DISK.JOB03515.D0000101.?          SYSOUT
 IGD106I SYS04075.T124159.RA000.WYL#DISK.PRINT.H01    PASSED,    DDNAME=SYSPRINT
 IEF285I   GG$SLP.WYL#DISK.JOB03515.D0000102.?          SYSOUT
 IEF285I   WYL.GS.WYL.WYLBUR.SOURCE                     KEPT
 IEF285I   VOL SER NOS= SYSB05.
 *********************************************************************************
 *   WYL#DISK/ASM     /                    Return Code      Zero                 *
 *   Region used      4376K (4096K user + 280K system)                           *
 *   Extended region  10096K (412K user + 9684K system)                          *
 *                                                                               *
 *   Paging              In      Out                                             *
 *   Private <-> Aux      0        0       CPU time (TCB)   00:00:06.95          *
 *   Private <-> Exp      0        0       CPU time (SRB)   00:00:00.15          *
 *   VIO                  0        0       Elapsed time    917:45:52.55          *
 *   Common               0      ---                                             *
 *                                                                               *
 *                                                                               *
 *   CPU Usage        130.31        $80.79  Standard Processing Unit Equivalent  *
 *                                  $80.79  Total Step execution charge          *
 *                                                                               *
 *    I/O count  DDname   Type Addr           I/O count  DDname   Type Addr      *
 *           84  STEPLIB  Disk 04DC                 399  SYSLIB   Disk 04DC      *
 *            0  SYSLIB   Disk 04DC                   0  SYSLIB   Disk 04DC      *
 *            3  SYSLIB   Disk 0402                 660  SYSLIB   Disk 04A0      *
 *            0  SYSLIB   Disk 04A0               2,478  SYSUT1   VIO  ----      *
 *            0  SYSTERM       ----                 308  SYSPRINT Disk 04E3      *
 *            0  SYSUDUMP      ----                  13  SYSIN    Disk 04DC      *
 *********************************************************************************
 IEF373I STEP/ASM     /START 2004075.1242
 IEF374I STEP/ASM     /STOP  2004075.1242 CPU    0MIN 06.95SEC SRB    0MIN 00.15SEC VIRT  4096K SYS   280K EXT     412K SYS    9684K
 IEF236I ALLOC. FOR WYL#DISK EDIT
 IEF237I 0402 ALLOCATED TO STEPLIB
 IGD103I SMS ALLOCATED TO DDNAME ASMOUT
 IEF237I JES2 ALLOCATED TO SYSPRINT
 IEF142I WYL#DISK EDIT - STEP WAS EXECUTED - COND CODE 0000
 IEF285I   WYL.GG.SYS.LINKLIB                           KEPT
 IEF285I   VOL SER NOS= SYSB02.
 IGD105I SYS04075.T124159.RA000.WYL#DISK.PRINT.H01    DELETED,   DDNAME=ASMOUT
 IEF285I   GG$SLP.WYL#DISK.JOB03515.D0000103.?          SYSOUT
 *********************************************************************************
 *   WYL#DISK/EDIT    /                    Return Code      Zero                 *
 *   Region used      380K (116K user + 264K system)                             *
 *   Extended region  9592K (4K user + 9588K system)                             *
 *                                                                               *
 *   Paging              In      Out                                             *
 *   Private <-> Aux      0        0       CPU time (TCB)   00:00:01.07          *
 *   Private <-> Exp      0        0       CPU time (SRB)   00:00:00.03          *
 *   VIO                  0        0       Elapsed time    917:45:30.46          *
 *   Common               0      ---                                             *
 *                                                                               *
 *                                                                               *
 *   CPU Usage         20.06        $12.43  Standard Processing Unit Equivalent  *
 *                                  $12.43  Total Step execution charge          *
 *                                                                               *
 *    I/O count  DDname   Type Addr           I/O count  DDname   Type Addr      *
 *            2  STEPLIB  Disk 0402                 309  ASMOUT   Disk 04E3      *
 *            0  SYSPRINT      ----                                              *
 *********************************************************************************
 IEF373I STEP/EDIT    /START 2004075.1242
 IEF374I STEP/EDIT    /STOP  2004075.1242 CPU    0MIN 01.07SEC SRB    0MIN 00.03SEC VIRT   116K SYS   264K EXT       4K SYS    9588K
 *********************************************************************************
 *                                                                               *
 *                      S t a n f o r d   U n i v e r s i t y                    *
 *                                                                               *
 *                              *** Job Summary ***                              *
 *                                                                               *
 *   System Id      SYSB                   Input time     12:39:16  Mar 15, 2004 *
 *                                                                               *
 *   System Release SP6.1.0                Start time     12:41:59  Mar 15, 2004 *
 *                                                                               *
 *   Job name       WYL#DISK               Stop  time     00:00:00  Mar 15, 2004 *
 *                                                                               *
 *   Account        SLP$GG                 Elapsed time  917:45:53.67            *
 *                                                                               *
 *   User Name      Assemble DISK          CPU time       00:00:08.03            *
 *                                                                               *
 *   Job class      B                      SRB Time       00:00:00.18            *
 *                                                                               *
 *********************************************************************************
 IEF375I  JOB/WYL#DISK/START 2004075.1241
 IEF376I  JOB/WYL#DISK/STOP  2004075.1242 CPU    0MIN 08.03SEC SRB    0MIN 00.18SEC
1Assembler Done DISK No Statements Flagged
1         High Level Assembler Option Summary                   (PTF P72483 )                                               Page    1
-                                                                                            HLASM R4.0  2004/03/15 12.42
0  No Overriding ASMAOPT Parameters
   Overriding Parameters-  NORENT,TERM,FLAG(NOCONT),US(MAP,WARN(10)),NODECK,LC(32767),XREF(SHORT),ESD,DXREF,NOOBJECT
   No Process Statements


   Options for this Assembly
0  NOADATA
     ALIGN
   NOASA
     BATCH
     CODEPAGE(047C)
   NOCOMPAT
   NODBCS
 3 NODECK
 3   DXREF
 3   ESD
   NOEXIT
 3   FLAG(0,ALIGN,NOCONT,NOIMPLEN,NOPAGE0,PUSH,RECORD,NOSUBSTR,USING0)
   NOFOLD
   NOGOFF
   NOINFO
     LANGUAGE(EN)
   NOLIBMAC
 3   LINECOUNT(32767)
     LIST(121)
     MXREF(SOURCE)
 3 NOOBJECT
     OPTABLE(UNI,NOLIST)
   NOPCONTROL
   NOPESTOP
   NOPROFILE
   NORA2
 3 NORENT
     RLD
     RXREF
     SIZE(MAX)
     SYSPARM()
 3   TERM(WIDE)
   NOTEST
     THREAD
   NOTRANSLATE
 3   USING(NOLIMIT,MAP,WARN(10))
 3   XREF(SHORT)

   No Overriding DD Names

1DISK     External Symbol Dictionary                                                                                        Page    2
-Symbol   Type   Id     Address  Length     LD ID  Flags Alias-of                            HLASM R4.0  2004/03/15 12.42
0WYLDISK   SD 00000001 00000000 0000478B             00
 DISK4072  LD          00000000           00000001
 IOWASIZE  LD          00000018           00000001
 DISKINIT  LD          0000001C           00000001
 IOWRSG    ER 00000002
 QRSC      ER 00000003
 BTD       ER 00000004
 DISKSTOP  LD          00000670           00000001
 DSKOPEN   LD          000006F0           00000001
 DSKREAD   LD          00000788           00000001
 MNULL     ER 00000005
 MLNO      ER 00000006
 MALL      ER 00000007
 MINT      ER 00000008
 DOPEN     ER 00000009
 ACSCHECK  ER 0000000A
 NTGDOPN   ER 0000000B
 CHKMBRIG  ER 0000000C
 UNPRESS   ER 0000000D
 DREAD     ER 0000000E
 RDERROR   ER 0000000F
 EDITCK    ER 00000010
 ADDER     ER 00000011
 PRESS     ER 00000012
 NSCAN     ER 00000013
 SEGB      ER 00000014
 EXTCLOSE  ER 00000015
 LASTLINE  ER 00000016
 DSKWRITE  LD          00000FF2           00000001
 DSKCLOSE  LD          00001274           00000001
 RDERROR   LD          000012D6           00000001
 DENQ      LD          00001330           00000001
 DDEQ      LD          000013FE           00000001
 DENQTEST  LD          000014D2           00000001
 DENQFREE  LD          00001540           00000001
 CVEXNO    ER 00000017
 EOV       ER 00000018
 SEGWR     ER 00000019
 GETCORE   ER 0000001A
 FREECORE  ER 0000001B
 DOPEN     LD          000016F4           00000001
 GETRSC    ER 0000001C
 PFREEA    ER 0000001D
 PFREEB    ER 0000001E
 ACEESET   ER 0000001F
 WAITOFF   ER 00000020
 WAITON    ER 00000021
 ACCESS    ER 00000022
 KWIO      ER 00000023
 AMODE24   ER 00000024
 AMODE31   ER 00000025
 RACGREM   ER 00000026
 EXIT4     ER 00000027
 SEGCR     ER 00000028
 OPENINIT  LD          00002800           00000001
1DISK     External Symbol Dictionary                                                                                        Page    3
 OPENENQ   LD          000028A6           00000001
 WYLDISK2  SD 00000029 00004790 0000008C             00
 VOLCHK    LD          00002AE2           00000001
 CLRJFCB   LD          00002CB4           00000001
 DREAD     LD          00002D98           00000001
 DWRITE    LD          00002E7A           00000001
 DCLOSE    LD          00002F1A           00000001
 SMFLOG    ER 0000002A
 ACEECLR   ER 0000002B
 FREERSC   ER 0000002C
 VDALLO    LD          00003486           00000001
 VALLOCAT  LD          00003538           00000001
 DISPATCH  ER 0000002D
 DYNALLOC  ER 0000002E
 UPDTSPAC  LD          000037A4           00000001
 WAITOFF   LD          000040C8           00000001
 EXIT5     ER 0000002F
 PMARKA    ER 00000030
 CV        ER 00000031
 WAITON    LD          0000424A           00000001
 WYLVOL    LD          000042C4           00000001
 CALCTRK   LD          000042CA           00000001
 CATER     LD          000043BA           00000001
 DISKCLCK  LD          00004658           00000001
 DISKSCB   LD          00004660           00000001
 SEG       ER 00000032
 SEGTB     ER 00000033
 SEGT      ER 00000034

1DISK     WYLBUR'S Disk I/O Routines                                                                                        Page    4
0Loc    Object Code    Addr1 Addr2  Stmt Lv Lineno    Source Statement                    (Asmedit 3.3)  HLASM R4.0  2004/03/15 12.42
+___    ______ ____    _____ _____  ____ __ ______    ______ _________
0                                      2              *******************************************************************
                                       3              *                                                                 *
                                       4              *     WYLBUR/370 - Release VI - Class I - Stanford Proprietary    *
                                       5              *                                                                 *
                                       6              *******************************************************************
0                                      8                       HIBAL
                                     989
 000000                00000 0478B   990              WYLDISK  CSECT
                                     994              DISK     IDENT 4072                10:30:06 03/12/04  (SLP)
                                     997             +
                                     998    01-IDENT +         ENTRY DISK4072
                                     999             +
 000000 16C4C9E2D2F4F0F7            1000    01-IDENT +DISK4072 DC    AL1(22),C'DISK4072,15MAR04,12:42'
                                    1001             +*
-                                   1004                       SYSDEFN ,                 Define installation params
                                    1005
                                    1006                       GBLC  &INSTALN,&PUBUSER,&PUBGRP,&PUBVOL
                                    1007                       GBLB  &SETKWVL
                                    1008
1DISK     (DISK4072) (12:42) (15MAR04) WYLBUR'S Disk I/O Routines                                                           Page    5
0Loc    Object Code    Addr1 Addr2  Stmt Lv Lineno    Source Statement           (Hibal 5, Asmedit 3.3)  HLASM R4.0  2004/03/15 12.42
+___    ______ ____    _____ _____  ____ __ ______    ______ _________
0                                   1010                       ¿þþþþþþþþþþþþþþþþþþþþþþþþþþþþþþþþþþþþþþþþþþþþþþþþþþþþþþþþÜ
                                    1011                       Ÿ  MACRO DEFINITION FOR INITIALIZING CAMLIST ENTRIES IN  Ÿ
                                    1012                       Ÿ  WYLBUR'S I/O WORK AREA.                               Ÿ
                                    1013                       ¾þþþþþþþþþþþþþþþþþþþþþþþþþþþþþþþþþþþþþþþþþþþþþþþþþþþþþþþþ»
0                                   1015                       MACRO
                                    1016                       CAMINIT &NAME,&FLAGS,&A1,&A2,&A3
                                    1017                       LCLA  &CNTR
                                    1018                       AIF   (T'&FLAGS EQ 'O').NOFLAGS
                                    1019                       AIF   ('&FLAGS'(1,1) EQ '(').PAREND
                                    1020                       MVI   &NAME,&FLAGS
                                    1021                       AGO   .NOFLAGS
                                    1022              .PAREND  ANOP  ,
                                    1023              &CNTR    SETA  0                   SET COUNTER LOOP CONTROL
                                    1024              .NXTFLG  ANOP  ,
                                    1025                       AIF   (&CNTR GT 4).NOFLAGS
                                    1026              &CNTR    SETA  &CNTR+1             BUMP TO NEXT POTENTIAL FLAG
                                    1027                       AIF   (T'&FLAGS(&CNTR) EQ 'O').NXTFLG
                                    1028                       MVI   &NAME+&CNTR-1,&FLAGS(&CNTR)
                                    1029                       AGO   .NXTFLG
                                    1030              .NOFLAGS ANOP  ,
                                    1031                       AIF   (T'&A1 EQ 'O').NOA1
                                    1032                       LA    R0,&A1              GENERATE ADDRESS OF A1
                                    1033                       ST    R0,&NAME+4          SAVE INTO CAMLIST AREA
                                    1034              .NOA1    ANOP  ,
                                    1035                       AIF   (T'&A2 EQ 'O').NOA2
                                    1036                       LA    R0,&A2              GENERATE ADDRESS OF A2
                                    1037                       ST    R0,&NAME+8          SAVE INTO CAMLIST AREA
                                    1038              .NOA2    ANOP  ,
                                    1039                       AIF   (T'&A3 EQ '0').NOA3
                                    1040                       LA    R0,&A3              GENERATE ADDRESS OF A3
                                    1041                       ST    R0,&NAME+12         SAVE INTO CAMLIST AREA
                                    1042              .NOA3    ANOP  ,
                                    1043                       MEND
1DISK     (DISK4072) (12:42) (15MAR04) WYLBUR'S Disk I/O Routines                                                           Page    6
0Loc    Object Code    Addr1 Addr2  Stmt Lv Lineno    Source Statement           (Hibal 5, Asmedit 3.3)  HLASM R4.0  2004/03/15 12.42
+___    ______ ____    _____ _____  ____ __ ______    ______ _________
0                                   1045                       ¿þþþþþþþþþþþþþþþþþþÜ
                                    1046                       Ÿ  register usage  Ÿ
                                    1047                       ¾þþþþþþþþþþþþþþþþþþ»
                                    1048                       REGS  FSR,,,,,JCBR,IOWAR,BR,(WAR,LSR),PAR,PBR,CPR,CVR,SPR,RAR
                                    1210
                                    1211                       PUSH  DSECTS
 USING  CP,R11                      1223             =         USING (CP),(CV)
 USING  CV,R12
 000017                00000 0478B  1242             =         POP   PRINT
-000000                00000 00014 15343                       VOLINFO
 000000                            15352  1 01-VOLIN +VOLNAME    DS    CL6                 volume name
                                   15353  1          +
 000008                            15354  1 01-VOLIN +VOLFRTRK   DS    F                   no. of free tracks on volume
 00000C                            15355  1 01-VOLIN +VOLFREXT   DS    F                   no. of free extents on volume
 000010                            15356  1 01-VOLIN +VOLLGTRK   DS    F                   size of largest free extent
 000014                00014 00014 15357    01-VOLIN +VOLSTATS EQU   VOLFRTRK,*-VOLFRTRK,C'X'
1DISK     (DISK4072) (12:42) (15MAR04) External I/O Work Area                                                               Page    7
0Current Usings:  (CP,R11) (CV,R12)
0Loc    Object Code    Addr1 Addr2  Stmt Lv Lineno    Source Statement           (Hibal 5, Asmedit 3.3)  HLASM R4.0  2004/03/15 12.42
+___    ______ ____    _____ _____  ____ __ ______    ______ _________
0                                  15368              ***  DISK expects the multiple work areas to be chained together.
                                   15369              **       Since the number of work areas defines the number of I/O
                                   15370              **       subtasks which will be attached and since the
                                   15371              **       number of duplicate symbols makes multiple definition
                                   15372              **       within an assembly dificult, the work areas must be
                                   15373              **       chained together by some other mechanism.
                                   15375              IOWA     IOWA  DSECT               Generate iowa dsect
1DISK     (DISK4072) (12:42) (15MAR04) IOWA -- WYLBUR'S I/O WORK AREA                                                       Page    8
0Current Usings:  (CP,R11) (CV,R12)
0D-Loc  Object Code    Addr1 Addr2  Stmt Lv Lineno    Source Statement           (Hibal 5, Asmedit 3.3)  HLASM R4.0  2004/03/15 12.42
+_____  ______ ____    _____ _____  ____ __ ______    ______ _________
0000000                00000 08718 15377    01-IOWA  +IOWA     DSECT
                                   15379             +***************** WYLBUR's I/O work area *******************
                                   15380             +**                                                        **
                                   15381             +**    work area used by DISK                              **
                                   15382             +**                                                        **
                                   15383             +** The DISK work area contains all variable information   **
                                   15384             +** to permit I/O operations to operate asynchronously as  **
                                   15385             +** subtasks of WYLBUR.  currently, the functions          **
                                   15386             +** operating under the subtask are the os I/O functions   **
                                   15387             +** such as obtain, locate, rdjfcb, open, close, etc.      **
                                   15388             +**                                                        **
                                   15389             +************************************************************
-000000 00000000                   15394    03-RSCHD +IWA@NEXT   DC    A(0)              next resource on queue
 000004 00000000                   15395    03-RSCHD +IWA@PREV   DC    A(0)              previous resource on queue
 000008 00000000                   15396    03-RSCHD +IWA@JCB    DC    A(0)              address of owning jcb
 00000C 00000000                   15397    03-RSCHD +IWA$ECB    DC    A(0)              resource ecb
 000010 00000000                   15398    03-RSCHD +IWA#USE    DC    A(0)              no. of uses of resource
 000014 00                         15399             +*
 IWAFLAGS.IWA1ACTV 80 ONES
 IWAFLAGS.IWA1@ECB 40 ONES
 IWAFLAGS.IWA1ASYN 20 ONES
 000018                            15419    03-RSCHD +         DS    0F
 000018                            15420    02-DIOWA +         DS    0D
 000018 0000037C                   15421    02-DIOWA +WADECB   DC    A(DECB)
                                   15422             +
 00001C 00000000                   15423    02-DIOWA +         DC    A(0)                spare
 000020 00000000                   15424    02-DIOWA +WAJCB    DC    A(0)                jcb doing i/o
 000024 00000000                   15425    02-DIOWA +WATCB    DC    A(0)                subtask tcb addr
                                   15426             +
 000028 0000000000000000           15427    02-DIOWA +WALINAR  DC    (256)X'00'          work area for external range
                                   15428             +*
                                   15429             +*
 000128 00000000                   15430    01-IOWA  +STECB    DC    F'0'                Ecb for DISK subtask
 00012C                            15431    01-IOWA  +OSR13    DS    F                   addr of os save area for subtask
 000130                            15432    01-IOWA  +WACPR    DS    A                   Saved CP ptr
 000134                            15433    01-IOWA  +WAR14    DS    10F                 reg 14-7 subtask reg save area
                                   15434    01-IOWA  +WAR15    EQU   WAR14+4,4,C'F'
                                   15435    01-IOWA  +WASTACK# EQU   1024,,C'N'          Size of substack stack
 00015C                            15436    01-IOWA  +WASTACKP DS    A                   Subtask stack ptr
                                   15437             +
 000160 00000000                   15438    01-IOWA  +UCB      DC    A(0)                ucb addr for spec volume
 000164 00000000                   15439    01-IOWA  +VOLENTRY DC    A(0)                address of volume table entry
 000168 00                         15440    01-IOWA  +AVAIL    DC    X'00'               avail flag - 00=avail, ff=busy
 000169 F1                         15441    01-IOWA  +IDMASK   DC    C'1'                mask for identity
                                   15442             +
 00016A 00                         15443    01-IOWA  +DFL      DC    X'00'               flags
                                   15444    01-IOWA  +DFREPL   EQU   X'08'               - stow repl to be done at close
                                   15445    01-IOWA  +DFNOACTG EQU   X'04'               - mounted volume is not accounted
                                   15446    01-IOWA  +DFUPTSPC EQU   X'02'               - update space acctg at close
                                   15447    01-IOWA  +DFUSPCNM EQU   X'01'               - no cond show space call if on
                                   15448             +
 00016B                            15449    01-IOWA  +FLAGS    DS    CL5                 save dsname flags
1DISK     (DISK4072) (12:42) (15MAR04) IOWA -- WYLBUR'S I/O WORK AREA                                                       Page    9
0Current Usings:  (CP,R11) (CV,R12)
0D-Loc  Object Code    Addr1 Addr2  Stmt Lv Lineno    Source Statement           (Hibal 5, Asmedit 3.3)  HLASM R4.0  2004/03/15 12.42
+_____  ______ ____    _____ _____  ____ __ ______    ______ _________
0                                  15450    01-IOWA  +F1       EQU   FLAGS,1,C'X'        first dsname flag
                                   15451    01-IOWA  +F2       EQU   FLAGS+1,1,C'X'      second dsname flag
                                   15452    01-IOWA  +F3       EQU   FLAGS+2,1,C'X'      third dsname flag
                                   15453    01-IOWA  +F4       EQU   FLAGS+3,1,C'X'      fourth dsname flag
                                   15454    01-IOWA  +F5       EQU   FLAGS+4,1,C'X'      fifth dsname flag
                                   15455             +
 000170 C9D6E5E5E5E5E5E5           15456    01-IOWA  +DSDD     DC    CL8'IOVVVVVV'       ddname
                                   15457             +
 000178 00                         15458    01-IOWA  +WAVFLG1  DC    X'00'               vflg1 from volume entry
 000179 00                         15459    01-IOWA  +WAVFLG2  DC    X'00'               vflg2 from volume entry
                                   15460             +
 00017A C9D6                       15461    01-IOWA  +DSTYPE   DC    C'IO'               type of volume (IO/DD/TM)
                                   15462             +
 00017C 0000                       15463    01-IOWA  +         DC    H'0'                reserved
                                   15464             +
 00017E 0000                                         +
 000180 00000000                   15465    01-IOWA  +WAABEND  DC    A(0)                abend routine addr
                                   15466             +
 000184 404040                     15467    01-IOWA  +WAUSER   DC    CL3' '              signed on user
 000187 4040                       15468    01-IOWA  +WAGRP    DC    CL2' '              signed on group
 000189 404040                     15469    01-IOWA  +WASGRP   DC    CL3' '              subgroup   ** temp **
-                                  15471             +**  exlst for dcb
 00018C                            15472    01-IOWA  +EXLST    DS    0F
 00018C 00                         15473    01-IOWA  +         DC    X'00'               entry to be filled in
 00018D 000000                     15474    01-IOWA  +         DC    AL3(0)
 000190 87                         15475    01-IOWA  +         DC    X'87'               last entry/jfcb pointer
 000191 0008D8                     15476    01-IOWA  +         DC    AL3(JFCB)
-                                  15478             +**  iob for excp
 000198                            15479    01-IOWA  +IOB      DS    0D
 000198 C200                       15480    01-IOWA  +         DC    XL2'C200'
 00019A 0000                       15481    01-IOWA  +IOBSNS   DC    H'0'
 00019C 00000000                   15482    01-IOWA  +IOBECB   DC    A(0)                ecb address
 0001A0 0000000000000000           15483    01-IOWA  +IOBCSW   DC    2F'0'
                                   15484    01-IOWA  +IOBUNIT  EQU   IOBCSW+4
                                   15485    01-IOWA  +IOBCHNL  EQU   IOBCSW+5
                                   15486    01-IOWA  +IOBLEFT  EQU   IOBCSW+6,2
 0001A8 00000000                   15487    01-IOWA  +IOBSTART DC    F'0'
 0001AC 00000000                   15488    01-IOWA  +IOBDCB   DC    A(0)                dcb address
 0001B0 0000000000000000           15489    01-IOWA  +         DC    2F'0'
 0001B8 00                         15490    01-IOWA  +         DC    XL1'0'
 0001B9 0000                       15491    01-IOWA  +IOBB     DC    XL2'0'
 0001BB 0000000000                 15492    01-IOWA  +SEEK     DC    XL5'0'
1DISK     (DISK4072) (12:42) (15MAR04) IOWA -- WYLBUR'S I/O WORK AREA                                                       Page   10
0Current Usings:  (CP,R11) (CV,R12)
0D-Loc  Object Code    Addr1 Addr2  Stmt Lv Lineno    Source Statement           (Hibal 5, Asmedit 3.3)  HLASM R4.0  2004/03/15 12.42
+_____  ______ ____    _____ _____  ____ __ ______    ______ _________
0                                  15494             +**  channel program info...
                                   15495    01-IOWA  +MT       EQU   X'80'               multi-track
                                   15496    01-IOWA  +SCHIDEQ  EQU   X'31'               search id equal
                                   15497    01-IOWA  +TIC      EQU   X'08'               xfer in channel
                                   15498    01-IOWA  +SCHKYEQ  EQU   X'29'               search key equal
                                   15499    01-IOWA  +SCHKYHI  EQU   X'49'               search key high
                                   15500    01-IOWA  +SCHKYHE  EQU   X'69'               search key hi or equal
                                   15501    01-IOWA  +SCHKADEQ EQU   X'2D'               search key and data equal
                                   15502    01-IOWA  +SCHKADHI EQU   X'4D'               search key and data high
                                   15503    01-IOWA  +SCHKADHE EQU   X'6D'               search key and data hi or equal
                                   15504    01-IOWA  +SWKADKY  EQU   SCHKADHE-SCHKYHE    used to swap sch kad/sch key
                                   15505    01-IOWA  +RDCNT    EQU   X'12'               read count
                                   15506    01-IOWA  +RDDATA   EQU   X'06'               read data
                                   15507    01-IOWA  +RDKYDATA EQU   X'0E'               read key and data
                                   15508    01-IOWA  +NOPIC    EQU   X'03'               nop in channel
                                   15509             +
                                   15510    01-IOWA  +CC       EQU   X'40'               command chain
                                   15511    01-IOWA  +DC       EQU   X'80'               data chain
                                   15512    01-IOWA  +SLI      EQU   X'20'               sli
                                   15513    01-IOWA  +SKP      EQU   X'10'               skip data xfer
-0001C0 310001BB60000005           15516    02-CCWP  +SRCHCCW  CCW   SCHIDEQ,SEEK,CC+SLI,5
 0001C8 080001C060000000           15518    02-CCWP  +         CCW   TIC,SRCHCCW,CC+SLI,0
 0001D0 080001D860000000           15520    02-CCWP  +CCWSW    CCW   TIC,ID,CC+SLI,0
 0001D8 B10008B060000005           15522    02-CCWP  +ID       CCW   SCHIDEQ+MT,ENDTEST,CC+SLI,5
 0001E0 080001F060000000           15524    02-CCWP  +         CCW   TIC,KEY,CC+SLI,0
 0001E8 0800020860000000           15526    02-CCWP  +         CCW   TIC,ENDCCW1,CC+SLI,0
                                   15527             +*
                                   15528             +**  length field is changed in following channel command...
 0001F0 AD00027060000000           15530    02-CCWP  +KEY      CCW   SCHKADEQ+MT,DSNAME,CC+SLI,0
 0001F8 080001D860000000           15532    02-CCWP  +         CCW   TIC,ID,CC+SLI,0
 000200 920008D220000005           15534    02-CCWP  +         CCW   RDCNT+MT,SRCHC,SLI,5
                                   15535             +*
                                   15536             +**  length field is changed in following channel command...
 000208 2D00027060000000           15538    02-CCWP  +ENDCCW1  CCW   SCHKADEQ,DSNAME,CC+SLI,0
 000210 0800023860000000           15540    02-CCWP  +         CCW   TIC,ENDCCW,CC+SLI,0
 000218 030001BB70000001           15542    02-CCWP  +         CCW   NOPIC,SEEK,CC+SLI+SKP,1
 000220 310008B060000005           15544    02-CCWP  +ENDCCW2  CCW   SCHIDEQ,ENDTEST,CC+SLI,5
 000228 0800022060000000           15546    02-CCWP  +         CCW   TIC,ENDCCW2,CC+SLI,0
 000230 0E0009982000008C           15548    02-CCWP  +READCCW2 CCW   RDKYDATA,DS1DSNAM,SLI,DS1END-DS1DSNAM
                                   15549             +**
 000238 030001BB20000001           15551    02-CCWP  +ENDCCW   CCW   NOPIC,SEEK,SLI,1
                                   15552             +** if final csw points here then the vtoc has been completely searched
                                   15553             +*
                                   15554             +**  channel program restarted here if a record found we want
 000240 310008D260000005           15556    02-CCWP  +READCCW  CCW   SCHIDEQ,SRCHC,CC+SLI,5
 000248 0800024060000000           15558    02-CCWP  +         CCW   TIC,READCCW,CC+SLI,0
 000250 0E0009982000008C           15560    02-CCWP  +         CCW   RDKYDATA,DS1DSNAM,SLI,DS1END-DS1DSNAM
                                   15561             +*
                                   15562             +**  channel program section for reading pds directory
 000258 920008D260000005           15564    02-CCWP  +PDSREAD  CCW   RDCNT+MT,SRCHC,CC+SLI,5
 000260 0E00072020000108           15566    02-CCWP  +         CCW   RDKYDATA,DBUF,SLI,264
1DISK     (DISK4072) (12:42) (15MAR04) IOWA -- WYLBUR'S I/O WORK AREA                                                       Page   11
0Current Usings:  (CP,R11) (CV,R12)
0D-Loc  Object Code    Addr1 Addr2  Stmt Lv Lineno    Source Statement           (Hibal 5, Asmedit 3.3)  HLASM R4.0  2004/03/15 12.42
+_____  ______ ____    _____ _____  ____ __ ______    ______ _________
0                                  15568             +**  misc work areas and constants
 000268                            15569    01-IOWA  +CCREDT   DS    D
 000270 4040404040404040           15570    01-IOWA  +DSNAME   DC    CL44' '             blank dsname for initial
 00029C 0404040404040404           15571    01-IOWA  +DSN      DC    44X'04'
 0002C8 4040404040404040           15572    01-IOWA  +NEWDSNAM DC    CL44' '
                                   15573             +
 0002F4                            15574    01-IOWA  +BLDL     DS    0F
 0002F4 0001                       15575    01-IOWA  +         DC    H'1'                one entry
 0002F6 004C                       15576    01-IOWA  +         DC    AL2(BLDLSZ)         length of entry
 0002F8                            15577    01-IOWA  +MEMBER   DS    CL8                 member name
 000300                            15578    01-IOWA  +BLDLTTR  DS    CL3                 member ttr
                                   15579             +*  stow requires C but not K and Z...
 000303                            15580    01-IOWA  +STOWLEN  DS    X                   C flags; user data length
 000304                            15581    01-IOWA  +STOWDATA DS    XL62                user data info
                                   15582    01-IOWA  +STOWSZ   EQU   *-MEMBER
 000342                00342 00303 15583    01-IOWA  +         ORG   STOWLEN             BLDL info returned:
 000303                            15584    01-IOWA  +         DS    XL2                 K and Z flags
 000305                            15585    01-IOWA  +BLDLLEN  DS    X                   C flags; user data length
 000306                            15586    01-IOWA  +BLDLDATA DS    XL62                user data info
                                   15587    01-IOWA  +BLDLSZ   EQU   *-MEMBER
                                   15588             +
 000344                            15589    01-IOWA  +RRECFM   DS    CL1                 recfm
                                   15590             +
 000348                            15591    01-IOWA  +SCRVLST  DS    0F                  scratch list and others
 000348 0001                       15592    01-IOWA  +         DC    H'1'                number of volumes
 00034A                            15593    01-IOWA  +DEVCODE  DS    CL4                 result of devtype
 00034E                            15594    01-IOWA  +DSVID    DS    CL6                 volume id
 000354 00                         15595    01-IOWA  +         DC    X'0'                byte of zero
 000355 00                         15596    01-IOWA  +SCRRET   DC    X'0'                return code from scratch
-000356 0001D8                     15598    01-IOWA  +VTOCCCW  DC    AL3(ID)             tic addr for show dsnames
 000359 000258                     15599    01-IOWA  +PDSCCW   DC    AL3(PDSREAD)        tic addr for show directory
 00035C 000240                     15600    01-IOWA  +LASTCCW  DC    AL3(ENDCCW+8)  addr in csw when vtoc search done
 00035F 000238                     15601    01-IOWA  +LASTCCW1 DC    AL3(ENDCCW)    addr in csw when last vtoc rec wanted
 000364                            15602    01-IOWA  +RECSIZE  DS    F
 000368                            15603    01-IOWA  +LRECSIZE DS    F
 00036C                            15604    01-IOWA  +ERROR    DS    F
                                   15605    01-IOWA  +ERRBYTE  EQU   ERROR+3,1,C'X'
 000370                            15606    01-IOWA  +SPACE    DS    F
 000374                            15607    01-IOWA  +DEVBLOCK DS    F                   device block size
 000378                            15608    01-IOWA  +RETCOD   DS    F
1DISK     (DISK4072) (12:42) (15MAR04) IOWA -- WYLBUR'S I/O WORK AREA                                                       Page   12
0Current Usings:  (CP,R11) (CV,R12)
0D-Loc  Object Code    Addr1 Addr2  Stmt Lv Lineno    Source Statement           (Hibal 5, Asmedit 3.3)  HLASM R4.0  2004/03/15 12.42
+_____  ______ ____    _____ _____  ____ __ ______    ______ _________
0                                  15610             +***  decbs and paramter lists...
 00037C 00000000                   15613    03-IHBRD +DECB     DC    F'0'                              EVENT CONTROL BLOCK
 000380 00                         15614    03-IHBRD +         DC    X'00'                             TYPE FIELD
 000381 80                         15615    03-IHBRD +         DC    X'80'                             TYPE FIELD
 000382 0000                       15616    03-IHBRD +         DC    AL2(0)                            LENGTH
 000384 00000498                   15617    03-IHBRD +         DC    A(DCB)                            DCB ADDRESS
 000388 00000720                   15618    03-IHBRD +         DC    A(DBUF)                           AREA ADDRESS
 00038C 00000000                   15619    03-IHBRD +         DC    A(0)                              RECORD POINTER WORD
-000390                            15622    02-CAMLS +DSCB     DS    0F                                ALIGN ON FULL WORD
 000390 C1                         15623    02-CAMLS +         DC    AL1(193)                          THREE BYTES OF FLAGS
 000391 00                         15624    02-CAMLS +         DC    AL1(0)                            INDICATING THE FUNC-
 000392 00                         15625    02-CAMLS +         DC    AL1(0)                            TION TO BE PERFORMED
 000393 00                         15626    02-CAMLS +         DC    AL1(0)                            NO OPTION THREE
 000394 00000270                   15627    02-CAMLS +         DC    A(DSNAME)                         PARAMETER TWO
 000398 0000034E                   15628    02-CAMLS +         DC    A(DSVID)                          PARAMETER THREE
 00039C 000009C4                   15629    02-CAMLS +         DC    A(DS1FMTID)                       PARAMETER FOUR
-0003A0                            15631    01-IOWA  +SCRUAL   DS    A                   scratch ual ptr (scip security sys)
 0003A4                            15633    02-CAMLS +SCRLST   DS    0F                                ALIGN ON FULL WORD
 0003A4 41                         15634    02-CAMLS +         DC    AL1(65)                           THREE BYTES OF FLAGS
 0003A5 00                         15635    02-CAMLS +         DC    AL1(0)                            INDICATING THE FUNC-
 0003A6 50                         15636    02-CAMLS +         DC    AL1(80)                           TION TO BE PERFORMED
 0003A7 00                         15637    02-CAMLS +         DC    AL1(0)                            NO OPTION THREE
 0003A8 00000270                   15638    02-CAMLS +         DC    A(DSNAME)                         PARAMETER TWO
 0003AC 00000000                   15639    02-CAMLS +         DC    A(0)                              PARAM. THREE OMMITTED
 0003B0 00000348                   15640    02-CAMLS +         DC    A(SCRVLST)                        PARAMETER FOUR
-0003B4                            15643    02-CAMLS +USCATL   DS    0F                                ALIGN ON FULL WORD
 0003B4 C4                         15644    02-CAMLS +         DC    AL1(196)                          THREE BYTES OF FLAGS
 0003B5 00                         15645    02-CAMLS +         DC    AL1(0)                            INDICATING THE FUNC-
 0003B6 00                         15646    02-CAMLS +         DC    AL1(0)                            TION TO BE PERFORMED
 0003B7 00                         15647    02-CAMLS +         DC    AL1(0)                            NO OPTION THREE
 0003B8 00000270                   15648    02-CAMLS +         DC    A(DSNAME)                         PARAMETER TWO
 0003BC 00000000                   15649    02-CAMLS +         DC    A(0)                              PARAMETER THREE
 0003C0 00000988                   15650    02-CAMLS +         DC    A(CATBLOCK)                       PARAMETER FOUR
-0003C4                            15653    02-CAMLS +USCATL2  DS    0F                                ALIGN ON FULL WORD
 0003C4 C2                         15654    02-CAMLS +         DC    AL1(194)                          THREE BYTES OF FLAGS
 0003C5 00                         15655    02-CAMLS +         DC    AL1(0)                            INDICATING THE FUNC-
 0003C6 00                         15656    02-CAMLS +         DC    AL1(0)                            TION TO BE PERFORMED
 0003C7 00                         15657    02-CAMLS +         DC    AL1(0)                            NO OPTION THREE
 0003C8 00000A88                   15658    02-CAMLS +         DC    A(CATNTTR)                        PARAMETER TWO
 0003CC 00000A8B                   15659    02-CAMLS +         DC    A(CATVOLID)                       PARAMETER THREE
 0003D0 00000988                   15660    02-CAMLS +         DC    A(CATBLOCK)                       PARAMETER FOUR
                                   15661    01-IOWA  +CAMFCVOL EQU   X'80'               flag bit for cvol/no cvol use
-0003D4                            15664    02-CAMLS +VTOC     DS    0F                                ALIGN ON FULL WORD
 0003D4 C1                         15665    02-CAMLS +         DC    AL1(193)                          THREE BYTES OF FLAGS
1DISK     (DISK4072) (12:42) (15MAR04) IOWA -- WYLBUR'S I/O WORK AREA                                                       Page   13
0Current Usings:  (CP,R11) (CV,R12)
0D-Loc  Object Code    Addr1 Addr2  Stmt Lv Lineno    Source Statement           (Hibal 5, Asmedit 3.3)  HLASM R4.0  2004/03/15 12.42
+_____  ______ ____    _____ _____  ____ __ ______    ______ _________
00003D5 00                         15666    02-CAMLS +         DC    AL1(0)                            INDICATING THE FUNC-
 0003D6 00                         15667    02-CAMLS +         DC    AL1(0)                            TION TO BE PERFORMED
 0003D7 00                         15668    02-CAMLS +         DC    AL1(0)                            NO OPTION THREE
 0003D8 0000029C                   15669    02-CAMLS +         DC    A(DSN)                            PARAMETER TWO
 0003DC 0000034E                   15670    02-CAMLS +         DC    A(DSVID)                          PARAMETER THREE
 0003E0 00000720                   15671    02-CAMLS +         DC    A(VTOCAREA)                       PARAMETER FOUR
-0003E4                            15674    02-CAMLS +VTOC3    DS    0F                                ALIGN ON FULL WORD
 0003E4 C0                         15675    02-CAMLS +         DC    AL1(192)                          THREE BYTES OF FLAGS
 0003E5 80                         15676    02-CAMLS +         DC    AL1(128)                          INDICATING THE FUNC-
 0003E6 00                         15677    02-CAMLS +         DC    AL1(0)                            TION TO BE PERFORMED
 0003E7 00                         15678    02-CAMLS +         DC    AL1(0)                            NO OPTION THREE
 0003E8 00000A1F                   15679    02-CAMLS +         DC    A(DS1PTRDS)                       PARAMETER TWO
 0003EC 0000034E                   15680    02-CAMLS +         DC    A(DSVID)                          PARAMETER THREE
 0003F0 00000998                   15681    02-CAMLS +         DC    A(IECSDSL3)                       PARAMETER FOUR
-0003F4                            15684    02-CAMLS +CATLST   DS    0F                                ALIGN ON FULL WORD
 0003F4 E4                         15685    02-CAMLS +         DC    AL1(228)                          THREE BYTES OF FLAGS
 0003F5 00                         15686    02-CAMLS +         DC    AL1(0)                            INDICATING THE FUNC-
 0003F6 00                         15687    02-CAMLS +         DC    AL1(0)                            TION TO BE PERFORMED
 0003F7 00                         15688    02-CAMLS +         DC    AL1(0)                            NO OPTION THREE
 0003F8 00000270                   15689    02-CAMLS +         DC    A(DSNAME)                         PARAMETER TWO
 0003FC 00000000                   15690    02-CAMLS +         DC    A(0)                              PARAMETER THREE
 000400 00000348                   15691    02-CAMLS +         DC    A(SCRVLST)                        PARAMETER FOUR
-000404                            15694    02-CAMLS +RENAMLST DS    0F                                ALIGN ON FULL WORD
 000404 C1                         15695    02-CAMLS +         DC    AL1(193)                          THREE BYTES OF FLAGS
 000405 00                         15696    02-CAMLS +         DC    AL1(0)                            INDICATING THE FUNC-
 000406 20                         15697    02-CAMLS +         DC    AL1(32)                           TION TO BE PERFORMED
 000407 00                         15698    02-CAMLS +         DC    AL1(0)                            NO OPTION THREE
 000408 00000270                   15699    02-CAMLS +         DC    A(DSNAME)                         PARAMETER TWO
 00040C 000002C8                   15700    02-CAMLS +         DC    A(NEWDSNAM)                       PARAMETER THREE
 000410 00000348                   15701    02-CAMLS +         DC    A(SCRVLST)                        PARAMETER FOUR
-000414                            15704    02-OPEN  +OPENLIST DC    0F'0'                             ALIGN LIST TO FULLWORD
 000414 80                         15705    02-OPEN  +         DC    AL1(128)                     OPTION BYTE
 000415 000498                     15706    02-OPEN  +         DC    AL3(DCB)                     DCB ADDRESS
-000418                            15708    01-IOWA  +         DS    3A                  enq control block pfx (mvs only)
                                   15710             +*         MACRO-DATE = 95/03/03                                    @03C
 000424                            15711    02-ENQ   +         DS    0F                      ESTABLISH A FULLWORD BOUNDARY
                                   15712    02-ENQ   +ENQVOL   EQU   *                                                 X02113
 000424 C0                         15713    02-ENQ   +         DC    AL1(192)                PELLAST flag byte.        X02113
 000425 06                         15714    02-ENQ   +         DC    AL1(6)                  PELMILEN - RNAME length.
 000426 00                         15715    02-ENQ   +         DC    BL1'00000000'
                                   15716             +*                                      PELFLAG - flag byte 2.
 000427 00                         15717    02-ENQ   +         DC    AL1(0)                  PELRET - return code byte.
 000428 00000000                   15718    02-ENQ   +         DC    A(0)                    QNAME ADDRESS
 00042C 0000034E                   15719    02-ENQ   +         DC    A(DSVID)                RNAME ADDRESS
1DISK     (DISK4072) (12:42) (15MAR04) IOWA -- WYLBUR'S I/O WORK AREA                                                       Page   14
0Current Usings:  (CP,R11) (CV,R12)
0D-Loc  Object Code    Addr1 Addr2  Stmt Lv Lineno    Source Statement           (Hibal 5, Asmedit 3.3)  HLASM R4.0  2004/03/15 12.42
+_____  ______ ____    _____ _____  ____ __ ______    ______ _________
0000430                            15721    01-IOWA  +         DS    3A                  enq control block pfx (mvs only)
                                   15723             +*         MACRO-DATE = 95/03/03                                    @03C
 00043C                            15724    02-ENQ   +         DS    0F                      ESTABLISH A FULLWORD BOUNDARY
                                   15725    02-ENQ   +ENQDSN   EQU   *                                                 X02113
 00043C C0                         15726    02-ENQ   +         DC    AL1(192)                PELLAST flag byte.        X02113
 00043D 00                         15727    02-ENQ   +         DC    AL1(0)                  PELMILEN - RNAME length.
 00043E 43                         15728    02-ENQ   +         DC    BL1'01000011'
                                   15729             +*                                      PELFLAG - flag byte 2.
 00043F 00                         15730    02-ENQ   +         DC    AL1(0)                  PELRET - return code byte.
 000440 00000000                   15731    02-ENQ   +         DC    A(0)                    QNAME ADDRESS
 000444 00000000                   15732    02-ENQ   +         DC    A(0)                    RNAME ADDRESS
-000448                            15734    01-IOWA  +         DS    2A                  Reserved
                                   15735             +*
                                   15736             +*
 000450 00000000                   15737    01-IOWA  +IOWALOC  DC    A(0)                GETMAIN buffer addr
 000454                            15738    01-IOWA  +IOWALEN  DS    F'0'                GETMAIN buffer len
                                   15739             +
 000458                            15740    01-IOWA  +ACSPARM  DS    0F                  access svc parm list
 000458 00000468                   15741    01-IOWA  +ACSPFLGS DC    A(ACWOPER)          ptr to flag bytes
 00045C 00000270                   15742    01-IOWA  +ACSPDSN  DC    A(DSNAME)           ptr to dsname
 000460 000009C4                   15743    01-IOWA  +ACSPDSCB DC    A(DS1FMTID)         ptr to f1 dscb
 000464 0000046E                   15744    01-IOWA  +ACSPACCT DC    A(UALAUTH)          ptr to acct (uuuggssia)
 000468                            15745    01-IOWA  +ACWOPER  DS    X                   acs flag bytes:  operation
 000469                            15746    01-IOWA  +ACWMODE  DS    X                                    mode
-00046C                            15748    01-IOWA  +ACSUAL   DS    0F                  start on fullword
 00046C 0014                       15749    01-IOWA  +UALLEN   DC    H'20'               total ual length
 00046E 4040404040                 15750    01-IOWA  +UALAUTH  DC    CL5' '              signed on user
 000473 4040                       15751    01-IOWA  +UALSUBGR DC    CL2' '              signed on subgroup
 000475 0000                       15752    01-IOWA  +UALKIAF  DC    XL2'0000'           kifl & kafl flags
 000477 0000000000                 15753    01-IOWA  +UALKEY   DC    XL5'0'              accessor authority
 00047C 00000000                   15754    01-IOWA  +UALODSCB DC    A(0)                0 or old dscb pointer
-000480                            15756    01-IOWA  +PARMLIST DS    0F
 000480                            15757    01-IOWA  +PARREQCD DS    AL1                 request type
                                   15758    01-IOWA  +PARRALLO EQU   1                   allocate device
                                   15759    01-IOWA  +PARRUNAL EQU   2                   unallocate device
                                   15760    01-IOWA  +PARRMNT  EQU   3                   allocate device, allow mount
 000481                            15761    01-IOWA  +PARFLAG  DS    X                   option flag
                                   15762    01-IOWA  +PARFWAIT EQU   X'80'               ok to wait on enq
                                   15763    01-IOWA  +PARFUNIT EQU   X'40'               unit address specified
                                   15764    01-IOWA  +PARFUCBT EQU   X'20'               ucbtype specified
                                   15765    01-IOWA  +PARFNJFC EQU   X'10'               do not update jfcb
 000482                            15766    01-IOWA  +PARRESVD DS    H                   reserved (must be zero)
 000484                            15767    01-IOWA  +PARDDNAM DS    0CL8                ddname to be allocated
 000484                            15768    01-IOWA  +PARDDCOD DS    CL2                 ddname code (must not be blanks)
 000486                            15769    01-IOWA  +PARDDVOL DS    CL6                 volume serial to be allocated
 00048C                            15770    01-IOWA  +PARUSCTA DS    A                   address of use count list
 000490                            15771    01-IOWA  +PARDEVIC DS    CL8                 name of device to be allocated
                                   15772    01-IOWA  +PARAMEND EQU   *
1DISK     (DISK4072) (12:42) (15MAR04) IOWA -- WYLBUR'S I/O WORK AREA                                                       Page   15
0Current Usings:  (CP,R11) (CV,R12)
0D-Loc  Object Code    Addr1 Addr2  Stmt Lv Lineno    Source Statement           (Hibal 5, Asmedit 3.3)  HLASM R4.0  2004/03/15 12.42
+_____  ______ ____    _____ _____  ____ __ ______    ______ _________
0                                  15774             +**  dummy dcb to allocate space for dcb to be moved in
                                   15778    03-IHBER +*,***  IHB061  DDNAME NOT SPECIFIED
0                                  15780             +*                       DATA CONTROL BLOCK
                                   15781             +*
 000498                            15782    02-DCB   +DCB      DC    0F'0'          ORIGIN ON WORD BOUNDARY
                                   15783             +*                       DIRECT ACCESS DEVICE INTERFACE
 000498 0000000000000000           15784    02-DCB   +         DC    BL16'0'        FDAD, DVTBL
 0004A8 00000000                   15785    02-DCB   +         DC    A(0)           KEYLEN, DEVT, TRBAL
                                   15786             +*                       COMMON ACCESS METHOD INTERFACE
 0004AC 00                         15787    02-DCB   +         DC    AL1(0)         BUFNO, NUMBER OF BUFFERS
 0004AD 000001                     15788    02-DCB   +         DC    AL3(1)         BUFCB, BUFFER POOL CONTROL BLOCK
 0004B0 0000                       15789    02-DCB   +         DC    AL2(0)         BUFL, BUFFER LENGTH
 0004B2 4000                       15790    02-DCB   +         DC    BL2'0100000000000000' DSORG, DATA SET ORGANIZATION
 0004B4 00000001                   15791    02-DCB   +         DC    A(1)           IOBAD FOR EXCP OR RESERVED
                                   15792             +*                       FOUNDATION EXTENSION
 0004B8 00                         15793    02-DCB   +         DC    BL1'00000000'  BFTEK, BFALN, DCBE INDICATORS
 0004B9 000001                     15794    02-DCB   +         DC    AL3(1)         EODAD (END OF DATA ROUTINE ADDRESS)
 0004BC 00                         15795    02-DCB   +         DC    BL1'00000000'  RECFM (RECORD FORMAT)
 0004BD 000000                     15796    02-DCB   +         DC    AL3(0)         EXLST (EXIT LIST ADDRESS)
                                   15797             +*                       FOUNDATION BLOCK
 0004C0 F040404040404040           15798    02-DCB   +         DC    CL8'0'         DDNAME
 0004C8 02                         15799    02-DCB   +         DC    BL1'00000010'  OFLGS (OPEN FLAGS)
 0004C9 00                         15800    02-DCB   +         DC    BL1'00000000'  IFLGS (IOS FLAGS)
 0004CA 2424                       15801    02-DCB   +         DC    BL2'0010010000100100' MACR (MACRO FORMAT)
                                   15802             +*                       BSAM-BPAM-QSAM INTERFACE
 0004CC 00                         15803    02-DCB   +         DC    BL1'00000000'  OPTCD, OPTION CODES
 0004CD 000001                     15804    02-DCB   +         DC    AL3(1)         CHECK OR INTERNAL QSAM SYNCHRONIZING RTN.
 0004D0 00000001                   15805    02-DCB   +         DC    A(1)           SYNAD, SYNCHRONOUS ERROR RTN. (3 BYTES)
 0004D4 0000                       15806    02-DCB   +         DC    H'0'           INTERNAL ACCESS METHOD FLAGS
 0004D6 0000                       15807    02-DCB   +         DC    AL2(0)         BLKSIZE, BLOCK SIZE
 0004D8 00000000                   15808    02-DCB   +         DC    F'0'           INTERNAL ACCESS METHOD FLAGS
 0004DC 00000001                   15809    02-DCB   +         DC    A(1)           INTERNAL ACCESS METHOD USE
                                   15810             +*                         BSAM-BPAM INTERFACE
 0004E0 00                         15811    02-DCB   +         DC    AL1(0)         NCP, MAX NUM OF OUTSTANDING READ/WRITES
 0004E1 000001                     15812    02-DCB   +         DC    AL3(1)         EOBR, INTERNAL ACCESS METHOD USE
 0004E4 00000001                   15813    02-DCB   +         DC    A(1)           EOBW, INTERNAL ACCESS METHOD USE
 0004E8 0000                       15814    02-DCB   +         DC    AL1(0,0)       FLAGS AND EITHER DIRCT OR BUFOFF
 0004EA 0000                       15815    02-DCB   +         DC    AL2(0)         LRECL
 0004EC 00000001                   15816    02-DCB   +         DC    A(1)           CNTRL, NOTE, POINT
1DISK     (DISK4072) (12:42) (15MAR04) IOWA -- WYLBUR'S I/O WORK AREA                                                       Page   16
0Current Usings:  (CP,R11) (CV,R12)
0D-Loc  Object Code    Addr1 Addr2  Stmt Lv Lineno    Source Statement           (Hibal 5, Asmedit 3.3)  HLASM R4.0  2004/03/15 12.42
+_____  ______ ____    _____ _____  ____ __ ______    ______ _________
0                                  15822    03-IHBER +*,***  IHB061  DDNAME NOT SPECIFIED
0                                  15824             +*                       DATA CONTROL BLOCK
                                   15825             +*
 0004F0                            15826    02-DCB   +FOURS    DC    0F'0'          ORIGIN ON WORD BOUNDARY
                                   15827             +*                       DIRECT ACCESS DEVICE INTERFACE
 0004F0 0000000000000000           15828    02-DCB   +         DC    BL16'0'        FDAD, DVTBL
 000500 00000000                   15829    02-DCB   +         DC    A(0)           KEYLEN, DEVT, TRBAL
                                   15830             +*                       COMMON ACCESS METHOD INTERFACE
 000504 00                         15831    02-DCB   +         DC    AL1(0)         BUFNO, NUMBER OF BUFFERS
 000505 000001                     15832    02-DCB   +         DC    AL3(1)         BUFCB, BUFFER POOL CONTROL BLOCK
 000508 0000                       15833    02-DCB   +         DC    AL2(0)         BUFL, BUFFER LENGTH
 00050A 4000                       15834    02-DCB   +         DC    BL2'0100000000000000' DSORG, DATA SET ORGANIZATION
 00050C 00000001                   15835    02-DCB   +         DC    A(1)           IOBAD FOR EXCP OR RESERVED
                                   15836             +*                       FOUNDATION EXTENSION
 000510 00                         15837    02-DCB   +         DC    BL1'00000000'  BFTEK, BFALN, DCBE INDICATORS
 000511 000001                     15838    02-DCB   +         DC    AL3(1)         EODAD (END OF DATA ROUTINE ADDRESS)
 000514 00                         15839    02-DCB   +         DC    BL1'00000000'  RECFM (RECORD FORMAT)
 000515 00018C                     15840    02-DCB   +         DC    AL3(EXLST)     EXLST (EXIT LIST ADDRESS)
                                   15841             +*                       FOUNDATION BLOCK
 000518 F040404040404040           15842    02-DCB   +         DC    CL8'0'         DDNAME
 000520 02                         15843    02-DCB   +         DC    BL1'00000010'  OFLGS (OPEN FLAGS)
 000521 00                         15844    02-DCB   +         DC    BL1'00000000'  IFLGS (IOS FLAGS)
 000522 D008                       15845    02-DCB   +         DC    BL2'1101000000001000' MACR (MACRO FORMAT)
1DISK     (DISK4072) (12:42) (15MAR04) IOWA -- WYLBUR'S I/O WORK AREA                                                       Page   17
0Current Usings:  (CP,R11) (CV,R12)
0D-Loc  Object Code    Addr1 Addr2  Stmt Lv Lineno    Source Statement           (Hibal 5, Asmedit 3.3)  HLASM R4.0  2004/03/15 12.42
+_____  ______ ____    _____ _____  ____ __ ______    ______ _________
0                                  15848             +***** data buffer/work areas *****
-000524                            15850    01-IOWA  +LBUF     DS    0F                  local work buffer
                                   15852             +*
                                   15853             +*       Keyword Record
                                   15854             +*
 000524                            15855    02-KWR   +KWRSTART   DS  0F
 000524 E4E4E4                     15856    02-KWR   +KWRUSER    DC  C'UUU'              User
 000527 C7C7                       15857    02-KWR   +KWRGRP     DC  C'GG'               Group
                                   15858    02-KWR   +KWRACCT    EQU KWRUSER,*-KWRUSER,C'X'
                                   15859             +
                                   15860    02-KWR   +KWRDSTRT   EQU *
 000529 000000                     15861    02-KWR   +           DC  XL3'00'             Reserved
 00052C 0000                       15862    02-KWR   +KWRRJE     DC  H'0'                No. of jobs run
 00052E 0000                       15863    02-KWR   +KWRSPUSD   DC  H'0'                Disk space used
 000530 FFFF                       15864    02-KWR   +KWRSPMAX   DC  H'-1'               Disk space allowed
                                   15865             +
 000532 80                         15866    02-KWR   +KWRIFL     DC  X'80'               Initials flags
                                   15867    02-KWR   +KWRIFVAL    EQU  X'80'             - Valid user
                                   15868    02-KWR   +KWRIFAPR    EQU  X'40'             - ACCT privs
                                   15869    02-KWR   +KWRIFSPR    EQU  X'20'             - SYS privs
                                   15870    02-KWR   +KWRIFOPR    EQU  X'10'             - OPR privs
                                   15871    02-KWR   +KWRIFSBM    EQU  X'08'             - SUBMIT priv
                                   15872    02-KWR   +KWRIFSUB    EQU  X'04'             - SUBADMIN privs
                                   15873    02-KWR   +KWRIFADM    EQU  X'02'             - ADMIN privs
                                   15874    02-KWR   +KWRIFPC     EQU  X'01'             - PC privs
                                   15875             +
 000533 98                         15876    02-KWR   +KWRAFL     DC  X'98'               Account flags
                                   15877    02-KWR   +KWRAFVAL    EQU  X'80'             - Valid acct (off when SUSPENDED)
                                   15878    02-KWR   +KWRAFTOK    EQU  X'08'             - Terminal usage permitted
                                   15879    02-KWR   +KWRAFZSV    EQU  X'02'             - Test recovery flag (not used)
                                   15880    02-KWR   +KWRAFASV    EQU  X'01'             - Recovery done for last session
                                   15881             +
 000534 6F6F6F                     15882    02-KWR   +KWRBIN     DC  C'???'              Bin
 000537 00                         15883    02-KWR   +KWRWRCT    DC  X'00'               Record rewrite count
 000538 000000                     15884    02-KWR   +KWRBGT     DC  XL3'00'             Account budget
 00053B 000000                     15885    02-KWR   +KWRBAL     DC  XL3'00'             Account year-to-date balance
 00053E 0000                       15886    02-KWR   +KWRLCP     DC  H'0'                Punch card limit -- in hundreds
 000540 0000                       15887    02-KWR   +KWRLLC     DC  H'0'                Line count limit -- in thousands
 000542 0000                       15888    02-KWR   +KWRLET     DC  H'0'                Execution time limit in seconds
                                   15889             +
 000544 84                         15890    02-KWR   +KWRBFL     DC  X'84'               Batch flags
                                   15891    02-KWR   +KWRBFVAL   EQU X'80'               - Valid for batch
                                   15892    02-KWR   +KWRBFIN    EQU X'40'               - No input setups allowed
                                   15893    02-KWR   +KWRBFOUT   EQU X'20'               - No output setups allowed
                                   15894    02-KWR   +KWRBFNON   EQU X'10'               - No non-standard priority allowed
                                   15895    02-KWR   +KWRBFE     EQU X'08'               - Class E only
                                   15896    02-KWR   +KWRBFP     EQU X'04'               - Class P permitted
                                   15897             +
 000545 D3D6C3C1D3404040           15898    02-KWR   +KWRDEST    DC  CL8'LOCAL'          Destination for output data
 00054D 6F6F6F6F                   15899    02-KWR   +KWRFORM    DC  CL4'????'           Default forms code
 000551 0000000000000000           15900    02-KWR   +KWRORV     DC  XL8'00'             Default ORVYL name
                                   15901             +
1DISK     (DISK4072) (12:42) (15MAR04) IOWA -- WYLBUR'S I/O WORK AREA                                                       Page   18
0Current Usings:  (CP,R11) (CV,R12)
0D-Loc  Object Code    Addr1 Addr2  Stmt Lv Lineno    Source Statement           (Hibal 5, Asmedit 3.3)  HLASM R4.0  2004/03/15 12.42
+_____  ______ ____    _____ _____  ____ __ ______    ______ _________
0000559 80                         15902    02-KWR   +KWRMACC    DC  X'80'               Machine access flags
                                   15903    02-KWR   +KWRFSYSA   EQU X'80'               - SYSA access allowed
                                   15904    02-KWR   +KWRFSYSB   EQU X'40'               - SYSB access allowed
                                   15905    02-KWR   +KWRFSYSC   EQU X'20'               - SYSC access allowed
                                   15906    02-KWR   +KWRFSYSD   EQU X'10'               - SYSD access allowed
                                   15907    02-KWR   +KWRFSYSE   EQU X'08'               - SYSE access allowed
                                   15908    02-KWR   +KWRFSYSF   EQU X'04'               - SYSF access allowed
                                   15909    02-KWR   +KWRFSYSG   EQU X'02'               - SYSG access allowed
                                   15910             +
 00055A 00                         15911    02-KWR   +KWRSFL     DC  X'00'               Status flags
                                   15912    02-KWR   +KWRSFKEP   EQU X'80'               - Kept mail waiting
                                   15913    02-KWR   +KWRSFMAI   EQU X'40'               - New mail waiting
                                   15914    02-KWR   +KWRSFMLQ   EQU X'20'               - New mail in MAILQnnn files
                                   15915             +
 00055B 02                         15916    02-KWR   +KWRJFL     DC  X'02'               Job flags
                                   15917    02-KWR   +KWRJFNUM   EQU X'80'               - Numbered job submission
                                   15918    02-KWR   +KWRJFFOR   EQU X'40'               - Force user id as job prefix
                                   15919    02-KWR   +KWRJFHOL   EQU X'10'               - Hold printed output
                                   15920    02-KWR   +KWRJFNOT   EQU X'08'               - Notify user
                                   15921    02-KWR   +KWRJFATH   EQU X'07'               - Job auth, as follows...
                                   15922    02-KWR   +KWRJFPUB   EQU X'04'                  Auth=public
                                   15923    02-KWR   +KWRJFCOM   EQU X'02'                  Auth=community
                                   15924    02-KWR   +KWRJFGRP   EQU X'01'                  Auth=group
                                   15925             +
 00055C 4040404040404040           15926    02-KWR   +KWRJPFX    DC  CL8' '              Users job prefix
 000564 0000                       15927    02-KWR   +KWRJNO     DC  H'0'                Users job count
                                   15928             +
 000566 0000                       15929    02-KWR   +KWRHRSAL   DC  H'0'                Connect hrs allowed (hrs/10)
 000568 0000                       15930    02-KWR   +KWRACCH    DC  H'0'                Connect hrs accounted (hrs/10)
 00056A 0000                       15931    02-KWR   +         DC    H'0'                Reserved
                                   15932             +
 00056C 20                         15933    02-KWR   +KWRTACF    DC  X'20'               Type/account class flags
                                   15934    02-KWR   +KWRTNST    EQU X'80'               - No logoff statistics
                                   15935    02-KWR   +KWRTNTM    EQU X'40'               - No session timeouts (NOTIME)
                                   15936    02-KWR   +KWRTNDAY   EQU X'02'               - No daytime access allowed
                                   15937             +
 00056D 3C                         15938    02-KWR   +KWRTFL     DC  X'3C'               Timesharing flags
                                   15939             +*              X'80'               - Reserved
                                   15940             +*              X'40'               - Reserved
                                   15941    02-KWR   +KWRTFAN    EQU X'20'               - Auto news at logon
                                   15942    02-KWR   +KWRTFAM    EQU X'10'               - Auto mail at logon
                                   15943    02-KWR   +KWRTFAR    EQU X'08'               - Auto recovery at logon
                                   15944    02-KWR   +KWRTFAE    EQU X'04'               - Auto exec at logon
                                   15945    02-KWR   +KWRTFAL    EQU X'02'               - Auto ltime at logon
                                   15946    02-KWR   +KWRTFAK    EQU X'01'               - Auto ktime at logon
                                   15947             +
 00056E 00F0                       15948    02-KWR   +KWRNTDEF   DC  H'240'              Default notime minutes (0=nolim)
 000570 0000                       15949    02-KWR   +KWRNTMAX   DC  H'0'                Maximum notime minutes (0=nolim)
 000572 00000000                   15950    02-KWR   +KWRPFORM   DC  XL4'00'             Default PRINT job forms
 000576 0000                       15951    02-KWR   +KWRR1    DC    H'0'                Reserved
 000578 0000                       15952    02-KWR   +KWRR3    DC    H'0'                Reserved
 00057A 00                         15953    02-KWR   +KWRR4    DC    X'0'                Reserved
                                   15954             +
 00057B 00                         15955    02-KWR   +KWROFL     DC  X'00'               Online flags
1DISK     (DISK4072) (12:42) (15MAR04) IOWA -- WYLBUR'S I/O WORK AREA                                                       Page   19
0Current Usings:  (CP,R11) (CV,R12)
0D-Loc  Object Code    Addr1 Addr2  Stmt Lv Lineno    Source Statement           (Hibal 5, Asmedit 3.3)  HLASM R4.0  2004/03/15 12.42
+_____  ______ ____    _____ _____  ____ __ ______    ______ _________
0                                  15956    02-KWR   +KWRFMULT   EQU X'80'               - Multiple sessions allowed
                                   15957    02-KWR   +KWRFMAIL   EQU X'40'               - Mail is allowed
                                   15958    02-KWR   +KWRFSEC    EQU X'20'               - Secure session (EXEC SECURE)
                                   15959    02-KWR   +KWRFMNPR   EQU X'08'               - XMultiple: multiple w/o prompt
                                   15960    02-KWR   +KWRFNPAS   EQU X'04'               - No logon password needed
                                   15961             +
 00057C 00000000                   15962    02-KWR   +KWRLTIM    DC  XL4'00'             Last logoff time(high 32 clck bits)
 000580 00000000                   15963    02-KWR   +KWRKTIM    DC  XL4'00'             Last time keyword changed (" ")
                                   15964             +
 000584 00                         15965    02-KWR   +KWRAC      DC  X'00'               Accounting flags
                                   15966             +
 000585 40                         15967    02-KWR   +KWRSOF     DC  C' '                Source of funds code
 000586 40                         15968    02-KWR   +KWRAR      DC  C' '                Accounts receivable code (if SOF=2)
                                   15969             +
 000587 40                         15970    02-KWR   +KWRSTAT    DC  C' '                Account status code
                                   15971    02-KWR   +KWRSEXP    EQU C'1'                - Expired
                                   15972    02-KWR   +KWRSCLS    EQU C'2'                - Closed
                                   15973    02-KWR   +KWRSOVB    EQU C'3'                - Over-budget
                                   15974    02-KWR   +KWRSUHL    EQU C'4'                - User hold
                                   15975             +
 000588 10                         15976    02-KWR   +KWRTFL2    DC  X'10'               Timesharing flags  (second byte)
                                   15977    02-KWR   +KWRTFAPE   EQU X'80'               - Auto pubexec at logon
                                   15978    02-KWR   +KWRTFML    EQU X'40'               - Ok to receive mail
                                   15979    02-KWR   +KWRTFANE   EQU X'10'               - Auto newexec at logon
                                   15980    02-KWR   +KWRTFMNOATTN   EQU  X'08'          - Ignore SHOW MAIL attn (NOATTN)
                                   15981             +
 000589 00                         15982    02-KWR   +KWRPFL     DC  X'00'               Privilege flags
                                   15983    02-KWR   +KWRFPCHK   EQU X'80'               - PCHECK privs
                                   15984             +
 00058A 0000                       15985    02-KWR   +KWRHRSFR   DC  H'0'                Free connect hrs to date (hrs/10)
 00058C 0000                       15986    02-KWR   +KWRHRSUS   DC  H'0'                Hours used to date (hrs/10)
 00058E FFFF                       15987    02-KWR   +KWRDSKMX   DC  H'-1'               Disk kilobytes allowed
 000590 00000000                   15988    02-KWR   +KWRDSKUS   DC  F'0'                Disk bytes used
                                   15989             +
 000594 0000000000000000           15990    02-KWR   +KWRPASS    DC  XL8'00'             Password
 00059C 0000000000000000           15991    02-KWR   +KWRNAME    DC  XL20'00'            User's name
 0005B0 000000000000               15992    02-KWR   +KWRVOL     DC  XL6'00'             User's permanent volume
 0005B6 0000000000000000           15993    02-KWR   +KWRSYS     DC  XL8'00'             User's initial subsystem (WYLBUR)
 0005BE 0000000000000000           15994    02-KWR   +KWRCOMM    DC  XL20'00'            Comment for accounting office
                                   15995             +
 0005D2 00                         15996    02-KWR   +KWRMPRIM   DC  X'00'               Primary machine
                                   15997             +***  Flag definitions are the same as with KWRMACC above.  ***
                                   15998             +*
 0005D3 00                         15999    02-KWR   +KWRXCNT    DC  X'00'               Unsuccessful logon attempt count
 0005D4 00000000                   16000    02-KWR   +KWRXTIM    DC  XL4'00'             Last unsuccessful logon time
                                   16001             +
 0005D8 00000000                   16002    02-KWR   +KWRNEWDT   DC  F'0'                Date news was last read
                                   16003             +
 0005DC 00000000                   16004    02-KWR   +KWRCDATE   DC  F'0'                Date of charges update
 0005E0 000000                     16005    02-KWR   +KWRMTD     DC  XL3'0'              Account month-to-date balance
 0005E3 000000                     16006    02-KWR   +KWRPBAL    DC  XL3'0'              Account previous ytd charges
                                   16007             +
 0005E6 0000000000000000           16008    02-KWR   +KWRMFOR    DC  XL64'00'            Mail forwarding address
 000626 0000000000000000           16009    02-KWR   +KWRMTXT    DC  XL80'00'            Mail information text
1DISK     (DISK4072) (12:42) (15MAR04) IOWA -- WYLBUR'S I/O WORK AREA                                                       Page   20
0Current Usings:  (CP,R11) (CV,R12)
0D-Loc  Object Code    Addr1 Addr2  Stmt Lv Lineno    Source Statement           (Hibal 5, Asmedit 3.3)  HLASM R4.0  2004/03/15 12.42
+_____  ______ ____    _____ _____  ____ __ ______    ______ _________
0                                  16010             +
 000676 0000000000000000           16011    02-KWR   +KWRCMD     DC  XL80'00'            First command to execute
 0006C6 0000000000000000           16012    02-KWR   +KWRLPORT   DC  XL20'00'            Last logoff port name
                                   16013             +
 0006DA 00000000                   16014    02-KWR   +KWRCRDT    DC  XL4'00'             Account creation date
                                   16015             +
 0006DE 0000                       16016    02-KWR   +KWRRENCT   DC  XL2'00'             No. of ORVYL RENAMEs (not used)
                                   16017             +
 0006E0 C7E4C5E2E3404040           16018    02-KWR   +KWRNETU    DC  CL16'GUEST'         Network user id (zeros=disabled)
 0006F0 D3C9D5C4E8404040           16019    02-KWR   +KWRNETH    DC  CL32'LINDY'         Network host name
                                   16020             +
 000710 0000000000000000           16021    02-KWR   +KWRLOCAL   DC  XL8'00'             For non-Stanford use (ISU!)
                                   16022    02-KWR   +KWRDATA    EQU KWRDSTRT,*-KWRDSTRT,C'X'
                                   16023             +
                                   16024    02-KWR   +KWREND     EQU *                   End of physical record
                                   16025             +
 000718 00                         16026    02-KWR   +KWRHFL     DC  X'00'               Status flags
                                   16027    02-KWR   +KWRHFCK    EQU X'80'               - Keyword checking in effect
                                   16028    02-KWR   +KWRHFUOK   EQU X'40'         Update successful--cannot occur with
                                   16029             +*                            kwrhferr or kwrhfful.  if kwrhfuok,
                                   16030             +*                            err, and ful are all 0, the record has
                                   16031             +*                            been changed since it was read.
                                   16032    02-KWR   +KWRHFERR   EQU X'20'               - I/O error reading keyword file
                                   16033    02-KWR   +KWRHFFUL   EQU X'10'               - No room to add user
                                   16034             +
 00071C                            16035    02-KWR   +         DS    0F
                                   16036    02-KWR   +KWR      EQU   KWRSTART,*-KWRSTART,C'X'
                                   16037    02-KWR   +KWRSIZE    EQU *-KWRSTART
                                   16038             +*
                                   16039             +*  Operation codes.
                                   16040             +*
                                   16041    02-KWR   +KWRCWR      EQU  X'80'             Write
                                   16042    02-KWR   +KWRCRD      EQU  X'40'             Read
                                   16043    02-KWR   +KWRCDIE     EQU  X'FF'             Shutdown keyword routines
-000720                            16045    01-IOWA  +DBUF     DS    0D
 000720                            16046    01-IOWA  +         DS    (32760)C            Famous I/O buffer
-                                  16048             +*** work area for dvtoc
                                   16049             +**  first part is format 4 dscb area
                                   16050             +*
 008718                08718 00720 16051    01-IOWA  +         ORG   DBUF
 000720                            16052    01-IOWA  +VTOCAREA DS    0D
                                   16054    02-IECSD +IECSDSL4 EQU   *                   FORMAT 4 DSCB
                                   16055    02-IECSD +IECSDSF4 EQU   IECSDSL4            SAME AS IECSDSL4                @P1C
 000720                            16056    02-IECSD +DS4IDFMT DS    CL1                 FORMAT IDENTIFIER (X'F4')
 000721                            16057    02-IECSD +DS4HPCHR DS    XL5                 HIGHEST ADDRESS (CCHHR) OF A    @P1C
                                   16058             +*                                     FORMAT 1 DSCB (SET TO END OF @P1A
                                   16059             +*                                     VTOC IF INDEXED VTOC)        @P1A
 000726                            16060    02-IECSD +DS4DSREC DS    XL2                 NUMBER OF AVAILABLE DSCB'S (NOT @P1C
                                   16061             +*                                     MAINTAINED IF INDEXED VTOC)  @P1A
 000728                            16062    02-IECSD +DS4HCCHH DS    XL4                 CCHH OF NEXT AVAILABLE ALTERNATE TRK
1DISK     (DISK4072) (12:42) (15MAR04) IOWA -- WYLBUR'S I/O WORK AREA                                                       Page   21
0Current Usings:  (CP,R11) (CV,R12)
0D-Loc  Object Code    Addr1 Addr2  Stmt Lv Lineno    Source Statement           (Hibal 5, Asmedit 3.3)  HLASM R4.0  2004/03/15 12.42
+_____  ______ ____    _____ _____  ____ __ ______    ______ _________
000072C                            16063    02-IECSD +DS4NOATK DS    XL2                 NUMBER OF REMAINING ALTERNATE TRACKS
 00072E                            16064    02-IECSD +DS4VTOCI DS    XL1                 VTOC INDICATORS
                                   16065    02-IECSD +DS4DOSBT EQU   X'80'  1... ....    VSE CONTAMINATION BIT (WAS DOS) @L6C
                                   16066             +*                                    ON IMPLIES F5 DSCB CHAIN IS   @L6A
                                   16067             +*                                    INVALID.  ONE OF THE          @02C
                                   16068             +*                                    FOLLOWING IS TRUE:  FREE      @02C
                                   16069             +*                                    SPACE INFORMATION IS          @02C
                                   16070             +*                                    MAINTAINED IN THE VTOC INDEX  @02C
                                   16071             +*                                    (SEE DS4IVTOC), OR FREE SPACE @02C
                                   16072             +*                                    INFO IS MAINTAINED IN THE     @02C
                                   16073             +*                                    FORMAT 7 CHAIN (SEE DS4EFVLD) @02C
                                   16074             +*                                    OR FREE SPACE INFORMATION IS  @02C
                                   16075             +*                                    NOT AVAILABLE.                @02C
                                   16076    02-IECSD +DS4DVTOC EQU   X'40'  .1.. ....    IF ON, THE INDEX WAS DISABLED   @P2A
                                   16077    02-IECSD +DS4EFVLD EQU   X'20'  ..1. ....    EXTENDED FREE-SPACE MANAGEMENT  @L6A
                                   16078             +*                                  VALIDITY FLAG.  ON IMPLIES      @L6A
                                   16079             +*                                  EXTENDED FREE-SPACE MANAGEMENT  @L6A
                                   16080             +*                                  IS ACTIVE AND FREE-SPACE IS     @L6A
                                   16081             +*                                  VALID.  SEE DS4EFLVL.           @L6A
                                   16082    02-IECSD +DS4DSTKP EQU   X'10'  ...1 ....    VSE STACKED PACK                @P1C
                                   16083    02-IECSD +DS4DOCVT EQU   X'08'  .... 1...    VSE CONVERTED VTOC              @P1C
                                   16084    02-IECSD +DS4DIRF  EQU   X'04'  .... .1..    DIRF BIT (DADSM INTERRUPT RECORDING
                                   16085             +*                                            FACILITY)             @P1C
                                   16086    02-IECSD +DS4DICVT EQU   X'02'  .... ..1.    DIRF RECLAIMED                  @P1C
                                   16087    02-IECSD +DS4IVTOC EQU   X'01'  .... ...1    IF ON, AN INDEX HAS BEEN CREATED@P1C
                                   16088             +*                                     FOR THE VTOC.                @P1A
                                   16089             +*                                  IF DS4DOSBT IS ON, THE INDEX IS @P1A
                                   16090             +*                                     VALID.                       @P1A
                                   16091             +*                                  IF EITHER OF THESE BITS IS OFF, @P1A
                                   16092             +*                                    THE INDEX HAS BEEN INVALIDATED@P1A
 00072F                            16093    02-IECSD +DS4NOEXT DS    XL1                 NUMBER OF EXTENTS IN THE VTOC
 000730                            16094    02-IECSDC+DS4SMSFG DS    XL1                 SYSTEM MANAGED STORAGE INDICATORS
                                                     +                                                                   @L4A
                                   16095    02-IECSD +DS4SMSTS EQU   X'C0'  11.. ....    SYSTEM MANAGED VOLUME TEST      @L4A
                                   16096    02-IECSD +DS4SMS   EQU   X'C0'  11.. ....    SYSTEM MANAGED VOLUME           @L4A
                                   16097             +*              X'80'  10.. ....    RESERVED                        @L4A
                                   16098    02-IECSDC+DS4SMSCV EQU   X'40'  01.. ....    SYSTEM MANAGED VOLUME IN INITIAL
                                                     +                                   STATUS                          @L4A
                                   16099    02-IECSD +DS4NTSMS EQU   X'00'  00.. ....    NON SYSTEM MANAGED VOLUME       @L4A
                                   16100             +*              X'3F'  ..11 1111    RESERVED                        @L4A
 000731                            16101    02-IECSD +DS4DEVAC DS    AL1                 Number of alternate cylinders   @04C
                                   16102             +*                                  Subtract from first two bytes   @04A
                                   16103             +*                                  of DS4DEVSZ to get number of    @04A
                                   16104             +*                                  usable cylinders.  Can be zero. @04A
                                   16105             +*                                  Valid only if DS4DEVAV is on.   @04A
 000732                            16106    02-IECSD +DS4DEVCT DS    0XL14               DEVICE CONSTANTS
 000732                            16107    02-IECSD +DS4DEVSZ DS    XL4                 DEVICE SIZE                     @P1C
 000736                00736 00732 16108    02-IECSD +         ORG   DS4DEVSZ            MAPPING OF DS4DEVSZ FIELDS      @L6A
 000732                            16109    02-IECSD +DS4DSCYL DS    XL2                 NUMBER OF LOGICAL CYLINDERS     @L6C
                                   16110             +*                                    (INCLUDES ALTERNATES IF ANY   @02A
                                   16111             +*                                       EXIST)                     @02A
 000734                            16112    02-IECSD +DS4DSTRK DS    XL2                 NUMBER OF TRACKS IN A           @L6C
                                   16113             +*                                     LOGICAL CYLINDER             @P1A
 000736                            16114    02-IECSD +DS4DEVTK DS    XL2                 DEVICE TRACK LENGTH
1DISK     (DISK4072) (12:42) (15MAR04) IOWA -- WYLBUR'S I/O WORK AREA                                                       Page   22
0Current Usings:  (CP,R11) (CV,R12)
0D-Loc  Object Code    Addr1 Addr2  Stmt Lv Lineno    Source Statement           (Hibal 5, Asmedit 3.3)  HLASM R4.0  2004/03/15 12.42
+_____  ______ ____    _____ _____  ____ __ ______    ______ _________
0000738                            16115    02-IECSD +DS4DEVOV DS    0XL2                KEYED RECORD OVERHEAD
 000738                            16116    02-IECSD +DS4DEVI  DS    XL1                    NON-LAST KEYED RECORD OVERHEAD
 000739                            16117    02-IECSD +DS4DEVL  DS    XL1                    LAST KEYED RECORD OVERHEAD
 00073A                            16118    02-IECSD +DS4DEVK  DS    XL1                 NON-KEYED RECORD OVERHEAD
                                   16119             +*                                     DIFFERENTIAL
 00073B                            16120    02-IECSD +DS4DEVFG DS    XL1                 FLAG BYTE
                                   16121    02-IECSD +DS4AMBJ  EQU   X'40'  .1.. ....    Formatted for sharing with      @05A
                                   16122             +*                                  non MVS systems.  When this bit @05A
                                   16123             +*                                  is on, this volume will appear  @05A
                                   16124             +*                                  to MVS to have all space        @05A
                                   16125             +*                                  allocated in one or more        @05A
                                   16126             +*                                  FMT1 DSCBs.                     @05A
                                   16127    02-IECSD +DS4DSF   EQU   X'20'  ..1. ....    Set by ICKDSF                   @05C
                                   16128    02-IECSD +DS4DEVAV EQU   X'10'  ...1 ....    Value in DS4DEVAC, number of    @04A
                                   16129             +*                                  alternate cylinders is valid.   @04A
                                   16130             +*                                  Otherwise, the number is not    @04A
                                   16131             +*                                  available in this DSCB.         @04A
                                   16132             +*                     .... 1...    THE KEYED RECORD OVERHEAD FIELD @L3A
                                   16133             +*                                  (DS4DEVOV) IS USED AS A 2-BYTE  @L3A
                                   16134             +*                                  FIELD TO SPECIFY THE OVERHEAD   @L3A
                                   16135             +*                                  REQUIRED FOR A KEYED RECORD     @L3A
                                   16136             +*                     .... .1..    THE CCHH OF AN ABSOLUTE ADDRESS IS
                                   16137             +*                                  USED AS A CONTINUOUS BINARY VALUE
                                   16138             +*                     .... ..1.    THE CCHH OF AN ABSOLUTE ADDRESS IS
                                   16139             +*                                  USED AS 4 SEPARATE BINARY VALUES
                                   16140             +*                     .... ...1    A TOLERANCE FACTOR MUST BE APPLIED
                                   16141             +*                                  TO ALL BUT THE LAST BLOCK OF THE
                                   16142             +*                                  TRACK.                          @L3A
                                   16143             +*                     XXX. ....    RESERVED BITS                   @04C
 00073C                            16144    02-IECSD +DS4DEVTL DS    XL2                 DEVICE TOLERANCE
 00073E                            16145    02-IECSD +DS4DEVDT DS    XL1                 NUMBER OF DSCB'S PER TRACK
 00073F                            16146    02-IECSD +DS4DEVDB DS    XL1                 NUMBER OF DIRECTORY BLOCKS PER TRACK
 000740                            16147    02-IECSD +DS4AMTIM DS    XL8                 VSAM TIME STAMP
 000748                            16148    02-IECSD +DS4AMCAT DS    0XL3                VSAM CATALOG INDICATOR
 000748                            16149    02-IECSD +DS4VSIND DS    XL1                 VSAM INDICATORS
                                   16150             +*                     1... ....    A VSAM CATALOG REFERENCES THIS  @L3A
                                   16151             +*                                  VOLUME.                         @L3A
                                   16152             +*                     .1.. ....    THE VSAM DATA SETS ON THIS VOLUME
                                   16153             +*                                  ARE UNUSUABLE BECAUSE AN MSS
                                   16154             +*                                  CONVERTV COMMAND HAS NOT COMPLETED
                                   16155             +*                                  SUCCESSFULLY FOR THIS VOLUME.   @L3A
                                   16156             +*                     ..XX XXXX    RESERVED BITS                   @L3A
 000749                            16157    02-IECSD +DS4VSCRA DS    XL2                 RELATIVE TRACK LOCATION OF THE CRA
 00074B                            16158    02-IECSD +DS4R2TIM DS    XL8                 VSAM VOLUME/CATALOG MATCH
                                   16159             +*                                  TIME STAMP
 000753                            16160    02-IECSD +         DS    XL5                 RESERVED
 000758                            16161    02-IECSD +DS4F6PTR DS    XL5                 POINTER (CCHHR) TO FIRST FORMAT @P1C
                                   16162             +*                                     6 DSCB OR ZERO               @P1A
 00075D                            16163    02-IECSD +DS4VTOCE DS    XL10                VTOC EXTENT DESCRIPTION
 000767                            16164    02-IECSD +         DS    XL10                RESERVED                        @L6C
 000771                            16165    02-IECSD +DS4EFLVL DS    CL1                 EXTENDED FREE-SPACE MANAGEMENT  @L6A
                                   16166             +*                                  LEVEL.                          @L6A
                                   16167             +*                                  X'00' MEANS EXTENDED FREE-      @L6A
                                   16168             +*                                  SPACE MANAGEMENT WILL NOT BE    @L6A
1DISK     (DISK4072) (12:42) (15MAR04) IOWA -- WYLBUR'S I/O WORK AREA                                                       Page   23
0Current Usings:  (CP,R11) (CV,R12)
0D-Loc  Object Code    Addr1 Addr2  Stmt Lv Lineno    Source Statement           (Hibal 5, Asmedit 3.3)  HLASM R4.0  2004/03/15 12.42
+_____  ______ ____    _____ _____  ____ __ ______    ______ _________
0                                  16169             +*                                  USED FOR THIS VOLUME.           @L6A
                                   16170             +*                                  X'07' MEANS WHEN IN NON-INDEXED @02C
                                   16171             +*                                  FORMAT, FREE-SPACE MANAGED IN   @L6A
                                   16172             +*                                  F7 DSCB'S.                      @L6A
                                   16173    02-IECSD +DS4EFL00 EQU   00                  EXTENDED FREE-SPACE             @L6A
                                   16174             +*                                  LEVEL 0.                        @L6A
                                   16175    02-IECSD +DS4EFL07 EQU   07                  EXTENDED FREE-SPACE             @L6A
                                   16176             +*                                  LEVEL 7.                        @L6A
 000772                            16177    02-IECSD +DS4EFPTR DS    CL5                 POINTER TO EXTENDED FREE-SPACE  @L6A
                                   16178             +*                                  INFORMATION:                    @L6A
                                   16179             +*                                  FOR DS4LVL=X'00' THIS IS ZERO.  @L6A
                                   16180             +*                                  FOR DS4EFLVL=X'07' THIS IS THE  @L6A
                                   16181             +*                                  CCHHR OF THE FIRST F7 DSCB.     @L6A
 000777                            16182    02-IECSD +         DS    XL9                 RESERVED                        @L6A
                                   16183    02-IECSD +DS4END   EQU   *                   EQUATE AT END OF DSCB4          @P1C
 000780                00780 0075D 16184    01-IOWA  +         ORG   DS4VTOCE            fmt 4 extent description
 00075D                            16185    01-IOWA  +         DS    CL2
 00075F                            16186    01-IOWA  +VTOCBEG  DS    CL4
 000763                            16187    01-IOWA  +VTOCEND  DS    CL4
 000767                            16188    01-IOWA  +         DS    279C
                                   16189             +**
 000880                            16190    01-IOWA  +PAGEGET  DS    F
 000884                            16191    01-IOWA  +VTOCSV   DS    11F
                                   16192             +
 0008B0                            16193    01-IOWA  +ENDTEST  DS    XL5
                                   16194             +
 0008B8                            16196    02-DVTAR +$$$DVT   DS    0F
 0008B8                            16197    02-DVTAR +DVTDEVCD DS    F                   device code
                                   16198             +
                                   16199    02-DVTAR +DVTOPT   EQU   DVTDEVCD+1,1,C'X'   device options
                                   16200    02-DVTAR +DVTFRPS  EQU   X'10'               - RPS device
                                   16201    02-DVTAR +DVTFOFLO EQU   X'40'               - overflow capability
                                   16202             +
                                   16203    02-DVTAR +DVTCLASS EQU   DVTDEVCD+2,1,C'X'   device class
                                   16204    02-DVTAR +DVTCDUMM EQU   X'00'               - dummy
                                   16205    02-DVTAR +DVTCTAPE EQU   X'80'               - tape
                                   16206    02-DVTAR +DVTCCOMM EQU   X'40'               - communications
                                   16207    02-DVTAR +DVTCDA   EQU   X'20'               - direct access
                                   16208    02-DVTAR +DVTCTP   EQU   X'10'               - teleprocessing
                                   16209    02-DVTAR +DVTCUR   EQU   X'08'               - unit record
                                   16210    02-DVTAR +DVTCJES  EQU   X'01'               - JES (sysin or sysout)
                                   16211             +
                                   16212    02-DVTAR +DVTUTYPE EQU   DVTDEVCD+3,1,C'X'   unit type
                                   16213    02-DVTAR +DVT2301  EQU   X'02'               - 2301 drum
                                   16214    02-DVTAR +DVT23051 EQU   X'06'               - 2305 drum model 1
                                   16215    02-DVTAR +DVT23052 EQU   X'07'               - 2305 drum model 2
                                   16216    02-DVTAR +DVT2314  EQU   X'08'               - 2314/2319 disk
                                   16217    02-DVTAR +DVT3330  EQU   X'09'               - 3330 disk model I
                                   16218    02-DVTAR +DVT3350  EQU   X'0B'               - 3350 disk
                                   16219    02-DVTAR +DVT33301 EQU   X'0D'               - 3330 disk model II
                                   16220    02-DVTAR +DVT3380  EQU   X'0E'               - 3380 disk
                                   16221             +
 0008BC                            16222    02-DVTAR +DVTMXBLK DS    F                   max block size
                                   16223             +
1DISK     (DISK4072) (12:42) (15MAR04) IOWA -- WYLBUR'S I/O WORK AREA                                                       Page   24
0Current Usings:  (CP,R11) (CV,R12)
0D-Loc  Object Code    Addr1 Addr2  Stmt Lv Lineno    Source Statement           (Hibal 5, Asmedit 3.3)  HLASM R4.0  2004/03/15 12.42
+_____  ______ ____    _____ _____  ____ __ ______    ______ _________
00008C0                            16224    02-DVTAR +DVTNUMC  DS    H                   number of cylinders
 0008C2                            16225    02-DVTAR +DVTNUMT  DS    H                   number of tracks
                                   16226             +
 0008C4                            16227    02-DVTAR +DVTTRKSZ DS    H                   track size
 0008C6                            16228    02-DVTAR +DVTBLKO  DS    X                   keyed block overhead
 0008C7                            16229    02-DVTAR +DVTLBLKO DS    X                   keyed block overhead (last)
                                   16230             +
 0008C8                            16231    02-DVTAR +DVTKEYO  DS    0X                  reduce overhead if no keys
 0008C8                            16232    02-DVTAR +DVTMODN  DS    X                   modulo factor, for modulo devices
 0008C9                            16233    02-DVTAR +DVTFLAG  DS    X                   flag byte
                                   16234    02-DVTAR +DVTFMOD  EQU   X'10'               - this is a modulo device (3380)
                                   16235    02-DVTAR +DVTFOHD  EQU   X'08'               - overhead is single half-word
                                   16236    02-DVTAR +DVTFTOL  EQU   X'01'               device needs tolerance factor
 0008CA                            16237    02-DVTAR +DVTTOL   DS    0H                  tolerance factor for device
 0008CA                            16238    02-DVTAR +DVTMODO  DS    H                   data overhead, for modulo devices
                                   16239             +*
                                   16240             +*  NOTE: DVTTOL is 512 for devices not having tolerance factor
                                   16241             +*        so DVTFTOL need not be checked before using DVTTOL.
                                   16242             +* NOTE2: Sorry Joe, DVTFTOL must now be checked, DEVTYPE now
                                   16243             +*        returns other info in that field for modulo devices
                                   16244             +*        like the 3380.
                                   16245             +*
 0008CC                            16246    02-DVTAR +DVTRPSR0 DS    H                   R0 overhead for RPS
 0008CE                            16247    02-DVTAR +DVTRPSTS DS    X                   total number of sectors
 0008CF                            16248    02-DVTAR +DVTRPSDS DS    X                   number of data sectors
                                   16249             +
                                   16250    02-DVTAR +DVTAREA  EQU   $$$DVT,*-$$$DVT,C'X'
                                   16251             +
 0008D0                            16252    01-IOWA  +NUMTRK   DS    H
                                   16253             +
 0008D2                            16254    01-IOWA  +SRCHC    DS    H
 0008D4                            16255    01-IOWA  +SRCHH    DS    H
 0008D6                            16256    01-IOWA  +SRCHR    DS    H
-0008D8                            16258    01-IOWA  +JFCB     DS    0D
                                   16260             +*%JFCBL1 : ;
                                   16261             +*
                                   16262             +*/****START OF SPECIFICATIONS*****************************************/
                                   16263             +*/*                                                                  */
                                   16264             +*/*01* MACRO NAME = IEFJFCBN                                         */
                                   16265             +*/*                                                                  */
                                   16266             +*/*01* DESCRIPTIVE NAME = Job File Control Block                     */
                                   16267             +*/*                                                                  */
                                   16268             +*/*02*  ACRONYM = JFCB                                               */
                                   16269             +*/*                                                                  */
                                   16270             +*/*01* PROPRIETARY STATEMENT=                                        */
                                   16271             +*/***PROPRIETARY_STATEMENT********************************************/
                                   16272             +*/*                                                                  */
                                   16273             +*/*                                                                  */
                                   16274             +*/* LICENSED MATERIALS - PROPERTY OF IBM                             */
                                   16275             +*/* THIS MACRO IS "RESTRICTED MATERIALS OF IBM"                      */
                                   16276             +*/* 5655-068 (C) COPYRIGHT IBM CORP. 1983, 1994                      */
                                   16277             +*/* SEE COPYRIGHT INSTRUCTIONS                                       */
1DISK     (DISK4072) (12:42) (15MAR04) IOWA -- WYLBUR'S I/O WORK AREA                                                       Page   25
0Current Usings:  (CP,R11) (CV,R12)
0D-Loc  Object Code    Addr1 Addr2  Stmt Lv Lineno    Source Statement           (Hibal 5, Asmedit 3.3)  HLASM R4.0  2004/03/15 12.42
+_____  ______ ____    _____ _____  ____ __ ______    ______ _________
0                                  16278             +*/*                                                                  */
                                   16279             +*/* STATUS= HBB5520                                                  */
                                   16280             +*/*                                                                  */
                                   16281             +*/***END_OF_PROPRIETARY_STATEMENT*************************************/
                                   16282             +*/*                                                              @L5C*/
                                   16283             +*/*01* FUNCTION = The Job Management routines construct a JFCB       */
                                   16284             +*/*         for each ddname specified in a job step.  In a           */
                                   16285             +*/*         concatenated data set, each of the multiple DD cards     */
                                   16286             +*/*         is given a ddname of blanks.  A JFCB is then             */
                                   16287             +*/*         concatenated for each DD, including those with a name    */
                                   16288             +*/*         of blanks.  It is brought into virtual storage when      */
                                   16289             +*/*         the data set is opened.  Information in a JFCB may be    */
                                   16290             +*/*         modified during OPEN processing.                         */
                                   16291             +*/*                                                                  */
                                   16292             +*/*01* EXTERNAL CLASSIFICATION:                                  @P4A*/
                                   16293             +*/*02* DMTI: BASE                                                @P4A*/
                                   16294             +*/*02* GUPI: FIELDS                                                  */
                                   16295             +*/*          JFCABN   JFCACC   JFCACT   JFCALLOW JFCALX              */
                                   16296             +*/*          JFCAMSTR JFCASA   JFCBABFS JFCBABS  JFCBABST            */
                                   16297             +*/*          JFCBADBF JFCBADSP JFCBAL   JFCBAVR  JFCBAXBF            */
                                   16298             +*/*          JFCBBFTA JFCBBFTK JFCBBFTR JFCBCEOV JFCBCKPT            */
                                   16299             +*/*          JFCBCRDT JFCBCTRI JFCBCYL  JFCBDQTY JFCBDRLH            */
                                   16300             +*/*          JFCBDSNM JFCBELNM JFCBEND  JFCBEXAD JFCBEXP             */
                                   16301             +*/*          JFCBEXTP JFCBFLG3 JFCBFLSQ JFCBFOUT JFCBFRID            */
                                   16302             +*/*          JFCBFTEK JFCBGNCP JFCBIN   JFCBLGTH JFCBLKSI            */
                                   16303             +*/*          JFCBLP   JFCBLSR  JFCBLSRD JFCBLTM  JFCBLTYP            */
                                   16304             +*/*          JFCBNTCS JFCBNVOL JFCBPQTY JFCBPROT JFCBQNAM            */
                                   16305             +*/*          JFCBSPAC JFCBSQTY JFCBTRK  JFCBUFIN JFCBUFL             */
                                   16306             +*/*          JFCBUFMX JFCBUFNO JFCBUFOF JFCBUFSI JFCBVLCT            */
                                   16307             +*/*          JFCBVLSQ JFCBVOLS JFCBXPDT JFCCBWU  JFCCHAR             */
                                   16308             +*/*          JFCCOMP  JFCCONV  JFCCPRI  JFCCYL   JFCCYLOF            */
                                   16309             +*/*          JFCDEL   JFCDEN   JFCDISP  JFCDQDSP JFCDSEQN            */
                                   16310             +*/*          JFCDSORG JFCDSRG1 JFCDSRG2 JFCDWORD JFCDYN              */
                                   16311             +*/*          JFCEBCD  JFCEQUAL JFCEROPT JFCEVEN  JFCEXC              */
                                   16312             +*/*          JFCEXT   JFCFCBAL JFCFCBID JFCFCBVR JFCFEED             */
                                   16313             +*/*          JFCFIX   JFCFMREC JFCFNCBD JFCFNCBI JFCFNCBP            */
                                   16314             +*/*          JFCFNCBR JFCFNCBT JFCFNCBW JFCFNCBX JFCFOLD             */
                                   16315             +*/*          JFCFUNC  JFCFWORD JFCIND   JFCINOP  JFCINTVL            */
                                   16316             +*/*          JFCIPLTX JFCKEYLE JFCLIMCT JFCLRECL JFCMAC              */
                                   16317             +*/*          JFCMAST  JFCMIXG  JFCMOD   JFCMODE  JFCMODEO            */
                                   16318             +*/*          JFCMODER JFCNCOMP JFCNCP   JFCNEW   JFCNL               */
                                   16319             +*/*          JFCNOCC  JFCNSL   JFCNTM   JFCNWRIT JFCOLD              */
                                   16320             +*/*          JFCONE   JFCONTIG JFCOPTJ  JFCOPTQ  JFCORGAM            */
                                   16321             +*/*          JFCORGCX JFCORGDA JFCORGGS JFCORGIS JFCORGPO            */
                                   16322             +*/*          JFCORGPS JFCORGU  JFCOUTLI JFCOUTOP JFCOVER             */
                                   16323             +*/*          JFCPCI   JFCPCIA1 JFCPCIA2 JFCPCIBT JFCPCIN1            */
                                   16324             +*/*          JFCPCIN2 JFCPCIR1 JFCPCIR2 JFCPCIX1 JFCPCIX2            */
                                   16325             +*/*          JFCPDS   JFCPOSID JFCPRTSP JFCRBIDC JFCRBIDO            */
                                   16326             +*/*          JFCRCFM  JFCRECFM JFCRECV  JFCREDUC JFCREL              */
                                   16327             +*/*          JFCREORG JFCRFB   JFCRFO   JFCRFS   JFCRKP              */
                                   16328             +*/*          JFCRLSE  JFCROUND JFCSDNAM JFCSEND  JFCSHARE            */
                                   16329             +*/*          JFCSIM   JFCSKP   JFCSL    JFCSPNO  JFCSPONE            */
                                   16330             +*/*          JFCSPTHR JFCSPTWO JFCSTACK JFCSUL   JFCTHRSH            */
                                   16331             +*/*          JFCTOPT  JFCTRAN  JFCTREV  JFCTRTCH JFCTWO              */
1DISK     (DISK4072) (12:42) (15MAR04) IOWA -- WYLBUR'S I/O WORK AREA                                                       Page   26
0Current Usings:  (CP,R11) (CV,R12)
0D-Loc  Object Code    Addr1 Addr2  Stmt Lv Lineno    Source Statement           (Hibal 5, Asmedit 3.3)  HLASM R4.0  2004/03/15 12.42
+_____  ______ ____    _____ _____  ____ __ ______    ______ _________
0                                  16332             +*/*          JFCUCSID JFCUCSOP JFCUND   JFCVAR   JFCVARD             */
                                   16333             +*/*          JFCVER   JFCWUMSG JFCWVCBD JFCWVCIS JFCWVCSP            */
                                   16334             +*/*          JFC1600  JFC200   JFC556   JFC6250  JFC800          @P5C*/
                                   16335             +*/*02* PSPI: FIELDS                                                  */
                                   16336             +*/*          JFCBFLG1 JFCBMASK JFCDUAL  JFCOPEN  JFCORGTQ            */
                                   16337             +*/*          JFCORGTR JFCORGTX JFCSDS   JFCSLCRE JFCSLDES            */
                                   16338             +*/*          JFCSTAND JFCVLDQ  JFCVLDQ1 JFCVLDQ2 JFCVLDQ3        @05C*/
                                   16339             +*/*          JFCVLDQ4 JFCVLDQ5                                   @05A*/
                                   16340             +*/*01* END OF EXTERNAL CLASSIFICATION:                           @P4A*/
                                   16341             +*/*                                                                  */
                                   16342             +*/*01* NOTES =                                                       */
                                   16343             +*/*     Reference Fields:                                            */
                                   16344             +*/*          INFMJFCB JFCBFALN JFCBFLG2 JFCBIND1 JFCBIND2            */
                                   16345             +*/*          JFCBTSDM JFCFLGS1 JFCOPTCD                          @P4A*/
                                   16346             +*/*                                                                  */
                                   16347             +*/*      F.E.'S                                                      */
                                   16348             +*/*          MICROFICHE LISTING - IEFJFCBN                           */
                                   16349             +*/*                                                                  */
                                   16350             +*/*      DEVELOPERS                                                  */
                                   16351             +*/*          BAL LISTING  - SPECIFY LIST=YES ON MACRO CALL.          */
                                   16352             +*/*          PL/S LISTING - SPECIFY %IHALIST='YES' BEFORE INCLUDE.   */
                                   16353             +*/*                                                                  */
                                   16354             +*/*      FOR INTEGRATION A LISTING SHOULD NOT BE REQUESTED.          */
                                   16355             +*/*                                                                  */
                                   16356             +*/*      CDPI Considerations                                         */
                                   16357             +*/*                                                                  */
                                   16358             +*/*          JFCBMASK+4 bit 0 is PSPI                                */
                                   16359             +*/*          JFCBMASK+5 bit 4 is PSPI                                */
                                   16360             +*/*                                                                  */
                                   16361             +*/*          JFCBFLG3 bit 4 (JFCTEMPS) is DMTI                   @08A*/
                                   16362             +*/*          JFCBFLG3 bit 5 (JFCBDDTK) is DMTI                   @09A*/
                                   16363             +*/*                                                                  */
                                   16364             +*/*     System Generated Temporary DSNAME Mapping:                   */
                                   16365             +*/*                                                                  */
                                   16366             +*/*          SYSnnnnn.Ttttttt.Rcnnn.JOBNAME.&&NAME.Hss   or      @03C*/
                                   16367             +*/*          '------' '-----' '---' '-----' '----' '-'           @03A*/
                                   16368             +*/*               |        |      |      |     |    |            @03A*/
                                   16369             +*/*      Dataset #1       #2     #3     #4    #5   #6            @03A*/
                                   16370             +*/*      Qualifiers                                              @03A*/
                                   16371             +*/*                                                                  */
                                   16372             +*/*          SYSnnnnn.Ttttttt.Rcnnn.JOBNAME.Rssnnnnn             @03C*/
                                   16373             +*/*          '------' '-----' '---' '-----' '------'                 */
                                   16374             +*/*               |        |      |      |      |                    */
                                   16375             +*/*      Dataset #1       #2     #3     #4     #5                    */
                                   16376             +*/*      Qualifiers                                                  */
                                   16377             +*/*                                                                  */
                                   16378             +*/*      Qualifier  Descriptions:                                    */
                                   16379             +*/*                                                                  */
                                   16380             +*/*      #1 - SYSnnnnn - Constant "SYS" followed by five numeric     */
                                   16381             +*/*                      characters                                  */
                                   16382             +*/*      #2 - Ttttttt  - Constant "T" followed by a six numeric      */
                                   16383             +*/*                      characters                                  */
                                   16384             +*/*      #3 - Rcnnn    - Constant "R" followed by 1 alpha character, */
                                   16385             +*/*                      followed by three numeric characters.       */
1DISK     (DISK4072) (12:42) (15MAR04) IOWA -- WYLBUR'S I/O WORK AREA                                                       Page   27
0Current Usings:  (CP,R11) (CV,R12)
0D-Loc  Object Code    Addr1 Addr2  Stmt Lv Lineno    Source Statement           (Hibal 5, Asmedit 3.3)  HLASM R4.0  2004/03/15 12.42
+_____  ______ ____    _____ _____  ____ __ ______    ______ _________
0                                  16386             +*/*      #4 - JOBNAME  - Name of job for which the data set was      */
                                   16387             +*/*                      generated                                   */
                                   16388             +*/*      #5 - &&NAME   - An alphanumeric field containing the        */
                                   16389             +*/*                     "NAME" portion of the specified &&NAME.      */
                                   16390             +*/*                     (DSNAME=&&NAME specified on DD statement)    */
                                   16391             +*/*         - Rssnnnn  - A unique character string beginning with    */
                                   16392             +*/*                     "R" followed by two numeric characters   @03C*/
                                   16393             +*/*                     which correspond to the system ID and    @03C*/
                                   16394             +*/*                     ending with a numeric value.                 */
                                   16395             +*/*                     (DSNAME= is not specified on this DD)        */
                                   16396             +*/*      #6 - Hss      - Constant "H" followed by two numeric    @03A*/
                                   16397             +*/*                     characters which correspond to the       @03A*/
                                   16398             +*/*                     System ID.                               @03A*/
                                   16399             +*/*                                                                  */
                                   16400             +*/*02*  DEPENDENCIES =                                               */
                                   16401             +*/*       1. Changes to this macro should be reflected in IPCS       */
                                   16402             +*/*            control block IEFMJFCB                            @L2A*/
                                   16403             +*/*                                                                  */
                                   16404             +*/*       2. For any incompatible change to this macro (field    @01A*/
                                   16405             +*/*          deletion, size change, etc.) a new macro variable   @01A*/
                                   16406             +*/*          should be declared for use with JFCB_FLD_VERSION.   @01A*/
                                   16407             +*/*          (See Invocation section.)                           @01A*/
                                   16408             +*/*                                                                  */
                                   16409             +*/*02*  RESTRICTIONS = None                                          */
                                   16410             +*/*                                                                  */
                                   16411             +*/**INVOCATION********************************************************/
                                   16412             +*/*                                                                  */
                                   16413             +*/*01* METHOD OF ACCESS =                                            */
                                   16414             +*/*                                                                  */
                                   16415             +*/*02*  PL/AS =                                                      */
                                   16416             +*/*          %INCLUDE SYSLIB(IEFJFCBN)                           @P2C*/
                                   16417             +*/*          DCL JFCBPTR PTR(31)                                 @P2C*/
                                   16418             +*/*                                                                  */
                                   16419             +*/*        If compile-time macro level checking is desired,      @01A*/
                                   16420             +*/*        include the following statements (see usage example   @01A*/
                                   16421             +*/*        below):                                               @01A*/
                                   16422             +*/*                                                                  */
                                   16423             +*/*          %DCL JFCB_FLD_VERSION FIXED EXTERNAL                @01A*/
                                   16424             +*/*          %DCL (desired version variables) FIXED EXTERNAL     @01A*/
                                   16425             +*/*          %IF JFCB_FLD_VERSION (desired test) %THEN (action)  @01A*/
                                   16426             +*/*                                                                  */
                                   16427             +*/*02*  BAL =                                                        */
                                   16428             +*/*          IEFJFCBN                                            @P2C*/
                                   16429             +*/*          A DSECT CARD SHOULD PRECEDE THE MACRO CALL.             */
                                   16430             +*/*          INFMJFCB GIVES ADDRESSABILITY FOR ALL SYMBOLS.          */
                                   16431             +*/*                                                                  */
                                   16432             +*/*        If assemble-time macro level checking is desired,     @01A*/
                                   16433             +*/*        include the following statements (see usage example   @01A*/
                                   16434             +*/*        below):                                               @01A*/
                                   16435             +*/*                                                                  */
                                   16436             +*/*          GBLA  &JFCB_FLD_VERSION                             @01A*/
                                   16437             +*/*          GBLA  (desired version variables)                   @01A*/
                                   16438             +*/*          AIF &JFCB_FLD_VERSION (desired test).label          @01A*/
                                   16439             +*/*                                                                  */
1DISK     (DISK4072) (12:42) (15MAR04) IOWA -- WYLBUR'S I/O WORK AREA                                                       Page   28
0Current Usings:  (CP,R11) (CV,R12)
0D-Loc  Object Code    Addr1 Addr2  Stmt Lv Lineno    Source Statement           (Hibal 5, Asmedit 3.3)  HLASM R4.0  2004/03/15 12.42
+_____  ______ ____    _____ _____  ____ __ ______    ______ _________
0                                  16440             +*/*      For both PL/S and assembler, the following macro        @01A*/
                                   16441             +*/*      variables are defined for use in determining the        @01A*/
                                   16442             +*/*      current version of the JFCB at assemble / compile       @01A*/
                                   16443             +*/*      time:                                                   @01A*/
                                   16444             +*/*                                                                  */
                                   16445             +*/*      JFCB_FLD_VERSION  - Set to one of the following values  @01A*/
                                   16446             +*/*                          to indicate the current version     @01A*/
                                   16447             +*/*      JFCBTDSI_DEFINED  - The JFCBTDSI field exists at this   @01A*/
                                   16448             +*/*                          version of the macro                @01A*/
                                   16449             +*/*                                                                  */
                                   16450             +*/*      Additional variables will be defined here as            @01A*/
                                   16451             +*/*      incompatible changes are made to this macro.            @01A*/
                                   16452             +*/*                                                                  */
                                   16453             +*/*      These variables are defined in this macro beginning     @01A*/
                                   16454             +*/*      with HBB4420 and HBB4430 with OY59716 applied.  At all  @01A*/
                                   16455             +*/*      lower levels of this macro, these variables will have   @01A*/
                                   16456             +*/*      a zero value.                                           @01A*/
                                   16457             +*/*                                                                  */
                                   16458             +*/*      Usage example:                                          @01A*/
                                   16459             +*/*                                                                  */
                                   16460             +*/*        The following code defines the JFCBTDSI field only    @01A*/
                                   16461             +*/*        if it is not already defined in the level of IEFJFCBN @01A*/
                                   16462             +*/*        being used for the compile (semi-colons deliberately  @01A*/
                                   16463             +*/*        omitted).  Assembler usage is similar.                @01A*/
                                   16464             +*/*------------------------------------------------------------------*/
                                   16465             +*/*        %IF JFCB_FLD_VERSION > 0 %THEN                        @01A*/
                                   16466             +*/*          %GOTO TDSI1                                         @01A*/
                                   16467             +*/*        %ELSE                                                 @01A*/
                                   16468             +*/*          %                                                   @01A*/
                                   16469             +*/*                                                                  */
                                   16470             +*/*        DCL JFCBTDSI BIT(16) DEF(JFCVINDX)                    @01A*/
                                   16471             +*/*        %TDSI1:                                               @01A*/
                                   16472             +*/*------------------------------------------------------------------*/
                                   16473             +*/*        The IF test could be written                          @01A*/
                                   16474             +*/*                                                                  */
                                   16475             +*/*        %IF JFCB_FLD_VERSION >= 1 %THEN                       @01A*/
                                   16476             +*/*                                                                  */
                                   16477             +*/*        The preceding tests will work at any level of         @01A*/
                                   16478             +*/*        IEFJFCBN, even if the macro version does not          @01A*/
                                   16479             +*/*        define JFCB_FLD_VERSION (since it will default to     @01A*/
                                   16480             +*/*        zero if not defined).                                 @01A*/
                                   16481             +*/*                                                                  */
                                   16482             +*/*        If it is known that the including source code will    @01A*/
                                   16483             +*/*        always be compiled against a version of IEFJFCBN      @01A*/
                                   16484             +*/*        that has the macro variables defined, the IF test can @01A*/
                                   16485             +*/*        use the macro variable name that represents the       @01A*/
                                   16486             +*/*        desired level of the macro:                           @01A*/
                                   16487             +*/*                                                                  */
                                   16488             +*/*        %IF JFCB_FLD_VERSION >= JFCBTDSI_DEFINED %THEN        @01A*/
                                   16489             +*/*                                                                  */
                                   16490             +*/********************************************************************/
                                   16491             +*/*                                                                  */
                                   16492             +*/*01* DSECT NAME = INFMJFCB (No DSECT generated)                    */
                                   16493             +*/*                                                                  */
1DISK     (DISK4072) (12:42) (15MAR04) IOWA -- WYLBUR'S I/O WORK AREA                                                       Page   29
0Current Usings:  (CP,R11) (CV,R12)
0D-Loc  Object Code    Addr1 Addr2  Stmt Lv Lineno    Source Statement           (Hibal 5, Asmedit 3.3)  HLASM R4.0  2004/03/15 12.42
+_____  ______ ____    _____ _____  ____ __ ______    ______ _________
0                                  16494             +*/*01* COMPONENT = Interpreter (SC1B9)                               */
                                   16495             +*/*                                                                  */
                                   16496             +*/*01* EYE CATCHER = JFCB                                            */
                                   16497             +*/*                                                                  */
                                   16498             +*/*02*  OFFSET = -4 (SWA prefix)                                     */
                                   16499             +*/*                                                                  */
                                   16500             +*/*02*  LENGTH = 4 bytes                                             */
                                   16501             +*/*                                                                  */
                                   16502             +*/*01* CREATED BY =                                                  */
                                   16503             +*/*         Interpreter and Dynamic Allocation                       */
                                   16504             +*/*                                                                  */
                                   16505             +*/*01* CREATED BY (IBM use only) =                                   */
                                   16506             +*/*     Interpreter Modules (IEFVDA, IEFVEA)                         */
                                   16507             +*/*     Dynamic Allocation Module (IEFDB414)                         */
                                   16508             +*/*                                                                  */
                                   16509             +*/*01* POINTED TO BY =                                               */
                                   16510             +*/*   - TIOEJFCB field (SVA) of the TIOT data area (DD entry JFCB)   */
                                   16511             +*/*                                                              @P4C*/
                                   16512             +*/*   - SWBUFPTR field in IEFZB506 upon return from IEFQMREQ         */
                                   16513             +*/*      macro (Preferred method of SVA translation)             @P4A*/
                                   16514             +*/*   - Output from DFSMS RDJFCB Macro                           @P4A*/
                                   16515             +*/*   - SWBLKPTR field in IEFZB505 upon return from SWAREQ           */
                                   16516             +*/*      macro                                                   @P4A*/
                                   16517             +*/*                                                                  */
                                   16518             +*/*01* POINTED TO BY (IBM use only) =                                */
                                   16519             +*/*   - SCTPJFCB field (SVA) of the SIOT data area                   */
                                   16520             +*/*   - SJFCBPTR field of the SIOT data area                         */
                                   16521             +*/*   - SSDAJFCB field of the SSOB extension (SSDA)  Data            */
                                   16522             +*/*      Management JFCB                                         @P4C*/
                                   16523             +*/*   - SSALJFCB field of the SSOB data area (allocation JFCB)       */
                                   16524             +*/*                                                                  */
                                   16525             +*/*01* SERIALIZATION = None for Interpreter, SVC 99 processing       */
                                   16526             +*/*                    for Dynamic Allocation and Unallocation       */
                                   16527             +*/*01* STORAGE ATTRIBUTES =                                          */
                                   16528             +*/*                                                                  */
                                   16529             +*/*  02* ALLOCATION METHOD = SWA Manager call                        */
                                   16530             +*/*                                                                  */
                                   16531             +*/*  02* SUBPOOL = 236 or 237 (SWA), 241 for MSTR address space      */
                                   16532             +*/*                                                                  */
                                   16533             +*/*  02* KEY = 1                                                     */
                                   16534             +*/*                                                                  */
                                   16535             +*/*  02* RESIDENCY = Any                                             */
                                   16536             +*/*                                                                  */
                                   16537             +*/*  02* FREQUENCY = One per ddname                                  */
                                   16538             +*/*                                                                  */
                                   16539             +*/*01* SIZE = 192 bytes (176 bytes mapped)                           */
                                   16540             +*/*                                                                  */
                                   16541             +*/*                                                                  */
                                   16542             +*/*01* CHANGE ACTIVITY = OY03334,OY05186                             */
                                   16543             +*/*                                                                  */
                                   16544             +*/*   $L1= ANSI78 JBB2110 820702 PD43: SUPPORT FOR ANSI-78       @L1A*/
                                   16545             +*/*   $H1= 3480 JBB2125 830420 PDFB: PHYSICAL BLOCK IDENTIFIER   @H1A*/
                                   16546             +*/*                                  FOR 3480 TAPE SUPPORT       @H1A*/
                                   16547             +*/*   $P1= PAJ0028 JBB2125 830420 PDFB: FIX DECLARE FOR JFCRESRV @P1A*/
1DISK     (DISK4072) (12:42) (15MAR04) IOWA -- WYLBUR'S I/O WORK AREA                                                       Page   30
0Current Usings:  (CP,R11) (CV,R12)
0D-Loc  Object Code    Addr1 Addr2  Stmt Lv Lineno    Source Statement           (Hibal 5, Asmedit 3.3)  HLASM R4.0  2004/03/15 12.42
+_____  ______ ____    _____ _____  ____ __ ______    ______ _________
0                                  16548             +*/*   $P2= PA20586 JBB2220 851014 PDD7: PA20586                  @P2A*/
                                   16549             +*/*   $D1= DCR0042 JBB2223 860630 PDN3: DCR0042                  @D1A*/
                                   16550             +*/*   $T1= OY05187 JBB2223 880325 PDN3: SUPPORT FOR SPE OY05187  @T1A*/
                                   16551             +*/*   $T2= OY09348 JBB2223 880707 PDN3: SUPPORT FOR SPE OY09348  @T2A*/
                                   16552             +*/*   $02= OY59370 HBB4410 921204 PDN3: Doc update               @02A*/
                                   16553             +*/*   $L2= DDPERF  HBB4420 900406 PDDS: DDPERFIPCS DD LIMIT          */
                                   16554             +*/*                                                PERFORMANCE   @L2A*/
                                   16555             +*/*   $L3= POSIX   HBB4430 911028 PDBN: OPEN/MVS Support         @L3A*/
                                   16556             +*/*   $L4= PR430   HBB4430 911028 PDBN: Clean up TTR references  @L4A*/
                                   16557             +*/*   $L5= POSIX   HBB4430 920108 PDBN: OPEN/MVS Support         @L5A*/
                                   16558             +*/*   $L6= DSCRD   HBB4430 920624 PDCC: Data Set Creation Date   @L6A*/
                                   16559             +*/*   $L7= ATLIB   HBB4430 920624 PDV6: Tape Library Support     @L7A*/
                                   16560             +*/*   $P3= PKB3816 HBB4430 920729 PDBD: 10X Defect Elimination   @P3A*/
                                   16561             +*/*   $P4= PKB3988 HBB4430 920901 PDN3: PR430 Component Cleanup  @P4A*/
                                   16562             +*/*   $01= OY59716 HBB4420 921218 PDBN: Tape Library Support     @01A*/
                                   16563             +*/*   $P5= PIG3650 HBB5510 931105 PDBN: PIG3650  - BLSR          @P5A*/
                                   16564             +*/*   $03= OW02787 HBB5510 940331 PDH1: Temporary Data set names @03A*/
                                   16565             +*/*   $P6= PN70552 HBB5520 940505 PDN3: PIG3650 -CDPI correction @P5A*/
                                   16566             +*/*   $04= OW25263 HBB6603 970630 PDRR: Roll OW22216 to HBB6603  @04A*/
                                   16567             +*/*   $05= OW25369 HBB4430 970630 PDRR: JFCDQDSP Support Change  @05A*/
                                   16568             +*/*   $06= OW27438 HBB4430 970630 PDRR: Reship to supersede      @06A*/
                                   16569             +*/*                                     PE APAR OW25369          @06A*/
                                   16570             +*/*   $07= OW39080 HBB6603 990115 PDNN: Blythe 2 Support         @07A*/
                                   16571             +*/*   $08= OW40532 HBB5510 990830 PDHB: Support for DFP APAR OW40353 */
                                   16572             +*/*                                     to allow DFP Open to handle  */
                                   16573             +*/*                                     Temporary, SMS Managed DASD  */
                                   16574             +*/*                                     datasets.                @08A*/
                                   16575             +*/*   $09= OW41236 HBB6603 990831 PDNN: Non-SMS PDSE/HFS Support @09A*/
                                   16576             +*/*                                                                  */
                                   16577             +*/****END OF SPECIFICATIONS*******************************************/
                                   16578             +*/*** RECORD OF CHANGES (recorded chronologically) *******************/
                                   16579             +*/*                                                                  */
                                   16580             +*/* A - PROLOGUE                                                 @L1A*/
                                   16581             +*/* A - SUPPORT FOR LRECL=NNNNNK FOR ANSI--ONE BIT USED TO       @L1A*/
                                   16582             +*/*     INDICATE THAT K WAS SPECIFIED ON THE LRECL PARAMETER.    @L1A*/
                                   16583             +*/* A - SUPPORT FOR PHYSICAL BLOCK IDENTIFIER                    @H1A*/
                                   16584             +*/* A - CHANGE DECLARE FOR JFCRESRV TO EQUAL DECLARE SIZE        @P1A*/
                                   16585             +*/* C - CLEANUP THE PROLOGUE                                     @P2A*/
                                   16586             +*/* C - ALL REFERENCES TO 'TTR' (COMMENTS) CHANGED TO 'SVA'      @P2A*/
                                   16587             +*/* C - CHANGED BYTE JFCBLTYP SO THAT RESERVED BIT JFCRSV38  @YA03334*/
                                   16588             +*/*     IS NOW JFCDSEQN WHICH INDICATES DATASET SEQUENCE     @YA03334*/
                                   16589             +*/*     NUMBER WAS SPECIFIED ON THE LABEL= PARAMETER.        @YA03334*/
                                   16590             +*/* A - DECLARED STRUCTURE TO THE JFCAMPTR FIELD.  THE       @YA05186*/
                                   16591             +*/*     STRUCTURE SHOWS THE PLACEMENT OF THE SVA WITHIN      @YA05186*/
                                   16592             +*/*     THE 4 CHARACTER FIELD                                @YA05186*/
                                   16593             +*/* D - REMOVED DEFINITION OF FIELD JFCAMSYN.  THE SYNAD EXIT    @D1A*/
                                   16594             +*/*     NAME WAS MOVED TO THE AMPX CONTROL BLOCK.                @D1A*/
                                   16595             +*/* C - TRTCH TO DEFINE THREE NEW VALUES: JFC1TRAK,                  */
                                   16596             +*/*     JFC2TRAK, AND JFC4TRAK.                                  @T1A*/
                                   16597             +*/* C - TRTCH TO DEFINE TWO NEW VALUES: JFCCOMP, JFCNCOMP        @T2A*/
                                   16598             +*/* A - ADD DEPENDENCY NOTE TO PROLOG FOR IPCS CONTROL BLOCK         */
                                   16599             +*/*     MODEL                                                    @L2A*/
                                   16600             +*/* A - Added PL/AS constant definition JFCBPCON to be placed in the */
                                   16601             +*/*     JFCBDSNM field when PATH is specified on a non-dummy DD  @L3A*/
1DISK     (DISK4072) (12:42) (15MAR04) IOWA -- WYLBUR'S I/O WORK AREA                                                       Page   31
0Current Usings:  (CP,R11) (CV,R12)
0D-Loc  Object Code    Addr1 Addr2  Stmt Lv Lineno    Source Statement           (Hibal 5, Asmedit 3.3)  HLASM R4.0  2004/03/15 12.42
+_____  ______ ____    _____ _____  ____ __ ______    ______ _________
0                                  16602             +*/* C - Restored appropriate references to TTRs                  @L4A*/
                                   16603             +*/* C - Converted to SHOWHDR format                              @L5A*/
                                   16604             +*/* C - Added comments to describe the Creation and Expiration Dates */
                                   16605             +*/*                                                              @L6A*/
                                   16606             +*/* C - Replaced label JFCVINDX, which was the virtual volume    @L7A*/
                                   16607             +*/*     index for MSS, with JFCBTDSI, which is the tape device   @L7A*/
                                   16608             +*/*     selection information.  Also, added a substructure to    @L7A*/
                                   16609             +*/*     map that 2-byte field.  The values assigned to JFCTRKNO, @L7A*/
                                   16610             +*/*     JFCMEDIA, JFCOMPTY and JFCSPECL are hex values rather    @L7A*/
                                   16611             +*/*     than bit values.                                         @L7A*/
                                   16612             +*/* C - Changed the field JFCBABST in the PL/AS version from     @P3A*/
                                   16613             +*/*     FIXED(15) to FIXED(16).  The JFCBABST was declared as    @P3A*/
                                   16614             +*/*     a Halfword in the Assembler version, and should be able  @P3A*/
                                   16615             +*/*     to store value up to 64K.  However, declaring it as a    @P3A*/
                                   16616             +*/*     FIXED(15) - signed 2 byte - only allow a maximum value   @P3A*/
                                   16617             +*/*     of 32K.  There is a DFP PTM (KMM2552) for this problem.  @P3A*/
                                   16618             +*/* C - Cleaned up... Annotated the assembler portion of the         */
                                   16619             +*/*     macro.  Component ownership issue.                       @P4A*/
                                   16620             +*/* A - Added Prolog section - EXTERNAL CLASSIFICATION, and      @P4A*/
                                   16621             +*/*     reference to SWAREQ macro.                               @P4A*/
                                   16622             +*/* A - Defined macro variables for determining JFCB version.    @01A*/
                                   16623             +*/* C - Changed comment to reflect actual processing.            @02A*/
                                   16624             +*/* A - Defined indicator JFCBLSR and field JFCBLSRD for BLSR    @P5A*/
                                   16625             +*/* C - Changed prolog to more accurately reflect the temporary      */
                                   16626             +*/*     Data Set naming convention.                              @03A*/
                                   16627             +*/* C - Corrected CDPI classification for flag JFCSDS            @P6A*/
                                   16628             +*/* A - Added support for new tapes devices 3580/3590-1 (Blythe) @04A*/
                                   16629             +*/* C - Redefined JFCBSPTN to JFCVLDQx since the SPLIT parameter @05A*/
                                   16630             +*/*     is no longer supported and space was needed for          @05A*/
                                   16631             +*/*     volser dequeue indicators.  (Note:  Mark Laman blessed   @05A*/
                                   16632             +*/*     this change.)                                            @05A*/
                                   16633             +*/* C - Added a new constant definition for JFCTRKNO for Blythe2 @07A*/
                                   16634             +*/* C - Changed previously Reserved flag JFCBRV04 to JFCTEMPS.       */
                                   16635             +*/*     This flag will be set by Allocation's IEFAB490 module for    */
                                   16636             +*/*     all SMS Managed DASD datasets with Generated dataset names   */
                                   16637             +*/*     (SIOTSMSM and SIOTGDSN, respectively) to tell DFP Open that  */
                                   16638             +*/*     this is a Temporary dataset.                             @08A*/
                                   16639             +*/* C - Redefined JFCBRV05 to JFCBDDTK which (when set on by     @09A*/
                                   16640             +*/*     IEFAB434 and IEFAB492 (Alloc)) indicates to DADSM        @09A*/
                                   16641             +*/*     ALLOCATE that register 6 contains the pointer to the     @09A*/
                                   16642             +*/*     DD token for the Allocation request currently being      @09A*/
                                   16643             +*/*     processed.                                               @09A*/
                                   16644             +*/*                                                                  */
                                   16645             +*/*------------------------------------------------------------------*/
                                   16646             +*%GOTO JFCBL2;  /*
                                   16648    03-00316 +       $$PUSH  PRINT
                                   16650    03-00281 +       $$PRINT OFF
                                   17412    03-00421 +       $$POP   PRINT
-                                  17414             +**  volume catalog entry work area...
 000988                            17415    01-IOWA  +CATBLOCK DS    0D
 000988                            17416    01-IOWA  +CATNOENT DS    H
 00098A                            17417    01-IOWA  +CATDVTYP DS    CL4
1DISK     (DISK4072) (12:42) (15MAR04) IOWA -- WYLBUR'S I/O WORK AREA                                                       Page   32
0Current Usings:  (CP,R11) (CV,R12)
0D-Loc  Object Code    Addr1 Addr2  Stmt Lv Lineno    Source Statement           (Hibal 5, Asmedit 3.3)  HLASM R4.0  2004/03/15 12.42
+_____  ______ ____    _____ _____  ____ __ ______    ______ _________
000098E                            17418    01-IOWA  +CATVOL   DS    CL6
 000994                            17419    01-IOWA  +CATSEQNO DS    CL2
                                   17420    01-IOWA  +CATENTSZ EQU   *-CATDVTYP
                                   17421             +
                                   17422    01-IOWA  +CATNTTR  EQU   CATBLOCK+256        ttr of block foll read block
                                   17423    01-IOWA  +CATVOLID EQU   CATNTTR+3           vol id of catlg
                                   17424    01-IOWA  +CATRSIZE EQU   CATVOLID+6-CATBLOCK size read from catlg
-                                  17426             +***  format 1 dscb work area ***
 000998                            17427    01-IOWA  +         DS    0D
                                   17429    02-IECSD +IECSDSL1 EQU   *                   FORMAT 1 DSCB
                                   17430    02-IECSD +IECSDSF1 EQU   IECSDSL1            SAME AS IECSDSL1                @P1C
 000998                            17431    02-IECSD +DS1DSNAM DS    CL44                DATA SET NAME
 0009C4                            17432    02-IECSD +DS1FMTID DS    CL1                 FORMAT IDENTIFIER (X'F1')       @L3C
 0009C5                            17433    02-IECSD +DS1DSSN  DS    CL6                 DATA SET SERIAL NUMBER
                                   17434             +*                                     (IDENTIFIES THE FIRST OR     @P1A
                                   17435             +*                                      ONLY VOLUME CONTAINING THE  @P1A
                                   17436             +*                                      DATA SET/SPACE)             @P1A
 0009CB                            17437    02-IECSD +DS1VOLSQ DS    XL2                 VOLUME SEQUENCE NUMBER (1-9999) @P1C
 0009CD                            17438    02-IECSD +DS1CREDT DS    XL3                 CREATION DATE
                                   17439             +*                                    (DISCONTINUOUS BIN, X'YYDDDD')@P1A
 0009D0                            17440    02-IECSD +DS1EXPDT DS    XL3                 EXPIRATION DATE
                                   17441             +*                                    (DISCONTINUOUS BIN, X'YYDDDD')@P1A
 0009D3                            17442    02-IECSD +DS1NOEPV DS    XL1                 NUMBER OF DATA EXTENTS ON VOLUME@P1C
 0009D4                            17443    02-IECSD +DS1NOBDB DS    XL1                 NUMBER OF BYTES USED IN LAST
                                   17444             +*                                     DIRECTORY BLOCK (PDS ONLY)   @02C
 0009D5                            17445    02-IECSD +DS1FLAG1 DS    XL1                 FLAG 1                          @LAA
                                   17446    02-IECSD +DS1COMPR EQU   X'80'  1... ....    COMPRESSABLE EXTENDED FORMAT    @LAA
                                   17447             +*                                  (DS1STRP MUST ALSO BE SET)      @LAA
                                   17448    02-IECSD +DS1CPOIT EQU   X'40'  .1.. ....    CHECKPOINTED DATASET            @03A
                                   17449             +*                     ..11 1111    RESERVED                        @03C
 0009D6                            17450    02-IECSD +DS1SYSCD DS    CL13                SYSTEM CODE
 0009E3                            17451    02-IECSD +DS1REFD  DS    XL3                 DATE LAST REFERENCED            @01C
                                   17452             +*                                    (DISCONTINUOUS BIN, X'YYDDDD')@P1A
                                   17453             +*                                    OR ZERO IF NOT MAINTAINED     @P1A
 0009E6                            17454    02-IECSDC+DS1SMSFG DS    XL1                 SYSTEM MANAGED STORAGE INDICATORS
                                                     +                                                                   @L4A
                                   17455    02-IECSD +DS1SMSDS EQU   X'80'  1... ....    SYSTEM MANAGED DATA SET         @L4A
                                   17456    02-IECSD +DS1SMSUC EQU   X'40'  .1.. ....    NO BCS ENTRY EXISTS FOR DATA SET@P6C
                                   17457    02-IECSD +DS1REBLK EQU   X'20'  ..1. ....    SDB AND D.S. MAY BE REBLOCKED   @02C
                                   17458    02-IECSD +DS1CRSDB EQU   X'10'  ...1 ....    DADSM CREATE ORIGINATED BLKSIZE @P5A
                                   17459    02-IECSD +DS1PDSE  EQU   X'08'  .... 1...    PDSE DATA SET                   @P7C
                                   17460    02-IECSD +DS1STRP  EQU   X'04'  .... .1..    EXTENDED FORMAT DATA SET        @LAC
                                   17461    02-IECSD +DS1PDSEX EQU   X'02'  .... ..1.    HFS DATA SET                    @L8A
                                   17462    02-IECSD +DS1DSAE  EQU   X'01'  ........1    EXTENDED ATTRIBUTES EXIST       @L9C
 0009E7                            17463    02-IECSD +DS1SCEXT DS    0XL3                SECONDARY SPACE EXTENSION       @L4C
 0009E7                            17464    02-IECSDC+DS1SCXTF DS    XL1                 SECONDARY SPACE EXTENSION FLAG -
                                                    C+                                   ONLY ONE OF THE FOLLOWING FLAGS
                                                     +                                   WILL BE SET 'ON'                @P4C
                                   17465    02-IECSD +DS1SCAVB EQU   X'80'  1... ....    IF 1, DS1SCXTV IS THE ORIGINAL  @L4A
                                   17466             +*                                  AVERAGE BLOCK LENGTH            @L4A
                                   17467    02-IECSD +DS1SCMB  EQU   X'40'  .1.. ....    IF 1, DS1SCXTV IS IN MEGABYTES  @L4A
                                   17468    02-IECSD +DS1SCKB  EQU   X'20'  ..1. ....    IF 1, DS1SCXTV IS IN KILOBYTES  @L4A
1DISK     (DISK4072) (12:42) (15MAR04) IOWA -- WYLBUR'S I/O WORK AREA                                                       Page   33
0Current Usings:  (CP,R11) (CV,R12)
0D-Loc  Object Code    Addr1 Addr2  Stmt Lv Lineno    Source Statement           (Hibal 5, Asmedit 3.3)  HLASM R4.0  2004/03/15 12.42
+_____  ______ ____    _____ _____  ____ __ ______    ______ _________
0                                  17469    02-IECSD +DS1SCUB  EQU   X'10'  ...1 ....    IF 1, DS1SCXTV IS IN BYTES      @L4A
                                   17470    02-IECSDC+DS1SCCP1 EQU   X'08'  .... 1...    IF 1, DS1SCXTV HAS BEEN COMPACTED
                                                     +                                   BY A FACTOR OF 256              @P4C
                                   17471    02-IECSDC+DS1SCCP2 EQU   X'04'  .... .1..    IF 1, DS1SCXTV HAS BEEN COMPACTED
                                                     +                                   BY A FACTOR OF 65536            @P4C
                                   17472             +*                     .... ..11    RESERVED                        @P3C
 0009E8                            17473    02-IECSD +DS1SCXTV DS    XL2                 SECONDARY SPACE EXTENSION VALUE @L4A
 0009EA                            17474    02-IECSD +DS1DSORG DS    XL2                 DATA SET ORGANIZATION
                                   17475             +*
                                   17476             +*                    FIRST BYTE OF DS1DSORG
                                   17477    02-IECSD +DS1DSGIS EQU   X'80'  1... ....    IS - INDEXED SEQUENTIAL         @L1A
                                   17478             +*                                  ORGANIZATION
                                   17479    02-IECSD +DS1DSGPS EQU   X'40'  .1.. ....    PS - PHYSICAL SEQUENTIAL        @L1A
                                   17480             +*                                  ORGANIZATION
                                   17481    02-IECSD +DS1DSGDA EQU   X'20'  ..1. ....    DA - DIRECT ORGANIZATION        @L1A
                                   17482    02-IECSD +DS1DSGCX EQU   X'10'  ...1 ....    CX - BTAM OR QTAM LINE GROUP    @L1A
                                   17483             +*        EQU   X'08'  .... 1...    CQ - QTAM DIRECT ACCESS MSG QUE @P1C
                                   17484             +*        EQU   X'04'  .... .1..    MQ - QTAM PROBLEM PROG MSG QUEUE@P1C
                                   17485    02-IECSD +DS1DSGPO EQU   X'02'  .... ..1.    PO - PARTITIONED ORGANIZATION   @L1A
                                   17486    02-IECSD +DS1DSGU  EQU   X'01'  .... ...1    U - UNMOVABLE, THE DATA SET     @P1C
                                   17487             +*                                      CONTAINS LOCATION DEPENDENT
                                   17488             +*                                      INFORMATION
                                   17489             +*
                                   17490             +*                     SECOND BYTE OF DS1DSORG
                                   17491    02-IECSD +DS1DSGGS EQU   X'80'  1... ....    GS - GRAPHICS ORGANIZATION      @L1A
                                   17492    02-IECSD +DS1DSGTX EQU   X'40'  .1.. ....    TX - TCAM LINE GROUP            @L1A
                                   17493    02-IECSD +DS1DSGTQ EQU   X'20'  ..1. ....    TQ - TCAM MESSAGE QUEUE         @L1A
                                   17494             +*        EQU   X'10'  ...1 ....    RESERVED                        @LAC
                                   17495    02-IECSD +DS1ACBM  EQU   X'08'  .... 1...    AM - ACCESS METHOD CONTROL BLOCK@P1C
                                   17496    02-IECSD +DS1ORGAM EQU   X'08'  .... 1...    AM - VSAM DATA SET/SPACE        @P1M
                                   17497    02-IECSD +DS1DSGTR EQU   X'04'  .... .1..    TR - TCAM 3705                  @L1A
                                   17498             +*        EQU   X'02'  .... ..X.    RESERVED                        @P1C
                                   17499             +*        EQU   X'01'  .... ...X    RESERVED                        @P1C
                                   17500             +*                                                                  @P1C
 0009EC                            17501    02-IECSD +DS1RECFM DS    XL1                 RECORD FORMAT
                                   17502    02-IECSD +DS1RECFF EQU   X'80'  10.. ....    F - FIXED LENGTH                @L3A
                                   17503    02-IECSD +DS1RECFV EQU   X'40'  01.. ....    V - VARIABLE LENGTH             @L3A
                                   17504    02-IECSD +DS1RECFU EQU   X'C0'  11.. ....    U - UNDEFINED LENGTH            @L3A
                                   17505    02-IECSD +DS1RECFT EQU   X'20'  ..1. ....    T - TRACK OVERFLOW              @L3A
                                   17506    02-IECSD +DS1RECFB EQU   X'10'  ...1 ....    B - BLOCKED: MAY NOT OCCUR WITH @L3A
                                   17507             +*                                      UNDEFINED (U).              @L3A
                                   17508    02-IECSD +DS1RECFS EQU   X'08'  .... 1...    FIXED LENGTH: (X'88')           @L3A
                                   17509             +*                                     STANDARD BLOCKS, NO TRUNCATED@L3A
                                   17510             +*                                     BLOCKS OR UNFILLED TRACKS.   @L3A
                                   17511             +*                                  VARIABLE LENGTH: (X'48')        @L3A
                                   17512             +*                                     SPANNED RECORDS.             @L3A
                                   17513    02-IECSD +DS1RECFA EQU   X'04'  .... .10.    ANSI CONTROL CHARACTER          @L3A
                                   17514    02-IECSD +DS1RECMC EQU   X'02'  .... .01.    MACHINE CONTROL CHARACTER       @L3A
                                   17515             +*                     .... .00.    NO CONTROL CHARACTER            @L3A
                                   17516             +*                     .... ...0    ALWAYS ZERO                     @L3A
 0009ED                            17517    02-IECSD +DS1OPTCD DS    XL1                 OPTION CODES -- INDICATES THE   @P1C
                                   17518             +*                                  VARIOUS OPTIONS USED IN         @P1C
                                   17519             +*                                  BUILDING THE DATA SET           @P1C
                                   17520             +*                                                                  @P1A
1DISK     (DISK4072) (12:42) (15MAR04) IOWA -- WYLBUR'S I/O WORK AREA                                                       Page   34
0Current Usings:  (CP,R11) (CV,R12)
0D-Loc  Object Code    Addr1 Addr2  Stmt Lv Lineno    Source Statement           (Hibal 5, Asmedit 3.3)  HLASM R4.0  2004/03/15 12.42
+_____  ______ ____    _____ _____  ____ __ ______    ______ _________
0                                  17521             +* BDAM DS1OPTCD FIELD ASSIGNMENTS (APPLY ONLY WHEN DS1DSGDA IS ON) @P1A
                                   17522             +*              X'80'  1... ....    W - WRITE VALIDITY CHECK        @P1A
                                   17523             +*              X'40'  .1.. ....      - TRACK OVERFLOW              @P1A
                                   17524             +*              X'20'  ..1. ....    E - EXTENDED SEARCH             @P1A
                                   17525             +*              X'10'  ...1 ....    F - FEEDBACK                    @P1A
                                   17526             +*              X'08'  .... 1...    A - ACTUAL ADDRESSING           @P1A
                                   17527             +*              X'04'  .... .1..      - DYNAMIC BUFFERING           @P1A
                                   17528             +*              X'02'  .... ..1.      - READ EXCLUSIVE              @P1A
                                   17529             +*              X'01'  .... ...1    R - RELATIVE BLOCK ADDRESSING   @P1A
                                   17530             +*                                                                  @P1A
                                   17531             +* ISAM DS1OPTCD FIELD ASSIGNMENTS (APPLY ONLY WHEN DS1DSGIS IS ON) @P1A
                                   17532             +*              X'80'  1... ....    W - WRITE VALIDITY CHECK        @P1A
                                   17533             +*              X'40'  .1.. ....    U - ACCUMULATE TRACK INDEX ENT  @P1A
                                   17534             +*              X'20'  ..1. ....    M - MASTER INDECIES             @P1A
                                   17535             +*              X'10'  ...1 ....    I - INDEPENDENT OVERFLOW AREA   @P1A
                                   17536             +*              X'08'  .... 1...    Y - CYLINDER OVERFLOW AREA      @P1A
                                   17537             +*              X'04'  .... .X..    RESERVED                        @P1A
                                   17538             +*              X'02'  .... ..1.    L - DELETE OPTION               @P1A
                                   17539             +*              X'01'  .... ...1    R - REORGANIZATION CRITERIA     @P1A
                                   17540             +*                                                                  @P1A
                                   17541             +* BPAM/BSAM/QSAM DS1OPTCD FIELD ASSIGNMENTS                        @P1A
                                   17542             +*                   (APPLY ONLY WHEN DS1DSGPO OR DS1DSGPS IS ON)   @P1A
                                   17543             +*              X'80'  1... ....    W - WRITE VALIDITY CHECK        @P1A
                                   17544             +*              X'40'  .1.. ....    U - ALLOW DATA CHECK (1403 PRTR)@P1A
                                   17545             +*              X'20'  ..1. ....    C - CHAINED SCHEDULING USING PCI@P1A
                                   17546             +*              X'10'  ...1 ....    H - VSE/OS INTERCHANGE FEATURE  @P1A
                                   17547             +*              X'08'  .... 1...    B - TREAT EOF AS EOV (TAPE)     @P1A
                                   17548             +*              X'04'  .... .1..    Z - SEARCH DIRECT               @P1A
                                   17549             +*              X'02'  .... ..1.    T - USER LABEL TOTALING         @P1A
                                   17550             +*              X'01'  .... ...1    J - FOR 3800 PRINTING SUBSYSTEM @P1A
                                   17551             +*                                                                  @P1A
                                   17552             +* VSAM DS1OPTCD FIELD ASSIGNMENTS (APPLY ONLY WHEN DS1ORGAM IS ON) @02C
                                   17553    02-IECSD +DS1OPTIC EQU   X'80'  1... ....    DATA SET CATALOGED IN ICF CTLG  @P1C
                                   17554    02-IECSD +DS1OPTBC EQU   X'40'  .1.. ....    DATA SET IS ICF CATALOG         @P1C
                                   17555             +*                     ..XX XXXX    RESERVED                        @P1C
                                   17556             +*
 0009EE                            17557    02-IECSD +DS1BLKL  DS    XL2                 BLOCK LENGTH (TYPE F RECORDS),  @L3C
                                   17558             +*                                  OR MAX BLKSIZE (U OR V RECORDS) @L3A
 0009F0                            17559    02-IECSD +DS1LRECL DS    XL2                 LOGICAL RECORD LENGTH
                                   17560             +*                                  FIXED LENGTH: RECORD LENGTH     @L3A
                                   17561             +*                                  UNDEFINED LENGTH: ZERO          @L3A
                                   17562             +*                                  VARIABLE UNSPANNED: MAX REC LEN @L3A
                                   17563             +*                                  VARIABLE SPANNED:               @L3A
                                   17564             +*                                   <= 32756 BYTES- MAX REC LEN    @02C
                                   17565             +*                                   > 32756 BYTES- X'8000'         @L3A
 0009F2                            17566    02-IECSD +DS1KEYL  DS    XL1                 KEY LENGTH (0 - 255)
 0009F3                            17567    02-IECSD +DS1RKP   DS    XL2                 RELATIVE KEY POSITION
 0009F5                            17568    02-IECSD +DS1DSIND DS    XL1                 DATA SET INDICATORS
                                   17569    02-IECSD +DS1IND80 EQU   X'80'  1... ....    LAST VOLUME CONTAINING DATA IN  @P1C
                                   17570             +*                                     THIS DATA SET                @02C
                                   17571    02-IECSD +DS1IND40 EQU   X'40'  .1.. ....    DATA SET IS RACF DEFINED    @G60ASBJ
                                   17572    02-IECSD +DS1RACDF EQU   DS1IND40            SAME USE AS BIT DS1IND40        @LBA
                                   17573    02-IECSD +DS1IND20 EQU   X'20'  ..1. ....    BLOCK LENGTH IS A MULTIPLE  @G60ASBJ
                                   17574             +*                                     OF 8 BYTES               @G60ASBJ
1DISK     (DISK4072) (12:42) (15MAR04) IOWA -- WYLBUR'S I/O WORK AREA                                                       Page   35
0Current Usings:  (CP,R11) (CV,R12)
0D-Loc  Object Code    Addr1 Addr2  Stmt Lv Lineno    Source Statement           (Hibal 5, Asmedit 3.3)  HLASM R4.0  2004/03/15 12.42
+_____  ______ ____    _____ _____  ____ __ ______    ______ _________
0                                  17575    02-IECSD +DS1IND10 EQU   X'10'  ...1 ....    PASSWORD IS REQUIRED TO     @G60ASBJ
                                   17576             +*                                  READ OR WRITE OR BOTH-SEE   @G60ASBJ
                                   17577             +*                                     DS1IND04                 @G60ASBJ
                                   17578    02-IECSD +DS1SECTY EQU   DS1IND10            SAME USE AS BIT DS1IND10        @LBA
                                   17579    02-IECSD +DS1IND08 EQU   X'08'  .... X...    RESERVED                        @P1C
                                   17580    02-IECSD +DS1IND04 EQU   X'04'  .... .1..    IF DS1IND10 IS 1 THEN           @P1C
                                   17581             +*                                     IF DS1IND04 IS . . .         @P1C
                                   17582             +*                                        1-PASSWORD REQUIRED TO    @P1C
                                   17583             +*                                          WRITE BUT NOT TO READ   @P1C
                                   17584             +*                                        0-PASSWORD REQUIRED TO    @P1C
                                   17585             +*                                          WRITE OR TO READ        @02C
                                   17586    02-IECSD +DS1WRSEC EQU   DS1IND04            SAME USE AS BIT DS1IND04        @LBA
                                   17587    02-IECSD +DS1IND02 EQU   X'02'  .... ..1.    DATA SET OPENED FOR OTHER   @G60ASBJ
                                   17588             +*                                     THAN INPUT SINCE LAST    @G60ASBJ
                                   17589             +*                                     BACKUP COPY MADE.        @G60ASBJ
                                   17590    02-IECSD +DS1DSCHA EQU   DS1IND02            SAME USE AS BIT DS1IND02    @G60ASBJ
                                   17591    02-IECSD +DS1IND01 EQU   X'01'  .... ...1    SECURE CHECKPOINT DATA SET      @01C
                                   17592    02-IECSD +DS1CHKPT EQU   DS1IND01            SAME AS DS1IND01                @L3C
 0009F6                            17593    02-IECSD +DS1SCALO DS    0XL4                SECONDARY ALLOCATION            @L3C
 0009F6                            17594    02-IECSD +DS1SCAL1 DS    XL1                 SPACE PARAMETERS                @P1C
                                   17595    02-IECSD +DS1DSPAC EQU   X'C0'  XX.. ....    BIT PATTERN FOR SPACE REQUEST   @L3A
                                   17596    02-IECSD +DS1CYL   EQU   X'C0'  11.. ....    CYLINDER REQUEST                @L3A
                                   17597    02-IECSD +DS1TRK   EQU   X'80'  10.. ....    TRACK REQUEST                   @L3A
                                   17598    02-IECSD +DS1AVR   EQU   X'40'  01.. ....    AVERAGE BLOCK LENGTH REQUEST    @L3A
                                   17599    02-IECSD +DS1AVRND EQU   X'41'  01.. ...1    AVERAGE BLOCK AND ROUND REQUEST @P1C
                                   17600    02-IECSD +DS1MSGP  EQU   X'20'  ..1. ....    RESERVED (WAS MSGP)             @02C
                                   17601    02-IECSD +DS1EXT   EQU   X'10'  ...1 ....    EXTENSION TO SECONDARY SPACE    @L4A
                                   17602             +*                                  DESCRIPTION EXISTS (DS1SCEXT)   @L4A
                                   17603    02-IECSD +DS1CONTG EQU   X'08'  .... 1...    CONTIGUOUS REQUEST              @L3A
                                   17604    02-IECSD +DS1MXIG  EQU   X'04'  .... .1..    MXIG REQUEST                    @L3A
                                   17605    02-IECSD +DS1ALX   EQU   X'02'  .... ..1.    ALX REQUEST                     @L3A
                                   17606             +*              X'01'  .... ...1    ROUND REQUEST                   @P1A
                                   17607    02-IECSD +DS1DSABS EQU   X'00'  0000 0000    ABSOLUTE TRACK REQUEST          @L3A
 0009F7                            17608    02-IECSD +DS1SCAL3 DS    XL3                 SECONDARY ALLOCATION QUANTITY   @P1C
 0009FA                            17609    02-IECSD +DS1LSTAR DS    XL3                 LAST USED TRACK AND BLOCK ON    @P1C
                                   17610             +*                                     TRACK (TTR).  NOTE:  FOR     @02C
                                   17611             +*                                     EXTENDED FORMAT, HIGH ORDER  @02C
                                   17612             +*                                     BYTES OF TT MAY BE CONTAINED @02C
                                   17613             +*                                     DS1TRBAL.                    @02C
 0009FD                            17614    02-IECSD +DS1TRBAL DS    XL2                 FOR EXTENDED FORMAT: 2 HIGH     @02C
                                   17615             +*                                     ORDER BYTES OF LAST USED     @02C
                                   17616             +*                                     TRACK (TTTTR).               @02C
                                   17617             +*                                  FOR PDSE, HFS, OR VSAM: ZERO    @02C
                                   17618             +*                                  OTHERWISE: CODE INDICATING      @02C
                                   17619             +*                                     SPACE REMAINING ON LAST      @02C
                                   17620             +*                                     USED TRACK.                  @02C
 0009FF                            17621    02-IECSD +         DS    XL2                 RESERVED
 000A01                            17622    02-IECSD +DS1EXT1  DS    XL10                FIRST EXTENT DESCRIPTION
                                   17623             +*        FIRST BYTE                EXTENT TYPE INDICATOR
                                   17624             +*              X'81'  1... ...1    EXTENT ON CYLINDER BOUNDARIES   @L3A
                                   17625             +*              X'80'  1... ....    RESERVED (WAS SPLIT CYLINDER)   @LAC
                                   17626             +*              X'40'  01.. ....    USER LABEL EXTENT (FIRST EXTENT @L3A
                                   17627             +*                                     ONLY, AND IS NOT COUNTED     @P1C
                                   17628             +*                                     IN DS1NOEPV)                 @P1A
1DISK     (DISK4072) (12:42) (15MAR04) IOWA -- WYLBUR'S I/O WORK AREA                                                       Page   36
0Current Usings:  (CP,R11) (CV,R12)
0D-Loc  Object Code    Addr1 Addr2  Stmt Lv Lineno    Source Statement           (Hibal 5, Asmedit 3.3)  HLASM R4.0  2004/03/15 12.42
+_____  ______ ____    _____ _____  ____ __ ______    ______ _________
0                                  17629             +*              X'04'  .... .1..    INDEX AREA EXTENT (ISAM)        @L3A
                                   17630             +*              X'02'  .... ..1.    OVERFLOW AREA EXTENT (ISAM)     @L3A
                                   17631             +*              X'01'  .... ...1    USER'S DATA BLOCK EXTENT OR     @L3A
                                   17632             +*                                     IS A PRIME AREA EXTENT (ISAM)@P1C
                                   17633             +*              X'00'  0000 0000    FOLLOWING 9 BYTES DO NOT        @L3A
                                   17634             +*                                     INDICATE ANY EXTENT          @P1C
                                   17635             +*        SECOND BYTE               EXTENT SEQUENCE NUMBER
                                   17636             +*        THIRD - SIXTH BYTES       LOWER LIMIT (CCHH)
                                   17637             +*        SEVENTH - TENTH BYTES     UPPER LIMIT (CCHH)
 000A0B                            17638    02-IECSD +DS1EXT2  DS    XL10                SECOND EXTENT DESCRIPTION
 000A15                            17639    02-IECSD +DS1EXT3  DS    XL10                THIRD EXTENT DESCRIPTION
 000A1F                            17640    02-IECSD +DS1PTRDS DS    XL5                 POINTER (CCHHR) TO A FORMAT 2   @P1C
                                   17641             +*                                     OR 3 DSCB, OR ZERO           @P1A
                                   17642    02-IECSD +DS1END   EQU   *                   EQUATE AT END OF DSCB1 MAP      @P1C
                                   17643             +* iecsdsl1 now defines the label ds1end
                                   17644    01-IOWA  +DS1SIZE  EQU   DS1END-DS1FMTID     size of non dsname dscb
                                   17645    01-IOWA  +DS1SPACE EQU   DS1SYSCD-1          location of space accounting flag
                                   17646    01-IOWA  +SPACFLAG EQU   X'01'               space accounting flag bit
                                   17647             +
 000A24                            17648    01-IOWA  +TRKADDS1 DS    XL5                 cchhr of dscb returned by obtain
-                                  17650             +**  format 3 dscb work area...
 000A29                00A29 00998 17651    01-IOWA  +         ORG   IECSDSL1
 000998                            17652    01-IOWA  +         DS    0D
                                   17654    02-IECSD +IECSDSL3 EQU   *                   FORMAT 3 DSCB
                                   17655    02-IECSD +IECSDSF3 EQU   IECSDSL3            SAME AS IECSDSL3                @P1C
 000998                            17656    02-IECSD +DS3DSCB  DS    0XL140              FORMAT 3 DSCB                   @L6A
 000998                            17657    02-IECSD +DS3KEYID DS    XL4                 KEY IDENTIFIER (X'03030303')
 00099C                            17658    02-IECSD +DS3EXT1  DS    0XL10               FIRST EXTENT DESCRIPTOR         @L6A
                                   17659             +*        FIRST BYTE                EXTENT TYPE INDICATOR
                                   17660             +*        SECOND BYTE               EXTENT SEQUENCE NUMBER
                                   17661             +*        THIRD - SIXTH BYTES       LOWER LIMIT (CCHH)              @P1C
                                   17662             +*        SEVENTH - TENTH BYTES     UPPER LIMIT (CCHH)              @P1C
 00099C                            17663    02-IECSD +DS3EXTNT DS    XL40                FOUR EXTENT DESCRIPTIONS
 0009C4                            17664    02-IECSD +DS3FMTID DS    CL1                 FORMAT IDENTIFIER (X'F3')
 0009C5                            17665    02-IECSD +DS3ADEXT DS    XL90                NINE ADDITIONAL EXTENT DESCRIPTIONS
 000A1F                            17666    02-IECSD +DS3PTRDS DS    XL5                 FORWARD CHAIN POINTER (CCHHR)   @P1C
                                   17667             +*                                     TO FORMAT 3 DSCB OR ZERO     @P1A
                                   17668    02-IECSD +DS3END   EQU   *                   EQUATE AT END OF DSCB3 MAP      @P1C
                                   17669             +* iecsdsl1 now defines the label ds3end
-                                  17671             +**  format 5 dscb work area...
 000A24                00A24 00998 17672    01-IOWA  +         ORG   IECSDSL1
                                   17674             +* VALID ONLY IF DS4EFVLD AND DS4DOSBT ARE OFF.                     @02A
                                   17675    02-IECSD +IECSDSL5 EQU   *                   FORMAT 5 DSCB
                                   17676    02-IECSD +IECSDSF5 EQU   IECSDSL5            SAME AS IECSDSL5                @P1C
 000998                            17677    02-IECSD +DS5KEYID DS    XL4                 KEY IDENTIFIER (X'05050505')
 00099C                            17678    02-IECSD +DS5AVEXT DS    XL5                 AVAILABLE EXTENT
                                   17679             +*        BYTES 1 - 2     RELATIVE TRACK ADDRESS OF THE FIRST TRACK
                                   17680             +*                        IN THE EXTENT
                                   17681             +*        BYTES 3 - 4     NUMBER OF UNUSED CYLINDERS IN THE EXTENT
                                   17682             +*        BYTE  5         NUMBER OF ADDITIONAL UNUSED TRACKS
1DISK     (DISK4072) (12:42) (15MAR04) IOWA -- WYLBUR'S I/O WORK AREA                                                       Page   37
0Current Usings:  (CP,R11) (CV,R12)
0D-Loc  Object Code    Addr1 Addr2  Stmt Lv Lineno    Source Statement           (Hibal 5, Asmedit 3.3)  HLASM R4.0  2004/03/15 12.42
+_____  ______ ____    _____ _____  ____ __ ______    ______ _________
00009A1                            17683    02-IECSD +DS5EXTAV DS    XL35                SEVEN AVAILABLE EXTENTS
 0009C4                            17684    02-IECSD +DS5FMTID DS    CL1                 FORMAT IDENTIFIER (X'F5')
 0009C5                            17685    02-IECSD +DS5MAVET DS    XL90                EIGHTEEN AVAILABLE EXTENTS
 000A1F                            17686    02-IECSD +DS5PTRDS DS    XL5                 FORWARD CHAIN POINTER (CCHHR)   @P1C
                                   17687             +*                                     TO FORMAT 5 DSCB OR ZERO     @P1A
                                   17688    02-IECSD +DS5END   EQU   *                   EQUATE AT END OF DSCB5          @P1C
                                   17689    02-IECSD +DS5EXTLN EQU   DS5EXTAV-DS5AVEXT   LENGTH OF AN EXTENT             @L6A
                                   17690             +*                                  DESCRIPTOR IN A FMT 5           @L6A
                                   17691             +*                                  DSCB                            @L6A
                                   17692    02-IECSD +DS5EXTMX EQU   26                  MAXIMUM NUMBER OF FREE          @L6A
                                   17693             +*                                  EXTENTS IN A FMT5 DSCB          @L6A
                                   17694    02-IECSD +DS5RTALN EQU   2                   LENGTH OF AN RTA IN A FMT 5
                                   17695             +*                                  EXTENTS IN A FMT5 DSCB          @L6A
                                   17696    02-IECSD +DS5IDC   EQU   X'F5'               FORMAT 5 IDENTIFIER CONSTANT    @L6A
-000A24                00A24 00A91 17698    01-IOWA  +         ORG   CATBLOCK+CATRSIZE   (must be .gt. ds3end)
                                   17699             +
 000A94                            17700    01-IOWA  +         DS    0F
 000A94                            17701    01-IOWA  +SAREA    DS    XL512               room for SBUF and SCATBUF
                                   17702             +
 000C94                            17703    01-IOWA  +         DS    0F
 000C94                            17704    01-IOWA  +JFCBSAVE DS    CL(JFCBLGTH)
-                                  17706             +* the following field is used only for a save..replace command
                                   17707             +* it saves the old dscb so that open can recreate the protection
                                   17708             +* fields in the dscb when the new dataset is opened.  actually
                                   17709             +* this field need only be used when an actual scratch of the
                                   17710             +* dataset must be done because of a change in size
                                   17711             +*
 000D48                            17712    01-IOWA  +DSCBSAVE DS    0D                  save the fmt1 dscb
 000D48                            17713    01-IOWA  +         DS    XL(DS1SIZE)
1DISK     (DISK4072) (12:42) (15MAR04) IOWA -- WYLBUR'S I/O WORK AREA                                                       Page   38
0Current Usings:  (CP,R11) (CV,R12)
0D-Loc  Object Code    Addr1 Addr2  Stmt Lv Lineno    Source Statement           (Hibal 5, Asmedit 3.3)  HLASM R4.0  2004/03/15 12.42
+_____  ______ ____    _____ _____  ____ __ ______    ______ _________
0                                  17715+            +   ¿þþþþþþþþþþþþþþþþþþþþþþþþþþþþþþþÜ
                                   17716+            +   Ÿ  Define RACF parameter lists  Ÿ
                                   17717+            +   ¾þþþþþþþþþþþþþþþþþþþþþþþþþþþþþþþ»
0000DA8 00C7C75BE4E4E4             17719    01-IOWA  +RACFID   DC    XL1'00',CL6'GG$UUU'     RACF USER ID
 000DAF 00D7C1E2E2E6D6D9           17720    01-IOWA  +RACFPSWD DC    XL1'00',CL8'PASSWORD'   RACF PASSWORD
 000DB8 87300F                     17721    01-IOWA  +RACFPDAT DC    XL3'87300F'             RACF PASSWORD CHANGE DATE
 000DBB 00                         17722    01-IOWA  +GREMLIN  DC    AL1(0)              Length byte for profile delete
                                   17723             +*                                  Sorry, every pgm should have one
 000DBC 4040404040404040           17724    01-IOWA  +GREMPRF  DC    CL44' '             Profile name to delete
 000DE8                            17728    02-RACIN +RACINIT  DS    0F
                                   17729    02-RACIN +ICH01263 EQU   *
 000DE8 38                         17730    02-RACIN +         DC    AL1(56)          LIST LENGTH                    @YA24122
 000DE9 00                         17731    02-RACIN +         DC    AL1(0)           NO SUBPOOL SPECIFIED           @PC003PY
 000DEA 00                         17732    02-RACIN +         DC    B'00000000'                                         @M4C
 000DEB 00                         17733    02-RACIN +         DC    B'00000000'                                         @L6A
 000DEC 00000DA8                   17734    02-RACIN +         DC    A(RACFID)  -        USERID ADDRESS FIELD
 000DF0 00000DAF                   17735    02-RACIN +         DC    A(RACFPSWD) -      PASSWORD ADDRESS FIELD
 000DF4 00000000                   17736    02-RACIN +         DC    A(0) -             PROCEDURE NAME ADDR FIELD
 000DF8 00000000                   17737    02-RACIN +         DC    A(0) -             INSTALLATION PARAMETERS ADDRESS
 000DFC 00000000                   17738    02-RACIN +         DC    A(0) -             GROUP ADDRESS FIELD
 000E00 00000000                   17739    02-RACIN +         DC    A(0) -             NEW PASSWORD ADDRESS FIELD
 000E04 00000000                   17740    02-RACIN +         DC    A(0) -             PGMNAME ADDRESS FIELD        @PC002PY
 000E08 00000000                   17741    02-RACIN +         DC    A(0) -             ACTINFO ADDRESS FIELD        @PC002PY
 000E0C 00000000                   17742    02-RACIN +         DC    A(0) -             OIDCARD ADDRESS FIELD        @PC002PY
 000E10 00000000                   17743    02-RACIN +         DC    A(0) -             TERMID ADDRESS FIELD         @PC002PY
 000E14 00000000                   17744    02-RACIN +         DC    A(0) -             JOBNAME ADDRESS FIELD        @PM44591
 000E18 00000000                   17745    02-RACIN +         DC    A(0) -             APPL ADDRESS FIELD           @PC003PY
 000E1C 00000000                   17746    02-RACIN +         DC    A(*-*)   -         ACEE ADDRESS FIELD           @PC003PY
                                   17747    01-IOWA  +RACINITL EQU   *-RACINIT           GENERATE LENGTH OF RACINIT
 000E20                00E20 00DE8 17748    01-IOWA  +         ORG   RACINIT             ORIGIN BACK
 000DE8                            17750    02-RACHE +RACHECK  DS    0F
                                   17751    02-RACHE +ICH01264    EQU *
 000DE8 38                         17752    02-RACHE +         DC    AL1(56)          LENGTH OF RACHECK PARAMETER LIST   @L7A
 000DE9 000000                     17753    02-RACHE +         DC    AL3(0) - ADDRESS OF INSTALLATION DATA
 000DEC 00                         17754    02-RACHE +         DC    B'00000000'
 000DED 000000                     17755    02-RACHE +         DC    AL3(0) -       ENTITY OR PROFILE ADDRESS FIELD  @PC002PY
 000DF0 02                         17756    02-RACHE +         DC    B'00000010'                                         @Q1C
 000DF1 000000                     17757    02-RACHE +         DC    AL3(0) -       CLASS NAME ADDRESS FIELD
 000DF4 00                         17758    02-RACHE +         DC    B'00000000'                              3RD FLAGS  @P1C
 000DF5 000000                     17759    02-RACHE +         DC    AL3(0) -       VOLSER ADDR FIELD
 000DF8 00000000                   17760    02-RACHE +         DC    A(0) -       OLD VOLSER ADDR FIELD              @PC002PY
 000DFC 00000000                   17761    02-RACHE +         DC    A(0)     - APPL ADDRESS                         @PC003PY
 000E00 00000000                   17762    02-RACHE +         DC    A(0)     - ACEE ADDRESS                         @PC003PY
 000E04 00000000                   17763    02-RACHE +         DC    A(0)     - OWNER ADDRESS.                         @L4A
 000E08 0000000000000000           17764    02-RACHE +         DC    4A(0)                                               @L5A
 000E18 00000000                   17765    02-RACHE +         DC    A(0)     - ACCESS VALUE ADDRESS.                  @L5A
 000E1C 00000000                   17766    02-RACHE +         DC    A(0)     - 2ND ACCESS ADDRESS.                    @L5A
0000E20                00E20 00DE8 17768    01-IOWA  +         ORG   RACINIT             ORIGIN BACK
 000DE8                            17770    02-ICHEI +ICHELST  DS    0F
 000DE8 00                         17773    04-ICHEO +         DC    AL1(0)                   IPLOPT1.
 000DE9 08                         17776    04-ICHEO +         DC    AL1(8)                   IPLOPT2.
 000DEA 01                         17779    04-ICHEO +         DC    AL1(1)                   IPLOPT3.
1DISK     (DISK4072) (12:42) (15MAR04) IOWA -- WYLBUR'S I/O WORK AREA                                                       Page   39
0Current Usings:  (CP,R11) (CV,R12)
0D-Loc  Object Code    Addr1 Addr2  Stmt Lv Lineno    Source Statement           (Hibal 5, Asmedit 3.3)  HLASM R4.0  2004/03/15 12.42
+_____  ______ ____    _____ _____  ____ __ ______    ______ _________
0000DEB 02                         17782    04-ICHEO +         DC    AL1(2)                   ENTRY TYPE.
 000DEC 00000DA8                   17785    04-ICHEO +         DC    AL4(RACFID)              ENTRY.
 000DF0 00000E04                   17788    04-ICHEO +         DC    AL4(IHB1265C)            FLDEF PTR.
 000DF4 00000000                   17791    04-ICHEO +         DC    AL4(0)                   POINTER TO RBA
 000DF8 00000000                   17794    04-ICHEO +         DC    AL4(0)                   ADDR OF ENTITY CLASS
 000DFC 00000000                   17797    04-ICHEO +         DC    AL4(0)                   WORK AREA OR NEWNAME
 000E00 00000000                   17800    04-ICHEO +         DC    AL4(0)                   POINTER TO VOLUME
                                   17801    02-ICHEI +IHB1265C EQU   *                        END OF FIXED LENGTH LIST
 000E04 00                         17804    04-ICHEO +         DC    AL1(0)                   RESERVED.
 000E05 00                         17807    04-ICHEO +         DC    AL1(0)                   MAX NO. TESTS.
 000E06 00                         17810    04-ICHEO +         DC    AL1(0)                   CURRENT NO. TESTS.
 000E07 02                         17813    04-ICHEO +         DC    AL1(2)                   NO. ACTIONS.
 000E08 00000E10                   17816    04-ICHEO +         DC    AL4(ICHSETP)             ACTION.
 000E0C 00000E24                   17819    04-ICHEO +         DC    AL4(ICHSETPD)            ACTION.
0000E10                            17822    02-ICHEA +ICHSETP  DS    0H                                              @ZA59772
 000E10 00                         17825    04-ICHEO +         DC    AL1(0)                   NO. OF TESTS.
 000E11 01                         17828    04-ICHEO +         DC    AL1(1)                   NO. OF FLDATA PTRS.
 000E12 00                         17831    04-ICHEO +         DC    AL1(0)                   FIRST FLAG BYTE
 000E13 00                         17834    04-ICHEO +         DC    AL1(0)                   GROUP INDICATOR.
 000E14 D7C1E2E2E6D6D9C4           17837    04-ICHEO +         DC    CL8'PASSWORD'            FIELD NAME.
 000E1C 00000008                   17840    04-ICHEO +         DC    AL4(8)                   FLDATA.
 000E20 00000DAF                   17843    04-ICHEO +         DC    AL4(RACFPSWD)            FLDATA.
0000E24                            17846    02-ICHEA +ICHSETPD DS    0H                                              @ZA59772
 000E24 00                         17849    04-ICHEO +         DC    AL1(0)                   NO. OF TESTS.
 000E25 01                         17852    04-ICHEO +         DC    AL1(1)                   NO. OF FLDATA PTRS.
 000E26 00                         17855    04-ICHEO +         DC    AL1(0)                   FIRST FLAG BYTE
 000E27 00                         17858    04-ICHEO +         DC    AL1(0)                   GROUP INDICATOR.
 000E28 D7C1E2E2C4C1E3C5           17861    04-ICHEO +         DC    CL8'PASSDATE'            FIELD NAME.
 000E30 00000003                   17864    04-ICHEO +         DC    AL4(3)                   FLDATA.
 000E34 00000DB8                   17867    04-ICHEO +         DC    AL4(RACFPDAT)            FLDATA.
                                   17868    01-IOWA  +ICHCLR   EQU   ICHELST,*-ICHELST,C'C'       PARAMETER LIST LENGTHS
 000E38                00E38 00DE8 17869    01-IOWA  +         ORG   RACINIT
 000DE8                            17871    02-ICHEI +ICHEDEL  DS    0F
 000DE8 00                         17874    04-ICHEO +         DC    AL1(0)                   IPLOPT1.
 000DE9 80                         17877    04-ICHEO +         DC    AL1(128)                 IPLOPT2.
 000DEA 0D                         17880    04-ICHEO +         DC    AL1(13)                  IPLOPT3.
 000DEB 04                         17883    04-ICHEO +         DC    AL1(4)                   ENTRY TYPE.
 000DEC 00000000                   17886    04-ICHEO +         DC    AL4(*-*)                 ENTRY.
 000DF0 00000E04                   17889    04-ICHEO +         DC    AL4(IHB1328C)            FLDEF PTR.
 000DF4 00000000                   17892    04-ICHEO +         DC    AL4(0)                   POINTER TO RBA
 000DF8 00000000                   17895    04-ICHEO +         DC    AL4(0)                   ADDR OF ENTITY CLASS
 000DFC 00000000                   17898    04-ICHEO +         DC    AL4(0)                   WORK AREA OR NEWNAME
 000E00 00000000                   17901    04-ICHEO +         DC    AL4(0)                   POINTER TO VOLUME
                                   17902    02-ICHEI +IHB1328C EQU   *                        END OF FIXED LENGTH LIST
 000E04 00                         17905    04-ICHEO +         DC    AL1(0)                   RESERVED.
 000E05 00                         17908    04-ICHEO +         DC    AL1(0)                   MAX NO. TESTS.
 000E06 00                         17911    04-ICHEO +         DC    AL1(0)                   CURRENT NO. TESTS.
 000E07 00                         17914    04-ICHEO +         DC    AL1(0)                   NO. ACTIONS.
 000E08                00E08 00DE8 17915    01-IOWA  +         ORG   RACINIT
 000DE8                            17917    02-ICHEI +ICHESRC  DS    0F
 000DE8 40                         17920    04-ICHEO +         DC    AL1(64)                  IPLOPT1.
 000DE9 00                         17923    04-ICHEO +         DC    AL1(0)                   IPLOPT2.
1DISK     (DISK4072) (12:42) (15MAR04) IOWA -- WYLBUR'S I/O WORK AREA                                                       Page   40
0Current Usings:  (CP,R11) (CV,R12)
0D-Loc  Object Code    Addr1 Addr2  Stmt Lv Lineno    Source Statement           (Hibal 5, Asmedit 3.3)  HLASM R4.0  2004/03/15 12.42
+_____  ______ ____    _____ _____  ____ __ ______    ______ _________
0000DEA 0D                         17926    04-ICHEO +         DC    AL1(13)                  IPLOPT3.
 000DEB 04                         17929    04-ICHEO +         DC    AL1(4)                   ENTRY TYPE.
 000DEC 00000000                   17932    04-ICHEO +         DC    AL4(*-*)                 ENTRY.
 000DF0 00000E04                   17935    04-ICHEO +         DC    AL4(IHB1357C)            FLDEF PTR.
 000DF4 00000000                   17938    04-ICHEO +         DC    AL4(0)                   POINTER TO RBA
 000DF8 00000000                   17941    04-ICHEO +         DC    AL4(0)                   ADDR OF ENTITY CLASS
 000DFC 00000000                   17944    04-ICHEO +         DC    AL4(0)                   WORK AREA OR NEWNAME
 000E00 00000000                   17947    04-ICHEO +         DC    AL4(0)                   POINTER TO VOLUME
                                   17948    02-ICHEI +IHB1357C EQU   *                        END OF FIXED LENGTH LIST
 000E04 00                         17951    04-ICHEO +         DC    AL1(0)                   RESERVED.
 000E05 00                         17954    04-ICHEO +         DC    AL1(0)                   MAX NO. TESTS.
 000E06 00                         17957    04-ICHEO +         DC    AL1(0)                   CURRENT NO. TESTS.
 000E07 00                         17960    04-ICHEO +         DC    AL1(0)                   NO. ACTIONS.
 000E08                00E08 00DE8 17961    01-IOWA  +         ORG   RACINIT
 000DE8                            17963    02-ICHEI +ICHEADD  DS    0F
 000DE8 08                         17966    04-ICHEO +         DC    AL1(8)                   IPLOPT1.
 000DE9 00                         17969    04-ICHEO +         DC    AL1(0)                   IPLOPT2.
 000DEA 0D                         17972    04-ICHEO +         DC    AL1(13)                  IPLOPT3.
 000DEB 04                         17975    04-ICHEO +         DC    AL1(4)                   ENTRY TYPE.
 000DEC 00000000                   17978    04-ICHEO +         DC    AL4(*-*)                 ENTRY.
 000DF0 00000E04                   17981    04-ICHEO +         DC    AL4(IHB1386C)            FLDEF PTR.
 000DF4 00000000                   17984    04-ICHEO +         DC    AL4(0)                   POINTER TO RBA
 000DF8 00000000                   17987    04-ICHEO +         DC    AL4(0)                   ADDR OF ENTITY CLASS
 000DFC 00000000                   17990    04-ICHEO +         DC    AL4(0)                   WORK AREA OR NEWNAME
 000E00 00000000                   17993    04-ICHEO +         DC    AL4(0)                   POINTER TO VOLUME
                                   17994    02-ICHEI +IHB1386C EQU   *                        END OF FIXED LENGTH LIST
 000E04 00                         17997    04-ICHEO +         DC    AL1(0)                   RESERVED.
 000E05 00                         18000    04-ICHEO +         DC    AL1(0)                   MAX NO. TESTS.
 000E06 00                         18003    04-ICHEO +         DC    AL1(0)                   CURRENT NO. TESTS.
 000E07 00                         18006    04-ICHEO +         DC    AL1(0)                   NO. ACTIONS.
 000E08                00E08 08718 18009    01-IOWA  +         ORG
                                   18010              IOWAGLEN EQU   *-IOWA              Generate total iowa length
1DISK     (DISK4072) (12:42) (15MAR04) IOWA -- WYLBUR'S I/O WORK AREA                                                       Page   41
0Current Usings:  (CP,R11) (CV,R12)
0D-Loc  Object Code    Addr1 Addr2  Stmt Lv Lineno    Source Statement           (Hibal 5, Asmedit 3.3)  HLASM R4.0  2004/03/15 12.42
+_____  ______ ____    _____ _____  ____ __ ______    ______ _________
0008718                08718 00A94 18012                       ORG   SAREA
                                   18013                       SDSNBUF
 000A98                            18014    01-SDSNB +SBUF     DS    0D                  output buffer for show dsnames
 000A98                            18015    01-SDSNB +SBDSN    DS    CL44                dsname
 000AC4                            18016    01-SDSNB +SBCRDT   DS    CL3                 creation date
 000AC7                            18017    01-SDSNB +SBEXDT   DS    CL3                 last access date
 000ACA                            18018    01-SDSNB +SBNOEX   DS    CL1                 no. of extents
 000ACB                            18019    01-SDSNB +SBDSORG  DS    CL2                 DSORG
 000ACD                            18020    01-SDSNB +SBDSIND  DS    X                   Data set indicators
                                   18021    01-SDSNB +SBWSB    EQU   X'02'               - File written since last backup
 000ACE                            18022    01-SDSNB +SBRECFM  DS    CL1                 recfm
 000ACF                            18023    01-SDSNB +SBKEYL   DS    CL1                 key length
 000AD0                            18024    01-SDSNB +SBLRECL  DS    H                   lrecl
 000AD2                            18025    01-SDSNB +SBBLKSZ  DS    H                   blksize
 000AD4                            18026    01-SDSNB +SBLB     DS    0H,CL5              last block - ttrll
 000AD9                            18027    01-SDSNB +SBACCTG  DS    CL1                 accounted for flag
 000ADA                            18028    01-SDSNB +SPTRK    DS    H                   tracks alloc
                                   18029             +
                                   18030    01-SDSNB +SBSZ     EQU   *-SBUF              ** must be halfword multiple **
1DISK     (DISK4072) (12:42) (15MAR04) IOWA -- WYLBUR'S I/O WORK AREA                                                       Page   42
0Current Usings:  (CP,R11) (CV,R12)
0D-Loc  Object Code    Addr1 Addr2  Stmt Lv Lineno    Source Statement           (Hibal 5, Asmedit 3.3)  HLASM R4.0  2004/03/15 12.42
+_____  ______ ____    _____ _____  ____ __ ______    ______ _________
0                                  18032              *
                                   18033              * Indexed VTOC support parameter lists and flag definitions
                                   18034              *
0000ADC 00                         18036              INXVFLG  FLAG  ,                   Processing indexed VTOC
 INXVFLG.INXVTOC   80 ONES         18040                       FLAG  INXVTOC               -  Active indexed VTOC
0000ADD 4040404040404040           18046              CVAFDSN  DC    CL44' '             Next data set from volume
 000B09 00000000000000
 000B10                            18047                       DC    0D'0'               Force alignment
                                   18048            C CVAFPL   CVAFSEQ
                                                    C                ACCESS=GTEQ,DSNONLY=YES,DSN=CVAFDSN,
                                                                     ARG=DS1PTRDS,IXRCDS=KEEP,MF=L
 000B10                            18049    01-CVAFS +         CNOP  0,4
                                   18050    01-CVAFS +CVAFPL   EQU   *
 000B10 C3E5D7D3                   18051    01-CVAFS +         DC    CL4'CVPL'                EBCDIC 'CVPL'
 000B14 0040                       18052    01-CVAFS +         DC    AL2(ICV1418E-CVAFPL)     LENGTH OF CVPL
 000B16 05                         18053    01-CVAFS +         DC    XL1'05'                  FUNCTION CODE
 000B17 00                         18054    01-CVAFS +         DC    XL1'00'                  STATUS INFORMATION
 000B18 08                         18055    01-CVAFS +         DC    B'00001000'              FIRST FLAG BYTE
 000B19 04                         18056    01-CVAFS +         DC    B'00000100'              SECOND FLAG BYTE
 000B1A 0000                       18057    01-CVAFS +         DC    H'0'                     RESERVED
 000B1C 00000000                   18058    01-CVAFS +         DC    A(0)                     UCB ADDRESS
 000B20 00000ADD                   18059    01-CVAFS +         DC    A(CVAFDSN)               DATA SET NAME ADDRESS
 000B24 00000000                   18060    01-CVAFS +         DC    A(0)                     BUFFER LIST ADDRESS
 000B28 00000000                   18061    01-CVAFS +         DC    A(0)                     INDEX VIR'S BUFFER LIST ADDRESS
 000B2C 00000000                   18062    01-CVAFS +         DC    A(0)                     MAP VIR'S BUFFER LIST ADDRESS
 000B30 00000000                   18063    01-CVAFS +         DC    A(0)                     I/O AREA ADDRESS
 000B34 00000000                   18064    01-CVAFS +         DC    A(0)                     DEB ADDRESS
 000B38 00000A1F                   18065    01-CVAFS +         DC    A(DS1PTRDS)              ARGUMENT ADDRESS
 000B3C 00000000                   18066    01-CVAFS +         DC    A(0)                     SPACE PARAMETER LIST ADDRESS
 000B40 00000000                   18067    01-CVAFS +         DC    A(0)                     EXTENT TABLE ADDRESS
 000B44 00000000                   18068    01-CVAFS +         DC    A(0)                     NEW VRF VIXM BUFFER LIST ADDR
 000B48 00000000                   18069    01-CVAFS +         DC    A(0)                     VRF DATA ADDRESS
 000B4C 00000000                   18070    01-CVAFS +         DC    A(0)                     COUNT AREA ADDRESS
                                   18071    01-CVAFS +ICV1418E EQU   *                        END OF CVPL
1DISK     (DISK4072) (12:42) (15MAR04) IOWA -- WYLBUR'S I/O WORK AREA                                                       Page   43
0Current Usings:  (CP,R11) (CV,R12)
0D-Loc  Object Code    Addr1 Addr2  Stmt Lv Lineno    Source Statement           (Hibal 5, Asmedit 3.3)  HLASM R4.0  2004/03/15 12.42
+_____  ______ ____    _____ _____  ____ __ ______    ______ _________
0                                  18073                       SCATBUF
 000B50                00B50 00A98 18074    01-SCATB +         ORG   SBUF
 000A98                            18075    01-SCATB +SCBUF    DS    0D                  output buffer for show catalog
 000A98                            18076    01-SCATB +SCBCODE  DS    CL1                 type entry code
 000A99                            18077    01-SCATB +SCBNM    DS    CL8                 index level name
 000AA1                            18078    01-SCATB +SCBNM2   DS    0CL8                other name for alias entry
 000AA1                            18079    01-SCATB +SCBVOL   DS    CL6                 volume name
 000AA7                            18080    01-SCATB +SCBDEVCD DS    CL4                 Device codes
                                   18081             +**** following two fields must remain in order ****
 000AAB                            18082    01-SCATB +SCBMAX   DS    CL1                 max gdg names
 000AAC                            18083    01-SCATB +SCBNVOLS DS    H                   number of vols or gdg entries
 000AAE                            18084    01-SCATB +SCBSEQNO DS    H                   ds sequence number
                                   18085    01-SCATB +SCBSZ    EQU   *-SCBUF             ** must be halfword multiple **
                                   18087              *
                                   18088              DSORGPS  EQU   X'40'               Dsorg=ps
                                   18089              DSORGPO  EQU   X'02'               Dsorg=po
                                   18090              UNDEFIND EQU   X'C0'               Recfm=u
                                   18091              FIXBLOCK EQU   X'90'               Recfm=fb
                                   18092              RECFMF   EQU   X'80'               Recfm=f
                                   18093              RECFMV   EQU   X'40'               Recfm=v
                                   18094              BLOCKED  EQU   X'10'               Recfm=xb
                                   18095              SPANNED  EQU   X'08'               Recfm=xs
1DISK     (DISK4072) (12:42) (15MAR04) DISKINIT -- DISK's Initialization Chores                                             Page   44
0Current Usings:  (CP,R11) (CV,R12)
0D-Loc  Object Code    Addr1 Addr2  Stmt Lv Lineno    Source Statement           (Hibal 5, Asmedit 3.3)  HLASM R4.0  2004/03/15 12.42
+_____  ______ ____    _____ _____  ____ __ ______    ______ _________
0000017                00000 0478B 18097              WYLDISK  CSECT
                                   18099                       ENTRY IOWASIZE            Total iowa length, externalized
 000017 00
 000018 00008718                   18100              IOWASIZE DC    A(IOWAGLEN)         Used in FAIL
1DISK     (DISK4072) (12:42) (15MAR04) DISKINIT -- DISK's Initialization Chores                                             Page   45
0Current Usings:  (CP,R11) (CV,R12)
0Loc    Object Code    Addr1 Addr2  Stmt Lv Lineno    Source Statement           (Hibal 5, Asmedit 3.3)  HLASM R4.0  2004/03/15 12.42
+___    ______ ____    _____ _____  ____ __ ______    ______ _________
0                                  18102              ¿þþþþþþþþþþþþþþþþþþþþþþþþþþþþþþþþþþþþþþþþþþþþþþþþþþþþþþþþþþþþþþþþþþþþþÜ
                                   18103              Ÿ                                                                     Ÿ
                                   18104              Ÿ  DISKINIT -- Routine to initialize I/O stuff (called by "INIT"      Ÿ
                                   18105              Ÿ   during WYLBUR initialization).  This routine initializes          Ÿ
                                   18106              Ÿ   the volume table and the I/O subtasks.                            Ÿ
                                   18107              Ÿ                                                                     Ÿ
                                                      ¾þþþþþþþþþþþþþþþþþþþþþþþþþþþþþþþþþþþþþþþþþþþþþþþþþþþþþþþþþþþþþþþþþþþþþ»
000001C 50E0 D000/9028_      00000 18108              DISKINIT XENTER
 USING  *,R7
                                   18127                       ¿þþþþþþþþþþþþþþþþþþþþþþþþþþÜ
                                   18128                       Ÿ  Load the I/O subtasks.  Ÿ
                                   18129                       ¾þþþþþþþþþþþþþþþþþþþþþþþþþþ»
 000036 5850 75B2            005E8 18130                       L     R5,=V(IOWRSG)       Iowa resource group ptr
 USING  RSCGROUP,R5                18131                       USING RSCGROUP,R5
 00003A 4110 501C            0001C 18140                       LA    R1,RSGQFRFW         Point at free chain
 00003E 1821                       18141                       LR    R2,R1               Copy
 000040 9012 501C            0001C 18142                       STM   R1,R2,RSGQFRFW      Initialize pointers
 000044 4840 500C            0000C 18143                       LH    R4,RSG#FREE         Get number to start
 000048 1B66                       18144                       CLEAR IOWAR
 00004A                            18148              IOLOADLP LABEL ,                   Initialize next iowa
 00004A 5800 75B6            005EC 18150                       L     R0,=A(IOWAGLEN)     SET TOTAL LENGTH OF IOWA
 00004E BF08 75E8            0061E 18151                       ICM   R0,8,=AL1(60)       SP=60 (Added, 3/89, Niz)
 000052 4510 7020/0A0A       00056 18152                       GETMAIN R,LV=(0)          Request storage for iowa
 000058 1861                       18156                       LR    IOWAR,R1            Copy address of IOWA
 00005A 1801                       18157                       LR    R0,R1               Copy address for IOWA clear
 00005C 5810 75B6            005EC 18158                       L     R1,=A(IOWAGLEN)       Set length of total IOWA
 000060 1BFF                       18159                       CLEAR R15                     Zero from length and pad
 000062 0E0E                       18163                       MVCL  R0,R14                    Clear IOWA to zeroes
 USING  IOWA,R6                    18164                       WITH  IOWA,BEGIN
 000064 1816                       18177  1                      LR    R1,IOWAR            Copy for queue.
 000066 41F0 501C            0001C 18178  1                      LA    R15,RSGQFRFW-(RSC@NEXT-RESOURCE)
 00006A 58E0 75BA/0DEE       005F0 18179  1                      QRSC  (R1)                Queue up the resource
 000070 4100 637C            0037C 18188  1                      LA    R0,DECB             Point at ecb
 000074 5000 600C            0000C 18189  1                      ST    R0,IWA$ECB          Save address
 000078 9640 6014      00014       18190  1                      SET   IWA1@ECB            Set have ecb address
 00007C 4240 6169            00169 18196  1                      STC   R4,IDMASK           Save iowa number
 000080 D207 6170 75AA 00170 005E0 18197  1                      MVC   DSDD,=CL8'IOWA'
 000086 18F4/4100 0002_            18198  1                      BTD   DSDD+4,2,(R4)       Iowa number
 000096 96F0 6174      00174       18221  1                      OI    DSDD+4,C'0'         (leading zero)
000009A 4100 637C            0037C 18223  1                      LA    R0,DECB             Address of data event control
 00009E 5000 6018            00018 18224  1                      ST    R0,WADECB             Save for waiton/off post
00000A2 4100 68D8            008D8 18226  1                      LA    R0,JFCB             Address of job file cnt block
 0000A6 5000 6190            00190 18227  1                      ST    R0,EXLST+4            Save for dcb exlst
 0000AA 9287 6190      00190       18228  1                      MVI   EXLST+4,X'87'         Set jfcb dcb exit and lst
00000AE 92C2 6198      00198       18230  1                      MVI   IOB,X'C2'           Set IOB channel flags
00000B2 D2A7 61C0 74EA 001C0 00520 18232  1                      MVC   SRCHCCW(CCWMLEN),CCWMODL      MOVE IN CCW CHAIN
 0000B8 4110 61C0            001C0 18233  1                      LA    R1,SRCHCCW          Set address of 1st ccw in chain
 0000BC 4100 6268            00268 18234  1                      LA    R0,SRCHCCW+CCWMLEN  Set last address for termination
 0000C0                            18235  1                      LOOP  BEGIN               Relocate ccw chain
1DISK     (DISK4072) (12:42) (15MAR04) DISKINIT -- DISK's Initialization Chores                                             Page   46
0Current Usings:  (RSCGROUP,R5) (IOWA,R6) (*,R7) (CP,R11) (CV,R12)
0Loc    Object Code    Addr1 Addr2  Stmt Lv Lineno    Source Statement           (Hibal 5, Asmedit 3.3)  HLASM R4.0  2004/03/15 12.42
+___    ______ ____    _____ _____  ____ __ ______    ______ _________
00000C0 BF27 1001            00001 18241  2                        ICM   R2,7,@R1+1          Set ccw address into register
 0000C4 1E26                       18242  2                        ALR   R2,IOWAR              Relocate ccw address
 0000C6 BE27 1001            00001 18243  2                        STCM  R2,7,@R1+1              Reset ccw address in chain
 0000CA 4110 1008            00008 18244  2                        LA    R1,@R1+8            Bump to next ccw in chain
 0000CE 1910/4750 708A             18245  1                      UNTIL (R1,GE,R0),END      Go relocate next ccw
00000D4 9204 629C      0029C       18269  1                      MVI   DSN,X'04'           Initialize for FMT4 DSCB
 0000D8 D22A 629D 629C 0029D 0029C 18270  1                      MVC   DSN+1(44-1),DSN       Propagate FMT4 dscb name
 0000DE 9240 6270      00270       18271  1                      MVI   DSNAME,X'40'            Initialize for blank dsn
 0000E2 D22A 6271 6270 00271 00270 18272  1                      MVC   DSNAME+1(44-1),DSNAME     Propagate blanks
 0000E8 D22B 62C8 6270 002C8 00270 18273  1                      MVC   NEWDSNAM,DSNAME             Set into new dsname also
00000EE D203 62F4 75C2 002F4 005F8 18275  1                      MVC   BLDL(4),=AL2(1,BLDLSZ)  Initialize STOW/BLDL list
00000F4 D201 6348 75E2 00348 00618 18277  1                      MVC   SCRVLST(2),=AL2(1)      Initialize scratch camlist
00000FA 4100 61D8            001D8 18279  1                      LA    R0,ID               TIC address for show dsnames
 0000FE BE07 6356            00356 18280  1                      ST3   R0,VTOCCCW
 000102 4100 6258            00258 18282  1                      LA    R0,PDSREAD          TIC address for show directory
 000106 BE07 6359            00359 18283  1                      ST3   R0,PDSCCW
 00010A 4100 6240            00240 18285  1                      LA    R0,ENDCCW+8         Address in CSW VTOC search done
 00010E BE07 635C            0035C 18286  1                      ST3   R0,LASTCCW
 000112 4100 6238            00238 18288  1                      LA    R0,ENDCCW           Address in CSW when last vtoc
 000116 BE07 635F            0035F 18289  1                      ST3   R0,LASTCCW1         End of CCW fixup
000011A 9280 6381      00381       18292  1                      MVI   DECB+5,X'80'        Set DECB mode=SF
 00011E 4100 6498            00498 18293  1                      LA    R0,DCB                Address of DCB
 000122 5000 6384            00384 18294  1                      ST    R0,DECB+8             Save into DECB
 000126 4100 6720            00720 18295  1                      LA    R0,DBUF               Address of disk buffer
 00012A 5000 6388            00388 18296  1                      ST    R0,DECB+12            Save into DECB
000012E 92C1 6390/4100_00390       18298  1                      CAMINIT DSCB,X'C1',DSNAME,DSVID,DS1FMTID
 00014A 9241 63A4/9250_003A4       18306  1                      CAMINIT SCRLST,(X'41',,X'50'),DSNAME,,SCRVLST
 000162 92C4 63B4/4100_003B4       18313  1                      CAMINIT USCATL,196,DSNAME,,CATBLOCK
 000176 92C2 63C4/4100_003C4       18319  1                      CAMINIT USCATL2,194,CATNTTR,CATVOLID,CATBLOCK
 000192 92C1 63D4/4100_003D4       18327  1                      CAMINIT VTOC,193,DSN,DSVID,VTOCAREA
 0001AE 92C0 63E4/9280_003E4       18335  1                      CAMINIT VTOC3,(192,128),DS1PTRDS,DSVID,IECSDSL3
 0001CE 92E4 63F4/4100_003F4       18344  1                      CAMINIT CATLST,228,DSNAME,,SCRVLST
 0001E2 92C1 6404/9220_00404       18350  1                      CAMINIT RENAMLST,(193,,32),DSNAME,NEWDSNAM,SCRVLST
0000202 4100 6498            00498 18360  1                      LA    R0,DCB              ADDRESS OF DATA CONTROL BLOCK
 000206 5000 6414            00414 18361  1                      ST    R0,OPENLIST           save into open parameter list
 00020A 9680 6414      00414       18362  1                      OI    OPENLIST,X'80'          mark as last dcb in list
0USING  IHADCB,R1                  18364  1                      WITH  (IHADCB,R1),BEGIN   Addressability to dcb
 00020E 5820 75C6            005FC 18378  2                        L     R2,=A(MODELDCB)     Address of model dcb
 000212 D257 6498 2000 00498 00000 18379  2                        MVC   DCB(DCBSZ),@R2      Move in model dcb
 000218 4110 6498            00498 18380  2                        LA    R1,DCB              Address of read/write dcb
 00021C 5820 75CA            00600 18381  2                        L     R2,=A(FOURMODL)     Address of model dcb
 000220 D233 64F0 2000 004F0 00000 18382  2                        MVC   FOURS(FOURSIZ),@R2  Move in model dcb
 000226 4110 64F0            004F0 18383  2                        LA    R1,FOURS            Address of vtoc dcb
 00022A 4100 618C            0018C 18384  2                        LA    R0,EXLST            Address of exit list
 00022E BE07 1025            00025 18385  2                        ST3   R0,DCBEXLSA         Set dcb exit list address
 DROP   IHADCB,R1                  18387  1                      END
1DISK     (DISK4072) (12:42) (15MAR04) DISKINIT -- DISK's Initialization Chores                                             Page   47
0Current Usings:  (RSCGROUP,R5) (IOWA,R6) (*,R7) (CP,R11) (CV,R12)
0Loc    Object Code    Addr1 Addr2  Stmt Lv Lineno    Source Statement           (Hibal 5, Asmedit 3.3)  HLASM R4.0  2004/03/15 12.42
+___    ______ ____    _____ _____  ____ __ ______    ______ _________
0000232 D20B 6424 7592 00424 005C8 18396  1                      MVC   ENQVOL(L'ENQVOLM),ENQVOLM
 000238 D20B 643C 759E 0043C 005D4 18397  1                      MVC   ENQDSN(L'ENQDSNM),ENQDSNM
 00023E 4100 634E            0034E 18398  1                      LA    R0,DSVID            Set address of device id
 000242 5000 642C            0042C 18399  1                      ST    R0,ENQVOL+8           Save into ENQ parameter list
0000246 4100 6468            00468 18401  1                      LA    R0,ACWOPER          Address of security operation
 00024A 5000 6458            00458 18402  1                      ST    R0,ACSPFLGS           Save into parameter list
 00024E 4100 6270            00270 18403  1                      LA    R0,DSNAME           Address of data set name
 000252 5000 645C            0045C 18404  1                      ST    R0,ACSPDSN            Save into parameter list
 000256 4100 69C4            009C4 18405  1                      LA    R0,DS1FMTID         Address of fmt1 dscb area
 00025A 5000 6460            00460 18406  1                      ST    R0,ACSPDSCB           Save into parameter list
 00025E 4100 646E            0046E 18407  1                      LA    R0,UALAUTH          Address of access length
 000262 5000 6464            00464 18408  1                      ST    R0,ACSPACCT           Save into parameter list
 000266 D201 646C 75E4 0046C 0061A 18409  1                      MVC   UALLEN,=AL2(20)     Set user access parm length
000026C 4130 6170            00170 18411  1                      LA    R3,DSDD             Point at it
 000270 5810 75CE            00604 18412  1                      L     R1,=A(SUBTSKGO)     Entry address
 000274 1803/0A29                  18413  1                      IDENTIFY EPLOC=(R3),ENTRY=(1)
 000278 1816                       18417  1                      LR    R1,IOWAR            Set parm pointer
 00027A 41F0 75F2            00628 18418  1                      LA    R15,ATTACHL         Attach param list
 00027E 5030 F000/41E0_      00000 18419  1                      ATTACH EPLOC=(R3),ECB=DECB,SF=(E,(15))
 00029C 5010 6024            00024 18432  1                      ST    R1,WATCB            Save tcb addr for detach
 DROP   IOWA,R6                    18433                       END
 0002A0 4640 7014            0004A 18441                       BCT   R4,IOLOADLP         Loop starting tasks
 0002A4 1B22                       18442                       CLEAR R2
 0002A6 5060 C6EC            006EC 18446                       ST    IOWAR,CVFIOWA       Initialize for others
 DROP   RSCGROUP,R5                18447                       DROP  RSCGROUP
                                   18455              *
                                   18456              * now try to locate cvol used for wyl datasets to help
                                   18457              * optimize the catalog.  note that header-1 is used to avoid '.'
                                   18458              *
                                   18459              * (This is obsolete and can be deleted.  6/90, Niz)
                                   18460              *
 USING  IOWA,R6                    18461                       WITH  IOWA,BEGIN
 0002AA D202 6270 75D2 00270 00608 18474  1                      MVC   DSNAME(L'KWYL-1),=C'WYL.'  move in header
 0002B0 947F 63B4      003B4       18475  1                      NI    USCATL,255-CAMFCVOL Set to not use cvol ptr
 0002B4 4110 63B4/0A1A       003B4 18476  1                      LOCATE USCATL             Find cvol
 0002BA 59F0 75D6/4770_      0060C 18480  1                      IF    (R15,EQ,12),BEGIN   Begin if so
 0002C2 5810 75DA            00610 18497  2                        L     R1,=A(WYLVOL)
 0002C6 D205 1000 6A8B 00000 00A8B 18498  2                        MVC   @R1(6),CATVOLID     Set wyl. cvol
 0002CC 5810 75DE            00614 18499  2                        L     R1,=A(WYLCVOL)
 0002D0 9270 1001      00001       18500  2                        MVI   @R1+1,X'70'         Set branch flag
 0002D4                            18501  1                      END
 DROP   IOWA,R6                    18505                       END
1DISK     (DISK4072) (12:42) (15MAR04) DISKINIT -- DISK's Initialization Chores                                             Page   48
0Current Usings:  (*,R7) (CP,R11) (CV,R12)
0Loc    Object Code    Addr1 Addr2  Stmt Lv Lineno    Source Statement           (Hibal 5, Asmedit 3.3)  HLASM R4.0  2004/03/15 12.42
+___    ______ ____    _____ _____  ____ __ ______    ______ _________
0                                  18514                       ¿þþþþþþþþþþþþþþþþþþþþþþþþþþþþþþþþþþþþþþþþþþþþþþþþþþþþþþþþþþÜ
                                   18515                       Ÿ  Save a pointer to the eligible device lookup table for  Ÿ
                                   18516                       Ÿ    later use.                                            Ÿ
                                   18517                       ¾þþþþþþþþþþþþþþþþþþþþþþþþþþþþþþþþþþþþþþþþþþþþþþþþþþþþþþþþþþ»
 0002D4 5810 0010            00010 18518                       L     R1,CVTPTR           -> CVT
 0002D8 5811 0128            00128 18519                       L     R1,CVTJESCT-CVT(R1) -> JESCT
 0002DC 5811 0034            00034 18520                       L     R1,JESEDT-JESCT(R1) -> EDTSECT
 0002E0 D502 75E9 1000_0061F 00000 18521                       IF    (@R1,EQ,'EDT'),'CLEAR R1'  Not available (ESA style?)
 0002EC 72BA/47F0 72BE_002EC 002E8 18546                       ELSE  'L R1,@R1'          -> Lookup section
                                   18563                       COMMENT ,  *** GG.SCH     THIS CODE DOES NOT WORK FOR ESA
                                   18564                       COMMENT                   WE CLEAR THE LOOKUP POINTER
 0002F4 1B11                       18565                       CLEAR R1                  *** no UNIT=xxx allowed
 0002F6 5010 C71C            0071C 18569                       ST    R1,CVLUVPTR         Save pointer to EDT lookup section
-                                  18571                       ¿þþþþþþþþþþþþþþþþþþþþþþþþþþþþÜ
                                   18572                       Ÿ  Set up the volume table.  Ÿ
                                   18573                       ¾þþþþþþþþþþþþþþþþþþþþþþþþþþþþ»
 0002FA 9110 C4C4/47E0_004C4       18574                       IF    CVFRLG,BEGIN        RLG machine...
 000302 0700/4100 72D6_            18589  1                      LOAD  EP=WVOLRLG
 000318                            18596                       END
                                   18600
 000318 72E6/47F0 7306_00318 00300 18601                       ELSEIF (CVMACHID,EQ,'SYSC '),BEGIN  SYSC machine...
 000326 0700/4100 72FA_            18627  1                      LOAD  EP=WVOLSYSC
 00033C                            18634                       END
                                   18638
 00033C 730A/47F0 731E 0033C 00324 18639                       ELSE  BEGIN               Regular (SYSA) machine...
 000340 4100 7312/47F0_      00348 18650  1                      LOAD  EP=WVOL
 000354                            18657                       END
                                   18661
 000354 5000 C740            00740 18662                       ST    R0,CVVOLIST         Save volume list address
 000358 5000 C744            00744 18663                       ST    R0,CVRCVOL          Save pointer for recovery
                                   18664
 00035C 5860 C6EC            006EC 18665                       L     IOWAR,CVFIOWA       Use an iowa for local wa
 USING  IOWA,R6                    18666                       USING IOWA
                                   18675                       ¿þþþþþþþþþþþþþþþþþþþþþþþþþþþþþþþþþþþþþþÜ
                                   18676                       Ÿ  Now allocate the required volumes.  Ÿ
                                   18677                       ¾þþþþþþþþþþþþþþþþþþþþþþþþþþþþþþþþþþþþþþ»
 000360 5820 C740            00740 18678                       L     R2,CVVOLIST         Get ptr to volume list
 USING  VOLDSECT,R2                18679                       USING VOLDSECT,R2
 000364 1B33                       18688                       CLEAR R3                  Clear counter of save volumes
 000366 9140 2008      00008       18692              DOVOL1   TM    VFLG1,VF1AVAIL      Is this to be avail at init ?
 00036A 4780 73D6            0040C 18693                       BZ    DOVOLNXT            No go to next one
                                   18694
 00036E D700 7466 7466 0049C 0049C 18695                       CLEAR TRY2
                                   18702
 000374 5850 C73C            0073C 18703              DOALLOC  L     R5,CVTCBP
 000378 5850 500C            0000C 18704                       L     R5,@R5+12           Tiot ptr
 USING  TIOT,R5                    18705                       WITH  (TIOT,R5),BEGIN
 00037C 1B44                       18719  1                      CLEAR R4
                                   18723  1
 00037E 1B00/1B11                  18724  1                      CLEAR R0,R1               Assume not found
 000382                            18730  1                      LOOP  BEGIN
 000382 1A54                       18736  2                        AR    R5,R4               Go to next dd entry
1DISK     (DISK4072) (12:42) (15MAR04) DISKINIT -- DISK's Initialization Chores                                             Page   49
0Current Usings:  (VOLDSECT,R2) (TIOT,R5) (IOWA,R6) (*,R7) (CP,R11) (CV,R12)
0Loc    Object Code    Addr1 Addr2  Stmt Lv Lineno    Source Statement           (Hibal 5, Asmedit 3.3)  HLASM R4.0  2004/03/15 12.42
+___    ______ ____    _____ _____  ____ __ ______    ______ _________
0000384 1F44/4340 5018             18737  2                        LC    R4,TIOELNGH         Get length of this dd entry
 00038A 1244/4770 738A             18744  2                        IF    (R4,Z),BEGIN        Volume not found...
 000390 9500 7466/4770_0049C       18758  3                          IF    (TRY2,NZ),DOVOLSTO  Better forget it
 000398 D207 74AC 2000 004E2 00000 18777  3                          MVC   BALDD,VTYPE
 00039E D205 74BA 2002 004F0 00002 18778  3                          MVC   BALVOL,VTYPE+2      Set volume serial
 0003A4 4110 7476            004AC 18779  3                          LA    R1,BALLOC
 0003A8 0A63                       18780  3                          DYNALLOC ,                Try allocating it
 0003AA 12FF/4780 7382_            18783  3                          IF    (R15,NZ),'CLEAR R0,R1; B DOVOLSTO'  sorry
 0003B8 92FF 7466      0049C       18809  3                          MVI   TRY2,X'FF'
 0003BC 47F0 733E            00374 18810  3                          B     DOALLOC             Try it again
 0003C0                            18811  2                        END
 0003C0 D505 2002 501E_00002 0001E 18815  2                        IF    ('CLC VTYPE+2(6),TIOEDDNM+2',EQ),BEGIN  got it...
 0003CA D501 2000 501C_00000 0001C 18828  3                          IF    ('CLC VTYPE(2),TIOEDDNM',NE),BEGIN   DD typ mismatch?
 0003D4 D201 7453 2000 00489 00000 18841  4                            MVC   CHGFRVL,VTYPE       Changed from...
 0003DA D201 7459 501C 0048F 0001C 18842  4                            MVC   CHGTOVL,TIOEDDNM    ...to
 0003E0 4110 742A            00460 18843  4                            LA    R1,CHGVLWTO         -->WTO
 0003E4 0A23                       18844  4                            WTO   MF=(E,(1))
 0003E6 D201 2000 501C 00000 0001C 18847  4                            MVC   VTYPE,TIOEDDNM      Over-ride DD type
 0003EC                            18848  3                          END   ,
 0003EC 4110 5018            00018 18852  3                          LA    R1,TIOENTRY         Tiot entry
 0003F0 1F00/BF07 5029             18853  3                          L3    R0,TIOEFSRT         Ucb addr
 0003F6 47F0 73C8            003FE 18859  3                          B     DOVOLGOT            it's ok now
 0003FA                            18860  2                        END
 0003FA 47F0 734C            00382 18864  1                      END
 DROP   TIOT,R5                    18869                       END
                                   18877
 0003FE D201 2028 75E6 00028 0061C 18878              DOVOLGOT MVC   VOLUSECT,=H'0'      Set the use count to zero
 000404 9601 2008      00008       18879                       OI    VFLG1,VF1ON         Set vol online
 000408 5000 2024            00024 18880              DOVOLSTO ST    R0,VOLUCBAD         Save ucb address
 00040C 4120 2044            00044 18881              DOVOLNXT LA    R2,VOLENTSZ(,R2)    Pt to next entry
 000410 95FF 2000      00000       18882                       CLI   0(R2),X'FF'         At end?
 000414 4770 7330            00366 18883                       BNE   DOVOL1              No, continue
 000418 47F0 7468            0049E 18884                       B     INITDONE            All done
 DROP   VOLDSECT,R2                18885                       DROP  VOLDSECT
                                   18893
 00041C 1831                       18894              VOLNORM  LR    R3,R1               Save tiot pointer
 00041E 189E                       18895                       LR    R9,R14              Save return address
 000420 4110 73FE            00434 18896                       LA    R1,NORMWTO          Point at wto
 000424 D205 741E 3006 00454 00006 18897                       MVC   NORMVOL(6),@R3+6    Move in vol name
 00042A 0A23                       18898                       WTO   ,MF=(E,(1))         Out with it
 00042C 1813                       18901                       LR    R1,R3               Restore r1
 00042E 18E9                       18902                       LR    R14,R9              Restore r14
 000430 07FE                       18903                       BR    RAR                 Return to caller
                                   18904
 000434 0029/0000/5C5C_            18905              NORMWTO  WTO   '*** WYLBUR *** NO ROOM FOR VVVVVV ***',MF=L
                                   18910              NORMVOL  EQU   NORMWTO+32
                                   18911
                                   18912            C CHGVLWTO WTO   '*** WYLBUR *** VOL TYPE CHANGED FROM XX TO YY BY JCL **
 000460 003C/0000/5C5C_                                              *',MF=L
                                   18917              CHGFRVL  EQU   CHGVLWTO+41,2       Change from type
                                   18918              CHGTOVL  EQU   CHGVLWTO+47,2       ...to type
                                   18919
 00049C 00                         18920              TRY2     DC    X'00'               0=first try, FF=second try
                                   18921
1DISK     (DISK4072) (12:42) (15MAR04) DISKINIT -- DISK's Initialization Chores                                             Page   50
0Current Usings:  (*,R7) (CP,R11) (CV,R12)
0Loc    Object Code    Addr1 Addr2  Stmt Lv Lineno    Source Statement           (Hibal 5, Asmedit 3.3)  HLASM R4.0  2004/03/15 12.42
+___    ______ ____    _____ _____  ____ __ ______    ______ _________
0DROP   IOWA,R6                    18922                       DROP  IOWA
 00049D 00/18D8/58E0 D00_          18930              INITDONE XEXIT R2,R8               Return
 DROP   *,R7                       18935                       DROP  BR
-                                  18943              *  Dynamic allocation parameter list...
 0004AC                            18944              BALLOC   DS    0F
 0004AC 800004B0                   18945                       DC    X'80',AL3(BALRB)    Alloc request block ptr
                                   18946
 0004B0 14                         18947              BALRB    DC    AL1(20)             RB length
 0004B1 01                         18948              BALVERB  DC    AL1(S99VRBAL)       DSNAME allocation
 0004B2 20                         18949              BALFLG11 DC    AL1(S99NOMNT)       don't mount if unavailable
 0004B3 00                         18950              BALFLG12 DC    AL1(0)              Flags #2
 0004B4                            18951              BALRSC   DS    0F                  Returned fields:
 0004B4 0000                       18952              BALERROR DC    H'0'                Error code
 0004B6 0000                       18953              BALINFO  DC    H'0'                Information code
 0004B8 000004C4                   18954                       DC    A(BALTXTP)          Text item ptrs
 0004BC 00000000                   18955                       DC    A(0)                Reserved
 0004C0 00000000                   18956                       DC    A(0)                Special flags
                                   18957
 0004C4 000004DC                   18958              BALTXTP  DC    A(BALTXTDD)
 0004C8 000004EA                   18959                       DC    A(BALTXTV)
 0004CC 000004F6                   18960                       DC    A(BALTXTU)
 0004D0 00000504                   18961                       DC    A(BALTXTS)
 0004D4 0000050B                   18962                       DC    A(BALTXTD)
 0004D8 80000512                   18963                       DC    X'80',AL3(BALTXTC)
                                   18964
 0004DC 000100010008               18965              BALTXTDD DC    AL2(DALDDNAM,1,8)   DDNAME definition
 0004E2 5C40404040404040           18966              BALDD    DC    CL8'*'
                                   18967
 0004EA 001000010006               18968              BALTXTV  DC    AL2(DALVLSER,1,6)   Vol=ser=
 0004F0 5C4040404040               18969              BALVOL   DC    CL6'*'                      volume
                                   18970
 0004F6 001500010008               18971              BALTXTU  DC    AL2(DALUNIT,1,8)    Unit=
 0004FC E2E8E2C1D3D3C4C1           18972                       DC    C'SYSALLDA'              sysallda
                                   18973
 000504 00040001000101             18974              BALTXTS  DC    AL2(DALSTATS,1,1),X'01'  disp=old
 00050B 00050001000108             18975              BALTXTD  DC    AL2(DALNDISP,1,1),X'08'  disp=(,keep)
 000512 00060001000108             18976              BALTXTC  DC    AL2(DALCDISP,1,1),X'08'  disp=(,,keep)
                                   18977                       ¿þþþþþþþþþþþþþþþþþþþþþþþþþþþþþþþþþþÜ
                                   18978                       Ÿ  MODEL CHANNEL COMMAND PROGRAMS  Ÿ
                                   18979                       ¾þþþþþþþþþþþþþþþþþþþþþþþþþþþþþþþþþþ»
 000519 00000000000000/3_          18980              CCWMODL  CCWP  TYPE=GENERATE
                                   19003              CCWMLEN  EQU   *-CCWMODL           LENGTH OF CCW COMMAND CHAIN
                                   19004
 0005C8 C0/06/00/00/0000_          19005              ENQVOL1  ENQ   (0,DSVID-IOWA,E,6,STEP),MF=L
                                   19016              ENQVOLM  EQU   ENQVOL1,*-ENQVOL1
 0005D4 C0/00/43/00/0000_          19017              ENQDSN1  ENQ   (0,0,E,0,SYSTEM),RET=USE,MF=L
                                   19028              ENQDSNM  EQU   ENQDSN1,*-ENQDSN1
                                   19029
                                   19030                       QLTORG
                                   19061
 000628 00000000/0000000_          19062              ATTACHL  ATTACH SZERO=NO,SF=L
1DISK     (DISK4072) (12:42) (15MAR04) Final I/O Subtask Shutdown Routine                                                   Page   51
0Current Usings:  (CP,R11) (CV,R12)
0Loc    Object Code    Addr1 Addr2  Stmt Lv Lineno    Source Statement           (Hibal 5, Asmedit 3.3)  HLASM R4.0  2004/03/15 12.42
+___    ______ ____    _____ _____  ____ __ ______    ______ _________
0                                  19090              ¿þþþþþþþþþþþþþþþþþþþþþþþþþþþþþþþþþþþþþþþþþþþþþþþþþþþþþþþþþþþþþþþþþþþþþÜ
                                   19091              Ÿ                                                                     Ÿ
                                   19092              Ÿ  DISKSTOP -- Routine to shutdown I/O subtasks.  This is             Ÿ
                                   19093              Ÿ    called just before normal termination.                           Ÿ
                                   19094              Ÿ                                                                     Ÿ
                                                      ¾þþþþþþþþþþþþþþþþþþþþþþþþþþþþþþþþþþþþþþþþþþþþþþþþþþþþþþþþþþþþþþþþþþþþþ»
0000670 50E0 D000/9028_      00000 19095              DISKSTOP XENTER
 USING  *,R7
 00068A 4110 705E/1BFF_      006E8 19114                       STIMER WAIT,BINTVL==A(15*100)  15 sec wait for subtask I/O
                                   19122
 00069A 5850 7062            006EC 19123                       L     R5,=V(IOWRSG)       Iowa resource group ptr
 USING  RSCGROUP,R5                19124                       USING RSCGROUP,R5
 00069E 4140 501C            0001C 19133                       LA    R4,RSGQFRFW-(RSC@NEXT-RESOURCE)  free queue
 0006A2 4DE0 7030            006BA 19134                       LCALL DETQUEUE            Detach subtasks on free queue
 0006A6 4140 5014            00014 19136                       LA    R4,RSGQACFW-(RSC@NEXT-RESOURCE)  active queue
 0006AA 4DE0 7030            006BA 19137                       LCALL DETQUEUE            Detach subtasks on active queue
 DROP   RSCGROUP,R5                19139                       DROP  RSCGROUP
 0006AE 18D8/58E0 D000_            19147                       XEXIT
                                   19152
 0006BA 1834                       19153              DETQUEUE LR    R3,R4
 USING  RESOURCE,R3                19154                       WITH  (RESOURCE,R3),BEGIN
 0006BC 5830 3000/1934_      00000 19168  1                      WHILE ('L R3,RSC@NEXT; CR R3,R4',NE),BEGIN
 0006C6 1233/078E                  19184  2                        IF    (R3,Z),RAR          (Queue not built yet)
 DROP   RESOURCE,R3                19201  2                        WITH  (IOWA,R3)           Resource hdr is start of iowa
 USING  IOWA,R3
 0006CA D703 337C 337C 0037C 0037C 19217  2                        CLEAR DECB
 0006D0 4110 3024/0A3E       00024 19224  2                        DETACH WATCB
 0006D6 4100 0001/4110_      00001 19229  2                        WAIT  ECB=DECB            Wait for termination
 0006E0 47F0 7032            006BC 19236  1                      END
 DROP   IOWA,R3
 USING  RESOURCE,R3
 DROP   RESOURCE,R3                19253                       END
 0006E4 07FE                       19261                       BR    RAR                 Return
 DROP   *,R7                       19262                       DROP  BR
                                   19269
                                   19270                       QLTORG
1DISK     (DISK4072) (12:42) (15MAR04) DSKOPEN, Disk Interface Routines                                                     Page   52
0Current Usings:  (CP,R11) (CV,R12)
0Loc    Object Code    Addr1 Addr2  Stmt Lv Lineno    Source Statement           (Hibal 5, Asmedit 3.3)  HLASM R4.0  2004/03/15 12.42
+___    ______ ____    _____ _____  ____ __ ______    ______ _________
0                                  19285              ¿þþþþþþþþþþþþþþþþþþþþþþþþþþþþþþþþþþþþþþþþþþþþþþþþþþþþþþþþþþþþþþþþþþþþþÜ
                                   19286              Ÿ                                                                     Ÿ
                                   19287              Ÿ  DSKOPEN -- Routine to open a disk file.  (Called by the            Ÿ
                                   19288              Ÿ    EXTOPEN routine.)                                                Ÿ
                                   19289              Ÿ                                                                     Ÿ
                                   19290              Ÿ    On entry:                                                        Ÿ
                                   19291              Ÿ      DSNWA contains information about the file.                     Ÿ
                                   19292              Ÿ                                                                     Ÿ
                                                      ¾þþþþþþþþþþþþþþþþþþþþþþþþþþþþþþþþþþþþþþþþþþþþþþþþþþþþþþþþþþþþþþþþþþþþþ»
00006F0 50E0 D000/9028_      00000 19293              DSKOPEN  XENTER
 USING  *,R7
                                   19312
 00070A 5850 BD9C            00D9C 19313              USEOPEN  L     R5,CPLRCL           Get type given (if any)
 00070E 1805/9200 BF35_            19314                       DOPEN (R5),,USE           Open data set
 00071A 4780 702C            00736 19326                       BZ    OPNISGD             Good open
 00071E 58E0 77EA/0DEE       00EF4 19327                       VCALL ACSCHECK            Check for access probs
 000724 4780 7000            0070A 19331                       BZ    USEOPEN             Can now do the open
 000728 91C0 BF37/4770_00F37       19332                       IF    DSNFSML+DSNFMAIL,UDOPXIT  Return for mail
 000730 58E0 77EE/0DEE       00EF8 19353                       VCALL NTGDOPN             Go do open error message
                                   19357
 000736 5010 BDD8            00DD8 19358              OPNISGD  ST    R1,CPDRED           Save start input buffer
 00073A 1255                       19359                       LTR   R5,R5               Test format specified
 00073C 47B0 703C            00746 19360                       BNM   UDOPEN1             Br if yes
 000740 1850                       19361                       LR    R5,R0               Lrecl plugged in by dopen
 000742 5000 BD9C            00D9C 19362                       ST    R0,CPLRCL           Save format found
 000746 58E0 77F2/0DEE       00EFC 19363              UDOPEN1  VCALL CHKMBRIG            Check member ignored
 00074C 9110 BD54/47E0_00D54       19367                       IF    (~CPLFLG5.CPFFOPT,OR,CPLFLG5.CPFUNUM),UDOPENX  Unn
 00075C 9680 BDA2      00DA2       19401                       OI    CPSEQLN,X'80'       Turn on flag to determine point
 000760 1255                       19402                       LTR   R5,R5               Test format
 000762 4770 706E            00778 19403                       BNZ   UDOPENX             Okay if not edit
 000766 58E0 77F6/0DEE       00F00 19404                       ACALL DCLOSE
 00076C 4110 78B2/4100_      00FBC 19408                       ERROR 'Numbered invalid.'
                                   19415
 000778 1BFF                       19416              UDOPENX  CLEAR R15                 Set rc
 00077A 18D8/58E0 D000_            19421              UDOPXIT  XEXIT ,,LTR
 DROP   *,R7                       19427                       DROP  BR
1DISK     (DISK4072) (12:42) (15MAR04) DSKREAD, Disk Interface Routines                                                     Page   53
0Current Usings:  (CP,R11) (CV,R12)
0Loc    Object Code    Addr1 Addr2  Stmt Lv Lineno    Source Statement           (Hibal 5, Asmedit 3.3)  HLASM R4.0  2004/03/15 12.42
+___    ______ ____    _____ _____  ____ __ ______    ______ _________
0                                  19435              ¿þþþþþþþþþþþþþþþþþþþþþþþþþþþþþþþþþþþþþþþþþþþþþþþþþþþþþþþþþþþþþþþþþþþþþÜ
                                   19436              Ÿ                                                                     Ÿ
                                   19437              Ÿ                                                                     Ÿ
                                   19438              Ÿ  DSKREAD                                                            Ÿ
                                   19439              Ÿ                                                                     Ÿ
                                   19440              Ÿ  GET LINE FROM OLDIBM (OS) FILE                                     Ÿ
                                   19441              Ÿ                                                                     Ÿ
                                   19442              Ÿ  ON ENTRY:                                                          Ÿ
                                   19443              Ÿ    @R1 - PLACE TO PUT LINE                                          Ÿ
                                   19444              Ÿ    R0 - MAX LINE LEN (IGNORED FOR NOW, ASSUMED >= &LINESZ)          Ÿ
                                   19445              Ÿ    DSNWA contains information about the file.                       Ÿ
                                   19446              Ÿ                                                                     Ÿ
                                   19447              Ÿ  ON EXIT:                                                           Ÿ
                                   19448              Ÿ    @R1 - LINE TEXT                                                  Ÿ
                                   19449              Ÿ    R0 - LENGTH OF LINE TEXT                                         Ÿ
                                   19450              Ÿ    R2 - LINE NUMBER                                                 Ÿ
                                   19451              Ÿ    R15=ZERO, LINE FOUND.  R15=NZ, END OF FILE                       Ÿ
                                   19452              Ÿ                                                                     Ÿ
                                   19453              Ÿ  CAUTION!:                                                          Ÿ
                                   19454              Ÿ  THIS ROUTINE USES CPNWLN TO FIND MINIMUM NEXT LINE                 Ÿ
                                   19455              Ÿ  NUMBER. SEE COMMENTS AT START OF LXCATE BELOW.                     Ÿ
                                   19456              Ÿ                                                                     Ÿ
                                   19457              Ÿ                                                                     Ÿ
                                                      ¾þþþþþþþþþþþþþþþþþþþþþþþþþþþþþþþþþþþþþþþþþþþþþþþþþþþþþþþþþþþþþþþþþþþþþ»
0000788 50E0 D000/9008_      00000 19458              DSKREAD  XPROC ,
 USING  *,R7
                                   19498
 0007A2 1841                       19499                       LR    R4,R1
 0007A4 1850                       19500                       LR    R5,R0
                                   19501
                                   19502                       COMMENT                   CALL LXCATE FOR NOW
 0007A6 4110 BD8C            00D8C 19503                       LA    R1,CPNWLN
 0007AA 58E0 7762/0DEE       00F04 19504                       ACALL LXCATE
                                   19508
                                   19509                       COMMENT                   LOCATED LINE IN EXTERNAL FILE
 0007B0 9180 BD84/4710_00D84       19510                       IF    (~CPDRPT.CPFNTYT,AND,~CPDRPT.CPFHIGH),BEGIN
 0007C0 1814                       19541  1                      LR    R1,R4
 0007C2 4100 00EB            000EB 19542  1                      LA    R0,&LINESZ
 0007C6 58E0 7766/0DEE       00F08 19543  1                      VCALL UNPRESS
 0007CC 182F                       19547  1                      LR    R2,R15              RETURN LINE NUMBER
 0007CE 9002 8004            00004 19548  1                      PRETURN (R0,R2)           RETURN LINE TEXT LOC,LEN
 0007D2 1BFF                       19550  1                      CLEAR R15
 0007D4                            19554                       END
                                   19558
                                   19559                       COMMENT                   END OF FILE
 0007D4 7036/7036/47F0_007D4 007B6 19560                       ELSE  BEGIN
 0007D8 41F0 0004            00004 19573  1                      LA    R15,4
 0007DC                            19574                       END
                                   19578
 0007DC 18D8/9808 D004_            19579                       PEND
 DROP   *,R7
1DISK     (DISK4072) (12:42) (15MAR04) DSKREAD Routine                                                                      Page   54
0Current Usings:  (CP,R11) (CV,R12)
0Loc    Object Code    Addr1 Addr2  Stmt Lv Lineno    Source Statement           (Hibal 5, Asmedit 3.3)  HLASM R4.0  2004/03/15 12.42
+___    ______ ____    _____ _____  ____ __ ______    ______ _________
0                                  19600              ¿þþþþþþþþþþþþþþþþþþþþþþþþþþþþþþþþþþþþþþþþþþþþþþþþþþþþþþþþþþþþþþþþþþþþþÜ
                                   19601              Ÿ                                                                     Ÿ
                                   19602              Ÿ  LXCATE needs R1 pointing at internal lineno to LOCATE.             Ÿ
                                   19603              Ÿ                                                                     Ÿ
                                   19604              Ÿ    Return flags (in 1st byte CPDRPT) and return items are:          Ÿ
                                   19605              Ÿ      CPFNTYT - X'80' - nothing at all - others returns all zero     Ÿ
                                   19606              Ÿ      CPFMTCH - X'08' - got a line in external data set              Ÿ
                                   19607              Ÿ                                                                     Ÿ
                                   19608              Ÿ      R15 - points to addr of line                                   Ÿ
                                   19609              Ÿ      CPLCNO - lineno of locate line                                 Ÿ
                                   19610              Ÿ                                                                     Ÿ
                                   19611              Ÿ  LXCATE NOTES!                                                      Ÿ
                                   19612              Ÿ  LXCATE IS NOW USED ONLY FOR DSKREAD.  IE. THIS IS THE ROUTINE      Ÿ
                                   19613              Ÿ  THAT DOES MOST OF THE WORK FOR READING OLDIBM FILES.  THE          Ÿ
                                   19614              Ÿ  INTERFACE IS A BIT STRANGE.  BUT AS THIS ROUTINE WILL BE AXED      Ÿ
                                   19615              Ÿ  WHEN WINGS IS OPERATIVE.  WE ARE JUST TAKING THIS CODE AND         Ÿ
                                   19616              Ÿ  MAKING IT WORK, BY HOOK OR CROOK.                                  Ÿ
                                   19617              Ÿ                                                                     Ÿ
                                   19618              Ÿ  CAUTION!!:                                                         Ÿ
                                   19619              Ÿ  R1 INPUT IS NOW IGNORED.  WE GET MINIMUM LINE NUMBER FROM          Ÿ
                                   19620              Ÿ  CPNWLN !!                                                          Ÿ
                                   19621              Ÿ                                                                     Ÿ
                                   19622              Ÿ  HEY!!:                                                             Ÿ
                                   19623              Ÿ  THIS ROUTINE MUST BE CALLED ONLY BY DSKREAD.  IT WILL BE           Ÿ
                                   19624              Ÿ  ELIMINATED WHEN OLDIBM GOES AWAY AND WE USE ONLY WINGS OS          Ÿ
                                   19625              Ÿ  FILE INTERFACE.                                                    Ÿ
                                   19626              Ÿ                                                                     Ÿ
                                                      ¾þþþþþþþþþþþþþþþþþþþþþþþþþþþþþþþþþþþþþþþþþþþþþþþþþþþþþþþþþþþþþþþþþþþþþ»
0000000                00000 00004 19627              LXCATEWA RECORD BEGIN
 000000                            19635  1           LXLNOPTR   DS    F
 000004                00004 00004 19636                       END
                                   19645
 0007EA 50E0 D000/9008_      00000 19646              LXCATE   PROC  LXCATEWA
 USING  *,R7
 USING  LXCATEWA-(4+36),R8
 000804 4110 BD8C            00D8C 19696                       LA    R1,CPNWLN           *** R1 INPUT IGNORED ***
 000808 5010 8028            00000 19697                       ST    R1,LXLNOPTR
 00080C D709 BE29 BE29 00E29 00E29 19698                       CLEAR CPNEDPFX            Initialize prefix info
 000812 1B55                       19705                       CLEAR R5                  Set for ic inst
 000814 91F0 BDD8      00DD8       19709                       TM    CPDRED,CPFSTART     See if 1st time in
 000818 4710 70F0            008F4 19710                       BO    LOADEM              No
 00081C 1B44                       19711                       CLEAR R4                  Initialize line number value
 00081E 58E0 7708/0DEE       00F0C 19715              READRE   VCALL DREAD               Read a record
 000824 4720 7184            00988 19719                       BP    NDFIL               Eof
 000828 4780 7038            0083C 19720                       BZ    NDSKERJ             B if disk i/o ok
 00082C 58E0 770C/0DEE       00F10 19721                       VCALL RDERROR             Disk read error msg
 000832 47D0 7038/58E0_      0083C 19725                       IF    P,'ACALL GOCLRNW'   Br if attention
 00083C 96F0 BDD8      00DD8       19745              NDSKERJ  OI    CPDRED,CPFSTART     Set not 1st time
 000840 1F22/BF27 BDD9             19746                       L3    R2,CPDRED+1         Addr input buffer
 000846 5860 BD9C/1266       00D9C 19754                       LT    R6,CPLRCL           Get type of file
 00084C 4770 70CC            008D0 19758                       BNZ   READR1              Br if not edit
 000850 9120 BF38/47E0_00F38       19759                       IF    DSNFCODE,BEGIN
 000858 1860                       19774  1                      LR    R6,R0               R6 -> HOLDS COUNT
1DISK     (DISK4072) (12:42) (15MAR04) DSKREAD Routine                                                                      Page   55
0Current Usings:  (*,R7) (LXCATEWA-(4+36),R8) (CP,R11) (CV,R12)
0Loc    Object Code    Addr1 Addr2  Stmt Lv Lineno    Source Statement           (Hibal 5, Asmedit 3.3)  HLASM R4.0  2004/03/15 12.42
+___    ______ ____    _____ _____  ____ __ ______    ______ _________
000085A 1852                       19775  1                      LR    R5,R2               R5 -> 1ST CHARACTER
 00085C 5840 7714            00F18 19776  1                      L     R4,=F'65539'        R4 HOLDS MAGIC VALUE
 000860 58F0 BF5C            00F5C 19777  1                      L     R15,DSNCODE         R15 HOLDS CODE
0000864 1CE4                       19779  1           USELOOP    MR    R14,R4              MULTIPLY BY MAGIC VALUE
 000866 183F                       19780  1                      LR    R3,R15              MOVE LOWER HALF OF PRODUCT
 000868 8D20 0008            00008 19781  1                      SLDL  R2,8                SHIFT HIGH ORDER BYTE INTO R2
 00086C 4330 5000            00000 19782  1                      IC    R3,@R5              LOAD CHARACTER INTO R3
 000870 1F32                       19783  1                      SLR   R3,R2               DECODE CHARACTER
 000872 4230 5000            00000 19784  1                      STC   R3,@R5              REPLACE CHARACTER
 000876 4155 0001            00001 19785  1                      LA    R5,1(R5)            GET NEXT CHARACTER
 00087A 4660 7060            00864 19786  1                      BCT   R6,USELOOP          LOOP BACK FOR ALL CHARACTERS
000087E 1B44/1B55                  19788  1                      CLEAR R4,R5               CLEAR REGISTERS
 000882 1F22/BF27 BDD9             19794  1                      L3    R2,CPDRED+1         RE-INIT R2
 000888                            19802                       END   ,
 000888 4830 2000            00000 19806                       LH    R3,@R2              Block length
 00088C 5430 7718            00F1C 19807                       N     R3,=A(X'7FFF')      Throw away extended edit bit
                                   19808
 000890 1930                       19809                       CR    R3,R0               Compare to read count
 000892 47D0 7098/58E0_      0089C 19810                       IF    H,'ACALL NOGGODY'   Nonsense
 00089C 1A32                       19830                       AR    R3,R2               Point R3 to end of buffer
 00089E 4120 2002            00002 19831                       LA    R2,@R2+2            Point at 1st line
 0008A2 9024 BD60            00D60 19832                       STM   R2,R4,CPWK1         Save ptr and end ptr
 0008A6 9120 2000/47E0_00000       19833              ICAGEN   IF    @R2.X'20','LA R2,@R2+10'  Skip past prefix
 0008B2 1F55/4350 2004             19856                       LC    R5,@R2+4            Get next prest-count
 0008B8 4122 5005            00005 19863                       LA    R2,5(R2,R5)         Kick pointer
 0008BC 1923                       19864                       CR    R2,R3               More?
 0008BE 4740 70A2            008A6 19865                       BL    ICAGEN              Yes
 0008C2 47D0 70C8/58E0_      008CC 19866                       IF    H,'ACALL NOGGODY'   Too much
 0008CC 47F0 70F0            008F4 19886                       B     LOADEM              Now go do this buffer
                                   19887
 0008D0 1830                       19888              READR1   LR    R3,R0               Set R3 to read count
 0008D2 4740 70D8            008DC 19889                       BM    READR2              Branch if variable format
 0008D6 1A32                       19890                       AR    R3,R2               Point R3 to end for fixed form
 0008D8 47F0 70EC            008F0 19891                       B     READR3              Go join common
                                   19892
 0008DC 4900 2000            00000 19893              READR2   CH    R0,@R2              Does vb count agree
 0008E0 4780 70E6/58E0_      008EA 19894                       IF    NE,'ACALL INVARDS'  Br no to invalid vb
 0008EA 1A32                       19914                       AR    R3,R2               Set R3 to end of buffer
 0008EC 4120 2004            00004 19915                       LA    R2,@R2+4            Set R2 to first vb record
 0008F0 9024 BD60            00D60 19916              READR3   STM   R2,R4,CPWK1         Save setup values
 0008F4 9824 BD60            00D60 19917              LOADEM   LM    R2,R4,CPWK1         Set registers for next line
 0008F8 9200 BD84      00D84       19918                       MVI   CPDRPT,0            Set no match yet
 0008FC 1923                       19919              TRYMOR   CR    R2,R3               Any more to do for this buff
 0008FE 47B0 701A            0081E 19920                       BNL   READRE              Br no to read next buff
 000902 5860 BD9C/1266       00D9C 19921                       LT    R6,CPLRCL           Get format type
 000908 4770 718C            00990 19925                       BNZ   NOTEDT              Br if not edit format
                                   19926
 00090C 9120 2000/47E0_00000       19927                       IF    @R2.X'20',BEGIN     Extended edit prefix...
 000914 D209 BE29 2000 00E29 00000 19943  1                      MVC   CPNEDPFX,@R2        Save prefix info
 00091A 1F55/4350 200E             19944  1                      LC    R5,@R2+14           Length byte
 000920 18F2                       19951  1                      LR    R15,R2              Start of line prefix
 000922 4122 500F            0000F 19952  1                      LA    R2,@R5+15(R2)       Point to next line
1DISK     (DISK4072) (12:42) (15MAR04) DSKREAD Routine                                                                      Page   56
0Current Usings:  (*,R7) (LXCATEWA-(4+36),R8) (CP,R11) (CV,R12)
0Loc    Object Code    Addr1 Addr2  Stmt Lv Lineno    Source Statement           (Hibal 5, Asmedit 3.3)  HLASM R4.0  2004/03/15 12.42
+___    ______ ____    _____ _____  ____ __ ______    ______ _________
0000926 9108 BE28/4710_00E28       19953  1                      IF    ~CPFXALL,BEGIN      Only return text lines...
 00092E D501 7754 F008_00F58 00008 19968  2                        IF    (@R15+8,NE,=H'0'),TRYMOR  Skip this line
 000938                            19987  1                      END
 000938 41F0 F00A            0000A 19991  1                      LA    R15,@R15+10         Start of pressed line
 00093C                            19992                       END
                                   19996
 00093C 713C/47F0 714C 0093C 00912 19997                       ELSE  BEGIN
 000940 9407 2000      00000       20008  1                      CLEAR @R2.X'F8'           Clear unwanted bits
 000944 1F55/4350 2004             20016  1                      LC    R5,@R2+4            Pressed count next line
 00094A 18F2                       20023  1                      LR    R15,R2              Point at line beginning
 00094C 4122 5005            00005 20024  1                      LA    R2,@R5+5(R2)        Point at start next line
 000950                            20025                       END
                                   20029
 000950 5810 8028            00000 20030                       L     R1,LXLNOPTR         Restore R1 for lineno
 000954 D503 F000 1000 00000 00000 20031                       CLC   @R15(4),@R1         At wanted line?
 00095A 4740 70F8            008FC 20032                       BL    TRYMOR              No
 00095E 4720 7162            00966 20033                       BH    NOTEQ               No match
 000962 9208 BD84      00D84       20034                       MVI   CPDRPT,CPFMTCH      Set matching line no. found
 000966 9024 BD60            00D60 20035              NOTEQ    STM   R2,R4,CPWK1         Save 2-3-4
 00096A D203 B73C F000 0073C 00000 20036                       MVC   CPLCNO,@R15         Set located line no.
 000970 181F                       20037                       LR    R1,R15              Line ptr before lineno
 000972 58E0 7724/0DEE       00F28 20038                       VCALL EDITCK              Check for good stuff
 000978 47B0 717E/58E0_      00982 20042                       IF    M,'ACALL NOEMSG'    It's not nice to fool nature
 000982 18F1                       20062                       LR    R15,R1              Copy pressed line ptr
 000984 47F0 7392            00B96 20063                       B     LXEXIT
                                   20064
 000988 9280 BD84      00D84       20065              NDFIL    MVI   CPDRPT,CPFNTYT      Set eof flag
 00098C 47F0 7392            00B96 20066                       B     LXEXIT
                                   20067
 000990 4720 71CA            009CE 20068              NOTEDT   BP    GOTFIXD             Br if fb format
 000994 D201 BC88 2000 00C88 00000 20069                       MVC   CPDOUB(2),@R2       Put vb count on proper bound
 00099A 4860 BC88            00C88 20070                       LH    R6,CPDOUB           Get length of this record
 00099E 1266                       20071                       LTR   R6,R6               Make sure valid value
 0009A0 4720 71A6/58E0_      009AA 20072                       IF    NP,'ACALL INVARDS'  Error if not positive
 0009AA 4150 2004            00004 20092                       LA    R5,@R2+4            Set R5 to start of data
 0009AE 1A26                       20093                       AR    R2,R6               Point R2 to next record
 0009B0 4B60 7756            00F5A 20094                       SH    R6,=H'4'            Adjust to true length of data
 0009B4 47B0 71BA/58E0_      009BE 20095                       IF    M,'ACALL INVARDS'   Error if negative result
 0009BE 1923                       20115                       CR    R2,R3               Check that not past buff end
 0009C0 47D0 71C6/58E0_      009CA 20116                       IF    H,'ACALL INVARDS'   Error if past buff end
 0009CA 47F0 71D8            009DC 20136                       B     NOTEDT1             Now join common code
                                   20137
 0009CE 1852                       20138              GOTFIXD  LR    R5,R2               Set start of record
 0009D0 1A26                       20139                       AR    R2,R6               Point R2 to next record
 0009D2 1923                       20140                       CR    R2,R3               Is this a short record
 0009D4 47D0 71D8            009DC 20141                       BNH   NOTEDT1             Br no, length is ok
 0009D8 1B62                       20142                       SR    R6,R2               Truncate last
 0009DA 1A63                       20143                       AR    R6,R3               Record
 0009DC 4960 7758            00F5C 20144              NOTEDT1  CH    R6,=AL2(&LINESZ)    Is record length 21 max
 0009E0 47D0 71E4            009E8 20145                       BNH   *+8                 Ok if it is
 0009E4 4860 7758            00F5C 20146                       LH    R6,=AL2(&LINESZ)    Use max if not
 0009E8 9110 BD54/47E0_00D54       20147                       IF    (CPLFLG5.CPFFOPT,AND,~CPLFLG5.CPFUNUM),DOLXNMB  num
 0009F8 1804                       20181                       LR    R0,R4               Set r0
 0009FA 5810 B738            00738 20182                       L     R1,CPDELTA          And R1 for adder
1DISK     (DISK4072) (12:42) (15MAR04) DSKREAD Routine                                                                      Page   57
0Current Usings:  (*,R7) (LXCATEWA-(4+36),R8) (CP,R11) (CV,R12)
0Loc    Object Code    Addr1 Addr2  Stmt Lv Lineno    Source Statement           (Hibal 5, Asmedit 3.3)  HLASM R4.0  2004/03/15 12.42
+___    ______ ____    _____ _____  ____ __ ______    ______ _________
00009FE 58E0 772C/0DEE       00F30 20183                       VCALL ADDER               Calculate next line no.
 000A04 47B0 720A/58E0_      00A0E 20187                       IF    M,'ACALL LXERRB'    Error if bad result
 000A0E 1840                       20207                       LR    R4,R0               Save new line no.
 000A10 5810 8028            00000 20208              CUTTIN2  L     R1,LXLNOPTR         Point to line no. to locate
 000A14 5940 1000            00000 20209                       C     R4,@R1              Is this line we want
 000A18 4740 70F8            008FC 20210                       BL    TRYMOR              Br no to get next line
 000A1C 4770 7220            00A24 20211                       BNE   *+8                 Br if not match
 000A20 9208 BD84      00D84       20212                       MVI   CPDRPT,CPFMTCH      Set match
 000A24 1806                       20213                       LR    R0,R6               Set R0 to length for press
 000A26 5810 BDDC            00DDC 20214                       L     R1,CPIOWAP          Get work area
 000A2A 4110 1028            00028 20215                       LA    R1,WALINAR-IOWA(,R1)  in disk path
 000A2E 1266                       20216                       LTR   R6,R6               Test for length zero
 000A30 4780 7236            00A3A 20217                       BZ    LENZERO             it's a null line
 000A34 0660/4460 77DC_            20218                       DEX   R6,' MVC @R1(0),@R5 '  Move line to area
 000A3A 18F4                       20237              LENZERO  LR    R15,R4              Set R15 to line no.
 000A3C 58E0 7734/0DEE       00F38 20238                       VCALL PRESS               Press the line
 000A42 18F1                       20242                       LR    R15,R1              Set R15 to pressed line
 000A44 47F0 7162            00966 20243                       B     NOTEQ               Go finish up
                                   20244
 000A48 9180 BDA2      00DA2       20245              DOLXNMB  TM    CPSEQLN,X'80'       Need to determine point/nopoint
 000A4C 4780 7286            00A8A 20246                       BE    DOLXNM3             No
 000A50 947F BDA2      00DA2       20247                       NI    CPSEQLN,255-X'80'   Turn off flag
 000A54 48F0 BDA2            00DA2 20248                       LH    R15,CPSEQLN         Get count
 000A58 94F7 BD54      00D54       20249                       NI    CPLFLG5,255-CPNFINT Assume decimal point
 000A5C 9180 BDA0      00DA0       20250                       TM    CPSEQFLD,X'80'      Test seqfld at end
 000A60 4780 726A            00A6E 20251                       BE    DOLXNM2             No
 000A64 4116 5000            00000 20252                       LA    R1,0(R6,R5)         Point to
 000A68 1B1F                       20253                       SR    R1,R15              Seqfld
 000A6A 47F0 7272            00A76 20254                       B     DOLXNM1             Go look for decimal pnt
                                   20255
 000A6E 4810 BDA0            00DA0 20256              DOLXNM2  LH    R1,CPSEQFLD         Point
 000A72 0610                       20257                       DECR  R1                  To
 000A74 1A15                       20259                       AR    R1,R5               Seqfld
 000A76 954B 1000      00000       20260              DOLXNM1  CLI   @R1,C'.'            Decimal point in seqfld
 000A7A 4780 7286            00A8A 20261                       BE    DOLXNM3             Yes, go on
 000A7E 4110 1001            00001 20262                       LA    R1,@R1+1            Point to next position
 000A82 46F0 7272            00A76 20263                       BCT   R15,DOLXNM1         Loop till done
 000A86 9608 BD54      00D54       20264                       OI    CPLFLG5,CPNFINT     Set no decimal point
 000A8A 4800 BDA2            00DA2 20265              DOLXNM3  LH    R0,CPSEQLN          Get seqfld length
 000A8E 9180 BDA0      00DA0       20266                       TM    CPSEQFLD,X'80'      Seq fld at end
 000A92 4710 72AE            00AB2 20267                       BO    DOLXNMB1            Yes
 000A96 4810 BDA0            00DA0 20268                       LH    R1,CPSEQFLD         Get seqfld position
 000A9A 0610                       20269                       DECR  R1                  Set machine position
 000A9C 18F0                       20271                       LR    R15,R0              Check
 000A9E 1AF1                       20272                       AR    R15,R1              Seqfld
 000AA0 196F                       20273                       CR    R6,R15              In record
 000AA2 47B0 72A8/58E0_      00AAC 20274                       IF    L,'ACALL LXERRC'    No
 000AAC 1A15                       20294                       AR    R1,R5               Point to seqfld position
 000AAE 47F0 72C2            00AC6 20295                       B     CUTTIN1             Go scan
                                   20296
 000AB2 4960 BDA2            00DA2 20297              DOLXNMB1 CH    R6,CPSEQLN          Check seqfld in record
 000AB6 47B0 72BC/58E0_      00AC0 20298                       IF    L,'ACALL LXERRC'    No
 000AC0 4116 5000            00000 20318                       LA    R1,0(R6,R5)         Point to
 000AC4 1B10                       20319                       SR    R1,R0               Seqfld position
1DISK     (DISK4072) (12:42) (15MAR04) DSKREAD Routine                                                                      Page   58
0Current Usings:  (*,R7) (LXCATEWA-(4+36),R8) (CP,R11) (CV,R12)
0Loc    Object Code    Addr1 Addr2  Stmt Lv Lineno    Source Statement           (Hibal 5, Asmedit 3.3)  HLASM R4.0  2004/03/15 12.42
+___    ______ ____    _____ _____  ____ __ ______    ______ _________
0000AC6 58E0 B08C/501E_      0008C 20320              CUTTIN1  SCINIT (R1),(R0)          Scan init
 000AD4 9108 BD54      00D54       20341                       TM    CPLFLG5,CPNFINT     Is it nopoint
 000AD8 4770 732A            00B2E 20342                       IF    E,BEGIN
 000ADC 5810 B08C/1B00_      0008C 20353  1                      SCAN  LXNMPRT
 000B2E                            20385                       END
 000B2E 732E/47F0 7380 00B2E 00ADA 20389                       ELSE  BEGIN
 000B32 5810 B08C/1B00_      0008C 20400  1                      SCAN  LXNMPRT2
 000B84                            20432                       END
 000B84 12FF/47B0 738C_            20436                       IF    (R15,NEG),'ACALL LXERRC'
 000B90 1BFF                       20459                       CLEAR R15
 000B92 47F0 720C            00A10 20463                       B     CUTTIN2
                                   20464              *
                                   20465              *  EXIT
                                   20466              *
 000B96                            20467              LXEXIT   LABEL ,
 000B96 18D8/9808 D004_            20469                       PEND  ,
 DROP   LXCATEWA-(4+36),R8
 DROP   *,R7
1DISK     (DISK4072) (12:42) (15MAR04) DSKREAD Routine                                                                      Page   59
0Current Usings:  (CP,R11) (CV,R12)
0Loc    Object Code    Addr1 Addr2  Stmt Lv Lineno    Source Statement           (Hibal 5, Asmedit 3.3)  HLASM R4.0  2004/03/15 12.42
+___    ______ ____    _____ _____  ____ __ ______    ______ _________
0                                  20495              *
                                   20496              *  LXCATE ERROR EXITS
                                   20497              *
 000BA4 50E0 D000/9008_      00000 20498              LXERRC   PROC  ,
 USING  *,R7
 000BBE 4110 73A2/4100_      00F60 20537                       TSEG  'Numbered option error.',,B
 000BD0 58E0 7356/0DEE       00F14 20555                       ACALL GOCLRNW             NO RETURN
 000BD6 18D8/9808 D004_            20559                       PEND  ,
 DROP   *,R7
                                   20579
 000BE4 50E0 D000/9008_      00000 20580              LXERRB   PROC  ,
 USING  *,R7
 000BFE 4110 7378/4100_      00F76 20619                       TSEG  'Delta too big.',,B
 000C10 58E0 7316/0DEE       00F14 20637                       ACALL GOCLRNW             NO RETURN
 000C16 18D8/9808 D004_            20641                       PEND  ,
 DROP   *,R7
                                   20661
 000C24 50E0 D000/9008_      00000 20662              NOGGODY  PROC  ,
 USING  *,R7
 000C3E 4110 7346/4100_      00F84 20701                       TSEG  'Invalid edit format block.',,B
 000C50 58E0 72D6/0DEE       00F14 20719                       ACALL GOCLRNW             NO RETURN
 000C56 18D8/9808 D004_            20723                       PEND  ,
 DROP   *,R7
                                   20743
 000C64 50E0 D000/9008_      00000 20744              INVARDS  PROC  ,
 USING  *,R7
 000C7E 4110 7320/4100_      00F9E 20783                       TSEG  'Invalid variable length block.',,B
 000C90 58E0 7296/0DEE       00F14 20801                       ACALL GOCLRNW             NO RETURN
 000C96 18D8/9808 D004_            20805                       PEND  ,
 DROP   *,R7
                                   20825
 000CA4 50E0 D000/9008_      00000 20826              NOEMSG   PROC  ,
 USING  *,R7
 000CBE 41F0 B050/58E0_      00050 20865                       TSEG  (R1),(R0),B
 000CC8 58E0 7256/0DEE       00F14 20889                       ACALL GOCLRNW             NO RETURN
 000CCE 18D8/9808 D004_            20893                       PEND  ,
 DROP   *,R7
                                   20913
 000CDC 50E0 D000/9008_      00000 20914              GOCLRNW  PROC  ,
 USING  *,R7
 000CF6 58E0 725A/0DEE       00F50 20953                       VCALL EXTCLOSE
 000CFC 4110 72D7/4100_      00FCD 20957                       TSEG  'Command incomplete.',,B
 000D0E 58E0 725E/0DEE       00F54 20975                       VCALL LASTLINE            Show last lineno
 000D14 47F0 C7DA            007DA 20979                       B     CVABORT
 000D18 18D8/9808 D004_            20980                       PEND  ,
 DROP   *,R7
1DISK     (DISK4072) (12:42) (15MAR04) DSKREAD Routine                                                                      Page   60
0Current Usings:  (CP,R11) (CV,R12)
0Loc    Object Code    Addr1 Addr2  Stmt Lv Lineno    Source Statement           (Hibal 5, Asmedit 3.3)  HLASM R4.0  2004/03/15 12.42
+___    ______ ____    _____ _____  ____ __ ______    ______ _________
0                                  21001              *
                                   21002              *    LXCATE NUMBERED SCANNING STUFF
                                   21003              *
 000D28 4040404040404040_          21004              LXNMPRT  SCKW  ,LXERRC,NULL
 000D50 4040404040404040_          21019                       SCKW  ,HVLXNMB,LN
 000D78 4040404040404040_          21034                       SCKW  ,LXERRC
                                   21049
 000DA0 4040404040404040_          21050              LXNMPRT2 SCKW  ,LXERRC,NULL
 000DC8 4040404040404040_          21065                       SCKW  ,HVLXNMB1,I
 000DF0 4040404040404040_          21080                       SCKW  ,LXERRC
                                   21095
 000E18 50E0 D000/9008_      00000 21096              HVLXNMB  PROC  ,
 USING  *,R7
 000E32 4B60 BDA2            00DA2 21135                       SH    R6,CPSEQLN          Set record size
 000E36 1840                       21136                       LR    R4,R0               Set R4 to lineno found
 000E38 9180 BDA0      00DA0       21137                       TM    CPSEQFLD,X'80'      Seqfld at end
 000E3C 4710 702E            00E60 21138                       BO    HVLXNX              Yes done
 000E40 4810 BDA0            00DA0 21139                       LH    R1,CPSEQFLD         Get seqfld position
 000E44 0610                       21140                       DECR  R1                  Set for machine position
 000E46 4115 1000            00000 21142                       LA    R1,0(R5,R1)         Set R1 to seqfld start
 000E4A 18E1                       21143                       LR    R14,R1              Set R14 to text
 000E4C 4AE0 BDA2            00DA2 21144                       AH    R14,CPSEQLN         After seqfld
 000E50 1806                       21145                       LR    R0,R6               Save R6
 000E52 4B60 BDA0            00DA0 21146                       SH    R6,CPSEQFLD         Length - posit of seq fld
 000E56 4740 702C            00E5E 21147                       BM    *+8                 Br if really is at end
 000E5A 4460 71B4/D200_      00FE6 21148                       EX    R6,'MVC @R1(0),@R14'
 000E5E 1860                       21164                       LR    R6,R0               Reload R6
 000E60                            21165              HVLXNX   LABEL ,
 000E60 5048 0014            00014 21167                       PRETURN (R4)
 000E64 5068 001C            0001C 21169                       PRETURN (R6)
 000E68 41F0 0004            00004 21171                       LA    R15,4
 000E6C 18D8/9808 D004_            21172                       PEND  ,
 DROP   *,R7
                                   21192
 000E7A 50E0 D000/9008_      00000 21193              HVLXNMB1 PROC  ,
 USING  *,R7
 000E94 5500 C15C            0015C 21232                       CL    R0,CVMAXLNO         Test max value
 000E98 47D0 700E/58E0_      00EA2 21233                       IF    H,'ACALL LXERRC'    Error if high
 000EA2 4B60 BDA2            00DA2 21253                       SH    R6,CPSEQLN          Set record size
 000EA6 1840                       21254                       LR    R4,R0               Set R4 to lineno found
 000EA8 9180 BDA0      00DA0       21255                       TM    CPSEQFLD,X'80'      Seqfld at end
 000EAC 4710 703C            00ED0 21256                       BO    HVLXNX2             Yes done
 000EB0 4810 BDA0            00DA0 21257                       LH    R1,CPSEQFLD         Get seqfld position
 000EB4 0610                       21258                       DECR  R1                  Set for machine position
 000EB6 4115 1000            00000 21260                       LA    R1,0(R5,R1)         Set R1 to seqfld start
 000EBA 18E1                       21261                       LR    R14,R1              Set R14 to text
 000EBC 4AE0 BDA2            00DA2 21262                       AH    R14,CPSEQLN         After seqfld
 000EC0 1806                       21263                       LR    R0,R6               Save R6
 000EC2 4B60 BDA0            00DA0 21264                       SH    R6,CPSEQFLD         Length - posit of seq fld
 000EC6 4740 703A            00ECE 21265                       BM    *+8                 Br if really is at end
 000ECA 4460 7158/D200_      00FEC 21266                       EX    R6,'MVC @R1(0),@R14'
 000ECE 1860                       21282                       LR    R6,R0               Reload R6
 000ED0                            21283              HVLXNX2  LABEL ,
 000ED0 5048 0014            00014 21285                       PRETURN (R4)
1DISK     (DISK4072) (12:42) (15MAR04) DSKREAD Routine                                                                      Page   61
0Current Usings:  (*,R7) (CP,R11) (CV,R12)
0Loc    Object Code    Addr1 Addr2  Stmt Lv Lineno    Source Statement           (Hibal 5, Asmedit 3.3)  HLASM R4.0  2004/03/15 12.42
+___    ______ ____    _____ _____  ____ __ ______    ______ _________
0000ED4 5068 001C            0001C 21287                       PRETURN (R6)
 000ED8 41F0 0004            00004 21289                       LA    R15,4
 000EDC 18D8/9808 D004_            21290                       PEND  ,
 DROP   *,R7
                                   21310                       QLTORG
1DISK     (DISK4072) (12:42) (15MAR04) DSKWRITE, Disk Interface Routines                                                    Page   62
0Current Usings:  (CP,R11) (CV,R12)
0Loc    Object Code    Addr1 Addr2  Stmt Lv Lineno    Source Statement           (Hibal 5, Asmedit 3.3)  HLASM R4.0  2004/03/15 12.42
+___    ______ ____    _____ _____  ____ __ ______    ______ _________
0                                  21359              ¿þþþþþþþþþþþþþþþþþþþþþþþþþþþþþþþþþþþþþþþþþþþþþþþþþþþþþþþþþþþþþþþþþþþþþÜ
                                   21360              Ÿ                                                                     Ÿ
                                   21361              Ÿ  DSKWRITE -- Routine to write the next line to a disk file.         Ÿ
                                   21362              Ÿ                                                                     Ÿ
                                   21363              Ÿ  On entry:                                                          Ÿ
                                   21364              Ÿ    R1,R0 - text,location, length                                    Ÿ
                                   21365              Ÿ    R2 - line number                                                 Ÿ
                                   21366              Ÿ    DSNWA contains information about the file                        Ÿ
                                   21367              Ÿ                                                                     Ÿ
                                   21368              Ÿ  Only returns if ok.                                                Ÿ
                                   21369              Ÿ                                                                     Ÿ
                                   21370              Ÿ  Note:                                                              Ÿ
                                   21371              Ÿ  This routines just repackages the line for DSKWRT2,                Ÿ
                                   21372              Ÿ  (the original DSKWRITE routine) below.                             Ÿ
                                   21373              Ÿ                                                                     Ÿ
                                   21374              Ÿ                                                                     Ÿ
                                                      ¾þþþþþþþþþþþþþþþþþþþþþþþþþþþþþþþþþþþþþþþþþþþþþþþþþþþþþþþþþþþþþþþþþþþþþ»
0000000                00000 00200 21375              DWWA     RECORD BEGIN
                                   21383  1           DWLINE     DS    XL(&PRESSZ+256)
 000000                                   1          +DWLINE     DS    XL(256+256)
 000200                00200 00200 21384                       END
                                   21393              *
                                   21394              *
 000FF2 50E0 D000/9008_      00000 21395              DSKWRITE XPROC DWWA
 USING  *,R7
 USING  DWWA-(4+36),R8
 00100C 9610 BF3A      00F3A       21446                       SET   DSNFWRITE
 001010 18F0                       21452                       LR    R15,R0
 001012 06F0/12FF/4740_            21453                       MOVE  R15,DWLINE,@R1
 00101E 4110 8028            00000 21491                       LA    R1,DWLINE
 001022 18F2                       21492                       LR    R15,R2
 001024 58E0 7634/0DEE       01640 21493                       VCALL PRESS
 00102A 18F1                       21497                       LR    R15,R1
 00102C 58E0 7638/0DEE       01644 21498                       ACALL DSKWRT2
 001032 18D8/9808 D004_            21502                       PEND
 DROP   DWWA-(4+36),R8
 DROP   *,R7
1DISK     (DISK4072) (12:42) (15MAR04) DSKWRITE, Disk Interface Routines                                                    Page   63
0Current Usings:  (CP,R11) (CV,R12)
0Loc    Object Code    Addr1 Addr2  Stmt Lv Lineno    Source Statement           (Hibal 5, Asmedit 3.3)  HLASM R4.0  2004/03/15 12.42
+___    ______ ____    _____ _____  ____ __ ______    ______ _________
0                                  21528              ¿þþþþþþþþþþþþþþþþþþþþþþþþþþþþþþþþþþþþþþþþþþþþþþþþþþþþþþþþþþþþþþþþþþþþþÜ
                                   21529              Ÿ                                                                     Ÿ
                                   21530              Ÿ  DSKWRITE -- Routine to write the next line to a disk file.         Ÿ
                                   21531              Ÿ                                                                     Ÿ
                                   21532              Ÿ    On entry:                                                        Ÿ
                                   21533              Ÿ      R15 - pressed line ptr or zero to just empty buffer.           Ÿ
                                   21534              Ÿ      DSNWA contains information about the file.                     Ÿ
                                   21535              Ÿ                                                                     Ÿ
                                   21536              Ÿ  Only returns if ok.                                                Ÿ
                                   21537              Ÿ                                                                     Ÿ
                                   21538              Ÿ  Note:                                                              Ÿ
                                   21539              Ÿ  This is original DSKWRITE code.  It has the old DSKWRITE           Ÿ
                                   21540              Ÿ  interface as described above.                                      Ÿ
                                   21541              Ÿ                                                                     Ÿ
                                   21542              Ÿ                                                                     Ÿ
                                                      ¾þþþþþþþþþþþþþþþþþþþþþþþþþþþþþþþþþþþþþþþþþþþþþþþþþþþþþþþþþþþþþþþþþþþþþ»
0001040 50E0 D000/9028_      00000 21543              DSKWRT2  XENTER R2,R8,*+&PRESSZ+32,LOCAL
 USING  *,R7
 00105A 12FF/4770 7056             21561                       IF    (R15,Z),BEGIN       Empty buffer...
 001060 D603 BD9C BD9C_00D9C 00D9C 21575  1                      IF    (CPLRCL,Z),BEGIN    Edit format...
 00106A 5820 BD70            00D70 21591  2                        L     R2,CPNWCT           Buffer len
 00106E 5920 75EE/4780_      01648 21592  2                        IF    (R2,EQ,2),DSKEXIT   Nothing to write, scram
 001076 5830 BDD8            00DD8 21612  2                        L     R3,CPDRED
 00107A 4020 3000            00000 21613  2                        STH   R2,@R3              Save it in block
                                   21614  2
 00107E 9180 BE28/47E0_00E28       21615  2                        IF    CPFNEWED,BEGIN      NEWEDIT format...
 001086 9680 3000      00000       21630  3                          SET   @R3.X'80'           Set extended format
 00108A                            21637  2                        END
                                   21641  2
 00108A 9120 BF38/47E0_00F38       21642  2                        IF    DSNFCODE,'ACALL ENCODE'
 001098                            21666  1                      END
                                   21670  1
 001098 5800 BD70            00D70 21671  1                      L     R0,CPNWCT
 00109C 58E0 75F6/0DEE       01650 21672  1                      ACALL DWRITE
 0010A2 4780 71B8            01212 21676  1                      BZ    DSKEXIT             Normal completion
 0010A6 4720 71C4            0121E 21677  1                      BP    WORKXEOV            Eov
 0010AA 58E0 75FA/0DEE       01654 21678  1                      ACALL WRERROR             Write I/O error (no return)
 0010B0                            21682                       END
                                   21686              *
                                   21687              *
 0010B0 5820 BD9C            00D9C 21688                       L     R2,CPLRCL           Get lrecl (&type)
 0010B4 9836 BD64            00D64 21689                       LM    R3,R6,CPNREC        Set all regs
 0010B8 1222                       21690                       LTR   R2,R2               Edit?
 0010BA 4780 7112            0116C 21691                       BZ    DOEDIT              Yes
 0010BE 1A62                       21692                       AR    R6,R2               Update char count
 0010C0 4110 8020            00020 21693                       LA    R1,@R8+32           Work area addr
 0010C4 9180 BDA0      00DA0       21694                       TM    CPSEQFLD,X'80'      Is seq # at end?
 0010C8 4710 7076            010D0 21695                       BO    GUNPRSS             Yes
 0010CC 4A10 BDA2            00DA2 21696                       AH    R1,CPSEQLN          No, leave room for seq #
 0010D0 58E0 75FE/0DEE       01658 21697              GUNPRSS  VCALL UNPRESS             Unpress
 0010D6 1902/47D0 7086_            21701                       IF    (R0,GT,R2),'SET CPFTRUNC'  lines were truncated
 0010E0 9110 BD54/47E0_00D54       21727                       IF    (~CPLFLG5.CPFFOPT,OR,CPLFLG5.CPFUNUM),GOONNOW  unn
 0010F0 5800 B73C            0073C 21761                       L     R0,CPLCNO           Line no. into r0
1DISK     (DISK4072) (12:42) (15MAR04) DSKWRITE, Disk Interface Routines                                                    Page   64
0Current Usings:  (*,R7) (CP,R11) (CV,R12)
0Loc    Object Code    Addr1 Addr2  Stmt Lv Lineno    Source Statement           (Hibal 5, Asmedit 3.3)  HLASM R4.0  2004/03/15 12.42
+___    ______ ____    _____ _____  ____ __ ______    ______ _________
00010F4 58E0 7602/0DEE       0165C 21762                       VCALL CVEXNO              Convert to external
 0010FA 4110 BC88/4100_      00C88 21766                       SETMSG CPDOUB,9
 001102 9180 BDA0      00DA0       21782                       TM    CPSEQFLD,X'80'      Is seq # at end?
 001106 4710 70D0            0112A 21783                       BO    GUNPR2              Yes
 00110A 48E0 BDA0            00DA0 21784                       LH    R14,CPSEQFLD        Get seq fld start
 00110E 4BE0 762E            01688 21785                       SH    R14,=H'2'           Subtract for ex count
 001112 4740 70C8            01122 21786                       BM    GUNPR1              Beginning if negative
 001116 41F0 8020            00020 21787                       LA    R15,32(,R8)         Point to
 00111A 4AF0 BDA2            00DA2 21788                       AH    R15,CPSEQLN         Text to move
 00111E 44E0 7682/D200_      016DC 21789                       EX    R14,'MVC @R8+32(0),@R15'
 001122 41FE 8021            00021 21805              GUNPR1   LA    R15,32+1(R14,R8)    Point to lineno position
 001126 47F0 70D8            01132 21806                       B     GUNPR3
                                   21807
 00112A 41F2 8020            00020 21808              GUNPR2   LA    R15,32(R2,R8)
 00112E 4BF0 BDA2            00DA2 21809                       SH    R15,CPSEQLN         Point to lineno position
 001132 48E0 BDA2            00DA2 21810              GUNPR3   LH    R14,CPSEQLN         Get seqfld length
 001136 1B0E                       21811                       SR    R0,R14              Adjust external
 001138 1A10                       21812                       AR    R1,R0               Pointer for length
 00113A 06E0/44E0 7688_            21813                       DEX   R14,'MVC @R15(0),@R1'
 001140 1964                       21832              GOONNOW  CR    R6,R4               Buffer full?
 001142 47D0 7108            01162 21833                       BNH   PUTMOR              No
 001146 1B00                       21834                       CLEAR R0
 001148 58E0 75F6/0DEE       01650 21838                       ACALL DWRITE
 00114E 4780 7102            0115C 21842                       BZ    WRITOK              Write ok
 001152 4720 71C4            0121E 21843                       BP    WORKXEOV            Br if no more space
 001156 58E0 75FA/0DEE       01654 21844                       ACALL WRERROR             Write I/O error (no return)
 00115C 5850 BDD8            00DD8 21848              WRITOK   L     R5,CPDRED           Reset buffer addr to start
 001160 1862                       21849                       LR    R6,R2               Reset count
 001162 4430 768E/D200_      016E8 21850              PUTMOR   EX    R3,'MVC @R5(0),@R8+32'
 001166 1A52                       21866                       AR    R5,R2               Update buffer ptr
 001168 47F0 71B4            0120E 21867                       B     SCRAM
                                   21868                       ¿þþþþþþþþþþþþþþþþþþþþþþþþþþÜ
                                   21869                       Ÿ  Doing edit format save  Ÿ
                                   21870                       ¾þþþþþþþþþþþþþþþþþþþþþþþþþþ»
 00116C 1F22/4320 F004             21871              DOEDIT   LC    R2,@R15+4           Pick prest count
 001172 4166 2005            00005 21878                       LA    R6,@R2+5(R6)        Total count for line plus previous
 001176 9180 BE28/47E0_00E28       21879                       IF    CPFNEWED,'LA R6,@R6+10'  Include line prefix len
 001182 1964                       21900                       CR    R6,R4               Too much? - first output buffer
 001184 47D0 7192            011EC 21901                       BNH   DOSTOW              All ok - stow away
 001188 5850 BDD8            00DD8 21902                       L     R5,CPDRED           External I/O buf addr
 00118C 5860 BD70            00D70 21903                       L     R6,CPNWCT           Set with count for output rec
 001190 4060 5000            00000 21904                       STH   R6,@R5              Store total byte count
 001194 9180 BE28/47E0_00E28       21905                       IF    CPFNEWED,BEGIN      NEWEDIT...
 00119C 9680 5000      00000       21920  1                      SET   @R5.X'80'           Extended format
 0011A0                            21927                       END
 0011A0 D2FF 8020 F000 00020 00000 21931                       MVC   @R8+32(&PRESSZ),@R15  Save located line
 0011A6 9120 BF38/47E0_00F38       21932                       IF    DSNFCODE,'ACALL ENCODE'
 0011B4 5800 BD70            00D70 21956                       L     R0,CPNWCT           Use actual record size
 0011B8 58E0 75F6/0DEE       01650 21957                       ACALL DWRITE
 0011BE 4780 7176            011D0 21961                       BZ    NDSKERH             B if disk I/O ok
 0011C2 4720 71C4            0121E 21962                       BP    WORKXEOV            Br if no more space
 0011C6 58E0 75FA/0DEE       01654 21963                       ACALL WRERROR             Write I/O error (no return)
 0011CC 47F0 C7D6            007D6 21967                       B     CVERROR
                                   21968
1DISK     (DISK4072) (12:42) (15MAR04) DSKWRITE, Disk Interface Routines                                                    Page   65
0Current Usings:  (*,R7) (CP,R11) (CV,R12)
0Loc    Object Code    Addr1 Addr2  Stmt Lv Lineno    Source Statement           (Hibal 5, Asmedit 3.3)  HLASM R4.0  2004/03/15 12.42
+___    ______ ____    _____ _____  ____ __ ______    ______ _________
00011D0 5850 BDD8            00DD8 21969              NDSKERH  L     R5,CPDRED
 0011D4 4150 5002            00002 21970                       LA    R5,@R5+2            Point 2 bytes into buffer
 0011D8 4160 2007            00007 21971                       LA    R6,@R2+7            Set count thru first line nxt bufr
 0011DC 9180 BE28/47E0_00E28       21972                       IF    CPFNEWED,'LA R6,@R6+10'  Include line prefix len
 0011E8 41F0 8020            00020 21993                       LA    R15,@R8+32          Point at saved line image
                                   21994
 0011EC 9180 BE28/47E0_00E28       21995              DOSTOW   IF    CPFNEWED,BEGIN      NEWEDIT...
 0011F4 D209 5000 BE29 00000 00E29 22011  1                      MVC   @R5(10),CPNEDPFX    Move in NEWEDIT line prefix
 0011FA 9620 5000      00000       22012  1                      SET   @R5.X'20'           Set extended line format
 0011FE 4150 500A            0000A 22019  1                      LA    R5,@R5+10           Skip over prefix
 001202                            22020                       END
 001202 4120 2004            00004 22024                       LA    R2,@R2+4            Prest count plus 4 for move
 001206 4420 7694/D200_      016EE 22025                       EX    R2,'MVC @R5(0),@R15'
 00120A 4155 2001            00001 22041                       LA    R5,@R2+1(R5)        Kick pointer
 00120E 9056 BD6C            00D6C 22042              SCRAM    STM   R5,R6,CPNXAD        Store
 001212 18D8/58E0 D000_            22043              DSKEXIT  XEXIT R2,R8               Return
                                   22048
 00121E 58E0 7606/0DEE       01660 22049              WORKXEOV VCALL EOV                 Return to caller's caller (kludge)
 DROP   *,R7                       22053                       DROP  BR
1DISK     (DISK4072) (12:42) (15MAR04) DSKWRITE, Disk Interface Routines                                                    Page   66
0Current Usings:  (CP,R11) (CV,R12)
0Loc    Object Code    Addr1 Addr2  Stmt Lv Lineno    Source Statement           (Hibal 5, Asmedit 3.3)  HLASM R4.0  2004/03/15 12.42
+___    ______ ____    _____ _____  ____ __ ______    ______ _________
0001224 50E0 D000/9028_      00000 22061              ENCODE   XENTER R2,R8,*,LOCAL
 USING  *,R7
 00123E 5850 BDD8            00DD8 22079                       L     R5,CPDRED           R5 -> External buffer I/O address
 001242 5860 BD70            00D70 22080                       L     R6,CPNWCT           R6 holds count for output record
 001246 5840 7426            01664 22081                       L     R4,=F'65539'        R4 holds magic value
 00124A 5810 BF5C            00F5C 22082                       L     R1,DSNCODE          R1 holds code
000124E 1C04                       22084              SAVLOOP  MR    R0,R4               Multiply by magic value
 001250 1831                       22085                       LR    R3,R1               Move lower half of product
 001252 8D20 0008            00008 22086                       SLDL  R2,8                Shift high order byte into R2
 001256 4330 5000            00000 22087                       IC    R3,@R5              Load character into R3
 00125A 1E32                       22088                       ALR   R3,R2               Decode character
 00125C 4230 5000            00000 22089                       STC   R3,@R5              Replace character
 001260 4155 0001            00001 22090                       LA    R5,1(R5)            Get next character
 001264 4660 7010            0124E 22091                       BCT   R6,SAVLOOP          Loop back for all characters
0001268 18D8/58E0 D000_            22093                       XEXIT R2,R8
 DROP   *,R7                       22098                       DROP  BR
1DISK     (DISK4072) (12:42) (15MAR04) DSKCLOSE, Disk Interface Routines                                                    Page   67
0Current Usings:  (CP,R11) (CV,R12)
0Loc    Object Code    Addr1 Addr2  Stmt Lv Lineno    Source Statement           (Hibal 5, Asmedit 3.3)  HLASM R4.0  2004/03/15 12.42
+___    ______ ____    _____ _____  ____ __ ______    ______ _________
0                                  22106              ¿þþþþþþþþþþþþþþþþþþþþþþþþþþþþþþþþþþþþþþþþþþþþþþþþþþþþþþþþþþþþþþþþþþþþþÜ
                                   22107              Ÿ                                                                     Ÿ
                                   22108              Ÿ  DSKCLOSE -- Routine to close a Samson file.                        Ÿ
                                   22109              Ÿ                                                                     Ÿ
                                   22110              Ÿ    On entry:                                                        Ÿ
                                   22111              Ÿ      DSNWA contains information about the file.                     Ÿ
                                   22112              Ÿ                                                                     Ÿ
                                                      ¾þþþþþþþþþþþþþþþþþþþþþþþþþþþþþþþþþþþþþþþþþþþþþþþþþþþþþþþþþþþþþþþþþþþþþ»
0001274 50E0 D000/9028_      00000 22113              DSKCLOSE XENTER
 USING  *,R7
 00128E 1BFF                       22132                       CLEAR R15                 Assume good return code
                                   22136
 001290 5860 BDDC/1266       00DDC 22137                       LT    IOWAR,CPIOWAP       IOWA ptr
 001296 4780 703C            012CA 22141                       IF    NZ,BEGIN            Disk path is open...
 00129A 9110 BF3A/47E0_00F3A       22152  1                      IF    DSNFWRITE,BEGIN     If output, force out buffer
 0012A2 1BFF                       22167  2                        CLEAR R15
 0012A4 58E0 73B6/0DEE       01644 22171  2                        ACALL DSKWRT2
 0012AA 94EF BF3A      00F3A       22175  2                        CLEAR DSNFWRITE
 0012AE                            22182  1                      END
 0012AE 7024/47F0 7036_012AE 012A0 22186  1                      ELSEIF (CPCMNM,EQ,'SAV'),'CLEAR R15; ACALL DSKWRT2'
 0012C4 58E0 73DA/0DEE       01668 22225  1                      ACALL DCLOSE
 0012CA                            22229                       END
 0012CA 18D8/58E0 D000_            22233                       XEXIT
 DROP   *,R7                       22238                       DROP  BR
1DISK     (DISK4072) (12:42) (15MAR04) DSKCLOSE, Disk Interface Routines                                                    Page   68
0Current Usings:  (CP,R11) (CV,R12)
0Loc    Object Code    Addr1 Addr2  Stmt Lv Lineno    Source Statement           (Hibal 5, Asmedit 3.3)  HLASM R4.0  2004/03/15 12.42
+___    ______ ____    _____ _____  ____ __ ______    ______ _________
00012D6 50E0 D000/90F8_      00000 22246              RDERROR  XENTER R15,R8
 USING  *,R7
 0012F0 4110 739D/4100_      0168D 22265                       TSEG  'Data set read error.  Proceeding.',,WR
 001302 D207 B886 7340 00886 01630 22283                       MVC   CPERRID,=CL8'READERR'
 001308 4770 C7DA            007DA 22284                       BNZ   CVABORT
 00130C 9640 BD5A      00D5A       22285                       SET   CPFERROR
 001310 18D8/58E0 D000_            22291                       XEXIT R15,R8
 DROP   *,R7                       22296                       DROP  BR
-00131C 0D70                       22304              WRERROR  BASE
 USING  *,R7
 00131E D207 B886 731A_00886 01638 22318                       ABORT 'Data set write error.  Command stopped.',,WRITERR
                                   22326
 DROP   *,R7                       22327                       DROP  BR
1DISK     (DISK4072) (12:42) (15MAR04) DENQ/DDEQ Routines                                                                   Page   69
0Current Usings:  (CP,R11) (CV,R12)
0Loc    Object Code    Addr1 Addr2  Stmt Lv Lineno    Source Statement           (Hibal 5, Asmedit 3.3)  HLASM R4.0  2004/03/15 12.42
+___    ______ ____    _____ _____  ____ __ ______    ______ _________
0000000                00000 00038 22335              DENQENT  RECORD BEGIN
 000000                            22343  1           DENQID     DS    CL4'DENQ'           Self identification
 000004                            22344  1           DENQNEXT   DS    A                   Ptr to next DENQENT (or zero)
 000008 00                         22345  1           DENQFLAG   FLAG
 DENQFLAG.DENQFTMP 80 ONES         22349  1                      FLAG  DENQFTMP            - Temporary ENQ
 00000A                            22354  1           DENQLEN    DS    H                   Dsname length
 00000C                            22355  1           DENQNAME   DS    CL44                Dsname
 000038                00038 00038 22356                       END
-                                  22366              ¿þþþþþþþþþþþþþþþþþþþþþþþþþþþþþþþþþþþþþþþþþþþþþþþþþþþþþþþþþþþþþþþþþþþþþÜ
                                   22367              Ÿ                                                                     Ÿ
                                   22368              Ÿ  DENQ -- Routine to ENQUEUE on the data set name in the             Ÿ
                                   22369              Ÿ    DSNWA.                                                           Ÿ
                                   22370              Ÿ                                                                     Ÿ
                                   22371              Ÿ    On entry:                                                        Ÿ
                                   22372              Ÿ      R15 - 0 = permanent ENQ (only DEQ automatically at logoff)     Ÿ
                                   22373              Ÿ            1 = temporary ENQ (DEQ automatically at end of cmd)      Ÿ
                                   22374              Ÿ      DSNWA - contains dsname (and DSN flags)                        Ÿ
                                   22375              Ÿ                                                                     Ÿ
                                   22376              Ÿ    On exit, R15 (and cc):                                           Ÿ
                                   22377              Ÿ      0 - OK                                                         Ÿ
                                   22378              Ÿ      4 - NOT YOURS                                                  Ÿ
                                   22379              Ÿ      8 - IN USE                                                     Ÿ
                                   22380              Ÿ                                                                     Ÿ
                                                      ¾þþþþþþþþþþþþþþþþþþþþþþþþþþþþþþþþþþþþþþþþþþþþþþþþþþþþþþþþþþþþþþþþþþþþþ»
0001330 50E0 D000/9008_      00000 22381              DENQ     XPROC
 USING  *,R7
 00134A 183F                       22421                       LR    R3,R15              Save option flag
 00134C 5810 7326            01670 22422                       L     R1,=A(MODLENQ)      Model enq list
 001350 D20B 72D6 1000 01620 00000 22423                       MVC   ENQXPARM(L'MODLENQ),@R1  Move in model enq list
                                   22424
 001356 41F0 0004            00004 22425                       LA    R15,4               Assume "NOT YOURS" return code
 00135A 9140 BF34/47E0_00F34       22426                       IF    DSNWAF1.DSNFMYDS,BEGIN  User owns this file...
 001362 4110 BE5C            00E5C 22442  1                      LA    R1,DSNWADSN
 001366 5010 72DE            01628 22443  1                      ST    R1,ENQXDSN          Addr of "rname"
 00136A D200 72D7 BF07 01621 00F07 22444  1                      MVC   ENQXLEN,DSNWANL+1   Rnamel
 001370 5800 C714/5000_      00714 22445  1                      ENQ   RET=USE,TCB=CVITCBP,MF=(E,ENQXPARM)
                                   22463  1
 0013A8 12FF/4780 7068_            22464  1                      IF    (R15,NZ),'LA R15,8'  Already in use
 0013B2 706C/47F0 70A6 013B2 013AC 22484  1                      ELSE  BEGIN               It worked...
 0013B6 4100 0038            00038 22495  2                        LA    R0,L'DENQENT
 0013BA 58E0 732A/0DEE       01674 22496  2                        VCALL GETCORE             Get memory for entry
 0013C0 1821                       22500  2                        LR    R2,R1
 USING  DENQENT,R2                 22501  2                        WITH  (DENQENT,R2)
 0013C2 D737 2000 2000 00000 00000 22514  2                        CLEAR DENQENT
 0013C8 D203 2000 732E 00000 01678 22521  2                        MVC   DENQID,=C'DENQ'
 0013CE D203 2004 B204 00004 00204 22522  2                        MVC   DENQNEXT,CPDENQP    Link up list
 0013D4 D201 200A BF06 0000A 00F06 22523  2                        MVC   DENQLEN,DSNWANL
 0013DA D22B 200C BE5C 0000C 00E5C 22524  2                        MVC   DENQNAME,DSNWADSN   Save dsname
 0013E0 1233/4780 70A0_            22525  2                        IF    (R3,NZ),'SET DENQFTMP'  Temporary ENQ
 0013EA 5020 B204            00204 22550  2                        ST    R2,CPDENQP          Save queue head ptr
 0013EE 1BFF                       22551  2                        CLEAR R15                 Set good rc
1DISK     (DISK4072) (12:42) (15MAR04) DENQ/DDEQ Routines                                                                   Page   70
0Current Usings:  (*,R7) (CP,R11) (CV,R12)
0Loc    Object Code    Addr1 Addr2  Stmt Lv Lineno    Source Statement           (Hibal 5, Asmedit 3.3)  HLASM R4.0  2004/03/15 12.42
+___    ______ ____    _____ _____  ____ __ ______    ______ _________
0DROP   DENQENT,R2                 22555  1                      END
 0013F0                            22564                       END
                                   22568
 0013F0 18D8/9808 D004_            22569                       PEND
 DROP   *,R7
1DISK     (DISK4072) (12:42) (15MAR04) DENQ/DDEQ Routines                                                                   Page   71
0Current Usings:  (CP,R11) (CV,R12)
0Loc    Object Code    Addr1 Addr2  Stmt Lv Lineno    Source Statement           (Hibal 5, Asmedit 3.3)  HLASM R4.0  2004/03/15 12.42
+___    ______ ____    _____ _____  ____ __ ______    ______ _________
0                                  22590              ¿þþþþþþþþþþþþþþþþþþþþþþþþþþþþþþþþþþþþþþþþþþþþþþþþþþþþþþþþþþþþþþþþþþþþþÜ
                                   22591              Ÿ                                                                     Ÿ
                                   22592              Ÿ  DDEQ -- Routine to DEQUEUE the data set name in the                Ÿ
                                   22593              Ÿ    DSNWA.                                                           Ÿ
                                   22594              Ÿ                                                                     Ÿ
                                   22595              Ÿ    On entry:                                                        Ÿ
                                   22596              Ÿ      DSNWA - contains dsname (and DSN flags)                        Ÿ
                                   22597              Ÿ                                                                     Ÿ
                                   22598              Ÿ    On exit, R15 (and cc):                                           Ÿ
                                   22599              Ÿ      0 - OK                                                         Ÿ
                                   22600              Ÿ      4 - NOT YOURS                                                  Ÿ
                                   22601              Ÿ      8 - NOT ENQUEUED                                               Ÿ
                                   22602              Ÿ                                                                     Ÿ
                                                      ¾þþþþþþþþþþþþþþþþþþþþþþþþþþþþþþþþþþþþþþþþþþþþþþþþþþþþþþþþþþþþþþþþþþþþþ»
00013FE 50E0 D000/9008_      00000 22603              DDEQ     XPROC
 USING  *,R7
                                   22643
 001418 41F0 0008            00008 22644                       LA    R15,8               Assume "NOT ENQUEUED"
                                   22645
 00141C 4150 B200            00200 22646                       LA    R5,CPDENQP-(DENQNEXT-DENQENT)  Dummy queue head
 001420                            22647                       LOOP  BEGIN
 USING  DENQENT,R5                 22653  1                      WITH  (DENQENT,R5)
 001420 1845                       22666  1                      LR    R4,R5
 001422 5850 5004/1255_      00004 22667  1                      WHILE ('LT R5,DENQNEXT',NZ)
 00142C D503 7260 5000_01678 00000 22684  1                      FAIL  (DENQENT,NE,'DENQ'),DDEQERR1
                                   22712  1
 00144A D52B 500C BE5C_0000C 00E5C 22713  1                      IF    (DENQNAME,EQ,DSNWADSN),BEGIN  Dequeue this dsname...
 001454 5810 7258            01670 22731  2                        L     R1,=A(MODLENQ)
 001458 D20B 7208 1000 01620 00000 22732  2                        MVC   ENQXPARM(L'MODLENQ),@R1  Model enq list
 00145E 4110 500C            0000C 22733  2                        LA    R1,DENQNAME
 001462 5010 7210            01628 22734  2                        ST    R1,ENQXDSN          Addr of "rname"
 001466 D200 7209 500B 01621 0000B 22735  2                        MVC   ENQXLEN,DENQLEN+1   Rnamel
 00146C 5800 C714/5000_      00714 22736  2                        DEQ   RET=HAVE,TCB=CVITCBP,MF=(E,ENQXPARM)
                                   22755  2
 0014A4 D203 4004 5004 00004 00004 22756  2                        MVC   DENQNEXT-DENQENT(4,R4),DENQNEXT  Unlink our entry
 0014AA D203 5000 7264 00000 0167C 22757  2                        MVC   DENQID,=C'XENQ'     Zot id
                                   22758  2
 0014B0 4110 5000            00000 22759  2                        LA    R1,DENQENT
 0014B4 58E0 7268/0DEE       01680 22760  2                        VCALL FREECORE            Release DENQ entry
 0014BA 1BFF                       22764  2                        CLEAR R15                 Good rc
 0014BC 47F0 70AC            014C4 22768  2                        B     DDEQEXIT
 0014C0                            22769  1                      END
 0014C0 47F0 7008            01420 22773                       END
 DROP   DENQENT,R5
                                   22783
 0014C4 18D8/9808 D004_            22784              DDEQEXIT PEND
 DROP   *,R7
1DISK     (DISK4072) (12:42) (15MAR04) DENQ/DDEQ Routines                                                                   Page   72
0Current Usings:  (CP,R11) (CV,R12)
0Loc    Object Code    Addr1 Addr2  Stmt Lv Lineno    Source Statement           (Hibal 5, Asmedit 3.3)  HLASM R4.0  2004/03/15 12.42
+___    ______ ____    _____ _____  ____ __ ______    ______ _________
0                                  22806              ¿þþþþþþþþþþþþþþþþþþþþþþþþþþþþþþþþþþþþþþþþþþþþþþþþþþþþþþþþþþþþþþþþþþþþþÜ
                                   22807              Ÿ                                                                     Ÿ
                                   22808              Ÿ  DENQTEST -- Routine to test to see if we are already enqueued      Ÿ
                                   22809              Ÿ    on the dsname specified in the DSNWA.                            Ÿ
                                   22810              Ÿ                                                                     Ÿ
                                   22811              Ÿ    On entry:                                                        Ÿ
                                   22812              Ÿ      DSNWA - contains dsname (and DSN flags)                        Ÿ
                                   22813              Ÿ                                                                     Ÿ
                                   22814              Ÿ    On exit, R15 (and cc):                                           Ÿ
                                   22815              Ÿ      0 - OK (WE ARE ENQUEUED)                                       Ÿ
                                   22816              Ÿ      4 - NOT YOURS                                                  Ÿ
                                   22817              Ÿ      8 - NOT ENQUEUED                                               Ÿ
                                   22818              Ÿ                                                                     Ÿ
                                                      ¾þþþþþþþþþþþþþþþþþþþþþþþþþþþþþþþþþþþþþþþþþþþþþþþþþþþþþþþþþþþþþþþþþþþþþ»
00014D2 50E0 D000/9008_      00000 22819              DENQTEST XPROC
 USING  *,R7
                                   22859
 0014EC 41F0 0008            00008 22860                       LA    R15,8               Assume "NOT ENQUEUED"
                                   22861
 0014F0 4150 B200            00200 22862                       LA    R5,CPDENQP-(DENQNEXT-DENQENT)  Dummy queue head
 0014F4                            22863                       LOOP  BEGIN
 USING  DENQENT,R5                 22869  1                      WITH  (DENQENT,R5)
 0014F4 1845                       22882  1                      LR    R4,R5
 0014F6 5850 5004/1255_      00004 22883  1                      WHILE ('LT R5,DENQNEXT',NZ)
 001500 D503 718C 5000_01678 00000 22900  1                      FAIL  (DENQENT,NE,'DENQ'),DENQTEST
                                   22928  1
 00151E D52B 500C BE5C_0000C 00E5C 22929  1                      IF    (DENQNAME,EQ,DSNWADSN),BEGIN  Dequeue this dsname...
 001528 1BFF                       22947  2                        CLEAR R15                 Good rc
 00152A 47F0 7046            01532 22951  2                        B     DTSTEXIT
 00152E                            22952  1                      END
 00152E 47F0 7008            014F4 22956                       END
 DROP   DENQENT,R5
                                   22966
 001532 18D8/9808 D004_            22967              DTSTEXIT PEND
 DROP   *,R7
1DISK     (DISK4072) (12:42) (15MAR04) DENQ/DDEQ Routines                                                                   Page   73
0Current Usings:  (CP,R11) (CV,R12)
0Loc    Object Code    Addr1 Addr2  Stmt Lv Lineno    Source Statement           (Hibal 5, Asmedit 3.3)  HLASM R4.0  2004/03/15 12.42
+___    ______ ____    _____ _____  ____ __ ______    ______ _________
0                                  22989              ¿þþþþþþþþþþþþþþþþþþþþþþþþþþþþþþþþþþþþþþþþþþþþþþþþþþþþþþþþþþþþþþþþþþþþþÜ
                                   22990              Ÿ                                                                     Ÿ
                                   22991              Ÿ  DENQFREE -- Routine to dequeue on all the user's enqueued          Ÿ
                                   22992              Ÿ    dsnames.                                                         Ÿ
                                   22993              Ÿ                                                                     Ÿ
                                   22994              Ÿ    On entry:                                                        Ÿ
                                   22995              Ÿ      R15 - 0 = dequeue ALL dsnames (for logoff)                     Ÿ
                                   22996              Ÿ            1 = dequeue only temporary enq's (for end of command)    Ÿ
                                   22997              Ÿ                                                                     Ÿ
                                                      ¾þþþþþþþþþþþþþþþþþþþþþþþþþþþþþþþþþþþþþþþþþþþþþþþþþþþþþþþþþþþþþþþþþþþþþ»
0001540 50E0 D000/9008_      00000 22998              DENQFREE XPROC
 USING  *,R7
 00155A 183F                       23038                       LR    R3,R15              Save option flag
                                   23039
 00155C 4150 B200            00200 23040              DFRELOOP LA    R5,CPDENQP-(DENQNEXT-DENQENT)  Dummy queue head
 001560                            23041                       LOOP  BEGIN
 USING  DENQENT,R5                 23047  1                      WITH  (DENQENT,R5)
 001560 1845                       23060  1                      LR    R4,R5
 001562 5850 5004/1255_      00004 23061  1                      WHILE ('LT R5,DENQNEXT',NZ)
 00156C D503 711E 5000_01678 00000 23078  1                      FAIL  (DENQENT,NE,'DENQ'),DENQFREE
                                   23106  1
 00158A 1233/4780 703E_            23107  1                      IF    ((R3,Z),OR,DENQFTMP),BEGIN  Dequeue this entry...
 001598 5810 7116            01670 23135  2                        L     R1,=A(MODLENQ)
 00159C D20B 70C6 1000 01620 00000 23136  2                        MVC   ENQXPARM(L'MODLENQ),@R1  Model enq list
 0015A2 4110 500C            0000C 23137  2                        LA    R1,DENQNAME
 0015A6 5010 70CE            01628 23138  2                        ST    R1,ENQXDSN          Addr of "rname"
 0015AA D200 70C7 500B 01621 0000B 23139  2                        MVC   ENQXLEN,DENQLEN+1   Rnamel
 0015B0 5800 C714/5000_      00714 23140  2                        DEQ   RET=HAVE,TCB=CVITCBP,MF=(E,ENQXPARM)
                                   23159  2
 0015E8 D203 4004 5004 00004 00004 23160  2                        MVC   DENQNEXT-DENQENT(4,R4),DENQNEXT  Unlink our entry
 0015EE D203 5000 712A 00000 01684 23161  2                        MVC   DENQID,=C'FENQ'     Zot id
                                   23162  2
 0015F4 4110 5000            00000 23163  2                        LA    R1,DENQENT
 0015F8 58E0 7126/0DEE       01680 23164  2                        VCALL FREECORE            Release DENQ entry
 0015FE 47F0 7002            0155C 23168  2                        B     DFRELOOP
 001602                            23169  1                      END
 001602 47F0 7006            01560 23173                       END
 DROP   DENQENT,R5
                                   23183
 001606 18D8/9808 D004_            23184              DFREEXIT PEND
 DROP   *,R7
                                   23205              *
                                   23206              *
 001614 0000000000000000           23207                       DC    3A(0)               Enq param prefix
 001620 C0/00/43/00/0000_          23208              ENQXPARM ENQ   (0,0,E,0,SYSTEM),RET=USE,MF=L
                                   23219              ENQXLEN  EQU   ENQXPARM+1,1,C'X'   Dsn len
                                   23220              ENQXDSN  EQU   ENQXPARM+8,4,C'F'   Dsn ptr
                                   23221
                                   23222                       QLTORG
1DISK     (DISK4072) (12:42) (15MAR04) Disk Open (DOPEN) Routine                                                            Page   74
0Current Usings:  (CP,R11) (CV,R12)
0Loc    Object Code    Addr1 Addr2  Stmt Lv Lineno    Source Statement           (Hibal 5, Asmedit 3.3)  HLASM R4.0  2004/03/15 12.42
+___    ______ ____    _____ _____  ____ __ ______    ______ _________
0                                  23259              ¿þþþþþþþþþþþþþþþþþþþþþþþþþþþþþþþþþþþþþþþþþþþþþþþþþþþþþþþþþþþþþþþþþþþþþÜ
                                   23260              Ÿ                                                                     Ÿ
                                   23261              Ÿ  DOPEN -- Disk open routine.                                        Ÿ
                                   23262              Ÿ                                                                     Ÿ
                                                      ¾þþþþþþþþþþþþþþþþþþþþþþþþþþþþþþþþþþþþþþþþþþþþþþþþþþþþþþþþþþþþþþþþþþþþþ»
00016F4 50E0 D000/90F8_      00000 23263              DOPEN    XENTER R15,R8,ENTL
 USING  *,R7
 00170E D603 BDDC BDDC_00DDC 00DDC 23282                       FAIL  (CPIOWAP,NZ),DOPENX,'DOPEN logic error.'
                                   23310                     ¿þþþþþþþþþþþþþþþþþþþþþþþþþþþþþþþþþþþþþþþþþþþþþþþþþþþþþþþþþþþþþþþþþÜ
                                   23311                     Ÿ  Until all the disk I/O functions go through the EXT interface  Ÿ
                                   23312                     Ÿ    we still need to set CPRFEXT to true here.                   Ÿ
                                   23313                     ¾þþþþþþþþþþþþþþþþþþþþþþþþþþþþþþþþþþþþþþþþþþþþþþþþþþþþþþþþþþþþþþþþþ»
 001730 9680 B8AA      008AA       23314                       SET   CPRFEXT             External data set is open
 001734 9201 BF3B      00F3B       23320                       MVI   DSNDTYPE,DSNDDISK   Make sure it's a disk
                                   23321
 001738 4110 0004/1B00_      00004 23322              REDO     GETRSC IOW,WAIT=NO        Try for IOWA immediately
 001748 4780 70F8            01806 23339                       IF    NZ,BEGIN            If we didn't get one then
 00174C 1911/4770 7050             23350  1                      IF    (R1,EQ,R1),BEGIN    *** Patchable ***
 001752 58E0 7106/0DEE       01814 23365  2                        PFREE PAR
 001758 58E0 710A/0DEE       01818 23371  2                        PFREE PBR
 00175E                            23377  1                      END
                                   23381  1
 00175E 9120 B3BB/4710_003BB       23382  1                      IF    (~CPSSFPS,AND,~CPFEXNOB,AND,~CPFRCVY),BEGIN
 001776 9180 BD55/4710_00D55       23423  2                        IF    ~CPFDUMP,BEGIN      If not to active
 00177E 4110 7116/4100_      01824 23438  3                          TSEG  'Queued.',,WR
 001790 7086/47F0 7088_01790 0177C 23456  2                        END   ELSE,'CLEAR R0'     Typed response to active
 001796 4770 709C/4110_      017AA 23480  2                        IF    Z,'GETRSC IOW'      If write ok then get iowa
 0017AA 4780 70AC            017BA 23513  2                        IF    NZ,BEGIN
 0017AE 41F0 0024            00024 23524  3                          LA    R15,ABRTCODE
 0017B2 5870 7112            01820 23525  3                          L     BR,=A(DOPBASE)
 0017B6 47F0 7A3C            00A3C 23526  3                          B     RET-DOPBASE(,BR)
 0017BA                            23527  2                        END
 0017BA 70B0/70B0/70B0_017BA 01764 23531  1                      END   ELSE,BEGIN          Do NOATTN getrsc for recovery
 0017BE 9108 BD58/47E0_00D58       23550  2                        IF    CPFEXNOB,BEGIN
 0017C6 1B33                       23565  3                          CLEAR R3                  Clear quiet flag
 0017C8 9140 BD55/47E0_00D55       23569  3                          IF    CPFQUIET,'CLEAR CPFQUIET; LA R3,1'  Save QUIET status
 0017D8 4110 711D/4100_      0182B 23597  3                          TSEG  'Please wait ...',,WR  Special msg for "EXEC NOBREAK"
 0017EA 1233/4780 70E6_            23615  3                          IF    (R3,NZ),'SET CPFQUIET'  Reset QUIET if needed
 0017F4                            23640  2                        END
 0017F4 4110 0004/1B00_      00004 23644  2                        GETRSC IOW,ATTN=NO
 001806                            23662  1                      END
 001806                            23666                       END
                                   23670
 001806 1861                       23671                       LR    IOWAR,R1
 001808 5060 BDDC            00DDC 23672                       ST    IOWAR,CPIOWAP       Save IOWA addr
 USING  IOWA,R6                    23673                       USING IOWA
 00180C 47F0 712C            0183A 23682                       B     DOPRES
                                   23683
                                   23684                       QLTORG
1DISK     (DISK4072) (12:42) (15MAR04) Disk Open (DOPEN) Routine                                                            Page   75
0Current Usings:  (IOWA,R6) (*,R7) (CP,R11) (CV,R12)
0Loc    Object Code    Addr1 Addr2  Stmt Lv Lineno    Source Statement           (Hibal 5, Asmedit 3.3)  HLASM R4.0  2004/03/15 12.42
+___    ______ ____    _____ _____  ____ __ ______    ______ _________
000183A 0D70                       23704              DOPRES   BASE  ,                   Get new addressability
 DROP   *,R7
 USING  *,R7
 00183C                            23721              DOPBASE  LABEL
                                   23723
 00183C                            23724              HAVIOWA  LABEL ,
 00183C 58E0 7F14/0DEE       02750 23726                       VCALL ACEESET             Set user's ACEE pointer for RACF
 001842 98F1 8004            00004 23730                       LM    R15,R1,@R8+4        Restore entry regs
 001846 58E0 7F18/0DEE       02754 23731                       ACALL OPENINIT            Init misc stuff
 00184C 95FF 616C/4770_0016C       23735                       IF    (F2,EQ,DSNFSIMP),'CLEAR R15; B RET'  simple dopen
                                   23763
 00185A 58E0 7F1C/0DEE       02758 23764                       ACALL LOGDS               Log data set access
1DISK     (DISK4072) (12:42) (15MAR04) Disk Open (DOPEN) Routine                                                            Page   76
0Current Usings:  (IOWA,R6) (*,R7) (CP,R11) (CV,R12)
0Loc    Object Code    Addr1 Addr2  Stmt Lv Lineno    Source Statement           (Hibal 5, Asmedit 3.3)  HLASM R4.0  2004/03/15 12.42
+___    ______ ____    _____ _____  ____ __ ______    ______ _________
0                                  23769                       ¿þþþþþþþþþþþþþþþþþþþþþþþþþÜ
                                   23770                       Ÿ  Main open processing.  Ÿ
                                   23771                       ¾þþþþþþþþþþþþþþþþþþþþþþþþþ»
 001860 5000 6364            00364 23772                       ST    R0,RECSIZE          Save parms
 001864 50F0 6370            00370 23773                       ST    R15,SPACE
 001868 58F0 7F20            0275C 23774                       L     R15,=A(MODLENQ)
 00186C D20B 643C F000 0043C 00000 23775                       MVC   ENQDSN(L'MODLENQ),@R15  set up model enq list
 001872 41F0 6270            00270 23776                       LA    R15,DSNAME
 001876 BEF7 6445            00445 23777                       ST3   R15,ENQDSN+9        Save rname ptr
 00187A 91D2 616C      0016C       23779                       TM    F2,DSNFWRT+DSNFSCR+DSNFALLO+DSNFVALO  test function
 00187E 4770 704A            01886 23780                       BNZ   HAVEENQ             Br if save or scr
 001882 92C3 643E      0043E       23781                       MVI   ENQDSN+2,ENQSHARE   Otherwise, shared is ok
                                   23782
 001886 9120 BD56/4710_00D56       23783              HAVEENQ  IF    CPFNOCAT,TESTCAT    Ignore the catalog
 00188E 9101 616E/4710_0016E       23802                       IF    F4.DSNFFAST,NOCATSCH  Brance if FASTLIB
 001896 41F0 0008            00008 23820                       LA    R15,8               Pre-set bad return code
 00189A D601 BF06 BF06_00F06 00F06 23821                       IF    (DSNWANL,Z),NOTLOC  Null dsname, skip locate
 0018A4 58E0 7F24/0DEE       02760 23840                       WAITOFF X
 0018AA 4110 63B4            003B4 23845                       LA    R1,USCATL           Set to use
 0018AE 41F0 6270/58E0_      00270 23846                       DOWYLCVL DSNAME           CVOL lookup for standard names
 0018B8 0A1A                       23858                       LOCATE (1)                Go get catalog entry
 0018BA 58E0 7F2C/0DEE       02768 23861                       WAITON X
                                   23866
 0018C0 9104 BD58/47E0_00D58       23867                       IF    CPFGEN,BEGIN        Generation data sets ...
 0018C8 D22B BE5C 6270 00E5C 00270 23882  1                      MVC   DSNWADSN,DSNAME     Move in real name
 0018CE D701 BF06 BF06 00F06 00F06 23883  1                      CLEAR DSNWANL             Clear dsn length
 0018D4 4110 BE5C            00E5C 23890  1                      LA    R1,DSNWADSN         R1 -> Start of real dsn
 0018D8 1831                       23891  1                      LR    R3,R1               Save in R3 also
 0018DA 9540 1000/4780_00000       23892  1                      WHILE (@R1,NE,' '),'INCR R1'      Find the end
 0018EA 1B13                       23919  1                      SR    R1,R3               Compute new dsn length
 0018EC 4010 BF06            00F06 23920  1                      STH   R1,DSNWANL          Save new dsn length
 0018F0 D605 698E 698E_0098E 0098E 23921  1                      IF    (CATVOL,Z),'LA R15,8' Fake out a "not found"
 0018FE                            23943                       END
                                   23947
 0018FE 50F0 6378            00378 23948              NOTLOC   ST    R15,RETCOD          Save return code for show cat
 001902 12FF/4780 7138             23949                       IF    (R15,Z),HAVECAT     Data set is cataloged
 001908 50F0 636C            0036C 23966                       ST    R15,ERROR           Store error
 00190C D705 BEB8 BEB8 00EB8 00EB8 23967                       CLEAR DSNCATV             Not found in the catalog
                                   23974
 001912 9104 616C/47E0_0016C       23975                       IF    F2.DSNFCAT,BEGIN    Catalog commands...
 00191A 9108 616C/47E0_0016C       23991  1                      IF    ~F2.DSNFSHOW,TESTCAT  not SHOW CATALOG
 001922 9504 636F      0036F       24010  1                      CLI   ERROR+3,4           Cvol not mounted?
 001926 4780 7CDC            02518 24011  1                      BE    CILLVOL             Yes
 00192A 950C 636F      0036F       24012  1                      CLI   ERROR+3,12          Index not dsname?
 00192E 4780 7138            01974 24013  1                      BE    HAVECAT             Yes
 001932 9514 636F      0036F       24014  1                      CLI   ERROR+3,20
 001936 47D0 7DF2            0262E 24015  1                      BNH   ILLCAT
 00193A 92F3 636D      0036D       24016  1           XCATER     MVI   ERROR+1,C'3'        Error id
 00193E 58E0 7F34/0DEE       02770 24017  1                      ACALL CATER
 001944 47F0 7DFE            0263A 24021  1                      B     ERR
 001948                            24022                       END
                                   24026
 001948 59F0 7F38/4780_      02774 24027                       IF    (R15,EQ,8),TESTCAT  not found, that's ok
 001950 9149 616C/4770_0016C       24047                       IF    F2.DSNFSHOW+DSNFSCR+DSNFPROT,TESTCAT  don't require cat
1DISK     (DISK4072) (12:42) (15MAR04) Disk Open (DOPEN) Routine                                                            Page   77
0Current Usings:  (IOWA,R6) (*,R7) (CP,R11) (CV,R12)
0Loc    Object Code    Addr1 Addr2  Stmt Lv Lineno    Source Statement           (Hibal 5, Asmedit 3.3)  HLASM R4.0  2004/03/15 12.42
+___    ______ ____    _____ _____  ____ __ ______    ______ _________
0001958 9102 616E/4710_0016E       24072                       IF    F4.DSNFRENA,TESTCAT Cat failure OK on RENAME
 001960 9500 616C/4780_0016C       24090                       IF    (F2,Z),TESTCAT      USE, COPY FROM, etc.
                                   24109
 001968 50F0 6364            00364 24110                       ST    R15,RECSIZE         Pass LOCATE RC to caller (in R0)
 00196C 41F0 0064            00064 24111                       LA    R15,RTNCATDV        Expecting problems with catalog
 001970 47F0 7DFE            0263A 24112                       B     ERR
                                   24113
 001974 910C 616C/4710_0016C       24114              HAVECAT  IF    F2.DSNFSHOW*DSNFCAT,CALLVTOC
 00197C D205 BEB8 698E 00EB8 0098E 24137                       MVC   DSNCATV,CATVOL      Save cataloged volume name
 001982 D605 BE90 BE90_00E90 00E90 24138                       IF    (DSNON6,NZ),BEGIN   Volume specified...
 00198C D505 BE90 BEB8_00E90 00EB8 24154  1                      IF    (DSNON6,EQ,DSNCATV),TESTCAT  no conflict, fine
 001996 9149 616C/4770_0016C       24175  1                      IF    F2.DSNFSHOW+DSNFSCR+DSNFPROT,TESTCAT  don't require cat
 00199E 9102 616E/4710_0016E       24200  1                      IF    F4.DSNFRENA,TESTCAT Match not req for RENAME
 0019A6 9500 616C/4780_0016C       24218  1                      IF    (F2,Z),TESTCAT      USE, COPY FROM, etc.
 0019AE 9108 BD56/4710_00D56       24237  1                      IF    CPFRECAT,TESTCAT    recataloging, so it's fine
 0019B6 50F0 6364            00364 24255  1                      ST    R15,RECSIZE         Zero RC means vol conflict
 0019BA 41F0 0064            00064 24256  1                      LA    R15,RTNCATDV        Volume is different from catalog
 0019BE 47F0 7DFE            0263A 24257  1                      B     ERR
 0019C2                            24258                       END
 0019C2 D227 BE90 C4D8 00E90 004D8 24262                       MVC   DSNON,CVBLANKS
 0019C8 D205 BE90 698E 00E90 0098E 24263                       MVC   DSNON6,CATVOL
                                   24264
 0019CE 58E0 7F3C/0DEE       02778 24265              TESTCAT  ACALL GETVOL              Pick a volume, if neccessary
 0019D4 4770 7DFE            0263A 24269                       BNZ   ERR                 Trouble
 0019D8 D205 634E BE90 0034E 00E90 24270              NOCATSCH MVC   DSVID,DSNON6        Move in VOLSER
                                   24271
 0019DE 9504 616C/4770_0016C       24272                       IF    ((F2,EQ,DSNFCAT),AND,CPFUNCAT),'ACALL DCATLG; B ERR'
                                   24314
 0019F8 58E0 7F44/0DEE       02780 24315                       ACALL DOUCBSR             Search for volume
 0019FE 9104 616C/47E0_0016C       24319                       IF    F2.DSNFCAT,BEGIN    CAT/RECAT/UNCAT ...
 001A06 12FF/4780 71E8             24335  1                      IF    (R15,NZ),BEGIN      Volume not found ...
 001A0C 9104 616F/4710_0016F       24349  2                        IF    ~F5.DSNFCUNI,'LA R15,64; B ERR'
 001A1C 71E4/47F0 71E8_01A1C 01A12 24371  2                        ELSE  'B CALLCAT2'        Catalog on unknown vol
 001A24                            24388  1                      END
 001A24 9602 616F      0016F       24392  1                      SET   F5.DSNFCUIG         INDICATE UNIT WAS IGNORED
 001A28 47F0 7CB4            024F0 24398  1                      B     CALLCAT             Catalog on known vol
 001A2C                            24399                       END
                                   24403
 001A2C 12FF/4770 7DFE             24404                       IF    (R15,NZ),ERR        Br if bad volume
                                   24421
 001A32 D207 64C0 6170 004C0 00170 24422                       MVC   DCB+DCBDDNAM-IHADCB(8),DSDD  set dcb ddname
 001A38 5830 6164            00164 24423                       L     R3,VOLENTRY
 USING  VOLDSECT,R3                24424                       WITH  (VOLDSECT,R3),BEGIN
                                   24438  1         C            IF    (~F2.DSNFWRT*DSNFSCR*DSNFALLO,AND,
 001A3C 91D0 616C/4770_0016C              1                            ~F4.DSNFRENA),SYSENQ   Skip if not write req
 001A4C D501 C724 3000 00724 00000 24477  1                      CLC   CVSTYPE,VTYPE       Is volume valid for save
 001A52 4780 723C            01A78 24478  1                      BE    SYSENQ              Branch yes
 001A56 D501 C728 3000 00728 00000 24479  1                      CLC   CVTTYPE,VTYPE       Is it temporary volume type
 001A5C 4780 723C            01A78 24480  1                      BE    SYSENQ              Br if so
 001A60 9180 BF37/4710_00F37       24481  1                      IF    DSNFMAIL,SYSENQ     Let the mail go thru!
 001A68 9120 B3BE/4710_003BE       24499  1                      IF    CPSFSPR,SYSENQ      Sys privs gets it
 001A70 95C7 B3B7/4770_003B7       24517  1                      IF    (CPSGRP,NE,'G'),ILLVOLND  not a good guy.. sorry
                                   24537  1
 001A78 9140 3009      00009       24538  1           SYSENQ     TM    VFLG2,VF2DALLO      De allocate?
1DISK     (DISK4072) (12:42) (15MAR04) Disk Open (DOPEN) Routine                                                            Page   78
0Current Usings:  (VOLDSECT,R3) (IOWA,R6) (*,R7) (CP,R11) (CV,R12)
0Loc    Object Code    Addr1 Addr2  Stmt Lv Lineno    Source Statement           (Hibal 5, Asmedit 3.3)  HLASM R4.0  2004/03/15 12.42
+___    ______ ____    _____ _____  ____ __ ______    ______ _________
0001A7C 4780 7250            01A8C 24539  1                      BZ    CKALLO              Br if not
 001A80 58E0 7F48/0DEE       02784 24540  1                      ACALL VDALLO              Go deallocate
 DROP   VOLDSECT,R3                24544                       END
 001A86 183F                       24552                       LR    R3,R15              Save return code
 001A88 47F0 7D66            025A2 24553                       B     DEQERRV             B  to return error
                                   24554
 001A8C 58E0 7F4C/0DEE       02788 24555              CKALLO   ACALL VALLOCAT            Go allocate/get devtype
 001A92 183F                       24559                       LR    R3,R15              Save return code
 001A94 4770 7D66            025A2 24560                       BNZ   DEQERRV             Br if error
 001A98 9502 616C      0016C       24561                       CLI   F2,DSNFVALO         Allocate call?
 001A9C 4780 7D66            025A2 24562                       BE    DEQERRV             Br if so - all done
                                   24563
 001AA0 9508 616C      0016C       24564                       CLI   F2,DSNFSHOW         Is it show dsnames?
 001AA4 4770 7278            01AB4 24565                       BNE   SYSENQ2             Br if not
 001AA8 58E0 7F50            0278C 24566              CALLVTOC L     RAR,=A(DVTOC)       Show dsnames routine
 001AAC 18D8                       24567                       LR    R13,R8              Restore regs
 001AAE 98F8 D004            00004 24568                       LM    R15,R8,@R13+4
 001AB2 07FE                       24569                       BR    RAR                 Go to show dsnames routine
-001AB4 58E0 7F54/0DEE       02790 24571              SYSENQ2  ACALL DENQTEST            Are we already enqueued on this?
 001ABA 4770 7286/9610_      01AC2 24575                       IF    Z,'SET F5.DSNFNONQ'  Yes, don't enqueue again then
                                   24597
 001AC2 4830 BF06            00F06 24598                       LH    R3,DSNWANL          Get length of dsname
 001AC6 58E0 7F24/0DEE       02760 24599                       WAITOFF X
                                   24604
 001ACC 58E0 7F58/0DEE       02794 24605                       ACALL OPENENQ             Call ENQ routine
 001AD2 12FF/4770 7DD8             24609                       IF    (R15,NZ),LOCKOUT    Dataset in use
                                   24626
 001AD8 4110 6414/43E1_      00414 24627                       RDJFCB (DCB),MF=(E,OPENLIST)
 001AEE 9101 616E/47E0_0016E       24636                       IF    F4.DSNFFAST,'CLEAR R15; B OBTRET'
 001AFC 4110 6390/0A1B       00390 24661              DOOBTAIN OBTAIN DSCB
 001B02 42F0 6355            00355 24665              OBTRET   STC   R15,SCRRET          Save return code for later
 001B06 12FF                       24666                       LTR   R15,R15             Bad obtain?
 001B08 4770 72DC            01B18 24667                       BNZ   OPTCDNE             Br if so
 001B0C 95F4 69ED      009ED       24668                       CLI   DS1OPTCD,X'F4'      Funny options requested?
 001B10 4770 72DC            01B18 24669                       BNE   OPTCDNE             Br if not
 001B14 9220 64CC      004CC       24670                       MVI   DCB+DCBOPTCD-IHADCB,X'20'  set chained sched
 001B18 58E0 7F2C/0DEE       02768 24671              OPTCDNE  WAITON X
 001B1E 58E0 7F5C/0DEE       02798 24676                       ACALL CLRJFCB             Go clean up the jfcb
 001B24 9110 616C/4710_0016C       24680                       IF    F2.DSNFALLO,DOPACC
 001B2C 91C0 616C/4740_0016C       24699                       IF    (F2.DSNFWRT+DSNFSCR,NM),'BAL R2,MUSTXST'
 001B38 9102 616E/47E0_0016E       24726                       IF    F4.DSNFRENA,'BAL R2,MUSTXST'
 001B44 9101 616C/4710_0016C       24747                       IF    F2.DSNFPROT,NOBLDL  Done for set/sho prot
 001B4C 58E0 7F60/0DEE       0279C 24766              DOPACC   VCALL ACCESS              Go check access (in PROT)
 001B52 4770 7CF2            0252E 24770                       BNZ   DEQERR              Branch if no access
                                   24771              *
                                   24772              * now calculate current date and set ccredt in case save or
                                   24773              *        scratch command
                                   24774              *
                                   24775              *  "trkadds1" has the "cchhr" of the fmt1 dscb (from obtain).
 001B56 4820 68C2            008C2 24776                       LH    R2,DVTNUMT          No. of tracks/cyl
 001B5A 4C20 6A24            00A24 24777                       MH    R2,TRKADDS1         (tracks/cyl)*cc
 001B5E 4A20 6A26            00A26 24778                       AH    R2,TRKADDS1+2       Add in "hh"
1DISK     (DISK4072) (12:42) (15MAR04) Disk Open (DOPEN) Routine                                                            Page   79
0Current Usings:  (IOWA,R6) (*,R7) (CP,R11) (CV,R12)
0Loc    Object Code    Addr1 Addr2  Stmt Lv Lineno    Source Statement           (Hibal 5, Asmedit 3.3)  HLASM R4.0  2004/03/15 12.42
+___    ______ ____    _____ _____  ____ __ ______    ______ _________
0001B62 8920 0008            00008 24779                       SLL   R2,8                Make room for record no
 001B66 1F00/4300 6A28             24780                       LC    R0,TRKADDS1+4       Get "r"
 001B6C 1E20                       24785                       ALR   R2,R0               Make rel track addr
                                   24786              *  (note: ttr is relative to disk origin, not vtoc orgin.)
 001B6E BE27 690D            0090D 24787                       ST3   R2,JFCBDSCB         Save ttr for open  (tnx, jsl!)
                                   24789
 001B72 4DE0 77E4            02020 24790                       LCALL TMSET               Set ccredt to vtoc form date
                                   24792
 001B76 9102 616E/4710_0016E       24793                       IF    F4.DSNFRENA,DOREN
 001B7E 91C0 616C      0016C       24811                       TM    F2,DSNFWRT+DSNFSCR  Test function
 001B82 4740 7394            01BD0 24812                       BM    CREATE              Br if save
 001B86 9110 616C/4710_0016C       24813                       IF    F2.DSNFALLO,CREATE
 001B8E 9140 616C      0016C       24832                       TM    F2,DSNFSCR          Test scratch or use
 001B92 4710 7ABC            022F8 24833                       BO    DELT                Br if scratch
 001B96 47F0 781A            02056 24834                       B     OLD
                                   24835
 001B9A 9180 616B      0016B       24836              READKW   TM    F1,DSNFSTD          Is it a standard dsname?
 001B9E 0782                       24837                       BZR   R2                  Br if not
 001BA0 D504 6524 6277_00524 00277 24838                       IF    ('CLC KWRUSER(5),DSNAME+DSNXU',NE),BEGIN
 001BAA D202 6524 6277 00524 00277 24851  1                      MVC   KWRUSER,DSNAME+DSNXU  charged user
 001BB0 D201 6527 6274 00527 00274 24852  1                      MVC   KWRGRP,DSNAME+DSNXG  Charged group
 001BB6 D703 652E 652E 0052E 0052E 24853  1                      XC    KWRSPUSD(L'KWRSPUSD+L'KWRSPMAX),KWRSPUSD
 001BBC 4110 6524/4100_      00524 24854  1           READKW2    KREAD KWR                 Go read it
 001BCA                            24867                       END
 001BCA 9180 6532      00532       24871                       TM    KWRIFL,KWRIFVAL     Was record found?
 001BCE 07F2                       24872                       BR    R2                  Return
1DISK     (DISK4072) (12:42) (15MAR04) Disk Open (DOPEN) Routine                                                            Page   80
0Current Usings:  (IOWA,R6) (*,R7) (CP,R11) (CV,R12)
0Loc    Object Code    Addr1 Addr2  Stmt Lv Lineno    Source Statement           (Hibal 5, Asmedit 3.3)  HLASM R4.0  2004/03/15 12.42
+___    ______ ____    _____ _____  ____ __ ______    ______ _________
0                                  24874              * create data set
                                   24875              *
 001BD0 D501 617A C724 0017A 00724 24876              CREATE   CLC   DSTYPE,CVSTYPE      Controlled volume?
 001BD6 4770 73AE            01BEA 24877                       BNE   CREATEOK            No
 001BDA D202 6524 B3B4 00524 003B4 24878                       MVC   KWRUSER,CPSUSER     Move in user
 001BE0 D201 6527 B3B7 00527 003B7 24879                       MVC   KWRGRP,CPSGRP       And group
 001BE6 4520 7380            01BBC 24880                       BAL   R2,READKW2          Read record
 001BEA                            24881              CREATEOK LABEL
 001BEA 4800 7FA8            027E4 24883                       LH    R0,=AL2(&BUFRMAX)   Maximum block size
 001BEE 9180 BE28/4710_00E28       24884                       IF    ~CPFNEWED,'LH R0,=AL2(6447)'  Old maximum size
 001BFA 4110 68B8            008B8 24905                       LA    R1,DVTAREA          Point to device table
 001BFE 58E0 7F68/0DEE       027A4 24906                       ACALL CALCTRK             Calculate best block size
 001C04 5000 6374            00374 24910                       ST    R0,DEVBLOCK         Use best block size
 001C08 9508 6355      00355       24911                       CLI   SCRRET,8            Was dscb not found?
 001C0C 4780 75E0            01E1C 24912                       BE    CREATE2             Br if yes - not found
 001C10 9500 6355      00355       24913                       CLI   SCRRET,0            Was dscb found?
 001C14 4770 7E2A            02666 24914                       BNE   MUSTXST             Br if error
                                   24915              ***  dscb was found
 001C18 9110 616C/4710_0016C       24916                       IF    F2.DSNFALLO,EXISTS  can't replace for allocate
 001C20 9102 69EA      009EA       24935                       TM    DS1DSORG,DSORGPO    Was old data set a pds?
 001C24 4780 73F4            01C30 24936                       BZ    CREXI1              Br if no
                                   24937              **  existing data set is a pds
 001C28 4520 7E9E            026DA 24938                       BAL   R2,DSISPDS          Go check for member
 001C2C 9620 616C      0016C       24939                       OI    F2,DSNFPDS          Set this is pds operation
 001C30 5800 6364            00364 24940              CREXI1   L     R0,RECSIZE          Get orig record size flag
 001C34 1200                       24941                       LTR   R0,R0               Was a format given
 001C36 4740 746A            01CA6 24942                       BM    CREXI2              No, go decide from dscb
 001C3A 4780 744E            01C8A 24943                       BE    CREXEDT             Yes, it was edit
                                   24944              * lrecl was given
 001C3E 9290 6344      00344       24945              CREXLR   MVI   RRECFM,FIXBLOCK     Set fixed blocked recfm
 001C42 58F0 BD64            00D64 24946                       L     R15,CPNREC          Get records/block count
 001C46 12FF                       24947                       LTR   R15,R15             Was it given
 001C48 4770 7440            01C7C 24948                       BNZ   CREXLR4             Yes, go use it
 001C4C 4900 69F0            009F0 24949                       CH    R0,DS1LRECL         Is lrecl same as specified
 001C50 4770 7434            01C70 24950                       BNE   CREXLR2             No, use default blocksize
 001C54 D500 69EC 6344 009EC 00344 24951                       CLC   DS1RECFM,RRECFM     Do recfms agree
 001C5A 4770 7434            01C70 24952                       BNE   CREXLR2             No, use default blocksize
 001C5E 48F0 69EE            009EE 24953              CREXLR1  LH    R15,DS1BLKL         Get blocksize from dscb
 001C62 12FF                       24954                       LTR   R15,R15             Is it positive
 001C64 47D0 7434            01C70 24955                       BNP   CREXLR2             No, use default blocksize
 001C68 49F0 7FA8            027E4 24956                       CH    R15,=AL2(&BUFRMAX)  Is it within allowed size?
 001C6C 47D0 7438            01C74 24957                       BNH   CREXLR3             Yes, use it
 001C70 58F0 6374            00374 24958              CREXLR2  L     R15,DEVBLOCK        Get default blocksize
 001C74 1BEE                       24959              CREXLR3  CLEAR R14                 Set for divide
 001C76 1DE0                       24964                       DR    R14,R0              Get records/block
 001C78 50F0 BD64            00D64 24965                       ST    R15,CPNREC          Save value
 001C7C 1CE0                       24966              CREXLR4  MR    R14,R0              Recalculate actual blocksize
 001C7E 5000 BD9C            00D9C 24967                       ST    R0,CPLRCL           Make sure cplrcl set
 001C82 4DE0 7EC8            02704 24968                       LCALL CHKSQFLD            Check seqfld bounds
 001C86 47F0 74C2            01CFE 24970                       B     CREXTST             Go test result
                                   24971
 001C8A 91C0 69EC      009EC       24972              CREXEDT  TM    DS1RECFM,UNDEFIND   Is data set edit format
 001C8E 47E0 745A            01C96 24973                       BNO   CREXED              Br no to force edit format
 001C92 47F0 747A            01CB6 24974                       B     CREXI20             Go use existing blksize
1DISK     (DISK4072) (12:42) (15MAR04) Disk Open (DOPEN) Routine                                                            Page   81
0Current Usings:  (IOWA,R6) (*,R7) (CP,R11) (CV,R12)
0Loc    Object Code    Addr1 Addr2  Stmt Lv Lineno    Source Statement           (Hibal 5, Asmedit 3.3)  HLASM R4.0  2004/03/15 12.42
+___    ______ ____    _____ _____  ____ __ ______    ______ _________
0                                  24975
 001C96 58F0 6374            00374 24976              CREXED   L     R15,DEVBLOCK        Use default blksize for edit
 001C9A 180F                       24977              CREXED1  LR    R0,R15              Set r0 to same size
 001C9C D703 BD9C BD9C 00D9C 00D9C 24978                       XC    CPLRCL,CPLRCL       Make sure edit is saved
 001CA2 47F0 74C2            01CFE 24979                       B     CREXTST             Now go test result
                                   24980
 001CA6 91C0 69EC      009EC       24981              CREXI2   TM    DS1RECFM,UNDEFIND   Is data set edit format
 001CAA 47E0 74A0            01CDC 24982                       BNO   CREXI3              Br no to check for fixed
 001CAE 9110 BD54      00D54       24983                       TM    CPLFLG5,CPFFOPT     Was a numbered option given
 001CB2 4710 7498            01CD4 24984                       BO    CREXI22             Yes, make data set fixed
 001CB6 48F0 69EE            009EE 24985              CREXI20  LH    R15,DS1BLKL         Get existing blocksize
 001CBA 12FF                       24986                       LTR   R15,R15             Is it positive
 001CBC 47D0 745A            01C96 24987                       BNP   CREXED              No, use default
 001CC0 49F0 7FA8            027E4 24988                       CH    R15,=AL2(&BUFRMAX)  Is it within allowed size?
 001CC4 47D0 745E            01C9A 24989                       BNH   CREXED1             Yes, use this blocksize
 001CC8 47F0 745A            01C96 24990                       B     CREXED              No, use default blocksize
                                   24991
 001CCC 9110 BD54      00D54       24992              CREXI21  TM    CPLFLG5,CPFFOPT     Was a number option given
 001CD0 47E0 745A            01C96 24993                       BNO   CREXED              No, make data set edit
 001CD4 4100 0050            00050 24994              CREXI22  LA    R0,80               Use lrecl of 80
 001CD8 47F0 7402            01C3E 24995                       B     CREXLR              Go make it fixed
                                   24996
 001CDC 9180 69EC      009EC       24997              CREXI3   TM    DS1RECFM,RECFMF     Is it fixed recfm
 001CE0 47E0 7490            01CCC 24998                       BNO   CREXI21             No, make edit unless num opt
 001CE4 9290 6344      00344       24999                       MVI   RRECFM,FIXBLOCK     Set fixed blocked recfm
 001CE8 4800 69F0            009F0 25000                       LH    R0,DS1LRECL         Get lrecl value
 001CEC 1200                       25001                       LTR   R0,R0               Is it positive
 001CEE 47D0 7498            01CD4 25002                       BNP   CREXI22             No, use 80
 001CF2 4900 7FAC            027E8 25003                       CH    R0,=Y(&LINESZ)      Is it within bounds?
 001CF6 47D0 7422            01C5E 25004                       BNH   CREXLR1             Yes, use it
 001CFA 47F0 7498            01CD4 25005                       B     CREXI22             No, use 80
                                   25006
 001CFE 50F0 6364            00364 25007              CREXTST  ST    R15,RECSIZE         Save blocksize
 001D02 5000 6368            00368 25008                       ST    R0,LRECSIZE         Save lrecl
 001D06 9180 6344/47E0_00344       25009                       IF    (RRECFM.RECFMF,AND,~RRECFM.UNDEFIND),BEGIN  recfm=f...
 001D16 9610 6344      00344       25040  1                      SET   RRECFM.BLOCKED      Set blocked
 001D1A 190F/4770 74E8_            25047  1                      IF    (R0,EQ,R15),'CLEAR RRECFM.BLOCKED'  set recfm=f
 001D24 9180 69EC/47E0_009EC       25075  1                      IF    (DS1RECFM.RECFMF,AND,~DS1RECFM.UNDEFIND),BEGIN  ...
 001D34 9110 69EC/47E0_009EC       25106  2                        IF    ~DS1RECFM.BLOCKED,EXIT  original is not blocked, scram
 001D3C 9610 6344      00344       25125  2                        SET   RRECFM.BLOCKED      If orig is blocked, keep it as "fb"
 001D40                            25132  1                      END
 001D40                            25136                       END
 001D40 9104 616D      0016D       25140                       TM    F3,DSNFCHT          Is it ok to change type
 001D44 4710 7536            01D72 25141                       BO    CREXTST1            Yes, go on
 001D48 9500 69EC      009EC       25142                       CLI   DS1RECFM,0          Does library have valid recfm
 001D4C 4780 7536            01D72 25143                       BE    CREXTST1            Br if not to set valid
 001D50 D500 69EC 6344 009EC 00344 25144                       CLC   DS1RECFM,RRECFM     Do recfms agree
 001D56 4770 7D82            025BE 25145                       BNE   TYPECHNG            No, go ask user
 001D5A 49F0 69EE            009EE 25146                       CH    R15,DS1BLKL         Does blksize agree
 001D5E 4770 7D82            025BE 25147                       BNE   TYPECHNG            No, go ask user
 001D62 95C0 69EC/4780_009EC       25148                       IF    (DS1RECFM,EQ,UNDEFIND),CREXTST1  don't chk recfm if u
 001D6A 4900 69F0            009F0 25169                       CH    R0,DS1LRECL         Does lrecl agree
 001D6E 4770 7D82            025BE 25170                       BNE   TYPECHNG            No, go ask user
 001D72 40F0 64D6            004D6 25171              CREXTST1 STH   R15,DCB+DCBBLKSI-IHADCB  put blksize in dcb
1DISK     (DISK4072) (12:42) (15MAR04) Disk Open (DOPEN) Routine                                                            Page   82
0Current Usings:  (IOWA,R6) (*,R7) (CP,R11) (CV,R12)
0Loc    Object Code    Addr1 Addr2  Stmt Lv Lineno    Source Statement           (Hibal 5, Asmedit 3.3)  HLASM R4.0  2004/03/15 12.42
+___    ______ ____    _____ _____  ____ __ ______    ______ _________
0001D76 4000 64EA            004EA 25172                       STH   R0,DCB+DCBLRECL-IHADCB  put lrecl in dcb
 001D7A 9120 616C      0016C       25173                       TM    F2,DSNFPDS          Is this pds processing
 001D7E 47E0 754A            01D86 25174                       BNO   CRSEQ               No, continue for sequential
 001D82 47F0 7884            020C0 25175                       B     OLDSTUP             Now go open pds data set
                                   25176              *
                                   25177              **  existing data set is not a pds
 001D86 D501 617A C724 0017A 00724 25178              CRSEQ    CLC   DSTYPE,CVSTYPE      Is it controlled vol save
 001D8C 4770 755C            01D98 25179                       BNE   CRSEQTMP            Br no, no space acctng
 001D90 4520 735E            01B9A 25180                       BAL   R2,READKW           Read in password record
 001D94 4520 7EB6            026F2 25181                       BAL   R2,CHKSPOK          Test space avail for user
 001D98 9140 BD51      00D51       25182              CRSEQTMP TM    CPLFLG2,CPFSCRTC    Can we scratch it?
 001D9C 4780 7DC0            025FC 25183                       BZ    EXISTS              Br if no
 001DA0 91BF 62F8      002F8       25184                       TM    MEMBER,X'BF'        Was a member specified?
 001DA4 4770 7DB0            025EC 25185                       BNZ   NOTPDS              yes, can't replace
 001DA8 58F0 6364            00364 25186                       L     R15,RECSIZE         Set R15 to actual blksize
 001DAC 58E0 6370            00370 25187                       L     R14,SPACE           Get address of space routine
 001DB0 0DEE                       25188                       BASR  R14,R14             Go calc size of save
 001DB2 D701 62FC 62FC 002FC 002FC 25189                       XC    MEMBER+4(2),MEMBER+4  make space adj. zero
                                   25190              *
                                   25191              *  Check to see if data set can be reused instead of scratching
                                   25192              *        and re-allocating.
                                   25193              *
                                   25194              *DONT*   CLI   DS1NOEPV,1          Is it a single extent ds
                                   25195              *DONT*   BNE   CRSEQSCR            Br no, do scratch
 001DB8 9500 69F2      009F2       25196                       CLI   DS1KEYL,0           Does ds have key
 001DBC 4770 75D2            01E0E 25197                       BNE   CRSEQSCR            Br yes, do scratch
 001DC0 D701 6ADA 6ADA 00ADA 00ADA 25198                       XC    SPTRK,SPTRK         Zero for size calc
 001DC6 58E0 7F6C/0DEE       027A8 25199                       ACALL DVTOC2              Go calc size of ds
 001DCC 5800 6364            00364 25203                       L     R0,RECSIZE          Get blksize for this save
 001DD0 4110 68B8            008B8 25204                       LA    R1,DVTAREA          Point to device table
 001DD4 58E0 7F68/0DEE       027A4 25205                       ACALL CALCTRK             Go calculate blocks/trk
 001DDA 48F0 BF96            00F96 25209                       LH    R15,DSAVBLK         Get block count for this save
 001DDE 1BEE                       25210                       SR    R14,R14             Set for divide
 001DE0 1DE1                       25211                       DR    R14,R1              Divide by blocks/trk
 001DE2 12EE                       25212                       LTR   R14,R14             Is there a remainder
 001DE4 4780 75B0            01DEC 25213                       BZ    *+8                 Br if no
 001DE8 41F0 F001            00001 25214                       LA    R15,@R15+1          Yes, up trk count by 1
 001DEC 49F0 6ADA            00ADA 25215                       CH    R15,SPTRK           Is new ds same size
 001DF0 4770 75D2            01E0E 25216                       BNE   CRSEQSCR            Br no, do scratch
 001DF4 D502 69D0 6269 009D0 00269 25217                       CLC   DS1EXPDT,CCREDT+1   Is old ds date protected
 001DFA 4720 75D2            01E0E 25218                       BH    CRSEQSCR            Br yes, do scratch
 001DFE D22B 68D8 6270 008D8 00270 25219                       MVC   JFCBDSNM,DSNAME     Move dsname into jfcb
 001E04 13FF                       25220                       LCR   R15,R15             Set neg space as if scratch
 001E06 40F0 62FC            002FC 25221                       STH   R15,MEMBER+4        And put in space adj. field
 001E0A 47F0 77CC            02008 25222                       B     OK1                 Now go set exit
                                   25223
 001E0E D702 69D0 69D0 009D0 009D0 25224              CRSEQSCR XC    DS1EXPDT,DS1EXPDT   Force zero expiration date
 001E14 4520 7ADA            02316 25225                       BAL   R2,DELTALL          Go scratch it
 001E18 47F0 7724            01F60 25226                       B     CREATE3
-                                  25228              **  dscb not found - allocate space
 001E1C 9110 616C/4710_0016C       25229              CREATE2  IF    F2.DSNFALLO,CREA1
 001E24 9540 62F8      002F8       25249                       CLI   MEMBER,C' '         Was a member specified
1DISK     (DISK4072) (12:42) (15MAR04) Disk Open (DOPEN) Routine                                                            Page   83
0Current Usings:  (IOWA,R6) (*,R7) (CP,R11) (CV,R12)
0Loc    Object Code    Addr1 Addr2  Stmt Lv Lineno    Source Statement           (Hibal 5, Asmedit 3.3)  HLASM R4.0  2004/03/15 12.42
+___    ______ ____    _____ _____  ____ __ ______    ______ _________
0001E28 4780 75F8            01E34 25250                       BE    CREATE2M            Branch no
 001E2C 9500 62F8      002F8       25251                       CLI   MEMBER,0            Was it explicit null member
 001E30 4770 7DB8            025F4 25252                       BNE   NOSUCH              br no, don't allocate seq ds
 001E34 9120 616B      0016B       25253              CREATE2M TM    F1,DSNFWLIB         Is it a wylbur library?
 001E38 4710 7DB8            025F4 25254                       BO    NOSUCH              Yes - pds not found on vol
 001E3C 5800 6364            00364 25255              CREA1    L     R0,RECSIZE          Get recsize
 001E40 1200                       25256                       LTR   R0,R0               Did user specify format
 001E42 4740 7640            01E7C 25257                       BM    CREDITST            No, make it edit if no num
 001E46 4780 765A            01E96 25258                       BZ    CREATE2B            Make edit if edit spec
 001E4A 58F0 BD64            00D64 25259              CRELREC  L     R15,CPNREC          Create fixed -- get nrec
 001E4E 12FF                       25260                       LTR   R15,R15             Was it given
 001E50 4720 7624            01E60 25261                       BP    CRELREC1            Yes, use it
 001E54 58F0 6374            00374 25262                       L     R15,DEVBLOCK        No, get default
 001E58 1BEE                       25263                       SR    RAR,RAR
 001E5A 1DE0                       25264                       DR    RAR,R0              Get records/block
 001E5C 50F0 BD64            00D64 25265                       ST    R15,CPNREC          Set nrec
 001E60 1CE0                       25266              CRELREC1 MR    R14,R0              Calculate actual blksize
 001E62 9290 6344      00344       25267                       MVI   RRECFM,FIXBLOCK     Set fixed-blocked recfm
 001E66 190F/4770 7634_            25268                       IF    (R0,EQ,R15),'MVI RRECFM,RECFMF'  set fixed if lrecl=blk
 001E70 5000 BD9C            00D9C 25289                       ST    R0,CPLRCL           Make sure lrecl set
 001E74 4DE0 7EC8            02704 25290                       LCALL CHKSQFLD            Check seqfld bounds
 001E78 47F0 7660            01E9C 25292                       B     CREATE2A            Go on
                                   25293
 001E7C 9110 BD54      00D54       25294              CREDITST TM    CPLFLG5,CPFFOPT     Was a numbered option given
 001E80 4100 0050            00050 25295                       LA    R0,80               Set r0 for card
 001E84 4710 760E            01E4A 25296                       BO    CRELREC             Yes, go make fixed
 001E88 9110 616C/4710_0016C       25297                       IF    F2.DSNFALLO,CREATEJ  allo of pds
 001E90 1B00                       25316                       CLEAR R0                  No, set for edit
 001E92 5000 BD9C            00D9C 25320                       ST    R0,CPLRCL           Set cplrcl for edit
 001E96 58F0 6374            00374 25321              CREATE2B L     R15,DEVBLOCK        Get blocksize for edit
 001E9A 180F                       25322                       LR    R0,R15              Also use for lrecl
 001E9C 5000 6368            00368 25323              CREATE2A ST    R0,LRECSIZE         Save lrecl
 001EA0 50F0 6364            00364 25324                       ST    R15,RECSIZE         Save blocksize
 001EA4 D501 617A C724 0017A 00724 25325              CREATEJ  CLC   DSTYPE,CVSTYPE      Is it controlled vol save
 001EAA 4770 767A            01EB6 25326                       BNE   CREATTMP            Br no, no space acctng
 001EAE 4520 735E            01B9A 25327                       BAL   R2,READKW           Read in password record
 001EB2 4520 7EB6            026F2 25328                       BAL   R2,CHKSPOK          Test space avail for user
 001EB6 D701 62FC 62FC 002FC 002FC 25329              CREATTMP XC    MEMBER+4(2),MEMBER+4  make space adj. zero
 001EBC 94BF BD51      00D51       25330                       NI    CPLFLG2,255-CPFSCRTC  indicate scratch not done
                                   25331
 001EC0 9110 616C/47E0_0016C       25332                       IF    F2.DSNFALLO,BEGIN   Allocate (only) request...
 001EC8 9202 693A      0093A       25348  1                      MVI   JFCDSORG,DSORGPO    Pds
 001ECC 9280 6973      00973       25349  1                      MVI   JFCBCTRI,JFCBTRK    Allocate by track
 001ED0 48F0 BF3C/12FF       00F3C 25350  1                      LTH   R15,DSNNTRK         No. of tracks to allocate
 001ED6 12FF/47B0 76B6             25354  1                      IF    (R15,NEG),BEGIN     Pick a default...
 001EDC 41F0 000A            0000A 25368  2                        LA    R15,10              Assume 10 tracks
 001EE0 D601 BF3E BF3E_00F3E 00F3E 25369  2                        IF    (DSNNBLK,Z),'LA R15,1'  1 track if sequential
 001EEE 40F0 BF3C            00F3C 25391  2                        STH   R15,DSNNTRK         Save no. of tracks
 001EF2                            25392  1                      END
 001EF2 BEF7 6970            00970 25396  1                      ST3   R15,JFCBPQTY        Primary
 001EF6 41F0 F001            00001 25398  1                      LA    R15,@R15+1
 001EFA 88F0 0001            00001 25399  1                      SRL   R15,1
 001EFE BEF7 6974            00974 25400  1                      ST3   R15,JFCBSQTY        Secondary (1/2 primary)
 001F02 4800 BF3E/1200       00F3E 25402  1                      LTH   R0,DSNNBLK          No. of dir blocks wanted
1DISK     (DISK4072) (12:42) (15MAR04) Disk Open (DOPEN) Routine                                                            Page   84
0Current Usings:  (IOWA,R6) (*,R7) (CP,R11) (CV,R12)
0Loc    Object Code    Addr1 Addr2  Stmt Lv Lineno    Source Statement           (Hibal 5, Asmedit 3.3)  HLASM R4.0  2004/03/15 12.42
+___    ______ ____    _____ _____  ____ __ ______    ______ _________
0001F08 4770 76D4/9240_      01F10 25406  1                      IF    Z,'MVI JFCDSORG,DSORGPS'  zero means seq data set
 001F10 1200/47B0 76F8             25423  1                      IF    (R0,NEG),BEGIN      Figure out default...
 001F16 1F00/BF07 6970             25437  2                        L3    R0,JFCBPQTY         No. of tracks
 001F1C 5900 7F70/47B0_      027AC 25443  2                        FLOOR R0,32               At least 32 dir blocks
 001F28 5900 7F74/47D0_      027B0 25462  2                        CEIL  R0,320              Be reasonable
 001F34                            25481  1                      END
 001F34 9200 693C/D701_0093C       25485  1                      CLEAR JFCRECFM,JFCLRECL,JFCBLKSI   zot ds type
 001F44 BE07 6978            00978 25502  1                      ST3   R0,JFCBDQTY         No. of dirblks
 001F48 5800 6364/1200       00364 25504  1                      LT    R0,RECSIZE          Format explicit?
 001F4E 4740 775C            01F98 25508  1                      BM    CREATEAJ            No, keep as undefined
 001F52 47F0 774A            01F86 25509  1                      B     CREATEA             Join common
 001F56                            25510                       END
                                   25514
 001F56 58F0 6364            00364 25515                       L     R15,RECSIZE         Set r15 to actual blksize
 001F5A 58E0 6370            00370 25516                       L     RAR,SPACE           Get address of space routine
 001F5E 0DEE                       25517                       BASR  RAR,RAR             Go calc size of save
 001F60 48F0 BF96            00F96 25518              CREATE3  LH    R15,DSAVBLK         Get count calc by space rout
 001F64 BEF7 6970            00970 25519                       ST3   R15,JFCBPQTY        Set primary quantity
 001F68 41F0 F001            00001 25521                       LA    R15,@R15+1
 001F6C 88F0 0001            00001 25522                       SRL   R15,1               Secondary is 1/2 primary
 001F70 BEF7 6974            00974 25523                       ST3   R15,JFCBSQTY        Set secondary quantity
 001F74 96C0 692E      0092E       25525                       SET   JFCBIND1.JFCRLSE    Release any extra space
 001F78 9240 693A      0093A       25532                       MVI   JFCDSORG,DSORGPS    Move in ps dsorg
 001F7C 9240 6973      00973       25533                       MVI   JFCBCTRI,JFCBAVR    Allocate by average block
 001F80 D202 6983 6365 00983 00365 25534                       MVC   JFCBDRLH,RECSIZE+1  Move in avg block size
                                   25535
 001F86 D200 693C 6344 0093C 00344 25536              CREATEA  MVC   JFCRECFM,RRECFM     Move in recfm
 001F8C D201 6940 636A 00940 0036A 25537                       MVC   JFCLRECL,LRECSIZE+2 Move in lrecl
 001F92 D201 693E 6366 0093E 00366 25538                       MVC   JFCBLKSI,RECSIZE+2  Move in blocksize
 001F98 D22B 68D8 6270 008D8 00270 25539              CREATEAJ MVC   JFCBDSNM,DSNAME     Move in dsname
 001F9E D202 6928 6269 00928 00269 25540                       MVC   JFCBCRDT,CCREDT+1   Move in creation date
 001FA4 D702 692B 692B 0092B 0092B 25541                       CLEAR JFCBXPDT            No expiration
 001FAA 41E0 7798/50E0_      01FD4 25548                       WAITOFF X,ABEND=ALLOCABE
                                   25561              ***  allocate svc linkage
 001FB8 4100 68D8            008D8 25562                       LA    R0,JFCB             Point to jfcb
 001FBC 4110 6160            00160 25563                       LA    R1,UCB              Point to ucb
 001FC0 0A20                       25564                       SVC   32                  Allocate data set
 001FC2 58E0 7F2C/0DEE       02768 25565                       WAITON X
 001FC8 D702 69D0 69D0 009D0 009D0 25570                       CLEAR DS1EXPDT            Zot "old" expiration date
                                   25577
 001FCE 19FF/4780 779C             25578                       IF    (R15,NE,R15),BEGIN  Never fall thru--label br...
 001FD4 41F0 00FE            000FE 25593  1           ALLOCABE   LA    R15,254             0xfe error code (abend)
 001FD8                            25594                       END
                                   25598
 001FD8 12FF/4780 77CC             25599                       IF    (R15,Z),OK1         No errors, good
 001FDE 50F0 636C            0036C 25616                       ST    R15,ERROR           Save for cater
 001FE2 92F1 636D      0036D       25617                       MVI   ERROR+1,C'1'        Put in code
 001FE6 9504 636F      0036F       25618                       CLI   ERROR+3,4           Analyze error
 001FEA 4780 7DC0            025FC 25619                       BE    EXISTS              Sorry
 001FEE 9508 636F      0036F       25620                       CLI   ERROR+3,8           Is there room
 001FF2 4780 7DC8            02604 25621                       BE    NOROOM              No
 001FF6 9514 636F      0036F       25622                       CLI   ERROR+3,X'14'       Is there room
 001FFA 4780 7DC8            02604 25623                       BE    NOROOM              No
 001FFE 58E0 7F34/0DEE       02770 25624                       ACALL CATER
1DISK     (DISK4072) (12:42) (15MAR04) Disk Open (DOPEN) Routine                                                            Page   85
0Current Usings:  (IOWA,R6) (*,R7) (CP,R11) (CV,R12)
0Loc    Object Code    Addr1 Addr2  Stmt Lv Lineno    Source Statement           (Hibal 5, Asmedit 3.3)  HLASM R4.0  2004/03/15 12.42
+___    ______ ____    _____ _____  ____ __ ______    ______ _________
0002004 47F0 7CF2            0252E 25628                       B     DEQERR
 002008 9180 6532      00532       25629              OK1      TM    KWRIFL,KWRIFVAL     Is there a password record
 00200C 4780 78AA            020E6 25630                       BZ    OLDOPEN             no, don't intercept for space
 002010 58F0 7F78            027B4 25631                       L     R15,=A(DCBEXIT)     ADDR OF DCB EXIT ROUTINE
 002014 50F0 618C            0018C 25632                       ST    R15,EXLST           Store it in exit list
 002018 9205 618C      0018C       25633                       MVI   EXLST,X'05'         With the appropriate code
 00201C 47F0 78AA            020E6 25634                       B     OLDOPEN             Finish processing like old ds
                                   25635              *
                                   25636              * calculate date in form needed by data set label
 002020 4110 0002/0A0B       00002 25637              TMSET    TIME
 002026 1B00                       25641                       CLEAR R0
 002028 5000 6268            00268 25645                       ST    R0,CCREDT           Setup for cvb
 00202C 8D00 0010            00010 25646                       SLDL  R0,16               Year to r0
 002030 8810 0010            00010 25647                       SRL   R1,16               Day back
 002034 5010 626C            0026C 25648                       ST    R1,CCREDT+4         Store day
 002038 8910 001C            0001C 25649                       SLL   R1,28               Sign to high end
 00203C 8D00 0004            00004 25650                       SLDL  R0,4                Sign on the year too
 002040 4F10 6268            00268 25651                       CVB   R1,CCREDT           Day in binary
 002044 5000 626C            0026C 25652                       ST    R0,CCREDT+4         Store year for cvb
 002048 4F00 6268            00268 25653                       CVB   R0,CCREDT           Year to binary
 00204C 4010 626A            0026A 25654                       STH   R1,CCREDT+2         Store appropriately
 002050 4000 6268            00268 25655                       STH   R0,CCREDT
 002054 07FE                       25656                       BR    RAR                 Return
1DISK     (DISK4072) (12:42) (15MAR04) Disk Open (DOPEN) Routine                                                            Page   86
0Current Usings:  (IOWA,R6) (*,R7) (CP,R11) (CV,R12)
0Loc    Object Code    Addr1 Addr2  Stmt Lv Lineno    Source Statement           (Hibal 5, Asmedit 3.3)  HLASM R4.0  2004/03/15 12.42
+___    ______ ____    _____ _____  ____ __ ______    ______ _________
0                                  25658              * old data set processing
                                   25659              *
 002056 9108 616C      0016C       25660              OLD      TM    F2,DSNFSHOW         Is command show?
 00205A 4710 787E            020BA 25661                       BO    OLDEDIT             Br if yes - no blksize chk
 00205E 4800 69EE            009EE 25662                       LH    R0,DS1BLKL          Get block size
 002062 5500 7F7C            027B8 25663                       CL    R0,=A(&BUFRMAX)     Is it under maximum?
 002066 4720 7DE6            02622 25664                       BH    ILLBLKSZ            Br if too big
 00206A 5800 6364/1200       00364 25665                       LT    R0,RECSIZE          Get recsize
 002070 47B0 7884            020C0 25669                       BNM   OLDSTUP             Edit or lrecl
                                   25670              **  otherwise use the dscb information
 002074 91C0 69EC      009EC       25671                       TM    DS1RECFM,UNDEFIND   Is it recfm=u?
 002078 4710 787E            020BA 25672                       BO    OLDEDIT             Assume edit for recfm=u
 00207C 9180 69EC      009EC       25673                       TM    DS1RECFM,RECFMF     Is it recfm=f(x)?
 002080 4710 7858            02094 25674                       BO    USELRECL            Use lrecl if so
 002084 9140 69EC      009EC       25675                       TM    DS1RECFM,RECFMV     Is it recfm=v(x)?
 002088 4780 7DD0            0260C 25676                       BZ    ILLORG              Error if not
                                   25677              * recfm=v
 00208C 9108 69EC      009EC       25678                       TM    DS1RECFM,SPANNED    Spanned records?
 002090 4710 7DD0            0260C 25679                       BO    ILLORG              br if yes - can't hack them
 002094 4800 69F0            009F0 25680              USELRECL LH    R0,DS1LRECL         Get dscb lrecl
 002098 1200                       25681                       LTR   R0,R0               Is it zero
 00209A 4770 786C            020A8 25682                       BNZ   HAVRECSZ            Br if not
 00209E 4800 69EE            009EE 25683              USEBS    LH    R0,DS1BLKL          Get blocksize
 0020A2 1200                       25684                       LTR   R0,R0               Is it zero?
 0020A4 4780 7DE6            02622 25685                       BZ    ILLBLKSZ            Br if yes - invalid
 0020A8 9140 69EC      009EC       25686              HAVRECSZ TM    DS1RECFM,RECFMV     Is it variable?
 0020AC 4780 7876            020B2 25687                       BZ    *+6                 Br if no
 0020B0 1100                       25688                       LNR   R0,R0               Indicate variable
 0020B2 5000 6364            00364 25689                       ST    R0,RECSIZE          Store result
 0020B6 47F0 7884            020C0 25690                       B     OLDSTUP             Go on
                                   25691
 0020BA D703 6364 6364 00364 00364 25692              OLDEDIT  CLEAR RECSIZE             Indicate edit format
 0020C0                            25700              OLDSTUP  LABEL ,  ***** enter here From save/scr memb also  **
 0020C0 D22B 68D8 6270 008D8 00270 25702                       MVC   JFCBDSNM,DSNAME     Move in dsname
 0020C6 9128 616C      0016C       25703                       TM    F2,DSNFSHOW+DSNFPDS Is command show directory?
 0020CA 4710 726C            01AA8 25704                       BO    CALLVTOC            Br if yes
 0020CE 95FF 62F8      002F8       25705                       CLI   MEMBER,X'FF'        To be treated as ps?
 0020D2 4780 78AA            020E6 25706                       BE    OLDOPEN             Br if yes
 0020D6 9102 69EA      009EA       25707                       TM    DS1DSORG,DSORGPO    Is it pds?
 0020DA 4780 78AA            020E6 25708                       BZ    OLDOPEN             Br if no
 0020DE 9202 64B2      004B2       25709                       MVI   DCB+DCBDSORG-IHADCB,DSORGPO  set dcb for po
 0020E2 9620 616C      0016C       25710                       OI    F2,DSNFPDS          Indicate pds processing
 0020E6                            25711              OLDOPEN  LABEL ,  ***** enter here From create routine also **
 0020E6 D200 64BC 6344 004BC 00344 25713                       MVC   DCB+DCBRECFM-IHADCB(1),RRECFM  move in req recfm
 0020EC 9110 616C/47E0_0016C       25714                       IF    F2.DSNFALLO,BEGIN   Allocate...
 0020F4 D200 64B2 693A 004B2 0093A 25730  1                      MVC   DCB+DCBDSORG-IHADCB(1),JFCDSORG  get good dsorg
 0020FA 9500 693C/4780_0093C       25731  1                      IF    (JFCRECFM,Z),NOBLDL  format is ???, don't open
 002102                            25750                       END
 002102 41E0 7DB8/50E0_      025F4 25754                       WAITOFF X,ABEND=NOSUCH
 002110 9180 616C      0016C       25767                       TM    F2,DSNFWRT          Input or output?
 002114 4710 78F2            0212E 25768                       BO    OPENOUT             Br if output
 002118 9110 616C/4710_0016C       25769                       IF    F2.DSNFALLO,OPENOUT   now open for output to upd dscb
1DISK     (DISK4072) (12:42) (15MAR04) Disk Open (DOPEN) Routine                                                            Page   87
0Current Usings:  (IOWA,R6) (*,R7) (CP,R11) (CV,R12)
0Loc    Object Code    Addr1 Addr2  Stmt Lv Lineno    Source Statement           (Hibal 5, Asmedit 3.3)  HLASM R4.0  2004/03/15 12.42
+___    ______ ____    _____ _____  ____ __ ______    ______ _________
0                                  25789              *** open data set for input
 002120 4110 6414/94F0_      00414 25790                       OPEN  (,INPUT),TYPE=J,MF=(E,OPENLIST)
 00212A 47F0 7916            02152 25795                       B     OPEN1
-                                  25797              ***  open data set for output
 00212E 9102 616D      0016D       25798              OPENOUT  TM    F3,DSNFEXP          Need check for expdt
 002132 4710 7904            02140 25799                       BO    OPENOUT1            No, go do open
 002136 D502 69D0 6269 009D0 00269 25800                       CLC   DS1EXPDT,CCREDT+1   Is data set date protected
 00213C 4720 7D88            025C4 25801                       BH    EXPDATE             Yes, abort the operation
 002140 4110 6414/94F0_      00414 25802              OPENOUT1 OPEN  (,OUTPUT),TYPE=J,MF=(E,OPENLIST)
 00214E 92C0 64BC      004BC       25808                       MVI   DCB+(DCBRECFM-IHADCB),UNDEFIND
 002152 58E0 7F2C/0DEE_      02768 25809              OPEN1    WAITON X,CLEAR
 00215E 9110 64C8      004C8       25821                       TM    DCB+(DCBOFLGS-IHADCB),X'10'  is it opened ok
 002162 4780 7A4A            02286 25822                       BZ    OPNER               No
 002166 9110 616C/4710_0016C       25823                       IF    F2.DSNFALLO,NOBLDL  All done for allocate
 00216E 9102 616E/4710_0016E       25842                       IF    F4.DSNFRENA,RENMBR  No BLDL for rename member
 002176 9102 64B2      004B2       25860                       TM    DCB+DCBDSORG-IHADCB,DSORGPO  pds?
 00217A 4780 7A32            0226E 25861                       BZ    NOBLDL              Br if no
 00217E 58E0 7F24/0DEE       02760 25862                       WAITOFF X
 002184 4110 6498/4100_      00498 25867                       BLDL  DCB,BLDL
 002194 58E0 7F2C/0DEE       02768 25874                       WAITON X
 00219A 50F0 636C            0036C 25879                       ST    R15,ERROR           Store return code
 00219E 9508 636F      0036F       25880                       CLI   ERROR+3,8           Was it I/O error
 0021A2 4780 7A5E            0229A 25881                       BE    BLDLERR             Br if yes
 0021A6 91C0 616C      0016C       25882                       TM    F2,DSNFWRT+DSNFSCR  Test function
 0021AA 4710 7B8C            023C8 25883                       BO    SCRMBR              Go scratch member
 0021AE 4780 79E6            02222 25884                       BZ    FINDMEMB            Br if use
                                   25885              **  command is save member
 0021B2 9504 636F      0036F       25886                       CLI   ERROR+3,4           Was member found?
 0021B6 4780 79CE            0220A 25887                       BE    SVNWMBR             Br if not found - normal
                                   25888                       ¿þþþþþþþþþþþþþþþþþþþþþþþþþþþþþþþþþþþþþþþþþþþþþþþþþþþþÜ
                                   25889                       Ÿ  save title text from original directory entry...  Ÿ
                                   25890                       ¾þþþþþþþþþþþþþþþþþþþþþþþþþþþþþþþþþþþþþþþþþþþþþþþþþþþþ»
 0021BA D601 BF64 BF64_00F64 00F64 25891                       IF    (DSAVTITL,Z),BEGIN  No new title...
 0021C4 D503 7F80 630A_027BC 0030A 25907  1                      IF    (BLDLDATA+4,NE,'WYL0'),EXIT  not WYLBUR format
 0021CE 43F0 6305            00305 25927  1                      IC    R15,BLDLLEN         User data length
 0021D2 54F0 7F84            027C0 25928  1                      N     R15,=A(X'1F')       Isolate
 0021D6 1AFF                       25929  1                      AR    R15,R15             Convert to byte count
 0021D8 4BF0 7FAE            027EA 25930  1                      SH    R15,=H'20'          WYLBUR prefix
 0021DC 47D0 79BA            021F6 25931  1                      IF    NP,EXIT             No title
 0021E0 40F0 BF64            00F64 25945  1                      STH   R15,DSAVTITL        Title length
 0021E4 D229 BF66 C4D8 00F66 004D8 25946  1                      MVC   DSAVTIT,CVBLANKS    Tidy
 0021EA 06F0/12FF/4740_            25947  1                      MOVE  R15,DSAVTIT,BLDLDATA+20
 0021F6                            25985                       END
                                   25989
 0021F6 9140 BD51      00D51       25990                       TM    CPLFLG2,CPFSCRTC    Can we scratch old member?
 0021FA 4710 79CA            02206 25991                       BO    OKREPL              Br if yes
 0021FE 41E0 7DC0            025FC 25992                       LA    RAR,EXISTS          Member already exists
 002202 47F0 7A5E            0229A 25993                       B     BLDLERR
                                   25994
 002206 9608 616A      0016A       25995              OKREPL   OI    DFL,DFREPL          Indicate repl for stow
                                   25996
 00220A 9108 616A      0016A       25997              SVNWMBR  TM    DFL,DFREPL          Is it to be a repl funct?
1DISK     (DISK4072) (12:42) (15MAR04) Disk Open (DOPEN) Routine                                                            Page   88
0Current Usings:  (IOWA,R6) (*,R7) (CP,R11) (CV,R12)
0Loc    Object Code    Addr1 Addr2  Stmt Lv Lineno    Source Statement           (Hibal 5, Asmedit 3.3)  HLASM R4.0  2004/03/15 12.42
+___    ______ ____    _____ _____  ____ __ ______    ______ _________
000220E 4700 7A32            0226E 25998                       BC    0,NOBLDL  **PJG**   Br if yes - no space check
                                   25999              * The above test removed for PDS title line increases
 002212 9500 64E9      004E9       26000                       CLI   DCB+DCBDIRCT+1-IHADCB,0  Check if last dir block used
 002216 4780 7A32            0226E 26001                       BE    NOBLDL              Nope, directory has space left
 00221A 41E0 7DA8            025E4 26002                       LA    RAR,NODIRSPC        Load error rtn addr
 00221E 47F0 7A5E            0229A 26003                       B     BLDLERR             Last dir blk has been used
                                   26004
 002222 9504 636F      0036F       26005              FINDMEMB CLI   ERROR+3,4           Was member found for use
 002226 41E0 7DA0            025DC 26006                       LA    RAR,ILLMEMB         Prime return addr
 00222A 4780 7A5E            0229A 26007                       BE    BLDLERR             Br if not
 00222E 58E0 7F88/0DEE       027C4 26008                       VCALL AMODE24             ********
 002234 4110 6498/41F0_      00498 26012                       FIND  DCB,BLDLTTR,C       Find member
 002268 58E0 7F8C/0DEE       027C8 26029                       VCALL AMODE31             ********
-00226E 1BFF                       26034              NOBLDL   CLEAR R15                 Indicate success
 002270 4110 6720            00720 26039                       LA    R1,DBUF             Point to buffer
 002274 4520 7A80            022BC 26040                       BAL   R2,RESETWA          Go reset dsnwa
 002278 18D8                       26041              RET      LR    R13,R8              Restore orig r13
 00227A 9828 D010            00010 26042                       LM    R2,R8,16(R13)       Restore other regs
 00227E 58E0 D000            00000 26043                       L     14,0(,13)
 002282 12FF                       26044                       LTR   15,15
 002284 07FE                       26045                       BR    14
                                   26046
 002286 D703 636C 636C 0036C 0036C 26047              OPNER    XC    ERROR,ERROR
 00228C 92F4 636D      0036D       26048                       MVI   ERROR+1,C'4'        Set open error code
 002290 58E0 7F34/0DEE       02770 26049                       ACALL CATER
 002296 47F0 7CF2            0252E 26053                       B     DEQERR
                                   26054
 00229A 183E                       26055              BLDLERR  LR    R3,RAR              Save routine addr
 00229C 58E0 7F24/0DEE       02760 26056                       WAITOFF X
 0022A2 4110 6414/0A14       00414 26061                       CLOSE MF=(E,OPENLIST)
 0022A8 58E0 7F2C/0DEE       02768 26065                       WAITON X
 0022AE 9508 636F      0036F       26070                       CLI   ERROR+3,8           Was it an I/O error
 0022B2 0773                       26071                       BNER  R3                  Br to pre-desig rtn if not
 0022B4 41F0 003C            0003C 26072                       LA    R15,RTNDIRIO        Set I/O error return code
 0022B8 47F0 7CF2            0252E 26073                       B     DEQERR
-
-
-                                  26075              ***  reset dsnwa in case changed values
 0022BC 5800 6364            00364 26076              RESETWA  L     R0,RECSIZE          Return size
 0022C0 D227 BE90 C4D8 00E90 004D8 26077                       MVC   DSNON,CVBLANKS
 0022C6 D205 BE90 634E 00E90 0034E 26078                       MVC   DSNON6,DSVID        Return actual volume name
 0022CC D605 BE90 BE90_00E90 00E90 26079                       IF    (DSNON6,Z),'CLEAR DSNON'        ***ISU
 0022DC D207 BE88 62F8 00E88 002F8 26107                       MVC   DSNWAMBR,MEMBER     In case member changed
 0022E2 D204 BF34 616B 00F34 0016B 26108                       MVC   DSNWAF1(L'FLAGS),F1 Restore flags also
 0022E8 9104 616C/47E0_0016C       26109                       IF    F2.DSNFCAT,'MVC DCATUNIT,DEVCODE'  Move in UNIT used
 0022F6 07F2                       26131                       BR    R2                  Return
1DISK     (DISK4072) (12:42) (15MAR04) Disk Open (DOPEN) Routine                                                            Page   89
0Current Usings:  (IOWA,R6) (*,R7) (CP,R11) (CV,R12)
0Loc    Object Code    Addr1 Addr2  Stmt Lv Lineno    Source Statement           (Hibal 5, Asmedit 3.3)  HLASM R4.0  2004/03/15 12.42
+___    ______ ____    _____ _____  ____ __ ______    ______ _________
0                                  26133              * delete processing
                                   26134              *
 0022F8 95FF 62F8      002F8       26135              DELT     CLI   MEMBER,X'FF'        Scratch entire thing anyway?
 0022FC 4780 7AD6            02312 26136                       BE    DELT1               Br if yes
 002300 9102 69EA      009EA       26137                       TM    DS1DSORG,DSORGPO    Is it a pds?
 002304 4780 7AD6            02312 26138                       BZ    DELT1               Br if its not
 002308 D200 6344 69EC 00344 009EC 26139              DELT0    MVC   RRECFM,DS1RECFM     Save actual recfm
 00230E 47F0 7884            020C0 26140                       B     OLDSTUP             Then go open pds
                                   26141
 002312 4520 735E            01B9A 26142              DELT1    BAL   R2,READKW           Go read in password record
 002316                            26143              DELTALL  LABEL
                                   26145              *|         tm    ds1space,spacflag   was space acctd for?
                                   26146              *|         bno   deltall2            br if not
 002316 D501 617A C724 0017A 00724 26147                       CLC   DSTYPE,CVSTYPE      Is it save type of vol
 00231C 4770 7B06            02342 26148                       BNE   DELTALL2            Br no, ignore space acctng
 002320 D701 6ADA 6ADA 00ADA 00ADA 26149                       XC    SPTRK,SPTRK         Clear area for space total
 002326 58E0 7F6C/0DEE       027A8 26150                       ACALL DVTOC2              Go compute actual space used
 00232C 4810 6ADA            00ADA 26154                       LH    R1,SPTRK            Get track value
 002330 1111                       26155                       LNR   R1,R1               Complement it
 002332 4010 62FC            002FC 26156                       STH   R1,MEMBER+4         Save it for update later
 002336 9104 616A/4710_0016A       26157                       IF    ~DFL.DFNOACTG,'SET DFL.DFUPTSPC'  spac actg needed
 002342 9200 6355      00355       26185              DELTALL2 MVI   SCRRET,0            Set before drop-thru
 002346 1B00                       26186                       CLEAR R0                  Must be zero on entry
 002348 41E0 7B42/50E0_      0237E 26190                       WAITOFF X,ABEND=SCRABE
 002356 4110 63A4/0A1D       003A4 26203                       SCRATCH SCRLST            Kill the data set
 00235C 58E0 7F2C/0DEE       02768 26207                       WAITON X
 002362 1BFF                       26212                       CLEAR R15                 Fix up code
 002364 9500 6355      00355       26216                       CLI   SCRRET,0            Was there an error
 002368 4780 7B58            02394 26217                       BE    CHKUNCAT            No.  all ok
 00236C 9501 6355      00355       26218                       CLI   SCRRET,1            Was ds not there
 002370 4780 7DB8            025F4 26219                       BE    NOSUCH              Ds not there
 002374 43F0 6355            00355 26220                       IC    R15,SCRRET          Get into reg
                                   26221
 002378 19FF/4780 7B46             26222                       IF    (R15,NE,R15),BEGIN  Never fall thru--label br...
 00237E 41F0 00FE            000FE 26237  1           SCRABE     LA    R15,254             0xfe error code (abend)
 002382                            26238                       END
                                   26242
 002382 50F0 636C            0036C 26243                       ST    R15,ERROR           Save for cater
 002386 92F6 636D      0036D       26244                       MVI   ERROR+1,C'6'        Put in code
 00238A 58E0 7F34/0DEE       02770 26245                       ACALL CATER
 002390 47F0 7CF2            0252E 26249                       B     DEQERR
                                   26250
 002394 9140 616C/07E2 0016C       26251              CHKUNCAT IF    ~F2.DSNFSCR,R2      (subroutine of SAVE)
                                   26271                       ¿þþþþþþþþþþþþþþþþþþþþþþþþþþþþþþþþþþþþþþþþþþþþþþÜ
                                   26272                       Ÿ  Remove RACF generic profile after SCRATCH.  Ÿ
                                   26273                       ¾þþþþþþþþþþþþþþþþþþþþþþþþþþþþþþþþþþþþþþþþþþþþþþ»
 00239A 58E0 7F90/0DEE       027CC 26274                       VCALL RACGREM             Generic remove profile
                                   26278                       ¿þþþþþþþþþþþþþþþþþþþÜ
                                   26279                       Ÿ  Uncatalog file.  Ÿ
                                   26280                       ¾þþþþþþþþþþþþþþþþþþþ»
 0023A0 D505 BE90 BEB8_00E90 00EB8 26281                       IF    (DSNON6,EQ,DSNCATV),'SET CPFUNCAT'
 0023AE 7B76/47F0 7B7A_023AE 023A8 26310                       ELSE  'SET CPFNOCAT'
 0023B6 58E0 7F40/0DEE       0277C 26332                       ACALL DCATLG              Do any uncataloging
 0023BC 4780 7B88/41F0_      023C4 26336                       IF    NZ,'LA R15,12'
1DISK     (DISK4072) (12:42) (15MAR04) Disk Open (DOPEN) Routine                                                            Page   90
0Current Usings:  (IOWA,R6) (*,R7) (CP,R11) (CV,R12)
0Loc    Object Code    Addr1 Addr2  Stmt Lv Lineno    Source Statement           (Hibal 5, Asmedit 3.3)  HLASM R4.0  2004/03/15 12.42
+___    ______ ____    _____ _____  ____ __ ______    ______ _________
00023C4 47F0 7CF2            0252E 26353                       B     DEQERR              Return
-                                  26355              **  return here from open to scratch member
 0023C8 41E0 7DA0            025DC 26356              SCRMBR   LA    RAR,ILLMEMB         Load in case of error
 0023CC 9504 636F      0036F       26357                       CLI   ERROR+3,4           Was it found?
 0023D0 4780 7A5E            0229A 26358                       BE    BLDLERR             Br if no
 0023D4 4520 7A80            022BC 26359                       BAL   R2,RESETWA          Go reset dsnwa
 0023D8 1830                       26360                       LR    R3,R0               Save r0 return value
 0023DA 4110 6498            00498 26361                       LA    R1,DCB
 0023DE 4100 62F8            002F8 26362                       LA    R0,MEMBER
 0023E2 1300                       26363                       LCR   R0,R0               Flag delete for stow
 0023E4 58E0 7F94/0DEE       027D0 26364                       ACALL DCLOSE              Go stow, close, and deq
 0023EA 1803                       26368                       LR    R0,R3               Restore R0 return value
 0023EC 47F0 7A3C            02278 26369                       B     RET
1DISK     (DISK4072) (12:42) (15MAR04) Disk Open (DOPEN) Routine                                                            Page   91
0Current Usings:  (IOWA,R6) (*,R7) (CP,R11) (CV,R12)
0Loc    Object Code    Addr1 Addr2  Stmt Lv Lineno    Source Statement           (Hibal 5, Asmedit 3.3)  HLASM R4.0  2004/03/15 12.42
+___    ______ ____    _____ _____  ____ __ ______    ______ _________
0                                  26371              * RENAME Processing
                                   26372              *
 0023F0                            26373              DOREN    LABEL ,
 0023F0 9108 BF9F/47E0_00F9F       26375                       IF    DRENMBR,BEGIN
 0023F8 9102 69EA/47E0_009EA       26390  1                      IF    ~DS1DSORG.DSORGPO,NOTPDS
 002400 D200 6344 69EC 00344 009EC 26409  1                      MVC   RRECFM,DS1RECFM     Save original RECFM
 002406 47F0 7884            020C0 26410  1                      B     OLDSTUP             Enter OPEN processing
 00240A                            26411                       END
 00240A D200 BF9E 69F5 00F9E 009F5 26415                       MVC   DRENPROT,DS1DSIND   Save protection ind for msg
 002410 9200 6355      00355       26416                       MVI   SCRRET,0            Clear RENAME return code
 002414 1B00                       26417                       CLEAR R0
 002416 58E0 7F24/0DEE       02760 26421                       WAITOFF X
 00241C 4110 6404/0A1E       00404 26426                       RENAME RENAMLST           Rename dataset
 002422 58E0 7F2C/0DEE       02768 26430                       WAITON X
 002428 1BFF                       26435                       CLEAR R15
 00242A 9500 6355/4780_00355       26439                       IF    (SCRRET,Z),RENUNCAT  Error?
 002432 9501 6355/4780_00355       26458                       IF    (SCRRET,EQ,1),NOSUCH  Dsn not there
 00243A 9502 6355/4780_00355       26479                       IF    (SCRRET,EQ,2),NOACCESS No access
 002442 9503 6355/4780_00355       26500                       IF    (SCRRET,EQ,3),EXISTS  Newname exists
 00244A 43F0 6355            00355 26521                       IC    R15,SCRRET          Get other error code
 00244E 50F0 636C            0036C 26522                       ST    R15,ERROR           Save for CATER
 002452 92F9 636D      0036D       26523                       MVI   ERROR+1,C'9'        Set RENAME code for CATER
 002456 58E0 7F34/0DEE       02770 26524                       ACALL CATER
 00245C 47F0 7CF2            0252E 26528                       B     DEQERR
                                   26529              *
                                   26530              * Uncatlog old name
                                   26531              *
 002460 D505 BE90 BEB8_00E90 00EB8 26532              RENUNCAT IF    (DSNON6,EQ,DSNCATV),'SET CPFUNCAT' Safe to uncat
 00246E 7C36/47F0 7C3A_0246E 02468 26562                       ELSE  'SET CPFNOCAT'      Don't futz with cat
 002476 58E0 7F40/0DEE       0277C 26584                       ACALL DCATLG
 00247C 4780 7C48/9610_      02484 26588                       IF    NZ,'SET DRENUNCF'   Set if uncat failed
 002484 9640 BF9F      00F9F       26610                       SET   DRENUNC             Set uncat attempted
0                                  26617              *
                                   26618              * Catlog new name
                                   26619              *
 002488 94CF BD56      00D56       26620                       CLEAR CPFUNCAT+CPFNOCAT   Clear flags which interfere
 00248C 4100 62C8            002C8 26630                       LA    R0,NEWDSNAM         R0 -> New dsname
 002490 5000 63F8            003F8 26631                       ST    R0,CATLST+4         Change CAMLIST
 002494 58E0 7F40/0DEE       0277C 26632                       ACALL DCATLG              Perform any catlg function
 00249A 4100 6270            00270 26636                       LA    R0,DSNAME           R0 -> Orginal dsname
 00249E 5000 63F8            003F8 26637                       ST    R0,CATLST+4         Restore CAMLIST
 0024A2 50F0 BF98            00F98 26638                       ST    R15,DRENCTRC        Save catlg return code
 0024A6 9120 BD56/47E0_00D56       26639                       IF    CPFNOCAT,'SET DRENCATF'   Set error flag if needed
 0024B2 1BFF                       26665                       CLEAR R15                 Clear ret code
 0024B4 47F0 7CF2            0252E 26669                       B     DEQERR
-
                                   26671              ** Return here from OPEN for member RENAME
 0024B8                            26672              RENMBR   LABEL ,
 0024B8 4520 7A80            022BC 26674                       BAL   R2,RESETWA          Reset DSNWA
 0024BC D207 62C8 BE88 002C8 00E88 26675                       MVC   NEWDSNAM(8),DSNWAMBR    Set old name for STOW
 0024C2 D207 62D0 BF90 002D0 00F90 26676                       MVC   NEWDSNAM+8(8),DRENMNAM  Set new name for STOW
1DISK     (DISK4072) (12:42) (15MAR04) Disk Open (DOPEN) Routine                                                            Page   92
0Current Usings:  (IOWA,R6) (*,R7) (CP,R11) (CV,R12)
0Loc    Object Code    Addr1 Addr2  Stmt Lv Lineno    Source Statement           (Hibal 5, Asmedit 3.3)  HLASM R4.0  2004/03/15 12.42
+___    ______ ____    _____ _____  ____ __ ______    ______ _________
00024C8 58E0 7F24/0DEE       02760 26677                       WAITOFF X
 0024CE 4110 6498/4100_      00498 26682                       STOW  DCB,NEWDSNAM,C      Issue RENAME
 0024DC 58E0 7F2C/0DEE       02768 26689                       WAITON X
 0024E2 183F                       26694                       LR    R3,R15              Save return code for R0
 0024E4 58E0 7F94/0DEE       027D0 26695                       ACALL DCLOSE              Close PDS
 0024EA 1803                       26699                       LR    R0,R3               Restore STOW return code
 0024EC 47F0 7A3C            02278 26700                       B     RET                 Exit
1DISK     (DISK4072) (12:42) (15MAR04) Disk Open (DOPEN) Routine                                                            Page   93
0Current Usings:  (IOWA,R6) (*,R7) (CP,R11) (CV,R12)
0Loc    Object Code    Addr1 Addr2  Stmt Lv Lineno    Source Statement           (Hibal 5, Asmedit 3.3)  HLASM R4.0  2004/03/15 12.42
+___    ______ ____    _____ _____  ____ __ ______    ______ _________
0                                  26702              *
                                   26703              * Processing for catalog/uncatalog/recatalog commands...
                                   26704              *
 0024F0 58E0 7F4C/0DEE       02788 26705              CALLCAT  ACALL VALLOCAT            Alloc vol
 0024F6 4770 7DFE            0263A 26709                       BNZ   ERR                 Troubles
 0024FA 58E0 7F40/0DEE       0277C 26710                       ACALL DCATLG              Go do it
 002500 183F                       26714                       LR    R3,R15              Save return code
 002502 58E0 7F48/0DEE       02784 26715                       ACALL VDALLO              Go dequeue on vol
 002508 11F3                       26719                       LNR   R15,R3              Neg if DCATLG error
 00250A 47F0 7DFE            0263A 26720                       B     ERR
                                   26721
 00250E 58E0 7F40/0DEE       0277C 26722              CALLCAT2 ACALL DCATLG              Go do it
 002514 47F0 7DFE            0263A 26726                       B     ERR
                                   26727              *
                                   26728              * some sort of catalog error...
                                   26729              *
 002518 D205 634E 6A8B 0034E 00A8B 26730              CILLVOL  MVC   DSVID,CATVOLID      Get missing cvol name
 00251E 41F0 0028            00028 26731              ILLVOLND LA    R15,RTNBDVOL        Ill volume error code
 002522 47F0 7DFE            0263A 26732                       B     ERR
                                   26733
 002526 41F0 0040            00040 26734              ILLCATRF LA    R15,RTNBDCAT        Invalid catlg reference
 00252A 47F0 7DFE            0263A 26735                       B     ERR
1DISK     (DISK4072) (12:42) (15MAR04) Disk Open (DOPEN) Routine                                                            Page   94
0Current Usings:  (IOWA,R6) (*,R7) (CP,R11) (CV,R12)
0Loc    Object Code    Addr1 Addr2  Stmt Lv Lineno    Source Statement           (Hibal 5, Asmedit 3.3)  HLASM R4.0  2004/03/15 12.42
+___    ______ ____    _____ _____  ____ __ ______    ______ _________
0                                  26737              * utility routines
                                   26738              *
 00252E 58E0 7F24/0DEE       02760 26739              DEQERR   WAITOFF X                 Do deq under subtask control
 002534 183F                       26744              DEQERRW  LR    R3,R15              Save return code
 002536 9101 616C/47E0_0016C       26745                       IF    F2.DSNFPROT,BEGIN  deq sysvtoc only if set prot
 00253E 9108 616C/4710_0016C       26761  1                      IF    ~F2.DSNFSHOW,BEGIN
 002546 4110 6424/0A30       00424 26777  2                        DEQ   MF=(E,ENQVOL)
 00254C                            26783  1                      END
 00254C                            26787                       END   ,                   But skip dsn deq for prot
 00254C 7D14/47F0 7D54 0254C 0253C 26791                       ELSE  BEGIN
 002550 9110 616E/47E0_0016E       26802  1                      IF    F4.DSNFENQ,BEGIN    Need to DEQ...
 002558 5800 C714/5000_      00714 26817  2                        DEQ   RET=HAVE,TCB=CVITCBP,MF=(E,ENQDSN)
 002590                            26836  1                      END
 002590                            26840                       END
 002590 58E0 7F2C/0DEE_      02768 26844                       WAITON X,CLEAR            Return to main task
 00259C 58E0 7F48/0DEE       02784 26856                       ACALL VDALLO              Go deallocate it
 0025A2 18F3                       26860              DEQERRV  LR    R15,R3              Restore return code
 0025A4 47F0 7DFE            0263A 26861                       B     ERR
                                   26862
 0025A8 41F0 0048            00048 26863              NOACCESS LA    R15,RTNNOACS        Set rc
 0025AC D703 6364 6364 00364 00364 26864                       XC    RECSIZE,RECSIZE
 0025B2 47F0 7CF2            0252E 26865                       B     DEQERR              Go deq and return
                                   26866
 0025B6 41F0 0018            00018 26867              ILLDS    LA    R15,RTNILDSN
 0025BA 47F0 7DFE            0263A 26868                       B     ERR
                                   26869
 0025BE 11F7                       26870              TYPECHNG LNR   R15,BR              Set r15 negative
 0025C0 47F0 7CF2            0252E 26871                       B     DEQERR
                                   26872
 0025C4 41F0 0034            00034 26873              EXPDATE  LA    R15,RTNEXPDT
 0025C8 47F0 7CF8            02534 26874                       B     DEQERRW             Error detected under subtask
                                   26875
 0025CC 41F0 0024            00024 26876              ABORTMS  LA    R15,ABRTCODE        Set request aborted code
 0025D0 47F0 7CF2            0252E 26877                       B     DEQERR
                                   26878
 0025D4 41F0 0054            00054 26879              NOSTORE  LA    R15,RTNNOSTR
 0025D8 47F0 7CF2            0252E 26880                       B     DEQERR
                                   26881
 0025DC 41F0 002C            0002C 26882              ILLMEMB  LA    R15,RTNBDMBR
 0025E0 47F0 7CF2            0252E 26883                       B     DEQERR
                                   26884
 0025E4 41F0 0030            00030 26885              NODIRSPC LA    R15,RTNDIRFL
 0025E8 47F0 7CF2            0252E 26886                       B     DEQERR
                                   26887
 0025EC 41F0 0044            00044 26888              NOTPDS   LA    R15,RTNNTPDS        Indicate error
 0025F0 47F0 7CF2            0252E 26889                       B     DEQERR              Go and cleanup
                                   26890
 0025F4 41F0 0004            00004 26891              NOSUCH   LA    R15,RTNNODS
 0025F8 47F0 7CF2            0252E 26892                       B     DEQERR
                                   26893
 0025FC 41F0 0008            00008 26894              EXISTS   LA    R15,RTNDUPDS
 002600 47F0 7CF2            0252E 26895                       B     DEQERR
                                   26896
 002604 41F0 000C            0000C 26897              NOROOM   LA    R15,RTNNOSPC
1DISK     (DISK4072) (12:42) (15MAR04) Disk Open (DOPEN) Routine                                                            Page   95
0Current Usings:  (IOWA,R6) (*,R7) (CP,R11) (CV,R12)
0Loc    Object Code    Addr1 Addr2  Stmt Lv Lineno    Source Statement           (Hibal 5, Asmedit 3.3)  HLASM R4.0  2004/03/15 12.42
+___    ______ ____    _____ _____  ____ __ ______    ______ _________
0002608 47F0 7CF2            0252E 26898                       B     DEQERR
                                   26899
 00260C 41F0 001C            0001C 26900              ILLORG   LA    R15,RTNILORG
 002610 47F0 7CF2            0252E 26901                       B     DEQERR
                                   26902              *
                                   26903              * lockout code is executed under subtask control
 002614 D703 6364 6364 00364 00364 26904              LOCKOUT  CLEAR RECSIZE             Flag: data set in use
 00261A 41F0 0010            00010 26912                       LA    R15,RTNINUSE        Indicate enq failed
 00261E 47F0 7CF8            02534 26913                       B     DEQERRW  go deq in case one in the list gotten
                                   26914
 002622 5000 6364            00364 26915              ILLBLKSZ ST    R0,RECSIZE          Save invalid blocksize
 002626 41F0 0014            00014 26916                       LA    R15,RTNINVBS
 00262A 47F0 7CF2            0252E 26917                       B     DEQERR
                                   26918
 00262E 41F0 0004            00004 26919              ILLCAT   LA    R15,RTNNODS
 002632 9508 616C      0016C       26920                       CLI   F2,DSNFSHOW         Is it show dsn on catlg
 002636 4780 7CEA            02526 26921                       BE    ILLCATRF            Yes, invalid catlg reference
                                   26922
 00263A 9102 616A      0016A       26923              ERR      TM    DFL,DFUPTSPC        Is space accntg needed?
 00263E 47E0 7E10            0264C 26924                       BNO   ERR1                Br if not
 002642 4810 62FC            002FC 26925                       LH    R1,MEMBER+4         Get computed total
 002646 58E0 7F98/0DEE       027D4 26926                       ACALL UPDTSPAC            Go update space used
 00264C 4520 7A80            022BC 26930              ERR1     BAL   R2,RESETWA          Go reset dsnwa
 002650 1830                       26931                       LR    R3,R0               Save r0
 002652 1841                       26932                       LR    R4,R1               Save r1
 002654 182F                       26933                       LR    R2,R15              Save return code
 002656 58E0 7F9C/0DEE       027D8 26934                       ACALL RELIOWA             Release IOWA
 00265C 12F2                       26938                       LTR   R15,R2              Restore return register
 00265E 1803                       26939                       LR    R0,R3               Restore r0
 002660 1814                       26940                       LR    R1,R4               Restore r1
 002662 47F0 7A3C            02278 26941                       B     RET
1DISK     (DISK4072) (12:42) (15MAR04) Disk Open (DOPEN) Routine                                                            Page   96
0Current Usings:  (IOWA,R6) (*,R7) (CP,R11) (CV,R12)
0Loc    Object Code    Addr1 Addr2  Stmt Lv Lineno    Source Statement           (Hibal 5, Asmedit 3.3)  HLASM R4.0  2004/03/15 12.42
+___    ______ ____    _____ _____  ____ __ ______    ______ _________
0                                  26943              **  routine to make sure data set exists and member spec if req
                                   26944              *
 002666 1FFF/43F0 6355             26945              MUSTXST  LC    R15,SCRRET          Get return code from obtain
 00266C 12FF                       26952                       LTR   R15,R15
 00266E 4780 7E5C            02698 26953                       BZ    DSEXISTS            Br if dscb found
 002672 50F0 636C            0036C 26954                       ST    R15,ERROR
 002676 92F2 636D      0036D       26955                       MVI   ERROR+1,C'2'
 00267A 9508 636F      0036F       26956                       CLI   ERROR+3,8           Was it just not found?
 00267E 4780 7DB8            025F4 26957                       BE    NOSUCH              Br if yes
 002682 9504 636F      0036F       26958                       CLI   ERROR+3,4           Was it vol not avail
 002686 41F0 0028            00028 26959                       LA    R15,RTNBDVOL        Bad volume
 00268A 4780 7CF2            0252E 26960                       BE    DEQERR
 00268E 58E0 7F34/0DEE       02770 26961                       ACALL CATER
 002694 47F0 7CF2            0252E 26965                       B     DEQERR
                                   26966
 002698 9101 616C/0712 0016C       26967              DSEXISTS IF    F2.DSNFPROT,R2      Anything ok for set/sho prot
 00269E 9102 616E/0712 0016E       26987                       IF    F4.DSNFRENA,R2      Rename doesn't care
 0026A4 95FF 62F8      002F8       27005                       CLI   MEMBER,X'FF'        Is it to be treated as seq?
 0026A8 0782                       27006                       BER   R2                  Br if yes
 0026AA 9102 69EA      009EA       27007                       TM    DS1DSORG,DSORGPO    Is it a pds?
 0026AE 4710 7E9E            026DA 27008                       BO    DSISPDS             Br if yes
 0026B2 9140 616C      0016C       27009                       TM    F2,DSNFSCR          Scratch command?
 0026B6 4710 7E86            026C2 27010                       BO    CHKPSMBR            if so don't check for ps
 0026BA 9140 69EA      009EA       27011                       TM    DS1DSORG,DSORGPS    Is it seq?
 0026BE 4780 7DD0            0260C 27012                       BZ    ILLORG              Br if no - invalid dsorg
 0026C2                            27013              CHKPSMBR LABEL
                                   27015              **  sequential data set specified
 0026C2 9500 616C      0016C       27016                       CLI   F2,0                Is this a use access?
 0026C6 0782                       27017                       BER   R2                  Yes, ignore the member
 0026C8 91BF 62F8      002F8       27018                       TM    MEMBER,X'BF'        Was a member specified?
 0026CC 4770 7DB0            025EC 27019                       BNZ   NOTPDS              yes, and that's an error
 0026D0 9128 616C      0016C       27020                       TM    F2,DSNFSHOW+DSNFPDS Is command show directory?
 0026D4 4710 7DD0            0260C 27021                       BO    ILLORG              Br if yes - illegal
 0026D8 07F2                       27022                       BR    R2                  Return
                                   27023              *
                                   27024              **  partitioned data set
 0026DA 9128 616C      0016C       27025              DSISPDS  TM    F2,DSNFSHOW+DSNFPDS Is command show directory?
 0026DE 0712                       27026                       BOR   R2                  Br if yes - return
 0026E0 9500 62F8/4780_002F8       27027                       IF    ((MEMBER,EQ,X'00'),OR,(MEMBER,EQ,' ')),ILLMEMB
 0026F0 07F2                       27063                       BR    R2
-
0                                  27065              * test user has not exceeded his sequential space allowed
 0026F2                            27066              CHKSPOK  LABEL
 0026F2 9140 BF37/0712 00F37       27068                       IF    DSNFSML,R2          Allow re-write for show mail
 0026F8 4110 6524            00524 27086                       LA    R1,KWR              R1 -> KWR
 0026FC 58E0 7FA0/0DEE       027DC 27087                       VCALL EXIT4               LOCAL exit - check space alloc
                                   27091              *
                                   27092              *   Removed 6/15/95 by M. Durket. Because WYLBUR uses WINGS
                                   27093              *   it no longer updates the space information. Disk quota
                                   27094              *   handling is done by the nightly accounting routines.
                                   27095              *
1DISK     (DISK4072) (12:42) (15MAR04) Disk Open (DOPEN) Routine                                                            Page   97
0Current Usings:  (IOWA,R6) (*,R7) (CP,R11) (CV,R12)
0Loc    Object Code    Addr1 Addr2  Stmt Lv Lineno    Source Statement           (Hibal 5, Asmedit 3.3)  HLASM R4.0  2004/03/15 12.42
+___    ______ ____    _____ _____  ____ __ ______    ______ _________
0                                  27096              *        IF    (R15,NZ),BEGIN      Space exceeded ...
                                   27097              *        TSEG  KWRGRP
                                   27098              *        TSEG  '.'
                                   27099              *        TSEG  KWRUSER,,B
                                   27100              *        LA    R15,RTNOVSP         Set return code
                                   27101              *        B     DEQERR
                                   27102              *        END
 002702 07F2                       27103                       BR    R2                  Return to caller
-                                  27105              * check that seqfld values are within lrecl if numbered save
                                   27106              *    r0 = lrecl at entry
 002704 9110 BD54/07EE 00D54       27107              CHKSQFLD IF    ~CPLFLG5.CPFFOPT,RAR  nothing explicit, scram
 00270A 9180 BD54/071E 00D54       27127                       IF    CPLFLG5.CPFUNUM,RAR  unnumbered, scram
 002710 4820 BDA2            00DA2 27146                       LH    R2,CPSEQLN          Get length of seqfld
 002714 9180 BDA0      00DA0       27147                       TM    CPSEQFLD,X'80'      Seq field at end of record
 002718 4710 7EE6            02722 27148                       BO    CHKSQFL1            Yes
 00271C 4A20 BDA0            00DA0 27149                       AH    R2,CPSEQFLD         Add start col for seqfld
 002720 0620                       27150                       BCTR  R2,0                Set for compare to lrecl
 002722 1920                       27151              CHKSQFL1 CR    R2,R0               Is it within bounds
 002724 07DE                       27152                       BNHR  RAR                 No, return
 002726 4110 7FB0/4100_      027EC 27153                       TSEG  'LRECL invalid.',,CR
 002738 41F0 0024            00024 27171                       LA    R15,ABRTCODE        Set abort code
 00273C 47F0 7CF2            0252E 27172                       B     DEQERR              Finish up
1DISK     (DISK4072) (12:42) (15MAR04) Disk Open (DOPEN) Routine                                                            Page   98
0Current Usings:  (IOWA,R6) (*,R7) (CP,R11) (CV,R12)
0Loc    Object Code    Addr1 Addr2  Stmt Lv Lineno    Source Statement           (Hibal 5, Asmedit 3.3)  HLASM R4.0  2004/03/15 12.42
+___    ______ ____    _____ _____  ____ __ ______    ______ _________
0002740 C0/00/43/00/0000_          27175              MODLENQX ENQ   (SYSDSN,0,E,0,SYSTEM),RET=USE,MF=L
                                   27186              MODLENQ  EQU   MODLENQX,*-MODLENQX,C'X'
                                   27187
                                   27188              ENQSHARE EQU   X'C3'               Enq option for shared
-                                  27190                       QLTORG
1DISK     (DISK4072) (12:42) (15MAR04) Disk Open (DOPEN) Routine                                                            Page   99
0Current Usings:  (IOWA,R6) (*,R7) (CP,R11) (CV,R12)
0Loc    Object Code    Addr1 Addr2  Stmt Lv Lineno    Source Statement           (Hibal 5, Asmedit 3.3)  HLASM R4.0  2004/03/15 12.42
+___    ______ ____    _____ _____  ____ __ ______    ______ _________
0002800 50E0 D000/9028_      00000 27245              OPENINIT XENTER
 DROP   *,R7
 USING  *,R7
 00281A 5830 7AEE            03308 27267                       L     R3,=A(MODELDCB)     Get brand new copy of dcb
 00281E D257 6498 3000 00498 00000 27268                       MVC   DCB(DCBSZ),@R3
 002824 5830 7AF2            0330C 27269                       L     R3,=A(FOURMODL)     Get address of model dcb
 002828 D233 64F0 3000 004F0 00000 27270                       MVC   FOURS(FOURSIZ),@R3  Move it in
 00282E 4130 618C            0018C 27271                       LA    R3,EXLST            Addr of exlst
 002832 5030 64BC            004BC 27272                       ST    R3,DCB+DCBEXLST-IHADCB  enter into dcb
 002836 5030 6514            00514 27273                       ST    R3,FOURS+DCBEXLST-IHADCB  enter into fours dcb
 00283A 92C0 6344      00344       27274                       MVI   RRECFM,UNDEFIND     Set undefined
 00283E 92C0 64BC      004BC       27275                       MVI   DCB+(DCBRECFM-IHADCB),UNDEFIND  set undefined
 002842 9240 64B2      004B2       27276                       MVI   DCB+DCBDSORG-IHADCB,DSORGPS  init to ps org
 002846 D22B 6270 BE5C 00270 00E5C 27277                       MVC   DSNAME(44),DSNWADSN Save ds name
 00284C D205 634E BE90 0034E 00E90 27278                       MVC   DSVID,DSNON6        Volid
 002852 D207 62F8 BE88 002F8 00E88 27279                       MVC   MEMBER,DSNWAMBR     Member name
 002858 D204 616B BF34 0016B 00F34 27280                       MVC   FLAGS,DSNWAF1       And dsn flags
 00285E 9102 616E/47E0_0016E       27281                       IF    F4.DSNFRENA,'MVC NEWDSNAM,DRENDSN'  Newname for RENAME
 00286C 9104 616F/47E0_0016F       27302                       IF    F5.DSNFCUNI,'MVC DEVCODE,DCATUNIT'
 00287A 9200 616A      0016A       27323                       MVI   DFL,0               Make sure zero
 00287E D703 618C 618C 0018C 0018C 27324                       XC    EXLST,EXLST         Clear dcb exit addr
 002884 9200 6532      00532       27325                       MVI   KWRIFL,0            Indicate no password record
 002888 D704 6524 6524 00524 00524 27326                       CLEAR (KWRUSER,5)
 00288E D202 6184 B3B4 00184 003B4 27333                       MVC   WAUSER,CPSUSER      Save user
 002894 D201 6187 B3B7 00187 003B7 27334                       MVC   WAGRP,CPSGRP        Save signed on group
 00289A 18D8/58E0 D000_            27335                       XEXIT
 DROP   *,R7                       27340                       DROP  BR
1DISK     (DISK4072) (12:42) (15MAR04) Disk Open (DOPEN) Routine                                                            Page  100
0Current Usings:  (IOWA,R6) (CP,R11) (CV,R12)
0Loc    Object Code    Addr1 Addr2  Stmt Lv Lineno    Source Statement           (Hibal 5, Asmedit 3.3)  HLASM R4.0  2004/03/15 12.42
+___    ______ ____    _____ _____  ____ __ ______    ______ _________
0DROP   CP,R11                     27348                       DROP  CP
 0028A6 50E0 D000/9028_      00000 27356              OPENENQ  XENTER R2,R8,TRACE=NO
 USING  *,R7
 0028B6 9101 616C/47E0_0016C       27377                       IF    F2.DSNFPROT,BEGIN   Set/show protect
 0028BE 9108 616C/4710_0016C       27393  1                      IF    ~F2.DSNFSHOW,BEGIN            enq sysvtoc for set
 0028C6 4110 6424/94B7_      00424 27409  2                        ENQ   (SYSVTOC,,,,SYSTEM),MF=(E,ENQVOL)
 0028DC                            27418  1                      END
 0028DC 1BFF                       27422  1                      CLEAR R15                 Set good return code
 0028DE 47F0 707A            02930 27426  1                      B     OPENENQX            All done
 0028E2                            27427                       END
                                   27431
 0028E2 1BFF                       27432                       CLEAR R15                 Assume A-OK
 0028E4 9110 616F/4710_0016F       27436                       IF    (NOT,F5.DSNFNONQ),BEGIN  Need to ENQ...
 0028EC 9281 643C      0043C       27453  1                      MVI   ENQDSN,X'81'        TCB= option in ENQ param list
 0028F0 D203 6438 C714 00438 00714 27454  1                      MVC   ENQDSN-4(4),CVITCBP
 0028F6 4110 643C/4230_      0043C 27455  1                      ENQ   (SYSDSN,,,(R3)),MF=(E,ENQDSN)
                                   27463  1           *
                                   27464  1           * When two shared ENQ's for the same resource are done, MVS will
                                   27465  1           * return RC=8 to the second (task already has control of
                                   27466  1           * resource).  Damn shame too, because WYLBUR will need to keep
                                   27467  1           * it's own use count for any ENQ'd dsnames to know when to DEQ.
                                   27468  1           * For now, we'll just ignore the integrity error...
                                   27469  1           *
 002908 12FF/4770 705C_            27470  1                      IF    (R15,Z),'SET F4.DSNFENQ'  We got it, we'll DEQ
 002912 12FF/4780 707A             27495  1                      IF    (R15,NZ),BEGIN
 002918 95C3 643E/4770_0043E       27509  2                        IF    ('CLI ENQDSN+2,ENQSHARE',NE),EXIT  Exclusive, scram
 002920 1F00/4300 F003             27525  2                        LC    R0,@R15+3           Return code
 002926 5900 7A5A/4770_      03310 27530  2                        IF    (R0,EQ,8),'CLEAR R15'  We already have it
 002930                            27556  1                      END
 002930                            27560                       END
 002930 18D8/58E0 D000_            27564              OPENENQX XEXIT R2,R8,LTR
                                   27570
 00293E E2E8E2C4E2D54040           27571              SYSDSN   DC    CL8'SYSDSN'         Qname for data sets
 002946 E2E8E2E5E3D6C340           27572              SYSVTOC  DC    CL8'SYSVTOC'        Qname for vtoc enqs
 DROP   *,R7                       27573                       DROP  BR
 USING  CP,R11                     27580                       USING CP
1DISK     (DISK4072) (12:42) (15MAR04) Disk Open (DOPEN) Routine                                                            Page  101
0Current Usings:  (IOWA,R6) (CP,R11) (CV,R12)
0Loc    Object Code    Addr1 Addr2  Stmt Lv Lineno    Source Statement           (Hibal 5, Asmedit 3.3)  HLASM R4.0  2004/03/15 12.42
+___    ______ ____    _____ _____  ____ __ ______    ______ _________
0004790                04790 0008C 27590              WYLDISK2 CSECT
                                   27594            C MODELDCB DCB   DSORG=PS,EODAD=EODAD,SYNAD=SYNAD,
 004790 0000000000000000_                                            MACRF=(RP,WP)
0                                  27637              DCBSZ    EQU   *-MODELDCB
                                   27638              þþþþ
 0047E8 0000000000000000_          27639              FOURMODL DCB   DSORG=PS,MACRF=E,EXLST=FOURMODL
0                                  27667              FOURSIZ  EQU   *-FOURMODL
 00294E                02800 0478B 27668              WYLDISK  CSECT
1DISK     (DISK4072) (12:42) (15MAR04) Disk Open (DOPEN) Routine                                                            Page  102
0Current Usings:  (IOWA,R6) (CP,R11) (CV,R12)
0Loc    Object Code    Addr1 Addr2  Stmt Lv Lineno    Source Statement           (Hibal 5, Asmedit 3.3)  HLASM R4.0  2004/03/15 12.42
+___    ______ ____    _____ _____  ____ __ ______    ______ _________
0                                  27671              ***  dcb exit routine during open  ***
                                   27672              *
                                   27673                       PUSH  USING
 00294E                            27674                       DS    0H                  Verify alignment
 USING  *,R15                      27675                       USING *,R15
 00294E 182E                       27685              DCBEXIT  LR    R2,RAR              Save return addr
 002950 9104 616A/4710_0016A       27686                       IF    ~DFL.DFNOACTG,'SET DFL.DFUPTSPC'  acct for space
 00295C 07F2                       27714                       BR    R2                  Return to open
 DROP   *,R15                      27715                       POP   USING
1DISK     (DISK4072) (12:42) (15MAR04) Look Up Volume Routine                                                               Page  103
0Current Usings:  (IOWA,R6) (CP,R11) (CV,R12)
0Loc    Object Code    Addr1 Addr2  Stmt Lv Lineno    Source Statement           (Hibal 5, Asmedit 3.3)  HLASM R4.0  2004/03/15 12.42
+___    ______ ____    _____ _____  ____ __ ______    ______ _________
0                                  27752              ¿þþþþþþþþþþþþþþþþþþþþþþþþþþþþþþþþþþþþþþþþþþþþþþþþþþþþþþþþþþþþþþþþþþþþþÜ
                                   27753              Ÿ                                                                     Ÿ
                                   27754              Ÿ  GETVOL -- Routine to select a disk volume for a new permanent      Ÿ
                                   27755              Ÿ    data set.                                                        Ÿ
                                   27756              Ÿ                                                                     Ÿ
                                   27757              Ÿ    On exit, R15 (and cc):                                           Ÿ
                                   27758              Ÿ      0 - volume set; DSNON contains volume name                     Ÿ
                                   27759              Ÿ      nz- error                                                      Ÿ
                                   27760              Ÿ                                                                     Ÿ
                                                      ¾þþþþþþþþþþþþþþþþþþþþþþþþþþþþþþþþþþþþþþþþþþþþþþþþþþþþþþþþþþþþþþþþþþþþþ»
000295E 50E0 D000/9008_      00000 27761              GETVOL   PROC
 USING  *,R7
 002978 1B33                       27800                       CLEAR R3                  Assume good rc
                                   27804
 00297A D505 BE90 BEBE_00E90 00EBE 27805                       IF    (DSNON6,EQ,DSNBADV),'CLEAR DSNON'  Not this vol
 00298A D627 BE90 BE90_00E90 00E90 27835                       IF    (DSNON,NZ),GETVEXIT  This volume will do
                                   27854
 002994 D605 B880 B880_00880 00880 27855                       IF    (CPVOLUME,NZ),BEGIN  Use SET VOLUME...
 00299E 91C0 BF37/4770_00F37       27871  1                      IF    (DSNFMAIL+DSNFSML,NZ),EXIT  Ignore for MAIL files
 0029A6 D227 BE90 C4D8 00E90 004D8 27894  1                      MVC   DSNON,CVBLANKS
 0029AC D205 BE90 B880 00E90 00880 27895  1                      MVC   DSNON6,CPVOLUME     User's set volume
 0029B2 D505 BE90 BEBE_00E90 00EBE 27896  1                      IF    (DSNON6,EQ,DSNBADV),'CLEAR DSNON'  Not this vol
 0029C2 D627 BE90 BE90_00E90 00E90 27926  1                      IF    (DSNON,NZ),GETVEXIT
 0029CC                            27945                       END
                                   27949
 0029CC 1B22                       27950                       CLEAR R2                  Flag
 0029CE 9180 616B/47E0_0016B       27954                       IF    F1.DSNFSTD,BEGIN    Standard dsname...
 0029D6 D202 6524 6277 00524 00277 27970  1                      MVC   KWRUSER,DSNAME+DSNXU  uuu
 0029DC D201 6527 6274 00527 00274 27971  1                      MVC   KWRGRP,DSNAME+DSNXG  gg
 0029E2 4110 6524/4100_      00524 27972  1                      KREAD KWR
 0029F0 9180 6532/47E0_00532       27985  1                      IF    ~KWRIFL.KWRIFVAL,EXIT  no record, scram
 0029F8 D227 BE90 C4D8 00E90 004D8 28004  1                      MVC   DSNON,CVBLANKS
 0029FE D205 BE90 65B0 00E90 005B0 28005  1                      MVC   DSNON6,KWRVOL       Use his volume
 002A04 D605 BE90 BE90_00E90 00E90 28006  1                      IF    (DSNON6,Z),'CLEAR DSNON'
 002A14 D505 BE90 BEBE_00E90 00EBE 28034  1                      IF    (DSNON6,EQ,DSNBADV),'CLEAR DSNON'  Not this vol
 002A24 D627 BE90 BE90_00E90 00E90 28064  1                      IF    (DSNON,NZ),GETVEXIT
 002A2E 4120 0001            00001 28083  1                      LA    R2,1
 002A32                            28084                       END
                                   28088
                                   28089            C          IF    ((F2,Z),OR,F2.DSNFSHOW+DSNFSCR+DSNFPROT,OR,
 002A32 9500 616C/4780_0016C                                         F4.DSNFRENA),BEGIN
 002A4A 9110 616C/4710_0016C       28138  1                      IF    F2.DSNFALLO,EXIT    Use storage vol if ALLOCATE ...
 002A52 4130 0004            00004 28157  1                      LA    R3,RTNNODS          Not in the catalog
 002A56 47F0 715A            02AD2 28158  1                      B     GETVEXIT            Scram
 002A5A                            28159                       END
                                   28163
                                   28164            C          IF    (F2.DSNFWRT,AND,(DSNWAMBR,NE,X'00'),AND,
 002A5A 9180 616C/47E0_0016C                                         (DSNWAMBR,NE,' ')),'LA R3,RTNNODS; B GETVEXIT'
                                   28217
 002A7A 48F0 CDD8            00DD8 28218                       LH    R15,CVVOLCUR
 002A7E 181F                       28219                       LR    R1,R15
 002A80 4C10 79F0            03368 28220                       MH    R1,=H'6'
 002A84 4111 CDDC            00DDC 28221                       LA    R1,CVVOL(R1)
1DISK     (DISK4072) (12:42) (15MAR04) Look Up Volume Routine                                                               Page  104
0Current Usings:  (IOWA,R6) (*,R7) (CP,R11) (CV,R12)
0Loc    Object Code    Addr1 Addr2  Stmt Lv Lineno    Source Statement           (Hibal 5, Asmedit 3.3)  HLASM R4.0  2004/03/15 12.42
+___    ______ ____    _____ _____  ____ __ ______    ______ _________
0002A88 D227 BE90 C4D8 00E90 004D8 28222                       MVC   DSNON,CVBLANKS
 002A8E D205 BE90 1000 00E90 00000 28223                       MVC   DSNON6,@R1          Set volume
 002A94 41F0 F001            00001 28224                       LA    R15,@R15+1
 002A98 49F0 CDDA/4750_      00DDA 28225                       IF    (R15,GE,CVVOLMAX),'CLEAR R15'
 002AA2 40F0 CDD8            00DD8 28251                       STH   R15,CVVOLCUR
 002AA6 D601 CDDA CDDA_00DDA 00DDA 28252                       IF    (CVVOLMAX,Z),'MVC DSNON6,=C"&PUBVOL"'  (temp)
 002AB6 D605 BE90 BE90_00E90 00E90 28274                       IF    (DSNON6,Z),'CLEAR DSNON'
 002AC6 41F0 0001/4AF0_      00001 28302                       INCR  R15,CVCHKUC         Time for checkpoint I/O
                                   28308
                                   28309                       AIF   (NOT &SETKWVL).NOKWVOL
                                   28310              .NOKWVOL ANOP
                                   28311
 002AD2 12F3                       28312              GETVEXIT LTR   R15,R3              Set cc
 002AD4 18D8/9808 D004_            28313                       PEND
 DROP   *,R7
1DISK     (DISK4072) (12:42) (15MAR04) Look Up Volume Routine                                                               Page  105
0Current Usings:  (IOWA,R6) (CP,R11) (CV,R12)
0Loc    Object Code    Addr1 Addr2  Stmt Lv Lineno    Source Statement           (Hibal 5, Asmedit 3.3)  HLASM R4.0  2004/03/15 12.42
+___    ______ ____    _____ _____  ____ __ ______    ______ _________
0                                  28334              ¿þþþþþþþþþþþþþþþþþþþþþþþþþþþþþþþþþþþþþþþþþþþþþþþþþþþþþþþþþþþþþþþþþþþþþÜ
                                   28335              Ÿ                                                                     Ÿ
                                   28336              Ÿ  VOLCHK -- Routine to check to see if the volume specified is       Ÿ
                                   28337              Ÿ    in our volume table.                                             Ÿ
                                   28338              Ÿ                                                                     Ÿ
                                   28339              Ÿ    On entry:                                                        Ÿ
                                   28340              Ÿ      R1 - 6 character string ptr                                    Ÿ
                                   28341              Ÿ                                                                     Ÿ
                                   28342              Ÿ    On exit, R15 (and cc):                                           Ÿ
                                   28343              Ÿ      0 - yes, this is one of our disks                              Ÿ
                                   28344              Ÿ      4 - no, it's not                                               Ÿ
                                   28345              Ÿ                                                                     Ÿ
                                                      ¾þþþþþþþþþþþþþþþþþþþþþþþþþþþþþþþþþþþþþþþþþþþþþþþþþþþþþþþþþþþþþþþþþþþþþ»
0002AE2 50E0 D000/9008_      00000 28346              VOLCHK   XPROC
 USING  *,R7
 002AFC 5840 C740            00740 28386                       L     R4,CVVOLIST
 USING  VOLDSECT,R4                28387                       WITH  (VOLDSECT,R4)
                                   28400
 002B00 95FF 4000/4780_00000       28401                       WHILE (VOLDSECT,NE,X'FF'),BEGIN  Go through volumes...
 002B08 D505 4002 1000_00002 00000 28420  1                      IF    (VNAME,EQ,@R1),'CLEAR R15; B VCHKEXIT'  Matched
 002B18 4140 4044            00044 28447  1                      LA    R4,VOLENTSZ(,R4)    Next VOL entry
 002B1C 47F0 7004            02B00 28448                       END
                                   28453
 002B20 41F0 0004            00004 28454                       LA    R15,4               It's not a disk
 002B24 18D8/9808 D004_            28455              VCHKEXIT PEND
 DROP   VOLDSECT,R4
 DROP   *,R7
1DISK     (DISK4072) (12:42) (15MAR04) Look Up Volume Routine                                                               Page  106
0Current Usings:  (IOWA,R6) (CP,R11) (CV,R12)
0Loc    Object Code    Addr1 Addr2  Stmt Lv Lineno    Source Statement           (Hibal 5, Asmedit 3.3)  HLASM R4.0  2004/03/15 12.42
+___    ______ ____    _____ _____  ____ __ ______    ______ _________
0002B32 50E0 D000/9028_      00000 28482              DOUCBSR  XENTER R2,R8,*,LOCAL
 USING  *,R7
 002B4C D701 617A 617A 0017A 0017A 28500                       CLEAR DSTYPE
 USING  VOLDSECT,R2                28507                       USING VOLDSECT,R2
 002B52 5820 C740            00740 28516                       L     R2,CVVOLIST
 002B56 D505 2002 634E_00002 0034E 28517                       WHILE (VNAME,NE,DSVID),BEGIN
 002B60 4120 2044            00044 28537  1                      LA    R2,VOLENTSZ(,R2)    POINT AT NEXT
 002B64 95FF 2000/4780_00000       28538  1                      IF    (VOLDSECT,EQ,X'FF'),BADVOL
 002B6C 47F0 700A            02B56 28558                       END
 002B70 D201 617A 2000 0017A 00000 28563                       MVC   DSTYPE,VTYPE        Save volume type
 002B76 9180 2009/4710_00009       28564                       IF    VFLG2.VF2ALLO,DOALOXX  BR IF ALLOCATION
 002B7E 9140 2009/4710_00009       28583                       IF    VFLG2.VF2DALLO,DEALLOC  BR IF DEALLOCATION
 002B86 9140 2008/47E0_00008       28602                       IF    ~VFLG1.VF1AVAIL,VOLNTCUR  BR VOL UNAVAIL
 002B8E 9140 200A/4710_0000A       28621                       IF    VFLG3.VF3BKUP,VOLBKUP   BR IF BACKUP
 002B96 9120 2008/47E0_00008       28640                       IF    VFLG1.VF1PRIV,BEGIN DO IF PRIV ACCESS ONLY
 002B9E 9130 B3BE/4780_003BE       28656  1                      IF    (CPSFOPR+CPSFSPR,Z),NOVOLACS
 002BA6                            28679                       END
 002BA6 9101 2008/4710_00008       28683                       IF    ~VFLG1.VF1ON,BEGIN
 002BAE 9110 2008/4710_00008       28699  1                      IF    VFLG1.VF1PDA,VOLNTCUR  BR DEALLO PENDING
 002BB6 9180 2008/47E0_00008       28718  1                      IF    VFLG1.VF1PRES,BEGIN
 002BBE 9601 2008      00008       28734  2                        SET   VFLG1.VF1ON         TURN VOL ONLINE
 002BC2 47F0 70EE            02C3A 28741  2                        B     DOALOXX             AND GO TRY ALLOCATING IT
 002BC6                            28742  1                      END
 002BC6 47F0 7136            02C82 28746  1                      B     VOLNTCUR            NOT CURRENTLY AVAILABLE
 002BCA                            28747                       END
 002BCA 58F0 2024/12FF_      00024 28751                       IF    ('LT R15,VOLUCBAD',Z),DOALOXX  ALLOC IF NO UCB
 USING  UCBDSECT,R15               28770                       WITH  (UCBDSECT,R15),BEGIN
 002BD4 D505 634E F01C_0034E 0001C 28784  1                      IF    (DSVID,NE,UCBVOLI),DEALLOC
 002BDE 9180 F003/47E0_00003       28805  1                      IF    ~UCBSTAT.UCBONLI,DEALLOC  MAKE SURE ONLINE
 DROP   UCBDSECT,R15               28824                       END
                                   28832
 002BE6 50F0 6160            00160 28833                       ST    R15,UCB             SAVE UCB ADDR
 002BEA 5020 6164            00164 28834                       ST    R2,VOLENTRY         SAVE VOL TABLE ENTRY
 002BEE D207 6170 2000 00170 00000 28835                       MVC   DSDD(8),VTYPE       Move in DDNAME
 002BF4 1BFF                       28836                       CLEAR R15                 ZERO RC
 002BF6 9180 2008/4710_00008       28840                       IF    ~VFLG1.VF1PRES,'SET DFL.DFNOACTG'  ACCOUNT RES SPACE
 002C02 47F0 715A            02CA6 28868                       B     DOUCBRTN            RETURN TO CALLER
                                   28869
 002C06 94FE 2008      00008       28870              DEALLOC  CLEAR VFLG1.VF1ON         TURN VOL OFFLINE
 002C0A 9180 2008/4710_00008       28879                       IF    ~VFLG1.VF1PRES,'CLEAR VFLG1.VF1AVAIL'
 002C16 48F0 2028/12FF_      00028 28908                       IF    ('LTH R15,VOLUSECT',P),BEGIN
 002C20 9610 2008      00008       28924  1                      SET   VFLG1.VF1PDA        SET DEALLO PENDING
 002C24 47F0 7136            02C82 28931  1                      B     VOLNTCUR            TELL USER VOL NOT CURR AVAIL
 002C28                            28932                       END
 002C28 9640 2009      00009       28936                       SET   VFLG2.VF2DALLO      DEALLO VOLUME
 002C2C 1BFF                       28943              DOUCALD  CLEAR R15
 002C2E 50F0 6160            00160 28948                       ST    R15,UCB             ZERO UCB POINTER
 002C32 5020 6164            00164 28949                       ST    R2,VOLENTRY         SAVE VOL ENTRY
 002C36 47F0 715A            02CA6 28950                       B     DOUCBRTN
                                   28951
 002C3A 9140 2009/4710_00009       28952              DOALOXX  IF    VFLG2.VF2DALLO,NOALLOC
 002C42 9504 616C/4780_0016C       28972                       IF    ('CLI F2,DSNFCAT',EQ),NOALLOC  SKIP IF CAT OPER
 002C4A 9180 2008/4710_00008       28988                       IF    ~VFLG1.VF1PRES,'SET VFLG2.VF2QUIET'
 002C56 9540 2002/4770_00002       29016                       IF    (VNAME,EQ,' '),'SET VFLG1.VF1CLR'
1DISK     (DISK4072) (12:42) (15MAR04) Look Up Volume Routine                                                               Page  107
0Current Usings:  (VOLDSECT,R2) (IOWA,R6) (*,R7) (CP,R11) (CV,R12)
0Loc    Object Code    Addr1 Addr2  Stmt Lv Lineno    Source Statement           (Hibal 5, Asmedit 3.3)  HLASM R4.0  2004/03/15 12.42
+___    ______ ____    _____ _____  ____ __ ______    ______ _________
0002C62 9680 2009      00009       29045                       SET   VFLG2.VF2ALLO       ALLOCATE PLEASE
 002C66 D205 2002 634E 00002 0034E 29052                       MVC   VNAME,DSVID         SET UP VOL NAME
 002C6C D207 6170 2000 00170 00000 29053                       MVC   DSDD(8),VTYPE       SET UP DDNAME
 002C72 9180 2008/4710_00008       29054                       IF    ~VFLG1.VF1PRES,'SET DFL.DFNOACTG' ACNT RESIDENT SPACE 96
 002C7E 47F0 70E0            02C2C 29082                       B     DOUCALD
                                   29083
 002C82 41F0 005C            0005C 29084              VOLNTCUR LA    R15,RTNVOLNA        VOL NOT AVAILABLE
 002C86 47F0 715A            02CA6 29085                       B     DOUCBRTN
                                   29086
 002C8A 41F0 0068            00068 29087              VOLBKUP  LA    R15,RTNBKUP         VOLUME IN BACKKUP STATUS
 002C8E 47F0 715A            02CA6 29088                       B     DOUCBRTN
                                   29089
 002C92 41F0 0028            00028 29090              BADVOL   LA    R15,RTNBDVOL        UNKNOWN VOLUME
 002C96 47F0 715A            02CA6 29091                       B     DOUCBRTN
                                   29092
 002C9A 41F0 005C            0005C 29093              NOVOLACS LA    R15,RTNVOLNA        SET NO ACCESS TO VOLUME
 002C9E 47F0 715A            02CA6 29094                       B     DOUCBRTN
                                   29095
 002CA2 41F0 0058            00058 29096              NOALLOC  LA    R15,RTNALLER        SET ALLO ERROR
                                   29097              *        B     DOUCBRTN
                                   29098              *
 002CA6 18D8/58E0 D000_            29099              DOUCBRTN XEXIT ,,LTR
 DROP   VOLDSECT,R2                29105                       DROP  VOLDSECT,IOWA,BR
 DROP   IOWA,R6
 DROP   *,R7
1DISK     (DISK4072) (12:42) (15MAR04) Routine to Clear and Reset the JFCB                                                  Page  108
0Current Usings:  (CP,R11) (CV,R12)
0Loc    Object Code    Addr1 Addr2  Stmt Lv Lineno    Source Statement           (Hibal 5, Asmedit 3.3)  HLASM R4.0  2004/03/15 12.42
+___    ______ ____    _____ _____  ____ __ ______    ______ _________
0                                  29127              *** THIS SUBROUTINE CANNOT USE CP SINCE IT SOMETIMES OPERATES
                                   29128              ***   UNDER AN I/O SUBTASK.
 DROP   CP,R11                     29129                       DROP  CP
                                   29137
 002CB4 50E0 D000/9028_      00000 29138              CLRJFCB  XENTER R2,R8,TRACE=NO
 USING  *,R7
 USING  IOWA,R6                    29159                       USING IOWA
 002CC4 D2AF 6C94 68D8 00C94 008D8 29168                       MVC   JFCBSAVE(JFCBLGTH),JFCB  COPY JFCB
 002CCA D7AF 68D8 68D8 008D8 008D8 29169                       XC    JFCB(JFCBLGTH),JFCB CLEAR THE WHOLE THING
 002CD0 D207 6904 6CC0 00904 00CC0 29170                       MVC   JFCBELNM,JFCBSAVE+JFCBELNM-JFCB
 002CD6 D200 691A 6CD6 0091A 00CD6 29171                       MVC   JFCBLTYP,JFCBSAVE+JFCBLTYP-JFCB
 002CDC D201 691E 6CDA 0091E 00CDA 29172                       MVC   JFCBVLSQ,JFCBSAVE+JFCBVLSQ-JFCB
 002CE2 9240 692F      0092F       29173                       MVI   JFCBIND2,JFCOLD     Force DISP=OLD (no security bits)
 002CE6 D200 694D 6D09 0094D 00D09 29174                       MVC   JFCBNVOL,JFCBSAVE+JFCBNVOL-JFCB
 002CEC D21D 694E 6D0A 0094E 00D0A 29175                       MVC   JFCBVOLS,JFCBSAVE+JFCBVOLS-JFCB
 002CF2 D205 6960 76AC 00960 03370 29176                       MVC   JFCBVOLS+(4-1)*6(6),=CL6'      '
 002CF8 D200 6986 6D42 00986 00D42 29177                       MVC   JFCBVLCT,JFCBSAVE+JFCBVLCT-JFCB
                                   29178              **  JFCBDSNM  IS FILLED IN ELSEWHERE
 002CFE 18D8/58E0 D000_            29179                       XEXIT
 DROP   IOWA,R6                    29184                       DROP  IOWA,BR
 DROP   *,R7
                                   29198
 USING  CP,R11                     29199                       USING CP
1DISK     (DISK4072) (12:42) (15MAR04) Routine to Clear and Reset the JFCB                                                  Page  109
0Current Usings:  (CP,R11) (CV,R12)
0Loc    Object Code    Addr1 Addr2  Stmt Lv Lineno    Source Statement           (Hibal 5, Asmedit 3.3)  HLASM R4.0  2004/03/15 12.42
+___    ______ ____    _____ _____  ____ __ ______    ______ _________
0                                  29209              ¿þþþþþþþþþþþþþþþþþþþþþþþþþþþþþþþþþþþþþþþþþþþþþþþþþþþþþþþþþþþþþþþþþþþþþÜ
                                   29210              Ÿ                                                                     Ÿ
                                   29211              Ÿ  LOGDS -- Routine to log data set accesses.                         Ÿ
                                   29212              Ÿ    (Right now only "PUBLIC" data set accesses are logged.)          Ÿ
                                   29213              Ÿ                                                                     Ÿ
                                                      ¾þþþþþþþþþþþþþþþþþþþþþþþþþþþþþþþþþþþþþþþþþþþþþþþþþþþþþþþþþþþþþþþþþþþþþ»
0000000                00000 0007C 29214              SMFDS    RECORD BEGIN
 000000                            29222  1           SMFDATYP   DS    CL8                 COMMAND CODE (TYPE OF ACCESS)
 000008                            29223  1           SMFDDSN    DS    CL44                DATA SET NAME
 000034                            29224  1           SMFDMEMB   DS    CL8                 MEMBER NAME
 00003C                            29225  1           SMFDCMD    DS    CL64                COMMAND TEXT
 00007C                0007C 0007C 29226                       END
                                   29235              þþþþ
 002D0A 50E0 D000/90F8_      00000 29236              LOGDS    XENTER R15,R8,*,LOCAL
 USING  *,R7
 002D24 9108 C4C5/4710_004C5       29254                       IF    CVFINIT,LOGDSXIT    DON'T LOG IF IN INITIALIZATION
 002D2C D50A 7656 BE5C_0337A 00E5C 29272                       IF    (DSNWADSN,NE,'WYL.&PUBGRP..&PUBUSER..'),LOGDSXIT
 002D36 186D/41D0 D07C             29292                       XPUSH ,,L'SMFDS,PTR=R6
 USING  SMFDS,R6                   29295                       WITH  (SMFDS,R6),BEGIN
 002D3C D77B 6000 6000 00000 00000 29309  1                      CLEAR SMFDS
 002D42 D207 6000 C4D8 00000 004D8 29316  1                      MVC   SMFDATYP,CVBLANKS
 002D48 D202 6000 BD24 00000 00D24 29317  1                      MVC   SMFDATYP(3),CPCMNM   COMMAND NAME
 002D4E D22B 6008 BE5C 00008 00E5C 29318  1                      MVC   SMFDDSN,DSNWADSN    DSNAME
 002D54 D207 6034 BE88 00034 00E88 29319  1                      MVC   SMFDMEMB,DSNWAMBR   MEMBER NAME
 002D5A D23F 603C C4D8 0003C 004D8 29320  1                      MVC   SMFDCMD,CVBLANKS
 002D60 48F0 B240            00240 29321  1                      LH    R15,CPCMDLEN
 002D64 59F0 75F4/47D0_      03318 29322  1                      CEIL  R15,L'SMFDCMD
 002D70 06F0/12FF/4740_            29341  1                      MOVE  R15,SMFDCMD,CPCMD   COMMAND TEXT
 002D7C 41F0 75CC            032F0 29379  1                      LA    R15,=CL8'PUBDS'     TYPE OF RECORD
 002D80 1816/4100 007C             29380  1                      SETMSG SMFDS
 002D86 58E0 75F8/0DEE       0331C 29394  1                      VCALL SMFLOG              WRITE RECORD
 DROP   SMFDS,R6                   29398                       END
 002D8C 18D8/58E0 D000_            29406              LOGDSXIT XEXIT R15,R8
 DROP   *,R7                       29411                       DROP  BR
1DISK     (DISK4072) (12:42) (15MAR04) Disk Read (DREAD) Routine                                                            Page  110
0Current Usings:  (CP,R11) (CV,R12)
0Loc    Object Code    Addr1 Addr2  Stmt Lv Lineno    Source Statement           (Hibal 5, Asmedit 3.3)  HLASM R4.0  2004/03/15 12.42
+___    ______ ____    _____ _____  ____ __ ______    ______ _________
0                                  29419              ¿þþþþþþþþþþþþþþþþþþþþþþþþþþþþþþþþþþþþþþþþþþþþþþþþþþþþþþþþþþþþþþþþþþþþþÜ
                                   29420              Ÿ                                                                     Ÿ
                                   29421              Ÿ  DREAD -- Read a disk buffer.                                       Ÿ
                                   29422              Ÿ                                                                     Ÿ
                                                      ¾þþþþþþþþþþþþþþþþþþþþþþþþþþþþþþþþþþþþþþþþþþþþþþþþþþþþþþþþþþþþþþþþþþþþþ»
0000000                00000 00010 29423              DRDWA    RECORD BEGIN
 000000                            29431  1           DRDID      DS    XL16                Unique ID check
 000010                00010 00010 29432                       END
                                   29441              þþþþ
 002D98 50E0 D000/9028_      00000 29442              DREAD    XPROC (R2,LSR),DRDWA
 USING  *,R7
 USING  DRDWA-(4+28),R8
 002DB2 5860 BDDC            00DDC 29492                       L     IOWAR,CPIOWAP       IOWA ptr
 USING  IOWA,R6                    29493                       WITH  IOWA
                                   29505
 002DB6 5850 C1C8            001C8 29506                       L     JCBR,CVCURJCB
 002DBA BD57 6009/4770_      00009 29507                       IF    ('CLM JCBR,7,IWA@JCB+1',NE),NOTOPEN  BR NOT OURS
 USING  JCB,R5                     29523                       WITH  JCB
                                   29535
 002DC2 D20F 8020 7546 00000 032F8 29536                       MVC   DRDID,=CL(L'DRDID)'DATABUF 11223344'
 002DC8 B205 8028      00008       29537                       STCK  DRDID+8             Form unique ID
 002DCC D20F 6720 8020 00720 00000 29538                       MVC   DBUF(L'DRDID),DRDID  Initialize with unique ID
                                   29539
 002DD2 1BFF                       29540                       CLEAR R15
 002DD4 50F0 6378            00378 29544                       ST    R15,RETCOD          SAVE RETURN CODE
 002DD8 43F0 64A8            004A8 29545                       IC    R15,DCB+DCBKEYLE-IHADCB  GET KEY LENGTH
 002DDC 4820 75C4            03376 29546                       LH    R2,=Y(&BUFRMAX)     GET SIZE OF BUFFER
 002DE0 1B2F                       29547                       SR    R2,R15              SET BLKSIZE FOR READ
 002DE2 58E0 756E/0DEE       03320 29548                       VCALL AMODE24             ********
 002DE8 4110 637C/9280_      0037C 29552                       READ  DECB,SF,,,(2),MF=E
 002E02 58E0 7572/0DEE       03324 29561                       VCALL AMODE31             ********
 002E08 4100 0001/5E00_      00001 29565                       INCR  R0,CVNDIO           COUNT THE DISK I/O
 002E14 4100 0001/5E00_      00001 29571                       INCR  R0,JCBWIO           Count disk I/O
 002E20 5820 5070/1222       00070 29577                       LT    R2,JCBUCEP          Current component charges
 002E26 4780 7084            02E36 29581                       IF    NZ,BEGIN            Component is set...
 USING  UCE,R2                     29592  1                      WITH  (UCE,R2)
 002E2A 4100 0001/5E00_      00001 29605  1                      INCR  R0,UCEWIO           Ditto
 DROP   UCE,R2                     29611                       END
                                   29620
 002E36 4DE0 7606            033B8 29621                       LCALL DWAIT               Wait for I/O completion
                                   29623                       ¿þþþþþþþþþþþþþþþþþþþÜ
                                   29624                       Ÿ  Validity check.  Ÿ
                                   29625                       ¾þþþþþþþþþþþþþþþþþþþ»
 002E3A 12FF/4770 70BA             29626                       IF    (R15,Z),BEGIN       Only if good read completion...
 002E40 5900 7576/4750_      03328 29640  1                      IF    (R0,GE,L'DRDID),BEGIN  We've read a block...
 002E48 D50F 8020 6720_00000 00720 29657  2                        IF    (DRDID,EQ,DBUF),BEGIN  But our ID hasn't changed...
 002E52 0700/0ADE/211B_            29675  3                          QSNAP 'Read buffer check failed...',MODE=WTL
 002E5C 0ADE/220100/00_            29680  3                          QSNAP (R0)
 002E64 0ADE/284000006_            29685  3                          QSNAP DBUF,64
 002E6C                            29689  2                        END
 002E6C                            29693  1                      END
 002E6C                            29697                       END
                                   29701
1DISK     (DISK4072) (12:42) (15MAR04) Disk Read (DREAD) Routine                                                            Page  111
0Current Usings:  (CP,R11) (CV,R12)
0Loc    Object Code    Addr1 Addr2  Stmt Lv Lineno    Source Statement           (Hibal 5, Asmedit 3.3)  HLASM R4.0  2004/03/15 12.42
+___    ______ ____    _____ _____  ____ __ ______    ______ _________
0002E6C 18D8/9828 D004_            29702                       PEND
 DROP   JCB,R5
 DROP   IOWA,R6
 DROP   DRDWA-(4+28),R8
 DROP   *,R7
1DISK     (DISK4072) (12:42) (15MAR04) Disk Write (DWRITE) Routine                                                          Page  112
0Current Usings:  (CP,R11) (CV,R12)
0Loc    Object Code    Addr1 Addr2  Stmt Lv Lineno    Source Statement           (Hibal 5, Asmedit 3.3)  HLASM R4.0  2004/03/15 12.42
+___    ______ ____    _____ _____  ____ __ ______    ______ _________
0002E7A 50E0 D000/9028_      00000 29738              DWRITE   XPROC (R2,LSR)
 USING  *,R7
 002E94 5860 BDDC            00DDC 29778                       L     IOWAR,CPIOWAP       IOWA ptr
 USING  IOWA,R6                    29779                       WITH  IOWA
                                   29791
 002E98 5850 C1C8            001C8 29792                       L     JCBR,CVCURJCB
 002E9C BD57 6009/4770_      00009 29793                       IF    ('CLM JCBR,7,IWA@JCB+1',NE),NOTOPEN  BR NOT OURS
 USING  JCB,R5                     29809                       WITH  JCB
                                   29821
 002EA4 1230                       29822                       LTR   R3,R0
 002EA6 4720 701A/5830_      02EAE 29823                       IF    NP,'L R3,RECSIZE'
 002EAE 1BFF                       29840                       CLEAR R15
 002EB0 50F0 6378            00378 29844                       ST    R15,RETCOD          SAVE RETURN CODE
 002EB4 58E0 748C/0DEE       03320 29845                       VCALL AMODE24             ********
 002EBA 4110 637C/9220_      0037C 29849                       WRITE DECB,SF,,,(R3),MF=E
 002ED4 58E0 7490/0DEE       03324 29858                       VCALL AMODE31             ********
 002EDA 4100 0001/5E00_      00001 29862                       INCR  R0,CVNDIO           COUNT THE DISK I/O
 002EE6 4100 0001/5E00_      00001 29868                       INCR  R0,JCBWIO           Count disk I/O
 002EF2 5820 5070/1222       00070 29874                       LT    R2,JCBUCEP          Current component charges
 002EF8 4780 7074            02F08 29878                       IF    NZ,BEGIN            Component is set...
 USING  UCE,R2                     29889  1                      WITH  (UCE,R2)
 002EFC 4100 0001/5E00_      00001 29902  1                      INCR  R0,UCEWIO           DITTO
 DROP   UCE,R2                     29908                       END
                                   29917
 002F08 4DE0 7524            033B8 29918                       LCALL DWAIT
 002F0C 18D8/9828 D004_            29920                       PEND
 DROP   JCB,R5
 DROP   IOWA,R6
 DROP   *,R7
1DISK     (DISK4072) (12:42) (15MAR04) Disk Close (DCLOSE) Routine                                                          Page  113
0Current Usings:  (CP,R11) (CV,R12)
0Loc    Object Code    Addr1 Addr2  Stmt Lv Lineno    Source Statement           (Hibal 5, Asmedit 3.3)  HLASM R4.0  2004/03/15 12.42
+___    ______ ____    _____ _____  ____ __ ______    ______ _________
0002F1A 50E0 D000/9028_      00000 29951              DCLOSE   XENTER
 USING  *,R7
 002F34 5860 BDDC/1266       00DDC 29970                       LT    IOWAR,CPIOWAP       IOWA ptr
 002F3A 4770 7010            02F44 29974                       IF    Z,BEGIN             No disk path...
 002F3E 1BFF                       29985  1                      CLEAR R15                 Set good return code
 002F40 47F0 7332            03266 29989  1                      B     DCXX                Scram
 002F44                            29990                       END
                                   29994
 USING  IOWA,R6                    29995                       USING IOWA
                                   30004
 002F44 5850 C1C8            001C8 30005                       L     JCBR,CVCURJCB
 002F48 5950 6008/4780_      00008 30006                       FAIL  (JCBR,NE,IWA@JCB),DCLSERR,'Bad DCLOSE call'
 002F68 95FF 616C/4770_0016C       30035                       IF    (F2,EQ,DSNFSIMP),'CLEAR ERROR; B DCX'  Simple
 002F7A 9101 616C/47E0_0016C       30066                       IF    F2.DSNFPROT,BEGIN   SET/SHOW PROTECT
 002F82 9108 616C/4710_0016C       30082  1                      IF    ~F2.DSNFSHOW,BEGIN  DEQ for set only
 002F8A 58E0 73F8/0DEE       0332C 30098  2                        WAITOFF X                 A few extra dispatches...
 002F90 4110 6424/0A30       00424 30103  2                        DEQ   MF=(E,ENQVOL)
 002F96 58E0 73FC/0DEE       03330 30109  2                        WAITON X
 002F9C                            30114  1                      END
 002F9C 47F0 7328            0325C 30118  1                      B     DCX                 Release IOWA & return
 002FA0                            30119                       END
 002FA0 4130 6498            00498 30123                       LA    R3,DCB              Use R3 to address DCB
 USING  IHADCB,R3                  30124                       USING IHADCB,R3
 002FA4 9110 616C/47E0_0016C       30133                       IF    F2.DSNFALLO,BEGIN   ALLOCATE REQUEST...
 002FAC 4810 BF3C            00F3C 30149  1                      LH    R1,DSNNTRK          NO. OF TRACKS
 002FB0 9102 616A/4710_0016A       30150  1                      IF    DFL.DFUPTSPC,DCLALLO  ACCOUNT FOR SPACE
 002FB8 47F0 70F4            03028 30169  1                      B     DCLRET              SCRAM
 002FBC                            30170                       END
 002FBC D200 3024 6344 00024 00344 30174                       MVC   DCBRECFM(1),RRECFM  RESET FOR CLOSE
 002FC2 91E0 616C      0016C       30175                       TM    F2,DSNFWRT+DSNFSCR+DSNFPDS  TEST FUNCTION
 002FC6 4710 71CC            03100 30176                       BO    STOW                BR IF SCRATCH MEMBER
 002FCA 1BFF                       30177                       CLEAR R15                 INIT RETURN CODE
 002FCC 9102 616E/4710_0016E       30181                       IF    F4.DSNFRENA,CLOSNEOB  For rename member, just close
 002FD4 9102 301A      0001A       30199                       TM    DCBDSORG,DSORGPO    TEST FOR PDS
 002FD8 4710 70FA            0302E 30200                       BO    CLOSPDS             BR IF YES
 002FDC 9102 616A      0016A       30201                       TM    DFL,DFUPTSPC        IS SEQ SPACE ACCTG NEEDED
 002FE0 4780 71F2            03126 30202                       BZ    CLOSE               BR IF NOT
 002FE4 58E0 73EC/0DEE       03320 30203                       VCALL AMODE24             ********
 002FEA 1813/1FFF/BFF7_            30207                       NOTE  (R3)                GET ADDR OF LAST DATA BLOCK
 002FF4 58E0 73F0/0DEE       03324 30213                       VCALL AMODE31             ********
 002FFA 1BFF                       30217                       CLEAR R15                 INIT RETURN CODE
 002FFC 8810 0010            00010 30221                       SRL   R1,16               GET TT FROM TTRZ IN NOTE
 003000 1211                       30222                       LTR   R1,R1               IS IT STILL ON FIRST TRACK
 003002 4770 70E6            0301A 30223                       BNZ   DCLOSE2             BRANCH NO -- NOT SMALL FILE
 003006 5800 6374            00374 30224                       L     R0,DEVBLOCK         GET BLKSIZE FOR DEVICE
 00300A 8A00 0001            00001 30225                       SRA   R0,1                HALVE IT
 00300E BD03 3012            00012 30226                       C2    R0,DCBTRBAL         COMPARE TO BALANCE ON TRACK
 003012 4720 70E6            0301A 30228                       BH    DCLOSE2             NOT SMALL IF HIGH
 003016 9601 BD51      00D51       30229                       OI    CPLFLG2,CPFSMALL    SET SMALL DATA SET FLAG
 00301A 4111 0001            00001 30230              DCLOSE2  LA    R1,1(R1)            BY 1 BECAUSE REL TTR
 00301E 4A10 62FC            002FC 30231                       AH    R1,MEMBER+4         ADD IN ANY SCRATCH DIFFERENCE
 003022 58E0 7400/0DEE       03334 30232              DCLALLO  ACALL UPDTSPAC
 003028 1BFF                       30236              DCLRET   CLEAR R15                 INIT RETURN CODE
 00302A 47F0 71F2            03126 30241                       B     CLOSE
1DISK     (DISK4072) (12:42) (15MAR04) Disk Close (DCLOSE) Routine                                                          Page  114
0Current Usings:  (IHADCB,R3) (IOWA,R6) (*,R7) (CP,R11) (CV,R12)
0Loc    Object Code    Addr1 Addr2  Stmt Lv Lineno    Source Statement           (Hibal 5, Asmedit 3.3)  HLASM R4.0  2004/03/15 12.42
+___    ______ ____    _____ _____  ____ __ ______    ______ _________
0                                  30242              **
 00302E 9180 616C      0016C       30243              CLOSPDS  TM    F2,DSNFWRT          TEST OUTPUT
 003032 4780 71F2            03126 30244                       BZ    CLOSE               BR IF NOT
                                   30245              * WE MIGHT GET TO THIS POINT WITH A SAVE OF A VOID RANGE
 003036 9102 BD88/47E0_00D88       30246                       IF    ~CPFSOME,CLOSVOID   WAS IT A VOID RANGE
                                   30264                       COMMENT ,                 YES, DON'T UPDATE DIRECTORY
                                   30265              **  SET UP FOR STOW OF NEW/REPL MEMBER
 00303E D741 6300 6300 00300 00300 30266                       XC    BLDLTTR(STOWSZ-L'MEMBER),BLDLTTR  CLEAR TRASH
 003044 D703 6304 6304 00304 00304 30267                       CLEAR (STOWDATA,4)        Reserved
 00304A D203 6308 7404 00308 03338 30274                       MVC   STOWDATA+4(4),=C'WYL0'  indicates WYLBUR format
 003050 B205 630C      0030C       30275                       STCK  STOWDATA+8          High work of clock for date
 003054 D207 6310 C4D8 00310 004D8 30276                       MVC   STOWDATA+12(8),CVBLANKS  account field
 00305A D201 6310 B3B7 00310 003B7 30277                       MVC   STOWDATA+12(2),CPSGRP
 003060 924B 6312      00312       30278                       MVI   STOWDATA+14,C'.'
 003064 D202 6313 B3B4 00313 003B4 30279                       MVC   STOWDATA+15(3),CPSUSER
 00306A D229 6318 BF66 00318 00F66 30280                       MVC   STOWDATA+20(L'STOWDATA-20),DSAVTIT  user title
 003070 48F0 BF64            00F64 30281                       LH    R15,DSAVTITL        Title length
 003074 41F0 F015            00015 30282                       LA    R15,@R15+20+1       Account for header & round
 003078 88F0 0001            00001 30283                       SRL   R15,1               In halfwords
 00307C 42F0 6303            00303 30284                       STC   R15,STOWLEN         Save for STOW
                                   30285              * the stow routine calls eov to allocate a new extent if
                                   30286              * the eob will not fit in the data set.  wylbur does not
                                   30287              * allow extra extents to be allocated and many times wylbur
                                   30288              * would abend x37 because no extent was defined or no extent
                                   30289              * would be available.  therefore, the following code is needed
                                   30290              * to determine if the eob will fit without calling eov.  it is
                                   30291              * a duplicate of the test made by r21 mvt stow module igg0210a.
                                   30292              *
                                   30293              * the code first checks if the eob will fit on the track being
                                   30294              * used.  if it won't then it uses the resident convert routines
                                   30295              * to determine if there is another track in the current extent.
                                   30296              * this is done by converting the current absolute address to
                                   30297              * ttrn form, add 1 track to the tt, and convert back to
                                   30298              * absolute form.  the convert back has a zero return code if
                                   30299              * the track is within the data set, or a four return code if not
                                   30300              *
                                   30301              * the resident routines use  r1 as the deb ptr, r2 as the
                                   30302              * absolute address area, r0 as the ttrn contents.  r1-r8 are
                                   30303              * not changed by the routines. par-r13 are changed. rar is the
                                   30304              * return register, and r15 is the entry address.
 003080 1F22/BF27 300D             30305                       L3    R2,DCBDVTBL+1       GET DEVTABLE ADDRESS
 003086 1F11/4310 2007             30313                       LC    R1,@R2+7            OVERHEAD FOR KEYED LAST RECORD
 00308C 9108 2009      00009       30320                       TM    @R2+9,X'08'         IS OVERHEAD HALF WORD
 003090 4780 7164            03098 30321                       BZ    *+8                 NO, VALUE IS OK
 003094 4810 2006            00006 30322                       LH    R1,@R2+6            GET HALF WORD OVERHEAD
 003098 1F00/4300 2008             30323                       LC    R0,@R2+8            FOR KEYED RECORDS
 00309E 1B10                       30328                       SR    R1,R0               GET OVERHEAD FOR NO KEYS
 0030A0 BD13 3012            00012 30329                       C2    R1,DCBTRBAL         WILL EOB FIT ON THIS TRACK
 0030A4 4740 71AC            030E0 30331                       BL    STOWCR1             YES, EVERYTHING IS OK
                                   30332              * WON'T FIT ON THIS TRACK, CALCULATE NEXT TRACK AND SEE IF
                                   30333              * STILL IN DATA SET EXTENT.
 0030A8 1F11/BF17 302D             30334                       L3    R1,DCBDEBAD+1       GET DEB ADDRESS
 0030AE 5850 C1C8            001C8 30342                       L     R5,CVCURJCB
1DISK     (DISK4072) (12:42) (15MAR04) Disk Close (DCLOSE) Routine                                                          Page  115
0Current Usings:  (IHADCB,R3) (IOWA,R6) (*,R7) (CP,R11) (CV,R12)
0Loc    Object Code    Addr1 Addr2  Stmt Lv Lineno    Source Statement           (Hibal 5, Asmedit 3.3)  HLASM R4.0  2004/03/15 12.42
+___    ______ ____    _____ _____  ____ __ ______    ______ _________
0                                  30343                       ¿þþþþþþþþþþþþþþþþþþþþþþþþþþþþþþþþþþþþþþþþþþþþþþþþþþþþþþþþþþþþÜ
                                   30344                       Ÿ  Although the comment says below 16Meg, it is now okay to  Ÿ
                                   30345                       Ÿ  be above the line and called in 31-bit mode               Ÿ
                                   30346                       ¾þþþþþþþþþþþþþþþþþþþþþþþþþþþþþþþþþþþþþþþþþþþþþþþþþþþþþþþþþþþþ»
 0030B2 4120 50B0            000B0 30347                       WITH  (JCB,R5),'LA R2,JCBTEMP'  POINT TO 8-BYTE AREA, BELOW
 USING  JCB,R5
 DROP   JCB,R5
 0030B6 D207 2000 3005 00000 00005 30371                       MVC   @R2(8),DCBFDAD      LINE, SET IT TO CURRENT ABS ADDR
 0030BC 903D D000            00000 30372                       STM   R3,R13,@R13         SAVE REGISTERS
 0030C0 183D                       30373                       LR    R3,R13              AND R13
 0030C2 5840 0010            00010 30374                       L     R4,CVTPTR           GET POINTER TO CVT
 USING  CVT,R4                     30375                       USING CVT,R4
 0030C6 58F0 4020            00020 30384                       L     R15,CVTPRLTV        CONVERT MBBCCHHR
 0030CA 0DEF                       30385                       BASR  R14,R15             TO TTRN
 0030CC 5E00 7408            0333C 30386                       AL    R0,=XL4'10000'      POINT TO NEXT TRACK
 0030D0 58F0 401C            0001C 30387                       L     R15,CVTPCNVT        CONVERT TTRN
 0030D4 0DEF                       30388                       BASR  R14,R15             TO MBBCCHHR
 DROP   CVT,R4                     30389                       DROP  CVT
 0030D6 983D 3000            00000 30397                       LM    R3,R13,0(R3)        RESTORE REGISTERS
 0030DA 12FF                       30398                       LTR   R15,R15             IS NEXT TRACK OK
 0030DC 4770 71E4            03118 30399                       BNZ   CLOSVOID            NO, ABORT  THE STOW
 0030E0 1813                       30400              STOWCR1  LR    R1,R3               SET DCB ADDR
 0030E2 4100 62F8            002F8 30401                       LA    R0,MEMBER
 0030E6 94BF BD51      00D51       30402                       NI    CPLFLG2,255-CPFSCRTC  CLEAR IN CASE NOT REPL
 0030EA 9108 616A      0016A       30403                       TM    DFL,DFREPL          WAS IT REPL?
 0030EE 4780 71CC            03100 30404                       BZ    STOW                GO DO NOW IF NO
 0030F2 9640 BD51      00D51       30405                       OI    CPLFLG2,CPFSCRTC    RESET IT
 0030F6 1311                       30406                       LCR   R1,R1               INDICATE REPL FUNCT
 0030F8 41E0 72E8/50E0_      0321C 30407              STOW     WAITOFF X,ABEND=CLSERR
 003106 0A15                       30420                       SVC   21                  STOW
 003108 59F0 740C/4770_      03340 30421                       IF    (R15,EQ,12),'LH R15,=H"-2"'  directory full
 003114 47F0 71F8            0312C 30444                       B     CLOSE2
                                   30445              *
                                   30446              * An attempt was made to save a member of a PDS but the range
                                   30447              * was void.  Recover by not updating the directory or DSCB.
                                   30448              * Also used to bypass STOW if EOB won't fit.
 003118 11F6                       30449              CLOSVOID LNR   R15,R6              Set neg return code
                                   30450              * Enter here to close PDS without writing EOB.  Used by member rename
 00311A 947F 64C8      004C8       30451              CLOSNEOB NI    DCB+DCBOFLGS-IHADCB,X'7F'  Turn off last op write
 00311E 41E0 72E8/50E0_      0321C 30452              CLOSE    WAITOFF X,ABEND=CLSERR
 00312C 50F0 636C            0036C 30465              CLOSE2   ST    R15,ERROR           SAVE RETURN CODE
 003130 4110 6414/0A14       00414 30466                       CLOSE MF=(E,OPENLIST)     CLOSE DATA SET
-003136 91A0 616C/47E0_0016C       30471                       IF    F2.DSNFWRT*DSNFPDS,BEGIN
 00313E 4110 6390/0A1B       00390 30490  1                      OBTAIN DSCB               Get the new DSCB
 003144 12FF/4770 7298             30494  1                      IF    (R15,NZ),SKIPUTIL   Forget utilization stats
 00314A 4110 6170/4100_      00170 30511  1                      DEVTYPE DSDD,DVTAREA,DEVTAB
 003156 12FF/4770 7298             30517  1                      IF    (R15,NZ),SKIPUTIL   Forget utilization stats
 00315C 58E0 73FC/0DEE_      03330 30534  1                      WAITON X,CLEAR            Back out of hyper-space
 003168 D201 6268 69FD 00268 009FD 30546  1                      MVC   CCREDT(2),DS1TRBAL  Save TRBAL for later
 00316E D201 626A 69FA 0026A 009FA 30547  1                      MVC   CCREDT+2(2),DS1LSTAR Save LSTAR for later
0003174 D201 6734 68C2 00734 008C2 30549  1                      MVC   DS4DEVSZ+2(2),DVTNUMT "DVTOC2" needs this
1DISK     (DISK4072) (12:42) (15MAR04) Disk Close (DCLOSE) Routine                                                          Page  116
0Current Usings:  (IHADCB,R3) (IOWA,R6) (*,R7) (CP,R11) (CV,R12)
0Loc    Object Code    Addr1 Addr2  Stmt Lv Lineno    Source Statement           (Hibal 5, Asmedit 3.3)  HLASM R4.0  2004/03/15 12.42
+___    ______ ____    _____ _____  ____ __ ______    ______ _________
000317A D701 6ADA 6ADA 00ADA 00ADA 30550  1                      CLEAR SPTRK               Zero track count
 003180 58E0 7410/0DEE       03344 30557  1                      ACALL DVTOC2              Compute tracks for dataset
 003186 1F33/BF33 6ADA             30561  1                      L2    R3,SPTRK            R3 holds total tracks
000318C 1700                       30570  1                      XR    R0,R0               Clear even reg
 00318E 1F11/BF13 68C4             30571  1                      L2    R1,DVTTRKSZ         Load bytes per track
 003194 1722                       30579  1                      XR    R2,R2               Clear for ICM
 003196 1F22/BF23 6268             30580  1                      L2    R2,CCREDT           Load bytes left on last track
 00319C 1B12                       30588  1                      SR    R1,R2               Compute bytes used
 00319E 5C00 7414            03348 30589  1                      M     R0,=F'100'          Scale for percentage
 0031A2 1F22/BF23 68C4             30590  1                      L2    R2,DVTTRKSZ         Load bytes per track
 0031A8 1D02                       30598  1                      DR    R0,R2               Compute percent of last track
 0031AA 1821                       30599  1                      LR    R2,R1               Save in R2 for now
00031AC 1700                       30601  1                      XR    R0,R0               Clear high dividend reg
 0031AE 4810 626A            0026A 30602  1                      LH    R1,CCREDT+2         Load last track written
 0031B2 5C00 7414            03348 30603  1                      M     R0,=F'100'          Scale for percentage
 0031B6 1A12                       30604  1                      AR    R1,R2               Add in last track percentage
 0031B8 1D03                       30605  1                      DR    R0,R3               Compute percentage utilized
 0031BA 5010 BD7C            00D7C 30606  1                      ST    R1,CPWK8            Save number for later
-0031BE 41E0 72E8/50E0_      0321C 30608  1                      WAITOFF X,ABEND=CLSERR    Back into hyper-space
 0031CC                            30621                       END
-0031CC 9110 616E/47E0_0016E       30626              SKIPUTIL IF    F4.DSNFENQ,BEGIN    DEQ required...
 0031D4 5800 C714/5000_      00714 30642  1                      DEQ   RET=HAVE,TCB=CVITCBP,MF=(E,ENQDSN)
 00320C                            30661                       END
 00320C 58E0 73FC/0DEE_      03330 30665                       WAITON X,CLEAR
 003218 47F0 72EE            03222 30677                       B     CLSOK
 00321C D203 636C 7418 0036C 0334C 30678              CLSERR   MVC   ERROR,=A(X'FF')     DUMMY RETURN CODE FOR ABEND
 003222 58E0 741C/0DEE       03350 30679              CLSOK    ACALL VDALLO              GO CHECK DEALLO
 003228 58F0 636C            0036C 30683                       L     R15,ERROR           GET RETURN CODE
 00322C 12FF                       30684                       LTR   R15,R15             WAS IT NORMAL?
 00322E 4780 731E            03252 30685                       BZ    CHKCLCAT            BR IF YES
 003232 4740 7328            0325C 30686                       BM    DCX                 VOID OR STOW EOF RECORD PROB IF NEG
 003236 92F7 636D      0036D       30687                       MVI   ERROR+1,C'7'        EITHER I/O ERROR OR LOGIC PROB
 00323A 58E0 7420/0DEE       03354 30688                       ACALL CATER
 003240 58E0 7424/0DEE       03358 30692                       ACALL RELIOWA             Release IOWA
 003246 5800 6364            00364 30696                       L     R0,RECSIZE          RELOAD ERROR CODE
 00324A 41F0 006C            0006C 30697                       LA    R15,RTNCATER        SET CATASTROPHIC ERROR
 00324E 47F0 7332            03266 30698                       B     DCXX
-003252 58E0 7428/0DEE       0335C 30700              CHKCLCAT ACALL DCATLG              Do any cataloging
 003258 50F0 636C            0036C 30704                       ST    R15,ERROR
                                   30705
 00325C 58E0 7424/0DEE       03358 30706              DCX      ACALL RELIOWA             Release IOWA
 003262 58F0 636C            0036C 30710                       L     R15,ERROR           RESTORE R15
 003266 12FF                       30711              DCXX     LTR   R15,R15
 003268 18D8/58E0 D000_            30712                       XEXIT R2,R8               RETURN
 DROP   *,R7                       30717                       DROP  BR
                                   30724
1DISK     (DISK4072) (12:42) (15MAR04) Disk Close (DCLOSE) Routine                                                          Page  117
0Current Usings:  (IOWA,R6) (CP,R11) (CV,R12)
0Loc    Object Code    Addr1 Addr2  Stmt Lv Lineno    Source Statement           (Hibal 5, Asmedit 3.3)  HLASM R4.0  2004/03/15 12.42
+___    ______ ____    _____ _____  ____ __ ______    ______ _________
0DROP   IHADCB,R3                  30725                       DROP  IHADCB
1DISK     (DISK4072) (12:42) (15MAR04) Disk Close (DCLOSE) Routine                                                          Page  118
0Current Usings:  (IOWA,R6) (CP,R11) (CV,R12)
0Loc    Object Code    Addr1 Addr2  Stmt Lv Lineno    Source Statement           (Hibal 5, Asmedit 3.3)  HLASM R4.0  2004/03/15 12.42
+___    ______ ____    _____ _____  ____ __ ______    ______ _________
0                                  30734              ¿þþþþþþþþþþþþþþþþþþþþþþþþþþþþþþþþþþþþþþþþþþþþþþþþþþþþþþþþþþþþþþþþþþþþþÜ
                                   30735              Ÿ                                                                     Ÿ
                                   30736              Ÿ  RELIOWA -- Routine to release an I/O work area.                    Ÿ
                                   30737              Ÿ                                                                     Ÿ
                                                      ¾þþþþþþþþþþþþþþþþþþþþþþþþþþþþþþþþþþþþþþþþþþþþþþþþþþþþþþþþþþþþþþþþþþþþþ»
0003274 50E0 D000/9008_      00000 30738              RELIOWA  PROC
 USING  *,R7
                                   30777                       ¿þþþþþþþþþþþþþþþþþþþþþþþþþþþþþþþþþþþþþþþþþÜ
                                   30778                       Ÿ  Release any temporary GETMAIN buffer.  Ÿ
                                   30779                       ¾þþþþþþþþþþþþþþþþþþþþþþþþþþþþþþþþþþþþþþþþþ»
 00328E 5810 6450/1211_      00450 30780                       IF    ('LT R1,IOWALOC',NZ),BEGIN  release getmain buffer...
 003298 5800 6454            00454 30796  1                      L     R0,IOWALEN
 00329C D703 6450 6450_00450 00450 30797  1                      CLEAR IOWALOC,IOWALEN
 0032A8 4110 1000/0A0A       00000 30809  1                      FREEMAIN R,A=(1),LV=(0)
 0032AE                            30813                       END
                                   30817                       ¿þþþþþþþþþþþþþþþþþþþþþþþþþþþþþþÜ
                                   30818                       Ÿ  Release the IOWA resource.  Ÿ
                                   30819                       ¾þþþþþþþþþþþþþþþþþþþþþþþþþþþþþþ»
 0032AE 58E0 70D2/0DEE       03360 30820                       VCALL ACEECLR             Clear user's ACEE pointer
 0032B4 4110 0004/1B00_      00004 30824                       FREERSC IOW               Free up the I/O work area
 0032DC D703 BDDC BDDC 00DDC 00DDC 30863                       CLEAR CPIOWAP             No IOWA owned any more
 0032E2 18D8/9808 D004_            30870                       PEND
 DROP   *,R7
                                   30890
                                   30891                       QLTORG
1DISK     (DISK4072) (12:42) (15MAR04) Disk Close (DCLOSE) Routine                                                          Page  119
0Current Usings:  (IOWA,R6) (CP,R11) (CV,R12)
0Loc    Object Code    Addr1 Addr2  Stmt Lv Lineno    Source Statement           (Hibal 5, Asmedit 3.3)  HLASM R4.0  2004/03/15 12.42
+___    ______ ____    _____ _____  ____ __ ______    ______ _________
0                                  30937              *  PROCESS REQUEST ON UNOPENED FILE
                                   30938              *
 0033A6 0D70                       30939              NOTOPEN  BASE
 USING  *,R7
 0033A8 4110 0045/4100_      00045 30953                       ABEND 69,DUMP,STEP
 DROP   *,R7                       30962                       DROP  BR
1DISK     (DISK4072) (12:42) (15MAR04) Disk Wait (DWAIT) Routine                                                            Page  120
0Current Usings:  (IOWA,R6) (CP,R11) (CV,R12)
0Loc    Object Code    Addr1 Addr2  Stmt Lv Lineno    Source Statement           (Hibal 5, Asmedit 3.3)  HLASM R4.0  2004/03/15 12.42
+___    ______ ____    _____ _____  ____ __ ______    ______ _________
0                                  30970              *** ROUTINE TO WAIT FOR DISK I/O
                                   30971              ¿þþþþþþþþþþþþþþþþþþþþþþþþþþþþþþþþþþþþþþþþþþþþþþþþþþþþþþþþþþþþþþþþþþþþþÜ
                                   30972              Ÿ                                                                     Ÿ
                                   30973              Ÿ  UNDER NORMAL CIRCUMSTANCES, THIS ROUTINE GOES DIRECTLY TO THE      Ÿ
                                   30974              Ÿ    WYLBUR DISPATCHER.  THUS, THE REGISTERS ARE SAVED IN THE CP.     Ÿ
                                   30975              Ÿ    THE EXCEPTION TO THIS IS WHEN AN I/O OPERATION IS COMPLETED      Ÿ
                                   30976              Ÿ    IMMEDIATELY BECAUSE THERE IS NO MORE ROOM IN A PDS.  INSTEAD     Ÿ
                                   30977              Ÿ    OF LETTING THE CHECK MODULE CALL EOV AND ABEND, THE APPROPRIATE  Ÿ
                                   30978              Ÿ    FLAGS ARE TURNED OFF TO PREVENT STOW AND DSCB UPDATING AND       Ÿ
                                   30979              Ÿ    DCLOSE IS USED TO CLOSE THE DATA SET.  FOR THIS FUNCTION, IT     Ÿ
                                   30980              Ÿ    IS NECESSARY TO SAVE THE REGISTERS IN THE STANDARD WAY SO THAT   Ÿ
                                   30981              Ÿ    WHEN DCLOSE CALLS THE DISPATCHER THE REGISTERS IN THE CP ARE     Ÿ
                                   30982              Ÿ    NOT OVERLAID CAUSING A LOOP.                                     Ÿ
                                   30983              Ÿ                                                                     Ÿ
                                                      ¾þþþþþþþþþþþþþþþþþþþþþþþþþþþþþþþþþþþþþþþþþþþþþþþþþþþþþþþþþþþþþþþþþþþþþ»
00033B8 50E0 D000/9058_      00000 30984              DWAIT    XENTER R5,R8,*,LOCAL
 USING  *,R7
                                   31002                       USING IOWA
 0033D2 9140 637C/4780_0037C       31004                       IF    (DECB.X'40',Z),DW   WAITING FOR POST...
                                   31025              **  IF OPERATION IS IMMEDIATELY COMPLETE CHECK FOR OPERATION
                                   31026              *        NOT INITIATED.  IF NOT, CHECK OUT OF SPACE AND BYPASS
                                   31027              *        FURTHER PROCESSING.
                                   31028              *
 0033DA 9120 6381      00381       31029              POSTED   TM    DECB+5,X'20'        WAS IT A WRITE?
 0033DE 4780 7040            03412 31030                       BZ    DWNB                BR IF NO
 0033E2 9120 64D4      004D4       31031                       TM    DCB+DCBCIND1-IHADCB,X'20'  WAS IT EOV?
 0033E6 4780 7040            03412 31032                       BZ    DWNB                BR IF NO
 0033EA 9102 64B2      004B2       31033                       TM    DCB+DCBDSORG-IHADCB,DSORGPO  PDS?
 0033EE 4780 7040            03412 31034                       BZ    DWNB                No, then allow extents
                                   31035              **  OUT OF SPACE IN PDS. TURN OFF WRITE FLAG TO PREVENT DSCB
                                   31036              *      UPDATE DURING CLOSE.
 0033F2 947F 64C8      004C8       31037                       NI    DCB+DCBOFLGS-IHADCB,X'7F'
 0033F6 1FFF/BFF7 64DD             31038                       L3    R15,DCB+(DCBIOBA+1-IHADCB) GET IOB ADDR
 0033FC 94BF F000      00000       31046                       NI    @R15,X'BF'          INDICATE NO WRITE IN PROGRESS
 003400 947F 616C      0016C       31047                       NI    F2,255-DSNFWRT  TELL CLOSE IT'S INPUT/BYPASS STOW A06
                                   31048              *  Note:  Call "DCLOSE", not "EXTCLOSE".  EXTCLOSE will try to
                                   31049              *     do a DSKWRITE if there is something in a buffer and will
                                   31050              *     loop.  All EXTCLOSE does is to call DCLOSE in the normal
                                   31051              *     case anyway.
 003404 58E0 7286/0DEE       03658 31052                       ACALL DCLOSE
 00340A 41F0 000C            0000C 31056                       LA    R15,RTNNOSPC        RETURN CODE FOR NO SPACE
 00340E 47F0 7074            03446 31057                       B     DWTEXIT             BR TO END
                                   31058
 003412 58E0 728A/0DEE       0365C 31059              DWNB     VCALL AMODE24             ********
 003418 4110 637C/58E0_      0037C 31063                       CHECK DECB
 003428 1F33/BF37 638D             31070              DWCL     L3    R3,DECB+16+1        POINT TO IOB
 00342E 1F00/4300 64A8             31078                       LC    R0,DCB+DCBKEYLE-IHADCB  GET ANY KEY LENGTH
 003434 4A00 6382            00382 31083                       AH    R0,DECB+6           ADD BLKSIZE TO GET ORIG LEN
 003438 4B00 300E            0000E 31084                       SH    R0,@R3+14           SUB RESID TO GET READ CNT
 00343C 58F0 6378            00378 31085              DWCL1    L     R15,RETCOD          LOAD RETURN CODE
 003440 58E0 728E/0DEE       03660 31086              DWTXW    VCALL AMODE31             ********
                                   31090
 003446 18D8/58E0 D000_            31091              DWTEXIT  XEXIT R5,R8,LTR
1DISK     (DISK4072) (12:42) (15MAR04) Disk Wait (DWAIT) Routine                                                            Page  121
0Current Usings:  (IOWA,R6) (*,R7) (CP,R11) (CV,R12)
0Loc    Object Code    Addr1 Addr2  Stmt Lv Lineno    Source Statement           (Hibal 5, Asmedit 3.3)  HLASM R4.0  2004/03/15 12.42
+___    ______ ____    _____ _____  ____ __ ______    ______ _________
0                                  31097
 003454 41F0 0004            00004 31098              EODAD    LA    R15,4
 003458 47F0 706E            03440 31099                       B     DWTXW
                                   31100
 00345C 4130 0004            00004 31101              SYNAD    LA    R3,4
 003460 1333                       31102                       LCR   R3,R3               MAKE NEGATIVE
 003462 5030 6378            00378 31103                       ST    R3,RETCOD           SAVE RETURN CODE
 003466 07FE                       31104                       BR    RAR
                                   31105                        ¿þþþþþþþþþþþþþþþþÜ
                                   31106                        Ÿ  NOT COMPLETE  Ÿ
                                   31107                        ¾þþþþþþþþþþþþþþþþ»
 003468 9680 6014      00014       31108              DW       SET   IWA1ACTV            SET IT ACTIVE
 00346C 5850 C1C8            001C8 31115                       L     JCBR,CVCURJCB       GET CURRENT JCB
 003470 9620 5060/41E0_00060       31116                       WITH  JCB,'PAUSE JCBWFD'  WAIT FOR THE POST
 USING  JCB,R5
 DROP   JCB,R5
 003482 47F0 7008            033DA 31151                       B     POSTED
1DISK     (DISK4072) (12:42) (15MAR04) Volume Allocate/Deallocate Subroutines                                               Page  122
0Current Usings:  (IOWA,R6) (*,R7) (CP,R11) (CV,R12)
0Loc    Object Code    Addr1 Addr2  Stmt Lv Lineno    Source Statement           (Hibal 5, Asmedit 3.3)  HLASM R4.0  2004/03/15 12.42
+___    ______ ____    _____ _____  ____ __ ______    ______ _________
0003486 50E0 D000/9048_      00000 31153              VDALLO   XENTER R4,R8
 DROP   *,R7
 USING  *,R7
 USING  VOLDSECT,R5                31175                       USING VOLDSECT,R5
 0034A0 5850 6164            00164 31184              ALOBASE  L     R5,VOLENTRY         GET VOLENTRY POINTER
 0034A4 48F0 5028            00028 31185                       LH    R15,VOLUSECT        GET VOL USE COUNT
 0034A8 12FF                       31186                       LTR   R15,R15             POSITIVE USE COUNT?
 0034AA 47D0 7020            034C0 31187                       BNP   VDAVOL              BR IF NOT DEALLO NOW!
 0034AE 46F0 7016            034B6 31188                       BCT   R15,*+8             BUMP OVER IF IN USE
 0034B2 47F0 7020            034C0 31189                       B     VDAVOL              GO DEALLO VOLUME
 0034B6 40F0 5028            00028 31190                       STH   R15,VOLUSECT        SAVE NEW USE COUNT
 0034BA 1BFF                       31191                       CLEAR R15
 0034BC 47F0 71A6            03646 31195                       B     VALLODN             BR ALL DONE
                                   31196
 0034C0 40F0 5028            00028 31197              VDAVOL   STH   R15,VOLUSECT        ZERO USE COUNT
 0034C4 9101 5008      00008       31198                       TM    VFLG1,VF1ON         IS IT ONLINE?
 0034C8 4710 71A6            03646 31199                       BO    VALLODN             BR IF SO, ALL DONE
 0034CC D717 6480 6480 00480 00480 31200                       XC    PARREQCD(PARAMEND-PARREQCD),PARREQCD  CLEAR PARMS
 0034D2 9202 6480      00480       31201                       MVI   PARREQCD,PARRUNAL   UNALLOCATE REQUEST
 0034D6 9280 6481      00481       31202                       MVI   PARFLAG,PARFWAIT    WAIT ON RESOURCES
 0034DA D207 6484 5000 00484 00000 31203                       MVC   PARDDNAM(8),VTYPE   SET CORRECT DDNAME
 0034E0 4110 6480            00480 31204                       LA    R1,PARREQCD         POINT TO PARM LIST
 0034E4 50F0 5024            00024 31205                       ST    R15,VOLUCBAD        ZERO UCBADDR
 0034E8 9108 5008      00008       31206                       TM    VFLG1,VF1CLR        CLEAR REQUEST?
 0034EC 4780 7062            03502 31207                       BZ    VDAWTOF             BR IF NOT
 0034F0 D205 5002 C4D8 00002 004D8 31208                       MVC   VNAME,CVBLANKS      CLEAR NAME
 0034F6 D713 5010 5010 00010 00010 31209                       XC    VOLJUNK,VOLJUNK     CLEAR STAT AREA
 0034FC D713 5030 5030 00030 00030 31210                       XC    VOLOWNR,VOLOWNR     CLEAR VOL OWNER AREA
 003502 D201 6178 5008 00178 00008 31211              VDAWTOF  MVC   WAVFLG1(2),VFLG1    SAVE FLAGS FOR DEALLO
 003508 94E7 5008      00008       31212                       NI    VFLG1,255-VF1CLR-VF1PDA  RESET DEALLO FLAGS
 00350C 9400 5009      00009       31213                       NI    VFLG2,0             ZERO FLAG2
 003510 9610 5009      00009       31214                       OI    VFLG2,VF2ADACT      MARK VOLUME AS BUSY
 003514 58E0 71C8/0DEE       03668 31215                       DYNALO (R1)               Call dynamic allocation
 00351A 94EF 5009      00009       31224                       NI    VFLG2,255-VF2ADACT  RESET VOLUME BUSY FLAG
 00351E 9502 616C      0016C       31225                       CLI   F2,DSNFVALO         ALLO/DEALLO CALL
 003522 4780 708E            0352E 31226                       BE    VDATRC              BR IF SO TAKE RC EXIT
 003526 9140 6179      00179       31227                       TM    WAVFLG2,VF2DALLO    DID WE HAVE BAD VOL DEALLO?
 00352A 4710 7192            03632 31228                       BO    NOTAVAIL            BR IF SO TAKE ERROR EXIT
 00352E 12FF                       31229              VDATRC   LTR   R15,R15             HOW DID WE DO?
 003530 4780 71A6            03646 31230                       BZ    VALLODN             BR IF OK
 003534 47F0 7104            035A4 31231                       B     VALLORC             BR TO GIVE RETURN
-003538 50E0 D000/9048_      00000 31233              VALLOCAT XENTER R4,R8
 DROP   *,R7
 USING  *,R7
 003552 5870 711A            0366C 31255                       BASE  ALOBASE
 DROP   *,R7
 USING  ALOBASE,R7
 003556 5850 6164            00164 31273                       L     R5,VOLENTRY         SET UP VOLENTRY
 00355A 9180 5009      00009       31274                       TM    VFLG2,VF2ALLO       WANT TO ALLOCATE?
 00355E 4780 7148            035E8 31275                       BZ    ALDEVTYP            BR IF JUST DEVTYPE
 003562 5800 5024/1200_      00024 31276                       IF    ('LT R0,VOLUCBAD',NZ),ALLOGOT  Already there?
 00356C D717 6480 6480 00480 00480 31295                       XC    PARREQCD(PARAMEND-PARREQCD),PARREQCD CLEAR PARM LI
1DISK     (DISK4072) (12:42) (15MAR04) Volume Allocate/Deallocate Subroutines                                               Page  123
0Current Usings:  (VOLDSECT,R5) (IOWA,R6) (ALOBASE,R7) (CP,R11) (CV,R12)
0Loc    Object Code    Addr1 Addr2  Stmt Lv Lineno    Source Statement           (Hibal 5, Asmedit 3.3)  HLASM R4.0  2004/03/15 12.42
+___    ______ ____    _____ _____  ____ __ ______    ______ _________
0003572 9201 6480      00480       31296                       MVI   PARREQCD,PARRALLO   SET ALLOCATE REQUEST
 003576 9108 5009/47E0_00009       31297                       IF    VFLG2.VF2MOUNT,'MVI PARREQCD,PARRMNT'  Mount?
 003582 D201 6484 5000 00484 00000 31319                       MVC   PARDDCOD,VTYPE      MOVE IN DDCODE
 003588 D205 6486 5002 00486 00002 31320                       MVC   PARDDVOL,VNAME      AND VOLUME NAME
 00358E 9280 6481      00481       31321                       MVI   PARFLAG,PARFWAIT    WAIT FOR IT TO COME
 003592 4110 6480            00480 31322                       LA    R1,PARREQCD         PT TO PARM LIST
 003596 9610 5009      00009       31323                       OI    VFLG2,VF2ADACT      SET VOLUME BUSY NOW
 00359A 58E0 71C8/0DEE       03668 31324                       DYNALO (R1)               Call dynamic allocation
 0035A0 9467 5009      00009       31333                       NI    VFLG2,255-VF2ALLO-VF2ADACT-VF2MOUNT
                                   31334              *                                  Reset ALLO/BUSY/MOUNT request
 0035A4 49F0 71D0            03670 31335              VALLORC  CH    R15,=H'40'          RETURN CODE TOO HIGH?
 0035A8 4720 718A            0362A 31336                       BH    ALLOCERR            REPORT ERROR
 0035AC 47FF 7110            035B0 31337                       B     *+4(15)
 0035B0 47F0 713C            035DC 31338                       B     ALLOSUCC            0 - Success
 0035B4 47F0 717A            0361A 31339                       B     ALLOBUSY            4 - CAN'T ENQ
 0035B8 47F0 719A            0363A 31340                       B     NOVPATH             8 - NO DD ENTRIES
 0035BC 47F0 71A2            03642 31341                       B     NOVOL               12 - VOLUME NOT MOUNTED
 0035C0 47F0 718A            0362A 31342                       B     ALLOCERR            16 - PARM ERROR
 0035C4 47F0 718A            0362A 31343                       B     ALLOCERR            20 - BAD DEVICE CODE
 0035C8 47F0 718A            0362A 31344                       B     ALLOCERR            24 - INVALID ADDRESS
 0035CC 47F0 718A            0362A 31345                       B     ALLOCERR            28 - INVALID DD (UNALLOCATE)
 0035D0 47F0 718A            0362A 31346                       B     ALLOCERR            32 - MISSING DD
 0035D4 47F0 718A            0362A 31347                       B     ALLOCERR            36 - JOB Q I/O ERROR
 0035D8 47F0 7192            03632 31348                       B     NOTAVAIL            40 - VOLUME NOT ALLOCATABLE
-0035DC                            31350              ALLOSUCC LABEL
                                   31352              **** PUT IN CHARGING ROUTINE STUFF HERE ****
 0035DC 5000 5024            00024 31353                       ST    R0,VOLUCBAD         Save UCB address
 0035E0                            31354              ALLOGOT  LABEL
 0035E0 9640 5008      00008       31356                       OI    VFLG1,VF1AVAIL      SET AVAILABLE
 0035E4 5000 6160            00160 31357                       ST    R0,UCB              TRANSFER UCB ADDR TO IOWA
 0035E8 4110 6170/4100_      00170 31358              ALDEVTYP DEVTYPE DSDD,DVTAREA,DEVTAB
 0035F4 D203 634A 68B8 0034A 008B8 31364                       MVC   DEVCODE(4),DVTDEVCD SAVE DEVCODE
 0035FA D201 6734 68C2 00734 008C2 31365                       MVC   DS4DEVSZ+2(2),DVTNUMT  SET IN CASE FMT4 NOT READ
 003600 1BFF                       31366                       SR    R15,R15             SET R15 FOR OK
 003602 9520 634C      0034C       31367                       CLI   DEVCODE+2,X'20'     IS IT DIRECT ACCESS?
 003606 4770 71A2            03642 31368                       BNE   NOVOL               BR IF NOT
 00360A 4100 0001/4A00_      00001 31369                       COUNT VOLUSECT,LENGTH=2   BUMP VOLUME USE COUNT
 003616 47F0 71A6            03646 31373                       B     VALLODN             FINISH UP
                                   31374
 00361A 41F0 004C            0004C 31375              ALLOBUSY LA    R15,RTNBUSY         SET RETURN CODE
 00361E 47F0 71A6            03646 31376                       B     VALLODN
                                   31377
 003622 41F0 0058            00058 31378              CANTALLO LA    R15,RTNALLER        SET RETURN CODE
 003626 47F0 71A6            03646 31379                       B     VALLODN
                                   31380
 00362A 41F0 0058            00058 31381              ALLOCERR LA    R15,RTNALLER        SET RETURN CODE
 00362E 47F0 71A6            03646 31382                       B     VALLODN
                                   31383
 003632 41F0 005C            0005C 31384              NOTAVAIL LA    R15,RTNVOLNA        SET RETURN CODE
 003636 47F0 71A6            03646 31385                       B     VALLODN
                                   31386
 00363A 41F0 0060            00060 31387              NOVPATH  LA    R15,RTNVOLNO        SET RETURN CODE
1DISK     (DISK4072) (12:42) (15MAR04) Volume Allocate/Deallocate Subroutines                                               Page  124
0Current Usings:  (VOLDSECT,R5) (IOWA,R6) (ALOBASE,R7) (CP,R11) (CV,R12)
0Loc    Object Code    Addr1 Addr2  Stmt Lv Lineno    Source Statement           (Hibal 5, Asmedit 3.3)  HLASM R4.0  2004/03/15 12.42
+___    ______ ____    _____ _____  ____ __ ______    ______ _________
000363E 47F0 71A6            03646 31388                       B     VALLODN
                                   31389
 003642 41F0 0028            00028 31390              NOVOL    LA    R15,RTNBDVOL        INVALID VOLUME REQUEST
                                   31391              *        B     VALLODN
 DROP   VOLDSECT,R5                31392                       DROP  VOLDSECT
 003646 18D8/58E0 D000_            31400              VALLODN  XEXIT R4,R8,LTR
-                                  31407                       QLTORG
1DISK     (DISK4072) (12:42) (15MAR04) Catalog Manipulation (DCATLG) Routine                                                Page  125
0Current Usings:  (IOWA,R6) (ALOBASE,R7) (CP,R11) (CV,R12)
0Loc    Object Code    Addr1 Addr2  Stmt Lv Lineno    Source Statement           (Hibal 5, Asmedit 3.3)  HLASM R4.0  2004/03/15 12.42
+___    ______ ____    _____ _____  ____ __ ______    ______ _________
0                                  31427              ***  ROUTINE TO DO CATLG/RECATLG/UNCATLG
                                   31428              *
 003672 50E0 D000/9028_      00000 31429              DCATLG   XENTER R2,R8,32,LOCAL
 DROP   ALOBASE,R7
 USING  *,R7
 00368C 1BFF                       31450                       CLEAR R15
 00368E 9120 BD56/4710_00D56       31454                       IF    CPFNOCAT,DCATNO     Nothing to do, scram
                                   31472            C          IF    (~CPFUNCAT,AND,(DSNON6,EQ,DSNCATV),AND,
 003696 9110 BD56/4710_00D56                                         ~F4.DSNFRENA),DCATNO  scram
 0036B0 9120 616C/4710_0016C       31519                       IF    F2.DSNFPDS,DCATNO   Skip for PDS operations
                                   31538
 0036B8 9110 BD56/4710_00D56       31539                       IF    ~CPFUNCAT,BEGIN     Going to catalog...
 0036C0 9120 BF37/47E0_00F37       31554  1                      IF    ~DSNFBADN,EXIT      it's a good name, scram
 0036C8 9120 B3BE/4710_003BE       31572  1                      IF    CPSFSPR,EXIT        Allow good guys
 0036D0 41F0 0018            00018 31590  1                      LA    R15,24              Invalid dsname
 0036D4 47F0 70E8            03774 31591  1                      B     DCATX
 0036D8                            31592                       END
                                   31596
 0036D8 58F0 7104            03790 31597              GETCATF  L     R15,CAMCAT          Catalog
 0036DC 9110 BD56/47E0_00D56       31598                       IF    CPFUNCAT,'L R15,CAMUNC'  uncatalog
 0036E8 9108 BD56/47E0_00D56       31619                       IF    CPFRECAT,'L R15,CAMRECAT'  recatalog
 0036F4 50F0 63F4            003F4 31640                       ST    R15,CATLST          AND STORE IN CAMLIST
 0036F8 94DF 634B      0034B       31641                       NI    DEVCODE+1,255-X'20' TURN OFF SHARED CPU DASD BIT
                                   31642              *              FOR CATLG ENTRY (SAME AS IBM UTILITIES)
 0036FC 9200 6355      00355       31643                       MVI   SCRRET,0            CLEAR DATA SET SEQ NO FIELD
 003700 58E0 7B54/0DEE       041E0 31644                       VCALL ACEECLR             SET TO BYPASS RACF PROTECTION
 003706 4DE0 7A3C            040C8 31648                       WAITOFF
 00370A 4110 63F4            003F4 31651                       LA    R1,CATLST           SET TO USE
                                   31652              *  Do CVOL lookup for standard dsnames.  Since dsn may be in "dsname"
                                   31653              *  or "newdsnam" field, pick up address from CAMLST.
 00370E 58F0 1004/58E0_      00004 31654                       DOWYLCVL L:@R1+4
 003718 0A1A                       31664                       CATALOG (1)               DO FUNCTION
 00371A 4DE0 7BBE            0424A 31668                       WAITON
 00371E 4110 1000            00000 31671                       LA    R1,@R1              DROP HIGH BYTE
 003722 41F0 F000            00000 31672                       LA    R15,@R15            Drop high byte
 003726 49F0 7BA4            04230 31673                       CH    R15,=H'8'           RC=8 means real code in R1
 00372A 4770 70E8            03774 31674                       BNE   DCATX               BR IF NOT RETURN CODE 8
 00372E 1211/4770 70B8_            31675                       IF    ((R1,Z),AND,(R0,EQ,56)),'LA R15,68; B DCATX'
 003744 1211/4770 70C4_            31712                       IF (R1,Z),'LR R1,R0; LA R1,@R1'
 003750 9108 BD56/47E0_00D56       31733                       IF    ~CPFRECAT,DCATXX    Not recatalog, we give up
 003758 4910 7BA4            04230 31751                       CH    R1,=H'8'            WAS DATA SET NOT FOUND
 00375C 4770 70DC            03768 31752                       BNE   DCATXX              NO, MUST BE REAL ERROR
 003760 94F7 BD56      00D56       31753                       CLEAR CPFRECAT            Not a recatalog
 003764 47F0 704C            036D8 31760                       B     GETCATF             GO DO CATLG
                                   31761
 003768 41F0 1020            00020 31762              DCATXX   LA    R15,32(,R1)         Set R15 to RC+32
 00376C 47F0 70E8            03774 31763                       B     DCATX
                                   31764
 003770 9620 BD56      00D56       31765              DCATNO   SET   CPFNOCAT            No cataloging was done
 003774 12FF/4780 70F2_            31772              DCATX    IF    (R15,NZ),'SET CPFNOCAT'  we didn't catalog it
 00377E 18D8/58E0 D000_            31798                       XEXIT ,,LTR
-
1DISK     (DISK4072) (12:42) (15MAR04) Catalog Manipulation (DCATLG) Routine                                                Page  126
0Current Usings:  (IOWA,R6) (*,R7) (CP,R11) (CV,R12)
0Loc    Object Code    Addr1 Addr2  Stmt Lv Lineno    Source Statement           (Hibal 5, Asmedit 3.3)  HLASM R4.0  2004/03/15 12.42
+___    ______ ____    _____ _____  ____ __ ______    ______ _________
000378C                            31805                       DS    0F
 00378C 0C/04/00/00/0000_          31806              CAMUNC   CAMLST UCATDX,0           UNCATLG AND DELETE INDICES
 003798                03798 03790 31814                       ORG   CAMUNC+4
 003790 64/40/00/00/0000_          31815              CAMCAT   CAMLST CATBX,0,,0         CATLG AND BUILD INDICES
 0037A0                037A0 03794 31824                       ORG   CAMCAT+4
 003794 54/00/00/00/0000_          31825              CAMRECAT CAMLST RECAT,0,,0         RECATLG EXISTING DATA SET
 0037A4                037A4 037A4 31834                       ORG   ,
1DISK     (DISK4072) (12:42) (15MAR04) Space Accounting Update Routine                                                      Page  127
0Current Usings:  (IOWA,R6) (*,R7) (CP,R11) (CV,R12)
0Loc    Object Code    Addr1 Addr2  Stmt Lv Lineno    Source Statement           (Hibal 5, Asmedit 3.3)  HLASM R4.0  2004/03/15 12.42
+___    ______ ____    _____ _____  ____ __ ______    ______ _________
0                                  31836              ***  ROUTINE TO UPDATE SPACE ACCOUNTING INFORMATION IN KWR
                                   31837              *
 0037A4 50E0 D000/90F8_      00000 31838              UPDTSPAC XENTER R15,R8
 DROP   *,R7
 USING  *,R7
                                   31860
 0037BE 1211/4780 7012             31861                       IF    (R1,NZ),BEGIN       Update space ...
 0037C4 1801                       31875  1                      LR    R0,R1               R0 =  change in space
 0037C6 4110 6524            00524 31876  1                      LA    R1,KWR              R1 -> KWR
 0037CA 58E0 7A2E/0DEE       041EC 31877  1                      VCALL EXIT5               LOCAL exit - update space
 0037D0                            31881                       END
                                   31885              *
                                   31886              *
                                   31887              *   The following SHOW SPACE command was deleted on 11/14/00
                                   31888              *   by M. Durket. WYLBUR no longer blocks sequential saves
                                   31889              *   and recovery because it uses WINGS. Nightly accounting
                                   31890              *   now will handle the overspace issue.
                                   31891              *
                                   31892              *        LA    R0,1                Conditional show space
                                   31893              *        LA    R1,KWR              Point to password record
                                   31894              *        VCALL EXIT3               LOCAL exit - show space
                                   31895              *
 0037D0 18D8/58E0 D000_            31896                       XEXIT R15,R8
 DROP   *,R7                       31901                       DROP  BR
1DISK     (DISK4072) (12:42) (15MAR04) SHOW DSNAMES/DIRECTORY/CATALOG (DVTOC) Routine                                       Page  128
0Current Usings:  (IOWA,R6) (CP,R11) (CV,R12)
0Loc    Object Code    Addr1 Addr2  Stmt Lv Lineno    Source Statement           (Hibal 5, Asmedit 3.3)  HLASM R4.0  2004/03/15 12.42
+___    ______ ____    _____ _____  ____ __ ______    ______ _________
0                                  31909              *   SHOW DSNAMES
                                   31910              *
 0037DC 58E0 D000            00000 31911              DVTOC    L     RAR,@R13            GET FINAL EXIT RETURN
 0037E0 50E0 D000/9028_      00000 31912              DVTOC2   XENTER R2,R8,32,LOCAL     AND RESAVE REGS
 USING  *,R7
 0037FA 5850 C1C8            001C8 31930                       L     JCBR,CVCURJCB
 USING  JCB,R5                     31931                       USING JCB
 0037FE 5860 BDDC            00DDC 31940                       L     IOWAR,CPIOWAP       RESTORE IOWA REG
 003802 9108 616C      0016C       31941                       TM    F2,DSNFSHOW         IS IT A SHOW COMMAND?
 003806 4780 73D4            03BCE 31942                       BZ    SDSNSPAC            NO - COMPUTE DSCB SPACE
 00380A 50F0 6880            00880 31943                       ST    15,PAGEGET          SAVE SUBR ADDRESS
 00380E 4110 64F0            004F0 31944                       LA    R1,FOURS            DCB
 003812 5010 61AC            001AC 31945                       ST    R1,IOBDCB           STORE IT IN DCB
 003816 4110 637C            0037C 31946                       LA    R1,DECB             GET ADDR OF ECB FOR EXCP I/O
 00381A 5010 619C            0019C 31947                       ST    R1,IOBECB           SAVE IT IN IOB
 00381E D202 61D1 6356 001D1 00356 31948                       MVC   CCWSW+1(3),VTOCCCW  SET SHOW DSNAMES TIC ADDR
 003824 92AD 61F0      001F0       31949                       MVI   KEY,SCHKADEQ+MT     RESET CCW COMMAND CODE
 003828 92AD 6208      00208       31950                       MVI   ENDCCW1,SCHKADEQ+MT
 00382C 4800 BF06            00F06 31951                       LH    R0,DSNWANL          GET PATTERN LENGTH
 003830 1200                       31952                       LTR   R0,R0               IS THERE ONE?
 003832 4770 704C            03846 31953                       BNZ   BLF                 BR IF NOT
 003836 4100 0001            00001 31954                       LA    R0,1                SET DUMMY ONE FOR CCW
 00383A 9280 6270      00270       31955                       MVI   DSNAME,X'80'        SET LOW VALUE IN AREA
 00383E 92CD 61F0      001F0       31956                       MVI   KEY,SCHKADHI+MT     USE SEARCH HI VICE EQ
 003842 92CD 6208      00208       31957                       MVI   ENDCCW1,SCHKADHI+MT
 003846 4000 61F6            001F6 31958              BLF      STH   R0,KEY+6            LENGTH OF PATTERN
 00384A 4000 620E            0020E 31959                       STH   R0,ENDCCW1+6
 00384E 9508 634D      0034D       31960                       CLI   DEVCODE+3,8         IS DEVICE 2314?
 003852 4780 7064            0385E 31961                       BE    DO2314              BR IF YES
                                   31962              **  SCH KEY AND DATA COMMANDS ONLY VALID ON 2314
 003856 9704 61F0      001F0       31963                       XI    KEY,SWKADKY         SWAP TO SCH KEY
 00385A 9704 6208      00208       31964                       XI    ENDCCW1,SWKADKY     SAME
 00385E 0DEF                       31965              DO2314   BASR  RAR,R15             GO TO PAGEGET SUBR
 003860 4780 72A0            03A9A 31966                       BZ    VTOCERR             NO PAGES
 003864 4100 0001            00001 31967                       LA    R0,1                INIT COUNT
 003868 4000 9000            00000 31968                       STH   R0,@PAR
 00386C 9200 9002      00002       31969                       MVI   @PAR+2,0            INIT PAGE
 003870 58E0 79F6/0DEE       041F0 31970                       PMARK PAR                 MARK THE PAGE AS CHANGED
                                   31975
 003876 9120 616C      0016C       31976                       TM    F2,DSNFPDS          IS IT SHOW DIRECTORY?
 00387A 4780 7094            0388E 31977                       BZ    VTOCLP              BR IF NOT
                                   31978              **  OTHERWISE, IT'S SHOW DIRECTORY
 00387E D203 61BB 6A03 001BB 00A03 31979                       MVC   SEEK(4),DS1EXT1+2   SET DIRECTORY SEEK ADDR
 003884 9200 61BF      001BF       31980                       MVI   SEEK+4,0            RO
 003888 D202 61D1 6359 001D1 00359 31981                       MVC   CCWSW+1(3),PDSCCW   SET SHOW DIR TIC ADDR
1DISK     (DISK4072) (12:42) (15MAR04) SHOW DSNAMES/DIRECTORY/CATALOG (DVTOC) Routine                                       Page  129
0Current Usings:  (JCB,R5) (IOWA,R6) (*,R7) (CP,R11) (CV,R12)
0Loc    Object Code    Addr1 Addr2  Stmt Lv Lineno    Source Statement           (Hibal 5, Asmedit 3.3)  HLASM R4.0  2004/03/15 12.42
+___    ______ ____    _____ _____  ____ __ ______    ______ _________
000388E 4100 0006            00006 31983              VTOCLP   LA    R0,6                PUT OUT VOLID MSG
 003892 4110 634E            0034E 31984                       LA    R1,DSVID
 003896 4DE0 783C            04036 31985                       LCALL VTOCMSG
 00389A 9108 616F/4710_0016F       31987                       IF    F5.DSNFONLY,OBTFMT1 Just do an "OBTAIN" ...
 0038A2 9104 616C      0016C       32005                       TM    F2,DSNFCAT          IS IT SHOW CATALOG?
 0038A6 4710 7628            03E22 32006                       BO    SHOWCAT             BR IF YES
 0038AA 4130 64F0            004F0 32007                       LA    R3,FOURS            VTOC DCB
 USING  IHADCB,R3                  32008                       USING IHADCB,R3
 0038AE D207 3028 6170 00028 00170 32017                       MVC   DCBDDNAM(8),DSDD    INITIALIZE IT
 DROP   IHADCB,R3                  32018                       DROP  IHADCB
                                   32026
 0038B4 41E0 72A0/50E0_      03A9A 32027                       WAITOFF ABEND=VTOCERR
 0038C0 9120 616C      0016C       32038                       TM    F2,DSNFPDS          IS IT SHOW DIRECTORY?
 0038C4 4710 714E            03948 32039                       BO    OPENEXCP            BR IF YES
 0038C8 4110 63D4/0A1B       003D4 32040                       OBTAIN VTOC
 0038CE 4DE0 7A50/D703_      0424A 32044                       WAITON ,CLEAR
 0038D8 12FF                       32054                       LTR   R15,R15             WAS IT OK
 0038DA 4780 7100            038FA 32055                       BZ    DVTOBTOK            BR IF OBTAIN OK
 0038DE 49F0 7A36            04230 32056                       CH    R15,=H'8'           WAS IT VALID ERROR?
 0038E2 4780 7100            038FA 32057                       BE    DVTOBTOK            BR IF NO
 0038E6 49F0 7A38            04232 32058                       CH    R15,=H'4'           WAS IT VOL NOT MOUNTED
 0038EA 4770 72A0            03A9A 32059                       BNE   VTOCERR             BR IF NO - I/O ERROR
 0038EE 41F0 0028            00028 32060                       LA    R15,RTNBDVOL        INDICATE BAD VOLUME
 0038F2 50F0 6378            00378 32061                       ST    R15,RETCOD
 0038F6 47F0 7812            0400C 32062                       B     VTOCRET3            GO EXIT
-0038FA                            32064              DVTOBTOK LABEL
                                   32066              ******** DEVTYPE DSDD,DVTAREA,DEVTAB
 0038FA 4810 68C2            008C2 32067                       LH    R1,DVTNUMT
 0038FE 0610                       32068                       DECR  R1
 003900 4010 68D0            008D0 32070                       STH   R1,NUMTRK
 003904 D203 68B0 6763 008B0 00763 32071                       MVC   ENDTEST(4),VTOCEND
 00390A D200 68B4 673E 008B4 0073E 32072                       MVC   ENDTEST+4(1),DS4DEVDT  SET UP FOR TEST
 003910 D203 61BB 675F 001BB 0075F 32073                       MVC   SEEK(4),VTOCBEG
 003916 9200 61BF      001BF       32074                       MVI   SEEK+4,0
                                   32075
 00391A 41E0 72A0/50E0_      03A9A 32076                       WAITOFF ABEND=VTOCERR
 003926 4110 6414/43E1_      00414 32087                       RDJFCB (FOURS),MF=(E,OPENLIST)
 00393C 58E0 79FA/0DEE       041F4 32096                       ACALL CLRJFCB             GO CLEAN UP THE JFCB
 003942 D22B 68D8 629C 008D8 0029C 32100                       MVC   JFCBDSNM(44),DSN
 003948 4110 6414/94F0_      00414 32101              OPENEXCP OPEN  (FOURS,INPUT),TYPE=J,MF=(E,OPENLIST)
 003962 4DE0 7A50/D703_      0424A 32110                       WAITON ,CLEAR
 00396C 5830 6164            00164 32120                       L     R3,VOLENTRY
 003970 4100 0001/4A00_      00001 32121                       WITH  (VOLDSECT,R3),'COUNT VOLOPNS'
 USING  VOLDSECT,R3
 DROP   VOLDSECT,R3
 00397C 4130 64F0            004F0 32148                       LA    R3,FOURS
 USING  IHADCB,R3                  32149                       WITH  (IHADCB,R3),BEGIN
 003980 9110 3030      00030       32163  1                      TM    DCBOFLGS,X'10'      IS IT OPEN
 003984 4780 72A0            03A9A 32164  1                      BZ    VTOCERR             NO,ERROR
 DROP   IHADCB,R3                  32165                       END
 003988 9240 6A98      00A98       32173                       MVI   SBUF,X'40'          CLEAR SHOW DSNAMES BUFFER
 00398C D242 6A99 6A98 00A99 00A98 32174                       MVC   SBUF+1(SBSZ-1),SBUF
1DISK     (DISK4072) (12:42) (15MAR04) SHOW DSNAMES/DIRECTORY/CATALOG (DVTOC) Routine                                       Page  130
0Current Usings:  (JCB,R5) (IOWA,R6) (*,R7) (CP,R11) (CV,R12)
0Loc    Object Code    Addr1 Addr2  Stmt Lv Lineno    Source Statement           (Hibal 5, Asmedit 3.3)  HLASM R4.0  2004/03/15 12.42
+___    ______ ____    _____ _____  ____ __ ______    ______ _________
0003992 9280 6ADC      00ADC       32175                       SET   (INXVTOC,EQ)        CLEAR INDEXED VTOC PROCESSING
-003996                            32184              SRCHSTRT LABEL
 003996 9120 616C/4710_0016C       32186                       IF    (~F2.DSNFPDS,AND,DS4VTOCI.X'81'),BEGIN
 0039A6 4DE0 78CE            040C8 32217  1                      WAITOFF
 0039AA 9180 6ADC/47E0_00ADC       32220  1                      IF    INXVTOC,BEGIN       Test for first pass through
 USING  IHADCB,R1                  32235  2                        WITH  (IHADCB,R1),BEGIN   Addressability to DCB
 0039B2 4110 64F0            004F0 32249  3                          LA    R1,FOURS            Address of open VTOC DCB
 0039B6 5800 102C            0002C 32250  3                          L     R0,DCBDEBAD         Load address for DEB
 DROP   IHADCB,R1                  32251  2                        END
 0039BA D73F 6B10 6B10 00B10 00B10 32259  2                        XC    CVAFPL(64),CVAFPL       Clear CVAF parameter list
 0039C0 D203 6B10 79FE 00B10 041F8 32260  2                        MVC   CVAFPL(4),=C'CVPL'      Set parameter list ID
 0039C6 D201 6B14 7A3A 00B14 04234 32261  2                        MVC   CVAFPL+4(2),=AL2(64)    Set parameter length
 0039CC D22B 6ADD 6270 00ADD 00270 32262  2                        MVC   CVAFDSN,DSNAME          Set pattern data set name
                                   32263  2         C              CVAFSEQ ACCESS=GTEQ,DSN=CVAFDSN,IXRCDS=KEEP,
                                          2         C                    DSNONLY=YES,ARG=DS1PTRDS,
 0039D2 4110 6B10/9205_      00B10        2                              DEB=(0),MF=(E,CVAFPL)
 0039F8 947F 6ADC      00ADC       32275  2                        CLEAR INXVTOC             Clear first pass flag
 0039FC 7206/47F0 7210 039FC 039B0 32282  1                      END   ELSE,BEGIN          Second and subsequent calls
 003A00 4110 6B10/9204_      00B10 32297  2                        CVAFSEQ ACCESS=GT,MF=(E,CVAFPL)
 003A0A                            32302  1                      END
 003A0A 182F                       32306  1                      LR    R2,R15              SAVE CVAF RETURN CODE
 003A0C 4DE0 7A50            0424A 32307  1                      WAITON
 003A10 5920 7A02/4720_      041FC 32310  1                      IF    (R2,GT,4),CVAFDONE  Error abort on CVAFSEQ routine
 003A18 4770 7230            03A2A 32330  1                      IF    EQ,BEGIN            Check for end of data return
 003A1C 9520 6B17      00B17       32341  2                        CLI   CVAFPL+7,X'20'      Check status byte for EOD
 003A20 4770 722C/1B22       03A26 32342  2                        IF    EQ,'CLEAR R2'       Clear CVAF return to zero
 003A26 47F0 74BA            03CB4 32362  2                        B     CVAFDONE            And exit processing
 003A2A                            32363  1                      END   ,
 003A2A 4810 BF06            00F06 32367  1                      LH    R1,DSNWANL          Set pattern name length
 003A2E 1211/47D0 7244             32368  1                      IF    (R1,P),BEGIN        Test for pattern extension
 003A34 0610/4410 7A4A_            32382  2                        DEX   R1,'CLC DSNAME(0),CVAFDSN'    TEST FOR PAST PATTERN
 003A3A 4770 74BA            03CB4 32401  2                        IF    NE,CVAFDONE                   EXIT CVAF PROCESSING
 003A3E                            32415  1                      END
 003A3E 4DE0 78CE            040C8 32419  1                      WAITOFF
 003A42 4110 63E4/0A1B       003E4 32422  1                      OBTAIN VTOC3              CHEAT - PUT IN FMT3 AREA
 003A48 182F                       32426  1                      LR    R2,R15              SAVE RETURN CODE
 003A4A 4DE0 7A50            0424A 32427  1                      WAITON
 003A4E 1222/4770 74BA             32430  1                      IF    (R2,NZ),CVAFDONE    ERROR IN OBTAIN, ABORT COMMAND
 003A54 9102 5062/4710_00062       32447  1                      IF    JCBFATTN,CVAFDONE   IDLE ATTENTION COMMAND ABORT
 003A5C 47F0 7372            03B6C 32465  1                      B     SDSNWANT            GO PROCESS THIS FMT1 DSCB
 003A60                            32466                       END
 003A60 4110 61C0            001C0 32470                       LA    R1,SRCHCCW
 003A64 5010 61A8            001A8 32471                       ST    R1,IOBSTART
                                   32472
 003A68 9102 5062/4710_00062       32473              EXCP     IF    JCBFATTN,VTOCERR    Idle attn to abort commnd
 003A70 4110 6198/0A00       00198 32492                       EXCP  IOB                 NO, START NEXT I/O
 003A76 4DE0 78A0            0409A 32496                       LCALL VTOCWT              WAIT
                                   32498
 003A7A 9120 637C      0037C       32499                       TM    DECB,X'20'          OK COMPLETE
 003A7E 4710 72BE            03AB8 32500                       BO    ENDCHK
 003A82 9120 619B      0019B       32501                       TM    IOBSNS+1,X'20'
 003A86 4710 72A8            03AA2 32502                       BO    NEWCYL
1DISK     (DISK4072) (12:42) (15MAR04) SHOW DSNAMES/DIRECTORY/CATALOG (DVTOC) Routine                                       Page  131
0Current Usings:  (JCB,R5) (IOWA,R6) (*,R7) (CP,R11) (CV,R12)
0Loc    Object Code    Addr1 Addr2  Stmt Lv Lineno    Source Statement           (Hibal 5, Asmedit 3.3)  HLASM R4.0  2004/03/15 12.42
+___    ______ ____    _____ _____  ____ __ ______    ______ _________
0003A8A 9101 BD52/47E0_00D52       32503                       IF    (CPLFLG3.CPFBLOCK,AND,F2.DSNFPDS),DONE
 003A9A 41F0 0050            00050 32537              VTOCERR  LA    R15,RTNSHERR        SHOW ERROR RETURN CODE
 003A9E 47F0 77AE            03FA8 32538                       B     VTOCRET             EXIT
                                   32539
 003AA2 1B11                       32540              NEWCYL   CLEAR R1
 003AA4 4210 61BF            001BF 32545                       STC   R1,SEEK+4
 003AA8 4310 61BC            001BC 32546                       IC    R1,SEEK+1
 003AAC 4110 1001            00001 32547                       LA    R1,@R1+1
 003AB0 4210 61BC            001BC 32548                       STC   R1,SEEK+1
 003AB4 47F0 726E            03A68 32549                       B     EXCP
                                   32550
 003AB8 D502 61A1 635C 001A1 0035C 32551              ENDCHK   CLC   IOBCSW+1(3),LASTCCW
 003ABE 4780 74B4            03CAE 32552                       BE    DONE
 003AC2 D502 61A1 635F 001A1 0035F 32553                       CLC   IOBCSW+1(3),LASTCCW1  WAS IT LAST REC AND EQUAL
 003AC8 4780 7336            03B30 32554                       BE    READOK              GO PROCESS DSNAME
 003ACC 9120 616C      0016C       32555                       TM    F2,DSNFPDS          IS IT SHOW DIRECTORY?
 003AD0 4710 754E            03D48 32556                       BO    PDSRDOK             BR IF YES
                                   32557              **  DECREMENT DA ADDR BY ONE RECORD AND GO READ IT
 003AD4 1F11/4310 68D6             32558                       LC    R1,SRCHR
 003ADA 0610                       32565                       DECR  R1
 003ADC 1211                       32567                       LTR   R1,R1
 003ADE 4210 68D6            008D6 32568                       STC   R1,SRCHR
 003AE2 4720 7316            03B10 32569                       BP    SAMETRK
 003AE6 4310 673E            0073E 32570                       IC    R1,DS4DEVDT         # VTOC RECS PER TRK
 003AEA 4210 68D6            008D6 32571                       STC   R1,SRCHR
 003AEE 4810 68D4            008D4 32572                       LH    R1,SRCHH
 003AF2 0610                       32573                       DECR  R1
 003AF4 4010 68D4            008D4 32575                       STH   R1,SRCHH
 003AF8 1211                       32576                       LTR   R1,R1
 003AFA 47B0 7316            03B10 32577                       BNM   SAMETRK
 003AFE 4810 68D0            008D0 32578                       LH    R1,NUMTRK           # OF LAST TRK ON CYL
 003B02 4010 68D4            008D4 32579                       STH   R1,SRCHH
 003B06 4810 68D2            008D2 32580                       LH    R1,SRCHC
 003B0A 0610                       32581                       DECR  R1
 003B0C 4010 68D2            008D2 32583                       STH   R1,SRCHC
 003B10 D204 61BB 68D2 001BB 008D2 32584              SAMETRK  MVC   SEEK(5),SRCHC
 003B16 4110 6240            00240 32585                       LA    R1,READCCW
 003B1A 5010 61A8            001A8 32586                       ST    R1,IOBSTART
 003B1E 4110 6198/0A00       00198 32587                       EXCP  IOB
 003B24 4DE0 78A0            0409A 32591                       LCALL VTOCWT              WAIT
                                   32593
 003B28 9120 637C      0037C       32594                       TM    DECB,X'20'          OK COMPLETE
 003B2C 4780 72A0            03A9A 32595                       BZ    VTOCERR             ERROR
                                   32596
 003B30 95F1 69C4      009C4       32597              READOK   CLI   DS1FMTID,C'1'       IS REC FMT 1?
 003B34 4770 74AA            03CA4 32598                       BNE   DONTWANT            BR IF NO
 003B38 4820 BF06            00F06 32599                       LH    R2,DSNWANL          GET PATTERN LENGTH
 003B3C 41F2 6998            00998 32600                       LA    R15,DS1DSNAM(R2)    GET OFFSET IN DSN
 003B40 4130 002C            0002C 32601                       LA    R3,44               LENGTH OF DSN
 003B44 1B32                       32602                       SR    R3,R2               LENGTH REMAINING FOR RANGE
 003B46 0630/4430 74E0             32603                       DEX   R3,SDSNCLC1         CHECK DSNAME IN BOUNDS
 003B4C 4740 736A            03B64 32608                       BL    OUTOFRNG            BR IF LOWER THAN LOW BOUND
 003B50 4430 74E6            03CE0 32609                       EX    R3,SDSNCLC2         CHECK DSNAME IN BOUNDS
 003B54 4720 736A            03B64 32611                       BH    OUTOFRNG            BR IF HIGHER THAN UPPER BOUND
1DISK     (DISK4072) (12:42) (15MAR04) SHOW DSNAMES/DIRECTORY/CATALOG (DVTOC) Routine                                       Page  132
0Current Usings:  (JCB,R5) (IOWA,R6) (*,R7) (CP,R11) (CV,R12)
0Loc    Object Code    Addr1 Addr2  Stmt Lv Lineno    Source Statement           (Hibal 5, Asmedit 3.3)  HLASM R4.0  2004/03/15 12.42
+___    ______ ____    _____ _____  ____ __ ______    ______ _________
0003B58 9108 BD52      00D52       32612                       TM    CPLFLG3,CPFEXCL     TEST FOR EXCLUDE RANGE
 003B5C 4710 74AA            03CA4 32613                       BO    DONTWANT            BR IF YES
 003B60 47F0 7372            03B6C 32614                       B     SDSNWANT            WE WANT THIS ONE
 003B64 9108 BD52      00D52       32615              OUTOFRNG TM    CPLFLG3,CPFEXCL     TEXT FOR EXCLUDE RANGE
 003B68 4780 74AA            03CA4 32616                       BZ    DONTWANT            BR IF NO
                                   32617              *                           THEN OUT OF RANGE IS IN EXCL RANGE
 003B6C                            32618              SDSNWANT LABEL
                                   32620              **  GET PERTINENT STUFF FROM FORMAT 1 DSCB
 003B6C D22B 6A98 6998 00A98 00998 32621                       MVC   SBDSN,DS1DSNAM      DSNAME
 003B72 D202 6AC4 69CD 00AC4 009CD 32622                       MVC   SBCRDT,DS1CREDT     CREATION DATE
 003B78 D202 6AC7 69D0 00AC7 009D0 32623                       MVC   SBEXDT,DS1EXPDT     Expiration (used to hold LA date)
 003B7E D501 7A3C 69E4_04236 009E4 32624                       IF  ((DS1REFD+1,GE,=H'1'),AND,(DS1REFD+1,LE,=H'366')),BEGIN
 003B92 D202 6AC7 69E3 00AC7 009E3 32657  1                      MVC   SBEXDT,DS1REFD      Last referenced date (MVS)
 003B98                            32658                       END
 003B98 D200 6ACD 69F5 00ACD 009F5 32662                       MVC   SBDSIND,DS1DSIND    Data set indicators
 003B9E D200 6ACA 69D3 00ACA 009D3 32663                       MVC   SBNOEX,DS1NOEPV     NUMBER OF EXTENTS
 003BA4 D201 6ACB 69EA 00ACB 009EA 32664                       MVC   SBDSORG,DS1DSORG    DSORG
 003BAA D200 6ACE 69EC 00ACE 009EC 32665                       MVC   SBRECFM,DS1RECFM    RECFM
 003BB0 D201 6AD0 69F0 00AD0 009F0 32666                       MVC   SBLRECL,DS1LRECL    LRECL
 003BB6 D201 6AD2 69EE 00AD2 009EE 32667                       MVC   SBBLKSZ,DS1BLKL     BLKSIZE
 003BBC D200 6ACF 69F2 00ACF 009F2 32668                       MVC   SBKEYL,DS1KEYL      KEY LENGTH
 003BC2 D201 6AD4 69FA 00AD4 009FA 32669                       MVC   SBLB,DS1LSTAR       LAST RECORD WRITTEN
 003BC8 D200 6AD9 0000 00AD9 00000 32670                       MVC   SBACCTG,0           Zero--no longer set DS1SPACE
                                   32671              **  THE FOLLOWING CODE IS ALSO USED AS A SUBROUTINE
                                   32672              **  COMPUTE AMOUNT OF SPACE ALLOCATED FROM EXTENT INFORMATION
 003BCE 1B33                       32673              SDSNSPAC CLEAR R3                  Total space (in trks)
 003BD0 4100 0003            00003 32678                       LA    R0,3                Number of extents in fmt 1
 003BD4 1F22/4320 69D3             32679                       LC    R2,DS1NOEPV         Total number of extents
 003BDA 9140 6A01/47E0_00A01       32686                       IF    DS1EXT1.X'40','LA R2,@R2+1'  Count user label extent
 003BE6 41F0 6A01            00A01 32708                       LA    R15,DS1EXT1         Addr of first extent descrip
 003BEA 1920                       32709              NXTXSECT CR    R2,R0               TOTAL REMAINING VS MAX THIS SECT
 003BEC 4720 73FC            03BF6 32710                       BH    MULTSECT            BR IF MORE SECTIONS FOLLOWING
 003BF0 1202                       32711                       LTR   R0,R2               TOTAL IS REMAINING
 003BF2 4780 7480            03C7A 32712                       BZ    XTNTALL             UNLESS ZERO
 003BF6 1B20                       32713              MULTSECT SR    R2,R0               REMAINING AFTER THIS SECTION
 003BF8 9500 F000      00000       32714              XTNTLP   CLI   @R15,0              IS THIS EXTENT ACTIVE?
 003BFC 4780 7428            03C22 32715                       BE    XTNTDONE            BR IF NO
 003C00 D207 BC88 F002 00C88 00002 32716                       MVC   CPDOUB,@R15+2       MOVE LOWER/UPPER DESCRIP
 003C06 4810 BC8E            00C8E 32717                       LH    R1,CPDOUB+6         LAST TRACK
 003C0A 4110 1001            00001 32718                       LA    R1,@R1+1            +1 FOR SUBT
 003C0E 4B10 BC8A            00C8A 32719                       SH    R1,CPDOUB+2         LESS FIRST TRACK
 003C12 1A31                       32720                       AR    R3,R1
 003C14 4810 BC8C            00C8C 32721                       LH    R1,CPDOUB+4         UPPER CYL
 003C18 4B10 BC88            00C88 32722                       SH    R1,CPDOUB           LOWER CYL
 003C1C 4C10 6734            00734 32723                       MH    R1,DS4DEVSZ+2       * # TRKS/CYL
 003C20 1A31                       32724                       AR    R3,R1
 003C22 41FF 000A            0000A 32725              XTNTDONE LA    R15,DS1EXT2-DS1EXT1(R15)  TO NEXT DESCRIP
 003C26 4600 73FE            03BF8 32726                       BCT   R0,XTNTLP           PROCESS NEXT ONE
                                   32727              **  ALL EXTENTS IN THIS SECTION OR DSCB PROCESSED
 003C2A 1222                       32728                       LTR   R2,R2               ARE THERE MORE?
 003C2C 4780 7480            03C7A 32729                       BZ    XTNTALL             BR IF NO
 003C30 95F3 69C4      009C4       32730                       CLI   DS3FMTID,C'3'       HAS FMT 3 BEEN READ?
 003C34 4780 7474            03C6E 32731                       BE    FMT3SEC2            BR IF YES - SECTION 2
 003C38 4DE0 78CE            040C8 32732              READFMT3 WAITOFF
1DISK     (DISK4072) (12:42) (15MAR04) SHOW DSNAMES/DIRECTORY/CATALOG (DVTOC) Routine                                       Page  133
0Current Usings:  (JCB,R5) (IOWA,R6) (*,R7) (CP,R11) (CV,R12)
0Loc    Object Code    Addr1 Addr2  Stmt Lv Lineno    Source Statement           (Hibal 5, Asmedit 3.3)  HLASM R4.0  2004/03/15 12.42
+___    ______ ____    _____ _____  ____ __ ______    ______ _________
0003C3C 4110 63E4/0A1B       003E4 32735                       OBTAIN VTOC3
 003C42 4DE0 7A50            0424A 32739                       WAITON
 003C46 12FF                       32742                       LTR   R15,R15             TEST NORMAL
 003C48 4780 7458            03C52 32743                       BZ    XTNTFMT3            BR IF YES
 003C4C 1133                       32744              FMT3ERR  LNR   R3,R3               FLAG TOTAL AS INCOMPLETE
 003C4E 47F0 7480            03C7A 32745                       B     XTNTALL             SKIP IT
                                   32746
 003C52 95F2 69C4      009C4       32747              XTNTFMT3 CLI   DS3FMTID,C'2'       IS IT FORMAT 2?
 003C56 4780 743E            03C38 32748                       BE    READFMT3            BR IF YES - GO GET FMT 3
                                   32749              ***      CLI   DS3FMTID,C'5'       IS IT FORMAT 5?
                                   32750              ***      BE    FMT5PROC            BR IF YES
 003C5A 95F3 69C4      009C4       32751                       CLI   DS3FMTID,C'3'       WAS DSCB FMT 3?
 003C5E 4770 7452            03C4C 32752                       BNE   FMT3ERR             BR IF NO - ERROR
 003C62 4100 0004            00004 32753                       LA    R0,4                4 EXTENTS IN FIRST SECTION
 003C66 41F0 699C            0099C 32754                       LA    R15,DS3EXTNT        ADDR OF FIRST SECTION
 003C6A 47F0 73F0            03BEA 32755                       B     NXTXSECT            GO PROCESS IT
                                   32756
 003C6E 41F0 69C5            009C5 32757              FMT3SEC2 LA    R15,DS3ADEXT        ADDR OF SECTION 2 IN FMT 3
 003C72 4100 0009            00009 32758                       LA    R0,9                9 EXTENTS IN SECT 2
 003C76 47F0 73F0            03BEA 32759                       B     NXTXSECT
-003C7A 4030 6ADA            00ADA 32761              XTNTALL  STH   R3,SPTRK            SAVE TOTAL
 003C7E 1BFF                       32762                       CLEAR R15                 RESET RETURN CODE
 003C80 9108 616C      0016C       32766                       TM    F2,DSNFSHOW         IS IT A SHOW COMMAND?
 003C84 4780 782E            04028 32767                       BZ    VTRX                NO - SUBROUTINE EXIT
                                   32768              **   END OF SUBROUTINE CODE
 003C88 4110 6A98            00A98 32769                       LA    R1,SBUF             ADDR OF BUFFER
 003C8C 4100 0044            00044 32770                       LA    R0,SBSZ             LENGTH OF ENTRY
 003C90 4DE0 783C            04036 32771                       LCALL VTOCMSG             PUT IT OUT
 003C94 9108 616F/4710_0016F       32773                       IF    F5.DSNFONLY,DONE    Just want one quick and dirty
 003C9C 9181 672E/4710_0072E       32791                       IF    DS4VTOCI.X'81',SRCHSTRT
 003CA4 D502 61A1 635F 001A1 0035F 32810              DONTWANT CLC   IOBCSW+1(3),LASTCCW1  WAS THIS THE FUNNY CASE
 003CAA 4770 719C            03996 32811                       BNE   SRCHSTRT            NO CONTINUE SEARCH
                                   32812
 003CAE 1BFF                       32813              DONE     CLEAR R15                 COMP CODE
 003CB0 47F0 77AE            03FA8 32818                       B     VTOCRET
0003CB4                            32820              CVAFDONE LABEL ,                   END OF INDEXED VTOC PROCESSING
 003CB4 4DE0 78CE            040C8 32822                       WAITOFF ,                 ENTER SUBTASK MODE
                                   32825            C          CVAFDIR ACCESS=RLSE,IXRCDS=NOKEEP,
 003CB8 4110 6B10/9203_      00B10                                   MF=(E,CVAFPL)       Release CVAF buffers
 003CC6 4DE0 7A50            0424A 32831                       WAITON ,                  NORMAL MODE
 003CCA 1BFF                       32834                       CLEAR R15                 CLEAR VTOC RETEURN CODE
 003CCC 1222/4780 74DC_            32838                       IF    (R2,NZ),'LA R15,RTNSHERR'     SET VTOC ERROR
 003CD6 47F0 77AE            03FA8 32858                       B     VTOCRET             CLEANUP RESOURCES AND RETURN
-003CDA D500 F000 BF64 00000 00F64 32860              SDSNCLC1 CLC   @R15(0),SDSNQLB
 003CE0 D500 F000 BF90 00000 00F90 32861              SDSNCLC2 CLC   @R15(0),SDSNQUB
-
 003CE6 9240 6A98      00A98       32863              OBTFMT1  MVI   SBUF,C' '           Clean up
1DISK     (DISK4072) (12:42) (15MAR04) SHOW DSNAMES/DIRECTORY/CATALOG (DVTOC) Routine                                       Page  134
0Current Usings:  (JCB,R5) (IOWA,R6) (*,R7) (CP,R11) (CV,R12)
0Loc    Object Code    Addr1 Addr2  Stmt Lv Lineno    Source Statement           (Hibal 5, Asmedit 3.3)  HLASM R4.0  2004/03/15 12.42
+___    ______ ____    _____ _____  ____ __ ______    ______ _________
0003CEA D242 6A99 6A98 00A99 00A98 32864                       MVC   SBUF+1(SBSZ-1),SBUF   the buffer
 003CF0 41E0 7546/50E0_      03D40 32865                       WAITOFF ABEND=OBTERR      Into subtask control
 003CFC 4110 6390/0A1B       00390 32876                       OBTAIN DSCB               Get FORMAT1 DSCB
 003D02 182F                       32880                       LR     R2,R15             Save cond code
 003D04 4DE0 7A50/D703_      0424A 32881                       WAITON ,CLEAR             Out of subtask control
 003D0E 18F2                       32891                       LR     R15,R2             Reload return code
 003D10 59F0 7A06/4770_      04200 32892                       IF     (R15,EQ,0),BEGIN   Got it ...
 003D18 D22B 6998 6270 00998 00270 32909  1                      MVC    DS1DSNAM,DSNAME    Simulate "READ KEY AND DATA"
 003D1E 47F0 7372            03B6C 32910  1                      B      SDSNWANT           Off to common code
 003D22                            32911                       END
 003D22 59F0 7A02/4770_      041FC 32915                       IF     (R15,EQ,4),'LA R15,RTNBDVOL; B VTOCRET'
 003D32 59F0 7A0A/4770_      04204 32939                       IF     (R15,EQ,8),'CLEAR R15; B VTOCRET'
 003D40 41F0 0050            00050 32966              OBTERR   LA     R15,RTNSHERR       Set error code
 003D44 47F0 77AE            03FA8 32967                       B      VTOCRET            Return
1DISK     (DISK4072) (12:42) (15MAR04) SHOW DSNAMES/DIRECTORY/CATALOG (DVTOC) Routine                                       Page  135
0Current Usings:  (JCB,R5) (IOWA,R6) (*,R7) (CP,R11) (CV,R12)
0Loc    Object Code    Addr1 Addr2  Stmt Lv Lineno    Source Statement           (Hibal 5, Asmedit 3.3)  HLASM R4.0  2004/03/15 12.42
+___    ______ ____    _____ _____  ____ __ ______    ______ _________
0                                  32969              *
                                   32970              *** ROUTINE TO PROCESS DIRECTORY BLOCK FOR SHOW DIRECTORY
                                   32971              *
 003D48 4120 6728            00728 32972              PDSRDOK  LA    R2,DBUF+8           ADDR OF DIRECTORY BLOCK
 003D4C 9101 BD52/47E0_00D52       32973                       IF    CPLFLG3.CPFBLOCK,BEGIN  "BLOCK" option on "SHOW DIR"
 003D54 4100 0001/5E00_      00001 32989  1                      INCR  R0,CPWK8            Up total dir block count
 003D60 D603 BD80 BD80_00D80 00D80 32995  1                      IF    (CPWK9,NZ),PDENDBLK This is an unused block
 003D6A                            33014                       END
 003D6A 4810 2000            00000 33018              PDSRDOK2 LH    R1,@R2              LENGTH OF DATA
 003D6E 4910 7A40            0423A 33019                       CH    R1,=Y(256)          IS LENGTH OK?
 003D72 4720 72A0            03A9A 33020                       BH    VTOCERR             BR IF TOO LONG - SOMETHING BA
 003D76 4111 2000            00000 33021                       LA    R1,0(R1,R2)         ADDR OF END OF BLOCK
 003D7A 0610                       33022                       DECR  R1                  ADDR OF LAST CHAR IN BLOCK
 003D7C 4100 0002            00002 33024                       LA    R0,2                LENGTH OF BLOCK COUNT FIELD
 003D80 8620 7606            03E00 33025              PDSUNBLK BXH   R2,R0,PDENDBLK      BR IF NO MORE ENTRIES IN BLK
 003D84 4100 000C            0000C 33026                       LA    R0,12               LENGTH OF STD STUFF
 003D88 4340 200B            0000B 33027                       IC    R4,@R2+11           GET "C"
 003D8C 5440 7A0E            04208 33028                       N     R4,=X'0000001F'     CLEAR ALL EXCEPT LENGTH
 003D90 8940 0001            00001 33029                       SLL   R4,1                WHICH IS IN HALFWORDS
 003D94 1A04                       33030                       AR    R0,R4               TOTAL ENTRY LENGTH
 003D96 9104 616C      0016C       33031                       TM    F2,DSNFCAT          IS IT SHOW CATLG?
 003D9A 071E                       33032                       BOR   RAR                 RETURN IF YES
 003D9C 95FF 2000/4770_00000       33033                       IF    (@R2,EQ,X'FF'),BEGIN Check for last member
 003DA4 9101 BD52/47E0_00D52       33049  1                      IF    (CPLFLG3.CPFBLOCK,AND,F2.DSNFPDS),BEGIN
 003DB4 D203 BD80 BD7C 00D80 00D7C 33080  2                        MVC   CPWK9,CPWK8         Last block used is current count
 003DBA 47F0 7606            03E00 33081  2                        B     PDENDBLK            Keep reading till eof
 003DBE                            33082  1                      END
 003DBE 47F0 74B4            03CAE 33086  1                      B     DONE                All done
 003DC2                            33087                       END
                                   33091
 003DC2 D507 2000 BF64 00000 00F64 33092              SCATPRNM CLC   @R2(8),SDSNQLB      Member in lower bound?
 003DC8 4740 75E8            03DE2 33093                       BL    PDSORNG             BR IF BELOW LOWER BOUND
 003DCC D507 2000 BF90 00000 00F90 33094                       CLC   @R2(8),SDSNQUB      Upper bound?
 003DD2 4720 75E8            03DE2 33095                       BH    PDSORNG             BR IF ABOVE UPPER BOUND
                                   33096              **  PDS MEMBER IN SPECIFIED RANGE
 003DD6 9108 BD52      00D52       33097                       TM    CPLFLG3,CPFEXCL     EXCLUDE RANGE?
 003DDA 4710 7586            03D80 33098                       BO    PDSUNBLK            BR IF YES
 003DDE 47F0 75F0            03DEA 33099                       B     HAVEMBR             NO - PROCESS IT
                                   33100              **  PDS MEMBER OUTSIDE SPECIFIED RANGE
 003DE2 9108 BD52      00D52       33101              PDSORNG  TM    CPLFLG3,CPFEXCL     EXCLUDE RANGE?
 003DE6 4780 7586            03D80 33102                       BZ    PDSUNBLK            BR IF NOT
                                   33103              *                 OUTSIDE EXCLUDED RANGE IS INSIDE DESIRED RANGE
 003DEA 9104 616C      0016C       33104              HAVEMBR  TM    F2,DSNFCAT          IS IT SHOW CATLG?
 003DEE 4710 76AE            03EA8 33105                       BO    HAVEC               BR IF YES
 003DF2 1831                       33106                       LR    R3,R1               SAVE R1
 003DF4 1812                       33107                       LR    R1,R2               ADDR OF ENTRY
 003DF6 4DE0 783C            04036 33108                       LCALL VTOCMSG             GO ADD TO DISPLAY PAGE
 003DFA 1813                       33110                       LR    R1,R3               RESTORE R1 FOR BXH
 003DFC 47F0 7586            03D80 33111                       B     PDSUNBLK
-
0                                  33113              **  END OF DIRECTORY BLOCK
1DISK     (DISK4072) (12:42) (15MAR04) SHOW DSNAMES/DIRECTORY/CATALOG (DVTOC) Routine                                       Page  136
0Current Usings:  (JCB,R5) (IOWA,R6) (*,R7) (CP,R11) (CV,R12)
0Loc    Object Code    Addr1 Addr2  Stmt Lv Lineno    Source Statement           (Hibal 5, Asmedit 3.3)  HLASM R4.0  2004/03/15 12.42
+___    ______ ____    _____ _____  ____ __ ______    ______ _________
0003E00 9104 616C      0016C       33114              PDENDBLK TM    F2,DSNFCAT          IS IT SHOW CATLG?
 003E04 4710 72A0            03A9A 33115                       BO    VTOCERR             ERR IF SO
 003E08 D204 61BB 68D2 001BB 008D2 33116                       MVC   SEEK(5),SRCHC       ADDR OF LAST BLOCK READ
 003E0E 95FF 6720/4770_00720       33117                       IF    ((DBUF,EQ,X'FF'),AND,~CPLFLG3.CPFBLOCK),DONE
 003E1E 47F0 719C            03996 33152                       B     SRCHSTRT            GO GET NEXT BLOCK
1DISK     (DISK4072) (12:42) (15MAR04) SHOW DSNAMES/DIRECTORY/CATALOG (DVTOC) Routine                                       Page  137
0Current Usings:  (JCB,R5) (IOWA,R6) (*,R7) (CP,R11) (CV,R12)
0Loc    Object Code    Addr1 Addr2  Stmt Lv Lineno    Source Statement           (Hibal 5, Asmedit 3.3)  HLASM R4.0  2004/03/15 12.42
+___    ______ ____    _____ _____  ____ __ ______    ______ _________
0                                  33154              *
                                   33155              ***  ROUTINE TO PROCESS CATALOG BLOCKS
                                   33156              *
 003E22 4800 BF06            00F06 33157              SHOWCAT  LH    R0,DSNWANL          PATTERN LENGTH
 003E26 1200                       33158                       LTR   R0,R0               IS PATTERN LENGTH ZERO?
 003E28 4780 7698            03E92 33159                       BZ    FSTCTBLK            GO READ HIGHEST LEVEL IF SO
 003E2C 9500 637B      0037B       33160                       CLI   RETCOD+3,0          WAS DSN FOUND BY LOCATE?
 003E30 4780 76EC            03EE6 33161                       BE    SCATDSN             BR IF YES
 003E34 950C 637B      0037B       33162                       CLI   RETCOD+3,12         WAS INDEX LEVEL FOUND?
 003E38 4780 764A            03E44 33163                       BE    SCATGO              BR IF YES
 003E3C 5800 6378            00378 33164                       L     R0,RETCOD           SOMETHING WRONG
 003E40 47F0 72A0            03A9A 33165                       B     VTOCERR             SCRAM
-                                  33167              ***  GO DEBLOCK INDEX BLOCK
                                   33168              *
 003E44 4120 6988            00988 33169              SCATGO   LA    R2,CATBLOCK         FOR SHOW DIR ROUTINE
 003E48 4DE0 7570            03D6A 33170                       LCALL PDSRDOK2            USE SHOW DIR RTN TO DEBLOCK
 003E4C 47F0 765A            03E54 33172                       B     SCATGO2
 003E50 4DE0 7586            03D80 33173              SCATNEXT LCALL PDSUNBLK            GET NEXT ENTRY
 003E54 D503 2000 7A12 00000 0420C 33175              SCATGO2  CLC   @R2(4),=F'-1'       IS IT INDEX LINK ENTRY?
 003E5A 4770 76A6            03EA0 33176                       BNE   SCATDATA            BR IF NOT
                                   33177              **  ENTRY SHOULD BE INDEX LINK
 003E5E 9500 200B      0000B       33178                       CLI   @R2+11,0            VERIFY ENTRY TYPE
 003E62 4770 72A0            03A9A 33179                       BNE   VTOCERR             BR IF NOT
 003E66 D502 2008 7A44 00008 0423E 33180                       CLC   @R2+8(3),=XL3'0'    IS IT END OF LIST?
 003E6C 4780 74B4            03CAE 33181                       BE    DONE                BR IF YES
 003E70 D202 6A88 2008 00A88 00008 33182                       MVC   CATNTTR(3),@R2+8    NEXT TTR
 003E76 9680 63C4      003C4       33183                       OI    USCATL2,CAMFCVOL    SET TO USE CVOL
 003E7A 4DE0 78CE            040C8 33184              LOCATTR  WAITOFF
 003E7E 4110 63C4/0A1A       003C4 33187                       LOCATE USCATL2            LOCATE NEXT BLOCK
 003E84 4DE0 7A50            0424A 33191                       WAITON
 003E88 120F                       33194                       LTR   R0,R15              LOCATE OK?
 003E8A 4770 72A0            03A9A 33195                       BNZ   VTOCERR             BR IF NOT
 003E8E 47F0 764A            03E44 33196                       B     SCATGO              NOW GO AHEAD
-
0                                  33198              ***  NULL PATTERN - READ FIRST CATALOG BLOCK FROM SYSRES
 003E92 947F 63C4      003C4       33199              FSTCTBLK NI    USCATL2,255-CAMFCVOL  FORCE USE OF SYSRES
 003E96 D202 6A88 7A47 00A88 04241 33200                       MVC   CATNTTR(3),=AL3(1)  TTR=001
 003E9C 47F0 7680            03E7A 33201                       B     LOCATTR             GO DO LOCATE
1DISK     (DISK4072) (12:42) (15MAR04) SHOW DSNAMES/DIRECTORY/CATALOG (DVTOC) Routine                                       Page  138
0Current Usings:  (JCB,R5) (IOWA,R6) (*,R7) (CP,R11) (CV,R12)
0Loc    Object Code    Addr1 Addr2  Stmt Lv Lineno    Source Statement           (Hibal 5, Asmedit 3.3)  HLASM R4.0  2004/03/15 12.42
+___    ______ ____    _____ _____  ____ __ ______    ______ _________
0                                  33203              ***  PROCESS OTHER ENTRY TYPES
                                   33204              *
 003EA0 41E0 765A            03E54 33205              SCATDATA LA    RAR,SCATGO2         LOAD IN CASE OUT OF LIMITS
 003EA4 47F0 75C8            03DC2 33206                       B     SCATPRNM            GO CHECK IN LIMITS SPECIFIED
 003EA8 9240 6A98      00A98       33207              HAVEC    MVI   SCBUF,X'40'
 003EAC D216 6A99 6A98 00A99 00A98 33208                       MVC   SCBUF+1(SCBSZ-1),SCBUF  CLEAR BUFFER
 003EB2 D207 6A99 2000 00A99 00000 33209                       MVC   SCBNM,@R2           MOVE INDEX NAME
 003EB8 9505 200B      0000B       33210                       CLI   11(R2),5            CHECK FOR DSN POINTER ENTRY
 003EBC 4720 7764            03F5E 33211                       BH    SCATDSP             BR IF YES
 003EC0 1F44/4340 200B             33212                       LC    R4,@R2+11           GET TYPE
 003EC6 8940 0002            00002 33219                       SLL   R4,2                *4
 003ECA 47F4 76D4            03ECE 33220                       B     *+4(R4)             BR TO PROPER ROUTINE
 003ECE 47F0 771C            03F16 33221                       B     SCATINDX            INDEX POINTER ENTRY
 003ED2 47F0 7724            03F1E 33222                       B     SCATVCB             VOLUME CONTROL BLOCK ENTRY
 003ED6 47F0 7730            03F2A 33223                       B     SCATGDG             GENERATION DATA GROUP ENTRY
 003EDA 47F0 7656            03E50 33224                       B     SCATNEXT            INDEX CONTROL ENTRY - IGNORED
 003EDE 47F0 773E            03F38 33225                       B     SCATALAS            ALIAS ENTRY
 003EE2 47F0 774C            03F46 33226                       B     SCATCVOL            CVOL ENTRY
-
-
-
0                                  33228              **  ENTRY HERE FOR DSNAME SPECIFIED TO ORIG LOCATE
 003EE6 92FF 6A99      00A99       33229              SCATDSN  MVI   SCBNM,X'FF'         INDICATE NAME IN DSNWA
 003EEA 92C4 6A98      00A98       33230                       MVI   SCBCODE,C'D'        ENTER DSNAME CODE
 003EEE D201 6AAC 6988 00AAC 00988 33231                       MVC   SCBNVOLS,CATNOENT   GET NUMBER OF VOLUMES
 003EF4 D205 6AA1 698E 00AA1 0098E 33232                       MVC   SCBVOL,CATVOL       GET VOLUME NAME
 003EFA D203 6AA7 698A 00AA7 0098A 33233                       MVC   SCBDEVCD,CATDVTYP   Get device codes
 003F00 D201 6AAE 6994 00AAE 00994 33234                       MVC   SCBSEQNO,CATSEQNO   SAVE SEQUENCE NO
 003F06 4110 6A98            00A98 33235                       LA    R1,SCBUF
 003F0A 4100 0018            00018 33236                       LA    R0,SCBSZ
 003F0E 4DE0 783C            04036 33237                       LCALL VTOCMSG
 003F12 47F0 74B4            03CAE 33239                       B     DONE                EXIT
-                                  33241              **  INDEX POINTER ENTRY
 003F16 92C9 6A98      00A98       33242              SCATINDX MVI   SCBCODE,C'I'        ENTER INDEX CODE
 003F1A 47F0 7796            03F90 33243                       B     SCATWRT             THAT'S ALL
-                                  33245              **  VOLUME CONTROL BLOCK ENTRY
 003F1E 92C4 6A98      00A98       33246              SCATVCB  MVI   SCBCODE,C'D'        FLAG AS DSNAME
 003F22 92FF 6AA1      00AA1       33247                       MVI   SCBVOL,X'FF'        INDICATE VOL NAME NOT AVAIL
 003F26 47F0 7780            03F7A 33248                       B     SCATGDSN            GO CHECK FOR GDG NAME
-                                  33250              **  GENERATION DATA GROUP INDEX POINTER
 003F2A 92C7 6A98      00A98       33251              SCATGDG  MVI   SCBCODE,C'G'        ENTER GDG CODE
1DISK     (DISK4072) (12:42) (15MAR04) SHOW DSNAMES/DIRECTORY/CATALOG (DVTOC) Routine                                       Page  139
0Current Usings:  (JCB,R5) (IOWA,R6) (*,R7) (CP,R11) (CV,R12)
0Loc    Object Code    Addr1 Addr2  Stmt Lv Lineno    Source Statement           (Hibal 5, Asmedit 3.3)  HLASM R4.0  2004/03/15 12.42
+___    ______ ____    _____ _____  ____ __ ______    ______ _________
0003F2E D202 6AAB 200D 00AAB 0000D 33252                       MVC   SCBMAX(L'SCBMAX+L'SCBNVOLS),13(R2)  TWO COUNTERS
 003F34 47F0 7796            03F90 33253                       B     SCATWRT
-                                  33255              **  ALIAS ENTRY
 003F38 92C1 6A98      00A98       33256              SCATALAS MVI   SCBCODE,C'A'        ENTER ALIAS CODE
 003F3C D207 6AA1 200C 00AA1 0000C 33257                       MVC   SCBNM2,@R2+12       GET TRUE NAME
 003F42 47F0 7796            03F90 33258                       B     SCATWRT
-                                  33260              **  CVOL ENTRY
 003F46 D507 6A99 79DE 00A99 041D8 33261              SCATCVOL CLC   SCBNM,=FL8'1'       IS ENTRY CVOL OR VOL INDEX?
 003F4C 4780 7656            03E50 33262                       BE    SCATNEXT            BR IF VOL INDEX ENTRY
 003F50 92C3 6A98      00A98       33263                       MVI   SCBCODE,C'C'        ENTER CVOL CODE
 003F54 D205 6AA1 2010 00AA1 00010 33264                       MVC   SCBVOL,16(R2)       GET CVOL NAME
 003F5A 47F0 7796            03F90 33265                       B     SCATWRT
-                                  33267              **  DATA SET POINTER ENTRY
 003F5E 92C4 6A98      00A98       33268              SCATDSP  MVI   SCBCODE,C'D'        ENTER DSNAME CODE
 003F62 D201 6AAC 200C 00AAC 0000C 33269                       MVC   SCBNVOLS,12(R2)     GET NUMBER OF VOLS
 003F68 D203 6AA7 200E 00AA7 0000E 33270                       MVC   SCBDEVCD,14(R2)     Get device codes
 003F6E D205 6AA1 2012 00AA1 00012 33271                       MVC   SCBVOL,18(R2)       GET VOL NAME
 003F74 D201 6AAE 2018 00AAE 00018 33272                       MVC   SCBSEQNO,24(R2)     GET FILE. NO (FOR TAPES)
                                   33273              **  CHECK FOR COMPLEMENTED GDG LOWEST LEVEL NAME
 003F7A 91F0 6A9A      00A9A       33274              SCATGDSN TM    SCBNM+1,X'F0'       TEST NO HI-ORDER BITS
 003F7E 4770 7796            03F90 33275                       BNZ   SCATWRT             CAN'T BE GDG NAME
 003F82 95C7 6A99      00A99       33276                       CLI   SCBNM,C'G'          MAKE SURE GDG
 003F86 4770 7796            03F90 33277                       BNE   SCATWRT             BR IF NOT
 003F8A D703 6A9A 7A12 00A9A 0420C 33278                       XC    SCBNM+1(4),=F'-1'   MAKE IT READABLE
-003F90 9001 6268            00268 33280              SCATWRT  STM   R0,R1,CCREDT        SAVE REGS
 003F94 4110 6A98            00A98 33281                       LA    R1,SCBUF
 003F98 4100 0018            00018 33282                       LA    R0,SCBSZ
 003F9C 4DE0 783C            04036 33283                       LCALL VTOCMSG
 003FA0 9801 6268            00268 33285                       LM    R0,R1,CCREDT        RESTORE REGS
 003FA4 47F0 7656            03E50 33286                       B     SCATNEXT            CONTINUE TO NEXT ENTRY
1DISK     (DISK4072) (12:42) (15MAR04) SHOW DSNAMES/DIRECTORY/CATALOG (DVTOC) Routine                                       Page  140
0Current Usings:  (JCB,R5) (IOWA,R6) (*,R7) (CP,R11) (CV,R12)
0Loc    Object Code    Addr1 Addr2  Stmt Lv Lineno    Source Statement           (Hibal 5, Asmedit 3.3)  HLASM R4.0  2004/03/15 12.42
+___    ______ ____    _____ _____  ____ __ ______    ______ _________
0003FA8 50F0 6378            00378 33288              VTOCRET  ST    R15,RETCOD
 003FAC 9104 616C      0016C       33289                       TM    F2,DSNFCAT          IS IT SHOW CATLG?
 003FB0 4710 781C            04016 33290                       BO    VTOCRET4            BR IF YES
 003FB4 9108 616F/4710_0016F       33291                       IF     F5.DSNFONLY,VTOCRET3
 003FBC 4DE0 78CE            040C8 33309                       WAITOFF
 003FC0 4110 6414/0A14       00414 33312                       CLOSE MF=(E,OPENLIST)
 003FC6 9120 616C      0016C       33316                       TM    F2,DSNFPDS          IS IT SHOW DIRECTORY?
 003FCA 4780 780C            04006 33317                       BZ    VTOCRET1            BR IF NOT
 003FCE 5800 C714/5000_      00714 33318                       DEQ   RET=HAVE,TCB=CVITCBP,MF=(E,ENQDSN)
 004006 58E0 7A16/0DEE       04210 33337              VTOCRET1 WAITON X
 00400C 58E0 7A1A/0DEE       04214 33342              VTOCRET3 ACALL VDALLO              GO CHECK DEALLOCATION
 004012 58F0 6378            00378 33346                       L     R15,RETCOD
 004016 1830                       33347              VTOCRET4 LR    R3,R0               SAVE R0
 004018 1841                       33348                       LR    R4,R1               AND R1
 00401A 182F                       33349                       LR    R2,R15              SAVE R15
 00401C 58E0 7A1E/0DEE       04218 33350                       ACALL RELIOWA             Release IOWA
 004022 1803                       33354                       LR    R0,R3               RESTORE R0
 004024 1814                       33355                       LR    R1,R4               RESTORE R1
 004026 18F2                       33356                       LR    R15,R2              RESTORE R15
 004028 18D8/58E0 D000_            33357              VTRX     XEXIT ,,LTR
1DISK     (DISK4072) (12:42) (15MAR04) SHOW DSNAMES/DIRECTORY/CATALOG (DVTOC) Routine                                       Page  141
0Current Usings:  (JCB,R5) (IOWA,R6) (*,R7) (CP,R11) (CV,R12)
0Loc    Object Code    Addr1 Addr2  Stmt Lv Lineno    Source Statement           (Hibal 5, Asmedit 3.3)  HLASM R4.0  2004/03/15 12.42
+___    ______ ____    _____ _____  ____ __ ______    ______ _________
0004036 90E8 6884            00884 33364              VTOCMSG  STM   R14,R8,VTOCSV       SAVE REGS
 00403A 4830 9000            00000 33365                       LH    R3,@PAR             GET COUNT
 00403E 1840                       33366                       LR    R4,R0               NEW COUNT
 004040 1A34                       33367                       AR    R3,R4               NEW TOTAL
 004042 5930 7A22            0421C 33368                       C     R3,=A(CVPSZ-3)      Thats how much there is
 004046 4830 9000            00000 33369                       LH    R3,@PAR             OLD COUNT
 00404A 47D0 7868            04062 33370                       BNH   VMSGOK              IT'LL FIT
 00404E 0630                       33371                       DECR  R3                  DECR. COUNT
 004050 4030 9000            00000 33373                       STH   R3,@PAR             STORE IT BACK
 004054 58F0 6880            00880 33374                       L     R15,PAGEGET         GET ADDR OF SUBR
 004058 0DEF                       33375                       BASR  RAR,R15
 00405A 4780 72A0            03A9A 33376                       BZ    VTOCERR             NO PAGES
 00405E 4130 0001            00001 33377                       LA    R3,1                INIT NEW PAGE
 004062 4149 3001            00001 33378              VMSGOK   LA    R4,@R3+1(PAR)       POINTER WHERE TO PUT IT
 004066 1A30                       33379                       AR    R3,R0
 004068 4130 3001            00001 33380                       LA    R3,@R3+1            FORM NEW COUNT
 00406C 4030 9000            00000 33381                       STH   R3,@PAR             STORE IT
 004070 1830                       33382                       LR    R3,R0               MSG COUNT
 004072 0630/4430 789A             33383                       DEX   R3,DVTMV            MOVE IN MSG
 004078 4130 3001            00001 33388                       LA    R3,@R3+1            COUNT OF MSG
 00407C 4230 4000            00000 33389                       STC   R3,@R4              STORE IT
 004080 4134 3001            00001 33390                       LA    R3,@R3+1(R4)        ONE PAST END OF MSG
 004084 9200 3000      00000       33391                       MVI   @R3,0               END FLAG
 004088 58E0 79F6/0DEE       041F0 33392                       PMARK PAR                 MARK THE PAGE AS CHANGED
 00408E 98E8 6884            00884 33397                       LM    R14,R8,VTOCSV
 004092 07FE                       33398                       BR    RAR
                                   33399
 004094 D200 4001 1000 00001 00000 33400              DVTMV    MVC   @R4+1(1),@R1
-00409A 9140 637C      0037C       33402              VTOCWT   TM    DECB,X'40'          ALREADY COMPLETE
 00409E 071E                       33403                       BOR   RAR                 YES
 0040A0 50E0 D000/41D0_      00000 33404                       LENTER ,                  SAVE INPUT
 0040A8 9680 6014      00014       33408                       SET   IWA1ACTV            TURN ON ECB WATCH
 0040AC 9620 5060/41E0_00060       33414                       PAUSE JCBWFD              WAIT FOR POST
 0040BE 4BD0 7A42/58E0_      0423C 33427                       LEXIT ,                   RETURN TO CALLER
1DISK     (DISK4072) (12:42) (15MAR04) Disk I/O Routines                                                                    Page  142
0Current Usings:  (JCB,R5) (IOWA,R6) (*,R7) (CP,R11) (CV,R12)
0Loc    Object Code    Addr1 Addr2  Stmt Lv Lineno    Source Statement           (Hibal 5, Asmedit 3.3)  HLASM R4.0  2004/03/15 12.42
+___    ______ ____    _____ _____  ____ __ ______    ______ _________
0                                  33434              *
                                   33435              *** WAITOFF ROUTINE - POSTS I/O SUBTASK WITH WORK TO DO
                                   33436              **          NOTE THAT THE WAITOFF/WAITON ROUTINES ASSUME IOWAR
                                   33437              **          POINTS TO THE USER'S IOWA ON ENTRY.
                                   33438              *
                                   33439                       ENTRY WAITOFF
 0040C8 900F C780/4DE0_      00780 33440              WAITOFF  XTRACE WAITOFF,REGS=14
 0040DC 50B0 6130            00130 33447                       ST    CPR,WACPR           Save CP ptr
 0040E0 90E7 6134            00134 33448                       STM   RAR,R7,WAR14        SAVE REGS FOR SUBTASK
 0040E4 9108 C4C4/071E 004C4       33449                       IF    CVFNDSUB,RAR        For debugging: don't subtask
 0040EA 0D70                       33467                       BASE
 DROP   *,R7
 USING  *,R7
                                   33484
 0040EC 5850 C1C8            001C8 33485                       L     JCBR,CVCURJCB       GET CURRENT JCB
                                   33486                       USING JCB
 0040F0 BD57 6009            00009 33488                       CLM   JCBR,B'0111',IWA@JCB+1  IS IT OUR RESOURCE?
 0040F4 4770 7192            0427E 33489                       BNE   WAITBAD             BR IF NOT, ...
 0040F8 9200 637C      0037C       33490                       MVI   DECB,0              CLEAR DECB
 0040FC 1B00/4110 6128_            33491                       POST  STECB               Post subtask
 004104 9140 637C      0037C       33497                       TM    DECB,X'40'          SUBTASK ALREADY DONE?
 004108 4780 7024            04110 33498                       BZ    DODSP               NO, GO DISPATCH OTHERS
 00410C 47F0 703A            04126 33499                       B     WAITRET             RETURN TO SAME USER
                                   33500
 004110 9680 6014      00014       33501              DODSP    SET   IWA1ACTV            ECB NEEDS MONITORING
 004114 9620 5060/41E0_00060       33508                       PAUSE JCBWFD              WAIT FOR SUBTASK TO POST
 DROP   *,R7                       33521                       DROP  BR,JCBR
 DROP   JCB,R5
                                   33534
 004126 98E7 6134            00134 33535              WAITRET  LM    RAR,R7,WAR14        RETURN SAVED BY WAITON
 00412A 900F C780/4DE0_      00780 33536                       XTRACE WAITON,REGS=14
 00413E 07FE                       33542                       BR    RAR                 GO ON WITH MAIN TASK
1DISK     (DISK4072) (12:42) (15MAR04) Disk I/O Routines                                                                    Page  143
0Current Usings:  (IOWA,R6) (CP,R11) (CV,R12)
0Loc    Object Code    Addr1 Addr2  Stmt Lv Lineno    Source Statement           (Hibal 5, Asmedit 3.3)  HLASM R4.0  2004/03/15 12.42
+___    ______ ____    _____ _____  ____ __ ______    ______ _________
0                                  33544              ¿þþþþþþþþþþþþþþþþþþþþþþþþþþþþþþþþþþþþþþþþþþþþþþþþþþþþþþþþþþþþþþþþþþþþþÜ
                                   33545              Ÿ        Subtask initialization.                                      Ÿ
                                   33546              Ÿ                                                                     Ÿ
                                                      ¾þþþþþþþþþþþþþþþþþþþþþþþþþþþþþþþþþþþþþþþþþþþþþþþþþþþþþþþþþþþþþþþþþþþþþ»
0004140 90EC D00C            0000C 33547              SUBTSKGO SAVE  (14,12)             SAVE OS SLOP
 004144 1861                       33550                       LR    IOWAR,R1            WORK AREA ADDR PASSED AS PARM
 004146 50D0 612C            0012C 33551                       ST    R13,OSR13           SAVE OS SAVE AREA ADDR
 00414A 0D70                       33552                       BASE
 USING  *,R7
 00414C 58C0 70D8            04224 33566                       L     CVR,=V(CV)          MAKE SURE OF CV PTR
                                   33567                       ¿þþþþþþþþþþþþþþþþþþþþþþþþþþþþþþþþþþþþþþþþþþþþÜ
                                   33568                       Ÿ  Switch to same AMODE as the mother task.  Ÿ
                                   33569                       ¾þþþþþþþþþþþþþþþþþþþþþþþþþþþþþþþþþþþþþþþþþþþþ»
 004150 9110 C4C6/47E0_004C6       33570                       IF    CVFXA,BEGIN         XA mode...
 004158 4120 701E            0416A 33585  1                      LA    R2,A31GO
 00415C 9102 C4C6/47E0_004C6       33586  1                      IF    CVFXA31,BEGIN       We want 31-bit mode...
 004164 5620 70DC            04228 33601  2                        O     R2,=A(X'80000000')  31 bit mode wanted
 004168                            33602  1                      END
 004168 0B02                       33606  1                      BSM   0,R2
                                   33607  1
 00416A                            33608  1           A31GO      LABEL
 00416A                            33610                       END
                                   33614
 00416A 1B11/4100 0001_            33615                       CHAP  +1                  We should run above main task
                                   33619
 004172 5800 70E0            0422C 33620                       L     R0,=A(WASTACK#)
 004176 4510 702E/0A0A       0417A 33621                       GETMAIN R,LV=(0)          Get subtask stack
 00417C 5010 615C            0015C 33625                       ST    R1,WASTACKP         Save stack ptr
                                   33626
 004180 4110 0001/0A2E       00001 33627                       TTIMER CANCEL             Cancel any time
 004186 1B11                       33631                       CLEAR R1
 004188 4100 0008/41F0_      00008 33635                       ESPIE RESET,(1)           Clear any spie
 004192 4100 0084/0A3C       00084 33640                       ESTAE 0                   Clear stae
                                   33647
 004198 9108 C4C7/4710_004C7       33648                       IF    ~CVFNSTAE,BEGIN     OK TO DO STAE...
 0041A0 4510 7070/16/0_      041BC 33663  1                      ESTAE SUBSTAE,PARAM=(IOWAR)  SET UP STAE FOR ABENDS
 0041CA 59F0 70B0/4720_      041FC 33683  1                      IF    (R15,GT,4),IOABEND  Bad call
 0041D2                            33703                       END
                                   33707
 0041D2 47F0 7110            0425C 33708                       B     SUBTSKWT            WAIT FOR WORK TO DO
                                   33709
 0041D8                            33710                       LTORG
 0041D8 0000000000000001           33712                             =FL8'1'
 0041E0 00000000                   33713                             =V(ACEECLR)
 0041E4 00004298                   33714                             =A(DOWYLCVL)
 0041E8 00000038                   33715                             =A(56)
 0041EC 00000000                   33716                             =V(EXIT5)
 0041F0 00000000                   33717                             =V(PMARKA)
 0041F4 00002CB4                   33718                             =A(CLRJFCB)
 0041F8 C3E5D7D3                   33719                             =C'CVPL'
 0041FC 00000004                   33720                             =A(4)
 004200 00000000                   33721                             =A(0)
 004204 00000008                   33722                             =A(8)
1DISK     (DISK4072) (12:42) (15MAR04) Disk I/O Routines                                                                    Page  144
0Current Usings:  (IOWA,R6) (*,R7) (CP,R11) (CV,R12)
0Loc    Object Code    Addr1 Addr2  Stmt Lv Lineno    Source Statement           (Hibal 5, Asmedit 3.3)  HLASM R4.0  2004/03/15 12.42
+___    ______ ____    _____ _____  ____ __ ______    ______ _________
0004208 0000001F                   33723                             =X'0000001F'
 00420C FFFFFFFF                   33724                             =F'-1'
 004210 00000000                   33725                             =V(WAITON)
 004214 00003486                   33726                             =A(VDALLO)
 004218 00003274                   33727                             =A(RELIOWA)
 00421C 00004F75                   33728                             =A(CVPSZ-3)
 004220 00000000                   33729                             =V(DISPATCH)
 004224 00000000                   33730                             =V(CV)
 004228 80000000                   33731                             =A(X'80000000')
 00422C 00000400                   33732                             =A(WASTACK#)
 004230 0008                       33733                             =H'8'
 004232 0004                       33734                             =H'4'
 004234 0040                       33735                             =AL2(64)
 004236 0001                       33736                             =H'1'
 004238 016E                       33737                             =H'366'
 00423A 0100                       33738                             =Y(256)
 00423C 0004                       33739                             =Y(4)
 00423E 000000                     33740                             =XL3'0'
 004241 000001                     33741                             =AL3(1)
 DROP   *,R7                       33745                       DROP  R7
-                                  33753              *
                                   33754              *** WAITON ROUTINE - SUBTASK HAS DONE ITS WORK - POST MAIN TASK
                                   33755              **         NOTE THAT THE WAITOFF/WAITON ROUTINES ASSUME IOWAR
                                   33756              **         POINTS TO THE USER'S IOWA ON ENTRY.
                                   33757              *
                                   33758                       ENTRY WAITON
 00424A 90E7 6134            00134 33759              WAITON   STM   R14,R7,WAR14        SAVE FOR MAIN TASK
 00424E 9108 C4C4/071E 004C4       33760                       IF    CVFNDSUB,RAR        For debugging: don't subtask
 004254 1B00/4110 637C_            33778              WAITONP  POST  DECB,0              POST I/O DECB
 00425C 4100 0001/4110_      00001 33784              SUBTSKWT WAIT  ECB=STECB           WAIT FOR WORK
                                   33791                       ¿þþþþþþþþþþþþþþþþþþþþþþþþþþþþþþþþþþþþþþþþþþþþþþþþþþþþþþÜ
                                   33792                       Ÿ  Subtask always waits at this point for work to do.  Ÿ
                                   33793                       ¾þþþþþþþþþþþþþþþþþþþþþþþþþþþþþþþþþþþþþþþþþþþþþþþþþþþþþþ»
 004266 58B0 6130            00130 33794                       L     CPR,WACPR           Restore CP ptr
 00426A 98E7 6134            00134 33795                       LM    R14,R7,WAR14        Restore regs
 00426E 58D0 615C            0015C 33796                       L     R13,WASTACKP        Reset subtask stack ptr
 004272 188D                       33797                       LR    R8,R13              Ditto
 004274 9200 6128      00128       33798                       MVI   STECB,0             Clear subtask ECB
 004278 4160 6000            00000 33799                       LA    IOWAR,IOWA          Clear High
 00427C 07FE                       33800                       BR    RAR
                                   33801              þþþþ
 00427E 0D70                       33802              WAITBAD  BASE
 USING  *,R7
 004280 900F C780/4DE0_      00780 33816                       KAPUT IOWAERR,'WAITON/WAITOFF LOGIC ERROR'
                                   33823
                                   33824                       QLTORG
1DISK     (DISK4072) (12:42) (15MAR04) Disk I/O Routines                                                                    Page  145
0Current Usings:  (IOWA,R6) (*,R7) (CP,R11) (CV,R12)
0Loc    Object Code    Addr1 Addr2  Stmt Lv Lineno    Source Statement           (Hibal 5, Asmedit 3.3)  HLASM R4.0  2004/03/15 12.42
+___    ______ ____    _____ _____  ____ __ ______    ______ _________
0                                  33837              ¿þþþþþþþþþþþþþþþþþþþþþþþþþþþþþþþþþþþþþþþþþþþþþþþþþþþþþþþþþþþþþþþþþþþþþÜ
                                   33838              Ÿ                                                                     Ÿ
                                   33839              Ÿ  THESE SUBROUTINES ARE CALLED WHILE RUNNING UNDER A SUBTSK, SO "CP" Ÿ
                                   33840              Ÿ  ASSUMPTIONS CAN NOT BE MADE.  (ALSO, "CVENTCK" USED BY XENTER      Ÿ
                                   33841              Ÿ  WON'T WORK).                                                       Ÿ
                                   33842              Ÿ                                                                     Ÿ
                                                      ¾þþþþþþþþþþþþþþþþþþþþþþþþþþþþþþþþþþþþþþþþþþþþþþþþþþþþþþþþþþþþþþþþþþþþþ»
0DROP   CP,R11                     33843                       DROP  CP,CV
 DROP   CV,R12
                                   33858              * THIS ROUTINE WILL SET THE CATALOG OR LOCATE WORK AREA
                                   33859              * POINTED TO BY R1 TO USE THE WYL. CVOL IF THE DSNAME STARTS
                                   33860              * WITH WYL. AND INITIALIZATION FOUND WYL. IN THE CATALOG
                                   33861              *
                                   33862              * The address of the dsname to be processed must be in R15 on entry.
                                   33863              * The DOWYLCVL macro may be used to load R15 and call routine.
                                   33864              *
 004298 5070 D000            00000 33865              DOWYLCVL ST    BR,@R13             SAVE OLD BASE REG
 00429C 0D70                       33866                       BASE
 DROP   *,R7
 USING  *,R7
 00429E 947F 1000      00000       33883                       NI    @R1,255-CAMFCVOL    SET NOT TO USE CVOL
 0042A2 D503 F000 7022 00000 042C0 33884                       CLC   @R15(L'KWYL),KWYL   Does name start with "WYL."?
 0042A8 47F0 701C            042BA 33885              WYLCVOL  B     DOWYLEX             SET TO BNE BY INITIALIZATION
 0042AC 9680 1000      00000       33886                       OI    @R1,CAMFCVOL        SET TO USE CVOL IF WYL.
 0042B0 D203 1008 748A 00008 04728 33887                       MVC   @R1+8(4),=A(WYLVOL) MOVE IN CVOL ADDRESS
 0042B6 94F7 616D      0016D       33888                       NI    F3,255-DSNFCVOL     TURN OFF CVOL OPTION
 0042BA 5870 D000            00000 33889              DOWYLEX  L     R7,@R13
 0042BE 07FE                       33890                       BR    RAR                 RETURN
 DROP   *,R7                       33891                       DROP  BR
00042C0 E6E8D34B                   33899              KWYL     DC    C'WYL.'             DEFINE WYL. HEADER
                                   33900                       ENTRY WYLVOL
 0042C4 404040404040               33901              WYLVOL   DC    CL6' '              SPACE FOR WYL. CVOL NAME
1DISK     (DISK4072) (12:42) (15MAR04) Calculate Records/Track Routine                                                      Page  146
0Current Usings:  (IOWA,R6)
0Loc    Object Code    Addr1 Addr2  Stmt Lv Lineno    Source Statement           (Hibal 5, Asmedit 3.3)  HLASM R4.0  2004/03/15 12.42
+___    ______ ____    _____ _____  ____ __ ______    ______ _________
0DROP   IOWA,R6                    33903                       DROP  IOWA
-000000                00000 0004C 33912              TRKWA    RECORD BEGIN
                                   33920  1                      PUSH  NOGEN
                                   33921  1 01-00316 +         $$PUSH  PRINT
                                   33923  1 02-00281 +         $$PRINT NOGEN
 000000 0000000000000000           33924  1                      XSA   R2,R8
 000020                            33926  1           TRKREGS    DS    (R15-R9+1)F         Saved regs
 00003C                            33927  1           TRKBLK     DS    F                   Block size on entry
                                   33928  1           TRKLIST    TRKCALC MF=D
                                   33954  1                      POP   PRINT
                                   33955  1 01-00421 +         $$POP   PRINT
 00004C                0004C 0004C 33956                       END
-                                  33966              ¿þþþþþþþþþþþþþþþþþþþþþþþþþþþþþþþþþþþþþþþþþþþþþþþþþþþþþþþþþþþþþþþþþþþþþÜ
                                   33967              Ÿ                                                                     Ÿ
                                   33968              Ÿ  CALCTRK -- Routine to calculate the number of records per          Ÿ
                                   33969              Ÿ    track for a given block size.                                    Ÿ
                                   33970              Ÿ                                                                     Ÿ
                                   33971              Ÿ    On entry:                                                        Ÿ
                                   33972              Ÿ      R0 - block size                                                Ÿ
                                   33973              Ÿ      R1 - DVTAREA ptr (info returned from DEVTYPE)                  Ÿ
                                   33974              Ÿ                                                                     Ÿ
                                   33975              Ÿ    On exit:                                                         Ÿ
                                   33976              Ÿ      R0 - best block size                                           Ÿ
                                   33977              Ÿ      R1 - no. of records/track                                      Ÿ
                                   33978              Ÿ      R15- best no. of records/track                                 Ÿ
                                   33979              Ÿ                                                                     Ÿ
                                   33980              Ÿ                                                                     Ÿ
                                                      ¾þþþþþþþþþþþþþþþþþþþþþþþþþþþþþþþþþþþþþþþþþþþþþþþþþþþþþþþþþþþþþþþþþþþþþ»
00042CA 50E0 D000/9028_      00000 33981              CALCTRK  XENTER R2,R8,L'TRKWA,TRACE=NO
 USING  *,R7
 USING  TRKWA,R8                   34002                       USING TRKWA,WAR
 0042DA 1861                       34011                       LR    R6,R1
 USING  DVTAREA,R6                 34012                       USING DVTAREA,R6
                                   34021
 0042DC D70B 8040 8040 00040 00040 34022                       CLEAR TRKLIST
 0042E2 5400 7452            0472C 34029                       N     R0,=A(X'FFFF')      Only want data length
 0042E6 5000 803C            0003C 34030                       ST    R0,TRKBLK           Save for later
 0042EA 5000 8048            00048 34031                       ST    R0,STARRKDD         Save data length
 0042EE 9201 8048      00048       34032                       MVI   STARR,1             Save record number
 0042F2 1F22/4320 6003             34033                       LC    R2,DVTUTYPE         Device type
 0042F8 909F 8020            00020 34040                       STM   R9,R15,TRKREGS      Be careful
 0042FC 4110 8040/4220_      00040 34041                       TRKCALC  FUNCTN=TRKCAP,TYPE=(R2),MF=(E,TRKLIST)
 004314 989F 8020            00020 34052                       LM    R9,R15,TRKREGS
 004318 1810                       34053                       LR    R1,R0               Records per track
1DISK     (DISK4072) (12:42) (15MAR04) Calculate Records/Track Routine                                                      Page  147
0Current Usings:  (DVTAREA,R6) (*,R7) (TRKWA,R8)
0Loc    Object Code    Addr1 Addr2  Stmt Lv Lineno    Source Statement           (Hibal 5, Asmedit 3.3)  HLASM R4.0  2004/03/15 12.42
+___    ______ ____    _____ _____  ____ __ ______    ______ _________
0                                  34054                       ¿þþþþþþþþþþþþþþþþþþþþþþþþþþþþþþþþþþþþþþþþþþþþþþþþþþþþþþþþþþþþþþþÜ
                                   34055                       Ÿ  Now calculate the best block size less than or equal to the  Ÿ
                                   34056                       Ÿ  one given.  If we have to make it less than the one given,   Ÿ
                                   34057                       Ÿ  then we make it the maximum for R+1 records per track)...    Ÿ
                                   34058                       ¾þþþþþþþþþþþþþþþþþþþþþþþþþþþþþþþþþþþþþþþþþþþþþþþþþþþþþþþþþþþþþþþ»
 00431A 18F1                       34059                       LR    R15,R1              Best no. of recs per track
 00431C                            34060                       LOOP  BEGIN
 00431C 1F55/BF53 600C             34066  1                      L2    R5,DVTTRKSZ         Total track length
 004322 9110 6011/47E0_008C9       34074  1                      IF    DVTFLAG.DVTFMOD,BEGIN  modulo device...
 00432A 1B44                       34090  2                        CLEAR R4
 00432C 1D4F                       34094  2                        DR    R4,R15              "n" equal parts
 00432E 4B50 600E            008C6 34095  2                        SH    R5,DVTBLKO          Subtract fixed overhead
 004332 1F33/4330 6010             34096  2                        LC    R3,DVTMODN          Modulo this number
 004338 1B44                       34103  2                        CLEAR R4
 00433A 1D43                       34107  2                        DR    R4,R3               /modulo
 00433C 1C43                       34108  2                        MR    R4,R3               *modulo
 00433E 4B50 6012            008CA 34109  2                        SH    R5,DVTMODO          Subtract data overhead
 004342 1A53                       34110  2                        AR    R5,R3               Best case...
 004344 0650                       34111  2                        DECR  R5                  ... for modulo R3
 004346 1805                       34113  2                        LR    R0,R5               Max blksize for this rpt
 004348                            34114  1                      END
                                   34118  1
 004348 7072/47F0 70C4 04348 04328 34119  1                      ELSE  BEGIN               Non-modulo device...
 00434C 1F22/4320 600F             34130  2                        LC    R2,DVTLBLKO         Last block overhead
 004352 1F33/4330 600E             34137  2                        LC    R3,DVTBLKO          Block overhead
 004358 9108 6011/47E0_008C9       34144  2                        IF    DVTFLAG.DVTFOHD,'L2 R2,DVTBLKO; LR R3,R2'
 004368 1F44/4340 6010             34174  2                        LC    R4,DVTKEYO          No key reduction amount
 00436E 1B24                       34181  2                        SR    R2,R4               Reduce
 004370 1B34                       34182  2                        SR    R3,R4               Ditto
 004372 1B52                       34183  2                        SR    R5,R2               Subtract last block overhead
 004374 184F                       34184  2                        LR    R4,R15
 004376 0640                       34185  2                        DECR  R4
 004378 1C24                       34187  2                        MR    R2,R4               Overhead for other blocks
 00437A 1B53                       34188  2                        SR    R5,R3               Subtract that too
 00437C 8950 0009            00009 34189  2                        SLL   R5,9                Times 512
 004380 4130 0200            00200 34190  2                        LA    R3,512              Assume no tolerance
 004384 9101 6011/47E0_008C9       34191  2                        IF    DVTFLAG.DVTFTOL,'L2 R3,DVTTOL'
 004392 1C24                       34220  2                        MR    R2,R4               Times tolerance factor
 004394 4A30 7476            04750 34221  2                        AH    R3,=H'512'          No tolerance for last block
 004398 1B44                       34222  2                        CLEAR R4
 00439A 1D43                       34226  2                        DR    R4,R3
 00439C 1805                       34227  2                        LR    R0,R5               Max blksize for this rpt
 00439E                            34228  1                      END
                                   34232  1
 00439E 5900 803C/47C0_      0003C 34233  1                      IF    (R0,LE,TRKBLK),EXIT  blksize within bounds, scram
 0043A6 41F0 F001            00001 34253  1                      LA    R15,@R15+1          Try with one more rpt
 0043AA 47F0 7042            0431C 34254                       END
                                   34259
 0043AE 18D8/58E0 D000_            34260                       XEXIT
 DROP   DVTAREA,R6                 34265                       DROP  DVTAREA,TRKWA,BR
 DROP   TRKWA,R8
 DROP   *,R7
                                   34286
 USING  IOWA,R6                    34287                       USING (IOWA),(CP),(CV)
1DISK     (DISK4072) (12:42) (15MAR04) Calculate Records/Track Routine                                                      Page  148
0Current Usings:  (IOWA,R6) (CP,R11) (CV,R12)
0Loc    Object Code    Addr1 Addr2  Stmt Lv Lineno    Source Statement           (Hibal 5, Asmedit 3.3)  HLASM R4.0  2004/03/15 12.42
+___    ______ ____    _____ _____  ____ __ ______    ______ _________
0USING  CP,R11
 USING  CV,R12
1DISK     (DISK4072) (12:42) (15MAR04) Catastrophic Error (CATER) Routine                                                   Page  149
0Current Usings:  (IOWA,R6) (CP,R11) (CV,R12)
0Loc    Object Code    Addr1 Addr2  Stmt Lv Lineno    Source Statement           (Hibal 5, Asmedit 3.3)  HLASM R4.0  2004/03/15 12.42
+___    ______ ____    _____ _____  ____ __ ______    ______ _________
0                                  34316              *  CATASTROPHIC ERROR
                                   34317              *
 0043BA 50E0 D000/9008_      00000 34318              CATER    XENTER R0,R8
 USING  *,R7
                                   34337                       USING IOWA
 0043D4 4110 737E/4100_      04752 34339                       SEG   'Disk error during ',,L:CVWTOSGP
 0043E6 4320 636D            0036D 34354                       IC    R2,ERROR+1          GET THE CODE
 0043EA 5420 7360            04734 34355                       N     R2,=XL4'0000000F'   AND AND IT OUT
 0043EE 5920 7364/47D0_      04738 34356                       IF    (R2,GT,MAXERR),'CLEAR R2'     MAKE SURE OK
 0043F8 8920 0003            00003 34382                       SLL   R2,3                * BY 8
 0043FC 4112 70FA            044CE 34383                       LA    R1,ERRMSG(R2)       POINT AT MSG
 004400 4100 0008            00008 34384                       LA    R0,L'ERRMSG         AND LENGTH
 004404 58F0 C748/58E0_      00748 34385                       SEGTB (R1),(R0)           Output the msg
 00440E 4110 739C/4100_      04770 34407                       SEG   'RC='               Output the return code
 004420 4800 636E            0036E 34422                       LH    R0,ERROR+2          GET THE RETURN CODE
 004424 41F0 0002            00002 34423                       LA    R15,2               SET TR LENGTH
 004428                            34424                       LOOP  BEGIN
 004428 8C00 0004            00004 34430  1                      SRDL  R0,4                MOVE TO RIGHT
 00442C 8810 0004            00004 34431  1                      SRL   R1,4                MOVE OFFSET
 004430 06F0                       34432  1                      DECR  R15                 DOWN ONE
 004432 12FF/4770 7054             34434                       UNTIL (R15,Z),END         LOOP UNTIL DONE
 004438 BE1C 636E            0036E 34456                       STCM  R1,12,ERROR+2       SAVE GOOD INFO
 00443C DC01 636E 70EA 0036E 044BE 34457                       TR    ERROR+2(2),TRTB     TRANSLATE ERROR
 004442 D203 6364 636C 00364 0036C 34458                       MVC   RECSIZE,ERROR       Save for NTGDOPN
 004448 4110 636E/4100_      0036E 34459                       SEG   ERROR+2,2
 00445A 4110 7390/4100_      04764 34486                       SEG   '.  Dsname='
 00446C 4110 6270/4800_      00270 34501                       SEGT  DSNAME,LH:DSNWANL
 00447E 4110 739F/4100_      04773 34526                       SEG   ', Volume='
 004490 4110 634E/4100_      0034E 34541                       SEGT  DSVID
 0044A2 1B00/58F0 C748_            34567                       XWTO
 0044AE 41F0 006C            0006C 34590                       LA    R15,RTNCATER
 0044B2 18D8/58E0 D000_            34591                       XEXIT R0,R8
 DROP   IOWA,R6                    34596                       DROP  IOWA,BR
 DROP   *,R7
                                   34610
 0044BE F0F1F2F3F4F5F6F7           34611              TRTB     DC    C'0123456789ABCDEF'
                                   34612
 0044CE E495929596A69540           34613              ERRMSG   DC    CL8'Unknown'        0
 0044D6 C19393968381A385           34614                       DC    CL8'Allocate'       1
 0044DE D682A38189954040           34615                       DC    CL8'Obtain'         2
 0044E6 D3968381A3854040           34616                       DC    CL8'Locate'         3
 0044EE D697859540404040           34617                       DC    CL8'Open'           4
 0044F6 C2D3C4D340404040           34618                       DC    CL8'BLDL'           5
 0044FE E2839981A3838840           34619                       DC    CL8'Scratch'        6
 004506 E2A396A640404040           34620                       DC    CL8'Stow'           7
 00450E C1C3E2E5E6D9C9E3           34621                       DC    CL8'ACSVWRIT'       8
 004516 D9C5D5C1D4C54040           34622                       DC    CL8'RENAME'         9 - Error type
                                   34623
                                   34624              MAXERR   EQU   (*-ERRMSG)/8-1,,C'N'
1DISK     (DISK4072) (12:42) (15MAR04) Subtask ESTAE Exit Routine                                                           Page  150
0Current Usings:  (CP,R11) (CV,R12)
0Loc    Object Code    Addr1 Addr2  Stmt Lv Lineno    Source Statement           (Hibal 5, Asmedit 3.3)  HLASM R4.0  2004/03/15 12.42
+___    ______ ____    _____ _____  ____ __ ______    ______ _________
0                                  34626              ¿þþþþþþþþþþþþþþþþþþþþþþþþþþþþþþþþþþþþþþþþþþþþþþþþþþþþþþþþþþþþþþþþþþþþþÜ
                                   34627              Ÿ                                                                     Ÿ
                                   34628              Ÿ  SUBSTAE -- Subtask ESTAE exit.                                     Ÿ
                                   34629              Ÿ                                                                     Ÿ
                                                      ¾þþþþþþþþþþþþþþþþþþþþþþþþþþþþþþþþþþþþþþþþþþþþþþþþþþþþþþþþþþþþþþþþþþþþþ»
000451E 90EC D00C            0000C 34630              SUBSTAE  SAVE  (14,12)
 004522 0D70                       34633                       BASE
 USING  *,R7
 004524 0ADE/210F/4100_            34647                       QSNAP 'SUBSTAE entered',MODE=WTL
                                   34652
 00452C 1841                       34653                       LR    R4,R1               Save SCB ptr
 USING  SDWA,R4                    34654                       USING SDWA,R4
 00452E B205 7134      04658       34663                       STCK  DISKCLCK            Time/date of error
 004532 D267 713C 4000 04660 00000 34664                       MVC   DISKSCB,SDWA        Save a copy of the SCB
                                   34665
 004538 58C0 7224            04748 34666                       L     CVR,=V(CV)          Global addressability
 00453C 1BBB                       34667                       CLEAR CPR                 No CP here
                                   34671
 00453E 5860 4000            00000 34672                       L     IOWAR,SDWAPARM      Get IOWA ptr
 USING  IOWA,R6                    34673                       USING IOWA
                                   34682
 004542 1B88                       34683                       CLEAR R8                  No Wylbur stack
                                   34687              *        (We can't CLEAR R13 because it is the OS save area ptr.)
                                   34688                       ¿þþþþþþþþþþþþþþþþþþþþþþþþþþþþþþþþþþþþþþþþþþþþþþþþþþþÜ
                                   34689                       Ÿ  Switch back into our TCB key and problem state.  Ÿ
                                   34690                       ¾þþþþþþþþþþþþþþþþþþþþþþþþþþþþþþþþþþþþþþþþþþþþþþþþþþþ»
 004544 4510 7028/0000_      0454C 34691                       MODESET MODE=SUP          Play the game....
 004552 5830 6024            00024 34698                       L     R3,WATCB            Our TCB
 USING  TCB,R3                     34699                       WITH  (TCB,R3),BEGIN
 004556 1812/B20B 0000_            34713  1                      MODESET EXTKEY=TCB,SAVEKEY=STAEKEY,WORKREG=1  TCB key(safe)
 DROP   TCB,R3                     34721                       END
 00456A 0700/4510 7050_            34729                       MODESET MODE=PROB         Always return to problem state
                                   34736                       ¿þþþþþþþþþþþþþþþþþþþþþþþþþþþþþþþþþþþþþþþÜ
                                   34737                       Ÿ  Figure out if recovery is possible.  Ÿ
                                   34738                       ¾þþþþþþþþþþþþþþþþþþþþþþþþþþþþþþþþþþþþþþþ»
 00457A 5800 4004            00004 34739                       L     R0,SDWAABCC         GET ABEND CODE FROM SDWA
 00457E D603 6180 6180_00180 00180 34740                       IF    (WAABEND,Z),NORETRY  NO ABEND RECOVERY ROUTINE, ABEND
 004588 8900 0008            00008 34759                       SLL   R0,8
 00458C 1B11                       34760                       CLEAR R1                  CLEAR
 00458E 8C00 0014            00014 34764                       SRDL  R0,20               R1=USER ABEND CODE, R0=SYS CODE
 004592 1211/4770 70EC             34765                       IF    (R1,NZ),NORETRY     Don't retry if user abend
                                   34782                       ¿þþþþþþþþþþþþþþþþþþþþþþþþþþþÜ
                                   34783                       Ÿ  Call the retry routine.  Ÿ
                                   34784                       ¾þþþþþþþþþþþþþþþþþþþþþþþþþþþ»
 004598 4100 0042/4510_      00042 34785                       GETMAIN R,LV=66           Register area
 0045A2 1821                       34790                       LR    R2,R1               RUB area (for SETRP)
 0045A4 D201 2000 724A 00000 0476E 34791                       MVC   @R2(2),=X'FFFF'     All register
 0045AA 41F0 2002            00002 34792                       LA    R15,@R2+2           Put registers here
 0045AE 900F F000            00000 34793                       STM   R0,R15,@R15         Save registers
                                   34794
 0045B2 0700/4510 7098_            34795                       MODESET KEY=ZERO          ********
 0045C2 4110 4000            00000 34802                       LA    R1,SDWA             Needed for SETRP
                                   34803            C          SETRP RC=4,RETADDR=STAERETR,FRESDWA=YES,DUMP=NO,
1DISK     (DISK4072) (12:42) (15MAR04) Subtask ESTAE Exit Routine                                                           Page  151
0Current Usings:  (SDWA,R4) (IOWA,R6) (*,R7) (CP,R11) (CV,R12)
0Loc    Object Code    Addr1 Addr2  Stmt Lv Lineno    Source Statement           (Hibal 5, Asmedit 3.3)  HLASM R4.0  2004/03/15 12.42
+___    ______ ____    _____ _____  ____ __ ______    ______ _________
00045C6 0700/9204 10FC_                                              RETREGS=YES,RUB=(R2),REGS=(14)
 00460E 0000                       34830                       DC    H'0'                (Don't return)
                                   34831                       ¿þþþþþþþþþþþþþþþþþþþþþþþþþþþþþþþþþþþþþþþþþþþþÜ
                                   34832                       Ÿ  No recovery possible, continue abending.  Ÿ
                                   34833                       ¾þþþþþþþþþþþþþþþþþþþþþþþþþþþþþþþþþþþþþþþþþþþþ»
 004610                            34834              NORETRY  LABEL
 004610 4510 70F4/0000_      04618 34836                       MODESET KEY=ZERO          ********
 00461E 4110 4000            00000 34843                       LA    R1,SDWA             Needed for SETRP
 004622 0700/9200 10FC             34844                       SETRP RC=0                Continue abending
 004626 0000                       34851                       DC    H'0'                (Don't return)
                                   34852
 DROP   SDWA,R4                    34853                       DROP  SDWA,IOWA,BR
 DROP   IOWA,R6
 DROP   *,R7
                                   34874
 004628 FF                         34875              STAEKEY  DC    X'FF'               PSW key on entry
1DISK     (DISK4072) (12:42) (15MAR04) Subtask STAE Retry Control Routine                                                   Page  152
0Current Usings:  (CP,R11) (CV,R12)
0Loc    Object Code    Addr1 Addr2  Stmt Lv Lineno    Source Statement           (Hibal 5, Asmedit 3.3)  HLASM R4.0  2004/03/15 12.42
+___    ______ ____    _____ _____  ____ __ ______    ______ _________
0                                  34877              ¿þþþþþþþþþþþþþþþþþþþþþþþþþþþþþþþþþþþþþþþþþþþþþþþþþþþþþþþþþþþþþþþþþþþþþÜ
                                   34878              Ÿ                                                                     Ÿ
                                   34879              Ÿ  STAERETR -- ESTAE retry routine.                                   Ÿ
                                   34880              Ÿ                                                                     Ÿ
                                                      ¾þþþþþþþþþþþþþþþþþþþþþþþþþþþþþþþþþþþþþþþþþþþþþþþþþþþþþþþþþþþþþþþþþþþþþ»
0004629 00/0D70                    34881              STAERETR BASE
 USING  *,R7
 USING  IOWA,R6                    34895                       USING IOWA                Entry assumption
                                   34904
 00462C 58C0 711C            04748 34905                       L     CVR,=V(CV)          Global addressability
 004630 1BBB                       34906                       CLEAR CPR                 No CP here
                                   34910
 004632 4100 0042/4110_      00042 34911                       FREEMAIN R,A=(R2),LV=66   Free RUB area (see above)
                                   34916
 00463C 58D0 615C            0015C 34917                       L     R13,WASTACKP        Reset subtask stack ptr
 004640 188D                       34918                       LR    R8,R13              Ditto
                                   34919
 004642 58E0 6180            00180 34920                       L     R14,WAABEND         GET INTERCEPT ROUTINE ADDRESS
 004646 50E0 6134            00134 34921                       ST    R14,WAR14           SAVE FOR WAITON
 00464A D703 6180 6180 00180 00180 34922                       CLEAR WAABEND             CLEAR ABEND ADDR
                                   34929
 004650 58E0 7120/0DEE       0474C 34930                       ACALL WAITONP             GO TO WAITON, BUT DON'T SAVE REGS
 004656 0000                       34934                       DC    H'0'                No return
 DROP   IOWA,R6                    34935                       DROP  IOWA,BR
 DROP   *,R7
                                   34949
                                   34950                       ENTRY DISKCLCK,DISKSCB    (FAIL formats this stuff)
 004658 0000000000000000           34951              DISKCLCK DC    D'0'                Time/date of last entry
 004660                            34952              DISKSCB  DS    XL104               Copy of SCB
1DISK     (DISK4072) (12:42) (15MAR04) Miscellaneous Stuff                                                                  Page  153
0Current Usings:  (CP,R11) (CV,R12)
0Loc    Object Code    Addr1 Addr2  Stmt Lv Lineno    Source Statement           (Hibal 5, Asmedit 3.3)  HLASM R4.0  2004/03/15 12.42
+___    ______ ____    _____ _____  ____ __ ______    ______ _________
0                                  34954              *  PROCESS ABNORMAL TERMINATION OF AN I/O TASK
                                   34955              *
 0046C8 0D70                       34956              IOABEND  BASE
 USING  *,R7
 0046CA 4110 0027/4100_      00027 34970                       ABEND 39,,STEP            NAUGHTY, NAUGHTY
                                   34979
                                   34980                       VLTORG
 004728                            34992                       END   .
 004728 000042C4                   34995                             =A(WYLVOL)
 00472C 0000FFFF                   34996                             =A(X'FFFF')
 004730 00000000                   34997                             =V(SEG)
 004734 0000000F                   34998                             =XL4'0000000F'
 004738 00000009                   34999                             =A(MAXERR)
 00473C 00000000                   35000                             =V(SEGTB)
 004740 00000000                   35001                             =V(SEGT)
 004744 00000000                   35002                             =V(SEGWR)
 004748 00000000                   35003                             =V(CV)
 00474C 00004254                   35004                             =A(WAITONP)
 004750 0200                       35005                             =H'512'
 004752 C489A29240859999           35006                             =C'Disk error during '
 004764 4B4040C4A2958194           35007                             =C'.  Dsname='
 00476E FFFF                       35008                             =X'FFFF'
 004770 D9C37E                     35009                             =C'RC='
 004773 6B40E59693A49485           35010                             =C', Volume='
 00477C E2E4C2E2E3C1C540           35011                             =C'SUBSTAE entered'

1DISK     (DISK4072) (12:42) (15MAR04) Relocation Dictionary                                                                Page  154
-   Pos.Id   Rel.Id   Flags    Address                                                       HLASM R4.0  2004/03/15 12.42
0  00000001 00000001    08    000004AD
   00000001 00000001    0C    000004B8
   00000001 00000001    0C    000004C4
   00000001 00000001    0C    000004C8
   00000001 00000001    0C    000004CC
   00000001 00000001    0C    000004D0
   00000001 00000001    0C    000004D4
   00000001 00000001    08    000004D9
   00000001 00000001    0C    00000604
   00000001 00000001    0C    00000610
   00000001 00000001    0C    00000614
   00000001 00000001    0C    00000D4C
   00000001 00000001    0C    00000D74
   00000001 00000001    0C    00000D9C
   00000001 00000001    0C    00000DC4
   00000001 00000001    0C    00000DEC
   00000001 00000001    0C    00000E14
   00000001 00000001    0C    00000F00
   00000001 00000001    0C    00000F04
   00000001 00000001    0C    00000F14
   00000001 00000001    0C    00000F20
   00000001 00000001    0C    00000F24
   00000001 00000001    0C    00000F2C
   00000001 00000001    0C    00000F34
   00000001 00000001    0C    00000F3C
   00000001 00000001    0C    00000F40
   00000001 00000001    0C    00000F48
   00000001 00000001    0C    00001644
   00000001 00000001    0C    0000164C
   00000001 00000001    0C    00001650
   00000001 00000001    0C    00001654
   00000001 00000001    0C    00001668
   00000001 00000001    0C    00001670
   00000001 00000001    08    0000172D
   00000001 00000001    0C    00001820
   00000001 00000001    0C    00002744
   00000001 00000001    0C    00002754
   00000001 00000001    0C    00002758
   00000001 00000001    0C    0000275C
   00000001 00000001    0C    00002764
   00000001 00000001    0C    00002770
   00000001 00000001    0C    00002778
   00000001 00000001    0C    0000277C
   00000001 00000001    0C    00002780
   00000001 00000001    0C    00002784
   00000001 00000001    0C    00002788
   00000001 00000001    0C    0000278C
   00000001 00000001    0C    00002790
   00000001 00000001    0C    00002794
   00000001 00000001    0C    00002798
   00000001 00000001    0C    000027A4
   00000001 00000001    0C    000027A8
   00000001 00000001    0C    000027B4
   00000001 00000001    0C    000027D0
   00000001 00000001    0C    000027D4
1DISK     (DISK4072) (12:42) (15MAR04) Relocation Dictionary                                                                Page  155
   00000001 00000001    0C    000027D8
   00000001 00000001    08    00002F65
   00000001 00000001    08    000032D9
   00000001 00000001    0C    00003334
   00000001 00000001    0C    00003344
   00000001 00000001    0C    00003350
   00000001 00000001    0C    00003354
   00000001 00000001    0C    00003358
   00000001 00000001    0C    0000335C
   00000001 00000001    0C    00003658
   00000001 00000001    0C    0000366C
   00000001 00000001    0C    000041B8
   00000001 00000001    0C    000041E4
   00000001 00000001    0C    000041F4
   00000001 00000001    0C    00004214
   00000001 00000001    0C    00004218
   00000001 00000001    08    00004295
   00000001 00000001    0C    00004728
   00000001 00000001    0C    0000474C
   00000001 00000002    1C    000005E8
   00000001 00000002    1C    000006EC
   00000001 00000003    1C    000005F0
   00000001 00000004    1C    000005F4
   00000001 00000005    1C    00000D48
   00000001 00000005    1C    00000DC0
   00000001 00000006    1C    00000D70
   00000001 00000007    1C    00000D98
   00000001 00000007    1C    00000E10
   00000001 00000008    1C    00000DE8
   00000001 00000009    1C    00000EF0
   00000001 0000000A    1C    00000EF4
   00000001 0000000B    1C    00000EF8
   00000001 0000000C    1C    00000EFC
   00000001 0000000D    1C    00000F08
   00000001 0000000D    1C    00001658
   00000001 0000000E    1C    00000F0C
   00000001 0000000F    1C    00000F10
   00000001 00000010    1C    00000F28
   00000001 00000011    1C    00000F30
   00000001 00000012    1C    00000F38
   00000001 00000012    1C    00001640
   00000001 00000013    1C    00000F44
   00000001 00000014    1C    00000F4C
   00000001 00000015    1C    00000F50
   00000001 00000016    1C    00000F54
   00000001 00000017    1C    0000165C
   00000001 00000018    1C    00001660
   00000001 00000019    1C    0000166C
   00000001 00000019    1C    0000181C
   00000001 00000019    1C    00004744
   00000001 0000001A    1C    00001674
   00000001 0000001B    1C    00001680
   00000001 0000001C    1C    00001810
   00000001 0000001D    1C    00001814
   00000001 0000001E    1C    00001818
   00000001 0000001F    1C    00002750
   00000001 00000020    1C    00002760
   00000001 00000020    1C    0000332C
   00000001 00000021    1C    00002768
1DISK     (DISK4072) (12:42) (15MAR04) Relocation Dictionary                                                                Page  156
   00000001 00000021    1C    00003330
   00000001 00000021    1C    00004210
   00000001 00000022    1C    0000279C
   00000001 00000023    1C    000027A0
   00000001 00000023    1C    00003314
   00000001 00000024    1C    000027C4
   00000001 00000024    1C    00003320
   00000001 00000024    1C    0000365C
   00000001 00000025    1C    000027C8
   00000001 00000025    1C    00003324
   00000001 00000025    1C    00003660
   00000001 00000026    1C    000027CC
   00000001 00000027    1C    000027DC
   00000001 00000028    1C    000027E0
   00000001 00000029    0C    000005FC
   00000001 00000029    0C    00000600
   00000001 00000029    0C    00003308
   00000001 00000029    0C    0000330C
   00000001 0000002A    1C    0000331C
   00000001 0000002B    1C    00003360
   00000001 0000002B    1C    000041E0
   00000001 0000002C    1C    00003364
   00000001 0000002D    1C    00003664
   00000001 0000002D    1C    00004220
   00000001 0000002E    1C    00003668
   00000001 0000002F    1C    000041EC
   00000001 00000030    1C    000041F0
   00000001 00000031    1C    00004224
   00000001 00000031    1C    00004748
   00000001 00000032    1C    00004730
   00000001 00000033    1C    0000473C
   00000001 00000034    1C    00004740
   00000029 00000001    08    000047B1
   00000029 00000001    0C    000047C8
   00000029 00000029    08    0000480D

1DISK     (DISK4072) (12:42) (15MAR04) Ordinary Symbol and Literal Cross Reference                                          Page  157
-Symbol   Length   Value     Id    R Type   Defn References                                  HLASM R4.0  2004/03/15 12.42
0$$$@R0        1 00000000 FFFFFFFE     J     706  1061
 $$$@R10       1 00000000 FFFFFFF4     J     836  1151
 $$$@R11       1 00000000 FFFFFFF3     J     849  1164
 $$$@R12       1 00000000 FFFFFFF2     J     862  1177
 $$$@R13       1 00000000 FFFFFFF1     J     875  1190
 $$$@R14       1 00000000 FFFFFFF0     J     888  1203
 $$$@R5        1 00000000 FFFFFFF9     J     771  1074
 $$$@R6        1 00000000 FFFFFFF8     J     784  1087
 $$$@R7        1 00000000 FFFFFFF7     J     797  1100
 $$$@R8        1 00000000 FFFFFFF6     J     810  1113   1125
 $$$@R9        1 00000000 FFFFFFF5     J     823  1138
 $$$C1WYLDISK
               1 00000627 00000001     J   19056 19058
 $$$C10WYLDISK
               1 00004298 00000001     J   33831 33833  33963
 $$$C11WYLDISK
               1 0000478B 00000001     J   35012 35014
 $$$C2WYLDISK
               1 000006F0 00000001     J   19279 19281  19643  20235  21162  21280
 $$$C3WYLDISK
               1 00000FF2 00000001     J   21353 21355  21391  21485  21803  21830  21864  22039  22363
 $$$C4WYLDISK
               1 000016F4 00000001     J   23253 23255
 $$$C5WYLDISK
               1 0000183A 00000001     J   23698 23700  25979
 $$$C6WYLDISK
               1 00002800 00000001     J   27239 27241  29233  29373  29439
 $$$C7WYLDISK
               1 000033A6 00000001     J   30931 30933
 $$$C8WYLDISK
               1 00003672 00000001     J   31421 31423  32399
 $$$C9WYLDISK
               1 0000424A 00000001     J   33742 33744
 $$$DVT        4 000008B8 FFFFFFC0     F   16196 16250  16250
 $$$D2WYLDISK
               1 00000FE0 00000001     J   19280 20224  21151  21269
 $$$D3WYLDISK
               1 000016D5 00000001     J   21354 21474  21792  21819  21853  22028
 $$$D5WYLDISK
               1 000027FA 00000001     J   23699 25968
 $$$D6WYLDISK
               1 000033A0 00000001     J   27240 29362
 $$$D8WYLDISK
               1 00004244 00000001     J   31422 32388
 $$$RCP        1 00000000 FFFFFFEC     J    2522  4782   6256   6256
 $$$RCV        1 00000000 FFFFFFEE     J    1247  2432   2432
 $$$RDENQENT
               1 00000000 FFFFFFBD     J   22337 22362  22362
 $$$RDEV       1 00000000 FFFFFFEB     J    4736  4781   4781
 $$$RDRDWA
               1 00000000 FFFFFFBB     J   29425 29438  29438
 $$$RDWWA      1 00000000 FFFFFFBE     J   21377 21390  21390
 $$$RJCB       1 00000000 FFFFFFE9     J    6406  6680   6680
 $$$RLXCATEWA
               1 00000000 FFFFFFBF     J   19629 19642  19642
1DISK     (DISK4072) (12:42) (15MAR04) Ordinary Symbol and Literal Cross Reference                                          Page  158
 $$$RNSCNCB
               1 00000000 FFFFFFED     J    2443  2516   2516
 $$$RRESOURCE
               1 00000000 FFFFFFE6     J    6804  6845   6845
 $$$RRSCGROUP
               1 00000000 FFFFFFE7     J    6743  6798   6798
 $$$RSMFDS
               1 00000000 FFFFFFBC     J   29216 29232  29232
 $$$RTRKWA
               1 00000000 FFFFFFBA     J   33914 33962  33962
 $$$RTTYPE
               1 00000000 FFFFFFEA     J    6267  6368   6368
 $$$RUCE       1 00000000 FFFFFFE8     J    6686  6736   6736
 $$$RVOLINFO
               1 00000000 FFFFFFC1     J   15346 15364  15364
 $$$SEGCB0
               4 00000050 FFFFFFEC     F    2553  2639   2639
 $$$V01       18 000046DA 00000001     C   34986 23305
 $$$V02       15 000046EC 00000001     C   34987 30030
 $$$V03       18 000046FB 00000001     C   34988 30858
 $$$V04       26 0000470D 00000001     C   34989 33822
 $$$100F       2 00000A0E 00000001     H   20206 20193B
 $$$101        6 00000FE0 00000001     I   20230 20222X
 $$$102        6 00000FE0 00000001     I   20229 20230  20230
 $$$103F       2 00000AAC 00000001     H   20293 20280B
 $$$104F       2 00000AC0 00000001     H   20317 20304B
 $$$105B       4 00000AD8 00000001     I   20348 20391
 $$$105F       2 00000B2E 00000001     H   20388 20348B 20390
 $$$106E       2 00000B32 00000001     H   20398 20392
 $$$106F       2 00000B84 00000001     H   20435 20394B
 $$$107F       2 00000B90 00000001     H   20458 20445B
 $$$108        1 00000054 00000001 A   U   20491 20488  20490
 $$$110B       1 00000BBE 00000001     X   20521 20528U
 $$$111        1 00000050 00000001 A   U   20576 20573  20575
 $$$113B       1 00000BFE 00000001     X   20603 20610U
 $$$114        1 00000050 00000001 A   U   20658 20655  20657
 $$$116B       1 00000C3E 00000001     X   20685 20692U
 $$$117        1 00000050 00000001 A   U   20740 20737  20739
 $$$119B       1 00000C7E 00000001     X   20767 20774U
 $$$120        1 00000050 00000001 A   U   20822 20819  20821
 $$$122B       1 00000CBE 00000001     X   20849 20856U
 $$$123        1 00000050 00000001 A   U   20910 20907  20909
 $$$125B       1 00000CF6 00000001     X   20937 20944U
 $$$126        1 00000050 00000001 A   U   20997 20994  20996
 $$$128B       1 00000E32 00000001     X   21119 21126U
 $$$129        6 00000FE6 00000001     I   21157 21149X
 $$$130        6 00000FE6 00000001     I   21156 21157  21157
 $$$131        1 00000050 00000001 A   U   21189 21186  21188
 $$$133B       1 00000E94 00000001     X   21216 21223U
 $$$134F       2 00000EA2 00000001     H   21252 21239B
 $$$135        6 00000FEC 00000001     I   21275 21267X
 $$$136        6 00000FEC 00000001     I   21274 21275  21275
 $$$137        1 00000050 00000001 A   U   21307 21304  21306
 $$$139B       1 0000100C 00000001     X   21421 21428U
 $$$140F       2 0000101E 00000001     H   21490 21466B
 $$$141        6 000016D6 00000001     I   21480 21472X
 $$$142        6 000016D6 00000001     I   21479 21480  21480
 $$$143        1 00000250 00000001 A   U   21524 21521  21523
 $$$144B       1 0000105A 00000001     X   21552 21559U
1DISK     (DISK4072) (12:42) (15MAR04) Ordinary Symbol and Literal Cross Reference                                          Page  159
 $$$145F       2 000010B0 00000001     H   21685 21570B
 $$$146F       2 00001098 00000001     H   21669 21586B
 $$$148F       2 0000108A 00000001     H   21640 21625B
 $$$150F       2 00001098 00000001     H   21665 21652B
 $$$151F       2 000010E0 00000001     H   21726 21711B
 $$$156        6 000016DC 00000001     I   21798 21790X
 $$$157        6 000016DC 00000001     I   21797 21798  21798
 $$$158        6 000016E2 00000001     I   21825 21817X
 $$$159        6 000016E2 00000001     I   21824 21825  21825
 $$$160        6 000016E8 00000001     I   21859 21851X
 $$$161        6 000016E8 00000001     I   21858 21859  21859
 $$$162F       2 00001182 00000001     H   21899 21889B
 $$$163F       2 000011A0 00000001     H   21930 21915B
 $$$165F       2 000011B4 00000001     H   21955 21942B
 $$$166F       2 000011E8 00000001     H   21992 21982B
 $$$167F       2 00001202 00000001     H   22023 22006B
 $$$169        6 000016EE 00000001     I   22034 22026X
 $$$170        6 000016EE 00000001     I   22033 22034  22034
 $$$171B       1 0000123E 00000001     X   22070 22077U
 $$$172B       1 0000128E 00000001     X   22123 22130U
 $$$173F       2 000012CA 00000001     H   22232 22147B
 $$$174B       4 0000129E 00000001     I   22162 22189
 $$$174F       2 000012AE 00000001     H   22185 22162B 22188
 $$$175E       2 000012B2 00000001     H   22196 22190
 $$$175F       2 000012C4 00000001     H   22224 22192B 22207B
 $$$177B       1 000012F0 00000001     X   22256 22263U
 $$$178B       1 0000131E 00000001     X   22309 22316U
 $$$180B       1 0000134A 00000001     X   22405 22412U
 $$$181F       2 000013F0 00000001     H   22567 22437B
 $$$183B       4 000013AA 00000001     I   22473 22486
 $$$183F       2 000013B2 00000001     H   22483 22473B 22485
 $$$184E       2 000013B6 00000001     H   22493 22487
 $$$184F       2 000013F0 00000001     H   22563 22489B
 $$$185F       2 000013EA 00000001     H   22549 22534B
 $$$186        1 00000050 00000001 A   U   22586 22583  22585
 $$$188B       1 00001418 00000001     X   22627 22634U
 $$$189F       2 000014C4 00000001     H   22782 22679B
 $$$189S       2 00001420 00000001     H   22651 22781B
 $$$192F       2 0000144A 00000001     H   22711 22697B
 $$$193F       2 000014C0 00000001     H   22772 22726B
 $$$194        1 00000050 00000001 A   U   22802 22799  22801
 $$$196B       1 000014EC 00000001     X   22843 22850U
 $$$197F       2 00001532 00000001     H   22965 22895B
 $$$197S       2 000014F4 00000001     H   22867 22964B
 $$$200F       2 0000151E 00000001     H   22927 22913B
 $$$201F       2 0000152E 00000001     H   22955 22942B
 $$$202        1 00000050 00000001 A   U   22985 22982  22984
 $$$204B       1 0000155A 00000001     X   23022 23029U
 $$$205F       2 00001606 00000001     H   23182 23073B
 $$$205S       2 00001560 00000001     H   23045 23181B
 $$$208F       2 0000158A 00000001     H   23105 23091B
 $$$209F       2 00001602 00000001     H   23172 23130B
 $$$209T       2 00001598 00000001     H   23133 23120B
 $$$211        1 00000050 00000001 A   U   23202 23199  23201
 $$$212B       1 0000170E 00000001     X   23273 23280U
 $$$213F       2 00001730 00000001     H   23309 23294B
 $$$214F       2 00001806 00000001     H   23669 23345B
 $$$215F       2 0000175E 00000001     H   23380 23360B
 $$$216B       4 00001772 00000001     I   23418 23541
1DISK     (DISK4072) (12:42) (15MAR04) Ordinary Symbol and Literal Cross Reference                                          Page  160
 $$$216F       2 000017BA 00000001     H   23534 23394B 23406B 23418B 23536
 $$$217B       4 00001762 00000001     I   23394 23537
 $$$218B       4 0000176A 00000001     I   23406 23539
 $$$219B       4 0000177A 00000001     I   23433 23462
 $$$219F       2 00001790 00000001     H   23459 23433B 23461
 $$$220E       2 00001794 00000001     H   23469 23463
 $$$220F       2 00001796 00000001     H   23479 23465B
 $$$221F       2 000017AA 00000001     H   23512 23486B
 $$$222F       2 000017BA 00000001     H   23530 23519B
 $$$223E       2 000017BE 00000001     H   23548 23538  23540  23542
 $$$223F       2 00001806 00000001     H   23665 23544B
 $$$224F       2 000017F4 00000001     H   23643 23560B
 $$$225F       2 000017D8 00000001     H   23596 23579B
 $$$226F       2 000017F4 00000001     H   23639 23624B
 $$$227B       1 0000183C 00000001     X   23709 23719U
 $$$228F       2 0000185A 00000001     H   23762 23748B
 $$$232F       2 000018FE 00000001     H   23946 23877B
 $$$233F       2 000018EA 00000001     H   23918 23905B
 $$$233S       2 000018DA 00000001     H   23897 23917B
 $$$235F       2 000018FE 00000001     H   23942 23932B
 $$$237F       2 00001948 00000001     H   24025 23986B
 $$$251F       2 000019C2 00000001     H   24261 24149B
 $$$260F       2 000019F8 00000001     H   24313 24287B 24299B
 $$$262F       2 00001A2C 00000001     H   24402 24330B
 $$$264F       2 00001A24 00000001     H   24391 24344B
 $$$265B       4 00001A10 00000001     I   24359 24373
 $$$265F       2 00001A1C 00000001     H   24370 24359B 24372
 $$$266E       2 00001A20 00000001     H   24380 24374
 $$$266F       2 00001A24 00000001     H   24387 24376B
 $$$268F       2 00001A4C 00000001     H   24474 24457B
 $$$276F       2 00001AC2 00000001     H   24596 24581B
 $$$278F       2 00001AFC 00000001     H   24660 24646B
 $$$281F       2 00001B38 00000001     H   24725 24715B
 $$$284F       2 00001B44 00000001     H   24746 24736B
 $$$290F       2 00001BCA 00000001     H   24870 24846B
 $$$291F       2 00001BFA 00000001     H   24904 24894B
 $$$294F       2 00001D40 00000001     H   25139 25022B 25035B
 $$$299F       2 00001D24 00000001     H   25074 25057B
 $$$301F       2 00001D40 00000001     H   25135 25088B 25101B 25119B
 $$$311F       2 00001E70 00000001     H   25288 25278B
 $$$314F       2 00001F56 00000001     H   25513 25343B
 $$$316F       2 00001EF2 00000001     H   25395 25363B
 $$$317F       2 00001EEE 00000001     H   25390 25380B
 $$$318F       2 00001F10 00000001     H   25422 25412B
 $$$319F       2 00001F34 00000001     H   25484 25432B
 $$$320F       2 00001F28 00000001     H   25461 25452B
 $$$321F       2 00001F34 00000001     H   25480 25471B
 $$$323F       2 00001FD8 00000001     H   25597 25588B
 $$$325F       2 00002102 00000001     H   25753 25725B
 $$$333F       2 000021F6 00000001     H   25988 25902B 25921B 25939B
 $$$336F       2 000021F6 00000001     H   25984 25960B
 $$$337        6 000027FA 00000001     I   25974 25966X
 $$$338        6 000027FA 00000001     I   25973 25974  25974
 $$$339F       2 000022DC 00000001     H   26106 26090B
 $$$340F       2 000022F6 00000001     H   26130 26120B
 $$$342F       2 00002342 00000001     H   26184 26168B
 $$$345F       2 00002382 00000001     H   26241 26232B
 $$$348B       4 000023A6 00000001     I   26294 26312
 $$$348F       2 000023AE 00000001     H   26309 26294B 26311
1DISK     (DISK4072) (12:42) (15MAR04) Ordinary Symbol and Literal Cross Reference                                          Page  161
 $$$349E       2 000023B2 00000001     H   26319 26313
 $$$349F       2 000023B6 00000001     H   26331 26315B
 $$$350F       2 000023C4 00000001     H   26352 26342B
 $$$351F       2 0000240A 00000001     H   26414 26385B
 $$$358B       4 00002466 00000001     I   26546 26564
 $$$358F       2 0000246E 00000001     H   26561 26546B 26563
 $$$359E       2 00002472 00000001     H   26571 26565
 $$$359F       2 00002476 00000001     H   26583 26567B
 $$$360F       2 00002484 00000001     H   26609 26594B
 $$$361F       2 000024B2 00000001     H   26664 26649B
 $$$362B       4 0000253A 00000001     I   26756 26793
 $$$362F       2 0000254C 00000001     H   26790 26756B 26792
 $$$364F       2 0000254C 00000001     H   26786 26772B
 $$$366E       2 00002550 00000001     H   26800 26794
 $$$366F       2 00002590 00000001     H   26843 26796B
 $$$367F       2 00002590 00000001     H   26839 26812B
 $$$378B       1 0000281A 00000001     X   27255 27265U
 $$$379F       2 0000286C 00000001     H   27301 27291B
 $$$380F       2 0000287A 00000001     H   27322 27312B
 $$$382B       1 000028B6 00000001     X   27368 27375U
 $$$383F       2 000028E2 00000001     H   27430 27388B
 $$$385F       2 000028DC 00000001     H   27421 27404B
 $$$387F       2 00002930 00000001     H   27563 27448B
 $$$388F       2 00002912 00000001     H   27494 27479B
 $$$389F       2 00002930 00000001     H   27559 27504B 27519B
 $$$391F       2 00002930 00000001     H   27555 27542B
 $$$392B       1 0000294E 00000001     X   27676 27683U
 $$$393F       2 0000295C 00000001     H   27713 27697B
 $$$397B       1 00002978 00000001     X   27784 27791U
 $$$398F       2 0000298A 00000001     H   27834 27818B
 $$$400F       2 000029CC 00000001     H   27948 27866B 27888B
 $$$402F       2 000029C2 00000001     H   27925 27909B
 $$$404F       2 00002A32 00000001     H   28087 27965B 27998B
 $$$408F       2 00002A14 00000001     H   28033 28017B
 $$$409F       2 00002A24 00000001     H   28063 28047B
 $$$411F       2 00002A5A 00000001     H   28162 28133B 28151B
 $$$411T       2 00002A4A 00000001     H   28136 28104B 28123B
 $$$419F       2 00002A7A 00000001     H   28216 28177B 28191B 28205B
 $$$42B        1 00000036 00000001     X   18118 18125U
 $$$423F       2 00002AA2 00000001     H   28250 28237B
 $$$424F       2 00002AB6 00000001     H   28273 28263B
 $$$425F       2 00002AC6 00000001     H   28301 28285B
 $$$426        1 00000050 00000001 A   U   28330 28327  28329
 $$$428B       1 00002AFC 00000001     X   28370 28377U
 $$$429F       2 00002B20 00000001     H   28452 28415B
 $$$429S       2 00002B00 00000001     H   28406 28451B
 $$$43S        2 000000C0 00000001     H   18239 18262B
 $$$431F       2 00002B18 00000001     H   28446 28432B
 $$$432        1 00000050 00000001 A   U   28478 28475  28477
 $$$433B       1 00002B4C 00000001     X   28491 28498U
 $$$434F       2 00002B70 00000001     H   28562 28532B
 $$$434S       2 00002B56 00000001     H   28522 28561B
 $$$445F       2 00002BA6 00000001     H   28682 28651B
 $$$448F       2 00002BCA 00000001     H   28750 28694B
 $$$452F       2 00002BC6 00000001     H   28745 28729B
 $$$459F       2 00002C02 00000001     H   28867 28851B
 $$$46F        2 000002D4 00000001     H   18504 18492B
 $$$463F       2 00002C16 00000001     H   28907 28890B
 $$$466F       2 00002C28 00000001     H   28935 28919B
1DISK     (DISK4072) (12:42) (15MAR04) Ordinary Symbol and Literal Cross Reference                                          Page  162
 $$$47B        4 000002E6 00000001     I   18532 18548
 $$$47F        2 000002EC 00000001     H   18545 18532B 18547
 $$$472F       2 00002C56 00000001     H   29015 28999B
 $$$475F       2 00002C62 00000001     H   29044 29028B
 $$$478F       2 00002C7E 00000001     H   29081 29065B
 $$$48E        2 000002F0 00000001     H   18555 18549
 $$$48F        2 000002F4 00000001     H   18562 18551B
 $$$481B       1 00002CC4 00000001     X   29150 29157U
 $$$482B       1 00002D24 00000001     X   29245 29252U
 $$$485F       2 00002D70 00000001     H   29340 29331B
 $$$486F       2 00002D7C 00000001     H   29378 29354B
 $$$487        6 000033A0 00000001     I   29368 29360X
 $$$488        6 000033A0 00000001     I   29367 29368  29368
 $$$49B        4 000002FE 00000001     I   18584 18604
 $$$49F        2 00000318 00000001     H   18599 18584B 18603
 $$$490B       1 00002DB2 00000001     X   29467 29474U
 $$$492F       2 00002E36 00000001     H   29619 29587B
 $$$493F       2 00002E6C 00000001     H   29700 29635B
 $$$494F       2 00002E6C 00000001     H   29696 29652B
 $$$495F       2 00002E6C 00000001     H   29692 29670B
 $$$496        1 00000050 00000001 A   U   29734 29731  29733
 $$$498B       1 00002E94 00000001     X   29762 29769U
 $$$50B        4 00000322 00000001     I   18622 18641
 $$$50E        2 0000031C 00000001     H   18611 18605
 $$$50F        2 0000033C 00000001     H   18637 18607B 18622B 18640
 $$$500F       2 00002EAE 00000001     H   29839 29829B
 $$$501F       2 00002F08 00000001     H   29916 29884B
 $$$502        1 00000040 00000001 A   U   29947 29944  29946
 $$$503B       1 00002F34 00000001     X   29961 29968U
 $$$504F       2 00002F44 00000001     H   29993 29980B
 $$$505F       2 00002F68 00000001     H   30034 30019B
 $$$506F       2 00002F7A 00000001     H   30065 30048B
 $$$507F       2 00002FA0 00000001     H   30122 30077B
 $$$509F       2 00002F9C 00000001     H   30117 30093B
 $$$511F       2 00002FBC 00000001     H   30173 30144B
 $$$518F       2 00003114 00000001     H   30443 30433B
 $$$519F       2 000031CC 00000001     H   30624 30485B
 $$$52E        2 00000340 00000001     H   18648 18642
 $$$52F        2 00000354 00000001     H   18660 18644B
 $$$524F       2 0000320C 00000001     H   30664 30637B
 $$$526B       1 0000328E 00000001     X   30761 30768U
 $$$527F       2 000032AE 00000001     H   30816 30791B
 $$$528F       2 000032DC 00000001     H   30862 30847B
 $$$529        1 00000050 00000001 A   U   30887 30884  30886
 $$$53S        2 00000382 00000001     H   18734 18867B
 $$$530B       1 000033A8 00000001     X   30944 30951U
 $$$531B       1 000033D2 00000001     X   30993 31000U
 $$$534B       1 000034A0 00000001     X   31163 31173U
 $$$535B       1 00003552 00000001     X   31243 31253U
 $$$537F       2 00003582 00000001     H   31318 31308B
 $$$539B       1 0000368C 00000001     X   31438 31448U
 $$$54F        2 000003C0 00000001     H   18814 18753B
 $$$541F       2 000036B0 00000001     H   31516 31484B 31499B
 $$$546F       2 000036D8 00000001     H   31595 31549B 31566B 31584B
 $$$549F       2 000036E8 00000001     H   31618 31608B
 $$$550F       2 000036F4 00000001     H   31639 31629B
 $$$551F       2 00003744 00000001     H   31711 31686B 31700B
 $$$553F       2 00003750 00000001     H   31732 31721B
 $$$555F       2 0000377E 00000001     H   31797 31782B
1DISK     (DISK4072) (12:42) (15MAR04) Ordinary Symbol and Literal Cross Reference                                          Page  163
 $$$556B       1 000037BE 00000001     X   31848 31858U
 $$$557F       2 000037D0 00000001     H   31884 31870B
 $$$558B       1 000037FA 00000001     X   31921 31928U
 $$$56F        2 000003B8 00000001     H   18808 18792B
 $$$560F       2 00003A60 00000001     H   32469 32199B 32212B
 $$$564B       4 000039AE 00000001     I   32230 32288
 $$$564F       2 000039FC 00000001     H   32285 32230B 32287
 $$$565E       2 00003A00 00000001     H   32295 32289
 $$$565F       2 00003A0A 00000001     H   32305 32291B
 $$$567F       2 00003A2A 00000001     H   32366 32336B
 $$$568F       2 00003A26 00000001     H   32361 32348B
 $$$569F       2 00003A3E 00000001     H   32418 32377B
 $$$57F        2 000003FA 00000001     H   18863 18823B
 $$$570        6 00004244 00000001     I   32394 32386X
 $$$571        6 00004244 00000001     I   32393 32394  32394
 $$$576F       2 00003A9A 00000001     H   32534 32516B
 $$$58F        2 000003EC 00000001     H   18851 18836B
 $$$582F       2 00003B98 00000001     H   32661 32638B 32652B
 $$$584F       2 00003BE6 00000001     H   32707 32697B
 $$$589F       2 00003CD6 00000001     H   32857 32847B
 $$$59B        1 0000068A 00000001     X   19105 19112U
 $$$590F       2 00003D22 00000001     H   32914 32904B
 $$$591F       2 00003D32 00000001     H   32938 32927B
 $$$592F       2 00003D40 00000001     H   32965 32951B
 $$$593F       2 00003D6A 00000001     H   33017 32984B
 $$$596F       2 00003DC2 00000001     H   33090 33044B
 $$$597F       2 00003DBE 00000001     H   33085 33062B 33075B
 $$$60F        2 000006E4 00000001     H   19252 19179B
 $$$60S        2 000006BC 00000001     H   19173 19251B
 $$$601F       2 00003E1E 00000001     H   33149 33131B
 $$$607B       1 000040EC 00000001     X   33472 33482U
 $$$608B       1 0000414C 00000001     X   33557 33564U
 $$$609F       2 0000416A 00000001     H   33613 33580B
 $$$610F       2 00004168 00000001     H   33605 33596B
 $$$611F       2 000041D2 00000001     H   33706 33658B
 $$$614B       1 00004280 00000001     X   33807 33814U
 $$$615B       1 0000429E 00000001     X   33871 33881U
 $$$616B       1 000042DA 00000001     X   33993 34000U
 $$$617F       2 000043AE 00000001     H   34258 34247B
 $$$617S       2 0000431C 00000001     H   34064 34257B
 $$$618B       4 00004326 00000001     I   34085 34121
 $$$618F       2 00004348 00000001     H   34117 34085B 34120
 $$$620E       2 0000434C 00000001     H   34128 34122
 $$$620F       2 0000439E 00000001     H   34231 34124B
 $$$621F       2 00004368 00000001     H   34173 34155B
 $$$623F       2 00004392 00000001     H   34219 34202B
 $$$626B       1 000043D4 00000001     X   34328 34335U
 $$$627F       2 000043F8 00000001     H   34381 34368B
 $$$628S       2 00004428 00000001     H   34428 34450B
 $$$63B        1 0000070A 00000001     X   19303 19310U
 $$$631B       1 00004524 00000001     X   34638 34645U
 $$$634B       1 0000462C 00000001     X   34886 34893U
 $$$635B       1 000046CA 00000001     X   34961 34968U
 $$$70B        1 000007A2 00000001     X   19482 19489U
 $$$71B        4 000007BC 00000001     I   19536 19564
 $$$71F        2 000007D4 00000001     H   19557 19523B 19536B 19561
 $$$72B        4 000007B4 00000001     I   19523 19562
 $$$75E        2 000007D8 00000001     H   19571 19563  19565
 $$$75F        2 000007DC 00000001     H   19577 19567B
1DISK     (DISK4072) (12:42) (15MAR04) Ordinary Symbol and Literal Cross Reference                                          Page  164
 $$$76         1 00000050 00000001 A   U   19596 19593  19595
 $$$78B        1 00000804 00000001     X   19671 19678U
 $$$79F        2 0000083C 00000001     H   19744 19731B
 $$$80F        2 00000888 00000001     H   19805 19769B
 $$$81F        2 0000089C 00000001     H   19829 19816B
 $$$82F        2 000008B2 00000001     H   19855 19845B
 $$$84F        2 000008CC 00000001     H   19885 19872B
 $$$85F        2 000008EA 00000001     H   19913 19900B
 $$$86B        4 00000910 00000001     I   19938 19999
 $$$86F        2 0000093C 00000001     H   19995 19938B 19998
 $$$88F        2 00000938 00000001     H   19990 19963B
 $$$90E        2 00000940 00000001     H   20006 20000
 $$$90F        2 00000950 00000001     H   20028 20002B
 $$$92F        2 00000982 00000001     H   20061 20048B
 $$$93F        2 000009AA 00000001     H   20091 20078B
 $$$94F        2 000009BE 00000001     H   20114 20101B
 $$$95F        2 000009CA 00000001     H   20135 20122B
 $$$96F        2 000009F8 00000001     H   20178 20160B
 @PAR          0 00000000 FFFFFFF5     @    1139 31968M 31969M 33365  33369  33373M 33381M
 @RAR          0 00000000 FFFFFFF0     @    1204  2230   2238B
 @R0           0 00000000 FFFFFFFE     @     707   983U
 @R1           0 00000000 FFFFFFFD     @     720   979U  2236   2237  18241  18243M 18244  18393U 18498M 18500M 18531
                                                 18558  20031  20209  20229M 20260  20262  21156M 21274M 21479  21824
                                                 22423  22732  23136  23904  28223  28431  30319U 30341U 30578U 31659
                                                 31671  31728  32257U 32547  32564U 32718  33400  33883M 33886M 33887M
 @R10          0 00000000 FFFFFFF4     @     837   943U
 @R11          0 00000000 FFFFFFF3     @     850   939U 27354U 29135U 33849U
 @R12          0 00000000 FFFFFFF2     @     863   935U 33856U
 @R13          0 00000000 FFFFFFF1     @     876   931U 18110M 19097M 19295M 21544M 22062M 22115M 22248M 23265M 24568
                                                 27247M 27358M 28483M 29140M 29237M 29953M 30372M 30985M 31155M 31235M
                                                 31430M 31840M 31911  31913M 33865M 33889  33983M 34320M
 @R14          0 00000000 FFFFFFF0     @     889   927U 21156  21274
 @R15          0 00000000 FFFFFFEF     @     902   923U 19978  19991  20031  20036  21797  21824M 21876  21931  22033
                                                 23775  25214  25398  25521  26951U 27529  27719U 28224  28830U 30282
                                                 31045U 31046M 31672  32714  32716  32860  32861  33884  34253  34793M
 @R2           0 00000000 FFFFFFFC     @     733   975U 18379  18382  18891U 19753U 19801U 19806  19831  19844  19851
                                                 19861  19893  19915  19937  19943  19949  20015M 20021  20069  20092
                                                 21877U 21878  21971  22024  22041  22560U 29111U 29616U 29913U 30312U
                                                 30318  30320  30322  30327  30371M 30587U 30597U 32685U 32703  33018
                                                 33027  33043  33092  33094  33175  33178  33180  33182  33209  33217
                                                 33257  34039U 34136U 34168U 34791M 34792
 @R3           0 00000000 FFFFFFFB     @     746   971U 18897  19210U 19245U 19259U 21613M 21636M 24550U 27268  27270
                                                 30731U 31077U 31084  32024U 32146U 32171U 33378  33380  33388  33390
                                                 33391M 34102U 34143U 34215U 34727U
 @R4           0 00000000 FFFFFFFA     @     759   967U 18743U 28462U 30395U 33218U 33389M 33400M 34180U 34859U
 @R5           0 00000000 FFFFFFF9     @     772   963U 18453U 18704  18875U 19145U 19782  19784M 19862U 19950U 19952
                                                 20022U 20024  20229  21858M 21904M 21926M 21970  22011M 22018M 22019
                                                 22033M 22087  22089M 22778U 22961U 23178U 29708U 29926U 30369U 31149U
                                                 31398U 33532U 34073U
 @R6           0 00000000 FFFFFFF8     @     785   959U 18439U 18511U 18928U 21895  21988  29118U 29190U 29404U 29713U
                                                 29931U 33909U 34271U 34602U 34866U 34941U
 @R7           0 00000000 FFFFFFF7     @     798   955U 18940U 19267U 19432U 19585U 20480U 20565U 20647U 20729U 20811U
                                                 20899U 20986U 21178U 21296U 21513U 22058U 22103U 22243U 22301U 22332U
                                                 22575U 22791U 22974U 23191U 23716U 27262U 27345U 27578U 28319U 28467U
                                                 29124U 29196U 29416U 29723U 29936U 30722U 30876U 30967U 31170U 31250U
                                                 31268U 31445U 31855U 31906U 33479U 33526U 33750U 33878U 33896U 34284U
                                                 34608U 34872U 34947U
 @R8           0 00000000 FFFFFFF6     @     811   951U 20475U 21508U 21693  21797M 21858  21931M 21993  23730  29718U
                                                 34278U
1DISK     (DISK4072) (12:42) (15MAR04) Ordinary Symbol and Literal Cross Reference                                          Page  165
 @R9           0 00000000 FFFFFFF5     @     824   947U
 ABRTCODE      1 00000024 FFFFFFEC A   U    6247 23524  26876  27171
 ABSCENT       1 00000000 00000000 A   T    2246  2246
 ACCESS        1 00000000 00000022     T   27216 27216
 ACEECLR       1 00000000 0000002B     T   30922 30922  33713
 ACEESET       1 00000000 0000001F     T   27197 27197
 ACSCHECK      1 00000000 0000000A     T   21318 21318
 ACSPACCT      4 00000464 FFFFFFC0     A   15744 18408M
 ACSPDSCB      4 00000460 FFFFFFC0     A   15743 18406M
 ACSPDSN       4 0000045C FFFFFFC0     A   15742 18404M
 ACSPFLGS      4 00000458 FFFFFFC0     A   15741 18402M
 ACWOPER       1 00000468 FFFFFFC0     X   15745 15741  18401
 ADDER         1 00000000 00000011     T   21333 21333
 AHLHEAD       1 00000000 00000000 A   T    9049  9049
 AHLVCCR8      1 00000000 00000000 A   T    9540  9540
 ALDEVTYP      4 000035E8 00000001     I   31360 31275B
 ALLOBUSY      4 0000361A 00000001     I   31375 31339B
 ALLOCABE      4 00001FD4 00000001     I   25593 25555
 ALLOCERR      4 0000362A 00000001     I   31381 31336B 31342B 31343B 31344B 31345B 31346B 31347B
 ALLOGOT       2 000035E0 00000001     H   31355 31289B
 ALLOSUCC      2 000035DC 00000001     H   31351 31338B
 ALOBASE       4 000034A0 00000001     I   31184 31271U 31419
 AMODE24       1 00000000 00000024     T   27226 27226  30906  31415
 AMODE31       1 00000000 00000025     T   27227 27227  30907  31416
 ASCTBL        1 00000000 00000000 A   T    2254  2254
 ASMVT         1 00000000 00000000 A   T    9429  9429
 ATTACHL       4 00000628 00000001     F   19067 18418
 ATTCHLST      1 00000000 FFFFFFDD     J    8561  8636
 A31GO         2 0000416A 00000001     H   33609 33585
 BADVOL        4 00002C92 00000001     I   29090 28552B
 BALDD         8 000004E2 00000001     C   18966 18777M
 BALLOC        4 000004AC 00000001     F   18944 18779
 BALRB         1 000004B0 00000001     R   18947 18945
 BALTXTC       2 00000512 00000001     R   18976 18963
 BALTXTD       2 0000050B 00000001     R   18975 18962
 BALTXTDD      2 000004DC 00000001     R   18965 18958
 BALTXTP       4 000004C4 00000001     A   18958 18954
 BALTXTS       2 00000504 00000001     R   18974 18961
 BALTXTU       2 000004F6 00000001     R   18971 18960
 BALTXTV       2 000004EA 00000001     R   18968 18959
 BALVOL        6 000004F0 00000001     C   18969 18778M
 BIT0          1 00000080 FFFFFFDD A   U    8565  8578   8588   8602   8622
 BIT1          1 00000040 FFFFFFDD A   U    8566  8589   8604   8623
 BIT2          1 00000020 FFFFFFDD A   U    8567  8590   8606   8624
 BIT3          1 00000010 FFFFFFDD A   U    8568  8591   8608   8625
 BIT4          1 00000008 FFFFFFDD A   U    8569  8592   8610   8627
 BIT5          1 00000004 FFFFFFDD A   U    8570  8593   8612   8628
 BIT6          1 00000002 FFFFFFDD A   U    8571  8594   8614   8629
 BIT7          1 00000001 FFFFFFDD A   U    8572  8595   8614   8630
 BLDL          4 000002F4 FFFFFFC0     F   15574 18275M 25870
 BLDLDATA     62 00000306 FFFFFFC0     X   15586 25918  25973
 BLDLERR       2 0000229A 00000001     I   26055 25881B 25993B 26003B 26007B 26358B
 BLDLLEN       1 00000305 FFFFFFC0     X   15585 25927
 BLDLSZ        1 0000004C FFFFFFC0 A   U   15587 15576  19042
 BLDLTTR       3 00000300 FFFFFFC0     C   15578 26015  30266M 30266
 BLF           4 00003846 00000001     I   31958 31953B
 BLOCKED       1 00000010 FFFFFFC0 A   U   18094 25044  25068  25114  25129
 BLTBL         1 00000000 00000000 A   T    2256  2256
 BR            7 00000007 00000001 A   #    1094 18115M 18125U 19102M 19112U 19300M 19310U 19477M 19666M 20516M 20598M
1DISK     (DISK4072) (12:42) (15MAR04) Ordinary Symbol and Literal Cross Reference                                          Page  166
                                                 20680M 20762M 20844M 20932M 21114M 21211M 21416M 21549M 21559U 22067M
                                                 22077U 22120M 22130U 22253M 22263U 22400M 22622M 22838M 23017M 23270M
                                                 23280U 23525M 23526B 26870  27252M 27265U 27779M 28365M 28488M 28498U
                                                 29242M 29252U 29462M 29757M 29958M 29968U 30756M 30990M 31000U 31160M
                                                 31173U 31240M 31253U 31435M 31448U 31845M 31858U 31918M 31928U 33865
                                                 34325M 34335U
 BTD           1 00000000 00000004     T   19041 19041
 CALCTRK       4 000042CA 00000001     I   33983 27218  33982
 CALLCAT       4 000024F0 00000001     I   26707 24398B
 CALLCAT2      4 0000250E 00000001     I   26724 24383B
 CALLVTOC      4 00001AA8 00000001     I   24566 24131B 25704B
 CAMCAT        4 00003790 00000001     F   31816 31597  31824
 CAMFCVOL      1 00000080 FFFFFFC0 A   U   15661 18475  33183  33199  33883  33886
 CAMRECAT      4 00003794 00000001     F   31826 31635
 CAMUNC        4 0000378C 00000001     F   31807 31614  31814
 CATBLOCK      8 00000988 FFFFFFC0     D   17415 15650  15660  17422  17424  17698  18317  18325  33169
 CATDVTYP      4 0000098A FFFFFFC0     C   17417 17420  33233
 CATER         4 000043BA 00000001     I   34320 27205  30919  34319
 CATLST        4 000003F4 FFFFFFC0     F   15684 18345M 18347M 18349M 26631M 26637M 31640M 31651
 CATNOENT      2 00000988 FFFFFFC0     H   17416 33231
 CATNTTR       8 00000A88 FFFFFFC0     U   17422 15658  17423  18321  33182M 33200M
 CATRSIZE      8 00000109 FFFFFFC0 A   U   17424 17698
 CATSEQNO      2 00000994 FFFFFFC0     C   17419 33234
 CATVOL        6 0000098E FFFFFFC0     C   17418 23931M 23931  24137  24263  33232
 CATVOLID      8 00000A8B FFFFFFC0     U   17423 15659  17424  18323  18498  26730
 CBBRANCH      1 00000000 00000000 A   T    9585  9585
 CC            1 00000040 FFFFFFC0 A   U   15510 15516  15518  15520  15522  15524  15526  15530  15532  15538  15540
                                                 15542  15544  15546  15556  15558  15564  18982  18983  18984  18985
                                                 18986  18987  18988  18989  18991  18992  18993  18994  18995  18998
                                                 18999  19001
 CCREDT        8 00000268 FFFFFFC0     D   15569 25217  25540  25645M 25648M 25651  25652M 25653  25654M 25655M 25800
                                                 30546M 30547M 30586  30602  33280M 33285
 CCWMLEN       1 000000A8 00000001 A   U   19003 18232  18234
 CCWMODL       8 00000520 00000001     D   18981 18232  19003
 CCWSW         8 000001D0 FFFFFFC0     W   15520 31948M 31981M
 CHECKIOB      1 00000000 00000000 A   T    2302  2302
 CHGFRVL       2 00000489 00000001     U   18917 18841M
 CHGTOVL       2 0000048F 00000001     U   18918 18842M
 CHGVLWTO      4 00000460 00000001     F   18913 18843  18917  18918
 CHKCLCAT      4 00003252 00000001     I   30702 30685B
 CHKMBRIG      1 00000000 0000000C     T   21320 21320
 CHKPSMBR      2 000026C2 00000001     H   27014 27010B
 CHKSPOK       2 000026F2 00000001     H   27067 25181B 25328B
 CHKSQFLD      2 00002704 00000001     H   27109 24969B 25291B
 CHKSQFL1      2 00002722 00000001     I   27151 27148B
 CHKUNCAT      2 00002394 00000001     H   26253 26217B
 CILLVOL       6 00002518 00000001     I   26730 24011B
 CKALLO        4 00001A8C 00000001     I   24557 24539B
 CLOSE         4 00003126 00000001     I   30463 30202B 30241B 30244B
 CLOSE2        4 0000312C 00000001     I   30465 30444B
 CLOSNEOB      4 0000311A 00000001     I   30451 30193B
 CLOSPDS       4 0000302E 00000001     I   30243 30200B
 CLOSVOID      2 00003118 00000001     I   30449 30258B 30399B
 CLRJFCB       4 00002CB4 00000001     I   29140 27215  29139  33718
 CLSERR        6 0000321C 00000001     I   30678 30414  30459  30615
 CLSOK         4 00003222 00000001     I   30681 30677B
 COMMAND       1 00000000 00000000 A   T    2242  2242
 COMMSEG       1 00000000 00000000 A   T    2243  2243
 CP         4096 00000000 FFFFFFEC     J    6256  1231U 27587U 29206U 34304U
1DISK     (DISK4072) (12:42) (15MAR04) Ordinary Symbol and Literal Cross Reference                                          Page  167
 CP#XSTK       1 00000010 FFFFFFEC A   U    3988  3989
 CPACFLG       1 000005D5 FFFFFFEC     R    4091  4095   4100   4105   4110   4115
 CPACFLN       4 000005C4 FFFFFFEC     F    4083  4118   4118
 CPAFLAG       1 000005C3 FFFFFFEC     R    4055  4059   4064   4069   4074
 CPANAME       8 00000588 FFFFFFEC     C    4037  4133   4133
 CPAUTFLG      1 000008A9 FFFFFFEC     R    4401  4405   4410   4415   4420
 CPCHFLAG      1 00000B68 FFFFFFEC     R    5028  5032
 CPCMD       235 00000242 FFFFFFEC     C    2881 29367
 CPCMDLEN      2 00000240 FFFFFFEC     H    2880 29321
 CPCMNM        3 00000D24 FFFFFFEC     C    5354 22206  29317
 CPDELTA       4 00000738 FFFFFFEC     F    4140 20182
 CPDENQP       4 00000204 FFFFFFEC     A    2864 22522  22550M 22646  22862  23040
 CPDFLG        1 0000084C FFFFFFEC     R    4288  4292   4297   4302   4307   4312
 CPDFLG2       1 0000084D FFFFFFEC     R    4317  4321   4326   4331   4336   4341   4346
 CPDOUB        8 00000C88 FFFFFFEC     D    5274 20069M 20070  21774  32716M 32717  32719  32721  32722
 CPDRED        4 00000DD8 FFFFFFEC     F    5813 19358M 19709  19745M 19752  19800  21612  21848  21902  21969  22079
 CPDRPT        4 00000D84 FFFFFFEC     F    5716 19522  19535  19918M 20034M 20065M 20212M
 CPERRID       8 00000886 FFFFFFEC     C    4387 22283M 22320M
 CPEXFLG       1 00000758 FFFFFFEC     R    4157  4161
 CPEXFLG2      1 00000759 FFFFFFEC     R    4167  4176   4186
 CPEXFLG3      1 0000075A FFFFFFEC     R    4193  4197   4202
 CPEXTFLG      1 00000E28 FFFFFFEC     R    5839  5843   5848   5853   5858   5863   5868
 CPFABORT    128 00000D5A FFFFFFEC         5605  2206M  2206   2211M  2211
 CPFBLOCK      1 00000001 FFFFFFEC A   U    5418 32513  32981  33059  33141
 CPFDUMP     128 00000D55 FFFFFFEC         5470 23432
 CPFERROR     64 00000D5A FFFFFFEC         5610  2205M  2205   2210M  2210  22290M
 CPFEXCL       1 00000008 FFFFFFEC A   U    5415 32612  32615  33097  33101
 CPFEXNOB      8 00000D58 FFFFFFEC         5580 23405  23559
 CPFFOPT       1 00000010 FFFFFFEC A   U    5460 19377  20157  21737  24983  24992  25294  27116
 CPFGEN        4 00000D58 FFFFFFEC         5585 23876
 CPFHIGH       1 00000040 FFFFFFEC A   U    5719 19533
 CPFMTCH       1 00000008 FFFFFFEC A   U    5720 20034  20212
 CPFNEWED    128 00000E28 FFFFFFEC         5843 21624  21888  21914  21981  22005  24893
 CPFNOCAT     32 00000D56 FFFFFFEC         5515 23793  26327M 26579M 26628  26628  26648  31463  31771M 31793M
 CPFNTEX       1 00000040 FFFFFFEC A   U    5457  5458
 CPFNTYT       1 00000080 FFFFFFEC A   U    5718 19520  20065
 CPFQUIET     64 00000D55 FFFFFFEC         5475 23578  23591M 23635M
 CPFRCVY      64 00000474 FFFFFFEC         3607 23417
 CPFRDRNG      1 00000D88 FFFFFFEC     R    5725  5729   5734   5739   5744   5749   5754   5759
 CPFRDSRC      1 00000D89 FFFFFFEC     R    5764  5773   5783   5793
 CPFRECAT      8 00000D56 FFFFFFEC         5525 24246  31628  31742  31759M
 CPFSCRTC      1 00000040 FFFFFFEC A   U    5380 25182  25330  25990  30402  30405
 CPFSMALL      1 00000001 FFFFFFEC A   U    5387 30229
 CPFSOME       2 00000D88 FFFFFFEC         5759 30255
 CPFSTART      1 000000F0 FFFFFFEC A   U    5815 19709  19745
 CPFTRUNC     64 00000D56 FFFFFFEC         5510 21722M
 CPFUNCAT     16 00000D56 FFFFFFEC         5520 24298  26305M 26557M 26628  26628  26629M 31483  31548  31607
 CPFUNUM       1 00000080 FFFFFFEC A   U    5456  5458  19390  20170  21750  27135
 CPFXALL       8 00000E28 FFFFFFEC         5863 19962
 CPFXDFLG      1 000007E4 FFFFFFEC     R    4235  4239   4244
 CPGFLG1       1 00000474 FFFFFFEC     R    3598  3602   3607   3612   3617   3622   3952   3952
 CPGFLG10      1 0000047D FFFFFFEC     R    3835  3839   3844   3849   3854   3859   3864
 CPGFLG11      1 0000047E FFFFFFEC     R    3870  3874   3879
 CPGFLG12      1 0000047F FFFFFFEC     R    3885  3889   3894   3899
 CPGFLG13      1 00000480 FFFFFFEC     R    3905  3909
 CPGFLG14      1 00000481 FFFFFFEC     R    3915  3919   3924   3929   3934   3939
 CPGFLG4       1 00000477 FFFFFFEC     R    3651  3662   3671   3680   3689   3698
 CPGFLG5       1 00000478 FFFFFFEC     R    3704  3708   3713   3718   3723   3728   3733   3738   3743
 CPGFLG6       1 00000479 FFFFFFEC     R    3749  3753   3758   3763
1DISK     (DISK4072) (12:42) (15MAR04) Ordinary Symbol and Literal Cross Reference                                          Page  168
 CPGFLG7       1 0000047A FFFFFFEC     R    3769  3773   3778   3783   3788
 CPGFLG8       1 0000047B FFFFFFEC     R    3794  3798   3803   3808   3813
 CPGFLG9       1 0000047C FFFFFFEC     R    3819  3823   3829
 CPINIT        1 00000174 FFFFFFEC     U    2768  6225
 CPIOWAP       4 00000DDC FFFFFFEC     F    5817 20214  22139  23293M 23293  23672M 29492  29778  29972  30869M 30869
                                                 31940
 CPJESFLG      1 000009E1 FFFFFFEC     R    4500  4504   4509   4514   4519   4524   4529   4534   4539
 CPJESFLY      1 000009FD FFFFFFEC     R    4550  4554   4559   4564
 CPJESHFL      1 000009E0 FFFFFFEC     R    4485  4489   4494   4573   4573
 CPLCNO        4 0000073C FFFFFFEC     F    4142 20036M 21761
 CPLFLG10      1 00000D59 FFFFFFEC     R    5591  5595
 CPLFLG11      1 00000D5A FFFFFFEC     R    5601  5605   5610   5615   5620
 CPLFLG12      1 00000D5B FFFFFFEC     R    5626  5630
 CPLFLG14      1 00000D5C FFFFFFEC     R    5636  5640   5645   5650   5655   5660
 CPLFLG2       1 00000D51 FFFFFFEC     R    5378 25182  25330M 25990  30229M 30402M 30405M
 CPLFLG3       1 00000D52 FFFFFFEC     R    5409 32515  32612  32615  32983  33061  33097  33101  33143
 CPLFLG5       1 00000D54 FFFFFFEC     R    5453 19379  19392  20159  20172  20249M 20264M 20341  21739  21752  24983
                                                 24992  25294  27118  27137
 CPLFLG6       1 00000D55 FFFFFFEC     R    5466  5470   5475   5480   5485   5490   5495
 CPLFLG7       1 00000D56 FFFFFFEC     R    5501  5505   5510   5515   5520   5525
 CPLFLG8       1 00000D57 FFFFFFEC     R    5531  5535   5540   5545   5550
 CPLFLG9       1 00000D58 FFFFFFEC     R    5556  5560   5565   5570   5575   5580   5585
 CPLOCALZ      1 00000C48 FFFFFFEC     U    5058  6219   6219
 CPLRCL        4 00000D9C FFFFFFEC     F    5800 19313  19362M 19756  19923  21585M 21585  21688  24967M 24978M 24978
                                                 25289M 25320M
 CPMFLG        1 0000084F FFFFFFEC     R    4355  4359
 CPMODFLG      1 00000C78 FFFFFFEC     R    5086  5090   5095   5100   5105   5110
 CPNAMELN      1 00000010 FFFFFFEC A   U    3981  4228
 CPNEDPFX     10 00000E29 FFFFFFEC     X    5872  5873   5874  19704M 19704  19943M 22011
 CPNFINT       1 00000008 FFFFFFEC A   U    5461 20249  20264  20341
 CPNREC        4 00000D64 FFFFFFEC     F    5699 21689  24946  24965M 25259  25265M
 CPNSCANP      4 0000008C FFFFFFEC     A    2641 20334  20355  20362  20378  20402  20409  20425
 CPNUMFLG      1 00000C79 FFFFFFEC     R    5116  5128
 CPNWCT        4 00000D70 FFFFFFEC     U    5702 21591  21671  21903  21956  22080
 CPNWLN        4 00000D8C FFFFFFEC     F    5796 19503  19696
 CPNXAD        4 00000D6C FFFFFFEC     U    5701 22042M
 CPORVCMD      1 00000140 FFFFFFEC     R    2650  2654   2659   2664   2669   2674   2679   2684   2689   2694   2694
                                                  2745   2745
 CPORVFLG      1 00000149 FFFFFFEC     R    2701  2705   2710   2715   2720   2725   2730   2735   2740
 CPORVWF       1 00000150 FFFFFFEC     R    2753  2757
 CPOSCANX      4 00000CA8 FFFFFFEC     F    5285  5352   5352
 CPR          11 0000000B 00000001 A   #    1158  1231U 27587U 29206U 33447  33794M 34304U 34670M 34670  34909M 34909
 CPRACBAD     16 000001FC FFFFFFEC         2819  2853   2853   2854   2854
 CPRACF1       1 000001FC FFFFFFEC     R    2800  2804   2809   2814   2819   2824   2829   2834   2839   2855
 CPRACPSW     32 000001FC FFFFFFEC         2814  2852   2852   2854   2854
 CPRACUND     64 000001FC FFFFFFEC         2809  2852   2852   2853   2853
 CPRCVCUR      4 00000730 FFFFFFEC     A    4136  4138   4138
 CPREGS        4 00000004 FFFFFFEC     A    2531 31139M 33423M 33517M
 CPRFEXT     128 000008AA FFFFFFEC         4430 23319M
 CPRFLG        1 000008AA FFFFFFEC     R    4426  4430   4435   4440   4445   4450   4455
 CPS         254 00000344 FFFFFFEC     X    3570  3573   3574   3576   3576
 CPSACCT       5 000003B4 FFFFFFEC     C    3169  3332   3332
 CPSAMCOD      1 00000A22 FFFFFFEC     R    4622  4630   4640   4650   4659   4668   4677   4687   4696   4705
 CPSAMFLG      1 00000A21 FFFFFFEC     R    4582  4586   4591   4596   4601   4606   4611   4616   4727   4727
 CPSCNFLG      1 00000CD0 FFFFFFEC     R    5298  5309   5318   5329
 CPSCNF2       1 00000CD1 FFFFFFEC     R    5334  5338
 CPSCNMAX      1 00000014 FFFFFFEC A   U    5350  5351
 CPSCRI        2 00000434 FFFFFFEC     H    3559  3564   3564
 CPSEG        60 00000050 FFFFFFEC     X    2639 20550  20632  20714  20796  20884  20970  22278  23451  23610  27166
1DISK     (DISK4072) (12:42) (15MAR04) Ordinary Symbol and Literal Cross Reference                                          Page  169
 CPSEGCOD      1 00000050 FFFFFFEC     R    2556  2565   2575   2585   2595   2605   2615   2625
 CPSEQFLD      2 00000DA0 FFFFFFEC     H    5801 20250  20256  20266  20268  21137  21139  21146  21255  21257  21264
                                                 21694  21782  21784  27147  27149
 CPSEQLN       2 00000DA2 FFFFFFEC     H    5802 19401M 20245  20247M 20248  20265  20297  21135  21144  21253  21262
                                                 21696  21788  21809  21810  27146
 CPSFL         1 00000384 FFFFFFEC     R    2907  2911   2916   2921   2926   2931
 CPSFLG        1 000003F8 FFFFFFEC     R    3447  3451   3456   3461   3466   3471   3476   3481   3486
 CPSFLG2       1 000003F9 FFFFFFEC     R    3492  3496   3501   3506
 CPSFL2        1 00000385 FFFFFFEC     R    2937  2941   2946   2951   2956
 CPSFL3        1 00000386 FFFFFFEC     R    2962  2966   2971   2976
 CPSFL4        1 00000387 FFFFFFEC     R    2982  2986   2991   2996
 CPSFL5        1 00000388 FFFFFFEC     R    3002  3006   3011   3016
 CPSFOPR      16 000003BE FFFFFFEC         3277 28669  28669  28670
 CPSFSPR      32 000003BE FFFFFFEC         3272 24508  28669  28669  31581
 CPSGRP        2 000003B7 FFFFFFEC     C    3171 24528  24879  27334  30277
 CPSKAFL       1 000003BF FFFFFFEC     R    3303  3307   3312   3317   3322   3327
 CPSKIFL       1 000003BE FFFFFFEC     R    3258  3262   3267   3272   3277   3282   3287   3292   3297
 CPSOF         1 000001F8 FFFFFFEC     X    2790  2792   2792
 CPSOFLAG      1 00000416 FFFFFFEC     R    3517  3521   3526   3531   3536   3541
 CPSOPST       4 000003C4 FFFFFFEC     F    3337  3566   3566
 CPSPORT       8 00000354 FFFFFFEC     C    2901  3021   3021
 CPSQFLG       1 000003EC FFFFFFEC     R    3366  3370
 CPSSFLG       1 000003BB FFFFFFEC     R    3176  3180   3185   3190   3195   3200   3205
 CPSSFPS      32 000003BB FFFFFFEC         3190 23393
 CPSSTART      4 00000344 FFFFFFEC     F    2893  2897   2897   3333   3333   3438   3438   3570   3570
 CPSSTAT       1 0000038F FFFFFFEC     R    3113  3117   3122   3127   3132   3137   3142   3147
 CPSTACF       1 000003BC FFFFFFEC     R    3211  3215   3220   3225   3230   3235   3240   3245   3250
 CPSTART       4 00000000 FFFFFFEC     C    2529  6223   6227
 CPSTFLAG      1 000003EA FFFFFFEC     R    3344  3348   3353   3358
 CPSTYPE       1 0000038C FFFFFFEC     R    3026  3035   3045   3055   3065   3075   3085   3095   3105
 CPSUFLG       1 000003EE FFFFFFEC     R    3381  3385   3390   3395   3400   3405   3410   3415   3420
 CPSUFLG2      1 000003EF FFFFFFEC     R    3426  3430   3435
 CPSUSER       3 000003B4 FFFFFFEC     C    3170 24878  27333  30279
 CPSVPGM       8 0000039C FFFFFFEC     C    3159  3165   3165
 CPS1ST        4 0000038C FFFFFFEC     F    3023  3568   3568
 CPTEMPP#      1 0000005F FFFFFFEC A   U    4476  4478
 CPTRMFL1      1 00000C7A FFFFFFEC     R    5134  5138   5143   5148   5272   5272
 CPTRMFL2      1 00000C7B FFFFFFEC     R    5154  5158   5163   5168   5173   5178   5183
 CPTRMFL3      1 00000C7C FFFFFFEC     R    5189  5193   5198   5203   5208   5213   5218   5223
 CPTRMFL4      1 00000C7D FFFFFFEC     R    5229  5233   5238   5243   5248   5253   5258   5263
 CPUSED        1 00000FBC FFFFFFEC A   U    6223  6224
 CPVACURS      8 00000AF0 FFFFFFEC     D    5001  5002   5003
 CPVCURS       8 00000AE0 FFFFFFEC     D    4995  4996   4997
 CPVFLAG       1 00000AC8 FFFFFFEC     R    4796  4800   4805   4810   4815   4820
 CPVFLAG2      1 00000AC9 FFFFFFEC     R    4826  4830   4835   4840   4845   4850   4855
 CPVFLAG3      1 00000ACA FFFFFFEC     R    4861  4865   4870   4875   4880   4885   4890
 CPVFLAG4      1 00000ACB FFFFFFEC     R    4896  4900   4905   4910
 CPVLFLAG      1 00000ACE FFFFFFEC     R    4965  4969   4974   4979
 CPVMODE       1 00000ACC FFFFFFEC     R    4918  4922   4927   4932   4937   4942   4947   4952   4957
 CPVOLUME      6 00000880 FFFFFFEC     C    4386 27865M 27865  27895
 CPVTWID       2 00000AD0 FFFFFFEC     H    4985  4988   4988
 CPWK1         4 00000D60 FFFFFFEC     F    5669  5684   5707  19832M 19916M 19917  20035M
 CPWK2         4 00000D64 FFFFFFEC     F    5670  5685   5699
 CPWK3         4 00000D68 FFFFFFEC     F    5671  5686   5700
 CPWK4         4 00000D6C FFFFFFEC     F    5672  5687   5701
 CPWK5         4 00000D70 FFFFFFEC     F    5673  5689   5694   5702
 CPWK6         4 00000D74 FFFFFFEC     F    5674  5690   5695   5703   5710   5712
 CPWK7         4 00000D78 FFFFFFEC     F    5675  5688   5704
 CPWK8         4 00000D7C FFFFFFEC     F    5676 30606M 32993  32994M 33080
1DISK     (DISK4072) (12:42) (15MAR04) Ordinary Symbol and Literal Cross Reference                                          Page  170
 CPWK9         4 00000D80 FFFFFFEC     F    5677 33005M 33005  33080M
 CPXFLAG       1 000007FD FFFFFFEC     R    4263  4267
 CPXSTATE      4 000007F8 FFFFFFEC     F    4257  4270   4270
 CRBRANCH      1 00000000 00000000 A   T    9326  9326
 CREATE        6 00001BD0 00000001     I   24876 24812B 24826B
 CREATEA       6 00001F86 00000001     I   25536 25509B
 CREATEAJ      6 00001F98 00000001     I   25539 25508B
 CREATEJ       6 00001EA4 00000001     I   25325 25310B
 CREATEOK      2 00001BEA 00000001     H   24882 24877B
 CREATE2       2 00001E1C 00000001     H   25231 24912B
 CREATE2A      4 00001E9C 00000001     I   25323 25292B
 CREATE2B      4 00001E96 00000001     I   25321 25258B
 CREATE2M      4 00001E34 00000001     I   25253 25250B
 CREATE3       4 00001F60 00000001     I   25518 25226B
 CREATTMP      6 00001EB6 00000001     I   25329 25326B
 CREA1         4 00001E3C 00000001     I   25255 25243B
 CREDITST      4 00001E7C 00000001     I   25294 25257B
 CRELREC       4 00001E4A 00000001     I   25259 25296B
 CRELREC1      2 00001E60 00000001     I   25266 25261B
 CREXED        4 00001C96 00000001     I   24976 24973B 24987B 24990B 24993B
 CREXEDT       4 00001C8A 00000001     I   24972 24943B
 CREXED1       2 00001C9A 00000001     I   24977 24989B
 CREXI1        4 00001C30 00000001     I   24940 24936B
 CREXI2        4 00001CA6 00000001     I   24981 24942B
 CREXI20       4 00001CB6 00000001     I   24985 24974B
 CREXI21       4 00001CCC 00000001     I   24992 24998B
 CREXI22       4 00001CD4 00000001     I   24994 24984B 25002B 25005B
 CREXI3        4 00001CDC 00000001     I   24997 24982B
 CREXLR        4 00001C3E 00000001     I   24945 24995B
 CREXLR1       4 00001C5E 00000001     I   24953 25004B
 CREXLR2       4 00001C70 00000001     I   24958 24950B 24952B 24955B
 CREXLR3       2 00001C74 00000001     H   24961 24957B
 CREXLR4       2 00001C7C 00000001     I   24966 24948B
 CREXTST       4 00001CFE 00000001     I   25007 24970B 24979B
 CREXTST1      4 00001D72 00000001     I   25171 25141B 25143B 25163B
 CRSEQ         6 00001D86 00000001     I   25178 25174B
 CRSEQSCR      6 00001E0E 00000001     I   25224 25197B 25216B 25218B
 CRSEQTMP      4 00001D98 00000001     I   25182 25179B
 CSRTABLE      1 00000000 00000000 A   T    9346  9346
 CSVARMGR      1 00000000 00000000 A   T    9394  9394
 CSVEXIT       1 00000000 00000000 A   T    9267  9267
 CSVLLCB       1 00000000 00000000 A   T    8867  8867
 CSVLLTRM      1 00000000 00000000 A   T    8868  8868
 CSVMEM        1 00000000 00000000 A   T    9095  9095
 CSVVFGET      1 00000000 00000000 A   T    9659  9659
 CSVVFIND      1 00000000 00000000 A   T    9657  9657
 CUTTIN1       2 00000AC6 00000001     H   20322 20295B
 CUTTIN2       4 00000A10 00000001     I   20208 20463B
 CV         4016 00000000 FFFFFFEE     J    2432  1240U 34313U
 CV            1 00000000 00000031     T   33730 33730  35003
 CVABORT       4 000007DA FFFFFFEE     I    2211 20979B 22284B
 CVABSRTN      4 0000088C FFFFFFEE     V    2246  2221
 CVABTMSG      4 000007CC FFFFFFEE     I    2206 22325B
 CVAFDONE      2 00003CB4 00000001     H   32821 32324B 32362B 32409B 32441B 32459B
 CVAFDSN      44 00000ADD FFFFFFC0     C   18046 18059  32262M 32269  32393
 CVAFPL        1 00000B10 FFFFFFC0     U   18050 18052  32259M 32259  32260M 32261M 32265  32299  32341  32827
 CVBLANKS    235 000004D8 FFFFFFEE     C    2026 24262  25946  26077  27894  28004  28222  29316  29320  30276  31208
 CVBRMSK       1 00000751 FFFFFFEE     X    2162  2163   2164
 CVCFLAG       1 00000A00 FFFFFFEE     R    2327  2331   2336   2341   2346   2351
1DISK     (DISK4072) (12:42) (15MAR04) Ordinary Symbol and Literal Cross Reference                                          Page  171
 CVCHKST       8 000009F0 FFFFFFEE     D    2317  2407   2407
 CVCHKST2      8 00000E28 FFFFFFEE     D    2410  2413   2413
 CVCHKUC       2 000009F4 FFFFFFEE     H    2320 28306  28307M
 CVCOMRTN      4 0000087C FFFFFFEE     V    2242  2212
 CVCURJCB      4 000001C8 FFFFFFEE     A    1511 29506  29792  30005  30342  31115  31930  33485
 CVDBGFLG      1 000004CC FFFFFFEE     R    2016  2020
 CVENT         4 0000074C FFFFFFEE     I    2160 18115B 19102B 19300B 19477B 19666B 20516B 20598B 20680B 20762B 20844B
                                                 20932B 21114B 21211B 21416B 21549B 22067B 22120B 22253B 22400B 22622B
                                                 22838B 23017B 23270B 27252B 27779B 28365B 28488B 29242B 29462B 29757B
                                                 29958B 30756B 30990B 31160B 31240B 31435B 31845B 31918B 34325B
 CVENTBR       2 00000750 FFFFFFEE     I    2161  2162
 CVERRMSG      4 000007C8 FFFFFFEE     I    2205 19414B
 CVERROR       4 000007D6 FFFFFFEE     I    2210  2226B 21967B
 CVEXIRTN      4 0000077C FFFFFFEE     V    2190  2186
 CVEXNO        1 00000000 00000017     T   23238 23238
 CVFCHRKBPR
               8 000004C9 FFFFFFEE         1931  1947   1947
 CVFCHRKBSE
               4 000004C9 FFFFFFEE         1936  1947   1947
 CVFCHRKCPR
               2 000004C9 FFFFFFEE         1953  1969   1969
 CVFCHRKCSE
               1 000004C9 FFFFFFEE         1958  1969   1969
 CVFCHRUBPR
             128 000004C9 FFFFFFEE         1887  1903   1903
 CVFCHRUBSE
              64 000004C9 FFFFFFEE         1892  1903   1903
 CVFCHRUCPR
              32 000004C9 FFFFFFEE         1909  1925   1925
 CVFCHRUCSE
              16 000004C9 FFFFFFEE         1914  1925   1925
 CVFINIT       8 000004C5 FFFFFFEE         1752 29263
 CVFIOWA       4 000006EC FFFFFFEE     A    2120 18446M 18665
 CVFL          1 000004C4 FFFFFFEE     R    1683  1687   1692   1697   1702   1707   1712   1717   1722
 CVFL2         1 000004C5 FFFFFFEE     R    1728  1732   1737   1742   1747   1752   1757   1762   1767
 CVFL3         1 000004C6 FFFFFFEE     R    1773  1777   1782   1787   1792   1797   1802   1807   1812
 CVFL4         1 000004C7 FFFFFFEE     R    1818  1822   1827   1832   1837   1842   1847   1852
 CVFL5         1 000004C8 FFFFFFEE     R    1858  1862   1867   1872   1877
 CVFL6         1 000004C9 FFFFFFEE     R    1883  1887   1892   1904   1909   1914   1926   1931   1936   1948   1953
                                                  1958   1970
 CVFNDSUB      8 000004C4 FFFFFFEE         1707 33458  33769
 CVFNSTAE      8 000004C7 FFFFFFEE         1842 33657
 CVFRLG       16 000004C4 FFFFFFEE         1702 18583
 CVFXA        16 000004C6 FFFFFFEE         1792 33579
 CVFXA31       2 000004C6 FFFFFFEE         1807 33595
 CVHEAP#       1 00000200 FFFFFFEE A   U    1589  1590
 CVINVRTN      4 00000888 FFFFFFEE     V    2245  2215
 CVITCBP       4 00000714 FFFFFFEE     A    2130 22448  22740  23144  26821  27454  30646  33322
 CVJESFLG      1 000004CA FFFFFFEE     R    1976  1980
 CVLNKRGS      4 00000780 FFFFFFEE     F    2192  2167M  2193  22705M 22921M 23099M 23302M 30027M 30855M 33443M 33538M
                                                 33819M
 CVLNKRTN      4 000007B0 FFFFFFEE     U    2193  2182M
 CVLOCK1       1 00000088 FFFFFFEE     R    1334  1338   1343
 CVLOCK2       1 00000089 FFFFFFEE     R    1348  1352
 CVLOCK3       1 0000008A FFFFFFEE     R    1357  1361
 CVLOCK4       1 0000008B FFFFFFEE     R    1366  1370
 CVLOGMOD      1 00000068 FFFFFFEE     R    1321  1325
 CVLUVPTR      4 0000071C FFFFFFEE     A    2132 18569M
 CVMACH        1 00000067 FFFFFFEE     R    1281  1285   1290   1295   1300   1305   1310   1315
1DISK     (DISK4072) (12:42) (15MAR04) Ordinary Symbol and Literal Cross Reference                                          Page  172
 CVMACHID      8 0000000C FFFFFFEE     C    1261 18621
 CVMAXLNO      4 0000015C FFFFFFEE     A    1475 21232
 CVMILRTN      4 00000884 FFFFFFEE     V    2244  2224
 CVNDIO        4 000008E8 FFFFFFEE     F    2268 29569  29570M 29866  29867M
 CVNOARTN      4 00000890 FFFFFFEE     V    2247  2218
 CVNWDATE      4 00000608 FFFFFFEE     F    2049  2053   2053
 CVNWMPG#      1 00000008 FFFFFFEE A   U    2051  2052
 CVPFXRTN      1 00000000 00000000 A   T    2190  2190
 CVPGFLAG      1 00000A01 FFFFFFEE     R    2357  2361   2366   2371
 CVPIOSZ       1 00004F80 FFFFFFEE A   U    1420  1422
 CVPPDBQH      4 0000009C FFFFFFEE     A    1378  1379
 CVPSFNO       1 000003E9 FFFFFFEE A   N    1542  1544
 CVPSLNO       1 000007CF FFFFFFEE A   N    1543  1544
 CVPSZ         1 00004F78 FFFFFFEE A   U    1422 33728
 CVPXSZ        1 00000008 FFFFFFEE A   U    1421  1422
 CVR          12 0000000C 00000001 A   #    1171  1240U 33566M 34313U 34666M 34905M
 CVRCVOL       4 00000744 FFFFFFEE     A    2147 18663M
 CVRIOW        1 00000004 FFFFFFEE A   U    2111 23329  23499  23651  30831
 CVRKEY        1 00000008 FFFFFFEE A   U    2115  2116
 CVSEGRTN      4 00000880 FFFFFFEE     V    2243  2207
 CVSTACK#      1 00000080 FFFFFFEE A   U    1581  1582
 CVSTART       4 00000000 FFFFFFEE     C    1254  2425
 CVSTYPE       2 00000724 FFFFFFEE     C    2138 24477  24876  25178  25325  26147
 CVT           1 00000000 FFFFFFDC     J    8837 18519  30382U
 CVTBRET       2 00000052 FFFFFFDC     H    8892  9405   9484
 CVTCBP        4 0000073C FFFFFFEE     A    2145 18703
 CVTJESCT      4 00000128 FFFFFFDC     V    9109 18519
 CVTPCNVT      4 0000001C FFFFFFDC     V    8859 30387
 CVTPRLTV      4 00000020 FFFFFFDC     V    8863 30384
 CVTPTR        1 00000010 FFFFFFDD A   U    8833 18518  30374
 CVTRC         4 00000768 FFFFFFEE     I    2182  2168B 22706B 22922B 23100B 23303B 30028B 30856B 33444B 33539B 33820B
 CVTRCRTN      4 00000778 FFFFFFEE     V    2189  2183
 CVTTYPE       2 00000728 FFFFFFEE     C    2140 24479
 CVTVSTGX      1 00000000 FFFFFFDB     J    9857  9721
 CVTXTNT1      1 00000000 FFFFFFDA     J    9896  9064
 CVTXTNT2      1 00000000 FFFFFFD9     J    9904  9134
 CVT4MS1       1 00000010 FFFFFFDC A   U    8917  8925
 CVT6DAT       1 00000002 FFFFFFDC A   U    8921  8925
 CVUSFNO       1 00000001 FFFFFFEE A   N    1549  1551
 CVUSLNO       1 000003E7 FFFFFFEE A   N    1550  1551
 CVVOL        30 00000DDC FFFFFFEE     X    2401 28221
 CVVOL#        1 00000005 FFFFFFEE A   U    2400  2401
 CVVOLCUR      2 00000DD8 FFFFFFEE     H    2398 28218  28251M
 CVVOLIST      4 00000740 FFFFFFEE     A    2146 18662M 18678  28386  28516
 CVVOLMAX      2 00000DDA FFFFFFEE     H    2399 28236  28262M 28262
 CVWTOFLG      1 000004CB FFFFFFEE     R    1986  1990   1995   2000   2005   2010
 CVWTOSGP      4 00000748 FFFFFFEE     V    2149 34349  34402  34417  34481  34496  34521  34536  34562  34585
 DALCDISP      1 00000006 FFFFFFDE A   U    8281 18976
 DALDDNAM      1 00000001 FFFFFFDE A   U    8276 18965
 DALNDISP      1 00000005 FFFFFFDE A   U    8280 18975
 DALSTATS      1 00000004 FFFFFFDE A   U    8279 18974
 DALUNIT       1 00000015 FFFFFFDE A   U    8296 18971
 DALVLSER      1 00000010 FFFFFFDE A   U    8291 18968
 DBUF          8 00000720 FFFFFFC0     D   16045 15566  15618  16051  18295  19002  26039  29538M 29669  29688  32972
                                                 33130
 DCATLG        4 00003672 00000001     I   31430 27208  30921
 DCATNO        2 00003770 00000001     H   31767 31466B 31513B 31532B
 DCATUNIT      4 00000F64 FFFFFFEC     F    6163 26126M 27318
 DCATX         2 00003774 00000001     H   31774 31591B 31674B 31707B 31763B
1DISK     (DISK4072) (12:42) (15MAR04) Ordinary Symbol and Literal Cross Reference                                          Page  173
 DCATXX        4 00003768 00000001     I   31762 31745B 31752B
 DCB           4 00000498 FFFFFFC0     F   15782 15617  15706  18293  18360  18379M 18380  24422M 24632  24670M 25171M
                                                 25172M 25709M 25713M 25730M 25808M 25821  25860  25869  26000  26014
                                                 26361  26684  27268M 27272M 27275M 27276M 29545  30123  30451M 31031
                                                 31033  31037M 31044  31082
 DCBBIT0       1 00000080 FFFFFFE5 A   U    6864  7033   7049   7089   7107   7153   7162   7177   7218   7226   7240
                                                  7262   7304   7306   7307   7309   7329   7332   7354   7358   7373
                                                  7410   7466   7492   7530   7534   7553   7659
 DCBBIT1       1 00000040 FFFFFFE5 A   U    6865  7034   7050   7108   7116   7153   7162   7179   7219   7227   7242
                                                  7271   7272   7281   7287   7304   7306   7308   7309   7334   7354
                                                  7356   7358   7376   7377   7378   7413   7414   7466   7494   7536
                                                  7538   7556   7601   7660
 DCBBIT2       1 00000020 FFFFFFE5 A   U    6866  7035   7051   7109   7118   7162   7180   7220   7228   7243   7244
                                                  7245   7271   7272   7276   7282   7287   7304   7305   7310   7336
                                                  7359   7360   7381   7382   7383   7417   7418   7467   7499   7539
                                                  7561   7604   7607   7661
 DCBBIT3       1 00000010 FFFFFFE5 A   U    6867  6988   7036   7052   7123   7164   7181   7221   7243   7245   7246
                                                  7271   7284   7311   7339   7359   7362   7385   7386   7387   7421
                                                  7422   7467   7501   7503   7505   7541   7562   7604   7608
 DCBBIT4       1 00000008 FFFFFFE5 A   U    6868  6989   7053   7124   7167   7182   7229   7285   7286   7287   7312
                                                  7340   7364   7369   7370   7390   7391   7425   7426   7428   7429
                                                  7468   7508   7543   7563   7604   7609
 DCBBIT5       1 00000004 FFFFFFE5 A   U    6869  6991   7054   7126   7168   7182   7230   7292   7315   7316   7342
                                                  7364   7366   7367   7370   7394   7396   7397   7398   7432   7433
                                                  7434   7435   7468   7510   7513   7546   7565   7599
 DCBBIT6       1 00000002 FFFFFFE5 A   U    6870  6993   7023   7037   7055   7128   7169   7185   7222   7294   7295
                                                  7298   7315   7317   7343   7401   7402   7403   7404   7438   7439
                                                  7440   7441   7469   7516   7548   7567   7610
 DCBBIT7       1 00000001 FFFFFFE5 A   U    6871  6995   7023   7038   7132   7171   7186   7223   7294   7296   7298
                                                  7319   7348   7406   7407   7444   7445   7447   7448   7519   7549
                                                  7550   7568   7612   7662
 DCBBLKSI      2 0000003E FFFFFFE5     H    7570 25171M
 DCBCIND1      1 0000003C FFFFFFE5     B    7529 31031
 DCBDCBE       4 00000000 FFFFFFE5     A    6879  6883
 DCBDDNAM      8 00000028 FFFFFFE5     C    7326 24422M 32017M
 DCBDEBAD      4 0000002C FFFFFFE5     A    7464 30340  32250
 DCBDIRCT      2 00000050 FFFFFFE5     H    7596 26000
 DCBDSORG      2 0000001A FFFFFFE5     B    7216 25709M 25730M 25860  27276M 30199  31033
 DCBDVTBL      4 0000000C FFFFFFE5     A    6898 30311
 DCBEXIT       2 0000294E 00000001     I   27685 27222
 DCBEXLSA      3 00000025 FFFFFFE5     R    7321 18386M
 DCBEXLST      4 00000024 FFFFFFE5     A    7302 27272M 27273M
 DCBFDAD       8 00000005 FFFFFFE5     C    6895  6897  30371
 DCBIOBA       4 00000044 FFFFFFE5     A    7578 31044
 DCBKEYLE      1 00000010 FFFFFFE5     G    7202 29545  31082
 DCBLRECL      2 00000052 FFFFFFE5     H    7634 25172M
 DCBOFIOF      1 00000001 FFFFFFE5 A   U    7348  7350
 DCBOFLGS      1 00000030 FFFFFFE5     B    7328 25821  30451M 31037M 32163
 DCBOFUEX      1 00000002 FFFFFFE5 A   U    7343  7347
 DCBOPTCD      1 00000034 FFFFFFE5     B    7491 24670M
 DCBRECFM      1 00000024 FFFFFFE5     B    7303 25713M 25808M 27275M 30174M
 DCBSSID       8 00000000 FFFFFFE5     C    7142  7144
 DCBSZ         1 00000058 00000029 A   U   27637 18379  27268
 DCBTRBAL      2 00000012 FFFFFFE5     H    6927 30227  30330
 DCBWTOID      4 00000000 FFFFFFE5     A    7060  7075   7085
 DCLALLO       4 00003022 00000001     I   30234 30163B
 DCLOSE        4 00002F1A 00000001     I   29953 21321  23241  27229  29952  31414
 DCLOSE2       4 0000301A 00000001     I   30230 30223B 30228B
 DCLRET        2 00003028 00000001     H   30238 30169B
1DISK     (DISK4072) (12:42) (15MAR04) Ordinary Symbol and Literal Cross Reference                                          Page  174
 DCX           4 0000325C 00000001     I   30708 30061B 30118B 30686B
 DCXX          2 00003266 00000001     I   30711 29989B 30698B
 DDEQ          2 000013FE 00000001     H   22608 22604
 DDEQEXIT      2 000014C4 00000001     H   22787 22768B
 DEALLOC       2 00002C06 00000001     H   28872 28596B 28799B 28818B
 DEBUGSG       1 00000000 00000000 A   T    2143  2143
 DECB          4 0000037C FFFFFFC0     F   15613 15421  18188  18223  18292M 18294M 18296M 18425  19223M 19223  19234
                                                 29554  29851  31016  31029  31065  31076  31083  31946  32499  32594
                                                 33402  33490M 33497  33782
 DELT          4 000022F8 00000001     I   26135 24833B
 DELTALL       2 00002316 00000001     H   26144 25225B
 DELTALL2      4 00002342 00000001     I   26185 26148B
 DELT1         4 00002312 00000001     I   26142 26136B 26138B
 DENQ          2 00001330 00000001     H   22386 22382
 DENQENT      56 00000000 FFFFFFBD     J   22362 22495  22510U 22520M 22520  22646  22662U 22696  22756M 22759  22862
                                                 22878U 22912  23040  23056U 23090  23160M 23163
 DENQFLAG      1 00000008 FFFFFFBD     R   22347 22351
 DENQFREE      2 00001540 00000001     H   23003 22999
 DENQFTMP    128 00000008 FFFFFFBD        22351 22545M 23129
 DENQID        4 00000000 FFFFFFBD     C   22343 22521M 22757M 23161M
 DENQLEN       2 0000000A FFFFFFBD     H   22354 22523M 22735  23139
 DENQNAME     44 0000000C FFFFFFBD     C   22355 22524M 22725  22733  22941  23137
 DENQNEXT      4 00000004 FFFFFFBD     A   22344 22522M 22646  22677  22756M 22756  22862  22893  23040  23071  23160M
                                                 23160
 DENQTEST      2 000014D2 00000001     H   22824 22820  27213
 DEQERR        4 0000252E 00000001     I   26742 24770B 25628B 26053B 26073B 26249B 26353B 26528B 26669B 26865B 26871B
                                                 26877B 26880B 26883B 26886B 26889B 26892B 26895B 26898B 26901B 26917B
                                                 26960B 26965B 27172B
 DEQERRV       2 000025A2 00000001     I   26860 24553B 24560B 24562B
 DEQERRW       2 00002534 00000001     I   26744 26874B 26913B
 DETQUEUE      2 000006BA 00000001     I   19153 19135B 19138B
 DEV          12 00000000 FFFFFFEB     J    4781  4789
 DEVBLOCK      4 00000374 FFFFFFC0     F   15607 24910M 24958  24976  25262  25321  30224
 DEVCODE       4 0000034A FFFFFFC0     C   15593 26126  27318M 31364M 31367  31641M 31960
 DEVMAX#       1 00000002 FFFFFFEC A   U    4732  4789
 DEVTYPE       1 00000001 FFFFFFEB     R    4749  4758   4768
 DFAIDTAB      1 00000000 00000000 A   T    9734  9734
 DFL           1 0000016A FFFFFFC0     X   15443 25995M 25997  26167  26180M 26923  27323M 27696  27709M 28863M 29077M
                                                 30160  30201  30403
 DFNOACTG      1 00000004 FFFFFFC0 A   U   15445 26165  27694  28861  29075
 DFRELOOP      4 0000155C 00000001     I   23040 23168B
 DFREPL        1 00000008 FFFFFFC0 A   U   15444 25995  25997  30403
 DFUPTSPC      1 00000002 FFFFFFC0 A   U   15446 26178  26923  27707  30158  30201
 DISKCLCK      8 00004658 00000001     D   34951 34663M 34950
 DISKINIT      4 0000001C 00000001     I   18110 18109
 DISKSCB     104 00004660 00000001     X   34952 34664M 34950
 DISKSTOP      4 00000670 00000001     I   19097 19096
 DISK4072      1 00000000 00000001     R    1000   998
 DISPATCH      1 00000000 0000002D     T   31417 31417  33729
 DOALLOC       4 00000374 00000001     I   18703 18810B
 DOALOXX       2 00002C3A 00000001     H   28954 28577B 28741B 28764B
 DODSP         2 00004110 00000001     H   33503 33498B
 DOEDIT        2 0000116C 00000001     I   21875 21691B
 DOLXNMB       4 00000A48 00000001     I   20245 20175B
 DOLXNMB1      4 00000AB2 00000001     I   20297 20267B
 DOLXNM1       4 00000A76 00000001     I   20260 20254B 20263B
 DOLXNM2       4 00000A6E 00000001     I   20256 20251B
 DOLXNM3       4 00000A8A 00000001     I   20265 20246B 20261B
 DONE          2 00003CAE 00000001     H   32815 32531B 32552B 32785B 33086B 33146B 33181B 33239B
1DISK     (DISK4072) (12:42) (15MAR04) Ordinary Symbol and Literal Cross Reference                                          Page  175
 DONTWANT      6 00003CA4 00000001     I   32810 32598B 32613B 32616B
 DOPACC        4 00001B4C 00000001     I   24768 24693B
 DOPBASE       2 0000183C 00000001     H   23722 23526B 23695
 DOPEN         4 000016F4 00000001     I   23265 23264
 DOPEN         1 00000000 00000009     T   21317 21317
 DOPRES        2 0000183A 00000001     I   23706 23682B
 DOREN         2 000023F0 00000001     H   26374 24805B
 DOSTOW        2 000011EC 00000001     H   21997 21901B
 DOTTBL        1 00000000 00000000 A   T    2259  2259
 DOUCALD       2 00002C2C 00000001     H   28945 29082B
 DOUCBRTN      2 00002CA6 00000001     I   29100 28868B 28950B 29085B 29088B 29091B 29094B
 DOUCBSR       4 00002B32 00000001     I   28483 27209
 DOVOLGOT      6 000003FE 00000001     I   18878 18859B
 DOVOLNXT      4 0000040C 00000001     I   18881 18693B
 DOVOLSTO      4 00000408 00000001     I   18880 18771B 18804B
 DOVOL1        4 00000366 00000001     I   18692 18883B
 DOWYLCVL      4 00004298 00000001     I   33865 27202  33714
 DOWYLEX       4 000042BA 00000001     I   33889 33885B
 DO2314        2 0000385E 00000001     I   31965 31961B
 DRDID        16 00000000 FFFFFFBB     X   29431 29536M 29537M 29538  29538  29669  30899  30908
 DRDWA        16 00000000 FFFFFFBB     J   29438 29459  29488U 29731  29733  29734
 DREAD         2 00002D98 00000001     H   29447 29443
 DREAD         1 00000000 0000000E     T   21324 21324
 DRENCATF     32 00000F9F FFFFFFEC         6201 26660M
 DRENCFLG      1 00000F9F FFFFFFEC     R    6187  6191   6196   6201   6206   6211
 DRENCTRC      4 00000F98 FFFFFFEC     F    6170 26638M
 DRENDSN      44 00000F64 FFFFFFEC     C    6168 27297
 DRENMBR       8 00000F9F FFFFFFEC         6211 26384
 DRENMNAM      8 00000F90 FFFFFFEC     C    6169 26676
 DRENPROT      1 00000F9E FFFFFFEC     R    6174  6182  26415M
 DRENUNC      64 00000F9F FFFFFFEC         6196 26615M
 DRENUNCF     16 00000F9F FFFFFFEC         6206 26605M
 DSAVBLK       2 00000F96 FFFFFFEC     H    6158 25209  25518
 DSAVTIT      42 00000F66 FFFFFFEC     C    6155 25946M 25973M 30280
 DSAVTITL      2 00000F64 FFFFFFEC     H    6154 25901M 25901  25945M 30281
 DSCB          4 00000390 FFFFFFC0     F   15622 18299M 18301M 18303M 18305M 24663  30492  32878
 DSDD          8 00000170 FFFFFFC0     C   15456 18197M 18216  18221M 18411  24422  28835M 29053M 30513  31360  32017
 DSEXISTS      2 00002698 00000001     H   26969 26953B
 DSISPDS       4 000026DA 00000001     I   27025 24938B 27008B
 DSKCLOSE      4 00001274 00000001     I   22115 22114
 DSKEXIT       2 00001212 00000001     I   22044 21606B 21676B
 DSKOPEN       4 000006F0 00000001     I   19295 19294
 DSKREAD       2 00000788 00000001     H   19463 19459
 DSKWRITE      2 00000FF2 00000001     H   21400 21396
 DSKWRT2       4 00001040 00000001     I   21544 23232
 DSN           1 0000029C FFFFFFC0     X   15571 15669  18269M 18270M 18270  18329  32100
 DSNAME       44 00000270 FFFFFFC0     C   15570 15530  15538  15627  15638  15648  15689  15699  15742  18271M 18272M
                                                 18272  18273  18300  18309  18315  18346  18353  18403  18474M 18988
                                                 18991  23776  23853  23882  24845  24851  24852  25219  25539  25702
                                                 26636  27277M 27970  27971  31955M 32262  32393  32909  34511
 DSNBADV       6 00000EBE FFFFFFEC     C    5910 27817  27908  28046
 DSNCATV       6 00000EB8 FFFFFFEC     C    5909 23973M 23973  24137M 24166  26293  26545  31498
 DSNCODE       4 00000F5C FFFFFFEC     F    6140 19777  22082
 DSNDDISK      1 00000001 FFFFFFEC A   U    6121 23320
 DSNDTYPE      1 00000F3B FFFFFFEC     X    6120 23320M
 DSNFALLO      1 00000010 FFFFFFEC A   U    5940 23779  24454  24688  24821  24924  25238  25305  25340  25722  25777
                                                 25831  28146  30141
 DSNFBADN     32 00000F37 FFFFFFEC         5976 31563
 DSNFCAT       1 00000004 FFFFFFEC A   U    5942 23983  24126  24286  24327  26117  28979  32005  33031  33104  33114
1DISK     (DISK4072) (12:42) (15MAR04) Ordinary Symbol and Literal Cross Reference                                          Page  176
                                                 33289
 DSNFCHT       1 00000004 FFFFFFEC A   U    5956 25140
 DSNFCODE     32 00000F38 FFFFFFEC         6021 19768  21651  21941
 DSNFCVOL      1 00000008 FFFFFFEC A   U    5955 33888
 DSNFEXP       1 00000002 FFFFFFEC A   U    5957 25798
 DSNFMAIL    128 00000F37 FFFFFFEC         5966 19343  19343  24490  27884  27884  27885
 DSNFMYDS      1 00000040 FFFFFFEC A   U    5924 22434
 DSNFPDS       1 00000020 FFFFFFEC A   U    5939 24939  25173  25703  25710  27020  27025  30175  30482  31527  31976
                                                 32038  32196  32526  32555  33072  33316
 DSNFPROT      1 00000001 FFFFFFEC A   U    5944 24061  24189  24755  26753  26976  27385  28118  30074
 DSNFSCR       1 00000040 FFFFFFEC A   U    5938 23779  24058  24186  24451  24712  24811  24832  25882  26260  27009
                                                 28115  30175
 DSNFSHOW      1 00000008 FFFFFFEC A   U    5941 23999  24055  24123  24183  24564  25660  25703  26769  26920  27020
                                                 27025  27401  28112  30090  31941  32766
 DSNFSIMP      1 000000FF FFFFFFEC A   U    5936 23747  30047
 DSNFSML      64 00000F37 FFFFFFEC         5971 19343  19343  19344  27077  27884  27884
 DSNFSTD       1 00000080 FFFFFFEC A   U    5923 24836  27962
 DSNFVALO      1 00000002 FFFFFFEC A   U    5943 23779  24561  31225
 DSNFWLIB      1 00000020 FFFFFFEC A   U    5925 25253
 DSNFWRITE
              16 00000F3A FFFFFFEC         6116 21451M 22161  22181M
 DSNFWRT       1 00000080 FFFFFFEC A   U    5937 23779  24448  24709  24811  25767  25882  28174  30175  30243  30479
                                                 31047
 DSNNBLK       2 00000F3E FFFFFFEC     H    6127 25379M 25379  25404
 DSNNTRK       2 00000F3C FFFFFFEC     H    6126 25352  25391M 30149
 DSNON        40 00000E90 FFFFFFEC     C    5907  5908  24262M 26077M 26102M 26102  27830M 27830  27845M 27845  27894M
                                                 27921M 27921  27936M 27936  28004M 28029M 28029  28059M 28059  28074M
                                                 28074  28222M 28297M 28297
 DSNON6        6 00000E90 FFFFFFEC     X    5908 24148M 24148  24166  24263M 24270  26078M 26089M 26089  26293  26545
                                                 27278  27817  27895M 27908  28005M 28016M 28016  28046  28223M 28269M
                                                 28284M 28284  31498
 DSNWADSN     44 00000E5C FFFFFFEC     C    5894  5895   5896   5897   5906   5914   6145   6151   6153   6159   6162
                                                  6164   6167   6216  22442  22524  22725  22941  23882M 23890  27277
                                                 29283  29318
 DSNWAF1       1 00000F34 FFFFFFEC     R    5921 22436  26108M 27280
 DSNWAF2       1 00000F35 FFFFFFEC     R    5934 19321M
 DSNWAF4       1 00000F37 FFFFFFEC     R    5962  5966   5971   5976   5981   5986   5991   5996   6001
 DSNWAF5       1 00000F38 FFFFFFEC     R    6007  6011   6016   6021   6026   6031   6036   6041   6046
 DSNWAF6       1 00000F39 FFFFFFEC     R    6052  6056   6061   6066   6071   6076   6081   6086   6091
 DSNWAF7       1 00000F3A FFFFFFEC     R    6097  6101   6106   6111   6116
 DSNWAMBR      8 00000E88 FFFFFFEC     C    5905 26107M 26675  27279  28190  28204  29319
 DSNWANL       2 00000F06 FFFFFFEC     H    5915 22444  22523  23831M 23831  23889M 23889  23920M 24598  31951  32367
                                                 32599  33157  34515
 DSNXG         1 00000004 FFFFFFEC A   U    5899  5901  24852  27971
 DSNXGL        1 00000003 FFFFFFEC A   U    5900  5901
 DSNXU         1 00000007 FFFFFFEC A   U    5901  5903  24845  24851  27970
 DSNXUL        1 00000004 FFFFFFEC A   U    5902  5903
 DSORGPO       1 00000002 FFFFFFC0 A   U   18089 24935  25348  25707  25709  25860  26137  26398  27007  30199  31033
 DSORGPS       1 00000040 FFFFFFC0 A   U   18088 25418  25532  27011  27276
 DSSIZ         1 00000108 FFFFFFEC A   U    6145  6153   6162   6167
 DSTYPE        2 0000017A FFFFFFC0     C   15461 24876  25178  25325  26147  28506M 28506  28563M
 DSVID         6 0000034E FFFFFFC0     C   15594 15628  15670  15680  15719  18302  18331  18340  18398  19015  24270M
                                                 26078  26730M 27278M 28531  28796  29052  31984  34551  34556
 DS1BLKL       2 000009EE FFFFFFC0     X   17557 24953  24985  25146  25662  25683  32667
 DS1CREDT      3 000009CD FFFFFFC0     X   17438 32622
 DS1DSIND      1 000009F5 FFFFFFC0     X   17568 26415  32662
 DS1DSNAM     44 00000998 FFFFFFC0     C   17431 15548  15548  15560  15560  18996  18996  19000  19000  32600  32621
                                                 32909M
 DS1DSORG      2 000009EA FFFFFFC0     X   17474 24935  25707  26137  26400  27007  27011  32664
1DISK     (DISK4072) (12:42) (15MAR04) Ordinary Symbol and Literal Cross Reference                                          Page  177
 DS1END        1 00000A24 FFFFFFC0     U   17642 15548  15560  17644  18996  19000
 DS1EXPDT      3 000009D0 FFFFFFC0     X   17440 25217  25224M 25224  25576M 25576  25800  32623
 DS1EXT1      10 00000A01 FFFFFFC0     X   17622 31979  32696  32708  32725
 DS1EXT2      10 00000A0B FFFFFFC0     X   17638 32725
 DS1FMTID      1 000009C4 FFFFFFC0     C   17432 15629  15743  17644  18304  18405  32597
 DS1IND01      1 00000001 FFFFFFC0 A   U   17591 17592
 DS1IND02      1 00000002 FFFFFFC0 A   U   17587 17590
 DS1IND04      1 00000004 FFFFFFC0 A   U   17580 17586
 DS1IND10      1 00000010 FFFFFFC0 A   U   17575 17578
 DS1IND40      1 00000040 FFFFFFC0 A   U   17571 17572
 DS1KEYL       1 000009F2 FFFFFFC0     X   17566 25196  32668
 DS1LRECL      2 000009F0 FFFFFFC0     X   17559 24949  25000  25169  25680  32666
 DS1LSTAR      3 000009FA FFFFFFC0     X   17609 30547  32669
 DS1NOEPV      1 000009D3 FFFFFFC0     X   17442 32663  32684
 DS1OPTCD      1 000009ED FFFFFFC0     X   17517 24668
 DS1PTRDS      5 00000A1F FFFFFFC0     X   17640 15679  18065  18338  32272
 DS1RECFM      1 000009EC FFFFFFC0     X   17501 24951  24972  24981  24997  25087  25100  25116  25142  25144  25160
                                                 25671  25673  25675  25678  25686  26139  26409  32665
 DS1REFD       3 000009E3 FFFFFFC0     X   17451 32637  32651  32657
 DS1SIZE       1 00000060 FFFFFFC0 A   U   17644 17713
 DS1SYSCD     13 000009D6 FFFFFFC0     C   17450 17645
 DS1TRBAL      2 000009FD FFFFFFC0     X   17614 30546
 DS3ADEXT     90 000009C5 FFFFFFC0     X   17665 32757
 DS3EXTNT     40 0000099C FFFFFFC0     X   17663 32754
 DS3FMTID      1 000009C4 FFFFFFC0     C   17664 32730  32747  32751
 DS4DEVDT      1 0000073E FFFFFFC0     X   16145 32072  32570
 DS4DEVSZ      4 00000732 FFFFFFC0     X   16107 16108  30549M 31365M 32723
 DS4VTOCE     10 0000075D FFFFFFC0     X   16163 16184
 DS4VTOCI      1 0000072E FFFFFFC0     X   16064 32211  32801
 DS5AVEXT      5 0000099C FFFFFFC0     X   17678 17689
 DS5EXTAV     35 000009A1 FFFFFFC0     X   17683 17689
 DTSTEXIT      2 00001532 00000001     H   22970 22951B
 DVTAREA      24 000008B8 FFFFFFC0     X   16250 24905  25204  30514  31361  34019U
 DVTBLKO       1 000008C6 FFFFFFC0     X   16228 34095  34142  34167
 DVTDEVCD      4 000008B8 FFFFFFC0     F   16197 16199  16203  16212  31364
 DVTFLAG       1 000008C9 FFFFFFC0     X   16233 34084  34154  34201
 DVTFMOD       1 00000010 FFFFFFC0 A   U   16234 34082
 DVTFOHD       1 00000008 FFFFFFC0 A   U   16235 34152
 DVTFTOL       1 00000001 FFFFFFC0 A   U   16236 34199
 DVTKEYO       1 000008C8 FFFFFFC0     X   16231 34179
 DVTLBLKO      1 000008C7 FFFFFFC0     X   16229 34135
 DVTMODN       1 000008C8 FFFFFFC0     X   16232 34101
 DVTMODO       2 000008CA FFFFFFC0     H   16238 34109
 DVTMV         6 00004094 00000001     I   33400 33387X
 DVTNUMT       2 000008C2 FFFFFFC0     H   16225 24776  30549  31365  32067
 DVTOBTOK      2 000038FA 00000001     H   32065 32055B 32057B
 DVTOC         4 000037DC 00000001     I   31911 27212
 DVTOC2        4 000037E0 00000001     I   31913 27219  30915
 DVTTOL        2 000008CA FFFFFFC0     H   16237 34214
 DVTTRKSZ      2 000008C4 FFFFFFC0     H   16227 30577  30596  34072
 DVTUTYPE      1 000008BB FFFFFFC0     X   16212 34038
 DW            2 00003468 00000001     H   31110 31019B
 DWAIT         4 000033B8 00000001     I   30985 29622B 29919B
 DWLINE      512 00000000 FFFFFFBE     X   21383 21479M 21491
 DWNB          4 00003412 00000001     I   31061 31030B 31032B 31034B
 DWRITE        2 00002E7A 00000001     H   29743 23235  29739
 DWTEXIT       2 00003446 00000001     I   31092 31057B
 DWTXW         4 00003440 00000001     I   31088 31099B
 DWWA        512 00000000 FFFFFFBE     J   21390 21413  21442U 21521  21523  21524
1DISK     (DISK4072) (12:42) (15MAR04) Ordinary Symbol and Literal Cross Reference                                          Page  178
 DYNALLOC      1 00000000 0000002E     T   31418 31418
 EBCTBL        1 00000000 00000000 A   T    2255  2255
 EBCTBL7       1 00000000 00000000 A   T    2258  2258
 ECBLIST       1 00000000 00000000 A   T    2118  2118
 EDITCK        1 00000000 00000010     T   21331 21331
 ENCODE        4 00001224 00000001     I   22062 23234
 ENDCCW        8 00000238 FFFFFFC0     W   15551 15540  15600  15601  18285  18288  18992
 ENDCCW1       8 00000208 FFFFFFC0     W   15538 15526  18987  31950M 31957M 31959M 31964M
 ENDCCW2       8 00000220 FFFFFFC0     W   15544 15546  18995
 ENDCHK        6 00003AB8 00000001     I   32551 32500B
 ENDTEST       5 000008B0 FFFFFFC0     X   16193 15522  15544  18985  18994  32071M 32072M
 ENQDSN        1 0000043C FFFFFFC0     U   15725 18397M 23775M 23778M 23781M 26822M 26823  27453M 27454M 27458  27516
                                                 30647M 30648  33323M 33324
 ENQDSNM      12 000005D4 00000001     U   19028 18397  18397
 ENQDSN1       1 000005D4 00000001     U   19020 19028  19028
 ENQSHARE      1 000000C3 00000001 A   U   27188 23781  27516
 ENQVOL        1 00000424 FFFFFFC0     U   15712 18396M 18399M 26781  27412  30107
 ENQVOLM      12 000005C8 00000001     U   19016 18396  18396
 ENQVOL1       1 000005C8 00000001     U   19008 19016  19016
 ENQXDSN       4 00001628 00000001     F   23220 22443M 22734M 23138M
 ENQXLEN       1 00001621 00000001     X   23219 22444M 22735M 23139M
 ENQXPARM      1 00001620 00000001     U   23211 22423M 22449M 22450  22732M 22741M 22742  23136M 23145M 23146  23219
                                                 23220
 ENTL          1 0000002C FFFFFFEC A   U    6249 23269
 EODAD         4 00003454 00000001     I   31098 27613
 EOV           1 00000000 00000018     T   23239 23239
 EPARTBL       1 00000000 00000000 A   T    2250  2250
 ERR           4 0000263A 00000001     I   26923 24021B 24112B 24257B 24269B 24309B 24366B 24415B 26709B 26720B 26726B
                                                 26732B 26735B 26861B 26868B
 ERRMSG        8 000044CE 00000001     C   34613 34383  34384  34624
 ERROR         4 0000036C FFFFFFC0     F   15604 15605  23966M 24010  24012  24014  24016M 25616M 25617M 25618  25620
                                                 25622  25879M 25880  25886  26005  26047M 26047  26048M 26070  26243M
                                                 26244M 26357  26522M 26523M 26954M 26955M 26956  26958  30060M 30060
                                                 30465M 30678M 30683  30687M 30704M 30710  34354  34422  34456M 34457M
                                                 34458  34468
 ERR1          4 0000264C 00000001     I   26930 26924B
 EXCP          2 00003A68 00000001     H   32475 32549B
 EXISTS        4 000025FC 00000001     I   26894 24929B 25183B 25619B 25992  26515B
 EXIT4         1 00000000 00000027     T   27232 27232
 EXIT5         1 00000000 0000002F     T   33716 33716
 EXLST         4 0000018C FFFFFFC0     F   15472 15840  18227M 18228M 18384  25632M 25633M 27271  27324M 27324
 EXPDATE       4 000025C4 00000001     I   26873 25801B
 EXTCLOSE      1 00000000 00000015     T   21341 21341
 FINDMEMB      4 00002222 00000001     I   26005 25884B
 FIXBLOCK      1 00000090 FFFFFFC0 A   U   18091 24945  24999  25267
 FLAGS         5 0000016B FFFFFFC0     C   15449 15450  15451  15452  15453  15454  26108  27280M
 FMBRANCH      1 00000000 00000000 A   T    9510  9510
 FMT3ERR       2 00003C4C 00000001     I   32744 32752B
 FMT3SEC2      4 00003C6E 00000001     I   32757 32731B
 FOURMODL      4 000047E8 00000029     F   27646 19044  27660  27667  30901
 FOURS         4 000004F0 FFFFFFC0     F   15826 18382M 18383  27270M 27273M 31944  32007  32092  32106  32148  32249
 FOURSIZ       1 00000034 00000029 A   U   27667 18382  27270
 FREECORE      1 00000000 0000001B     T   23247 23247
 FREERSC       1 00000000 0000002C     T   30923 30923
 FSR           0 00000000 00000001 A   #    1055 19472  19549M 19593M 19660  20488M 20511  20573M 20593  20655M 20675
                                                 20737M 20757  20819M 20839  20907M 20927  20994M 21109  21168M 21170M
                                                 21186M 21206  21286M 21288M 21304M 21410  21521M 22395  22583M 22617
                                                 22799M 22833  22982M 23012  23199M 27774  28327M 28360  28475M 30751
                                                 30884M
1DISK     (DISK4072) (12:42) (15MAR04) Ordinary Symbol and Literal Cross Reference                                          Page  179
 FSTCTBLK      4 00003E92 00000001     I   33199 33159B
 F1            1 0000016B FFFFFFC0     X   15450 24836  25253  26108  27964
 F2            1 0000016C FFFFFFC0     X   15451 23747  23779  23985  24001  24063  24100  24128  24191  24228  24286
                                                 24329  24456  24561  24564  24690  24714  24757  24811  24823  24832
                                                 24926  24939M 25173  25240  25307  25342  25660  25703  25710M 25724
                                                 25767  25779  25833  25882  26119  26262  26755  26771  26920  26978
                                                 27009  27016  27020  27025  27387  27403  28101  28120  28148  28176
                                                 28979  30047  30076  30092  30143  30175  30243  30484  31047M 31225
                                                 31529  31941  31976  32005  32038  32198  32528  32555  32766  33031
                                                 33074  33104  33114  33289  33316
 F3            1 0000016D FFFFFFC0     X   15452 25140  25798  33888M
 F4            1 0000016E FFFFFFC0     X   15453 23811  24081  24209  24468  24645  24735  24802  25851  26811  26996
                                                 27290  27490M 28132  30190  30636  31510
 F5            1 0000016F FFFFFFC0     X   15454 24358  24397M 24592M 27311  27447  31996  32782  33300
 GETCATF       4 000036D8 00000001     I   31597 31760B
 GETCORE       1 00000000 0000001A     T   23244 23244
 GETRSC        1 00000000 0000001C     T   23691 23691
 GETVEXIT      2 00002AD2 00000001     I   28312 27848B 27939B 28077B 28158B 28212B
 GETVOL        2 0000295E 00000001     H   27765 27207
 GLBRANCH      1 00000000 00000000 A   T    9416  9416
 GMBRANCH      1 00000000 00000000 A   T    9512  9512
 GOCLRNW       2 00000CDC 00000001     H   20918 21326
 GOONNOW       2 00001140 00000001     I   21832 21742B 21755B
 GOTFIXD       2 000009CE 00000001     I   20138 20068B
 GUNPRSS       4 000010D0 00000001     I   21699 21695B
 GUNPR1        4 00001122 00000001     I   21805 21786B
 GUNPR2        4 0000112A 00000001     I   21808 21783B
 GUNPR3        4 00001132 00000001     I   21810 21806B
 GVT           1 00000000 00000000 A   T    9278  9278
 HAVEC         4 00003EA8 00000001     I   33207 33105B
 HAVECAT       2 00001974 00000001     H   24116 23960B 24013B
 HAVEENQ       2 00001886 00000001     H   23785 23780B
 HAVEMBR       4 00003DEA 00000001     I   33104 33099B
 HAVRECSZ      4 000020A8 00000001     I   25686 25682B
 HIBAL         1 00000000 FFFFFFFF     J     692   708    721    734    747    760    773    786    799    812    825
                                                   838    851    864    877    890    903
 HVLXNMB       2 00000E18 00000001     H   21100 21033
 HVLXNMB1      2 00000E7A 00000001     H   21197 21079
 HVLXNX        2 00000E60 00000001     H   21166 21138B
 HVLXNX2       2 00000ED0 00000001     H   21284 21256B
 IARMPVT       1 00000000 00000000 A   T    9153  9153
 IARMRRCE      1 00000000 00000000 A   T    9698  9698
 IARPIBR       1 00000000 00000000 A   T    9668  9668
 IARPSIV       1 00000000 00000000 A   T    9492  9492
 IARPSXM       1 00000000 00000000 A   T    9641  9641
 IARXKEY       1 00000000 00000000 A   T    9599  9599
 IARXVIO       1 00000000 00000000 A   T    9493  9493
 ICAGEN        2 000008A6 00000001     H   19835 19865B
 ICHELST       4 00000DE8 FFFFFFC0     F   17770 17868  17868
 ICHSETP       2 00000E10 FFFFFFC0     H   17822 17816
 ICHSETPD      2 00000E24 FFFFFFC0     H   17846 17819
 ICV1418E      1 00000B50 FFFFFFC0     U   18071 18052
 ICYMMVTC      1 00000000 00000000 A   T    9924  9924
 ID            8 000001D8 FFFFFFC0     W   15522 15520  15532  15598  18279  18984  18989
 IDA121CV      1 00000000 00000000 A   T    9431  9431
 IDMASK        1 00000169 FFFFFFC0     C   15441 18196M
 IEABEND       1 00000000 00000000 A   T    9015  9015
 IEADQIQE      1 00000000 00000000 A   T    9411  9411
 IEAECVT       1 00000000 00000000 A   T    8940  8940
1DISK     (DISK4072) (12:42) (15MAR04) Ordinary Symbol and Literal Cross Reference                                          Page  180
 IEAGSMQ       1 00000000 00000000 A   T    9388  9388
 IEAIHASU      1 00000000 00000000 A   T    9628  9628
 IEALSMQ       1 00000000 00000000 A   T    9390  9390
 IEAMASCB      1 00000000 00000000 A   T    9358  9358   9362
 IEAPATCH      1 00000000 00000000 A   T    9023  9023
 IEAPDSRT      1 00000000 00000000 A   T    9286  9286
 IEAPTRV       1 00000000 00000000 A   T    9102  9102
 IEAQCDSR      1 00000000 00000000 A   T    9006  9006
 IEAQCS01      1 00000000 00000000 A   T    9398  9398
 IEAQLPAQ      1 00000000 00000000 A   T    9007  9007
 IEAQTD00      1 00000000 00000000 A   T    8903  8903
 IEAQTE00      1 00000000 00000000 A   T    8901  8901
 IEARPOST      1 00000000 00000000 A   T    9413  9413
 IEASMFEX      1 00000000 00000000 A   T    9290  9290
 IEASMFSP      1 00000000 00000000 A   T    9636  9636
 IEASPOST      1 00000000 00000000 A   T    9433  9433
 IEASVDCB      1 00000000 00000000 A   T    8894  8894
 IEATCBP       1 00000000 00000000 A   T    8844  8844
 IEATPC        1 00000000 00000000 A   T    8896  8896
 IEATRSCN      1 00000000 00000000 A   T    9254  9254
 IEAVAR02      1 00000000 00000000 A   T    9338  9338
 IEAVBLDP      1 00000000 00000000 A   T    9322  9322
 IEAVDELP      1 00000000 00000000 A   T    9325  9325
 IEAVEAC0      1 00000000 00000000 A   T    9415  9415
 IEAVEADV      1 00000000 00000000 A   T    9573  9573
 IEAVEDR1      1 00000000 00000000 A   T    9458  9458
 IEAVELRM      1 00000000 00000000 A   T    9407  9407
 IEAVENLU      1 00000000 00000000 A   T    9754  9754
 IEAVENQ2      1 00000000 00000000 A   T    9404  9404
 IEAVEQV1      1 00000000 00000000 A   T    9561  9561
 IEAVEQV2      1 00000000 00000000 A   T    9564  9564
 IEAVEQV3      1 00000000 00000000 A   T    9567  9567
 IEAVERI1      1 00000000 00000000 A   T    9460  9460
 IEAVERP1      1 00000000 00000000 A   T    9462  9462
 IEAVERX1      1 00000000 00000000 A   T    9650  9650
 IEAVESC1      1 00000000 00000000 A   T    9589  9589
 IEAVESPR      1 00000000 00000000 A   T    9518  9518
 IEAVESTU      1 00000000 00000000 A   T    9752  9752
 IEAVESVT      1 00000000 00000000 A   T    9524  9524
 IEAVET6E      1 00000000 00000000 A   T    9624  9624
 IEAVEVT2      1 00000000 00000000 A   T    9578  9578
 IEAVEXPR      1 00000000 00000000 A   T    9386  9386
 IEAVEXP1      1 00000000 00000000 A   T    9555  9555
 IEAVFRCL      1 00000000 00000000 A   T    9324  9324
 IEAVGSDA      1 00000000 00000000 A   T    9569  9569
 IEAVGTCL      1 00000000 00000000 A   T    9323  9323
 IEAVGWSA      1 00000000 00000000 A   T    9418  9418
 IEAVLKRM      1 00000000 00000000 A   T    9125  9125
 IEAVMFRM      1 00000000 00000000 A   T    9503  9503
 IEAVMSGS      1 00000000 00000000 A   T    9072  9072
 IEAVNVT0      1 00000000 00000000 A   T    9737  9737
 IEAVRSUH      1 00000000 00000000 A   T    9616  9616
 IEAVRT03      1 00000000 00000000 A   T    9230  9230
 IEAVSPND      1 00000000 00000000 A   T    9626  9626
 IEAVSTAG      1 00000000 00000000 A   T    9366  9366
 IEAVTCTL      1 00000000 00000000 A   T    9618  9618
 IEAVTEST      1 00000000 00000000 A   T    9129  9129
 IEAVTRGR      1 00000000 00000000 A   T    9426  9426
 IEAVTRG1      1 00000000 00000000 A   T    8875  8875
1DISK     (DISK4072) (12:42) (15MAR04) Ordinary Symbol and Literal Cross Reference                                          Page  181
 IEAVTRV3      1 00000000 00000000 A   T    9122  9122
 IEAVTSBP      1 00000000 00000000 A   T    9372  9372
 IEAVTSFR      1 00000000 00000000 A   T    9093  9093
 IEAVTSGL      1 00000000 00000000 A   T    9370  9370
 IEAVVMSR      1 00000000 00000000 A   T    9151  9151
 IEAVWAIT      1 00000000 00000000 A   T    9393  9393
 IEAVWSAC      1 00000000 00000000 A   T    9424  9424
 IEAVWSAG      1 00000000 00000000 A   T    9422  9422
 IEAVWSAL      1 00000000 00000000 A   T    9420  9420
 IEAVXEXT      1 00000000 00000000 A   T    9501  9501
 IEAVXSFT      1 00000000 00000000 A   T    9468  9468
 IEAVXSTN      1 00000000 00000000 A   T    9474  9474
 IEAVXSTS      1 00000000 00000000 A   T    9472  9472
 IEAVXUNN      1 00000000 00000000 A   T    9497  9497
 IEAVXUNS      1 00000000 00000000 A   T    9476  9476
 IEAWTCB       1 00000000 00000000 A   T    9533  9533
 IEA0DS        1 00000000 00000000 A   T    8939  8939
 IEA0EF00      1 00000000 00000000 A   T    8845  8845
 IEA0EF01      1 00000000 00000000 A   T    8885  8885
 IEA0PT0E      1 00000000 00000000 A   T    9605  9605
 IEA0PT01      1 00000000 00000000 A   T    8946  8946
 IEA0PT02      1 00000000 00000000 A   T    9530  9530
 IEA0PT03      1 00000000 00000000 A   T    9607  9607
 IEA0VL00      1 00000000 00000000 A   T    8856  8856
 IEA0VL01      1 00000000 00000000 A   T    9263  9263
 IECIXAVL      1 00000000 00000000 A   T    8931  8931
 IECPCNVT      1 00000000 00000000 A   T    8859  8859
 IECPRLTV      1 00000000 00000000 A   T    8863  8863
 IECSDSL1      1 00000998 FFFFFFC0     U   17429 17430  17651  17672
 IECSDSL3      1 00000998 FFFFFFC0     U   17654 15681  17655  18342
 IECSDSL4      1 00000720 FFFFFFC0     U   16054 16055
 IECSDSL5      1 00000998 FFFFFFC0     U   17675 17676
 IECVEXCL      1 00000000 00000000 A   T    9495  9495
 IECXAPG       1 00000000 00000000 A   T    8854  8854
 IECXITP       1 00000000 00000000 A   T    8884  8884
 IECXTLER      1 00000000 00000000 A   T    8870  8870
 IEC0SCR1      1 00000000 00000000 A   T    9029  9029
 IEECUCB       1 00000000 00000000 A   T    8900  8900
 IEEMSER       1 00000000 00000000 A   T    8878  8878   8944
 IEEVEXSN      1 00000000 00000000 A   T    9233  9233
 IEEVSTOP      1 00000000 00000000 A   T    9543  9543
 IEFAQTOP      1 00000000 00000000 A   T    9350  9350
 IEFAUSDM      1 00000000 00000000 A   T    8850  8850
 IEFENFDM      1 00000000 00000000 A   T    9009  9009
 IEFJESCT      1 00000000 00000000 A   T    9109  9109
 IEFLINK       1 00000000 00000000 A   T    8847  8847
 IEFQMWR       1 00000000 00000000 A   T    8960  8960
 IEWFBOSV      1 00000000 00000000 A   T    8937  8937
 IEWMSEPT      1 00000000 00000000 A   T    9442  9442
 IFBDCB        1 00000000 00000000 A   T    8926  8926
 IFDOLT0A      1 00000000 00000000 A   T    9288  9288
 IFGDEBVR      1 00000000 00000000 A   T    9919  9919
 IGC043BR      1 00000000 00000000 A   T    9334  9334
 IGC044R2      1 00000000 00000000 A   T    9444  9444
 IGC062R1      1 00000000 00000000 A   T    9414  9414
 IGC07903      1 00000000 00000000 A   T    9559  9559
 IGC124        1 00000000 00000000 A   T    9575  9575
 IGFRVT        1 00000000 00000000 A   T    9024  9024
 IGVCPBDB      1 00000000 00000000 A   T    9690  9690
1DISK     (DISK4072) (12:42) (15MAR04) Ordinary Symbol and Literal Cross Reference                                          Page  182
 IGVCPDLB      1 00000000 00000000 A   T    9692  9692
 IGVCPFRE      1 00000000 00000000 A   T    9682  9682
 IGVCPGTC      1 00000000 00000000 A   T    9680  9680
 IGVCPGUB      1 00000000 00000000 A   T    9674  9674
 IGVCPGUP      1 00000000 00000000 A   T    9677  9677
 IGVCPGUS      1 00000000 00000000 A   T    9700  9700
 IGVGCAS       1 00000000 00000000 A   T    9328  9328
 IGVGFAS       1 00000000 00000000 A   T    9332  9332
 IGVGRRGN      1 00000000 00000000 A   T    9704  9704
 IGVGVRGN      1 00000000 00000000 A   T    9706  9706
 IGVQSPET      1 00000000 00000000 A   T    9330  9330
 IGVSLIST      1 00000000 00000000 A   T    9684  9684
 IGVSLOC       1 00000000 00000000 A   T    9688  9688
 IGVSREGN      1 00000000 00000000 A   T    9686  9686
 IGVSTSKI      1 00000000 00000000 A   T    9671  9671
 IHADCB        1 00000000 FFFFFFE5     J    6854  6934   6971   6999   7029   7059   7141   7200   7250   7325   7452
                                                  7457   7472   7478   7487   7587   7590   7595   7620   7638   7639
                                                  7643   7679   7680  18373U 24422M 24670M 25171M 25172M 25709M 25713M
                                                 25730M 25808M 25821  25860  26000  27272M 27273M 27275M 27276M 29545
                                                 30131U 30451M 30568U 31031  31033  31037M 31044  31082  32015U 32158U
                                                 32244U
 IHB1265C      1 00000E04 FFFFFFC0     U   17801 17788
 IHB1328C      1 00000E04 FFFFFFC0     U   17902 17889
 IHB1357C      1 00000E04 FFFFFFC0     U   17948 17935
 IHB1386C      1 00000E04 FFFFFFC0     U   17994 17981
 IHB9443       1 000041A4 00000001     U   33669 33679M
 ILLBLKSZ      4 00002622 00000001     I   26915 25664B 25685B
 ILLCAT        4 0000262E 00000001     I   26919 24015B
 ILLCATRF      4 00002526 00000001     I   26734 26921B
 ILLMEMB       4 000025DC 00000001     I   26882 26006  26356  27043B 27057B
 ILLORG        4 0000260C 00000001     I   26900 25676B 25679B 27012B 27021B
 ILLVOLND      4 0000251E 00000001     I   26731 24531B
 ILRJTERM      1 00000000 00000000 A   T    9613  9613
 INITDONE      2 0000049E 00000001     I   18931 18884B
 INVALID       1 00000000 00000000 A   T    2245  2245
 INVARDS       2 00000C64 00000001     H   20748 21330
 INXVFLG       1 00000ADC FFFFFFC0     R   18038 18042
 INXVTOC     128 00000ADC FFFFFFC0        18042 32181M 32229  32281M
 IOABEND       2 000046C8 00000001     I   34958 33697B
 IOB           8 00000198 FFFFFFC0     D   15479 18230M 32494  32589
 IOBCSW        4 000001A0 FFFFFFC0     F   15483 15484  15485  15486  32551  32553  32810
 IOBDCB        4 000001AC FFFFFFC0     A   15488 31945M
 IOBECB        4 0000019C FFFFFFC0     A   15482 31947M
 IOBSNS        2 0000019A FFFFFFC0     H   15481 32501
 IOBSTART      4 000001A8 FFFFFFC0     F   15487 32471M 32586M
 IOLOADLP      2 0000004A 00000001     H   18149 18441B
 IOSVDEVN      1 00000000 00000000 A   T    9630  9630
 IOSVHID       1 00000000 00000000 A   T    9640  9640
 IOSVSUCB      1 00000000 00000000 A   T    9643  9643
 IOWA          1 00000000 FFFFFFC0     J   15377 18010  18172U 18469U 18673U 18982  18983  18984  18985  18986  18987
                                                 18988  18989  18990  18991  18992  18993  18994  18995  18996  18997
                                                 18998  18999  19000  19001  19002  19015  19213U 20215  23680U 29166U
                                                 29501U 29787U 30002U 33799  34295U 34680U 34902U
 IOWAGLEN      1 00008718 FFFFFFC0 A   U   18010 18100  19039
 IOWALEN       4 00000454 FFFFFFC0     F   15738 30796  30808M 30808
 IOWALOC       4 00000450 FFFFFFC0     A   15737 30789  30803M 30803
 IOWAR         6 00000006 00000001 A   #    1081 18147M 18147  18156M 18172U 18177  18242  18417  18446  18469U 18665M
                                                 18673U 22139M 22140M 22140  23671M 23672  23680U 29166U 29492M 29501U
                                                 29778M 29787U 29972M 29973M 29973  30002U 31940M 33550M 33679  33799M
1DISK     (DISK4072) (12:42) (15MAR04) Ordinary Symbol and Literal Cross Reference                                          Page  183
                                                 34295U 34672M 34680U 34902U
 IOWASIZE      4 00000018 00000001     A   18100 18099
 IOWRSG        1 00000000 00000002     T   19038 19038  19278
 IRARMCNS      1 00000000 00000000 A   T    9384  9384
 IRARMEPS      1 00000000 00000000 A   T    9602  9602
 IRARMI00      1 00000000 00000000 A   T    9341  9341
 ISNBRNCH      1 00000000 00000000 A   T    9499  9499
 IWA$ECB       4 0000000C FFFFFFC0     A   15397 18189M
 IWA@JCB       4 00000008 FFFFFFC0     A   15396 29514  29800  30018  33488
 IWAFLAGS      1 00000014 FFFFFFC0     R   15402 15406  15411  15416
 IWA1@ECB     64 00000014 FFFFFFC0        15411 18195M
 IWA1ACTV    128 00000014 FFFFFFC0        15406 31114M 33413M 33507M
 I10005        4 00004600 00000001     I   34824 34821B
 JCB         208 00000000 FFFFFFE9     J    6680 29531U 29817U 30356U 31124U 31938U
 JCBAFL        1 00000062 FFFFFFE9     R    6525  6529   6534   6539   6544   6549   6554   6559   6564
 JCBBFL        1 00000063 FFFFFFE9     R    6570  6574   6579   6584   6589   6594   6599   6604
 JCBBILLX      8 00000088 FFFFFFE9     D    6655  6663   6663
 JCBFATTN      2 00000062 FFFFFFE9         6559 32456  32483
 JCBR          5 00000005 00000001 A   #    1068 29506M 29514  29531U 29792M 29800  29817U 30005M 30018  31115M 31124U
                                                 31930M 31938U 33485M 33488
 JCBRSCF1      1 00000064 FFFFFFE9     R    6610  6614   6619   6624
 JCBSFLG1      1 00000065 FFFFFFE9     R    6630  6634   6639
 JCBTEMP       4 000000B0 FFFFFFE9     F    6669 30362
 JCBUCEP       4 00000070 FFFFFFE9     A    6647 29579  29876
 JCBWFD       32 00000060 FFFFFFE9         6468 31137M 33421M 33515M
 JCBWFL        1 00000060 FFFFFFE9     R    6454  6458   6463   6468   6473   6478   6483   6488   6493   6521
 JCBWIO        4 00000080 FFFFFFE9     F    6652 29575  29576M 29872  29873M
 JCBWWFL       1 00000061 FFFFFFE9     R    6499  6503   6508   6513   6518
 JESCT         1 00000000 FFFFFFC4     J   15095 15280  18520
 JESEDT        4 00000034 FFFFFFC4     A   15128 18520
 JFCB          8 000008D8 FFFFFFC0     D   16258 15476  18226  25562  29168  29169M 29169  29170  29171  29172  29174
                                                 29175  29177
 JFCBAVR       1 00000040 FFFFFFC0 A   U   17327 25533
 JFCBCRDT      3 00000928 FFFFFFC0     C   16864 25540M
 JFCBCTRI      1 00000973 FFFFFFC0     B   17323 25349M 25533M
 JFCBDQTY      3 00000978 FFFFFFC0     C   17360 25503M
 JFCBDRLH      3 00000983 FFFFFFC0     C   17395 25534M
 JFCBDSCB      3 0000090D FFFFFFC0     C   16687 24788M
 JFCBDSNM     44 000008D8 FFFFFFC0     C   16657 25219M 25539M 25702M 32100M
 JFCBELNM      8 00000904 FFFFFFC0     C   16663 29170M 29170
 JFCBIND1      1 0000092E FFFFFFC0     B   16881 25531M
 JFCBIND2      1 0000092F FFFFFFC0     B   16894 29173M
 JFCBLGTH      1 000000B0 FFFFFFC0 A   U   17409 17704  29168  29169
 JFCBLKSI      2 0000093E FFFFFFC0     H   17149 25501M 25501  25538M
 JFCBLTYP      1 0000091A FFFFFFC0     B   16765 29171M 29171
 JFCBNVOL      1 0000094D FFFFFFC0     X   17299 29174M 29174
 JFCBPQTY      3 00000970 FFFFFFC0     C   17314 25397M 25442  25520M
 JFCBSAVE    176 00000C94 FFFFFFC0     C   17704 29168M 29170  29171  29172  29174  29175  29177
 JFCBSQTY      3 00000974 FFFFFFC0     C   17337 25401M 25524M
 JFCBTRK       1 00000080 FFFFFFC0 A   U   17326 25349
 JFCBVLCT      1 00000986 FFFFFFC0     X   17398 29177M 29177
 JFCBVLSQ      2 0000091E FFFFFFC0     H   16813 29172M 29172
 JFCBVOLS     30 0000094E FFFFFFC0     C   17301 29175M 29175  29176M
 JFCBXPDT      3 0000092B FFFFFFC0     C   16872 25547M 25547
 JFCDSORG      2 0000093A FFFFFFC0     B   17044 25348M 25418M 25532M 25730
 JFCLRECL      2 00000940 FFFFFFC0     H   17156 25496M 25496  25537M
 JFCOLD        1 00000040 FFFFFFC0 A   U   16898 29173
 JFCRECFM      1 0000093C FFFFFFC0     B   17071 25491M 25536M 25741
 JFCRESRV      4 00000944 FFFFFFC0     B   17218 17255
1DISK     (DISK4072) (12:42) (15MAR04) Ordinary Symbol and Literal Cross Reference                                          Page  184
 JFCRLSE       1 000000C0 FFFFFFC0 A   U   16882 25529
 KEY           8 000001F0 FFFFFFC0     W   15530 15524  18986  31949M 31956M 31958M 31963M
 KWIO          1 00000000 00000023     T   27217 27217  30903
 KWR         504 00000524 FFFFFFC0     X   16036 24861  27086  27979  31876
 KWRCRD        1 00000040 FFFFFFC0 A   U   16042 24862  27980
 KWRDSTRT      1 00000529 FFFFFFC0     U   15860 16022  16022
 KWRGRP        2 00000527 FFFFFFC0     C   15857 24852M 24879M 27971M
 KWRIFL        1 00000532 FFFFFFC0     X   15866 24871  25629  27325M 27995
 KWRIFVAL      1 00000080 FFFFFFC0 A   U   15867 24871  25629  27993
 KWRSPMAX      2 00000530 FFFFFFC0     H   15864 24853
 KWRSPUSD      2 0000052E FFFFFFC0     H   15863 24853  24853M 24853
 KWRSTART      4 00000524 FFFFFFC0     F   15855 16036  16036  16037
 KWRUSER       3 00000524 FFFFFFC0     C   15856 15858  15858  24845  24851M 24878M 27332M 27332  27970M
 KWRVOL        6 000005B0 FFFFFFC0     X   15992 28005
 KWYL          4 000042C0 00000001     C   33899 18474  33884  33884
 LASTCCW       3 0000035C FFFFFFC0     R   15600 18287M 32551
 LASTCCW1      3 0000035F FFFFFFC0     R   15601 18290M 32553  32810
 LASTLINE      1 00000000 00000016     T   21342 21342
 LENZERO       2 00000A3A 00000001     I   20237 20217B
 LOADEM        4 000008F4 00000001     I   19917 19710B 19886B
 LOCATTR       4 00003E7A 00000001     I   33186 33201B
 LOCKOUT       2 00002614 00000001     H   26906 24620B
 LOGDS         4 00002D0A 00000001     I   29237 27199
 LOGDSXIT      2 00002D8C 00000001     I   29407 29266B 29286B
 LOWTBL        1 00000000 00000000 A   T    2253  2253
 LRECSIZE      4 00000368 FFFFFFC0     F   15603 25008M 25323M 25537
 LSR           8 00000008 00000001 A   #    1119 19472  19593M 19660  20488M 20511  20573M 20593  20655M 20675  20737M
                                                 20757  20819M 20839  20907M 20927  20994M 21109  21186M 21206  21304M
                                                 21410  21521M 22395  22583M 22617  22799M 22833  22982M 23012  23199M
                                                 27774  28327M 28360  28475M 29456  29731M 29752  29944M 30751  30884M
 LXCATE        2 000007EA 00000001     H   19650 21322
 LXCATEWA      4 00000000 FFFFFFBF     J   19642 19663  19692U 20488  20490  20491
 LXERRB        2 00000BE4 00000001     H   20584 21334
 LXERRC        2 00000BA4 00000001     H   20502 21018  21048  21064  21094  21336
 LXEXIT        2 00000B96 00000001     H   20468 20063B 20066B
 LXLNOPTR      4 00000000 FFFFFFBF     F   19635 19697M 20030  20208
 LXNMPRT       4 00000D28 00000001     F   21006 21337
 LXNMPRT2      4 00000DA0 00000001     F   21052 21339
 MALL          1 00000000 00000007     T   21047 21047  21093
 MAXERR        1 00000009 00000001 A   N   34624 34999
 MEMBER        8 000002F8 FFFFFFC0     C   15577 15582  15587  25184  25189M 25189  25221M 25249  25251  25329M 25329
                                                 25705  26107  26135  26156M 26362  26925  27005  27018  27040  27054
                                                 27279M 30231  30266  30401
 MILERR        1 00000000 00000000 A   T    2244  2244
 MINT          1 00000000 00000008     T   21078 21078
 MLNO          1 00000000 00000006     T   21032 21032
 MNULL         1 00000000 00000005     T   21017 21017  21063
 MODELDCB      4 00004790 00000029     F   27601 19043  27637  30900
 MODLENQ      12 00002740 00000001     X   27186 22423  22732  23136  23243  23775  27200
 MODLENQX      1 00002740 00000001     U   27178 27186  27186
 MT            1 00000080 FFFFFFC0 A   U   15495 15522  15530  15534  15564  18985  18988  18990  19001  31949  31950
                                                 31956  31957
 MULTSECT      2 00003BF6 00000001     I   32713 32710B
 MUSTXST       2 00002666 00000001     I   26949 24721B 24742B 24914B
 NBLTBL        1 00000000 00000000 A   T    2257  2257
 NDFIL         4 00000988 00000001     I   20065 19719B
 NDSKERH       4 000011D0 00000001     I   21969 21961B
 NDSKERJ       4 0000083C 00000001     I   19745 19720B
 NEWCYL        2 00003AA2 00000001     H   32542 32502B
1DISK     (DISK4072) (12:42) (15MAR04) Ordinary Symbol and Literal Cross Reference                                          Page  185
 NEWDSNAM     44 000002C8 FFFFFFC0     C   15572 15700  18273M 18355  26630  26675M 26676M 26685  27297M
 NOACCESS      4 000025A8 00000001     I   26863 26494B
 NOACTION      1 00000000 00000000 A   T    2247  2247
 NOALLOC       4 00002CA2 00000001     I   29096 28966B 28982B
 NOBLDL        2 0000226E 00000001     H   26036 24760B 25744B 25836B 25861B 25998B 26001B
 NOCATSCH      6 000019D8 00000001     I   24270 23814B
 NODIRSPC      4 000025E4 00000001     I   26885 26002
 NOEMSG        2 00000CA4 00000001     H   20830 21332
 NOGGODY       2 00000C24 00000001     H   20666 21329
 NOPIC         1 00000003 FFFFFFC0 A   U   15508 15542  15551  18993  18997
 NORETRY       2 00004610 00000001     H   34835 34753B 34776B
 NORMVOL       4 00000454 00000001     U   18910 18897M
 NORMWTO       4 00000434 00000001     F   18906 18896  18910
 NOROOM        4 00002604 00000001     I   26897 25621B 25623B
 NOSUCH        4 000025F4 00000001     I   26891 25252B 25254B 25761  26219B 26473B 26957B
 NOTAVAIL      4 00003632 00000001     I   31384 31228B 31348B
 NOTEDT        4 00000990 00000001     I   20068 19925B
 NOTEDT1       4 000009DC 00000001     I   20144 20136B 20141B
 NOTEQ         4 00000966 00000001     I   20035 20033B 20243B
 NOTLOC        4 000018FE 00000001     I   23948 23834B
 NOTOPEN       2 000033A6 00000001     I   30941 29517B 29803B
 NOTPDS        4 000025EC 00000001     I   26888 25185B 26403B 27019B
 NOVOL         4 00003642 00000001     I   31390 31341B 31368B
 NOVOLACS      4 00002C9A 00000001     I   29093 28673B
 NOVPATH       4 0000363A 00000001     I   31387 31340B
 NPARTBL       1 00000000 00000000 A   T    2251  2251
 NSCAN         1 00000000 00000013     T   21338 21338
 NSCNCB      176 00000000 FFFFFFED     J    2516  2642  20335M 20336M 20363  20364  20365  20368M 20369M 20371M 20381M
                                                 20382M 20383M 20410  20411  20412  20415M 20416M 20418M 20428M 20429M
                                                 20430M
 NSCNFLGS      1 00000008 FFFFFFED     R    2453  2457   2462
 NSCNKWS       4 00000028 FFFFFFED     A    2502 20363  20371M 20381M 20410  20418M 20428M
 NSCNLEN       4 00000004 FFFFFFED     F    2450 20336M
 NSCNLOC       4 00000000 FFFFFFED     A    2449 20335M
 NSCNSKIP      4 00000024 FFFFFFED     A    2501 20364  20368M 20382M 20411  20415M 20429M
 NSCNSTOP      4 00000020 FFFFFFED     A    2500 20365  20369M 20383M 20412  20416M 20430M
 NSCNTYPE      1 00000018 FFFFFFED     R    2471  2475   2480   2485   2490   2495
 NTGDOPN       1 00000000 0000000B     T   21319 21319
 NUMTRK        2 000008D0 FFFFFFC0     H   16252 32070M 32578
 NXTXSECT      2 00003BEA 00000001     I   32709 32755B 32759B
 OBTERR        4 00003D40 00000001     I   32966 32872
 OBTFMT1       4 00003CE6 00000001     I   32863 31999B
 OBTRET        4 00001B02 00000001     I   24665 24656B
 OKREPL        4 00002206 00000001     I   25995 25991B
 OK1           4 00002008 00000001     I   25629 25222B 25610B
 OLD           4 00002056 00000001     I   25660 24834B
 OLDEDIT       2 000020BA 00000001     H   25694 25661B 25672B
 OLDOPEN       2 000020E6 00000001     H   25712 25630B 25634B 25706B 25708B
 OLDSTUP       2 000020C0 00000001     H   25701 25175B 25669B 25690B 26140B 26410B
 OPENENQ       4 000028A6 00000001     I   27358 27214  27357
 OPENENQX      2 00002930 00000001     I   27565 27426B
 OPENEXCP      4 00003948 00000001     I   32103 32039B
 OPENINIT      4 00002800 00000001     I   27247 27198  27246
 OPENLIST      4 00000414 FFFFFFC0     F   15704 18361M 18362M 24630  25792  25804  26063  30468  32090  32103  33314
 OPENOUT       4 0000212E 00000001     I   25798 25768B 25782B
 OPENOUT1      4 00002140 00000001     I   25804 25799B
 OPEN1         4 00002152 00000001     I   25812 25795B
 OPNER         6 00002286 00000001     I   26047 25822B
 OPNISGD       4 00000736 00000001     I   19358 19326B
1DISK     (DISK4072) (12:42) (15MAR04) Ordinary Symbol and Literal Cross Reference                                          Page  186
 OPTCDNE       4 00001B18 00000001     I   24674 24667B 24669B
 OSR13         4 0000012C FFFFFFC0     F   15431 33551M
 OUTOFRNG      4 00003B64 00000001     I   32615 32608B 32611B
 PAGEGET       4 00000880 FFFFFFC0     F   16190 31943M 33374
 PAR           9 00000009 00000001 A   #    1132 33378
 PARAMEND      1 00000498 FFFFFFC0     U   15772 31200  31295
 PARDDCOD      2 00000484 FFFFFFC0     C   15768 31319M
 PARDDNAM      8 00000484 FFFFFFC0     C   15767 31203M
 PARDDVOL      6 00000486 FFFFFFC0     C   15769 31320M
 PARFLAG       1 00000481 FFFFFFC0     X   15761 31202M 31321M
 PARFWAIT      1 00000080 FFFFFFC0 A   U   15762 31202  31321
 PARRALLO      1 00000001 FFFFFFC0 A   U   15758 31296
 PARREQCD      1 00000480 FFFFFFC0     R   15757 31200  31200M 31200  31201M 31204  31295  31295M 31295  31296M 31314M
                                                 31322
 PARRMNT       1 00000003 FFFFFFC0 A   U   15760 31314
 PARRUNAL      1 00000002 FFFFFFC0 A   U   15759 31201
 PDENDBLK      4 00003E00 00000001     I   33114 33008B 33025B 33081B
 PDSCCW        3 00000359 FFFFFFC0     R   15599 18284M 31981
 PDSORNG       4 00003DE2 00000001     I   33101 33093B 33095B
 PDSRDOK       4 00003D48 00000001     I   32972 32556B
 PDSRDOK2      4 00003D6A 00000001     I   33018 33171B
 PDSREAD       8 00000258 FFFFFFC0     W   15564 15599  18282
 PDSUNBLK      4 00003D80 00000001     I   33025 33098B 33102B 33111B 33174B
 PFREEA        1 00000000 0000001D     T   23692 23692
 PFREEB        1 00000000 0000001E     T   23693 23693
 PMARKA        1 00000000 00000030     T   33717 33717
 POSTED        4 000033DA 00000001     I   31029 31151B
 PRESS         1 00000000 00000012     T   21335 21335  23231
 PUTMOR        4 00001162 00000001     I   21851 21833B
 QRSC          1 00000000 00000003     T   19040 19040
 RACFID        1 00000DA8 FFFFFFC0     X   17719 17734  17785
 RACFPDAT      3 00000DB8 FFFFFFC0     X   17721 17867
 RACFPSWD      1 00000DAF FFFFFFC0     X   17720 17735  17843
 RACGREM       1 00000000 00000026     T   27228 27228
 RACINIT       4 00000DE8 FFFFFFC0     F   17728 17747  17748  17768  17869  17915  17961
 RAR          14 0000000E 00000001 A   #    1197  2182   2183M  2184B  2186M  2187B  2207M  2208B  2212M  2213B  2215M
                                                  2216B  2218M  2219B  2221M  2222B  2224M  2225M  2225B  2231  18186M
                                                 18187M 18187B 18219M 18220M 18220B 18903B 19135M 19138M 19195B 19261B
                                                 19324M 19325M 19325B 19329M 19330M 19330B 19355M 19356M 19356B 19365M
                                                 19366M 19366B 19406M 19407M 19407B 19469  19506M 19507M 19507B 19545M
                                                 19546M 19546B 19595M 19598B 19657  19717M 19718M 19718B 19723M 19724M
                                                 19724B 19739M 19740M 19740B 19824M 19825M 19825B 19880M 19881M 19881B
                                                 19908M 19909M 19909B 20040M 20041M 20041B 20056M 20057M 20057B 20086M
                                                 20087M 20087B 20109M 20110M 20110B 20130M 20131M 20131B 20185M 20186M
                                                 20186B 20201M 20202M 20202B 20240M 20241M 20241B 20288M 20289M 20289B
                                                 20312M 20313M 20313B 20374M 20375M 20375B 20421M 20422M 20422B 20453M
                                                 20454M 20454B 20490M 20493B 20508  20553M 20554M 20554B 20557M 20558M
                                                 20558B 20575M 20578B 20590  20635M 20636M 20636B 20639M 20640M 20640B
                                                 20657M 20660B 20672  20717M 20718M 20718B 20721M 20722M 20722B 20739M
                                                 20742B 20754  20799M 20800M 20800B 20803M 20804M 20804B 20821M 20824B
                                                 20836  20887M 20888M 20888B 20891M 20892M 20892B 20909M 20912B 20924
                                                 20955M 20956M 20956B 20973M 20974M 20974B 20977M 20978M 20978B 20996M
                                                 20999B 21106  21188M 21191B 21203  21247M 21248M 21248B 21306M 21309B
                                                 21407  21495M 21496M 21496B 21500M 21501M 21501B 21523M 21526B 21660M
                                                 21661M 21661B 21674M 21675M 21675B 21680M 21681M 21681B 21699M 21700M
                                                 21700B 21764M 21765M 21765B 21840M 21841M 21841B 21846M 21847M 21847B
                                                 21950M 21951M 21951B 21959M 21960M 21960B 21965M 21966M 21966B 22051M
                                                 22052M 22052B 22173M 22174M 22174B 22219M 22220M 22220B 22227M 22228M
                                                 22228B 22281M 22282M 22282B 22392  22498M 22499M 22499B 22585M 22588B
1DISK     (DISK4072) (12:42) (15MAR04) Ordinary Symbol and Literal Cross Reference                                          Page  187
                                                 22614  22762M 22763M 22763B 22801M 22804B 22830  22984M 22987B 23009
                                                 23166M 23167M 23167B 23201M 23204B 23337M 23338M 23338B 23369M 23370M
                                                 23370B 23375M 23376M 23376B 23454M 23455M 23455B 23507M 23508M 23508B
                                                 23613M 23614M 23614B 23660M 23661M 23661B 23728M 23729M 23729B 23733M
                                                 23734M 23734B 23766M 23767M 23767B 23843M 23844M 23844B 23856M 23857M
                                                 23857B 23864M 23865M 23865B 24019M 24020M 24020B 24267M 24268M 24268B
                                                 24307M 24308M 24308B 24317M 24318M 24318B 24542M 24543M 24543B 24557M
                                                 24558M 24558B 24566M 24569B 24573M 24574M 24574B 24602M 24603M 24603B
                                                 24607M 24608M 24608B 24674M 24675M 24675B 24678M 24679M 24679B 24768M
                                                 24769M 24769B 24791M 24865M 24866M 24866B 24908M 24909M 24909B 24969M
                                                 25201M 25202M 25202B 25207M 25208M 25208B 25263M 25263  25264M 25291M
                                                 25516M 25517M 25517B 25559M 25560M 25560B 25568M 25569M 25569B 25626M
                                                 25627M 25627B 25656B 25765M 25766M 25766B 25812M 25813M 25813B 25865M
                                                 25866M 25866B 25877M 25878M 25878B 25992M 26002M 26006M 26010M 26011M
                                                 26011B 26031M 26032M 26032B 26051M 26052M 26052B 26055  26059M 26060M
                                                 26060B 26068M 26069M 26069B 26152M 26153M 26153B 26201M 26202M 26202B
                                                 26210M 26211M 26211B 26247M 26248M 26248B 26276M 26277M 26277B 26334M
                                                 26335M 26335B 26356M 26366M 26367M 26367B 26424M 26425M 26425B 26433M
                                                 26434M 26434B 26526M 26527M 26527B 26586M 26587M 26587B 26634M 26635M
                                                 26635B 26680M 26681M 26681B 26692M 26693M 26693B 26697M 26698M 26698B
                                                 26707M 26708M 26708B 26712M 26713M 26713B 26717M 26718M 26718B 26724M
                                                 26725M 26725B 26742M 26743M 26743B 26847M 26848M 26848B 26858M 26859M
                                                 26859B 26928M 26929M 26929B 26936M 26937M 26937B 26963M 26964M 26964B
                                                 27089M 27090M 27090B 27121B 27140B 27152B 27169M 27170M 27170B 27685
                                                 27771  27983M 27984M 27984B 28329M 28332B 28357  28477M 28480B 29396M
                                                 29397M 29397B 29453  29550M 29551M 29551B 29563M 29564M 29564B 29622M
                                                 29733M 29736B 29749  29847M 29848M 29848B 29860M 29861M 29861B 29919M
                                                 29946M 29949B 30101M 30102M 30102B 30112M 30113M 30113B 30205M 30206M
                                                 30206B 30215M 30216M 30216B 30234M 30235M 30235B 30418M 30419M 30419B
                                                 30463M 30464M 30464B 30537M 30538M 30538B 30559M 30560M 30560B 30619M
                                                 30620M 30620B 30668M 30669M 30669B 30681M 30682M 30682B 30690M 30691M
                                                 30691B 30694M 30695M 30695B 30702M 30703M 30703B 30708M 30709M 30709B
                                                 30748  30822M 30823M 30823B 30838M 30839M 30839B 30886M 30889B 31054M
                                                 31055M 31055B 31061M 31062M 31062B 31088M 31089M 31089B 31104B 31222M
                                                 31223M 31223B 31331M 31332M 31332B 31646M 31647M 31647B 31650M 31662M
                                                 31663M 31663B 31670M 31879M 31880M 31880B 31911M 31965M 31973M 31974M
                                                 31974B 31986M 32037M 32046M 32086M 32098M 32099M 32099B 32112M 32219M
                                                 32309M 32421M 32429M 32497M 32592M 32734M 32741M 32772M 32824M 32833M
                                                 32875M 32883M 33032B 33109M 33171M 33174M 33186M 33193M 33205M 33238M
                                                 33284M 33311M 33340M 33341M 33341B 33344M 33345M 33345B 33352M 33353M
                                                 33353B 33375M 33395M 33396M 33396B 33398B 33403B 33406  33431M 33432B
                                                 33448  33461B 33535M 33542B 33772B 33800B 33890B 34352M 34353M 34353B
                                                 34405M 34406M 34406B 34420M 34421M 34421B 34484M 34485M 34485B 34499M
                                                 34500M 34500B 34524M 34525M 34525B 34539M 34540M 34540B 34565M 34566M
                                                 34566B 34588M 34589M 34589B 34932M 34933M 34933B
 RDCNT         1 00000012 FFFFFFC0 A   U   15505 15534  15564  18990  19001
 RDERROR       4 000012D6 00000001     I   22248 22247
 RDERROR       1 00000000 0000000F     T   21325 21325
 RDKYDATA      1 0000000E FFFFFFC0 A   U   15507 15548  15560  15566  18996  19000  19002
 READCCW       8 00000240 FFFFFFC0     W   15556 15558  18999  32585
 READFMT3      4 00003C38 00000001     I   32734 32748B
 READKW        4 00001B9A 00000001     I   24836 25180B 25327B 26142B
 READKW2       4 00001BBC 00000001     I   24861 24880B
 READOK        4 00003B30 00000001     I   32597 32554B
 READRE        4 0000081E 00000001     I   19717 19920B
 READR1        2 000008D0 00000001     I   19888 19758B
 READR2        4 000008DC 00000001     I   19893 19889B
 READR3        4 000008F0 00000001     I   19916 19891B
 RECFMF        1 00000080 FFFFFFC0 A   U   18092 24997  25019  25085  25284  25673
1DISK     (DISK4072) (12:42) (15MAR04) Ordinary Symbol and Literal Cross Reference                                          Page  188
 RECFMV        1 00000040 FFFFFFC0 A   U   18093 25675  25686
 RECSIZE       4 00000364 FFFFFFC0     F   15602 23772M 24110M 24255M 24940  25007M 25186  25203  25255  25324M 25506
                                                 25515  25534  25538  25667  25689M 25699M 25699  26076  26864M 26864
                                                 26911M 26911  26915M 29835  30696  34458M
 RELIOWA       2 00003274 00000001     H   30742 27231  30920  33727
 RENAMLST      4 00000404 FFFFFFC0     F   15694 18351M 18352M 18354M 18356M 18358M 26428
 RENMBR        2 000024B8 00000001     H   26673 25854B
 RENUNCAT      2 00002460 00000001     H   26534 26452B
 RESETWA       4 000022BC 00000001     I   26076 26040B 26359B 26674B 26930B
 RESOURCE     24 00000000 FFFFFFE6     J    6845 18178  19133  19136  19163U 19248U
 RET           2 00002278 00000001     I   26041 23526B 23758B 26369B 26700B 26941B
 RETCOD        4 00000378 FFFFFFC0     F   15608 23948M 29544M 29844M 31085  31103M 32061M 33160  33162  33164  33288M
                                                 33346
 RMBRANCH      1 00000000 00000000 A   T    9509  9509
 RRECFM        1 00000344 FFFFFFC0     C   15589 24945M 24951  24999M 25021  25034  25046M 25070M 25131M 25144  25267M
                                                 25284M 25536  25713  26139M 26409M 27274M 30174
 RSC@NEXT      4 00000000 FFFFFFE6     A    6813 18178  19133  19136  19177
 RSCFLAGS      1 00000014 FFFFFFE6     R    6821  6825   6830   6835
 RSCGROUP     60 00000000 FFFFFFE7     J    6798 18138U 19131U
 RSG#FREE      2 0000000C FFFFFFE7     H    6751 18143
 RSGFLG1       1 0000003B FFFFFFE7     R    6773  6777   6782   6787   6790
 RSGQACFW      4 00000014 FFFFFFE7     A    6754 19136
 RSGQFRFW      4 0000001C FFFFFFE7     A    6756 18140  18142M 18178  19133
 RTNALLER      1 00000058 00000001 A   U    6397 29096  31378  31381
 RTNBDCAT      1 00000040 00000001 A   U    6391 26734
 RTNBDMBR      1 0000002C 00000001 A   U    6386 26882
 RTNBDVOL      1 00000028 00000001 A   U    6385 26731  26959  29090  31390  32060  32933
 RTNBKUP       1 00000068 00000001 A   U    6401 29087
 RTNBUSY       1 0000004C 00000001 A   U    6394 31375
 RTNCATDV      1 00000064 00000001 A   U    6400 24111  24256
 RTNCATER      1 0000006C 00000001 A   U    6402 30697  34590
 RTNDIRFL      1 00000030 00000001 A   U    6387 26885
 RTNDIRIO      1 0000003C 00000001 A   U    6390 26072
 RTNDUPDS      1 00000008 00000001 A   U    6377 26894
 RTNEXPDT      1 00000034 00000001 A   U    6388 26873
 RTNILDSN      1 00000018 00000001 A   U    6381 26867
 RTNILORG      1 0000001C 00000001 A   U    6382 26900
 RTNINUSE      1 00000010 00000001 A   U    6379 26912
 RTNINVBS      1 00000014 00000001 A   U    6380 26916
 RTNNOACS      1 00000048 00000001 A   U    6393 26863
 RTNNODS       1 00000004 00000001 A   U    6376 26891  26919  28157  28211
 RTNNOSPC      1 0000000C 00000001 A   U    6378 26897  31056
 RTNNOSTR      1 00000054 00000001 A   U    6396 26879
 RTNNTPDS      1 00000044 00000001 A   U    6392 26888
 RTNSHERR      1 00000050 00000001 A   U    6395 32537  32853  32966
 RTNVOLNA      1 0000005C 00000001 A   U    6398 29084  29093  31384
 RTNVOLNO      1 00000060 00000001 A   U    6399 31387
 R0            0 00000000 FFFFFFFF A   #     700  2167   2236M 18150M 18151M 18157M 18163M 18188M 18189  18209M 18223M
                                                 18224  18226M 18227  18234M 18259  18279M 18281  18282M 18284  18285M
                                                 18287  18288M 18290  18293M 18294  18295M 18296  18300M 18301  18302M
                                                 18303  18304M 18305  18309M 18310  18311M 18312  18315M 18316  18317M
                                                 18318  18321M 18322  18323M 18324  18325M 18326  18329M 18330  18331M
                                                 18332  18333M 18334  18338M 18339  18340M 18341  18342M 18343  18346M
                                                 18347  18348M 18349  18353M 18354  18355M 18356  18357M 18358  18360M
                                                 18361  18384M 18386  18398M 18399  18401M 18402  18403M 18404  18405M
                                                 18406  18407M 18408  18662  18663  18727M 18727  18801M 18801  18858M
                                                 18880  19318M 19361  19362  19413M 19500  19542M 19549  19549M 19774
                                                 19809  19888  19893  20181M 20207  20213M 20265M 20271  20319  20336
                                                 20359M 20359  20368  20369  20406M 20406  20415  20416  20542M 20624M
1DISK     (DISK4072) (12:42) (15MAR04) Ordinary Symbol and Literal Cross Reference                                          Page  189
                                                 20706M 20788M 20962M 21136  21145M 21164  21232  21254  21263M 21282
                                                 21452  21671M 21710  21761M 21781M 21811M 21812  21837M 21837  21956M
                                                 22084M 22270M 22324M 22495M 22705  22921  23099  23302  23333M 23333
                                                 23443M 23475M 23475  23503M 23503  23602M 23655M 23655  23772  24784M
                                                 24785  24883M 24900M 24910  24940M 24941M 24941  24949  24964  24966
                                                 24967  24977M 24994M 25000M 25001M 25001  25003  25008  25056  25169
                                                 25172  25203M 25255M 25256M 25256  25264  25266  25277  25289  25295M
                                                 25319M 25319  25320  25322M 25323  25404M 25405M 25405  25431M 25431
                                                 25442M 25445  25457M 25464  25476M 25503  25506M 25507M 25507  25562M
                                                 25644M 25644  25645  25646M 25650M 25652  25653M 25655  25662M 25663
                                                 25667M 25668M 25668  25680M 25681M 25681  25683M 25684M 25684  25688M
                                                 25688  25689  26076M 26189M 26189  26360  26362M 26363M 26363  26368M
                                                 26420M 26420  26630M 26631  26636M 26637  26699M 26915  26931  26939M
                                                 27151  27158M 27529M 27541  29393M 29568M 29569M 29570  29574M 29575M
                                                 29576  29608M 29609M 29610  29651  29684  29822  29865M 29866M 29867
                                                 29871M 29872M 29873  29905M 29906M 29907  30027  30224M 30225M 30227
                                                 30327M 30328  30386M 30401M 30570M 30570  30589M 30598M 30601M 30601
                                                 30603M 30605M 30696M 30796M 30835M 30835  30855  31082M 31083M 31084M
                                                 31139  31285M 31286M 31286  31353  31357  31699  31727  31875M 31951M
                                                 31952M 31952  31954M 31958  31959  31967M 31968  31983M 32250M 32678M
                                                 32709  32711M 32713  32726M 32753M 32758M 32770M 32992M 32993M 32994
                                                 33024M 33025  33026M 33030M 33157M 33158M 33158  33164M 33194M 33236M
                                                 33280  33282M 33285M 33347  33354M 33366  33379  33382  33423  33443
                                                 33517  33538  33620M 33819  34029M 34030  34031  34053  34113M 34227M
                                                 34244  34322  34324  34324  34324  34343M 34384M 34411M 34422M 34430M
                                                 34475M 34490M 34515M 34530M 34556M 34579M 34579  34594M 34739M 34759M
                                                 34764M 34793
 R1            1 00000001 FFFFFFFF A   #     713  2230M  2231M  2237M 18140M 18141  18142  18156  18157  18158M 18177M
                                                 18216M 18233M 18244M 18259  18373U 18380M 18383M 18412M 18417M 18432
                                                 18497M 18499M 18518M 18519M 18519  18520M 18520  18541M 18541  18558M
                                                 18568M 18568  18569  18729M 18729  18779M 18803M 18803  18843M 18852M
                                                 18894  18896M 18901M 19358  19412M 19499  19503M 19541M 19696M 19697
                                                 20030M 20037M 20062  20182M 20208M 20214M 20215M 20215  20242  20252M
                                                 20253M 20256M 20258M 20259M 20262M 20268M 20270M 20272  20294M 20318M
                                                 20319M 20335  20355M 20368  20369  20371  20402M 20415  20416  20418
                                                 20541M 20623M 20705M 20787M 20961M 21139M 21141M 21142M 21142  21143
                                                 21257M 21259M 21260M 21260  21261  21491M 21497  21693M 21696M 21774M
                                                 21812M 22082M 22085  22269M 22323M 22422M 22442M 22443  22500  22731M
                                                 22733M 22734  22759M 23135M 23137M 23138  23163M 23329M 23359  23359
                                                 23442M 23499M 23601M 23651M 23671  23730M 23845M 23890M 23891  23913M
                                                 23919M 23920  24861M 24905M 25204M 25211  25563M 25647M 25648  25649M
                                                 25651M 25654  26039M 26154M 26155M 26155  26156  26361M 26925M 26932
                                                 26940M 27086M 27157M 27979M 28219M 28220M 28221M 28221  29388M 30149M
                                                 30221M 30222M 30222  30230M 30230  30231M 30318M 30322M 30328M 30330
                                                 30340M 30400M 30406M 30406  30577M 30588M 30599  30602M 30604M 30606
                                                 30789M 30790M 30790  30831M 31204M 31322M 31651M 31671M 31685M 31685
                                                 31720M 31720  31727M 31728M 31751  31762  31869M 31869  31875  31876M
                                                 31944M 31945  31946M 31947  31984M 32067M 32069M 32070  32244U 32249M
                                                 32367M 32376M 32376  32384M 32386  32470M 32471  32544M 32544  32545
                                                 32546M 32547M 32548  32563M 32566M 32567M 32567  32568  32570M 32571
                                                 32572M 32574M 32575  32576M 32576  32578M 32579  32580M 32582M 32583
                                                 32585M 32586  32717M 32718M 32719M 32720  32721M 32722M 32723M 32724
                                                 32769M 33018M 33019  33021M 33021  33023M 33106  33107M 33110M 33235M
                                                 33280  33281M 33285M 33348  33355M 33550  33625  33634M 33634  34011
                                                 34053M 34059  34342M 34383M 34410M 34431M 34456  34468M 34489M 34511M
                                                 34529M 34551M 34653  34763M 34763  34773M 34773  34790  34802M 34843M
 R10005        2 000045F0 00000001     I   34820 34825B
 R12          12 0000000C FFFFFFFF A   #     856  2193
 R13          13 0000000D FFFFFFFF A   #     869 20363  20364  20365  20381  20382  20383  20410  20411  20412  20428
1DISK     (DISK4072) (12:42) (15MAR04) Ordinary Symbol and Literal Cross Reference                                          Page  190
                                                 20429  20430  24567M 26041M 26042  30372  30373  30397M 33551  33796M
                                                 33797  34917M 34918
 R14          14 0000000E FFFFFFFF A   #     882  2168M 18110  18163M 18895  18902M 19097  19295  19779M 20334M 20335
                                                 20336  20340M 20340  20362M 20363  20364  20365  20370M 20371  20378M
                                                 20381  20382  20383  20409M 20410  20411  20412  20417M 20418  20425M
                                                 20428  20429  20430  21143M 21144M 21261M 21262M 21544  21784M 21785M
                                                 21790  21805  21810M 21811  21815M 21817  22062  22115  22248  22706M
                                                 22922M 23100M 23265  23303M 24963M 24963  24964M 24966M 25187M 25188M
                                                 25188B 25210M 25210  25211M 25212M 25212  25266M 25555M 25556  25761M
                                                 25762  26197M 26198  27247  27358  28483  29140  29237  29953  30028M
                                                 30385M 30388M 30414M 30415  30459M 30460  30615M 30616  30856M 30985
                                                 31138M 31155  31235  31430  31840  31913  32034M 32035  32083M 32084
                                                 32872M 32873  33364  33397M 33422M 33444M 33516M 33539M 33759  33795M
                                                 33820M 33983  34320  34920M 34921
 R15          15 0000000F FFFFFFFF A   #     895  2167  18162M 18162  18178M 18202M 18418M 18491  18791M 18791  19420M
                                                 19420  19547  19553M 19553  19573M 19597M 19597  19777M 19780  19951M
                                                 19991M 20023M 20037  20062M 20237M 20242M 20248M 20253  20263M 20271M
                                                 20272M 20273  20384M 20384  20431M 20431  20444M 20444  20462M 20462
                                                 20492M 20492  20550M 20577M 20577  20632M 20659M 20659  20714M 20741M
                                                 20741  20796M 20823M 20823  20884M 20911M 20911  20970M 20998M 20998
                                                 21171M 21190M 21190  21289M 21308M 21308  21452M 21456M 21465M 21465
                                                 21472  21492M 21497M 21525M 21525  21569M 21569  21787M 21788M 21805M
                                                 21808M 21809M 21993M 22135M 22135  22170M 22170  22216M 22216  22250
                                                 22252  22252  22252  22278M 22294M 22421  22425M 22472M 22472  22479M
                                                 22554M 22554  22587M 22587  22644M 22705  22767M 22767  22803M 22803
                                                 22860M 22921  22950M 22950  22986M 22986  23038  23099  23203M 23203
                                                 23267  23302  23334M 23451M 23504M 23524M 23610M 23656M 23657M 23657
                                                 23730M 23757M 23757  23773  23774M 23776M 23778  23820M 23853M 23938M
                                                 23948  23957M 23957  23966  24038  24110  24111M 24255  24256M 24343M
                                                 24343  24365M 24412M 24412  24552  24559  24568M 24617M 24617  24655M
                                                 24655  24665  24666M 24666  24946M 24947M 24947  24953M 24954M 24954
                                                 24956  24958M 24965  24976M 24977  24985M 24986M 24986  24988  25007
                                                 25056  25146  25171  25186M 25209M 25214M 25215  25220M 25220  25221
                                                 25259M 25260M 25260  25262M 25265  25277  25321M 25322  25324  25352M
                                                 25353M 25353  25362M 25362  25368M 25386M 25391  25397  25398M 25399M
                                                 25401  25515M 25518M 25520  25521M 25522M 25524  25587  25587  25593M
                                                 25607M 25607  25616  25631M 25632  25879  25927M 25928M 25929M 25929
                                                 25930M 25945  25950M 25959M 25959  25966  26038M 26038  26072M 26215M
                                                 26215  26220M 26231  26231  26237M 26243  26348M 26438M 26438  26521M
                                                 26522  26638  26668M 26668  26694  26714  26719M 26731M 26734M 26744
                                                 26860M 26863M 26867M 26870M 26873M 26876M 26879M 26882M 26885M 26888M
                                                 26891M 26894M 26897M 26900M 26912M 26916M 26919M 26933  26938M 26950M
                                                 26952M 26952  26954  26959M 27166M 27171M 27425M 27425  27435M 27435
                                                 27478M 27478  27503M 27503  27551M 27551  27683U 28218M 28219  28224M
                                                 28236  28246M 28246  28251  28305M 28306M 28307  28312M 28331M 28331
                                                 28441M 28441  28454M 28479M 28479  28760M 28761M 28761  28779U 28833
                                                 28839M 28839  28917M 28918M 28918  28947M 28947  28948  29084M 29087M
                                                 29090M 29093M 29096M 29239  29241  29241  29241  29321M 29324  29336M
                                                 29344M 29353M 29353  29360  29379M 29409M 29543M 29543  29544  29545M
                                                 29547  29634M 29634  29735M 29735  29843M 29843  29844  29948M 29948
                                                 29988M 29988  30027  30180M 30180  30220M 30220  30240M 30240  30281M
                                                 30282M 30283M 30284  30384M 30385B 30387M 30388B 30398M 30398  30432
                                                 30439M 30449M 30465  30502M 30502  30525M 30525  30683M 30684M 30684
                                                 30697M 30704  30710M 30711M 30711  30855  30888M 30888  31044M 31056M
                                                 31085M 31098M 31139  31140M 31141B 31185M 31186M 31186  31188M 31190
                                                 31194M 31194  31197  31205  31229M 31229  31335  31366M 31366  31375M
                                                 31378M 31381M 31384M 31387M 31390M 31453M 31453  31590M 31597M 31614M
                                                 31635M 31640  31659M 31672M 31673  31706M 31762M 31781M 31781  31842
                                                 31844  31844  31844  31899M 31965B 32054M 32054  32056  32058  32060M
1DISK     (DISK4072) (12:42) (15MAR04) Ordinary Symbol and Literal Cross Reference                                          Page  191
                                                 32061  32306  32426  32537M 32600M 32708M 32725M 32725  32742M 32742
                                                 32754M 32757M 32765M 32765  32817M 32817  32837M 32837  32853M 32880
                                                 32891M 32903  32926  32933M 32950  32960M 32960  32966M 33194  33288
                                                 33346M 33349  33356M 33374M 33375B 33423  33424M 33425B 33443  33517
                                                 33518M 33519B 33538  33694  33819  33926  34040  34052M 34059M 34094
                                                 34184  34253M 34349M 34402M 34417M 34423M 34433M 34447M 34447  34481M
                                                 34496M 34521M 34536M 34562M 34585M 34590M 34792M 34793
 R2            2 00000002 FFFFFFFF A   #     726 18112  18114  18114  18114  18141M 18142  18241M 18242M 18243  18378M
                                                 18381M 18445M 18445  18678M 18686U 18881M 18881  18882  18933M 19099
                                                 19101  19101  19101  19297  19299  19299  19299  19547M 19549  19752M
                                                 19775  19781M 19783  19800M 19830  19831M 19832  19851M 19863M 19863
                                                 19864  19890  19914  19915M 19916  19917M 19919  19951  19952M 19952
                                                 20023  20024M 20024  20035  20093M 20115  20138  20139M 20140  20142
                                                 21492  21546  21548  21548  21548  21591M 21603  21613  21688M 21690M
                                                 21690  21692  21710  21808  21849  21866  21876M 22024M 22026  22046M
                                                 22064  22066  22066  22066  22086M 22088  22096M 22117  22119  22119
                                                 22119  22500M 22510U 22550  24721M 24742M 24776M 24777M 24778M 24779M
                                                 24785M 24788  24837B 24872B 24880M 24938M 25180M 25181M 25225M 25327M
                                                 25328M 26040M 26042M 26131B 26142M 26265B 26359M 26674M 26930M 26933M
                                                 26938  26981B 26999B 27006B 27017B 27022B 27026B 27063B 27080B 27103B
                                                 27146M 27149M 27150M 27151  27249  27251  27251  27251  27360  27362
                                                 27362  27362  27567M 27685M 27714B 27953M 27953  28083M 28485  28487
                                                 28487  28487  28514U 28516M 28537M 28537  28834  28949  29142  29144
                                                 29144  29144  29456  29546M 29547M 29579M 29580M 29580  29601U 29731M
                                                 29752  29876M 29877M 29877  29898U 29944M 29955  29957  29957  29957
                                                 30311M 30362M 30579M 30579  30586M 30588  30596M 30598  30599M 30604
                                                 30715M 31432  31915  32306M 32321  32357M 32357  32426M 32438M 32438
                                                 32599M 32600  32602  32684M 32703M 32709  32711  32713M 32728M 32728
                                                 32846M 32846  32880M 32891  32972M 33021  33025M 33107  33169M 33210
                                                 33252  33264  33269  33270  33271  33272  33349M 33356  33585M 33601M
                                                 33606B 33925  33985  34038M 34047  34135M 34167M 34169  34181M 34183
                                                 34187M 34220M 34354M 34355M 34367  34377M 34377  34382M 34383  34790M
                                                 34815  34914
 R3            3 00000003 FFFFFFFF A   #     739 18411M 18415  18424  18691M 18691  18894M 18901  19153M 19163U 19177M
                                                 19178  19192M 19192  19213U 19780M 19782M 19783M 19784  19806M 19807M
                                                 19809  19830M 19864  19888M 19890M 19914M 19919  20115  20140  20143
                                                 21612M 21689M 21851  22085M 22087M 22088M 22089  22421M 22533M 22533
                                                 23038M 23117M 23117  23568M 23568  23592M 23623M 23623  23891M 23919
                                                 24423M 24433U 24552M 24559M 24598M 26055M 26071B 26360M 26368  26694M
                                                 26699  26714M 26719  26744M 26860  26931M 26939  27267M 27269M 27271M
                                                 27272  27273  27459  27803M 27803  28157M 28211M 28312  29822M 29835M
                                                 29854  30123M 30131U 30209  30372  30373M 30397M 30397  30400  30567M
                                                 30605  31076M 31101M 31102M 31102  31103  32007M 32015U 32120M 32130U
                                                 32148M 32158U 32601M 32602M 32605M 32607  32610  32677M 32677  32720M
                                                 32724M 32744M 32744  32761  33106M 33110  33347M 33354  33365M 33367M
                                                 33368  33369M 33372M 33373  33377M 33379M 33380M 33381  33382M 33385M
                                                 33387  33388M 33389  33390M 34101M 34107  34108  34110  34142M 34169M
                                                 34182M 34188  34190M 34214M 34221M 34226  34698M 34708U
 R4            4 00000004 FFFFFFFF A   #     752 18143M 18196  18202  18441M 18722M 18722  18736  18742M 18752M 18752
                                                 19133M 19136M 19153  19178  19499M 19541  19714M 19714  19776M 19779
                                                 19791M 19791  19832  19916  19917M 20035  20181  20207M 20209  20237
                                                 21136M 21168  21168M 21254M 21286  21286M 21832  21900  22081M 22084
                                                 22666M 22756  22882M 23060M 23160  26932M 26940  28386M 28396U 28447M
                                                 28447  30374M 30382U 31157  31159  31159  31159  31237  31239  31239
                                                 31239  31403M 33027M 33028M 33029M 33030  33217M 33219M 33220B 33348M
                                                 33355  33366M 33367  33378M 33390  34093M 34093  34094M 34106M 34106
                                                 34107M 34108M 34179M 34181  34182  34184M 34186M 34187  34220  34225M
                                                 34225  34226M 34653M 34661U
 R5            5 00000005 FFFFFFFF A   #     765 18130M 18138U 18703M 18704M 18714U 18736M 19123M 19131U 19313M 19318
1DISK     (DISK4072) (12:42) (15MAR04) Ordinary Symbol and Literal Cross Reference                                          Page  192
                                                 19359M 19359  19361M 19402M 19402  19500M 19708M 19708  19775M 19785M
                                                 19785  19793M 19793  19861M 19863  19949M 20021M 20092M 20138M 20252
                                                 20259  20294  20318  21142  21260  21848M 21866M 21902M 21969M 21970M
                                                 22019M 22041M 22041  22042  22079M 22090M 22090  22646M 22662U 22666
                                                 22677M 22678M 22678  22862M 22878U 22882  22893M 22894M 22894  23040M
                                                 23056U 23060  23071M 23072M 23072  30342M 30356U 30987  30989  30989
                                                 30989  31094M 31182U 31184M 31273M 34072M 34095M 34109M 34110M 34112M
                                                 34113  34183M 34188M 34189M 34227
 R6            6 00000006 FFFFFFFF A   #     778 19756M 19757M 19757  19774M 19786M 19923M 19924M 19924  20070M 20071M
                                                 20071  20093  20094M 20139  20142M 20143M 20144  20146M 20213  20216M
                                                 20216  20220M 20222  20252  20273  20297  20318  21135M 21145  21146M
                                                 21149  21164M 21170  21170M 21253M 21263  21264M 21267  21282M 21288
                                                 21288M 21689M 21692M 21832  21849M 21878M 21878  21895M 21900  21903M
                                                 21904  21971M 21988M 22042  22080M 22091M 29293M 29304U 30449  34011M
                                                 34019U
 R7            7 00000007 FFFFFFFF A   #     791  2160M  2160   2161B  2173B 33448  33535M 33759  33795M 33889M
 R8            8 00000008 FFFFFFFF A   #     804 18112  18113M 18114  18114  18114  18933M 19099  19100M 19101  19101
                                                 19101  19297  19298M 19299  19299  19299  19692U 21442U 21546  21547M
                                                 21548  21548  21548  21787  21805  21808  22046M 22064  22065M 22066
                                                 22066  22066  22096M 22117  22118M 22119  22119  22119  22250  22251M
                                                 22252  22252  22252  22294M 23267  23268M 24567  24568M 26041  26042M
                                                 27249  27250M 27251  27251  27251  27360  27361M 27362  27362  27362
                                                 27567M 28485  28486M 28487  28487  28487  29142  29143M 29144  29144
                                                 29144  29239  29240M 29241  29241  29241  29409M 29488U 29955  29956M
                                                 29957  29957  29957  30715M 30987  30988M 30989  30989  30989  31094M
                                                 31157  31158M 31159  31159  31159  31237  31238M 31239  31239  31239
                                                 31403M 31432  31433M 31842  31843M 31844  31844  31844  31899M 31915
                                                 31916M 33364  33397M 33797M 33925  33985  33986M 34322  34323M 34324
                                                 34324  34324  34594M 34686M 34686  34918M
 R9            9 00000009 FFFFFFFF A   #     817 18895M 18902  33926  34040  34052M
 SAMETRK       6 00003B10 00000001     I   32584 32569B 32577B
 SAREA       512 00000A94 FFFFFFC0     X   17701 18012
 SAVLOOP       2 0000124E 00000001     I   22084 22091B
 SBACCTG       1 00000AD9 FFFFFFC0     C   18027 32670M
 SBBLKSZ       2 00000AD2 FFFFFFC0     H   18025 32667M
 SBCRDT        3 00000AC4 FFFFFFC0     C   18016 32622M
 SBDSIND       1 00000ACD FFFFFFC0     X   18020 32662M
 SBDSN        44 00000A98 FFFFFFC0     C   18015 32621M
 SBDSORG       2 00000ACB FFFFFFC0     C   18019 32664M
 SBEXDT        3 00000AC7 FFFFFFC0     C   18017 32623M 32657M
 SBKEYL        1 00000ACF FFFFFFC0     C   18023 32668M
 SBLB          2 00000AD4 FFFFFFC0     H   18026 32669M
 SBLRECL       2 00000AD0 FFFFFFC0     H   18024 32666M
 SBNOEX        1 00000ACA FFFFFFC0     C   18018 32663M
 SBRECFM       1 00000ACE FFFFFFC0     C   18022 32665M
 SBSZ          1 00000044 FFFFFFC0 A   U   18030 32174  32770  32864
 SBUF          8 00000A98 FFFFFFC0     D   18014 18030  18074  32173M 32174M 32174  32769  32863M 32864M 32864
 SCATALAS      4 00003F38 00000001     I   33256 33225B
 SCATCVOL      6 00003F46 00000001     I   33261 33226B
 SCATDATA      4 00003EA0 00000001     I   33205 33176B
 SCATDSN       4 00003EE6 00000001     I   33229 33161B
 SCATDSP       4 00003F5E 00000001     I   33268 33211B
 SCATGDG       4 00003F2A 00000001     I   33251 33223B
 SCATGDSN      4 00003F7A 00000001     I   33274 33248B
 SCATGO        4 00003E44 00000001     I   33169 33163B 33196B
 SCATGO2       6 00003E54 00000001     I   33175 33172B 33205
 SCATINDX      4 00003F16 00000001     I   33242 33221B
 SCATNEXT      4 00003E50 00000001     I   33174 33224B 33262B 33286B
 SCATPRNM      6 00003DC2 00000001     I   33092 33206B
1DISK     (DISK4072) (12:42) (15MAR04) Ordinary Symbol and Literal Cross Reference                                          Page  193
 SCATVCB       4 00003F1E 00000001     I   33246 33222B
 SCATWRT       4 00003F90 00000001     I   33280 33243B 33253B 33258B 33265B 33275B 33277B
 SCBCODE       1 00000A98 FFFFFFC0     C   18076 33230M 33242M 33246M 33251M 33256M 33263M 33268M
 SCBDEVCD      4 00000AA7 FFFFFFC0     C   18080 33233M 33270M
 SCBMAX        1 00000AAB FFFFFFC0     C   18082 33252  33252M
 SCBNM         8 00000A99 FFFFFFC0     C   18077 33209M 33229M 33261  33274  33276  33278M
 SCBNM2        8 00000AA1 FFFFFFC0     C   18078 33257M
 SCBNVOLS      2 00000AAC FFFFFFC0     H   18083 33231M 33252  33269M
 SCBSEQNO      2 00000AAE FFFFFFC0     H   18084 33234M 33272M
 SCBSZ         1 00000018 FFFFFFC0 A   U   18085 33208  33236  33282
 SCBUF         8 00000A98 FFFFFFC0     D   18075 18085  33207M 33208M 33208  33235  33281
 SCBVOL        6 00000AA1 FFFFFFC0     C   18079 33232M 33247M 33264M 33271M
 SCHIDEQ       1 00000031 FFFFFFC0 A   U   15496 15516  15522  15544  15556  18982  18985  18994  18998
 SCHKADEQ      1 0000002D FFFFFFC0 A   U   15501 15530  15538  18988  18991  31949  31950
 SCHKADHE      1 0000006D FFFFFFC0 A   U   15503 15504
 SCHKADHI      1 0000004D FFFFFFC0 A   U   15502 31956  31957
 SCHKYHE       1 00000069 FFFFFFC0 A   U   15500 15504
 SCRABE        4 0000237E 00000001     I   26237 26197
 SCRAM         4 0000120E 00000001     I   22042 21867B
 SCRLST        4 000003A4 FFFFFFC0     F   15633 18307M 18308M 18310M 18312M 26205
 SCRMBR        4 000023C8 00000001     I   26356 25883B
 SCRRET        1 00000355 FFFFFFC0     X   15596 24665M 24911  24913  26185M 26216  26218  26220  26416M 26449  26470
                                                 26491  26512  26521  26950  31643M
 SCRVLST       4 00000348 FFFFFFC0     F   15591 15640  15691  15701  18277M 18311  18348  18357
 SDSNCLC1      6 00003CDA 00000001     I   32860 32607X
 SDSNCLC2      6 00003CE0 00000001     I   32861 32610X
 SDSNQLB      44 00000F64 FFFFFFEC     C    6149 32860  33092
 SDSNQSZ       1 0000002C FFFFFFEC A   U    6148  6149   6150
 SDSNQUB      44 00000F90 FFFFFFEC     C    6150 32861  33094
 SDSNSPAC      2 00003BCE 00000001     H   32675 31942B
 SDSNWANT      2 00003B6C 00000001     H   32619 32465B 32614B 32910B
 SDWA          1 00000000 FFFFFFCE     J   13028 14024  14767  34661U 34664  34802  34809M 34811M 34812M 34813M 34814M
                                                 34818  34843  34850M
 SDWAABCC      4 00000004 FFFFFFCE     B   13043 34739
 SDWAACF2      1 000000FD FFFFFFCE     B   13467 34812M 34814M
 SDWACLEN      8 000001C8 FFFFFFC6 A   U   14027 14034  14035
 SDWACMPF      1 00000004 FFFFFFCE     B   13044 34813M
 SDWADEND      8 000000F0 FFFFFFC6     D   14021 14031
 SDWADLEN      8 000000F0 FFFFFFC6 A   U   14031 14032
 SDWAEEND      8 00000150 FFFFFFCA     D   13972 14033
 SDWAELEN      8 00000150 FFFFFFC6 A   U   14033 14034  14035  14042
 SDWAEND       8 00000298 FFFFFFCE     D   13667 14024
 SDWAFREE      1 00000004 FFFFFFCE A   U   13483 34812
 SDWAIEND      8 00000010 FFFFFFCC     D   13894 14028
 SDWAILEN      8 00000010 FFFFFFC6 A   U   14028 14034  14035
 SDWALEN       8 00000298 FFFFFFC6 A   U   14024 14035
 SDWALEND      8 00000020 FFFFFFCB     D   13942 14029
 SDWALLEN      8 00000020 FFFFFFC6 A   U   14029 14034  14035
 SDWAMLEN      8 00000600 FFFFFFC6 A   U   14036 14039  14045
 SDWAMLNP      8 000005E0 FFFFFFC6 A   U   14035 14036
 SDWANLNS      8 000001F0 FFFFFFC6 A   U   14032 14039  14047
 SDWANOPR      1 00000000 FFFFFFC6 A   U   14050 34805B 34846B
 SDWANRC1      1 00000000 FFFFFFC8     J   13996 14026
 SDWANRC2      1 00000000 FFFFFFC7     J   14005 14030
 SDWANRC3      1 00000000 FFFFFFC6     J   14018 14031
 SDWAPARM      4 00000000 FFFFFFCE     A   13030 34672
 SDWAPEND      8 00000020 FFFFFFC9     D   13990 14025
 SDWAPLEN      8 00000020 FFFFFFC6 A   U   14025 14036
 SDWAPTRS      1 00000000 FFFFFFC9     J   13981 14025
1DISK     (DISK4072) (12:42) (15MAR04) Ordinary Symbol and Literal Cross Reference                                          Page  194
 SDWARCDE      1 000000FC FFFFFFCE     B   13461 34809M 34850M
 SDWARC1       1 00000000 FFFFFFCD     J   13669 14027
 SDWARC2       1 00000000 FFFFFFCC     J   13888 14028
 SDWARC3       1 00000000 FFFFFFCB     J   13900 14029
 SDWARC4       1 00000000 FFFFFFCA     J   13950 14033
 SDWAREND      8 000000F0 FFFFFFC8     D   13998 14026
 SDWAREQ       1 00000080 FFFFFFCE A   U   13045 34813
 SDWARLEN      8 000000F0 FFFFFFC6 A   U   14026 14032
 SDWARTYA      4 000000F0 FFFFFFCE     A   13446 34811M
 SDWASEN       8 00000010 FFFFFFC7     D   14011 14030
 SDWASEND      8 000001C8 FFFFFFCD     D   13882 14027
 SDWASLEN      8 00000710 FFFFFFC6 A   U   14045 14047
 SDWASPL       8 00000010 FFFFFFC6 A   U   14030 14032
 SDWASRSV     64 00000088 FFFFFFCE     C   13254 34818
 SDWATLEN      8 000007F0 FFFFFFC6 A   U   14039 14042
 SDWATRAN      4 00000074 FFFFFFCE     A   13190 13192
 SDWAUPRG      1 00000008 FFFFFFCE A   U   13481 34814
 SEEK          5 000001BB FFFFFFC0     X   15492 15516  15542  15551  18982  18993  18997  31979M 31980M 32073M 32074M
                                                 32545M 32546  32548M 32584M 33116M
 SEG           1 00000000 00000032     T   34997 34997
 SEGB          1 00000000 00000014     T   21340 21340
 SEGCR         1 00000000 00000028     T   27233 27233
 SEGT          1 00000000 00000034     T   35001 35001
 SEGTB         1 00000000 00000033     T   35000 35000
 SEGWR         1 00000000 00000019     T   23242 23242  23694  35002
 SHOWCAT       4 00003E22 00000001     I   33157 32006B
 SKIPUTIL      2 000031CC 00000001     H   30628 30505B 30528B
 SKP           1 00000010 FFFFFFC0 A   U   15513 15542  18993
 SLI           1 00000020 FFFFFFC0 A   U   15512 15516  15518  15520  15522  15524  15526  15530  15532  15534  15538
                                                 15540  15542  15544  15546  15548  15551  15556  15558  15560  15564
                                                 15566  18982  18983  18984  18985  18986  18987  18988  18989  18990
                                                 18991  18992  18993  18994  18995  18996  18997  18998  18999  19000
                                                 19001  19002
 SMFDATYP      8 00000000 FFFFFFBC     C   29222 29316M 29317M
 SMFDCMD      64 0000003C FFFFFFBC     C   29225 29320M 29367M 30904
 SMFDDSN      44 00000008 FFFFFFBC     C   29223 29318M
 SMFDMEMB      8 00000034 FFFFFFBC     C   29224 29319M
 SMFDS       124 00000000 FFFFFFBC     J   29232 29294  29304U 29315M 29315  29393
 SMFLOG        1 00000000 0000002A     T   30905 30905
 SPACE         4 00000370 FFFFFFC0     F   15606 23773M 25187  25516
 SPANNED       1 00000008 FFFFFFC0 A   U   18095 25678
 SPR          13 0000000D 00000001 A   #    1184 19469  19472  19473  19474M 19474  19589M 19593  19595  19657  19660
                                                 19662  19663M 19663  20484M 20488  20490  20508  20511  20512  20513M
                                                 20513  20569M 20573  20575  20590  20593  20594  20595M 20595  20651M
                                                 20655  20657  20672  20675  20676  20677M 20677  20733M 20737  20739
                                                 20754  20757  20758  20759M 20759  20815M 20819  20821  20836  20839
                                                 20840  20841M 20841  20903M 20907  20909  20924  20927  20928  20929M
                                                 20929  20990M 20994  20996  21106  21109  21110  21111M 21111  21182M
                                                 21186  21188  21203  21206  21207  21208M 21208  21300M 21304  21306
                                                 21407  21410  21412  21413M 21413  21517M 21521  21523  22392  22395
                                                 22396  22397M 22397  22579M 22583  22585  22614  22617  22618  22619M
                                                 22619  22795M 22799  22801  22830  22833  22834  22835M 22835  22978M
                                                 22982  22984  23009  23012  23013  23014M 23014  23195M 23199  23201
                                                 27771  27774  27775  27776M 27776  28323M 28327  28329  28357  28360
                                                 28361  28362M 28362  28471M 28475  28477  29453  29456  29458  29459M
                                                 29459  29727M 29731  29733  29749  29752  29753  29754M 29754  29940M
                                                 29944  29946  30748  30751  30752  30753M 30753  30880M 30884  30886
 SPTRK         2 00000ADA FFFFFFC0     H   18028 25198M 25198  25215  26149M 26149  26154  30556M 30556  30567  32761M
 SRCHC         2 000008D2 FFFFFFC0     H   16254 15534  15556  15564  18990  18998  19001  32580  32583M 32584  33116
1DISK     (DISK4072) (12:42) (15MAR04) Ordinary Symbol and Literal Cross Reference                                          Page  195
 SRCHCCW       8 000001C0 FFFFFFC0     W   15516 15518  18232M 18233  18234  18983  32470
 SRCHH         2 000008D4 FFFFFFC0     H   16255 32572  32575M 32579M
 SRCHR         2 000008D6 FFFFFFC0     H   16256 32563  32568M 32571M
 SRCHSTRT      2 00003996 00000001     H   32185 32804B 32811B 33152B
 SRTEASCI      1 00000004 FFFFFFD5 A   U   12083 12084
 SRTEBSTR      1 00000004 FFFFFFD5 A   U   12082 12085
 STAEKEY       1 00004628 00000001     X   34875 34717M
 STAERETR      2 0000462A 00000001     I   34883 34810
 STARR         1 00000048 FFFFFFBA     X   33951 34032M
 STARRKDD      4 00000048 FFFFFFBA     F   33950 34031M
 STECB         4 00000128 FFFFFFC0     F   15430 33495  33789  33798M
 STOW          4 00003100 00000001     I   30418 30176B 30404B
 STOWCR1       2 000030E0 00000001     I   30400 30331B
 STOWDATA     62 00000304 FFFFFFC0     X   15581 30273M 30273  30274M 30275M 30276M 30277M 30278M 30279M 30280  30280M
 STOWLEN       1 00000303 FFFFFFC0     X   15580 15583  30284M
 STOWSZ        1 0000004A FFFFFFC0 A   U   15582 30266
 SUBSTAE       2 0000451E 00000001     H   34631 33678
 SUBTSKGO      2 00004140 00000001     H   33548 19045
 SUBTSKWT      4 0000425C 00000001     I   33787 33708B
 SVNWMBR       4 0000220A 00000001     I   25997 25887B
 SWKADKY       1 00000004 FFFFFFC0 A   U   15504 31963  31964
 SYNAD         4 0000345C 00000001     I   31101 27624
 SYSDSN        8 0000293E 00000001     C   27571 27184  27460
 SYSENQ        4 00001A78 00000001     I   24538 24471B 24478B 24480B 24493B 24511B
 SYSENQ2       4 00001AB4 00000001     I   24573 24565B
 SYSVTOC       8 00002946 00000001     C   27572 27415
 S99NOMNT      1 00000020 FFFFFFE3 A   U    7926 18949
 S99VRBAL      1 00000001 FFFFFFE3 A   U    7910 18948
 TCB           1 00000020 FFFFFFD8     U   10137 10836  34708U
 TCBAE         4 000000BC FFFFFFD8     A   10381 10384
 TCBDARPN      1 00000040 FFFFFFD8 A   U   10427 10429
 TCBDARTN      1 00000080 FFFFFFD8 A   U   10424 10426
 TCBFIX        1 00000000 FFFFFFD8     J   10125 10132
 TCBMNLEN      1 00000158 FFFFFFD8 A   U   10836 10881
 TCBPKF        1 0000003C FFFFFFD8     B   10187 34719
 TCBPXLEN      1 00000020 FFFFFFD8 A   U   10132 10881
 TCBRD         4 000000B8 FFFFFFD8     A   10376 10380
 TCBXTNT2      1 00000000 FFFFFFD7     J   10841 10879
 TCBX2LEN      1 00000020 FFFFFFD7 A   U   10879 10881
 TESTCAT       4 000019CE 00000001     I   24267 23796B 24004B 24041B 24066B 24084B 24103B 24169B 24194B 24212B 24231B
                                                 24249B
 TIC           1 00000008 FFFFFFC0 A   U   15497 15518  15520  15524  15526  15532  15540  15546  15558  18983  18984
                                                 18986  18987  18989  18992  18995  18999
 TIOEDDNM      8 0000001C FFFFFFD6     C   11060 18822  18835  18842  18847
 TIOEFSRT      3 00000029 FFFFFFD6     R   11100 18858
 TIOELNGH      1 00000018 FFFFFFD6     G   11017 18742
 TIOENTRY      1 00000018 FFFFFFD6     U   11016 18852
 TIOT          1 00000000 FFFFFFD6     J   10888 18714U
 TMSET         4 00002020 00000001     I   25639 24791B
 TRC           1 00000000 00000000 A   T    2189  2189
 TRKADDS1      5 00000A24 FFFFFFC0     X   17648 24777  24778  24784
 TRKBLK        4 0000003C FFFFFFBA     F   33927 34030M 34244
 TRKLIST      12 00000040 FFFFFFBA     C   33930 34028M 34028  34046
 TRKREGS       4 00000020 FFFFFFBA     F   33926 34040M 34052
 TRKWA        76 00000000 FFFFFFBA     J   33962 33987  34009U
 TRTB         16 000044BE 00000001     C   34611 34457
 TRYMOR        2 000008FC 00000001     I   19919 19981B 20032B 20210B
 TRY2          1 0000049C 00000001     X   18920 18701M 18701  18768  18809M
 TTYFLAG       1 00000004 FFFFFFEA     R    6277  6281
1DISK     (DISK4072) (12:42) (15MAR04) Ordinary Symbol and Literal Cross Reference                                          Page  196
 TTYMAX#       1 00000006 FFFFFFEA A   U    6333  6334
 TTYTFLAG      1 00000005 FFFFFFEA     R    6287  6291   6296   6301   6306   6311   6316   6321
 TYPECHNG      2 000025BE 00000001     I   26870 25145B 25147B 25170B
 UALAUTH       5 0000046E FFFFFFC0     C   15750 15744  18407
 UALLEN        2 0000046C FFFFFFC0     H   15749 18409M
 UCB           4 00000160 FFFFFFC0     A   15438 25563  28833M 28948M 31357M
 UCBALOC       1 00000008 FFFFFFD5 A   U   11625 11812
 UCBBALB       1 00000020 FFFFFFD5 A   U   11998 12079
 UCBBNUL       1 00000001 FFFFFFD5 A   U   12007 12086
 UCBBPRV       1 00000010 FFFFFFD5 A   U   12000 12080
 UCBBPUB       1 00000008 FFFFFFD5 A   U   12001 12081
 UCBBSTR       1 00000004 FFFFFFD5 A   U   12002 12082  12083
 UCBBSVL       1 00000080 FFFFFFD5 A   U   11984 12078
 UCBCHGS       1 00000040 FFFFFFD5 A   U   11615 11809
 UCBDADI       1 00000001 FFFFFFD5 A   U   11639 11815
 UCBDEV        1 00000018 FFFFFFD5     U   11823 11979  12205  12365  12381  12589  12611  12703  12733
 UCBDMCT       1 00000023 FFFFFFD5     X   12016 12087
 UCBDSECT      1 00000000 FFFFFFD5     J   11123 11978  12204  12364  12588  12702  12732  28779U
 UCBFLA        1 00000006 FFFFFFD5     B   11651 11652
 UCBFL1        1 00000006 FFFFFFD5     U   11652 11816
 UCBFSCT       2 00000018 FFFFFFD5     H   12206 12210
 UCBFSEQ       2 0000001A FFFFFFD5     H   12207 12211
 UCBJBNR       1 00000000 FFFFFFD5     B   11546 11805
 UCBMONT       1 00000001 FFFFFFD5 A   U   11567 11806
 UCBNRY        1 00000040 FFFFFFD5 A   U   11656 11657
 UCBONLI       1 00000080 FFFFFFD5 A   U   11614 11808  28813
 UCBPRES       1 00000004 FFFFFFD5 A   U   11635 11813
 UCBRESV       1 00000020 FFFFFFD5 A   U   11620 11810
 UCBSTAB       1 00000022 FFFFFFD5     B   11983 12077
 UCBSTAT       1 00000003 FFFFFFD5     B   11613 11807  28815
 UCBSYSR       1 00000002 FFFFFFD5 A   U   11637 11814
 UCBTR         1 00000034 FFFFFFD5     G   12279 12281
 UCBUNLD       1 00000010 FFFFFFD5 A   U   11622 11811
 UCBUSER       2 00000026 FFFFFFD5     G   12057 12058
 UCBVOLI       6 0000001C FFFFFFD5     C   11982 12076  28796
 UCE         100 00000000 FFFFFFE8     J    6736 29601U 29898U
 UCECOMP      16 0000000C FFFFFFE8     C    6713  6716   6716
 UCEFLAG       1 00000008 FFFFFFE8     R    6703  6707
 UCEWIO        4 0000004C FFFFFFE8     F    6724 29609  29610M 29906  29907M
 UDOPENX       2 00000778 00000001     H   19418 19382B 19395B 19403B
 UDOPEN1       4 00000746 00000001     I   19365 19360B
 UDOPXIT       2 0000077A 00000001     I   19422 19347B
 UNDEFIND      1 000000C0 FFFFFFC0 A   U   18090 24972  24981  25032  25098  25160  25671  25808  27274  27275
 UNPRESS       1 00000000 0000000D     T   21323 21323  23237
 UPDTSPAC      4 000037A4 00000001     I   31840 27230  30911  31839
 UPPTBL        1 00000000 00000000 A   T    2252  2252
 USCATL        4 000003B4 FFFFFFC0     F   15643 18314M 18316M 18318M 18475M 18478  23845
 USCATL2       4 000003C4 FFFFFFC0     F   15653 18320M 18322M 18324M 18326M 33183M 33189  33199M
 USELOOP       2 00000864 00000001     I   19779 19786B
 USELRECL      4 00002094 00000001     I   25680 25674B
 USEOPEN       4 0000070A 00000001     I   19313 19331B
 VALLOCAT      4 00003538 00000001     I   31235 27211  31234
 VALLODN       2 00003646 00000001     I   31401 31195B 31199B 31230B 31373B 31376B 31379B 31382B 31385B 31388B
 VALLORC       4 000035A4 00000001     I   31335 31231B
 VCHKEXIT      2 00002B24 00000001     H   28458 28442B
 VDALLO        4 00003486 00000001     I   31155 27210  30918  31154  33726
 VDATRC        2 0000352E 00000001     I   31229 31226B
 VDAVOL        4 000034C0 00000001     I   31197 31187B 31189B
 VDAWTOF       6 00003502 00000001     I   31211 31207B
1DISK     (DISK4072) (12:42) (15MAR04) Ordinary Symbol and Literal Cross Reference                                          Page  197
 VFLG1         1 00000008 FFFFFFC2     X   15287 18692  18879M 28612  28650  28693  28709  28728  28740M 28850  28878M
                                                 28889  28903M 28930M 28998  29040M 29064  31198  31206  31211  31212M
                                                 31356M
 VFLG2         1 00000009 FFFFFFC2     X   15298 24538  28574  28593  28942M 28963  29011M 29051M 31213M 31214M 31224M
                                                 31274  31307  31323M 31333M
 VFLG3         1 0000000A FFFFFFC2     X   15305 28631
 VF1AVAIL      1 00000040 FFFFFFC2 A   U   15290 18692  28610  28901  31356
 VF1CLR        1 00000008 FFFFFFC2 A   U   15293 29038  31206  31212
 VF1ON         1 00000001 FFFFFFC2 A   U   15296 18879  28691  28738  28876  31198
 VF1PDA        1 00000010 FFFFFFC2 A   U   15292 28707  28928  31212
 VF1PRES       1 00000080 FFFFFFC2 A   U   15289 28726  28848  28887  28996  29062
 VF1PRIV       1 00000020 FFFFFFC2 A   U   15291 28648
 VF2ADACT      1 00000010 FFFFFFC2 A   U   15303 31214  31224  31323  31333
 VF2ALLO       1 00000080 FFFFFFC2 A   U   15300 28572  29049  31274  31333
 VF2DALLO      1 00000040 FFFFFFC2 A   U   15301 24538  28591  28940  28961  31227
 VF2MOUNT      1 00000008 FFFFFFC2 A   U   15304 31305  31333
 VF2QUIET      1 00000020 FFFFFFC2 A   U   15302 29009
 VF3BKUP       1 00000040 FFFFFFC2 A   U   15308 28629
 VMSGOK        4 00004062 00000001     I   33378 33370B
 VNAME         6 00000002 FFFFFFC2     C   15285 28431  28531  29027  29052M 31208M 31320
 VOLBKUP       4 00002C8A 00000001     I   29087 28634B
 VOLCHK        2 00002AE2 00000001     H   28351 28347
 VOLDSECT      1 00000000 FFFFFFC2     J   15283 15336  18686U 24433U 28396U 28414  28514U 28549  31182U 32130U
 VOLENTRY      4 00000164 FFFFFFC0     A   15439 24423  28834M 28949M 31184  31273  32120
 VOLENTSZ      1 00000044 FFFFFFC2 A   U   15336 18881  28447  28537
 VOLFRTRK      4 00000008 FFFFFFC1     F   15354 15357  15357
 VOLJUNK      20 00000010 FFFFFFC2     U   15320 31209M 31209
 VOLNTCUR      4 00002C82 00000001     I   29084 28615B 28712B 28746B 28931B
 VOLOPNS       2 00000010 FFFFFFC2     H   15313 15320  15320  32138  32139M
 VOLOWNF1      1 00000030 FFFFFFC2     X   15331 15335  15335
 VOLOWNR      20 00000030 FFFFFFC2     U   15335 31210M 31210
 VOLUCBAD      4 00000024 FFFFFFC2     A   15324 18880M 28760  31205M 31285  31353M
 VOLUSECT      2 00000028 FFFFFFC2     H   15325 18878M 28917  31185  31190M 31197M 31371  31372M
 VRADAT        1 00000002 FFFFFFC5     G   14180 14184
 VRAKL         2 00000000 FFFFFFC5     G   14172 14184
 VTOC          4 000003D4 FFFFFFC0     F   15664 18328M 18330M 18332M 18334M 32042
 VTOCAREA      8 00000720 FFFFFFC0     D   16052 15671  18333
 VTOCBEG       4 0000075F FFFFFFC0     C   16186 32073
 VTOCCCW       3 00000356 FFFFFFC0     R   15598 18281M 31948
 VTOCEND       4 00000763 FFFFFFC0     C   16187 32071
 VTOCERR       4 00003A9A 00000001     I   32537 31966B 32034  32059B 32083  32164B 32486B 32595B 33020B 33115B 33165B
                                                 33179B 33195B 33376B
 VTOCLP        4 0000388E 00000001     I   31983 31977B
 VTOCMSG       4 00004036 00000001     I   33364 31986B 32772B 33109B 33238B 33284B
 VTOCRET       4 00003FA8 00000001     I   33288 32538B 32818B 32858B 32934B 32961B 32967B
 VTOCRET1      4 00004006 00000001     I   33340 33317B
 VTOCRET3      4 0000400C 00000001     I   33344 32062B 33303B
 VTOCRET4      2 00004016 00000001     I   33347 33290B
 VTOCSV        4 00000884 FFFFFFC0     F   16191 33364M 33397
 VTOCWT        4 0000409A 00000001     I   33402 32497B 32592B
 VTOC3         4 000003E4 FFFFFFC0     F   15674 18336M 18337M 18339M 18341M 18343M 32424  32737
 VTRX          2 00004028 00000001     I   33358 32767B
 VTYPE         2 00000000 FFFFFFC2     C   15284 18777  18778  18822  18835  18841  18847M 24477  24479  28563  28835
                                                 29053  31203  31319
 WAABEND       4 00000180 FFFFFFC0     A   15465 25556M 25762M 25820M 25820  26198M 26855M 26855  30415M 30460M 30545M
                                                 30545  30616M 30676M 30676  32035M 32053M 32053  32084M 32119M 32119
                                                 32873M 32890M 32890  34750M 34750  34920  34928M 34928
 WACPR         4 00000130 FFFFFFC0     A   15432 33447M 33794
 WADECB        4 00000018 FFFFFFC0     A   15421 18224M
1DISK     (DISK4072) (12:42) (15MAR04) Ordinary Symbol and Literal Cross Reference                                          Page  198
 WAGRP         2 00000187 FFFFFFC0     C   15468 27334M
 WAITBAD       2 0000427E 00000001     I   33804 33489B
 WAITOFF       2 000040C8 00000001     H   33442 31650B 32037B 32086B 32219B 32421B 32734B 32824B 32875B 33186B 33311B
                                                 33439
 WAITOFF       1 00000000 00000020     T   27201 27201  30909
 WAITON        4 0000424A 00000001     I   33759 31670B 32046B 32112B 32309B 32429B 32741B 32833B 32883B 33193B 33758
 WAITON        1 00000000 00000021     T   27203 27203  30910  33725
 WAITONP       2 00004254 00000001     I   33781 35004
 WAITRET       4 00004126 00000001     I   33535 33499B
 WALINAR       1 00000028 FFFFFFC0     X   15427 20215
 WAR           8 00000008 00000001 A   #    1107 19473M 19549  19589  19662M 20484  20512M 20569  20594M 20651  20676M
                                                 20733  20758M 20815  20840M 20903  20928M 20990  21110M 21168  21170
                                                 21182  21207M 21286  21288  21300  21412M 21517  22396M 22579  22618M
                                                 22795  22834M 22978  23013M 23195  27775M 28323  28361M 28471  29458M
                                                 29727  29753M 29940  30752M 30880  34009U
 WAR14         4 00000134 FFFFFFC0     F   15433 15434  33448M 33535  33759M 33795  34921M
 WASTACK#      1 00000400 FFFFFFC0 A   N   15435 33732
 WASTACKP      4 0000015C FFFFFFC0     A   15436 33625M 33796  34917
 WATCB         4 00000024 FFFFFFC0     A   15425 18432M 19227  34698
 WAUSER        3 00000184 FFFFFFC0     C   15467 27333M
 WAVFLG1       1 00000178 FFFFFFC0     X   15458 31211M
 WAVFLG2       1 00000179 FFFFFFC0     X   15459 31227
 WORKXEOV      4 0000121E 00000001     I   22051 21677B 21843B 21962B
 WRERROR       2 0000131C 00000001     I   22306 23236
 WRITOK        4 0000115C 00000001     I   21848 21842B
 WTOSG         1 00000000 00000000 A   T    2149  2149
 WYLCVOL       4 000042A8 00000001     I   33885 19049
 WYLDISK       1 00000000 00000001     J     991   993   1063   1076   1089   1102   1115   1127   1140   1153   1166
                                                  1179   1192   1205   2433   2517   6257   6369   6681   6737   6799
                                                  6846  15340  15365  18098  27669
 WYLDISK2      1 00004790 00000029     J   27591 27593
 WYLVOL        6 000042C4 00000001     C   33901 19048  33900  34995
 XTNTALL       4 00003C7A 00000001     I   32761 32712B 32729B 32745B
 XTNTDONE      4 00003C22 00000001     I   32725 32715B
 XTNTFMT3      4 00003C52 00000001     I   32747 32743B
 XTNTLP        4 00003BF8 00000001     I   32714 32726B
 =A(ALOBASE)
               4 0000366C 00000001     A   31419 31259
 =A(CALCTRK)
               4 000027A4 00000001     A   27218 24908  25207
 =A(CATER)
               4 00002770 00000001     A   27205 24019  25626  26051  26247  26526  26963
 =A(CATER)
               4 00003354 00000001     A   30919 30690
 =A(CLRJFCB)
               4 00002798 00000001     A   27215 24678
 =A(CLRJFCB)
               4 000041F4 00000001     A   33718 32098
 =A(CVPSZ-3)
               4 0000421C 00000001     A   33728 33368
 =A(DCATLG)
               4 0000277C 00000001     A   27208 24307  26334  26586  26634  26712  26724
 =A(DCATLG)
               4 0000335C 00000001     A   30921 30702
 =A(DCBEXIT)
               4 000027B4 00000001     A   27222 25631
 =A(DCLOSE)
               4 00000F00 00000001     A   21321 19406
 =A(DCLOSE)
1DISK     (DISK4072) (12:42) (15MAR04) Ordinary Symbol and Literal Cross Reference                                          Page  199
               4 00001668 00000001     A   23241 22227
 =A(DCLOSE)
               4 000027D0 00000001     A   27229 26366  26697
 =A(DCLOSE)
               4 00003658 00000001     A   31414 31054
 =A(DENQTEST)
               4 00002790 00000001     A   27213 24573
 =A(DOPBASE)
               4 00001820 00000001     A   23695 23525
 =A(DOUCBSR)
               4 00002780 00000001     A   27209 24317
 =A(DOWYLCVL)
               4 00002764 00000001     A   27202 23856
 =A(DOWYLCVL)
               4 000041E4 00000001     A   33714 31662
 =A(DSKWRT2)
               4 00001644 00000001     A   23232 21500  22173  22219
 =A(DVTOC)
               4 0000278C 00000001     A   27212 24566
 =A(DVTOC2)
               4 000027A8 00000001     A   27219 25201  26152
 =A(DVTOC2)
               4 00003344 00000001     A   30915 30559
 =A(DWRITE)
               4 00001650 00000001     A   23235 21674  21840  21959
 =A(ENCODE)
               4 0000164C 00000001     A   23234 21660  21950
 =A(FOURMODL)
               4 00000600 00000001     A   19044 18381
 =A(FOURMODL)
               4 0000330C 00000001     A   30901 27269
 =A(GETVOL)
               4 00002778 00000001     A   27207 24267
 =A(GOCLRNW)
               4 00000F14 00000001     A   21326 19739  20557  20639  20721  20803  20891
 =A(INVARDS)
               4 00000F24 00000001     A   21330 19908  20086  20109  20130
 =A(IOWAGLEN)
               4 000005EC 00000001     A   19039 18150  18158
 =A(L'DRDID)
               4 00003328 00000001     A   30908 29651
 =A(L'SMFDCMD)
               4 00003318 00000001     A   30904 29324  29336
 =A(LOGDS)
               4 00002758 00000001     A   27199 23766
 =A(LXCATE)
               4 00000F04 00000001     A   21322 19506
 =A(LXERRB)
               4 00000F34 00000001     A   21334 20201
 =A(LXERRC)
               4 00000F3C 00000001     A   21336 20288  20312  20453  21247
 =A(LXNMPRT)
               4 00000F40 00000001     A   21337 20370
 =A(LXNMPRT2)
               4 00000F48 00000001     A   21339 20417
 =A(MAXERR)
               4 00004738 00000001     A   34999 34367
 =A(MODELDCB)
               4 000005FC 00000001     A   19043 18378
1DISK     (DISK4072) (12:42) (15MAR04) Ordinary Symbol and Literal Cross Reference                                          Page  200
 =A(MODELDCB)
               4 00003308 00000001     A   30900 27267
 =A(MODLENQ)
               4 00001670 00000001     A   23243 22422  22731  23135
 =A(MODLENQ)
               4 0000275C 00000001     A   27200 23774
 =A(NOEMSG)
               4 00000F2C 00000001     A   21332 20056
 =A(NOGGODY)
               4 00000F20 00000001     A   21329 19824  19880
 =A(OPENENQ)
               4 00002794 00000001     A   27214 24607
 =A(OPENINIT)
               4 00002754 00000001     A   27198 23733
 =A(RELIOWA)
               4 000027D8 00000001     A   27231 26936
 =A(RELIOWA)
               4 00003358 00000001     A   30920 30694  30708
 =A(RELIOWA)
               4 00004218 00000001     A   33727 33352
 =A(SUBTSKGO)
               4 00000604 00000001     A   19045 18412
 =A(UPDTSPAC)
               4 000027D4 00000001     A   27230 26928
 =A(UPDTSPAC)
               4 00003334 00000001     A   30911 30234
 =A(VALLOCAT)
               4 00002788 00000001     A   27211 24557  26707
 =A(VDALLO)
               4 00002784 00000001     A   27210 24542  26717  26858
 =A(VDALLO)
               4 00003350 00000001     A   30918 30681
 =A(VDALLO)
               4 00004214 00000001     A   33726 33344
 =A(WAITONP)
               4 0000474C 00000001     A   35004 34932
 =A(WASTACK#)
               4 0000422C 00000001     A   33732 33620
 =A(WRERROR)
               4 00001654 00000001     A   23236 21680  21846  21965
 =A(WYLCVOL)
               4 00000614 00000001     A   19049 18499
 =A(WYLVOL)
               4 00000610 00000001     A   19048 18497
 =A(WYLVOL)
               4 00004728 00000001     A   34995 33887
 =A(X'FF')
               4 0000334C 00000001     A   30917 30678
 =A(X'FFFF')
               4 0000472C 00000001     A   34996 34029
 =A(X'1F')
               4 000027C0 00000001     A   27225 25928
 =A(X'7FFF')
               4 00000F1C 00000001     A   21328 19807
 =A(X'80000000')
               4 00004228 00000001     A   33731 33601
 =A(0)         4 00004200 00000001     A   33721 32903
 =A(1)         4 0000276C 00000001     A   27204 23913
 =A(12)        4 0000060C 00000001     A   19047 18491
1DISK     (DISK4072) (12:42) (15MAR04) Ordinary Symbol and Literal Cross Reference                                          Page  201
 =A(12)        4 00003340 00000001     A   30914 30432
 =A(15*100)
               4 000006E8 00000001     A   19277 19117
 =A(2)         4 00001648 00000001     A   23233 21603
 =A(32)        4 000027AC 00000001     A   27220 25445  25457
 =A(320)       4 000027B0 00000001     A   27221 25464  25476
 =A(32760)
               4 000027B8 00000001     A   27223 25663
 =A(4)         4 000041FC 00000001     A   33720 32321  32926  33694
 =A(56)        4 000041E8 00000001     A   33715 31699
 =A(8)         4 00002774 00000001     A   27206 24038
 =A(8)         4 00003310 00000001     A   30902 27541
 =A(8)         4 00004204 00000001     A   33722 32950
 =AL1(60)      1 0000061E 00000001     R   19053 18151
 =AL2(1)       2 00000618 00000001     R   19050 18277
 =AL2(1,BLDLSZ)
               2 000005F8 00000001     R   19042 18275
 =AL2(20)      2 0000061A 00000001     R   19051 18409
 =AL2(235)
               2 00000F5C 00000001     R   21345 20144  20146
 =AL2(32760)
               2 000027E4 00000001     R   27234 24883  24956  24988
 =AL2(64)      2 00004234 00000001     R   33735 32261
 =AL2(6447)
               2 000027E6 00000001     R   27235 24900
 =AL3(1)       3 00004241 00000001     R   33741 33200
 =C'.  Dsname='
              10 00004764 00000001     C   35007 34489
 =C', Volume='
               9 00004773 00000001     C   35010 34529
 =C'Command incomplete.'
              19 00000FCD 00000001     C   21352 20961
 =C'CVPL'      4 000041F8 00000001     C   33719 32260
 =C'Data set read error.  Proceeding.'
              33 0000168D 00000001     C   23251 22269
 =C'Data set write error.  Command stopped.'
              39 000016AE 00000001     C   23252 22323
 =C'Delta too big.'
              14 00000F76 00000001     C   21348 20623
 =C'Disk error during '
              18 00004752 00000001     C   35006 34342
 =C'DENQ'      4 00001678 00000001     C   23245 22521  22696  22912  23090
 =C'EDT'       3 0000061F 00000001     C   19054 18531
 =C'FENQ'      4 00001684 00000001     C   23248 23161
 =C'Invalid edit format block.'
              26 00000F84 00000001     C   21349 20705
 =C'Invalid variable length block.'
              30 00000F9E 00000001     C   21350 20787
 =C'LRECL invalid.'
              14 000027EC 00000001     C   27238 27157
 =C'Numbered invalid.'
              17 00000FBC 00000001     C   21351 19412
 =C'Numbered option error.'
              22 00000F60 00000001     C   21347 20541
 =C'Please wait ...'
              15 0000182B 00000001     C   23697 23601
 =C'PUB001'
               6 0000336A 00000001     C   30925 28269
 =C'Queued.'
1DISK     (DISK4072) (12:42) (15MAR04) Ordinary Symbol and Literal Cross Reference                                          Page  202
               7 00001824 00000001     C   23696 23442
 =C'Read buffer check failed...'
              27 00003385 00000001     C   30930 29679
 =C'RC='       3 00004770 00000001     C   35009 34410
 =C'SAV'       3 0000168A 00000001     C   23250 22206
 =C'SUBSTAE entered'
              15 0000477C 00000001     C   35011 34651
 =C'SYSC '
               5 00000622 00000001     C   19055 18621
 =C'WYL.'      4 00000608 00000001     C   19046 18474
 =C'WYL.GA.PUB.'
              11 0000337A 00000001     C   30929 29283
 =C'WYL0'      4 000027BC 00000001     C   27224 25918
 =C'WYL0'      4 00003338 00000001     C   30912 30274
 =C'XENQ'      4 0000167C 00000001     C   23246 22757
 =CL(L'DRDID)'DATABUF 11223344'
              16 000032F8 00000001     C   30899 29536
 =CL6'      '
               6 00003370 00000001     C   30926 29176
 =CL8'IOWA'
               8 000005E0 00000001     C   19037 18197
 =CL8'PUBDS'
               8 000032F0 00000001     C   30898 29379
 =CL8'READERR'
               8 00001630 00000001     C   23229 22283
 =CL8'WRITERR'
               8 00001638 00000001     C   23230 22320
 =F'-1'        4 0000420C 00000001     F   33724 33175  33278
 =F'100'       4 00003348 00000001     F   30916 30589  30603
 =F'65539'
               4 00000F18 00000001     F   21327 19776
 =F'65539'
               4 00001664 00000001     F   23240 22081
 =FL8'1'       8 000041D8 00000001     G   33712 33261
 =H'-2'        2 00003378 00000001     H   30928 30439
 =H'0'         2 0000061C 00000001     H   19052 18878
 =H'0'         2 00000F58 00000001     H   21343 19978
 =H'1'         2 00004236 00000001     H   33736 32637
 =H'2'         2 00001688 00000001     H   23249 21785
 =H'20'        2 000027EA 00000001     H   27237 25930
 =H'366'       2 00004238 00000001     H   33737 32651
 =H'4'         2 00000F5A 00000001     H   21344 20094
 =H'4'         2 00004232 00000001     H   33734 32058
 =H'40'        2 00003670 00000001     H   31420 31335
 =H'512'       2 00004750 00000001     H   35005 34221
 =H'6'         2 00003368 00000001     H   30924 28220
 =H'8'         2 00004230 00000001     H   33733 31673  31751  32056
 =V(ACCESS)
               4 0000279C 00000001     V   27216 24768
 =V(ACEECLR)
               4 00003360 00000001     V   30922 30822
 =V(ACEECLR)
               4 000041E0 00000001     V   33713 31646
 =V(ACEESET)
               4 00002750 00000001     V   27197 23728
 =V(ACSCHECK)
               4 00000EF4 00000001     V   21318 19329
 =V(ADDER)
               4 00000F30 00000001     V   21333 20185
1DISK     (DISK4072) (12:42) (15MAR04) Ordinary Symbol and Literal Cross Reference                                          Page  203
 =V(AMODE24)
               4 000027C4 00000001     V   27226 26010
 =V(AMODE24)
               4 00003320 00000001     V   30906 29550  29847  30205
 =V(AMODE24)
               4 0000365C 00000001     V   31415 31061
 =V(AMODE31)
               4 000027C8 00000001     V   27227 26031
 =V(AMODE31)
               4 00003324 00000001     V   30907 29563  29860  30215
 =V(AMODE31)
               4 00003660 00000001     V   31416 31088
 =V(BTD)       4 000005F4 00000001     V   19041 18219
 =V(CHKMBRIG)
               4 00000EFC 00000001     V   21320 19365
 =V(CV)        4 00004224 00000001     V   33730 33566
 =V(CV)        4 00004748 00000001     V   35003 34666  34905
 =V(CVEXNO)
               4 0000165C 00000001     V   23238 21764
 =V(DISPATCH)
               4 00003664 00000001     V   31417 31140
 =V(DISPATCH)
               4 00004220 00000001     V   33729 33424  33518
 =V(DOPEN)
               4 00000EF0 00000001     V   21317 19324
 =V(DREAD)
               4 00000F0C 00000001     V   21324 19717
 =V(DYNALLOC)
               4 00003668 00000001     V   31418 31222  31331
 =V(EDITCK)
               4 00000F28 00000001     V   21331 20040
 =V(EOV)       4 00001660 00000001     V   23239 22051
 =V(EXIT4)
               4 000027DC 00000001     V   27232 27089
 =V(EXIT5)
               4 000041EC 00000001     V   33716 31879
 =V(EXTCLOSE)
               4 00000F50 00000001     V   21341 20955
 =V(FREECORE)
               4 00001680 00000001     V   23247 22762  23166
 =V(FREERSC)
               4 00003364 00000001     V   30923 30838
 =V(GETCORE)
               4 00001674 00000001     V   23244 22498
 =V(GETRSC)
               4 00001810 00000001     V   23691 23337  23507  23660
 =V(IOWRSG)
               4 000005E8 00000001     V   19038 18130
 =V(IOWRSG)
               4 000006EC 00000001     V   19278 19123
 =V(KWIO)      4 000027A0 00000001     V   27217 24865
 =V(KWIO)      4 00003314 00000001     V   30903 27983
 =V(LASTLINE)
               4 00000F54 00000001     V   21342 20977
 =V(NSCAN)
               4 00000F44 00000001     V   21338 20374  20421
 =V(NTGDOPN)
               4 00000EF8 00000001     V   21319 19355
 =V(PFREEA)
1DISK     (DISK4072) (12:42) (15MAR04) Ordinary Symbol and Literal Cross Reference                                          Page  204
               4 00001814 00000001     V   23692 23369
 =V(PFREEB)
               4 00001818 00000001     V   23693 23375
 =V(PMARKA)
               4 000041F0 00000001     V   33717 31973  33395
 =V(PRESS)
               4 00000F38 00000001     V   21335 20240
 =V(PRESS)
               4 00001640 00000001     V   23231 21495
 =V(QRSC)      4 000005F0 00000001     V   19040 18186
 =V(RACGREM)
               4 000027CC 00000001     V   27228 26276
 =V(RDERROR)
               4 00000F10 00000001     V   21325 19723
 =V(SEG)       4 00004730 00000001     V   34997 34352  34420  34484  34499  34539
 =V(SEGB)      4 00000F4C 00000001     V   21340 20553  20635  20717  20799  20887  20973
 =V(SEGCR)
               4 000027E0 00000001     V   27233 27169
 =V(SEGT)      4 00004740 00000001     V   35001 34524  34565
 =V(SEGTB)
               4 0000473C 00000001     V   35000 34405
 =V(SEGWR)
               4 0000166C 00000001     V   23242 22281
 =V(SEGWR)
               4 0000181C 00000001     V   23694 23454  23613
 =V(SEGWR)
               4 00004744 00000001     V   35002 34588
 =V(SMFLOG)
               4 0000331C 00000001     V   30905 29396
 =V(UNPRESS)
               4 00000F08 00000001     V   21323 19545
 =V(UNPRESS)
               4 00001658 00000001     V   23237 21699
 =V(WAITOFF)
               4 00002760 00000001     V   27201 23843  24602  25559  25765  25865  26059  26201  26424  26680  26742
 =V(WAITOFF)
               4 0000332C 00000001     V   30909 30101  30418  30463  30619
 =V(WAITON)
               4 00002768 00000001     V   27203 23864  24674  25568  25812  25877  26068  26210  26433  26692  26847
 =V(WAITON)
               4 00003330 00000001     V   30910 30112  30537  30668
 =V(WAITON)
               4 00004210 00000001     V   33725 33340
 =X'FFFF'      2 0000476E 00000001     X   35008 34791
 =X'0000001F'
               4 00004208 00000001     X   33723 33028
 =XL3'0'       3 0000423E 00000001     X   33740 33180
 =XL4'0000000F'
               4 00004734 00000001     X   34998 34355
 =XL4'10000'
               4 0000333C 00000001     X   30913 30386
 =Y((12+3)/4*4)
               2 00000F5E 00000001     Y   21346 20380  20427
 =Y(235)       2 000027E8 00000001     Y   27236 25003
 =Y(256)       2 0000423A 00000001     Y   33738 33019
 =Y(32760)
               2 00003376 00000001     Y   30927 29546
 =Y(4)         2 0000423C 00000001     Y   33739 33430

1DISK     (DISK4072) (12:42) (15MAR04) Macro and Copy Code Source Summary                                                   Page  205
- Con Source                                        Volume    Members                        HLASM R4.0  2004/03/15 12.42
0     PRIMARY INPUT                                           CAMINIT  CSECT    DROP     END      EX       LTORG    POP
                                                              PRINT    PUSH     START    USING
   L1 WYL.GS.WYL.WYLBUR.MACLIB                      SYSB05    ABORT    AINFO    ALLOPARM BASE     BTD      CCWP
                                                              COLINFO  COMMENT  CONTROL  COUNT    CP       CPLOCAL  CV
                                                              CVLOCAL  DIOWAHDR DOPEN    DOWYLCVL DYNALO   ERROR    FAIL
                                                              FREERSC  GETRSC   IOWA     JCB      KAPUT    KREAD
                                                              LENTER   LEXIT    PAUSE    PFREE    PMARK    QRSC     RG
                                                              RSCGROUP RSCHDR   RTNCODES SCAN     SCANCB   SCATBUF
                                                              SCCBADR  SCINIT   SCKW     SCPOP    SCPUSH   SDSNBUF  TSEG
                                                              TTYPE    UCE      VLTORG   VOLINFO  VOLUME   WAITOFF
                                                              WAITON   XENTER   XEXIT    XSA      XTRACE   XWTO
   L2 WYL.GG.SYS.MACLIB                             SYSB05    $BC      $BFLKUP  $BV      $CCLKUP  $CRS     $CSS     $L
                                                              $LA      $LBLAD   $LEXP    $LOR     $REL     $RGLKUP
                                                              $USLKUP  ACALL    BEGIN    CEIL     CLEAR    COMPROC
                                                              CSECT    C2       DATA     DECR     DEFCC    DEX      DROP
                                                              DTEX     ELSE     ELSEIF   END      EX       FLAG
                                                              FLOOR    GEN      HIBAL    IDENT    IF       INCR
                                                              LABEL    LC       LCALL    LCM      LOOP     LS       LT
                                                              LTH      LTORG    L2       L3       MOVE     PEND     POP
                                                              PRETURN  PRINT    PROC     PUSH     QLTORG   RECORD   REG
                                                              REGS     SET      SETMSG   START    ST3      SYSLR
                                                              UNTIL    USING    VCALL    WHILE    WITH     XPROC
   L3 SYS3.IS.MACLIB                                SYSB05    DVTAREA  KWR      SEG      SEGCB    SEGLD    SEGT
                                                              SEGTB    SEGWR    SIB      SYSDEFN  XPOP     XPUSH
   L4 SYS3.MACLIB                                   SYSB02    QSNAP
   L5 SYS1.MACLIB                                   MVSBR9    ABEND    ATTACH   BLDL     CAMLST   CATALOG  CHAP
                                                              CHECK    CLOSE    CVT      DCB      DCBD     DEQ
                                                              DETACH   DEVTYPE  DYNALLOC ENQ      ESPIE    ESTAE    EXCP
                                                              FIND     FREEMAIN GETMAIN  IDENTIFY IEFJESCT IEFJFCBN
                                                              IEFSJDKY IEFTIOT1 IEFUCBOB IEFZB4D0 IEFZB4D2 IHASDWA
                                                              IHAVRA   IHBERMAC IHBINNRA IHBINNRR IHBRDWRS IHB01
                                                              IKJTCB   LOAD     LOCATE   MODESET  NOTE     OPEN     POST
                                                              RACHECK  RACINIT  RDJFCB   READ     RENAME   RETURN   SAVE
                                                              SCRATCH  SETRP    SPLEVEL  STIMER   STOW     SYSSTATE TIME
                                                              TRKCALC  TTIMER   WAIT     WRITE    WTO
   L6 SYS1.MODGEN                                   MVSBR9    CVAFDIR  CVAFSEQ  ICHEACTN ICHEIN   ICHEINTY ICHEOPT
                                                              IECDUCBC IECDUCBD IECDUCBE IECDUCBG IECDUCBT IECDUCBU
                                                              IECSDSL1 IEZATTCH IEZBITS  IOSDUCBC OBTAIN

1DISK     (DISK4072) (12:42) (15MAR04) Dsect Cross Reference                                                                Page  206
-Dsect     Length      Id       Defn                                                         HLASM R4.0  2004/03/15 12.42
0$$$@R0   00000000  FFFFFFFE     706
 $$$@R1   00000000  FFFFFFFD     719
 $$$@R10  00000000  FFFFFFF4     836
 $$$@R11  00000000  FFFFFFF3     849
 $$$@R12  00000000  FFFFFFF2     862
 $$$@R13  00000000  FFFFFFF1     875
 $$$@R14  00000000  FFFFFFF0     888
 $$$@R15  00000000  FFFFFFEF     901
 $$$@R2   00000000  FFFFFFFC     732
 $$$@R3   00000000  FFFFFFFB     745
 $$$@R4   00000000  FFFFFFFA     758
 $$$@R5   00000000  FFFFFFF9     771
 $$$@R6   00000000  FFFFFFF8     784
 $$$@R7   00000000  FFFFFFF7     797
 $$$@R8   00000000  FFFFFFF6     810
 $$$@R9   00000000  FFFFFFF5     823
 $$$RCP   00001000  FFFFFFEC    2522
 $$$RCV   00000FB0  FFFFFFEE    1247
 $$$RDENQENT
          00000038  FFFFFFBD   22337
 $$$RDEV  0000000C  FFFFFFEB    4736
 $$$RDRDWA
          00000010  FFFFFFBB   29425
 $$$RDWWA 00000200  FFFFFFBE   21377
 $$$RJCB  000000D0  FFFFFFE9    6406
 $$$RLXCATEWA
          00000004  FFFFFFBF   19629
 $$$RNSCNCB
          000000B0  FFFFFFED    2443
 $$$RRESOURCE
          00000018  FFFFFFE6    6804
 $$$RRSCGROUP
          0000003C  FFFFFFE7    6743
 $$$RSMFDS
          0000007C  FFFFFFBC   29216
 $$$RTRKWA
          0000004C  FFFFFFBA   33914
 $$$RTTYPE
          0000010C  FFFFFFEA    6267
 $$$RUCE  00000064  FFFFFFE8    6686
 $$$RVOLINFO
          00000014  FFFFFFC1   15346
 ATTCHLST 00000048  FFFFFFDD    8561
 CVT      00000500  FFFFFFDC    8837
 CVTVSTGX 00000050  FFFFFFDB    9857
 CVTXTNT1 0000000C  FFFFFFDA    9896
 CVTXTNT2 00000084  FFFFFFD9    9904
 HIBAL    00000000  FFFFFFFF     692
 IHADCB   00000060  FFFFFFE5    6854
 IOWA     00008718  FFFFFFC0   15377
 JESCT    00000080  FFFFFFC4   15095
 JESPEXT  00000098  FFFFFFC3   15210
 SDWA     00000298  FFFFFFCE   13028
 SDWANRC1 000000F0  FFFFFFC8   13996
 SDWANRC2 00000010  FFFFFFC7   14005
1DISK     (DISK4072) (12:42) (15MAR04) Dsect Cross Reference                                                                Page  207
 SDWANRC3 000000F0  FFFFFFC6   14018
 SDWAPTRS 00000020  FFFFFFC9   13981
 SDWARC1  000001C8  FFFFFFCD   13669
 SDWARC2  00000010  FFFFFFCC   13888
 SDWARC3  00000020  FFFFFFCB   13900
 SDWARC4  00000150  FFFFFFCA   13950
 SVC99KYS 00000000  FFFFFFDE    8270
 S99RB    00000014  FFFFFFE3    7906
 S99RBP   00000004  FFFFFFE4    7903
 S99RBX   00000024  FFFFFFDF    8039
 S99TUFLD 00000003  FFFFFFE0    8033
 S99TUNIT 00000007  FFFFFFE1    8024
 S99TUPL  00000004  FFFFFFE2    8018
 TCBFIX   00000178  FFFFFFD8   10125
 TCBXTNT2 00000020  FFFFFFD7   10841
 TIOT     00000040  FFFFFFD6   10888
 UCBCMEXT 00000020  FFFFFFD4   11842
 UCBDSECT 00000040  FFFFFFD5   11123
 UCBOCR   00000008  FFFFFFD3   12398
 UCBPDCTA 00000010  FFFFFFCF   12549
 UCBUCS   00000014  FFFFFFD0   12507
 UCB3540X 00000008  FFFFFFD2   12414
 UCB3800X 00000028  FFFFFFD1   12444
 VOLDSECT 00000044  FFFFFFC2   15283
 VRAMAP   00000002  FFFFFFC5   14171

1DISK     (DISK4072) (12:42) (15MAR04) Using Map                                                                            Page  208
-                                                                                            HLASM R4.0  2004/03/15 12.42
   Stmt  -----Location----- Action ----------------Using----------------- Reg Max    Last  Label and Using Text
           Count      Id           Type          Value    Range     Id        Disp   Stmt
0   923  00000000  FFFFFFFF USING  ORDINARY    00000000 00001000 FFFFFFEF  15 00A   25521  @R15,15
    927  00000000  FFFFFFFF USING  ORDINARY    00000000 00001000 FFFFFFF0  14 002   21274  @R14,14
    931  00000000  FFFFFFFF USING  ORDINARY    00000000 00001000 FFFFFFF1  13 004   34320  @R13,13
    935  00000000  FFFFFFFF USING  ORDINARY    00000000 00001000 FFFFFFF2  12 000          @R12,12
    939  00000000  FFFFFFFF USING  ORDINARY    00000000 00001000 FFFFFFF3  11 000          @R11,11
    943  00000000  FFFFFFFF USING  ORDINARY    00000000 00001000 FFFFFFF4  10 000          @R10,10
    947  00000000  FFFFFFFF USING  ORDINARY    00000000 00001000 FFFFFFF5   9 002   33381  @R9,9
    951  00000000  FFFFFFFF USING  ORDINARY    00000000 00001000 FFFFFFF6   8 000          @R8,8
    955  00000000  FFFFFFFF USING  ORDINARY    00000000 00001000 FFFFFFF7   7 000          @R7,7
    959  00000000  FFFFFFFF USING  ORDINARY    00000000 00001000 FFFFFFF8   6 000          @R6,6
    963  00000000  FFFFFFFF USING  ORDINARY    00000000 00001000 FFFFFFF9   5 000          @R5,5
    967  00000000  FFFFFFFF USING  ORDINARY    00000000 00001000 FFFFFFFA   4 000          @R4,4
    971  00000000  FFFFFFFF USING  ORDINARY    00000000 00001000 FFFFFFFB   3 006   18897  @R3,3
    975  00000000  FFFFFFFF USING  ORDINARY    00000000 00001000 FFFFFFFC   2 000   18382  @R2,2
    979  00000000  FFFFFFFF USING  ORDINARY    00000000 00001000 FFFFFFFD   1 008   18244  @R1,1
    983  00000000  FFFFFFFF USING  ORDINARY    00000000 00001000 FFFFFFFE   0 000          @R0,0
    984  00000000  FFFFFFFF DROP                                            0              0
   1231  00000017  00000001 USING  ORDINARY    00000000 00001000 FFFFFFEC  11 F9F   27334  CP,CPR
   1240  00000017  00000001 USING  ORDINARY    00000000 00001000 FFFFFFEE  12 DDC   33820  CV,CVR
  18125  00000036  00000001 USING  ORDINARY    00000036 00001000 00000001   7 5F2   18897  $$$42B,BR
  18138  0000003A  00000001 USING  ORDINARY    00000000 00001000 FFFFFFE7   5 01C   18178  RSCGROUP,R5
  18172  00000064  00000001 USING  ORDINARY    00000000 00001000 FFFFFFC0   6 A8B   18432  IOWA,IOWAR
  18373  0000020E  00000001 USING  ORDINARY    00000000 00001000 FFFFFFE5   1 025   18386  IHADCB,R1
  18393  00000232  00000001 USING  ORDINARY    00000000 00001000 FFFFFFFD   1 001   28431  @R1,1
  18439  000002A0  00000001 USING  ORDINARY    00000000 00001000 FFFFFFF8   6 000          @R6,6
  18453  000002AA  00000001 USING  ORDINARY    00000000 00001000 FFFFFFF9   5 00C   18704  @R5,5
  18469  000002AA  00000001 USING  ORDINARY    00000000 00001000 FFFFFFC0   6 A8B   18498  IOWA,IOWAR
  18511  000002D4  00000001 USING  ORDINARY    00000000 00001000 FFFFFFF8   6 000          @R6,6
  18673  00000360  00000001 USING  ORDINARY    00000000 00001000 FFFFFFC0   6 000          IOWA,IOWAR
  18686  00000364  00000001 USING  ORDINARY    00000000 00001000 FFFFFFC2   2 028   18880  VOLDSECT,R2
  18714  0000037C  00000001 USING  ORDINARY    00000000 00001000 FFFFFFD6   5 029   18858  TIOT,R5
  18739  00000384  00000001 DROP                                            4              4
  18743  0000038A  00000001 USING  ORDINARY    00000000 00001000 FFFFFFFA   4 000          @R4,4
  18875  000003FE  00000001 USING  ORDINARY    00000000 00001000 FFFFFFF9   5 000          @R5,5
  18891  0000041C  00000001 USING  ORDINARY    00000000 00001000 FFFFFFFC   2 000          @R2,2
  18928  0000049D  00000001 USING  ORDINARY    00000000 00001000 FFFFFFF8   6 00A   21988  @R6,6
  18940  000004AA  00000001 USING  ORDINARY    00000000 00001000 FFFFFFF7   7 000          @R7,7
  19112  0000068A  00000001 USING  ORDINARY    0000068A 00001000 00000001   7 062   19251  $$$59B,BR
  19131  0000069E  00000001 USING  ORDINARY    00000000 00001000 FFFFFFE7   5 01C   19136  RSCGROUP,R5
  19145  000006AE  00000001 USING  ORDINARY    00000000 00001000 FFFFFFF9   5 000   19784  @R5,5
  19163  000006BC  00000001 USING  ORDINARY    00000000 00001000 FFFFFFE6   3 000   19177  RESOURCE,R3
  19210  000006CA  00000001 USING  ORDINARY    00000000 00001000 FFFFFFFB   3 000          @R3,3
  19213  000006CA  00000001 USING  ORDINARY    00000000 00001000 FFFFFFC0   3 37C   19234  IOWA,R3
  19245  000006E0  00000001 USING  ORDINARY    00000000 00001000 FFFFFFFB   3 000          @R3,3
  19248  000006E0  00000001 USING  ORDINARY    00000000 00001000 FFFFFFE6   3 000          RESOURCE,3
  19259  000006E4  00000001 USING  ORDINARY    00000000 00001000 FFFFFFFB   3 000   21636  @R3,3
  19267  000006E6  00000001 USING  ORDINARY    00000000 00001000 FFFFFFF7   7 000          @R7,7
  19310  0000070A  00000001 USING  ORDINARY    0000070A 00001000 00000001   7 8B2   19412  $$$63B,BR
  19432  00000788  00000001 USING  ORDINARY    00000000 00001000 FFFFFFF7   7 000          @R7,7
  19489  000007A2  00000001 USING  ORDINARY    000007A2 00001000 00000001   7 766   19567  $$$70B,7
  19585  000007DC  00000001 USING  ORDINARY    00000000 00001000 FFFFFFF7   7 000          @R7,7
  19678  00000804  00000001 USING  ORDINARY    00000804 00001000 00000001   7 7DC   20463  $$$78B,7
  19692  00000804  00000001 USING  ORDINARY    FFFFFFD8 00001000 FFFFFFBF   8 028   20208  LXCATEWA-(4+36),R8
1DISK     (DISK4072) (12:42) (15MAR04) Using Map                                                                            Page  209
  19749  00000840  00000001 DROP                                            2              2
  19753  00000846  00000001 USING  ORDINARY    00000000 00001000 FFFFFFFC   2 000          @R2,2
  19797  00000882  00000001 DROP                                            2              2
  19801  00000888  00000001 USING  ORDINARY    00000000 00001000 FFFFFFFC   2 00E   20092  @R2,2
  19858  000008B2  00000001 DROP                                            5              5
  19862  000008B8  00000001 USING  ORDINARY    00000000 00001000 FFFFFFF9   5 000          @R5,5
  19946  0000091A  00000001 DROP                                            5              5
  19950  00000920  00000001 USING  ORDINARY    00000000 00001000 FFFFFFF9   5 00F   19952  @R5,5
  20018  00000944  00000001 DROP                                            5              5
  20022  0000094A  00000001 USING  ORDINARY    00000000 00001000 FFFFFFF9   5 00A   22089  @R5,5
  20475  00000B96  00000001 USING  ORDINARY    00000000 00001000 FFFFFFF6   8 000          @R8,8
  20480  00000B96  00000001 USING  ORDINARY    00000000 00001000 FFFFFFF7   7 000          @R7,7
  20528  00000BBE  00000001 USING  ORDINARY    00000BBE 00001000 00000001   7 3A2   20557  $$$110B,7
  20565  00000BD6  00000001 USING  ORDINARY    00000000 00001000 FFFFFFF7   7 000          @R7,7
  20610  00000BFE  00000001 USING  ORDINARY    00000BFE 00001000 00000001   7 378   20639  $$$113B,7
  20647  00000C16  00000001 USING  ORDINARY    00000000 00001000 FFFFFFF7   7 000          @R7,7
  20692  00000C3E  00000001 USING  ORDINARY    00000C3E 00001000 00000001   7 346   20721  $$$116B,7
  20729  00000C56  00000001 USING  ORDINARY    00000000 00001000 FFFFFFF7   7 000          @R7,7
  20774  00000C7E  00000001 USING  ORDINARY    00000C7E 00001000 00000001   7 320   20803  $$$119B,7
  20811  00000C96  00000001 USING  ORDINARY    00000000 00001000 FFFFFFF7   7 000          @R7,7
  20856  00000CBE  00000001 USING  ORDINARY    00000CBE 00001000 00000001   7 28E   20891  $$$122B,7
  20899  00000CCE  00000001 USING  ORDINARY    00000000 00001000 FFFFFFF7   7 000          @R7,7
  20944  00000CF6  00000001 USING  ORDINARY    00000CF6 00001000 00000001   7 2D7   20977  $$$125B,7
  20986  00000D18  00000001 USING  ORDINARY    00000000 00001000 FFFFFFF7   7 000          @R7,7
  21126  00000E32  00000001 USING  ORDINARY    00000E32 00001000 00000001   7 1B4   21149  $$$128B,7
  21178  00000E6C  00000001 USING  ORDINARY    00000000 00001000 FFFFFFF7   7 000          @R7,7
  21223  00000E94  00000001 USING  ORDINARY    00000E94 00001000 00000001   7 158   21267  $$$133B,7
  21296  00000EDC  00000001 USING  ORDINARY    00000000 00001000 FFFFFFF7   7 000          @R7,7
  21428  0000100C  00000001 USING  ORDINARY    0000100C 00001000 00000001   7 6CA   21500  $$$139B,7
  21442  0000100C  00000001 USING  ORDINARY    FFFFFFD8 00001000 FFFFFFBE   8 028   21491  DWWA-(4+36),R8
  21508  00001032  00000001 USING  ORDINARY    00000000 00001000 FFFFFFF6   8 020   23730  @R8,8
  21513  00001032  00000001 USING  ORDINARY    00000000 00001000 FFFFFFF7   7 000          @R7,7
  21559  0000105A  00000001 USING  ORDINARY    0000105A 00001000 00000001   7 694   22051  $$$144B,BR
  21873  0000116C  00000001 DROP                                            2              2
  21877  00001172  00000001 USING  ORDINARY    00000000 00001000 FFFFFFFC   2 007   22041  @R2,2
  22058  00001224  00000001 USING  ORDINARY    00000000 00001000 FFFFFFF7   7 000          @R7,7
  22077  0000123E  00000001 USING  ORDINARY    0000123E 00001000 00000001   7 426   22091  $$$171B,BR
  22103  00001274  00000001 USING  ORDINARY    00000000 00001000 FFFFFFF7   7 000          @R7,7
  22130  0000128E  00000001 USING  ORDINARY    0000128E 00001000 00000001   7 3FC   22227  $$$172B,BR
  22243  000012D6  00000001 USING  ORDINARY    00000000 00001000 FFFFFFF7   7 000          @R7,7
  22263  000012F0  00000001 USING  ORDINARY    000012F0 00001000 00000001   7 39D   22283  $$$177B,BR
  22301  0000131C  00000001 USING  ORDINARY    00000000 00001000 FFFFFFF7   7 000          @R7,7
  22316  0000131E  00000001 USING  ORDINARY    0000131E 00001000 00000001   7 390   22323  $$$178B,7
  22332  00001330  00000001 USING  ORDINARY    00000000 00001000 FFFFFFF7   7 000          @R7,7
  22412  0000134A  00000001 USING  ORDINARY    0000134A 00001000 00000001   7 32E   22534  $$$180B,7
  22510  000013C2  00000001 USING  ORDINARY    00000000 00001000 FFFFFFBD   2 00C   22545  DENQENT,R2
  22560  000013F0  00000001 USING  ORDINARY    00000000 00001000 FFFFFFFC   2 000          @R2,2
  22575  000013F0  00000001 USING  ORDINARY    00000000 00001000 FFFFFFF7   7 000          @R7,7
  22634  00001418  00000001 USING  ORDINARY    00001418 00001000 00000001   7 268   22781  $$$188B,7
  22662  00001420  00000001 USING  ORDINARY    00000000 00001000 FFFFFFBD   5 00C   22759  DENQENT,R5
  22778  000014C0  00000001 USING  ORDINARY    00000000 00001000 FFFFFFF9   5 000          @R5,5
  22791  000014C4  00000001 USING  ORDINARY    00000000 00001000 FFFFFFF7   7 000          @R7,7
  22850  000014EC  00000001 USING  ORDINARY    000014EC 00001000 00000001   7 18C   22964  $$$196B,7
  22878  000014F4  00000001 USING  ORDINARY    00000000 00001000 FFFFFFBD   5 00C   22941  DENQENT,R5
  22961  0000152E  00000001 USING  ORDINARY    00000000 00001000 FFFFFFF9   5 000          @R5,5
  22974  00001532  00000001 USING  ORDINARY    00000000 00001000 FFFFFFF7   7 000          @R7,7
  23029  0000155A  00000001 USING  ORDINARY    0000155A 00001000 00000001   7 12A   23181  $$$204B,7
  23056  00001560  00000001 USING  ORDINARY    00000000 00001000 FFFFFFBD   5 00C   23163  DENQENT,R5
  23178  00001602  00000001 USING  ORDINARY    00000000 00001000 FFFFFFF9   5 000          @R5,5
1DISK     (DISK4072) (12:42) (15MAR04) Using Map                                                                            Page  210
  23191  00001606  00000001 USING  ORDINARY    00000000 00001000 FFFFFFF7   7 000          @R7,7
  23280  0000170E  00000001 USING  ORDINARY    0000170E 00001000 00000001   7 12C   23682  $$$212B,BR
  23680  0000180C  00000001 USING  ORDINARY    00000000 00001000 FFFFFFC0   6 ADA   29077  IOWA,IOWAR
  23716  0000183C  00000001 USING  ORDINARY    00000000 00001000 FFFFFFF7   7 000          @R7,7
  23719  0000183C  00000001 USING  ORDINARY    0000183C 00001000 00000001   7 FBE   27172  $$$227B,7
  24433  00001A3C  00000001 USING  ORDINARY    00000000 00001000 FFFFFFC2   3 009   24538  VOLDSECT,R3
  24550  00001A86  00000001 USING  ORDINARY    00000000 00001000 FFFFFFFB   3 000   27270  @R3,3
  26947  00002666  00000001 DROP                                           15              15
  26951  0000266C  00000001 USING  ORDINARY    00000000 00001000 FFFFFFEF  15 003   27529  @R15,15
  27262  0000281A  00000001 USING  ORDINARY    00000000 00001000 FFFFFFF7   7 000          @R7,7
  27265  0000281A  00000001 USING  ORDINARY    0000281A 00001000 00000001   7 AF2   27312  $$$378B,BR
  27345  000028A6  00000001 USING  ORDINARY    00000000 00001000 FFFFFFF7   7 000          @R7,7
  27354  000028A6  00000001 USING  ORDINARY    00000000 00001000 FFFFFFF3  11 000          @R11,11
  27375  000028B6  00000001 USING  ORDINARY    000028B6 00001000 00000001   7 A5A   27542  $$$382B,7
  27578  0000294E  00000001 USING  ORDINARY    00000000 00001000 FFFFFFF7   7 000          @R7,7
  27587  0000294E  00000001 USING  ORDINARY    00000000 00001000 FFFFFFEC  11 F37   28670  CP,CPR
  27683  0000294E  00000001 USING  ORDINARY    0000294E 00001000 00000001  15 00E   27697  $$$392B,R15
  27719  0000295E  00000001 USING  ORDINARY    00000000 00001000 FFFFFFEF  15 001   28224  @R15,15
  27791  00002978  00000001 USING  ORDINARY    00002978 00001000 00000001   7 9F2   28285  $$$397B,7
  28319  00002AD4  00000001 USING  ORDINARY    00000000 00001000 FFFFFFF7   7 000          @R7,7
  28377  00002AFC  00000001 USING  ORDINARY    00002AFC 00001000 00000001   7 028   28451  $$$428B,7
  28396  00002B00  00000001 USING  ORDINARY    00000000 00001000 FFFFFFC2   4 002   28431  VOLDSECT,R4
  28462  00002B24  00000001 USING  ORDINARY    00000000 00001000 FFFFFFFA   4 000          @R4,4
  28467  00002B24  00000001 USING  ORDINARY    00000000 00001000 FFFFFFF7   7 000          @R7,7
  28498  00002B4C  00000001 USING  ORDINARY    00002B4C 00001000 00000001   7 15A   29094  $$$433B,BR
  28514  00002B52  00000001 USING  ORDINARY    00000000 00001000 FFFFFFC2   2 028   29064  VOLDSECT,R2
  28779  00002BD4  00000001 USING  ORDINARY    00000000 00001000 FFFFFFD5  15 01C   28815  UCBDSECT,R15
  28830  00002BE6  00000001 USING  ORDINARY    00000000 00001000 FFFFFFEF  15 015   30282  @R15,15
  29111  00002CB4  00000001 USING  ORDINARY    00000000 00001000 FFFFFFFC   2 000          @R2,2
  29118  00002CB4  00000001 USING  ORDINARY    00000000 00001000 FFFFFFF8   6 000          @R6,6
  29124  00002CB4  00000001 USING  ORDINARY    00000000 00001000 FFFFFFF7   7 000          @R7,7
  29135  00002CB4  00000001 USING  ORDINARY    00000000 00001000 FFFFFFF3  11 000          @R11,11
  29157  00002CC4  00000001 USING  ORDINARY    00002CC4 00001000 00000001   7 6AC   29176  $$$481B,7
  29166  00002CC4  00000001 USING  ORDINARY    00000000 00001000 FFFFFFC0   6 D42   29177  IOWA,IOWAR
  29190  00002D0A  00000001 USING  ORDINARY    00000000 00001000 FFFFFFF8   6 000          @R6,6
  29196  00002D0A  00000001 USING  ORDINARY    00000000 00001000 FFFFFFF7   7 000          @R7,7
  29206  00002D0A  00000001 USING  ORDINARY    00000000 00001000 FFFFFFEC  11 F90   33517  CP,CPR
  29252  00002D24  00000001 USING  ORDINARY    00002D24 00001000 00000001   7 67C   29396  $$$482B,BR
  29304  00002D3C  00000001 USING  ORDINARY    00000000 00001000 FFFFFFBC   6 03C   29367  SMFDS,R6
  29404  00002D8C  00000001 USING  ORDINARY    00000000 00001000 FFFFFFF8   6 000          @R6,6
  29416  00002D98  00000001 USING  ORDINARY    00000000 00001000 FFFFFFF7   7 000          @R7,7
  29474  00002DB2  00000001 USING  ORDINARY    00002DB2 00001000 00000001   7 606   29679  $$$490B,7
  29488  00002DB2  00000001 USING  ORDINARY    FFFFFFE0 00001000 FFFFFFBB   8 028   29669  DRDWA-(4+28),R8
  29501  00002DB6  00000001 USING  ORDINARY    00000000 00001000 FFFFFFC0   6 720   29669  IOWA,IOWAR
  29531  00002DC2  00000001 USING  ORDINARY    00000000 00001000 FFFFFFE9   5 080   29579  JCB,JCBR
  29601  00002E2A  00000001 USING  ORDINARY    00000000 00001000 FFFFFFE8   2 04C   29610  UCE,R2
  29616  00002E36  00000001 USING  ORDINARY    00000000 00001000 FFFFFFFC   2 000          @R2,2
  29708  00002E6C  00000001 USING  ORDINARY    00000000 00001000 FFFFFFF9   5 000          @R5,5
  29713  00002E6C  00000001 USING  ORDINARY    00000000 00001000 FFFFFFF8   6 000          @R6,6
  29718  00002E6C  00000001 USING  ORDINARY    00000000 00001000 FFFFFFF6   8 000          @R8,8
  29723  00002E6C  00000001 USING  ORDINARY    00000000 00001000 FFFFFFF7   7 000          @R7,7
  29769  00002E94  00000001 USING  ORDINARY    00002E94 00001000 00000001   7 524   29919  $$$498B,7
  29787  00002E98  00000001 USING  ORDINARY    00000000 00001000 FFFFFFC0   6 37C   29851  IOWA,IOWAR
  29817  00002EA4  00000001 USING  ORDINARY    00000000 00001000 FFFFFFE9   5 080   29876  JCB,JCBR
  29898  00002EFC  00000001 USING  ORDINARY    00000000 00001000 FFFFFFE8   2 04C   29907  UCE,R2
  29913  00002F08  00000001 USING  ORDINARY    00000000 00001000 FFFFFFFC   2 000          @R2,2
  29926  00002F0C  00000001 USING  ORDINARY    00000000 00001000 FFFFFFF9   5 000          @R5,5
  29931  00002F0C  00000001 USING  ORDINARY    00000000 00001000 FFFFFFF8   6 000          @R6,6
  29936  00002F0C  00000001 USING  ORDINARY    00000000 00001000 FFFFFFF7   7 000          @R7,7
1DISK     (DISK4072) (12:42) (15MAR04) Using Map                                                                            Page  211
  29968  00002F34  00000001 USING  ORDINARY    00002F34 00001000 00000001   7 444   30708  $$$503B,BR
  30002  00002F44  00000001 USING  ORDINARY    00000000 00001000 FFFFFFC0   6 B17   33888  IOWA,IOWAR
  30131  00002FA4  00000001 USING  ORDINARY    00000000 00001000 FFFFFFE5   3 02D   30371  IHADCB,R3
  30308  00003080  00000001 DROP                                            2              2
  30312  00003086  00000001 USING  ORDINARY    00000000 00001000 FFFFFFFC   2 009   30371  @R2,2
  30315  00003086  00000001 DROP                                            1              1
  30319  0000308C  00000001 USING  ORDINARY    00000000 00001000 FFFFFFFD   1 000          @R1,1
  30337  000030A8  00000001 DROP                                            1              1
  30341  000030AE  00000001 USING  ORDINARY    00000000 00001000 FFFFFFFD   1 000          @R1,1
  30356  000030B2  00000001 USING  ORDINARY    00000000 00001000 FFFFFFE9   5 0B0   30362  JCB,R5
  30369  000030B6  00000001 USING  ORDINARY    00000000 00001000 FFFFFFF9   5 000          @R5,5
  30382  000030C6  00000001 USING  ORDINARY    00000000 00001000 FFFFFFDC   4 020   30387  CVT,R4
  30395  000030D6  00000001 USING  ORDINARY    00000000 00001000 FFFFFFFA   4 000          @R4,4
  30564  00003186  00000001 DROP                                            3              3
  30568  0000318C  00000001 USING  ORDINARY    00000000 00001000 FFFFFFE5   3 000          IHADCB,3
  30574  0000318E  00000001 DROP                                            1              1
  30578  00003194  00000001 USING  ORDINARY    00000000 00001000 FFFFFFFD   1 004   31728  @R1,1
  30583  00003196  00000001 DROP                                            2              2
  30587  0000319C  00000001 USING  ORDINARY    00000000 00001000 FFFFFFFC   2 000          @R2,2
  30593  000031A2  00000001 DROP                                            2              2
  30597  000031A8  00000001 USING  ORDINARY    00000000 00001000 FFFFFFFC   2 000          @R2,2
  30722  00003274  00000001 USING  ORDINARY    00000000 00001000 FFFFFFF7   7 000          @R7,7
  30731  00003274  00000001 USING  ORDINARY    00000000 00001000 FFFFFFFB   3 000          @R3,3
  30768  0000328E  00000001 USING  ORDINARY    0000328E 00001000 00000001   7 0D6   30847  $$$526B,7
  30876  000032E2  00000001 USING  ORDINARY    00000000 00001000 FFFFFFF7   7 000          @R7,7
  30951  000033A8  00000001 USING  ORDINARY    000033A8 00001000 00000001   7 000          $$$530B,7
  30967  000033B8  00000001 USING  ORDINARY    00000000 00001000 FFFFFFF7   7 000          @R7,7
  31000  000033D2  00000001 USING  ORDINARY    000033D2 00001000 00000001   7 292   31151  $$$531B,BR
  31041  000033F6  00000001 DROP                                           15              15
  31045  000033FC  00000001 USING  ORDINARY    00000000 00001000 FFFFFFEF  15 002   34793  @R15,15
  31073  00003428  00000001 DROP                                            3              3
  31077  0000342E  00000001 USING  ORDINARY    00000000 00001000 FFFFFFFB   3 00E   31084  @R3,3
  31124  00003470  00000001 USING  ORDINARY    00000000 00001000 FFFFFFE9   5 060   31137  JCB,JCBR
  31149  00003482  00000001 USING  ORDINARY    00000000 00001000 FFFFFFF9   5 000          @R5,5
  31170  000034A0  00000001 USING  ORDINARY    00000000 00001000 FFFFFFF7   7 000          @R7,7
  31173  000034A0  00000001 USING  ORDINARY    000034A0 00001000 00000001   7 1C8   31231  $$$534B,BR
  31182  000034A0  00000001 USING  ORDINARY    00000000 00001000 FFFFFFC2   5 030   31372  VOLDSECT,R5
  31250  00003552  00000001 USING  ORDINARY    00000000 00001000 FFFFFFF7   7 000          @R7,7
  31253  00003552  00000001 USING  ORDINARY    00003552 00001000 00000001   7 11A   31259  $$$535B,BR
  31268  00003556  00000001 USING  ORDINARY    00000000 00001000 FFFFFFF7   7 000          @R7,7
  31271  00003556  00000001 USING  ORDINARY    000034A0 00001000 00000001   7 1D0   31388  ALOBASE,7
  31398  00003646  00000001 USING  ORDINARY    00000000 00001000 FFFFFFF9   5 000          @R5,5
  31445  0000368C  00000001 USING  ORDINARY    00000000 00001000 FFFFFFF7   7 000          @R7,7
  31448  0000368C  00000001 USING  ORDINARY    0000368C 00001000 00000001   7 BBE   31782  $$$539B,BR
  31855  000037BE  00000001 USING  ORDINARY    00000000 00001000 FFFFFFF7   7 000          @R7,7
  31858  000037BE  00000001 USING  ORDINARY    000037BE 00001000 00000001   7 A2E   31879  $$$556B,BR
  31906  000037DC  00000001 USING  ORDINARY    00000000 00001000 FFFFFFF7   7 000          @R7,7
  31928  000037FA  00000001 USING  ORDINARY    000037FA 00001000 00000001   7 A50   33430  $$$558B,BR
  31938  000037FE  00000001 USING  ORDINARY    00000000 00001000 FFFFFFE9   5 062   33515  JCB,JCBR
  32015  000038AE  00000001 USING  ORDINARY    00000000 00001000 FFFFFFE5   3 028   32017  IHADCB,R3
  32024  000038B4  00000001 USING  ORDINARY    00000000 00001000 FFFFFFFB   3 000          @R3,3
  32130  00003970  00000001 USING  ORDINARY    00000000 00001000 FFFFFFC2   3 010   32139  VOLDSECT,R3
  32146  0000397C  00000001 USING  ORDINARY    00000000 00001000 FFFFFFFB   3 000          @R3,3
  32158  00003980  00000001 USING  ORDINARY    00000000 00001000 FFFFFFE5   3 030   32163  IHADCB,R3
  32171  00003988  00000001 USING  ORDINARY    00000000 00001000 FFFFFFFB   3 001   33391  @R3,3
  32244  000039B2  00000001 USING  ORDINARY    00000000 00001000 FFFFFFE5   1 02C   32250  IHADCB,R1
  32257  000039BA  00000001 USING  ORDINARY    00000000 00001000 FFFFFFFD   1 001   32547  @R1,1
  32560  00003AD4  00000001 DROP                                            1              1
  32564  00003ADA  00000001 USING  ORDINARY    00000000 00001000 FFFFFFFD   1 008   33887  @R1,1
1DISK     (DISK4072) (12:42) (15MAR04) Using Map                                                                            Page  212
  32681  00003BD4  00000001 DROP                                            2              2
  32685  00003BDA  00000001 USING  ORDINARY    00000000 00001000 FFFFFFFC   2 00C   33257  @R2,2
  33214  00003EC0  00000001 DROP                                            4              4
  33218  00003EC6  00000001 USING  ORDINARY    00000000 00001000 FFFFFFFA   4 001   33400  @R4,4
  33479  000040EC  00000001 USING  ORDINARY    00000000 00001000 FFFFFFF7   7 000          @R7,7
  33482  000040EC  00000001 USING  ORDINARY    000040EC 00001000 00000001   7 192   33518  $$$607B,7
  33526  00004126  00000001 USING  ORDINARY    00000000 00001000 FFFFFFF7   7 000          @R7,7
  33532  00004126  00000001 USING  ORDINARY    00000000 00001000 FFFFFFF9   5 000          @R5,5
  33564  0000414C  00000001 USING  ORDINARY    0000414C 00001000 00000001   7 57C   33708  $$$608B,7
  33750  0000424A  00000001 USING  ORDINARY    00000000 00001000 FFFFFFF7   7 000          @R7,7
  33814  00004280  00000001 USING  ORDINARY    00004280 00001000 00000001   7 000          $$$614B,7
  33849  00004298  00000001 USING  ORDINARY    00000000 00001000 FFFFFFF3  11 000          @R11,11
  33856  00004298  00000001 USING  ORDINARY    00000000 00001000 FFFFFFF2  12 000          @R12,12
  33878  0000429E  00000001 USING  ORDINARY    00000000 00001000 FFFFFFF7   7 000          @R7,7
  33881  0000429E  00000001 USING  ORDINARY    0000429E 00001000 00000001   7 48A   33887  $$$615B,7
  33896  000042C0  00000001 USING  ORDINARY    00000000 00001000 FFFFFFF7   7 000          @R7,7
  33909  000042CA  00000001 USING  ORDINARY    00000000 00001000 FFFFFFF8   6 000          @R6,6
  34000  000042DA  00000001 USING  ORDINARY    000042DA 00001000 00000001   7 476   34257  $$$616B,7
  34009  000042DA  00000001 USING  ORDINARY    00000000 00001000 FFFFFFBA   8 048   34244  TRKWA,WAR
  34019  000042DC  00000001 USING  ORDINARY    000008B8 00001000 FFFFFFC0   6 012   34214  DVTAREA,R6
  34035  000042F2  00000001 DROP                                            2              2
  34039  000042F8  00000001 USING  ORDINARY    00000000 00001000 FFFFFFFC   2 000          @R2,2
  34069  0000431C  00000001 DROP                                            5              5
  34073  00004322  00000001 USING  ORDINARY    00000000 00001000 FFFFFFF9   5 000          @R5,5
  34098  00004332  00000001 DROP                                            3              3
  34102  00004338  00000001 USING  ORDINARY    00000000 00001000 FFFFFFFB   3 000          @R3,3
  34132  0000434C  00000001 DROP                                            2              2
  34136  00004352  00000001 USING  ORDINARY    00000000 00001000 FFFFFFFC   2 000          @R2,2
  34139  00004352  00000001 DROP                                            3              3
  34143  00004358  00000001 USING  ORDINARY    00000000 00001000 FFFFFFFB   3 000          @R3,3
  34164  00004360  00000001 DROP                                            2              2
  34168  00004366  00000001 USING  ORDINARY    00000000 00001000 FFFFFFFC   2 002   34792  @R2,2
  34176  00004368  00000001 DROP                                            4              4
  34180  0000436E  00000001 USING  ORDINARY    00000000 00001000 FFFFFFFA   4 000          @R4,4
  34211  0000438C  00000001 DROP                                            3              3
  34215  00004392  00000001 USING  ORDINARY    00000000 00001000 FFFFFFFB   3 000          @R3,3
  34271  000043BA  00000001 USING  ORDINARY    00000000 00001000 FFFFFFF8   6 000          @R6,6
  34278  000043BA  00000001 USING  ORDINARY    00000000 00001000 FFFFFFF6   8 000          @R8,8
  34284  000043BA  00000001 USING  ORDINARY    00000000 00001000 FFFFFFF7   7 000          @R7,7
  34295  000043BA  00000001 USING  ORDINARY    00000000 00001000 FFFFFFC0   6 36E   34551  IOWA,IOWAR
  34304  000043BA  00000001 USING  ORDINARY    00000000 00001000 FFFFFFEC  11 F06   34515  CP,CPR
  34313  000043BA  00000001 USING  ORDINARY    00000000 00001000 FFFFFFEE  12 74C   34585  CV,CVR
  34335  000043D4  00000001 USING  ORDINARY    000043D4 00001000 00000001   7 39F   34588  $$$626B,BR
  34602  000044BE  00000001 USING  ORDINARY    00000000 00001000 FFFFFFF8   6 000          @R6,6
  34608  000044BE  00000001 USING  ORDINARY    00000000 00001000 FFFFFFF7   7 000          @R7,7
  34645  00004524  00000001 USING  ORDINARY    00004524 00001000 00000001   7 258   34839  $$$631B,7
  34661  0000452E  00000001 USING  ORDINARY    00000000 00001000 FFFFFFCE   4 004   34843  SDWA,R4
  34680  00004542  00000001 USING  ORDINARY    00000000 00001000 FFFFFFC0   6 180   34750  IOWA,IOWAR
  34708  00004556  00000001 USING  ORDINARY    00000020 00001000 FFFFFFD8   3 01C   34719  TCB,R3
  34727  0000456A  00000001 USING  ORDINARY    00000000 00001000 FFFFFFFB   3 000          @R3,3
  34859  00004628  00000001 USING  ORDINARY    00000000 00001000 FFFFFFFA   4 000          @R4,4
  34866  00004628  00000001 USING  ORDINARY    00000000 00001000 FFFFFFF8   6 000          @R6,6
  34872  00004628  00000001 USING  ORDINARY    00000000 00001000 FFFFFFF7   7 000          @R7,7
  34893  0000462C  00000001 USING  ORDINARY    0000462C 00001000 00000001   7 120   34932  $$$634B,7
  34902  0000462C  00000001 USING  ORDINARY    00000000 00001000 FFFFFFC0   6 180   34928  IOWA,IOWAR
  34941  00004658  00000001 USING  ORDINARY    00000000 00001000 FFFFFFF8   6 000          @R6,6
  34947  00004658  00000001 USING  ORDINARY    00000000 00001000 FFFFFFF7   7 000          @R7,7
  34968  000046CA  00000001 USING  ORDINARY    000046CA 00001000 00000001   7 000          $$$635B,7

1         (DISK4072) (12:42) (15MAR04) General Purpose Register Cross Reference                                             Page  213
- Register  References (M=modified, B=branch, U=USING, D=DROP, N=index)                      HLASM R4.0  2004/03/15 12.42
0    0(0)      983U   984D  2167   2235M  2235   2236M 18150M 18151M 18157M 18163M 18188M 18189  18209M 18223M 18224
             18226M 18227  18234M 18259  18279M 18281  18282M 18284  18285M 18287  18288M 18290  18293M 18294  18295M
             18296  18300M 18301  18302M 18303  18304M 18305  18309M 18310  18311M 18312  18315M 18316  18317M 18318
             18321M 18322  18323M 18324  18325M 18326  18329M 18330  18331M 18332  18333M 18334  18338M 18339  18340M
             18341  18342M 18343  18346M 18347  18348M 18349  18353M 18354  18355M 18356  18357M 18358  18360M 18361
             18384M 18386  18398M 18399  18401M 18402  18403M 18404  18405M 18406  18407M 18408  18415M 18591M 18629M
             18652M 18662  18663  18727M 18727  18801M 18801  18857M 18857  18858M 18880  19119M 19120M 19232M 19318M
             19361  19362  19413M 19472  19500  19542M 19549  19593M 19660  19774  19809  19888  19893  20181M 20207
             20213M 20265M 20271  20319  20336  20359M 20359  20368  20369  20406M 20406  20415  20416  20488M 20511
             20542M 20573M 20593  20624M 20655M 20675  20706M 20737M 20757  20788M 20819M 20839  20907M 20927  20962M
             20994M 21109  21136  21145M 21164  21186M 21206  21232  21254  21263M 21282  21304M 21410  21452  21521M
             21671M 21710  21761M 21781M 21811M 21812  21837M 21837  21956M 22084M 22250  22270M 22294M 22324M 22395
             22448M 22449  22495M 22583M 22617  22705  22740M 22741  22799M 22833  22921  22982M 23012  23099  23144M
             23145  23199M 23267  23302  23333M 23333  23443M 23475M 23475  23503M 23503  23602M 23655M 23655  23730M
             23772  24568M 24632M 24633  24783M 24783  24784M 24785  24862M 24883M 24900M 24910  24940M 24941M 24941
             24949  24964  24966  24967  24977M 24994M 25000M 25001M 25001  25003  25008  25056  25169  25172  25203M
             25255M 25256M 25256  25264  25266  25277  25289  25295M 25319M 25319  25320  25322M 25323  25404M 25405M
             25405  25431M 25431  25441M 25441  25442M 25445  25457M 25464  25476M 25503  25506M 25507M 25507  25562M
             25644M 25644  25645  25646M 25650M 25652  25653M 25655  25662M 25663  25667M 25668M 25668  25680M 25681M
             25681  25683M 25684M 25684  25688M 25688  25689  25870M 26021M 26025M 26076M 26189M 26189  26360  26362M
             26363M 26363  26368M 26420M 26420  26630M 26631  26636M 26637  26685M 26687M 26687  26699M 26821M 26822
             26915  26931  26939M 27151  27158M 27528M 27528  27529M 27541  27774  27980M 28327M 28360  28475M 29239
             29393M 29409M 29568M 29569M 29570  29574M 29575M 29576  29608M 29609M 29610  29651  29679M 29822  29865M
             29866M 29867  29871M 29872M 29873  29905M 29906M 29907  30027  30224M 30225M 30227  30326M 30326  30327M
             30328  30386M 30401M 30514M 30515M 30515  30570M 30570  30589M 30598M 30601M 30601  30603M 30605M 30646M
             30647  30696M 30751  30796M 30835M 30835  30855  30884M 30958M 30959M 30960  31081M 31081  31082M 31083M
             31084M 31139  31285M 31286M 31286  31353  31357  31361M 31362M 31362  31370M 31371M 31372  31699  31727
             31842  31875M 31899M 31951M 31952M 31952  31954M 31958  31959  31967M 31968  31983M 32092M 32093  32106M
             32107  32137M 32138M 32139  32250M 32271  32678M 32709  32711M 32713  32726M 32753M 32758M 32770M 32992M
             32993M 32994  33024M 33025  33026M 33030M 33157M 33158M 33158  33164M 33194M 33236M 33280  33282M 33285M
             33322M 33323  33347  33354M 33364  33366  33379  33382  33397M 33423  33443  33448  33494M 33494  33517
             33535M 33538  33549  33617M 33620M 33637M 33645M 33680M 33759  33781M 33781  33787M 33795M 33819  34029M
             34030  34031  34053  34113M 34227M 34244  34322  34343M 34384M 34411M 34422M 34430M 34475M 34490M 34515M
             34530M 34556M 34579M 34579  34594M 34632  34651M 34739M 34759M 34764M 34787M 34793  34816M 34819M 34820M
             34820  34913M 34975M 34976M 34977
     1(1)      979U  2167   2230M  2231M  2237M 18140M 18141  18142  18154M 18156  18157  18158M 18163M 18177M 18216M
             18233M 18244M 18259  18380M 18383M 18412M 18417M 18432  18478M 18497M 18499M 18518M 18519M 18519N 18520M
             18520N 18541M 18541  18558M 18568M 18568  18569  18594M 18594  18632M 18632  18655M 18655  18729M 18729
             18779M 18803M 18803  18843M 18852M 18894  18896M 18901M 19117M 19227M 19234M 19358  19412M 19472  19499
             19503M 19541M 19549  19593M 19660  19696M 19697  20030M 20037M 20062  20182M 20208M 20214M 20215M 20215
             20242  20252M 20253M 20256M 20258M 20259M 20262M 20268M 20270M 20272  20294M 20318M 20319M 20335  20355M
             20368N 20369N 20371N 20402M 20415N 20416N 20418N 20488M 20511  20541M 20573M 20593  20623M 20655M 20675
             20705M 20737M 20757  20787M 20819M 20839  20907M 20927  20961M 20994M 21109  21139M 21141M 21142M 21142
             21143  21186M 21206  21257M 21259M 21260M 21260  21261  21304M 21410  21491M 21497  21521M 21693M 21696M
             21774M 21812M 22082M 22084M 22085  22250  22269M 22294M 22323M 22395  22422M 22442M 22443  22450M 22451
             22452  22453  22454  22455  22500  22583M 22617  22705  22731M 22733M 22734  22742M 22743  22744  22745
             22746  22747  22759M 22799M 22833  22921  22982M 23012  23099  23135M 23137M 23138  23146M 23147  23148
             23149  23150  23151  23163M 23199M 23267  23302  23329M 23359  23359  23442M 23499M 23601M 23651M 23671
             23730M 23845M 23890M 23891  23913M 23919M 23920  24568M 24630M 24631N 24633N 24634N 24663M 24861M 24905M
             25204M 25211  25563M 25639M 25646M 25647M 25648  25649M 25650M 25651M 25654  25792M 25793  25804M 25805
             25806  25869M 25871M 25871N 26014M 26017  26019  26024  26025  26027  26039M 26063M 26154M 26155M 26155
             26156  26205M 26361M 26428M 26684M 26686M 26686  26781M 26823M 26824  26825  26826  26827  26828  26925M
             26932  26940M 27086M 27157M 27412M 27413  27414  27416  27458M 27459  27461  27774  27979M 28219M 28220M
             28221M 28221N 28327M 28360  28475M 29239  29388M 29409M 29554M 29555  29556  29557N 29558  29851M 29852
             29853  29854N 29855  30027  30107M 30149M 30209M 30211  30221M 30222M 30222  30230M 30230N 30231M 30315D
1         (DISK4072) (12:42) (15MAR04) General Purpose Register Cross Reference                                             Page  214
             30317M 30317  30318M 30319U 30322M 30328M 30330  30337D 30339M 30339  30340M 30341U 30400M 30406M 30406
             30468M 30492M 30513M 30574D 30576M 30576  30577M 30578U 30588M 30589M 30598M 30599  30602M 30603M 30604M
             30605M 30606  30648M 30649  30650  30651  30652  30653  30751  30789M 30790M 30790  30811M 30811  30831M
             30855  30884M 30957M 30960M 31065M 31066  31139  31204M 31322M 31360M 31651M 31671M 31685M 31685  31720M
             31720  31727M 31728M 31751  31762  31842  31869M 31869  31875  31876M 31899M 31944M 31945  31946M 31947
             31984M 32042M 32067M 32069M 32070  32090M 32091N 32093N 32094N 32103M 32104  32105N 32107N 32108N 32244U
             32249M 32257U 32265M 32266  32267  32268  32270  32271  32273  32299M 32300  32367M 32376M 32376  32384M
             32386  32424M 32470M 32471  32494M 32544M 32544  32545  32546M 32547M 32548  32560D 32562M 32562  32563M
             32564U 32566M 32567M 32567  32568  32570M 32571  32572M 32574M 32575  32576M 32576  32578M 32579  32580M
             32582M 32583  32585M 32586  32589M 32717M 32718M 32719M 32720  32721M 32722M 32723M 32724  32737M 32769M
             32827M 32828  32829  32878M 33018M 33019  33021M 33021N 33023M 33025  33106  33107M 33110M 33189M 33235M
             33280  33281M 33285M 33314M 33324M 33325  33326  33327  33328  33329  33348  33355M 33364  33397M 33423
             33443  33448  33495M 33517  33535M 33538  33549  33550  33616M 33616  33623M 33625  33629M 33634M 33634
             33668M 33681M 33681  33759  33782M 33789M 33795M 33819  34011  34046M 34047  34048  34053M 34059  34322
             34342M 34383M 34410M 34430M 34431M 34456  34468M 34489M 34511M 34529M 34551M 34594M 34632  34653  34694M
             34696M 34696  34715M 34718  34719M 34720  34732M 34734M 34734  34763M 34763  34764M 34773M 34773  34788M
             34790  34793  34798M 34800M 34800  34802M 34809  34811  34812  34813  34814  34818  34839M 34841M 34841
             34843M 34850  34914M 34974M 34977M
     2(2)      975U  2167  18112  18141M 18142  18241M 18242M 18243  18378M 18381M 18445M 18445  18678M 18686U 18881M
             18881  18882  18891U 18933M 19099  19150M 19297  19424M 19472  19547M 19549  19593M 19660  19749D 19751M
             19751  19752M 19753U 19775  19781M 19783  19797D 19799M 19799  19800M 19801U 19830  19831M 19832  19851M
             19863M 19863N 19864  19890  19914  19915M 19916  19917M 19919  19951  19952M 19952N 20023  20024M 20024N
             20035  20093M 20115  20138  20139M 20140  20142  20488M 20511  20573M 20593  20655M 20675  20737M 20757
             20819M 20839  20907M 20927  20994M 21109  21186M 21206  21304M 21410  21492  21521M 21546  21591M 21603
             21613  21688M 21690M 21690  21692  21710  21808N 21849  21866  21873D 21875M 21875  21876M 21877U 22024M
             22026  22046M 22064  22086M 22088  22096M 22117  22236M 22250  22294M 22395  22500M 22510U 22550  22560U
             22583M 22617  22705  22799M 22833  22921  22982M 23012  23099  23199M 23267  23302  24568M 24721M 24742M
             24776M 24777M 24778M 24779M 24785M 24788  24837B 24872B 24880M 24938M 25180M 25181M 25225M 25327M 25328M
             26040M 26042M 26131B 26142M 26265B 26359M 26674M 26930M 26933M 26938  26981B 26999B 27006B 27017B 27022B
             27026B 27063B 27080B 27103B 27146M 27149M 27150M 27151  27249  27338M 27360  27567M 27685M 27714B 27774
             27953M 27953  28083M 28327M 28360  28475M 28485  28516M 28537M 28537  28834  28949  29102M 29111U 29142
             29182M 29239  29409M 29456  29546M 29547M 29557  29579M 29580M 29580  29731M 29752  29876M 29877M 29877
             29944M 29955  30027  30308D 30310M 30310  30311M 30312U 30362M 30579M 30579  30583D 30585M 30585  30586M
             30587U 30588  30593D 30595M 30595  30596M 30597U 30598  30599M 30604  30715M 30751  30855  30884M 31139
             31432  31801M 31842  31899M 31915  32306M 32321  32357M 32357  32426M 32438M 32438  32599M 32600N 32602
             32681D 32683M 32683  32684M 32703M 32709  32711  32713M 32728M 32728  32846M 32846  32880M 32891  32972M
             33021  33025M 33107  33169M 33210  33252  33264  33269  33270  33271  33272  33349M 33356  33360M 33364
             33397M 33423  33443  33448  33517  33535M 33538  33549  33585M 33601M 33606B 33759  33795M 33819  33985
             34035D 34037M 34037  34038M 34047  34132D 34134M 34134  34135M 34136U 34164D 34166M 34166  34167M 34168U
             34169  34181M 34183  34187M 34220M 34263M 34322  34354M 34355M 34367  34377M 34377  34382M 34383N 34594M
             34632  34715  34716M 34717  34718M 34790M 34793  34815  34914
     3(3)      971U  2167  18112  18411M 18415  18424  18691M 18691  18894M 18901  18933M 19099  19150M 19153M 19163U
             19177M 19178  19192M 19192  19210U 19213U 19245U 19248U 19259U 19297  19424M 19472  19593M 19660  19780M
             19781M 19782M 19783M 19784  19806M 19807M 19809  19830M 19832  19864  19888M 19890M 19914M 19916  19917M
             19919  20035  20115  20140  20143  20488M 20511  20573M 20593  20655M 20675  20737M 20757  20819M 20839
             20907M 20927  20994M 21109  21186M 21206  21304M 21410  21521M 21546  21612M 21689M 21851  22046M 22064
             22085M 22086M 22087M 22088M 22089  22096M 22117  22236M 22250  22294M 22395  22421M 22533M 22533  22583M
             22617  22705  22799M 22833  22921  22982M 23012  23038M 23099  23117M 23117  23199M 23267  23302  23568M
             23568  23592M 23623M 23623  23891M 23919  24423M 24433U 24550U 24552M 24559M 24568M 24598M 26042M 26055M
             26071B 26360M 26368  26694M 26699  26714M 26719  26744M 26860  26931M 26939  27249  27267M 27269M 27271M
             27272  27273  27338M 27360  27459  27567M 27774  27803M 27803  28157M 28211M 28312  28327M 28360  28475M
             28485  29102M 29142  29182M 29239  29409M 29456  29731M 29752  29822M 29835M 29854  29944M 29955  30027
             30123M 30131U 30209  30372  30373M 30397M 30400  30564D 30566M 30566  30567M 30605  30715M 30731U 30751
             30855  30884M 31073D 31075M 31075  31076M 31077U 31101M 31102M 31102  31103  31139  31432  31801M 31842
             31899M 31915  32007M 32015U 32024U 32120M 32130U 32146U 32148M 32158U 32171U 32601M 32602M 32605M 32607
             32610  32677M 32677  32720M 32724M 32744M 32744  32761  33106M 33110  33347M 33354  33360M 33364  33365M
             33367M 33368  33369M 33372M 33373  33377M 33379M 33380M 33381  33382M 33385M 33387  33388M 33389  33390M
             33397M 33423  33443  33448  33517  33535M 33538  33549  33759  33795M 33819  33985  34098D 34100M 34100
             34101M 34102U 34107  34108  34110  34139D 34141M 34141  34142M 34143U 34169M 34182M 34187M 34188  34190M
1         (DISK4072) (12:42) (15MAR04) General Purpose Register Cross Reference                                             Page  215
             34211D 34213M 34213  34214M 34215U 34220M 34221M 34226  34263M 34322  34594M 34632  34698M 34708U 34727U
             34793
     4(4)      967U  2167  18112  18143M 18196  18202  18441M 18722M 18722  18736  18739D 18741M 18741  18742M 18743U
             18752M 18752  18933M 19099  19133M 19136M 19150M 19153  19178  19297  19424M 19472  19499M 19541  19593M
             19660  19714M 19714  19776M 19779  19791M 19791  19832  19916  19917M 20035  20181  20207M 20209  20237
             20488M 20511  20573M 20593  20655M 20675  20737M 20757  20819M 20839  20907M 20927  20994M 21109  21136M
             21168  21186M 21206  21254M 21286  21304M 21410  21521M 21546  21689M 21832  21900  22046M 22064  22081M
             22084  22096M 22117  22236M 22250  22294M 22395  22583M 22617  22666M 22705  22756  22799M 22833  22882M
             22921  22982M 23012  23060M 23099  23160  23199M 23267  23302  24568M 26042M 26932M 26940  27249  27338M
             27360  27567M 27774  28327M 28360  28386M 28396U 28447M 28447  28462U 28475M 28485  29102M 29142  29182M
             29239  29409M 29456  29731M 29752  29944M 29955  30027  30372  30374M 30382U 30395U 30397M 30715M 30751
             30855  30884M 31139  31157  31237  31403M 31432  31801M 31842  31899M 31915  33027M 33028M 33029M 33030
             33214D 33216M 33216  33217M 33218U 33219M 33220N 33348M 33355  33360M 33364  33366M 33367  33378M 33390N
             33397M 33423  33443  33448  33517  33535M 33538  33549  33759  33795M 33819  33985  34093M 34093  34094M
             34106M 34106  34107M 34108M 34176D 34178M 34178  34179M 34180U 34181  34182  34184M 34186M 34187  34220
             34225M 34225  34226M 34263M 34322  34594M 34632  34653M 34661U 34793  34859U
     5(5)      963U  2167  18112  18130M 18138U 18453U 18703M 18704M 18714U 18736M 18875U 18933M 19099  19123M 19131U
             19145U 19150M 19297  19313M 19318  19359M 19359  19361M 19402M 19402  19424M 19472  19500M 19593M 19660
             19708M 19708  19775M 19785M 19785N 19793M 19793  19858D 19860M 19860  19861M 19862U 19863  19946D 19948M
             19948  19949M 19950U 20018D 20020M 20020  20021M 20022U 20092M 20138M 20252  20259  20294  20318  20488M
             20511  20573M 20593  20655M 20675  20737M 20757  20819M 20839  20907M 20927  20994M 21109  21142N 21186M
             21206  21260N 21304M 21410  21521M 21546  21689M 21848M 21866M 21902M 21969M 21970M 22019M 22041M 22041N
             22042  22046M 22064  22079M 22090M 22090N 22096M 22117  22236M 22250  22294M 22395  22583M 22617  22646M
             22662U 22666  22677M 22678M 22678  22705  22778U 22799M 22833  22862M 22878U 22882  22893M 22894M 22894
             22921  22961U 22982M 23012  23040M 23056U 23060  23071M 23072M 23072  23099  23178U 23199M 23267  23302
             24568M 26042M 27249  27338M 27360  27567M 27774  28327M 28360  28475M 28485  29102M 29142  29182M 29239
             29409M 29456  29506M 29514  29531U 29708U 29731M 29752  29792M 29800  29817U 29926U 29944M 29955  30005M
             30018  30027  30342M 30356U 30369U 30372  30397M 30715M 30751  30855  30884M 30987  31094M 31115M 31139
             31149U 31157  31182U 31184M 31237  31273M 31398U 31403M 31432  31801M 31842  31899M 31915  31930M 31938U
             33360M 33364  33397M 33423  33443  33448  33485M 33488  33517  33532U 33535M 33538  33549  33759  33795M
             33819  33985  34069D 34071M 34071  34072M 34073U 34094M 34095M 34107M 34108M 34109M 34110M 34112M 34113
             34183M 34188M 34189M 34226M 34227  34263M 34322  34594M 34632  34793
     6(6)      959U  2167  18112  18147M 18147  18156M 18172U 18177  18242  18417  18439U 18446  18469U 18511U 18665M
             18673U 18928U 18933M 19099  19150M 19297  19424M 19472  19593M 19660  19756M 19757M 19757  19774M 19786M
             19923M 19924M 19924  20070M 20071M 20071  20093  20094M 20139  20142M 20143M 20144  20146M 20213  20216M
             20216  20220M 20222  20252N 20273  20297  20318N 20488M 20511  20573M 20593  20655M 20675  20737M 20757
             20819M 20839  20907M 20927  20994M 21109  21135M 21145  21146M 21149  21164M 21170  21186M 21206  21253M
             21263  21264M 21267  21282M 21288  21304M 21410  21521M 21546  21689M 21692M 21832  21849M 21878M 21878N
             21895M 21900  21903M 21904  21971M 21988M 22042  22046M 22064  22080M 22091M 22096M 22117  22139M 22140M
             22140  22236M 22250  22294M 22395  22583M 22617  22705  22799M 22833  22921  22982M 23012  23099  23199M
             23267  23302  23671M 23672  23680U 24568M 26042M 27249  27338M 27360  27567M 27774  28327M 28360  28475M
             28485  29102M 29118U 29142  29166U 29182M 29190U 29239  29293M 29304U 29388  29404U 29409M 29456  29492M
             29501U 29713U 29731M 29752  29778M 29787U 29931U 29944M 29955  29972M 29973M 29973  30002U 30027  30372
             30397M 30449  30715M 30751  30855  30884M 30987  31094M 31139  31157  31237  31403M 31432  31801M 31842
             31899M 31915  31940M 33360M 33364  33397M 33423  33443  33448  33517  33535M 33538  33549  33550M 33679
             33759  33795M 33799M 33819  33909U 33985  34011M 34019U 34263M 34271U 34295U 34322  34594M 34602U 34632
             34672M 34680U 34793  34866U 34902U 34941U
     7(7)      955U  2160M  2160   2161B  2167   2173B 18112  18115M 18125U 18933M 18940U 19099  19102M 19112U 19150M
             19267U 19297  19300M 19310U 19424M 19432U 19472  19477M 19489U 19585U 19593M 19660  19666M 19678U 20480U
             20488M 20511  20516M 20528U 20565U 20573M 20593  20598M 20610U 20647U 20655M 20675  20680M 20692U 20729U
             20737M 20757  20762M 20774U 20811U 20819M 20839  20844M 20856U 20899U 20907M 20927  20932M 20944U 20986U
             20994M 21109  21114M 21126U 21178U 21186M 21206  21211M 21223U 21296U 21304M 21410  21416M 21428U 21513U
             21521M 21546  21549M 21559U 22046M 22058U 22064  22067M 22077U 22096M 22103U 22117  22120M 22130U 22236M
             22243U 22250  22253M 22263U 22294M 22301U 22306M 22316U 22332U 22395  22400M 22412U 22575U 22583M 22617
             22622M 22634U 22705  22791U 22799M 22833  22838M 22850U 22921  22974U 22982M 23012  23017M 23029U 23099
             23191U 23199M 23267  23270M 23280U 23302  23525M 23526  23706M 23716U 23719U 24568M 26042M 26870  27249
             27252M 27262U 27265U 27338M 27345U 27360  27365M 27375U 27567M 27578U 27774  27779M 27791U 28319U 28327M
             28360  28365M 28377U 28467U 28475M 28485  28488M 28498U 29102M 29124U 29142  29147M 29157U 29182M 29196U
             29239  29242M 29252U 29409M 29416U 29456  29462M 29474U 29723U 29731M 29752  29757M 29769U 29936U 29944M
1         (DISK4072) (12:42) (15MAR04) General Purpose Register Cross Reference                                             Page  216
             29955  29958M 29968U 30027  30372  30397M 30715M 30722U 30751  30756M 30768U 30855  30876U 30884M 30941M
             30951U 30967U 30987  30990M 31000U 31094M 31139  31157  31160M 31170U 31173U 31237  31240M 31250U 31253U
             31259M 31268U 31271U 31403M 31432  31435M 31445U 31448U 31801M 31842  31845M 31855U 31858U 31899M 31906U
             31915  31918M 31928U 33360M 33364  33397M 33423  33443  33448  33469M 33479U 33482U 33517  33526U 33535M
             33538  33549  33554M 33564U 33750U 33759  33795M 33804M 33814U 33819  33865  33868M 33878U 33881U 33889M
             33896U 33985  33990M 34000U 34263M 34284U 34322  34325M 34335U 34594M 34608U 34632  34635M 34645U 34793
             34872U 34883M 34893U 34947U 34958M 34968U
     8(8)      951U  2167  18112  18113M 18931  18933M 19099  19100M 19148  19150M 19297  19298M 19422  19424M 19472
             19473M 19549  19589  19593M 19660  19662M 19692U 20475U 20484  20488M 20511  20512M 20569  20573M 20593
             20594M 20651  20655M 20675  20676M 20733  20737M 20757  20758M 20815  20819M 20839  20840M 20903  20907M
             20927  20928M 20990  20994M 21109  21110M 21168N 21170N 21182  21186M 21206  21207M 21286N 21288N 21300
             21304M 21410  21412M 21442U 21508U 21517  21521M 21546  21547M 21787  21805  21808  22044  22046M 22064
             22065M 22094  22096M 22117  22118M 22234  22236M 22250  22251M 22292  22294M 22395  22396M 22579  22583M
             22617  22618M 22705  22795  22799M 22833  22834M 22921  22978  22982M 23012  23013M 23099  23195  23199M
             23267  23268M 23302  24567  24568M 26041  26042M 27249  27250M 27336  27338M 27360  27361M 27565  27567M
             27774  27775M 28323  28327M 28360  28361M 28471  28475M 28485  28486M 29100  29102M 29142  29143M 29180
             29182M 29239  29240M 29407  29409M 29456  29458M 29488U 29718U 29727  29731M 29752  29753M 29940  29944M
             29955  29956M 30027  30372  30397M 30713  30715M 30751  30752M 30855  30880  30884M 30987  30988M 31092
             31094M 31139  31157  31158M 31237  31238M 31401  31403M 31432  31433M 31799  31801M 31842  31843M 31897
             31899M 31915  31916M 33358  33360M 33364  33397M 33423  33443  33517  33538  33549  33797M 33819  33985
             33986M 34009U 34261  34263M 34278U 34322  34323M 34592  34594M 34632  34686M 34686  34793  34918M
     9(9)      947U  2167  18895M 18902  22705  22921  23099  23302  30027  30372  30397M 30855  31139  33378N 33423
             33443  33517  33538  33549  33819  34040  34052M 34632  34793
    10(A)      943U  2167  22705  22921  23099  23302  30027  30372  30397M 30855  31139  33423  33443  33517  33538
             33549  33819  34040  34052M 34632  34793
    11(B)      939U  1231U  2167   9252B  9253B 22705  22921  23099  23302  27354U 27587U 29135U 29206U 30027  30372
             30397M 30855  31139  33423  33443  33447  33517  33538  33549  33794M 33819  33849U 34040  34052M 34304U
             34632  34670M 34670  34793  34909M 34909
    12(C)      935U  1240U  2167  22705  22921  23099  23302  30027  30372  30397M 30855  31139  33423  33443  33517
             33538  33549  33566M 33819  33856U 34040  34052M 34313U 34632  34666M 34793  34905M
    13(D)      931U  2167  18112  18113  18114M 18114  18931M 18932  18933  19099  19100  19101M 19101  19148M 19149
             19150  19297  19298  19299M 19299  19422M 19423  19424  19469  19472  19473  19474M 19474  19589M 19593
             19595  19657  19660  19662  19663M 19663  20363  20364  20365  20367M 20367  20380M 20381  20382  20383
             20410  20411  20412  20414M 20414  20427M 20428  20429  20430  20484M 20488  20490  20508  20511  20512
             20513M 20513  20569M 20573  20575  20590  20593  20594  20595M 20595  20651M 20655  20657  20672  20675
             20676  20677M 20677  20733M 20737  20739  20754  20757  20758  20759M 20759  20815M 20819  20821  20836
             20839  20840  20841M 20841  20903M 20907  20909  20924  20927  20928  20929M 20929  20990M 20994  20996
             21106  21109  21110  21111M 21111  21182M 21186  21188  21203  21206  21207  21208M 21208  21300M 21304
             21306  21407  21410  21412  21413M 21413  21517M 21521  21523  21546  21547  21548M 21548  22044M 22045
             22046  22064  22065  22066M 22066  22094M 22095  22096  22117  22118  22119M 22119  22234M 22235  22236
             22250  22251  22252M 22252  22292M 22293  22294  22392  22395  22396  22397M 22397  22579M 22583  22585
             22614  22617  22618  22619M 22619  22705  22795M 22799  22801  22830  22833  22834  22835M 22835  22921
             22978M 22982  22984  23009  23012  23013  23014M 23014  23099  23195M 23199  23201  23267  23268  23269M
             23269  23302  24567M 26041M 26042  26043  27249  27250  27251M 27251  27336M 27337  27338  27360  27361
             27362M 27362  27565M 27566  27567  27771  27774  27775  27776M 27776  28323M 28327  28329  28357  28360
             28361  28362M 28362  28471M 28475  28477  28485  28486  28487M 28487  29100M 29101  29102  29142  29143
             29144M 29144  29180M 29181  29182  29239  29240  29241M 29241  29293  29294M 29294  29407M 29408  29409
             29453  29456  29458  29459M 29459  29727M 29731  29733  29749  29752  29753  29754M 29754  29940M 29944
             29946  29955  29956  29957M 29957  30027  30372  30373  30397M 30713M 30714  30715  30748  30751  30752
             30753M 30753  30855  30880M 30884  30886  30987  30988  30989M 30989  31092M 31093  31094  31139  31157
             31158  31159M 31159  31237  31238  31239M 31239  31401M 31402  31403  31432  31433  31434M 31434  31799M
             31800  31801  31842  31843  31844M 31844  31897M 31898  31899  31915  31916  31917M 31917  33358M 33359
             33360  33406  33407M 33407  33423  33430M 33431  33443  33517  33538  33549  33551  33796M 33797  33819
             33985  33986  33987M 33987  34040  34052M 34261M 34262  34263  34322  34323  34324M 34324  34592M 34593
             34594  34632  34793  34828  34917M 34918
    14(E)      927U  2167   2168M  2182   2183M  2184B  2186M  2187B  2207M  2208B  2212M  2213B  2215M  2216B  2218M
              2219B  2221M  2222B  2224M  2225M  2225B  2231  18110  18163M 18186M 18187M 18187B 18219M 18220M 18220B
             18425M 18426  18895  18902M 18903B 18932M 18934B 19097  19135M 19138M 19149M 19151B 19195B 19261B 19295
             19324M 19325M 19325B 19329M 19330M 19330B 19355M 19356M 19356B 19365M 19366M 19366B 19406M 19407M 19407B
1         (DISK4072) (12:42) (15MAR04) General Purpose Register Cross Reference                                             Page  217
             19423M 19426B 19469  19506M 19507M 19507B 19545M 19546M 19546B 19595M 19598B 19657  19717M 19718M 19718B
             19723M 19724M 19724B 19739M 19740M 19740B 19779M 19824M 19825M 19825B 19880M 19881M 19881B 19908M 19909M
             19909B 20040M 20041M 20041B 20056M 20057M 20057B 20086M 20087M 20087B 20109M 20110M 20110B 20130M 20131M
             20131B 20185M 20186M 20186B 20201M 20202M 20202B 20240M 20241M 20241B 20288M 20289M 20289B 20312M 20313M
             20313B 20334M 20335N 20336N 20340M 20340  20362M 20363  20364  20365  20370M 20371  20374M 20375M 20375B
             20378M 20381  20382  20383  20409M 20410  20411  20412  20417M 20418  20421M 20422M 20422B 20425M 20428
             20429  20430  20453M 20454M 20454B 20490M 20493B 20508  20553M 20554M 20554B 20557M 20558M 20558B 20575M
             20578B 20590  20635M 20636M 20636B 20639M 20640M 20640B 20657M 20660B 20672  20717M 20718M 20718B 20721M
             20722M 20722B 20739M 20742B 20754  20799M 20800M 20800B 20803M 20804M 20804B 20821M 20824B 20836  20887M
             20888M 20888B 20891M 20892M 20892B 20909M 20912B 20924  20955M 20956M 20956B 20973M 20974M 20974B 20977M
             20978M 20978B 20996M 20999B 21106  21143M 21144M 21188M 21191B 21203  21247M 21248M 21248B 21261M 21262M
             21306M 21309B 21407  21495M 21496M 21496B 21500M 21501M 21501B 21523M 21526B 21544  21660M 21661M 21661B
             21674M 21675M 21675B 21680M 21681M 21681B 21699M 21700M 21700B 21764M 21765M 21765B 21784M 21785M 21790
             21805N 21810M 21811  21815M 21817  21840M 21841M 21841B 21846M 21847M 21847B 21950M 21951M 21951B 21959M
             21960M 21960B 21965M 21966M 21966B 22045M 22047B 22051M 22052M 22052B 22062  22095M 22097B 22115  22173M
             22174M 22174B 22219M 22220M 22220B 22227M 22228M 22228B 22235M 22237B 22248  22281M 22282M 22282B 22293M
             22295B 22392  22455M 22456  22458M 22458N 22459  22460  22498M 22499M 22499B 22585M 22588B 22614  22705
             22706M 22747M 22748  22750M 22750N 22751  22752  22762M 22763M 22763B 22801M 22804B 22830  22921  22922M
             22984M 22987B 23009  23099  23100M 23151M 23152  23154M 23154N 23155  23156  23166M 23167M 23167B 23201M
             23204B 23265  23302  23303M 23337M 23338M 23338B 23369M 23370M 23370B 23375M 23376M 23376B 23454M 23455M
             23455B 23507M 23508M 23508B 23613M 23614M 23614B 23660M 23661M 23661B 23728M 23729M 23729B 23733M 23734M
             23734B 23766M 23767M 23767B 23843M 23844M 23844B 23856M 23857M 23857B 23864M 23865M 23865B 24019M 24020M
             24020B 24267M 24268M 24268B 24307M 24308M 24308B 24317M 24318M 24318B 24542M 24543M 24543B 24557M 24558M
             24558B 24566M 24569B 24573M 24574M 24574B 24602M 24603M 24603B 24607M 24608M 24608B 24631M 24634  24674M
             24675M 24675B 24678M 24679M 24679B 24768M 24769M 24769B 24791M 24865M 24866M 24866B 24908M 24909M 24909B
             24963M 24963  24964M 24966M 24969M 25187M 25188M 25188B 25201M 25202M 25202B 25207M 25208M 25208B 25210M
             25210  25211M 25212M 25212  25263M 25263  25264M 25266M 25291M 25516M 25517M 25517B 25555M 25556  25559M
             25560M 25560B 25568M 25569M 25569B 25626M 25627M 25627B 25656B 25761M 25762  25765M 25766M 25766B 25812M
             25813M 25813B 25865M 25866M 25866B 25877M 25878M 25878B 25992M 26002M 26006M 26010M 26011M 26011B 26019M
             26020  26021  26028M 26031M 26032M 26032B 26043M 26045B 26051M 26052M 26052B 26055  26059M 26060M 26060B
             26068M 26069M 26069B 26152M 26153M 26153B 26197M 26198  26201M 26202M 26202B 26210M 26211M 26211B 26247M
             26248M 26248B 26276M 26277M 26277B 26334M 26335M 26335B 26356M 26366M 26367M 26367B 26424M 26425M 26425B
             26433M 26434M 26434B 26526M 26527M 26527B 26586M 26587M 26587B 26634M 26635M 26635B 26680M 26681M 26681B
             26692M 26693M 26693B 26697M 26698M 26698B 26707M 26708M 26708B 26712M 26713M 26713B 26717M 26718M 26718B
             26724M 26725M 26725B 26742M 26743M 26743B 26828M 26829  26831M 26831N 26832  26833  26847M 26848M 26848B
             26858M 26859M 26859B 26928M 26929M 26929B 26936M 26937M 26937B 26963M 26964M 26964B 27089M 27090M 27090B
             27121B 27140B 27152B 27169M 27170M 27170B 27247  27337M 27339B 27358  27415M 27416  27460M 27461  27566M
             27569B 27685  27771  27983M 27984M 27984B 28329M 28332B 28357  28477M 28480B 28483  29101M 29104B 29140
             29181M 29183B 29237  29396M 29397M 29397B 29408M 29410B 29453  29550M 29551M 29551B 29560M 29563M 29564M
             29564B 29622M 29733M 29736B 29749  29847M 29848M 29848B 29857M 29860M 29861M 29861B 29919M 29946M 29949B
             29953  30027  30028M 30101M 30102M 30102B 30112M 30113M 30113B 30205M 30206M 30206B 30212M 30215M 30216M
             30216B 30234M 30235M 30235B 30385M 30388M 30414M 30415  30418M 30419M 30419B 30459M 30460  30463M 30464M
             30464B 30537M 30538M 30538B 30559M 30560M 30560B 30615M 30616  30619M 30620M 30620B 30653M 30654  30656M
             30656N 30657  30658  30668M 30669M 30669B 30681M 30682M 30682B 30690M 30691M 30691B 30694M 30695M 30695B
             30702M 30703M 30703B 30708M 30709M 30709B 30714M 30716B 30748  30822M 30823M 30823B 30838M 30839M 30839B
             30855  30856M 30886M 30889B 30985  31054M 31055M 31055B 31061M 31062M 31062B 31066M 31068  31069M 31088M
             31089M 31089B 31093M 31096B 31104B 31138M 31139  31155  31222M 31223M 31223B 31235  31331M 31332M 31332B
             31402M 31405B 31430  31646M 31647M 31647B 31650M 31662M 31663M 31663B 31670M 31800M 31803B 31840  31879M
             31880M 31880B 31898M 31900B 31911M 31913  31965M 31973M 31974M 31974B 31986M 32034M 32035  32037M 32046M
             32083M 32084  32086M 32091M 32094  32098M 32099M 32099B 32105M 32108  32112M 32219M 32309M 32421M 32429M
             32497M 32592M 32734M 32741M 32772M 32824M 32833M 32872M 32873  32875M 32883M 33032B 33109M 33171M 33174M
             33186M 33193M 33205M 33238M 33284M 33311M 33329M 33330  33332M 33332N 33333  33334  33340M 33341M 33341B
             33344M 33345M 33345B 33352M 33353M 33353B 33359M 33362B 33364  33375M 33395M 33396M 33396B 33397M 33398B
             33403B 33406  33422M 33423  33431M 33432B 33443  33444M 33448  33461B 33516M 33517  33535M 33538  33539M
             33542B 33549  33759  33772B 33795M 33800B 33819  33820M 33890B 33983  34040  34051M 34052M 34262M 34264B
             34320  34352M 34353M 34353B 34405M 34406M 34406B 34420M 34421M 34421B 34484M 34485M 34485B 34499M 34500M
             34500B 34524M 34525M 34525B 34539M 34540M 34540B 34565M 34566M 34566B 34588M 34589M 34589B 34593M 34595B
             34632  34793  34818M 34822  34824M 34824  34828M 34829B 34920M 34921  34932M 34933M 34933B
    15(F)      923U  2167   9714M  9714  18162M 18162  18163M 18178M 18202M 18418M 18424  18426  18427  18428  18429
1         (DISK4072) (12:42) (15MAR04) General Purpose Register Cross Reference                                             Page  218
             18430  18491  18791M 18791  19118M 19118  19420M 19420  19425M 19425  19547  19553M 19553  19573M 19597M
             19597  19777M 19779M 19780  19951M 19991M 20023M 20037  20062M 20237M 20242M 20248M 20253  20263M 20271M
             20272M 20273  20384M 20384  20431M 20431  20444M 20444  20462M 20462  20492M 20492  20550M 20577M 20577
             20632M 20659M 20659  20714M 20741M 20741  20796M 20823M 20823  20884M 20911M 20911  20970M 20998M 20998
             21171M 21190M 21190  21289M 21308M 21308  21452M 21456M 21465M 21465  21472  21492M 21497M 21525M 21525
             21569M 21569  21787M 21788M 21805M 21808M 21809M 21993M 22135M 22135  22170M 22170  22216M 22216  22250
             22278M 22294M 22421  22425M 22472M 22472  22479M 22554M 22554  22587M 22587  22644M 22705  22767M 22767
             22803M 22803  22860M 22921  22950M 22950  22986M 22986  23038  23099  23203M 23203  23267  23302  23334M
             23451M 23504M 23524M 23610M 23656M 23657M 23657  23730M 23757M 23757  23773  23774M 23776M 23778  23820M
             23853M 23938M 23948  23957M 23957  23966  24038  24110  24111M 24255  24256M 24343M 24343  24365M 24412M
             24412  24552  24559  24568M 24617M 24617  24655M 24655  24665  24666M 24666  24946M 24947M 24947  24953M
             24954M 24954  24956  24958M 24964M 24965  24966M 24976M 24977  24985M 24986M 24986  24988  25007  25056
             25146  25171  25186M 25209M 25211M 25214M 25215  25220M 25220  25221  25259M 25260M 25260  25262M 25264M
             25265  25266M 25277  25321M 25322  25324  25352M 25353M 25353  25362M 25362  25368M 25386M 25391  25397
             25398M 25399M 25401  25515M 25518M 25520  25521M 25522M 25524  25587  25587  25593M 25607M 25607  25616
             25631M 25632  25872M 25872  25879  25927M 25928M 25929M 25929  25930M 25945  25950M 25959M 25959  25966
             26015M 26020  26024  26026M 26026  26027M 26028  26038M 26038  26044M 26044  26072M 26215M 26215  26220M
             26231  26231  26237M 26243  26348M 26438M 26438  26521M 26522  26638  26668M 26668  26694  26714  26719M
             26731M 26734M 26744  26860M 26863M 26867M 26870M 26873M 26876M 26879M 26882M 26885M 26888M 26891M 26894M
             26897M 26900M 26912M 26916M 26919M 26933  26938M 26947D 26949M 26949  26950M 26951U 26952M 26952  26954
             26959M 27166M 27171M 27425M 27425  27435M 27435  27478M 27478  27503M 27503  27551M 27551  27568M 27568
             27683U 27719U 28218M 28219  28224M 28236  28246M 28246  28251  28305M 28306M 28307  28312M 28331M 28331
             28441M 28441  28454M 28479M 28479  28760M 28761M 28761  28779U 28830U 28833  28839M 28839  28917M 28918M
             28918  28947M 28947  28948  29084M 29087M 29090M 29093M 29096M 29103M 29103  29239  29321M 29324  29336M
             29344M 29353M 29353  29360  29379M 29409M 29543M 29543  29544  29545M 29547  29558M 29559M 29559  29560B
             29634M 29634  29735M 29735  29843M 29843  29844  29855M 29856M 29856  29857B 29948M 29948  29988M 29988
             30027  30180M 30180  30210M 30210  30211M 30212B 30220M 30220  30240M 30240  30281M 30282M 30283M 30284
             30384M 30385B 30387M 30388B 30398M 30398  30432  30439M 30449M 30465  30502M 30502  30525M 30525  30683M
             30684M 30684  30697M 30704  30710M 30711M 30711  30855  30888M 30888  31041D 31043M 31043  31044M 31045U
             31056M 31067M 31067  31068M 31069B 31085M 31095M 31095  31098M 31139  31140M 31141B 31185M 31186M 31186
             31188M 31190  31194M 31194  31197  31205  31229M 31229  31335  31337N 31366M 31366  31375M 31378M 31381M
             31384M 31387M 31390M 31404M 31404  31453M 31453  31590M 31597M 31614M 31635M 31640  31659M 31672M 31673
             31706M 31762M 31781M 31781  31802M 31802  31842  31899M 31943  31965B 32054M 32054  32056  32058  32060M
             32061  32269M 32270  32272M 32273  32306  32426  32537M 32600M 32708M 32725M 32725N 32742M 32742  32754M
             32757M 32765M 32765  32817M 32817  32837M 32837  32853M 32880  32891M 32903  32926  32933M 32950  32960M
             32960  32966M 33194  33288  33346M 33349  33356M 33361M 33361  33364  33374M 33375B 33397M 33423  33424M
             33425B 33443  33448  33517  33518M 33519B 33535M 33538  33549  33638M 33694  33759  33795M 33819  34040
             34049M 34050M 34050  34051  34052M 34059M 34094  34184  34253M 34349M 34402M 34417M 34423M 34433M 34447M
             34447  34481M 34496M 34521M 34536M 34562M 34585M 34590M 34632  34792M 34793  34810M 34811  34815M 34816
             34817M 34817  34822  34823M 34823

1DISK     (DISK4072) (12:42) (15MAR04) Diagnostic Cross Reference and Assembler Summary                                     Page  219
-                                                                                            HLASM R4.0  2004/03/15 12.42
0     No Statements Flagged in this Assembly
 HIGH LEVEL ASSEMBLER, 5696-234, RELEASE 4.0, PTF P72483
0SYSTEM: OS/390 02.10.00            JOBNAME: WYL#DISK    STEPNAME: ASM        PROCSTEP: (NOPROC)
0Datasets Allocated for this Assembly
  Con DDname   Dataset Name                                 Volume  Member
   P1 SYSIN    WYL.GS.WYL.WYLBUR.SOURCE                     SYSB05  DISK
   L1 SYSLIB   WYL.GS.WYL.WYLBUR.MACLIB                     SYSB05
   L2          WYL.GG.SYS.MACLIB                            SYSB05
   L3          SYS3.IS.MACLIB                               SYSB05
   L4          SYS3.MACLIB                                  SYSB02
   L5          SYS1.MACLIB                                  MVSBR9
   L6          SYS1.MODGEN                                  MVSBR9
      SYSPRINT SYS04075.T124159.RA000.WYL#DISK.PRINT.H01    SCR101
      SYSTERM  GG$SLP.WYL#DISK.JOB03515.D0000101.?

    3668K allocated to Buffer Pool,         8657K would be required for this to be an In-Storage Assembly
    4102 Primary Input Records Read        50216 Library Records Read               1225 Work File Reads
       0 ASMAOPT Records Read              15360 Primary Print Records Written      1253 Work File Writes
       0 Punch Records Written                 0 ADATA Records Written
0Assembly Start Time: 12.42.01 Stop Time: 12.42.21 Processor Time: 00.00.06.8444
 Return Code 000
