1                        J E S 2  J O B  L O G  --  S Y S T E M  S Y S B  --  N O D E  R L G
0
 12.48.14 JOB03539 ---- MONDAY,    15 MAR 2004 ----
 12.48.14 JOB03539  ICH70001I GG$SLP   LAST ACCESS AT 12:47:42 ON MONDAY, MARCH 15, 2004
 12.48.14 JOB03539  $HASP373 WYL#LOCA STARTED - INIT 6    - CLASS B - SYS SYSB
 12.48.14 JOB03539  ***  HCMD      STEP $$QUIET
 12.48.14 JOB03539  PUR * Q OUT MUL
 12.48.14 JOB03539  JOB 5402 WYL#LOCA WILL BE PURGED
 12.48.15 JOB03539  WYL#LOCA.$$QUIET .         RC=Zero TapeIO=0000 DiskIO=0000 CPU=  .01s Elapsed=94.15s
 12.48.21 JOB03539  WYL#LOCA.ASM     .         RC=Zero TapeIO=0000 DiskIO=0437 CPU= 1.76s Elapsed=95.31s
 12.48.21 JOB03539  WYL#LOCA.EDIT    .         RC=Zero TapeIO=0000 DiskIO=0055 CPU=  .18s Elapsed=01.45s
 12.48.21 JOB03539  WYL#LOCA Ended.  Name=Assemble LOCAL                 Total CPU= 1.95s Elapsed=94.15s
 12.48.21 JOB03539
 12.48.21 JOB03539  Execution charges   Priority=Standard   Block=Day
 12.48.21 JOB03539
 12.48.21 JOB03539  CPU Usage          35.62          $22.08   Standard Processing Unit Equivalent
 12.48.21 JOB03539                                   =======
 12.48.21 JOB03539                                    $22.08   Total Job execution charge
 12.48.21 JOB03539
 12.48.21 JOB03539  See back separator page for print charges
 12.48.21 JOB03539
 12.48.21 JOB03539  $HASP395 WYL#LOCA ENDED  ASM=0, EDIT=0
1        1 //WYL#LOCA JOB SLP$GG,'Assemble LOCAL',TIME=4,REGION=4M                 JOB03539
           //*
           /*JOBPARM LINES=99,COPIES=1
           /*JOBPARM FORMS=3HOL,PFORMAT=LAND,CHARS=BD13,DUPLEX=YES,FLASH=BAR4
           //*
           /*JOBPARM NOTIFY=GG.SLP,HOLD=OUTPUT                                     WYLGEN
         2 //$$QUIET EXEC PGM=HCMDX,PARM='PUR * Q OUT MUL'
           //*
         3 //ASM    EXEC PGM=ASMA90,REGION=8M,
           //            PARM=('NORENT,TERM,FLAG(NOCONT),US(MAP,WARN(10)),NODECK',
           //            'LC(32767),XREF(SHORT),ESD,DXREF,NOOBJECT')
         4 //STEPLIB DD DSN=SYS3.IS.TESTASM,DISP=SHR
         5 //SYSLIB   DD  DSN=WYL.GS.WYL.WYLBUR.MACLIB,DISP=SHR
         6 //         DD  DSN=WYL.GG.SYS.MACLIB,DISP=SHR
         7 //         DD  DSN=SYS3.IS.MACLIB,DISP=SHR
         8 //         DD  DSN=SYS3.MACLIB,DISP=SHR
         9 //         DD  DSN=SYS1.MACLIB,DISP=SHR
        10 //         DD  DSN=SYS1.MODGEN,DISP=SHR
        11 //SYSUT1   DD DSN=&&SYSUT1,UNIT=VIO,DISP=(,DELETE),
           //            SPACE=(4088,(500,250),,CONTIG,ROUND)
        12 //SYSTERM  DD SYSOUT=T
        13 //SYSPRINT DD DSN=&&PRINT,UNIT=SYSDA,DISP=(,PASS),
           //            SPACE=(6650,(250,250),RLSE),
           //            DCB=(BLKSIZE=6650,LRECL=133,RECFM=FB)
        14 //SYSUDUMP DD SYSOUT=A
        15 //SYSIN    DD  DSN=WYL.GS.WYL.WYLBUR.SOURCE(LOCAL),DISP=SHR
           //*
        16 //EDIT    EXEC PGM=ASMEDIT,TIME=2,REGION=4000K,
           //             PARM='STMT'
        17 //STEPLIB  DD  DSN=WYL.GG.SYS.LINKLIB,DISP=SHR
        18 //ASMOUT   DD  DSN=&PRINT,DISP=(OLD,DELETE)
        19 //SYSPRINT DD  SYSOUT=A
1 STMT NO. MESSAGE
 -
        11 IGD01010I STORCLAS= TEMP STORGROUP =
        11 IGD01010I STORGRP=VIO ASSIGNED.
        13 IGD01010I STORCLAS= TEMP STORGROUP =
        13 IGD01010I STORGRP=VIO ASSIGNED.
 ICH70001I GG$SLP   LAST ACCESS AT 12:47:42 ON MONDAY, MARCH 15, 2004
 IEF142I WYL#LOCA $$QUIET - STEP WAS EXECUTED - COND CODE 0000
 *********************************************************************************
 *   WYL#LOCA/$$QUIET /                    Return Code      Zero                 *
 *   Region used      260K (16K user + 244K system)                              *
 *   Extended region  9692K (4K user + 9688K system)                             *
 *                                                                               *
 *   Paging              In      Out                                             *
 *   Private <-> Aux      0        0       CPU time (TCB)   00:00:00.01          *
 *   Private <-> Exp      0        0       CPU time (SRB)   00:00:00.00          *
 *   VIO                  0        0       Elapsed time    917:39:38.81          *
 *   Common               0      ---                                             *
 *                                                                               *
 *                                                                               *
 *   CPU Usage          0.18         $0.11  Standard Processing Unit Equivalent  *
 *                                   $0.11  Total Step execution charge          *
 *                                                                               *
 *    I/O count  DDname   Type Addr           I/O count  DDname   Type Addr      *
 *                         *** No I/O for this step ***                          *
 *********************************************************************************
 IEF373I STEP/$$QUIET /START 2004075.1248
 IEF374I STEP/$$QUIET /STOP  2004075.1248 CPU    0MIN 00.01SEC SRB    0MIN 00.00SEC VIRT    16K SYS   244K EXT       4K SYS    9688K
 IEF236I ALLOC. FOR WYL#LOCA ASM
 IEF237I 04DC ALLOCATED TO STEPLIB
 IEF237I 04DC ALLOCATED TO SYSLIB
 IEF237I 04DC ALLOCATED TO
 IEF237I 04DC ALLOCATED TO
 IEF237I 0402 ALLOCATED TO
 IEF237I 04A0 ALLOCATED TO
 IEF237I 04A0 ALLOCATED TO
 IGD101I SMS ALLOCATED TO DDNAME (SYSUT1  )
         DSN (SYS04075.T124814.RA000.WYL#LOCA.SYSUT1.H01  )
         STORCLAS (TEMP) MGMTCLAS (        ) DATACLAS (        )
         VOL SER NOS= VIO
 IEF237I JES2 ALLOCATED TO SYSTERM
 IGD101I SMS ALLOCATED TO DDNAME (SYSPRINT)
         DSN (SYS04075.T124814.RA000.WYL#LOCA.PRINT.H01   )
         STORCLAS (TEMP) MGMTCLAS (        ) DATACLAS (        )
         VOL SER NOS= SCR101
 IEF237I JES2 ALLOCATED TO SYSUDUMP
 IEF237I 04DC ALLOCATED TO SYSIN
 IEF142I WYL#LOCA ASM - STEP WAS EXECUTED - COND CODE 0000
 IEF285I   SYS3.IS.TESTASM                              KEPT
 IEF285I   VOL SER NOS= SYSB05.
 IEF285I   WYL.GS.WYL.WYLBUR.MACLIB                     KEPT
 IEF285I   VOL SER NOS= SYSB05.
 IEF285I   WYL.GG.SYS.MACLIB                            KEPT
 IEF285I   VOL SER NOS= SYSB05.
 IEF285I   SYS3.IS.MACLIB                               KEPT
 IEF285I   VOL SER NOS= SYSB05.
 IEF285I   SYS3.MACLIB                                  KEPT
 IEF285I   VOL SER NOS= SYSB02.
 IEF285I   SYS1.MACLIB                                  KEPT
 IEF285I   VOL SER NOS= MVSBR9.
 IEF285I   SYS1.MODGEN                                  KEPT
 IEF285I   VOL SER NOS= MVSBR9.
 IGD105I SYS04075.T124814.RA000.WYL#LOCA.SYSUT1.H01   DELETED,   DDNAME=SYSUT1
 IEF285I   GG$SLP.WYL#LOCA.JOB03539.D0000101.?          SYSOUT
 IGD106I SYS04075.T124814.RA000.WYL#LOCA.PRINT.H01    PASSED,    DDNAME=SYSPRINT
 IEF285I   GG$SLP.WYL#LOCA.JOB03539.D0000102.?          SYSOUT
 IEF285I   WYL.GS.WYL.WYLBUR.SOURCE                     KEPT
 IEF285I   VOL SER NOS= SYSB05.
 *********************************************************************************
 *   WYL#LOCA/ASM     /                    Return Code      Zero                 *
 *   Region used      4376K (4096K user + 280K system)                           *
 *   Extended region  10292K (412K user + 9880K system)                          *
 *                                                                               *
 *   Paging              In      Out                                             *
 *   Private <-> Aux      0        0       CPU time (TCB)   00:00:01.72          *
 *   Private <-> Exp      0        0       CPU time (SRB)   00:00:00.04          *
 *   VIO                  0        0       Elapsed time    917:39:37.65          *
 *   Common               0      ---                                             *
 *                                                                               *
 *                                                                               *
 *   CPU Usage         32.25        $19.99  Standard Processing Unit Equivalent  *
 *                                  $19.99  Total Step execution charge          *
 *                                                                               *
 *    I/O count  DDname   Type Addr           I/O count  DDname   Type Addr      *
 *           84  STEPLIB  Disk 04DC                 296  SYSLIB   Disk 04DC      *
 *            0  SYSLIB   Disk 04DC                   0  SYSLIB   Disk 04DC      *
 *            2  SYSLIB   Disk 0402                   0  SYSLIB   Disk 04A0      *
 *            0  SYSLIB   Disk 04A0                   0  SYSUT1   VIO  ----      *
 *            0  SYSTERM       ----                  52  SYSPRINT Disk 04E3      *
 *            0  SYSUDUMP      ----                   3  SYSIN    Disk 04DC      *
 *********************************************************************************
 IEF373I STEP/ASM     /START 2004075.1248
 IEF374I STEP/ASM     /STOP  2004075.1248 CPU    0MIN 01.72SEC SRB    0MIN 00.04SEC VIRT  4096K SYS   280K EXT     412K SYS    9880K
 IEF236I ALLOC. FOR WYL#LOCA EDIT
 IEF237I 0402 ALLOCATED TO STEPLIB
 IGD103I SMS ALLOCATED TO DDNAME ASMOUT
 IEF237I JES2 ALLOCATED TO SYSPRINT
 IEF142I WYL#LOCA EDIT - STEP WAS EXECUTED - COND CODE 0000
 IEF285I   WYL.GG.SYS.LINKLIB                           KEPT
 IEF285I   VOL SER NOS= SYSB02.
 IGD105I SYS04075.T124814.RA000.WYL#LOCA.PRINT.H01    DELETED,   DDNAME=ASMOUT
 IEF285I   GG$SLP.WYL#LOCA.JOB03539.D0000103.?          SYSOUT
 *********************************************************************************
 *   WYL#LOCA/EDIT    /                    Return Code      Zero                 *
 *   Region used      380K (116K user + 264K system)                             *
 *   Extended region  9816K (4K user + 9812K system)                             *
 *                                                                               *
 *   Paging              In      Out                                             *
 *   Private <-> Aux      0        0       CPU time (TCB)   00:00:00.17          *
 *   Private <-> Exp      0        0       CPU time (SRB)   00:00:00.01          *
 *   VIO                  0        0       Elapsed time    917:39:31.51          *
 *   Common               0      ---                                             *
 *                                                                               *
 *                                                                               *
 *   CPU Usage          3.18         $1.97  Standard Processing Unit Equivalent  *
 *                                   $1.97  Total Step execution charge          *
 *                                                                               *
 *    I/O count  DDname   Type Addr           I/O count  DDname   Type Addr      *
 *            2  STEPLIB  Disk 0402                  53  ASMOUT   Disk 04E3      *
 *            0  SYSPRINT      ----                                              *
 *********************************************************************************
 IEF373I STEP/EDIT    /START 2004075.1248
 IEF374I STEP/EDIT    /STOP  2004075.1248 CPU    0MIN 00.17SEC SRB    0MIN 00.01SEC VIRT   116K SYS   264K EXT       4K SYS    9812K
 *********************************************************************************
 *                                                                               *
 *                      S t a n f o r d   U n i v e r s i t y                    *
 *                                                                               *
 *                              *** Job Summary ***                              *
 *                                                                               *
 *   System Id      SYSB                   Input time     12:39:21  Mar 15, 2004 *
 *                                                                               *
 *   System Release SP6.1.0                Start time     12:48:14  Mar 15, 2004 *
 *                                                                               *
 *   Job name       WYL#LOCA               Stop  time     00:00:00  Mar 15, 2004 *
 *                                                                               *
 *   Account        SLP$GG                 Elapsed time  917:39:38.81            *
 *                                                                               *
 *   User Name      Assemble LOCAL         CPU time       00:00:01.90            *
 *                                                                               *
 *   Job class      B                      SRB Time       00:00:00.05            *
 *                                                                               *
 *********************************************************************************
 IEF375I  JOB/WYL#LOCA/START 2004075.1248
 IEF376I  JOB/WYL#LOCA/STOP  2004075.1248 CPU    0MIN 01.90SEC SRB    0MIN 00.05SEC
1Assembler Done LOCAL No Statements Flagged
1         High Level Assembler Option Summary                   (PTF P72483 )                                               Page    1
-                                                                                            HLASM R4.0  2004/03/15 12.48
0  No Overriding ASMAOPT Parameters
   Overriding Parameters-  NORENT,TERM,FLAG(NOCONT),US(MAP,WARN(10)),NODECK,LC(32767),XREF(SHORT),ESD,DXREF,NOOBJECT
   No Process Statements


   Options for this Assembly
0  NOADATA
     ALIGN
   NOASA
     BATCH
     CODEPAGE(047C)
   NOCOMPAT
   NODBCS
 3 NODECK
 3   DXREF
 3   ESD
   NOEXIT
 3   FLAG(0,ALIGN,NOCONT,NOIMPLEN,NOPAGE0,PUSH,RECORD,NOSUBSTR,USING0)
   NOFOLD
   NOGOFF
   NOINFO
     LANGUAGE(EN)
   NOLIBMAC
 3   LINECOUNT(32767)
     LIST(121)
     MXREF(SOURCE)
 3 NOOBJECT
     OPTABLE(UNI,NOLIST)
   NOPCONTROL
   NOPESTOP
   NOPROFILE
   NORA2
 3 NORENT
     RLD
     RXREF
     SIZE(MAX)
     SYSPARM()
 3   TERM(WIDE)
   NOTEST
     THREAD
   NOTRANSLATE
 3   USING(NOLIMIT,MAP,WARN(10))
 3   XREF(SHORT)

   No Overriding DD Names

1LOCAL    External Symbol Dictionary                                                                                        Page    2
-Symbol   Type   Id     Address  Length     LD ID  Flags Alias-of                            HLASM R4.0  2004/03/15 12.48
0WYLLOCAL  SD 00000001 00000000 00000017             00
 LOCL2193  LD          00000000           00000001
 WYLLOCL   SD 00000002 00000018 00000C00             00
 EXIT0     LD          00000018           00000002
 EXIT1     LD          000001BC           00000002
 COLLOPTS  ER 00000003
 SEGCLR    ER 00000004
 SEGCR     ER 00000005
 SHOWBKUP  ER 00000006
 SEGWR     ER 00000007
 SEG       ER 00000008
 LRTRIM    ER 00000009
 EXIT2     LD          00000482           00000002
 EXIT3     LD          000004F0           00000002
 EXIT4     LD          00000626           00000002
 EXIT5     LD          00000672           00000002
 EXIT12    LD          000006CE           00000002
 MTOKEN    ER 0000000A
 ACCTPSHC  ER 0000000B
 MALL      ER 0000000C
 NOTVALID  ER 0000000D
 EXIT13    LD          00000A0C           00000002
 SEGB      ER 0000000E
 BTD       ER 0000000F
 KWIO      ER 00000010
 NSCAN     ER 00000011
 SCANCHK   ER 00000012
 CHKACCT   ER 00000013
 GETKWR    ER 00000014

1LOCAL    WYLBUR Local Exits                                                                                                Page    3
0Loc    Object Code    Addr1 Addr2  Stmt Lv Lineno    Source Statement                    (Asmedit 3.3)  HLASM R4.0  2004/03/15 12.48
+___    ______ ____    _____ _____  ____ __ ______    ______ _________
0                                      2              *******************************************************************
                                       3              *                                                                 *
                                       4              *     WYLBUR/370 - Release VI - Class I - Stanford Proprietary    *
                                       5              *                                                                 *
                                       6              *******************************************************************
                                       7                       HIBAL
                                     988              ¿þþþþþþþþþþþþþþþþþþþþþþþþþþþþþþþþþþþþþþþþþþþþþþþþþþþþþþþþþþþþþþþþþþþþþÜ
                                     989              Ÿ                                                                     Ÿ
                                     990              Ÿ  LOCAL is a set of installation dependent subroutines.              Ÿ
                                     991              Ÿ  This is the Stanford version.                                      Ÿ
                                     992              Ÿ                                                                     Ÿ
                                     993              Ÿ  Note for ISU:  I replaced the LOCALRTN macro with direct           Ÿ
                                     994              Ÿ     VCALLs to the routine.  I left the names "EXITxx", but I        Ÿ
                                     995              Ÿ     expect that future routines will have more symbolic values.     Ÿ
                                     996              Ÿ     When you find a routine in some other module that should        Ÿ
                                     997              Ÿ     really be in LOCAL let me know and I'll move it here (keeping   Ÿ
                                     998              Ÿ     the same subroutine name).                                      Ÿ
                                     999              Ÿ                                                                     Ÿ
                                    1000              Ÿ                                               8/23/88  Niz          Ÿ
                                    1001              Ÿ                                                                     Ÿ
                                    1002              Ÿ                                                                     Ÿ
                                    1003              Ÿ  Another note for ISU:                                              Ÿ
                                    1004              Ÿ     The old ACCT module was split in to ACMD (accounting related    Ÿ
                                    1005              Ÿ     commands) and ACCT (internal accounting routines).  The ACCT    Ÿ
                                    1006              Ÿ     module is an "installation dependent" module, so the            Ÿ
                                    1007              Ÿ     accounting routines that used to be in LOCAL have been moved    Ÿ
                                    1008              Ÿ     back to ACCT.  I think ISU should just have it's own copy of    Ÿ
                                    1009              Ÿ     ACCT...  let me know how well it works.                         Ÿ
                                    1010              Ÿ                                                                     Ÿ
                                    1011              Ÿ                                                                     Ÿ
                                    1012              Ÿ                                               9/20/88  Niz          Ÿ
                                    1013              Ÿ                                                                     Ÿ
                                                      ¾þþþþþþþþþþþþþþþþþþþþþþþþþþþþþþþþþþþþþþþþþþþþþþþþþþþþþþþþþþþþþþþþþþþþþ»
0000000                00000 00017  1014              WYLLOCAL CSECT
                                    1018                       REGS  FSR,,,,,,,BR,(WAR,LSR),PAR,PBR,CPR,CVR,SPR,RAR
                                    1154
                                    1155              LOCL     IDENT 2193                15:11:45 07/12/02  (SLP)
                                    1158             +
                                    1159    01-IDENT +         ENTRY LOCL2193
                                    1160             +
 000000 16D3D6C3D3F2F1F9            1161    01-IDENT +LOCL2193 DC    AL1(22),C'LOCL2193,15MAR04,12:48'
                                    1162             +*
                                    1164              *
                                    1165                       SYSDEFN ,                 Define installation values
                                    1166
                                    1167                       PUSH  DSECTS
 USING  CP,R11                      1179             =         USING (CP),(CV)
 USING  CV,R12
 000017                00000 00017  1198             =         POP   PRINT
 000018                00018 00C00  6877              WYLLOCL  CSECT
1LOCAL    (LOCL2193) (12:48) (15MAR04) WYLBUR Local Exits                                                                   Page    4
0Current Usings:  (CP,R11) (CV,R12)
0Loc    Object Code    Addr1 Addr2  Stmt Lv Lineno    Source Statement           (Hibal 5, Asmedit 3.3)  HLASM R4.0  2004/03/15 12.48
+___    ______ ____    _____ _____  ____ __ ______    ______ _________
0                                   6881                       ¿þþþþþþþþþþþþþþþþÜ
                                    6882                       Ÿ  LOCAL MACROS  Ÿ
                                    6883                       ¾þþþþþþþþþþþþþþþþ»
                                    6884                       MACRO
                                    6885              &L       SYSDSNID &DSN
                                    6886                       LCLA  &LEN
                                    6887                       LCLC  &DSNX
                                    6888              &LEN     SETA  K'&DSN
                                    6889              &DSNX    SETC  '&DSN'
                                    6890                       AIF   ('&DSN'(1,1) NE '''').NOTQ
                                    6891              .*
                                    6892                       AIF   ('&DSN'(&LEN,1) NE '''').BADQ
                                    6893              &DSNX    SETC  '&DSN'(2,&LEN-2)
                                    6894              &LEN     SETA  &LEN-2
                                    6895              &L       DC    AL2(&LEN)
                                    6896                       DC    C'&DSNX'
                                    6897                       MEXIT
                                    6898              .*
                                    6899              .NOTQ    ANOP
                                    6900              &L       DC    AL2(&LEN)
                                    6901                       DC    C'&DSN'
                                    6902                       MEXIT
                                    6903              .*
                                    6904              .BADQ    MNOTE 12,'Bad quotes'
                                    6905              .EXIT    MEND
                                    6906
1LOCAL    (LOCL2193) (12:48) (15MAR04) Local Exit #0 - Generate System Global DSN                                           Page    5
0Current Usings:  (CP,R11) (CV,R12)
0Loc    Object Code    Addr1 Addr2  Stmt Lv Lineno    Source Statement           (Hibal 5, Asmedit 3.3)  HLASM R4.0  2004/03/15 12.48
+___    ______ ____    _____ _____  ____ __ ______    ______ _________
0                                   6908              ¿þþþþþþþþþþþþþþþþþþþþþþþþþþþþþþþþþþþþþþþþþþþþþþþþþþþþþþþþþþþþþþþþþþþþþÜ
                                    6909              Ÿ                                                                     Ÿ
                                    6910              Ÿ EXIT #0 -- Generate system global DSN                               Ÿ
                                    6911              Ÿ                                                                     Ÿ
                                    6912              Ÿ       On Entry:  R0 = DSN ID to generate                            Ÿ
                                    6913              Ÿ                                                                     Ÿ
                                    6914              Ÿ       On Exit:   R1,R0 point to DSNAME                              Ÿ
                                    6915              Ÿ                  R15 = return code                                  Ÿ
                                    6916              Ÿ                        (zero = OK)                                  Ÿ
                                    6917              Ÿ                        (non-zero = bad SYSDSNID)                    Ÿ
                                    6918              Ÿ                                                                     Ÿ
                                                      ¾þþþþþþþþþþþþþþþþþþþþþþþþþþþþþþþþþþþþþþþþþþþþþþþþþþþþþþþþþþþþþþþþþþþþþ»
0                                   6919                       COPY  SYSDSNS
                                    6920             =SDSNHDIR EQU   0                   Help directory file
                                    6921             =SDSNHELP EQU   1                   Help file
                                    6922             =SDSNERR  EQU   2                   Error file
                                    6923             =SDSNTERM EQU   3                   Terminal file
                                    6924             =SDSNWORD EQU   4                   Spelling dictionary file
                                    6925             =SDSNRSV  EQU   5                   -- Not used (use me!) --
                                    6926             =SDSNPRIN EQU   6                   Printer file
                                    6927             =SDSNNEWS EQU   7                   News file
                                    6928             =SDSNHOSH EQU   8                   SYSH host file
                                    6929             =SDSNBATM EQU   9                   BATMAIL exec file lib
                                    6930             =SDSNHOSA EQU   10                  SYSA host file
                                    6931             =SDSNHOSR EQU   11                  RLG  host file
                                    6932             =SDSNHOSC EQU   12                  SYSC host file
                                    6933             =SDSNHOSD EQU   13                  SYSD host file
                                    6934              þþþþ
 000018 50E0 D000/9008_      00000  6935              EXIT0    XPROC ,
 USING  *,R7
 000032 1820                        6975                       LR    R2,R0               Copy SYSDSNID value
 000034 5920 73D6/4740_      00408  6976                       IF    ((R2,LT,0),OR,(R2,GT,SYSDSNMX)),BEGIN
 000044 41F0 0004            00004  7009  1                      LA    R15,4               Set bad return code
 000048 47F0 702C            0005E  7010  1                      B     EXIT0X              Return
 00004C                             7011                       END
 00004C 8920 0002            00002  7015                       SLL   R2,2                Convert to table offset
 000050 5822 703E            00070  7016                       L     R2,SYSDSNTB(R2)     Load pointer to string
 000054 4800 2000            00000  7017                       LH    R0,@R2              Pick up length
 000058 4110 2002            00002  7018                       LA    R1,@R2+2            Point to DSN
 00005C 1BFF                        7019                       CLEAR R15                 Set return code
 00005E                             7023              EXIT0X   LABEL ,
 00005E 9001 8004            00004  7025                       PRETURN (R0,R1)
 000062 18D8/9808 D004_             7027                       PEND  ,
 DROP   *,R7
                                    7047
 000070 000000A8                    7048              SYSDSNTB DC    A(HELPDIR)           0: Help file directory
 000074 000000BD                    7049                       DC    A(HELPFILE)          1: Help file
 000078 000000CF                    7050                       DC    A(ERRFILE)           2: ERRORS file
 00007C 000000E3                    7051                       DC    A(TERMFILE)          3: Terminal file
 000080 000000F9                    7052                       DC    A(WORDFILE)          4: Spelling dictionary
 000084 00000000                    7053                       DC    A(*-*)               5: -- Not used (use me!) --
 000088 00000183                    7054                       DC    A(PRINFILE)          6: Printer file
 00008C 00000199                    7055                       DC    A(NEWSFILE)          7: News file
1LOCAL    (LOCL2193) (12:48) (15MAR04) Local Exit #0 - Generate System Global DSN                                           Page    6
0Current Usings:  (CP,R11) (CV,R12)
0Loc    Object Code    Addr1 Addr2  Stmt Lv Lineno    Source Statement           (Hibal 5, Asmedit 3.3)  HLASM R4.0  2004/03/15 12.48
+___    ______ ____    _____ _____  ____ __ ______    ______ _________
0000090 0000016B                    7056                       DC    A(HOSTSYSH)          8: SYSH host file
 000094 000001AB                    7057                       DC    A(BATMFILE)          9: BATMAIL exec lib
 000098 0000010C                    7058                       DC    A(HOSTSYSA)         10: SYSA host file
 00009C 00000124                    7059                       DC    A(HOSTRLG)          11: RLG  host file
 0000A0 0000013B                    7060                       DC    A(HOSTSYSC)         12: SUH(SYSC) host file
 0000A4 00000153                    7061                       DC    A(HOSTSYSD)         13: SYSD host file
                                    7062              SYSDSNMX EQU   (*-SYSDSNTB)/4
                                    7063
 0000A8 0013/5BE6E8D34_             7064              HELPDIR  SYSDSNID $WYL.GA.PUB.HELPDIR
 0000BD 0010/5BE6E8D34_             7067              HELPFILE SYSDSNID $WYL.GA.PUB.HELP
 0000CF 0012/5BE6E8D34_             7070              ERRFILE  SYSDSNID $WYL.GA.PUB.ERRORS
 0000E3 0014/5BE6E8D34_             7073              TERMFILE SYSDSNID $WYL.GS.WYL.TERMINAL
 0000F9 0011/5BE6E8D34_             7076              WORDFILE SYSDSNID $WYL.GS.WYL.WORDS
 00010C 0016/5BE6E8D34_             7079              HOSTSYSA SYSDSNID $WYL.GS.WYL.SYSA.HOSTS
 000124 0015/5BE6E8D34_             7082              HOSTRLG  SYSDSNID $WYL.GS.WYL.RLG.HOSTS
 00013B 0016/5BE6E8D34_             7085              HOSTSYSC SYSDSNID $WYL.GS.WYL.SYSC.HOSTS
 000153 0016/5BE6E8D34_             7088              HOSTSYSD SYSDSNID $WYL.GS.WYL.SYSD.HOSTS
 00016B 0016/5BE6E8D34_             7091              HOSTSYSH SYSDSNID $WYL.GS.WYL.SYSH.HOSTS
 000183 0014/5BE6E8D34_             7094              PRINFILE SYSDSNID $WYL.GS.WYL.PRINTERS
 000199 0010/5BE6E8D34_             7097              NEWSFILE SYSDSNID $WYL.GA.PUB.NEWS
 0001AB 000F/5BE6E8D34_             7100              BATMFILE SYSDSNID $WYL.GS.WYL.LIB
1LOCAL    (LOCL2193) (12:48) (15MAR04) Local Exit #1 - Output for SHOW VOLS Command                                         Page    7
0Current Usings:  (CP,R11) (CV,R12)
0Loc    Object Code    Addr1 Addr2  Stmt Lv Lineno    Source Statement           (Hibal 5, Asmedit 3.3)  HLASM R4.0  2004/03/15 12.48
+___    ______ ____    _____ _____  ____ __ ______    ______ _________
0                                   7104              ¿þþþþþþþþþþþþþþþþþþþþþþþþþþþþþþþþþþþþþþþþþþþþþþþþþþþþþþþþþþþþþþþþþþþþþÜ
                                    7105              Ÿ                                                                     Ÿ
                                    7106              Ÿ EXIT #1 -- Generate SHOW VOLS Output                                Ÿ
                                    7107              Ÿ                                                                     Ÿ
                                    7108              Ÿ       On Entry:  (Standard global entry conventions)                Ÿ
                                    7109              Ÿ                                                                     Ÿ
                                    7110              Ÿ       On Exit:   (No special exit conditions)                       Ÿ
                                    7111              Ÿ                                                                     Ÿ
                                                      ¾þþþþþþþþþþþþþþþþþþþþþþþþþþþþþþþþþþþþþþþþþþþþþþþþþþþþþþþþþþþþþþþþþþþþþ»
00001BC 50E0 D000/9008_      00000  7112              EXIT1    XPROC ,
 USING  *,R7
 0001D6 58E0 723A/0DEE       00410  7152                       VCALL COLLOPTS
                                    7156
 0001DC 4110 7274/4100_      0044A  7157                       SETMSG 'Public volumes:'
 0001E4 4160 C724            00724  7161                       LA    R6,CVSTYPE          Use & save volumes
 0001E8 4150 0001            00001  7162                       LA    R5,1                Public
 0001EC 58E0 723E/0DEE       00414  7163                       ACALL VOLSDISP
                                    7167
 0001F2 D201 BC88 B3B4 00C88 003B4  7168                       MVC   CPDOUB(2),CPSUSER
 0001F8 D201 BC8B B3B7 00C8B 003B7  7169                       MVC   CPDOUB+3(2),CPSGRP
 0001FE 4100 0003/4110_      00003  7170                       HASPSERV USERTYPE,CPDOUB
 00020A 12FF/4770 7046              7190                       IF    (R15,Z),BEGIN
 000210 4200 BC88            00C88  7204  1                      STC   R0,CPDOUB           User type
 000214 9501 BC88/4780_00C88        7205  1                      IF    (CPDOUB,EQ,X'01'),VN  skip internal vols if open shop
 00021C                             7225                       END
 00021C 4110 7283/4100_      00459  7229                       SETMSG 'Internal volumes:'
 000224 4160 C724            00724  7233                       LA    R6,CVSTYPE          Use & save volumes
 000228 4150 0002            00002  7234                       LA    R5,2                Internal
 00022C 58E0 723E/0DEE       00414  7235                       ACALL VOLSDISP
                                    7239
 000232 95C7 B3B7/4770_003B7        7240              VN       IF    (CPSGRP,EQ,'G'),BEGIN
 00023A 4110 7294/4100_      0046A  7258  1                      SETMSG 'Use only volumes:'
 000242 4160 C726            00726  7262  1                      LA    R6,CVUTYPE          Use only volumes
 000246 1B55                        7263  1                      CLEAR R5
 000248 58E0 723E/0DEE       00414  7267  1                      ACALL VOLSDISP
 00024E                             7271                       END
                                    7275
 00024E 4110 7262/4100_      00438  7276                       SETMSG 'Temporary volumes:'
 000256 4160 C728            00728  7280                       LA    R6,CVTTYPE          Temporary volumes
 00025A 1B55                        7281                       CLEAR R5
 00025C 58E0 723E/0DEE       00414  7285                       ACALL VOLSDISP
 000262 41F0 B050/58E0_      00050  7289                       TCLEAR
 00026C D601 C158 C158_00158 00158  7303                       IF    (CVBKUPCT,NZ),BEGIN
 000276 4110 72A5/4100_      0047B  7319  1                      TSEG  ' ',,CR
 000288 58E0 724A/0DEE       00420  7337  1                      VCALL SHOWBKUP            Display backup message
 00028E                             7341                       END
 00028E 18D8/9808 D004_             7345              EXIT1X   PEND  ,
 DROP   *,R7
-
                                    7367              ¿þþþþþþþþþþþþþþþþþþþþþþþþþþþþþþþþþþþþþþþþþþþþþþþþþþþþþþþþþþþþþþþþþþþþþÜ
                                    7368              Ÿ                                                                     Ÿ
1LOCAL    (LOCL2193) (12:48) (15MAR04) Local Exit #1 - Output for SHOW VOLS Command                                         Page    8
0Current Usings:  (CP,R11) (CV,R12)
0Loc    Object Code    Addr1 Addr2  Stmt Lv Lineno    Source Statement           (Hibal 5, Asmedit 3.3)  HLASM R4.0  2004/03/15 12.48
+___    ______ ____    _____ _____  ____ __ ______    ______ _________
0                                   7369              Ÿ  VOLSDISP -- Local routine to display volume names.                 Ÿ
                                    7370              Ÿ                                                                     Ÿ
                                                      ¾þþþþþþþþþþþþþþþþþþþþþþþþþþþþþþþþþþþþþþþþþþþþþþþþþþþþþþþþþþþþþþþþþþþþþ»
000029C 50E0 D000/9008_      00000  7371              VOLSDISP PROC  ,
 USING  *,R7
 0002B6 1B22                        7410                       CLEAR R2
 0002B8 5830 C740            00740  7414                       L     R3,CVVOLIST         Volume list ptr
                                    7415
 0002BC                             7416                       LOOP  BEGIN
 USING  VOLDSECT,R3                 7422  1                      WITH  (VOLDSECT,R3)
 0002BC 95FF 3000/4780_00000        7435  1                      WHILE (VOLDSECT,NE,X'FF')
 0002C4 D603 3024 3024_00024 00024  7453  1                      IF    (VOLUCBAD,Z),VOLNX
 0002CE D501 3000 6000 00000 00000  7472  1                      CLC   VTYPE(2),@R6        Right type?
 0002D4 4770 7114            003CA  7473  1                      BNZ   VOLNX               No
 0002D8 5950 716E/4770_      00424  7474  1                      IF    (R5,EQ,1),BEGIN     Public...
 0002E0 D502 71C6 3002_0047C 00002  7491  2                        IF    (VNAME,NE,'PUB'),VOLNX
 0002EA                             7511  1                      END
 0002EA 5950 7172/4770_      00428  7515  1                      IF    (R5,EQ,2),BEGIN     Internal...
 0002F2 D502 71C6 3002_0047C 00002  7532  2                        IF    (VNAME,EQ,'PUB'),VOLNX
 0002FC                             7552  1                      END
 0002FC 9120 3008/4710_00008        7556  1                      IF    (VFLG1.VF1PRIV,OR,~VFLG3.VF3SHOW),BEGIN  Priv'd...
 00030C 9130 B3BE/4780_003BE        7587  2                        IF    (CPSFSPR+CPSFOPR,Z),VOLNX  But user isn't
 000314                             7610  1                      END
 000314 9140 3008/47E0_00008        7614  1                      IF    ~VFLG1.VF1AVAIL,VOLNX
 00031C 9140 300A/4710_0000A        7633  1                      IF    VFLG3.VF3BKUP,VOLNX
 000324 1222/4770 708A              7652  1                      IF    (R2,Z),BEGIN
 00032A 41F0 B050/58E0_      00050  7666  2                        TSEG  (R1),(R0),WR
 000334 4770 C7DA            007DA  7690  2                        BNZ   CVABORT
 000338 4110 C4D8/4100_      004D8  7691  2                        SETMSG CVBLANKS,2
 000340                             7707  1                      END   ,
 000340 4120 2001            00001  7711  1                      LA    R2,@R2+1
 000344 58F0 B05C            0005C  7712  1                      L     R15,CPSEGLENF
 000348 41F0 F007            00007  7713  1                      LA    R15,@R15+7
 00034C 49F0 B418/47D0_      00418  7714  1                      IF    (R15,GT,CPSWID),BEGIN
 000354 1B00/41F0 B050_             7731  2                        TWRITE
 000360 4770 C7DA            007DA  7756  2                        BNZ   CVABORT
 000364 4110 C4D8/4100_      004D8  7757  2                        SETMSG CVBLANKS,2
 00036C                             7773  1                      END
 00036C 41F0 B050/58E0_      00050  7777  1                      TSEG  (R1),(R0)
 000376 4110 3002/4100_      00002  7801  1                      SETMSG VNAME
 00037E 58E0 717E/0DEE       00434  7815  1                      VCALL LRTRIM
 000384 41F0 B050/58E0_      00050  7819  1                      TSEG  (R1),(R0)
 00038E 9180 300A/4710_0000A        7843  1                      IF    ~VFLG3.VF3SHOW,'TSEG "#"'
 0003A8 9120 3008/47E0_00008        7882  1                      IF    VFLG1.VF1PRIV,'TSEG "*"'
 0003C2 4110 C4D8/4100_      004D8  7921  1                      SETMSG CVBLANKS,1
 0003CA 4133 0044            00044  7937  1           VOLNX      LA    R3,VOLENTSZ(R3)     Next entry
 0003CE 47F0 7006            002BC  7938                       END
 DROP   VOLDSECT,R3
                                    7948
 0003D2 1222/4780 7144              7949                       IF    (R2,NZ),BEGIN
 0003D8 1B00/41F0 B050_             7963  1                      TWRITE
 0003E4 4770 C7DA            007DA  7988  1                      BNZ   CVABORT
 0003E8 4110 71CB/4100_      00481  7989  1                      TSEG  X'15'
1LOCAL    (LOCL2193) (12:48) (15MAR04) Local Exit #1 - Output for SHOW VOLS Command                                         Page    9
0Current Usings:  (*,R7) (CP,R11) (CV,R12)
0Loc    Object Code    Addr1 Addr2  Stmt Lv Lineno    Source Statement           (Hibal 5, Asmedit 3.3)  HLASM R4.0  2004/03/15 12.48
+___    ______ ____    _____ _____  ____ __ ______    ______ _________
00003FA                             8007                       END
 0003FA 18D8/9808 D004_             8011                       PEND  ,
 DROP   *,R7
                                    8031
                                    8032                       QLTORG
1LOCAL    (LOCL2193) (12:48) (15MAR04) Local Exit #2 - Supply scratch volser                                                Page   10
0Current Usings:  (CP,R11) (CV,R12)
0Loc    Object Code    Addr1 Addr2  Stmt Lv Lineno    Source Statement           (Hibal 5, Asmedit 3.3)  HLASM R4.0  2004/03/15 12.48
+___    ______ ____    _____ _____  ____ __ ______    ______ _________
0                                   8066              ¿þþþþþþþþþþþþþþþþþþþþþþþþþþþþþþþþþþþþþþþþþþþþþþþþþþþþþþþþþþþþþþþþþþþþþÜ
                                    8067              Ÿ                                                                     Ÿ
                                    8068              Ÿ EXIT #2 -- Supply scratch volser                                    Ÿ
                                    8069              Ÿ                                                                     Ÿ
                                    8070              Ÿ       On Entry:  (No special entry conventions)                     Ÿ
                                    8071              Ÿ                                                                     Ÿ
                                    8072              Ÿ       On Exit:   R1,R0 -> Volser                                    Ÿ
                                    8073              Ÿ                                                                     Ÿ
                                                      ¾þþþþþþþþþþþþþþþþþþþþþþþþþþþþþþþþþþþþþþþþþþþþþþþþþþþþþþþþþþþþþþþþþþþþþ»
0000482 50E0 D000/9028_      00000  8074              EXIT2    XPROC (R2,LSR)
 USING  *,R7
 00049C 4110 703C/4100_      004D8  8114                       SETMSG 'SCR002'
 0004A4 9110 C4C4/47E0_004C4        8118                       IF    CVFRLG,'SETMSG "SCR001"'
 0004B4 D504 704E C00C_004EA 0000C  8142                       IF    (CVMACHID,EQ,'SYSC '),'SETMSG "SCR102"'
 0004C6 18D8/9828 D004_             8168                       PEND
 DROP   *,R7
                                    8188
                                    8189                       QLTORG
1LOCAL    (LOCL2193) (12:48) (15MAR04) Local Exit #3 - Show Space                                                           Page   11
0Current Usings:  (CP,R11) (CV,R12)
0Loc    Object Code    Addr1 Addr2  Stmt Lv Lineno    Source Statement           (Hibal 5, Asmedit 3.3)  HLASM R4.0  2004/03/15 12.48
+___    ______ ____    _____ _____  ____ __ ______    ______ _________
0                                   8206              ¿þþþþþþþþþþþþþþþþþþþþþþþþþþþþþþþþþþþþþþþþþþþþþþþþþþþþþþþþþþþþþþþþþþþþþÜ
                                    8207              Ÿ                                                                     Ÿ
                                    8208              Ÿ EXIT #3 -- SHOW SPACE                                               Ÿ
                                    8209              Ÿ                                                                     Ÿ
                                    8210              Ÿ       On Entry:  R0 = zero -> Unconditional                         Ÿ
                                    8211              Ÿ                       non-zero -> Conditional                       Ÿ
                                    8212              Ÿ                  R1 -> KWR                                          Ÿ
                                    8213              Ÿ                                                                     Ÿ
                                    8214              Ÿ       On Exit:   (no special exit conditions)                       Ÿ
                                    8215              Ÿ                                                                     Ÿ
                                                      ¾þþþþþþþþþþþþþþþþþþþþþþþþþþþþþþþþþþþþþþþþþþþþþþþþþþþþþþþþþþþþþþþþþþþþþ»
00004F0 50E0 D000/9008_      00000  8216              EXIT3    XPROC ,
 USING  *,R7
 00050A 1851                        8256                       LR    R5,R1               Save KWR ptr
 USING  KWR,R5                      8257                       USING KWR,R5
 00050C 1200/4780 702A              8266                       IF    (R0,NZ),BEGIN       Conditional SHOW SPACE ...
 000512 9140 B474/4710_00474        8280  1                      IF    CPFRCVY,EXIT3X      Skip for recovery
 00051A 9180 500E/47E0_0000E        8298  1                      IF    ~KWRIFL.KWRIFVAL,EXIT3X   Record not valid
 000522 4860 500C/1266       0000C  8317  1                      LTH   R6,KWRSPMAX         Max space allowed
 000528 4740 710E            00618  8321  1                      IF    NEG,EXIT3X          No limits, scram
 00052C 4960 500A/47A0_      0000A  8335  1                      IF    (KWRSPUSD,LE,R6),EXIT3X    No problem - skip it
 000534                             8355                       END
 000534 4110 5003/4100_      00003  8359                       TSEG  KWRGRP
 000546 4110 76EC/4100_      00BF6  8387                       TSEG  '.'
 000558 4110 5000/4100_      00000  8405                       TSEG  KWRUSER,,B
 00056A 4110 76ED/4100_      00BF7  8433                       TSEG  '-',,B
 00057C 48F0 500A            0000A  8451                       LH    R15,KWRSPUSD        Get space used
                                    8452                       COMMENT                   Add to buffer
 000580 1B00/4110 BC88_             8453                       BTD   CPDOUB,0,(R15)      Convert to decimal
 00058C 41F0 B050/58E0_      00050  8472                       TSEG  (R1),(R0),B         Add to buffer
 000596 4110 762E/4100_      00B38  8496                       TSEG  'tracks accounted'
 0005A8 D501 76AA 500C_00BB4 0000C  8514                       IF    (KWRSPMAX,EQ,-1),SHOSPAC1  no limits
 0005B2 4110 76EE/4100_      00BF8  8535                       TSEG  ',',,B
 0005C4 48F0 500C            0000C  8553                       LH    R15,KWRSPMAX        Get max space count
                                    8554                       COMMENT                   Add to buffer
 0005C8 1B00/4110 BC88_             8555                       BTD   CPDOUB,0,(R15)      Convert to decimal
 0005D4 41F0 B050/58E0_      00050  8574                       TSEG  (R1),(R0),B         Add to buffer
 0005DE 4110 76EF/4100_      00BF9  8598                       TSEG  'tracks allowed.'
                                    8616
 0005F0 D501 500C 500A 0000C 0000A  8617                       CLC   KWRSPMAX,KWRSPUSD   Spmax>spusd
 0005F6 4720 7102            0060C  8618                       BH    SHOSPAC1            Yes, save okay
 0005FA 4110 76AC/4100_      00BB6  8619                       TSEG  '  Sequential saves && recovery are blocked.'
 00060C 1B00/41F0 B050_             8637              SHOSPAC1 TCR
 000618 18D8/9808 D004_             8663              EXIT3X   PEND  ,
 DROP   *,R7
                                    8684              *
                                    8685              *
 DROP   KWR,R5                      8686                       DROP  KWR
1LOCAL    (LOCL2193) (12:48) (15MAR04) Local Exit #4 - Check Space                                                          Page   12
0Current Usings:  (CP,R11) (CV,R12)
0Loc    Object Code    Addr1 Addr2  Stmt Lv Lineno    Source Statement           (Hibal 5, Asmedit 3.3)  HLASM R4.0  2004/03/15 12.48
+___    ______ ____    _____ _____  ____ __ ______    ______ _________
0                                   8695              ¿þþþþþþþþþþþþþþþþþþþþþþþþþþþþþþþþþþþþþþþþþþþþþþþþþþþþþþþþþþþþþþþþþþþþþÜ
                                    8696              Ÿ                                                                     Ÿ
                                    8697              Ÿ EXIT #4 -- CHECK SPACE                                              Ÿ
                                    8698              Ÿ                                                                     Ÿ
                                    8699              Ÿ       On Entry:  R1 = KWR                                           Ÿ
                                    8700              Ÿ                                                                     Ÿ
                                    8701              Ÿ       On Exit:   R15 = Zero (Space not exceeded)                    Ÿ
                                    8702              Ÿ                        Non-zero (Space exceeded)                    Ÿ
                                    8703              Ÿ                                                                     Ÿ
                                                      ¾þþþþþþþþþþþþþþþþþþþþþþþþþþþþþþþþþþþþþþþþþþþþþþþþþþþþþþþþþþþþþþþþþþþþþ»
0000626 50E0 D000/9008_      00000  8704              EXIT4    XPROC ,
 USING  *,R7
 000640 1851                        8744                       LR    R5,R1               Copy KWR ptr
 USING  KWR,R5                      8745                       USING KWR,R5
 000642 1BFF                        8754                       CLEAR R15                 Preset good return code
 000644 9180 500E/47E0_0000E        8758                       IF    ~KWRIFL.KWRIFVAL,EXIT4X  Not valid KWR
 00064C D501 7574 500C_00BB4 0000C  8777                       IF    (KWRSPMAX,EQ,-1),EXIT4X   No limits
 000656 D501 500A 500C_0000A 0000C  8798                       IF    (KWRSPUSD,GE,KWRSPMAX),'LA R15,4'
 000664 18D8/9808 D004_             8822              EXIT4X   PEND  ,
 DROP   *,R7
 DROP   KWR,R5                      8843                       DROP  KWR
1LOCAL    (LOCL2193) (12:48) (15MAR04) Local Exit #5 - Update Space                                                         Page   13
0Current Usings:  (CP,R11) (CV,R12)
0Loc    Object Code    Addr1 Addr2  Stmt Lv Lineno    Source Statement           (Hibal 5, Asmedit 3.3)  HLASM R4.0  2004/03/15 12.48
+___    ______ ____    _____ _____  ____ __ ______    ______ _________
0                                   8852              ¿þþþþþþþþþþþþþþþþþþþþþþþþþþþþþþþþþþþþþþþþþþþþþþþþþþþþþþþþþþþþþþþþþþþþþÜ
                                    8853              Ÿ                                                                     Ÿ
                                    8854              Ÿ EXIT #5 -- UPDATE SPACE                                             Ÿ
                                    8855              Ÿ                                                                     Ÿ
                                    8856              Ÿ       On Entry:  R0 = Change in space                               Ÿ
                                    8857              Ÿ                  R1 = KWR                                           Ÿ
                                    8858              Ÿ                                                                     Ÿ
                                    8859              Ÿ       On Exit:   (No special exit conditions)                       Ÿ
                                    8860              Ÿ                                                                     Ÿ
                                                      ¾þþþþþþþþþþþþþþþþþþþþþþþþþþþþþþþþþþþþþþþþþþþþþþþþþþþþþþþþþþþþþþþþþþþþþ»
0000672 50E0 D000/9008_      00000  8861              EXIT5    XPROC ,
 USING  *,R7
 00068C 1830                        8901                       LR    R3,R0               Copy space change
 00068E 1851                        8902                       LR    R5,R1               Copy KWR ptr
 USING  KWR,R5                      8903                       USING KWR,R5
 000690 9180 500E/47E0_0000E        8912              UPDTKWR  IF    ~KWRIFL.KWRIFVAL,EXIT5X   Record not valid
 000698 4820 500A            0000A  8932                       LH    R2,KWRSPUSD         Space used
 00069C 1A23                        8933                       AR    R2,R3               Delta
 00069E 5920 74E4/47B0_      00B70  8934                       IF    (R2,LT,0),'CLEAR R2'
 0006A8 4020 500A            0000A  8960                       STH   R2,KWRSPUSD
 0006AC 1815/4100 0080_             8961                       KWRITE KWR                Go rewrite record
 0006B8 9140 51F4/47E0_001F4        8974                       IF    ~KWRHFL.KWRHFUOK,UPDTKWR  Loop until updated
 0006C0 18D8/9808 D004_             8993              EXIT5X   PEND  ,
 DROP   *,R7
 DROP   KWR,R5                      9014                       DROP  KWR
1LOCAL    (LOCL2193) (12:48) (15MAR04) Local Exit #12 - Set local account                                                   Page   14
0Current Usings:  (CP,R11) (CV,R12)
0Loc    Object Code    Addr1 Addr2  Stmt Lv Lineno    Source Statement           (Hibal 5, Asmedit 3.3)  HLASM R4.0  2004/03/15 12.48
+___    ______ ____    _____ _____  ____ __ ______    ______ _________
0                                   9023              ¿þþþþþþþþþþþþþþþþþþþþþþþþþþþþþþþþþþþþþþþþþþþþþþþþþþþþþþþþþþþþþþþþþþþþþÜ
                                    9024              Ÿ                                                                     Ÿ
                                    9025              Ÿ EXIT #12 -- Set local account                                       Ÿ
                                    9026              Ÿ                                                                     Ÿ
                                    9027              Ÿ       On Entry:  (Global entry conventions)                         Ÿ
                                    9028              Ÿ                                                                     Ÿ
                                    9029              Ÿ       On Exit:   (Aborts if local account not set)                  Ÿ
                                    9030              Ÿ                                                                     Ÿ
                                                      ¾þþþþþþþþþþþþþþþþþþþþþþþþþþþþþþþþþþþþþþþþþþþþþþþþþþþþþþþþþþþþþþþþþþþþþ»
-000000                00000 0000B  9032              X12WA    RECORD BEGIN
 000000                             9040  1           XACCTIN    DS    CL6
 000006                             9041  1           XACCTOUT   DS    CL5
 00000B                0000B 0000B  9042                       END
                                    9051              *
                                    9052              *
 0006CE 50E0 D000/9008_      00000  9053              EXIT12   XPROC X12WA
 USING  *,R7
 USING  X12WA-(4+36),R8
                                    9104
 0006E8 58E0 B08C/D2AF_      0008C  9105                       SCPUSH ,
 0006F6 5810 B08C/1B00_      0008C  9111                       SCAN  ,
 000744 58E0 7494/0DEE       00B7C  9142                       SCANCHK
 00074A 1200/4770 709A              9147                       IF    (R0,Z),BEGIN             No options given...
 000750 95E4 BD24/4770_00D24        9161  1                      IF    (CPCMNM,EQ,'U'),'MVC CPUSERSV,CPSUSER'
 00075E 95C7 BD24/4770_00D24        9184  1                      IF    (CPCMNM,EQ,'G'),'MVC CPGRPSV,CPSGRP'
 00076C 95C1 BD24/4770_00D24        9207  1                      IF    (CPCMNM,EQ,'A'),'MVC CPACCTSV,CPSACCT'
 00077A 947F B476      00476        9230  1                      CLEAR CPGFLG3.CPFKWENT    Reset key too
 00077E 47F0 7246            0092E  9238  1                      B     EXIT12X
 000782                             9239                       END
 000782 58E0 B08C/4BD0_      0008C  9243                       SCPOP ,
                                    9249
 000790 95C1 BD24/4780_00D24        9250                       IF    (CPCMNM,NE,'A'),' SCBKUP '    Back up
                                    9328
 0007CE D204 BC48 B1B8 00C48 001B8  9329                       MVC   CPCACCT,CPACCTSV    Use saved account for default
 0007D4 1B66                        9330                       CLEAR R6                  Flag: "password" option not spec.
 0007D6 5810 B08C/1B00_      0008C  9334                       SCAN  SETAPRT
 000828 58E0 7494/0DEE       00B7C  9366                       SCANCHK
                                    9371
                                    9372                       COMMENT                   If no password, we still check
                                    9373                       COMMENT                     to see that account exists
 00082E 1266/4770 71C6              9374                       IF    (R6,Z),BEGIN
 000834 D201 8028 BC4B 00000 00C4B  9388  1                      MVC   XACCTIN(2),CPCGRP
 00083A 924B 802A      00002        9389  1                      MVI   XACCTIN+2,C'.'
 00083E D202 802B BC48 00003 00C48  9390  1                      MVC   XACCTIN+3(3),CPCUSER
 000844 4110 8028            00000  9391  1                      LA    R1,XACCTIN
 000848 4100 0006            00006  9392  1                      LA    R0,L'XACCTIN
 00084C 41F0 802E            00006  9393  1                      LA    R15,XACCTOUT
 000850 58E0 749C/0DEE       00B84  9394  1                      VCALL CHKACCT
 000856 4780 71C6            008AE  9398  1                      IF    NZ,BEGIN
 00085A 4110 7460/4100_      00B48  9409  2                        TSEG  'Account '
 00086C 4110 BC4B/4100_      00C4B  9427  2                        TSEG  CPCGRP
 00087E 4110 750E/4100_      00BF6  9455  2                        TSEG  '.'
1LOCAL    (LOCL2193) (12:48) (15MAR04) Local Exit #12 - Set local account                                                   Page   15
0Current Usings:  (*,R7) (X12WA-(4+36),R8) (CP,R11) (CV,R12)
0Loc    Object Code    Addr1 Addr2  Stmt Lv Lineno    Source Statement           (Hibal 5, Asmedit 3.3)  HLASM R4.0  2004/03/15 12.48
+___    ______ ____    _____ _____  ____ __ ______    ______ _________
0000890 4110 BC48/4100_      00C48  9473  2                        TSEG  CPCUSER
 0008A2 4110 7468/4100_      00B50  9501  2                        ERROR ' does not exist.'
 0008AE                             9508  1                      END
 0008AE                             9512                       END
                                    9516
                                    9517                       COMMENT                   If password, go get password
 0008AE 947F B476      00476        9518                       CLEAR CPGFLG3.CPFKWENT    Assume no kw
 0008B2 1266/4780 7240              9526                       IF    (R6,NZ),BEGIN       Password option given...
 0008B8 4110 7460/4100_      00B48  9540  1                      TSEG  'Account '
 0008CA 4110 BC4B/4100_      00C4B  9558  1                      TSEG  CPCGRP
 0008DC 4110 750E/4100_      00BF6  9586  1                      TSEG  '.'
 0008EE 4110 BC48/4100_      00C48  9604  1                      TSEG  CPCUSER,,WR
 000900 1B00                        9632  1                      CLEAR R0                  Getkwr options
 000902 181D/41D0 D1F8              9636  1                      XPUSH ,,L'KWR,PTR=R1
 USING  KWR,R1                      9639  1                      WITH  (KWR,R1)
 000908 D7FF 1000 1000_00000 00000  9652  1                      CLEAR KWR
 000914 D204 1000 BC48 00000 00C48  9660  1                      MVC   KWRUSER(5),CPCACCT
 00091A 58E0 74A4/0DEE       00B8C  9661  1                      VCALL GETKWR              Check password
 000920 4BD0 74FC            00BE4  9665  1                      XPOP  ,,L'KWR
 000924 9680 B476      00476        9667  1                      SET   CPGFLG3.CPFKWENT    Password has been checked
 DROP   KWR,R1                      9674                       END
                                    9683
 000928 D204 B1B8 BC48 001B8 00C48  9684                       MVC   CPACCTSV,CPCACCT    Set new account
                                    9685
 00092E 18D8/9808 D004_             9686              EXIT12X  PEND  ,
 DROP   X12WA-(4+36),R8
 DROP   *,R7
                                    9712
 00093C D2C5E8E6D6D9C440_           9713              SETAPRT  SCKW  KEYWORD,SETAKEY,A
 000964 D7C1E2E2E6D6D9C4_           9728                       SCKW  PASSWORD,SETAKEY,A
 00098C 4040404040404040_           9743                       SCKW  ,V(ACCTPSHC),PUSH
 0009B4 4040404040404040_           9758                       SCKW  ,V(NOTVALID)
                                    9773
 0009DC 50E0 D000/9008_      00000  9774              SETAKEY  PROC  ,
 USING  *,R7
 0009F6 4160 0001            00001  9813                       LA    R6,1
 0009FA 5068 001C            0001C  9814                       PRETURN (R6)
 0009FE 18D8/9808 D004_             9816                       PEND  ,
 DROP   *,R7
                                    9836
1LOCAL    (LOCL2193) (12:48) (15MAR04) Local Exit #13 - Show local account                                                  Page   16
0Current Usings:  (CP,R11) (CV,R12)
0Loc    Object Code    Addr1 Addr2  Stmt Lv Lineno    Source Statement           (Hibal 5, Asmedit 3.3)  HLASM R4.0  2004/03/15 12.48
+___    ______ ____    _____ _____  ____ __ ______    ______ _________
0                                   9838              ¿þþþþþþþþþþþþþþþþþþþþþþþþþþþþþþþþþþþþþþþþþþþþþþþþþþþþþþþþþþþþþþþþþþþþþÜ
                                    9839              Ÿ                                                                     Ÿ
                                    9840              Ÿ EXIT #13 -- Show local account                                      Ÿ
                                    9841              Ÿ                                                                     Ÿ
                                    9842              Ÿ       On Entry:  (Global entry conventions)                         Ÿ
                                    9843              Ÿ                                                                     Ÿ
                                    9844              Ÿ       On Exit:   (No special exit conventions)                      Ÿ
                                    9845              Ÿ                                                                     Ÿ
                                                      ¾þþþþþþþþþþþþþþþþþþþþþþþþþþþþþþþþþþþþþþþþþþþþþþþþþþþþþþþþþþþþþþþþþþþþþ»
0000A0C 50E0 D000/9008_      00000  9846              EXIT13   XPROC
 USING  *,R7
                                    9886
 000A26 58E0 716A/0DEE       00B90  9887                       VCALL COLLOPTS
                                    9891
 000A2C 4110 B3B7/4100_      003B7  9892                       TSEG  CPSGRP
 000A3E 4110 71D0/4100_      00BF6  9920                       TSEG  '.'
 000A50 4110 B3B4/4100_      003B4  9938                       TSEG  CPSUSER
 000A62 4110 716E/4100_      00B94  9966                       TSEG  ' - logged on account'
 000A74 9102 B3EE/47E0_003EE        9984                       IF    CPSFPERM,'TSEG " (permanent)"'
                                   10022
 000A8E D502 B1B8 B3B4_001B8 003B4 10023                       IF    ((CPUSERSV,NE,CPSUSER),OR,(CPGRPSV,NE,CPSGRP)),BEGIN
 000AA2 4110 71C0/4100_      00BE6 10058  1                      TSEG  ', '
 000AB4 4110 B1BB/4100_      001BB 10076  1                      TSEG  CPGRPSV
 000AC6 4110 71D0/4100_      00BF6 10104  1                      TSEG  '.'
 000AD8 4110 B1B8/4100_      001B8 10122  1                      TSEG  CPUSERSV
 000AEA 4110 71C2/4100_      00BE8 10150  1                      TSEG  ' - set account'
 000AFC 9180 B476/47E0_00476       10168  1                      IF    CPGFLG3.CPFKWENT,'TSEG " (password)"'
 000B16                            10207                       END
                                   10211
 000B16 4110 71D0/4100_      00BF6 10212                       TSEG  '.',,WR
 000B28 18D8/9808 D004_            10230              EXIT13X  PEND
 DROP   *,R7
                                   10251
                                   10252                       QLTORG
                                   10294                       VLTORG
                                   10302
 000C18                00C18 00C00 10303                       END   .

1LOCAL    (LOCL2193) (12:48) (15MAR04) Relocation Dictionary                                                                Page   17
-   Pos.Id   Rel.Id   Flags    Address                                                       HLASM R4.0  2004/03/15 12.48
0  00000002 00000002    0C    00000070
   00000002 00000002    0C    00000074
   00000002 00000002    0C    00000078
   00000002 00000002    0C    0000007C
   00000002 00000002    0C    00000080
   00000002 00000002    0C    00000088
   00000002 00000002    0C    0000008C
   00000002 00000002    0C    00000090
   00000002 00000002    0C    00000094
   00000002 00000002    0C    00000098
   00000002 00000002    0C    0000009C
   00000002 00000002    0C    000000A0
   00000002 00000002    0C    000000A4
   00000002 00000002    0C    00000414
   00000002 00000002    0C    00000960
   00000002 00000002    0C    00000988
   00000002 00000002    0C    00000B80
   00000002 00000003    1C    00000410
   00000002 00000003    1C    00000B90
   00000002 00000004    1C    00000418
   00000002 00000005    1C    0000041C
   00000002 00000005    1C    00000B6C
   00000002 00000006    1C    00000420
   00000002 00000007    1C    0000042C
   00000002 00000007    1C    00000B88
   00000002 00000008    1C    00000430
   00000002 00000008    1C    00000B60
   00000002 00000009    1C    00000434
   00000002 0000000A    1C    0000095C
   00000002 0000000A    1C    00000984
   00000002 0000000B    1C    000009B0
   00000002 0000000C    1C    000009D4
   00000002 0000000D    1C    000009D8
   00000002 0000000E    1C    00000B64
   00000002 0000000F    1C    00000B68
   00000002 00000010    1C    00000B74
   00000002 00000011    1C    00000B78
   00000002 00000012    1C    00000B7C
   00000002 00000013    1C    00000B84
   00000002 00000014    1C    00000B8C

1LOCAL    (LOCL2193) (12:48) (15MAR04) Ordinary Symbol and Literal Cross Reference                                          Page   18
-Symbol   Length   Value     Id    R Type   Defn References                                  HLASM R4.0  2004/03/15 12.48
0$$$@R0        1 00000000 FFFFFFFE     J     705  1031
 $$$@R10       1 00000000 FFFFFFF4     J     835  1095
 $$$@R11       1 00000000 FFFFFFF3     J     848  1108
 $$$@R12       1 00000000 FFFFFFF2     J     861  1121
 $$$@R13       1 00000000 FFFFFFF1     J     874  1134
 $$$@R14       1 00000000 FFFFFFF0     J     887  1147
 $$$@R7        1 00000000 FFFFFFF7     J     796  1044
 $$$@R8        1 00000000 FFFFFFF6     J     809  1057   1069
 $$$@R9        1 00000000 FFFFFFF5     J     822  1082
 $$$C1WYLLOCL
               1 00000482 00000002     J    8060  8062
 $$$C2WYLLOCL
               1 000004EF 00000002     J    8200  8202   9049
 $$$C3WYLLOCL
               1 00000C13 00000002     J   10289 10291
 $$$C4WYLLOCL
               1 00000C18 00000002     J   10306 10308
 $$$RCP        1 00000000 FFFFFFEC     J    2478  4738   6212   6212
 $$$RCV        1 00000000 FFFFFFEE     J    1203  2388   2388
 $$$RDEV       1 00000000 FFFFFFEB     J    4692  4737   4737
 $$$RJCB       1 00000000 FFFFFFE9     J    6330  6604   6604
 $$$RKWR       1 00000000 FFFFFFE7     J    6665  6870   6870
 $$$RNSCNCB
               1 00000000 FFFFFFED     J    2399  2472   2472
 $$$RTTYPE
               1 00000000 FFFFFFEA     J    6223  6324   6324
 $$$RX12WA
               1 00000000 FFFFFFE6     J    9034  9048   9048
 $$$SEGCB0
               4 00000050 FFFFFFEC     F    2509  2595   2595
 $$$101F       2 00000664 00000002     H    8821  8811B
 $$$102        1 00000050 00000002 A   U    8840  8837   8839
 $$$104B       1 0000068C 00000002     X    8885  8892U
 $$$107F       2 000006A8 00000002     H    8959  8946B
 $$$110        1 00000050 00000002 A   U    9011  9008   9010
 $$$112B       1 000006E8 00000002     X    9079  9086U
 $$$113F       2 00000782 00000002     H    9242  9156B
 $$$114F       2 0000075E 00000002     H    9183  9173B
 $$$115F       2 0000076C 00000002     H    9206  9196B
 $$$116F       2 0000077A 00000002     H    9229  9219B
 $$$118F       2 000007CE 00000002     H    9327  9262B
 $$$119F       2 000007C6 00000002     H    9314  9282B
 $$$120F       2 000007C6 00000002     H    9310  9297B
 $$$121F       2 000008AE 00000002     H    9515  9383B
 $$$122F       2 000008AE 00000002     H    9511  9404B
 $$$124F       2 00000928 00000002     H    9682  9535B
 $$$126        1 0000005C 00000002 A   U    9709  9706   9708
 $$$128B       1 000009F6 00000002     X    9797  9804U
 $$$129        1 00000050 00000002 A   U    9833  9830   9832
 $$$131B       1 00000A26 00000002     X    9870  9877U
 $$$132F       2 00000A8E 00000002     H   10021  9994B
 $$$133F       2 00000B16 00000002     H   10210 10053B
 $$$133T       2 00000AA2 00000002     H   10056 10040B
 $$$135F       2 00000B16 00000002     H   10206 10179B
 $$$137        1 00000050 00000002 A   U   10248 10245  10247
1LOCAL    (LOCL2193) (12:48) (15MAR04) Ordinary Symbol and Literal Cross Reference                                          Page   19
 $$$43B        1 00000032 00000002     X    6959  6966U
 $$$44F        2 0000004C 00000002     H    7014  7004B
 $$$44T        2 00000044 00000002     H    7007  6992B
 $$$46         1 00000050 00000002 A   U    7044  7041   7043
 $$$48B        1 000001D6 00000002     X    7136  7143U
 $$$49F        2 0000021C 00000002     H    7228  7199B
 $$$51F        2 0000024E 00000002     H    7274  7253B
 $$$52F        2 0000028E 00000002     H    7344  7314B
 $$$53         1 00000050 00000002 A   U    7363  7360   7362
 $$$55B        1 000002B6 00000002     X    7394  7401U
 $$$56F        2 000003D2 00000002     H    7947  7448B
 $$$56S        2 000002BC 00000002     H    7420  7946B
 $$$60F        2 000002EA 00000002     H    7514  7486B
 $$$62F        2 000002FC 00000002     H    7555  7527B
 $$$64F        2 00000314 00000002     H    7613  7582B
 $$$64T        2 0000030C 00000002     H    7585  7571B
 $$$73F        2 00000340 00000002     H    7710  7661B
 $$$74F        2 0000036C 00000002     H    7776  7726B
 $$$75F        2 000003A8 00000002     H    7881  7854B
 $$$77F        2 000003C2 00000002     H    7920  7893B
 $$$79F        2 000003FA 00000002     H    8010  7958B
 $$$80         1 00000050 00000002 A   U    8028  8025   8027
 $$$82B        1 0000049C 00000002     X    8098  8105U
 $$$83F        2 000004B4 00000002     H    8141  8128B
 $$$84F        2 000004C6 00000002     H    8167  8154B
 $$$85         1 00000040 00000002 A   U    8185  8182   8184
 $$$87B        1 0000050A 00000002     X    8240  8247U
 $$$88F        2 00000534 00000002     H    8358  8275B
 $$$95         1 00000050 00000002 A   U    8681  8678   8680
 $$$97B        1 00000640 00000002     X    8728  8735U
 @RAR          0 00000000 FFFFFFF0     @    1148  2186   2194B
 @R0           0 00000000 FFFFFFFE     @     706   982U
 @R1           0 00000000 FFFFFFFD     @     719   978U  2192   2193   9679U
 @R10          0 00000000 FFFFFFF4     @     836   942U
 @R11          0 00000000 FFFFFFF3     @     849   938U
 @R12          0 00000000 FFFFFFF2     @     862   934U
 @R13          0 00000000 FFFFFFF1     @     875   930U  9248
 @R14          0 00000000 FFFFFFF0     @     888   926U
 @R15          0 00000000 FFFFFFEF     @     901   922U  7713
 @R2           0 00000000 FFFFFFFC     @     732   974U  7017   7018   7711
 @R3           0 00000000 FFFFFFFB     @     745   970U  7943U
 @R4           0 00000000 FFFFFFFA     @     758   966U
 @R5           0 00000000 FFFFFFF9     @     771   962U  8692U  8849U  9020U
 @R6           0 00000000 FFFFFFF8     @     784   958U  7472
 @R7           0 00000000 FFFFFFF7     @     797   954U  7033U  7352U  8017U  8174U  8670U  8829U  9000U  9698U  9822U
                                                 10237U
 @R8           0 00000000 FFFFFFF6     @     810   950U  9693U
 @R9           0 00000000 FFFFFFF5     @     823   946U
 ABSCENT       1 00000000 00000000 A   T    2202  2202
 ACCTPSHC      1 00000000 0000000B     T    9757  9757
 ASCTBL        1 00000000 00000000 A   T    2210  2210
 BATMFILE      2 000001AB 00000002     R    7101  7057
 BLTBL         1 00000000 00000000 A   T    2212  2212
 BR            7 00000007 00000001 A   #    1038  6954M  7131M  7389M  8093M  8235M  8723M  8880M  9074M  9792M  9865M
 BTD           1 00000000 0000000F     T   10264 10264
 CHECKIOB      1 00000000 00000000 A   T    2258  2258
 CHKACCT       1 00000000 00000013     T   10271 10271
 COLLOPTS      1 00000000 00000003     T    8041  8041  10274
 COMMAND       1 00000000 00000000 A   T    2198  2198
1LOCAL    (LOCL2193) (12:48) (15MAR04) Ordinary Symbol and Literal Cross Reference                                          Page   20
 COMMSEG       1 00000000 00000000 A   T    2199  2199
 CP         4096 00000000 FFFFFFEC     J    6212  1187U
 CP#XSTK       1 00000010 FFFFFFEC A   U    3944  3945
 CPACCTSV      5 000001B8 FFFFFFEC     C    2730  9225M  9329   9684M
 CPACFLG       1 000005D5 FFFFFFEC     R    4047  4051   4056   4061   4066   4071
 CPACFLN       4 000005C4 FFFFFFEC     F    4039  4074   4074
 CPAFLAG       1 000005C3 FFFFFFEC     R    4011  4015   4020   4025   4030
 CPANAME       8 00000588 FFFFFFEC     C    3993  4089   4089
 CPAUTFLG      1 000008A9 FFFFFFEC     R    4357  4361   4366   4371   4376
 CPCACCT       5 00000C48 FFFFFFEC     C    5022  9329M  9660   9684
 CPCGRP        2 00000C4B FFFFFFEC     C    5024  9388   9437   9442   9568   9573
 CPCHFLAG      1 00000B68 FFFFFFEC     R    4984  4988
 CPCMNM        3 00000D24 FFFFFFEC     C    5310  9172   9195   9218   9261
 CPCUSER       3 00000C48 FFFFFFEC     C    5023  9390   9483   9488   9614   9619
 CPDFLG        1 0000084C FFFFFFEC     R    4244  4248   4253   4258   4263   4268
 CPDFLG2       1 0000084D FFFFFFEC     R    4273  4277   4282   4287   4292   4297   4302
 CPDOUB        8 00000C88 FFFFFFEC     D    5230  7168M  7169M  7184   7204M  7216   8467   8569
 CPEXFLG       1 00000758 FFFFFFEC     R    4113  4117
 CPEXFLG2      1 00000759 FFFFFFEC     R    4123  4132   4142
 CPEXFLG3      1 0000075A FFFFFFEC     R    4149  4153   4158
 CPEXTFLG      1 00000E28 FFFFFFEC     R    5795  5799   5804   5809   5814   5819   5824
 CPFABORT    128 00000D5A FFFFFFEC         5561  2162M  2162   2167M  2167
 CPFERROR     64 00000D5A FFFFFFEC         5566  2161M  2161   2166M  2166
 CPFKWENT      1 00000080 FFFFFFEC A   U    3596  9235   9523   9671  10176
 CPFNTEX       1 00000040 FFFFFFEC A   U    5413  5414
 CPFRCVY      64 00000474 FFFFFFEC         3563  8289
 CPFRDRNG      1 00000D88 FFFFFFEC     R    5681  5685   5690   5695   5700   5705   5710   5715
 CPFRDSRC      1 00000D89 FFFFFFEC     R    5720  5729   5739   5749
 CPFUNUM       1 00000080 FFFFFFEC A   U    5412  5414
 CPFXDFLG      1 000007E4 FFFFFFEC     R    4191  4195   4200
 CPGFLG1       1 00000474 FFFFFFEC     R    3554  3558   3563   3568   3573   3578   3908   3908
 CPGFLG10      1 0000047D FFFFFFEC     R    3791  3795   3800   3805   3810   3815   3820
 CPGFLG11      1 0000047E FFFFFFEC     R    3826  3830   3835
 CPGFLG12      1 0000047F FFFFFFEC     R    3841  3845   3850   3855
 CPGFLG13      1 00000480 FFFFFFEC     R    3861  3865
 CPGFLG14      1 00000481 FFFFFFEC     R    3871  3875   3880   3885   3890   3895
 CPGFLG3       1 00000476 FFFFFFEC     R    3594  9237M  9525M  9673M 10178
 CPGFLG4       1 00000477 FFFFFFEC     R    3607  3618   3627   3636   3645   3654
 CPGFLG5       1 00000478 FFFFFFEC     R    3660  3664   3669   3674   3679   3684   3689   3694   3699
 CPGFLG6       1 00000479 FFFFFFEC     R    3705  3709   3714   3719
 CPGFLG7       1 0000047A FFFFFFEC     R    3725  3729   3734   3739   3744
 CPGFLG8       1 0000047B FFFFFFEC     R    3750  3754   3759   3764   3769
 CPGFLG9       1 0000047C FFFFFFEC     R    3775  3779   3785
 CPGRPSV       2 000001BB FFFFFFEC     C    2732  9202M 10052  10086  10091
 CPINIT        1 00000174 FFFFFFEC     U    2724  6181
 CPJESFLG      1 000009E1 FFFFFFEC     R    4456  4460   4465   4470   4475   4480   4485   4490   4495
 CPJESFLY      1 000009FD FFFFFFEC     R    4506  4510   4515   4520
 CPJESHFL      1 000009E0 FFFFFFEC     R    4441  4445   4450   4529   4529
 CPLFLG10      1 00000D59 FFFFFFEC     R    5547  5551
 CPLFLG11      1 00000D5A FFFFFFEC     R    5557  5561   5566   5571   5576
 CPLFLG12      1 00000D5B FFFFFFEC     R    5582  5586
 CPLFLG14      1 00000D5C FFFFFFEC     R    5592  5596   5601   5606   5611   5616
 CPLFLG6       1 00000D55 FFFFFFEC     R    5422  5426   5431   5436   5441   5446   5451
 CPLFLG7       1 00000D56 FFFFFFEC     R    5457  5461   5466   5471   5476   5481
 CPLFLG8       1 00000D57 FFFFFFEC     R    5487  5491   5496   5501   5506
 CPLFLG9       1 00000D58 FFFFFFEC     R    5512  5516   5521   5526   5531   5536   5541
 CPLOCALZ      1 00000C48 FFFFFFEC     U    5014  6175   6175
 CPMFLG        1 0000084F FFFFFFEC     R    4311  4315
 CPMODFLG      1 00000C78 FFFFFFEC     R    5042  5046   5051   5056   5061   5066
1LOCAL    (LOCL2193) (12:48) (15MAR04) Ordinary Symbol and Literal Cross Reference                                          Page   21
 CPNAMELN      1 00000010 FFFFFFEC A   U    3937  4184
 CPNEDPFX     10 00000E29 FFFFFFEC     X    5828  5829   5830
 CPNSCANP      4 0000008C FFFFFFEC     A    2597  9107   9113   9120   9135   9245   9271   9336   9343   9359
 CPNUMFLG      1 00000C79 FFFFFFEC     R    5072  5084
 CPORVCMD      1 00000140 FFFFFFEC     R    2606  2610   2615   2620   2625   2630   2635   2640   2645   2650   2650
                                                  2701   2701
 CPORVFLG      1 00000149 FFFFFFEC     R    2657  2661   2666   2671   2676   2681   2686   2691   2696
 CPORVWF       1 00000150 FFFFFFEC     R    2709  2713
 CPOSCANX      4 00000CA8 FFFFFFEC     F    5241  5308   5308
 CPR          11 0000000B 00000001 A   #    1102  1187U
 CPRACBAD     16 000001FC FFFFFFEC         2775  2809   2809   2810   2810
 CPRACF1       1 000001FC FFFFFFEC     R    2756  2760   2765   2770   2775   2780   2785   2790   2795   2811
 CPRACPSW     32 000001FC FFFFFFEC         2770  2808   2808   2810   2810
 CPRACUND     64 000001FC FFFFFFEC         2765  2808   2808   2809   2809
 CPRCVCUR      4 00000730 FFFFFFEC     A    4092  4094   4094
 CPRFLG        1 000008AA FFFFFFEC     R    4382  4386   4391   4396   4401   4406   4411
 CPS         254 00000344 FFFFFFEC     X    3526  3529   3530   3532   3532
 CPSACCT       5 000003B4 FFFFFFEC     C    3125  3288   3288   9225
 CPSAMCOD      1 00000A22 FFFFFFEC     R    4578  4586   4596   4606   4615   4624   4633   4643   4652   4661
 CPSAMFLG      1 00000A21 FFFFFFEC     R    4538  4542   4547   4552   4557   4562   4567   4572   4683   4683
 CPSCNFLG      1 00000CD0 FFFFFFEC     R    5254  5265   5274   5285
 CPSCNF2       1 00000CD1 FFFFFFEC     R    5290  5294
 CPSCNMAX      1 00000014 FFFFFFEC A   U    5306  5307
 CPSCRI        2 00000434 FFFFFFEC     H    3515  3520   3520
 CPSEG        60 00000050 FFFFFFEC     X    2595  7298   7332   7685   7751   7796   7838   7873   7912   7983   8002
                                                  8382   8400   8428   8446   8491   8509   8548   8593   8611   8632
                                                  8658   9422   9450   9468   9496   9553   9581   9599   9627   9915
                                                  9933   9961   9979  10013  10071  10099  10117  10145  10163  10198
                                                 10225
 CPSEGCOD      1 00000050 FFFFFFEC     R    2512  2521   2531   2541   2551   2561   2571   2581
 CPSEGLENF
               4 0000005C FFFFFFEC     A    2587  7712
 CPSFL         1 00000384 FFFFFFEC     R    2863  2867   2872   2877   2882   2887
 CPSFLG        1 000003F8 FFFFFFEC     R    3403  3407   3412   3417   3422   3427   3432   3437   3442
 CPSFLG2       1 000003F9 FFFFFFEC     R    3448  3452   3457   3462
 CPSFL2        1 00000385 FFFFFFEC     R    2893  2897   2902   2907   2912
 CPSFL3        1 00000386 FFFFFFEC     R    2918  2922   2927   2932
 CPSFL4        1 00000387 FFFFFFEC     R    2938  2942   2947   2952
 CPSFL5        1 00000388 FFFFFFEC     R    2958  2962   2967   2972
 CPSFOPR      16 000003BE FFFFFFEC         3233  7600   7600
 CPSFPERM      2 000003EE FFFFFFEC         3371  9993
 CPSFSPR      32 000003BE FFFFFFEC         3228  7600   7600   7601
 CPSGRP        2 000003B7 FFFFFFEC     C    3127  7169   7252   9202   9902   9907  10052
 CPSKAFL       1 000003BF FFFFFFEC     R    3259  3263   3268   3273   3278   3283
 CPSKIFL       1 000003BE FFFFFFEC     R    3214  3218   3223   3228   3233   3238   3243   3248   3253
 CPSOF         1 000001F8 FFFFFFEC     X    2746  2748   2748
 CPSOFLAG      1 00000416 FFFFFFEC     R    3473  3477   3482   3487   3492   3497
 CPSOPST       4 000003C4 FFFFFFEC     F    3293  3522   3522
 CPSPORT       8 00000354 FFFFFFEC     C    2857  2977   2977
 CPSQFLG       1 000003EC FFFFFFEC     R    3322  3326
 CPSSFLG       1 000003BB FFFFFFEC     R    3132  3136   3141   3146   3151   3156   3161
 CPSSTART      4 00000344 FFFFFFEC     F    2849  2853   2853   3289   3289   3394   3394   3526   3526
 CPSSTAT       1 0000038F FFFFFFEC     R    3069  3073   3078   3083   3088   3093   3098   3103
 CPSTACF       1 000003BC FFFFFFEC     R    3167  3171   3176   3181   3186   3191   3196   3201   3206
 CPSTART       4 00000000 FFFFFFEC     C    2485  6179   6183
 CPSTFLAG      1 000003EA FFFFFFEC     R    3300  3304   3309   3314
 CPSTYPE       1 0000038C FFFFFFEC     R    2982  2991   3001   3011   3021   3031   3041   3051   3061
 CPSUFLG       1 000003EE FFFFFFEC     R    3337  3341   3346   3351   3356   3361   3366   3371   3376
 CPSUFLG2      1 000003EF FFFFFFEC     R    3382  3386   3391
1LOCAL    (LOCL2193) (12:48) (15MAR04) Ordinary Symbol and Literal Cross Reference                                          Page   22
 CPSUSER       3 000003B4 FFFFFFEC     C    3126  7168   9179   9948   9953  10037
 CPSVPGM       8 0000039C FFFFFFEC     C    3115  3121   3121
 CPSWID        2 00000418 FFFFFFEC     H    3501  7725
 CPS1ST        4 0000038C FFFFFFEC     F    2979  3524   3524
 CPTEMPP#      1 0000005F FFFFFFEC A   U    4432  4434
 CPTRMFL1      1 00000C7A FFFFFFEC     R    5090  5094   5099   5104   5228   5228
 CPTRMFL2      1 00000C7B FFFFFFEC     R    5110  5114   5119   5124   5129   5134   5139
 CPTRMFL3      1 00000C7C FFFFFFEC     R    5145  5149   5154   5159   5164   5169   5174   5179
 CPTRMFL4      1 00000C7D FFFFFFEC     R    5185  5189   5194   5199   5204   5209   5214   5219
 CPUSED        1 00000FBC FFFFFFEC A   U    6179  6180
 CPUSERSV      3 000001B8 FFFFFFEC     C    2731  9179M 10037  10132  10137
 CPVACURS      8 00000AF0 FFFFFFEC     D    4957  4958   4959
 CPVCURS       8 00000AE0 FFFFFFEC     D    4951  4952   4953
 CPVFLAG       1 00000AC8 FFFFFFEC     R    4752  4756   4761   4766   4771   4776
 CPVFLAG2      1 00000AC9 FFFFFFEC     R    4782  4786   4791   4796   4801   4806   4811
 CPVFLAG3      1 00000ACA FFFFFFEC     R    4817  4821   4826   4831   4836   4841   4846
 CPVFLAG4      1 00000ACB FFFFFFEC     R    4852  4856   4861   4866
 CPVLFLAG      1 00000ACE FFFFFFEC     R    4921  4925   4930   4935
 CPVMODE       1 00000ACC FFFFFFEC     R    4874  4878   4883   4888   4893   4898   4903   4908   4913
 CPVTWID       2 00000AD0 FFFFFFEC     H    4941  4944   4944
 CPWK1         4 00000D60 FFFFFFEC     F    5625  5640   5663
 CPWK2         4 00000D64 FFFFFFEC     F    5626  5641   5655
 CPWK3         4 00000D68 FFFFFFEC     F    5627  5642   5656
 CPWK4         4 00000D6C FFFFFFEC     F    5628  5643   5657
 CPWK5         4 00000D70 FFFFFFEC     F    5629  5645   5650   5658
 CPWK6         4 00000D74 FFFFFFEC     F    5630  5646   5651   5659   5666   5668
 CPWK7         4 00000D78 FFFFFFEC     F    5631  5644   5660
 CPXFLAG       1 000007FD FFFFFFEC     R    4219  4223
 CPXSTATE      4 000007F8 FFFFFFEC     F    4213  4226   4226
 CV         4016 00000000 FFFFFFEE     J    2388  1196U
 CVABORT       4 000007DA FFFFFFEE     I    2167  7690B  7756B  7988B
 CVABSRTN      4 0000088C FFFFFFEE     V    2202  2177
 CVBKUPCT      2 00000158 FFFFFFEE     H    1428  7313M  7313
 CVBLANKS    235 000004D8 FFFFFFEE     C    1982  7699   7765   7929
 CVBRMSK       1 00000751 FFFFFFEE     X    2118  2119   2120
 CVCFLAG       1 00000A00 FFFFFFEE     R    2283  2287   2292   2297   2302   2307
 CVCHKST       8 000009F0 FFFFFFEE     D    2273  2363   2363
 CVCHKST2      8 00000E28 FFFFFFEE     D    2366  2369   2369
 CVCOMRTN      4 0000087C FFFFFFEE     V    2198  2168
 CVDBGFLG      1 000004CC FFFFFFEE     R    1972  1976
 CVENT         4 0000074C FFFFFFEE     I    2116  6954B  7131B  7389B  8093B  8235B  8723B  8880B  9074B  9792B  9865B
 CVENTBR       2 00000750 FFFFFFEE     I    2117  2118
 CVERRMSG      4 000007C8 FFFFFFEE     I    2161  9507B
 CVERROR       4 000007D6 FFFFFFEE     I    2166  2182B
 CVEXIRTN      4 0000077C FFFFFFEE     V    2146  2142
 CVFCHRKBPR
               8 000004C9 FFFFFFEE         1887  1903   1903
 CVFCHRKBSE
               4 000004C9 FFFFFFEE         1892  1903   1903
 CVFCHRKCPR
               2 000004C9 FFFFFFEE         1909  1925   1925
 CVFCHRKCSE
               1 000004C9 FFFFFFEE         1914  1925   1925
 CVFCHRUBPR
             128 000004C9 FFFFFFEE         1843  1859   1859
 CVFCHRUBSE
              64 000004C9 FFFFFFEE         1848  1859   1859
 CVFCHRUCPR
              32 000004C9 FFFFFFEE         1865  1881   1881
1LOCAL    (LOCL2193) (12:48) (15MAR04) Ordinary Symbol and Literal Cross Reference                                          Page   23
 CVFCHRUCSE
              16 000004C9 FFFFFFEE         1870  1881   1881
 CVFL          1 000004C4 FFFFFFEE     R    1639  1643   1648   1653   1658   1663   1668   1673   1678
 CVFL2         1 000004C5 FFFFFFEE     R    1684  1688   1693   1698   1703   1708   1713   1718   1723
 CVFL3         1 000004C6 FFFFFFEE     R    1729  1733   1738   1743   1748   1753   1758   1763   1768
 CVFL4         1 000004C7 FFFFFFEE     R    1774  1778   1783   1788   1793   1798   1803   1808
 CVFL5         1 000004C8 FFFFFFEE     R    1814  1818   1823   1828   1833
 CVFL6         1 000004C9 FFFFFFEE     R    1839  1843   1848   1860   1865   1870   1882   1887   1892   1904   1909
                                                  1914   1926
 CVFRLG       16 000004C4 FFFFFFEE         1658  8127
 CVHEAP#       1 00000200 FFFFFFEE A   U    1545  1546
 CVINVRTN      4 00000888 FFFFFFEE     V    2201  2171
 CVJESFLG      1 000004CA FFFFFFEE     R    1932  1936
 CVLNKRGS      4 00000780 FFFFFFEE     F    2148  2123M  2149
 CVLNKRTN      4 000007B0 FFFFFFEE     U    2149  2138M
 CVLOCK1       1 00000088 FFFFFFEE     R    1290  1294   1299
 CVLOCK2       1 00000089 FFFFFFEE     R    1304  1308
 CVLOCK3       1 0000008A FFFFFFEE     R    1313  1317
 CVLOCK4       1 0000008B FFFFFFEE     R    1322  1326
 CVLOGMOD      1 00000068 FFFFFFEE     R    1277  1281
 CVMACH        1 00000067 FFFFFFEE     R    1237  1241   1246   1251   1256   1261   1266   1271
 CVMACHID      8 0000000C FFFFFFEE     C    1217  8153
 CVMILRTN      4 00000884 FFFFFFEE     V    2200  2180
 CVNOARTN      4 00000890 FFFFFFEE     V    2203  2174
 CVNWDATE      4 00000608 FFFFFFEE     F    2005  2009   2009
 CVNWMPG#      1 00000008 FFFFFFEE A   U    2007  2008
 CVPFXRTN      1 00000000 00000000 A   T    2146  2146
 CVPGFLAG      1 00000A01 FFFFFFEE     R    2313  2317   2322   2327
 CVPIOSZ       1 00004F80 FFFFFFEE A   U    1376  1378
 CVPPDBQH      4 0000009C FFFFFFEE     A    1334  1335
 CVPSFNO       1 000003E9 FFFFFFEE A   N    1498  1500
 CVPSLNO       1 000007CF FFFFFFEE A   N    1499  1500
 CVPXSZ        1 00000008 FFFFFFEE A   U    1377  1378
 CVR          12 0000000C 00000001 A   #    1115  1196U
 CVRKEY        1 00000008 FFFFFFEE A   U    2071  2072
 CVSEGRTN      4 00000880 FFFFFFEE     V    2199  2163
 CVSTACK#      1 00000080 FFFFFFEE A   U    1537  1538
 CVSTART       4 00000000 FFFFFFEE     C    1210  2381
 CVSTYPE       2 00000724 FFFFFFEE     C    2094  7161   7233
 CVTRC         4 00000768 FFFFFFEE     I    2138  2124B
 CVTRCRTN      4 00000778 FFFFFFEE     V    2145  2139
 CVTTYPE       2 00000728 FFFFFFEE     C    2096  7280
 CVUSFNO       1 00000001 FFFFFFEE A   N    1505  1507
 CVUSLNO       1 000003E7 FFFFFFEE A   N    1506  1507
 CVUTYPE       2 00000726 FFFFFFEE     C    2095  7262
 CVVOL#        1 00000005 FFFFFFEE A   U    2356  2357
 CVVOLIST      4 00000740 FFFFFFEE     A    2102  7414
 CVWTOFLG      1 000004CB FFFFFFEE     R    1942  1946   1951   1956   1961   1966
 DEBUGSG       1 00000000 00000000 A   T    2099  2099
 DEV          12 00000000 FFFFFFEB     J    4737  4745
 DEVMAX#       1 00000002 FFFFFFEC A   U    4688  4745
 DEVTYPE       1 00000001 FFFFFFEB     R    4705  4714   4724
 DOTTBL        1 00000000 00000000 A   T    2215  2215
 DRENCFLG      1 00000F9F FFFFFFEC     R    6143  6147   6152   6157   6162   6167
 DRENPROT      1 00000F9E FFFFFFEC     R    6130  6138
 DSNON        40 00000E90 FFFFFFEC     C    5863  5864
 DSNWADSN     44 00000E5C FFFFFFEC     C    5850  5851   5852   5853   5862   5870   6101   6107   6109   6115   6118
                                                  6120   6123   6172
 DSNWAF4       1 00000F37 FFFFFFEC     R    5918  5922   5927   5932   5937   5942   5947   5952   5957
1LOCAL    (LOCL2193) (12:48) (15MAR04) Ordinary Symbol and Literal Cross Reference                                          Page   24
 DSNWAF5       1 00000F38 FFFFFFEC     R    5963  5967   5972   5977   5982   5987   5992   5997   6002
 DSNWAF6       1 00000F39 FFFFFFEC     R    6008  6012   6017   6022   6027   6032   6037   6042   6047
 DSNWAF7       1 00000F3A FFFFFFEC     R    6053  6057   6062   6067   6072
 DSNXG         1 00000004 FFFFFFEC A   U    5855  5857
 DSNXGL        1 00000003 FFFFFFEC A   U    5856  5857
 DSNXU         1 00000007 FFFFFFEC A   U    5857  5859
 DSNXUL        1 00000004 FFFFFFEC A   U    5858  5859
 DSSIZ         1 00000108 FFFFFFEC A   U    6101  6109   6118   6123
 EBCTBL        1 00000000 00000000 A   T    2211  2211
 EBCTBL7       1 00000000 00000000 A   T    2214  2214
 ECBLIST       1 00000000 00000000 A   T    2074  2074
 EPARTBL       1 00000000 00000000 A   T    2206  2206
 ERRFILE       2 000000CF 00000002     R    7071  7050
 EXIT0         2 00000018 00000002     H    6940  6936
 EXIT0X        2 0000005E 00000002     H    7024  7010B
 EXIT1         2 000001BC 00000002     H    7117  7113
 EXIT12        2 000006CE 00000002     H    9058  9054
 EXIT12X       2 0000092E 00000002     H    9689  9238B
 EXIT13        2 00000A0C 00000002     H    9851  9847
 EXIT2         2 00000482 00000002     H    8079  8075
 EXIT3         2 000004F0 00000002     H    8221  8217
 EXIT3X        2 00000618 00000002     H    8666  8292B  8311B  8329B  8349B
 EXIT4         2 00000626 00000002     H    8709  8705
 EXIT4X        2 00000664 00000002     H    8825  8771B  8792B
 EXIT5         2 00000672 00000002     H    8866  8862
 EXIT5X        2 000006C0 00000002     H    8996  8926B
 FSR           0 00000000 00000001 A   #    1025  6949   7026M  7041M  7126   7360M  7384   8025M  8230   8678M  8718
                                                  8837M  8875   9008M  9068   9706M  9787   9815M  9830M  9860  10245M
 GETKWR        1 00000000 00000014     T   10273 10273
 HELPDIR       2 000000A8 00000002     R    7065  7048
 HELPFILE      2 000000BD 00000002     R    7068  7049
 HIBAL         1 00000000 FFFFFFFF     J     691   707    720    733    746    759    772    785    798    811    824
                                                   837    850    863    876    889    902
 HOSTRLG       2 00000124 00000002     R    7083  7059
 HOSTSYSA      2 0000010C 00000002     R    7080  7058
 HOSTSYSC      2 0000013B 00000002     R    7086  7060
 HOSTSYSD      2 00000153 00000002     R    7089  7061
 HOSTSYSH      2 0000016B 00000002     R    7092  7056
 INVALID       1 00000000 00000000 A   T    2201  2201
 JCBAFL        1 00000062 FFFFFFE9     R    6449  6453   6458   6463   6468   6473   6478   6483   6488
 JCBBFL        1 00000063 FFFFFFE9     R    6494  6498   6503   6508   6513   6518   6523   6528
 JCBBILLX      8 00000088 FFFFFFE9     D    6579  6587   6587
 JCBRSCF1      1 00000064 FFFFFFE9     R    6534  6538   6543   6548
 JCBSFLG1      1 00000065 FFFFFFE9     R    6554  6558   6563
 JCBWFL        1 00000060 FFFFFFE9     R    6378  6382   6387   6392   6397   6402   6407   6412   6417   6445
 JCBWWFL       1 00000061 FFFFFFE9     R    6423  6427   6432   6437   6442
 KWIO          1 00000000 00000010     T   10267 10267
 KWR         504 00000000 FFFFFFE7     J    6870  8264U  8752U  8910U  9638   9648U  9658M  9658   9659M  9659  10281
 KWRCWR        1 00000080 FFFFFFE7 A   U    6861  8969
 KWRDSTRT      1 00000005 FFFFFFE7     U    6681  6843   6843
 KWRGRP        2 00000003 FFFFFFE7     C    6678  8369   8374
 KWRHFL        1 000001F4 FFFFFFE7     X    6847  8984
 KWRHFUOK      1 00000040 FFFFFFE7 A   U    6849  8982
 KWRIFL        1 0000000E FFFFFFE7     X    6687  8308   8768   8923
 KWRIFVAL      1 00000080 FFFFFFE7 A   U    6688  8306   8766   8921
 KWRSPMAX      2 0000000C FFFFFFE7     H    6685  8319   8526   8553   8617   8789   8810
 KWRSPUSD      2 0000000A FFFFFFE7     H    6684  8346   8451   8617   8810   8932   8960M
 KWRSTART      4 00000000 FFFFFFE7     F    6676  6857
 KWRUSER       3 00000000 FFFFFFE7     C    6677  6679   6679   8415   8420   9660M
1LOCAL    (LOCL2193) (12:48) (15MAR04) Ordinary Symbol and Literal Cross Reference                                          Page   25
 LOCL2193      1 00000000 00000001     R    1161  1159
 LOWTBL        1 00000000 00000000 A   T    2209  2209
 LRTRIM        1 00000000 00000009     T    8050  8050
 LSR           8 00000008 00000001 A   #    1063  6949   7041M  7126   7360M  7384   8025M  8088   8182M  8230   8678M
                                                  8718   8837M  8875   9008M  9068   9706M  9787   9830M  9860  10245M
 MALL          1 00000000 0000000C     T    9771  9771
 MILERR        1 00000000 00000000 A   T    2200  2200
 MTOKEN        1 00000000 0000000A     T    9726  9726   9741
 NBLTBL        1 00000000 00000000 A   T    2213  2213
 NEWSFILE      2 00000199 00000002     R    7098  7055
 NOACTION      1 00000000 00000000 A   T    2203  2203
 NOTVALID      1 00000000 0000000D     T    9772  9772
 NPARTBL       1 00000000 00000000 A   T    2207  2207
 NSCAN         1 00000000 00000011     T   10268 10268
 NSCNCB      176 00000000 FFFFFFED     J    2472  2598   9108   9110   9121   9122   9123   9126M  9127M  9128M  9138M
                                                  9139M  9140M  9248   9272   9287   9302   9303   9304M  9304   9305
                                                  9306M  9319M  9344   9345   9346   9349M  9350M  9352M  9362M  9363M
                                                  9364M 10280
 NSCNFLGS      1 00000008 FFFFFFED     R    2409  2413   2418
 NSCNKWS       4 00000028 FFFFFFED     A    2458  9121   9128M  9138M  9344   9352M  9362M
 NSCNLEN       4 00000004 FFFFFFED     F    2406  9305   9306M
 NSCNLOC       4 00000000 FFFFFFED     A    2405  9302   9304M
 NSCNSKIP      4 00000024 FFFFFFED     A    2457  9122   9126M  9139M  9345   9349M  9363M
 NSCNSTOP      4 00000020 FFFFFFED     A    2456  9123   9127M  9140M  9346   9350M  9364M
 NSCNTLEN      4 00000014 FFFFFFED     F    2424  9272   9319M
 NSCNTLOC      4 00000010 FFFFFFED     A    2423  9287   9303   9304
 NSCNTYPE      1 00000018 FFFFFFED     R    2427  2431   2436   2441   2446   2451
 PRINFILE      2 00000183 00000002     R    7095  7054
 RAR          14 0000000E 00000001 A   #    1141  2138   2139M  2140B  2142M  2143B  2163M  2164B  2168M  2169B  2171M
                                                  2172B  2174M  2175B  2177M  2178B  2180M  2181M  2181B  2187   6946
                                                  7043M  7046B  7123   7154M  7155M  7155B  7165M  7166M  7166B  7237M
                                                  7238M  7238B  7269M  7270M  7270B  7287M  7288M  7288B  7301M  7302M
                                                  7302B  7335M  7336M  7336B  7339M  7340M  7340B  7362M  7365B  7381
                                                  7688M  7689M  7689B  7754M  7755M  7755B  7799M  7800M  7800B  7817M
                                                  7818M  7818B  7841M  7842M  7842B  7876M  7877M  7877B  7915M  7916M
                                                  7916B  7986M  7987M  7987B  8005M  8006M  8006B  8027M  8030B  8085
                                                  8184M  8187B  8227   8385M  8386M  8386B  8403M  8404M  8404B  8431M
                                                  8432M  8432B  8449M  8450M  8450B  8470M  8471M  8471B  8494M  8495M
                                                  8495B  8512M  8513M  8513B  8551M  8552M  8552B  8572M  8573M  8573B
                                                  8596M  8597M  8597B  8614M  8615M  8615B  8635M  8636M  8636B  8661M
                                                  8662M  8662B  8680M  8683B  8715   8839M  8842B  8872   8972M  8973M
                                                  8973B  9010M  9013B  9065   9131M  9132M  9132B  9145M  9146M  9146B
                                                  9355M  9356M  9356B  9369M  9370M  9370B  9396M  9397M  9397B  9425M
                                                  9426M  9426B  9453M  9454M  9454B  9471M  9472M  9472B  9499M  9500M
                                                  9500B  9556M  9557M  9557B  9584M  9585M  9585B  9602M  9603M  9603B
                                                  9630M  9631M  9631B  9663M  9664M  9664B  9708M  9711B  9784   9832M
                                                  9835B  9857   9889M  9890M  9890B  9918M  9919M  9919B  9936M  9937M
                                                  9937B  9964M  9965M  9965B  9982M  9983M  9983B 10016M 10017M 10017B
                                                 10074M 10075M 10075B 10102M 10103M 10103B 10120M 10121M 10121B 10148M
                                                 10149M 10149B 10166M 10167M 10167B 10201M 10202M 10202B 10228M 10229M
                                                 10229B 10247M 10250B
 R0            0 00000000 FFFFFFFF A   #     699  2123   2192M  6975   7017M  7026   7026M  7160M  7204   7232M  7261M
                                                  7279M  7324M  7706M  7743M  7743   7772M  7814M  7865M  7904M  7936M
                                                  7975M  7975   7994M  8117M  8137M  8163M  8274M  8274   8374M  8392M
                                                  8420M  8438M  8460M  8460   8501M  8540M  8562M  8562   8603M  8624M
                                                  8650M  8650   8901   9117M  9117   9126   9127   9128   9155M  9155
                                                  9340M  9340   9349   9350   9392M  9414M  9442M  9460M  9488M  9506M
                                                  9545M  9573M  9591M  9619M  9635M  9635   9907M  9925M  9953M  9971M
                                                 10005M 10063M 10091M 10109M 10137M 10155M 10190M 10217M
1LOCAL    (LOCL2193) (12:48) (15MAR04) Ordinary Symbol and Literal Cross Reference                                          Page   26
 R1            1 00000001 FFFFFFFF A   #     712  2186M  2187M  2193M  7018M  7026   7159M  7231M  7260M  7278M  7323M
                                                  7699M  7765M  7809M  7864M  7903M  7929M  7993M  8116M  8136M  8162M
                                                  8256   8369M  8391M  8415M  8437M  8467M  8500M  8539M  8569M  8602M
                                                  8623M  8744   8902   8968M  9113M  9126   9127   9128   9336M  9349
                                                  9350   9352   9391M  9413M  9437M  9459M  9483M  9505M  9544M  9568M
                                                  9590M  9614M  9637M  9648U  9902M  9924M  9948M  9970M 10004M 10062M
                                                 10086M 10108M 10132M 10154M 10189M 10216M
 R12          12 0000000C FFFFFFFF A   #     855  2149
 R13          13 0000000D FFFFFFFF A   #     868  9108   9121   9122   9123   9138   9139   9140   9344   9345   9346
                                                  9362   9363   9364
 R14          14 0000000E FFFFFFFF A   #     881  2124M  9107M  9108   9120M  9121   9122   9123   9135M  9138   9139
                                                  9140   9245M  9248   9271M  9272   9287   9302   9303   9304   9304
                                                  9305   9306   9319   9323M  9323   9343M  9344   9345   9346   9351M
                                                  9352   9359M  9362   9363   9364
 R15          15 0000000F FFFFFFFF A   #     894  2123   7009M  7022M  7022   7045M  7045   7198M  7198   7298M  7332M
                                                  7364M  7364   7685M  7712M  7713M  7725   7751M  7796M  7838M  7873M
                                                  7912M  7983M  8002M  8029M  8029   8186M  8186   8382M  8400M  8428M
                                                  8446M  8451M  8491M  8509M  8548M  8553M  8593M  8611M  8632M  8658M
                                                  8682M  8682   8757M  8757   8817M  8841M  8841   9012M  9012   9141M
                                                  9141   9272M  9281M  9281   9287M  9296M  9296   9302M  9303M  9305M
                                                  9306   9318M  9318   9319   9365M  9365   9393M  9422M  9450M  9468M
                                                  9496M  9553M  9581M  9599M  9627M  9710M  9710   9834M  9834   9915M
                                                  9933M  9961M  9979M 10013M 10071M 10099M 10117M 10145M 10163M 10198M
                                                 10225M 10249M 10249
 R2            2 00000002 FFFFFFFF A   #     725  6975M  6989   7003   7015M  7016M  7016   7413M  7413   7660M  7660
                                                  7711M  7957M  7957   8088   8182M  8932M  8933M  8945   8955M  8955
                                                  8960
 R3            3 00000003 FFFFFFFF A   #     738  7414M  7431U  7937M  7937   8901M  8933
 R5            5 00000005 FFFFFFFF A   #     764  7162M  7234M  7266M  7266   7284M  7284   7485   7526   8256M  8264U
                                                  8744M  8752U  8902M  8910U
 R6            6 00000006 FFFFFFFF A   #     777  7161M  7233M  7262M  7280M  8319M  8320M  8320   8346   9333M  9333
                                                  9382M  9382   9534M  9534   9813M  9815   9815M
 R7            7 00000007 FFFFFFFF A   #     790  2116M  2116   2117B  2129B
 R8            8 00000008 FFFFFFFF A   #     803  9100U
 SCANCHK       1 00000000 00000012     T   10269 10269
 SDSNQSZ       1 0000002C FFFFFFEC A   U    6104  6105   6106
 SEG           1 00000000 00000008     T    8049  8049  10262
 SEGB          1 00000000 0000000E     T   10263 10263
 SEGCLR        1 00000000 00000004     T    8043  8043
 SEGCR         1 00000000 00000005     T    8044  8044  10265
 SEGWR         1 00000000 00000007     T    8048  8048  10272
 SETAKEY       2 000009DC 00000002     H    9778  9727   9742
 SETAPRT       4 0000093C 00000002     F    9715 10270
 SHOSPAC1      2 0000060C 00000002     H    8646  8529B  8618B
 SHOWBKUP      1 00000000 00000006     T    8045  8045
 SPR          13 0000000D 00000001 A   #    1128  6946   6949   6950   6951M  6951   7037M  7041   7043   7123   7126
                                                  7127   7128M  7128   7356M  7360   7362   7381   7384   7385   7386M
                                                  7386   8021M  8025   8027   8085   8088   8089   8090M  8090   8178M
                                                  8182   8184   8227   8230   8231   8232M  8232   8674M  8678   8680
                                                  8715   8718   8719   8720M  8720   8833M  8837   8839   8872   8875
                                                  8876   8877M  8877   9004M  9008   9010   9065   9068   9070   9071M
                                                  9071   9702M  9706   9708   9784   9787   9788   9789M  9789   9826M
                                                  9830   9832   9857   9860   9861   9862M  9862  10241M 10245  10247
 SYSDSNMX      1 0000000E 00000002 A   U    7062  8040
 SYSDSNTB      4 00000070 00000002     A    7048  7016   7062
 TERMFILE      2 000000E3 00000002     R    7074  7051
 TRC           1 00000000 00000000 A   T    2145  2145
 TTYFLAG       1 00000004 FFFFFFEA     R    6233  6237
 TTYMAX#       1 00000006 FFFFFFEA A   U    6289  6290
1LOCAL    (LOCL2193) (12:48) (15MAR04) Ordinary Symbol and Literal Cross Reference                                          Page   27
 TTYTFLAG      1 00000005 FFFFFFEA     R    6243  6247   6252   6257   6262   6267   6272   6277
 UPDTKWR       2 00000690 00000002     H    8914  8987B
 UPPTBL        1 00000000 00000000 A   T    2208  2208
 VFLG1         1 00000008 FFFFFFE8     X    6612  7568   7624   7892
 VFLG3         1 0000000A FFFFFFE8     X    6630  7581   7643   7853
 VF1AVAIL      1 00000040 FFFFFFE8 A   U    6615  7622
 VF1PRIV       1 00000020 FFFFFFE8 A   U    6616  7566   7890
 VF3BKUP       1 00000040 FFFFFFE8 A   U    6633  7641
 VF3SHOW       1 00000080 FFFFFFE8 A   U    6632  7579   7851
 VN            2 00000232 00000002     H    7242  7219B
 VNAME         6 00000002 FFFFFFE8     C    6610  7502   7543   7809   7814
 VOLDSECT      1 00000000 FFFFFFE8     J    6608  6661   6871   7431U  7447
 VOLENTSZ      1 00000044 FFFFFFE8 A   U    6661  7937
 VOLNX         4 000003CA 00000002     I    7937  7466B  7473B  7505B  7546B  7604B  7627B  7646B
 VOLOPNS       2 00000010 FFFFFFE8     H    6638  6645   6645
 VOLOWNF1      1 00000030 FFFFFFE8     X    6656  6660   6660
 VOLSDISP      2 0000029C 00000002     H    7375  8042
 VOLUCBAD      4 00000024 FFFFFFE8     A    6649  7463M  7463
 VTYPE         2 00000000 FFFFFFE8     C    6609  7472
 WAR           8 00000008 00000001 A   #    1051  6950M  7026   7037   7127M  7356   7385M  8021   8089M  8178   8231M
                                                  8674   8719M  8833   8876M  9004   9070M  9702   9788M  9815   9826
                                                  9861M 10241
 WORDFILE      2 000000F9 00000002     R    7077  7052
 WTOSG         1 00000000 00000000 A   T    2105  2105
 WYLLOCAL      1 00000000 00000001     J    1015  1017   1033   1046   1059   1071   1084   1097   1110   1123   1136
                                                  1149   2389   2473   6213   6325   6605   6875
 WYLLOCL       1 00000018 00000002     J    6878  6880
 XACCTIN       6 00000000 FFFFFFE6     C    9040  9388M  9389M  9390M  9391   9392
 XACCTOUT      5 00000006 FFFFFFE6     C    9041  9393
 X12WA        11 00000000 FFFFFFE6     J    9048  9071   9100U  9706   9708   9709
 =A(SETAPRT)
               4 00000B80 00000002     A   10270  9351
 =A(SYSDSNMX)
               4 0000040C 00000002     A    8040  7003
 =A(VOLSDISP)
               4 00000414 00000002     A    8042  7165   7237   7269   7287
 =A(0)         4 00000408 00000002     A    8039  6989
 =A(0)         4 00000B70 00000002     A   10266  8945
 =A(1)         4 00000424 00000002     A    8046  7485
 =A(2)         4 00000428 00000002     A    8047  7526
 =AL2(-1)      2 00000BB4 00000002     R   10277  8526   8789
 =C'  Sequential saves && recovery are blocked.'
              42 00000BB6 00000002     C   10278  8623
 =C' (password)'
              11 00000C08 00000002     C   10288 10189
 =C' (permanent)'
              12 00000BA8 00000002     C   10276 10004
 =C' - logged on account'
              20 00000B94 00000002     C   10275  9970
 =C' - set account'
              14 00000BE8 00000002     C   10283 10154
 =C' '         1 0000047B 00000002     C    8055  7323
 =C' does not exist.'
              16 00000B50 00000002     C   10261  9505
 =C'.'         1 00000BF6 00000002     C   10284  8391   9459   9590   9924  10108  10216
 =C'*'         1 00000480 00000002     C    8058  7903
 =C'-'         1 00000BF7 00000002     C   10285  8437
 =C', '        2 00000BE6 00000002     C   10282 10062
 =C','         1 00000BF8 00000002     C   10286  8539
1LOCAL    (LOCL2193) (12:48) (15MAR04) Ordinary Symbol and Literal Cross Reference                                          Page   28
 =C'#'         1 0000047F 00000002     C    8057  7864
 =C'tracks accounted'
              16 00000B38 00000002     C   10259  8500
 =C'tracks allowed.'
              15 00000BF9 00000002     C   10287  8602
 =C'Account '
               8 00000B48 00000002     C   10260  9413   9544
 =C'Internal volumes:'
              17 00000459 00000002     C    8053  7231
 =C'Public volumes:'
              15 0000044A 00000002     C    8052  7159
 =C'PUB'       3 0000047C 00000002     C    8056  7502   7543
 =C'SCR001'
               6 000004DE 00000002     C    8197  8136
 =C'SCR002'
               6 000004D8 00000002     C    8196  8116
 =C'SCR102'
               6 000004E4 00000002     C    8198  8162
 =C'SYSC '
               5 000004EA 00000002     C    8199  8153
 =C'Temporary volumes:'
              18 00000438 00000002     C    8051  7278
 =C'Use only volumes:'
              17 0000046A 00000002     C    8054  7260
 =V(BTD)       4 00000B68 00000002     V   10264  8470   8572
 =V(CHKACCT)
               4 00000B84 00000002     V   10271  9396
 =V(COLLOPTS)
               4 00000410 00000002     V    8041  7154
 =V(COLLOPTS)
               4 00000B90 00000002     V   10274  9889
 =V(GETKWR)
               4 00000B8C 00000002     V   10273  9663
 =V(KWIO)      4 00000B74 00000002     V   10267  8972
 =V(LRTRIM)
               4 00000434 00000002     V    8050  7817
 =V(NSCAN)
               4 00000B78 00000002     V   10268  9131   9355
 =V(SCANCHK)
               4 00000B7C 00000002     V   10269  9145   9369
 =V(SEG)       4 00000430 00000002     V    8049  7799   7841   7876   7915   8005
 =V(SEG)       4 00000B60 00000002     V   10262  8385   8403   8512   8614   8635   9425   9453   9471   9499   9556
                                                  9584   9602   9918   9936   9964   9982  10016  10074  10102  10120
                                                 10148  10166  10201
 =V(SEGB)      4 00000B64 00000002     V   10263  8431   8449   8494   8551   8596
 =V(SEGCLR)
               4 00000418 00000002     V    8043  7301
 =V(SEGCR)
               4 0000041C 00000002     V    8044  7335
 =V(SEGCR)
               4 00000B6C 00000002     V   10265  8661
 =V(SEGWR)
               4 0000042C 00000002     V    8048  7688   7754   7986
 =V(SEGWR)
               4 00000B88 00000002     V   10272  9630  10228
 =V(SHOWBKUP)
               4 00000420 00000002     V    8045  7339
 =X'15'        1 00000481 00000002     X    8059  7993
 =Y((L'KWR+3)/4*4)
1LOCAL    (LOCL2193) (12:48) (15MAR04) Ordinary Symbol and Literal Cross Reference                                          Page   29
               2 00000BE4 00000002     Y   10281  9666
 =Y((L'NSCNCB+3)/4*4)
               2 00000BE2 00000002     Y   10280  9247
 =Y((12+3)/4*4)
               2 00000BE0 00000002     Y   10279  9137   9361

1LOCAL    (LOCL2193) (12:48) (15MAR04) Macro and Copy Code Source Summary                                                   Page   30
- Con Source                                        Volume    Members                        HLASM R4.0  2004/03/15 12.48
0     PRIMARY INPUT                                           CSECT    DROP     END      EX       LTORG    POP
                                                              PRINT    PUSH     START    SYSDSNID USING
   L1 WYL.GS.WYL.WYLBUR.MACLIB                      SYSB05    AINFO    BASE     BTD      COLINFO  COMMENT  CONTROL  CP
                                                              CPLOCAL  CV       CVLOCAL  ERROR    JCB      KWRITE   RG
                                                              SCAN     SCANCB   SCANCHK  SCBKUP   SCCBADR  SCKW
                                                              SCPOP    SCPUSH   SYSDSNS  TCLEAR   TCR      TSEG
                                                              TTYPE    TWRITE   VLTORG   VOLUME   XTRACE
   L2 WYL.GG.SYS.MACLIB                             SYSB05    $BC      $BFLKUP  $BV      $CCLKUP  $CRS     $CSS     $L
                                                              $LA      $LBLAD   $LEXP    $LOR     $REL     $RGLKUP
                                                              $USLKUP  ACALL    BEGIN    CLEAR    COMPROC  CSECT
                                                              DEFCC    DROP     END      EX       FLAG     GEN
                                                              HIBAL    IDENT    IF       LABEL    LC       LOOP     LS
                                                              LTH      LTORG    PEND     POP      PRETURN  PRINT    PROC
                                                              PUSH     QLTORG   RECORD   REG      REGS     SET
                                                              SETMSG   START    SYSLR    USING    VCALL    WHILE    WITH
                                                              XPROC
   L3 SYS3.IS.MACLIB                                SYSB05    KWR      SEG      SEGCB    SEGCLR   SEGCR    SEGLD
                                                              SEGWR    SIB      SYSDEFN  XPOP     XPUSH
   L4 SYS3.MACLIB                                   SYSB02    HASPSERV

1LOCAL    (LOCL2193) (12:48) (15MAR04) Dsect Cross Reference                                                                Page   31
-Dsect     Length      Id       Defn                                                         HLASM R4.0  2004/03/15 12.48
0$$$@R0   00000000  FFFFFFFE     705
 $$$@R1   00000000  FFFFFFFD     718
 $$$@R10  00000000  FFFFFFF4     835
 $$$@R11  00000000  FFFFFFF3     848
 $$$@R12  00000000  FFFFFFF2     861
 $$$@R13  00000000  FFFFFFF1     874
 $$$@R14  00000000  FFFFFFF0     887
 $$$@R15  00000000  FFFFFFEF     900
 $$$@R2   00000000  FFFFFFFC     731
 $$$@R3   00000000  FFFFFFFB     744
 $$$@R4   00000000  FFFFFFFA     757
 $$$@R5   00000000  FFFFFFF9     770
 $$$@R6   00000000  FFFFFFF8     783
 $$$@R7   00000000  FFFFFFF7     796
 $$$@R8   00000000  FFFFFFF6     809
 $$$@R9   00000000  FFFFFFF5     822
 $$$RCP   00001000  FFFFFFEC    2478
 $$$RCV   00000FB0  FFFFFFEE    1203
 $$$RDEV  0000000C  FFFFFFEB    4692
 $$$RJCB  000000D0  FFFFFFE9    6330
 $$$RKWR  000001F8  FFFFFFE7    6665
 $$$RNSCNCB
          000000B0  FFFFFFED    2399
 $$$RTTYPE
          0000010C  FFFFFFEA    6223
 $$$RX12WA
          0000000B  FFFFFFE6    9034
 HIBAL    00000000  FFFFFFFF     691
 VOLDSECT 00000044  FFFFFFE8    6608

1LOCAL    (LOCL2193) (12:48) (15MAR04) Using Map                                                                            Page   32
-                                                                                            HLASM R4.0  2004/03/15 12.48
   Stmt  -----Location----- Action ----------------Using----------------- Reg Max    Last  Label and Using Text
           Count      Id           Type          Value    Range     Id        Disp   Stmt
0   922  00000000  FFFFFFFF USING  ORDINARY    00000000 00001000 FFFFFFEF  15 007    7713  @R15,15
    926  00000000  FFFFFFFF USING  ORDINARY    00000000 00001000 FFFFFFF0  14 002    2194  @R14,14
    930  00000000  FFFFFFFF USING  ORDINARY    00000000 00001000 FFFFFFF1  13 000    9248  @R13,13
    934  00000000  FFFFFFFF USING  ORDINARY    00000000 00001000 FFFFFFF2  12 000          @R12,12
    938  00000000  FFFFFFFF USING  ORDINARY    00000000 00001000 FFFFFFF3  11 000          @R11,11
    942  00000000  FFFFFFFF USING  ORDINARY    00000000 00001000 FFFFFFF4  10 000          @R10,10
    946  00000000  FFFFFFFF USING  ORDINARY    00000000 00001000 FFFFFFF5   9 000          @R9,9
    950  00000000  FFFFFFFF USING  ORDINARY    00000000 00001000 FFFFFFF6   8 000          @R8,8
    954  00000000  FFFFFFFF USING  ORDINARY    00000000 00001000 FFFFFFF7   7 000          @R7,7
    958  00000000  FFFFFFFF USING  ORDINARY    00000000 00001000 FFFFFFF8   6 000    7472  @R6,6
    962  00000000  FFFFFFFF USING  ORDINARY    00000000 00001000 FFFFFFF9   5 000          @R5,5
    966  00000000  FFFFFFFF USING  ORDINARY    00000000 00001000 FFFFFFFA   4 000          @R4,4
    970  00000000  FFFFFFFF USING  ORDINARY    00000000 00001000 FFFFFFFB   3 000          @R3,3
    974  00000000  FFFFFFFF USING  ORDINARY    00000000 00001000 FFFFFFFC   2 002    7711  @R2,2
    978  00000000  FFFFFFFF USING  ORDINARY    00000000 00001000 FFFFFFFD   1 001    2193  @R1,1
    982  00000000  FFFFFFFF USING  ORDINARY    00000000 00001000 FFFFFFFE   0 000          @R0,0
    983  00000000  FFFFFFFF DROP                                            0              0
   1187  00000017  00000001 USING  ORDINARY    00000000 00001000 FFFFFFEC  11 D5A   10225  CP,CPR
   1196  00000017  00000001 USING  ORDINARY    00000000 00001000 FFFFFFEE  12 890    9865  CV,CVR
   6966  00000032  00000002 USING  ORDINARY    00000032 00001000 00000002   7 3DA    7016  $$$43B,7
   7033  00000062  00000002 USING  ORDINARY    00000000 00001000 FFFFFFF7   7 000          @R7,7
   7143  000001D6  00000002 USING  ORDINARY    000001D6 00001000 00000002   7 2A5    7339  $$$48B,7
   7352  0000028E  00000002 USING  ORDINARY    00000000 00001000 FFFFFFF7   7 000          @R7,7
   7401  000002B6  00000002 USING  ORDINARY    000002B6 00001000 00000002   7 1CB    8005  $$$55B,7
   7431  000002BC  00000002 USING  ORDINARY    00000000 00001000 FFFFFFE8   3 024    7892  VOLDSECT,R3
   7943  000003CE  00000002 USING  ORDINARY    00000000 00001000 FFFFFFFB   3 000          @R3,3
   8017  000003FA  00000002 USING  ORDINARY    00000000 00001000 FFFFFFF7   7 000          @R7,7
   8105  0000049C  00000002 USING  ORDINARY    0000049C 00001000 00000002   7 04E    8162  $$$82B,7
   8174  000004C6  00000002 USING  ORDINARY    00000000 00001000 FFFFFFF7   7 000          @R7,7
   8247  0000050A  00000002 USING  ORDINARY    0000050A 00001000 00000002   7 6EF    8661  $$$87B,7
   8264  0000050C  00000002 USING  ORDINARY    00000000 00001000 FFFFFFE7   5 00E    8617  KWR,R5
   8670  00000618  00000002 USING  ORDINARY    00000000 00001000 FFFFFFF7   7 000          @R7,7
   8692  00000626  00000002 USING  ORDINARY    00000000 00001000 FFFFFFF9   5 000          @R5,5
   8735  00000640  00000002 USING  ORDINARY    00000640 00001000 00000002   7 574    8811  $$$97B,7
   8752  00000642  00000002 USING  ORDINARY    00000000 00001000 FFFFFFE7   5 00E    8810  KWR,R5
   8829  00000664  00000002 USING  ORDINARY    00000000 00001000 FFFFFFF7   7 000          @R7,7
   8849  00000672  00000002 USING  ORDINARY    00000000 00001000 FFFFFFF9   5 000          @R5,5
   8892  0000068C  00000002 USING  ORDINARY    0000068C 00001000 00000002   7 4E8    8987  $$$104B,7
   8910  00000690  00000002 USING  ORDINARY    00000000 00001000 FFFFFFE7   5 1F4    8984  KWR,R5
   9000  000006C0  00000002 USING  ORDINARY    00000000 00001000 FFFFFFF7   7 000          @R7,7
   9020  000006CE  00000002 USING  ORDINARY    00000000 00001000 FFFFFFF9   5 000          @R5,5
   9086  000006E8  00000002 USING  ORDINARY    000006E8 00001000 00000002   7 50E    9666  $$$112B,7
   9100  000006E8  00000002 USING  ORDINARY    FFFFFFD8 00001000 FFFFFFE6   8 02E    9393  X12WA-(4+36),R8
   9648  00000908  00000002 USING  ORDINARY    00000000 00001000 FFFFFFE7   1 100    9660  KWR,R1
   9679  00000928  00000002 USING  ORDINARY    00000000 00001000 FFFFFFFD   1 000          @R1,1
   9693  0000092E  00000002 USING  ORDINARY    00000000 00001000 FFFFFFF6   8 000          @R8,8
   9698  0000092E  00000002 USING  ORDINARY    00000000 00001000 FFFFFFF7   7 000          @R7,7
   9804  000009F6  00000002 USING  ORDINARY    000009F6 00001000 00000002   7 000          $$$128B,7
   9822  000009FE  00000002 USING  ORDINARY    00000000 00001000 FFFFFFF7   7 000          @R7,7
   9877  00000A26  00000002 USING  ORDINARY    00000A26 00001000 00000002   7 1E2   10228  $$$131B,7
  10237  00000B28  00000002 USING  ORDINARY    00000000 00001000 FFFFFFF7   7 000          @R7,7

1         (LOCL2193) (12:48) (15MAR04) General Purpose Register Cross Reference                                             Page   33
- Register  References (M=modified, B=branch, U=USING, D=DROP, N=index)                      HLASM R4.0  2004/03/15 12.48
0    0(0)      982U   983D  2123   2191M  2191   2192M  6949   6975   7017M  7026   7041M  7126   7160M  7177M  7204
              7232M  7261M  7279M  7324M  7360M  7384   7706M  7743M  7743   7772M  7814M  7865M  7904M  7936M  7975M
              7975   7994M  8025M  8117M  8137M  8163M  8230   8274M  8274   8374M  8392M  8420M  8438M  8460M  8460
              8501M  8540M  8562M  8562   8603M  8624M  8650M  8650   8678M  8718   8837M  8875   8901   8969M  9008M
              9068   9117M  9117   9126   9127   9128   9155M  9155   9340M  9340   9349   9350   9392M  9414M  9442M
              9460M  9488M  9506M  9545M  9573M  9591M  9619M  9635M  9635   9706M  9787   9830M  9860   9907M  9925M
              9953M  9971M 10005M 10063M 10091M 10109M 10137M 10155M 10190M 10217M 10245M
     1(1)      978U  2123   2186M  2187M  2193M  6949   7018M  7026   7041M  7126   7159M  7184M  7231M  7260M  7278M
              7323M  7360M  7384   7699M  7765M  7809M  7864M  7903M  7929M  7993M  8025M  8116M  8136M  8162M  8230
              8256   8369M  8391M  8415M  8437M  8467M  8500M  8539M  8569M  8602M  8623M  8678M  8718   8744   8837M
              8875   8902   8968M  9008M  9068   9113M  9126N  9127N  9128N  9336M  9349N  9350N  9352N  9391M  9413M
              9437M  9459M  9483M  9505M  9544M  9568M  9590M  9614M  9637M  9648U  9679U  9706M  9787   9830M  9860
              9902M  9924M  9948M  9970M 10004M 10062M 10086M 10108M 10132M 10154M 10189M 10216M 10245M
     2(2)      974U  2123   6949   6975M  6989   7003   7015M  7016M  7016N  7041M  7126   7360M  7384   7413M  7413
              7660M  7660   7711M  7957M  7957   8025M  8088   8182M  8230   8678M  8718   8837M  8875   8932M  8933M
              8945   8955M  8955   8960   9008M  9068   9706M  9787   9830M  9860  10245M
     3(3)      970U  2123   6949   7041M  7126   7360M  7384   7414M  7431U  7937M  7937N  7943U  8025M  8088   8182M
              8230   8678M  8718   8837M  8875   8901M  8933   9008M  9068   9706M  9787   9830M  9860  10245M
     4(4)      966U  2123   6949   7041M  7126   7360M  7384   8025M  8088   8182M  8230   8678M  8718   8837M  8875
              9008M  9068   9706M  9787   9830M  9860  10245M
     5(5)      962U  2123   6949   7041M  7126   7162M  7234M  7266M  7266   7284M  7284   7360M  7384   7485   7526
              8025M  8088   8182M  8230   8256M  8264U  8678M  8692U  8718   8744M  8752U  8837M  8849U  8875   8902M
              8910U  8968   9008M  9020U  9068   9706M  9787   9830M  9860  10245M
     6(6)      958U  2123   6949   7041M  7126   7161M  7233M  7262M  7280M  7360M  7384   8025M  8088   8182M  8230
              8319M  8320M  8320   8346   8678M  8718   8837M  8875   9008M  9068   9333M  9333   9382M  9382   9534M
              9534   9706M  9787   9813M  9815   9830M  9860  10245M
     7(7)      954U  2116M  2116   2117B  2123   2129B  6949   6954M  6966U  7033U  7041M  7126   7131M  7143U  7352U
              7360M  7384   7389M  7401U  8017U  8025M  8088   8093M  8105U  8174U  8182M  8230   8235M  8247U  8670U
              8678M  8718   8723M  8735U  8829U  8837M  8875   8880M  8892U  9000U  9008M  9068   9074M  9086U  9698U
              9706M  9787   9792M  9804U  9822U  9830M  9860   9865M  9877U 10237U 10245M
     8(8)      950U  2123   6949   6950M  7026   7037   7041M  7126   7127M  7356   7360M  7384   7385M  8021   8025M
              8088   8089M  8178   8182M  8230   8231M  8674   8678M  8718   8719M  8833   8837M  8875   8876M  9004
              9008M  9068   9070M  9100U  9693U  9702   9706M  9787   9788M  9815N  9826   9830M  9860   9861M 10241
             10245M
     9(9)      946U  2123
    10(A)      942U  2123
    11(B)      938U  1187U  2123
    12(C)      934U  1196U  2123
    13(D)      930U  2123   6946   6949   6950   6951M  6951   7037M  7041   7043   7123   7126   7127   7128M  7128
              7356M  7360   7362   7381   7384   7385   7386M  7386   8021M  8025   8027   8085   8088   8089   8090M
              8090   8178M  8182   8184   8227   8230   8231   8232M  8232   8674M  8678   8680   8715   8718   8719
              8720M  8720   8833M  8837   8839   8872   8875   8876   8877M  8877   9004M  9008   9010   9065   9068
              9070   9071M  9071   9108   9110M  9110   9121   9122   9123   9125M  9125   9137M  9138   9139   9140
              9247M  9344   9345   9346   9348M  9348   9361M  9362   9363   9364   9637   9638M  9638   9666M  9702M
              9706   9708   9784   9787   9788   9789M  9789   9826M  9830   9832   9857   9860   9861   9862M  9862
             10241M 10245  10247
    14(E)      926U  2123   2124M  2138   2139M  2140B  2142M  2143B  2163M  2164B  2168M  2169B  2171M  2172B  2174M
              2175B  2177M  2178B  2180M  2181M  2181B  2187   6946   7043M  7046B  7123   7154M  7155M  7155B  7165M
              7166M  7166B  7237M  7238M  7238B  7269M  7270M  7270B  7287M  7288M  7288B  7301M  7302M  7302B  7335M
              7336M  7336B  7339M  7340M  7340B  7362M  7365B  7381   7688M  7689M  7689B  7754M  7755M  7755B  7799M
              7800M  7800B  7817M  7818M  7818B  7841M  7842M  7842B  7876M  7877M  7877B  7915M  7916M  7916B  7986M
              7987M  7987B  8005M  8006M  8006B  8027M  8030B  8085   8184M  8187B  8227   8385M  8386M  8386B  8403M
              8404M  8404B  8431M  8432M  8432B  8449M  8450M  8450B  8470M  8471M  8471B  8494M  8495M  8495B  8512M
              8513M  8513B  8551M  8552M  8552B  8572M  8573M  8573B  8596M  8597M  8597B  8614M  8615M  8615B  8635M
              8636M  8636B  8661M  8662M  8662B  8680M  8683B  8715   8839M  8842B  8872   8972M  8973M  8973B  9010M
1         (LOCL2193) (12:48) (15MAR04) General Purpose Register Cross Reference                                             Page   34
              9013B  9065   9107M  9108   9120M  9121   9122   9123   9131M  9132M  9132B  9135M  9138   9139   9140
              9145M  9146M  9146B  9245M  9248   9271M  9272N  9287N  9302N  9303N  9304   9304   9305N  9306N  9319N
              9323M  9323   9343M  9344   9345   9346   9351M  9352   9355M  9356M  9356B  9359M  9362   9363   9364
              9369M  9370M  9370B  9396M  9397M  9397B  9425M  9426M  9426B  9453M  9454M  9454B  9471M  9472M  9472B
              9499M  9500M  9500B  9556M  9557M  9557B  9584M  9585M  9585B  9602M  9603M  9603B  9630M  9631M  9631B
              9663M  9664M  9664B  9708M  9711B  9784   9832M  9835B  9857   9889M  9890M  9890B  9918M  9919M  9919B
              9936M  9937M  9937B  9964M  9965M  9965B  9982M  9983M  9983B 10016M 10017M 10017B 10074M 10075M 10075B
             10102M 10103M 10103B 10120M 10121M 10121B 10148M 10149M 10149B 10166M 10167M 10167B 10201M 10202M 10202B
             10228M 10229M 10229B 10247M 10250B
    15(F)      922U  2123   7009M  7022M  7022   7045M  7045   7188M  7188   7198M  7198   7298M  7332M  7364M  7364
              7685M  7712M  7713M  7725   7751M  7796M  7838M  7873M  7912M  7983M  8002M  8029M  8029   8186M  8186
              8382M  8400M  8428M  8446M  8451M  8491M  8509M  8548M  8553M  8593M  8611M  8632M  8658M  8682M  8682
              8757M  8757   8817M  8841M  8841   9012M  9012   9141M  9141   9272M  9281M  9281   9287M  9296M  9296
              9302M  9303M  9305M  9306   9318M  9318   9319   9365M  9365   9393M  9422M  9450M  9468M  9496M  9553M
              9581M  9599M  9627M  9710M  9710   9834M  9834   9915M  9933M  9961M  9979M 10013M 10071M 10099M 10117M
             10145M 10163M 10198M 10225M 10249M 10249

1LOCAL    (LOCL2193) (12:48) (15MAR04) Diagnostic Cross Reference and Assembler Summary                                     Page   35
-                                                                                            HLASM R4.0  2004/03/15 12.48
0     No Statements Flagged in this Assembly
 HIGH LEVEL ASSEMBLER, 5696-234, RELEASE 4.0, PTF P72483
0SYSTEM: OS/390 02.10.00            JOBNAME: WYL#LOCA    STEPNAME: ASM        PROCSTEP: (NOPROC)
0Datasets Allocated for this Assembly
  Con DDname   Dataset Name                                 Volume  Member
   P1 SYSIN    WYL.GS.WYL.WYLBUR.SOURCE                     SYSB05  LOCAL
   L1 SYSLIB   WYL.GS.WYL.WYLBUR.MACLIB                     SYSB05
   L2          WYL.GG.SYS.MACLIB                            SYSB05
   L3          SYS3.IS.MACLIB                               SYSB05
   L4          SYS3.MACLIB                                  SYSB02
   L5          SYS1.MACLIB                                  MVSBR9
   L6          SYS1.MODGEN                                  MVSBR9
      SYSPRINT SYS04075.T124814.RA000.WYL#LOCA.PRINT.H01    SCR101
      SYSTERM  GG$SLP.WYL#LOCA.JOB03539.D0000101.?

    3668K allocated to Buffer Pool,         1513K would be required for this to be an In-Storage Assembly
     466 Primary Input Records Read         7104 Library Records Read                  0 Work File Reads
       0 ASMAOPT Records Read               2590 Primary Print Records Written         0 Work File Writes
       0 Punch Records Written                 0 ADATA Records Written
0Assembly Start Time: 12.48.15 Stop Time: 12.48.21 Processor Time: 00.00.01.6246
 Return Code 000
