1                        J E S 2  J O B  L O G  --  S Y S T E M  S Y S B  --  N O D E  R L G
0
 12.40.46 JOB03510 ---- MONDAY,    15 MAR 2004 ----
 12.40.46 JOB03510  ICH70001I GG$SLP   LAST ACCESS AT 12:40:39 ON MONDAY, MARCH 15, 2004
 12.40.46 JOB03510  $HASP373 WYL#COMM STARTED - INIT 6    - CLASS B - SYS SYSB
 12.40.46 JOB03510  ***  HCMD      STEP $$QUIET
 12.40.46 JOB03510  PUR * Q OUT MUL
 12.40.46 JOB03510  JOB 5371 WYL#COMM WILL BE PURGED
 12.40.47 JOB03510  WYL#COMM.$$QUIET .         RC=Zero TapeIO=0000 DiskIO=0000 CPU=  .01s Elapsed=46.58s
 12.41.02 JOB03510  WYL#COMM.ASM     .         RC=Zero TapeIO=0000 DiskIO=0843 CPU= 5.99s Elapsed=47.99s
 12.41.03 JOB03510  WYL#COMM.EDIT    .         RC=Zero TapeIO=0000 DiskIO=0377 CPU= 1.02s Elapsed=62.13s
 12.41.03 JOB03510  WYL#COMM Ended.  Name=Assemble COMM                  Total CPU= 7.02s Elapsed=46.58s
 12.41.03 JOB03510
 12.41.03 JOB03510  Execution charges   Priority=Standard   Block=Day
 12.41.04 JOB03510
 12.41.04 JOB03510  CPU Usage         129.93          $80.55   Standard Processing Unit Equivalent
 12.41.04 JOB03510                                   =======
 12.41.04 JOB03510                                    $80.55   Total Job execution charge
 12.41.04 JOB03510
 12.41.04 JOB03510  See back separator page for print charges
 12.41.04 JOB03510
 12.41.04 JOB03510  $HASP395 WYL#COMM ENDED  ASM=0, EDIT=0
1        1 //WYL#COMM JOB SLP$GG,'Assemble COMM',TIME=4,REGION=4M                  JOB03510
           //*
           /*JOBPARM LINES=99,COPIES=1
           /*JOBPARM FORMS=3HOL,PFORMAT=LAND,CHARS=BD13,DUPLEX=YES,FLASH=BAR4
           //*
           /*JOBPARM NOTIFY=GG.SLP,HOLD=OUTPUT                                     WYLGEN
         2 //$$QUIET EXEC PGM=HCMDX,PARM='PUR * Q OUT MUL'
           //*
         3 //ASM    EXEC PGM=ASMA90,REGION=8M,
           //            PARM=('NORENT,TERM,FLAG(NOCONT),US(MAP,WARN(10)),NODECK',
           //            'LC(32767),XREF(SHORT),ESD,DXREF,NOOBJECT')
         4 //STEPLIB DD DSN=SYS3.IS.TESTASM,DISP=SHR
         5 //SYSLIB   DD  DSN=WYL.GS.WYL.WYLBUR.MACLIB,DISP=SHR
         6 //         DD  DSN=WYL.GG.SYS.MACLIB,DISP=SHR
         7 //         DD  DSN=SYS3.IS.MACLIB,DISP=SHR
         8 //         DD  DSN=SYS3.MACLIB,DISP=SHR
         9 //         DD  DSN=SYS1.MACLIB,DISP=SHR
        10 //         DD  DSN=SYS1.MODGEN,DISP=SHR
        11 //SYSUT1   DD DSN=&&SYSUT1,UNIT=VIO,DISP=(,DELETE),
           //            SPACE=(4088,(500,250),,CONTIG,ROUND)
        12 //SYSTERM  DD SYSOUT=T
        13 //SYSPRINT DD DSN=&&PRINT,UNIT=SYSDA,DISP=(,PASS),
           //            SPACE=(6650,(250,250),RLSE),
           //            DCB=(BLKSIZE=6650,LRECL=133,RECFM=FB)
        14 //SYSUDUMP DD SYSOUT=A
        15 //SYSIN    DD  DSN=WYL.GS.WYL.WYLBUR.SOURCE(COMM),DISP=SHR
           //*
        16 //EDIT    EXEC PGM=ASMEDIT,TIME=2,REGION=4000K,
           //             PARM='STMT'
        17 //STEPLIB  DD  DSN=WYL.GG.SYS.LINKLIB,DISP=SHR
        18 //ASMOUT   DD  DSN=&PRINT,DISP=(OLD,DELETE)
        19 //SYSPRINT DD  SYSOUT=A
1 STMT NO. MESSAGE
 -
        11 IGD01010I STORCLAS= TEMP STORGROUP =
        11 IGD01010I STORGRP=VIO ASSIGNED.
        13 IGD01010I STORCLAS= TEMP STORGROUP =
        13 IGD01010I STORGRP=VIO ASSIGNED.
 ICH70001I GG$SLP   LAST ACCESS AT 12:40:39 ON MONDAY, MARCH 15, 2004
 IEF142I WYL#COMM $$QUIET - STEP WAS EXECUTED - COND CODE 0000
 *********************************************************************************
 *   WYL#COMM/$$QUIET /                    Return Code      Zero                 *
 *   Region used      260K (16K user + 244K system)                              *
 *   Extended region  9692K (4K user + 9688K system)                             *
 *                                                                               *
 *   Paging              In      Out                                             *
 *   Private <-> Aux      0        0       CPU time (TCB)   00:00:00.01          *
 *   Private <-> Exp      0        0       CPU time (SRB)   00:00:00.00          *
 *   VIO                  0        0       Elapsed time    917:47:06.38          *
 *   Common               0      ---                                             *
 *                                                                               *
 *                                                                               *
 *   CPU Usage          0.18         $0.11  Standard Processing Unit Equivalent  *
 *                                   $0.11  Total Step execution charge          *
 *                                                                               *
 *    I/O count  DDname   Type Addr           I/O count  DDname   Type Addr      *
 *                         *** No I/O for this step ***                          *
 *********************************************************************************
 IEF373I STEP/$$QUIET /START 2004075.1240
 IEF374I STEP/$$QUIET /STOP  2004075.1240 CPU    0MIN 00.01SEC SRB    0MIN 00.00SEC VIRT    16K SYS   244K EXT       4K SYS    9688K
 IEF236I ALLOC. FOR WYL#COMM ASM
 IEF237I 04DC ALLOCATED TO STEPLIB
 IEF237I 04DC ALLOCATED TO SYSLIB
 IEF237I 04DC ALLOCATED TO
 IEF237I 04DC ALLOCATED TO
 IEF237I 0402 ALLOCATED TO
 IEF237I 04A0 ALLOCATED TO
 IEF237I 04A0 ALLOCATED TO
 IGD101I SMS ALLOCATED TO DDNAME (SYSUT1  )
         DSN (SYS04075.T124046.RA000.WYL#COMM.SYSUT1.H01  )
         STORCLAS (TEMP) MGMTCLAS (        ) DATACLAS (        )
         VOL SER NOS= VIO
 IEF237I JES2 ALLOCATED TO SYSTERM
 IGD101I SMS ALLOCATED TO DDNAME (SYSPRINT)
         DSN (SYS04075.T124046.RA000.WYL#COMM.PRINT.H01   )
         STORCLAS (TEMP) MGMTCLAS (        ) DATACLAS (        )
         VOL SER NOS= SCR101
 IEF237I JES2 ALLOCATED TO SYSUDUMP
 IEF237I 04DC ALLOCATED TO SYSIN
 IEF142I WYL#COMM ASM - STEP WAS EXECUTED - COND CODE 0000
 IEF285I   SYS3.IS.TESTASM                              KEPT
 IEF285I   VOL SER NOS= SYSB05.
 IEF285I   WYL.GS.WYL.WYLBUR.MACLIB                     KEPT
 IEF285I   VOL SER NOS= SYSB05.
 IEF285I   WYL.GG.SYS.MACLIB                            KEPT
 IEF285I   VOL SER NOS= SYSB05.
 IEF285I   SYS3.IS.MACLIB                               KEPT
 IEF285I   VOL SER NOS= SYSB05.
 IEF285I   SYS3.MACLIB                                  KEPT
 IEF285I   VOL SER NOS= SYSB02.
 IEF285I   SYS1.MACLIB                                  KEPT
 IEF285I   VOL SER NOS= MVSBR9.
 IEF285I   SYS1.MODGEN                                  KEPT
 IEF285I   VOL SER NOS= MVSBR9.
 IGD105I SYS04075.T124046.RA000.WYL#COMM.SYSUT1.H01   DELETED,   DDNAME=SYSUT1
 IEF285I   GG$SLP.WYL#COMM.JOB03510.D0000101.?          SYSOUT
 IGD106I SYS04075.T124046.RA000.WYL#COMM.PRINT.H01    PASSED,    DDNAME=SYSPRINT
 IEF285I   GG$SLP.WYL#COMM.JOB03510.D0000102.?          SYSOUT
 IEF285I   WYL.GS.WYL.WYLBUR.SOURCE                     KEPT
 IEF285I   VOL SER NOS= SYSB05.
 *********************************************************************************
 *   WYL#COMM/ASM     /                    Return Code      Zero                 *
 *   Region used      4376K (4096K user + 280K system)                           *
 *   Extended region  10300K (412K user + 9888K system)                          *
 *                                                                               *
 *   Paging              In      Out                                             *
 *   Private <-> Aux      0        0       CPU time (TCB)   00:00:05.93          *
 *   Private <-> Exp      0        0       CPU time (SRB)   00:00:00.06          *
 *   VIO                  0        0       Elapsed time    917:47:04.97          *
 *   Common               0      ---                                             *
 *                                                                               *
 *                                                                               *
 *   CPU Usage        111.18        $68.93  Standard Processing Unit Equivalent  *
 *                                  $68.93  Total Step execution charge          *
 *                                                                               *
 *    I/O count  DDname   Type Addr           I/O count  DDname   Type Addr      *
 *           84  STEPLIB  Disk 04DC                 368  SYSLIB   Disk 04DC      *
 *            0  SYSLIB   Disk 04DC                   0  SYSLIB   Disk 04DC      *
 *            0  SYSLIB   Disk 0402                   6  SYSLIB   Disk 04A0      *
 *            0  SYSLIB   Disk 04A0                  34  SYSUT1   VIO  ----      *
 *            0  SYSTERM       ----                 374  SYSPRINT Disk 04E3      *
 *            0  SYSUDUMP      ----                  11  SYSIN    Disk 04DC      *
 *********************************************************************************
 IEF373I STEP/ASM     /START 2004075.1240
 IEF374I STEP/ASM     /STOP  2004075.1241 CPU    0MIN 05.93SEC SRB    0MIN 00.06SEC VIRT  4096K SYS   280K EXT     412K SYS    9888K
 IEF236I ALLOC. FOR WYL#COMM EDIT
 IEF237I 0402 ALLOCATED TO STEPLIB
 IGD103I SMS ALLOCATED TO DDNAME ASMOUT
 IEF237I JES2 ALLOCATED TO SYSPRINT
 IEF142I WYL#COMM EDIT - STEP WAS EXECUTED - COND CODE 0000
 IEF285I   WYL.GG.SYS.LINKLIB                           KEPT
 IEF285I   VOL SER NOS= SYSB02.
 IGD105I SYS04075.T124046.RA000.WYL#COMM.PRINT.H01    DELETED,   DDNAME=ASMOUT
 IEF285I   GG$SLP.WYL#COMM.JOB03510.D0000103.?          SYSOUT
 *********************************************************************************
 *   WYL#COMM/EDIT    /                    Return Code      Zero                 *
 *   Region used      380K (116K user + 264K system)                             *
 *   Extended region  9820K (4K user + 9816K system)                             *
 *                                                                               *
 *   Paging              In      Out                                             *
 *   Private <-> Aux      0        0       CPU time (TCB)   00:00:00.99          *
 *   Private <-> Exp      0        0       CPU time (SRB)   00:00:00.03          *
 *   VIO                  0        0       Elapsed time    917:46:50.83          *
 *   Common               0      ---                                             *
 *                                                                               *
 *                                                                               *
 *   CPU Usage         18.56        $11.50  Standard Processing Unit Equivalent  *
 *                                  $11.50  Total Step execution charge          *
 *                                                                               *
 *    I/O count  DDname   Type Addr           I/O count  DDname   Type Addr      *
 *            2  STEPLIB  Disk 0402                 375  ASMOUT   Disk 04E3      *
 *            0  SYSPRINT      ----                                              *
 *********************************************************************************
 IEF373I STEP/EDIT    /START 2004075.1241
 IEF374I STEP/EDIT    /STOP  2004075.1241 CPU    0MIN 00.99SEC SRB    0MIN 00.03SEC VIRT   116K SYS   264K EXT       4K SYS    9816K
 *********************************************************************************
 *                                                                               *
 *                      S t a n f o r d   U n i v e r s i t y                    *
 *                                                                               *
 *                              *** Job Summary ***                              *
 *                                                                               *
 *   System Id      SYSB                   Input time     12:39:15  Mar 15, 2004 *
 *                                                                               *
 *   System Release SP6.1.0                Start time     12:40:46  Mar 15, 2004 *
 *                                                                               *
 *   Job name       WYL#COMM               Stop  time     00:00:00  Mar 15, 2004 *
 *                                                                               *
 *   Account        SLP$GG                 Elapsed time  917:47:06.38            *
 *                                                                               *
 *   User Name      Assemble COMM          CPU time       00:00:06.93            *
 *                                                                               *
 *   Job class      B                      SRB Time       00:00:00.09            *
 *                                                                               *
 *********************************************************************************
 IEF375I  JOB/WYL#COMM/START 2004075.1240
 IEF376I  JOB/WYL#COMM/STOP  2004075.1241 CPU    0MIN 06.93SEC SRB    0MIN 00.09SEC
1Assembler Done COMM No Statements Flagged
1         High Level Assembler Option Summary                   (PTF P72483 )                                               Page    1
-                                                                                            HLASM R4.0  2004/03/15 12.40
0  No Overriding ASMAOPT Parameters
   Overriding Parameters-  NORENT,TERM,FLAG(NOCONT),US(MAP,WARN(10)),NODECK,LC(32767),XREF(SHORT),ESD,DXREF,NOOBJECT
   No Process Statements


   Options for this Assembly
0  NOADATA
     ALIGN
   NOASA
     BATCH
     CODEPAGE(047C)
   NOCOMPAT
   NODBCS
 3 NODECK
 3   DXREF
 3   ESD
   NOEXIT
 3   FLAG(0,ALIGN,NOCONT,NOIMPLEN,NOPAGE0,PUSH,RECORD,NOSUBSTR,USING0)
   NOFOLD
   NOGOFF
   NOINFO
     LANGUAGE(EN)
   NOLIBMAC
 3   LINECOUNT(32767)
     LIST(121)
     MXREF(SOURCE)
 3 NOOBJECT
     OPTABLE(UNI,NOLIST)
   NOPCONTROL
   NOPESTOP
   NOPROFILE
   NORA2
 3 NORENT
     RLD
     RXREF
     SIZE(MAX)
     SYSPARM()
 3   TERM(WIDE)
   NOTEST
     THREAD
   NOTRANSLATE
 3   USING(NOLIMIT,MAP,WARN(10))
 3   XREF(SHORT)

   No Overriding DD Names

1COMM     External Symbol Dictionary                                                                                        Page    2
-Symbol   Type   Id     Address  Length     LD ID  Flags Alias-of                            HLASM R4.0  2004/03/15 12.40
0WYLCOMM   SD 00000001 00000000 00007048             00
 COMM4072  LD          00000000           00000001
 COMMSEG   LD          00000018           00000001
 COMMAND   LD          00000050           00000001
 SEG       ER 00000002
 MONCMD    ER 00000003
 GETEXCMD  ER 00000004
 FREECORE  ER 00000005
 BILLCHK   ER 00000006
 SIGNOFF   ER 00000007
 INITPCMD  ER 00000008
 PAGECMD   ER 00000009
 SEGCLR    ER 0000000A
 SEGWR     ER 0000000B
 TREAD     ER 0000000C
 WCTRINCR  ER 0000000D
 ORVCABRT  ER 0000000E
 RTRIM     ER 0000000F
 EXTCLOSE  ER 00000010
 JESOCLS   ER 00000011
 JESICLS   ER 00000012
 KWRFREE   ER 00000013
 KRSCFREE  ER 00000014
 DICTCLS   ER 00000015
 DENQFREE  ER 00000016
 DCLOSE    ER 00000017
 SETEMSG   ER 00000018
 LMSGCHK   ER 00000019
 PAGEMSG   ER 0000001A
 PAGEMOD   ER 0000001B
 PAGERES   ER 0000001C
 LASTLINE  ER 0000001D
 PFREEA    ER 0000001E
 PFREEB    ER 0000001F
 PJNKTMP   ER 00000020
 PAGEMON   ER 00000021
 TSTAT     ER 00000022
 SIGNRES   ER 00000023
 TCNTL     ER 00000024
 ALLOWATN  ER 00000025
 TRASHATN  ER 00000026
 SETATTN   ER 00000027
 SETERROR  ER 00000028
 ORVRETN   ER 00000029
 EXECABRT  ER 0000002A
 ORVCHK    ER 0000002B
 INITCMD   LD          000007EA           00000001
 INITSTK   LD          000008B8           00000001
 GETHEAP   LD          000008E8           00000001
 MARKHEAP  LD          0000095E           00000001
 RELHEAP   LD          0000098A           00000001
 UPDCPSIB  LD          000009E4           00000001
 MILERR    LD          00000A44           00000001
 STKCHK    LD          00000AD4           00000001
 STKOVER   LD          00000B2A           00000001
1COMM     External Symbol Dictionary                                                                                        Page    3
 NOMORPG   LD          00000B6C           00000001
 NOACTION  LD          00000BB8           00000001
 INVALID   LD          00000C04           00000001
 ABSCENT   LD          00000C74           00000001
 AMMISS    LD          00000CBE           00000001
 CMDRETRY  LD          00000D62           00000001
 GBLCMD    LD          00000DE6           00000001
 SEGINIT   ER 0000002C
 TERMSEG   ER 0000002D
 SEGINITR  ER 0000002E
 BTD       ER 0000002F
 SEGT      ER 00000030
 ORVCPASS  ER 00000031
 LINEMOD   ER 00000032
 EVALSTR   ER 00000033
 EDTCOMNH  LD          0000107E           00000001
 EDTCOMMV  LD          000010B4           00000001
 EDTCOM    LD          000010FA           00000001
 HOLDATN   ER 00000034
 PREPROC   ER 00000035
 XCMDSCAN  ER 00000036
 NSCAN     ER 00000037
 SCINIT    ER 00000038
 SCANCHK   ER 00000039
 CMDFIN    LD          00001466           00000001
 MTOKEN    ER 0000003A
 MALL      ER 0000003B
 CMDUNREC  LD          00001A70           00000001
 MPARM     ER 0000003C
 UTIL      LD          00001CFA           00000001
 MACRO     LD          00001ED6           00000001
 KERMIT    LD          00002002           00000001
 NOTVALID  ER 0000003D
 JESSND    ER 0000003E
 SCUPCASE  ER 0000003F
 ORVCMD    ER 00000040
 SEGTB     ER 00000041
 SETPARM   ER 00000042
 OS        LD          00002196           00000001
 LRTRIM    ER 00000043
 SEGDC     ER 00000044
 DEFINE    LD          000022FA           00000001
 MNULL     ER 00000045
 UNDEFINE  LD          000027E0           00000001
 CLRDEF    LD          00002932           00000001
 DEQUOTE   ER 00000046
 XDELSET   ER 00000047
 SHOWDEF   LD          00002A56           00000001
 COLLPSH   ER 00000048
 XSETSET   ER 00000049
 XGETFRST  ER 0000004A
 SEGCR     ER 0000004B
 XGETNEXT  ER 0000004C
 XPUT      ER 0000004D
 XGET      ER 0000004E
 XDELETE   ER 0000004F
 SETHIST   LD          000033E8           00000001
 SHOWHIST  LD          00003474           00000001
 MINT      ER 00000050
1COMM     External Symbol Dictionary                                                                                        Page    4
 GETHCMD   LD          00003786           00000001
 CLRHCMDS  LD          000038BC           00000001
 FMTTIME   ER 00000051
 GETCORE   ER 00000052
 LOCALTOD  ER 00000053
 DTB       ER 00000054
 TRY       LD          00003A5A           00000001
 SEGXLNO   ER 00000055
 SAVEDATA  ER 00000056
 GETDATA   ER 00000057
 USERCMD   LD          000041C6           00000001
 SYSCMD    LD          000042E8           00000001
 CDUMP     LD          000043CA           00000001
 QUIET     LD          0000481A           00000001
 DECIDE    LD          00004D28           00000001
 NOTYET    LD          00004E4A           00000001
 SEGB      ER 00000058
 IF        ER 00000059
 SET       ER 0000005A
 READ      ER 0000005B
 WRITE     ER 0000005C
 CHANGE    ER 0000005D
 CDUMP     ER 0000005E
 SHOW      ER 0000005F
 DUMP      ER 00000060
 SHOWVAL   ER 00000061
 EXECUTE   ER 00000062
 XCALL     ER 00000063
 XCACTIVE  ER 00000064
 XCOMYUCK  ER 00000065
 XRETURN   ER 00000066
 XEXIT     ER 00000067
 PCALL     ER 00000068
 PRETURN   ER 00000069
 SYSCALL   ER 0000006A
 GOTO      ER 0000006B
 LIST      ER 0000006C
 POINT     ER 0000006D
 BEGIN     ER 0000006E
 END       ER 0000006F
 WHILE     ER 00000070
 ELSE      ER 00000071
 ELSEIF    ER 00000072
 REPEAT    ER 00000073
 UNTIL     ER 00000074
 CASE      ER 00000075
 CASES     ER 00000076
 THEN      ER 00000077
 XPROC     ER 00000078
 XLOAD     ER 00000079
 XSCAN     ER 0000007A
 XFORMAT   ER 0000007B
 XCONVERT  ER 0000007C
 XPAUSE    ER 0000007D
 XRESET    ER 0000007E
 XGO       ER 0000007F
 PUBLOAD   ER 00000080
 ON        ER 00000081
 PRINT     ER 00000082
1COMM     External Symbol Dictionary                                                                                        Page    5
 MODIFY    ER 00000083
 EDIT      ER 00000084
 SPELL     ER 00000085
 GUESS     ER 00000086
 LEARN     ER 00000087
 UNLEARN   ER 00000088
 JOIN      ER 00000089
 SPLIT     ER 0000008A
 EXCHANGE  ER 0000008B
 VIEW      ER 0000008C
 PUTLCMD   ER 0000008D
 PUTLCMDT  ER 0000008E
 PUTEND    ER 0000008F
 COLLECT   ER 00000090
 JESCMD    ER 00000091
 COMPARE   ER 00000092
 COMMENT   ER 00000093
 RUN       ER 00000094
 WAIT      ER 00000095
 DEFINE    ER 00000096
 UNDEFINE  ER 00000097
 TO        ER 00000098
 CLEAR     ER 00000099
 COPY      ER 0000009A
 COPYA     ER 0000009B
 COUNT     ER 0000009C
 DELETE    ER 0000009D
 FETCH     ER 0000009E
 INSERT    ER 0000009F
 MOVE      ER 000000A0
 NUMBER    ER 000000A1
 REPLACE   ER 000000A2
 USE       ER 000000A3
 SQUASH    ER 000000A4
 DECLARE   ER 000000A5
 XDEBUG    ER 000000A6
 XMONITOR  ER 000000A7
 LOGOFF    ER 000000A8
 LOGON     ER 000000A9
 CONDENSE  ER 000000AA
 RESTORE   ER 000000AB
 ALIGN     ER 000000AC
 CENTER    ER 000000AD
 PFORMAT   ER 000000AE
 ALLOCATE  ER 000000AF
 SAVE      ER 000000B0
 OLDSAVE   ER 000000B1
 RESAVE    ER 000000B2
 SCRATCH   ER 000000B3
 OSRENAME  ER 000000B4
 CATALOG   ER 000000B5
 MAIL      ER 000000B6
 PASS      ER 000000B7
 MICRO     ER 000000B8
 SAMSON    ER 000000B9
 OPEN      ER 000000BA
 CLOSE     ER 000000BB
 PICK      ER 000000BC
 UNCLEAR   ER 000000BD
1COMM     External Symbol Dictionary                                                                                        Page    6
 HELP      ER 000000BE
 SORT      ER 000000BF
 EVALUATE  ER 000000C0
 RECLOAD   ER 000000C1
 VARY      ER 000000C2
 SMF       ER 000000C3
 UPLOAD    ER 000000C4
 DOWNLOAD  ER 000000C5
 QUERY     ER 000000C6
 QOPEN     ER 000000C7
 QSEND     ER 000000C8
 QEXEC     ER 000000C9
 QRUN      ER 000000CA
 QFETCH    ER 000000CB
 QMONITOR  ER 000000CC
 QRESET    ER 000000CD
 QCLOSE    ER 000000CE
 BROADCAS  ER 000000CF
 MOPEN     ER 000000D0
 MCLOSE    ER 000000D1
 START     ER 000000D2
 STOP      ER 000000D3
 KILL      ER 000000D4
 OS        ER 000000D5
 VLOGON    ER 000000D6
 VLOGOFF   ER 000000D7
 VGO       ER 000000D8
 VATTN     ER 000000D9
 VDEBUG    ER 000000DA
 VTAM      ER 000000DB
 WBREAK    ER 000000DC
 WBILL     ER 000000DD
 WCOUNT    ER 000000DE
 WDEBUG    ER 000000DF
 WEVENT    ER 000000E0
 WMONITOR  ER 000000E1
 WTEST     ER 000000E2
 WITEST    ER 000000E3
 WSC       ER 000000E4
 WPC       ER 000000E5
 WSTART    ER 000000E6
 WSTOP     ER 000000E7
 SUBSYS    ER 000000E8
 XCTL      ER 000000E9
 MIMPLIED  ER 000000EA
 IMPLIED   ER 000000EB

1COMM     WYLBUR's Command Processor                                                                                        Page    7
0Loc    Object Code    Addr1 Addr2  Stmt Lv Lineno    Source Statement                    (Asmedit 3.3)  HLASM R4.0  2004/03/15 12.40
+___    ______ ____    _____ _____  ____ __ ______    ______ _________
0                                      2              *******************************************************************
                                       3              *                                                                 *
                                       4              *     WYLBUR/370 - Release VI - Class I - Stanford Proprietary    *
                                       5              *                                                                 *
                                       6              *******************************************************************
                                       7                       HIBAL
                                     988
                                     989                       SYSDEFN ,                 Define installation params
                                     990                       GBLC  &GREET,&INSTALN
                                     991
 000000                00000 07048   992              WYLCOMM  CSECT
                                     996              COMM     IDENT 4072                10:30:05 03/12/04  (SLP)
                                     999             +
                                    1000    01-IDENT +         ENTRY COMM4072
                                    1001             +
 000000 16C3D6D4D4F4F0F7            1002    01-IDENT +COMM4072 DC    AL1(22),C'COMM4072,15MAR04,12:40'
                                    1003             +*
-                                   1006                       REGS  FSR,,,,,,,BR,(WAR,LSR),PAR,PBR,CPR,CVR,SPR,RAR
                                    1142
                                    1143                       PUSH  DSECTS
 USING  CP,R11                      1155             =         USING (CP),(CV)
 USING  CV,R12
 000017                00000 07048  1174             =         POP   PRINT
1COMM     (COMM4072) (12:40) (15MAR04) Command Processor                                                                    Page    8
0Current Usings:  (CP,R11) (CV,R12)
0Loc    Object Code    Addr1 Addr2  Stmt Lv Lineno    Source Statement           (Hibal 5, Asmedit 3.3)  HLASM R4.0  2004/03/15 12.40
+___    ______ ____    _____ _____  ____ __ ______    ______ _________
0                                   6787              ¿þþþþþþþþþþþþþþþþþþþþþþþþþþþþþþþþþþþþþþþþþþþþþþþþþþþþþþþþþþþþþþþþþþþþþÜ
                                    6788              Ÿ                                                                     Ÿ
                                    6789              Ÿ                                                                     Ÿ
                                    6790              Ÿ                                                                     Ÿ
                                    6791              Ÿ  COMMAND - main command loop                                        Ÿ
                                    6792              Ÿ                                                                     Ÿ
                                    6793              Ÿ                                                                     Ÿ
                                    6794              Ÿ  This routine is called at the completion of each command.          Ÿ
                                    6795              Ÿ  The routine cleans up after the previous command, and              Ÿ
                                    6796              Ÿ  re-initializes local cells, and then branches to get the           Ÿ
                                    6797              Ÿ  the next command.                                                  Ÿ
                                    6798              Ÿ        (The next command is then scanned, the scanner               Ÿ
                                    6799              Ÿ  branching to the correct routine to execute the given              Ÿ
                                    6800              Ÿ  command.  Upon command completion the command returns              Ÿ
                                    6801              Ÿ  here. And on and on !)                                             Ÿ
                                    6802              Ÿ                                                                     Ÿ
                                    6803              Ÿ  NOTE: the cleanup routine has no particular logic, except          Ÿ
                                    6804              Ÿ  to do the things that are required at command termination          Ÿ
                                    6805              Ÿ  It handles normal and abnormal terminations.  It is a hodge-       Ÿ
                                    6806              Ÿ  podge of stuff, some order dependent, some not.  It not            Ÿ
                                    6807              Ÿ  a pretty sight, but there are worse routines.                      Ÿ
                                    6808              Ÿ                                                                     Ÿ
                                    6809              Ÿ                                                                     Ÿ
                                    6810              Ÿ                                                                     Ÿ
                                                      ¾þþþþþþþþþþþþþþþþþþþþþþþþþþþþþþþþþþþþþþþþþþþþþþþþþþþþþþþþþþþþþþþþþþþþþ»
0000018 50E0 D000/9008_      00000  6811              COMMSEG  XPROC
 USING  *,R7
 000032 41F0 B050/58E0_      00050  6851                       TSEG  (R1),(R0)
 00003C 58E0 710A/0DEE       0013C  6875                       ACALL COMMAND
 000042 18D8/9808 D004_             6879                       PEND
 DROP   *,R7
                                    6899
 000050 50E0 D000/9008_      00000  6900              COMMAND  XPROC
 USING  *,R7
                                    6940              *
                                    6941              *
 00006A 58E0 70D6/0DEE       00140  6942                       ACALL CLEANUP             Clean up after last command
                                    6946
 000070 9180 B84F/47E0_0084F        6947                       IF    CPFMON,BEGIN        If exec monitor on,,,
 000078 58E0 70DA/0DEE       00144  6962  1                      VCALL MONCMD              Monitor command
 00007E                             6966                       END
                                    6970
 00007E 58E0 70DE/0DEE       00148  6971                       ACALL INITCMD             Re-initialize
                                    6975
 000084 900F C780/4DE0_      00780  6976                       XTRACE COMMAND,REGS=
-
1COMM     (COMM4072) (12:40) (15MAR04) Command Processor                                                                    Page    9
0Current Usings:  (*,R7) (CP,R11) (CV,R12)
0Loc    Object Code    Addr1 Addr2  Stmt Lv Lineno    Source Statement           (Hibal 5, Asmedit 3.3)  HLASM R4.0  2004/03/15 12.40
+___    ______ ____    _____ _____  ____ __ ______    ______ _________
0                                   6982                       ¿þþþþþþþþþþþþþþþþþþþþþþþþþþþþþþþþþþþþþþþÜ
                                    6983                       Ÿ  If EXEC mode,                        Ÿ
                                    6984                       Ÿ     get next command from EXEC file.  Ÿ
                                    6985                       ¾þþþþþþþþþþþþþþþþþþþþþþþþþþþþþþþþþþþþþþþ»
 000098 9180 B758/47E0_00758        6986                       IF    CPFEXEC,BEGIN
 0000A0 58E0 70E2/0DEE       0014C  7001  1                      VCALL GETEXCMD            DOES NOT RETURN
 0000A6                             7005                       END
-                                   7010                       ¿þþþþþþþþþþþþþþþþþþþþþþþþþþþþþþþþþþþþþþþþþþÜ
                                    7011                       Ÿ  If XCOMMAND is waiting,                 Ÿ
                                    7012                       Ÿ     set up that command and execute it.  Ÿ
                                    7013                       ¾þþþþþþþþþþþþþþþþþþþþþþþþþþþþþþþþþþþþþþþþþþ»
 0000A6 D603 B8C8 B8C8_008C8 008C8  7014                       IF    (CPXCMDP,NZ),BEGIN
 0000B0 58E0 70E6/0DEE       00150  7030  1                      ACALL GETXCCMD            DOES NOT RETURN
 0000B6                             7034                       END
                                    7038                       ¿þþþþþþþþþþþþþþþþþþþþþþþþþþþþþþþþþþþþþþÜ
                                    7039                       Ÿ  Otherwise,                          Ÿ
                                    7040                       Ÿ     get next command from terminal.  Ÿ
                                    7041                       ¾þþþþþþþþþþþþþþþþþþþþþþþþþþþþþþþþþþþþþþ»
 0000B6 58E0 70EA/0DEE       00154  7042                       ACALL GETTCMD             DOES NOT RETURN
 0000BC 18D8/9808 D004_             7046                       PEND
 DROP   *,R7
1COMM     (COMM4072) (12:40) (15MAR04) Execute XCOMMAND saved command                                                       Page   10
0Current Usings:  (CP,R11) (CV,R12)
0Loc    Object Code    Addr1 Addr2  Stmt Lv Lineno    Source Statement           (Hibal 5, Asmedit 3.3)  HLASM R4.0  2004/03/15 12.40
+___    ______ ____    _____ _____  ____ __ ______    ______ _________
0                                   7067                   ¿þþþþþþþþþþþþþþþþþþþþþþþþþþþþþþþþþþþþþþþþþþþþþþþþþþþþþþþþþþþþþþþþþþþÜ
                                    7068                   Ÿ      Set up saved XCOMMAND and then execute it.                   Ÿ
                                    7069                   Ÿ                                                                   Ÿ
                                    7070                   Ÿ                                                                   Ÿ
                                    7071                   Ÿ  NOTE:  This routine does not return.  Get gets the next command  Ÿ
                                    7072                   Ÿ        and calls EDTCOM to begin command execution.               Ÿ
                                    7073                   ¾þþþþþþþþþþþþþþþþþþþþþþþþþþþþþþþþþþþþþþþþþþþþþþþþþþþþþþþþþþþþþþþþþþþ»
 0000CA 50E0 D000/9008_      00000  7074              GETXCCMD PROC
 USING  *,R7
                                    7113                       ¿þþþþþþþþþþþþþþþþþþþþþþþþþþþþþþþþþþþþþþþþþþþÜ
                                    7114                       Ÿ  Move XCOMMAND from saved area to CPCMD.  Ÿ
                                    7115                       ¾þþþþþþþþþþþþþþþþþþþþþþþþþþþþþþþþþþþþþþþþþþþ»
 0000E4 5840 B8C8            008C8  7116                       L     R4,CPXCMDP
 0000E8 48F0 4000            00000  7117                       LH    R15,@R4             Command length
 0000EC 59F0 7074/47D0_      00158  7118                       CEIL  R15,L'CPCMD
 0000F8 40F0 B240            00240  7137                       STH   R15,CPCMDLEN
 0000FC 06F0/12FF/4740_             7138                       MOVE  R15,CPCMD,@R4+2     Move in command text
                                    7176                       ¿þþþþþþþþþþþþþþþþþþþþþþþþþþþþþþþþÜ
                                    7177                       Ÿ  Free the XCOMMAND save area.  Ÿ
                                    7178                       ¾þþþþþþþþþþþþþþþþþþþþþþþþþþþþþþþþ»
 000108 D703 B8C8 B8C8 008C8 008C8  7179                       CLEAR CPXCMDP             Reset XCOMMAND ptr
 00010E 1814                        7186                       LR    R1,R4
 000110 58E0 7078/0DEE       0015C  7187                       VCALL FREECORE            Free up saved XCOMMAND text
                                    7191                       ¿þþþþþþþþþþþþþþþþþþþþþþþþÜ
                                    7192                       Ÿ  Execute the command.  Ÿ
                                    7193                       ¾þþþþþþþþþþþþþþþþþþþþþþþþ»
 000116 94EF B477      00477        7194                       CLEAR CPFTYPED            Not a typed command
 00011A 4110 B242/4800_      00242  7201                       SETMSG CPCMD,LH:CPCMDLEN
 000122 58E0 707C/0DEE       00160  7214                       ACALL EDTCOM              --- EXIT --->>>
 000128 0000                        7218                       BOMB  ,                   (No return)
                                    7220
 00012A 18D8/9808 D004_             7221                       PEND
 DROP   *,R7
                                    7241
                                    7242                       QLTORG
1COMM     (COMM4072) (12:40) (15MAR04) Get command from the terminal                                                        Page   11
0Current Usings:  (CP,R11) (CV,R12)
0Loc    Object Code    Addr1 Addr2  Stmt Lv Lineno    Source Statement           (Hibal 5, Asmedit 3.3)  HLASM R4.0  2004/03/15 12.40
+___    ______ ____    _____ _____  ____ __ ______    ______ _________
0                                   7266                   ¿þþþþþþþþþþþþþþþþþþþþþþþþþþþþþþþþþþþþþþþþþþþþþþþþþþþþþþþþþþþþþþþþþþþÜ
                                    7267                   Ÿ      Get, process command from terminal.                          Ÿ
                                    7268                   Ÿ                                                                   Ÿ
                                    7269                   Ÿ                                                                   Ÿ
                                    7270                   Ÿ  NOTE:  This routine does not return.  Get gets the next command  Ÿ
                                    7271                   Ÿ        and calls EDTCOM to begin command execution.               Ÿ
                                    7272                   ¾þþþþþþþþþþþþþþþþþþþþþþþþþþþþþþþþþþþþþþþþþþþþþþþþþþþþþþþþþþþþþþþþþþþ»
 00016A 50E0 D000/9008_      00000  7273              GETTCMD  PROC
 USING  *,R7
 000184 D50F B448 721C 00448 003A0  7312                       CLC   CPWCHAR,=CL(L'CPWCHAR)'GENERAL'
 00018A 4780 7016            0019A  7313                       IF    NE,BEGIN            Need to change back to GENERAL...
 00018E D20F B448 721C 00448 003A0  7324  1                      MVC   CPWCHAR,=CL(L'CPWCHAR)'GENERAL'  Force switch back
 000194 58E0 723C/0DEE       003C0  7325  1                      VCALL BILLCHK             Update charging component
 00019A                             7329                       END
                                    7333
 00019A 9120 B474/47E0_00474        7334                       IF    CPFSEC,BEGIN        Secure mode...
 0001A2 58F0 C1C8            001C8  7349  1                      L     R15,CVCURJCB
 0001A6 9680 F062      00062        7350  1                      WITH  (JCB,R15),'SET JCBAFALO'  Set logoff pending
 USING  JCB,R15
 DROP   JCB,R15
 0001AA 58E0 7240/0DEE       003C4  7379  1                      VCALL SIGNOFF             Go terminate session
 0001B0                             7383                       END
                                    7387
 0001B0 9110 B478/47E0_00478        7388                       IF    CPGFNCMD,BEGIN      New command is already waiting...
 0001B8 94CF B478      00478        7403  1                      CLEAR CPGFNCMD+CPGFWR     Reset stuff
                                    7413  1
 0001BC 4110 B242/4800_      00242  7414  1                      SETMSG CPCMD,LH:CPCMDLEN   Saved command text
 0001C4 1200/47D0 C7DE              7427  1                      IF    (R0,NP),CVNEXT
 0001CA 1BFF                        7444  1                      CLEAR R15                 Dummy tread return code
 0001CC 47F0 70FE            00282  7448  1                      B     CMDDO
 0001D0                             7449                       END
                                    7453              *
                                    7454              *        XWTO  'GETTCMD call INITPCMD' *** slp debug ***
 0001D0 9120 C4C6/47E0_004C6        7455                       IF    CVFPUSR,'VCALL INITPCMD'  Pseudo-user is special
                                    7479              *        XWTO  'GETTCMD after INITPCMD' *** slp debug ***
                                    7480              *
 0001DE 9140 BAC8/47E0_00AC8        7481                       IF    CPVFPEND,BEGIN      Go back to page mode...
 0001E6 9680 BAC8/9680_00AC8        7496  1                      SET   CPVFPAGE,CPVFCLR
 0001EE 94BF BAC8      00AC8        7506  1                      CLEAR CPVFPEND
 0001F2                             7513                       END
                                    7517
 0001F2 9180 BAC8/47E0_00AC8        7518                       IF    CPVFPAGE,'VCALL PAGECMD'  Get next page mode cmd
                                    7542
 000200 4110 B800/4800_      00800  7543                       TSEG  CPCPRMT,LH:CPCPLEN  User's prompt text
                                    7570
 000212 9500 B148/4780_00148        7571                       IF    (CPORVCHR,NZ),'TSEG CPORVCHR'  ORVYL prompt char
 00022C 4110 72A8/4100_      0042C  7620                       SETMSG '? '
 000234 9180 B3F8/47E0_003F8        7624                       IF    CPSFUPL,'SETMSG "> "'
                                    7648
 000244 9501 B38C/4770_0038C        7649                       IF    CPSTCONS,BEGIN      No prompt if console...
 00024C 41F0 B050/58E0_      00050  7664  1                      TCLEAR
 000256 9120 B478/4710_00478        7678  1                      IF    ~CPGFWR,'TSEG "@OK",,WR'  Indicate command accepted
 000270 1B00                        7716  1                      CLEAR R0                  No prompt text
 000272                             7720                       END
1COMM     (COMM4072) (12:40) (15MAR04) Get command from the terminal                                                        Page   12
0Current Usings:  (*,R7) (CP,R11) (CV,R12)
0Loc    Object Code    Addr1 Addr2  Stmt Lv Lineno    Source Statement           (Hibal 5, Asmedit 3.3)  HLASM R4.0  2004/03/15 12.40
+___    ______ ____    _____ _____  ____ __ ______    ______ _________
0                                   7724
 000272 9610 B477      00477        7725                       SET   CPFTYPED            Typed command
 000276 94DF B478      00478        7731                       CLEAR CPGFWR
                                    7738                       ¿þþþþþþþþþþþþþþþþþþþþþþþþÜ
                                    7739                       Ÿ  Main Command Prompt.  Ÿ
                                    7740                       ¾þþþþþþþþþþþþþþþþþþþþþþþþ»
                                    7741              *        XWTO  'GETTCMD TREAD command' *** slp debug ***
 00027A 1BFF/58E0 7258_             7742                       TREAD (R1),(R0)           Get a command
                                    7762              *        XWTO  'GETTCMD TREAD done'    *** slp debug ***
                                    7763              *
 000282 5820 C1C8            001C8  7764              CMDDO    L     R2,CVCURJCB
 USING  JCB,R2                      7765                       WITH  (JCB,R2),BEGIN
 000286 94FD 2062      00062        7779  1                      CLEAR JCBFATTN            Reset attn (race condition)
 00028A 94BF 2065      00065        7786  1                      CLEAR JCBSFMIC            No longer in Micro mode
 DROP   JCB,R2                      7793                       END
                                    7801
 00028E 12FF/4770 7122_             7802                       IF    ((R15,Z),AND,(R0,Z),AND,CPGFLG3.CPFCMDFX),'LA R15,3'
                                    7848                       ¿þþþþþþþþþþþþþþþþþþþþþþþþþþþþþþþþþþþÜ
                                    7849                       Ÿ  Count number of commands typed.  Ÿ
                                    7850                       ¾þþþþþþþþþþþþþþþþþþþþþþþþþþþþþþþþþþþ»
 0002A6 12FF/4770 714C_             7851                       IF    ((R15,Z),AND,(R0,POS)),BEGIN  Command was typed...
 0002B2 90F1 D000/41D0_      00000  7878  1                      XPUSH R15,R1
 0002BA 5850 C1C8            001C8  7881  1                      L     R5,CVCURJCB
 0002BE 4120 722C            003B0  7882  1                      LA    R2,=CL16'TYPED_COMMANDS'
 0002C2 58E0 725C/0DEE       003E0  7883  1                      VCALL WCTRINCR            Count number of commands
 0002C8 4BD0 72AC/98F1_      00430  7887  1                      XPOP  R15,R1
 0002D0                             7890                       END
                                    7894                       ¿þþþþþþþþþþþþþþþþþþþþþþþþþþþþþþþþþþþþþþþþþþþþÜ
                                    7895                       Ÿ  Process special command read completion.  Ÿ
                                    7896                       ¾þþþþþþþþþþþþþþþþþþþþþþþþþþþþþþþþþþþþþþþþþþþþ»
 0002D0 12FF                        7897                       LTR   R15,R15             Tread return code
 0002D2 47B0 7158/58E0_      002DC  7898                       IF    NEG,'VCALL SIGNOFF'  Logging off
 0002DC 47D0 71D0            00354  7918                       IF    POS,BEGIN           Ended with PF...
 0002E0 59F0 7260/4770_      003E4  7929  1                      IF    (R15,EQ,1),BEGIN    Break...
 0002E8 9108 B478/4710_00478        7946  2                        IF    ~CPGFNATN,BEGIN
 0002F0 4110 72B1/4100_      00435  7961  3                          SETMSG 'COLLECT'
 0002F8 58E0 7264/0DEE       003E8  7965  3                          ACALL EDTCOMMV
 0002FE                             7969  2                        END
 0002FE                             7973  1                      END
                                    7977  1
 0002FE 59F0 7268/4770_      003EC  7978  1                      IF    (R15,EQ,2),BEGIN    ?break...
 000306 1200/4770 718E_             7995  2                        IF    (R0,Z),'VCALL ORVCABRT'  Abort any ORVYL read
 000312 47F0 C7DE            007DE  8018  2                        B     CVNEXT
 000316                             8019  1                      END
                                    8023  1
 000316 59F0 7270/4770_      003F4  8024  1                      IF    (R15,EQ,3),BEGIN    @break...
 00031E 1820                        8041  2                        LR    R2,R0
 000320 58E0 7274/0DEE       003F8  8042  2                        VCALL RTRIM
 000326 1200/4770 71AE_             8046  2                        IF    (R0,Z),'ACALL RETRY'  Retry previous command
 000332 5920 727C/47D0_      00400  8069  2                        CEIL  R2,L'CPCMD
 00033E 4020 B240            00240  8088  2                        STH   R2,CPCMDLEN
 000342 0620/1222/4740_             8089  2                        MOVE  R2,CPCMD,@R1        Save command text
 00034E 58E0 7280/0DEE       00404  8127  2                        ACALL CMDRETRY            Go do command retry
 000354                             8131  1                      END
1COMM     (COMM4072) (12:40) (15MAR04) Get command from the terminal                                                        Page   13
0Current Usings:  (*,R7) (CP,R11) (CV,R12)
0Loc    Object Code    Addr1 Addr2  Stmt Lv Lineno    Source Statement           (Hibal 5, Asmedit 3.3)  HLASM R4.0  2004/03/15 12.40
+___    ______ ____    _____ _____  ____ __ ______    ______ _________
0000354                             8135                       END
                                    8139                       ¿þþþþþþþþþþþþþþþþþþþþþþþþþþþþþþþþþÜ
                                    8140                       Ÿ  Set up command for execution.  Ÿ
                                    8141                       ¾þþþþþþþþþþþþþþþþþþþþþþþþþþþþþþþþþ»
 000354 1820                        8142                       LR    R2,R0
 000356 58E0 7274/0DEE       003F8  8143                       VCALL RTRIM
 00035C 1200/4780 C7DE              8147                       IF    (R0,Z),CVNEXT       don't update command, just scram
                                    8164
 000362 1802                        8165                       LR    R0,R2
 000364 5900 727C/47D0_      00400  8166                       IF    (R0,GT,L'CPCMD),BEGIN
 00036C D2EA B242 1000 00242 00000  8183  1                      MVC   CPCMD,@R1           Save command text
 000372 4110 7284/4100_      00408  8184  1                      TSEG  'Command truncated to &LINESZ characters.',,WR
 000384 4110 B242/4100_      00242  8202  1                      SETMSG CPCMD
 00038C                             8216                       END
 00038C 58E0 7264/0DEE       003E8  8220                       ACALL EDTCOMMV            --- EXIT --->>>
                                    8224
 000392 18D8/9808 D004_             8225                       PEND  ,              WE EXIT ABOVE,
 DROP   *,R7
                                    8245
                                    8246                       QLTORG
1COMM     (COMM4072) (12:40) (15MAR04) Command clean up                                                                     Page   14
0Current Usings:  (CP,R11) (CV,R12)
0Loc    Object Code    Addr1 Addr2  Stmt Lv Lineno    Source Statement           (Hibal 5, Asmedit 3.3)  HLASM R4.0  2004/03/15 12.40
+___    ______ ____    _____ _____  ____ __ ______    ______ _________
0                                   8285              ¿þþþþþþþþþþþþþþþþþþþþþþþþþþþþþþþþþþþþþþþþþþþþþþþþþþþþþþþþþþþþþþþþþþþþþÜ
                                    8286              Ÿ                                                                     Ÿ
                                    8287              Ÿ                                                                     Ÿ
                                    8288              Ÿ  CLEANUP - clean up after command execution                         Ÿ
                                    8289              Ÿ                                                                     Ÿ
                                    8290              Ÿ                                                                     Ÿ
                                    8291              Ÿ  NOTE: the cleanup routine has no particular logic, except          Ÿ
                                    8292              Ÿ  to do the things that are required at command termination          Ÿ
                                    8293              Ÿ  It handles normal and abnormal terminations.  It is a hodge-       Ÿ
                                    8294              Ÿ  podge of stuff, some order dependent, some not.  It not            Ÿ
                                    8295              Ÿ  a pretty sight, but there are worse routines.                      Ÿ
                                    8296              Ÿ                                                                     Ÿ
                                    8297              Ÿ                                                                     Ÿ
                                    8298              Ÿ                                                                     Ÿ
                                                      ¾þþþþþþþþþþþþþþþþþþþþþþþþþþþþþþþþþþþþþþþþþþþþþþþþþþþþþþþþþþþþþþþþþþþþþ»
0000442 50E0 D000/9008_      00000  8299              CLEANUP  PROC
 USING  *,R7
 00045C 5850 C1C8            001C8  8338                       L     R5,CVCURJCB
 USING  JCB,R5                      8339                       USING JCB,R5
                                    8348                       ¿þþþþþþþþþþþþþþþþþþþþþþþþþþþþþþþþÜ
                                    8349                       Ÿ  Free owned resources, if any  Ÿ
                                    8350                       ¾þþþþþþþþþþþþþþþþþþþþþþþþþþþþþþþþ»
 000460 9500 B8AA/4780_008AA        8351                       IF    (CPRFLG,NZ),BEGIN
 000468 9180 B8AA/47E0_008AA        8367  1                      IF    CPRFEXT,'VCALL EXTCLOSE'
 000476 9140 B8AA/47E0_008AA        8391  1                      IF    CPRFSUB,'VCALL JESOCLS'
 000484 9120 B8AA/47E0_008AA        8415  1                      IF    CPRFJES,'VCALL JESICLS'
 000492 9110 B8AA/47E0_008AA        8439  1                      IF    CPRFKWR,'VCALL KWRFREE'
 0004A0 9108 B8AA/47E0_008AA        8463  1                      IF    CPRFKEYS,'VCALL KRSCFREE'
 0004AE 9104 B8AA/47E0_008AA        8487  1                      IF    CPRFDICT,'VCALL DICTCLS'
 0004BC                             8511                       END
                                    8515
 0004BC 41F0 0001            00001  8516                       LA    R15,1               Free any temporary dsn enq's
 0004C0 58E0 7314/0DEE       00770  8517                       VCALL DENQFREE            Do any DEQ's needed
                                    8521
 0004C6 D603 BDDC BDDC_00DDC 00DDC  8522                       IF    (CPIOWAP,NZ),'VCALL DCLOSE'  Release IOWA
                                    8547                      ¿þþþþþþþþþþþþþþþþþþþþþþþþþþþþþþþþþþþþþþþþþþþþþþþþþþþþþþþþþþþþþþþþÜ
                                    8548                      Ÿ   If error, save error message                                 Ÿ
                                    8549                      Ÿ                                                                Ÿ
                                    8550                      Ÿ  (we must do this here before the seg buffer is cleared.  the  Ÿ
                                    8551                      Ÿ  error message may or may not be used, but at least it is set  Ÿ
                                    8552                      Ÿ    correctly)                                                  Ÿ
                                    8553                      ¾þþþþþþþþþþþþþþþþþþþþþþþþþþþþþþþþþþþþþþþþþþþþþþþþþþþþþþþþþþþþþþþþ»
 0004D6 9140 BD5A/4710_00D5A        8554                       IF    (CPFERROR,OR,CPFABORT),BEGIN
 0004E6 58E0 731C/0DEE       00778  8583  1                      VCALL SETEMSG
 0004EC                             8587                       END
                                    8591                       ¿þþþþþþþþþþþþþþþþþþþþþþþþþþþþþþþþþþþþþþþþþþþþþÜ
                                    8592                       Ÿ  Do miscellaneous terminal/page mode stuff  Ÿ
                                    8593                       ¾þþþþþþþþþþþþþþþþþþþþþþþþþþþþþþþþþþþþþþþþþþþþþ»
                                    8594                       COMMENT                   Miscellaneous stuff follows
                                    8595
                                    8596                       COMMENT                   If error, suppress DUMP/QUIET
 0004EC 9140 BD5A/4710_00D5A        8597                       IF    (CPFERROR,OR,CPFABORT),BEGIN
 0004FC 9180 B47B/4710_0047B        8626  1                      IF    ~CPFTRY,BEGIN       unless we have TRY
1COMM     (COMM4072) (12:40) (15MAR04) Command clean up                                                                     Page   15
0Current Usings:  (JCB,R5) (*,R7) (CP,R11) (CV,R12)
0Loc    Object Code    Addr1 Addr2  Stmt Lv Lineno    Source Statement           (Hibal 5, Asmedit 3.3)  HLASM R4.0  2004/03/15 12.40
+___    ______ ____    _____ _____  ____ __ ______    ______ _________
0000504 947F BD55      00D55        8641  2                        CLEAR CPFDUMP             Clear DUMP/QUIET flags
 000508 94BF BD55      00D55        8648  2                        CLEAR CPFQUIET
 00050C 947F B7E4      007E4        8655  2                        CLEAR CPFXDUMP
                                    8662  2           *        CLEAR CPFXQT DO NOT EXEC QUIET, UP TO EXEC TO CLEAR
 000510                             8663  1                      END
 000510                             8667                       END
                                    8671
 000510 D601 BE24 BE24_00E24 00E24  8672                       IF    (CPLENWRN,NZ),'VCALL LMSGCHK'  Write length warnings
                                    8697
 000520 D24F BAFC C4D8 00AFC 004D8  8698                       MVC   CPVMSG,CVBLANKS     Reset any page mode info msg
                                    8699
 000526 9180 BAC8/47E0_00AC8        8700                       IF    CPVFPAGE,BEGIN      Page mode...
 00052E 58E0 7324/0DEE       00780  8715  1                      VCALL PAGEMSG             Save any message text
                                    8719  1
 000534 9120 BAC8/47E0_00AC8        8720  1                      IF    CPVFSPEC,BEGIN      Write final page...
 00053C 58E0 7328/0DEE       00784  8735  2                        VCALL PAGEMOD             Display the current page
 000542 4780 70F0/58E0_      0054C  8739  2                        IF    NZ,'VCALL PAGERES'  Reset page mode
 00054C 47F0 C7DE            007DE  8759  2                        B     CVNEXT
 000550                             8760  1                      END
 000550                             8764                       END
                                    8768
 000550 1B00/41F0 B050_             8769                       TWRITE
                                    8794
 00055C 943F BD55      00D55        8795                       CLEAR CPFDUMP+CPFQUIET    Reset local flags
                                    8805
 000560 9180 BD58/47E0_00D58        8806                       IF    CPLSTOWD,BEGIN      Lines have been stowed...
 000568 9220 BD54      00D54        8821  1                      SET   (CPLFLG5.CPFNLST,EQ)
 00056C 94FE BD50      00D50        8829  1                      CLEAR CPLFLG1.CPFTODFT    Assume TO not defaulted
 000570 9180 BD57/4710_00D57        8837  1                      IF    ~CPLCOLXP,'SET CPLFLG1.CPFTODFT'
 00057C 58F0 BC68            00C68  8864  1                      L     R15,CPDMPLST        Next line
 000580 5FF0 BC6C            00C6C  8865  1                      SL    R15,CPDMPDLT        Minus delta for last
 000584 947F BD58      00D58        8866  1                      CLEAR CPLSTOWD
 000588 58E0 7334/0DEE       00790  8873  1                      VCALL LASTLINE            Do last line msg
 00058E 1B00/41F0 B050_             8877  1                      TWRITE
 00059A                             8902                       END
                                    8906                       ¿þþþþþþþþþþþþþþþþþþþþþþþþþþþþþþþþþþþþþþþþþþþþþþþþþþþþþþþþþÜ
                                    8907                       Ÿ  Free up miscelaneous buffers,  Check for auto logoff.  Ÿ
                                    8908                       ¾þþþþþþþþþþþþþþþþþþþþþþþþþþþþþþþþþþþþþþþþþþþþþþþþþþþþþþþþþ»
 00059A 58E0 7338/0DEE       00794  8909                       PFREE PAR
 0005A0 58E0 733C/0DEE       00798  8915                       PFREE PBR
 0005A6 58E0 7340/0DEE       0079C  8921                       VCALL PJNKTMP             Junk any temporary pages
 0005AC 58E0 7344/0DEE       007A0  8925                       ACALL JUNKHEAP            Release heap space
                                    8929
 0005B2 58E0 7348/0DEE       007A4  8930                       VCALL PAGEMON             Check global page buffer usage
                                    8934                       ¿þþþþþþþþþþþþþþþþþþþþþþþþþþþþþþþþþþþþþþþþþþþþþþþþþþþþþþÜ
                                    8935                       Ÿ  Check to see if it is necessary to switch charging  Ÿ
                                    8936                       Ÿ    components.                                       Ÿ
                                    8937                       ¾þþþþþþþþþþþþþþþþþþþþþþþþþþþþþþþþþþþþþþþþþþþþþþþþþþþþþþ»
 0005B8 D70F BC56 BC56 00C56 00C56  8938                       CLEAR CPLWCHAR            Reset local charging override
 0005BE 58E0 734C/0DEE       007A8  8945                       VCALL BILLCHK             Keep charging info current
                                    8949
 0005C4 58E0 7350/0DEE_      007AC  8950                       IF    ('TSTAT',NEG),'VCALL SIGNOFF'  Do auto logoff
 0005D4 94BF B474      00474        8976                       CLEAR CPFRCVY             Reset rcvy flags
1COMM     (COMM4072) (12:40) (15MAR04) Command clean up                                                                     Page   16
0Current Usings:  (JCB,R5) (*,R7) (CP,R11) (CV,R12)
0Loc    Object Code    Addr1 Addr2  Stmt Lv Lineno    Source Statement           (Hibal 5, Asmedit 3.3)  HLASM R4.0  2004/03/15 12.40
+___    ______ ____    _____ _____  ____ __ ______    ______ _________
0                                   8983                       ¿þþþþþþþþþþþþþþþþþþþþþþþþþþþþþþþþþþþþþþþþþþþþþþþþþþþþþþþþþþþþþþÜ
                                    8984                       Ÿ  Return to logon prompt if not logged on (and in cmd mode).  Ÿ
                                    8985                       ¾þþþþþþþþþþþþþþþþþþþþþþþþþþþþþþþþþþþþþþþþþþþþþþþþþþþþþþþþþþþþþþ»
 0005D8 D604 504A 504A_0004A 0004A  8986                       IF    (JCBACCT,Z),'CLEAR CPSACCT'  No account yet
                                    9014
 0005E8 D604 B3B4 B3B4_003B4 003B4  9015                       IF    ((CPSACCT,Z),AND,~CPFEXEC),'VCALL SIGNRES'
                                    9054                       AIF   (&$PCODE).SKIPSIB
 000600 9140 5063/47E0_00063        9055                       IF    JCBBFSIB,BEGIN      Get new SIB...
 000608 4100 0001/58E0_      00001  9070  1                      TCNTL CTLSNSI             Sense SIB
 000612 4780 71CE/900F_      0062A  9082  1                      FAIL  NZ,MILERR
 00062A 5900 7360/47D0_      007BC  9104  1                      CEIL  R0,L'CPSIB
 000636 18F0                        9123  1                      LR    R15,R0
 000638 06F0/12FF/4740_             9124  1                      MOVE  R15,CPSIB,@R1
 000644 94BF 5063      00063        9162  1                      CLEAR JCBBFSIB
 000648 D201 5052 B3C4 00052 003C4  9169  1                      MVC   JCBSUC,CPSUC
 00064E                             9170                       END
                                    9174              .SKIPSIB ANOP
                                    9175                       ¿þþþþþþþþþþþþþþþþþþþþþþþþþþþþþþþþþþþþþþþþþþþþþþþþþþþþþþþþÜ
                                    9176                       Ÿ  Handle ERROR/ATTN processing below.                   Ÿ
                                    9177                       Ÿ                                                        Ÿ
                                    9178                       Ÿ  Note:  ATTN/ERROR stuff must be done late (ie here),  Ÿ
                                    9179                       Ÿ         because attns are often posted late.           Ÿ
                                    9180                       ¾þþþþþþþþþþþþþþþþþþþþþþþþþþþþþþþþþþþþþþþþþþþþþþþþþþþþþþþþ»
                                    9181                       COMMENT
                                    9182                       ¿þþþþþþþþþþþþþþþþþþþþþþþþþþþþþþþþþþþþþþþþþþþþþþþþÜ
                                    9183                       Ÿ  Allow any "pending attention" to be set now.  Ÿ
                                    9184                       ¾þþþþþþþþþþþþþþþþþþþþþþþþþþþþþþþþþþþþþþþþþþþþþþþþ»
                                    9185                       COMMENT                   Allow attns, set attn if
 00064E 58E0 7364/0DEE       007C0  9186                       VCALL ALLOWATN              attn is "pending"
                                    9190                       ¿þþþþþþþþþþþþþþþþþþþþþþþþþþþþþþþþþþþþþþþþþþÜ
                                    9191                       Ÿ  If ATTN exit disabled, throw it out !!  Ÿ
                                    9192                       ¾þþþþþþþþþþþþþþþþþþþþþþþþþþþþþþþþþþþþþþþþþþ»
 000654 9102 5062/47E0_00062        9193                       IF    (JCBFATTN,AND,CPFDDATN),BEGIN  If attns disabled,
 000664 58E0 7368/0DEE       007C4  9222  1                      VCALL TRASHATN            and if attn, junk attn
 00066A                             9226                       END
-                                   9231                       ¿þþþþþþþþþþþþþþþþþþþþþþþþþþþþþþþþþþþþþþþþþþþþþþþþþþþþþþþþþþþþþþÜ
                                    9232                       Ÿ  If TRY,  1.)   Set TRY error/attn variables,                Ÿ
                                    9233                       Ÿ       2.)   Turn off Error/Attn flags,  (for no exec break)  Ÿ
                                    9234                       ¾þþþþþþþþþþþþþþþþþþþþþþþþþþþþþþþþþþþþþþþþþþþþþþþþþþþþþþþþþþþþþþ»
 00066A 9180 B47B/4710_0047B        9235                       IF    (CPFTRY,OR,CPFXXTRY),BEGIN
 00067A 58E0 736C/0DEE       007C8  9264  1                      ACALL SETTRY              Set TRY variables
 000680 94FD 5062      00062        9268  1                      CLEAR JCBFATTN            Clear attn/error flags
 000684 94BF BD5A      00D5A        9275  1                      CLEAR CPFERROR
 000688 947F BD5A      00D5A        9282  1                      CLEAR CPFABORT
 00068C 947F B47B      0047B        9289  1                      CLEAR CPFTRY              Clear TRY flags
 000690 94BF B47B      0047B        9296  1                      CLEAR CPFXXTRY
 000694                             9303                       END
1COMM     (COMM4072) (12:40) (15MAR04) Command clean up                                                                     Page   17
0Current Usings:  (JCB,R5) (*,R7) (CP,R11) (CV,R12)
0Loc    Object Code    Addr1 Addr2  Stmt Lv Lineno    Source Statement           (Hibal 5, Asmedit 3.3)  HLASM R4.0  2004/03/15 12.40
+___    ______ ____    _____ _____  ____ __ ______    ______ _________
0                                   9307                       ¿þþþþþþþþþþþþþþþþþþþþþþþþþþþþþþþþþþþþþþþþþþþþÜ
                                    9308                       Ÿ  If ATTN/ERROR, set users error variables  Ÿ
                                    9309                       ¾þþþþþþþþþþþþþþþþþþþþþþþþþþþþþþþþþþþþþþþþþþþþ»
                                    9310                       COMMENT                   If attn, set users attn vars
 000694 9102 5062/47E0_00062        9311                       IF    JCBFATTN,BEGIN
 00069C 58E0 7370/0DEE       007CC  9326  1                      VCALL SETATTN
                                    9330  1                      COMMENT                   Attn overrides any error
 0006A2 94BF BD5A      00D5A        9331  1                      CLEAR CPFERROR
 0006A6 947F BD5A      00D5A        9338  1                      CLEAR CPFABORT
 0006AA                             9345                       END
                                    9349
                                    9350                       COMMENT                   If error, set users error vars
 0006AA 9140 BD5A/4710_00D5A        9351                       IF    (CPFERROR,OR,CPFABORT),BEGIN
 0006BA 58E0 7374/0DEE       007D0  9380  1                      VCALL SETERROR
 0006C0                             9384                       END
                                    9388                       ¿þþþþþþþþþþþþþþþþþþþþþþþþþþþþþþþþþþþþþþþþþþþþþþþþþþþþþþþþþþþþþþþÜ
                                    9389                       Ÿ  If command was passed to WYLBUR from ORVYL,  return control  Ÿ
                                    9390                       Ÿ    to ORVYL.                                                  Ÿ
                                    9391                       ¾þþþþþþþþþþþþþþþþþþþþþþþþþþþþþþþþþþþþþþþþþþþþþþþþþþþþþþþþþþþþþþþ»
                                    9392              *
                                    9393              * do not move.  put after try processing but before exec abort exit.
 0006C0 9180 B47D/47E0_0047D        9394                       IF    CPFVCMD,BEGIN       If command passed from ORVYL,
 0006C8 58E0 7378/0DEE       007D4  9409  1                      VCALL ORVRETN             Return control to ORVYL
                                    9413  1                      COMMENT ,                 (routine does not return)
 0006CE                             9414                       END
                                    9418                       ¿þþþþþþþþþþþþþþþþþþþþþþþþþþþþÜ
                                    9419                       Ÿ  Abort EXEC if ERROR/ATTN  Ÿ
                                    9420                       ¾þþþþþþþþþþþþþþþþþþþþþþþþþþþþ»
                                    9421                       COMMENT                   Check for EXEC abort
 0006CE 9180 B758/47E0_00758        9422                       IF    CPFEXEC,BEGIN
 0006D6 9140 BD5A/4710_00D5A        9437  1                      IF    (CPFERROR,OR,CPFABORT,OR,JCBFATTN),BEGIN
 0006EE 58E0 737C/0DEE       007D8  9478  2                        VCALL EXECABRT            Abort EXEC
 0006F4                             9482  1                      END
 0006F4                             9486                       END
                                    9490                       ¿þþþþþþþþþþþþþþþþþþþþþþþþþþþþþþþþþþþþþþþþþþþþþþþþþþþþÜ
                                    9491                       Ÿ  Check to be sure we are still in sync with ORVYL  Ÿ
                                    9492                       ¾þþþþþþþþþþþþþþþþþþþþþþþþþþþþþþþþþþþþþþþþþþþþþþþþþþþþ»
                                    9493                       COMMENT                   If ORVYL in charge, does not
 0006F4 58E0 7380/0DEE       007DC  9494                       VCALL ORVCHK                 return
                                    9498                       ¿þþþþþþþþþþþþþþþþþþþþþþþþþþþþþþþþþÜ
                                    9499                       Ÿ  Retry Command, if appropriate  Ÿ
                                    9500                       ¾þþþþþþþþþþþþþþþþþþþþþþþþþþþþþþþþþ»
 0006FA 9140 BD5A/47E0_00D5A        9501                       IF    (CPFERROR,AND,CPGFLG3.CPFCMDFX),BEGIN  Retry...
 00070A 9102 5062/4710_00062        9531  1                      IF    ~JCBFATTN,'SET CPFRETRY'
 000716                             9557                       END
                                    9561
 000716 9120 BD5A/47E0_00D5A        9562                       IF    CPFRETRY,BEGIN      Command retry...
 00071E 1B00/41F0 B050_             9577  1                      TWRITE
 00072A 1B00/1B11                   9602  1                      CLEAR R0,R1
 00072E 58E0 7384/0DEE       007E0  9608  1                      ACALL RETRY               Do command retry (no return)
 000734                             9612                       END
                                    9616
 000734 94DF BD57      00D57        9617                       CLEAR CPFCASE             Reset any case override
                                    9624                       AIF   (&$PCODE).SKIPBR
1COMM     (COMM4072) (12:40) (15MAR04) Command clean up                                                                     Page   18
0Current Usings:  (JCB,R5) (*,R7) (CP,R11) (CV,R12)
0Loc    Object Code    Addr1 Addr2  Stmt Lv Lineno    Source Statement           (Hibal 5, Asmedit 3.3)  HLASM R4.0  2004/03/15 12.40
+___    ______ ____    _____ _____  ____ __ ______    ______ _________
0000738 58E0 B340/12EE_      00340  9625                       IF    ('LT RAR,CPCMDRTN',NZ),'CLEAR CPCMDRTN; BR RAR'
                                    9654              .SKIPBR  ANOP  ,
                                    9655
 00074A 18D8/9808 D004_             9656                       PEND
 DROP   *,R7
 DROP   JCB,R5                      9676                       DROP  R5
                                    9683
                                    9684                       QLTORG
1COMM     (COMM4072) (12:40) (15MAR04) Initialize for Command Execution.                                                    Page   19
0Current Usings:  (CP,R11) (CV,R12)
0Loc    Object Code    Addr1 Addr2  Stmt Lv Lineno    Source Statement           (Hibal 5, Asmedit 3.3)  HLASM R4.0  2004/03/15 12.40
+___    ______ ____    _____ _____  ____ __ ______    ______ _________
0                                   9732              ¿þþþþþþþþþþþþþþþþþþþþþþþþþþþþþþþþþþþþþþþþþþþþþþþþþþþþþþþþþþþþþþþþþþþþþÜ
                                    9733              Ÿ                                                                     Ÿ
                                    9734              Ÿ  INITCMD -- Routine to initialize local command work areas.         Ÿ
                                    9735              Ÿ    This includes re-initializing the stack and heap.                Ÿ
                                    9736              Ÿ                                                                     Ÿ
                                                      ¾þþþþþþþþþþþþþþþþþþþþþþþþþþþþþþþþþþþþþþþþþþþþþþþþþþþþþþþþþþþþþþþþþþþþþ»
00007EA                             9737              INITCMD  NULXPROC
                                    9740
                                    9741                       COMMENT                   POINT TO START OF STACK
                                    9742                       COMMENT                   THEN PUSH REGISTERS
 0007EA 5880 C274            00274  9743                       L     R8,CVSTACK
 0007EE 4180 8008            00008  9744                       LA    R8,@R8+8
 0007F2 18D8                        9745                       LR    R13,R8
 0007F4 50ED 0000            00000  9746                       ST    R14,0(R13)          PUT R14, R0-R8 ON STACK
 0007F8 9008 D004            00004  9747                       STM   R0,R8,4(R13)
 0007FC 41DD 0028            00028  9748                       LA    R13,40(R13)
 000800 0D70                        9749                       BASE  BR
 USING  *,R7
                                    9763              *
                                    9764              *        XWTO  'INITCMD entered'   *** slp debug ***
 000802 D7FF BC48 BC48_00C48 00C48  9765                       CLEAR CPZERO
 00081A D201 BC50 782E 00C50 01030  9775                       MVC   CPLCOL,=H'&LINESZ'  Default ending column
 000820 9180 B3F8/4710_003F8        9776                       IF    ~CPSFUPL,'SET CPFUPPER'
 00082C D203 B740 7796 00740 00F98  9802                       MVC   CPSTLNO,=F'-1'      No last stow lineno
                                    9803
 000832 4800 B3FC/1200       003FC  9804                       LTH   R0,CPSOUMX          Use maximum output length
 000838 4770 703E/4800_      00840  9808                       IF    Z,'LH R0,CPSEGBSZ'  Buffer maximum
 000840 5900 779A/47D0_      00F9C  9825                       CEIL  R0,3600             *** TEMP ***
 00084C D60D B434 B434_00434 00434  9844                       IF    (CPSIDLE,NZ),'CEIL R0,500'  *** TEMP ***
 000862 5000 B054            00054  9884                       ST    R0,CPSEGMAXF        Set maximum seg write length
                                    9885
 000866 5820 C274            00274  9886                       L     R2,CVSTACK          MARK START OF STACK
 00086A D207 2000 76F6 00000 00EF8  9887                       MVC   @R2(8),=CL8'CVSTACK:'
                                    9888
 000870 D703 B330 B330 00330 00330  9889                       CLEAR CPHEAPCR            Initialize heap (see JUNKHEAP)
                                    9896                       DROP  R15
                                    9900              *
                                                               ¿þþþþþþþþþþþþþþþþþþþþþþÜ
                                    9901                       Ÿ  Initialize SCANCB.  Ÿ
                                    9902                       ¾þþþþþþþþþþþþþþþþþþþþþþ»
 000876 4110 B090            00090  9903                       LA    R1,CPNSCAN          General purpose SCANCB
 00087A 5010 B08C            0008C  9904                       ST    R1,CPNSCANP         Save addr in CP
 00087E 58E0 B08C/D7AF_      0008C  9905                       SCCLR                     Clear control block
                                    9914                       ¿þþþþþþþþþþþþþþþþþþþþþÜ
                                    9915                       Ÿ  Initialize SEGCB.  Ÿ
                                    9916                       ¾þþþþþþþþþþþþþþþþþþþþþ»
 00088A 5810 B048/41F0_      00048  9917                       SEGINIT L:CPSEGBP,(R0),CPSEG,RTN=V(TERMSEG) Init seg buf
                                    9956
                                    9957                       COMMENT                   We do not allow TRY for
                                    9958                       COMMENT                   multiple command commands
 0008A6 947F B47B      0047B        9959                       CLEAR CPFTRY              (eg. VIEW, READ..)
                                    9966
 0008AA 18D8                        9967                       LR    R13,R8              GET R14, R0-R8 FROM STACK
1COMM     (COMM4072) (12:40) (15MAR04) Initialize for Command Execution.                                                    Page   20
0Current Usings:  (*,R7) (CP,R11) (CV,R12)
0Loc    Object Code    Addr1 Addr2  Stmt Lv Lineno    Source Statement           (Hibal 5, Asmedit 3.3)  HLASM R4.0  2004/03/15 12.40
+___    ______ ____    _____ _____  ____ __ ______    ______ _________
00008AC 9808 D004            00004  9968                       LM    R0,R8,4(R13)
 0008B0 58ED 0000            00000  9969                       L     R14,0(R13)
 0008B4 1BFF                        9970                       CLEAR R15
 0008B6 07FE                        9974                       NULPEND
                                    9977
 DROP   *,R7                        9978                       DROP  BR
1COMM     (COMM4072) (12:40) (15MAR04) Initialize for Command Execution.                                                    Page   21
0Current Usings:  (CP,R11) (CV,R12)
0Loc    Object Code    Addr1 Addr2  Stmt Lv Lineno    Source Statement           (Hibal 5, Asmedit 3.3)  HLASM R4.0  2004/03/15 12.40
+___    ______ ____    _____ _____  ____ __ ______    ______ _________
0                                   9986              ¿þþþþþþþþþþþþþþþþþþþþþþþþþþþþþþþþþþþþþþþþþþþþþþþþþþþþþþþþþþþþþþþþþþþþþÜ
                                    9987              Ÿ                                                                     Ÿ
                                    9988              Ÿ  INITSTK -- Routine to initialize the CP stack.                     Ÿ
                                    9989              Ÿ                                                                     Ÿ
                                                      ¾þþþþþþþþþþþþþþþþþþþþþþþþþþþþþþþþþþþþþþþþþþþþþþþþþþþþþþþþþþþþþþþþþþþþþ»
00008B8                             9990              INITSTK  NULXPROC
                                    9993
                                    9994                       COMMENT                   POINT TO START OF STACK
                                    9995                       COMMENT                   THEN PUSH REGISTERS
 0008B8 5880 C274            00274  9996                       L     R8,CVSTACK
 0008BC 4180 8008            00008  9997                       LA    R8,@R8+8
 0008C0 18D8                        9998                       LR    R13,R8
 0008C2 50ED 0000            00000  9999                       ST    R14,0(R13)          PUT R14, R0-R8 ON STACK
 0008C6 9008 D004            00004 10000                       STM   R0,R8,4(R13)
 0008CA 41DD 0028            00028 10001                       LA    R13,40(R13)
 0008CE 0D70                       10002                       BASE  BR
 USING  *,R7
                                   10016
 0008D0 5820 C274            00274 10017                       L     R2,CVSTACK          MARK START OF STACK
 0008D4 D207 2000 7628 00000 00EF8 10018                       MVC   @R2(8),=CL8'CVSTACK:'
                                   10019
 0008DA 18D8                       10020                       LR    R13,R8              GET R14, R0-R8 FROM STACK
 0008DC 9808 D004            00004 10021                       LM    R0,R8,4(R13)
 0008E0 58ED 0000            00000 10022                       L     R14,0(R13)
 0008E4 1BFF                       10023                       CLEAR R15
 0008E6 07FE                       10027                       NULPEND
                                   10030
 DROP   *,R7                       10031                       DROP  BR
1COMM     (COMM4072) (12:40) (15MAR04) Initialize for Command Execution.                                                    Page   22
0Current Usings:  (CP,R11) (CV,R12)
0Loc    Object Code    Addr1 Addr2  Stmt Lv Lineno    Source Statement           (Hibal 5, Asmedit 3.3)  HLASM R4.0  2004/03/15 12.40
+___    ______ ____    _____ _____  ____ __ ______    ______ _________
0                                  10039              ¿þþþþþþþþþþþþþþþþþþþþþþþþþþþþþþþþþþþþþþþþþþþþþþþþþþþþþþþþþþþþþþþþþþþþþÜ
                                   10040              Ÿ                                                                     Ÿ
                                   10041              Ÿ  GETHEAP -- Routine to allocate user memory in the heap.  Heap      Ÿ
                                   10042              Ÿ    space is usually not released until the end of the command.      Ÿ
                                   10043              Ÿ                                                                     Ÿ
                                   10044              Ÿ    On entry:                                                        Ÿ
                                   10045              Ÿ      R0 - length of memory to obtain                                Ÿ
                                   10046              Ÿ                                                                     Ÿ
                                   10047              Ÿ    On exit:                                                         Ÿ
                                   10048              Ÿ      R1,R0 - address, length of memory obtained                     Ÿ
                                   10049              Ÿ                                                                     Ÿ
                                                      ¾þþþþþþþþþþþþþþþþþþþþþþþþþþþþþþþþþþþþþþþþþþþþþþþþþþþþþþþþþþþþþþþþþþþþþ»
00008E8 50E0 D000/9008_      00000 10050              GETHEAP  XPROC
 USING  *,R7
 000902 1200/4720 701E_            10090                       FAIL  (R0,NP),HEAPERR,'GETHEAP parameter error.'
                                   10116
 000920 4A00 7730            01032 10117                       AH    R0,=H'7'            Round to...
 000924 5400 76AE            00FB0 10118                       N     R0,=F'-8'           ...nearest doubleword
                                   10119
 000928 5810 B330/1211       00330 10120                       LT    R1,CPHEAPCR
 00092E 4770 7034/5810_      00936 10124                       IF    Z,'L R1,CVHEAP'
 000936 1821                       10141                       LR    R2,R1
 000938 1A20                       10142                       AR    R2,R0               New heap ptr
 00093A 5920 C284/47D0_      00284 10143                       IF    (R2,GT,CVHEAPE),'ACALL STKOVER'  Heap overflow
 000948 5020 B330            00330 10169                       ST    R2,CPHEAPCR         Current ptr
 00094C 9001 8004            00004 10170                       PRETURN (R0,R1)
 000950 18D8/9808 D004_            10172                       PEND
 DROP   *,R7
1COMM     (COMM4072) (12:40) (15MAR04) Initialize for Command Execution.                                                    Page   23
0Current Usings:  (CP,R11) (CV,R12)
0Loc    Object Code    Addr1 Addr2  Stmt Lv Lineno    Source Statement           (Hibal 5, Asmedit 3.3)  HLASM R4.0  2004/03/15 12.40
+___    ______ ____    _____ _____  ____ __ ______    ______ _________
0                                  10193              ¿þþþþþþþþþþþþþþþþþþþþþþþþþþþþþþþþþþþþþþþþþþþþþþþþþþþþþþþþþþþþþþþþþþþþþÜ
                                   10194              Ÿ                                                                     Ÿ
                                   10195              Ÿ  MARKHEAP -- Routine to return the current heap pointer.            Ÿ
                                   10196              Ÿ                                                                     Ÿ
                                   10197              Ÿ    On exit:                                                         Ÿ
                                   10198              Ÿ      R15 - current heap ptr (can be zero)                           Ÿ
                                   10199              Ÿ                                                                     Ÿ
                                                      ¾þþþþþþþþþþþþþþþþþþþþþþþþþþþþþþþþþþþþþþþþþþþþþþþþþþþþþþþþþþþþþþþþþþþþþ»
000095E 50E0 D000/9008_      00000 10200              MARKHEAP XPROC
 USING  *,R7
 000978 58F0 B330            00330 10240                       L     R15,CPHEAPCR        Current heap ptr
 00097C 18D8/9808 D004_            10241                       PEND
 DROP   *,R7
1COMM     (COMM4072) (12:40) (15MAR04) Initialize for Command Execution.                                                    Page   24
0Current Usings:  (CP,R11) (CV,R12)
0Loc    Object Code    Addr1 Addr2  Stmt Lv Lineno    Source Statement           (Hibal 5, Asmedit 3.3)  HLASM R4.0  2004/03/15 12.40
+___    ______ ____    _____ _____  ____ __ ______    ______ _________
0                                  10262              ¿þþþþþþþþþþþþþþþþþþþþþþþþþþþþþþþþþþþþþþþþþþþþþþþþþþþþþþþþþþþþþþþþþþþþþÜ
                                   10263              Ÿ                                                                     Ÿ
                                   10264              Ÿ  RELHEAP -- Routine to release heap space.                          Ÿ
                                   10265              Ÿ                                                                     Ÿ
                                   10266              Ÿ    On entry:                                                        Ÿ
                                   10267              Ÿ      R15 - heap ptr obtained from a previous MARKHEAP               Ÿ
                                   10268              Ÿ                                                                     Ÿ
                                                      ¾þþþþþþþþþþþþþþþþþþþþþþþþþþþþþþþþþþþþþþþþþþþþþþþþþþþþþþþþþþþþþþþþþþþþþ»
000098A 50E0 D000/9008_      00000 10269              RELHEAP  XPROC
 USING  *,R7
 0009A4 50F0 B330            00330 10309                       ST    R15,CPHEAPCR        Save new heap ptr
 0009A8 18D8/9808 D004_            10310                       PEND
 DROP   *,R7
1COMM     (COMM4072) (12:40) (15MAR04) Initialize for Command Execution.                                                    Page   25
0Current Usings:  (CP,R11) (CV,R12)
0Loc    Object Code    Addr1 Addr2  Stmt Lv Lineno    Source Statement           (Hibal 5, Asmedit 3.3)  HLASM R4.0  2004/03/15 12.40
+___    ______ ____    _____ _____  ____ __ ______    ______ _________
0                                  10331              ¿þþþþþþþþþþþþþþþþþþþþþþþþþþþþþþþþþþþþþþþþþþþþþþþþþþþþþþþþþþþþþþþþþþþþþÜ
                                   10332              Ÿ                                                                     Ÿ
                                   10333              Ÿ  JUNKHEAP -- Rotine to free all the user's heap memory.             Ÿ
                                   10334              Ÿ                                                                     Ÿ
                                                      ¾þþþþþþþþþþþþþþþþþþþþþþþþþþþþþþþþþþþþþþþþþþþþþþþþþþþþþþþþþþþþþþþþþþþþþ»
00009B6 50E0 D000/9008_      00000 10335              JUNKHEAP PROC
 USING  *,R7
 0009D0 D703 B330 B330 00330 00330 10374                       CLEAR CPHEAPCR            Reset heap ptr
 0009D6 18D8/9808 D004_            10381                       PEND
 DROP   *,R7
1COMM     (COMM4072) (12:40) (15MAR04) SIB Update Routine                                                                   Page   26
0Current Usings:  (CP,R11) (CV,R12)
0Loc    Object Code    Addr1 Addr2  Stmt Lv Lineno    Source Statement           (Hibal 5, Asmedit 3.3)  HLASM R4.0  2004/03/15 12.40
+___    ______ ____    _____ _____  ____ __ ______    ______ _________
0                                  10402              ¿þþþþþþþþþþþþþþþþþþþþþþþþþþþþþþþþþþþþþþþþþþþþþþþþþþþþþþþþþþþþþþþþþþþþþÜ
                                   10403              Ÿ                                                                     Ÿ
                                   10404              Ÿ  UPDCPSIB -- Routine to update SIB in CP.                           Ÿ
                                   10405              Ÿ                                                                     Ÿ
                                   10406              Ÿ    On exit, R15 (and CC):                                           Ÿ
                                   10407              Ÿ      0 - SIB updated                                                Ÿ
                                   10408              Ÿ      4 - SIB not updated, make update again                         Ÿ
                                   10409              Ÿ                                                                     Ÿ
                                                      ¾þþþþþþþþþþþþþþþþþþþþþþþþþþþþþþþþþþþþþþþþþþþþþþþþþþþþþþþþþþþþþþþþþþþþþ»
00009E4 50E0 D000/9008_      00000 10410              UPDCPSIB XPROC
 USING  *,R7
 0009FE 1BFF                       10450                       CLEAR R15
 000A00 41F0 0001/4AF0_      00001 10454                       INCR  R15,CPSUC
 000A0C 4110 B3C4/4100_      003C4 10460                       TSEG  CPSOPT
 000A1E 4100 0002/58E0_      00002 10488                       TCNTL CTLSETI             Set SIB options
 000A28 4740 C7F6            007F6 10500                       BM    CVMILERR
 000A2C 47D0 7038/D2FD_      00A36 10501                       IF    POS,'MVC CPS,@R1'   Caller must re-update
 000A36 18D8/9808 D004_            10518                       PEND
 DROP   *,R7
                                   10538
1COMM     (COMM4072) (12:40) (15MAR04) MILTEN Interface Error Message Routine                                               Page   27
0Current Usings:  (CP,R11) (CV,R12)
0Loc    Object Code    Addr1 Addr2  Stmt Lv Lineno    Source Statement           (Hibal 5, Asmedit 3.3)  HLASM R4.0  2004/03/15 12.40
+___    ______ ____    _____ _____  ____ __ ______    ______ _________
0                                  10540              ¿þþþþþþþþþþþþþþþþþþþþþþþþþþþþþþþþþþþþþþþþþþþþþþþþþþþþþþþþþþþþþþþþþþþþþÜ
                                   10541              Ÿ                                                                     Ÿ
                                   10542              Ÿ  MILERR -- Routine to write "MILTEN INTERFACE ERROR" message.       Ÿ
                                   10543              Ÿ    (Note: See CVMILERR brancher routine.)                           Ÿ
                                   10544              Ÿ                                                                     Ÿ
                                   10545              Ÿ    On entry:                                                        Ÿ
                                   10546              Ÿ      R15 - code (to be formatted in message, if non-zero)           Ÿ
                                   10547              Ÿ                                                                     Ÿ
                                   10548              Ÿ    On exit, R15 (and CC):                                           Ÿ
                                   10549              Ÿ      0 - ok                                                         Ÿ
                                   10550              Ÿ      nz- attn on twrite                                             Ÿ
                                   10551              Ÿ                                                                     Ÿ
                                                      ¾þþþþþþþþþþþþþþþþþþþþþþþþþþþþþþþþþþþþþþþþþþþþþþþþþþþþþþþþþþþþþþþþþþþþþ»
0000A44 50E0 D000/9008_      00000 10552              MILERR   XPROC
 USING  *,R7
 000A5E 182F                       10592                       LR    R2,R15
 000A60 4110 74A2/4100_      00F00 10593                       TSEG  'MILTEN interface error.  Command aborted'
 000A72 1222/4780 7056             10611                       IF    (R2,NZ),BEGIN
 000A78 4110 75E4/4100_      01042 10625  1                      TSEG  ' (RC='
 000A8A 18F2/1B00/4110_            10643  1                      BTD   CPDOUB,0,(R2)
 000A98 41F0 B050/58E0_      00050 10663  1                      TSEG  (R1),(R0)
 000AA2 4110 75E9/4100_      01047 10687  1                      TSEG  ')'
 000AB4                            10705                       END
 000AB4 D207 B886 74CA 00886 00F28 10709                       MVC   CPERRID,=CL8'MILERR'
                                   10710
 000ABA 1B00/41F0 B050_            10711                       TWRITE
 000AC6 18D8/9808 D004_            10736                       PEND
 DROP   *,R7
1COMM     (COMM4072) (12:40) (15MAR04) MILTEN Interface Error Message Routine                                               Page   28
0Current Usings:  (CP,R11) (CV,R12)
0Loc    Object Code    Addr1 Addr2  Stmt Lv Lineno    Source Statement           (Hibal 5, Asmedit 3.3)  HLASM R4.0  2004/03/15 12.40
+___    ______ ____    _____ _____  ____ __ ______    ______ _________
0                                  10757              ¿þþþþþþþþþþþþþþþþþþþþþþþþþþþþþþþþþþþþþþþþþþþþþþþþþþþþþþþþþþþþþþþþþþþþþÜ
                                   10758              Ÿ                                                                     Ÿ
                                   10759              Ÿ  STKCHK -- Routine to check that we haven't overflowed the          Ÿ
                                   10760              Ÿ    stack.  Note that usually the stack check in the dispatcher      Ÿ
                                   10761              Ÿ    catches stack overflows.  Routines that are sensitive to         Ÿ
                                   10762              Ÿ    stack overflows will call this routine to make sure that         Ÿ
                                   10763              Ÿ    a stack overflow isn't about to happen.                          Ÿ
                                   10764              Ÿ                                                                     Ÿ
                                                      ¾þþþþþþþþþþþþþþþþþþþþþþþþþþþþþþþþþþþþþþþþþþþþþþþþþþþþþþþþþþþþþþþþþþþþþ»
0000AD4 50E0 D000/9008_      00000 10765              STKCHK   XPROC
 USING  *,R7
 000AEE 4120 D320            00320 10805                       LA    R2,@R13+800         Generous fudge factor
 000AF2 5920 C278/4750_      00278 10806                       IF    (R2,GE,CVSTACKE),BEGIN
 000AFA 58E0 74DA/0DEE       00FC8 10823  1                      ACALL INITSTK
 000B00 41F0 B050/58E0_      00050 10827  1                      TCLEAR
 000B0A D207 B886 7442_00886 00F30 10841  1                      ERROR 'Stack overflow.  Command aborted.',,STKOVFL
 000B1C                            10849                       END
 000B1C 18D8/9808 D004_            10853                       PEND
 DROP   *,R7
-                                  10874              ***
                                   10875              ***  Stack overflow recovery routine.
                                   10876              ***
 000B2A                            10877              STKOVER  NULXPROC
 000B2A 18F7                       10880                       LR    R15,BR              Save previous base reg for trace
 000B2C 0D70                       10881                       BASE
 USING  *,R7
 000B2E 900F C780/4DE0_      00780 10895                       XTRACE STKOVER            For the record
 000B42 D703 B340 B340 00340 00340 10900                       CLEAR CPCMDRTN            Nothing fancy
 000B48 58E0 749A/0DEE       00FC8 10907                       ACALL INITSTK             Initialize stack
 000B4E 41F0 B050/58E0_      00050 10911                       TCLEAR
 000B58 D207 B886 7402_00886 00F30 10925                       ERROR 'Stack overflow.  Command aborted.',,STKOVFL
 000B6A 07FE                       10933                       NULPEND
 DROP   *,R7                       10936                       DROP  BR
                                   10943                       ¿þþþþþþþþþþþþþþþþÜ
                                   10944                       Ÿ  out of pages  Ÿ
                                   10945                       ¾þþþþþþþþþþþþþþþþ»
 000B6C 50E0 D000/9008_      00000 10946              NOMORPG  XPROC
 USING  *,R7
 000B86 4110 C028/4100_      00028 10986                       TSEG  CVWYLSSN,,T
 000B98 D207 B886 73B2_00886 00F38 11014                       ERROR ' out of pages.  Command aborted.',,OUTPGS
 000BAA 18D8/9808 D004_            11022                       PEND
 DROP   *,R7
                                   11042                       ¿þþþþþþþþþþþþþþþþþþþþÜ
                                   11043                       Ÿ  No action taken.  Ÿ
                                   11044                       ¾þþþþþþþþþþþþþþþþþþþþ»
 000BB8 50E0 D000/9008_      00000 11045              NOACTION XPROC
 USING  *,R7
 000BD2 9110 B477/47E0_00477       11085                       IF    ~CPFTYPED,CVABORT
 000BDA D607 B886 B886_00886 00886 11103                       IF    (CPERRID,Z),'MVC CPERRID,=CL8"NOACTION"'
 000BEA 4110 7396/4100_      00F68 11125                       ABORT 'No action taken.'
 000BF6 18D8/9808 D004_            11132                       PEND
1COMM     (COMM4072) (12:40) (15MAR04) MILTEN Interface Error Message Routine                                               Page   29
0Current Usings:  (CP,R11) (CV,R12)
0Loc    Object Code    Addr1 Addr2  Stmt Lv Lineno    Source Statement           (Hibal 5, Asmedit 3.3)  HLASM R4.0  2004/03/15 12.40
+___    ______ ____    _____ _____  ____ __ ______    ______ _________
0DROP   *,R7
                                   11152                       ¿þþþþþþþþþþþþþþþþþþþÜ
                                   11153                       Ÿ  Invalid option.  Ÿ
                                   11154                       ¾þþþþþþþþþþþþþþþþþþþ»
 000C04 50E0 D000/9008_      00000 11155              INVALID  XPROC
 USING  *,R7
 000C1E 58E0 73B6/0DEE       00FD4 11195                       VCALL ORVCPASS            Return cmd if syntax error
 000C24 9801 BC9C            00C9C 11199                       LM    R0,R1,CPSAVE        Pick up ptrs
 000C28 1200                       11200                       LTR   R0,R0               Pos count?
 000C2A 4780 C7F0            007F0 11201                       BZ    CVABSENT            Missing
 000C2E 47B0 7016            00C34 11202                       BNM   NOWSEG              Yes
 000C32 1300                       11203                       LCR   R0,R0               Complement count
 000C34 5900 73BA/47D0_      00FD8 11204              NOWSEG   CEIL  R0,15               Use no more than 15 chars
 000C40 41F0 B050/58E0_      00050 11223                       TSEG  (R1),(R0)
 000C4A D607 B886 B886_00886 00886 11247                       IF    (CPERRID,Z),'MVC CPERRID,=CL8"INVALID"'
 000C5A 4110 7416/4100_      01034 11269                       ERROR ': invalid.'
 000C66 18D8/9808 D004_            11276                       PEND
 DROP   *,R7
                                   11296                       ¿þþþþþþþþþþþþþþþþþþþþþþþþþþÜ
                                   11297                       Ÿ  Missing item routines.  Ÿ
                                   11298                       ¾þþþþþþþþþþþþþþþþþþþþþþþþþþ»
 000C74 50E0 D000/9008_      00000 11299              ABSCENT  XPROC
 USING  *,R7
 000C8E 58E0 7346/0DEE       00FD4 11339                       VCALL ORVCPASS            Send cmd back to ORVYL if wanted
 000C94 D607 B886 B886_00886 00886 11343                       IF    (CPERRID,Z),'MVC CPERRID,=CL8"OPMISSNG"'
 000CA4 4110 72FA/4100_      00F88 11365                       ERROR 'Missing operand.'
 000CB0 18D8/9808 D004_            11372                       PEND
 DROP   *,R7
                                   11392
 000CBE 50E0 D000/9008_      00000 11393              AMMISS   XPROC
 USING  *,R7
 000CD8 4110 7391/4100_      01069 11433                       ERROR ' missing.'
 000CE4 18D8/9808 D004_            11440                       PEND
 DROP   *,R7
                                   11460
1COMM     (COMM4072) (12:40) (15MAR04) Command Retry Routine                                                                Page   30
0Current Usings:  (CP,R11) (CV,R12)
0Loc    Object Code    Addr1 Addr2  Stmt Lv Lineno    Source Statement           (Hibal 5, Asmedit 3.3)  HLASM R4.0  2004/03/15 12.40
+___    ______ ____    _____ _____  ____ __ ______    ______ _________
0                                  11462              ¿þþþþþþþþþþþþþþþþþþþþþþþþþþþþþþþþþþþþþþþþþþþþþþþþþþþþþþþþþþþþþþþþþþþþþÜ
                                   11463              Ÿ                                                                     Ÿ
                                   11464              Ÿ  RETRY -- Process @ command retry prefix.                           Ÿ
                                   11465              Ÿ                                                                     Ÿ
                                                      ¾þþþþþþþþþþþþþþþþþþþþþþþþþþþþþþþþþþþþþþþþþþþþþþþþþþþþþþþþþþþþþþþþþþþþþ»
0000CF2 50E0 D000/9008_      00000 11466              RETRY    PROC
 USING  *,R7
 000D0C 94DF BD5A      00D5A       11505                       CLEAR CPFRETRY            Avoid recursion
 000D10 58E0 72D0/0DEE       00FDC 11512                       ACALL GETHCMD             Match a previous command
 000D16 4780 7030            00D3C 11516                       IF    NZ,BEGIN            Sorry...
 000D1A 943F BD5A      00D5A       11527  1                      CLEAR CPFERROR+CPFABORT   (Reset; "ABORT" below sets again)
 000D1E 4110 72D4/4100_      00FE0 11537  1                      SETMSG 'No previous command matches.'
 000D26 D601 B86E B86E_0086E 0086E 11541  1                      IF    (CPHCMDCR,Z),'SETMSG "No previous command."'
 000D38 47F0 C7CC            007CC 11566  1                      ABORT (R1),(R0)
 000D3C                            11579                       END
                                   11583
 000D3C 4000 B240            00240 11584                       STH   R0,CPCMDLEN         Set command length
 000D40 18F0                       11585                       LR    R15,R0
 000D42 06F0/12FF/4740_            11586                       MOVE  R15,CPCMD,@R1       Move in command text
 000D4E 58E0 7304/0DEE       01010 11624                       ACALL CMDRETRY            Go do command retry
 000D54 18D8/9808 D004_            11628                       PEND
 DROP   *,R7
                                   11648
1COMM     (COMM4072) (12:40) (15MAR04) Command Retry Routine                                                                Page   31
0Current Usings:  (CP,R11) (CV,R12)
0Loc    Object Code    Addr1 Addr2  Stmt Lv Lineno    Source Statement           (Hibal 5, Asmedit 3.3)  HLASM R4.0  2004/03/15 12.40
+___    ______ ____    _____ _____  ____ __ ______    ______ _________
0                                  11650              ¿þþþþþþþþþþþþþþþþþþþþþþþþþþþþþþþþþþþþþþþþþþþþþþþþþþþþþþþþþþþþþþþþþþþþþÜ
                                   11651              Ÿ                                                                     Ÿ
                                   11652              Ÿ  CMDRETRY -- Routine to allow the user to modify the current        Ÿ
                                   11653              Ÿ    command in CPCMD so that it can be re-executed.                  Ÿ
                                   11654              Ÿ                                                                     Ÿ
                                   11655              Ÿ    In line mode MODIFY/EDIT is used, and in page mode VIEW is       Ÿ
                                   11656              Ÿ    used.                                                            Ÿ
                                   11657              Ÿ                                                                     Ÿ
                                                      ¾þþþþþþþþþþþþþþþþþþþþþþþþþþþþþþþþþþþþþþþþþþþþþþþþþþþþþþþþþþþþþþþþþþþþþ»
0000D62 50E0 D000/9008_      00000 11658              CMDRETRY XPROC
 USING  *,R7
 000D7C 1B00/41F0 B050_            11698                       TWRITE
 000D88 58E0 7298/0DEE       01014 11723                       ACALL INITCMD             Re-initialize
                                   11727
 000D8E 5860 C1C8            001C8 11728                       L     R6,CVCURJCB
 000D92 94FD 6062      00062       11729                       WITH  (JCB,R6),'CLEAR JCBFATTN'  Reset attn
 USING  JCB,R6
 DROP   JCB,R6
                                   11759
 000D96 9180 BAC8/47E0_00AC8       11760                       IF    CPVFPAGE,BEGIN      Do page mode retry...
 000D9E 9610 BAC9      00AC9       11775  1                      SET   CPVFRTRY            Do a command retry
 000DA2 58E0 729C/0DEE       01018 11781  1                      VCALL PAGEMOD             Scram
 000DA8 4770 C7DA            007DA 11785  1                      BNZ   CVABORT             Prevent another retry
 000DAC 47F0 C7DE            007DE 11786  1                      B     CVNEXT
 000DB0                            11787                       END
                                   11791
 000DB0 96A8 BC78      00C78       11792                       SET   CPFNUMXP+CPFLISXP+CPFCMDMD  Set modify flags
 000DB4 96E1 BD54      00D54       11805                       SET   CPLFLG5.CPFNLST*CPFNONUM*CPFSING  Nolist,nonum,single
                                   11818
 000DB8 9608 BC7C      00C7C       11819                       SET   CPFUFMT             Display unformatted line
 000DBC 4110 B242/4800_      00242 11825                       SETMSG CPCMD,LH:CPCMDLEN   Command
 000DC4 58E0 72A0/0DEE       0101C 11838                       VCALL LINEMOD             Go do modify for line
 000DCA 4770 C7DA            007DA 11842                       BNZ   CVABORT             Prevent another retry
 000DCE 94F7 BC7C      00C7C       11843                       CLEAR CPFUFMT             Reset flag
 000DD2 58E0 72A4/0DEE       01020 11850                       ACALL EDTCOM              Go do command retry
                                   11854
 000DD8 18D8/9808 D004_            11855                       PEND
 DROP   *,R7
1COMM     (COMM4072) (12:40) (15MAR04) Command Retry Routine                                                                Page   32
0Current Usings:  (CP,R11) (CV,R12)
0Loc    Object Code    Addr1 Addr2  Stmt Lv Lineno    Source Statement           (Hibal 5, Asmedit 3.3)  HLASM R4.0  2004/03/15 12.40
+___    ______ ____    _____ _____  ____ __ ______    ______ _________
0000000                00000 0021A 11876              GBLWA    RECORD BEGIN
 000000                            11884  1           GBLREG01   DS    2F                  Save area for R0,R1
                                   11885  1           GBLSG      SEGCB
 000008 00                         11886  1 01-SEGCB +$$$SEGCB216   DS 0F
 GBLSGCOD.GBLSGSEG 01 EQ
 GBLSGCOD.GBLSGWR  02 EQ
 GBLSGCOD.GBLSGCLR 03 EQ
 GBLSGCOD.GBLSGSPP 04 EQ
 GBLSGCOD.GBLSGOVF 05 EQ
 GBLSGCOD.GBLSGCR  06 EQ
 GBLSGCOD.GBLSGMAR 07 EQ
 000009 00                         11961  1 01-SEGCB +           DC    X'00'               Reserved
 00000A 0000                              1          +
 00000C 00000000                   11962  1 01-SEGCB +GBLSGMAXF   DC   A(0)                Maximum buffer length
 000010 00000000                   11963  1 01-SEGCB +GBLSGMRKF   DC   A(0)                Length at last mark
 000014 00000000                   11964  1 01-SEGCB +GBLSGLENF   DC   A(0)                Current length
 000018 00000000                   11965  1 01-SEGCB +GBLSGINDF   DC   A(0)                Overflow/indent count
 00001C 00000000                   11966  1 01-SEGCB +GBLSGERR   DC    A(0)                Address of error recovery routine
 000020 0000000000000000           11967  1 01-SEGCB +           DC    2F'0'               Reserved
 000028 00000000                   11968  1 01-SEGCB +GBLSGLOC   DC    A(0)                Location of buffer
 00002C 00000000                   11969  1 01-SEGCB +GBLSGRTN   DC    A(0)                Processing routine
 000030 0000000000000000           11970  1 01-SEGCB +           DC    4F'0'               Reserved
 000040 00000000                   11971  1 01-SEGCB +GBLSGUSR   DC    A(0)                USER field
                                   11972  1 01-SEGCB +GBLSG      EQU   $$$SEGCB216,*-$$$SEGCB216,C'X'
 000044                            11973  1           GBLBUF     DS    XL(L'CPCMD)         Working seg buffer
 00012F                            11974  1           GBLRES     DS    XL(L'CPCMD)         Put variable result here
 00021A                0021A 0021A 11975                       END
-                                  11985              ¿þþþþþþþþþþþþþþþþþþþþþþþþþþþþþþþþþþþþþþþþþþþþþþþþþþþþþþþþþþþþþþþþþþþþþÜ
                                   11986              Ÿ                                                                     Ÿ
                                   11987              Ÿ  GBLCMD -- Routine to execute the command in the global variable    Ÿ
                                   11988              Ÿ    passed to this routine.  In addition, the remaining SCAN         Ÿ
                                   11989              Ÿ    text is appended to the command.                                 Ÿ
                                   11990              Ÿ                                                                     Ÿ
                                   11991              Ÿ    Note:  This routine will ONLY return to the caller if the        Ÿ
                                   11992              Ÿ           variable is undefined.                                    Ÿ
                                   11993              Ÿ                                                                     Ÿ
                                   11994              Ÿ    On entry:                                                        Ÿ
                                   11995              Ÿ      R1,R0 - variable loc, len                                      Ÿ
                                   11996              Ÿ                                                                     Ÿ
                                   11997              Ÿ    On exit:                                                         Ÿ
                                   11998              Ÿ      Returns to caller only if the variable isn't defined           Ÿ
                                   11999              Ÿ                                                                     Ÿ
                                                      ¾þþþþþþþþþþþþþþþþþþþþþþþþþþþþþþþþþþþþþþþþþþþþþþþþþþþþþþþþþþþþþþþþþþþþþ»
0000DE6 50E0 D000/9008_      00000 12000              GBLCMD   XPROC GBLWA
 USING  *,R7
 USING  GBLWA-(4+36),R8
 000E00 9001 8028            00000 12051                       STM   R0,R1,GBLREG01      Save param regs
                                   12052
 000E04 4110 806C/4100_      00044 12053                       SEGINIT GBLBUF,,GBLSG
 000E16 18ED/41D0 D43C_            12080                       TPUSH
                                   12118
1COMM     (COMM4072) (12:40) (15MAR04) Command Retry Routine                                                                Page   33
0Current Usings:  (*,R7) (GBLWA-(4+36),R8) (CP,R11) (CV,R12)
0Loc    Object Code    Addr1 Addr2  Stmt Lv Lineno    Source Statement           (Hibal 5, Asmedit 3.3)  HLASM R4.0  2004/03/15 12.40
+___    ______ ____    _____ _____  ____ __ ______    ______ _________
0000E4A 9801 8028            00000 12119                       LM    R0,R1,GBLREG01      Variable len, len
 000E4E 4120 8157            0012F 12120                       LA    R2,GBLRES
 000E52 4130 00EB            000EB 12121                       LA    R3,L'GBLRES
 000E56 58E0 7224/0DEE       01024 12122                       VCALL EVALSTR             Get contents of var in (R1),(R0)
 000E5C 4720 70DA            00EDA 12126                       IF    NP,BEGIN            Variable is defined...
 000E60 1233/47D0 70DA             12137  1                      IF    (R3,NP),EXIT        Null string is the same as undef
                                   12154  1                      ¿þþþþþþþþþþþþþþþþþþþþþþþþþþþþþþþþþþþþþþþþþþþþþþþþþþþþþþþþþþÜ
                                   12155  1                      Ÿ  Build the command text, appending remaining scan text.  Ÿ
                                   12156  1                      ¾þþþþþþþþþþþþþþþþþþþþþþþþþþþþþþþþþþþþþþþþþþþþþþþþþþþþþþþþþþ»
 000E66 9180 B47B/47E0_0047B       12157  1                      IF    CPFTRY,'SEG "TRY "'  Preserve TRY prefix
 000E80 1812/1803/41F0_            12194  1                      SEGT  (R2),(R3)           Command text (value of variable)
 000E8E 58E0 B08C/581E_      0008C 12220  1                      SCINFO
 000E9C 1200/47D0 70AC             12229  1                      IF    (R0,POS),BEGIN      Add in any remaining text...
 000EA2 41F0 8030/58E0_      00008 12243  2                        SEG   (R1),(R0)
 000EAC                            12266  1                      END
                                   12270  1
 000EAC 4BD0 7240/D23B_      01040 12271  1                      TPOP  JUNK
                                   12276  1
 000EB6 58F0 803C            00014 12277  1                      L     R15,GBLSGLENF
 000EBA 40F0 B240            00240 12278  1                      STH   R15,CPCMDLEN        Save command length
 000EBE 06F0/12FF/4740_            12279  1                      MOVE  R15,CPCMD,GBLBUF    Move in command text
 000ECA 4110 B242/4800_      00242 12317  1                      SETMSG CPCMD,LH:CPCMDLEN   Command text
 000ED2 58E0 722C/0DEE       0102C 12330  1                      ACALL EDTCOMNH            Go execute command
 000ED8 0000                       12334  1                      BOMB  ,                   (No return)
 000EDA                            12336                       END
                                   12340
 000EDA 4BD0 7240/D23B_      01040 12341                       TPOP  JUNK
 000EE4 41F0 0004            00004 12346                       LA    R15,4               Variable not defined
 000EE8 18D8/9808 D004_            12347                       PEND
 DROP   GBLWA-(4+36),R8
 DROP   *,R7
                                   12372
                                   12373                       QLTORG
1COMM     (COMM4072) (12:40) (15MAR04) New Command Setup and Scan                                                           Page   34
0Current Usings:  (CP,R11) (CV,R12)
0Loc    Object Code    Addr1 Addr2  Stmt Lv Lineno    Source Statement           (Hibal 5, Asmedit 3.3)  HLASM R4.0  2004/03/15 12.40
+___    ______ ____    _____ _____  ____ __ ______    ______ _________
0                                  12434              ¿þþþþþþþþþþþþþþþþþþþþþþþþþþþþþþþþþþþþþþþþþþþþþþþþþþþþþþþþþþþþþþþþþþþþþÜ
                                   12435              Ÿ                                                                     Ÿ
                                   12436              Ÿ  On entry:                                                          Ÿ
                                   12437              Ÿ    R1,R0 - command location length                                  Ÿ
                                   12438              Ÿ                                                                     Ÿ
                                   12439              Ÿ  All commands must be at CPCMD at start of command scan.  The       Ÿ
                                   12440              Ÿ  Length of the command is in CPCMDLEN.  If CPFTYPED is on,          Ÿ
                                   12441              Ÿ  then the command has already been typed or logged at the           Ÿ
                                   12442              Ÿ  terminal.  This flag affects whether or not the command is         Ÿ
                                   12443              Ÿ  saved in the history list and also the error logging.              Ÿ
                                   12444              Ÿ                                                                     Ÿ
                                                      ¾þþþþþþþþþþþþþþþþþþþþþþþþþþþþþþþþþþþþþþþþþþþþþþþþþþþþþþþþþþþþþþþþþþþþþ»
000107E 50E0 D000/9008_      00000 12445              EDTCOMNH XPROC
 USING  *,R7
 001098 1851                       12485                       LR    R5,R1               Save command ptrs
 00109A 1840                       12486                       LR    R4,R0
 00109C 4130 0001            00001 12487                       LA    R3,1                Flag: don't save in hist list
 0010A0 58E0 7380/0DEE       01418 12488                       ACALL EDTBASE
 0010A6 18D8/9808 D004_            12492                       PEND
 DROP   *,R7
                                   12512
 0010B4 50E0 D000/9008_      00000 12513              EDTCOMMV XPROC
 USING  *,R7
 0010CE 1820                       12553                       LR    R2,R0
 0010D0 1222/47D0 700E_            12554                       TDEX  R2,'MVC CPCMD(0),@R1'  Move in command
 0010DC 4110 B242            00242 12592                       LA    R1,CPCMD            Point to command
 0010E0 1851                       12593                       LR    R5,R1               Save command ptrs
 0010E2 1840                       12594                       LR    R4,R0
 0010E4 1B33                       12595                       CLEAR R3                  Flag: ok to save in hist list
 0010E6 58E0 734A/0DEE       01418 12599                       ACALL EDTBASE
 0010EC 18D8/9808 D004_            12603                       PEND
 DROP   *,R7
                                   12623
 0010FA 50E0 D000/9008_      00000 12624              EDTCOM   XPROC
 USING  *,R7
 001114 1851                       12664                       LR    R5,R1               Save command ptrs
 001116 1840                       12665                       LR    R4,R0
 001118 1B33                       12666                       CLEAR R3                  Flag: ok to save in hist list
 00111A 58E0 7304/0DEE       01418 12670                       ACALL EDTBASE
 001120 18D8/9808 D004_            12674                       PEND
 DROP   *,R7
                                   12694
 00112E 50E0 D000/9008_      00000 12695              EDTBASE  PROC
 USING  *,R7
                                   12734
 001148 58E0 72D4/0DEE       0141C 12735                       PFREE PAR                 Free if necessary
 00114E 58E0 72D8/0DEE       01420 12741                       PFREE PBR                 Free if necessary
 001154 58E0 72DC/0DEE       01424 12747                       VCALL PJNKTMP             Junk any temporary pages
                                   12751              *
                                   12752              *        XWTO  'EDTBASE entered' *** slp debug ***
 00115A 41F0 0001/5EF0_      00001 12753                       INCR  R15,CPNCOM          Count total no. of commands
 001166 41F0 0001/5EF0_      00001 12759                       INCR  R15,CVNCOM          Ditto for grand total
 001172 9180 B758/47E0_00758       12765                       IF    CPFEXEC,BEGIN       Exec mode...
1COMM     (COMM4072) (12:40) (15MAR04) New Command Setup and Scan                                                           Page   35
0Current Usings:  (*,R7) (CP,R11) (CV,R12)
0Loc    Object Code    Addr1 Addr2  Stmt Lv Lineno    Source Statement           (Hibal 5, Asmedit 3.3)  HLASM R4.0  2004/03/15 12.40
+___    ______ ____    _____ _____  ____ __ ______    ______ _________
000117A 41F0 0001/5EF0_      00001 12780  1                      INCR  R15,CPNCOME         Count commands in exec mode
 001186 41F0 0001/5EF0_      00001 12786  1                      INCR  R15,CVNCOME         Ditto for grand total
 001192                            12792                       END
                                   12796
 001192 58E0 72E0/0DEE       01428 12797                       ACALL INITCMD             Re-initialize
 001198 4040 B240            00240 12801                       STH   R4,CPCMDLEN         Save command count
                                   12802              *        XWTO  'EDTBASE after INITCMD' *** slp debug ***
                                   12803              *
 00119C 9110 B477/47E0_00477       12804                       IF    CPFTYPED,BEGIN      Typed command...
 0011A4 1233/4770 706C             12819  1                      IF    (R3,NZ),EXIT        Caller said don't save cmd
 0011AA 1815/1804                  12836  1                      SETMSG (R5),(R4)           Command text
 0011AE 58E0 72E4/0DEE       0142C 12848  1                      ACALL ADDHCMD             Save command text
 0011B4                            12852                       END
                                   12856
                                   12857                       COMMENT                   SET EXEC TYPE FLAGS
 0011B4 9200 B759      00759       12858                       CLEAR CPFXOLD             DEFAULT IS OFF, (NOT IN EXEC)
 0011B8 9200 B759      00759       12865                       CLEAR CPFXTEND
 0011BC 9180 B758/47E0_00758       12872                       IF    CPFEXEC,BEGIN
 0011C4 D503 72E8 B778_01430 00778 12887  1                      IF    (CP#XSET,EQ,=A(CP#XOLD)),BEGIN
 0011CE 9202 B759      00759       12904  2                        SET   CPFXOLD             OLD EXEC  (EXEC'D)
 0011D2                            12910  1                      END
 0011D2 708E/47F0 7092 011D2 011CC 12914  1                      ELSE  BEGIN
 0011D6 9201 B759      00759       12925  2                        SET   CPFXTEND            EXTENDED EXEC  (XCALLED)
 0011DA                            12931  1                      END
 0011DA                            12935                       END
                                   12939
 0011DA D207 B88E B886 0088E 00886 12940                       MVC   CPOERRID,CPERRID    Save prev error id
 0011E0 D707 B886 B886 00886 00886 12941                       CLEAR CPERRID             Init current error id
                                   12948              *
                                   12949              *
                                   12950                       COMMENT                   If ON ATTN exit is disabled, or if
                                   12951                       COMMENT                   ON ATTN NOINTERRUPT, do not allow
                                   12952                       COMMENT                   attentions to stop commands.
 0011E6 58F0 C1C8            001C8 12953                       L     R15,CVCURJCB
 USING  JCB,R15                    12954                       WITH  (JCB,R15),BEGIN
                                   12968  1         C            IF    ((CPFDDATN,OR,(CPFONATN,AND,~CPFINATN)),AND,
 0011EA 9140 B47A/4710_0047A              1                            CPFEXEC),BEGIN
 00120A 58E0 72EC/0DEE       01434 13025  2                        VCALL HOLDATN             Don't allow ATTN's to stop cmds
 001210                            13029  1                      END
 001210 70CC/70CC/70CC_01210 011F8 13033  1                      ELSE  BEGIN
 001214 58E0 72F0/0DEE       01438 13048  2                        VCALL ALLOWATN
 00121A                            13052  1                      END
 DROP   JCB,R15                    13056                       END
                                   13064                       ¿þþþþþþþþþþþþþþþþþþþþþþþþþþþþÜ
                                   13065                       Ÿ  Pre-process the command.  Ÿ
                                   13066                       ¾þþþþþþþþþþþþþþþþþþþþþþþþþþþþ»
 00121A 1815/1804                  13067                       SETMSG (R5),(R4)           Command
 00121E 9500 B8BA/4780_008BA       13079                       IF    (CPESCAPE,NZ),BEGIN  No esc char, no pre-processing
 001226 9180 B477/4710_00477       13095  1                      IF    ~CPGFLG4.CPFNPREP,BEGIN  Preprocess this cmd...
 00122E 58E0 72F4/0DEE       0143C 13111  2                        VCALL PREPROC  ,          Preprocess the command
 001234 4000 B240            00240 13115  2                        STH   R0,CPCMDLEN         Update the length
 001238                            13116  1                      END
 001238                            13120                       END
 001238 947F B477      00477       13124                       CLEAR CPGFLG4.CPFNPREP    Reset flag
1COMM     (COMM4072) (12:40) (15MAR04) New Command Setup and Scan                                                           Page   36
0Current Usings:  (*,R7) (CP,R11) (CV,R12)
0Loc    Object Code    Addr1 Addr2  Stmt Lv Lineno    Source Statement           (Hibal 5, Asmedit 3.3)  HLASM R4.0  2004/03/15 12.40
+___    ______ ____    _____ _____  ____ __ ______    ______ _________
0                                  13132                       ¿þþþþþþþþþþþþþþþþþþþþþþþþþþþþþþþþþþþþþþþþþþþþþþþþþþþþþþþþþþþÜ
                                   13133                       Ÿ  Check for %-style network command.                       Ÿ
                                   13134                       Ÿ    We must do this before the scanner is ever called on   Ÿ
                                   13135                       Ÿ    the command line to preserve the upper and lower case  Ÿ
                                   13136                       Ÿ    of the first token (damn scanner).                     Ÿ
                                   13137                       ¾þþþþþþþþþþþþþþþþþþþþþþþþþþþþþþþþþþþþþþþþþþþþþþþþþþþþþþþþþþþ»
 00123C 9540 B242/4780_00242       13138                       IF    ((CPCMD,EQ,' '),OR,(CPCMD,EQ,'%')),BEGIN  Possibly...
 00124C 4110 B242/4800_      00242 13171  1                      SETMSG CPCMD,LH:CPCMDLEN   Command text
 001254 1200/47D0 7124_            13184  1                      WHILE ((R0,POS),AND,(@R1,EQ,' ')),'LA R1,@R1+1; DECR R0'
 00126C 1200/47D0 7138             13224  1                      IF    (R0,NP),EXIT        Nothing, forget it
 001272 956C 1000/4770_00000       13241  1                      IF    (@R1,EQ,'%'),'ACALL NETCMD'  Do % command
 001280                            13266                       END
                                   13270                       ¿þþþþþþþþþþþþþþþþþþþþþþþþþþþþþþþþþþþþþþþþþþÜ
                                   13271                       Ÿ  Set up new scancb and do initial scan.  Ÿ
                                   13272                       ¾þþþþþþþþþþþþþþþþþþþþþþþþþþþþþþþþþþþþþþþþþþ»
 001280 4110 B090            00090 13273                       LA    R1,CPNSCAN          General purpose SCANCB
 001284 5010 B08C            0008C 13274                       ST    R1,CPNSCANP         Save addr in CP
 001288 58E0 B08C/D7AF_      0008C 13275                       SCCLR                     Clear control block
                                   13284                       ¿þþþþþþþþþþþþþþþþþþþþþþþþþþþþþþþþþþþÜ
                                   13285                       Ÿ  Scan for assignment statements.  Ÿ
                                   13286                       ¾þþþþþþþþþþþþþþþþþþþþþþþþþþþþþþþþþþþ»
                                   13287                       COMMENT                   Scan for assignment statments
 001294 4110 B242/4800_      00242 13288                       SCINIT CPCMD,LH:CPCMDLEN
 0012AA 58E0 72FC/0DEE       01444 13311                       VCALL XCMDSCAN            Pre-scan for exec cmds (eg. x=1 )
                                   13315                       COMMENT                   If assignment, does not return
                                   13316
                                   13317                       COMMENT ,                 Don't do defines if extended
                                   13318                       COMMENT ,                   exec,,,
 0012B0 9102 B477/4710_00477       13319                       IF    (CPFNDEF,OR,CPFXTEND),BEGIN
 0012C0                            13348                       END   ,
 0012C0 717C/47F0 71BC 012C0 012BE 13352                       ELSE  BEGIN               Otherwise, we do them
 0012C4 58E0 7300/0DEE       01448 13363  1                      ACALL DEFCMD
 0012CA 4770 71A2            012EA 13367  1                      IF    Z,BEGIN             Command substituted...
 0012CE 4110 B242/4800_      00242 13378  2                        SCINIT CPCMD,LH:CPCMDLEN  (allow x=1 to be defined command)
 0012E4 58E0 72FC/0DEE       01444 13401  2                        VCALL XCMDSCAN            Pre-scan for exec cmds (ie. x=1 )
                                   13405  2                        COMMENT                   If assignment, does not return)
 0012EA                            13406  1                      END
 0012EA 71A6/47F0 71BC_012EA 012CC 13410  1                      ELSE  'SCINIT CPCMD,LH:CPCMDLEN'
 001304                            13449                       END
 001304 94FD B477      00477       13453                       CLEAR CPFNDEF             One shot no defines flag
                                   13460                       ¿þþþþþþþþþþþþþþþþþþþþþþþþþþþþþþþþþþþþþþþþþþþþþþþþþþþþþþþþÜ
                                   13461                       Ÿ  The following is for dual-scanner compatibility only  Ÿ
                                   13462                       ¾þþþþþþþþþþþþþþþþþþþþþþþþþþþþþþþþþþþþþþþþþþþþþþþþþþþþþþþþ»
 001308 58E0 B08C/D2AF_      0008C 13463                       SCPUSH ,
 001316 5810 B08C/1B00_      0008C 13469                       SCAN ,
 001364 58E0 B08C/581E_      0008C 13500                       SCINFO ,
 001372 58E0 7308/0DEE       01450 13509                       OSCINIT (R1),(R0)         OLD SCANNER COMPATIBILTY
 001378 58E0 B08C/4BD0_      0008C 13525                       SCPOP ,
                                   13531              *
1COMM     (COMM4072) (12:40) (15MAR04) New Command Setup and Scan                                                           Page   37
0Current Usings:  (*,R7) (CP,R11) (CV,R12)
0Loc    Object Code    Addr1 Addr2  Stmt Lv Lineno    Source Statement           (Hibal 5, Asmedit 3.3)  HLASM R4.0  2004/03/15 12.40
+___    ______ ____    _____ _____  ____ __ ______    ______ _________
0                                  13532                       ¿þþþþþþþþþþþþþþþþþþþþÜ
                                   13533                       Ÿ  Scan the command  Ÿ
                                   13534                       ¾þþþþþþþþþþþþþþþþþþþþ»
                                   13535              *        XWTO  'About to scan command' *** slp debug ***
                                   13536              *        XWTO   CPCMD,LH:CPCMDLEN  *** slp debug ***
 001386 58E0 B08C/D7AF_      0008C 13537                       SCCLR                     Clear control block
 001392 4110 B242/4800_      00242 13546                       SCINIT CPCMD,LH:CPCMDLEN  Init for scan
 0013A8 5810 B08C/1B00_      0008C 13569                       SCAN  PRT                 Scan
 0013FA 58E0 7310/0DEE       01458 13601                       SCANCHK                   Scan error, exit
                                   13606              *        XWTO  'Command not recognized' *** slp debug ***
 001400 47F0 C7DE            007DE 13607                       B     CVNEXT              Nothing, go get next
 001404 18D8/9808 D004_            13608                       PEND
 DROP   *,R7
                                   13628
                                   13629                       QLTORG
1COMM     (COMM4072) (12:40) (15MAR04) New Command Setup and Scan                                                           Page   38
0Current Usings:  (CP,R11) (CV,R12)
0Loc    Object Code    Addr1 Addr2  Stmt Lv Lineno    Source Statement           (Hibal 5, Asmedit 3.3)  HLASM R4.0  2004/03/15 12.40
+___    ______ ____    _____ _____  ____ __ ______    ______ _________
0                                  13661              ¿þþþþþþþþþþþþþþþþþþþþþþþþþþþþþþþþþþþþþþþþþþþþþþþþþþþþþþþþþþþþþþþþþþþþþÜ
                                   13662              Ÿ                                                                     Ÿ
                                   13663              Ÿ  CMDFIN -- Routine to do the final processing of unrecognized       Ÿ
                                   13664              Ÿ    commands.                                                        Ÿ
                                   13665              Ÿ                                                                     Ÿ
                                                      ¾þþþþþþþþþþþþþþþþþþþþþþþþþþþþþþþþþþþþþþþþþþþþþþþþþþþþþþþþþþþþþþþþþþþþþ»
0000000                00000 00014 13666              CFINWA   RECORD BEGIN
 000000                            13674  1           CFINPFX    DS    CL4                 Variable prefix (e.g., "SES.")
 000004                            13675  1           CFINVAR    DS    CL16                Variable name
 000014                00014 00014 13676                       END
                                   13685              þþþþ
 001466 50E0 D000/9008_      00000 13686              CMDFIN   XPROC CFINWA
 USING  *,R7
 USING  CFINWA-(4+36),R8
 001480 4160 8028            00000 13737                       LA    R6,CFINWA
 USING  CFINWA,R6                  13738                       USING CFINWA,R6
                                   13747                       ¿þþþþþþþþþþþþþþþþþþþþþþþþþþþþþþþþþþþþþþþþþþþþþþþþþÜ
                                   13748                       Ÿ  Command beginning with @ means command retry.  Ÿ
                                   13749                       ¾þþþþþþþþþþþþþþþþþþþþþþþþþþþþþþþþþþþþþþþþþþþþþþþþþ»
 001484 957C 1000/4770_00000       13750                       IF    (@R1,EQ,'@'),BEGIN  @-type retry prefix...
 00148C 4120 1001            00001 13766  1                      LA    R2,@R1+1            Start of text we want
 001490 58E0 B08C/58FE_      0008C 13767  1                      SCBKUP
 0014C6 58E0 B08C/581E_      0008C 13823  1                      SCINFO
 0014D4 1B21                       13832  1                      SR    R2,R1
 0014D6 1A12                       13833  1                      AR    R1,R2               R1 = text after "@"
 0014D8 1B02                       13834  1                      SR    R0,R2               R0 = remaining command length
                                   13835  1
 0014DA 9001 D000/41D0_      00000 13836  1                      XPUSH R0,R1
 0014E2 5810 B874/1211       00874 13839  1                      LT    R1,CPHCMDQT         Last command is @ command
 0014E8 4780 707C            014FC 13843  1                      IF    NZ,BEGIN
 0014EC 58E0 7C20/0DEE       020A0 13854  2                        ACALL FREEHCMD            Delete last command
 0014F2 48F0 B86A/06F0_      0086A 13858  2                        DECR  R15,CPHCMDNO        Keep command numbering accurate
 0014FC                            13863  1                      END
 0014FC 4BD0 7C84/9801_      02104 13867  1                      XPOP  R0,R1
                                   13870  1
 001504 58E0 7C24/0DEE       020A4 13871  1                      ACALL RETRY               Go do command retry
 00150A                            13875                       END
                                   13879
                                   13880                       COMMENT    BOUNCE USER HERE,  IF NOT LOGGED ON ,,,
 00150A D604 B3B4 B3B4_003B4 003B4 13881                       IF    (CPSACCT,Z),'VCALL NOTVALID'
                                   13906                       ¿þþþþþþþþþþþþþþþþþþþþþþþþþþþþþþþþþþþþþþþþþþþþþÜ
                                   13907                       Ÿ  Pass any command beginning with $ to JES.  Ÿ
                                   13908                       ¾þþþþþþþþþþþþþþþþþþþþþþþþþþþþþþþþþþþþþþþþþþþþþ»
 00151A 955B 1000/4770_00000       13909                       IF    (@R1,EQ,'$'),BEGIN  $-type unscanned jes command
 001522 1821                       13925  1                      LR    R2,R1               Start of text we want
 001524 58E0 B08C/58FE_      0008C 13926  1                      SCBKUP
 00155A 58E0 B08C/581E_      0008C 13982  1                      SCINFO
 001568 1B21                       13991  1                      SR    R2,R1
 00156A 1A12                       13992  1                      AR    R1,R2               R1 = text starting at "$"
 00156C 1B02                       13993  1                      SR    R0,R2               R0 = remaining command length
                                   13994  1
 00156E 1BFF                       13995  1                      CLEAR R15                 Flag to indicate no scanning
 001570 58E0 7C2C/0DEE       020AC 13999  1                      VCALL JESSND              Do jes command
1COMM     (COMM4072) (12:40) (15MAR04) New Command Setup and Scan                                                           Page   39
0Current Usings:  (CFINWA,R6) (*,R7) (CFINWA-(4+36),R8) (CP,R11) (CV,R12)
0Loc    Object Code    Addr1 Addr2  Stmt Lv Lineno    Source Statement           (Hibal 5, Asmedit 3.3)  HLASM R4.0  2004/03/15 12.40
+___    ______ ____    _____ _____  ____ __ ______    ______ _________
0001576                            14003                       END
                                   14007                       ¿þþþþþþþþþþþþþþþþþþþþþþþþþþþþþþþþþþþþþþþþþþþþþþþþþþþþþþþþþþþþþÜ
                                   14008                       Ÿ  Check the following variables to see if the command is     Ÿ
                                   14009                       Ÿ    defined:                                                 Ÿ
                                   14010                       Ÿ                                                             Ÿ
                                   14011                       Ÿ    1.  "SYSCMD_cmdname"                                     Ÿ
                                   14012                       Ÿ    2.  "X.SYSCMD_cmdname"                                   Ÿ
                                   14013                       Ÿ    3.  "SES.SYSCMD_cmdname"                                 Ÿ
                                   14014                       Ÿ    4.  "PUB.SYSCMD_cmdname"                                 Ÿ
                                   14015                       Ÿ                                                             Ÿ
                                   14016                       Ÿ  If the command is an unrecognized SHOW command then the    Ÿ
                                   14017                       Ÿ  prefix is SYSSHO_, similarly SET commands are SYSSET_ and  Ÿ
                                   14018                       Ÿ  CLEAR commands are SYSCLR_.                                Ÿ
                                   14019                       ¾þþþþþþþþþþþþþþþþþþþþþþþþþþþþþþþþþþþþþþþþþþþþþþþþþþþþþþþþþþþþþ»
 001576 D203 6000 C4D8 00000 004D8 14020                       MVC   CFINPFX,CVBLANKS
 00157C D20F 6004 7BE8 00004 02068 14021                       MVC   CFINVAR,=CL(L'CFINVAR)'SYSCMD_'
                                   14022
 001582 4110 B242/4800_      00242 14023                       SCINIT CPCMD,LH:CPCMDLEN
 001598 5810 B08C/1B00_      0008C 14046                       SCAN  CDEFPRT             Pick out command verb
 0015EA 58E0 7C38/0DEE       020B8 14078                       SCANCHK
 0015F0 1BFF                       14083                       CLEAR R15
 0015F2 5810 B08C/1B00_      0008C 14087                       SCAN  ,
 001640 58E0 7C38/0DEE       020B8 14118                       SCANCHK
 001646 5810 B08C/4111_      0008C 14123                       SCUPTOK R1
                                   14127
 00164E 1200/47D0 7240             14128                       IF    (R0,POS),BEGIN      Check for user definitions...
 001654 5900 7C3C/4720_      020BC 14142  1                      IF    (R0,GT,9),EXIT      Too long, forget it
                                   14162  1
 00165C 18F0                       14163  1                      LR    R15,R0
 00165E 59F0 7C3C/47D0_      020BC 14164  1                      CEIL  R15,9
 00166A 06F0/12FF/4740_            14183  1                      MOVE  R15,CFINVAR+7,@R1   Build variable name
                                   14221  1                   ¿þþþþþþþþþþþþþþþþþþþþþþþþþþþþþþþþþþþþþþþþþþþþþþþþþþþþþþþþþþþþþþþþþþÜ
                                   14222  1                   Ÿ  If the variable is defined, then get it's contents and execute  Ÿ
                                   14223  1                   Ÿ       that as the command.                                       Ÿ
                                   14224  1                   ¾þþþþþþþþþþþþþþþþþþþþþþþþþþþþþþþþþþþþþþþþþþþþþþþþþþþþþþþþþþþþþþþþþþ»
                                   14225  1                      COMMENT                   Check for "SYSCMD_cmdname"
 001676 4110 6000/4100_      00000 14226  1                      SETMSG CFINPFX,L'CFINPFX+L'CFINVAR
 00167E 58E0 7C40/0DEE       020C0 14242  1                      ACALL GBLCMD              Check for "SYSCMD_cmdname"
                                   14246  1                      COMMENT                   Does not return if cmd defined
                                   14247  1                      COMMENT
                                   14248  1                      COMMENT                   Check for "X.SYSCMD_cmdname"
 001684 D203 6000 7C44 00000 020C4 14249  1                      MVC   CFINPFX,=C'  X.'
 00168A 4110 6000/4100_      00000 14250  1                      SETMSG CFINPFX,L'CFINPFX+L'CFINVAR
 001692 58E0 7C40/0DEE       020C0 14266  1                      ACALL GBLCMD              Check for "X.SYSCMD_cmdname"
                                   14270  1                      COMMENT                   Does not return if cmd defined
                                   14271  1                      COMMENT
                                   14272  1                      COMMENT                   Check for "SES.SYSCMD_cmdname"
 001698 D203 6000 7C48 00000 020C8 14273  1                      MVC   CFINPFX,=C'SES.'    Session variable
 00169E 4110 6000/4100_      00000 14274  1                      SETMSG CFINPFX,L'CFINPFX+L'CFINVAR
 0016A6 58E0 7C40/0DEE       020C0 14290  1                      ACALL GBLCMD              Check for "SES.SYSCMD_cmdname"
                                   14294  1                      COMMENT                   Does not return if cmd defined
                                   14295  1                      COMMENT
                                   14296  1                      COMMENT                   Check for "PUB.SYSCMD_cmdname"
 0016AC D203 6000 7C4C 00000 020CC 14297  1                      MVC   CFINPFX,=C'PUB.'    Public variable
1COMM     (COMM4072) (12:40) (15MAR04) New Command Setup and Scan                                                           Page   40
0Current Usings:  (CFINWA,R6) (*,R7) (CFINWA-(4+36),R8) (CP,R11) (CV,R12)
0Loc    Object Code    Addr1 Addr2  Stmt Lv Lineno    Source Statement           (Hibal 5, Asmedit 3.3)  HLASM R4.0  2004/03/15 12.40
+___    ______ ____    _____ _____  ____ __ ______    ______ _________
00016B2 4110 6000/4100_      00000 14298  1                      SETMSG CFINPFX,L'CFINPFX+L'CFINVAR
 0016BA 58E0 7C40/0DEE       020C0 14314  1                      ACALL GBLCMD              Check for "PUB.SYSCMD_cmdname"
                                   14318  1                      COMMENT                   Does not return if cmd defined
 0016C0                            14319                       END
                                   14323              *
                                   14324              *  OLD SUGGEST/ADMIN JUNK
                                   14325              *
 0016C0 4110 B242/4800_      00242 14326                       SCINIT CPCMD,LH:CPCMDLEN
 0016D6 5810 B08C/1B00_      0008C 14349                       SCAN  ,                   Command verb ptr
 001724 12FF/4770 72FC             14380                       IF    (R15,Z),BEGIN
 00172A 5810 B08C/4111_      0008C 14394  1                      SCUPTOK R1
 001732 5900 7C50/4770_      020D0 14398  1                      IF    ((R0,EQ,5),AND,(@R1,EQ,'ADMIN')),'ACALL MACOLD'
 00174A 5900 7C58/4770_      020D8 14439  1                      IF    ((R0,EQ,3),AND,(@R1,EQ,'SUG')),'SETMSG "SUGGEST"'
 001764 5900 7C5C/4770_      020DC 14480  1                      IF    ((R0,EQ,7),AND,(@R1,EQ,'SUGGEST')),'ACALL MACOLD'
 00177C                            14521                       END
                                   14525              *
                                   14526              *  WE GIVE UP, PASS COMMAND TO ORVYL
                                   14527              *
                                   14528                       COMMENT                   WE UP CASE CMD FOR ORVYL (WAT5)
                                   14529                       COMMENT                   YUCKK CITY
 00177C 4110 B242/4800_      00242 14530                       SCINIT CPCMD,LH:CPCMDLEN
 001792 5810 B08C/1B00_      0008C 14553                       SCAN  ,                   Command verb ptr
 0017E0 58F0 B08C/58E0_      0008C 14584                       SCUPCASE (R1),(R0)
                                   14601                       COMMENT
 0017EA 58E0 7C64/0DEE       020E4 14602                       VCALL ORVCMD              Send command to ORVYL
 0017F0 58E0 7C68/0DEE       020E8 14606                       ACALL CMDUNREC            Complain
 0017F6 18D8/9808 D004_            14610                       PEND
 DROP   CFINWA-(4+36),R8
 DROP   *,R7
                                   14635              *
                                   14636              *
 001804 E2C5E34040404040_          14637              CDEFPRT  SCKW  SET,CDEFSET,A
 00182C E2C8D6E640404040_          14652                       SCKW  SHOW,CDEFSHOW,A
 001854 C4E4D4D740404040_          14667                       SCKW  DUMP,CDEFDUMP,A
 00187C C3D3C5C1D9404040_          14682                       SCKW  CLEAR,CDEFCLR,A
 0018A4 C3D3D94040404040_          14697                       SCKW  CLR,CDEFCLR,A
 0018CC 4040404040404040_          14712                       SCKW  ,CDEFSTOP
                                   14727
 0018F4 50E0 D000/9008_      00000 14728              CDEFSET  PROC
 USING  *,R7
 00190E D205 6004 77FA 00004 02108 14767                       MVC   CFINVAR(6),=C'SYSSET'
 001914 41F0 0004            00004 14768                       LA    R15,4
 001918 18D8/9808 D004_            14769                       PEND
 DROP   *,R7
                                   14789
 001926 50E0 D000/9008_      00000 14790              CDEFSHOW PROC
 USING  *,R7
 001940 D205 6004 77CE 00004 0210E 14829                       MVC   CFINVAR(6),=C'SYSSHO'
 001946 41F0 0004            00004 14830                       LA    R15,4
 00194A 18D8/9808 D004_            14831                       PEND
 DROP   *,R7
                                   14851
 001958 50E0 D000/9008_      00000 14852              CDEFDUMP PROC
 USING  *,R7
1COMM     (COMM4072) (12:40) (15MAR04) New Command Setup and Scan                                                           Page   41
0Current Usings:  (CFINWA,R6) (*,R7) (CP,R11) (CV,R12)
0Loc    Object Code    Addr1 Addr2  Stmt Lv Lineno    Source Statement           (Hibal 5, Asmedit 3.3)  HLASM R4.0  2004/03/15 12.40
+___    ______ ____    _____ _____  ____ __ ______    ______ _________
0001972 D205 6004 77A2 00004 02114 14891                       MVC   CFINVAR(6),=C'SYSDMP'
 001978 41F0 0004            00004 14892                       LA    R15,4
 00197C 18D8/9808 D004_            14893                       PEND
 DROP   *,R7
                                   14913
 00198A 50E0 D000/9008_      00000 14914              CDEFCLR  PROC
 USING  *,R7
 0019A4 D205 6004 7776 00004 0211A 14953                       MVC   CFINVAR(6),=C'SYSCLR'
 0019AA 41F0 0004            00004 14954                       LA    R15,4
 0019AE 18D8/9808 D004_            14955                       PEND
 DROP   *,R7
 0019BC 50E0 D000/9008_      00000 14975              CDEFSTOP PROC
 USING  *,R7
 0019D6 58E0 B08C/58FE_      0008C 15014                       SCBKUP
 001A0C 41F0 0004            00004 15070                       LA    R15,4
 001A10 18D8/9808 D004_            15071                       PEND
 DROP   *,R7
                                   15091
 DROP   CFINWA,R6                  15092                       DROP  R6
1COMM     (COMM4072) (12:40) (15MAR04) New Command Setup and Scan                                                           Page   42
0Current Usings:  (CP,R11) (CV,R12)
0Loc    Object Code    Addr1 Addr2  Stmt Lv Lineno    Source Statement           (Hibal 5, Asmedit 3.3)  HLASM R4.0  2004/03/15 12.40
+___    ______ ____    _____ _____  ____ __ ______    ______ _________
0                                  15100              ¿þþþþþþþþþþþþþþþþþþþþþþþþþþþþþþþþþþþþþþþþþþþþþþþþþþþþþþþþþþþþþþþþþþþþþÜ
                                   15101              Ÿ                                                                     Ÿ
                                   15102              Ÿ  NETCMD -- Routine to execute a %-style network command.            Ÿ
                                   15103              Ÿ                                                                     Ÿ
                                   15104              Ÿ    Control is only returned to the caller if no network command     Ÿ
                                   15105              Ÿ    processor is defined.                                            Ÿ
                                   15106              Ÿ                                                                     Ÿ
                                                      ¾þþþþþþþþþþþþþþþþþþþþþþþþþþþþþþþþþþþþþþþþþþþþþþþþþþþþþþþþþþþþþþþþþþþþþ»
0001A1E 50E0 D000/9008_      00000 15107              NETCMD   PROC
 USING  *,R7
                                   15146                       ¿þþþþþþþþþþþþþþþþþþþþþþþþþþþþþþþþþþþþþþþþþþþþþþþþþþþþþþþþþþþþþÜ
                                   15147                       Ÿ  Pass any command beginning with % to the network handler.  Ÿ
                                   15148                       ¾þþþþþþþþþþþþþþþþþþþþþþþþþþþþþþþþþþþþþþþþþþþþþþþþþþþþþþþþþþþþþ»
 001A38 956C 1000/4770_00000       15149                       IF    (@R1,EQ,'%'),BEGIN  %-type network command
 001A40 4110 1001            00001 15165  1                      LA    R1,@R1+1            Skip past "%"
 001A44 0600                       15166  1                      DECR  R0                  Keep length accurate
                                   15168  1
 001A46 58E0 B08C/501E_      0008C 15169  1                      SCINIT (R1),(R0)          Text beyond the % (for GBLCMD)
                                   15189  1
 001A54 4110 76E8/4100_      02120 15190  1                      SETMSG 'PUB.SYSNET'
 001A5C 58E0 7688/0DEE       020C0 15194  1                      ACALL GBLCMD              Check for netcmd exec
                                   15198  1           *  (Control only returns if the command wasn't defined.)
 001A62                            15199                       END
                                   15203
 001A62 18D8/9808 D004_            15204                       PEND
 DROP   *,R7
1COMM     (COMM4072) (12:40) (15MAR04) New Command Setup and Scan                                                           Page   43
0Current Usings:  (CP,R11) (CV,R12)
0Loc    Object Code    Addr1 Addr2  Stmt Lv Lineno    Source Statement           (Hibal 5, Asmedit 3.3)  HLASM R4.0  2004/03/15 12.40
+___    ______ ____    _____ _____  ____ __ ______    ______ _________
0                                  15225              ¿þþþþþþþþþþþþþþþþþþþþþþþþþþþþþþþþþþþþþþþþþþþþþþþþþþþþþþþþþþþþþþþþþþþþþÜ
                                   15226              Ÿ                                                                     Ÿ
                                   15227              Ÿ  CMDUNREC -- Routine to write out unrecognized command message.     Ÿ
                                   15228              Ÿ                                                                     Ÿ
                                                      ¾þþþþþþþþþþþþþþþþþþþþþþþþþþþþþþþþþþþþþþþþþþþþþþþþþþþþþþþþþþþþþþþþþþþþþ»
0001A70 50E0 D000/9008_      00000 15229              CMDUNREC XPROC
 USING  *,R7
 001A8A 4110 B242/4800_      00242 15269                       SCINIT CPCMD,LH:CPCMDLEN
 001AA0 5810 B08C/1B00_      0008C 15292                       SCAN  SOPPRT
 001AF2 58E0 762E/0DEE       020B8 15324                       SCANCHK
                                   15329
 001AF8 1200/4780 7090_            15330                       IF    (R0,NZ),'TSEG (R1),(R0); TSEG ": "'
 001B1A 4110 76D5/4100_      0215F 15391                       TSEG  'unrecognized '
 001B2C 4110 75EE/4100_      02078 15409                       SETMSG 'command.'
 001B34 1233/4780 70C8_            15413                       IF    (R3,NZ),'TSEG (R3),8,TB; SETMSG "option."'
 001B52 47F0 C7C8            007C8 15464                       ERROR (R1),(R0)
 001B56 18D8/9808 D004_            15477                       PEND
 DROP   *,R7
                                   15497
-001B64 E2C5E34040404040_          15499              SOPPRT   SCKW  SET,CFINSET,(A,P)
 001B8C E2C8D6E640404040_          15514                       SCKW  SHOW,CFINSHOW,(A,P)
 001BB4 C3D3C5C1D9404040_          15529                       SCKW  CLEAR,CFINCLR,(A,P)
 001BDC C3D3D94040404040_          15544                       SCKW  CLR,CFINCLR,(A,P)
 001C04 4040404040404040_          15559                       SCKW  ,CFINCMD
                                   15574
 001C2C 50E0 D000/9008_      00000 15575              CFINCMD  PROC
 USING  *,R7
 001C46 1B33                       15614                       CLEAR R3
 001C48 5038 0010            00010 15618                       PRETURN (R3)
 001C4C 41F0 0004            00004 15620                       LA    R15,4
 001C50 18D8/9808 D004_            15621                       PEND
 DROP   *,R7
                                   15641
 001C5E 50E0 D000/9008_      00000 15642              CFINSET  PROC
 USING  *,R7
 001C78 4130 7408            02080 15681                       LA    R3,=CL8'SET'
 001C7C 5038 0010            00010 15682                       PRETURN (R3)
 001C80 41F0 0004            00004 15684                       LA    R15,4
 001C84 18D8/9808 D004_            15685                       PEND
 DROP   *,R7
                                   15705
 001C92 50E0 D000/9008_      00000 15706              CFINSHOW PROC
 USING  *,R7
 001CAC 4130 73DC            02088 15745                       LA    R3,=CL8'SHOW'
 001CB0 5038 0010            00010 15746                       PRETURN (R3)
 001CB4 41F0 0004            00004 15748                       LA    R15,4
 001CB8 18D8/9808 D004_            15749                       PEND
 DROP   *,R7
                                   15769
 001CC6 50E0 D000/9008_      00000 15770              CFINCLR  PROC
 USING  *,R7
1COMM     (COMM4072) (12:40) (15MAR04) New Command Setup and Scan                                                           Page   44
0Current Usings:  (*,R7) (CP,R11) (CV,R12)
0Loc    Object Code    Addr1 Addr2  Stmt Lv Lineno    Source Statement           (Hibal 5, Asmedit 3.3)  HLASM R4.0  2004/03/15 12.40
+___    ______ ____    _____ _____  ____ __ ______    ______ _________
0001CE0 4130 73B0            02090 15809                       LA    R3,=CL8'CLEAR'
 001CE4 5038 0010            00010 15810                       PRETURN (R3)
 001CE8 41F0 0004            00004 15812                       LA    R15,4
 001CEC 18D8/9808 D004_            15813                       PEND
 DROP   *,R7
1COMM     (COMM4072) (12:40) (15MAR04) New Command Setup and Scan                                                           Page   45
0Current Usings:  (CP,R11) (CV,R12)
0Loc    Object Code    Addr1 Addr2  Stmt Lv Lineno    Source Statement           (Hibal 5, Asmedit 3.3)  HLASM R4.0  2004/03/15 12.40
+___    ______ ____    _____ _____  ____ __ ______    ______ _________
0                                  15834              ¿þþþþþþþþþþþþþþþþþþþþþþþþþþþþþþþþþþþþþþþþþþþþþþþþþþþþþþþþþþþþþþþþþþþþþÜ
                                   15835              Ÿ                                                                     Ÿ
                                   15836              Ÿ  UTIL -- Routine to execute a public exec file.                     Ÿ
                                   15837              Ÿ                                                                     Ÿ
                                   15838              Ÿ    On entry:                                                        Ÿ
                                   15839              Ÿ      R15 - Exec file member name (8 bytes)                          Ÿ
                                   15840              Ÿ      SCAN ptrs - Exec file parm loc, len                            Ÿ
                                   15841              Ÿ                                                                     Ÿ
                                                      ¾þþþþþþþþþþþþþþþþþþþþþþþþþþþþþþþþþþþþþþþþþþþþþþþþþþþþþþþþþþþþþþþþþþþþþ»
0000000                00000 00008 15842              UTILWA   RECORD BEGIN
 000000                            15850  1           UTILNAME   DS    CL8
 000008                00008 00008 15851                       END
                                   15860
 001CFA 50E0 D000/9008_      00000 15861              UTIL     XPROC UTILWA
 USING  *,R7
 USING  UTILWA-(4+36),R8
 001D14 5810 B08C/1B00_      0008C 15912                       SCAN  ,
 001D62 58E0 73A4/0DEE       020B8 15943                       SCANCHK
 001D68 1200/4770 706C             15948                       IF    (R0,Z),BEGIN
 001D6E D207 B886 7384_00886 02098 15962  1                      ERROR 'Missing Public EXEC file name.',,MISSPUB
 001D80                            15970                       END
                                   15974
 001D80 58F0 B08C/4110_      0008C 15975                       SCUPCASE UTILNAME,L'UTILNAME
 001D92 58E0 B08C/581E_      0008C 15998                       SCINFO
 001DA0 1200/47D0 70A4_            16007                       WHILE ((R0,POS),AND,(@R1,EQ,' ')),'LA R1,@R1+1; DECR R0'
 001DB8 58E0 73E4/0DEE       020F8 16047                       VCALL SETPARM             Set exec parm
 001DBE D229 B242 70DC 00242 01DF0 16051                       MVC   CPCMD(L'PUBCMD),PUBCMD  Set exec command
 001DC4 D207 B250 8028 00250 00000 16052                       MVC   CPCMD+PUBMEM(8),UTILNAME  Plant member name
 001DCA D201 B240 7436 00240 0214A 16053                       MVC   CPCMDLEN,=AL2(L'PUBCMD)
 001DD0 4110 B242/4800_      00242 16054                       SETMSG CPCMD,LH:CPCMDLEN
 001DD8 94EF B477      00477       16067                       CLEAR CPFTYPED            Not a typed command now
 001DDC 58E0 73E8/0DEE       020FC 16074                       ACALL EDTCOM              Go do new command
                                   16078
 001DE2 18D8/9808 D004_            16079                       PEND
 DROP   UTILWA-(4+36),R8
 DROP   *,R7
                                   16104
 001DF0 C5E7C5C340C6D9D6           16105              PUBCMD   DC    C'EXEC FROM LIB#12345678 PUBLIC CLEAR NOPARM'
                                   16106              PUBMEM   EQU   14                  Offset to "member" field in above
1COMM     (COMM4072) (12:40) (15MAR04) New Command Setup and Scan                                                           Page   46
0Current Usings:  (CP,R11) (CV,R12)
0Loc    Object Code    Addr1 Addr2  Stmt Lv Lineno    Source Statement           (Hibal 5, Asmedit 3.3)  HLASM R4.0  2004/03/15 12.40
+___    ______ ____    _____ _____  ____ __ ______    ______ _________
0                                  16108              ¿þþþþþþþþþþþþþþþþþþþþþþþþþþþþþþþþþþþþþþþþþþþþþþþþþþþþþþþþþþþþþþþþþþþþþÜ
                                   16109              Ÿ                                                                     Ÿ
                                   16110              Ÿ  MACOLD -- Routine to execute an old exec file macro.               Ÿ
                                   16111              Ÿ                                                                     Ÿ
                                   16112              Ÿ    On entry:                                                        Ÿ
                                   16113              Ÿ      R15 - Exec file member name (8 bytes)                          Ÿ
                                   16114              Ÿ      SCAN ptrs - Exec file parm loc, len                            Ÿ
                                   16115              Ÿ                                                                     Ÿ
                                                      ¾þþþþþþþþþþþþþþþþþþþþþþþþþþþþþþþþþþþþþþþþþþþþþþþþþþþþþþþþþþþþþþþþþþþþþ»
0000000                00000 00008 16116              MACOWA   RECORD BEGIN
 000000                            16124  1           MACONAME   DS    CL8
 000008                00008 00008 16125                       END
                                   16134
 001E1A 50E0 D000/9008_      00000 16135              MACOLD   PROC  MACOWA
 USING  *,R7
 USING  MACOWA-(4+36),R8
 001E34 58F0 B08C/4110_      0008C 16185                       SCUPCASE MACONAME,L'MACONAME
 001E46 58E0 B08C/581E_      0008C 16208                       SCINFO
 001E54 1200/47D0 7038_            16217                       WHILE ((R0,POS),AND,(@R1,EQ,' ')),'LA R1,@R1+1; DECR R0'
 001E6C 58E0 72C4/0DEE       020F8 16257                       VCALL SETPARM             Set exec parm
 001E72 D22E B242 7072 00242 01EA6 16261                       MVC   CPCMD(L'MACROCMD),MACROCMD  Set exec command
 001E78 D207 B255 8028 00255 00000 16262                       MVC   CPCMD+MACROMEM(8),MACONAME  Plant member name
 001E7E D201 B240 7318 00240 0214C 16263                       MVC   CPCMDLEN,=AL2(L'MACROCMD)
 001E84 4110 B242/4800_      00242 16264                       SETMSG CPCMD,LH:CPCMDLEN
 001E8C 94EF B477      00477       16277                       CLEAR CPFTYPED            Not a typed command now
 001E90 58E0 72C8/0DEE       020FC 16284                       ACALL EDTCOM              Go do new command
 001E96 0000                       16288                       BOMB
 001E98 18D8/9808 D004_            16290                       PEND
 DROP   MACOWA-(4+36),R8
 DROP   *,R7
                                   16315
 001EA6 C5E7C5C340C6D9D6           16316              MACROCMD DC    C'EXEC FROM COMMANDS#12345678 PUBLIC CLEAR NOPARM'
                                   16317              MACROMEM EQU   19                  Offset to "member" field in above
1COMM     (COMM4072) (12:40) (15MAR04) New Command Setup and Scan                                                           Page   47
0Current Usings:  (CP,R11) (CV,R12)
0Loc    Object Code    Addr1 Addr2  Stmt Lv Lineno    Source Statement           (Hibal 5, Asmedit 3.3)  HLASM R4.0  2004/03/15 12.40
+___    ______ ____    _____ _____  ____ __ ______    ______ _________
0000000                00000 0012F 16319              MACWA    RECORD BEGIN
 000000                            16327  1           MACNAME    DS    CL8                 Member name
                                   16328  1           MACCB      SEGCB
 000008 00                         16329  1 01-SEGCB +$$$SEGCB351   DS 0F
 MACCBCOD.MACCBSEG 01 EQ
 MACCBCOD.MACCBWR  02 EQ
 MACCBCOD.MACCBCLR 03 EQ
 MACCBCOD.MACCBSPP 04 EQ
 MACCBCOD.MACCBOVF 05 EQ
 MACCBCOD.MACCBCR  06 EQ
 MACCBCOD.MACCBMAR 07 EQ
 000009 00                         16404  1 01-SEGCB +           DC    X'00'               Reserved
 00000A 0000                              1          +
 00000C 00000000                   16405  1 01-SEGCB +MACCBMAXF   DC   A(0)                Maximum buffer length
 000010 00000000                   16406  1 01-SEGCB +MACCBMRKF   DC   A(0)                Length at last mark
 000014 00000000                   16407  1 01-SEGCB +MACCBLENF   DC   A(0)                Current length
 000018 00000000                   16408  1 01-SEGCB +MACCBINDF   DC   A(0)                Overflow/indent count
 00001C 00000000                   16409  1 01-SEGCB +MACCBERR   DC    A(0)                Address of error recovery routine
 000020 0000000000000000           16410  1 01-SEGCB +           DC    2F'0'               Reserved
 000028 00000000                   16411  1 01-SEGCB +MACCBLOC   DC    A(0)                Location of buffer
 00002C 00000000                   16412  1 01-SEGCB +MACCBRTN   DC    A(0)                Processing routine
 000030 0000000000000000           16413  1 01-SEGCB +           DC    4F'0'               Reserved
 000040 00000000                   16414  1 01-SEGCB +MACCBUSR   DC    A(0)                USER field
                                   16415  1 01-SEGCB +MACCB      EQU   $$$SEGCB351,*-$$$SEGCB351,C'X'
                                   16416  1
 000044                            16417  1           MACBUF     DS    CL(L'CPCMD)         Working command buffer
 00012F                0012F 0012F 16418                       END
-                                  16428              ¿þþþþþþþþþþþþþþþþþþþþþþþþþþþþþþþþþþþþþþþþþþþþþþþþþþþþþþþþþþþþþþþþþþþþþÜ
                                   16429              Ÿ                                                                     Ÿ
                                   16430              Ÿ  MACRO -- Routine to execute a macro.                               Ÿ
                                   16431              Ÿ                                                                     Ÿ
                                   16432              Ÿ    On entry:                                                        Ÿ
                                   16433              Ÿ      R15 - Exec file member name (8 bytes)                          Ÿ
                                   16434              Ÿ      SCAN ptrs - Exec file parm loc, len                            Ÿ
                                   16435              Ÿ                                                                     Ÿ
                                                      ¾þþþþþþþþþþþþþþþþþþþþþþþþþþþþþþþþþþþþþþþþþþþþþþþþþþþþþþþþþþþþþþþþþþþþþ»
0001ED6 50E0 D000/9008_      00000 16436              MACRO    XPROC MACWA
 USING  *,R7
 USING  MACWA-(4+36),R8
                                   16487
 001EF0 58F0 B08C/4110_      0008C 16488                       SCUPCASE MACNAME,L'MACNAME
 001F02 4110 806C/4100_      00044 16511                       SEGINIT MACBUF
 001F14 4110 7283/4100_      02173 16538                       SEG   'XCALL COMMANDS#'
 001F26 4110 8028/4100_      00000 16555                       SEGTB MACNAME
 001F38 4110 7292/4100_      02182 16583                       SEG   ' PUBLIC'
                                   16600
 001F4A 58E0 B08C/581E_      0008C 16601                       SCINFO
 001F58 1200/47D0 7080_            16610                       WHILE ((R0,POS),AND,(@R1,EQ,' ')),'LA R1,@R1+1; DECR R0'
 001F70 47D0 70B0            01FA0 16650                       IF    POS,BEGIN
 001F74 9001 D000/41D0_      00000 16661  1                      XPUSH R0,R1
 001F7C 4110 7299/4100_      02189 16664  1                      SEG   '/'
1COMM     (COMM4072) (12:40) (15MAR04) New Command Setup and Scan                                                           Page   48
0Current Usings:  (*,R7) (MACWA-(4+36),R8) (CP,R11) (CV,R12)
0Loc    Object Code    Addr1 Addr2  Stmt Lv Lineno    Source Statement           (Hibal 5, Asmedit 3.3)  HLASM R4.0  2004/03/15 12.40
+___    ______ ____    _____ _____  ____ __ ______    ______ _________
0001F8E 4BD0 7214/9801_      02104 16681  1                      XPOP  R0,R1
 001F96 41F0 8030/58E0_      00008 16684  1                      SEG   (R1),(R0)
 001FA0                            16707                       END
                                   16711
 001FA0 58F0 803C            00014 16712                       L     R15,MACCBLENF
 001FA4 40F0 B240            00240 16713                       STH   R15,CPCMDLEN
 001FA8 06F0/12FF/4740_            16714                       MOVE  R15,CPCMD,MACBUF    Move in command
 001FB4 4110 B242/5800_      00242 16752                       SETMSG CPCMD,L:MACCBLENF
 001FBC 94EF B477      00477       16766                       CLEAR CPFTYPED            Not a typed command now
 001FC0 58E0 720C/0DEE       020FC 16773                       ACALL EDTCOM              Go do new command
 001FC6 0000                       16777                       BOMB  ,                   (No return)
 001FC8 18D8/9808 D004_            16779                       PEND
 DROP   MACWA-(4+36),R8
 DROP   *,R7
                                   16804
1COMM     (COMM4072) (12:40) (15MAR04) New Command Setup and Scan                                                           Page   49
0Current Usings:  (CP,R11) (CV,R12)
0Loc    Object Code    Addr1 Addr2  Stmt Lv Lineno    Source Statement           (Hibal 5, Asmedit 3.3)  HLASM R4.0  2004/03/15 12.40
+___    ______ ____    _____ _____  ____ __ ______    ______ _________
0                                  16806              ¿þþþþþþþþþþþþþþþþþþþþþþþþþþþþþþþþþþþþþþþþþþþþþþþþþþþþþþþþþþþþþþþþþþþþþÜ
                                   16807              Ÿ                                                                     Ÿ
                                   16808              Ÿ  NULLCMD - noop                                                     Ÿ
                                   16809              Ÿ                                                                     Ÿ
                                   16810              Ÿ                                                                     Ÿ
                                                      ¾þþþþþþþþþþþþþþþþþþþþþþþþþþþþþþþþþþþþþþþþþþþþþþþþþþþþþþþþþþþþþþþþþþþþþ»
0001FD6 50E0 D000/9008_      00000 16811              NULLCMD  PROC
 USING  *,R7
 001FF0 47F0 C7DE            007DE 16850                       B     CVNEXT
 001FF4 18D8/9808 D004_            16851                       PEND
 DROP   *,R7
1COMM     (COMM4072) (12:40) (15MAR04) New Command Setup and Scan                                                           Page   50
0Current Usings:  (CP,R11) (CV,R12)
0Loc    Object Code    Addr1 Addr2  Stmt Lv Lineno    Source Statement           (Hibal 5, Asmedit 3.3)  HLASM R4.0  2004/03/15 12.40
+___    ______ ____    _____ _____  ____ __ ______    ______ _________
0                                  16872              ¿þþþþþþþþþþþþþþþþþþþþþþþþþþþþþþþþþþþþþþþþþþþþþþþþþþþþþþþþþþþþþþþþþþþþþÜ
                                   16873              Ÿ                                                                     Ÿ
                                   16874              Ÿ  KERMIT -- KERMIT Command.                                          Ÿ
                                   16875              Ÿ                                                                     Ÿ
                                                      ¾þþþþþþþþþþþþþþþþþþþþþþþþþþþþþþþþþþþþþþþþþþþþþþþþþþþþþþþþþþþþþþþþþþþþþ»
0002002 50E0 D000/9008_      00000 16876              KERMIT   XPROC
 USING  *,R7
 00201C D21B B242 702A 00242 02046 16916                       MVC   CPCMD(L'KERCMD),KERCMD  Set command text
 002022 D201 B240 7132 00240 0214E 16917                       MVC   CPCMDLEN,=AL2(L'KERCMD)
                                   16918
 002028 4110 B242/4800_      00242 16919                       SETMSG CPCMD,LH:CPCMDLEN
 002030 58E0 70E0/0DEE       020FC 16932                       ACALL EDTCOM              Go do new command
 002036 0000                       16936                       BOMB  ,                   (No return)
 002038 18D8/9808 D004_            16938                       PEND
 DROP   *,R7
                                   16958
 002046 C3C1D3D340D2C5D9           16959              KERCMD   DC    C'CALL KERMIT ACC GG.JDN CLEAR'  *** Temporary? ***
                                   16960
                                   16961                       QLTORG
                                   17024                       AIF   (&$PCODE).SKIPOS
1COMM     (COMM4072) (12:40) (15MAR04) OS Command                                                                           Page   51
0Current Usings:  (CP,R11) (CV,R12)
0Loc    Object Code    Addr1 Addr2  Stmt Lv Lineno    Source Statement           (Hibal 5, Asmedit 3.3)  HLASM R4.0  2004/03/15 12.40
+___    ______ ____    _____ _____  ____ __ ______    ______ _________
0                                  17026              ¿þþþþþþþþþþþþþþþþþþþþþþþþþþþþþþþþþþþþþþþþþþþþþþþþþþþþþþþþþþþþþþþþþþþþþÜ
                                   17027              Ÿ                                                                     Ÿ
                                   17028              Ÿ  OS -- OS command (priv'd).                                         Ÿ
                                   17029              Ÿ                                                                     Ÿ
                                                      ¾þþþþþþþþþþþþþþþþþþþþþþþþþþþþþþþþþþþþþþþþþþþþþþþþþþþþþþþþþþþþþþþþþþþþþ»
0002196 50E0 D000/9008_      00000 17030              OS       XPROC
 USING  *,R7
 0021B0 9140 B75A/4710_0075A       17070                       IF    ~CPFXAUTH,BEGIN     Check if not authorized...
 0021B8 9130 B3BE/4770_003BE       17085  1                      IF    (CPSFSPR+CPSFOPR,Z),'VCALL NOTVALID'  Not priv'd
 0021C6                            17114                       END
                                   17118
 0021C6 58E0 B08C/581E_      0008C 17119                       SCINFO
 0021D4 58E0 7104/0DEE       022B4 17128                       VCALL LRTRIM
 0021DA 1200/47D0 C7F0             17132                       IF    (R0,NP),CVABSENT    Missing operand
 0021E0 5900 7108/47D0_      022B8 17149                       IF    (R0,GT,115),BEGIN   Too long...
 0021E8 5B00 710C            022BC 17166  1                      S     R0,=F'115'
 0021EC 1820                       17167  1                      LR    R2,R0
 0021EE 4110 711C/4100_      022CC 17168  1                      TSEG  'OS command is '
 002200 1812/1B00/41F0_            17186  1                      TNUM  (R2)
 00220E 4110 712E/4100_      022DE 17208  1                      ERROR ' characters too long.'
 00221A                            17215                       END
                                   17219                       ¿þþþþþþþþþþþþþþþþþþþþþþþþþþþþþþþþþþþþþþþþþþÜ
                                   17220                       Ÿ  Log who is about to do the OS command.  Ÿ
                                   17221                       ¾þþþþþþþþþþþþþþþþþþþþþþþþþþþþþþþþþþþþþþþþþþ»
 00221A 9001 D000/41D0_      00000 17222                       XPUSH R0,R1
 002222 96A0 C4CB      004CB       17225                       SET   CVWTOFUPFX+CVWTOFWTL  WTO logging flags
 002226 4110 B242/4800_      00242 17234                       SEG   CPCMD,LH:CPCMDLEN,L:CVWTOSGP  OS command text
 002238 1B00/58F0 C748_            17258                       SEGWR ,                   Log it
 002244 945F C4CB      004CB       17280                       CLEAR CVWTOFUPFX+CVWTOFWTL  Reset
 002248 4BD0 712A/9801_      022DA 17290                       XPOP  R0,R1
                                   17293                       ¿þþþþþþþþþþþþþþþþþþþþþþÜ
                                   17294                       Ÿ  Do the OS command.  Ÿ
                                   17295                       ¾þþþþþþþþþþþþþþþþþþþþþþ»
 002250 186D/41D0 D0FC             17296                       XPUSH ,,250,PTR=R6        (SVC34 area & slop)
 002256 18F0                       17299                       LR    R15,R0
 002258 4A00 712C            022DC 17300                       AH    R0,=AL2(4+1)        Len includes mcs header & blank
 00225C 4000 6000            00000 17301                       STH   R0,@R6
 002260 D701 6002 6002 00002 00002 17302                       CLEAR (@R6+2,2)           Mcs flags
 002266 412F 6004            00004 17309                       LA    R2,@R6+4(R15)       Last byte
 00226A 9240 2000      00000       17310                       MVI   @R2,C' '            Make it a blank
 00226E 06F0/12FF/4740_            17311                       MOVE  R15,@R6+4,@R1       Text
 00227A 0700/4510 70D4_            17349                       MODESET KEY=ZERO          ********
 00228A 1816                       17356                       LR    R1,R6               Parm ptr
 00228C 1B00                       17357                       CLEAR R0                  Ucmid=0  (master console)
 00228E 0A22                       17361                       SVC   34                  Send command to OS
 002290 4510 70E8/0000_      02298 17362                       MODESET KEY=NZERO         ********
                                   17369
 00229E 47F0 C7DE            007DE 17370                       B     CVNEXT
 0022A2 18D8/9808 D004_            17371                       PEND
 DROP   *,R7
                                   17391
                                   17392                       QLTORG
                                   17415              .SKIPOS  ANOP  ,
1COMM     (COMM4072) (12:40) (15MAR04) DEFINE Record Dsect                                                                  Page   52
0Current Usings:  (CP,R11) (CV,R12)
0Loc    Object Code    Addr1 Addr2  Stmt Lv Lineno    Source Statement           (Hibal 5, Asmedit 3.3)  HLASM R4.0  2004/03/15 12.40
+___    ______ ____    _____ _____  ____ __ ______    ______ _________
0                                  17417              ¿þþþþþþþþþþþþþþþþþþþþþþþþþþþþþþþþþþþþþþþþþþþþþþþþþþþþþþþþþþþþþþþþþþþþþÜ
                                   17418              Ÿ                                                                     Ÿ
                                   17419              Ÿ                                                                     Ÿ
                                   17420              Ÿ  DEFINE RECORD DESECT                                               Ÿ
                                   17421              Ÿ                                                                     Ÿ
                                   17422              Ÿ  NOTE: THE DEFINE RECORD IS SAVED AS A VARIABLE LENGTH RECORD.      Ÿ
                                   17423              Ÿ  THE DEFINE RECORD REPLACEMENT TEXT AND APPEND TEXT ARE             Ÿ
                                   17424              Ÿ  CONCATENATED TOGETHER AND THE RECORD IS SHORTENED BY WRITTING      Ÿ
                                   17425              Ÿ  OUT A VARIABLE LENGTH DEFINE RECORD.                               Ÿ
                                   17426              Ÿ                                                                     Ÿ
                                   17427              Ÿ                                                                     Ÿ
                                                      ¾þþþþþþþþþþþþþþþþþþþþþþþþþþþþþþþþþþþþþþþþþþþþþþþþþþþþþþþþþþþþþþþþþþþþþ»
0000000                00000 00220 17428              DEFRECD  RECORD BEGIN
 000000                            17436  1           DEFNAME    DS    CL16                DEFINE NAME
 000010                            17437  1           DEFDATA    DS    XL(16+256+256)
 000220                00220 00010 17438  1                      ORG   DEFDATA
 000010 00                         17439  1           DEFFLAGS   FLAG  ,
 DEFFLAGS.DEFNOTRM 80 ONES         17443  1                      FLAG  DEFNOTRM
 000011                            17448  1                      DS    XL3
 000014                            17449  1           DEFRESV    DS    F                   NOT USED
 000018                            17450  1           DEFTEXTL   DS    F                   LENGTH OF REPLACEMENT TEXT
 00001C                            17451  1           DEFAPPDL   DS    F                   LENGTH OF APPEND TEXT
 000020                            17452  1           DEFTEXT    DS    2CL256              REPLACEMENT TEXT, APPEND TEXT
 000220                00220 00220 17453                       END
-
0                                  17463              ¿þþþþþþþþþþþþþþþþþþþþþþþþþþþþþþþþþþþþþþþþþþþþþþþþþþþþþþþþþþþþþþþþþþþþþÜ
                                   17464              Ÿ                                                                     Ÿ
                                   17465              Ÿ                                                                     Ÿ
                                   17466              Ÿ  ABBREVIATION RECORD                                                Ÿ
                                   17467              Ÿ                                                                     Ÿ
                                   17468              Ÿ  NOTE: ABBREVIATION RECORD IS VARIABLE LENGTH, DEPENDING            Ÿ
                                   17469              Ÿ  ON HOW MANY ENTRIES THERE ARE. 32 ENTRIES IS MAX.                  Ÿ
                                   17470              Ÿ                                                                     Ÿ
                                   17471              Ÿ                                                                     Ÿ
                                                      ¾þþþþþþþþþþþþþþþþþþþþþþþþþþþþþþþþþþþþþþþþþþþþþþþþþþþþþþþþþþþþþþþþþþþþþ»
0000000                00000 00210 17472              ABBRRECD RECORD BEGIN
 000000                            17480  1           ABBRNAME   DS    CL16                ABBREVIATION NAME (3 CHARS)
 000010                            17481  1           ABBRDATA   DS    XL512
 000210                00210 00010 17482  1                      ORG   ABBRDATA
 000010                            17483  1           ABBRNTRY   DS    32CL16              VARIABLE NUMBER OF ABBR ENTRIES
 000210                00210 00210 17484                       END
1COMM     (COMM4072) (12:40) (15MAR04) DEFINE Command/Routines                                                              Page   53
0Current Usings:  (CP,R11) (CV,R12)
0Loc    Object Code    Addr1 Addr2  Stmt Lv Lineno    Source Statement           (Hibal 5, Asmedit 3.3)  HLASM R4.0  2004/03/15 12.40
+___    ______ ____    _____ _____  ____ __ ______    ______ _________
0                                  17494              ¿þþþþþþþþþþþþþþþþþþþþþþþþþþþþþþþþþþþþþþþþþþþþþþþþþþþþþþþþþþþþþþþþþþþþþÜ
                                   17495              Ÿ                                                                     Ÿ
                                   17496              Ÿ                                                                     Ÿ
                                   17497              Ÿ  DEFINE - WYLBUR Define Command.                                    Ÿ
                                   17498              Ÿ                                                                     Ÿ
                                   17499              Ÿ                                                                     Ÿ
                                   17500              Ÿ  DEFINE RECORD format is described by DEFRECD.                      Ÿ
                                   17501              Ÿ                                                                     Ÿ
                                   17502              Ÿ  ABBREVIATION RECORD format is described by ABBRRECD.               Ÿ
                                   17503              Ÿ                                                                     Ÿ
                                   17504              Ÿ                                                                     Ÿ
                                                      ¾þþþþþþþþþþþþþþþþþþþþþþþþþþþþþþþþþþþþþþþþþþþþþþþþþþþþþþþþþþþþþþþþþþþþþ»
0000000                00000 0022C 17505              DEFWA    RECORD BEGIN
 000000 00                         17513  1           DEFFLAG    FLAG
 DEFFLAG.DEFFSET   80 ONES         17517  1                      FLAG  DEFFSET             'AS' SPECIFIED
 DEFFLAG.DEFFABBR  40 ONES         17522  1                      FLAG  DEFFABBR            ABBREVIATE
 000004                            17527  1                      DS    0F
 000004                            17528  1           DEFTEXTA   DS    A                   LOC, LEN OF COMMAND TEXT
 000008                            17529  1           DEFAPPDA   DS    A                   LOC, LEN OF APPEND TEXT
 00000C                            17530  1           DEFINFO    DS    XL(L'DEFRECD)       DEFINE RECORD: NAME, TEXT..
 00022C                0022C 0022C 17531                       END
                                   17540              *
                                   17541              *
 0022FA 50E0 D000/9008_      00000 17542              DEFINE   XPROC DEFWA
 USING  *,R7
 USING  DEFWA-(4+36),R8
 002314 4160 8028            00000 17593                       LA    R6,DEFWA
 USING  DEFWA,R6                   17594                       USING DEFWA,R6
 002318 4150 600C            0000C 17603                       LA    R5,DEFINFO
 USING  DEFRECD,R5                 17604                       USING DEFRECD,R5
                                   17613
                                   17614                       COMMENT                   INIT WORK AREA
 00231C 9200 5010      00010       17615                       CLEAR DEFFLAGS
 002320 D7FF 5000 5000_00000 00000 17622                       CLEAR DEFRECD
 002332 D20F 5000 C4D8 00000 004D8 17631                       MVC   DEFNAME,CVBLANKS
 002338 D703 6004 6004 00004 00004 17632                       CLEAR DEFTEXTA
 00233E D703 6008 6008 00008 00008 17639                       CLEAR DEFAPPDA
                                   17646
                                   17647                       COMMENT                   SCAN COMMAND
 002344 5810 B08C/1B00_      0008C 17648                       SCAN  ,
 002392 58E0 7668/0DEE       0297C 17679                       SCANCHK ,
 002398 957D 1000/4770_00000       17684                       IF    (@R1,EQ,''''),'VCALL NOTVALID'
 0023A6 957F 1000/4770_00000       17709                       IF    (@R1,EQ,'"'),'VCALL NOTVALID'
 0023B4 954D 1000/4770_00000       17734                       IF    (@R1,EQ,'('),'VCALL NOTVALID'
 0023C2 5900 7670/47D0_      02984 17759                       IF    (R0,GT,16),'VCALL NOTVALID'
 0023D0 58F0 B08C/4110_      0008C 17785                       SCUPCASE DEFNAME,L'DEFNAME
                                   17808
 0023E2 D506 76C4 5000_029D8 00000 17809                       IF    (DEFNAME,EQ,'SYSCMD '),BEGIN
 0023EC 4110 76CB/4100_      029DF 17826  1                      ABORT 'SYSCMD command can not be re-defined.'
 0023F8                            17833                       END
                                   17837
 0023F8 5810 B08C/1B00_      0008C 17838                       SCAN  DEFASPRT            SCAN DEFINE OPTIONS
 00244A 58E0 7668/0DEE       0297C 17870                       SCANCHK
1COMM     (COMM4072) (12:40) (15MAR04) DEFINE Command/Routines                                                              Page   54
0Current Usings:  (DEFRECD,R5) (DEFWA,R6) (*,R7) (DEFWA-(4+36),R8) (CP,R11) (CV,R12)
0Loc    Object Code    Addr1 Addr2  Stmt Lv Lineno    Source Statement           (Hibal 5, Asmedit 3.3)  HLASM R4.0  2004/03/15 12.40
+___    ______ ____    _____ _____  ____ __ ______    ______ _________
0                                  17875
                                   17876                       COMMENT                   CHECK A COUPLE OF THINGS
                                   17877              *
                                   17878              * Note: we no longer care if command is replaced or command is
                                   17879              *    system command, or if notrim of blanks, let the user beware!
                                   17880              *
 002450 9180 6000/4710_00000       17881                       IF    ~DEFFSET,BEGIN
 002458 58E0 767C/0DEE       02990 17896  1                      VCALL ORVCPASS            GIVE SPIRES A CHANCE
 00245E 4110 76F0/4100_      02A04 17900  1                      ERROR 'Missing "AS ''new command''".  Define not done.'
 00246A                            17907                       END
 00246A 9140 6000/47E0_00000       17911                       IF    (DEFFABBR,AND,(DEFNAME+3,EQ,' ')),BEGIN
 00247A 94BF 6000      00000       17942  1                      CLEAR DEFFABBR
 00247E                            17949                       END
                                   17953
                                   17954                       COMMENT                   MOVE TEXT TO DEFINE RECORD
 00247E 5820 6004            00004 17955                       L     R2,DEFTEXTA
 002482 5830 5018            00018 17956                       L     R3,DEFTEXTL
 002486 0630/1233/4740_            17957                       MOVE  R3,DEFTEXT,@R2      MOVE REPLACE TEXT
 002492 4110 5020            00020 17995                       LA    R1,DEFTEXT
 002496 5A10 5018            00018 17996                       A     R1,DEFTEXTL
 00249A 5820 6008            00008 17997                       L     R2,DEFAPPDA
 00249E 5830 501C            0001C 17998                       L     R3,DEFAPPDL
 0024A2 0630/1233/4740_            17999                       MOVE  R3,@R1,@R2          MOVE APPEND TEXT
                                   18037
                                   18038                       COMMENT                   DEFINE COMMAND
 0024AE 4110 5000            00000 18039                       LA    R1,DEFRECD
 0024B2 58E0 7680/0DEE       02994 18040                       ACALL ADDDEF
                                   18044
                                   18045                       COMMENT                   IF ABBREVIATE, DO IT TOO.
 0024B8 9140 6000/47E0_00000       18046                       IF    DEFFABBR,BEGIN
 0024C0 4110 5000            00000 18061  1                      LA    R1,DEFNAME
 0024C4 58E0 7684/0DEE       02998 18062  1                      ACALL ADDABBR
 0024CA                            18066                       END
                                   18070
 0024CA 47F0 C7DE            007DE 18071                       B     CVNEXT              ALL DONE !
                                   18072
 0024CE 1BFF                       18073                       CLEAR R15
 0024D0 18D8/9808 D004_            18077                       PEND  ,          DUMMY,, WE EXIT ABOVE !
 DROP   DEFWA-(4+36),R8
 DROP   *,R7
-
0                                  18103                       ¿þþþþþþþþþþþþþþþþþþþþþÜ
                                   18104                       Ÿ  DEFINE OPTIONS,,,  Ÿ
                                   18105                       ¾þþþþþþþþþþþþþþþþþþþþþ»
 0024E0 4040404040404040_          18106              DEFASPRT SCKW  ,SDEFNOAS,NULL
 002508 C1E2404040404040_          18121                       SCKW  AS,SDEFAS,P
 002530 C1D7D7C5D5C44040_          18136                       SCKW  APPEND,SDEFAPP,(A,P)
 002558 C1C2C2D9C5E5C9C1_          18151                       SCKW  ABBREVIATE,SDEFABBR,A
 002580 D9C5D7D3C1C3C540_          18166                       SCKW  REPLACE,SDEFREP,A
 0025A8 E2E8E2E3C5D44040_          18181                       SCKW  SYSTEM,SDEFSYS,A
 0025D0 D5D6E3D9C9D44040_          18196                       SCKW  NOTRIM,SDEFNOT,A
1COMM     (COMM4072) (12:40) (15MAR04) DEFINE Command/Routines                                                              Page   55
0Current Usings:  (DEFRECD,R5) (DEFWA,R6) (CP,R11) (CV,R12)
0Loc    Object Code    Addr1 Addr2  Stmt Lv Lineno    Source Statement           (Hibal 5, Asmedit 3.3)  HLASM R4.0  2004/03/15 12.40
+___    ______ ____    _____ _____  ____ __ ______    ______ _________
00025F8 4040404040404040_          18211                       SCKW  ,SDEFERR
                                   18226
 002620 50E0 D000/9008_      00000 18227              SDEFNOAS PROC
 USING  *,R7
 00263A 58E0 7356/0DEE       02990 18266                       VCALL ORVCPASS            GIVE SPIRES A CHANCE
 002640 4110 73CA/4100_      02A04 18270                       ERROR 'Missing "AS ''new command''".  Define not done.'
 00264C 18D8/9808 D004_            18277                       PEND
 DROP   *,R7
                                   18297
 00265A 50E0 D000/9008_      00000 18298              SDEFERR  PROC
 USING  *,R7
 002674 58E0 731C/0DEE       02990 18337                       VCALL ORVCPASS            GIVE SPIRES A CHANCE
 00267A 58E0 730C/0DEE       02980 18341                       VCALL NOTVALID            DOES NOT RETURN
 002680 18D8/9808 D004_            18345                       PEND
 DROP   *,R7
                                   18365
 00268E 50E0 D000/9008_      00000 18366              SDEFAS   PROC
 USING  *,R7
 0026A8 954D 1000/4770_00000       18405                       IF    (@R1,EQ,'('),'VCALL NOTVALID'
 0026B6 58E0 72F4/0DEE       0299C 18430                       VCALL DEQUOTE             DEQUOTE, IF STRING
 0026BC 47B0 7024            026CC 18434                       IF    NEG,BEGIN           ADD TRAIL BLANK IF NOT QUOTED
 0026C0 1830                       18445  1                      LR    R3,R0
 0026C2 1A31                       18446  1                      AR    R3,R1
 0026C4 9240 3000      00000       18447  1                      MVI   0(R3),C' '
 0026C8 5A00 C4D0            004D0 18448  1                      A     R0,CVONE
 0026CC                            18449                       END
 0026CC 5010 6004            00004 18453                       ST    R1,DEFTEXTA         SAVE STRING PTRS
 0026D0 5000 5018            00018 18454                       ST    R0,DEFTEXTL
 0026D4 9680 6000      00000       18455                       SET   DEFFSET
 0026D8 1BFF                       18461                       CLEAR R15
 0026DA 18D8/9808 D004_            18465                       PEND
 DROP   *,R7
                                   18485
 0026E8 50E0 D000/9008_      00000 18486              SDEFAPP  PROC
 USING  *,R7
 002702 954D 1000/4770_00000       18525                       IF    (@R1,EQ,'('),'VCALL NOTVALID'
 002710 58E0 729A/0DEE       0299C 18550                       VCALL DEQUOTE             DEQUOTE, IF STRING
 002716 47B0 701E            02720 18554                       IF    NEG,BEGIN           ADD LEAD BLANK IF NOT QUOTED
 00271A 0610                       18565  1                      DECR  R1
 00271C 5E00 729E            029A0 18567  1                      INCR  R0
 002720                            18570                       END
 002720 5010 6008            00008 18574                       ST    R1,DEFAPPDA         SAVE STRING PTRS
 002724 5000 501C            0001C 18575                       ST    R0,DEFAPPDL
 002728 1BFF                       18576                       CLEAR R15
 00272A 18D8/9808 D004_            18580                       PEND
 DROP   *,R7
                                   18600
 002738 50E0 D000/9008_      00000 18601              SDEFABBR PROC
 USING  *,R7
 002752 9640 6000      00000       18640                       SET   DEFFABBR            ABBREVIATION OK
 002756 18D8/9808 D004_            18646                       PEND
 DROP   *,R7
                                   18666
 002764 50E0 D000/9008_      00000 18667              SDEFREP  PROC
1COMM     (COMM4072) (12:40) (15MAR04) DEFINE Command/Routines                                                              Page   56
0Current Usings:  (DEFRECD,R5) (DEFWA,R6) (*,R7) (CP,R11) (CV,R12)
0Loc    Object Code    Addr1 Addr2  Stmt Lv Lineno    Source Statement           (Hibal 5, Asmedit 3.3)  HLASM R4.0  2004/03/15 12.40
+___    ______ ____    _____ _____  ____ __ ______    ______ _________
0USING  *,R7
 00277E 18D8/9808 D004_            18706                       PEND
 DROP   *,R7
                                   18726
 00278C 50E0 D000/9008_      00000 18727              SDEFSYS  PROC
 USING  *,R7
 0027A6 18D8/9808 D004_            18766                       PEND
 DROP   *,R7
                                   18786
 0027B4 50E0 D000/9008_      00000 18787              SDEFNOT  PROC  ,                   NOTRIM IS NOOP
 USING  *,R7
 0027CE 9680 5010      00010       18826                       SET   DEFNOTRM
 0027D2 18D8/9808 D004_            18832                       PEND
 DROP   *,R7
-
0DROP   DEFRECD,R5                 18853                       DROP  R5
 DROP   DEFWA,R6                   18860                       DROP  R6
1COMM     (COMM4072) (12:40) (15MAR04) DEFINE Command/Routines                                                              Page   57
0Current Usings:  (CP,R11) (CV,R12)
0Loc    Object Code    Addr1 Addr2  Stmt Lv Lineno    Source Statement           (Hibal 5, Asmedit 3.3)  HLASM R4.0  2004/03/15 12.40
+___    ______ ____    _____ _____  ____ __ ______    ______ _________
0                                  18868              ¿þþþþþþþþþþþþþþþþþþþþþþþþþþþþþþþþþþþþþþþþþþþþþþþþþþþþþþþþþþþþþþþþþþþþþÜ
                                   18869              Ÿ                                                                     Ÿ
                                   18870              Ÿ                                                                     Ÿ
                                   18871              Ÿ  UNDEFINE - UNDEFINE COMMAND.                                       Ÿ
                                   18872              Ÿ                                                                     Ÿ
                                   18873              Ÿ                                                                     Ÿ
                                                      ¾þþþþþþþþþþþþþþþþþþþþþþþþþþþþþþþþþþþþþþþþþþþþþþþþþþþþþþþþþþþþþþþþþþþþþ»
0000000                00000 00220 18874              UDEFWA   RECORD BEGIN
 000000                            18882  1           UDEFREC    DS    XL(L'DEFRECD)       DEFINE RECORD
 000220                00220 00220 18883                       END
                                   18892              *
                                   18893              *
 0027E0 50E0 D000/9008_      00000 18894              UNDEFINE XPROC UDEFWA
 USING  *,R7
 USING  UDEFWA-(4+36),R8
 0027FA 4160 8028            00000 18945                       LA    R6,UDEFREC
 USING  DEFRECD,R6                 18946                       USING DEFRECD,R6
                                   18955
                                   18956                       COMMENT                   INIT WORK AREA
 0027FE D7FF 6000 6000_00000 00000 18957                       CLEAR DEFRECD
 002810 D20F 6000 C4D8 00000 004D8 18966                       MVC   DEFNAME,CVBLANKS
                                   18967
                                   18968                       COMMENT                   SCAN FOR NAME TO UNDEFINE
 002816 5810 B08C/1B00_      0008C 18969                       SCAN
 002864 58E0 7182/0DEE       0297C 19000                       SCANCHK
 00286A 1200/4770 7082             19005                       IF    (R0,Z),BEGIN
 002870 4110 71C4/4100_      029BE 19019  1                      ERROR 'Missing user-command name.'
 00287C                            19026                       END
 00287C 957D 1000/4770_00000       19030                       IF    (@R1,EQ,''''),'VCALL NOTVALID'
 00288A 957F 1000/4770_00000       19055                       IF    (@R1,EQ,'"'),'VCALL NOTVALID'
 002898 954D 1000/4770_00000       19080                       IF    (@R1,EQ,'('),'VCALL NOTVALID'
 0028A6 5900 718A/47D0_      02984 19105                       IF    (R0,GT,16),'VCALL NOTVALID'
 0028B4 58F0 B08C/4110_      0008C 19131                       SCUPCASE DEFNAME,L'DEFNAME
                                   19154
                                   19155                       COMMENT                   CHECK IF DEFINED
 0028C6 4110 6000            00000 19156                       LA    R1,DEFRECD
 0028CA 58E0 71AA/0DEE       029A4 19157                       ACALL CHKDEF
 0028D0 4780 7116            02910 19161                       IF    NZ,BEGIN
 0028D4 4110 6000            00000 19172  1                      LA    R1,DEFRECD
 0028D8 58E0 71AE/0DEE       029A8 19173  1                      ACALL CHKABBR
 0028DE 4780 7106            02900 19177  1                      IF    NZ,BEGIN
 0028E2 4110 6000/4100_      00000 19188  2                        TSEG  DEFNAME,L'DEFNAME,TB
 0028F4 4110 7237/4100_      02A31 19218  2                        ERROR 'is not a DEFINED command.'
 002900                            19225  1                      END
 002900 4110 6000            00000 19229  1                      LA    R1,DEFRECD
 002904 58E0 71AA/0DEE       029A4 19230  1                      ACALL CHKDEF
 00290A 4780 7116            02910 19234  1                      IF    NZ,BEGIN
 00290E 0000                       19245  2                        BOMB  ABBREV, BUT NO ENTRY
 002910                            19247  1                      END
 002910                            19251                       END
                                   19255
                                   19256                       COMMENT                   DEFINED, SO UNDEFINE IT
 002910 4110 6000            00000 19257                       LA    R1,DEFNAME
1COMM     (COMM4072) (12:40) (15MAR04) DEFINE Command/Routines                                                              Page   58
0Current Usings:  (DEFRECD,R6) (*,R7) (UDEFWA-(4+36),R8) (CP,R11) (CV,R12)
0Loc    Object Code    Addr1 Addr2  Stmt Lv Lineno    Source Statement           (Hibal 5, Asmedit 3.3)  HLASM R4.0  2004/03/15 12.40
+___    ______ ____    _____ _____  ____ __ ______    ______ _________
0002914 58E0 71B6/0DEE       029B0 19258                       ACALL DELDEF
 00291A 58E0 71BA/0DEE       029B4 19262                       ACALL DELABBR
                                   19266
 002920 47F0 C7DE            007DE 19267                       B     CVNEXT
                                   19268
 002924 18D8/9808 D004_            19269                       PEND  ,          DUMMY, WE EXIT TO CVNEXT ABOVE
 DROP   UDEFWA-(4+36),R8
 DROP   *,R7
 DROP   DEFRECD,R6                 19294                       DROP  R6
1COMM     (COMM4072) (12:40) (15MAR04) DEFINE Command/Routines                                                              Page   59
0Current Usings:  (CP,R11) (CV,R12)
0Loc    Object Code    Addr1 Addr2  Stmt Lv Lineno    Source Statement           (Hibal 5, Asmedit 3.3)  HLASM R4.0  2004/03/15 12.40
+___    ______ ____    _____ _____  ____ __ ______    ______ _________
0                                  19302              ¿þþþþþþþþþþþþþþþþþþþþþþþþþþþþþþþþþþþþþþþþþþþþþþþþþþþþþþþþþþþþþþþþþþþþþÜ
                                   19303              Ÿ                                                                     Ÿ
                                   19304              Ÿ                                                                     Ÿ
                                   19305              Ÿ  CLRDEF - CLEAR ALL DEFINES                                         Ÿ
                                   19306              Ÿ                                                                     Ÿ
                                   19307              Ÿ                                                                     Ÿ
                                   19308              Ÿ                                                                     Ÿ
                                                      ¾þþþþþþþþþþþþþþþþþþþþþþþþþþþþþþþþþþþþþþþþþþþþþþþþþþþþþþþþþþþþþþþþþþþþþ»
0002932 50E0 D000/9008_      00000 19309              CLRDEF   XPROC
 USING  *,R7
                                   19349
                                   19350                       COMMENT                   DELETE DEFINE RECORD SET
 00294C 41F0 B524            00524 19351                       LA    R15,CPRG16
 002950 4100 0003            00003 19352                       LA    R0,CP#DEF
 002954 58E0 706C/0DEE       029B8 19353                       VCALL XDELSET
                                   19357
                                   19358                       COMMENT                   DELETE ABBREV RECORD SET
 00295A 41F0 B524            00524 19359                       LA    R15,CPRG16
 00295E 4100 0004            00004 19360                       LA    R0,CP#ABBR
 002962 58E0 706C/0DEE       029B8 19361                       VCALL XDELSET
                                   19365
 002968 1BFF                       19366                       CLEAR R15
 00296A 18D8/9808 D004_            19370                       PEND
 DROP   *,R7
                                   19390
                                   19391                       QLTORG
1COMM     (COMM4072) (12:40) (15MAR04) DEFINE Command/Routines                                                              Page   60
0Current Usings:  (CP,R11) (CV,R12)
0Loc    Object Code    Addr1 Addr2  Stmt Lv Lineno    Source Statement           (Hibal 5, Asmedit 3.3)  HLASM R4.0  2004/03/15 12.40
+___    ______ ____    _____ _____  ____ __ ______    ______ _________
0                                  19427              ¿þþþþþþþþþþþþþþþþþþþþþþþþþþþþþþþþþþþþþþþþþþþþþþþþþþþþþþþþþþþþþþþþþþþþþÜ
                                   19428              Ÿ                                                                     Ÿ
                                   19429              Ÿ                                                                     Ÿ
                                   19430              Ÿ  SHOW DEFINES                                                       Ÿ
                                   19431              Ÿ                                                                     Ÿ
                                   19432              Ÿ                                                                     Ÿ
                                   19433              Ÿ                                                                     Ÿ
                                   19434              Ÿ                                                                     Ÿ
                                                      ¾þþþþþþþþþþþþþþþþþþþþþþþþþþþþþþþþþþþþþþþþþþþþþþþþþþþþþþþþþþþþþþþþþþþþþ»
0000000                00000 00240 19435              SDFWA    RECORD BEGIN ,
 000000                            19443  1           SDFFIRST   DS    XL16                FIRST DEF TO SHOW
 000010                            19444  1           SDFLAST    DS    XL16                LAST DEF TO SHOW
 000020                            19445  1           SDFRECD    DS    XL(L'DEFRECD)       CURRENT DEFINE RECORD
 000240                00240 00240 19446                       END
                                   19455              *
                                   19456              *
 002A56 50E0 D000/9008_      00000 19457              SHOWDEF  XPROC SDFWA
 USING  *,R7
 USING  SDFWA-(4+36),R8
 002A70 4160 8028            00000 19508                       LA    R6,SDFWA
 USING  SDFWA,R6                   19509                       USING SDFWA,R6
 002A74 4150 6020            00020 19518                       LA    R5,SDFRECD
 USING  DEFRECD,R5                 19519                       USING DEFRECD,R5
                                   19528
                                   19529                       COMMENT                   INITIALIZE/SET DEFAULTS
 002A78 D70F 6000 6000 00000 00000 19530                       CLEAR SDFFIRST            ZERO FIRST NAME AS DEFAULT
 002A7E 4120 6010            00010 19537                       LA    R2,SDFLAST          X'FF' LAST NAME AS DEFAULT
 002A82 4130 0010            00010 19538                       LA    R3,L'SDFLAST
 002A86 58F0 7888            032F8 19539                       L     R15,=X'FF000000'
 002A8A 0E2E                       19540                       MVCL  R2,R14
                                   19541
                                   19542                       COMMENT                   SCAN COMMAND
 002A8C 5810 B08C/1B00_      0008C 19543                       SCAN  SDFPRT
 002ADE 58E0 7894/0DEE       03304 19575                       SCANCHK
                                   19580
                                   19581                       COMMENT                   SET CORRECT DEFINE SET NUMBER
 002AE4 41F0 B524            00524 19582                       LA    R15,CPRG16
 002AE8 4100 0003            00003 19583                       LA    R0,CP#DEF
 002AEC 58E0 7898/0DEE       03308 19584                       VCALL XSETSET
                                   19588
                                   19589                       COMMENT                   LOOP PRINTING DEFINES
 002AF2 D20F 5000 6000 00000 00000 19590                       MVC   DEFNAME,SDFFIRST
 002AF8 41F0 B524            00524 19591                       LA    R15,CPRG16
 002AFC 4100 0210            00210 19592                       LA    R0,L'DEFDATA
 002B00 4110 5010            00010 19593                       LA    R1,DEFDATA
 002B04 4120 5000            00000 19594                       LA    R2,DEFNAME
 002B08 58E0 789C/0DEE       0330C 19595                       VCALL XGETFRST            GET FIRST DEFINE IN SET
 002B0E 4770 7136/D50F_      02BA6 19599                       WHILE (Z,AND,(DEFNAME,LE,SDFLAST)),BEGIN  LOOP THRU DEFS
 002B1C 1821                       19629  1                      LR    R2,R1               @R2 - DEFINE RECORD
 002B1E 4110 5000/4100_      00000 19630  1                      TSEG  DEFNAME,L'DEFNAME,TB
 002B30 4110 790E/4100_      0337E 19660  1                      TSEG  '- '
 002B42 5800 5018            00018 19678  1                      L     R0,DEFTEXTL
 002B46 4110 5020            00020 19679  1                      LA    R1,DEFTEXT
1COMM     (COMM4072) (12:40) (15MAR04) DEFINE Command/Routines                                                              Page   61
0Current Usings:  (DEFRECD,R5) (SDFWA,R6) (*,R7) (SDFWA-(4+36),R8) (CP,R11) (CV,R12)
0Loc    Object Code    Addr1 Addr2  Stmt Lv Lineno    Source Statement           (Hibal 5, Asmedit 3.3)  HLASM R4.0  2004/03/15 12.40
+___    ______ ____    _____ _____  ____ __ ______    ______ _________
0002B4A 41F0 B050/58E0_      00050 19680  1                      TSEG  (R1),(R0)           SEG DEFINE TEXT
 002B54 4110 7942/4100_      033B2 19704  1                      TSEG  '...'
 002B66 5800 501C            0001C 19722  1                      L     R0,DEFAPPDL
 002B6A 5810 5018            00018 19723  1                      L     R1,DEFTEXTL
 002B6E 4111 5020            00020 19724  1                      LA    R1,DEFTEXT(R1)
 002B72 41F0 B050/58E0_      00050 19725  1                      TSEG  (R1),(R0)           SEG APPEND TEXT
 002B7C 1B00/41F0 B050_            19749  1                      TCR
 002B88 4770 C7DE            007DE 19774  1                      BNZ   CVNEXT              IF ATTENTION HIT, QUICK EXIT !!
 002B8C 41F0 B524            00524 19775  1                      LA    R15,CPRG16
 002B90 4100 0210            00210 19776  1                      LA    R0,L'DEFDATA
 002B94 4110 5010            00010 19777  1                      LA    R1,DEFDATA
 002B98 4120 5000            00000 19778  1                      LA    R2,DEFNAME
 002B9C 58E0 78AC/0DEE       0331C 19779  1                      VCALL XGETNEXT
 002BA2 47F0 709E            02B0E 19783                       END
                                   19788
 002BA6 47F0 C7DE            007DE 19789                       B     CVNEXT              OUT OF HERE BOZO !!
                                   19790
 002BAA 1BFF                       19791                       CLEAR R15
 002BAC 18D8/9808 D004_            19795                       PEND  ,          DUMMY, WE EXIT ABOVE
 DROP   SDFWA-(4+36),R8
 DROP   *,R7
-
                                   19821                       ¿þþþþþþþþþþþþþþþþþþþþþþþþþþþþþþþþÜ
                                   19822                       Ÿ  SHOW DEFS OPTIONS  (SCANNED)  Ÿ
                                   19823                       ¾þþþþþþþþþþþþþþþþþþþþþþþþþþþþþþþþ»
 002BBC D3C9D2C540404040_          19824              SDFPRT   SCKW  LIKE,SDFLIKE,(A,P)
 002BE4 C6D9D6D440404040_          19839                       SCKW  FROM,SDFFROM,(A,P)
 002C0C E3D6404040404040_          19854                       SCKW  TO,SDFTO,P
 002C34 4040404040404040_          19869                       SCKW  ,V(COLLPSH),PUSH
 002C5C 4040404040404040_          19884                       SCKW  ,V(NOTVALID)
-
-                                  19900                       ¿þþþþþþþþÜ
                                   19901                       Ÿ  LIKE  Ÿ
                                   19902                       ¾þþþþþþþþ»
 002C84 50E0 D000/9008_      00000 19903              SDFLIKE  PROC
 USING  *,R7
 002C9E 58F0 B08C/4110_      0008C 19942                       SCUPCASE SDFFIRST,L'SDFFIRST
 002CB0 58F0 B08C/4110_      0008C 19965                       SCUPCASE SDFLAST,(R0)
 002CBE 1BFF                       19985                       CLEAR R15
 002CC0 18D8/9808 D004_            19989                       PEND
 DROP   *,R7
                                   20009                       ¿þþþþþþþþÜ
                                   20010                       Ÿ  FROM  Ÿ
                                   20011                       ¾þþþþþþþþ»
 002CCE 50E0 D000/9008_      00000 20012              SDFFROM  PROC
 USING  *,R7
 002CE8 58F0 B08C/4110_      0008C 20051                       SCUPCASE SDFFIRST,L'SDFFIRST
 002CFA 1BFF                       20074                       CLEAR R15
1COMM     (COMM4072) (12:40) (15MAR04) DEFINE Command/Routines                                                              Page   62
0Current Usings:  (DEFRECD,R5) (SDFWA,R6) (CP,R11) (CV,R12)
0Loc    Object Code    Addr1 Addr2  Stmt Lv Lineno    Source Statement           (Hibal 5, Asmedit 3.3)  HLASM R4.0  2004/03/15 12.40
+___    ______ ____    _____ _____  ____ __ ______    ______ _________
0002CFC 18D8/9808 D004_            20078                       PEND
 DROP   *,R7
                                   20098                       ¿þþþþþþÜ
                                   20099                       Ÿ  TO  Ÿ
                                   20100                       ¾þþþþþþ»
 002D0A 50E0 D000/9008_      00000 20101              SDFTO    PROC
 USING  *,R7
 002D24 58F0 B08C/4110_      0008C 20140                       SCUPCASE SDFLAST,(R0)
 002D32 1BFF                       20160                       CLEAR R15
 002D34 18D8/9808 D004_            20164                       PEND
 DROP   *,R7
 DROP   DEFRECD,R5                 20184                       DROP  R5
 DROP   SDFWA,R6                   20191                       DROP  R6
1COMM     (COMM4072) (12:40) (15MAR04) DEFINE Command/Routines                                                              Page   63
0Current Usings:  (CP,R11) (CV,R12)
0Loc    Object Code    Addr1 Addr2  Stmt Lv Lineno    Source Statement           (Hibal 5, Asmedit 3.3)  HLASM R4.0  2004/03/15 12.40
+___    ______ ____    _____ _____  ____ __ ______    ______ _________
0                                  20199              ¿þþþþþþþþþþþþþþþþþþþþþþþþþþþþþþþþþþþþþþþþþþþþþþþþþþþþþþþþþþþþþþþþþþþþþÜ
                                   20200              Ÿ                                                                     Ÿ
                                   20201              Ÿ                                                                     Ÿ
                                   20202              Ÿ  DEFCMD - ROUTINE TO DO ANY DEFINE COMMAND SUBSTITUTION             Ÿ
                                   20203              Ÿ                                                                     Ÿ
                                   20204              Ÿ                                                                     Ÿ
                                   20205              Ÿ  ON ENTRY:                                                          Ÿ
                                   20206              Ÿ       CPCMD, CPCMDLEN - COMMAND BUFFER, COMMAND LENGTH              Ÿ
                                   20207              Ÿ                                                                     Ÿ
                                   20208              Ÿ  ON EXIT:                                                           Ÿ
                                   20209              Ÿ       CPCMD, CPCMDLEN - UPDATED IF SUBSTITUTION DONE                Ÿ
                                   20210              Ÿ       R15 - CC=Z, COMMAND SUBSTITUTED                               Ÿ
                                   20211              Ÿ             CC=NZ, COMMAND NOT SUBSTITUTED                          Ÿ
                                   20212              Ÿ                                                                     Ÿ
                                   20213              Ÿ                                                                     Ÿ
                                   20214              Ÿ                                                                     Ÿ
                                                      ¾þþþþþþþþþþþþþþþþþþþþþþþþþþþþþþþþþþþþþþþþþþþþþþþþþþþþþþþþþþþþþþþþþþþþþ»
0000000                00000 005CC 20215              DCMDWA   RECORD BEGIN
 000000                            20223  1           DCMDREC    DS    XL(L'DEFRECD)       DEFINE RECORD AREA
                                   20224  1           DCMDAREA   DS    XL(4*&LINESZ)       DEFINE CMD ASSEMBLE AREA
 000220                                   1          +DCMDAREA   DS    XL(4*235)           DEFINE CMD ASSEMBLE AREA
 0005CC                005CC 005CC 20225                       END
                                   20234              þþþþ
 002D42 50E0 D000/9008_      00000 20235              DEFCMD   PROC  DCMDWA
 USING  *,R7
 USING  DCMDWA-(4+36),R8
 002D5C 4160 8028            00000 20285                       LA    R6,DCMDREC
 USING  DEFRECD,R6                 20286                       USING DEFRECD,R6
                                   20295
                                   20296                       COMMENT                   INITIALIZE WORK AREA
 002D60 D20F 6000 C4D8 00000 004D8 20297                       MVC   DEFNAME,CVBLANKS
                                   20298
                                   20299                       COMMENT                   SCAN COMMAND NAME
 002D66 4110 B242/4800_      00242 20300                       SCINIT CPCMD,LH:CPCMDLEN
 002D7C 5810 B08C/1B00_      0008C 20323                       SCAN  ,
 002DCA 12FF/4770 7188             20354                       IF    (R15,NZ),NODEFINE
 002DD0 5900 75C8/4720_      03324 20371                       IF    (R0,GT,16),NODEFINE
 002DD8 58F0 B08C/4110_      0008C 20391                       SCUPCASE DEFNAME,L'DEFNAME
                                   20414
                                   20415                       COMMENT                   CHECK IF DEFINED
 002DEA 4110 6000            00000 20416                       LA    R1,DEFRECD
 002DEE 58E0 75CC/0DEE       03328 20417                       ACALL CHKDEF
 002DF4 4780 70BA            02E16 20421                       IF    NZ,BEGIN
 002DF8 4110 6000            00000 20432  1                      LA    R1,DEFNAME
 002DFC 58E0 75D0/0DEE       0332C 20433  1                      ACALL CHKABBR
 002E02 4770 7188            02EE4 20437  1                      BNZ   NODEFINE
 002E06 4110 6000            00000 20438  1                      LA    R1,DEFRECD
 002E0A 58E0 75CC/0DEE       03328 20439  1                      ACALL CHKDEF
 002E10 4780 70BA            02E16 20443  1                      IF    NZ,BEGIN
 002E14 0000                       20454  2                        BOMB  ABBREV, BUT NO ENTRY
 002E16                            20456  1                      END
 002E16                            20460                       END
                                   20464
1COMM     (COMM4072) (12:40) (15MAR04) DEFINE Command/Routines                                                              Page   64
0Current Usings:  (DEFRECD,R6) (*,R7) (DCMDWA-(4+36),R8) (CP,R11) (CV,R12)
0Loc    Object Code    Addr1 Addr2  Stmt Lv Lineno    Source Statement           (Hibal 5, Asmedit 3.3)  HLASM R4.0  2004/03/15 12.40
+___    ______ ____    _____ _____  ____ __ ______    ______ _________
0                                  20465                       COMMENT                   DEFINED, DO SUBSTITUTION
                                   20466                       COMMENT                   R2,R3 - DEFINE SUB TEXT LOC, LEN
                                   20467                       COMMENT                   R4,R5 - APPEND TEXT LOC, LEN
 002E16 4110 B242/4800_      00242 20468                       SCINIT CPCMD,LH:CPCMDLEN  GET TEXT AFTER COMMAND LOC, LEN
 002E2C 5810 B08C/1B00_      0008C 20491                       SCAN  ,
 002E7A 58E0 B08C/581E_      0008C 20522                       SCINFO ,
 002E88 9180 6010/4710_00010       20531                       IF    ~DEFNOTRM,BEGIN
 002E90 58E0 75D4/0DEE       03330 20546  1                      VCALL LRTRIM
 002E96                            20550                       END
 002E96 18F0                       20554                       LR    R15,R0
 002E98 1801                       20555                       LR    R0,R1
 002E9A 181F                       20556                       LR    R1,R15
                                   20557                       COMMENT                   R0,R1 - TEXT AFTER CMD LOC, LEN
 002E9C 41E0 8248            00220 20558                       LA    R14,DCMDAREA
 002EA0 18F3                       20559                       LR    R15,R3
 002EA2 0EE2                       20560                       MVCL  R14,R2              MOVE DEFINE SUBSTITUTION TEXT
 002EA4 18F1                       20561                       LR    R15,R1
 002EA6 0EE0                       20562                       MVCL  R14,R0              MOVE TEXT AFTER COMMAND
 002EA8 18F5                       20563                       LR    R15,R5
 002EAA 0EE4                       20564                       MVCL  R14,R4              MOVE APPEND TEXT
 002EAC 41F0 8248            00220 20565                       LA    R15,DCMDAREA
 002EB0 1BEF                       20566                       SR    R14,R15             R14 - NEW TEXT LEN
                                   20567
                                   20568                       COMMENT                   CHECK NEW TEXT LEN, MOVE TO CPCMD
 002EB2 59E0 75D8/47D0_      03334 20569                       IF    (R14,GT,&LINESZ),BEGIN
 002EBA 4110 75DC/4100_      03338 20586  1                      ERROR 'DEFINE substitution exceeds 235 characters. '
 002EC6                            20593                       END
 002EC6 40E0 B240            00240 20597                       STH   R14,CPCMDLEN
 002ECA 4120 B242            00242 20598                       LA    R2,CPCMD
 002ECE 4130 00EB            000EB 20599                       LA    R3,L'CPCMD
 002ED2 4140 8248            00220 20600                       LA    R4,DCMDAREA
 002ED6 185E                       20601                       LR    R5,R14
 002ED8 5650 7608            03364 20602                       O     R5,=X'40000000'
 002EDC 0E24                       20603                       MVCL  R2,R4               MOVE NEW CMD TEXT TO CPCMD
 002EDE 1BFF                       20604                       CLEAR R15
 002EE0 47F0 718C            02EE8 20608                       B     DEFCDONE
                                   20609
 002EE4                            20610              NODEFINE LABEL
 002EE4 41F0 0004            00004 20612                       LA    R15,4
                                   20613
 002EE8                            20614              DEFCDONE LABEL
 002EE8 18D8/9808 D004_            20616                       PEND
 DROP   DCMDWA-(4+36),R8
 DROP   *,R7
 DROP   DEFRECD,R6                 20641                       DROP  R6
1COMM     (COMM4072) (12:40) (15MAR04) DEFINE Command/Routines                                                              Page   65
0Current Usings:  (CP,R11) (CV,R12)
0Loc    Object Code    Addr1 Addr2  Stmt Lv Lineno    Source Statement           (Hibal 5, Asmedit 3.3)  HLASM R4.0  2004/03/15 12.40
+___    ______ ____    _____ _____  ____ __ ______    ______ _________
0                                  20649              ¿þþþþþþþþþþþþþþþþþþþþþþþþþþþþþþþþþþþþþþþþþþþþþþþþþþþþþþþþþþþþþþþþþþþþþÜ
                                   20650              Ÿ                                                                     Ÿ
                                   20651              Ÿ                                                                     Ÿ
                                   20652              Ÿ  ADDDEF - ADD DEFINE COMMAND TO DEFINE RECORD GROUP                 Ÿ
                                   20653              Ÿ                                                                     Ÿ
                                   20654              Ÿ  ON ENTRY:                                                          Ÿ
                                   20655              Ÿ       @R1 - DEFINE RECORD                                           Ÿ
                                   20656              Ÿ       WE SQUISH COMMAND, APPEND TEXT BY SIMPLE CONCATENATION        Ÿ
                                   20657              Ÿ                                                                     Ÿ
                                   20658              Ÿ  ON EXIT:                                                           Ÿ
                                   20659              Ÿ       R15 - ZERO                                                    Ÿ
                                   20660              Ÿ       COMMAND ADDED TO DEFINE RECORD GROUP                          Ÿ
                                   20661              Ÿ                                                                     Ÿ
                                   20662              Ÿ                                                                     Ÿ
                                   20663              Ÿ                                                                     Ÿ
                                                      ¾þþþþþþþþþþþþþþþþþþþþþþþþþþþþþþþþþþþþþþþþþþþþþþþþþþþþþþþþþþþþþþþþþþþþþ»
0002EF6 50E0 D000/9008_      00000 20664              ADDDEF   PROC
 USING  *,R7
 002F10 1861                       20703                       LR    R6,R1
 USING  DEFRECD,R6                 20704                       USING DEFRECD,R6
                                   20713
                                   20714                       COMMENT                   CHECK TEXT LENGTHS
 002F12 D503 7458 6018_03368 00018 20715                       IF    (DEFTEXTL,GT,&LINESZ),BEGIN
 002F1C 4110 7470/4100_      03380 20733  1                      ERROR 'DEFINE replacement text too long. Define not done.'
 002F28                            20740                       END
 002F28 D503 7458 601C_03368 0001C 20744                       IF    (DEFAPPDL,GT,&LINESZ),BEGIN
 002F32 4110 74A5/4100_      033B5 20762  1                      ERROR 'DEFINE append text too long. Define not done.'
 002F3E                            20769                       END
                                   20773
                                   20774                       COMMENT                   SAVE RECORD
 002F3E 41F0 B524            00524 20775                       LA    R15,CPRG16
 002F42 4100 0003            00003 20776                       LA    R0,CP#DEF
 002F46 58E0 73F8/0DEE       03308 20777                       VCALL XSETSET
 002F4C 41F0 B524            00524 20781                       LA    R15,CPRG16
 002F50 4100 6020            00020 20782                       LA    R0,DEFTEXT          R0, CALC ACTUAL DEF RECD LEN
 002F54 5A00 6018            00018 20783                       A     R0,DEFTEXTL
 002F58 5A00 601C            0001C 20784                       A     R0,DEFAPPDL
 002F5C 4110 6010            00010 20785                       LA    R1,DEFDATA
 002F60 1B01                       20786                       SR    R0,R1
 002F62 4110 6010            00010 20787                       LA    R1,DEFDATA
 002F66 4120 6000            00000 20788                       LA    R2,DEFNAME
 002F6A 58E0 745C/0DEE       0336C 20789                       VCALL XPUT
 002F70 4780 707C            02F8C 20793                       IF    NZ,BEGIN
 002F74 900F C780/4DE0_      00780 20804  1                      KAPUT DEFFULL,'Session Data Record Group Overflow.'
 002F8C                            20811                       END
                                   20815
 002F8C 1BFF                       20816                       CLEAR R15
 002F8E 18D8/9808 D004_            20820                       PEND
 DROP   *,R7
 DROP   DEFRECD,R6                 20840                       DROP  R6
1COMM     (COMM4072) (12:40) (15MAR04) DEFINE Command/Routines                                                              Page   66
0Current Usings:  (CP,R11) (CV,R12)
0Loc    Object Code    Addr1 Addr2  Stmt Lv Lineno    Source Statement           (Hibal 5, Asmedit 3.3)  HLASM R4.0  2004/03/15 12.40
+___    ______ ____    _____ _____  ____ __ ______    ______ _________
0                                  20848              ¿þþþþþþþþþþþþþþþþþþþþþþþþþþþþþþþþþþþþþþþþþþþþþþþþþþþþþþþþþþþþþþþþþþþþþÜ
                                   20849              Ÿ                                                                     Ÿ
                                   20850              Ÿ                                                                     Ÿ
                                   20851              Ÿ  ADDABBR - ADD DEFINE ABBREVIATION                                  Ÿ
                                   20852              Ÿ                                                                     Ÿ
                                   20853              Ÿ  ON ENTRY:                                                          Ÿ
                                   20854              Ÿ       @R1 - DEFINE NAME, LEFT JUSTIFIED IN 16 BYTE AREA             Ÿ
                                   20855              Ÿ            (NOTE: @R1 MUST BE FULL NAME, NOT ABBREVIATED)           Ÿ
                                   20856              Ÿ                                                                     Ÿ
                                   20857              Ÿ                                                                     Ÿ
                                   20858              Ÿ                                                                     Ÿ
                                                      ¾þþþþþþþþþþþþþþþþþþþþþþþþþþþþþþþþþþþþþþþþþþþþþþþþþþþþþþþþþþþþþþþþþþþþþ»
0000000                00000 00210 20859              AABBRWA  RECORD BEGIN
 000000                            20867  1           AABBRREC   DS    XL(L'ABBRRECD)
 000210                00210 00210 20868                       END
                                   20877              þþþþ
 002F9C 50E0 D000/9008_      00000 20878              ADDABBR  PROC  AABBRWA
 USING  *,R7
 USING  AABBRWA-(4+36),R8
 002FB6 4160 8028            00000 20928                       LA    R6,AABBRREC
 USING  ABBRRECD,R6                20929                       USING ABBRRECD,R6
 002FBA 1831                       20938                       LR    R3,R1               @R3 - FULL NAME TO ABBREVIATE
                                   20939
                                   20940                       COMMENT                   IF NAME LEN < 4, NO ABBREVIATION
 002FBC 9540 3003/4780_00003       20941                       IF    (@R3+3,EQ,' '),ADDADONE
                                   20960
                                   20961                       COMMENT                   INITIALIZE WORK AREA
 002FC4 D7FF 6000 6000_00000 00000 20962                       CLEAR ABBRRECD
 002FD6 D20F 6000 C4D8 00000 004D8 20971                       MVC   ABBRNAME,CVBLANKS
 002FDC D202 6000 3000 00000 00000 20972                       MVC   ABBRNAME(3),@R3
                                   20973
                                   20974                       COMMENT                   READ IN ANY EXISTING ABBR RECORD
 002FE2 41F0 B524            00524 20975                       LA    R15,CPRG16
 002FE6 4100 0004            00004 20976                       LA    R0,CP#ABBR
 002FEA 58E0 7352/0DEE       03308 20977                       VCALL XSETSET
 002FF0 41F0 B524            00524 20981                       LA    R15,CPRG16
 002FF4 4100 0200            00200 20982                       LA    R0,L'ABBRDATA
 002FF8 4110 6010            00010 20983                       LA    R1,ABBRDATA
 002FFC 4120 6000            00000 20984                       LA    R2,ABBRNAME
 003000 58E0 73BA/0DEE       03370 20985                       VCALL XGET
                                   20989
                                   20990                       COMMENT                   IF NO ABBREV RECORD, ADD ONE
 003006 4780 708C            03042 20991                       IF    NZ,BEGIN
 00300A D20F 6010 3000 00010 00000 21002  1                      MVC   ABBRDATA(L'ABBRNTRY),@R3
 003010 41F0 B524            00524 21003  1                      LA    R15,CPRG16
 003014 4100 0010            00010 21004  1                      LA    R0,L'ABBRNTRY
 003018 4110 6010            00010 21005  1                      LA    R1,ABBRDATA
 00301C 4120 6000            00000 21006  1                      LA    R2,ABBRNAME
 003020 58E0 73B6/0DEE       0336C 21007  1                      VCALL XPUT
 003026 4780 708C            03042 21011  1                      IF    NZ,BEGIN
 00302A 900F C780/4DE0_      00780 21022  2                        KAPUT DEFFULL,'Session Data Record Group Overflow.'
 003042                            21029  1                      END
 003042                            21033                       END
1COMM     (COMM4072) (12:40) (15MAR04) DEFINE Command/Routines                                                              Page   67
0Current Usings:  (ABBRRECD,R6) (*,R7) (AABBRWA-(4+36),R8) (CP,R11) (CV,R12)
0Loc    Object Code    Addr1 Addr2  Stmt Lv Lineno    Source Statement           (Hibal 5, Asmedit 3.3)  HLASM R4.0  2004/03/15 12.40
+___    ______ ____    _____ _____  ____ __ ______    ______ _________
0                                  21037
                                   21038                       COMMENT                   WE HAVE ABBREV RECORD, DOES IT
                                   21039                       COMMENT                   CONTAIN THIS NAME ??
 003042 7090/47F0 70FC 03042 03008 21040                       ELSE  BEGIN
 003046 1A10                       21051  1                      AR    R1,R0               R1 - END OF RECORD
 003048 4140 6010            00010 21052  1                      LA    R4,ABBRDATA
 00304C 1941/47B0 70AE_            21053  1                      WHILE ((R4,LT,R1),AND,(' CLC 0(16,R4),0(R3)',NE)),BEGIN
 00305C 4144 0010            00010 21082  2                        LA    R4,L'ABBRNTRY(R4)
 003060 47F0 7096            0304C 21083  1                      END
 003064 1941/4750 70FC             21088  1                      IF    (R4,GE,R1),BEGIN    NO, DOES NOT HAVE THIS NAME, ADD
 00306A 1941/4780 70BC_            21103  2                        IF    (R4,NE,R1),' BOMB '
 003072 D20F 4000 3000 00000 00000 21125  2                        MVC   0(L'ABBRNTRY,R4),0(R3)      MOVE IN NEW NAME
 003078 4144 0010            00010 21126  2                        LA    R4,L'ABBRNTRY(R4)
 00307C 4150 6010            00010 21127  2                        LA    R5,ABBRDATA
 003080 1B45                       21128  2                        SR    R4,R5                       LEN OF NEW RECORD
 003082 41F0 B524            00524 21129  2                        LA    R15,CPRG16
 003086 1804                       21130  2                        LR    R0,R4
 003088 4110 6010            00010 21131  2                        LA    R1,ABBRDATA
 00308C 4120 6000            00000 21132  2                        LA    R2,ABBRNAME
 003090 58E0 73B6/0DEE       0336C 21133  2                        VCALL XPUT
 003096 4780 70FC            030B2 21137  2                        IF    NZ,BEGIN
 00309A 900F C780/4DE0_      00780 21148  3                          KAPUT DEFFULL,'Session Data Record Group Overflow.'
 0030B2                            21155  2                        END
 0030B2                            21159  1                      END
 0030B2                            21163                       END
                                   21167
 0030B2                            21168              ADDADONE LABEL
 0030B2 1BFF                       21170                       CLEAR R15
 0030B4 18D8/9808 D004_            21174                       PEND
 DROP   AABBRWA-(4+36),R8
 DROP   *,R7
 DROP   ABBRRECD,R6                21199                       DROP  R6
1COMM     (COMM4072) (12:40) (15MAR04) DEFINE Command/Routines                                                              Page   68
0Current Usings:  (CP,R11) (CV,R12)
0Loc    Object Code    Addr1 Addr2  Stmt Lv Lineno    Source Statement           (Hibal 5, Asmedit 3.3)  HLASM R4.0  2004/03/15 12.40
+___    ______ ____    _____ _____  ____ __ ______    ______ _________
0                                  21207              ¿þþþþþþþþþþþþþþþþþþþþþþþþþþþþþþþþþþþþþþþþþþþþþþþþþþþþþþþþþþþþþþþþþþþþþÜ
                                   21208              Ÿ                                                                     Ÿ
                                   21209              Ÿ                                                                     Ÿ
                                   21210              Ÿ  CHKDEF - CHECK TO SEE IF COMMAND IS DEFINED.                       Ÿ
                                   21211              Ÿ                                                                     Ÿ
                                   21212              Ÿ  ON ENTRY:                                                          Ÿ
                                   21213              Ÿ       @R1 - DEFINE RECORD, WITH DEFINE NAME SET UP,                 Ÿ
                                   21214              Ÿ             LEFT JUSTIFIED IN 16 BYTE AREA                          Ÿ
                                   21215              Ÿ                                                                     Ÿ
                                   21216              Ÿ  ON EXIT:                                                           Ÿ
                                   21217              Ÿ       R2,R3 - SUBSTITUTION TEXT LOC, LEN,,, IF DEFINED              Ÿ
                                   21218              Ÿ       R4,R5 - APPEND TEXT LOC, LEN,,,  IF DEFINED                   Ÿ
                                   21219              Ÿ       R15 - CC=Z, NAME IS DEFINED                                   Ÿ
                                   21220              Ÿ             CC=NZ, NAME IS NOT DEFINED                              Ÿ
                                   21221              Ÿ                                                                     Ÿ
                                   21222              Ÿ                                                                     Ÿ
                                                      ¾þþþþþþþþþþþþþþþþþþþþþþþþþþþþþþþþþþþþþþþþþþþþþþþþþþþþþþþþþþþþþþþþþþþþþ»
00030C2 50E0 D000/9008_      00000 21223              CHKDEF   PROC
 USING  *,R7
 0030DC 1861                       21262                       LR    R6,R1
 USING  DEFRECD,R6                 21263                       USING DEFRECD,R6
                                   21272
 0030DE 41F0 B524            00524 21273                       LA    R15,CPRG16
 0030E2 4100 0003            00003 21274                       LA    R0,CP#DEF
 0030E6 58E0 722C/0DEE       03308 21275                       VCALL XSETSET
 0030EC 41F0 B524            00524 21279                       LA    R15,CPRG16
 0030F0 4100 0210            00210 21280                       LA    R0,L'DEFDATA
 0030F4 4110 6010            00010 21281                       LA    R1,DEFDATA
 0030F8 4120 6000            00000 21282                       LA    R2,DEFNAME
 0030FC 58E0 7294/0DEE       03370 21283                       VCALL XGET
 003102 4770 703A            03116 21287                       IF    Z,BEGIN
 003106 4120 6020            00020 21298  1                      LA    R2,DEFTEXT
 00310A 5830 6018            00018 21299  1                      L     R3,DEFTEXTL
 00310E 4142 3000            00000 21300  1                      LA    R4,0(R2,R3)
 003112 5850 601C            0001C 21301  1                      L     R5,DEFAPPDL
 003116                            21302                       END
                                   21306
 003116 9005 8004            00004 21307                       PRETURN (R0,R5)
 00311A 18D8/9808 D004_            21309                       PEND
 DROP   *,R7
 DROP   DEFRECD,R6                 21329                       DROP  R6
1COMM     (COMM4072) (12:40) (15MAR04) DEFINE Command/Routines                                                              Page   69
0Current Usings:  (CP,R11) (CV,R12)
0Loc    Object Code    Addr1 Addr2  Stmt Lv Lineno    Source Statement           (Hibal 5, Asmedit 3.3)  HLASM R4.0  2004/03/15 12.40
+___    ______ ____    _____ _____  ____ __ ______    ______ _________
0                                  21337              ¿þþþþþþþþþþþþþþþþþþþþþþþþþþþþþþþþþþþþþþþþþþþþþþþþþþþþþþþþþþþþþþþþþþþþþÜ
                                   21338              Ÿ                                                                     Ÿ
                                   21339              Ÿ                                                                     Ÿ
                                   21340              Ÿ  CHKABBR - CHECK IF ABBREVIATION IS DEFINED                         Ÿ
                                   21341              Ÿ                                                                     Ÿ
                                   21342              Ÿ  ON ENTRY:                                                          Ÿ
                                   21343              Ÿ       @R1 - DEFINE NAME, LEFT JUSTIFIED IN 16 BYTE AREA             Ÿ
                                   21344              Ÿ            (NOTE: NAME MAY BE ANY LEN ABBREVIATION)                 Ÿ
                                   21345              Ÿ                                                                     Ÿ
                                   21346              Ÿ  ON EXIT:                                                           Ÿ
                                   21347              Ÿ       @R1 - FULL NAME, LEFT JUSTIFIED,,,  IF ABBREVIATED            Ÿ
                                   21348              Ÿ       R15 - CC=Z, IF NAME IS ABBREVIATED                            Ÿ
                                   21349              Ÿ             CC=NZ, IF NAME IS NOT ABBREVIATED                       Ÿ
                                   21350              Ÿ                                                                     Ÿ
                                   21351              Ÿ                                                                     Ÿ
                                                      ¾þþþþþþþþþþþþþþþþþþþþþþþþþþþþþþþþþþþþþþþþþþþþþþþþþþþþþþþþþþþþþþþþþþþþþ»
0000000                00000 00210 21352              CABBRWA  RECORD BEGIN
 000000                            21360  1           CABBRREC   DS    XL(L'ABBRRECD)
 000210                00210 00210 21361                       END
                                   21370              þþþþ
 003128 50E0 D000/9008_      00000 21371              CHKABBR  PROC  CABBRWA
 USING  *,R7
 USING  CABBRWA-(4+36),R8
 003142 4160 8028            00000 21421                       LA    R6,CABBRREC
 USING  ABBRRECD,R6                21422                       USING ABBRRECD,R6
                                   21431
                                   21432                       COMMENT                   @R4 - NAME TO CHECK
 003146 1841                       21433                       LR    R4,R1               @R4 - NAME TO CHECK
                                   21434
                                   21435                       COMMENT                   GET ABBREVIATED RECORD
 003148 D20F 6000 C4D8 00000 004D8 21436                       MVC   ABBRNAME,CVBLANKS
 00314E D202 6000 4000 00000 00000 21437                       MVC   ABBRNAME(3),@R4
 003154 41F0 B524            00524 21438                       LA    R15,CPRG16
 003158 4100 0004            00004 21439                       LA    R0,CP#ABBR
 00315C 58E0 71C6/0DEE       03308 21440                       VCALL XSETSET
 003162 41F0 B524            00524 21444                       LA    R15,CPRG16
 003166 4100 0200            00200 21445                       LA    R0,L'ABBRDATA
 00316A 4110 6010            00010 21446                       LA    R1,ABBRDATA
 00316E 4120 6000            00000 21447                       LA    R2,ABBRNAME
 003172 58E0 722E/0DEE       03370 21448                       VCALL XGET
 003178 4770 7076            031B8 21452                       BNZ   NOTABBR
                                   21453
                                   21454                       COMMENT                   GOT ABBREVIATED RECORD, CHECK IT
                                   21455                       COMMENT                   R1,R0 - RECORD LOC, LEN
 00317C 4130 400F            0000F 21456                       LA    R3,@R4+15           R3,R4 - NAME LEN-1, LOC
 003180 9540 3000/4770_00000       21457                       WHILE (@R3,EQ,' '),BEGIN          GET NAME LEN-1
 003188 0630                       21475  1                      DECR  R3
 00318A 47F0 703E            03180 21477                       END
 00318E 1B34                       21482                       SR    R3,R4
 003190 1A01                       21483                       AR    R0,R1               SEARCH THRU ABBREV LIST
 003192 1910/47B0 7066             21484                       WHILE (R1,LT,R0),BEGIN
 003198 4430 72A0/D500_      033E2 21501  1                      EX    R3,' CLC @R1(0),@R4 '
 00319C 4780 706A            031AC 21517  1                      BE    GOTABBR             FOUND ABBREVIATION ENTRY
1COMM     (COMM4072) (12:40) (15MAR04) DEFINE Command/Routines                                                              Page   70
0Current Usings:  (ABBRRECD,R6) (*,R7) (CABBRWA-(4+36),R8) (CP,R11) (CV,R12)
0Loc    Object Code    Addr1 Addr2  Stmt Lv Lineno    Source Statement           (Hibal 5, Asmedit 3.3)  HLASM R4.0  2004/03/15 12.40
+___    ______ ____    _____ _____  ____ __ ______    ______ _________
00031A0 4111 0010            00010 21518  1                      LA    R1,16(R1)
 0031A4 47F0 7050            03192 21519                       END
 0031A8 47F0 7076            031B8 21524                       B     NOTABBR             DID NOT FIND ABBREVIATION ENTRY
                                   21525
 0031AC                            21526              GOTABBR  LABEL
 0031AC D20F 4000 1000 00000 00000 21528                       MVC   0(16,R4),0(R1)      MOVE FULL NAME
 0031B2 1BFF                       21529                       CLEAR R15
 0031B4 47F0 707E            031C0 21533                       B     CHKADONE
                                   21534
 0031B8                            21535              NOTABBR  LABEL
 0031B8 41F0 0004            00004 21537                       LA    R15,4
 0031BC 47F0 707E            031C0 21538                       B     CHKADONE
                                   21539
 0031C0                            21540              CHKADONE LABEL
 0031C0 18D8/9808 D004_            21542                       PEND
 DROP   CABBRWA-(4+36),R8
 DROP   *,R7
 DROP   ABBRRECD,R6                21567                       DROP  R6
1COMM     (COMM4072) (12:40) (15MAR04) DEFINE Command/Routines                                                              Page   71
0Current Usings:  (CP,R11) (CV,R12)
0Loc    Object Code    Addr1 Addr2  Stmt Lv Lineno    Source Statement           (Hibal 5, Asmedit 3.3)  HLASM R4.0  2004/03/15 12.40
+___    ______ ____    _____ _____  ____ __ ______    ______ _________
0                                  21575              ¿þþþþþþþþþþþþþþþþþþþþþþþþþþþþþþþþþþþþþþþþþþþþþþþþþþþþþþþþþþþþþþþþþþþþþÜ
                                   21576              Ÿ                                                                     Ÿ
                                   21577              Ÿ                                                                     Ÿ
                                   21578              Ÿ  DELDEF - DELETE DEFINE ENTRY                                       Ÿ
                                   21579              Ÿ                                                                     Ÿ
                                   21580              Ÿ  ON ENTRY:                                                          Ÿ
                                   21581              Ÿ       @R1 - DEFINE NAME, LEFT JUSTIFIED IN 16 BYTE AREA             Ÿ
                                   21582              Ÿ            (NOTE: @R1 MUST BE FULL NAME, NOT ABBREVIATED)           Ÿ
                                   21583              Ÿ                                                                     Ÿ
                                   21584              Ÿ  ON EXIT:                                                           Ÿ
                                   21585              Ÿ       R15 - CC=ZERO,  WE DO NOT CHECK IF ENTRY EXISTS.              Ÿ
                                   21586              Ÿ                                                                     Ÿ
                                   21587              Ÿ                                                                     Ÿ
                                                      ¾þþþþþþþþþþþþþþþþþþþþþþþþþþþþþþþþþþþþþþþþþþþþþþþþþþþþþþþþþþþþþþþþþþþþþ»
00031CE 50E0 D000/9008_      00000 21588              DELDEF   PROC
 USING  *,R7
 0031E8 41F0 B524            00524 21627                       LA    R15,CPRG16
 0031EC 4100 0003            00003 21628                       LA    R0,CP#DEF
 0031F0 58E0 7120/0DEE       03308 21629                       VCALL XSETSET
                                   21633
 0031F6 41F0 B524            00524 21634                       LA    R15,CPRG16
 0031FA 1821                       21635                       LR    R2,R1
 0031FC 58E0 718C/0DEE       03374 21636                       VCALL XDELETE
                                   21640
 003202 1BFF                       21641                       CLEAR R15
 003204 18D8/9808 D004_            21645                       PEND
 DROP   *,R7
1COMM     (COMM4072) (12:40) (15MAR04) DEFINE Command/Routines                                                              Page   72
0Current Usings:  (CP,R11) (CV,R12)
0Loc    Object Code    Addr1 Addr2  Stmt Lv Lineno    Source Statement           (Hibal 5, Asmedit 3.3)  HLASM R4.0  2004/03/15 12.40
+___    ______ ____    _____ _____  ____ __ ______    ______ _________
0                                  21666              ¿þþþþþþþþþþþþþþþþþþþþþþþþþþþþþþþþþþþþþþþþþþþþþþþþþþþþþþþþþþþþþþþþþþþþþÜ
                                   21667              Ÿ                                                                     Ÿ
                                   21668              Ÿ                                                                     Ÿ
                                   21669              Ÿ  DELABBR - DELETE DEFINE ABBREVIATION ENTRY                         Ÿ
                                   21670              Ÿ                                                                     Ÿ
                                   21671              Ÿ  ON ENTRY:                                                          Ÿ
                                   21672              Ÿ       @R1 - DEFINE NAME, LEFT JUSTIFIED IN 16 BYTE AREA             Ÿ
                                   21673              Ÿ            (NOTE: @R1 MUST BE FULL NAME, NOT ABBREVIATED)           Ÿ
                                   21674              Ÿ                                                                     Ÿ
                                   21675              Ÿ  ON EXIT:                                                           Ÿ
                                   21676              Ÿ       R15 - CC=ZERO,  WE DO NOT CHECK IF ENTRY EXISTS.              Ÿ
                                   21677              Ÿ                                                                     Ÿ
                                   21678              Ÿ                                                                     Ÿ
                                                      ¾þþþþþþþþþþþþþþþþþþþþþþþþþþþþþþþþþþþþþþþþþþþþþþþþþþþþþþþþþþþþþþþþþþþþþ»
0000000                00000 00210 21679              DABBRWA  RECORD BEGIN
 000000                            21687  1           DABBRREC   DS    XL(L'ABBRRECD)      ABBREV RECORD
 000210                00210 00210 21688                       END
                                   21697              þþþþ
 003212 50E0 D000/9008_      00000 21698              DELABBR  PROC  DABBRWA
 USING  *,R7
 USING  DABBRWA-(4+36),R8
 00322C 4160 8028            00000 21748                       LA    R6,DABBRREC
 USING  ABBRRECD,R6                21749                       USING ABBRRECD,R6
                                   21758
                                   21759                       COMMENT                   R4 - DEFINE NAME TO DELETE
 003230 1841                       21760                       LR    R4,R1               R4 - DEFINE NAME TO DELETE
                                   21761
                                   21762                       COMMENT                   GET ABBREV RECORD NAME
 003232 D20F 6000 C4D8 00000 004D8 21763                       MVC   ABBRNAME,CVBLANKS
 003238 D202 6000 4000 00000 00000 21764                       MVC   ABBRNAME(3),@R4
                                   21765
                                   21766                       COMMENT                   GET ABBREV RECORD
 00323E 41F0 B524            00524 21767                       LA    R15,CPRG16
 003242 4100 0004            00004 21768                       LA    R0,CP#ABBR
 003246 58E0 70DC/0DEE       03308 21769                       VCALL XSETSET
 00324C 41F0 B524            00524 21773                       LA    R15,CPRG16
 003250 4100 0200            00200 21774                       LA    R0,L'ABBRDATA
 003254 4110 6010            00010 21775                       LA    R1,ABBRDATA
 003258 4120 6000            00000 21776                       LA    R2,ABBRNAME
 00325C 58E0 7144/0DEE       03370 21777                       VCALL XGET
                                   21781
                                   21782                       COMMENT                   IF ABBREV RECORD, CHECK FOR ENTRY
 003262 4770 70BA            032E6 21783                       IF    Z,BEGIN
 003266 1A01                       21794  1                      AR    R0,R1               R0 - END OF RECORDD
 003268 1910/47B0 7054_            21795  1                      WHILE ((R1,LT,R0),AND,(' CLC 0(16,R1),0(R4) ',NE)),BEGIN
 003278 4111 0010            00010 21824  2                        LA    R1,L'ABBRNTRY(R1)
 00327C 47F0 703C            03268 21825  1                      END
 003280 1910/47B0 70BA             21830  1                      IF    (R1,LT,R0),BEGIN    IF ENTRY FOUND IN RECD, DELETE
 003286 1821                       21845  2                        LR    R2,R1
 003288 4141 0010            00010 21846  2                        LA    R4,L'ABBRNTRY(R1)
 00328C 1830                       21847  2                        LR    R3,R0
 00328E 1B34                       21848  2                        SR    R3,R4
 003290 1853                       21849  2                        LR    R5,R3
1COMM     (COMM4072) (12:40) (15MAR04) DEFINE Command/Routines                                                              Page   73
0Current Usings:  (ABBRRECD,R6) (*,R7) (DABBRWA-(4+36),R8) (CP,R11) (CV,R12)
0Loc    Object Code    Addr1 Addr2  Stmt Lv Lineno    Source Statement           (Hibal 5, Asmedit 3.3)  HLASM R4.0  2004/03/15 12.40
+___    ______ ____    _____ _____  ____ __ ______    ______ _________
0003292 0E24                       21850  2                        MVCL  R2,R4               MOVE OLD ENTRIES UP
 003294 5B00 714C            03378 21851  2                        S     R0,=F'16'
 003298 4110 6010            00010 21852  2                        LA    R1,ABBRDATA
 00329C 1B01                       21853  2                        SR    R0,R1               R0 - NEW ABBR RECORD LEN
                                   21854  2
                                   21855  2                        COMMENT                   WRITE NEW ENTRY, W/OUT ABBREV
 00329E 1200/47D0 70A8             21856  2                        IF    (R0,POS),BEGIN
 0032A4 41F0 B524            00524 21870  3                          LA    R15,CPRG16
 0032A8 1800                       21871  3                          LR    R0,R0
 0032AA 4110 6010            00010 21872  3                          LA    R1,ABBRDATA
 0032AE 4120 6000            00000 21873  3                          LA    R2,ABBRNAME
 0032B2 58E0 7140/0DEE       0336C 21874  3                          VCALL XPUT
 0032B8 4780 70A8            032D4 21878  3                          IF    NZ,BEGIN
 0032BC 900F C780/4DE0_      00780 21889  4                            KAPUT DEFFULL,'Session Data Record Group Overflow. '
 0032D4                            21896  3                          END
 0032D4                            21900  2                        END
                                   21904  2
                                   21905  2                        COMMENT                   IF EMPTY ABBREV RECORD, JUST DELETE
 0032D4 70AC/47F0 70BA 032D4 032A2 21906  2                        ELSE BEGIN
 0032D8 41F0 B524            00524 21917  3                          LA    R15,CPRG16
 0032DC 4120 6000            00000 21918  3                          LA    R2,ABBRNAME
 0032E0 58E0 7148/0DEE       03374 21919  3                          VCALL XDELETE
 0032E6                            21923  2                        END
 0032E6                            21927  1                      END , ABBREV ENTRY EXISTS
 0032E6                            21931                       END , ABBREV RECORD EXITS
                                   21935
 0032E6 1BFF                       21936                       CLEAR R15
 0032E8 18D8/9808 D004_            21940                       PEND
 DROP   DABBRWA-(4+36),R8
 DROP   *,R7
 DROP   ABBRRECD,R6                21965                       DROP  R6
                                   21972
                                   21973                       QLTORG
1COMM     (COMM4072) (12:40) (15MAR04) HISTORY Routines                                                                     Page   74
0Current Usings:  (CP,R11) (CV,R12)
0Loc    Object Code    Addr1 Addr2  Stmt Lv Lineno    Source Statement           (Hibal 5, Asmedit 3.3)  HLASM R4.0  2004/03/15 12.40
+___    ______ ____    _____ _____  ____ __ ______    ______ _________
0000000                00000 00017 22014              HCMD     RECORD BEGIN
 000000                            22022  1           HCMDID     DS    C'CMD'              Self identification
 000003 00                         22023  1           HCMDFLAG   FLAG
 000004                            22027  1           HCMDPREV   DS    A                   Previous HCMD entry ptr
 000008                            22028  1           HCMDNEXT   DS    A                   Next HCMD entry ptr
 00000C                            22029  1           HCMDCLCK   DS    F                   Clock when command was saved
 000010                            22030  1           HCMDXLNO   DS    F                   EXEC lineno if EXEC command
 000014                            22031  1           HCMDNO     DS    H                   Command number
 000016                            22032  1           HCMDLEN    DS    X                   Command length
 000017                            22033  1           HCMDTEXT   DS    0CL(L'CPCMD)        Command text
 000017                00017 00017 22034                       END
-                                  22044              ¿þþþþþþþþþþþþþþþþþþþþþþþþþþþþþþþþþþþþþþþþþþþþþþþþþþþþþþþþþþþþþþþþþþþþþÜ
                                   22045              Ÿ                                                                     Ÿ
                                   22046              Ÿ  SETHIST -- SET HISTORY Command.                                    Ÿ
                                   22047              Ÿ                                                                     Ÿ
                                                      ¾þþþþþþþþþþþþþþþþþþþþþþþþþþþþþþþþþþþþþþþþþþþþþþþþþþþþþþþþþþþþþþþþþþþþþ»
00033E8 50E0 D000/9008_      00000 22048              SETHIST  XPROC
 USING  *,R7
 003402 1850                       22088                       LR    R5,R0
 003404 5810 B08C/1B00_      0008C 22089                       SCAN  ,                   Nothing else
 003452 1200/4780 705C_            22120                       IF    (R0,NZ),'VCALL NOTVALID'
                                   22143
 00345E 4050 B86C            0086C 22144                       STH   R5,CPHCMDMX         Max no. of cmds to display
                                   22145
 003462 47F0 C7DE            007DE 22146                       B     CVNEXT
 003466 18D8/9808 D004_            22147                       PEND
 DROP   *,R7
1COMM     (COMM4072) (12:40) (15MAR04) HISTORY Routines                                                                     Page   75
0Current Usings:  (CP,R11) (CV,R12)
0Loc    Object Code    Addr1 Addr2  Stmt Lv Lineno    Source Statement           (Hibal 5, Asmedit 3.3)  HLASM R4.0  2004/03/15 12.40
+___    ______ ____    _____ _____  ____ __ ______    ______ _________
0                                  22168              ¿þþþþþþþþþþþþþþþþþþþþþþþþþþþþþþþþþþþþþþþþþþþþþþþþþþþþþþþþþþþþþþþþþþþþþÜ
                                   22169              Ÿ                                                                     Ÿ
                                   22170              Ÿ  SHOWHIST -- SHOW HISTORY Command.                                  Ÿ
                                   22171              Ÿ                                                                     Ÿ
                                                      ¾þþþþþþþþþþþþþþþþþþþþþþþþþþþþþþþþþþþþþþþþþþþþþþþþþþþþþþþþþþþþþþþþþþþþþ»
0003474 50E0 D000/9008_      00000 22172              SHOWHIST XPROC
 USING  *,R7
 00348E 4850 B86C            0086C 22212                       LH    R5,CPHCMDMX         Default no. of cmds to show
 003492 5810 B08C/1B00_      0008C 22213                       SCAN  SHHPRT
 0034E4 58E0 7546/0DEE       039D4 22245                       SCANCHK
                                   22250
 0034EA D603 B870 B870_00870 00870 22251                       IF    (CPHCMDQH,Z),BEGIN  No saved commands...
 0034F4 4110 754A/4100_      039D8 22267  1                      SETMSG 'No commands in history list.'
 0034FC 47F0 C7D0            007D0 22271  1                      B     CVNXTMSG
 003500                            22272                       END
                                   22276
 003500 5840 B870            00870 22277                       L     R4,CPHCMDQH
 003504 1255/4780 709A             22278                       IF    (R5,NZ),BEGIN       Only the last "n" commands...
 00350A 4950 B86E/47A0_      0086E 22292  1                      IF    (R5,GE,CPHCMDCR),EXIT  Display everything, scram
 003512 0650                       22312  1                      DECR  R5
                                   22314  1
 003514 5840 B874            00874 22315  1                      L     R4,CPHCMDQT         Most recent command
 003518 1255/47D0 709A             22316  1                      WHILE (R5,POS),BEGIN      Back up...
 USING  HCMD,R4                    22332  2                        WITH  (HCMD,R4)
 00351E 0650                       22345  2                        DECR  R5
 003520 5840 4004            00004 22347  2                        L     R4,HCMDPREV         Previous entry
 003524 47F0 708A            03518 22348  1                      END
 DROP   HCMD,R4
 003528                            22358                       END
                                   22362                       ¿þþþþþþþþþþþþþþþþþþþþþþþþþþþÜ
                                   22363                       Ÿ  Display saved commands.  Ÿ
                                   22364                       ¾þþþþþþþþþþþþþþþþþþþþþþþþþþþ»
 003528 1244/4780 7116             22365                       WHILE (R4,NZ),BEGIN       Go through list...
 USING  HCMD,R4                    22381  1                      WITH  (HCMD,R4)
 00352E 4810 4014/4100_      00014 22394  1                      TNUM  LH:HCMDNO,5
 003540 4110 C4D8/4100_      004D8 22418  1                      TSEG  CVBLANKS,2
 003552 5800 400C            0000C 22448  1                      L     R0,HCMDCLCK         Tod clock
 003556 1B11                       22449  1                      CLEAR R1
 003558 18FD/41D0 D020             22453  1                      XPUSH ,,32,PTR=R15
 00355E 58E0 756E/0DEE       039FC 22456  1                      VCALL FMTTIME             Returns hh:mm:ss.hh
 003564 4100 0005/41F0_      00005 22460  1                      TSEG  (R1),5              "hh:mm"
 003572 4BD0 759C            03A2A 22487  1                      XPOP  ,,32
 003576 4110 C4D8/4100_      004D8 22489  1                      TSEG  CVBLANKS,1
 003588 4110 4017/1F00_      00017 22519  1                      TSEG  HCMDTEXT,LC:HCMDLEN,CR  Command text
                                   22550  1
 00359C 5840 4008            00008 22551  1                      L     R4,HCMDNEXT         Next HCMD entry
 0035A0 47F0 709A            03528 22552                       END
 DROP   HCMD,R4
                                   22562
 0035A4 47F0 C7DE            007DE 22563                       B     CVNEXT
 0035A8 18D8/9808 D004_            22564                       PEND
 DROP   *,R7
1COMM     (COMM4072) (12:40) (15MAR04) HISTORY Routines                                                                     Page   76
0Current Usings:  (CP,R11) (CV,R12)
0Loc    Object Code    Addr1 Addr2  Stmt Lv Lineno    Source Statement           (Hibal 5, Asmedit 3.3)  HLASM R4.0  2004/03/15 12.40
+___    ______ ____    _____ _____  ____ __ ______    ______ _________
00035B8 4040404040404040_          22585              SHHPRT   SCKW  ,SHHNUM,I,9999
 0035E0 C1D3D34040404040_          22600                       SCKW  ALL,SHHALL
 003608 4040404040404040_          22615                       SCKW  ,V(COLLPSH),PUSH
 003630 4040404040404040_          22630                       SCKW  ,V(NOTVALID)
-003658 50E0 D000/9008_      00000 22646              SHHALL   PROC
 USING  *,R7
 003672 1B55                       22685                       CLEAR R5
 003674 5058 0018            00018 22689                       PRETURN (R5)
 003678 18D8/9808 D004_            22691                       PEND
 DROP   *,R7
                                   22711
 003686 50E0 D000/9008_      00000 22712              SHHNUM   PROC
 USING  *,R7
 0036A0 1850                       22751                       LR    R5,R0
 0036A2 5058 0018            00018 22752                       PRETURN (R5)
 0036A6 18D8/9808 D004_            22754                       PEND
 DROP   *,R7
                                   22774
1COMM     (COMM4072) (12:40) (15MAR04) HISTORY Routines                                                                     Page   77
0Current Usings:  (CP,R11) (CV,R12)
0Loc    Object Code    Addr1 Addr2  Stmt Lv Lineno    Source Statement           (Hibal 5, Asmedit 3.3)  HLASM R4.0  2004/03/15 12.40
+___    ______ ____    _____ _____  ____ __ ______    ______ _________
0                                  22776              ¿þþþþþþþþþþþþþþþþþþþþþþþþþþþþþþþþþþþþþþþþþþþþþþþþþþþþþþþþþþþþþþþþþþþþþÜ
                                   22777              Ÿ                                                                     Ÿ
                                   22778              Ÿ  ADDHCMD -- Routine to add a command to the user's history list.    Ÿ
                                   22779              Ÿ                                                                     Ÿ
                                   22780              Ÿ    On entry:                                                        Ÿ
                                   22781              Ÿ      R1,R0 - command loc, len                                       Ÿ
                                   22782              Ÿ                                                                     Ÿ
                                                      ¾þþþþþþþþþþþþþþþþþþþþþþþþþþþþþþþþþþþþþþþþþþþþþþþþþþþþþþþþþþþþþþþþþþþþþ»
00036B4 50E0 D000/9008_      00000 22783              ADDHCMD  PROC
 USING  *,R7
 0036CE 58E0 7336/0DEE       03A04 22822                       VCALL LRTRIM              Trim blanks
 0036D4 1200/47B0 700E_            22826                       IF    (R0,NEG),'CLEAR R0'
 0036DC 5900 733A/47D0_      03A08 22849                       CEIL  R0,L'HCMDTEXT       Not too much
 0036E8 1831                       22868                       LR    R3,R1
 0036EA 1820                       22869                       LR    R2,R0
                                   22870                       ¿þþþþþþþþþþþþþþþþþþþþþþþþþþþþþþþþþþþþþþþÜ
                                   22871                       Ÿ  Add new command to the user's list.  Ÿ
                                   22872                       ¾þþþþþþþþþþþþþþþþþþþþþþþþþþþþþþþþþþþþþþþ»
 0036EC 4A00 735E            03A2C 22873                       AH    R0,=AL2(L'HCMD)     Add in prefix length
                                   22874              *        GETMAIN RU,LV=(0),LOC=ANY,SP=90  (Added, 2/89, Niz)
 0036F0 58E0 733E/0DEE       03A0C 22875                       VCALL GETCORE
 0036F6 1841                       22879                       LR    R4,R1
 USING  HCMD,R4                    22880                       WITH  (HCMD,R4),BEGIN
 0036F8 D716 4000 4000 00000 00000 22894  1                      CLEAR HCMD
 0036FE D202 4000 7364 00000 03A32 22901  1                      MVC   HCMDID,=C'CMD'
 003704 58E0 7342/0DEE       03A10 22902  1                      VCALL LOCALTOD            Save tod clock
 00370A 5000 400C            0000C 22906  1                      ST    R0,HCMDCLCK         Save high word
 00370E 4220 4016            00016 22907  1                      STC   R2,HCMDLEN
 003712 0620/1222/4740_            22908  1                      MOVE  R2,HCMDTEXT,@R3     Save command text
                                   22946  1
 00371E 41F0 0001/4AF0_      00001 22947  1                      INCR  R15,CPHCMDNO        Kick command number
 00372A 40F0 4014            00014 22953  1                      STH   R15,HCMDNO          Save current command number
                                   22954  1
 00372E D603 B870 B870_00870 00870 22955  1                      IF    (CPHCMDQH,Z),BEGIN  First entry...
 003738 5040 B870            00870 22971  2                        ST    R4,CPHCMDQH         We are queue head
 00373C 5040 B874            00874 22972  2                        ST    R4,CPHCMDQT         And we are the queue tail too
 003740                            22973  1                      END
                                   22977  1
 003740 7076/47F0 7086 03740 03736 22978  1                      ELSE  BEGIN               Add to end of queue...
 003744 58F0 B874            00874 22989  2                        L     R15,CPHCMDQT        Last HCMD entry
 003748 504F 0008            00008 22990  2                        ST    R4,HCMDNEXT-HCMD(R15)  Next entry points to us
 00374C 50F0 4004            00004 22991  2                        ST    R15,HCMDPREV        Set our previous ptr
 003750 5040 B874            00874 22992  2                        ST    R4,CPHCMDQT         We are the new queue tail
 003754                            22993  1                      END
                                   22997  1
 003754 41F0 0001/4AF0_      00001 22998  1                      INCR  R15,CPHCMDCR        Number of commands saved
 DROP   HCMD,R4                    23004                       END
                                   23012                       ¿þþþþþþþþþþþþþþþþþþþþþþþþþþþþþþþþþþþþþþþþþþþþþþþþþÜ
                                   23013                       Ÿ  Remove excess commands from the history list.  Ÿ
                                   23014                       ¾þþþþþþþþþþþþþþþþþþþþþþþþþþþþþþþþþþþþþþþþþþþþþþþþþ»
 003760 D501 7360 B86E_03A2E 0086E 23015                       WHILE (CPHCMDCR,GT,=AL2(CPHCMD#)),BEGIN  Remove old cmds...
 00376A 5810 B870            00870 23034  1                      L     R1,CPHCMDQH         Oldest HCMD entry
 00376E 58E0 7346/0DEE       03A14 23035  1                      ACALL FREEHCMD            Release HCMD entry
1COMM     (COMM4072) (12:40) (15MAR04) HISTORY Routines                                                                     Page   78
0Current Usings:  (*,R7) (CP,R11) (CV,R12)
0Loc    Object Code    Addr1 Addr2  Stmt Lv Lineno    Source Statement           (Hibal 5, Asmedit 3.3)  HLASM R4.0  2004/03/15 12.40
+___    ______ ____    _____ _____  ____ __ ______    ______ _________
0003774 47F0 7092            03760 23039                       END
                                   23044
 003778 18D8/9808 D004_            23045                       PEND
 DROP   *,R7
1COMM     (COMM4072) (12:40) (15MAR04) HISTORY Routines                                                                     Page   79
0Current Usings:  (CP,R11) (CV,R12)
0Loc    Object Code    Addr1 Addr2  Stmt Lv Lineno    Source Statement           (Hibal 5, Asmedit 3.3)  HLASM R4.0  2004/03/15 12.40
+___    ______ ____    _____ _____  ____ __ ______    ______ _________
0                                  23066              ¿þþþþþþþþþþþþþþþþþþþþþþþþþþþþþþþþþþþþþþþþþþþþþþþþþþþþþþþþþþþþþþþþþþþþþÜ
                                   23067              Ÿ                                                                     Ÿ
                                   23068              Ÿ  GETHCMD -- Routine to get first command in the user's history      Ÿ
                                   23069              Ÿ    list that matches the command string.                            Ÿ
                                   23070              Ÿ                                                                     Ÿ
                                   23071              Ÿ    On entry:                                                        Ÿ
                                   23072              Ÿ      R1,R0 - command text to match loc, len                         Ÿ
                                   23073              Ÿ                                                                     Ÿ
                                   23074              Ÿ    On exit, R15 (and cc):                                           Ÿ
                                   23075              Ÿ     -4 - no match                                                   Ÿ
                                   23076              Ÿ      0 - command matched (R1,R0 - command loc, len)                 Ÿ
                                   23077              Ÿ                                                                     Ÿ
                                                      ¾þþþþþþþþþþþþþþþþþþþþþþþþþþþþþþþþþþþþþþþþþþþþþþþþþþþþþþþþþþþþþþþþþþþþþ»
0000000                00000 001D8 23078              GETHWA   RECORD BEGIN
 000000                            23086  1           GETHNO     DS    H                   Command number to match
 000002                            23087  1           GETHMAT    DS    XL(L'HCMDTEXT)      Prefix string to match
 0000ED                            23088  1           GETHTEXT   DS    XL(L'HCMDTEXT)      Working copy of HCMDTEXT
 0001D8                001D8 001D8 23089                       END
                                   23098              þþþþ
 003786 50E0 D000/9008_      00000 23099              GETHCMD  XPROC GETHWA
 USING  *,R7
 USING  GETHWA-(4+36),R8
 0037A0 D701 8028 8028 00000 00000 23150                       CLEAR GETHNO
                                   23157
 0037A6 58E0 7264/0DEE       03A04 23158                       VCALL LRTRIM
 0037AC 1200/47B0 7014_            23162                       IF    (R0,NEG),'CLEAR R0'
 0037B4 5900 7268/47D0_      03A08 23185                       CEIL  R0,L'HCMDTEXT       Not too much now
                                   23204                       ¿þþþþþþþþþþþþþþþþþþþþþþþþþþþþþþþþþþþþþþþþþþþþþþþþþþÜ
                                   23205                       Ÿ  Return the most recent command if zero length.  Ÿ
                                   23206                       ¾þþþþþþþþþþþþþþþþþþþþþþþþþþþþþþþþþþþþþþþþþþþþþþþþþþ»
 0037C0 1200/4770 7040             23207                       IF    (R0,Z),BEGIN        Take most recent command...
 0037C6 5840 B874/1244       00874 23221  1                      LT    R4,CPHCMDQT         Most recent command
 0037CC 4780 7102            038A2 23225  1                      BZ    GETHNONE            Nothing, scram
 USING  HCMD,R4                    23226  1                      WITH  (HCMD,R4)
 0037D0 4110 4017/1F00_      00017 23239  1                      SETMSG HCMDTEXT,LC:HCMDLEN  Command text
 0037DA 1BFF                       23256  1                      CLEAR R15                 Matched return code
 0037DC 47F0 710A            038AA 23260  1                      B     GETHEXIT
 DROP   HCMD,R4                    23261                       END
                                   23270                       ¿þþþþþþþþþþþþþþþþþþþþþþþþþþþþþþþþþþþþþþþþþÜ
                                   23271                       Ÿ  Match partial string in command list.  Ÿ
                                   23272                       ¾þþþþþþþþþþþþþþþþþþþþþþþþþþþþþþþþþþþþþþþþþ»
 0037E0 5850 C8A8            008A8 23273                       L     R5,CVUPPTBL         Translate to upper TR table
                                   23274
 0037E4 1820                       23275                       LR    R2,R0               String length
 0037E6 18F0                       23276                       LR    R15,R0
 0037E8 06F0/12FF/4740_            23277                       MOVE  R15,GETHMAT,@R1     Save string
 0037F4 44F0 72A2/DC00_      03A42 23315                       EX    R15,'TR GETHMAT(0),@R5'  Convert to caps
                                   23331                       ¿þþþþþþþþþþþþþþþþþþþþþþþþþþþþþþþþþþþþÜ
                                   23332                       Ÿ  Match command number if numeric.  Ÿ
                                   23333                       ¾þþþþþþþþþþþþþþþþþþþþþþþþþþþþþþþþþþþþ»
 0037F8 58E0 7278/0DEE       03A18 23334                       DTB   (R1),(R0)           Number?
 0037FE 4770 7066            03806 23349                       IF    Z,BEGIN             Yes...
 003802 40F0 8028            00000 23360  1                      STH   R15,GETHNO          Save command number to match
1COMM     (COMM4072) (12:40) (15MAR04) HISTORY Routines                                                                     Page   80
0Current Usings:  (*,R7) (GETHWA-(4+36),R8) (CP,R11) (CV,R12)
0Loc    Object Code    Addr1 Addr2  Stmt Lv Lineno    Source Statement           (Hibal 5, Asmedit 3.3)  HLASM R4.0  2004/03/15 12.40
+___    ______ ____    _____ _____  ____ __ ______    ______ _________
0003806                            23361                       END
                                   23365
 003806 5840 B874            00874 23366                       L     R4,CPHCMDQT         Most recent command ptr
 00380A 1244/4780 7102             23367                       WHILE (R4,NZ),BEGIN       Go through history list...
 USING  HCMD,R4                    23383  1                      WITH  (HCMD,R4)
 003810 D502 7292 4000_03A32 00000 23396  1                      FAIL  (HCMDID,NE,'CMD'),HCMDERR2,'History command error.'
                                   23425  1
 003832 D601 8028 8028_00000 00000 23426  1                      IF    (GETHNO,NZ),BEGIN   Match command number...
 00383C D501 8028 4014_00000 00014 23442  2                        IF    (GETHNO,NE,HCMDNO),GETHLOOP  No match, keep looking
 003846 4110 4017/1F00_      00017 23463  2                        SETMSG HCMDTEXT,LC:HCMDLEN  Command text
 003850 1BFF                       23480  2                        CLEAR R15                 Matched return code
 003852 47F0 710A            038AA 23484  2                        B     GETHEXIT
 003856                            23485  1                      END
                                   23489  1
 003856 D2EA 8115 C4D8 000ED 004D8 23490  1                      MVC   GETHTEXT,CVBLANKS   Preset to blanks
 00385C 1FFF/43F0 4016             23491  1                      LC    R15,HCMDLEN
 003862 12FF/47D0 70D8             23498  1                      IF    (R15,POS),BEGIN
 003868 06F0/12FF/4740_            23512  2                        MOVE  R15,GETHTEXT,HCMDTEXT  Working command text
 003874 44F0 72AE/DC00_      03A4E 23550  2                        EX    R15,'TR GETHTEXT(0),@R5'  Convert to caps
 003878                            23566  1                      END
                                   23570  1
 003878 18F2                       23571  1                      LR    R15,R2
 00387A 06F0/12FF/4740_            23572  1                      CMPR  R15,GETHMAT,GETHTEXT  Matched starting text?
 003886 4770 70FA            0389A 23610  1                      IF    EQ,BEGIN            Yes, stop looking...
 00388A 4110 4017/1F00_      00017 23621  2                        SETMSG HCMDTEXT,LC:HCMDLEN  Command text
 003894 1BFF                       23638  2                        CLEAR R15                 Matched return code
 003896 47F0 710A            038AA 23642  2                        B     GETHEXIT
 00389A                            23643  1                      END
                                   23647  1
 00389A 5840 4004            00004 23648  1           GETHLOOP   L     R4,HCMDPREV         Previous command
 00389E 47F0 706A            0380A 23649                       END
 DROP   HCMD,R4
                                   23659
 0038A2 48F0 7290            03A30 23660              GETHNONE LH    R15,=H'-4'          No match return code
 0038A6 1B00/1B11                  23661                       CLEAR R0,R1               (Tidy)
                                   23667
 0038AA 9001 8004            00004 23668              GETHEXIT PRETURN (R0,R1)           Return command ptrs
 0038AE 18D8/9808 D004_            23670                       PEND
 DROP   GETHWA-(4+36),R8
 DROP   *,R7
1COMM     (COMM4072) (12:40) (15MAR04) HISTORY Routines                                                                     Page   81
0Current Usings:  (CP,R11) (CV,R12)
0Loc    Object Code    Addr1 Addr2  Stmt Lv Lineno    Source Statement           (Hibal 5, Asmedit 3.3)  HLASM R4.0  2004/03/15 12.40
+___    ______ ____    _____ _____  ____ __ ______    ______ _________
0                                  23696              ¿þþþþþþþþþþþþþþþþþþþþþþþþþþþþþþþþþþþþþþþþþþþþþþþþþþþþþþþþþþþþþþþþþþþþþÜ
                                   23697              Ÿ                                                                     Ÿ
                                   23698              Ÿ  CLRHCMDS -- Routine to clear history command list.                 Ÿ
                                   23699              Ÿ                                                                     Ÿ
                                                      ¾þþþþþþþþþþþþþþþþþþþþþþþþþþþþþþþþþþþþþþþþþþþþþþþþþþþþþþþþþþþþþþþþþþþþþ»
00038BC 50E0 D000/9008_      00000 23700              CLRHCMDS XPROC
 USING  *,R7
 0038D6 D601 B86E B86E_0086E 0086E 23740                       WHILE (CPHCMDCR,NZ),BEGIN  Free all commands...
 0038E0 5810 B870            00870 23758  1                      L     R1,CPHCMDQH
 0038E4 58E0 713E/0DEE       03A14 23759  1                      ACALL FREEHCMD
 0038EA 47F0 7000            038D6 23763                       END
 0038EE 18D8/9808 D004_            23768                       PEND
 DROP   *,R7
-                                  23789              ¿þþþþþþþþþþþþþþþþþþþþþþþþþþþþþþþþþþþþþþþþþþþþþþþþþþþþþþþþþþþþþþþþþþþþþÜ
                                   23790              Ÿ                                                                     Ÿ
                                   23791              Ÿ  FREEHCMD -- Local routine to free the HCMD entry specified.        Ÿ
                                   23792              Ÿ                                                                     Ÿ
                                   23793              Ÿ    On entry:                                                        Ÿ
                                   23794              Ÿ      R1 - HCMD ptr                                                  Ÿ
                                   23795              Ÿ                                                                     Ÿ
                                                      ¾þþþþþþþþþþþþþþþþþþþþþþþþþþþþþþþþþþþþþþþþþþþþþþþþþþþþþþþþþþþþþþþþþþþþþ»
00038FC 50E0 D000/9008_      00000 23796              FREEHCMD PROC
 USING  *,R7
 USING  HCMD,R1                    23835                       WITH  (HCMD,R1),BEGIN
 003916 D502 711C 1000_03A32 00000 23849  1                      FAIL  (HCMDID,NE,'CMD'),HCMDERR3,'History command error.'
 003938 D203 1000 7106 00000 03A1C 23878  1                      MVC   HCMD(4),=C'OHCM'
                                   23879  1
 00393E 58F0 1004/12FF       00004 23880  1                      LT    R15,HCMDPREV
 003944 4770 7038/D203_      0394E 23884  1                      IF    Z,'MVC CPHCMDQH,HCMDNEXT'  Update queue head
 00394E 703C/47F0 7042_0394E 03946 23901  1                      ELSE  'MVC HCMDNEXT-HCMD(4,R15),HCMDNEXT'  Dequeue
                                   23918  1
 003958 58F0 1008/12FF       00008 23919  1                      LT    R15,HCMDNEXT
 00395E 4770 7052/D203_      03968 23923  1                      IF    Z,'MVC CPHCMDQT,HCMDPREV'  Update queue tail
 003968 7056/47F0 705C_03968 03960 23940  1                      ELSE  'MVC HCMDPREV-HCMD(4,R15),HCMDPREV'  Dequeue
                                   23957  1
 003972 48F0 B86E/06F0_      0086E 23958  1                      DECR  R15,CPHCMDCR        Number of commands saved
 00397C 47B0 7082/900F_      03998 23963  1                      FAIL  NEG,HCMDERR9,'History command error.'
                                   23986  1
 003998 D203 1004 710A 00004 03A20 23987  1                      MVC   HCMDPREV,=F'-1'     (Safety)
 00399E D203 1008 710A 00008 03A20 23988  1                      MVC   HCMDNEXT,=F'-1'     (Safety)
                                   23989  1
 0039A4 1F00/4300 1016             23990  1                      LC    R0,HCMDLEN          Command text length
 0039AA 4A00 7116            03A2C 23995  1                      AH    R0,=AL2(L'HCMD)     Total entry length
                                   23996  1           *        FREEMAIN RU,A=(1),LV=(0),SP=90  Release old entry
 0039AE 58E0 710E/0DEE       03A24 23997  1                      VCALL FREECORE
 DROP   HCMD,R1                    24001                       END
 0039B4 18D8/9808 D004_            24009                       PEND
 DROP   *,R7
                                   24029
                                   24030                       QLTORG
1COMM     (COMM4072) (12:40) (15MAR04) Process TRY command prefix.                                                          Page   82
0Current Usings:  (CP,R11) (CV,R12)
0Loc    Object Code    Addr1 Addr2  Stmt Lv Lineno    Source Statement           (Hibal 5, Asmedit 3.3)  HLASM R4.0  2004/03/15 12.40
+___    ______ ____    _____ _____  ____ __ ______    ______ _________
0                                  24067              ¿þþþþþþþþþþþþþþþþþþþþþþþþþþþþþþþþþþþþþþþþþþþþþþþþþþþþþþþþþþþþþþþþþþþþþÜ
                                   24068              Ÿ                                                                     Ÿ
                                   24069              Ÿ  TRY -- Process TRY command prefix                                  Ÿ
                                   24070              Ÿ                                                                     Ÿ
                                                      ¾þþþþþþþþþþþþþþþþþþþþþþþþþþþþþþþþþþþþþþþþþþþþþþþþþþþþþþþþþþþþþþþþþþþþþ»
0003A5A 50E0 D000/9008_      00000 24071              TRY      XPROC  ,
 USING  *,R7
                                   24111
                                   24112                       COMMENT                   CHECK IF COMMAND TO TRY IS
                                   24113                       COMMENT                   SPECIAL OR INVALID FOR TRY
 003A74 58E0 76C4/0DEE       04138 24114                       ACALL CHECKTRY
                                   24118
                                   24119                       COMMENT                   SET TRY FLAG
 003A7A 9680 B47B      0047B       24120                       SET   CPFTRY
 003A7E 9640 B47B      0047B       24126                       SET   CPFXXTRY            *** TEST THIS OUT BUD (SCH)
                                   24132
                                   24133                       COMMENT                   CLEAR TRY ATTN/ERROR VARIABLES
 003A82 94DF B47B      0047B       24134                       CLEAR CPFTATTN
 003A86 94EF B47B      0047B       24141                       CLEAR CPFTERR
                                   24148
                                   24149                       COMMENT                   REMOVE "TRY" FROM COMMAND LINE
 003A8A 1830                       24150                       LR    R3,R0
 003A8C 0630/1233/4740_            24151                       MOVE  R3,@R1,CVBLANKS
                                   24189
                                   24190                       COMMENT                   RESET SCANNER, TRY COMMAND
 003A98 58E0 B08C/581E_      0008C 24191                       SCINFO
 003AA6 58E0 B08C/501E_      0008C 24200                       SCINIT (R1),(R0)          RESET SCANNER
 003AB4 58E0 76C8/0DEE       0413C 24220                       OSCINIT (R1),(R0)         OLD SCANNER COMPATIBILTY
                                   24236                       ¿þþþþþþþþþþþþþþþþþþþþþþþþþþþþþþþþþþþþþþþþþþþþþþþþþþþþþþþþþþþÜ
                                   24237                       Ÿ  Check for %-style network command.                       Ÿ
                                   24238                       Ÿ    We must do this before the scanner is ever called on   Ÿ
                                   24239                       Ÿ    the command line to preserve the upper and lower case  Ÿ
                                   24240                       Ÿ    of the first token (damn scanner).                     Ÿ
                                   24241                       ¾þþþþþþþþþþþþþþþþþþþþþþþþþþþþþþþþþþþþþþþþþþþþþþþþþþþþþþþþþþþ»
 003ABA 9540 1000/4780_00000       24242                       IF    ((@R1,EQ,' '),OR,(@R1,EQ,'%')),BEGIN  Possibly...
 003ACA 1200/47D0 706E_            24273  1                      WHILE ((R0,POS),AND,(@R1,EQ,' ')),'LA R1,@R1+1; DECR R0'
 003AE2 1200/47D0 7082             24313  1                      IF    (R0,NP),EXIT        Nothing, forget it
 003AE8 956C 1000/4770_00000       24330  1                      IF    (@R1,EQ,'%'),'ACALL NETCMD'  Do % command
 003AF6                            24355                       END
                                   24359                       ¿þþþþþþþþþþþþþþþþþþþþþþþþþþþþþþþþþþþþþþþþþþþþþþþþþþþþþþþþþþþÜ
                                   24360                       Ÿ  The following is for dual-scanner compatibility only!!!  Ÿ
                                   24361                       ¾þþþþþþþþþþþþþþþþþþþþþþþþþþþþþþþþþþþþþþþþþþþþþþþþþþþþþþþþþþþ»
 003AF6 58E0 B08C/D2AF_      0008C 24362                       SCPUSH ,
 003B04 5810 B08C/1B00_      0008C 24368                       SCAN ,
 003B52 58E0 B08C/581E_      0008C 24399                       SCINFO ,
 003B60 58E0 76C8/0DEE       0413C 24408                       OSCINIT (R1),(R0)         OLD SCANNER COMPATIBILTY
 003B66 58E0 B08C/4BD0_      0008C 24424                       SCPOP ,
                                   24430
 003B74 58E0 76D4/0DEE       04148 24431                       VCALL XCMDSCAN            CHECK FOR EXEC COMMANDS (EG. X=1)
 003B7A 5810 B08C/1B00_      0008C 24435                       SCAN  PRT                 SCAN AND EXECUTE COMMAND !
 003BCC 58E0 76DC/0DEE       04150 24467                       SCANCHK
 003BD2 47F0 C7DE            007DE 24472                       B     CVNEXT
 003BD6 18D8/9808 D004_            24473                       PEND
1COMM     (COMM4072) (12:40) (15MAR04) Process TRY command prefix.                                                          Page   83
0Current Usings:  (CP,R11) (CV,R12)
0Loc    Object Code    Addr1 Addr2  Stmt Lv Lineno    Source Statement           (Hibal 5, Asmedit 3.3)  HLASM R4.0  2004/03/15 12.40
+___    ______ ____    _____ _____  ____ __ ______    ______ _________
0DROP   *,R7
1COMM     (COMM4072) (12:40) (15MAR04) Process TRY command prefix.                                                          Page   84
0Current Usings:  (CP,R11) (CV,R12)
0Loc    Object Code    Addr1 Addr2  Stmt Lv Lineno    Source Statement           (Hibal 5, Asmedit 3.3)  HLASM R4.0  2004/03/15 12.40
+___    ______ ____    _____ _____  ____ __ ______    ______ _________
0                                  24494              ¿þþþþþþþþþþþþþþþþþþþþþþþþþþþþþþþþþþþþþþþþþþþþþþþþþþþþþþþþþþþþþþþþþþþþþÜ
                                   24495              Ÿ                                                                     Ÿ
                                   24496              Ÿ  CHECKTRY - Check if command to TRY is special/invalid              Ÿ
                                   24497              Ÿ                                                                     Ÿ
                                   24498              Ÿ  Special TRY sets CPFXXTRY,  this flag remains set till next        Ÿ
                                   24499              Ÿ  exec command from an exec file is executed.  That is the           Ÿ
                                   24500              Ÿ  CPFXXTRY flag survives a EDTCOM call, CPFTRY does not.  This       Ÿ
                                   24501              Ÿ  allows VIEW (which executes other commands in PAGE mode) to        Ÿ
                                   24502              Ÿ  not break if CPFXXTRY is set.  On the other hand, a TRY READ       Ÿ
                                   24503              Ÿ  that executes a bad command, may cause a break. Which is           Ÿ
                                   24504              Ÿ  presumably what we want.  GET and PUT are special cases.           Ÿ
                                   24505              Ÿ  They are the only ORVYL commands that can be TRYed. This is        Ÿ
                                   24506              Ÿ  tricky code.  All so we can use TRY for GET, PUT, and VIEW.        Ÿ
                                   24507              Ÿ  And View may not even work. YUK !                                  Ÿ
                                   24508              Ÿ                                                                     Ÿ
                                                      ¾þþþþþþþþþþþþþþþþþþþþþþþþþþþþþþþþþþþþþþþþþþþþþþþþþþþþþþþþþþþþþþþþþþþþþ»
0003BE4 50E0 D000/9008_      00000 24509              CHECKTRY PROC
 USING  *,R7
 003BFE 58E0 B08C/D2AF_      0008C 24548                       SCPUSH ,
 003C0C 5810 B08C/1B00_      0008C 24554                       SCAN  CKTRYPRT
 003C5E 58E0 B08C/4BD0_      0008C 24586                       SCPOP ,
 003C6C 1BFF                       24592                       CLEAR R15
 003C6E 18D8/9808 D004_            24596                       PEND
 DROP   *,R7
                                   24616              *
                                   24617              *
 003C7C C7C5E34040404040_          24618              CKTRYPRT SCKW  GET,TSPECIAL        A PARTIAL LIST OF INVALID CMDS
 003CA4 D7E4E34040404040_          24633                       SCKW  PUT,TSPECIAL
 003CCC E5C9C5E640404040_          24648                       SCKW  VIEW,TSPECIAL,A1
 003CF4 C5E7C5C3E4E3C540_          24663                       SCKW  EXECUTE,TINVALID,A
 003D1C E4E3C9D340404040_          24678                       SCKW  UTIL,TINVALID,A
 003D44 C1C4D4C9D5404040_          24693                       SCKW  ADMIN,TINVALID,A
 003D6C C5D4E24040404040_          24708                       SCKW  EMS,TINVALID
 003D94 C6D6D3C9D6404040_          24723                       SCKW  FOLIO,TINVALID
 003DBC D7D9C9E2D4404040_          24738                       SCKW  PRISM,TINVALID
 003DE4 E2D7C9D9C5E24040_          24753                       SCKW  SPIRES,TINVALID
 003E0C C3C1D3D340404040_          24768                       SCKW  CALL,TINVALID,A
 003E34 4040404040404040_          24783                       SCKW  ,TNORMAL
                                   24798
 003E5C 50E0 D000/9008_      00000 24799              TNORMAL  DPROC ,
 USING  *,R7
 003E76 41F0 0004            00004 24839                       LA    R15,4
 003E7A 18D8/9808 D004_            24840                       PEND
 DROP   *,R7
                                   24860
 003E88 50E0 D000/9008_      00000 24861              TSPECIAL PROC
 USING  *,R7
 003EA2 9640 B47B      0047B       24900                       SET   CPFXXTRY
 003EA6 41F0 0004            00004 24906                       LA    R15,4
 003EAA 18D8/9808 D004_            24907                       PEND
 DROP   *,R7
                                   24927
 003EB8 50E0 D000/9008_      00000 24928              TINVALID PROC
1COMM     (COMM4072) (12:40) (15MAR04) Process TRY command prefix.                                                          Page   85
0Current Usings:  (*,R7) (CP,R11) (CV,R12)
0Loc    Object Code    Addr1 Addr2  Stmt Lv Lineno    Source Statement           (Hibal 5, Asmedit 3.3)  HLASM R4.0  2004/03/15 12.40
+___    ______ ____    _____ _____  ____ __ ______    ______ _________
0USING  *,R7
 003ED2 41F0 B050/58E0_      00050 24967                       TSEG  (R1),(R0)
 003EDC 4110 728A/4100_      0415C 24991                       TSEG  ': invalid.  Command may not be used '
 003EEE 4110 71FE/4100_      040D0 25009                       ERROR 'with TRY prefix.'
 003EFA 18D8/9808 D004_            25016                       PEND
 DROP   *,R7
1COMM     (COMM4072) (12:40) (15MAR04) Process TRY command prefix.                                                          Page   86
0Current Usings:  (CP,R11) (CV,R12)
0Loc    Object Code    Addr1 Addr2  Stmt Lv Lineno    Source Statement           (Hibal 5, Asmedit 3.3)  HLASM R4.0  2004/03/15 12.40
+___    ______ ____    _____ _____  ____ __ ______    ______ _________
0                                  25037              ¿þþþþþþþþþþþþþþþþþþþþþþþþþþþþþþþþþþþþþþþþþþþþþþþþþþþþþþþþþþþþþþþþþþþþþÜ
                                   25038              Ÿ                                                                     Ÿ
                                   25039              Ÿ                                                                     Ÿ
                                   25040              Ÿ  SETTRY - Set TRY variables                                         Ÿ
                                   25041              Ÿ                                                                     Ÿ
                                   25042              Ÿ  ON ENTRY:                                                          Ÿ
                                   25043              Ÿ       CPFERROR, CPFABORT, JCBFATTN flags set                        Ÿ
                                   25044              Ÿ                                                                     Ÿ
                                   25045              Ÿ  ON EXIT:                                                           Ÿ
                                   25046              Ÿ       TRY variables set appropriately                               Ÿ
                                   25047              Ÿ       R15 - CC=ZERO                                                 Ÿ
                                   25048              Ÿ                                                                     Ÿ
                                   25049              Ÿ  This routine is called by the command CLEANUP routine if the       Ÿ
                                   25050              Ÿ  TRY flag is set.  The routine assumes that SYS.EMSG has been       Ÿ
                                   25051              Ÿ  set up by the SETEMSG routine.  See CLEANUP routine for details.   Ÿ
                                   25052              Ÿ                                                                     Ÿ
                                   25053              Ÿ  Note: Attention overrides errors.  Do not change this without      Ÿ
                                   25054              Ÿ        much thought !!                                              Ÿ
                                   25055              Ÿ                                                                     Ÿ
                                   25056              Ÿ                                                                     Ÿ
                                                      ¾þþþþþþþþþþþþþþþþþþþþþþþþþþþþþþþþþþþþþþþþþþþþþþþþþþþþþþþþþþþþþþþþþþþþþ»
0003F08 50E0 D000/9008_      00000 25057              SETTRY   PROC
 USING  *,R7
 003F22 5860 C1C8            001C8 25096                       L     R6,CVCURJCB
 USING  JCB,R6                     25097                       USING JCB,R6
                                   25106
                                   25107                       COMMENT                   ASSUME NO ERRORS, ATTN
 003F26 94EF B47B      0047B       25108                       CLEAR CPFTERR
 003F2A 94DF B47B      0047B       25115                       CLEAR CPFTATTN
                                   25122
                                   25123                       COMMENT                   IF ATTN, SET TRY ATTN VARS
 003F2E 9102 6062/47E0_00062       25124                       IF    JCBFATTN,BEGIN
 003F36 9620 B47B      0047B       25139  1                      SET   CPFTATTN            ATTN DURING TRY
                                   25145  1
                                   25146  1                      COMMENT                   GET, SAVE ATTN INFO
 003F3A 9180 B758/47E0_00758       25147  1                      IF    CPFEXEC,BEGIN
 003F42 18ED/41D0 D43C_            25162  2                        TPUSH ,
 003F76 4110 7278/4100_      0419A 25200  2                        TSEG  'EXEC break at line '
 003F88 5800 B778            00778 25218  2                        L     R0,CP#XSET
 003F8C 5810 B77C            0077C 25219  2                        L     R1,CPRGEXEC
 003F90 4120 B75C            0075C 25220  2                        LA    R2,CPEXLINE
 003F94 58E0 7262/0DEE       04184 25221  2                        VCALL SEGXLNO
 003F9A 5800 B05C            0005C 25225  2                        L     R0,CPSEGLENF
 003F9E 5810 B070            00070 25226  2                        L     R1,CPSEGLOC
 003FA2 4120 71BE            040E0 25227  2                        LA    R2,=CL16'SYS.TRYINFO     '
 003FA6 58E0 7266/0DEE       04188 25228  2                        VCALL SAVEDATA
 003FAC 4BD0 7274/D23B_      04196 25232  2                        TPOP  JUNK
 003FB6                            25237  1                      END
 003FB6 7098/47F0 70A6 03FB6 03F40 25241  1                      ELSE  BEGIN
 003FBA 1B00                       25252  2                        CLEAR R0
 003FBC 1B11                       25256  2                        CLEAR R1
 003FBE 4120 71BE            040E0 25260  2                        LA    R2,=CL16'SYS.TRYINFO     '
 003FC2 58E0 7266/0DEE       04188 25261  2                        VCALL SAVEDATA
1COMM     (COMM4072) (12:40) (15MAR04) Process TRY command prefix.                                                          Page   87
0Current Usings:  (JCB,R6) (*,R7) (CP,R11) (CV,R12)
0Loc    Object Code    Addr1 Addr2  Stmt Lv Lineno    Source Statement           (Hibal 5, Asmedit 3.3)  HLASM R4.0  2004/03/15 12.40
+___    ______ ____    _____ _____  ____ __ ______    ______ _________
0003FC8                            25265  1                      END
 003FC8                            25269                       END   ,
                                   25273              *
                                   25274              *
                                   25275                       COMMENT                   IF ERROR, SET TRY ERROR VARS
 003FC8 70AA/47F0 7196_03FC8 03F34 25276                       ELSEIF (CPFERROR,OR,CPFABORT),BEGIN
 003FDC 9610 B47B      0047B       25314  1                      SET   CPFTERR             ERROR DURING TRY
                                   25320  1
                                   25321  1                      COMMENT                   GET, SAVE ERROR INFO
                                   25322  1                      COMMENT                   SAVE ERRID
 003FE0 D507 71A6 B886_040C8 00886 25323  1                      IF    (CPERRID,EQ,0),BEGIN
 003FEA D207 B886 71CE 00886 040F0 25341  2                        MVC   CPERRID,=CL8'ERROR   '
 003FF0                            25342  1                      END
 003FF0 4100 0008            00008 25346  1                      LA    R0,L'CPERRID
 003FF4 4110 B886            00886 25347  1                      LA    R1,CPERRID
 003FF8 4120 71D6            040F8 25348  1                      LA    R2,=CL16'SYS.TRYID       '
 003FFC 58E0 7266/0DEE       04188 25349  1                      VCALL SAVEDATA
                                   25353  1
                                   25354  1                      COMMENT                   GET, SAVE ERROR MSG
 004002 181D/41D0 D0EC             25355  1                      XPUSH ,,&LINESZ,PTR=R1
 004008 4100 00EB            000EB 25358  1                      LA    R0,&LINESZ
 00400C 4120 71E6            04108 25359  1                      LA    R2,=CL16'SYS.EMSG        '
 004010 58E0 726A/0DEE       0418C 25360  1                      VCALL GETDATA
 004016 4780 70FA            0401C 25364  1                      IF    NZ,BEGIN
 00401A 0000                       25375  2                        BOMB
 00401C                            25377  1                      END
 00401C 4120 71F6            04118 25381  1                      LA    R2,=CL16'SYS.TRYMSG      '
 004020 58E0 7266/0DEE       04188 25382  1                      VCALL SAVEDATA
 004026 4BD0 7276            04198 25386  1                      XPOP  ,,&LINESZ
                                   25388  1
                                   25389  1                      COMMENT                   GET, SAVE TRY INFO
 00402A 9180 B758/47E0_00758       25390  1                      IF    CPFEXEC,BEGIN
 004032 18ED/41D0 D43C_            25405  2                        TPUSH ,
 004066 4110 728B/4100_      041AD 25443  2                        TSEG  'EXEC error at line '
 004078 5800 B778            00778 25461  2                        L     R0,CP#XSET
 00407C 5810 B77C            0077C 25462  2                        L     R1,CPRGEXEC
 004080 4120 B75C            0075C 25463  2                        LA    R2,CPEXLINE
 004084 58E0 7262/0DEE       04184 25464  2                        VCALL SEGXLNO
 00408A 5800 B05C            0005C 25468  2                        L     R0,CPSEGLENF
 00408E 5810 B070            00070 25469  2                        L     R1,CPSEGLOC
 004092 4120 71BE            040E0 25470  2                        LA    R2,=CL16'SYS.TRYINFO     '
 004096 58E0 7266/0DEE       04188 25471  2                        VCALL SAVEDATA
 00409C 4BD0 7274/D23B_      04196 25475  2                        TPOP  JUNK
 0040A6                            25480  1                      END
 0040A6 7188/47F0 7196 040A6 04030 25484  1                      ELSE  BEGIN               IF NOT IN EXEC MODE, NO ERRINFO
 0040AA 1B00                       25495  2                        CLEAR R0
 0040AC 1B11                       25499  2                        CLEAR R1
 0040AE 4120 7206            04128 25503  2                        LA    R2,=CL16'SYS.ERRINFO     '
 0040B2 58E0 7266/0DEE       04188 25504  2                        VCALL SAVEDATA
 0040B8                            25508  1                      END
 0040B8                            25512                       END
                                   25516
 0040B8 1BFF                       25517                       CLEAR R15
 0040BA 18D8/9808 D004_            25521                       PEND
1COMM     (COMM4072) (12:40) (15MAR04) Process TRY command prefix.                                                          Page   88
0Current Usings:  (JCB,R6) (CP,R11) (CV,R12)
0Loc    Object Code    Addr1 Addr2  Stmt Lv Lineno    Source Statement           (Hibal 5, Asmedit 3.3)  HLASM R4.0  2004/03/15 12.40
+___    ______ ____    _____ _____  ____ __ ______    ______ _________
0DROP   *,R7
 DROP   JCB,R6                     25541                       DROP  R6
                                   25548
                                   25549                       QLTORG
1COMM     (COMM4072) (12:40) (15MAR04) USERCMD Command Prefix                                                               Page   89
0Current Usings:  (CP,R11) (CV,R12)
0Loc    Object Code    Addr1 Addr2  Stmt Lv Lineno    Source Statement           (Hibal 5, Asmedit 3.3)  HLASM R4.0  2004/03/15 12.40
+___    ______ ____    _____ _____  ____ __ ______    ______ _________
0                                  25591              ¿þþþþþþþþþþþþþþþþþþþþþþþþþþþþþþþþþþþþþþþþþþþþþþþþþþþþþþþþþþþþþþþþþþþþþÜ
                                   25592              Ÿ                                                                     Ÿ
                                   25593              Ÿ  USERCMD -- Process USERCMD command prefix.                         Ÿ
                                   25594              Ÿ                                                                     Ÿ
                                   25595              Ÿ    Use this prefix to force user defined command substitions        Ÿ
                                   25596              Ÿ    to take place.  For example, "usercmd print ..." would first     Ÿ
                                   25597              Ÿ    check for a user defined PRINT command (and then the system      Ÿ
                                   25598              Ÿ    defined PRINT command).                                          Ÿ
                                   25599              Ÿ                                                                     Ÿ
                                   25600              Ÿ    Normally, typed commands do check for user defined commands      Ÿ
                                   25601              Ÿ    and extended exec commands do not.                               Ÿ
                                   25602              Ÿ                                                                     Ÿ
                                                      ¾þþþþþþþþþþþþþþþþþþþþþþþþþþþþþþþþþþþþþþþþþþþþþþþþþþþþþþþþþþþþþþþþþþþþþ»
00041C6 50E0 D000/9008_      00000 25603              USERCMD  XPROC
 USING  *,R7
                                   25643                       ¿þþþþþþþþþþþþþþþþþþþþþþþþþþþþþþþþþþþþþþþþþþþþþþþþþþþþþþþþÜ
                                   25644                       Ÿ  Reset scanner and re-execute command without prefix.  Ÿ
                                   25645                       ¾þþþþþþþþþþþþþþþþþþþþþþþþþþþþþþþþþþþþþþþþþþþþþþþþþþþþþþþþ»
 0041E0 58E0 B08C/581E_      0008C 25646                       SCINFO
 0041EE 4000 B240            00240 25655                       STH   R0,CPCMDLEN
 0041F2 1820                       25656                       LR    R2,R0
 0041F4 183D/41D0 D0EC             25657                       XPUSH ,,L'CPCMD,PTR=R3
 0041FA 18E3/18F2/1801_            25660                       MOVEL (R3),(R1),(R2)
 004204 41E0 B242/18F2_      00242 25678                       MOVEL CPCMD,(R3),(R2)
 004210 4BD0 7AD4            04CB4 25698                       XPOP  ,,L'CPCMD
 004214 4110 B242/4800_      00242 25700                       SCINIT CPCMD,LH:CPCMDLEN  RESET SCANNER
 00422A 4110 B242/4800_      00242 25723                       OSCINIT CPCMD,LH:CPCMDLEN  OLD SCANNER COMPATIBILTY
                                   25742                       ¿þþþþþþþþþþþþþþþþþþþþþþþþþþþþþþþþþþÜ
                                   25743                       Ÿ  Scan for assignment statement.  Ÿ
                                   25744                       ¾þþþþþþþþþþþþþþþþþþþþþþþþþþþþþþþþþþ»
 004238 58E0 7A9C/0DEE       04C7C 25745                       VCALL XCMDSCAN            Pre-scan for exec cmds (eg. x=1)
                                   25749                       ¿þþþþþþþþþþþþþþþþþþþþþþþþþþþþþþþþþþþþþþþþþÜ
                                   25750                       Ÿ  Do user defined command substitution.  Ÿ
                                   25751                       ¾þþþþþþþþþþþþþþþþþþþþþþþþþþþþþþþþþþþþþþþþþ»
 00423E 58E0 7AA0/0DEE       04C80 25752                       ACALL DEFCMD              Do user defined commands
 004244 4770 7084            04264 25756                       IF    Z,BEGIN             Command substituted...
 004248 4110 B242/4800_      00242 25767  1                      SCINIT CPCMD,LH:CPCMDLEN  (allow x=1 to be defined command)
 00425E 58E0 7A9C/0DEE       04C7C 25790  1                      VCALL XCMDSCAN            CHECK FOR EXEC COMMANDS (EG. X=1)
 004264                            25794                       END
 004264 7088/47F0 709E_04264 04246 25798                       ELSE  'SCINIT CPCMD,LH:CPCMDLEN'
                                   25837                       ¿þþþþþþþþþþþþþþþþþþþþþþþþþþþþþÜ
                                   25838                       Ÿ  Scan and execute command.  Ÿ
                                   25839                       ¾þþþþþþþþþþþþþþþþþþþþþþþþþþþþþ»
 00427E 5810 B08C/1B00_      0008C 25840                       SCAN  PRT                 SCAN AND EXECUTE COMMAND !
                                   25872                       COMMENT                   DOES NOT USUALLY RETURN !
 0042D0 58E0 7AAC/0DEE       04C8C 25873                       SCANCHK
 0042D6 47F0 C7DE            007DE 25878                       B     CVNEXT
 0042DA 18D8/9808 D004_            25879                       PEND
 DROP   *,R7
1COMM     (COMM4072) (12:40) (15MAR04) SYSCMD Command Prefix                                                                Page   90
0Current Usings:  (CP,R11) (CV,R12)
0Loc    Object Code    Addr1 Addr2  Stmt Lv Lineno    Source Statement           (Hibal 5, Asmedit 3.3)  HLASM R4.0  2004/03/15 12.40
+___    ______ ____    _____ _____  ____ __ ______    ______ _________
0                                  25900              ¿þþþþþþþþþþþþþþþþþþþþþþþþþþþþþþþþþþþþþþþþþþþþþþþþþþþþþþþþþþþþþþþþþþþþþÜ
                                   25901              Ÿ                                                                     Ÿ
                                   25902              Ÿ  SYSCMD -- Process SYSCMD command prefix.                           Ÿ
                                   25903              Ÿ                                                                     Ÿ
                                   25904              Ÿ    Use this prefix to avoid conflicts with user defined commands.   Ÿ
                                   25905              Ÿ    For example, "syscmd print ..." would not execute a user         Ÿ
                                   25906              Ÿ    defined PRINT command -- it would always execute the "system"    Ÿ
                                   25907              Ÿ    PRINT command.                                                   Ÿ
                                   25908              Ÿ                                                                     Ÿ
                                                      ¾þþþþþþþþþþþþþþþþþþþþþþþþþþþþþþþþþþþþþþþþþþþþþþþþþþþþþþþþþþþþþþþþþþþþþ»
00042E8 50E0 D000/9008_      00000 25909              SYSCMD   XPROC
 USING  *,R7
                                   25949                       ¿þþþþþþþþþþþþþþþþþþþþþþþþþþþþþþþþþþþþþþþþþþþþþþþþþþþþþþþþÜ
                                   25950                       Ÿ  Reset scanner and re-execute command without prefix.  Ÿ
                                   25951                       ¾þþþþþþþþþþþþþþþþþþþþþþþþþþþþþþþþþþþþþþþþþþþþþþþþþþþþþþþþ»
 004302 58E0 B08C/581E_      0008C 25952                       SCINFO
 004310 4000 B240            00240 25961                       STH   R0,CPCMDLEN
 004314 1820                       25962                       LR    R2,R0
 004316 183D/41D0 D0EC             25963                       XPUSH ,,L'CPCMD,PTR=R3
 00431C 18E3/18F2/1801_            25966                       MOVEL (R3),(R1),(R2)
 004326 41E0 B242/18F2_      00242 25984                       MOVEL CPCMD,(R3),(R2)
 004332 4BD0 79B2            04CB4 26004                       XPOP  ,,L'CPCMD
 004336 4110 B242/4800_      00242 26006                       SCINIT CPCMD,LH:CPCMDLEN  RESET SCANNER
 00434C 4110 B242/4800_      00242 26029                       OSCINIT CPCMD,LH:CPCMDLEN  OLD SCANNER COMPATIBILTY
                                   26048                       ¿þþþþþþþþþþþþþþþþþþþþþþþþþþþþþÜ
                                   26049                       Ÿ  Scan and execute command.  Ÿ
                                   26050                       ¾þþþþþþþþþþþþþþþþþþþþþþþþþþþþþ»
 00435A 58E0 797A/0DEE       04C7C 26051                       VCALL XCMDSCAN            CHECK FOR EXEC COMMANDS (EG. X=1)
 004360 5810 B08C/1B00_      0008C 26055                       SCAN  PRT                 SCAN AND EXECUTE COMMAND !
                                   26087                       COMMENT                   DOES NOT USUALLY RETURN !
 0043B2 58E0 798A/0DEE       04C8C 26088                       SCANCHK
 0043B8 47F0 C7DE            007DE 26093                       B     CVNEXT
 0043BC 18D8/9808 D004_            26094                       PEND
 DROP   *,R7
1COMM     (COMM4072) (12:40) (15MAR04) CDUMP Command Prefix                                                                 Page   91
0Current Usings:  (CP,R11) (CV,R12)
0Loc    Object Code    Addr1 Addr2  Stmt Lv Lineno    Source Statement           (Hibal 5, Asmedit 3.3)  HLASM R4.0  2004/03/15 12.40
+___    ______ ____    _____ _____  ____ __ ______    ______ _________
0                                  26115              ¿þþþþþþþþþþþþþþþþþþþþþþþþþþþþþþþþþþþþþþþþþþþþþþþþþþþþþþþþþþþþþþþþþþþþþÜ
                                   26116              Ÿ                                                                     Ÿ
                                   26117              Ÿ  CDUMP -- Process CDUMP command prefix.                             Ÿ
                                   26118              Ÿ                                                                     Ÿ
                                                      ¾þþþþþþþþþþþþþþþþþþþþþþþþþþþþþþþþþþþþþþþþþþþþþþþþþþþþþþþþþþþþþþþþþþþþþ»
00043CA 50E0 D000/9008_      00000 26119              CDUMP    XPROC
 USING  *,R7
                                   26159
                                   26160                       COMMENT                   CHECK IF COMMAND VALID FOR CDUMP
 0043E4 58E0 78AC/0DEE       04C90 26161                       ACALL CHKCDUMP
                                   26165                       ¿þþþþþþþþþþþþþþþþþþþÜ
                                   26166                       Ÿ  Set DUMP flags.  Ÿ
                                   26167                       ¾þþþþþþþþþþþþþþþþþþþ»
 0043EA 9280 BC68      00C68       26168                       MVI   CPDMPLST,X'80'      Lineno not yet set
 0043EE D203 B5A8 78B0 005A8 04C94 26169                       MVC   CPACLNO,=F'-1000'   No current lineno
 0043F4 9680 BD55      00D55       26170                       SET   CPFDUMP             Turn on the stow flag
                                   26176                       ¿þþþþþþþþþþþþþþþþþþþþþþþþþþþþþþþþþþþÜ
                                   26177                       Ÿ  Remove CDUMP from command line.  Ÿ
                                   26178                       ¾þþþþþþþþþþþþþþþþþþþþþþþþþþþþþþþþþþþ»
 0043F8 1830                       26179                       LR    R3,R0
 0043FA 0630/1233/4740_            26180                       MOVE  R3,@R1,CVBLANKS
                                   26218                       ¿þþþþþþþþþþþþþþþþþþþþþþþþþþþþþþþþþþþþþþþþþþþþþþþþþþþþþþþþÜ
                                   26219                       Ÿ  Reset scanner and re-execute command without prefix.  Ÿ
                                   26220                       ¾þþþþþþþþþþþþþþþþþþþþþþþþþþþþþþþþþþþþþþþþþþþþþþþþþþþþþþþþ»
 004406 58E0 B08C/581E_      0008C 26221                       SCINFO
 004414 58E0 B08C/501E_      0008C 26230                       SCINIT (R1),(R0)         RESET SCANNER
                                   26250                       ¿þþþþþþþþþþþþþþþþþþþþþþþþþþþþþþþþþþþþþþþþþþþþþþþþþþþþþþþþÜ
                                   26251                       Ÿ  The following is for dual-scanner compatibility only  Ÿ
                                   26252                       ¾þþþþþþþþþþþþþþþþþþþþþþþþþþþþþþþþþþþþþþþþþþþþþþþþþþþþþþþþ»
 004422 58E0 B08C/D2AF_      0008C 26253                       SCPUSH
 004430 5810 B08C/1B00_      0008C 26259                       SCAN
 00447E 58E0 B08C/581E_      0008C 26290                       SCINFO
 00448C 58E0 7894/0DEE       04C78 26299                       OSCINIT (R1),(R0)         OLD SCANNER COMPATIBILTY
 004492 58E0 B08C/4BD0_      0008C 26315                       SCPOP
                                   26321
 0044A0 58E0 7898/0DEE       04C7C 26322                       VCALL XCMDSCAN            CHECK FOR EXEC COMMANDS (EG. X=1)
 0044A6 5810 B08C/1B00_      0008C 26326                       SCAN  PRT                 SCAN AND EXECUTE COMMAND !
                                   26358                       COMMENT                   DOES NOT USUALLY RETURN !
 0044F8 58E0 78A8/0DEE       04C8C 26359                       SCANCHK
 0044FE 47F0 C7DE            007DE 26364                       B     CVNEXT
 004502 18D8/9808 D004_            26365                       PEND
 DROP   *,R7
1COMM     (COMM4072) (12:40) (15MAR04) CDUMP Command Prefix                                                                 Page   92
0Current Usings:  (CP,R11) (CV,R12)
0Loc    Object Code    Addr1 Addr2  Stmt Lv Lineno    Source Statement           (Hibal 5, Asmedit 3.3)  HLASM R4.0  2004/03/15 12.40
+___    ______ ____    _____ _____  ____ __ ______    ______ _________
0                                  26386              ¿þþþþþþþþþþþþþþþþþþþþþþþþþþþþþþþþþþþþþþþþþþþþþþþþþþþþþþþþþþþþþþþþþþþþþÜ
                                   26387              Ÿ                                                                     Ÿ
                                   26388              Ÿ  CHKCDUMP - Check if command to CDUMP command is invaild.           Ÿ
                                   26389              Ÿ                                                                     Ÿ
                                   26390              Ÿ  CDUMP command prefix does not work for ORVYL commands.             Ÿ
                                   26391              Ÿ  It also does not work for XCALL nor EXEC commands.  This           Ÿ
                                   26392              Ÿ  list is not exhaustive, but catches a few commands that            Ÿ
                                   26393              Ÿ  people might try without success.                                  Ÿ
                                   26394              Ÿ                                                                     Ÿ
                                                      ¾þþþþþþþþþþþþþþþþþþþþþþþþþþþþþþþþþþþþþþþþþþþþþþþþþþþþþþþþþþþþþþþþþþþþþ»
0004510 50E0 D000/9008_      00000 26395              CHKCDUMP PROC
 USING  *,R7
 00452A 58E0 B08C/D2AF_      0008C 26434                       SCPUSH ,
 004538 5810 B08C/1B00_      0008C 26440                       SCAN  CKCDPRT
 00458A 58E0 B08C/4BD0_      0008C 26472                       SCPOP ,
 004598 1BFF                       26478                       CLEAR R15
 00459A 18D8/9808 D004_            26482                       PEND
 DROP   *,R7
                                   26502
 0045A8 C7C5E34040404040_          26503              CKCDPRT  SCKW  GET,CINVALID        A PARTIAL LIST OF INVALID CMDS
 0045D0 D7E4E34040404040_          26518                       SCKW  PUT,CINVALID
 0045F8 C5E7C5C3E4E3C540_          26533                       SCKW  EXECUTE,CINVALID,A
 004620 E4E3C9D340404040_          26548                       SCKW  UTIL,CINVALID,A
 004648 C1C4D4C9D5404040_          26563                       SCKW  ADMIN,CINVALID,A
 004670 C5D4E24040404040_          26578                       SCKW  EMS,CINVALID
 004698 C6D6D3C9D6404040_          26593                       SCKW  FOLIO,CINVALID
 0046C0 D7D9C9E2D4404040_          26608                       SCKW  PRISM,CINVALID
 0046E8 E2D7C9D9C5E24040_          26623                       SCKW  SPIRES,CINVALID
 004710 C3C1D3D340404040_          26638                       SCKW  CALL,CINVALID,A
 004738 E7C3404040404040_          26653                       SCKW  XC,CINVALID
 004760 E7C3C1D3D3404040_          26668                       SCKW  XCALL,CINVALID,A
 004788 4040404040404040_          26683                       SCKW  ,CNORMAL
                                   26698              þþþþ
 0047B0 50E0 D000/9008_      00000 26699              CNORMAL  DPROC ,                   NORMAL CDUMP, DO NOTHING
 USING  *,R7
 0047CA 41F0 0004            00004 26739                       LA    R15,4
 0047CE 18D8/9808 D004_            26740                       PEND
 DROP   *,R7
                                   26760
 0047DC 50E0 D000/9008_      00000 26761              CINVALID PROC  ,                   INVALID QUIET OPTION
 USING  *,R7
 0047F6 41F0 B050/58E0_      00050 26800                       TSEG  (R1),(R0)
 004800 4110 74C4/4100_      04CBA 26824                 ERROR ': invalid.  Command may not be used with CDUMP prefix. '
 00480C 18D8/9808 D004_            26831                       PEND
 DROP   *,R7
1COMM     (COMM4072) (12:40) (15MAR04) QUIET Command Prefix                                                                 Page   93
0Current Usings:  (CP,R11) (CV,R12)
0Loc    Object Code    Addr1 Addr2  Stmt Lv Lineno    Source Statement           (Hibal 5, Asmedit 3.3)  HLASM R4.0  2004/03/15 12.40
+___    ______ ____    _____ _____  ____ __ ______    ______ _________
0                                  26852              ¿þþþþþþþþþþþþþþþþþþþþþþþþþþþþþþþþþþþþþþþþþþþþþþþþþþþþþþþþþþþþþþþþþþþþþÜ
                                   26853              Ÿ                                                                     Ÿ
                                   26854              Ÿ  QUIET -- Process QUIET command prefix.                             Ÿ
                                   26855              Ÿ                                                                     Ÿ
                                                      ¾þþþþþþþþþþþþþþþþþþþþþþþþþþþþþþþþþþþþþþþþþþþþþþþþþþþþþþþþþþþþþþþþþþþþþ»
000481A 50E0 D000/9008_      00000 26856              QUIET    XPROC
 USING  *,R7
                                   26896
                                   26897                       COMMENT                   CHECK IF COMMAND VALID FOR QUIET
 004834 58E0 746C/0DEE       04CA0 26898                       ACALL CHKQUIET
                                   26902
                                   26903                       COMMENT                   SET QUIET FLAG
 00483A 9640 BD55      00D55       26904                       SET   CPFQUIET
                                   26910
                                   26911                       COMMENT                   REMOVE "QUIET" FROM COMMAND LINE
 00483E 1830                       26912                       LR    R3,R0
 004840 0630/1233/4740_            26913                       MOVE  R3,@R1,CVBLANKS
                                   26951
                                   26952                       COMMENT                   RESET SCANNER, QUIETLY DO COMMAND
 00484C 58E0 B08C/581E_      0008C 26953                       SCINFO
 00485A 58E0 B08C/501E_      0008C 26962                       SCINIT (R1),(R0)          RESET SCANNER
                                   26982                       ¿þþþþþþþþþþþþþþþþþþþþþþþþþþþþþþþþþþþþþþþþþþþþþþþþþþþþþþþþÜ
                                   26983                       Ÿ  The following is for dual-scanner compatibility only  Ÿ
                                   26984                       ¾þþþþþþþþþþþþþþþþþþþþþþþþþþþþþþþþþþþþþþþþþþþþþþþþþþþþþþþþ»
 004868 58E0 B08C/D2AF_      0008C 26985                       SCPUSH
 004876 5810 B08C/1B00_      0008C 26991                       SCAN
 0048C4 58E0 B08C/581E_      0008C 27022                       SCINFO
 0048D2 58E0 7444/0DEE       04C78 27031                       OSCINIT (R1),(R0)         OLD SCANNER COMPATIBILTY
 0048D8 58E0 B08C/4BD0_      0008C 27047                       SCPOP
                                   27053
 0048E6 58E0 7448/0DEE       04C7C 27054                       VCALL XCMDSCAN            CHECK FOR EXEC COMMANDS (EG. X=1)
 0048EC 5810 B08C/1B00_      0008C 27058                       SCAN  PRT                 SCAN AND EXECUTE COMMAND !
 00493E 58E0 7458/0DEE       04C8C 27090                       SCANCHK
 004944 47F0 C7DE            007DE 27095                       B     CVNEXT
 004948 18D8/9808 D004_            27096                       PEND
 DROP   *,R7
1COMM     (COMM4072) (12:40) (15MAR04) QUIET Command Prefix                                                                 Page   94
0Current Usings:  (CP,R11) (CV,R12)
0Loc    Object Code    Addr1 Addr2  Stmt Lv Lineno    Source Statement           (Hibal 5, Asmedit 3.3)  HLASM R4.0  2004/03/15 12.40
+___    ______ ____    _____ _____  ____ __ ______    ______ _________
0                                  27117              ¿þþþþþþþþþþþþþþþþþþþþþþþþþþþþþþþþþþþþþþþþþþþþþþþþþþþþþþþþþþþþþþþþþþþþþÜ
                                   27118              Ÿ                                                                     Ÿ
                                   27119              Ÿ                                                                     Ÿ
                                   27120              Ÿ  CHKQUIET - Check if command to QUIET command is invaild.           Ÿ
                                   27121              Ÿ                                                                     Ÿ
                                   27122              Ÿ  QUIET command prefix does not work for ORVYL commands.             Ÿ
                                   27123              Ÿ  It also does not work for XCALL nor EXEC commands.  This           Ÿ
                                   27124              Ÿ  list is not exhaustive, but catches a few commands that            Ÿ
                                   27125              Ÿ  people might try without success.                                  Ÿ
                                   27126              Ÿ                                                                     Ÿ
                                   27127              Ÿ                                                                     Ÿ
                                                      ¾þþþþþþþþþþþþþþþþþþþþþþþþþþþþþþþþþþþþþþþþþþþþþþþþþþþþþþþþþþþþþþþþþþþþþ»
0004956 50E0 D000/9008_      00000 27128              CHKQUIET PROC
 USING  *,R7
 004970 58E0 B08C/D2AF_      0008C 27167                       SCPUSH ,
 00497E 5810 B08C/1B00_      0008C 27173                       SCAN  CKQUIPRT
 0049D0 58E0 B08C/4BD0_      0008C 27205                       SCPOP ,
 0049DE 1BFF                       27211                       CLEAR R15
 0049E0 18D8/9808 D004_            27215                       PEND
 DROP   *,R7
                                   27235                       ¿þþþþþþþþþþþþþþþþþþþþþþþþþþþÜ
                                   27236                       Ÿ  CHECK INVALID COMMANDS.  Ÿ
                                   27237                       ¾þþþþþþþþþþþþþþþþþþþþþþþþþþþ»
 0049F0 C7C5E34040404040_          27238              CKQUIPRT SCKW  GET,QINVALID        A PARTIAL LIST OF INVALID CMDS
 004A18 D7E4E34040404040_          27253                       SCKW  PUT,QINVALID
 004A40 C5E7C5C3E4E3C540_          27268                       SCKW  EXECUTE,QINVALID,A
 004A68 E4E3C9D340404040_          27283                       SCKW  UTIL,QINVALID,A
 004A90 C1C4D4C9D5404040_          27298                       SCKW  ADMIN,QINVALID,A
 004AB8 C5D4E24040404040_          27313                       SCKW  EMS,QINVALID
 004AE0 C6D6D3C9D6404040_          27328                       SCKW  FOLIO,QINVALID
 004B08 D7D9C9E2D4404040_          27343                       SCKW  PRISM,QINVALID
 004B30 E2D7C9D9C5E24040_          27358                       SCKW  SPIRES,QINVALID
 004B58 C3C1D3D340404040_          27373                       SCKW  CALL,QINVALID,A
 004B80 E7C3404040404040_          27388                       SCKW  XC,QINVALID
 004BA8 E7C3C1D3D3404040_          27403                       SCKW  XCALL,QINVALID,A
 004BD0 4040404040404040_          27418                       SCKW  ,QNORMAL
                                   27433              þþþþ
 004BF8 50E0 D000/9008_      00000 27434              QNORMAL  DPROC ,                   NORMAL QUIET, DO NOTHING
 USING  *,R7
 004C12 41F0 0004            00004 27474                       LA    R15,4
 004C16 18D8/9808 D004_            27475                       PEND
 DROP   *,R7
                                   27495
 004C24 50E0 D000/9008_      00000 27496              QINVALID PROC  ,                   INVALID QUIET OPTION
 USING  *,R7
 004C3E 41F0 B050/58E0_      00050 27535                       TSEG  (R1),(R0)
 004C48 4110 706A/4100_      04CA8 27559                       TSEG  ': invalid.  '
 004C5A 4110 70B3/4100_      04CF1 27577                       ERROR 'Command may not be used with QUIET prefix. '
 004C66 18D8/9808 D004_            27584                       PEND
 DROP   *,R7
                                   27604
                                   27605                       QLTORG
1COMM     (COMM4072) (12:40) (15MAR04) DECIDE Command                                                                       Page   95
0Current Usings:  (CP,R11) (CV,R12)
0Loc    Object Code    Addr1 Addr2  Stmt Lv Lineno    Source Statement           (Hibal 5, Asmedit 3.3)  HLASM R4.0  2004/03/15 12.40
+___    ______ ____    _____ _____  ____ __ ______    ______ _________
0                                  27636              ¿þþþþþþþþþþþþþþþþþþþþþþþþþþþþþþþþþþþþþþþþþþþþþþþþþþþþþþþþþþþþþþþþþþþþþÜ
                                   27637              Ÿ                                                                     Ÿ
                                   27638              Ÿ  DECIDE -- DECIDE command.                                          Ÿ
                                   27639              Ÿ                                                                     Ÿ
                                                      ¾þþþþþþþþþþþþþþþþþþþþþþþþþþþþþþþþþþþþþþþþþþþþþþþþþþþþþþþþþþþþþþþþþþþþþ»
0004D28 50E0 D000/9008_      00000 27640              DECIDE   XPROC
 USING  *,R7
 004D42 58E0 713E/0DEE       04E80 27680                       VCALL LOCALTOD
 004D48 9001 BC88            00C88 27684                       STM   R0,R1,CPDOUB
 004D4C 1FFF/BFF3 BC8D             27685                       L2    R15,CPDOUB+5        Lowish bits
 004D52 88F0 0008            00008 27693                       SRL   R15,8               (Bits that are always zero)
 004D56 54F0 7142            04E84 27694                       N     R15,=F'7'           Leave last 3 bits
 004D5A 4CF0 714A            04E8C 27695                       MH    R15,=H'25'          Times 25 for offset
 004D5E 411F 7040/4100_      04D82 27696                       TSEG  REMARKS(R15),25,B
 004D70 47F0 C7DE            007DE 27726                       B     CVNEXT
 004D74 18D8/9808 D004_            27727                       PEND  ,
 DROP   *,R7
                                   27747              *
                                   27748              *                   ....v....1....v....2....v
 004D82 5C5C40E885A2405C           27749              REMARKS  DC    CL25'** Yes **'
 004D9B 5C5C40D596405C5C           27750                       DC    CL25'** No **'
 004DB4 5C5C40E688A84095           27751                       DC    CL25'** Why not? **'
 004DCD 5C5C40C796408696           27752                       DC    CL25'** Go for it! **'
 004DE6 5C5C40E399A84081           27753                       DC    CL25'** Try again later **'
 004DFF 5C5C40E4A28540D5           27754                       DC    CL25'** Use Navigator **'
 004E18 5C5C40C6969940A2           27755                       DC    CL25'** For sure! **'
 004E31 5C5C40D59640E6C1           27756                       DC    CL25'** No WAY! **'
                                   27757
1COMM     (COMM4072) (12:40) (15MAR04) DECIDE Command                                                                       Page   96
0Current Usings:  (CP,R11) (CV,R12)
0Loc    Object Code    Addr1 Addr2  Stmt Lv Lineno    Source Statement           (Hibal 5, Asmedit 3.3)  HLASM R4.0  2004/03/15 12.40
+___    ______ ____    _____ _____  ____ __ ______    ______ _________
0                                  27759              ¿þþþþþþþþþþþþþþþþþþþþþþþþþþþþþþþþþþþþþþþþþþþþþþþþþþþþþþþþþþþþþþþþþþþþþÜ
                                   27760              Ÿ                                                                     Ÿ
                                   27761              Ÿ  NOTYET -- Unimplemented command.                                   Ÿ
                                   27762              Ÿ                                                                     Ÿ
                                                      ¾þþþþþþþþþþþþþþþþþþþþþþþþþþþþþþþþþþþþþþþþþþþþþþþþþþþþþþþþþþþþþþþþþþþþþ»
0004E4A 50E0 D000/9008_      00000 27763              NOTYET   XPROC
 USING  *,R7
 004E64 4110 702A/4100_      04E8E 27803                       ABORT 'Command is not yet implemented.'
 004E70 18D8/9808 D004_            27810                       PEND
 DROP   *,R7
                                   27830
                                   27831                       QLTORG
1COMM     (COMM4072) (12:40) (15MAR04) COMMAND Table                                                                        Page   97
0Current Usings:  (CP,R11) (CV,R12)
0Loc    Object Code    Addr1 Addr2  Stmt Lv Lineno    Source Statement           (Hibal 5, Asmedit 3.3)  HLASM R4.0  2004/03/15 12.40
+___    ______ ____    _____ _____  ____ __ ______    ______ _________
0                                  27849                       ¿þþþþþþþþþþþþþþþþþþþþþþþÜ
                                   27850                       Ÿ  Main command table.  Ÿ
                                   27851                       ¾þþþþþþþþþþþþþþþþþþþþþþþ»
 004EB0 C9C6404040404040_          27852              PRT      SCKW  IF,V(IF),S
 004ED8 E2C5E34040404040_          27867                       SCKW  SET,V(SET),S
 004F00 D9C5C1C440404040_          27882                       SCKW  READ,V(READ),(A,S)
 004F28 E6D9C9E3C5404040_          27897                       SCKW  WRITE,V(WRITE),(A,S)
 004F50 C3C8404040404040_          27912                       SCKW  CH,V(CHANGE),S
 004F78 C3C8C1D5C7C54040_          27927                       SCKW  CHANGE,V(CHANGE),(A,S)
 004FA0 C3C4E4D4D7404040_          27942                       SCKW  CDUMP,V(CDUMP),A
 004FC8 E2C8D6E640404040_          27957                       SCKW  SHOW,V(SHOW),(A,S)
 004FF0 C4E4D4D740404040_          27972                       SCKW  DUMP,V(DUMP),(A,S)
 005018 5BC4E4D4D7404040_          27987                       SCKW  $DUMP,V(DUMP),(A,S)
 005040 E2E5404040404040_          28002                       SCKW  SV,V(SHOWVAL),S
 005068 C5E7C5C3E4E3C540_          28017                       SCKW  EXECUTE,V(EXECUTE),(A,S)
 005090 E7C3404040404040_          28032                       SCKW  XC,V(XCALL),S
 0050B8 E7C1404040404040_          28047                       SCKW  XA,V(XCACTIVE),S
 0050E0 E7C3C1D3D3404040_          28062                       SCKW  XCALL,V(XCALL),(A,S)
 005108 E7C3D6D4D4C1D5C4_          28077                       SCKW  XCOMMAND,V(XCOMYUCK),(A,S)
 005130 E7D9C5E3E4D9D540_          28092                       SCKW  XRETURN,V(XRETURN),(A,S)
 005158 E7C5E7C9E3404040_          28107                       SCKW  XEXIT,V(XEXIT),S
 005180 D7C3C1D3D3404040_          28122                       SCKW  PCALL,V(PCALL),S
 0051A8 D9C5E3E4D9D54040_          28137                       SCKW  RETURN,V(PRETURN),S
 0051D0 E2E8E2C3C1D3D340_          28152                       SCKW  SYSCALL,V(SYSCALL),S
 0051F8 C7D6E3D640404040_          28167                       SCKW  GOTO,V(GOTO),S
 005220 D3C9E2E340404040_          28182                       SCKW  LIST,V(LIST),(A1,S)
 005248 D7D6C9D5E3404040_          28197                       SCKW  POINT,V(POINT),(A1,S)
 005270 C2C5C7C9D5404040_          28212                       SCKW  BEGIN,V(BEGIN),S
 005298 C5D5C44040404040_          28227                       SCKW  END,V(END),S
 0052C0 E6C8C9D3C5404040_          28242                       SCKW  WHILE,V(WHILE),S
 0052E8 C5D3E2C540404040_          28257                       SCKW  ELSE,V(ELSE),(A,S)
 005310 C5D3E2C5C9C64040_          28272                       SCKW  ELSEIF,V(ELSEIF),S
 005338 D9C5D7C5C1E34040_          28287                       SCKW  REPEAT,V(REPEAT),S
 005360 E4D5E3C9D3404040_          28302                       SCKW  UNTIL,V(UNTIL),S
 005388 C3C1E2C540404040_          28317                       SCKW  CASE,V(CASE),S
 0053B0 C3C1E2C5E2404040_          28332                       SCKW  CASES,V(CASES),S
 0053D8 E3C8C5D540404040_          28347                       SCKW  THEN,V(THEN),(A,S)
 005400 D3D6D6D740404040_          28362                       SCKW  LOOP,NOTYET,S
 005428 E7D7D9D6C3C5C4E4_          28377                       SCKW  XPROCEDURE,V(XPROC),(A,S)
                                   28392              *        SCKW  PROCEDURE,NOTYET,(A,S)    SPIRES CONFLICT
 005450 E7D3D6C1C4404040_          28393                       SCKW  XLOAD,V(XLOAD),(A,S)
 005478 E7E2C3C1D5404040_          28408                       SCKW  XSCAN,V(XSCAN),(A,S)
 0054A0 E7C6D6D9D4C1E340_          28423                       SCKW  XFORMAT,V(XFORMAT),(A,S)
 0054C8 E7C3D6D5E5C5D9E3_          28438                       SCKW  XCONVERT,V(XCONVERT),(A,S)
 0054F0 E7D7C1E4E2C54040_          28453                       SCKW  XPAUSE,V(XPAUSE),(A,S)
 005518 E7D9C5E2C5E34040_          28468                       SCKW  XRESET,V(XRESET),(A,S)
 005540 E7C7D64040404040_          28483                       SCKW  XGO,V(XGO),S
 005568 E2E8E2C3D4C44040_          28498                       SCKW  SYSCMD,SYSCMD,S
 005590 E4E2C5D9C3D4C440_          28513                       SCKW  USERCMD,USERCMD,S
 0055B8 D7E4C2D3D6C1C440_          28528                       SCKW  PUBLOAD,V(PUBLOAD),S      DON'T ALLOW PUB ABBREV.
 0055E0 D6D5404040404040_          28543                       SCKW  ON,V(ON),S
 005608 D7D9C9D5E3404040_          28558                       SCKW  PRINT,V(PRINT),(A,S)
 005630 D3D7D9C9D5E34040_          28573                       SCKW  LPRINT,V(PRINT),(A,S)
 005658 6DC6C1E740404040_          28588                       SCKW  _FAX,V(PRINT),S
1COMM     (COMM4072) (12:40) (15MAR04) COMMAND Table                                                                        Page   98
0Current Usings:  (CP,R11) (CV,R12)
0Loc    Object Code    Addr1 Addr2  Stmt Lv Lineno    Source Statement           (Hibal 5, Asmedit 3.3)  HLASM R4.0  2004/03/15 12.40
+___    ______ ____    _____ _____  ____ __ ______    ______ _________
0005680 D4D6C4C9C6E84040_          28603                       SCKW  MODIFY,V(MODIFY),(A1,S)
 0056A8 C5C4C9E340404040_          28618                       SCKW  EDIT,V(EDIT),(A1,S)
 0056D0 E2D7C5D3D3404040_          28633                       SCKW  SPELL,V(SPELL),(A,S)
 0056F8 C3C8C5C3D2404040_          28648                       SCKW  CHECK,CMDFIN,(A,S)
 005720 C7E4C5E2E2404040_          28663                       SCKW  GUESS,V(GUESS),(A,S)
 005748 D3C5C1D9D5404040_          28678                       SCKW  LEARN,V(LEARN),(A,S)
 005770 E4D5D3C5C1D9D540_          28693                       SCKW  UNLEARN,V(UNLEARN),(A,S)
 005798 D1D6C9D540404040_          28708                       SCKW  JOIN,V(JOIN),(A1,S)
 0057C0 E2D7D3C9E3404040_          28723                       SCKW  SPLIT,V(SPLIT),(A,S)
 0057E8 C5E7C3C8C1D5C7C5_          28738                       SCKW  EXCHANGE,V(EXCHANGE),(A,S)
 005810 E5C9C5E640404040_          28753                       SCKW  VIEW,V(VIEW),(A1,S)
 005838 D7E4E34040404040_          28768                       SCKW  PUT,CMDFIN          ORVYL's PUT command
 005860 D7E4E3D3C9D5C540_          28783                       SCKW  PUTLINE,V(PUTLCMD),(A,S)
 005888 D7E4E3D3C9D5C5E3_          28798                       SCKW  PUTLINET,V(PUTLCMDT),(A,S)
 0058B0 D7E4E3C5D5C44040_          28813                       SCKW  PUTEND,V(PUTEND),S
 0058D8 C3D6D3D3C5C3E340_          28828                       SCKW  COLLECT,V(COLLECT),(A1,S)
 005900 D3D6C3C1E3C54040_          28843                       SCKW  LOCATE,V(JESCMD),(A,S)
 005928 C3D6D4D7C1D9C540_          28858                       SCKW  COMPARE,V(COMPARE),(A,S)  must stay ahead of comment
 005950 C3D6D4D4C5D5E340_          28873                       SCKW  COMMENT,V(COMMENT),(A,S)
 005978 D9E4D54040404040_          28888                       SCKW  RUN,V(RUN),S
 0059A0 E6C1C9E340404040_          28903                       SCKW  WAIT,V(WAIT),(A,S)
 0059C8 C4C5C6C9D5C54040_          28918                       SCKW  DEFINE,V(DEFINE),(A,S)
 0059F0 E4D5C4C5C6C9D5C5_          28933                       SCKW  UNDEFINE,V(UNDEFINE),(A,S)
 005A18 6DE3D64040404040_          28948                       SCKW  _TO,V(TO)
 005A40 C3D3C5C1D9404040_          28963                       SCKW  CLEAR,V(CLEAR),(A,S)
 005A68 C3D3D94040404040_          28978                       SCKW  CLR,V(CLEAR),S
 005A90 C3D6D7E840404040_          28993                       SCKW  COPY,V(COPY),(A,S)
 005AB8 C3D6D7E8C1404040_          29008                       SCKW  COPYA,V(COPYA),(A,S)
 005AE0 C3D6E4D5E3404040_          29023                       SCKW  COUNT,V(COUNT),(A,S)
 005B08 C4C5D3C5E3C54040_          29038                       SCKW  DELETE,V(DELETE),(A1,S)
 005B30 C6C5E3C3C8404040_          29053                       SCKW  FETCH,V(FETCH),(A,S)
 005B58 E2E8D5C3C8404040_          29068                       SCKW  SYNCH,V(JESCMD),(A,S)
 005B80 C3C8C5C3D2D9E4D5_          29083                       SCKW  CHECKRUN,V(JESCMD),S
 005BA8 C9D5E2C5D9E34040_          29098                       SCKW  INSERT,V(INSERT),(A,S)
 005BD0 C940404040404040_          29113                       SCKW  I,V(INSERT),(A,S)
 005BF8 D4D6E5C540404040_          29128                       SCKW  MOVE,V(MOVE),(A,S)
 005C20 D5E4D4C2C5D94040_          29143                       SCKW  NUMBER,V(NUMBER),(A,S)
 005C48 D9C5D7D3C1C3C540_          29158                       SCKW  REPLACE,V(REPLACE),(A1,S)
 005C70 E4E2C54040404040_          29173                       SCKW  USE,V(USE),S
 005C98 E6E4E2C540404040_          29188                       SCKW  WUSE,V(USE),(A,S)
 005CC0 E2D8E4C1E2C84040_          29203                       SCKW  SQUASH,V(SQUASH),(A,S)
 005CE8 E2D8E4C9E2C84040_          29218                       SCKW  SQUISH,V(SQUASH),(A,S)
 005D10 C4C3D34040404040_          29233                       SCKW  DCL,V(DECLARE),S
 005D38 C4C5C3D3C1D9C540_          29248                       SCKW  DECLARE,V(DECLARE),(A,S)
 005D60 E7C4404040404040_          29263                       SCKW  XD,V(XDEBUG)
 005D88 E7C4C5C2E4C74040_          29278                       SCKW  XDEBUG,V(XDEBUG),(A,S)
 005DB0 E7D4D6D5C9E3D6D9_          29293                       SCKW  XMONITOR,V(XMONITOR),(A,S)
 005DD8 E3D9E84040404040_          29308                       SCKW  TRY,TRY
 005E00 D8E4C9C5E3404040_          29323                       SCKW  QUIET,QUIET,A
 005E28 D8E4C9C5E3D3E840_          29338                       SCKW  QUIETLY,QUIET
 005E50 D3D6C7D6C6C64040_          29353                       SCKW  LOGOFF,V(LOGOFF),S
 005E78 D3D6C7D6E4E34040_          29368                       SCKW  LOGOUT,V(LOGOFF),S
 005EA0 E2C9C7D5D6C6C640_          29383                       SCKW  SIGNOFF,V(LOGOFF),S
 005EC8 D3D6C7D6D5404040_          29398                       SCKW  LOGON,V(LOGON),S
1COMM     (COMM4072) (12:40) (15MAR04) COMMAND Table                                                                        Page   99
0Current Usings:  (CP,R11) (CV,R12)
0Loc    Object Code    Addr1 Addr2  Stmt Lv Lineno    Source Statement           (Hibal 5, Asmedit 3.3)  HLASM R4.0  2004/03/15 12.40
+___    ______ ____    _____ _____  ____ __ ______    ______ _________
0005EF0 D3D6C7C9D5404040_          29413                       SCKW  LOGIN,V(LOGON),S
 005F18 E2C9C7D5D6D54040_          29428                       SCKW  SIGNON,V(LOGON),S
 005F40 D7E4D5C3C8404040_          29443                       SCKW  PUNCH,V(PRINT),(A,S)
 005F68 D7E4D9C7C5404040_          29458                       SCKW  PURGE,V(JESCMD),(A,S)
 005F90 C3D6D5C4C5D5E2C5_          29473                       SCKW  CONDENSE,V(CONDENSE),(A,S)
 005FB8 C3C1D5C3C5D34040_          29488                       SCKW  CANCEL,V(JESCMD),(A,S)
 005FE0 C8D6D3C440404040_          29503                       SCKW  HOLD,V(JESCMD),(A,S)
 006008 D9C5D3C5C1E2C540_          29518                       SCKW  RELEASE,V(JESCMD),(A,S)
 006030 C1D3E3C5D9404040_          29533                       SCKW  ALTER,V(JESCMD),(A,S)
 006058 D1D7D9C9D5E34040_          29548                       SCKW  JPRINT,V(JESCMD),(A,S)
 006080 E7D4C9E340404040_          29563                       SCKW  XMIT,V(JESCMD),(A,S)
 0060A8 D9C5E2E3D6D9C540_          29578                       SCKW  RESTORE,V(RESTORE),(A,S)
 0060D0 C1D3C9C7D5404040_          29593                       SCKW  ALIGN,V(ALIGN),(A,S)
 0060F8 D1E4E2E3C9C6E840_          29608                       SCKW  JUSTIFY,V(ALIGN),(A,S)
 006120 C3C5D5E3C5D94040_          29623                       SCKW  CENTER,V(CENTER),(A,S)
 006148 D7C6D6D9D4C1E340_          29638                       SCKW  PFORMAT,V(PFORMAT),(A,S)
 006170 C1D3D3D6C3C1E3C5_          29653                       SCKW  ALLOCATE,V(ALLOCATE),(A,S)
 006198 E2C1E5C540404040_          29668                       SCKW  SAVE,V(SAVE),(A,S)
 0061C0 D6D3C4E2C1E5C540_          29683                       SCKW  OLDSAVE,V(OLDSAVE),(A,S)
 0061E8 E6E2C1E5C5404040_          29698                       SCKW  WSAVE,V(SAVE),(A,S)
 006210 D9C5E2C1E5C54040_          29713                       SCKW  RESAVE,V(RESAVE),(A,S)        (Must comm after RESTORE)
                                   29728              *        SCKW  RESAVE,V(OLDSAVE),(A,S)       (Must come after RESTORE)
 006238 E2C3D9C1E3C3C840_          29729                       SCKW  SCRATCH,V(SCRATCH),(A,S)
 006260 D6E2D9C5D5C1D4C5_          29744                       SCKW  OSRENAME,V(OSRENAME),(A,S)
 006288 C3C1E3C1D3D6C740_          29759                       SCKW  CATALOG,V(CATALOG),(A,S)
 0062B0 C3C1E3D3C7404040_          29774                       SCKW  CATLG,V(CATALOG),S
 0062D8 D9C5C3C1E3C1D3D6_          29789                       SCKW  RECATALOG,V(CATALOG),(A,S)
 006300 D9C5C3C1E3D3C740_          29804                       SCKW  RECATLG,V(CATALOG),S
 006328 E4D5C3C1E3C1D3D6_          29819                       SCKW  UNCATALOG,V(CATALOG),(A,S)
 006350 E4D5C3C1E3D3C740_          29834                       SCKW  UNCATLG,V(CATALOG),S
 006378 D4C1C9D340404040_          29849                       SCKW  MAIL,V(MAIL),(A,S)
 0063A0 E2C5D5C440404040_          29864                       SCKW  SEND,V(MAIL),(A,S)
 0063C8 D7C1E2E240404040_          29879                       SCKW  PASS,V(PASS),(A,S)
 0063F0 D4C9C3D9D6404040_          29894                       SCKW  MICRO,V(MICRO),(A,S)
 006418 E2C1D4E2D6D54040_          29909                       SCKW  SAMSON,V(SAMSON),(A,S)
 006440 D6D7C5D540404040_          29924                       SCKW  OPEN,V(OPEN),(A,S)
 006468 C3D3D6E2C5404040_          29939                       SCKW  CLOSE,V(CLOSE),(A,S)
 006490 D7C9C3D240404040_          29954                       SCKW  PICK,V(PICK),(A,S)
 0064B8 E4D5C3D3C5C1D940_          29969                       SCKW  UNCLEAR,V(UNCLEAR),(A,S)
 0064E0 E4D5C3D3D9404040_          29984                       SCKW  UNCLR,V(UNCLEAR),S
 006508 D7E4E2C840404040_          29999                       SCKW  PUSH,NOTYET,(A,S)
 006530 D7D6D74040404040_          30014                       SCKW  POP,NOTYET,(A,S)
 006558 C4C5C3C9C4C54040_          30029                       SCKW  DECIDE,DECIDE,(A,S)
 006580 C8C5D3D740404040_          30044                       SCKW  HELP,V(HELP),(A,S)
 0065A8 C4C5E2C3D9C9C2C5_          30059                       SCKW  DESCRIBE,V(HELP),(A,S)
 0065D0 6F40404040404040_          30074                       SCKW  ?,V(HELP),S
                                   30089              *        SCKW  PUBLIC,UTIL,(A,S)      ****** REMOVE ME??? *******
 0065F8 E4E3C9D340404040_          30090                       SCKW  UTIL,UTIL,S
 006620 C9D5E5D6D2C54040_          30105                       SCKW  INVOKE,NOTYET,(A,S)
 006648 C4D6404040404040_          30120                       SCKW  DO,NOTYET,S
 006670 E2D6D9E340404040_          30135                       SCKW  SORT,V(SORT),(A,S)
 006698 E6E2D6D9E3404040_          30150                       SCKW  WSORT,V(SORT),S
 0066C0 C5E5C1D3E4C1E3C5_          30165                       SCKW  EVALUATE,V(EVALUATE),(A,S)
 0066E8 D9C5C36DD3D6C1C4_          30180                       SCKW  REC_LOAD,V(RECLOAD),S      (Must come after RECATLG)
1COMM     (COMM4072) (12:40) (15MAR04) COMMAND Table                                                                        Page  100
0Current Usings:  (CP,R11) (CV,R12)
0Loc    Object Code    Addr1 Addr2  Stmt Lv Lineno    Source Statement           (Hibal 5, Asmedit 3.3)  HLASM R4.0  2004/03/15 12.40
+___    ______ ____    _____ _____  ____ __ ______    ______ _________
0006710 C6E4D5C3E3C9D6D5_          30195                       SCKW  FUNCTION,NOTYET,(A,S)
 006738 D7D9D6C3C5E2E240_          30210                       SCKW  PROCESS,CMDFIN,(A,S)
 006760 D9C5E3D9E8404040_          30225                       SCKW  RETRY,NOTYET,(A,S)
 006788 E5C1D9E840404040_          30240                       SCKW  VARY,V(VARY),(A,S)
 0067B0 E2D4C64040404040_          30255                       SCKW  SMF,V(SMF),(A,S)
 0067D8 E4D7D3D6C1C44040_          30270                       SCKW  UPLOAD,V(UPLOAD),(A,S)
 006800 C4D6E6D5D3D6C1C4_          30285                       SCKW  DOWNLOAD,V(DOWNLOAD),(A,S)
 006828 D2C5D9D4C9E34040_          30300                       SCKW  KERMIT,KERMIT,S
 006850 D8E4C5D9E8404040_          30315                       SCKW  QUERY,V(QUERY),(A1,S)
 006878 D8D6D7C5D5404040_          30330                       SCKW  QOPEN,V(QOPEN),(A,S)
 0068A0 D8E2C5D5C4404040_          30345                       SCKW  QSEND,V(QSEND),(A,S)
 0068C8 D8C5E7C5C3404040_          30360                       SCKW  QEXEC,V(QEXEC),(A,S)
 0068F0 D8D9E4D540404040_          30375                       SCKW  QRUN,V(QRUN),(A,S)
 006918 D8C6C5E3C3C84040_          30390                       SCKW  QFETCH,V(QFETCH),(A,S)
 006940 D8D4D6D5C9E3D6D9_          30405                       SCKW  QMONITOR,V(QMONITOR),(A,S)
 006968 D8D9C5E2C5E34040_          30420                       SCKW  QRESET,V(QRESET),(A,S)
 006990 D8C3D3D6E2C54040_          30435                       SCKW  QCLOSE,V(QCLOSE),(A,S)
 0069B8 C2D9D6C1C4C3C1E2_          30450                       SCKW  BROADCAST,V(BROADCAS),(A,S)
 0069E0 D6D7C5D540404040_          30465                       SCKW  OPEN,V(OPEN),(A,S)
 006A08 C3D3D6E2C5404040_          30480                       SCKW  CLOSE,V(CLOSE),(A,S)
 006A30 D4D6D7C5D5404040_          30495                       SCKW  MOPEN,V(MOPEN),S
 006A58 D4C3D3D6E2C54040_          30510                       SCKW  MCLOSE,V(MCLOSE),S
 006A80 E2E3C1D9E3404040_          30525                       SCKW  START,V(START),(A,S)
 006AA8 E2E3D6D740404040_          30540                       SCKW  STOP,V(STOP),(A,S)
 006AD0 D2C9D3D340404040_          30555                       SCKW  KILL,V(KILL),(A,S)
 006AF8 D6E2404040404040_          30570                       SCKW  OS,V(OS)
 006B20 D5E4D3D3C3D4C440_          30585                       SCKW  NULLCMD,NULLCMD
 006B48 6DE5D3D6C7D6D540_          30600                       SCKW  _VLOGON,V(VLOGON),S
 006B70 6DE5D3D6C7C9D540_          30615                       SCKW  _VLOGIN,V(VLOGON),S
 006B98 6DE5D3D6C7D6C6C6_          30630                       SCKW  _VLOGOFF,V(VLOGOFF),S
 006BC0 6DE5D3D6C7D6E4E3_          30645                       SCKW  _VLOGOUT,V(VLOGOFF),S
 006BE8 6DE5C7D640404040_          30660                       SCKW  _VGO,V(VGO),S
 006C10 6DE5C1E3E3D54040_          30675                       SCKW  _VATTN,V(VATTN),S
 006C38 6DE5C4C5C2E4C740_          30690                       SCKW  _VDEBUG,V(VDEBUG),S
 006C60 6DE5E3C1D4404040_          30705                       SCKW  _VTAM,V(VTAM),S
 006C88 E6C2D9C5C1D24040_          30720                       SCKW  WBREAK,V(WBREAK),S
 006CB0 E6C2C9D3D3404040_          30735                       SCKW  WBILL,V(WBILL),(A,S)
 006CD8 E6C3D6E4D5E34040_          30750                       SCKW  WCOUNT,V(WCOUNT),(A,S)
 006D00 E6C4404040404040_          30765                       SCKW  WD,V(WDEBUG),(A,S)
 006D28 E6C4C5C2E4C74040_          30780                       SCKW  WDEBUG,V(WDEBUG),(A,S)
 006D50 E6C5E5C5D5E34040_          30795                       SCKW  WEVENT,V(WEVENT),(A,S)
 006D78 E6D4D6D5C9E3D6D9_          30810                       SCKW  WMONITOR,V(WMONITOR),(A,S)
 006DA0 E6E3C5E2E3404040_          30825                       SCKW  WTEST,V(WTEST),(A,S)
 006DC8 E6C9E3C5E2E34040_          30840                       SCKW  WITEST,V(WITEST)
 006DF0 E6E2C34040404040_          30855                       SCKW  WSC,V(WSC),S
 006E18 E6D7C34040404040_          30870                       SCKW  WPC,V(WPC),S
 006E40 E6E2E3C1D9E34040_          30885                       SCKW  WSTART,V(WSTART),(A,S)
 006E68 E6E2E3D6D7404040_          30900                       SCKW  WSTOP,V(WSTOP),(A,S)
 006E90 E2E4C2E2E8E24040_          30915                       SCKW  SUBSYS,V(SUBSYS),S
 006EB8 E7C3E3D340404040_          30930                       SCKW  XCTL,V(XCTL),S
 006EE0 E6E8D3C2E4D94040_          30945                       SCKW  WYLBUR,V(XCTL),S
 006F08 C4C5E5E6E8D34040_          30960                       SCKW  DEVWYL,V(XCTL),S
 006F30 E3C5E2E3E6E8D340_          30975                       SCKW  TESTWYL,V(XCTL),S
 006F58 D6D3C4E6E8D34040_          30990                       SCKW  OLDWYL,V(XCTL),S
1COMM     (COMM4072) (12:40) (15MAR04) COMMAND Table                                                                        Page  101
0Current Usings:  (CP,R11) (CV,R12)
0Loc    Object Code    Addr1 Addr2  Stmt Lv Lineno    Source Statement           (Hibal 5, Asmedit 3.3)  HLASM R4.0  2004/03/15 12.40
+___    ______ ____    _____ _____  ____ __ ______    ______ _________
0006F80 4040404040404040_          31005                       SCKW  ,V(IMPLIED),V(MIMPLIED)
 006FA8 4040404040404040_          31020                       SCKW  ,CMDFIN
                                   31035                       AGO   .ENDTAB
                                   31036              .ENDTAB  ANOP
                                   31037
                                   31038                       VLTORG
 007048                07048 07048 31050                       END   .

1COMM     (COMM4072) (12:40) (15MAR04) Relocation Dictionary                                                                Page  102
-   Pos.Id   Rel.Id   Flags    Address                                                       HLASM R4.0  2004/03/15 12.40
0  00000001 00000001    0C    0000013C
   00000001 00000001    0C    00000140
   00000001 00000001    0C    00000148
   00000001 00000001    0C    00000150
   00000001 00000001    0C    00000154
   00000001 00000001    0C    00000160
   00000001 00000001    0C    000003E8
   00000001 00000001    0C    000003FC
   00000001 00000001    0C    00000404
   00000001 00000001    0C    000007A0
   00000001 00000001    0C    000007C8
   00000001 00000001    0C    000007E0
   00000001 00000001    08    0000091D
   00000001 00000001    0C    00000FB4
   00000001 00000001    0C    00000FC8
   00000001 00000001    0C    00000FDC
   00000001 00000001    0C    00001010
   00000001 00000001    0C    00001014
   00000001 00000001    0C    00001020
   00000001 00000001    0C    0000102C
   00000001 00000001    0C    00001418
   00000001 00000001    0C    00001428
   00000001 00000001    0C    0000142C
   00000001 00000001    0C    00001440
   00000001 00000001    0C    00001448
   00000001 00000001    0C    00001454
   00000001 00000001    0C    00001828
   00000001 00000001    0C    00001850
   00000001 00000001    0C    00001878
   00000001 00000001    0C    000018A0
   00000001 00000001    0C    000018C8
   00000001 00000001    0C    000018F0
   00000001 00000001    0C    00001B88
   00000001 00000001    0C    00001BB0
   00000001 00000001    0C    00001BD8
   00000001 00000001    0C    00001C00
   00000001 00000001    0C    00001C28
   00000001 00000001    0C    000020A0
   00000001 00000001    0C    000020A4
   00000001 00000001    0C    000020B0
   00000001 00000001    0C    000020C0
   00000001 00000001    0C    000020D4
   00000001 00000001    0C    000020E8
   00000001 00000001    0C    000020EC
   00000001 00000001    0C    000020FC
   00000001 00000001    0C    00002504
   00000001 00000001    0C    0000252C
   00000001 00000001    0C    00002554
   00000001 00000001    0C    0000257C
   00000001 00000001    0C    000025A4
   00000001 00000001    0C    000025CC
   00000001 00000001    0C    000025F4
   00000001 00000001    0C    0000261C
   00000001 00000001    0C    0000298C
   00000001 00000001    0C    00002994
1COMM     (COMM4072) (12:40) (15MAR04) Relocation Dictionary                                                                Page  103
   00000001 00000001    0C    00002998
   00000001 00000001    0C    000029A4
   00000001 00000001    0C    000029A8
   00000001 00000001    0C    000029B0
   00000001 00000001    0C    000029B4
   00000001 00000001    0C    00002BE0
   00000001 00000001    0C    00002C08
   00000001 00000001    0C    00002C30
   00000001 00000001    08    00002F89
   00000001 00000001    08    0000303F
   00000001 00000001    08    000030AF
   00000001 00000001    08    000032D1
   00000001 00000001    0C    000032FC
   00000001 00000001    0C    00003328
   00000001 00000001    0C    0000332C
   00000001 00000001    0C    000035DC
   00000001 00000001    0C    00003604
   00000001 00000001    08    0000382F
   00000001 00000001    08    00003935
   00000001 00000001    08    00003995
   00000001 00000001    0C    000039D0
   00000001 00000001    0C    00003A14
   00000001 00000001    0C    00003CA0
   00000001 00000001    0C    00003CC8
   00000001 00000001    0C    00003CF0
   00000001 00000001    0C    00003D18
   00000001 00000001    0C    00003D40
   00000001 00000001    0C    00003D68
   00000001 00000001    0C    00003D90
   00000001 00000001    0C    00003DB8
   00000001 00000001    0C    00003DE0
   00000001 00000001    0C    00003E08
   00000001 00000001    0C    00003E30
   00000001 00000001    0C    00003E58
   00000001 00000001    0C    00004138
   00000001 00000001    0C    00004140
   00000001 00000001    0C    0000414C
   00000001 00000001    0C    00004154
   00000001 00000001    0C    000045CC
   00000001 00000001    0C    000045F4
   00000001 00000001    0C    0000461C
   00000001 00000001    0C    00004644
   00000001 00000001    0C    0000466C
   00000001 00000001    0C    00004694
   00000001 00000001    0C    000046BC
   00000001 00000001    0C    000046E4
   00000001 00000001    0C    0000470C
   00000001 00000001    0C    00004734
   00000001 00000001    0C    0000475C
   00000001 00000001    0C    00004784
   00000001 00000001    0C    000047AC
   00000001 00000001    0C    00004A14
   00000001 00000001    0C    00004A3C
   00000001 00000001    0C    00004A64
   00000001 00000001    0C    00004A8C
   00000001 00000001    0C    00004AB4
   00000001 00000001    0C    00004ADC
   00000001 00000001    0C    00004B04
   00000001 00000001    0C    00004B2C
1COMM     (COMM4072) (12:40) (15MAR04) Relocation Dictionary                                                                Page  104
   00000001 00000001    0C    00004B54
   00000001 00000001    0C    00004B7C
   00000001 00000001    0C    00004BA4
   00000001 00000001    0C    00004BCC
   00000001 00000001    0C    00004BF4
   00000001 00000001    0C    00004C80
   00000001 00000001    0C    00004C84
   00000001 00000001    0C    00004C90
   00000001 00000001    0C    00004C98
   00000001 00000001    0C    00004CA0
   00000001 00000001    0C    00004CA4
   00000001 00000001    0C    00005424
   00000001 00000001    0C    0000558C
   00000001 00000001    0C    000055B4
   00000001 00000001    0C    0000571C
   00000001 00000001    0C    0000585C
   00000001 00000001    0C    00005DFC
   00000001 00000001    0C    00005E24
   00000001 00000001    0C    00005E4C
   00000001 00000001    0C    0000652C
   00000001 00000001    0C    00006554
   00000001 00000001    0C    0000657C
   00000001 00000001    0C    0000661C
   00000001 00000001    0C    00006644
   00000001 00000001    0C    0000666C
   00000001 00000001    0C    00006734
   00000001 00000001    0C    0000675C
   00000001 00000001    0C    00006784
   00000001 00000001    0C    0000684C
   00000001 00000001    0C    00006B44
   00000001 00000001    0C    00006FCC
   00000001 00000002    1C    00000138
   00000001 00000002    1C    000003D0
   00000001 00000002    1C    00000FB8
   00000001 00000002    1C    000020F0
   00000001 00000002    1C    000022C0
   00000001 00000002    1C    00003314
   00000001 00000002    1C    000039F8
   00000001 00000002    1C    00004158
   00000001 00000002    1C    00004C9C
   00000001 00000003    1C    00000144
   00000001 00000004    1C    0000014C
   00000001 00000005    1C    0000015C
   00000001 00000005    1C    00003A24
   00000001 00000006    1C    000003C0
   00000001 00000006    1C    000007A8
   00000001 00000007    1C    000003C4
   00000001 00000007    1C    000007B0
   00000001 00000008    1C    000003C8
   00000001 00000009    1C    000003CC
   00000001 0000000A    1C    000003D4
   00000001 0000000A    1C    00000FCC
   00000001 0000000B    1C    000003D8
   00000001 0000000B    1C    0000078C
   00000001 0000000B    1C    00000FC4
   00000001 0000000B    1C    000022C8
   00000001 0000000C    1C    000003DC
   00000001 0000000D    1C    000003E0
   00000001 0000000E    1C    000003F0
1COMM     (COMM4072) (12:40) (15MAR04) Relocation Dictionary                                                                Page  105
   00000001 0000000F    1C    000003F8
   00000001 00000010    1C    00000758
   00000001 00000011    1C    0000075C
   00000001 00000012    1C    00000760
   00000001 00000013    1C    00000764
   00000001 00000014    1C    00000768
   00000001 00000015    1C    0000076C
   00000001 00000016    1C    00000770
   00000001 00000017    1C    00000774
   00000001 00000018    1C    00000778
   00000001 00000019    1C    0000077C
   00000001 0000001A    1C    00000780
   00000001 0000001B    1C    00000784
   00000001 0000001B    1C    00001018
   00000001 0000001C    1C    00000788
   00000001 0000001D    1C    00000790
   00000001 0000001E    1C    00000794
   00000001 0000001E    1C    0000141C
   00000001 0000001F    1C    00000798
   00000001 0000001F    1C    00001420
   00000001 00000020    1C    0000079C
   00000001 00000020    1C    00001424
   00000001 00000021    1C    000007A4
   00000001 00000022    1C    000007AC
   00000001 00000023    1C    000007B4
   00000001 00000024    1C    000007B8
   00000001 00000024    1C    00000FBC
   00000001 00000025    1C    000007C0
   00000001 00000025    1C    00001438
   00000001 00000026    1C    000007C4
   00000001 00000027    1C    000007CC
   00000001 00000028    1C    000007D0
   00000001 00000029    1C    000007D4
   00000001 0000002A    1C    000007D8
   00000001 0000002B    1C    000007DC
   00000001 0000002C    1C    00000FA4
   00000001 0000002C    1C    00002100
   00000001 0000002C    1C    00004180
   00000001 0000002D    1C    00000FA8
   00000001 0000002E    1C    00000FAC
   00000001 0000002F    1C    00000FC0
   00000001 00000030    1C    00000FD0
   00000001 00000031    1C    00000FD4
   00000001 00000031    1C    00002990
   00000001 00000032    1C    0000101C
   00000001 00000033    1C    00001024
   00000001 00000034    1C    00001434
   00000001 00000035    1C    0000143C
   00000001 00000036    1C    00001444
   00000001 00000036    1C    00004148
   00000001 00000036    1C    00004C7C
   00000001 00000037    1C    0000144C
   00000001 00000037    1C    000020B4
   00000001 00000037    1C    00002978
   00000001 00000037    1C    00003300
   00000001 00000037    1C    000039C8
   00000001 00000037    1C    00004144
   00000001 00000037    1C    00004C88
   00000001 00000038    1C    00001450
1COMM     (COMM4072) (12:40) (15MAR04) Relocation Dictionary                                                                Page  106
   00000001 00000038    1C    0000413C
   00000001 00000038    1C    00004C78
   00000001 00000039    1C    00001458
   00000001 00000039    1C    000020B8
   00000001 00000039    1C    0000297C
   00000001 00000039    1C    00003304
   00000001 00000039    1C    000039D4
   00000001 00000039    1C    00004150
   00000001 00000039    1C    00004C8C
   00000001 0000003A    1C    00001824
   00000001 0000003A    1C    0000184C
   00000001 0000003A    1C    00001874
   00000001 0000003A    1C    0000189C
   00000001 0000003A    1C    000018C4
   00000001 0000003A    1C    00002578
   00000001 0000003A    1C    000025A0
   00000001 0000003A    1C    000025C8
   00000001 0000003A    1C    000025F0
   00000001 0000003A    1C    00003600
   00000001 0000003A    1C    00003C9C
   00000001 0000003A    1C    00003CC4
   00000001 0000003A    1C    00003CEC
   00000001 0000003A    1C    00003D14
   00000001 0000003A    1C    00003D3C
   00000001 0000003A    1C    00003D64
   00000001 0000003A    1C    00003D8C
   00000001 0000003A    1C    00003DB4
   00000001 0000003A    1C    00003DDC
   00000001 0000003A    1C    00003E04
   00000001 0000003A    1C    00003E2C
   00000001 0000003A    1C    000045C8
   00000001 0000003A    1C    000045F0
   00000001 0000003A    1C    00004618
   00000001 0000003A    1C    00004640
   00000001 0000003A    1C    00004668
   00000001 0000003A    1C    00004690
   00000001 0000003A    1C    000046B8
   00000001 0000003A    1C    000046E0
   00000001 0000003A    1C    00004708
   00000001 0000003A    1C    00004730
   00000001 0000003A    1C    00004758
   00000001 0000003A    1C    00004780
   00000001 0000003A    1C    00004A10
   00000001 0000003A    1C    00004A38
   00000001 0000003A    1C    00004A60
   00000001 0000003A    1C    00004A88
   00000001 0000003A    1C    00004AB0
   00000001 0000003A    1C    00004AD8
   00000001 0000003A    1C    00004B00
   00000001 0000003A    1C    00004B28
   00000001 0000003A    1C    00004B50
   00000001 0000003A    1C    00004B78
   00000001 0000003A    1C    00004BA0
   00000001 0000003A    1C    00004BC8
   00000001 0000003A    1C    00004ED0
   00000001 0000003A    1C    00004EF8
   00000001 0000003A    1C    00004F20
   00000001 0000003A    1C    00004F48
   00000001 0000003A    1C    00004F70
1COMM     (COMM4072) (12:40) (15MAR04) Relocation Dictionary                                                                Page  107
   00000001 0000003A    1C    00004F98
   00000001 0000003A    1C    00004FC0
   00000001 0000003A    1C    00004FE8
   00000001 0000003A    1C    00005010
   00000001 0000003A    1C    00005038
   00000001 0000003A    1C    00005060
   00000001 0000003A    1C    00005088
   00000001 0000003A    1C    000050B0
   00000001 0000003A    1C    000050D8
   00000001 0000003A    1C    00005100
   00000001 0000003A    1C    00005128
   00000001 0000003A    1C    00005150
   00000001 0000003A    1C    00005178
   00000001 0000003A    1C    000051A0
   00000001 0000003A    1C    000051C8
   00000001 0000003A    1C    000051F0
   00000001 0000003A    1C    00005218
   00000001 0000003A    1C    00005240
   00000001 0000003A    1C    00005268
   00000001 0000003A    1C    00005290
   00000001 0000003A    1C    000052B8
   00000001 0000003A    1C    000052E0
   00000001 0000003A    1C    00005308
   00000001 0000003A    1C    00005330
   00000001 0000003A    1C    00005358
   00000001 0000003A    1C    00005380
   00000001 0000003A    1C    000053A8
   00000001 0000003A    1C    000053D0
   00000001 0000003A    1C    000053F8
   00000001 0000003A    1C    00005420
   00000001 0000003A    1C    00005448
   00000001 0000003A    1C    00005470
   00000001 0000003A    1C    00005498
   00000001 0000003A    1C    000054C0
   00000001 0000003A    1C    000054E8
   00000001 0000003A    1C    00005510
   00000001 0000003A    1C    00005538
   00000001 0000003A    1C    00005560
   00000001 0000003A    1C    00005588
   00000001 0000003A    1C    000055B0
   00000001 0000003A    1C    000055D8
   00000001 0000003A    1C    00005600
   00000001 0000003A    1C    00005628
   00000001 0000003A    1C    00005650
   00000001 0000003A    1C    00005678
   00000001 0000003A    1C    000056A0
   00000001 0000003A    1C    000056C8
   00000001 0000003A    1C    000056F0
   00000001 0000003A    1C    00005718
   00000001 0000003A    1C    00005740
   00000001 0000003A    1C    00005768
   00000001 0000003A    1C    00005790
   00000001 0000003A    1C    000057B8
   00000001 0000003A    1C    000057E0
   00000001 0000003A    1C    00005808
   00000001 0000003A    1C    00005830
   00000001 0000003A    1C    00005858
   00000001 0000003A    1C    00005880
   00000001 0000003A    1C    000058A8
1COMM     (COMM4072) (12:40) (15MAR04) Relocation Dictionary                                                                Page  108
   00000001 0000003A    1C    000058D0
   00000001 0000003A    1C    000058F8
   00000001 0000003A    1C    00005920
   00000001 0000003A    1C    00005948
   00000001 0000003A    1C    00005970
   00000001 0000003A    1C    00005998
   00000001 0000003A    1C    000059C0
   00000001 0000003A    1C    000059E8
   00000001 0000003A    1C    00005A10
   00000001 0000003A    1C    00005A38
   00000001 0000003A    1C    00005A60
   00000001 0000003A    1C    00005A88
   00000001 0000003A    1C    00005AB0
   00000001 0000003A    1C    00005AD8
   00000001 0000003A    1C    00005B00
   00000001 0000003A    1C    00005B28
   00000001 0000003A    1C    00005B50
   00000001 0000003A    1C    00005B78
   00000001 0000003A    1C    00005BA0
   00000001 0000003A    1C    00005BC8
   00000001 0000003A    1C    00005BF0
   00000001 0000003A    1C    00005C18
   00000001 0000003A    1C    00005C40
   00000001 0000003A    1C    00005C68
   00000001 0000003A    1C    00005C90
   00000001 0000003A    1C    00005CB8
   00000001 0000003A    1C    00005CE0
   00000001 0000003A    1C    00005D08
   00000001 0000003A    1C    00005D30
   00000001 0000003A    1C    00005D58
   00000001 0000003A    1C    00005D80
   00000001 0000003A    1C    00005DA8
   00000001 0000003A    1C    00005DD0
   00000001 0000003A    1C    00005DF8
   00000001 0000003A    1C    00005E20
   00000001 0000003A    1C    00005E48
   00000001 0000003A    1C    00005E70
   00000001 0000003A    1C    00005E98
   00000001 0000003A    1C    00005EC0
   00000001 0000003A    1C    00005EE8
   00000001 0000003A    1C    00005F10
   00000001 0000003A    1C    00005F38
   00000001 0000003A    1C    00005F60
   00000001 0000003A    1C    00005F88
   00000001 0000003A    1C    00005FB0
   00000001 0000003A    1C    00005FD8
   00000001 0000003A    1C    00006000
   00000001 0000003A    1C    00006028
   00000001 0000003A    1C    00006050
   00000001 0000003A    1C    00006078
   00000001 0000003A    1C    000060A0
   00000001 0000003A    1C    000060C8
   00000001 0000003A    1C    000060F0
   00000001 0000003A    1C    00006118
   00000001 0000003A    1C    00006140
   00000001 0000003A    1C    00006168
   00000001 0000003A    1C    00006190
   00000001 0000003A    1C    000061B8
   00000001 0000003A    1C    000061E0
1COMM     (COMM4072) (12:40) (15MAR04) Relocation Dictionary                                                                Page  109
   00000001 0000003A    1C    00006208
   00000001 0000003A    1C    00006230
   00000001 0000003A    1C    00006258
   00000001 0000003A    1C    00006280
   00000001 0000003A    1C    000062A8
   00000001 0000003A    1C    000062D0
   00000001 0000003A    1C    000062F8
   00000001 0000003A    1C    00006320
   00000001 0000003A    1C    00006348
   00000001 0000003A    1C    00006370
   00000001 0000003A    1C    00006398
   00000001 0000003A    1C    000063C0
   00000001 0000003A    1C    000063E8
   00000001 0000003A    1C    00006410
   00000001 0000003A    1C    00006438
   00000001 0000003A    1C    00006460
   00000001 0000003A    1C    00006488
   00000001 0000003A    1C    000064B0
   00000001 0000003A    1C    000064D8
   00000001 0000003A    1C    00006500
   00000001 0000003A    1C    00006528
   00000001 0000003A    1C    00006550
   00000001 0000003A    1C    00006578
   00000001 0000003A    1C    000065A0
   00000001 0000003A    1C    000065C8
   00000001 0000003A    1C    000065F0
   00000001 0000003A    1C    00006618
   00000001 0000003A    1C    00006640
   00000001 0000003A    1C    00006668
   00000001 0000003A    1C    00006690
   00000001 0000003A    1C    000066B8
   00000001 0000003A    1C    000066E0
   00000001 0000003A    1C    00006708
   00000001 0000003A    1C    00006730
   00000001 0000003A    1C    00006758
   00000001 0000003A    1C    00006780
   00000001 0000003A    1C    000067A8
   00000001 0000003A    1C    000067D0
   00000001 0000003A    1C    000067F8
   00000001 0000003A    1C    00006820
   00000001 0000003A    1C    00006848
   00000001 0000003A    1C    00006870
   00000001 0000003A    1C    00006898
   00000001 0000003A    1C    000068C0
   00000001 0000003A    1C    000068E8
   00000001 0000003A    1C    00006910
   00000001 0000003A    1C    00006938
   00000001 0000003A    1C    00006960
   00000001 0000003A    1C    00006988
   00000001 0000003A    1C    000069B0
   00000001 0000003A    1C    000069D8
   00000001 0000003A    1C    00006A00
   00000001 0000003A    1C    00006A28
   00000001 0000003A    1C    00006A50
   00000001 0000003A    1C    00006A78
   00000001 0000003A    1C    00006AA0
   00000001 0000003A    1C    00006AC8
   00000001 0000003A    1C    00006AF0
   00000001 0000003A    1C    00006B18
1COMM     (COMM4072) (12:40) (15MAR04) Relocation Dictionary                                                                Page  110
   00000001 0000003A    1C    00006B40
   00000001 0000003A    1C    00006B68
   00000001 0000003A    1C    00006B90
   00000001 0000003A    1C    00006BB8
   00000001 0000003A    1C    00006BE0
   00000001 0000003A    1C    00006C08
   00000001 0000003A    1C    00006C30
   00000001 0000003A    1C    00006C58
   00000001 0000003A    1C    00006C80
   00000001 0000003A    1C    00006CA8
   00000001 0000003A    1C    00006CD0
   00000001 0000003A    1C    00006CF8
   00000001 0000003A    1C    00006D20
   00000001 0000003A    1C    00006D48
   00000001 0000003A    1C    00006D70
   00000001 0000003A    1C    00006D98
   00000001 0000003A    1C    00006DC0
   00000001 0000003A    1C    00006DE8
   00000001 0000003A    1C    00006E10
   00000001 0000003A    1C    00006E38
   00000001 0000003A    1C    00006E60
   00000001 0000003A    1C    00006E88
   00000001 0000003A    1C    00006EB0
   00000001 0000003A    1C    00006ED8
   00000001 0000003A    1C    00006F00
   00000001 0000003A    1C    00006F28
   00000001 0000003A    1C    00006F50
   00000001 0000003A    1C    00006F78
   00000001 0000003B    1C    000018EC
   00000001 0000003B    1C    00001C24
   00000001 0000003B    1C    00002618
   00000001 0000003B    1C    00002C7C
   00000001 0000003B    1C    00003650
   00000001 0000003B    1C    00003E54
   00000001 0000003B    1C    000047A8
   00000001 0000003B    1C    00004BF0
   00000001 0000003B    1C    00006FC8
   00000001 0000003C    1C    00001B84
   00000001 0000003C    1C    00001BAC
   00000001 0000003C    1C    00001BD4
   00000001 0000003C    1C    00001BFC
   00000001 0000003C    1C    00002528
   00000001 0000003C    1C    00002550
   00000001 0000003C    1C    00002BDC
   00000001 0000003C    1C    00002C04
   00000001 0000003C    1C    00002C2C
   00000001 0000003D    1C    000020A8
   00000001 0000003D    1C    000022B0
   00000001 0000003D    1C    00002980
   00000001 0000003D    1C    00002C80
   00000001 0000003D    1C    00003654
   00000001 0000003D    1C    000039CC
   00000001 0000003E    1C    000020AC
   00000001 0000003F    1C    000020E0
   00000001 0000003F    1C    00002988
   00000001 0000003F    1C    00003320
   00000001 00000040    1C    000020E4
   00000001 00000041    1C    000020F4
   00000001 00000041    1C    000029AC
1COMM     (COMM4072) (12:40) (15MAR04) Relocation Dictionary                                                                Page  111
   00000001 00000041    1C    00003310
   00000001 00000042    1C    000020F8
   00000001 00000043    1C    000022B4
   00000001 00000043    1C    00003330
   00000001 00000043    1C    00003A04
   00000001 00000044    1C    000022C4
   00000001 00000044    1C    000039F4
   00000001 00000045    1C    00002500
   00000001 00000046    1C    0000299C
   00000001 00000047    1C    000029B8
   00000001 00000048    1C    00002C58
   00000001 00000048    1C    0000362C
   00000001 00000049    1C    00003308
   00000001 0000004A    1C    0000330C
   00000001 0000004B    1C    00003318
   00000001 0000004B    1C    00003A00
   00000001 0000004C    1C    0000331C
   00000001 0000004D    1C    0000336C
   00000001 0000004E    1C    00003370
   00000001 0000004F    1C    00003374
   00000001 00000050    1C    000035D8
   00000001 00000051    1C    000039FC
   00000001 00000052    1C    00003A0C
   00000001 00000053    1C    00003A10
   00000001 00000053    1C    00004E80
   00000001 00000054    1C    00003A18
   00000001 00000055    1C    00004184
   00000001 00000056    1C    00004188
   00000001 00000057    1C    0000418C
   00000001 00000058    1C    00004E88
   00000001 00000059    1C    00004ED4
   00000001 0000005A    1C    00004EFC
   00000001 0000005B    1C    00004F24
   00000001 0000005C    1C    00004F4C
   00000001 0000005D    1C    00004F74
   00000001 0000005D    1C    00004F9C
   00000001 0000005E    1C    00004FC4
   00000001 0000005F    1C    00004FEC
   00000001 00000060    1C    00005014
   00000001 00000060    1C    0000503C
   00000001 00000061    1C    00005064
   00000001 00000062    1C    0000508C
   00000001 00000063    1C    000050B4
   00000001 00000063    1C    00005104
   00000001 00000064    1C    000050DC
   00000001 00000065    1C    0000512C
   00000001 00000066    1C    00005154
   00000001 00000067    1C    0000517C
   00000001 00000068    1C    000051A4
   00000001 00000069    1C    000051CC
   00000001 0000006A    1C    000051F4
   00000001 0000006B    1C    0000521C
   00000001 0000006C    1C    00005244
   00000001 0000006D    1C    0000526C
   00000001 0000006E    1C    00005294
   00000001 0000006F    1C    000052BC
   00000001 00000070    1C    000052E4
   00000001 00000071    1C    0000530C
   00000001 00000072    1C    00005334
1COMM     (COMM4072) (12:40) (15MAR04) Relocation Dictionary                                                                Page  112
   00000001 00000073    1C    0000535C
   00000001 00000074    1C    00005384
   00000001 00000075    1C    000053AC
   00000001 00000076    1C    000053D4
   00000001 00000077    1C    000053FC
   00000001 00000078    1C    0000544C
   00000001 00000079    1C    00005474
   00000001 0000007A    1C    0000549C
   00000001 0000007B    1C    000054C4
   00000001 0000007C    1C    000054EC
   00000001 0000007D    1C    00005514
   00000001 0000007E    1C    0000553C
   00000001 0000007F    1C    00005564
   00000001 00000080    1C    000055DC
   00000001 00000081    1C    00005604
   00000001 00000082    1C    0000562C
   00000001 00000082    1C    00005654
   00000001 00000082    1C    0000567C
   00000001 00000082    1C    00005F64
   00000001 00000083    1C    000056A4
   00000001 00000084    1C    000056CC
   00000001 00000085    1C    000056F4
   00000001 00000086    1C    00005744
   00000001 00000087    1C    0000576C
   00000001 00000088    1C    00005794
   00000001 00000089    1C    000057BC
   00000001 0000008A    1C    000057E4
   00000001 0000008B    1C    0000580C
   00000001 0000008C    1C    00005834
   00000001 0000008D    1C    00005884
   00000001 0000008E    1C    000058AC
   00000001 0000008F    1C    000058D4
   00000001 00000090    1C    000058FC
   00000001 00000091    1C    00005924
   00000001 00000091    1C    00005B7C
   00000001 00000091    1C    00005BA4
   00000001 00000091    1C    00005F8C
   00000001 00000091    1C    00005FDC
   00000001 00000091    1C    00006004
   00000001 00000091    1C    0000602C
   00000001 00000091    1C    00006054
   00000001 00000091    1C    0000607C
   00000001 00000091    1C    000060A4
   00000001 00000092    1C    0000594C
   00000001 00000093    1C    00005974
   00000001 00000094    1C    0000599C
   00000001 00000095    1C    000059C4
   00000001 00000096    1C    000059EC
   00000001 00000097    1C    00005A14
   00000001 00000098    1C    00005A3C
   00000001 00000099    1C    00005A64
   00000001 00000099    1C    00005A8C
   00000001 0000009A    1C    00005AB4
   00000001 0000009B    1C    00005ADC
   00000001 0000009C    1C    00005B04
   00000001 0000009D    1C    00005B2C
   00000001 0000009E    1C    00005B54
   00000001 0000009F    1C    00005BCC
   00000001 0000009F    1C    00005BF4
1COMM     (COMM4072) (12:40) (15MAR04) Relocation Dictionary                                                                Page  113
   00000001 000000A0    1C    00005C1C
   00000001 000000A1    1C    00005C44
   00000001 000000A2    1C    00005C6C
   00000001 000000A3    1C    00005C94
   00000001 000000A3    1C    00005CBC
   00000001 000000A4    1C    00005CE4
   00000001 000000A4    1C    00005D0C
   00000001 000000A5    1C    00005D34
   00000001 000000A5    1C    00005D5C
   00000001 000000A6    1C    00005D84
   00000001 000000A6    1C    00005DAC
   00000001 000000A7    1C    00005DD4
   00000001 000000A8    1C    00005E74
   00000001 000000A8    1C    00005E9C
   00000001 000000A8    1C    00005EC4
   00000001 000000A9    1C    00005EEC
   00000001 000000A9    1C    00005F14
   00000001 000000A9    1C    00005F3C
   00000001 000000AA    1C    00005FB4
   00000001 000000AB    1C    000060CC
   00000001 000000AC    1C    000060F4
   00000001 000000AC    1C    0000611C
   00000001 000000AD    1C    00006144
   00000001 000000AE    1C    0000616C
   00000001 000000AF    1C    00006194
   00000001 000000B0    1C    000061BC
   00000001 000000B0    1C    0000620C
   00000001 000000B1    1C    000061E4
   00000001 000000B2    1C    00006234
   00000001 000000B3    1C    0000625C
   00000001 000000B4    1C    00006284
   00000001 000000B5    1C    000062AC
   00000001 000000B5    1C    000062D4
   00000001 000000B5    1C    000062FC
   00000001 000000B5    1C    00006324
   00000001 000000B5    1C    0000634C
   00000001 000000B5    1C    00006374
   00000001 000000B6    1C    0000639C
   00000001 000000B6    1C    000063C4
   00000001 000000B7    1C    000063EC
   00000001 000000B8    1C    00006414
   00000001 000000B9    1C    0000643C
   00000001 000000BA    1C    00006464
   00000001 000000BA    1C    00006A04
   00000001 000000BB    1C    0000648C
   00000001 000000BB    1C    00006A2C
   00000001 000000BC    1C    000064B4
   00000001 000000BD    1C    000064DC
   00000001 000000BD    1C    00006504
   00000001 000000BE    1C    000065A4
   00000001 000000BE    1C    000065CC
   00000001 000000BE    1C    000065F4
   00000001 000000BF    1C    00006694
   00000001 000000BF    1C    000066BC
   00000001 000000C0    1C    000066E4
   00000001 000000C1    1C    0000670C
   00000001 000000C2    1C    000067AC
   00000001 000000C3    1C    000067D4
   00000001 000000C4    1C    000067FC
1COMM     (COMM4072) (12:40) (15MAR04) Relocation Dictionary                                                                Page  114
   00000001 000000C5    1C    00006824
   00000001 000000C6    1C    00006874
   00000001 000000C7    1C    0000689C
   00000001 000000C8    1C    000068C4
   00000001 000000C9    1C    000068EC
   00000001 000000CA    1C    00006914
   00000001 000000CB    1C    0000693C
   00000001 000000CC    1C    00006964
   00000001 000000CD    1C    0000698C
   00000001 000000CE    1C    000069B4
   00000001 000000CF    1C    000069DC
   00000001 000000D0    1C    00006A54
   00000001 000000D1    1C    00006A7C
   00000001 000000D2    1C    00006AA4
   00000001 000000D3    1C    00006ACC
   00000001 000000D4    1C    00006AF4
   00000001 000000D5    1C    00006B1C
   00000001 000000D6    1C    00006B6C
   00000001 000000D6    1C    00006B94
   00000001 000000D7    1C    00006BBC
   00000001 000000D7    1C    00006BE4
   00000001 000000D8    1C    00006C0C
   00000001 000000D9    1C    00006C34
   00000001 000000DA    1C    00006C5C
   00000001 000000DB    1C    00006C84
   00000001 000000DC    1C    00006CAC
   00000001 000000DD    1C    00006CD4
   00000001 000000DE    1C    00006CFC
   00000001 000000DF    1C    00006D24
   00000001 000000DF    1C    00006D4C
   00000001 000000E0    1C    00006D74
   00000001 000000E1    1C    00006D9C
   00000001 000000E2    1C    00006DC4
   00000001 000000E3    1C    00006DEC
   00000001 000000E4    1C    00006E14
   00000001 000000E5    1C    00006E3C
   00000001 000000E6    1C    00006E64
   00000001 000000E7    1C    00006E8C
   00000001 000000E8    1C    00006EB4
   00000001 000000E9    1C    00006EDC
   00000001 000000E9    1C    00006F04
   00000001 000000E9    1C    00006F2C
   00000001 000000E9    1C    00006F54
   00000001 000000E9    1C    00006F7C
   00000001 000000EA    1C    00006FA0
   00000001 000000EB    1C    00006FA4

1COMM     (COMM4072) (12:40) (15MAR04) Ordinary Symbol and Literal Cross Reference                                          Page  115
-Symbol   Length   Value     Id    R Type   Defn References                                  HLASM R4.0  2004/03/15 12.40
0$$$@R0        1 00000000 FFFFFFFE     J     705  1019
 $$$@R10       1 00000000 FFFFFFF4     J     835  1083
 $$$@R11       1 00000000 FFFFFFF3     J     848  1096
 $$$@R12       1 00000000 FFFFFFF2     J     861  1109
 $$$@R13       1 00000000 FFFFFFF1     J     874  1122
 $$$@R14       1 00000000 FFFFFFF0     J     887  1135
 $$$@R7        1 00000000 FFFFFFF7     J     796  1032
 $$$@R8        1 00000000 FFFFFFF6     J     809  1045   1057
 $$$@R9        1 00000000 FFFFFFF5     J     822  1070
 $$$C1WYLCOMM
               1 0000016A 00000001     J    7260  7262   8121
 $$$C10WYLCOMM
               1 00003A5A 00000001     J   24061 24063  24183
 $$$C11WYLCOMM
               1 000041C6 00000001     J   25585 25587  26212  26945
 $$$C12WYLCOMM
               1 00004D28 00000001     J   27630 27632
 $$$C13WYLCOMM
               1 00004EAD 00000001     J   27843 27845
 $$$C14WYLCOMM
               1 00007048 00000001     J   31053 31055
 $$$C2WYLCOMM
               1 00000442 00000001     J    8279  8281   9156
 $$$C3WYLCOMM
               1 000007EA 00000001     J    9726  9728  11618  11982  12311
 $$$C4WYLCOMM
               1 0000107E 00000001     J   12428 12430  12586
 $$$C5WYLCOMM
               1 00001466 00000001     J   13655 13657  13683  14215  15858  16132  16425  16746
 $$$C6WYLCOMM
               1 00002196 00000001     J   17019 17021  17343
 $$$C7WYLCOMM
               1 000022FA 00000001     J   17410 17412  17460  17491  17538  17989  18031  18890
 $$$C8WYLCOMM
               1 00002A56 00000001     J   19421 19423  19453  20232  20875  21368  21515  21695
 $$$C9WYLCOMM
               1 000033E8 00000001     J   22008 22010  22041  22940  23096  23309  23329  23544  23564  23604
 $$$D0WYLCOMM
               1 00000164 00000001     J     994  7159
 $$$D1WYLCOMM
               1 0000043C 00000001     J    7261  8110
 $$$D10WYLCOMM
               1 000041C0 00000001     J   24062 24172
 $$$D11WYLCOMM
               1 00004D1C 00000001     J   25586 26201  26934
 $$$D2WYLCOMM
               1 000007E4 00000001     J    8280  9145
 $$$D3WYLCOMM
               1 00001072 00000001     J    9727 11607  12300
 $$$D4WYLCOMM
               1 00001460 00000001     J   12429 12575
 $$$D5WYLCOMM
               1 0000218A 00000001     J   13656 14204  16735
 $$$D6WYLCOMM
               1 000022F3 00000001     J   17020 17332
1COMM     (COMM4072) (12:40) (15MAR04) Ordinary Symbol and Literal Cross Reference                                          Page  116
 $$$D7WYLCOMM
               1 00002A4A 00000001     J   17411 17978  18020
 $$$D8WYLCOMM
               1 000033E2 00000001     J   19422 21504
 $$$D9WYLCOMM
               1 00003A35 00000001     J   22009 22929  23298  23318  23533  23553  23593
 $$$RAABBRWA
               1 00000000 FFFFFFDC     J   20861 20874  20874
 $$$RABBRRECD
               1 00000000 FFFFFFE1     J   17474 17490  17490
 $$$RCABBRWA
               1 00000000 FFFFFFDB     J   21354 21367  21367
 $$$RCFINWA
               1 00000000 FFFFFFE6     J   13668 13682  13682
 $$$RCP        1 00000000 FFFFFFEC     J    2454  4714   6188   6188
 $$$RCV        1 00000000 FFFFFFEE     J    1179  2364   2364
 $$$RDABBRWA
               1 00000000 FFFFFFDA     J   21681 21694  21694
 $$$RDCMDWA
               1 00000000 FFFFFFDD     J   20217 20231  20231
 $$$RDEFRECD
               1 00000000 FFFFFFE2     J   17430 17459  17459
 $$$RDEFWA
               1 00000000 FFFFFFE0     J   17507 17537  17537
 $$$RDEV       1 00000000 FFFFFFEB     J    4668  4713   4713
 $$$RGBLWA
               1 00000000 FFFFFFE7     J   11878 11981  11981
 $$$RGETHWA
               1 00000000 FFFFFFD8     J   23080 23095  23095
 $$$RHCMD      1 00000000 FFFFFFD9     J   22016 22040  22040
 $$$RJCB       1 00000000 FFFFFFE8     J    6503  6777   6777
 $$$RMACOWA
               1 00000000 FFFFFFE4     J   16118 16131  16131
 $$$RMACWA
               1 00000000 FFFFFFE3     J   16321 16424  16424
 $$$RNSCNCB
               1 00000000 FFFFFFED     J    2375  2448   2448
 $$$RSDFWA
               1 00000000 FFFFFFDE     J   19437 19452  19452
 $$$RTTYPE
               1 00000000 FFFFFFEA     J    6199  6300   6300
 $$$RUDEFWA
               1 00000000 FFFFFFDF     J   18876 18889  18889
 $$$RUTILWA
               1 00000000 FFFFFFE5     J   15844 15857  15857
 $$$SEGCB0
               4 00000050 FFFFFFEC     F    2485  2571   2571
 $$$SEGCB216
               4 00000008 FFFFFFE7     F   11886 11972  11972
 $$$SEGCB351
               4 00000008 FFFFFFE3     F   16329 16415  16415
 $$$V01       24 00006FD0 00000001     C   31044 10111
 $$$V02       35 00006FE8 00000001     C   31045 20810  21028  21154
 $$$V03       36 0000700B 00000001     C   31046 21895
 $$$V04       22 0000702F 00000001     C   31047 23420  23873  23981
 $$$Z10        4 000040C8 00000001     F   25555 25335
 $$$100F       2 000004AE 00000001     H    8486  8473B
 $$$101F       2 000004BC 00000001     H    8510  8497B
 $$$102F       2 000004D6 00000001     H    8546  8533B
1COMM     (COMM4072) (12:40) (15MAR04) Ordinary Symbol and Literal Cross Reference                                          Page  117
 $$$103F       2 000004EC 00000001     H    8590  8578B
 $$$103T       2 000004E6 00000001     H    8581  8568B
 $$$105F       2 00000510 00000001     H    8670  8621B
 $$$105T       2 000004FC 00000001     H    8624  8611B
 $$$107F       2 00000510 00000001     H    8666  8636B
 $$$108F       2 00000520 00000001     H    8696  8683B
 $$$109F       2 00000550 00000001     H    8767  8710B
 $$$110F       2 00000550 00000001     H    8763  8730B
 $$$111F       2 0000054C 00000001     H    8758  8745B
 $$$112F       2 0000059A 00000001     H    8905  8816B
 $$$115F       2 0000057C 00000001     H    8863  8847B
 $$$117F       2 000005D4 00000001     H    8975  8962B
 $$$118F       2 000005E8 00000001     H    9013  8997B
 $$$119F       2 00000600 00000001     H    9053  9028B  9040B
 $$$121F       2 0000064E 00000001     H    9173  9065B
 $$$122F       2 0000062A 00000001     H    9103  9089B
 $$$123F       2 00000636 00000001     H    9122  9113B
 $$$124F       2 00000644 00000001     H    9161  9137B
 $$$125        6 000007E4 00000001     I    9151  9143X
 $$$126        6 000007E4 00000001     I    9150  9151   9151
 $$$127F       2 0000066A 00000001     H    9229  9205B  9217B
 $$$129F       2 00000694 00000001     H    9306  9259B
 $$$129T       2 0000067A 00000001     H    9262  9249B
 $$$131F       2 000006AA 00000001     H    9348  9321B
 $$$132F       2 000006C0 00000001     H    9387  9375B
 $$$132T       2 000006BA 00000001     H    9378  9365B
 $$$134F       2 000006CE 00000001     H    9417  9404B
 $$$135F       2 000006F4 00000001     H    9489  9432B
 $$$136F       2 000006F4 00000001     H    9485  9473B
 $$$136T       2 000006EE 00000001     H    9476  9451B  9463B
 $$$139F       2 00000716 00000001     H    9560  9513B  9526B
 $$$142F       2 00000716 00000001     H    9556  9541B
 $$$143F       2 00000734 00000001     H    9615  9572B
 $$$144F       2 0000074A 00000001     H    9653  9636B
 $$$145        1 00000050 00000001 A   U    9673  9670   9672
 $$$146B       1 00000802 00000001     X    9754  9761U
 $$$147F       2 0000082C 00000001     H    9801  9786B
 $$$148F       2 00000840 00000001     H    9824  9814B
 $$$149F       2 0000084C 00000001     H    9843  9834B
 $$$150F       2 00000862 00000001     H    9883  9855B
 $$$151F       2 00000862 00000001     H    9879  9870B
 $$$152B       1 000008D0 00000001     X   10007 10014U
 $$$154B       1 00000902 00000001     X   10074 10081U
 $$$155F       2 00000920 00000001     H   10115 10100B
 $$$156F       2 00000936 00000001     H   10140 10130B
 $$$157F       2 00000948 00000001     H   10168 10155B
 $$$158        1 00000050 00000001 A   U   10189 10186  10188
 $$$160B       1 00000978 00000001     X   10224 10231U
 $$$161        1 00000050 00000001 A   U   10258 10255  10257
 $$$163B       1 000009A4 00000001     X   10293 10300U
 $$$164        1 00000050 00000001 A   U   10327 10324  10326
 $$$166B       1 000009D0 00000001     X   10358 10365U
 $$$167        1 00000050 00000001 A   U   10398 10395  10397
 $$$169B       1 000009FE 00000001     X   10434 10441U
 $$$170F       2 00000A36 00000001     H   10517 10507B
 $$$171        1 00000050 00000001 A   U   10535 10532  10534
 $$$173B       1 00000A5E 00000001     X   10576 10583U
 $$$174F       2 00000AB4 00000001     H   10708 10620B
 $$$175        1 00000050 00000001 A   U   10753 10750  10752
1COMM     (COMM4072) (12:40) (15MAR04) Ordinary Symbol and Literal Cross Reference                                          Page  118
 $$$177B       1 00000AEE 00000001     X   10789 10796U
 $$$178F       2 00000B1C 00000001     H   10852 10818B
 $$$179        1 00000050 00000001 A   U   10870 10867  10869
 $$$180B       1 00000B2E 00000001     X   10886 10893U
 $$$182B       1 00000B86 00000001     X   10970 10977U
 $$$183        1 00000050 00000001 A   U   11039 11036  11038
 $$$185B       1 00000BD2 00000001     X   11069 11076U
 $$$187F       2 00000BEA 00000001     H   11124 11114B
 $$$188        1 00000050 00000001 A   U   11149 11146  11148
 $$$190B       1 00000C1E 00000001     X   11179 11186U
 $$$191F       2 00000C40 00000001     H   11222 11213B
 $$$192F       2 00000C5A 00000001     H   11268 11258B
 $$$193        1 00000050 00000001 A   U   11293 11290  11292
 $$$195B       1 00000C8E 00000001     X   11323 11330U
 $$$196F       2 00000CA4 00000001     H   11364 11354B
 $$$197        1 00000050 00000001 A   U   11389 11386  11388
 $$$199B       1 00000CD8 00000001     X   11417 11424U
 $$$200        1 00000050 00000001 A   U   11457 11454  11456
 $$$202B       1 00000D0C 00000001     X   11489 11496U
 $$$203F       2 00000D3C 00000001     H   11582 11522B
 $$$204F       2 00000D38 00000001     H   11565 11552B
 $$$205F       2 00000D4E 00000001     H   11623 11599B
 $$$206        6 00001072 00000001     I   11613 11605X
 $$$207        6 00001072 00000001     I   11612 11613  11613
 $$$208        1 00000050 00000001 A   U   11645 11642  11644
 $$$210B       1 00000D7C 00000001     X   11682 11689U
 $$$211F       2 00000DB0 00000001     H   11790 11770B
 $$$215        1 00000050 00000001 A   U   11872 11869  11871
 $$$225B       1 00000E00 00000001     X   12026 12033U
 $$$226F       2 00000EDA 00000001     H   12339 12132B 12148B
 $$$228F       2 00000E80 00000001     H   12193 12167B
 $$$229F       2 00000EAC 00000001     H   12269 12238B
 $$$230F       2 00000ECA 00000001     H   12316 12292B
 $$$231        6 00001078 00000001     I   12306 12298X
 $$$232        6 00001078 00000001     I   12305 12306  12306
 $$$233        1 0000026C 00000001 A   U   12369 12366  12368
 $$$235B       1 00001098 00000001     X   12469 12476U
 $$$236        1 00000050 00000001 A   U   12509 12506  12508
 $$$238B       1 000010CE 00000001     X   12537 12544U
 $$$239F       2 000010DC 00000001     H   12591 12564B
 $$$240        6 00001460 00000001     I   12581 12573X
 $$$241        6 00001460 00000001     I   12580 12581  12581
 $$$242        1 00000050 00000001 A   U   12620 12617  12619
 $$$244B       1 00001114 00000001     X   12648 12655U
 $$$245        1 00000050 00000001 A   U   12691 12688  12690
 $$$247B       1 00001148 00000001     X   12718 12725U
 $$$248F       2 00001192 00000001     H   12795 12775B
 $$$249F       2 000011B4 00000001     H   12855 12814B 12830B
 $$$251F       2 000011DA 00000001     H   12938 12882B
 $$$252B       4 000011CA 00000001     I   12899 12916
 $$$252F       2 000011D2 00000001     H   12913 12899B 12915
 $$$253E       2 000011D6 00000001     H   12923 12917
 $$$253F       2 000011DA 00000001     H   12934 12919B
 $$$254B       4 00001206 00000001     I   13020 13039
 $$$254F       2 00001210 00000001     H   13032 12996B 13008B 13020B 13034
 $$$255B       4 000011FE 00000001     I   13008 13037
 $$$255T       2 00001202 00000001     H   13013 12984B
 $$$257B       4 000011F6 00000001     I   12996 13035
 $$$258E       2 00001214 00000001     H   13046 13036  13038  13040
1COMM     (COMM4072) (12:40) (15MAR04) Ordinary Symbol and Literal Cross Reference                                          Page  119
 $$$258F       2 0000121A 00000001     H   13055 13042B
 $$$259F       2 00001238 00000001     H   13123 13090B
 $$$260F       2 00001238 00000001     H   13119 13106B
 $$$263F       2 00001280 00000001     H   13269 13166B 13235B
 $$$263T       2 0000124C 00000001     H   13169 13154B
 $$$265F       2 0000126C 00000001     H   13223 13197B 13210B
 $$$265S       2 00001254 00000001     H   13189 13222B
 $$$269F       2 00001280 00000001     H   13265 13252B
 $$$270B       4 000012BC 00000001     I   13343 13354
 $$$270F       2 000012C0 00000001     H   13351 13343B 13353
 $$$270T       2 000012C0 00000001     H   13346 13333B
 $$$272E       2 000012C4 00000001     H   13361 13355
 $$$272F       2 00001304 00000001     H   13452 13357B
 $$$273B       4 000012CA 00000001     I   13373 13412
 $$$273F       2 000012EA 00000001     H   13409 13373B 13411
 $$$274E       2 000012EE 00000001     H   13419 13413
 $$$274F       2 00001304 00000001     H   13448 13415B
 $$$275        1 00000050 00000001 A   U   13625 13622  13624
 $$$277B       1 00001480 00000001     X   13712 13719U
 $$$278F       2 0000150A 00000001     H   13878 13761B
 $$$279F       2 000014BE 00000001     H   13813 13781B
 $$$280F       2 000014BE 00000001     H   13809 13796B
 $$$281F       2 000014FC 00000001     H   13866 13849B
 $$$282F       2 0000151A 00000001     H   13905 13892B
 $$$283F       2 00001576 00000001     H   14006 13920B
 $$$284F       2 00001552 00000001     H   13972 13940B
 $$$285F       2 00001552 00000001     H   13968 13955B
 $$$286F       2 000016C0 00000001     H   14322 14137B 14156B
 $$$288F       2 0000166A 00000001     H   14182 14173B
 $$$289F       2 00001676 00000001     H   14220 14196B
 $$$290        6 0000218A 00000001     I   14210 14202X
 $$$291        6 0000218A 00000001     I   14209 14210  14210
 $$$292F       2 0000177C 00000001     H   14524 14389B
 $$$293F       2 0000174A 00000001     H   14438 14412B 14425B
 $$$295F       2 00001764 00000001     H   14479 14453B 14466B
 $$$297F       2 0000177C 00000001     H   14520 14494B 14507B
 $$$299        1 00000064 00000001 A   U   14632 14629  14631
 $$$301B       1 0000190E 00000001     X   14751 14758U
 $$$302        1 00000050 00000001 A   U   14786 14783  14785
 $$$304B       1 00001940 00000001     X   14813 14820U
 $$$305        1 00000050 00000001 A   U   14848 14845  14847
 $$$307B       1 00001972 00000001     X   14875 14882U
 $$$308        1 00000050 00000001 A   U   14910 14907  14909
 $$$310B       1 000019A4 00000001     X   14937 14944U
 $$$311        1 00000050 00000001 A   U   14972 14969  14971
 $$$313B       1 000019D6 00000001     X   14998 15005U
 $$$314F       2 00001A04 00000001     H   15060 15028B
 $$$315F       2 00001A04 00000001     H   15056 15043B
 $$$316        1 00000050 00000001 A   U   15088 15085  15087
 $$$318B       1 00001A38 00000001     X   15130 15137U
 $$$319F       2 00001A62 00000001     H   15202 15160B
 $$$320        1 00000050 00000001 A   U   15221 15218  15220
 $$$322B       1 00001A8A 00000001     X   15253 15260U
 $$$323F       2 00001B1A 00000001     H   15390 15339B
 $$$324F       2 00001B52 00000001     H   15463 15422B
 $$$325        1 00000050 00000001 A   U   15494 15491  15493
 $$$327B       1 00001C46 00000001     X   15598 15605U
 $$$328        1 00000050 00000001 A   U   15638 15635  15637
 $$$330B       1 00001C78 00000001     X   15665 15672U
1COMM     (COMM4072) (12:40) (15MAR04) Ordinary Symbol and Literal Cross Reference                                          Page  120
 $$$331        1 00000050 00000001 A   U   15702 15699  15701
 $$$333B       1 00001CAC 00000001     X   15729 15736U
 $$$334        1 00000050 00000001 A   U   15766 15763  15765
 $$$336B       1 00001CE0 00000001     X   15793 15800U
 $$$337        1 00000050 00000001 A   U   15830 15827  15829
 $$$339B       1 00001D14 00000001     X   15887 15894U
 $$$340F       2 00001D80 00000001     H   15973 15957B
 $$$341F       2 00001DB8 00000001     H   16046 16020B 16033B
 $$$341S       2 00001DA0 00000001     H   16012 16045B
 $$$344        1 00000058 00000001 A   U   16101 16098  16100
 $$$346B       1 00001E34 00000001     X   16160 16167U
 $$$347F       2 00001E6C 00000001     H   16256 16230B 16243B
 $$$347S       2 00001E54 00000001     H   16222 16255B
 $$$350        1 00000058 00000001 A   U   16312 16309  16311
 $$$360B       1 00001EF0 00000001     X   16462 16469U
 $$$361F       2 00001F70 00000001     H   16649 16623B 16636B
 $$$361S       2 00001F58 00000001     H   16615 16648B
 $$$364F       2 00001FA0 00000001     H   16710 16656B
 $$$365F       2 00001FB4 00000001     H   16751 16727B
 $$$366        6 00002190 00000001     I   16741 16733X
 $$$367        6 00002190 00000001     I   16740 16741  16741
 $$$368        1 00000180 00000001 A   U   16801 16798  16800
 $$$370B       1 00001FF0 00000001     X   16834 16841U
 $$$371        1 00000050 00000001 A   U   16868 16865  16867
 $$$373B       1 0000201C 00000001     X   16900 16907U
 $$$374        1 00000050 00000001 A   U   16955 16952  16954
 $$$376B       1 000021B0 00000001     X   17054 17061U
 $$$377F       2 000021C6 00000001     H   17117 17080B
 $$$378F       2 000021C6 00000001     H   17113 17100B
 $$$380F       2 0000221A 00000001     H   17218 17161B
 $$$382F       2 0000227A 00000001     H   17348 17324B
 $$$383        6 000022F4 00000001     I   17338 17330X
 $$$384        6 000022F4 00000001     I   17337 17338  17338
 $$$385        1 00000050 00000001 A   U   17388 17385  17387
 $$$387B       1 00002314 00000001     X   17568 17575U
 $$$388F       2 000023A6 00000001     H   17708 17695B
 $$$389F       2 000023B4 00000001     H   17733 17720B
 $$$390F       2 000023C2 00000001     H   17758 17745B
 $$$391F       2 000023D0 00000001     H   17784 17771B
 $$$392F       2 000023F8 00000001     H   17836 17821B
 $$$393F       2 0000246A 00000001     H   17910 17891B
 $$$394F       2 0000247E 00000001     H   17952 17923B 17937B
 $$$396F       2 00002492 00000001     H   17994 17970B
 $$$397        6 00002A4A 00000001     I   17984 17976X
 $$$398        6 00002A4A 00000001     I   17983 17984  17984
 $$$399F       2 000024AE 00000001     H   18036 18012B
 $$$400        6 00002A50 00000001     I   18026 18018X
 $$$401        6 00002A50 00000001     I   18025 18026  18026
 $$$402F       2 000024CA 00000001     H   18069 18056B
 $$$403        1 0000027C 00000001 A   U   18099 18096  18098
 $$$405B       1 0000263A 00000001     X   18250 18257U
 $$$406        1 00000050 00000001 A   U   18294 18291  18293
 $$$408B       1 00002674 00000001     X   18321 18328U
 $$$409        1 00000050 00000001 A   U   18362 18359  18361
 $$$411B       1 000026A8 00000001     X   18389 18396U
 $$$412F       2 000026B6 00000001     H   18429 18416B
 $$$413F       2 000026CC 00000001     H   18452 18440B
 $$$414        1 00000050 00000001 A   U   18482 18479  18481
 $$$416B       1 00002702 00000001     X   18509 18516U
1COMM     (COMM4072) (12:40) (15MAR04) Ordinary Symbol and Literal Cross Reference                                          Page  121
 $$$417F       2 00002710 00000001     H   18549 18536B
 $$$418F       2 00002720 00000001     H   18573 18560B
 $$$419        1 00000050 00000001 A   U   18597 18594  18596
 $$$421B       1 00002752 00000001     X   18624 18631U
 $$$422        1 00000050 00000001 A   U   18663 18660  18662
 $$$424B       1 0000277E 00000001     X   18690 18697U
 $$$425        1 00000050 00000001 A   U   18723 18720  18722
 $$$427B       1 000027A6 00000001     X   18750 18757U
 $$$428        1 00000050 00000001 A   U   18783 18780  18782
 $$$430B       1 000027CE 00000001     X   18810 18817U
 $$$431        1 00000050 00000001 A   U   18849 18846  18848
 $$$433B       1 000027FA 00000001     X   18920 18927U
 $$$434F       2 0000287C 00000001     H   19029 19014B
 $$$435F       2 0000288A 00000001     H   19054 19041B
 $$$436F       2 00002898 00000001     H   19079 19066B
 $$$437F       2 000028A6 00000001     H   19104 19091B
 $$$438F       2 000028B4 00000001     H   19130 19117B
 $$$439F       2 00002910 00000001     H   19254 19167B
 $$$44B        1 00000032 00000001     X    6835  6842U
 $$$440F       2 00002900 00000001     H   19228 19183B
 $$$441F       2 00002910 00000001     H   19250 19240B
 $$$442        1 00000270 00000001 A   U   19291 19288  19290
 $$$444B       1 0000294C 00000001     X   19333 19340U
 $$$445        1 00000050 00000001 A   U   19387 19384  19386
 $$$447B       1 00002A70 00000001     X   19483 19490U
 $$$448F       2 00002BA6 00000001     H   19787 19609B 19624B
 $$$448S       2 00002B0E 00000001     H   19604 19786B
 $$$45         1 00000050 00000001 A   U    6896  6893   6895
 $$$451        1 00000290 00000001 A   U   19817 19814  19816
 $$$453B       1 00002C9E 00000001     X   19926 19933U
 $$$454        1 00000050 00000001 A   U   20006 20003  20005
 $$$456B       1 00002CE8 00000001     X   20035 20042U
 $$$457        1 00000050 00000001 A   U   20095 20092  20094
 $$$459B       1 00002D24 00000001     X   20124 20131U
 $$$460        1 00000050 00000001 A   U   20181 20178  20180
 $$$462B       1 00002D5C 00000001     X   20260 20267U
 $$$465F       2 00002E16 00000001     H   20463 20427B
 $$$466F       2 00002E16 00000001     H   20459 20449B
 $$$467F       2 00002E96 00000001     H   20553 20541B
 $$$468F       2 00002EC6 00000001     H   20596 20581B
 $$$469        1 0000061C 00000001 A   U   20638 20635  20637
 $$$47B        1 0000006A 00000001     X    6924  6931U
 $$$471B       1 00002F10 00000001     X   20687 20694U
 $$$472F       2 00002F28 00000001     H   20743 20728B
 $$$473F       2 00002F3E 00000001     H   20772 20757B
 $$$474F       2 00002F8C 00000001     H   20814 20799B
 $$$475        1 00000050 00000001 A   U   20837 20834  20836
 $$$477B       1 00002FB6 00000001     X   20903 20910U
 $$$479B       4 00003006 00000001     I   20997 21042
 $$$479F       2 00003042 00000001     H   21036 20997B 21041
 $$$48F        2 0000007E 00000001     H    6969  6957B
 $$$480F       2 00003042 00000001     H   21032 21017B
 $$$481E       2 00003046 00000001     H   21049 21043
 $$$481F       2 000030B2 00000001     H   21166 21045B
 $$$482F       2 00003064 00000001     H   21087 21067B 21077B
 $$$482S       2 0000304C 00000001     H   21058 21086B
 $$$485F       2 000030B2 00000001     H   21162 21098B
 $$$486F       2 00003072 00000001     H   21124 21113B
 $$$487F       2 000030B2 00000001     H   21158 21143B
1COMM     (COMM4072) (12:40) (15MAR04) Ordinary Symbol and Literal Cross Reference                                          Page  122
 $$$488        1 00000260 00000001 A   U   21196 21193  21195
 $$$49F        2 000000A6 00000001     H    7008  6996B
 $$$490B       1 000030DC 00000001     X   21246 21253U
 $$$491F       2 00003116 00000001     H   21305 21293B
 $$$492        1 00000050 00000001 A   U   21326 21323  21325
 $$$494B       1 00003142 00000001     X   21396 21403U
 $$$495F       2 0000318E 00000001     H   21481 21470B
 $$$495S       2 00003180 00000001     H   21462 21480B
 $$$497F       2 000031A8 00000001     H   21523 21496B
 $$$497S       2 00003192 00000001     H   21489 21522B
 $$$499        6 000033E2 00000001     I   21510 21502X
 $$$50F        2 000000B6 00000001     H    7037  7025B
 $$$500        6 000033E2 00000001     I   21509 21510  21510
 $$$501        1 00000260 00000001 A   U   21564 21561  21563
 $$$503B       1 000031E8 00000001     X   21611 21618U
 $$$504        1 00000050 00000001 A   U   21662 21659  21661
 $$$506B       1 0000322C 00000001     X   21723 21730U
 $$$507F       2 000032E6 00000001     H   21934 21789B
 $$$508F       2 00003280 00000001     H   21829 21809B 21819B
 $$$508S       2 00003268 00000001     H   21800 21828B
 $$$51         1 00000050 00000001 A   U    7063  7060   7062
 $$$511F       2 000032E6 00000001     H   21930 21840B
 $$$512B       4 000032A0 00000001     I   21865 21908
 $$$512F       2 000032D4 00000001     H   21903 21865B 21907
 $$$513F       2 000032D4 00000001     H   21899 21884B
 $$$514E       2 000032D8 00000001     H   21915 21909
 $$$514F       2 000032E6 00000001     H   21926 21911B
 $$$515        1 00000260 00000001 A   U   21962 21959  21961
 $$$517B       1 00003402 00000001     X   22072 22079U
 $$$518F       2 0000345E 00000001     H   22142 22129B
 $$$519        1 00000050 00000001 A   U   22164 22161  22163
 $$$521B       1 0000348E 00000001     X   22196 22203U
 $$$522F       2 00003500 00000001     H   22275 22262B
 $$$523F       2 00003528 00000001     H   22361 22287B 22306B
 $$$525F       2 00003528 00000001     H   22357 22327B
 $$$525S       2 00003518 00000001     H   22321 22356B
 $$$527F       2 000035A4 00000001     H   22561 22376B
 $$$527S       2 00003528 00000001     H   22370 22560B
 $$$529        1 00000050 00000001 A   U   22581 22578  22580
 $$$53B        1 000000E4 00000001     X    7097  7104U
 $$$531B       1 00003672 00000001     X   22669 22676U
 $$$532        1 00000050 00000001 A   U   22708 22705  22707
 $$$534B       1 000036A0 00000001     X   22735 22742U
 $$$535        1 00000050 00000001 A   U   22771 22768  22770
 $$$537B       1 000036CE 00000001     X   22806 22813U
 $$$538F       2 000036DC 00000001     H   22848 22835B
 $$$539F       2 000036E8 00000001     H   22867 22858B
 $$$54F        2 000000F8 00000001     H    7136  7127B
 $$$540F       2 0000371E 00000001     H   22945 22921B
 $$$541        6 00003A36 00000001     I   22935 22927X
 $$$542        6 00003A36 00000001     I   22934 22935  22935
 $$$543B       4 00003734 00000001     I   22966 22980
 $$$543F       2 00003740 00000001     H   22976 22966B 22979
 $$$544E       2 00003744 00000001     H   22987 22981
 $$$544F       2 00003754 00000001     H   22996 22983B
 $$$545F       2 00003778 00000001     H   23043 23029B
 $$$545S       2 00003760 00000001     H   23020 23042B
 $$$547        1 00000050 00000001 A   U   23062 23059  23061
 $$$549B       1 000037A0 00000001     X   23125 23132U
1COMM     (COMM4072) (12:40) (15MAR04) Ordinary Symbol and Literal Cross Reference                                          Page  123
 $$$55F        2 00000108 00000001     H    7175  7151B
 $$$550F       2 000037B4 00000001     H   23184 23171B
 $$$551F       2 000037C0 00000001     H   23203 23194B
 $$$552F       2 000037E0 00000001     H   23269 23216B
 $$$553F       2 000037F4 00000001     H   23314 23290B
 $$$554        6 00003A3C 00000001     I   23304 23296X
 $$$555        6 00003A3C 00000001     I   23303 23304  23304
 $$$556        6 00003A42 00000001     I   23324 23316X
 $$$557        6 00003A42 00000001     I   23323 23324  23324
 $$$558F       2 00003806 00000001     H   23364 23355B
 $$$559F       2 000038A2 00000001     H   23658 23378B
 $$$559S       2 0000380A 00000001     H   23372 23657B
 $$$56         6 00000164 00000001     I    7165  7157X
 $$$561F       2 00003832 00000001     H   23424 23409B
 $$$562F       2 00003856 00000001     H   23488 23437B
 $$$564F       2 00003878 00000001     H   23569 23507B
 $$$565F       2 00003874 00000001     H   23549 23525B
 $$$566        6 00003A48 00000001     I   23539 23531X
 $$$567        6 00003A48 00000001     I   23538 23539  23539
 $$$568        6 00003A4E 00000001     I   23559 23551X
 $$$569        6 00003A4E 00000001     I   23558 23559  23559
 $$$57         6 00000164 00000001     I    7164  7165   7165
 $$$570F       2 00003886 00000001     H   23609 23585B
 $$$571        6 00003A54 00000001     I   23599 23591X
 $$$572        6 00003A54 00000001     I   23598 23599  23599
 $$$573F       2 0000389A 00000001     H   23646 23616B
 $$$574        1 00000228 00000001 A   U   23692 23689  23691
 $$$576B       1 000038D6 00000001     X   23724 23731U
 $$$577F       2 000038EE 00000001     H   23767 23753B
 $$$577S       2 000038D6 00000001     H   23745 23766B
 $$$579        1 00000050 00000001 A   U   23785 23782  23784
 $$$58         1 00000050 00000001 A   U    7238  7235   7237
 $$$581B       1 00003916 00000001     X   23819 23826U
 $$$582F       2 00003938 00000001     H   23877 23862B
 $$$583B       4 00003944 00000001     I   23890 23903
 $$$583F       2 0000394E 00000001     H   23900 23890B 23902
 $$$584E       2 00003952 00000001     H   23910 23904
 $$$584F       2 00003958 00000001     H   23917 23906B
 $$$585B       4 0000395E 00000001     I   23929 23942
 $$$585F       2 00003968 00000001     H   23939 23929B 23941
 $$$586E       2 0000396C 00000001     H   23949 23943
 $$$586F       2 00003972 00000001     H   23956 23945B
 $$$587F       2 00003998 00000001     H   23985 23970B
 $$$588        1 00000050 00000001 A   U   24026 24023  24025
 $$$590B       1 00003A74 00000001     X   24095 24102U
 $$$591F       2 00003A98 00000001     H   24188 24164B
 $$$592        6 000041C0 00000001     I   24178 24170X
 $$$593        6 000041C0 00000001     I   24177 24178  24178
 $$$594F       2 00003AF6 00000001     H   24358 24268B 24324B
 $$$594T       2 00003ACA 00000001     H   24271 24257B
 $$$596F       2 00003AE2 00000001     H   24312 24286B 24299B
 $$$596S       2 00003ACA 00000001     H   24278 24311B
 $$$60B        1 00000184 00000001     X    7296  7303U
 $$$600F       2 00003AF6 00000001     H   24354 24341B
 $$$601        1 00000050 00000001 A   U   24490 24487  24489
 $$$603B       1 00003BFE 00000001     X   24532 24539U
 $$$604        1 00000050 00000001 A   U   24613 24610  24612
 $$$606B       1 00003E76 00000001     X   24823 24830U
 $$$607        1 00000050 00000001 A   U   24857 24854  24856
1COMM     (COMM4072) (12:40) (15MAR04) Ordinary Symbol and Literal Cross Reference                                          Page  124
 $$$609B       1 00003EA2 00000001     X   24884 24891U
 $$$61F        2 0000019A 00000001     H    7332  7319B
 $$$610        1 00000050 00000001 A   U   24924 24921  24923
 $$$612B       1 00003ED2 00000001     X   24951 24958U
 $$$613        1 00000050 00000001 A   U   25033 25030  25032
 $$$615B       1 00003F22 00000001     X   25080 25087U
 $$$616B       4 00003F32 00000001     I   25134 25279
 $$$616F       2 00003FC8 00000001     H   25272 25134B 25278
 $$$617B       4 00003F3E 00000001     I   25157 25243
 $$$617F       2 00003FB6 00000001     H   25240 25157B 25242
 $$$618E       2 00003FBA 00000001     H   25250 25244
 $$$618F       2 00003FC8 00000001     H   25268 25246B
 $$$619E       2 00003FCC 00000001     H   25286 25280
 $$$619F       2 000040B8 00000001     H   25515 25282B 25309B
 $$$619T       2 00003FDC 00000001     H   25312 25299B
 $$$62F        2 000001B0 00000001     H    7386  7344B
 $$$622F       2 00003FF0 00000001     H   25345 25336B
 $$$623F       2 0000401C 00000001     H   25380 25370B
 $$$624B       4 0000402E 00000001     I   25400 25486
 $$$624F       2 000040A6 00000001     H   25483 25400B 25485
 $$$625E       2 000040AA 00000001     H   25493 25487
 $$$625F       2 000040B8 00000001     H   25511 25489B
 $$$626        1 00000050 00000001 A   U   25538 25535  25537
 $$$628B       1 000041E0 00000001     X   25627 25634U
 $$$629B       4 00004244 00000001     I   25762 25800
 $$$629F       2 00004264 00000001     H   25797 25762B 25799
 $$$63F        2 000001D0 00000001     H    7452  7398B
 $$$630E       2 00004268 00000001     H   25807 25801
 $$$630F       2 0000427E 00000001     H   25836 25803B
 $$$631        1 00000050 00000001 A   U   25896 25893  25895
 $$$633B       1 00004302 00000001     X   25933 25940U
 $$$634        1 00000050 00000001 A   U   26111 26108  26110
 $$$636B       1 000043E4 00000001     X   26143 26150U
 $$$637F       2 00004406 00000001     H   26217 26193B
 $$$638        6 00004D1C 00000001     I   26207 26199X
 $$$639        6 00004D1C 00000001     I   26206 26207  26207
 $$$640        1 00000050 00000001 A   U   26382 26379  26381
 $$$642B       1 0000452A 00000001     X   26418 26425U
 $$$643        1 00000050 00000001 A   U   26499 26496  26498
 $$$645B       1 000047CA 00000001     X   26723 26730U
 $$$646        1 00000050 00000001 A   U   26757 26754  26756
 $$$648B       1 000047F6 00000001     X   26784 26791U
 $$$649        1 00000050 00000001 A   U   26848 26845  26847
 $$$65F        2 000001DE 00000001     H    7478  7465B
 $$$651B       1 00004834 00000001     X   26880 26887U
 $$$652F       2 0000484C 00000001     H   26950 26926B
 $$$653        6 00004D22 00000001     I   26940 26932X
 $$$654        6 00004D22 00000001     I   26939 26940  26940
 $$$655        1 00000050 00000001 A   U   27113 27110  27112
 $$$657B       1 00004970 00000001     X   27151 27158U
 $$$658        1 00000050 00000001 A   U   27232 27229  27231
 $$$66F        2 000001F2 00000001     H    7516  7491B
 $$$660B       1 00004C12 00000001     X   27458 27465U
 $$$661        1 00000050 00000001 A   U   27492 27489  27491
 $$$663B       1 00004C3E 00000001     X   27519 27526U
 $$$664        1 00000050 00000001 A   U   27601 27598  27600
 $$$666B       1 00004D42 00000001     X   27664 27671U
 $$$667        1 00000050 00000001 A   U   27744 27741  27743
 $$$669B       1 00004E64 00000001     X   27787 27794U
1COMM     (COMM4072) (12:40) (15MAR04) Ordinary Symbol and Literal Cross Reference                                          Page  125
 $$$67F        2 00000200 00000001     H    7541  7528B
 $$$670        1 00000050 00000001 A   U   27827 27824  27826
 $$$68F        2 0000022C 00000001     H    7619  7582B
 $$$69F        2 00000244 00000001     H    7647  7634B
 $$$70F        2 00000272 00000001     H    7723  7659B
 $$$71F        2 00000270 00000001     H    7715  7688B
 $$$72F        2 000002A6 00000001     H    7847  7813B  7824B  7837B
 $$$76F        2 000002D0 00000001     H    7893  7862B  7873B
 $$$78F        2 000002DC 00000001     H    7917  7904B
 $$$79F        2 00000354 00000001     H    8138  7924B
 $$$80F        2 000002FE 00000001     H    7976  7941B
 $$$81F        2 000002FE 00000001     H    7972  7956B
 $$$82F        2 00000316 00000001     H    8022  7990B
 $$$83F        2 00000312 00000001     H    8017  8004B
 $$$84F        2 00000354 00000001     H    8134  8036B
 $$$85F        2 00000332 00000001     H    8068  8055B
 $$$86F        2 0000033E 00000001     H    8087  8078B
 $$$87F        2 0000034E 00000001     H    8126  8102B
 $$$88         6 0000043C 00000001     I    8116  8108X
 $$$89         6 0000043C 00000001     I    8115  8116   8116
 $$$91F        2 0000038C 00000001     H    8219  8178B
 $$$92         1 00000050 00000001 A   U    8242  8239   8241
 $$$94B        1 0000045C 00000001     X    8322  8329U
 $$$95F        2 000004BC 00000001     H    8514  8362B
 $$$96F        2 00000476 00000001     H    8390  8377B
 $$$97F        2 00000484 00000001     H    8414  8401B
 $$$98F        2 00000492 00000001     H    8438  8425B
 $$$99F        2 000004A0 00000001     H    8462  8449B
 @RAR          0 00000000 FFFFFFF0     @    1136  2162   2170B
 @R0           0 00000000 FFFFFFFE     @     706   982U
 @R1           0 00000000 FFFFFFFD     @     719   978U  2168   2169   8115   8183   9150  10513  11612  12580  13209
                                                 13216  13251  13760  13766  13919  14209  14424  14465  14506  15159
                                                 15165  16032  16039  16242  16249  16635  16642  17337  17694  17719
                                                 17744  18025M 18415  18535  19040  19065  19090  21509  23303  24007U
                                                 24177M 24254  24267  24298  24305  24340  26206M 26939M
 @R10          0 00000000 FFFFFFF4     @     836   942U
 @R11          0 00000000 FFFFFFF3     @     849   938U
 @R12          0 00000000 FFFFFFF2     @     862   934U
 @R13          0 00000000 FFFFFFF1     @     875   930U 10805  12275  12345  13530  24429  24591  25236  25479  26320
                                                 26477  27052  27210
 @R14          0 00000000 FFFFFFF0     @     888   926U  9909M  9909  12085M 12117  13279M 13279  13541M 13541  25167M
                                                 25199  25410M 25442
 @R15          0 00000000 FFFFFFEF     @     901   922U  7377U 13062U 23497U 27692U
 @R2           0 00000000 FFFFFFFC     @     732   974U  7799U  9887M 10018M 17310M 17983  18025
 @R3           0 00000000 FFFFFFFB     @     745   970U 20951  20972  21002  21469  22934
 @R4           0 00000000 FFFFFFFA     @     758   966U  7117   7164  21437  21456  21509  21764  22353U 22557U 23010U
                                                 23266U 23654U
 @R5           0 00000000 FFFFFFF9     @     771   962U  9681U 18858U 20189U 23323  23558
 @R6           0 00000000 FFFFFFF8     @     784   958U 11757U 15097U 17301M 17308M 17308  17309  17337M 18865U 19299U
                                                 20196U 20646U 20845U 21204U 21334U 21572U 21970U 25546U
 @R7           0 00000000 FFFFFFF7     @     797   954U  6885U  7052U  7227U  8231U  9662U  9983U 10036U 10178U 10247U
                                                 10316U 10387U 10524U 10742U 10859U 10941U 11028U 11138U 11282U 11378U
                                                 11446U 11634U 11861U 12358U 12498U 12609U 12680U 13614U 14621U 14775U
                                                 14837U 14899U 14961U 15077U 15210U 15483U 15627U 15691U 15755U 15819U
                                                 16090U 16301U 16790U 16857U 16944U 17377U 18088U 18283U 18351U 18471U
                                                 18586U 18652U 18712U 18772U 18838U 19280U 19376U 19806U 19995U 20084U
                                                 20170U 20627U 20826U 21185U 21315U 21553U 21651U 21951U 22153U 22570U
                                                 22697U 22760U 23051U 23681U 23774U 24015U 24479U 24602U 24846U 24913U
                                                 25022U 25527U 25885U 26100U 26371U 26488U 26746U 26837U 27102U 27221U
1COMM     (COMM4072) (12:40) (15MAR04) Ordinary Symbol and Literal Cross Reference                                          Page  126
                                                 27481U 27590U 27733U 27816U
 @R8           0 00000000 FFFFFFF6     @     810   950U  9744   9997  12353U 14616U 16085U 16296U 16785U 18083U 19275U
                                                 19801U 20622U 21180U 21548U 21946U 23676U
 @R9           0 00000000 FFFFFFF5     @     823   946U
 AABBRREC    528 00000000 FFFFFFDC     X   20867 20928
 AABBRWA     528 00000000 FFFFFFDC     J   20874 20895  20924U 21193  21195  21196
 ABBRDATA    512 00000010 FFFFFFE1     X   17481 17482  20982  20983  21002M 21005  21052  21127  21131  21445  21446
                                                 21774  21775  21852  21872
 ABBRNAME     16 00000000 FFFFFFE1     C   17480 20971M 20972M 20984  21006  21132  21436M 21437M 21447  21763M 21764M
                                                 21776  21873  21918
 ABBRNTRY     16 00000010 FFFFFFE1     C   17483 21002  21004  21082  21125  21126  21824  21846
 ABBRRECD    528 00000000 FFFFFFE1     J   17490 20867  20936U 20968M 20968  20969M 20969  20970M 20970  21360  21429U
                                                 21687  21756U
 ABSCENT       2 00000C74 00000001     H   11304 11300
 ABSCENT       1 00000000 00000000 A   T    2178  2178
 ADDABBR       2 00002F9C 00000001     H   20882 19406
 ADDADONE      2 000030B2 00000001     H   21169 20954B
 ADDDEF        2 00002EF6 00000001     H   20668 19405
 ADDHCMD       2 000036B4 00000001     H   22787 13641
 ALIGN         1 00000000 000000AC     T   29607 29607  29622
 ALLOCATE      1 00000000 000000AF     T   29667 29667
 ALLOWATN      1 00000000 00000025     T    9717  9717  13644
 AMMISS        2 00000CBE 00000001     H   11398 11394
 ASCTBL        1 00000000 00000000 A   T    2186  2186
 BEGIN         1 00000000 0000006E     T   28226 28226
 BILLCHK       1 00000000 00000006     T    8255  8255   9711
 BLTBL         1 00000000 00000000 A   T    2188  2188
 BR            7 00000007 00000001 A   #    1026  6830M  6919M  7092M  7291M  8317M 10069M 10219M 10288M 10353M 10429M
                                                 10571M 10784M 10880  10965M 11064M 11174M 11318M 11412M 11484M 11677M
                                                 12021M 12464M 12532M 12643M 12713M 13707M 14746M 14808M 14870M 14932M
                                                 14993M 15125M 15248M 15593M 15660M 15724M 15788M 15882M 16155M 16457M
                                                 16829M 16895M 17049M 17563M 18245M 18316M 18384M 18504M 18619M 18685M
                                                 18745M 18805M 18915M 19328M 19478M 19921M 20030M 20119M 20255M 20682M
                                                 20898M 21241M 21391M 21606M 21718M 22067M 22191M 22664M 22730M 22801M
                                                 23120M 23719M 23814M 24090M 24527M 24818M 24879M 24946M 25075M 25622M
                                                 25928M 26138M 26413M 26718M 26779M 26875M 27146M 27453M 27514M 27659M
                                                 27782M
 BROADCAS      1 00000000 000000CF     T   30464 30464
 BTD           1 00000000 0000002F     T   12401 12401
 CABBRREC    528 00000000 FFFFFFDB     X   21360 21421
 CABBRWA     528 00000000 FFFFFFDB     J   21367 21388  21417U 21561  21563  21564
 CASE          1 00000000 00000075     T   28331 28331
 CASES         1 00000000 00000076     T   28346 28346
 CATALOG       1 00000000 000000B5     T   29773 29773  29788  29803  29818  29833  29848
 CDEFCLR       2 0000198A 00000001     H   14918 14696  14711
 CDEFDUMP      2 00001958 00000001     H   14856 14681
 CDEFPRT       4 00001804 00000001     F   14639 16978
 CDEFSET       2 000018F4 00000001     H   14732 14651
 CDEFSHOW      2 00001926 00000001     H   14794 14666
 CDEFSTOP      2 000019BC 00000001     H   14979 14726
 CDUMP         2 000043CA 00000001     H   26124 26120
 CDUMP         1 00000000 0000005E     T   27956 27956
 CENTER        1 00000000 000000AD     T   29637 29637
 CFINCLR       2 00001CC6 00000001     H   15774 15543  15558
 CFINCMD       2 00001C2C 00000001     H   15579 15573
 CFINPFX       4 00000000 FFFFFFE6     C   13674 14020M 14234  14241  14249M 14258  14265  14273M 14282  14289  14297M
                                                 14306  14313
 CFINSET       2 00001C5E 00000001     H   15646 15513
 CFINSHOW      2 00001C92 00000001     H   15710 15528
1COMM     (COMM4072) (12:40) (15MAR04) Ordinary Symbol and Literal Cross Reference                                          Page  127
 CFINVAR      16 00000004 FFFFFFE6     C   13675 14021M 14209M 14241  14265  14289  14313  14767M 14829M 14891M 14953M
                                                 16968
 CFINWA       20 00000000 FFFFFFE6     J   13682 13704  13733U 13737  13745U 14629  14631  14632
 CHANGE        1 00000000 0000005D     T   27926 27926  27941
 CHECKIOB      1 00000000 00000000 A   T    2234  2234
 CHECKTRY      2 00003BE4 00000001     H   24513 25564
 CHKABBR       2 00003128 00000001     H   21375 19410  21993
 CHKADONE      2 000031C0 00000001     H   21541 21533B 21538B
 CHKCDUMP      2 00004510 00000001     H   26399 27618
 CHKDEF        2 000030C2 00000001     H   21227 19409  21992
 CHKQUIET      2 00004956 00000001     H   27132 27622
 CINVALID      2 000047DC 00000001     H   26765 26517  26532  26547  26562  26577  26592  26607  26622  26637  26652
                                                 26667  26682
 CKCDPRT       4 000045A8 00000001     F   26505 27620
 CKQUIPRT      4 000049F0 00000001     F   27240 27623
 CKTRYPRT      4 00003C7C 00000001     F   24620 25571
 CLEANUP       2 00000442 00000001     H    8303  7251
 CLEAR         1 00000000 00000099     T   28977 28977  28992
 CLOSE         1 00000000 000000BB     T   29953 29953  30494
 CLRDEF        2 00002932 00000001     H   19314 19310
 CLRHCMDS      2 000038BC 00000001     H   23705 23701
 CMDDO         4 00000282 00000001     I    7764  7448B
 CMDFIN        2 00001466 00000001     H   13691 13687  28662  28782  30224  31034
 CMDRETRY      2 00000D62 00000001     H   11663  8272  11659  12411
 CMDUNREC      2 00001A70 00000001     H   15234 15230  16992
 CNORMAL       2 000047B0 00000001     H   26704 26697
 COLLECT       1 00000000 00000090     T   28842 28842
 COLLPSH       1 00000000 00000048     T   19883 19883  22629
 COMMAND       2 00000050 00000001     H    6905  6901   7250
 COMMAND       1 00000000 00000000 A   T    2174  2174
 COMMENT       1 00000000 00000093     T   28887 28887
 COMMSEG       2 00000018 00000001     H    6816  6812
 COMMSEG       1 00000000 00000000 A   T    2175  2175
 COMM4072      1 00000000 00000001     R    1002  1000
 COMPARE       1 00000000 00000092     T   28872 28872
 CONDENSE      1 00000000 000000AA     T   29487 29487
 COPY          1 00000000 0000009A     T   29007 29007
 COPYA         1 00000000 0000009B     T   29022 29022
 COUNT         1 00000000 0000009C     T   29037 29037
 CP         4096 00000000 FFFFFFEC     J    6188  1163U
 CP#ABBR       1 00000004 FFFFFFEC A   U    3928 19360  20976  21439  21768
 CP#DEF        1 00000003 FFFFFFEC A   U    3927 19352  19583  20776  21274  21628
 CP#XOLD       1 00000002 FFFFFFEC A   U    3917 13642
 CP#XSET       4 00000778 FFFFFFEC     F    4151 12898  25218  25461
 CP#XSTK       1 00000010 FFFFFFEC A   U    3920  3921
 CPACFLG       1 000005D5 FFFFFFEC     R    4023  4027   4032   4037   4042   4047
 CPACFLN       4 000005C4 FFFFFFEC     F    4015  4050   4050
 CPACLNO       4 000005A8 FFFFFFEC     F    3977 26169M
 CPAFLAG       1 000005C3 FFFFFFEC     R    3987  3991   3996   4001   4006
 CPANAME       8 00000588 FFFFFFEC     C    3969  4065   4065
 CPAUTFLG      1 000008A9 FFFFFFEC     R    4333  4337   4342   4347   4352
 CPCHFLAG      1 00000B68 FFFFFFEC     R    4960  4964
 CPCMD       235 00000242 FFFFFFEC     C    2813  7164M  7209   7257   7422   8115M  8183M  8210   8215   8271  11612M
                                                 11833  11973  11974  12305M 12325  12580M 12592  13151  13165  13179
                                                 13298  13388  13432  13556  14033  14336  14540  15279  16051M 16052M
                                                 16062  16261M 16262M 16272  16417  16740M 16760  16916M 16927  17243
                                                 20310  20478  20598  20599  22033  25659  25685  25710  25733  25777
                                                 25820  25965  25991  26016  26039  27625
 CPCMDLEN      2 00000240 FFFFFFEC     H    2812  7137M  7213   7426   8088M 11584M 11837  12278M 12329  12801M 13115M
1COMM     (COMM4072) (12:40) (15MAR04) Ordinary Symbol and Literal Cross Reference                                          Page  128
                                                 13183  13302  13392  13436  13560  14037  14340  14544  15283  16053M
                                                 16066  16263M 16276  16713M 16917M 16931  17247  20314  20482  20597M
                                                 25655M 25714  25737  25781  25824  25961M 26020  26043
 CPCMDRTN      4 00000340 FFFFFFEC     A    2819  9634   9648M  9648  10906M 10906
 CPCPLEN       2 000007FE FFFFFFEC     H    4204  7557
 CPCPRMT      62 00000800 FFFFFFEC     C    4205  7553
 CPDFLG        1 0000084C FFFFFFEC     R    4220  4224   4229   4234   4239   4244
 CPDFLG2       1 0000084D FFFFFFEC     R    4249  4253   4258   4263   4268   4273   4278
 CPDMPDLT      4 00000C6C FFFFFFEC     F    5011  8865
 CPDMPLST      4 00000C68 FFFFFFEC     F    5010  8864  26168M
 CPDOUB        8 00000C88 FFFFFFEC     D    5206 10658  27684M 27691
 CPERRID       8 00000886 FFFFFFEC     C    4319 10709M 10843M 10927M 11016M 11113M 11113  11120M 11257M 11257  11264M
                                                 11353M 11353  11360M 12940  12947M 12947  15964M 25335  25341M 25346
                                                 25347
 CPESCAPE      1 000008BA FFFFFFEC     C    4395 13089
 CPEXFLG       1 00000758 FFFFFFEC     R    4089  4093
 CPEXFLG2      1 00000759 FFFFFFEC     R    4099  4108   4118
 CPEXFLG3      1 0000075A FFFFFFEC     R    4125  4129   4134
 CPEXLINE      4 0000075C FFFFFFEC     F    4142 25220  25463
 CPEXTFLG      1 00000E28 FFFFFFEC     R    5771  5775   5780   5785   5790   5795   5800
 CPFABORT    128 00000D5A FFFFFFEC         5537  2138M  2138   2143M  2143   8577   8620   9288M  9344M  9374   9460
                                                 11535  11535  25308
 CPFCASE      32 00000D57 FFFFFFEC         5477  9623M
 CPFCMDFX      1 00000040 FFFFFFEC A   U    3573  7834   9523
 CPFCMDMD    128 00000C78 FFFFFFEC         5022 11802  11802  11803  11803
 CPFDDATN     64 0000047A FFFFFFEC         3710  9216  12981
 CPFDUMP     128 00000D55 FFFFFFEC         5402  8647M  8803   8803   8804M 26175M
 CPFERROR     64 00000D5A FFFFFFEC         5542  2137M  2137   2142M  2142   8565   8608   9281M  9337M  9362   9448
                                                  9512  11535  11535  11536M 25296
 CPFEXEC     128 00000758 FFFFFFEC         4093  6995   9039   9431  12774  12881  13019  25156  25399
 CPFINATN     32 0000047A FFFFFFEC         3715 13007
 CPFLISXP      8 00000C78 FFFFFFEC         5042 11801  11801  11803  11803
 CPFMON      128 0000084F FFFFFFEC         4291  6956
 CPFNDEF       2 00000477 FFFFFFEC         3621 13330  13459M
 CPFNLST       1 00000020 FFFFFFEC A   U    5391  8826  11809
 CPFNONUM      1 000000C0 FFFFFFEC A   U    5390 11812
 CPFNPREP      1 00000080 FFFFFFEC A   U    3585 13103  13129
 CPFNTEX       1 00000040 FFFFFFEC A   U    5389  5390
 CPFNUMXP     32 00000C78 FFFFFFEC         5032 11801  11801  11802  11802  11804M
 CPFONATN    128 0000047A FFFFFFEC         3705 12995
 CPFQUIET     64 00000D55 FFFFFFEC         5407  8654M  8803   8803  26909M
 CPFRCVY      64 00000474 FFFFFFEC         3539  8982M
 CPFRDRNG      1 00000D88 FFFFFFEC     R    5657  5661   5666   5671   5676   5681   5686   5691
 CPFRDSRC      1 00000D89 FFFFFFEC     R    5696  5705   5715   5725
 CPFRETRY     32 00000D5A FFFFFFEC         5547  9552M  9571  11511M
 CPFSEC       32 00000474 FFFFFFEC         3544  7343
 CPFSING       1 00000001 FFFFFFEC A   U    5394 11815
 CPFTATTN     32 0000047B FFFFFFEC         3740 24140M 25121M 25144M
 CPFTERR      16 0000047B FFFFFFEC         3745 24147M 25114M 25319M
 CPFTODFT      1 00000001 FFFFFFEC A   U    5306  8834   8857
 CPFTRY      128 0000047B FFFFFFEC         3730  8635   9246   9295M  9965M 12166  24125M
 CPFTYPED     16 00000477 FFFFFFEC         3594  7200M  7730M 11094  12813  16073M 16283M 16772M
 CPFUFMT       8 00000C7C FFFFFFEC         5145 11824M 11849M
 CPFUNUM       1 00000080 FFFFFFEC A   U    5388  5390
 CPFUPPER     16 00000D57 FFFFFFEC         5482  9797M
 CPFVCMD     128 0000047D FFFFFFEC         3771  9403
 CPFXAUTH     64 0000075A FFFFFFEC         4134 17079
 CPFXDFLG      1 000007E4 FFFFFFEC     R    4167  4171   4176
 CPFXDUMP    128 000007E4 FFFFFFEC         4171  8661M
1COMM     (COMM4072) (12:40) (15MAR04) Ordinary Symbol and Literal Cross Reference                                          Page  129
 CPFXOLD       2 00000759 FFFFFFEC         4118 12864M 12909M
 CPFXTEND      1 00000759 FFFFFFEC         4108 12871M 12930M 13342
 CPFXXTRY     64 0000047B FFFFFFEC         3735  9258   9302M 24131M 24905M
 CPGFLG1       1 00000474 FFFFFFEC     R    3530  3534   3539   3544   3549   3554   3884   3884
 CPGFLG10      1 0000047D FFFFFFEC     R    3767  3771   3776   3781   3786   3791   3796
 CPGFLG11      1 0000047E FFFFFFEC     R    3802  3806   3811
 CPGFLG12      1 0000047F FFFFFFEC     R    3817  3821   3826   3831
 CPGFLG13      1 00000480 FFFFFFEC     R    3837  3841
 CPGFLG14      1 00000481 FFFFFFEC     R    3847  3851   3856   3861   3866   3871
 CPGFLG3       1 00000476 FFFFFFEC     R    3570  7836   9525
 CPGFLG4       1 00000477 FFFFFFEC     R    3583  3594   3603   3612   3621   3630  13105  13131M
 CPGFLG5       1 00000478 FFFFFFEC     R    3636  3640   3645   3650   3655   3660   3665   3670   3675
 CPGFLG6       1 00000479 FFFFFFEC     R    3681  3685   3690   3695
 CPGFLG7       1 0000047A FFFFFFEC     R    3701  3705   3710   3715   3720
 CPGFLG8       1 0000047B FFFFFFEC     R    3726  3730   3735   3740   3745
 CPGFLG9       1 0000047C FFFFFFEC     R    3751  3755   3761
 CPGFNATN      8 00000478 FFFFFFEC         3660  7955
 CPGFNCMD     16 00000478 FFFFFFEC         3655  7397   7411   7411   7412M
 CPGFWR       32 00000478 FFFFFFEC         3650  7411   7411   7687   7737M
 CPHCMD#       1 00000064 FFFFFFEC A   U    4307 24058
 CPHCMDCR      2 0000086E FFFFFFEC     H    4310 11551M 11551  22303  23002  23003M 23028  23752M 23752  23960  23962M
 CPHCMDMX      2 0000086C FFFFFFEC     H    4309 22144M 22212
 CPHCMDNO      2 0000086A FFFFFFEC     H    4308 13860  13862M 22951  22952M
 CPHCMDQH      4 00000870 FFFFFFEC     A    4311 22261M 22261  22277  22965M 22965  22971M 23034  23758  23896M
 CPHCMDQT      4 00000874 FFFFFFEC     A    4312 13841  22315  22972M 22989  22992M 23223  23366  23935M
 CPHEAPCR      4 00000330 FFFFFFEC     A    2815  9895M  9895  10122  10169M 10240  10309M 10380M 10380
 CPINIT        1 00000174 FFFFFFEC     U    2700  6157
 CPIOWAP       4 00000DDC FFFFFFEC     F    5749  8532M  8532
 CPJESFLG      1 000009E1 FFFFFFEC     R    4432  4436   4441   4446   4451   4456   4461   4466   4471
 CPJESFLY      1 000009FD FFFFFFEC     R    4482  4486   4491   4496
 CPJESHFL      1 000009E0 FFFFFFEC     R    4417  4421   4426   4505   4505
 CPLCOL        2 00000C50 FFFFFFEC     H    5003  9775M
 CPLCOLXP    128 00000D57 FFFFFFEC         5467  8846
 CPLENWRN      2 00000E24 FFFFFFEC     H    5766  8682M  8682
 CPLFLG1       1 00000D50 FFFFFFEC     R    5300  8836M  8859M
 CPLFLG10      1 00000D59 FFFFFFEC     R    5523  5527
 CPLFLG11      1 00000D5A FFFFFFEC     R    5533  5537   5542   5547   5552
 CPLFLG12      1 00000D5B FFFFFFEC     R    5558  5562
 CPLFLG14      1 00000D5C FFFFFFEC     R    5568  5572   5577   5582   5587   5592
 CPLFLG5       1 00000D54 FFFFFFEC     R    5385  8828M 11817M
 CPLFLG6       1 00000D55 FFFFFFEC     R    5398  5402   5407   5412   5417   5422   5427
 CPLFLG7       1 00000D56 FFFFFFEC     R    5433  5437   5442   5447   5452   5457
 CPLFLG8       1 00000D57 FFFFFFEC     R    5463  5467   5472   5477   5482
 CPLFLG9       1 00000D58 FFFFFFEC     R    5488  5492   5497   5502   5507   5512   5517
 CPLOCALZ      1 00000C48 FFFFFFEC     U    4990  6151   6151
 CPLSTOWD    128 00000D58 FFFFFFEC         5492  8815   8872M
 CPLWCHAR     16 00000C56 FFFFFFEC     C    5008  8944M  8944
 CPMFLG        1 0000084F FFFFFFEC     R    4287  4291
 CPMODFLG      1 00000C78 FFFFFFEC     R    5018  5022   5027   5032   5037   5042
 CPNAMELN      1 00000010 FFFFFFEC A   U    3913  4160
 CPNCOM        4 000001E0 FFFFFFEC     F    2712 12757  12758M
 CPNCOME       4 000001E4 FFFFFFEC     F    2713 12784  12785M
 CPNEDPFX     10 00000E29 FFFFFFEC     X    5804  5805   5806
 CPNSCAN     176 00000090 FFFFFFEC     X    2574  9903  13273
 CPNSCANP      4 0000008C FFFFFFEC     A    2573  9904M  9908  12222  13274M 13278  13304  13394  13438  13465  13471
                                                 13478  13493  13502  13527  13540  13562  13571  13578  13594  13770
                                                 13825  13929  13984  14039  14048  14055  14071  14089  14096  14111
                                                 14125  14342  14351  14358  14373  14396  14546  14555  14562  14577
                                                 14586  15017  15182  15285  15294  15301  15317  15914  15921  15936
1COMM     (COMM4072) (12:40) (15MAR04) Ordinary Symbol and Literal Cross Reference                                          Page  130
                                                 15977  16000  16187  16210  16490  16603  17121  17650  17657  17672
                                                 17787  17840  17847  17863  18971  18978  18993  19133  19545  19552
                                                 19568  19944  19967  20053  20142  20316  20325  20332  20347  20393
                                                 20484  20493  20500  20515  20524  22091  22098  22113  22215  22222
                                                 22238  24193  24213  24364  24370  24377  24392  24401  24426  24437
                                                 24444  24460  24550  24556  24563  24579  24588  25648  25716  25783
                                                 25826  25842  25849  25865  25954  26022  26057  26064  26080  26223
                                                 26243  26255  26261  26268  26283  26292  26317  26328  26335  26351
                                                 26436  26442  26449  26465  26474  26955  26975  26987  26993  27000
                                                 27015  27024  27049  27060  27067  27083  27169  27175  27182  27198
                                                 27207
 CPNUMFLG      1 00000C79 FFFFFFEC     R    5048  5060
 CPOERRID      8 0000088E FFFFFFEC     C    4320 12940M
 CPORVCHR      1 00000148 FFFFFFEC     C    2629  7581   7598   7603
 CPORVCMD      1 00000140 FFFFFFEC     R    2582  2586   2591   2596   2601   2606   2611   2616   2621   2626   2626
                                                  2677   2677
 CPORVFLG      1 00000149 FFFFFFEC     R    2633  2637   2642   2647   2652   2657   2662   2667   2672
 CPORVWF       1 00000150 FFFFFFEC     R    2685  2689
 CPOSCANX      4 00000CA8 FFFFFFEC     F    5217  5284   5284
 CPR          11 0000000B 00000001 A   #    1090  1163U
 CPRACBAD     16 000001FC FFFFFFEC         2751  2785   2785   2786   2786
 CPRACF1       1 000001FC FFFFFFEC     R    2732  2736   2741   2746   2751   2756   2761   2766   2771   2787
 CPRACPSW     32 000001FC FFFFFFEC         2746  2784   2784   2786   2786
 CPRACUND     64 000001FC FFFFFFEC         2741  2784   2784   2785   2785
 CPRCVCUR      4 00000730 FFFFFFEC     A    4068  4070   4070
 CPRFDICT      4 000008AA FFFFFFEC         4387  8496
 CPRFEXT     128 000008AA FFFFFFEC         4362  8376
 CPRFJES      32 000008AA FFFFFFEC         4372  8424
 CPRFKEYS      8 000008AA FFFFFFEC         4382  8472
 CPRFKWR      16 000008AA FFFFFFEC         4377  8448
 CPRFLG        1 000008AA FFFFFFEC     R    4358  4362   4367   4372   4377   4382   4387   8361
 CPRFSUB      64 000008AA FFFFFFEC         4367  8400
 CPRGEXEC      4 0000077C FFFFFFEC     F    4152 25219  25462
 CPRG16       32 00000524 FFFFFFEC     X    3907 19351  19359  19582  19591  19775  20775  20781  20975  20981  21003
                                                 21129  21273  21279  21438  21444  21627  21634  21767  21773  21870
                                                 21917
 CPS         254 00000344 FFFFFFEC     X    3502  3505   3506   3508   3508  10513M
 CPSACCT       5 000003B4 FFFFFFEC     C    3101  3264   3264   9009M  9009   9027M  9027  13891M 13891
 CPSAMCOD      1 00000A22 FFFFFFEC     R    4554  4562   4572   4582   4591   4600   4609   4619   4628   4637
 CPSAMFLG      1 00000A21 FFFFFFEC     R    4514  4518   4523   4528   4533   4538   4543   4548   4659   4659
 CPSAVE        4 00000C9C FFFFFFEC     A    5211 11199
 CPSCNFLG      1 00000CD0 FFFFFFEC     R    5230  5241   5250   5261
 CPSCNF2       1 00000CD1 FFFFFFEC     R    5266  5270
 CPSCNMAX      1 00000014 FFFFFFEC A   U    5282  5283
 CPSCRI        2 00000434 FFFFFFEC     H    3491  3496   3496
 CPSEG        60 00000050 FFFFFFEC     X    2571  6870   7565   7611   7673   7707   8197   8789   8897   9597   9936
                                                  9951  10483  10606  10638  10682  10700  10731  10836  10920  11009
                                                 11242  11718  12084  12085  12085  12089  12109  12117  12275M 12345M
                                                 12423  15364  15382  15404  15451  17181  17203  19213  19655  19673
                                                 19699  19717  19744  19769  22413  22443  22482  22514  22545  24986
                                                 25004  25166  25167  25167  25171  25191  25199  25213  25236M 25409
                                                 25410  25410  25414  25434  25442  25456  25479M 25581  26819  27554
                                                 27572  27721
 CPSEGBP       4 00000048 FFFFFFEC     A    2480  9924
 CPSEGBSZ      2 0000004C FFFFFFEC     H    2481  9820
 CPSEGCOD      1 00000050 FFFFFFEC     R    2488  2497   2507   2517   2527   2537   2547   2557
 CPSEGLENF
               4 0000005C FFFFFFEC     A    2563 25225  25468
 CPSEGLOC      4 00000070 FFFFFFEC     A    2567 25226  25469
1COMM     (COMM4072) (12:40) (15MAR04) Ordinary Symbol and Literal Cross Reference                                          Page  131
 CPSEGMAXF
               4 00000054 FFFFFFEC     A    2561  9884M
 CPSEGRTN      4 00000074 FFFFFFEC     A    2568 12117M 12117  25199M 25199  25442M 25442
 CPSFL         1 00000384 FFFFFFEC     R    2839  2843   2848   2853   2858   2863
 CPSFLG        1 000003F8 FFFFFFEC     R    3379  3383   3388   3393   3398   3403   3408   3413   3418
 CPSFLG2       1 000003F9 FFFFFFEC     R    3424  3428   3433   3438
 CPSFL2        1 00000385 FFFFFFEC     R    2869  2873   2878   2883   2888
 CPSFL3        1 00000386 FFFFFFEC     R    2894  2898   2903   2908
 CPSFL4        1 00000387 FFFFFFEC     R    2914  2918   2923   2928
 CPSFL5        1 00000388 FFFFFFEC     R    2934  2938   2943   2948
 CPSFOPR      16 000003BE FFFFFFEC         3209 17098  17098
 CPSFSPR      32 000003BE FFFFFFEC         3204 17098  17098  17099
 CPSFUPL     128 000003F8 FFFFFFEC         3383  7633   9785
 CPSIB       256 00000344 FFFFFFEC     X    3508  9150M  9716
 CPSIDLE      14 00000434 FFFFFFEC     X    3496  9854M  9854
 CPSKAFL       1 000003BF FFFFFFEC     R    3235  3239   3244   3249   3254   3259
 CPSKIFL       1 000003BE FFFFFFEC     R    3190  3194   3199   3204   3209   3214   3219   3224   3229
 CPSOF         1 000001F8 FFFFFFEC     X    2722  2724   2724
 CPSOFLAG      1 00000416 FFFFFFEC     R    3449  3453   3458   3463   3468   3473
 CPSOPST       4 000003C4 FFFFFFEC     F    3269  3498   3498
 CPSOPT      126 000003C4 FFFFFFEC     X    3498 10470  10475
 CPSOUMX       2 000003FC FFFFFFEC     H    3443  9806
 CPSPORT       8 00000354 FFFFFFEC     C    2833  2953   2953
 CPSQFLG       1 000003EC FFFFFFEC     R    3298  3302
 CPSSFLG       1 000003BB FFFFFFEC     R    3108  3112   3117   3122   3127   3132   3137
 CPSSTART      4 00000344 FFFFFFEC     F    2825  2829   2829   3265   3265   3370   3370   3502   3502
 CPSSTAT       1 0000038F FFFFFFEC     R    3045  3049   3054   3059   3064   3069   3074   3079
 CPSTACF       1 000003BC FFFFFFEC     R    3143  3147   3152   3157   3162   3167   3172   3177   3182
 CPSTART       4 00000000 FFFFFFEC     C    2461  6155   6159
 CPSTCONS      1 0000038C FFFFFFEC         2967  7658
 CPSTFLAG      1 000003EA FFFFFFEC     R    3276  3280   3285   3290
 CPSTLNO       4 00000740 FFFFFFEC     F    4075  9802M
 CPSTYPE       1 0000038C FFFFFFEC     R    2958  2967   2977   2987   2997   3007   3017   3027   3037
 CPSUC         2 000003C4 FFFFFFEC     H    3270  9169  10458  10459M
 CPSUFLG       1 000003EE FFFFFFEC     R    3313  3317   3322   3327   3332   3337   3342   3347   3352
 CPSUFLG2      1 000003EF FFFFFFEC     R    3358  3362   3367
 CPSVPGM       8 0000039C FFFFFFEC     C    3091  3097   3097
 CPS1ST        4 0000038C FFFFFFEC     F    2955  3500   3500
 CPTEMPP#      1 0000005F FFFFFFEC A   U    4408  4410
 CPTRMFL1      1 00000C7A FFFFFFEC     R    5066  5070   5075   5080   5204   5204
 CPTRMFL2      1 00000C7B FFFFFFEC     R    5086  5090   5095   5100   5105   5110   5115
 CPTRMFL3      1 00000C7C FFFFFFEC     R    5121  5125   5130   5135   5140   5145   5150   5155
 CPTRMFL4      1 00000C7D FFFFFFEC     R    5161  5165   5170   5175   5180   5185   5190   5195
 CPUSED        1 00000FBC FFFFFFEC A   U    6155  6156
 CPVACURS      8 00000AF0 FFFFFFEC     D    4933  4934   4935
 CPVCURS       8 00000AE0 FFFFFFEC     D    4927  4928   4929
 CPVFCLR     128 00000AC9 FFFFFFEC         4762  7505M
 CPVFLAG       1 00000AC8 FFFFFFEC     R    4728  4732   4737   4742   4747   4752
 CPVFLAG2      1 00000AC9 FFFFFFEC     R    4758  4762   4767   4772   4777   4782   4787
 CPVFLAG3      1 00000ACA FFFFFFEC     R    4793  4797   4802   4807   4812   4817   4822
 CPVFLAG4      1 00000ACB FFFFFFEC     R    4828  4832   4837   4842
 CPVFPAGE    128 00000AC8 FFFFFFEC         4732  7501M  7527   8709  11769
 CPVFPEND     64 00000AC8 FFFFFFEC         4737  7490   7512M
 CPVFRTRY     16 00000AC9 FFFFFFEC         4777 11780M
 CPVFSPEC     32 00000AC8 FFFFFFEC         4742  8729
 CPVLFLAG      1 00000ACE FFFFFFEC     R    4897  4901   4906   4911
 CPVMODE       1 00000ACC FFFFFFEC     R    4850  4854   4859   4864   4869   4874   4879   4884   4889
 CPVMSG       80 00000AFC FFFFFFEC     C    4938  8698M
 CPVTWID       2 00000AD0 FFFFFFEC     H    4917  4920   4920
1COMM     (COMM4072) (12:40) (15MAR04) Ordinary Symbol and Literal Cross Reference                                          Page  132
 CPWCHAR      16 00000448 FFFFFFEC     C    3513  7312   7324M  8253
 CPWK1         4 00000D60 FFFFFFEC     F    5601  5616   5639
 CPWK2         4 00000D64 FFFFFFEC     F    5602  5617   5631
 CPWK3         4 00000D68 FFFFFFEC     F    5603  5618   5632
 CPWK4         4 00000D6C FFFFFFEC     F    5604  5619   5633
 CPWK5         4 00000D70 FFFFFFEC     F    5605  5621   5626   5634
 CPWK6         4 00000D74 FFFFFFEC     F    5606  5622   5627   5635   5642   5644
 CPWK7         4 00000D78 FFFFFFEC     F    5607  5620   5636
 CPXCMDP       4 000008C8 FFFFFFEC     A    4399  7024M  7024   7116   7185M  7185
 CPXFLAG       1 000007FD FFFFFFEC     R    4195  4199
 CPXSTATE      4 000007F8 FFFFFFEC     F    4189  4202   4202
 CPZERO      884 00000C48 FFFFFFEC     X    6151  9771M  9771   9772M  9772   9773M  9773   9774M  9774
 CTLSETI       1 00000002 FFFFFFE9 A   U    6460 10495
 CTLSNSI       1 00000001 FFFFFFE9 A   U    6459  9077
 CV         4016 00000000 FFFFFFEE     J    2364  1172U
 CVABORT       4 000007DA FFFFFFEE     I    2143 11097B 11785B 11842B
 CVABSENT      4 000007F0 FFFFFFEE     I    2153 11201B 17143B
 CVABSRTN      4 0000088C FFFFFFEE     V    2178  2153
 CVABTMSG      4 000007CC FFFFFFEE     I    2138 11131B 11578B 17832B 27809B
 CVBLANKS    235 000004D8 FFFFFFEE     C    1958  8698  14020  17631  18966  20297  20971  21436  21763  22428  22499
                                                 23490  24177  26206  26939
 CVBRMSK       1 00000751 FFFFFFEE     X    2094  2095   2096
 CVCFLAG       1 00000A00 FFFFFFEE     R    2259  2263   2268   2273   2278   2283
 CVCHKST       8 000009F0 FFFFFFEE     D    2249  2339   2339
 CVCHKST2      8 00000E28 FFFFFFEE     D    2342  2345   2345
 CVCOMRTN      4 0000087C FFFFFFEE     V    2174  2144
 CVCURJCB      4 000001C8 FFFFFFEE     A    1443  7349   7764   7881   8338  11728  12953  25096
 CVDBGFLG      1 000004CC FFFFFFEE     R    1948  1952
 CVENT         4 0000074C FFFFFFEE     I    2092  6830B  6919B  7092B  7291B  8317B 10069B 10219B 10288B 10353B 10429B
                                                 10571B 10784B 10965B 11064B 11174B 11318B 11412B 11484B 11677B 12021B
                                                 12464B 12532B 12643B 12713B 13707B 14746B 14808B 14870B 14932B 14993B
                                                 15125B 15248B 15593B 15660B 15724B 15788B 15882B 16155B 16457B 16829B
                                                 16895B 17049B 17563B 18245B 18316B 18384B 18504B 18619B 18685B 18745B
                                                 18805B 18915B 19328B 19478B 19921B 20030B 20119B 20255B 20682B 20898B
                                                 21241B 21391B 21606B 21718B 22067B 22191B 22664B 22730B 22801B 23120B
                                                 23719B 23814B 24090B 24527B 24818B 24879B 24946B 25075B 25622B 25928B
                                                 26138B 26413B 26718B 26779B 26875B 27146B 27453B 27514B 27659B 27782B
 CVENTBR       2 00000750 FFFFFFEE     I    2093  2094
 CVERRMSG      4 000007C8 FFFFFFEE     I    2137 10848B 10932B 11021B 11275B 11371B 11439B 15476B 15969B 17214B 17906B
                                                 18276B 19025B 19224B 20592B 20739B 20768B 25015B 26830B 27583B
 CVERROR       4 000007D6 FFFFFFEE     I    2142  2158B
 CVEXIRTN      4 0000077C FFFFFFEE     V    2122  2118
 CVFCHRKBPR
               8 000004C9 FFFFFFEE         1863  1879   1879
 CVFCHRKBSE
               4 000004C9 FFFFFFEE         1868  1879   1879
 CVFCHRKCPR
               2 000004C9 FFFFFFEE         1885  1901   1901
 CVFCHRKCSE
               1 000004C9 FFFFFFEE         1890  1901   1901
 CVFCHRUBPR
             128 000004C9 FFFFFFEE         1819  1835   1835
 CVFCHRUBSE
              64 000004C9 FFFFFFEE         1824  1835   1835
 CVFCHRUCPR
              32 000004C9 FFFFFFEE         1841  1857   1857
 CVFCHRUCSE
              16 000004C9 FFFFFFEE         1846  1857   1857
 CVFL          1 000004C4 FFFFFFEE     R    1615  1619   1624   1629   1634   1639   1644   1649   1654
1COMM     (COMM4072) (12:40) (15MAR04) Ordinary Symbol and Literal Cross Reference                                          Page  133
 CVFL2         1 000004C5 FFFFFFEE     R    1660  1664   1669   1674   1679   1684   1689   1694   1699
 CVFL3         1 000004C6 FFFFFFEE     R    1705  1709   1714   1719   1724   1729   1734   1739   1744
 CVFL4         1 000004C7 FFFFFFEE     R    1750  1754   1759   1764   1769   1774   1779   1784
 CVFL5         1 000004C8 FFFFFFEE     R    1790  1794   1799   1804   1809
 CVFL6         1 000004C9 FFFFFFEE     R    1815  1819   1824   1836   1841   1846   1858   1863   1868   1880   1885
                                                  1890   1902
 CVFPUSR      32 000004C6 FFFFFFEE         1719  7464
 CVHEAP        4 00000280 FFFFFFEE     A    1523 10136
 CVHEAP#       1 00000200 FFFFFFEE A   U    1521  1522
 CVHEAPE       4 00000284 FFFFFFEE     A    1524 10154
 CVINVRTN      4 00000888 FFFFFFEE     V    2177  2147
 CVJESFLG      1 000004CA FFFFFFEE     R    1908  1912
 CVLNKRGS      4 00000780 FFFFFFEE     F    2124  2099M  2125   6978M  9097M 10108M 10897M 20807M 21025M 21151M 21892M
                                                 23417M 23870M 23978M
 CVLNKRTN      4 000007B0 FFFFFFEE     U    2125  2114M
 CVLOCK1       1 00000088 FFFFFFEE     R    1266  1270   1275
 CVLOCK2       1 00000089 FFFFFFEE     R    1280  1284
 CVLOCK3       1 0000008A FFFFFFEE     R    1289  1293
 CVLOCK4       1 0000008B FFFFFFEE     R    1298  1302
 CVLOGMOD      1 00000068 FFFFFFEE     R    1253  1257
 CVMACH        1 00000067 FFFFFFEE     R    1213  1217   1222   1227   1232   1237   1242   1247
 CVMILERR      4 000007F6 FFFFFFEE     I    2156 10500B
 CVMILRTN      4 00000884 FFFFFFEE     V    2176  2156
 CVNCOM        4 000008DC FFFFFFEE     F    2197 12763  12764M
 CVNCOME       4 000008E0 FFFFFFEE     F    2198 12790  12791M
 CVNEXT        4 000007DE FFFFFFEE     I    2144  7438B  8018B  8158B  8759B 11786B 13607B 16850B 17370B 18071B 19267B
                                                 19774B 19789B 22146B 22563B 24472B 25878B 26093B 26364B 27095B 27726B
 CVNOARTN      4 00000890 FFFFFFEE     V    2179  2150
 CVNWDATE      4 00000608 FFFFFFEE     F    1981  1985   1985
 CVNWMPG#      1 00000008 FFFFFFEE A   U    1983  1984
 CVNXTMSG      4 000007D0 FFFFFFEE     I    2139 22271B
 CVONE         4 000004D0 FFFFFFEE     F    1956 18448
 CVPFXRTN      1 00000000 00000000 A   T    2122  2122
 CVPGFLAG      1 00000A01 FFFFFFEE     R    2289  2293   2298   2303
 CVPIOSZ       1 00004F80 FFFFFFEE A   U    1352  1354
 CVPPDBQH      4 0000009C FFFFFFEE     A    1310  1311
 CVPSFNO       1 000003E9 FFFFFFEE A   N    1474  1476
 CVPSLNO       1 000007CF FFFFFFEE A   N    1475  1476
 CVPXSZ        1 00000008 FFFFFFEE A   U    1353  1354
 CVR          12 0000000C 00000001 A   #    1103  1172U
 CVRKEY        1 00000008 FFFFFFEE A   U    2047  2048
 CVSEGRTN      4 00000880 FFFFFFEE     V    2175  2139
 CVSTACK       4 00000274 FFFFFFEE     A    1516  9743   9886   9996  10017
 CVSTACK#      1 00000080 FFFFFFEE A   U    1513  1514
 CVSTACKE      4 00000278 FFFFFFEE     A    1517 10817
 CVSTART       4 00000000 FFFFFFEE     C    1186  2357
 CVTRC         4 00000768 FFFFFFEE     I    2114  2100B  6979B  9098B 10109B 10898B 20808B 21026B 21152B 21893B 23418B
                                                 23871B 23979B
 CVTRCRTN      4 00000778 FFFFFFEE     V    2121  2115
 CVUPPTBL      4 000008A8 FFFFFFEE     V    2184 23273
 CVUSFNO       1 00000001 FFFFFFEE A   N    1481  1483
 CVUSLNO       1 000003E7 FFFFFFEE A   N    1482  1483
 CVVOL#        1 00000005 FFFFFFEE A   U    2332  2333
 CVWTOFLG      1 000004CB FFFFFFEE     R    1918  1922   1927   1932   1937   1942
 CVWTOFUPFX
              32 000004CB FFFFFFEE         1932 17232  17232  17233M 17288  17288  17289M
 CVWTOFWTL
             128 000004CB FFFFFFEE         1922 17232  17232  17288  17288
 CVWTOSGP      4 00000748 FFFFFFEE     V    2081 17253  17275
1COMM     (COMM4072) (12:40) (15MAR04) Ordinary Symbol and Literal Cross Reference                                          Page  134
 CVWYLSSN      8 00000028 FFFFFFEE     C    1198 10996  11001
 DABBRREC    528 00000000 FFFFFFDA     X   21687 21748
 DABBRWA     528 00000000 FFFFFFDA     J   21694 21715  21744U 21959  21961  21962
 DCLOSE        1 00000000 00000017     T    9698  9698
 DCMDAREA    940 00000220 FFFFFFDD     X   20224 20558  20565  20600
 DCMDREC     544 00000000 FFFFFFDD     X   20223 20285
 DCMDWA     1484 00000000 FFFFFFDD     J   20231 20252  20281U 20635  20637  20638
 DEBUGSG       1 00000000 00000000 A   T    2075  2075
 DECIDE        2 00004D28 00000001     H   27645 27641  30043
 DECLARE       1 00000000 000000A5     T   29247 29247  29262
 DEFAPPDA      4 00000008 FFFFFFE0     A   17529 17645M 17645  17997  18574M
 DEFAPPDL      4 0000001C FFFFFFE2     F   17451 17998  18575M 19722  20756  20784  21301
 DEFASPRT      4 000024E0 00000001     F   18108 19403
 DEFCDONE      2 00002EE8 00000001     H   20615 20608B
 DEFCMD        2 00002D42 00000001     H   20239 13648  27614
 DEFDATA     528 00000010 FFFFFFE2     X   17437 17438  19592  19593  19776  19777  20785  20787  21280  21281
 DEFFABBR     64 00000000 FFFFFFE0        17524 17922  17948M 18055  18645M
 DEFFLAG       1 00000000 FFFFFFE0     R   17515 17519  17524
 DEFFLAGS      1 00000010 FFFFFFE2     R   17441 17445  17621M
 DEFFSET     128 00000000 FFFFFFE0        17519 17890  18460M
 DEFINE        2 000022FA 00000001     H   17547 17543
 DEFINE        1 00000000 00000096     T   28932 28932
 DEFINFO     544 0000000C FFFFFFE0     X   17530 17603
 DEFNAME      16 00000000 FFFFFFE2     C   17436 17631M 17796  17803  17820  17936  18061  18966M 19142  19149  19198
                                                 19205  19257  19590M 19594  19623  19640  19647  19778  20297M 20402
                                                 20409  20432  20788  21282
 DEFNOTRM    128 00000010 FFFFFFE2        17445 18831M 20540
 DEFRECD     544 00000000 FFFFFFE2     J   17459 17530  17611U 17628M 17628  17629M 17629  17630M 17630  18039  18882
                                                 18953U 18963M 18963  18964M 18964  18965M 18965  19156  19172  19229
                                                 19445  19526U 20223  20293U 20416  20438  20711U 21270U
 DEFTEXT     256 00000020 FFFFFFE2     C   17452 17983M 17995  19679  19724  20782  21298
 DEFTEXTA      4 00000004 FFFFFFE0     A   17528 17638M 17638  17955  18453M
 DEFTEXTL      4 00000018 FFFFFFE2     F   17450 17956  17996  18454M 19678  19723  20727  20783  21299
 DEFWA       556 00000000 FFFFFFE0     J   17537 17560  17589U 17593  17601U 18096  18098  18099
 DELABBR       2 00003212 00000001     H   21702 19413
 DELDEF        2 000031CE 00000001     H   21592 19412
 DELETE        1 00000000 0000009D     T   29052 29052
 DENQFREE      1 00000000 00000016     T    9697  9697
 DEQUOTE       1 00000000 00000046     T   19407 19407
 DEV          12 00000000 FFFFFFEB     J    4713  4721
 DEVMAX#       1 00000002 FFFFFFEC A   U    4664  4721
 DEVTYPE       1 00000001 FFFFFFEB     R    4681  4690   4700
 DICTCLS       1 00000000 00000015     T    9696  9696
 DOTTBL        1 00000000 00000000 A   T    2191  2191
 DOWNLOAD      1 00000000 000000C5     T   30299 30299
 DRENCFLG      1 00000F9F FFFFFFEC     R    6119  6123   6128   6133   6138   6143
 DRENPROT      1 00000F9E FFFFFFEC     R    6106  6114
 DSNON        40 00000E90 FFFFFFEC     C    5839  5840
 DSNWADSN     44 00000E5C FFFFFFEC     C    5826  5827   5828   5829   5838   5846   6077   6083   6085   6091   6094
                                                  6096   6099   6148
 DSNWAF4       1 00000F37 FFFFFFEC     R    5894  5898   5903   5908   5913   5918   5923   5928   5933
 DSNWAF5       1 00000F38 FFFFFFEC     R    5939  5943   5948   5953   5958   5963   5968   5973   5978
 DSNWAF6       1 00000F39 FFFFFFEC     R    5984  5988   5993   5998   6003   6008   6013   6018   6023
 DSNWAF7       1 00000F3A FFFFFFEC     R    6029  6033   6038   6043   6048
 DSNXG         1 00000004 FFFFFFEC A   U    5831  5833
 DSNXGL        1 00000003 FFFFFFEC A   U    5832  5833
 DSNXU         1 00000007 FFFFFFEC A   U    5833  5835
 DSNXUL        1 00000004 FFFFFFEC A   U    5834  5835
 DSSIZ         1 00000108 FFFFFFEC A   U    6077  6085   6094   6099
1COMM     (COMM4072) (12:40) (15MAR04) Ordinary Symbol and Literal Cross Reference                                          Page  135
 DTB           1 00000000 00000054     T   24051 24051
 DUMP          1 00000000 00000060     T   27986 27986  28001
 EBCTBL        1 00000000 00000000 A   T    2187  2187
 EBCTBL7       1 00000000 00000000 A   T    2190  2190
 ECBLIST       1 00000000 00000000 A   T    2050  2050
 EDIT          1 00000000 00000084     T   28632 28632
 EDTBASE       2 0000112E 00000001     H   12699 13636
 EDTCOM        2 000010FA 00000001     H   12629  7259  12415  12625  16997
 EDTCOMMV      2 000010B4 00000001     H   12518  8265  12514
 EDTCOMNH      2 0000107E 00000001     H   12450 12418  12446
 ELSE          1 00000000 00000071     T   28271 28271
 ELSEIF        1 00000000 00000072     T   28286 28286
 END           1 00000000 0000006F     T   28241 28241
 EPARTBL       1 00000000 00000000 A   T    2182  2182
 EVALSTR       1 00000000 00000033     T   12416 12416
 EVALUATE      1 00000000 000000C0     T   30179 30179
 EXCHANGE      1 00000000 0000008B     T   28752 28752
 EXECABRT      1 00000000 0000002A     T    9723  9723
 EXECUTE       1 00000000 00000062     T   28031 28031
 EXTCLOSE      1 00000000 00000010     T    9691  9691
 FETCH         1 00000000 0000009E     T   29067 29067
 FMTTIME       1 00000000 00000051     T   24044 24044
 FREECORE      1 00000000 00000005     T    7258  7258  24054
 FREEHCMD      2 000038FC 00000001     H   23800 16974  24050
 FSR           0 00000000 00000001 A   #    1013  6825   6893M  6914   7060M  7087   7235M  7286   8239M  8312   9670M
                                                 10064  10171M 10186M 10214  10255M 10283  10324M 10348  10395M 10424
                                                 10532M 10566  10750M 10779  10867M 10960  11036M 11059  11146M 11169
                                                 11290M 11313  11386M 11407  11454M 11479  11642M 11672  11869M 12015
                                                 12366M 12459  12506M 12527  12617M 12638  12688M 12708  13622M 13701
                                                 14629M 14741  14783M 14803  14845M 14865  14907M 14927  14969M 14988
                                                 15085M 15120  15218M 15243  15491M 15588  15619M 15635M 15655  15683M
                                                 15699M 15719  15747M 15763M 15783  15811M 15827M 15876  16098M 16149
                                                 16309M 16451  16798M 16824  16865M 16890  16952M 17044  17385M 17557
                                                 18096M 18240  18291M 18311  18359M 18379  18479M 18499  18594M 18614
                                                 18660M 18680  18720M 18740  18780M 18800  18846M 18909  19288M 19323
                                                 19384M 19472  19814M 19916  20003M 20025  20092M 20114  20178M 20249
                                                 20635M 20677  20834M 20892  21193M 21236  21308M 21323M 21385  21561M
                                                 21601  21659M 21712  21959M 22062  22161M 22186  22578M 22659  22690M
                                                 22705M 22725  22753M 22768M 22796  23059M 23114  23669M 23689M 23714
                                                 23782M 23809  24023M 24085  24487M 24522  24610M 24813  24854M 24874
                                                 24921M 24941  25030M 25070  25535M 25617  25893M 25923  26108M 26133
                                                 26379M 26408  26496M 26713  26754M 26774  26845M 26870  27110M 27141
                                                 27229M 27448  27489M 27509  27598M 27654  27741M 27777  27824M
 GBLBUF      235 00000044 FFFFFFE7     X   11973 12062  12067  12305
 GBLCMD        2 00000DE6 00000001     H   12005 12001  16982
 GBLREG01      4 00000000 FFFFFFE7     F   11884 12051M 12119
 GBLRES      235 0000012F FFFFFFE7     X   11974 12120  12121
 GBLSG        60 00000008 FFFFFFE7     X   11972 12075  12185  12215  12261
 GBLSGCOD      1 00000008 FFFFFFE7     R   11889 11898  11908  11918  11928  11938  11948  11958
 GBLSGLENF
               4 00000014 FFFFFFE7     A   11964 12277
 GBLWA       538 00000000 FFFFFFE7     J   11981 12018  12047U 12366  12368  12369
 GETCORE       1 00000000 00000052     T   24048 24048
 GETDATA       1 00000000 00000057     T   25577 25577
 GETEXCMD      1 00000000 00000004     T    7254  7254
 GETHCMD       2 00003786 00000001     H   23104 12408  23100
 GETHEAP       2 000008E8 00000001     H   10055 10051
 GETHEXIT      4 000038AA 00000001     I   23669 23260B 23484B 23642B
 GETHLOOP      4 0000389A 00000001     I   23648 23457B
1COMM     (COMM4072) (12:40) (15MAR04) Ordinary Symbol and Literal Cross Reference                                          Page  136
 GETHMAT     235 00000002 FFFFFFD8     X   23087 23303M 23323M 23598
 GETHNO        2 00000000 FFFFFFD8     H   23086 23156M 23156  23360M 23436M 23436  23454
 GETHNONE      4 000038A2 00000001     I   23660 23225B
 GETHTEXT    235 000000ED FFFFFFD8     X   23088 23490M 23538M 23558M 23598
 GETHWA      472 00000000 FFFFFFD8     J   23095 23117  23146U 23689  23691  23692
 GETTCMD       2 0000016A 00000001     H    7277  7256
 GETXCCMD      2 000000CA 00000001     H    7078  7255
 GOTABBR       2 000031AC 00000001     H   21527 21517B
 GOTO          1 00000000 0000006B     T   28181 28181
 GUESS         1 00000000 00000086     T   28677 28677
 HCMD         23 00000000 FFFFFFD9     J   22040 22341U 22390U 22889U 22900M 22900  22990M 23235U 23392U 23844U 23878M
                                                 23913M 23952M 24057
 HCMDCLCK      4 0000000C FFFFFFD9     F   22029 22448  22906M
 HCMDID        3 00000000 FFFFFFD9     C   22022 22901M 23408  23861
 HCMDLEN       1 00000016 FFFFFFD9     X   22032 22537  22907M 23255  23479  23496  23637  23994
 HCMDNEXT      4 00000008 FFFFFFD9     A   22028 22551  22990M 23896  23913M 23913  23921  23988M
 HCMDNO        2 00000014 FFFFFFD9     H   22031 22398  22953M 23454
 HCMDPREV      4 00000004 FFFFFFD9     A   22027 22347  22991M 23648  23882  23935  23952M 23952  23987M
 HCMDTEXT    235 00000017 FFFFFFD9     C   22033 22529  22934M 23087  23088  23247  23471  23538  23629  24047
 HELP          1 00000000 000000BE     T   30058 30058  30073  30088
 HIBAL         1 00000000 FFFFFFFF     J     691   707    720    733    746    759    772    785    798    811    824
                                                   837    850    863    876    889    902
 HOLDATN       1 00000000 00000034     T   13643 13643
 IF            1 00000000 00000059     T   27866 27866
 IMPLIED       1 00000000 000000EB     T   31019 31019
 INITCMD       2 000007EA 00000001     H    9739  7253   9738  12412  13640
 INITPCMD      1 00000000 00000008     T    8257  8257
 INITSTK       2 000008B8 00000001     H    9992  9991  12403
 INSERT        1 00000000 0000009F     T   29112 29112  29127
 INVALID       2 00000C04 00000001     H   11160 11156
 INVALID       1 00000000 00000000 A   T    2177  2177
 JCB         208 00000000 FFFFFFE8     J    6777  7359U  7774U  8346U 11738U 12963U 25104U
 JCBACCT       5 0000004A FFFFFFE8     C    6539  8996M  8996
 JCBAFALO    128 00000062 FFFFFFE8         6626  7370M
 JCBAFL        1 00000062 FFFFFFE8     R    6622  6626   6631   6636   6641   6646   6651   6656   6661
 JCBBFL        1 00000063 FFFFFFE8     R    6667  6671   6676   6681   6686   6691   6696   6701
 JCBBFSIB     64 00000063 FFFFFFE8         6676  9064   9168M
 JCBBILLX      8 00000088 FFFFFFE8     D    6752  6760   6760
 JCBFATTN      2 00000062 FFFFFFE8         6656  7785M  9204   9274M  9320   9472   9540  11750M 25133
 JCBRSCF1      1 00000064 FFFFFFE8     R    6707  6711   6716   6721
 JCBSFLG1      1 00000065 FFFFFFE8     R    6727  6731   6736
 JCBSFMIC     64 00000065 FFFFFFE8         6736  7792M
 JCBSUC        2 00000052 FFFFFFE8     H    6543  9169M
 JCBWFL        1 00000060 FFFFFFE8     R    6551  6555   6560   6565   6570   6575   6580   6585   6590   6618
 JCBWWFL       1 00000061 FFFFFFE8     R    6596  6600   6605   6610   6615
 JESCMD        1 00000000 00000091     T   28857 28857  29082  29097  29472  29502  29517  29532  29547  29562  29577
 JESICLS       1 00000000 00000012     T    9693  9693
 JESOCLS       1 00000000 00000011     T    9692  9692
 JESSND        1 00000000 0000003E     T   16977 16977
 JOIN          1 00000000 00000089     T   28722 28722
 JUNKHEAP      2 000009B6 00000001     H   10339  9709
 KERCMD       28 00002046 00000001     C   16959 16916  16916  17010
 KERMIT        2 00002002 00000001     H   16881 16877  30314
 KILL          1 00000000 000000D4     T   30569 30569
 KRSCFREE      1 00000000 00000014     T    9695  9695
 KWRFREE       1 00000000 00000013     T    9694  9694
 LASTLINE      1 00000000 0000001D     T    9705  9705
 LEARN         1 00000000 00000087     T   28692 28692
 LINEMOD       1 00000000 00000032     T   12414 12414
1COMM     (COMM4072) (12:40) (15MAR04) Ordinary Symbol and Literal Cross Reference                                          Page  137
 LIST          1 00000000 0000006C     T   28196 28196
 LMSGCHK       1 00000000 00000019     T    9700  9700
 LOCALTOD      1 00000000 00000053     T   24049 24049  27838
 LOGOFF        1 00000000 000000A8     T   29367 29367  29382  29397
 LOGON         1 00000000 000000A9     T   29412 29412  29427  29442
 LOWTBL        1 00000000 00000000 A   T    2185  2185
 LRTRIM        1 00000000 00000043     T   17400 17400  21994  24046
 LSR           8 00000008 00000001 A   #    1051  6825   6893M  6914   7060M  7087   7235M  7286   8239M  8312   9670M
                                                 10064  10186M 10214  10255M 10283  10324M 10348  10395M 10424  10532M
                                                 10566  10750M 10779  10867M 10960  11036M 11059  11146M 11169  11290M
                                                 11313  11386M 11407  11454M 11479  11642M 11672  11869M 12015  12366M
                                                 12459  12506M 12527  12617M 12638  12688M 12708  13622M 13701  14629M
                                                 14741  14783M 14803  14845M 14865  14907M 14927  14969M 14988  15085M
                                                 15120  15218M 15243  15491M 15588  15635M 15655  15699M 15719  15763M
                                                 15783  15827M 15876  16098M 16149  16309M 16451  16798M 16824  16865M
                                                 16890  16952M 17044  17385M 17557  18096M 18240  18291M 18311  18359M
                                                 18379  18479M 18499  18594M 18614  18660M 18680  18720M 18740  18780M
                                                 18800  18846M 18909  19288M 19323  19384M 19472  19814M 19916  20003M
                                                 20025  20092M 20114  20178M 20249  20635M 20677  20834M 20892  21193M
                                                 21236  21323M 21385  21561M 21601  21659M 21712  21959M 22062  22161M
                                                 22186  22578M 22659  22705M 22725  22768M 22796  23059M 23114  23689M
                                                 23714  23782M 23809  24023M 24085  24487M 24522  24610M 24813  24854M
                                                 24874  24921M 24941  25030M 25070  25535M 25617  25893M 25923  26108M
                                                 26133  26379M 26408  26496M 26713  26754M 26774  26845M 26870  27110M
                                                 27141  27229M 27448  27489M 27509  27598M 27654  27741M 27777  27824M
 MACBUF      235 00000044 FFFFFFE3     C   16417 16520  16525  16740
 MACCB        60 00000008 FFFFFFE3     X   16415 16533  16550  16578  16595  16676  16702
 MACCBCOD      1 00000008 FFFFFFE3     R   16332 16341  16351  16361  16371  16381  16391  16401
 MACCBLENF
               4 00000014 FFFFFFE3     A   16407 16712  16765
 MACNAME       8 00000000 FFFFFFE3     C   16327 16499  16506  16565  16570
 MACOLD        2 00001E1A 00000001     H   16139 16987
 MACONAME      8 00000000 FFFFFFE4     C   16124 16196  16203  16262
 MACOWA        8 00000000 FFFFFFE4     J   16131 16152  16181U 16309  16311  16312
 MACRO         2 00001ED6 00000001     H   16441 16437
 MACROCMD     47 00001EA6 00000001     C   16316 16261  16261  17009
 MACROMEM      1 00000013 00000001 A   U   16317 16262M
 MACWA       303 00000000 FFFFFFE3     J   16424 16454  16483U 16798  16800  16801
 MAIL          1 00000000 000000B6     T   29863 29863  29878
 MALL          1 00000000 0000003B     T   14725 14725  15572  18224  19897  22643  24796  26696  27431  31033
 MARKHEAP      2 0000095E 00000001     H   10205 10201
 MCLOSE        1 00000000 000000D1     T   30524 30524
 MICRO         1 00000000 000000B8     T   29908 29908
 MILERR        2 00000A44 00000001     H   10557 10553
 MILERR        1 00000000 00000000 A   T    2176  2176
 MIMPLIED      1 00000000 000000EA     T   31018 31018
 MINT          1 00000000 00000050     T   22598 22598
 MNULL         1 00000000 00000045     T   18119 18119
 MODIFY        1 00000000 00000083     T   28617 28617
 MONCMD        1 00000000 00000003     T    7252  7252
 MOPEN         1 00000000 000000D0     T   30509 30509
 MOVE          1 00000000 000000A0     T   29142 29142
 MPARM         1 00000000 0000003C     T   15512 15512  15527  15542  15557  18134  18149  19837  19852  19867
 MTOKEN        1 00000000 0000003A     T   14650 14650  14665  14680  14695  14710  18164  18179  18194  18209  22613
                                                 24631  24646  24661  24676  24691  24706  24721  24736  24751  24766
                                                 24781  26516  26531  26546  26561  26576  26591  26606  26621  26636
                                                 26651  26666  26681  27251  27266  27281  27296  27311  27326  27341
                                                 27356  27371  27386  27401  27416  27865  27880  27895  27910  27925
                                                 27940  27955  27970  27985  28000  28015  28030  28045  28060  28075
1COMM     (COMM4072) (12:40) (15MAR04) Ordinary Symbol and Literal Cross Reference                                          Page  138
                                                 28090  28105  28120  28135  28150  28165  28180  28195  28210  28225
                                                 28240  28255  28270  28285  28300  28315  28330  28345  28360  28375
                                                 28390  28406  28421  28436  28451  28466  28481  28496  28511  28526
                                                 28541  28556  28571  28586  28601  28616  28631  28646  28661  28676
                                                 28691  28706  28721  28736  28751  28766  28781  28796  28811  28826
                                                 28841  28856  28871  28886  28901  28916  28931  28946  28961  28976
                                                 28991  29006  29021  29036  29051  29066  29081  29096  29111  29126
                                                 29141  29156  29171  29186  29201  29216  29231  29246  29261  29276
                                                 29291  29306  29321  29336  29351  29366  29381  29396  29411  29426
                                                 29441  29456  29471  29486  29501  29516  29531  29546  29561  29576
                                                 29591  29606  29621  29636  29651  29666  29681  29696  29711  29726
                                                 29742  29757  29772  29787  29802  29817  29832  29847  29862  29877
                                                 29892  29907  29922  29937  29952  29967  29982  29997  30012  30027
                                                 30042  30057  30072  30087  30103  30118  30133  30148  30163  30178
                                                 30193  30208  30223  30238  30253  30268  30283  30298  30313  30328
                                                 30343  30358  30373  30388  30403  30418  30433  30448  30463  30478
                                                 30493  30508  30523  30538  30553  30568  30583  30598  30613  30628
                                                 30643  30658  30673  30688  30703  30718  30733  30748  30763  30778
                                                 30793  30808  30823  30838  30853  30868  30883  30898  30913  30928
                                                 30943  30958  30973  30988  31003
 NBLTBL        1 00000000 00000000 A   T    2189  2189
 NETCMD        2 00001A1E 00000001     H   15111 13646  25566
 NOACTION      2 00000BB8 00000001     H   11050 11046
 NOACTION      1 00000000 00000000 A   T    2179  2179
 NODEFINE      2 00002EE4 00000001     H   20611 20365B 20385B 20437B
 NOMORPG       2 00000B6C 00000001     H   10951 10947
 NOTABBR       2 000031B8 00000001     H   21536 21452B 21524B
 NOTVALID      1 00000000 0000003D     T   16976 16976  17399  19400  19898  22644  24038
 NOTYET        2 00004E4A 00000001     H   27768 27764  28376  30013  30028  30119  30134  30209  30239
 NOWSEG        4 00000C34 00000001     I   11206 11202B
 NPARTBL       1 00000000 00000000 A   T    2183  2183
 NSCAN         1 00000000 00000037     T   13649 13649  16979  19398  21982  24037  25567  27616
 NSCNCB      176 00000000 FFFFFFED     J    2448  2574   9909  12223  12224  13279  13305M 13306M 13395M 13396M 13439M
                                                 13440M 13466  13468  13479  13480  13481  13484M 13485M 13486M 13496M
                                                 13497M 13498M 13503  13504  13530  13541  13563M 13564M 13579  13580
                                                 13581  13584M 13585M 13587M 13597M 13598M 13599M 13654  13771  13786
                                                 13801  13802  13803M 13803  13804  13805M 13818M 13826  13827  13930
                                                 13945  13960  13961  13962M 13962  13963  13964M 13977M 13985  13986
                                                 14040M 14041M 14056  14057  14058  14061M 14062M 14064M 14074M 14075M
                                                 14076M 14097  14098  14099  14102M 14103M 14104M 14114M 14115M 14116M
                                                 14126  14343M 14344M 14359  14360  14361  14364M 14365M 14366M 14376M
                                                 14377M 14378M 14397  14547M 14548M 14563  14564  14565  14568M 14569M
                                                 14570M 14580M 14581M 14582M 15018  15033  15048  15049  15050M 15050
                                                 15051  15052M 15065M 15183M 15184M 15286M 15287M 15302  15303  15304
                                                 15307M 15308M 15310M 15320M 15321M 15322M 15922  15923  15924  15927M
                                                 15928M 15929M 15939M 15940M 15941M 16001  16002  16211  16212  16604
                                                 16605  17122  17123  17658  17659  17660  17663M 17664M 17665M 17675M
                                                 17676M 17677M 17848  17849  17850  17853M 17854M 17856M 17866M 17867M
                                                 17868M 18979  18980  18981  18984M 18985M 18986M 18996M 18997M 18998M
                                                 19553  19554  19555  19558M 19559M 19561M 19571M 19572M 19573M 20317M
                                                 20318M 20333  20334  20335  20338M 20339M 20340M 20350M 20351M 20352M
                                                 20485M 20486M 20501  20502  20503  20506M 20507M 20508M 20518M 20519M
                                                 20520M 20525  20526  22099  22100  22101  22104M 22105M 22106M 22116M
                                                 22117M 22118M 22223  22224  22225  22228M 22229M 22231M 22241M 22242M
                                                 22243M 24194  24195  24214M 24215M 24365  24367  24378  24379  24380
                                                 24383M 24384M 24385M 24395M 24396M 24397M 24402  24403  24429  24445
                                                 24446  24447  24450M 24451M 24453M 24463M 24464M 24465M 24551  24553
                                                 24564  24565  24566  24569M 24570M 24572M 24582M 24583M 24584M 24591
                                                 25579  25649  25650  25717M 25718M 25784M 25785M 25827M 25828M 25850
1COMM     (COMM4072) (12:40) (15MAR04) Ordinary Symbol and Literal Cross Reference                                          Page  139
                                                 25851  25852  25855M 25856M 25858M 25868M 25869M 25870M 25955  25956
                                                 26023M 26024M 26065  26066  26067  26070M 26071M 26073M 26083M 26084M
                                                 26085M 26224  26225  26244M 26245M 26256  26258  26269  26270  26271
                                                 26274M 26275M 26276M 26286M 26287M 26288M 26293  26294  26320  26336
                                                 26337  26338  26341M 26342M 26344M 26354M 26355M 26356M 26437  26439
                                                 26450  26451  26452  26455M 26456M 26458M 26468M 26469M 26470M 26477
                                                 26956  26957  26976M 26977M 26988  26990  27001  27002  27003  27006M
                                                 27007M 27008M 27018M 27019M 27020M 27025  27026  27052  27068  27069
                                                 27070  27073M 27074M 27076M 27086M 27087M 27088M 27170  27172  27183
                                                 27184  27185  27188M 27189M 27191M 27201M 27202M 27203M 27210  27627
 NSCNFLGS      1 00000008 FFFFFFED     R    2385  2389   2394
 NSCNKWS       4 00000028 FFFFFFED     A    2434 13479  13486M 13496M 13579  13587M 13597M 14056  14064M 14074M 14097
                                                 14104M 14114M 14359  14366M 14376M 14563  14570M 14580M 15302  15310M
                                                 15320M 15922  15929M 15939M 17658  17665M 17675M 17848  17856M 17866M
                                                 18979  18986M 18996M 19553  19561M 19571M 20333  20340M 20350M 20501
                                                 20508M 20518M 22099  22106M 22116M 22223  22231M 22241M 24378  24385M
                                                 24395M 24445  24453M 24463M 24564  24572M 24582M 25850  25858M 25868M
                                                 26065  26073M 26083M 26269  26276M 26286M 26336  26344M 26354M 26450
                                                 26458M 26468M 27001  27008M 27018M 27068  27076M 27086M 27183  27191M
                                                 27201M
 NSCNLEN       4 00000004 FFFFFFED     F    2382 12224  13306M 13396M 13440M 13504  13564M 13804  13805M 13827  13963
                                                 13964M 13986  14041M 14344M 14548M 15051  15052M 15184M 15287M 16002
                                                 16212  16605  17123  20318M 20486M 20526  24195  24215M 24403  25650
                                                 25718M 25785M 25828M 25956  26024M 26225  26245M 26294  26957  26977M
                                                 27026
 NSCNLOC       4 00000000 FFFFFFED     A    2381 12223  13305M 13395M 13439M 13503  13563M 13801  13803M 13826  13960
                                                 13962M 13985  14040M 14343M 14547M 15048  15050M 15183M 15286M 16001
                                                 16211  16604  17122  20317M 20485M 20525  24194  24214M 24402  25649
                                                 25717M 25784M 25827M 25955  26023M 26224  26244M 26293  26956  26976M
                                                 27025
 NSCNSKIP      4 00000024 FFFFFFED     A    2433 13480  13484M 13497M 13580  13584M 13598M 14057  14061M 14075M 14098
                                                 14102M 14115M 14360  14364M 14377M 14564  14568M 14581M 15303  15307M
                                                 15321M 15923  15927M 15940M 17659  17663M 17676M 17849  17853M 17867M
                                                 18980  18984M 18997M 19554  19558M 19572M 20334  20338M 20351M 20502
                                                 20506M 20519M 22100  22104M 22117M 22224  22228M 22242M 24379  24383M
                                                 24396M 24446  24450M 24464M 24565  24569M 24583M 25851  25855M 25869M
                                                 26066  26070M 26084M 26270  26274M 26287M 26337  26341M 26355M 26451
                                                 26455M 26469M 27002  27006M 27019M 27069  27073M 27087M 27184  27188M
                                                 27202M
 NSCNSTOP      4 00000020 FFFFFFED     A    2432 13481  13485M 13498M 13581  13585M 13599M 14058  14062M 14076M 14099
                                                 14103M 14116M 14361  14365M 14378M 14565  14569M 14582M 15304  15308M
                                                 15322M 15924  15928M 15941M 17660  17664M 17677M 17850  17854M 17868M
                                                 18981  18985M 18998M 19555  19559M 19573M 20335  20339M 20352M 20503
                                                 20507M 20520M 22101  22105M 22118M 22225  22229M 22243M 24380  24384M
                                                 24397M 24447  24451M 24465M 24566  24570M 24584M 25852  25856M 25870M
                                                 26067  26071M 26085M 26271  26275M 26288M 26338  26342M 26356M 26452
                                                 26456M 26470M 27003  27007M 27020M 27070  27074M 27088M 27185  27189M
                                                 27203M
 NSCNTLEN      4 00000014 FFFFFFED     F    2400 13771  13818M 13930  13977M 15018  15065M
 NSCNTLOC      4 00000010 FFFFFFED     A    2399 13786  13802  13803  13945  13961  13962  15033  15049  15050
 NSCNTOK      16 00000030 FFFFFFED     C    2436 14126  14397
 NSCNTYPE      1 00000018 FFFFFFED     R    2403  2407   2412   2417   2422   2427
 NULLCMD       2 00001FD6 00000001     H   16815 30599
 NUMBER        1 00000000 000000A1     T   29157 29157
 OLDSAVE       1 00000000 000000B1     T   29697 29697
 ON            1 00000000 00000081     T   28557 28557
 OPEN          1 00000000 000000BA     T   29938 29938  30479
 ORVCABRT      1 00000000 0000000E     T    8267  8267
 ORVCHK        1 00000000 0000002B     T    9724  9724
1COMM     (COMM4072) (12:40) (15MAR04) Ordinary Symbol and Literal Cross Reference                                          Page  140
 ORVCMD        1 00000000 00000040     T   16991 16991
 ORVCPASS      1 00000000 00000031     T   12406 12406  19404
 ORVRETN       1 00000000 00000029     T    9722  9722
 OS            2 00002196 00000001     H   17035 17031
 OS            1 00000000 000000D5     T   30584 30584
 OSRENAME      1 00000000 000000B4     T   29758 29758
 PAGECMD       1 00000000 00000009     T    8258  8258
 PAGEMOD       1 00000000 0000001B     T    9702  9702  12413
 PAGEMON       1 00000000 00000021     T    9710  9710
 PAGEMSG       1 00000000 0000001A     T    9701  9701
 PAGERES       1 00000000 0000001C     T    9703  9703
 PASS          1 00000000 000000B7     T   29893 29893
 PCALL         1 00000000 00000068     T   28136 28136
 PDBBYT1       1 0000000E FFFFFFE9     X    6337  6369
 PDBBYT2       1 0000000F FFFFFFE9     X    6338  6375
 PDBCMDFL      1 00000007 FFFFFFE9     X    6325  6361   6361   6367
 PDBINCT       2 00000030 FFFFFFE9     H    6355  6359   6359
 PDBSINP       4 00000010 FFFFFFE9     A    6340  6341
 PDBSTRT       4 00000000 FFFFFFE9     F    6317  6362   6362
 PDBVPGM       8 00000014 FFFFFFE9     C    6343  6349   6349
 PFORMAT       1 00000000 000000AE     T   29652 29652
 PFREEA        1 00000000 0000001E     T    9706  9706  13637
 PFREEB        1 00000000 0000001F     T    9707  9707  13638
 PICK          1 00000000 000000BC     T   29968 29968
 PJNKTMP       1 00000000 00000020     T    9708  9708  13639
 POINT         1 00000000 0000006D     T   28211 28211
 PREPROC       1 00000000 00000035     T   13645 13645
 PRETURN       1 00000000 00000069     T   28151 28151
 PRINT         1 00000000 00000082     T   28572 28572  28587  28602  29457
 PRT           4 00004EB0 00000001     F   27854 13651  25569  27615
 PUBCMD       42 00001DF0 00000001     C   16105 16051  16051  17008
 PUBLOAD       1 00000000 00000080     T   28542 28542
 PUBMEM        1 0000000E 00000001 A   U   16106 16052M
 PUTEND        1 00000000 0000008F     T   28827 28827
 PUTLCMD       1 00000000 0000008D     T   28797 28797
 PUTLCMDT      1 00000000 0000008E     T   28812 28812
 QCLOSE        1 00000000 000000CE     T   30449 30449
 QEXEC         1 00000000 000000C9     T   30374 30374
 QFETCH        1 00000000 000000CB     T   30404 30404
 QINVALID      2 00004C24 00000001     H   27500 27252  27267  27282  27297  27312  27327  27342  27357  27372  27387
                                                 27402  27417
 QMONITOR      1 00000000 000000CC     T   30419 30419
 QNORMAL       2 00004BF8 00000001     H   27439 27432
 QOPEN         1 00000000 000000C7     T   30344 30344
 QRESET        1 00000000 000000CD     T   30434 30434
 QRUN          1 00000000 000000CA     T   30389 30389
 QSEND         1 00000000 000000C8     T   30359 30359
 QUERY         1 00000000 000000C6     T   30329 30329
 QUIET         2 0000481A 00000001     H   26861 26857  29337  29352
 RAR          14 0000000E 00000001 A   #    1129  2114   2115M  2116B  2118M  2119B  2139M  2140B  2144M  2145B  2147M
                                                  2148B  2150M  2151B  2153M  2154B  2156M  2157M  2157B  2163   6822
                                                  6873M  6874M  6874B  6877M  6878M  6878B  6895M  6898B  6911   6944M
                                                  6945M  6945B  6964M  6965M  6965B  6973M  6974M  6974B  7003M  7004M
                                                  7004B  7032M  7033M  7033B  7044M  7045M  7045B  7062M  7065B  7084
                                                  7189M  7190M  7190B  7216M  7217M  7217B  7237M  7240B  7283   7327M
                                                  7328M  7328B  7381M  7382M  7382B  7473M  7474M  7474B  7536M  7537M
                                                  7537B  7568M  7569M  7569B  7614M  7615M  7615B  7676M  7677M  7677B
                                                  7710M  7711M  7711B  7760M  7761M  7761B  7885M  7886M  7886B  7912M
                                                  7913M  7913B  7967M  7968M  7968B  8012M  8013M  8013B  8044M  8045M
1COMM     (COMM4072) (12:40) (15MAR04) Ordinary Symbol and Literal Cross Reference                                          Page  141
                                                  8045B  8063M  8064M  8064B  8129M  8130M  8130B  8145M  8146M  8146B
                                                  8200M  8201M  8201B  8222M  8223M  8223B  8241M  8244B  8309   8385M
                                                  8386M  8386B  8409M  8410M  8410B  8433M  8434M  8434B  8457M  8458M
                                                  8458B  8481M  8482M  8482B  8505M  8506M  8506B  8519M  8520M  8520B
                                                  8541M  8542M  8542B  8585M  8586M  8586B  8691M  8692M  8692B  8717M
                                                  8718M  8718B  8737M  8738M  8738B  8753M  8754M  8754B  8792M  8793M
                                                  8793B  8875M  8876M  8876B  8900M  8901M  8901B  8913M  8914M  8914B
                                                  8919M  8920M  8920B  8923M  8924M  8924B  8927M  8928M  8928B  8932M
                                                  8933M  8933B  8947M  8948M  8948B  8960M  8961M  8961B  8970M  8971M
                                                  8971B  9048M  9049M  9049B  9080M  9081M  9081B  9188M  9189M  9189B
                                                  9224M  9225M  9225B  9266M  9267M  9267B  9328M  9329M  9329B  9382M
                                                  9383M  9383B  9411M  9412M  9412B  9480M  9481M  9481B  9496M  9497M
                                                  9497B  9600M  9601M  9601B  9610M  9611M  9611B  9634M  9635M  9635
                                                  9649B  9672M  9675B  9939M  9940M  9940B  9954M  9955M  9955B  9976B
                                                 10029B 10061  10163M 10164M 10164B 10188M 10191B 10211  10257M 10260B
                                                 10280  10326M 10329B 10345  10397M 10400B 10421  10486M 10487M 10487B
                                                 10498M 10499M 10499B 10534M 10537B 10563  10609M 10610M 10610B 10641M
                                                 10642M 10642B 10661M 10662M 10662B 10685M 10686M 10686B 10703M 10704M
                                                 10704B 10734M 10735M 10735B 10752M 10755B 10776  10825M 10826M 10826B
                                                 10839M 10840M 10840B 10869M 10872B 10909M 10910M 10910B 10923M 10924M
                                                 10924B 10935B 10957  11012M 11013M 11013B 11038M 11041B 11056  11148M
                                                 11151B 11166  11197M 11198M 11198B 11245M 11246M 11246B 11292M 11295B
                                                 11310  11341M 11342M 11342B 11388M 11391B 11404  11456M 11459B 11476
                                                 11514M 11515M 11515B 11626M 11627M 11627B 11644M 11647B 11669  11721M
                                                 11722M 11722B 11725M 11726M 11726B 11783M 11784M 11784B 11840M 11841M
                                                 11841B 11852M 11853M 11853B 11871M 11874B 12012  12078M 12079M 12079B
                                                 12112M 12113M 12113B 12124M 12125M 12125B 12188M 12189M 12189B 12218M
                                                 12219M 12219B 12264M 12265M 12265B 12332M 12333M 12333B 12368M 12371B
                                                 12456  12490M 12491M 12491B 12508M 12511B 12524  12601M 12602M 12602B
                                                 12619M 12622B 12635  12672M 12673M 12673B 12690M 12693B 12705  12739M
                                                 12740M 12740B 12745M 12746M 12746B 12749M 12750M 12750B 12799M 12800M
                                                 12800B 12850M 12851M 12851B 13027M 13028M 13028B 13050M 13051M 13051B
                                                 13113M 13114M 13114B 13260M 13261M 13261B 13313M 13314M 13314B 13365M
                                                 13366M 13366B 13403M 13404M 13404B 13489M 13490M 13490B 13523M 13524M
                                                 13524B 13590M 13591M 13591B 13604M 13605M 13605B 13624M 13627B 13698
                                                 13856M 13857M 13857B 13873M 13874M 13874B 13900M 13901M 13901B 14001M
                                                 14002M 14002B 14067M 14068M 14068B 14081M 14082M 14082B 14107M 14108M
                                                 14108B 14121M 14122M 14122B 14244M 14245M 14245B 14268M 14269M 14269B
                                                 14292M 14293M 14293B 14316M 14317M 14317B 14369M 14370M 14370B 14433M
                                                 14434M 14434B 14515M 14516M 14516B 14573M 14574M 14574B 14599M 14600M
                                                 14600B 14604M 14605M 14605B 14608M 14609M 14609B 14631M 14634B 14738
                                                 14785M 14788B 14800  14847M 14850B 14862  14909M 14912B 14924  14971M
                                                 14974B 14985  15087M 15090B 15117  15196M 15197M 15197B 15220M 15223B
                                                 15240  15313M 15314M 15314B 15327M 15328M 15328B 15367M 15368M 15368B
                                                 15385M 15386M 15386B 15407M 15408M 15408B 15454M 15455M 15455B 15493M
                                                 15496B 15585  15637M 15640B 15652  15701M 15704B 15716  15765M 15768B
                                                 15780  15829M 15832B 15873  15932M 15933M 15933B 15946M 15947M 15947B
                                                 15996M 15997M 15997B 16049M 16050M 16050B 16076M 16077M 16077B 16100M
                                                 16103B 16146  16206M 16207M 16207B 16259M 16260M 16260B 16286M 16287M
                                                 16287B 16311M 16314B 16448  16509M 16510M 16510B 16536M 16537M 16537B
                                                 16553M 16554M 16554B 16581M 16582M 16582B 16598M 16599M 16599B 16679M
                                                 16680M 16680B 16705M 16706M 16706B 16775M 16776M 16776B 16800M 16803B
                                                 16821  16867M 16870B 16887  16934M 16935M 16935B 16954M 16957B 17041
                                                 17108M 17109M 17109B 17130M 17131M 17131B 17184M 17185M 17185B 17206M
                                                 17207M 17207B 17256M 17257M 17257B 17278M 17279M 17279B 17387M 17390B
                                                 17554  17668M 17669M 17669B 17682M 17683M 17683B 17703M 17704M 17704B
                                                 17728M 17729M 17729B 17753M 17754M 17754B 17779M 17780M 17780B 17806M
                                                 17807M 17807B 17859M 17860M 17860B 17873M 17874M 17874B 17898M 17899M
                                                 17899B 18042M 18043M 18043B 18064M 18065M 18065B 18098M 18101B 18237
1COMM     (COMM4072) (12:40) (15MAR04) Ordinary Symbol and Literal Cross Reference                                          Page  142
                                                 18268M 18269M 18269B 18293M 18296B 18308  18339M 18340M 18340B 18343M
                                                 18344M 18344B 18361M 18364B 18376  18424M 18425M 18425B 18432M 18433M
                                                 18433B 18481M 18484B 18496  18544M 18545M 18545B 18552M 18553M 18553B
                                                 18596M 18599B 18611  18662M 18665B 18677  18722M 18725B 18737  18782M
                                                 18785B 18797  18848M 18851B 18906  18989M 18990M 18990B 19003M 19004M
                                                 19004B 19049M 19050M 19050B 19074M 19075M 19075B 19099M 19100M 19100B
                                                 19125M 19126M 19126B 19152M 19153M 19153B 19159M 19160M 19160B 19175M
                                                 19176M 19176B 19216M 19217M 19217B 19232M 19233M 19233B 19260M 19261M
                                                 19261B 19264M 19265M 19265B 19290M 19293B 19320  19355M 19356M 19356B
                                                 19363M 19364M 19364B 19386M 19389B 19469  19564M 19565M 19565B 19578M
                                                 19579M 19579B 19586M 19587M 19587B 19597M 19598M 19598B 19658M 19659M
                                                 19659B 19676M 19677M 19677B 19702M 19703M 19703B 19720M 19721M 19721B
                                                 19747M 19748M 19748B 19772M 19773M 19773B 19781M 19782M 19782B 19816M
                                                 19819B 19913  19963M 19964M 19964B 19983M 19984M 19984B 20005M 20008B
                                                 20022  20072M 20073M 20073B 20094M 20097B 20111  20158M 20159M 20159B
                                                 20180M 20183B 20246  20343M 20344M 20344B 20412M 20413M 20413B 20419M
                                                 20420M 20420B 20435M 20436M 20436B 20441M 20442M 20442B 20511M 20512M
                                                 20512B 20548M 20549M 20549B 20637M 20640B 20674  20779M 20780M 20780B
                                                 20791M 20792M 20792B 20836M 20839B 20889  20979M 20980M 20980B 20987M
                                                 20988M 20988B 21009M 21010M 21010B 21135M 21136M 21136B 21195M 21198B
                                                 21233  21277M 21278M 21278B 21285M 21286M 21286B 21325M 21328B 21382
                                                 21442M 21443M 21443B 21450M 21451M 21451B 21563M 21566B 21598  21631M
                                                 21632M 21632B 21638M 21639M 21639B 21661M 21664B 21709  21771M 21772M
                                                 21772B 21779M 21780M 21780B 21876M 21877M 21877B 21921M 21922M 21922B
                                                 21961M 21964B 22059  22109M 22110M 22110B 22137M 22138M 22138B 22163M
                                                 22166B 22183  22234M 22235M 22235B 22248M 22249M 22249B 22416M 22417M
                                                 22417B 22446M 22447M 22447B 22458M 22459M 22459B 22485M 22486M 22486B
                                                 22517M 22518M 22518B 22548M 22549M 22549B 22580M 22583B 22656  22707M
                                                 22710B 22722  22770M 22773B 22793  22824M 22825M 22825B 22877M 22878M
                                                 22878B 22904M 22905M 22905B 23037M 23038M 23038B 23061M 23064B 23111
                                                 23160M 23161M 23161B 23347M 23348M 23348B 23691M 23694B 23711  23761M
                                                 23762M 23762B 23784M 23787B 23806  23999M 24000M 24000B 24025M 24028B
                                                 24082  24116M 24117M 24117B 24234M 24235M 24235B 24349M 24350M 24350B
                                                 24388M 24389M 24389B 24422M 24423M 24423B 24433M 24434M 24434B 24456M
                                                 24457M 24457B 24470M 24471M 24471B 24489M 24492B 24519  24575M 24576M
                                                 24576B 24612M 24615B 24810  24856M 24859B 24871  24923M 24926B 24938
                                                 24989M 24990M 24990B 25007M 25008M 25008B 25032M 25035B 25067  25194M
                                                 25195M 25195B 25216M 25217M 25217B 25223M 25224M 25224B 25230M 25231M
                                                 25231B 25263M 25264M 25264B 25351M 25352M 25352B 25362M 25363M 25363B
                                                 25384M 25385M 25385B 25437M 25438M 25438B 25459M 25460M 25460B 25466M
                                                 25467M 25467B 25473M 25474M 25474B 25506M 25507M 25507B 25537M 25540B
                                                 25614  25740M 25741M 25741B 25747M 25748M 25748B 25754M 25755M 25755B
                                                 25792M 25793M 25793B 25861M 25862M 25862B 25876M 25877M 25877B 25895M
                                                 25898B 25920  26046M 26047M 26047B 26053M 26054M 26054B 26076M 26077M
                                                 26077B 26091M 26092M 26092B 26110M 26113B 26130  26163M 26164M 26164B
                                                 26279M 26280M 26280B 26313M 26314M 26314B 26324M 26325M 26325B 26347M
                                                 26348M 26348B 26362M 26363M 26363B 26381M 26384B 26405  26461M 26462M
                                                 26462B 26498M 26501B 26710  26756M 26759B 26771  26822M 26823M 26823B
                                                 26847M 26850B 26867  26900M 26901M 26901B 27011M 27012M 27012B 27045M
                                                 27046M 27046B 27056M 27057M 27057B 27079M 27080M 27080B 27093M 27094M
                                                 27094B 27112M 27115B 27138  27194M 27195M 27195B 27231M 27234B 27445
                                                 27491M 27494B 27506  27557M 27558M 27558B 27575M 27576M 27576B 27600M
                                                 27603B 27651  27682M 27683M 27683B 27724M 27725M 27725B 27743M 27746B
                                                 27774  27826M 27829B
 READ          1 00000000 0000005B     T   27896 27896
 RECLOAD       1 00000000 000000C1     T   30194 30194
 RELHEAP       2 0000098A 00000001     H   10274 10270
 REMARKS      25 00004D82 00000001     C   27749 27706
 REPEAT        1 00000000 00000073     T   28301 28301
1COMM     (COMM4072) (12:40) (15MAR04) Ordinary Symbol and Literal Cross Reference                                          Page  143
 REPLACE       1 00000000 000000A2     T   29172 29172
 RESAVE        1 00000000 000000B2     T   29727 29727
 RESTORE       1 00000000 000000AB     T   29592 29592
 RETRY         2 00000CF2 00000001     H   11470  8270   9725  16975
 RTRIM         1 00000000 0000000F     T    8269  8269
 RUN           1 00000000 00000094     T   28902 28902
 R0            0 00000000 FFFFFFFF A   #     699  2099   2168M  6978   7213M  7426M  7435M  7435   7557M  7603M  7623M
                                                  7643M  7699M  7719M  7719   7823M  7823   7872M  7872   7964M  8003M
                                                  8003   8041   8054M  8054   8142   8155M  8155   8165M  8177   8189M
                                                  8215M  8781M  8781   8889M  8889   9077M  9097   9106   9118M  9123
                                                  9589M  9589   9605M  9605   9747   9806M  9807M  9807   9820M  9827
                                                  9839M  9863   9875M  9884   9943M  9968M 10000  10021M 10099M 10099
                                                 10108  10117M 10118M 10142  10171  10171M 10475M 10495M 10598M 10630M
                                                 10651M 10651  10692M 10723M 10723  10847M 10897  10931M 11001M 11020M
                                                 11130M 11199M 11200M 11200  11203M 11203  11206  11218M 11274M 11370M
                                                 11438M 11540M 11561M 11584  11585  11710M 11710  11837M 12051  12067M
                                                 12090M 12119M 12177M 12207M 12224M 12237M 12237  12329M 12486  12553
                                                 12594  12665  12847M 13078M 13115  13183M 13196M 13196  13218M 13232M
                                                 13232  13302M 13306  13392M 13396  13436M 13440  13475M 13475  13484
                                                 13485  13486  13504M 13560M 13564  13575M 13575  13584  13585  13827M
                                                 13834M 13837  13838  13838  13838  13869M 13986M 13993M 14037M 14041
                                                 14052M 14052  14061  14062  14093M 14093  14102  14103  14104  14136M
                                                 14136  14153  14163  14241M 14265M 14289M 14313M 14340M 14344  14355M
                                                 14355  14364  14365  14366  14411  14452  14475M 14493  14544M 14548
                                                 14559M 14559  14568  14569  14570  15167M 15184  15193M 15283M 15287
                                                 15298M 15298  15307  15308  15338M 15338  15374M 15396M 15412M 15443M
                                                 15459M 15918M 15918  15927  15928  15929  15956M 15956  15968M 15993M
                                                 16002M 16019M 16019  16041M 16066M 16203M 16212M 16229M 16229  16251M
                                                 16276M 16506M 16525M 16542M 16570M 16587M 16605M 16622M 16622  16644M
                                                 16662  16663  16663  16663  16668M 16683M 16765M 16931M 16999  16999
                                                 16999  17123M 17140M 17140  17160  17166M 17167  17173M 17195M 17195
                                                 17213M 17223  17224  17224  17224  17247M 17269M 17269  17292M 17299
                                                 17300M 17301  17360M 17360  17407  17407  17407  17654M 17654  17663
                                                 17664  17665  17770  17803M 17831M 17844M 17844  17853  17854  17905M
                                                 18275M 18445  18448M 18454  18569M 18575  18975M 18975  18984  18985
                                                 18986  19013M 19013  19024M 19116  19149M 19205M 19223M 19352M 19360M
                                                 19549M 19549  19558  19559  19583M 19592M 19647M 19665M 19678M 19709M
                                                 19722M 19761M 19761  19776M 19960M 20069M 20314M 20318  20329M 20329
                                                 20338  20339  20340  20382  20409M 20482M 20486  20497M 20497  20506
                                                 20507  20508  20526M 20554  20555M 20562M 20591M 20738M 20767M 20776M
                                                 20782M 20783M 20784M 20786M 20807  20976M 20982M 21004M 21025  21051
                                                 21130M 21151  21274M 21280M 21308  21308M 21439M 21445M 21483M 21495
                                                 21628M 21768M 21774M 21794M 21808  21839  21847  21851M 21853M 21864M
                                                 21864  21871M 21871  21892  22088  22095M 22095  22104  22105  22106
                                                 22128M 22128  22219M 22219  22228  22229  22270M 22405M 22435M 22448M
                                                 22474M 22506M 22537M 22751  22834M 22834  22844M 22844  22851  22863M
                                                 22869  22873M 22906  23170M 23170  23180M 23180  23187  23199M 23215M
                                                 23215  23255M 23275  23276  23417  23479M 23637M 23664M 23664  23669
                                                 23669M 23870  23978  23994M 23995M 24150  24195M 24215  24285M 24285
                                                 24307M 24321M 24321  24374M 24374  24383  24384  24385  24403M 24441M
                                                 24441  24450  24451  24560M 24560  24569  24570  24996M 25014M 25172M
                                                 25205M 25218M 25225M 25255M 25255  25346M 25358M 25415M 25448M 25461M
                                                 25468M 25498M 25498  25650M 25655  25656  25675M 25676M 25677M 25695M
                                                 25696M 25697M 25714M 25718  25737M 25781M 25785  25824M 25828  25846M
                                                 25846  25855  25856  25956M 25961  25962  25981M 25982M 25983M 26001M
                                                 26002M 26003M 26020M 26024  26043M 26061M 26061  26070  26071  26179
                                                 26225M 26245  26265M 26265  26274  26275  26276  26294M 26332M 26332
                                                 26341  26342  26446M 26446  26455  26456  26829M 26912  26957M 26977
                                                 26997M 26997  27006  27007  27008  27026M 27064M 27064  27073  27074
1COMM     (COMM4072) (12:40) (15MAR04) Ordinary Symbol and Literal Cross Reference                                          Page  144
                                                 27179M 27179  27188  27189  27564M 27582M 27684  27713M 27808M
 R1            1 00000001 FFFFFFFF A   #     712  2162M  2163M  2169M  7186M  7209M  7422M  7553M  7598M  7622M  7642M
                                                  7698M  7879   7880   7880   7880   7889M  7963M  8188M  8210M  8276
                                                  8276   8276   9607M  9607   9903M  9904   9924M 10122M 10123M 10123
                                                 10136M 10141  10171  10470M 10597M 10629M 10658M 10691M 10846M 10930M
                                                 10996M 11019M 11129M 11199M 11273M 11369M 11437M 11539M 11560M 11833M
                                                 12051  12062M 12087  12088  12088  12088  12089M 12116M 12119M 12176M
                                                 12202M 12223M 12325M 12422  12422  12422  12485  12592M 12593  12664
                                                 12842M 13073M 13179M 13216M 13273M 13274  13298M 13305  13388M 13395
                                                 13432M 13439  13471M 13484  13485  13486  13503M 13556M 13563  13571M
                                                 13584  13585  13587  13826M 13832  13833M 13837  13838  13838  13838
                                                 13841M 13842M 13842  13869M 13925  13985M 13991  13992M 14033M 14040
                                                 14048M 14061  14062  14064  14089M 14102  14103  14104  14125M 14126M
                                                 14126  14234M 14258M 14282M 14306M 14336M 14343  14351M 14364  14365
                                                 14366  14396M 14397M 14397  14474M 14540M 14547  14555M 14568  14569
                                                 14570  15165M 15183  15192M 15279M 15286  15294M 15307  15308  15310
                                                 15373M 15395M 15411M 15436M 15458M 15914M 15927  15928  15929  15967M
                                                 15986M 16001M 16039M 16062M 16196M 16211M 16249M 16272M 16499M 16520M
                                                 16541M 16565M 16586M 16604M 16642M 16662  16663  16663  16663  16667M
                                                 16683M 16760M 16927M 16999  16999  16999  17122M 17172M 17191M 17212M
                                                 17223  17224  17224  17224  17243M 17292M 17356M 17407  17407  17407
                                                 17650M 17663  17664  17665  17796M 17830M 17840M 17853  17854  17856
                                                 17904M 17995M 17996M 18039M 18061M 18274M 18446  18453  18566M 18574
                                                 18971M 18984  18985  18986  19023M 19142M 19156M 19172M 19198M 19222M
                                                 19229M 19257M 19545M 19558  19559  19561  19593M 19629  19640M 19664M
                                                 19679M 19708M 19723M 19724M 19724  19777M 19953M 19976M 20062M 20151M
                                                 20310M 20317  20325M 20338  20339  20340  20402M 20416M 20432M 20438M
                                                 20478M 20485  20493M 20506  20507  20508  20525M 20555  20556M 20561
                                                 20590M 20703  20737M 20766M 20785M 20786  20787M 20938  20983M 21005M
                                                 21051M 21066  21097  21112  21131M 21262  21281M 21433  21446M 21483
                                                 21495  21518M 21518  21528  21635  21760  21775M 21794  21808  21818
                                                 21824M 21824  21839  21845  21846  21852M 21853  21872M 22091M 22104
                                                 22105  22106  22215M 22228  22229  22231  22269M 22398M 22428M 22452M
                                                 22452  22499M 22529M 22868  22879  23034M 23247M 23471M 23629M 23666M
                                                 23666  23669  23758M 23844U 24194M 24214  24305M 24370M 24383  24384
                                                 24385  24402M 24437M 24450  24451  24453  24556M 24569  24570  24572
                                                 24995M 25013M 25169  25170  25170  25170  25171M 25198M 25204M 25219M
                                                 25226M 25259M 25259  25347M 25356M 25412  25413  25413  25413  25414M
                                                 25441M 25447M 25462M 25469M 25502M 25502  25580  25580  25580  25649M
                                                 25675  25710M 25717  25733M 25777M 25784  25820M 25827  25842M 25855
                                                 25856  25858  25955M 25981  26016M 26023  26039M 26057M 26070  26071
                                                 26073  26224M 26244  26261M 26274  26275  26276  26293M 26328M 26341
                                                 26342  26344  26442M 26455  26456  26458  26828M 26956M 26976  26993M
                                                 27006  27007  27008  27025M 27060M 27073  27074  27076  27175M 27188
                                                 27189  27191  27563M 27581M 27684  27706M 27807M
 R12          12 0000000C FFFFFFFF A   #     855  2125
 R13          13 0000000D FFFFFFFF A   #     868  9745M  9746   9747   9748M  9748   9967M  9968   9969   9998M  9999
                                                 10000  10001M 10001  10020M 10021  10022  13466  13479  13480  13481
                                                 13496  13497  13498  13579  13580  13581  13597  13598  13599  14056
                                                 14057  14058  14074  14075  14076  14097  14098  14099  14114  14115
                                                 14116  14359  14360  14361  14376  14377  14378  14563  14564  14565
                                                 14580  14581  14582  15302  15303  15304  15320  15321  15322  15922
                                                 15923  15924  15939  15940  15941  17658  17659  17660  17675  17676
                                                 17677  17848  17849  17850  17866  17867  17868  18979  18980  18981
                                                 18996  18997  18998  19553  19554  19555  19571  19572  19573  20333
                                                 20334  20335  20350  20351  20352  20501  20502  20503  20518  20519
                                                 20520  22099  22100  22101  22116  22117  22118  22223  22224  22225
                                                 22241  22242  22243  24365  24378  24379  24380  24395  24396  24397
                                                 24445  24446  24447  24463  24464  24465  24551  24564  24565  24566
1COMM     (COMM4072) (12:40) (15MAR04) Ordinary Symbol and Literal Cross Reference                                          Page  145
                                                 24582  24583  24584  25850  25851  25852  25868  25869  25870  26065
                                                 26066  26067  26083  26084  26085  26256  26269  26270  26271  26286
                                                 26287  26288  26336  26337  26338  26354  26355  26356  26437  26450
                                                 26451  26452  26468  26469  26470  26988  27001  27002  27003  27018
                                                 27019  27020  27068  27069  27070  27086  27087  27088  27170  27183
                                                 27184  27185  27201  27202  27203
 R14          14 0000000E FFFFFFFF A   #     881  2100M  6979M  9098M  9746   9908M  9913M  9913   9969M  9999  10022M
                                                 10109M 10898M 12083M 12087  12088  12088  12088  12089  12116M 12222M
                                                 12223  12224  12228M 12228  12422  12422  12422  13278M 13283M 13283
                                                 13304M 13305  13306  13310M 13310  13394M 13395  13396  13400M 13400
                                                 13438M 13439  13440  13444M 13444  13465M 13466  13478M 13479  13480
                                                 13481  13493M 13496  13497  13498  13502M 13503  13504  13508M 13508
                                                 13527M 13530  13540M 13545M 13545  13562M 13563  13564  13568M 13568
                                                 13578M 13579  13580  13581  13586M 13587  13594M 13597  13598  13599
                                                 13770M 13771  13786  13801  13802  13803  13803  13804  13805  13818
                                                 13822M 13822  13825M 13826  13827  13831M 13831  13929M 13930  13945
                                                 13960  13961  13962  13962  13963  13964  13977  13981M 13981  13984M
                                                 13985  13986  13990M 13990  14039M 14040  14041  14045M 14045  14055M
                                                 14056  14057  14058  14063M 14064  14071M 14074  14075  14076  14096M
                                                 14097  14098  14099  14111M 14114  14115  14116  14342M 14343  14344
                                                 14348M 14348  14358M 14359  14360  14361  14373M 14376  14377  14378
                                                 14546M 14547  14548  14552M 14552  14562M 14563  14564  14565  14577M
                                                 14580  14581  14582  15017M 15018  15033  15048  15049  15050  15050
                                                 15051  15052  15065  15069M 15069  15182M 15183  15184  15188M 15188
                                                 15285M 15286  15287  15291M 15291  15301M 15302  15303  15304  15309M
                                                 15310  15317M 15320  15321  15322  15921M 15922  15923  15924  15936M
                                                 15939  15940  15941  16000M 16001  16002  16006M 16006  16210M 16211
                                                 16212  16216M 16216  16603M 16604  16605  16609M 16609  17121M 17122
                                                 17123  17127M 17127  17657M 17658  17659  17660  17672M 17675  17676
                                                 17677  17847M 17848  17849  17850  17855M 17856  17863M 17866  17867
                                                 17868  18978M 18979  18980  18981  18993M 18996  18997  18998  19540M
                                                 19552M 19553  19554  19555  19560M 19561  19568M 19571  19572  19573
                                                 20316M 20317  20318  20322M 20322  20332M 20333  20334  20335  20347M
                                                 20350  20351  20352  20484M 20485  20486  20490M 20490  20500M 20501
                                                 20502  20503  20515M 20518  20519  20520  20524M 20525  20526  20530M
                                                 20530  20558M 20560M 20562M 20564M 20566M 20580  20597  20601  20808M
                                                 21026M 21152M 21893M 22098M 22099  22100  22101  22113M 22116  22117
                                                 22118  22222M 22223  22224  22225  22230M 22231  22238M 22241  22242
                                                 22243  23418M 23871M 23979M 24193M 24194  24195  24199M 24199  24213M
                                                 24214  24215  24219M 24219  24364M 24365  24377M 24378  24379  24380
                                                 24392M 24395  24396  24397  24401M 24402  24403  24407M 24407  24426M
                                                 24429  24444M 24445  24446  24447  24452M 24453  24460M 24463  24464
                                                 24465  24550M 24551  24563M 24564  24565  24566  24571M 24572  24579M
                                                 24582  24583  24584  24588M 24591  25165M 25169  25170  25170  25170
                                                 25171  25198M 25408M 25412  25413  25413  25413  25414  25441M 25580
                                                 25580  25580  25648M 25649  25650  25654M 25654  25665M 25670M 25676
                                                 25677M 25685M 25690M 25696  25697M 25716M 25717  25718  25722M 25722
                                                 25783M 25784  25785  25789M 25789  25826M 25827  25828  25832M 25832
                                                 25849M 25850  25851  25852  25857M 25858  25865M 25868  25869  25870
                                                 25954M 25955  25956  25960M 25960  25971M 25976M 25982  25983M 25991M
                                                 25996M 26002  26003M 26022M 26023  26024  26028M 26028  26064M 26065
                                                 26066  26067  26072M 26073  26080M 26083  26084  26085  26223M 26224
                                                 26225  26229M 26229  26243M 26244  26245  26249M 26249  26255M 26256
                                                 26268M 26269  26270  26271  26283M 26286  26287  26288  26292M 26293
                                                 26294  26298M 26298  26317M 26320  26335M 26336  26337  26338  26343M
                                                 26344  26351M 26354  26355  26356  26436M 26437  26449M 26450  26451
                                                 26452  26457M 26458  26465M 26468  26469  26470  26474M 26477  26955M
                                                 26956  26957  26961M 26961  26975M 26976  26977  26981M 26981  26987M
                                                 26988  27000M 27001  27002  27003  27015M 27018  27019  27020  27024M
1COMM     (COMM4072) (12:40) (15MAR04) Ordinary Symbol and Literal Cross Reference                                          Page  146
                                                 27025  27026  27030M 27030  27049M 27052  27067M 27068  27069  27070
                                                 27075M 27076  27083M 27086  27087  27088  27169M 27170  27182M 27183
                                                 27184  27185  27190M 27191  27198M 27201  27202  27203  27207M 27210
 R15          15 0000000F FFFFFFFF A   #     894  2099   6870M  6897M  6897   6978   7064M  7064   7117M  7120   7132M
                                                  7137   7141M  7150M  7150   7157   7239M  7239   7349M  7359U  7447M
                                                  7447   7565M  7611M  7673M  7707M  7757M  7757   7812M  7812   7843M
                                                  7861M  7861   7879   7880   7880   7880   7889M  7897M  7897   7940
                                                  7989   8035   8197M  8243M  8243   8276   8276   8276   8516M  8789M
                                                  8864M  8865M  8897M  9097   9123M  9127M  9136M  9136   9143   9597M
                                                  9674M  9674   9936M  9951M  9973M  9973  10026M 10026  10108  10190M
                                                 10190  10240M 10259M 10259  10309  10328M 10328  10399M 10399  10453M
                                                 10453  10457M 10458M 10459  10483M 10536M 10536  10592  10606M 10638M
                                                 10647M 10682M 10700M 10731M 10754M 10754  10836M 10871M 10871  10880M
                                                 10897  10920M 11009M 11040M 11040  11150M 11150  11242M 11294M 11294
                                                 11390M 11390  11458M 11458  11585M 11589M 11598M 11598  11605  11646M
                                                 11646  11718M 11873M 11873  12075M 12109M 12185M 12215M 12261M 12277M
                                                 12278  12282M 12291M 12291  12298  12346M 12370M 12370  12510M 12510
                                                 12621M 12621  12692M 12692  12756M 12757M 12758  12762M 12763M 12764
                                                 12783M 12784M 12785  12789M 12790M 12791  12953M 12963U 13499M 13499
                                                 13600M 13600  13626M 13626  13771M 13780M 13780  13786M 13795M 13795
                                                 13801M 13802M 13804M 13805  13817M 13817  13818  13860M 13861M 13862
                                                 13930M 13939M 13939  13945M 13954M 13954  13960M 13961M 13963M 13964
                                                 13976M 13976  13977  13998M 13998  14077M 14077  14086M 14086  14117M
                                                 14117  14163M 14166  14178M 14186M 14195M 14195  14202  14379M 14379
                                                 14388M 14388  14583M 14583  14586M 14633M 14633  14768M 14787M 14787
                                                 14830M 14849M 14849  14892M 14911M 14911  14954M 14973M 14973  15018M
                                                 15027M 15027  15033M 15042M 15042  15048M 15049M 15051M 15052  15064M
                                                 15064  15065  15070M 15089M 15089  15222M 15222  15323M 15323  15364M
                                                 15382M 15404M 15451M 15495M 15495  15620M 15639M 15639  15684M 15703M
                                                 15703  15748M 15767M 15767  15812M 15831M 15831  15942M 15942  15977M
                                                 16102M 16102  16187M 16313M 16313  16490M 16533M 16550M 16578M 16595M
                                                 16676M 16702M 16712M 16713  16717M 16726M 16726  16733  16802M 16802
                                                 16869M 16869  16956M 16956  17181M 17203M 17253M 17275M 17299M 17309
                                                 17314M 17323M 17323  17330  17389M 17389  17678M 17678  17787M 17869M
                                                 17869  18076M 18076  18100M 18100  18295M 18295  18363M 18363  18464M
                                                 18464  18483M 18483  18579M 18579  18598M 18598  18664M 18664  18724M
                                                 18724  18784M 18784  18850M 18850  18999M 18999  19133M 19213M 19292M
                                                 19292  19351M 19359M 19369M 19369  19388M 19388  19539M 19574M 19574
                                                 19582M 19591M 19655M 19673M 19699M 19717M 19744M 19769M 19775M 19794M
                                                 19794  19818M 19818  19944M 19967M 19988M 19988  20007M 20007  20053M
                                                 20077M 20077  20096M 20096  20142M 20163M 20163  20182M 20182  20353M
                                                 20353  20362M 20362  20393M 20521M 20521  20554M 20556  20559M 20561M
                                                 20563M 20565M 20566  20607M 20607  20612M 20639M 20639  20775M 20781M
                                                 20807  20819M 20819  20838M 20838  20975M 20981M 21003M 21025  21129M
                                                 21151  21173M 21173  21197M 21197  21273M 21279M 21327M 21327  21438M
                                                 21444M 21532M 21532  21537M 21565M 21565  21627M 21634M 21644M 21644
                                                 21663M 21663  21767M 21773M 21870M 21892  21917M 21939M 21939  21963M
                                                 21963  22119M 22119  22165M 22165  22244M 22244  22413M 22443M 22454M
                                                 22482M 22514M 22545M 22582M 22582  22709M 22709  22772M 22772  22950M
                                                 22951M 22952  22953  22989M 22990  22991  23001M 23002M 23003  23063M
                                                 23063  23259M 23259  23276M 23280M 23289M 23289  23296  23316  23360
                                                 23417  23483M 23483  23496M 23506M 23506  23515M 23524M 23524  23531
                                                 23551  23571M 23575M 23584M 23584  23591  23641M 23641  23660M 23693M
                                                 23693  23786M 23786  23870  23882M 23883M 23883  23913  23921M 23922M
                                                 23922  23952  23960M 23961M 23962  23978  24027M 24027  24398M 24398
                                                 24466M 24466  24491M 24491  24585M 24585  24595M 24595  24614M 24614
                                                 24839M 24858M 24858  24906M 24925M 24925  24986M 25004M 25034M 25034
                                                 25191M 25213M 25434M 25456M 25520M 25520  25539M 25539  25871M 25871
                                                 25897M 25897  26086M 26086  26112M 26112  26289M 26289  26357M 26357
1COMM     (COMM4072) (12:40) (15MAR04) Ordinary Symbol and Literal Cross Reference                                          Page  147
                                                 26383M 26383  26471M 26471  26481M 26481  26500M 26500  26739M 26758M
                                                 26758  26819M 26849M 26849  27021M 27021  27089M 27089  27114M 27114
                                                 27204M 27204  27214M 27214  27233M 27233  27474M 27493M 27493  27554M
                                                 27572M 27602M 27602  27691M 27693M 27694M 27695M 27706  27721M 27745M
                                                 27745  27828M 27828
 R2            2 00000002 FFFFFFFF A   #     725  7764M  7774U  7882M  8041M  8071   8083M  8088   8092M  8101M  8101
                                                  8108   8142M  8165   9886M 10017M 10141M 10142M 10154  10169  10592M
                                                 10619M 10619  10647  10805M 10817  12120M 12202  12553M 12563M 12563
                                                 12571M 12573  13766M 13832M 13833  13834  13925M 13991M 13992  13993
                                                 17167M 17191  17309M 17955M 17997M 19537M 19540M 19594M 19629M 19778M
                                                 20560M 20598M 20603M 20788M 20984M 21006M 21132M 21282M 21298M 21300
                                                 21447M 21635M 21776M 21845M 21850M 21873M 21918M 22869M 22907  22911M
                                                 22920M 22920  22927  23275M 23571  25220M 25227M 25260M 25348M 25359M
                                                 25381M 25463M 25470M 25503M 25656M 25670  25690  25962M 25976  25996
 R3            3 00000003 FFFFFFFF A   #     738 12121M 12145M 12145  12207  12487M 12598M 12598  12669M 12669  12827M
                                                 12827  15421M 15421  15436  15617M 15617  15619  15619M 15681M 15683
                                                 15683M 15745M 15747  15747M 15809M 15811  15811M 17956M 17960M 17969M
                                                 17969  17976  17998M 18002M 18011M 18011  18018  18445M 18446M 18447
                                                 19538M 20559  20599M 20938M 21076  21125  21299M 21300  21456M 21476M
                                                 21482M 21502  21847M 21848M 21849  22868M 24150M 24154M 24163M 24163
                                                 24170  25658M 25665  25695  25964M 25971  26001  26179M 26183M 26192M
                                                 26192  26199  26912M 26916M 26925M 26925  26932
 R4            4 00000004 FFFFFFFF A   #     751  7116M  7186  12486M 12594M 12665M 12801  12847  13078  20564M 20600M
                                                 20603M 21052M 21066  21076  21082M 21082  21097  21112  21125  21126M
                                                 21126  21128M 21130  21300M 21433M 21482  21528  21760M 21818  21846M
                                                 21848  21850M 22277M 22315M 22341U 22347M 22375M 22375  22390U 22551M
                                                 22879M 22889U 22971  22972  22990  22992  23223M 23224M 23224  23235U
                                                 23366M 23377M 23377  23392U 23648M
 R5            5 00000005 FFFFFFFF A   #     764  7881M  8338M  8346U 12485M 12593M 12664M 12842  13073  17603M 17611U
                                                 19518M 19526U 20563  20601M 20602M 21127M 21128  21301M 21308  21849M
                                                 22088M 22144  22212M 22286M 22286  22303  22313M 22326M 22326  22346M
                                                 22688M 22688  22690  22690M 22751M 22753  22753M 23273M
 R6            6 00000006 FFFFFFFF A   #     777 11728M 11738U 13737M 13745U 17297M 17356  17593M 17601U 18945M 18953U
                                                 19508M 19516U 20285M 20293U 20703M 20711U 20928M 20936U 21262M 21270U
                                                 21421M 21429U 21748M 21756U 25096M 25104U
 R7            7 00000007 FFFFFFFF A   #     790  2092M  2092   2093B  2105B
 R8            8 00000008 FFFFFFFF A   #     803  9743M  9744M  9745   9747   9967   9968M  9996M  9997M  9998  10000
                                                 10020  10021M 12047U 13733U 15908U 16181U 16483U 17589U 18941U 19504U
                                                 20281U 20924U 21417U 21744U 23146U
 SAMSON        1 00000000 000000B9     T   29923 29923
 SAVE          1 00000000 000000B0     T   29682 29682  29712
 SAVEDATA      1 00000000 00000056     T   25576 25576
 SCANCHK       1 00000000 00000039     T   13652 13652  16980  19399  21983  24040  25570  27617
 SCINIT        1 00000000 00000038     T   13650 13650  25565  27612
 SCRATCH       1 00000000 000000B3     T   29743 29743
 SCUPCASE      1 00000000 0000003F     T   16990 16990  19402  21990
 SDEFABBR      2 00002738 00000001     H   18605 18165
 SDEFAPP       2 000026E8 00000001     H   18490 18150
 SDEFAS        2 0000268E 00000001     H   18370 18135
 SDEFERR       2 0000265A 00000001     H   18302 18225
 SDEFNOAS      2 00002620 00000001     H   18231 18120
 SDEFNOT       2 000027B4 00000001     H   18791 18210
 SDEFREP       2 00002764 00000001     H   18671 18180
 SDEFSYS       2 0000278C 00000001     H   18731 18195
 SDFFIRST     16 00000000 FFFFFFDE     X   19443 19536M 19536  19590  19953  19960  20062  20069
 SDFFROM       2 00002CCE 00000001     H   20016 19853
 SDFLAST      16 00000010 FFFFFFDE     X   19444 19537  19538  19623  19976  20151
 SDFLIKE       2 00002C84 00000001     H   19907 19838
 SDFPRT        4 00002BBC 00000001     F   19826 21981
1COMM     (COMM4072) (12:40) (15MAR04) Ordinary Symbol and Literal Cross Reference                                          Page  148
 SDFRECD     544 00000020 FFFFFFDE     X   19445 19518
 SDFTO         2 00002D0A 00000001     H   20105 19868
 SDFWA       576 00000000 FFFFFFDE     J   19452 19475  19504U 19508  19516U 19814  19816  19817
 SDSNQSZ       1 0000002C FFFFFFEC A   U    6080  6081   6082
 SEG           1 00000000 00000002     T    7249  7249   8259  12399  16994  17403  21987  24043  25572  27621
 SEGB          1 00000000 00000058     T   27840 27840
 SEGCLR        1 00000000 0000000A     T    8260  8260  12404
 SEGCR         1 00000000 0000004B     T   21988 21988  24045
 SEGDC         1 00000000 00000044     T   17404 17404  24042
 SEGINIT       1 00000000 0000002C     T   12394 12394  16998  25574
 SEGINITR      1 00000000 0000002E     T   12396 12396
 SEGT          1 00000000 00000030     T   12405 12405
 SEGTB         1 00000000 00000041     T   16995 16995  19411  21986
 SEGWR         1 00000000 0000000B     T    8261  8261   9704  12402  17405
 SEGXLNO       1 00000000 00000055     T   25575 25575
 SET           1 00000000 0000005A     T   27881 27881
 SETATTN       1 00000000 00000027     T    9720  9720
 SETEMSG       1 00000000 00000018     T    9699  9699
 SETERROR      1 00000000 00000028     T    9721  9721
 SETHIST       2 000033E8 00000001     H   22053 22049
 SETPARM       1 00000000 00000042     T   16996 16996
 SETTRY        2 00003F08 00000001     H   25061  9719
 SHHALL        2 00003658 00000001     H   22650 22614
 SHHNUM        2 00003686 00000001     H   22716 22599
 SHHPRT        4 000035B8 00000001     F   22587 24039
 SHOW          1 00000000 0000005F     T   27971 27971
 SHOWDEF       2 00002A56 00000001     H   19462 19458
 SHOWHIST      2 00003474 00000001     H   22177 22173
 SHOWVAL       1 00000000 00000061     T   28016 28016
 SIGNOFF       1 00000000 00000007     T    8256  8256   9713
 SIGNRES       1 00000000 00000023     T    9714  9714
 SMF           1 00000000 000000C3     T   30269 30269
 SOPPRT        4 00001B64 00000001     F   15501 16993
 SORT          1 00000000 000000BF     T   30149 30149  30164
 SPELL         1 00000000 00000085     T   28647 28647
 SPLIT         1 00000000 0000008A     T   28737 28737
 SPR          13 0000000D 00000001 A   #    1116  6822   6825   6826   6827M  6827   6889M  6893   6895   6911   6914
                                                  6915   6916M  6916   7056M  7060   7062   7084   7087   7088   7089M
                                                  7089   7231M  7235   7237   7283   7286   7287   7288M  7288   8235M
                                                  8239   8241   8309   8312   8313   8314M  8314   9666M  9670   9672
                                                 10061  10064  10065  10066M 10066  10182M 10186  10188  10211  10214
                                                 10215  10216M 10216  10251M 10255  10257  10280  10283  10284  10285M
                                                 10285  10320M 10324  10326  10345  10348  10349  10350M 10350  10391M
                                                 10395  10397  10421  10424  10425  10426M 10426  10528M 10532  10534
                                                 10563  10566  10567  10568M 10568  10746M 10750  10752  10776  10779
                                                 10780  10781M 10781  10863M 10867  10869  10957  10960  10961  10962M
                                                 10962  11032M 11036  11038  11056  11059  11060  11061M 11061  11142M
                                                 11146  11148  11166  11169  11170  11171M 11171  11286M 11290  11292
                                                 11310  11313  11314  11315M 11315  11382M 11386  11388  11404  11407
                                                 11408  11409M 11409  11450M 11454  11456  11476  11479  11480  11481M
                                                 11481  11638M 11642  11644  11669  11672  11673  11674M 11674  11865M
                                                 11869  11871  12012  12015  12017  12018M 12018  12362M 12366  12368
                                                 12456  12459  12460  12461M 12461  12502M 12506  12508  12524  12527
                                                 12528  12529M 12529  12613M 12617  12619  12635  12638  12639  12640M
                                                 12640  12684M 12688  12690  12705  12708  12709  12710M 12710  13618M
                                                 13622  13624  13698  13701  13703  13704M 13704  14625M 14629  14631
                                                 14738  14741  14742  14743M 14743  14779M 14783  14785  14800  14803
                                                 14804  14805M 14805  14841M 14845  14847  14862  14865  14866  14867M
                                                 14867  14903M 14907  14909  14924  14927  14928  14929M 14929  14965M
1COMM     (COMM4072) (12:40) (15MAR04) Ordinary Symbol and Literal Cross Reference                                          Page  149
                                                 14969  14971  14985  14988  14989  14990M 14990  15081M 15085  15087
                                                 15117  15120  15121  15122M 15122  15214M 15218  15220  15240  15243
                                                 15244  15245M 15245  15487M 15491  15493  15585  15588  15589  15590M
                                                 15590  15631M 15635  15637  15652  15655  15656  15657M 15657  15695M
                                                 15699  15701  15716  15719  15720  15721M 15721  15759M 15763  15765
                                                 15780  15783  15784  15785M 15785  15823M 15827  15829  15873  15876
                                                 15878  15879M 15879  16094M 16098  16100  16146  16149  16151  16152M
                                                 16152  16305M 16309  16311  16448  16451  16453  16454M 16454  16794M
                                                 16798  16800  16821  16824  16825  16826M 16826  16861M 16865  16867
                                                 16887  16890  16891  16892M 16892  16948M 16952  16954  17041  17044
                                                 17045  17046M 17046  17381M 17385  17387  17554  17557  17559  17560M
                                                 17560  18092M 18096  18098  18237  18240  18241  18242M 18242  18287M
                                                 18291  18293  18308  18311  18312  18313M 18313  18355M 18359  18361
                                                 18376  18379  18380  18381M 18381  18475M 18479  18481  18496  18499
                                                 18500  18501M 18501  18590M 18594  18596  18611  18614  18615  18616M
                                                 18616  18656M 18660  18662  18677  18680  18681  18682M 18682  18716M
                                                 18720  18722  18737  18740  18741  18742M 18742  18776M 18780  18782
                                                 18797  18800  18801  18802M 18802  18842M 18846  18848  18906  18909
                                                 18911  18912M 18912  19284M 19288  19290  19320  19323  19324  19325M
                                                 19325  19380M 19384  19386  19469  19472  19474  19475M 19475  19810M
                                                 19814  19816  19913  19916  19917  19918M 19918  19999M 20003  20005
                                                 20022  20025  20026  20027M 20027  20088M 20092  20094  20111  20114
                                                 20115  20116M 20116  20174M 20178  20180  20246  20249  20251  20252M
                                                 20252  20631M 20635  20637  20674  20677  20678  20679M 20679  20830M
                                                 20834  20836  20889  20892  20894  20895M 20895  21189M 21193  21195
                                                 21233  21236  21237  21238M 21238  21319M 21323  21325  21382  21385
                                                 21387  21388M 21388  21557M 21561  21563  21598  21601  21602  21603M
                                                 21603  21655M 21659  21661  21709  21712  21714  21715M 21715  21955M
                                                 21959  21961  22059  22062  22063  22064M 22064  22157M 22161  22163
                                                 22183  22186  22187  22188M 22188  22574M 22578  22580  22656  22659
                                                 22660  22661M 22661  22701M 22705  22707  22722  22725  22726  22727M
                                                 22727  22764M 22768  22770  22793  22796  22797  22798M 22798  23055M
                                                 23059  23061  23111  23114  23116  23117M 23117  23685M 23689  23691
                                                 23711  23714  23715  23716M 23716  23778M 23782  23784  23806  23809
                                                 23810  23811M 23811  24019M 24023  24025  24082  24085  24086  24087M
                                                 24087  24483M 24487  24489  24519  24522  24523  24524M 24524  24606M
                                                 24610  24612  24810  24813  24814  24815M 24815  24850M 24854  24856
                                                 24871  24874  24875  24876M 24876  24917M 24921  24923  24938  24941
                                                 24942  24943M 24943  25026M 25030  25032  25067  25070  25071  25072M
                                                 25072  25531M 25535  25537  25614  25617  25618  25619M 25619  25889M
                                                 25893  25895  25920  25923  25924  25925M 25925  26104M 26108  26110
                                                 26130  26133  26134  26135M 26135  26375M 26379  26381  26405  26408
                                                 26409  26410M 26410  26492M 26496  26498  26710  26713  26714  26715M
                                                 26715  26750M 26754  26756  26771  26774  26775  26776M 26776  26841M
                                                 26845  26847  26867  26870  26871  26872M 26872  27106M 27110  27112
                                                 27138  27141  27142  27143M 27143  27225M 27229  27231  27445  27448
                                                 27449  27450M 27450  27485M 27489  27491  27506  27509  27510  27511M
                                                 27511  27594M 27598  27600  27651  27654  27655  27656M 27656  27737M
                                                 27741  27743  27774  27777  27778  27779M 27779  27820M 27824  27826
 SQUASH        1 00000000 000000A4     T   29217 29217  29232
 START         1 00000000 000000D2     T   30539 30539
 STKCHK        2 00000AD4 00000001     H   10770 10766
 STKOVER       2 00000B2A 00000001     H   10879 10878  12398
 STOP          1 00000000 000000D3     T   30554 30554
 SUBSYS        1 00000000 000000E8     T   30929 30929
 SYSCALL       1 00000000 0000006A     T   28166 28166
 SYSCMD        2 000042E8 00000001     H   25914 25910  28512
 TCNTL         1 00000000 00000024     T    9715  9715  12400
 TERMSEG       1 00000000 0000002D     T   12395 12395
1COMM     (COMM4072) (12:40) (15MAR04) Ordinary Symbol and Literal Cross Reference                                          Page  150
 THEN          1 00000000 00000077     T   28361 28361
 TINVALID      2 00003EB8 00000001     H   24932 24677  24692  24707  24722  24737  24752  24767  24782
 TNORMAL       2 00003E5C 00000001     H   24804 24797
 TO            1 00000000 00000098     T   28962 28962
 TRASHATN      1 00000000 00000026     T    9718  9718
 TRC           1 00000000 00000000 A   T    2121  2121
 TREAD         1 00000000 0000000C     T    8262  8262
 TRY           2 00003A5A 00000001     H   24076 24072  29322
 TSPECIAL      2 00003E88 00000001     H   24865 24632  24647  24662
 TSTAT         1 00000000 00000022     T    9712  9712
 TTYFLAG       1 00000004 FFFFFFEA     R    6209  6213
 TTYMAX#       1 00000006 FFFFFFEA A   U    6265  6266
 TTYTFLAG      1 00000005 FFFFFFEA     R    6219  6223   6228   6233   6238   6243   6248   6253
 UDEFREC     544 00000000 FFFFFFDF     X   18882 18945
 UDEFWA      544 00000000 FFFFFFDF     J   18889 18912  18941U 19288  19290  19291
 UNCLEAR       1 00000000 000000BD     T   29983 29983  29998
 UNDEFINE      2 000027E0 00000001     H   18899 18895
 UNDEFINE      1 00000000 00000097     T   28947 28947
 UNLEARN       1 00000000 00000088     T   28707 28707
 UNTIL         1 00000000 00000074     T   28316 28316
 UPDCPSIB      2 000009E4 00000001     H   10415 10411
 UPLOAD        1 00000000 000000C4     T   30284 30284
 UPPTBL        1 00000000 00000000 A   T    2184  2184
 USE           1 00000000 000000A3     T   29187 29187  29202
 USERCMD       2 000041C6 00000001     H   25608 25604  28527
 UTIL          2 00001CFA 00000001     H   15866 15862  30104
 UTILNAME      8 00000000 FFFFFFE5     C   15850 15986  15993  16052
 UTILWA        8 00000000 FFFFFFE5     J   15857 15879  15908U 16098  16100  16101
 VARY          1 00000000 000000C2     T   30254 30254
 VATTN         1 00000000 000000D9     T   30689 30689
 VDEBUG        1 00000000 000000DA     T   30704 30704
 VGO           1 00000000 000000D8     T   30674 30674
 VIEW          1 00000000 0000008C     T   28767 28767
 VLOGOFF       1 00000000 000000D7     T   30644 30644  30659
 VLOGON        1 00000000 000000D6     T   30614 30614  30629
 VTAM          1 00000000 000000DB     T   30719 30719
 WAIT          1 00000000 00000095     T   28917 28917
 WAR           8 00000008 00000001 A   #    1039  6826M  6889   6915M  7056   7088M  7231   7287M  8235   8313M  9666
                                                 10065M 10171  10182  10215M 10251  10284M 10320  10349M 10391  10425M
                                                 10528  10567M 10746  10780M 10863  10961M 11032  11060M 11142  11170M
                                                 11286  11314M 11382  11408M 11450  11480M 11638  11673M 11865  12017M
                                                 12362  12460M 12502  12528M 12613  12639M 12684  12709M 13618  13703M
                                                 14625  14742M 14779  14804M 14841  14866M 14903  14928M 14965  14989M
                                                 15081  15121M 15214  15244M 15487  15589M 15619  15631  15656M 15683
                                                 15695  15720M 15747  15759  15784M 15811  15823  15878M 16094  16151M
                                                 16305  16453M 16794  16825M 16861  16891M 16948  17045M 17381  17559M
                                                 18092  18241M 18287  18312M 18355  18380M 18475  18500M 18590  18615M
                                                 18656  18681M 18716  18741M 18776  18801M 18842  18911M 19284  19324M
                                                 19380  19474M 19810  19917M 19999  20026M 20088  20115M 20174  20251M
                                                 20631  20678M 20830  20894M 21189  21237M 21308  21319  21387M 21557
                                                 21602M 21655  21714M 21955  22063M 22157  22187M 22574  22660M 22690
                                                 22701  22726M 22753  22764  22797M 23055  23116M 23669  23685  23715M
                                                 23778  23810M 24019  24086M 24483  24523M 24606  24814M 24850  24875M
                                                 24917  24942M 25026  25071M 25531  25618M 25889  25924M 26104  26134M
                                                 26375  26409M 26492  26714M 26750  26775M 26841  26871M 27106  27142M
                                                 27225  27449M 27485  27510M 27594  27655M 27737  27778M 27820
 WBILL         1 00000000 000000DD     T   30749 30749
 WBREAK        1 00000000 000000DC     T   30734 30734
 WCOUNT        1 00000000 000000DE     T   30764 30764
1COMM     (COMM4072) (12:40) (15MAR04) Ordinary Symbol and Literal Cross Reference                                          Page  151
 WCTRINCR      1 00000000 0000000D     T    8263  8263
 WDEBUG        1 00000000 000000DF     T   30779 30779  30794
 WEVENT        1 00000000 000000E0     T   30809 30809
 WHILE         1 00000000 00000070     T   28256 28256
 WITEST        1 00000000 000000E3     T   30854 30854
 WMONITOR      1 00000000 000000E1     T   30824 30824
 WPC           1 00000000 000000E5     T   30884 30884
 WRITE         1 00000000 0000005C     T   27911 27911
 WSC           1 00000000 000000E4     T   30869 30869
 WSTART        1 00000000 000000E6     T   30899 30899
 WSTOP         1 00000000 000000E7     T   30914 30914
 WTEST         1 00000000 000000E2     T   30839 30839
 WTOSG         1 00000000 00000000 A   T    2081  2081
 WYLCOMM       1 00000000 00000001     J     993   995   1021   1034   1047   1059   1072   1085   1098   1111   1124
                                                  1137   2365   2449   6189   6301   6498   6778   6784   7170
 XCACTIVE      1 00000000 00000064     T   28061 28061
 XCALL         1 00000000 00000063     T   28046 28046  28076
 XCMDSCAN      1 00000000 00000036     T   13647 13647  25568  27613
 XCOMYUCK      1 00000000 00000065     T   28091 28091
 XCONVERT      1 00000000 0000007C     T   28452 28452
 XCTL          1 00000000 000000E9     T   30944 30944  30959  30974  30989  31004
 XDEBUG        1 00000000 000000A6     T   29277 29277  29292
 XDELETE       1 00000000 0000004F     T   22001 22001
 XDELSET       1 00000000 00000047     T   19414 19414
 XEXIT         1 00000000 00000067     T   28121 28121
 XFORMAT       1 00000000 0000007B     T   28437 28437
 XGET          1 00000000 0000004E     T   22000 22000
 XGETFRST      1 00000000 0000004A     T   21985 21985
 XGETNEXT      1 00000000 0000004C     T   21989 21989
 XGO           1 00000000 0000007F     T   28497 28497
 XLOAD         1 00000000 00000079     T   28407 28407
 XMONITOR      1 00000000 000000A7     T   29307 29307
 XPAUSE        1 00000000 0000007D     T   28467 28467
 XPROC         1 00000000 00000078     T   28391 28391
 XPUT          1 00000000 0000004D     T   21999 21999
 XRESET        1 00000000 0000007E     T   28482 28482
 XRETURN       1 00000000 00000066     T   28106 28106
 XSCAN         1 00000000 0000007A     T   28422 28422
 XSETSET       1 00000000 00000049     T   21984 21984
 =A(ADDABBR)
               4 00002998 00000001     A   19406 18064
 =A(ADDDEF)
               4 00002994 00000001     A   19405 18042
 =A(ADDHCMD)
               4 0000142C 00000001     A   13641 12850
 =A(CDEFPRT)
               4 000020B0 00000001     A   16978 14063
 =A(CHECKTRY)
               4 00004138 00000001     A   25564 24116
 =A(CHKABBR)
               4 000029A8 00000001     A   19410 19175
 =A(CHKABBR)
               4 0000332C 00000001     A   21993 20435
 =A(CHKCDUMP)
               4 00004C90 00000001     A   27618 26163
 =A(CHKDEF)
               4 000029A4 00000001     A   19409 19159  19232
 =A(CHKDEF)
               4 00003328 00000001     A   21992 20419  20441
1COMM     (COMM4072) (12:40) (15MAR04) Ordinary Symbol and Literal Cross Reference                                          Page  152
 =A(CHKQUIET)
               4 00004CA0 00000001     A   27622 26900
 =A(CKCDPRT)
               4 00004C98 00000001     A   27620 26457
 =A(CKQUIPRT)
               4 00004CA4 00000001     A   27623 27190
 =A(CKTRYPRT)
               4 00004154 00000001     A   25571 24571
 =A(CLEANUP)
               4 00000140 00000001     A    7251  6944
 =A(CMDRETRY)
               4 00000404 00000001     A    8272  8129
 =A(CMDRETRY)
               4 00001010 00000001     A   12411 11626
 =A(CMDUNREC)
               4 000020E8 00000001     A   16992 14608
 =A(COMMAND)
               4 0000013C 00000001     A    7250  6877
 =A(CP#XOLD)
               4 00001430 00000001     A   13642 12898
 =A(DEFASPRT)
               4 0000298C 00000001     A   19403 17855
 =A(DEFCMD)
               4 00001448 00000001     A   13648 13365
 =A(DEFCMD)
               4 00004C80 00000001     A   27614 25754
 =A(DELABBR)
               4 000029B4 00000001     A   19413 19264
 =A(DELDEF)
               4 000029B0 00000001     A   19412 19260
 =A(EDTBASE)
               4 00001418 00000001     A   13636 12490  12601  12672
 =A(EDTCOM)
               4 00000160 00000001     A    7259  7216
 =A(EDTCOM)
               4 00001020 00000001     A   12415 11852
 =A(EDTCOM)
               4 000020FC 00000001     A   16997 16076  16286  16775  16934
 =A(EDTCOMMV)
               4 000003E8 00000001     A    8265  7967   8222
 =A(EDTCOMNH)
               4 0000102C 00000001     A   12418 12332
 =A(FREEHCMD)
               4 000020A0 00000001     A   16974 13856
 =A(FREEHCMD)
               4 00003A14 00000001     A   24050 23037  23761
 =A(GBLCMD)
               4 000020C0 00000001     A   16982 14244  14268  14292  14316  15196
 =A(GETHCMD)
               4 00000FDC 00000001     A   12408 11514
 =A(GETTCMD)
               4 00000154 00000001     A    7256  7044
 =A(GETXCCMD)
               4 00000150 00000001     A    7255  7032
 =A(INITCMD)
               4 00000148 00000001     A    7253  6973
 =A(INITCMD)
               4 00001014 00000001     A   12412 11725
 =A(INITCMD)
1COMM     (COMM4072) (12:40) (15MAR04) Ordinary Symbol and Literal Cross Reference                                          Page  153
               4 00001428 00000001     A   13640 12799
 =A(INITSTK)
               4 00000FC8 00000001     A   12403 10825  10909
 =A(JUNKHEAP)
               4 000007A0 00000001     A    9709  8927
 =A(L'CPCMD)
               4 00000158 00000001     A    7257  7120   7132
 =A(L'CPCMD)
               4 00000400 00000001     A    8271  8071   8083   8177
 =A(L'CPSIB)
               4 000007BC 00000001     A    9716  9106   9118
 =A(L'HCMDTEXT)
               4 00003A08 00000001     A   24047 22851  22863  23187  23199
 =A(MACOLD)
               4 000020D4 00000001     A   16987 14433  14515
 =A(NETCMD)
               4 00001440 00000001     A   13646 13260
 =A(NETCMD)
               4 00004140 00000001     A   25566 24349
 =A(PRT)       4 00001454 00000001     A   13651 13586
 =A(PRT)       4 0000414C 00000001     A   25569 24452
 =A(PRT)       4 00004C84 00000001     A   27615 25857  26072  26343  27075
 =A(RETRY)
               4 000003FC 00000001     A    8270  8063
 =A(RETRY)
               4 000007E0 00000001     A    9725  9610
 =A(RETRY)
               4 000020A4 00000001     A   16975 13873
 =A(SDFPRT)
               4 000032FC 00000001     A   21981 19560
 =A(SETTRY)
               4 000007C8 00000001     A    9719  9266
 =A(SHHPRT)
               4 000039D0 00000001     A   24039 22230
 =A(SOPPRT)
               4 000020EC 00000001     A   16993 15309
 =A(STKOVER)
               4 00000FB4 00000001     A   12398 10163
 =A(1)         4 000003E4 00000001     A    8264  7940
 =A(1)         4 000029A0 00000001     A   19408 18569
 =A(115)       4 000022B8 00000001     A   17401 17160
 =A(15)        4 00000FD8 00000001     A   12407 11206  11218
 =A(16)        4 00002984 00000001     A   19401 17770  19116
 =A(16)        4 00003324 00000001     A   21991 20382
 =A(2)         4 000003EC 00000001     A    8266  7989
 =A(235)       4 00003334 00000001     A   21995 20580
 =A(3)         4 000003F4 00000001     A    8268  8035
 =A(3)         4 000020D8 00000001     A   16988 14452
 =A(3600)      4 00000F9C 00000001     A   12392  9827   9839
 =A(5)         4 000020D0 00000001     A   16986 14411
 =A(500)       4 00000FA0 00000001     A   12393  9863   9875
 =A(7)         4 000020DC 00000001     A   16989 14493
 =A(9)         4 000020BC 00000001     A   16981 14153  14166  14178
 =AL2(CPHCMD#)
               2 00003A2E 00000001     R   24058 23028
 =AL2(L'HCMD)
               2 00003A2C 00000001     R   24057 22873  23995
 =AL2(L'KERCMD)
               2 0000214E 00000001     R   17010 16917
1COMM     (COMM4072) (12:40) (15MAR04) Ordinary Symbol and Literal Cross Reference                                          Page  154
 =AL2(L'MACROCMD)
               2 0000214C 00000001     R   17009 16263
 =AL2(L'PUBCMD)
               2 0000214A 00000001     R   17008 16053
 =AL2(4+1)
               2 000022DC 00000001     R   17408 17300
 =AL4(235)
               4 00003368 00000001     R   21998 20727  20756
 =C'  X.'      4 000020C4 00000001     C   16983 14249
 =C' (RC='
               5 00001042 00000001     C   12424 10629
 =C' characters too long.'
              21 000022DE 00000001     C   17409 17212
 =C' missing.'
               9 00001069 00000001     C   12427 11437
 =C' out of pages.  Command aborted.'
              32 00000F40 00000001     C   12385 11019
 =C' PUBLIC'
               7 00002182 00000001     C   17017 16586
 =C'...'       3 000033B2 00000001     C   22006 19708
 =C')'         1 00001047 00000001     C   12425 10691
 =C'- '        2 0000337E 00000001     C   22004 19664
 =C'/'         1 00002189 00000001     C   17018 16667
 =C'> '        2 0000042E 00000001     C    8275  7642
 =C'? '        2 0000042C 00000001     C    8274  7622
 =C': '        2 0000212A 00000001     C   17006 15373
 =C': invalid.  '
              12 00004CA8 00000001     C   27624 27563
 =C': invalid.  Command may not be used '
              36 0000415C 00000001     C   25573 24995
 =C': invalid.  Command may not be used with CDUMP prefix. '
              55 00004CBA 00000001     C   27628 26828
 =C': invalid.'
              10 00001034 00000001     C   12421 11273
 =C'@OK'       3 00000432 00000001     C    8277  7698
 =C'command.'
               8 00002078 00000001     C   16969 15411
 =C'is not a DEFINED command.'
              25 00002A31 00000001     C   19420 19222
 =C'option.'
               7 0000216C 00000001     C   17015 15458
 =C'unrecognized '
              13 0000215F 00000001     C   17014 15395
 =C'with TRY prefix.'
              16 000040D0 00000001     C   25557 25013
 =C'ADMIN'
               5 00002150 00000001     C   17011 14424
 =C'Command is not yet implemented.'
              31 00004E8E 00000001     C   27842 27807
 =C'Command may not be used with QUIET prefix. '
              43 00004CF1 00000001     C   27629 27581
 =C'Command truncated to 235 characters.'
              36 00000408 00000001     C    8273  8188
 =C'CMD'       3 00003A32 00000001     C   24060 22901  23408  23861
 =C'COLLECT'
               7 00000435 00000001     C    8278  7963
 =C'DEFINE append text too long. Define not done.'
              45 000033B5 00000001     C   22007 20766
 =C'DEFINE replacement text too long. Define not done.'
1COMM     (COMM4072) (12:40) (15MAR04) Ordinary Symbol and Literal Cross Reference                                          Page  155
              50 00003380 00000001     C   22005 20737
 =C'DEFINE substitution exceeds 235 characters. '
              44 00003338 00000001     C   21996 20590
 =C'EXEC break at line '
              19 0000419A 00000001     C   25583 25204
 =C'EXEC error at line '
              19 000041AD 00000001     C   25584 25447
 =C'Missing "AS ''new command''".  Define not done.'
              45 00002A04 00000001     C   19419 17904  18274
 =C'Missing operand.'
              16 00000F88 00000001     C   12390 11369
 =C'Missing user-command name.'
              26 000029BE 00000001     C   19416 19023
 =C'Missing Public EXEC file name.'
              30 0000212C 00000001     C   17007 15967
 =C'MILTEN interface error.  Command aborted'
              40 00000F00 00000001     C   12381 10597
 =C'No action taken.'
              16 00000F68 00000001     C   12387 11129
 =C'No commands in history list.'
              28 000039D8 00000001     C   24041 22269
 =C'No previous command matches.'
              28 00000FE0 00000001     C   12409 11539
 =C'No previous command.'
              20 00000FFC 00000001     C   12410 11560
 =C'OHCM'      4 00003A1C 00000001     C   24052 23878
 =C'OS command is '
              14 000022CC 00000001     C   17406 17172
 =C'PUB.'      4 000020CC 00000001     C   16985 14297
 =C'PUB.SYSNET'
              10 00002120 00000001     C   17005 15192
 =C'Stack overflow.  Command aborted.'
              33 00001048 00000001     C   12426 10846  10930
 =C'SES.'      4 000020C8 00000001     C   16984 14273
 =C'SUG'       3 00002155 00000001     C   17012 14465
 =C'SUGGEST'
               7 00002158 00000001     C   17013 14474  14506
 =C'SYSCLR'
               6 0000211A 00000001     C   17004 14953
 =C'SYSCMD '
               7 000029D8 00000001     C   19417 17820
 =C'SYSCMD command can not be re-defined.'
              37 000029DF 00000001     C   19418 17830
 =C'SYSDMP'
               6 00002114 00000001     C   17003 14891
 =C'SYSSET'
               6 00002108 00000001     C   17001 14767
 =C'SYSSHO'
               6 0000210E 00000001     C   17002 14829
 =C'TRY '      4 00001028 00000001     C   12417 12176
 =C'XCALL COMMANDS#'
              15 00002173 00000001     C   17016 16541
 =CL(L'CFINVAR)'SYSCMD_'
              16 00002068 00000001     C   16968 14021
 =CL(L'CPWCHAR)'GENERAL'
              16 000003A0 00000001     C    8253  7312   7324
 =CL16'SYS.EMSG        '
              16 00004108 00000001     C   25561 25359
 =CL16'SYS.ERRINFO     '
1COMM     (COMM4072) (12:40) (15MAR04) Ordinary Symbol and Literal Cross Reference                                          Page  156
              16 00004128 00000001     C   25563 25503
 =CL16'SYS.TRYID       '
              16 000040F8 00000001     C   25560 25348
 =CL16'SYS.TRYINFO     '
              16 000040E0 00000001     C   25558 25227  25260  25470
 =CL16'SYS.TRYMSG      '
              16 00004118 00000001     C   25562 25381
 =CL16'TYPED_COMMANDS'
              16 000003B0 00000001     C    8254  7882
 =CL8'CLEAR'
               8 00002090 00000001     C   16972 15809
 =CL8'CVSTACK:'
               8 00000EF8 00000001     C   12380  9887  10018
 =CL8'ERROR   '
               8 000040F0 00000001     C   25559 25341
 =CL8'INVALID'
               8 00000F78 00000001     C   12388 11264
 =CL8'MILERR'
               8 00000F28 00000001     C   12382 10709
 =CL8'MISSPUB'
               8 00002098 00000001     C   16973 15964
 =CL8'NOACTION'
               8 00000F60 00000001     C   12386 11120
 =CL8'OPMISSNG'
               8 00000F80 00000001     C   12389 11360
 =CL8'OUTPGS'
               8 00000F38 00000001     C   12384 11016
 =CL8'SET'
               8 00002080 00000001     C   16970 15681
 =CL8'SHOW'
               8 00002088 00000001     C   16971 15745
 =CL8'STKOVFL'
               8 00000F30 00000001     C   12383 10843  10927
 =F'-1'        4 00000F98 00000001     F   12391  9802
 =F'-1'        4 00003A20 00000001     F   24053 23987  23988
 =F'-1000'
               4 00004C94 00000001     F   27619 26169
 =F'-8'        4 00000FB0 00000001     F   12397 10118
 =F'115'       4 000022BC 00000001     F   17402 17166
 =F'16'        4 00003378 00000001     F   22002 21851
 =F'7'         4 00004E84 00000001     F   27839 27694
 =H'-4'        2 00003A30 00000001     H   24059 23660
 =H'235'       2 00001030 00000001     H   12419  9775
 =H'25'        2 00004E8C 00000001     H   27841 27695
 =H'7'         2 00001032 00000001     H   12420 10117
 =V(ALLOWATN)
               4 000007C0 00000001     V    9717  9188
 =V(ALLOWATN)
               4 00001438 00000001     V   13644 13050
 =V(BILLCHK)
               4 000003C0 00000001     V    8255  7327
 =V(BILLCHK)
               4 000007A8 00000001     V    9711  8947
 =V(BTD)       4 00000FC0 00000001     V   12401 10661
 =V(DCLOSE)
               4 00000774 00000001     V    9698  8541
 =V(DENQFREE)
               4 00000770 00000001     V    9697  8519
 =V(DEQUOTE)
1COMM     (COMM4072) (12:40) (15MAR04) Ordinary Symbol and Literal Cross Reference                                          Page  157
               4 0000299C 00000001     V   19407 18432  18552
 =V(DICTCLS)
               4 0000076C 00000001     V    9696  8505
 =V(DTB)       4 00003A18 00000001     V   24051 23347
 =V(EVALSTR)
               4 00001024 00000001     V   12416 12124
 =V(EXECABRT)
               4 000007D8 00000001     V    9723  9480
 =V(EXTCLOSE)
               4 00000758 00000001     V    9691  8385
 =V(FMTTIME)
               4 000039FC 00000001     V   24044 22458
 =V(FREECORE)
               4 0000015C 00000001     V    7258  7189
 =V(FREECORE)
               4 00003A24 00000001     V   24054 23999
 =V(GETCORE)
               4 00003A0C 00000001     V   24048 22877
 =V(GETDATA)
               4 0000418C 00000001     V   25577 25362
 =V(GETEXCMD)
               4 0000014C 00000001     V    7254  7003
 =V(HOLDATN)
               4 00001434 00000001     V   13643 13027
 =V(INITPCMD)
               4 000003C8 00000001     V    8257  7473
 =V(JESICLS)
               4 00000760 00000001     V    9693  8433
 =V(JESOCLS)
               4 0000075C 00000001     V    9692  8409
 =V(JESSND)
               4 000020AC 00000001     V   16977 14001
 =V(KRSCFREE)
               4 00000768 00000001     V    9695  8481
 =V(KWRFREE)
               4 00000764 00000001     V    9694  8457
 =V(LASTLINE)
               4 00000790 00000001     V    9705  8875
 =V(LINEMOD)
               4 0000101C 00000001     V   12414 11840
 =V(LMSGCHK)
               4 0000077C 00000001     V    9700  8691
 =V(LOCALTOD)
               4 00003A10 00000001     V   24049 22904
 =V(LOCALTOD)
               4 00004E80 00000001     V   27838 27682
 =V(LRTRIM)
               4 000022B4 00000001     V   17400 17130
 =V(LRTRIM)
               4 00003330 00000001     V   21994 20548
 =V(LRTRIM)
               4 00003A04 00000001     V   24046 22824  23160
 =V(MONCMD)
               4 00000144 00000001     V    7252  6964
 =V(NOTVALID)
               4 000020A8 00000001     V   16976 13900
 =V(NOTVALID)
               4 000022B0 00000001     V   17399 17108
 =V(NOTVALID)
1COMM     (COMM4072) (12:40) (15MAR04) Ordinary Symbol and Literal Cross Reference                                          Page  158
               4 00002980 00000001     V   19400 17703  17728  17753  17779  18343  18424  18544  19049  19074  19099
                                                 19125
 =V(NOTVALID)
               4 000039CC 00000001     V   24038 22137
 =V(NSCAN)
               4 0000144C 00000001     V   13649 13489  13590
 =V(NSCAN)
               4 000020B4 00000001     V   16979 14067  14107  14369  14573  15313  15932
 =V(NSCAN)
               4 00002978 00000001     V   19398 17668  17859  18989
 =V(NSCAN)
               4 00003300 00000001     V   21982 19564  20343  20511
 =V(NSCAN)
               4 000039C8 00000001     V   24037 22109  22234
 =V(NSCAN)
               4 00004144 00000001     V   25567 24388  24456  24575
 =V(NSCAN)
               4 00004C88 00000001     V   27616 25861  26076  26279  26347  26461  27011  27079  27194
 =V(ORVCABRT)
               4 000003F0 00000001     V    8267  8012
 =V(ORVCHK)
               4 000007DC 00000001     V    9724  9496
 =V(ORVCMD)
               4 000020E4 00000001     V   16991 14604
 =V(ORVCPASS)
               4 00000FD4 00000001     V   12406 11197  11341
 =V(ORVCPASS)
               4 00002990 00000001     V   19404 17898  18268  18339
 =V(ORVRETN)
               4 000007D4 00000001     V    9722  9411
 =V(PAGECMD)
               4 000003CC 00000001     V    8258  7536
 =V(PAGEMOD)
               4 00000784 00000001     V    9702  8737
 =V(PAGEMOD)
               4 00001018 00000001     V   12413 11783
 =V(PAGEMON)
               4 000007A4 00000001     V    9710  8932
 =V(PAGEMSG)
               4 00000780 00000001     V    9701  8717
 =V(PAGERES)
               4 00000788 00000001     V    9703  8753
 =V(PFREEA)
               4 00000794 00000001     V    9706  8913
 =V(PFREEA)
               4 0000141C 00000001     V   13637 12739
 =V(PFREEB)
               4 00000798 00000001     V    9707  8919
 =V(PFREEB)
               4 00001420 00000001     V   13638 12745
 =V(PJNKTMP)
               4 0000079C 00000001     V    9708  8923
 =V(PJNKTMP)
               4 00001424 00000001     V   13639 12749
 =V(PREPROC)
               4 0000143C 00000001     V   13645 13113
 =V(RTRIM)
               4 000003F8 00000001     V    8269  8044   8145
 =V(SAVEDATA)
1COMM     (COMM4072) (12:40) (15MAR04) Ordinary Symbol and Literal Cross Reference                                          Page  159
               4 00004188 00000001     V   25576 25230  25263  25351  25384  25473  25506
 =V(SCANCHK)
               4 00001458 00000001     V   13652 13604
 =V(SCANCHK)
               4 000020B8 00000001     V   16980 14081  14121  15327  15946
 =V(SCANCHK)
               4 0000297C 00000001     V   19399 17682  17873  19003
 =V(SCANCHK)
               4 00003304 00000001     V   21983 19578
 =V(SCANCHK)
               4 000039D4 00000001     V   24040 22248
 =V(SCANCHK)
               4 00004150 00000001     V   25570 24470
 =V(SCANCHK)
               4 00004C8C 00000001     V   27617 25876  26091  26362  27093
 =V(SCINIT)
               4 00001450 00000001     V   13650 13523
 =V(SCINIT)
               4 0000413C 00000001     V   25565 24234  24422
 =V(SCINIT)
               4 00004C78 00000001     V   27612 25740  26046  26313  27045
 =V(SCUPCASE)
               4 000020E0 00000001     V   16990 14599  15996  16206  16509
 =V(SCUPCASE)
               4 00002988 00000001     V   19402 17806  19152
 =V(SCUPCASE)
               4 00003320 00000001     V   21990 19963  19983  20072  20158  20412
 =V(SEG)       4 00000138 00000001     V    7249  6873
 =V(SEG)       4 000003D0 00000001     V    8259  7568   7614
 =V(SEG)       4 00000FB8 00000001     V   12399 10486  10609  10641  10685  10703  11245  12188  12264
 =V(SEG)       4 000020F0 00000001     V   16994 15367  15385  15407  16553  16598  16679  16705
 =V(SEG)       4 000022C0 00000001     V   17403 17184  17256
 =V(SEG)       4 00003314 00000001     V   21987 19676  19702  19720  19747
 =V(SEG)       4 000039F8 00000001     V   24043 22446  22485  22517
 =V(SEG)       4 00004158 00000001     V   25572 24989  25007  25216  25459
 =V(SEG)       4 00004C9C 00000001     V   27621 26822  27557  27575
 =V(SEGB)      4 00004E88 00000001     V   27840 27724
 =V(SEGCLR)
               4 000003D4 00000001     V    8260  7676
 =V(SEGCLR)
               4 00000FCC 00000001     V   12404 10839  10923
 =V(SEGCR)
               4 00003318 00000001     V   21988 19772
 =V(SEGCR)
               4 00003A00 00000001     V   24045 22548
 =V(SEGDC)
               4 000022C4 00000001     V   17404 17206
 =V(SEGDC)
               4 000039F4 00000001     V   24042 22416
 =V(SEGINIT)
               4 00000FA4 00000001     V   12394  9939  12078  12112
 =V(SEGINIT)
               4 00002100 00000001     V   16998 16536
 =V(SEGINIT)
               4 00004180 00000001     V   25574 25194  25437
 =V(SEGINITR)
               4 00000FAC 00000001     V   12396  9954
 =V(SEGT)      4 00000FD0 00000001     V   12405 11012  12218
 =V(SEGTB)
1COMM     (COMM4072) (12:40) (15MAR04) Ordinary Symbol and Literal Cross Reference                                          Page  160
               4 000020F4 00000001     V   16995 15454  16581
 =V(SEGTB)
               4 000029AC 00000001     V   19411 19216
 =V(SEGTB)
               4 00003310 00000001     V   21986 19658
 =V(SEGWR)
               4 000003D8 00000001     V    8261  7710   8200
 =V(SEGWR)
               4 0000078C 00000001     V    9704  8792   8900   9600
 =V(SEGWR)
               4 00000FC4 00000001     V   12402 10734  11721
 =V(SEGWR)
               4 000022C8 00000001     V   17405 17278
 =V(SEGXLNO)
               4 00004184 00000001     V   25575 25223  25466
 =V(SETATTN)
               4 000007CC 00000001     V    9720  9328
 =V(SETEMSG)
               4 00000778 00000001     V    9699  8585
 =V(SETERROR)
               4 000007D0 00000001     V    9721  9382
 =V(SETPARM)
               4 000020F8 00000001     V   16996 16049  16259
 =V(SIGNOFF)
               4 000003C4 00000001     V    8256  7381   7912
 =V(SIGNOFF)
               4 000007B0 00000001     V    9713  8970
 =V(SIGNRES)
               4 000007B4 00000001     V    9714  9048
 =V(TCNTL)
               4 000007B8 00000001     V    9715  9080
 =V(TCNTL)
               4 00000FBC 00000001     V   12400 10498
 =V(TERMSEG)
               4 00000FA8 00000001     V   12395  9943
 =V(TRASHATN)
               4 000007C4 00000001     V    9718  9224
 =V(TREAD)
               4 000003DC 00000001     V    8262  7760
 =V(TSTAT)
               4 000007AC 00000001     V    9712  8960
 =V(WCTRINCR)
               4 000003E0 00000001     V    8263  7885
 =V(XCMDSCAN)
               4 00001444 00000001     V   13647 13313  13403
 =V(XCMDSCAN)
               4 00004148 00000001     V   25568 24433
 =V(XCMDSCAN)
               4 00004C7C 00000001     V   27613 25747  25792  26053  26324  27056
 =V(XDELETE)
               4 00003374 00000001     V   22001 21638  21921
 =V(XDELSET)
               4 000029B8 00000001     V   19414 19355  19363
 =V(XGET)      4 00003370 00000001     V   22000 20987  21285  21450  21779
 =V(XGETFRST)
               4 0000330C 00000001     V   21985 19597
 =V(XGETNEXT)
               4 0000331C 00000001     V   21989 19781
 =V(XPUT)      4 0000336C 00000001     V   21999 20791  21009  21135  21876
1COMM     (COMM4072) (12:40) (15MAR04) Ordinary Symbol and Literal Cross Reference                                          Page  161
 =V(XSETSET)
               4 00003308 00000001     V   21984 19586  20779  20979  21277  21442  21631  21771
 =X'FF000000'
               4 000032F8 00000001     X   21980 19539
 =X'40000000'
               4 00003364 00000001     X   21997 20602
 =Y((L'CPCMD+3)/4*4)
               2 00004CB4 00000001     Y   27625 25699  26005
 =Y((L'CPSEG+1024+3)/4*4)
               2 00001040 00000001     Y   12423 12274  12344
 =Y((L'CPSEG+1024+3)/4*4)
               2 00004196 00000001     Y   25581 25235  25478
 =Y((L'NSCNCB+3)/4*4)
               2 0000145E 00000001     Y   13654 13529
 =Y((L'NSCNCB+3)/4*4)
               2 00004192 00000001     Y   25579 24428  24590
 =Y((L'NSCNCB+3)/4*4)
               2 00004CB8 00000001     Y   27627 26319  26476  27051  27209
 =Y((R1+1-(R0)+16*((R0)/(R1+1))/((R0)/(R1+1)))*4)
               2 00002104 00000001     Y   16999 13868  16682
 =Y((R1+1-(R0)+16*((R0)/(R1+1))/((R0)/(R1+1)))*4)
               2 000022DA 00000001     Y   17407 17291
 =Y((R1+1-(R14)+16*((R14)/(R1+1))/((R14)/(R1+1)))*4)
               2 0000103E 00000001     Y   12422 12115
 =Y((R1+1-(R14)+16*((R14)/(R1+1))/((R14)/(R1+1)))*4)
               2 00004194 00000001     Y   25580 25197  25440
 =Y((R1+1-(R15)+16*((R15)/(R1+1))/((R15)/(R1+1)))*4)
               2 00000430 00000001     Y    8276  7888
 =Y((12+3)/4*4)
               2 0000145C 00000001     Y   13653 13495  13596
 =Y((12+3)/4*4)
               2 00002106 00000001     Y   17000 14073  14113  14375  14579  15319  15938
 =Y((12+3)/4*4)
               2 000029BC 00000001     Y   19415 17674  17865  18995
 =Y((12+3)/4*4)
               2 0000337C 00000001     Y   22003 19570  20349  20517
 =Y((12+3)/4*4)
               2 00003A28 00000001     Y   24055 22115  22240
 =Y((12+3)/4*4)
               2 00004190 00000001     Y   25578 24394  24462  24581
 =Y((12+3)/4*4)
               2 00004CB6 00000001     Y   27626 25867  26082  26285  26353  26467  27017  27085  27200
 =Y((235+3)/4*4)
               2 00004198 00000001     Y   25582 25387
 =Y((32+3)/4*4)
               2 00003A2A 00000001     Y   24056 22488

1COMM     (COMM4072) (12:40) (15MAR04) Macro and Copy Code Source Summary                                                   Page  162
- Con Source                                        Volume    Members                        HLASM R4.0  2004/03/15 12.40
0     PRIMARY INPUT                                           CSECT    DROP     END      EX       LTORG    POP
                                                              PRINT    PUSH     START    USING
   L1 WYL.GS.WYL.WYLBUR.MACLIB                      SYSB05    ABORT    AINFO    BASE     BOMB     BTD      COLINFO
                                                              COMMENT  CONTROL  CP       CPLOCAL  CV       CVLOCAL  DTB
                                                              ERROR    FAIL     JCB      KAPUT    LOADRTNP NULPEND
                                                              NULXPROC OSCINIT  PFREE    RG       SCAN     SCANCB
                                                              SCANCHK  SCBKUP   SCCBADR  SCCLR    SCINFO   SCINIT   SCKW
                                                              SCPOP    SCPUSH   SCUPCASE SCUPTOK  SEGINIT  TCLEAR
                                                              TCNTL    TCR      TNUM     TPOP     TPUSH    TREAD    TSEG
                                                              TSTAT    TTYPE    TWRITE   VLTORG   XTRACE
   L2 WYL.GG.SYS.MACLIB                             SYSB05    $BC      $BFLKUP  $BV      $CCLKUP  $CRS     $CSS     $L
                                                              $LA      $LBLAD   $LEXP    $LOR     $REL     $RGLKUP
                                                              $USLKUP  ACALL    BEGIN    CEIL     CLEAR    CMPR
                                                              COMPROC  CSECT    DATA     DECR     DEFCC    DEX
                                                              DPROC    DROP     DTEX     ELSE     ELSEIF   END      EX
                                                              FLAG     GEN      HIBAL    IDENT    IF       INCR
                                                              LABEL    LC       LCM      LS       LT       LTH
                                                              LTORG    L2       MOVE     MOVEL    PEND     POP
                                                              PRETURN  PRINT    PROC     PUSH     QLTORG   RECORD   REG
                                                              REGS     SET      SETMSG   START    TDEX     USING
                                                              VCALL    WHILE    WITH     XPROC
   L3 SYS3.IS.MACLIB                                SYSB05    PDB      SEG      SEGCB    SEGCLR   SEGCR    SEGDC
                                                              SEGLD    SEGT     SEGTB    SEGWR    SIB      SYSDEFN  XPOP
                                                              XPUSH
   L5 SYS1.MACLIB                                   MVSBR9    MODESET

1COMM     (COMM4072) (12:40) (15MAR04) Dsect Cross Reference                                                                Page  163
-Dsect     Length      Id       Defn                                                         HLASM R4.0  2004/03/15 12.40
0$$$@R0   00000000  FFFFFFFE     705
 $$$@R1   00000000  FFFFFFFD     718
 $$$@R10  00000000  FFFFFFF4     835
 $$$@R11  00000000  FFFFFFF3     848
 $$$@R12  00000000  FFFFFFF2     861
 $$$@R13  00000000  FFFFFFF1     874
 $$$@R14  00000000  FFFFFFF0     887
 $$$@R15  00000000  FFFFFFEF     900
 $$$@R2   00000000  FFFFFFFC     731
 $$$@R3   00000000  FFFFFFFB     744
 $$$@R4   00000000  FFFFFFFA     757
 $$$@R5   00000000  FFFFFFF9     770
 $$$@R6   00000000  FFFFFFF8     783
 $$$@R7   00000000  FFFFFFF7     796
 $$$@R8   00000000  FFFFFFF6     809
 $$$@R9   00000000  FFFFFFF5     822
 $$$RAABBRWA
          00000210  FFFFFFDC   20861
 $$$RABBRRECD
          00000210  FFFFFFE1   17474
 $$$RCABBRWA
          00000210  FFFFFFDB   21354
 $$$RCFINWA
          00000014  FFFFFFE6   13668
 $$$RCP   00001000  FFFFFFEC    2454
 $$$RCV   00000FB0  FFFFFFEE    1179
 $$$RDABBRWA
          00000210  FFFFFFDA   21681
 $$$RDCMDWA
          000005CC  FFFFFFDD   20217
 $$$RDEFRECD
          00000220  FFFFFFE2   17430
 $$$RDEFWA
          0000022C  FFFFFFE0   17507
 $$$RDEV  0000000C  FFFFFFEB    4668
 $$$RGBLWA
          0000021A  FFFFFFE7   11878
 $$$RGETHWA
          000001D8  FFFFFFD8   23080
 $$$RHCMD 00000017  FFFFFFD9   22016
 $$$RJCB  000000D0  FFFFFFE8    6503
 $$$RMACOWA
          00000008  FFFFFFE4   16118
 $$$RMACWA
          0000012F  FFFFFFE3   16321
 $$$RNSCNCB
          000000B0  FFFFFFED    2375
 $$$RSDFWA
          00000240  FFFFFFDE   19437
 $$$RTTYPE
          0000010C  FFFFFFEA    6199
 $$$RUDEFWA
          00000220  FFFFFFDF   18876
 $$$RUTILWA
          00000008  FFFFFFE5   15844
1COMM     (COMM4072) (12:40) (15MAR04) Dsect Cross Reference                                                                Page  164
 $$$R42   00000038  FFFFFFE9    6306
 HIBAL    00000000  FFFFFFFF     691

1COMM     (COMM4072) (12:40) (15MAR04) Using Map                                                                            Page  165
-                                                                                            HLASM R4.0  2004/03/15 12.40
   Stmt  -----Location----- Action ----------------Using----------------- Reg Max    Last  Label and Using Text
           Count      Id           Type          Value    Range     Id        Disp   Stmt
0   922  00000000  FFFFFFFF USING  ORDINARY    00000000 00001000 FFFFFFEF  15 000          @R15,15
    926  00000000  FFFFFFFF USING  ORDINARY    00000000 00001000 FFFFFFF0  14 024   25442  @R14,14
    930  00000000  FFFFFFFF USING  ORDINARY    00000000 00001000 FFFFFFF1  13 320   27210  @R13,13
    934  00000000  FFFFFFFF USING  ORDINARY    00000000 00001000 FFFFFFF2  12 000          @R12,12
    938  00000000  FFFFFFFF USING  ORDINARY    00000000 00001000 FFFFFFF3  11 000          @R11,11
    942  00000000  FFFFFFFF USING  ORDINARY    00000000 00001000 FFFFFFF4  10 000          @R10,10
    946  00000000  FFFFFFFF USING  ORDINARY    00000000 00001000 FFFFFFF5   9 000          @R9,9
    950  00000000  FFFFFFFF USING  ORDINARY    00000000 00001000 FFFFFFF6   8 008    9997  @R8,8
    954  00000000  FFFFFFFF USING  ORDINARY    00000000 00001000 FFFFFFF7   7 000          @R7,7
    958  00000000  FFFFFFFF USING  ORDINARY    00000000 00001000 FFFFFFF8   6 000          @R6,6
    962  00000000  FFFFFFFF USING  ORDINARY    00000000 00001000 FFFFFFF9   5 000          @R5,5
    966  00000000  FFFFFFFF USING  ORDINARY    00000000 00001000 FFFFFFFA   4 00F   21764  @R4,4
    970  00000000  FFFFFFFF USING  ORDINARY    00000000 00001000 FFFFFFFB   3 003   22934  @R3,3
    974  00000000  FFFFFFFF USING  ORDINARY    00000000 00001000 FFFFFFFC   2 000          @R2,2
    978  00000000  FFFFFFFF USING  ORDINARY    00000000 00001000 FFFFFFFD   1 001   23303  @R1,1
    982  00000000  FFFFFFFF USING  ORDINARY    00000000 00001000 FFFFFFFE   0 000          @R0,0
    983  00000000  FFFFFFFF DROP                                            0              0
   1163  00000017  00000001 USING  ORDINARY    00000000 00001000 FFFFFFEC  11 F48   27721  CP,CPR
   1172  00000017  00000001 USING  ORDINARY    00000000 00001000 FFFFFFEE  12 8E0   27809  CV,CVR
   6842  00000032  00000001 USING  ORDINARY    00000032 00001000 00000001   7 10A    6877  $$$44B,7
   6885  00000042  00000001 USING  ORDINARY    00000000 00001000 FFFFFFF7   7 000          @R7,7
   6931  0000006A  00000001 USING  ORDINARY    0000006A 00001000 00000001   7 0EA    7044  $$$47B,7
   7052  000000BC  00000001 USING  ORDINARY    00000000 00001000 FFFFFFF7   7 000          @R7,7
   7104  000000E4  00000001 USING  ORDINARY    000000E4 00001000 00000001   7 080    7216  $$$53B,7
   7227  0000012A  00000001 USING  ORDINARY    00000000 00001000 FFFFFFF7   7 000          @R7,7
   7303  00000184  00000001 USING  ORDINARY    00000184 00001000 00000001   7 2B8    8222  $$$60B,7
   7359  000001A6  00000001 USING  ORDINARY    00000000 00001000 FFFFFFE8  15 062    7370  JCB,R15
   7377  000001AA  00000001 USING  ORDINARY    00000000 00001000 FFFFFFEF  15 000          @R15,15
   7774  00000286  00000001 USING  ORDINARY    00000000 00001000 FFFFFFE8   2 065    7792  JCB,R2
   7799  0000028E  00000001 USING  ORDINARY    00000000 00001000 FFFFFFFC   2 000   18025  @R2,2
   8231  00000392  00000001 USING  ORDINARY    00000000 00001000 FFFFFFF7   7 000          @R7,7
   8329  0000045C  00000001 USING  ORDINARY    0000045C 00001000 00000001   7 388    9636  $$$94B,7
   8346  00000460  00000001 USING  ORDINARY    00000000 00001000 FFFFFFE8   5 063    9540  JCB,R5
   9662  0000074A  00000001 USING  ORDINARY    00000000 00001000 FFFFFFF7   7 000          @R7,7
   9681  00000758  00000001 USING  ORDINARY    00000000 00001000 FFFFFFF9   5 000          @R5,5
   9761  00000802  00000001 USING  ORDINARY    00000802 00001000 00000001   7 82E    9954  $$$146B,7
   9983  000008B8  00000001 USING  ORDINARY    00000000 00001000 FFFFFFF7   7 000          @R7,7
  10014  000008D0  00000001 USING  ORDINARY    000008D0 00001000 00000001   7 628   10018  $$$152B,7
  10036  000008E8  00000001 USING  ORDINARY    00000000 00001000 FFFFFFF7   7 000          @R7,7
  10081  00000902  00000001 USING  ORDINARY    00000902 00001000 00000001   7 730   10163  $$$154B,7
  10178  00000950  00000001 USING  ORDINARY    00000000 00001000 FFFFFFF7   7 000          @R7,7
  10231  00000978  00000001 USING  ORDINARY    00000978 00001000 00000001   7 000          $$$160B,7
  10247  0000097C  00000001 USING  ORDINARY    00000000 00001000 FFFFFFF7   7 000          @R7,7
  10300  000009A4  00000001 USING  ORDINARY    000009A4 00001000 00000001   7 000          $$$163B,7
  10316  000009A8  00000001 USING  ORDINARY    00000000 00001000 FFFFFFF7   7 000          @R7,7
  10365  000009D0  00000001 USING  ORDINARY    000009D0 00001000 00000001   7 000          $$$166B,7
  10387  000009D6  00000001 USING  ORDINARY    00000000 00001000 FFFFFFF7   7 000          @R7,7
  10441  000009FE  00000001 USING  ORDINARY    000009FE 00001000 00000001   7 5BE   10507  $$$169B,7
  10524  00000A36  00000001 USING  ORDINARY    00000000 00001000 FFFFFFF7   7 000          @R7,7
  10583  00000A5E  00000001 USING  ORDINARY    00000A5E 00001000 00000001   7 5E9   10734  $$$173B,7
  10742  00000AC6  00000001 USING  ORDINARY    00000000 00001000 FFFFFFF7   7 000          @R7,7
  10796  00000AEE  00000001 USING  ORDINARY    00000AEE 00001000 00000001   7 55A   10846  $$$177B,7
  10859  00000B1C  00000001 USING  ORDINARY    00000000 00001000 FFFFFFF7   7 000          @R7,7
1COMM     (COMM4072) (12:40) (15MAR04) Using Map                                                                            Page  166
  10893  00000B2E  00000001 USING  ORDINARY    00000B2E 00001000 00000001   7 51A   10930  $$$180B,7
  10941  00000B6C  00000001 USING  ORDINARY    00000000 00001000 FFFFFFF7   7 000          @R7,7
  10977  00000B86  00000001 USING  ORDINARY    00000B86 00001000 00000001   7 44A   11019  $$$182B,7
  11028  00000BAA  00000001 USING  ORDINARY    00000000 00001000 FFFFFFF7   7 000          @R7,7
  11076  00000BD2  00000001 USING  ORDINARY    00000BD2 00001000 00000001   7 396   11129  $$$185B,7
  11138  00000BF6  00000001 USING  ORDINARY    00000000 00001000 FFFFFFF7   7 000          @R7,7
  11186  00000C1E  00000001 USING  ORDINARY    00000C1E 00001000 00000001   7 416   11273  $$$190B,7
  11282  00000C66  00000001 USING  ORDINARY    00000000 00001000 FFFFFFF7   7 000          @R7,7
  11330  00000C8E  00000001 USING  ORDINARY    00000C8E 00001000 00000001   7 346   11369  $$$195B,7
  11378  00000CB0  00000001 USING  ORDINARY    00000000 00001000 FFFFFFF7   7 000          @R7,7
  11424  00000CD8  00000001 USING  ORDINARY    00000CD8 00001000 00000001   7 391   11437  $$$199B,7
  11446  00000CE4  00000001 USING  ORDINARY    00000000 00001000 FFFFFFF7   7 000          @R7,7
  11496  00000D0C  00000001 USING  ORDINARY    00000D0C 00001000 00000001   7 366   11626  $$$202B,7
  11634  00000D54  00000001 USING  ORDINARY    00000000 00001000 FFFFFFF7   7 000          @R7,7
  11689  00000D7C  00000001 USING  ORDINARY    00000D7C 00001000 00000001   7 2A4   11852  $$$210B,7
  11738  00000D92  00000001 USING  ORDINARY    00000000 00001000 FFFFFFE8   6 062   11750  JCB,R6
  11757  00000D96  00000001 USING  ORDINARY    00000000 00001000 FFFFFFF8   6 000          @R6,6
  11861  00000DD8  00000001 USING  ORDINARY    00000000 00001000 FFFFFFF7   7 000          @R7,7
  12033  00000E00  00000001 USING  ORDINARY    00000E00 00001000 00000001   7 278   12344  $$$225B,7
  12047  00000E00  00000001 USING  ORDINARY    FFFFFFD8 00001000 FFFFFFE7   8 157   12305  GBLWA-(4+36),R8
  12353  00000EE8  00000001 USING  ORDINARY    00000000 00001000 FFFFFFF6   8 000          @R8,8
  12358  00000EE8  00000001 USING  ORDINARY    00000000 00001000 FFFFFFF7   7 000          @R7,7
  12476  00001098  00000001 USING  ORDINARY    00001098 00001000 00000001   7 380   12490  $$$235B,7
  12498  000010A6  00000001 USING  ORDINARY    00000000 00001000 FFFFFFF7   7 000          @R7,7
  12544  000010CE  00000001 USING  ORDINARY    000010CE 00001000 00000001   7 392   12601  $$$238B,7
  12609  000010EC  00000001 USING  ORDINARY    00000000 00001000 FFFFFFF7   7 000          @R7,7
  12655  00001114  00000001 USING  ORDINARY    00001114 00001000 00000001   7 304   12672  $$$244B,7
  12680  00001120  00000001 USING  ORDINARY    00000000 00001000 FFFFFFF7   7 000          @R7,7
  12725  00001148  00000001 USING  ORDINARY    00001148 00001000 00000001   7 316   13604  $$$247B,7
  12963  000011EA  00000001 USING  ORDINARY    00000000 00001000 FFFFFFE8  15 000          JCB,R15
  13062  0000121A  00000001 USING  ORDINARY    00000000 00001000 FFFFFFEF  15 000          @R15,15
  13614  00001404  00000001 USING  ORDINARY    00000000 00001000 FFFFFFF7   7 000          @R7,7
  13719  00001480  00000001 USING  ORDINARY    00001480 00001000 00000001   7 D0A   14608  $$$277B,7
  13733  00001480  00000001 USING  ORDINARY    FFFFFFD8 00001000 FFFFFFE6   8 028   13737  CFINWA-(4+36),R8
  13745  00001484  00000001 USING  ORDINARY    00000000 00001000 FFFFFFE6   6 00B   14953  CFINWA,R6
  14616  000017F6  00000001 USING  ORDINARY    00000000 00001000 FFFFFFF6   8 000          @R8,8
  14621  000017F6  00000001 USING  ORDINARY    00000000 00001000 FFFFFFF7   7 000          @R7,7
  14758  0000190E  00000001 USING  ORDINARY    0000190E 00001000 00000001   7 7FA   14767  $$$301B,7
  14775  00001918  00000001 USING  ORDINARY    00000000 00001000 FFFFFFF7   7 000          @R7,7
  14820  00001940  00000001 USING  ORDINARY    00001940 00001000 00000001   7 7CE   14829  $$$304B,7
  14837  0000194A  00000001 USING  ORDINARY    00000000 00001000 FFFFFFF7   7 000          @R7,7
  14882  00001972  00000001 USING  ORDINARY    00001972 00001000 00000001   7 7A2   14891  $$$307B,7
  14899  0000197C  00000001 USING  ORDINARY    00000000 00001000 FFFFFFF7   7 000          @R7,7
  14944  000019A4  00000001 USING  ORDINARY    000019A4 00001000 00000001   7 776   14953  $$$310B,7
  14961  000019AE  00000001 USING  ORDINARY    00000000 00001000 FFFFFFF7   7 000          @R7,7
  15005  000019D6  00000001 USING  ORDINARY    000019D6 00001000 00000001   7 02E   15043  $$$313B,7
  15077  00001A10  00000001 USING  ORDINARY    00000000 00001000 FFFFFFF7   7 000          @R7,7
  15097  00001A1E  00000001 USING  ORDINARY    00000000 00001000 FFFFFFF8   6 004   17337  @R6,6
  15137  00001A38  00000001 USING  ORDINARY    00001A38 00001000 00000001   7 6E8   15196  $$$318B,7
  15210  00001A62  00000001 USING  ORDINARY    00000000 00001000 FFFFFFF7   7 000          @R7,7
  15260  00001A8A  00000001 USING  ORDINARY    00001A8A 00001000 00000001   7 6E2   15458  $$$322B,7
  15483  00001B56  00000001 USING  ORDINARY    00000000 00001000 FFFFFFF7   7 000          @R7,7
  15605  00001C46  00000001 USING  ORDINARY    00001C46 00001000 00000001   7 000          $$$327B,7
  15627  00001C50  00000001 USING  ORDINARY    00000000 00001000 FFFFFFF7   7 000          @R7,7
  15672  00001C78  00000001 USING  ORDINARY    00001C78 00001000 00000001   7 408   15681  $$$330B,7
  15691  00001C84  00000001 USING  ORDINARY    00000000 00001000 FFFFFFF7   7 000          @R7,7
  15736  00001CAC  00000001 USING  ORDINARY    00001CAC 00001000 00000001   7 3DC   15745  $$$333B,7
  15755  00001CB8  00000001 USING  ORDINARY    00000000 00001000 FFFFFFF7   7 000          @R7,7
  15800  00001CE0  00000001 USING  ORDINARY    00001CE0 00001000 00000001   7 3B0   15809  $$$336B,7
1COMM     (COMM4072) (12:40) (15MAR04) Using Map                                                                            Page  167
  15819  00001CEC  00000001 USING  ORDINARY    00000000 00001000 FFFFFFF7   7 000          @R7,7
  15894  00001D14  00000001 USING  ORDINARY    00001D14 00001000 00000001   7 436   16076  $$$339B,7
  15908  00001D14  00000001 USING  ORDINARY    FFFFFFD8 00001000 FFFFFFE5   8 028   16052  UTILWA-(4+36),R8
  16085  00001DE2  00000001 USING  ORDINARY    00000000 00001000 FFFFFFF6   8 000          @R8,8
  16090  00001DE2  00000001 USING  ORDINARY    00000000 00001000 FFFFFFF7   7 000          @R7,7
  16167  00001E34  00000001 USING  ORDINARY    00001E34 00001000 00000001   7 318   16286  $$$346B,7
  16181  00001E34  00000001 USING  ORDINARY    FFFFFFD8 00001000 FFFFFFE4   8 028   16262  MACOWA-(4+36),R8
  16296  00001E98  00000001 USING  ORDINARY    00000000 00001000 FFFFFFF6   8 000          @R8,8
  16301  00001E98  00000001 USING  ORDINARY    00000000 00001000 FFFFFFF7   7 000          @R7,7
  16469  00001EF0  00000001 USING  ORDINARY    00001EF0 00001000 00000001   7 2A0   16775  $$$360B,7
  16483  00001EF0  00000001 USING  ORDINARY    FFFFFFD8 00001000 FFFFFFE3   8 06C   16765  MACWA-(4+36),R8
  16785  00001FC8  00000001 USING  ORDINARY    00000000 00001000 FFFFFFF6   8 000          @R8,8
  16790  00001FC8  00000001 USING  ORDINARY    00000000 00001000 FFFFFFF7   7 000          @R7,7
  16841  00001FF0  00000001 USING  ORDINARY    00001FF0 00001000 00000001   7 000          $$$370B,7
  16857  00001FF4  00000001 USING  ORDINARY    00000000 00001000 FFFFFFF7   7 000          @R7,7
  16907  0000201C  00000001 USING  ORDINARY    0000201C 00001000 00000001   7 132   16934  $$$373B,7
  16944  00002038  00000001 USING  ORDINARY    00000000 00001000 FFFFFFF7   7 000          @R7,7
  17061  000021B0  00000001 USING  ORDINARY    000021B0 00001000 00000001   7 144   17365  $$$376B,7
  17377  000022A2  00000001 USING  ORDINARY    00000000 00001000 FFFFFFF7   7 000          @R7,7
  17575  00002314  00000001 USING  ORDINARY    00002314 00001000 00000001   7 73C   18064  $$$387B,7
  17589  00002314  00000001 USING  ORDINARY    FFFFFFD8 00001000 FFFFFFE0   8 028   17593  DEFWA-(4+36),R8
  17601  00002318  00000001 USING  ORDINARY    00000000 00001000 FFFFFFE0   6 00C   18645  DEFWA,R6
  17611  0000231C  00000001 USING  ORDINARY    00000000 00001000 FFFFFFE2   5 200   18831  DEFRECD,R5
  18083  000024D0  00000001 USING  ORDINARY    00000000 00001000 FFFFFFF6   8 000          @R8,8
  18088  000024D0  00000001 USING  ORDINARY    00000000 00001000 FFFFFFF7   7 000          @R7,7
  18257  0000263A  00000001 USING  ORDINARY    0000263A 00001000 00000001   7 3CA   18274  $$$405B,7
  18283  0000264C  00000001 USING  ORDINARY    00000000 00001000 FFFFFFF7   7 000          @R7,7
  18328  00002674  00000001 USING  ORDINARY    00002674 00001000 00000001   7 31C   18343  $$$408B,7
  18351  00002680  00000001 USING  ORDINARY    00000000 00001000 FFFFFFF7   7 000          @R7,7
  18396  000026A8  00000001 USING  ORDINARY    000026A8 00001000 00000001   7 2F4   18440  $$$411B,7
  18471  000026DA  00000001 USING  ORDINARY    00000000 00001000 FFFFFFF7   7 000          @R7,7
  18516  00002702  00000001 USING  ORDINARY    00002702 00001000 00000001   7 29E   18569  $$$416B,7
  18586  0000272A  00000001 USING  ORDINARY    00000000 00001000 FFFFFFF7   7 000          @R7,7
  18631  00002752  00000001 USING  ORDINARY    00002752 00001000 00000001   7 000          $$$421B,7
  18652  00002756  00000001 USING  ORDINARY    00000000 00001000 FFFFFFF7   7 000          @R7,7
  18697  0000277E  00000001 USING  ORDINARY    0000277E 00001000 00000001   7 000          $$$424B,7
  18712  0000277E  00000001 USING  ORDINARY    00000000 00001000 FFFFFFF7   7 000          @R7,7
  18757  000027A6  00000001 USING  ORDINARY    000027A6 00001000 00000001   7 000          $$$427B,7
  18772  000027A6  00000001 USING  ORDINARY    00000000 00001000 FFFFFFF7   7 000          @R7,7
  18817  000027CE  00000001 USING  ORDINARY    000027CE 00001000 00000001   7 000          $$$430B,7
  18838  000027D2  00000001 USING  ORDINARY    00000000 00001000 FFFFFFF7   7 000          @R7,7
  18858  000027E0  00000001 USING  ORDINARY    00000000 00001000 FFFFFFF9   5 000          @R5,5
  18865  000027E0  00000001 USING  ORDINARY    00000000 00001000 FFFFFFF8   6 000          @R6,6
  18927  000027FA  00000001 USING  ORDINARY    000027FA 00001000 00000001   7 237   19264  $$$433B,7
  18941  000027FA  00000001 USING  ORDINARY    FFFFFFD8 00001000 FFFFFFDF   8 028   18945  UDEFWA-(4+36),R8
  18953  000027FE  00000001 USING  ORDINARY    00000000 00001000 FFFFFFE2   6 200   19257  DEFRECD,R6
  19275  00002924  00000001 USING  ORDINARY    00000000 00001000 FFFFFFF6   8 000          @R8,8
  19280  00002924  00000001 USING  ORDINARY    00000000 00001000 FFFFFFF7   7 000          @R7,7
  19299  00002932  00000001 USING  ORDINARY    00000000 00001000 FFFFFFF8   6 000          @R6,6
  19340  0000294C  00000001 USING  ORDINARY    0000294C 00001000 00000001   7 06C   19363  $$$444B,7
  19376  0000296A  00000001 USING  ORDINARY    00000000 00001000 FFFFFFF7   7 000          @R7,7
  19490  00002A70  00000001 USING  ORDINARY    00002A70 00001000 00000001   7 942   19786  $$$447B,7
  19504  00002A70  00000001 USING  ORDINARY    FFFFFFD8 00001000 FFFFFFDE   8 028   19508  SDFWA-(4+36),R8
  19516  00002A74  00000001 USING  ORDINARY    00000000 00001000 FFFFFFDE   6 020   20151  SDFWA,R6
  19526  00002A78  00000001 USING  ORDINARY    00000000 00001000 FFFFFFE2   5 020   19778  DEFRECD,R5
  19801  00002BAC  00000001 USING  ORDINARY    00000000 00001000 FFFFFFF6   8 000          @R8,8
  19806  00002BAC  00000001 USING  ORDINARY    00000000 00001000 FFFFFFF7   7 000          @R7,7
  19933  00002C9E  00000001 USING  ORDINARY    00002C9E 00001000 00000001   7 682   19983  $$$453B,7
  19995  00002CC0  00000001 USING  ORDINARY    00000000 00001000 FFFFFFF7   7 000          @R7,7
1COMM     (COMM4072) (12:40) (15MAR04) Using Map                                                                            Page  168
  20042  00002CE8  00000001 USING  ORDINARY    00002CE8 00001000 00000001   7 638   20072  $$$456B,7
  20084  00002CFC  00000001 USING  ORDINARY    00000000 00001000 FFFFFFF7   7 000          @R7,7
  20131  00002D24  00000001 USING  ORDINARY    00002D24 00001000 00000001   7 5FC   20158  $$$459B,7
  20170  00002D34  00000001 USING  ORDINARY    00000000 00001000 FFFFFFF7   7 000          @R7,7
  20189  00002D42  00000001 USING  ORDINARY    00000000 00001000 FFFFFFF9   5 000   23558  @R5,5
  20196  00002D42  00000001 USING  ORDINARY    00000000 00001000 FFFFFFF8   6 000          @R6,6
  20267  00002D5C  00000001 USING  ORDINARY    00002D5C 00001000 00000001   7 620   20608  $$$462B,7
  20281  00002D5C  00000001 USING  ORDINARY    FFFFFFD8 00001000 FFFFFFDD   8 248   20600  DCMDWA-(4+36),R8
  20293  00002D60  00000001 USING  ORDINARY    00000000 00001000 FFFFFFE2   6 010   20540  DEFRECD,R6
  20622  00002EE8  00000001 USING  ORDINARY    00000000 00001000 FFFFFFF6   8 000          @R8,8
  20627  00002EE8  00000001 USING  ORDINARY    00000000 00001000 FFFFFFF7   7 000          @R7,7
  20646  00002EF6  00000001 USING  ORDINARY    00000000 00001000 FFFFFFF8   6 000          @R6,6
  20694  00002F10  00000001 USING  ORDINARY    00002F10 00001000 00000001   7 4A5   20799  $$$471B,7
  20711  00002F12  00000001 USING  ORDINARY    00000000 00001000 FFFFFFE2   6 020   20788  DEFRECD,R6
  20826  00002F8E  00000001 USING  ORDINARY    00000000 00001000 FFFFFFF7   7 000          @R7,7
  20845  00002F9C  00000001 USING  ORDINARY    00000000 00001000 FFFFFFF8   6 000          @R6,6
  20910  00002FB6  00000001 USING  ORDINARY    00002FB6 00001000 00000001   7 3BA   21143  $$$477B,7
  20924  00002FB6  00000001 USING  ORDINARY    FFFFFFD8 00001000 FFFFFFDC   8 028   20928  AABBRWA-(4+36),R8
  20936  00002FBA  00000001 USING  ORDINARY    00000000 00001000 FFFFFFE1   6 200   21132  ABBRRECD,R6
  21180  000030B4  00000001 USING  ORDINARY    00000000 00001000 FFFFFFF6   8 000          @R8,8
  21185  000030B4  00000001 USING  ORDINARY    00000000 00001000 FFFFFFF7   7 000          @R7,7
  21204  000030C2  00000001 USING  ORDINARY    00000000 00001000 FFFFFFF8   6 000          @R6,6
  21253  000030DC  00000001 USING  ORDINARY    000030DC 00001000 00000001   7 294   21293  $$$490B,7
  21270  000030DE  00000001 USING  ORDINARY    00000000 00001000 FFFFFFE2   6 020   21301  DEFRECD,R6
  21315  0000311A  00000001 USING  ORDINARY    00000000 00001000 FFFFFFF7   7 000          @R7,7
  21334  00003128  00000001 USING  ORDINARY    00000000 00001000 FFFFFFF8   6 000          @R6,6
  21403  00003142  00000001 USING  ORDINARY    00003142 00001000 00000001   7 2A0   21538  $$$494B,7
  21417  00003142  00000001 USING  ORDINARY    FFFFFFD8 00001000 FFFFFFDB   8 028   21421  CABBRWA-(4+36),R8
  21429  00003146  00000001 USING  ORDINARY    00000000 00001000 FFFFFFE1   6 010   21447  ABBRRECD,R6
  21548  000031C0  00000001 USING  ORDINARY    00000000 00001000 FFFFFFF6   8 000          @R8,8
  21553  000031C0  00000001 USING  ORDINARY    00000000 00001000 FFFFFFF7   7 000          @R7,7
  21572  000031CE  00000001 USING  ORDINARY    00000000 00001000 FFFFFFF8   6 000          @R6,6
  21618  000031E8  00000001 USING  ORDINARY    000031E8 00001000 00000001   7 18C   21638  $$$503B,7
  21651  00003204  00000001 USING  ORDINARY    00000000 00001000 FFFFFFF7   7 000          @R7,7
  21730  0000322C  00000001 USING  ORDINARY    0000322C 00001000 00000001   7 14C   21921  $$$506B,7
  21744  0000322C  00000001 USING  ORDINARY    FFFFFFD8 00001000 FFFFFFDA   8 028   21748  DABBRWA-(4+36),R8
  21756  00003230  00000001 USING  ORDINARY    00000000 00001000 FFFFFFE1   6 010   21918  ABBRRECD,R6
  21946  000032E8  00000001 USING  ORDINARY    00000000 00001000 FFFFFFF6   8 000          @R8,8
  21951  000032E8  00000001 USING  ORDINARY    00000000 00001000 FFFFFFF7   7 000          @R7,7
  21970  000032F6  00000001 USING  ORDINARY    00000000 00001000 FFFFFFF8   6 000          @R6,6
  22079  00003402  00000001 USING  ORDINARY    00003402 00001000 00000001   7 626   22137  $$$517B,7
  22153  00003466  00000001 USING  ORDINARY    00000000 00001000 FFFFFFF7   7 000          @R7,7
  22203  0000348E  00000001 USING  ORDINARY    0000348E 00001000 00000001   7 59C   22560  $$$521B,7
  22341  0000351E  00000001 USING  ORDINARY    00000000 00001000 FFFFFFD9   4 004   22347  HCMD,R4
  22353  00003524  00000001 USING  ORDINARY    00000000 00001000 FFFFFFFA   4 000          @R4,4
  22390  0000352E  00000001 USING  ORDINARY    00000000 00001000 FFFFFFD9   4 017   22551  HCMD,R4
  22557  000035A0  00000001 USING  ORDINARY    00000000 00001000 FFFFFFFA   4 000          @R4,4
  22570  000035A8  00000001 USING  ORDINARY    00000000 00001000 FFFFFFF7   7 000          @R7,7
  22676  00003672  00000001 USING  ORDINARY    00003672 00001000 00000001   7 000          $$$531B,7
  22697  00003678  00000001 USING  ORDINARY    00000000 00001000 FFFFFFF7   7 000          @R7,7
  22742  000036A0  00000001 USING  ORDINARY    000036A0 00001000 00000001   7 000          $$$534B,7
  22760  000036A6  00000001 USING  ORDINARY    00000000 00001000 FFFFFFF7   7 000          @R7,7
  22813  000036CE  00000001 USING  ORDINARY    000036CE 00001000 00000001   7 368   23042  $$$537B,7
  22889  000036F8  00000001 USING  ORDINARY    00000000 00001000 FFFFFFD9   4 017   22991  HCMD,R4
  23010  00003760  00000001 USING  ORDINARY    00000000 00001000 FFFFFFFA   4 000          @R4,4
  23051  00003778  00000001 USING  ORDINARY    00000000 00001000 FFFFFFF7   7 000          @R7,7
  23132  000037A0  00000001 USING  ORDINARY    000037A0 00001000 00000001   7 2B4   23660  $$$549B,7
  23146  000037A0  00000001 USING  ORDINARY    FFFFFFD8 00001000 FFFFFFD8   8 115   23598  GETHWA-(4+36),R8
  23235  000037D0  00000001 USING  ORDINARY    00000000 00001000 FFFFFFD9   4 017   23255  HCMD,R4
1COMM     (COMM4072) (12:40) (15MAR04) Using Map                                                                            Page  169
  23266  000037E0  00000001 USING  ORDINARY    00000000 00001000 FFFFFFFA   4 000          @R4,4
  23392  00003810  00000001 USING  ORDINARY    00000000 00001000 FFFFFFD9   4 017   23648  HCMD,R4
  23493  0000385C  00000001 DROP                                           15              15
  23497  00003862  00000001 USING  ORDINARY    00000000 00001000 FFFFFFEF  15 000          @R15,15
  23654  0000389E  00000001 USING  ORDINARY    00000000 00001000 FFFFFFFA   4 000          @R4,4
  23676  000038AE  00000001 USING  ORDINARY    00000000 00001000 FFFFFFF6   8 000          @R8,8
  23681  000038AE  00000001 USING  ORDINARY    00000000 00001000 FFFFFFF7   7 000          @R7,7
  23731  000038D6  00000001 USING  ORDINARY    000038D6 00001000 00000001   7 13E   23766  $$$576B,7
  23774  000038EE  00000001 USING  ORDINARY    00000000 00001000 FFFFFFF7   7 000          @R7,7
  23826  00003916  00000001 USING  ORDINARY    00003916 00001000 00000001   7 11C   23999  $$$581B,7
  23844  00003916  00000001 USING  ORDINARY    00000000 00001000 FFFFFFD9   1 016   23994  HCMD,R1
  24007  000039B4  00000001 USING  ORDINARY    00000000 00001000 FFFFFFFD   1 001   26939  @R1,1
  24015  000039B4  00000001 USING  ORDINARY    00000000 00001000 FFFFFFF7   7 000          @R7,7
  24102  00003A74  00000001 USING  ORDINARY    00003A74 00001000 00000001   7 74C   24470  $$$590B,7
  24479  00003BD6  00000001 USING  ORDINARY    00000000 00001000 FFFFFFF7   7 000          @R7,7
  24539  00003BFE  00000001 USING  ORDINARY    00003BFE 00001000 00000001   7 594   24590  $$$603B,7
  24602  00003C6E  00000001 USING  ORDINARY    00000000 00001000 FFFFFFF7   7 000          @R7,7
  24830  00003E76  00000001 USING  ORDINARY    00003E76 00001000 00000001   7 000          $$$606B,7
  24846  00003E7A  00000001 USING  ORDINARY    00000000 00001000 FFFFFFF7   7 000          @R7,7
  24891  00003EA2  00000001 USING  ORDINARY    00003EA2 00001000 00000001   7 000          $$$609B,7
  24913  00003EAA  00000001 USING  ORDINARY    00000000 00001000 FFFFFFF7   7 000          @R7,7
  24958  00003ED2  00000001 USING  ORDINARY    00003ED2 00001000 00000001   7 28A   25013  $$$612B,7
  25022  00003EFA  00000001 USING  ORDINARY    00000000 00001000 FFFFFFF7   7 000          @R7,7
  25087  00003F22  00000001 USING  ORDINARY    00003F22 00001000 00000001   7 28B   25506  $$$615B,7
  25104  00003F26  00000001 USING  ORDINARY    00000000 00001000 FFFFFFE8   6 062   25133  JCB,R6
  25527  000040BA  00000001 USING  ORDINARY    00000000 00001000 FFFFFFF7   7 000          @R7,7
  25546  000040C8  00000001 USING  ORDINARY    00000000 00001000 FFFFFFF8   6 000          @R6,6
  25634  000041E0  00000001 USING  ORDINARY    000041E0 00001000 00000001   7 AD6   25876  $$$628B,7
  25885  000042DA  00000001 USING  ORDINARY    00000000 00001000 FFFFFFF7   7 000          @R7,7
  25940  00004302  00000001 USING  ORDINARY    00004302 00001000 00000001   7 9B4   26091  $$$633B,7
  26100  000043BC  00000001 USING  ORDINARY    00000000 00001000 FFFFFFF7   7 000          @R7,7
  26150  000043E4  00000001 USING  ORDINARY    000043E4 00001000 00000001   7 938   26362  $$$636B,7
  26371  00004502  00000001 USING  ORDINARY    00000000 00001000 FFFFFFF7   7 000          @R7,7
  26425  0000452A  00000001 USING  ORDINARY    0000452A 00001000 00000001   7 78E   26476  $$$642B,7
  26488  0000459A  00000001 USING  ORDINARY    00000000 00001000 FFFFFFF7   7 000          @R7,7
  26730  000047CA  00000001 USING  ORDINARY    000047CA 00001000 00000001   7 000          $$$645B,7
  26746  000047CE  00000001 USING  ORDINARY    00000000 00001000 FFFFFFF7   7 000          @R7,7
  26791  000047F6  00000001 USING  ORDINARY    000047F6 00001000 00000001   7 4C4   26828  $$$648B,7
  26837  0000480C  00000001 USING  ORDINARY    00000000 00001000 FFFFFFF7   7 000          @R7,7
  26887  00004834  00000001 USING  ORDINARY    00004834 00001000 00000001   7 4EE   27093  $$$651B,7
  27102  00004948  00000001 USING  ORDINARY    00000000 00001000 FFFFFFF7   7 000          @R7,7
  27158  00004970  00000001 USING  ORDINARY    00004970 00001000 00000001   7 348   27209  $$$657B,7
  27221  000049E0  00000001 USING  ORDINARY    00000000 00001000 FFFFFFF7   7 000          @R7,7
  27465  00004C12  00000001 USING  ORDINARY    00004C12 00001000 00000001   7 000          $$$660B,7
  27481  00004C16  00000001 USING  ORDINARY    00000000 00001000 FFFFFFF7   7 000          @R7,7
  27526  00004C3E  00000001 USING  ORDINARY    00004C3E 00001000 00000001   7 0B3   27581  $$$663B,7
  27590  00004C66  00000001 USING  ORDINARY    00000000 00001000 FFFFFFF7   7 000          @R7,7
  27671  00004D42  00000001 USING  ORDINARY    00004D42 00001000 00000001   7 14A   27724  $$$666B,7
  27688  00004D4C  00000001 DROP                                           15              15
  27692  00004D52  00000001 USING  ORDINARY    00000000 00001000 FFFFFFEF  15 000          @R15,15
  27733  00004D74  00000001 USING  ORDINARY    00000000 00001000 FFFFFFF7   7 000          @R7,7
  27794  00004E64  00000001 USING  ORDINARY    00004E64 00001000 00000001   7 02A   27807  $$$669B,7
  27816  00004E70  00000001 USING  ORDINARY    00000000 00001000 FFFFFFF7   7 000          @R7,7

1         (COMM4072) (12:40) (15MAR04) General Purpose Register Cross Reference                                             Page  170
- Register  References (M=modified, B=branch, U=USING, D=DROP, N=index)                      HLASM R4.0  2004/03/15 12.40
0    0(0)      982U   983D  2099   2167M  2167   2168M  6825   6893M  6914   6978   7060M  7087   7213M  7235M  7286
              7426M  7435M  7435   7557M  7603M  7623M  7643M  7699M  7719M  7719   7823M  7823   7872M  7872   7879
              7889M  7964M  8003M  8003   8041   8054M  8054   8142   8155M  8155   8165M  8177   8189M  8215M  8239M
              8312   8781M  8781   8889M  8889   9077M  9097   9106   9118M  9123   9589M  9589   9605M  9605   9670M
              9747   9806M  9807M  9807   9820M  9827   9839M  9863   9875M  9884   9943M  9968M 10000  10021M 10064
             10099M 10099  10108  10117M 10118M 10142  10171  10186M 10214  10255M 10283  10324M 10348  10395M 10424
             10475M 10495M 10532M 10566  10598M 10630M 10651M 10651  10692M 10723M 10723  10750M 10779  10847M 10867M
             10897  10931M 10960  11001M 11020M 11036M 11059  11130M 11146M 11169  11199M 11200M 11200  11203M 11203
             11206  11218M 11274M 11290M 11313  11370M 11386M 11407  11438M 11454M 11479  11540M 11561M 11584  11585
             11642M 11672  11710M 11710  11837M 11869M 12015  12051  12067M 12087  12090M 12116M 12119M 12177M 12207M
             12224M 12237M 12237  12329M 12366M 12459  12486  12506M 12527  12553  12594  12617M 12638  12665  12688M
             12708  12847M 13078M 13115  13183M 13196M 13196  13218M 13232M 13232  13302M 13306  13392M 13396  13436M
             13440  13475M 13475  13484  13485  13486  13504M 13560M 13564  13575M 13575  13584  13585  13622M 13701
             13827M 13834M 13837  13869M 13986M 13993M 14037M 14041  14052M 14052  14061  14062  14093M 14093  14102
             14103  14104  14136M 14136  14153  14163  14241M 14265M 14289M 14313M 14340M 14344  14355M 14355  14364
             14365  14366  14411  14452  14475M 14493  14544M 14548  14559M 14559  14568  14569  14570  14629M 14741
             14783M 14803  14845M 14865  14907M 14927  14969M 14988  15085M 15120  15167M 15184  15193M 15218M 15243
             15283M 15287  15298M 15298  15307  15308  15338M 15338  15374M 15396M 15412M 15443M 15459M 15491M 15588
             15635M 15655  15699M 15719  15763M 15783  15827M 15876  15918M 15918  15927  15928  15929  15956M 15956
             15968M 15993M 16002M 16019M 16019  16041M 16066M 16098M 16149  16203M 16212M 16229M 16229  16251M 16276M
             16309M 16451  16506M 16525M 16542M 16570M 16587M 16605M 16622M 16622  16644M 16662  16668M 16683M 16765M
             16798M 16824  16865M 16890  16931M 16952M 17044  17123M 17140M 17140  17160  17166M 17167  17173M 17195M
             17195  17213M 17223  17247M 17269M 17269  17292M 17299  17300M 17301  17360M 17360  17385M 17557  17654M
             17654  17663  17664  17665  17770  17803M 17831M 17844M 17844  17853  17854  17905M 18096M 18240  18275M
             18291M 18311  18359M 18379  18445  18448M 18454  18479M 18499  18569M 18575  18594M 18614  18660M 18680
             18720M 18740  18780M 18800  18846M 18909  18975M 18975  18984  18985  18986  19013M 19013  19024M 19116
             19149M 19205M 19223M 19288M 19323  19352M 19360M 19384M 19472  19549M 19549  19558  19559  19583M 19592M
             19647M 19665M 19678M 19709M 19722M 19761M 19761  19776M 19814M 19916  19960M 20003M 20025  20069M 20092M
             20114  20178M 20249  20314M 20318  20329M 20329  20338  20339  20340  20382  20409M 20482M 20486  20497M
             20497  20506  20507  20508  20526M 20554  20555M 20562M 20591M 20635M 20677  20738M 20767M 20776M 20782M
             20783M 20784M 20786M 20807  20834M 20892  20976M 20982M 21004M 21025  21051  21130M 21151  21193M 21236
             21274M 21280M 21308  21323M 21385  21439M 21445M 21483M 21495  21561M 21601  21628M 21659M 21712  21768M
             21774M 21794M 21808  21839  21847  21851M 21853M 21864M 21864  21871M 21871  21892  21959M 22062  22088
             22095M 22095  22104  22105  22106  22128M 22128  22161M 22186  22219M 22219  22228  22229  22270M 22405M
             22435M 22448M 22474M 22506M 22536M 22536  22537M 22578M 22659  22705M 22725  22751  22768M 22796  22834M
             22834  22844M 22844  22851  22863M 22869  22873M 22906  23059M 23114  23170M 23170  23180M 23180  23187
             23199M 23215M 23215  23254M 23254  23255M 23275  23276  23417  23478M 23478  23479M 23636M 23636  23637M
             23664M 23664  23669  23689M 23714  23782M 23809  23870  23978  23993M 23993  23994M 23995M 24023M 24085
             24150  24195M 24215  24285M 24285  24307M 24321M 24321  24374M 24374  24383  24384  24385  24403M 24441M
             24441  24450  24451  24487M 24522  24560M 24560  24569  24570  24610M 24813  24854M 24874  24921M 24941
             24996M 25014M 25030M 25070  25169  25172M 25198M 25205M 25218M 25225M 25255M 25255  25346M 25358M 25412
             25415M 25441M 25448M 25461M 25468M 25498M 25498  25535M 25617  25650M 25655  25656  25675M 25677M 25695M
             25697M 25714M 25718  25737M 25781M 25785  25824M 25828  25846M 25846  25855  25856  25893M 25923  25956M
             25961  25962  25981M 25983M 26001M 26003M 26020M 26024  26043M 26061M 26061  26070  26071  26108M 26133
             26179  26225M 26245  26265M 26265  26274  26275  26276  26294M 26332M 26332  26341  26342  26379M 26408
             26446M 26446  26455  26456  26496M 26713  26754M 26774  26829M 26845M 26870  26912  26957M 26977  26997M
             26997  27006  27007  27008  27026M 27064M 27064  27073  27074  27110M 27141  27179M 27179  27188  27189
             27229M 27448  27489M 27509  27564M 27582M 27598M 27654  27684  27713M 27741M 27777  27808M 27824M
     1(1)      978U  2099   2162M  2163M  2169M  6825   6893M  6914   6978   7060M  7087   7186M  7209M  7235M  7286
              7422M  7553M  7598M  7622M  7642M  7698M  7879   7889M  7963M  8188M  8210M  8239M  8312   9097   9607M
              9607   9670M  9747   9903M  9904   9924M  9968M 10000  10021M 10064  10108  10122M 10123M 10123  10136M
             10141  10171  10186M 10214  10255M 10283  10324M 10348  10395M 10424  10470M 10532M 10566  10597M 10629M
             10658M 10691M 10750M 10779  10846M 10867M 10897  10930M 10960  10996M 11019M 11036M 11059  11129M 11146M
             11169  11199M 11273M 11290M 11313  11369M 11386M 11407  11437M 11454M 11479  11539M 11560M 11642M 11672
             11833M 11869M 12015  12051  12062M 12087  12089M 12116M 12119M 12176M 12202M 12223M 12325M 12366M 12459
1         (COMM4072) (12:40) (15MAR04) General Purpose Register Cross Reference                                             Page  171
             12485  12506M 12527  12592M 12593  12617M 12638  12664  12688M 12708  12842M 13073M 13179M 13216M 13273M
             13274  13298M 13305  13388M 13395  13432M 13439  13471M 13484N 13485N 13486N 13503M 13556M 13563  13571M
             13584N 13585N 13587N 13622M 13701  13826M 13832  13833M 13837  13841M 13842M 13842  13869M 13925  13985M
             13991  13992M 14033M 14040  14048M 14061N 14062N 14064N 14089M 14102N 14103N 14104N 14125M 14126M 14126N
             14234M 14258M 14282M 14306M 14336M 14343  14351M 14364N 14365N 14366N 14396M 14397M 14397N 14474M 14540M
             14547  14555M 14568N 14569N 14570N 14629M 14741  14783M 14803  14845M 14865  14907M 14927  14969M 14988
             15085M 15120  15165M 15183  15192M 15218M 15243  15279M 15286  15294M 15307N 15308N 15310N 15373M 15395M
             15411M 15436M 15458M 15491M 15588  15635M 15655  15699M 15719  15763M 15783  15827M 15876  15914M 15927N
             15928N 15929N 15967M 15986M 16001M 16039M 16062M 16098M 16149  16196M 16211M 16249M 16272M 16309M 16451
             16499M 16520M 16541M 16565M 16586M 16604M 16642M 16662  16667M 16683M 16760M 16798M 16824  16865M 16890
             16927M 16952M 17044  17122M 17172M 17191M 17212M 17223  17243M 17292M 17352M 17354M 17354  17356M 17365M
             17367M 17367  17385M 17557  17650M 17663N 17664N 17665N 17796M 17830M 17840M 17853N 17854N 17856N 17904M
             17995M 17996M 18039M 18061M 18096M 18240  18274M 18291M 18311  18359M 18379  18446  18453  18479M 18499
             18566M 18574  18594M 18614  18660M 18680  18720M 18740  18780M 18800  18846M 18909  18971M 18984N 18985N
             18986N 19023M 19142M 19156M 19172M 19198M 19222M 19229M 19257M 19288M 19323  19384M 19472  19545M 19558N
             19559N 19561N 19593M 19629  19640M 19664M 19679M 19708M 19723M 19724M 19724N 19777M 19814M 19916  19953M
             19976M 20003M 20025  20062M 20092M 20114  20151M 20178M 20249  20310M 20317  20325M 20338N 20339N 20340N
             20402M 20416M 20432M 20438M 20478M 20485  20493M 20506N 20507N 20508N 20525M 20555  20556M 20561  20562M
             20590M 20635M 20677  20703  20737M 20766M 20785M 20786  20787M 20807  20834M 20892  20938  20983M 21005M
             21025  21051M 21066  21097  21112  21131M 21151  21193M 21236  21262  21281M 21308  21323M 21385  21433
             21446M 21483  21495  21518M 21518N 21528  21561M 21601  21635  21659M 21712  21760  21775M 21794  21808
             21818  21824M 21824N 21839  21845  21846N 21852M 21853  21872M 21892  21959M 22062  22091M 22104N 22105N
             22106N 22161M 22186  22215M 22228N 22229N 22231N 22269M 22398M 22428M 22452M 22452  22499M 22529M 22578M
             22659  22705M 22725  22768M 22796  22868  22879  23034M 23059M 23114  23247M 23417  23471M 23629M 23666M
             23666  23669  23689M 23714  23758M 23782M 23809  23844U 23870  23978  24007U 24023M 24085  24194M 24214
             24305M 24370M 24383N 24384N 24385N 24402M 24437M 24450N 24451N 24453N 24487M 24522  24556M 24569N 24570N
             24572N 24610M 24813  24854M 24874  24921M 24941  24995M 25013M 25030M 25070  25169  25171M 25198M 25204M
             25219M 25226M 25259M 25259  25347M 25356M 25412  25414M 25441M 25447M 25462M 25469M 25502M 25502  25535M
             25617  25649M 25675  25676M 25677M 25696M 25697M 25710M 25717  25733M 25777M 25784  25820M 25827  25842M
             25855N 25856N 25858N 25893M 25923  25955M 25981  25982M 25983M 26002M 26003M 26016M 26023  26039M 26057M
             26070N 26071N 26073N 26108M 26133  26224M 26244  26261M 26274N 26275N 26276N 26293M 26328M 26341N 26342N
             26344N 26379M 26408  26442M 26455N 26456N 26458N 26496M 26713  26754M 26774  26828M 26845M 26870  26956M
             26976  26993M 27006N 27007N 27008N 27025M 27060M 27073N 27074N 27076N 27110M 27141  27175M 27188N 27189N
             27191N 27229M 27448  27489M 27509  27563M 27581M 27598M 27654  27684  27706M 27741M 27777  27807M 27824M
     2(2)      974U  2099   6825   6893M  6914   6978   7060M  7087   7235M  7286   7764M  7774U  7799U  7882M  8041M
              8071   8083M  8088   8092M  8101M  8101   8108   8142M  8165   8239M  8312   9097   9670M  9747   9886M
              9968M 10000  10017M 10021M 10064  10108  10141M 10142M 10154  10169  10186M 10214  10255M 10283  10324M
             10348  10395M 10424  10532M 10566  10592M 10619M 10619  10647  10750M 10779  10805M 10817  10867M 10897
             10960  11036M 11059  11146M 11169  11290M 11313  11386M 11407  11454M 11479  11642M 11672  11869M 12015
             12120M 12202  12366M 12459  12506M 12527  12553M 12563M 12563  12571M 12573  12617M 12638  12688M 12708
             13622M 13701  13766M 13832M 13833  13834  13925M 13991M 13992  13993  14629M 14741  14783M 14803  14845M
             14865  14907M 14927  14969M 14988  15085M 15120  15218M 15243  15491M 15588  15635M 15655  15699M 15719
             15763M 15783  15827M 15876  16098M 16149  16309M 16451  16798M 16824  16865M 16890  16952M 17044  17167M
             17191  17309M 17385M 17557  17955M 17997M 18096M 18240  18291M 18311  18359M 18379  18479M 18499  18594M
             18614  18660M 18680  18720M 18740  18780M 18800  18846M 18909  19288M 19323  19384M 19472  19537M 19540M
             19594M 19629M 19778M 19814M 19916  20003M 20025  20092M 20114  20178M 20249  20560M 20598M 20603M 20635M
             20677  20788M 20807  20834M 20892  20984M 21006M 21025  21132M 21151  21193M 21236  21282M 21298M 21300N
             21308  21323M 21385  21447M 21561M 21601  21635M 21659M 21712  21776M 21845M 21850M 21873M 21892  21918M
             21959M 22062  22161M 22186  22578M 22659  22705M 22725  22768M 22796  22869M 22907  22911M 22920M 22920
             22927  23059M 23114  23275M 23417  23571  23689M 23714  23782M 23809  23870  23978  24023M 24085  24487M
             24522  24610M 24813  24854M 24874  24921M 24941  25030M 25070  25220M 25227M 25260M 25348M 25359M 25381M
             25463M 25470M 25503M 25535M 25617  25656M 25670  25690  25893M 25923  25962M 25976  25996  26108M 26133
             26379M 26408  26496M 26713  26754M 26774  26845M 26870  27110M 27141  27229M 27448  27489M 27509  27598M
             27654  27741M 27777  27824M
     3(3)      970U  2099   6825   6893M  6914   6978   7060M  7087   7235M  7286   8239M  8312   9097   9670M  9747
              9968M 10000  10021M 10064  10108  10186M 10214  10255M 10283  10324M 10348  10395M 10424  10532M 10566
             10750M 10779  10867M 10897  10960  11036M 11059  11146M 11169  11290M 11313  11386M 11407  11454M 11479
             11642M 11672  11869M 12015  12121M 12145M 12145  12207  12366M 12459  12487M 12506M 12527  12598M 12598
             12617M 12638  12669M 12669  12688M 12708  12827M 12827  13622M 13701  14629M 14741  14783M 14803  14845M
1         (COMM4072) (12:40) (15MAR04) General Purpose Register Cross Reference                                             Page  172
             14865  14907M 14927  14969M 14988  15085M 15120  15218M 15243  15421M 15421  15436  15491M 15588  15617M
             15617  15619  15635M 15655  15681M 15683  15699M 15719  15745M 15747  15763M 15783  15809M 15811  15827M
             15876  16098M 16149  16309M 16451  16798M 16824  16865M 16890  16952M 17044  17385M 17557  17956M 17960M
             17969M 17969  17976  17998M 18002M 18011M 18011  18018  18096M 18240  18291M 18311  18359M 18379  18445M
             18446M 18447  18479M 18499  18594M 18614  18660M 18680  18720M 18740  18780M 18800  18846M 18909  19288M
             19323  19384M 19472  19538M 19540M 19814M 19916  20003M 20025  20092M 20114  20178M 20249  20559  20560M
             20599M 20603M 20635M 20677  20807  20834M 20892  20938M 21025  21076  21125  21151  21193M 21236  21299M
             21300  21308  21323M 21385  21456M 21476M 21482M 21502  21561M 21601  21659M 21712  21847M 21848M 21849
             21850M 21892  21959M 22062  22161M 22186  22578M 22659  22705M 22725  22768M 22796  22868M 23059M 23114
             23417  23689M 23714  23782M 23809  23870  23978  24023M 24085  24150M 24154M 24163M 24163  24170  24487M
             24522  24610M 24813  24854M 24874  24921M 24941  25030M 25070  25535M 25617  25658M 25665  25695  25893M
             25923  25964M 25971  26001  26108M 26133  26179M 26183M 26192M 26192  26199  26379M 26408  26496M 26713
             26754M 26774  26845M 26870  26912M 26916M 26925M 26925  26932  27110M 27141  27229M 27448  27489M 27509
             27598M 27654  27741M 27777  27824M
     4(4)      966U  2099   6825   6893M  6914   6978   7060M  7087   7116M  7186   7235M  7286   8239M  8312   9097
              9670M  9747   9968M 10000  10021M 10064  10108  10186M 10214  10255M 10283  10324M 10348  10395M 10424
             10532M 10566  10750M 10779  10867M 10897  10960  11036M 11059  11146M 11169  11290M 11313  11386M 11407
             11454M 11479  11642M 11672  11869M 12015  12366M 12459  12486M 12506M 12527  12594M 12617M 12638  12665M
             12688M 12708  12801  12847  13078  13622M 13701  14629M 14741  14783M 14803  14845M 14865  14907M 14927
             14969M 14988  15085M 15120  15218M 15243  15491M 15588  15635M 15655  15699M 15719  15763M 15783  15827M
             15876  16098M 16149  16309M 16451  16798M 16824  16865M 16890  16952M 17044  17385M 17557  18096M 18240
             18291M 18311  18359M 18379  18479M 18499  18594M 18614  18660M 18680  18720M 18740  18780M 18800  18846M
             18909  19288M 19323  19384M 19472  19814M 19916  20003M 20025  20092M 20114  20178M 20249  20564M 20600M
             20603M 20635M 20677  20807  20834M 20892  21025  21052M 21066  21076  21082M 21082N 21097  21112  21125
             21126M 21126N 21128M 21130  21151  21193M 21236  21300M 21308  21323M 21385  21433M 21482  21528  21561M
             21601  21659M 21712  21760M 21818  21846M 21848  21850M 21892  21959M 22062  22161M 22186  22277M 22315M
             22341U 22347M 22353U 22375M 22375  22390U 22551M 22557U 22578M 22659  22705M 22725  22768M 22796  22879M
             22889U 22971  22972  22990  22992  23010U 23059M 23114  23223M 23224M 23224  23235U 23266U 23366M 23377M
             23377  23392U 23417  23648M 23654U 23689M 23714  23782M 23809  23870  23978  24023M 24085  24487M 24522
             24610M 24813  24854M 24874  24921M 24941  25030M 25070  25535M 25617  25893M 25923  26108M 26133  26379M
             26408  26496M 26713  26754M 26774  26845M 26870  27110M 27141  27229M 27448  27489M 27509  27598M 27654
             27741M 27777  27824M
     5(5)      962U  2099   6825   6893M  6914   6978   7060M  7087   7235M  7286   7881M  8239M  8312   8338M  8346U
              9097   9670M  9681U  9747   9968M 10000  10021M 10064  10108  10186M 10214  10255M 10283  10324M 10348
             10395M 10424  10532M 10566  10750M 10779  10867M 10897  10960  11036M 11059  11146M 11169  11290M 11313
             11386M 11407  11454M 11479  11642M 11672  11869M 12015  12366M 12459  12485M 12506M 12527  12593M 12617M
             12638  12664M 12688M 12708  12842  13073  13622M 13701  14629M 14741  14783M 14803  14845M 14865  14907M
             14927  14969M 14988  15085M 15120  15218M 15243  15491M 15588  15635M 15655  15699M 15719  15763M 15783
             15827M 15876  16098M 16149  16309M 16451  16798M 16824  16865M 16890  16952M 17044  17385M 17557  17603M
             17611U 18096M 18240  18291M 18311  18359M 18379  18479M 18499  18594M 18614  18660M 18680  18720M 18740
             18780M 18800  18846M 18858U 18909  19288M 19323  19384M 19472  19518M 19526U 19814M 19916  20003M 20025
             20092M 20114  20178M 20189U 20249  20563  20564M 20601M 20602M 20603M 20635M 20677  20807  20834M 20892
             21025  21127M 21128  21151  21193M 21236  21301M 21308  21323M 21385  21561M 21601  21659M 21712  21849M
             21850M 21892  21959M 22062  22088M 22144  22161M 22186  22212M 22286M 22286  22303  22313M 22326M 22326
             22346M 22578M 22659  22688M 22688  22690  22705M 22725  22751M 22753  22768M 22796  23059M 23114  23273M
             23417  23689M 23714  23782M 23809  23870  23978  24023M 24085  24487M 24522  24610M 24813  24854M 24874
             24921M 24941  25030M 25070  25535M 25617  25893M 25923  26108M 26133  26379M 26408  26496M 26713  26754M
             26774  26845M 26870  27110M 27141  27229M 27448  27489M 27509  27598M 27654  27741M 27777  27824M
     6(6)      958U  2099   6825   6893M  6914   6978   7060M  7087   7235M  7286   8239M  8312   9097   9670M  9747
              9968M 10000  10021M 10064  10108  10186M 10214  10255M 10283  10324M 10348  10395M 10424  10532M 10566
             10750M 10779  10867M 10897  10960  11036M 11059  11146M 11169  11290M 11313  11386M 11407  11454M 11479
             11642M 11672  11728M 11738U 11757U 11869M 12015  12366M 12459  12506M 12527  12617M 12638  12688M 12708
             13622M 13701  13737M 13745U 14629M 14741  14783M 14803  14845M 14865  14907M 14927  14969M 14988  15085M
             15097U 15120  15218M 15243  15491M 15588  15635M 15655  15699M 15719  15763M 15783  15827M 15876  16098M
             16149  16309M 16451  16798M 16824  16865M 16890  16952M 17044  17297M 17356  17385M 17557  17593M 17601U
             18096M 18240  18291M 18311  18359M 18379  18479M 18499  18594M 18614  18660M 18680  18720M 18740  18780M
             18800  18846M 18865U 18909  18945M 18953U 19288M 19299U 19323  19384M 19472  19508M 19516U 19814M 19916
             20003M 20025  20092M 20114  20178M 20196U 20249  20285M 20293U 20635M 20646U 20677  20703M 20711U 20807
             20834M 20845U 20892  20928M 20936U 21025  21151  21193M 21204U 21236  21262M 21270U 21323M 21334U 21385
1         (COMM4072) (12:40) (15MAR04) General Purpose Register Cross Reference                                             Page  173
             21421M 21429U 21561M 21572U 21601  21659M 21712  21748M 21756U 21892  21959M 21970U 22062  22161M 22186
             22578M 22659  22705M 22725  22768M 22796  23059M 23114  23417  23689M 23714  23782M 23809  23870  23978
             24023M 24085  24487M 24522  24610M 24813  24854M 24874  24921M 24941  25030M 25070  25096M 25104U 25535M
             25546U 25617  25893M 25923  26108M 26133  26379M 26408  26496M 26713  26754M 26774  26845M 26870  27110M
             27141  27229M 27448  27489M 27509  27598M 27654  27741M 27777  27824M
     7(7)      954U  2092M  2092   2093B  2099   2105B  6825   6830M  6842U  6885U  6893M  6914   6919M  6931U  6978
              7052U  7060M  7087   7092M  7104U  7227U  7235M  7286   7291M  7303U  8231U  8239M  8312   8317M  8329U
              9097   9662U  9670M  9747   9751M  9761U  9968M  9983U 10000  10004M 10014U 10021M 10036U 10064  10069M
             10081U 10108  10178U 10186M 10214  10219M 10231U 10247U 10255M 10283  10288M 10300U 10316U 10324M 10348
             10353M 10365U 10387U 10395M 10424  10429M 10441U 10524U 10532M 10566  10571M 10583U 10742U 10750M 10779
             10784M 10796U 10859U 10867M 10880  10883M 10893U 10897  10941U 10960  10965M 10977U 11028U 11036M 11059
             11064M 11076U 11138U 11146M 11169  11174M 11186U 11282U 11290M 11313  11318M 11330U 11378U 11386M 11407
             11412M 11424U 11446U 11454M 11479  11484M 11496U 11634U 11642M 11672  11677M 11689U 11861U 11869M 12015
             12021M 12033U 12358U 12366M 12459  12464M 12476U 12498U 12506M 12527  12532M 12544U 12609U 12617M 12638
             12643M 12655U 12680U 12688M 12708  12713M 12725U 13614U 13622M 13701  13707M 13719U 14621U 14629M 14741
             14746M 14758U 14775U 14783M 14803  14808M 14820U 14837U 14845M 14865  14870M 14882U 14899U 14907M 14927
             14932M 14944U 14961U 14969M 14988  14993M 15005U 15077U 15085M 15120  15125M 15137U 15210U 15218M 15243
             15248M 15260U 15483U 15491M 15588  15593M 15605U 15627U 15635M 15655  15660M 15672U 15691U 15699M 15719
             15724M 15736U 15755U 15763M 15783  15788M 15800U 15819U 15827M 15876  15882M 15894U 16090U 16098M 16149
             16155M 16167U 16301U 16309M 16451  16457M 16469U 16790U 16798M 16824  16829M 16841U 16857U 16865M 16890
             16895M 16907U 16944U 16952M 17044  17049M 17061U 17377U 17385M 17557  17563M 17575U 18088U 18096M 18240
             18245M 18257U 18283U 18291M 18311  18316M 18328U 18351U 18359M 18379  18384M 18396U 18471U 18479M 18499
             18504M 18516U 18586U 18594M 18614  18619M 18631U 18652U 18660M 18680  18685M 18697U 18712U 18720M 18740
             18745M 18757U 18772U 18780M 18800  18805M 18817U 18838U 18846M 18909  18915M 18927U 19280U 19288M 19323
             19328M 19340U 19376U 19384M 19472  19478M 19490U 19806U 19814M 19916  19921M 19933U 19995U 20003M 20025
             20030M 20042U 20084U 20092M 20114  20119M 20131U 20170U 20178M 20249  20255M 20267U 20627U 20635M 20677
             20682M 20694U 20807  20826U 20834M 20892  20898M 20910U 21025  21151  21185U 21193M 21236  21241M 21253U
             21315U 21323M 21385  21391M 21403U 21553U 21561M 21601  21606M 21618U 21651U 21659M 21712  21718M 21730U
             21892  21951U 21959M 22062  22067M 22079U 22153U 22161M 22186  22191M 22203U 22570U 22578M 22659  22664M
             22676U 22697U 22705M 22725  22730M 22742U 22760U 22768M 22796  22801M 22813U 23051U 23059M 23114  23120M
             23132U 23417  23681U 23689M 23714  23719M 23731U 23774U 23782M 23809  23814M 23826U 23870  23978  24015U
             24023M 24085  24090M 24102U 24479U 24487M 24522  24527M 24539U 24602U 24610M 24813  24818M 24830U 24846U
             24854M 24874  24879M 24891U 24913U 24921M 24941  24946M 24958U 25022U 25030M 25070  25075M 25087U 25527U
             25535M 25617  25622M 25634U 25885U 25893M 25923  25928M 25940U 26100U 26108M 26133  26138M 26150U 26371U
             26379M 26408  26413M 26425U 26488U 26496M 26713  26718M 26730U 26746U 26754M 26774  26779M 26791U 26837U
             26845M 26870  26875M 26887U 27102U 27110M 27141  27146M 27158U 27221U 27229M 27448  27453M 27465U 27481U
             27489M 27509  27514M 27526U 27590U 27598M 27654  27659M 27671U 27733U 27741M 27777  27782M 27794U 27816U
             27824M
     8(8)      950U  2099   6825   6826M  6889   6893M  6914   6915M  6978   7056   7060M  7087   7088M  7231   7235M
              7286   7287M  8235   8239M  8312   8313M  9097   9666   9670M  9743M  9744M  9745   9747   9967   9968M
              9996M  9997M  9998  10000  10020  10021M 10064  10065M 10108  10171  10182  10186M 10214  10215M 10251
             10255M 10283  10284M 10320  10324M 10348  10349M 10391  10395M 10424  10425M 10528  10532M 10566  10567M
             10746  10750M 10779  10780M 10863  10867M 10897  10960  10961M 11032  11036M 11059  11060M 11142  11146M
             11169  11170M 11286  11290M 11313  11314M 11382  11386M 11407  11408M 11450  11454M 11479  11480M 11638
             11642M 11672  11673M 11865  11869M 12015  12017M 12047U 12353U 12362  12366M 12459  12460M 12502  12506M
             12527  12528M 12613  12617M 12638  12639M 12684  12688M 12708  12709M 13618  13622M 13701  13703M 13733U
             14616U 14625  14629M 14741  14742M 14779  14783M 14803  14804M 14841  14845M 14865  14866M 14903  14907M
             14927  14928M 14965  14969M 14988  14989M 15081  15085M 15120  15121M 15214  15218M 15243  15244M 15487
             15491M 15588  15589M 15619N 15631  15635M 15655  15656M 15683N 15695  15699M 15719  15720M 15747N 15759
             15763M 15783  15784M 15811N 15823  15827M 15876  15878M 15908U 16085U 16094  16098M 16149  16151M 16181U
             16296U 16305  16309M 16451  16453M 16483U 16785U 16794  16798M 16824  16825M 16861  16865M 16890  16891M
             16948  16952M 17044  17045M 17381  17385M 17557  17559M 17589U 18083U 18092  18096M 18240  18241M 18287
             18291M 18311  18312M 18355  18359M 18379  18380M 18475  18479M 18499  18500M 18590  18594M 18614  18615M
             18656  18660M 18680  18681M 18716  18720M 18740  18741M 18776  18780M 18800  18801M 18842  18846M 18909
             18911M 18941U 19275U 19284  19288M 19323  19324M 19380  19384M 19472  19474M 19504U 19801U 19810  19814M
             19916  19917M 19999  20003M 20025  20026M 20088  20092M 20114  20115M 20174  20178M 20249  20251M 20281U
             20622U 20631  20635M 20677  20678M 20807  20830  20834M 20892  20894M 20924U 21025  21151  21180U 21189
             21193M 21236  21237M 21308  21319  21323M 21385  21387M 21417U 21548U 21557  21561M 21601  21602M 21655
             21659M 21712  21714M 21744U 21892  21946U 21955  21959M 22062  22063M 22157  22161M 22186  22187M 22574
1         (COMM4072) (12:40) (15MAR04) General Purpose Register Cross Reference                                             Page  174
             22578M 22659  22660M 22690N 22701  22705M 22725  22726M 22753N 22764  22768M 22796  22797M 23055  23059M
             23114  23116M 23146U 23417  23669  23676U 23685  23689M 23714  23715M 23778  23782M 23809  23810M 23870
             23978  24019  24023M 24085  24086M 24483  24487M 24522  24523M 24606  24610M 24813  24814M 24850  24854M
             24874  24875M 24917  24921M 24941  24942M 25026  25030M 25070  25071M 25531  25535M 25617  25618M 25889
             25893M 25923  25924M 26104  26108M 26133  26134M 26375  26379M 26408  26409M 26492  26496M 26713  26714M
             26750  26754M 26774  26775M 26841  26845M 26870  26871M 27106  27110M 27141  27142M 27225  27229M 27448
             27449M 27485  27489M 27509  27510M 27594  27598M 27654  27655M 27737  27741M 27777  27778M 27820  27824M
     9(9)      946U  2099   6978   9097  10108  10897  20807  21025  21151  21892  23417  23870  23978
    10(A)      942U  2099   6978   9097  10108  10897  20807  21025  21151  21892  23417  23870  23978
    11(B)      938U  1163U  2099   6978   9097  10108  10897  20807  21025  21151  21892  23417  23870  23978
    12(C)      934U  1172U  2099   6978   9097  10108  10897  20807  21025  21151  21892  23417  23870  23978
    13(D)      930U  2099   6822   6825   6826   6827M  6827   6889M  6893   6895   6911   6914   6915   6916M  6916
              6978   7056M  7060   7062   7084   7087   7088   7089M  7089   7231M  7235   7237   7283   7286   7287
              7288M  7288   7879   7880M  7880   7888M  7889   8235M  8239   8241   8309   8312   8313   8314M  8314
              9097   9666M  9670   9672   9745M  9746N  9747   9748M  9748N  9967M  9968   9969N  9998M  9999N 10000
             10001M 10001N 10020M 10021  10022N 10061  10064  10065  10066M 10066  10108  10182M 10186  10188  10211
             10214  10215  10216M 10216  10251M 10255  10257  10280  10283  10284  10285M 10285  10320M 10324  10326
             10345  10348  10349  10350M 10350  10391M 10395  10397  10421  10424  10425  10426M 10426  10528M 10532
             10534  10563  10566  10567  10568M 10568  10746M 10750  10752  10776  10779  10780  10781M 10781  10863M
             10867  10869  10897  10957  10960  10961  10962M 10962  11032M 11036  11038  11056  11059  11060  11061M
             11061  11142M 11146  11148  11166  11169  11170  11171M 11171  11286M 11290  11292  11310  11313  11314
             11315M 11315  11382M 11386  11388  11404  11407  11408  11409M 11409  11450M 11454  11456  11476  11479
             11480  11481M 11481  11638M 11642  11644  11669  11672  11673  11674M 11674  11865M 11869  11871  12012
             12015  12017  12018M 12018  12083  12084M 12084  12087  12088M 12088  12115M 12116  12274M 12344M 12362M
             12366  12368  12456  12459  12460  12461M 12461  12502M 12506  12508  12524  12527  12528  12529M 12529
             12613M 12617  12619  12635  12638  12639  12640M 12640  12684M 12688  12690  12705  12708  12709  12710M
             12710  13466  13468M 13468  13479  13480  13481  13483M 13483  13495M 13496  13497  13498  13529M 13579
             13580  13581  13583M 13583  13596M 13597  13598  13599  13618M 13622  13624  13698  13701  13703  13704M
             13704  13837  13838M 13838  13868M 13869  14056  14057  14058  14060M 14060  14073M 14074  14075  14076
             14097  14098  14099  14101M 14101  14113M 14114  14115  14116  14359  14360  14361  14363M 14363  14375M
             14376  14377  14378  14563  14564  14565  14567M 14567  14579M 14580  14581  14582  14625M 14629  14631
             14738  14741  14742  14743M 14743  14779M 14783  14785  14800  14803  14804  14805M 14805  14841M 14845
             14847  14862  14865  14866  14867M 14867  14903M 14907  14909  14924  14927  14928  14929M 14929  14965M
             14969  14971  14985  14988  14989  14990M 14990  15081M 15085  15087  15117  15120  15121  15122M 15122
             15214M 15218  15220  15240  15243  15244  15245M 15245  15302  15303  15304  15306M 15306  15319M 15320
             15321  15322  15487M 15491  15493  15585  15588  15589  15590M 15590  15631M 15635  15637  15652  15655
             15656  15657M 15657  15695M 15699  15701  15716  15719  15720  15721M 15721  15759M 15763  15765  15780
             15783  15784  15785M 15785  15823M 15827  15829  15873  15876  15878  15879M 15879  15922  15923  15924
             15926M 15926  15938M 15939  15940  15941  16094M 16098  16100  16146  16149  16151  16152M 16152  16305M
             16309  16311  16448  16451  16453  16454M 16454  16662  16663M 16663  16682M 16683  16794M 16798  16800
             16821  16824  16825  16826M 16826  16861M 16865  16867  16887  16890  16891  16892M 16892  16948M 16952
             16954  17041  17044  17045  17046M 17046  17223  17224M 17224  17291M 17292  17297  17298M 17298  17381M
             17385  17387  17554  17557  17559  17560M 17560  17658  17659  17660  17662M 17662  17674M 17675  17676
             17677  17848  17849  17850  17852M 17852  17865M 17866  17867  17868  18092M 18096  18098  18237  18240
             18241  18242M 18242  18287M 18291  18293  18308  18311  18312  18313M 18313  18355M 18359  18361  18376
             18379  18380  18381M 18381  18475M 18479  18481  18496  18499  18500  18501M 18501  18590M 18594  18596
             18611  18614  18615  18616M 18616  18656M 18660  18662  18677  18680  18681  18682M 18682  18716M 18720
             18722  18737  18740  18741  18742M 18742  18776M 18780  18782  18797  18800  18801  18802M 18802  18842M
             18846  18848  18906  18909  18911  18912M 18912  18979  18980  18981  18983M 18983  18995M 18996  18997
             18998  19284M 19288  19290  19320  19323  19324  19325M 19325  19380M 19384  19386  19469  19472  19474
             19475M 19475  19553  19554  19555  19557M 19557  19570M 19571  19572  19573  19810M 19814  19816  19913
             19916  19917  19918M 19918  19999M 20003  20005  20022  20025  20026  20027M 20027  20088M 20092  20094
             20111  20114  20115  20116M 20116  20174M 20178  20180  20246  20249  20251  20252M 20252  20333  20334
             20335  20337M 20337  20349M 20350  20351  20352  20501  20502  20503  20505M 20505  20517M 20518  20519
             20520  20631M 20635  20637  20674  20677  20678  20679M 20679  20807  20830M 20834  20836  20889  20892
             20894  20895M 20895  21025  21151  21189M 21193  21195  21233  21236  21237  21238M 21238  21319M 21323
             21325  21382  21385  21387  21388M 21388  21557M 21561  21563  21598  21601  21602  21603M 21603  21655M
             21659  21661  21709  21712  21714  21715M 21715  21892  21955M 21959  21961  22059  22062  22063  22064M
             22064  22099  22100  22101  22103M 22103  22115M 22116  22117  22118  22157M 22161  22163  22183  22186
1         (COMM4072) (12:40) (15MAR04) General Purpose Register Cross Reference                                             Page  175
             22187  22188M 22188  22223  22224  22225  22227M 22227  22240M 22241  22242  22243  22454  22455M 22455
             22488M 22574M 22578  22580  22656  22659  22660  22661M 22661  22701M 22705  22707  22722  22725  22726
             22727M 22727  22764M 22768  22770  22793  22796  22797  22798M 22798  23055M 23059  23061  23111  23114
             23116  23117M 23117  23417  23685M 23689  23691  23711  23714  23715  23716M 23716  23778M 23782  23784
             23806  23809  23810  23811M 23811  23870  23978  24019M 24023  24025  24082  24085  24086  24087M 24087
             24365  24367M 24367  24378  24379  24380  24382M 24382  24394M 24395  24396  24397  24428M 24445  24446
             24447  24449M 24449  24462M 24463  24464  24465  24483M 24487  24489  24519  24522  24523  24524M 24524
             24551  24553M 24553  24564  24565  24566  24568M 24568  24581M 24582  24583  24584  24590M 24606M 24610
             24612  24810  24813  24814  24815M 24815  24850M 24854  24856  24871  24874  24875  24876M 24876  24917M
             24921  24923  24938  24941  24942  24943M 24943  25026M 25030  25032  25067  25070  25071  25072M 25072
             25165  25166M 25166  25169  25170M 25170  25197M 25198  25235M 25356  25357M 25357  25387M 25408  25409M
             25409  25412  25413M 25413  25440M 25441  25478M 25531M 25535  25537  25614  25617  25618  25619M 25619
             25658  25659M 25659  25699M 25850  25851  25852  25854M 25854  25867M 25868  25869  25870  25889M 25893
             25895  25920  25923  25924  25925M 25925  25964  25965M 25965  26005M 26065  26066  26067  26069M 26069
             26082M 26083  26084  26085  26104M 26108  26110  26130  26133  26134  26135M 26135  26256  26258M 26258
             26269  26270  26271  26273M 26273  26285M 26286  26287  26288  26319M 26336  26337  26338  26340M 26340
             26353M 26354  26355  26356  26375M 26379  26381  26405  26408  26409  26410M 26410  26437  26439M 26439
             26450  26451  26452  26454M 26454  26467M 26468  26469  26470  26476M 26492M 26496  26498  26710  26713
             26714  26715M 26715  26750M 26754  26756  26771  26774  26775  26776M 26776  26841M 26845  26847  26867
             26870  26871  26872M 26872  26988  26990M 26990  27001  27002  27003  27005M 27005  27017M 27018  27019
             27020  27051M 27068  27069  27070  27072M 27072  27085M 27086  27087  27088  27106M 27110  27112  27138
             27141  27142  27143M 27143  27170  27172M 27172  27183  27184  27185  27187M 27187  27200M 27201  27202
             27203  27209M 27225M 27229  27231  27445  27448  27449  27450M 27450  27485M 27489  27491  27506  27509
             27510  27511M 27511  27594M 27598  27600  27651  27654  27655  27656M 27656  27737M 27741  27743  27774
             27777  27778  27779M 27779  27820M 27824  27826
    14(E)      926U  2099   2100M  2114   2115M  2116B  2118M  2119B  2139M  2140B  2144M  2145B  2147M  2148B  2150M
              2151B  2153M  2154B  2156M  2157M  2157B  2163   6822   6873M  6874M  6874B  6877M  6878M  6878B  6895M
              6898B  6911   6944M  6945M  6945B  6964M  6965M  6965B  6973M  6974M  6974B  6978   6979M  7003M  7004M
              7004B  7032M  7033M  7033B  7044M  7045M  7045B  7062M  7065B  7084   7189M  7190M  7190B  7216M  7217M
              7217B  7237M  7240B  7283   7327M  7328M  7328B  7381M  7382M  7382B  7473M  7474M  7474B  7536M  7537M
              7537B  7568M  7569M  7569B  7614M  7615M  7615B  7676M  7677M  7677B  7710M  7711M  7711B  7760M  7761M
              7761B  7885M  7886M  7886B  7912M  7913M  7913B  7967M  7968M  7968B  8012M  8013M  8013B  8044M  8045M
              8045B  8063M  8064M  8064B  8129M  8130M  8130B  8145M  8146M  8146B  8200M  8201M  8201B  8222M  8223M
              8223B  8241M  8244B  8309   8385M  8386M  8386B  8409M  8410M  8410B  8433M  8434M  8434B  8457M  8458M
              8458B  8481M  8482M  8482B  8505M  8506M  8506B  8519M  8520M  8520B  8541M  8542M  8542B  8585M  8586M
              8586B  8691M  8692M  8692B  8717M  8718M  8718B  8737M  8738M  8738B  8753M  8754M  8754B  8792M  8793M
              8793B  8875M  8876M  8876B  8900M  8901M  8901B  8913M  8914M  8914B  8919M  8920M  8920B  8923M  8924M
              8924B  8927M  8928M  8928B  8932M  8933M  8933B  8947M  8948M  8948B  8960M  8961M  8961B  8970M  8971M
              8971B  9048M  9049M  9049B  9080M  9081M  9081B  9097   9098M  9188M  9189M  9189B  9224M  9225M  9225B
              9266M  9267M  9267B  9328M  9329M  9329B  9382M  9383M  9383B  9411M  9412M  9412B  9480M  9481M  9481B
              9496M  9497M  9497B  9600M  9601M  9601B  9610M  9611M  9611B  9634M  9635M  9635   9649B  9672M  9675B
              9746   9908M  9913M  9913   9939M  9940M  9940B  9954M  9955M  9955B  9969M  9976B  9999  10022M 10029B
             10061  10108  10109M 10163M 10164M 10164B 10188M 10191B 10211  10257M 10260B 10280  10326M 10329B 10345
             10397M 10400B 10421  10486M 10487M 10487B 10498M 10499M 10499B 10534M 10537B 10563  10609M 10610M 10610B
             10641M 10642M 10642B 10661M 10662M 10662B 10685M 10686M 10686B 10703M 10704M 10704B 10734M 10735M 10735B
             10752M 10755B 10776  10825M 10826M 10826B 10839M 10840M 10840B 10869M 10872B 10897  10898M 10909M 10910M
             10910B 10923M 10924M 10924B 10935B 10957  11012M 11013M 11013B 11038M 11041B 11056  11148M 11151B 11166
             11197M 11198M 11198B 11245M 11246M 11246B 11292M 11295B 11310  11341M 11342M 11342B 11388M 11391B 11404
             11456M 11459B 11476  11514M 11515M 11515B 11626M 11627M 11627B 11644M 11647B 11669  11721M 11722M 11722B
             11725M 11726M 11726B 11783M 11784M 11784B 11840M 11841M 11841B 11852M 11853M 11853B 11871M 11874B 12012
             12078M 12079M 12079B 12083M 12087  12089N 12112M 12113M 12113B 12116M 12124M 12125M 12125B 12188M 12189M
             12189B 12218M 12219M 12219B 12222M 12223N 12224N 12228M 12228  12264M 12265M 12265B 12332M 12333M 12333B
             12368M 12371B 12456  12490M 12491M 12491B 12508M 12511B 12524  12601M 12602M 12602B 12619M 12622B 12635
             12672M 12673M 12673B 12690M 12693B 12705  12739M 12740M 12740B 12745M 12746M 12746B 12749M 12750M 12750B
             12799M 12800M 12800B 12850M 12851M 12851B 13027M 13028M 13028B 13050M 13051M 13051B 13113M 13114M 13114B
             13260M 13261M 13261B 13278M 13283M 13283  13304M 13305N 13306N 13310M 13310  13313M 13314M 13314B 13365M
             13366M 13366B 13394M 13395N 13396N 13400M 13400  13403M 13404M 13404B 13438M 13439N 13440N 13444M 13444
             13465M 13466  13478M 13479  13480  13481  13489M 13490M 13490B 13493M 13496  13497  13498  13502M 13503N
             13504N 13508M 13508  13523M 13524M 13524B 13527M 13530  13540M 13545M 13545  13562M 13563N 13564N 13568M
1         (COMM4072) (12:40) (15MAR04) General Purpose Register Cross Reference                                             Page  176
             13568  13578M 13579  13580  13581  13586M 13587  13590M 13591M 13591B 13594M 13597  13598  13599  13604M
             13605M 13605B 13624M 13627B 13698  13770M 13771N 13786N 13801N 13802N 13803  13803  13804N 13805N 13818N
             13822M 13822  13825M 13826N 13827N 13831M 13831  13856M 13857M 13857B 13873M 13874M 13874B 13900M 13901M
             13901B 13929M 13930N 13945N 13960N 13961N 13962  13962  13963N 13964N 13977N 13981M 13981  13984M 13985N
             13986N 13990M 13990  14001M 14002M 14002B 14039M 14040N 14041N 14045M 14045  14055M 14056  14057  14058
             14063M 14064  14067M 14068M 14068B 14071M 14074  14075  14076  14081M 14082M 14082B 14096M 14097  14098
             14099  14107M 14108M 14108B 14111M 14114  14115  14116  14121M 14122M 14122B 14244M 14245M 14245B 14268M
             14269M 14269B 14292M 14293M 14293B 14316M 14317M 14317B 14342M 14343N 14344N 14348M 14348  14358M 14359
             14360  14361  14369M 14370M 14370B 14373M 14376  14377  14378  14433M 14434M 14434B 14515M 14516M 14516B
             14546M 14547N 14548N 14552M 14552  14562M 14563  14564  14565  14573M 14574M 14574B 14577M 14580  14581
             14582  14599M 14600M 14600B 14604M 14605M 14605B 14608M 14609M 14609B 14631M 14634B 14738  14785M 14788B
             14800  14847M 14850B 14862  14909M 14912B 14924  14971M 14974B 14985  15017M 15018N 15033N 15048N 15049N
             15050  15050  15051N 15052N 15065N 15069M 15069  15087M 15090B 15117  15182M 15183N 15184N 15188M 15188
             15196M 15197M 15197B 15220M 15223B 15240  15285M 15286N 15287N 15291M 15291  15301M 15302  15303  15304
             15309M 15310  15313M 15314M 15314B 15317M 15320  15321  15322  15327M 15328M 15328B 15367M 15368M 15368B
             15385M 15386M 15386B 15407M 15408M 15408B 15454M 15455M 15455B 15493M 15496B 15585  15637M 15640B 15652
             15701M 15704B 15716  15765M 15768B 15780  15829M 15832B 15873  15921M 15922  15923  15924  15932M 15933M
             15933B 15936M 15939  15940  15941  15946M 15947M 15947B 15996M 15997M 15997B 16000M 16001N 16002N 16006M
             16006  16049M 16050M 16050B 16076M 16077M 16077B 16100M 16103B 16146  16206M 16207M 16207B 16210M 16211N
             16212N 16216M 16216  16259M 16260M 16260B 16286M 16287M 16287B 16311M 16314B 16448  16509M 16510M 16510B
             16536M 16537M 16537B 16553M 16554M 16554B 16581M 16582M 16582B 16598M 16599M 16599B 16603M 16604N 16605N
             16609M 16609  16679M 16680M 16680B 16705M 16706M 16706B 16775M 16776M 16776B 16800M 16803B 16821  16867M
             16870B 16887  16934M 16935M 16935B 16954M 16957B 17041  17108M 17109M 17109B 17121M 17122N 17123N 17127M
             17127  17130M 17131M 17131B 17184M 17185M 17185B 17206M 17207M 17207B 17256M 17257M 17257B 17278M 17279M
             17279B 17387M 17390B 17554  17657M 17658  17659  17660  17668M 17669M 17669B 17672M 17675  17676  17677
             17682M 17683M 17683B 17703M 17704M 17704B 17728M 17729M 17729B 17753M 17754M 17754B 17779M 17780M 17780B
             17806M 17807M 17807B 17847M 17848  17849  17850  17855M 17856  17859M 17860M 17860B 17863M 17866  17867
             17868  17873M 17874M 17874B 17898M 17899M 17899B 18042M 18043M 18043B 18064M 18065M 18065B 18098M 18101B
             18237  18268M 18269M 18269B 18293M 18296B 18308  18339M 18340M 18340B 18343M 18344M 18344B 18361M 18364B
             18376  18424M 18425M 18425B 18432M 18433M 18433B 18481M 18484B 18496  18544M 18545M 18545B 18552M 18553M
             18553B 18596M 18599B 18611  18662M 18665B 18677  18722M 18725B 18737  18782M 18785B 18797  18848M 18851B
             18906  18978M 18979  18980  18981  18989M 18990M 18990B 18993M 18996  18997  18998  19003M 19004M 19004B
             19049M 19050M 19050B 19074M 19075M 19075B 19099M 19100M 19100B 19125M 19126M 19126B 19152M 19153M 19153B
             19159M 19160M 19160B 19175M 19176M 19176B 19216M 19217M 19217B 19232M 19233M 19233B 19260M 19261M 19261B
             19264M 19265M 19265B 19290M 19293B 19320  19355M 19356M 19356B 19363M 19364M 19364B 19386M 19389B 19469
             19540M 19552M 19553  19554  19555  19560M 19561  19564M 19565M 19565B 19568M 19571  19572  19573  19578M
             19579M 19579B 19586M 19587M 19587B 19597M 19598M 19598B 19658M 19659M 19659B 19676M 19677M 19677B 19702M
             19703M 19703B 19720M 19721M 19721B 19747M 19748M 19748B 19772M 19773M 19773B 19781M 19782M 19782B 19816M
             19819B 19913  19963M 19964M 19964B 19983M 19984M 19984B 20005M 20008B 20022  20072M 20073M 20073B 20094M
             20097B 20111  20158M 20159M 20159B 20180M 20183B 20246  20316M 20317N 20318N 20322M 20322  20332M 20333
             20334  20335  20343M 20344M 20344B 20347M 20350  20351  20352  20412M 20413M 20413B 20419M 20420M 20420B
             20435M 20436M 20436B 20441M 20442M 20442B 20484M 20485N 20486N 20490M 20490  20500M 20501  20502  20503
             20511M 20512M 20512B 20515M 20518  20519  20520  20524M 20525N 20526N 20530M 20530  20548M 20549M 20549B
             20558M 20560M 20562M 20564M 20566M 20580  20597  20601  20637M 20640B 20674  20779M 20780M 20780B 20791M
             20792M 20792B 20807  20808M 20836M 20839B 20889  20979M 20980M 20980B 20987M 20988M 20988B 21009M 21010M
             21010B 21025  21026M 21135M 21136M 21136B 21151  21152M 21195M 21198B 21233  21277M 21278M 21278B 21285M
             21286M 21286B 21325M 21328B 21382  21442M 21443M 21443B 21450M 21451M 21451B 21563M 21566B 21598  21631M
             21632M 21632B 21638M 21639M 21639B 21661M 21664B 21709  21771M 21772M 21772B 21779M 21780M 21780B 21876M
             21877M 21877B 21892  21893M 21921M 21922M 21922B 21961M 21964B 22059  22098M 22099  22100  22101  22109M
             22110M 22110B 22113M 22116  22117  22118  22137M 22138M 22138B 22163M 22166B 22183  22222M 22223  22224
             22225  22230M 22231  22234M 22235M 22235B 22238M 22241  22242  22243  22248M 22249M 22249B 22416M 22417M
             22417B 22446M 22447M 22447B 22458M 22459M 22459B 22485M 22486M 22486B 22517M 22518M 22518B 22548M 22549M
             22549B 22580M 22583B 22656  22707M 22710B 22722  22770M 22773B 22793  22824M 22825M 22825B 22877M 22878M
             22878B 22904M 22905M 22905B 23037M 23038M 23038B 23061M 23064B 23111  23160M 23161M 23161B 23347M 23348M
             23348B 23417  23418M 23691M 23694B 23711  23761M 23762M 23762B 23784M 23787B 23806  23870  23871M 23978
             23979M 23999M 24000M 24000B 24025M 24028B 24082  24116M 24117M 24117B 24193M 24194N 24195N 24199M 24199
             24213M 24214N 24215N 24219M 24219  24234M 24235M 24235B 24349M 24350M 24350B 24364M 24365  24377M 24378
             24379  24380  24388M 24389M 24389B 24392M 24395  24396  24397  24401M 24402N 24403N 24407M 24407  24422M
             24423M 24423B 24426M 24429  24433M 24434M 24434B 24444M 24445  24446  24447  24452M 24453  24456M 24457M
1         (COMM4072) (12:40) (15MAR04) General Purpose Register Cross Reference                                             Page  177
             24457B 24460M 24463  24464  24465  24470M 24471M 24471B 24489M 24492B 24519  24550M 24551  24563M 24564
             24565  24566  24571M 24572  24575M 24576M 24576B 24579M 24582  24583  24584  24588M 24591  24612M 24615B
             24810  24856M 24859B 24871  24923M 24926B 24938  24989M 24990M 24990B 25007M 25008M 25008B 25032M 25035B
             25067  25165M 25169  25171N 25194M 25195M 25195B 25198M 25216M 25217M 25217B 25223M 25224M 25224B 25230M
             25231M 25231B 25263M 25264M 25264B 25351M 25352M 25352B 25362M 25363M 25363B 25384M 25385M 25385B 25408M
             25412  25414N 25437M 25438M 25438B 25441M 25459M 25460M 25460B 25466M 25467M 25467B 25473M 25474M 25474B
             25506M 25507M 25507B 25537M 25540B 25614  25648M 25649N 25650N 25654M 25654  25665M 25677M 25685M 25697M
             25716M 25717N 25718N 25722M 25722  25740M 25741M 25741B 25747M 25748M 25748B 25754M 25755M 25755B 25783M
             25784N 25785N 25789M 25789  25792M 25793M 25793B 25826M 25827N 25828N 25832M 25832  25849M 25850  25851
             25852  25857M 25858  25861M 25862M 25862B 25865M 25868  25869  25870  25876M 25877M 25877B 25895M 25898B
             25920  25954M 25955N 25956N 25960M 25960  25971M 25983M 25991M 26003M 26022M 26023N 26024N 26028M 26028
             26046M 26047M 26047B 26053M 26054M 26054B 26064M 26065  26066  26067  26072M 26073  26076M 26077M 26077B
             26080M 26083  26084  26085  26091M 26092M 26092B 26110M 26113B 26130  26163M 26164M 26164B 26223M 26224N
             26225N 26229M 26229  26243M 26244N 26245N 26249M 26249  26255M 26256  26268M 26269  26270  26271  26279M
             26280M 26280B 26283M 26286  26287  26288  26292M 26293N 26294N 26298M 26298  26313M 26314M 26314B 26317M
             26320  26324M 26325M 26325B 26335M 26336  26337  26338  26343M 26344  26347M 26348M 26348B 26351M 26354
             26355  26356  26362M 26363M 26363B 26381M 26384B 26405  26436M 26437  26449M 26450  26451  26452  26457M
             26458  26461M 26462M 26462B 26465M 26468  26469  26470  26474M 26477  26498M 26501B 26710  26756M 26759B
             26771  26822M 26823M 26823B 26847M 26850B 26867  26900M 26901M 26901B 26955M 26956N 26957N 26961M 26961
             26975M 26976N 26977N 26981M 26981  26987M 26988  27000M 27001  27002  27003  27011M 27012M 27012B 27015M
             27018  27019  27020  27024M 27025N 27026N 27030M 27030  27045M 27046M 27046B 27049M 27052  27056M 27057M
             27057B 27067M 27068  27069  27070  27075M 27076  27079M 27080M 27080B 27083M 27086  27087  27088  27093M
             27094M 27094B 27112M 27115B 27138  27169M 27170  27182M 27183  27184  27185  27190M 27191  27194M 27195M
             27195B 27198M 27201  27202  27203  27207M 27210  27231M 27234B 27445  27491M 27494B 27506  27557M 27558M
             27558B 27575M 27576M 27576B 27600M 27603B 27651  27682M 27683M 27683B 27724M 27725M 27725B 27743M 27746B
             27774  27826M 27829B
    15(F)      922U  2099   6870M  6897M  6897   6978   7064M  7064   7117M  7120   7132M  7137   7141M  7150M  7150
              7157   7239M  7239   7349M  7359U  7377U  7447M  7447   7565M  7611M  7673M  7707M  7757M  7757   7812M
              7812   7843M  7861M  7861   7879   7889M  7897M  7897   7940   7989   8035   8197M  8243M  8243   8516M
              8789M  8864M  8865M  8897M  9097   9123M  9127M  9136M  9136   9143   9597M  9674M  9674   9936M  9951M
              9973M  9973  10026M 10026  10108  10190M 10190  10240M 10259M 10259  10309  10328M 10328  10399M 10399
             10453M 10453  10457M 10458M 10459  10483M 10536M 10536  10592  10606M 10638M 10647M 10682M 10700M 10731M
             10754M 10754  10836M 10871M 10871  10880M 10897  10920M 11009M 11040M 11040  11150M 11150  11242M 11294M
             11294  11390M 11390  11458M 11458  11585M 11589M 11598M 11598  11605  11646M 11646  11718M 11873M 11873
             12075M 12087  12109M 12116M 12185M 12215M 12261M 12277M 12278  12282M 12291M 12291  12298  12346M 12370M
             12370  12510M 12510  12621M 12621  12692M 12692  12756M 12757M 12758  12762M 12763M 12764  12783M 12784M
             12785  12789M 12790M 12791  12953M 12963U 13062U 13499M 13499  13600M 13600  13626M 13626  13771M 13780M
             13780  13786M 13795M 13795  13801M 13802M 13804M 13805  13817M 13817  13818  13860M 13861M 13862  13930M
             13939M 13939  13945M 13954M 13954  13960M 13961M 13963M 13964  13976M 13976  13977  13998M 13998  14077M
             14077  14086M 14086  14117M 14117  14163M 14166  14178M 14186M 14195M 14195  14202  14379M 14379  14388M
             14388  14583M 14583  14586M 14633M 14633  14768M 14787M 14787  14830M 14849M 14849  14892M 14911M 14911
             14954M 14973M 14973  15018M 15027M 15027  15033M 15042M 15042  15048M 15049M 15051M 15052  15064M 15064
             15065  15070M 15089M 15089  15222M 15222  15323M 15323  15364M 15382M 15404M 15451M 15495M 15495  15620M
             15639M 15639  15684M 15703M 15703  15748M 15767M 15767  15812M 15831M 15831  15942M 15942  15977M 16102M
             16102  16187M 16313M 16313  16490M 16533M 16550M 16578M 16595M 16676M 16702M 16712M 16713  16717M 16726M
             16726  16733  16802M 16802  16869M 16869  16956M 16956  17181M 17203M 17253M 17275M 17299M 17309N 17314M
             17323M 17323  17330  17389M 17389  17678M 17678  17787M 17869M 17869  18076M 18076  18100M 18100  18295M
             18295  18363M 18363  18464M 18464  18483M 18483  18579M 18579  18598M 18598  18664M 18664  18724M 18724
             18784M 18784  18850M 18850  18999M 18999  19133M 19213M 19292M 19292  19351M 19359M 19369M 19369  19388M
             19388  19539M 19540M 19574M 19574  19582M 19591M 19655M 19673M 19699M 19717M 19744M 19769M 19775M 19794M
             19794  19818M 19818  19944M 19967M 19988M 19988  20007M 20007  20053M 20077M 20077  20096M 20096  20142M
             20163M 20163  20182M 20182  20353M 20353  20362M 20362  20393M 20521M 20521  20554M 20556  20559M 20560M
             20561M 20562M 20563M 20564M 20565M 20566  20607M 20607  20612M 20639M 20639  20775M 20781M 20807  20819M
             20819  20838M 20838  20975M 20981M 21003M 21025  21129M 21151  21173M 21173  21197M 21197  21273M 21279M
             21327M 21327  21438M 21444M 21532M 21532  21537M 21565M 21565  21627M 21634M 21644M 21644  21663M 21663
             21767M 21773M 21870M 21892  21917M 21939M 21939  21963M 21963  22119M 22119  22165M 22165  22244M 22244
             22413M 22443M 22454M 22482M 22514M 22545M 22582M 22582  22709M 22709  22772M 22772  22950M 22951M 22952
             22953  22989M 22990N 22991  23001M 23002M 23003  23063M 23063  23259M 23259  23276M 23280M 23289M 23289
             23296  23316  23360  23417  23483M 23483  23493D 23495M 23495  23496M 23497U 23506M 23506  23515M 23524M
1         (COMM4072) (12:40) (15MAR04) General Purpose Register Cross Reference                                             Page  178
             23524  23531  23551  23571M 23575M 23584M 23584  23591  23641M 23641  23660M 23693M 23693  23786M 23786
             23870  23882M 23883M 23883  23913  23921M 23922M 23922  23952  23960M 23961M 23962  23978  24027M 24027
             24398M 24398  24466M 24466  24491M 24491  24585M 24585  24595M 24595  24614M 24614  24839M 24858M 24858
             24906M 24925M 24925  24986M 25004M 25034M 25034  25169  25191M 25198M 25213M 25412  25434M 25441M 25456M
             25520M 25520  25539M 25539  25670M 25676  25677M 25690M 25696  25697M 25871M 25871  25897M 25897  25976M
             25982  25983M 25996M 26002  26003M 26086M 26086  26112M 26112  26289M 26289  26357M 26357  26383M 26383
             26471M 26471  26481M 26481  26500M 26500  26739M 26758M 26758  26819M 26849M 26849  27021M 27021  27089M
             27089  27114M 27114  27204M 27204  27214M 27214  27233M 27233  27474M 27493M 27493  27554M 27572M 27602M
             27602  27688D 27690M 27690  27691M 27692U 27693M 27694M 27695M 27706N 27721M 27745M 27745  27828M 27828

1COMM     (COMM4072) (12:40) (15MAR04) Diagnostic Cross Reference and Assembler Summary                                     Page  179
-                                                                                            HLASM R4.0  2004/03/15 12.40
0     No Statements Flagged in this Assembly
 HIGH LEVEL ASSEMBLER, 5696-234, RELEASE 4.0, PTF P72483
0SYSTEM: OS/390 02.10.00            JOBNAME: WYL#COMM    STEPNAME: ASM        PROCSTEP: (NOPROC)
0Datasets Allocated for this Assembly
  Con DDname   Dataset Name                                 Volume  Member
   P1 SYSIN    WYL.GS.WYL.WYLBUR.SOURCE                     SYSB05  COMM
   L1 SYSLIB   WYL.GS.WYL.WYLBUR.MACLIB                     SYSB05
   L2          WYL.GG.SYS.MACLIB                            SYSB05
   L3          SYS3.IS.MACLIB                               SYSB05
   L4          SYS3.MACLIB                                  SYSB02
   L5          SYS1.MACLIB                                  MVSBR9
   L6          SYS1.MODGEN                                  MVSBR9
      SYSPRINT SYS04075.T124046.RA000.WYL#COMM.PRINT.H01    SCR101
      SYSTERM  GG$SLP.WYL#COMM.JOB03510.D0000101.?

    3668K allocated to Buffer Pool,         3789K would be required for this to be an In-Storage Assembly
    3228 Primary Input Records Read         7947 Library Records Read                  0 Work File Reads
       0 ASMAOPT Records Read              18694 Primary Print Records Written        34 Work File Writes
       0 Punch Records Written                 0 ADATA Records Written
0Assembly Start Time: 12.40.48 Stop Time: 12.41.01 Processor Time: 00.00.05.8195
 Return Code 000
