1                        J E S 2  J O B  L O G  --  S Y S T E M  S Y S B  --  N O D E  R L G
0
 12.53.33 JOB03559 ---- MONDAY,    15 MAR 2004 ----
 12.53.33 JOB03559  ICH70001I GG$SLP   LAST ACCESS AT 12:53:08 ON MONDAY, MARCH 15, 2004
 12.53.33 JOB03559  $HASP373 WYL#RJE  STARTED - INIT 9    - CLASS B - SYS SYSB
 12.53.33 JOB03559  ***  HCMD      STEP $$QUIET
 12.53.33 JOB03559  PUR * Q OUT MUL
 12.53.33 JOB03559  JOB 5422 WYL#RJE  WILL BE PURGED
 12.53.34 JOB03559  WYL#RJE .$$QUIET .         RC=Zero TapeIO=0000 DiskIO=0000 CPU=  .01s Elapsed=13.13s
 12.53.59 JOB03559  WYL#RJE .ASM     .         RC=Zero TapeIO=0000 DiskIO=1081 CPU=11.31s Elapsed=14.21s
 12.54.02 JOB03559  WYL#RJE .EDIT    .         RC=Zero TapeIO=0000 DiskIO=0539 CPU= 1.49s Elapsed=39.09s
 12.54.02 JOB03559  WYL#RJE  Ended.  Name=Assemble RJE                   Total CPU=12.81s Elapsed=13.13s
 12.54.02 JOB03559
 12.54.02 JOB03559  Execution charges   Priority=Standard   Block=Day
 12.54.02 JOB03559
 12.54.02 JOB03559  CPU Usage         237.93         $147.51   Standard Processing Unit Equivalent
 12.54.02 JOB03559                                   =======
 12.54.02 JOB03559                                   $147.51   Total Job execution charge
 12.54.02 JOB03559
 12.54.02 JOB03559  See back separator page for print charges
 12.54.02 JOB03559
 12.54.02 JOB03559  $HASP395 WYL#RJE  ENDED  ASM=0, EDIT=0
1        1 //WYL#RJE JOB SLP$GG,'Assemble RJE',TIME=4,REGION=4M                    JOB03559
           //*
           /*JOBPARM LINES=99,COPIES=1
           /*JOBPARM FORMS=3HOL,PFORMAT=LAND,CHARS=BD13,DUPLEX=YES,FLASH=BAR4
           //*
           /*JOBPARM NOTIFY=GG.SLP,HOLD=OUTPUT                                     WYLGEN
         2 //$$QUIET EXEC PGM=HCMDX,PARM='PUR * Q OUT MUL'
           //*
         3 //ASM    EXEC PGM=ASMA90,REGION=8M,
           //            PARM=('NORENT,TERM,FLAG(NOCONT),US(MAP,WARN(10)),NODECK',
           //            'LC(32767),XREF(SHORT),ESD,DXREF,NOOBJECT')
         4 //STEPLIB DD DSN=SYS3.IS.TESTASM,DISP=SHR
         5 //SYSLIB   DD  DSN=WYL.GS.WYL.WYLBUR.MACLIB,DISP=SHR
         6 //         DD  DSN=WYL.GG.SYS.MACLIB,DISP=SHR
         7 //         DD  DSN=SYS3.IS.MACLIB,DISP=SHR
         8 //         DD  DSN=SYS3.MACLIB,DISP=SHR
         9 //         DD  DSN=SYS1.MACLIB,DISP=SHR
        10 //         DD  DSN=SYS1.MODGEN,DISP=SHR
        11 //SYSUT1   DD DSN=&&SYSUT1,UNIT=VIO,DISP=(,DELETE),
           //            SPACE=(4088,(500,250),,CONTIG,ROUND)
        12 //SYSTERM  DD SYSOUT=T
        13 //SYSPRINT DD DSN=&&PRINT,UNIT=SYSDA,DISP=(,PASS),
           //            SPACE=(6650,(250,250),RLSE),
           //            DCB=(BLKSIZE=6650,LRECL=133,RECFM=FB)
        14 //SYSUDUMP DD SYSOUT=A
        15 //SYSIN    DD  DSN=WYL.GS.WYL.WYLBUR.SOURCE(RJE),DISP=SHR
           //*
        16 //EDIT    EXEC PGM=ASMEDIT,TIME=2,REGION=4000K,
           //             PARM='STMT'
        17 //STEPLIB  DD  DSN=WYL.GG.SYS.LINKLIB,DISP=SHR
        18 //ASMOUT   DD  DSN=&PRINT,DISP=(OLD,DELETE)
        19 //SYSPRINT DD  SYSOUT=A
1 STMT NO. MESSAGE
 -
        11 IGD01010I STORCLAS= TEMP STORGROUP =
        11 IGD01010I STORGRP=VIO ASSIGNED.
        13 IGD01010I STORCLAS= TEMP STORGROUP =
        13 IGD01010I STORGRP=VIO ASSIGNED.
 ICH70001I GG$SLP   LAST ACCESS AT 12:53:08 ON MONDAY, MARCH 15, 2004
 IEF142I WYL#RJE $$QUIET - STEP WAS EXECUTED - COND CODE 0000
 *********************************************************************************
 *   WYL#RJE /$$QUIET /                    Return Code      Zero                 *
 *   Region used      260K (16K user + 244K system)                              *
 *   Extended region  9464K (4K user + 9460K system)                             *
 *                                                                               *
 *   Paging              In      Out                                             *
 *   Private <-> Aux      0        0       CPU time (TCB)   00:00:00.01          *
 *   Private <-> Exp      0        0       CPU time (SRB)   00:00:00.00          *
 *   VIO                  0        0       Elapsed time    917:34:19.83          *
 *   Common               0      ---                                             *
 *                                                                               *
 *                                                                               *
 *   CPU Usage          0.18         $0.11  Standard Processing Unit Equivalent  *
 *                                   $0.11  Total Step execution charge          *
 *                                                                               *
 *    I/O count  DDname   Type Addr           I/O count  DDname   Type Addr      *
 *                         *** No I/O for this step ***                          *
 *********************************************************************************
 IEF373I STEP/$$QUIET /START 2004075.1253
 IEF374I STEP/$$QUIET /STOP  2004075.1253 CPU    0MIN 00.01SEC SRB    0MIN 00.00SEC VIRT    16K SYS   244K EXT       4K SYS    9460K
 IEF236I ALLOC. FOR WYL#RJE ASM
 IEF237I 04DC ALLOCATED TO STEPLIB
 IEF237I 04DC ALLOCATED TO SYSLIB
 IEF237I 04DC ALLOCATED TO
 IEF237I 04DC ALLOCATED TO
 IEF237I 0402 ALLOCATED TO
 IEF237I 04A0 ALLOCATED TO
 IEF237I 04A0 ALLOCATED TO
 IGD101I SMS ALLOCATED TO DDNAME (SYSUT1  )
         DSN (SYS04075.T125333.RA000.WYL#RJE.SYSUT1.H01   )
         STORCLAS (TEMP) MGMTCLAS (        ) DATACLAS (        )
         VOL SER NOS= VIO
 IEF237I JES2 ALLOCATED TO SYSTERM
 IGD101I SMS ALLOCATED TO DDNAME (SYSPRINT)
         DSN (SYS04075.T125333.RA000.WYL#RJE.PRINT.H01    )
         STORCLAS (TEMP) MGMTCLAS (        ) DATACLAS (        )
         VOL SER NOS= SCR100
 IEF237I JES2 ALLOCATED TO SYSUDUMP
 IEF237I 04DC ALLOCATED TO SYSIN
 IEF142I WYL#RJE ASM - STEP WAS EXECUTED - COND CODE 0000
 IEF285I   SYS3.IS.TESTASM                              KEPT
 IEF285I   VOL SER NOS= SYSB05.
 IEF285I   WYL.GS.WYL.WYLBUR.MACLIB                     KEPT
 IEF285I   VOL SER NOS= SYSB05.
 IEF285I   WYL.GG.SYS.MACLIB                            KEPT
 IEF285I   VOL SER NOS= SYSB05.
 IEF285I   SYS3.IS.MACLIB                               KEPT
 IEF285I   VOL SER NOS= SYSB05.
 IEF285I   SYS3.MACLIB                                  KEPT
 IEF285I   VOL SER NOS= SYSB02.
 IEF285I   SYS1.MACLIB                                  KEPT
 IEF285I   VOL SER NOS= MVSBR9.
 IEF285I   SYS1.MODGEN                                  KEPT
 IEF285I   VOL SER NOS= MVSBR9.
 IGD105I SYS04075.T125333.RA000.WYL#RJE.SYSUT1.H01    DELETED,   DDNAME=SYSUT1
 IEF285I   GG$SLP.WYL#RJE.JOB03559.D0000101.?           SYSOUT
 IGD106I SYS04075.T125333.RA000.WYL#RJE.PRINT.H01     PASSED,    DDNAME=SYSPRINT
 IEF285I   GG$SLP.WYL#RJE.JOB03559.D0000102.?           SYSOUT
 IEF285I   WYL.GS.WYL.WYLBUR.SOURCE                     KEPT
 IEF285I   VOL SER NOS= SYSB05.
 *********************************************************************************
 *   WYL#RJE /ASM     /                    Return Code      Zero                 *
 *   Region used      4376K (4096K user + 280K system)                           *
 *   Extended region  10084K (412K user + 9672K system)                          *
 *                                                                               *
 *   Paging              In      Out                                             *
 *   Private <-> Aux      0        0       CPU time (TCB)   00:00:11.23          *
 *   Private <-> Exp      0        0       CPU time (SRB)   00:00:00.08          *
 *   VIO                  0        0       Elapsed time    917:34:18.75          *
 *   Common               0      ---                                             *
 *                                                                               *
 *                                                                               *
 *   CPU Usage        210.56       $130.54  Standard Processing Unit Equivalent  *
 *                                 $130.54  Total Step execution charge          *
 *                                                                               *
 *    I/O count  DDname   Type Addr           I/O count  DDname   Type Addr      *
 *           88  STEPLIB  Disk 04DC                 375  SYSLIB   Disk 04DC      *
 *            0  SYSLIB   Disk 04DC                   0  SYSLIB   Disk 04DC      *
 *            0  SYSLIB   Disk 0402                  68  SYSLIB   Disk 04A0      *
 *            0  SYSLIB   Disk 04A0               1,422  SYSUT1   VIO  ----      *
 *            0  SYSTERM       ----                 536  SYSPRINT Disk 038B      *
 *            0  SYSUDUMP      ----                  14  SYSIN    Disk 04DC      *
 *********************************************************************************
 IEF373I STEP/ASM     /START 2004075.1253
 IEF374I STEP/ASM     /STOP  2004075.1253 CPU    0MIN 11.23SEC SRB    0MIN 00.08SEC VIRT  4096K SYS   280K EXT     412K SYS    9672K
 IEF236I ALLOC. FOR WYL#RJE EDIT
 IEF237I 0402 ALLOCATED TO STEPLIB
 IGD103I SMS ALLOCATED TO DDNAME ASMOUT
 IEF237I JES2 ALLOCATED TO SYSPRINT
 IEF142I WYL#RJE EDIT - STEP WAS EXECUTED - COND CODE 0000
 IEF285I   WYL.GG.SYS.LINKLIB                           KEPT
 IEF285I   VOL SER NOS= SYSB02.
 IGD105I SYS04075.T125333.RA000.WYL#RJE.PRINT.H01     DELETED,   DDNAME=ASMOUT
 IEF285I   GG$SLP.WYL#RJE.JOB03559.D0000103.?           SYSOUT
 *********************************************************************************
 *   WYL#RJE /EDIT    /                    Return Code      Zero                 *
 *   Region used      380K (116K user + 264K system)                             *
 *   Extended region  9596K (4K user + 9592K system)                             *
 *                                                                               *
 *   Paging              In      Out                                             *
 *   Private <-> Aux      0        0       CPU time (TCB)   00:00:01.45          *
 *   Private <-> Exp      0        0       CPU time (SRB)   00:00:00.04          *
 *   VIO                  0        0       Elapsed time    917:33:53.87          *
 *   Common               0      ---                                             *
 *                                                                               *
 *                                                                               *
 *   CPU Usage         27.18        $16.85  Standard Processing Unit Equivalent  *
 *                                  $16.85  Total Step execution charge          *
 *                                                                               *
 *    I/O count  DDname   Type Addr           I/O count  DDname   Type Addr      *
 *            2  STEPLIB  Disk 0402                 537  ASMOUT   Disk 038B      *
 *            0  SYSPRINT      ----                                              *
 *********************************************************************************
 IEF373I STEP/EDIT    /START 2004075.1253
 IEF374I STEP/EDIT    /STOP  2004075.1254 CPU    0MIN 01.45SEC SRB    0MIN 00.04SEC VIRT   116K SYS   264K EXT       4K SYS    9592K
 *********************************************************************************
 *                                                                               *
 *                      S t a n f o r d   U n i v e r s i t y                    *
 *                                                                               *
 *                              *** Job Summary ***                              *
 *                                                                               *
 *   System Id      SYSB                   Input time     12:39:25  Mar 15, 2004 *
 *                                                                               *
 *   System Release SP6.1.0                Start time     12:53:33  Mar 15, 2004 *
 *                                                                               *
 *   Job name       WYL#RJE                Stop  time     00:00:00  Mar 15, 2004 *
 *                                                                               *
 *   Account        SLP$GG                 Elapsed time  917:34:19.83            *
 *                                                                               *
 *   User Name      Assemble RJE           CPU time       00:00:12.69            *
 *                                                                               *
 *   Job class      B                      SRB Time       00:00:00.12            *
 *                                                                               *
 *********************************************************************************
 IEF375I  JOB/WYL#RJE /START 2004075.1253
 IEF376I  JOB/WYL#RJE /STOP  2004075.1254 CPU    0MIN 12.69SEC SRB    0MIN 00.12SEC
1Assembler Done RJE No Statements Flagged
1         High Level Assembler Option Summary                   (PTF P72483 )                                               Page    1
-                                                                                            HLASM R4.0  2004/03/15 12.53
0  No Overriding ASMAOPT Parameters
   Overriding Parameters-  NORENT,TERM,FLAG(NOCONT),US(MAP,WARN(10)),NODECK,LC(32767),XREF(SHORT),ESD,DXREF,NOOBJECT
   No Process Statements


   Options for this Assembly
0  NOADATA
     ALIGN
   NOASA
     BATCH
     CODEPAGE(047C)
   NOCOMPAT
   NODBCS
 3 NODECK
 3   DXREF
 3   ESD
   NOEXIT
 3   FLAG(0,ALIGN,NOCONT,NOIMPLEN,NOPAGE0,PUSH,RECORD,NOSUBSTR,USING0)
   NOFOLD
   NOGOFF
   NOINFO
     LANGUAGE(EN)
   NOLIBMAC
 3   LINECOUNT(32767)
     LIST(121)
     MXREF(SOURCE)
 3 NOOBJECT
     OPTABLE(UNI,NOLIST)
   NOPCONTROL
   NOPESTOP
   NOPROFILE
   NORA2
 3 NORENT
     RLD
     RXREF
     SIZE(MAX)
     SYSPARM()
 3   TERM(WIDE)
   NOTEST
     THREAD
   NOTRANSLATE
 3   USING(NOLIMIT,MAP,WARN(10))
 3   XREF(SHORT)

   No Overriding DD Names

1RJE      External Symbol Dictionary                                                                                        Page    2
-Symbol   Type   Id     Address  Length     LD ID  Flags Alias-of                            HLASM R4.0  2004/03/15 12.53
0WYLRJE    SD 00000001 00000000 0000A2F6             00
 RJE4072   LD          00000000           00000001
 SETWPRT   LD          00000016           00000001
 MPARM     ER 00000002
 MTOKEN    ER 00000003
 MALL      ER 00000004
 SCNNOOP   ER 00000005
 CHKPRT    LD          000005F2           00000001
 SETPRT    LD          0000065A           00000001
 SETLPR    LD          0000069C           00000001
 SHOWLPR   LD          000006EE           00000001
 LPRDISP   LD          00000724           00000001
 SEGCR     ER 00000006
 SEG       ER 00000007
 NOTVALID  ER 00000008
 EXIT0     ER 00000009
 DOFNAME   ER 0000000A
 FNAMOPTS  ER 0000000B
 FNAMEFIN  ER 0000000C
 NDETRNG   ER 0000000D
 EXTOPEN   ER 0000000E
 RDRNG     ER 0000000F
 EXTCLOSE  ER 00000010
 NSCAN     ER 00000011
 SCUPCASE  ER 00000012
 SCDQUOTE  ER 00000013
 LRTRIM    ER 00000014
 SAVEDATA  ER 00000015
 COLLOPTS  ER 00000016
 GETDATA   ER 00000017
 CONDENSE  LD          0000088A           00000001
 FNAMPSH   ER 00000018
 LISTPSH   ER 00000019
 COLLPSH   ER 0000001A
 QUIETPSH  ER 0000001B
 SEGINIT   ER 0000001C
 SEGINITR  ER 0000001D
 MKFFINFO  ER 0000001E
 SCANCHK   ER 0000001F
 SETPFXNS  ER 00000020
 DSNAUTH   ER 00000021
 SEGT      ER 00000022
 SEGWR     ER 00000023
 SEGB      ER 00000024
 MEMBERED  ER 00000025
 RUN       LD          00000D8E           00000001
 RUNMSG    LD          00000F6E           00000001
 FNAMESCN  ER 00000026
 RNUMPSH   ER 00000027
 FNAMPSHF  ER 00000028
 SCNEXFR   ER 00000029
 SCINFO    ER 0000002A
 KWIO      ER 0000002B
 CVEXNO    ER 0000002C
 PRINT     LD          0000187A           00000001
1RJE      External Symbol Dictionary                                                                                        Page    3
 PRINTMSG  LD          00001B22           00000001
 LOCALTOD  ER 0000002D
 FMTCLCK   ER 0000002E
 EVALSTR   ER 0000002F
 TEXTONLY  ER 00000030
 JESODEL   ER 00000031
 BTD       ER 00000032
 TEXTPSH   ER 00000033
 COLSPSH   ER 00000034
 MINT      ER 00000035
 BTX       ER 00000036
 MIXFMT    ER 00000037
 SEGCLR    ER 00000038
 SCNINVAL  ER 00000039
 DEQUOTE   ER 0000003A
 SEGTB     ER 0000003B
 NRESOLVE  ER 0000003C
 SEGDC     ER 0000003D
 MPINT     ER 0000003E
 RLOOKUP   ER 0000003F
 CHARCHKA  ER 00000040
 CHARCHK   ER 00000041
 NSCANSTR  ER 00000042
 DESTCHK   ER 00000043
 GETACCT   ER 00000044
 DESTVER   ER 00000045
 JESOCLS   ER 00000046
 JESRTN    ER 00000047
 SEGCOL    ER 00000048
 JOBKWCHK  ER 00000049
 FMTXDATE  ER 0000004A
 DTB       ER 0000004B
 WRAPWR    LD          0000A1FC           00000001
 JESWR     ER 0000004C
 RTRIM     ER 0000004D

1RJE      WYLBUR's Job Entry Commands                                                                                       Page    4
0Loc    Object Code    Addr1 Addr2  Stmt Lv Lineno    Source Statement                    (Asmedit 3.3)  HLASM R4.0  2004/03/15 12.53
+___    ______ ____    _____ _____  ____ __ ______    ______ _________
0                                      2              *******************************************************************
                                       3              *                                                                 *
                                       4              *     WYLBUR/370 - Release VI - Class I - Stanford Proprietary    *
                                       5              *                                                                 *
                                       6              *******************************************************************
                                       7              *
                                       8              *   Modification history:
                                       9              *
                                      10              *     13-Apr-1995 - M. Durket
                                      11              *       Fixed error in SETPRIO routine. The message TSEGed was
                                      12              *       usually garbage because the CEIL statement used R15 instead
                                      13              *       of R0.
                                      14              *
                                      15                       HIBAL
                                     996
 000000                00000 0A2F6   997              WYLRJE   CSECT
                                    1001              RJE      IDENT 4072                10:30:08 03/12/04  (SLP)
                                    1004             +
                                    1005    01-IDENT +         ENTRY RJE4072
                                    1006             +
 000000 15D9D1C5F4F0F7F2            1007    01-IDENT +RJE4072  DC    AL1(21),C'RJE4072,15MAR04,12:53'
                                    1008             +*
                                    1010              *
                                    1011                       SYSDEFN
                                    1012                       GBLC  &INSTALN            (See SYSDEFN)
                                    1013                       GBLB  &JESMAIL,&PGMNAME   (See SYSDEFN)
                                    1014                       GBLB  &JCLPRIO            (See SYSDEFN)
                                    1015                       GBLC  &STDCLAS,&DOCFORM,&DOCCLAS,&FICCLAS
                                    1016
                                    1017                       REGS  FSR,,,,,,,BR,(WAR,LSR),PAR,PBR,CPR,CVR,SPR,RAR
                                    1153
                                    1154                       PUSH  DSECTS
 USING  CP,R11                      1165             =         USING (CP),(CV)
 USING  CV,R12
 000016                00000 0A2F6  1184             =         POP   PRINT
1RJE      (RJE4072) (12:53) (15MAR04) SET WPRINTERS Command                                                                 Page    5
0Current Usings:  (CP,R11) (CV,R12)
0Loc    Object Code    Addr1 Addr2  Stmt Lv Lineno    Source Statement           (Hibal 5, Asmedit 3.3)  HLASM R4.0  2004/03/15 12.53
+___    ______ ____    _____ _____  ____ __ ______    ______ _________
0                                   7163              ¿þþþþþþþþþþþþþþþþþþþþþþþþþþþþþþþþþþþþþþþþþþþþþþþþþþþþþþþþþþþþþþþþþþþþþÜ
                                    7164              Ÿ                                                                     Ÿ
                                    7165              Ÿ  Printer Information                                                Ÿ
                                    7166              Ÿ                                                                     Ÿ
                                                      ¾þþþþþþþþþþþþþþþþþþþþþþþþþþþþþþþþþþþþþþþþþþþþþþþþþþþþþþþþþþþþþþþþþþþþþ»
0000000                00000 0008A  7167              PRT      RECORD BEGIN
 000000                             7175  1           PRTLINK    DS    A                   Next PRT ptr
                                    7176  1
 000004 00                          7177  1           PRTFLAG    FLAG
 PRTFLAG.PRTFNKEY  80 ONES          7181  1                      FLAG  PRTFNKEY            - Password not needed to logon
                                    7186  1
                                    7187  1           PRTMAX#    EQU   6
 000005                             7188  1           PRTNAME    DS    (PRTMAX#)CL8        Printer name (primary is first)
                                    7189  1
 000035                             7190  1           PRTACCT    DS    CL5                 Logon account (UUUGG)
 00003A                             7191  1           PRTCMD     DS    CL80                First command to execute
 00008A                0008A 0008A  7192                       END
-000000                00000 00181  7202              SPRTWA   RECORD BEGIN
 000000 00                          7210  1           SPRTFLAG   FLAG
                                    7214  1
 000004                             7215  1           SPRTQH     DS    A                   New PRT queue head ptr
 000008                             7216  1           SPRTQT     DS    A                   New PRT queue tail ptr
                                    7217  1
 00000C                             7218  1           SPRT       DS    XL(L'PRT)           Working PRT entry
                                    7219  1
                                    7220  1           SPRTLINE   DS    CL(&LINESZ)         Working line buffer
 000096                                   1          +SPRTLINE   DS    CL(235)             Working line buffer
 000181                00181 00181  7221                       END
1RJE      (RJE4072) (12:53) (15MAR04) SET WPRINTERS Command                                                                 Page    6
0Current Usings:  (CP,R11) (CV,R12)
0Loc    Object Code    Addr1 Addr2  Stmt Lv Lineno    Source Statement           (Hibal 5, Asmedit 3.3)  HLASM R4.0  2004/03/15 12.53
+___    ______ ____    _____ _____  ____ __ ______    ______ _________
0                                   7231              ¿þþþþþþþþþþþþþþþþþþþþþþþþþþþþþþþþþþþþþþþþþþþþþþþþþþþþþþþþþþþþþþþþþþþþþÜ
                                    7232              Ÿ                                                                     Ÿ
                                    7233              Ÿ  SETWPRT -- SET WPRINTERS Command.  (Priv'd.)                       Ÿ
                                    7234              Ÿ                                                                     Ÿ
                                    7235              Ÿ    Note:  This routine is also called after a successful save       Ÿ
                                    7236              Ÿ           of "PRINTERS ACCOUNT GS.WYL".                             Ÿ
                                    7237              Ÿ                                                                     Ÿ
                                                      ¾þþþþþþþþþþþþþþþþþþþþþþþþþþþþþþþþþþþþþþþþþþþþþþþþþþþþþþþþþþþþþþþþþþþþþ»
0000016 50E0 D000/9008_      00000  7238              SETWPRT  XPROC SPRTWA
 USING  *,R7
 USING  SPRTWA-(4+36),R8
 000030 4160 8028            00000  7289                       LA    R6,SPRTWA
 USING  SPRTWA,R6                   7290                       USING SPRTWA,R6
 000034 D7FF 6000 6000_00000 00000  7299                       CLEAR SPRTWA
 000040 5060 BCA4            00CA4  7307                       ST    R6,CPCWA
                                    7308
 000044 95E6 BD24/4780_00D24        7309                       IF    (CPCMNM,NE,'W'),BEGIN  Entered after SAVE...
 00004C D603 B05C B05C_0005C 0005C  7326  1                      TCCR
 00006C 4110 7812/4100_      00842  7388  1                      TSEG  'Type SET WPRINTERS to reset printer tables.'
 00007E 47F0 C7DE            007DE  7406  1                      B     CVNEXT
 000082                             7407                       END
 000082 7056/47F0 7064 00082 0004A  7411                       ELSE  BEGIN               Command entry...
 000086 9120 B3BE/4710_003BE        7422  1                      IF    ~CPSFSPR,'VCALL NOTVALID'
 000094                             7446                       END
                                    7450
 000094 4100 0006            00006  7451                       LA    R0,SDSNPRIN         Want PRINTERS dsn
 000098 58E0 778C/0DEE       007BC  7452                       VCALL EXIT0               LOCAL exit - Format system dsname
 00009E 58E0 B08C/501E_      0008C  7456                       SCINIT (R1),(R0)
 0000AC 58E0 7790/0DEE       007C0  7476                       VCALL DOFNAME
 0000B2 58E0 7794/0DEE       007C4  7480                       VCALL FNAMOPTS
 0000B8 58E0 7798/0DEE       007C8  7484                       VCALL FNAMEFIN
                                    7488
 0000BE 9610 BD50      00D50        7489                       SET   CPLFLG1.CPFALL
 0000C2 9203 BD89      00D89        7496                       SET   CPFRDEXT
 0000C6 58E0 779C/0DEE       007CC  7502                       VCALL NDETRNG
                                    7506
 0000CC 58E0 77A0/0DEE       007D0  7507                       VCALL EXTOPEN             Open the file
 0000D2 12FF/4770 C7DE              7511                       IF    (R15,NZ),CVNEXT
                                    7528
 0000D8 5800 77A4/5810_      007D4  7529                       RDRNG SPRTRTN,(DESRTRN+LXCATRTN+UNPRST)
                                    7536
 0000E6 58E0 77B0/0DEE       007E0  7537                       VCALL EXTCLOSE            All done
                                    7541                       ¿þþþþþþþþþþþþþþþþþþþþþþþþþþþÜ
                                    7542                       Ÿ  Now do post-processing.  Ÿ
                                    7543                       ¾þþþþþþþþþþþþþþþþþþþþþþþþþþþ»
 0000EC D603 6004 6004_00004 00004  7544                       IF    (SPRTQH,Z),BEGIN    Nothing there...
 0000F6 9108 C4C5/4710_004C5        7560  1                      IF    CVFINIT,EXIT
 0000FE D603 B05C B05C_0005C 0005C  7578  1                      TCCR
 00011E 4110 77B4/4100_      007E4  7640  1                      TSEG  'No printers defined.',,CR
 000130                             7658                       END
1RJE      (RJE4072) (12:53) (15MAR04) SET WPRINTERS Command                                                                 Page    7
0Current Usings:  (SPRTWA,R6) (*,R7) (SPRTWA-(4+36),R8) (CP,R11) (CV,R12)
0Loc    Object Code    Addr1 Addr2  Stmt Lv Lineno    Source Statement           (Hibal 5, Asmedit 3.3)  HLASM R4.0  2004/03/15 12.53
+___    ______ ____    _____ _____  ____ __ ______    ______ _________
0                                   7662                       ¿þþþþþþþþþþþþþþþþþþþþþþþþþþþþþþþþþþþþþþþþþþþþþþÜ
                                    7663                       Ÿ  Make new printer table the system default.  Ÿ
                                    7664                       ¾þþþþþþþþþþþþþþþþþþþþþþþþþþþþþþþþþþþþþþþþþþþþþþ»
 000130 5850 C288            00288  7665                       L     R5,CVPRTQH          Save old table ptr
 000134 D203 C288 6004 00288 00004  7666                       MVC   CVPRTQH,SPRTQH      Make new version available
                                    7667                       ¿þþþþþþþþþþþþþþþþþþþþþþþþþþþþþþÜ
                                    7668                       Ÿ  Release old printer table.  Ÿ
                                    7669                       ¾þþþþþþþþþþþþþþþþþþþþþþþþþþþþþþ»
 00013A 1255/4780 7134              7670                       WHILE (R5,NZ),BEGIN       Freemain each entry...
 USING  PRT,R5                      7686  1                      WITH  (PRT,R5)
 000140 5840 5000            00000  7699  1                      L     R4,PRTLINK
                                    7700  1
 000144 D789 5000 5000 00000 00000  7701  1                      CLEAR PRT                 (Neatness)
 00014A 0700/47F0 7124_             7708  1                      FREEMAIN R,A=(R5),LV=L'PRT  Release printer entry
                                    7716  1
 00015E 1854                        7717  1                      LR    R5,R4
 000160 47F0 710A            0013A  7718                       END
 DROP   PRT,R5
                                    7728
 000164 47F0 C7DE            007DE  7729                       B     CVNEXT
 000168 18D8/9808 D004_             7730                       PEND  ,
 DROP   SPRTWA-(4+36),R8
 DROP   *,R7
 DROP   SPRTWA,R6                   7755                       DROP  R6
1RJE      (RJE4072) (12:53) (15MAR04) SET WPRINTERS Command                                                                 Page    8
0Current Usings:  (CP,R11) (CV,R12)
0Loc    Object Code    Addr1 Addr2  Stmt Lv Lineno    Source Statement           (Hibal 5, Asmedit 3.3)  HLASM R4.0  2004/03/15 12.53
+___    ______ ____    _____ _____  ____ __ ______    ______ _________
0                                   7763              ¿þþþþþþþþþþþþþþþþþþþþþþþþþþþþþþþþþþþþþþþþþþþþþþþþþþþþþþþþþþþþþþþþþþþþþÜ
                                    7764              Ÿ                                                                     Ÿ
                                    7765              Ÿ  SPRTRTN -- Co-routine to process lines from the PRINTER file.      Ÿ
                                    7766              Ÿ                                                                     Ÿ
                                    7767              Ÿ    On entry:                                                        Ÿ
                                    7768              Ÿ      R1,R0 - line loc, len                                          Ÿ
                                    7769              Ÿ                                                                     Ÿ
                                                      ¾þþþþþþþþþþþþþþþþþþþþþþþþþþþþþþþþþþþþþþþþþþþþþþþþþþþþþþþþþþþþþþþþþþþþþ»
0000176 50E0 D000/9008_      00000  7770              SPRTRTN  PROC  ,
 USING  *,R7
 000190 5860 BCA4            00CA4  7809                       L     R6,CPCWA
 USING  SPRTWA,R6                   7810                       USING SPRTWA,R6
                                    7819
 000194 4150 600C            0000C  7820                       LA    R5,SPRT
 USING  PRT,R5                      7821                       USING PRT,R5
                                    7830
 000198 5900 7668/47D0_      007F8  7831                       CEIL  R0,L'SPRTLINE
 0001A4 18F0                        7850                       LR    R15,R0
 0001A6 06F0/12FF/4740_             7851                       MOVE  R15,SPRTLINE,@R1
 0001B2 4110 6096/58E0_      00096  7889                       SCINIT SPRTLINE,(R0)      Input line
                                    7912
 0001C4 5810 B08C/1B00_      0008C  7913                       SCAN SPRTPRT              Look for options
                                    7945                       COMMENT                   Ignore all errors
                                    7946
 000216 18D8/9808 D004_             7947                       PEND  ,
 DROP   *,R7
1RJE      (RJE4072) (12:53) (15MAR04) SET WPRINTERS Command                                                                 Page    9
0Current Usings:  (PRT,R5) (SPRTWA,R6) (CP,R11) (CV,R12)
0Loc    Object Code    Addr1 Addr2  Stmt Lv Lineno    Source Statement           (Hibal 5, Asmedit 3.3)  HLASM R4.0  2004/03/15 12.53
+___    ______ ____    _____ _____  ____ __ ______    ______ _________
0                                   7968              *
                                    7969              *  PRINTER DEFINITIONS SCAN ROUTINES
                                    7970              *
 000224 D7D9C9D5E3C5D940_           7971              SPRTPRT  SCKW  PRINTER,SPRTNAME,(A,P)
 00024C C1C3C3D6E4D5E340_           7986                       SCKW  ACCOUNT,SPRTACCT,(A,P)
 000274 C3D6D4D4C1D5C440_           8001                       SCKW  COMMAND,SPRTCMD,(A,P)
 00029C D2C5E8E6D6D9C440_           8016                       SCKW  KEYWORD,SPRTKEY,A
 0002C4 D7C1E2E2E6D6D9C4_           8031                       SCKW  PASSWORD,SPRTKEY,A
 0002EC D5D6D2C5E8E6D6D9_           8046                       SCKW  NOKEYWORD,SPRTNKEY,A
 000314 D5D6D7C1E2E2E6D6_           8061                       SCKW  NOPASSWORD,SPRTNKEY,A
 00033C C5D5C44040404040_           8076                       SCKW  END,SPRTEND
 000364 4040404040404040_           8091                       SCKW  ,V(SCNNOOP),
                                    8106              *
                                    8107              *
 00038C 50E0 D000/9008_      00000  8108              SPRTNAME PROC  ,
 USING  *,R7
 0003A6 D789 5000 5000 00000 00000  8147                       CLEAR PRT
 0003AC 58F0 B08C/4110_      0008C  8154                       SCUPCASE PRTNAME
                                    8175
 0003BE 4130 0001            00001  8176                       LA    R3,1
 0003C2 4140 500D            0000D  8177                       LA    R4,PRTNAME+L'PRTNAME
 0003C6 5810 B08C/1B00_      0008C  8178                       SCAN
 000414 12FF/4770 70F4_             8209                       WHILE ((R15,Z),AND,(R0,POS)),BEGIN
 000420 5810 B08C/4111_      0008C  8238  1                      SCUPTOK (R1)
 000428 D504 74C7 1000_0086D 00000  8242  1                      IF    (@R1,EQ,'BEGIN'),EXIT     End of printer list
 000432 5930 7462/47A0_      00808  8261  1                      IF    (R3,GE,PRTMAX#),EXIT      Too many names
 00043A D207 4000 1000 00000 00000  8281  1                      MVC   @R4(L'PRTNAME),@R1
 000440 4140 4008            00008  8282  1                      LA    R4,@R4+L'PRTNAME
 000444 4130 3001            00001  8283  1                      LA    R3,@R3+1
 000448 5810 B08C/1B00_      0008C  8284  1                      SCAN  ,
 000496 47F0 706E            00414  8315                       END
 00049A 1BFF                        8320                       CLEAR R15
 00049C 18D8/9808 D004_             8324                       PEND  ,
 DROP   *,R7
                                    8344              *
                                    8345              *
 0004AA 50E0 D000/9008_      00000  8346              SPRTACCT PROC  ,
 USING  *,R7
 0004C4 5900 7348/4770_      0080C  8385                       IF    ((R0,EQ,6),AND,(@R1+2,EQ,'.')),BEGIN  Valid acct...
 0004D4 5810 B08C/4111_      0008C  8417  1                      SCUPTOK (R1)
 0004DC D202 5035 1003 00035 00003  8421  1                      MVC   PRTACCT(3),@R1+3   UUU
 0004E2 D201 5038 1000 00038 00000  8422  1                      MVC   PRTACCT+3(2),@R1   GG
 0004E8                             8423                       END
 0004E8 18D8/9808 D004_             8427                       PEND
 DROP   *,R7
                                    8447
 0004F6 50E0 D000/9008_      00000  8448              SPRTCMD  PROC
 USING  *,R7
 000510 58F0 B08C/4110_      0008C  8487                       SCDQUOTE PRTCMD
 000522 1BFF                        8508                       CLEAR R15
 000524 18D8/9808 D004_             8512                       PEND
 DROP   *,R7
                                    8532
 000532 50E0 D000/9008_      00000  8533              SPRTKEY  PROC  ,
1RJE      (RJE4072) (12:53) (15MAR04) SET WPRINTERS Command                                                                 Page   10
0Current Usings:  (PRT,R5) (SPRTWA,R6) (*,R7) (CP,R11) (CV,R12)
0Loc    Object Code    Addr1 Addr2  Stmt Lv Lineno    Source Statement           (Hibal 5, Asmedit 3.3)  HLASM R4.0  2004/03/15 12.53
+___    ______ ____    _____ _____  ____ __ ______    ______ _________
0USING  *,R7
 00054C 947F 5004      00004        8572                       CLEAR PRTFNKEY
 000550 18D8/9808 D004_             8579                       PEND  ,
 DROP   *,R7
                                    8599
 00055E 50E0 D000/9008_      00000  8600              SPRTNKEY PROC  ,
 USING  *,R7
 000578 9680 5004      00004        8639                       SET   PRTFNKEY
 00057C 18D8/9808 D004_             8645                       PEND  ,
 DROP   *,R7
                                    8665
 00058A 50E0 D000/9008_      00000  8666              SPRTEND  PROC  ,
 USING  *,R7
 0005A4 4510 7008/0000_      005AC  8705                       GETMAIN R,LV=L'PRT
 0005B2 1821                        8712                       LR    R2,R1               Newly getmained PRT entry ptr
 0005B4 18E2/41F0 008A_             8713                       MOVEL @R2,SPRT,L'PRT      Save new PRT entry
 0005C2 D603 6004 6004_00004 00004  8737                       IF    (SPRTQH,Z),'ST R2,SPRTQH; ST R2,SPRTQT'  First
 0005D4 7034/47F0 7040 005D4 005CA  8760                       ELSE  BEGIN
 0005D8 58F0 6008            00008  8771  1                      L     R15,SPRTQT
 0005DC 5020 F000            00000  8772  1                      WITH  (PRT,R15),'ST R2,PRTLINK'  Link us to last entry
 USING  PRT,R15
 DROP   PRT,R15
 0005E0 5020 6008            00008  8796  1                      ST    R2,SPRTQT
 0005E4                             8797                       END
 0005E4 18D8/9808 D004_             8801                       PEND  ,
 DROP   *,R7
                                    8821
 DROP   SPRTWA,R6                   8822                       DROP  R6
 DROP   PRT,R5                      8829                       DROP  R5
1RJE      (RJE4072) (12:53) (15MAR04) SET WPRINTERS Command                                                                 Page   11
0Current Usings:  (CP,R11) (CV,R12)
0Loc    Object Code    Addr1 Addr2  Stmt Lv Lineno    Source Statement           (Hibal 5, Asmedit 3.3)  HLASM R4.0  2004/03/15 12.53
+___    ______ ____    _____ _____  ____ __ ______    ______ _________
0                                   8837              ¿þþþþþþþþþþþþþþþþþþþþþþþþþþþþþþþþþþþþþþþþþþþþþþþþþþþþþþþþþþþþþþþþþþþþþÜ
                                    8838              Ÿ                                                                     Ÿ
                                    8839              Ÿ  CHKPRT -- Routine to check the printer name to see if it's         Ÿ
                                    8840              Ÿ    one we know about.                                               Ÿ
                                    8841              Ÿ                                                                     Ÿ
                                    8842              Ÿ    On entry:                                                        Ÿ
                                    8843              Ÿ      R15 - printer name loc (8 chars)                               Ÿ
                                    8844              Ÿ                                                                     Ÿ
                                    8845              Ÿ    On exit, R15 (and cc):                                           Ÿ
                                    8846              Ÿ      0 - unknown printer name                                       Ÿ
                                    8847              Ÿ      nz- printer name is known (R15=PRT loc)                        Ÿ
                                    8848              Ÿ                                                                     Ÿ
                                                      ¾þþþþþþþþþþþþþþþþþþþþþþþþþþþþþþþþþþþþþþþþþþþþþþþþþþþþþþþþþþþþþþþþþþþþþ»
00005F2 50E0 D000/9008_      00000  8849              CHKPRT   XPROC
 USING  *,R7
 00060C 185F                        8889                       LR    R5,R15
 00060E 4160 C288            00288  8890                       LA    R6,CVPRTQH-(PRTLINK-PRT)
                                    8891
 000612 1BFF                        8892                       CLEAR R15
 000614                             8896                       LOOP  BEGIN
 USING  PRT,R6                      8902  1                      WITH  (PRT,R6)
 000614 5860 6000/1266_      00000  8915  1                      WHILE ('LT R6,PRTLINK',NZ)
 00061E 1B22                        8932  1                      CLEAR R2
 000620 4130 6005            00005  8936  1                      LA    R3,PRTNAME
 000624 5920 71FC/47B0_      00808  8937  1                      WHILE (R2,LT,PRTMAX#),BEGIN
 00062C D507 3000 5000_00000 00000  8956  2                        IF    ('CLC @R3(8),@R5',EQ),BEGIN  Matched...
 000636 18F6                        8969  3                          LR    R15,R6
 000638 47F0 7040            0064C  8970  3                          B     CHKPEXIT
 00063C                             8971  2                        END
                                    8975  2
 00063C 4130 3008            00008  8976  2                        LA    R3,@R3+L'PRTNAME
 000640 4120 2001            00001  8977  2                        LA    R2,@R2+1
 000644 47F0 7018            00624  8978  1                      END
 000648 47F0 7008            00614  8983                       END
 DROP   PRT,R6
                                    8993
 00064C 18D8/9808 D004_             8994              CHKPEXIT PEND
 DROP   *,R7
1RJE      (RJE4072) (12:53) (15MAR04) SET WPRINTERS Command                                                                 Page   12
0Current Usings:  (CP,R11) (CV,R12)
0Loc    Object Code    Addr1 Addr2  Stmt Lv Lineno    Source Statement           (Hibal 5, Asmedit 3.3)  HLASM R4.0  2004/03/15 12.53
+___    ______ ____    _____ _____  ____ __ ______    ______ _________
0                                   9016              ¿þþþþþþþþþþþþþþþþþþþþþþþþþþþþþþþþþþþþþþþþþþþþþþþþþþþþþþþþþþþþþþþþþþþþþÜ
                                    9017              Ÿ                                                                     Ÿ
                                    9018              Ÿ  SETPRT -- Routine to set logon information based on the printer    Ÿ
                                    9019              Ÿ    entry.                                                           Ÿ
                                    9020              Ÿ                                                                     Ÿ
                                    9021              Ÿ    On entry:                                                        Ÿ
                                    9022              Ÿ      R15 - PRT entry                                                Ÿ
                                    9023              Ÿ                                                                     Ÿ
                                                      ¾þþþþþþþþþþþþþþþþþþþþþþþþþþþþþþþþþþþþþþþþþþþþþþþþþþþþþþþþþþþþþþþþþþþþþ»
000065A 50E0 D000/9008_      00000  9024              SETPRT   XPROC
 USING  *,R7
 000674 186F                        9064                       LR    R6,R15
 USING  PRT,R6                      9065                       USING PRT,R6
                                    9074
 000676 D204 BC48 6035 00C48 00035  9075                       MVC   CPCACCT,PRTACCT     Set logon account
                                    9076
 00067C D201 B240 71B2 00240 00826  9077                       MVC   CPCMDLEN,=AL2(L'PRTCMD)
 000682 D2EA B242 C4D8 00242 004D8  9078                       MVC   CPCMD,CVBLANKS
 000688 D24F B242 603A 00242 0003A  9079                       MVC   CPCMD(L'PRTCMD),PRTCMD  Set first command
                                    9080
 00068E 18D8/9808 D004_             9081                       PEND
 DROP   *,R7
 DROP   PRT,R6                      9101                       DROP  R6
1RJE      (RJE4072) (12:53) (15MAR04) SET and SHOW LPRINTER commands                                                        Page   13
0Current Usings:  (CP,R11) (CV,R12)
0Loc    Object Code    Addr1 Addr2  Stmt Lv Lineno    Source Statement           (Hibal 5, Asmedit 3.3)  HLASM R4.0  2004/03/15 12.53
+___    ______ ____    _____ _____  ____ __ ______    ______ _________
0                                   9109              ¿þþþþþþþþþþþþþþþþþþþþþþþþþþþþþþþþþþþþþþþþþþþþþþþþþþþþþþþþþþþþþþþþþþþþþÜ
                                    9110              Ÿ                                                                     Ÿ
                                    9111              Ÿ  SETLPR -- SET LPRINTER Command.                                    Ÿ
                                    9112              Ÿ                                                                     Ÿ
                                                      ¾þþþþþþþþþþþþþþþþþþþþþþþþþþþþþþþþþþþþþþþþþþþþþþþþþþþþþþþþþþþþþþþþþþþþþ»
000069C 50E0 D000/9008_      00000  9113              SETLPR   XPROC
 USING  *,R7
 0006B6 58E0 B08C/581E_      0008C  9153                       SCINFO
 0006C4 58E0 715E/0DEE       00814  9162                       VCALL LRTRIM              Save rest of command line
 0006CA 1200/47B0 701C_             9166                       IF    (R0,NEG),'CLEAR R0'
 0006D2 4120 70EA            007A0  9189                       LA    R2,=CL16'SYS.LPRINTER'  Save under this name
 0006D6 58E0 7162/0DEE       00818  9190                       VCALL SAVEDATA            Save it
                                    9194
 0006DC 47F0 C7DE            007DE  9195                       B     CVNEXT
 0006E0 18D8/9808 D004_             9196                       PEND  ,
 DROP   *,R7
1RJE      (RJE4072) (12:53) (15MAR04) SET and SHOW LPRINTER commands                                                        Page   14
0Current Usings:  (CP,R11) (CV,R12)
0Loc    Object Code    Addr1 Addr2  Stmt Lv Lineno    Source Statement           (Hibal 5, Asmedit 3.3)  HLASM R4.0  2004/03/15 12.53
+___    ______ ____    _____ _____  ____ __ ______    ______ _________
0                                   9217              ¿þþþþþþþþþþþþþþþþþþþþþþþþþþþþþþþþþþþþþþþþþþþþþþþþþþþþþþþþþþþþþþþþþþþþþÜ
                                    9218              Ÿ                                                                     Ÿ
                                    9219              Ÿ  SHOWLPR -- SHOW LPRINTER command.                                  Ÿ
                                    9220              Ÿ                                                                     Ÿ
                                                      ¾þþþþþþþþþþþþþþþþþþþþþþþþþþþþþþþþþþþþþþþþþþþþþþþþþþþþþþþþþþþþþþþþþþþþþ»
00006EE 50E0 D000/9008_      00000  9221              SHOWLPR  XPROC
 USING  *,R7
 000708 58E0 7114/0DEE       0081C  9261                       VCALL COLLOPTS
                                    9265
 00070E 4DE0 701C            00724  9266                       LCALL LPRDISP
 000712 47F0 C7DE            007DE  9268                       B     CVNEXT
 000716 18D8/9808 D004_             9269                       PEND
 DROP   *,R7
                                    9289              ¿þþþþþþþþþþþþþþþþþþþþþþþþþþþþþþþþþþþþþþþþþþþþþþþþþþþþþþþþþþþþþþþþþþþþþÜ
                                    9290              Ÿ                                                                     Ÿ
                                    9291              Ÿ  LPRDISP -- SHOW LPRINTER subroutine (also called by SHOW           Ÿ
                                    9292              Ÿ     OPTIONS).                                                       Ÿ
                                    9293              Ÿ                                                                     Ÿ
                                                      ¾þþþþþþþþþþþþþþþþþþþþþþþþþþþþþþþþþþþþþþþþþþþþþþþþþþþþþþþþþþþþþþþþþþþþþ»
0000724 50E0 D000/9008_      00000  9294              LPRDISP  XPROC
 USING  *,R7
 00073E 181D/41D0 D0EC              9334                       XPUSH ,,&LINESZ,PTR=R1
 000744 4100 00EB            000EB  9337                       LA    R0,&LINESZ
 000748 4120 7062            007A0  9338                       LA    R2,=CL16'SYS.LPRINTER'
 00074C 58E0 70E2/0DEE       00820  9339                       VCALL GETDATA             Get lprinter info
 000752 4770 701E/1200_      0075C  9343                       IF    (NZ,OR,(R0,Z)),BEGIN
 00075C 4110 70EA/4100_      00828  9367  1                      TSEG  'No local printer type set.'
 00076E                             9385                       END
                                    9389
 00076E 7034/47F0 7050 0076E 0075A  9390                       ELSE  BEGIN
 000772 41F0 B050/58E0_      00050  9401  1                      TSEG  (R1),(R0)
 00077C 4110 7134/4100_      00872  9425  1                      TSEG  ' - local printer.'
 00078E                             9443                       END
 00078E 18D8/9808 D004_             9447                       PEND
 DROP   *,R7
                                    9467
                                    9468                       QLTORG
1RJE      (RJE4072) (12:53) (15MAR04) RJE Work Area                                                                         Page   15
0Current Usings:  (CP,R11) (CV,R12)
0Loc    Object Code    Addr1 Addr2  Stmt Lv Lineno    Source Statement           (Hibal 5, Asmedit 3.3)  HLASM R4.0  2004/03/15 12.53
+___    ______ ____    _____ _____  ____ __ ______    ______ _________
0                                   9513              *
 000000                00000 00642  9514              RJEWA    RECORD BEGIN
 000000 00                          9522  1           RJECMD     FLAG
 RJECMD.RJECFPRI   01 EQ            9526  1                      FLAG  (RJECFPRI,1,EQ)     - Print command
 RJECMD.RJECFPUN   02 EQ            9536  1                      FLAG  (RJECFPUN,2,EQ)     - Punch command
 RJECMD.RJECFMAI   03 EQ            9546  1                      FLAG  (RJECFMAI,3,EQ)     - Print mail
 RJECMD.RJECFRUN   04 EQ            9556  1                      FLAG  (RJECFRUN,4,EQ)     - Run
 RJECMD.RJECFCOND  05 EQ            9566  1                      FLAG  (RJECFCOND,5,EQ)    - Condense
                                    9576  1
 000001 00                          9577  1           RJEFLAG    FLAG
 RJEFLAG.RJEFHOLD  80 ONES          9581  1                      FLAG  RJEFHOLD            - Hold output
 RJEFLAG.RJEFXHLD  40 ONES          9586  1                      FLAG  RJEFXHLD            - Hold execution
 RJEFLAG.RJEFNTFY  20 ONES          9591  1                      FLAG  RJEFNTFY            - Notify
 RJEFLAG.RJEFDUP   10 ONES          9596  1                      FLAG  RJEFDUP             - Duplex
 RJEFLAG.RJEFNDUP  08 ONES          9601  1                      FLAG  RJEFNDUP            - NoDuplex
 RJEFLAG.RJEFDUMB  04 ONES          9606  1                      FLAG  RJEFDUMB            - DUMB option (Sys priv'd)
 RJEFLAG.RJEFSPEC  02 ONES          9611  1                      FLAG  RJEFSPEC            - Special option (submit priv'd)
                                    9616  1
 000002 00                          9617  1           RJEFLAG2   FLAG
 RJEFLAG2.RJEFNTFX 80 ONES          9621  1                      FLAG  RJEFNTFX            - Notify option explicit
 RJEFLAG2.RJEFHOLX 40 ONES          9626  1                      FLAG  RJEFHOLX            - Print hold option explicit
 RJEFLAG2.RJEFXHOX 20 ONES          9631  1                      FLAG  RJEFXHOX            - Execution hold option explicit
 RJEFLAG2.RJEFTRC  10 ONES          9636  1                      FLAG  RJEFTRC             - TRC (char select) chars present
 RJEFLAG2.RJEFPMAI 08 ONES          9641  1                      FLAG  RJEFPMAI            - PUNCH mail (gateway processing)
 RJEFLAG2.RJEFPBSM 04 ONES          9646  1                      FLAG  RJEFPBSMTP          - BSMTP format
 RJEFLAG2.RJEFPSUN 02 ONES          9651  1                      FLAG  RJEFPSUNMAIL        - SUNMAIL format
                                    9656  1
 000003 00                          9657  1           RJEFLGP    FLAG
 RJEFLGP.RJEFCCS   80 ONES          9661  1                      FLAG  RJEFCCS             - CC option explicit
 RJEFLGP.RJEFCC    40 ONES          9666  1                      FLAG  RJEFCC              - CC
 RJEFLGP.RJEFMC    20 ONES          9671  1                      FLAG  RJEFMC              - MC
 RJEFLGP.RJEFBACK  10 ONES          9676  1                      FLAG  RJEFBACK            - Back
 RJEFLGP.RJEFFMT   08 ONES          9681  1                      FLAG  RJEFFMT             - Formatted
 RJEFLGP.RJEFDOUB  04 ONES          9686  1                      FLAG  RJEFDOUB            - Double
 RJEFLGP.RJEFTRIP  02 ONES          9691  1                      FLAG  RJEFTRIP            - Triple
                                    9696  1
 000004 00                          9697  1           RJEFLGP2   FLAG
 RJEFLGP2.RJEFDOC  80 ONES          9701  1                      FLAG  RJEFDOC             - Document
 RJEFLGP2.RJEFMEMO 40 ONES          9706  1                      FLAG  RJEFMEMO            - Memo
 RJEFLGP2.RJEFHEX  20 ONES          9711  1                      FLAG  RJEFHEX             - Hex
 RJEFLGP2.RJEFMIX  10 ONES          9716  1                      FLAG  RJEFMIX             - Mixed
 RJEFLGP2.RJEFNSEP 08 ONES          9721  1                      FLAG  RJEFNSEP            - NoSep
 RJEFLGP2.RJEFMAN  04 ONES          9726  1                      FLAG  RJEFMAN             - Manual
 RJEFLGP2.RJEFFMAN 02 ONES          9731  1                      FLAG  RJEFFMAN            - FManual
                                    9736  1
 000005 00                          9737  1           RJEFLGP3   FLAG
 RJEFLGP3.RJEFLPR  80 ONES          9741  1                      FLAG  RJEFLPR             - LPRINT
 RJEFLGP3.RJEFEXT  40 ONES          9746  1                      FLAG  RJEFEXT             - PRINT TO user@dest
 RJEFLGP3.RJEFBRST 20 ONES          9751  1                      FLAG  RJEFBRST            - Burst
 RJEFLGP3.RJEFKEEP 10 ONES          9756  1                      FLAG  RJEFKEEP            - Keep
 RJEFLGP3.RJEFFAX  08 ONES          9761  1                      FLAG  RJEFFAX             - Fax command
                                    9766  1
 000006 00                          9767  1           RJEFLGP4   FLAG
 RJEFLGP4.RJENOLOG 80 ONES          9771  1                      FLAG  RJENOLOG            - NOLOG
1RJE      (RJE4072) (12:53) (15MAR04) RJE Work Area                                                                         Page   16
0Current Usings:  (CP,R11) (CV,R12)
0Loc    Object Code    Addr1 Addr2  Stmt Lv Lineno    Source Statement           (Hibal 5, Asmedit 3.3)  HLASM R4.0  2004/03/15 12.53
+___    ______ ____    _____ _____  ____ __ ______    ______ _________
0RJEFLGP4.RJENOJCL 40 ONES          9776  1                      FLAG  RJENOJCL            - NOJCL
                                    9781  1
 000007 00                          9782  1           RJEFLAGX   FLAG
 RJEFLAGX.RJEFOPEN 80 ONES          9786  1                      FLAG  RJEFOPEN            - Submit path is open
 RJEFLAGX.RJEFOSCN 40 ONES          9791  1                      FLAG  RJEFOSCN            - Option line scan
 RJEFLAGX.RJEFSOME 20 ONES          9796  1                      FLAG  RJEFSOME            - First line has been sent
                                    9801  1
 000008 00                          9802  1           RJEXFL     FLAG  ,                   Print formatting options:
 RJEXFL.RJEXFUND   80 ONES          9806  1                      FLAG  RJEXFUND            - Underlining
 RJEXFL.RJEXFBLD   40 ONES          9811  1                      FLAG  RJEXFBLD            - Bold
 RJEXFL.RJEXFITL   20 ONES          9816  1                      FLAG  RJEXFITL            - Italics
                                    9821  1
 000009                             9822  1           RJENACCT   DS    CL5                 Notify account
                                    9823  1
 00000E                             9824  1           RJEJCLS    DS    C                   Job class
 00000F                             9825  1           RJEBLOCK   DS    C                   Time block
 000010                             9826  1           RJEOBLCK   DS    C                   Output time block
 000011                             9827  1           RJEPRIO    DS    C                   Priority
 000012                             9828  1           RJEOPRIO   DS    C                   Output priority
 000013                             9829  1           RJESYSCL   DS    C                   Sysout class
 000014                             9830  1           RJESYSAF   DS    CL4                 Sysaff name
 000018                             9831  1           RJEPFORM   DS    CL6                 Format
 00001E                             9832  1           RJEMARK    DS    C                   Marker char
 00001F                             9833  1           RJENAME    DS    CL8                 Job name
 000027                             9834  1           RJEPFX     DS    CL8                 Prefix
 00002F                             9835  1           RJEID      DS    CL8                 Id
 000037                             9836  1           RJEDEST    DS    CL8                 Destination
 00003F                             9837  1           RJEBIN     DS    CL3                 Bin
 000042                             9838  1           RJEFORMS   DS    CL8                 Forms
 00004A                             9839  1           RJEFLASH   DS    CL4                 Flash
 00004E                             9840  1           RJEFCB     DS    CL4                 Fcb (carriage)
 000052                             9841  1           RJEPRINT   DS    CL8                 Printer
 00005A                             9842  1           RJECHARS   DS    CL(4*4)             Character sets
                                    9843  1           RJECHAR0   EQU   RJECHARS,4,C'C'
                                    9844  1           RJECHAR1   EQU   RJECHARS+4,4,C'C'
                                    9845  1           RJECHAR2   EQU   RJECHARS+8,4,C'C'
                                    9846  1           RJECHAR3   EQU   RJECHARS+12,4,C'C'
                                    9847  1           RJECHARM   EQU   RJECHARS+4,3*4,C'C'
 00006A                             9848  1           RJETITLE   DS    CL128               Title
 0000EA                             9849  1           RJEHEAD    DS    0CL20               Header text (for JOB card)
 0000EA                             9850  1           RJEHEADL   DS    CL128               Long header text (for FAX cmd)
 00016A                             9851  1           RJEMAIL    DS    CL128               Id mail text
 0001EA                             9852  1           RJESEND    DS    CL180               Bitnet/fax sender id
 00029E                             9853  1           RJEFXRCP   DS    CL128               Fax recipient text
 00031E                             9854  1           RJEFXNOT   DS    CL64                Fax email notify address
 00035E                             9855  1           RJEFXAUT   DS    CL7                 Fax phone auth code
 000366                             9856  1           RJECOPY    DS    H                   Copies
 000368                             9857  1           RJEIND     DS    H                   Indent (-1 = indent=0)
 00036A                             9858  1           RJEWRAP    DS    H                   Wrap count (-1 = wrap=0)
 00036C                             9859  1           RJEDARK    DS    H                   Dark count
 00036E                             9860  1           RJEEJECT   DS    H                   Eject count (-1 = noeject)
                                    9861  1
 000370                             9862  1           RJETOACC   DS    CL5                 uuugg (for directed print)
 000375                             9863  1           RJETO      DS    CL128               User name (for PRINT TO)
1RJE      (RJE4072) (12:53) (15MAR04) RJE Work Area                                                                         Page   17
0Current Usings:  (CP,R11) (CV,R12)
0Loc    Object Code    Addr1 Addr2  Stmt Lv Lineno    Source Statement           (Hibal 5, Asmedit 3.3)  HLASM R4.0  2004/03/15 12.53
+___    ______ ____    _____ _____  ____ __ ______    ______ _________
0                                   9864  1
 0003F5 00                          9865  1           RJEFLAGS   FLAG
 RJEFLAGS.RJEFSNT  80 ONES          9869  1                      FLAG  RJEFSNT             - Control cards sent      (RUN)
 RJEFLAGS.RJEFDDS  40 ONES          9874  1                      FLAG  RJEFDDS             - Processing dd *         (RUN)
 RJEFLAGS.RJEFCTRL 20 ONES          9879  1                      FLAG  RJEFCTRL            - Sending control lines   (PRINT)
                                    9884  1
 0003F6                             9885  1           RJEJOBNM   DS    CL8                 Jobname
 0003FE                             9886  1           RJEACCT    DS    CL7                 Submission account (uuuggss)
                                    9887  1           RJEAUSR    EQU   RJEACCT,3,C'C'      .uuu
                                    9888  1           RJEAGRP    EQU   RJEACCT+3,4,C'C'    .ggss
                                    9889  1
 000405                             9890  1           RJEKJFL    DS    X                   KWRJFL              (from KWR)
 000406                             9891  1           RJEKPFX    DS    CL8                 Job prefix          (from KWR)
 00040E                             9892  1           RJEKJNO    DS    H                   Job count           (from KWR)
 000410                             9893  1           RJEKDEST   DS    CL8                 Our destination     (from KWR)
 000418                             9894  1           RJEKBIN    DS    CL3                 Our bin             (from KWR)
 00041C                             9895  1           RJEKLLIM   DS    F                   Printed line limit  (from KWR)
 000420                             9896  1           RJEKPLIM   DS    F                   Punched line limit  (from KWR)
                                    9897  1
 000424                             9898  1           RJELCNT    DS    F                   Current line count
 000428                             9899  1           RJEPCNT    DS    F                   Current punch count
                                    9900  1
 00042C                             9901  1           RJEDELIM   DS    CL2                 DD data delimiter
 00042E                             9902  1           RJENEWCC   DS    C                   New CC/MC char to use
                                    9903  1           RJESWA     EQU   RJEFLAGS,*-RJEFLAGS,C'X'  Area cleared after each job
                                    9904  1
                                    9905  1           RJESG      SEGCB
 000430 00                          9906  1 01-SEGCB +$$$SEGCB144   DS 0F
 RJESGCOD.RJESGSEG 01 EQ
 RJESGCOD.RJESGWR  02 EQ
 RJESGCOD.RJESGCLR 03 EQ
 RJESGCOD.RJESGSPP 04 EQ
 RJESGCOD.RJESGOVF 05 EQ
 RJESGCOD.RJESGCR  06 EQ
 RJESGCOD.RJESGMAR 07 EQ
 000431 00                          9981  1 01-SEGCB +           DC    X'00'               Reserved
 000432 0000                              1          +
 000434 00000000                    9982  1 01-SEGCB +RJESGMAXF   DC   A(0)                Maximum buffer length
 000438 00000000                    9983  1 01-SEGCB +RJESGMRKF   DC   A(0)                Length at last mark
 00043C 00000000                    9984  1 01-SEGCB +RJESGLENF   DC   A(0)                Current length
 000440 00000000                    9985  1 01-SEGCB +RJESGINDF   DC   A(0)                Overflow/indent count
 000444 00000000                    9986  1 01-SEGCB +RJESGERR   DC    A(0)                Address of error recovery routine
 000448 0000000000000000            9987  1 01-SEGCB +           DC    2F'0'               Reserved
 000450 00000000                    9988  1 01-SEGCB +RJESGLOC   DC    A(0)                Location of buffer
 000454 00000000                    9989  1 01-SEGCB +RJESGRTN   DC    A(0)                Processing routine
 000458 0000000000000000            9990  1 01-SEGCB +           DC    4F'0'               Reserved
 000468 00000000                    9991  1 01-SEGCB +RJESGUSR   DC    A(0)                USER field
                                    9992  1 01-SEGCB +RJESG      EQU   $$$SEGCB144,*-$$$SEGCB144,C'X'
                                    9993  1
                                    9994  1           RJESGBUF   DS    CL(&LINESZ)
 00046C                                   1          +RJESGBUF   DS    CL(235)
                                    9995  1           RJELINE    DS    CL(&LINESZ)         READ RANGE INPUT BUFFER
 000557                                   1          +RJELINE    DS    CL(235)             READ RANGE INPUT BUFFER
 000642                00642 00642  9996                       END
1RJE      (RJE4072) (12:53) (15MAR04) CONDENSE Command                                                                      Page   18
0Current Usings:  (CP,R11) (CV,R12)
0Loc    Object Code    Addr1 Addr2  Stmt Lv Lineno    Source Statement           (Hibal 5, Asmedit 3.3)  HLASM R4.0  2004/03/15 12.53
+___    ______ ____    _____ _____  ____ __ ______    ______ _________
0                                  10006              ¿þþþþþþþþþþþþþþþþþþþþþþþþþþþþþþþþþþþþþþþþþþþþþþþþþþþþþþþþþþþþþþþþþþþþþÜ
                                   10007              Ÿ                                                                     Ÿ
                                   10008              Ÿ  CONDENSE -- CONDENSE command.  (Note that CPCMNM is set            Ÿ
                                   10009              Ÿ    to "C*" if entered because pds is full.)                         Ÿ
                                   10010              Ÿ                                                                     Ÿ
                                   10011              Ÿ  If wings found pds full, we will get a 'savefailed' option         Ÿ
                                   10012              Ÿ  on the condense command.                                           Ÿ
                                   10013              Ÿ                                                                     Ÿ
                                   10014              Ÿ  NOTE:                                                              Ÿ
                                   10015              Ÿ  CONDENSE IS FORCED TO OLDIBM.                                      Ÿ
                                   10016              Ÿ  WINGS WILL/MUST USE OTHER CODE/METHOD FOR CONDENSE.                Ÿ
                                   10017              Ÿ                                                                     Ÿ
                                                      ¾þþþþþþþþþþþþþþþþþþþþþþþþþþþþþþþþþþþþþþþþþþþþþþþþþþþþþþþþþþþþþþþþþþþþþ»
0000000                00000 00643 10018              CDWA     RECORD BEGIN
 000000                            10026  1           CDRJEWA    DS    XL(L'RJEWA)
 000642 00                         10027  1           CDFLAGS    FLAG
 CDFLAGS.CDFSFAIL  80 ONES         10031  1                      FLAG  CDFSFAIL            PDS FULL, SAVE FAILED
 000643                00643 00643 10036                       END
                                   10045              *
                                   10046              *
 00088A 50E0 D000/9008_      00000 10047              CONDENSE XPROC CDWA
 USING  *,R7
 USING  CDWA-(4+36),R8
 0008A4 4160 8028            00000 10098                       LA    R6,CDRJEWA
 USING  RJEWA,R6                   10099                       USING RJEWA,R6
 0008A8 D7FF 6000 6000_00000 00000 10108                       CLEAR RJEWA
 0008D2 5060 BD70            00D70 10121                       ST    R6,CPWK5
 0008D6 4140 8028            00000 10122                       LA    R4,CDWA
 USING  CDWA,R4                    10123                       USING CDWA,R4
 0008DA 9200 4642      00642       10132                       CLEAR CDFLAGS
                                   10139
 0008DE 9205 6000      00000       10140                       SET   RJECFCOND           Condense command
 0008E2 9680 6001/9640_00001       10146                       SET   RJEFHOLD,RJEFHOLX   Assume print hold
 0008EA 9620 6001/9680_00001       10156                       SET   RJEFNTFY,RJEFNTFX   Assume notify
 0008F2 D204 6009 BA0C 00009 00A0C 10166                       MVC   RJENACCT,CPJNACCT   Notification account
 0008F8 9620 BD54      00D54       10167                       SET   CPLFLG5.CPFNLST     Assume nolist
 0008FC D202 601F B3B4 0001F 003B4 10174                       MVC   RJENAME(3),CPSUSER
 000902 D204 6022 74BE 00022 00D62 10175                       MVC   RJENAME+3(5),=C'COND '  Set jobname
 000908 D213 60EA 741C 000EA 00CC0 10176                       MVC   RJEHEAD(20),=CL20'CONDENSE'  Header
 00090E 92C6 600E      0000E       10177                       MVI   RJEJCLS,C'F'        Assume CLASS=F
                                   10178
 000912 4110 646C/4100_      0046C 10179                       SEGINIT RJESGBUF,71,RJESG,RTN=RSEG
                                   10223
 000932 D501 7484 BD24_00D28 00D24 10224                       IF    (CPCMNM,NE,'C*'),BEGIN  Command...
 00093C 58E0 743C/0DEE       00CE0 10241  1                      VCALL MKFFINFO
 000942 58E0 7440/0DEE       00CE4 10245  1                      VCALL DOFNAME             Get dsname
 000948 5810 B08C/1B00_      0008C 10249  1                      SCAN  CONDPRT
 00099A 58E0 744C/0DEE       00CF0 10281  1                      SCANCHK
                                   10286  1                      COMMENT                   FORCE TO OLDIBM FOR CONDENSE
 0009A0 5830 BE54            00E54 10287  1                      L     R3,CPFINFOP
 0009A4 9205 3000      00000       10288  1                      WITH  (FFINFO,R3),' SET FFFOLD '
 USING  FFINFO,R3
 DROP   FFINFO,R3
1RJE      (RJE4072) (12:53) (15MAR04) CONDENSE Command                                                                      Page   19
0Current Usings:  (CDWA,R4) (RJEWA,R6) (*,R7) (CDWA-(4+36),R8) (CP,R11) (CV,R12)
0Loc    Object Code    Addr1 Addr2  Stmt Lv Lineno    Source Statement           (Hibal 5, Asmedit 3.3)  HLASM R4.0  2004/03/15 12.53
+___    ______ ____    _____ _____  ____ __ ______    ______ _________
00009A8 58E0 7450/0DEE       00CF4 10317  1                      VCALL FNAMEFIN            Finish up dsname processing
 0009AE 9180 BD52/47E0_00D52       10321  1                      IF    CPLFLG3.CPFSET,'VCALL SETPFXNS'
 0009BC 9180 4642/4710_00642       10346  1                      IF    ~CDFSFAIL,BEGIN     Failed sav #xxx already asked
 0009C4 9140 BF34/4710_00F34       10361  2                        IF    ~DSNWAF1.DSNFMYDS,BEGIN  Not yours...
 0009CC 9620 BD55      00D55       10377  3                          SET   CPFKOK
 0009D0 58E0 7458/0DEE       00CFC 10383  3                          VCALL DSNAUTH             Just ask if "OK?"
 0009D6                            10387  2                        END
 0009D6                            10391  1                      END
 0009D6                            10395                       END
 0009D6 7136/47F0 718E 009D6 0093A 10399                       ELSE  BEGIN               Entered because pds full...
 0009DA 5810 B08C/1B00_      0008C 10410  1                      SCAN  CONDPRT1            Allow rje options
 000A2C 58E0 744C/0DEE       00CF0 10442  1                      SCANCHK
 000A32                            10447                       END
                                   10451                       ¿þþþþþþþþþþþþþþþþþþþþþþþþþþþþþþþþþþþþþþþþþþþþþþþþþþþþþþþþþþþþþÜ
                                   10452                       Ÿ  If we are condensing someone else's library then we need   Ÿ
                                   10453                       Ÿ    to run the job under the other person's account so that  Ÿ
                                   10454                       Ÿ    the security system will allow the file access.          Ÿ
                                   10455                       ¾þþþþþþþþþþþþþþþþþþþþþþþþþþþþþþþþþþþþþþþþþþþþþþþþþþþþþþþþþþþþþ»
 000A32 9180 BF34/47E0_00F34       10456                       IF    DSNWAF1.DSNFSTD,BEGIN  Wylbur data set...
 000A3A D501 B3B7 BE60_003B7 00E60 10472  1                      IF    ((CPSGRP,EQ,DSNWAGRP),AND,(CPSUSER,EQ,DSNWAUSR)),EXIT
 000A4E D206 63FE C4D8 003FE 004D8 10510  1                      MVC   RJEACCT,CVBLANKS    Pre-blank
 000A54 D202 63FE BE63 003FE 00E63 10511  1                      MVC   RJEACCT(3),DSNWAUSR    "uuu"
 000A5A D201 6401 BE60 00401 00E60 10512  1                      MVC   RJEACCT+3(2),DSNWAGRP  "gg"
 000A60                            10513                       END
                                   10517
 000A60 185D/41D0 D02C             10518                       XPUSH ,,44,PTR=R5
 000A66 D22B 5000 C4D8 00000 004D8 10521                       MVC   @R5(44),CVBLANKS    Blank a dsn area
 000A6C 4810 BF06            00F06 10522                       LH    R1,DSNWANL          Load dsn length
 000A70 0610/4410 74E4_            10523                       DEX   R1,'MVC @R5(0),DSNWADSN' Move in dsn
 000A76 4110 74C3/4100_      00D67 10542                       SETMSG '.'                 Point to a low member name
 000A7E 18F5                       10546                       LR    R15,R5              Point to dsn
 000A80 4BD0 7488            00D2C 10547                       XPOP  ,,44
 000A84 58E0 7460/0DEE       00D04 10549                       ACALL JOBOPEN             Get submit path
 000A8A 1B11                       10553                       CLEAR R1                  Build job card
 000A8C 58E0 7464/0DEE       00D08 10557                       ACALL JOBCARD
 000A92 58E0 7468/0DEE       00D0C 10561                       ACALL JOBCNTL
                                   10565              *        SEGWR '// EXEC CONDENSE'
                                   10566              *        SEG   '//SYSUT1 DD DSN='''
 000A98 4110 748A/4100_      00D2E 10567                       SEG   '// EXEC CONDENSE,DSN='''
 000AAA 4110 BE5C/4800_      00E5C 10584                       SEGT  DSNWADSN,LH:DSNWANL
 000ABC 4110 74C4/4100_      00D68 10611                       SEG   ''''
 000ACE D627 BE90 BE90_00E90 00E90 10628                       IF    (DSNON,NZ),BEGIN    Give volser also...
                                   10644  1           *        SEGWR ','
                                   10645  1           *        SEG   '// VOL=SER='
 000AD8 4110 74C5/4100_      00D69 10646  1                      SEG   ',VOL='
 000AEA 4110 BE90/4100_      00E90 10663  1                      SEGT  DSNON
 000AFC                            10691                       END
 000AFC 1B00/41F0 6430_            10695                       SEGWR
 000B08 9120 BD54/47E0_00D54       10719                       IF    CPLFLG5.CPFNLST,'SEGWR "// EXEC NOLIST"'
 000B22 58E0 7478/0DEE       00D1C 10758                       ACALL JOBCLOSE            Close path & locate job
                                   10762
 000B28 9180 4642/47E0_00642       10763                       IF    CDFSFAIL,BEGIN      Wings save #xxx failed, pds full
 000B30 4110 74CA/4100_      00D6E 10778  1                      ERROR 'Library member not saved.'
 000B3C                            10785                       END
1RJE      (RJE4072) (12:53) (15MAR04) CONDENSE Command                                                                      Page   20
0Current Usings:  (CDWA,R4) (RJEWA,R6) (*,R7) (CDWA-(4+36),R8) (CP,R11) (CV,R12)
0Loc    Object Code    Addr1 Addr2  Stmt Lv Lineno    Source Statement           (Hibal 5, Asmedit 3.3)  HLASM R4.0  2004/03/15 12.53
+___    ______ ____    _____ _____  ____ __ ______    ______ _________
0000B3C D501 7484 BD24_00D28 00D24 10789                       IF    (CPCMNM,NE,'C*'),CVNEXT  Scram, if condense command
 000B46 4110 74AE/4100_      00D52 10809                       TSEG  'Member',,B
 000B58 58E0 7480/0DEE       00D24 10827                       VCALL MEMBERED
 000B5E 4110 74B4/4100_      00D58 10831                       ERROR 'not saved.'
 000B6A 18D8/9808 D004_            10838                       PEND  ,
 DROP   CDWA-(4+36),R8
 DROP   *,R7
 DROP   RJEWA,R6                   10863                       DROP  R6
                                   10870
 000B78 4040404040404040_          10871              CONDPRT  SCKW  ,V(FNAMPSH),PUSH
 000BA0 E2C1E5C5C6C1C9D3_          10886                       SCKW  SAVEFAILED,CONDNSAV
 000BC8 4040404040404040_          10901              CONDPRT1 SCKW  ,RJEPSH,PUSH
 000BF0 4040404040404040_          10916                       SCKW  ,V(LISTPSH),PUSH
 000C18 4040404040404040_          10931                       SCKW  ,V(COLLPSH),PUSH
 000C40 4040404040404040_          10946                       SCKW  ,V(QUIETPSH),PUSH
 000C68 4040404040404040_          10961                       SCKW  ,V(NOTVALID)
                                   10976
 000C90 50E0 D000/9008_      00000 10977              CONDNSAV PROC  ,
 USING  *,R7
 000CAA 9680 4642      00642       11016                       SET   CDFSFAIL
 000CAE 18D8/9808 D004_            11022                       PEND
 DROP   *,R7
 DROP   CDWA,R4                    11042                       DROP  R4
                                   11049                       QLTORG
1RJE      (RJE4072) (12:53) (15MAR04) RUN Command                                                                           Page   21
0Current Usings:  (CP,R11) (CV,R12)
0Loc    Object Code    Addr1 Addr2  Stmt Lv Lineno    Source Statement           (Hibal 5, Asmedit 3.3)  HLASM R4.0  2004/03/15 12.53
+___    ______ ____    _____ _____  ____ __ ______    ______ _________
0                                  11096              ¿þþþþþþþþþþþþþþþþþþþþþþþþþþþþþþþþþþþþþþþþþþþþþþþþþþþþþþþþþþþþþþþþþþþþþÜ
                                   11097              Ÿ                                                                     Ÿ
                                   11098              Ÿ  RUN -- RUN command.                                                Ÿ
                                   11099              Ÿ                                                                     Ÿ
                                                      ¾þþþþþþþþþþþþþþþþþþþþþþþþþþþþþþþþþþþþþþþþþþþþþþþþþþþþþþþþþþþþþþþþþþþþþ»
0000D8E 50E0 D000/9008_      00000 11100              RUN      XPROC RJEWA
 USING  *,R7
 USING  RJEWA-(4+36),R8
 000DA8 4160 8028            00000 11151                       LA    R6,RJEWA
 USING  RJEWA,R6                   11152                       USING RJEWA,R6
 000DAC D7FF 6000 6000_00000 00000 11161                       CLEAR RJEWA
 000DD6 5060 BD70            00D70 11174                       ST    R6,CPWK5
 000DDA 9204 6000      00000       11175                       SET   RJECFRUN
 000DDE 4110 646C/4100_      0046C 11181                       SEGINIT RJESGBUF,,RJESG,RTN=RSEG
 000DFE 92FF 642C      0042C       11223                       MVI   RJEDELIM,X'FF'      First line must be a job card
                                   11224              ******** IF    CPJFHOLD,'SET RJEFHOLD'
                                   11225              ******** IF    CPJFXHLD,'SET RJEFXHLD'
                                   11226              ******** IF    CPJFNTFY,'SET RJEFNTFY'
 000E02 D204 6009 BA0C 00009 00A0C 11227                       MVC   RJENACCT,CPJNACCT   Defalut notification account
 000E08 58E0 7964/0DEE       0170C 11228                       VCALL SCNEXFR             Allow active, exec, or external
 000E0E 9610 BD50      00D50       11232                       SET   CPLFLG1.CPFALL      Allow default of ALL
 000E12 9640 BD57      00D57       11239                       SET   CPFNCUR             Don't update current line ptr
 000E16 58E0 7968/0DEE       01710 11245                       VCALL NDETRNG
 000E1C 9503 BD89/4770_00D89       11249                       IF    CPFRDEXT,BEGIN
 000E24 58E0 796C/0DEE       01714 11264  1                      VCALL MKFFINFO
 000E2A 5810 B08C/1B00_      0008C 11268  1                      SCAN  RUNPRTF
 000E7C 58E0 7978/0DEE       01720 11300  1                      SCANCHK
 000E82                            11305                       END
 000E82 70DE/47F0 7136 00E82 00E22 11309                       ELSE  BEGIN
 000E86 5810 B08C/1B00_      0008C 11320  1                      SCAN  RUNPRT
 000ED8 58E0 7978/0DEE       01720 11352  1                      SCANCHK
 000EDE                            11357                       END
                                   11361
 000EDE 58E0 7980/0DEE       01728 11362                       ACALL RUNOPT              Do final option checking
                                   11366
 000EE4 9503 BD89/4770_00D89       11367                       IF    CPFRDEXT,BEGIN
 000EEC 58E0 7984/0DEE       0172C 11382  1                      VCALL FNAMEFIN
 000EF2 5830 BE54            00E54 11386  1                      L     R3,CPFINFOP
 USING  FFINFO,R3                  11387  1                      USING FFINFO,R3
 000EF6 9503 3000/4770_00000       11396  1                      IF    (FFFSAM),BEGIN
 000EFE 4110 7A62/4100_      0180A 11411  2                        ERROR 'RUN FROM <samson file> not allowed.'
 000F0A                            11418  1                      END
 DROP   FFINFO,R3                  11422  1                      DROP  R3
 000F0A 58E0 7988/0DEE       01730 11429  1                      VCALL EXTOPEN
 000F10 12FF/4770 C7DE             11433  1                      IF    (R15,NZ),CVNEXT
 000F16 5800 798C/5810_      01734 11450  1                      RDRNG RUNRTN,(DESRTRN+LXCATRTN+UNPRST)
 000F24 58E0 7998/0DEE       01740 11457  1                      VCALL EXTCLOSE
 000F2A                            11461                       END
 000F2A 7186/47F0 719C_00F2A 00EEA 11465                       ELSEIF CPFRDEXE,BEGIN
 000F36 5800 799C/5810_      01744 11489  1                      RDRNG RUNRTN,(DESRTRN+LEXATRTN+UNPRST)
 000F44                            11496                       END
 000F44 71A0/47F0 71AE 00F44 00F34 11500                       ELSE  BEGIN
 000F48 5800 79A0/5810_      01748 11511  1                      RDRNG RUNRTN,(DESRTRN+LOCATRTN+UNPRST)
1RJE      (RJE4072) (12:53) (15MAR04) RUN Command                                                                           Page   22
0Current Usings:  (RJEWA,R6) (*,R7) (RJEWA-(4+36),R8) (CP,R11) (CV,R12)
0Loc    Object Code    Addr1 Addr2  Stmt Lv Lineno    Source Statement           (Hibal 5, Asmedit 3.3)  HLASM R4.0  2004/03/15 12.53
+___    ______ ____    _____ _____  ____ __ ______    ______ _________
0000F56                            11518                       END
 000F56 58E0 79A4/0DEE       0174C 11522                       ACALL JOBCLOSE            Close path & locate job
 000F5C 47F0 C7DE            007DE 11526                       B     CVNEXT
 000F60 18D8/9808 D004_            11527                       PEND
 DROP   RJEWA-(4+36),R8
 DROP   *,R7
 DROP   RJEWA,R6                   11552                       DROP  R6
1RJE      (RJE4072) (12:53) (15MAR04) RUN Command                                                                           Page   23
0Current Usings:  (CP,R11) (CV,R12)
0Loc    Object Code    Addr1 Addr2  Stmt Lv Lineno    Source Statement           (Hibal 5, Asmedit 3.3)  HLASM R4.0  2004/03/15 12.53
+___    ______ ____    _____ _____  ____ __ ______    ______ _________
0                                  11560              ¿þþþþþþþþþþþþþþþþþþþþþþþþþþþþþþþþþþþþþþþþþþþþþþþþþþþþþþþþþþþþþþþþþþþþþÜ
                                   11561              Ÿ                                                                     Ÿ
                                   11562              Ÿ  RUNMSG -- Routine to run a BATMAIL job.                            Ÿ
                                   11563              Ÿ    Called by MAIL to send a mail message as a job to another        Ÿ
                                   11564              Ÿ    machine.                                                         Ÿ
                                   11565              Ÿ                                                                     Ÿ
                                   11566              Ÿ    On entry:                                                        Ÿ
                                   11567              Ÿ      R1 - Header subroutine addr                                    Ÿ
                                   11568              Ÿ      R15- Co-routine addr (Co-routine will be called to get the     Ÿ
                                   11569              Ÿ                            next line.)                              Ÿ
                                   11570              Ÿ                                                                     Ÿ
                                   11571              Ÿ    ** DEBUG **                                                      Ÿ
                                   11572              Ÿ    old scanner points to 'print command'                            Ÿ
                                   11573              Ÿ    we make new scanner point to it. we must                         Ÿ
                                   11574              Ÿ    eventually change WYLMAIL to use new scanner                     Ÿ
                                   11575              Ÿ    or delete this routine !                                         Ÿ
                                   11576              Ÿ                                                                     Ÿ
                                   11577              Ÿ                                                                     Ÿ
                                                      ¾þþþþþþþþþþþþþþþþþþþþþþþþþþþþþþþþþþþþþþþþþþþþþþþþþþþþþþþþþþþþþþþþþþþþþ»
0000F6E 50E0 D000/9008_      00000 11578              RUNMSG   XPROC RJEWA
 USING  *,R7
 USING  RJEWA-(4+36),R8
 000F88 4160 8028            00000 11629                       LA    R6,RJEWA
 USING  RJEWA,R6                   11630                       USING RJEWA,R6
 000F8C D7FF 6000 6000_00000 00000 11639                       CLEAR RJEWA
 000FB6 5060 BD70            00D70 11652                       ST    R6,CPWK5
                                   11653
                                   11654                       COMMENT ,                 ** DEBUG ** SET UP NEW SCANNER
 000FBA 9001 D000/41D0_      00000 11655                       XPUSH R0,R1
 000FC2 58E0 77C8/0DEE       01750 11658                       OSCINFO
 000FC8 58E0 B08C/501E_      0008C 11663                       SCINIT (R1),(R0)
 000FD6 4BD0 7842/9801_      017CA 11683                       XPOP  R0,R1
                                   11686
 000FDE 1841                       11687                       LR    R4,R1               Save header routine addr
 000FE0 185F                       11688                       LR    R5,R15              Save co-routine addr
                                   11689
 000FE2 D207 601F 7768 0001F 016F0 11690                       MVC   RJENAME,=C'BATMAIL ' Set jobname
 000FE8 D206 63FE 78A5 003FE 0182D 11691                       MVC   RJEACCT,=C'WYLGS  ' Use account GS.WYL
 000FEE 9602 6001      00001       11692                       SET   RJEFSPEC            Allow non-user account
 000FF2 D213 60EA 77CC 000EA 01754 11698                       MVC   RJEHEAD,=CL20'Batmail'  Header
                                   11699
 000FF8 5810 B08C/1B00_      0008C 11700                       SCAN  RJEPRT              Allow rje options
 00104A 58E0 7798/0DEE       01720 11732                       SCANCHK
                                   11737
 001050 4110 646C/4100_      0046C 11738                       SEGINIT RJESGBUF,,RJESG,RTN=RSEG
                                   11780                       ¿þþþþþþþþþþþþþþþþþþþþþÜ
                                   11781                       Ÿ  Send initial JCL.  Ÿ
                                   11782                       ¾þþþþþþþþþþþþþþþþþþþþþ»
 001070 58E0 77E4/0DEE       0176C 11783                       ACALL JOBOPEN             Get submit path
 001076 1B11                       11787                       CLEAR R1                  Build job card
 001078 58E0 77E8/0DEE       01770 11791                       ACALL JOBCARD
 00107E 58E0 77EC/0DEE       01774 11795                       ACALL JOBCNTL
 001084 4110 7844/4100_      017CC 11799                       SEGWR '/*JOBPARM LINES=50'  Allow 50,000 lines out output
1RJE      (RJE4072) (12:53) (15MAR04) RUN Command                                                                           Page   24
0Current Usings:  (RJEWA,R6) (*,R7) (RJEWA-(4+36),R8) (CP,R11) (CV,R12)
0Loc    Object Code    Addr1 Addr2  Stmt Lv Lineno    Source Statement           (Hibal 5, Asmedit 3.3)  HLASM R4.0  2004/03/15 12.53
+___    ______ ____    _____ _____  ____ __ ______    ______ _________
0001096 4110 78AC/4100_      01834 11817                       SEGWR '// EXEC BATMAIL,OPT=''ESC=%,OUT=%'''
 0010A8 4110 7856/4100_      017DE 11835                       SEGWR '//SYSIN DD *,DCB=LRECL=150'
                                   11853                       ¿þþþþþþþþþþþþþþþþþþþþþþþþþþþþþþþþþþþþþþþÜ
                                   11854                       Ÿ  Build "XCALL ...#BATMAILX" command.  Ÿ
                                   11855                       ¾þþþþþþþþþþþþþþþþþþþþþþþþþþþþþþþþþþþþþþþ»
 0010BA 4110 7870/4100_      017F8 11856                       SEG   'XCALL '
 0010CC 4100 0009            00009 11873                       LA    R0,SDSNBATM         Want lib with BATMAIL exec
 0010D0 58E0 77F8/0DEE       01780 11874                       VCALL EXIT0               LOCAL exit - Supply system dsname
 0010D6 41F0 6430/58E0_      00430 11878                       SEG   (R1),(R0)           SEG out dsname
 0010E0 4110 78CD/4100_      01855 11901                       SEGWR '#BATMAILX'         Finish up with BATMAIL member
                                   11919                       ¿þþþþþþþþþþþþþþþþþþþþþþÜ
                                   11920                       Ÿ  Send header lines.  Ÿ
                                   11921                       ¾þþþþþþþþþþþþþþþþþþþþþþ»
 0010F2 41F0 6430            00430 11922                       LA    R15,RJESG
 0010F6 0DE4                       11923                       BASR  RAR,R4              Send header lines
                                   11924                       ¿þþþþþþþþþþþþþþþþþþþÜ
                                   11925                       Ÿ  Send main text.  Ÿ
                                   11926                       ¾þþþþþþþþþþþþþþþþþþþ»
 0010F8 0DE5                       11927              RUNMLL   BASR  RAR,R5              Go get line
 0010FA 4780 71A6            0112E 11928                       IF    NZ,BEGIN            We have the line...
 0010FE 9001 D000/41D0_      00000 11939  1                      XPUSH R0,R1
 001106 4110 7876/4100_      017FE 11942  1                      SEG   ';DATA:'            Data line follows
 001118 4BD0 7842/9801_      017CA 11959  1                      XPOP  R0,R1
 001120 41F0 6430/58E0_      00430 11962  1                      SEGWR (R1),(R0)           Write line of text
 00112A 47F0 7170            010F8 11986  1                      B     RUNMLL
 00112E                            11987                       END
                                   11991                       ¿þþþþþþþþþþþþþþþþþþþþþþþþþþþþþþþþþþþþþþÜ
                                   11992                       Ÿ  Send final line and remaining JCL.  Ÿ
                                   11993                       ¾þþþþþþþþþþþþþþþþþþþþþþþþþþþþþþþþþþþþþþ»
 00112E 4110 78D6/4100_      0185E 11994                       SEGWR ';END:'             Input ends with this line
 001140 4110 77FC/4100_      01784 12012                       SEGWR 'LOGOFF CLEAR'
 001152 4110 7808/4100_      01790 12030                       SEGWR '//* (End of BATMAIL)'
                                   12048
 001164 58E0 77C4/0DEE       0174C 12049                       ACALL JOBCLOSE
 00116A 18D8/9808 D004_            12053                       PEND
 DROP   RJEWA-(4+36),R8
 DROP   *,R7
1RJE      (RJE4072) (12:53) (15MAR04) RUN Command                                                                           Page   25
0Current Usings:  (RJEWA,R6) (CP,R11) (CV,R12)
0Loc    Object Code    Addr1 Addr2  Stmt Lv Lineno    Source Statement           (Hibal 5, Asmedit 3.3)  HLASM R4.0  2004/03/15 12.53
+___    ______ ____    _____ _____  ____ __ ______    ______ _________
0001178 C6D9D6D440404040_          12079              RUNPRTF  SCKW  FROM,V(FNAMESCN),A
 0011A0 C6D6D9D4E2404040_          12094                       SCKW  FORMS,FORMS,(A,P)   Dup--ahead of "DSNPRTF" table
 0011C8 4040404040404040_          12109                       SCKW  ,V(RNUMPSH),PUSH    Unn--ahead of "FNAMEPSH" table
 0011F0 4040404040404040_          12124                       SCKW  ,V(FNAMPSHF),PUSH
                                   12139
 001218 C1C3E3C9E5C54040_          12140              RUNPRT   SCKW  ACTIVE,V(SCNNOOP),A       (Handled elsewhere)
 001240 C5E7C5C3E4E3C540_          12155                       SCKW  EXECUTE,V(SCNNOOP),A      (Handled elsewhere)
 001268 C3C8C5C3D2404040_          12170                       SCKW  CHECK,V(SCNNOOP),A        Ignored (compatability)
 001290 C3C8D24040404040_          12185                       SCKW  CHK,V(SCNNOOP)            Ignored (compatability)
 0012B8 E2D7C5C3C9C1D340_          12200                       SCKW  SPECIAL,RUNSPEC,A
 0012E0 C4E4D4C240404040_          12215                       SCKW  DUMB,RUNDUMB,A
 001308 D540404040404040_          12230                       SCKW  N,V(NOTVALID)             Don't allow N = NOLIST
 001330 4040404040404040_          12245                       SCKW  ,V(LISTPSH),PUSH
 001358 4040404040404040_          12260                       SCKW  ,V(RNUMPSH),PUSH
 001380 4040404040404040_          12275                       SCKW  ,RJEPSH,PUSH
 0013A8 4040404040404040_          12290                       SCKW  ,V(COLLPSH),PUSH
 0013D0 4040404040404040_          12305                       SCKW  ,V(QUIETPSH),PUSH
 0013F8 4040404040404040_          12320                       SCKW  ,V(NOTVALID)
                                   12335
 001420 50E0 D000/9008_      00000 12336              RUNDUMB  PROC  ,
 USING  *,R7
 00143A 9120 B3BE/4710_003BE       12375                       IF    ~CPSFSPR,'VCALL NOTVALID'  NEED SYSTEM PRIVS
 001448 9604 6001      00001       12399                       SET   RJEFDUMB
 00144C 18D8/9808 D004_            12405                       PEND
 DROP   *,R7
                                   12425
 00145A 50E0 D000/9008_      00000 12426              RUNSPEC  PROC  ,
 USING  *,R7
 001474 9602 6001      00001       12465                       SET   RJEFSPEC
 001478 9108 B3BE/4710_003BE       12471                       IF    ~CPSFSBM,'VCALL NOTVALID'  NEED SUBMIT PRIVS
 001486 18D8/9808 D004_            12495                       PEND
 DROP   *,R7
 DROP   RJEWA,R6                   12515                       DROP  R6
1RJE      (RJE4072) (12:53) (15MAR04) RUN Command                                                                           Page   26
0Current Usings:  (CP,R11) (CV,R12)
0Loc    Object Code    Addr1 Addr2  Stmt Lv Lineno    Source Statement           (Hibal 5, Asmedit 3.3)  HLASM R4.0  2004/03/15 12.53
+___    ______ ____    _____ _____  ____ __ ______    ______ _________
0                                  12523              ¿þþþþþþþþþþþþþþþþþþþþþþþþþþþþþþþþþþþþþþþþþþþþþþþþþþþþþþþþþþþþþþþþþþþþþÜ
                                   12524              Ÿ                                                                     Ÿ
                                   12525              Ÿ  RUNOPT -- Routine to do final run option setting and               Ÿ
                                   12526              Ÿ    checking for inconsistencies.                                    Ÿ
                                   12527              Ÿ                                                                     Ÿ
                                                      ¾þþþþþþþþþþþþþþþþþþþþþþþþþþþþþþþþþþþþþþþþþþþþþþþþþþþþþþþþþþþþþþþþþþþþþ»
0001494 50E0 D000/9008_      00000 12528              RUNOPT   PROC
 USING  *,R7
 0014AE 5860 BD70            00D70 12567                       L     R6,CPWK5
 USING  RJEWA,R6                   12568                       USING RJEWA,R6
 0014B2 9120 BD54/47E0_00D54       12577                       IF    CPLFLG5.CPFNLST,'MVC RJECOPY,=H"-1"'
                                   12599                       ¿þþþþþþþþþþþþþþþþþÜ
                                   12600                       Ÿ  Directed run.  Ÿ
                                   12601                       ¾þþþþþþþþþþþþþþþþþ»
 0014C0 D604 6370 6370_00370 00370 12602                       IF    (RJETOACC,NZ),BEGIN  Directed run...
 0014CA 183D/41D0 D1F8             12618  1                      XPUSH ,,L'KWR,PTR=R3
 USING  KWR,R3                     12621  1                      WITH  (KWR,R3)
 0014D0 D204 3000 6370 00000 00370 12634  1                      MVC   KWRUSER(5),RJETOACC
 0014D6 1813/4100 0040_            12635  1                      KREAD KWR
 0014E2 9180 31F4/47E0_001F4       12648  1                      IF    ~KWRHFL.KWRHFCK,EXIT  No kw checking
 0014EA 9180 300E/4710_0000E       12667  1                      IF    ~KWRIFL.KWRIFVAL,BEGIN
 0014F2 4110 73B5/4100_      01863 12683  2                        TSEG  'Account',,B
 001504 4110 6373/4100_      00373 12701  2                        TSEG  RJETOACC+3,2
 001516 4110 73BC/4100_      0186A 12731  2                        TSEG  '.'
 001528 4110 6370/4100_      00370 12749  2                        TSEG  RJETOACC,3,B
 00153A D207 B886 724A_00886 016F8 12779  2                        ERROR 'does not exist.',,BADACCT
 00154C                            12787  1                      END
                                   12791  1
 00154C D607 6037 6037_00037 00037 12792  1                      IF    (RJEDEST,Z),'MVC RJEDEST,KWRDEST'
 00155C D602 603F 603F_0003F 0003F 12814  1                      IF    (RJEBIN,Z),'MVC RJEBIN,KWRBIN'
 00156C D607 6042 6042_00042 00042 12836  1                      IF    (RJEFORMS,Z),BEGIN
 001576 D207 6042 C4D8 00042 004D8 12852  2                        MVC   RJEFORMS,CVBLANKS
 00157C D203 6042 3029 00042 00029 12853  2                        MVC   RJEFORMS(L'KWRFORM),KWRFORM
 001582                            12854  1                      END
 001582 D7FF 3000 3000_00000 00000 12858  1                      CLEAR KWR
 00158E 4BD0 7358            01806 12866  1                      XPOP  ,,L'KWR
 DROP   KWR,R3                     12868                       END
                                   12877
 001592 D603 6014 6014_00014 00014 12878                       IF    (RJESYSAF,Z),'MVC RJESYSAF,CPSYSAFF'  Sysaff
 0015A2 D607 6037 6037_00037 00037 12900                       IF    (RJEDEST,Z),'MVC RJEDEST,CPDEST'
 0015B2 D602 603F 603F_0003F 0003F 12922                       IF    (RJEBIN,Z),'MVC RJEBIN,CPBIN'
 0015C2 D607 6042 6042_00042 00042 12944                       IF    (RJEFORMS,Z),'MVC RJEFORMS,CPFORMS'
 0015D2 18D8/9808 D004_            12966                       PEND
 DROP   *,R7
 DROP   RJEWA,R6                   12986                       DROP  R6
1RJE      (RJE4072) (12:53) (15MAR04) RUN Command                                                                           Page   27
0Current Usings:  (CP,R11) (CV,R12)
0Loc    Object Code    Addr1 Addr2  Stmt Lv Lineno    Source Statement           (Hibal 5, Asmedit 3.3)  HLASM R4.0  2004/03/15 12.53
+___    ______ ____    _____ _____  ____ __ ______    ______ _________
0                                  12994              ¿þþþþþþþþþþþþþþþþþþþþþþþþþþþþþþþþþþþþþþþþþþþþþþþþþþþþþþþþþþþþþþþþþþþþþÜ
                                   12995              Ÿ                                                                     Ÿ
                                   12996              Ÿ  RUNRTN -- Entered from the range processor with line loc in R1     Ÿ
                                   12997              Ÿ    and len in R0.                                                   Ÿ
                                   12998              Ÿ                                                                     Ÿ
                                                      ¾þþþþþþþþþþþþþþþþþþþþþþþþþþþþþþþþþþþþþþþþþþþþþþþþþþþþþþþþþþþþþþþþþþþþþ»
00015E0 50E0 D000/9008_      00000 12999              RUNRTN   PROC
 USING  *,R7
 0015FA 5860 BD70            00D70 13038                       L     R6,CPWK5            Rjewa ptr
 USING  RJEWA,R6                   13039                       USING RJEWA,R6
                                   13048
                                   13049                       COMMENT                   Move line into blank padded area
 0015FE 4120 6557            00557 13050                       LA    R2,RJELINE
 001602 4130 00EB            000EB 13051                       LA    R3,L'RJELINE
 001606 1841                       13052                       LR    R4,R1
 001608 5850 71B6            017B0 13053                       L     R5,=X'40000000'
 00160C 1650                       13054                       OR    R5,R0
 00160E 0E24                       13055                       MVCL  R2,R4
 001610 4110 6557            00557 13056                       LA    R1,RJELINE
                                   13057
 001614 1831                       13058                       LR    R3,R1
 001616 1820                       13059                       LR    R2,R0
                                   13060
 001618 9104 6001/47E0_00001       13061                       IF    RJEFDUMB,BEGIN      Submit lines intact...
 001620 D601 642C 642C_0042C 0042C 13076  1                      IF    (RJEDELIM,Z),RUNWR  Not the first time, branch
 00162A D701 642C 642C 0042C 0042C 13095  1                      CLEAR RJEDELIM
 001630 58E0 7172/0DEE       0176C 13102  1                      ACALL JOBOPEN             Open submit path
 001636 47F0 70AE            016A8 13106  1                      B     RUNWR               Write lines unchanged
 00163A                            13107                       END
                                   13111
 00163A 58E0 71BA/0DEE       017B4 13112                       ACALL JOBCRDCK            Is this a job card?
 001640 47D0 7066            01660 13116                       IF    POS,BEGIN           New (or first) job...
 001644 58E0 7152/0DEE       0174C 13127  1                      ACALL JOBCLOSE            Close & do locate
 00164A D739 63F5 63F5 003F5 003F5 13131  1                      CLEAR RJESWA              Reset submit stuff
 001650 58E0 7172/0DEE       0176C 13138  1                      ACALL JOBOPEN             Open submission path
 001656 1813/1802                  13142  1                      SETMSG (R3),(R2)
 00165A 58E0 7176/0DEE       01770 13154  1                      ACALL JOBCARD             Verify & send job card
 001660                            13158                       END
 001660 706A/47F0 70E6 01660 01642 13162                       ELSE  BEGIN
 001664 12FF/47B0 7076_            13173  1                      IF    (R15,M),'ACALL JOBCNTL'  Send control cards
 001670 9180 BD54/4710_00D54       13196  1                      IF    ~CPLFLG5.CPFUNUM,BEGIN
 001678 9108 BC79/47E0_00C79       13212  2                        IF    CPNFRNUM,'CEIL R2,72'  Replace with line-number
 00168C 5920 71BE/4720_      017B8 13251  2                        IF    (R2,GT,72),EXIT     Don't overlay text
 001694 5800 B73C            0073C 13271  2                        L     R0,CPLCNO
 001698 58E0 71C2/0DEE       017BC 13272  2                        VCALL CVEXNO
 00169E D207 3048 BC89 00048 00C89 13276  2                        MVC   @R3+72(8),CPDOUB+1  Move in seq field
 0016A4 4120 0050            00050 13277  2                        LA    R2,80
 0016A8                            13278  1                      END
1RJE      (RJE4072) (12:53) (15MAR04) RUN Command                                                                           Page   28
0Current Usings:  (RJEWA,R6) (*,R7) (CP,R11) (CV,R12)
0Loc    Object Code    Addr1 Addr2  Stmt Lv Lineno    Source Statement           (Hibal 5, Asmedit 3.3)  HLASM R4.0  2004/03/15 12.53
+___    ______ ____    _____ _____  ____ __ ______    ______ _________
0                                  13282  1                     ¿þþþþþþþþþþþþþþþþþþþþþþþþþþþþþþþþþþþþþþþþþþþþþþþþþþþþþþþþþþþþþþþþÜ
                                   13283  1                     Ÿ  We always pad a JCL line to 80 characters because JES2 looks  Ÿ
                                   13284  1                     Ÿ     at this length to set the LRECL of "DD *" input.           Ÿ
                                   13285  1                     ¾þþþþþþþþþþþþþþþþþþþþþþþþþþþþþþþþþþþþþþþþþþþþþþþþþþþþþþþþþþþþþþþþ»
 0016A8 5920 71C6/4750_      017C0 13286  1           RUNWR      IF    ((R2,GE,2),AND,(@R3,EQ,'//')),'FLOOR R2,80'  Pad
                                   13343  1
 0016C6 1813/1802/41F0_            13344  1                      SEG   (R3),(R2)
 0016D4 1B00/41F0 6430_            13369  1                      SEGWR
 0016E0                            13393                       END
 0016E0 18D8/9808 D004_            13397                       PEND
 DROP   *,R7
 DROP   RJEWA,R6                   13417                       DROP  R6
                                   13424
                                   13425                       QLTORG
1RJE      (RJE4072) (12:53) (15MAR04) PRINT/PUNCH Commands                                                                  Page   29
0Current Usings:  (CP,R11) (CV,R12)
0Loc    Object Code    Addr1 Addr2  Stmt Lv Lineno    Source Statement           (Hibal 5, Asmedit 3.3)  HLASM R4.0  2004/03/15 12.53
+___    ______ ____    _____ _____  ____ __ ______    ______ _________
0                                  13497              ¿þþþþþþþþþþþþþþþþþþþþþþþþþþþþþþþþþþþþþþþþþþþþþþþþþþþþþþþþþþþþþþþþþþþþþÜ
                                   13498              Ÿ                                                                     Ÿ
                                   13499              Ÿ  PRINT -- PRINT/PUNCH command.                                      Ÿ
                                   13500              Ÿ                                                                     Ÿ
                                                      ¾þþþþþþþþþþþþþþþþþþþþþþþþþþþþþþþþþþþþþþþþþþþþþþþþþþþþþþþþþþþþþþþþþþþþþ»
000187A 50E0 D000/9008_      00000 13501              PRINT    XPROC RJEWA
 USING  *,R7
 USING  RJEWA-(4+36),R8
 001894 4160 8028            00000 13552                       LA    R6,RJEWA
 USING  RJEWA,R6                   13553                       USING RJEWA,R6
 001898 D7FF 6000 6000_00000 00000 13562                       CLEAR RJEWA
 0018C2 5060 BD70            00D70 13575                       ST    R6,CPWK5
                                   13576
 0018C6 4110 646C/4100_      0046C 13577                       SEGINIT RJESGBUF,,RJESG,RTN=RSEG
 0018E6 9201 6000      00000       13619                       SET   RJECFPRI            Assume print command
 0018EA 9608 6003      00003       13625                       SET   RJEFFMT             Default is formatted
                                   13631
 0018EE D502 7262 BD24_01AF6 00D24 13632                       IF    (CPCMNM,EQ,'PUN'),BEGIN  PUNCH command defaults...
 0018F8 9202 6000      00000       13649  1                      SET   RJECFPUN            Punch
 0018FC 9620 BD54      00D54       13655  1                      SET   CPLFLG5.CPFNLST     Nolist
 001900 94F7 6003      00003       13662  1                      CLEAR RJEFFMT             Unformatted
 001904                            13669                       END
                                   13673
 001904 D502 7265 BD24_01AF9 00D24 13674                       IF    (CPCMNM,EQ,'LPR'),'SET RJEFLPR'  LPRINT
                                   13702
 001912 D502 7268 BD24_01AFC 00D24 13703                       IF    (CPCMNM,EQ,'_FA'),'SET RJEFFAX'  _FAX command
                                   13731              *
                                   13732              ******** IF    CPJFNTFY,'SET RJEFNTFY'
 001920 58E0 7220/0DEE       01AB4 13733                       VCALL SCNEXFR             Allow active, exec, or external
 001926 9610 BD50      00D50       13737                       SET   CPLFLG1.CPFALL      Allow default of ALL
 00192A 9640 BD57      00D57       13744                       SET   CPFNCUR             Don't update current line ptr
 00192E 58E0 7224/0DEE       01AB8 13750                       VCALL NDETRNG
                                   13754
 001934 9503 BD89/4770_00D89       13755                       IF    CPFRDEXT,BEGIN
 00193C 58E0 7228/0DEE       01ABC 13770  1                      VCALL MKFFINFO
 001942 5810 B08C/1B00_      0008C 13774  1                      SCAN  PRINTPRF
 001994 58E0 7234/0DEE       01AC8 13806  1                      SCANCHK
 00199A                            13811                       END
 00199A 710A/47F0 7162 0199A 0193A 13815                       ELSE  BEGIN
 00199E 5810 B08C/1B00_      0008C 13826  1                      SCAN  PRINTPRT
 0019F0 58E0 7234/0DEE       01AC8 13858  1                      SCANCHK
 0019F6                            13863                       END
                                   13867
                                   13868                       COMMENT                   HELP ** DEBUG ** REMOVE DSN OPTS
 0019F6 9101 BF39/4710_00F39       13869                       IF    (DSNFUFMT,OR,CPFUFMT,OR,~RJEFFMT),BEGIN Unfmt...
 001A0E 9601 BF39/9608_00F39       13910  1                      SET   DSNFUFMT,CPFUFMT,(RJEFFMT,OFF)
 001A1A                            13925                       END
                                   13929
 001A1A 9503 BD89/4770_00D89       13930                       IF    CPFRDEXT,BEGIN
 001A22 58E0 723C/0DEE       01AD0 13945  1                      VCALL FNAMEFIN
 001A28 5830 BE54            00E54 13949  1                      L     R3,CPFINFOP
 USING  FFINFO,R3                  13950  1                      USING FFINFO,R3
 001A2C 9503 3000/4770_00000       13959  1                      IF    (FFFSAM),BEGIN
1RJE      (RJE4072) (12:53) (15MAR04) PRINT/PUNCH Commands                                                                  Page   30
0Current Usings:  (FFINFO,R3) (RJEWA,R6) (*,R7) (RJEWA-(4+36),R8) (CP,R11) (CV,R12)
0Loc    Object Code    Addr1 Addr2  Stmt Lv Lineno    Source Statement           (Hibal 5, Asmedit 3.3)  HLASM R4.0  2004/03/15 12.53
+___    ______ ____    _____ _____  ____ __ ______    ______ _________
0001A34 4110 726B/4100_      01AFF 13974  2                        ERROR 'RUN FROM <samson file> not allowed.'
 001A40                            13981  1                      END
 DROP   FFINFO,R3                  13985  1                      DROP  R3
 001A40 58E0 7240/0DEE       01AD4 13992  1                      VCALL EXTOPEN
 001A46 12FF/4770 C7DE             13996  1                      IF    (R15,NZ),CVNEXT
 001A4C 5800 7244/5810_      01AD8 14013  1                      RDRNG PRINTRTN,(DESRTRN+LXCATRTN+UNPRST)
 001A5A 58E0 7250/0DEE       01AE4 14020  1                      VCALL EXTCLOSE
 001A60                            14024                       END
 001A60 71D0/47F0 71E6_01A60 01A20 14028                       ELSEIF CPFRDEXE,BEGIN
 001A6C 5800 7254/5810_      01AE8 14052  1                      RDRNG PRINTRTN,(DESRTRN+LEXATRTN+UNPRST)
 001A7A                            14059                       END
 001A7A 71EA/47F0 71F8 01A7A 01A6A 14063                       ELSE  BEGIN
 001A7E 5800 7258/5810_      01AEC 14074  1                      RDRNG PRINTRTN,(DESRTRN+LOCATRTN+UNPRST)
 001A8C                            14081                       END
 001A8C 58E0 725C/0DEE       01AF0 14085                       ACALL JOBCLOSE            Close path & locate job
 001A92 47F0 C7DE            007DE 14089                       B     CVNEXT
 001A96 18D8/9808 D004_            14090                       PEND  ,
 DROP   RJEWA-(4+36),R8
 DROP   *,R7
 DROP   RJEWA,R6                   14115                       DROP  R6
                                   14122
                                   14123                       QLTORG
1RJE      (RJE4072) (12:53) (15MAR04) PRINT/PUNCH Commands                                                                  Page   31
0Current Usings:  (CP,R11) (CV,R12)
0Loc    Object Code    Addr1 Addr2  Stmt Lv Lineno    Source Statement           (Hibal 5, Asmedit 3.3)  HLASM R4.0  2004/03/15 12.53
+___    ______ ____    _____ _____  ____ __ ______    ______ _________
0                                  14160              ¿þþþþþþþþþþþþþþþþþþþþþþþþþþþþþþþþþþþþþþþþþþþþþþþþþþþþþþþþþþþþþþþþþþþþþÜ
                                   14161              Ÿ                                                                     Ÿ
                                   14162              Ÿ  PRINTMSG -- Routine to print a message.                            Ÿ
                                   14163              Ÿ                                                                     Ÿ
                                   14164              Ÿ    On entry:                                                        Ÿ
                                   14165              Ÿ      R0 - Options...  0=normal                                      Ÿ
                                   14166              Ÿ                       1=LPRINT                                      Ÿ
                                   14167              Ÿ                       2=inter-network mail                          Ÿ
                                   14168              Ÿ                       3=BSMTP network mail                          Ÿ
                                   14169              Ÿ                       4=SUNMAIL network mail                        Ÿ
                                   14170              Ÿ      R1 - Header subroutine addr                                    Ÿ
                                   14171              Ÿ      R15- Co-routine addr (Co-routine will be called to get the     Ÿ
                                   14172              Ÿ                            next line.)                              Ÿ
                                   14173              Ÿ    ** DEBUG **                                                      Ÿ
                                   14174              Ÿ    old scanner points to 'print command'                            Ÿ
                                   14175              Ÿ    we make new scanner point to it. we must                         Ÿ
                                   14176              Ÿ    eventually change WYLMAIL to use new scanner                     Ÿ
                                   14177              Ÿ    or delete this routine !                                         Ÿ
                                   14178              Ÿ                                                                     Ÿ
                                   14179              Ÿ                                                                     Ÿ
                                                      ¾þþþþþþþþþþþþþþþþþþþþþþþþþþþþþþþþþþþþþþþþþþþþþþþþþþþþþþþþþþþþþþþþþþþþþ»
0001B22 50E0 D000/9008_      00000 14180              PRINTMSG XPROC RJEWA
 USING  *,R7
 USING  RJEWA-(4+36),R8
 001B3C 4160 8028            00000 14231                       LA    R6,RJEWA
 USING  RJEWA,R6                   14232                       USING RJEWA,R6
 001B40 D7FF 6000 6000_00000 00000 14241                       CLEAR RJEWA
 001B6A 5060 BD70            00D70 14254                       ST    R6,CPWK5
                                   14255
                                   14256                       COMMENT ,                 ** DEBUG ** SET UP NEW SCANNER
 001B6E 9001 D000/41D0_      00000 14257                       XPUSH R0,R1
 001B76 58E0 76F4/0DEE       02230 14260                       OSCINFO
 001B7C 58E0 B08C/501E_      0008C 14265                       SCINIT (R1),(R0)
 001B8A 4BD0 7794/9801_      022D0 14285                       XPOP  R0,R1
                                   14288
 001B92 1830                       14289                       LR    R3,R0               Save options
 001B94 1841                       14290                       LR    R4,R1               Header subroutine addr
 001B96 185F                       14291                       LR    R5,R15              Save co-routine addr
                                   14292
 001B98 D202 601F B3B4 0001F 003B4 14293                       MVC   RJENAME(3),CPSUSER
 001B9E D204 6022 77D2 00022 0230E 14294                       MVC   RJENAME+3(5),=C'MAIL '
 001BA4 4110 646C/4100_      0046C 14295                       SEGINIT RJESGBUF,,RJESG,RTN=RSEG
 001BC4 9203 6000      00000       14337                       SET   RJECFMAI            Print mail
                                   14343
 001BC8 5930 7704/47B0_      02240 14344                       IF    (R3,LT,2),'SET RJEFFMT'  Formatted (if not netmail)
                                   14372
 001BD4 5930 7708/4770_      02244 14373                       IF    (R3,EQ,1),'SET RJEFLPR'  LPRINT option
1RJE      (RJE4072) (12:53) (15MAR04) PRINT/PUNCH Commands                                                                  Page   32
0Current Usings:  (RJEWA,R6) (*,R7) (RJEWA-(4+36),R8) (CP,R11) (CV,R12)
0Loc    Object Code    Addr1 Addr2  Stmt Lv Lineno    Source Statement           (Hibal 5, Asmedit 3.3)  HLASM R4.0  2004/03/15 12.53
+___    ______ ____    _____ _____  ____ __ ______    ______ _________
0                                  14401                       ¿þþþþþþþþþþþþþþþþþþþþþþþþþþþþþþþþþþþþþþþþþþþþþþþþþþþþþþþþþþþþþÜ
                                   14402                       Ÿ  This is to handle mail destined for an internet gateway.   Ÿ
                                   14403                       Ÿ    It will go as a PRINT job so that JES will make class M  Ÿ
                                   14404                       Ÿ    instead of B, but lines will be limited to 80 char as    Ÿ
                                   14405                       Ÿ    for punch.                                               Ÿ
                                   14406                       ¾þþþþþþþþþþþþþþþþþþþþþþþþþþþþþþþþþþþþþþþþþþþþþþþþþþþþþþþþþþþþþ»
 001BE0 5930 7704/4780_      02240 14407                       IF    ((R3,EQ,2),OR,(R3,EQ,3)),BEGIN  NETMAIL...
 001BF0 9608 6002      00002       14440  1                      SET   RJEFPMAI            This is punched mail
 001BF4 5930 770C/4770_      02248 14446  1                      IF    (R3,EQ,3),'SET RJEFPBSMTP'  BSMTP mail
 001C00                            14474                       END
                                   14478
 001C00 5930 7710/4770_      0224C 14479                       IF    (R3,EQ,4),'SET RJEFPSUNMAIL'  SUNMAIL mail
                                   14507
 001C0C 5810 B08C/1B00_      0008C 14508                       SCAN  PRINTPRT
 001C5E 12FF/4780 7142             14540                       IF    (R15,NZ),BEGIN
 001C64 5830 B08C            0008C 14554  1                      L     R3,CPNSCANP
 USING  NSCNCB,R3                  14555  1                      USING NSCNCB,R3
 001C68 4110 3060/5800_      00060 14564  1                      TSEG  NSCNMSG,L:NSCNMSGL
 DROP   NSCNCB,R3                  14592  1                      DROP  R3
 001C7A 47F0 71A2            01CDE 14599  1                      B     PRINTMX
 001C7E                            14600                       END
                                   14604
 001C7E 94EF BD54/9680_00D54       14605                       SET   (CPLFLG5.CPFFOPT,OFF),CPLFLG5.CPFUNUM  Unnumbered
                                   14618
 001C86 1B00/1B11                  14619                       CLEAR R0,R1               Dummy first line
 001C8A 58E0 7720/0DEE       0225C 14625                       ACALL PRINTJCL            Build print job
                                   14629
 001C90 9620 6007      00007       14630                       SET   RJEFSOME            JCL has been sent (see PRINTRTN)
                                   14636                       ¿þþþþþþþþþþþþþþþþþþþþþþþþþþþþþþþþþþþþþþÜ
                                   14637                       Ÿ  Generate appropriate header lines.  Ÿ
                                   14638                       ¾þþþþþþþþþþþþþþþþþþþþþþþþþþþþþþþþþþþþþþ»
 001C94 1244/4780 7164             14639                       IF    (R4,NZ),BEGIN       Call header subroutine...
 001C9A 41F0 6430            00430 14653  1                      LA    R15,RJESG
 001C9E 0DE4                       14654  1                      BASR  RAR,R4              Call header subroutine
 001CA0                            14655                       END
                                   14659                       ¿þþþþþþþþþþþþþþþþþþþþÜ
                                   14660                       Ÿ  Print main text.  Ÿ
                                   14661                       ¾þþþþþþþþþþþþþþþþþþþþ»
 001CA0 0DE5                       14662              PRINTMLL BASR  RAR,R5              Go get line
 001CA2 4780 7174            01CB0 14663                       IF    NZ,BEGIN            Print line...
 001CA6 58E0 7724/0DEE       02260 14674  1                      ACALL PRINTRTN            Send line to be printed
 001CAC 47F0 7164            01CA0 14678  1                      B     PRINTMLL
 001CB0                            14679                       END
                                   14683
 001CB0 9106 6002/4780_00002       14684                       IF    RJEFPBSMTP+RJEFPSUNMAIL,BEGIN  BSMTP/SUNMAIL...
 001CB8 94F9 6002      00002       14702  1                      CLEAR RJEFPBSMTP+RJEFPSUNMAIL  Reset (so '.' not doubled)
 001CBC 4110 77D7/4100_      02313 14712  1                      SETMSG '.'                 Add '.' line
 001CC4 58E0 7724/0DEE       02260 14716  1                      ACALL PRINTRTN
 001CCA 4110 7728/4100_      02264 14720  1                      SETMSG 'QUIT'              Add 'QUIT' line
 001CD2 58E0 7724/0DEE       02260 14724  1                      ACALL PRINTRTN
 001CD8                            14728                       END
                                   14732
 001CD8 58E0 772C/0DEE       02268 14733                       ACALL JOBCLOSE
                                   14737
1RJE      (RJE4072) (12:53) (15MAR04) PRINT/PUNCH Commands                                                                  Page   33
0Current Usings:  (RJEWA,R6) (*,R7) (RJEWA-(4+36),R8) (CP,R11) (CV,R12)
0Loc    Object Code    Addr1 Addr2  Stmt Lv Lineno    Source Statement           (Hibal 5, Asmedit 3.3)  HLASM R4.0  2004/03/15 12.53
+___    ______ ____    _____ _____  ____ __ ______    ______ _________
0001CDE                            14738              PRINTMX  LABEL ,
 001CDE 18D8/9808 D004_            14740                       PEND
 DROP   RJEWA-(4+36),R8
 DROP   *,R7
 DROP   RJEWA,R6                   14765                       DROP  R6
1RJE      (RJE4072) (12:53) (15MAR04) PRINT/PUNCH Commands                                                                  Page   34
0Current Usings:  (CP,R11) (CV,R12)
0Loc    Object Code    Addr1 Addr2  Stmt Lv Lineno    Source Statement           (Hibal 5, Asmedit 3.3)  HLASM R4.0  2004/03/15 12.53
+___    ______ ____    _____ _____  ____ __ ______    ______ _________
0                                  14773              ¿þþþþþþþþþþþþþþþþþþþþþþþþþþþþþþþþþþþþþþþþþþþþþþþþþþþþþþþþþþþþþþþþþþþþþÜ
                                   14774              Ÿ                                                                     Ÿ
                                   14775              Ÿ  PRINTJCL -- Routine to generate print job JCL.  This routine       Ÿ
                                   14776              Ÿ    also does the final print option checking.                       Ÿ
                                   14777              Ÿ                                                                     Ÿ
                                                      ¾þþþþþþþþþþþþþþþþþþþþþþþþþþþþþþþþþþþþþþþþþþþþþþþþþþþþþþþþþþþþþþþþþþþþþ»
0USING  RJEWA,R6                   14778                       USING RJEWA,R6
 001CEC 50E0 D000/9008_      00000 14787              PRINTJCL PROC
 USING  *,R7
                                   14826                       ¿þþþþþþþþþþþþþþþþþþþþÜ
                                   14827                       Ÿ  Build PRINT job.  Ÿ
                                   14828                       ¾þþþþþþþþþþþþþþþþþþþþ»
 001D06 58E0 7566/0DEE       0226C 14829                       ACALL PRINTOPT            Finish up option setting
                                   14833
 001D0C 58E0 756A/0DEE       02270 14834                       ACALL JOBOPEN             Get submit path
 001D12 1B11                       14838                       CLEAR R1
 001D14 58E0 756E/0DEE       02274 14842                       ACALL JOBCARD             Build & send job card
 001D1A 41F0 0001/5EF0_      00001 14846                       INCR  R15,CVNPRINT        Count no. of prints
 001D26 58E0 7572/0DEE       02278 14852                       ACALL OPTLINE             Send option comment card
 001D2C 58E0 7576/0DEE       0227C 14856                       ACALL JOBCNTL             Send control cards
                                   14860
 001D32 9620 63F5      003F5       14861                       SET   RJEFCTRL            We are sending control lines
 001D36 4110 760E/4100_      02314 14867                       SEG   '/*LIST '
                                   14884
 001D48 4110 75CE/4100_      022D4 14885                       SETMSG 'CC'
 001D50 9120 6003/47E0_00003       14889                       IF    RJEFMC,'SETMSG "MC"'
 001D60 41F0 6430/58E0_      00430 14913                       SEG   (R1),(R0)           CC or MC
                                   14936
 001D6A 9110 6002/4710_00002       14937                       IF    (RJEFTRC,OR,RJEFFMT),'SEG ",TRC=Y"'
                                   14988
 001D8C 9502 6000/4770_00000       14989                       IF    RJECFPUN,BEGIN
 001D94 4110 75D8/4100_      022DE 15004  1                      SEG   ',PUNCH'
 001DA6                            15021                       END
                                   15025
 001DA6 1B00/41F0 6430_            15026                       SEGWR
 001DB2 94DF 63F5      003F5       15050                       CLEAR RJEFCTRL            End of control lines
                                   15057
 001DB6 92F1 642E      0042E       15058                       MVI   RJENEWCC,C'1'       Start at first possible line
 001DBA D67F 606A 606A_0006A 0006A 15059                       IF    (RJETITLE,NZ),BEGIN  Print a title line...
 001DC4 9502 6000/4780_00000       15075  1                      IF    RJECFPUN,EXIT
 001DCC D505 75DE 6018_022E4 00018 15093  1                      IF    (RJEPFORM,EQ,'POST  '),EXIT  Postscript
 001DD6 9120 6003/47E0_00003       15113  1                      IF    RJEFMC,'SEGWR X"8B"; MVI RJENEWCC,X"01"'
 001DF4 4110 642E/4100_      0042E 15152  1                      SEG   RJENEWCC
 001E06 9110 6002/47E0_00002       15179  1                      IF    RJEFTRC,'SEGB'
 001E1A 91C0 BD54/47E0_00D54       15223  1                      IF    CPLFLG5.CPFNONUM,'SEG CVBLANKS,11'
                                   15273  1
 001E34 D604 6370 6370_00370 00370 15274  1                      IF    (RJETOACC,NZ),BEGIN  Print to another account...
 001E3E 58E0 7582/0DEE       02288 15290  2                        VCALL LOCALTOD
 001E44 18FD/41D0 D020             15294  2                        XPUSH ,,32,PTR=R15
 001E4A 58E0 7586/0DEE       0228C 15297  2                        VCALL FMTCLCK
 001E50 4100 0014/41F0_      00014 15301  2                        SEG   (R1),20             "hh:mm:ss mm/dd/yyyy "
 001E5E 4BD0 75E4            022EA 15327  2                        XPOP  ,,32
 001E62 4110 758A/4100_      02290 15329  2                        SEGB  'FROM'
1RJE      (RJE4072) (12:53) (15MAR04) PRINT/PUNCH Commands                                                                  Page   35
0Current Usings:  (RJEWA,R6) (*,R7) (CP,R11) (CV,R12)
0Loc    Object Code    Addr1 Addr2  Stmt Lv Lineno    Source Statement           (Hibal 5, Asmedit 3.3)  HLASM R4.0  2004/03/15 12.53
+___    ______ ____    _____ _____  ____ __ ______    ______ _________
0001E74 4110 B3B7/4100_      003B7 15347  2                        SEG   CPSGRP
 001E86 4110 760D/4100_      02313 15374  2                        SEG   '.'
 001E98 4110 B3B4/4100_      003B4 15391  2                        SEG   CPSUSER
 001EAA D613 B174 B174_00174 00174 15418  2                        IF    (CPNAME,NZ),BEGIN
 001EB4 4110 75E6/4100_      022EC 15434  3                          SEG   ' "'
 001EC6 4110 B174/4100_      00174 15451  3                          SEGT  CPNAME
 001ED8 4110 7616/4100_      0231C 15479  3                          SEG   '"'
 001EEA                            15496  2                        END
 001EEA 4110 7617/4100_      0231D 15500  2                        SEGB  ':'
 001EFC                            15518  1                      END
                                   15522  1
 001EFC 4110 606A/4100_      0006A 15523  1                      SETMSG RJETITLE
 001F04 58E0 7592/0DEE       02298 15537  1                      ACALL BACKSEG
 001F0A 1B00/41F0 6430_            15541  1                      SEGWR
 001F16 9260 642E      0042E       15565  1                      MVI   RJENEWCC,C'-'
 001F1A                            15566                       END
                                   15570
 001F1A 18D8/9808 D004_            15571                       PEND  ,
 DROP   *,R7
 DROP   RJEWA,R6                   15591                       DROP  R6
1RJE      (RJE4072) (12:53) (15MAR04) PRINT/PUNCH Commands                                                                  Page   36
0Current Usings:  (CP,R11) (CV,R12)
0Loc    Object Code    Addr1 Addr2  Stmt Lv Lineno    Source Statement           (Hibal 5, Asmedit 3.3)  HLASM R4.0  2004/03/15 12.53
+___    ______ ____    _____ _____  ____ __ ______    ______ _________
0                                  15599              ¿þþþþþþþþþþþþþþþþþþþþþþþþþþþþþþþþþþþþþþþþþþþþþþþþþþþþþþþþþþþþþþþþþþþþþÜ
                                   15600              Ÿ                                                                     Ÿ
                                   15601              Ÿ  PRINTOPT -- Routine to do final print option setting and           Ÿ
                                   15602              Ÿ    checking for inconsistencies.                                    Ÿ
                                   15603              Ÿ                                                                     Ÿ
                                                      ¾þþþþþþþþþþþþþþþþþþþþþþþþþþþþþþþþþþþþþþþþþþþþþþþþþþþþþþþþþþþþþþþþþþþþþ»
0USING  RJEWA,R6                   15604                       USING RJEWA,R6
 001F28 50E0 D000/9008_      00000 15613              PRINTOPT PROC  ,
 USING  *,R7
 001F42 1BFF                       15652                       CLEAR R15
 001F44 9160 6003/4780_00003       15656                       IF    RJEFCC+RJEFMC,'LA R15,@R15+1'
 001F50 9110 6002/47E0_00002       15680                       IF    RJEFTRC,'LA R15,@R15+1'
 001F5C 49F0 BC4E/47D0_      00C4E 15701                       IF    (R15,GT,CPFCOL),'STH R15,CPFCOL'  skip cc/mc/cs chars
                                   15724
 001F68 9502 6000/4780_00000       15725                       IF    (~RJECFPUN,AND,CPLFLG5.CPFNLST),BEGIN
 001F78 4110 73DC/4100_      0231E 15755  1                      ERROR 'NOLIST option is invalid for PRINT.'
 001F84                            15762                       END
                                   15766
 001F84 9500 600F/4780_0000F       15767                       IF    ((RJEBLOCK,NZ),AND,(RJEOBLCK,Z)),BEGIN
 001F94 D200 6010 600F 00010 0000F 15798  1                      MVC   RJEOBLCK,RJEBLOCK   Output time block
 001F9A 9240 600F      0000F       15799  1                      MVI   RJEBLOCK,C' '       No execution time block
 001F9E                            15800                       END
                                   15804
 001F9E 9500 6011/4780_00011       15805                       IF    ((RJEPRIO,NZ),AND,(RJEOPRIO,Z)),BEGIN
 001FAE D200 6012 6011 00012 00011 15836  1                      MVC   RJEOPRIO,RJEPRIO    Output priority
 001FB4 9240 6011      00011       15837  1                      MVI   RJEPRIO,C' '        No execution priority
 001FB8                            15838                       END
                                   15842
 001FB8 9140 6001/47E0_00001       15843                       IF    RJEFXHLD,'SET RJEFHOLD,RJEFHOLX' (Xeq hold ineffective)
                                   15873
 001FC8 9180 6004/47E0_00004       15874                       IF    RJEFDOC,BEGIN       Document option...
 001FD0 9110 BD54/4710_00D54       15889  1                      IF    ~CPLFLG5.CPFFOPT,'SET CPLFLG5.CPFNONUM'  Nonumber
 001FDC D607 6042 6042_00042 00042 15917  1                      IF    (RJEFORMS,Z),BEGIN
 001FE6 D207 6042 72D6 00042 02218 15933  2                        MVC   RJEFORMS,=CL(L'RJEFORMS)'&DOCFORM'
 001FEC                            15934  1                      END
 001FEC 9500 6013/4770_00013       15938  1                      IF    (RJESYSCL,Z),'MVI RJESYSCL,C"&DOCCLAS"'  Uplow
 001FF8 9140 6004/47E0_00004       15960  1                      IF    RJEFMEMO,BEGIN      Memo has more...
 002000 D603 604A 604A_0004A 0004A 15975  2                        IF    (RJEFLASH,Z),'MVC RJEFLASH,=C"MEMO"'     Flash=MEMO
 002010 D603 604E 604E_0004E 0004E 15997  2                        IF    (RJEFCB,Z),'MVC RJEFCB,=C"MEM6"'         Fcb=MEM6
 002020                            16019  1                      END
 002020                            16023                       END
                                   16027
 002020 D604 6370 6370_00370 00370 16028                       IF    (RJETOACC,NZ),BEGIN  Directed print/punch...
 00202A 183D/41D0 D1F8             16044  1                      XPUSH ,,L'KWR,PTR=R3
 USING  KWR,R3                     16047  1                      WITH  (KWR,R3)
 002030 D204 3000 6370 00000 00370 16060  1                      MVC   KWRUSER(5),RJETOACC
 002036 1813/4100 0040_            16061  1                      KREAD KWR
 002042 9180 31F4/47E0_001F4       16074  1                      IF    ~KWRHFL.KWRHFCK,EXIT  No kw checking
 00204A 9180 300E/4710_0000E       16093  1                      IF    ~KWRIFL.KWRIFVAL,BEGIN
 002052 4110 73FF/4100_      02341 16109  2                        TSEG  'Account',,B
 002064 4110 6373/4100_      00373 16127  2                        TSEG  RJETOACC+3,2
 002076 4110 73D1/4100_      02313 16157  2                        TSEG  '.'
 002088 4110 6370/4100_      00370 16175  2                        TSEG  RJETOACC,3,B
1RJE      (RJE4072) (12:53) (15MAR04) PRINT/PUNCH Commands                                                                  Page   37
0Current Usings:  (KWR,R3) (RJEWA,R6) (*,R7) (CP,R11) (CV,R12)
0Loc    Object Code    Addr1 Addr2  Stmt Lv Lineno    Source Statement           (Hibal 5, Asmedit 3.3)  HLASM R4.0  2004/03/15 12.53
+___    ______ ____    _____ _____  ____ __ ______    ______ _________
000209A D207 B886 72DE_00886 02220 16205  2                        ERROR 'does not exist.',,BADACCT
 0020AC                            16213  1                      END
 0020AC D204 601F 6370 0001F 00370 16217  1                      MVC   RJENAME(5),RJETOACC
 0020B2 D202 6024 B3B4 00024 003B4 16218  1                      MVC   RJENAME+5(3),CPSUSER
 0020B8 D607 6037 6037_00037 00037 16219  1                      IF    (RJEDEST,Z),'MVC RJEDEST,KWRDEST'
 0020C8 D602 603F 603F_0003F 0003F 16241  1                      IF    (RJEBIN,Z),'MVC RJEBIN,KWRBIN'
 0020D8 D607 6042 6042_00042 00042 16263  1                      IF    (RJEFORMS,Z),BEGIN
 0020E2 D207 6042 C4D8 00042 004D8 16279  2                        MVC   RJEFORMS,CVBLANKS
 0020E8 D203 6042 3029 00042 00029 16280  2                        MVC   RJEFORMS(L'KWRFORM),KWRFORM
 0020EE                            16281  1                      END
 0020EE D7FF 3000 3000_00000 00000 16285  1                      CLEAR KWR
 0020FA 4BD0 73AC            022EE 16293  1                      XPOP  ,,L'KWR
 DROP   KWR,R3                     16295                       END
                                   16304
 0020FE 9108 6005/47E0_00005       16305                       IF    RJEFFAX,BEGIN       If fax job,
 002106 D67F 6375 6375_00375 00375 16320  1                      IF    (RJETO,Z),BEGIN
 002110 4110 73AE/4100_      022F0 16336  2                        ERROR 'Fax phone number not specified'
 00211C                            16343  1                      END
 00211C D502 7415 6037_02357 00037 16347  1                      IF    (RJEDEST,NE,'FAX'),BEGIN
 002126 D207 6037 72E6 00037 02228 16364  2                        MVC   RJEDEST,=CL(L'RJEDEST)'FAX'
 00212C                            16365  1                      END
 00212C D607 6042 6042_00042 00042 16369  1                      IF    (RJEFORMS,Z),BEGIN
 002136 D207 6042 72D6 00042 02218 16385  2                        MVC   RJEFORMS,=CL(L'RJEFORMS)'BOND'
 00213C                            16386  1                      END
 00213C                            16390                       END
                                   16394
 00213C D607 6037 6037_00037 00037 16395                       IF    (RJEDEST,Z),'MVC RJEDEST,CPDEST'
 00214C D602 603F 603F_0003F 0003F 16417                       IF    (RJEBIN,Z),'MVC RJEBIN,CPBIN'
 00215C D607 6042 6042_00042 00042 16439                       IF    (RJEFORMS,Z),'MVC RJEFORMS,CPFORMS'
                                   16461                       ¿þþþþþþþþþþþþþþþþþþþþþþþþþÜ
                                   16462                       Ÿ  Set up print headers.  Ÿ
                                   16463                       ¾þþþþþþþþþþþþþþþþþþþþþþþþþ»
 00216C D613 60EA 60EA_000EA 000EA 16464                       IF    (RJEHEAD,Z),BEGIN   No header...
 002176 D67F 606A 606A_0006A 0006A 16480  1                      IF    (RJETITLE,NZ),'MVC RJEHEADL,RJETITLE'
 002186 7248/47F0 7256_02186 0217E 16502  1                      ELSEIF RJEFFAX,BEGIN           If fax job,
 002192 D213 60EA 7366 000EA 022A8 16526  2                        MVC   RJEHEAD,=CL20'*NETFAX*'  Set dummy header
 002198                            16527  1                      END
 002198 725A/47F0 72BA 02198 02190 16531  1                      ELSE  BEGIN
 00219C D213 60EA 737A 000EA 022BC 16542  2                        MVC   RJEHEAD,=CL20'PRINT'
 0021A2 9502 6000/4770_00000       16543  2                        IF    RJECFPUN,'MVC RJEHEAD(5),=C"PUNCH"'
                                   16564  2                        AIF   (NOT &JESMAIL).JMAILE
 0021B0 9503 6000/4770_00000       16565  2                        IF    RJECFMAI,'MVC RJEHEAD(5),=C"MAIL "'
                                   16586  2           .JMAILE      ANOP
 0021BE D604 6370 6370_00370 00370 16587  2                        IF    ((RJETOACC,Z),AND,(CPNAME,NZ)),'MVC RJEHEAD,CPNAME'
 0021D8 D604 6370 6370_00370 00370 16624  2                        IF    (RJETOACC,NZ),BEGIN  Directed print/punch...
 0021E2 D204 60F0 741D 000F0 0235F 16640  3                          MVC   RJEHEAD+6(5),=C'(From'
 0021E8 D201 60F6 B3B7 000F6 003B7 16641  3                          MVC   RJEHEAD+12(2),CPSGRP
 0021EE 924B 60F8      000F8       16642  3                          MVI   RJEHEAD+14,C'.'
 0021F2 D202 60F9 B3B4 000F9 003B4 16643  3                          MVC   RJEHEAD+15(3),CPSUSER
 0021F8 925D 60FC      000FC       16644  3                          MVI   RJEHEAD+18,C')'
 0021FC                            16645  2                        END
 0021FC                            16649  1                      END
 0021FC                            16653                       END
1RJE      (RJE4072) (12:53) (15MAR04) PRINT/PUNCH Commands                                                                  Page   38
0Current Usings:  (RJEWA,R6) (*,R7) (CP,R11) (CV,R12)
0Loc    Object Code    Addr1 Addr2  Stmt Lv Lineno    Source Statement           (Hibal 5, Asmedit 3.3)  HLASM R4.0  2004/03/15 12.53
+___    ______ ____    _____ _____  ____ __ ______    ______ _________
0                                  16657                       ¿þþþþþþþþþþþþþþþþþþþþþþþþþþþþÜ
                                   16658                       Ÿ  Tidy up LPRINT defaults.  Ÿ
                                   16659                       ¾þþþþþþþþþþþþþþþþþþþþþþþþþþþþ»
 0021FC 9180 6005/47E0_00005       16660                       IF    RJEFLPR,BEGIN       LPRINT defaults...
 002204 9680 6001      00001       16675  1                      SET   RJEFHOLD            Must have output hold
 002208                            16681                       END
                                   16685
 002208 18D8/9808 D004_            16686                       PEND  ,
 DROP   *,R7
 DROP   RJEWA,R6                   16706                       DROP  R6
                                   16713
                                   16714                       QLTORG
1RJE      (RJE4072) (12:53) (15MAR04) PRINT/PUNCH Commands                                                                  Page   39
0Current Usings:  (CP,R11) (CV,R12)
0Loc    Object Code    Addr1 Addr2  Stmt Lv Lineno    Source Statement           (Hibal 5, Asmedit 3.3)  HLASM R4.0  2004/03/15 12.53
+___    ______ ____    _____ _____  ____ __ ______    ______ _________
0                                  16785              ¿þþþþþþþþþþþþþþþþþþþþþþþþþþþþþþþþþþþþþþþþþþþþþþþþþþþþþþþþþþþþþþþþþþþþþÜ
                                   16786              Ÿ                                                                     Ÿ
                                   16787              Ÿ  PRINTRTN -- Co-routine to print lines.  Entered from the range     Ÿ
                                   16788              Ÿ    processor with the line loc in R1 and the length in R0.          Ÿ
                                   16789              Ÿ                                                                     Ÿ
                                                      ¾þþþþþþþþþþþþþþþþþþþþþþþþþþþþþþþþþþþþþþþþþþþþþþþþþþþþþþþþþþþþþþþþþþþþþ»
0002364 50E0 D000/9008_      00000 16790              PRINTRTN PROC
 USING  *,R7
 00237E 5860 BD70            00D70 16829                       L     R6,CPWK5            RJEWA ptr
 USING  RJEWA,R6                   16830                       USING RJEWA,R6
                                   16839
                                   16840                       COMMENT                   Move line into blank padded area
 002382 4120 6557            00557 16841                       LA    R2,RJELINE
 002386 4130 00EB            000EB 16842                       LA    R3,L'RJELINE
 00238A 1841                       16843                       LR    R4,R1
 00238C 5850 789A            02C18 16844                       L     R5,=X'40000000'
 002390 1650                       16845                       OR    R5,R0
 002392 0E24                       16846                       MVCL  R2,R4
 002394 4110 6557            00557 16847                       LA    R1,RJELINE
                                   16848
 002398 1851                       16849                       LR    R5,R1               Save line loc...
 00239A 1840                       16850                       LR    R4,R0               ...and len
                                   16851                       ¿þþþþþþþþþþþþþþþÜ
                                   16852                       Ÿ  First line.  Ÿ
                                   16853                       ¾þþþþþþþþþþþþþþþ»
 00239C 9120 6007/4710_00007       16854                       IF    ~RJEFSOME,BEGIN     Do first line processing...
                                   16869  1                      ¿þþþþþþþþþþþþþþþþþþþþþþþþþþþþÜ
                                   16870  1                      Ÿ  Process OPTIONS line(s).  Ÿ
                                   16871  1                      ¾þþþþþþþþþþþþþþþþþþþþþþþþþþþþ»
 0023A4 1200/47D0 703E_            16872  1                      WHILE ((R0,POS),AND,(@R1,EQ,' ')),'LA R1,@R1+1; DECR R0'
 0023BC D207 BC88 1000 00C88 00000 16912  1                      MVC   CPDOUB,@R1
 0023C2 D607 BC88 C4D8 00C88 004D8 16913  1                      OC    CPDOUB,CVBLANKS
 0023C8 D507 788A BC88_02C08 00C88 16914  1                      IF    (CPDOUB,EQ,'OPTIONS:'),BEGIN
 0023D2 4B00 78F6            02C74 16931  2                        SH    R0,=H'8'
 0023D6 4110 1008/58E0_      00008 16932  2                        SCINIT @R1+8,(R0)
 0023E8 9640 6007      00007       16955  2                        SET   RJEFOSCN            Flag as option line scan
 0023EC 1B22                       16961  2                        CLEAR R2                  Assume no explicit numbering
 0023EE 9110 BD54/47E0_00D54       16965  2                        IF    CPLFLG5.CPFFOPT,'IC R2,CPLFLG5'  Save number options
 0023FA 5810 B08C/1B00_      0008C 16987  2                        SCAN  PRINTPRT
 00244C 58E0 78A6/0DEE       02C24 17019  2                        SCANCHK
 002452 1222/4780 70DE_            17024  2                        IF    (R2,NZ),'STC R2,CPLFLG5'  Restore number options
 00245C 47F0 76E2            02A60 17044  2                        B     PRINTXIT            Don't print this line
 002460                            17045  1                      END
                                   17049  1                      ¿þþþþþþþþþþþþþþþþþþþþþþþþþþþþþþþþþþþþÜ
                                   17050  1                      Ÿ  If fax job, scan SET FAX options  Ÿ
                                   17051  1                      ¾þþþþþþþþþþþþþþþþþþþþþþþþþþþþþþþþþþþþ»
 002460 9108 6005/47E0_00005       17052  1                      IF    RJEFFAX,BEGIN
                                   17067  2         C              IF    ((@R1,EQ,'%!'),AND,  If '%!' at start of first line,
 002468 D501 78FA 1000_02C78 00000        2                              (RJEPFORM,Z)),BEGIN     and no PFORMAT set,
 00247C D205 6018 78FC 00018 02C7A 17098  3                          MVC   RJEPFORM,=CL(L'RJEPFORM)'POST'  Flag as Postscript
 002482 9690 BD54      00D54       17099  3                          SET   CPLFLG5.CPFFOPT+CPFUNUM         Set unnumbered
 002486                            17109  2                        END
                                   17113  2
1RJE      (RJE4072) (12:53) (15MAR04) PRINT/PUNCH Commands                                                                  Page   40
0Current Usings:  (RJEWA,R6) (*,R7) (CP,R11) (CV,R12)
0Loc    Object Code    Addr1 Addr2  Stmt Lv Lineno    Source Statement           (Hibal 5, Asmedit 3.3)  HLASM R4.0  2004/03/15 12.53
+___    ______ ____    _____ _____  ____ __ ______    ______ _________
0002486 182D/41D0 D100             17114  2                        XPUSH ,,256,PTR=R2         Get variable result wa
 00248C 18ED/41D0 D43C_            17117  2                        TPUSH
 0024C0 4130 0100            00100 17155  2                        LA    R3,256
 0024C4 4110 790C/4100_      02C8A 17156  2                        SETMSG 'SES.FAX_OPTIONS'
 0024CC 58E0 78AE/0DEE       02C2C 17160  2                        VCALL EVALSTR             Get expression value
 0024D2 4BD0 7904/D23B_      02C82 17164  2                        TPOP  JUNK
                                   17169  2
 0024DC 1233/47D0 71EA             17170  2                        IF    (R3,P),BEGIN        If got value,
 0024E2 1812/1803/58E0_            17184  3                          SCINIT (R2),(R3)          Init scanner
 0024F4 9640 6007      00007       17206  3                          SET   RJEFOSCN            Flag as option line scan
 0024F8 1B22                       17212  3                          CLEAR R2                  Assume no explicit numbering
 0024FA 9110 BD54/47E0_00D54       17216  3                          IF    CPLFLG5.CPFFOPT,'IC R2,CPLFLG5'  Save number options
 002506 5810 B08C/1B00_      0008C 17238  3                          SCAN  PRINTPRT
 002558 58E0 78A6/0DEE       02C24 17270  3                          SCANCHK
 00255E 1222/4780 71EA_            17275  3                          IF    (R2,NZ),'STC R2,CPLFLG5'  Restore number options
 002568                            17295  2                        END
 002568 4BD0 7906            02C84 17299  2                        XPOP  ,,256
                                   17301  2
 00256C 9190 BD54/4770_00D54       17302  2                        IF    (CPLFLG5.CPFUNUM+CPFFOPT,Z),BEGIN  If no num option,
 002574 9690 BD54      00D54       17323  3                          SET   CPLFLG5.CPFFOPT+CPFUNUM    Set unnumbered
                                   17333  3         C                IF    ((RJEIND,Z),AND,           If indent not set,
 002578 D601 6368 6368_00368 00368        3                                (RJEPFORM,NE,'L')),BEGIN    and not landscape mode,
 00258A D201 6368 7908 00368 02C86 17365  4                            MVC   RJEIND,=H'6'               Set default indent
 002590                            17366  3                          END
 002590                            17370  2                        END
 002590                            17374  1                      END
                                   17378  1
 002590 58E0 78B2/0DEE       02C30 17379  1                      ACALL PRINTJCL            Send print job JCL
                                   17383  1
 002596 95F1 642E/4770_0042E       17384  1                      IF    (RJENEWCC,EQ,'1'),BEGIN
 00259E 9140 6003/47E0_00003       17401  2                        IF    (RJEFCC,AND,(@R5,EQ,'1')),'CLEAR RJENEWCC'
 0025B2 9140 6003/47E0_00003       17443  2                        IF    (RJEFCC,AND,(@R5,EQ,'F')),'CLEAR RJENEWCC'
 0025C6 9120 6003/47E0_00003       17485  2                        IF    (RJEFMC,AND,((@R5,EQ,X'89'),OR,(@R5,EQ,X'8B'))),BEGIN
 0025DE 9200 642E      0042E       17530  3                          CLEAR RJENEWCC
 0025E2                            17537  2                        END
 0025E2                            17541  1                      END
                                   17545  1
 0025E2 9620 6007      00007       17546  1                      SET   RJEFSOME            First line has been processed
 0025E6                            17552                       END
                                   17556
 0025E6 D500 601E 5000_0001E 00000 17557                       IF    ((@R5,EQ,RJEMARK),AND,(RJEMARK,NZ)),BEGIN
 0025F8 9540 601E/4770_0001E       17589  1                      IF    (RJEMARK,EQ,' '),BEGIN
 002600 1244/4770 7290             17606  2                        IF    (R4,NZ),NOMARK      Must be all blanks
 002606                            17623  1                      END
                                   17627  1
 002606 92F1 642E      0042E       17628  1                      MVI   RJENEWCC,C'1'       Page eject pending
 00260A 47F0 76E2            02A60 17629  1                      B     PRINTXIT            Scram
 00260E                            17630                       END
1RJE      (RJE4072) (12:53) (15MAR04) PRINT/PUNCH Commands                                                                  Page   41
0Current Usings:  (RJEWA,R6) (*,R7) (CP,R11) (CV,R12)
0Loc    Object Code    Addr1 Addr2  Stmt Lv Lineno    Source Statement           (Hibal 5, Asmedit 3.3)  HLASM R4.0  2004/03/15 12.53
+___    ______ ____    _____ _____  ____ __ ______    ______ _________
0                                  17634                       ¿þþþþþþþþþþþþþþþþþþþþþþþþþþþþþþþþþþþþþþþþþþþþþþþþþþþþþþþþþþÜ
                                   17635                       Ÿ  Do TEXTONLY style conversion of our multiple character  Ÿ
                                   17636                       Ÿ    sequences.                                            Ÿ
                                   17637                       ¾þþþþþþþþþþþþþþþþþþþþþþþþþþþþþþþþþþþþþþþþþþþþþþþþþþþþþþþþþþ»
 00260E 9108 6003/47E0_00003       17638              NOMARK   IF    RJEFFMT,BEGIN       Formatted...
 002616 1815/1804                  17654  1                      SETMSG @R5,(R4)            Input line
 00261A 41F0 00EB            000EB 17668  1                      LA    R15,&LINESZ         Maximum line size
 00261E 58E0 78B6/0DEE       02C34 17669  1                      VCALL TEXTONLY            Convert to TEXTONLY style
 002624 1840                       17673  1                      LR    R4,R0               Update new line length
 002626                            17674                       END
                                   17678                       ¿þþþþþþþþþþþþþþþþþþþþþþþþþþþþþþþþþþþþþþþþþþþþþþÜ
                                   17679                       Ÿ  Handle selecting just the columns we want.  Ÿ
                                   17680                       ¾þþþþþþþþþþþþþþþþþþþþþþþþþþþþþþþþþþþþþþþþþþþþþþ»
 002626 1835                       17681                       LR    R3,R5
 002628 4A30 BC4E            00C4E 17682                       AH    R3,CPFCOL
 00262C 1824                       17683                       LR    R2,R4
 00262E 4920 BC50/47D0_      00C50 17684                       CEIL  R2,CPLCOL
 00263A 4B20 BC4E/47B0_      00C4E 17690                       IF    ('SH R2,CPFCOL',NEG),'CLEAR R2'
                                   17712                       ¿þþþþþþþþþþþþþþþþþÜ
                                   17713                       Ÿ  Punch format.  Ÿ
                                   17714                       ¾þþþþþþþþþþþþþþþþþ»
 002644 9502 6000/4780_00000       17715                       IF    (RJECFPUN,OR,RJEFPMAI),BEGIN   Punch format
 002654 4110 C4D8/4100_      004D8 17744  1                      SETMSG CVBLANKS,1
 00265C 9120 6003/47E0_00003       17760  1                      IF    RJEFMC,'LA R1,=X"09"'
 002668 41F0 6430/58E0_      00430 17781  1                      SEG   (R1),(R0)
 002672 9110 6002/47E0_00002       17804  1                      IF    RJEFTRC,'SEGB'
 002686 9180 BD54/4710_00D54       17848  1                      IF    ~CPLFLG5.CPFUNUM,BEGIN
 00268E 9108 BC79/47E0_00C79       17864  2                        IF    CPNFRNUM,'CEIL R2,72'  Replace with line-number
 0026A2 5920 78C2/4720_      02C40 17903  2                        IF    (R2,GT,72),EXIT     Don't overlay text
 0026AA 5800 B73C            0073C 17923  2                        L     R0,CPLCNO
 0026AE 58E0 78C6/0DEE       02C44 17924  2                        VCALL CVEXNO
 0026B4 D207 5048 BC89 00048 00C89 17928  2                        MVC   @R5+72(8),CPDOUB+1
 0026BA 4120 0050            00050 17929  2                        LA    R2,80
 0026BE                            17930  1                      END
                                   17934  1
 0026BE 4140 0050            00050 17935  1                      LA    R4,80               Record break count
 0026C2 9104 6002/47E0_00002       17936  1                      IF    (RJEFPBSMTP,AND,(@R3,EQ,'.')),BEGIN   If leading '.'
 0026D2 4140 004F            0004F 17966  2                        LA    R4,79                               Reset break cnt
 0026D6 4110 791C/4100_      02C9A 17967  2                        SEG   '.'                                 Add extra dot
 0026E8                            17984  1                      END
                                   17988  1
 0026E8 9108 6002/47E0_00002       17989  1                      IF    (RJEFPMAI,AND,(R2,GT,R4)),BEGIN  Gateway mail...
 0026F6 1924/47D0 73E8             18018  2                        WHILE (R2,GT,R4),BEGIN    Break lines at column 80...
 0026FC 1813/1804/41F0_            18035  3                          SEGWR (R3),(R4)           Send first/next line
 00270A 1A34                       18061  3                          AR    R3,R4               Incr text pointer
 00270C 1B24                       18062  3                          SR    R2,R4               Decr length
 00270E 4140 0050            00050 18063  3                          LA    R4,80               Force 80 char break count
                                   18064  3
 002712 4110 C4D8/4100_      004D8 18065  3                          SETMSG CVBLANKS,1
 00271A 9120 6003/47E0_00003       18081  3                          IF    RJEFMC,'LA R1,=X"09"'
 002726 41F0 6430/58E0_      00430 18102  3                          SEG   (R1),(R0)           CC/MC character
 002730 9110 6002/47E0_00002       18125  3                          IF    RJEFTRC,'SEGB'      TRC character (if needed)
                                   18169  3
 002744 954B 3000/4770_00000       18170  3                          IF    (@R3,EQ,'.'),BEGIN  If leading '.'
1RJE      (RJE4072) (12:53) (15MAR04) PRINT/PUNCH Commands                                                                  Page   42
0Current Usings:  (RJEWA,R6) (*,R7) (CP,R11) (CV,R12)
0Loc    Object Code    Addr1 Addr2  Stmt Lv Lineno    Source Statement           (Hibal 5, Asmedit 3.3)  HLASM R4.0  2004/03/15 12.53
+___    ______ ____    _____ _____  ____ __ ______    ______ _________
000274C 4110 791C/4100_      02C9A 18186  4                            SEG   '.'                 Double it
 00275E 4140 004F            0004F 18203  4                            LA    R4,79               Set 79 char break count
 002762                            18204  3                          END
 002762 47F0 7378            026F6 18208  2                        END
 002766                            18213  1                      END
                                   18217  1
 002766 5920 78CE/47D0_      02C4C 18218  1                      IF    (R2,GT,80),BEGIN    80 character limit on punch lines
 00276E 58E0 78D2/0DEE       02C50 18235  2                        VCALL JESODEL             Delete job
 002774 4110 791D/4100_      02C9B 18239  2                        ABORT 'Punched lines can not be longer than 80 characters.'
 002780                            18246  1                      END
 002780 1813/1802/41F0_            18250  1                      SEGT (R3),(R2)            Add the output card
 00278E 1B00/41F0 6430_            18276  1                      SEGWR
 00279A 41F0 0001/5EF0_      00001 18300  1                      INCR  R15,RJEPCNT         Kick punched card count
                                   18306  1                      ¿þþþþþþþþþþþþþþþþþþþþþþþþþþþþþþþþþþþþþþþþþþþþþþþþþþþþþþþþþÜ
                                   18307  1                      Ÿ  Punch limit no longer enforced as per Jim Stosick and  Ÿ
                                   18308  1                      Ÿ    Lynne Sinclair.  11/6/91                             Ÿ
                                   18309  1                      ¾þþþþþþþþþþþþþþþþþþþþþþþþþþþþþþþþþþþþþþþþþþþþþþþþþþþþþþþþþ»
                                   18310  1           *****    IF    ((RJEKPLIM,NZ),AND,(R15,GT,RJEKPLIM)),'ACALL PRINTDLP'
                                   18311  1                      ¿þþþþþþþþþþþþþþþþþþþþþþÜ
                                   18312  1                      Ÿ  Check print limit.  Ÿ
                                   18313  1                      ¾þþþþþþþþþþþþþþþþþþþþþþ»
 0027A6 9120 BD54/4710_00D54       18314  1                      IF    ~CPLFLG5.CPFNLST,BEGIN  Also check print limit...
 0027AE 41F0 0001/5EF0_      00001 18330  2                        INCR  R15,RJELCNT         Kick printed line count
 0027BA D603 641C 641C_0041C 0041C 18336  2                        IF    ((RJEKLLIM,NZ),AND,(R15,GT,RJEKLLIM)),'ACALL PRINTDEL'
 0027D2                            18377  1                      END
 0027D2 47F0 76E2            02A60 18381  1                      B     PRINTXIT            All done
 0027D6                            18382                       END
1RJE      (RJE4072) (12:53) (15MAR04) PRINT/PUNCH Commands                                                                  Page   43
0Current Usings:  (RJEWA,R6) (*,R7) (CP,R11) (CV,R12)
0Loc    Object Code    Addr1 Addr2  Stmt Lv Lineno    Source Statement           (Hibal 5, Asmedit 3.3)  HLASM R4.0  2004/03/15 12.53
+___    ______ ____    _____ _____  ____ __ ______    ______ _________
00027D6 9140 6003/47E0_00003       18387                       IF    RJEFCC,BEGIN        Check for valid CC char...
 0027DE 9540 5000/4780_00000       18402  1                      IF    (@R5,EQ,' '),EXIT
 0027E6 954E 5000/4780_00000       18421  1                      IF    (@R5,EQ,'+'),EXIT
 0027EE 9560 5000/4780_00000       18440  1                      IF    (@R5,EQ,'-'),EXIT
 0027F6 95C1 5000/4750_00000       18459  1                      IF    ((@R5,GE,'A'),AND,(@R5,LE,'C')),EXIT
 002806 95C6 5000/4780_00000       18493  1                      IF    ((@R5,EQ,'F'),OR,(@R5,EQ,'f')),EXIT
 002816 95F0 5000/4740_00000       18527  1                      IF    ((@R5,LT,'0'),OR,(@R5,GT,'9')),PRINTBCC
 002826                            18561                       END
                                   18565
 002826 9240 BC88      00C88       18566                       MVI   CPDOUB,C' '
 00282A 1815                       18567                       LR    R1,R5
 00282C 9160 6003/4780_00003       18568                       IF    RJEFCC+RJEFMC,'MVC CPDOUB(1),@R1; LA R1,@R1+1'
 00283E 9110 6002/47E0_00002       18593                       IF    RJEFTRC,'MVC CPDOUB+1(1),@R1'
 00284C 9500 642E/4780_0042E       18614                       IF    (RJENEWCC,NZ),BEGIN  Pending CC char...
 002854 9120 6003/47E0_00003       18630  1                      IF    RJEFMC,BEGIN        MC style...
 00285C 1B00                       18645  2                        CLEAR R0
 00285E 95F1 642E/4770_0042E       18649  2                        IF    (RJENEWCC,EQ,'1'),'SETMSG X"8B"'
 00286E 95F0 642E/4770_0042E       18675  2                        IF    (RJENEWCC,EQ,'0'),'SETMSG X"13"'
 00287E 9560 642E/4770_0042E       18701  2                        IF    (RJENEWCC,EQ,'-'),'SETMSG X"1B"'
 00288E 1200/4780 7520_            18727  2                        IF    (R0,NZ),'SEGWR (R1),(R0)'
 00289E                            18770  1                      END
 00289E 7524/47F0 7560 0289E 0285A 18774  1                      ELSE  BEGIN               CC style...
 0028A2 9540 BC88/4770_00C88       18785  2                        IF    (CPDOUB,EQ,' '),'MVC CPDOUB(1),RJENEWCC'
 0028B0 7536/47F0 7560 028B0 028A8 18808  2                        ELSE  BEGIN
 0028B4 4110 642E/4100_      0042E 18819  3                          SEGWR RJENEWCC
 0028C6 95F0 BC88/4770_00C88       18847  3                          IF    (CPDOUB,EQ,'0'),'MVI CPDOUB,C" "'
 0028D2 9560 BC88/4770_00C88       18870  3                          IF    (CPDOUB,EQ,'-'),'MVI CPDOUB,C"0"'
 0028DE                            18893  2                        END
 0028DE                            18897  1                      END
 0028DE 9200 642E      0042E       18901  1                      CLEAR RJENEWCC
 0028E2                            18908                       END
 0028E2 9106 6003/4780_00003       18912                       IF    RJEFDOUB+RJEFTRIP,BEGIN
 0028EA 9120 6003/4710_00003       18930  1                      IF    RJEFMC,EXIT
 0028F2 9540 BC88/4770_00C88       18948  1                      IF    (CPDOUB,NE,' '),EXIT
 0028FA 92F0 BC88      00C88       18968  1                      MVI   CPDOUB,C'0'
 0028FE 9102 6003/47E0_00003       18969  1                      IF    RJEFTRIP,'MVI CPDOUB,C"-"'
 00290A                            18990                       END
                                   18994
 00290A 4100 0001            00001 18995                       LA    R0,1
 00290E 9110 6002/47E0_00002       18996                       IF    RJEFTRC,'A R0,CVONE'  Include TRC char
                                   19017                       ¿þþþþþþþþþþþþþþþþþÜ
                                   19018                       Ÿ  CC character.  Ÿ
                                   19019                       ¾þþþþþþþþþþþþþþþþþ»
 00291A 4110 BC88/41F0_      00C88 19020                       SEG   CPDOUB,(R0)
                                   19046                       ¿þþþþþþþþþþþþþþþþþþþþþþþþþþþþþþÜ
                                   19047                       Ÿ  SUNMAIL leading dot check.  Ÿ
                                   19048                       ¾þþþþþþþþþþþþþþþþþþþþþþþþþþþþþþ»
 002928 9102 6002/47E0_00002       19049                       IF    RJEFPSUNMAIL,BEGIN   SUNMAIL style...
 002930 1222/47D0 75D2_            19064  1                      IF    ((R2,POS),AND,(@R3,EQ,'.')),BEGIN  Leading dot...
 00293E 4110 791C/4100_      02C9A 19093  2                        SEG   '.'                 Double it
 002950                            19110  1                      END
 002950                            19114                       END
1RJE      (RJE4072) (12:53) (15MAR04) PRINT/PUNCH Commands                                                                  Page   44
0Current Usings:  (RJEWA,R6) (*,R7) (CP,R11) (CV,R12)
0Loc    Object Code    Addr1 Addr2  Stmt Lv Lineno    Source Statement           (Hibal 5, Asmedit 3.3)  HLASM R4.0  2004/03/15 12.53
+___    ______ ____    _____ _____  ____ __ ______    ______ _________
0                                  19118                       ¿þþþþþþþþþþþþþþÜ
                                   19119                       Ÿ  Line text.  Ÿ
                                   19120                       ¾þþþþþþþþþþþþþþ»
 002950 1B00                       19121                       CLEAR R0                  Unnumbered
 002952 91C0 BD54/47E0_00D54       19125                       IF    CPLFLG5.CPFNONUM,'SETMSG CVBLANKS,11'  Nonumber
 002962 9180 BD54/4770_00D54       19162                       IF    (CPLFLG5.CPFUNUM,Z),BEGIN  Numbered...
 00296A 5800 B73C            0073C 19180  1                      L     R0,CPLCNO
 00296E 58E0 78C6/0DEE       02C44 19181  1                      VCALL CVEXNO
 002974 4110 BC88/4100_      00C88 19185  1                      SEG   CPDOUB,9
 002986 4110 C4D8/4100_      004D8 19214  1                      SETMSG CVBLANKS,2
 00298E                            19230                       END
 00298E 41F0 6430/58E0_      00430 19234                       SEG   (R1),(R0)
 002998 9140 BD54/47E0_00D54       19257                       IF    (~CPLFLG5.CPFNTEX,OR,CPLFLG5.CPFNONUM),BEGIN
 0029A8 1813/1802                  19288  1                      SETMSG (R3),(R2)           Line text
 0029AC 9120 6004/47E0_00004       19300  1                      IF    RJEFHEX,'L R15,RJESGLENF; ACALL HEXSEG; B PRINTC'
 0029C2 9110 6004/47E0_00004       19326  1                      IF    RJEFMIX,'ACALL MIXSEG; B PRINTC'
 0029D4 58E0 78E6/0DEE       02C64 19351  1                      ACALL BACKSEG             Process any backspaces & write line
 0029DA                            19355                       END
                                   19359
 0029DA 4840 636C            0036C 19360                       LH    R4,RJEDARK          Dark count
 0029DE 5940 78EA/47D0_      02C68 19361                       IF    (R4,GT,1),BEGIN     Must overprint line...
 0029E6 5830 643C            0043C 19378  1                      L     R3,RJESGLENF        Current buffer len
 0029EA 4320 646C            0046C 19379  1                      IC    R2,RJESGBUF         Cc/mc char
 0029EE 9120 6003/47E0_00003       19380  1                      IF    RJEFMC,'MVI RJESGBUF,X"01"'  Write no space
 0029FA 0640                       19401  1                      DECR  R4
 0029FC 1244/47D0 76A6             19403  1                      WHILE (R4,POS),BEGIN
 002A02 1B00/41F0 6430_            19419  2                        SEGWR
 002A0E 9120 6003/4710_00003       19443  2                        IF    ~RJEFMC,'MVI RJESGBUF,C"+"'
 002A1A 5030 643C            0043C 19464  2                        ST    R3,RJESGLENF        Restore seg buffer
 002A1E 0640                       19465  2                        DECR  R4
 002A20 47F0 767E            029FC 19467  1                      END
 002A24 9120 6003/47E0_00003       19472  1                      IF    RJEFMC,'STC R2,RJESGBUF'  Orig MC char
 002A30                            19493                       END
 002A30 1B00/41F0 6430_            19497                       SEGWR
 002A3C 41F0 0001/5EF0_      00001 19521              PRINTC   INCR  R15,RJELCNT         Kick printed line count
 002A48 D603 641C 641C_0041C 0041C 19527                       IF    ((RJEKLLIM,NZ),AND,(R15,GT,RJEKLLIM)),'ACALL PRINTDEL'
                                   19568
 002A60 18D8/9808 D004_            19569              PRINTXIT PEND
 DROP   *,R7
 DROP   RJEWA,R6                   19590                       DROP  R6
1RJE      (RJE4072) (12:53) (15MAR04) PRINT/PUNCH Commands                                                                  Page   45
0Current Usings:  (CP,R11) (CV,R12)
0Loc    Object Code    Addr1 Addr2  Stmt Lv Lineno    Source Statement           (Hibal 5, Asmedit 3.3)  HLASM R4.0  2004/03/15 12.53
+___    ______ ____    _____ _____  ____ __ ______    ______ _________
0USING  RJEWA,R6                   19598                       USING RJEWA,R6
                                   19607              ¿þþþþþþþþþþþþþþþþþþþþþþþþþþþþþþþþþþþþþþþþþþþþþþþþþþþþþþþþþþþþþþþþþþþþþÜ
                                   19608              Ÿ                                                                     Ÿ
                                   19609              Ÿ  PRINTBCC -- Branched to to abort a print because an invalid cc     Ÿ
                                   19610              Ÿ    character was found.                                             Ÿ
                                   19611              Ÿ                                                                     Ÿ
                                   19612              Ÿ  ERROR ROUTINE, THIS ROUTINE DOES NOT RETURN TO CALLER              Ÿ
                                   19613              Ÿ                                                                     Ÿ
                                                      ¾þþþþþþþþþþþþþþþþþþþþþþþþþþþþþþþþþþþþþþþþþþþþþþþþþþþþþþþþþþþþþþþþþþþþþ»
0002A6E 50E0 D000/9008_      00000 19614              PRINTBCC PROC  ,
 USING  *,R7
 002A88 58E0 71C8/0DEE       02C50 19653                       VCALL JESODEL             Delete job
 002A8E 1815/4100 0001_            19657                       TSEG  (R5),1
 002A9E 4110 7249/4100_      02CD1 19685                       TSEG  ': invalid CC char in '
 002AB0 9503 BD89/4770_00D89       19703                       IF    CPFRDEXT,'TSEG "external",,B'
 002ACA 4110 725E/4100_      02CE6 19741                       TSEG  'line '
 002ADC 5800 B73C            0073C 19759                       L     R0,CPLCNO
 002AE0 58E0 71BC/0DEE       02C44 19760                       VCALL CVEXNO
 002AE6 41F0 B050/58E0_      00050 19764                       TSEG  (R1),(R0),CR
 002AF0 47F0 C7EA            007EA 19788                       B     CVNOACTN
 002AF4 18D8/9808 D004_            19789                       PEND
 DROP   *,R7
1RJE      (RJE4072) (12:53) (15MAR04) PRINT/PUNCH Commands                                                                  Page   46
0Current Usings:  (RJEWA,R6) (CP,R11) (CV,R12)
0Loc    Object Code    Addr1 Addr2  Stmt Lv Lineno    Source Statement           (Hibal 5, Asmedit 3.3)  HLASM R4.0  2004/03/15 12.53
+___    ______ ____    _____ _____  ____ __ ______    ______ _________
0                                  19810              ¿þþþþþþþþþþþþþþþþþþþþþþþþþþþþþþþþþþþþþþþþþþþþþþþþþþþþþþþþþþþþþþþþþþþþþÜ
                                   19811              Ÿ                                                                     Ÿ
                                   19812              Ÿ  PRINTDLP/PRINTDEL are branched to when an attempt to print         Ÿ
                                   19813              Ÿ     or punch too many lines has been made.  the routine deletes     Ÿ
                                   19814              Ÿ     the job (which has been partially submitted) and gives the      Ÿ
                                   19815              Ÿ     user an error message.                                          Ÿ
                                   19816              Ÿ                                                                     Ÿ
                                   19817              Ÿ  ERROR ROUTINE, THIS ROUTINE DOES NOT RETURN TO CALLER              Ÿ
                                   19818              Ÿ                                                                     Ÿ
                                   19819              Ÿ                                                                     Ÿ
                                                      ¾þþþþþþþþþþþþþþþþþþþþþþþþþþþþþþþþþþþþþþþþþþþþþþþþþþþþþþþþþþþþþþþþþþþþþ»
0002B02 50E0 D000/9008_      00000 19820              PRINTDLP PROC  ,
 USING  *,R7
 002B1C 4110 71CF/4100_      02CEB 19859                       SETMSG 'Punched'
 002B24 5820 6420            00420 19863                       L     R2,RJEKPLIM
 002B28 9002 D000/41D0_      00000 19864                       XPUSH R0,R2
 002B30 58E0 7134/0DEE       02C50 19867                       VCALL JESODEL             Delete job
 002B36 4BD0 716C/9802_      02C88 19871                       XPOP  R0,R2
 002B3E 41F0 B050/58E0_      00050 19874                       TSEG  (R1),(R0),B         Printed/punched
 002B48 4110 71D6/4100_      02CF2 19898                       TSEG  'output exceeds the account limit of',,B
 002B5A 18F2/1B00/4110_            19916                       BTD   CPDOUB,0,(R2)
 002B68 41F0 B050/58E0_      00050 19936                       TSEG  (R1),(R0),CR
 002B72 47F0 C7EA            007EA 19960                       B     CVNOACTN
 002B76 18D8/9808 D004_            19961                       PEND
 DROP   *,R7
                                   19981              *
                                   19982              *
                                   19983              *
 002B84 50E0 D000/9008_      00000 19984              PRINTDEL PROC  ,
 USING  *,R7
 002B9E 4110 7177/4100_      02D15 20023                       SETMSG 'Printed'
 002BA6 5820 641C            0041C 20027                       L     R2,RJEKLLIM
 002BAA 9002 D000/41D0_      00000 20028                       XPUSH R0,R2
 002BB2 58E0 70B2/0DEE       02C50 20031                       VCALL JESODEL             Delete job
 002BB8 4BD0 70EA/9802_      02C88 20035                       XPOP  R0,R2
 002BC0 41F0 B050/58E0_      00050 20038                       TSEG  (R1),(R0),B         Printed/punched
 002BCA 4110 7154/4100_      02CF2 20062                       TSEG  'output exceeds the account limit of',,B
 002BDC 18F2/1B00/4110_            20080                       BTD   CPDOUB,0,(R2)
 002BEA 41F0 B050/58E0_      00050 20100                       TSEG  (R1),(R0),CR
 002BF4 47F0 C7EA            007EA 20124                       B     CVNOACTN
 002BF8 18D8/9808 D004_            20125                       PEND  ,
 DROP   *,R7
 DROP   RJEWA,R6                   20145                       DROP  R6
                                   20152
                                   20153                       QLTORG
1RJE      (RJE4072) (12:53) (15MAR04) PRINT/PUNCH Commands                                                                  Page   47
0Current Usings:  (CP,R11) (CV,R12)
0Loc    Object Code    Addr1 Addr2  Stmt Lv Lineno    Source Statement           (Hibal 5, Asmedit 3.3)  HLASM R4.0  2004/03/15 12.53
+___    ______ ____    _____ _____  ____ __ ______    ______ _________
0                                  20212              *
 USING  RJEWA,R6                   20213                       USING RJEWA,R6            Global assumption
                                   20222
 000000                00000 001F4 20223              BACKWA   RECORD BEGIN
 000000                            20231  1           BACKPTR    DS    A                   Location of input text
                                   20232  1           BACKINDX   DS    XL(&LINESZ)         Character column map
 000004                                   1          +BACKINDX   DS    XL(235)             Character column map
                                   20233  1           BACKLINE   DS    CL(&LINESZ)
 0000EF                                   1          +BACKLINE   DS    CL(235)
 0001DC                            20234  1           BACKCLENF   DS   F                   Length of continuation prefix
 0001E0                            20235  1           BACKCONT   DS    CL20                Continuation area
 0001F4                001F4 001F4 20236                       END
-                                  20246              ¿þþþþþþþþþþþþþþþþþþþþþþþþþþþþþþþþþþþþþþþþþþþþþþþþþþþþþþþþþþþþþþþþþþþþþÜ
                                   20247              Ÿ                                                                     Ÿ
                                   20248              Ÿ  BACKSEG -- Routine to process imbedded backspaces and seg line.    Ÿ
                                   20249              Ÿ                                                                     Ÿ
                                   20250              Ÿ    On entry:                                                        Ÿ
                                   20251              Ÿ      R1,R0 - line loc, len                                          Ÿ
                                   20252              Ÿ                                                                     Ÿ
                                                      ¾þþþþþþþþþþþþþþþþþþþþþþþþþþþþþþþþþþþþþþþþþþþþþþþþþþþþþþþþþþþþþþþþþþþþþ»
0002D1C 50E0 D000/9008_      00000 20253              BACKSEG  PROC  BACKWA
 USING  *,R7
 USING  BACKWA-(4+36),R8
 002D36 9110 6003/47E0_00003       20303                       IF    ~RJEFBACK,BACKFIN   Don't look for backspaces
 002D3E 12F0/47D0 7178             20321                       IF    ('LTR R15,R0',NP),BACKFIN  Null line
 002D44 5010 8028            00000 20337                       ST    R1,BACKPTR          Save input line ptr
 002D48 06F0/44F0 71A2_            20338                       DEX   R15,'TRT @R1(0),BACKTBL'
 002D4E 4780 7178            02EAE 20357                       BZ    BACKFIN             No backspaces
                                   20358
 002D52 D7EA 802C 802C 00004 00004 20359                       CLEAR BACKINDX            Init char/col table
 002D58 5850 8028            00000 20366                       L     R5,BACKPTR          Text loc
 002D5C 1840                       20367                       LR    R4,R0               Len
 002D5E 4130 802C            00004 20368                       LA    R3,BACKINDX         Start of index map
 002D62 4120 0001            00001 20369                       LA    R2,1                Starting at col 1
 002D66 9516 5000/4770_00000       20370              BACKLP   IF    (@R5,EQ,X'16'),'DECR R2'  Backspace
 002D70 703E/47F0 7058 02D70 02D6C 20394                       ELSE  BEGIN
 002D74 9540 5000/4780_00000       20405  1                      IF    (@R5,NE,' '),BEGIN  Non-blank char...
 002D7C 4220 3000            00000 20421  2                        STC   R2,@R3              Save column for this char
 002D80 1222/47B0 7054_            20422  2                        IF    (R2,NEG),'MVI @R3,0'  Backspaced too far
 002D8A                            20442  1                      END
 002D8A 5A20 C4D0            004D0 20446  1                      A     R2,CVONE            Next column
 002D8E                            20447                       END
 002D8E 4130 3001            00001 20451                       LA    R3,@R3+1            Next pos in the column table
 002D92 4150 5001            00001 20452                       LA    R5,@R5+1            Next char
 002D96 4640 7030            02D66 20453                       BCT   R4,BACKLP
                                   20454
 002D9A D2EA 8117 C4D8 000EF 004D8 20455              BACKRTRY MVC   BACKLINE,CVBLANKS
 002DA0 4150 802C            00004 20456                       LA    R5,BACKINDX
 002DA4 4140 00EB            000EB 20457                       LA    R4,L'BACKINDX
 002DA8 5830 8028            00000 20458                       L     R3,BACKPTR          Original line ptr
 002DAC 1B22                       20459                       CLEAR R2                  For "ic" in loop
1RJE      (RJE4072) (12:53) (15MAR04) PRINT/PUNCH Commands                                                                  Page   48
0Current Usings:  (RJEWA,R6) (*,R7) (BACKWA-(4+36),R8) (CP,R11) (CV,R12)
0Loc    Object Code    Addr1 Addr2  Stmt Lv Lineno    Source Statement           (Hibal 5, Asmedit 3.3)  HLASM R4.0  2004/03/15 12.53
+___    ______ ____    _____ _____  ____ __ ______    ______ _________
0002DAE 4320 5000            00000 20463              BACKPLP  IC    R2,@R5              Got col no of char
 002DB2 1222/4780 7098             20464                       IF    (R2,NZ),BEGIN       Have char...
 002DB8 41F2 8116            000EE 20478  1                      LA    R15,BACKLINE-1(R2)  Addr of char position
 002DBC 9540 F000/4770_00000       20479  1                      IF    (@R15,EQ,' '),BEGIN  Put char on this line...
 002DC4 D200 F000 3000 00000 00000 20495  2                        MVC   @R15(1),@R3            Move char
 002DCA 9200 5000      00000       20496  2                        MVI   @R5,0               Mark char as processed
 002DCE                            20497  1                      END
 002DCE                            20501                       END
 002DCE 4130 3001            00001 20505                       LA    R3,@R3+1            Next char
 002DD2 4150 5001            00001 20506                       LA    R5,@R5+1            Next col entry
 002DD6 4640 7078            02DAE 20507                       BCT   R4,BACKPLP
                                   20508
 002DDA D6EA 802C 802C_00004 00004 20509                       IF    (BACKINDX,NZ),BEGIN  another pass will be needed...
 002DE4 D213 8208 C4D8 001E0 004D8 20525  1                      MVC   BACKCONT,CVBLANKS
 002DEA D203 8204 643C 001DC 0043C 20526  1                      MVC   BACKCLENF,RJESGLENF
 002DF0 924E 8208      001E0       20527  1                      MVI   BACKCONT,C'+'       "no space" cc char
 002DF4 9120 6003/47E0_00003       20528  1                      IF    RJEFMC,BEGIN        MC style...
 002DFC 5810 6450            00450 20543  2                        L     R1,RJESGLOC
 002E00 D200 8208 1000 001E0 00000 20544  2                        MVC   BACKCONT(1),@R1     Put users mc char in next line
 002E06 9201 1000      00000       20545  2                        MVI   @R1,X'01'           "write no space" on first line
 002E0A                            20546  1                      END
 002E0A 9110 6002/47E0_00002       20550  1                      IF    RJEFTRC,'L R1,RJESGLOC; MVC BACKCONT+1(1),@R1+1'
 002E1C 4110 8117/4100_      000EF 20572  1                      SEGT  BACKLINE            Write current line
                                   20600  1
 002E2E 4840 636C            0036C 20601  1                      LH    R4,RJEDARK          Dark count
 002E32 5940 7196/47D0_      02ECC 20602  1                      IF    (R4,GT,1),BEGIN     Must overprint line...
 002E3A 5830 643C            0043C 20619  2                        L     R3,RJESGLENF        Current buffer len
 002E3E 4320 646C            0046C 20620  2                        IC    R2,RJESGBUF         CC/MC char
 002E42 9120 6003/47E0_00003       20621  2                        IF    RJEFMC,'MVI RJESGBUF,X"01"'  Write no space
 002E4E 0640                       20642  2                        DECR  R4
 002E50 1244/47D0 7142             20644  2                        WHILE (R4,POS),BEGIN
 002E56 1B00/41F0 6430_            20660  3                          SEGWR
 002E62 9120 6003/4710_00003       20684  3                          IF    ~RJEFMC,'MVI RJESGBUF,C"+"'
 002E6E 5030 643C            0043C 20705  3                          ST    R3,RJESGLENF        Restore seg buffer
 002E72 0640                       20706  3                          DECR  R4
 002E74 47F0 711A            02E50 20708  2                        END
 002E78 9120 6003/47E0_00003       20713  2                        IF    RJEFMC,'STC R2,RJESGBUF'  Orig MC char
 002E84                            20734  1                      END
 002E84 1B00/41F0 6430_            20738  1                      SEGWR
 002E90 4110 8208/5800_      001E0 20762  1                      SEG   BACKCONT,L:BACKCLENF
 002EA2 47F0 7064            02D9A 20789  1                      B     BACKRTRY
 002EA6                            20790                       END
                                   20794
 002EA6 4110 8117/4100_      000EF 20795                       SETMSG BACKLINE            Final line
 002EAE 41F0 6430/58E0_      00430 20809              BACKFIN  SEGT  (R1),(R0)
 002EB8 18D8/9808 D004_            20834                       PEND
 DROP   BACKWA-(4+36),R8
 DROP   *,R7
                                   20859
                                   20860                       QLTORG
                                   20876
 002EDE 0000000000000000           20877              BACKTBL  DC    XL256'00'
 002FDE                02FDE 02EF4 20878                       ORG   BACKTBL+X'16'
 002EF4 FF                         20879                       DC    X'FF'
1RJE      (RJE4072) (12:53) (15MAR04) PRINT/PUNCH Commands                                                                  Page   49
0Current Usings:  (RJEWA,R6) (CP,R11) (CV,R12)
0Loc    Object Code    Addr1 Addr2  Stmt Lv Lineno    Source Statement           (Hibal 5, Asmedit 3.3)  HLASM R4.0  2004/03/15 12.53
+___    ______ ____    _____ _____  ____ __ ______    ______ _________
0002EF5                02EF5 02FDE 20880                       ORG
1RJE      (RJE4072) (12:53) (15MAR04) PRINT/PUNCH Commands                                                                  Page   50
0Current Usings:  (RJEWA,R6) (CP,R11) (CV,R12)
0Loc    Object Code    Addr1 Addr2  Stmt Lv Lineno    Source Statement           (Hibal 5, Asmedit 3.3)  HLASM R4.0  2004/03/15 12.53
+___    ______ ____    _____ _____  ____ __ ______    ______ _________
0000000                00000 00008 20882              HEXWA    RECORD BEGIN
 000000                            20890  1           HEXWORK    DS    XL8
 000008                00008 00008 20891                       END
-                                  20901              ¿þþþþþþþþþþþþþþþþþþþþþþþþþþþþþþþþþþþþþþþþþþþþþþþþþþþþþþþþþþþþþþþþþþþþþÜ
                                   20902              Ÿ                                                                     Ÿ
                                   20903              Ÿ  HEXSEG -- Routine to seg line in hex format.                       Ÿ
                                   20904              Ÿ                                                                     Ÿ
                                   20905              Ÿ    On entry:  R1,R0 - line loc,len                                  Ÿ
                                   20906              Ÿ               R15 - amount to indent continuation lines             Ÿ
                                   20907              Ÿ                                                                     Ÿ
                                                      ¾þþþþþþþþþþþþþþþþþþþþþþþþþþþþþþþþþþþþþþþþþþþþþþþþþþþþþþþþþþþþþþþþþþþþþ»
0002FDE 50E0 D000/9008_      00000 20908              HEXSEG   PROC  HEXWA
 USING  *,R7
 USING  HEXWA-(4+36),R8
                                   20958
 002FF8 1830                       20959                       LR    R3,R0
 002FFA 1841                       20960                       LR    R4,R1
 002FFC 185F                       20961                       LR    R5,R15
                                   20962
 002FFE 1233/47D0 708A             20963                       WHILE (R3,POS),BEGIN
 003004 58F0 4000/4100_      00000 20979  1                      BTX   HEXWORK,,L:@R4
 003016 1803                       21000  1                      LR    R0,R3
 003018 5900 7DFC/47D0_      03DF4 21001  1                      CEIL  R0,4
 003024 1A00                       21020  1                      AR    R0,R0
 003026 48F0 6368/12FF       00368 21021  1                      LTH   R15,RJEIND
 00302C 47B0 703A/1BFF       03032 21025  1                      IF    NEG,'CLEAR R15'
 003032 1AF0                       21045  1                      AR    R15,R0
 003034 5AF0 643C            0043C 21046  1                      A     R15,RJESGLENF
 003038 59F0 7E00/47D0_      03DF8 21047  1                      IF    (R15,GT,120),BEGIN
 003040 9001 D000/41D0_      00000 21064  2                        XPUSH R0,R1
 003048 1B00/41F0 6430_            21067  2                        SEGWR
 003054 4110 C4D8/1805_      004D8 21091  2                        SEG   CVBLANKS,(R5)       Indent
 003064 4BD0 7E40/9801_      03E38 21118  2                        XPOP  R0,R1
 00306C                            21121  1                      END
 00306C 41F0 6430/58E0_      00430 21125  1                      SEGB  (R1),(R0)
 003076 4140 4004            00004 21149  1                      LA    R4,@R4+4
 00307A 4B30 7E42            03E3A 21150  1                      SH    R3,=H'4'
 00307E 47F0 7006            02FFE 21151                       END
 003082 1B00/41F0 6430_            21156                       SEGWR
 00308E 18D8/9808 D004_            21180                       PEND
 DROP   HEXWA-(4+36),R8
 DROP   *,R7
1RJE      (RJE4072) (12:53) (15MAR04) PRINT/PUNCH Commands                                                                  Page   51
0Current Usings:  (RJEWA,R6) (CP,R11) (CV,R12)
0Loc    Object Code    Addr1 Addr2  Stmt Lv Lineno    Source Statement           (Hibal 5, Asmedit 3.3)  HLASM R4.0  2004/03/15 12.53
+___    ______ ____    _____ _____  ____ __ ______    ______ _________
0                                  21206              ¿þþþþþþþþþþþþþþþþþþþþþþþþþþþþþþþþþþþþþþþþþþþþþþþþþþþþþþþþþþþþþþþþþþþþþÜ
                                   21207              Ÿ                                                                     Ÿ
                                   21208              Ÿ  MIXSEG -- Routine to seg line in mixed EBCDIC and HEX              Ÿ
                                   21209              Ÿ    format.                                                          Ÿ
                                   21210              Ÿ                                                                     Ÿ
                                   21211              Ÿ    On entry:                                                        Ÿ
                                   21212              Ÿ      R1, R0 - line loc, len                                         Ÿ
                                   21213              Ÿ                                                                     Ÿ
                                                      ¾þþþþþþþþþþþþþþþþþþþþþþþþþþþþþþþþþþþþþþþþþþþþþþþþþþþþþþþþþþþþþþþþþþþþþ»
000309C 50E0 D000/9008_      00000 21214              MIXSEG   PROC
 USING  *,R7
 0030B6 58E0 7D52/0DEE       03E08 21253                       VCALL MIXFMT
 0030BC 5810 B070/5800_      00070 21257                       SEGWR L:CPSEGLOC,L:CPSEGLENF
 0030CE 41F0 B050/58E0_      00050 21283                       TCLEAR
 0030D8 18D8/9808 D004_            21297                       PEND
 DROP   *,R7
1RJE      (RJE4072) (12:53) (15MAR04) PRINT/PUNCH Commands                                                                  Page   52
0Current Usings:  (RJEWA,R6) (CP,R11) (CV,R12)
0Loc    Object Code    Addr1 Addr2  Stmt Lv Lineno    Source Statement           (Hibal 5, Asmedit 3.3)  HLASM R4.0  2004/03/15 12.53
+___    ______ ____    _____ _____  ____ __ ______    ______ _________
00030E8 C6D9D6D440404040_          21318              PRINTPRF SCKW  FROM,V(FNAMESCN),A
 003110 C6D6D9D4E2404040_          21333                       SCKW  FORMS,FORMS,(A,P)   Dup--ahead of "FNAMEPSH" table
 003138 4040404040404040_          21348                       SCKW  ,V(RNUMPSH),PUSH    Unn--ahead of "FNAMEPSH" table
 003160 E4D5C6D6D9D4C1E3_          21363                       SCKW  UNFORMATTED,PUFMT,A Unf--ahead of "FNAMEPSH" table
 003188 D5D6E2C5D7C1D9C1_          21378                       SCKW  NOSEPARATOR,NOSEP,A Nos--ahead of "FNAMEPSH" table
 0031B0 4040404040404040_          21393                       SCKW  ,V(FNAMPSHF),PUSH
                                   21408
 0031D8 C1C3E3C9E5C54040_          21409              PRINTPRT SCKW  ACTIVE,V(SCNNOOP),A           (handled elsewhere)
 003200 C5E7C5C3E4E3C540_          21424                       SCKW  EXECUTE,V(SCNNOOP),A          (handled elsewhere)
 003228 E3C9E3D3C5404040_          21439                       SCKW  TITLE,PTITLE,(A,P)
 003250 C8C5C1C4C5D94040_          21454                       SCKW  HEADER,PHEADER,(A,P)
 003278 E2E4C2D1C5C3E340_          21469                       SCKW  SUBJECT,PHEADER,(A,P)
 0032A0 D9C5C3C9D7C9C5D5_          21484                       SCKW  RECIPIENT,PFAXRCPT,(A,P)
 0032C8 C1E4E3C840404040_          21499                       SCKW  AUTH,PFAXAUTH,(A,P)
 0032F0 C5D4C1C9D3404040_          21514                       SCKW  EMAIL,PFAXEM,(P)
 003318 D5D6D7D9D6D4D7E3_          21529                       SCKW  NOPROMPT,V(SCNNOOP)
 003340 D4C1D9D2C5D94040_          21544                       SCKW  MARKER,PMARKER,(A,P)
 003368 C3C3404040404040_          21559                       SCKW  CC,PCC
 003390 D4C3404040404040_          21574                       SCKW  MC,PCC
 0033B8 D5D6C3C340404040_          21589                       SCKW  NOCC,PNOCC
 0033E0 D5D6D4C340404040_          21604                       SCKW  NOMC,PNOCC
 003408 C4D6E4C2D3C54040_          21619                       SCKW  DOUBLE,PDOUBLE,A
 003430 E3D9C9D7D3C54040_          21634                       SCKW  TRIPLE,PDOUBLE,A
 003458 C8C5E74040404040_          21649                       SCKW  HEX,PHEX
 003480 D4C9E7C5C4404040_          21664                       SCKW  MIXED,PMIXED,A
 0034A8 C2C1C3D240404040_          21679                       SCKW  BACK,PBACK,A
 0034D0 D5D6C2C1C3D24040_          21694                       SCKW  NOBACK,PNOBACK,A
 0034F8 E4D5C6D6D9D4C1E3_          21709                       SCKW  UNFORMATTED,PUFMT,A
 003520 D4C5D4D640404040_          21724                       SCKW  MEMO,PMEMO,A
 003548 C4D6C3E4D4C5D5E3_          21739                       SCKW  DOCUMENT,PDOC,A
 003570 C4C1D9D240404040_          21754                       SCKW  DARK,PDARK,A
 003598 4040404040404040_          21769                       SCKW  ,V(LISTPSH),PUSH
 0035C0 4040404040404040_          21784                       SCKW  ,V(TEXTPSH),PUSH
 0035E8 4040404040404040_          21799                       SCKW  ,V(RNUMPSH),PUSH
 003610 4040404040404040_          21814                       SCKW  ,V(COLSPSH),PUSH
 003638 4040404040404040_          21829                       SCKW  ,RJEPSH,PUSH
 003660 4040404040404040_          21844                       SCKW  ,V(COLLPSH),PUSH
 003688 4040404040404040_          21859                       SCKW  ,V(QUIETPSH),PUSH
 0036B0 C6D6D9D4C1E3E3C5_          21874                       SCKW  FORMATTED,PFMT,A    (Must come after FORMS=)
 0036D8 4040404040404040_          21889                       SCKW  ,UNREC
1RJE      (RJE4072) (12:53) (15MAR04) PRINT/PUNCH Commands                                                                  Page   53
0Current Usings:  (RJEWA,R6) (CP,R11) (CV,R12)
0Loc    Object Code    Addr1 Addr2  Stmt Lv Lineno    Source Statement           (Hibal 5, Asmedit 3.3)  HLASM R4.0  2004/03/15 12.53
+___    ______ ____    _____ _____  ____ __ ______    ______ _________
0                                  21905              *
 003700 50E0 D000/9008_      00000 21906              UNREC    PROC
 USING  *,R7
 00371A 957D 1000/4780_00000       21945                       IF    ((@R1,EQ,''''),OR,(@R1,EQ,'"')),BEGIN
 00372A 4110 767E/4100_      03D98 21976  1                      TSEG  'Use TITLE=''title'' option instead of just',,B
 00373C 4110 7724/4100_      03E3E 21994  1                      TSEG  'specifying ''title''.',,WR
 00374E 47F0 C7EA            007EA 22012  1                      B     CVNOACTN
 003752                            22013                       END
 003752 954D 1000/4770_00000       22017                       IF    (@R1,EQ,'('),BEGIN
 00375A 4110 76A6/4100_      03DC0 22033  1                      TSEG  'Use INDENT=n option instead of specifying "(n)".',,WR
 00376C 47F0 C7EA            007EA 22051  1                      B     CVNOACTN
 003770                            22052                       END
 003770 58E0 76F6/0DEE       03E10 22056                       VCALL SCNINVAL
 003776 18D8/9808 D004_            22060                       PEND  ,
 DROP   *,R7
                                   22080
 003784 50E0 D000/9008_      00000 22081              PTITLE   PROC  ,
 USING  *,R7
 00379E 9140 6007/47E0_00007       22120                       IF    (~RJEFOSCN,OR,(RJETITLE,Z)),BEGIN
 0037B0 D27F 606A C4D8 0006A 004D8 22150  1                      MVC   RJETITLE,CVBLANKS
 0037B6 58E0 7676/0DEE       03E14 22151  1                      VCALL DEQUOTE
 0037BC 47B0 7028/58E0_      037C6 22155  1                      IF    M,'VCALL NOTVALID'
 0037C6 5900 767E/47D0_      03E1C 22175  1                      CEIL  R0,L'RJETITLE
 0037D2 18F0                       22194  1                      LR    R15,R0
 0037D4 06F0/12FF/4740_            22195  1                      MOVE  R15,RJETITLE,@R1
 0037E0                            22233                       END
 0037E0 1BFF                       22237                       CLEAR R15
 0037E2 18D8/9808 D004_            22241                       PEND
 DROP   *,R7
                                   22261
 0037F0 50E0 D000/9008_      00000 22262              PHEADER  PROC
 USING  *,R7
 00380A 9140 6007/47E0_00007       22301                       IF    (~RJEFOSCN,OR,(RJEHEAD,Z)),BEGIN
 00381C D27F 60EA C4D8 000EA 004D8 22331  1                      MVC   RJEHEADL,CVBLANKS
 003822 58E0 760A/0DEE       03E14 22332  1                      VCALL DEQUOTE
 003828 47B0 7028/58E0_      03832 22336  1                      IF    M,'VCALL NOTVALID'
 003832 5900 7616/47D0_      03E20 22356  1                      CEIL  R0,L'RJEHEADL
 00383E 18F0                       22375  1                      LR    R15,R0
 003840 06F0/12FF/4740_            22376  1                      MOVE  R15,RJEHEADL,@R1
 00384C                            22414                       END
 00384C 1BFF                       22418                       CLEAR R15
 00384E 18D8/9808 D004_            22422                       PEND
 DROP   *,R7
                                   22442
 00385C 50E0 D000/9008_      00000 22443              PFAXRCPT PROC
 USING  *,R7
 003876 9140 6007/47E0_00007       22482                       IF    (~RJEFOSCN,OR,(RJEFXRCP,Z)),BEGIN
 003888 58F0 B08C/4110_      0008C 22512  1                      SCDQUOTE RJEFXRCP
 00389A                            22533                       END
 00389A 1BFF                       22537                       CLEAR R15
 00389C 18D8/9808 D004_            22541                       PEND
 DROP   *,R7
                                   22561
 0038AA 50E0 D000/9008_      00000 22562              PFAXAUTH PROC
1RJE      (RJE4072) (12:53) (15MAR04) PRINT/PUNCH Commands                                                                  Page   54
0Current Usings:  (RJEWA,R6) (*,R7) (CP,R11) (CV,R12)
0Loc    Object Code    Addr1 Addr2  Stmt Lv Lineno    Source Statement           (Hibal 5, Asmedit 3.3)  HLASM R4.0  2004/03/15 12.53
+___    ______ ____    _____ _____  ____ __ ______    ______ _________
0USING  *,R7
 0038C4 9140 6007/47E0_00007       22601                       IF    (~RJEFOSCN,OR,(RJEFXAUT,Z)),BEGIN
 0038D6 58F0 B08C/4110_      0008C 22631  1                      SCDQUOTE RJEFXAUT
 0038E8                            22652                       END
 0038E8 1BFF                       22656                       CLEAR R15
 0038EA 18D8/9808 D004_            22660                       PEND
 DROP   *,R7
                                   22680
 0038F8 50E0 D000/9008_      00000 22681              PFAXEM   PROC
 USING  *,R7
 003912 9140 6007/47E0_00007       22720                       IF    (~RJEFOSCN,OR,(RJEFXNOT,Z)),BEGIN
 003924 58F0 B08C/4110_      0008C 22750  1                      SCDQUOTE RJEFXNOT
 003936                            22771                       END
 003936 1BFF                       22775                       CLEAR R15
 003938 18D8/9808 D004_            22779                       PEND
 DROP   *,R7
                                   22799
 003946 50E0 D000/9008_      00000 22800              PMARKER  PROC
 USING  *,R7
 003960 9140 6007/47E0_00007       22839                       IF    (~RJEFOSCN,OR,(RJEMARK,Z)),BEGIN
 003970 957D 1000/4770_00000       22869  1                      IF    (((@R1,EQ,''''),AND,(R0,EQ,3)),OR,(R0,EQ,1)),BEGIN
 003988 58F0 B08C/4110_      0008C 22917  2                        SCDQUOTE RJEMARK
 00399A                            22938  1                      END
 00399A 703E/47F0 7044 0399A 03986 22942  1                      ELSE  BEGIN
 00399E 58E0 74B8/0DEE       03E18 22953  2                        VCALL NOTVALID
 0039A4                            22957  1                      END
 0039A4                            22961                       END
 0039A4 1BFF                       22965                       CLEAR R15
 0039A6 18D8/9808 D004_            22969                       PEND
 DROP   *,R7
                                   22989
 0039B4 50E0 D000/9008_      00000 22990              PHEX     PROC  ,
 USING  *,R7
 0039CE 9620 6004      00004       23029                       SET   RJEFHEX
 0039D2 18D8/9808 D004_            23035                       PEND
 DROP   *,R7
                                   23055
 0039E0 50E0 D000/9008_      00000 23056              PMIXED   PROC
 USING  *,R7
 0039FA 9610 6004      00004       23095                       SET   RJEFMIX
 0039FE 18D8/9808 D004_            23101                       PEND  ,
 DROP   *,R7
                                   23121
 003A0C 50E0 D000/9008_      00000 23122              PCC      PROC
 USING  *,R7
 003A26 5810 B08C/4111_      0008C 23161                       SCUPTOK (R1)
 003A2E 9140 6007/47E0_00007       23165                       IF    (~RJEFOSCN,OR,~RJEFCCS),BEGIN
 003A3E 9680 6003      00003       23194  1                      SET   RJEFCCS
 003A42 9640 6003/94DF_00003       23200  1                      SET   RJEFCC,(RJEFMC,OFF)                    cc
 003A4A 95D4 1000/4770_00000       23211  1                      IF    (@R1,EQ,'M'),'FLIP RJEFCC+RJEFMC'      mc
 003A56                            23241                       END
 003A56 1BFF                       23245                       CLEAR R15
 003A58 18D8/9808 D004_            23249                       PEND
 DROP   *,R7
1RJE      (RJE4072) (12:53) (15MAR04) PRINT/PUNCH Commands                                                                  Page   55
0Current Usings:  (RJEWA,R6) (CP,R11) (CV,R12)
0Loc    Object Code    Addr1 Addr2  Stmt Lv Lineno    Source Statement           (Hibal 5, Asmedit 3.3)  HLASM R4.0  2004/03/15 12.53
+___    ______ ____    _____ _____  ____ __ ______    ______ _________
0                                  23269
 003A66 50E0 D000/9008_      00000 23270              PNOCC    PROC  ,
 USING  *,R7
 003A80 9140 6007/47E0_00007       23309                       IF    (~RJEFOSCN,OR,~RJEFCCS),BEGIN
 003A90 9680 6003      00003       23338  1                      SET   RJEFCCS
 003A94 949F 6003      00003       23344  1                      CLEAR RJEFCC+RJEFMC
 003A98                            23354                       END
 003A98 1BFF                       23358                       CLEAR R15
 003A9A 18D8/9808 D004_            23362                       PEND
 DROP   *,R7
                                   23382
 003AA8 50E0 D000/9008_      00000 23383              PDOUBLE  PROC
 USING  *,R7
 003AC2 5810 B08C/4111_      0008C 23422                       SCUPTOK (R1)
 003ACA 9140 6007/47E0_00007       23426                       IF    (~RJEFOSCN,OR,(RJEFDOUB+RJEFTRIP,Z)),BEGIN
 003ADA 9604 6003/94FD_00003       23460  1                      SET   RJEFDOUB,(RJEFTRIP,OFF)                double
 003AE2 95E3 1000/4770_00000       23471  1                      IF    (@R1,EQ,'T'),'FLIP RJEFDOUB+RJEFTRIP'  triple
 003AEE                            23501                       END
 003AEE 1BFF                       23505                       CLEAR R15
 003AF0 18D8/9808 D004_            23509                       PEND
 DROP   *,R7
                                   23529
 003AFE 50E0 D000/9008_      00000 23530              PBACK    PROC  ,
 USING  *,R7
 003B18 9610 6003      00003       23569                       SET   RJEFBACK
 003B1C 18D8/9808 D004_            23575                       PEND
 DROP   *,R7
                                   23595
 003B2A 50E0 D000/9008_      00000 23596              PNOBACK  PROC  ,
 USING  *,R7
 003B44 94EF 6003      00003       23635                       CLEAR RJEFBACK
 003B48 18D8/9808 D004_            23642                       PEND
 DROP   *,R7
                                   23662
 003B56 50E0 D000/9008_      00000 23663              PFMT     PROC  ,
 USING  *,R7
 003B70 9608 6003      00003       23702                       SET   RJEFFMT
 003B74 18D8/9808 D004_            23708                       PEND
 DROP   *,R7
                                   23728
 003B82 50E0 D000/9008_      00000 23729              PUFMT    PROC  ,
 USING  *,R7
 003B9C 94F7 6003      00003       23768                       CLEAR RJEFFMT
 003BA0 18D8/9808 D004_            23775                       PEND
 DROP   *,R7
                                   23795
 003BAE 50E0 D000/9008_      00000 23796              PMEMO    PROC  ,
 USING  *,R7
 003BC8 9640 6004      00004       23835                       SET   RJEFMEMO
 003BCC 9680 6004      00004       23841                       SET   RJEFDOC
 003BD0 18D8/9808 D004_            23847                       PEND
 DROP   *,R7
                                   23867
 003BDE 50E0 D000/9008_      00000 23868              PDOC     PROC  ,
1RJE      (RJE4072) (12:53) (15MAR04) PRINT/PUNCH Commands                                                                  Page   56
0Current Usings:  (RJEWA,R6) (*,R7) (CP,R11) (CV,R12)
0Loc    Object Code    Addr1 Addr2  Stmt Lv Lineno    Source Statement           (Hibal 5, Asmedit 3.3)  HLASM R4.0  2004/03/15 12.53
+___    ______ ____    _____ _____  ____ __ ______    ______ _________
0USING  *,R7
 003BF8 9680 6004      00004       23907                       SET   RJEFDOC
 003BFC 18D8/9808 D004_            23913                       PEND
 DROP   *,R7
                                   23933
 003C0A 50E0 D000/9008_      00000 23934              PDARK    PROC
 USING  *,R7
 003C24 4140 0002            00002 23973                       LA    R4,2                Assume dark=2
 003C28 5810 B08C/1B00_      0008C 23974                       SCAN  PDARKPRT
 003C7A 59F0 71D0/4780_      03DF4 24006                       IF    (R15,NE,4),BEGIN
 003C82 58E0 B08C/58FE_      0008C 24023  1                      SCBKUP
 003CB8                            24079                       END
 003CB8 7098/47F0 70AE 03CB8 03C80 24083                       ELSE  BEGIN
 003CBC 9140 6007/47E0_00007       24094  1                      IF    (~RJEFOSCN,OR,(RJEDARK,Z)),'STH R4,RJEDARK'
 003CD2                            24130                       END
 003CD2 1BFF                       24134                       CLEAR R15
 003CD4 18D8/9808 D004_            24138                       PEND
 DROP   *,R7
                                   24158
 003CE4 4040404040404040_          24159              PDARKPRT SCKW  ,PDARKCNT,PI,5
 003D0C 4040404040404040_          24174                       SCKW  ,PDARKRST
                                   24189
 003D34 50E0 D000/9008_      00000 24190              PDARKCNT PROC
 USING  *,R7
 003D4E 1840                       24229                       LR    R4,R0
 003D50 5048 0014            00014 24230                       PRETURN (R4)
 003D54 41F0 0004            00004 24232                       LA    R15,4
 003D58 18D8/9808 D004_            24233                       PEND
 DROP   *,R7
                                   24253
 003D66 50E0 D000/9008_      00000 24254              PDARKRST PROC  ,
 USING  *,R7
 003D80 41F0 0008            00008 24293                       LA    R15,8
 003D84 18D8/9808 D004_            24294                       PEND
 DROP   *,R7
                                   24314
                                   24315                       QLTORG
1RJE      (RJE4072) (12:53) (15MAR04) PRINT/PUNCH Commands                                                                  Page   57
0Current Usings:  (RJEWA,R6) (CP,R11) (CV,R12)
0Loc    Object Code    Addr1 Addr2  Stmt Lv Lineno    Source Statement           (Hibal 5, Asmedit 3.3)  HLASM R4.0  2004/03/15 12.53
+___    ______ ____    _____ _____  ____ __ ______    ______ _________
0                                  24352              ¿þþþþþþþþþþþþþþþþþþþþþþþþþþþþþþþþþþþþþþþþþþþþþþþþþþþþþþþþþþþþþþþþþþþþþÜ
                                   24353              Ÿ                                                                     Ÿ
                                   24354              Ÿ  OPTLINE -- Routine to format options used on a /*COMMENT card.     Ÿ
                                   24355              Ÿ                                                                     Ÿ
                                                      ¾þþþþþþþþþþþþþþþþþþþþþþþþþþþþþþþþþþþþþþþþþþþþþþþþþþþþþþþþþþþþþþþþþþþþþ»
0003E5E 50E0 D000/9008_      00000 24356              OPTLINE  PROC
 USING  *,R7
 003E78 9620 63F5      003F5       24395                       SET   RJEFCTRL            Sending control cards
                                   24401
 003E7C 4110 79B6/4100_      0482E 24402                       SEGB  '/*COMMENT'
                                   24420                       AIF   (NOT &JESMAIL).JMAILD
 003E8E 9503 6000/4770_00000       24421                       IF    RJECFMAI,'SEGB "(MAIL)"'
                                   24459              .JMAILD  ANOP
 003EA8 4110 79BF/4100_      04837 24460                       SETMSG 'PRINT'
 003EB0 9502 6000/4770_00000       24464                       IF    RJECFPUN,'SETMSG "PUNCH"'
 003EC0 41F0 6430/58E0_      00430 24488                       SEGB  (R1),(R0)
 003ECA D67F 6375 6375_00375 00375 24512                       IF    (RJETO,NZ),'SEGB "TO"; SEGTB RJETO'
 003EF8 9503 BD89/4770_00D89       24579                       IF    CPFRDEXT,BEGIN  External...
 003F00 58E0 7910/0DEE       04788 24594  1                      VCALL NRESOLVE
 003F06 4110 7914/4100_      0478C 24598  1                      SEGB  'FROM'
 003F18 5830 BE54            00E54 24616  1                      L     R3,CPFINFOP
 USING  FFINFO,R3                  24617  1                      USING FFINFO,R3
 003F1C 4110 3218/5800_      00218 24626  1                      SEG   FFRNAME,L:FFRNAMEL
 003F2E D503 78DC 308C_04754 0008C 24653  1                      IF    (FFHOSTL,NE,0),BEGIN
 003F38 4110 791C/4100_      04794 24671  2                        SEG   ' ON '
 003F4A 4110 3090/5800_      00090 24688  2                        SEG   FFHOST,L:FFHOSTL
 003F5C                            24715  1                      END
 003F5C 4110 79C9/4100_      04841 24719  1                      SEG   ' '
 DROP   FFINFO,R3                  24736  1                      DROP  R3
 003F6E                            24743                       END
 003F6E 70FA/47F0 7114_03F6E 03EFE 24747                       ELSEIF CPFRDEXE,'SEGB "EXEC"'
 003F8C 9120 6004/47E0_00004       24794                       IF    RJEFHEX,'SEGB "HEX"'
 003FA6 7132/47F0 714C_03FA6 03F92 24832                       ELSEIF RJEFMIX,'SEGB "MIXED"'
 003FC4 9108 6003/4710_00003       24879                       IF    ~RJEFFMT,BEGIN
 003FCC D505 7958 6018_047D0 00018 24894  1                      IF    (RJEPFORM,EQ,'POST  '),EXIT
 003FD6 4110 79D2/4100_      0484A 24914  1                      SEGB  'UNFORMATTED'
 003FE8                            24932                       END
 003FE8 D607 6037 6037_00037 00037 24936                       IF    (RJEDEST,NZ),BEGIN
 003FF2 4110 79DD/4100_      04855 24952  1                      SEG   'DEST='
 004004 4110 6037/4100_      00037 24969  1                      SEGTB RJEDEST
 004016                            24997                       END
 004016 9180 6004/47E0_00004       25001                       IF    RJEFDOC,BEGIN
 00401E 4110 78E0/4100_      04758 25016  1                      SETMSG 'DOCUMENT'
 004026 9140 6004/47E0_00004       25020  1                      IF    RJEFMEMO,'SETMSG "MEMO"'
 004036 41F0 6430/58E0_      00430 25044  1                      SEGB  (R1),(R0)
 004040 D503 7928 6042_047A0 00042 25068  1                      IF    (RJEFORMS,NE,'&DOCFORM'),'SEG "FORMS="; SEGTB RJEFORMS'
 00406E 95C1 6013/4780_00013       25135  1                      IF    (RJESYSCL,NE,'&DOCCLAS'),'SEG "SYSOUT="; SEG RJESYSCL'
 00409A 9140 6004/47E0_00004       25201  1                      IF    RJEFMEMO,BEGIN
 0040A2 D503 7924 604A_0479C 0004A 25216  2                        IF    (RJEFLASH,NE,'MEMO'),'SEG "FLASH="; SEGTB RJEFLASH'
 0040D0 D503 792C 604E_047A4 0004E 25283  2                        IF    (RJEFCB,NE,'MEM6'),'SEG "FCB="; SEGTB RJEFCB'
 0040FE                            25350  1                      END
 0040FE 728A/47F0 72E6 040FE 040A0 25354  1                      ELSE  BEGIN
 004102 D603 604A 604A_0004A 0004A 25365  2                        IF    (RJEFLASH,NZ),'SEG "FLASH="; SEGTB RJEFLASH'
1RJE      (RJE4072) (12:53) (15MAR04) PRINT/PUNCH Commands                                                                  Page   58
0Current Usings:  (RJEWA,R6) (*,R7) (CP,R11) (CV,R12)
0Loc    Object Code    Addr1 Addr2  Stmt Lv Lineno    Source Statement           (Hibal 5, Asmedit 3.3)  HLASM R4.0  2004/03/15 12.53
+___    ______ ____    _____ _____  ____ __ ______    ______ _________
0004130 D603 604E 604E_0004E 0004E 25431  2                        IF    (RJEFCB,NZ),'SEG "FCB="; SEGTB RJEFCB'
 00415E                            25497  1                      END
 00415E                            25501                       END
 00415E 72EA/47F0 73E4 0415E 0401C 25505                       ELSE  BEGIN
 004162 D607 6042 6042_00042 00042 25516  1                      IF    (RJEFORMS,NZ),'SEG "FORMS="; SEGTB RJEFORMS'
 004190 9500 6013/4780_00013       25582  1                      IF    (RJESYSCL,NZ),BEGIN
 004198 95C1 6013/4780_00013       25598  2                        IF    (RJESYSCL,EQ,'&STDCLAS'),EXIT
 0041A0 95C1 6013/4770_00013       25618  2                        IF    (RJESYSCL,EQ,'&DOCCLAS'),'SEGB "UPLOW"'
 0041BA 7346/47F0 7360_041BA 041A6 25658  2                        ELSEIF (RJESYSCL,EQ,'&FICCLAS'),'SEGB "FICHE"'
 0041D8 7364/47F0 7388_041D8 041C4 25707  2                        ELSE  'SEG "SYSOUT="; SEGB RJESYSCL'
 004200                            25768  1                      END
 004200 D603 604A 604A_0004A 0004A 25772  1                      IF    (RJEFLASH,NZ),'SEG "FLASH="; SEGTB RJEFLASH'
 00422E D603 604E 604E_0004E 0004E 25838  1                      IF    (RJEFCB,NZ),'SEG "FCB="; SEGTB RJEFCB'
 00425C                            25904                       END
                                   25908
 00425C D605 6018 6018_00018 00018 25909                       IF    (RJEPFORM,NZ),BEGIN  PFORMAT...
 004266 D505 796A 6018_047E2 00018 25925  1                      IF    (RJEPFORM,EQ,'LAND  '),'SEGB "LANDSCAPE"'
 004282 740E/47F0 742A_04282 0426E 25965  1                      ELSEIF (RJEPFORM,EQ,'POST  '),'SEGB "POSTSCRIPT"'
 0042A2 742E/47F0 7452_042A2 0428E 26014  1                      ELSE  'SEG "PFORMAT="; SEGTB RJEPFORM'
 0042CA                            26075                       END
                                   26079
 0042CA 9502 6000/4770_00000       26080                       IF    (RJECFPUN,AND,~CPLFLG5.CPFNLST),'SEGB "LIST"'
 0042EC 9110 BD54/47E0_00D54       26133                       IF    CPLFLG5.CPFFOPT,BEGIN  Number option...
 0042F4 91C0 BD54/47E0_00D54       26149  1                      IF    CPLFLG5.CPFNONUM,BEGIN
 0042FC 9180 6004/4710_00004       26165  2                        IF    ~RJEFDOC,'SEGB "NONUMBER"'
 004316                            26203  1                      END
 004316 74A2/47F0 74BC_04316 042FA 26207  1                      ELSEIF CPLFLG5.CPFUNUM,'SEGB "UNNUMBERED"'
 004334 74C0/47F0 74DA_04334 04320 26255  1                      ELSEIF CPLFLG5.CPFNTEX,'SEGB "NOTEXT"'
 004352 74DE/47F0 74F8_04352 0433E 26303  1                      ELSEIF CPLFLG5.CPNFINT,'SEGB "INTEGER"'
 004370                            26351                       END
 004370 9110 6003/47E0_00003       26355                       IF    RJEFBACK,'SEGB "BACK"'
 00438A 9140 6003/47E0_00003       26393                       IF    RJEFCC,'SEGB "CC"'
 0043A4 9120 6003/47E0_00003       26431                       IF    RJEFMC,'SEGB "MC"'
 0043BE 9110 6002/47E0_00002       26469                       IF    (RJEFTRC,AND,(RJECHARM,Z)),'SEG "TRC "'
                                   26521
 0043E2 D60F 605A 605A_0005A 0005A 26522                       IF    (RJECHARS,NZ),BEGIN
 0043EC 4110 798E/4100_      04806 26538  1                      SEG   'CHARS='
 0043FE D60B 605E 605E_0005E 0005E 26555  1                      IF    (RJECHARM,NZ),'SEG "("'
 00441A 4110 605A/4100_      0005A 26593  1                      SEGT  RJECHAR0
 00442C D603 605E 605E_0005E 0005E 26621  1                      IF    (RJECHAR1,NZ),'SEG ","; SEGT RJECHAR1'
 00445A D603 6062 6062_00062 00062 26687  1                      IF    (RJECHAR2,NZ),'SEG ","; SEGT RJECHAR2'
 004488 D603 6066 6066_00066 00066 26753  1                      IF    (RJECHAR3,NZ),'SEG ","; SEGT RJECHAR3'
 0044B6 D60B 605E 605E_0005E 0005E 26819  1                      IF    (RJECHARM,NZ),'SEG ")"'
 0044D2 1B00/41F0 6430_            26857  1                      SEGB
 0044DE                            26881                       END
 0044DE 9120 6005/47E0_00005       26885                       IF    RJEFBRST,'SEGB "BURST"'
 0044F8 9110 6001/47E0_00001       26923                       IF    RJEFDUP,'SEGB "DUPLEX"'
 004512 9108 6001/47E0_00001       26961                       IF    RJEFNDUP,'SEGB "NODUPLEX"'
 00452C 9104 6004/47E0_00004       26999                       IF    RJEFMAN,'SEGB "MANUAL"'
 004546 9102 6004/47E0_00004       27037                       IF    RJEFFMAN,'SEGB "FMANUAL"'
 004560 D607 6052 6052_00052 00052 27075                       IF    (RJEPRINT,NZ),'SEG "PRINTER="; SEGTB RJEPRINT'
 00458E 9500 601E/4780_0001E       27141                       IF    (RJEMARK,NZ),'SEG "MARKER="; SEGB RJEMARK'
 0045BA 9104 6003/47E0_00003       27207                       IF    RJEFDOUB,'SEGB "DOUBLE"'
 0045D4 9102 6003/47E0_00003       27245                       IF    RJEFTRIP,'SEGB "TRIPLE"'
1RJE      (RJE4072) (12:53) (15MAR04) PRINT/PUNCH Commands                                                                  Page   59
0Current Usings:  (RJEWA,R6) (*,R7) (CP,R11) (CV,R12)
0Loc    Object Code    Addr1 Addr2  Stmt Lv Lineno    Source Statement           (Hibal 5, Asmedit 3.3)  HLASM R4.0  2004/03/15 12.53
+___    ______ ____    _____ _____  ____ __ ______    ______ _________
00045EE D501 79AC 6366_04824 00366 27283                       IF    (RJECOPY,GT,1),'SEG "COPIES="; SEGDC LH:RJECOPY; SEGB'
 004626 D501 79AE 636C_04826 0036C 27367                       IF    (RJEDARK,EQ,2),'SEG "DARK"'
 004642 D501 79AE 636C_04826 0036C 27407                       IF    (RJEDARK,GT,2),'SEG "DARK="; SEGDC LH:RJEDARK; SEGB'
 00467A 4820 636E/1222_      0036E 27491                       IF    ('LTH R2,RJEEJECT',NZ),BEGIN
 004684 47D0 783C/4110_      046B4 27507  1                      IF    POS,'SEG "EJECT="; SEGDC (R2); SEGB'
 0046B4 7840/47F0 7852_046B4 04686 27585  1                      ELSE  'SEGB "NOEJECT"'
 0046CA                            27619                       END
 0046CA 4820 6368/1222_      00368 27623                       IF    ('LTH R2,RJEIND',POS),BEGIN
 0046D4 4110 7A2C/4100_      048A4 27639  1                      SEG   'INDENT='
 0046E6 1812/1B00/41F0_            27656  1                      SEGDC (R2)
 0046F4 1B00/41F0 6430_            27677  1                      SEGB
 004700                            27701                       END
 004700 4820 636A/1222_      0036A 27705                       IF    ('LTH R2,RJEWRAP',POS),BEGIN
 00470A 4110 7A33/4100_      048AB 27721  1                      SEG   'WRAP='
 00471C 1812/1B00/41F0_            27738  1                      SEGDC (R2)
 00472A 1B00/41F0 6430_            27759  1                      SEGB
 004736                            27783                       END
                                   27787
 004736 1B00/41F0 6430_            27788                       SEGWR
                                   27812
 004742 94DF 63F5      003F5       27813                       CLEAR RJEFCTRL            Done sending control cards
                                   27820
 004746 18D8/9808 D004_            27821                       PEND
 DROP   *,R7
                                   27841
                                   27842                       QLTORG
1RJE      (RJE4072) (12:53) (15MAR04) RJE Options                                                                           Page   60
0Current Usings:  (RJEWA,R6) (CP,R11) (CV,R12)
0Loc    Object Code    Addr1 Addr2  Stmt Lv Lineno    Source Statement           (Hibal 5, Asmedit 3.3)  HLASM R4.0  2004/03/15 12.53
+___    ______ ____    _____ _____  ____ __ ______    ______ _________
0                                  27922              ********************************************************************
                                   27923              ***      Common options for all rje commands.
                                   27924              ********************************************************************
00048B0 4040404040404040_          27926              RJEPRT   SCKW  ,RJEPSH,PUSH
 0048D8 4040404040404040_          27941                       SCKW  ,V(NOTVALID)
                                   27956
 004900 50E0 D000/9008_      00000 27957              RJEPSH   PUSHRTN RJEKWS
 USING  *,R7
 DROP   *,R7
                                   28024
 004938 D1D6C2D5C1D4C540_          28025              RJEKWS   SCKW  JOBNAME,JOBNAME,(A,P)
 004960 D5C1D4C540404040_          28040                       SCKW  NAME,JOBNAME,(A,P)
 004988 D7D9C5C6C9E74040_          28055                       SCKW  PREFIX,PREFIX,(A,P)
 0049B0 C9C4404040404040_          28070                       SCKW  ID,ID,(A,P)
 0049D8 C8D6D3C440404040_          28085                       SCKW  HOLD,HOLD,A
 004A00 C840404040404040_          28100                       SCKW  H,HOLD
 004A28 D5D6C8D6D3C44040_          28115                       SCKW  NOHOLD,NOHOLD,A
 004A50 E7C8D6D3C4404040_          28130                       SCKW  XHOLD,XHOLD,A
 004A78 E7C8404040404040_          28145                       SCKW  XH,XHOLD,A
 004AA0 D5D6E7C8D6D3C440_          28160                       SCKW  NOXHOLD,NOXHOLD,A
 004AC8 D5D6E3C9C6E84040_          28175                       SCKW  NOTIFY,NOTIFY,A
 004AF0 D5D6D5D6E3C9C6E8_          28190                       SCKW  NONOTIFY,NOTIFY,A
 004B18 C3D3C1E2E2404040_          28205                       SCKW  CLASS,CLASS,(A,P)
 004B40 C340404040404040_          28220                       SCKW  C,CLASS,P
 004B68 C3D6D7C9C5E24040_          28235                       SCKW  COPIES,COPIES,(A,P,PI),255
 004B90 C3D6404040404040_          28250                       SCKW  CO,COPIES,(A,P,PI),255
 004BB8 C5D1C5C3E3404040_          28265                       SCKW  EJECT,EJECT,(A,P,PI),255
 004BE0 D5D6C5D1C5C3E340_          28280                       SCKW  NOEJECT,NOEJECT,A
 004C08 C9D5C4C5D5E34040_          28295                       SCKW  INDENT,INDENT,(A,P,I),&LINESZ
 004C30 D5D6C9D5C4C5D5E3_          28310                       SCKW  NOINDENT,NOINDENT,A
 004C58 E6D9C1D740404040_          28325                       SCKW  WRAP,WRAP,(A,P,PI),&LINESZ
 004C80 D5D6E6D9C1D74040_          28340                       SCKW  NOWRAP,NOWRAP,A
 004CA8 C2C9D54040404040_          28355                       SCKW  BIN,BIN,P
 004CD0 C240404040404040_          28370                       SCKW  B,BIN,P
 004CF8 D7D9C9D6D9C9E3E8_          28385                       SCKW  PRIORITY,PRIORITY,(A,P)
 004D20 D740404040404040_          28400                       SCKW  P,PRIORITY,(A,P)
 004D48 C2D3D6C3D2404040_          28415                       SCKW  BLOCK,BLOCK,(A,P)
 004D70 D2C5C5D740404040_          28430                       SCKW  KEEP,KEEP,A
 004D98 E2C5D7C1D9C1E3D6_          28445                       SCKW  SEPARATOR,SEP,A
 004DC0 D5D6E2C5D7C1D9C1_          28460                       SCKW  NOSEPARATOR,NOSEP,A
 004DE8 E2C5D5C4C5D94040_          28475                       SCKW  SENDER,SENDER,(A,P)
                                   28490                       AIF   (NOT &JESMAIL).JMAILA
 004E10 D4C1C9D340404040_          28491                       SCKW  MAIL,MAIL,(A,P)
                                   28506              .JMAILA  ANOP
 004E38 E3D6404040404040_          28507                       SCKW  TO,TO
 004E60 C4C5E2E3C9D5C1E3_          28522                       SCKW  DESTINATION,DEST,(A,P)
 004E88 C6D6D9D4E2404040_          28537                       SCKW  FORMS,FORMS,(A,P)
 004EB0 C6C3C24040404040_          28552                       SCKW  FCB,FCB,P
 004ED8 C3C1D9D9C9C1C7C5_          28567                       SCKW  CARRIAGE,FCB,(A,P)
 004F00 E4C3E24040404040_          28582                       SCKW  UCS,FCB,(A,P)
 004F28 D7D9C9D5E3C5D940_          28597                       SCKW  PRINTER,PRINTER,(A,P)
 004F50 D7D9E34040404040_          28612                       SCKW  PRT,PRINTER,P
 004F78 C2E4D9E2E3404040_          28627                       SCKW  BURST,BURST,A
1RJE      (RJE4072) (12:53) (15MAR04) RJE Options                                                                           Page   61
0Current Usings:  (RJEWA,R6) (CP,R11) (CV,R12)
0Loc    Object Code    Addr1 Addr2  Stmt Lv Lineno    Source Statement           (Hibal 5, Asmedit 3.3)  HLASM R4.0  2004/03/15 12.53
+___    ______ ____    _____ _____  ____ __ ______    ______ _________
0004FA0 C4E4D7D3C5E74040_          28642                       SCKW  DUPLEX,DUPLEX,A
 004FC8 D5D6C4E4D7D3C5E7_          28657                       SCKW  NODUPLEX,NODUPLEX,A
 004FF0 D7C6D6D9D4C1E340_          28672                       SCKW  PFORMAT,PFORMAT,(A,P)
 005018 D7D6E2E3E2C3D9C9_          28687                       SCKW  POSTSCRIPT,POST,A
 005040 D7D6D9E3D9C1C9E3_          28702                       SCKW  PORTRAIT,PORT,A
 005068 D3C1D5C4E2C3C1D7_          28717                       SCKW  LANDSCAPE,LAND,A
 005090 C6D3C1E2C8404040_          28732                       SCKW  FLASH,FLASH,(A,P)
 0050B8 C3C8C1D9E2404040_          28747                       SCKW  CHARS,CHARS,(A,P)
 0050E0 C3C8C1D9C1C3E3C5_          28762                       SCKW  CHARACTERS,CHARS,(A,P)
 005108 E3D9C34040404040_          28777                       SCKW  TRC,TRC
 005130 D4C1D5E4C1D34040_          28792                       SCKW  MANUAL,MANUAL,A
 005158 C6D4C1D5E4C1D340_          28807                       SCKW  FMANUAL,FMANUAL,A
 005180 E4D7D3D6E6404040_          28822                       SCKW  UPLOW,UPLOW,A
 0051A8 C6C9C3C8C5404040_          28837                       SCKW  FICHE,FICHE,A
 0051D0 E2E8E24040404040_          28852                       SCKW  SYS,SYS,(A,P)
 0051F8 E2E8E2D6E4E34040_          28867                       SCKW  SYSOUT,SYSOUT,(A,P)
 005220 E2E8E2C1C6C64040_          28882                       SCKW  SYSAFF,SYSAFF,(A,P)
 005248 D5D6D3D6C7404040_          28897                       SCKW  NOLOG,NOLOG,A
 005270 D5D6D1C3D3404040_          28912                       SCKW  NOJCL,NOJCL,A
 005298 D5D6D4E2C7404040_          28927                       SCKW  NOMSG,NOMSG,A
 0052C0 D5D6D4C5E2E2C1C7_          28942                       SCKW  NOMESSAGE,NOMSG,A
 0052E8 4040404040404040_          28957                       SCKW  ,,END
                                   28972
1RJE      (RJE4072) (12:53) (15MAR04) RJE Options                                                                           Page   62
0Current Usings:  (RJEWA,R6) (CP,R11) (CV,R12)
0Loc    Object Code    Addr1 Addr2  Stmt Lv Lineno    Source Statement           (Hibal 5, Asmedit 3.3)  HLASM R4.0  2004/03/15 12.53
+___    ______ ____    _____ _____  ____ __ ______    ______ _________
0                                  28974              *
 005310 50E0 D000/9008_      00000 28975              JOBNAME  PROC
 USING  *,R7
 00532A 5900 7456/47D0_      05780 29014                       IF    (R0,GT,L'RJENAME),'VCALL NOTVALID'
 005338 5810 B08C/4111_      0008C 29040                       SCUPTOK (R1)
 005340 9140 6007/47E0_00007       29044                       IF    (~RJEFOSCN,OR,(RJENAME,Z)),'MVC RJENAME,@R1'
 005358 58E0 745E/0DEE       05788 29080                       VCALL CHARCHKA
 00535E 47D0 7054            0537E 29084                       IF    POS,BEGIN
 005362 41F0 B050/58E0_      00050 29095  1                      TSEG  (R1),(R0)
 00536C D207 B886 7446_00886 05770 29119  1                      ERROR ': invalid characters in name.',,INVCHARS
 00537E                            29127                       END
 00537E 1BFF                       29131                       CLEAR R15
 005380 18D8/9808 D004_            29135                       PEND
 DROP   *,R7
                                   29155
 00538E 50E0 D000/9008_      00000 29156              PREFIX   PROC
 USING  *,R7
 0053A8 5900 73E8/47D0_      05790 29195                       IF    (R0,GT,L'RJEPFX),'VCALL NOTVALID'
 0053B6 5810 B08C/4111_      0008C 29221                       SCUPTOK (R1)
 0053BE 9140 6007/47E0_00007       29225                       IF    (~RJEFOSCN,OR,(RJEPFX,Z)),'MVC RJEPFX,@R1'
 0053D6 58E0 73E0/0DEE       05788 29261                       VCALL CHARCHKA
 0053DC 47D0 7054            053FC 29265                       IF    POS,BEGIN
 0053E0 41F0 B050/58E0_      00050 29276  1                      TSEG  (R1),(R0)
 0053EA D207 B886 73C8_00886 05770 29300  1                      ERROR ': invalid characters in prefix.',,INVCHARS
 0053FC                            29308                       END
 0053FC 1BFF                       29312                       CLEAR R15
 0053FE 18D8/9808 D004_            29316                       PEND
 DROP   *,R7
                                   29336
 000000                00000 00008 29337              IDWA     RECORD BEGIN
 000000                            29345  1           IDWAID     DS    CL(L'RJEID)
 000008                00008 00008 29346                       END
                                   29355
 00540C 50E0 D000/9008_      00000 29356              ID       PROC
 USING  *,R7
 005426 5810 B08C/4111_      0008C 29395                       SCUPTOK (R1)
 00542E 58E0 736E/0DEE       05794 29399                       VCALL DEQUOTE             Allow quoted id for compatability
 005434 5900 7372/47D0_      05798 29403                       IF    (R0,GT,L'RJEID),'VCALL NOTVALID'
 005442 18F0                       29429                       LR    R15,R0
 005444 5900 7376/4770_      0579C 29430                       IF    (R0,EQ,8),'VCALL CHARCHKA'
 005452 7030/47F0 7036_05452 0544A 29456                       ELSE  'VCALL CHARCHK'
 00545C 47D0 7056            0547C 29476                       IF    POS,BEGIN
 005460 41F0 B050/58E0_      00050 29487  1                      TSEG  (R1),(R0)
 00546A D207 B886 734A_00886 05770 29511  1                      ERROR ': invalid characters in ID.',,INVCHARS
 00547C                            29519                       END
 00547C 9140 6007/47E0_00007       29523                       IF    (~RJEFOSCN,OR,(RJEID,Z)),BEGIN
 00548E 18F0                       29553  1                      LR    R15,R0
 005490 D207 602F C4D8 0002F 004D8 29554  1                      MVC   RJEID,CVBLANKS
 005496 06F0/12FF/4740_            29555  1                      MOVE  R15,RJEID,@R1
 0054A2                            29593                       END
 0054A2 1BFF                       29597                       CLEAR R15
 0054A4 18D8/9808 D004_            29601                       PEND  ,
 DROP   *,R7
                                   29621
1RJE      (RJE4072) (12:53) (15MAR04) RJE Options                                                                           Page   63
0Current Usings:  (RJEWA,R6) (*,R7) (CP,R11) (CV,R12)
0Loc    Object Code    Addr1 Addr2  Stmt Lv Lineno    Source Statement           (Hibal 5, Asmedit 3.3)  HLASM R4.0  2004/03/15 12.53
+___    ______ ____    _____ _____  ____ __ ______    ______ _________
00054B2 50E0 D000/9008_      00000 29622              HOLD     PROC
 USING  *,R7
 0054CC 5810 B08C/1B00_      0008C 29661                       SCAN  HOLDPRT
 00551E 59F0 72E0/4780_      057AC 29693                       IF    (R15,NE,4),BEGIN
 005526 9680 6001/9640_00001       29710  1                      SET   RJEFHOLD,RJEFHOLX   Assume print hold
 00552E 58E0 B08C/58FE_      0008C 29720  1                      SCBKUP
 005564                            29776                       END
 005564 1BFF                       29780                       CLEAR R15
 005566 18D8/9808 D004_            29784                       PEND
 DROP   *,R7
                                   29804
 005574 D1D6C24040404040_          29805              HOLDPRT  SCKW  JOB,HOLDJOB
 00559C D6E4E3D7E4E34040_          29820                       SCKW  OUTPUT,HOLDOUT,A
 0055C4 C1D3D34040404040_          29835                       SCKW  ALL,HOLDALL
 0055EC 4040404040404040_          29850                       SCKW  ,HOLDRSTR
                                   29865
 005614 50E0 D000/9008_      00000 29866              HOLDJOB  PROC  ,
 USING  *,R7
 00562E 9640 6001/9620_00001       29905                       SET   RJEFXHLD,RJEFXHOX   Xeq hold
 005636 41F0 0004            00004 29915                       LA    R15,4
 00563A 18D8/9808 D004_            29916                       PEND
 DROP   *,R7
                                   29936
 005648 50E0 D000/9008_      00000 29937              HOLDOUT  PROC  ,
 USING  *,R7
 005662 9680 6001/9640_00001       29976                       SET   RJEFHOLD,RJEFHOLX   Print hold
 00566A 41F0 0004            00004 29986                       LA    R15,4
 00566E 18D8/9808 D004_            29987                       PEND  ,
 DROP   *,R7
                                   30007
 00567C 50E0 D000/9008_      00000 30008              HOLDALL  PROC  ,
 USING  *,R7
 005696 96C0 6001/9660_00001       30047                       SET   RJEFXHLD+RJEFHOLD,RJEFXHOX+RJEFHOLX
 00569E 41F0 0004            00004 30063                       LA    R15,4
 0056A2 18D8/9808 D004_            30064                       PEND  ,
 DROP   *,R7
                                   30084
 0056B0 50E0 D000/9008_      00000 30085              HOLDRSTR PROC  ,
 USING  *,R7
 0056CA 41F0 0008            00008 30124                       LA    R15,8
 0056CE 18D8/9808 D004_            30125                       PEND
 DROP   *,R7
                                   30145
 0056DC 50E0 D000/9008_      00000 30146              NOHOLD   PROC  ,
 USING  *,R7
 0056F6 947F 6001      00001       30185                       CLEAR RJEFHOLD
 0056FA 9640 6002      00002       30192                       SET   RJEFHOLX
 0056FE 18D8/9808 D004_            30198                       PEND
 DROP   *,R7
                                   30218
 00570C 50E0 D000/9008_      00000 30219              XHOLD    PROC  ,
 USING  *,R7
 005726 9640 6001/9620_00001       30258                       SET   RJEFXHLD,RJEFXHOX
 00572E 18D8/9808 D004_            30268                       PEND
1RJE      (RJE4072) (12:53) (15MAR04) RJE Options                                                                           Page   64
0Current Usings:  (RJEWA,R6) (CP,R11) (CV,R12)
0Loc    Object Code    Addr1 Addr2  Stmt Lv Lineno    Source Statement           (Hibal 5, Asmedit 3.3)  HLASM R4.0  2004/03/15 12.53
+___    ______ ____    _____ _____  ____ __ ______    ______ _________
0DROP   *,R7
                                   30288
 00573C 50E0 D000/9008_      00000 30289              NOXHOLD  PROC  ,
 USING  *,R7
 005756 94BF 6001      00001       30328                       CLEAR RJEFXHLD
 00575A 9620 6002      00002       30335                       SET   RJEFXHOX
 00575E 18D8/9808 D004_            30341                       PEND
 DROP   *,R7
                                   30361
                                   30362                       QLTORG
                                   30393
 005810 50E0 D000/9008_      00000 30394              NOTIFY   PROC
 USING  *,R7
 00582A 9140 6007/47E0_00007       30433                       IF    (~RJEFOSCN,OR,~RJEFNTFX),BEGIN
 00583A 5810 B08C/4111_      0008C 30462  1                      SCUPTOK (R1)
 005842 9620 6001/9680_00001       30466  1                      SET   RJEFNTFY,RJEFNTFX   Notify
 00584A D502 732C 1000_05B56 00000 30476  1                      IF    (@R1,EQ,'NON'),'CLEAR RJEFNTFY'  nonotify
 005858 5810 B08C/1B00_      0008C 30504  1                      SCAN
 0058A6 5900 7322/4770_      05B4C 30535  1                      IF    (R0,EQ,6),BEGIN
 0058AE 954B 1002/4780_00002       30552  2                        IF    ((@R1+2,EQ,'.'),OR,(@R1+2,EQ,'$')),BEGIN  gg.uuu...
 0058BE D202 6009 1003 00009 00003 30583  3                          MVC   RJENACCT(3),@R1+3
 0058C4 D201 600C 1000 0000C 00000 30584  3                          MVC   RJENACCT+3(2),@R1
 0058CA 47F0 70F2            0591C 30585  3                          B     NOTEXIT
 0058CE                            30586  2                        END
 0058CE 955B 1003/4770_00003       30590  2                        IF    (@R1+3,EQ,'$'),BEGIN  uuu$gg...
 0058D6 D202 6009 1000 00009 00000 30606  3                          MVC   RJENACCT(3),@R1
 0058DC D201 600C 1004 0000C 00004 30607  3                          MVC   RJENACCT+3(2),@R1+4
 0058E2 47F0 70F2            0591C 30608  3                          B     NOTEXIT
 0058E6                            30609  2                        END
 0058E6                            30613  1                      END
                                   30617  1                      COMMENT                   FALL THRU IF NOT ACCT
 0058E6 58E0 B08C/58FE_      0008C 30618  1                      SCBKUP
 00591C                            30674                       END
 00591C                            30678              NOTEXIT  LABEL ,
 00591C 1BFF                       30680                       CLEAR R15
 00591E 18D8/9808 D004_            30684                       PEND
 DROP   *,R7
                                   30704
 00592C 50E0 D000/9008_      00000 30705              CLASS    PROC
 USING  *,R7
 005946 5810 B08C/4111_      0008C 30744                       SCUPTOK (R1)
 00594E D200 600E 1000 0000E 00000 30748                       MVC   RJEJCLS,@R1
 005954 41F0 0001            00001 30749                       LA    R15,L'RJEJCLS
 005958 190F/47D0 701E_            30750                       IF    (R0,GT,R15),'VCALL NOTVALID'
 005964 1BFF                       30774                       CLEAR R15
 005966 18D8/9808 D004_            30778                       PEND
 DROP   *,R7
                                   30798
 005974 50E0 D000/9008_      00000 30799              COPIES   PROC
 USING  *,R7
 00598E 9140 6007/47E0_00007       30838                       IF    (~RJEFOSCN,OR,(RJECOPY,Z)),'STH R0,RJECOPY'
 0059A4 18D8/9808 D004_            30874                       PEND
 DROP   *,R7
                                   30894
1RJE      (RJE4072) (12:53) (15MAR04) RJE Options                                                                           Page   65
0Current Usings:  (RJEWA,R6) (*,R7) (CP,R11) (CV,R12)
0Loc    Object Code    Addr1 Addr2  Stmt Lv Lineno    Source Statement           (Hibal 5, Asmedit 3.3)  HLASM R4.0  2004/03/15 12.53
+___    ______ ____    _____ _____  ____ __ ______    ______ _________
00059B2 50E0 D000/9008_      00000 30895              NOEJECT  PROC
 USING  *,R7
 0059CC 1B00                       30934                       CLEAR R0
 0059CE 0600                       30938                       DECR  R0                  Eject=-1 flags noeject
 0059D0 9140 6007/47E0_00007       30940                       IF    (~RJEFOSCN,OR,(RJEEJECT,Z)),'STH R0,RJEEJECT'
 0059E6 18D8/9808 D004_            30976                       PEND
 DROP   *,R7
                                   30996
 0059F4 50E0 D000/9008_      00000 30997              EJECT    PROC
 USING  *,R7
 005A0E 9140 6007/47E0_00007       31036                       IF    (~RJEFOSCN,OR,(RJEEJECT,Z)),'STH R0,RJEEJECT'
 005A24 18D8/9808 D004_            31072                       PEND
 DROP   *,R7
                                   31092
 005A32 50E0 D000/9008_      00000 31093              NOINDENT PROC ,
 USING  *,R7
 005A4C 1B00                       31132                       CLEAR R0
 005A4E 0600                       31136                       DECR  R0                  Indent=0 is stored as -1
 005A50 9140 6007/47E0_00007       31138                       IF    (~RJEFOSCN,OR,(RJEIND,Z)),'STH R0,RJEIND'
 005A66 18D8/9808 D004_            31174                       PEND
 DROP   *,R7
                                   31194
 005A74 50E0 D000/9008_      00000 31195              INDENT   PROC
 USING  *,R7
 005A8E 1200/4770 7008_            31234                       IF    (R0,Z),'DECR R0'     Indent=0 is stored as -1
 005A96 9140 6007/47E0_00007       31255                       IF    (~RJEFOSCN,OR,(RJEIND,Z)),'STH R0,RJEIND'
 005AAC 18D8/9808 D004_            31291                       PEND
 DROP   *,R7
                                   31311
 005ABA 50E0 D000/9008_      00000 31312              NOWRAP   PROC  ,
 USING  *,R7
 005AD4 1B00                       31351                       CLEAR R0
 005AD6 0600                       31355                       DECR  R0                   Indent=0 is stored as -1
 005AD8 9140 6007/47E0_00007       31357                       IF    (~RJEFOSCN,OR,(RJEWRAP,Z)),'STH R0,RJEWRAP'
 005AEE 18D8/9808 D004_            31393                       PEND
 DROP   *,R7
                                   31413
 005AFC 50E0 D000/9008_      00000 31414              WRAP     PROC
 USING  *,R7
 005B16 1200/4770 7008_            31453                       IF    (R0,Z),'DECR R0'    Indent=0 is stored as -1
 005B1E 9140 6007/47E0_00007       31474                       IF    (~RJEFOSCN,OR,(RJEWRAP,Z)),'STH R0,RJEWRAP'
 005B34 18D8/9808 D004_            31510                       PEND
 DROP   *,R7
                                   31530
                                   31531                       QLTORG
                                   31548
 005B5A 50E0 D000/9008_      00000 31549              BIN      PROC
 USING  *,R7
 005B74 5900 790C/47D0_      06480 31588                       IF    (R0,GT,L'RJEBIN),'VCALL NOTVALID'
 005B82 5810 B08C/4111_      0008C 31614                       SCUPTOK (R1)
 005B8A 9140 6007/47E0_00007       31618                       IF    (~RJEFOSCN,OR,(RJEBIN,Z)),'MVC RJEBIN,@R1'
 005BA2 1BFF                       31654                       CLEAR R15
 005BA4 18D8/9808 D004_            31658                       PEND
 DROP   *,R7
1RJE      (RJE4072) (12:53) (15MAR04) RJE Options                                                                           Page   66
0Current Usings:  (RJEWA,R6) (CP,R11) (CV,R12)
0Loc    Object Code    Addr1 Addr2  Stmt Lv Lineno    Source Statement           (Hibal 5, Asmedit 3.3)  HLASM R4.0  2004/03/15 12.53
+___    ______ ____    _____ _____  ____ __ ______    ______ _________
0                                  31678
 005BB2 50E0 D000/9008_      00000 31679              PRIORITY PROC
 USING  *,R7
 005BCC 58F0 B08C/41FF_      0008C 31718                       SCUPTOK (R15)
 005BD4 9140 6007/47E0_00007       31722                       IF    (~RJEFOSCN,OR,(RJEPRIO,Z)),BEGIN
 005BE4 9200 6012      00012       31752  1                      CLEAR RJEOPRIO
 005BE8 954D 1000/4780_00000       31759  1                      IF    (@R1,NE,'('),BEGIN
 005BF0 4110 6011            00011 31775  2                        LA    R1,RJEPRIO
 005BF4 58E0 78BC/0DEE       06488 31776  2                        ACALL SETPRIO
 005BFA                            31780  1                      END
 005BFA 7032/47F0 719C 05BFA 05BEE 31784  1                      ELSE  BEGIN
 005BFE 58E0 B08C/D2AF_      0008C 31795  2                        SCPUSH
 005C0C 4B00 78E0            064AC 31801  2                        SH    R0,=H'2'
 005C10 4110 1001/58E0_      00001 31802  2                        SCINIT @R1+1,(R0)
 005C22 5810 B08C/1B00_      0008C 31825  2                        SCAN
 005C70 58E0 78C4/0DEE       06490 31856  2                        SCANCHK
 005C76 58F0 B08C/41FF_      0008C 31861  2                        SCUPTOK (R15)
 005C7E 1200/4780 C7F0             31865  2                        IF   (R0,Z),CVABSENT
 005C84 4110 6011            00011 31882  2                        LA    R1,RJEPRIO
 005C88 58E0 78BC/0DEE       06488 31883  2                        ACALL SETPRIO
 005C8E 5810 B08C/1B00_      0008C 31887  2                        SCAN
 005CDC 58E0 78C4/0DEE       06490 31918  2                        SCANCHK
 005CE2 58F0 B08C/41FF_      0008C 31923  2                        SCUPTOK (R15)
 005CEA 1200/4780 718E             31927  2                        IF    (R0,NZ),BEGIN
 005CF0 4110 6012            00012 31941  3                          LA    R1,RJEOPRIO
 005CF4 58E0 78BC/0DEE       06488 31942  3                          ACALL SETPRIO
 005CFA 5810 B08C/1B00_      0008C 31946  3                          SCAN
 005D48 58E0 78C4/0DEE       06490 31977  3                          SCANCHK
 005D4E 1200/4780 718E_            31982  3                          IF    (R0,NZ),'VCALL NOTVALID'  Too many operands
 005D5A                            32005  2                        END
 005D5A 58E0 B08C/4BD0_      0008C 32009  2                        SCPOP
 005D68                            32015  1                      END
 005D68                            32019                       END
 005D68 1BFF                       32023                       CLEAR R15
 005D6A 18D8/9808 D004_            32027                       PEND
 DROP   *,R7
                                   32047
 005D78 50E0 D000/9008_      00000 32048              SETPRIO  PROC
 USING  *,R7
 005D92 D200 1000 F000 00000 00000 32087                       MVC   @R1(1),@R15            Set priority
 005D98 1810                       32088                       LR    R1,R0
 005D9A 0610/4410 7748_            32089                       DEX   R1,'CLC @R15(0),=CL8"STANDARD"'
 005DA0 4780 7054            05DE6 32108                       BE    SETPRIOX
 005DA4 4410 774E/D500_      064E0 32109                       EX    R1,'CLC @R15(0),=CL8"EXPRESS"'
 005DA8 4780 7054            05DE6 32125                       BE    SETPRIOX
 005DAC 4410 7754/D500_      064E6 32126                       EX    R1,'CLC @R15(0),=CL8"URGENT"'
 005DB0 4780 7054            05DE6 32142                       BE    SETPRIOX
 005DB4 4410 775A/D500_      064EC 32143                       EX    R1,'CLC @R15(0),=CL8"LOW"'
 005DB8 4780 7054            05DE6 32159                       BE    SETPRIOX
 005DBC 5900 7702/47D0_      06494 32160                       CEIL  R0,8
 005DC8 181F/41F0 B050_            32179                       TSEG  (R15),(R0)
 005DD4 D207 B886 76A6_00886 06438 32204                       ERROR ': invalid priority',,INVPRIO
 005DE6                            32212              SETPRIOX LABEL
 005DE6 18D8/9808 D004_            32214                       PEND
1RJE      (RJE4072) (12:53) (15MAR04) RJE Options                                                                           Page   67
0Current Usings:  (RJEWA,R6) (CP,R11) (CV,R12)
0Loc    Object Code    Addr1 Addr2  Stmt Lv Lineno    Source Statement           (Hibal 5, Asmedit 3.3)  HLASM R4.0  2004/03/15 12.53
+___    ______ ____    _____ _____  ____ __ ______    ______ _________
0DROP   *,R7
                                   32234
 005DF4 50E0 D000/9008_      00000 32235              BLOCK    PROC
 USING  *,R7
 005E0E 58F0 B08C/41FF_      0008C 32274                       SCUPTOK (R15)
 005E16 9140 6007/47E0_00007       32278                       IF    (~RJEFOSCN,OR,(RJEBLOCK,Z)),BEGIN
 005E26 9200 6010      00010       32308  1                      CLEAR RJEOBLCK
 005E2A 954D 1000/4780_00000       32315  1                      IF    (@R1,NE,'('),BEGIN
 005E32 4110 600F            0000F 32331  2                        LA    R1,RJEBLOCK
 005E36 58E0 768E/0DEE       0649C 32332  2                        ACALL SETBLOCK
 005E3C                            32336  1                      END
 005E3C 7032/47F0 719C 05E3C 05E30 32340  1                      ELSE  BEGIN
 005E40 58E0 B08C/D2AF_      0008C 32351  2                        SCPUSH
 005E4E 4B00 769E            064AC 32357  2                        SH    R0,=H'2'
 005E52 4110 1001/58E0_      00001 32358  2                        SCINIT @R1+1,(R0)
 005E64 5810 B08C/1B00_      0008C 32381  2                        SCAN
 005EB2 58E0 7682/0DEE       06490 32412  2                        SCANCHK
 005EB8 58F0 B08C/41FF_      0008C 32417  2                        SCUPTOK (R15)
 005EC0 1200/4780 C7F0             32421  2                        IF    (R0,Z),CVABSENT
 005EC6 4110 600F            0000F 32438  2                        LA    R1,RJEBLOCK
 005ECA 58E0 768E/0DEE       0649C 32439  2                        ACALL SETBLOCK
 005ED0 5810 B08C/1B00_      0008C 32443  2                        SCAN
 005F1E 58E0 7682/0DEE       06490 32474  2                        SCANCHK
 005F24 58F0 B08C/41FF_      0008C 32479  2                        SCUPTOK (R15)
 005F2C 1200/4780 718E             32483  2                        IF    (R0,NZ),BEGIN
 005F32 4110 6010            00010 32497  3                          LA    R1,RJEOBLCK
 005F36 58E0 768E/0DEE       0649C 32498  3                          ACALL SETBLOCK
 005F3C 5810 B08C/1B00_      0008C 32502  3                          SCAN
 005F8A 58E0 7682/0DEE       06490 32533  3                          SCANCHK
 005F90 1200/4780 718E_            32538  3                          IF    (R0,NZ),'VCALL NOTVALID' Too many operands
 005F9C                            32561  2                        END
 005F9C 58E0 B08C/4BD0_      0008C 32565  2                        SCPOP
 005FAA                            32571  1                      END
 005FAA                            32575                       END
 005FAA 1BFF                       32579                       CLEAR R15
 005FAC 18D8/9808 D004_            32583                       PEND
 DROP   *,R7
                                   32603
 005FBA 50E0 D000/9008_      00000 32604              SETBLOCK PROC  ,
 USING  *,R7
 005FD4 D200 1000 F000 00000 00000 32643                       MVC   @R1(1),@R15            Set block
 005FDA 1810                       32644                       LR    R1,R0
 005FDC 0610/4410 751E_            32645                       DEX   R1,'CLC @R15(0),=CL8"ANY"'
 005FE2 4780 7060            06034 32664                       BE    SETBLKX
 005FE6 4410 7524/D500_      064F8 32665                       EX    R1,'CLC @R15(0),=CL8"DAY"'
 005FEA 4780 7060            06034 32681                       BE    SETBLKX
 005FEE 4410 752A/D500_      064FE 32682                       EX    R1,'CLC @R15(0),=CL8"PEAK"'
 005FF2 4780 7060            06034 32698                       BE    SETBLKX
 005FF6 4410 7530/D500_      06504 32699                       EX    R1,'CLC @R15(0),=CL8"NIGHT"'
 005FFA 4780 7060            06034 32715                       BE    SETBLKX
 005FFE 4410 7536/D500_      0650A 32716                       EX    R1,'CLC @R15(0),=CL8"NITE"'
 006002 4780 7060            06034 32732                       BE    SETBLKX
 006006 4410 753C/D500_      06510 32733                       EX    R1,'CLC @R15(0),=CL8"EVENING"'
 00600A 4780 7060            06034 32749                       BE    SETBLKX
1RJE      (RJE4072) (12:53) (15MAR04) RJE Options                                                                           Page   68
0Current Usings:  (RJEWA,R6) (*,R7) (CP,R11) (CV,R12)
0Loc    Object Code    Addr1 Addr2  Stmt Lv Lineno    Source Statement           (Hibal 5, Asmedit 3.3)  HLASM R4.0  2004/03/15 12.53
+___    ______ ____    _____ _____  ____ __ ______    ______ _________
000600E 4410 7542/D500_      06516 32750                       EX    R1,'CLC @R15(0),=CL8"WEEKEND"'
 006012 4780 7060            06034 32766                       BE    SETBLKX
 006016 181F/41F0 B050_            32767                       TSEG  (R15),(R0)
 006022 D207 B886 74A4_00886 06478 32792                       ERROR ': invalid time block.',,INVTMBLK
 006034                            32800              SETBLKX  LABEL ,
 006034 18D8/9808 D004_            32802                       PEND
 DROP   *,R7
                                   32822
 006042 50E0 D000/9008_      00000 32823              KEEP     PROC
 USING  *,R7
 00605C 9610 6005      00005       32862                       SET   RJEFKEEP            Keep output after printing
 006060 5810 B08C/1B00_      0008C 32868                       SCAN  KEEPPRT
 0060B2 58E0 7434/0DEE       06490 32900                       SCANCHK
 0060B8 59F0 7448/4780_      064A4 32905                       IF    (R15,NE,4),BEGIN
 0060C0 58E0 B08C/58FE_      0008C 32922  1                      SCBKUP
 0060F6                            32978                       END
 0060F6 1BFF                       32982                       CLEAR R15
 0060F8 18D8/9808 D004_            32986                       PEND  ,
 DROP   *,R7
                                   33006
 006108 E840404040404040_          33007              KEEPPRT  SCKW  Y,KEEPYES
 006130 E8C5E24040404040_          33022                       SCKW  YES,KEEPYES
 006158 4040404040404040_          33037                       SCKW  ,KEEPBACK
                                   33052
 006180 50E0 D000/9008_      00000 33053              KEEPYES  PROC
 USING  *,R7
 00619A 41F0 0004            00004 33092                       LA    R15,4
 00619E 18D8/9808 D004_            33093                       PEND
 DROP   *,R7
                                   33113
 0061AC 50E0 D000/9008_      00000 33114              KEEPBACK PROC  ,
 USING  *,R7
 0061C6 41F0 0008            00008 33153                       LA    R15,8
 0061CA 18D8/9808 D004_            33154                       PEND
 DROP   *,R7
                                   33174
 0061D8 50E0 D000/9008_      00000 33175              SEP      PROC
 USING  *,R7
 0061F2 94F7 6004      00004       33214                       CLEAR RJEFNSEP
 0061F6 5810 B08C/1B00_      0008C 33221                       SCAN  SEPPRT
 006248 58E0 729E/0DEE       06490 33253                       SCANCHK
 00624E 59F0 72B2/4780_      064A4 33258                       IF    (R15,NE,4),BEGIN
 006256 58E0 B08C/58FE_      0008C 33275  1                      SCBKUP
 00628C                            33331                       END
 00628C 1BFF                       33335                       CLEAR R15
 00628E 18D8/9808 D004_            33339                       PEND
 DROP   *,R7
                                   33359
 00629C E840404040404040_          33360              SEPPRT   SCKW  Y,SEPYES
 0062C4 E8C5E24040404040_          33375                       SCKW  YES,SEPYES
 0062EC D540404040404040_          33390                       SCKW  N,SEPNO
 006314 D5D6404040404040_          33405                       SCKW  NO,SEPNO
 00633C 4040404040404040_          33420                       SCKW  ,SEPBACK
                                   33435
1RJE      (RJE4072) (12:53) (15MAR04) RJE Options                                                                           Page   69
0Current Usings:  (RJEWA,R6) (*,R7) (CP,R11) (CV,R12)
0Loc    Object Code    Addr1 Addr2  Stmt Lv Lineno    Source Statement           (Hibal 5, Asmedit 3.3)  HLASM R4.0  2004/03/15 12.53
+___    ______ ____    _____ _____  ____ __ ______    ______ _________
0006364 50E0 D000/9008_      00000 33436              SEPYES   PROC
 USING  *,R7
 00637E 41F0 0004            00004 33475                       LA    R15,4
 006382 18D8/9808 D004_            33476                       PEND
 DROP   *,R7
                                   33496
 006390 50E0 D000/9008_      00000 33497              SEPNO    PROC
 USING  *,R7
 0063AA 9608 6004      00004       33536                       SET   RJEFNSEP
 0063AE 41F0 0004            00004 33542                       LA    R15,4
 0063B2 18D8/9808 D004_            33543                       PEND
 DROP   *,R7
                                   33563
 0063C0 50E0 D000/9008_      00000 33564              SEPBACK  PROC
 USING  *,R7
 0063DA 41F0 0008            00008 33603                       LA    R15,8
 0063DE 18D8/9808 D004_            33604                       PEND
 DROP   *,R7
                                   33624
 0063EC 50E0 D000/9008_      00000 33625              NOSEP    PROC
 USING  *,R7
 006406 9608 6004      00004       33664                       SET   RJEFNSEP            NOSEPARATOR
 00640A 18D8/9808 D004_            33670                       PEND
 DROP   *,R7
                                   33690
                                   33691                       QLTORG
1RJE      (RJE4072) (12:53) (15MAR04) RJE Options                                                                           Page   70
0Current Usings:  (RJEWA,R6) (CP,R11) (CV,R12)
0Loc    Object Code    Addr1 Addr2  Stmt Lv Lineno    Source Statement           (Hibal 5, Asmedit 3.3)  HLASM R4.0  2004/03/15 12.53
+___    ______ ____    _____ _____  ____ __ ______    ______ _________
0                                  33733                       AIF   (NOT &JESMAIL).JMAILB
 00651C 50E0 D000/9008_      00000 33734              MAIL     PROC
 USING  *,R7
 006536 9140 6007/47E0_00007       33773                       IF    (~RJEFOSCN,OR,(RJEMAIL,Z)),BEGIN
 006548 58F0 B08C/4110_      0008C 33803  1                      SCDQUOTE RJEMAIL
 00655A                            33824                       END
 00655A 1BFF                       33828                       CLEAR R15
 00655C 18D8/9808 D004_            33832                       PEND
 DROP   *,R7
                                   33852              .JMAILB  ANOP
                                   33853
 00656A 50E0 D000/9008_      00000 33854              SENDER   PROC
 USING  *,R7
 006584 9140 6007/47E0_00007       33893                       IF    (~RJEFOSCN,OR,(RJESEND,Z)),BEGIN
 006596 58F0 B08C/4110_      0008C 33923  1                      SCDQUOTE RJESEND
 0065A8                            33944                       END
 0065A8 1BFF                       33948                       CLEAR R15
 0065AA 18D8/9808 D004_            33952                       PEND
 DROP   *,R7
                                   33972
 000000                00000 000CD 33973              RJETOWA  RECORD BEGIN
 000000                            33981  1           RJETOA     DS    CL5
 000005                            33982  1           RJETOXX    DS    CL(L'RJETO+L'RJEDEST+64)
 0000CD                000CD 000CD 33983                       END
                                   33992
 0065B8 50E0 D000/9008_      00000 33993              TO       PROC  RJETOWA
 USING  *,R7
 USING  RJETOWA-(4+36),R8
                                   34043
 0065D2 5810 B08C/1B00_      0008C 34044                       SCANSTR ,                 Allow funny chars
 006618 58E0 7E0E/0DEE       073E0 34073                       SCANCHK
 00661E 1200/4720 705E_            34078                       IF    (R0,NP),'ERROR "Missing account after TO."'
 006630 58F0 B08C/4110_      0008C 34104                       SCDQUOTE RJETOXX
                                   34125
 006642 9140 6007/47E0_00007       34126                       IF    (~RJEFOSCN,OR,(RJETO,Z)),BEGIN
 006654 9108 6005/47E0_00005       34156  1                      IF    RJEFFAX,BEGIN       If fax job this is phone number
 00665C D27F 6375 C4D8 00375 004D8 34171  2                        MVC   RJETO,CVBLANKS
 006662 18F0                       34172  2                        LR    R15,R0
 006664 59F0 7E12/47D0_      073E4 34173  2                        CEIL  R15,L'RJETO
 006670 06F0/12FF/4740_            34192  2                        MOVE  R15,RJETO,@R1
 00667C 47F0 7244            06816 34230  2                        B     TOEXIT
 006680                            34231  1                      END
                                   34235  1
 006680 1851                       34236  1                      LR    R5,R1
 006682 1840                       34237  1                      LR    R4,R0
                                   34238  1                      ¿þþþþþþþþþþþþþþþþþþþþþþþþþþþþþþþþÜ
                                   34239  1                      Ÿ  First check for "user@dest".  Ÿ
                                   34240  1                      ¾þþþþþþþþþþþþþþþþþþþþþþþþþþþþþþþþ»
 006684 1200/47D0 717A             34241  1                      WHILE (R0,POS),BEGIN
 00668A 957C 1000/4770_00000       34257  2                        IF    (@R1,EQ,'@'),BEGIN  It's user@dest...
 006692 1B40                       34273  3                          SR    R4,R0               Length of user part only
 006694 4110 1001            00001 34274  3                          LA    R1,@R1+1            Text past "@"
 006698 0600                       34275  3                          DECR  R0
                                   34277  3
1RJE      (RJE4072) (12:53) (15MAR04) RJE Options                                                                           Page   71
0Current Usings:  (RJEWA,R6) (*,R7) (RJETOWA-(4+36),R8) (CP,R11) (CV,R12)
0Loc    Object Code    Addr1 Addr2  Stmt Lv Lineno    Source Statement           (Hibal 5, Asmedit 3.3)  HLASM R4.0  2004/03/15 12.53
+___    ______ ____    _____ _____  ____ __ ______    ______ _________
000669A 5900 7E16/4750_      073E8 34278  3                          IF    (R0,GE,7),BEGIN     Check for ".BITNET" suffix...
 0066A2 18F1                       34295  4                            LR    R15,R1
 0066A4 1AF0                       34296  4                            AR    R15,R0
 0066A6 4BF0 7E80            07452 34297  4                            SH    R15,=H'7'           Last seven chars of id
 0066AA D506 7F0F F000_074E1 00000 34298  4                            IF    (@R15,EQ,'.BITNET'),'SH R0,=H"7"'  Ignore suffix
 0066B8                            34320  3                          END
                                   34324  3
 0066B8 D207 6037 C4D8 00037 004D8 34325  3                          MVC   RJEDEST,CVBLANKS
 0066BE 18F0                       34326  3                          LR    R15,R0
 0066C0 59F0 7E1A/47D0_      073EC 34327  3                          CEIL  R15,L'RJEDEST
 0066CC 06F0/12FF/4740_            34346  3                          MOVE  R15,RJEDEST,@R1     Save dest
                                   34384  3
 0066D8 4110 6037            00037 34385  3                          LA    R1,RJEDEST
 0066DC 58E0 7E1E/0DEE       073F0 34386  3                          VCALL DESTCHK
 0066E2 4780 7140            06712 34390  3                          IF    NZ,BEGIN
 0066E6 4110 6037/4100_      00037 34401  4                            TSEG  RJEDEST,,TB
 0066F8 4110 7E82/4100_      07454 34429  4                            TSEG  'is an unknown address.',,CR
 00670A 9620 BD5C      00D5C       34447  4                            SET   CPFBDEST            (Kludge: info need in MAIL)
 00670E 9640 BD5A      00D5A       34453  4                            SET   CPFERROR            Error message
 006712                            34459  3                          END
                                   34463  3
 006712 D27F 6375 C4D8 00375 004D8 34464  3                          MVC   RJETO,CVBLANKS
 006718 5940 7E12/47D0_      073E4 34465  3                          CEIL  R4,L'RJETO
 006724 0640/1244/4740_            34484  3                          MOVE  R4,RJETO,@R5        Save user name
 006730 D704 6370 6370 00370 00370 34522  3                          CLEAR RJETOACC
 006736 9640 6005      00005       34529  3                          SET   RJEFEXT
                                   34535  3
 00673A 94F7 6003      00003       34536  3                          CLEAR RJEFFMT             (Unformatted output for BITNET)
 00673E 47F0 7244            06816 34543  3                          B     TOEXIT
 006742                            34544  2                        END
                                   34548  2
 006742 4110 1001            00001 34549  2                        LA    R1,@R1+1
 006746 0600                       34550  2                        DECR  R0
 006748 47F0 70B2            06684 34552  1                      END
                                   34557  1                      ¿þþþþþþþþþþþþþþþþþþþþþþþþþþþþþþþþþþþþþþþþþþþþþÜ
                                   34558  1                      Ÿ  Check for userid or gg.uuu style account.  Ÿ
                                   34559  1                      ¾þþþþþþþþþþþþþþþþþþþþþþþþþþþþþþþþþþþþþþþþþþþþþ»
 00674C 1815/1804                  34560  1                      SETMSG (R5),(R4)           Userid info
 006750 41F0 6370            00370 34572  1                      LA    R15,RJETOACC        Put "uuugg" here
 006754 58E0 7E2A/0DEE       073FC 34573  1                      VCALL GETACCT             Get account
 00675A 4770 71AA            0677C 34577  1                      IF    Z,BEGIN             We have the account...
 00675E D27F 6375 C4D8 00375 004D8 34588  2                        MVC   RJETO,CVBLANKS
 006764 5940 7E12/47D0_      073E4 34589  2                        CEIL  R4,L'RJETO
 006770 0640/1244/4740_            34608  2                        MOVE  R4,RJETO,@R5        Save TO userid part too
 00677C                            34646  1                      END
                                   34650  1                      ¿þþþþþþþþþþþþþþþÜ
                                   34651  1                      Ÿ  Accept uuu.  Ÿ
                                   34652  1                      ¾þþþþþþþþþþþþþþþ»
 00677C 71AE/47F0 71C2_0677C 0675C 34653  1                      ELSEIF (R4,EQ,3),BEGIN    Just uuu...
 006788 D202 6370 5000 00370 00000 34679  2                        MVC   RJETOACC(3),@R5
 00678E D201 6373 B3B7 00373 003B7 34680  2                        MVC   RJETOACC+3(2),CPSGRP
 006794                            34681  1                      END
1RJE      (RJE4072) (12:53) (15MAR04) RJE Options                                                                           Page   72
0Current Usings:  (RJEWA,R6) (*,R7) (RJETOWA-(4+36),R8) (CP,R11) (CV,R12)
0Loc    Object Code    Addr1 Addr2  Stmt Lv Lineno    Source Statement           (Hibal 5, Asmedit 3.3)  HLASM R4.0  2004/03/15 12.53
+___    ______ ____    _____ _____  ____ __ ______    ______ _________
0                                  34685  1                      ¿þþþþþþþþþþþþþþþþþþþþþþþþþþþþþþþþþþþþþÜ
                                   34686  1                      Ÿ  Accept gg.uuu, gg$uuu, or uuu$gg.  Ÿ
                                   34687  1                      ¾þþþþþþþþþþþþþþþþþþþþþþþþþþþþþþþþþþþþþ»
 006794 71C6/47F0 7244 06794 06786 34688  1                      ELSE  BEGIN               Check for complete account...
 006798 5940 7E32/4780_      07404 34699  2                        IF    (R4,NE,6),'VCALL NOTVALID'
                                   34725  2         C              IF    ((@R5+2,NE,'.'),AND,(@R5+2,NE,'$'),AND,
 0067A6 954B 5002/4780_00002              2                              (@R5+3,NE,'$')),'VCALL NOTVALID'
 0067C4 954B 5002/4770_00002       34778  2                 IF  (@R5+2,EQ,'.'),'MVC RJETOACC(3),@R5+3; MVC RJETOACC+3(2),@R5'
 0067D8 955B 5002/4770_00002       34801  2                 IF  (@R5+2,EQ,'$'),'MVC RJETOACC(3),@R5+3; MVC RJETOACC+3(2),@R5'
 0067EC 955B 5003/4770_00003       34824  2                 IF  (@R5+3,EQ,'$'),'MVC RJETOACC(3),@R5; MVC RJETOACC+3(2),@R5+4'
 006800 D27F 6375 C4D8 00375 004D8 34847  2                        MVC   RJETO,CVBLANKS
 006806 D201 6375 6373 00375 00373 34848  2                        MVC   RJETO(2),RJETOACC+3  Form "gg.uuu"...
 00680C 924B 6377      00377       34849  2                        MVI   RJETO+2,C'.'
 006810 D202 6378 6370 00378 00370 34850  2                        MVC   RJETO+3(3),RJETOACC
 006816                            34851  1                      END
 006816                            34855                       END
                                   34859
 006816                            34860              TOEXIT   LABEL
 006816 1BFF                       34862                       CLEAR R15
 006818 18D8/9808 D004_            34866                       PEND  ,
 DROP   RJETOWA-(4+36),R8
 DROP   *,R7
                                   34891
 006826 50E0 D000/9008_      00000 34892              DEST     PROC
 USING  *,R7
 006840 957D 1000/4780_00000       34931                       IF    ((@R1,EQ,''''),OR,(@R1,EQ,'"')),'VCALL NOTVALID'
 006856 954D 1000/4770_00000       34971                       IF    (@R1,EQ,'('),'VCALL NOTVALID'
 006864 5900 7BAC/47D0_      073EC 34996                       IF    (R0,GT,L'RJEDEST),'VCALL NOTVALID'
 006872 9140 6007/47E0_00007       35022                       IF    (~RJEFOSCN,OR,(RJEDEST,Z)),BEGIN
 006884 5810 B08C/4111_      0008C 35052  1                      SCUPTOK (R1)
 00688C D207 6037 1000 00037 00000 35056  1                      MVC   RJEDEST,@R1
 006892 4110 6037            00037 35057  1                      LA    R1,RJEDEST
 006896 58E0 7BCC/0DEE       0740C 35058  1                      VCALL DESTVER
 00689C                            35062                       END
 00689C 1BFF                       35066                       CLEAR R15
 00689E 18D8/9808 D004_            35070                       PEND
 DROP   *,R7
                                   35090
 0068AC 50E0 D000/9008_      00000 35091              FORMS    PROC
 USING  *,R7
 0068C6 5900 7B4A/47D0_      07410 35130                       IF    (R0,GT,L'RJEFORMS),'VCALL NOTVALID'
 0068D4 9140 6007/47E0_00007       35156                       IF    (~RJEFOSCN,OR,(RJEFORMS,Z)),BEGIN
 0068E6 5810 B08C/4111_      0008C 35186  1                      SCUPTOK (R1)
 0068EE D207 6042 1000 00042 00000 35190  1                      MVC   RJEFORMS,@R1
 0068F4 D502 7C22 6042_074E8 00042 35191  1                      IF    (RJEFORMS,EQ,'SEL'),BEGIN
 0068FE 4110 7C25/4100_      074EB 35208  2                        TSEG  'SELF is not a forms code.  '
 006910 4110 7C40/4100_      07506 35226  2                        ERROR 'Use DEST=SELF for self-service printer.'
 00691C                            35233  1                      END
 00691C                            35237                       END
 00691C 1BFF                       35241                       CLEAR R15
 00691E 18D8/9808 D004_            35245                       PEND
 DROP   *,R7
                                   35265
 00692C 50E0 D000/9008_      00000 35266              FCB      PROC   ,
1RJE      (RJE4072) (12:53) (15MAR04) RJE Options                                                                           Page   73
0Current Usings:  (RJEWA,R6) (*,R7) (CP,R11) (CV,R12)
0Loc    Object Code    Addr1 Addr2  Stmt Lv Lineno    Source Statement           (Hibal 5, Asmedit 3.3)  HLASM R4.0  2004/03/15 12.53
+___    ______ ____    _____ _____  ____ __ ______    ______ _________
0USING  *,R7
 006946 5900 7AD2/47D0_      07418 35305                       IF    (R0,GT,L'RJEFCB),'VCALL NOTVALID'
 006954 5810 B08C/4111_      0008C 35331                       SCUPTOK (R1)
 00695C 9140 6007/47E0_00007       35335                       IF    (~RJEFOSCN,OR,(RJEFCB,Z)),'MVC RJEFCB,@R1'
 006974 1BFF                       35371                       CLEAR R15
 006976 18D8/9808 D004_            35375                       PEND  ,
 DROP   *,R7
                                   35395
 006984 50E0 D000/9008_      00000 35396              PRINTER  PROC
 USING  *,R7
 00699E 5900 7A7E/47D0_      0741C 35435                       IF    (R0,GT,L'RJEPRINT),'VCALL NOTVALID'
 0069AC 58F0 B08C/41FF_      0008C 35461                       SCUPTOK (R15)
                                   35465            C          IF    ((@R15,NE,'3800 '),AND,(@R15,NE,'IMPACT '),AND,
 0069B4 D504 7B8F F000_0752D 00000                                   (@R15,NE,'ANY ')),BEGIN
 0069D2 41F0 B050/58E0_      00050 35509  1                      TSEG  (R1),(R0)
 0069DC D207 B886 7A32_00886 073D0 35533  1                      ERROR ': invalid printer',,INVPRT
 0069EE                            35541                       END
 0069EE 9140 6007/47E0_00007       35545                       IF    (~RJEFOSCN,OR,(RJEPRINT,Z)),'MVC RJEPRINT,@R15'
 006A06 1BFF                       35581                       CLEAR R15
 006A08 18D8/9808 D004_            35585                       PEND
 DROP   *,R7
                                   35605
 006A16 50E0 D000/9008_      00000 35606              BURST    PROC
 USING  *,R7
 006A30 9620 6005      00005       35645                       SET   RJEFBRST
 006A34 5810 B08C/1B00_      0008C 35651                       SCAN  BURSTPRT
 006A86 58E0 79B0/0DEE       073E0 35683                       SCANCHK
 006A8C 59F0 79FC/4780_      0742C 35688                       IF    (R15,NE,4),BEGIN
 006A94 58E0 B08C/58FE_      0008C 35705  1                      SCBKUP
 006ACA                            35761                       END
 006ACA 1BFF                       35765                       CLEAR R15
 006ACC 18D8/9808 D004_            35769                       PEND
 DROP   *,R7
                                   35789
 006ADC E840404040404040_          35790              BURSTPRT SCKW  Y,BURSTY
 006B04 E8C5E24040404040_          35805                       SCKW  YES,BURSTY
 006B2C 4040404040404040_          35820                       SCKW  ,BURSTRST
                                   35835
 006B54 50E0 D000/9008_      00000 35836              BURSTY   PROC  ,
 USING  *,R7
 006B6E 41F0 0004            00004 35875                       LA    R15,4
 006B72 18D8/9808 D004_            35876                       PEND
 DROP   *,R7
                                   35896
 006B80 50E0 D000/9008_      00000 35897              BURSTRST PROC  ,
 USING  *,R7
 006B9A 41F0 0008            00008 35936                       LA    R15,8
 006B9E 18D8/9808 D004_            35937                       PEND
 DROP   *,R7
                                   35957
 006BAC 50E0 D000/9008_      00000 35958              DUPLEX   PROC  ,
 USING  *,R7
 006BC6 9610 6001/94F7_00001       35997                       SET   RJEFDUP,(RJEFNDUP,OFF)
 006BCE 5810 B08C/1B00_      0008C 36008                       SCAN  DUPPRT
1RJE      (RJE4072) (12:53) (15MAR04) RJE Options                                                                           Page   74
0Current Usings:  (RJEWA,R6) (*,R7) (CP,R11) (CV,R12)
0Loc    Object Code    Addr1 Addr2  Stmt Lv Lineno    Source Statement           (Hibal 5, Asmedit 3.3)  HLASM R4.0  2004/03/15 12.53
+___    ______ ____    _____ _____  ____ __ ______    ______ _________
0006C20 58E0 781A/0DEE       073E0 36040                       SCANCHK
 006C26 59F0 7866/4780_      0742C 36045                       IF    (R15,NE,4),BEGIN
 006C2E 58E0 B08C/58FE_      0008C 36062  1                      SCBKUP
 006C64                            36118                       END
 006C64 1BFF                       36122                       CLEAR R15
 006C66 18D8/9808 D004_            36126                       PEND
 DROP   *,R7
                                   36146
 006C74 E840404040404040_          36147              DUPPRT   SCKW  Y,DUPY
 006C9C E8C5E24040404040_          36162                       SCKW  YES,DUPY
 006CC4 4040404040404040_          36177                       SCKW  ,DUPRST
                                   36192
 006CEC 50E0 D000/9008_      00000 36193              DUPY     PROC  ,
 USING  *,R7
 006D06 41F0 0004            00004 36232                       LA    R15,4
 006D0A 18D8/9808 D004_            36233                       PEND
 DROP   *,R7
                                   36253
 006D18 50E0 D000/9008_      00000 36254              DUPRST   PROC  ,
 USING  *,R7
 006D32 41F0 0008            00008 36293                       LA    R15,8
 006D36 18D8/9808 D004_            36294                       PEND
 DROP   *,R7
                                   36314
 006D44 50E0 D000/9008_      00000 36315              NODUPLEX PROC
 USING  *,R7
 006D5E 9608 6001/94EF_00001       36354                       SET   RJEFNDUP,(RJEFDUP,OFF)
 006D66 18D8/9808 D004_            36365                       PEND
 DROP   *,R7
                                   36385
 006D74 50E0 D000/9008_      00000 36386              PFORMAT  PROC
 USING  *,R7
 006D8E 5900 76A6/47D0_      07434 36425                       IF    (R0,GT,L'RJEPFORM),'VCALL NOTVALID'
 006D9C 5810 B08C/4111_      0008C 36451                       SCUPTOK (R1)
 006DA4 9140 6007/47E0_00007       36455                       IF    (~RJEFOSCN,OR,(RJEPFORM,Z)),'MVC RJEPFORM,@R1'
 006DBC 1BFF                       36491                       CLEAR R15
 006DBE 18D8/9808 D004_            36495                       PEND
 DROP   *,R7
                                   36515
 006DCC 50E0 D000/9008_      00000 36516              LAND     PROC
 USING  *,R7
 006DE6 9140 6007/47E0_00007       36555                       IF    (~RJEFOSCN,OR,(RJEPFORM,Z)),BEGIN  PFORMAT...
 006DF8 D205 6018 7684 00018 0746A 36585  1                      MVC   RJEPFORM,=CL(L'RJEPFORM)'LAND'  Landscape mode
 006DFE                            36586                       END
 006DFE 18D8/9808 D004_            36590                       PEND
 DROP   *,R7
                                   36610
 006E0C 50E0 D000/9008_      00000 36611              PORT     PROC
 USING  *,R7
 006E26 9140 6007/47E0_00007       36650                       IF    (~RJEFOSCN,OR,(RJEPFORM,Z)),BEGIN  PFORMAT...
 006E38 D205 6018 764A 00018 07470 36680  1                      MVC   RJEPFORM,=CL(L'RJEPFORM)'PORT'  Portrait mode
 006E3E                            36681                       END
 006E3E 18D8/9808 D004_            36685                       PEND
 DROP   *,R7
1RJE      (RJE4072) (12:53) (15MAR04) RJE Options                                                                           Page   75
0Current Usings:  (RJEWA,R6) (CP,R11) (CV,R12)
0Loc    Object Code    Addr1 Addr2  Stmt Lv Lineno    Source Statement           (Hibal 5, Asmedit 3.3)  HLASM R4.0  2004/03/15 12.53
+___    ______ ____    _____ _____  ____ __ ______    ______ _________
0                                  36705
 006E4C 50E0 D000/9008_      00000 36706              POST     PROC
 USING  *,R7
 006E66 9140 6007/47E0_00007       36745                       IF    (~RJEFOSCN,OR,(RJEPFORM,Z)),BEGIN  PFORMAT...
 006E78 D205 6018 7610 00018 07476 36775  1                      MVC   RJEPFORM,=CL(L'RJEPFORM)'POST'  Postscript
 006E7E 94F7 6003      00003       36776  1                      CLEAR RJEFFMT             Unformatted
 006E82 9680 BD54      00D54       36783  1                      SET   CPLFLG5.CPFUNUM     Unnumbered
 006E86                            36790                       END
 006E86 1BFF                       36794                       CLEAR R15
 006E88 18D8/9808 D004_            36798                       PEND
 DROP   *,R7
                                   36818
 006E96 50E0 D000/9008_      00000 36819              FLASH    PROC
 USING  *,R7
 006EB0 5900 7588/47D0_      07438 36858                       IF    (R0,GT,L'RJEFLASH),'VCALL NOTVALID'
 006EBE 5810 B08C/4111_      0008C 36884                       SCUPTOK (R1)
 006EC6 9140 6007/47E0_00007       36888                       IF    (~RJEFOSCN,OR,(RJEFLASH,Z)),'MVC RJEFLASH,@R1'
 006EDE 1BFF                       36924                       CLEAR R15
 006EE0 18D8/9808 D004_            36928                       PEND
 DROP   *,R7
                                   36948
 006EEE 50E0 D000/9008_      00000 36949              MANUAL   PROC
 USING  *,R7
 006F08 9140 6007/47E0_00007       36988                       IF    (~RJEFOSCN,OR,(RJEFMAN+RJEFFMAN,Z)),BEGIN
 006F18 9604 6004/94FD_00004       37022  1                      SET   RJEFMAN,(RJEFFMAN,OFF)
 006F20                            37033                       END
 006F20 18D8/9808 D004_            37037                       PEND
 DROP   *,R7
                                   37057
 006F2E 50E0 D000/9008_      00000 37058              FMANUAL  PROC
 USING  *,R7
 006F48 9140 6007/47E0_00007       37097                       IF    (~RJEFOSCN,OR,(RJEFMAN+RJEFFMAN,Z)),BEGIN
 006F58 9602 6004/94FB_00004       37131  1                      SET   RJEFFMAN,(RJEFMAN,OFF)
 006F60                            37142                       END
 006F60 18D8/9808 D004_            37146                       PEND
 DROP   *,R7
                                   37166
 006F6E 50E0 D000/9008_      00000 37167              CHARS    PROC
 USING  *,R7
 006F88 9140 6007/47E0_00007       37206                       IF    (~RJEFOSCN,OR,(RJECHARS,Z)),BEGIN
 006F9A D70F 605A 605A 0005A 0005A 37236  1                      CLEAR RJECHARS
 006FA0 954D 1000/4780_00000       37243  1                      IF    (@R1,NE,'('),BEGIN
 006FA8 5900 74B4/47D0_      0743C 37259  2                        IF    (R0,GT,L'RJECHAR0),'VCALL NOTVALID'
 006FB6 58F0 B08C/41FF_      0008C 37285  2                        SCUPTOK (R15)
 006FBE D203 605A F000 0005A 00000 37289  2                        MVC   RJECHAR0,@R15
 006FC4                            37290  1                      END
 006FC4 7040/47F0 7168 06FC4 06FA6 37294  1                      ELSE  BEGIN
 006FC8 58E0 B08C/D2AF_      0008C 37305  2                        SCPUSH
 006FD6 4B00 74F4            0747C 37311  2                        SH    R0,=H'2'
 006FDA 4110 1001/58E0_      00001 37312  2                        SCINIT @R1+1,(R0)
 006FEC 4130 605A            0005A 37335  2                        LA    R3,RJECHARS
 006FF0 4120 0004            00004 37336  2                        LA    R2,4                Max. no of char sets
 006FF4 5810 B08C/1B00_      0008C 37337  2           CHARLOOP     SCAN
 007042 58E0 7458/0DEE       073E0 37368  2                        SCANCHK
1RJE      (RJE4072) (12:53) (15MAR04) RJE Options                                                                           Page   76
0Current Usings:  (RJEWA,R6) (*,R7) (CP,R11) (CV,R12)
0Loc    Object Code    Addr1 Addr2  Stmt Lv Lineno    Source Statement           (Hibal 5, Asmedit 3.3)  HLASM R4.0  2004/03/15 12.53
+___    ______ ____    _____ _____  ____ __ ______    ______ _________
0007048 1200/4780 7150             37373  2                        IF    (R0,Z),CHARDONE
 00704E 5900 74B4/47D0_      0743C 37390  2                        IF    (R0,GT,L'RJECHAR0),'VCALL NOTVALID'
 00705C 58F0 B08C/41FF_      0008C 37416  2                        SCUPTOK (R15)
 007064 D203 3000 F000 00000 00000 37420  2                        MVC   @R3(L'RJECHAR0),@R15
 00706A 4130 3004            00004 37421  2                        LA    R3,@R3+L'RJECHAR0
 00706E 4620 706C            06FF4 37422  2                        BCT   R2,CHARLOOP
 007072 5810 B08C/1B00_      0008C 37423  2                        SCAN
 0070C0 58E0 7458/0DEE       073E0 37454  2                        SCANCHK
 0070C6 1200/4780 7150_            37459  2                        IF    (R0,NZ),'ERROR "Only 4 character sets allowed."'
 0070D8 D60F 605A 605A_0005A 0005A 37485  2           CHARDONE     IF    (RJECHARS,Z),CVABSENT
 0070E2 58E0 B08C/4BD0_      0008C 37505  2                        SCPOP
 0070F0                            37511  1                      END
 0070F0 D60B 605E 605E_0005E 0005E 37515  1                      IF    (RJECHARM,NZ),'SET RJEFTRC'  Mult char sets
 0070FE                            37542                       END
 0070FE 1BFF                       37546                       CLEAR R15
 007100 18D8/9808 D004_            37550                       PEND
 DROP   *,R7
                                   37570
 00710E 50E0 D000/9008_      00000 37571              TRC      PROC
 USING  *,R7
 007128 9140 6007/47E0_00007       37610                       IF    (~RJEFOSCN,OR,~RJEFTRC),'SET RJEFTRC'
 00713C 18D8/9808 D004_            37650                       PEND
 DROP   *,R7
                                   37670
 00714A 50E0 D000/9008_      00000 37671              FICHE    PROC
 USING  *,R7
 007164 4110 73E6/4100_      0754A 37710                       SETMSG '&FICCLAS'          Fiche = sysout=m
 00716C 58E0 72DC/0DEE       07440 37714                       ACALL SYSOUTX
 007172 1BFF                       37718                       CLEAR R15
 007174 18D8/9808 D004_            37722                       PEND
 DROP   *,R7
                                   37742
 007182 50E0 D000/9008_      00000 37743              UPLOW    PROC
 USING  *,R7
 00719C 4110 73AF/4100_      0754B 37782                       SETMSG '&DOCCLAS'          Uplow = sysout=d
 0071A4 58E0 72A4/0DEE       07440 37786                       ACALL SYSOUTX
 0071AA 1BFF                       37790                       CLEAR R15
 0071AC 18D8/9808 D004_            37794                       PEND
 DROP   *,R7
                                   37814
 0071BA 50E0 D000/9008_      00000 37815              SYSOUT   PROC
 USING  *,R7
 0071D4 5810 B08C/4111_      0008C 37854                       SCUPTOK (R1)
 0071DC 58E0 726C/0DEE       07440 37858                       ACALL SYSOUTX
 0071E2 1BFF                       37862                       CLEAR R15
 0071E4 18D8/9808 D004_            37866                       PEND
 DROP   *,R7
                                   37886
 0071F2 50E0 D000/9008_      00000 37887              SYSOUTX  PROC
 USING  *,R7
 00720C 5900 7238/47D0_      07444 37926                       IF    (R0,GT,L'RJESYSCL),'VCALL NOTVALID'
 00721A 9140 6007/47E0_00007       37952                       IF    (~RJEFOSCN,OR,(RJESYSCL,Z)),BEGIN
 00722A D200 6013 1000 00013 00000 37982  1                      MVC   RJESYSCL,@R1
 007230 95C2 6013/4770_00013       37983  1                      IF    (RJESYSCL,EQ,'B'),BEGIN
1RJE      (RJE4072) (12:53) (15MAR04) RJE Options                                                                           Page   77
0Current Usings:  (RJEWA,R6) (*,R7) (CP,R11) (CV,R12)
0Loc    Object Code    Addr1 Addr2  Stmt Lv Lineno    Source Statement           (Hibal 5, Asmedit 3.3)  HLASM R4.0  2004/03/15 12.53
+___    ______ ____    _____ _____  ____ __ ______    ______ _________
0007238 4110 7292/4100_      0749E 38000  2                        ABORT 'Use the PUNCH command instead of SYSOUT=B.'
 007244                            38007  1                      END
 007244                            38011                       END
 007244 1BFF                       38015                       CLEAR R15
 007246 18D8/9808 D004_            38019                       PEND
 DROP   *,R7
                                   38039
 007254 50E0 D000/9008_      00000 38040              SYS      PROC
 USING  *,R7
 00726E 5810 B08C/4111_      0008C 38079                       SCUPTOK (R1)
 007276 5900 71D6/4770_      07444 38083                       IF    (R0,EQ,L'RJESYSCL),'ACALL SYSOUTX'
 007284 701A/47F0 7020_07284 0727C 38109                       ELSE  'ACALL SYSAFF'
 00728E 1BFF                       38129                       CLEAR R15
 007290 18D8/9808 D004_            38133                       PEND
 DROP   *,R7
                                   38153
 00729E 50E0 D000/9008_      00000 38154              SYSAFF   PROC
 USING  *,R7
 0072B8 58F0 B08C/41FF_      0008C 38193                       SCUPTOK (R15)
                                   38197            C          IF    ((@R15,NE,'RLG '),AND,(@R15,NE,'3081 '),AND,
                                                    C                (@R15,NE,'SYS'),AND,
 0072C0 D503 7194 F000_0744C 00000                                   (@R15,NE,'ANY ')),'VCALL NOTVALID'
 0072EE 9140 6007/47E0_00007       38263                       IF    (~RJEFOSCN,OR,(RJESYSAF,Z)),BEGIN
 007300 D203 6014 F000 00014 00000 38293  1                      MVC   RJESYSAF,@R15
 007306                            38294                       END
 007306 1BFF                       38298                       CLEAR R15
 007308 18D8/9808 D004_            38302                       PEND
 DROP   *,R7
                                   38322
 007316 50E0 D000/9008_      00000 38323              NOLOG    PROC
 USING  *,R7
 007330 9140 6007/47E0_00007       38362                       IF    (~RJEFOSCN,OR,~RJENOLOG),'SET RJENOLOG'
 007344 18D8/9808 D004_            38402                       PEND
 DROP   *,R7
                                   38422
 007352 50E0 D000/9008_      00000 38423              NOJCL    PROC
 USING  *,R7
 00736C 9140 6007/47E0_00007       38462                       IF    (~RJEFOSCN,OR,~RJENOJCL),'SET RJENOJCL'
 007380 18D8/9808 D004_            38502                       PEND
 DROP   *,R7
                                   38522
 00738E 50E0 D000/9008_      00000 38523              NOMSG    PROC
 USING  *,R7
 0073A8 9140 6007/47E0_00007       38562                       IF    (~RJEFOSCN,OR,(RJENOLOG+RJENOJCL,Z)),BEGIN
 0073B8 9680 6006/9640_00006       38596  1                      SET   RJENOLOG,RJENOJCL
 0073C0                            38606                       END   ,
 0073C0 18D8/9808 D004_            38610                       PEND
 DROP   *,R7
                                   38630
                                   38631                       QLTORG
1RJE      (RJE4072) (12:53) (15MAR04) RJE Subroutines                                                                       Page   78
0Current Usings:  (RJEWA,R6) (CP,R11) (CV,R12)
0Loc    Object Code    Addr1 Addr2  Stmt Lv Lineno    Source Statement           (Hibal 5, Asmedit 3.3)  HLASM R4.0  2004/03/15 12.53
+___    ______ ____    _____ _____  ____ __ ______    ______ _________
0                                  38697              ¿þþþþþþþþþþþþþþþþþþþþþþþþþþþþþþþþþþþþþþþþþþþþþþþþþþþþþþþþþþþþþþþþþþþþþÜ
                                   38698              Ÿ                                                                     Ÿ
                                   38699              Ÿ  JOBOPEN -- Routine to set things up for job submission.            Ÿ
                                   38700              Ÿ                                                                     Ÿ
                                                      ¾þþþþþþþþþþþþþþþþþþþþþþþþþþþþþþþþþþþþþþþþþþþþþþþþþþþþþþþþþþþþþþþþþþþþþ»
000756C 50E0 D000/9008_      00000 38701              JOBOPEN  PROC
 USING  *,R7
 007586 41F0 0001/5EF0_      00001 38740                       INCR  R15,CVNRJE          Total wylbur submission count
 007592 9680 6007      00007       38746                       SET   RJEFOPEN
 007596 18D8/9808 D004_            38752                       PEND
 DROP   *,R7
1RJE      (RJE4072) (12:53) (15MAR04) RJE Subroutines                                                                       Page   79
0Current Usings:  (RJEWA,R6) (CP,R11) (CV,R12)
0Loc    Object Code    Addr1 Addr2  Stmt Lv Lineno    Source Statement           (Hibal 5, Asmedit 3.3)  HLASM R4.0  2004/03/15 12.53
+___    ______ ____    _____ _____  ____ __ ______    ______ _________
0000000                00000 0008C 38773              JCLSWA   RECORD BEGIN
                                   38781  1           JCLSX      SEGCB
 000000 00                         38782  1 01-SEGCB +$$$SEGCB1087   DS 0F
 JCLSXCOD.JCLSXSEG 01 EQ
 JCLSXCOD.JCLSXWR  02 EQ
 JCLSXCOD.JCLSXCLR 03 EQ
 JCLSXCOD.JCLSXSPP 04 EQ
 JCLSXCOD.JCLSXOVF 05 EQ
 JCLSXCOD.JCLSXCR  06 EQ
 JCLSXCOD.JCLSXMAR 07 EQ
 000001 00                         38857  1 01-SEGCB +           DC    X'00'               Reserved
 000002 0000                              1          +
 000004 00000000                   38858  1 01-SEGCB +JCLSXMAXF   DC   A(0)                Maximum buffer length
 000008 00000000                   38859  1 01-SEGCB +JCLSXMRKF   DC   A(0)                Length at last mark
 00000C 00000000                   38860  1 01-SEGCB +JCLSXLENF   DC   A(0)                Current length
 000010 00000000                   38861  1 01-SEGCB +JCLSXINDF   DC   A(0)                Overflow/indent count
 000014 00000000                   38862  1 01-SEGCB +JCLSXERR   DC    A(0)                Address of error recovery routine
 000018 0000000000000000           38863  1 01-SEGCB +           DC    2F'0'               Reserved
 000020 00000000                   38864  1 01-SEGCB +JCLSXLOC   DC    A(0)                Location of buffer
 000024 00000000                   38865  1 01-SEGCB +JCLSXRTN   DC    A(0)                Processing routine
 000028 0000000000000000           38866  1 01-SEGCB +           DC    4F'0'               Reserved
 000038 00000000                   38867  1 01-SEGCB +JCLSXUSR   DC    A(0)                USER field
                                   38868  1 01-SEGCB +JCLSX      EQU   $$$SEGCB1087,*-$$$SEGCB1087,C'X'
 00003C                            38869  1           JCLSBUF    DS    CL80                Working command buffer
 00008C                0008C 0008C 38870                       END
-                                  38880              ¿þþþþþþþþþþþþþþþþþþþþþþþþþþþþþþþþþþþþþþþþþþþþþþþþþþþþþþþþþþþþþþþþþþþþþÜ
                                   38881              Ÿ                                                                     Ÿ
                                   38882              Ÿ  JOBCLOSE -- Routine to close job submission path (if open) and     Ÿ
                                   38883              Ÿ    locate job.                                                      Ÿ
                                   38884              Ÿ                                                                     Ÿ
                                                      ¾þþþþþþþþþþþþþþþþþþþþþþþþþþþþþþþþþþþþþþþþþþþþþþþþþþþþþþþþþþþþþþþþþþþþþ»
00075A4 50E0 D000/9008_      00000 38885              JOBCLOSE PROC  JCLSWA
 USING  *,R7
 USING  JCLSWA-(4+36),R8
                                   38935
 0075BE 9180 6007/47E0_00007       38936                       IF    RJEFOPEN,BEGIN
 0075C6 58E0 76AA/0DEE       07C68 38951  1                      ACALL JOBCNTL             Send control cards if needed
 0075CC 58E0 76AE/0DEE       07C6C 38955  1                      VCALL JESOCLS             Close submission path (R15=jobno)
 0075D2 185F                       38959  1                      LR    R5,R15              Save jobno
 0075D4 947F 6007      00007       38960  1                      CLEAR RJEFOPEN
                                   38967  1
 0075D8 9104 6001/47E0_00001       38968  1                      IF    RJEFDUMB,BEGIN      Submit lines asis...
 0075E0 4110 765A/4100_      07C18 38983  2                        TSEG  'Lines submitted to JES2.',,WR
 0075F2 47F0 7174            07732 39001  2                        B     JOBCLXIT            Scram
 0075F6                            39002  1                      END
                                   39006  1
 0075F6 1255/4780 7056             39007  1                      IF    (R5,NZ),BEGIN       We have a jobno...
 0075FC 9180 6005/4710_00005       39021  2                        IF    RJEFLPR,EXIT        Don't update jobno for LPRINT
 007604 4050 BC88            00C88 39039  2                        STH   R5,CPDOUB           New jobno
 007608 D205 BC8A BA19 00C8A 00A19 39040  2                        MVC   CPDOUB+2(6),CPJOBS  Old jobnos
 00760E D207 BA19 BC88 00A19 00C88 39041  2                        MVC   CPJOBS,CPDOUB
1RJE      (RJE4072) (12:53) (15MAR04) RJE Subroutines                                                                       Page   80
0Current Usings:  (RJEWA,R6) (*,R7) (JCLSWA-(4+36),R8) (CP,R11) (CV,R12)
0Loc    Object Code    Addr1 Addr2  Stmt Lv Lineno    Source Statement           (Hibal 5, Asmedit 3.3)  HLASM R4.0  2004/03/15 12.53
+___    ______ ____    _____ _____  ____ __ ______    ______ _________
0007614                            39042  1                      END
                                   39046  1
 007614 1255/4780 713A             39047  1                      IF    (R5,NZ),BEGIN       Locate jobno...
 00761A 4110 8064/4100_      0003C 39061  2                        SEGINIT JCLSBUF,,JCLSX
                                   39088  2                        ¿þþþþþþþþþþþþþþþþþþþþþþþþþþþþþþþþÜ
                                   39089  2                        Ÿ  Build "LOCATE nnnn" command.  Ÿ
                                   39090  2                        ¾þþþþþþþþþþþþþþþþþþþþþþþþþþþþþþþþ»
 00762C 9180 6005/4710_00005       39091  2                        IF    ~RJEFLPR,BEGIN      Not LPRINT...
 007634 9140 BD55/4710_00D55       39106  3                          IF    CPFQUIET,JOBCLXIT   Skip locate if QUIET
 00763C 4110 771C/4100_      07CDA 39124  3                          SEG   'LOCATE '
 00764E 1815/1B00/41F0_            39141  3                          SEGDC (R5)                Jobno
 00765C                            39162  2                        END
                                   39166  2                        ¿þþþþþþþþþþþþþþþþþþþþþþþþþþþþþþþþþþþþþþþþþþþþþþþþþþþþþþþþþþþþþþþÜ
                                   39167  2                        Ÿ  Build "JPRINT nnnn LPRINT PRINTER=xxxx" for LPRINT command.  Ÿ
                                   39168  2                        ¾þþþþþþþþþþþþþþþþþþþþþþþþþþþþþþþþþþþþþþþþþþþþþþþþþþþþþþþþþþþþþþþ»
 00765C 70A2/47F0 7122 0765C 07632 39169  2                        ELSE  BEGIN               LPRINT command...
 007660 4110 7723/4100_      07CE1 39180  3                          SEG   'JPRINT '
 007672 1815/1B00/41F0_            39197  3                          SEGDC (R5)                Jobno
 007680 4110 772A/4100_      07CE8 39218  3                          SEG   ' LPRINT'
 007692 181D/41D0 D0EC             39235  3                          XPUSH ,,&LINESZ,PTR=R1
 007698 4100 00EB            000EB 39238  3                          LA    R0,&LINESZ
 00769C 4120 7672            07C30 39239  3                          LA    R2,=CL16'SYS.LPRINTER'
 0076A0 58E0 76C2/0DEE       07C80 39240  3                          VCALL GETDATA
 0076A6 4770 711E/1200_      076DC 39244  3                          IF    (Z,AND,(R0,POS)),BEGIN
 0076B0 9001 D000/41D0_      00000 39268  4                            XPUSH R0,R1
 0076B8 4110 7731/4100_      07CEF 39271  4                            SEG   ' PRINTER='
 0076CA 4BD0 76F6/9801_      07CB4 39288  4                            XPOP  R0,R1
 0076D2 41F0 8028/58E0_      00000 39291  4                            SEG   (R1),(R0)           Lprinter info
 0076DC                            39314  3                          END
 0076DC 4BD0 76F8            07CB6 39318  3                          XPOP  ,,&LINESZ
 0076E0                            39320  2                        END
                                   39324  2
 0076E0 5810 8048/5800_      00020 39325  2                        SETMSG L:JCLSXLOC,L:JCLSXLENF  JES command loc, len
 0076E8 41F0 0008            00008 39337  2                        LA    R15,8               Don't scan for wyl opts
 0076EC 58E0 76C6/0DEE       07C84 39338  2                        VCALL JESRTN              Do locate
 0076F2 12FF/4740 713E             39342  2                        IF    (R15,NEG),SAYSUB    Couldn't do locate, fake it
 0076F8                            39359  1                      END
                                   39363  1
 0076F8 713E/47F0 7174 076F8 07618 39364  1                      ELSE  BEGIN
 0076FC 4110 76CA/4100_      07C88 39375  2           SAYSUB       TSEG  'Job '
 00770E 4110 63F6/4100_      003F6 39393  2                        TSEG  RJEJOBNM,,T
 007720 4110 773A/4100_      07CF8 39421  2                        TSEG  ' submitted.',,WR
 007732                            39439  1                      END
 007732                            39443                       END
 007732 18D8/9808 D004_            39447              JOBCLXIT PEND
 DROP   JCLSWA-(4+36),R8
 DROP   *,R7
1RJE      (RJE4072) (12:53) (15MAR04) RJE Subroutines                                                                       Page   81
0Current Usings:  (RJEWA,R6) (CP,R11) (CV,R12)
0Loc    Object Code    Addr1 Addr2  Stmt Lv Lineno    Source Statement           (Hibal 5, Asmedit 3.3)  HLASM R4.0  2004/03/15 12.53
+___    ______ ____    _____ _____  ____ __ ______    ______ _________
0                                  39474                       ¿þþþþþþþþþþþþþþþþþþþþþþþþþþþþþþþþþþþþþþþþþþþþþþþþþþþþþþþþþþþþþþþÜ
                                   39475                       Ÿ  JOBCRDCK - routine to check to see if the card image passed  Ÿ
                                   39476                       Ÿ    in r0,r1 (len,loc) on entry is data or a job card.  also,  Ÿ
                                   39477                       Ÿ    the routine will indicate the data is a job card if it is  Ÿ
                                   39478                       Ÿ   the first line in the range (RJEDELIM = ff).  this routine  Ÿ
                                   39479                       Ÿ    depends on the accuracy of RJEDELIM in the common work     Ÿ
                                   39480                       Ÿ    area (RJEWA).  the condition code (and R15) if the         Ÿ
                                   39481                       Ÿ    following on exit:                                         Ÿ
                                   39482                       Ÿ             z - data passed (i.e., non-jobcard)               Ÿ
                                   39483                       Ÿ             p - possible job-card passed                      Ÿ
                                   39484                       Ÿ             m - possible control card insert point            Ÿ
                                   39485                       ¾þþþþþþþþþþþþþþþþþþþþþþþþþþþþþþþþþþþþþþþþþþþþþþþþþþþþþþþþþþþþþþþ»
 000000                00000 00010 39486              JCKWA    RECORD BEGIN
 000000                            39494  1           JCKDLM     DS    CL16                DLM WORK AREA
 000010                00010 00010 39495                       END
                                   39504
 007740 50E0 D000/9008_      00000 39505              JOBCRDCK PROC  JCKWA
 USING  *,R7
 USING  JCKWA-(4+36),R8
 00775A 95FF 642C/4770_0042C       39555                       IF    (RJEDELIM,EQ,X'FF'),'ACALL UPPJCL; B JOBCRFND'
 00776C D207 BC88 1000 00C88 00000 39582                       MVC   CPDOUB,@R1
 007772 D607 BC88 C4D8 00C88 004D8 39583                       OC    CPDOUB,CVBLANKS     Caps
                                   39584            C          IF    ((CPDOUB,EQ,'/*EOF'),OR,(CPDOUB,EQ,'/*DEL'),
 007778 D504 75A9 BC88_07D03 00C88                                   OR,(CPDOUB,EQ,'/*PUR')),BEGIN
 007796 D604 1000 C4D8 00000 004D8 39631  1                      OC    @R1(5),CVBLANKS     Make sure it's in caps
 00779C 92FF 642C      0042C       39632  1                      MVI   RJEDELIM,X'FF'      Next line must be job-card
 0077A0 47F0 72D6            07A30 39633  1                      B     JUSTDATA
 0077A4                            39634                       END
                                   39638
 0077A4 9500 642C      0042C       39639                       CLI   RJEDELIM,0          Processing input stream?
 0077A8 4780 7074            077CE 39640                       BE    TESTJCL             No, branch
 0077AC D501 1000 642C 00000 0042C 39641                       CLC   @R1(2),RJEDELIM     Does card(2) = dlm?
 0077B2 4770 706C            077C6 39642                       IF    EQ,BEGIN            Yes...
 0077B6 D701 642C 642C 0042C 0042C 39653  1                      CLEAR RJEDELIM            Set end of dd data
 0077BC 58E0 753A/0DEE       07C94 39660  1                      ACALL CHKNUM              Check for num/unn in seq field
 0077C2 47F0 72D6            07A30 39664  1                      B     JUSTDATA            This card is data
 0077C6                            39665                       END
                                   39669
 0077C6 9140 63F5/47E0_003F5       39670                       IF    ~RJEFDDS,CHKHCTL    Can't stop on "//"
                                   39688
 0077CE D501 755E 1000_07CB8 00000 39689              TESTJCL  IF    (@R1,NE,'//'),BEGIN  Not JCL...
 0077D8 D208 BC88 1000 00C88 00000 39706  1           CHKHCTL    MVC   CPDOUB(9),@R1
 0077DE D608 BC88 C4D8 00C88 004D8 39707  1                      OC    CPDOUB(9),CVBLANKS
 0077E4 D501 7560 BC88_07CBA 00C88 39708  1                      IF    (CPDOUB,EQ,'/*'),BEGIN  Control card...
 0077EE 58E0 753A/0DEE       07C94 39725  2                        ACALL CHKNUM              Check for unn/num in seq field
                                   39729  2                        AIF   (NOT &JESMAIL).JMAILF
 0077F4 D505 7562 BC88_07CBC 00C88 39730  2                        IF    (CPDOUB,NE,'/*MAIL'),'ACALL UPPJCL'
                                   39756  2           .JMAILF      ANOP
 007804                            39757  1                      END
                                   39761  1                      AIF   (NOT &JCLPRIO).JCLPLOW
                                   39762  1           .JCLPLOW   ANOP
 007804 D505 7568 1000_07CC2 00000 39763  1                      IF    (@R1,EQ,'/*LIST'),CCINSPT
 00780E 47F0 72D6            07A30 39782  1                      B     JUSTDATA
 007812                            39783                       END
1RJE      (RJE4072) (12:53) (15MAR04) RJE Subroutines                                                                       Page   82
0Current Usings:  (RJEWA,R6) (*,R7) (JCKWA-(4+36),R8) (CP,R11) (CV,R12)
0Loc    Object Code    Addr1 Addr2  Stmt Lv Lineno    Source Statement           (Hibal 5, Asmedit 3.3)  HLASM R4.0  2004/03/15 12.53
+___    ______ ____    _____ _____  ____ __ ______    ______ _________
0007812 9140 63F5/47E0_003F5       39787                       IF    RJEFDDS,'CLEAR RJEFDDS,RJEDELIM'  Reset DD * stuff
 007824 58E0 753A/0DEE       07C94 39819                       ACALL CHKNUM              Check seq field for 'unn/num'
 00782A D502 1000 75B8 00000 07D12 39823                       CLC   @R1(3),=C'//*'      Is it a comment?
 007830 4780 72D6            07A30 39824                       BE    JUSTDATA            Br if so
 007834 58E0 7536/0DEE       07C90 39825                       ACALL UPPJCL              Convert JCL to caps
 00783A 4900 756E            07CC8 39829                       CH    R0,=H'71'           Length gt 71?
 00783E 47D0 70EC            07846 39830                       BNH   CRDLNOK             No, branch
 007842 4800 756E            07CC8 39831                       LH    R0,=H'71'           Only scan 71 chars
 007846 4B00 7570            07CCA 39832              CRDLNOK  SH    R0,=H'2'            Decr for "//"
 00784A 47D0 72D6            07A30 39833                       BNP   JUSTDATA            Branch if nothing left
 00784E 4110 1002            00002 39834                       LA    R1,@R1+2            Bump for "//"
                                   39835
 007852 9540 1000      00000       39836              ENDOFNM  CLI   @R1,C' '            Blank?
 007856 4780 710C            07866 39837                       BE    FIELD2              Yes, branch
 00785A 4110 1001            00001 39838                       LA    R1,@R1+1            Incr for next char
 00785E 4600 70F8            07852 39839                       BCT   R0,ENDOFNM          Loop back
 007862 47F0 72D6            07A30 39840                       B     JUSTDATA            Branch if nothing left
                                   39841
 007866 9540 1000      00000       39842              FIELD2   CLI   @R1,C' '            Blank?
 00786A 4770 7120            0787A 39843                       BNE   TESTF2              No, branch
 00786E 4110 1001            00001 39844                       LA    R1,@R1+1            Bump to next char
 007872 4600 710C            07866 39845                       BCT   R0,FIELD2           Loop back
 007876 47F0 72D6            07A30 39846                       B     JUSTDATA            Branch if nothing left
                                   39847
 00787A D503 753E 1000 07C98 00000 39848              TESTF2   CLC   =C'JOB ',@R1        Is it a job card?
 007880 4780 72E4            07A3E 39849                       BE    JOBCRFND            Yes, branch
                                   39850
 007884 D504 75BB 1000 07D15 00000 39851                       CLC   =C'EXEC ',@R1       Exec card?
 00788A 4780 72DC            07A36 39852                       BE    CCINSPT             Yes insert point
                                   39853
 00788E D504 75C0 1000 07D1A 00000 39854                       CLC   =C'PROC ',@R1       Inline proc?
 007894 4780 72DC            07A36 39855                       BE    CCINSPT             Yes, branch
 007898 D502 75C5 1000 07D1F 00000 39856              TESTDD   CLC   =C'DD ',@R1         Is it a dd card?
 00789E 4770 72D6            07A30 39857                       BNE   JUSTDATA            No, branch
 0078A2 4B00 7572            07CCC 39858                       SH    R0,=H'3'            SUBTRACT FOR 'DD '
 0078A6 47D0 72D6            07A30 39859                       BNP   JUSTDATA            Branch if nothing left
 0078AA 4110 1003            00003 39860                       LA    R1,3(,R1)           bump for 'dd '
                                   39861
 0078AE 9540 1000      00000       39862              FIELD3   CLI   @R1,C' '            Blank?
 0078B2 4770 7168            078C2 39863                       BNE   TESTDATA            No, branch
 0078B6 4110 1001            00001 39864                       LA    R1,@R1+1            Bump
 0078BA 4600 7154            078AE 39865                       BCT   R0,FIELD3           Loop back
 0078BE 47F0 72D6            07A30 39866                       B     JUSTDATA            Branch if nothing left
                                   39867
 0078C2 D503 7542 1000 07C9C 00000 39868              TESTDATA CLC   =C'DATA',@R1        Dd data?
 0078C8 4780 7188            078E2 39869                       BE    ISDATA              Yes, branch
 0078CC 955C 1000      00000       39870                       CLI   @R1,C'*'            Is it dd *
 0078D0 4770 72D6            07A30 39871                       BNE   JUSTDATA            No, branch
 0078D4 9640 63F5      003F5       39872                       SET   RJEFDDS             Processing dd * stream
 0078D8 4110 1001            00001 39878                       LA    R1,@R1+1            point past '*'
 0078DC 0600                       39879                       DECR  R0                  Decrement count left in card
 0078DE 47F0 7190            078EA 39881                       B     DATACHK             Check further
 0078E2 4B00 7574            07CCE 39882              ISDATA   SH    R0,=H'4'            DECR FOR 'DATA'
 0078E6 4110 1004            00004 39883                       LA    R1,@R1+4            skip past 'data'
1RJE      (RJE4072) (12:53) (15MAR04) RJE Subroutines                                                                       Page   83
0Current Usings:  (RJEWA,R6) (*,R7) (JCKWA-(4+36),R8) (CP,R11) (CV,R12)
0Loc    Object Code    Addr1 Addr2  Stmt Lv Lineno    Source Statement           (Hibal 5, Asmedit 3.3)  HLASM R4.0  2004/03/15 12.53
+___    ______ ____    _____ _____  ____ __ ______    ______ _________
00078EA D201 642C 7560 0042C 07CBA 39884              DATACHK  MVC   RJEDELIM,=C'/*'     Default dlm is /*
 0078F0 1200                       39885                       LTR   R0,R0               Anything after data or *
 0078F2 47D0 72D6            07A30 39886                       BNP   JUSTDATA            No, so we can exit now - dlm
                                   39887              *                                  is properly set to /*
 0078F6 956B 1000      00000       39888                       CLI   @R1,C','            Is there a comma after data or *?
 0078FA 4770 72D6            07A30 39889                       BNE   JUSTDATA            No, exit without searching for dlm
                                   39890
 0078FE D504 75C8 1000 07D22 00000 39891              TESTDLM  CLC   =C',DLM=',@R1       Search for dlm=xx
 007904 4780 71BA            07914 39892                       BE    GOTDLM              Branch if we found it
 007908 4110 1001            00001 39893                       LA    R1,@R1+1            Bump ptr
 00790C 4600 71A4            078FE 39894                       BCT   R0,TESTDLM          Loop back
 007910 47F0 72D6            07A30 39895                       B     JUSTDATA            Branch if nothing left
                                   39896
 007914 4110 1005            00005 39897              GOTDLM   LA    R1,@R1+5            Point at dlm
 007918 4B00 7576            07CD0 39898                       SH    R0,=H'5'            Decrement count remaining
 00791C 47D0 72D6            07A30 39899                       BNP   JUSTDATA            Its all over - nothing left
 007920 9540 1000      00000       39900                       CLI   @R1,C' '            Is there a blank next?
 007924 4780 72D6            07A30 39901                       BE    JUSTDATA            Yes- just leave
                                   39902                       ¿þþþþþþþþþþþÜ
                                   39903                       Ÿ  get dlm  Ÿ
                                   39904                       ¾þþþþþþþþþþþ»
 007928 58E0 B08C/501E_      0008C 39905                       SCINIT (R1),(R0)          Initialize scanner
 007936 5810 B08C/1B00_      0008C 39925                       SCAN  ,                   No prt - just give me token
 007984 12FF/4770 72D6             39956                       IF    (R15,NZ),JUSTDATA   Error
 00798A 1200/47D0 72D6             39973                       IF    (R0,NP),JUSTDATA    Nothing there
 007990 5900 754A/4720_      07CA4 39990                       IF    (R0,GT,6),JUSTDATA  Worst case is DLM='&&'''
 007998 957D 1000/4780_00000       40010                       IF    (@R1,NE,''''),BEGIN
 0079A0 5810 B08C/4111_      0008C 40026  1                      SCUPTOK (R1)
 0079A8 1F33/BF33 1000             40030  1                      L2    R3,@R1              Load 1st two chars as DLM
 0079AE                            40038                       END
 0079AE 957D 1000/4770_00000       40042                       IF    (@R1,EQ,''''),BEGIN
 0079B6 D205 8028 1000 00000 00000 40058  1                      MVC   JCKDLM(6),@R1       Move 6 chars
 0079BC 4110 8028            00000 40059  1                      LA    R1,JCKDLM           Point to it
 0079C0 58E0 754E/0DEE       07CA8 40060  1                      VCALL DEQUOTE             Dequote it
 0079C6 47D0 72D6            07A30 40064  1                      BNP   JUSTDATA            (null or bad string)
 0079CA 1F33/BF33 1000             40065  1                      L2    R3,@R1              R3 holds two char DLM
 0079D0 D500 75CD 1000_07D27 00000 40073  1                      IF    ((@R1,EQ,'&&'),AND,(@R1+1,EQ,'&&')),'IC R3,@R1+2'
 0079E8                            40110                       END
 0079E8 94BF 63F5      003F5       40114                       CLEAR RJEFDDS             Not DD * case
 0079EC 4030642C                   40121                       ST2   R3,RJEDELIM         Save two DLM characters
 0079F0 D501 755E 642C_07CB8 0042C 40123                       IF    (RJEDELIM,EQ,'//'),BEGIN
                                   40140  1                      SEGDEF RJESG
 0079FA 4110 75AE/4100_      07D08 40141  1                      SEGWR '/*DEL'
 007A0C 4110 74E6/4100_      07C40 40159  1                      TSEG  '"DLM=//" not allowed on DD card.',,WR
 007A1E D207 B886 7506_00886 07C60 40177  1                      ERROR 'Job will be canceled.',,INVDLM
 007A30                            40185                       END
 007A30 1BFF                       40189              JUSTDATA CLEAR R15                 Set zero return code
 007A32 47F0 72EE            07A48 40194                       B     JCHKEXIT            Return
                                   40195
 007A36 48F0 757A            07CD4 40196              CCINSPT  LH    R15,=H'-4'          Control card insertion point
 007A3A 47F0 72EE            07A48 40197                       B     JCHKEXIT            All finished
                                   40198
 007A3E D701 642C 642C 0042C 0042C 40199              JOBCRFND CLEAR RJEDELIM            Set no dd data now
 007A44 41F0 0004            00004 40207                       LA    R15,4               Set non-zero return code
1RJE      (RJE4072) (12:53) (15MAR04) RJE Subroutines                                                                       Page   84
0Current Usings:  (RJEWA,R6) (CP,R11) (CV,R12)
0Loc    Object Code    Addr1 Addr2  Stmt Lv Lineno    Source Statement           (Hibal 5, Asmedit 3.3)  HLASM R4.0  2004/03/15 12.53
+___    ______ ____    _____ _____  ____ __ ______    ______ _________
0007A48 18D8/9808 D004_            40208              JCHKEXIT PEND
 DROP   JCKWA-(4+36),R8
 DROP   *,R7
1RJE      (RJE4072) (12:53) (15MAR04) RJE Subroutines                                                                       Page   85
0Current Usings:  (RJEWA,R6) (CP,R11) (CV,R12)
0Loc    Object Code    Addr1 Addr2  Stmt Lv Lineno    Source Statement           (Hibal 5, Asmedit 3.3)  HLASM R4.0  2004/03/15 12.53
+___    ______ ____    _____ _____  ____ __ ______    ______ _________
0                                  40235              ¿þþþþþþþþþþþþþþþþþþþþþþþþþþþþþþþþþþþþþþþþþþþþþþþþþþþþþþþþþþþþþþþþþþþþþÜ
                                   40236              Ÿ                                                                     Ÿ
                                   40237              Ÿ  UPPJCL -- Routine to convert text to upper case.  Text inside      Ÿ
                                   40238              Ÿ     single quotes will not be converted.  On entry:                 Ÿ
                                   40239              Ÿ                                                                     Ÿ
                                   40240              Ÿ        R1,R0 - line loc,len                                         Ÿ
                                   40241              Ÿ                                                                     Ÿ
                                                      ¾þþþþþþþþþþþþþþþþþþþþþþþþþþþþþþþþþþþþþþþþþþþþþþþþþþþþþþþþþþþþþþþþþþþþþ»
0007A56 50E0 D000/9008_      00000 40242              UPPJCL   PROC
 USING  *,R7
 007A70 1200/47D0 7082             40281                       WHILE (R0,POS),BEGIN
 007A76 957D 1000/4770_00000       40297  1           UPPJCLQ    IF    (@R1,EQ,''''),BEGIN  Starting quote
 007A7E 4110 1001            00001 40314  2                        LA    R1,@R1+1
 007A82 0600                       40315  2                        DECR  R0
 007A84 1200/47D0 702C_            40317  2                        WHILE ((R0,POS),AND,(@R1,NE,'''')),'LA R1,@R1+1; DECR R0'
 007A9C 4110 1001            00001 40357  2                        LA    R1,@R1+1
 007AA0 0600                       40358  2                        DECR  R0
 007AA2 1200/4720 7006             40360  2                        IF    (R0,POS),UPPJCLQ
 007AA8 47F0 7082            07AF2 40377  2                        B     UPPJCLX             All done
 007AAC                            40378  1                      END
 007AAC 9140 1000/4770_00000       40382  1                      IF    (@R1.X'40',OFF),BEGIN  maybe lower case char...
 007AB4 9581 1000/4740_00000       40400  2                        IF    ((@R1,LT,'a'),OR,(@R1,GT,'z')),EXIT
 007AC4 9589 1000/47D0_00000       40434  2                        IF    ((@R1,GT,'i'),AND,(@R1,LT,'j')),EXIT
 007AD4 9599 1000/47D0_00000       40468  2                        IF    ((@R1,GT,'r'),AND,(@R1,LT,'s')),EXIT
 007AE4 9640 1000      00000       40502  2                        OI    @R1,C' '            Convert to upper case
 007AE8                            40503  1                      END
 007AE8 4110 1001            00001 40507  1                      LA    R1,@R1+1
 007AEC 0600                       40508  1                      DECR  R0
 007AEE 47F0 7000            07A70 40510                       END
 007AF2 18D8/9808 D004_            40515              UPPJCLX  PEND
 DROP   *,R7
1RJE      (RJE4072) (12:53) (15MAR04) RJE Subroutines                                                                       Page   86
0Current Usings:  (RJEWA,R6) (CP,R11) (CV,R12)
0Loc    Object Code    Addr1 Addr2  Stmt Lv Lineno    Source Statement           (Hibal 5, Asmedit 3.3)  HLASM R4.0  2004/03/15 12.53
+___    ______ ____    _____ _____  ____ __ ______    ______ _________
0                                  40537              ¿þþþþþþþþþþþþþþþþþþþþþþþþþþþþþþþþþþþþþþþþþþþþþþþþþþþþþþþþþþþþþþþþþþþþþÜ
                                   40538              Ÿ                                                                     Ÿ
                                   40539              Ÿ  CHKNUM -- Routine to check cols 73-80 for number options.          Ÿ
                                   40540              Ÿ                                                                     Ÿ
                                   40541              Ÿ    On entry:                                                        Ÿ
                                   40542              Ÿ      R1,R0 - line loc,len                                           Ÿ
                                   40543              Ÿ                                                                     Ÿ
                                                      ¾þþþþþþþþþþþþþþþþþþþþþþþþþþþþþþþþþþþþþþþþþþþþþþþþþþþþþþþþþþþþþþþþþþþþþ»
0007B00 50E0 D000/9008_      00000 40544              CHKNUM   PROC
 USING  *,R7
 007B1A 5900 7192/4750_      07CAC 40583                       IF    (R0,GE,73),BEGIN
 007B22 182D/41D0 D008             40600  1                      XPUSH ,,8,PTR=R2
 007B28 D207 2000 1048 00000 00048 40603  1                      MVC   @R2(8),@R1+72       Seq field
 007B2E 58E0 B08C/D2AF_      0008C 40604  1                      SCPUSH
 007B3C 1812/4100 0008_            40610  1                      SCINIT @R2,8
 007B50 5810 B08C/1B00_      0008C 40636  1                      SCAN  NCHKPRT
                                   40668  1                      COMMENT                   Ignore errors
 007BA2 58E0 B08C/4BD0_      0008C 40669  1                      SCPOP
 007BB0 4BD0 71BE            07CD8 40675  1                      XPOP  ,,8
 007BB4                            40677                       END
 007BB4 18D8/9808 D004_            40681                       PEND
 DROP   *,R7
-007BC4 4040404040404040_          40702              NCHKPRT  SCKW  ,V(RNUMPSH),PUSH
 007BEC 4040404040404040_          40717                       SCKW  ,V(SCNINVAL)
                                   40732                       QLTORG
1RJE      (RJE4072) (12:53) (15MAR04) RJE Subroutines                                                                       Page   87
0Current Usings:  (RJEWA,R6) (CP,R11) (CV,R12)
0Loc    Object Code    Addr1 Addr2  Stmt Lv Lineno    Source Statement           (Hibal 5, Asmedit 3.3)  HLASM R4.0  2004/03/15 12.53
+___    ______ ____    _____ _____  ____ __ ______    ______ _________
0000000                00000 00015 40798              JOBWA    RECORD BEGIN
 000000                            40806  1           JOBCHAR    DS    C
 000004                            40807  1           JOBPTRS    DS    2A                  Line len, loc
 00000C                            40808  1           JOBFIELD   DS    CL9                 Cont and seq fields
 000015                00015 00015 40809                       END
-                                  40819              ¿þþþþþþþþþþþþþþþþþþþþþþþþþþþþþþþþþþþþþþþþþþþþþþþþþþþþþþþþþþþþþþþþþþþþþÜ
                                   40820              Ÿ                                                                     Ÿ
                                   40821              Ÿ  JOBCARD -- Routine to build or validity check/expand job card.     Ÿ
                                   40822              Ÿ                                                                     Ÿ
                                   40823              Ÿ    On entry:                                                        Ÿ
                                   40824              Ÿ      R1,R0 - job card loc, len (if R0=0 then job card is built)     Ÿ
                                   40825              Ÿ      CPLCNO- lineno of line                                         Ÿ
                                   40826              Ÿ                                                                     Ÿ
                                                      ¾þþþþþþþþþþþþþþþþþþþþþþþþþþþþþþþþþþþþþþþþþþþþþþþþþþþþþþþþþþþþþþþþþþþþþ»
0007D3E 50E0 D000/9008_      00000 40827              JOBCARD  PROC  JOBWA
 USING  *,R7
 USING  JOBWA-(4+36),R8
                                   40877
 007D58 9620 63F5      003F5       40878                       SET   RJEFCTRL            Sending control cards
                                   40884
 007D5C 58E0 7A28/0DEE       08780 40885                       ACALL CHKNUM              check seq field for 'unn/num'
 007D62 1851                       40889                       LR    R5,R1
 007D64 5900 7A2C/47D0_      08784 40890                       CEIL  R0,71
 007D70 18F1                       40909                       LR    R15,R1
 007D72 1AF0                       40910                       AR    R15,R0
 007D74 06F0                       40911                       DECR  R15                 Last char of card
 007D76 1200/47D0 7034_            40913                       WHILE ((R0,POS),AND,(@R15,EQ,' ')),'DECR R0; DECR R15'
 007D8C 9001 802C            00004 40954                       STM   R0,R1,JOBPTRS
                                   40955
 007D90 D606 63FE 63FE_003FE 003FE 40956                       IF    (RJEACCT,Z),BEGIN   Use logged on user's account...
 007D9A D204 63FE B3B4 003FE 003B4 40972  1                      MVC   RJEACCT(5),CPSACCT
 007DA0 D201 6403 B3F0 00403 003F0 40973  1                      MVC   RJEACCT+5(2),CPSPROJ
 007DA6 D601 6403 C4D8 00403 004D8 40974  1                      OC    RJEACCT+5(2),CVBLANKS  (Convert nulls to blanks)
 007DAC                            40975                       END
                                   40979                    ¿þþþþþþþþþþþþþþþþþþþþþþþþþþþþþþþþþþþþþþþþþþþþþþþþþþþþþþþþþþþþþþþþþþÜ
                                   40980                    Ÿ  The following puts the submitter's acct in the sequence field.  Ÿ
                                   40981                    ¾þþþþþþþþþþþþþþþþþþþþþþþþþþþþþþþþþþþþþþþþþþþþþþþþþþþþþþþþþþþþþþþþþþ»
 007DAC D208 8034 C4D8 0000C 004D8 40982                       MVC   JOBFIELD,CVBLANKS
 007DB2 D201 8037 B3B7 0000F 003B7 40983                       MVC   JOBFIELD+3(2),CPSGRP
 007DB8 924B 8039      00011       40984                       MVI   JOBFIELD+5,C'.'
 007DBC D202 803A B3B4 00012 003B4 40985                       MVC   JOBFIELD+6(3),CPSUSER
                                   40986                       ¿þþþþþþþþþþþþþþþþþþþþþþþþþþþþþþþþþþþþþþþþþþþþÜ
                                   40987                       Ÿ  Now either build or expand the JOB card.  Ÿ
                                   40988                       ¾þþþþþþþþþþþþþþþþþþþþþþþþþþþþþþþþþþþþþþþþþþþþ»
 007DC2 1255/4770 71BC             40989                       IF    (R5,Z),BEGIN        Build job card...
 007DC8 9180 6005/47E0_00005       41003  1                      IF    RJEFLPR,BEGIN       Use LPRINT defaults...
 007DD0 D207 63F6 79C0 003F6 08718 41018  2                        MVC   RJEJOBNM,=CL8'LPRINT'  Jobname
 007DD6 D204 63FE C058 003FE 00058 41019  2                        MVC   RJEACCT(5),CVWYLACC    WYLBUR's account
 007DDC D201 6403 C4D8 00403 004D8 41020  2                        MVC   RJEACCT+5(2),CVBLANKS  No subgroup
 007DE2                            41021  1                      END
                                   41025  1
1RJE      (RJE4072) (12:53) (15MAR04) RJE Subroutines                                                                       Page   88
0Current Usings:  (RJEWA,R6) (*,R7) (JOBWA-(4+36),R8) (CP,R11) (CV,R12)
0Loc    Object Code    Addr1 Addr2  Stmt Lv Lineno    Source Statement           (Hibal 5, Asmedit 3.3)  HLASM R4.0  2004/03/15 12.53
+___    ______ ____    _____ _____  ____ __ ______    ______ _________
0007DE2 708E/47F0 7094_07DE2 07DCE 41026  1                      ELSE  'ACALL CKACCT'      Set up PRINT defaults...
                                   41046  1
                                   41047  1                      SEGDEF RJESG
 007DEC 4110 7AC8/4100_      08820 41048  1                      SEG   '//'
 007DFE 4110 63F6/4100_      003F6 41065  1                      SEGTB RJEJOBNM
 007E10 4110 7B1E/4100_      08876 41093  1                      SEG   'JOB '''
 007E22 4110 63FE/4100_      003FE 41110  1                      SEG   RJEAUSR
 007E34 4110 7B23/4100_      0887B 41137  1                      SEG   '$'
 007E46 4110 6401/4100_      00401 41154  1                      SEGT  RJEAGRP
 007E58 4110 7B24/4100_      0887C 41182  1                      SEG   ''''
                                   41199  1                      AIF   (NOT &PGMNAME).PGMNAM1
                                   41200  1           .PGMNAM1   ANOP
 007E6A D613 60EA 60EA_000EA 000EA 41201  1                      IF    (RJEHEAD,NZ),BEGIN
 007E74 4110 60EA/4100_      000EA 41217  2                        SETMSG RJEHEAD
 007E7C 58E0 7A40/0DEE       08798 41231  2                        VCALL LRTRIM
 007E82 1200/4780 7190             41235  2                        IF    (R0,Z),EXIT
 007E88 1821                       41252  2                        LR    R2,R1
 007E8A 1830                       41253  2                        LR    R3,R0
 007E8C 4110 7ACA/4100_      08822 41254  2                        SEG   ','''
 007E9E 1233/47D0 717E             41271  2                        WHILE (R3,P),BEGIN
 007EA4 1812/4100 0001_            41287  3                          SEG   (R2),1
 007EB4 957D 2000/4770_00000       41314  3                          IF    (@R2,EQ,''''),'SEG (R2),1'
 007ECC 5E20 7A44            0879C 41362  3                          INCR  R2
 007ED0 0630                       41365  3                          DECR  R3
 007ED2 47F0 7146            07E9E 41367  2                        END
 007ED6 4110 7B24/4100_      0887C 41372  2                        SEG   ''''
 007EE8                            41389  1                      END
                                   41393  1
 007EE8 9500 6013/4780_00013       41394  1                      IF    (RJESYSCL,NZ),BEGIN
 007EF0 4110 7ACC/4100_      08824 41410  2                        SEG   ',MSGCLASS='
 007F02 4110 6013/4100_      00013 41427  2                        SEG   RJESYSCL
 007F14                            41454  1                      END
 007F14                            41458                       END
                                   41462
 007F14 71C0/47F0 74E2 07F14 07DC6 41463                       ELSE  BEGIN               Expand job card...
 007F18 D200 8034 5047 0000C 00047 41474  1                      MVC   JOBFIELD(1),@R5+71  Preserve continuation field
 007F1E 92FF 5047      00047       41475  1                      MVI   @R5+71,X'FF'        Flag end of card (for scanning)
 007F22 D501 7AC8 5000_08820 00000 41476  1                      IF    (@R5,NE,'//'),JCBAD
 007F2C 4150 5002            00002 41495  1                      LA    R5,@R5+2            Start of jobname
 007F30 1845                       41496  1                      LR    R4,R5               Jobname ptr
 007F32 1B33                       41497  1                      CLEAR R3                  Len
 007F34 9540 5000/4780_00000       41501  1                      WHILE (@R5,NE,' '),'LA R5,@R5+1; LA R3,@R3+1'
 007F48 9540 5000/4770_00000       41527  1                      WHILE (@R5,EQ,' '),'LA R5,@R5+1'
 007F58 D503 7A48 5000_087A0 00000 41552  1                      IF    (@R5,NE,'JOB '),JCBAD
 007F62 4150 5004            00004 41571  1                      LA    R5,@R5+4
 007F66 9540 5000/4770_00000       41572  1                      WHILE (@R5,EQ,' '),'LA R5,@R5+1'
 007F76 9200 8028      00000       41597  1                      CLEAR JOBCHAR
 007F7A 956B 5000/4780_00000       41604  1                      IF    ((@R5,EQ,','),OR,(@R5,EQ,X'FF')),JCACCOK
 007F8A 957D 5000/4780_00000       41638  1                      IF    ((@R5,EQ,''''),OR,(@R5,EQ,'(')),BEGIN
 007F9A D200 8028 5000 00000 00000 41669  2                        MVC   JOBCHAR,@R5
 007FA0 4150 5001            00001 41670  2                        LA    R5,@R5+1
 007FA4 956B 5000/4780_00000       41671  2                        IF    (@R5,EQ,','),JCACCOK
 007FAC                            41690  1                      END
 007FAC 1815                       41694  1                      LR    R1,R5
1RJE      (RJE4072) (12:53) (15MAR04) RJE Subroutines                                                                       Page   89
0Current Usings:  (RJEWA,R6) (*,R7) (JOBWA-(4+36),R8) (CP,R11) (CV,R12)
0Loc    Object Code    Addr1 Addr2  Stmt Lv Lineno    Source Statement           (Hibal 5, Asmedit 3.3)  HLASM R4.0  2004/03/15 12.53
+___    ______ ____    _____ _____  ____ __ ______    ______ _________
0007FAE 1B00                       41695  1                      CLEAR R0
                                   41699  1         C            WHILE ((@R5,NE,','),AND,(@R5,NE,' '),AND,(@R5,NE,''''),AND,
 007FB0 956B 5000/4780_00000              1                            (@R5,NE,')')),'LA R5,@R5+1; A R0,CVONE'
                                   41766  1           * R1 points to the account, and R0 has the len...
 007FDC 5900 7A4C/4740_      087A4 41767  1                      IF    ((R0,LT,6),OR,(R0,GT,8)),JCACCBAD
                                   41803  1
 007FEC 954B 1002/4780_00002       41804  1                      IF    ((@R1+2,EQ,'.'),OR,(@R1+2,EQ,'$')),BEGIN  gg.uuu...
 007FFC 5900 7A4C/4770_      087A4 41835  2                        IF    (R0,NE,6),JCACCBAD
 008004 D201 6401 1000 00401 00000 41855  2                        MVC   RJEAGRP(2),@R1      Gg (keep "ss" from signon acct)
 00800A D202 63FE 1003 003FE 00003 41856  2                        MVC   RJEAUSR,@R1+3
 008010 47F0 732E            08086 41857  2                        B     JCACCOK
 008014                            41858  1                      END
                                   41862  1
 008014 954B 1003/4770_00003       41863  1                      IF    (@R1+3,EQ,'.'),BEGIN  ggs.uuu...
 00801C 5900 7A54/4770_      087AC 41879  2                        IF    (R0,NE,7),JCACCBAD
 008024 D202 6401 1000 00401 00000 41899  2                        MVC   RJEAGRP(3),@R1
 00802A 9240 6404      00404       41900  2                        MVI   RJEAGRP+3,C' '
 00802E D202 63FE 1004 003FE 00004 41901  2                        MVC   RJEAUSR,@R1+4
 008034 47F0 732E            08086 41902  2                        B     JCACCOK
 008038                            41903  1                      END
                                   41907  1
 008038 954B 1004/4770_00004       41908  1                      IF    (@R1+4,EQ,'.'),BEGIN  ggss.uuu...
 008040 5900 7A50/4770_      087A8 41924  2                        IF    (R0,NE,8),JCACCBAD
 008048 D203 6401 1000 00401 00000 41944  2                        MVC   RJEAGRP,@R1
 00804E D202 63FE 1005 003FE 00005 41945  2                        MVC   RJEAUSR,@R1+5
 008054 47F0 732E            08086 41946  2                        B     JCACCOK
 008058                            41947  1                      END
                                   41951  1
 008058 955B 1003/4770_00003       41952  1                      IF    (@R1+3,EQ,'$'),BEGIN  uuu$gg, uuu$ggs, uuu$ggss...
 008060 D202 63FE 1000 003FE 00000 41968  2                        MVC   RJEAUSR,@R1
 008066 5900 7A4C/47D0_      087A4 41969  2                        IF    (R0,GT,6),'MVC RJEAGRP+2(2),CVBLANKS'
 008074 18F0                       41992  2                        LR    R15,R0
 008076 4BF0 7AD6            0882E 41993  2                        SH    R15,=AL2(4+1)       Len of group code (in ex form)
 00807A 44F0 7B84/D200_      088DC 41994  2                        EX    R15,'MVC RJEAGRP(0),@R1+4'
 00807E 47F0 732E            08086 42010  2                        B     JCACCOK
 008082                            42011  1                      END
                                   42015  1
 008082 47F0 75EA            08342 42016  1                      B     JCACCBAD
                                   42017  1
 008086 D606 63FE C4D8 003FE 004D8 42018  1           JCACCOK    OC    RJEACCT,CVBLANKS    Make sure acct is in caps
 00808C 58E0 7A30/0DEE       08788 42019  1                      ACALL CKACCT              Do kw checking, etc.
                                   42023  1
 008092 1233/4780 7432             42024  1                      IF    (R3,NZ),BEGIN       Process jobname now...
 008098 D500 7B25 4000_0887D 00000 42038  2                        IF    (@R4,EQ,'&&'),BEGIN
 0080A2 5930 7A4C/4720_      087A4 42054  3                          IF    (R3,GT,6),JCNAML
 0080AA D207 63F6 C4D8 003F6 004D8 42074  3                          MVC   RJEJOBNM,CVBLANKS
 0080B0 D202 63F6 63FE 003F6 003FE 42075  3                          MVC   RJEJOBNM(3),RJEACCT
 0080B6 0630                       42076  3                          DECR  R3                  Account for "&"
 0080B8 0630/1233/4740_            42078  3                          MOVE  R3,RJEJOBNM+3,@R4+1
 0080C4                            42116  2                        END
 0080C4 7370/47F0 73B8_080C4 080A0 42120  2                        ELSEIF (@R4,EQ,'+'),BEGIN
 0080D0 5930 7A58/4720_      087B0 42145  3                          IF    (R3,GT,9),JCNAML
 0080D8 0630                       42165  3                          DECR  R3
 0080DA D207 63F6 6406 003F6 00406 42167  3                          MVC   RJEJOBNM,RJEKPFX
1RJE      (RJE4072) (12:53) (15MAR04) RJE Subroutines                                                                       Page   90
0Current Usings:  (RJEWA,R6) (*,R7) (JOBWA-(4+36),R8) (CP,R11) (CV,R12)
0Loc    Object Code    Addr1 Addr2  Stmt Lv Lineno    Source Statement           (Hibal 5, Asmedit 3.3)  HLASM R4.0  2004/03/15 12.53
+___    ______ ____    _____ _____  ____ __ ______    ______ _________
00080E0 4110 63FD            003FD 42168  3                          LA    R1,RJEJOBNM+7
 0080E4 1BFF                       42169  3                          CLEAR R15
 0080E6 9540 1000/4770_00000       42173  3                          WHILE (@R1,EQ,' '),'DECR R1; LA R15,@R15+1'
 0080F8 193F/47D0 73AC             42200  3                          IF    (R3,GT,R15),BEGIN
 0080FE 4110 63FD            003FD 42215  4                            LA    R1,RJEJOBNM+7
 008102 1B13                       42216  4                            SR    R1,R3
 008104                            42217  3                          END
 008104 0630/1233/4740_            42221  3                          MOVE  R3,@R1+1,@R4+1
 008110                            42259  2                        END
 008110 73BC/47F0 741A 08110 080CE 42263  2                        ELSE  BEGIN
 008114 5930 7A50/4720_      087A8 42274  3                          IF    (R3,GT,8),JCNAML
 00811C D207 63F6 C4D8 003F6 004D8 42294  3                          MVC   RJEJOBNM,CVBLANKS
 008122 0630/1233/4740_            42295  3                          MOVE  R3,RJEJOBNM,@R4
 00812E D502 63FE 63F6_003FE 003F6 42333  3                          IF    (RJEAUSR,NE,RJEJOBNM),BEGIN
 008138 9108 B9E1/47E0_009E1       42351  4                            IF    (~CPJFFRCE,OR,~RJEKJFL.KWRJFFOR),EXIT
 008148 D202 63F6 63FE 003F6 003FE 42384  4                            MVC   RJEJOBNM(3),RJEAUSR
 00814E 4110 7AD8/4100_      08830 42385  4                            TSEG  'Jobname changed to',,B
 008160 4110 63F6/4100_      003F6 42403  4                            TSEG  RJEJOBNM,,CR
 008172                            42431  3                          END
 008172                            42435  2                        END
 008172 4110 63F6/4100_      003F6 42439  2                        SETMSG RJEJOBNM
 00817A 58E0 7A40/0DEE       08798 42453  2                        VCALL LRTRIM
 008180 58E0 7A64/0DEE       087BC 42457  2                        VCALL CHARCHKA
 008186 4720 7606            0835E 42461  2                        BP    JCNAMBAD
 00818A                            42462  1                      END
                                   42466  1                      ¿þþþþþþþþþþþþþþþþþþþþþþþþþþþþÜ
                                   42467  1                      Ÿ  Now expand the JOB card.  Ÿ
                                   42468  1                      ¾þþþþþþþþþþþþþþþþþþþþþþþþþþþþ»
 00818A 4110 7AC8/4100_      08820 42469  1                      SEG   '//'
 00819C 4110 63F6/4100_      003F6 42486  1                      SEGTB RJEJOBNM
 0081AE 4110 7B26/4100_      0887E 42514  1                      SEGB  'JOB'
 0081C0 9500 8028/4780_00000       42532  1                      IF    (JOBCHAR,NZ),'SEG JOBCHAR'
 0081DA 4110 63FE/4100_      003FE 42580  1                      SEG   RJEAUSR
 0081EC 4110 7B23/4100_      0887B 42607  1                      SEG   '$'
 0081FE 4110 6401/4100_      00401 42624  1                      SEGT  RJEAGRP
 008210 1805                       42652  1                      LR    R0,R5
 008212 5B00 8030            00008 42653  1                      S     R0,JOBPTRS+4
 008216 5B00 802C            00004 42654  1                      S     R0,JOBPTRS
 00821A 1300                       42655  1                      LCR   R0,R0               Remaining len
 00821C 47D0 74E2            0823A 42656  1                      IF    POS,BEGIN
 008220 58F0 643C            0043C 42667  2                        L     R15,RJESGLENF       Current buffer len
 008224 1AF0                       42668  2                        AR    R15,R0              Plus remainder for new total
 008226 59F0 7A2C/47A0_      08784 42669  2                        IF    (R15,GE,71),JCLONG  Too long
 00822E 1815/41F0 6430_            42689  2                        SEGT  (R5),(R0)           Add remainder of card
 00823A                            42714  1                      END
                                   42718  1                      AIF   (NOT &PGMNAME).PGMNM2
                                   42719  1           .PGMNM2    ANOP
 00823A                            42720                       END
                                   42724
 00823A 4100 0048/41F0_      00048 42725                       SEGCOL 72
 008248 4110 8034/4100_      0000C 42745                       SEGT  JOBFIELD            Add cont & seq field
 00825A 1B00/41F0 6430_            42773                       SEGWR
                                   42797
 008266 D207 BA11 63F6 00A11 003F6 42798                       MVC   CPJOBNM,RJEJOBNM    Save jobname
1RJE      (RJE4072) (12:53) (15MAR04) RJE Subroutines                                                                       Page   91
0Current Usings:  (RJEWA,R6) (*,R7) (JOBWA-(4+36),R8) (CP,R11) (CV,R12)
0Loc    Object Code    Addr1 Addr2  Stmt Lv Lineno    Source Statement           (Hibal 5, Asmedit 3.3)  HLASM R4.0  2004/03/15 12.53
+___    ______ ____    _____ _____  ____ __ ______    ______ _________
0                                  42799
 00826C 9504 6000/4770_00000       42800                       IF    RJECFRUN,BEGIN
 008274 9110 BD54/4710_00D54       42815  1                      IF    CPLFLG5.CPFFOPT,EXIT  don't change number options
 00827C 943F BD54      00D54       42834  1                      CLEAR CPLFLG5.CPFNONUM
 008280 9104 B9E1/47E0_009E1       42842  1                      IF    CPJFNOPT,BEGIN      Jes override...
 008288 9102 B9E1/47E0_009E1       42857  2                        IF    CPJFUNN,'SET CPLFLG5.CPFUNUM'
 008294                            42884  1                      END
 008294 7540/47F0 754C_08294 08286 42888  1                      ELSEIF ~RJEKJFL.KWRJFNUM,'SET CPLFLG5.CPFUNUM'
 0082A4                            42925                       END
                                   42929                       ¿þþþþþþþþþþþþþþþþþþþþþþþþþþþþþþþþþþþþþþþþþþþþþþþþþþþþþÜ
                                   42930                       Ÿ  Only use HOLD, XHOLD defaults on the RUN command.  Ÿ
                                   42931                       ¾þþþþþþþþþþþþþþþþþþþþþþþþþþþþþþþþþþþþþþþþþþþþþþþþþþþþþ»
 0082A4 9504 6000/4770_00000       42932                       IF    RJECFRUN,BEGIN      Run command defaults...
 0082AC 9140 6002/4710_00002       42947  1                      IF    ~RJEFHOLX,BEGIN
 0082B4 9140 B9FD/4710_009FD       42962  2                        IF    ~CPJFHOLX,BEGIN
 0082BC 9110 6405/47E0_00405       42977  3                          IF    RJEKJFL.KWRJFHOL,'SET RJEFHOLD'
 0082C8                            43004  2                        END
 0082C8 7574/47F0 7580 082C8 082BA 43008  2                        ELSE  BEGIN
 0082CC 9140 B9E1/47E0_009E1       43019  3                          IF    CPJFHOLD,'SET RJEFHOLD'
 0082D8                            43045  2                        END
 0082D8                            43049  1                      END
                                   43053  1
 0082D8 9120 6002/4710_00002       43054  1                      IF    ~RJEFXHOX,BEGIN
 0082E0 9120 B9FD/4710_009FD       43069  2                        IF    ~CPJFXHOX,BEGIN
 0082E8 94BF 6001      00001       43084  3                          CLEAR RJEFXHLD
 0082EC                            43091  2                        END
 0082EC 7598/47F0 75A4 082EC 082E6 43095  2                        ELSE  BEGIN
 0082F0 9120 B9E1/47E0_009E1       43106  3                          IF    CPJFXHLD,'SET RJEFXHLD'
 0082FC                            43132  2                        END
 0082FC                            43136  1                      END
 0082FC                            43140                       END
                                   43144                       ¿þþþþþþþþþþþþþþþþþþþþþþþþþþþþþþþþþþÜ
                                   43145                       Ÿ  Supply correct NOTIFY default.  Ÿ
                                   43146                       ¾þþþþþþþþþþþþþþþþþþþþþþþþþþþþþþþþþþ»
 0082FC 9180 6002/4710_00002       43147                       IF    ~RJEFNTFX,BEGIN
 008304 9180 B9FD/4710_009FD       43162  1                      IF    ~CPJFNTFX,BEGIN
 00830C 9108 6405/47E0_00405       43177  2                        IF    RJEKJFL.KWRJFNOT,'SET RJEFNTFY'
 008318                            43204  1                      END
 008318 75C4/47F0 75D0 08318 0830A 43208  1                      ELSE  BEGIN
 00831C 9110 B9E1/47E0_009E1       43219  2                        IF    CPJFNTFY,'SET RJEFNTFY'
 008328                            43245  1                      END
 008328                            43249                       END
                                   43253
 008328 94DF 63F5      003F5       43254                       CLEAR RJEFCTRL            No longer sending control cards
                                   43261
 00832C 47F0 76A6            083FE 43262                       B     JCDDONE
                                   43263              *
                                   43264              *  EXITS
                                   43265              *
 008330 4110 7A70/4100_      087C8 43266              JCBAD    SETMSG 'Bad job card'
 008338 D207 B886 79C8 00886 08720 43270                       MVC   CPERRID,=CL8'BADJOB'
 00833E 47F0 7650            083A8 43271                       B     JCCOM
                                   43272
 008342 41F0 B050/58E0_      00050 43273              JCACCBAD TSEG  (R1),(R0)
1RJE      (RJE4072) (12:53) (15MAR04) RJE Subroutines                                                                       Page   92
0Current Usings:  (RJEWA,R6) (*,R7) (JOBWA-(4+36),R8) (CP,R11) (CV,R12)
0Loc    Object Code    Addr1 Addr2  Stmt Lv Lineno    Source Statement           (Hibal 5, Asmedit 3.3)  HLASM R4.0  2004/03/15 12.53
+___    ______ ____    _____ _____  ____ __ ______    ______ _________
000834C 4110 7A7C/4100_      087D4 43298                       SETMSG ': invalid account format on job card'
 008354 D207 B886 79D0 00886 08728 43302                       MVC   CPERRID,=CL8'INVACCT'
 00835A 47F0 7650            083A8 43303                       B     JCCOM
                                   43304
 00835E 41F0 B050/58E0_      00050 43305              JCNAMBAD TSEG  (R1),(R0)
 008368 4110 7B29/4100_      08881 43330                       SETMSG ': invalid characters in jobname'
 008370 D207 B886 79D8 00886 08730 43334                       MVC   CPERRID,=CL8'INVCHARS'
 008376 47F0 7650            083A8 43335                       B     JCCOM
                                   43336
 00837A 1814/1803/41F0_            43337              JCNAML   TSEG  (R4),(R3)
 008388 4110 7AEA/4100_      08842 43363                       SETMSG ': jobname too long'
 008390 D207 B886 79E0 00886 08738 43367                       MVC   CPERRID,=CL8'BIGJOBNM'
 008396 47F0 7650            083A8 43368                       B     JCCOM
                                   43369
 00839A 4110 7AFC/4100_      08854 43370              JCLONG   SETMSG 'Expanded JOB card too long'
 0083A2 D207 B886 79E8 00886 08740 43374                       MVC   CPERRID,=CL8'LONGJOB'
                                   43375              *       *B     JCCOM
                                   43376              *
 0083A8 41F0 B050/58E0_      00050 43377              JCCOM    TSEG  (R1),(R0)
 0083B2 4110 7AA0/4100_      087F8 43402                       TSEG  ' in '
 0083C4 9503 BD89/4770_00D89       43420                       IF    CPFRDEXT,'TSEG "external",,B'
 0083DE 4110 7AA4/4100_      087FC 43458                       TSEG  'line',,B
 0083F0 5800 B73C            0073C 43476                       L     R0,CPLCNO
 0083F4 58E0 7AA8/0DEE       08800 43477                       VCALL CVEXNO
 0083FA 47F0 C7CC            007CC 43481                       B     CVABTMSG
                                   43482
 0083FE 18D8/9808 D004_            43483              JCDDONE  PEND
 DROP   JOBWA-(4+36),R8
 DROP   *,R7
1RJE      (RJE4072) (12:53) (15MAR04) RJE Subroutines                                                                       Page   93
0Current Usings:  (RJEWA,R6) (CP,R11) (CV,R12)
0Loc    Object Code    Addr1 Addr2  Stmt Lv Lineno    Source Statement           (Hibal 5, Asmedit 3.3)  HLASM R4.0  2004/03/15 12.53
+___    ______ ____    _____ _____  ____ __ ______    ______ _________
0                                  43510              ¿þþþþþþþþþþþþþþþþþþþþþþþþþþþþþþþþþþþþþþþþþþþþþþþþþþþþþþþþþþþþþþþþþþþþþÜ
                                   43511              Ÿ                                                                     Ÿ
                                   43512              Ÿ  CKACCT  -- Routine to verify that it's ok for the user to          Ÿ
                                   43513              Ÿ    submit a job with the account in "RJEACCT".  This routine        Ÿ
                                   43514              Ÿ    also builds the default jobname.                                 Ÿ
                                   43515              Ÿ                                                                     Ÿ
                                                      ¾þþþþþþþþþþþþþþþþþþþþþþþþþþþþþþþþþþþþþþþþþþþþþþþþþþþþþþþþþþþþþþþþþþþþþ»
000840C 50E0 D000/9008_      00000 43516              CKACCT   PROC
 USING  *,R7
                                   43555                       ¿þþþþþþþþþþþþþþþþþþþþþþþþþþþþþþþþþþþþþþþþþþþþþþþþþþþþþÜ
                                   43556                       Ÿ  Validate account and read the keyword file entry.  Ÿ
                                   43557                       ¾þþþþþþþþþþþþþþþþþþþþþþþþþþþþþþþþþþþþþþþþþþþþþþþþþþþþþ»
 008426 185D/41D0 D1F8             43558                       XPUSH ,,L'KWR,PTR=R5
 USING  KWR,R5                     43561                       USING KWR,R5
 00842C D7FF 5000 5000_00000 00000 43570                       CLEAR KWR
 008438 D204 5000 63FE 00000 003FE 43578                       MVC   KWRUSER(5),RJEACCT
 00843E 1B00                       43579                       CLEAR R0                  Assume normal check
 008440 9102 6001/47E0_00001       43583                       IF    RJEFSPEC,'LA R0,1'  Special means no password prompt
 00844C 9505 6000/4770_00000       43604                       IF    RJECFCOND,'LA R0,1'  No password prompt on CONDENSE
 008458 1115                       43625                       LNR   R1,R5               KWR ptr (neg flags run entry)
 00845A 58E0 73DE/0DEE       08804 43626                       VCALL JOBKWCHK            Read kw, check access, etc.
                                   43630                       ¿þþþþþþþþþþþþþþþþþþþþþþþþþþþþþþþþþþþþþþþþþþþþþþþÜ
                                   43631                       Ÿ  Check for batch access for the RUN command.  Ÿ
                                   43632                       ¾þþþþþþþþþþþþþþþþþþþþþþþþþþþþþþþþþþþþþþþþþþþþþþþ»
 008460 9504 6000/4770_00000       43633                       IF    RJECFRUN,BEGIN      Only check for the RUN command...
 008468 9180 5020/4710_00020       43648  1                      IF    ~KWRBFL.KWRBFVAL,BEGIN  No batch access...
 008470 4110 732A/4100_      08750 43664  2                        TSEG  'Account '
 008482 4110 5003/4100_      00003 43682  2                        TSEG  KWRGRP
 008494 4110 747A/4100_      088A0 43710  2                        TSEG  '.'
 0084A6 4110 5000/4100_      00000 43728  2                        TSEG  KWRUSER
 0084B8 4110 7332/4100_      08758 43756  2                        SETMSG ' is not valid for batch.'
 0084C0 47F0 C7CC            007CC 43760  2                        B     CVABTMSG
 0084C4                            43761  1                      END
                                   43765  1
 0084C4 9180 500F/4710_0000F       43766  1                      IF    ~KWRAFL.KWRAFVAL,BEGIN  Suspended...
 0084CC 4110 732A/4100_      08750 43782  2                        TSEG  'Account '
 0084DE 4110 5003/4100_      00003 43800  2                        TSEG  KWRGRP
 0084F0 4110 747A/4100_      088A0 43828  2                        TSEG  '.'
 008502 4110 5000/4100_      00000 43846  2                        TSEG  KWRUSER
 008514 4110 747B/4100_      088A1 43874  2                        TSEG  ' can''t run jobs.  This account '
 008526 4110 749A/4100_      088C0 43892  2                        SETMSG 'is suspended.'
 00852E 95F1 5063/4770_00063       43896  2                        IF    (KWRSTAT,EQ,KWRSEXP),'SETMSG "has expired."'
 00853E 95F3 5063/4770_00063       43923  2                        IF    (KWRSTAT,EQ,KWRSOVB),'SETMSG "is over budget."'
 00854E 47F0 C7CC            007CC 43950  2                        B     CVABTMSG
 008552                            43951  1                      END
 008552                            43955                       END
                                   43959                       ¿þþþþþþþþþþþþþþþþþþþþþþþþþþþþþÜ
                                   43960                       Ÿ  Fill in account defaults.  Ÿ
                                   43961                       ¾þþþþþþþþþþþþþþþþþþþþþþþþþþþþþ»
 008552 D200 6405 5037 00405 00037 43962                       MVC   RJEKJFL,KWRJFL      Save job flags
 008558 D207 6410 5021 00410 00021 43963                       MVC   RJEKDEST,KWRDEST    Save submitters destination
 00855E D607 6410 6410_00410 00410 43964                       IF    (RJEKDEST,NZ),'OC RJEKDEST,CVBLANKS'  Correct for PACT
 00856E D202 6418 5010 00418 00010 43986                       MVC   RJEKBIN,KWRBIN      Save submitters bin
1RJE      (RJE4072) (12:53) (15MAR04) RJE Subroutines                                                                       Page   94
0Current Usings:  (KWR,R5) (RJEWA,R6) (*,R7) (CP,R11) (CV,R12)
0Loc    Object Code    Addr1 Addr2  Stmt Lv Lineno    Source Statement           (Hibal 5, Asmedit 3.3)  HLASM R4.0  2004/03/15 12.53
+___    ______ ____    _____ _____  ____ __ ______    ______ _________
0008574 D207 6406 5038 00406 00038 43987                       MVC   RJEKPFX,KWRJPFX     Job prefix
 00857A D707 6406 734A 00406 08770 43988                       XC    RJEKPFX,=C'JOBMASK.'  Unscramble
 008580 D607 5038 5038_00038 00038 43989                       IF    (KWRJPFX,Z),BEGIN   Figure out a default...
 00858A D204 6406 63FE 00406 003FE 44005  1                      MVC   RJEKPFX(5),RJEACCT  Uuugg
 008590 D202 640B C4D8 0040B 004D8 44006  1                      MVC   RJEKPFX+5(3),CVBLANKS
 008596                            44007                       END
 008596 48F0 501C            0001C 44011                       LH    R15,KWRLLC          Print line limit (in thousands)
 00859A 4CF0 7448            0886E 44012                       MH    R15,=H'1000'
 00859E 50F0 641C            0041C 44013                       ST    R15,RJEKLLIM
 0085A2 48F0 501A            0001A 44014                       LH    R15,KWRLCP          Punch card limit (in hundreds)
 0085A6 4CF0 744A            08870 44015                       MH    R15,=H'100'
 0085AA 50F0 6420            00420 44016                       ST    R15,RJEKPLIM
 0085AE D201 640E 5040 0040E 00040 44017                       MVC   RJEKJNO,KWRJNO      Job count
 0085B4 4140 0001            00001 44018                       LA    R4,1                Need to kick KWRJNO by 1
 0085B8 D504 63FE B3B4_003FE 003B4 44019                       IF    ('CLC RJEACCT(5),CPSACCT',EQ),BEGIN
 0085C2 D607 BA01 BA01_00A01 00A01 44032  1                      IF    (CPJPFX,NZ),'MVC RJEKPFX,CPJPFX'  Session override
 0085D2 D501 744C BA0A_08872 00A0A 44054  1                      IF    (CPJNO,NE,-1),BEGIN
 0085DC D201 640E BA0A 0040E 00A0A 44072  2                        MVC   RJEKJNO,CPJNO       Session override
 0085E2 41F0 0001/4AF0_      00001 44073  2                        INCR  R15,CPJNO           Kick local counter
 0085EE 1B44                       44079  2                        CLEAR R4                  But don't kick KWR counter
 0085F0                            44083  1                      END
 0085F0                            44087                       END
 0085F0 D607 6027 6027_00027 00027 44091                       IF    (RJEPFX,NZ),'MVC RJEKPFX,RJEPFX'  Local override
                                   44113
 008600 9180 500E/47E0_0000E       44114                       WHILE KWRIFL.KWRIFVAL,BEGIN
 008608 1FFF/BFF3 5040             44132  1                      L2    R15,KWRJNO
 00860E 1AF4                       44140  1                      AR    R15,R4              Kick job count
 008610 47B0 71F0/1BFF       08616 44141  1                      IF    NEG,'CLEAR R15'
 008616 40F0 5040            00040 44161  1                      STH   R15,KWRJNO          Save new count
 00861A 41F0 0001/4AF0_      00001 44162  1                      INCR  R15,KWRRJE          Always kick total job count
 008626 59F0 73EE/47D0_      08814 44168  1                      IF    (R15,GT,20000),'CLEAR KWRRJE'
 008634 1815/4100 0080_            44197  1                      KWRITE KWR                Re-write KWR
 008640 9140 51F4/4710_001F4       44210  1                      IF    KWRHFL.KWRHFUOK,EXIT  Record updated, scram
 008648 47F0 71DA            08600 44229                       END
 00864C D7FF 5000 5000_00000 00000 44234                       CLEAR KWR
 008658 4BD0 744E            08874 44242                       XPOP  ,,L'KWR
 DROP   KWR,R5                     44244                       DROP  KWR
                                   44252                       ¿þþþþþþþþþþþþþþþþþþþþþþþþþþþþþþþþþþÜ
                                   44253                       Ÿ  Now build the default jobname.  Ÿ
                                   44254                       ¾þþþþþþþþþþþþþþþþþþþþþþþþþþþþþþþþþþ»
 00865C D607 63F6 63F6_003F6 003F6 44255                       IF    (RJEJOBNM,Z),BEGIN  Nothing yet...
 008666 D207 63F6 601F 003F6 0001F 44271  1                      MVC   RJEJOBNM,RJENAME
 00866C D607 63F6 63F6_003F6 003F6 44272  1                      IF    (RJEJOBNM,NZ),EXIT  Complete job name specified
 008676 D207 63F6 6406 003F6 00406 44291  1                      MVC   RJEJOBNM,RJEKPFX    Start with prefix
 00867C D607 602F 602F_0002F 0002F 44292  1                      IF    (RJEID,NZ),BEGIN
 008686 4130 6036            00036 44308  2                        LA    R3,RJEID+7
 00868A 4120 0008            00008 44309  2                        LA    R2,8
 00868E 9540 3000/4770_00000       44310  2           CHKIDL       IF    (@R3,EQ,' '),'DECR R3; BCT R2,CHKIDL'
 00869C 4110 63FD            003FD 44335  2                        LA    R1,RJEJOBNM+7
 0086A0 1BFF                       44336  2                        CLEAR R15
 0086A2 9540 1000/4770_00000       44340  2                        WHILE (@R1,EQ,' '),'DECR R1; LA R15,@R15+1'
 0086B4 1B2F                       44367  2                        SR    R2,R15
 0086B6 47D0 7298/1B12_      086BE 44368  2                        IF    POS,'SR R1,R2; AR R15,R2'
 0086BE 06F0/12FF/4740_            44386  2                        MOVE  R15,@R1+1,RJEID
1RJE      (RJE4072) (12:53) (15MAR04) RJE Subroutines                                                                       Page   95
0Current Usings:  (RJEWA,R6) (*,R7) (CP,R11) (CV,R12)
0Loc    Object Code    Addr1 Addr2  Stmt Lv Lineno    Source Statement           (Hibal 5, Asmedit 3.3)  HLASM R4.0  2004/03/15 12.53
+___    ______ ____    _____ _____  ____ __ ______    ______ _________
00086CA                            44424  1                      END
 0086CA 72A8/47F0 72E4 086CA 08684 44428  1                      ELSE  BEGIN
 0086CE 1FFF/BFF3 640E_            44439  2                        BTD   CPDOUB,,L2:RJEKJNO
 0086E2 D607 BC88 7352 00C88 08778 44466  2                        OC    CPDOUB,=C'00000000'
 0086E8 4140 63FD            003FD 44467  2                        LA    R4,RJEJOBNM+7
 0086EC 4130 BC8F            00C8F 44468  2                        LA    R3,CPDOUB+7
 0086F0 41F0 0008            00008 44469  2                        LA    R15,8
 0086F4 9540 4000/4770_00000       44470  2           CHKDFLP      IF    (@R4,EQ,' '),BEGIN
 0086FC D200 4000 3000 00000 00000 44487  3                          MVC   @R4(1),@R3
 008702 0640                       44488  3                          DECR  R4
 008704 0630                       44490  3                          DECR  R3
 008706 46F0 72CE            086F4 44492  3                          BCT   R15,CHKDFLP
 00870A                            44493  2                        END
 00870A                            44497  1                      END
 00870A                            44501                       END
 00870A 18D8/9808 D004_            44505                       PEND
 DROP   *,R7
                                   44525
                                   44526                       QLTORG
1RJE      (RJE4072) (12:53) (15MAR04) RJE Subroutines                                                                       Page   96
0Current Usings:  (RJEWA,R6) (CP,R11) (CV,R12)
0Loc    Object Code    Addr1 Addr2  Stmt Lv Lineno    Source Statement           (Hibal 5, Asmedit 3.3)  HLASM R4.0  2004/03/15 12.53
+___    ______ ____    _____ _____  ____ __ ______    ______ _________
0                                  44599              ¿þþþþþþþþþþþþþþþþþþþþþþþþþþþþþþþþþþþþþþþþþþþþþþþþþþþþþþþþþþþþþþþþþþþþþÜ
                                   44600              Ÿ                                                                     Ÿ
                                   44601              Ÿ  JOBCNTL -- Routine to format control cards.                        Ÿ
                                   44602              Ÿ                                                                     Ÿ
                                                      ¾þþþþþþþþþþþþþþþþþþþþþþþþþþþþþþþþþþþþþþþþþþþþþþþþþþþþþþþþþþþþþþþþþþþþþ»
0                                  44604                       MACRO
                                   44605              &L       JCSEG &O,&F
                                   44606                       AIF   ('&F' EQ '').O
                                   44607              &L       IF    (&F,NZ),BEGIN
                                   44608                       SEG   (R1),(R0)
                                   44609                       SEG   &O
                                   44610                       SEGT  &F
                                   44611                       SETMSG ','
                                   44612                       END
                                   44613                       MEXIT
                                   44614              .O       ANOP
                                   44615              &L       SEG   (R1),(R0)
                                   44616                       SEG   &O
                                   44617                       SETMSG ','
                                   44618                       MEND
-0088FA 50E0 D000/9008_      00000 44620              JOBCNTL  PROC
 USING  *,R7
 008914 9104 6001/4710_00001       44659                       IF    RJEFDUMB,JOBCNTLX   Don't add control cards if DUMB
                                   44677
 00891C 9180 63F5/4710_003F5       44678                       IF    RJEFSNT,JOBCNTLX    Control cards already sent
 008924 9680 63F5      003F5       44696                       SET   RJEFSNT
                                   44702              *
                                   44703              *
 008928 9620 63F5      003F5       44704                       SET   RJEFCTRL            Sending control lines
                                   44710                       ¿þþþþþþþþþþþþþþþþþþþþþþþþþþþþþþþþþþþþþþþÜ
                                   44711                       Ÿ  Add JOBPARM lines with rje options.  Ÿ
                                   44712                       ¾þþþþþþþþþþþþþþþþþþþþþþþþþþþþþþþþþþþþþþþ»
 00892C 4110 7D20/4100_      09634 44713                       SETMSG '/*JOBPARM '
 008934 9120 6001/47E0_00001       44717                       IF    RJEFNTFY,BEGIN
 00893C 41F0 6430/58E0_      00430 44732  1                      SEG   (R1),(R0)
 008946 4110 7DB8/4100_      096CC 44755  1                      SEG   'NOTIFY='
 008958 4120 6009            00009 44772  1                      LA    R2,RJENACCT
 00895C D604 6009 6009_00009 00009 44773  1                      IF    (RJENACCT,Z),'LA R2,CPSACCT'
 00896A 4110 2003/4100_      00003 44795  1                      SEG   @R2+3,2             Gg
 00897C 4110 7DBF/4100_      096D3 44824  1                      SEG   '.'
 00898E 1812/4100 0003_            44841  1                      SEG   @R2,3               Uuu
 00899E 4110 7DC0/4100_      096D4 44870  1                      SETMSG ','
 0089A6                            44874                       END
 0089A6 91C0 6001/47E0_00001       44878                       IF    RJEFXHLD*RJEFHOLD,'JCSEG "HOLD=ALL"'
 0089D2 70C2/47F0 70EE_089D2 089AC 44946                       ELSEIF RJEFXHLD,'JCSEG "HOLD=JOB"'
 008A02 70F2/47F0 711E_08A02 089DC 45020                       ELSEIF RJEFHOLD,'JCSEG "HOLD=OUTPUT"'
 008A32 9500 600F/4780_0000F       45094                       IF    (RJEBLOCK,NZ),BEGIN
 008A3A 41F0 6430/58E0_      00430 45110  1                      SEG   (R1),(R0)
 008A44 4110 7D2A/4100_      0963E 45133  1                      SEG   'BLOCK='
 008A56 4110 600F/4100_      0000F 45150  1                      SETMSG RJEBLOCK
 008A5E 9500 6010/4780_00010       45164  1                      IF    (RJEOBLCK,NZ),BEGIN
1RJE      (RJE4072) (12:53) (15MAR04) RJE Subroutines                                                                       Page   97
0Current Usings:  (RJEWA,R6) (*,R7) (CP,R11) (CV,R12)
0Loc    Object Code    Addr1 Addr2  Stmt Lv Lineno    Source Statement           (Hibal 5, Asmedit 3.3)  HLASM R4.0  2004/03/15 12.53
+___    ______ ____    _____ _____  ____ __ ______    ______ _________
0008A66 4110 7DCC/4100_      096E0 45180  2                        SEG   '('
 008A78 4110 600F/4100_      0000F 45197  2                        SEGT  RJEBLOCK
 008A8A 4110 7DC0/4100_      096D4 45225  2                        SEG   ','
 008A9C 4110 6010/4100_      00010 45242  2                        SEGT  RJEOBLCK
 008AAE 4110 7DCD/4100_      096E1 45270  2                        SETMSG ')'
 008AB6                            45274  1                      END
 008AB6 41F0 6430/58E0_      00430 45278  1                      SEG   (R1),(R0)
 008AC0 4110 7DC0/4100_      096D4 45301  1                      SETMSG ','
 008AC8                            45305                       END
 008AC8 9500 6011/4780_00011       45309                       IF    (RJEPRIO,NZ),BEGIN
 008AD0 41F0 6430/58E0_      00430 45325  1                      SEG   (R1),(R0)
 008ADA 4110 7DCE/4100_      096E2 45348  1                      SEG   'PRIO='
 008AEC 4110 6011/4100_      00011 45365  1                      SETMSG RJEPRIO
 008AF4 9500 6012/4780_00012       45379  1                      IF    (RJEOPRIO,NZ),BEGIN
 008AFC 4110 7DCC/4100_      096E0 45395  2                        SEG   '('
 008B0E 4110 6011/4100_      00011 45412  2                        SEGT  RJEPRIO
 008B20 4110 7DC0/4100_      096D4 45440  2                        SEG   ','
 008B32 4110 6012/4100_      00012 45457  2                        SEGT  RJEOPRIO
 008B44 4110 7DCD/4100_      096E1 45485  2                        SETMSG ')'
 008B4C                            45489  1                      END
 008B4C 41F0 6430/58E0_      00430 45493  1                      SEG   (R1),(R0)
 008B56 4110 7DC0/4100_      096D4 45516  1                      SETMSG ','
 008B5E                            45520                       END
 008B5E 9140 6005/4710_00005       45524                       IF    ~RJEFEXT,'JCSEG "DEST=",RJEDEST'
 008BA6 D602 603F 603F_0003F 0003F 45637                       JCSEG 'BIN=',RJEBIN
 008BE6 5900 7CC8/4770_      095DC 45730                       IF    (R0,EQ,1),'SEGCOL 73; SEGWR "WYLGEN"'
                                   45790
 008C0E 4110 7D20/4100_      09634 45791                       SETMSG '/*JOBPARM '
 008C16 9180 6006/47E0_00006       45795                       IF    RJENOLOG,'JCSEG "LOG=NO"'
 008C42 9140 6006/47E0_00006       45860                       IF    RJENOJCL,'JCSEG "JCL=NO"'
 008C6E 5900 7CC8/4770_      095DC 45925                       IF    (R0,EQ,1),'SEGCOL 73; SEGWR "WYLGEN"'
                                   45985
 008C96 4110 7D20/4100_      09634 45986                       SETMSG '/*JOBPARM '
 008C9E D603 604E 604E_0004E 0004E 45990                       JCSEG 'FCB=',RJEFCB
 008CDE D607 6042 6042_00042 00042 46083                       JCSEG 'FORMS=',RJEFORMS
 008D1E D603 604A 604A_0004A 0004A 46176                       JCSEG 'FLASH=',RJEFLASH
 008D5E 9120 6005/47E0_00005       46269                       IF    RJEFBRST,'JCSEG "BURST=YES"'
 008D8A 9110 6005/47E0_00005       46334                       IF    RJEFKEEP,'JCSEG "KEEP=YES"'
 008DB6 9108 6004/47E0_00004       46399                       IF    RJEFNSEP,'JCSEG "SEP=NO"'
 008DE2 9104 6004/47E0_00004       46464                       IF    RJEFMAN,'JCSEG "FEED=MANUAL"'
 008E0E 9102 6004/47E0_00004       46529                       IF    RJEFFMAN,'JCSEG "FEED=(MANUAL,FIRST)"'
 008E3A 5900 7CC8/4770_      095DC 46594                       IF    (R0,EQ,1),'SEGCOL 73; SEGWR "WYLGEN"'
                                   46654
 008E62 4110 7D20/4100_      09634 46655                       SETMSG '/*JOBPARM '
                                   46659              *        JCSEG 'SYSAFF=',RJESYSAF
 008E6A 9500 600E/4780_0000E       46660                       JCSEG 'CLASS=',RJEJCLS
                                   46753
 008EA8 D60F 605A 605A_0005A 0005A 46754                       IF    (RJECHARS,NZ),BEGIN  CHARS option...
 008EB2 41F0 6430/58E0_      00430 46770  1                      SEG   (R1),(R0)
 008EBC 4110 7D5A/4100_      0966E 46793  1                      SEG   'CHARS='
 008ECE D60B 605E 605E_0005E 0005E 46810  1                      IF    (RJECHARM,NZ),'SEG "("'
 008EEA 4110 605A/4100_      0005A 46848  1                      SEGT  RJECHAR0
 008EFC D603 605E 605E_0005E 0005E 46876  1                      IF    (RJECHAR1,NZ),'SEG ","; SEGT RJECHAR1'
 008F2A D603 6062 6062_00062 00062 46942  1                      IF    (RJECHAR2,NZ),'SEG ","; SEGT RJECHAR2'
1RJE      (RJE4072) (12:53) (15MAR04) RJE Subroutines                                                                       Page   98
0Current Usings:  (RJEWA,R6) (*,R7) (CP,R11) (CV,R12)
0Loc    Object Code    Addr1 Addr2  Stmt Lv Lineno    Source Statement           (Hibal 5, Asmedit 3.3)  HLASM R4.0  2004/03/15 12.53
+___    ______ ____    _____ _____  ____ __ ______    ______ _________
0008F58 D603 6066 6066_00066 00066 47008  1                      IF    (RJECHAR3,NZ),'SEG ","; SEGT RJECHAR3'
 008F86 D60B 605E 605E_0005E 0005E 47074  1                      IF    (RJECHARM,NZ),'SEG ")"'
 008FA2 4110 7DC0/4100_      096D4 47112  1                      SETMSG ','
 008FAA                            47116                       END
                                   47120
 008FAA 9110 6001/47E0_00001       47121                       IF    RJEFDUP,'JCSEG "DUPLEX=YES"'
 008FD6 9108 6001/47E0_00001       47186                       IF    RJEFNDUP,'JCSEG "DUPLEX=NO"'
 009002 D605 6018 6018_00018 00018 47251                       JCSEG 'PFORMAT=',RJEPFORM
 009042 5900 7CC8/4770_      095DC 47344                       IF    (R0,EQ,1),'SEGCOL 73; SEGWR "WYLGEN"'
                                   47404
 00906A 4110 7D20/4100_      09634 47405                       SETMSG '/*JOBPARM '
 009072 4820 6366            00366 47409                       LH    R2,RJECOPY          No. of copies
 009076 1222/4780 77A0             47410                       IF    (R2,NZ),BEGIN
 00907C 47B0 776E/1B22       09082 47424  1                      IF    NEG,'CLEAR R2'
 009082 41F0 6430/58E0_      00430 47444  1                      SEG   (R1),(R0)
 00908C 4110 7E08/4100_      0971C 47467  1                      SEG   'COPIES='
 00909E 1812/1B00/41F0_            47484  1                      SEGDC (R2)
 0090AC 4110 7DC0/4100_      096D4 47505  1                      SETMSG ','
 0090B4                            47509                       END
 0090B4 4820 636E/1222_      0036E 47513                       IF    ('LTH R2,RJEEJECT',NZ),BEGIN
 0090BE 47B0 77B0/1B22       090C4 47529  1                      IF    NEG,'CLEAR R2'
 0090C4 41F0 6430/58E0_      00430 47549  1                      SEG   (R1),(R0)
 0090CE 4110 7E0F/4100_      09723 47572  1                      SEG   'LINECT='
 0090E0 1812/1B00/41F0_            47589  1                      SEGDC (R2)
 0090EE 4110 7DC0/4100_      096D4 47610  1                      SETMSG ','
 0090F6                            47614                       END
 0090F6 4820 6368/1222_      00368 47618                       IF    ('LTH R2,RJEIND',POS),BEGIN
 009100 41F0 6430/58E0_      00430 47634  1                      SEG   (R1),(R0)
 00910A 4110 7E16/4100_      0972A 47657  1                      SEG   'INDENT='
 00911C 1812/1B00/41F0_            47674  1                      SEGDC (R2)
 00912A 4110 7DC0/4100_      096D4 47695  1                      SETMSG ','
 009132                            47699                       END
 009132 5900 7CC8/4770_      095DC 47703                       IF    (R0,EQ,1),'SEGCOL 73; SEGWR "WYLGEN"'
                                   47763                       ¿þþþþþþþþþþþþþþþþþþþþþþþþþþþþþþþþþþþþþþþþþþþþþþþÜ
                                   47764                       Ÿ  Add ROUTE lines if user@host was specified.  Ÿ
                                   47765                       ¾þþþþþþþþþþþþþþþþþþþþþþþþþþþþþþþþþþþþþþþþþþþþþþþ»
 00915A 9140 6005/47E0_00005       47766                       IF    RJEFEXT,BEGIN       Print to user@host...
 009162 4110 7D6A/4100_      0967E 47781  1                      SEG   '/*ROUTE PRINT '
 009174 4110 6037/4100_      00037 47798  1                      SEGT  RJEDEST
 009186 4110 7DBF/4100_      096D3 47826  1                      SEG   '.'
 009198 4110 6375/4100_      00375 47843  1                      SEGT  RJETO,8
 0091AA 1B00/41F0 6430_            47873  1                      SEGWR
                                   47897  1
 0091B6 4110 7D78/4100_      0968C 47898  1                      SEG   '/*ROUTE PUNCH '
 0091C8 4110 6037/4100_      00037 47915  1                      SEGT  RJEDEST
 0091DA 4110 7DBF/4100_      096D3 47943  1                      SEG   '.'
 0091EC 4110 6375/4100_      00375 47960  1                      SEGT  RJETO,8
 0091FE 1B00/41F0 6430_            47990  1                      SEGWR
 00920A                            48014                       END
1RJE      (RJE4072) (12:53) (15MAR04) RJE Subroutines                                                                       Page   99
0Current Usings:  (RJEWA,R6) (*,R7) (CP,R11) (CV,R12)
0Loc    Object Code    Addr1 Addr2  Stmt Lv Lineno    Source Statement           (Hibal 5, Asmedit 3.3)  HLASM R4.0  2004/03/15 12.53
+___    ______ ____    _____ _____  ____ __ ______    ______ _________
0                                  48018                       ¿þþþþþþþþþþþþþþþþþþþþþþþþþþþþþþþþþþþþþþþþþþþþþþþþÜ
                                   48019                       Ÿ  Add SENDER line for Bitnet mail information.  Ÿ
                                   48020                       ¾þþþþþþþþþþþþþþþþþþþþþþþþþþþþþþþþþþþþþþþþþþþþþþþþ»
 00920A 9104 6002/47E0_00002       48021                       IF    RJEFPBSMTP,BEGIN    If BSMTP mail
                                   48036  1         C            IF    ((CVMACHID,EQ,'SYSA'),OR,
 009212 D503 7CDC C00C_095F0 0000C        1                            (CVMACHID,EQ,'SYSC')),BEGIN
 009226 4110 7C9C/4100_      095B0 48069  2                        SEGWR '/*SENDER MAILER@STANFORD'  Sender id is MAILER
 009238                            48087  1                      END
 009238 7928/47F0 7942_09238 09224 48091  1                      ELSEIF CVFRLG,BEGIN
 009244 4110 7E1D/4100_      09731 48115  2                        SEGWR '/*SENDER MAILER@RLG'
 009256                            48133  1                      END
 009256                            48137                       END
                                   48141              ***      IF    (RJESEND,NZ),BEGIN  We have sender info...
                                   48142              ***      SEG   '/*SENDER '
                                   48143              ***      SEGT  RJESEND
                                   48144              ***      SEGWR
                                   48145              ***      END
                                   48146                       ¿þþþþþþþþþþþþþþþþþþþþþþþþþþþþþþÜ
                                   48147                       Ÿ  Add MAIL line for ID mail.  Ÿ
                                   48148                       ¾þþþþþþþþþþþþþþþþþþþþþþþþþþþþþþ»
                                   48149                       AIF   (NOT &JESMAIL).JMAILC
 009256 9108 6005/47E0_00005       48150                       IF    RJEFFAX,BEGIN       If fax job, make special /*MAIL
 00925E 4110 7E30/4100_      09744 48165  1                      SEGB  '/*MAIL FAX TO'     Start fax info
 009270 4110 6375/4100_      00375 48183  1                      SEGT  RJETO               Add phone number
 009282 D606 635E 635E_0035E 0035E 48211  1                      IF    (RJEFXAUT,NZ),BEGIN  If have authorization code,
 00928C 4110 7D86/4100_      0969A 48227  2                        SEGB  '\\AUTH'             Add 'AUTH nnnnnnnn' to record
 00929E 4110 635E/4100_      0035E 48245  2                        SEGT  RJEFXAUT
 0092B0                            48273  1                      END
 0092B0 4110 7D8C/4100_      096A0 48277  1                      SEGWR '\\'
                                   48295  1
 0092C2 D63F 631E 631E_0031E 0031E 48296  1                      IF    (RJEFXNOT,NZ),BEGIN     If have email notify addr,
 0092CC 4110 7D8E/4100_      096A2 48312  2                        SEG   '/*MAIL Notify:'
 0092DE 4110 631E/4100_      0031E 48329  2                        SEGT  RJEFXNOT
 0092F0 4110 7D8C/4100_      096A0 48357  2                        SEGWR '\\'
 009302                            48375  1                      END
                                   48379  1
 009302 D67F 629E 629E_0029E 0029E 48380  1                      IF    (RJEFXRCP,NZ),BEGIN     If recipient text specified,
 00930C 4110 7D9C/4100_      096B0 48396  2                        SEG   '/*MAIL To:'            Add 'To:xxxxx' to record
 00931E 4110 629E/4100_      0029E 48413  2                        SEGT  RJEFXRCP
 009330 4110 7D8C/4100_      096A0 48441  2                        SEGWR '\\'
 009342                            48459  1                      END
                                   48463  1
 009342 4110 7CE8/4100_      095FC 48464  1                      SEG   '/*MAIL From:'          Add 'From:xxxxx' to record
 009354 D5B3 61EA C4D8_001EA 004D8 48481  1                      IF    (RJESEND,GT,CVBLANKS),'SEGT RJESEND'
 009370 7A60/47F0 7A7C_09370 0935C 48532  1                      ELSEIF (CPSNAME,GT,CVBLANKS),'SEGT CPSNAME'
 009390 4110 7D8C/4100_      096A0 48592  1                      SEGWR '\\'
                                   48610  1                      ¿þþþþþþþþþþþþþþþþþþþþþþþþþþþþþþþþþþþþþþþþþþþþþþþþþþþþþþþþþÜ
                                   48611  1                      Ÿ  Build cover page text (date and time, followed by any  Ÿ
                                   48612  1                      Ÿ  user HEADER or TITLE text).                            Ÿ
                                   48613  1                      ¾þþþþþþþþþþþþþþþþþþþþþþþþþþþþþþþþþþþþþþþþþþþþþþþþþþþþþþþþþ»
 0093A2 182D/41D0 D020             48614  1                      XPUSH ,,32,PTR=R2             Get area for date routine
 0093A8 18F2                       48617  1                      LR    R15,R2
 0093AA 58E0 7CF4/0DEE       09608 48618  1                      VCALL LOCALTOD
 0093B0 58E0 7CF8/0DEE       0960C 48622  1                      VCALL FMTXDATE                Get formatted date
1RJE      (RJE4072) (12:53) (15MAR04) RJE Subroutines                                                                       Page  100
0Current Usings:  (RJEWA,R6) (*,R7) (CP,R11) (CV,R12)
0Loc    Object Code    Addr1 Addr2  Stmt Lv Lineno    Source Statement           (Hibal 5, Asmedit 3.3)  HLASM R4.0  2004/03/15 12.53
+___    ______ ____    _____ _____  ____ __ ______    ______ _________
00093B6 4110 7CFC/4100_      09610 48626  1                      SEG   '/*MAIL Date:'          Start 'Date:' text
 0093C8 4110 2008/4100_      00008 48643  1                      SEGB  @R2+8,3                 Month (3 chars)
 0093DA 95F0 2005/47D0_00005       48673  1                      IF    (@R2+5,GT,'0'),'SEG @R2+5,1'  Day
 0093F4 4110 2006/4100_      00006 48723  1                      SEG   @R2+6,1
 009406 4110 7DA6/4100_      096BA 48752  1                      SEG   ', '
 009418 4110 200C/4100_      0000C 48769  1                      SEG   @R2+12,4                Year
 00942A 4110 C4D8/4100_      004D8 48798  1                      SEG   CVBLANKS,4
 00943C 4110 2011/4100_      00011 48827  1                      DTB   @R2+17,2                      Convert hour
 00944A 59F0 7D0C/47D0_      09620 48848  1                      IF    (R15,GT,12),'SH R15,=Y(12)'   Adjust
 009456 181F/1B00/41F0_            48871  1                      SEGDC (R15)
 009464 4110 2013/4100_      00013 48892  1                      SEGB  @R2+19,3                      Add ':mm'
 009476 D501 7DAA 2011_096BE 00011 48922  1                      IF    (@R2+17,LE,'11'),'SEG "AM"'
 009492 7B82/47F0 7B94_09492 0947E 48960  1                      ELSE  'SEG "PM"'
 0094A8 4110 7D10/4100_      09624 48993  1                      SEG   ';;;;'                        Add line spacers
 0094BA 4BD0 7DB0            096C4 49010  1                      XPOP  ,,32
                                   49012  1
 0094BE D507 7CB4 60EA_095C8 000EA 49013  1                      IF    (RJEHEAD,NE,'*NETFAX*'),BEGIN  If not dummy hdr text,
 0094C8 4110 60EA/4100_      000EA 49030  2                        SEGT  RJEHEADL                       Add to record
 0094DA                            49058  1                      END
 0094DA 7BCA/47F0 7BE6_094DA 094C6 49062  1                      ELSEIF (RJETITLE,NZ),BEGIN           Else if have title text,
 0094E8 4110 606A/4100_      0006A 49087  2                        SEGT  RJETITLE                       Add to record
 0094FA                            49115  1                      END
 0094FA 1B00/41F0 6430_            49119  1                      SEGWR ,
 009506                            49143                       END
                                   49147
 009506 7BF6/47F0 7C30_09506 0925C 49148                       ELSEIF    (RJEMAIL,NZ),'SEGB "/*MAIL"; SEGT RJEMAIL; SEGWR'
                                   49248              .JMAILC  ANOP
                                   49249              *
                                   49250              * Add /*ROUTE XEQ card. This is at the request of LDW for the
                                   49251              * JES conversion.
                                   49252              *
 009544 D603 6014 6014_00014 00014 49253                       IF    (RJESYSAF,NZ),BEGIN
 00954E 4110 7D14/4100_      09628 49269  1                      SEG   '/*ROUTE XEQ '
 009560 4110 6014/4100_      00014 49286  1                      SEGT  RJESYSAF
 009572 1B00/41F0 6430_            49314  1                      SEGWR
 00957E                            49338                       END
                                   49342
 00957E 94DF 63F5      003F5       49343                       CLEAR RJEFCTRL            Done sending control cards
                                   49350
 009582 18D8/9808 D004_            49351              JOBCNTLX PEND
 DROP   *,R7
                                   49372
                                   49373                       QLTORG
                                   49451
 DROP   RJEWA,R6                   49452                       DROP  RJEWA
1RJE      (RJE4072) (12:53) (15MAR04) RJE Subroutines                                                                       Page  101
0Current Usings:  (CP,R11) (CV,R12)
0Loc    Object Code    Addr1 Addr2  Stmt Lv Lineno    Source Statement           (Hibal 5, Asmedit 3.3)  HLASM R4.0  2004/03/15 12.53
+___    ______ ____    _____ _____  ____ __ ______    ______ _________
0                                  49461              ¿þþþþþþþþþþþþþþþþþþþþþþþþþþþþþþþþþþþþþþþþþþþþþþþþþþþþþþþþþþþþþþþþþþþþþÜ
                                   49462              Ÿ                                                                     Ÿ
                                   49463              Ÿ  RSEG -- Routine to write contents of seg buffer to JES2.           Ÿ
                                   49464              Ÿ                                                                     Ÿ
                                   49465              Ÿ     On entry:                                                       Ÿ
                                   49466              Ÿ       R15 - SEGCB addr                                              Ÿ
                                   49467              Ÿ                                                                     Ÿ
                                                      ¾þþþþþþþþþþþþþþþþþþþþþþþþþþþþþþþþþþþþþþþþþþþþþþþþþþþþþþþþþþþþþþþþþþþþþ»
0009752 50E0 D000/9008_      00000 49468              RSEG     PROC
 USING  *,R7
 00976C 5860 BD70            00D70 49507                       L     R6,CPWK5
 USING  RJEWA,R6                   49508                       WITH  (RJEWA,R6)
                                   49521
 009770 185F                       49522                       LR    R5,R15              Segcb ptr
 USING  SEGCB,R5                   49523                       WITH  (SEGCB,R5)
                                   49536                       ¿þþþþþþþþþÜ
                                   49537                       Ÿ  SEGWR  Ÿ
                                   49538                       ¾þþþþþþþþþ»
 009772 9502 5000/4770_00000       49539                       IF    SEGCBWR,BEGIN       SEGWR...
                                   49554  1                      ¿þþþþþþþþþþþþþþþþþþþþþþþþþþþþþþþþþþþþþþþþÜ
                                   49555  1                      Ÿ  Do final re-formatting if requested.  Ÿ
                                   49556  1                      ¾þþþþþþþþþþþþþþþþþþþþþþþþþþþþþþþþþþþþþþþþ»
 00977A 9120 63F5/47E0_003F5       49557  1                      IF    RJEFCTRL,'VCALL JESWR'  Send line as-is to JES
 009788 7020/47F0 702E_09788 09780 49581  1                      ELSEIF RJEFFMT,'ACALL FMTWR'  Do formatting
 00979A 7032/47F0 7038_0979A 09792 49614  1                      ELSE  'ACALL WRAPWR'      Send unformatted line to JES
 0097A4                            49634                       END
                                   49638
 0097A4 18D8/9808 D004_            49639                       PEND
 DROP   SEGCB,R5
 DROP   RJEWA,R6
 DROP   *,R7
1RJE      (RJE4072) (12:53) (15MAR04) RJE Subroutines                                                                       Page  102
0Current Usings:  (CP,R11) (CV,R12)
0Loc    Object Code    Addr1 Addr2  Stmt Lv Lineno    Source Statement           (Hibal 5, Asmedit 3.3)  HLASM R4.0  2004/03/15 12.53
+___    ______ ____    _____ _____  ____ __ ______    ______ _________
0000000                00000 003FC 49670              FMTWA    RECORD BEGIN
 000000 00                         49678  1           FMTFLAG    FLAG
 FMTFLAG.FMTFSHOW  80 ONES         49682  1                      FLAG  FMTFSHOW            - Just show sequence
 FMTFLAG.FMTFSKIP  40 ONES         49687  1                      FLAG  FMTFSKIP            - Don't output this line
                                   49692  1
 000004                            49693  1           FMTWPTRS   DS    2A                  Working line ptrs
                                   49694  1
                                   49695  1           FMTSG      SEGCB
 00000C 00                         49696  1 01-SEGCB +$$$SEGCB1376   DS 0F
 FMTSGCOD.FMTSGSEG 01 EQ
 FMTSGCOD.FMTSGWR  02 EQ
 FMTSGCOD.FMTSGCLR 03 EQ
 FMTSGCOD.FMTSGSPP 04 EQ
 FMTSGCOD.FMTSGOVF 05 EQ
 FMTSGCOD.FMTSGCR  06 EQ
 FMTSGCOD.FMTSGMAR 07 EQ
 00000D 00                         49771  1 01-SEGCB +           DC    X'00'               Reserved
 00000E 0000                              1          +
 000010 00000000                   49772  1 01-SEGCB +FMTSGMAXF   DC   A(0)                Maximum buffer length
 000014 00000000                   49773  1 01-SEGCB +FMTSGMRKF   DC   A(0)                Length at last mark
 000018 00000000                   49774  1 01-SEGCB +FMTSGLENF   DC   A(0)                Current length
 00001C 00000000                   49775  1 01-SEGCB +FMTSGINDF   DC   A(0)                Overflow/indent count
 000020 00000000                   49776  1 01-SEGCB +FMTSGERR   DC    A(0)                Address of error recovery routine
 000024 0000000000000000           49777  1 01-SEGCB +           DC    2F'0'               Reserved
 00002C 00000000                   49778  1 01-SEGCB +FMTSGLOC   DC    A(0)                Location of buffer
 000030 00000000                   49779  1 01-SEGCB +FMTSGRTN   DC    A(0)                Processing routine
 000034 0000000000000000           49780  1 01-SEGCB +           DC    4F'0'               Reserved
 000044 00000000                   49781  1 01-SEGCB +FMTSGUSR   DC    A(0)                USER field
                                   49782  1 01-SEGCB +FMTSG      EQU   $$$SEGCB1376,*-$$$SEGCB1376,C'X'
                                   49783  1
                                   49784  1           FMTLINE    DS    CL(2+&LINESZ)       Normal line text
 000048                                   1          +FMTLINE    DS    CL(2+235)           Normal line text
                                   49785  1           FMTCTRL    EQU   FMTLINE,2,C'C'
                                   49786  1           FMTTEXT    EQU   FMTLINE+2,&LINESZ,C'C'
                                          1          +FMTTEXT    EQU   FMTLINE+2,235,C'C'
                                   49787  1
                                   49788  1           FMTULINE   DS    CL(2+&LINESZ)       Underlines
 000135                                   1          +FMTULINE   DS    CL(2+235)           Underlines
                                   49789  1           FMTUCTRL   EQU   FMTULINE,2,C'C'
                                   49790  1           FMTUTEXT   EQU   FMTULINE+2,&LINESZ,C'C'
                                          1          +FMTUTEXT   EQU   FMTULINE+2,235,C'C'
                                   49791  1
                                   49792  1           FMTBLINE   DS    CL(2+&LINESZ)       Bold text
 000222                                   1          +FMTBLINE   DS    CL(2+235)           Bold text
                                   49793  1           FMTBCTRL   EQU   FMTBLINE,2,C'C'
                                   49794  1           FMTBTEXT   EQU   FMTBLINE+2,&LINESZ,C'C'
                                          1          +FMTBTEXT   EQU   FMTBLINE+2,235,C'C'
                                   49795  1
                                   49796  1           FMTILINE   DS    CL(2+&LINESZ)       Italic text
 00030F                                   1          +FMTILINE   DS    CL(2+235)           Italic text
                                   49797  1           FMTICTRL   EQU   FMTILINE,2,C'C'
                                   49798  1           FMTITEXT   EQU   FMTILINE+2,&LINESZ,C'C'
                                          1          +FMTITEXT   EQU   FMTILINE+2,235,C'C'
 0003FC                003FC 003FC 49799                       END
1RJE      (RJE4072) (12:53) (15MAR04) RJE Subroutines                                                                       Page  103
0Current Usings:  (CP,R11) (CV,R12)
0Loc    Object Code    Addr1 Addr2  Stmt Lv Lineno    Source Statement           (Hibal 5, Asmedit 3.3)  HLASM R4.0  2004/03/15 12.53
+___    ______ ____    _____ _____  ____ __ ______    ______ _________
0                                  49809              ¿þþþþþþþþþþþþþþþþþþþþþþþþþþþþþþþþþþþþþþþþþþþþþþþþþþþþþþþþþþþþþþþþþþþþþÜ
                                   49810              Ÿ                                                                     Ÿ
                                   49811              Ÿ  FMTWR -- Routine to process print formatting options and then      Ÿ
                                   49812              Ÿ    write the line to JES.                                           Ÿ
                                   49813              Ÿ                                                                     Ÿ
                                   49814              Ÿ      On entry:                                                      Ÿ
                                   49815              Ÿ        R1,R0 - line loc, len                                        Ÿ
                                   49816              Ÿ                                                                     Ÿ
                                                      ¾þþþþþþþþþþþþþþþþþþþþþþþþþþþþþþþþþþþþþþþþþþþþþþþþþþþþþþþþþþþþþþþþþþþþþ»
00097B2 50E0 D000/9008_      00000 49817              FMTWR    PROC  FMTWA
 USING  *,R7
 USING  FMTWA-(4+36),R8
 USING  RJEWA,R6                   49867                       WITH  (RJEWA,R6)          (Entry assumption)
 0097CC 9200 8028      00000       49880                       CLEAR FMTFLAG
                                   49887
 0097D0 5900 7AE0/4730_      0A2AC 49888                       IF    (R0,LE,1),BEGIN     Simple case...
 0097D8 58E0 7ADC/0DEE       0A2A8 49905  1                      ACALL WRAPWR              Send line to JES
 0097DE 47F0 72C6            09A92 49909  1                      EXIT  FMTWR
 0097E2                            49912                       END
                                   49916                       ¿þþþþþþþþþþþþþþþþþþþþþþþþþþþþÜ
                                   49917                       Ÿ  Set up our output lines.  Ÿ
                                   49918                       ¾þþþþþþþþþþþþþþþþþþþþþþþþþþþþ»
 0097E2 D200 8070 1000 00048 00000 49919                       MVC   FMTCTRL(1),@R1      Save CC/MC char
 0097E8 4110 1001            00001 49920                       LA    R1,@R1+1
 0097EC 0600                       49921                       DECR  R0
                                   49923
 0097EE 9240 8071      00049       49924                       MVI   FMTCTRL+1,C' '      Normal is char set 0
 0097F2 9110 6002/47E0_00002       49925                       IF    RJEFTRC,BEGIN       Use user's TRC char...
 0097FA 1200/47D0 7040             49940  1                      IF    (R0,NP),EXIT        Nope, scram
 009800 D200 8071 1000 00049 00000 49957  1                      MVC   FMTCTRL+1(1),@R1
 009806 4110 1001            00001 49958  1                      LA    R1,@R1+1
 00980A 0600                       49959  1                      DECR  R0
 00980C                            49961                       END
 00980C D2EA 8072 C4D8 0004A 004D8 49965                       MVC   FMTTEXT,CVBLANKS
                                   49966
 009812 D201 815D 7B0C 00135 0A2D8 49967                       MVC   FMTUCTRL,=C'+ '     Underlines line
 009818 D2EA 815F C4D8 00137 004D8 49968                       MVC   FMTUTEXT,CVBLANKS
                                   49969
 00981E D201 824A 7B0E 00222 0A2DA 49970                       MVC   FMTBCTRL,=C'+1'     Bold line
 009824 D2EA 824C C4D8 00224 004D8 49971                       MVC   FMTBTEXT,CVBLANKS
                                   49972
 00982A D201 8337 7B10 0030F 0A2DC 49973                       MVC   FMTICTRL,=C'+2'     Italics line
 009830 D2EA 8339 C4D8 00311 004D8 49974                       MVC   FMTITEXT,CVBLANKS
                                   49975                       ¿þþþþþþþþþþþþþþþþþþþþþþþþþþþþþþþþþþþþþþþþþþþþþÜ
                                   49976                       Ÿ  Seg text into appropriate output buffers.  Ÿ
                                   49977                       ¾þþþþþþþþþþþþþþþþþþþþþþþþþþþþþþþþþþþþþþþþþþþþþ»
 009836 1851                       49978                       LR    R5,R1               Line loc...
 009838 1840                       49979                       LR    R4,R0               ...and len
 00983A 5940 7AE4/47D0_      0A2B0 49980                       CEIL  R4,L'FMTTEXT        (Not too much)
                                   49999
 009846 1B11/4100 00EB_            50000                       SEGINIT 0,L'FMTTEXT,RTN=FSEG  Buffer loc set below
 009864 41F0 8028            00000 50041                       LA    R15,FMTWA
 009868 50F0 806C            00044 50042                       ST    R15,FMTSGUSR        Save FMTWA ptr
1RJE      (RJE4072) (12:53) (15MAR04) RJE Subroutines                                                                       Page  104
0Current Usings:  (RJEWA,R6) (*,R7) (FMTWA-(4+36),R8) (CP,R11) (CV,R12)
0Loc    Object Code    Addr1 Addr2  Stmt Lv Lineno    Source Statement           (Hibal 5, Asmedit 3.3)  HLASM R4.0  2004/03/15 12.53
+___    ______ ____    _____ _____  ____ __ ______    ______ _________
0                                  50043                       ¿þþþþþþþþþþþþþþþþþþþþþþþþþþþþþþþþþþþþþþþþþþþþþþþþþþþþþþþÜ
                                   50044                       Ÿ  Scan line and process imbedded formatting commands.  Ÿ
                                   50045                       ¾þþþþþþþþþþþþþþþþþþþþþþþþþþþþþþþþþþþþþþþþþþþþþþþþþþþþþþþ»
 00986C 1244/47D0 71F6             50046              FMTLOOP  WHILE (R4,POS),BEGIN
 009872 4110 8072            0004A 50063  1                      LA    R1,FMTTEXT                 Normal
 009876 9120 6008/47E0_00008       50064  1                      IF    RJEXFITL,'LA R1,FMTITEXT'  Italics
 009882 9140 6008/47E0_00008       50085  1                      IF    RJEXFBLD,'LA R1,FMTBTEXT'  Bold
 00988E 5010 8054            0002C 50106  1                      ST    R1,FMTSGLOC         Set approp. buffer ptr
                                   50107  1
 009892 18F4                       50108  1                      LR    R15,R4
 009894 06F0/44F0 7B18_            50109  1                      DEX   R15,'TRT @R5(0),FMTTBL'  Stop at next "<" char
 00989A 4770 70E4            098B0 50128  1                      IF    Z,BEGIN             No "<" found...
 00989E 1815/1804/41F0_            50139  2                        SEG   (R5),(R4)           Add remaining text
 0098AC 47F0 71F6            099C2 50164  2                        EXIT  FMTLOOP
 0098B0                            50167  1                      END
                                   50171  1
 0098B0 1821                       50172  1                      LR    R2,R1
 0098B2 1B25                       50173  1                      SR    R2,R5               Length of text up to "<"
 0098B4 1815/1802/41F0_            50174  1                      SEG   (R5),(R2)           Add text to buffer
 0098C2 1A52                       50199  1                      AR    R5,R2
 0098C4 1B42                       50200  1                      SR    R4,R2
 0098C6 5940 7AF8/4730_      0A2C4 50201  1                      IF    (R4,LE,3),BEGIN     Too few chars left...
 0098CE 1815/1804/41F0_            50218  2                        SEG   (R5),(R4)           Add final text
 0098DC 47F0 71F6            099C2 50243  2                        EXIT  FMTLOOP             Scram
 0098E0                            50246  1                      END
                                   50250  1                      ¿þþþþþþþþþþþþþþþþþþþþþþþþþþþþþþþþþþþþþþþþÜ
                                   50251  1                      Ÿ  Check for valid formatting sequence.  Ÿ
                                   50252  1                      ¾þþþþþþþþþþþþþþþþþþþþþþþþþþþþþþþþþþþþþþþþ»
 0098E0 9045 802C            00004 50253  1                      STM   R4,R5,FMTWPTRS
 0098E4 4150 5001            00001 50254  1                      LA    R5,@R5+1            Skip over "<" char
 0098E8 0640                       50255  1                      DECR  R4
                                   50257  1
 0098EA 954B 5000/4770_00000       50258  1                      IF    (@R5,NE,'.'),FMTBKUP
 0098F2 4150 5001            00001 50277  1                      LA    R5,@R5+1            Skip past prefix char
 0098F6 0640                       50278  1                      DECR  R4
 0098F8 947F 8028      00000       50280  1                      CLEAR FMTFSHOW            Assume we will process sequence
                                   50287  1
 0098FC 954B 5000/4770_00000       50288  1                      IF    (@R5,EQ,'.'),BEGIN  "<.." means don't process...
 009904 4150 5001            00001 50304  2                        LA    R5,@R5+1            Skip past second dot
 009908 0640                       50305  2                        DECR  R4
 00990A 5940 7AE0/47C0_      0A2AC 50307  2                        IF    (R4,LE,1),FMTBKUP   Too few chars, skip it
 009912 9680 8028      00000       50327  2                        SET   FMTFSHOW            Don't process sequence
 009916                            50333  1                      END
                                   50337  1
 009916 956E 5000/4780_00000       50338  1                      IF    (@R5,EQ,'>'),FMTBKUP  No command, skip it
                                   50357  1                      ¿þþþþþþþþþþþþþþþþþþþþþþþþþþþþþþþþþþþþþþþþþþþþþþþþþþþþþþþþþþÜ
                                   50358  1                      Ÿ  Validate characters in (possible) formatting sequence.  Ÿ
                                   50359  1                      ¾þþþþþþþþþþþþþþþþþþþþþþþþþþþþþþþþþþþþþþþþþþþþþþþþþþþþþþþþþþ»
 00991E 1244/47D0 71D8             50360  1                      WHILE (R4,POS),BEGIN      Validate characters...
 009924 956E 5000/4770_00000       50376  2                        IF    (@R5,EQ,'>'),BEGIN  End of formatting command...
 00992C 5810 8030            00008 50392  3                          L     R1,FMTWPTRS+4
 009930 4110 1001            00001 50393  3                          LA    R1,@R1+1
 009934 1805                       50394  3                          LR    R0,R5
 009936 1B01                       50395  3                          SR    R0,R1
1RJE      (RJE4072) (12:53) (15MAR04) RJE Subroutines                                                                       Page  105
0Current Usings:  (RJEWA,R6) (*,R7) (FMTWA-(4+36),R8) (CP,R11) (CV,R12)
0Loc    Object Code    Addr1 Addr2  Stmt Lv Lineno    Source Statement           (Hibal 5, Asmedit 3.3)  HLASM R4.0  2004/03/15 12.53
+___    ______ ____    _____ _____  ____ __ ______    ______ _________
0                                  50396  3
 009938 4150 5001            00001 50397  3                          LA    R5,@R5+1            Update scan ptrs
 00993C 0640                       50398  3                          DECR  R4
                                   50400  3
 00993E 9180 8028/47E0_00000       50401  3                          IF    FMTFSHOW,BEGIN      Just show the sequence...
 009946 9001 D000/41D0_      00000 50416  4                            XPUSH R0,R1
 00994E 5810 8030/4100_      00008 50419  4                            SEG   L:FMTWPTRS+4,1      "<" char
 009960 4BD0 7B12/9801_      0A2DE 50446  4                            XPOP  R0,R1
 009968 4110 1001/41F0_      00001 50449  4                            SEG   @R1+1,(R0)          ...followed by dot command
 009976 47F0 70A0            0986C 50475  4                            NEXT  FMTLOOP
 00997A                            50478  3                          END
                                   50482  3
 00997A 41F0 8028            00000 50483  3                          LA    R15,FMTWA
 00997E 58E0 7AFC/0DEE       0A2C8 50484  3                          ACALL FMTCMD              Process formatting command
 009984 47F0 70A0            0986C 50488  3                          NEXT  FMTLOOP
 009988                            50491  2                        END
                                   50495  2
 009988 1F22/4320 5000             50496  2                        LC    R2,@R5              Get char
 00998E 1FFF/43F2 73D4             50503  2                        LC    R15,FMTVTBL(R2)     Non-zero if invalid char
 009994 12FF/4770 71D8             50510  2                        IF    (R15,NZ),FMTBKUP    Invalid character, skip it
                                   50527  2
 00999A 4150 5001            00001 50528  2                        LA    R5,@R5+1            Next char
 00999E 0640                       50529  2                        DECR  R4
 0099A0 47F0 7152            0991E 50531  1                      END
                                   50536  1
 0099A4 9845 802C            00004 50537  1           FMTBKUP    LM    R4,R5,FMTWPTRS      Restore scan ptrs
 0099A8 1815/4100 0001_            50538  1                      SEG   (R5),1              Show "<" char
 0099B8 4150 5001            00001 50565  1                      LA    R5,@R5+1
 0099BC 0640                       50566  1                      DECR  R4
 0099BE 47F0 70A0            0986C 50568                       END
                                   50573                       ¿þþþþþþþþþþþþþþþþþþþþþþþþþþþþþÜ
                                   50574                       Ÿ  Write the output line(s).  Ÿ
                                   50575                       ¾þþþþþþþþþþþþþþþþþþþþþþþþþþþþþ»
 0099C2 9140 8028/4710_00000       50576                       IF    FMTFSKIP,EXIT       Skip output of this line
                                   50594
 0099CA 1B22                       50595                       CLEAR R2                  Flag
 0099CC D5EA 8072 C4D8_0004A 004D8 50599                       IF    (FMTTEXT,EQ,CVBLANKS),BEGIN  Nothing on main line...
 0099D6 D5EA 824C C4D8_00224 004D8 50617  1                      IF    (FMTBTEXT,NE,CVBLANKS),BEGIN  Bold line now main...
 0099E0 D200 824A 8070 00222 00048 50635  2                        MVC   FMTBCTRL(1),FMTCTRL
 0099E6 4120 0001            00001 50636  2                        LA    R2,1
 0099EA                            50637  1                      END
 0099EA 7222/47F0 7236_099EA 099DE 50641  1                      ELSEIF (FMTITEXT,NE,CVBLANKS),BEGIN  Italic line now main...
 0099F8 D200 8337 8070 0030F 00048 50668  2                        MVC   FMTICTRL(1),FMTCTRL
 0099FE 4120 0001            00001 50669  2                        LA    R2,1
 009A02                            50670  1                      END
 009A02                            50674                       END
                                   50678              *
                                   50679              *
 009A02 1B44                       50680                       CLEAR R4                  Assume no user TRC character
 009A04 9110 6002/47E0_00002       50684                       IF    RJEFTRC,'LA R4,1'   Remember flag setting
 009A10 9610 6002      00002       50705                       SET   RJEFTRC             Set flag (for WRAPWR)
                                   50711
 009A14 4130 0002            00002 50712                       LA    R3,L'FMTCTRL
 009A18 5A30 8040            00018 50713                       A     R3,FMTSGLENF        Max possible length
1RJE      (RJE4072) (12:53) (15MAR04) RJE Subroutines                                                                       Page  106
0Current Usings:  (RJEWA,R6) (*,R7) (FMTWA-(4+36),R8) (CP,R11) (CV,R12)
0Loc    Object Code    Addr1 Addr2  Stmt Lv Lineno    Source Statement           (Hibal 5, Asmedit 3.3)  HLASM R4.0  2004/03/15 12.53
+___    ______ ____    _____ _____  ____ __ ______    ______ _________
0                                  50714                       ¿þþþþþþþþþþþþþþþþþþþþÜ
                                   50715                       Ÿ  Write main line.  Ÿ
                                   50716                       ¾þþþþþþþþþþþþþþþþþþþþ»
 009A1C 1222/4770 7268             50717                       IF    (R2,Z),BEGIN        Write main line...
 009A22 4110 8070/1803       00048 50731  1                      SETMSG FMTLINE,(R3)
 009A28 58E0 7B00/0DEE       0A2CC 50745  1                      VCALL RTRIM
 009A2E 58E0 7ADC/0DEE       0A2A8 50749  1                      ACALL WRAPWR              Write line to JES
 009A34                            50753                       END
                                   50757                       ¿þþþþþþþþþþþþþþþþþþþþþþþþþÜ
                                   50758                       Ÿ  Write bold text line.  Ÿ
                                   50759                       ¾þþþþþþþþþþþþþþþþþþþþþþþþþ»
 009A34 D5EA 824C C4D8_00224 004D8 50760                       IF    (FMTBTEXT,NE,CVBLANKS),BEGIN  Write bold line...
 009A3E 4110 824A/1803       00222 50778  1                      SETMSG FMTBLINE,(R3)
 009A44 58E0 7B00/0DEE       0A2CC 50792  1                      VCALL RTRIM
 009A4A 58E0 7ADC/0DEE       0A2A8 50796  1                      ACALL WRAPWR              Write line to JES
 009A50                            50800                       END
                                   50804                       ¿þþþþþþþþþþþþþþþþþþþþþþþþþþþÜ
                                   50805                       Ÿ  Write italic text line.  Ÿ
                                   50806                       ¾þþþþþþþþþþþþþþþþþþþþþþþþþþþ»
 009A50 D5EA 8339 C4D8_00311 004D8 50807                       IF    (FMTITEXT,NE,CVBLANKS),BEGIN  Write italic line...
 009A5A 4110 8337/1803       0030F 50825  1                      SETMSG FMTILINE,(R3)
 009A60 58E0 7B00/0DEE       0A2CC 50839  1                      VCALL RTRIM
 009A66 58E0 7ADC/0DEE       0A2A8 50843  1                      ACALL WRAPWR              Write line to JES
 009A6C                            50847                       END
                                   50851                       ¿þþþþþþþþþþþþþþþþþþþþþþþþþÜ
                                   50852                       Ÿ  Write underline line.  Ÿ
                                   50853                       ¾þþþþþþþþþþþþþþþþþþþþþþþþþ»
 009A6C D5EA 815F C4D8_00137 004D8 50854                       IF    (FMTUTEXT,NE,CVBLANKS),BEGIN  Write underline line...
 009A76 4110 815D/1803       00135 50872  1                      SETMSG FMTULINE,(R3)
 009A7C 58E0 7B00/0DEE       0A2CC 50886  1                      VCALL RTRIM
 009A82 58E0 7ADC/0DEE       0A2A8 50890  1                      ACALL WRAPWR              Write line to JES
 009A88                            50894                       END
                                   50898
 009A88 1244/4770 72C6_            50899                       IF    (R4,Z),'CLEAR RJEFTRC'  Restore user TRC flag
                                   50925
 009A92 18D8/9808 D004_            50926                       PEND
 DROP   RJEWA,R6
 DROP   FMTWA-(4+36),R8
 DROP   *,R7
                                   50956              *
                                   50957              *
 009AA0 0000000000000000           50958              FMTTBL   DC    256X'00'
 009BA0                09BA0 09AEC 50959                       ORG   FMTTBL+C'<'
 009AEC FF                         50960                       DC    X'FF'
 009AED                09AED 09BA0 50961                       ORG
                                   50962
 009BA0 FFFFFFFFFFFFFFFF           50963              FMTVTBL  DC    256X'FF'
 009CA0                09CA0 09C21 50964                       ORG   FMTVTBL+C'a'
 009C21 0000000000000000           50965                       DC    X'000000000000000000'    a-i
 009C2A                09C2A 09C31 50966                       ORG   FMTVTBL+C'j'
 009C31 0000000000000000           50967                       DC    X'000000000000000000'        j-r
 009C3A                09C3A 09C42 50968                       ORG   FMTVTBL+C's'
 009C42 0000000000000000           50969                       DC    X'0000000000000000'               s-z
 009C4A                09C4A 09C61 50970                       ORG   FMTVTBL+C'A'
1RJE      (RJE4072) (12:53) (15MAR04) RJE Subroutines                                                                       Page  107
0Current Usings:  (CP,R11) (CV,R12)
0Loc    Object Code    Addr1 Addr2  Stmt Lv Lineno    Source Statement           (Hibal 5, Asmedit 3.3)  HLASM R4.0  2004/03/15 12.53
+___    ______ ____    _____ _____  ____ __ ______    ______ _________
0009C61 0000000000000000           50971                       DC    X'000000000000000000'    A-I
 009C6A                09C6A 09C71 50972                       ORG   FMTVTBL+C'J'
 009C71 0000000000000000           50973                       DC    X'000000000000000000'        J-R
 009C7A                09C7A 09C82 50974                       ORG   FMTVTBL+C'S'
 009C82 0000000000000000           50975                       DC    X'0000000000000000'               S-Z
 009C8A                09C8A 09C90 50976                       ORG   FMTVTBL+C'0'
 009C90 0000000000000000           50977                       DC    X'00000000000000000000'  0-9
 009C9A                09C9A 09BEE 50978                       ORG   FMTVTBL+C'+'
 009BEE 00                         50979                       DC    X'00'                    +
 009BEF                09BEF 09C00 50980                       ORG   FMTVTBL+C'-'
 009C00 00                         50981                       DC    X'00'                    -
 009C01                09C01 09CA0 50982                       ORG
1RJE      (RJE4072) (12:53) (15MAR04) RJE Subroutines                                                                       Page  108
0Current Usings:  (CP,R11) (CV,R12)
0Loc    Object Code    Addr1 Addr2  Stmt Lv Lineno    Source Statement           (Hibal 5, Asmedit 3.3)  HLASM R4.0  2004/03/15 12.53
+___    ______ ____    _____ _____  ____ __ ______    ______ _________
0                                  50984              ¿þþþþþþþþþþþþþþþþþþþþþþþþþþþþþþþþþþþþþþþþþþþþþþþþþþþþþþþþþþþþþþþþþþþþþÜ
                                   50985              Ÿ                                                                     Ÿ
                                   50986              Ÿ  FSEG -- Routine to handle FMTWR's SEG buffer.                      Ÿ
                                   50987              Ÿ                                                                     Ÿ
                                   50988              Ÿ     On entry:                                                       Ÿ
                                   50989              Ÿ       R15 - SEGCB addr                                              Ÿ
                                   50990              Ÿ                                                                     Ÿ
                                                      ¾þþþþþþþþþþþþþþþþþþþþþþþþþþþþþþþþþþþþþþþþþþþþþþþþþþþþþþþþþþþþþþþþþþþþþ»
0009CA0 50E0 D000/9008_      00000 50991              FSEG     PROC
 USING  *,R7
 009CBA 5860 BD70            00D70 51030                       L     R6,CPWK5
 USING  RJEWA,R6                   51031                       WITH  (RJEWA,R6)
                                   51044
 009CBE 185F                       51045                       LR    R5,R15              Segcb ptr
 USING  SEGCB,R5                   51046                       WITH  (SEGCB,R5)
                                   51059
 009CC0 5840 5038            00038 51060                       L     R4,SEGCBUSR         FMTWA ptr
 USING  FMTWA,R4                   51061                       WITH  (FMTWA,R4)
                                   51074                       ¿þþþþþþþÜ
                                   51075                       Ÿ  SEG  Ÿ
                                   51076                       ¾þþþþþþþ»
 009CC4 9501 5000/4770_00000       51077                       IF    SEGCBSEG,BEGIN      SEG...
 009CCC 9180 6008/47E0_00008       51092  1                      IF    RJEXFUND,BEGIN      Need underlines...
 009CD4 4130 4137            00137 51107  2                        LA    R3,FMTUTEXT
 009CD8 5A30 500C            0000C 51108  2                        A     R3,SEGCBLENF        Current index
 009CDC 18F0                       51109  2                        LR    R15,R0
 009CDE 06F0/12FF/4740_            51110  2                        MOVE  R15,@R3,FSEGUND     Move in underlines
 009CEA                            51148  1                      END
 009CEA                            51152                       END
 009CEA 18D8/9808 D004_            51156                       PEND
 DROP   FMTWA,R4
 DROP   SEGCB,R5
 DROP   RJEWA,R6
 DROP   *,R7
                                   51191
 009CF8 6D6D6D6D6D6D6D6D           51192              FSEGUND  DC    (L'FMTUTEXT)C'_'    Underlines
1RJE      (RJE4072) (12:53) (15MAR04) RJE Subroutines                                                                       Page  109
0Current Usings:  (CP,R11) (CV,R12)
0Loc    Object Code    Addr1 Addr2  Stmt Lv Lineno    Source Statement           (Hibal 5, Asmedit 3.3)  HLASM R4.0  2004/03/15 12.53
+___    ______ ____    _____ _____  ____ __ ______    ______ _________
0                                  51194              ¿þþþþþþþþþþþþþþþþþþþþþþþþþþþþþþþþþþþþþþþþþþþþþþþþþþþþþþþþþþþþþþþþþþþþþÜ
                                   51195              Ÿ                                                                     Ÿ
                                   51196              Ÿ  FMTCMD -- Routine to process formatting command.                   Ÿ
                                   51197              Ÿ                                                                     Ÿ
                                   51198              Ÿ    On entry:                                                        Ÿ
                                   51199              Ÿ      R15   - FMTWA ptr                                              Ÿ
                                   51200              Ÿ      R1,R0 - formatting command location, length                    Ÿ
                                   51201              Ÿ                                                                     Ÿ
                                                      ¾þþþþþþþþþþþþþþþþþþþþþþþþþþþþþþþþþþþþþþþþþþþþþþþþþþþþþþþþþþþþþþþþþþþþþ»
0009DE4 50E0 D000/9008_      00000 51202              FMTCMD   PROC
 USING  *,R7
 USING  RJEWA,R6                   51241                       USING RJEWA,R6            Entry assumption
                                   51250
 009DFE 185F                       51251                       LR    R5,R15
 USING  FMTWA,R5                   51252                       USING FMTWA,R5
                                   51261
 009E00 58E0 B08C/D2AF_      0008C 51262                       SCPUSH
 009E0E 58E0 B08C/501E_      0008C 51268                       SCINIT (R1),(R0)
 009E1C 5810 B08C/1B00_      0008C 51288                       SCANSTR FCMDPRT           Scan
                                   51318                       COMMENT                   Ignore errors
 009E66 58E0 B08C/4BD0_      0008C 51319                       SCPOP
 009E74 18D8/9808 D004_            51325                       PEND
 DROP   *,R7
-                                  51346              ***
                                   51347              ***  Print formatting options.
                                   51348              ***
 009E84 4BD7C1C7C5404040_          51349              FCMDPRT  SCKW  .PAGE,FCMDPAGE
 009EAC 4BC6D9D6D5E34040_          51364                       SCKW  .FRONT,FCMDFPAG
 009ED4 4BC6D9D6D5E3D7C1_          51379                       SCKW  .FRONTPAGE,FCMDFPAG
 009EFC 4BD5D6D9D4C1D340_          51394                       SCKW  .NORMAL,FCMDNORM
 009F24 4BE44E4040404040_          51409                       SCKW  .U+,FCMDUP
 009F4C 4BE4604040404040_          51424                       SCKW  .U-,FCMDUM
 009F74 4BC24E4040404040_          51439                       SCKW  .B+,FCMDBP
 009F9C 4BC2604040404040_          51454                       SCKW  .B-,FCMDBM
 009FC4 4BC94E4040404040_          51469                       SCKW  .I+,FCMDIP
 009FEC 4BC9604040404040_          51484                       SCKW  .I-,FCMDIM
 00A014 4040404040404040_          51499                       SCKW  ,FCMDERR
                                   51514
 00A03C 50E0 D000/9008_      00000 51515              FCMDERR  PROC
 USING  *,R7
 00A056 41F0 0008            00008 51554                       LA    R15,8
 00A05A 18D8/9808 D004_            51555                       PEND
 DROP   *,R7
                                   51575
 00A068 50E0 D000/9008_      00000 51576              FCMDPAGE PROC
 USING  *,R7
 00A082 92F1 642E      0042E       51615                       MVI   RJENEWCC,C'1'       Page eject pending
 00A086 9640 5000      00000       51616                       SET   FMTFSKIP            Don't output this line
 00A08A 18D8/9808 D004_            51622                       PEND
 DROP   *,R7
                                   51642
1RJE      (RJE4072) (12:53) (15MAR04) RJE Subroutines                                                                       Page  110
0Current Usings:  (FMTWA,R5) (RJEWA,R6) (*,R7) (CP,R11) (CV,R12)
0Loc    Object Code    Addr1 Addr2  Stmt Lv Lineno    Source Statement           (Hibal 5, Asmedit 3.3)  HLASM R4.0  2004/03/15 12.53
+___    ______ ____    _____ _____  ____ __ ______    ______ _________
000A098 50E0 D000/9008_      00000 51643              FCMDFPAG PROC
 USING  *,R7
 00A0B2 92C6 642E      0042E       51682                       MVI   RJENEWCC,C'F'       Forces new sheet (duplex)
 00A0B6 9640 5000      00000       51683                       SET   FMTFSKIP            Don't output this line
 00A0BA 18D8/9808 D004_            51689                       PEND
 DROP   *,R7
                                   51709
 00A0C8 50E0 D000/9008_      00000 51710              FCMDNORM PROC
 USING  *,R7
 00A0E2 941F 6008      00008       51749                       CLEAR RJEXFBLD+RJEXFITL+RJEXFUND
 00A0E6 18D8/9808 D004_            51763                       PEND
 DROP   *,R7
                                   51783
 00A0F4 50E0 D000/9008_      00000 51784              FCMDUP   PROC
 USING  *,R7
 00A10E 9680 6008      00008       51823                       SET   RJEXFUND
 00A112 18D8/9808 D004_            51829                       PEND
 DROP   *,R7
                                   51849
 00A120 50E0 D000/9008_      00000 51850              FCMDUM   PROC
 USING  *,R7
 00A13A 947F 6008      00008       51889                       CLEAR RJEXFUND
 00A13E 18D8/9808 D004_            51896                       PEND
 DROP   *,R7
                                   51916
 00A14C 50E0 D000/9008_      00000 51917              FCMDBP   PROC
 USING  *,R7
 00A166 9640 6008      00008       51956                       SET   RJEXFBLD
 00A16A 18D8/9808 D004_            51962                       PEND
 DROP   *,R7
                                   51982
 00A178 50E0 D000/9008_      00000 51983              FCMDBM   PROC
 USING  *,R7
 00A192 94BF 6008      00008       52022                       CLEAR RJEXFBLD
 00A196 18D8/9808 D004_            52029                       PEND
 DROP   *,R7
                                   52049
 00A1A4 50E0 D000/9008_      00000 52050              FCMDIP   PROC
 USING  *,R7
 00A1BE 9620 6008      00008       52089                       SET   RJEXFITL
 00A1C2 18D8/9808 D004_            52095                       PEND
 DROP   *,R7
                                   52115
 00A1D0 50E0 D000/9008_      00000 52116              FCMDIM   PROC
 USING  *,R7
 00A1EA 94DF 6008      00008       52155                       CLEAR RJEXFITL
 00A1EE 18D8/9808 D004_            52162                       PEND
 DROP   *,R7
                                   52182
 DROP   RJEWA,R6                   52183                       DROP  R6
 DROP   FMTWA,R5                   52190                       DROP  R5
1RJE      (RJE4072) (12:53) (15MAR04) RJE Subroutines                                                                       Page  111
0Current Usings:  (CP,R11) (CV,R12)
0Loc    Object Code    Addr1 Addr2  Stmt Lv Lineno    Source Statement           (Hibal 5, Asmedit 3.3)  HLASM R4.0  2004/03/15 12.53
+___    ______ ____    _____ _____  ____ __ ______    ______ _________
0000000                00000 00004 52198              WRAPWA   RECORD BEGIN
 000000                            52206  1           WRAPCLEN   DS    H                   CC/TRC length (1 or 2)
 000002                            52207  1           WRAPCCS    DS    CL2                 CC (and possibly TRC) chars
 000004                00004 00004 52208                       END
-                                  52218              ¿þþþþþþþþþþþþþþþþþþþþþþþþþþþþþþþþþþþþþþþþþþþþþþþþþþþþþþþþþþþþþþþþþþþþþÜ
                                   52219              Ÿ                                                                     Ÿ
                                   52220              Ÿ  WRAPWR -- Local routine to write a line to JES being careful       Ÿ
                                   52221              Ÿ    to wrap the line so it does not exceed the maximum wrap          Ÿ
                                   52222              Ÿ    line specified.                                                  Ÿ
                                   52223              Ÿ                                                                     Ÿ
                                   52224              Ÿ    On entry:                                                        Ÿ
                                   52225              Ÿ      R1,R0 - line loc, len                                          Ÿ
                                   52226              Ÿ                                                                     Ÿ
                                                      ¾þþþþþþþþþþþþþþþþþþþþþþþþþþþþþþþþþþþþþþþþþþþþþþþþþþþþþþþþþþþþþþþþþþþþþ»
000A1FC 50E0 D000/9008_      00000 52227              WRAPWR   XPROC WRAPWA
 USING  *,R7
 USING  WRAPWA-(4+36),R8
 USING  RJEWA,R6                   52278                       WITH  (RJEWA,R6)          (Entry assumption)
                                   52291
 00A216 D703 8028 8028 00000 00000 52292                       CLEAR WRAPWA
                                   52299                       ¿þþþþþþþþþþþþþþþþþþþþþþþþþþþþþþþþþþþþþþþþþþþþþþþþþþþþþþþþÜ
                                   52300                       Ÿ  Check to see if a maximum wrap length was specified.  Ÿ
                                   52301                       ¾þþþþþþþþþþþþþþþþþþþþþþþþþþþþþþþþþþþþþþþþþþþþþþþþþþþþþþþþ»
 00A21C 4850 636A/1255       0036A 52302                       LTH   R5,RJEWRAP          Max wrap length
 00A222 47D0 7076            0A28C 52306                       IF    POS,BEGIN           Maximum wrap length specified...
 00A226 D201 802A 1000 00002 00000 52317  1                      MVC   WRAPCCS,@R1         Save CC/TRC characters
 00A22C 41F0 0001            00001 52318  1                      LA    R15,1               Assume only CC char
 00A230 9110 6002/47E0_00002       52319  1                      IF    RJEFTRC,'LA R15,2'  We have both CC and TRC char
 00A23C 40F0 8028            00000 52340  1                      STH   R15,WRAPCLEN        Length of CC/TRC character
                                   52341  1
 00A240 1841                       52342  1                      LR    R4,R1               Start of text
 00A242 4A40 8028            00000 52343  1                      AH    R4,WRAPCLEN
 00A246 1830                       52344  1                      LR    R3,R0
 00A248 4B30 8028            00000 52345  1                      SH    R3,WRAPCLEN         Length of text only
                                   52346  1                      ¿þþþþþþþþþþþþþþþþþþþþþþþþþþþþþþþþþþþþþþþþþþþþþÜ
                                   52347  1                      Ÿ  Check to see if we need to wrap the line.  Ÿ
                                   52348  1                      ¾þþþþþþþþþþþþþþþþþþþþþþþþþþþþþþþþþþþþþþþþþþþþþ»
 00A24C 1935/47D0 706A             52349  1                      WHILE (R3,GT,R5),BEGIN    Need to wrap line...
                                   52366  2                        ¿þþþþþþþþþþþþþþþþþþþþþþþþþþþþþþþþþþþþþþþþþþþþþþþþþþþþþþþþþþþþþþþÜ
                                   52367  2                        Ÿ  We need to wrap the line and send it as multiple lines.      Ÿ
                                   52368  2                        Ÿ   (The following code will alter the line buffer area passed  Ÿ
                                   52369  2                        Ÿ    to us--but that's ok because it is just a work buffer.)    Ÿ
                                   52370  2                        ¾þþþþþþþþþþþþþþþþþþþþþþþþþþþþþþþþþþþþþþþþþþþþþþþþþþþþþþþþþþþþþþþ»
 00A252 1805                       52371  2                        LR    R0,R5               Maximum length
 00A254 4A00 8028            00000 52372  2                        AH    R0,WRAPCLEN         Account for CC/TRC characters
 00A258 58E0 708A/0DEE       0A2A0 52373  2                        VCALL JESWR               Send line to JES
                                   52377  2
 00A25E 9240 802A      00002       52378  2                        MVI   WRAPCCS,C' '        Always use blank as cont CC char
 00A262 1A45                       52379  2                        AR    R4,R5               Kick ptr to next piece of line
 00A264 1B35                       52380  2                        SR    R3,R5               Adjust remaining length
                                   52381  2
1RJE      (RJE4072) (12:53) (15MAR04) RJE Subroutines                                                                       Page  112
0Current Usings:  (RJEWA,R6) (*,R7) (WRAPWA-(4+36),R8) (CP,R11) (CV,R12)
0Loc    Object Code    Addr1 Addr2  Stmt Lv Lineno    Source Statement           (Hibal 5, Asmedit 3.3)  HLASM R4.0  2004/03/15 12.53
+___    ______ ____    _____ _____  ____ __ ______    ______ _________
000A266 1814                       52382  2                        LR    R1,R4
 00A268 4B10 8028            00000 52383  2                        SH    R1,WRAPCLEN         Ptr to CC/TRC characters
 00A26C 48F0 8028            00000 52384  2                        LH    R15,WRAPCLEN
 00A270 06F0/12FF/4740_            52385  2                        MOVE  R15,@R1,WRAPCCS     Set CC/TRC chars for cont line
 00A27C 47F0 7036            0A24C 52423  1                      END
                                   52428  1                      ¿þþþþþþþþþþþþþþþþþþþþþþþþþþþþþþþþþþþþþþþþþþþþþþþþþþþþþþþþþþþþÜ
                                   52429  1                      Ÿ  Write final piece of wrapped line (or entire line if not  Ÿ
                                   52430  1                      Ÿ    wrapped).                                               Ÿ
                                   52431  1                      ¾þþþþþþþþþþþþþþþþþþþþþþþþþþþþþþþþþþþþþþþþþþþþþþþþþþþþþþþþþþþþ»
 00A280 1814                       52432  1                      LR    R1,R4               Line text
 00A282 4B10 8028            00000 52433  1                      SH    R1,WRAPCLEN         Actual start of line
 00A286 1803                       52434  1                      LR    R0,R3               Text length
 00A288 4A00 8028            00000 52435  1                      AH    R0,WRAPCLEN         Complete line length
 00A28C                            52436                       END
                                   52440                       ¿þþþþþþþþþþþþþþþþþþþþþþþþþþþþþþþþþþÜ
                                   52441                       Ÿ  Finally, send the line to JES.  Ÿ
                                   52442                       ¾þþþþþþþþþþþþþþþþþþþþþþþþþþþþþþþþþþ»
 00A28C 58E0 708A/0DEE       0A2A0 52443                       VCALL JESWR               Send line to JES
 00A292 18D8/9808 D004_            52447                       PEND
 DROP   RJEWA,R6
 DROP   WRAPWA-(4+36),R8
 DROP   *,R7
                                   52477
                                   52478                       VLTORG
                                   52486
 00A2A0                            52487                       END   .
 00A2A0 00000000                   52490                             =V(JESWR)
 00A2A4 000097B2                   52491                             =A(FMTWR)
 00A2A8 0000A1FC                   52492                             =A(WRAPWR)
 00A2AC 00000001                   52493                             =A(1)
 00A2B0 000000EB                   52494                             =A(L'FMTTEXT)
 00A2B4 00000000                   52495                             =V(SEGINIT)
 00A2B8 00009CA0                   52496                             =A(FSEG)
 00A2BC 00000000                   52497                             =V(SEGINITR)
 00A2C0 00000000                   52498                             =V(SEG)
 00A2C4 00000003                   52499                             =A(3)
 00A2C8 00009DE4                   52500                             =A(FMTCMD)
 00A2CC 00000000                   52501                             =V(RTRIM)
 00A2D0 00009E84                   52502                             =A(FCMDPRT)
 00A2D4 00000000                   52503                             =V(NSCANSTR)
 00A2D8 4E40                       52504                             =C'+ '
 00A2DA 4EF1                       52505                             =C'+1'
 00A2DC 4EF2                       52506                             =C'+2'
 00A2DE 0008                       52507                             =Y((R1+1-(R0)+16*((R0)/(R1+1))/((R0)/(R1+1)))*4)
 00A2E0 000C                       52508                             =Y((12+3)/4*4)
 00A2E2 00B0                       52509                             =Y((L'NSCNCB+3)/4*4)

1RJE      (RJE4072) (12:53) (15MAR04) Relocation Dictionary                                                                 Page  113
-   Pos.Id   Rel.Id   Flags    Address                                                       HLASM R4.0  2004/03/15 12.53
0  00000001 00000001    0C    00000248
   00000001 00000001    0C    00000270
   00000001 00000001    0C    00000298
   00000001 00000001    0C    000002C0
   00000001 00000001    0C    000002E8
   00000001 00000001    0C    00000310
   00000001 00000001    0C    00000338
   00000001 00000001    0C    00000360
   00000001 00000001    0C    000007D8
   00000001 00000001    0C    000007FC
   00000001 00000001    0C    00000BC4
   00000001 00000001    0C    00000BEC
   00000001 00000001    0C    00000CD8
   00000001 00000001    0C    00000CE8
   00000001 00000001    0C    00000D00
   00000001 00000001    0C    00000D04
   00000001 00000001    0C    00000D08
   00000001 00000001    0C    00000D0C
   00000001 00000001    0C    00000D1C
   00000001 00000001    0C    000011C4
   00000001 00000001    0C    000012DC
   00000001 00000001    0C    00001304
   00000001 00000001    0C    000013A4
   00000001 00000001    0C    00001704
   00000001 00000001    0C    00001718
   00000001 00000001    0C    00001724
   00000001 00000001    0C    00001728
   00000001 00000001    0C    00001738
   00000001 00000001    0C    0000174C
   00000001 00000001    0C    00001768
   00000001 00000001    0C    0000176C
   00000001 00000001    0C    00001770
   00000001 00000001    0C    00001774
   00000001 00000001    0C    000017B4
   00000001 00000001    0C    00001AAC
   00000001 00000001    0C    00001AC0
   00000001 00000001    0C    00001ACC
   00000001 00000001    0C    00001ADC
   00000001 00000001    0C    00001AF0
   00000001 00000001    0C    00002238
   00000001 00000001    0C    00002250
   00000001 00000001    0C    0000225C
   00000001 00000001    0C    00002260
   00000001 00000001    0C    00002268
   00000001 00000001    0C    0000226C
   00000001 00000001    0C    00002270
   00000001 00000001    0C    00002274
   00000001 00000001    0C    00002278
   00000001 00000001    0C    0000227C
   00000001 00000001    0C    00002298
   00000001 00000001    0C    00002C1C
   00000001 00000001    0C    00002C30
   00000001 00000001    0C    00002C58
   00000001 00000001    0C    00002C5C
   00000001 00000001    0C    00002C60
1RJE      (RJE4072) (12:53) (15MAR04) Relocation Dictionary                                                                 Page  114
   00000001 00000001    0C    00002C64
   00000001 00000001    0C    00003134
   00000001 00000001    0C    00003184
   00000001 00000001    0C    000031AC
   00000001 00000001    0C    0000324C
   00000001 00000001    0C    00003274
   00000001 00000001    0C    0000329C
   00000001 00000001    0C    000032C4
   00000001 00000001    0C    000032EC
   00000001 00000001    0C    00003314
   00000001 00000001    0C    00003364
   00000001 00000001    0C    0000338C
   00000001 00000001    0C    000033B4
   00000001 00000001    0C    000033DC
   00000001 00000001    0C    00003404
   00000001 00000001    0C    0000342C
   00000001 00000001    0C    00003454
   00000001 00000001    0C    0000347C
   00000001 00000001    0C    000034A4
   00000001 00000001    0C    000034CC
   00000001 00000001    0C    000034F4
   00000001 00000001    0C    0000351C
   00000001 00000001    0C    00003544
   00000001 00000001    0C    0000356C
   00000001 00000001    0C    00003594
   00000001 00000001    0C    0000365C
   00000001 00000001    0C    000036D4
   00000001 00000001    0C    000036FC
   00000001 00000001    0C    00003D08
   00000001 00000001    0C    00003D30
   00000001 00000001    0C    00003E30
   00000001 00000001    0C    000048D4
   00000001 00000001    0C    0000495C
   00000001 00000001    0C    00004984
   00000001 00000001    0C    000049AC
   00000001 00000001    0C    000049D4
   00000001 00000001    0C    000049FC
   00000001 00000001    0C    00004A24
   00000001 00000001    0C    00004A4C
   00000001 00000001    0C    00004A74
   00000001 00000001    0C    00004A9C
   00000001 00000001    0C    00004AC4
   00000001 00000001    0C    00004AEC
   00000001 00000001    0C    00004B14
   00000001 00000001    0C    00004B3C
   00000001 00000001    0C    00004B64
   00000001 00000001    0C    00004B8C
   00000001 00000001    0C    00004BB4
   00000001 00000001    0C    00004BDC
   00000001 00000001    0C    00004C04
   00000001 00000001    0C    00004C2C
   00000001 00000001    0C    00004C54
   00000001 00000001    0C    00004C7C
   00000001 00000001    0C    00004CA4
   00000001 00000001    0C    00004CCC
   00000001 00000001    0C    00004CF4
   00000001 00000001    0C    00004D1C
   00000001 00000001    0C    00004D44
   00000001 00000001    0C    00004D6C
1RJE      (RJE4072) (12:53) (15MAR04) Relocation Dictionary                                                                 Page  115
   00000001 00000001    0C    00004D94
   00000001 00000001    0C    00004DBC
   00000001 00000001    0C    00004DE4
   00000001 00000001    0C    00004E0C
   00000001 00000001    0C    00004E34
   00000001 00000001    0C    00004E5C
   00000001 00000001    0C    00004E84
   00000001 00000001    0C    00004EAC
   00000001 00000001    0C    00004ED4
   00000001 00000001    0C    00004EFC
   00000001 00000001    0C    00004F24
   00000001 00000001    0C    00004F4C
   00000001 00000001    0C    00004F74
   00000001 00000001    0C    00004F9C
   00000001 00000001    0C    00004FC4
   00000001 00000001    0C    00004FEC
   00000001 00000001    0C    00005014
   00000001 00000001    0C    0000503C
   00000001 00000001    0C    00005064
   00000001 00000001    0C    0000508C
   00000001 00000001    0C    000050B4
   00000001 00000001    0C    000050DC
   00000001 00000001    0C    00005104
   00000001 00000001    0C    0000512C
   00000001 00000001    0C    00005154
   00000001 00000001    0C    0000517C
   00000001 00000001    0C    000051A4
   00000001 00000001    0C    000051CC
   00000001 00000001    0C    000051F4
   00000001 00000001    0C    0000521C
   00000001 00000001    0C    00005244
   00000001 00000001    0C    0000526C
   00000001 00000001    0C    00005294
   00000001 00000001    0C    000052BC
   00000001 00000001    0C    000052E4
   00000001 00000001    0C    00005598
   00000001 00000001    0C    000055C0
   00000001 00000001    0C    000055E8
   00000001 00000001    0C    00005610
   00000001 00000001    0C    00005778
   00000001 00000001    0C    000057A4
   00000001 00000001    0C    0000612C
   00000001 00000001    0C    00006154
   00000001 00000001    0C    0000617C
   00000001 00000001    0C    000062C0
   00000001 00000001    0C    000062E8
   00000001 00000001    0C    00006310
   00000001 00000001    0C    00006338
   00000001 00000001    0C    00006360
   00000001 00000001    0C    00006488
   00000001 00000001    0C    0000649C
   00000001 00000001    0C    000064A0
   00000001 00000001    0C    000064A8
   00000001 00000001    0C    00006B00
   00000001 00000001    0C    00006B28
   00000001 00000001    0C    00006B50
   00000001 00000001    0C    00006C98
   00000001 00000001    0C    00006CC0
   00000001 00000001    0C    00006CE8
1RJE      (RJE4072) (12:53) (15MAR04) Relocation Dictionary                                                                 Page  116
   00000001 00000001    0C    00007424
   00000001 00000001    0C    00007430
   00000001 00000001    0C    00007440
   00000001 00000001    0C    00007448
   00000001 00000001    0C    00007C68
   00000001 00000001    0C    00007C90
   00000001 00000001    0C    00007C94
   00000001 00000001    0C    00007CB0
   00000001 00000001    0C    00008780
   00000001 00000001    0C    00008788
   00000001 00000001    0C    00009EA8
   00000001 00000001    0C    00009ED0
   00000001 00000001    0C    00009EF8
   00000001 00000001    0C    00009F20
   00000001 00000001    0C    00009F48
   00000001 00000001    0C    00009F70
   00000001 00000001    0C    00009F98
   00000001 00000001    0C    00009FC0
   00000001 00000001    0C    00009FE8
   00000001 00000001    0C    0000A010
   00000001 00000001    0C    0000A038
   00000001 00000001    0C    0000A2A4
   00000001 00000001    0C    0000A2A8
   00000001 00000001    0C    0000A2B8
   00000001 00000001    0C    0000A2C8
   00000001 00000001    0C    0000A2D0
   00000001 00000002    1C    00000244
   00000001 00000002    1C    0000026C
   00000001 00000002    1C    00000294
   00000001 00000002    1C    000011C0
   00000001 00000002    1C    00003130
   00000001 00000002    1C    00003248
   00000001 00000002    1C    00003270
   00000001 00000002    1C    00003298
   00000001 00000002    1C    000032C0
   00000001 00000002    1C    000032E8
   00000001 00000002    1C    00003310
   00000001 00000002    1C    00003360
   00000001 00000002    1C    00004958
   00000001 00000002    1C    00004980
   00000001 00000002    1C    000049A8
   00000001 00000002    1C    000049D0
   00000001 00000002    1C    00004B38
   00000001 00000002    1C    00004B60
   00000001 00000002    1C    00004CC8
   00000001 00000002    1C    00004CF0
   00000001 00000002    1C    00004D18
   00000001 00000002    1C    00004D40
   00000001 00000002    1C    00004D68
   00000001 00000002    1C    00004E08
   00000001 00000002    1C    00004E30
   00000001 00000002    1C    00004E80
   00000001 00000002    1C    00004EA8
   00000001 00000002    1C    00004ED0
   00000001 00000002    1C    00004EF8
   00000001 00000002    1C    00004F20
   00000001 00000002    1C    00004F48
   00000001 00000002    1C    00004F70
   00000001 00000002    1C    00005010
1RJE      (RJE4072) (12:53) (15MAR04) Relocation Dictionary                                                                 Page  117
   00000001 00000002    1C    000050B0
   00000001 00000002    1C    000050D8
   00000001 00000002    1C    00005100
   00000001 00000002    1C    000051F0
   00000001 00000002    1C    00005218
   00000001 00000002    1C    00005240
   00000001 00000003    1C    000002BC
   00000001 00000003    1C    000002E4
   00000001 00000003    1C    0000030C
   00000001 00000003    1C    00000334
   00000001 00000003    1C    0000035C
   00000001 00000003    1C    00000BC0
   00000001 00000003    1C    00001198
   00000001 00000003    1C    00001238
   00000001 00000003    1C    00001260
   00000001 00000003    1C    00001288
   00000001 00000003    1C    000012B0
   00000001 00000003    1C    000012D8
   00000001 00000003    1C    00001300
   00000001 00000003    1C    00001328
   00000001 00000003    1C    00003108
   00000001 00000003    1C    00003180
   00000001 00000003    1C    000031A8
   00000001 00000003    1C    000031F8
   00000001 00000003    1C    00003220
   00000001 00000003    1C    00003338
   00000001 00000003    1C    00003388
   00000001 00000003    1C    000033B0
   00000001 00000003    1C    000033D8
   00000001 00000003    1C    00003400
   00000001 00000003    1C    00003428
   00000001 00000003    1C    00003450
   00000001 00000003    1C    00003478
   00000001 00000003    1C    000034A0
   00000001 00000003    1C    000034C8
   00000001 00000003    1C    000034F0
   00000001 00000003    1C    00003518
   00000001 00000003    1C    00003540
   00000001 00000003    1C    00003568
   00000001 00000003    1C    00003590
   00000001 00000003    1C    000036D0
   00000001 00000003    1C    000049F8
   00000001 00000003    1C    00004A20
   00000001 00000003    1C    00004A48
   00000001 00000003    1C    00004A70
   00000001 00000003    1C    00004A98
   00000001 00000003    1C    00004AC0
   00000001 00000003    1C    00004AE8
   00000001 00000003    1C    00004B10
   00000001 00000003    1C    00004C00
   00000001 00000003    1C    00004C50
   00000001 00000003    1C    00004CA0
   00000001 00000003    1C    00004D90
   00000001 00000003    1C    00004DB8
   00000001 00000003    1C    00004DE0
   00000001 00000003    1C    00004E58
   00000001 00000003    1C    00004F98
   00000001 00000003    1C    00004FC0
   00000001 00000003    1C    00004FE8
1RJE      (RJE4072) (12:53) (15MAR04) Relocation Dictionary                                                                 Page  118
   00000001 00000003    1C    00005038
   00000001 00000003    1C    00005060
   00000001 00000003    1C    00005088
   00000001 00000003    1C    00005128
   00000001 00000003    1C    00005150
   00000001 00000003    1C    00005178
   00000001 00000003    1C    000051A0
   00000001 00000003    1C    000051C8
   00000001 00000003    1C    00005268
   00000001 00000003    1C    00005290
   00000001 00000003    1C    000052B8
   00000001 00000003    1C    000052E0
   00000001 00000003    1C    00005594
   00000001 00000003    1C    000055BC
   00000001 00000003    1C    000055E4
   00000001 00000003    1C    00006128
   00000001 00000003    1C    00006150
   00000001 00000003    1C    000062BC
   00000001 00000003    1C    000062E4
   00000001 00000003    1C    0000630C
   00000001 00000003    1C    00006334
   00000001 00000003    1C    00006AFC
   00000001 00000003    1C    00006B24
   00000001 00000003    1C    00006C94
   00000001 00000003    1C    00006CBC
   00000001 00000003    1C    00009EA4
   00000001 00000003    1C    00009ECC
   00000001 00000003    1C    00009EF4
   00000001 00000003    1C    00009F1C
   00000001 00000003    1C    00009F44
   00000001 00000003    1C    00009F6C
   00000001 00000003    1C    00009F94
   00000001 00000003    1C    00009FBC
   00000001 00000003    1C    00009FE4
   00000001 00000003    1C    0000A00C
   00000001 00000004    1C    00000384
   00000001 00000004    1C    00000C88
   00000001 00000004    1C    00001418
   00000001 00000004    1C    000036F8
   00000001 00000004    1C    00003D2C
   00000001 00000004    1C    000048F8
   00000001 00000004    1C    0000560C
   00000001 00000004    1C    00006178
   00000001 00000004    1C    0000635C
   00000001 00000004    1C    00006B4C
   00000001 00000004    1C    00006CE4
   00000001 00000004    1C    00007C0C
   00000001 00000004    1C    0000A034
   00000001 00000005    1C    00000388
   00000001 00000005    1C    0000123C
   00000001 00000005    1C    00001264
   00000001 00000005    1C    0000128C
   00000001 00000005    1C    000012B4
   00000001 00000005    1C    000031FC
   00000001 00000005    1C    00003224
   00000001 00000005    1C    0000333C
   00000001 00000006    1C    000007B0
   00000001 00000006    1C    00002C6C
   00000001 00000006    1C    000073F8
1RJE      (RJE4072) (12:53) (15MAR04) Relocation Dictionary                                                                 Page  119
   00000001 00000006    1C    000087B8
   00000001 00000007    1C    000007B4
   00000001 00000007    1C    00000D10
   00000001 00000007    1C    0000177C
   00000001 00000007    1C    00002258
   00000001 00000007    1C    00002C38
   00000001 00000007    1C    00002ED4
   00000001 00000007    1C    00003E00
   00000001 00000007    1C    00004790
   00000001 00000007    1C    0000578C
   00000001 00000007    1C    00006498
   00000001 00000007    1C    00007414
   00000001 00000007    1C    00007C78
   00000001 00000007    1C    0000878C
   00000001 00000007    1C    000095D0
   00000001 00000007    1C    0000A2C0
   00000001 00000008    1C    000007B8
   00000001 00000008    1C    00000C8C
   00000001 00000008    1C    0000132C
   00000001 00000008    1C    0000141C
   00000001 00000008    1C    000017A4
   00000001 00000008    1C    00003E18
   00000001 00000008    1C    000048FC
   00000001 00000008    1C    00005784
   00000001 00000008    1C    00005B50
   00000001 00000008    1C    00006484
   00000001 00000008    1C    00007408
   00000001 00000009    1C    000007BC
   00000001 00000009    1C    00001780
   00000001 0000000A    1C    000007C0
   00000001 0000000A    1C    00000CE4
   00000001 0000000B    1C    000007C4
   00000001 0000000C    1C    000007C8
   00000001 0000000C    1C    00000CF4
   00000001 0000000C    1C    0000172C
   00000001 0000000C    1C    00001AD0
   00000001 0000000D    1C    000007CC
   00000001 0000000D    1C    00001710
   00000001 0000000D    1C    00001AB8
   00000001 0000000E    1C    000007D0
   00000001 0000000E    1C    00001730
   00000001 0000000E    1C    00001AD4
   00000001 0000000F    1C    000007DC
   00000001 0000000F    1C    0000173C
   00000001 0000000F    1C    00001AE0
   00000001 00000010    1C    000007E0
   00000001 00000010    1C    00001740
   00000001 00000010    1C    00001AE4
   00000001 00000011    1C    00000800
   00000001 00000011    1C    00000CEC
   00000001 00000011    1C    0000171C
   00000001 00000011    1C    00001AC4
   00000001 00000011    1C    00002254
   00000001 00000011    1C    00002C20
   00000001 00000011    1C    00003E34
   00000001 00000011    1C    000057A8
   00000001 00000011    1C    00005B48
   00000001 00000011    1C    0000648C
   00000001 00000011    1C    00007428
1RJE      (RJE4072) (12:53) (15MAR04) Relocation Dictionary                                                                 Page  120
   00000001 00000011    1C    00007CA0
   00000001 00000012    1C    00000804
   00000001 00000013    1C    00000810
   00000001 00000013    1C    00003E24
   00000001 00000013    1C    000073D8
   00000001 00000014    1C    00000814
   00000001 00000014    1C    00008798
   00000001 00000015    1C    00000818
   00000001 00000016    1C    0000081C
   00000001 00000017    1C    00000820
   00000001 00000017    1C    00007C80
   00000001 00000018    1C    00000B9C
   00000001 00000019    1C    00000C14
   00000001 00000019    1C    00001354
   00000001 00000019    1C    000035BC
   00000001 0000001A    1C    00000C3C
   00000001 0000001A    1C    000013CC
   00000001 0000001A    1C    00003684
   00000001 0000001B    1C    00000C64
   00000001 0000001B    1C    000013F4
   00000001 0000001B    1C    000036AC
   00000001 0000001C    1C    00000CD4
   00000001 0000001C    1C    00001700
   00000001 0000001C    1C    00001AA8
   00000001 0000001C    1C    00002234
   00000001 0000001C    1C    00002C28
   00000001 0000001C    1C    00007C74
   00000001 0000001C    1C    0000A2B4
   00000001 0000001D    1C    00000CDC
   00000001 0000001D    1C    00001708
   00000001 0000001D    1C    00001AB0
   00000001 0000001D    1C    0000223C
   00000001 0000001D    1C    0000A2BC
   00000001 0000001E    1C    00000CE0
   00000001 0000001E    1C    00001714
   00000001 0000001E    1C    00001ABC
   00000001 0000001F    1C    00000CF0
   00000001 0000001F    1C    00001720
   00000001 0000001F    1C    00001AC8
   00000001 0000001F    1C    00002C24
   00000001 0000001F    1C    00006490
   00000001 0000001F    1C    000073E0
   00000001 00000020    1C    00000CF8
   00000001 00000021    1C    00000CFC
   00000001 00000022    1C    00000D14
   00000001 00000022    1C    00002294
   00000001 00000022    1C    00002C54
   00000001 00000022    1C    00002EC8
   00000001 00000022    1C    000047B8
   00000001 00000022    1C    00007C8C
   00000001 00000022    1C    00008794
   00000001 00000022    1C    000095D4
   00000001 00000023    1C    00000D18
   00000001 00000023    1C    00001778
   00000001 00000023    1C    00002280
   00000001 00000023    1C    00002C48
   00000001 00000023    1C    00002ED0
   00000001 00000023    1C    00003DFC
   00000001 00000023    1C    000047C4
1RJE      (RJE4072) (12:53) (15MAR04) Relocation Dictionary                                                                 Page  121
   00000001 00000023    1C    00007C70
   00000001 00000023    1C    000087C4
   00000001 00000023    1C    000095E4
   00000001 00000024    1C    00000D20
   00000001 00000024    1C    000017AC
   00000001 00000024    1C    00002284
   00000001 00000024    1C    00002C3C
   00000001 00000024    1C    00003E04
   00000001 00000024    1C    00004780
   00000001 00000024    1C    000087B4
   00000001 00000024    1C    000095F8
   00000001 00000025    1C    00000D24
   00000001 00000026    1C    0000119C
   00000001 00000026    1C    0000310C
   00000001 00000027    1C    000011EC
   00000001 00000027    1C    0000137C
   00000001 00000027    1C    0000315C
   00000001 00000027    1C    0000360C
   00000001 00000027    1C    00007BE8
   00000001 00000028    1C    00001214
   00000001 00000028    1C    000031D4
   00000001 00000029    1C    0000170C
   00000001 00000029    1C    00001AB4
   00000001 0000002A    1C    00001750
   00000001 0000002A    1C    00002230
   00000001 0000002B    1C    000017A8
   00000001 0000002B    1C    000022A4
   00000001 0000002B    1C    00008818
   00000001 0000002C    1C    000017BC
   00000001 0000002C    1C    00002C44
   00000001 0000002C    1C    00008800
   00000001 0000002D    1C    00002288
   00000001 0000002D    1C    00009608
   00000001 0000002E    1C    0000228C
   00000001 0000002F    1C    00002C2C
   00000001 00000030    1C    00002C34
   00000001 00000031    1C    00002C50
   00000001 00000032    1C    00002C70
   00000001 00000032    1C    0000881C
   00000001 00000033    1C    000035E4
   00000001 00000034    1C    00003634
   00000001 00000035    1C    00003D04
   00000001 00000036    1C    00003DF0
   00000001 00000037    1C    00003E08
   00000001 00000038    1C    00003E0C
   00000001 00000039    1C    00003E10
   00000001 00000039    1C    00007C10
   00000001 0000003A    1C    00003E14
   00000001 0000003A    1C    00005794
   00000001 0000003A    1C    00007CA8
   00000001 0000003B    1C    00004784
   00000001 0000003B    1C    000073F4
   00000001 0000003B    1C    00008790
   00000001 0000003C    1C    00004788
   00000001 0000003D    1C    000047BC
   00000001 0000003D    1C    00007C7C
   00000001 0000003D    1C    000095EC
   00000001 0000003E    1C    00004B88
   00000001 0000003E    1C    00004BB0
1RJE      (RJE4072) (12:53) (15MAR04) Relocation Dictionary                                                                 Page  122
   00000001 0000003E    1C    00004BD8
   00000001 0000003E    1C    00004C28
   00000001 0000003E    1C    00004C78
   00000001 0000003F    1C    0000577C
   00000001 00000040    1C    00005788
   00000001 00000040    1C    000087BC
   00000001 00000041    1C    000057A0
   00000001 00000042    1C    000073DC
   00000001 00000042    1C    0000A2D4
   00000001 00000043    1C    000073F0
   00000001 00000044    1C    000073FC
   00000001 00000045    1C    0000740C
   00000001 00000046    1C    00007C6C
   00000001 00000047    1C    00007C84
   00000001 00000048    1C    000087C0
   00000001 00000048    1C    000095E0
   00000001 00000049    1C    00008804
   00000001 0000004A    1C    0000960C
   00000001 0000004B    1C    0000961C
   00000001 0000004C    1C    0000A2A0
   00000001 0000004D    1C    0000A2CC

1RJE      (RJE4072) (12:53) (15MAR04) Ordinary Symbol and Literal Cross Reference                                           Page  123
-Symbol   Length   Value     Id    R Type   Defn References                                  HLASM R4.0  2004/03/15 12.53
0$$$@R0        1 00000000 FFFFFFFE     J     713  1030
 $$$@R10       1 00000000 FFFFFFF4     J     843  1094
 $$$@R11       1 00000000 FFFFFFF3     J     856  1107
 $$$@R12       1 00000000 FFFFFFF2     J     869  1120
 $$$@R13       1 00000000 FFFFFFF1     J     882  1133
 $$$@R14       1 00000000 FFFFFFF0     J     895  1146
 $$$@R7        1 00000000 FFFFFFF7     J     804  1043
 $$$@R8        1 00000000 FFFFFFF6     J     817  1056   1068
 $$$@R9        1 00000000 FFFFFFF5     J     830  1081
 $$$C1WYLRJE
               1 0000088A 00000001     J    9507  9509  10003  10043  10540
 $$$C10WYLRJE
               1 00005810 00000001     J   30388 30390
 $$$C11WYLRJE
               1 00005B59 00000001     J   31543 31545  32106  32123  32140  32157  32662  32679  32696  32713  32730
                                                 32747  32764
 $$$C12WYLRJE
               1 0000651C 00000001     J   33727 33729  33990  34224  34378  34516  34640
 $$$C13WYLRJE
               1 0000756C 00000001     J   38691 38693  38877  39502
 $$$C14WYLRJE
               1 00007D3D 00000001     J   40792 40794  40816  42008  42110  42253  42327  44418
 $$$C15WYLRJE
               1 000088FA 00000001     J   44593 44595
 $$$C16WYLRJE
               1 00009751 00000001     J   49446 49448  49806  50126  51142  52215  52417
 $$$C17WYLRJE
               1 0000A2F6 00000001     J   52510 52512
 $$$C2WYLRJE
               1 00000D8E 00000001     J   11090 11092
 $$$C3WYLRJE
               1 0000187A 00000001     J   13491 13493
 $$$C4WYLRJE
               1 00001B22 00000001     J   14154 14156
 $$$C5WYLRJE
               1 00002364 00000001     J   16779 16781
 $$$C6WYLRJE
               1 00002D1C 00000001     J   20206 20208  20243  20355
 $$$C7WYLRJE
               1 00002EDE 00000001     J   20871 20873  20898  22227  22408
 $$$C8WYLRJE
               1 00003E5E 00000001     J   24346 24348
 $$$C9WYLRJE
               1 000048B0 00000001     J   27916 27918  29353  29587
 $$$D0WYLRJE
               1 00000883 00000001     J     999  7872
 $$$D1WYLRJE
               1 00000D87 00000001     J    9508 10529
 $$$D11WYLRJE
               1 000064D9 00000001     J   31544 32095  32112  32129  32146  32651  32668  32685  32702  32719  32736
                                                 32753
 $$$D12WYLRJE
               1 00007554 00000001     J   33728 34213  34367  34505  34629
 $$$D14WYLRJE
               1 000088DC 00000001     J   40793 41997  42099  42242  42316  44407
1RJE      (RJE4072) (12:53) (15MAR04) Ordinary Symbol and Literal Cross Reference                                           Page  124
 $$$D16WYLRJE
               1 0000A2E4 00000001     J   49447 50115  51131  52406
 $$$D6WYLRJE
               1 00002ED8 00000001     J   20207 20344
 $$$D7WYLRJE
               1 00003E51 00000001     J   20872 22216  22397
 $$$D9WYLRJE
               1 00005809 00000001     J   27917 29576
 $$$RBACKWA
               1 00000000 FFFFFFE1     J   20225 20242  20242
 $$$RCDWA      1 00000000 FFFFFFE2     J   10020 10042  10042
 $$$RCP        1 00000000 FFFFFFEC     J    2464  4724   6198   6198
 $$$RCV        1 00000000 FFFFFFEE     J    1189  2374   2374
 $$$RDEV       1 00000000 FFFFFFEB     J    4678  4723   4723
 $$$RFFINFO
               1 00000000 FFFFFFE6     J    6945  7154   7154
 $$$RFMTWA
               1 00000000 FFFFFFDA     J   49672 49805  49805
 $$$RHEXWA
               1 00000000 FFFFFFE0     J   20884 20897  20897
 $$$RIDWA      1 00000000 FFFFFFDF     J   29339 29352  29352
 $$$RJCB       1 00000000 FFFFFFE9     J    6332  6606   6606
 $$$RJCKWA
               1 00000000 FFFFFFDC     J   39488 39501  39501
 $$$RJCLSWA
               1 00000000 FFFFFFDD     J   38775 38876  38876
 $$$RJOBWA
               1 00000000 FFFFFFDB     J   40800 40815  40815
 $$$RKWR       1 00000000 FFFFFFE8     J    6612  6817   6817
 $$$RNSCNCB
               1 00000000 FFFFFFED     J    2385  2458   2458
 $$$RPRT       1 00000000 FFFFFFE5     J    7169  7198   7198
 $$$RRJETOWA
               1 00000000 FFFFFFDE     J   33975 33989  33989
 $$$RRJEWA
               1 00000000 FFFFFFE3     J    9516 10002  10002
 $$$RSEGCB
               1 00000000 FFFFFFE7     J    6823  6923   6923
 $$$RSPRTWA
               1 00000000 FFFFFFE4     J    7204  7227   7227
 $$$RTTYPE
               1 00000000 FFFFFFEA     J    6209  6310   6310
 $$$RWRAPWA
               1 00000000 FFFFFFD9     J   52200 52214  52214
 $$$SEGCB0
               4 00000050 FFFFFFEC     F    2495  2581   2581
 $$$SEGCB1087
               4 00000000 FFFFFFDD     F   38782 38868  38868
 $$$SEGCB1376
               4 0000000C FFFFFFDA     F   49696 49782  49782
 $$$SEGCB144
               4 00000430 FFFFFFE3     F    9906  9992   9992
 $$$Z8         4 00004754 00000001     F   27848 24665
 $$$1000B      1 00006E66 00000001     X   36729 36736U
 $$$1001F      2 00006E86 00000001     H   36793 36770B
 $$$1001T      2 00006E78 00000001     H   36773 36759B
 $$$1004       1 00000050 00000001 A   U   36815 36812  36814
 $$$1006B      1 00006EB0 00000001     X   36842 36849U
 $$$1007F      2 00006EBE 00000001     H   36883 36870B
1RJE      (RJE4072) (12:53) (15MAR04) Ordinary Symbol and Literal Cross Reference                                           Page  125
 $$$1008F      2 00006EDE 00000001     H   36923 36913B
 $$$1008T      2 00006ED8 00000001     H   36916 36902B
 $$$101B       1 00000510 00000001     X    8471  8478U
 $$$1010       1 00000050 00000001 A   U   36945 36942  36944
 $$$1012B      1 00006F08 00000001     X   36972 36979U
 $$$1013F      2 00006F20 00000001     H   37036 37017B
 $$$1013T      2 00006F18 00000001     H   37020 37002B
 $$$1015       1 00000050 00000001 A   U   37054 37051  37053
 $$$1017B      1 00006F48 00000001     X   37081 37088U
 $$$1018F      2 00006F60 00000001     H   37145 37126B
 $$$1018T      2 00006F58 00000001     H   37129 37111B
 $$$102        1 00000050 00000001 A   U    8529  8526   8528
 $$$1020       1 00000050 00000001 A   U   37163 37160  37162
 $$$1022B      1 00006F88 00000001     X   37190 37197U
 $$$1023F      2 000070FE 00000001     H   37545 37231B
 $$$1023T      2 00006F9A 00000001     H   37234 37220B
 $$$1025B      4 00006FA4 00000001     I   37254 37296
 $$$1025F      2 00006FC4 00000001     H   37293 37254B 37295
 $$$1026F      2 00006FB6 00000001     H   37284 37271B
 $$$1027E      2 00006FC8 00000001     H   37303 37297
 $$$1027F      2 000070F0 00000001     H   37514 37299B
 $$$1029F      2 0000705C 00000001     H   37415 37402B
 $$$1030F      2 000070D8 00000001     H   37484 37468B
 $$$1032F      2 000070FE 00000001     H   37541 37526B
 $$$1033       1 00000050 00000001 A   U   37567 37564  37566
 $$$1035B      1 00007128 00000001     X   37594 37601U
 $$$1036F      2 0000713C 00000001     H   37649 37634B
 $$$1036T      2 00007138 00000001     H   37637 37624B
 $$$1038       1 00000050 00000001 A   U   37667 37664  37666
 $$$104B       1 0000054C 00000001     X    8556  8563U
 $$$1040B      1 00007164 00000001     X   37694 37701U
 $$$1041       1 00000050 00000001 A   U   37739 37736  37738
 $$$1043B      1 0000719C 00000001     X   37766 37773U
 $$$1044       1 00000050 00000001 A   U   37811 37808  37810
 $$$1046B      1 000071D4 00000001     X   37838 37845U
 $$$1047       1 00000050 00000001 A   U   37883 37880  37882
 $$$1049B      1 0000720C 00000001     X   37910 37917U
 $$$105        1 00000050 00000001 A   U    8596  8593   8595
 $$$1050F      2 0000721A 00000001     H   37951 37938B
 $$$1051F      2 00007244 00000001     H   38014 37977B
 $$$1051T      2 0000722A 00000001     H   37980 37966B
 $$$1053F      2 00007244 00000001     H   38010 37995B
 $$$1054       1 00000050 00000001 A   U   38036 38033  38035
 $$$1056B      1 0000726E 00000001     X   38063 38070U
 $$$1057B      4 0000727A 00000001     I   38095 38111
 $$$1057F      2 00007284 00000001     H   38108 38095B 38110
 $$$1058E      2 00007288 00000001     H   38118 38112
 $$$1058F      2 0000728E 00000001     H   38128 38114B
 $$$1059       1 00000050 00000001 A   U   38150 38147  38149
 $$$1061B      1 000072B8 00000001     X   38177 38184U
 $$$1062F      2 000072EE 00000001     H   38262 38210B 38223B 38236B 38249B
 $$$1066F      2 00007306 00000001     H   38297 38288B
 $$$1066T      2 00007300 00000001     H   38291 38277B
 $$$1068       1 00000050 00000001 A   U   38319 38316  38318
 $$$107B       1 00000578 00000001     X    8623  8630U
 $$$1070B      1 00007330 00000001     X   38346 38353U
 $$$1071F      2 00007344 00000001     H   38401 38386B
 $$$1071T      2 00007340 00000001     H   38389 38376B
 $$$1073       1 00000050 00000001 A   U   38419 38416  38418
1RJE      (RJE4072) (12:53) (15MAR04) Ordinary Symbol and Literal Cross Reference                                           Page  126
 $$$1075B      1 0000736C 00000001     X   38446 38453U
 $$$1076F      2 00007380 00000001     H   38501 38486B
 $$$1076T      2 0000737C 00000001     H   38489 38476B
 $$$1078       1 00000050 00000001 A   U   38519 38516  38518
 $$$108        1 00000050 00000001 A   U    8662  8659   8661
 $$$1080B      1 000073A8 00000001     X   38546 38553U
 $$$1081F      2 000073C0 00000001     H   38609 38591B
 $$$1081T      2 000073B8 00000001     H   38594 38576B
 $$$1083       1 00000050 00000001 A   U   38627 38624  38626
 $$$1085B      1 00007586 00000001     X   38724 38731U
 $$$1086       1 00000050 00000001 A   U   38769 38766  38768
 $$$1096B      1 000075BE 00000001     X   38910 38917U
 $$$1097F      2 00007732 00000001     H   39446 38946B
 $$$1098F      2 000075F6 00000001     H   39005 38978B
 $$$1099F      2 00007614 00000001     H   39045 39016B 39033B
 $$$110B       1 000005A4 00000001     X    8689  8696U
 $$$1101B      4 00007616 00000001     I   39056 39366
 $$$1101F      2 000076F8 00000001     H   39362 39056B 39365
 $$$1102B      4 00007630 00000001     I   39101 39171
 $$$1102F      2 0000765C 00000001     H   39165 39101B 39170
 $$$1104E      2 00007660 00000001     H   39178 39172
 $$$1104F      2 000076E0 00000001     H   39323 39174B
 $$$1105F      2 000076DC 00000001     H   39317 39252B 39263B
 $$$1108E      2 000076FC 00000001     H   39373 39367
 $$$1108F      2 00007732 00000001     H   39442 39369B
 $$$1109       1 000000DC 00000001 A   U   39470 39467  39469
 $$$111B       4 000005C8 00000001     I    8748  8762
 $$$111F       2 000005D4 00000001     H    8759  8748B  8761
 $$$1111B      1 0000775A 00000001     X   39530 39537U
 $$$1112F      2 0000776C 00000001     H   39581 39567B
 $$$1113F      2 000077A4 00000001     H   39637 39626B
 $$$1113T      2 00007796 00000001     H   39629 39600B 39614B
 $$$1116F      2 000077C6 00000001     H   39668 39648B
 $$$1118F      2 00007812 00000001     H   39786 39701B
 $$$1119F      2 00007804 00000001     H   39760 39720B
 $$$112E       2 000005D8 00000001     H    8769  8763
 $$$112F       2 000005E4 00000001     H    8800  8765B
 $$$1120F      2 00007804 00000001     H   39755 39742B
 $$$1122F      2 00007824 00000001     H   39818 39797B
 $$$1126F      2 000079AE 00000001     H   40041 40021B
 $$$1127F      2 000079E8 00000001     H   40113 40053B
 $$$1128F      2 000079E8 00000001     H   40109 40086B 40099B
 $$$113        1 00000050 00000001 A   U    8818  8815   8817
 $$$1130F      2 00007A30 00000001     H   40188 40135B
 $$$1131       1 00000060 00000001 A   U   40231 40228  40230
 $$$1133B      1 00007A70 00000001     X   40265 40272U
 $$$1134F      2 00007AF2 00000001     H   40514 40292B
 $$$1134S      2 00007A70 00000001     H   40286 40513B
 $$$1136F      2 00007AAC 00000001     H   40381 40309B
 $$$1137F      2 00007A9C 00000001     H   40356 40330B 40343B
 $$$1137S      2 00007A84 00000001     H   40322 40355B
 $$$1141F      2 00007AE8 00000001     H   40506 40395B 40415B 40428B 40462B 40496B
 $$$1145F      2 00007AD4 00000001     H   40465 40447B
 $$$1147F      2 00007AE4 00000001     H   40499 40481B
 $$$1149       1 00000050 00000001 A   U   40533 40530  40532
 $$$115B       1 0000060C 00000001     X    8873  8880U
 $$$1151B      1 00007B1A 00000001     X   40567 40574U
 $$$1152F      2 00007BB4 00000001     H   40680 40595B
 $$$1153       1 00000050 00000001 A   U   40698 40695  40697
1RJE      (RJE4072) (12:53) (15MAR04) Ordinary Symbol and Literal Cross Reference                                           Page  127
 $$$1155B      1 00007D58 00000001     X   40852 40859U
 $$$1156F      2 00007D70 00000001     H   40908 40899B
 $$$1157F      2 00007D8C 00000001     H   40953 40926B 40939B
 $$$1157S      2 00007D76 00000001     H   40918 40952B
 $$$116F       2 0000064C 00000001     H    8992  8927B
 $$$116S       2 00000614 00000001     H    8900  8991B
 $$$1160F      2 00007DAC 00000001     H   40978 40967B
 $$$1161B      4 00007DC4 00000001     I   40998 41465
 $$$1161F      2 00007F14 00000001     H   41461 40998B 41464
 $$$1162B      4 00007DCC 00000001     I   41013 41028
 $$$1162F      2 00007DE2 00000001     H   41024 41013B 41027
 $$$1163E      2 00007DE6 00000001     H   41035 41029
 $$$1163F      2 00007DEC 00000001     H   41045 41031B
 $$$1164F      2 00007EE8 00000001     H   41392 41212B 41246B
 $$$1166F      2 00007ED6 00000001     H   41371 41282B
 $$$1166S      2 00007E9E 00000001     H   41276 41370B
 $$$1168F      2 00007ECC 00000001     H   41361 41325B
 $$$1169F      2 00007F14 00000001     H   41457 41405B
 $$$1170E      2 00007F18 00000001     H   41472 41466
 $$$1170F      2 0000823A 00000001     H   42723 41468B
 $$$1172F      2 00007F48 00000001     H   41526 41514B
 $$$1172S      2 00007F34 00000001     H   41506 41525B
 $$$1174F      2 00007F58 00000001     H   41551 41540B
 $$$1174S      2 00007F48 00000001     H   41532 41550B
 $$$1177F      2 00007F76 00000001     H   41596 41585B
 $$$1177S      2 00007F66 00000001     H   41577 41595B
 $$$1181F      2 00007FAC 00000001     H   41693 41664B
 $$$1181T      2 00007F9A 00000001     H   41667 41653B
 $$$1184F      2 00007FDC 00000001     H   41765 41714B 41727B 41740B 41753B
 $$$1184S      2 00007FB0 00000001     H   41704 41764B
 $$$119F       2 00000648 00000001     H    8982  8951B
 $$$119S       2 00000624 00000001     H    8942  8981B
 $$$1191F      2 00008014 00000001     H   41861 41830B
 $$$1191T      2 00007FFC 00000001     H   41833 41819B
 $$$1194F      2 00008038 00000001     H   41906 41874B
 $$$1196F      2 00008058 00000001     H   41950 41919B
 $$$1198F      2 00008082 00000001     H   42014 41963B
 $$$1199F      2 00008074 00000001     H   41991 41981B
 $$$1200       6 000088DC 00000001     I   42003 41995X
 $$$1201       6 000088DC 00000001     I   42002 42003  42003
 $$$1202F      2 0000818A 00000001     H   42465 42033B
 $$$1203B      4 0000809E 00000001     I   42049 42123
 $$$1203F      2 000080C4 00000001     H   42119 42049B 42122
 $$$1205F      2 000080C4 00000001     H   42115 42091B
 $$$1206       6 000088E2 00000001     I   42105 42097X
 $$$1207       6 000088E2 00000001     I   42104 42105  42105
 $$$1208B      4 000080CC 00000001     I   42140 42265
 $$$1208E      2 000080C8 00000001     H   42130 42124
 $$$1208F      2 00008110 00000001     H   42262 42126B 42140B 42264
 $$$121F       2 0000063C 00000001     H    8974  8964B
 $$$1211F      2 000080F8 00000001     H   42199 42186B
 $$$1211S      2 000080E6 00000001     H   42178 42198B
 $$$1213F      2 00008104 00000001     H   42220 42210B
 $$$1214F      2 00008110 00000001     H   42258 42234B
 $$$1215       6 000088E8 00000001     I   42248 42240X
 $$$1216       6 000088E8 00000001     I   42247 42248  42248
 $$$1217E      2 00008114 00000001     H   42272 42266
 $$$1217F      2 00008172 00000001     H   42438 42268B
 $$$1219F      2 0000812E 00000001     H   42332 42308B
1RJE      (RJE4072) (12:53) (15MAR04) Ordinary Symbol and Literal Cross Reference                                           Page  128
 $$$122        1 00000050 00000001 A   U    9012  9009   9011
 $$$1220       6 000088EE 00000001     I   42322 42314X
 $$$1221       6 000088EE 00000001     I   42321 42322  42322
 $$$1222F      2 00008172 00000001     H   42434 42346B 42365B 42378B
 $$$1226F      2 000081DA 00000001     H   42579 42543B
 $$$1227F      2 0000823A 00000001     H   42717 42662B
 $$$1229F      2 000082A4 00000001     H   42928 42810B 42828B
 $$$1233B      4 00008284 00000001     I   42852 42891
 $$$1233F      2 00008294 00000001     H   42887 42852B 42890
 $$$1234F      2 00008294 00000001     H   42883 42867B
 $$$1236E      2 00008298 00000001     H   42898 42892
 $$$1236F      2 000082A4 00000001     H   42924 42894B 42908B
 $$$124B       1 00000674 00000001     X    9048  9055U
 $$$1240F      2 000082FC 00000001     H   43143 42942B
 $$$1241F      2 000082D8 00000001     H   43052 42957B
 $$$1242B      4 000082B8 00000001     I   42972 43010
 $$$1242F      2 000082C8 00000001     H   43007 42972B 43009
 $$$1243F      2 000082C8 00000001     H   43003 42988B
 $$$1245E      2 000082CC 00000001     H   43017 43011
 $$$1245F      2 000082D8 00000001     H   43048 43013B
 $$$1246F      2 000082D8 00000001     H   43044 43029B
 $$$1247F      2 000082FC 00000001     H   43139 43064B
 $$$1248B      4 000082E4 00000001     I   43079 43097
 $$$1248F      2 000082EC 00000001     H   43094 43079B 43096
 $$$1249E      2 000082F0 00000001     H   43104 43098
 $$$1249F      2 000082FC 00000001     H   43135 43100B
 $$$125        1 00000050 00000001 A   U    9098  9095   9097
 $$$1250F      2 000082FC 00000001     H   43131 43116B
 $$$1251F      2 00008328 00000001     H   43252 43157B
 $$$1252B      4 00008308 00000001     I   43172 43210
 $$$1252F      2 00008318 00000001     H   43207 43172B 43209
 $$$1253F      2 00008318 00000001     H   43203 43188B
 $$$1255E      2 0000831C 00000001     H   43217 43211
 $$$1255F      2 00008328 00000001     H   43248 43213B
 $$$1256F      2 00008328 00000001     H   43244 43229B
 $$$1257F      2 000083DE 00000001     H   43457 43430B
 $$$1258       1 00000068 00000001 A   U   43506 43503  43505
 $$$1260B      1 00008426 00000001     X   43539 43546U
 $$$1261F      2 0000844C 00000001     H   43603 43593B
 $$$1262F      2 00008458 00000001     H   43624 43614B
 $$$1263F      2 00008552 00000001     H   43958 43643B
 $$$1264F      2 000084C4 00000001     H   43764 43659B
 $$$1266F      2 00008552 00000001     H   43954 43777B
 $$$1268F      2 0000853E 00000001     H   43922 43909B
 $$$1269F      2 0000854E 00000001     H   43949 43936B
 $$$127B       1 000006B6 00000001     X    9137  9144U
 $$$1270F      2 0000856E 00000001     H   43985 43975B
 $$$1271F      2 00008596 00000001     H   44010 44000B
 $$$1272F      2 000085F0 00000001     H   44090 44027B
 $$$1273F      2 000085D2 00000001     H   44053 44043B
 $$$1274F      2 000085F0 00000001     H   44086 44067B
 $$$1275F      2 00008600 00000001     H   44112 44102B
 $$$1276F      2 0000864C 00000001     H   44233 44127B 44223B
 $$$1276S      2 00008600 00000001     H   44119 44232B
 $$$1279F      2 00008616 00000001     H   44160 44147B
 $$$128F       2 000006D2 00000001     H    9188  9175B
 $$$1280F      2 00008634 00000001     H   44196 44180B
 $$$1283F      2 0000870A 00000001     H   44504 44266B 44285B
 $$$1285B      4 00008682 00000001     I   44303 44430
1RJE      (RJE4072) (12:53) (15MAR04) Ordinary Symbol and Literal Cross Reference                                           Page  129
 $$$1285F      2 000086CA 00000001     H   44427 44303B 44429
 $$$1286F      2 0000869C 00000001     H   44334 44322B
 $$$1287F      2 000086B4 00000001     H   44366 44353B
 $$$1287S      2 000086A2 00000001     H   44345 44365B
 $$$1289F      2 000086BE 00000001     H   44385 44374B
 $$$129        1 00000050 00000001 A   U    9213  9210   9212
 $$$1290F      2 000086CA 00000001     H   44423 44399B
 $$$1291       6 000088F4 00000001     I   44413 44405X
 $$$1292       6 000088F4 00000001     I   44412 44413  44413
 $$$1293E      2 000086CE 00000001     H   44437 44431
 $$$1293F      2 0000870A 00000001     H   44500 44433B
 $$$1294F      2 0000870A 00000001     H   44496 44482B
 $$$1295       1 00000050 00000001 A   U   44522 44519  44521
 $$$1297B      1 00008914 00000001     X   44643 44650U
 $$$1300F      2 000089A6 00000001     H   44877 44727B
 $$$1301F      2 0000896A 00000001     H   44794 44784B
 $$$1302B      4 000089AA 00000001     I   44891 44949
 $$$1302F      2 000089D2 00000001     H   44945 44891B 44948
 $$$1303B      4 000089DA 00000001     I   44965 45023
 $$$1303E      2 000089D6 00000001     H   44956 44950
 $$$1303F      2 00008A02 00000001     H   45019 44952B 44965B 45022
 $$$1305E      2 00008A06 00000001     H   45030 45024
 $$$1305F      2 00008A32 00000001     H   45093 45026B 45039B
 $$$1307F      2 00008AC8 00000001     H   45308 45105B
 $$$1308F      2 00008AB6 00000001     H   45277 45175B
 $$$1309F      2 00008B5E 00000001     H   45523 45320B
 $$$131B       1 00000708 00000001     X    9245  9252U
 $$$1310F      2 00008B4C 00000001     H   45492 45390B
 $$$1311F      2 00008BA6 00000001     H   45636 45534B
 $$$1312F      2 00008BA6 00000001     H   45632 45552B
 $$$1313F      2 00008BE6 00000001     H   45729 45649B
 $$$1314F      2 00008C0E 00000001     H   45789 45742B
 $$$1315F      2 00008C42 00000001     H   45859 45805B
 $$$1316F      2 00008C6E 00000001     H   45924 45870B
 $$$1317F      2 00008C96 00000001     H   45984 45937B
 $$$1318F      2 00008CDE 00000001     H   46082 46002B
 $$$1319F      2 00008D1E 00000001     H   46175 46095B
 $$$132        1 00000050 00000001 A   U    9286  9283   9285
 $$$1320F      2 00008D5E 00000001     H   46268 46188B
 $$$1321F      2 00008D8A 00000001     H   46333 46279B
 $$$1322F      2 00008DB6 00000001     H   46398 46344B
 $$$1323F      2 00008DE2 00000001     H   46463 46409B
 $$$1324F      2 00008E0E 00000001     H   46528 46474B
 $$$1325F      2 00008E3A 00000001     H   46593 46539B
 $$$1326F      2 00008E62 00000001     H   46653 46606B
 $$$1327F      2 00008EA8 00000001     H   46752 46672B
 $$$1328F      2 00008FAA 00000001     H   47119 46765B
 $$$1329F      2 00008EEA 00000001     H   46847 46821B
 $$$1330F      2 00008F2A 00000001     H   46941 46887B
 $$$1331F      2 00008F58 00000001     H   47007 46953B
 $$$1332F      2 00008F86 00000001     H   47073 47019B
 $$$1333F      2 00008FA2 00000001     H   47111 47085B
 $$$1334F      2 00008FD6 00000001     H   47185 47131B
 $$$1335F      2 00009002 00000001     H   47250 47196B
 $$$1336F      2 00009042 00000001     H   47343 47263B
 $$$1337F      2 0000906A 00000001     H   47403 47356B
 $$$1338F      2 000090B4 00000001     H   47512 47419B
 $$$1339F      2 00009082 00000001     H   47443 47430B
 $$$134B       1 0000073E 00000001     X    9318  9325U
1RJE      (RJE4072) (12:53) (15MAR04) Ordinary Symbol and Literal Cross Reference                                           Page  130
 $$$1340F      2 000090F6 00000001     H   47617 47524B
 $$$1341F      2 000090C4 00000001     H   47548 47535B
 $$$1342F      2 00009132 00000001     H   47702 47629B
 $$$1343F      2 0000915A 00000001     H   47762 47715B
 $$$1344F      2 0000920A 00000001     H   48017 47776B
 $$$1345F      2 00009256 00000001     H   48140 48031B
 $$$1346B      4 00009222 00000001     I   48064 48094
 $$$1346F      2 00009238 00000001     H   48090 48064B 48093
 $$$1346T      2 00009226 00000001     H   48067 48052B
 $$$1348E      2 0000923C 00000001     H   48101 48095
 $$$1348F      2 00009256 00000001     H   48136 48097B 48110B
 $$$135B       4 00000758 00000001     I    9362  9392
 $$$135F       2 0000076E 00000001     H    9388  9362B  9391
 $$$135T       2 0000075C 00000001     H    9365  9353B
 $$$1350B      4 0000925A 00000001     I   48160 49151
 $$$1350F      2 00009506 00000001     H   49146 48160B 49150
 $$$1351F      2 000092B0 00000001     H   48276 48222B
 $$$1352F      2 00009302 00000001     H   48378 48307B
 $$$1353F      2 00009342 00000001     H   48462 48391B
 $$$1354B      4 0000935A 00000001     I   48494 48535
 $$$1354F      2 00009370 00000001     H   48531 48494B 48534
 $$$1355E      2 00009374 00000001     H   48542 48536
 $$$1355F      2 00009390 00000001     H   48591 48538B 48554B
 $$$1357F      2 000093F4 00000001     H   48722 48684B
 $$$1358F      2 00009456 00000001     H   48870 48860B
 $$$1359B      4 0000947C 00000001     I   48933 48962
 $$$1359F      2 00009492 00000001     H   48959 48933B 48961
 $$$1360E      2 00009496 00000001     H   48969 48963
 $$$1360F      2 000094A8 00000001     H   48992 48965B
 $$$1361B      4 000094C4 00000001     I   49025 49065
 $$$1361F      2 000094DA 00000001     H   49061 49025B 49064
 $$$1362E      2 000094DE 00000001     H   49072 49066
 $$$1362F      2 000094FA 00000001     H   49118 49068B 49082B
 $$$1364E      2 0000950A 00000001     H   49158 49152
 $$$1364F      2 00009544 00000001     H   49247 49154B 49168B
 $$$1366F      2 0000957E 00000001     H   49341 49264B
 $$$1367       1 00000050 00000001 A   U   49369 49366  49368
 $$$1369B      1 0000976C 00000001     X   49491 49498U
 $$$137E       2 00000772 00000001     H    9399  9393
 $$$137F       2 0000078E 00000001     H    9446  9395B
 $$$1370F      2 000097A4 00000001     H   49637 49549B
 $$$1371B      4 0000977E 00000001     I   49567 49584
 $$$1371F      2 00009788 00000001     H   49580 49567B 49583
 $$$1372B      4 00009790 00000001     I   49600 49616
 $$$1372E      2 0000978C 00000001     H   49591 49585
 $$$1372F      2 0000979A 00000001     H   49613 49587B 49600B 49615
 $$$1374E      2 0000979E 00000001     H   49623 49617
 $$$1374F      2 000097A4 00000001     H   49633 49619B
 $$$1375       1 00000050 00000001 A   U   49666 49663  49665
 $$$138        1 00000050 00000001 A   U    9464  9461   9463
 $$$1384F      2 00009A92 00000001     H   50944 49911B 50588B
 $$$1385B      1 000097CC 00000001     X   49842 49849U
 $$$1386F      2 000097E2 00000001     H   49915 49900B
 $$$1387F      2 0000980C 00000001     H   49964 49935B 49951B
 $$$1389F      2 00009846 00000001     H   49998 49989B
 $$$1390F      2 000099C2 00000001     H   50572 50058B 50166B 50245B
 $$$1390S      2 0000986C 00000001     H   50052 50477B 50490B 50571B
 $$$1392F      2 00009882 00000001     H   50084 50074B
 $$$1393F      2 0000988E 00000001     H   50105 50095B
1RJE      (RJE4072) (12:53) (15MAR04) Ordinary Symbol and Literal Cross Reference                                           Page  131
 $$$1394       6 0000A2E4 00000001     I   50121 50113X
 $$$1395       6 0000A2E4 00000001     I   50120 50121  50121
 $$$1396F      2 000098B0 00000001     H   50170 50134B
 $$$1397F      2 000098E0 00000001     H   50249 50213B
 $$$1399F      2 00009916 00000001     H   50336 50299B
 $$$1402F      2 000099A4 00000001     H   50535 50371B
 $$$1402S      2 0000991E 00000001     H   50365 50534B
 $$$1404F      2 00009988 00000001     H   50494 50387B
 $$$1405F      2 0000997A 00000001     H   50481 50411B
 $$$1408F      2 00009A02 00000001     H   50677 50612B
 $$$1409B      4 000099DC 00000001     I   50630 50644
 $$$1409F      2 000099EA 00000001     H   50640 50630B 50643
 $$$1410E      2 000099EE 00000001     H   50651 50645
 $$$1410F      2 00009A02 00000001     H   50673 50647B 50663B
 $$$1412F      2 00009A10 00000001     H   50704 50694B
 $$$1413F      2 00009A34 00000001     H   50756 50726B
 $$$1414F      2 00009A50 00000001     H   50803 50773B
 $$$1415F      2 00009A6C 00000001     H   50850 50820B
 $$$1416F      2 00009A88 00000001     H   50897 50867B
 $$$1417F      2 00009A92 00000001     H   50924 50908B
 $$$1418       1 0000044C 00000001 A   U   50953 50950  50952
 $$$1420B      1 00009CBA 00000001     X   51014 51021U
 $$$1421F      2 00009CEA 00000001     H   51155 51087B
 $$$1422F      2 00009CEA 00000001     H   51151 51102B
 $$$1423F      2 00009CEA 00000001     H   51147 51123B
 $$$1424       6 0000A2EA 00000001     I   51137 51129X
 $$$1425       6 0000A2EA 00000001     I   51136 51137  51137
 $$$1426       1 00000050 00000001 A   U   51188 51185  51187
 $$$1428B      1 00009DFE 00000001     X   51225 51232U
 $$$1429       1 00000050 00000001 A   U   51342 51339  51341
 $$$1431B      1 0000A056 00000001     X   51538 51545U
 $$$1432       1 00000050 00000001 A   U   51572 51569  51571
 $$$1434B      1 0000A082 00000001     X   51599 51606U
 $$$1435       1 00000050 00000001 A   U   51639 51636  51638
 $$$1437B      1 0000A0B2 00000001     X   51666 51673U
 $$$1438       1 00000050 00000001 A   U   51706 51703  51705
 $$$1440B      1 0000A0E2 00000001     X   51733 51740U
 $$$1441       1 00000050 00000001 A   U   51780 51777  51779
 $$$1443B      1 0000A10E 00000001     X   51807 51814U
 $$$1444       1 00000050 00000001 A   U   51846 51843  51845
 $$$1446B      1 0000A13A 00000001     X   51873 51880U
 $$$1447       1 00000050 00000001 A   U   51913 51910  51912
 $$$1449B      1 0000A166 00000001     X   51940 51947U
 $$$1450       1 00000050 00000001 A   U   51979 51976  51978
 $$$1452B      1 0000A192 00000001     X   52006 52013U
 $$$1453       1 00000050 00000001 A   U   52046 52043  52045
 $$$1455B      1 0000A1BE 00000001     X   52073 52080U
 $$$1456       1 00000050 00000001 A   U   52112 52109  52111
 $$$1458B      1 0000A1EA 00000001     X   52139 52146U
 $$$1459       1 00000050 00000001 A   U   52179 52176  52178
 $$$1461B      1 0000A216 00000001     X   52253 52260U
 $$$1462F      2 0000A28C 00000001     H   52439 52312B
 $$$1463F      2 0000A23C 00000001     H   52339 52329B
 $$$1464F      2 0000A280 00000001     H   52427 52361B
 $$$1464S      2 0000A24C 00000001     H   52354 52426B
 $$$1466F      2 0000A27C 00000001     H   52422 52398B
 $$$1467       6 0000A2F0 00000001     I   52412 52404X
 $$$1468       6 0000A2F0 00000001     I   52411 52412  52412
 $$$1469       1 00000054 00000001 A   U   52474 52471  52473
1RJE      (RJE4072) (12:53) (15MAR04) Ordinary Symbol and Literal Cross Reference                                           Page  132
 $$$153B       1 000008A4 00000001     X   10073 10080U
 $$$155B       4 00000938 00000001     I   10236 10401
 $$$155F       2 000009D6 00000001     H   10398 10236B 10400
 $$$156F       2 000009BC 00000001     H   10345 10332B
 $$$158F       2 000009D6 00000001     H   10394 10356B
 $$$159F       2 000009D6 00000001     H   10390 10372B
 $$$161E       2 000009DA 00000001     H   10408 10402
 $$$161F       2 00000A32 00000001     H   10450 10404B
 $$$162F       2 00000A60 00000001     H   10516 10467B 10504B
 $$$164F       2 00000A4E 00000001     H   10507 10487B
 $$$166        6 00000D88 00000001     I   10535 10527X
 $$$167        6 00000D88 00000001     I   10534 10535  10535
 $$$168F       2 00000AFC 00000001     H   10694 10639B
 $$$169F       2 00000B22 00000001     H   10757 10730B
 $$$171F       2 00000B3C 00000001     H   10788 10773B
 $$$173        1 00000694 00000001 A   U   10860 10857  10859
 $$$175B       1 00000CAA 00000001     X   11000 11007U
 $$$176        1 00000050 00000001 A   U   11039 11036  11038
 $$$178B       1 00000DA8 00000001     X   11126 11133U
 $$$180B       4 00000E20 00000001     I   11259 11311
 $$$180F       2 00000E82 00000001     H   11308 11259B 11310
 $$$181E       2 00000E86 00000001     H   11318 11312
 $$$181F       2 00000EDE 00000001     H   11360 11314B
 $$$182B       4 00000EE8 00000001     I   11377 11468
 $$$182F       2 00000F2A 00000001     H   11464 11377B 11467
 $$$183F       2 00000F0A 00000001     H   11421 11406B
 $$$185B       4 00000F32 00000001     I   11484 11502
 $$$185E       2 00000F2E 00000001     H   11475 11469
 $$$185F       2 00000F44 00000001     H   11499 11471B 11484B 11501
 $$$187E       2 00000F48 00000001     H   11509 11503
 $$$187F       2 00000F56 00000001     H   11521 11505B
 $$$188        1 00000694 00000001 A   U   11549 11546  11548
 $$$190B       1 00000F88 00000001     X   11604 11611U
 $$$191F       2 0000112E 00000001     H   11990 11934B
 $$$192        1 00000694 00000001 A   U   12075 12072  12074
 $$$194B       1 0000143A 00000001     X   12359 12366U
 $$$195F       2 00001448 00000001     H   12398 12385B
 $$$196        1 00000050 00000001 A   U   12422 12419  12421
 $$$198B       1 00001474 00000001     X   12449 12456U
 $$$199F       2 00001486 00000001     H   12494 12481B
 $$$200        1 00000050 00000001 A   U   12512 12509  12511
 $$$202B       1 000014AE 00000001     X   12551 12558U
 $$$203F       2 000014C0 00000001     H   12598 12588B
 $$$205F       2 00001592 00000001     H   12876 12613B 12661B
 $$$208F       2 0000154C 00000001     H   12790 12678B
 $$$210F       2 0000155C 00000001     H   12813 12803B
 $$$211F       2 0000156C 00000001     H   12835 12825B
 $$$212F       2 00001582 00000001     H   12857 12847B
 $$$213F       2 000015A2 00000001     H   12899 12889B
 $$$214F       2 000015B2 00000001     H   12921 12911B
 $$$215F       2 000015C2 00000001     H   12943 12933B
 $$$216F       2 000015D2 00000001     H   12965 12955B
 $$$217        1 00000050 00000001 A   U   12983 12980  12982
 $$$219B       1 000015FA 00000001     X   13022 13029U
 $$$220F       2 0000163A 00000001     H   13110 13071B
 $$$222B       4 00001640 00000001     I   13122 13164
 $$$222F       2 00001660 00000001     H   13161 13122B 13163
 $$$223E       2 00001664 00000001     H   13171 13165
 $$$223F       2 000016E0 00000001     H   13396 13167B
1RJE      (RJE4072) (12:53) (15MAR04) Ordinary Symbol and Literal Cross Reference                                           Page  133
 $$$224F       2 00001670 00000001     H   13195 13182B
 $$$225F       2 000016A8 00000001     H   13281 13207B 13265B
 $$$227F       2 0000168C 00000001     H   13250 13222B
 $$$228F       2 0000168C 00000001     H   13246 13237B
 $$$230F       2 000016C6 00000001     H   13342 13301B 13314B
 $$$232F       2 000016C6 00000001     H   13338 13329B
 $$$233        1 00000050 00000001 A   U   13414 13411  13413
 $$$235B       1 00001894 00000001     X   13527 13534U
 $$$236F       2 00001904 00000001     H   13672 13644B
 $$$238F       2 00001912 00000001     H   13701 13686B
 $$$239F       2 00001920 00000001     H   13730 13715B
 $$$241B       4 00001938 00000001     I   13765 13817
 $$$241F       2 0000199A 00000001     H   13814 13765B 13816
 $$$242E       2 0000199E 00000001     H   13824 13818
 $$$242F       2 000019F6 00000001     H   13866 13820B
 $$$243F       2 00001A1A 00000001     H   13928 13905B
 $$$243T       2 00001A0E 00000001     H   13908 13883B 13895B
 $$$246B       4 00001A1E 00000001     I   13940 14031
 $$$246F       2 00001A60 00000001     H   14027 13940B 14030
 $$$247F       2 00001A40 00000001     H   13984 13969B
 $$$249B       4 00001A68 00000001     I   14047 14065
 $$$249E       2 00001A64 00000001     H   14038 14032
 $$$249F       2 00001A7A 00000001     H   14062 14034B 14047B 14064
 $$$251E       2 00001A7E 00000001     H   14072 14066
 $$$251F       2 00001A8C 00000001     H   14084 14068B
 $$$252        1 00000694 00000001 A   U   14112 14109  14111
 $$$254B       1 00001B3C 00000001     X   14206 14213U
 $$$255F       2 00001BD4 00000001     H   14371 14356B
 $$$256F       2 00001BE0 00000001     H   14400 14385B
 $$$257F       2 00001C00 00000001     H   14477 14435B
 $$$257T       2 00001BF0 00000001     H   14438 14423B
 $$$259F       2 00001C00 00000001     H   14473 14458B
 $$$260F       2 00001C0C 00000001     H   14506 14491B
 $$$261F       2 00001C7E 00000001     H   14603 14549B
 $$$264F       2 00001CA0 00000001     H   14658 14648B
 $$$265F       2 00001CB0 00000001     H   14682 14669B
 $$$266F       2 00001CD8 00000001     H   14731 14697B
 $$$267        1 00000694 00000001 A   U   14762 14759  14761
 $$$269B       1 00001D06 00000001     X   14810 14817U
 $$$270F       2 00001D60 00000001     H   14912 14899B
 $$$271F       2 00001D8C 00000001     H   14987 14961B
 $$$271T       2 00001D7A 00000001     H   14964 14951B
 $$$273F       2 00001DA6 00000001     H   15024 14999B
 $$$274F       2 00001F1A 00000001     H   15569 15070B 15087B 15107B
 $$$277F       2 00001DF4 00000001     H   15151 15123B
 $$$278F       2 00001E1A 00000001     H   15222 15189B
 $$$279F       2 00001E34 00000001     H   15272 15234B
 $$$281F       2 00001EFC 00000001     H   15521 15285B
 $$$282F       2 00001EEA 00000001     H   15499 15429B
 $$$283        1 00000050 00000001 A   U   15588 15585  15587
 $$$285B       1 00001F42 00000001     X   15636 15643U
 $$$286F       2 00001F50 00000001     H   15679 15669B
 $$$287F       2 00001F5C 00000001     H   15700 15690B
 $$$288F       2 00001F68 00000001     H   15723 15713B
 $$$289F       2 00001F84 00000001     H   15765 15737B 15750B
 $$$292F       2 00001F9E 00000001     H   15803 15780B 15793B
 $$$294F       2 00001FB8 00000001     H   15841 15818B 15831B
 $$$296F       2 00001FC8 00000001     H   15872 15853B
 $$$297F       2 00002020 00000001     H   16026 15884B
1RJE      (RJE4072) (12:53) (15MAR04) Ordinary Symbol and Literal Cross Reference                                           Page  134
 $$$298F       2 00001FDC 00000001     H   15916 15900B
 $$$301F       2 00001FEC 00000001     H   15937 15928B
 $$$302F       2 00001FF8 00000001     H   15959 15949B
 $$$303F       2 00002020 00000001     H   16022 15970B
 $$$304F       2 00002010 00000001     H   15996 15986B
 $$$305F       2 00002020 00000001     H   16018 16008B
 $$$306F       2 000020FE 00000001     H   16303 16039B 16087B
 $$$309F       2 000020AC 00000001     H   16216 16104B
 $$$311F       2 000020C8 00000001     H   16240 16230B
 $$$312F       2 000020D8 00000001     H   16262 16252B
 $$$313F       2 000020EE 00000001     H   16284 16274B
 $$$314F       2 0000213C 00000001     H   16393 16315B
 $$$315F       2 0000211C 00000001     H   16346 16331B
 $$$316F       2 0000212C 00000001     H   16368 16359B
 $$$317F       2 0000213C 00000001     H   16389 16380B
 $$$318F       2 0000214C 00000001     H   16416 16406B
 $$$319F       2 0000215C 00000001     H   16438 16428B
 $$$320F       2 0000216C 00000001     H   16460 16450B
 $$$321F       2 000021FC 00000001     H   16656 16475B
 $$$322B       4 0000217C 00000001     I   16491 16505
 $$$322F       2 00002186 00000001     H   16501 16491B 16504
 $$$323B       4 0000218E 00000001     I   16521 16533
 $$$323E       2 0000218A 00000001     H   16512 16506
 $$$323F       2 00002198 00000001     H   16530 16508B 16521B 16532
 $$$325E       2 0000219C 00000001     H   16540 16534
 $$$325F       2 000021FC 00000001     H   16652 16536B
 $$$326F       2 000021B0 00000001     H   16563 16553B
 $$$327F       2 000021BE 00000001     H   16585 16575B
 $$$328F       2 000021D8 00000001     H   16623 16600B 16613B
 $$$330F       2 000021FC 00000001     H   16648 16635B
 $$$331F       2 00002208 00000001     H   16684 16670B
 $$$332        1 00000050 00000001 A   U   16703 16700  16702
 $$$334B       1 0000237E 00000001     X   16813 16820U
 $$$335F       2 000025E6 00000001     H   17555 16864B
 $$$336F       2 000023BC 00000001     H   16911 16885B 16898B
 $$$336S       2 000023A4 00000001     H   16877 16910B
 $$$339F       2 00002460 00000001     H   17048 16926B
 $$$340F       2 000023FA 00000001     H   16986 16976B
 $$$342F       2 0000245C 00000001     H   17043 17033B
 $$$343F       2 00002590 00000001     H   17377 17062B
 $$$344F       2 00002486 00000001     H   17112 17080B 17093B
 $$$348F       2 00002568 00000001     H   17298 17179B
 $$$349F       2 00002506 00000001     H   17237 17227B
 $$$351F       2 00002568 00000001     H   17294 17284B
 $$$352F       2 00002590 00000001     H   17373 17318B
 $$$357F       2 00002590 00000001     H   17369 17346B 17360B
 $$$359F       2 000025E2 00000001     H   17544 17396B
 $$$360F       2 000025B2 00000001     H   17442 17413B 17426B
 $$$362F       2 000025C6 00000001     H   17484 17455B 17468B
 $$$364F       2 000025E2 00000001     H   17540 17497B 17525B
 $$$364T       2 000025DE 00000001     H   17528 17514B
 $$$367F       2 0000260E 00000001     H   17633 17571B 17584B
 $$$369F       2 00002606 00000001     H   17626 17601B
 $$$371F       2 00002626 00000001     H   17677 17649B
 $$$372F       2 00002644 00000001     H   17711 17698B
 $$$373F       2 000027D6 00000001     H   18385 17739B
 $$$373T       2 00002654 00000001     H   17742 17729B
 $$$375F       2 00002668 00000001     H   17780 17770B
 $$$376F       2 00002686 00000001     H   17847 17814B
1RJE      (RJE4072) (12:53) (15MAR04) Ordinary Symbol and Literal Cross Reference                                           Page  135
 $$$377F       2 000026BE 00000001     H   17933 17859B 17917B
 $$$379F       2 000026A2 00000001     H   17902 17874B
 $$$380F       2 000026A2 00000001     H   17898 17889B
 $$$382F       2 000026E8 00000001     H   17987 17948B 17961B
 $$$384F       2 00002766 00000001     H   18216 18001B 18013B
 $$$386F       2 00002766 00000001     H   18212 18030B
 $$$386S       2 000026F6 00000001     H   18023 18211B
 $$$388F       2 00002726 00000001     H   18101 18091B
 $$$389F       2 00002744 00000001     H   18168 18135B
 $$$390F       2 00002762 00000001     H   18207 18181B
 $$$391F       2 00002780 00000001     H   18249 18230B
 $$$392F       2 000027D2 00000001     H   18380 18325B
 $$$394F       2 000027D2 00000001     H   18376 18349B 18363B
 $$$396F       2 00002826 00000001     H   18564 18397B 18415B 18434B 18453B 18487B 18508B 18521B
 $$$400F       2 00002806 00000001     H   18490 18472B
 $$$406F       2 0000283E 00000001     H   18592 18581B
 $$$407F       2 0000284C 00000001     H   18613 18603B
 $$$408F       2 000028E2 00000001     H   18911 18625B
 $$$409B       4 00002858 00000001     I   18640 18776
 $$$409F       2 0000289E 00000001     H   18773 18640B 18775
 $$$410F       2 0000286E 00000001     H   18674 18661B
 $$$411F       2 0000287E 00000001     H   18700 18687B
 $$$412F       2 0000288E 00000001     H   18726 18713B
 $$$413F       2 0000289E 00000001     H   18769 18736B
 $$$414E       2 000028A2 00000001     H   18783 18777
 $$$414F       2 000028DE 00000001     H   18900 18779B
 $$$415B       4 000028A6 00000001     I   18797 18810
 $$$415F       2 000028B0 00000001     H   18807 18797B 18809
 $$$416E       2 000028B4 00000001     H   18817 18811
 $$$416F       2 000028DE 00000001     H   18896 18813B
 $$$417F       2 000028D2 00000001     H   18869 18859B
 $$$418F       2 000028DE 00000001     H   18892 18882B
 $$$419F       2 0000290A 00000001     H   18993 18925B 18942B 18962B
 $$$422F       2 0000290A 00000001     H   18989 18979B
 $$$423F       2 0000291A 00000001     H   19016 19006B
 $$$424F       2 00002950 00000001     H   19117 19059B
 $$$425F       2 00002950 00000001     H   19113 19075B 19088B
 $$$427F       2 00002962 00000001     H   19161 19136B
 $$$429F       2 0000298E 00000001     H   19233 19175B
 $$$431F       2 000029DA 00000001     H   19358 19283B
 $$$431T       2 000029A8 00000001     H   19286 19272B
 $$$435F       2 000029C2 00000001     H   19325 19310B
 $$$436F       2 000029D4 00000001     H   19350 19336B
 $$$437F       2 00002A30 00000001     H   19496 19373B
 $$$438F       2 000029FA 00000001     H   19400 19390B
 $$$439F       2 00002A24 00000001     H   19471 19414B
 $$$439S       2 000029FC 00000001     H   19408 19470B
 $$$441F       2 00002A1A 00000001     H   19463 19453B
 $$$442F       2 00002A30 00000001     H   19492 19482B
 $$$443F       2 00002A60 00000001     H   19567 19540B 19554B
 $$$445        1 00000050 00000001 A   U   19587 19584  19586
 $$$447B       1 00002A88 00000001     X   19637 19644U
 $$$448F       2 00002ACA 00000001     H   19740 19713B
 $$$449        1 00000050 00000001 A   U   19806 19803  19805
 $$$451B       1 00002B1C 00000001     X   19843 19850U
 $$$452        1 00000050 00000001 A   U   19978 19975  19977
 $$$454B       1 00002B9E 00000001     X   20007 20014U
 $$$455        1 00000050 00000001 A   U   20142 20139  20141
 $$$457B       1 00002D36 00000001     X   20278 20285U
1RJE      (RJE4072) (12:53) (15MAR04) Ordinary Symbol and Literal Cross Reference                                           Page  136
 $$$460        6 00002ED8 00000001     I   20350 20342X
 $$$461        6 00002ED8 00000001     I   20349 20350  20350
 $$$462B       4 00002D6A 00000001     I   20382 20396
 $$$462F       2 00002D70 00000001     H   20393 20382B 20395
 $$$463E       2 00002D74 00000001     H   20403 20397
 $$$463F       2 00002D8E 00000001     H   20450 20399B
 $$$464F       2 00002D8A 00000001     H   20445 20416B
 $$$465F       2 00002D8A 00000001     H   20441 20431B
 $$$466F       2 00002DCE 00000001     H   20504 20473B
 $$$467F       2 00002DCE 00000001     H   20500 20490B
 $$$468F       2 00002EA6 00000001     H   20793 20520B
 $$$469F       2 00002E0A 00000001     H   20549 20538B
 $$$470F       2 00002E1C 00000001     H   20571 20560B
 $$$471F       2 00002E84 00000001     H   20737 20614B
 $$$472F       2 00002E4E 00000001     H   20641 20631B
 $$$473F       2 00002E78 00000001     H   20712 20655B
 $$$473S       2 00002E50 00000001     H   20649 20711B
 $$$475F       2 00002E6E 00000001     H   20704 20694B
 $$$476F       2 00002E84 00000001     H   20733 20723B
 $$$477        1 00000244 00000001 A   U   20856 20853  20855
 $$$479B       1 00002FF8 00000001     X   20933 20940U
 $$$480F       2 00003082 00000001     H   21155 20974B
 $$$480S       2 00002FFE 00000001     H   20968 21154B
 $$$482F       2 00003024 00000001     H   21019 21010B
 $$$483F       2 00003032 00000001     H   21044 21031B
 $$$484F       2 0000306C 00000001     H   21124 21059B
 $$$485        1 00000058 00000001 A   U   21202 21199  21201
 $$$487B       1 000030B6 00000001     X   21237 21244U
 $$$488        1 00000050 00000001 A   U   21314 21311  21313
 $$$490B       1 0000371A 00000001     X   21929 21936U
 $$$491F       2 00003752 00000001     H   22016 21971B
 $$$491T       2 0000372A 00000001     H   21974 21960B
 $$$493F       2 00003770 00000001     H   22055 22028B
 $$$494        1 00000050 00000001 A   U   22077 22074  22076
 $$$496B       1 0000379E 00000001     X   22104 22111U
 $$$497F       2 000037E0 00000001     H   22236 22145B
 $$$497T       2 000037B0 00000001     H   22148 22134B
 $$$499F       2 000037C6 00000001     H   22174 22161B
 $$$500F       2 000037D2 00000001     H   22193 22184B
 $$$501F       2 000037E0 00000001     H   22232 22208B
 $$$502        6 00003E52 00000001     I   22222 22214X
 $$$503        6 00003E52 00000001     I   22221 22222  22222
 $$$504        1 00000050 00000001 A   U   22258 22255  22257
 $$$506B       1 0000380A 00000001     X   22285 22292U
 $$$507F       2 0000384C 00000001     H   22417 22326B
 $$$507T       2 0000381C 00000001     H   22329 22315B
 $$$509F       2 00003832 00000001     H   22355 22342B
 $$$510F       2 0000383E 00000001     H   22374 22365B
 $$$511F       2 0000384C 00000001     H   22413 22389B
 $$$512        6 00003E58 00000001     I   22403 22395X
 $$$513        6 00003E58 00000001     I   22402 22403  22403
 $$$514        1 00000050 00000001 A   U   22439 22436  22438
 $$$516B       1 00003876 00000001     X   22466 22473U
 $$$517F       2 0000389A 00000001     H   22536 22507B
 $$$517T       2 00003888 00000001     H   22510 22496B
 $$$519        1 00000050 00000001 A   U   22558 22555  22557
 $$$521B       1 000038C4 00000001     X   22585 22592U
 $$$522F       2 000038E8 00000001     H   22655 22626B
 $$$522T       2 000038D6 00000001     H   22629 22615B
1RJE      (RJE4072) (12:53) (15MAR04) Ordinary Symbol and Literal Cross Reference                                           Page  137
 $$$524        1 00000050 00000001 A   U   22677 22674  22676
 $$$526B       1 00003912 00000001     X   22704 22711U
 $$$527F       2 00003936 00000001     H   22774 22745B
 $$$527T       2 00003924 00000001     H   22748 22734B
 $$$529        1 00000050 00000001 A   U   22796 22793  22795
 $$$531B       1 00003960 00000001     X   22823 22830U
 $$$532F       2 000039A4 00000001     H   22964 22864B
 $$$532T       2 00003970 00000001     H   22867 22853B
 $$$534B       4 00003984 00000001     I   22912 22944
 $$$534F       2 0000399A 00000001     H   22941 22912B 22943
 $$$534T       2 00003988 00000001     H   22915 22900B
 $$$535F       2 00003980 00000001     H   22903 22884B
 $$$537E       2 0000399E 00000001     H   22951 22945
 $$$537F       2 000039A4 00000001     H   22960 22947B
 $$$538        1 00000050 00000001 A   U   22986 22983  22985
 $$$540B       1 000039CE 00000001     X   23013 23020U
 $$$541        1 00000050 00000001 A   U   23052 23049  23051
 $$$543B       1 000039FA 00000001     X   23079 23086U
 $$$544        1 00000050 00000001 A   U   23118 23115  23117
 $$$546B       1 00003A26 00000001     X   23145 23152U
 $$$547F       2 00003A56 00000001     H   23244 23189B
 $$$547T       2 00003A3E 00000001     H   23192 23179B
 $$$549F       2 00003A56 00000001     H   23240 23222B
 $$$550        1 00000050 00000001 A   U   23266 23263  23265
 $$$552B       1 00003A80 00000001     X   23293 23300U
 $$$553F       2 00003A98 00000001     H   23357 23333B
 $$$553T       2 00003A90 00000001     H   23336 23323B
 $$$555        1 00000050 00000001 A   U   23379 23376  23378
 $$$557B       1 00003AC2 00000001     X   23406 23413U
 $$$558F       2 00003AEE 00000001     H   23504 23455B
 $$$558T       2 00003ADA 00000001     H   23458 23440B
 $$$560F       2 00003AEE 00000001     H   23500 23482B
 $$$561        1 00000050 00000001 A   U   23526 23523  23525
 $$$563B       1 00003B18 00000001     X   23553 23560U
 $$$564        1 00000050 00000001 A   U   23592 23589  23591
 $$$566B       1 00003B44 00000001     X   23619 23626U
 $$$567        1 00000050 00000001 A   U   23659 23656  23658
 $$$569B       1 00003B70 00000001     X   23686 23693U
 $$$570        1 00000050 00000001 A   U   23725 23722  23724
 $$$572B       1 00003B9C 00000001     X   23752 23759U
 $$$573        1 00000050 00000001 A   U   23792 23789  23791
 $$$575B       1 00003BC8 00000001     X   23819 23826U
 $$$576        1 00000050 00000001 A   U   23864 23861  23863
 $$$578B       1 00003BF8 00000001     X   23891 23898U
 $$$579        1 00000050 00000001 A   U   23930 23927  23929
 $$$581B       1 00003C24 00000001     X   23957 23964U
 $$$582B       4 00003C7E 00000001     I   24018 24085
 $$$582F       2 00003CB8 00000001     H   24082 24018B 24084
 $$$583F       2 00003CB0 00000001     H   24069 24037B
 $$$584F       2 00003CB0 00000001     H   24065 24052B
 $$$585E       2 00003CBC 00000001     H   24092 24086
 $$$585F       2 00003CD2 00000001     H   24133 24088B
 $$$586F       2 00003CD2 00000001     H   24129 24119B
 $$$586T       2 00003CCE 00000001     H   24122 24108B
 $$$588        1 00000050 00000001 A   U   24155 24152  24154
 $$$590B       1 00003D4E 00000001     X   24213 24220U
 $$$591        1 00000050 00000001 A   U   24250 24247  24249
 $$$593B       1 00003D80 00000001     X   24277 24284U
 $$$594        1 00000050 00000001 A   U   24311 24308  24310
1RJE      (RJE4072) (12:53) (15MAR04) Ordinary Symbol and Literal Cross Reference                                           Page  138
 $$$596B       1 00003E78 00000001     X   24379 24386U
 $$$597F       2 00003EA8 00000001     H   24458 24431B
 $$$598F       2 00003EC0 00000001     H   24487 24474B
 $$$599F       2 00003EF8 00000001     H   24578 24523B
 $$$600B       4 00003EFC 00000001     I   24589 24750
 $$$600F       2 00003F6E 00000001     H   24746 24589B 24749
 $$$601F       2 00003F5C 00000001     H   24718 24666B
 $$$602E       2 00003F72 00000001     H   24757 24751
 $$$602F       2 00003F8C 00000001     H   24793 24753B 24766B
 $$$604B       4 00003F90 00000001     I   24804 24835
 $$$604F       2 00003FA6 00000001     H   24831 24804B 24834
 $$$605E       2 00003FAA 00000001     H   24842 24836
 $$$605F       2 00003FC4 00000001     H   24878 24838B 24851B
 $$$607F       2 00003FE8 00000001     H   24935 24889B 24908B
 $$$609F       2 00004016 00000001     H   25000 24947B
 $$$610B       4 0000401A 00000001     I   25011 25507
 $$$610F       2 0000415E 00000001     H   25504 25011B 25506
 $$$611F       2 00004036 00000001     H   25043 25030B
 $$$612F       2 0000406E 00000001     H   25134 25080B
 $$$613F       2 0000409A 00000001     H   25200 25147B
 $$$614B       4 0000409E 00000001     I   25211 25356
 $$$614F       2 000040FE 00000001     H   25353 25211B 25355
 $$$615F       2 000040D0 00000001     H   25282 25228B
 $$$616F       2 000040FE 00000001     H   25349 25295B
 $$$617E       2 00004102 00000001     H   25363 25357
 $$$617F       2 0000415E 00000001     H   25500 25359B
 $$$618F       2 00004130 00000001     H   25430 25376B
 $$$619F       2 0000415E 00000001     H   25496 25442B
 $$$620E       2 00004162 00000001     H   25514 25508
 $$$620F       2 0000425C 00000001     H   25907 25510B
 $$$621F       2 00004190 00000001     H   25581 25527B
 $$$622F       2 00004200 00000001     H   25771 25593B 25612B
 $$$624B       4 000041A4 00000001     I   25630 25661
 $$$624F       2 000041BA 00000001     H   25657 25630B 25660
 $$$625B       4 000041C2 00000001     I   25679 25709
 $$$625E       2 000041BE 00000001     H   25668 25662
 $$$625F       2 000041D8 00000001     H   25706 25664B 25679B 25708
 $$$627E       2 000041DC 00000001     H   25716 25710
 $$$627F       2 00004200 00000001     H   25767 25712B
 $$$628F       2 0000422E 00000001     H   25837 25783B
 $$$629F       2 0000425C 00000001     H   25903 25849B
 $$$630F       2 000042CA 00000001     H   26078 25920B
 $$$631B       4 0000426C 00000001     I   25937 25968
 $$$631F       2 00004282 00000001     H   25964 25937B 25967
 $$$632B       4 0000428C 00000001     I   25986 26016
 $$$632E       2 00004286 00000001     H   25975 25969
 $$$632F       2 000042A2 00000001     H   26013 25971B 25986B 26015
 $$$634E       2 000042A6 00000001     H   26023 26017
 $$$634F       2 000042CA 00000001     H   26074 26019B
 $$$635F       2 000042EC 00000001     H   26132 26092B 26105B
 $$$638F       2 00004370 00000001     H   26354 26144B
 $$$640B       4 000042F8 00000001     I   26160 26210
 $$$640F       2 00004316 00000001     H   26206 26160B 26209
 $$$642F       2 00004316 00000001     H   26202 26175B
 $$$643B       4 0000431E 00000001     I   26227 26258
 $$$643E       2 0000431A 00000001     H   26217 26211
 $$$643F       2 00004334 00000001     H   26254 26213B 26227B 26257
 $$$646B       4 0000433C 00000001     I   26275 26306
 $$$646E       2 00004338 00000001     H   26265 26259
1RJE      (RJE4072) (12:53) (15MAR04) Ordinary Symbol and Literal Cross Reference                                           Page  139
 $$$646F       2 00004352 00000001     H   26302 26261B 26275B 26305
 $$$649E       2 00004356 00000001     H   26313 26307
 $$$649F       2 00004370 00000001     H   26350 26309B 26323B
 $$$65B        1 00000030 00000001     X    7264  7271U
 $$$652F       2 0000438A 00000001     H   26392 26365B
 $$$653F       2 000043A4 00000001     H   26430 26403B
 $$$654F       2 000043BE 00000001     H   26468 26441B
 $$$655F       2 000043E2 00000001     H   26520 26481B 26494B
 $$$657F       2 000044DE 00000001     H   26884 26533B
 $$$658F       2 0000441A 00000001     H   26592 26566B
 $$$659F       2 0000445A 00000001     H   26686 26632B
 $$$66B        4 00000048 00000001     I    7321  7413
 $$$66F        2 00000082 00000001     H    7410  7321B  7412
 $$$660F       2 00004488 00000001     H   26752 26698B
 $$$661F       2 000044B6 00000001     H   26818 26764B
 $$$662F       2 000044D2 00000001     H   26856 26830B
 $$$663F       2 000044F8 00000001     H   26922 26895B
 $$$664F       2 00004512 00000001     H   26960 26933B
 $$$665F       2 0000452C 00000001     H   26998 26971B
 $$$666F       2 00004546 00000001     H   27036 27009B
 $$$667F       2 00004560 00000001     H   27074 27047B
 $$$668F       2 0000458E 00000001     H   27140 27086B
 $$$669F       2 000045BA 00000001     H   27206 27152B
 $$$67F        2 0000006C 00000001     H    7387  7340B  7355B
 $$$670F       2 000045D4 00000001     H   27244 27217B
 $$$671F       2 000045EE 00000001     H   27282 27255B
 $$$672F       2 00004626 00000001     H   27366 27296B
 $$$673F       2 00004642 00000001     H   27406 27380B
 $$$674F       2 0000467A 00000001     H   27490 27420B
 $$$675F       2 000046CA 00000001     H   27622 27502B
 $$$676B       4 00004684 00000001     I   27513 27587
 $$$676F       2 000046B4 00000001     H   27584 27513B 27586
 $$$677E       2 000046B8 00000001     H   27594 27588
 $$$677F       2 000046CA 00000001     H   27618 27590B
 $$$678F       2 00004700 00000001     H   27704 27634B
 $$$679F       2 00004736 00000001     H   27786 27716B
 $$$680        1 00000050 00000001 A   U   27838 27835  27837
 $$$682B       1 0000491A 00000001     X   27981 27988U
 $$$683        1 00000050 00000001 A   U   28021 28018  28020
 $$$685B       1 0000532A 00000001     X   28998 29005U
 $$$686F       2 00005338 00000001     H   29039 29026B
 $$$687F       2 00005358 00000001     H   29079 29069B
 $$$687T       2 00005352 00000001     H   29072 29058B
 $$$689F       2 0000537E 00000001     H   29130 29090B
 $$$69E        2 00000086 00000001     H    7420  7414
 $$$69F        2 00000094 00000001     H    7449  7416B
 $$$690        1 00000050 00000001 A   U   29152 29149  29151
 $$$692B       1 000053A8 00000001     X   29179 29186U
 $$$693F       2 000053B6 00000001     H   29220 29207B
 $$$694F       2 000053D6 00000001     H   29260 29250B
 $$$694T       2 000053D0 00000001     H   29253 29239B
 $$$696F       2 000053FC 00000001     H   29311 29271B
 $$$697        1 00000050 00000001 A   U   29333 29330  29332
 $$$699B       1 00005426 00000001     X   29379 29386U
 $$$70F        2 00000094 00000001     H    7445  7432B
 $$$700F       2 00005442 00000001     H   29428 29415B
 $$$701B       4 00005448 00000001     I   29442 29458
 $$$701F       2 00005452 00000001     H   29455 29442B 29457
 $$$702E       2 00005456 00000001     H   29465 29459
1RJE      (RJE4072) (12:53) (15MAR04) Ordinary Symbol and Literal Cross Reference                                           Page  140
 $$$702F       2 0000545C 00000001     H   29475 29461B
 $$$703F       2 0000547C 00000001     H   29522 29482B
 $$$704F       2 000054A2 00000001     H   29596 29548B
 $$$704T       2 0000548E 00000001     H   29551 29537B
 $$$706F       2 000054A2 00000001     H   29592 29568B
 $$$707        6 0000580A 00000001     I   29582 29574X
 $$$708        6 0000580A 00000001     I   29581 29582  29582
 $$$709        1 00000050 00000001 A   U   29618 29615  29617
 $$$711B       1 000054CC 00000001     X   29645 29652U
 $$$712F       2 00005564 00000001     H   29779 29705B
 $$$713F       2 0000555C 00000001     H   29766 29734B
 $$$714F       2 0000555C 00000001     H   29762 29749B
 $$$715        1 00000050 00000001 A   U   29801 29798  29800
 $$$717B       1 0000562E 00000001     X   29889 29896U
 $$$718        1 00000050 00000001 A   U   29933 29930  29932
 $$$720B       1 00005662 00000001     X   29960 29967U
 $$$721        1 00000050 00000001 A   U   30004 30001  30003
 $$$723B       1 00005696 00000001     X   30031 30038U
 $$$724        1 00000050 00000001 A   U   30081 30078  30080
 $$$726B       1 000056CA 00000001     X   30108 30115U
 $$$727        1 00000050 00000001 A   U   30142 30139  30141
 $$$729B       1 000056F6 00000001     X   30169 30176U
 $$$73F        2 00000130 00000001     H    7661  7555B  7572B
 $$$730        1 00000050 00000001 A   U   30215 30212  30214
 $$$732B       1 00005726 00000001     X   30242 30249U
 $$$733        1 00000050 00000001 A   U   30285 30282  30284
 $$$735B       1 00005756 00000001     X   30312 30319U
 $$$736        1 00000050 00000001 A   U   30358 30355  30357
 $$$738B       1 0000582A 00000001     X   30417 30424U
 $$$739F       2 0000591C 00000001     H   30677 30457B
 $$$739T       2 0000583A 00000001     H   30460 30447B
 $$$741F       2 00005858 00000001     H   30503 30487B
 $$$742F       2 000058E6 00000001     H   30616 30547B
 $$$743F       2 000058CE 00000001     H   30589 30578B
 $$$743T       2 000058BE 00000001     H   30581 30567B
 $$$745F       2 000058E6 00000001     H   30612 30601B
 $$$746F       2 00005914 00000001     H   30664 30632B
 $$$747F       2 00005914 00000001     H   30660 30647B
 $$$748        1 00000050 00000001 A   U   30701 30698  30700
 $$$75F        2 0000011E 00000001     H    7639  7592B  7607B
 $$$750B       1 00005946 00000001     X   30728 30735U
 $$$751F       2 00005964 00000001     H   30773 30760B
 $$$752        1 00000050 00000001 A   U   30795 30792  30794
 $$$754B       1 0000598E 00000001     X   30822 30829U
 $$$755F       2 000059A4 00000001     H   30873 30863B
 $$$755T       2 000059A0 00000001     H   30866 30852B
 $$$757        1 00000050 00000001 A   U   30891 30888  30890
 $$$759B       1 000059CC 00000001     X   30918 30925U
 $$$760F       2 000059E6 00000001     H   30975 30965B
 $$$760T       2 000059E2 00000001     H   30968 30954B
 $$$762        1 00000050 00000001 A   U   30993 30990  30992
 $$$764B       1 00005A0E 00000001     X   31020 31027U
 $$$765F       2 00005A24 00000001     H   31071 31061B
 $$$765T       2 00005A20 00000001     H   31064 31050B
 $$$767        1 00000050 00000001 A   U   31089 31086  31088
 $$$769B       1 00005A4C 00000001     X   31116 31123U
 $$$77F        2 00000164 00000001     H    7727  7681B
 $$$77S        2 0000013A 00000001     H    7675  7726B
 $$$770F       2 00005A66 00000001     H   31173 31163B
1RJE      (RJE4072) (12:53) (15MAR04) Ordinary Symbol and Literal Cross Reference                                           Page  141
 $$$770T       2 00005A62 00000001     H   31166 31152B
 $$$772        1 00000050 00000001 A   U   31191 31188  31190
 $$$774B       1 00005A8E 00000001     X   31218 31225U
 $$$775F       2 00005A96 00000001     H   31254 31243B
 $$$776F       2 00005AAC 00000001     H   31290 31280B
 $$$776T       2 00005AA8 00000001     H   31283 31269B
 $$$778        1 00000050 00000001 A   U   31308 31305  31307
 $$$780B       1 00005AD4 00000001     X   31335 31342U
 $$$781F       2 00005AEE 00000001     H   31392 31382B
 $$$781T       2 00005AEA 00000001     H   31385 31371B
 $$$783        1 00000050 00000001 A   U   31410 31407  31409
 $$$785B       1 00005B16 00000001     X   31437 31444U
 $$$786F       2 00005B1E 00000001     H   31473 31462B
 $$$787F       2 00005B34 00000001     H   31509 31499B
 $$$787T       2 00005B30 00000001     H   31502 31488B
 $$$789        1 00000050 00000001 A   U   31527 31524  31526
 $$$79         1 000001D4 00000001 A   U    7752  7749   7751
 $$$791B       1 00005B74 00000001     X   31572 31579U
 $$$792F       2 00005B82 00000001     H   31613 31600B
 $$$793F       2 00005BA2 00000001     H   31653 31643B
 $$$793T       2 00005B9C 00000001     H   31646 31632B
 $$$795        1 00000050 00000001 A   U   31675 31672  31674
 $$$797B       1 00005BCC 00000001     X   31702 31709U
 $$$798F       2 00005D68 00000001     H   32022 31747B
 $$$798T       2 00005BE4 00000001     H   31750 31736B
 $$$800B       4 00005BEC 00000001     I   31770 31786
 $$$800F       2 00005BFA 00000001     H   31783 31770B 31785
 $$$801E       2 00005BFE 00000001     H   31793 31787
 $$$801F       2 00005D68 00000001     H   32018 31789B
 $$$803F       2 00005D5A 00000001     H   32008 31936B
 $$$804F       2 00005D5A 00000001     H   32004 31991B
 $$$805        1 00000050 00000001 A   U   32044 32041  32043
 $$$807B       1 00005D92 00000001     X   32071 32078U
 $$$808        6 000064DA 00000001     I   32101 32093X
 $$$809        6 000064DA 00000001     I   32100 32101  32101
 $$$81B        1 00000190 00000001     X    7793  7800U
 $$$810        6 000064E0 00000001     I   32118 32110X
 $$$811        6 000064E0 00000001     I   32117 32118  32118
 $$$812        6 000064E6 00000001     I   32135 32127X
 $$$813        6 000064E6 00000001     I   32134 32135  32135
 $$$814        6 000064EC 00000001     I   32152 32144X
 $$$815        6 000064EC 00000001     I   32151 32152  32152
 $$$816F       2 00005DC8 00000001     H   32178 32169B
 $$$817        1 00000050 00000001 A   U   32231 32228  32230
 $$$819B       1 00005E0E 00000001     X   32258 32265U
 $$$82F        2 000001A4 00000001     H    7849  7840B
 $$$820F       2 00005FAA 00000001     H   32578 32303B
 $$$820T       2 00005E26 00000001     H   32306 32292B
 $$$822B       4 00005E2E 00000001     I   32326 32342
 $$$822F       2 00005E3C 00000001     H   32339 32326B 32341
 $$$823E       2 00005E40 00000001     H   32349 32343
 $$$823F       2 00005FAA 00000001     H   32574 32345B
 $$$825F       2 00005F9C 00000001     H   32564 32492B
 $$$826F       2 00005F9C 00000001     H   32560 32547B
 $$$827        1 00000050 00000001 A   U   32600 32597  32599
 $$$829B       1 00005FD4 00000001     X   32627 32634U
 $$$83F        2 000001B2 00000001     H    7888  7864B
 $$$830        6 000064F2 00000001     I   32657 32649X
 $$$831        6 000064F2 00000001     I   32656 32657  32657
1RJE      (RJE4072) (12:53) (15MAR04) Ordinary Symbol and Literal Cross Reference                                           Page  142
 $$$832        6 000064F8 00000001     I   32674 32666X
 $$$833        6 000064F8 00000001     I   32673 32674  32674
 $$$834        6 000064FE 00000001     I   32691 32683X
 $$$835        6 000064FE 00000001     I   32690 32691  32691
 $$$836        6 00006504 00000001     I   32708 32700X
 $$$837        6 00006504 00000001     I   32707 32708  32708
 $$$838        6 0000650A 00000001     I   32725 32717X
 $$$839        6 0000650A 00000001     I   32724 32725  32725
 $$$84         6 00000884 00000001     I    7878  7870X
 $$$840        6 00006510 00000001     I   32742 32734X
 $$$841        6 00006510 00000001     I   32741 32742  32742
 $$$842        6 00006516 00000001     I   32759 32751X
 $$$843        6 00006516 00000001     I   32758 32759  32759
 $$$844        1 00000050 00000001 A   U   32819 32816  32818
 $$$846B       1 0000605C 00000001     X   32846 32853U
 $$$847F       2 000060F6 00000001     H   32981 32917B
 $$$848F       2 000060EE 00000001     H   32968 32936B
 $$$849F       2 000060EE 00000001     H   32964 32951B
 $$$85         6 00000884 00000001     I    7877  7878   7878
 $$$850        1 00000050 00000001 A   U   33003 33000  33002
 $$$852B       1 0000619A 00000001     X   33076 33083U
 $$$853        1 00000050 00000001 A   U   33110 33107  33109
 $$$855B       1 000061C6 00000001     X   33137 33144U
 $$$856        1 00000050 00000001 A   U   33171 33168  33170
 $$$858B       1 000061F2 00000001     X   33198 33205U
 $$$859F       2 0000628C 00000001     H   33334 33270B
 $$$86         1 00000050 00000001 A   U    7964  7961   7963
 $$$860F       2 00006284 00000001     H   33321 33289B
 $$$861F       2 00006284 00000001     H   33317 33304B
 $$$862        1 00000050 00000001 A   U   33356 33353  33355
 $$$864B       1 0000637E 00000001     X   33459 33466U
 $$$865        1 00000050 00000001 A   U   33493 33490  33492
 $$$867B       1 000063AA 00000001     X   33520 33527U
 $$$868        1 00000050 00000001 A   U   33560 33557  33559
 $$$870B       1 000063DA 00000001     X   33587 33594U
 $$$871        1 00000050 00000001 A   U   33621 33618  33620
 $$$873B       1 00006406 00000001     X   33648 33655U
 $$$874        1 00000050 00000001 A   U   33687 33684  33686
 $$$876B       1 00006536 00000001     X   33757 33764U
 $$$877F       2 0000655A 00000001     H   33827 33798B
 $$$877T       2 00006548 00000001     H   33801 33787B
 $$$879        1 00000050 00000001 A   U   33849 33846  33848
 $$$88B        1 000003A6 00000001     X    8131  8138U
 $$$881B       1 00006584 00000001     X   33877 33884U
 $$$882F       2 000065A8 00000001     H   33947 33918B
 $$$882T       2 00006596 00000001     H   33921 33907B
 $$$884        1 00000050 00000001 A   U   33969 33966  33968
 $$$886B       1 000065D2 00000001     X   34018 34025U
 $$$887F       2 00006630 00000001     H   34103 34087B
 $$$888F       2 00006816 00000001     H   34858 34151B
 $$$888T       2 00006654 00000001     H   34154 34140B
 $$$89F        2 0000049A 00000001     H    8319  8222B  8233B  8255B  8275B
 $$$89S        2 00000414 00000001     H    8214  8318B
 $$$890F       2 00006680 00000001     H   34234 34166B
 $$$891F       2 00006670 00000001     H   34191 34182B
 $$$892F       2 0000667C 00000001     H   34229 34205B
 $$$893        6 00007554 00000001     I   34219 34211X
 $$$894        6 00007554 00000001     I   34218 34219  34219
 $$$895F       2 0000674C 00000001     H   34556 34252B
1RJE      (RJE4072) (12:53) (15MAR04) Ordinary Symbol and Literal Cross Reference                                           Page  143
 $$$895S       2 00006684 00000001     H   34246 34555B
 $$$897F       2 00006742 00000001     H   34547 34268B
 $$$898F       2 000066B8 00000001     H   34323 34290B
 $$$899F       2 000066B8 00000001     H   34319 34309B
 $$$900F       2 000066CC 00000001     H   34345 34336B
 $$$901F       2 000066D8 00000001     H   34383 34359B
 $$$902        6 0000755A 00000001     I   34373 34365X
 $$$903        6 0000755A 00000001     I   34372 34373  34373
 $$$904F       2 00006712 00000001     H   34462 34396B
 $$$905F       2 00006724 00000001     H   34483 34474B
 $$$906F       2 00006730 00000001     H   34521 34497B
 $$$907        6 00007560 00000001     I   34511 34503X
 $$$908        6 00007560 00000001     I   34510 34511  34511
 $$$909B       4 0000675A 00000001     I   34583 34656
 $$$909F       2 0000677C 00000001     H   34649 34583B 34655
 $$$910F       2 00006770 00000001     H   34607 34598B
 $$$911F       2 0000677C 00000001     H   34645 34621B
 $$$912        6 00007566 00000001     I   34635 34627X
 $$$913        6 00007566 00000001     I   34634 34635  34635
 $$$914B       4 00006784 00000001     I   34674 34690
 $$$914E       2 00006780 00000001     H   34663 34657
 $$$914F       2 00006794 00000001     H   34684 34659B 34674B 34689
 $$$916E       2 00006798 00000001     H   34697 34691
 $$$916F       2 00006816 00000001     H   34854 34693B
 $$$917F       2 000067A6 00000001     H   34724 34711B
 $$$918F       2 000067C4 00000001     H   34777 34738B 34751B 34764B
 $$$921F       2 000067D8 00000001     H   34800 34789B
 $$$922F       2 000067EC 00000001     H   34823 34812B
 $$$923F       2 00006800 00000001     H   34846 34835B
 $$$924        1 00000120 00000001 A   U   34888 34885  34887
 $$$926B       1 00006840 00000001     X   34915 34922U
 $$$927F       2 00006856 00000001     H   34970 34957B
 $$$927T       2 00006850 00000001     H   34960 34946B
 $$$929F       2 00006864 00000001     H   34995 34982B
 $$$930F       2 00006872 00000001     H   35021 35008B
 $$$931F       2 0000689C 00000001     H   35065 35047B
 $$$931T       2 00006884 00000001     H   35050 35036B
 $$$933        1 00000050 00000001 A   U   35087 35084  35086
 $$$935B       1 000068C6 00000001     X   35114 35121U
 $$$936F       2 000068D4 00000001     H   35155 35142B
 $$$937F       2 0000691C 00000001     H   35240 35181B
 $$$937T       2 000068E6 00000001     H   35184 35170B
 $$$939F       2 0000691C 00000001     H   35236 35203B
 $$$94         1 00000050 00000001 A   U    8341  8338   8340
 $$$940        1 00000050 00000001 A   U   35262 35259  35261
 $$$942B       1 00006946 00000001     X   35289 35296U
 $$$943F       2 00006954 00000001     H   35330 35317B
 $$$944F       2 00006974 00000001     H   35370 35360B
 $$$944T       2 0000696E 00000001     H   35363 35349B
 $$$946        1 00000050 00000001 A   U   35392 35389  35391
 $$$948B       1 0000699E 00000001     X   35419 35426U
 $$$949F       2 000069AC 00000001     H   35460 35447B
 $$$950F       2 000069EE 00000001     H   35544 35478B 35491B 35504B
 $$$953F       2 00006A06 00000001     H   35580 35570B
 $$$953T       2 00006A00 00000001     H   35573 35559B
 $$$955        1 00000050 00000001 A   U   35602 35599  35601
 $$$957B       1 00006A30 00000001     X   35629 35636U
 $$$958F       2 00006ACA 00000001     H   35764 35700B
 $$$959F       2 00006AC2 00000001     H   35751 35719B
1RJE      (RJE4072) (12:53) (15MAR04) Ordinary Symbol and Literal Cross Reference                                           Page  144
 $$$96B        1 000004C4 00000001     X    8369  8376U
 $$$960F       2 00006AC2 00000001     H   35747 35734B
 $$$961        1 00000050 00000001 A   U   35786 35783  35785
 $$$963B       1 00006B6E 00000001     X   35859 35866U
 $$$964        1 00000050 00000001 A   U   35893 35890  35892
 $$$966B       1 00006B9A 00000001     X   35920 35927U
 $$$967        1 00000050 00000001 A   U   35954 35951  35953
 $$$969B       1 00006BC6 00000001     X   35981 35988U
 $$$97F        2 000004E8 00000001     H    8426  8399B  8412B
 $$$970F       2 00006C64 00000001     H   36121 36057B
 $$$971F       2 00006C5C 00000001     H   36108 36076B
 $$$972F       2 00006C5C 00000001     H   36104 36091B
 $$$973        1 00000050 00000001 A   U   36143 36140  36142
 $$$975B       1 00006D06 00000001     X   36216 36223U
 $$$976        1 00000050 00000001 A   U   36250 36247  36249
 $$$978B       1 00006D32 00000001     X   36277 36284U
 $$$979        1 00000050 00000001 A   U   36311 36308  36310
 $$$981B       1 00006D5E 00000001     X   36338 36345U
 $$$982        1 00000050 00000001 A   U   36382 36379  36381
 $$$984B       1 00006D8E 00000001     X   36409 36416U
 $$$985F       2 00006D9C 00000001     H   36450 36437B
 $$$986F       2 00006DBC 00000001     H   36490 36480B
 $$$986T       2 00006DB6 00000001     H   36483 36469B
 $$$988        1 00000050 00000001 A   U   36512 36509  36511
 $$$99         1 00000050 00000001 A   U    8444  8441   8443
 $$$990B       1 00006DE6 00000001     X   36539 36546U
 $$$991F       2 00006DFE 00000001     H   36589 36580B
 $$$991T       2 00006DF8 00000001     H   36583 36569B
 $$$993        1 00000050 00000001 A   U   36607 36604  36606
 $$$995B       1 00006E26 00000001     X   36634 36641U
 $$$996F       2 00006E3E 00000001     H   36684 36675B
 $$$996T       2 00006E38 00000001     H   36678 36664B
 $$$998        1 00000050 00000001 A   U   36702 36699  36701
 @RAR          0 00000000 FFFFFFF0     @    1147  2172   2180B
 @R0           0 00000000 FFFFFFFE     @     714   990U
 @R1           0 00000000 FFFFFFFD     @     727   986U  2178   2179   7877   8252   8281   8411   8421   8422  16897
                                                 16904  16912  16942  17079  18587  18588  18609  20349  20544  20545M
                                                 20567  21957  21970  22027  22221  22402  22883  23221  23481  29075
                                                 29256  29581  30486  30564  30577  30583  30584  30600  30606  30607
                                                 30748  31649  31769  31812  32087M 32325  32368  32643M 34218  34267
                                                 34274  34372  34549  34943  34956  34981  35056  35190  35366  36486
                                                 36919  37253  37322  37982  39582  39631M 39641  39700  39706  39773
                                                 39823  39834  39836  39838  39842  39844  39848  39851  39854  39856
                                                 39862  39864  39868  39870  39878  39883  39888  39891  39893  39897
                                                 39900  40020  40036  40052  40058  40071  40085  40098  40105  40308
                                                 40314  40342  40349  40357  40394  40412  40425  40446  40459  40480
                                                 40493  40502M 40507  40603  41816  41829  41855  41856  41873  41899
                                                 41901  41918  41944  41945  41962  41968  42002  42185  42247M 44352
                                                 44412M 49919  49920  49957  49958  50393  50458  52317  52411M
 @R10          0 00000000 FFFFFFF4     @     844   950U
 @R11          0 00000000 FFFFFFF3     @     857   946U
 @R12          0 00000000 FFFFFFF2     @     870   942U
 @R13          0 00000000 FFFFFFF1     @     883   938U 17168  32014  32570  37510  40674  51324
 @R14          0 00000000 FFFFFFF0     @     896   934U 17122M 17154
 @R15          0 00000000 FFFFFFEF     @     909   930U  8794U 15675  15696  20489  20495M 32087  32100  32117  32134
                                                 32151  32643  32656  32673  32690  32707  32724  32741  32758  34308
                                                 35477  35490  35503  35576  37289  37420  38209  38222  38235  38248
                                                 38293  40938  42194  44139U 44361  44449U 50509U
 @R2           0 00000000 FFFFFFFC     @     740   982U  8977  40603M 41324  44804  48653  48683  48699  48732  48778
1RJE      (RJE4072) (12:53) (15MAR04) Ordinary Symbol and Literal Cross Reference                                           Page  145
                                                 48836  48902  48932  50502U
 @R3           0 00000000 FFFFFFFB     @     753   978U  8283   8963   8976  10315U 11427U 12873U 13276M 13313  13990U
                                                 14597U 16300U 17960  18180  19087  20421M 20437M 20451  20495  20505
                                                 24741U 37420M 37421  40037U 40072U 41521  44321  44487  51136M
 @R4           0 00000000 FFFFFFFA     @     766   974U  8281M  8282  11047U 20983  21149  42048  42104  42139  42247
                                                 42321  44481  44487M 51162U
 @R5           0 00000000 FFFFFFF9     @     779   970U  7723U  8834U  8963  10521M 10534M 17425  17467  17511  17524
                                                 17570  17928M 18412  18431  18450  18471  18484  18505  18518  18539
                                                 18552  20381  20415  20452  20463  20496M 20506  34510  34634  34679
                                                 34737  34750  34763  34788  34795  34796  34811  34818  34819  34834
                                                 34841  34842  41474  41475M 41486  41495  41513  41520  41539  41546
                                                 41562  41571  41584  41591  41616  41629  41650  41663  41669  41670
                                                 41681  41713  41726  41739  41752  41759  44250U 49645U 50120  50254
                                                 50268  50277  50298  50304  50348  50386  50397  50501  50528  50565
                                                 51167U 52195U
 @R6           0 00000000 FFFFFFF8     @     792   966U  7760U  8827U  8988U  9106U 10868U 11557U 12520U 12991U 13422U
                                                 14120U 14770U 15596U 16711U 19595U 20150U 49458U 49650U 50932U 51172U
                                                 52188U 52453U
 @R7           0 00000000 FFFFFFF7     @     805   962U  7741U  7953U  8330U  8433U  8518U  8585U  8651U  8807U  9001U
                                                  9087U  9202U  9275U  9453U 10849U 11028U 11538U 12064U 12411U 12501U
                                                 12972U 13403U 14101U 14751U 15577U 16692U 19576U 19795U 19967U 20131U
                                                 20845U 21191U 21303U 22066U 22247U 22428U 22547U 22666U 22785U 22975U
                                                 23041U 23107U 23255U 23368U 23515U 23581U 23648U 23714U 23781U 23853U
                                                 23919U 24144U 24239U 24300U 27827U 28010U 29141U 29322U 29607U 29790U
                                                 29922U 29993U 30070U 30131U 30204U 30274U 30347U 30690U 30784U 30880U
                                                 30982U 31078U 31180U 31297U 31399U 31516U 31664U 32033U 32220U 32589U
                                                 32808U 32992U 33099U 33160U 33345U 33482U 33549U 33610U 33676U 33838U
                                                 33958U 34877U 35076U 35251U 35381U 35591U 35775U 35882U 35943U 36132U
                                                 36239U 36300U 36371U 36501U 36596U 36691U 36804U 36934U 37043U 37152U
                                                 37556U 37656U 37728U 37800U 37872U 38025U 38139U 38308U 38408U 38508U
                                                 38616U 38758U 39459U 40220U 40522U 40687U 43495U 44511U 49358U 49655U
                                                 50942U 51177U 51331U 51561U 51628U 51695U 51769U 51835U 51902U 51968U
                                                 52035U 52101U 52168U 52463U
 @R8           0 00000000 FFFFFFF6     @     818   958U  7736U 10844U 11533U 12059U 14096U 14746U 20840U 21186U 34872U
                                                 39454U 40215U 43490U 50937U 52458U
 @R9           0 00000000 FFFFFFF5     @     831   954U
 ABSCENT       1 00000000 00000000 A   T    2188  2188
 ASCTBL        1 00000000 00000000 A   T    2196  2196
 BACKCLENF
               4 000001DC FFFFFFE1     F   20234 20526M 20776
 BACKCONT     20 000001E0 FFFFFFE1     C   20235 20525M 20527M 20544M 20567M 20771
 BACKFIN       2 00002EAE 00000001     H   20817 20315B 20331B 20357B
 BACKINDX    235 00000004 FFFFFFE1     X   20232 20365M 20365  20368  20456  20457  20519M 20519
 BACKLINE    235 000000EF FFFFFFE1     C   20233 20455M 20478  20582  20587  20803  20808
 BACKLP        2 00002D66 00000001     H   20372 20453B
 BACKPLP       4 00002DAE 00000001     I   20463 20507B
 BACKPTR       4 00000000 FFFFFFE1     A   20231 20337M 20366  20458
 BACKRTRY      6 00002D9A 00000001     I   20455 20789B
 BACKSEG       2 00002D1C 00000001     H   20257 16750  20181
 BACKTBL     256 00002EDE 00000001     X   20877 20349  20878
 BACKWA      500 00000000 FFFFFFE1     J   20242 20270  20299U 20853  20855  20856
 BIN           2 00005B5A 00000001     H   31553 28369  28384
 BLOCK         2 00005DF4 00000001     H   32239 28429
 BLTBL         1 00000000 00000000 A   T    2198  2198
 BR            7 00000007 00000001 A   #    1037  7259M  7788M  8126M  8364M  8466M  8551M  8618M  8684M  8868M  9043M
                                                  9132M  9240M  9313M 10068M 10995M 11121M 11599M 12354M 12444M 12546M
                                                 13017M 13522M 14201M 14805M 15631M 16808M 19632M 19838M 20002M 20273M
                                                 20928M 21232M 21924M 22099M 22280M 22461M 22580M 22699M 22818M 23008M
                                                 23074M 23140M 23288M 23401M 23548M 23614M 23681M 23747M 23814M 23886M
1RJE      (RJE4072) (12:53) (15MAR04) Ordinary Symbol and Literal Cross Reference                                           Page  146
                                                 23952M 24208M 24272M 24374M 27976M 28993M 29174M 29374M 29640M 29884M
                                                 29955M 30026M 30103M 30164M 30237M 30307M 30412M 30723M 30817M 30913M
                                                 31015M 31111M 31213M 31330M 31432M 31567M 31697M 32066M 32253M 32622M
                                                 32841M 33071M 33132M 33193M 33454M 33515M 33582M 33643M 33752M 33872M
                                                 34013M 34910M 35109M 35284M 35414M 35624M 35854M 35915M 35976M 36211M
                                                 36272M 36333M 36404M 36534M 36629M 36724M 36837M 36967M 37076M 37185M
                                                 37589M 37689M 37761M 37833M 37905M 38058M 38172M 38341M 38441M 38541M
                                                 38719M 38905M 39525M 40260M 40562M 40847M 43534M 44638M 49486M 49837M
                                                 51009M 51220M 51533M 51594M 51661M 51728M 51802M 51868M 51935M 52001M
                                                 52068M 52134M 52248M
 BTD           1 00000000 00000032     T   20184 20184  44571
 BTX           1 00000000 00000036     T   24324 24324
 BURST         2 00006A16 00000001     H   35610 28641
 BURSTPRT      4 00006ADC 00000001     F   35792 38658
 BURSTRST      2 00006B80 00000001     H   35901 35834
 BURSTY        2 00006B54 00000001     H   35840 35804  35819
 CCINSPT       4 00007A36 00000001     I   40196 39776B 39852B 39855B
 CDFLAGS       1 00000642 FFFFFFE2     R   10029 10033  10138M
 CDFSFAIL    128 00000642 FFFFFFE2        10033 10355  10772  11021M
 CDRJEWA    1602 00000000 FFFFFFE2     X   10026 10098
 CDWA       1603 00000000 FFFFFFE2     J   10042 10065  10094U 10122  10130U 10857  10859  10860
 CHARCHK       1 00000000 00000041     T   30380 30380
 CHARCHKA      1 00000000 00000040     T   30374 30374  44559
 CHARDONE      2 000070D8 00000001     H   37487 37384B
 CHARLOOP      4 00006FF4 00000001     I   37339 37422B
 CHARS         2 00006F6E 00000001     H   37171 28761  28776
 CHECKIOB      1 00000000 00000000 A   T    2244  2244
 CHKDFLP       2 000086F4 00000001     H   44472 44492B
 CHKHCTL       6 000077D8 00000001     I   39706 39682B
 CHKIDL        2 0000868E 00000001     H   44312 44330B
 CHKNUM        2 00007B00 00000001     H   40548 40754  44544
 CHKPEXIT      2 0000064C 00000001     H    8997  8970B
 CHKPRT        2 000005F2 00000001     H    8854  8850
 CKACCT        2 0000840C 00000001     H   43520 44546
 CLASS         2 0000592C 00000001     H   30709 28219  28234
 COLLOPTS      1 00000000 00000016     T    9499  9499
 COLLPSH       1 00000000 0000001A     T   10945 10945  12304  21858
 COLSPSH       1 00000000 00000034     T   21828 21828
 COMMAND       1 00000000 00000000 A   T    2184  2184
 COMMSEG       1 00000000 00000000 A   T    2185  2185
 CONDENSE      2 0000088A 00000001     H   10052 10048
 CONDNSAV      2 00000C90 00000001     H   10981 10900
 CONDPRT       4 00000B78 00000001     F   10873 11062
 CONDPRT1      4 00000BC8 00000001     F   10903 11068
 COPIES        2 00005974 00000001     H   30803 28249  28264
 CP         4096 00000000 FFFFFFEC     J    6198  1173U
 CP#XSTK       1 00000010 FFFFFFEC A   U    3930  3931
 CPACFLG       1 000005D5 FFFFFFEC     R    4033  4037   4042   4047   4052   4057
 CPACFLN       4 000005C4 FFFFFFEC     F    4025  4060   4060
 CPAFLAG       1 000005C3 FFFFFFEC     R    3997  4001   4006   4011   4016
 CPANAME       8 00000588 FFFFFFEC     C    3979  4075   4075
 CPAUTFLG      1 000008A9 FFFFFFEC     R    4343  4347   4352   4357   4362
 CPBIN         3 000009F2 FFFFFFEC     C    4487 12939  16434
 CPCACCT       5 00000C48 FFFFFFEC     C    5008  9075M
 CPCHFLAG      1 00000B68 FFFFFFEC     R    4970  4974
 CPCMD       235 00000242 FFFFFFEC     C    2823  9078M  9079M
 CPCMDLEN      2 00000240 FFFFFFEC     H    2822  9077M
 CPCMNM        3 00000D24 FFFFFFEC     C    5296  7320  10235  10800  13643  13685  13714
 CPCWA         4 00000CA4 FFFFFFEC     F    5222  7307M  7809
1RJE      (RJE4072) (12:53) (15MAR04) Ordinary Symbol and Literal Cross Reference                                           Page  147
 CPDEST        8 000009EA FFFFFFEC     C    4486 12917  16412
 CPDFLG        1 0000084C FFFFFFEC     R    4230  4234   4239   4244   4249   4254
 CPDFLG2       1 0000084D FFFFFFEC     R    4259  4263   4268   4273   4278   4283   4288
 CPDOUB        8 00000C88 FFFFFFEC     D    5216 13276  16912M 16913M 16925  17928  18566M 18587M 18609M 18796  18803M
                                                 18858  18865M 18881  18888M 18959  18968M 18985M 19029  19194  19931
                                                 20095  39039M 39040M 39041  39582M 39583M 39597  39611  39625  39706M
                                                 39707M 39719  39741  44454  44461  44466M 44468
 CPERRID       8 00000886 FFFFFFEC     C    4329 12781M 16207M 29121M 29302M 29513M 32206M 32794M 35535M 40179M 43270M
                                                 43302M 43334M 43367M 43374M
 CPEXFLG       1 00000758 FFFFFFEC     R    4099  4103
 CPEXFLG2      1 00000759 FFFFFFEC     R    4109  4118   4128
 CPEXFLG3      1 0000075A FFFFFFEC     R    4135  4139   4144
 CPEXTFLG      1 00000E28 FFFFFFEC     R    5781  5785   5790   5795   5800   5805   5810
 CPFABORT    128 00000D5A FFFFFFEC         5547  2148M  2148   2153M  2153
 CPFALL        1 00000010 FFFFFFEC A   U    5313  7493  11236  13741
 CPFBDEST     32 00000D5C FFFFFFEC         5592 34452M
 CPFCOL        2 00000C4E FFFFFFEC     H    5012 15712  15719M 17682  17697
 CPFERROR     64 00000D5A FFFFFFEC         5552  2147M  2147   2152M  2152  34458M
 CPFFOPT       1 00000010 FFFFFFEC A   U    5402 14610  15897  16973  17103  17224  17315  17327  26141  42823
 CPFINFOP      4 00000E54 FFFFFFEC     A    5829 10287  11386  13949  24616
 CPFKOK       32 00000D55 FFFFFFEC         5422 10382M
 CPFNCUR      64 00000D57 FFFFFFEC         5482 11244M 13749M
 CPFNLST       1 00000020 FFFFFFEC A   U    5401 10171  10727  12585  13659  15747  18322  26102
 CPFNONUM      1 000000C0 FFFFFFEC A   U    5400 15231  15910  19133  19280  26157  42839
 CPFNTEX       1 00000040 FFFFFFEC A   U    5399  5400  19267  26272
 CPFORMS       8 000009F5 FFFFFFEC     C    4488 12961  16456
 CPFQUIET     64 00000D55 FFFFFFEC         5417 39115
 CPFRDEXE      2 00000D89 FFFFFFEC         5725 11483  14046  24765
 CPFRDEXT      3 00000D89 FFFFFFEC         5735  7501M 11258  11376  13764  13939  19712  24588  43429
 CPFRDRNG      1 00000D88 FFFFFFEC     R    5667  5671   5676   5681   5686   5691   5696   5701
 CPFRDSRC      1 00000D89 FFFFFFEC     R    5706  5715   5725   5735
 CPFSET        1 00000080 FFFFFFEC A   U    5353 10329
 CPFUFMT       8 00000C7C FFFFFFEC         5155 13892  13919M
 CPFUNUM       1 00000080 FFFFFFEC A   U    5398  5400  13204  14615  17106  17312  17330  17856  19172  26224  36787
                                                 42877  42918
 CPFXDFLG      1 000007E4 FFFFFFEC     R    4177  4181   4186
 CPGFLG1       1 00000474 FFFFFFEC     R    3540  3544   3549   3554   3559   3564   3894   3894
 CPGFLG10      1 0000047D FFFFFFEC     R    3777  3781   3786   3791   3796   3801   3806
 CPGFLG11      1 0000047E FFFFFFEC     R    3812  3816   3821
 CPGFLG12      1 0000047F FFFFFFEC     R    3827  3831   3836   3841
 CPGFLG13      1 00000480 FFFFFFEC     R    3847  3851
 CPGFLG14      1 00000481 FFFFFFEC     R    3857  3861   3866   3871   3876   3881
 CPGFLG4       1 00000477 FFFFFFEC     R    3593  3604   3613   3622   3631   3640
 CPGFLG5       1 00000478 FFFFFFEC     R    3646  3650   3655   3660   3665   3670   3675   3680   3685
 CPGFLG6       1 00000479 FFFFFFEC     R    3691  3695   3700   3705
 CPGFLG7       1 0000047A FFFFFFEC     R    3711  3715   3720   3725   3730
 CPGFLG8       1 0000047B FFFFFFEC     R    3736  3740   3745   3750   3755
 CPGFLG9       1 0000047C FFFFFFEC     R    3761  3765   3771
 CPINIT        1 00000174 FFFFFFEC     U    2710  6167
 CPJESFLG      1 000009E1 FFFFFFEC     R    4442  4446   4451   4456   4461   4466   4471   4476   4481
 CPJESFLY      1 000009FD FFFFFFEC     R    4492  4496   4501   4506
 CPJESHFL      1 000009E0 FFFFFFEC     R    4427  4431   4436   4515   4515
 CPJFFRCE      8 000009E1 FFFFFFEC         4466 42362
 CPJFHOLD     64 000009E1 FFFFFFEC         4451 43028
 CPJFHOLX     64 000009FD FFFFFFEC         4501 42971
 CPJFNOPT      4 000009E1 FFFFFFEC         4471 42851
 CPJFNTFX    128 000009FD FFFFFFEC         4496 43171
 CPJFNTFY     16 000009E1 FFFFFFEC         4461 43228
 CPJFUNN       2 000009E1 FFFFFFEC         4476 42866
1RJE      (RJE4072) (12:53) (15MAR04) Ordinary Symbol and Literal Cross Reference                                           Page  148
 CPJFXHLD     32 000009E1 FFFFFFEC         4456 43115
 CPJFXHOX     32 000009FD FFFFFFEC         4506 43078
 CPJNACCT      5 00000A0C FFFFFFEC     C    4514 10166  11227
 CPJNO         2 00000A0A FFFFFFEC     H    4513 44066  44072  44077  44078M
 CPJOBNM       8 00000A11 FFFFFFEC     C    4517 42798M
 CPJOBS        8 00000A19 FFFFFFEC     X    4518 39040  39041M
 CPJPFX        8 00000A01 FFFFFFEC     C    4512 44042M 44042  44049
 CPLCNO        4 0000073C FFFFFFEC     F    4084 13271  17923  19180  19759  43476
 CPLCOL        2 00000C50 FFFFFFEC     H    5013 17687  17689
 CPLFLG1       1 00000D50 FFFFFFEC     R    5310  7495M 11238M 13743M
 CPLFLG10      1 00000D59 FFFFFFEC     R    5533  5537
 CPLFLG11      1 00000D5A FFFFFFEC     R    5543  5547   5552   5557   5562
 CPLFLG12      1 00000D5B FFFFFFEC     R    5568  5572
 CPLFLG14      1 00000D5C FFFFFFEC     R    5578  5582   5587   5592   5597   5602
 CPLFLG3       1 00000D52 FFFFFFEC     R    5351 10331
 CPLFLG5       1 00000D54 FFFFFFEC     R    5395 10173M 10729  12587  13206  13661M 14612M 14617M 15233  15749  15899
                                                 15912M 16975  16982  17039M 17108M 17226  17233  17290M 17317  17332M
                                                 17858  18324  19135  19174  19269  19282  26104  26143  26159  26226
                                                 26274  26322  36789M 42825  42841M 42879M 42920M
 CPLFLG6       1 00000D55 FFFFFFEC     R    5408  5412   5417   5422   5427   5432   5437
 CPLFLG7       1 00000D56 FFFFFFEC     R    5443  5447   5452   5457   5462   5467
 CPLFLG8       1 00000D57 FFFFFFEC     R    5473  5477   5482   5487   5492
 CPLFLG9       1 00000D58 FFFFFFEC     R    5498  5502   5507   5512   5517   5522   5527
 CPLOCALZ      1 00000C48 FFFFFFEC     U    5000  6161   6161
 CPMFLG        1 0000084F FFFFFFEC     R    4297  4301
 CPMODFLG      1 00000C78 FFFFFFEC     R    5028  5032   5037   5042   5047   5052
 CPNAME       20 00000174 FFFFFFEC     C    2711 15428M 15428  15461  15466  16612M 16612  16619
 CPNAMELN      1 00000010 FFFFFFEC A   U    3923  4170
 CPNEDPFX     10 00000E29 FFFFFFEC     X    5814  5815   5816
 CPNFINT       1 00000008 FFFFFFEC A   U    5403 26320
 CPNFRNUM      8 00000C79 FFFFFFEC         5070 13221  17873
 CPNSCANP      4 0000008C FFFFFFEC     A    2583  7469   7905   7915   7922   7938   8156   8180   8187   8202   8240
                                                  8286   8293   8308   8419   8489   9155  10251  10258  10274  10412
                                                 10419  10435  11270  11277  11293  11322  11329  11345  11676  11702
                                                 11709  11725  13776  13783  13799  13828  13835  13851  14278  14510
                                                 14517  14533  14554  16948  16989  16996  17012  17199  17240  17247
                                                 17263  22514  22633  22752  22919  23163  23424  23976  23983  23999
                                                 24026  29042  29223  29397  29663  29670  29686  29723  30464  30506
                                                 30513  30528  30621  30746  31616  31720  31797  31818  31827  31834
                                                 31849  31863  31889  31896  31911  31925  31948  31955  31970  32011
                                                 32276  32353  32374  32383  32390  32405  32419  32445  32452  32467
                                                 32481  32504  32511  32526  32567  32870  32877  32893  32925  33223
                                                 33230  33246  33278  33805  33925  34046  34053  34066  34106  35054
                                                 35188  35333  35463  35653  35660  35676  35708  36010  36017  36033
                                                 36065  36453  36886  37287  37307  37328  37339  37346  37361  37418
                                                 37425  37432  37447  37507  37856  38081  38195  39918  39927  39934
                                                 39949  40028  40606  40629  40638  40645  40661  40671  51264  51281
                                                 51290  51297  51311  51321
 CPNUMFLG      1 00000C79 FFFFFFEC     R    5058  5070
 CPORVCMD      1 00000140 FFFFFFEC     R    2592  2596   2601   2606   2611   2616   2621   2626   2631   2636   2636
                                                  2687   2687
 CPORVFLG      1 00000149 FFFFFFEC     R    2643  2647   2652   2657   2662   2667   2672   2677   2682
 CPORVWF       1 00000150 FFFFFFEC     R    2695  2699
 CPOSCANX      4 00000CA8 FFFFFFEC     F    5227  5294   5294
 CPR          11 0000000B 00000001 A   #    1101  1173U
 CPRACBAD     16 000001FC FFFFFFEC         2761  2795   2795   2796   2796
 CPRACF1       1 000001FC FFFFFFEC     R    2742  2746   2751   2756   2761   2766   2771   2776   2781   2797
 CPRACPSW     32 000001FC FFFFFFEC         2756  2794   2794   2796   2796
 CPRACUND     64 000001FC FFFFFFEC         2751  2794   2794   2795   2795
1RJE      (RJE4072) (12:53) (15MAR04) Ordinary Symbol and Literal Cross Reference                                           Page  149
 CPRCVCUR      4 00000730 FFFFFFEC     A    4078  4080   4080
 CPRFLG        1 000008AA FFFFFFEC     R    4368  4372   4377   4382   4387   4392   4397
 CPS         254 00000344 FFFFFFEC     X    3512  3515   3516   3518   3518
 CPSACCT       5 000003B4 FFFFFFEC     C    3111  3274   3274  40972  44026  44790
 CPSAMCOD      1 00000A22 FFFFFFEC     R    4564  4572   4582   4592   4601   4610   4619   4629   4638   4647
 CPSAMFLG      1 00000A21 FFFFFFEC     R    4524  4528   4533   4538   4543   4548   4553   4558   4669   4669
 CPSCNFLG      1 00000CD0 FFFFFFEC     R    5240  5251   5260   5271
 CPSCNF2       1 00000CD1 FFFFFFEC     R    5276  5280
 CPSCNMAX      1 00000014 FFFFFFEC A   U    5292  5293
 CPSCRI        2 00000434 FFFFFFEC     H    3501  3506   3506
 CPSEG        60 00000050 FFFFFFEC     X    2581  7379   7401   7631   7653   9380   9420   9438  10822  12696  12726
                                                 12744  12774  14587  16122  16152  16170  16200  17121  17122  17122
                                                 17126  17146  17154  17168M 19680  19698  19732  19754  19783  19893
                                                 19911  19955  20057  20075  20119  20190  21292  21989  22007  22046
                                                 29114  29295  29506  32199  32787  34424  34442  35221  35528  38996
                                                 39388  39416  39434  40172  42398  42426  43293  43325  43358  43397
                                                 43415  43449  43471  43677  43705  43723  43751  43795  43823  43841
                                                 43869  43887
 CPSEGCOD      1 00000050 FFFFFFEC     R    2498  2507   2517   2527   2537   2547   2557   2567
 CPSEGLENF
               4 0000005C FFFFFFEC     A    2573  7339M  7339   7354   7591M  7591   7606  21270
 CPSEGLOC      4 00000070 FFFFFFEC     A    2577 21265
 CPSEGMRKF
               4 00000058 FFFFFFEC     A    2572  7354   7606
 CPSEGRTN      4 00000074 FFFFFFEC     A    2578 17154M 17154
 CPSFL         1 00000384 FFFFFFEC     R    2849  2853   2858   2863   2868   2873
 CPSFLG        1 000003F8 FFFFFFEC     R    3389  3393   3398   3403   3408   3413   3418   3423   3428
 CPSFLG2       1 000003F9 FFFFFFEC     R    3434  3438   3443   3448
 CPSFL2        1 00000385 FFFFFFEC     R    2879  2883   2888   2893   2898
 CPSFL3        1 00000386 FFFFFFEC     R    2904  2908   2913   2918
 CPSFL4        1 00000387 FFFFFFEC     R    2924  2928   2933   2938
 CPSFL5        1 00000388 FFFFFFEC     R    2944  2948   2953   2958
 CPSFSBM       8 000003BE FFFFFFEC         3224 12480
 CPSFSPR      32 000003BE FFFFFFEC         3214  7431  12384
 CPSGRP        2 000003B7 FFFFFFEC     C    3113 10486  15356  15361  16641  34680  40983
 CPSKAFL       1 000003BF FFFFFFEC     R    3245  3249   3254   3259   3264   3269
 CPSKIFL       1 000003BE FFFFFFEC     R    3200  3204   3209   3214   3219   3224   3229   3234   3239
 CPSNAME      20 000003C6 FFFFFFEC     C    3281 48553  48570  48575
 CPSOF         1 000001F8 FFFFFFEC     X    2732  2734   2734
 CPSOFLAG      1 00000416 FFFFFFEC     R    3459  3463   3468   3473   3478   3483
 CPSOPST       4 000003C4 FFFFFFEC     F    3279  3508   3508
 CPSPORT       8 00000354 FFFFFFEC     C    2843  2963   2963
 CPSPROJ       8 000003F0 FFFFFFEC     C    3385 40973
 CPSQFLG       1 000003EC FFFFFFEC     R    3308  3312
 CPSSFLG       1 000003BB FFFFFFEC     R    3118  3122   3127   3132   3137   3142   3147
 CPSSTART      4 00000344 FFFFFFEC     F    2835  2839   2839   3275   3275   3380   3380   3512   3512
 CPSSTAT       1 0000038F FFFFFFEC     R    3055  3059   3064   3069   3074   3079   3084   3089
 CPSTACF       1 000003BC FFFFFFEC     R    3153  3157   3162   3167   3172   3177   3182   3187   3192
 CPSTART       4 00000000 FFFFFFEC     C    2471  6165   6169
 CPSTFLAG      1 000003EA FFFFFFEC     R    3286  3290   3295   3300
 CPSTYPE       1 0000038C FFFFFFEC     R    2968  2977   2987   2997   3007   3017   3027   3037   3047
 CPSUFLG       1 000003EE FFFFFFEC     R    3323  3327   3332   3337   3342   3347   3352   3357   3362
 CPSUFLG2      1 000003EF FFFFFFEC     R    3368  3372   3377
 CPSUSER       3 000003B4 FFFFFFEC     C    3112 10174  10501  14293  15400  15405  16218  16643  40985
 CPSVPGM       8 0000039C FFFFFFEC     C    3101  3107   3107
 CPSYSAFF      8 000009E2 FFFFFFEC     C    4485 12895
 CPS1ST        4 0000038C FFFFFFEC     F    2965  3510   3510
 CPTEMPP#      1 0000005F FFFFFFEC A   U    4418  4420
 CPTRMFL1      1 00000C7A FFFFFFEC     R    5076  5080   5085   5090   5214   5214
1RJE      (RJE4072) (12:53) (15MAR04) Ordinary Symbol and Literal Cross Reference                                           Page  150
 CPTRMFL2      1 00000C7B FFFFFFEC     R    5096  5100   5105   5110   5115   5120   5125
 CPTRMFL3      1 00000C7C FFFFFFEC     R    5131  5135   5140   5145   5150   5155   5160   5165
 CPTRMFL4      1 00000C7D FFFFFFEC     R    5171  5175   5180   5185   5190   5195   5200   5205
 CPUSED        1 00000FBC FFFFFFEC A   U    6165  6166
 CPVACURS      8 00000AF0 FFFFFFEC     D    4943  4944   4945
 CPVCURS       8 00000AE0 FFFFFFEC     D    4937  4938   4939
 CPVFLAG       1 00000AC8 FFFFFFEC     R    4738  4742   4747   4752   4757   4762
 CPVFLAG2      1 00000AC9 FFFFFFEC     R    4768  4772   4777   4782   4787   4792   4797
 CPVFLAG3      1 00000ACA FFFFFFEC     R    4803  4807   4812   4817   4822   4827   4832
 CPVFLAG4      1 00000ACB FFFFFFEC     R    4838  4842   4847   4852
 CPVLFLAG      1 00000ACE FFFFFFEC     R    4907  4911   4916   4921
 CPVMODE       1 00000ACC FFFFFFEC     R    4860  4864   4869   4874   4879   4884   4889   4894   4899
 CPVTWID       2 00000AD0 FFFFFFEC     H    4927  4930   4930
 CPWK1         4 00000D60 FFFFFFEC     F    5611  5626   5649
 CPWK2         4 00000D64 FFFFFFEC     F    5612  5627   5641
 CPWK3         4 00000D68 FFFFFFEC     F    5613  5628   5642
 CPWK4         4 00000D6C FFFFFFEC     F    5614  5629   5643
 CPWK5         4 00000D70 FFFFFFEC     F    5615  5631   5636   5644  10121M 11174M 11652M 12567  13038  13575M 14254M
                                                 16829  49507  51030
 CPWK6         4 00000D74 FFFFFFEC     F    5616  5632   5637   5645   5652   5654
 CPWK7         4 00000D78 FFFFFFEC     F    5617  5630   5646
 CPXFLAG       1 000007FD FFFFFFEC     R    4205  4209
 CPXSTATE      4 000007F8 FFFFFFEC     F    4199  4212   4212
 CRDLNOK       4 00007846 00000001     I   39832 39830B
 CV         4016 00000000 FFFFFFEE     J    2374  1182U
 CVABSENT      4 000007F0 FFFFFFEE     I    2163 31876B 32432B 37499B
 CVABSRTN      4 0000088C FFFFFFEE     V    2188  2163
 CVABTMSG      4 000007CC FFFFFFEE     I    2148 18245B 38006B 43481B 43760B 43950B
 CVBLANKS    235 000004D8 FFFFFFEE     C    1968  9078  10510  10521  12852  15249  16279  16913  17752  18073  19150
                                                 19222  20455  20525  21100  22150  22331  29554  34171  34325  34464
                                                 34588  34847  39583  39631  39707  40974  40982  41020  41987  42018
                                                 42074  42294  43981  44006  48493  48553  48807  49965  49968  49971
                                                 49974  50611  50629  50662  50772  50819  50866
 CVBRMSK       1 00000751 FFFFFFEE     X    2104  2105   2106
 CVCFLAG       1 00000A00 FFFFFFEE     R    2269  2273   2278   2283   2288   2293
 CVCHKST       8 000009F0 FFFFFFEE     D    2259  2349   2349
 CVCHKST2      8 00000E28 FFFFFFEE     D    2352  2355   2355
 CVCOMRTN      4 0000087C FFFFFFEE     V    2184  2154
 CVDBGFLG      1 000004CC FFFFFFEE     R    1958  1962
 CVENT         4 0000074C FFFFFFEE     I    2102  7259B  7788B  8126B  8364B  8466B  8551B  8618B  8684B  8868B  9043B
                                                  9132B  9240B  9313B 10068B 10995B 11121B 11599B 12354B 12444B 12546B
                                                 13017B 13522B 14201B 14805B 15631B 16808B 19632B 19838B 20002B 20273B
                                                 20928B 21232B 21924B 22099B 22280B 22461B 22580B 22699B 22818B 23008B
                                                 23074B 23140B 23288B 23401B 23548B 23614B 23681B 23747B 23814B 23886B
                                                 23952B 24208B 24272B 24374B 27976B 28993B 29174B 29374B 29640B 29884B
                                                 29955B 30026B 30103B 30164B 30237B 30307B 30412B 30723B 30817B 30913B
                                                 31015B 31111B 31213B 31330B 31432B 31567B 31697B 32066B 32253B 32622B
                                                 32841B 33071B 33132B 33193B 33454B 33515B 33582B 33643B 33752B 33872B
                                                 34013B 34910B 35109B 35284B 35414B 35624B 35854B 35915B 35976B 36211B
                                                 36272B 36333B 36404B 36534B 36629B 36724B 36837B 36967B 37076B 37185B
                                                 37589B 37689B 37761B 37833B 37905B 38058B 38172B 38341B 38441B 38541B
                                                 38719B 38905B 39525B 40260B 40562B 40847B 43534B 44638B 49486B 49837B
                                                 51009B 51220B 51533B 51594B 51661B 51728B 51802B 51868B 51935B 52001B
                                                 52068B 52134B 52248B
 CVENTBR       2 00000750 FFFFFFEE     I    2103  2104
 CVERRMSG      4 000007C8 FFFFFFEE     I    2147 10784B 10837B 11417B 12786B 13980B 15761B 16212B 16342B 29126B 29307B
                                                 29518B 32211B 32799B 34099B 35232B 35540B 37480B 40184B
 CVERROR       4 000007D6 FFFFFFEE     I    2152  2168B
 CVEXIRTN      4 0000077C FFFFFFEE     V    2132  2128
1RJE      (RJE4072) (12:53) (15MAR04) Ordinary Symbol and Literal Cross Reference                                           Page  151
 CVEXNO        1 00000000 0000002C     T   13471 13471  20173  44566
 CVFCHRKBPR
               8 000004C9 FFFFFFEE         1873  1889   1889
 CVFCHRKBSE
               4 000004C9 FFFFFFEE         1878  1889   1889
 CVFCHRKCPR
               2 000004C9 FFFFFFEE         1895  1911   1911
 CVFCHRKCSE
               1 000004C9 FFFFFFEE         1900  1911   1911
 CVFCHRUBPR
             128 000004C9 FFFFFFEE         1829  1845   1845
 CVFCHRUBSE
              64 000004C9 FFFFFFEE         1834  1845   1845
 CVFCHRUCPR
              32 000004C9 FFFFFFEE         1851  1867   1867
 CVFCHRUCSE
              16 000004C9 FFFFFFEE         1856  1867   1867
 CVFINIT       8 000004C5 FFFFFFEE         1694  7569
 CVFL          1 000004C4 FFFFFFEE     R    1625  1629   1634   1639   1644   1649   1654   1659   1664
 CVFL2         1 000004C5 FFFFFFEE     R    1670  1674   1679   1684   1689   1694   1699   1704   1709
 CVFL3         1 000004C6 FFFFFFEE     R    1715  1719   1724   1729   1734   1739   1744   1749   1754
 CVFL4         1 000004C7 FFFFFFEE     R    1760  1764   1769   1774   1779   1784   1789   1794
 CVFL5         1 000004C8 FFFFFFEE     R    1800  1804   1809   1814   1819
 CVFL6         1 000004C9 FFFFFFEE     R    1825  1829   1834   1846   1851   1856   1868   1873   1878   1890   1895
                                                  1900   1912
 CVFRLG       16 000004C4 FFFFFFEE         1644 48109
 CVHEAP#       1 00000200 FFFFFFEE A   U    1531  1532
 CVINVRTN      4 00000888 FFFFFFEE     V    2187  2157
 CVJESFLG      1 000004CA FFFFFFEE     R    1918  1922
 CVLNKRGS      4 00000780 FFFFFFEE     F    2134  2109M  2135
 CVLNKRTN      4 000007B0 FFFFFFEE     U    2135  2124M
 CVLOCK1       1 00000088 FFFFFFEE     R    1276  1280   1285
 CVLOCK2       1 00000089 FFFFFFEE     R    1290  1294
 CVLOCK3       1 0000008A FFFFFFEE     R    1299  1303
 CVLOCK4       1 0000008B FFFFFFEE     R    1308  1312
 CVLOGMOD      1 00000068 FFFFFFEE     R    1263  1267
 CVMACH        1 00000067 FFFFFFEE     R    1223  1227   1232   1237   1242   1247   1252   1257
 CVMACHID      8 0000000C FFFFFFEE     C    1203 48049  48063
 CVMILRTN      4 00000884 FFFFFFEE     V    2186  2166
 CVNEXT        4 000007DE FFFFFFEE     I    2154  7406B  7522B  7729B  9195B  9268B 10803B 11444B 11526B 14007B 14089B
 CVNOACTN      4 000007EA FFFFFFEE     I    2160 19788B 19960B 20124B 22012B 22051B
 CVNOARTN      4 00000890 FFFFFFEE     V    2189  2160
 CVNPRINT      4 000008F0 FFFFFFEE     F    2212 14850  14851M
 CVNRJE        4 000008EC FFFFFFEE     F    2211 38744  38745M
 CVNWDATE      4 00000608 FFFFFFEE     F    1991  1995   1995
 CVNWMPG#      1 00000008 FFFFFFEE A   U    1993  1994
 CVONE         4 000004D0 FFFFFFEE     F    1966 19012  20446  41760
 CVPFXRTN      1 00000000 00000000 A   T    2132  2132
 CVPGFLAG      1 00000A01 FFFFFFEE     R    2299  2303   2308   2313
 CVPIOSZ       1 00004F80 FFFFFFEE A   U    1362  1364
 CVPPDBQH      4 0000009C FFFFFFEE     A    1320  1321
 CVPRTQH       4 00000288 FFFFFFEE     A    1536  7665   7666M  8890
 CVPSFNO       1 000003E9 FFFFFFEE A   N    1484  1486
 CVPSLNO       1 000007CF FFFFFFEE A   N    1485  1486
 CVPXSZ        1 00000008 FFFFFFEE A   U    1363  1364
 CVR          12 0000000C 00000001 A   #    1114  1182U
 CVRKEY        1 00000008 FFFFFFEE A   U    2057  2058
 CVSEGRTN      4 00000880 FFFFFFEE     V    2185  2149
 CVSTACK#      1 00000080 FFFFFFEE A   U    1523  1524
1RJE      (RJE4072) (12:53) (15MAR04) Ordinary Symbol and Literal Cross Reference                                           Page  152
 CVSTART       4 00000000 FFFFFFEE     C    1196  2367
 CVTRC         4 00000768 FFFFFFEE     I    2124  2110B
 CVTRCRTN      4 00000778 FFFFFFEE     V    2131  2125
 CVUSFNO       1 00000001 FFFFFFEE A   N    1491  1493
 CVUSLNO       1 000003E7 FFFFFFEE A   N    1492  1493
 CVVOL#        1 00000005 FFFFFFEE A   U    2342  2343
 CVWTOFLG      1 000004CB FFFFFFEE     R    1928  1932   1937   1942   1947   1952
 CVWYLACC      5 00000058 FFFFFFEE     C    1215 41019
 DATACHK       6 000078EA 00000001     I   39884 39881B
 DEBUGSG       1 00000000 00000000 A   T    2085  2085
 DEQUOTE       1 00000000 0000003A     T   24333 24333  30377  40759
 DESRTRN       1 00000080 FFFFFFEC A   U    6174  9485  13447  13451  13452  14142  14146  14147
 DEST          2 00006826 00000001     H   34896 28536
 DESTCHK       1 00000000 00000043     T   38645 38645
 DESTVER       1 00000000 00000045     T   38652 38652
 DEV          12 00000000 FFFFFFEB     J    4723  4731
 DEVMAX#       1 00000002 FFFFFFEC A   U    4674  4731
 DEVTYPE       1 00000001 FFFFFFEB     R    4691  4700   4710
 DOFNAME       1 00000000 0000000A     T    9480  9480  11061
 DOTTBL        1 00000000 00000000 A   T    2201  2201
 DRENCFLG      1 00000F9F FFFFFFEC     R    6129  6133   6138   6143   6148   6153
 DRENPROT      1 00000F9E FFFFFFEC     R    6116  6124
 DSNAUTH       1 00000000 00000021     T   11067 11067
 DSNFMYDS      1 00000040 FFFFFFEC A   U    5866 10369
 DSNFSTD       1 00000080 FFFFFFEC A   U    5865 10464
 DSNFUFMT      1 00000F39 FFFFFFEC         6033 13880  13915M
 DSNON        40 00000E90 FFFFFFEC     C    5849  5850  10638M 10638  10673  10678
 DSNWADSN     44 00000E5C FFFFFFEC     C    5836  5837   5838   5839   5848   5856   6087   6093   6095   6101   6104
                                                  6106   6109   6158  10534  10594
 DSNWAF1       1 00000F34 FFFFFFEC     R    5863 10371  10466
 DSNWAF4       1 00000F37 FFFFFFEC     R    5904  5908   5913   5918   5923   5928   5933   5938   5943
 DSNWAF5       1 00000F38 FFFFFFEC     R    5949  5953   5958   5963   5968   5973   5978   5983   5988
 DSNWAF6       1 00000F39 FFFFFFEC     R    5994  5998   6003   6008   6013   6018   6023   6028   6033
 DSNWAF7       1 00000F3A FFFFFFEC     R    6039  6043   6048   6053   6058
 DSNWAGRP      2 00000E60 FFFFFFEC     X    5837 10486  10512
 DSNWANL       2 00000F06 FFFFFFEC     H    5857 10522  10598
 DSNWAUSR      3 00000E63 FFFFFFEC     X    5838 10501  10511
 DSNXG         1 00000004 FFFFFFEC A   U    5841  5843
 DSNXGL        1 00000003 FFFFFFEC A   U    5842  5843
 DSNXU         1 00000007 FFFFFFEC A   U    5843  5845
 DSNXUL        1 00000004 FFFFFFEC A   U    5844  5845
 DSSIZ         1 00000108 FFFFFFEC A   U    6087  6095   6104   6109
 DTB           1 00000000 0000004B     T   49401 49401
 DUPLEX        2 00006BAC 00000001     H   35962 28656
 DUPPRT        4 00006C74 00000001     F   36149 38661
 DUPRST        2 00006D18 00000001     H   36258 36191
 DUPY          2 00006CEC 00000001     H   36197 36161  36176
 EBCTBL        1 00000000 00000000 A   T    2197  2197
 EBCTBL7       1 00000000 00000000 A   T    2200  2200
 ECBLIST       1 00000000 00000000 A   T    2060  2060
 EJECT         2 000059F4 00000001     H   31001 28279
 ENDOFNM       4 00007852 00000001     I   39836 39839B
 EPARTBL       1 00000000 00000000 A   T    2192  2192
 EVALSTR       1 00000000 0000002F     T   20167 20167
 EXIT0         1 00000000 00000009     T    9479  9479  13462
 EXTCLOSE      1 00000000 00000010     T    9488  9488  13450  14145
 EXTOPEN       1 00000000 0000000E     T    9484  9484  13446  14141
 FCB           2 0000692C 00000001     H   35270 28566  28581  28596
 FCMDBM        2 0000A178 00000001     H   51987 51468
1RJE      (RJE4072) (12:53) (15MAR04) Ordinary Symbol and Literal Cross Reference                                           Page  153
 FCMDBP        2 0000A14C 00000001     H   51921 51453
 FCMDERR       2 0000A03C 00000001     H   51519 51513
 FCMDFPAG      2 0000A098 00000001     H   51647 51378  51393
 FCMDIM        2 0000A1D0 00000001     H   52120 51498
 FCMDIP        2 0000A1A4 00000001     H   52054 51483
 FCMDNORM      2 0000A0C8 00000001     H   51714 51408
 FCMDPAGE      2 0000A068 00000001     H   51580 51363
 FCMDPRT       4 00009E84 00000001     F   51351 52502
 FCMDUM        2 0000A120 00000001     H   51854 51438
 FCMDUP        2 0000A0F4 00000001     H   51788 51423
 FFFOLD        5 00000000 FFFFFFE6         7002 10308M
 FFFSAM        3 00000000 FFFFFFE6         6982 11405  13968
 FFHOST      128 00000090 FFFFFFE6     C    7139 24697
 FFHOSTL       4 0000008C FFFFFFE6     F    7138 24665  24702
 FFINFO      928 00000000 FFFFFFE6     J    7154 10297U 11394U 13957U 24624U
 FFMISC        1 00000002 FFFFFFE6     R    7051  7055   7060   7065   7070   7075
 FFPTYPE       1 00000003 FFFFFFE6     R    7080  7089   7099   7109   7119   7129
 FFRNAME     128 00000218 FFFFFFE6     C    7143 24635
 FFRNAMEL      4 00000214 FFFFFFE6     F    7142 24640
 FFRQTYPE      1 00000001 FFFFFFE6     R    7007  7016   7026   7036   7046
 FFTYPE        1 00000000 FFFFFFE6     R    6953  6962   6972   6982   6992   7002
 FICHE         2 0000714A 00000001     H   37675 28851
 FIELD2        4 00007866 00000001     I   39842 39837B 39845B
 FIELD3        4 000078AE 00000001     I   39862 39865B
 FLASH         2 00006E96 00000001     H   36823 28746
 FMANUAL       2 00006F2E 00000001     H   37062 28821
 FMTBCTRL      2 00000222 FFFFFFDA     C   49793 49970M 50635M
 FMTBKUP       4 000099A4 00000001     I   50537 50271B 50321B 50351B 50521B
 FMTBLINE    237 00000222 FFFFFFDA     C   49792 49793  49794  50786
 FMTBTEXT    235 00000224 FFFFFFDA     C   49794 49971M 50101  50629  50772
 FMTCLCK       1 00000000 0000002E     T   16747 16747
 FMTCMD        2 00009DE4 00000001     H   51206 52500
 FMTCTRL       2 00000048 FFFFFFDA     C   49785 49919M 49924M 49957M 50635  50668  50712
 FMTFLAG       1 00000000 FFFFFFDA     R   49680 49684  49689  49886M
 FMTFSHOW    128 00000000 FFFFFFDA        49684 50286M 50332M 50410
 FMTFSKIP     64 00000000 FFFFFFDA        49689 50585  51621M 51688M
 FMTICTRL      2 0000030F FFFFFFDA     C   49797 49973M 50668M
 FMTILINE    237 0000030F FFFFFFDA     C   49796 49797  49798  50833
 FMTITEXT    235 00000311 FFFFFFDA     C   49798 49974M 50080  50662  50819
 FMTLINE     237 00000048 FFFFFFDA     C   49784 49785  49786  50739
 FMTSG        60 0000000C FFFFFFDA     X   49782 50021  50036  50159  50194  50238  50441  50470  50560
 FMTSGCOD      1 0000000C FFFFFFDA     R   49699 49708  49718  49728  49738  49748  49758  49768
 FMTSGLENF
               4 00000018 FFFFFFDA     A   49774 50713
 FMTSGLOC      4 0000002C FFFFFFDA     A   49778 50106M
 FMTSGUSR      4 00000044 FFFFFFDA     A   49781 50042M
 FMTTBL        1 00009AA0 00000001     X   50958 50120  50959
 FMTTEXT     235 0000004A FFFFFFDA     C   49786 49965M 50013  50063  50611  52494
 FMTUCTRL      2 00000135 FFFFFFDA     C   49789 49967M
 FMTULINE    237 00000135 FFFFFFDA     C   49788 49789  49790  50880
 FMTUTEXT    235 00000137 FFFFFFDA     C   49790 49968M 50866  51107  51192
 FMTVTBL       1 00009BA0 00000001     X   50963 50508  50964  50966  50968  50970  50972  50974  50976  50978  50980
 FMTWA      1020 00000000 FFFFFFDA     J   49805 49834  49863U 50041  50483  50950  50952  50953  51070U 51259U
 FMTWPTRS      4 00000004 FFFFFFDA     A   49693 50253M 50392  50426  50537
 FMTWR         2 000097B2 00000001     H   49821 52491
 FMTXDATE      1 00000000 0000004A     T   49399 49399
 FNAMEFIN      1 00000000 0000000C     T    9482  9482  11065  13445  14140
 FNAMESCN      1 00000000 00000026     T   12093 12093  21332
 FNAMOPTS      1 00000000 0000000B     T    9481  9481
1RJE      (RJE4072) (12:53) (15MAR04) Ordinary Symbol and Literal Cross Reference                                           Page  154
 FNAMPSH       1 00000000 00000018     T   10885 10885
 FNAMPSHF      1 00000000 00000028     T   12138 12138  21407
 FORMS         2 000068AC 00000001     H   35095 12108  21347  28551
 FSEG          2 00009CA0 00000001     H   50995 52496
 FSEGUND       1 00009CF8 00000001     C   51192 51136
 FSR           0 00000000 00000001 A   #    1024  7253   7749M  7783   7961M  8121   8338M  8359   8441M  8461   8526M
                                                  8546   8593M  8613   8659M  8679   8815M  8863   9009M  9038   9095M
                                                  9127   9210M  9235   9283M  9308   9461M 10062  10857M 10990  11036M
                                                 11115  11546M 11593  12072M 12349  12419M 12439  12509M 12541  12980M
                                                 13012  13411M 13516  14109M 14195  14759M 14800  15585M 15626  16700M
                                                 16803  19584M 19627  19803M 19833  19975M 19997  20139M 20267  20853M
                                                 20922  21199M 21227  21311M 21919  22074M 22094  22255M 22275  22436M
                                                 22456  22555M 22575  22674M 22694  22793M 22813  22983M 23003  23049M
                                                 23069  23115M 23135  23263M 23283  23376M 23396  23523M 23543  23589M
                                                 23609  23656M 23676  23722M 23742  23789M 23809  23861M 23881  23927M
                                                 23947  24152M 24203  24231M 24247M 24267  24308M 24369  27835M 27971
                                                 28003M 28018M 28988  29149M 29169  29330M 29369  29615M 29635  29798M
                                                 29879  29930M 29950  30001M 30021  30078M 30098  30139M 30159  30212M
                                                 30232  30282M 30302  30355M 30407  30698M 30718  30792M 30812  30888M
                                                 30908  30990M 31010  31086M 31106  31188M 31208  31305M 31325  31407M
                                                 31427  31524M 31562  31672M 31692  32041M 32061  32228M 32248  32597M
                                                 32617  32816M 32836  33000M 33066  33107M 33127  33168M 33188  33353M
                                                 33449  33490M 33510  33557M 33577  33618M 33638  33684M 33747  33846M
                                                 33867  33966M 34007  34885M 34905  35084M 35104  35259M 35279  35389M
                                                 35409  35599M 35619  35783M 35849  35890M 35910  35951M 35971  36140M
                                                 36206  36247M 36267  36308M 36328  36379M 36399  36509M 36529  36604M
                                                 36624  36699M 36719  36812M 36832  36942M 36962  37051M 37071  37160M
                                                 37180  37564M 37584  37664M 37684  37736M 37756  37808M 37828  37880M
                                                 37900  38033M 38053  38147M 38167  38316M 38336  38416M 38436  38516M
                                                 38536  38624M 38714  38766M 38899  39467M 39519  40228M 40255  40530M
                                                 40557  40695M 40841  43503M 43529  44519M 44633  49366M 49481  49663M
                                                 49831  50950M 51004  51185M 51215  51339M 51528  51569M 51589  51636M
                                                 51656  51703M 51723  51777M 51797  51843M 51863  51910M 51930  51976M
                                                 51996  52043M 52063  52109M 52129  52176M 52242  52471M
 GETACCT       1 00000000 00000044     T   38648 38648
 GETDATA       1 00000000 00000017     T    9500  9500  40749
 GOTDLM        4 00007914 00000001     I   39897 39892B
 HEXSEG        2 00002FDE 00000001     H   20912 20179
 HEXWA         8 00000000 FFFFFFE0     J   20897 20925  20954U 21199  21201  21202
 HEXWORK       8 00000000 FFFFFFE0     X   20890 20988  20995
 HIBAL         1 00000000 FFFFFFFF     J     699   715    728    741    754    767    780    793    806    819    832
                                                   845    858    871    884    897    910
 HOLD          2 000054B2 00000001     H   29626 28099  28114
 HOLDALL       2 0000567C 00000001     H   30012 29849
 HOLDJOB       2 00005614 00000001     H   29870 29819
 HOLDOUT       2 00005648 00000001     H   29941 29834
 HOLDPRT       4 00005574 00000001     F   29807 30381
 HOLDRSTR      2 000056B0 00000001     H   30089 29864
 ID            2 0000540C 00000001     H   29360 28084
 INDENT        2 00005A74 00000001     H   31199 28309
 INVALID       1 00000000 00000000 A   T    2187  2187
 ISDATA        4 000078E2 00000001     I   39882 39869B
 JCACCBAD      2 00008342 00000001     H   43281 41783B 41797B 41849B 41893B 41938B 42016B
 JCACCOK       6 00008086 00000001     I   42018 41619B 41632B 41684B 41857B 41902B 41946B 42010B
 JCBAD         4 00008330 00000001     I   43268 41489B 41565B
 JCBAFL        1 00000062 FFFFFFE9     R    6451  6455   6460   6465   6470   6475   6480   6485   6490
 JCBBFL        1 00000063 FFFFFFE9     R    6496  6500   6505   6510   6515   6520   6525   6530
 JCBBILLX      8 00000088 FFFFFFE9     D    6581  6589   6589
 JCBRSCF1      1 00000064 FFFFFFE9     R    6536  6540   6545   6550
1RJE      (RJE4072) (12:53) (15MAR04) Ordinary Symbol and Literal Cross Reference                                           Page  155
 JCBSFLG1      1 00000065 FFFFFFE9     R    6556  6560   6565
 JCBWFL        1 00000060 FFFFFFE9     R    6380  6384   6389   6394   6399   6404   6409   6414   6419   6447
 JCBWWFL       1 00000061 FFFFFFE9     R    6425  6429   6434   6439   6444
 JCCOM         2 000083A8 00000001     H   43385 43271B 43303B 43335B 43368B
 JCDDONE       2 000083FE 00000001     H   43486 43262B
 JCHKEXIT      2 00007A48 00000001     H   40211 40194B 40197B
 JCKDLM       16 00000000 FFFFFFDC     C   39494 40058M 40059
 JCKWA        16 00000000 FFFFFFDC     J   39501 39522  39551U 40228  40230  40231
 JCLONG        4 0000839A 00000001     I   43372 42683B
 JCLSBUF      80 0000003C FFFFFFDD     C   38869 39070  39075
 JCLSWA      140 00000000 FFFFFFDD     J   38876 38902  38931U 39467  39469  39470
 JCLSX        60 00000000 FFFFFFDD     X   38868 39083  39136  39157  39192  39213  39230  39283  39309
 JCLSXCOD      1 00000000 FFFFFFDD     R   38785 38794  38804  38814  38824  38834  38844  38854
 JCLSXLENF
               4 0000000C FFFFFFDD     A   38860 39336
 JCLSXLOC      4 00000020 FFFFFFDD     A   38864 39331
 JCNAMBAD      2 0000835E 00000001     H   43313 42461B
 JCNAML        2 0000837A 00000001     I   43345 42068B 42159B 42288B
 JESOCLS       1 00000000 00000046     T   40744 40744
 JESODEL       1 00000000 00000031     T   20176 20176
 JESRTN        1 00000000 00000047     T   40750 40750
 JESWR         1 00000000 0000004C     T   52490 52490
 JOBCARD       2 00007D3E 00000001     H   40831 11070  13458  16741
 JOBCHAR       1 00000000 FFFFFFDB     C   40806 41603M 41669M 42542  42558  42563
 JOBCLOSE      2 000075A4 00000001     H   38889 11075  13453  14148  16738
 JOBCLXIT      2 00007732 00000001     H   39450 39001B 39118B
 JOBCNTL       2 000088FA 00000001     H   44624 11071  13459  16743  40743
 JOBCNTLX      2 00009582 00000001     H   49354 44671B 44690B
 JOBCRDCK      2 00007740 00000001     H   39509 13469
 JOBCRFND      2 00007A3E 00000001     H   40201 39577B 39849B
 JOBFIELD      9 0000000C FFFFFFDB     C   40808 40982M 40983M 40984M 40985M 41474M 42755  42760
 JOBKWCHK      1 00000000 00000049     T   44567 44567
 JOBNAME       2 00005310 00000001     H   28979 28039  28054
 JOBOPEN       2 0000756C 00000001     H   38705 11069  13457  16740
 JOBPTRS       4 00000004 FFFFFFDB     A   40807 40954M 42653  42654
 JOBWA        21 00000000 FFFFFFDB     J   40815 40844  40873U 43503  43505  43506
 JUSTDATA      2 00007A30 00000001     H   40191 39633B 39664B 39782B 39824B 39833B 39840B 39846B 39857B 39859B 39866B
                                                 39871B 39886B 39889B 39895B 39899B 39901B 39967B 39984B 40004B 40064B
 KEEP          2 00006042 00000001     H   32827 28444
 KEEPBACK      2 000061AC 00000001     H   33118 33051
 KEEPPRT       4 00006108 00000001     F   33009 33719
 KEEPYES       2 00006180 00000001     H   33057 33021  33036
 KWIO          1 00000000 0000002B     T   13466 13466  16753  44570
 KWR         504 00000000 FFFFFFE8     J    6817 12620  12630U 12864M 12864  12865M 12865  13481  16046  16056U 16291M
                                                 16291  16292M 16292  16765  43560  43568U 43576M 43576  43577M 43577
                                                 44240M 44240  44241M 44241  44582
 KWRAFL        1 0000000F FFFFFFE8     X    6644 43776
 KWRAFVAL      1 00000080 FFFFFFE8 A   U    6645 43774
 KWRBFL        1 00000020 FFFFFFE8     X    6658 43658
 KWRBFVAL      1 00000080 FFFFFFE8 A   U    6659 43656
 KWRBIN        3 00000010 FFFFFFE8     C    6650 12831  16258  43986
 KWRCRD        1 00000040 FFFFFFE8 A   U    6809 12643  16069
 KWRCWR        1 00000080 FFFFFFE8 A   U    6808 44205
 KWRDEST       8 00000021 FFFFFFE8     C    6666 12809  16236  43963
 KWRDSTRT      1 00000005 FFFFFFE8     U    6628  6790   6790
 KWRFORM       4 00000029 FFFFFFE8     C    6667 12853  12853  16280  16280
 KWRGRP        2 00000003 FFFFFFE8     C    6625 43692  43697  43810  43815
 KWRHFCK       1 00000080 FFFFFFE8 A   U    6795 12656  16082
 KWRHFL        1 000001F4 FFFFFFE8     X    6794 12658  16084  44220
1RJE      (RJE4072) (12:53) (15MAR04) Ordinary Symbol and Literal Cross Reference                                           Page  156
 KWRHFUOK      1 00000040 FFFFFFE8 A   U    6796 44218
 KWRIFL        1 0000000E FFFFFFE8     X    6634 12677  16103  44126
 KWRIFVAL      1 00000080 FFFFFFE8 A   U    6635 12675  16101  44124
 KWRJFFOR      1 00000040 FFFFFFE8 A   U    6686 42373
 KWRJFHOL      1 00000010 FFFFFFE8 A   U    6687 42985
 KWRJFL        1 00000037 FFFFFFE8     X    6684 43962
 KWRJFNOT      1 00000008 FFFFFFE8 A   U    6688 43185
 KWRJFNUM      1 00000080 FFFFFFE8 A   U    6685 42905
 KWRJNO        2 00000040 FFFFFFE8     H    6695 44017  44138  44161M
 KWRJPFX       8 00000038 FFFFFFE8     C    6694 43987  43999M 43999
 KWRLCP        2 0000001A FFFFFFE8     H    6654 44014
 KWRLLC        2 0000001C FFFFFFE8     H    6655 44011
 KWRRJE        2 00000008 FFFFFFE8     H    6630 44166  44167M 44192M 44192
 KWRSEXP       1 000000F1 FFFFFFE8 A   U    6739 43908
 KWRSOVB       1 000000F3 FFFFFFE8 A   U    6741 43935
 KWRSTART      4 00000000 FFFFFFE8     F    6623  6804
 KWRSTAT       1 00000063 FFFFFFE8     C    6738 43908  43935
 KWRUSER       3 00000000 FFFFFFE8     C    6624  6626   6626  12634M 16060M 43578M 43738  43743  43856  43861
 LAND          2 00006DCC 00000001     H   36520 28731
 LEXATRTN      1 00000040 FFFFFFEC A   U    6176 13451  14146
 LISTPSH       1 00000000 00000019     T   10930 10930  12259  21783
 LOCALTOD      1 00000000 0000002D     T   16746 16746  49398
 LOCATRTN      1 00000000 FFFFFFEC A   U    6178 13452  14147
 LOWTBL        1 00000000 00000000 A   T    2195  2195
 LPRDISP       2 00000724 00000001     H    9299  9267B  9295
 LRTRIM        1 00000000 00000014     T    9497  9497  44550
 LSR           8 00000008 00000001 A   #    1062  7253   7749M  7783   7961M  8121   8338M  8359   8441M  8461   8526M
                                                  8546   8593M  8613   8659M  8679   8815M  8863   9009M  9038   9095M
                                                  9127   9210M  9235   9283M  9308   9461M 10062  10857M 10990  11036M
                                                 11115  11546M 11593  12072M 12349  12419M 12439  12509M 12541  12980M
                                                 13012  13411M 13516  14109M 14195  14759M 14800  15585M 15626  16700M
                                                 16803  19584M 19627  19803M 19833  19975M 19997  20139M 20267  20853M
                                                 20922  21199M 21227  21311M 21919  22074M 22094  22255M 22275  22436M
                                                 22456  22555M 22575  22674M 22694  22793M 22813  22983M 23003  23049M
                                                 23069  23115M 23135  23263M 23283  23376M 23396  23523M 23543  23589M
                                                 23609  23656M 23676  23722M 23742  23789M 23809  23861M 23881  23927M
                                                 23947  24152M 24203  24247M 24267  24308M 24369  27835M 27971  28018M
                                                 28988  29149M 29169  29330M 29369  29615M 29635  29798M 29879  29930M
                                                 29950  30001M 30021  30078M 30098  30139M 30159  30212M 30232  30282M
                                                 30302  30355M 30407  30698M 30718  30792M 30812  30888M 30908  30990M
                                                 31010  31086M 31106  31188M 31208  31305M 31325  31407M 31427  31524M
                                                 31562  31672M 31692  32041M 32061  32228M 32248  32597M 32617  32816M
                                                 32836  33000M 33066  33107M 33127  33168M 33188  33353M 33449  33490M
                                                 33510  33557M 33577  33618M 33638  33684M 33747  33846M 33867  33966M
                                                 34007  34885M 34905  35084M 35104  35259M 35279  35389M 35409  35599M
                                                 35619  35783M 35849  35890M 35910  35951M 35971  36140M 36206  36247M
                                                 36267  36308M 36328  36379M 36399  36509M 36529  36604M 36624  36699M
                                                 36719  36812M 36832  36942M 36962  37051M 37071  37160M 37180  37564M
                                                 37584  37664M 37684  37736M 37756  37808M 37828  37880M 37900  38033M
                                                 38053  38147M 38167  38316M 38336  38416M 38436  38516M 38536  38624M
                                                 38714  38766M 38899  39467M 39519  40228M 40255  40530M 40557  40695M
                                                 40841  43503M 43529  44519M 44633  49366M 49481  49663M 49831  50950M
                                                 51004  51185M 51215  51339M 51528  51569M 51589  51636M 51656  51703M
                                                 51723  51777M 51797  51843M 51863  51910M 51930  51976M 51996  52043M
                                                 52063  52109M 52129  52176M 52242  52471M
 LXCATRTN      1 00000060 FFFFFFEC A   U    6177  9485  13447  14142
 MAIL          2 0000651C 00000001     H   33738 28505
 MALL          1 00000000 00000004     T    8104  8104  10974  12333  21902  24187  27954  29863  33050  33433  35833
                                                 36190  40730  51512
1RJE      (RJE4072) (12:53) (15MAR04) Ordinary Symbol and Literal Cross Reference                                           Page  157
 MANUAL        2 00006EEE 00000001     H   36953 28806
 MEMBERED      1 00000000 00000025     T   11077 11077
 MILERR        1 00000000 00000000 A   T    2186  2186
 MINT          1 00000000 00000035     T   24172 24172
 MIXFMT        1 00000000 00000037     T   24330 24330
 MIXSEG        2 0000309C 00000001     H   21218 20180
 MKFFINFO      1 00000000 0000001E     T   11060 11060  13439  14135
 MPARM         1 00000000 00000002     T    7984  7984   7999   8014  12107  21346  21452  21467  21482  21497  21512
                                                 21527  21557  28038  28053  28068  28083  28218  28233  28368  28383
                                                 28398  28413  28428  28488  28504  28535  28550  28565  28580  28595
                                                 28610  28625  28685  28745  28760  28775  28865  28880  28895
 MPINT         1 00000000 0000003E     T   28248 28248  28263  28278  28308  28338
 MTOKEN        1 00000000 00000003     T    8029  8029   8044   8059   8074   8089  10899  12092  12153  12168  12183
                                                 12198  12213  12228  12243  21331  21376  21391  21422  21437  21542
                                                 21572  21587  21602  21617  21632  21647  21662  21677  21692  21707
                                                 21722  21737  21752  21767  21887  28098  28113  28128  28143  28158
                                                 28173  28188  28203  28293  28323  28353  28443  28458  28473  28520
                                                 28640  28655  28670  28700  28715  28730  28790  28805  28820  28835
                                                 28850  28910  28925  28940  28955  29818  29833  29848  33020  33035
                                                 33373  33388  33403  33418  35803  35818  36160  36175  51362  51377
                                                 51392  51407  51422  51437  51452  51467  51482  51497
 NBLTBL        1 00000000 00000000 A   T    2199  2199
 NCHKPRT       4 00007BC4 00000001     F   40704 40761
 NDETRNG       1 00000000 0000000D     T    9483  9483  13438  14134
 NOACTION      1 00000000 00000000 A   T    2189  2189
 NODUPLEX      2 00006D44 00000001     H   36319 28671
 NOEJECT       2 000059B2 00000001     H   30899 28294
 NOHOLD        2 000056DC 00000001     H   30150 28129
 NOINDENT      2 00005A32 00000001     H   31097 28324
 NOJCL         2 00007352 00000001     H   38427 28926
 NOLOG         2 00007316 00000001     H   38327 28911
 NOMARK        2 0000260E 00000001     H   17640 17617B
 NOMSG         2 0000738E 00000001     H   38527 28941  28956
 NOSEP         2 000063EC 00000001     H   33629 21392  28474
 NOTEXIT       2 0000591C 00000001     H   30679 30585B 30608B
 NOTIFY        2 00005810 00000001     H   30398 28189  28204
 NOTVALID      1 00000000 00000008     T    9478  9478  10975  12244  12334  13465  24334  27955  30373  31540  33712
                                                 38651
 NOWRAP        2 00005ABA 00000001     H   31316 28354
 NOXHOLD       2 0000573C 00000001     H   30293 28174
 NPARTBL       1 00000000 00000000 A   T    2193  2193
 NRESOLVE      1 00000000 0000003C     T   27857 27857
 NSCAN         1 00000000 00000011     T    9492  9492  11063  13441  14137  16733  20164  24341  30382  31538  33714
                                                 38659  40757
 NSCANSTR      1 00000000 00000042     T   38640 38640  52503
 NSCNCB      176 00000000 FFFFFFED     J    2458  2584   7470M  7471M  7906M  7907M  7923   7924   7925   7928M  7929M
                                                  7931M  7941M  7942M  7943M  8188   8189   8190   8193M  8194M  8195M
                                                  8205M  8206M  8207M  8241   8294   8295   8296   8299M  8300M  8301M
                                                  8311M  8312M  8313M  8420   9156   9157  10259  10260  10261  10264M
                                                 10265M 10267M 10277M 10278M 10279M 10420  10421  10422  10425M 10426M
                                                 10428M 10438M 10439M 10440M 11278  11279  11280  11283M 11284M 11286M
                                                 11296M 11297M 11298M 11330  11331  11332  11335M 11336M 11338M 11348M
                                                 11349M 11350M 11677M 11678M 11710  11711  11712  11715M 11716M 11718M
                                                 11728M 11729M 11730M 13784  13785  13786  13789M 13790M 13792M 13802M
                                                 13803M 13804M 13836  13837  13838  13841M 13842M 13844M 13854M 13855M
                                                 13856M 14279M 14280M 14518  14519  14520  14523M 14524M 14526M 14536M
                                                 14537M 14538M 14562U 16949M 16950M 16997  16998  16999  17002M 17003M
                                                 17005M 17015M 17016M 17017M 17200M 17201M 17248  17249  17250  17253M
                                                 17254M 17256M 17266M 17267M 17268M 23164  23425  23984  23985  23986
1RJE      (RJE4072) (12:53) (15MAR04) Ordinary Symbol and Literal Cross Reference                                           Page  158
                                                 23989M 23990M 23992M 24002M 24003M 24004M 24027  24042  24057  24058
                                                 24059M 24059  24060  24061M 24074M 29043  29224  29398  29671  29672
                                                 29673  29676M 29677M 29679M 29689M 29690M 29691M 29724  29739  29754
                                                 29755  29756M 29756  29757  29758M 29771M 30465  30514  30515  30516
                                                 30519M 30520M 30521M 30531M 30532M 30533M 30622  30637  30652  30653
                                                 30654M 30654  30655  30656M 30669M 30747  31617  31721  31798  31800
                                                 31819M 31820M 31835  31836  31837  31840M 31841M 31842M 31852M 31853M
                                                 31854M 31864  31897  31898  31899  31902M 31903M 31904M 31914M 31915M
                                                 31916M 31926  31956  31957  31958  31961M 31962M 31963M 31973M 31974M
                                                 31975M 32014  32277  32354  32356  32375M 32376M 32391  32392  32393
                                                 32396M 32397M 32398M 32408M 32409M 32410M 32420  32453  32454  32455
                                                 32458M 32459M 32460M 32470M 32471M 32472M 32482  32512  32513  32514
                                                 32517M 32518M 32519M 32529M 32530M 32531M 32570  32878  32879  32880
                                                 32883M 32884M 32886M 32896M 32897M 32898M 32926  32941  32956  32957
                                                 32958M 32958  32959  32960M 32973M 33231  33232  33233  33236M 33237M
                                                 33239M 33249M 33250M 33251M 33279  33294  33309  33310  33311M 33311
                                                 33312  33313M 33326M 33724  34054  34055  34056  34059M 34069M 34070M
                                                 34071M 35055  35189  35334  35464  35661  35662  35663  35666M 35667M
                                                 35669M 35679M 35680M 35681M 35709  35724  35739  35740  35741M 35741
                                                 35742  35743M 35756M 36018  36019  36020  36023M 36024M 36026M 36036M
                                                 36037M 36038M 36066  36081  36096  36097  36098M 36098  36099  36100M
                                                 36113M 36454  36887  37288  37308  37310  37329M 37330M 37347  37348
                                                 37349  37352M 37353M 37354M 37364M 37365M 37366M 37419  37433  37434
                                                 37435  37438M 37439M 37440M 37450M 37451M 37452M 37510  37857  38082
                                                 38196  38677  39919M 39920M 39935  39936  39937  39940M 39941M 39942M
                                                 39952M 39953M 39954M 40029  40607  40609  40630M 40631M 40646  40647
                                                 40648  40651M 40652M 40654M 40664M 40665M 40666M 40674  40775  51265
                                                 51267  51282M 51283M 51298  51299  51300  51304M 51314M 51315M 51316M
                                                 51324  52509
 NSCNFLGS      1 00000008 FFFFFFED     R    2395  2399   2404
 NSCNKWS       4 00000028 FFFFFFED     A    2444  7923   7931M  7941M  8188   8195M  8205M  8294   8301M  8311M 10259
                                                 10267M 10277M 10420  10428M 10438M 11278  11286M 11296M 11330  11338M
                                                 11348M 11710  11718M 11728M 13784  13792M 13802M 13836  13844M 13854M
                                                 14518  14526M 14536M 16997  17005M 17015M 17248  17256M 17266M 23984
                                                 23992M 24002M 29671  29679M 29689M 30514  30521M 30531M 31835  31842M
                                                 31852M 31897  31904M 31914M 31956  31963M 31973M 32391  32398M 32408M
                                                 32453  32460M 32470M 32512  32519M 32529M 32878  32886M 32896M 33231
                                                 33239M 33249M 34054  34059M 34069M 35661  35669M 35679M 36018  36026M
                                                 36036M 37347  37354M 37364M 37433  37440M 37450M 39935  39942M 39952M
                                                 40646  40654M 40664M 51298  51304M 51314M
 NSCNLEN       4 00000004 FFFFFFED     F    2392  7471M  7907M  9157  11678M 14280M 16950M 17201M 24060  24061M 29757
                                                 29758M 30655  30656M 31820M 32376M 32959  32960M 33312  33313M 35742
                                                 35743M 36099  36100M 37330M 39920M 40631M 51283M
 NSCNLOC       4 00000000 FFFFFFED     A    2391  7470M  7906M  9156  11677M 14279M 16949M 17200M 24057  24059M 29754
                                                 29756M 30652  30654M 31819M 32375M 32956  32958M 33309  33311M 35739
                                                 35741M 36096  36098M 37329M 39919M 40630M 51282M
 NSCNMSG      80 00000060 FFFFFFED     C    2451 14574
 NSCNMSGL      4 0000005C FFFFFFED     F    2450 14579
 NSCNSKIP      4 00000024 FFFFFFED     A    2443  7924   7928M  7942M  8189   8193M  8206M  8295   8299M  8312M 10260
                                                 10264M 10278M 10421  10425M 10439M 11279  11283M 11297M 11331  11335M
                                                 11349M 11711  11715M 11729M 13785  13789M 13803M 13837  13841M 13855M
                                                 14519  14523M 14537M 16998  17002M 17016M 17249  17253M 17267M 23985
                                                 23989M 24003M 29672  29676M 29690M 30515  30519M 30532M 31836  31840M
                                                 31853M 31898  31902M 31915M 31957  31961M 31974M 32392  32396M 32409M
                                                 32454  32458M 32471M 32513  32517M 32530M 32879  32883M 32897M 33232
                                                 33236M 33250M 34055  34070M 35662  35666M 35680M 36019  36023M 36037M
                                                 37348  37352M 37365M 37434  37438M 37451M 39936  39940M 39953M 40647
                                                 40651M 40665M 51299  51315M
 NSCNSTOP      4 00000020 FFFFFFED     A    2442  7925   7929M  7943M  8190   8194M  8207M  8296   8300M  8313M 10261
1RJE      (RJE4072) (12:53) (15MAR04) Ordinary Symbol and Literal Cross Reference                                           Page  159
                                                 10265M 10279M 10422  10426M 10440M 11280  11284M 11298M 11332  11336M
                                                 11350M 11712  11716M 11730M 13786  13790M 13804M 13838  13842M 13856M
                                                 14520  14524M 14538M 16999  17003M 17017M 17250  17254M 17268M 23986
                                                 23990M 24004M 29673  29677M 29691M 30516  30520M 30533M 31837  31841M
                                                 31854M 31899  31903M 31916M 31958  31962M 31975M 32393  32397M 32410M
                                                 32455  32459M 32472M 32514  32518M 32531M 32880  32884M 32898M 33233
                                                 33237M 33251M 34056  34071M 35663  35667M 35681M 36020  36024M 36038M
                                                 37349  37353M 37366M 37435  37439M 37452M 39937  39941M 39954M 40648
                                                 40652M 40666M 51300  51316M
 NSCNTLEN      4 00000014 FFFFFFED     F    2410 24027  24074M 29724  29771M 30622  30669M 32926  32973M 33279  33326M
                                                 35709  35756M 36066  36113M
 NSCNTLOC      4 00000010 FFFFFFED     A    2409 24042  24058  24059  29739  29755  29756  30637  30653  30654  32941
                                                 32957  32958  33294  33310  33311  35724  35740  35741  36081  36097
                                                 36098
 NSCNTOK      16 00000030 FFFFFFED     C    2446  8241   8420  23164  23425  29043  29224  29398  30465  30747  31617
                                                 31721  31864  31926  32277  32420  32482  35055  35189  35334  35464
                                                 36454  36887  37288  37419  37857  38082  38196  40029
 NSCNTYPE      1 00000018 FFFFFFED     R    2413  2417   2422   2427   2432   2437
 OPTLINE       2 00003E5E 00000001     H   24360 16742
 PBACK         2 00003AFE 00000001     H   23534 21693
 PCC           2 00003A0C 00000001     H   23126 21573  21588
 PDARK         2 00003C0A 00000001     H   23938 21768
 PDARKCNT      2 00003D34 00000001     H   24194 24173
 PDARKPRT      4 00003CE4 00000001     F   24161 24340
 PDARKRST      2 00003D66 00000001     H   24258 24188
 PDOC          2 00003BDE 00000001     H   23872 21753
 PDOUBLE       2 00003AA8 00000001     H   23387 21633  21648
 PFAXAUTH      2 000038AA 00000001     H   22566 21513
 PFAXEM        2 000038F8 00000001     H   22685 21528
 PFAXRCPT      2 0000385C 00000001     H   22447 21498
 PFMT          2 00003B56 00000001     H   23667 21888
 PFORMAT       2 00006D74 00000001     H   36390 28686
 PHEADER       2 000037F0 00000001     H   22266 21468  21483
 PHEX          2 000039B4 00000001     H   22994 21663
 PMARKER       2 00003946 00000001     H   22804 21558
 PMEMO         2 00003BAE 00000001     H   23800 21738
 PMIXED        2 000039E0 00000001     H   23060 21678
 PNOBACK       2 00003B2A 00000001     H   23600 21708
 PNOCC         2 00003A66 00000001     H   23274 21603  21618
 PORT          2 00006E0C 00000001     H   36615 28716
 POST          2 00006E4C 00000001     H   36710 28701
 PREFIX        2 0000538E 00000001     H   29160 28069
 PRINT         2 0000187A 00000001     H   13506 13502
 PRINTBCC      2 00002A6E 00000001     H   19618 18542B 18555B
 PRINTC        4 00002A3C 00000001     I   19524 19321B 19346B
 PRINTDEL      2 00002B84 00000001     H   19988 20178
 PRINTER       2 00006984 00000001     H   35400 28611  28626
 PRINTJCL      2 00001CEC 00000001     H   14791 16735  20168
 PRINTMLL      2 00001CA0 00000001     I   14662 14678B
 PRINTMSG      2 00001B22 00000001     H   14185 14181
 PRINTMX       2 00001CDE 00000001     H   14739 14599B
 PRINTOPT      2 00001F28 00000001     H   15617 16739
 PRINTPRF      4 000030E8 00000001     F   21320 14136
 PRINTPRT      4 000031D8 00000001     F   21411 14139  16732  20163
 PRINTRTN      2 00002364 00000001     H   16794 14143  16736
 PRINTXIT      2 00002A60 00000001     H   19572 17044B 17629B 18381B
 PRIORITY      2 00005BB2 00000001     H   31683 28399  28414
 PRT         138 00000000 FFFFFFE5     J    7198  7218   7695U  7707M  7707   7712   7828U  8153M  8153   8709   8727
                                                  8781U  8890   8911U  9072U
1RJE      (RJE4072) (12:53) (15MAR04) Ordinary Symbol and Literal Cross Reference                                           Page  160
 PRTACCT       5 00000035 FFFFFFE5     C    7190  8421M  8422M  9075
 PRTCMD       80 0000003A FFFFFFE5     C    7191  8498   8503   9079   9079   9502
 PRTFLAG       1 00000004 FFFFFFE5     R    7179  7183
 PRTFNKEY    128 00000004 FFFFFFE5         7183  8578M  8644M
 PRTLINK       4 00000000 FFFFFFE5     A    7175  7699   8787M  8890   8925
 PRTMAX#       1 00000006 FFFFFFE5 A   U    7187  7188   9494
 PRTNAME       8 00000005 FFFFFFE5     C    7188  8165   8170   8177   8177   8281   8282   8936   8976
 PTITLE        2 00003784 00000001     H   22085 21453
 PUFMT         2 00003B82 00000001     H   23733 21377  21723
 QUIETPSH      1 00000000 0000001B     T   10960 10960  12319  21873
 RAR          14 0000000E 00000001 A   #    1140  2124   2125M  2126B  2128M  2129B  2149M  2150B  2154M  2155B  2157M
                                                  2158B  2160M  2161B  2163M  2164B  2166M  2167M  2167B  2173   7250
                                                  7382M  7383M  7383B  7404M  7405M  7405B  7440M  7441M  7441B  7454M
                                                  7455M  7455B  7478M  7479M  7479B  7482M  7483M  7483B  7486M  7487M
                                                  7487B  7504M  7505M  7505B  7509M  7510M  7510B  7534M  7535M  7535B
                                                  7539M  7540M  7540B  7634M  7635M  7635B  7656M  7657M  7657B  7751M
                                                  7754B  7780   7934M  7935M  7935B  7963M  7966B  8118   8173M  8174M
                                                  8174B  8198M  8199M  8199B  8304M  8305M  8305B  8340M  8343B  8356
                                                  8443M  8446B  8458   8506M  8507M  8507B  8528M  8531B  8543   8595M
                                                  8598B  8610   8661M  8664B  8676   8817M  8820B  8860   9011M  9014B
                                                  9035   9097M  9100B  9124   9164M  9165M  9165B  9192M  9193M  9193B
                                                  9212M  9215B  9232   9263M  9264M  9264B  9267M  9285M  9288B  9305
                                                  9341M  9342M  9342B  9383M  9384M  9384B  9423M  9424M  9424B  9441M
                                                  9442M  9442B  9463M  9466B 10059  10206M 10207M 10207B 10221M 10222M
                                                 10222B 10243M 10244M 10244B 10247M 10248M 10248B 10270M 10271M 10271B
                                                 10284M 10285M 10285B 10319M 10320M 10320B 10340M 10341M 10341B 10385M
                                                 10386M 10386B 10431M 10432M 10432B 10445M 10446M 10446B 10551M 10552M
                                                 10552B 10559M 10560M 10560B 10563M 10564M 10564B 10582M 10583M 10583B
                                                 10609M 10610M 10610B 10626M 10627M 10627B 10661M 10662M 10662B 10689M
                                                 10690M 10690B 10717M 10718M 10718B 10752M 10753M 10753B 10760M 10761M
                                                 10761B 10825M 10826M 10826B 10829M 10830M 10830B 10859M 10862B 10987
                                                 11038M 11041B 11112  11206M 11207M 11207B 11221M 11222M 11222B 11230M
                                                 11231M 11231B 11247M 11248M 11248B 11266M 11267M 11267B 11289M 11290M
                                                 11290B 11303M 11304M 11304B 11341M 11342M 11342B 11355M 11356M 11356B
                                                 11364M 11365M 11365B 11384M 11385M 11385B 11431M 11432M 11432B 11455M
                                                 11456M 11456B 11459M 11460M 11460B 11494M 11495M 11495B 11516M 11517M
                                                 11517B 11524M 11525M 11525B 11548M 11551B 11590  11661M 11662M 11662B
                                                 11721M 11722M 11722B 11735M 11736M 11736B 11763M 11764M 11764B 11778M
                                                 11779M 11779B 11785M 11786M 11786B 11793M 11794M 11794B 11797M 11798M
                                                 11798B 11815M 11816M 11816B 11833M 11834M 11834B 11851M 11852M 11852B
                                                 11871M 11872M 11872B 11876M 11877M 11877B 11899M 11900M 11900B 11917M
                                                 11918M 11918B 11923M 11927M 11957M 11958M 11958B 11984M 11985M 11985B
                                                 12010M 12011M 12011B 12028M 12029M 12029B 12046M 12047M 12047B 12051M
                                                 12052M 12052B 12074M 12077B 12346  12393M 12394M 12394B 12421M 12424B
                                                 12436  12489M 12490M 12490B 12511M 12514B 12538  12646M 12647M 12647B
                                                 12699M 12700M 12700B 12729M 12730M 12730B 12747M 12748M 12748B 12777M
                                                 12778M 12778B 12982M 12985B 13009  13104M 13105M 13105B 13114M 13115M
                                                 13115B 13129M 13130M 13130B 13140M 13141M 13141B 13156M 13157M 13157B
                                                 13190M 13191M 13191B 13274M 13275M 13275B 13367M 13368M 13368B 13391M
                                                 13392M 13392B 13413M 13416B 13513  13602M 13603M 13603B 13617M 13618M
                                                 13618B 13735M 13736M 13736B 13752M 13753M 13753B 13772M 13773M 13773B
                                                 13795M 13796M 13796B 13809M 13810M 13810B 13847M 13848M 13848B 13861M
                                                 13862M 13862B 13947M 13948M 13948B 13994M 13995M 13995B 14018M 14019M
                                                 14019B 14022M 14023M 14023B 14057M 14058M 14058B 14079M 14080M 14080B
                                                 14087M 14088M 14088B 14111M 14114B 14192  14263M 14264M 14264B 14320M
                                                 14321M 14321B 14335M 14336M 14336B 14529M 14530M 14530B 14590M 14591M
                                                 14591B 14627M 14628M 14628B 14654M 14662M 14676M 14677M 14677B 14718M
                                                 14719M 14719B 14726M 14727M 14727B 14735M 14736M 14736B 14761M 14764B
                                                 14797  14831M 14832M 14832B 14836M 14837M 14837B 14844M 14845M 14845B
1RJE      (RJE4072) (12:53) (15MAR04) Ordinary Symbol and Literal Cross Reference                                           Page  161
                                                 14854M 14855M 14855B 14858M 14859M 14859B 14882M 14883M 14883B 14934M
                                                 14935M 14935B 14982M 14983M 14983B 15019M 15020M 15020B 15048M 15049M
                                                 15049B 15145M 15146M 15146B 15177M 15178M 15178B 15217M 15218M 15218B
                                                 15267M 15268M 15268B 15292M 15293M 15293B 15299M 15300M 15300B 15325M
                                                 15326M 15326B 15345M 15346M 15346B 15372M 15373M 15373B 15389M 15390M
                                                 15390B 15416M 15417M 15417B 15449M 15450M 15450B 15477M 15478M 15478B
                                                 15494M 15495M 15495B 15516M 15517M 15517B 15539M 15540M 15540B 15563M
                                                 15564M 15564B 15587M 15590B 15623  16072M 16073M 16073B 16125M 16126M
                                                 16126B 16155M 16156M 16156B 16173M 16174M 16174B 16203M 16204M 16204B
                                                 16702M 16705B 16800  17008M 17009M 17009B 17022M 17023M 17023B 17149M
                                                 17150M 17150B 17162M 17163M 17163B 17259M 17260M 17260B 17273M 17274M
                                                 17274B 17381M 17382M 17382B 17671M 17672M 17672B 17802M 17803M 17803B
                                                 17842M 17843M 17843B 17926M 17927M 17927B 17982M 17983M 17983B 18059M
                                                 18060M 18060B 18123M 18124M 18124B 18163M 18164M 18164B 18201M 18202M
                                                 18202B 18237M 18238M 18238B 18274M 18275M 18275B 18298M 18299M 18299B
                                                 18371M 18372M 18372B 18764M 18765M 18765B 18845M 18846M 18846B 19044M
                                                 19045M 19045B 19108M 19109M 19109B 19183M 19184M 19184B 19212M 19213M
                                                 19213B 19255M 19256M 19256B 19319M 19320M 19320B 19344M 19345M 19345B
                                                 19353M 19354M 19354B 19441M 19442M 19442B 19519M 19520M 19520B 19562M
                                                 19563M 19563B 19586M 19589B 19624  19655M 19656M 19656B 19683M 19684M
                                                 19684B 19701M 19702M 19702B 19735M 19736M 19736B 19757M 19758M 19758B
                                                 19762M 19763M 19763B 19786M 19787M 19787B 19805M 19808B 19830  19869M
                                                 19870M 19870B 19896M 19897M 19897B 19914M 19915M 19915B 19934M 19935M
                                                 19935B 19958M 19959M 19959B 19977M 19980B 19994  20033M 20034M 20034B
                                                 20060M 20061M 20061B 20078M 20079M 20079B 20098M 20099M 20099B 20122M
                                                 20123M 20123B 20141M 20144B 20264  20598M 20599M 20599B 20682M 20683M
                                                 20683B 20760M 20761M 20761B 20787M 20788M 20788B 20832M 20833M 20833B
                                                 20855M 20858B 20919  20998M 20999M 20999B 21089M 21090M 21090B 21116M
                                                 21117M 21117B 21147M 21148M 21148B 21178M 21179M 21179B 21201M 21204B
                                                 21224  21255M 21256M 21256B 21281M 21282M 21282B 21295M 21296M 21296B
                                                 21313M 21316B 21916  21992M 21993M 21993B 22010M 22011M 22011B 22049M
                                                 22050M 22050B 22058M 22059M 22059B 22076M 22079B 22091  22153M 22154M
                                                 22154B 22169M 22170M 22170B 22257M 22260B 22272  22334M 22335M 22335B
                                                 22350M 22351M 22351B 22438M 22441B 22453  22531M 22532M 22532B 22557M
                                                 22560B 22572  22650M 22651M 22651B 22676M 22679B 22691  22769M 22770M
                                                 22770B 22795M 22798B 22810  22936M 22937M 22937B 22955M 22956M 22956B
                                                 22985M 22988B 23000  23051M 23054B 23066  23117M 23120B 23132  23265M
                                                 23268B 23280  23378M 23381B 23393  23525M 23528B 23540  23591M 23594B
                                                 23606  23658M 23661B 23673  23724M 23727B 23739  23791M 23794B 23806
                                                 23863M 23866B 23878  23929M 23932B 23944  23995M 23996M 23996B 24154M
                                                 24157B 24200  24249M 24252B 24264  24310M 24313B 24366  24418M 24419M
                                                 24419B 24453M 24454M 24454B 24510M 24511M 24511B 24545M 24546M 24546B
                                                 24573M 24574M 24574B 24596M 24597M 24597B 24614M 24615M 24615B 24651M
                                                 24652M 24652B 24686M 24687M 24687B 24713M 24714M 24714B 24734M 24735M
                                                 24735B 24788M 24789M 24789B 24826M 24827M 24827B 24873M 24874M 24874B
                                                 24930M 24931M 24931B 24967M 24968M 24968B 24995M 24996M 24996B 25066M
                                                 25067M 25067B 25101M 25102M 25102B 25129M 25130M 25130B 25168M 25169M
                                                 25169B 25195M 25196M 25196B 25249M 25250M 25250B 25277M 25278M 25278B
                                                 25316M 25317M 25317B 25344M 25345M 25345B 25397M 25398M 25398B 25425M
                                                 25426M 25426B 25463M 25464M 25464B 25491M 25492M 25492B 25548M 25549M
                                                 25549B 25576M 25577M 25577B 25652M 25653M 25653B 25701M 25702M 25702B
                                                 25734M 25735M 25735B 25762M 25763M 25763B 25804M 25805M 25805B 25832M
                                                 25833M 25833B 25870M 25871M 25871B 25898M 25899M 25899B 25959M 25960M
                                                 25960B 26008M 26009M 26009B 26041M 26042M 26042B 26069M 26070M 26070B
                                                 26127M 26128M 26128B 26197M 26198M 26198B 26249M 26250M 26250B 26297M
                                                 26298M 26298B 26345M 26346M 26346B 26387M 26388M 26388B 26425M 26426M
                                                 26426B 26463M 26464M 26464B 26515M 26516M 26516B 26553M 26554M 26554B
                                                 26587M 26588M 26588B 26619M 26620M 26620B 26653M 26654M 26654B 26681M
                                                 26682M 26682B 26719M 26720M 26720B 26747M 26748M 26748B 26785M 26786M
1RJE      (RJE4072) (12:53) (15MAR04) Ordinary Symbol and Literal Cross Reference                                           Page  162
                                                 26786B 26813M 26814M 26814B 26851M 26852M 26852B 26879M 26880M 26880B
                                                 26917M 26918M 26918B 26955M 26956M 26956B 26993M 26994M 26994B 27031M
                                                 27032M 27032B 27069M 27070M 27070B 27107M 27108M 27108B 27135M 27136M
                                                 27136B 27173M 27174M 27174B 27201M 27202M 27202B 27239M 27240M 27240B
                                                 27277M 27278M 27278B 27317M 27318M 27318B 27337M 27338M 27338B 27361M
                                                 27362M 27362B 27401M 27402M 27402B 27441M 27442M 27442B 27461M 27462M
                                                 27462B 27485M 27486M 27486B 27534M 27535M 27535B 27555M 27556M 27556B
                                                 27579M 27580M 27580B 27613M 27614M 27614B 27654M 27655M 27655B 27675M
                                                 27676M 27676B 27699M 27700M 27700B 27736M 27737M 27737B 27757M 27758M
                                                 27758B 27781M 27782M 27782B 27810M 27811M 27811B 27837M 27840B 27968
                                                 28000M 28001M 28001B 28020M 28023B 28985  29034M 29035M 29035B 29082M
                                                 29083M 29083B 29117M 29118M 29118B 29151M 29154B 29166  29215M 29216M
                                                 29216B 29263M 29264M 29264B 29298M 29299M 29299B 29332M 29335B 29366
                                                 29401M 29402M 29402B 29423M 29424M 29424B 29450M 29451M 29451B 29470M
                                                 29471M 29471B 29509M 29510M 29510B 29617M 29620B 29632  29682M 29683M
                                                 29683B 29800M 29803B 29876  29932M 29935B 29947  30003M 30006B 30018
                                                 30080M 30083B 30095  30141M 30144B 30156  30214M 30217B 30229  30284M
                                                 30287B 30299  30357M 30360B 30404  30524M 30525M 30525B 30700M 30703B
                                                 30715  30768M 30769M 30769B 30794M 30797B 30809  30890M 30893B 30905
                                                 30992M 30995B 31007  31088M 31091B 31103  31190M 31193B 31205  31307M
                                                 31310B 31322  31409M 31412B 31424  31526M 31529B 31559  31608M 31609M
                                                 31609B 31674M 31677B 31689  31778M 31779M 31779B 31845M 31846M 31846B
                                                 31859M 31860M 31860B 31885M 31886M 31886B 31907M 31908M 31908B 31921M
                                                 31922M 31922B 31944M 31945M 31945B 31966M 31967M 31967B 31980M 31981M
                                                 31981B 31999M 32000M 32000B 32043M 32046B 32058  32202M 32203M 32203B
                                                 32230M 32233B 32245  32334M 32335M 32335B 32401M 32402M 32402B 32415M
                                                 32416M 32416B 32441M 32442M 32442B 32463M 32464M 32464B 32477M 32478M
                                                 32478B 32500M 32501M 32501B 32522M 32523M 32523B 32536M 32537M 32537B
                                                 32555M 32556M 32556B 32599M 32602B 32614  32790M 32791M 32791B 32818M
                                                 32821B 32833  32889M 32890M 32890B 32903M 32904M 32904B 33002M 33005B
                                                 33063  33109M 33112B 33124  33170M 33173B 33185  33242M 33243M 33243B
                                                 33256M 33257M 33257B 33355M 33358B 33446  33492M 33495B 33507  33559M
                                                 33562B 33574  33620M 33623B 33635  33686M 33689B 33744  33822M 33823M
                                                 33823B 33848M 33851B 33864  33942M 33943M 33943B 33968M 33971B 34004
                                                 34062M 34063M 34063B 34076M 34077M 34077B 34123M 34124M 34124B 34388M
                                                 34389M 34389B 34427M 34428M 34428B 34445M 34446M 34446B 34575M 34576M
                                                 34576B 34719M 34720M 34720B 34772M 34773M 34773B 34887M 34890B 34902
                                                 34965M 34966M 34966B 34990M 34991M 34991B 35016M 35017M 35017B 35060M
                                                 35061M 35061B 35086M 35089B 35101  35150M 35151M 35151B 35224M 35225M
                                                 35225B 35261M 35264B 35276  35325M 35326M 35326B 35391M 35394B 35406
                                                 35455M 35456M 35456B 35531M 35532M 35532B 35601M 35604B 35616  35672M
                                                 35673M 35673B 35686M 35687M 35687B 35785M 35788B 35846  35892M 35895B
                                                 35907  35953M 35956B 35968  36029M 36030M 36030B 36043M 36044M 36044B
                                                 36142M 36145B 36203  36249M 36252B 36264  36310M 36313B 36325  36381M
                                                 36384B 36396  36445M 36446M 36446B 36511M 36514B 36526  36606M 36609B
                                                 36621  36701M 36704B 36716  36814M 36817B 36829  36878M 36879M 36879B
                                                 36944M 36947B 36959  37053M 37056B 37068  37162M 37165B 37177  37279M
                                                 37280M 37280B 37357M 37358M 37358B 37371M 37372M 37372B 37410M 37411M
                                                 37411B 37443M 37444M 37444B 37457M 37458M 37458B 37566M 37569B 37581
                                                 37666M 37669B 37681  37716M 37717M 37717B 37738M 37741B 37753  37788M
                                                 37789M 37789B 37810M 37813B 37825  37860M 37861M 37861B 37882M 37885B
                                                 37897  37946M 37947M 37947B 38035M 38038B 38050  38103M 38104M 38104B
                                                 38123M 38124M 38124B 38149M 38152B 38164  38257M 38258M 38258B 38318M
                                                 38321B 38333  38418M 38421B 38433  38518M 38521B 38533  38626M 38629B
                                                 38711  38768M 38771B 38896  38953M 38954M 38954B 38957M 38958M 38958B
                                                 38999M 39000M 39000B 39086M 39087M 39087B 39139M 39140M 39140B 39160M
                                                 39161M 39161B 39195M 39196M 39196B 39216M 39217M 39217B 39233M 39234M
                                                 39234B 39242M 39243M 39243B 39286M 39287M 39287B 39312M 39313M 39313B
                                                 39340M 39341M 39341B 39391M 39392M 39392B 39419M 39420M 39420B 39437M
1RJE      (RJE4072) (12:53) (15MAR04) Ordinary Symbol and Literal Cross Reference                                           Page  163
                                                 39438M 39438B 39469M 39472B 39516  39575M 39576M 39576B 39662M 39663M
                                                 39663B 39727M 39728M 39728B 39750M 39751M 39751B 39821M 39822M 39822B
                                                 39827M 39828M 39828B 39945M 39946M 39946B 40062M 40063M 40063B 40157M
                                                 40158M 40158B 40175M 40176M 40176B 40230M 40233B 40252  40532M 40535B
                                                 40554  40657M 40658M 40658B 40697M 40700B 40838  40887M 40888M 40888B
                                                 41040M 41041M 41041B 41063M 41064M 41064B 41091M 41092M 41092B 41108M
                                                 41109M 41109B 41135M 41136M 41136B 41152M 41153M 41153B 41180M 41181M
                                                 41181B 41197M 41198M 41198B 41233M 41234M 41234B 41269M 41270M 41270B
                                                 41312M 41313M 41313B 41356M 41357M 41357B 41387M 41388M 41388B 41425M
                                                 41426M 41426B 41452M 41453M 41453B 42021M 42022M 42022B 42401M 42402M
                                                 42402B 42429M 42430M 42430B 42455M 42456M 42456B 42459M 42460M 42460B
                                                 42484M 42485M 42485B 42512M 42513M 42513B 42530M 42531M 42531B 42574M
                                                 42575M 42575B 42605M 42606M 42606B 42622M 42623M 42623B 42650M 42651M
                                                 42651B 42712M 42713M 42713B 42743M 42744M 42744B 42771M 42772M 42772B
                                                 42795M 42796M 42796B 43296M 43297M 43297B 43328M 43329M 43329B 43361M
                                                 43362M 43362B 43400M 43401M 43401B 43418M 43419M 43419B 43452M 43453M
                                                 43453B 43474M 43475M 43475B 43479M 43480M 43480B 43505M 43508B 43526
                                                 43628M 43629M 43629B 43680M 43681M 43681B 43708M 43709M 43709B 43726M
                                                 43727M 43727B 43754M 43755M 43755B 43798M 43799M 43799B 43826M 43827M
                                                 43827B 43844M 43845M 43845B 43872M 43873M 43873B 43890M 43891M 43891B
                                                 44208M 44209M 44209B 44464M 44465M 44465B 44521M 44524B 44630  44753M
                                                 44754M 44754B 44770M 44771M 44771B 44822M 44823M 44823B 44839M 44840M
                                                 44840B 44868M 44869M 44869B 44919M 44920M 44920B 44936M 44937M 44937B
                                                 44993M 44994M 44994B 45010M 45011M 45011B 45067M 45068M 45068B 45084M
                                                 45085M 45085B 45131M 45132M 45132B 45148M 45149M 45149B 45195M 45196M
                                                 45196B 45223M 45224M 45224B 45240M 45241M 45241B 45268M 45269M 45269B
                                                 45299M 45300M 45300B 45346M 45347M 45347B 45363M 45364M 45364B 45410M
                                                 45411M 45411B 45438M 45439M 45439B 45455M 45456M 45456B 45483M 45484M
                                                 45484B 45514M 45515M 45515B 45578M 45579M 45579B 45595M 45596M 45596B
                                                 45623M 45624M 45624B 45675M 45676M 45676B 45692M 45693M 45693B 45720M
                                                 45721M 45721B 45766M 45767M 45767B 45784M 45785M 45785B 45833M 45834M
                                                 45834B 45850M 45851M 45851B 45898M 45899M 45899B 45915M 45916M 45916B
                                                 45961M 45962M 45962B 45979M 45980M 45980B 46028M 46029M 46029B 46045M
                                                 46046M 46046B 46073M 46074M 46074B 46121M 46122M 46122B 46138M 46139M
                                                 46139B 46166M 46167M 46167B 46214M 46215M 46215B 46231M 46232M 46232B
                                                 46259M 46260M 46260B 46307M 46308M 46308B 46324M 46325M 46325B 46372M
                                                 46373M 46373B 46389M 46390M 46390B 46437M 46438M 46438B 46454M 46455M
                                                 46455B 46502M 46503M 46503B 46519M 46520M 46520B 46567M 46568M 46568B
                                                 46584M 46585M 46585B 46630M 46631M 46631B 46648M 46649M 46649B 46698M
                                                 46699M 46699B 46715M 46716M 46716B 46743M 46744M 46744B 46791M 46792M
                                                 46792B 46808M 46809M 46809B 46842M 46843M 46843B 46874M 46875M 46875B
                                                 46908M 46909M 46909B 46936M 46937M 46937B 46974M 46975M 46975B 47002M
                                                 47003M 47003B 47040M 47041M 47041B 47068M 47069M 47069B 47106M 47107M
                                                 47107B 47159M 47160M 47160B 47176M 47177M 47177B 47224M 47225M 47225B
                                                 47241M 47242M 47242B 47289M 47290M 47290B 47306M 47307M 47307B 47334M
                                                 47335M 47335B 47380M 47381M 47381B 47398M 47399M 47399B 47465M 47466M
                                                 47466B 47482M 47483M 47483B 47503M 47504M 47504B 47570M 47571M 47571B
                                                 47587M 47588M 47588B 47608M 47609M 47609B 47655M 47656M 47656B 47672M
                                                 47673M 47673B 47693M 47694M 47694B 47739M 47740M 47740B 47757M 47758M
                                                 47758B 47796M 47797M 47797B 47824M 47825M 47825B 47841M 47842M 47842B
                                                 47871M 47872M 47872B 47895M 47896M 47896B 47913M 47914M 47914B 47941M
                                                 47942M 47942B 47958M 47959M 47959B 47988M 47989M 47989B 48012M 48013M
                                                 48013B 48085M 48086M 48086B 48131M 48132M 48132B 48181M 48182M 48182B
                                                 48209M 48210M 48210B 48243M 48244M 48244B 48271M 48272M 48272B 48293M
                                                 48294M 48294B 48327M 48328M 48328B 48355M 48356M 48356B 48373M 48374M
                                                 48374B 48411M 48412M 48412B 48439M 48440M 48440B 48457M 48458M 48458B
                                                 48479M 48480M 48480B 48526M 48527M 48527B 48586M 48587M 48587B 48608M
                                                 48609M 48609B 48620M 48621M 48621B 48624M 48625M 48625B 48641M 48642M
                                                 48642B 48671M 48672M 48672B 48717M 48718M 48718B 48750M 48751M 48751B
1RJE      (RJE4072) (12:53) (15MAR04) Ordinary Symbol and Literal Cross Reference                                           Page  164
                                                 48767M 48768M 48768B 48796M 48797M 48797B 48825M 48826M 48826B 48846M
                                                 48847M 48847B 48890M 48891M 48891B 48920M 48921M 48921B 48954M 48955M
                                                 48955B 48987M 48988M 48988B 49008M 49009M 49009B 49056M 49057M 49057B
                                                 49113M 49114M 49114B 49141M 49142M 49142B 49190M 49191M 49191B 49218M
                                                 49219M 49219B 49242M 49243M 49243B 49284M 49285M 49285B 49312M 49313M
                                                 49313B 49336M 49337M 49337B 49368M 49371B 49478  49575M 49576M 49576B
                                                 49608M 49609M 49609B 49628M 49629M 49629B 49665M 49668B 49828  49907M
                                                 49908M 49908B 50024M 50025M 50025B 50039M 50040M 50040B 50162M 50163M
                                                 50163B 50197M 50198M 50198B 50241M 50242M 50242B 50444M 50445M 50445B
                                                 50473M 50474M 50474B 50486M 50487M 50487B 50563M 50564M 50564B 50747M
                                                 50748M 50748B 50751M 50752M 50752B 50794M 50795M 50795B 50798M 50799M
                                                 50799B 50841M 50842M 50842B 50845M 50846M 50846B 50888M 50889M 50889B
                                                 50892M 50893M 50893B 50952M 50955B 51001  51187M 51190B 51212  51307M
                                                 51308M 51308B 51341M 51344B 51525  51571M 51574B 51586  51638M 51641B
                                                 51653  51705M 51708B 51720  51779M 51782B 51794  51845M 51848B 51860
                                                 51912M 51915B 51927  51978M 51981B 51993  52045M 52048B 52060  52111M
                                                 52114B 52126  52178M 52181B 52239  52375M 52376M 52376B 52445M 52446M
                                                 52446B 52473M 52476B
 RDRNG         1 00000000 0000000F     T    9487  9487  13449  14144
 RJEACCT       7 000003FE FFFFFFE3     C    9886  9887   9888  10510M 10511M 10512M 11691M 40966M 40966  40972M 40973M
                                                 40974M 41019M 41020M 42018M 42075  43578  44005  44026
 RJEAGRP       4 00000401 FFFFFFE3     C    9888 41164  41169  41855M 41899M 41900M 41944M 41987M 42002M 42634  42639
 RJEAUSR       3 000003FE FFFFFFE3     C    9887 41119  41124  41856M 41901M 41945M 41968M 42345  42384  42589  42594
 RJEBIN        3 0000003F FFFFFFE3     C    9837 12824M 12824  12831M 12932M 12932  12939M 16251M 16251  16258M 16427M
                                                 16427  16434M 31642M 31642  31649M 33711  45648M 45648  45704  45709
 RJEBLOCK      1 0000000F FFFFFFE3     C    9825 15779  15798  15799M 32302  32331  32438  45104  45158  45163  45207
                                                 45212
 RJECFCOND
               5 00000000 FFFFFFE3         9573 10145M 43613
 RJECFMAI      3 00000000 FFFFFFE3         9553 14342M 16574  24430
 RJECFPRI      1 00000000 FFFFFFE3         9533 13624M
 RJECFPUN      2 00000000 FFFFFFE3         9543 13654M 14998  15084  15736  16552  17726  24473  26091
 RJECFRUN      4 00000000 FFFFFFE3         9563 11180M 42809  42941  43642
 RJECHARM     12 0000005E FFFFFFE3     C    9847 26493M 26493  26565M 26565  26829M 26829  37525M 37525  46820M 46820
                                                 47084M 47084
 RJECHARS     16 0000005A FFFFFFE3     C    9842  9843   9844   9845   9846   9847  26532M 26532  37230M 37230  37242M
                                                 37242  37335  37496M 37496  46764M 46764
 RJECHAR0      4 0000005A FFFFFFE3     C    9843 26603  26608  37289M 37420  37421  38664  46858  46863
 RJECHAR1      4 0000005E FFFFFFE3     C    9844 26631M 26631  26665  26670  46886M 46886  46920  46925
 RJECHAR2      4 00000062 FFFFFFE3     C    9845 26697M 26697  26731  26736  46952M 46952  46986  46991
 RJECHAR3      4 00000066 FFFFFFE3     C    9846 26763M 26763  26797  26802  47018M 47018  47052  47057
 RJECMD        1 00000000 FFFFFFE3     R    9524  9533   9543   9553   9563   9573
 RJECOPY       2 00000366 FFFFFFE3     H    9856 12594M 27295  27322  30862M 30862  30869M 47409
 RJEDARK       2 0000036C FFFFFFE3     H    9859 19360  20601  24118M 24118  24125M 27379  27419  27446
 RJEDELIM      2 0000042C FFFFFFE3     C    9901 11223M 13086M 13086  13101M 13101  39566  39632M 39639  39641  39659M
                                                 39659  39814M 39814  39884M 40122  40134  40206M 40206
 RJEDEST       8 00000037 FFFFFFE3     C    9836 12802M 12802  12809M 12910M 12910  12917M 16229M 16229  16236M 16358
                                                 16364M 16405M 16405  16412M 16723  24946M 24946  24979  24984  33982
                                                 34325M 34372M 34385  34411  34416  35046M 35046  35056M 35057  38644
                                                 45551M 45551  45607  45612  47808  47813  47925  47930
 RJEEJECT      2 0000036E FFFFFFE3     H    9860 27500  30964M 30964  30971M 31060M 31060  31067M 47522
 RJEFBACK     16 00000003 FFFFFFE3         9678 20312  23574M 23641M 26364
 RJEFBRST     32 00000005 FFFFFFE3         9753 26894  35650M 46278
 RJEFCB        4 0000004E FFFFFFE3     C    9840 16007M 16007  16014M 25294  25328  25333  25441M 25441  25475  25480
                                                 25848M 25848  25882  25887  35359M 35359  35366M 38655  46001M 46001
                                                 46057  46062
 RJEFCC       64 00000003 FFFFFFE3         9668 15667  15667  15668  17412  17454  18396  18579  18579  18580  23205M
                                                 23235  23235  23236M 23352  23352  23353M 26402
 RJEFCCS     128 00000003 FFFFFFE3         9663 23188  23199M 23332  23343M
1RJE      (RJE4072) (12:53) (15MAR04) Ordinary Symbol and Literal Cross Reference                                           Page  165
 RJEFCTRL     32 000003F5 FFFFFFE3         9881 14866M 15056M 24400M 27819M 40883M 43260M 44709M 49349M 49566
 RJEFDDS      64 000003F5 FFFFFFE3         9876 39679  39796  39809M 39877M 40120M
 RJEFDOC     128 00000004 FFFFFFE3         9703 15883  23846M 23912M 25010  26174
 RJEFDOUB      4 00000003 FFFFFFE3         9688 18923  18923  18924  23453  23453  23454  23465M 23495  23495  23496M
                                                 27216
 RJEFDUMB      4 00000001 FFFFFFE3         9608 12404M 13070  38977  44668
 RJEFDUP      16 00000001 FFFFFFE3         9598 26932  36002M 36364M 47130
 RJEFEXT      64 00000005 FFFFFFE3         9748 34534M 45533  47775
 RJEFFAX       8 00000005 FFFFFFE3         9763 13726M 16314  16520  17061  34165  48159
 RJEFFMAN      2 00000004 FFFFFFE3         9733 27046  37015  37015  37032M 37124  37124  37136M 46538
 RJEFFMT       8 00000003 FFFFFFE3         9683 13630M 13668M 13904  13924M 14367M 14960  17648  23707M 23774M 24888
                                                 34542M 36782M 49599
 RJEFHEX      32 00000004 FFFFFFE3         9713 19309  23034M 24803
 RJEFHOLD    128 00000001 FFFFFFE3         9583 10151M 15864M 16680M 29715M 29981M 30054  30054  30191M 42999M 43040M
                                                 44889  44889  45038
 RJEFHOLX     64 00000002 FFFFFFE3         9628 10155M 15868M 29719M 29985M 30061  30061  30197M 42956
 RJEFKEEP     16 00000005 FFFFFFE3         9758 32867M 46343
 RJEFLAG       1 00000001 FFFFFFE3     R    9579  9583   9588   9593   9598   9603   9608   9613
 RJEFLAGS      1 000003F5 FFFFFFE3     R    9867  9871   9876   9881   9903   9903
 RJEFLAGX      1 00000007 FFFFFFE3     R    9784  9788   9793   9798
 RJEFLAG2      1 00000002 FFFFFFE3     R    9619  9623   9628   9633   9638   9643   9648   9653
 RJEFLASH      4 0000004A FFFFFFE3     C    9839 15985M 15985  15992M 25227  25261  25266  25375M 25375  25409  25414
                                                 25782M 25782  25816  25821  36912M 36912  36919M 38663  46187M 46187
                                                 46243  46248
 RJEFLGP       1 00000003 FFFFFFE3     R    9659  9663   9668   9673   9678   9683   9688   9693
 RJEFLGP2      1 00000004 FFFFFFE3     R    9699  9703   9708   9713   9718   9723   9728   9733
 RJEFLGP3      1 00000005 FFFFFFE3     R    9739  9743   9748   9753   9758   9763
 RJEFLGP4      1 00000006 FFFFFFE3     R    9769  9773   9778
 RJEFLPR     128 00000005 FFFFFFE3         9743 13697M 14396M 16669  39030  39100  41012
 RJEFMAN       4 00000004 FFFFFFE3         9728 27008  37015  37015  37016  37027M 37124  37124  37125  37141M 46473
 RJEFMC       32 00000003 FFFFFFE3         9673 14898  15122  15667  15667  17496  17769  18090  18579  18579  18639
                                                 18939  19389  19452  19481  20537  20630  20693  20722  23210M 23235
                                                 23235  23352  23352  26440
 RJEFMEMO     64 00000004 FFFFFFE3         9708 15969  23840M 25029  25210
 RJEFMIX      16 00000004 FFFFFFE3         9718 19335  23100M 24850
 RJEFNDUP      8 00000001 FFFFFFE3         9603 26970  36007M 36359M 47195
 RJEFNSEP      8 00000004 FFFFFFE3         9723 33220M 33541M 33669M 46408
 RJEFNTFX    128 00000002 FFFFFFE3         9623 10165M 30456  30475M 43156
 RJEFNTFY     32 00000001 FFFFFFE3         9593 10161M 30471M 30499M 43199M 43240M 44726
 RJEFOPEN    128 00000007 FFFFFFE3         9788 38751M 38945  38966M
 RJEFORMS      8 00000042 FFFFFFE3     C    9838 12846M 12846  12852M 12853M 12954M 12954  12961M 15927M 15927  15933M
                                                 16273M 16273  16279M 16280M 16379M 16379  16385M 16449M 16449  16456M
                                                 16721  25079  25113  25118  25526M 25526  25560  25565  35180M 35180
                                                 35190M 35202  38653  46094M 46094  46150  46155
 RJEFOSCN     64 00000007 FFFFFFE3         9793 16960M 17211M 22131  22312  22493  22612  22731  22850  23176  23320
                                                 23437  24105  29055  29236  29534  30444  30849  30951  31047  31149
                                                 31266  31368  31485  31629  31733  32289  33784  33904  34137  35033
                                                 35167  35346  35556  36466  36566  36661  36756  36899  36999  37108
                                                 37217  37621  37963  38274  38373  38473  38573
 RJEFPBSMTP
               4 00000002 FFFFFFE3         9648 14469M 14695  14695  14696  14710  14710  14711M 17947  48030
 RJEFPMAI      8 00000002 FFFFFFE3         9643 14445M 17738  18000
 RJEFPSUNMAIL
               2 00000002 FFFFFFE3         9653 14502M 14695  14695  14710  14710  19058
 RJEFSNT     128 000003F5 FFFFFFE3         9871 44687  44701M
 RJEFSOME     32 00000007 FFFFFFE3         9798 14635M 16863  17551M
 RJEFSPEC      2 00000001 FFFFFFE3         9613 11697M 12470M 43592
 RJEFTRC      16 00000002 FFFFFFE3         9638 14948  15188  15689  17813  18134  18602  19005  20559  26480  37537M
                                                 37633  37645M 49934  50693  50710M 50920M 52328
1RJE      (RJE4072) (12:53) (15MAR04) Ordinary Symbol and Literal Cross Reference                                           Page  166
 RJEFTRIP      2 00000003 FFFFFFE3         9693 18923  18923  18978  23453  23453  23470M 23495  23495  27254
 RJEFXAUT      7 0000035E FFFFFFE3     C    9855 22625M 22625  22642  22647  48221M 48221  48255  48260
 RJEFXHLD     64 00000001 FFFFFFE3         9588 15852  29910M 30054  30054  30055M 30263M 30334M 43090M 43127M 44889
                                                 44889  44890  44964
 RJEFXHOX     32 00000002 FFFFFFE3         9633 29914M 30061  30061  30062M 30267M 30340M 43063
 RJEFXNOT     64 0000031E FFFFFFE3     C    9854 22744M 22744  22761  22766  48306M 48306  48339  48344
 RJEFXRCP    128 0000029E FFFFFFE3     C    9853 22506M 22506  22523  22528  48390M 48390  48423  48428
 RJEHEAD      20 000000EA FFFFFFE3     C    9849 10176M 11698M 16474M 16474  16526M 16542M 16559M 16581M 16619M 16640M
                                                 16641M 16642M 16643M 16644M 22325M 22325  41211M 41211  41225  41230
                                                 49024
 RJEHEADL    128 000000EA FFFFFFE3     C    9850 16497M 22331M 22402M 24336  49040  49045
 RJEID         8 0000002F FFFFFFE3     C    9835 29345  29547M 29547  29554M 29581M 30378  44302M 44302  44308  44412
 RJEIND        2 00000368 FFFFFFE3     H    9857 17345M 17345  17365M 21023  27632  31162M 31162  31169M 31279M 31279
                                                 31286M 47627
 RJEJCLS       1 0000000E FFFFFFE3     C    9824 10177M 30748M 30749  46671  46727  46732
 RJEJOBNM      8 000003F6 FFFFFFE3     C    9885 39403  39408  41018M 41075  41080  42074M 42075M 42104M 42167M 42168
                                                 42215  42294M 42321M 42345  42384M 42413  42418  42447  42452  42496
                                                 42501  42798  44265M 44265  44271M 44282M 44282  44291M 44335  44467
 RJEKBIN       3 00000418 FFFFFFE3     C    9894 43986M
 RJEKDEST      8 00000410 FFFFFFE3     C    9893 43963M 43974M 43974  43981M
 RJEKJFL       1 00000405 FFFFFFE3     X    9890 42375  42907  42987  43187  43962M
 RJEKJNO       2 0000040E FFFFFFE3     H    9892 44017M 44072M 44448
 RJEKLLIM      4 0000041C FFFFFFE3     F    9895 18348M 18348  18362  19539M 19539  19553  20027  44013M
 RJEKPFX       8 00000406 FFFFFFE3     C    9891 42167  43987M 43988M 44005M 44006M 44049M 44108M 44291
 RJEKPLIM      4 00000420 FFFFFFE3     F    9896 19863  44016M
 RJEKWS        4 00004938 00000001     F   28027 30370
 RJELCNT       4 00000424 FFFFFFE3     F    9898 18334  18335M 19525  19526M
 RJELINE     235 00000557 FFFFFFE3     C    9995 13050  13051  13056  16841  16842  16847
 RJEMAIL     128 0000016A FFFFFFE3     C    9851 33797M 33797  33814  33819  49167M 49167  49202  49207
 RJEMARK       1 0000001E FFFFFFE3     C    9832 17570  17583  17600  22863  22928  22933  27151  27185  27190
 RJENACCT      5 00000009 FFFFFFE3     C    9822 10166M 11227M 30583M 30584M 30606M 30607M 44772  44783M 44783
 RJENAME       8 0000001F FFFFFFE3     C    9833 10174M 10175M 11690M 14293M 14294M 16217M 16218M 29068M 29068  29075M
                                                 30372  44271
 RJENEWCC      1 0000042E FFFFFFE3     C    9902 15058M 15147M 15161  15166  15565M 17395  17438M 17480M 17536M 17628M
                                                 18624  18660  18686  18712  18803  18829  18834  18907M 51615M 51682M
 RJENOJCL     64 00000006 FFFFFFE3         9778 38485  38497M 38589  38589  38605M 45869
 RJENOLOG    128 00000006 FFFFFFE3         9773 38385  38397M 38589  38589  38590  38601M 45804
 RJEOBLCK      1 00000010 FFFFFFE3     C    9826 15792  15798M 32314M 32497  45174  45252  45257
 RJEOPRIO      1 00000012 FFFFFFE3     C    9828 15830  15836M 31758M 31941  45389  45467  45472
 RJEPCNT       4 00000428 FFFFFFE3     F    9899 18304  18305M
 RJEPFORM      6 00000018 FFFFFFE3     C    9831 15104  17092M 17092  17098M 17359  20188  24905  25919M 25919  25936
                                                 25985  26053  26058  36479M 36479  36486M 36579M 36579  36585M 36674M
                                                 36674  36680M 36769M 36769  36775M 38662  38672  38673  38674  47262M
                                                 47262  47318  47323
 RJEPFX        8 00000027 FFFFFFE3     C    9834 29249M 29249  29256M 30376  44101M 44101  44108
 RJEPRINT      8 00000052 FFFFFFE3     C    9841 27085M 27085  27119  27124  35569M 35569  35576M 38656
 RJEPRIO       1 00000011 FFFFFFE3     C    9827 15817  15836  15837M 31746  31775  31882  45319  45373  45378  45422
                                                 45427
 RJEPRT        4 000048B0 00000001     F   27928 13456
 RJEPSH        2 00004900 00000001     H   27962 10915  12289  21843  27940
 RJESEND     180 000001EA FFFFFFE3     C    9852 33917M 33917  33934  33939  48493  48510  48515
 RJESG        60 00000430 FFFFFFE3     X    9992 10203  10218  10579  10606  10623  10658  10686  10714  10749  11203
                                                 11218  11760  11775  11812  11830  11848  11868  11896  11914  11922
                                                 11954  11981  12007  12025  12043  13364  13388  13599  13614  14317
                                                 14332  14653  14879  14931  14979  15016  15045  15142  15174  15214
                                                 15264  15322  15342  15369  15386  15413  15446  15474  15491  15513
                                                 15560  17799  17839  17979  18056  18120  18160  18198  18271  18295
                                                 18761  18842  19041  19105  19209  19252  19438  19516  20595  20679
                                                 20757  20784  20829  21086  21113  21144  21175  21278  24415  24450
1RJE      (RJE4072) (12:53) (15MAR04) Ordinary Symbol and Literal Cross Reference                                           Page  167
                                                 24507  24542  24570  24611  24648  24683  24710  24731  24785  24823
                                                 24870  24927  24964  24992  25063  25098  25126  25165  25192  25246
                                                 25274  25313  25341  25394  25422  25460  25488  25545  25573  25649
                                                 25698  25731  25759  25801  25829  25867  25895  25956  26005  26038
                                                 26066  26124  26194  26246  26294  26342  26384  26422  26460  26512
                                                 26550  26584  26616  26650  26678  26716  26744  26782  26810  26848
                                                 26876  26914  26952  26990  27028  27066  27104  27132  27170  27198
                                                 27236  27274  27314  27334  27358  27398  27438  27458  27482  27531
                                                 27552  27576  27610  27651  27672  27696  27733  27754  27778  27807
                                                 40154  41060  41088  41105  41132  41149  41177  41194  41266  41309
                                                 41353  41384  41422  41449  42481  42509  42527  42571  42602  42619
                                                 42647  42709  42740  42768  42792  44750  44767  44819  44836  44865
                                                 44916  44933  44990  45007  45064  45081  45128  45145  45192  45220
                                                 45237  45265  45296  45343  45360  45407  45435  45452  45480  45511
                                                 45575  45592  45620  45672  45689  45717  45763  45781  45830  45847
                                                 45895  45912  45958  45976  46025  46042  46070  46118  46135  46163
                                                 46211  46228  46256  46304  46321  46369  46386  46434  46451  46499
                                                 46516  46564  46581  46627  46645  46695  46712  46740  46788  46805
                                                 46839  46871  46905  46933  46971  46999  47037  47065  47103  47156
                                                 47173  47221  47238  47286  47303  47331  47377  47395  47462  47479
                                                 47500  47567  47584  47605  47652  47669  47690  47736  47754  47793
                                                 47821  47838  47868  47892  47910  47938  47955  47985  48009  48082
                                                 48128  48178  48206  48240  48268  48290  48324  48352  48370  48408
                                                 48436  48454  48476  48523  48583  48605  48638  48668  48714  48747
                                                 48764  48793  48822  48887  48917  48951  48984  49005  49053  49110
                                                 49138  49187  49215  49239  49281  49309  49333
 RJESGBUF    235 0000046C FFFFFFE3     C    9994 10188  11190  11195  11747  11752  13586  13591  14304  14309  19379
                                                 19396M 19459M 19488M 20620  20637M 20700M 20729M
 RJESGCOD      1 00000430 FFFFFFE3     R    9909  9918   9928   9938   9948   9958   9968   9978
 RJESGLENF
               4 0000043C FFFFFFE3     A    9984 19316  19378  19464M 20526  20619  20705M 21046  42667
 RJESGLOC      4 00000450 FFFFFFE3     A    9988 20543  20566
 RJESWA       58 000003F5 FFFFFFE3     X    9903 13137M 13137
 RJESYSAF      4 00000014 FFFFFFE3     C    9830 12888M 12888  12895M 38287M 38287  38293M 49263M 49263  49296  49301
 RJESYSCL      1 00000013 FFFFFFE3     C    9829 15948  15955M 25146  25179  25184  25592  25609  25629  25678  25746
                                                 25751  37976  37982M 37994  38666  41404  41436  41441
 RJETITLE    128 0000006A FFFFFFE3     C    9848 15069M 15069  15531  15536  16490M 16490  16497  22144M 22144  22150M
                                                 22221M 24335  49081M 49081  49097  49102
 RJETO       128 00000375 FFFFFFE3     C    9863 16330M 16330  24522M 24522  24557  24562  33982  34150M 34150  34171M
                                                 34218M 34464M 34510M 34588M 34634M 34847M 34848M 34849M 34850M 38642
                                                 47853  47970  48193  48198
 RJETOACC      5 00000370 FFFFFFE3     C    9862 12612M 12612  12634  12711  12759  15284M 15284  16038M 16038  16060
                                                 16137  16185  16217  16599M 16599  16634M 16634  34528M 34528  34572
                                                 34679M 34680M 34795M 34796M 34818M 34819M 34841M 34842M 34848  34850
 RJETOWA     205 00000000 FFFFFFDE     J   33989 34010  34039U 34885  34887  34888
 RJETOXX     200 00000005 FFFFFFDE     C   33982 34115  34120
 RJEWA      1602 00000000 FFFFFFE3     J   10002 10026  10106U 10114M 10114  10115M 10115  10116M 10116  10117M 10117
                                                 10118M 10118  10119M 10119  10120M 10120  11118  11147U 11151  11159U
                                                 11167M 11167  11168M 11168  11169M 11169  11170M 11170  11171M 11171
                                                 11172M 11172  11173M 11173  11546  11548  11549  11596  11625U 11629
                                                 11637U 11645M 11645  11646M 11646  11647M 11647  11648M 11648  11649M
                                                 11649  11650M 11650  11651M 11651  12072  12074  12075  12575U 13046U
                                                 13519  13548U 13552  13560U 13568M 13568  13569M 13569  13570M 13570
                                                 13571M 13571  13572M 13572  13573M 13573  13574M 13574  14109  14111
                                                 14112  14198  14227U 14231  14239U 14247M 14247  14248M 14248  14249M
                                                 14249  14250M 14250  14251M 14251  14252M 14252  14253M 14253  14759
                                                 14761  14762  14785U 15611U 16837U 19605U 20220U 49517U 49876U 51040U
                                                 51248U 52287U
 RJEWRAP       2 0000036A FFFFFFE3     H    9858 27714  31381M 31381  31388M 31498M 31498  31505M 52304
1RJE      (RJE4072) (12:53) (15MAR04) Ordinary Symbol and Literal Cross Reference                                           Page  168
 RJEXFBLD     64 00000008 FFFFFFE3         9813 50094  51759  51759  51760  51760  51762M 51961M 52028M
 RJEXFITL     32 00000008 FFFFFFE3         9818 50073  51759  51759  51761  51761  52094M 52161M
 RJEXFL        1 00000008 FFFFFFE3     R    9804  9808   9813   9818
 RJEXFUND    128 00000008 FFFFFFE3         9808 51101  51760  51760  51761  51761  51828M 51895M
 RJE4072       1 00000000 00000001     R    1007  1005
 RLOOKUP       1 00000000 0000003F     T   30371 30371
 RNUMPSH       1 00000000 00000027     T   12123 12123  12274  21362  21813  40716
 RSEG          2 00009752 00000001     H   49472 11058  13435  14131  16726
 RTRIM         1 00000000 0000004D     T   52501 52501
 RUN           2 00000D8E 00000001     H   11105 11101
 RUNDUMB       2 00001420 00000001     H   12340 12229
 RUNMLL        2 000010F8 00000001     I   11927 11986B
 RUNMSG        2 00000F6E 00000001     H   11583 11579
 RUNOPT        2 00001494 00000001     H   12532 13444
 RUNPRT        4 00001218 00000001     F   12142 13443
 RUNPRTF       4 00001178 00000001     F   12081 13440
 RUNRTN        2 000015E0 00000001     H   13003 13448
 RUNSPEC       2 0000145A 00000001     H   12430 12214
 RUNWR         2 000016A8 00000001     H   13288 13089B 13106B
 R0            0 00000000 FFFFFFFF A   #     707  2109   2178M  7371M  7371   7393M  7451M  7471   7530M  7623M  7623
                                                  7645M  7833   7845M  7850   7907   7919M  7919   7928   7929   8170M
                                                  8184M  8184   8193   8194   8195   8232M  8232   8290M  8290   8299
                                                  8300   8301   8398   8503M  8734M  8735M  8736M  9157M  9174M  9174
                                                  9184M  9184   9337M  9361M  9361   9372M  9430M 10195M 10210M 10255M
                                                 10255  10264  10265  10416M 10416  10425  10426  10545M 10571M 10598M
                                                 10615M 10650M 10678M 10706M 10706  10741M 10783M 10814M 10836M 11195M
                                                 11210M 11274M 11274  11283  11284  11326M 11326  11335  11336  11416M
                                                 11451M 11490M 11512M 11656  11657  11657  11657  11678  11685M 11706M
                                                 11706  11715  11716  11752M 11767M 11804M 11822M 11840M 11860M 11873M
                                                 11906M 11940  11941  11941  11941  11946M 11961M 11999M 12017M 12035M
                                                 12688M 12718M 12736M 12766M 12785M 13054  13059  13153M 13271M 13356M
                                                 13380M 13380  13475  13475  13475  13591M 13606M 13780M 13780  13789
                                                 13790  13832M 13832  13841  13842  13979M 14014M 14053M 14075M 14258
                                                 14259  14259  14259  14280  14287M 14289  14309M 14324M 14514M 14514
                                                 14523  14524  14579M 14622M 14622  14715M 14723M 14871M 14888M 14908M
                                                 14971M 15008M 15037M 15037  15134M 15166M 15206M 15206  15256M 15314M
                                                 15334M 15361M 15378M 15405M 15438M 15466M 15483M 15505M 15536M 15552M
                                                 15552  15760M 16114M 16144M 16162M 16192M 16211M 16341M 16756  16756
                                                 16756  16845  16850  16884M 16884  16906M 16931M 16950  16993M 16993
                                                 17002  17003  17127M 17159M 17197M 17201  17244M 17244  17253  17254
                                                 17667M 17673  17759M 17831M 17831  17923M 17971M 18048M 18080M 18152M
                                                 18152  18190M 18244M 18263M 18287M 18287  18648M 18648  18670M 18696M
                                                 18722M 18735M 18735  18834M 18995M 19012M 19097M 19124M 19124  19157M
                                                 19180M 19201M 19229M 19299M 19430M 19430  19508M 19508  19672M 19690M
                                                 19724M 19746M 19759M 19862M 19865  19866  19866  19866  19873M 19903M
                                                 19924M 19924  20026M 20029  20030  20030  20030  20037M 20067M 20088M
                                                 20088  20193  20193  20193  20328  20367  20587M 20671M 20671  20749M
                                                 20749  20776M 20808M 20959  20988M 21000M 21003  21015M 21020M 21020
                                                 21045  21065  21066  21066  21066  21078M 21078  21105M 21120M 21167M
                                                 21167  21270M 21981M 21999M 22038M 22177  22189M 22194  22358  22370M
                                                 22375  22528M 22647M 22766M 22897  22911  22933M 23980M 23980  23989
                                                 23990  24229  24342  24342  24342  24407M 24442M 24463M 24483M 24534M
                                                 24562M 24603M 24640M 24675M 24702M 24723M 24777M 24815M 24862M 24919M
                                                 24956M 24984M 25019M 25039M 25090M 25118M 25157M 25184M 25238M 25266M
                                                 25305M 25333M 25386M 25414M 25452M 25480M 25537M 25565M 25641M 25690M
                                                 25723M 25751M 25793M 25821M 25859M 25887M 25948M 25997M 26030M 26058M
                                                 26116M 26186M 26238M 26286M 26334M 26376M 26414M 26452M 26504M 26542M
                                                 26576M 26608M 26642M 26670M 26708M 26736M 26774M 26802M 26840M 26868M
                                                 26868  26906M 26944M 26982M 27020M 27058M 27096M 27124M 27162M 27190M
1RJE      (RJE4072) (12:53) (15MAR04) Ordinary Symbol and Literal Cross Reference                                           Page  169
                                                 27228M 27266M 27306M 27326M 27326  27350M 27350  27390M 27430M 27450M
                                                 27450  27474M 27474  27523M 27544M 27544  27568M 27568  27602M 27643M
                                                 27664M 27664  27688M 27688  27725M 27746M 27746  27770M 27770  27799M
                                                 27799  28003  28003M 29025  29125M 29206  29306M 29414  29429  29441
                                                 29517M 29553  29667M 29667  29676  29677  30510M 30510  30519  30520
                                                 30521  30546  30759  30869  30937M 30937  30939M 30971  31067  31135M
                                                 31135  31137M 31169  31242M 31242  31250M 31286  31354M 31354  31356M
                                                 31388  31461M 31461  31469M 31505  31599  31801M 31820  31831M 31831
                                                 31840  31841  31842  31873M 31873  31893M 31893  31902  31903  31904
                                                 31935M 31935  31952M 31952  31961  31962  31963  31990M 31990  32088
                                                 32162  32174M 32210M 32357M 32376  32387M 32387  32396  32397  32398
                                                 32429M 32429  32449M 32449  32458  32459  32460  32491M 32491  32508M
                                                 32508  32517  32518  32519  32546M 32546  32644  32798M 32874M 32874
                                                 32883  32884  33227M 33227  33236  33237  33819M 33939M 34050M 34050
                                                 34059  34086M 34086  34098M 34120M 34172  34237  34251M 34251  34273
                                                 34276M 34289  34296  34315M 34326  34416M 34434M 34551M 34571M 35007
                                                 35141  35213M 35231M 35316  35446  35539M 35657M 35657  35666  35667
                                                 36014M 36014  36023  36024  36436  36869  37270  37311M 37330  37343M
                                                 37343  37352  37353  37354  37381M 37381  37401  37429M 37429  37438
                                                 37439  37440  37467M 37467  37479M 37713M 37785M 37937  38005M 38094
                                                 38988M 39075M 39128M 39149M 39149  39184M 39205M 39205  39222M 39238M
                                                 39262M 39262  39269  39270  39270  39270  39275M 39290M 39336M 39380M
                                                 39408M 39426M 39829  39831M 39832M 39839M 39845M 39858M 39865M 39880M
                                                 39882M 39885M 39885  39894M 39898M 39920  39931M 39931  39940  39941
                                                 39942  39981M 39981  40001  40146M 40164M 40183M 40291M 40291  40316M
                                                 40329M 40329  40351M 40359M 40368M 40368  40509M 40594  40627M 40631
                                                 40642M 40642  40651  40652  40762  40762  40762  40892  40904M 40910
                                                 40925M 40925  40946M 40954  41052M 41080M 41097M 41124M 41141M 41169M
                                                 41186M 41230M 41243M 41243  41253  41258M 41301M 41345M 41376M 41414M
                                                 41441M 41698M 41698  41760M 41780  41794  41846  41890  41935  41980
                                                 41992  42390M 42418M 42452M 42473M 42501M 42519M 42563M 42594M 42611M
                                                 42639M 42652M 42653M 42654M 42655M 42655  42668  42732M 42760M 42784M
                                                 42784  43269M 43301M 43333M 43350M 43366M 43373M 43407M 43441M 43463M
                                                 43476M 43582M 43582  43599M 43620M 43669M 43697M 43715M 43743M 43759M
                                                 43787M 43815M 43833M 43861M 43879M 43895M 43918M 43945M 44454M 44716M
                                                 44759M 44811M 44828M 44857M 44873M 44925M 44941M 44999M 45015M 45073M
                                                 45089M 45137M 45163M 45184M 45212M 45229M 45257M 45273M 45304M 45352M
                                                 45378M 45399M 45427M 45444M 45472M 45488M 45519M 45584M 45612M 45628M
                                                 45681M 45709M 45725M 45741  45755M 45773M 45794M 45839M 45855M 45904M
                                                 45920M 45936  45950M 45968M 45989M 46034M 46062M 46078M 46127M 46155M
                                                 46171M 46220M 46248M 46264M 46313M 46329M 46378M 46394M 46443M 46459M
                                                 46508M 46524M 46573M 46589M 46605  46619M 46637M 46658M 46704M 46732M
                                                 46748M 46797M 46831M 46863M 46897M 46925M 46963M 46991M 47029M 47057M
                                                 47095M 47115M 47165M 47181M 47230M 47246M 47295M 47323M 47339M 47355
                                                 47369M 47387M 47408M 47471M 47492M 47492  47508M 47576M 47597M 47597
                                                 47613M 47661M 47682M 47682  47698M 47714  47728M 47746M 47785M 47813M
                                                 47830M 47860M 47884M 47884  47902M 47930M 47947M 47977M 48001M 48001
                                                 48074M 48120M 48170M 48198M 48232M 48260M 48282M 48316M 48344M 48362M
                                                 48400M 48428M 48446M 48468M 48515M 48575M 48597M 48630M 48660M 48706M
                                                 48739M 48756M 48785M 48814M 48843M 48879M 48879  48909M 48943M 48976M
                                                 48997M 49045M 49102M 49130M 49130  49179M 49207M 49231M 49231  49273M
                                                 49301M 49325M 49325  49899  49922M 49948M 49948  49960M 49979  50013M
                                                 50028M 50151M 50186M 50230M 50394M 50395M 50417  50418  50418  50418
                                                 50433M 50448M 50552M 50744M 50791M 50838M 50885M 51109  51283  51294M
                                                 51294  52344  52371M 52372M 52434M 52435M 52507  52507  52507
 R1            1 00000001 FFFFFFFF A   #     720  2172M  2173M  2179M  7392M  7470   7531M  7644M  7899M  7906   7915M
                                                  7928   7929   7931   8165M  8180M  8193   8194   8195   8240M  8241M
                                                  8241   8286M  8299   8300   8301   8419M  8420M  8420   8498M  8712
                                                  9156M  9335M  9371M  9429M 10188M 10251M 10264  10265  10267  10412M
1RJE      (RJE4072) (12:53) (15MAR04) Ordinary Symbol and Literal Cross Reference                                           Page  170
                                                 10425  10426  10428  10522M 10525M 10527  10544M 10556M 10556  10570M
                                                 10594M 10614M 10649M 10673M 10740M 10782M 10813M 10835M 11190M 11270M
                                                 11283  11284  11286  11322M 11335  11336  11338  11415M 11452M 11491M
                                                 11513M 11656  11657  11657  11657  11677  11685M 11687  11702M 11715
                                                 11716  11718  11747M 11790M 11790  11803M 11821M 11839M 11859M 11905M
                                                 11940  11941  11941  11941  11945M 11961M 11998M 12016M 12034M 12642M
                                                 12687M 12711M 12735M 12759M 12784M 13052  13056M 13058  13148M 13351M
                                                 13475  13475  13475  13586M 13776M 13789  13790  13792  13828M 13841
                                                 13842  13844  13978M 14015M 14054M 14076M 14258  14259  14259  14259
                                                 14279  14287M 14290  14304M 14510M 14523  14524  14526  14574M 14624M
                                                 14624  14714M 14722M 14841M 14841  14870M 14887M 14907M 14970M 15007M
                                                 15133M 15161M 15249M 15333M 15356M 15377M 15400M 15437M 15461M 15482M
                                                 15504M 15531M 15759M 16068M 16113M 16137M 16161M 16185M 16210M 16340M
                                                 16756  16756  16756  16843  16847M 16849  16904M 16942M 16949  16989M
                                                 17002  17003  17005  17124  17125  17125  17125  17126M 17153M 17158M
                                                 17192M 17200  17240M 17253  17254  17256  17662M 17752M 17776M 17970M
                                                 18043M 18073M 18097M 18189M 18243M 18258M 18567M 18588M 18669M 18695M
                                                 18721M 18829M 19029M 19096M 19150M 19194M 19222M 19294M 19665M 19689M
                                                 19723M 19745M 19861M 19902M 19931M 20025M 20066M 20095M 20189  20189
                                                 20189  20337  20543M 20566M 20582M 20771M 20803M 20960  20995M 21065
                                                 21066  21066  21066  21100M 21120M 21265M 21980M 21998M 22037M 22523M
                                                 22642M 22761M 22928M 23163M 23164M 23164  23424M 23425M 23425  23976M
                                                 23989  23990  23992  24342  24342  24342  24406M 24441M 24462M 24482M
                                                 24533M 24557M 24602M 24635M 24674M 24697M 24722M 24776M 24814M 24861M
                                                 24918M 24955M 24979M 25018M 25038M 25089M 25113M 25156M 25179M 25237M
                                                 25261M 25304M 25328M 25385M 25409M 25451M 25475M 25536M 25560M 25640M
                                                 25689M 25722M 25746M 25792M 25816M 25858M 25882M 25947M 25996M 26029M
                                                 26053M 26115M 26185M 26237M 26285M 26333M 26375M 26413M 26451M 26503M
                                                 26541M 26575M 26603M 26641M 26665M 26707M 26731M 26773M 26797M 26839M
                                                 26905M 26943M 26981M 27019M 27057M 27095M 27119M 27161M 27185M 27227M
                                                 27265M 27305M 27322M 27389M 27429M 27446M 27522M 27540M 27601M 27642M
                                                 27660M 27724M 27742M 27997M 29042M 29043M 29043  29124M 29223M 29224M
                                                 29224  29305M 29397M 29398M 29398  29516M 29663M 29676  29677  29679
                                                 30464M 30465M 30465  30506M 30519  30520  30521  30746M 30747M 30747
                                                 31616M 31617M 31617  31775M 31812M 31819  31827M 31840  31841  31842
                                                 31882M 31889M 31902  31903  31904  31941M 31948M 31961  31962  31963
                                                 32088M 32091M 32093  32110  32127  32144  32187M 32209M 32331M 32368M
                                                 32375  32383M 32396  32397  32398  32438M 32445M 32458  32459  32460
                                                 32497M 32504M 32517  32518  32519  32644M 32647M 32649  32666  32683
                                                 32700  32717  32734  32751  32775M 32797M 32870M 32883  32884  32886
                                                 33223M 33236  33237  33239  33814M 33934M 34046M 34059  34097M 34115M
                                                 34236  34274M 34295  34385M 34411M 34433M 34549M 34566M 35054M 35055M
                                                 35055  35057M 35188M 35189M 35189  35212M 35230M 35333M 35334M 35334
                                                 35538M 35653M 35666  35667  35669  36010M 36023  36024  36026  36453M
                                                 36454M 36454  36886M 36887M 36887  37322M 37329  37339M 37352  37353
                                                 37354  37425M 37438  37439  37440  37478M 37712M 37784M 37856M 37857M
                                                 37857  38004M 38081M 38082M 38082  38987M 39070M 39127M 39145M 39183M
                                                 39201M 39221M 39236M 39269  39270  39270  39270  39274M 39290M 39331M
                                                 39379M 39403M 39425M 39834M 39838M 39844M 39860M 39860  39864M 39878M
                                                 39883M 39893M 39897M 39919  39927M 39940  39941  39942  40028M 40029M
                                                 40029  40059M 40145M 40163M 40182M 40314M 40349M 40357M 40507M 40620M
                                                 40630  40638M 40651  40652  40654  40762  40762  40762  40889  40909
                                                 40954  41051M 41075M 41096M 41119M 41140M 41164M 41185M 41225M 41252
                                                 41257M 41294M 41338M 41375M 41413M 41436M 41694M 42168M 42193M 42215M
                                                 42216M 42389M 42413M 42447M 42472M 42496M 42518M 42558M 42589M 42610M
                                                 42634M 42697M 42755M 43268M 43300M 43332M 43345M 43365M 43372M 43406M
                                                 43440M 43462M 43625M 43668M 43692M 43714M 43738M 43758M 43786M 43810M
                                                 43832M 43856M 43878M 43894M 43917M 43944M 44204M 44335M 44360M 44380M
                                                 44461M 44715M 44758M 44804M 44827M 44850M 44872M 44924M 44940M 44998M
1RJE      (RJE4072) (12:53) (15MAR04) Ordinary Symbol and Literal Cross Reference                                           Page  171
                                                 45014M 45072M 45088M 45136M 45158M 45183M 45207M 45228M 45252M 45272M
                                                 45303M 45351M 45373M 45398M 45422M 45443M 45467M 45487M 45518M 45583M
                                                 45607M 45627M 45680M 45704M 45724M 45772M 45793M 45838M 45854M 45903M
                                                 45919M 45967M 45988M 46033M 46057M 46077M 46126M 46150M 46170M 46219M
                                                 46243M 46263M 46312M 46328M 46377M 46393M 46442M 46458M 46507M 46523M
                                                 46572M 46588M 46636M 46657M 46703M 46727M 46747M 46796M 46830M 46858M
                                                 46896M 46920M 46962M 46986M 47028M 47052M 47094M 47114M 47164M 47180M
                                                 47229M 47245M 47294M 47318M 47338M 47386M 47407M 47470M 47488M 47507M
                                                 47575M 47593M 47612M 47660M 47678M 47697M 47745M 47784M 47808M 47829M
                                                 47853M 47901M 47925M 47946M 47970M 48073M 48119M 48169M 48193M 48231M
                                                 48255M 48281M 48315M 48339M 48361M 48399M 48423M 48445M 48467M 48510M
                                                 48570M 48596M 48629M 48653M 48699M 48732M 48755M 48778M 48807M 48836M
                                                 48875M 48902M 48942M 48975M 48996M 49040M 49097M 49178M 49202M 49272M
                                                 49296M 49920M 49958M 49978  50006M 50006  50063M 50080M 50101M 50106
                                                 50146M 50172  50181M 50225M 50392M 50393M 50395  50417  50418  50418
                                                 50418  50426M 50448M 50458M 50545M 50739M 50786M 50833M 50880M 51282
                                                 51290M 51304  52342  52382M 52383M 52432M 52433M 52507  52507  52507
 R12          12 0000000C FFFFFFFF A   #     863  2135
 R13          13 0000000D FFFFFFFF A   #     876  7923   7924   7925   7941   7942   7943   8188   8189   8190   8205
                                                  8206   8207   8294   8295   8296   8311   8312   8313  10259  10260
                                                 10261  10277  10278  10279  10420  10421  10422  10438  10439  10440
                                                 11278  11279  11280  11296  11297  11298  11330  11331  11332  11348
                                                 11349  11350  11710  11711  11712  11728  11729  11730  13784  13785
                                                 13786  13802  13803  13804  13836  13837  13838  13854  13855  13856
                                                 14518  14519  14520  14536  14537  14538  16997  16998  16999  17015
                                                 17016  17017  17248  17249  17250  17266  17267  17268  23984  23985
                                                 23986  24002  24003  24004  29671  29672  29673  29689  29690  29691
                                                 30514  30515  30516  30531  30532  30533  31798  31835  31836  31837
                                                 31852  31853  31854  31897  31898  31899  31914  31915  31916  31956
                                                 31957  31958  31973  31974  31975  32354  32391  32392  32393  32408
                                                 32409  32410  32453  32454  32455  32470  32471  32472  32512  32513
                                                 32514  32529  32530  32531  32878  32879  32880  32896  32897  32898
                                                 33231  33232  33233  33249  33250  33251  34054  34055  34056  34069
                                                 34070  34071  35661  35662  35663  35679  35680  35681  36018  36019
                                                 36020  36036  36037  36038  37308  37347  37348  37349  37364  37365
                                                 37366  37433  37434  37435  37450  37451  37452  39935  39936  39937
                                                 39952  39953  39954  40607  40646  40647  40648  40664  40665  40666
                                                 51265  51298  51299  51300  51314  51315  51316
 R14          14 0000000E FFFFFFFF A   #     889  2110M  7469M  7470   7471   7475M  7475   7905M  7906   7907   7911M
                                                  7911   7922M  7923   7924   7925   7930M  7931   7938M  7941   7942
                                                  7943   8187M  8188   8189   8190   8202M  8205   8206   8207   8293M
                                                  8294   8295   8296   8308M  8311   8312   8313   8720M  8727M  8735
                                                  8736M  9155M  9156   9157   9161M  9161  10258M 10259  10260  10261
                                                 10266M 10267  10274M 10277  10278  10279  10419M 10420  10421  10422
                                                 10427M 10428  10435M 10438  10439  10440  11277M 11278  11279  11280
                                                 11285M 11286  11293M 11296  11297  11298  11329M 11330  11331  11332
                                                 11337M 11338  11345M 11348  11349  11350  11676M 11677  11678  11682M
                                                 11682  11709M 11710  11711  11712  11717M 11718  11725M 11728  11729
                                                 11730  13783M 13784  13785  13786  13791M 13792  13799M 13802  13803
                                                 13804  13835M 13836  13837  13838  13843M 13844  13851M 13854  13855
                                                 13856  14278M 14279  14280  14284M 14284  14517M 14518  14519  14520
                                                 14525M 14526  14533M 14536  14537  14538  16948M 16949  16950  16954M
                                                 16954  16996M 16997  16998  16999  17004M 17005  17012M 17015  17016
                                                 17017  17120M 17124  17125  17125  17125  17126  17153M 17199M 17200
                                                 17201  17205M 17205  17247M 17248  17249  17250  17255M 17256  17263M
                                                 17266  17267  17268  20189  20189  20189  23983M 23984  23985  23986
                                                 23991M 23992  23999M 24002  24003  24004  24026M 24027  24042  24057
                                                 24058  24059  24059  24060  24061  24074  24078M 24078  29670M 29671
                                                 29672  29673  29678M 29679  29686M 29689  29690  29691  29723M 29724
1RJE      (RJE4072) (12:53) (15MAR04) Ordinary Symbol and Literal Cross Reference                                           Page  172
                                                 29739  29754  29755  29756  29756  29757  29758  29771  29775M 29775
                                                 30513M 30514  30515  30516  30528M 30531  30532  30533  30621M 30622
                                                 30637  30652  30653  30654  30654  30655  30656  30669  30673M 30673
                                                 31797M 31798  31818M 31819  31820  31824M 31824  31834M 31835  31836
                                                 31837  31849M 31852  31853  31854  31896M 31897  31898  31899  31911M
                                                 31914  31915  31916  31955M 31956  31957  31958  31970M 31973  31974
                                                 31975  32011M 32014  32353M 32354  32374M 32375  32376  32380M 32380
                                                 32390M 32391  32392  32393  32405M 32408  32409  32410  32452M 32453
                                                 32454  32455  32467M 32470  32471  32472  32511M 32512  32513  32514
                                                 32526M 32529  32530  32531  32567M 32570  32877M 32878  32879  32880
                                                 32885M 32886  32893M 32896  32897  32898  32925M 32926  32941  32956
                                                 32957  32958  32958  32959  32960  32973  32977M 32977  33230M 33231
                                                 33232  33233  33238M 33239  33246M 33249  33250  33251  33278M 33279
                                                 33294  33309  33310  33311  33311  33312  33313  33326  33330M 33330
                                                 34053M 34054  34055  34056  34066M 34069  34070  34071  35660M 35661
                                                 35662  35663  35668M 35669  35676M 35679  35680  35681  35708M 35709
                                                 35724  35739  35740  35741  35741  35742  35743  35756  35760M 35760
                                                 36017M 36018  36019  36020  36025M 36026  36033M 36036  36037  36038
                                                 36065M 36066  36081  36096  36097  36098  36098  36099  36100  36113
                                                 36117M 36117  37307M 37308  37328M 37329  37330  37334M 37334  37346M
                                                 37347  37348  37349  37361M 37364  37365  37366  37432M 37433  37434
                                                 37435  37447M 37450  37451  37452  37507M 37510  39918M 39919  39920
                                                 39924M 39924  39934M 39935  39936  39937  39949M 39952  39953  39954
                                                 40606M 40607  40629M 40630  40631  40635M 40635  40645M 40646  40647
                                                 40648  40653M 40654  40661M 40664  40665  40666  40671M 40674  51264M
                                                 51265  51281M 51282  51283  51287M 51287  51297M 51298  51299  51300
                                                 51303M 51304  51311M 51314  51315  51316  51321M 51324
 R15          15 0000000F FFFFFFFF A   #     902  2109   7379M  7401M  7519M  7519   7631M  7653M  7753M  7753   7850M
                                                  7854M  7863M  7863   7870   7944M  7944   7965M  7965   8156M  8208M
                                                  8208   8221M  8221   8314M  8314   8323M  8323   8342M  8342   8445M
                                                  8445   8489M  8511M  8511   8530M  8530   8597M  8597   8663M  8663
                                                  8771M  8781U  8819M  8819   8889   8895M  8895   8969M  9013M  9013
                                                  9064   9099M  9099   9214M  9214   9287M  9287   9380M  9420M  9438M
                                                  9465M  9465  10203M 10218M 10280M 10280  10441M 10441  10546M 10579M
                                                 10606M 10623M 10658M 10686M 10714M 10749M 10822M 10861M 10861  11040M
                                                 11040  11203M 11218M 11299M 11299  11351M 11351  11441M 11441  11550M
                                                 11550  11688  11731M 11731  11760M 11775M 11812M 11830M 11848M 11868M
                                                 11896M 11914M 11922M 11954M 11981M 12007M 12025M 12043M 12076M 12076
                                                 12423M 12423  12513M 12513  12696M 12726M 12744M 12774M 12984M 12984
                                                 13181M 13181  13364M 13388M 13415M 13415  13599M 13614M 13805M 13805
                                                 13857M 13857  14004M 14004  14113M 14113  14291  14317M 14332M 14539M
                                                 14539  14548M 14548  14587M 14653M 14763M 14763  14849M 14850M 14851
                                                 14879M 14931M 14979M 15016M 15045M 15142M 15174M 15214M 15264M 15295M
                                                 15322M 15342M 15369M 15386M 15413M 15446M 15474M 15491M 15513M 15560M
                                                 15589M 15589  15655M 15655  15675M 15696M 15712  15719  16122M 16152M
                                                 16170M 16200M 16704M 16704  17018M 17018  17146M 17269M 17269  17668M
                                                 17799M 17839M 17979M 18056M 18120M 18160M 18198M 18271M 18295M 18303M
                                                 18304M 18305  18333M 18334M 18335  18362  18761M 18842M 19041M 19105M
                                                 19209M 19252M 19316M 19438M 19516M 19524M 19525M 19526  19553  19588M
                                                 19588  19680M 19698M 19732M 19754M 19783M 19807M 19807  19893M 19911M
                                                 19920M 19955M 19979M 19979  20057M 20075M 20084M 20119M 20143M 20143
                                                 20328M 20340M 20342  20478M 20595M 20679M 20757M 20784M 20829M 20857M
                                                 20857  20961  20983M 21023M 21024M 21024  21040M 21040  21045M 21046M
                                                 21058  21086M 21113M 21144M 21175M 21203M 21203  21278M 21292M 21315M
                                                 21315  21989M 22007M 22046M 22078M 22078  22194M 22198M 22207M 22207
                                                 22214  22240M 22240  22259M 22259  22375M 22379M 22388M 22388  22395
                                                 22421M 22421  22440M 22440  22514M 22540M 22540  22559M 22559  22633M
                                                 22659M 22659  22678M 22678  22752M 22778M 22778  22797M 22797  22919M
                                                 22968M 22968  22987M 22987  23053M 23053  23119M 23119  23248M 23248
1RJE      (RJE4072) (12:53) (15MAR04) Ordinary Symbol and Literal Cross Reference                                           Page  173
                                                 23267M 23267  23361M 23361  23380M 23380  23508M 23508  23527M 23527
                                                 23593M 23593  23660M 23660  23726M 23726  23793M 23793  23865M 23865
                                                 23931M 23931  24005M 24005  24017  24027M 24036M 24036  24042M 24051M
                                                 24051  24057M 24058M 24060M 24061  24073M 24073  24074  24137M 24137
                                                 24156M 24156  24232M 24251M 24251  24293M 24312M 24312  24415M 24450M
                                                 24507M 24542M 24570M 24611M 24648M 24683M 24710M 24731M 24785M 24823M
                                                 24870M 24927M 24964M 24992M 25063M 25098M 25126M 25165M 25192M 25246M
                                                 25274M 25313M 25341M 25394M 25422M 25460M 25488M 25545M 25573M 25649M
                                                 25698M 25731M 25759M 25801M 25829M 25867M 25895M 25956M 26005M 26038M
                                                 26066M 26124M 26194M 26246M 26294M 26342M 26384M 26422M 26460M 26512M
                                                 26550M 26584M 26616M 26650M 26678M 26716M 26744M 26782M 26810M 26848M
                                                 26876M 26914M 26952M 26990M 27028M 27066M 27104M 27132M 27170M 27198M
                                                 27236M 27274M 27314M 27334M 27358M 27398M 27438M 27458M 27482M 27531M
                                                 27552M 27576M 27610M 27651M 27672M 27696M 27733M 27754M 27778M 27807M
                                                 27839M 27839  28022M 28022  29114M 29134M 29134  29153M 29153  29295M
                                                 29315M 29315  29334M 29334  29429M 29506M 29553M 29558M 29567M 29567
                                                 29574  29600M 29600  29619M 29619  29692M 29692  29704  29724M 29733M
                                                 29733  29739M 29748M 29748  29754M 29755M 29757M 29758  29770M 29770
                                                 29771  29783M 29783  29802M 29802  29915M 29934M 29934  29986M 30005M
                                                 30005  30063M 30082M 30082  30124M 30143M 30143  30216M 30216  30286M
                                                 30286  30359M 30359  30534M 30534  30622M 30631M 30631  30637M 30646M
                                                 30646  30652M 30653M 30655M 30656  30668M 30668  30669  30683M 30683
                                                 30702M 30702  30749M 30759  30777M 30777  30796M 30796  30892M 30892
                                                 30994M 30994  31090M 31090  31192M 31192  31309M 31309  31411M 31411
                                                 31528M 31528  31657M 31657  31676M 31676  31720M 31721M 31721  31855M
                                                 31855  31863M 31864M 31864  31917M 31917  31925M 31926M 31926  31976M
                                                 31976  32026M 32026  32045M 32045  32187  32199M 32232M 32232  32276M
                                                 32277M 32277  32411M 32411  32419M 32420M 32420  32473M 32473  32481M
                                                 32482M 32482  32532M 32532  32582M 32582  32601M 32601  32775  32787M
                                                 32820M 32820  32899M 32899  32916  32926M 32935M 32935  32941M 32950M
                                                 32950  32956M 32957M 32959M 32960  32972M 32972  32973  32985M 32985
                                                 33004M 33004  33092M 33111M 33111  33153M 33172M 33172  33252M 33252
                                                 33269  33279M 33288M 33288  33294M 33303M 33303  33309M 33310M 33312M
                                                 33313  33325M 33325  33326  33338M 33338  33357M 33357  33475M 33494M
                                                 33494  33542M 33561M 33561  33603M 33622M 33622  33688M 33688  33805M
                                                 33831M 33831  33850M 33850  33925M 33951M 33951  33970M 33970  34072M
                                                 34072  34106M 34172M 34175  34187M 34195M 34204M 34204  34211  34295M
                                                 34296M 34297M 34326M 34329  34341M 34349M 34358M 34358  34365  34424M
                                                 34442M 34572M 34865M 34865  34889M 34889  35069M 35069  35088M 35088
                                                 35221M 35244M 35244  35263M 35263  35374M 35374  35393M 35393  35463M
                                                 35464M 35464  35528M 35584M 35584  35603M 35603  35682M 35682  35699
                                                 35709M 35718M 35718  35724M 35733M 35733  35739M 35740M 35742M 35743
                                                 35755M 35755  35756  35768M 35768  35787M 35787  35875M 35894M 35894
                                                 35936M 35955M 35955  36039M 36039  36056  36066M 36075M 36075  36081M
                                                 36090M 36090  36096M 36097M 36099M 36100  36112M 36112  36113  36125M
                                                 36125  36144M 36144  36232M 36251M 36251  36293M 36312M 36312  36383M
                                                 36383  36494M 36494  36513M 36513  36608M 36608  36703M 36703  36797M
                                                 36797  36816M 36816  36927M 36927  36946M 36946  37055M 37055  37164M
                                                 37164  37287M 37288M 37288  37367M 37367  37418M 37419M 37419  37453M
                                                 37453  37549M 37549  37568M 37568  37668M 37668  37721M 37721  37740M
                                                 37740  37793M 37793  37812M 37812  37865M 37865  37884M 37884  38018M
                                                 38018  38037M 38037  38132M 38132  38151M 38151  38195M 38196M 38196
                                                 38301M 38301  38320M 38320  38420M 38420  38520M 38520  38628M 38628
                                                 38743M 38744M 38745  38770M 38770  38959  38996M 39083M 39136M 39157M
                                                 39192M 39213M 39230M 39283M 39309M 39337M 39350M 39350  39388M 39416M
                                                 39434M 39471M 39471  39955M 39955  39964M 39964  40154M 40172M 40193M
                                                 40193  40196M 40207M 40232M 40232  40534M 40534  40667M 40667  40699M
                                                 40699  40909M 40910M 40912M 40948M 41060M 41088M 41105M 41132M 41149M
                                                 41177M 41194M 41266M 41309M 41353M 41384M 41422M 41449M 41992M 41993M
1RJE      (RJE4072) (12:53) (15MAR04) Ordinary Symbol and Literal Cross Reference                                           Page  174
                                                 41995  42172M 42172  42194M 42209  42398M 42426M 42481M 42509M 42527M
                                                 42571M 42602M 42619M 42647M 42667M 42668M 42680  42709M 42740M 42768M
                                                 42792M 43293M 43325M 43358M 43397M 43415M 43449M 43471M 43507M 43507
                                                 43677M 43705M 43723M 43751M 43795M 43823M 43841M 43869M 43887M 44011M
                                                 44012M 44013  44014M 44015M 44016  44076M 44077M 44078  44138M 44140M
                                                 44156M 44156  44161  44165M 44166M 44167  44179  44339M 44339  44361M
                                                 44367  44381M 44389M 44398M 44398  44405  44448M 44469M 44492M 44523M
                                                 44523  44750M 44767M 44819M 44836M 44865M 44916M 44933M 44990M 45007M
                                                 45064M 45081M 45128M 45145M 45192M 45220M 45237M 45265M 45296M 45343M
                                                 45360M 45407M 45435M 45452M 45480M 45511M 45575M 45592M 45620M 45672M
                                                 45689M 45717M 45763M 45781M 45830M 45847M 45895M 45912M 45958M 45976M
                                                 46025M 46042M 46070M 46118M 46135M 46163M 46211M 46228M 46256M 46304M
                                                 46321M 46369M 46386M 46434M 46451M 46499M 46516M 46564M 46581M 46627M
                                                 46645M 46695M 46712M 46740M 46788M 46805M 46839M 46871M 46905M 46933M
                                                 46971M 46999M 47037M 47065M 47103M 47156M 47173M 47221M 47238M 47286M
                                                 47303M 47331M 47377M 47395M 47462M 47479M 47500M 47567M 47584M 47605M
                                                 47652M 47669M 47690M 47736M 47754M 47793M 47821M 47838M 47868M 47892M
                                                 47910M 47938M 47955M 47985M 48009M 48082M 48128M 48178M 48206M 48240M
                                                 48268M 48290M 48324M 48352M 48370M 48408M 48436M 48454M 48476M 48523M
                                                 48583M 48605M 48617M 48638M 48668M 48714M 48747M 48764M 48793M 48822M
                                                 48859  48866M 48875  48887M 48917M 48951M 48984M 49005M 49053M 49110M
                                                 49138M 49187M 49215M 49239M 49281M 49309M 49333M 49370M 49370  49522
                                                 49667M 49667  50021M 50036M 50041M 50042  50108M 50111M 50113  50159M
                                                 50194M 50238M 50441M 50470M 50483M 50508M 50518M 50518  50560M 50954M
                                                 50954  51045  51109M 51113M 51122M 51122  51129  51189M 51189  51251
                                                 51317M 51317  51343M 51343  51554M 51573M 51573  51640M 51640  51707M
                                                 51707  51781M 51781  51847M 51847  51914M 51914  51980M 51980  52047M
                                                 52047  52113M 52113  52180M 52180  52318M 52335M 52340  52384M 52388M
                                                 52397M 52397  52404  52475M 52475
 R2            2 00000002 FFFFFFFF A   #     733  8712M  8754   8755   8787   8796   8935M  8935   8950   8977M  9189M
                                                  9338M 13050M 13055M 13059M 13153  13230  13242M 13262  13277M 13300
                                                 13322  13334M 13356  16841M 16846M 16964M 16964  16982M 17032M 17032
                                                 17039  17115M 17192  17215M 17215  17233M 17283M 17283  17290  17683M
                                                 17687  17689M 17697M 17707M 17707  17882  17894M 17914  17929M 18012
                                                 18029  18062M 18229  18263  19074M 19074  19299  19379M 19488  19863M
                                                 19865  19866  19866  19866  19873M 19920  20027M 20029  20030  20030
                                                 20030  20037M 20084  20193  20193  20193  20369M 20389M 20421  20430M
                                                 20430  20446M 20462M 20462  20463M 20472M 20472  20478  20620M 20729
                                                 27500M 27501M 27501  27540  27632M 27633M 27633  27660  27714M 27715M
                                                 27715  27742  37336M 37422M 39239M 40601M 41252M 41294  41338  41364M
                                                 44309M 44330M 44367M 44380  44381  44772M 44790M 47409M 47418M 47418
                                                 47439M 47439  47488  47522M 47523M 47523  47544M 47544  47593  47627M
                                                 47628M 47628  47678  48615M 48617  50172M 50173M 50186  50199  50200
                                                 50501M 50508  50598M 50598  50636M 50669M 50725M 50725
 R3            3 00000003 FFFFFFFF A   #     746  8176M  8272   8283M  8936M  8976M 10287M 10297U 11386M 11394U 12619M
                                                 12630U 13051M 13058M 13148  13351  13949M 13957U 14289M 14355  14384
                                                 14420  14434  14457  14490  14554M 14562U 16045M 16056U 16842M 17155M
                                                 17178M 17178  17197  17681M 17682M 18043  18061M 18258  19294  19378M
                                                 19464  20368M 20451M 20458M 20505M 20619M 20705  20959M 20973M 20973
                                                 21000  21150M 24616M 24624U 37335M 37421M 40036M 40071M 40105M 40122
                                                 41253M 41281M 41281  41366M 41500M 41500  41521M 42032M 42032  42065
                                                 42077M 42081M 42090M 42090  42097  42156  42166M 42209  42216  42224M
                                                 42233M 42233  42240  42285  42298M 42307M 42307  42314  43350  44308M
                                                 44329M 44468M 44491M 50712M 50713M 50744  50791  50838  50885  51107M
                                                 51108M 52344M 52345M 52360  52380M 52434
 R4            4 00000004 FFFFFFFF A   #     759  7699M  7717   8177M  8282M 10122M 10130U 11687M 11923B 13052M 13055M
                                                 14290M 14647M 14647  14654B 16843M 16846M 16850M 17614M 17614  17667
                                                 17673M 17683  17935M 17966M 18012  18029  18048  18061  18062  18063M
                                                 18203M 19360M 19372  19402M 19413M 19413  19466M 20367M 20453M 20457M
1RJE      (RJE4072) (12:53) (15MAR04) Ordinary Symbol and Literal Cross Reference                                           Page  175
                                                 20507M 20601M 20613  20643M 20654M 20654  20707M 20960M 21149M 23973M
                                                 24125  24229M 24231  24231M 34237M 34273M 34467  34479M 34487M 34496M
                                                 34496  34503  34571  34591  34603M 34611M 34620M 34620  34627  34673
                                                 34710  41496M 43345  44018M 44082M 44082  44140  44467M 44489M 49979M
                                                 49982  49994M 50057M 50057  50108  50151  50200M 50212  50230  50253
                                                 50256M 50279M 50306M 50318  50370M 50370  50399M 50530M 50537M 50567M
                                                 50683M 50683  50700M 50907M 50907  51060M 51070U 52342M 52343M 52379M
                                                 52382  52432
 R5            5 00000005 FFFFFFFF A   #     772  7665M  7680M  7680   7695U  7714   7717M  7820M  7828U  8889M 10519M
                                                 10546  11688M 11927B 13053M 13054M 14291M 14662B 16844M 16845M 16849M
                                                 17681  18567  19665  20366M 20452M 20456M 20506M 20961M 21105  34236M
                                                 34566  38959M 39015M 39015  39039  39055M 39055  39145  39201  40889M
                                                 40997M 40997  41495M 41496  41520M 41546M 41571M 41591M 41670M 41694
                                                 41759M 42652  42697  43559M 43568U 43625  49522M 49532U 49978M 50146
                                                 50173  50181  50199M 50225  50253  50254M 50277M 50304M 50394  50397M
                                                 50528M 50537M 50545  50565M 51045M 51055U 51251M 51259U 52304M 52305M
                                                 52305  52360  52371  52379  52380
 R6            6 00000006 FFFFFFFF A   #     785  7289M  7297U  7307   7809M  7817U  8890M  8911U  8925M  8926M  8926
                                                  8969   9064M  9072U 10098M 10106U 10121  11151M 11159U 11174  11629M
                                                 11637U 11652  12567M 12575U 13038M 13046U 13552M 13560U 13575  14231M
                                                 14239U 14254  14785U 15611U 16829M 16837U 19605U 20220U 49507M 49517U
                                                 49876U 51030M 51040U 51248U 52287U
 R7            7 00000007 FFFFFFFF A   #     798  2102M  2102   2103B  2115B
 R8            8 00000008 FFFFFFFF A   #     811  7285U 10094U 11147U 11625U 13548U 14227U 20299U 20954U 34039U 38931U
                                                 39551U 40873U 49863U 52274U
 SAVEDATA      1 00000000 00000015     T    9498  9498
 SAYSUB        4 000076FC 00000001     I   39379 39353B
 SCANCHK       1 00000000 0000001F     T   11064 11064  13442  14138  20165  33715  38641
 SCDQUOTE      1 00000000 00000013     T    9496  9496  24337  38639
 SCINFO        1 00000000 0000002A     T   13454 13454  16724
 SCNEXFR       1 00000000 00000029     T   13437 13437  14133
 SCNINVAL      1 00000000 00000039     T   24332 24332  40731
 SCNNOOP       1 00000000 00000005     T    8105  8105  12154  12169  12184  12199  21423  21438  21543
 SCUPCASE      1 00000000 00000012     T    9493  9493
 SDSNBATM      1 00000009 00000001 A   U    6324 11873
 SDSNPRIN      1 00000006 00000001 A   U    6321  7451
 SDSNQSZ       1 0000002C FFFFFFEC A   U    6090  6091   6092
 SEG           1 00000000 00000007     T    9477  9477  11072  13461  16734  20170  20870  24328  27859  30375  33717
                                                 38654  40747  44547  49386  52498
 SEGB          1 00000000 00000024     T   11076 11076  13467  16745  20171  24329  27855  44557  49396
 SEGCB        60 00000000 FFFFFFE7     J    6923 49532U 51055U
 SEGCBCOD      1 00000000 FFFFFFE7     R    6834  6843   6853   6863   6873   6883   6893   6903
 SEGCBLENF
               4 0000000C FFFFFFE7     A    6909 51108
 SEGCBSEG      1 00000000 FFFFFFE7         6843 51086
 SEGCBUSR      4 00000038 FFFFFFE7     A    6916 51060
 SEGCBWR       2 00000000 FFFFFFE7         6853 49548
 SEGCLR        1 00000000 00000038     T   24331 24331
 SEGCOL        1 00000000 00000048     T   44560 44560  49390
 SEGCR         1 00000000 00000006     T    9476  9476  20183  38647  44558
 SEGDC         1 00000000 0000003D     T   27870 27870  40748  49393
 SEGINIT       1 00000000 0000001C     T   11057 11057  13434  14130  16725  20166  40746  52495
 SEGINITR      1 00000000 0000001D     T   11059 11059  13436  14132  16727  52497
 SEGT          1 00000000 00000022     T   11073 11073  16749  20177  20867  27869  40752  44549  49387
 SEGTB         1 00000000 0000003B     T   27856 27856  38646  44548
 SEGWR         1 00000000 00000023     T   11074 11074  13460  16744  20174  20869  24327  27872  40745  44561  49391
 SENDER        2 0000656A 00000001     H   33858 28489
 SEP           2 000061D8 00000001     H   33179 28459
 SEPBACK       2 000063C0 00000001     H   33568 33434
1RJE      (RJE4072) (12:53) (15MAR04) Ordinary Symbol and Literal Cross Reference                                           Page  176
 SEPNO         2 00006390 00000001     H   33501 33404  33419
 SEPPRT        4 0000629C 00000001     F   33362 33721
 SEPYES        2 00006364 00000001     H   33440 33374  33389
 SETBLKX       2 00006034 00000001     H   32801 32664B 32681B 32698B 32715B 32732B 32749B 32766B
 SETBLOCK      2 00005FBA 00000001     H   32608 33718
 SETLPR        2 0000069C 00000001     H    9118  9114
 SETPFXNS      1 00000000 00000020     T   11066 11066
 SETPRIO       2 00005D78 00000001     H   32052 33713
 SETPRIOX      2 00005DE6 00000001     H   32213 32108B 32125B 32142B 32159B
 SETPRT        2 0000065A 00000001     H    9029  9025
 SETWPRT       2 00000016 00000001     H    7243  7239
 SHOWLPR       2 000006EE 00000001     H    9226  9222
 SPR          13 0000000D 00000001 A   #    1127  7250   7253   7255   7256M  7256   7745M  7749   7751   7780   7783
                                                  7784   7785M  7785   7957M  7961   7963   8118   8121   8122   8123M
                                                  8123   8334M  8338   8340   8356   8359   8360   8361M  8361   8437M
                                                  8441   8443   8458   8461   8462   8463M  8463   8522M  8526   8528
                                                  8543   8546   8547   8548M  8548   8589M  8593   8595   8610   8613
                                                  8614   8615M  8615   8655M  8659   8661   8676   8679   8680   8681M
                                                  8681   8811M  8815   8817   8860   8863   8864   8865M  8865   9005M
                                                  9009   9011   9035   9038   9039   9040M  9040   9091M  9095   9097
                                                  9124   9127   9128   9129M  9129   9206M  9210   9212   9232   9235
                                                  9236   9237M  9237   9279M  9283   9285   9305   9308   9309   9310M
                                                  9310   9457M  9461   9463  10059  10062  10064  10065M 10065  10853M
                                                 10857  10859  10987  10990  10991  10992M 10992  11032M 11036  11038
                                                 11112  11115  11117  11118M 11118  11542M 11546  11548  11590  11593
                                                 11595  11596M 11596  12068M 12072  12074  12346  12349  12350  12351M
                                                 12351  12415M 12419  12421  12436  12439  12440  12441M 12441  12505M
                                                 12509  12511  12538  12541  12542  12543M 12543  12976M 12980  12982
                                                 13009  13012  13013  13014M 13014  13407M 13411  13413  13513  13516
                                                 13518  13519M 13519  14105M 14109  14111  14192  14195  14197  14198M
                                                 14198  14755M 14759  14761  14797  14800  14801  14802M 14802  15581M
                                                 15585  15587  15623  15626  15627  15628M 15628  16696M 16700  16702
                                                 16800  16803  16804  16805M 16805  19580M 19584  19586  19624  19627
                                                 19628  19629M 19629  19799M 19803  19805  19830  19833  19834  19835M
                                                 19835  19971M 19975  19977  19994  19997  19998  19999M 19999  20135M
                                                 20139  20141  20264  20267  20269  20270M 20270  20849M 20853  20855
                                                 20919  20922  20924  20925M 20925  21195M 21199  21201  21224  21227
                                                 21228  21229M 21229  21307M 21311  21313  21916  21919  21920  21921M
                                                 21921  22070M 22074  22076  22091  22094  22095  22096M 22096  22251M
                                                 22255  22257  22272  22275  22276  22277M 22277  22432M 22436  22438
                                                 22453  22456  22457  22458M 22458  22551M 22555  22557  22572  22575
                                                 22576  22577M 22577  22670M 22674  22676  22691  22694  22695  22696M
                                                 22696  22789M 22793  22795  22810  22813  22814  22815M 22815  22979M
                                                 22983  22985  23000  23003  23004  23005M 23005  23045M 23049  23051
                                                 23066  23069  23070  23071M 23071  23111M 23115  23117  23132  23135
                                                 23136  23137M 23137  23259M 23263  23265  23280  23283  23284  23285M
                                                 23285  23372M 23376  23378  23393  23396  23397  23398M 23398  23519M
                                                 23523  23525  23540  23543  23544  23545M 23545  23585M 23589  23591
                                                 23606  23609  23610  23611M 23611  23652M 23656  23658  23673  23676
                                                 23677  23678M 23678  23718M 23722  23724  23739  23742  23743  23744M
                                                 23744  23785M 23789  23791  23806  23809  23810  23811M 23811  23857M
                                                 23861  23863  23878  23881  23882  23883M 23883  23923M 23927  23929
                                                 23944  23947  23948  23949M 23949  24148M 24152  24154  24200  24203
                                                 24204  24205M 24205  24243M 24247  24249  24264  24267  24268  24269M
                                                 24269  24304M 24308  24310  24366  24369  24370  24371M 24371  27831M
                                                 27835  27837  27968  27971  27972  27973M 27973  28014M 28018  28020
                                                 28985  28988  28989  28990M 28990  29145M 29149  29151  29166  29169
                                                 29170  29171M 29171  29326M 29330  29332  29366  29369  29370  29371M
                                                 29371  29611M 29615  29617  29632  29635  29636  29637M 29637  29794M
1RJE      (RJE4072) (12:53) (15MAR04) Ordinary Symbol and Literal Cross Reference                                           Page  177
                                                 29798  29800  29876  29879  29880  29881M 29881  29926M 29930  29932
                                                 29947  29950  29951  29952M 29952  29997M 30001  30003  30018  30021
                                                 30022  30023M 30023  30074M 30078  30080  30095  30098  30099  30100M
                                                 30100  30135M 30139  30141  30156  30159  30160  30161M 30161  30208M
                                                 30212  30214  30229  30232  30233  30234M 30234  30278M 30282  30284
                                                 30299  30302  30303  30304M 30304  30351M 30355  30357  30404  30407
                                                 30408  30409M 30409  30694M 30698  30700  30715  30718  30719  30720M
                                                 30720  30788M 30792  30794  30809  30812  30813  30814M 30814  30884M
                                                 30888  30890  30905  30908  30909  30910M 30910  30986M 30990  30992
                                                 31007  31010  31011  31012M 31012  31082M 31086  31088  31103  31106
                                                 31107  31108M 31108  31184M 31188  31190  31205  31208  31209  31210M
                                                 31210  31301M 31305  31307  31322  31325  31326  31327M 31327  31403M
                                                 31407  31409  31424  31427  31428  31429M 31429  31520M 31524  31526
                                                 31559  31562  31563  31564M 31564  31668M 31672  31674  31689  31692
                                                 31693  31694M 31694  32037M 32041  32043  32058  32061  32062  32063M
                                                 32063  32224M 32228  32230  32245  32248  32249  32250M 32250  32593M
                                                 32597  32599  32614  32617  32618  32619M 32619  32812M 32816  32818
                                                 32833  32836  32837  32838M 32838  32996M 33000  33002  33063  33066
                                                 33067  33068M 33068  33103M 33107  33109  33124  33127  33128  33129M
                                                 33129  33164M 33168  33170  33185  33188  33189  33190M 33190  33349M
                                                 33353  33355  33446  33449  33450  33451M 33451  33486M 33490  33492
                                                 33507  33510  33511  33512M 33512  33553M 33557  33559  33574  33577
                                                 33578  33579M 33579  33614M 33618  33620  33635  33638  33639  33640M
                                                 33640  33680M 33684  33686  33744  33747  33748  33749M 33749  33842M
                                                 33846  33848  33864  33867  33868  33869M 33869  33962M 33966  33968
                                                 34004  34007  34009  34010M 34010  34881M 34885  34887  34902  34905
                                                 34906  34907M 34907  35080M 35084  35086  35101  35104  35105  35106M
                                                 35106  35255M 35259  35261  35276  35279  35280  35281M 35281  35385M
                                                 35389  35391  35406  35409  35410  35411M 35411  35595M 35599  35601
                                                 35616  35619  35620  35621M 35621  35779M 35783  35785  35846  35849
                                                 35850  35851M 35851  35886M 35890  35892  35907  35910  35911  35912M
                                                 35912  35947M 35951  35953  35968  35971  35972  35973M 35973  36136M
                                                 36140  36142  36203  36206  36207  36208M 36208  36243M 36247  36249
                                                 36264  36267  36268  36269M 36269  36304M 36308  36310  36325  36328
                                                 36329  36330M 36330  36375M 36379  36381  36396  36399  36400  36401M
                                                 36401  36505M 36509  36511  36526  36529  36530  36531M 36531  36600M
                                                 36604  36606  36621  36624  36625  36626M 36626  36695M 36699  36701
                                                 36716  36719  36720  36721M 36721  36808M 36812  36814  36829  36832
                                                 36833  36834M 36834  36938M 36942  36944  36959  36962  36963  36964M
                                                 36964  37047M 37051  37053  37068  37071  37072  37073M 37073  37156M
                                                 37160  37162  37177  37180  37181  37182M 37182  37560M 37564  37566
                                                 37581  37584  37585  37586M 37586  37660M 37664  37666  37681  37684
                                                 37685  37686M 37686  37732M 37736  37738  37753  37756  37757  37758M
                                                 37758  37804M 37808  37810  37825  37828  37829  37830M 37830  37876M
                                                 37880  37882  37897  37900  37901  37902M 37902  38029M 38033  38035
                                                 38050  38053  38054  38055M 38055  38143M 38147  38149  38164  38167
                                                 38168  38169M 38169  38312M 38316  38318  38333  38336  38337  38338M
                                                 38338  38412M 38416  38418  38433  38436  38437  38438M 38438  38512M
                                                 38516  38518  38533  38536  38537  38538M 38538  38620M 38624  38626
                                                 38711  38714  38715  38716M 38716  38762M 38766  38768  38896  38899
                                                 38901  38902M 38902  39463M 39467  39469  39516  39519  39521  39522M
                                                 39522  40224M 40228  40230  40252  40255  40256  40257M 40257  40526M
                                                 40530  40532  40554  40557  40558  40559M 40559  40691M 40695  40697
                                                 40838  40841  40843  40844M 40844  43499M 43503  43505  43526  43529
                                                 43530  43531M 43531  44515M 44519  44521  44630  44633  44634  44635M
                                                 44635  49362M 49366  49368  49478  49481  49482  49483M 49483  49659M
                                                 49663  49665  49828  49831  49833  49834M 49834  50946M 50950  50952
                                                 51001  51004  51005  51006M 51006  51181M 51185  51187  51212  51215
                                                 51216  51217M 51217  51335M 51339  51341  51525  51528  51529  51530M
1RJE      (RJE4072) (12:53) (15MAR04) Ordinary Symbol and Literal Cross Reference                                           Page  178
                                                 51530  51565M 51569  51571  51586  51589  51590  51591M 51591  51632M
                                                 51636  51638  51653  51656  51657  51658M 51658  51699M 51703  51705
                                                 51720  51723  51724  51725M 51725  51773M 51777  51779  51794  51797
                                                 51798  51799M 51799  51839M 51843  51845  51860  51863  51864  51865M
                                                 51865  51906M 51910  51912  51927  51930  51931  51932M 51932  51972M
                                                 51976  51978  51993  51996  51997  51998M 51998  52039M 52043  52045
                                                 52060  52063  52064  52065M 52065  52105M 52109  52111  52126  52129
                                                 52130  52131M 52131  52172M 52176  52178  52239  52242  52244  52245M
                                                 52245  52467M 52471  52473
 SPRT        138 0000000C FFFFFFE4     X    7218  7820   8734
 SPRTACCT      2 000004AA 00000001     H    8350  8000
 SPRTCMD       2 000004F6 00000001     H    8452  8015
 SPRTEND       2 0000058A 00000001     H    8670  8090
 SPRTKEY       2 00000532 00000001     H    8537  8030   8045
 SPRTLINE    235 00000096 FFFFFFE4     C    7220  7877M  7899   9490
 SPRTNAME      2 0000038C 00000001     H    8112  7985
 SPRTNKEY      2 0000055E 00000001     H    8604  8060   8075
 SPRTPRT       4 00000224 00000001     F    7973  9491
 SPRTQH        4 00000004 FFFFFFE4     A    7215  7554M  7554   7666   8747M  8747   8754M
 SPRTQT        4 00000008 FFFFFFE4     A    7216  8755M  8771   8796M
 SPRTRTN       2 00000176 00000001     H    7774  9486
 SPRTWA      385 00000000 FFFFFFE4     J    7227  7256   7285U  7289   7297U  7305M  7305   7306M  7306   7749   7751
                                                  7752   7817U
 SYS           2 00007254 00000001     H   38044 28866
 SYSAFF        2 0000729E 00000001     H   38158 28896  38667
 SYSOUT        2 000071BA 00000001     H   37819 28881
 SYSOUTX       2 000071F2 00000001     H   37891 38665
 TESTDATA      6 000078C2 00000001     I   39868 39863B
 TESTDLM       6 000078FE 00000001     I   39891 39894B
 TESTF2        6 0000787A 00000001     I   39848 39843B
 TESTJCL       2 000077CE 00000001     H   39691 39640B
 TEXTONLY      1 00000000 00000030     T   20169 20169
 TEXTPSH       1 00000000 00000033     T   21798 21798
 TO            2 000065B8 00000001     H   33997 28521
 TOEXIT        2 00006816 00000001     H   34861 34230B 34543B
 TRC           2 0000710E 00000001     H   37575 28791
 TRC           1 00000000 00000000 A   T    2131  2131
 TTYFLAG       1 00000004 FFFFFFEA     R    6219  6223
 TTYMAX#       1 00000006 FFFFFFEA A   U    6275  6276
 TTYTFLAG      1 00000005 FFFFFFEA     R    6229  6233   6238   6243   6248   6253   6258   6263
 UNPRST        1 00000001 FFFFFFEC A   U    6179  9485  13447  13451  13452  14142  14146  14147
 UNREC         2 00003700 00000001     H   21910 21903
 UPLOW         2 00007182 00000001     H   37747 28836
 UPPJCL        2 00007A56 00000001     H   40246 40753
 UPPJCLQ       2 00007A76 00000001     H   40299 40371B
 UPPJCLX       2 00007AF2 00000001     H   40518 40377B
 UPPTBL        1 00000000 00000000 A   T    2194  2194
 WAR           8 00000008 00000001 A   #    1050  7255M  7745   7784M  7957   8122M  8334   8360M  8437   8462M  8522
                                                  8547M  8589   8614M  8655   8680M  8811   8864M  9005   9039M  9091
                                                  9128M  9206   9236M  9279   9309M  9457  10064M 10853  10991M 11032
                                                 11117M 11542  11595M 12068  12350M 12415  12440M 12505  12542M 12976
                                                 13013M 13407  13518M 14105  14197M 14755  14801M 15581  15627M 16696
                                                 16804M 19580  19628M 19799  19834M 19971  19998M 20135  20269M 20849
                                                 20924M 21195  21228M 21307  21920M 22070  22095M 22251  22276M 22432
                                                 22457M 22551  22576M 22670  22695M 22789  22814M 22979  23004M 23045
                                                 23070M 23111  23136M 23259  23284M 23372  23397M 23519  23544M 23585
                                                 23610M 23652  23677M 23718  23743M 23785  23810M 23857  23882M 23923
                                                 23948M 24148  24204M 24231  24243  24268M 24304  24370M 27831  27972M
                                                 28003  28014  28989M 29145  29170M 29326  29370M 29611  29636M 29794
1RJE      (RJE4072) (12:53) (15MAR04) Ordinary Symbol and Literal Cross Reference                                           Page  179
                                                 29880M 29926  29951M 29997  30022M 30074  30099M 30135  30160M 30208
                                                 30233M 30278  30303M 30351  30408M 30694  30719M 30788  30813M 30884
                                                 30909M 30986  31011M 31082  31107M 31184  31209M 31301  31326M 31403
                                                 31428M 31520  31563M 31668  31693M 32037  32062M 32224  32249M 32593
                                                 32618M 32812  32837M 32996  33067M 33103  33128M 33164  33189M 33349
                                                 33450M 33486  33511M 33553  33578M 33614  33639M 33680  33748M 33842
                                                 33868M 33962  34009M 34881  34906M 35080  35105M 35255  35280M 35385
                                                 35410M 35595  35620M 35779  35850M 35886  35911M 35947  35972M 36136
                                                 36207M 36243  36268M 36304  36329M 36375  36400M 36505  36530M 36600
                                                 36625M 36695  36720M 36808  36833M 36938  36963M 37047  37072M 37156
                                                 37181M 37560  37585M 37660  37685M 37732  37757M 37804  37829M 37876
                                                 37901M 38029  38054M 38143  38168M 38312  38337M 38412  38437M 38512
                                                 38537M 38620  38715M 38762  38901M 39463  39521M 40224  40256M 40526
                                                 40558M 40691  40843M 43499  43530M 44515  44634M 49362  49482M 49659
                                                 49833M 50946  51005M 51181  51216M 51335  51529M 51565  51590M 51632
                                                 51657M 51699  51724M 51773  51798M 51839  51864M 51906  51931M 51972
                                                 51997M 52039  52064M 52105  52130M 52172  52244M 52467
 WRAP          2 00005AFC 00000001     H   31418 28339
 WRAPCCS       2 00000002 FFFFFFD9     C   52207 52317M 52378M 52411
 WRAPCLEN      2 00000000 FFFFFFD9     H   52206 52340M 52343  52345  52372  52383  52384  52433  52435
 WRAPWA        4 00000000 FFFFFFD9     J   52214 52245  52274U 52298M 52298  52471  52473  52474
 WRAPWR        2 0000A1FC 00000001     H   52232 52228  52492
 WTOSG         1 00000000 00000000 A   T    2091  2091
 WYLRJE        1 00000000 00000001     J     998  1000   1032   1045   1058   1070   1083   1096   1109   1122   1135
                                                  1148   2375   2459   6199   6311   6607   6818   6924   7155   7160
                                                  7199   7228   7883
 XHOLD         2 0000570C 00000001     H   30223 28144  28159
 =A((DESRTRN+LEXATRTN+UNPRST))
               4 00001744 00000001     A   13451 11490
 =A((DESRTRN+LEXATRTN+UNPRST))
               4 00001AE8 00000001     A   14146 14053
 =A((DESRTRN+LOCATRTN+UNPRST))
               4 00001748 00000001     A   13452 11512
 =A((DESRTRN+LOCATRTN+UNPRST))
               4 00001AEC 00000001     A   14147 14075
 =A((DESRTRN+LXCATRTN+UNPRST))
               4 000007D4 00000001     A    9485  7530
 =A((DESRTRN+LXCATRTN+UNPRST))
               4 00001734 00000001     A   13447 11451
 =A((DESRTRN+LXCATRTN+UNPRST))
               4 00001AD8 00000001     A   14142 14014
 =A(BACKSEG)
               4 00002298 00000001     A   16750 15539
 =A(BACKSEG)
               4 00002C64 00000001     A   20181 19353
 =A(BURSTPRT)
               4 00007424 00000001     A   38658 35668
 =A(CHKNUM)
               4 00007C94 00000001     A   40754 39662  39727  39821
 =A(CHKNUM)
               4 00008780 00000001     A   44544 40887
 =A(CKACCT)
               4 00008788 00000001     A   44546 41040  42021
 =A(CONDPRT)
               4 00000CE8 00000001     A   11062 10266
 =A(CONDPRT1)
               4 00000D00 00000001     A   11068 10427
 =A(DUPPRT)
               4 00007430 00000001     A   38661 36025
1RJE      (RJE4072) (12:53) (15MAR04) Ordinary Symbol and Literal Cross Reference                                           Page  180
 =A(FCMDPRT)
               4 0000A2D0 00000001     A   52502 51303
 =A(FMTCMD)
               4 0000A2C8 00000001     A   52500 50486
 =A(FMTWR)
               4 0000A2A4 00000001     A   52491 49608
 =A(FSEG)      4 0000A2B8 00000001     A   52496 50028
 =A(HEXSEG)
               4 00002C5C 00000001     A   20179 19319
 =A(HOLDPRT)
               4 000057A4 00000001     A   30381 29678
 =A(JOBCARD)
               4 00000D08 00000001     A   11070 10559
 =A(JOBCARD)
               4 00001770 00000001     A   13458 11793  13156
 =A(JOBCARD)
               4 00002274 00000001     A   16741 14844
 =A(JOBCLOSE)
               4 00000D1C 00000001     A   11075 10760
 =A(JOBCLOSE)
               4 0000174C 00000001     A   13453 11524  12051  13129
 =A(JOBCLOSE)
               4 00001AF0 00000001     A   14148 14087
 =A(JOBCLOSE)
               4 00002268 00000001     A   16738 14735
 =A(JOBCNTL)
               4 00000D0C 00000001     A   11071 10563
 =A(JOBCNTL)
               4 00001774 00000001     A   13459 11797  13190
 =A(JOBCNTL)
               4 0000227C 00000001     A   16743 14858
 =A(JOBCNTL)
               4 00007C68 00000001     A   40743 38953
 =A(JOBCRDCK)
               4 000017B4 00000001     A   13469 13114
 =A(JOBOPEN)
               4 00000D04 00000001     A   11069 10551
 =A(JOBOPEN)
               4 0000176C 00000001     A   13457 11785  13104  13140
 =A(JOBOPEN)
               4 00002270 00000001     A   16740 14836
 =A(KEEPPRT)
               4 000064A0 00000001     A   33719 32885
 =A(L'FMTTEXT)
               4 0000A2B0 00000001     A   52494 49982  49994
 =A(L'RJEBIN)
               4 00006480 00000001     A   33711 31599
 =A(L'RJECHAR0)
               4 0000743C 00000001     A   38664 37270  37401
 =A(L'RJEDEST)
               4 000073EC 00000001     A   38644 34329  34341  35007
 =A(L'RJEFCB)
               4 00007418 00000001     A   38655 35316
 =A(L'RJEFLASH)
               4 00007438 00000001     A   38663 36869
 =A(L'RJEFORMS)
               4 00007410 00000001     A   38653 35141
 =A(L'RJEHEADL)
               4 00003E20 00000001     A   24336 22358  22370
1RJE      (RJE4072) (12:53) (15MAR04) Ordinary Symbol and Literal Cross Reference                                           Page  181
 =A(L'RJEID)
               4 00005798 00000001     A   30378 29414
 =A(L'RJENAME)
               4 00005780 00000001     A   30372 29025
 =A(L'RJEPFORM)
               4 00007434 00000001     A   38662 36436
 =A(L'RJEPFX)
               4 00005790 00000001     A   30376 29206
 =A(L'RJEPRINT)
               4 0000741C 00000001     A   38656 35446
 =A(L'RJESYSCL)
               4 00007444 00000001     A   38666 37937  38094
 =A(L'RJETITLE)
               4 00003E1C 00000001     A   24335 22177  22189
 =A(L'RJETO)
               4 000073E4 00000001     A   38642 34175  34187  34467  34479  34591  34603
 =A(L'SPRTLINE)
               4 000007F8 00000001     A    9490  7833   7845
 =A(MIXSEG)
               4 00002C60 00000001     A   20180 19344
 =A(NCHKPRT)
               4 00007CB0 00000001     A   40761 40653
 =A(OPTLINE)
               4 00002278 00000001     A   16742 14854
 =A(PDARKPRT)
               4 00003E30 00000001     A   24340 23991
 =A(PRINTDEL)
               4 00002C58 00000001     A   20178 18371  19562
 =A(PRINTJCL)
               4 0000225C 00000001     A   16735 14627
 =A(PRINTJCL)
               4 00002C30 00000001     A   20168 17381
 =A(PRINTOPT)
               4 0000226C 00000001     A   16739 14831
 =A(PRINTPRF)
               4 00001AC0 00000001     A   14136 13791
 =A(PRINTPRT)
               4 00001ACC 00000001     A   14139 13843
 =A(PRINTPRT)
               4 00002250 00000001     A   16732 14525
 =A(PRINTPRT)
               4 00002C1C 00000001     A   20163 17004  17255
 =A(PRINTRTN)
               4 00001ADC 00000001     A   14143 14015  14054  14076
 =A(PRINTRTN)
               4 00002260 00000001     A   16736 14676  14718  14726
 =A(PRTMAX#)
               4 00000808 00000001     A    9494  8272   8950
 =A(RJEKWS)
               4 00005778 00000001     A   30370 27997
 =A(RJEPRT)
               4 00001768 00000001     A   13456 11717
 =A(RSEG)      4 00000CD8 00000001     A   11058 10210
 =A(RSEG)      4 00001704 00000001     A   13435 11210  11767
 =A(RSEG)      4 00001AAC 00000001     A   14131 13606
 =A(RSEG)      4 00002238 00000001     A   16726 14324
 =A(RUNOPT)
               4 00001728 00000001     A   13444 11364
 =A(RUNPRT)
1RJE      (RJE4072) (12:53) (15MAR04) Ordinary Symbol and Literal Cross Reference                                           Page  182
               4 00001724 00000001     A   13443 11337
 =A(RUNPRTF)
               4 00001718 00000001     A   13440 11285
 =A(RUNRTN)
               4 00001738 00000001     A   13448 11452  11491  11513
 =A(SEPPRT)
               4 000064A8 00000001     A   33721 33238
 =A(SETBLOCK)
               4 0000649C 00000001     A   33718 32334  32441  32500
 =A(SETPRIO)
               4 00006488 00000001     A   33713 31778  31885  31944
 =A(SPRTPRT)
               4 000007FC 00000001     A    9491  7930
 =A(SPRTRTN)
               4 000007D8 00000001     A    9486  7531
 =A(SYSAFF)
               4 00007448 00000001     A   38667 38123
 =A(SYSOUTX)
               4 00007440 00000001     A   38665 37716  37788  37860  38103
 =A(UPPJCL)
               4 00007C90 00000001     A   40753 39575  39750  39827
 =A(WRAPWR)
               4 0000A2A8 00000001     A   52492 49628  49907  50751  50798  50845  50892
 =A(1)         4 00002244 00000001     A   16729 14384
 =A(1)         4 00002C68 00000001     A   20182 19372
 =A(1)         4 00002ECC 00000001     A   20868 20613
 =A(1)         4 00003E2C 00000001     A   24339 22911
 =A(1)         4 0000879C 00000001     A   44551 41364
 =A(1)         4 000095DC 00000001     A   49389 45741  45936  46605  47355  47714
 =A(1)         4 0000A2AC 00000001     A   52493 49899  50318
 =A(12)        4 00009620 00000001     A   49402 48859
 =A(120)       4 00003DF8 00000001     A   24326 21058
 =A(2)         4 000017C0 00000001     A   13472 13300
 =A(2)         4 00002240 00000001     A   16728 14355  14420
 =A(20000)
               4 00008814 00000001     A   44569 44179
 =A(3)         4 00002248 00000001     A   16730 14434  14457
 =A(3)         4 00003E28 00000001     A   24338 22897
 =A(3)         4 00007400 00000001     A   38649 34673
 =A(3)         4 0000A2C4 00000001     A   52499 50212
 =A(4)         4 0000224C 00000001     A   16731 14490
 =A(4)         4 00003DF4 00000001     A   24325 21003  21015  24017
 =A(4)         4 000057AC 00000001     A   30383 29704
 =A(4)         4 000064A4 00000001     A   33720 32916  33269
 =A(4)         4 0000742C 00000001     A   38660 35699  36056
 =A(6)         4 0000080C 00000001     A    9495  8398
 =A(6)         4 00005B4C 00000001     A   31539 30546
 =A(6)         4 00007404 00000001     A   38650 34710
 =A(6)         4 00007CA4 00000001     A   40758 40001
 =A(6)         4 000087A4 00000001     A   44553 41780  41846  41980  42065
 =A(7)         4 000073E8 00000001     A   38643 34289
 =A(7)         4 000087AC 00000001     A   44555 41890
 =A(71)        4 00008784 00000001     A   44545 40892  40904  42680
 =A(72)        4 000017B8 00000001     A   13470 13230  13242  13262
 =A(72)        4 00002C40 00000001     A   20172 17882  17894  17914
 =A(73)        4 00007CAC 00000001     A   40760 40594
 =A(8)         4 0000579C 00000001     A   30379 29441
 =A(8)         4 00006494 00000001     A   33716 32162  32174
 =A(8)         4 000087A8 00000001     A   44554 41794  41935  42285
1RJE      (RJE4072) (12:53) (15MAR04) Ordinary Symbol and Literal Cross Reference                                           Page  183
 =A(80)        4 000017C4 00000001     A   13473 13322  13334
 =A(80)        4 00002C4C 00000001     A   20175 18229
 =A(9)         4 000087B0 00000001     A   44556 42156
 =AL2(-1)      2 00008872 00000001     R   44581 44066
 =AL2(L'PRTCMD)
               2 00000826 00000001     R    9502  9077
 =AL2(1)       2 00004824 00000001     R   27889 27295
 =AL2(2)       2 00004826 00000001     R   27890 27379  27419
 =AL2(4+1)
               2 0000882E 00000001     R   44575 41993
 =C' - local printer.'
              17 00000872 00000001     C    9506  9429
 =C' '         1 00004841 00000001     C   27895 24722
 =C' "'        2 000022EC 00000001     C   16764 15437
 =C' can''t run jobs.  This account '
              31 000088A1 00000001     C   44590 43878
 =C' in '      4 000087F8 00000001     C   44564 43406
 =C' is not valid for batch.'
              24 00008758 00000001     C   44541 43758
 =C' submitted.'
              11 00007CF8 00000001     C   40781 39425
 =C' LPRINT'
               7 00007CE8 00000001     C   40779 39221
 =C' ON '      4 00004794 00000001     C   27860 24674
 =C' PRINTER='
               9 00007CEF 00000001     C   40780 39274
 =C'.'         1 00000D67 00000001     C   11086 10544
 =C'.'         1 0000186A 00000001     C   13489 12735
 =C'.'         1 00002313 00000001     C   16768 14714  15377  16161
 =C'.'         1 00002C9A 00000001     C   20196 17970  18189  19096
 =C'.'         1 000088A0 00000001     C   44589 43714  43832
 =C'.'         1 000096D3 00000001     C   49430 44827  47829  47946
 =C'.BITNET'
               7 000074E1 00000001     C   38680 34308
 =C'('         1 0000487B 00000001     C   27905 26575
 =C'('         1 000096E0 00000001     C   49433 45183  45398  46830
 =C'(From'
               5 0000235F 00000001     C   16778 16640
 =C'(MAIL)'
               6 000047C8 00000001     C   27873 24441
 =C'+ '        2 0000A2D8 00000001     C   52504 49967
 =C'+1'        2 0000A2DA 00000001     C   52505 49970
 =C'+2'        2 0000A2DC 00000001     C   52506 49973
 =C'&&'        1 00007D27 00000001     C   40790 40085  40098
 =C'&&'        1 0000887D 00000001     C   44586 42048
 =C'$'         1 0000887B 00000001     C   44584 41140  42610
 =C'*NETFAX*'
               8 000095C8 00000001     C   49385 49024
 =C')'         1 0000487D 00000001     C   27907 26839
 =C')'         1 000096E1 00000001     C   49434 45272  45487  47094
 =C';;;;'      4 00009624 00000001     C   49403 48996
 =C';DATA:'
               6 000017FE 00000001     C   13479 11945
 =C';END:'
               5 0000185E 00000001     C   13487 11998
 =C'/*'        2 00007CBA 00000001     C   40765 39719  39884
 =C'/*COMMENT'
               9 0000482E 00000001     C   27892 24406
 =C'/*DEL'
1RJE      (RJE4072) (12:53) (15MAR04) Ordinary Symbol and Literal Cross Reference                                           Page  184
               5 00007D08 00000001     C   40783 39611  40145
 =C'/*EOF'
               5 00007D03 00000001     C   40782 39597
 =C'/*JOBPARM '
              10 00009634 00000001     C   49405 44715  45793  45988  46657  47407
 =C'/*JOBPARM LINES=50'
              18 000017CC 00000001     C   13476 11803
 =C'/*LIST '
               7 00002314 00000001     C   16769 14870
 =C'/*LIST'
               6 00007CC2 00000001     C   40767 39773
 =C'/*MAIL Date:'
              12 00009610 00000001     C   49400 48629
 =C'/*MAIL From:'
              12 000095FC 00000001     C   49397 48467
 =C'/*MAIL FAX TO'
              13 00009744 00000001     C   49445 48169
 =C'/*MAIL Notify:'
              14 000096A2 00000001     C   49420 48315
 =C'/*MAIL To:'
              10 000096B0 00000001     C   49421 48399
 =C'/*MAIL'
               6 00007CBC 00000001     C   40766 39741
 =C'/*MAIL'
               6 000096C6 00000001     C   49428 49178
 =C'/*PUR'
               5 00007D0D 00000001     C   40784 39625
 =C'/*ROUTE PRINT '
              14 0000967E 00000001     C   49416 47784
 =C'/*ROUTE PUNCH '
              14 0000968C 00000001     C   49417 47901
 =C'/*ROUTE XEQ '
              12 00009628 00000001     C   49404 49272
 =C'/*SENDER MAILER@RLG'
              19 00009731 00000001     C   49444 48119
 =C'/*SENDER MAILER@STANFORD'
              24 000095B0 00000001     C   49384 48073
 =C'// EXEC BATMAIL,OPT=''ESC=%,OUT=%'''
              33 00001834 00000001     C   13485 11821
 =C'// EXEC CONDENSE,DSN='''
              22 00000D2E 00000001     C   11081 10570
 =C'// EXEC NOLIST'
              14 00000D44 00000001     C   11082 10740
 =C'//* (End of BATMAIL)'
              20 00001790 00000001     C   13464 12034
 =C'//*'       3 00007D12 00000001     C   40785 39823
 =C'//'        2 00001808 00000001     C   13482 13313
 =C'//'        2 00007CB8 00000001     C   40764 39700  40134
 =C'//'        2 00008820 00000001     C   44572 41051  41486  42472
 =C'//SYSIN DD *,DCB=LRECL=150'
              26 000017DE 00000001     C   13477 11839
 =C', '        2 000096BA 00000001     C   49422 48755
 =C','         1 0000487C 00000001     C   27906 26641  26707  26773
 =C','         1 000096D4 00000001     C   49431 44872  44940  45014  45088  45228  45303  45443  45518  45627  45724
                                                 45854  45919  46077  46170  46263  46328  46393  46458  46523  46588
                                                 46747  46896  46962  47028  47114  47180  47245  47338  47507  47612
                                                 47697
 =C','''       2 00008822 00000001     C   44573 41257
 =C',DLM='
1RJE      (RJE4072) (12:53) (15MAR04) Ordinary Symbol and Literal Cross Reference                                           Page  185
               5 00007D22 00000001     C   40789 39891
 =C',MSGCLASS='
              10 00008824 00000001     C   44574 41413
 =C',PUNCH'
               6 000022DE 00000001     C   16761 15007
 =C',TRC=Y'
               6 000022D8 00000001     C   16760 14970
 =C',VOL='
               5 00000D69 00000001     C   11088 10649
 =C'%!'        2 00002C78 00000001     C   20187 17079
 =C'_FA'       3 00001AFC 00000001     C   14152 13714
 =C': invalid account format on job card'
              36 000087D4 00000001     C   44563 43300
 =C': invalid characters in jobname'
              31 00008881 00000001     C   44588 43332
 =C': invalid characters in name.'
              29 000057B2 00000001     C   30385 29124
 =C': invalid characters in prefix.'
              31 000057CF 00000001     C   30386 29305
 =C': invalid characters in ID.'
              27 000057EE 00000001     C   30387 29516
 =C': invalid printer'
              17 00007539 00000001     C   38686 35538
 =C': invalid priority'
              18 000064B2 00000001     C   33725 32209
 =C': invalid time block.'
              21 000064C4 00000001     C   33726 32797
 =C': invalid CC char in '
              21 00002CD1 00000001     C   20201 19689
 =C': jobname too long'
              18 00008842 00000001     C   44577 43365
 =C':'         1 0000231D 00000001     C   16772 15504
 =C'#BATMAILX'
               9 00001855 00000001     C   13486 11905
 =C''''        1 00000D68 00000001     C   11087 10614
 =C''''        1 0000887C 00000001     C   44585 41185  41375
 =C'"'         1 0000231C 00000001     C   16771 15482
 =C'"DLM=//" not allowed on DD card.'
              32 00007C40 00000001     C   40741 40163
 =C'does not exist.'
              15 0000186B 00000001     C   13490 12784
 =C'does not exist.'
              15 00002348 00000001     C   16775 16210
 =C'external'
               8 00002C10 00000001     C   20161 19723
 =C'external'
               8 00008748 00000001     C   44539 43440
 =C'has expired.'
              12 00008808 00000001     C   44568 43917
 =C'is an unknown address.'
              22 00007454 00000001     C   38671 34433
 =C'is over budget.'
              15 000088CD 00000001     C   44592 43944
 =C'is suspended.'
              13 000088C0 00000001     C   44591 43894
 =C'line '
               5 00002CE6 00000001     C   20202 19745
 =C'line'      4 000087FC 00000001     C   44565 43462
 =C'not saved.'
1RJE      (RJE4072) (12:53) (15MAR04) Ordinary Symbol and Literal Cross Reference                                           Page  186
              10 00000D58 00000001     C   11084 10835
 =C'output exceeds the account limit of'
              35 00002CF2 00000001     C   20204 19902  20066
 =C'specifying ''title''.'
              19 00003E3E 00000001     C   24345 21998
 =C'A'         1 0000754B 00000001     C   38688 37784
 =C'Account '
               8 00008750 00000001     C   44540 43668  43786
 =C'Account'
               7 00001863 00000001     C   13488 12687
 =C'Account'
               7 00002341 00000001     C   16774 16113
 =C'AM'        2 000096C0 00000001     C   49425 48942
 =C'ANY '      4 00007420 00000001     C   38657 35503  38248
 =C'Bad job card'
              12 000087C8 00000001     C   44562 43268
 =C'BACK'      4 000047B0 00000001     C   27867 26375
 =C'BATMAIL '
               8 000016F0 00000001     C   13432 11690
 =C'BEGIN'
               5 0000086D 00000001     C    9505  8252
 =C'BIN='      4 000095D8 00000001     C   49388 45680
 =C'BLOCK='
               6 0000963E 00000001     C   49406 45136
 =C'BOND'      4 000047A0 00000001     C   27863 25079
 =C'BURST'
               5 0000487E 00000001     C   27908 26905
 =C'BURST=YES'
               9 000096EC 00000001     C   49437 46312
 =C'C*'        2 00000D28 00000001     C   11078 10235  10800
 =C'CC'        2 000022D4 00000001     C   16758 14887
 =C'CC'        2 00004802 00000001     C   27882 26413
 =C'CHARS='
               6 00004806 00000001     C   27884 26541
 =C'CHARS='
               6 0000966E 00000001     C   49414 46796
 =C'CLASS='
               6 00009668 00000001     C   49413 46703
 =C'COND '
               5 00000D62 00000001     C   11085 10175
 =C'COPIES='
               7 00004891 00000001     C   27911 27305
 =C'COPIES='
               7 0000971C 00000001     C   49441 47470
 =C'DARK'      4 000047C0 00000001     C   27871 27389
 =C'DARK='
               5 00004898 00000001     C   27912 27429
 =C'DATA'      4 00007C9C 00000001     C   40756 39868
 =C'DD '       3 00007D1F 00000001     C   40788 39856
 =C'DEST='
               5 00004855 00000001     C   27899 24955
 =C'DEST='
               5 000096E7 00000001     C   49436 45583
 =C'DOCUMENT'
               8 00004758 00000001     C   27850 25018
 =C'DOUBLE'
               6 00004818 00000001     C   27887 27227
 =C'DUPLEX'
               6 0000480C 00000001     C   27885 26943
1RJE      (RJE4072) (12:53) (15MAR04) Ordinary Symbol and Literal Cross Reference                                           Page  187
 =C'DUPLEX=NO'
               9 00009713 00000001     C   49440 47229
 =C'DUPLEX=YES'
              10 00009674 00000001     C   49415 47164
 =C'Expanded JOB card too long'
              26 00008854 00000001     C   44578 43372
 =C'EJECT='
               6 00004828 00000001     C   27891 27522
 =C'EXEC '
               5 00007D15 00000001     C   40786 39851
 =C'EXEC'      4 00004798 00000001     C   27861 24776
 =C'Fax phone number not specified'
              30 000022F0 00000001     C   16766 16340
 =C'FAX'       3 00002357 00000001     C   16776 16358
 =C'FCB='      4 000047A8 00000001     C   27865 25304  25451  25858
 =C'FCB='      4 000095E8 00000001     C   49392 46033
 =C'FEED=(MANUAL,FIRST)'
              19 00009700 00000001     C   49439 46572
 =C'FEED=MANUAL'
              11 000096F5 00000001     C   49438 46507
 =C'FICHE'
               5 00004866 00000001     C   27902 25689
 =C'FLASH='
               6 000047DC 00000001     C   27877 25237  25385  25792
 =C'FLASH='
               6 0000965C 00000001     C   49411 46219
 =C'FMANUAL'
               7 00004883 00000001     C   27909 27057
 =C'FORMS='
               6 000047D6 00000001     C   27876 25089  25536
 =C'FORMS='
               6 00009656 00000001     C   49410 46126
 =C'FROM'      4 00002290 00000001     C   16748 15333
 =C'FROM'      4 0000478C 00000001     C   27858 24602
 =C'HEX'       3 00004842 00000001     C   27896 24814
 =C'HOLD=ALL'
               8 00009590 00000001     C   49380 44924
 =C'HOLD=JOB'
               8 00009598 00000001     C   49381 44998
 =C'HOLD=OUTPUT'
              11 000096D5 00000001     C   49432 45072
 =C'IMPACT '
               7 00007532 00000001     C   38685 35490
 =C'INDENT='
               7 000048A4 00000001     C   27914 27642
 =C'INDENT='
               7 0000972A 00000001     C   49443 47660
 =C'INTEGER'
               7 00004874 00000001     C   27904 26333
 =C'Job '      4 00007C88 00000001     C   40751 39379
 =C'Job will be canceled.'
              21 00007D28 00000001     C   40791 40182
 =C'Jobname changed to'
              18 00008830 00000001     C   44576 42389
 =C'JCL=NO'
               6 00009650 00000001     C   49409 45903
 =C'JOB '      4 00007C98 00000001     C   40755 39848
 =C'JOB '      4 000087A0 00000001     C   44552 41562
 =C'JOB '''
1RJE      (RJE4072) (12:53) (15MAR04) Ordinary Symbol and Literal Cross Reference                                           Page  188
               5 00008876 00000001     C   44583 41096
 =C'JOB'       3 0000887E 00000001     C   44587 42518
 =C'JOBMASK.'
               8 00008770 00000001     C   44542 43988
 =C'JPRINT '
               7 00007CE1 00000001     C   40778 39183
 =C'KEEP=YES'
               8 000095A0 00000001     C   49382 46377
 =C'Library member not saved.'
              25 00000D6E 00000001     C   11089 10782
 =C'Lines submitted to JES2.'
              24 00007C18 00000001     C   40739 38987
 =C'LAND  '
               6 000047E2 00000001     C   27878 25936
 =C'LANDSCAPE'
               9 0000486B 00000001     C   27903 25947
 =C'LINECT='
               7 00009723 00000001     C   49442 47575
 =C'LIST'      4 000047AC 00000001     C   27866 26115
 =C'LOCATE '
               7 00007CDA 00000001     C   40777 39127
 =C'LOG=NO'
               6 0000964A 00000001     C   49408 45838
 =C'LOGOFF CLEAR'
              12 00001784 00000001     C   13463 12016
 =C'LPR'       3 00001AF9 00000001     C   14151 13685
 =C'M'         1 0000754A 00000001     C   38687 37712
 =C'Member'
               6 00000D52 00000001     C   11083 10813
 =C'Missing account after TO.'
              25 000074C8 00000001     C   38679 34097
 =C'MAIL '
               5 0000230E 00000001     C   16767 14294  16581
 =C'MANUAL'
               6 00004812 00000001     C   27886 27019
 =C'MARKER='
               7 0000488A 00000001     C   27910 27161
 =C'MC'        2 000022D6 00000001     C   16759 14907
 =C'MC'        2 00004804 00000001     C   27883 26451
 =C'MEMO'      4 0000229C 00000001     C   16751 15992
 =C'MEMO'      4 0000479C 00000001     C   27862 25038  25227
 =C'MEM6'      4 000022A0 00000001     C   16752 16014
 =C'MEM6'      4 000047A4 00000001     C   27864 25294
 =C'MIXED'
               5 00004845 00000001     C   27897 24861
 =C'No local printer type set.'
              26 00000828 00000001     C    9503  9371
 =C'No printers defined.'
              20 000007E4 00000001     C    9489  7644
 =C'NODUPLEX'
               8 00004770 00000001     C   27853 26981
 =C'NOEJECT'
               7 0000489D 00000001     C   27913 27601
 =C'NOLIST option is invalid for PRINT.'
              35 0000231E 00000001     C   16773 15759
 =C'NON'       3 00005B56 00000001     C   31542 30486
 =C'NONUMBER'
               8 00004768 00000001     C   27852 26185
 =C'NOTEXT'
1RJE      (RJE4072) (12:53) (15MAR04) Ordinary Symbol and Literal Cross Reference                                           Page  189
               6 000047FC 00000001     C   27881 26285
 =C'NOTIFY='
               7 000096CC 00000001     C   49429 44758
 =C'Only 4 character sets allowed.'
              30 0000747E 00000001     C   38676 37478
 =C'OPTIONS:'
               8 00002C08 00000001     C   20160 16925
 =C'Printed'
               7 00002D15 00000001     C   20205 20025
 =C'Punched lines can not be longer than 80 characters.'
              51 00002C9B 00000001     C   20197 18243
 =C'Punched'
               7 00002CEB 00000001     C   20203 19861
 =C'PFORMAT='
               8 00004760 00000001     C   27851 26029
 =C'PFORMAT='
               8 000095A8 00000001     C   49383 47294
 =C'PM'        2 000096C2 00000001     C   49426 48975
 =C'POST  '
               6 000022E4 00000001     C   16762 15104
 =C'POST  '
               6 000047D0 00000001     C   27875 24905  25985
 =C'POSTSCRIPT'
              10 000047E8 00000001     C   27879 25996
 =C'PRINT'
               5 00004837 00000001     C   27893 24462
 =C'PRINTER='
               8 00004778 00000001     C   27854 27095
 =C'PRIO='
               5 000096E2 00000001     C   49435 45351
 =C'PROC '
               5 00007D1A 00000001     C   40787 39854
 =C'PUN'       3 00001AF6 00000001     C   14150 13643
 =C'PUNCH'
               5 0000235A 00000001     C   16777 16559
 =C'PUNCH'
               5 0000483C 00000001     C   27894 24482
 =C'QUIT'      4 00002264 00000001     C   16737 14722
 =C'RLG '      4 0000744C 00000001     C   38668 38209
 =C'RUN FROM <samson file> not allowed.'
              35 0000180A 00000001     C   13483 11415
 =C'RUN FROM <samson file> not allowed.'
              35 00001AFF 00000001     C   14153 13978
 =C'\\'        2 000096A0 00000001     C   49419 48281  48361  48445  48596
 =C'\\AUTH'
               6 0000969A 00000001     C   49418 48231
 =C'SEL'       3 000074E8 00000001     C   38681 35202
 =C'SELF is not a forms code.  '
              27 000074EB 00000001     C   38682 35212
 =C'SEP=NO'
               6 00009662 00000001     C   49412 46442
 =C'SES.FAX_OPTIONS'
              15 00002C8A 00000001     C   20194 17158
 =C'SYS'       3 00007551 00000001     C   38690 38235
 =C'SYSA'      4 000095F0 00000001     C   49394 48049
 =C'SYSC'      4 000095F4 00000001     C   49395 48063
 =C'SYSOUT='
               7 0000485A 00000001     C   27900 25156  25722
 =C'Type SET WPRINTERS to reset printer tables.'
1RJE      (RJE4072) (12:53) (15MAR04) Ordinary Symbol and Literal Cross Reference                                           Page  190
              43 00000842 00000001     C    9504  7392
 =C'TO'        2 000047CE 00000001     C   27874 24533
 =C'TRC '      4 000047B4 00000001     C   27868 26503
 =C'TRIPLE'
               6 0000481E 00000001     C   27888 27265
 =C'Use the PUNCH command instead of SYSOUT=B.'
              42 0000749E 00000001     C   38678 38004
 =C'Use DEST=SELF for self-service printer.'
              39 00007506 00000001     C   38683 35230
 =C'Use INDENT=n option instead of specifying "(n)".'
              48 00003DC0 00000001     C   24323 22037
 =C'Use TITLE=''title'' option instead of just'
              40 00003D98 00000001     C   24322 21980
 =C'UNFORMATTED'
              11 0000484A 00000001     C   27898 24918
 =C'UNNUMBERED'
              10 000047F2 00000001     C   27880 26237
 =C'UPLOW'
               5 00004861 00000001     C   27901 25640
 =C'WRAP='
               5 000048AB 00000001     C   27915 27724
 =C'WYLGEN'
               6 00009644 00000001     C   49407 45772  45967  46636  47386  47745
 =C'WYLGS  '
               7 0000182D 00000001     C   13484 11691
 =C'XCALL '
               6 000017F8 00000001     C   13478 11859
 =C'00000000'
               8 00008778 00000001     C   44543 44466
 =C'11'        2 000096BE 00000001     C   49424 48932
 =C'3081 '
               5 0000754C 00000001     C   38689 38222
 =C'3800 '
               5 0000752D 00000001     C   38684 35477
 =CL(L'RJEDEST)'FAX'
               8 00002228 00000001     C   16723 16364
 =CL(L'RJEFORMS)'BOND'
               8 00002218 00000001     C   16721 15933  16385
 =CL(L'RJEPFORM)'LAND'
               6 0000746A 00000001     C   38672 36585
 =CL(L'RJEPFORM)'PORT'
               6 00007470 00000001     C   38673 36680
 =CL(L'RJEPFORM)'POST'
               6 00002C7A 00000001     C   20188 17098
 =CL(L'RJEPFORM)'POST'
               6 00007476 00000001     C   38674 36775
 =CL16'SYS.LPRINTER'
              16 000007A0 00000001     C    9475  9189   9338
 =CL16'SYS.LPRINTER'
              16 00007C30 00000001     C   40740 39239
 =CL20'*NETFAX*'
              20 000022A8 00000001     C   16754 16526
 =CL20'Batmail'
              20 00001754 00000001     C   13455 11698
 =CL20'CONDENSE'
              20 00000CC0 00000001     C   11056 10176
 =CL20'PRINT'
              20 000022BC 00000001     C   16755 16542
 =CL8'ANY'
1RJE      (RJE4072) (12:53) (15MAR04) Ordinary Symbol and Literal Cross Reference                                           Page  191
               8 00006440 00000001     C   33703 32656
 =CL8'BADACCT'
               8 000016F8 00000001     C   13433 12781
 =CL8'BADACCT'
               8 00002220 00000001     C   16722 16207
 =CL8'BADJOB'
               8 00008720 00000001     C   44534 43270
 =CL8'BIGJOBNM'
               8 00008738 00000001     C   44537 43367
 =CL8'DAY'
               8 00006448 00000001     C   33704 32673
 =CL8'EVENING'
               8 00006468 00000001     C   33708 32741
 =CL8'EXPRESS'
               8 00006420 00000001     C   33699 32117
 =CL8'INVACCT'
               8 00008728 00000001     C   44535 43302
 =CL8'INVCHARS'
               8 00005770 00000001     C   30369 29121  29302  29513
 =CL8'INVCHARS'
               8 00008730 00000001     C   44536 43334
 =CL8'INVDLM'
               8 00007C60 00000001     C   40742 40179
 =CL8'INVPRIO'
               8 00006438 00000001     C   33702 32206
 =CL8'INVPRT'
               8 000073D0 00000001     C   38638 35535
 =CL8'INVTMBLK'
               8 00006478 00000001     C   33710 32794
 =CL8'LONGJOB'
               8 00008740 00000001     C   44538 43374
 =CL8'LOW'
               8 00006430 00000001     C   33701 32151
 =CL8'LPRINT'
               8 00008718 00000001     C   44533 41018
 =CL8'NIGHT'
               8 00006458 00000001     C   33706 32707
 =CL8'NITE'
               8 00006460 00000001     C   33707 32724
 =CL8'PEAK'
               8 00006450 00000001     C   33705 32690
 =CL8'STANDARD'
               8 00006418 00000001     C   33698 32100
 =CL8'URGENT'
               8 00006428 00000001     C   33700 32134
 =CL8'WEEKEND'
               8 00006470 00000001     C   33709 32758
 =H'-1'        2 00001804 00000001     H   13480 12594
 =H'-4'        2 00007CD4 00000001     H   40774 40196
 =H'100'       2 00008870 00000001     H   44580 44015
 =H'1000'      2 0000886E 00000001     H   44579 44012
 =H'2'         2 000064AC 00000001     H   33722 31801  32357
 =H'2'         2 0000747C 00000001     H   38675 37311
 =H'2'         2 00007CCA 00000001     H   40769 39832
 =H'3'         2 00007CCC 00000001     H   40770 39858
 =H'4'         2 00003E3A 00000001     H   24343 21150
 =H'4'         2 00007CCE 00000001     H   40771 39882
 =H'5'         2 00007CD0 00000001     H   40772 39898
 =H'6'         2 00002C86 00000001     H   20192 17365
1RJE      (RJE4072) (12:53) (15MAR04) Ordinary Symbol and Literal Cross Reference                                           Page  192
 =H'7'         2 00007452 00000001     H   38670 34297  34315
 =H'71'        2 00007CC8 00000001     H   40768 39829  39831
 =H'8'         2 00002C74 00000001     H   20185 16931
 =V(BTD)       4 00002C70 00000001     V   20184 19934  20098
 =V(BTD)       4 0000881C 00000001     V   44571 44464
 =V(BTX)       4 00003DF0 00000001     V   24324 20998
 =V(CHARCHK)
               4 000057A0 00000001     V   30380 29470
 =V(CHARCHKA)
               4 00005788 00000001     V   30374 29082  29263  29450
 =V(CHARCHKA)
               4 000087BC 00000001     V   44559 42459
 =V(COLLOPTS)
               4 0000081C 00000001     V    9499  9263
 =V(CVEXNO)
               4 000017BC 00000001     V   13471 13274
 =V(CVEXNO)
               4 00002C44 00000001     V   20173 17926  19183  19762
 =V(CVEXNO)
               4 00008800 00000001     V   44566 43479
 =V(DEQUOTE)
               4 00003E14 00000001     V   24333 22153  22334
 =V(DEQUOTE)
               4 00005794 00000001     V   30377 29401
 =V(DEQUOTE)
               4 00007CA8 00000001     V   40759 40062
 =V(DESTCHK)
               4 000073F0 00000001     V   38645 34388
 =V(DESTVER)
               4 0000740C 00000001     V   38652 35060
 =V(DOFNAME)
               4 000007C0 00000001     V    9480  7478
 =V(DOFNAME)
               4 00000CE4 00000001     V   11061 10247
 =V(DSNAUTH)
               4 00000CFC 00000001     V   11067 10385
 =V(DTB)       4 0000961C 00000001     V   49401 48846
 =V(EVALSTR)
               4 00002C2C 00000001     V   20167 17162
 =V(EXIT0)
               4 000007BC 00000001     V    9479  7454
 =V(EXIT0)
               4 00001780 00000001     V   13462 11876
 =V(EXTCLOSE)
               4 000007E0 00000001     V    9488  7539
 =V(EXTCLOSE)
               4 00001740 00000001     V   13450 11459
 =V(EXTCLOSE)
               4 00001AE4 00000001     V   14145 14022
 =V(EXTOPEN)
               4 000007D0 00000001     V    9484  7509
 =V(EXTOPEN)
               4 00001730 00000001     V   13446 11431
 =V(EXTOPEN)
               4 00001AD4 00000001     V   14141 13994
 =V(FMTCLCK)
               4 0000228C 00000001     V   16747 15299
 =V(FMTXDATE)
               4 0000960C 00000001     V   49399 48624
1RJE      (RJE4072) (12:53) (15MAR04) Ordinary Symbol and Literal Cross Reference                                           Page  193
 =V(FNAMEFIN)
               4 000007C8 00000001     V    9482  7486
 =V(FNAMEFIN)
               4 00000CF4 00000001     V   11065 10319
 =V(FNAMEFIN)
               4 0000172C 00000001     V   13445 11384
 =V(FNAMEFIN)
               4 00001AD0 00000001     V   14140 13947
 =V(FNAMOPTS)
               4 000007C4 00000001     V    9481  7482
 =V(GETACCT)
               4 000073FC 00000001     V   38648 34575
 =V(GETDATA)
               4 00000820 00000001     V    9500  9341
 =V(GETDATA)
               4 00007C80 00000001     V   40749 39242
 =V(JESOCLS)
               4 00007C6C 00000001     V   40744 38957
 =V(JESODEL)
               4 00002C50 00000001     V   20176 18237  19655  19869  20033
 =V(JESRTN)
               4 00007C84 00000001     V   40750 39340
 =V(JESWR)
               4 0000A2A0 00000001     V   52490 49575  52375  52445
 =V(JOBKWCHK)
               4 00008804 00000001     V   44567 43628
 =V(KWIO)      4 000017A8 00000001     V   13466 12646
 =V(KWIO)      4 000022A4 00000001     V   16753 16072
 =V(KWIO)      4 00008818 00000001     V   44570 44208
 =V(LOCALTOD)
               4 00002288 00000001     V   16746 15292
 =V(LOCALTOD)
               4 00009608 00000001     V   49398 48620
 =V(LRTRIM)
               4 00000814 00000001     V    9497  9164
 =V(LRTRIM)
               4 00008798 00000001     V   44550 41233  42455
 =V(MEMBERED)
               4 00000D24 00000001     V   11077 10829
 =V(MIXFMT)
               4 00003E08 00000001     V   24330 21255
 =V(MKFFINFO)
               4 00000CE0 00000001     V   11060 10243
 =V(MKFFINFO)
               4 00001714 00000001     V   13439 11266
 =V(MKFFINFO)
               4 00001ABC 00000001     V   14135 13772
 =V(NDETRNG)
               4 000007CC 00000001     V    9483  7504
 =V(NDETRNG)
               4 00001710 00000001     V   13438 11247
 =V(NDETRNG)
               4 00001AB8 00000001     V   14134 13752
 =V(NOTVALID)
               4 000007B8 00000001     V    9478  7440
 =V(NOTVALID)
               4 000017A4 00000001     V   13465 12393  12489
 =V(NOTVALID)
               4 00003E18 00000001     V   24334 22169  22350  22955
1RJE      (RJE4072) (12:53) (15MAR04) Ordinary Symbol and Literal Cross Reference                                           Page  194
 =V(NOTVALID)
               4 00005784 00000001     V   30373 29034  29215  29423
 =V(NOTVALID)
               4 00005B50 00000001     V   31540 30768
 =V(NOTVALID)
               4 00006484 00000001     V   33712 31608  31999  32555
 =V(NOTVALID)
               4 00007408 00000001     V   38651 34719  34772  34965  34990  35016  35150  35325  35455  36445  36878
                                                 37279  37410  37946  38257
 =V(NRESOLVE)
               4 00004788 00000001     V   27857 24596
 =V(NSCAN)
               4 00000800 00000001     V    9492  7934   8198   8304
 =V(NSCAN)
               4 00000CEC 00000001     V   11063 10270  10431
 =V(NSCAN)
               4 0000171C 00000001     V   13441 11289  11341  11721
 =V(NSCAN)
               4 00001AC4 00000001     V   14137 13795  13847
 =V(NSCAN)
               4 00002254 00000001     V   16733 14529
 =V(NSCAN)
               4 00002C20 00000001     V   20164 17008  17259
 =V(NSCAN)
               4 00003E34 00000001     V   24341 23995
 =V(NSCAN)
               4 000057A8 00000001     V   30382 29682
 =V(NSCAN)
               4 00005B48 00000001     V   31538 30524
 =V(NSCAN)
               4 0000648C 00000001     V   33714 31845  31907  31966  32401  32463  32522  32889  33242
 =V(NSCAN)
               4 00007428 00000001     V   38659 35672  36029  37357  37443
 =V(NSCAN)
               4 00007CA0 00000001     V   40757 39945  40657
 =V(NSCANSTR)
               4 000073DC 00000001     V   38640 34062
 =V(NSCANSTR)
               4 0000A2D4 00000001     V   52503 51307
 =V(RDRNG)
               4 000007DC 00000001     V    9487  7534
 =V(RDRNG)
               4 0000173C 00000001     V   13449 11455  11494  11516
 =V(RDRNG)
               4 00001AE0 00000001     V   14144 14018  14057  14079
 =V(RLOOKUP)
               4 0000577C 00000001     V   30371 28000
 =V(RTRIM)
               4 0000A2CC 00000001     V   52501 50747  50794  50841  50888
 =V(SAVEDATA)
               4 00000818 00000001     V    9498  9192
 =V(SCANCHK)
               4 00000CF0 00000001     V   11064 10284  10445
 =V(SCANCHK)
               4 00001720 00000001     V   13442 11303  11355  11735
 =V(SCANCHK)
               4 00001AC8 00000001     V   14138 13809  13861
 =V(SCANCHK)
               4 00002C24 00000001     V   20165 17022  17273
1RJE      (RJE4072) (12:53) (15MAR04) Ordinary Symbol and Literal Cross Reference                                           Page  195
 =V(SCANCHK)
               4 00006490 00000001     V   33715 31859  31921  31980  32415  32477  32536  32903  33256
 =V(SCANCHK)
               4 000073E0 00000001     V   38641 34076  35686  36043  37371  37457
 =V(SCDQUOTE)
               4 00000810 00000001     V    9496  8506
 =V(SCDQUOTE)
               4 00003E24 00000001     V   24337 22531  22650  22769  22936
 =V(SCDQUOTE)
               4 000073D8 00000001     V   38639 33822  33942  34123
 =V(SCINFO)
               4 00001750 00000001     V   13454 11661
 =V(SCINFO)
               4 00002230 00000001     V   16724 14263
 =V(SCNEXFR)
               4 0000170C 00000001     V   13437 11230
 =V(SCNEXFR)
               4 00001AB4 00000001     V   14133 13735
 =V(SCNINVAL)
               4 00003E10 00000001     V   24332 22058
 =V(SCUPCASE)
               4 00000804 00000001     V    9493  8173
 =V(SEG)       4 000007B4 00000001     V    9477  7404   9383   9423   9441
 =V(SEG)       4 00000D10 00000001     V   11072 10582  10626  10661
 =V(SEG)       4 0000177C 00000001     V   13461 11871  11899  11957  12729  12747  13367
 =V(SEG)       4 00002258 00000001     V   16734 14590  14882  14934  14982  15019  15177  15267  15325  15372  15389
                                                 15416  15449  15494  16155  16173
 =V(SEG)       4 00002C38 00000001     V   20170 17802  17982  18123  18201  19044  19108  19212  19255  19683  19701
                                                 19757
 =V(SEG)       4 00002ED4 00000001     V   20870 20787
 =V(SEG)       4 00003E00 00000001     V   24328 21116
 =V(SEG)       4 00004790 00000001     V   27859 24651  24686  24713  24734  24967  25101  25168  25195  25249  25316
                                                 25397  25463  25548  25734  25804  25870  26041  26515  26553  26587
                                                 26653  26719  26785  26851  27107  27173  27317  27401  27441  27534
                                                 27654  27736
 =V(SEG)       4 0000578C 00000001     V   30375 29117  29298  29509
 =V(SEG)       4 00006498 00000001     V   33717 32202  32790
 =V(SEG)       4 00007414 00000001     V   38654 35224  35531
 =V(SEG)       4 00007C78 00000001     V   40747 39139  39195  39233  39286  39312  39391
 =V(SEG)       4 0000878C 00000001     V   44547 41063  41108  41135  41152  41197  41269  41312  41356  41387  41425
                                                 41452  42484  42574  42605  42622  43296  43328  43361  43400  43418
                                                 43680  43708  43726  43754  43798  43826  43844  43872  43890
 =V(SEG)       4 000095D0 00000001     V   49386 44753  44770  44822  44839  44868  44919  44936  44993  45010  45067
                                                 45084  45131  45148  45195  45240  45299  45346  45363  45410  45455
                                                 45514  45578  45595  45675  45692  45833  45850  45898  45915  46028
                                                 46045  46121  46138  46214  46231  46307  46324  46372  46389  46437
                                                 46454  46502  46519  46567  46584  46698  46715  46791  46808  46842
                                                 46908  46974  47040  47106  47159  47176  47224  47241  47289  47306
                                                 47465  47482  47570  47587  47655  47672  47796  47841  47913  47958
                                                 48327  48411  48479  48641  48717  48750  48767  48796  48825  48954
                                                 48987  49008  49284
 =V(SEG)       4 0000A2C0 00000001     V   52498 50162  50197  50241  50444  50473  50563
 =V(SEGB)      4 00000D20 00000001     V   11076 10825
 =V(SEGB)      4 000017AC 00000001     V   13467 12699  12777
 =V(SEGB)      4 00002284 00000001     V   16745 15217  15345  15516  16125  16203
 =V(SEGB)      4 00002C3C 00000001     V   20171 17842  18163  19735  19896  19914  20060  20078
 =V(SEGB)      4 00003E04 00000001     V   24329 21147  21992
 =V(SEGB)      4 00004780 00000001     V   27855 24418  24453  24510  24545  24614  24788  24826  24873  24930  25066
                                                 25652  25701  25762  25959  26008  26127  26197  26249  26297  26345
1RJE      (RJE4072) (12:53) (15MAR04) Ordinary Symbol and Literal Cross Reference                                           Page  196
                                                 26387  26425  26463  26879  26917  26955  26993  27031  27069  27201
                                                 27239  27277  27361  27485  27579  27613  27699  27781
 =V(SEGB)      4 000087B4 00000001     V   44557 42401  42530  43452  43474
 =V(SEGB)      4 000095F8 00000001     V   49396 48181  48243  48671  48920  49190
 =V(SEGCLR)
               4 00003E0C 00000001     V   24331 21295
 =V(SEGCOL)
               4 000087C0 00000001     V   44560 42743
 =V(SEGCOL)
               4 000095E0 00000001     V   49390 45766  45961  46630  47380  47739
 =V(SEGCR)
               4 000007B0 00000001     V    9476  7382   7634   7656
 =V(SEGCR)
               4 00002C6C 00000001     V   20183 19786  19958  20122
 =V(SEGCR)
               4 000073F8 00000001     V   38647 34445
 =V(SEGCR)
               4 000087B8 00000001     V   44558 42429
 =V(SEGDC)
               4 000047BC 00000001     V   27870 27337  27461  27555  27675  27757
 =V(SEGDC)
               4 00007C7C 00000001     V   40748 39160  39216
 =V(SEGDC)
               4 000095EC 00000001     V   49393 47503  47608  47693  48890
 =V(SEGINIT)
               4 00000CD4 00000001     V   11057 10206
 =V(SEGINIT)
               4 00001700 00000001     V   13434 11206  11763
 =V(SEGINIT)
               4 00001AA8 00000001     V   14130 13602
 =V(SEGINIT)
               4 00002234 00000001     V   16725 14320
 =V(SEGINIT)
               4 00002C28 00000001     V   20166 17149
 =V(SEGINIT)
               4 00007C74 00000001     V   40746 39086
 =V(SEGINIT)
               4 0000A2B4 00000001     V   52495 50024
 =V(SEGINITR)
               4 00000CDC 00000001     V   11059 10221
 =V(SEGINITR)
               4 00001708 00000001     V   13436 11221  11778
 =V(SEGINITR)
               4 00001AB0 00000001     V   14132 13617
 =V(SEGINITR)
               4 0000223C 00000001     V   16727 14335
 =V(SEGINITR)
               4 0000A2BC 00000001     V   52497 50039
 =V(SEGT)      4 00000D14 00000001     V   11073 10609  10689
 =V(SEGT)      4 00002294 00000001     V   16749 15477
 =V(SEGT)      4 00002C54 00000001     V   20177 18274
 =V(SEGT)      4 00002EC8 00000001     V   20867 20598  20832
 =V(SEGT)      4 000047B8 00000001     V   27869 26619  26681  26747  26813
 =V(SEGT)      4 00007C8C 00000001     V   40752 39419
 =V(SEGT)      4 00008794 00000001     V   44549 41180  42650  42712  42771
 =V(SEGT)      4 000095D4 00000001     V   49387 45223  45268  45438  45483  45623  45720  46073  46166  46259  46743
                                                 46874  46936  47002  47068  47334  47824  47871  47941  47988  48209
                                                 48271  48355  48439  48526  48586  49056  49113  49218  49312
 =V(SEGTB)
1RJE      (RJE4072) (12:53) (15MAR04) Ordinary Symbol and Literal Cross Reference                                           Page  197
               4 00004784 00000001     V   27856 24573  24995  25129  25277  25344  25425  25491  25576  25832  25898
                                                 26069  27135
 =V(SEGTB)
               4 000073F4 00000001     V   38646 34427
 =V(SEGTB)
               4 00008790 00000001     V   44548 41091  42512
 =V(SEGWR)
               4 00000D18 00000001     V   11074 10717  10752
 =V(SEGWR)
               4 00001778 00000001     V   13460 11815  11833  11851  11917  11984  12010  12028  12046  13391
 =V(SEGWR)
               4 00002280 00000001     V   16744 15048  15145  15563
 =V(SEGWR)
               4 00002C48 00000001     V   20174 18059  18298  18764  18845  19441  19519
 =V(SEGWR)
               4 00002ED0 00000001     V   20869 20682  20760
 =V(SEGWR)
               4 00003DFC 00000001     V   24327 21089  21178  21281  22010  22049
 =V(SEGWR)
               4 000047C4 00000001     V   27872 27810
 =V(SEGWR)
               4 00007C70 00000001     V   40745 38999  39437  40157  40175
 =V(SEGWR)
               4 000087C4 00000001     V   44561 42795
 =V(SEGWR)
               4 000095E4 00000001     V   49391 45784  45979  46648  47398  47757  47895  48012  48085  48131  48293
                                                 48373  48457  48608  49141  49242  49336
 =V(SETPFXNS)
               4 00000CF8 00000001     V   11066 10340
 =V(TEXTONLY)
               4 00002C34 00000001     V   20169 17671
 =X'09'        1 00002C99 00000001     X   20195 17776  18097
 =X'1B'        1 00002CD0 00000001     X   20200 18721
 =X'13'        1 00002CCF 00000001     X   20199 18695
 =X'40000000'
               4 000017B0 00000001     X   13468 13053
 =X'40000000'
               4 00002C18 00000001     X   20162 16844
 =X'8B'        1 0000231B 00000001     X   16770 15133
 =X'8B'        1 00002CCE 00000001     X   20198 18669
 =Y((L'CPSEG+1024+3)/4*4)
               2 00002C82 00000001     Y   20190 17167
 =Y((L'KWR+3)/4*4)
               2 00001806 00000001     Y   13481 12867
 =Y((L'KWR+3)/4*4)
               2 000022EE 00000001     Y   16765 16294
 =Y((L'KWR+3)/4*4)
               2 00008874 00000001     Y   44582 44243
 =Y((L'NSCNCB+3)/4*4)
               2 000064B0 00000001     Y   33724 32013  32569
 =Y((L'NSCNCB+3)/4*4)
               2 0000749C 00000001     Y   38677 37509
 =Y((L'NSCNCB+3)/4*4)
               2 00007CD6 00000001     Y   40775 40673
 =Y((L'NSCNCB+3)/4*4)
               2 0000A2E2 00000001     Y   52509 51323
 =Y((R1+1-(R0)+16*((R0)/(R1+1))/((R0)/(R1+1)))*4)
               2 000017CA 00000001     Y   13475 11684  11960
 =Y((R1+1-(R0)+16*((R0)/(R1+1))/((R0)/(R1+1)))*4)
1RJE      (RJE4072) (12:53) (15MAR04) Ordinary Symbol and Literal Cross Reference                                           Page  198
               2 000022D0 00000001     Y   16756 14286
 =Y((R1+1-(R0)+16*((R0)/(R1+1))/((R0)/(R1+1)))*4)
               2 00003E38 00000001     Y   24342 21119
 =Y((R1+1-(R0)+16*((R0)/(R1+1))/((R0)/(R1+1)))*4)
               2 00007CB4 00000001     Y   40762 39289
 =Y((R1+1-(R0)+16*((R0)/(R1+1))/((R0)/(R1+1)))*4)
               2 0000A2DE 00000001     Y   52507 50447
 =Y((R1+1-(R14)+16*((R14)/(R1+1))/((R14)/(R1+1)))*4)
               2 00002C80 00000001     Y   20189 17152
 =Y((R2+1-(R0)+16*((R0)/(R2+1))/((R0)/(R2+1)))*4)
               2 00002C88 00000001     Y   20193 19872  20036
 =Y((12+3)/4*4)
               2 00000824 00000001     Y    9501  7940   8204   8310
 =Y((12+3)/4*4)
               2 00000D2A 00000001     Y   11079 10276  10437
 =Y((12+3)/4*4)
               2 000017C8 00000001     Y   13474 11295  11347  11727
 =Y((12+3)/4*4)
               2 00001AF4 00000001     Y   14149 13801  13853
 =Y((12+3)/4*4)
               2 000022D2 00000001     Y   16757 14535
 =Y((12+3)/4*4)
               2 00002C76 00000001     Y   20186 17014  17265
 =Y((12+3)/4*4)
               2 00003E3C 00000001     Y   24344 24001
 =Y((12+3)/4*4)
               2 000057B0 00000001     Y   30384 29688
 =Y((12+3)/4*4)
               2 00005B54 00000001     Y   31541 30530
 =Y((12+3)/4*4)
               2 000064AE 00000001     Y   33723 31851  31913  31972  32407  32469  32528  32895  33248
 =Y((12+3)/4*4)
               2 00007450 00000001     Y   38669 34068  35678  36035  37363  37449
 =Y((12+3)/4*4)
               2 00007CD2 00000001     Y   40773 39951  40663
 =Y((12+3)/4*4)
               2 0000A2E0 00000001     Y   52508 51313
 =Y((235+3)/4*4)
               2 00007CB6 00000001     Y   40763 39319
 =Y((256+3)/4*4)
               2 00002C84 00000001     Y   20191 17300
 =Y((32+3)/4*4)
               2 000022EA 00000001     Y   16763 15328
 =Y((32+3)/4*4)
               2 000096C4 00000001     Y   49427 49011
 =Y((44+3)/4*4)
               2 00000D2C 00000001     Y   11080 10548
 =Y((8+3)/4*4)
               2 00007CD8 00000001     Y   40776 40676
 =Y(12)        2 000096BC 00000001     Y   49423 48866

1RJE      (RJE4072) (12:53) (15MAR04) Macro and Copy Code Source Summary                                                    Page  199
- Con Source                                        Volume    Members                        HLASM R4.0  2004/03/15 12.53
0     PRIMARY INPUT                                           CSECT    DROP     END      EX       JCSEG    LTORG    POP
                                                              PRINT    PUSH     START    USING
   L1 WYL.GS.WYL.WYLBUR.MACLIB                      SYSB05    ABORT    AINFO    BASE     BTD      BTX      COLINFO
                                                              COMMENT  CONTROL  CP       CPLOCAL  CV       CVLOCAL  DTB
                                                              ERROR    FFINFO   JCB      KREAD    KWRITE   LOADRTNP
                                                              OSCINFO  PUSHRTN  RDRNG    RG       SCAN     SCANCB
                                                              SCANCHK  SCANSTR  SCBKUP   SCCBADR  SCDQUOTE SCINFO
                                                              SCINIT   SCKW     SCPOP    SCPUSH   SCUPCASE SCUPTOK
                                                              SEGINIT  SYSDSNS  TCCR     TCLEAR   TPOP     TPUSH    TSEG
                                                              TTYPE    VLTORG   XTRACE
   L2 WYL.GG.SYS.MACLIB                             SYSB05    $BC      $BFLKUP  $BV      $CCLKUP  $CRS     $CSS     $L
                                                              $LA      $LBLAD   $LEXP    $LOR     $REL     $RGLKUP
                                                              $USLKUP  ACALL    BEGIN    CEIL     CLEAR    COMPROC
                                                              CSECT    DATA     DECR     DEFCC    DEX      DROP     DTEX
                                                              ELSE     ELSEIF   END      EX       EXIT     FLAG     FLIP
                                                              FLOOR    GEN      HIBAL    IDENT    IF       INCR
                                                              LABEL    LC       LCALL    LCM      LOOP     LS       LT
                                                              LTH      LTORG    L2       MOVE     MOVEL    NEXT     PEND
                                                              POP      PRETURN  PRINT    PROC     PUSH     QLTORG
                                                              RECORD   REG      REGS     SET      SETMSG   START    ST2
                                                              USING    VCALL    WHILE    WITH     XPROC
   L3 SYS3.IS.MACLIB                                SYSB05    KWR      SEG      SEGB     SEGCB    SEGCLR   SEGCOL
                                                              SEGCR    SEGDC    SEGDEF   SEGLD    SEGT     SEGTB
                                                              SEGWR    SIB      SYSDEFN  XPOP     XPUSH
   L5 SYS1.MACLIB                                   MVSBR9    FREEMAIN GETMAIN  SYSSTATE

1RJE      (RJE4072) (12:53) (15MAR04) Dsect Cross Reference                                                                 Page  200
-Dsect     Length      Id       Defn                                                         HLASM R4.0  2004/03/15 12.53
0$$$@R0   00000000  FFFFFFFE     713
 $$$@R1   00000000  FFFFFFFD     726
 $$$@R10  00000000  FFFFFFF4     843
 $$$@R11  00000000  FFFFFFF3     856
 $$$@R12  00000000  FFFFFFF2     869
 $$$@R13  00000000  FFFFFFF1     882
 $$$@R14  00000000  FFFFFFF0     895
 $$$@R15  00000000  FFFFFFEF     908
 $$$@R2   00000000  FFFFFFFC     739
 $$$@R3   00000000  FFFFFFFB     752
 $$$@R4   00000000  FFFFFFFA     765
 $$$@R5   00000000  FFFFFFF9     778
 $$$@R6   00000000  FFFFFFF8     791
 $$$@R7   00000000  FFFFFFF7     804
 $$$@R8   00000000  FFFFFFF6     817
 $$$@R9   00000000  FFFFFFF5     830
 $$$RBACKWA
          000001F4  FFFFFFE1   20225
 $$$RCDWA 00000643  FFFFFFE2   10020
 $$$RCP   00001000  FFFFFFEC    2464
 $$$RCV   00000FB0  FFFFFFEE    1189
 $$$RDEV  0000000C  FFFFFFEB    4678
 $$$RFFINFO
          000003A0  FFFFFFE6    6945
 $$$RFMTWA
          000003FC  FFFFFFDA   49672
 $$$RHEXWA
          00000008  FFFFFFE0   20884
 $$$RIDWA 00000008  FFFFFFDF   29339
 $$$RJCB  000000D0  FFFFFFE9    6332
 $$$RJCKWA
          00000010  FFFFFFDC   39488
 $$$RJCLSWA
          0000008C  FFFFFFDD   38775
 $$$RJOBWA
          00000015  FFFFFFDB   40800
 $$$RKWR  000001F8  FFFFFFE8    6612
 $$$RNSCNCB
          000000B0  FFFFFFED    2385
 $$$RPRT  0000008A  FFFFFFE5    7169
 $$$RRJETOWA
          000000CD  FFFFFFDE   33975
 $$$RRJEWA
          00000642  FFFFFFE3    9516
 $$$RSEGCB
          0000003C  FFFFFFE7    6823
 $$$RSPRTWA
          00000181  FFFFFFE4    7204
 $$$RTTYPE
          0000010C  FFFFFFEA    6209
 $$$RWRAPWA
          00000004  FFFFFFD9   52200
 HIBAL    00000000  FFFFFFFF     699

1RJE      (RJE4072) (12:53) (15MAR04) Using Map                                                                             Page  201
-                                                                                            HLASM R4.0  2004/03/15 12.53
   Stmt  -----Location----- Action ----------------Using----------------- Reg Max    Last  Label and Using Text
           Count      Id           Type          Value    Range     Id        Disp   Stmt
0   930  00000000  FFFFFFFF USING  ORDINARY    00000000 00001000 FFFFFFEF  15 000          @R15,15
    934  00000000  FFFFFFFF USING  ORDINARY    00000000 00001000 FFFFFFF0  14 024   17154  @R14,14
    938  00000000  FFFFFFFF USING  ORDINARY    00000000 00001000 FFFFFFF1  13 000   51324  @R13,13
    942  00000000  FFFFFFFF USING  ORDINARY    00000000 00001000 FFFFFFF2  12 000          @R12,12
    946  00000000  FFFFFFFF USING  ORDINARY    00000000 00001000 FFFFFFF3  11 000          @R11,11
    950  00000000  FFFFFFFF USING  ORDINARY    00000000 00001000 FFFFFFF4  10 000          @R10,10
    954  00000000  FFFFFFFF USING  ORDINARY    00000000 00001000 FFFFFFF5   9 000          @R9,9
    958  00000000  FFFFFFFF USING  ORDINARY    00000000 00001000 FFFFFFF6   8 000          @R8,8
    962  00000000  FFFFFFFF USING  ORDINARY    00000000 00001000 FFFFFFF7   7 000          @R7,7
    966  00000000  FFFFFFFF USING  ORDINARY    00000000 00001000 FFFFFFF8   6 000          @R6,6
    970  00000000  FFFFFFFF USING  ORDINARY    00000000 00001000 FFFFFFF9   5 000          @R5,5
    974  00000000  FFFFFFFF USING  ORDINARY    00000000 00001000 FFFFFFFA   4 008    8282  @R4,4
    978  00000000  FFFFFFFF USING  ORDINARY    00000000 00001000 FFFFFFFB   3 008    8976  @R3,3
    982  00000000  FFFFFFFF USING  ORDINARY    00000000 00001000 FFFFFFFC   2 013   48932  @R2,2
    986  00000000  FFFFFFFF USING  ORDINARY    00000000 00001000 FFFFFFFD   1 048   52411  @R1,1
    990  00000000  FFFFFFFF USING  ORDINARY    00000000 00001000 FFFFFFFE   0 000          @R0,0
    991  00000000  FFFFFFFF DROP                                            0              0
   1173  00000016  00000001 USING  ORDINARY    00000000 00001000 FFFFFFEC  11 F39   51321  CP,CPR
   1182  00000016  00000001 USING  ORDINARY    00000000 00001000 FFFFFFEE  12 8F0   52248  CV,CVR
   7271  00000030  00000001 USING  ORDINARY    00000030 00001000 00000001   7 812    7726  $$$65B,7
   7285  00000030  00000001 USING  ORDINARY    FFFFFFD8 00001000 FFFFFFE4   8 028    7289  SPRTWA-(4+36),R8
   7297  00000034  00000001 USING  ORDINARY    00000000 00001000 FFFFFFE4   6 100    7666  SPRTWA,R6
   7695  00000140  00000001 USING  ORDINARY    00000000 00001000 FFFFFFE5   5 000    7707  PRT,R5
   7723  00000160  00000001 USING  ORDINARY    00000000 00001000 FFFFFFF9   5 000          @R5,5
   7736  00000168  00000001 USING  ORDINARY    00000000 00001000 FFFFFFF6   8 000          @R8,8
   7741  00000168  00000001 USING  ORDINARY    00000000 00001000 FFFFFFF7   7 000          @R7,7
   7760  00000176  00000001 USING  ORDINARY    00000000 00001000 FFFFFFF8   6 000          @R6,6
   7800  00000190  00000001 USING  ORDINARY    00000190 00001000 00000001   7 6F4    7940  $$$81B,7
   7817  00000194  00000001 USING  ORDINARY    00000000 00001000 FFFFFFE4   6 096    8796  SPRTWA,R6
   7828  00000198  00000001 USING  ORDINARY    00000000 00001000 FFFFFFE5   5 03A    8644  PRT,R5
   7953  00000216  00000001 USING  ORDINARY    00000000 00001000 FFFFFFF7   7 000          @R7,7
   8138  000003A6  00000001 USING  ORDINARY    000003A6 00001000 00000001   7 4C7    8318  $$$88B,7
   8330  0000049C  00000001 USING  ORDINARY    00000000 00001000 FFFFFFF7   7 000          @R7,7
   8376  000004C4  00000001 USING  ORDINARY    000004C4 00001000 00000001   7 348    8412  $$$96B,7
   8433  000004E8  00000001 USING  ORDINARY    00000000 00001000 FFFFFFF7   7 000          @R7,7
   8478  00000510  00000001 USING  ORDINARY    00000510 00001000 00000001   7 300    8506  $$$101B,7
   8518  00000524  00000001 USING  ORDINARY    00000000 00001000 FFFFFFF7   7 000          @R7,7
   8563  0000054C  00000001 USING  ORDINARY    0000054C 00001000 00000001   7 000          $$$104B,7
   8585  00000550  00000001 USING  ORDINARY    00000000 00001000 FFFFFFF7   7 000          @R7,7
   8630  00000578  00000001 USING  ORDINARY    00000578 00001000 00000001   7 000          $$$107B,7
   8651  0000057C  00000001 USING  ORDINARY    00000000 00001000 FFFFFFF7   7 000          @R7,7
   8696  000005A4  00000001 USING  ORDINARY    000005A4 00001000 00000001   7 040    8765  $$$110B,7
   8781  000005DC  00000001 USING  ORDINARY    00000000 00001000 FFFFFFE5  15 000    8787  PRT,R15
   8794  000005E0  00000001 USING  ORDINARY    00000000 00001000 FFFFFFEF  15 001   42194  @R15,15
   8807  000005E4  00000001 USING  ORDINARY    00000000 00001000 FFFFFFF7   7 000          @R7,7
   8827  000005F2  00000001 USING  ORDINARY    00000000 00001000 FFFFFFF8   6 000          @R6,6
   8834  000005F2  00000001 USING  ORDINARY    00000000 00001000 FFFFFFF9   5 048   41759  @R5,5
   8880  0000060C  00000001 USING  ORDINARY    0000060C 00001000 00000001   7 1FC    8991  $$$115B,7
   8911  00000614  00000001 USING  ORDINARY    00000000 00001000 FFFFFFE5   6 005    8936  PRT,R6
   8988  00000648  00000001 USING  ORDINARY    00000000 00001000 FFFFFFF8   6 000          @R6,6
   9001  0000064C  00000001 USING  ORDINARY    00000000 00001000 FFFFFFF7   7 000          @R7,7
   9055  00000674  00000001 USING  ORDINARY    00000674 00001000 00000001   7 1B2    9077  $$$124B,7
   9072  00000676  00000001 USING  ORDINARY    00000000 00001000 FFFFFFE5   6 03A    9079  PRT,R6
1RJE      (RJE4072) (12:53) (15MAR04) Using Map                                                                             Page  202
   9087  0000068E  00000001 USING  ORDINARY    00000000 00001000 FFFFFFF7   7 000          @R7,7
   9106  0000069C  00000001 USING  ORDINARY    00000000 00001000 FFFFFFF8   6 000          @R6,6
   9144  000006B6  00000001 USING  ORDINARY    000006B6 00001000 00000001   7 162    9192  $$$127B,7
   9202  000006E0  00000001 USING  ORDINARY    00000000 00001000 FFFFFFF7   7 000          @R7,7
   9252  00000708  00000001 USING  ORDINARY    00000708 00001000 00000001   7 114    9267  $$$131B,7
   9275  00000716  00000001 USING  ORDINARY    00000000 00001000 FFFFFFF7   7 000          @R7,7
   9325  0000073E  00000001 USING  ORDINARY    0000073E 00001000 00000001   7 134    9441  $$$134B,7
   9453  0000078E  00000001 USING  ORDINARY    00000000 00001000 FFFFFFF7   7 000          @R7,7
  10080  000008A4  00000001 USING  ORDINARY    000008A4 00001000 00000001   7 4E4   10835  $$$153B,7
  10094  000008A4  00000001 USING  ORDINARY    FFFFFFD8 00001000 FFFFFFE2   8 028   10122  CDWA-(4+36),R8
  10106  000008A8  00000001 USING  ORDINARY    00000000 00001000 FFFFFFE3   6 600   10749  RJEWA,R6
  10130  000008DA  00000001 USING  ORDINARY    00000000 00001000 FFFFFFE2   4 642   11021  CDWA,R4
  10297  000009A4  00000001 USING  ORDINARY    00000000 00001000 FFFFFFE6   3 000   10308  FFINFO,R3
  10315  000009A8  00000001 USING  ORDINARY    00000000 00001000 FFFFFFFB   3 000          @R3,3
  10844  00000B6A  00000001 USING  ORDINARY    00000000 00001000 FFFFFFF6   8 000          @R8,8
  10849  00000B6A  00000001 USING  ORDINARY    00000000 00001000 FFFFFFF7   7 000          @R7,7
  10868  00000B78  00000001 USING  ORDINARY    00000000 00001000 FFFFFFF8   6 000          @R6,6
  11007  00000CAA  00000001 USING  ORDINARY    00000CAA 00001000 00000001   7 000          $$$175B,7
  11028  00000CAE  00000001 USING  ORDINARY    00000000 00001000 FFFFFFF7   7 000          @R7,7
  11047  00000CBC  00000001 USING  ORDINARY    00000000 00001000 FFFFFFFA   4 004   44487  @R4,4
  11133  00000DA8  00000001 USING  ORDINARY    00000DA8 00001000 00000001   7 A62   11524  $$$178B,7
  11147  00000DA8  00000001 USING  ORDINARY    FFFFFFD8 00001000 FFFFFFE3   8 028   11151  RJEWA-(4+36),R8
  11159  00000DAC  00000001 USING  ORDINARY    00000000 00001000 FFFFFFE3   6 600   11227  RJEWA,R6
  11394  00000EF6  00000001 USING  ORDINARY    00000000 00001000 FFFFFFE6   3 000   11405  FFINFO,R3
  11427  00000F0A  00000001 USING  ORDINARY    00000000 00001000 FFFFFFFB   3 000          @R3,3
  11533  00000F60  00000001 USING  ORDINARY    00000000 00001000 FFFFFFF6   8 000          @R8,8
  11538  00000F60  00000001 USING  ORDINARY    00000000 00001000 FFFFFFF7   7 000          @R7,7
  11557  00000F6E  00000001 USING  ORDINARY    00000000 00001000 FFFFFFF8   6 000          @R6,6
  11611  00000F88  00000001 USING  ORDINARY    00000F88 00001000 00000001   7 8D6   12051  $$$190B,7
  11625  00000F88  00000001 USING  ORDINARY    FFFFFFD8 00001000 FFFFFFE3   8 028   11629  RJEWA-(4+36),R8
  11637  00000F8C  00000001 USING  ORDINARY    00000000 00001000 FFFFFFE3   6 600   12470  RJEWA,R6
  12059  0000116A  00000001 USING  ORDINARY    00000000 00001000 FFFFFFF6   8 000          @R8,8
  12064  0000116A  00000001 USING  ORDINARY    00000000 00001000 FFFFFFF7   7 000          @R7,7
  12366  0000143A  00000001 USING  ORDINARY    0000143A 00001000 00000001   7 36A   12393  $$$194B,7
  12411  0000144C  00000001 USING  ORDINARY    00000000 00001000 FFFFFFF7   7 000          @R7,7
  12456  00001474  00000001 USING  ORDINARY    00001474 00001000 00000001   7 330   12489  $$$198B,7
  12501  00001486  00000001 USING  ORDINARY    00000000 00001000 FFFFFFF7   7 000          @R7,7
  12520  00001494  00000001 USING  ORDINARY    00000000 00001000 FFFFFFF8   6 000          @R6,6
  12558  000014AE  00000001 USING  ORDINARY    000014AE 00001000 00000001   7 3BD   12955  $$$202B,7
  12575  000014B2  00000001 USING  ORDINARY    00000000 00001000 FFFFFFE3   6 373   12961  RJEWA,R6
  12630  000014D0  00000001 USING  ORDINARY    00000000 00001000 FFFFFFE8   3 1F4   12865  KWR,R3
  12873  00001592  00000001 USING  ORDINARY    00000000 00001000 FFFFFFFB   3 048   13313  @R3,3
  12972  000015D2  00000001 USING  ORDINARY    00000000 00001000 FFFFFFF7   7 000          @R7,7
  12991  000015E0  00000001 USING  ORDINARY    00000000 00001000 FFFFFFF8   6 000          @R6,6
  13029  000015FA  00000001 USING  ORDINARY    000015FA 00001000 00000001   7 20E   13391  $$$219B,7
  13046  000015FE  00000001 USING  ORDINARY    00000000 00001000 FFFFFFE3   6 557   13388  RJEWA,R6
  13403  000016E0  00000001 USING  ORDINARY    00000000 00001000 FFFFFFF7   7 000          @R7,7
  13422  000016EE  00000001 USING  ORDINARY    00000000 00001000 FFFFFFF8   6 000          @R6,6
  13534  00001894  00000001 USING  ORDINARY    00001894 00001000 00000001   7 26B   14087  $$$235B,7
  13548  00001894  00000001 USING  ORDINARY    FFFFFFD8 00001000 FFFFFFE3   8 028   13552  RJEWA-(4+36),R8
  13560  00001898  00000001 USING  ORDINARY    00000000 00001000 FFFFFFE3   6 600   13924  RJEWA,R6
  13957  00001A2C  00000001 USING  ORDINARY    00000000 00001000 FFFFFFE6   3 000   13968  FFINFO,R3
  13990  00001A40  00000001 USING  ORDINARY    00000000 00001000 FFFFFFFB   3 000          @R3,3
  14096  00001A96  00000001 USING  ORDINARY    00000000 00001000 FFFFFFF6   8 000          @R8,8
  14101  00001A96  00000001 USING  ORDINARY    00000000 00001000 FFFFFFF7   7 000          @R7,7
  14120  00001AA4  00000001 USING  ORDINARY    00000000 00001000 FFFFFFF8   6 000          @R6,6
  14213  00001B3C  00000001 USING  ORDINARY    00001B3C 00001000 00000001   7 7D7   14735  $$$254B,7
  14227  00001B3C  00000001 USING  ORDINARY    FFFFFFD8 00001000 FFFFFFE3   8 028   14231  RJEWA-(4+36),R8
  14239  00001B40  00000001 USING  ORDINARY    00000000 00001000 FFFFFFE3   6 600   14711  RJEWA,R6
1RJE      (RJE4072) (12:53) (15MAR04) Using Map                                                                             Page  203
  14562  00001C68  00000001 USING  ORDINARY    00000000 00001000 FFFFFFED   3 060   14579  NSCNCB,R3
  14597  00001C7A  00000001 USING  ORDINARY    00000000 00001000 FFFFFFFB   3 000          @R3,3
  14746  00001CDE  00000001 USING  ORDINARY    00000000 00001000 FFFFFFF6   8 000          @R8,8
  14751  00001CDE  00000001 USING  ORDINARY    00000000 00001000 FFFFFFF7   7 000          @R7,7
  14770  00001CEC  00000001 USING  ORDINARY    00000000 00001000 FFFFFFF8   6 000          @R6,6
  14785  00001CEC  00000001 USING  ORDINARY    00000000 00001000 FFFFFFE3   6 430   15565  RJEWA,R6
  14817  00001D06  00000001 USING  ORDINARY    00001D06 00001000 00000001   7 617   15563  $$$269B,7
  15577  00001F1A  00000001 USING  ORDINARY    00000000 00001000 FFFFFFF7   7 000          @R7,7
  15596  00001F28  00000001 USING  ORDINARY    00000000 00001000 FFFFFFF8   6 000          @R6,6
  15611  00001F28  00000001 USING  ORDINARY    00000000 00001000 FFFFFFE3   6 375   16680  RJEWA,R6
  15643  00001F42  00000001 USING  ORDINARY    00001F42 00001000 00000001   7 41D   16670  $$$285B,7
  16056  00002030  00000001 USING  ORDINARY    00000000 00001000 FFFFFFE8   3 1F4   16292  KWR,R3
  16300  000020FE  00000001 USING  ORDINARY    00000000 00001000 FFFFFFFB   3 001   20505  @R3,3
  16692  00002208  00000001 USING  ORDINARY    00000000 00001000 FFFFFFF7   7 000          @R7,7
  16711  00002216  00000001 USING  ORDINARY    00000000 00001000 FFFFFFF8   6 000          @R6,6
  16820  0000237E  00000001 USING  ORDINARY    0000237E 00001000 00000001   7 952   19562  $$$334B,7
  16837  00002382  00000001 USING  ORDINARY    00000000 00001000 FFFFFFE3   6 557   19553  RJEWA,R6
  19576  00002A60  00000001 USING  ORDINARY    00000000 00001000 FFFFFFF7   7 000          @R7,7
  19595  00002A6E  00000001 USING  ORDINARY    00000000 00001000 FFFFFFF8   6 000          @R6,6
  19605  00002A6E  00000001 USING  ORDINARY    00000000 00001000 FFFFFFE3   6 420   20027  RJEWA,R6
  19644  00002A88  00000001 USING  ORDINARY    00002A88 00001000 00000001   7 25E   19786  $$$447B,7
  19795  00002AF4  00000001 USING  ORDINARY    00000000 00001000 FFFFFFF7   7 000          @R7,7
  19850  00002B1C  00000001 USING  ORDINARY    00002B1C 00001000 00000001   7 1D6   19958  $$$451B,7
  19967  00002B76  00000001 USING  ORDINARY    00000000 00001000 FFFFFFF7   7 000          @R7,7
  20014  00002B9E  00000001 USING  ORDINARY    00002B9E 00001000 00000001   7 177   20122  $$$454B,7
  20131  00002BF8  00000001 USING  ORDINARY    00000000 00001000 FFFFFFF7   7 000          @R7,7
  20150  00002C06  00000001 USING  ORDINARY    00000000 00001000 FFFFFFF8   6 000          @R6,6
  20220  00002D1C  00000001 USING  ORDINARY    00000000 00001000 FFFFFFE3   6 46C   49349  RJEWA,R6
  20285  00002D36  00000001 USING  ORDINARY    00002D36 00001000 00000001   7 1A8   20832  $$$457B,7
  20299  00002D36  00000001 USING  ORDINARY    FFFFFFD8 00001000 FFFFFFE1   8 209   20803  BACKWA-(4+36),R8
  20840  00002EB8  00000001 USING  ORDINARY    00000000 00001000 FFFFFFF6   8 000          @R8,8
  20845  00002EB8  00000001 USING  ORDINARY    00000000 00001000 FFFFFFF7   7 000          @R7,7
  20940  00002FF8  00000001 USING  ORDINARY    00002FF8 00001000 00000001   7 E42   21178  $$$479B,7
  20954  00002FF8  00000001 USING  ORDINARY    FFFFFFD8 00001000 FFFFFFE0   8 028   20995  HEXWA-(4+36),R8
  21186  0000308E  00000001 USING  ORDINARY    00000000 00001000 FFFFFFF6   8 000          @R8,8
  21191  0000308E  00000001 USING  ORDINARY    00000000 00001000 FFFFFFF7   7 000          @R7,7
  21244  000030B6  00000001 USING  ORDINARY    000030B6 00001000 00000001   7 D56   21295  $$$487B,7
  21303  000030D8  00000001 USING  ORDINARY    00000000 00001000 FFFFFFF7   7 000          @R7,7
  21936  0000371A  00000001 USING  ORDINARY    0000371A 00001000 00000001   7 724   22058  $$$490B,7
  22066  00003776  00000001 USING  ORDINARY    00000000 00001000 FFFFFFF7   7 000          @R7,7
  22111  0000379E  00000001 USING  ORDINARY    0000379E 00001000 00000001   7 6B4   22214  $$$496B,7
  22247  000037E2  00000001 USING  ORDINARY    00000000 00001000 FFFFFFF7   7 000          @R7,7
  22292  0000380A  00000001 USING  ORDINARY    0000380A 00001000 00000001   7 64E   22395  $$$506B,7
  22428  0000384E  00000001 USING  ORDINARY    00000000 00001000 FFFFFFF7   7 000          @R7,7
  22473  00003876  00000001 USING  ORDINARY    00003876 00001000 00000001   7 5AE   22531  $$$516B,7
  22547  0000389C  00000001 USING  ORDINARY    00000000 00001000 FFFFFFF7   7 000          @R7,7
  22592  000038C4  00000001 USING  ORDINARY    000038C4 00001000 00000001   7 560   22650  $$$521B,7
  22666  000038EA  00000001 USING  ORDINARY    00000000 00001000 FFFFFFF7   7 000          @R7,7
  22711  00003912  00000001 USING  ORDINARY    00003912 00001000 00000001   7 512   22769  $$$526B,7
  22785  00003938  00000001 USING  ORDINARY    00000000 00001000 FFFFFFF7   7 000          @R7,7
  22830  00003960  00000001 USING  ORDINARY    00003960 00001000 00000001   7 4CC   22955  $$$531B,7
  22975  000039A6  00000001 USING  ORDINARY    00000000 00001000 FFFFFFF7   7 000          @R7,7
  23020  000039CE  00000001 USING  ORDINARY    000039CE 00001000 00000001   7 000          $$$540B,7
  23041  000039D2  00000001 USING  ORDINARY    00000000 00001000 FFFFFFF7   7 000          @R7,7
  23086  000039FA  00000001 USING  ORDINARY    000039FA 00001000 00000001   7 000          $$$543B,7
  23107  000039FE  00000001 USING  ORDINARY    00000000 00001000 FFFFFFF7   7 000          @R7,7
  23152  00003A26  00000001 USING  ORDINARY    00003A26 00001000 00000001   7 030   23222  $$$546B,7
  23255  00003A58  00000001 USING  ORDINARY    00000000 00001000 FFFFFFF7   7 000          @R7,7
  23300  00003A80  00000001 USING  ORDINARY    00003A80 00001000 00000001   7 018   23333  $$$552B,7
1RJE      (RJE4072) (12:53) (15MAR04) Using Map                                                                             Page  204
  23368  00003A9A  00000001 USING  ORDINARY    00000000 00001000 FFFFFFF7   7 000          @R7,7
  23413  00003AC2  00000001 USING  ORDINARY    00003AC2 00001000 00000001   7 02C   23482  $$$557B,7
  23515  00003AF0  00000001 USING  ORDINARY    00000000 00001000 FFFFFFF7   7 000          @R7,7
  23560  00003B18  00000001 USING  ORDINARY    00003B18 00001000 00000001   7 000          $$$563B,7
  23581  00003B1C  00000001 USING  ORDINARY    00000000 00001000 FFFFFFF7   7 000          @R7,7
  23626  00003B44  00000001 USING  ORDINARY    00003B44 00001000 00000001   7 000          $$$566B,7
  23648  00003B48  00000001 USING  ORDINARY    00000000 00001000 FFFFFFF7   7 000          @R7,7
  23693  00003B70  00000001 USING  ORDINARY    00003B70 00001000 00000001   7 000          $$$569B,7
  23714  00003B74  00000001 USING  ORDINARY    00000000 00001000 FFFFFFF7   7 000          @R7,7
  23759  00003B9C  00000001 USING  ORDINARY    00003B9C 00001000 00000001   7 000          $$$572B,7
  23781  00003BA0  00000001 USING  ORDINARY    00000000 00001000 FFFFFFF7   7 000          @R7,7
  23826  00003BC8  00000001 USING  ORDINARY    00003BC8 00001000 00000001   7 000          $$$575B,7
  23853  00003BD0  00000001 USING  ORDINARY    00000000 00001000 FFFFFFF7   7 000          @R7,7
  23898  00003BF8  00000001 USING  ORDINARY    00003BF8 00001000 00000001   7 000          $$$578B,7
  23919  00003BFC  00000001 USING  ORDINARY    00000000 00001000 FFFFFFF7   7 000          @R7,7
  23964  00003C24  00000001 USING  ORDINARY    00003C24 00001000 00000001   7 218   24119  $$$581B,7
  24144  00003CD4  00000001 USING  ORDINARY    00000000 00001000 FFFFFFF7   7 000          @R7,7
  24220  00003D4E  00000001 USING  ORDINARY    00003D4E 00001000 00000001   7 000          $$$590B,7
  24239  00003D58  00000001 USING  ORDINARY    00000000 00001000 FFFFFFF7   7 000          @R7,7
  24284  00003D80  00000001 USING  ORDINARY    00003D80 00001000 00000001   7 000          $$$593B,7
  24300  00003D84  00000001 USING  ORDINARY    00000000 00001000 FFFFFFF7   7 000          @R7,7
  24386  00003E78  00000001 USING  ORDINARY    00003E78 00001000 00000001   7 A33   27810  $$$596B,7
  24624  00003F1C  00000001 USING  ORDINARY    00000000 00001000 FFFFFFE6   3 218   24702  FFINFO,R3
  24741  00003F6E  00000001 USING  ORDINARY    00000000 00001000 FFFFFFFB   3 004   37421  @R3,3
  27827  00004746  00000001 USING  ORDINARY    00000000 00001000 FFFFFFF7   7 000          @R7,7
  27988  0000491A  00000001 USING  ORDINARY    0000491A 00001000 00000001   7 E62   28000  $$$682B,7
  28010  00004928  00000001 USING  ORDINARY    00000000 00001000 FFFFFFF7   7 000          @R7,7
  29005  0000532A  00000001 USING  ORDINARY    0000532A 00001000 00000001   7 488   29124  $$$685B,7
  29141  00005380  00000001 USING  ORDINARY    00000000 00001000 FFFFFFF7   7 000          @R7,7
  29186  000053A8  00000001 USING  ORDINARY    000053A8 00001000 00000001   7 427   29305  $$$692B,7
  29322  000053FE  00000001 USING  ORDINARY    00000000 00001000 FFFFFFF7   7 000          @R7,7
  29386  00005426  00000001 USING  ORDINARY    00005426 00001000 00000001   7 3E4   29574  $$$699B,7
  29607  000054A4  00000001 USING  ORDINARY    00000000 00001000 FFFFFFF7   7 000          @R7,7
  29652  000054CC  00000001 USING  ORDINARY    000054CC 00001000 00000001   7 2E4   29749  $$$711B,7
  29790  00005566  00000001 USING  ORDINARY    00000000 00001000 FFFFFFF7   7 000          @R7,7
  29896  0000562E  00000001 USING  ORDINARY    0000562E 00001000 00000001   7 000          $$$717B,7
  29922  0000563A  00000001 USING  ORDINARY    00000000 00001000 FFFFFFF7   7 000          @R7,7
  29967  00005662  00000001 USING  ORDINARY    00005662 00001000 00000001   7 000          $$$720B,7
  29993  0000566E  00000001 USING  ORDINARY    00000000 00001000 FFFFFFF7   7 000          @R7,7
  30038  00005696  00000001 USING  ORDINARY    00005696 00001000 00000001   7 000          $$$723B,7
  30070  000056A2  00000001 USING  ORDINARY    00000000 00001000 FFFFFFF7   7 000          @R7,7
  30115  000056CA  00000001 USING  ORDINARY    000056CA 00001000 00000001   7 000          $$$726B,7
  30131  000056CE  00000001 USING  ORDINARY    00000000 00001000 FFFFFFF7   7 000          @R7,7
  30176  000056F6  00000001 USING  ORDINARY    000056F6 00001000 00000001   7 000          $$$729B,7
  30204  000056FE  00000001 USING  ORDINARY    00000000 00001000 FFFFFFF7   7 000          @R7,7
  30249  00005726  00000001 USING  ORDINARY    00005726 00001000 00000001   7 000          $$$732B,7
  30274  0000572E  00000001 USING  ORDINARY    00000000 00001000 FFFFFFF7   7 000          @R7,7
  30319  00005756  00000001 USING  ORDINARY    00005756 00001000 00000001   7 000          $$$735B,7
  30347  0000575E  00000001 USING  ORDINARY    00000000 00001000 FFFFFFF7   7 000          @R7,7
  30424  0000582A  00000001 USING  ORDINARY    0000582A 00001000 00000001   7 32C   30647  $$$738B,7
  30690  0000591E  00000001 USING  ORDINARY    00000000 00001000 FFFFFFF7   7 000          @R7,7
  30735  00005946  00000001 USING  ORDINARY    00005946 00001000 00000001   7 20A   30768  $$$750B,7
  30784  00005966  00000001 USING  ORDINARY    00000000 00001000 FFFFFFF7   7 000          @R7,7
  30829  0000598E  00000001 USING  ORDINARY    0000598E 00001000 00000001   7 016   30863  $$$754B,7
  30880  000059A4  00000001 USING  ORDINARY    00000000 00001000 FFFFFFF7   7 000          @R7,7
  30925  000059CC  00000001 USING  ORDINARY    000059CC 00001000 00000001   7 01A   30965  $$$759B,7
  30982  000059E6  00000001 USING  ORDINARY    00000000 00001000 FFFFFFF7   7 000          @R7,7
  31027  00005A0E  00000001 USING  ORDINARY    00005A0E 00001000 00000001   7 016   31061  $$$764B,7
  31078  00005A24  00000001 USING  ORDINARY    00000000 00001000 FFFFFFF7   7 000          @R7,7
1RJE      (RJE4072) (12:53) (15MAR04) Using Map                                                                             Page  205
  31123  00005A4C  00000001 USING  ORDINARY    00005A4C 00001000 00000001   7 01A   31163  $$$769B,7
  31180  00005A66  00000001 USING  ORDINARY    00000000 00001000 FFFFFFF7   7 000          @R7,7
  31225  00005A8E  00000001 USING  ORDINARY    00005A8E 00001000 00000001   7 01E   31280  $$$774B,7
  31297  00005AAC  00000001 USING  ORDINARY    00000000 00001000 FFFFFFF7   7 000          @R7,7
  31342  00005AD4  00000001 USING  ORDINARY    00005AD4 00001000 00000001   7 01A   31382  $$$780B,7
  31399  00005AEE  00000001 USING  ORDINARY    00000000 00001000 FFFFFFF7   7 000          @R7,7
  31444  00005B16  00000001 USING  ORDINARY    00005B16 00001000 00000001   7 01E   31499  $$$785B,7
  31516  00005B34  00000001 USING  ORDINARY    00000000 00001000 FFFFFFF7   7 000          @R7,7
  31579  00005B74  00000001 USING  ORDINARY    00005B74 00001000 00000001   7 910   31643  $$$791B,7
  31664  00005BA4  00000001 USING  ORDINARY    00000000 00001000 FFFFFFF7   7 000          @R7,7
  31709  00005BCC  00000001 USING  ORDINARY    00005BCC 00001000 00000001   7 8E4   32013  $$$797B,7
  32033  00005D6A  00000001 USING  ORDINARY    00000000 00001000 FFFFFFF7   7 000          @R7,7
  32078  00005D92  00000001 USING  ORDINARY    00005D92 00001000 00000001   7 75A   32209  $$$807B,7
  32220  00005DE6  00000001 USING  ORDINARY    00000000 00001000 FFFFFFF7   7 000          @R7,7
  32265  00005E0E  00000001 USING  ORDINARY    00005E0E 00001000 00000001   7 6A2   32569  $$$819B,7
  32589  00005FAC  00000001 USING  ORDINARY    00000000 00001000 FFFFFFF7   7 000          @R7,7
  32634  00005FD4  00000001 USING  ORDINARY    00005FD4 00001000 00000001   7 542   32797  $$$829B,7
  32808  00006034  00000001 USING  ORDINARY    00000000 00001000 FFFFFFF7   7 000          @R7,7
  32853  0000605C  00000001 USING  ORDINARY    0000605C 00001000 00000001   7 452   32951  $$$846B,7
  32992  000060F8  00000001 USING  ORDINARY    00000000 00001000 FFFFFFF7   7 000          @R7,7
  33083  0000619A  00000001 USING  ORDINARY    0000619A 00001000 00000001   7 000          $$$852B,7
  33099  0000619E  00000001 USING  ORDINARY    00000000 00001000 FFFFFFF7   7 000          @R7,7
  33144  000061C6  00000001 USING  ORDINARY    000061C6 00001000 00000001   7 000          $$$855B,7
  33160  000061CA  00000001 USING  ORDINARY    00000000 00001000 FFFFFFF7   7 000          @R7,7
  33205  000061F2  00000001 USING  ORDINARY    000061F2 00001000 00000001   7 2BC   33304  $$$858B,7
  33345  0000628E  00000001 USING  ORDINARY    00000000 00001000 FFFFFFF7   7 000          @R7,7
  33466  0000637E  00000001 USING  ORDINARY    0000637E 00001000 00000001   7 000          $$$864B,7
  33482  00006382  00000001 USING  ORDINARY    00000000 00001000 FFFFFFF7   7 000          @R7,7
  33527  000063AA  00000001 USING  ORDINARY    000063AA 00001000 00000001   7 000          $$$867B,7
  33549  000063B2  00000001 USING  ORDINARY    00000000 00001000 FFFFFFF7   7 000          @R7,7
  33594  000063DA  00000001 USING  ORDINARY    000063DA 00001000 00000001   7 000          $$$870B,7
  33610  000063DE  00000001 USING  ORDINARY    00000000 00001000 FFFFFFF7   7 000          @R7,7
  33655  00006406  00000001 USING  ORDINARY    00006406 00001000 00000001   7 000          $$$873B,7
  33676  0000640A  00000001 USING  ORDINARY    00000000 00001000 FFFFFFF7   7 000          @R7,7
  33764  00006536  00000001 USING  ORDINARY    00006536 00001000 00000001   7 EA2   33822  $$$876B,7
  33838  0000655C  00000001 USING  ORDINARY    00000000 00001000 FFFFFFF7   7 000          @R7,7
  33884  00006584  00000001 USING  ORDINARY    00006584 00001000 00000001   7 E54   33942  $$$881B,7
  33958  000065AA  00000001 USING  ORDINARY    00000000 00001000 FFFFFFF7   7 000          @R7,7
  34025  000065D2  00000001 USING  ORDINARY    000065D2 00001000 00000001   7 F94   34835  $$$886B,7
  34039  000065D2  00000001 USING  ORDINARY    FFFFFFD8 00001000 FFFFFFDE   8 02D   34115  RJETOWA-(4+36),R8
  34872  00006818  00000001 USING  ORDINARY    00000000 00001000 FFFFFFF6   8 000          @R8,8
  34877  00006818  00000001 USING  ORDINARY    00000000 00001000 FFFFFFF7   7 000          @R7,7
  34922  00006840  00000001 USING  ORDINARY    00006840 00001000 00000001   7 BCC   35060  $$$926B,7
  35076  0000689E  00000001 USING  ORDINARY    00000000 00001000 FFFFFFF7   7 000          @R7,7
  35121  000068C6  00000001 USING  ORDINARY    000068C6 00001000 00000001   7 C40   35230  $$$935B,7
  35251  0000691E  00000001 USING  ORDINARY    00000000 00001000 FFFFFFF7   7 000          @R7,7
  35296  00006946  00000001 USING  ORDINARY    00006946 00001000 00000001   7 AD2   35360  $$$942B,7
  35381  00006976  00000001 USING  ORDINARY    00000000 00001000 FFFFFFF7   7 000          @R7,7
  35426  0000699E  00000001 USING  ORDINARY    0000699E 00001000 00000001   7 B9B   35570  $$$948B,7
  35591  00006A08  00000001 USING  ORDINARY    00000000 00001000 FFFFFFF7   7 000          @R7,7
  35636  00006A30  00000001 USING  ORDINARY    00006A30 00001000 00000001   7 A20   35734  $$$957B,7
  35775  00006ACC  00000001 USING  ORDINARY    00000000 00001000 FFFFFFF7   7 000          @R7,7
  35866  00006B6E  00000001 USING  ORDINARY    00006B6E 00001000 00000001   7 000          $$$963B,7
  35882  00006B72  00000001 USING  ORDINARY    00000000 00001000 FFFFFFF7   7 000          @R7,7
  35927  00006B9A  00000001 USING  ORDINARY    00006B9A 00001000 00000001   7 000          $$$966B,7
  35943  00006B9E  00000001 USING  ORDINARY    00000000 00001000 FFFFFFF7   7 000          @R7,7
  35988  00006BC6  00000001 USING  ORDINARY    00006BC6 00001000 00000001   7 88A   36091  $$$969B,7
  36132  00006C66  00000001 USING  ORDINARY    00000000 00001000 FFFFFFF7   7 000          @R7,7
  36223  00006D06  00000001 USING  ORDINARY    00006D06 00001000 00000001   7 000          $$$975B,7
1RJE      (RJE4072) (12:53) (15MAR04) Using Map                                                                             Page  206
  36239  00006D0A  00000001 USING  ORDINARY    00000000 00001000 FFFFFFF7   7 000          @R7,7
  36284  00006D32  00000001 USING  ORDINARY    00006D32 00001000 00000001   7 000          $$$978B,7
  36300  00006D36  00000001 USING  ORDINARY    00000000 00001000 FFFFFFF7   7 000          @R7,7
  36345  00006D5E  00000001 USING  ORDINARY    00006D5E 00001000 00000001   7 000          $$$981B,7
  36371  00006D66  00000001 USING  ORDINARY    00000000 00001000 FFFFFFF7   7 000          @R7,7
  36416  00006D8E  00000001 USING  ORDINARY    00006D8E 00001000 00000001   7 6A6   36480  $$$984B,7
  36501  00006DBE  00000001 USING  ORDINARY    00000000 00001000 FFFFFFF7   7 000          @R7,7
  36546  00006DE6  00000001 USING  ORDINARY    00006DE6 00001000 00000001   7 684   36585  $$$990B,7
  36596  00006DFE  00000001 USING  ORDINARY    00000000 00001000 FFFFFFF7   7 000          @R7,7
  36641  00006E26  00000001 USING  ORDINARY    00006E26 00001000 00000001   7 64A   36680  $$$995B,7
  36691  00006E3E  00000001 USING  ORDINARY    00000000 00001000 FFFFFFF7   7 000          @R7,7
  36736  00006E66  00000001 USING  ORDINARY    00006E66 00001000 00000001   7 610   36775  $$$1000B,7
  36804  00006E88  00000001 USING  ORDINARY    00000000 00001000 FFFFFFF7   7 000          @R7,7
  36849  00006EB0  00000001 USING  ORDINARY    00006EB0 00001000 00000001   7 588   36913  $$$1006B,7
  36934  00006EE0  00000001 USING  ORDINARY    00000000 00001000 FFFFFFF7   7 000          @R7,7
  36979  00006F08  00000001 USING  ORDINARY    00006F08 00001000 00000001   7 018   37017  $$$1012B,7
  37043  00006F20  00000001 USING  ORDINARY    00000000 00001000 FFFFFFF7   7 000          @R7,7
  37088  00006F48  00000001 USING  ORDINARY    00006F48 00001000 00000001   7 018   37126  $$$1017B,7
  37152  00006F60  00000001 USING  ORDINARY    00000000 00001000 FFFFFFF7   7 000          @R7,7
  37197  00006F88  00000001 USING  ORDINARY    00006F88 00001000 00000001   7 514   37526  $$$1022B,7
  37556  00007100  00000001 USING  ORDINARY    00000000 00001000 FFFFFFF7   7 000          @R7,7
  37601  00007128  00000001 USING  ORDINARY    00007128 00001000 00000001   7 014   37634  $$$1035B,7
  37656  0000713C  00000001 USING  ORDINARY    00000000 00001000 FFFFFFF7   7 000          @R7,7
  37701  00007164  00000001 USING  ORDINARY    00007164 00001000 00000001   7 3E6   37716  $$$1040B,7
  37728  00007174  00000001 USING  ORDINARY    00000000 00001000 FFFFFFF7   7 000          @R7,7
  37773  0000719C  00000001 USING  ORDINARY    0000719C 00001000 00000001   7 3AF   37788  $$$1043B,7
  37800  000071AC  00000001 USING  ORDINARY    00000000 00001000 FFFFFFF7   7 000          @R7,7
  37845  000071D4  00000001 USING  ORDINARY    000071D4 00001000 00000001   7 26C   37860  $$$1046B,7
  37872  000071E4  00000001 USING  ORDINARY    00000000 00001000 FFFFFFF7   7 000          @R7,7
  37917  0000720C  00000001 USING  ORDINARY    0000720C 00001000 00000001   7 292   38004  $$$1049B,7
  38025  00007246  00000001 USING  ORDINARY    00000000 00001000 FFFFFFF7   7 000          @R7,7
  38070  0000726E  00000001 USING  ORDINARY    0000726E 00001000 00000001   7 1DA   38123  $$$1056B,7
  38139  00007290  00000001 USING  ORDINARY    00000000 00001000 FFFFFFF7   7 000          @R7,7
  38184  000072B8  00000001 USING  ORDINARY    000072B8 00001000 00000001   7 299   38288  $$$1061B,7
  38308  00007308  00000001 USING  ORDINARY    00000000 00001000 FFFFFFF7   7 000          @R7,7
  38353  00007330  00000001 USING  ORDINARY    00007330 00001000 00000001   7 014   38386  $$$1070B,7
  38408  00007344  00000001 USING  ORDINARY    00000000 00001000 FFFFFFF7   7 000          @R7,7
  38453  0000736C  00000001 USING  ORDINARY    0000736C 00001000 00000001   7 014   38486  $$$1075B,7
  38508  00007380  00000001 USING  ORDINARY    00000000 00001000 FFFFFFF7   7 000          @R7,7
  38553  000073A8  00000001 USING  ORDINARY    000073A8 00001000 00000001   7 018   38591  $$$1080B,7
  38616  000073C0  00000001 USING  ORDINARY    00000000 00001000 FFFFFFF7   7 000          @R7,7
  38731  00007586  00000001 USING  ORDINARY    00007586 00001000 00000001   7 000          $$$1085B,7
  38758  00007596  00000001 USING  ORDINARY    00000000 00001000 FFFFFFF7   7 000          @R7,7
  38917  000075BE  00000001 USING  ORDINARY    000075BE 00001000 00000001   7 73A   39437  $$$1096B,7
  38931  000075BE  00000001 USING  ORDINARY    FFFFFFD8 00001000 FFFFFFDD   8 064   39336  JCLSWA-(4+36),R8
  39454  00007732  00000001 USING  ORDINARY    00000000 00001000 FFFFFFF6   8 000          @R8,8
  39459  00007732  00000001 USING  ORDINARY    00000000 00001000 FFFFFFF7   7 000          @R7,7
  39537  0000775A  00000001 USING  ORDINARY    0000775A 00001000 00000001   7 5CE   40197  $$$1111B,7
  39551  0000775A  00000001 USING  ORDINARY    FFFFFFD8 00001000 FFFFFFDC   8 028   40059  JCKWA-(4+36),R8
  40033  000079A8  00000001 DROP                                            3              3
  40037  000079AE  00000001 USING  ORDINARY    00000000 00001000 FFFFFFFB   3 000          @R3,3
  40068  000079CA  00000001 DROP                                            3              3
  40072  000079D0  00000001 USING  ORDINARY    00000000 00001000 FFFFFFFB   3 001   51136  @R3,3
  40215  00007A48  00000001 USING  ORDINARY    00000000 00001000 FFFFFFF6   8 000          @R8,8
  40220  00007A48  00000001 USING  ORDINARY    00000000 00001000 FFFFFFF7   7 000          @R7,7
  40272  00007A70  00000001 USING  ORDINARY    00007A70 00001000 00000001   7 082   40513  $$$1133B,7
  40522  00007AF2  00000001 USING  ORDINARY    00000000 00001000 FFFFFFF7   7 000          @R7,7
  40574  00007B1A  00000001 USING  ORDINARY    00007B1A 00001000 00000001   7 1BE   40676  $$$1151B,7
  40687  00007BB4  00000001 USING  ORDINARY    00000000 00001000 FFFFFFF7   7 000          @R7,7
1RJE      (RJE4072) (12:53) (15MAR04) Using Map                                                                             Page  207
  40859  00007D58  00000001 USING  ORDINARY    00007D58 00001000 00000001   7 B96   43479  $$$1155B,7
  40873  00007D58  00000001 USING  ORDINARY    FFFFFFD8 00001000 FFFFFFDB   8 03A   42755  JOBWA-(4+36),R8
  43490  000083FE  00000001 USING  ORDINARY    00000000 00001000 FFFFFFF6   8 000          @R8,8
  43495  000083FE  00000001 USING  ORDINARY    00000000 00001000 FFFFFFF7   7 000          @R7,7
  43546  00008426  00000001 USING  ORDINARY    00008426 00001000 00000001   7 4CE   44492  $$$1260B,7
  43568  0000842C  00000001 USING  ORDINARY    00000000 00001000 FFFFFFE8   5 1F4   44241  KWR,R5
  44135  00008608  00000001 DROP                                           15              15
  44139  0000860E  00000001 USING  ORDINARY    00000000 00001000 FFFFFFEF  15 001   44361  @R15,15
  44250  0000865C  00000001 USING  ORDINARY    00000000 00001000 FFFFFFF9   5 000          @R5,5
  44445  000086CE  00000001 DROP                                           15              15
  44449  000086D4  00000001 USING  ORDINARY    00000000 00001000 FFFFFFEF  15 000          @R15,15
  44511  0000870A  00000001 USING  ORDINARY    00000000 00001000 FFFFFFF7   7 000          @R7,7
  44650  00008914  00000001 USING  ORDINARY    00008914 00001000 00000001   7 E30   49336  $$$1297B,7
  49358  00009582  00000001 USING  ORDINARY    00000000 00001000 FFFFFFF7   7 000          @R7,7
  49458  00009751  00000001 USING  ORDINARY    00000000 00001000 FFFFFFF8   6 000          @R6,6
  49498  0000976C  00000001 USING  ORDINARY    0000976C 00001000 00000001   7 B3C   49628  $$$1369B,7
  49517  00009770  00000001 USING  ORDINARY    00000000 00001000 FFFFFFE3   6 3F5   49599  RJEWA,R6
  49532  00009772  00000001 USING  ORDINARY    00000000 00001000 FFFFFFE7   5 000   49548  SEGCB,R5
  49645  000097A4  00000001 USING  ORDINARY    00000000 00001000 FFFFFFF9   5 001   50565  @R5,5
  49650  000097A4  00000001 USING  ORDINARY    00000000 00001000 FFFFFFF8   6 000          @R6,6
  49655  000097A4  00000001 USING  ORDINARY    00000000 00001000 FFFFFFF7   7 000          @R7,7
  49849  000097CC  00000001 USING  ORDINARY    000097CC 00001000 00000001   7 B18   50908  $$$1385B,7
  49863  000097CC  00000001 USING  ORDINARY    FFFFFFD8 00001000 FFFFFFDA   8 339   50880  FMTWA-(4+36),R8
  49876  000097CC  00000001 USING  ORDINARY    00000000 00001000 FFFFFFE3   6 008   50920  RJEWA,R6
  50498  00009988  00000001 DROP                                            2              2
  50502  0000998E  00000001 USING  ORDINARY    00000000 00001000 FFFFFFFC   2 000          @R2,2
  50505  0000998E  00000001 DROP                                           15              15
  50509  00009994  00000001 USING  ORDINARY    00000000 00001000 FFFFFFEF  15 000          @R15,15
  50932  00009A92  00000001 USING  ORDINARY    00000000 00001000 FFFFFFF8   6 000          @R6,6
  50937  00009A92  00000001 USING  ORDINARY    00000000 00001000 FFFFFFF6   8 000          @R8,8
  50942  00009A92  00000001 USING  ORDINARY    00000000 00001000 FFFFFFF7   7 000          @R7,7
  51021  00009CBA  00000001 USING  ORDINARY    00009CBA 00001000 00000001   7 630   51136  $$$1420B,7
  51040  00009CBE  00000001 USING  ORDINARY    00000000 00001000 FFFFFFE3   6 008   51101  RJEWA,R6
  51055  00009CC0  00000001 USING  ORDINARY    00000000 00001000 FFFFFFE7   5 038   51108  SEGCB,R5
  51070  00009CC4  00000001 USING  ORDINARY    00000000 00001000 FFFFFFDA   4 137   51107  FMTWA,R4
  51162  00009CEA  00000001 USING  ORDINARY    00000000 00001000 FFFFFFFA   4 000          @R4,4
  51167  00009CEA  00000001 USING  ORDINARY    00000000 00001000 FFFFFFF9   5 000          @R5,5
  51172  00009CEA  00000001 USING  ORDINARY    00000000 00001000 FFFFFFF8   6 000          @R6,6
  51177  00009CEA  00000001 USING  ORDINARY    00000000 00001000 FFFFFFF7   7 000          @R7,7
  51232  00009DFE  00000001 USING  ORDINARY    00009DFE 00001000 00000001   7 4E4   51323  $$$1428B,7
  51248  00009DFE  00000001 USING  ORDINARY    00000000 00001000 FFFFFFE3   6 42E   52161  RJEWA,R6
  51259  00009E00  00000001 USING  ORDINARY    00000000 00001000 FFFFFFDA   5 000   51688  FMTWA,R5
  51331  00009E74  00000001 USING  ORDINARY    00000000 00001000 FFFFFFF7   7 000          @R7,7
  51545  0000A056  00000001 USING  ORDINARY    0000A056 00001000 00000001   7 000          $$$1431B,7
  51561  0000A05A  00000001 USING  ORDINARY    00000000 00001000 FFFFFFF7   7 000          @R7,7
  51606  0000A082  00000001 USING  ORDINARY    0000A082 00001000 00000001   7 000          $$$1434B,7
  51628  0000A08A  00000001 USING  ORDINARY    00000000 00001000 FFFFFFF7   7 000          @R7,7
  51673  0000A0B2  00000001 USING  ORDINARY    0000A0B2 00001000 00000001   7 000          $$$1437B,7
  51695  0000A0BA  00000001 USING  ORDINARY    00000000 00001000 FFFFFFF7   7 000          @R7,7
  51740  0000A0E2  00000001 USING  ORDINARY    0000A0E2 00001000 00000001   7 000          $$$1440B,7
  51769  0000A0E6  00000001 USING  ORDINARY    00000000 00001000 FFFFFFF7   7 000          @R7,7
  51814  0000A10E  00000001 USING  ORDINARY    0000A10E 00001000 00000001   7 000          $$$1443B,7
  51835  0000A112  00000001 USING  ORDINARY    00000000 00001000 FFFFFFF7   7 000          @R7,7
  51880  0000A13A  00000001 USING  ORDINARY    0000A13A 00001000 00000001   7 000          $$$1446B,7
  51902  0000A13E  00000001 USING  ORDINARY    00000000 00001000 FFFFFFF7   7 000          @R7,7
  51947  0000A166  00000001 USING  ORDINARY    0000A166 00001000 00000001   7 000          $$$1449B,7
  51968  0000A16A  00000001 USING  ORDINARY    00000000 00001000 FFFFFFF7   7 000          @R7,7
  52013  0000A192  00000001 USING  ORDINARY    0000A192 00001000 00000001   7 000          $$$1452B,7
  52035  0000A196  00000001 USING  ORDINARY    00000000 00001000 FFFFFFF7   7 000          @R7,7
1RJE      (RJE4072) (12:53) (15MAR04) Using Map                                                                             Page  208
  52080  0000A1BE  00000001 USING  ORDINARY    0000A1BE 00001000 00000001   7 000          $$$1455B,7
  52101  0000A1C2  00000001 USING  ORDINARY    00000000 00001000 FFFFFFF7   7 000          @R7,7
  52146  0000A1EA  00000001 USING  ORDINARY    0000A1EA 00001000 00000001   7 000          $$$1458B,7
  52168  0000A1EE  00000001 USING  ORDINARY    00000000 00001000 FFFFFFF7   7 000          @R7,7
  52188  0000A1FC  00000001 USING  ORDINARY    00000000 00001000 FFFFFFF8   6 000          @R6,6
  52195  0000A1FC  00000001 USING  ORDINARY    00000000 00001000 FFFFFFF9   5 000          @R5,5
  52260  0000A216  00000001 USING  ORDINARY    0000A216 00001000 00000001   7 0DA   52445  $$$1461B,7
  52274  0000A216  00000001 USING  ORDINARY    FFFFFFD8 00001000 FFFFFFD9   8 02A   52435  WRAPWA-(4+36),R8
  52287  0000A216  00000001 USING  ORDINARY    00000000 00001000 FFFFFFE3   6 36A   52328  RJEWA,R6
  52453  0000A292  00000001 USING  ORDINARY    00000000 00001000 FFFFFFF8   6 000          @R6,6
  52458  0000A292  00000001 USING  ORDINARY    00000000 00001000 FFFFFFF6   8 000          @R8,8
  52463  0000A292  00000001 USING  ORDINARY    00000000 00001000 FFFFFFF7   7 000          @R7,7

1         (RJE4072) (12:53) (15MAR04) General Purpose Register Cross Reference                                              Page  209
- Register  References (M=modified, B=branch, U=USING, D=DROP, N=index)                      HLASM R4.0  2004/03/15 12.53
0    0(0)      990U   991D  2109   2177M  2177   2178M  7253   7371M  7371   7393M  7451M  7471   7530M  7623M  7623
              7645M  7713M  7749M  7783   7833   7845M  7850   7907   7919M  7919   7928   7929   7961M  8121   8170M
              8184M  8184   8193   8194   8195   8232M  8232   8290M  8290   8299   8300   8301   8338M  8359   8398
              8441M  8461   8503M  8526M  8546   8593M  8613   8659M  8679   8710M  8734M  8736M  8815M  8863   9009M
              9038   9095M  9127   9157M  9174M  9174   9184M  9184   9210M  9235   9283M  9308   9337M  9361M  9361
              9372M  9430M  9461M 10062  10195M 10210M 10255M 10255  10264  10265  10416M 10416  10425  10426  10545M
             10571M 10598M 10615M 10650M 10678M 10706M 10706  10741M 10783M 10814M 10836M 10857M 10990  11036M 11115
             11195M 11210M 11274M 11274  11283  11284  11326M 11326  11335  11336  11416M 11451M 11490M 11512M 11546M
             11593  11656  11678  11685M 11706M 11706  11715  11716  11752M 11767M 11804M 11822M 11840M 11860M 11873M
             11906M 11940  11946M 11961M 11999M 12017M 12035M 12072M 12349  12419M 12439  12509M 12541  12643M 12688M
             12718M 12736M 12766M 12785M 12980M 13012  13054  13059  13153M 13271M 13356M 13380M 13380  13411M 13516
             13591M 13606M 13780M 13780  13789  13790  13832M 13832  13841  13842  13979M 14014M 14053M 14075M 14109M
             14195  14258  14280  14287M 14289  14309M 14324M 14514M 14514  14523  14524  14579M 14622M 14622  14715M
             14723M 14759M 14800  14871M 14888M 14908M 14971M 15008M 15037M 15037  15134M 15166M 15206M 15206  15256M
             15314M 15334M 15361M 15378M 15405M 15438M 15466M 15483M 15505M 15536M 15552M 15552  15585M 15626  15760M
             16069M 16114M 16144M 16162M 16192M 16211M 16341M 16700M 16803  16845  16850  16884M 16884  16906M 16931M
             16950  16993M 16993  17002  17003  17124  17127M 17153M 17159M 17197M 17201  17244M 17244  17253  17254
             17667M 17673  17759M 17831M 17831  17923M 17971M 18048M 18080M 18152M 18152  18190M 18244M 18263M 18287M
             18287  18648M 18648  18670M 18696M 18722M 18735M 18735  18834M 18995M 19012M 19097M 19124M 19124  19157M
             19180M 19201M 19229M 19299M 19430M 19430  19508M 19508  19584M 19627  19672M 19690M 19724M 19746M 19759M
             19803M 19833  19862M 19865  19873M 19903M 19924M 19924  19975M 19997  20026M 20029  20037M 20067M 20088M
             20088  20139M 20267  20328  20367  20587M 20671M 20671  20749M 20749  20776M 20808M 20853M 20922  20959
             20988M 21000M 21003  21015M 21020M 21020  21045  21065  21078M 21078  21105M 21120M 21167M 21167  21199M
             21227  21270M 21311M 21919  21981M 21999M 22038M 22074M 22094  22177  22189M 22194  22255M 22275  22358
             22370M 22375  22436M 22456  22528M 22555M 22575  22647M 22674M 22694  22766M 22793M 22813  22897  22911
             22933M 22983M 23003  23049M 23069  23115M 23135  23263M 23283  23376M 23396  23523M 23543  23589M 23609
             23656M 23676  23722M 23742  23789M 23809  23861M 23881  23927M 23947  23980M 23980  23989  23990  24152M
             24203  24229  24247M 24267  24308M 24369  24407M 24442M 24463M 24483M 24534M 24562M 24603M 24640M 24675M
             24702M 24723M 24777M 24815M 24862M 24919M 24956M 24984M 25019M 25039M 25090M 25118M 25157M 25184M 25238M
             25266M 25305M 25333M 25386M 25414M 25452M 25480M 25537M 25565M 25641M 25690M 25723M 25751M 25793M 25821M
             25859M 25887M 25948M 25997M 26030M 26058M 26116M 26186M 26238M 26286M 26334M 26376M 26414M 26452M 26504M
             26542M 26576M 26608M 26642M 26670M 26708M 26736M 26774M 26802M 26840M 26868M 26868  26906M 26944M 26982M
             27020M 27058M 27096M 27124M 27162M 27190M 27228M 27266M 27306M 27326M 27326  27350M 27350  27390M 27430M
             27450M 27450  27474M 27474  27523M 27544M 27544  27568M 27568  27602M 27643M 27664M 27664  27688M 27688
             27725M 27746M 27746  27770M 27770  27799M 27799  27835M 27971  28003  28018M 28988  29025  29125M 29149M
             29169  29206  29306M 29330M 29369  29414  29429  29441  29517M 29553  29615M 29635  29667M 29667  29676
             29677  29798M 29879  29930M 29950  30001M 30021  30078M 30098  30139M 30159  30212M 30232  30282M 30302
             30355M 30407  30510M 30510  30519  30520  30521  30546  30698M 30718  30759  30792M 30812  30869  30888M
             30908  30937M 30937  30939M 30971  30990M 31010  31067  31086M 31106  31135M 31135  31137M 31169  31188M
             31208  31242M 31242  31250M 31286  31305M 31325  31354M 31354  31356M 31388  31407M 31427  31461M 31461
             31469M 31505  31524M 31562  31599  31672M 31692  31801M 31820  31831M 31831  31840  31841  31842  31873M
             31873  31893M 31893  31902  31903  31904  31935M 31935  31952M 31952  31961  31962  31963  31990M 31990
             32041M 32061  32088  32162  32174M 32210M 32228M 32248  32357M 32376  32387M 32387  32396  32397  32398
             32429M 32429  32449M 32449  32458  32459  32460  32491M 32491  32508M 32508  32517  32518  32519  32546M
             32546  32597M 32617  32644  32798M 32816M 32836  32874M 32874  32883  32884  33000M 33066  33107M 33127
             33168M 33188  33227M 33227  33236  33237  33353M 33449  33490M 33510  33557M 33577  33618M 33638  33684M
             33747  33819M 33846M 33867  33939M 33966M 34007  34050M 34050  34059  34086M 34086  34098M 34120M 34172
             34237  34251M 34251  34273  34276M 34289  34296  34315M 34326  34416M 34434M 34551M 34571M 34885M 34905
             35007  35084M 35104  35141  35213M 35231M 35259M 35279  35316  35389M 35409  35446  35539M 35599M 35619
             35657M 35657  35666  35667  35783M 35849  35890M 35910  35951M 35971  36014M 36014  36023  36024  36140M
             36206  36247M 36267  36308M 36328  36379M 36399  36436  36509M 36529  36604M 36624  36699M 36719  36812M
             36832  36869  36942M 36962  37051M 37071  37160M 37180  37270  37311M 37330  37343M 37343  37352  37353
             37354  37381M 37381  37401  37429M 37429  37438  37439  37440  37467M 37467  37479M 37564M 37584  37664M
             37684  37713M 37736M 37756  37785M 37808M 37828  37880M 37900  37937  38005M 38033M 38053  38094  38147M
             38167  38316M 38336  38416M 38436  38516M 38536  38624M 38714  38766M 38899  38988M 39075M 39128M 39149M
1         (RJE4072) (12:53) (15MAR04) General Purpose Register Cross Reference                                              Page  210
             39149  39184M 39205M 39205  39222M 39238M 39262M 39262  39269  39275M 39290M 39336M 39380M 39408M 39426M
             39467M 39519  39829  39831M 39832M 39839M 39845M 39858M 39865M 39880M 39882M 39885M 39885  39894M 39898M
             39920  39931M 39931  39940  39941  39942  39981M 39981  40001  40146M 40164M 40183M 40228M 40255  40291M
             40291  40316M 40329M 40329  40351M 40359M 40368M 40368  40509M 40530M 40557  40594  40627M 40631  40642M
             40642  40651  40652  40695M 40841  40892  40904M 40910  40925M 40925  40946M 40954  41052M 41080M 41097M
             41124M 41141M 41169M 41186M 41230M 41243M 41243  41253  41258M 41301M 41345M 41376M 41414M 41441M 41698M
             41698  41760M 41780  41794  41846  41890  41935  41980  41992  42390M 42418M 42452M 42473M 42501M 42519M
             42563M 42594M 42611M 42639M 42652M 42653M 42654M 42655M 42655  42668  42732M 42760M 42784M 42784  43269M
             43301M 43333M 43350M 43366M 43373M 43407M 43441M 43463M 43476M 43503M 43529  43582M 43582  43599M 43620M
             43669M 43697M 43715M 43743M 43759M 43787M 43815M 43833M 43861M 43879M 43895M 43918M 43945M 44205M 44454M
             44519M 44633  44716M 44759M 44811M 44828M 44857M 44873M 44925M 44941M 44999M 45015M 45073M 45089M 45137M
             45163M 45184M 45212M 45229M 45257M 45273M 45304M 45352M 45378M 45399M 45427M 45444M 45472M 45488M 45519M
             45584M 45612M 45628M 45681M 45709M 45725M 45741  45755M 45773M 45794M 45839M 45855M 45904M 45920M 45936
             45950M 45968M 45989M 46034M 46062M 46078M 46127M 46155M 46171M 46220M 46248M 46264M 46313M 46329M 46378M
             46394M 46443M 46459M 46508M 46524M 46573M 46589M 46605  46619M 46637M 46658M 46704M 46732M 46748M 46797M
             46831M 46863M 46897M 46925M 46963M 46991M 47029M 47057M 47095M 47115M 47165M 47181M 47230M 47246M 47295M
             47323M 47339M 47355  47369M 47387M 47408M 47471M 47492M 47492  47508M 47576M 47597M 47597  47613M 47661M
             47682M 47682  47698M 47714  47728M 47746M 47785M 47813M 47830M 47860M 47884M 47884  47902M 47930M 47947M
             47977M 48001M 48001  48074M 48120M 48170M 48198M 48232M 48260M 48282M 48316M 48344M 48362M 48400M 48428M
             48446M 48468M 48515M 48575M 48597M 48630M 48660M 48706M 48739M 48756M 48785M 48814M 48843M 48879M 48879
             48909M 48943M 48976M 48997M 49045M 49102M 49130M 49130  49179M 49207M 49231M 49231  49273M 49301M 49325M
             49325  49366M 49481  49663M 49831  49899  49922M 49948M 49948  49960M 49979  50013M 50028M 50151M 50186M
             50230M 50394M 50395M 50417  50433M 50448M 50552M 50744M 50791M 50838M 50885M 50950M 51004  51109  51185M
             51215  51283  51294M 51294  51339M 51528  51569M 51589  51636M 51656  51703M 51723  51777M 51797  51843M
             51863  51910M 51930  51976M 51996  52043M 52063  52109M 52129  52176M 52242  52344  52371M 52372M 52434M
             52435M 52471M
     1(1)      986U  2109   2172M  2173M  2179M  7253   7392M  7470   7531M  7644M  7714M  7749M  7783   7899M  7906
              7915M  7928N  7929N  7931N  7961M  8121   8165M  8180M  8193N  8194N  8195N  8240M  8241M  8241N  8286M
              8299N  8300N  8301N  8338M  8359   8419M  8420M  8420N  8441M  8461   8498M  8526M  8546   8593M  8613
              8659M  8679   8708M  8710   8712   8735M  8736M  8815M  8863   9009M  9038   9095M  9127   9156M  9210M
              9235   9283M  9308   9335M  9371M  9429M  9461M 10062  10188M 10251M 10264N 10265N 10267N 10412M 10425N
             10426N 10428N 10522M 10525M 10527  10544M 10556M 10556  10570M 10594M 10614M 10649M 10673M 10740M 10782M
             10813M 10835M 10857M 10990  11036M 11115  11190M 11270M 11283N 11284N 11286N 11322M 11335N 11336N 11338N
             11415M 11452M 11491M 11513M 11546M 11593  11656  11677  11685M 11687  11702M 11715N 11716N 11718N 11747M
             11790M 11790  11803M 11821M 11839M 11859M 11905M 11940  11945M 11961M 11998M 12016M 12034M 12072M 12349
             12419M 12439  12509M 12541  12642M 12687M 12711M 12735M 12759M 12784M 12980M 13012  13052  13056M 13058
             13148M 13351M 13411M 13516  13586M 13776M 13789N 13790N 13792N 13828M 13841N 13842N 13844N 13978M 14015M
             14054M 14076M 14109M 14195  14258  14279  14287M 14290  14304M 14510M 14523N 14524N 14526N 14574M 14624M
             14624  14714M 14722M 14759M 14800  14841M 14841  14870M 14887M 14907M 14970M 15007M 15133M 15161M 15249M
             15333M 15356M 15377M 15400M 15437M 15461M 15482M 15504M 15531M 15585M 15626  15759M 16068M 16113M 16137M
             16161M 16185M 16210M 16340M 16700M 16803  16843  16847M 16849  16904M 16942M 16949  16989M 17002N 17003N
             17005N 17124  17126M 17153M 17158M 17192M 17200  17240M 17253N 17254N 17256N 17662M 17752M 17776M 17970M
             18043M 18073M 18097M 18189M 18243M 18258M 18567M 18588M 18669M 18695M 18721M 18829M 19029M 19096M 19150M
             19194M 19222M 19294M 19584M 19627  19665M 19689M 19723M 19745M 19803M 19833  19861M 19865  19873M 19902M
             19931M 19975M 19997  20025M 20029  20037M 20066M 20095M 20139M 20267  20337  20349M 20543M 20566M 20582M
             20771M 20803M 20853M 20922  20960  20995M 21065  21100M 21120M 21199M 21227  21265M 21311M 21919  21980M
             21998M 22037M 22074M 22094  22255M 22275  22436M 22456  22523M 22555M 22575  22642M 22674M 22694  22761M
             22793M 22813  22928M 22983M 23003  23049M 23069  23115M 23135  23163M 23164M 23164N 23263M 23283  23376M
             23396  23424M 23425M 23425N 23523M 23543  23589M 23609  23656M 23676  23722M 23742  23789M 23809  23861M
             23881  23927M 23947  23976M 23989N 23990N 23992N 24152M 24203  24247M 24267  24308M 24369  24406M 24441M
             24462M 24482M 24533M 24557M 24602M 24635M 24674M 24697M 24722M 24776M 24814M 24861M 24918M 24955M 24979M
             25018M 25038M 25089M 25113M 25156M 25179M 25237M 25261M 25304M 25328M 25385M 25409M 25451M 25475M 25536M
             25560M 25640M 25689M 25722M 25746M 25792M 25816M 25858M 25882M 25947M 25996M 26029M 26053M 26115M 26185M
             26237M 26285M 26333M 26375M 26413M 26451M 26503M 26541M 26575M 26603M 26641M 26665M 26707M 26731M 26773M
             26797M 26839M 26905M 26943M 26981M 27019M 27057M 27095M 27119M 27161M 27185M 27227M 27265M 27305M 27322M
             27389M 27429M 27446M 27522M 27540M 27601M 27642M 27660M 27724M 27742M 27835M 27971  27997M 28018M 28988
             29042M 29043M 29043N 29124M 29149M 29169  29223M 29224M 29224N 29305M 29330M 29369  29397M 29398M 29398N
             29516M 29615M 29635  29663M 29676N 29677N 29679N 29798M 29879  29930M 29950  30001M 30021  30078M 30098
             30139M 30159  30212M 30232  30282M 30302  30355M 30407  30464M 30465M 30465N 30506M 30519N 30520N 30521N
1         (RJE4072) (12:53) (15MAR04) General Purpose Register Cross Reference                                              Page  211
             30698M 30718  30746M 30747M 30747N 30792M 30812  30888M 30908  30990M 31010  31086M 31106  31188M 31208
             31305M 31325  31407M 31427  31524M 31562  31616M 31617M 31617N 31672M 31692  31775M 31812M 31819  31827M
             31840N 31841N 31842N 31882M 31889M 31902N 31903N 31904N 31941M 31948M 31961N 31962N 31963N 32041M 32061
             32088M 32091M 32093  32110  32127  32144  32187M 32209M 32228M 32248  32331M 32368M 32375  32383M 32396N
             32397N 32398N 32438M 32445M 32458N 32459N 32460N 32497M 32504M 32517N 32518N 32519N 32597M 32617  32644M
             32647M 32649  32666  32683  32700  32717  32734  32751  32775M 32797M 32816M 32836  32870M 32883N 32884N
             32886N 33000M 33066  33107M 33127  33168M 33188  33223M 33236N 33237N 33239N 33353M 33449  33490M 33510
             33557M 33577  33618M 33638  33684M 33747  33814M 33846M 33867  33934M 33966M 34007  34046M 34059N 34097M
             34115M 34236  34274M 34295  34385M 34411M 34433M 34549M 34566M 34885M 34905  35054M 35055M 35055N 35057M
             35084M 35104  35188M 35189M 35189N 35212M 35230M 35259M 35279  35333M 35334M 35334N 35389M 35409  35538M
             35599M 35619  35653M 35666N 35667N 35669N 35783M 35849  35890M 35910  35951M 35971  36010M 36023N 36024N
             36026N 36140M 36206  36247M 36267  36308M 36328  36379M 36399  36453M 36454M 36454N 36509M 36529  36604M
             36624  36699M 36719  36812M 36832  36886M 36887M 36887N 36942M 36962  37051M 37071  37160M 37180  37322M
             37329  37339M 37352N 37353N 37354N 37425M 37438N 37439N 37440N 37478M 37564M 37584  37664M 37684  37712M
             37736M 37756  37784M 37808M 37828  37856M 37857M 37857N 37880M 37900  38004M 38033M 38053  38081M 38082M
             38082N 38147M 38167  38316M 38336  38416M 38436  38516M 38536  38624M 38714  38766M 38899  38987M 39070M
             39127M 39145M 39183M 39201M 39221M 39236M 39269  39274M 39290M 39331M 39379M 39403M 39425M 39467M 39519
             39834M 39838M 39844M 39860M 39860  39864M 39878M 39883M 39893M 39897M 39919  39927M 39940N 39941N 39942N
             40028M 40029M 40029N 40059M 40145M 40163M 40182M 40228M 40255  40314M 40349M 40357M 40507M 40530M 40557
             40620M 40630  40638M 40651N 40652N 40654N 40695M 40841  40889  40909  40954  41051M 41075M 41096M 41119M
             41140M 41164M 41185M 41225M 41252  41257M 41294M 41338M 41375M 41413M 41436M 41694M 42168M 42193M 42215M
             42216M 42389M 42413M 42447M 42472M 42496M 42518M 42558M 42589M 42610M 42634M 42697M 42755M 43268M 43300M
             43332M 43345M 43365M 43372M 43406M 43440M 43462M 43503M 43529  43625M 43668M 43692M 43714M 43738M 43758M
             43786M 43810M 43832M 43856M 43878M 43894M 43917M 43944M 44204M 44335M 44360M 44380M 44461M 44519M 44633
             44715M 44758M 44804M 44827M 44850M 44872M 44924M 44940M 44998M 45014M 45072M 45088M 45136M 45158M 45183M
             45207M 45228M 45252M 45272M 45303M 45351M 45373M 45398M 45422M 45443M 45467M 45487M 45518M 45583M 45607M
             45627M 45680M 45704M 45724M 45772M 45793M 45838M 45854M 45903M 45919M 45967M 45988M 46033M 46057M 46077M
             46126M 46150M 46170M 46219M 46243M 46263M 46312M 46328M 46377M 46393M 46442M 46458M 46507M 46523M 46572M
             46588M 46636M 46657M 46703M 46727M 46747M 46796M 46830M 46858M 46896M 46920M 46962M 46986M 47028M 47052M
             47094M 47114M 47164M 47180M 47229M 47245M 47294M 47318M 47338M 47386M 47407M 47470M 47488M 47507M 47575M
             47593M 47612M 47660M 47678M 47697M 47745M 47784M 47808M 47829M 47853M 47901M 47925M 47946M 47970M 48073M
             48119M 48169M 48193M 48231M 48255M 48281M 48315M 48339M 48361M 48399M 48423M 48445M 48467M 48510M 48570M
             48596M 48629M 48653M 48699M 48732M 48755M 48778M 48807M 48836M 48875M 48902M 48942M 48975M 48996M 49040M
             49097M 49178M 49202M 49272M 49296M 49366M 49481  49663M 49831  49920M 49958M 49978  50006M 50006  50063M
             50080M 50101M 50106  50120M 50146M 50172  50181M 50225M 50392M 50393M 50395  50417  50426M 50448M 50458M
             50545M 50739M 50786M 50833M 50880M 50950M 51004  51185M 51215  51282  51290M 51304N 51339M 51528  51569M
             51589  51636M 51656  51703M 51723  51777M 51797  51843M 51863  51910M 51930  51976M 51996  52043M 52063
             52109M 52129  52176M 52242  52342  52382M 52383M 52432M 52433M 52471M
     2(2)      982U  2109   7253   7749M  7783   7961M  8121   8338M  8359   8441M  8461   8526M  8546   8593M  8613
              8659M  8679   8712M  8720   8754   8755   8787   8796   8815M  8863   8935M  8935   8950   8977M  9009M
              9038   9095M  9127   9189M  9210M  9235   9283M  9308   9338M  9461M 10062  10857M 10990  11036M 11115
             11546M 11593  12072M 12349  12419M 12439  12509M 12541  12980M 13012  13050M 13055M 13059M 13153  13230
             13242M 13262  13277M 13300  13322  13334M 13356  13411M 13516  14109M 14195  14759M 14800  15585M 15626
             16700M 16803  16841M 16846M 16964M 16964  16982M 17032M 17032  17039  17115M 17192  17215M 17215  17233M
             17283M 17283  17290  17683M 17687  17689M 17697M 17707M 17707  17882  17894M 17914  17929M 18012  18029
             18062M 18229  18263  19074M 19074  19299  19379M 19488  19584M 19627  19803M 19833  19863M 19865  19873M
             19920  19975M 19997  20027M 20029  20037M 20084  20139M 20267  20349M 20369M 20389M 20421  20430M 20430
             20446M 20462M 20462  20463M 20472M 20472  20478N 20620M 20729  20853M 20922  21199M 21227  21311M 21919
             22074M 22094  22255M 22275  22436M 22456  22555M 22575  22674M 22694  22793M 22813  22983M 23003  23049M
             23069  23115M 23135  23263M 23283  23376M 23396  23523M 23543  23589M 23609  23656M 23676  23722M 23742
             23789M 23809  23861M 23881  23927M 23947  24152M 24203  24247M 24267  24308M 24369  27500M 27501M 27501
             27540  27632M 27633M 27633  27660  27714M 27715M 27715  27742  27835M 27971  28018M 28988  29149M 29169
             29330M 29369  29615M 29635  29798M 29879  29930M 29950  30001M 30021  30078M 30098  30139M 30159  30212M
             30232  30282M 30302  30355M 30407  30698M 30718  30792M 30812  30888M 30908  30990M 31010  31086M 31106
             31188M 31208  31305M 31325  31407M 31427  31524M 31562  31672M 31692  32041M 32061  32228M 32248  32597M
             32617  32816M 32836  33000M 33066  33107M 33127  33168M 33188  33353M 33449  33490M 33510  33557M 33577
             33618M 33638  33684M 33747  33846M 33867  33966M 34007  34885M 34905  35084M 35104  35259M 35279  35389M
             35409  35599M 35619  35783M 35849  35890M 35910  35951M 35971  36140M 36206  36247M 36267  36308M 36328
             36379M 36399  36509M 36529  36604M 36624  36699M 36719  36812M 36832  36942M 36962  37051M 37071  37160M
1         (RJE4072) (12:53) (15MAR04) General Purpose Register Cross Reference                                              Page  212
             37180  37336M 37422M 37564M 37584  37664M 37684  37736M 37756  37808M 37828  37880M 37900  38033M 38053
             38147M 38167  38316M 38336  38416M 38436  38516M 38536  38624M 38714  38766M 38899  39239M 39467M 39519
             40228M 40255  40530M 40557  40601M 40620  40695M 40841  41252M 41294  41338  41364M 43503M 43529  44309M
             44330M 44367M 44380  44381  44519M 44633  44772M 44790M 44850  47409M 47418M 47418  47439M 47439  47488
             47522M 47523M 47523  47544M 47544  47593  47627M 47628M 47628  47678  48615M 48617  49366M 49481  49663M
             49831  50120M 50172M 50173M 50186  50199  50200  50498D 50500M 50500  50501M 50502U 50508N 50598M 50598
             50636M 50669M 50725M 50725  50950M 51004  51185M 51215  51339M 51528  51569M 51589  51636M 51656  51703M
             51723  51777M 51797  51843M 51863  51910M 51930  51976M 51996  52043M 52063  52109M 52129  52176M 52242
             52471M
     3(3)      978U  2109   7253   7749M  7783   7961M  8121   8176M  8272   8283M  8338M  8359   8441M  8461   8526M
              8546   8593M  8613   8659M  8679   8815M  8863   8936M  8976M  9009M  9038   9095M  9127   9210M  9235
              9283M  9308   9461M 10062  10287M 10297U 10315U 10857M 10990  11036M 11115  11386M 11394U 11427U 11546M
             11593  12072M 12349  12419M 12439  12509M 12541  12619M 12630U 12642  12873U 12980M 13012  13051M 13055M
             13058M 13148  13351  13411M 13516  13949M 13957U 13990U 14109M 14195  14289M 14355  14384  14420  14434
             14457  14490  14554M 14562U 14597U 14759M 14800  15585M 15626  16045M 16056U 16068  16300U 16700M 16803
             16842M 16846M 17155M 17178M 17178  17197  17681M 17682M 18043  18061M 18258  19294  19378M 19464  19584M
             19627  19803M 19833  19975M 19997  20139M 20267  20368M 20451M 20458M 20505M 20619M 20705  20853M 20922
             20959M 20973M 20973  21000  21150M 21199M 21227  21311M 21919  22074M 22094  22255M 22275  22436M 22456
             22555M 22575  22674M 22694  22793M 22813  22983M 23003  23049M 23069  23115M 23135  23263M 23283  23376M
             23396  23523M 23543  23589M 23609  23656M 23676  23722M 23742  23789M 23809  23861M 23881  23927M 23947
             24152M 24203  24247M 24267  24308M 24369  24616M 24624U 24741U 27835M 27971  28018M 28988  29149M 29169
             29330M 29369  29615M 29635  29798M 29879  29930M 29950  30001M 30021  30078M 30098  30139M 30159  30212M
             30232  30282M 30302  30355M 30407  30698M 30718  30792M 30812  30888M 30908  30990M 31010  31086M 31106
             31188M 31208  31305M 31325  31407M 31427  31524M 31562  31672M 31692  32041M 32061  32228M 32248  32597M
             32617  32816M 32836  33000M 33066  33107M 33127  33168M 33188  33353M 33449  33490M 33510  33557M 33577
             33618M 33638  33684M 33747  33846M 33867  33966M 34007  34885M 34905  35084M 35104  35259M 35279  35389M
             35409  35599M 35619  35783M 35849  35890M 35910  35951M 35971  36140M 36206  36247M 36267  36308M 36328
             36379M 36399  36509M 36529  36604M 36624  36699M 36719  36812M 36832  36942M 36962  37051M 37071  37160M
             37180  37335M 37421M 37564M 37584  37664M 37684  37736M 37756  37808M 37828  37880M 37900  38033M 38053
             38147M 38167  38316M 38336  38416M 38436  38516M 38536  38624M 38714  38766M 38899  39467M 39519  40033D
             40035M 40035  40036M 40037U 40068D 40070M 40070  40071M 40072U 40105M 40228M 40255  40530M 40557  40695M
             40841  41253M 41281M 41281  41366M 41500M 41500  41521M 42032M 42032  42065  42077M 42081M 42090M 42090
             42097  42156  42166M 42209  42216  42224M 42233M 42233  42240  42285  42298M 42307M 42307  42314  43350
             43503M 43529  44308M 44329M 44468M 44491M 44519M 44633  49366M 49481  49663M 49831  50712M 50713M 50744
             50791  50838  50885  50950M 51004  51107M 51108M 51185M 51215  51339M 51528  51569M 51589  51636M 51656
             51703M 51723  51777M 51797  51843M 51863  51910M 51930  51976M 51996  52043M 52063  52109M 52129  52176M
             52242  52344M 52345M 52360  52380M 52434  52471M
     4(4)      974U  2109   7253   7699M  7717   7749M  7783   7961M  8121   8177M  8282M  8338M  8359   8441M  8461
              8526M  8546   8593M  8613   8659M  8679   8815M  8863   9009M  9038   9095M  9127   9210M  9235   9283M
              9308   9461M 10062  10122M 10130U 10857M 10990  11036M 11047U 11115  11546M 11593  11687M 11923B 12072M
             12349  12419M 12439  12509M 12541  12980M 13012  13052M 13055M 13411M 13516  14109M 14195  14290M 14647M
             14647  14654B 14759M 14800  15585M 15626  16700M 16803  16843M 16846M 16850M 17614M 17614  17667  17673M
             17683  17935M 17966M 18012  18029  18048  18061  18062  18063M 18203M 19360M 19372  19402M 19413M 19413
             19466M 19584M 19627  19803M 19833  19975M 19997  20139M 20267  20367M 20453M 20457M 20507M 20601M 20613
             20643M 20654M 20654  20707M 20853M 20922  20960M 21149M 21199M 21227  21311M 21919  22074M 22094  22255M
             22275  22436M 22456  22555M 22575  22674M 22694  22793M 22813  22983M 23003  23049M 23069  23115M 23135
             23263M 23283  23376M 23396  23523M 23543  23589M 23609  23656M 23676  23722M 23742  23789M 23809  23861M
             23881  23927M 23947  23973M 24125  24152M 24203  24229M 24231  24247M 24267  24308M 24369  27835M 27971
             28018M 28988  29149M 29169  29330M 29369  29615M 29635  29798M 29879  29930M 29950  30001M 30021  30078M
             30098  30139M 30159  30212M 30232  30282M 30302  30355M 30407  30698M 30718  30792M 30812  30888M 30908
             30990M 31010  31086M 31106  31188M 31208  31305M 31325  31407M 31427  31524M 31562  31672M 31692  32041M
             32061  32228M 32248  32597M 32617  32816M 32836  33000M 33066  33107M 33127  33168M 33188  33353M 33449
             33490M 33510  33557M 33577  33618M 33638  33684M 33747  33846M 33867  33966M 34007  34237M 34273M 34467
             34479M 34487M 34496M 34496  34503  34571  34591  34603M 34611M 34620M 34620  34627  34673  34710  34885M
             34905  35084M 35104  35259M 35279  35389M 35409  35599M 35619  35783M 35849  35890M 35910  35951M 35971
             36140M 36206  36247M 36267  36308M 36328  36379M 36399  36509M 36529  36604M 36624  36699M 36719  36812M
             36832  36942M 36962  37051M 37071  37160M 37180  37564M 37584  37664M 37684  37736M 37756  37808M 37828
             37880M 37900  38033M 38053  38147M 38167  38316M 38336  38416M 38436  38516M 38536  38624M 38714  38766M
             38899  39467M 39519  40228M 40255  40530M 40557  40695M 40841  41496M 43345  43503M 43529  44018M 44082M
1         (RJE4072) (12:53) (15MAR04) General Purpose Register Cross Reference                                              Page  213
             44082  44140  44467M 44489M 44519M 44633  49366M 49481  49663M 49831  49979M 49982  49994M 50057M 50057
             50108  50151  50200M 50212  50230  50253  50256M 50279M 50306M 50318  50370M 50370  50399M 50530M 50537M
             50567M 50683M 50683  50700M 50907M 50907  50950M 51004  51060M 51070U 51162U 51185M 51215  51339M 51528
             51569M 51589  51636M 51656  51703M 51723  51777M 51797  51843M 51863  51910M 51930  51976M 51996  52043M
             52063  52109M 52129  52176M 52242  52342M 52343M 52379M 52382  52432  52471M
     5(5)      970U  2109   7253   7665M  7680M  7680   7695U  7714   7717M  7723U  7749M  7783   7820M  7828U  7961M
              8121   8338M  8359   8441M  8461   8526M  8546   8593M  8613   8659M  8679   8815M  8834U  8863   8889M
              9009M  9038   9095M  9127   9210M  9235   9283M  9308   9461M 10062  10519M 10546  10857M 10990  11036M
             11115  11546M 11593  11688M 11927B 12072M 12349  12419M 12439  12509M 12541  12980M 13012  13053M 13054M
             13055M 13411M 13516  14109M 14195  14291M 14662B 14759M 14800  15585M 15626  16700M 16803  16844M 16845M
             16846M 16849M 17662  17681  18567  19584M 19627  19665  19803M 19833  19975M 19997  20139M 20267  20366M
             20452M 20456M 20506M 20853M 20922  20961M 21105  21199M 21227  21311M 21919  22074M 22094  22255M 22275
             22436M 22456  22555M 22575  22674M 22694  22793M 22813  22983M 23003  23049M 23069  23115M 23135  23263M
             23283  23376M 23396  23523M 23543  23589M 23609  23656M 23676  23722M 23742  23789M 23809  23861M 23881
             23927M 23947  24152M 24203  24247M 24267  24308M 24369  27835M 27971  28018M 28988  29149M 29169  29330M
             29369  29615M 29635  29798M 29879  29930M 29950  30001M 30021  30078M 30098  30139M 30159  30212M 30232
             30282M 30302  30355M 30407  30698M 30718  30792M 30812  30888M 30908  30990M 31010  31086M 31106  31188M
             31208  31305M 31325  31407M 31427  31524M 31562  31672M 31692  32041M 32061  32228M 32248  32597M 32617
             32816M 32836  33000M 33066  33107M 33127  33168M 33188  33353M 33449  33490M 33510  33557M 33577  33618M
             33638  33684M 33747  33846M 33867  33966M 34007  34236M 34566  34885M 34905  35084M 35104  35259M 35279
             35389M 35409  35599M 35619  35783M 35849  35890M 35910  35951M 35971  36140M 36206  36247M 36267  36308M
             36328  36379M 36399  36509M 36529  36604M 36624  36699M 36719  36812M 36832  36942M 36962  37051M 37071
             37160M 37180  37564M 37584  37664M 37684  37736M 37756  37808M 37828  37880M 37900  38033M 38053  38147M
             38167  38316M 38336  38416M 38436  38516M 38536  38624M 38714  38766M 38899  38959M 39015M 39015  39039
             39055M 39055  39145  39201  39467M 39519  40228M 40255  40530M 40557  40695M 40841  40889M 40997M 40997
             41495M 41496  41520M 41546M 41571M 41591M 41670M 41694  41759M 42652  42697  43503M 43529  43559M 43568U
             43625  44204  44250U 44519M 44633  49366M 49481  49522M 49532U 49645U 49663M 49831  49978M 50146  50173
             50181  50199M 50225  50253  50254M 50277M 50304M 50394  50397M 50528M 50537M 50545  50565M 50950M 51004
             51045M 51055U 51167U 51185M 51215  51251M 51259U 51339M 51528  51569M 51589  51636M 51656  51703M 51723
             51777M 51797  51843M 51863  51910M 51930  51976M 51996  52043M 52063  52109M 52129  52176M 52195U 52242
             52304M 52305M 52305  52360  52371  52379  52380  52471M
     6(6)      966U  2109   7253   7289M  7297U  7307   7749M  7760U  7783   7809M  7817U  7961M  8121   8338M  8359
              8441M  8461   8526M  8546   8593M  8613   8659M  8679   8815M  8827U  8863   8890M  8911U  8925M  8926M
              8926   8969   8988U  9009M  9038   9064M  9072U  9095M  9106U  9127   9210M  9235   9283M  9308   9461M
             10062  10098M 10106U 10121  10857M 10868U 10990  11036M 11115  11151M 11159U 11174  11546M 11557U 11593
             11629M 11637U 11652  12072M 12349  12419M 12439  12509M 12520U 12541  12567M 12575U 12980M 12991U 13012
             13038M 13046U 13411M 13422U 13516  13552M 13560U 13575  14109M 14120U 14195  14231M 14239U 14254  14759M
             14770U 14785U 14800  15585M 15596U 15611U 15626  16700M 16711U 16803  16829M 16837U 19584M 19595U 19605U
             19627  19803M 19833  19975M 19997  20139M 20150U 20220U 20267  20853M 20922  21199M 21227  21311M 21919
             22074M 22094  22255M 22275  22436M 22456  22555M 22575  22674M 22694  22793M 22813  22983M 23003  23049M
             23069  23115M 23135  23263M 23283  23376M 23396  23523M 23543  23589M 23609  23656M 23676  23722M 23742
             23789M 23809  23861M 23881  23927M 23947  24152M 24203  24247M 24267  24308M 24369  27835M 27971  28018M
             28988  29149M 29169  29330M 29369  29615M 29635  29798M 29879  29930M 29950  30001M 30021  30078M 30098
             30139M 30159  30212M 30232  30282M 30302  30355M 30407  30698M 30718  30792M 30812  30888M 30908  30990M
             31010  31086M 31106  31188M 31208  31305M 31325  31407M 31427  31524M 31562  31672M 31692  32041M 32061
             32228M 32248  32597M 32617  32816M 32836  33000M 33066  33107M 33127  33168M 33188  33353M 33449  33490M
             33510  33557M 33577  33618M 33638  33684M 33747  33846M 33867  33966M 34007  34885M 34905  35084M 35104
             35259M 35279  35389M 35409  35599M 35619  35783M 35849  35890M 35910  35951M 35971  36140M 36206  36247M
             36267  36308M 36328  36379M 36399  36509M 36529  36604M 36624  36699M 36719  36812M 36832  36942M 36962
             37051M 37071  37160M 37180  37564M 37584  37664M 37684  37736M 37756  37808M 37828  37880M 37900  38033M
             38053  38147M 38167  38316M 38336  38416M 38436  38516M 38536  38624M 38714  38766M 38899  39467M 39519
             40228M 40255  40530M 40557  40695M 40841  43503M 43529  44519M 44633  49366M 49458U 49481  49507M 49517U
             49650U 49663M 49831  49876U 50932U 50950M 51004  51030M 51040U 51172U 51185M 51215  51248U 51339M 51528
             51569M 51589  51636M 51656  51703M 51723  51777M 51797  51843M 51863  51910M 51930  51976M 51996  52043M
             52063  52109M 52129  52176M 52188U 52242  52287U 52453U 52471M
     7(7)      962U  2102M  2102   2103B  2109   2115B  7253   7259M  7271U  7741U  7749M  7783   7788M  7800U  7953U
              7961M  8121   8126M  8138U  8330U  8338M  8359   8364M  8376U  8433U  8441M  8461   8466M  8478U  8518U
              8526M  8546   8551M  8563U  8585U  8593M  8613   8618M  8630U  8651U  8659M  8679   8684M  8696U  8807U
              8815M  8863   8868M  8880U  9001U  9009M  9038   9043M  9055U  9087U  9095M  9127   9132M  9144U  9202U
1         (RJE4072) (12:53) (15MAR04) General Purpose Register Cross Reference                                              Page  214
              9210M  9235   9240M  9252U  9275U  9283M  9308   9313M  9325U  9453U  9461M 10062  10068M 10080U 10849U
             10857M 10990  10995M 11007U 11028U 11036M 11115  11121M 11133U 11538U 11546M 11593  11599M 11611U 12064U
             12072M 12349  12354M 12366U 12411U 12419M 12439  12444M 12456U 12501U 12509M 12541  12546M 12558U 12972U
             12980M 13012  13017M 13029U 13403U 13411M 13516  13522M 13534U 14101U 14109M 14195  14201M 14213U 14751U
             14759M 14800  14805M 14817U 15577U 15585M 15626  15631M 15643U 16692U 16700M 16803  16808M 16820U 19576U
             19584M 19627  19632M 19644U 19795U 19803M 19833  19838M 19850U 19967U 19975M 19997  20002M 20014U 20131U
             20139M 20267  20273M 20285U 20845U 20853M 20922  20928M 20940U 21191U 21199M 21227  21232M 21244U 21303U
             21311M 21919  21924M 21936U 22066U 22074M 22094  22099M 22111U 22247U 22255M 22275  22280M 22292U 22428U
             22436M 22456  22461M 22473U 22547U 22555M 22575  22580M 22592U 22666U 22674M 22694  22699M 22711U 22785U
             22793M 22813  22818M 22830U 22975U 22983M 23003  23008M 23020U 23041U 23049M 23069  23074M 23086U 23107U
             23115M 23135  23140M 23152U 23255U 23263M 23283  23288M 23300U 23368U 23376M 23396  23401M 23413U 23515U
             23523M 23543  23548M 23560U 23581U 23589M 23609  23614M 23626U 23648U 23656M 23676  23681M 23693U 23714U
             23722M 23742  23747M 23759U 23781U 23789M 23809  23814M 23826U 23853U 23861M 23881  23886M 23898U 23919U
             23927M 23947  23952M 23964U 24144U 24152M 24203  24208M 24220U 24239U 24247M 24267  24272M 24284U 24300U
             24308M 24369  24374M 24386U 27827U 27835M 27971  27976M 27988U 28010U 28018M 28988  28993M 29005U 29141U
             29149M 29169  29174M 29186U 29322U 29330M 29369  29374M 29386U 29607U 29615M 29635  29640M 29652U 29790U
             29798M 29879  29884M 29896U 29922U 29930M 29950  29955M 29967U 29993U 30001M 30021  30026M 30038U 30070U
             30078M 30098  30103M 30115U 30131U 30139M 30159  30164M 30176U 30204U 30212M 30232  30237M 30249U 30274U
             30282M 30302  30307M 30319U 30347U 30355M 30407  30412M 30424U 30690U 30698M 30718  30723M 30735U 30784U
             30792M 30812  30817M 30829U 30880U 30888M 30908  30913M 30925U 30982U 30990M 31010  31015M 31027U 31078U
             31086M 31106  31111M 31123U 31180U 31188M 31208  31213M 31225U 31297U 31305M 31325  31330M 31342U 31399U
             31407M 31427  31432M 31444U 31516U 31524M 31562  31567M 31579U 31664U 31672M 31692  31697M 31709U 32033U
             32041M 32061  32066M 32078U 32220U 32228M 32248  32253M 32265U 32589U 32597M 32617  32622M 32634U 32808U
             32816M 32836  32841M 32853U 32992U 33000M 33066  33071M 33083U 33099U 33107M 33127  33132M 33144U 33160U
             33168M 33188  33193M 33205U 33345U 33353M 33449  33454M 33466U 33482U 33490M 33510  33515M 33527U 33549U
             33557M 33577  33582M 33594U 33610U 33618M 33638  33643M 33655U 33676U 33684M 33747  33752M 33764U 33838U
             33846M 33867  33872M 33884U 33958U 33966M 34007  34013M 34025U 34877U 34885M 34905  34910M 34922U 35076U
             35084M 35104  35109M 35121U 35251U 35259M 35279  35284M 35296U 35381U 35389M 35409  35414M 35426U 35591U
             35599M 35619  35624M 35636U 35775U 35783M 35849  35854M 35866U 35882U 35890M 35910  35915M 35927U 35943U
             35951M 35971  35976M 35988U 36132U 36140M 36206  36211M 36223U 36239U 36247M 36267  36272M 36284U 36300U
             36308M 36328  36333M 36345U 36371U 36379M 36399  36404M 36416U 36501U 36509M 36529  36534M 36546U 36596U
             36604M 36624  36629M 36641U 36691U 36699M 36719  36724M 36736U 36804U 36812M 36832  36837M 36849U 36934U
             36942M 36962  36967M 36979U 37043U 37051M 37071  37076M 37088U 37152U 37160M 37180  37185M 37197U 37556U
             37564M 37584  37589M 37601U 37656U 37664M 37684  37689M 37701U 37728U 37736M 37756  37761M 37773U 37800U
             37808M 37828  37833M 37845U 37872U 37880M 37900  37905M 37917U 38025U 38033M 38053  38058M 38070U 38139U
             38147M 38167  38172M 38184U 38308U 38316M 38336  38341M 38353U 38408U 38416M 38436  38441M 38453U 38508U
             38516M 38536  38541M 38553U 38616U 38624M 38714  38719M 38731U 38758U 38766M 38899  38905M 38917U 39459U
             39467M 39519  39525M 39537U 40220U 40228M 40255  40260M 40272U 40522U 40530M 40557  40562M 40574U 40687U
             40695M 40841  40847M 40859U 43495U 43503M 43529  43534M 43546U 44511U 44519M 44633  44638M 44650U 49358U
             49366M 49481  49486M 49498U 49655U 49663M 49831  49837M 49849U 50942U 50950M 51004  51009M 51021U 51177U
             51185M 51215  51220M 51232U 51331U 51339M 51528  51533M 51545U 51561U 51569M 51589  51594M 51606U 51628U
             51636M 51656  51661M 51673U 51695U 51703M 51723  51728M 51740U 51769U 51777M 51797  51802M 51814U 51835U
             51843M 51863  51868M 51880U 51902U 51910M 51930  51935M 51947U 51968U 51976M 51996  52001M 52013U 52035U
             52043M 52063  52068M 52080U 52101U 52109M 52129  52134M 52146U 52168U 52176M 52242  52248M 52260U 52463U
             52471M
     8(8)      958U  2109   7253   7255M  7285U  7736U  7745   7749M  7783   7784M  7957   7961M  8121   8122M  8334
              8338M  8359   8360M  8437   8441M  8461   8462M  8522   8526M  8546   8547M  8589   8593M  8613   8614M
              8655   8659M  8679   8680M  8811   8815M  8863   8864M  9005   9009M  9038   9039M  9091   9095M  9127
              9128M  9206   9210M  9235   9236M  9279   9283M  9308   9309M  9457   9461M 10062  10064M 10094U 10844U
             10853  10857M 10990  10991M 11032  11036M 11115  11117M 11147U 11533U 11542  11546M 11593  11595M 11625U
             12059U 12068  12072M 12349  12350M 12415  12419M 12439  12440M 12505  12509M 12541  12542M 12976  12980M
             13012  13013M 13407  13411M 13516  13518M 13548U 14096U 14105  14109M 14195  14197M 14227U 14746U 14755
             14759M 14800  14801M 15581  15585M 15626  15627M 16696  16700M 16803  16804M 19580  19584M 19627  19628M
             19799  19803M 19833  19834M 19971  19975M 19997  19998M 20135  20139M 20267  20269M 20299U 20840U 20849
             20853M 20922  20924M 20954U 21186U 21195  21199M 21227  21228M 21307  21311M 21919  21920M 22070  22074M
             22094  22095M 22251  22255M 22275  22276M 22432  22436M 22456  22457M 22551  22555M 22575  22576M 22670
             22674M 22694  22695M 22789  22793M 22813  22814M 22979  22983M 23003  23004M 23045  23049M 23069  23070M
             23111  23115M 23135  23136M 23259  23263M 23283  23284M 23372  23376M 23396  23397M 23519  23523M 23543
             23544M 23585  23589M 23609  23610M 23652  23656M 23676  23677M 23718  23722M 23742  23743M 23785  23789M
1         (RJE4072) (12:53) (15MAR04) General Purpose Register Cross Reference                                              Page  215
             23809  23810M 23857  23861M 23881  23882M 23923  23927M 23947  23948M 24148  24152M 24203  24204M 24231N
             24243  24247M 24267  24268M 24304  24308M 24369  24370M 27831  27835M 27971  27972M 28003N 28014  28018M
             28988  28989M 29145  29149M 29169  29170M 29326  29330M 29369  29370M 29611  29615M 29635  29636M 29794
             29798M 29879  29880M 29926  29930M 29950  29951M 29997  30001M 30021  30022M 30074  30078M 30098  30099M
             30135  30139M 30159  30160M 30208  30212M 30232  30233M 30278  30282M 30302  30303M 30351  30355M 30407
             30408M 30694  30698M 30718  30719M 30788  30792M 30812  30813M 30884  30888M 30908  30909M 30986  30990M
             31010  31011M 31082  31086M 31106  31107M 31184  31188M 31208  31209M 31301  31305M 31325  31326M 31403
             31407M 31427  31428M 31520  31524M 31562  31563M 31668  31672M 31692  31693M 32037  32041M 32061  32062M
             32224  32228M 32248  32249M 32593  32597M 32617  32618M 32812  32816M 32836  32837M 32996  33000M 33066
             33067M 33103  33107M 33127  33128M 33164  33168M 33188  33189M 33349  33353M 33449  33450M 33486  33490M
             33510  33511M 33553  33557M 33577  33578M 33614  33618M 33638  33639M 33680  33684M 33747  33748M 33842
             33846M 33867  33868M 33962  33966M 34007  34009M 34039U 34872U 34881  34885M 34905  34906M 35080  35084M
             35104  35105M 35255  35259M 35279  35280M 35385  35389M 35409  35410M 35595  35599M 35619  35620M 35779
             35783M 35849  35850M 35886  35890M 35910  35911M 35947  35951M 35971  35972M 36136  36140M 36206  36207M
             36243  36247M 36267  36268M 36304  36308M 36328  36329M 36375  36379M 36399  36400M 36505  36509M 36529
             36530M 36600  36604M 36624  36625M 36695  36699M 36719  36720M 36808  36812M 36832  36833M 36938  36942M
             36962  36963M 37047  37051M 37071  37072M 37156  37160M 37180  37181M 37560  37564M 37584  37585M 37660
             37664M 37684  37685M 37732  37736M 37756  37757M 37804  37808M 37828  37829M 37876  37880M 37900  37901M
             38029  38033M 38053  38054M 38143  38147M 38167  38168M 38312  38316M 38336  38337M 38412  38416M 38436
             38437M 38512  38516M 38536  38537M 38620  38624M 38714  38715M 38762  38766M 38899  38901M 38931U 39454U
             39463  39467M 39519  39521M 39551U 40215U 40224  40228M 40255  40256M 40526  40530M 40557  40558M 40691
             40695M 40841  40843M 40873U 43490U 43499  43503M 43529  43530M 44515  44519M 44633  44634M 49362  49366M
             49481  49482M 49659  49663M 49831  49833M 49863U 50937U 50946  50950M 51004  51005M 51181  51185M 51215
             51216M 51335  51339M 51528  51529M 51565  51569M 51589  51590M 51632  51636M 51656  51657M 51699  51703M
             51723  51724M 51773  51777M 51797  51798M 51839  51843M 51863  51864M 51906  51910M 51930  51931M 51972
             51976M 51996  51997M 52039  52043M 52063  52064M 52105  52109M 52129  52130M 52172  52176M 52242  52244M
             52274U 52458U 52467  52471M
     9(9)      954U  2109
    10(A)      950U  2109
    11(B)      946U  1173U  2109
    12(C)      942U  1182U  2109
    13(D)      938U  2109   7250   7253   7255   7256M  7256   7745M  7749   7751   7780   7783   7784   7785M  7785
              7923   7924   7925   7927M  7927   7940M  7941   7942   7943   7957M  7961   7963   8118   8121   8122
              8123M  8123   8188   8189   8190   8192M  8192   8204M  8205   8206   8207   8294   8295   8296   8298M
              8298   8310M  8311   8312   8313   8334M  8338   8340   8356   8359   8360   8361M  8361   8437M  8441
              8443   8458   8461   8462   8463M  8463   8522M  8526   8528   8543   8546   8547   8548M  8548   8589M
              8593   8595   8610   8613   8614   8615M  8615   8655M  8659   8661   8676   8679   8680   8681M  8681
              8811M  8815   8817   8860   8863   8864   8865M  8865   9005M  9009   9011   9035   9038   9039   9040M
              9040   9091M  9095   9097   9124   9127   9128   9129M  9129   9206M  9210   9212   9232   9235   9236
              9237M  9237   9279M  9283   9285   9305   9308   9309   9310M  9310   9335   9336M  9336   9457M  9461
              9463  10059  10062  10064  10065M 10065  10259  10260  10261  10263M 10263  10276M 10277  10278  10279
             10420  10421  10422  10424M 10424  10437M 10438  10439  10440  10519  10520M 10520  10548M 10853M 10857
             10859  10987  10990  10991  10992M 10992  11032M 11036  11038  11112  11115  11117  11118M 11118  11278
             11279  11280  11282M 11282  11295M 11296  11297  11298  11330  11331  11332  11334M 11334  11347M 11348
             11349  11350  11542M 11546  11548  11590  11593  11595  11596M 11596  11656  11657M 11657  11684M 11685
             11710  11711  11712  11714M 11714  11727M 11728  11729  11730  11940  11941M 11941  11960M 11961  12068M
             12072  12074  12346  12349  12350  12351M 12351  12415M 12419  12421  12436  12439  12440  12441M 12441
             12505M 12509  12511  12538  12541  12542  12543M 12543  12619  12620M 12620  12867M 12976M 12980  12982
             13009  13012  13013  13014M 13014  13407M 13411  13413  13513  13516  13518  13519M 13519  13784  13785
             13786  13788M 13788  13801M 13802  13803  13804  13836  13837  13838  13840M 13840  13853M 13854  13855
             13856  14105M 14109  14111  14192  14195  14197  14198M 14198  14258  14259M 14259  14286M 14287  14518
             14519  14520  14522M 14522  14535M 14536  14537  14538  14755M 14759  14761  14797  14800  14801  14802M
             14802  15295  15296M 15296  15328M 15581M 15585  15587  15623  15626  15627  15628M 15628  16045  16046M
             16046  16294M 16696M 16700  16702  16800  16803  16804  16805M 16805  16997  16998  16999  17001M 17001
             17014M 17015  17016  17017  17115  17116M 17116  17120  17121M 17121  17124  17125M 17125  17152M 17153
             17167M 17248  17249  17250  17252M 17252  17265M 17266  17267  17268  17300M 19580M 19584  19586  19624
             19627  19628  19629M 19629  19799M 19803  19805  19830  19833  19834  19835M 19835  19865  19866M 19866
             19872M 19873  19971M 19975  19977  19994  19997  19998  19999M 19999  20029  20030M 20030  20036M 20037
             20135M 20139  20141  20264  20267  20269  20270M 20270  20849M 20853  20855  20919  20922  20924  20925M
1         (RJE4072) (12:53) (15MAR04) General Purpose Register Cross Reference                                              Page  216
             20925  21065  21066M 21066  21119M 21120  21195M 21199  21201  21224  21227  21228  21229M 21229  21307M
             21311  21313  21916  21919  21920  21921M 21921  22070M 22074  22076  22091  22094  22095  22096M 22096
             22251M 22255  22257  22272  22275  22276  22277M 22277  22432M 22436  22438  22453  22456  22457  22458M
             22458  22551M 22555  22557  22572  22575  22576  22577M 22577  22670M 22674  22676  22691  22694  22695
             22696M 22696  22789M 22793  22795  22810  22813  22814  22815M 22815  22979M 22983  22985  23000  23003
             23004  23005M 23005  23045M 23049  23051  23066  23069  23070  23071M 23071  23111M 23115  23117  23132
             23135  23136  23137M 23137  23259M 23263  23265  23280  23283  23284  23285M 23285  23372M 23376  23378
             23393  23396  23397  23398M 23398  23519M 23523  23525  23540  23543  23544  23545M 23545  23585M 23589
             23591  23606  23609  23610  23611M 23611  23652M 23656  23658  23673  23676  23677  23678M 23678  23718M
             23722  23724  23739  23742  23743  23744M 23744  23785M 23789  23791  23806  23809  23810  23811M 23811
             23857M 23861  23863  23878  23881  23882  23883M 23883  23923M 23927  23929  23944  23947  23948  23949M
             23949  23984  23985  23986  23988M 23988  24001M 24002  24003  24004  24148M 24152  24154  24200  24203
             24204  24205M 24205  24243M 24247  24249  24264  24267  24268  24269M 24269  24304M 24308  24310  24366
             24369  24370  24371M 24371  27831M 27835  27837  27968  27971  27972  27973M 27973  28014M 28018  28020
             28985  28988  28989  28990M 28990  29145M 29149  29151  29166  29169  29170  29171M 29171  29326M 29330
             29332  29366  29369  29370  29371M 29371  29611M 29615  29617  29632  29635  29636  29637M 29637  29671
             29672  29673  29675M 29675  29688M 29689  29690  29691  29794M 29798  29800  29876  29879  29880  29881M
             29881  29926M 29930  29932  29947  29950  29951  29952M 29952  29997M 30001  30003  30018  30021  30022
             30023M 30023  30074M 30078  30080  30095  30098  30099  30100M 30100  30135M 30139  30141  30156  30159
             30160  30161M 30161  30208M 30212  30214  30229  30232  30233  30234M 30234  30278M 30282  30284  30299
             30302  30303  30304M 30304  30351M 30355  30357  30404  30407  30408  30409M 30409  30514  30515  30516
             30518M 30518  30530M 30531  30532  30533  30694M 30698  30700  30715  30718  30719  30720M 30720  30788M
             30792  30794  30809  30812  30813  30814M 30814  30884M 30888  30890  30905  30908  30909  30910M 30910
             30986M 30990  30992  31007  31010  31011  31012M 31012  31082M 31086  31088  31103  31106  31107  31108M
             31108  31184M 31188  31190  31205  31208  31209  31210M 31210  31301M 31305  31307  31322  31325  31326
             31327M 31327  31403M 31407  31409  31424  31427  31428  31429M 31429  31520M 31524  31526  31559  31562
             31563  31564M 31564  31668M 31672  31674  31689  31692  31693  31694M 31694  31798  31800M 31800  31835
             31836  31837  31839M 31839  31851M 31852  31853  31854  31897  31898  31899  31901M 31901  31913M 31914
             31915  31916  31956  31957  31958  31960M 31960  31972M 31973  31974  31975  32013M 32037M 32041  32043
             32058  32061  32062  32063M 32063  32224M 32228  32230  32245  32248  32249  32250M 32250  32354  32356M
             32356  32391  32392  32393  32395M 32395  32407M 32408  32409  32410  32453  32454  32455  32457M 32457
             32469M 32470  32471  32472  32512  32513  32514  32516M 32516  32528M 32529  32530  32531  32569M 32593M
             32597  32599  32614  32617  32618  32619M 32619  32812M 32816  32818  32833  32836  32837  32838M 32838
             32878  32879  32880  32882M 32882  32895M 32896  32897  32898  32996M 33000  33002  33063  33066  33067
             33068M 33068  33103M 33107  33109  33124  33127  33128  33129M 33129  33164M 33168  33170  33185  33188
             33189  33190M 33190  33231  33232  33233  33235M 33235  33248M 33249  33250  33251  33349M 33353  33355
             33446  33449  33450  33451M 33451  33486M 33490  33492  33507  33510  33511  33512M 33512  33553M 33557
             33559  33574  33577  33578  33579M 33579  33614M 33618  33620  33635  33638  33639  33640M 33640  33680M
             33684  33686  33744  33747  33748  33749M 33749  33842M 33846  33848  33864  33867  33868  33869M 33869
             33962M 33966  33968  34004  34007  34009  34010M 34010  34054  34055  34056  34058M 34058  34068M 34069
             34070  34071  34881M 34885  34887  34902  34905  34906  34907M 34907  35080M 35084  35086  35101  35104
             35105  35106M 35106  35255M 35259  35261  35276  35279  35280  35281M 35281  35385M 35389  35391  35406
             35409  35410  35411M 35411  35595M 35599  35601  35616  35619  35620  35621M 35621  35661  35662  35663
             35665M 35665  35678M 35679  35680  35681  35779M 35783  35785  35846  35849  35850  35851M 35851  35886M
             35890  35892  35907  35910  35911  35912M 35912  35947M 35951  35953  35968  35971  35972  35973M 35973
             36018  36019  36020  36022M 36022  36035M 36036  36037  36038  36136M 36140  36142  36203  36206  36207
             36208M 36208  36243M 36247  36249  36264  36267  36268  36269M 36269  36304M 36308  36310  36325  36328
             36329  36330M 36330  36375M 36379  36381  36396  36399  36400  36401M 36401  36505M 36509  36511  36526
             36529  36530  36531M 36531  36600M 36604  36606  36621  36624  36625  36626M 36626  36695M 36699  36701
             36716  36719  36720  36721M 36721  36808M 36812  36814  36829  36832  36833  36834M 36834  36938M 36942
             36944  36959  36962  36963  36964M 36964  37047M 37051  37053  37068  37071  37072  37073M 37073  37156M
             37160  37162  37177  37180  37181  37182M 37182  37308  37310M 37310  37347  37348  37349  37351M 37351
             37363M 37364  37365  37366  37433  37434  37435  37437M 37437  37449M 37450  37451  37452  37509M 37560M
             37564  37566  37581  37584  37585  37586M 37586  37660M 37664  37666  37681  37684  37685  37686M 37686
             37732M 37736  37738  37753  37756  37757  37758M 37758  37804M 37808  37810  37825  37828  37829  37830M
             37830  37876M 37880  37882  37897  37900  37901  37902M 37902  38029M 38033  38035  38050  38053  38054
             38055M 38055  38143M 38147  38149  38164  38167  38168  38169M 38169  38312M 38316  38318  38333  38336
             38337  38338M 38338  38412M 38416  38418  38433  38436  38437  38438M 38438  38512M 38516  38518  38533
             38536  38537  38538M 38538  38620M 38624  38626  38711  38714  38715  38716M 38716  38762M 38766  38768
1         (RJE4072) (12:53) (15MAR04) General Purpose Register Cross Reference                                              Page  217
             38896  38899  38901  38902M 38902  39236  39237M 39237  39269  39270M 39270  39289M 39290  39319M 39463M
             39467  39469  39516  39519  39521  39522M 39522  39935  39936  39937  39939M 39939  39951M 39952  39953
             39954  40224M 40228  40230  40252  40255  40256  40257M 40257  40526M 40530  40532  40554  40557  40558
             40559M 40559  40601  40602M 40602  40607  40609M 40609  40646  40647  40648  40650M 40650  40663M 40664
             40665  40666  40673M 40676M 40691M 40695  40697  40838  40841  40843  40844M 40844  43499M 43503  43505
             43526  43529  43530  43531M 43531  43559  43560M 43560  44243M 44515M 44519  44521  44630  44633  44634
             44635M 44635  48615  48616M 48616  49011M 49362M 49366  49368  49478  49481  49482  49483M 49483  49659M
             49663  49665  49828  49831  49833  49834M 49834  50417  50418M 50418  50447M 50448  50946M 50950  50952
             51001  51004  51005  51006M 51006  51181M 51185  51187  51212  51215  51216  51217M 51217  51265  51267M
             51267  51298  51299  51300  51302M 51302  51313M 51314  51315  51316  51323M 51335M 51339  51341  51525
             51528  51529  51530M 51530  51565M 51569  51571  51586  51589  51590  51591M 51591  51632M 51636  51638
             51653  51656  51657  51658M 51658  51699M 51703  51705  51720  51723  51724  51725M 51725  51773M 51777
             51779  51794  51797  51798  51799M 51799  51839M 51843  51845  51860  51863  51864  51865M 51865  51906M
             51910  51912  51927  51930  51931  51932M 51932  51972M 51976  51978  51993  51996  51997  51998M 51998
             52039M 52043  52045  52060  52063  52064  52065M 52065  52105M 52109  52111  52126  52129  52130  52131M
             52131  52172M 52176  52178  52239  52242  52244  52245M 52245  52467M 52471  52473
    14(E)      934U  2109   2110M  2124   2125M  2126B  2128M  2129B  2149M  2150B  2154M  2155B  2157M  2158B  2160M
              2161B  2163M  2164B  2166M  2167M  2167B  2173   7250   7382M  7383M  7383B  7404M  7405M  7405B  7440M
              7441M  7441B  7454M  7455M  7455B  7469M  7470N  7471N  7475M  7475   7478M  7479M  7479B  7482M  7483M
              7483B  7486M  7487M  7487B  7504M  7505M  7505B  7509M  7510M  7510B  7534M  7535M  7535B  7539M  7540M
              7540B  7634M  7635M  7635B  7656M  7657M  7657B  7751M  7754B  7780   7905M  7906N  7907N  7911M  7911
              7922M  7923   7924   7925   7930M  7931   7934M  7935M  7935B  7938M  7941   7942   7943   7963M  7966B
              8118   8173M  8174M  8174B  8187M  8188   8189   8190   8198M  8199M  8199B  8202M  8205   8206   8207
              8293M  8294   8295   8296   8304M  8305M  8305B  8308M  8311   8312   8313   8340M  8343B  8356   8443M
              8446B  8458   8506M  8507M  8507B  8528M  8531B  8543   8595M  8598B  8610   8661M  8664B  8676   8720M
              8736M  8817M  8820B  8860   9011M  9014B  9035   9097M  9100B  9124   9155M  9156N  9157N  9161M  9161
              9164M  9165M  9165B  9192M  9193M  9193B  9212M  9215B  9232   9263M  9264M  9264B  9267M  9285M  9288B
              9305   9341M  9342M  9342B  9383M  9384M  9384B  9423M  9424M  9424B  9441M  9442M  9442B  9463M  9466B
             10059  10206M 10207M 10207B 10221M 10222M 10222B 10243M 10244M 10244B 10247M 10248M 10248B 10258M 10259
             10260  10261  10266M 10267  10270M 10271M 10271B 10274M 10277  10278  10279  10284M 10285M 10285B 10319M
             10320M 10320B 10340M 10341M 10341B 10385M 10386M 10386B 10419M 10420  10421  10422  10427M 10428  10431M
             10432M 10432B 10435M 10438  10439  10440  10445M 10446M 10446B 10551M 10552M 10552B 10559M 10560M 10560B
             10563M 10564M 10564B 10582M 10583M 10583B 10609M 10610M 10610B 10626M 10627M 10627B 10661M 10662M 10662B
             10689M 10690M 10690B 10717M 10718M 10718B 10752M 10753M 10753B 10760M 10761M 10761B 10825M 10826M 10826B
             10829M 10830M 10830B 10859M 10862B 10987  11038M 11041B 11112  11206M 11207M 11207B 11221M 11222M 11222B
             11230M 11231M 11231B 11247M 11248M 11248B 11266M 11267M 11267B 11277M 11278  11279  11280  11285M 11286
             11289M 11290M 11290B 11293M 11296  11297  11298  11303M 11304M 11304B 11329M 11330  11331  11332  11337M
             11338  11341M 11342M 11342B 11345M 11348  11349  11350  11355M 11356M 11356B 11364M 11365M 11365B 11384M
             11385M 11385B 11431M 11432M 11432B 11455M 11456M 11456B 11459M 11460M 11460B 11494M 11495M 11495B 11516M
             11517M 11517B 11524M 11525M 11525B 11548M 11551B 11590  11661M 11662M 11662B 11676M 11677N 11678N 11682M
             11682  11709M 11710  11711  11712  11717M 11718  11721M 11722M 11722B 11725M 11728  11729  11730  11735M
             11736M 11736B 11763M 11764M 11764B 11778M 11779M 11779B 11785M 11786M 11786B 11793M 11794M 11794B 11797M
             11798M 11798B 11815M 11816M 11816B 11833M 11834M 11834B 11851M 11852M 11852B 11871M 11872M 11872B 11876M
             11877M 11877B 11899M 11900M 11900B 11917M 11918M 11918B 11923M 11927M 11957M 11958M 11958B 11984M 11985M
             11985B 12010M 12011M 12011B 12028M 12029M 12029B 12046M 12047M 12047B 12051M 12052M 12052B 12074M 12077B
             12346  12393M 12394M 12394B 12421M 12424B 12436  12489M 12490M 12490B 12511M 12514B 12538  12646M 12647M
             12647B 12699M 12700M 12700B 12729M 12730M 12730B 12747M 12748M 12748B 12777M 12778M 12778B 12982M 12985B
             13009  13104M 13105M 13105B 13114M 13115M 13115B 13129M 13130M 13130B 13140M 13141M 13141B 13156M 13157M
             13157B 13190M 13191M 13191B 13274M 13275M 13275B 13367M 13368M 13368B 13391M 13392M 13392B 13413M 13416B
             13513  13602M 13603M 13603B 13617M 13618M 13618B 13735M 13736M 13736B 13752M 13753M 13753B 13772M 13773M
             13773B 13783M 13784  13785  13786  13791M 13792  13795M 13796M 13796B 13799M 13802  13803  13804  13809M
             13810M 13810B 13835M 13836  13837  13838  13843M 13844  13847M 13848M 13848B 13851M 13854  13855  13856
             13861M 13862M 13862B 13947M 13948M 13948B 13994M 13995M 13995B 14018M 14019M 14019B 14022M 14023M 14023B
             14057M 14058M 14058B 14079M 14080M 14080B 14087M 14088M 14088B 14111M 14114B 14192  14263M 14264M 14264B
             14278M 14279N 14280N 14284M 14284  14320M 14321M 14321B 14335M 14336M 14336B 14517M 14518  14519  14520
             14525M 14526  14529M 14530M 14530B 14533M 14536  14537  14538  14590M 14591M 14591B 14627M 14628M 14628B
             14654M 14662M 14676M 14677M 14677B 14718M 14719M 14719B 14726M 14727M 14727B 14735M 14736M 14736B 14761M
             14764B 14797  14831M 14832M 14832B 14836M 14837M 14837B 14844M 14845M 14845B 14854M 14855M 14855B 14858M
             14859M 14859B 14882M 14883M 14883B 14934M 14935M 14935B 14982M 14983M 14983B 15019M 15020M 15020B 15048M
1         (RJE4072) (12:53) (15MAR04) General Purpose Register Cross Reference                                              Page  218
             15049M 15049B 15145M 15146M 15146B 15177M 15178M 15178B 15217M 15218M 15218B 15267M 15268M 15268B 15292M
             15293M 15293B 15299M 15300M 15300B 15325M 15326M 15326B 15345M 15346M 15346B 15372M 15373M 15373B 15389M
             15390M 15390B 15416M 15417M 15417B 15449M 15450M 15450B 15477M 15478M 15478B 15494M 15495M 15495B 15516M
             15517M 15517B 15539M 15540M 15540B 15563M 15564M 15564B 15587M 15590B 15623  16072M 16073M 16073B 16125M
             16126M 16126B 16155M 16156M 16156B 16173M 16174M 16174B 16203M 16204M 16204B 16702M 16705B 16800  16948M
             16949N 16950N 16954M 16954  16996M 16997  16998  16999  17004M 17005  17008M 17009M 17009B 17012M 17015
             17016  17017  17022M 17023M 17023B 17120M 17124  17126N 17149M 17150M 17150B 17153M 17162M 17163M 17163B
             17199M 17200N 17201N 17205M 17205  17247M 17248  17249  17250  17255M 17256  17259M 17260M 17260B 17263M
             17266  17267  17268  17273M 17274M 17274B 17381M 17382M 17382B 17671M 17672M 17672B 17802M 17803M 17803B
             17842M 17843M 17843B 17926M 17927M 17927B 17982M 17983M 17983B 18059M 18060M 18060B 18123M 18124M 18124B
             18163M 18164M 18164B 18201M 18202M 18202B 18237M 18238M 18238B 18274M 18275M 18275B 18298M 18299M 18299B
             18371M 18372M 18372B 18764M 18765M 18765B 18845M 18846M 18846B 19044M 19045M 19045B 19108M 19109M 19109B
             19183M 19184M 19184B 19212M 19213M 19213B 19255M 19256M 19256B 19319M 19320M 19320B 19344M 19345M 19345B
             19353M 19354M 19354B 19441M 19442M 19442B 19519M 19520M 19520B 19562M 19563M 19563B 19586M 19589B 19624
             19655M 19656M 19656B 19683M 19684M 19684B 19701M 19702M 19702B 19735M 19736M 19736B 19757M 19758M 19758B
             19762M 19763M 19763B 19786M 19787M 19787B 19805M 19808B 19830  19869M 19870M 19870B 19896M 19897M 19897B
             19914M 19915M 19915B 19934M 19935M 19935B 19958M 19959M 19959B 19977M 19980B 19994  20033M 20034M 20034B
             20060M 20061M 20061B 20078M 20079M 20079B 20098M 20099M 20099B 20122M 20123M 20123B 20141M 20144B 20264
             20598M 20599M 20599B 20682M 20683M 20683B 20760M 20761M 20761B 20787M 20788M 20788B 20832M 20833M 20833B
             20855M 20858B 20919  20998M 20999M 20999B 21089M 21090M 21090B 21116M 21117M 21117B 21147M 21148M 21148B
             21178M 21179M 21179B 21201M 21204B 21224  21255M 21256M 21256B 21281M 21282M 21282B 21295M 21296M 21296B
             21313M 21316B 21916  21992M 21993M 21993B 22010M 22011M 22011B 22049M 22050M 22050B 22058M 22059M 22059B
             22076M 22079B 22091  22153M 22154M 22154B 22169M 22170M 22170B 22257M 22260B 22272  22334M 22335M 22335B
             22350M 22351M 22351B 22438M 22441B 22453  22531M 22532M 22532B 22557M 22560B 22572  22650M 22651M 22651B
             22676M 22679B 22691  22769M 22770M 22770B 22795M 22798B 22810  22936M 22937M 22937B 22955M 22956M 22956B
             22985M 22988B 23000  23051M 23054B 23066  23117M 23120B 23132  23265M 23268B 23280  23378M 23381B 23393
             23525M 23528B 23540  23591M 23594B 23606  23658M 23661B 23673  23724M 23727B 23739  23791M 23794B 23806
             23863M 23866B 23878  23929M 23932B 23944  23983M 23984  23985  23986  23991M 23992  23995M 23996M 23996B
             23999M 24002  24003  24004  24026M 24027N 24042N 24057N 24058N 24059  24059  24060N 24061N 24074N 24078M
             24078  24154M 24157B 24200  24249M 24252B 24264  24310M 24313B 24366  24418M 24419M 24419B 24453M 24454M
             24454B 24510M 24511M 24511B 24545M 24546M 24546B 24573M 24574M 24574B 24596M 24597M 24597B 24614M 24615M
             24615B 24651M 24652M 24652B 24686M 24687M 24687B 24713M 24714M 24714B 24734M 24735M 24735B 24788M 24789M
             24789B 24826M 24827M 24827B 24873M 24874M 24874B 24930M 24931M 24931B 24967M 24968M 24968B 24995M 24996M
             24996B 25066M 25067M 25067B 25101M 25102M 25102B 25129M 25130M 25130B 25168M 25169M 25169B 25195M 25196M
             25196B 25249M 25250M 25250B 25277M 25278M 25278B 25316M 25317M 25317B 25344M 25345M 25345B 25397M 25398M
             25398B 25425M 25426M 25426B 25463M 25464M 25464B 25491M 25492M 25492B 25548M 25549M 25549B 25576M 25577M
             25577B 25652M 25653M 25653B 25701M 25702M 25702B 25734M 25735M 25735B 25762M 25763M 25763B 25804M 25805M
             25805B 25832M 25833M 25833B 25870M 25871M 25871B 25898M 25899M 25899B 25959M 25960M 25960B 26008M 26009M
             26009B 26041M 26042M 26042B 26069M 26070M 26070B 26127M 26128M 26128B 26197M 26198M 26198B 26249M 26250M
             26250B 26297M 26298M 26298B 26345M 26346M 26346B 26387M 26388M 26388B 26425M 26426M 26426B 26463M 26464M
             26464B 26515M 26516M 26516B 26553M 26554M 26554B 26587M 26588M 26588B 26619M 26620M 26620B 26653M 26654M
             26654B 26681M 26682M 26682B 26719M 26720M 26720B 26747M 26748M 26748B 26785M 26786M 26786B 26813M 26814M
             26814B 26851M 26852M 26852B 26879M 26880M 26880B 26917M 26918M 26918B 26955M 26956M 26956B 26993M 26994M
             26994B 27031M 27032M 27032B 27069M 27070M 27070B 27107M 27108M 27108B 27135M 27136M 27136B 27173M 27174M
             27174B 27201M 27202M 27202B 27239M 27240M 27240B 27277M 27278M 27278B 27317M 27318M 27318B 27337M 27338M
             27338B 27361M 27362M 27362B 27401M 27402M 27402B 27441M 27442M 27442B 27461M 27462M 27462B 27485M 27486M
             27486B 27534M 27535M 27535B 27555M 27556M 27556B 27579M 27580M 27580B 27613M 27614M 27614B 27654M 27655M
             27655B 27675M 27676M 27676B 27699M 27700M 27700B 27736M 27737M 27737B 27757M 27758M 27758B 27781M 27782M
             27782B 27810M 27811M 27811B 27837M 27840B 27968  28000M 28001M 28001B 28020M 28023B 28985  29034M 29035M
             29035B 29082M 29083M 29083B 29117M 29118M 29118B 29151M 29154B 29166  29215M 29216M 29216B 29263M 29264M
             29264B 29298M 29299M 29299B 29332M 29335B 29366  29401M 29402M 29402B 29423M 29424M 29424B 29450M 29451M
             29451B 29470M 29471M 29471B 29509M 29510M 29510B 29617M 29620B 29632  29670M 29671  29672  29673  29678M
             29679  29682M 29683M 29683B 29686M 29689  29690  29691  29723M 29724N 29739N 29754N 29755N 29756  29756
             29757N 29758N 29771N 29775M 29775  29800M 29803B 29876  29932M 29935B 29947  30003M 30006B 30018  30080M
             30083B 30095  30141M 30144B 30156  30214M 30217B 30229  30284M 30287B 30299  30357M 30360B 30404  30513M
             30514  30515  30516  30524M 30525M 30525B 30528M 30531  30532  30533  30621M 30622N 30637N 30652N 30653N
             30654  30654  30655N 30656N 30669N 30673M 30673  30700M 30703B 30715  30768M 30769M 30769B 30794M 30797B
             30809  30890M 30893B 30905  30992M 30995B 31007  31088M 31091B 31103  31190M 31193B 31205  31307M 31310B
             31322  31409M 31412B 31424  31526M 31529B 31559  31608M 31609M 31609B 31674M 31677B 31689  31778M 31779M
1         (RJE4072) (12:53) (15MAR04) General Purpose Register Cross Reference                                              Page  219
             31779B 31797M 31798  31818M 31819N 31820N 31824M 31824  31834M 31835  31836  31837  31845M 31846M 31846B
             31849M 31852  31853  31854  31859M 31860M 31860B 31885M 31886M 31886B 31896M 31897  31898  31899  31907M
             31908M 31908B 31911M 31914  31915  31916  31921M 31922M 31922B 31944M 31945M 31945B 31955M 31956  31957
             31958  31966M 31967M 31967B 31970M 31973  31974  31975  31980M 31981M 31981B 31999M 32000M 32000B 32011M
             32014  32043M 32046B 32058  32202M 32203M 32203B 32230M 32233B 32245  32334M 32335M 32335B 32353M 32354
             32374M 32375N 32376N 32380M 32380  32390M 32391  32392  32393  32401M 32402M 32402B 32405M 32408  32409
             32410  32415M 32416M 32416B 32441M 32442M 32442B 32452M 32453  32454  32455  32463M 32464M 32464B 32467M
             32470  32471  32472  32477M 32478M 32478B 32500M 32501M 32501B 32511M 32512  32513  32514  32522M 32523M
             32523B 32526M 32529  32530  32531  32536M 32537M 32537B 32555M 32556M 32556B 32567M 32570  32599M 32602B
             32614  32790M 32791M 32791B 32818M 32821B 32833  32877M 32878  32879  32880  32885M 32886  32889M 32890M
             32890B 32893M 32896  32897  32898  32903M 32904M 32904B 32925M 32926N 32941N 32956N 32957N 32958  32958
             32959N 32960N 32973N 32977M 32977  33002M 33005B 33063  33109M 33112B 33124  33170M 33173B 33185  33230M
             33231  33232  33233  33238M 33239  33242M 33243M 33243B 33246M 33249  33250  33251  33256M 33257M 33257B
             33278M 33279N 33294N 33309N 33310N 33311  33311  33312N 33313N 33326N 33330M 33330  33355M 33358B 33446
             33492M 33495B 33507  33559M 33562B 33574  33620M 33623B 33635  33686M 33689B 33744  33822M 33823M 33823B
             33848M 33851B 33864  33942M 33943M 33943B 33968M 33971B 34004  34053M 34054  34055  34056  34062M 34063M
             34063B 34066M 34069  34070  34071  34076M 34077M 34077B 34123M 34124M 34124B 34388M 34389M 34389B 34427M
             34428M 34428B 34445M 34446M 34446B 34575M 34576M 34576B 34719M 34720M 34720B 34772M 34773M 34773B 34887M
             34890B 34902  34965M 34966M 34966B 34990M 34991M 34991B 35016M 35017M 35017B 35060M 35061M 35061B 35086M
             35089B 35101  35150M 35151M 35151B 35224M 35225M 35225B 35261M 35264B 35276  35325M 35326M 35326B 35391M
             35394B 35406  35455M 35456M 35456B 35531M 35532M 35532B 35601M 35604B 35616  35660M 35661  35662  35663
             35668M 35669  35672M 35673M 35673B 35676M 35679  35680  35681  35686M 35687M 35687B 35708M 35709N 35724N
             35739N 35740N 35741  35741  35742N 35743N 35756N 35760M 35760  35785M 35788B 35846  35892M 35895B 35907
             35953M 35956B 35968  36017M 36018  36019  36020  36025M 36026  36029M 36030M 36030B 36033M 36036  36037
             36038  36043M 36044M 36044B 36065M 36066N 36081N 36096N 36097N 36098  36098  36099N 36100N 36113N 36117M
             36117  36142M 36145B 36203  36249M 36252B 36264  36310M 36313B 36325  36381M 36384B 36396  36445M 36446M
             36446B 36511M 36514B 36526  36606M 36609B 36621  36701M 36704B 36716  36814M 36817B 36829  36878M 36879M
             36879B 36944M 36947B 36959  37053M 37056B 37068  37162M 37165B 37177  37279M 37280M 37280B 37307M 37308
             37328M 37329N 37330N 37334M 37334  37346M 37347  37348  37349  37357M 37358M 37358B 37361M 37364  37365
             37366  37371M 37372M 37372B 37410M 37411M 37411B 37432M 37433  37434  37435  37443M 37444M 37444B 37447M
             37450  37451  37452  37457M 37458M 37458B 37507M 37510  37566M 37569B 37581  37666M 37669B 37681  37716M
             37717M 37717B 37738M 37741B 37753  37788M 37789M 37789B 37810M 37813B 37825  37860M 37861M 37861B 37882M
             37885B 37897  37946M 37947M 37947B 38035M 38038B 38050  38103M 38104M 38104B 38123M 38124M 38124B 38149M
             38152B 38164  38257M 38258M 38258B 38318M 38321B 38333  38418M 38421B 38433  38518M 38521B 38533  38626M
             38629B 38711  38768M 38771B 38896  38953M 38954M 38954B 38957M 38958M 38958B 38999M 39000M 39000B 39086M
             39087M 39087B 39139M 39140M 39140B 39160M 39161M 39161B 39195M 39196M 39196B 39216M 39217M 39217B 39233M
             39234M 39234B 39242M 39243M 39243B 39286M 39287M 39287B 39312M 39313M 39313B 39340M 39341M 39341B 39391M
             39392M 39392B 39419M 39420M 39420B 39437M 39438M 39438B 39469M 39472B 39516  39575M 39576M 39576B 39662M
             39663M 39663B 39727M 39728M 39728B 39750M 39751M 39751B 39821M 39822M 39822B 39827M 39828M 39828B 39918M
             39919N 39920N 39924M 39924  39934M 39935  39936  39937  39945M 39946M 39946B 39949M 39952  39953  39954
             40062M 40063M 40063B 40157M 40158M 40158B 40175M 40176M 40176B 40230M 40233B 40252  40532M 40535B 40554
             40606M 40607  40629M 40630N 40631N 40635M 40635  40645M 40646  40647  40648  40653M 40654  40657M 40658M
             40658B 40661M 40664  40665  40666  40671M 40674  40697M 40700B 40838  40887M 40888M 40888B 41040M 41041M
             41041B 41063M 41064M 41064B 41091M 41092M 41092B 41108M 41109M 41109B 41135M 41136M 41136B 41152M 41153M
             41153B 41180M 41181M 41181B 41197M 41198M 41198B 41233M 41234M 41234B 41269M 41270M 41270B 41312M 41313M
             41313B 41356M 41357M 41357B 41387M 41388M 41388B 41425M 41426M 41426B 41452M 41453M 41453B 42021M 42022M
             42022B 42401M 42402M 42402B 42429M 42430M 42430B 42455M 42456M 42456B 42459M 42460M 42460B 42484M 42485M
             42485B 42512M 42513M 42513B 42530M 42531M 42531B 42574M 42575M 42575B 42605M 42606M 42606B 42622M 42623M
             42623B 42650M 42651M 42651B 42712M 42713M 42713B 42743M 42744M 42744B 42771M 42772M 42772B 42795M 42796M
             42796B 43296M 43297M 43297B 43328M 43329M 43329B 43361M 43362M 43362B 43400M 43401M 43401B 43418M 43419M
             43419B 43452M 43453M 43453B 43474M 43475M 43475B 43479M 43480M 43480B 43505M 43508B 43526  43628M 43629M
             43629B 43680M 43681M 43681B 43708M 43709M 43709B 43726M 43727M 43727B 43754M 43755M 43755B 43798M 43799M
             43799B 43826M 43827M 43827B 43844M 43845M 43845B 43872M 43873M 43873B 43890M 43891M 43891B 44208M 44209M
             44209B 44464M 44465M 44465B 44521M 44524B 44630  44753M 44754M 44754B 44770M 44771M 44771B 44822M 44823M
             44823B 44839M 44840M 44840B 44868M 44869M 44869B 44919M 44920M 44920B 44936M 44937M 44937B 44993M 44994M
             44994B 45010M 45011M 45011B 45067M 45068M 45068B 45084M 45085M 45085B 45131M 45132M 45132B 45148M 45149M
             45149B 45195M 45196M 45196B 45223M 45224M 45224B 45240M 45241M 45241B 45268M 45269M 45269B 45299M 45300M
             45300B 45346M 45347M 45347B 45363M 45364M 45364B 45410M 45411M 45411B 45438M 45439M 45439B 45455M 45456M
             45456B 45483M 45484M 45484B 45514M 45515M 45515B 45578M 45579M 45579B 45595M 45596M 45596B 45623M 45624M
1         (RJE4072) (12:53) (15MAR04) General Purpose Register Cross Reference                                              Page  220
             45624B 45675M 45676M 45676B 45692M 45693M 45693B 45720M 45721M 45721B 45766M 45767M 45767B 45784M 45785M
             45785B 45833M 45834M 45834B 45850M 45851M 45851B 45898M 45899M 45899B 45915M 45916M 45916B 45961M 45962M
             45962B 45979M 45980M 45980B 46028M 46029M 46029B 46045M 46046M 46046B 46073M 46074M 46074B 46121M 46122M
             46122B 46138M 46139M 46139B 46166M 46167M 46167B 46214M 46215M 46215B 46231M 46232M 46232B 46259M 46260M
             46260B 46307M 46308M 46308B 46324M 46325M 46325B 46372M 46373M 46373B 46389M 46390M 46390B 46437M 46438M
             46438B 46454M 46455M 46455B 46502M 46503M 46503B 46519M 46520M 46520B 46567M 46568M 46568B 46584M 46585M
             46585B 46630M 46631M 46631B 46648M 46649M 46649B 46698M 46699M 46699B 46715M 46716M 46716B 46743M 46744M
             46744B 46791M 46792M 46792B 46808M 46809M 46809B 46842M 46843M 46843B 46874M 46875M 46875B 46908M 46909M
             46909B 46936M 46937M 46937B 46974M 46975M 46975B 47002M 47003M 47003B 47040M 47041M 47041B 47068M 47069M
             47069B 47106M 47107M 47107B 47159M 47160M 47160B 47176M 47177M 47177B 47224M 47225M 47225B 47241M 47242M
             47242B 47289M 47290M 47290B 47306M 47307M 47307B 47334M 47335M 47335B 47380M 47381M 47381B 47398M 47399M
             47399B 47465M 47466M 47466B 47482M 47483M 47483B 47503M 47504M 47504B 47570M 47571M 47571B 47587M 47588M
             47588B 47608M 47609M 47609B 47655M 47656M 47656B 47672M 47673M 47673B 47693M 47694M 47694B 47739M 47740M
             47740B 47757M 47758M 47758B 47796M 47797M 47797B 47824M 47825M 47825B 47841M 47842M 47842B 47871M 47872M
             47872B 47895M 47896M 47896B 47913M 47914M 47914B 47941M 47942M 47942B 47958M 47959M 47959B 47988M 47989M
             47989B 48012M 48013M 48013B 48085M 48086M 48086B 48131M 48132M 48132B 48181M 48182M 48182B 48209M 48210M
             48210B 48243M 48244M 48244B 48271M 48272M 48272B 48293M 48294M 48294B 48327M 48328M 48328B 48355M 48356M
             48356B 48373M 48374M 48374B 48411M 48412M 48412B 48439M 48440M 48440B 48457M 48458M 48458B 48479M 48480M
             48480B 48526M 48527M 48527B 48586M 48587M 48587B 48608M 48609M 48609B 48620M 48621M 48621B 48624M 48625M
             48625B 48641M 48642M 48642B 48671M 48672M 48672B 48717M 48718M 48718B 48750M 48751M 48751B 48767M 48768M
             48768B 48796M 48797M 48797B 48825M 48826M 48826B 48846M 48847M 48847B 48890M 48891M 48891B 48920M 48921M
             48921B 48954M 48955M 48955B 48987M 48988M 48988B 49008M 49009M 49009B 49056M 49057M 49057B 49113M 49114M
             49114B 49141M 49142M 49142B 49190M 49191M 49191B 49218M 49219M 49219B 49242M 49243M 49243B 49284M 49285M
             49285B 49312M 49313M 49313B 49336M 49337M 49337B 49368M 49371B 49478  49575M 49576M 49576B 49608M 49609M
             49609B 49628M 49629M 49629B 49665M 49668B 49828  49907M 49908M 49908B 50024M 50025M 50025B 50039M 50040M
             50040B 50162M 50163M 50163B 50197M 50198M 50198B 50241M 50242M 50242B 50444M 50445M 50445B 50473M 50474M
             50474B 50486M 50487M 50487B 50563M 50564M 50564B 50747M 50748M 50748B 50751M 50752M 50752B 50794M 50795M
             50795B 50798M 50799M 50799B 50841M 50842M 50842B 50845M 50846M 50846B 50888M 50889M 50889B 50892M 50893M
             50893B 50952M 50955B 51001  51187M 51190B 51212  51264M 51265  51281M 51282N 51283N 51287M 51287  51297M
             51298  51299  51300  51303M 51304  51307M 51308M 51308B 51311M 51314  51315  51316  51321M 51324  51341M
             51344B 51525  51571M 51574B 51586  51638M 51641B 51653  51705M 51708B 51720  51779M 51782B 51794  51845M
             51848B 51860  51912M 51915B 51927  51978M 51981B 51993  52045M 52048B 52060  52111M 52114B 52126  52178M
             52181B 52239  52375M 52376M 52376B 52445M 52446M 52446B 52473M 52476B
    15(F)      930U  2109   7379M  7401M  7519M  7519   7631M  7653M  7753M  7753   7850M  7854M  7863M  7863   7870
              7944M  7944   7965M  7965   8156M  8208M  8208   8221M  8221   8314M  8314   8323M  8323   8342M  8342
              8445M  8445   8489M  8511M  8511   8530M  8530   8597M  8597   8663M  8663   8727M  8735   8736M  8771M
              8781U  8794U  8819M  8819   8889   8895M  8895   8969M  9013M  9013   9064   9099M  9099   9214M  9214
              9287M  9287   9380M  9420M  9438M  9465M  9465  10203M 10218M 10280M 10280  10441M 10441  10546M 10579M
             10606M 10623M 10658M 10686M 10714M 10749M 10822M 10861M 10861  11040M 11040  11203M 11218M 11299M 11299
             11351M 11351  11441M 11441  11550M 11550  11688  11731M 11731  11760M 11775M 11812M 11830M 11848M 11868M
             11896M 11914M 11922M 11954M 11981M 12007M 12025M 12043M 12076M 12076  12423M 12423  12513M 12513  12696M
             12726M 12744M 12774M 12984M 12984  13181M 13181  13364M 13388M 13415M 13415  13599M 13614M 13805M 13805
             13857M 13857  14004M 14004  14113M 14113  14291  14317M 14332M 14539M 14539  14548M 14548  14587M 14653M
             14763M 14763  14849M 14850M 14851  14879M 14931M 14979M 15016M 15045M 15142M 15174M 15214M 15264M 15295M
             15322M 15342M 15369M 15386M 15413M 15446M 15474M 15491M 15513M 15560M 15589M 15589  15655M 15655  15675M
             15696M 15712  15719  16122M 16152M 16170M 16200M 16704M 16704  17018M 17018  17124  17146M 17153M 17269M
             17269  17668M 17799M 17839M 17979M 18056M 18120M 18160M 18198M 18271M 18295M 18303M 18304M 18305  18333M
             18334M 18335  18362  18761M 18842M 19041M 19105M 19209M 19252M 19316M 19438M 19516M 19524M 19525M 19526
             19553  19588M 19588  19680M 19698M 19732M 19754M 19783M 19807M 19807  19893M 19911M 19920M 19955M 19979M
             19979  20057M 20075M 20084M 20119M 20143M 20143  20328M 20340M 20342  20478M 20595M 20679M 20757M 20784M
             20829M 20857M 20857  20961  20983M 21023M 21024M 21024  21040M 21040  21045M 21046M 21058  21086M 21113M
             21144M 21175M 21203M 21203  21278M 21292M 21315M 21315  21989M 22007M 22046M 22078M 22078  22194M 22198M
             22207M 22207  22214  22240M 22240  22259M 22259  22375M 22379M 22388M 22388  22395  22421M 22421  22440M
             22440  22514M 22540M 22540  22559M 22559  22633M 22659M 22659  22678M 22678  22752M 22778M 22778  22797M
             22797  22919M 22968M 22968  22987M 22987  23053M 23053  23119M 23119  23248M 23248  23267M 23267  23361M
             23361  23380M 23380  23508M 23508  23527M 23527  23593M 23593  23660M 23660  23726M 23726  23793M 23793
             23865M 23865  23931M 23931  24005M 24005  24017  24027M 24036M 24036  24042M 24051M 24051  24057M 24058M
             24060M 24061  24073M 24073  24074  24137M 24137  24156M 24156  24232M 24251M 24251  24293M 24312M 24312
             24415M 24450M 24507M 24542M 24570M 24611M 24648M 24683M 24710M 24731M 24785M 24823M 24870M 24927M 24964M
1         (RJE4072) (12:53) (15MAR04) General Purpose Register Cross Reference                                              Page  221
             24992M 25063M 25098M 25126M 25165M 25192M 25246M 25274M 25313M 25341M 25394M 25422M 25460M 25488M 25545M
             25573M 25649M 25698M 25731M 25759M 25801M 25829M 25867M 25895M 25956M 26005M 26038M 26066M 26124M 26194M
             26246M 26294M 26342M 26384M 26422M 26460M 26512M 26550M 26584M 26616M 26650M 26678M 26716M 26744M 26782M
             26810M 26848M 26876M 26914M 26952M 26990M 27028M 27066M 27104M 27132M 27170M 27198M 27236M 27274M 27314M
             27334M 27358M 27398M 27438M 27458M 27482M 27531M 27552M 27576M 27610M 27651M 27672M 27696M 27733M 27754M
             27778M 27807M 27839M 27839  28022M 28022  29114M 29134M 29134  29153M 29153  29295M 29315M 29315  29334M
             29334  29429M 29506M 29553M 29558M 29567M 29567  29574  29600M 29600  29619M 29619  29692M 29692  29704
             29724M 29733M 29733  29739M 29748M 29748  29754M 29755M 29757M 29758  29770M 29770  29771  29783M 29783
             29802M 29802  29915M 29934M 29934  29986M 30005M 30005  30063M 30082M 30082  30124M 30143M 30143  30216M
             30216  30286M 30286  30359M 30359  30534M 30534  30622M 30631M 30631  30637M 30646M 30646  30652M 30653M
             30655M 30656  30668M 30668  30669  30683M 30683  30702M 30702  30749M 30759  30777M 30777  30796M 30796
             30892M 30892  30994M 30994  31090M 31090  31192M 31192  31309M 31309  31411M 31411  31528M 31528  31657M
             31657  31676M 31676  31720M 31721M 31721N 31855M 31855  31863M 31864M 31864N 31917M 31917  31925M 31926M
             31926N 31976M 31976  32026M 32026  32045M 32045  32187  32199M 32232M 32232  32276M 32277M 32277N 32411M
             32411  32419M 32420M 32420N 32473M 32473  32481M 32482M 32482N 32532M 32532  32582M 32582  32601M 32601
             32775  32787M 32820M 32820  32899M 32899  32916  32926M 32935M 32935  32941M 32950M 32950  32956M 32957M
             32959M 32960  32972M 32972  32973  32985M 32985  33004M 33004  33092M 33111M 33111  33153M 33172M 33172
             33252M 33252  33269  33279M 33288M 33288  33294M 33303M 33303  33309M 33310M 33312M 33313  33325M 33325
             33326  33338M 33338  33357M 33357  33475M 33494M 33494  33542M 33561M 33561  33603M 33622M 33622  33688M
             33688  33805M 33831M 33831  33850M 33850  33925M 33951M 33951  33970M 33970  34072M 34072  34106M 34172M
             34175  34187M 34195M 34204M 34204  34211  34295M 34296M 34297M 34326M 34329  34341M 34349M 34358M 34358
             34365  34424M 34442M 34572M 34865M 34865  34889M 34889  35069M 35069  35088M 35088  35221M 35244M 35244
             35263M 35263  35374M 35374  35393M 35393  35463M 35464M 35464N 35528M 35584M 35584  35603M 35603  35682M
             35682  35699  35709M 35718M 35718  35724M 35733M 35733  35739M 35740M 35742M 35743  35755M 35755  35756
             35768M 35768  35787M 35787  35875M 35894M 35894  35936M 35955M 35955  36039M 36039  36056  36066M 36075M
             36075  36081M 36090M 36090  36096M 36097M 36099M 36100  36112M 36112  36113  36125M 36125  36144M 36144
             36232M 36251M 36251  36293M 36312M 36312  36383M 36383  36494M 36494  36513M 36513  36608M 36608  36703M
             36703  36797M 36797  36816M 36816  36927M 36927  36946M 36946  37055M 37055  37164M 37164  37287M 37288M
             37288N 37367M 37367  37418M 37419M 37419N 37453M 37453  37549M 37549  37568M 37568  37668M 37668  37721M
             37721  37740M 37740  37793M 37793  37812M 37812  37865M 37865  37884M 37884  38018M 38018  38037M 38037
             38132M 38132  38151M 38151  38195M 38196M 38196N 38301M 38301  38320M 38320  38420M 38420  38520M 38520
             38628M 38628  38743M 38744M 38745  38770M 38770  38959  38996M 39083M 39136M 39157M 39192M 39213M 39230M
             39283M 39309M 39337M 39350M 39350  39388M 39416M 39434M 39471M 39471  39955M 39955  39964M 39964  40154M
             40172M 40193M 40193  40196M 40207M 40232M 40232  40534M 40534  40667M 40667  40699M 40699  40909M 40910M
             40912M 40948M 41060M 41088M 41105M 41132M 41149M 41177M 41194M 41266M 41309M 41353M 41384M 41422M 41449M
             41992M 41993M 41995  42172M 42172  42194M 42209  42398M 42426M 42481M 42509M 42527M 42571M 42602M 42619M
             42647M 42667M 42668M 42680  42709M 42740M 42768M 42792M 43293M 43325M 43358M 43397M 43415M 43449M 43471M
             43507M 43507  43677M 43705M 43723M 43751M 43795M 43823M 43841M 43869M 43887M 44011M 44012M 44013  44014M
             44015M 44016  44076M 44077M 44078  44135D 44137M 44137  44138M 44139U 44140M 44156M 44156  44161  44165M
             44166M 44167  44179  44339M 44339  44361M 44367  44381M 44389M 44398M 44398  44405  44445D 44447M 44447
             44448M 44449U 44469M 44492M 44523M 44523  44750M 44767M 44819M 44836M 44865M 44916M 44933M 44990M 45007M
             45064M 45081M 45128M 45145M 45192M 45220M 45237M 45265M 45296M 45343M 45360M 45407M 45435M 45452M 45480M
             45511M 45575M 45592M 45620M 45672M 45689M 45717M 45763M 45781M 45830M 45847M 45895M 45912M 45958M 45976M
             46025M 46042M 46070M 46118M 46135M 46163M 46211M 46228M 46256M 46304M 46321M 46369M 46386M 46434M 46451M
             46499M 46516M 46564M 46581M 46627M 46645M 46695M 46712M 46740M 46788M 46805M 46839M 46871M 46905M 46933M
             46971M 46999M 47037M 47065M 47103M 47156M 47173M 47221M 47238M 47286M 47303M 47331M 47377M 47395M 47462M
             47479M 47500M 47567M 47584M 47605M 47652M 47669M 47690M 47736M 47754M 47793M 47821M 47838M 47868M 47892M
             47910M 47938M 47955M 47985M 48009M 48082M 48128M 48178M 48206M 48240M 48268M 48290M 48324M 48352M 48370M
             48408M 48436M 48454M 48476M 48523M 48583M 48605M 48617M 48638M 48668M 48714M 48747M 48764M 48793M 48822M
             48859  48866M 48875  48887M 48917M 48951M 48984M 49005M 49053M 49110M 49138M 49187M 49215M 49239M 49281M
             49309M 49333M 49370M 49370  49522  49667M 49667  50021M 50036M 50041M 50042  50108M 50111M 50113  50159M
             50194M 50238M 50441M 50470M 50483M 50505D 50507M 50507  50508M 50509U 50518M 50518  50560M 50954M 50954
             51045  51109M 51113M 51122M 51122  51129  51189M 51189  51251  51317M 51317  51343M 51343  51554M 51573M
             51573  51640M 51640  51707M 51707  51781M 51781  51847M 51847  51914M 51914  51980M 51980  52047M 52047
             52113M 52113  52180M 52180  52318M 52335M 52340  52384M 52388M 52397M 52397  52404  52475M 52475

1RJE      (RJE4072) (12:53) (15MAR04) Diagnostic Cross Reference and Assembler Summary                                      Page  222
-                                                                                            HLASM R4.0  2004/03/15 12.53
0     No Statements Flagged in this Assembly
 HIGH LEVEL ASSEMBLER, 5696-234, RELEASE 4.0, PTF P72483
0SYSTEM: OS/390 02.10.00            JOBNAME: WYL#RJE     STEPNAME: ASM        PROCSTEP: (NOPROC)
0Datasets Allocated for this Assembly
  Con DDname   Dataset Name                                 Volume  Member
   P1 SYSIN    WYL.GS.WYL.WYLBUR.SOURCE                     SYSB05  RJE
   L1 SYSLIB   WYL.GS.WYL.WYLBUR.MACLIB                     SYSB05
   L2          WYL.GG.SYS.MACLIB                            SYSB05
   L3          SYS3.IS.MACLIB                               SYSB05
   L4          SYS3.MACLIB                                  SYSB02
   L5          SYS1.MACLIB                                  MVSBR9
   L6          SYS1.MODGEN                                  MVSBR9
      SYSPRINT SYS04075.T125333.RA000.WYL#RJE.PRINT.H01     SCR100
      SYSTERM  GG$SLP.WYL#RJE.JOB03559.D0000101.?

    3668K allocated to Buffer Pool,         6581K would be required for this to be an In-Storage Assembly
    4271 Primary Input Records Read        12750 Library Records Read                690 Work File Reads
       0 ASMAOPT Records Read              26788 Primary Print Records Written       732 Work File Writes
       0 Punch Records Written                 0 ADATA Records Written
0Assembly Start Time: 12.53.34 Stop Time: 12.53.58 Processor Time: 00.00.11.1236
 Return Code 000
