1                        J E S 2  J O B  L O G  --  S Y S T E M  S Y S B  --  N O D E  R L G
0
 12.46.44 JOB03532 ---- MONDAY,    15 MAR 2004 ----
 12.46.44 JOB03532  ICH70001I GG$SLP   LAST ACCESS AT 12:46:34 ON MONDAY, MARCH 15, 2004
 12.46.44 JOB03532  $HASP373 WYL#INIT STARTED - INIT 6    - CLASS B - SYS SYSB
 12.46.44 JOB03532  ***  HCMD      STEP $$QUIET
 12.46.44 JOB03532  PUR * Q OUT MUL
 12.46.44 JOB03532  JOB 5978 WYL#INIT WILL BE PURGED
 12.46.45 JOB03532  WYL#INIT.$$QUIET .         RC=Zero TapeIO=0000 DiskIO=0000 CPU=  .01s Elapsed= 4.35s
 12.47.00 JOB03532  WYL#INIT.ASM     .         RC=Zero TapeIO=0000 DiskIO=0999 CPU= 4.68s Elapsed= 5.44s
 12.47.02 JOB03532  WYL#INIT.EDIT    .         RC=Zero TapeIO=0000 DiskIO=0162 CPU=  .51s Elapsed=20.94s
 12.47.02 JOB03532  WYL#INIT Ended.  Name=Assemble INIT                  Total CPU= 5.20s Elapsed= 4.35s
 12.47.02 JOB03532
 12.47.02 JOB03532  Execution charges   Priority=Standard   Block=Day
 12.47.02 JOB03532
 12.47.02 JOB03532  CPU Usage          95.25          $59.05   Standard Processing Unit Equivalent
 12.47.02 JOB03532                                   =======
 12.47.02 JOB03532                                    $59.05   Total Job execution charge
 12.47.02 JOB03532
 12.47.02 JOB03532  See back separator page for print charges
 12.47.02 JOB03532
 12.47.02 JOB03532  $HASP395 WYL#INIT ENDED  ASM=0, EDIT=0
1        1 //WYL#INIT JOB SLP$GG,'Assemble INIT',TIME=4,REGION=4M                  JOB03532
           //*
           /*JOBPARM LINES=99,COPIES=1
           /*JOBPARM FORMS=3HOL,PFORMAT=LAND,CHARS=BD13,DUPLEX=YES,FLASH=BAR4
           //*
           /*JOBPARM NOTIFY=GG.SLP,HOLD=OUTPUT                                     WYLGEN
         2 //$$QUIET EXEC PGM=HCMDX,PARM='PUR * Q OUT MUL'
           //*
         3 //ASM    EXEC PGM=ASMA90,REGION=8M,
           //            PARM=('NORENT,TERM,FLAG(NOCONT),US(MAP,WARN(10)),NODECK',
           //            'LC(32767),XREF(SHORT),ESD,DXREF,NOOBJECT')
         4 //STEPLIB DD DSN=SYS3.IS.TESTASM,DISP=SHR
         5 //SYSLIB   DD  DSN=WYL.GS.WYL.WYLBUR.MACLIB,DISP=SHR
         6 //         DD  DSN=WYL.GG.SYS.MACLIB,DISP=SHR
         7 //         DD  DSN=SYS3.IS.MACLIB,DISP=SHR
         8 //         DD  DSN=SYS3.MACLIB,DISP=SHR
         9 //         DD  DSN=SYS1.MACLIB,DISP=SHR
        10 //         DD  DSN=SYS1.MODGEN,DISP=SHR
        11 //SYSUT1   DD DSN=&&SYSUT1,UNIT=VIO,DISP=(,DELETE),
           //            SPACE=(4088,(500,250),,CONTIG,ROUND)
        12 //SYSTERM  DD SYSOUT=T
        13 //SYSPRINT DD DSN=&&PRINT,UNIT=SYSDA,DISP=(,PASS),
           //            SPACE=(6650,(250,250),RLSE),
           //            DCB=(BLKSIZE=6650,LRECL=133,RECFM=FB)
        14 //SYSUDUMP DD SYSOUT=A
        15 //SYSIN    DD  DSN=WYL.GS.WYL.WYLBUR.SOURCE(INIT),DISP=SHR
           //*
        16 //EDIT    EXEC PGM=ASMEDIT,TIME=2,REGION=4000K,
           //             PARM='STMT'
        17 //STEPLIB  DD  DSN=WYL.GG.SYS.LINKLIB,DISP=SHR
        18 //ASMOUT   DD  DSN=&PRINT,DISP=(OLD,DELETE)
        19 //SYSPRINT DD  SYSOUT=A
1 STMT NO. MESSAGE
 -
        11 IGD01010I STORCLAS= TEMP STORGROUP =
        11 IGD01010I STORGRP=VIO ASSIGNED.
        13 IGD01010I STORCLAS= TEMP STORGROUP =
        13 IGD01010I STORGRP=VIO ASSIGNED.
 ICH70001I GG$SLP   LAST ACCESS AT 12:46:34 ON MONDAY, MARCH 15, 2004
 IEF142I WYL#INIT $$QUIET - STEP WAS EXECUTED - COND CODE 0000
 *********************************************************************************
 *   WYL#INIT/$$QUIET /                    Return Code      Zero                 *
 *   Region used      260K (16K user + 244K system)                              *
 *   Extended region  9692K (4K user + 9688K system)                             *
 *                                                                               *
 *   Paging              In      Out                                             *
 *   Private <-> Aux      0        0       CPU time (TCB)   00:00:00.01          *
 *   Private <-> Exp      0        0       CPU time (SRB)   00:00:00.00          *
 *   VIO                  0        0       Elapsed time    917:41:08.61          *
 *   Common               0      ---                                             *
 *                                                                               *
 *                                                                               *
 *   CPU Usage          0.18         $0.11  Standard Processing Unit Equivalent  *
 *                                   $0.11  Total Step execution charge          *
 *                                                                               *
 *    I/O count  DDname   Type Addr           I/O count  DDname   Type Addr      *
 *                         *** No I/O for this step ***                          *
 *********************************************************************************
 IEF373I STEP/$$QUIET /START 2004075.1246
 IEF374I STEP/$$QUIET /STOP  2004075.1246 CPU    0MIN 00.01SEC SRB    0MIN 00.00SEC VIRT    16K SYS   244K EXT       4K SYS    9688K
 IEF236I ALLOC. FOR WYL#INIT ASM
 IEF237I 04DC ALLOCATED TO STEPLIB
 IEF237I 04DC ALLOCATED TO SYSLIB
 IEF237I 04DC ALLOCATED TO
 IEF237I 04DC ALLOCATED TO
 IEF237I 0402 ALLOCATED TO
 IEF237I 04A0 ALLOCATED TO
 IEF237I 04A0 ALLOCATED TO
 IGD101I SMS ALLOCATED TO DDNAME (SYSUT1  )
         DSN (SYS04075.T124644.RA000.WYL#INIT.SYSUT1.H01  )
         STORCLAS (TEMP) MGMTCLAS (        ) DATACLAS (        )
         VOL SER NOS= VIO
 IEF237I JES2 ALLOCATED TO SYSTERM
 IGD101I SMS ALLOCATED TO DDNAME (SYSPRINT)
         DSN (SYS04075.T124644.RA000.WYL#INIT.PRINT.H01   )
         STORCLAS (TEMP) MGMTCLAS (        ) DATACLAS (        )
         VOL SER NOS= SCR100
 IEF237I JES2 ALLOCATED TO SYSUDUMP
 IEF237I 04DC ALLOCATED TO SYSIN
 IEF142I WYL#INIT ASM - STEP WAS EXECUTED - COND CODE 0000
 IEF285I   SYS3.IS.TESTASM                              KEPT
 IEF285I   VOL SER NOS= SYSB05.
 IEF285I   WYL.GS.WYL.WYLBUR.MACLIB                     KEPT
 IEF285I   VOL SER NOS= SYSB05.
 IEF285I   WYL.GG.SYS.MACLIB                            KEPT
 IEF285I   VOL SER NOS= SYSB05.
 IEF285I   SYS3.IS.MACLIB                               KEPT
 IEF285I   VOL SER NOS= SYSB05.
 IEF285I   SYS3.MACLIB                                  KEPT
 IEF285I   VOL SER NOS= SYSB02.
 IEF285I   SYS1.MACLIB                                  KEPT
 IEF285I   VOL SER NOS= MVSBR9.
 IEF285I   SYS1.MODGEN                                  KEPT
 IEF285I   VOL SER NOS= MVSBR9.
 IGD105I SYS04075.T124644.RA000.WYL#INIT.SYSUT1.H01   DELETED,   DDNAME=SYSUT1
 IEF285I   GG$SLP.WYL#INIT.JOB03532.D0000101.?          SYSOUT
 IGD106I SYS04075.T124644.RA000.WYL#INIT.PRINT.H01    PASSED,    DDNAME=SYSPRINT
 IEF285I   GG$SLP.WYL#INIT.JOB03532.D0000102.?          SYSOUT
 IEF285I   WYL.GS.WYL.WYLBUR.SOURCE                     KEPT
 IEF285I   VOL SER NOS= SYSB05.
 *********************************************************************************
 *   WYL#INIT/ASM     /                    Return Code      Zero                 *
 *   Region used      4376K (4096K user + 280K system)                           *
 *   Extended region  10304K (412K user + 9892K system)                          *
 *                                                                               *
 *   Paging              In      Out                                             *
 *   Private <-> Aux      0        0       CPU time (TCB)   00:00:04.57          *
 *   Private <-> Exp      0        0       CPU time (SRB)   00:00:00.11          *
 *   VIO                  0        0       Elapsed time    917:41:07.52          *
 *   Common               0      ---                                             *
 *                                                                               *
 *                                                                               *
 *   CPU Usage         85.68        $53.12  Standard Processing Unit Equivalent  *
 *                                  $53.12  Total Step execution charge          *
 *                                                                               *
 *    I/O count  DDname   Type Addr           I/O count  DDname   Type Addr      *
 *           83  STEPLIB  Disk 04DC                 337  SYSLIB   Disk 04DC      *
 *            0  SYSLIB   Disk 04DC                   0  SYSLIB   Disk 04DC      *
 *           17  SYSLIB   Disk 0402                 396  SYSLIB   Disk 04A0      *
 *            0  SYSLIB   Disk 04A0               1,230  SYSUT1   VIO  ----      *
 *            0  SYSTERM       ----                 159  SYSPRINT Disk 038B      *
 *            0  SYSUDUMP      ----                   7  SYSIN    Disk 04DC      *
 *********************************************************************************
 IEF373I STEP/ASM     /START 2004075.1246
 IEF374I STEP/ASM     /STOP  2004075.1247 CPU    0MIN 04.57SEC SRB    0MIN 00.11SEC VIRT  4096K SYS   280K EXT     412K SYS    9892K
 IEF236I ALLOC. FOR WYL#INIT EDIT
 IEF237I 0402 ALLOCATED TO STEPLIB
 IGD103I SMS ALLOCATED TO DDNAME ASMOUT
 IEF237I JES2 ALLOCATED TO SYSPRINT
 IEF142I WYL#INIT EDIT - STEP WAS EXECUTED - COND CODE 0000
 IEF285I   WYL.GG.SYS.LINKLIB                           KEPT
 IEF285I   VOL SER NOS= SYSB02.
 IGD105I SYS04075.T124644.RA000.WYL#INIT.PRINT.H01    DELETED,   DDNAME=ASMOUT
 IEF285I   GG$SLP.WYL#INIT.JOB03532.D0000103.?          SYSOUT
 *********************************************************************************
 *   WYL#INIT/EDIT    /                    Return Code      Zero                 *
 *   Region used      380K (116K user + 264K system)                             *
 *   Extended region  9820K (4K user + 9816K system)                             *
 *                                                                               *
 *   Paging              In      Out                                             *
 *   Private <-> Aux      0        0       CPU time (TCB)   00:00:00.50          *
 *   Private <-> Exp      0        0       CPU time (SRB)   00:00:00.01          *
 *   VIO                  0        0       Elapsed time    917:40:52.02          *
 *   Common               0      ---                                             *
 *                                                                               *
 *                                                                               *
 *   CPU Usage          9.37         $5.80  Standard Processing Unit Equivalent  *
 *                                   $5.80  Total Step execution charge          *
 *                                                                               *
 *    I/O count  DDname   Type Addr           I/O count  DDname   Type Addr      *
 *            2  STEPLIB  Disk 0402                 160  ASMOUT   Disk 038B      *
 *            0  SYSPRINT      ----                                              *
 *********************************************************************************
 IEF373I STEP/EDIT    /START 2004075.1247
 IEF374I STEP/EDIT    /STOP  2004075.1247 CPU    0MIN 00.50SEC SRB    0MIN 00.01SEC VIRT   116K SYS   264K EXT       4K SYS    9816K
 *********************************************************************************
 *                                                                               *
 *                      S t a n f o r d   U n i v e r s i t y                    *
 *                                                                               *
 *                              *** Job Summary ***                              *
 *                                                                               *
 *   System Id      SYSB                   Input time     12:39:19  Mar 15, 2004 *
 *                                                                               *
 *   System Release SP6.1.0                Start time     12:46:44  Mar 15, 2004 *
 *                                                                               *
 *   Job name       WYL#INIT               Stop  time     00:00:00  Mar 15, 2004 *
 *                                                                               *
 *   Account        SLP$GG                 Elapsed time  917:41:08.61            *
 *                                                                               *
 *   User Name      Assemble INIT          CPU time       00:00:05.08            *
 *                                                                               *
 *   Job class      B                      SRB Time       00:00:00.12            *
 *                                                                               *
 *********************************************************************************
 IEF375I  JOB/WYL#INIT/START 2004075.1246
 IEF376I  JOB/WYL#INIT/STOP  2004075.1247 CPU    0MIN 05.08SEC SRB    0MIN 00.12SEC
1Assembler Done INIT No Statements Flagged
1         High Level Assembler Option Summary                   (PTF P72483 )                                               Page    1
-                                                                                            HLASM R4.0  2004/03/15 12.46
0  No Overriding ASMAOPT Parameters
   Overriding Parameters-  NORENT,TERM,FLAG(NOCONT),US(MAP,WARN(10)),NODECK,LC(32767),XREF(SHORT),ESD,DXREF,NOOBJECT
   No Process Statements


   Options for this Assembly
0  NOADATA
     ALIGN
   NOASA
     BATCH
     CODEPAGE(047C)
   NOCOMPAT
   NODBCS
 3 NODECK
 3   DXREF
 3   ESD
   NOEXIT
 3   FLAG(0,ALIGN,NOCONT,NOIMPLEN,NOPAGE0,PUSH,RECORD,NOSUBSTR,USING0)
   NOFOLD
   NOGOFF
   NOINFO
     LANGUAGE(EN)
   NOLIBMAC
 3   LINECOUNT(32767)
     LIST(121)
     MXREF(SOURCE)
 3 NOOBJECT
     OPTABLE(UNI,NOLIST)
   NOPCONTROL
   NOPESTOP
   NOPROFILE
   NORA2
 3 NORENT
     RLD
     RXREF
     SIZE(MAX)
     SYSPARM()
 3   TERM(WIDE)
   NOTEST
     THREAD
   NOTRANSLATE
 3   USING(NOLIMIT,MAP,WARN(10))
 3   XREF(SHORT)

   No Overriding DD Names

1INIT     External Symbol Dictionary                                                                                        Page    2
-Symbol   Type   Id     Address  Length     LD ID  Flags Alias-of                            HLASM R4.0  2004/03/15 12.46
0WYLINIT   SD 00000001 00000000 00003168             00
 INIT4072  LD          00000000           00000001
 WYLBUR    LD          00000018           00000001
 CV        ER 00000002
 LOCALTOD  ER 00000003
 AMODE31   ER 00000004
 GETCORE   ER 00000005
 TSEGPLIN  ER 00000006
 RACCHKOP  ER 00000007
 FAILINIT  ER 00000008
 DBUGINIT  ER 00000009
 INITFUNC  ER 0000000A
 INITSYSV  ER 0000000B
 INITPROC  ER 0000000C
 INITWLOG  ER 0000000D
 SEGWR     ER 0000000E
 SEGCLR    ER 0000000F
 SEGB      ER 00000010
 SEGDC     ER 00000011
 CALCTRK   ER 00000012
 AMODE24   ER 00000013
 CALCPGC   ER 00000014
 KIOINIT   ER 00000015
 TIMRINIT  ER 00000016
 DISKINIT  ER 00000017
 DISPINIT  ER 00000018
 STATINIT  ER 00000019
 JESINIT   ER 0000001A
 SYMINIT   ER 0000001B
 STARTUP   ER 0000001C
 CHECKSET  LD          00000DBC           00000001
 RCVYINFO  LD          00000E70           00000001
 GETRSC    ER 0000001D
 SEG       ER 0000001E
 GETCP     ER 0000001F
 RECOVERY  ER 00000020
 RGRCVY    ER 00000021
 FREECP    ER 00000022
 CHECKIOB  LD          000022A8           00000001
 INITPARM  LD          000023E6           00000001
 UNPRESS   ER 00000023
 SCINIT    ER 00000024
 SCAN      ER 00000025
 IOWRSG    ER 00000026
 DEQUOTE   ER 00000027
 LRTRIM    ER 00000028
 SCTELL    ER 00000029
 SCDONE    ER 0000002A
 INITCMDS  LD          00002DD0           00000001
 INITPUSR  LD          00002E2A           00000001
 INITPCMD  LD          00002F06           00000001
 INITCMD   ER 0000002B
 INITCP    ER 0000002C
 INITRG    ER 0000002D
 PFREEA    ER 0000002E
1INIT     External Symbol Dictionary                                                                                        Page    3
 PFREEB    ER 0000002F
 SEGINIT   ER 00000030
 SEGT      ER 00000031
 EDTCOMMV  ER 00000032

1INIT     WYLBUR's Initialization Routine                                                                                   Page    4
0Loc    Object Code    Addr1 Addr2  Stmt Lv Lineno    Source Statement                    (Asmedit 3.3)  HLASM R4.0  2004/03/15 12.46
+___    ______ ____    _____ _____  ____ __ ______    ______ _________
0                                      2              *******************************************************************
                                       3              *                                                                 *
                                       4              *     WYLBUR/370 - Release VI - Class I - Stanford Proprietary    *
                                       5              *                                                                 *
                                       6              *******************************************************************
                                       7                       HIBAL
                                     988
                                     989                       SYSDEFN
                                     990                       GBLC  &INSTALN
                                     991
 000000                00000 03168   992              WYLINIT  CSECT
                                     996                       REGS  FSR,,,,,,JCBR,BR,(WAR,LSR),PAR,PBR,CPR,CVR,SPR,RAR
-                                   1146              INIT     IDENT 4072                10:30:06 03/12/04  (SLP)
                                    1149             +
                                    1150    01-IDENT +         ENTRY INIT4072
                                    1151             +
 000000 16C9D5C9E3F4F0F7            1152    01-IDENT +INIT4072 DC    AL1(22),C'INIT4072,15MAR04,12:46'
                                    1153             +*
                                    1155              *
 USING  CP,R11                      1156                       USING (CP),(CV)           Global assumptions
 USING  CV,R12
                                    1175
 000017                00000 03168  1176                       PUSH  DSECTS
1INIT     (INIT4072) (12:46) (15MAR04) DSECTS                                                                               Page    5
0Current Usings:  (CP,R11) (CV,R12)
0Loc    Object Code    Addr1 Addr2  Stmt Lv Lineno    Source Statement           (Hibal 5, Asmedit 3.3)  HLASM R4.0  2004/03/15 12.46
+___    ______ ____    _____ _____  ____ __ ______    ______ _________
0                                  16135              ***
                                   16136              ***  User Checkpoint Entry.
                                   16137              ***
 000000                00000 0000C 16138              CHKU     RECORD BEGIN
 000000 00                         16146  1           CHKUFLAG   FLAG
 CHKUFLAG.CHKUFPS  80 ONES         16150  1                      FLAG  CHKUFPS             - Pseudo session (no LTIME upd)
 CHKUFLAG.CHKUFNAR 40 ONES         16155  1                      FLAG  CHKUFNAR            - No ACTIVE rcvy for this user
                                   16160  1
 000001                            16161  1                      DS    XL2                 Reserved
                                   16162  1
 000003                            16163  1           CHKUACCT   DS    CL5                 Account (uuugg)
                                   16164  1
 000008                            16165  1           CHKUPGNO   DS    F                   Root page-number (for Actives)
 00000C                0000C 0000C 16166                       END
1INIT     (INIT4072) (12:46) (15MAR04) WYLBUR's Initialization Routines                                                     Page    6
0Current Usings:  (CP,R11) (CV,R12)
0Loc    Object Code    Addr1 Addr2  Stmt Lv Lineno    Source Statement           (Hibal 5, Asmedit 3.3)  HLASM R4.0  2004/03/15 12.46
+___    ______ ____    _____ _____  ____ __ ______    ______ _________
0                                  16176              **
                                   16177              **  OS entry point is here.
                                   16178              **
                                   16179                       ENTRY WYLBUR
 000017 00/0D70                    16180              WYLBUR   BASE
 USING  *,R7
 00001A 58C0 7826            00840 16194                       L     CVR,=V(CV)          Set CV ptr
 00001E 1BBB                       16195                       CLEAR CPR                 No user CP
 000020 50E0 C08C            0008C 16199                       ST    R14,CVOSRA          Save return addr
 000024 D203 C098 1000 00098 00000 16200                       MVC   CVPARMP,@R1         Save parm ptr
 00002A D701 C132 C132 00132 00132 16201                       CLEAR CVMAXSES            ***PJG*** REMOVE AFTER CV CHANGE
 000030 58E0 782A/0DEE       00844 16208                       VCALL LOCALTOD            Clock at start
 000036 9001 C090            00090 16212                       STM   R0,R1,CVSCLCK
                                   16213
 00003A 1B00/181D/1BFF_            16214                       PRIVCHK ,                 System privs required, pal
                                   16241                   ¿þþþþþþþþþþþþþþþþþþþþþþþþþþþþþþþþþþþþþþþþþþþþþþþþþþþþþþþþþþþþþþþþþþþÜ
                                   16242                   Ÿ  The I/O pages WYLBUR gets must be fixed and never swapped.  The  Ÿ
                                   16243                   Ÿ   following "SYSEVENT TRANSWAP" causes a single swap-out/swap-in  Ÿ
                                   16244                   Ÿ   now and then all current and future pages will not be swapped.  Ÿ
                                   16245                   Ÿ      Thanks to Barry Benight for figuring this out.               Ÿ
                                   16246                   ¾þþþþþþþþþþþþþþþþþþþþþþþþþþþþþþþþþþþþþþþþþþþþþþþþþþþþþþþþþþþþþþþþþþþ»
 000056 1B11                       16247                       CLEAR R1                  Zero means no ECB on SYSEVENT
 000058 4100 000E/0A5F       0000E 16251                       SYSEVENT TRANSWAP         Ensure non-swappable fixed pages
                                   16254                       ¿þþþþþþþþþþþþþþþþþþþþþþþþþþþþþþþþþþþþþþþþþþþþþþþþþþþþþþþþþþþþþÜ
                                   16255                       Ÿ  Get dispatcher stack.                                      Ÿ
                                   16256                       Ÿ    The dispatcher's stack is now the same size as the user  Ÿ
                                   16257                       Ÿ    stack.                                                   Ÿ
                                   16258                       ¾þþþþþþþþþþþþþþþþþþþþþþþþþþþþþþþþþþþþþþþþþþþþþþþþþþþþþþþþþþþþþ»
 00005E 5800 C26C            0026C 16259                       L     R0,CVSTACKL         Stack length
 000062 4510 704C/0A0A       00066 16260                       GETMAIN R,LV=(0)          Get dispatcher's stack
 000068 5010 C270            00270 16264                       ST    R1,CVDSTK           Save ptr
                                   16265
 00006C 5880 C270            00270 16266                       L     R8,CVDSTK           Set...
 000070 18D8                       16267                       LR    R13,R8              ...dispatcher stack
                                   16268                       ¿þþþþþþþþþþþþþþþþþþþþþþþþþþþþþþþþþþþþþþþþþþþþþþþþþþþþþþþþþþþþþÜ
                                   16269                       Ÿ                                                             Ÿ
                                   16270                       Ÿ  Get user stack and heap.                                   Ÿ
                                   16271                       Ÿ    (The stack has a little extra that can not be            Ÿ
                                   16272                       Ÿ    copied into the page buffers.  The extra is 32K bytes.)  Ÿ
                                   16273                       ¾þþþþþþþþþþþþþþþþþþþþþþþþþþþþþþþþþþþþþþþþþþþþþþþþþþþþþþþþþþþþþ»
 000072 5800 C26C            0026C 16274                       L     R0,CVSTACKL         Stack length
 000076 5A00 7832            0084C 16275                       A     R0,=A(32*1024)      Plus slop
 00007A 4510 7064/0A0A       0007E 16276                       GETMAIN R,LV=(0)          Get stack
 000080 5010 C274            00274 16280                       ST    R1,CVSTACK
 000084 5A10 C26C            0026C 16281                       A     R1,CVSTACKL
 000088 5010 C278            00278 16282                       ST    R1,CVSTACKE
                                   16283
 00008C 5800 C27C            0027C 16284                       L     R0,CVHEAPL
 000090 4510 707A/0A0A       00094 16285                       GETMAIN R,LV=(0)          Get heap
 000096 5010 C280            00280 16289                       ST    R1,CVHEAP
 00009A 5A10 C27C            0027C 16290                       A     R1,CVHEAPL
 00009E 5010 C284            00284 16291                       ST    R1,CVHEAPE
                                   16292
 0000A2 5850 0010            00010 16293                       L     R5,CVTPTR           Addr of CVT
1INIT     (INIT4072) (12:46) (15MAR04) WYLBUR's Initialization Routines                                                     Page    7
0Current Usings:  (CVT,R5) (*,R7) (CP,R11) (CV,R12)
0Loc    Object Code    Addr1 Addr2  Stmt Lv Lineno    Source Statement           (Hibal 5, Asmedit 3.3)  HLASM R4.0  2004/03/15 12.46
+___    ______ ____    _____ _____  ____ __ ______    ______ _________
0USING  CVT,R5                     16294                       USING CVT,R5
 0000A6 9180 5074/47E0_00074       16303                       IF    CVTDCB.X'80','SET CVFXA,CVFXA31'  MVS/XA mode
 0000B6 5820 5000            00000 16334                       L     R2,CVTTCBP          Addr of TCB words
 0000BA D203 C718 200C 00718 0000C 16335                       MVC   CVASCBP,@R2+12      Our ASCB ptr
 0000C0 5820 2004            00004 16336                       L     R2,@R2+4            Our TCB addr
 0000C4 5020 C73C            0073C 16337                       ST    R2,CVTCBP           Save addr
 USING  TCB,R2                     16338                       WITH  (TCB,R2),BEGIN
 0000C8 D200 C066 201C 00066 0003C 16352  1                      MVC   CVKEY,TCBPKF        Save our storage key
 0000CE 5810 20B4            000D4 16353  1                      L     R1,TCBJSCB          Our JSCB ptr
 0000D2 58F0 10D0            000D0 16354  1                      WITH  (JSCB,R1),'L R15,JSCBTCBP'  Initiator TCB ptr
 USING  JSCB,R1
 DROP   JSCB,R1
 0000D6 50F0 C714            00714 16378  1                      ST    R15,CVITCBP         Save initiator TCB ptr
 0000DA 5820 200C            0002C 16379  1                      L     R2,TCBTIO           Addr of our TIOT
 DROP   TCB,R2                     16380                       END
 0000DE D207 C018 2000 00018 00000 16388                       MVC   CVNAME,@R2          Save jobname
 0000E4 D202 C058 C018 00058 00018 16389                       MVC   CVWYLACC(3),CVNAME  (JESINIT may change this)
 0000EA D207 C028 2000 00028 00000 16390                       MVC   CVWYLSSN,@R2        Subsys name = jobname
                                   16391
 0000F0 5810 50C4/1211       000C4 16392                       LT    R1,CVTSMCA          SMF SMCA ptr
 0000F6 4780 70EC            00106 16396                       IF    NZ,BEGIN
 0000FA D207 C00C C4D8 0000C 004D8 16407  1                      MVC   CVMACHID,CVBLANKS
 000100 D203 C00C 1010 0000C 00010 16408  1                      MVC   CVMACHID(4),@R1+16  SMF machine ID
                                   16409  1           *        XWTO  'CVMACHID '         *** slp debug ***
                                   16410  1           *        XWTO  CVMACHID,4          *** slp debug ***
 000106                            16411                       END
 DROP   CVT,R5                     16415                       DROP  CVT
                                   16423
 000106 9608 C4C5      004C5       16424                       SET   CVFINIT             Doing initialization
 00010A 9610 C4C5      004C5       16430                       SET   CVFRCVY             Default is recovery
 00010E 94FB C4C5      004C5       16436                       CLEAR CVFFMT              And no reformatting
 000112 D201 C13C 7926 0013C 00940 16443                       MVC   CVNIPG,=H'-1'       Use max pages (set later)
                                   16444                       ¿þþþþþþþþþþþþþþþþþþþþþþþþþþþþþþþþþþþþþþþþþþþþþþþþþþþþþþþþþþþþÜ
                                   16445                       Ÿ  Reduce our dispatching priority so that the subtasks can  Ÿ
                                   16446                       Ÿ    CHAP above the mother task.                             Ÿ
                                   16447                       ¾þþþþþþþþþþþþþþþþþþþþþþþþþþþþþþþþþþþþþþþþþþþþþþþþþþþþþþþþþþþþ»
 000118 1B11/4100 0002_            16448                       CHAP  -2                  Reduce priority
                                   16453                       ¿þþþþþþþþþþþþþþþþþþþþþþþþþþþþþþþþþþþþþþþþþþþþþþþþþÜ
                                   16454                       Ÿ  Switch into 31 bit addressing mode if MVS/XA.  Ÿ
                                   16455                       ¾þþþþþþþþþþþþþþþþþþþþþþþþþþþþþþþþþþþþþþþþþþþþþþþþþ»
 000122 58E0 7836/0DEE       00850 16456                       VCALL AMODE31             Switch to 31 bit mode if XA
                                   16460                       ¿þþþþþþþþþþþþþþþþþþþþþþþþþþþþþþþþþþþþþþÜ
                                   16461                       Ÿ  Get UPATH and UNET address tables.  Ÿ
                                   16462                       ¾þþþþþþþþþþþþþþþþþþþþþþþþþþþþþþþþþþþþþþ»
 000128 5800 783A            00854 16463                       L     R0,=A(CVPATH#*4)
 00012C 58E0 783E/0DEE       00858 16464                       VCALL GETCORE             Get UPATH address table
 000132 5010 C0A4            000A4 16468                       ST    R1,CVPATHP          Save it
 000136 18E1/18F0/1B11_            16469                       ZOT   (R1),(R0)           Initialize address table
                                   16482
 00013E 5800 7842            0085C 16483                       L     R0,=A(CVNET#*4)
 000142 58E0 783E/0DEE       00858 16484                       VCALL GETCORE             Get UPATH address table
 000148 5010 C0A8            000A8 16488                       ST    R1,CVNETP           Save it
 00014C 18E1/18F0/1B11_            16489                       ZOT   (R1),(R0)           Initialize address table
                                   16502              *
1INIT     (INIT4072) (12:46) (15MAR04) WYLBUR's Initialization Routines                                                     Page    8
0Current Usings:  (*,R7) (CP,R11) (CV,R12)
0Loc    Object Code    Addr1 Addr2  Stmt Lv Lineno    Source Statement           (Hibal 5, Asmedit 3.3)  HLASM R4.0  2004/03/15 12.46
+___    ______ ____    _____ _____  ____ __ ______    ______ _________
0                                  16503              * Initialize TSEG buffer pool
                                   16504              *
 000154 58E0 7846/0DEE       00860 16505                       VCALL TSEGPLIN
                                   16509                       ¿þþþþþþþþþþþþþþþþþþþþþþþþþþþÜ
                                   16510                       Ÿ  Get Christa memory area  Ÿ
                                   16511                       ¾þþþþþþþþþþþþþþþþþþþþþþþþþþþ»
 00015A 5800 784A            00864 16512                       L     R0,=A(CHRPLEN)
 00015E 58E0 783E/0DEE       00858 16513                       VCALL GETCORE             Get Christa global data area
 000164 5010 C25C            0025C 16517                       ST    R1,CVCHRIS          Save it
 000168 1821                       16518                       LR    R2,R1               Preserve for init after ZOT
 00016A 18E1/18F0/1B11_            16519                       ZOT   (R1),(R0)           Initialize Christa data area
 USING  CHRPARMS,R2                16532                       WITH  (CHRPARMS,R2),BEGIN
 000172 D203 2000 784E 00000 00868 16546  1                      MVC   CHRPRMID,=C'CHRP'   Fill in eye-catcher
 000178 D207 2004 77F6 00004 00810 16547  1                      MVC   CHRKPATH,=CL8'CHRISTA'  Default path name for keyword
 00017E D207 2010 77F6 00010 00810 16548  1                      MVC   CHRUPATH,=CL8'CHRISTA'     and UserID to Christa
                                   16549  1           *                                  Leave default access as none
 DROP   CHRPARMS,R2                16550                       END   ,
                                   16558                   ¿þþþþþþþþþþþþþþþþþþþþþþþþþþþþþþþþþþþþþþþþþþþþþþþþþþþþþþþþþþþÜ
                                   16559                   Ÿ  Check WYLBUR's ACEE control block for the OPERATIONS     Ÿ
                                   16560                   Ÿ  attribute.  If not on, set it.  This allows subtask I/O  Ÿ
                                   16561                   Ÿ  operations for bypass all RACF security.                 Ÿ
                                   16562                   ¾þþþþþþþþþþþþþþþþþþþþþþþþþþþþþþþþþþþþþþþþþþþþþþþþþþþþþþþþþþþ»
 000184 58E0 7852/0DEE       0086C 16563                       VCALL RACCHKOP            Check for OPERATIONS attribute.
                                   16567                 ¿þþþþþþþþþþþþþþþþþþþþþþþþþþþþþþþþþþþþþþþþþþþþþþþþþþþþþþþþþþþþþþþþþþþÜ
                                   16568                 Ÿ  Wings needs to be our default filesystem so that the INIT EXECs  Ÿ
                                   16569                 Ÿ  will work now that the routines in DIR have been converted to    Ÿ
                                   16570                 Ÿ  Wings.   MPD 2/13/95                                             Ÿ
                                   16571                 ¾þþþþþþþþþþþþþþþþþþþþþþþþþþþþþþþþþþþþþþþþþþþþþþþþþþþþþþþþþþþþþþþþþþþ»
 00018A 9620 C4C8      004C8       16572                       SET   CVFWINGS
                                   16578
 00018E 58E0 7856/0DEE       00870 16579                       ACALL INITPARM            Go scan init parms
                                   16583              *
                                   16584              *        XWTO  'AFTER INITPARM CVMACHID '  *** slp debug ***
                                   16585              *        XWTO  CVMACHID,4          *** slp debug ***
                                   16586                       AIF   ('&INSTALN' NE 'STANFORD').NOSTAN
 000194 D504 797C C00C_00996 0000C 16587                       IF  (CVMACHID,EQ,'SYSB '),BEGIN
 00019E D207 C00C 77FE 0000C 00818 16604  1                      MVC CVMACHID,=CL8'RLG'
 0001A4 9610 C4C4      004C4       16605  1                      SET   CVFRLG              Running on an RLG machine
 0001A8                            16611                       END
 0001A8 D504 7981 C00C_0099B 0000C 16615                       IF  (CVMACHID,EQ,'SYSG '),BEGIN
                                   16632  1           *        XWTO  'CVMACHID is SYSG'  *** slp debug ***
 0001B2 9610 C4C4      004C4       16633  1                      SET   CVFRLG              Running on an RLG machine
 0001B6                            16639                       END
                                   16643              .NOSTAN  ANOP
                                   16644
 0001B6 9200 C067      00067       16645                       CLEAR CVMACH              Set CVMACH appropriately
 0001BA D504 7986 C00C_009A0 0000C 16652                       IF    (CVMACHID,EQ,'SYSA '),'SET CVFSYSA'  SYSA access
 0001C8 71B2/47F0 71C0_001C8 001C2 16680                       ELSEIF (CVMACHID,EQ,'RLG '),'SET CVFSYSB'  SYSB access
 0001DA 71C4/47F0 71D2_001DA 001D4 16717                       ELSEIF (CVMACHID,EQ,'SYSC '),'SET CVFSYSC'  SYSC access
 0001EC 71D6/47F0 71E4_001EC 001E6 16754                       ELSEIF (CVMACHID,EQ,'SYSD '),'SET CVFSYSD'  SYSD access
 0001FE 71E8/47F0 71F6_001FE 001F8 16791                       ELSEIF (CVMACHID,EQ,'SYSH '),'SET CVFSYSE'  SYSH access
 000210 71FA/47F0 7208_00210 0020A 16828                       ELSEIF (CVMACHID,EQ,'SYSF '),'SET CVFSYSF'  SYSF access
 000222 720C/47F0 721A_00222 0021C 16865                       ELSEIF (CVMACHID,EQ,'SYSG '),'SET CVFSYSG'  SYSF access
 000234 721E/47F0 7222_00234 0022E 16902                       ELSE  'MVI CVMACH,X"FF"'  (Shouldn't happen)
1INIT     (INIT4072) (12:46) (15MAR04) WYLBUR's Initialization Routines                                                     Page    9
0Current Usings:  (*,R7) (CP,R11) (CV,R12)
0Loc    Object Code    Addr1 Addr2  Stmt Lv Lineno    Source Statement           (Hibal 5, Asmedit 3.3)  HLASM R4.0  2004/03/15 12.46
+___    ______ ____    _____ _____  ____ __ ______    ______ _________
0                                  16919
 00023C 4800 C134            00134 16920                       LH    R0,CVTRCENT         No. of trace entries
 000240 58E0 785E/0DEE       00878 16921                       VCALL FAILINIT            (Located in FAIL)
 000246 58E0 7862/0DEE       0087C 16925                       VCALL DBUGINIT            (Located in DEBUG)
 00024C 58E0 7866/0DEE       00880 16929                       VCALL INITFUNC
 000252 58E0 786A/0DEE       00884 16933                       VCALL INITSYSV
 000258 58E0 786E/0DEE       00888 16937                       VCALL INITPROC
 00025E 58E0 7872/0DEE       0088C 16941                       VCALL INITWLOG            (Located in STAT)
                                   16945
 000264 9114 C4C5/47E0_004C5       16946                       FAIL  CVFFMT*CVFRCVY,BADP,'FORMAT and RECOVERY conflict.'
                                   16976              *
                                   16977              *!!      IF    ~CVFTEST,BEGIN      Do only for prod
 000284 4510 7272/0000_      0028C 16978                       MODESET KEY=ZERO          ********
 000292 5810 C73C            0073C 16985                       L     R1,CVTCBP           Our TCB addr
                                   16986                 ¿þþþþþþþþþþþþþþþþþþþþþþþþþþþþþþþþþþþþþþþþþþþþþþþþþþþþþþþþþþþþþþÜ
                                   16987                 Ÿ        TCBUSER flag bit definitions:                         Ÿ
                                   16988                 Ÿ           X'02' -- Allow RACF global bypass                  Ÿ
                                   16989                 Ÿ                                                              Ÿ
                                   16990                 Ÿ  Note: Nobody remembers the X'02' flag and we don't seem to  Ÿ
                                   16991                 Ÿ        have any user exits in the system which look for it.  Ÿ
                                   16992                 Ÿ        So, if you need to have a clear TCBUSER field for     Ÿ
                                   16993                 Ÿ        L$UCENV, you should be able to get rid of it. (But    Ÿ
                                   16994                 Ÿ        test first).                                          Ÿ
                                   16995                 Ÿ                                                              Ÿ
                                   16996                 Ÿ        M. Durket  02/23/2000                                 Ÿ
                                   16997                 ¾þþþþþþþþþþþþþþþþþþþþþþþþþþþþþþþþþþþþþþþþþþþþþþþþþþþþþþþþþþþþþþ»
 000296 9602 10A8      000C8       16998                       WITH  (TCB,R1),'OI TCBUSER,X"02"'  Set special modes
 USING  TCB,R1
 DROP   TCB,R1
 00029A 0700/4510 728A_            17022                       MODESET KEY=NZERO         ********
                                   17029              *!!      END
1INIT     (INIT4072) (12:46) (15MAR04) WYLBUR's Initialization Routines                                                     Page   10
0Current Usings:  (*,R7) (CP,R11) (CV,R12)
0Loc    Object Code    Addr1 Addr2  Stmt Lv Lineno    Source Statement           (Hibal 5, Asmedit 3.3)  HLASM R4.0  2004/03/15 12.46
+___    ______ ____    _____ _____  ____ __ ______    ______ _________
0                                  17031              ¿þþþþþþþþþþþþþþþþþþþþþþþþþþþþþþþþþþþþþþþþþþþþþþþþþþþþþþþþþþþþþþþþþþþþþÜ
                                   17032              Ÿ                                                                     Ÿ
                                   17033              Ÿ    Set up checkpointing.                                            Ÿ
                                   17034              Ÿ                                                                     Ÿ
                                   17035              Ÿ        Caution: All halfword definitions for checkpoint             Ÿ
                                   17036              Ÿ                 values should be processed as unsigned 16           Ÿ
                                   17037              Ÿ                 bit integers.                                       Ÿ
                                   17038              Ÿ                                                                     Ÿ
                                   17039              Ÿ                 R5  -  Address of stack work area                   Ÿ
                                   17040              Ÿ                 R6  -  Address of checkpoint IOB, DCB, and CCW's    Ÿ
                                   17041              Ÿ                                                                     Ÿ
                                                      ¾þþþþþþþþþþþþþþþþþþþþþþþþþþþþþþþþþþþþþþþþþþþþþþþþþþþþþþþþþþþþþþþþþþþþþ»
0000000                00000 00019 17043              ICHKPTWA RECORD BEGIN              Check-point init work area
 000000 0000000000000000           17051  1           ICHKDVTA   DC    (L'DVTAREA)X'00'    Devtype work area
 000018 00                         17052  1           ICHKFLGS   FLAG  ,                   Checkpoint initialization flags
 ICHKFLGS.ICHKOPEN 80 ONES         17056  1                      FLAG  ICHKOPEN              -  Checkpoint data set open
 ICHKFLGS.ICHK2ND  40 ONES         17061  1                      FLAG  ICHK2ND               -  2nd try at checkpointing
 000019                00019 00019 17066                       END   ,
00002AA 185D/41D0 D01C             17076                       XPUSH ,,L'ICHKPTWA,PTR=R5 Reserve check-point area
 0002B0 5860 7876            00890 17079                       L     R6,=A(CKPTDATA)     Address of checkpoint data
 USING  ICHKPTWA,R5                17080                       USING ICHKPTWA,R5         Addressability to work area
 USING  CKPTDATA,R6                17089                       USING CKPTDATA,R6         Addressability to static data
 0002B4 D718 5000 5000 00000 00000 17098                       CLEAR ICHKPTWA            Initialize workarea to zeroes
00002BA 9140 C4C7/4710_004C7       17106              INITCKPT IF    ~CVFNCHK,BEGIN      Initialize checkpoint processing
0                                  17123  1                      ¿þþþþþþþþþþþþþþþþþþþþþþþþþþþþþþþþþþþþþþþþþþþþþþþþþþþþþÜ
                                   17124  1                      Ÿ  Assume errors will occur in checkpoint processing  Ÿ
                                   17125  1                      ¾þþþþþþþþþþþþþþþþþþþþþþþþþþþþþþþþþþþþþþþþþþþþþþþþþþþþþ»
 0002C2 9640 C4C7      004C7       17126  1                      SET   CVFNCHK             No checkpointing at this point
                                   17132  1                      ¿þþþþþþþþþþþþþþþþþþþþþþþþþþÜ
                                   17133  1                      Ÿ  Validity check options  Ÿ
                                   17134  1                      ¾þþþþþþþþþþþþþþþþþþþþþþþþþþ»
 0002C6 D601 C132 C132_00132 00132 17135  1                      IF    ((CVMAXSES,NZ),AND,~CVFCFMT),BEGIN
 0002D8 4110 799F/4100_      009B9 17165  2                        XWTO  'MAXSES cannot be used without the CFMT option'
 0002EA 58E0 787E/0DEE       00898 17182  2                        ACALL ICHKTERM            Terminate initialization
 0002F0                            17186  1                      END   ,
-                                  17191  1                      ¿þþþþþþþþþþþþþþþþþþþþþþþþþþþþþþþþþþþþþþþþþþþþþþþþþþþþÜ
                                   17192  1                      Ÿ  Determine checkpoint file device characteristics  Ÿ
                                   17193  1                      ¾þþþþþþþþþþþþþþþþþþþþþþþþþþþþþþþþþþþþþþþþþþþþþþþþþþþþ»
 0002F0 4140 5000            00000 17194  1                      LA    R4,ICHKDVTA         Address of DEVTYPE area
 USING  DVTAREA,R4                 17195  1                      WITH  (DVTAREA,R4)        Addressability to DEVTYPE area
 0002F4 4110 6028/4100_      02290 17208  1                      DEVTYPE CHECKDCB+DCBDDNAM-IHADCB,DVTAREA,DEVTAB
 000300 12FF/4780 72F6             17214  1                      IF    (R15,NZ),BEGIN      No DDCARD, no checkpointing
 000306 58E0 7882/0DEE       0089C 17228  2                        ACALL ICHKERR1            Report error
 00030C 47F0 7476            00490 17232  2                        EXIT  INITCKPT            Abort checkpointing
 000310                            17235  1                      END   ,
0000310 9520 4002/4780_00002       17240  1                      IF    (DVACLASS,NE,UCB3DACC),BEGIN  Must be on DASD device
 000318 58E0 7886/0DEE       008A0 17258  2                        ACALL ICHKERR2            Report error
1INIT     (INIT4072) (12:46) (15MAR04) WYLBUR's Initialization Routines                                                     Page   11
0Current Usings:  (DVTAREA,R4) (ICHKPTWA,R5) (CKPTDATA,R6) (*,R7) (CP,R11) (CV,R12)
0Loc    Object Code    Addr1 Addr2  Stmt Lv Lineno    Source Statement           (Hibal 5, Asmedit 3.3)  HLASM R4.0  2004/03/15 12.46
+___    ______ ____    _____ _____  ____ __ ______    ______ _________
000031E 47F0 7476            00490 17262  2                        EXIT  INITCKPT            Abort checkpointing
 000322                            17265  1                      END   ,
0000322 9110 4001/4710_00001       17270  1                      IF    ~DVAOPTS+1.X'10',BEGIN  Must support RPS
 00032A 58E0 788A/0DEE       008A4 17286  2                        ACALL ICHKERR3            Device does not support rps
 000330 47F0 7476            00490 17290  2                        EXIT  INITCKPT            Abort checkpointing
 000334                            17293  1                      END   ,
-                                  17298  1                      ¿þþþþþþþþþþþþþþþþþþþþþþþþþþþþþþþþþþþþþþþþþþþþþþÜ
                                   17299  1                      Ÿ  Determine maximum useable block for device  Ÿ
                                   17300  1                      ¾þþþþþþþþþþþþþþþþþþþþþþþþþþþþþþþþþþþþþþþþþþþþþþ»
 000334 1F33/4330 4003             17301  1                      LC    R3,DVAUNIT          LOAD UNIT TYPE
 00033A 5820 788E            008A8 17308  1                      L     R2,=A(X'0100FFFF')  SET RKDD TO MAXIMUM VALUE
                                   17309  1         C            TRKCALC FUNCTN=TRKBAL,REGSAVE=YES,TYPE=(R3),
 00033E 0700/90EC D00C_                   1                            RKDD=(R2),MAXSIZE=YES
 000370 59F0 7892/4780_      008AC 17333  1                      IF    (R15,NE,8),BEGIN    ASSUME RECORD WON'T FIT
 000378 58E0 7896/0DEE       008B0 17350  2                        ACALL ICHKERR4            UNEXPECTED TRKCALC RETURN
 00037E 47F0 7476            00490 17354  2                        EXIT  INITCKPT            ABORT CHECKPOINTING
 000382                            17357  1                      END   ,
 000382 4000606C                   17361  1                      ST2   R0,ICHKMAXB         SAVE MAXIMUM USEABLE BLOCK
-                                  17364  1                      ¿þþþþþþþþþþþþþþþþþþþþþþþþþþþþþþþþþþþþþþþþþþþþÜ
                                   17365  1                      Ÿ  Calculate RPS sector number for record 1  Ÿ
                                   17366  1                      ¾þþþþþþþþþþþþþþþþþþþþþþþþþþþþþþþþþþþþþþþþþþþþ»
 000386 900F D000            00000 17367  1                      STM   R0,R15,@R13
 00038A 5800 789A            008B4 17368  1                      L     R0,=A(X'00010001')  Just looking for R1 RPS value
 00038E 4120 6068            022D0 17369  1                      LA    R2,CHECKIOS         Put sector no. here
 000392 1FBB/43B0 4003             17370  1                      LC    R11,DVAUNIT         Device type
 000398 58F0 0010            00010 17377  1                      L     R15,CVTPTR          CVT address
 00039C 58F0 F0E8            000E8 17378  1                      L     R15,CVT0SCR1-CVT(,R15)  Sector convert routine addr
 0003A0 4DE0 F010            00010 17379  1                      BAS   R14,@R15+16         Enter sector convert routine
 0003A4 980F D000            00000 17380  1                      LM    R0,R15,@R13         Restore work registers
 DROP   DVTAREA,R4                 17381  1                      DROP  R4                  Release devtype area
0                                  17389  1                      ¿þþþþþþþþþþþþþþþþþþþþþþþþþþþþþÜ
                                   17390  1                      Ÿ  Open the checkpoint file.  Ÿ
                                   17391  1                      ¾þþþþþþþþþþþþþþþþþþþþþþþþþþþþþ»
 0003A8 4140 6000            02268 17392  1                      LA    R4,CHECKDCB         Address of checkpoint DCB
 USING  IHADCB,R4                  17393  1                      WITH  (IHADCB,R4)         Addressability to DCB
 0003AC 4510 739A/8F/0_      003B4 17406  1                      OPEN  (CHECKDCB,(OUTPUT)) Open checkpoint file
 0003B6 9110 4030/4710_00030       17412  1                      IF    ~DCBOFLGS.DCBOFOPN,BEGIN      Check open status
 0003BE 58E0 789E/0DEE       008B8 17428  2                        ACALL ICHKERR5            Report bad open
 0003C4 47F0 7476            00490 17432  2                        EXIT  INITCKPT            Abort checkpoint processing
 0003C8                            17435  1                      END   ,
 0003C8 9680 5018      00018       17439  1                      SET   ICHKOPEN            Set checkpoint dsn open
0                                  17446  1                      ¿þþþþþþþþþþþþþþþþþþþþþþþþþÜ
                                   17447  1                      Ÿ  Validate DASD extents  Ÿ
                                   17448  1                      ¾þþþþþþþþþþþþþþþþþþþþþþþþþ»
 0003CC 5830 402C            0002C 17449  1                      L     R3,DCBDEBAD        Address of deb control block
 USING  DEBBASIC,R3                17450  1                      WITH  (DEBBASIC,R3),BEGIN
 0003D0 9501 3010/4770_00034       17464  2                        IF    (DEBNMEXT,EQ,1),BEGIN   One extent...
1INIT     (INIT4072) (12:46) (15MAR04) WYLBUR's Initialization Routines                                                     Page   12
0Current Usings:  (DEBBASIC,R3) (IHADCB,R4) (ICHKPTWA,R5) (CKPTDATA,R6) (*,R7) (CP,R11) (CV,R12)
0Loc    Object Code    Addr1 Addr2  Stmt Lv Lineno    Source Statement           (Hibal 5, Asmedit 3.3)  HLASM R4.0  2004/03/15 12.46
+___    ______ ____    _____ _____  ____ __ ______    ______ _________
00003D8 4120 3020            00044 17482  3                          LA    R2,DEBBASND
 USING  DEBDASD,R2                 17483  3                          WITH  (DEBDASD,R2)
 0003DC D501 77EE 200E_00808 0000E 17496  3                          IF    (DEBNMTRK,NE,0),EXIT
 0003E6 47F0 7476            00490 17517  3                          EXIT  INITCKPT            EXIT CHECKPOINTING INITIALIZATION
 DROP   DEBDASD,R2                 17520  2                        END
 DROP   DEBBASIC,R3                17529  1                      END
0                                  17538  1                      ¿þþþþþþþþþþþþþþþþþþþþþþþþþþþþþþþþþþþþþþþþþþþþþþþþþÜ
                                   17539  1                      Ÿ  Set MBBCCHHR seek address into checkpoint IOB  Ÿ
                                   17540  1                      ¾þþþþþþþþþþþþþþþþþþþþþþþþþþþþþþþþþþþþþþþþþþþþþþþþþ»
 0003EA 41F0 C9C4            009C4 17541  1                      LA    R15,CVCHKECB        ECB addr
 0003EE 50F0 6044            022AC 17542  1                      ST    R15,CHECKEP         Save ptr in IOB
 0003F2 1B00                       17543  1                      CLEAR R0                  TTRN = Zero
 0003F4 5810 402C            0002C 17547  1                      L     R1,DCBDEBAD         Address of DEB control bloick
 0003F8 4120 6060            022C8 17548  1                      LA    R2,CHECKIOR         Put MBBCCHHR here
 0003FC 909F D000/41D0_      00000 17549  1                      XPUSH R9,R15
 000404 183D                       17552  1                      LR    R3,R13
 000406 58F0 0010            00010 17553  1                      L     R15,CVTPTR
 00040A 58F0 F01C            0001C 17554  1                      L     R15,CVTPCNVT-CVT(,R15)
 00040E 0DEF                       17555  1                      BASR  R14,R15             Convert ttr to mbbcchhr
 000410 18D3                       17556  1                      LR    R13,R3
 000412 4BD0 7928/989F_      00942 17557  1                      XPOP  R9,R15
 DROP   IHADCB,R4                  17560  1                      DROP  R4                  Release checkdcb addressability
-                                  17568  1                      ¿þþþþþþþþþþþþþþþþþþþþþþþþþþþþþþþþþþþþþþþþþþþþþþþÜ
                                   17569  1                      Ÿ  Get I/O buffer (copy of checkpoint record).  Ÿ
                                   17570  1                      ¾þþþþþþþþþþþþþþþþþþþþþþþþþþþþþþþþþþþþþþþþþþþþþþþ»
 00041A 1F00/BF03 606C             17571  1                      L2    R0,ICHKMAXB         Set maximum block possible
 000420 4510 740A/0A0A       00424 17577  1                      GETMAIN R,LV=(0)          Get I/O buffer area
 000426 5010 C9C0            009C0 17581  1                      ST    R1,CVCHKBUF         Save I/O buffer ptr
 00042A BE17 6089            022F1 17582  1                      ST3   R1,CHECKC+1         Save point in read/write ccw
 00042E BE17 60A9            02311 17584  1                      ST3   R1,CHECKFMD+1       Save address in format ccw
0                                  17587  1                      ¿þþþþþþþþþþþþþþþþþþþþþþþþþþþþþþþÜ
                                   17588  1                      Ÿ  Initialize checkpoint track  Ÿ
                                   17589  1                      ¾þþþþþþþþþþþþþþþþþþþþþþþþþþþþþþþ»
 000432 9180 C4C7/47E0_004C7       17590  1                      IF    CVFCFMT,BEGIN       Format requested?
 00043A 58E0 78A2/0DEE       008BC 17605  2                        ACALL CHKPFMT             Format checkpoint record
 000440 4780 742E/47F0_      00448 17609  2                        IF    NZ,'EXIT INITCKPT'  No checkpointing possible
 000448                            17628  1                      END   ,
 000448                            17632  1                      LOOP  BEGIN               Try twice before aborting
 000448 58E0 78A6/0DEE       008C0 17638  2                        ACALL CHKPREAD            Read in checkpoint track
 00044E 4780 745E            00478 17642  2                        IF    Z,EXIT              Successfull, great
 000452 9140 5018/47E0_00018       17656  2                        IF    ICHK2ND,'EXIT INITCKPT' Abort checkpoint processing
 00045E 9640 5018      00018       17679  2                        SET   ICHK2ND                 Indicate we've been here
 000462 9680 C4C7      004C7       17685  2                        SET   CVFCFMT                 Set to format checkpoint
 000466 58E0 78A2/0DEE       008BC 17691  2                        ACALL CHKPFMT                 Format checkpoint record
 00046C 4780 745A/47F0_      00474 17695  2                        IF    NZ,'EXIT INITCKPT'      No checkpointing possible
 000474 47F0 742E            00448 17714  1                      END   ,
1INIT     (INIT4072) (12:46) (15MAR04) WYLBUR's Initialization Routines                                                     Page   13
0Current Usings:  (ICHKPTWA,R5) (CKPTDATA,R6) (*,R7) (CP,R11) (CV,R12)
0Loc    Object Code    Addr1 Addr2  Stmt Lv Lineno    Source Statement           (Hibal 5, Asmedit 3.3)  HLASM R4.0  2004/03/15 12.46
+___    ______ ____    _____ _____  ____ __ ______    ______ _________
0                                  17720  1                      ¿þþþþþþþþþþþþþþþþþþþþþþþþþþþþþþþþþþþþþþþþþþþþþþÜ
                                   17721  1                      Ÿ  Reset IOB control blocks for checkpointing  Ÿ
                                   17722  1                      ¾þþþþþþþþþþþþþþþþþþþþþþþþþþþþþþþþþþþþþþþþþþþþþþ»
 000478 D703 C9C4 C9C4 009C4 009C4 17723  1                      CLEAR CVCHKECB
 00047E 9205 6088      022F0       17730  1                      MVI   CHECKC,X'05'        Write data
 000482 D201 C9E4 C9F4 009E4 009F4 17731  1                      MVC   CVCHKPUC,CVCHKUC    Set previous update count
 000488 927F C9C4      009C4       17732  1                      MVI   CVCHKECB,X'7F'      ECB stays posted (see DISP logic)
 00048C 94BF C4C7      004C7       17733  1                      CLEAR CVFNCHK             Indicate checkpoint is active
 000490                            17740                       END   ,
1INIT     (INIT4072) (12:46) (15MAR04) WYLBUR's Initialization Routines                                                     Page   14
0Current Usings:  (ICHKPTWA,R5) (CKPTDATA,R6) (*,R7) (CP,R11) (CV,R12)
0Loc    Object Code    Addr1 Addr2  Stmt Lv Lineno    Source Statement           (Hibal 5, Asmedit 3.3)  HLASM R4.0  2004/03/15 12.46
+___    ______ ____    _____ _____  ____ __ ______    ______ _________
0                                  17749              ¿þþþþþþþþþþþþþþþþþþþþþþþþþþþþþþþþþþþþþþþþþþþþþþþþþþþþþþþþþþþþþþþþþþþþþÜ
                                   17750              Ÿ                                                                     Ÿ
                                   17751              Ÿ  Complete checkpoint processing                                     Ÿ
                                   17752              Ÿ                                                                     Ÿ
                                                      ¾þþþþþþþþþþþþþþþþþþþþþþþþþþþþþþþþþþþþþþþþþþþþþþþþþþþþþþþþþþþþþþþþþþþþþ»
0000490 9140 C4C7/47E0_004C7       17754                       IF    CVFNCHK,BEGIN       Report checkpointing status
 000498 4110 792A/4100_      00944 17769  1                      XWTO  'No checkpoint processing will be done.'
 0004AA 9180 5018/47E0_00018       17786  1                      IF    ICHKOPEN,BEGIN      Close required on checkpoint
 0004B2 0700/4510 74A2_            17801  2                        CLOSE CHECKDCB            Close checkpoint file
 0004BE                            17807  1                      END   ,
 0004BE D601 C132 C132_00132 00132 17811  1                      IF    (CVMAXSES,Z),BEGIN  Set default number of sessions
                                          2                        ¿þþþþþþþþþþþþþþþþþþþþþþþþþþþþþþþþþþþþþþþþþþþþþÜ
                                   17827  2                        Ÿ  Actually, you can use about anything here  Ÿ
                                          2                        ¾þþþþþþþþþþþþþþþþþþþþþþþþþþþþþþþþþþþþþþþþþþþþþ»
 0004C8 D201 C132 7950 00132 0096A 17828  2                        MVC   CVMAXSES,=AL2(2600) Set 2,600 maximum sessions
 0004CE                            17829  1                      END   ,
 0004CE 74B8/47F0 74CA 004CE 00496 17833                       END   ELSE,BEGIN
 0004D2 4110 7806/4100_      00820 17848  1                      XWTO  'Checkpoint processing is active.'
 0004E4                            17865                       END   ,
00004E4 1F22/BF23 C132             17870                       L2    R2,CVMAXSES         Maximum number of sessions
 0004EA 58F0 C748/58E0_      00748 17878                       SEGCLR L:CVWTOSGP         Declare WTO seg control
 0004F4 4110 78AE/4100_      008C8 17889                       SEGB  'Max session count is'  Report maximum sessions
 000506 1812/1B00/58F0_            17905                       SEGDC (R2)                    Convert session count
 000514 1B00/58F0 C748_            17924                       XWTO  ,                       Issue WTO to console
0                                  17948                       ¿þþþþþþþþþþþþþþþþþþþþþþþþþþþþþþþþþþþþþþþþÜ
                                   17949                       Ÿ  Get buffer for user checkpoint block  Ÿ
                                   17950                       ¾þþþþþþþþþþþþþþþþþþþþþþþþþþþþþþþþþþþþþþþþ»
 000520 1F22/BF23 C132             17951                       L2    R2,CVMAXSES         CV maximum sessions
 000526 4C20 7952            0096C 17959                       MH    R2,=AL2(L'CHKU)     Times checkpoint entry size
 00052A 4020C9E2                   17960                       ST2   R2,CVCHKTLN         Save table length
 00052E 1802                       17962                       LR    R0,R2               Copy table length
 000530 4510 751A/0A0A       00534 17963                       GETMAIN R,LV=(0)          Request system memory
 000536 5010 C9C8            009C8 17967                       ST    R1,CVCHKTAB         User checkpoint table
 00053A 9140 C4C7/47E0_004C7       17968                       IF    CVFNCHK,BEGIN       Zero buffer for no checkpointing
 000542 18E1/18F2/1B11_            17983  1                      ZOT   (R1),(R2)           Clear table
 00054A 7534/47F0 7544 0054A 00540 17996                       END   ELSE,BEGIN          Initialize checkpoint table
 00054E 1801                       18011  1                      LR    R0,R1               Address of checkpoint table
 000550 1812                       18012  1                      LR    R1,R2               Length of checkpoint table
 000552 58E0 C9C0            009C0 18013  1                      L     R14,CVCHKBUF        Address of checkpoint i/o buffer
 000556 5EE0 78CA            008E4 18014  1                      AL    R14,=A(L'CVCHKPFX)  Point to user checkpoint table
 00055A 18F1                       18015  1                      LR    R15,R1              Copy from length
 00055C 0E0E                       18016  1                      MVCL  R0,R14              Setup user checkpoint entries
 00055E                            18017                       END   ,
0                                  18022                       ¿þþþþþþþþþþþþþþþþþþþþþþþþþþþþþþþþþþþþþþþþþþþþþþþþÜ
                                   18023                       Ÿ  Allocate JCB buffers and initialize JCB area  Ÿ
                                   18024                       ¾þþþþþþþþþþþþþþþþþþþþþþþþþþþþþþþþþþþþþþþþþþþþþþþþ»
 00055E 1F22/BF23 C132             18025                       L2    R2,CVMAXSES         CV maximum sessions
 000564 5E20 78CE            008E8 18033                       AL    R2,=A(1)            Maximum JCB's + 1
 000568 1832                       18034                       LR    R3,R2               Copy JCB count
 00056A 4C30 7954            0096E 18035                       MH    R3,=AL2(L'JCB)      Storage required for JCB storage
1INIT     (INIT4072) (12:46) (15MAR04) WYLBUR's Initialization Routines                                                     Page   15
0Current Usings:  (ICHKPTWA,R5) (CKPTDATA,R6) (*,R7) (CP,R11) (CV,R12)
0Loc    Object Code    Addr1 Addr2  Stmt Lv Lineno    Source Statement           (Hibal 5, Asmedit 3.3)  HLASM R4.0  2004/03/15 12.46
+___    ______ ____    _____ _____  ____ __ ______    ______ _________
0                                  18036              *        GETMAIN R,LV=(3)          Request system storage
 00056E 0700/47F0 755E_            18037                       GETMAIN RC,LV=(3),LOC=ANY     Request JCB storage >16M line
 000582 12FF/4780 7586             18050                       IF    (R15,NZ),BEGIN          Unable to obtain storage
 000588 4110 7956/4100_      00970 18064  1                      XWTO  'Insufficient storage for JCB''s'
 00059A 58E0 787E/0DEE       00898 18081  1                      ACALL ICHKTERM                Abort processing
 0005A0                            18085                       END   ,
 0005A0 5010 C1C0            001C0 18089                       ST    R1,CVFJCB           Save address of first JCB
 0005A4 1803                       18090                       LR    R0,R3               Copy JCB storage length
 0005A6 5F00 78D2            008EC 18091                       SL    R0,=A(L'JCB)        Back off one JCB
 0005AA 1E01                       18092                       ALR   R0,R1               Address of last JCB
 0005AC 5000 C1C4            001C4 18093                       ST    R0,CVLJCB           Save address of last JCB
 0005B0 1801                       18094                       LR    R0,R1               Copy address of first JCB
 0005B2 1813                       18095                       LR    R1,R3               And length
 0005B4 1BFF                       18096                       CLEAR R15                 Zero length and pad
 0005B6 0E0E                       18100                       MVCL  R0,R14              Clear jcb buffer area
 0005B8 1B00                       18101                       CLEAR R0                  Zero jcb sequence count
 0005BA 5810 C1C0            001C0 18105                       L     R1,CVFJCB           Address of first jcb
 0005BE                            18106                       LOOP  BEGIN
 USING  JCB,R1                     18112  1                      WITH  (JCB,R1)            Addressability to jcb
 0005BE 4000 1048            00048 18125  1                      STH   R0,JCBSEQ           Set jcb sequence number
 0005C2 9680 1060      00060       18126  1                      SET   JCBWFSO             And awaiting signon
 0005C6 4110 10D0            000D0 18132  1                      LA    R1,JCBNEXT          Point to next jcb
 0005CA 5E00 78CE            008E8 18133  1                      AL    R0,=A(1)            Bump jcb sequence number
 0005CE 4620 75A4            005BE 18134                       WHILE (BCT,R2),END        Initiaze next jcb
 DROP   JCB,R1
-DROP   ICHKPTWA,R5                18148                       DROP  R5                  Release checkpoint addressability
 DROP   CKPTDATA,R6                18155                       DROP  R6                  Release checkpoint data
 0005D2 18D5                       18162                       XPOP  PTR=R5              Release check-point work area
1INIT     (INIT4072) (12:46) (15MAR04) WYLBUR's Initialization Routines                                                     Page   16
0Current Usings:  (*,R7) (CP,R11) (CV,R12)
0Loc    Object Code    Addr1 Addr2  Stmt Lv Lineno    Source Statement           (Hibal 5, Asmedit 3.3)  HLASM R4.0  2004/03/15 12.46
+___    ______ ____    _____ _____  ____ __ ______    ______ _________
0                                  18165                       ¿þþþþþþþþþþþþþþþþþþþþþþþþþþþþþþþþþþþþþþÜ
                                   18166                       Ÿ  Run through and set up page files.  Ÿ
                                   18167                       ¾þþþþþþþþþþþþþþþþþþþþþþþþþþþþþþþþþþþþþþ»
 0005D4 9104 C4C5/47E0_004C5       18168                       IF    CVFFMT,BEGIN        Formatting...
 0005DC 4110 78D6/4100_      008F0 18183  1                      XWTO  'Formatting starting.'
 0005EE                            18200                       END
                                   18204
 0005EE 5850 C1D0            001D0 18205                       L     R5,CVFPFCB          Run through PFCBs
 USING  PFCB,R5                    18206                       USING PFCB,R5
                                   18215
 0005F2 186D/41D0 D018             18216                       XPUSH ,,L'DVTAREA,PTR=R6  Room for DEVTYPE stuff
 USING  DVTAREA,R6                 18219                       USING DVTAREA,R6
 0005F8 4110 5098/4100_      00098 18228              PFOPN    DEVTYPE PFCBDCB+(DCBDDNAM-DCB),DVTAREA,DEVTAB
 000604 12FF/4770 7628             18234                       IF    (R15,NZ),PFNOPN     File not included
 00060A 9520 6002      00002       18251                       CLI   DVACLASS,X'20'      Is file on direct access dev
 00060E 4770 7628            00642 18252                       BNE   PFNOPN              No, ignore it (dd dummy)
 000612 4800 7974            0098E 18253                       LH    R0,=AL2(CVPIOSZ)    Set R0 to blksize
 000616 4110 6000            00000 18254                       LA    R1,DVTAREA          Set R1 to device table
 00061A 58E0 78EA/0DEE       00904 18255                       VCALL CALCTRK             Get no. of records/track
 000620 5010 5014            00014 18259                       ST    R1,PFCBRPT          Save no. of pages/track
                                   18260
 000624 4120 5070            00070 18261                       LA    R2,PFCBDCB          Point at DCB
 000628 4510 7616/0000_      00630 18262                       OPEN  ((R2),(OUTPUT))     Open page file
 00063A 9110 50A0      000A0       18269                       TM    PFCBDCB+(DCBOFLGS-DCB),X'10'  Was open ok?
 00063E 4710 7632            0064C 18270                       BO    PFOPND              Br if so
 000642 1B00/5000 5008             18271              PFNOPN   CLEAR R0,PFCBNP           File not open so has no pages
 000648 47F0 76FE            00718 18281                       B     NEXTPF
                                   18282
 00064C 5820 509C            0009C 18283              PFOPND   L     R2,PFCBDCB+(DCBDEBAD-DCB)  DEB ptr
 USING  DEBBASIC,R2                18284                       WITH  (DEBBASIC,R2),BEGIN
 000650 1F33/4330 2010             18298  1                      LC    R3,DEBNMEXT         No. of extents
 000656 4120 2020            00044 18305  1                      LA    R2,DEBBASND         Device dependent section
 DROP   DEBBASIC,R2                18306                       END
                                   18314
 USING  DEBDASD,R2                 18315                       WITH  (DEBDASD,R2),BEGIN  Device dependent deb section
 00065A 1B11                       18329  1                      CLEAR R1                  Set no. of tracks
                                   18333  1                      ¿þþþþþþþþþþþþþþþþþþþþþþþþþþþþþþþþþþþþþþþþþþþþþþþþþþþþþþþþþþþþÜ
                                   18334  1                      Ÿ  This is a bug fix for a VS1.7K problem having to do with  Ÿ
                                   18335  1                      Ÿ    zero track datasets.                                    Ÿ
                                   18336  1                      ¾þþþþþþþþþþþþþþþþþþþþþþþþþþþþþþþþþþþþþþþþþþþþþþþþþþþþþþþþþþþþ»
 00065C 5930 78CE/4770_      008E8 18337  1                      IF    ((R3,EQ,1),AND,(DEBSTRHH,EQ,X'FFFF')),SKIPIT
 00066E 4A10 200E            0000E 18373  1           CNTTRK     AH    R1,DEBNMTRK         No. tracks in this extent
 000672 4120 2010            00010 18374  1                      LA    R2,DEBDSZDA(,R2)    Size of extent area
 000676 4630 7654            0066E 18375  1                      BCT   R3,CNTTRK           Next extent
 DROP   DEBDASD,R2                 18376                       END
 00067A 5C00 5014            00014 18384              SKIPIT   M     R0,PFCBRPT          Times records/track
 00067E 5010 5008            00008 18385                       ST    R1,PFCBNP           Save no. of pages
 000682 1211/4770 7688             18386                       IF    (R1,Z),BEGIN        Skip PFCB if no pages
 000688 4120 5070            00070 18400  1                      LA    R2,PFCBDCB
 00068C 4510 767A/0000_      00694 18401  1                      CLOSE ((R2))              Tidy up
 00069E 47F0 76FE            00718 18408  1                      B     NEXTPF
 0006A2                            18409                       END
                                   18413
 0006A2 58F0 509C            0009C 18414                       L     R15,PFCBDCB+X'2C'   DCBDEBAD
1INIT     (INIT4072) (12:46) (15MAR04) WYLBUR's Initialization Routines                                                     Page   17
0Current Usings:  (PFCB,R5) (DVTAREA,R6) (*,R7) (CP,R11) (CV,R12)
0Loc    Object Code    Addr1 Addr2  Stmt Lv Lineno    Source Statement           (Hibal 5, Asmedit 3.3)  HLASM R4.0  2004/03/15 12.46
+___    ______ ____    _____ _____  ____ __ ______    ______ _________
00006A6 89F0 0008/88F0_      00008 18415                       CLRHI R15                 For 31-bit addressing mode
 0006AE 58F0 F020            00020 18418                       L     R15,@R15+X'20'      DEBUCBAD
 0006B2 89F0 0008/88F0_      00008 18419                       CLRHI R15                 For 31-bit addressing mode
 0006BA 50F0 5018            00018 18422                       ST    R15,PFCBUCBP        Save UCB ptr
                                   18423                       ¿þþþþþþþþþþþþþþþþþþþþþþþþþþþþþþþþþþþþþþþþþþþþþþÜ
                                   18424                       Ÿ  Build sector number table for RPS devices.  Ÿ
                                   18425                       ¾þþþþþþþþþþþþþþþþþþþþþþþþþþþþþþþþþþþþþþþþþþþþþþ»
 0006BE 9110 6001/47E0_00001       18426                       IF    DVAOPTS+1.X'10',BEGIN     RPS device...
 0006C6 5840 5014            00014 18442  1                      L     R4,PFCBRPT          Get # of records/track
 0006CA 4940 7978            00992 18443  1                      CH    R4,=AL2(PFCBSECM)   Is it within allowed value
 0006CE 4720 76FE            00718 18444  1                      BH    NEXTPF              Br no, don't use RPS
 0006D2 9640 5058      00058       18445  1                      SET   PFCBFRPS            Set that this file has RPS
                                   18451  1           *
                                   18452  1           * Now the resident sector calculation routine is used to
                                   18453  1           *        calculate the sector that should be set for each
                                   18454  1           *        record number.  the sector value is saved in the PFCB
                                   18455  1           *        so that the resident routine is not needed during
                                   18456  1           *        execution.  a description of how to use the routine
                                   18457  1           *        can be found in the xdap portion of the manual data
                                   18458  1           *        management for system programmers.
                                   18459  1           *
 0006D6 4320 6003            00003 18460  1                      IC    R2,DVAUNIT          Get device code for routine
 0006DA 8920 0018            00018 18461  1                      SLL   R2,24               Put in high order byte
 0006DE 4110 505C            0005C 18462  1                      LA    R1,PFCBSECT         Point to first addr
 0006E2 1621                       18463  1                      OR    R2,R1               Set R2 for routine
 0006E4 4800 7974            0098E 18464  1                      LH    R0,=AL2(CVPIOSZ)    Get blksize
 0006E8 8900 0010            00010 18465  1                      SLL   R0,16               Put in left half of register
 0006EC 4110 0001            00001 18466  1                      LA    R1,1                Set constant of 1
 0006F0 1E01                       18467  1                      ALR   R0,R1               Set R0 for first record
 0006F2 58F0 0010            00010 18468  1                      L     R15,16              Point to CVT
 0006F6 58F0 F0E8            000E8 18469  1                      L     R15,CVT0SCR1-CVT(,R15)  Get address of sector routine
 0006FA 58E0 78EE/0DEE       00908 18470  1           CALCSECT   VCALL AMODE24             ********
 000700 900F D000            00000 18474  1                      STM   R0,R15,@R13         Save all registers
 000704 0DEF                       18475  1                      BASR  R14,R15             Go do this record
 000706 980F D000            00000 18476  1                      LM    R0,R15,@R13         Restore all registers
 00070A 58E0 7836/0DEE       00850 18477  1                      VCALL AMODE31             ********
 000710 1E01                       18481  1                      ALR   R0,R1               Step to next record
 000712 1E21                       18482  1                      ALR   R2,R1               Step to next store address
 000714 4640 76E0            006FA 18483  1                      BCT   R4,CALCSECT         Loop until done
 000718                            18484                       END
                                   18488
 000718 9104 C4C5/47E0_004C5       18489              NEXTPF   IF    CVFFMT,BEGIN        Format the page file...
 000720 4110 5000            00000 18505  1                      LA    R1,PFCB
 000724 41F0 6000            00000 18506  1                      LA    R15,DVTAREA
 000728 58E0 78F2/0DEE       0090C 18507  1                      ACALL FMTPFCB             Foramt the page file
 00072E                            18511                       END
                                   18515
 00072E 4150 50A4            000A4 18516                       LA    R5,PFCBNEXT         Next page file
 000732 5550 C1D4            001D4 18517                       CL    R5,CVLPFCB          At end of page files
 000736 4740 75DE            005F8 18518                       BL    PFOPN               Br no to do next file
 DROP   PFCB,R5                    18519                       DROP  PFCB
 00073A 4BD0 797A            00994 18527                       XPOP  ,,L'DVTAREA         Tidy up
 DROP   DVTAREA,R6                 18529                       DROP  DVTAREA
1INIT     (INIT4072) (12:46) (15MAR04) WYLBUR's Initialization Routines                                                     Page   18
0Current Usings:  (*,R7) (CP,R11) (CV,R12)
0Loc    Object Code    Addr1 Addr2  Stmt Lv Lineno    Source Statement           (Hibal 5, Asmedit 3.3)  HLASM R4.0  2004/03/15 12.46
+___    ______ ____    _____ _____  ____ __ ______    ______ _________
0                                  18537                       ¿þþþþþþþþþþþþþþþþþþþþþþþþþþþþþþþþþþþþþþþþþþþþþþþþþþþþþþþÜ
                                   18538                       Ÿ  If no page files are defined then we run in MEMPAGE  Ÿ
                                   18539                       Ÿ    mode.                                              Ÿ
                                   18540                       ¾þþþþþþþþþþþþþþþþþþþþþþþþþþþþþþþþþþþþþþþþþþþþþþþþþþþþþþþ»
 00073E 1B22                       18541                       CLEAR R2                  Number of page buffers
                                   18545
 000740 5850 C1D0            001D0 18546                       L     R5,CVFPFCB          First PFCB
 000744                            18547                       LOOP  BEGIN               Go through PFCBs...
 USING  PFCB,R5                    18553  1                      WITH  (PFCB,R5)
 000744 5E20 5008            00008 18566  1                      AL    R2,PFCBNP           Total page buffer count
 000748 4150 50A4            000A4 18567  1                      LA    R5,PFCBNEXT         Next PFCB
 00074C 5950 C1D4/47A0_      001D4 18568  1                      IF    (R5,GE,CVLPFCB),EXIT  All done, scram
 000754 47F0 772A            00744 18588                       END
 DROP   PFCB,R5
                                   18598
 000758 1222/4770 7752_            18599                       IF    (R2,Z),'SET CVFMEMPAGE; CLEAR CVFRCVY; CLEAR CVNIPG'
1INIT     (INIT4072) (12:46) (15MAR04) WYLBUR's Initialization Routines                                                     Page   19
0Current Usings:  (*,R7) (CP,R11) (CV,R12)
0Loc    Object Code    Addr1 Addr2  Stmt Lv Lineno    Source Statement           (Hibal 5, Asmedit 3.3)  HLASM R4.0  2004/03/15 12.46
+___    ______ ____    _____ _____  ____ __ ______    ______ _________
0                                  18639                       ¿þþþþþþþþþþþþþþþþþþþþþþþþþþþþþþÜ
                                   18640                       Ÿ  Tidy up checkpoint record.  Ÿ
                                   18641                       ¾þþþþþþþþþþþþþþþþþþþþþþþþþþþþþþ»
 00076C 91E0 CA01/4770_00A01       18642                       IF    (CVPGFAUTO+CVPGFREAL+CVPGFVIRT,Z),BEGIN  Odd...
 000774 9620 CA01      00A01       18666  1                      SET   CVPGFAUTO           Assume AUTO
 000778                            18672                       END
                                   18676                       ¿þþþþþþþþþþþþþþþþþþþþþþþþþþþþþÜ
                                   18677                       Ÿ  Set up paging parameters.  Ÿ
                                   18678                       ¾þþþþþþþþþþþþþþþþþþþþþþþþþþþþþ»
 000778 58E0 78F6/0DEE       00910 18679                       VCALL CALCPGC             Set paging parameters
                                   18683
 00077E D603 CDFC CDFC_00DFC 00DFC 18684                       IF    (CVCPUMUL,Z),BEGIN  No CPU multiplier...
                                   18700  1                      AIF   ('&INSTALN' NE 'STANFORD').NOCHFX
 000788 D504 7986 C00C_009A0 0000C 18701  1                      IF    (CVMACHID,EQ,'SYSA '),'MVC CVCPUMUL,=F"18750"'  18.75
                                   18724  1           .NOCHFX    ANOP
 000798                            18725                       END
                                   18729
 000798 41F0 0001/4AF0_      00001 18730                       INCR  R15,CVCHKUC         Force checkpoint I/O
                                   18736                       ¿þþþþþþþþþþþþþþþþþþþþþþþþþþþþþþÜ
                                   18737                       Ÿ  Do general initialization.  Ÿ
                                   18738                       ¾þþþþþþþþþþþþþþþþþþþþþþþþþþþþþþ»
 0007A4 58E0 78FE/0DEE       00918 18739                       VCALL KIOINIT             (Located in TERM)
 0007AA 58E0 7902/0DEE       0091C 18743                       VCALL TIMRINIT            (Located in TERM)
 0007B0 58E0 7906/0DEE       00920 18747                       VCALL DISKINIT            Go init disk I/O
 0007B6 58E0 790A/0DEE       00924 18751                       VCALL DISPINIT            Go initialize dispatcher queues
 0007BC 58E0 790E/0DEE       00928 18755                       VCALL STATINIT            Go initialize statistics
                                   18759                       ¿þþþþþþþþþþþþþþþþþþþþþþþþþÜ
                                   18760                       Ÿ  Final initialization.  Ÿ
                                   18761                       ¾þþþþþþþþþþþþþþþþþþþþþþþþþ»
 0007C2 58E0 7912/0DEE       0092C 18762                       VCALL JESINIT             Go init fetch/run paths
                                   18766
 0007C8 D604 C061 C061_00061 00061 18767                       IF    (CVNOTIFY,Z),BEGIN  Set notification account...
 0007D2 9102 C4C5/47E0_004C5       18783  1                      IF    ~CVFTEST,EXIT       Only set if test system
 0007DA D204 C061 C058 00061 00058 18801  1                      MVC   CVNOTIFY,CVWYLACC   Set notify account
 0007E0                            18802                       END
0                                  18807              *  Call SYMINIT to fill in address not available earlier
 0007E0 58E0 7916/0DEE       00930 18808                       VCALL  SYMINIT            Located in FAIL
0                                  18813
 0007E6 58E0 791A/0DEE       00934 18814                       ACALL RCVYINIT            Setup for recovery
                                   18818
 0007EC 5820 791E            00938 18819                       L     R2,=A(ICMD)
 0007F0 D577 2000 C4D8 00000 004D8 18820                       CLC   @R2(L'ICMD),CVBLANKS  Any first command?
 0007F6 4780 77E4/9604_      007FE 18821                       IF    NE,'SET CVFCMDS'    Yes, set execute first cmd flag
                                   18843
 0007FE 58E0 7922/0DEE       0093C 18844                       VCALL STARTUP             Fire up the dispatcher
 000804 0000                       18848                       DC    H'0'                No return (honest)
 000806 0000/0000                  18849                       LTORG ,
 000810 C3C8D9C9E2E3C140           18852                             =CL8'CHRISTA'
 000818 D9D3C74040404040           18853                             =CL8'RLG'
 000820 C388858392979689           18854                             =C'Checkpoint processing is active.'
 000840 00000000                   18855                             =V(CV)
 000844 00000000                   18856                             =V(LOCALTOD)
1INIT     (INIT4072) (12:46) (15MAR04) WYLBUR's Initialization Routines                                                     Page   20
0Current Usings:  (*,R7) (CP,R11) (CV,R12)
0Loc    Object Code    Addr1 Addr2  Stmt Lv Lineno    Source Statement           (Hibal 5, Asmedit 3.3)  HLASM R4.0  2004/03/15 12.46
+___    ______ ____    _____ _____  ____ __ ______    ______ _________
0000848 00047000                   18857                             =A(X'047000')
 00084C 00008000                   18858                             =A(32*1024)
 000850 00000000                   18859                             =V(AMODE31)
 000854 000007D0                   18860                             =A(CVPATH#*4)
 000858 00000000                   18861                             =V(GETCORE)
 00085C 000007D0                   18862                             =A(CVNET#*4)
 000860 00000000                   18863                             =V(TSEGPLIN)
 000864 0000001C                   18864                             =A(CHRPLEN)
 000868 C3C8D9D7                   18865                             =C'CHRP'
 00086C 00000000                   18866                             =V(RACCHKOP)
 000870 000023E6                   18867                             =A(INITPARM)
 000874 D9D3C740                   18868                             =C'RLG '
 000878 00000000                   18869                             =V(FAILINIT)
 00087C 00000000                   18870                             =V(DBUGINIT)
 000880 00000000                   18871                             =V(INITFUNC)
 000884 00000000                   18872                             =V(INITSYSV)
 000888 00000000                   18873                             =V(INITPROC)
 00088C 00000000                   18874                             =V(INITWLOG)
 000890 00002268                   18875                             =A(CKPTDATA)
 000894 00000000                   18876                             =V(SEGWR)
 000898 00001FE6                   18877                             =A(ICHKTERM)
 00089C 00001FEC                   18878                             =A(ICHKERR1)
 0008A0 00002026                   18879                             =A(ICHKERR2)
 0008A4 00002060                   18880                             =A(ICHKERR3)
 0008A8 0100FFFF                   18881                             =A(X'0100FFFF')
 0008AC 00000008                   18882                             =A(8)
 0008B0 0000209A                   18883                             =A(ICHKERR4)
 0008B4 00010001                   18884                             =A(X'00010001')
 0008B8 000020D4                   18885                             =A(ICHKERR5)
 0008BC 00001D08                   18886                             =A(CHKPFMT)
 0008C0 00001EA8                   18887                             =A(CHKPREAD)
 0008C4 00000000                   18888                             =V(SEGCLR)
 0008C8 D481A740A285A2A2           18889                             =C'Max session count is'
 0008DC 00000000                   18890                             =V(SEGB)
 0008E0 00000000                   18891                             =V(SEGDC)
 0008E4 00000438                   18892                             =A(L'CVCHKPFX)
 0008E8 00000001                   18893                             =A(1)
 0008EC 000000D0                   18894                             =A(L'JCB)
 0008F0 C696999481A3A389           18895                             =C'Formatting starting.'
 000904 00000000                   18896                             =V(CALCTRK)
 000908 00000000                   18897                             =V(AMODE24)
 00090C 0000105A                   18898                             =A(FMTPFCB)
 000910 00000000                   18899                             =V(CALCPGC)
 000914 0000493E                   18900                             =F'18750'
 000918 00000000                   18901                             =V(KIOINIT)
 00091C 00000000                   18902                             =V(TIMRINIT)
 000920 00000000                   18903                             =V(DISKINIT)
 000924 00000000                   18904                             =V(DISPINIT)
 000928 00000000                   18905                             =V(STATINIT)
 00092C 00000000                   18906                             =V(JESINIT)
 000930 00000000                   18907                             =V(SYMINIT)
 000934 000009E6                   18908                             =A(RCVYINIT)
 000938 00002FCD                   18909                             =A(ICMD)
 00093C 00000000                   18910                             =V(STARTUP)
1INIT     (INIT4072) (12:46) (15MAR04) WYLBUR's Initialization Routines                                                     Page   21
0Current Usings:  (*,R7) (CP,R11) (CV,R12)
0Loc    Object Code    Addr1 Addr2  Stmt Lv Lineno    Source Statement           (Hibal 5, Asmedit 3.3)  HLASM R4.0  2004/03/15 12.46
+___    ______ ____    _____ _____  ____ __ ______    ______ _________
0000940 FFFF                       18911                             =H'-1'
 000942 001C                       18912                             =Y((R15+1-(R9)+16*((R9)/(R15+1))/((R9)/(R15+1)))*4)
 000944 D596408388858392           18913                             =C'No checkpoint processing will be done.'
 00096A 0A28                       18914                             =AL2(2600)
 00096C 000C                       18915                             =AL2(L'CHKU)
 00096E 00D0                       18916                             =AL2(L'JCB)
 000970 C995A2A486868983           18917                             =C'Insufficient storage for JCB''s'
 00098E 4F80                       18918                             =AL2(CVPIOSZ)
 000990 FFFF                       18919                             =X'FFFF'
 000992 0013                       18920                             =AL2(PFCBSECM)
 000994 0018                       18921                             =Y((L'DVTAREA+3)/4*4)
 000996 E2E8E2C240                 18922                             =C'SYSB '
 00099B E2E8E2C740                 18923                             =C'SYSG '
 0009A0 E2E8E2C140                 18924                             =C'SYSA '
 0009A5 E2E8E2C340                 18925                             =C'SYSC '
 0009AA E2E8E2C440                 18926                             =C'SYSD '
 0009AF E2E8E2C840                 18927                             =C'SYSH '
 0009B4 E2E8E2C640                 18928                             =C'SYSF '
 0009B9 D4C1E7E2C5E24083           18929                             =C'MAXSES cannot be used without the CFMT option'
1INIT     (INIT4072) (12:46) (15MAR04) WYLBUR's Initialization Routines                                                     Page   22
0Current Usings:  (*,R7) (CP,R11) (CV,R12)
0Loc    Object Code    Addr1 Addr2  Stmt Lv Lineno    Source Statement           (Hibal 5, Asmedit 3.3)  HLASM R4.0  2004/03/15 12.46
+___    ______ ____    _____ _____  ____ __ ______    ______ _________
0                                  18934              ¿þþþþþþþþþþþþþþþþþþþþþþþþþþþþþþþþþþþþþþþþþþþþþþþþþþþþþþþþþþþþþþþþþþþþþÜ
                                   18935              Ÿ                                                                     Ÿ
                                   18936              Ÿ  RCVYINIT -- Routine to queue the users for setup who were logged   Ÿ
                                   18937              Ÿ    on so that these users' ACTIVE files can be recovered.           Ÿ
                                   18938              Ÿ                                                                     Ÿ
                                   18939              Ÿ    This routine also marks the pages in the user's ACTIVE file      Ÿ
                                   18940              Ÿ    as allocated.                                                    Ÿ
                                   18941              Ÿ                                                                     Ÿ
                                                      ¾þþþþþþþþþþþþþþþþþþþþþþþþþþþþþþþþþþþþþþþþþþþþþþþþþþþþþþþþþþþþþþþþþþþþþ»
00009E6 50E0 D000/9028_      00000 18942              RCVYINIT XENTER R2,R8,,LOCAL
 DROP   *,R7
 USING  *,R7
                                   18963                       ¿þþþþþþþþþþþþþþþþþþþþþþþþþþþþþþþþþþþþþþþþþþþþþþþþþÜ
                                   18964                       Ÿ  Just clean up checkpoint area if no recovery.  Ÿ
                                   18965                       ¾þþþþþþþþþþþþþþþþþþþþþþþþþþþþþþþþþþþþþþþþþþþþþþþþþ»
 000A00 9110 C4C5/4710_004C5       18966                       IF    ~CVFRCVY,BEGIN      No recovery...
 000A08 5800 C9C8            009C8 18981  1                      L     R0,CVCHKTAB         Address of checkpoint table
 000A0C 1F11/BF13 C9E2             18982  1                      L2    R1,CVCHKTLN         Set checkpoint table length
 000A12 1BFF                       18990  1                      CLEAR R15                 Zero from length and pad
 000A14 0E0E                       18994  1                      MVCL  R0,R14              Zot checkpoint area to zero
 000A16 41F0 0001/4AF0_      00001 18995  1                      INCR  R15,CVCHKUC         Kick update count
 000A22 47F0 7084            00A84 19001  1                      B     RCVYEXIT            Scram
 000A26                            19002                       END
                                   19006                       ¿þþþþþþþþþþþþþþþþþþþþþþþþþþþþþþþþþþþþþþþþþþþþþÜ
                                   19007                       Ÿ  Setup users who were logged on last time.  Ÿ
                                   19008                       ¾þþþþþþþþþþþþþþþþþþþþþþþþþþþþþþþþþþþþþþþþþþþþþ»
 000A26 5860 C1C0            001C0 19009                       L     JCBR,CVFJCB         First possible user
                                   19010
 000A2A                            19011                       LOOP  BEGIN               Go through users...
 USING  JCB,R6                     19017  1                      WITH  JCB
 000A2A 5060 C1C8            001C8 19029  1                      ST    JCBR,CVCURJCB       Set current JCB
 000A2E 1BBB                       19030  1                      CLEAR CPR                 No CP yet
                                   19034  1
 000A30 58E0 75D8/0DEE       00FD8 19035  1                      ACALL RCVYSET             Rebuild CP if user was logged on
 000A36 4770 7066            00A66 19039  1                      IF    Z,BEGIN             We have a user to recover...
 000A3A 58E0 75DC/0DEE       00FDC 19050  2                        ACALL RCVYCHK             Check we should recover this one
 000A40 4770 7066            00A66 19054  2                        IF    NZ,EXIT             Skip this user
                                   19068  2                        ¿þþþþþþþþþþþþþþþþþþþþþþþþþþþþþþþþþþþþÜ
                                   19069  2                        Ÿ  Put the user on the setup queue.  Ÿ
                                   19070  2                        ¾þþþþþþþþþþþþþþþþþþþþþþþþþþþþþþþþþþþþ»
 000A44 18F6/9610 F062_            19071  2                        SETUP JCB                 Add user to setup queue
                                   19099  2
 000A5A 4100 0001/4A00_      00001 19100  2                        INCR  R0,CVNUSERS         Count user as logged on
 000A66                            19106  1                      END
                                   19110  1
 000A66 4160 60D0            000D0 19111  1                      LA    JCBR,JCBNEXT
 000A6A 5960 C1C4/47A0_      001C4 19112  1                      UNTIL (JCBR,GE,CVLJCB)
 000A72 47F0 702A            00A2A 19133                       END
 DROP   JCB,R6
                                   19143
 000A76 1BBB                       19144                       CLEAR CPR                 No current user (!)
 000A78 D703 C1CC C1CC_001CC 001CC 19148                       CLEAR CVOLDJCB,CVCURJCB   Ditto
                                   19160
1INIT     (INIT4072) (12:46) (15MAR04) WYLBUR's Initialization Routines                                                     Page   23
0Current Usings:  (*,R7) (CP,R11) (CV,R12)
0Loc    Object Code    Addr1 Addr2  Stmt Lv Lineno    Source Statement           (Hibal 5, Asmedit 3.3)  HLASM R4.0  2004/03/15 12.46
+___    ______ ____    _____ _____  ____ __ ______    ______ _________
0000A84 18D8/58E0 D000_            19161              RCVYEXIT XEXIT
 DROP   *,R7                       19166                       DROP  BR
1INIT     (INIT4072) (12:46) (15MAR04) WYLBUR's Initialization Routines                                                     Page   24
0Current Usings:  (CP,R11) (CV,R12)
0Loc    Object Code    Addr1 Addr2  Stmt Lv Lineno    Source Statement           (Hibal 5, Asmedit 3.3)  HLASM R4.0  2004/03/15 12.46
+___    ______ ____    _____ _____  ____ __ ______    ______ _________
0                                  19174              ¿þþþþþþþþþþþþþþþþþþþþþþþþþþþþþþþþþþþþþþþþþþþþþþþþþþþþþþþþþþþþþþþþþþþþþÜ
                                   19175              Ÿ                                                                     Ÿ
                                   19176              Ÿ  RCVYSET -- Routine to update a CP with the recovery checkpoint     Ÿ
                                   19177              Ÿ    information kept for each user.  This routine is called during   Ÿ
                                   19178              Ÿ    ACTIVE file recovery in initialization.                          Ÿ
                                   19179              Ÿ                                                                     Ÿ
                                   19180              Ÿ    On entry:                                                        Ÿ
                                   19181              Ÿ      CVCURJCB - Our JCB                                             Ÿ
                                   19182              Ÿ                                                                     Ÿ
                                   19183              Ÿ    On exit, R15 (and cc):                                           Ÿ
                                   19184              Ÿ      0 - recover this user                                          Ÿ
                                   19185              Ÿ      4 - don't recover this user                                    Ÿ
                                   19186              Ÿ      8 - can't recover this user                                    Ÿ
                                   19187              Ÿ                                                                     Ÿ
                                                      ¾þþþþþþþþþþþþþþþþþþþþþþþþþþþþþþþþþþþþþþþþþþþþþþþþþþþþþþþþþþþþþþþþþþþþþ»
0000A90 50E0 D000/9008_      00000 19188              RCVYSET  PROC
 USING  *,R7
 000AAA 5860 C1C8            001C8 19227                       L     R6,CVCURJCB
 USING  JCB,R6                     19228                       WITH  (JCB,R6)
                                   19241
 000AAE 4850 6048            00048 19242                       LH    R5,JCBSEQ           User's line number
 000AB2 4C50 756A            01014 19243                       MH    R5,=AL2(L'CHKU)     Checkpoint table index
 000AB6 5A50 C9C8            009C8 19244                       A     R5,CVCHKTAB         Our checkpoint entry
 USING  CHKU,R5                    19245                       WITH  (CHKU,R5)
                                   19258
 000ABA 4140 0004            00004 19259                       LA    R4,4                Assume no one logged on
                                   19260                       ¿þþþþþþþþþþþþþþþþþþþþþþþþþþþþþþþÜ
                                   19261                       Ÿ  Reconstruct logged on user.  Ÿ
                                   19262                       ¾þþþþþþþþþþþþþþþþþþþþþþþþþþþþþþþ»
 000ABE D604 5003 5003_00003 00003 19263                       IF    (CHKUACCT,NZ),BEGIN  User was logged on...
 000AC8 58F0 C748/58E0_      00748 19279  1                      SEGCLR L:CVWTOSGP
 000AD2 4110 7594/4100_      0103E 19290  1                      SEG   'Line '
 000AE4 4810 6048/1B00_      00048 19305  1                      SEGDC LH:JCBSEQ
 000AF4 4110 7599/4100_      01043 19323  1                      SEG   ' '
 000B06 4110 5006/4100_      00006 19338  1                      SEG   CHKUACCT+3,2
 000B18 4110 759A/4100_      01044 19365  1                      SEG   '.'
 000B2A 4110 5003/4100_      00003 19380  1                      SEG   CHKUACCT,3
 000B3C 4110 756C/4100_      01016 19407  1                      SEG   ' was logged on'
 000B4E D603 5008 5008_00008 00008 19422  1                      IF    (CHKUPGNO,Z),'SEG " (N)"'
 000B6A 9140 5000/47E0_00000       19458  1                      IF    CHKUFNAR,'SEG " (NR)"'
 000B84 96C0 C4CB      004CB       19493  1                      SET   CVWTOFNOPFX+CVWTOFWTL  WTO logging flags
 000B88 1B00/58F0 C748_            19502  1                      XWTO
 000B94 943F C4CB      004CB       19525  1                      CLEAR CVWTOFNOPFX+CVWTOFWTL  Reset
                                   19535  1
 000B98 947F 6060      00060       19536  1                      CLEAR JCBWFSO             Now logged on (sort of)
 000B9C 9680 6062      00062       19543  1                      SET   JCBAFALO            And also logging off!
                                   19549  1
 000BA0 58E0 754E/0DEE       00FF8 19550  1                      VCALL GETCP               Get a CP
 000BA6 4110 B090            00090 19554  1                      LA    R1,CPNSCAN          Set up scan cb in CP
 000BAA 5010 B08C            0008C 19555  1                      ST    R1,CPNSCANP
 000BAE 58E0 B08C/D7AF_      0008C 19556  1                      SCCLR
 000BBA 50B0 6014            00014 19565  1                      ST    CPR,JCBCPX          Save CP ptr
                                   19566  1
1INIT     (INIT4072) (12:46) (15MAR04) WYLBUR's Initialization Routines                                                     Page   25
0Current Usings:  (CHKU,R5) (JCB,R6) (*,R7) (CP,R11) (CV,R12)
0Loc    Object Code    Addr1 Addr2  Stmt Lv Lineno    Source Statement           (Hibal 5, Asmedit 3.3)  HLASM R4.0  2004/03/15 12.46
+___    ______ ____    _____ _____  ____ __ ______    ______ _________
0000BBE D203 B03C 7552 0003C 00FFC 19567  1                      MVC   CPREGS+(R14*4)(4),=V(RECOVERY)  Set recovery rtn
 000BC4 50B0 B030            00030 19568  1                      ST    CPR,CPREGS+(CPR*4)  Save our CP ptr
 000BC8 50C0 B034            00034 19569  1                      ST    CVR,CPREGS+(CVR*4)  Save CV ptr
 000BCC D204 B3B4 5003 003B4 00003 19570  1                      MVC   CPSACCT,CHKUACCT    User account
 000BD2 D204 604A 5003 0004A 00003 19571  1                      MVC   JCBACCT,CHKUACCT    Set it in JCB too
 000BD8 9140 5000/47E0_00000       19572  1                      IF    CHKUFNAR,'SET CPSSFNAR'  No recovery
 000BE4 9180 5000/47E0_00000       19598  1                      IF    CHKUFPS,'SET CPSSFPS'  Pseudo session
                                   19624  1
 000BF0 D504 75A0 B3B4_0104A 003B4 19625  1                      IF    (CPSACCT,EQ,'JDNGG'),'CLEAR CPSSFNAR'  Hack!
 000BFE D504 75A5 B3B4_0104F 003B4 19654  1                      IF    (CPSACCT,EQ,'LTMGQ'),'CLEAR CPSSFNAR'  Ditto
 000C0C D504 75AA B3B4_01054 003B4 19683  1                      IF    (CPSACCT,EQ,'PCJGQ'),'CLEAR CPSSFNAR'  Ditto
                                   19712  1                      ¿þþþþþþþþþþþþþþþþþþþþþþþþþþþþþþþþþþþþþþþþþþþþþÜ
                                   19713  1                      Ÿ  Reconstruct the Active file record group.  Ÿ
                                   19714  1                      ¾þþþþþþþþþþþþþþþþþþþþþþþþþþþþþþþþþþþþþþþþþþþþþ»
 000C1A 1B44                       19715  1                      CLEAR R4                  Need to recover this user
                                   19719  1
 000C1C 9140 B3BB/4710_003BB       19720  1                      IF    (CPSSFNAR,OR,(CHKUPGNO,Z)),BEGIN  No recovery...
 000C2E D71F B484 B484 00484 00484 19750  2                        CLEAR CPTEXT              Reset (will be initialized later)
 000C34                            19757  1                      END
                                   19761  1
 000C34 718E/47F0 71AE 00C34 00C2C 19762  1                      ELSE  BEGIN               Re-build Active files...
 000C38 5800 5008            00008 19773  2                        L     R0,CHKUPGNO         Root page-number
 000C3C 4110 7556            01000 19774  2                        LA    R1,=CL4'TEXT'       Type of record group
 000C40 41F0 B484            00484 19775  2                        LA    R15,CPTEXT          Active file record group
 000C44 58E0 755A/0DEE       01004 19776  2                        VCALL RGRCVY              Recover and rebuild
 000C4A 4780 71AE            00C58 19780  2                        IF    NZ,BEGIN            Trouble...
 000C4E 58E0 755E/0DEE       01008 19791  3                          ACALL RCVYERR             Complain to management
 000C54 4140 0008            00008 19795  3                          LA    R4,8                Can't recover Active file
 000C58                            19796  2                        END
 000C58                            19800  1                      END
 000C58                            19804                       END
                                   19808
 000C58 18F4                       19809                       LR    R15,R4              Set rc
 000C5A 18D8/9808 D004_            19810                       PEND
 DROP   CHKU,R5
 DROP   JCB,R6
 DROP   *,R7
1INIT     (INIT4072) (12:46) (15MAR04) WYLBUR's Initialization Routines                                                     Page   26
0Current Usings:  (CP,R11) (CV,R12)
0Loc    Object Code    Addr1 Addr2  Stmt Lv Lineno    Source Statement           (Hibal 5, Asmedit 3.3)  HLASM R4.0  2004/03/15 12.46
+___    ______ ____    _____ _____  ____ __ ______    ______ _________
0                                  19841              ¿þþþþþþþþþþþþþþþþþþþþþþþþþþþþþþþþþþþþþþþþþþþþþþþþþþþþþþþþþþþþþþþþþþþþþÜ
                                   19842              Ÿ                                                                     Ÿ
                                   19843              Ÿ  RCVYCHK -- Local routine to process "manual" recovery mode,        Ÿ
                                   19844              Ÿ    where we ask the operator about every user we are planning       Ÿ
                                   19845              Ÿ    to recover.                                                      Ÿ
                                   19846              Ÿ                                                                     Ÿ
                                   19847              Ÿ    On entry:                                                        Ÿ
                                   19848              Ÿ      CP of the current user we are planning to recover              Ÿ
                                   19849              Ÿ                                                                     Ÿ
                                   19850              Ÿ    On exit, R15 (and cc):                                           Ÿ
                                   19851              Ÿ      0 - recover this user                                          Ÿ
                                   19852              Ÿ      4 - don't recover this user                                    Ÿ
                                   19853              Ÿ                                                                     Ÿ
                                                      ¾þþþþþþþþþþþþþþþþþþþþþþþþþþþþþþþþþþþþþþþþþþþþþþþþþþþþþþþþþþþþþþþþþþþþþ»
0000C68 50E0 D000/9028_      00000 19854              RCVYCHK  XENTER R2,R8,,LOCAL
 USING  *,R7
 000C82 1BFF                       19872                       CLEAR R15                 Assume good rc
                                   19876
 000C84 9120 C4C7/47E0_004C7       19877                       IF    CVFMAN,BEGIN        Manual mode...
 000C8C D703 7132 7132_00DB4 00DB4 19892  1           RCVYLOOP   CLEAR WTORECB,WTORREP
 000C98 D201 703A B3B7 00CBC 003B7 19905  1                      MVC   WTORGRP,CPSGRP
 000C9E D202 703D B3B4 00CBF 003B4 19906  1                      MVC   WTORUSER,CPSUSER
                                   19907  1
 000CA4 4510 7046/8000_      00CC8 19908  1           RCVYWTOR   WTOR  'Recover GG.UUU?',WTORREP,L'WTORREP,WTORECB,ROUTCDE=2
                                   19923  1           WTORGRP    EQU   RCVYWTOR+24,2,C'C'
                                   19924  1           WTORUSER   EQU   RCVYWTOR+27,3,C'C'
 000CCA 4100 0001/4110_      00001 19925  1                      WAIT  ECB=WTORECB         Wait for operator
 000CD4 D603 7136 C4D8 00DB8 004D8 19932  1                      OC    WTORREP,CVBLANKS    Caps
                                   19933  1
 000CDA 1BFF                       19934  1                      CLEAR R15                 Assume good rc
 000CDC 95E8 7136/4780_00DB8       19938  1                      IF    ((WTORREP,EQ,'Y'),OR,(WTORREP,EQ,'U')),RCHKEXIT  OK
                                   19974  1
 000CEC 95C1 7136/4770_00DB8       19975  1                      IF    (WTORREP,EQ,'A'),'CLEAR CVFMAN; B RCHKEXIT'
                                   20005  1
 000CFC 95D5 7136/4780_00DB8       20006  1                      IF    (WTORREP,NE,'N'),BEGIN
 000D04 4510 70AC/0022_      00D2E 20023  2                        WTO   'Answer "Recover?" prompt with:',ROUTCDE=2
 000D30 4510 70D0/0019_      00D52 20033  2                        WTO   'Y = Recover this user',ROUTCDE=2
 000D54 4510 70F0/0016_      00D72 20043  2                        WTO   'N = Skip this user',ROUTCDE=2
 000D74 4510 7114/0019_      00D96 20053  2                        WTO   'A = Recover ALL users',ROUTCDE=2
 000D98 47F0 700A            00C8C 20063  2                        B     RCVYLOOP
 000D9C                            20064  1                      END
                                   20068  1
 000D9C 4DE0 728A            00F0C 20069  1                      LCALL RCVYERR             Skip this user
 000DA0 41F0 0004            00004 20071  1                      LA    R15,4               Don't recover this user
 000DA4                            20072                       END
                                   20076
 000DA4 18D8/58E0 D000_            20077              RCHKEXIT XEXIT ,,LTR
 DROP   *,R7                       20083                       DROP  BR
                                   20090
 000DB4                            20091              WTORECB  DS    F
 000DB8                            20092              WTORREP  DS    CL4
1INIT     (INIT4072) (12:46) (15MAR04) WYLBUR's Initialization Routines                                                     Page   27
0Current Usings:  (CP,R11) (CV,R12)
0Loc    Object Code    Addr1 Addr2  Stmt Lv Lineno    Source Statement           (Hibal 5, Asmedit 3.3)  HLASM R4.0  2004/03/15 12.46
+___    ______ ____    _____ _____  ____ __ ______    ______ _________
0000000                00000 0000C 20094              CSETWA   RECORD BEGIN
 000000                            20102  1           CSETCHKU   DS    XL(L'CHKU)          Room for a checkpoint entry
 00000C                0000C 0000C 20103                       END
-                                  20113              ¿þþþþþþþþþþþþþþþþþþþþþþþþþþþþþþþþþþþþþþþþþþþþþþþþþþþþþþþþþþþþþþþþþþþþþÜ
                                   20114              Ÿ                                                                     Ÿ
                                   20115              Ÿ  CHECKSET -- Routine to update the recovery checkpoint              Ÿ
                                   20116              Ÿ    information kept for each user (if it has changed).              Ÿ
                                   20117              Ÿ                                                                     Ÿ
                                                      ¾þþþþþþþþþþþþþþþþþþþþþþþþþþþþþþþþþþþþþþþþþþþþþþþþþþþþþþþþþþþþþþþþþþþþþ»
0000DBC 50E0 D000/9008_      00000 20118              CHECKSET XPROC CSETWA
 USING  *,R7
 USING  CSETWA-(4+36),R8
 000DD6 5850 C1C8            001C8 20169                       L     R5,CVCURJCB
 000DDA 48F0 5048            00048 20170                       WITH  (JCB,R5),'LH R15,JCBSEQ'  User number
 USING  JCB,R5
 DROP   JCB,R5
 000DDE 12FF/4740 7016_            20194                       FAIL  ((R15,NEG),OR,(R15,GT,CVMAXSES)),RTABERR,'Rcvy err.'
 000E04 4CF0 723E            01014 20236                       MH    R15,=AL2(L'CHKU)    Index into user checkpoint table
                                   20237
 000E08 5850 C9C8            009C8 20238                       L     R5,CVCHKTAB
 000E0C 1A5F                       20239                       AR    R5,R15              R5 = Our checkpoint entry
                                   20240                       ¿þþþþþþþþþþþþþþþþþþþþþþþþþþþþþþþþþþþþþþþþþþþþþþþþþþþþþþþþþþþþþÜ
                                   20241                       Ÿ  Build a new recovery checkpoint entry and then compare it  Ÿ
                                   20242                       Ÿ    with the existing one for this user.                     Ÿ
                                   20243                       ¾þþþþþþþþþþþþþþþþþþþþþþþþþþþþþþþþþþþþþþþþþþþþþþþþþþþþþþþþþþþþþ»
 000E0E 4160 8028            00000 20244                       LA    R6,CSETCHKU
 USING  CHKU,R6                    20245                       WITH  (CHKU,R6)
                                   20258
 000E12 D70B 6000 6000 00000 00000 20259                       CLEAR CHKU
 000E18 D604 B3B4 B3B4_003B4 003B4 20266                       IF    (CPSACCT,NZ),BEGIN  Set up CHKU...
 000E22 9120 B3BB/47E0_003BB       20282  1                      IF    CPSSFPS,'SET CHKUFPS'  Pseudo-session
 000E2E 9140 B3BB/47E0_003BB       20308  1                      IF    CPSSFNAR,'SET CHKUFNAR'  No active file recovery
 000E3A D204 6003 B3B4 00003 003B4 20334  1                      MVC   CHKUACCT,CPSACCT    Save account
 000E40 D203 6008 5008 00008 00008 20335  1                      MVC   CHKUPGNO,CHKUPGNO-CHKU(R5)  Preserve pageno
 000E46                            20336                       END
                                   20340                       ¿þþþþþþþþþþþþþþþþþþþþþþþþþþþþþþþþþþþþþþþþþþþþþþþþþþþþþþþþÜ
                                   20341                       Ÿ  If it has changed then update the checkpoint record.  Ÿ
                                   20342                       ¾þþþþþþþþþþþþþþþþþþþþþþþþþþþþþþþþþþþþþþþþþþþþþþþþþþþþþþþþ»
 000E46 D50B 6000 5000_00000 00000 20343                       IF    (@R5,NE,CHKU),BEGIN  Update checkpoint entry...
 000E50 D20B 5000 6000 00000 00000 20360  1                      MVC   @R5(L'CHKU),CHKU    Update our entry
 000E56 41F0 0001/4AF0_      00001 20361  1                      INCR  R15,CVCHKUC         Need to do checkpoint I/O
 000E62                            20367                       END
                                   20371
 000E62 18D8/9808 D004_            20372                       PEND
 DROP   CHKU,R6
 DROP   CSETWA-(4+36),R8
 DROP   *,R7
1INIT     (INIT4072) (12:46) (15MAR04) WYLBUR's Initialization Routines                                                     Page   28
0Current Usings:  (CP,R11) (CV,R12)
0Loc    Object Code    Addr1 Addr2  Stmt Lv Lineno    Source Statement           (Hibal 5, Asmedit 3.3)  HLASM R4.0  2004/03/15 12.46
+___    ______ ____    _____ _____  ____ __ ______    ______ _________
0                                  20403              ¿þþþþþþþþþþþþþþþþþþþþþþþþþþþþþþþþþþþþþþþþþþþþþþþþþþþþþþþþþþþþþþþþþþþþþÜ
                                   20404              Ÿ                                                                     Ÿ
                                   20405              Ÿ  RCVYINFO -- Called by RECS when the root Active file record        Ÿ
                                   20406              Ÿ    group page-number changes.  This page-number is the only         Ÿ
                                   20407              Ÿ    thing that is saved in the checkpoint area.  The recovery        Ÿ
                                   20408              Ÿ    processing must be able to rebuild the Active file record        Ÿ
                                   20409              Ÿ    group from this page-number only.                                Ÿ
                                   20410              Ÿ                                                                     Ÿ
                                   20411              Ÿ    On entry:                                                        Ÿ
                                   20412              Ÿ      R0  - Root page-number                                         Ÿ
                                   20413              Ÿ      @R1 - 4 byte group type name                                   Ÿ
                                   20414              Ÿ                                                                     Ÿ
                                                      ¾þþþþþþþþþþþþþþþþþþþþþþþþþþþþþþþþþþþþþþþþþþþþþþþþþþþþþþþþþþþþþþþþþþþþþ»
0000E70 50E0 D000/9008_      00000 20415              RCVYINFO XPROC
 USING  *,R7
 000E8A D503 7182 1000_0100C 00000 20455                       FAIL  (@R1,NE,'TEXT'),RCVYINFO,'Recovery pageno problem.'
                                   20483                       ¿þþþþþþþþþþþþþþþþþþþþþþþþþþþþþþþþþþþþþþþþÜ
                                   20484                       Ÿ  Update the user's checkpoint record.  Ÿ
                                   20485                       ¾þþþþþþþþþþþþþþþþþþþþþþþþþþþþþþþþþþþþþþþþ»
 000EAC 5850 C1C8            001C8 20486                       L     R5,CVCURJCB
 000EB0 48F0 5048            00048 20487                       WITH  (JCB,R5),'LH R15,JCBSEQ'  User number
 USING  JCB,R5
 DROP   JCB,R5
 000EB4 12FF/4740 7038_            20511                       FAIL  ((R15,NEG),OR,(R15,GT,CVMAXSES)),RTABERR,'Rcvy err.'
 000EDA 4CF0 718A            01014 20553                       MH    R15,=AL2(L'CHKU)    Index into user checkpoint table
                                   20554
 000EDE 5850 C9C8            009C8 20555                       L     R5,CVCHKTAB
 000EE2 1A5F                       20556                       AR    R5,R15              Our checkpoint entry
 USING  CHKU,R5                    20557                       WITH  (CHKU,R5)
                                   20570
 000EE4 5900 5008/4780_      00008 20571                       IF    (R0,NE,CHKUPGNO),BEGIN  Pageno has changed...
 000EEC 5000 5008            00008 20588  1                      ST    R0,CHKUPGNO         Update our entry
 000EF0 41F0 0001/4AF0_      00001 20589  1                      INCR  R15,CVCHKUC         Need to do checkpoint I/O
 000EFC                            20595                       END
                                   20599
 000EFC 1BFF                       20600                       CLEAR R15                 A-ok
 000EFE 18D8/9808 D004_            20604                       PEND
 DROP   CHKU,R5
 DROP   *,R7
1INIT     (INIT4072) (12:46) (15MAR04) WYLBUR's Initialization Routines                                                     Page   29
0Current Usings:  (CP,R11) (CV,R12)
0Loc    Object Code    Addr1 Addr2  Stmt Lv Lineno    Source Statement           (Hibal 5, Asmedit 3.3)  HLASM R4.0  2004/03/15 12.46
+___    ______ ____    _____ _____  ____ __ ______    ______ _________
0                                  20630              ¿þþþþþþþþþþþþþþþþþþþþþþþþþþþþþþþþþþþþþþþþþþþþþþþþþþþþþþþþþþþþþþþþþþþþþÜ
                                   20631              Ÿ                                                                     Ÿ
                                   20632              Ÿ  RCVYERR -- Local routine to cleanup a user that can't be           Ÿ
                                   20633              Ÿ    recovered.                                                       Ÿ
                                   20634              Ÿ                                                                     Ÿ
                                                      ¾þþþþþþþþþþþþþþþþþþþþþþþþþþþþþþþþþþþþþþþþþþþþþþþþþþþþþþþþþþþþþþþþþþþþþ»
0000F0C 50E0 D000/9028_      00000 20635              RCVYERR  XENTER R2,R8,,LOCAL
 USING  *,R7
                                   20653                       ¿þþþþþþþþþþþþþþþþþþþþþþþþþþþþþÜ
                                   20654                       Ÿ  Log the recovery failure.  Ÿ
                                   20655                       ¾þþþþþþþþþþþþþþþþþþþþþþþþþþþþþ»
 000F26 58F0 C748/58E0_      00748 20656                       SEGCLR L:CVWTOSGP
 000F30 4110 70FE/4100_      01024 20667                       SEG   'Unable to recover account '
 000F42 4110 B3B7/4100_      003B7 20682                       SEG   CPSGRP
 000F54 4110 711E/4100_      01044 20707                       SEG   '.'
 000F66 4110 B3B4/4100_      003B4 20722                       SEG   CPSUSER
 000F78 1B00/58F0 C748_            20747                       XWTO
                                   20770                       ¿þþþþþþþþþþþþþþþþþþþþþþþþþþþþþþþþþþþþþþþþþþÜ
                                   20771                       Ÿ  Now reset the user's checkpoint entry.  Ÿ
                                   20772                       ¾þþþþþþþþþþþþþþþþþþþþþþþþþþþþþþþþþþþþþþþþþþ»
 000F84 5860 C1C8            001C8 20773                       L     R6,CVCURJCB
 USING  JCB,R6                     20774                       WITH  (JCB,R6),BEGIN
 000F88 4850 6048            00048 20788  1                      LH    R5,JCBSEQ           User number
 000F8C 4C50 70EE            01014 20789  1                      MH    R5,=AL2(L'CHKU)
 000F90 5A50 C9C8            009C8 20790  1                      A     R5,CVCHKTAB         Checkpoint table entry ptr
 000F94 D70B 5000 5000 00000 00000 20791  1                      XC    @R5(L'CHKU),@R5     Zot entry
 000F9A 41F0 0001/4AF0_      00001 20792  1                      INCR  R15,CVCHKUC         Rewrite checkpoint record
                                   20798  1
 000FA6 D704 604A 604A 0004A 0004A 20799  1                      CLEAR JCBACCT             Reset account
 000FAC 9680 6060      00060       20806  1                      SET   JCBWFSO             Waiting for signon
 000FB0 947F 6062      00062       20812  1                      CLEAR JCBAFALO            Reset "logging off" flag
                                   20819  1
 000FB4 58B0 6014/12BB       00014 20820  1                      LT    CPR,JCBCPX          Need to free the CP?
 000FBA 4780 70A4            00FCA 20824  1                      IF    NZ,BEGIN            Yes...
 000FBE 58E0 70EA/0DEE       01010 20835  2                        VCALL FREECP              Free CP
 000FC4 1BBB/50B0 6014             20839  2                        CLEAR CPR,JCBCPX          Make it official
 000FCA                            20848  1                      END
 DROP   JCB,R6                     20852                       END
 000FCA 18D8/58E0 D000_            20860                       XEXIT
 DROP   *,R7                       20865                       DROP  BR
                                   20872
                                   20873                       QLTORG
1INIT     (INIT4072) (12:46) (15MAR04) WYLBUR's Initialization Routines                                                     Page   30
0Current Usings:  (CP,R11) (CV,R12)
0Loc    Object Code    Addr1 Addr2  Stmt Lv Lineno    Source Statement           (Hibal 5, Asmedit 3.3)  HLASM R4.0  2004/03/15 12.46
+___    ______ ____    _____ _____  ____ __ ______    ______ _________
0                                  20911              ¿þþþþþþþþþþþþþþþþþþþþþþþþþþþþþþþþþþþþþþþþþþþþþþþþþþþþþþþþþþþþþþþþþþþþþÜ
                                   20912              Ÿ                                                                     Ÿ
                                   20913              Ÿ  FMTPFCB -- Local routine to format all the pages in the            Ÿ
                                   20914              Ÿ    specified page file.                                             Ÿ
                                   20915              Ÿ                                                                     Ÿ
                                   20916              Ÿ    On entry:                                                        Ÿ
                                   20917              Ÿ      R1  - PFCB addr                                                Ÿ
                                   20918              Ÿ      R15 - DVTAREA ptr                                              Ÿ
                                   20919              Ÿ                                                                     Ÿ
                                                      ¾þþþþþþþþþþþþþþþþþþþþþþþþþþþþþþþþþþþþþþþþþþþþþþþþþþþþþþþþþþþþþþþþþþþþþ»
0001059 00/50E0 D000/902_          20920              FMTPFCB  XENTER R2,R8,,LOCAL
 USING  *,R7
 001074 1851                       20938                       LR    R5,R1
 USING  PFCB,R5                    20939                       USING PFCB,R5
                                   20948
 001076 186F                       20949                       LR    R6,R15
 USING  DVTAREA,R6                 20950                       USING DVTAREA,R6
                                   20959
 001078 9140 5058/47E0_00058       20960                       IF    PFCBFRPS,BEGIN
 001080 D203 72AC 7244 01320 012B8 20975  1                      MVC   FMTCCWP,=A(FMTCCWSC)  Start chan pgm at set sect
 001086 5800 7248            012BC 20976  1                      L     R0,=A(CVPIOSZ*X'10000')  Blocksize & no key & rec 0
 00108A 4120 72C4            01338 20977  1                      LA    R2,FMTSECT          Put sector no. here
 00108E BF28 6003            00003 20978  1                      ICM   R2,B'1000',DVAUNIT  Device type
 001092 58E0 724C/0DEE       012C0 20979  1                      VCALL AMODE24             ********
 001098 900F D000            00000 20983  1                      STM   R0,R15,@R13
 00109C 58F0 0010            00010 20984  1                      L     R15,CVTPTR
 0010A0 58F0 F0E8            000E8 20985  1                      WITH  (CVT,R15),'L R15,CVT0SCR1'  Get sector no. routine
 USING  CVT,R15
 DROP   CVT,R15
 0010A4 0DEF                       21009  1                      BASR  R14,R15
 0010A6 980F D000            00000 21010  1                      LM    R0,R15,@R13         Restore regs
 0010AA 58E0 7250/0DEE       012C4 21011  1                      VCALL AMODE31             ********
 0010B0                            21015                       END
 0010B0 4110 5070            00070 21019                       LA    R1,PFCBDCB
 0010B4 5010 72B0            01324 21020                       ST    R1,FMTDCBP          Put DCB addr in IOB
                                   21021
 0010B8 4120 0001            00001 21022                       LA    R2,1                Start with first record
 0010BC 5920 5008/4730_      00008 21023              FMTLOOP  WHILE (R2,LE,PFCBNP),BEGIN
 0010C4 1812                       21043  1                      LR    R1,R2
 0010C6 58E0 7254/0DEE       012C8 21044  1                      ACALL CALCSEEK            Get track address for record
 0010CC D201 7272 7279 012E6 012ED 21048  1                      MVC   OLDHH,HH            Save head no
 0010D2 D207 72BC 7274 01330 012E8 21049  1                      MVC   FMTSEEK,MBBCCHHR    Put seek addr in IOB
 0010D8 4130 77BC            01830 21050  1                      LA    R3,CKDS             "count" area
 0010DC 4140 72E4            01358 21051  1                      LA    R4,CCWWRFMT         Dynamic CCW area
 0010E0 5930 7258/47B0_      012CC 21052  1           FMTCHP     WHILE ((R3,LT,=A(CKDSEND)),AND,(R4,LT,=A(CCWWREND))),BEGIN
 0010F0 1812                       21086  2                        LR    R1,R2               Record no
 0010F2 58E0 7254/0DEE       012C8 21087  2                        ACALL CALCSEEK            Get corresponding cchhr
 0010F8 D501 7277 72BF_012EB 01333 21091  2                        IF    (CC,NE,FMTSEEK+3),EXIT  Can't change cylinders
 001102 D501 7279 7272_012ED 012E6 21112  2                        IF    (HH,NE,OLDHH),BEGIN  OK to switch heads, though...
 00110C 5810 509C            0009C 21130  3                          L     R1,PFCBDCB+(DCBDEBAD-DCB)  DEB ptr
 001110 4110 1020            00020 21131  3                          LA    R1,DEBBASND-DEBBASIC(,R1)  Device dep. section of DEB
 USING  DEBDASD,R1                 21132  3                          WITH  (DEBDASD,R1),BEGIN
1INIT     (INIT4072) (12:46) (15MAR04) WYLBUR's Initialization Routines                                                     Page   31
0Current Usings:  (DEBDASD,R1) (PFCB,R5) (DVTAREA,R6) (*,R7) (CP,R11) (CV,R12)
0Loc    Object Code    Addr1 Addr2  Stmt Lv Lineno    Source Statement           (Hibal 5, Asmedit 3.3)  HLASM R4.0  2004/03/15 12.46
+___    ______ ____    _____ _____  ____ __ ______    ______ _________
0                                  21146  4                        ¿þþþþþþþþþþþþþþþþþþþþþþþþþþþþþþþþþþþþþþþþþþþþþþþþþþþþþþþþþþþþþþþþþþþÜ
                                   21147  4                        Ÿ   DEBDVMOD has the filemask for this dataset.  The filemask will  Ÿ
                                   21148  4                        Ÿ  allow seek heads only if the dataset was allocated by cylinder.  Ÿ
                                   21149  4                        ¾þþþþþþþþþþþþþþþþþþþþþþþþþþþþþþþþþþþþþþþþþþþþþþþþþþþþþþþþþþþþþþþþþþþ»
 001114 9118 1000/47B0_00000       21150  4                            IF    (DEBDVMOD.X'18',~MIX),EXIT,FMTCHP   Shucks
 DROP   DEBDASD,R1                 21171  3                          END
 00111C D201 7272 7279 012E6 012ED 21179  3                          MVC   OLDHH,HH            Save new head no
 001122 D207 3000 7274 00000 012E8 21180  3                          MVC   @R3(8),MBBCCHHR
 001128 18F3                       21181  3                          LR    R15,R3              Save track addr ptr
 00112A 4130 3008            00008 21182  3                          LA    R3,@R3+8
 00112E D207 4000 727C 00000 012F0 21183  3                          MVC   @R4(8),CCWSEEKH     Seek head CCW
 001134 41F0 F001            00001 21184  3                          LA    R15,@R15+1          Skip over "m"
 001138 BEF7 4001            00001 21185  3                          ST3   R15,@R4+1           Put bbcchh ptr in seek head
 00113C D207 4008 7284 00008 012F8 21187  3                          MVC   @R4+8(8),CCWSEQ     Search id eq
 001142 41F0 F002            00002 21188  3                          LA    R15,@R15+2          Skip over "bb"
 001146 BEF7 4009            00009 21189  3                          ST3   R15,@R4+8+1         Plant cchhr ptr in search ideq
 00114A D207 4010 728C 00010 01300 21191  3                          MVC   @R4+16(8),CCWTIC    Famous tic *-8
 001150 41F0 4008            00008 21192  3                          LA    R15,@R4+8
 001154 BEF7 4011            00011 21193  3                          ST3   R15,@R4+16+1        Don't forget the "*-8" part
 001158 4140 4018            00018 21195  3                          LA    R4,@R4+3*8          Three ccws later
 00115C                            21196  2                        END
                                   21200  2                        ¿þþþþþþþþþþþþþþþþþþþþþþþþþþþþþþþþþþþþþþþþþþþþþþþþþþþþþÜ
                                   21201  2                        Ÿ  Now construct count (for write count, key, data).  Ÿ
                                   21202  2                        ¾þþþþþþþþþþþþþþþþþþþþþþþþþþþþþþþþþþþþþþþþþþþþþþþþþþþþþ»
 00115C D207 4000 7294 00000 01308 21203  2                        MVC   @R4(8),CCWWRCKD     Write ckd
 001162 BE37 4001            00001 21204  2                        ST3   R3,@R4+1            Addr of count
 001166 4140 4008            00008 21206  2                        LA    R4,@R4+8
 00116A D203 3000 7277 00000 012EB 21207  2                        MVC   @R3(4),CC           Move in cchh
 001170 1FFF/43F0 727B             21208  2                        LC    R15,R
 001176 41F0 F001            00001 21215  2                        LA    R15,@R15+1          Readjust "r"
 00117A 42F0 3004            00004 21216  2                        STC   R15,@R3+4           Put it in count area
 00117E 9200 3005      00005       21217  2                        CLEAR (@R3+5,1)           Key len
 001182 D201 3006 726C 00006 012E0 21224  2                        MVC   @R3+6(2),=AL2(CVPIOSZ)  I/O buffer length
 001188 4130 3008            00008 21225  2                        LA    R3,@R3+8
 00118C 4120 2001            00001 21226  2                        LA    R2,@R2+1            Next record
 001190 5920 5008/4720_      00008 21227  2                        IF    (R2,GT,PFCBNP),EXIT All done
 001198 47F0 706C            010E0 21247  1                      END
 00119C 4B40 726E            012E2 21252  1                      SH    R4,=H'8'            Back up
 0011A0 94BF 4004      00004       21253  1                      CLEAR @R4+4.X'40'         Reset command chaining on last CCW
 0011A4 4110 729C/0A00       01310 21261  1                      EXCP  FMTIOB
 0011AA 4100 0001/4110_      00001 21265  1                      WAIT  ECB=FMTECB
 0011B4 957F 72C8/4780_0133C       21272  1                      FAIL  (FMTECB,NE,X'7F'),PGIOERR,'I/O error during formatting'
 0011D4 9200 72C8      0133C       21301  1                      CLEAR (FMTECB,1)          Reset ECB
 0011D8 47F0 7048            010BC 21308                       END
 0011DC 0620                       21313                       DECR  R2                  No. of pages in this pagefile
                                   21315
 0011DE 1222/4780 71AC             21316                       IF    (R2,NZ),BEGIN       WTO formatted message...
 0011E4 1812/1B00/58F0_            21330  1                      SEGDC (R2),,L:CVWTOSGP
 0011F2 4110 722C/4100_      012A0 21349  1                      SEG   ' pages formatted on PAGE'
 001204 5810 5004/1B00_      00004 21364  1                      SEGDC L:PFCBNO
 001214 1B00/58F0 C748_            21383  1                      XWTO
 001220                            21406                       END
 001220 18D8/58E0 D000_            21410                       XEXIT
 DROP   PFCB,R5                    21415                       DROP  PFCB,DVTAREA,BR
1INIT     (INIT4072) (12:46) (15MAR04) WYLBUR's Initialization Routines                                                     Page   32
0Current Usings:  (CP,R11) (CV,R12)
0Loc    Object Code    Addr1 Addr2  Stmt Lv Lineno    Source Statement           (Hibal 5, Asmedit 3.3)  HLASM R4.0  2004/03/15 12.46
+___    ______ ____    _____ _____  ____ __ ______    ______ _________
0DROP   DVTAREA,R6
 DROP   *,R7
1INIT     (INIT4072) (12:46) (15MAR04) WYLBUR's Initialization Routines                                                     Page   33
0Current Usings:  (CP,R11) (CV,R12)
0Loc    Object Code    Addr1 Addr2  Stmt Lv Lineno    Source Statement           (Hibal 5, Asmedit 3.3)  HLASM R4.0  2004/03/15 12.46
+___    ______ ____    _____ _____  ____ __ ______    ______ _________
0                                  21437              ¿þþþþþþþþþþþþþþþþþþþþþþþþþþþþþþþþþþþþþþþþþþþþþþþþþþþþþþþþþþþþþþþþþþþþþÜ
                                   21438              Ÿ                                                                     Ÿ
                                   21439              Ÿ  CALCSEEK -- Routine to calculate MBBCCHHR from record no in R1.    Ÿ
                                   21440              Ÿ       with the assumption that R5 points to the PFCB.               Ÿ
                                   21441              Ÿ       Also: the 'R' part of the MBBCCHHR is actually 'R-1'.         Ÿ
                                   21442              Ÿ                                                                     Ÿ
                                                      ¾þþþþþþþþþþþþþþþþþþþþþþþþþþþþþþþþþþþþþþþþþþþþþþþþþþþþþþþþþþþþþþþþþþþþþ»
000122C 50E0 D000/9028_      00000 21443              CALCSEEK XENTER R2,R8,,LOCAL
 USING  *,R7
 USING  PFCB,R5                    21461                       WITH  (PFCB,R5),BEGIN
 001246 1B00                       21475  1                      CLEAR R0
 001248 0610                       21479  1                      DECR  R1
 00124A 5D00 5014            00014 21481  1                      D     R0,PFCBRPT          Result: R1=tt, R0=r
 00124E 8900 0008            00008 21482  1                      SLL   R0,8
 001252 8910 0010            00010 21483  1                      SLL   R1,16
 001256 1601                       21484  1                      OR    R0,R1               Forms "ttrz"
 001258 4110 5070            00070 21485  1                      LA    R1,PFCBDCB
 00125C 5810 102C            0002C 21486  1                      L     R1,DCBDEBAD-DCB(,R1)  DEB
 001260 4120 70A2            012E8 21487  1                      LA    R2,MBBCCHHR
 001264 58E0 707A/0DEE       012C0 21488  1                      VCALL AMODE24             ********
 00126A 909F D000/41D0_      00000 21492  1                      XPUSH R9,R15              Save regs destroyed by convert rtn
 001272 183D                       21495  1                      LR    R3,R13              Save stack ptr too
 001274 58F0 0010            00010 21496  1                      L     R15,16              CVT
 001278 58F0 F01C            0001C 21497  1                      L     R15,@R15+28         Ttr to mbbcchhr convert routine
 00127C 0DEF                       21498  1                      BASR  R14,R15
 00127E 18D3                       21499  1                      LR    R13,R3
 001280 4BD0 709E/989F_      012E4 21500  1                      XPOP  R9,R15              Get our regs back
 001288 58E0 707E/0DEE       012C4 21503  1                      VCALL AMODE31             ********
 DROP   PFCB,R5                    21507                       END
 00128E 18D8/58E0 D000_            21515                       XEXIT
 DROP   *,R7                       21520                       DROP  BR
-                                  21528                       QLTORG
1INIT     (INIT4072) (12:46) (15MAR04) WYLBUR's Initialization Routines                                                     Page   34
0Current Usings:  (CP,R11) (CV,R12)
0Loc    Object Code    Addr1 Addr2  Stmt Lv Lineno    Source Statement           (Hibal 5, Asmedit 3.3)  HLASM R4.0  2004/03/15 12.46
+___    ______ ____    _____ _____  ____ __ ______    ______ _________
00012E6                            21555              OLDHH    DS    XL2
                                   21556
 0012E8                            21557              MBBCCHHR DS    D
                                   21558              BB       EQU   MBBCCHHR+1,2,C'X'
                                   21559              CC       EQU   MBBCCHHR+3,2,C'X'
                                   21560              HH       EQU   MBBCCHHR+5,2,C'X'
                                   21561              R        EQU   MBBCCHHR+7,1,C'X'
                                   21562
 0012F0 1B00000040000006           21563              CCWSEEKH CCW   X'1B',0,X'40',6     Seek head
 0012F8 3100000040000005           21564              CCWSEQ   CCW   X'31',0,X'40',5     Search id eq
 001300 0800000000000000           21565              CCWTIC   CCW   X'08',0,0,0         Tic
 001308 1D00000060000008           21566              CCWWRCKD CCW   X'1D',0,X'60',8     Write, count, key, and data
                                   21567
 001310                            21568                       DS    0F
 001310 420000000000133C           21569              FMTIOB   DC    X'42',XL4'00',AL3(FMTECB),2A(0)
 001320 00001348                   21570              FMTCCWP  DC    A(FMTCCWS)          Chan pgm ptr
 001324 00000000                   21571              FMTDCBP  DC    A(0)                DCB ptr
 001328 0000000000000000           21572                       DC    2A(0)
 001330 0000000000000000           21573              FMTSEEK  DC    XL8'00'             Seek address
                                   21574
 001338 00                         21575              FMTSECT  DC    X'00'               Sector no, if RPS device
                                   21576
 001339 000000
 00133C 00000000                   21577              FMTECB   DC    F'0'
                                   21578
 001340 2300133840000001           21579              FMTCCWSC CCW   X'23',FMTSECT,X'40',1  Set sector
 001348 3100133340000005           21580              FMTCCWS  CCW   X'31',FMTSEEK+3,X'40',5  Search id eq
 001350 0800134800000000           21581                       CCW   X'08',*-8,0,0       Tic *-8
 001358                            21582              CCWWRFMT DS    150D                A lot of CCWs
                                   21583              CCWWREND EQU   *
 001808                            21584                       DS    5D                  Slop
                                   21585
 001830                            21586              CKDS     DS    (8*150)X
                                   21587              CKDSEND  EQU   *
 001CE0                            21588                       DS    (8*5)X              Slop
1INIT     (INIT4072) (12:46) (15MAR04) WYLBUR's Initialization Routines                                                     Page   35
0Current Usings:  (CP,R11) (CV,R12)
0Loc    Object Code    Addr1 Addr2  Stmt Lv Lineno    Source Statement           (Hibal 5, Asmedit 3.3)  HLASM R4.0  2004/03/15 12.46
+___    ______ ____    _____ _____  ____ __ ______    ______ _________
0                                  21590              ¿þþþþþþþþþþþþþþþþþþþþþþþþþþþþþþþþþþþþþþþþþþþþþþþþþþþþþþþþþþþþþþþþþþþþþÜ
                                   21591              Ÿ                                                                     Ÿ
                                   21592              Ÿ  WYLBUR Checkpoint processing global data                           Ÿ
                                   21593              Ÿ                                                                     Ÿ
                                                      ¾þþþþþþþþþþþþþþþþþþþþþþþþþþþþþþþþþþþþþþþþþþþþþþþþþþþþþþþþþþþþþþþþþþþþþ»
-002263                02263 03168 21595                       DATA  BEGIN
                                   21600  1                      ENTRY CHECKIOB
 002263 0000000000                        1
 002268                            21601  1           CKPTDATA   DC    0D'0'               START OF CHECKPOINT DATA
                                   21602  1         C CHECKDCB   DCB   DDNAME=CHECK,MACRF=E,EXLST=CHECKXL,RECFM=F,DSORG=PS,
 002268 0000000000000000_                 1                            DEVD=DA
000229C 110023D0                   21628  1           CHECKXL    DC    A(X'11000000'+CHECKABN) DCB ABEND EXIT
 0022A0 87002318                   21629  1                      DC    A(X'87000000'+CHKJFCB)  JFCB ADDRESS
                                   21630  1
 0022A4 00000000                          1
 0022A8 42000000                   21631  1           CHECKIOB   DC    0D'0',X'42',XL3'00'
 0022AC 00000000                   21632  1           CHECKEP    DC    A(*-*)
 0022B0 0000000000000000           21633  1           CHECKCSW   DC    A(0,0)
 0022B8 000022D800002268           21634  1           CHECKIOC   DC    A(CHECKCCW,CHECKDCB,0,0)
 0022C8 0000000000000000           21635  1           CHECKIOR   DC    XL8'00'             Seek address
 0022D0 00                         21636  1           CHECKIOS   DC    X'00'               Sector number, if RPS device
 0022D1 000000                            1
 0022D4                            21637  1                      DC    0A(0)               ALIGNMENT
 0022D4 0000                       21638  1           ICHKMAXB   DC    AL2(0)              MAXIMUM USEABLE BLOCKSIZE
                                   21639  1
 0022D6 0000                              1
 0022D8 230022D040000001           21640  1           CHECKCCW   CCW   X'23',CHECKIOS,X'40',1    .Set sector
 0022E0 310022CB40000005           21641  1                      CCW   X'31',CHECKIOR+3,X'40',5  .Search id eq
 0022E8 080022E000000000           21642  1                      CCW   X'08',*-8,0,0             .Tic *-8
 0022F0 0600000000000000           21643  1           CHECKC     CCW   X'06',*-*,0,0             .Read checkpoint record
00022F8 310022CB40000005           21645  1           CHECKFMT   CCW   X'31',CHECKIOR+3,X'40',5  .Search ID equal
 002300 080022F800000000           21646  1                      CCW   X'08',*-8,0,0             .TIC *-8
 002308 1D00000080000008           21647  1           CHECKFMC   CCW   X'1D',*-*,X'80',8         .Write CKD (Count field)
 002310 0000000000000000           21648  1           CHECKFMD   CCW   X'00',*-*,0,0             .Checkpoint record
0002318 0000000000000000           21650  1           CHKJFCB    DC    XL176'00'
 0023C8 C3C3C8C8D9D2C4C4           21651  1           ICHKCNTF   DC    C'CCHHRKDD'         RECORD 1 COUNT AREA
 001D08                012E6 03168 21652                       END   ,
1INIT     (INIT4072) (12:46) (15MAR04) WYLBUR's Initialization Routines                                                     Page   36
0Current Usings:  (CP,R11) (CV,R12)
0Loc    Object Code    Addr1 Addr2  Stmt Lv Lineno    Source Statement           (Hibal 5, Asmedit 3.3)  HLASM R4.0  2004/03/15 12.46
+___    ______ ____    _____ _____  ____ __ ______    ______ _________
0                                  21659              ¿þþþþþþþþþþþþþþþþþþþþþþþþþþþþþþþþþþþþþþþþþþþþþþþþþþþþþþþþþþþþþþþþþþþþþÜ
                                   21660              Ÿ        Format the Checkpoint record.                                Ÿ
                                   21661              Ÿ                                                                     Ÿ
                                   21662              Ÿ              The CVFCFMT flag must be set to change the size        Ÿ
                                   21663              Ÿ              of the check-point record.                             Ÿ
                                   21664              Ÿ                                                                     Ÿ
                                                      ¾þþþþþþþþþþþþþþþþþþþþþþþþþþþþþþþþþþþþþþþþþþþþþþþþþþþþþþþþþþþþþþþþþþþþþ»
0001D08 50E0 D000/9008_      00000 21665              CHKPFMT  PROC  ,
 USING  *,R7
 001D22 1F00/BF03 75B2             21704                       L2    R0,ICHKMAXB         Load maximum useable block
 001D28 5F00 743E            02160 21710                       SL    R0,=A(L'CVCHKPFX)      -  less prefix length
 001D2C 5F00 7442            02164 21711                       SL    R0,=A(L'CVCHKSFX)      -  less suffix amount
 001D30 8E00 0020            00020 21712                       SRDA  R0,32                    shift over
 001D34 5D00 7446            02168 21713                       D     R0,=A(L'CHKU)            divide by entry length
 001D38 D601 C132 C132_00132 00132 21714                       IF    (CVMAXSES,NZ),BEGIN Utilize entire track
 001D42 1F22/BF23 C132             21730  1                      L2    R2,CVMAXSES         Load passed session count
 001D48 1921/47D0 707C             21738  1                      IF    (R2,GT,R1),BEGIN    Insure within track boundary
 001D4E 1831                       21753  2                        LR    R3,R1               Preserve maximum computed value
 001D50 4110 74C6/4100_      021E8 21754  2                        SEG   'MAXSES='           Report error to main console
 001D62 1812/1B00/58F0_            21769  2                        SEGDC (R2)                Convert requested number
 001D70 4110 74CD/4100_      021EF 21788  2                        SEG   ' is too large, using ' Continue message
 001D82 1813/1B00/58F0_            21803  2                        SEGDC (R3)                    Convert maximum sessions
 001D90 1B00/58F0 C748_            21822  2                        XWTO  ,                       Report to console
 001D9C 1813                       21845  2                        LR    R1,R3                   Restore maximum session size
 001D9E 7080/47F0 7082 01D9E 01D4C 21846  1                      END   ELSE,BEGIN          Utilize passed CVMAXSES value
 001DA2 1812                       21861  2                        LR    R1,R2               Load passed value
 001DA4                            21862  1                      END   ,
 001DA4                            21866                       END   ,
 001DA4 4010C132                   21870                       ST2   R1,CVMAXSES         Save maximum session count
 001DA8 5C00 7446            02168 21872                       M     R0,=A(L'CHKU)       Compute table length
 001DAC 4010C9E2                   21873                       ST2   R1,CVCHKTLN         Save user table length
 001DB0 5E10 743E            02160 21875                       AL    R1,=A(L'CVCHKPFX)     +  prefix length
 001DB4 5E10 7442            02164 21876                       AL    R1,=A(L'CVCHKSFX)     +  suffix length
 001DB8 4010C9E0                   21877                       ST2   R1,CVCHKLEN         Update actual disk record length
 001DBC 4120 75F6            02318 21879                       LA    R2,CHKJFCB          Address of jfcb
 USING  JFDSECT,R2                 21880                       WITH  (JFDSECT,R2),BEGIN
 001DC0 4510 70A6/80/0_      01DC8 21894  1                      CLOSE CHECKDCB            Close checkpoint file
 001DCA 0700/4510 70B2_            21900  1                      RDJFCB (CHECKDCB,(OUTPUT))    obtain jfcb to reset dscb
 001DD6 1F11/BF13 C9E0             21907  1                      L2    R1,CVCHKLEN             Load checkpoint record size
 001DDC 40102066                   21915  1                      ST2   R1,JFCBLKSI             update blksize field
 001DE0 40102068                   21917  1                      ST2   R1,JFCLRECL             update lrecl field
 001DE4 4510 70CA/8F/0_      01DEC 21919  1                      OPEN  (CHECKDCB,(OUTPUT)),TYPE=J    Re-open checkpoint
 DROP   JFDSECT,R2                 21925                       END   ,
-001DEE 58E0 C9C0            009C0 21934                       L     R14,CVCHKBUF        Checkpoint i/o buffer address
 001DF2 41F0 0438            00438 21935                       LA    R15,L'CVCHKPFX      Length of chkpt prefix
 001DF6 4100 C9F0            009F0 21936                       LA    R0,CVCHKPFX         Address of prefix
 001DFA 181F                       21937                       LR    R1,R15              Copy length
 001DFC 0EE0                       21938                       MVCL  R14,R0              Move in prefix
0001DFE 1FFF/BFF3 C9E2             21940                       L2    R15,CVCHKTLN        Length of checkpoint table
 001E04 1B11                       21948                       CLEAR R1                  Zorch from length and pad
1INIT     (INIT4072) (12:46) (15MAR04) WYLBUR's Initialization Routines                                                     Page   37
0Current Usings:  (*,R7) (CP,R11) (CV,R12)
0Loc    Object Code    Addr1 Addr2  Stmt Lv Lineno    Source Statement           (Hibal 5, Asmedit 3.3)  HLASM R4.0  2004/03/15 12.46
+___    ______ ____    _____ _____  ____ __ ______    ______ _________
0001E06 0EE0                       21952                       MVCL  R14,R0              Move in initial table
0001E08 41F0 0008            00008 21954                       LA    R15,L'CVCHKSFX      Length of suffix
 001E0C 4100 CE28            00E28 21955                       LA    R0,CVCHKSFX         Address of suffix
 001E10 181F                       21956                       LR    R1,R15              Copy length
 001E12 0EE0                       21957                       MVCL  R14,R0              Copy in suffix
0001E14 D703 C9C4 C9C4 009C4 009C4 21959                       CLEAR CVCHKECB            Reset ecb (safety)
 001E1A 4110 75D6            022F8 21966                       LA    R1,CHECKFMT         Address of ccw formating start
 001E1E 5010 7596            022B8 21967                       ST    R1,CHECKIOC         Set iob ccw channel program start
 001E22 9242 7586      022A8       21968                       MVI   CHECKIOB,X'42'
 001E26 9200 75AD      022CF       21969                       MVI   CHECKIOR+7,0        Record 0
 001E2A 4110 76A6            023C8 21970                       LA    R1,ICHKCNTF         Address of cchhrkdd
 001E2E BE17 75E7            02309 21971                       ST3   R1,CHECKFMC+1       Point to data
 001E32 D203 1000 75A9 00000 022CB 21973                       MVC   @R1(4),CHECKIOR+3   Cchh
 001E38 D201 1004 747A 00004 0219C 21974                       MVC   @R1+4(2),=X'0100'   Counts
 001E3E D201 1006 C9E0 00006 009E0 21975                       MVC   @R1+6(2),CVCHKLEN   Counts
 001E44 1F11/BF13 C9E0             21976                       L2    R1,CVCHKLEN         Length of checkpoint record
 001E4A 401075F4                   21984                       ST2   R1,CHECKFMD+6       Set length into ccw read
 001E4E 4110 7586/0A00       022A8 21986                       EXCP  CHECKIOB            Format and write data
 001E54 4100 0001/4110_      00001 21990                       WAIT  ECB=CVCHKECB
 001E5E 957F C9C4/4780_009C4       21997                       IF    (CVCHKECB,NE,X'7F'),BEGIN
 001E66 4110 73EE/4100_      02110 22014  1                      XWTO  'Checkpoint I/O error.  no checkpointing.'
 001E78 41F0 000C            0000C 22031  1                      LA    R15,12                  abort checkpointing
 001E7C 715E/47F0 7178 01E7C 01E64 22032                       END   ELSE,BEGIN
 001E80 D703 C9C4 C9C4 009C4 009C4 22047  1                      CLEAR CVCHKECB
 001E86 4110 7456/4100_      02178 22054  1                      XWTO  'Checkpoint record formatted.'
 001E98 1BFF                       22071  1                      CLEAR R15                 Zero return code
 001E9A                            22075                       END   ,
 001E9A 18D8/9808 D004_            22079                       PEND  ,
 DROP   *,R7
1INIT     (INIT4072) (12:46) (15MAR04) WYLBUR's Initialization Routines                                                     Page   38
0Current Usings:  (CP,R11) (CV,R12)
0Loc    Object Code    Addr1 Addr2  Stmt Lv Lineno    Source Statement           (Hibal 5, Asmedit 3.3)  HLASM R4.0  2004/03/15 12.46
+___    ______ ____    _____ _____  ____ __ ______    ______ _________
0                                  22100              ¿þþþþþþþþþþþþþþþþþþþþþþþþþþþþþþþþþþþþþþþþþþþþþþþþþþþþþþþþþþþþþþþþþþþþþÜ
                                   22101              Ÿ                                                                     Ÿ
                                   22102              Ÿ  Read checkpoint record                                             Ÿ
                                   22103              Ÿ                                                                     Ÿ
                                                      ¾þþþþþþþþþþþþþþþþþþþþþþþþþþþþþþþþþþþþþþþþþþþþþþþþþþþþþþþþþþþþþþþþþþþþþ»
0001EA8 50E0 D000/9008_      00000 22104              CHKPREAD PROC  ,
 USING  *,R7
 001EC2 D703 C9C4 C9C4 009C4 009C4 22143                       CLEAR CVCHKECB            Reset ecb (safety)
 001EC8 4110 7416            022D8 22150                       LA    R1,CHECKCCW         Address of checkpint read chain
 001ECC 5010 73F6            022B8 22151                       ST    R1,CHECKIOC         Set iob ccw channel program start
 001ED0 9242 73E6      022A8       22152                       MVI   CHECKIOB,X'42'      Reset iob error bits
 001ED4 9201 740D      022CF       22153                       MVI   CHECKIOR+7,1        Record no. 1
 001ED8 5810 C9C0            009C0 22154                       L     R1,CVCHKBUF         Address of checkpoint buffer
 001EDC BE17 742F            022F1 22155                       ST3   R1,CHECKC+1         I/o buffer ptr
 001EE0 D201 7434 7412 022F6 022D4 22157                       MVC   CHECKC+6(2),ICHKMAXB    attempt maximum block
 001EE6 4110 73E6/0A00       022A8 22158                       EXCP  CHECKIOB            Issue i/o request
 001EEC 4100 0001/4110_      00001 22162                       WAIT  ECB=CVCHKECB        Wait for i/o completion
 001EF6 41F0 000C            0000C 22169                       LA    R15,12              Assume bad checkpoint record
 001EFA 957F C9C4/4780_009C4       22170                       IF    (CVCHKECB,NE,X'7F'),BEGIN
 001F02 9541 73EA      022AC       22187  1                      CLI   CHECKEP,X'41'       Permanent i/o error
 001F06 4780 704C/47F0_      01F0E 22188  1                      IF    NE,'EXIT CHKPREAD'  Bad checkpoint record
 001F0E D501 73F2 72DC 022B4 0219E 22207  1                      CLC   CHECKCSW+4(2),=XL2'0C40'      incorrect length?
 001F14 4780 705A/47F0_      01F1C 22208  1                      IF    NE,'EXIT CHKPREAD'  Bad checkpoint record
 001F1C 1F00/BF03 73F4             22227  1                      L2    R0,CHECKCSW+6       Load residual length
 001F22 1200/4770 706A_            22233  1                      IF    (R0,Z),'EXIT CHKPREAD'  bad checkpoint record
 001F2C 1F11/BF13 7412             22255  1                      L2    R1,ICHKMAXB             load maximum block
 001F32 1F10                       22263  1                      SLR   R1,R0                   compute true record length
 001F34 4010C9E0                   22264  1                      ST2   R1,CVCHKLEN             save checkpoint record length
 001F38 40107434                   22266  1                      ST2   R1,CHECKC+6             update read/write ccw
 001F3C 9242 73E6      022A8       22268  1                      MVI   CHECKIOB,X'42'          reset iob error bit
 001F40 7082/47F0 7088 01F40 01F00 22269                       END   ELSE,BEGIN
 001F44 D201 C9E0 7412 009E0 022D4 22284  1                      MVC   CVCHKLEN,ICHKMAXB   Set cv checkpoint record length
 001F4A                            22285                       END   ,
 001F4A 5820 C9C0            009C0 22289                       L     R2,CVCHKBUF         Data buffer ptr
 001F4E D503 72D2 2000_02194 00000 22290                       IF    (@R2,NE,'CHEK'),EXIT
 001F58 1F00/BF03 C9E0             22309                       L2    R0,CVCHKLEN         Length of buffer
 001F5E 1E20                       22315                       ALR   R2,R0               End of buffer
 001F60 4B20 72DE            021A0 22316                       SH    R2,=H'4'            Last 4 chars
 001F64 D503 72D6 2000_02198 00000 22317                       IF    (@R2,NE,'ENDC'),EXIT
 001F6E 1F00/BF03 C9E0             22336                       L2    R0,CVCHKLEN         Retrieve length of checkpoint
 001F74 5F00 729E            02160 22342                       SL    R0,=A(L'CVCHKPFX)     -  less prefix length
 001F78 5F00 72A2            02164 22343                       SL    R0,=A(L'CVCHKSFX)     -  less suffiex length
 001F7C 8E00 0020            00020 22344                       SRDA  R0,32                    shift for divide
 001F80 5D00 72A6            02168 22345                       D     R0,=A(L'CHKU)            maximum number of sessions
 001F84 1200/4770 7116             22346                       IF    (R0,NZ),EXIT        Record size mismatch
 001F8A D601 C132 C132_00132 00132 22363                       IF    (CVMAXSES,NZ),BEGIN This should match read record
 001F94 1F00/BF03 C132             22379  1                      L2    R0,CVMAXSES         Load specified session count
 001F9A 1901/4780 7100             22385  1                      IF    (R0,NE,R1),BEGIN    Warn user of mismatch
 001FA0 5010 D000/41D0_      00000 22400  2                        XPUSH R1                  Save r1 value
 001FA8 4110 7276/4100_      02138 22403  2                        XWTO  'Specified MAXSES value has been ignored.'
 001FBA 4BD0 72E0/5810_      021A2 22420  2                        XPOP  R1                  Restrieve r1 value
 001FC2                            22423  1                      END   ,
 001FC2                            22427                       END   ,
1INIT     (INIT4072) (12:46) (15MAR04) WYLBUR's Initialization Routines                                                     Page   39
0Current Usings:  (*,R7) (CP,R11) (CV,R12)
0Loc    Object Code    Addr1 Addr2  Stmt Lv Lineno    Source Statement           (Hibal 5, Asmedit 3.3)  HLASM R4.0  2004/03/15 12.46
+___    ______ ____    _____ _____  ____ __ ______    ______ _________
0001FC2 4010C132                   22431                       ST2   R1,CVMAXSES         Set maximum sessions
 001FC6 58E0 C9C0            009C0 22433                       L     R14,CVCHKBUF        Address of checkpoint record
 001FCA 41F0 0438            00438 22434                       LA    R15,L'CVCHKPFX      Length of prefix
 001FCE 4100 C9F0            009F0 22435                       LA    R0,CVCHKPFX         Address of checkpoint prefix
 001FD2 181F                       22436                       LR    R1,R15              Copy length
 001FD4 0E0E                       22437                       MVCL  R0,R14              Move in prefix portion
 001FD6 1BFF                       22438                       CLEAR R15                 Indicate good checkpoint read
 001FD8 18D8/9808 D004_            22442                       PEND  ,
 DROP   *,R7
 001FE6                            22462              ICHKTERM LABEL ,
 001FE6 58E0 C08C            0008C 22464                       L     R14,CVOSRA          Mvs system return address
 001FEA 07FE                       22465                       BR    R14                 Return to mvs
-001FEC 50E0 D000/9008_      00000 22467              ICHKERR1 PROC  ,
 USING  *,R7
 002006 4110 71FE/4100_      02204 22506                       XWTO  'No CHECKPOINT DD found.',,l:cvwtosgp
 002018 18D8/9808 D004_            22523                       PEND  ,
 DROP   *,R7
 002026 50E0 D000/9008_      00000 22543              ICHKERR2 PROC  ,
 USING  *,R7
 002040 4110 71DB/4100_      0221B 22582                       XWTO  'Checkpoint defined on non-dasd device',,l:cvwtosgp
 002052 18D8/9808 D004_            22599                       PEND  ,
 DROP   *,R7
 002060 50E0 D000/9008_      00000 22619              ICHKERR3 PROC  ,
 USING  *,R7
 00207A 4110 712A/4100_      021A4 22658                       XWTO  'Checkpoint device does not support rps'
 00208C 18D8/9808 D004_            22675                       PEND  ,
 DROP   *,R7
 00209A 50E0 D000/9008_      00000 22695              ICHKERR4 PROC  ,
 USING  *,R7
 0020B4 4110 7116/4100_      021CA 22734                       XWTO  'Unexpected return from trkcalc'
 0020C6 18D8/9808 D004_            22751                       PEND  ,
 DROP   *,R7
 0020D4 50E0 D000/9008_      00000 22771              ICHKERR5 PROC  ,
 USING  *,R7
 0020EE 4110 7152/4100_      02240 22810                       XWTO  'OPEN FAILED FOR CHECKPOINT DATA SET'
 002100 18D8/9808 D004_            22827                       PEND  ,
 DROP   *,R7
0                                  22848                       DROP  R6                  RELEASE CHKPT ROUTINES
 002110                            22852                       LTORG ,
 002110 C388858392979689           22854                             =C'Checkpoint I/O error.  no checkpointing.'
 002138 E297858389868985           22855                             =C'Specified MAXSES value has been ignored.'
 002160 00000438                   22856                             =A(L'CVCHKPFX)
 002164 00000008                   22857                             =A(L'CVCHKSFX)
 002168 0000000C                   22858                             =A(L'CHKU)
 00216C 00000000                   22859                             =V(SEG)
 002170 00000000                   22860                             =V(SEGDC)
 002174 00000000                   22861                             =V(SEGWR)
 002178 C388858392979689           22862                             =C'Checkpoint record formatted.'
 002194 C3C8C5D2                   22863                             =C'CHEK'
 002198 C5D5C4C3                   22864                             =C'ENDC'
 00219C 0100                       22865                             =X'0100'
1INIT     (INIT4072) (12:46) (15MAR04) WYLBUR's Initialization Routines                                                     Page   40
0Current Usings:  (CP,R11) (CV,R12)
0Loc    Object Code    Addr1 Addr2  Stmt Lv Lineno    Source Statement           (Hibal 5, Asmedit 3.3)  HLASM R4.0  2004/03/15 12.46
+___    ______ ____    _____ _____  ____ __ ______    ______ _________
000219E 0C40                       22866                             =XL2'0C40'
 0021A0 0004                       22867                             =H'4'
 0021A2 0004                       22868                             =Y(4)
 0021A4 C388858392979689           22869                             =C'Checkpoint device does not support rps'
 0021CA E49585A7978583A3           22870                             =C'Unexpected return from trkcalc'
 0021E8 D4C1E7E2C5E27E             22871                             =C'MAXSES='
 0021EF 4089A240A3969640           22872                             =C' is too large, using '
 002204 D59640C3C8C5C3D2           22873                             =C'No CHECKPOINT DD found.'
 00221B C388858392979689           22874                             =C'Checkpoint defined on non-dasd device'
 002240 D6D7C5D540C6C1C9           22875                             =C'OPEN FAILED FOR CHECKPOINT DATA SET'
1INIT     (INIT4072) (12:46) (15MAR04) WYLBUR's Initialization Routines                                                     Page   41
0Current Usings:  (CP,R11) (CV,R12)
0Loc    Object Code    Addr1 Addr2  Stmt Lv Lineno    Source Statement           (Hibal 5, Asmedit 3.3)  HLASM R4.0  2004/03/15 12.46
+___    ______ ____    _____ _____  ____ __ ______    ______ _________
0                                  22880              ¿þþþþþþþþþþþþþþþþþþþþþþþþþþþþþþþþþþþþþþþþþþþþþþþþþþþþþþþþþþþþþþþþþþþþþÜ
                                   22881              Ÿ                                                                     Ÿ
                                   22882              Ÿ  CHECKABN -- Check DCB abend exit routine.  This routine just       Ÿ
                                   22883              Ÿ    tells OS to forget about the error and turns off checkpoint      Ÿ
                                   22884              Ÿ    updating.                                                        Ÿ
                                   22885              Ÿ                                                                     Ÿ
                                                      ¾þþþþþþþþþþþþþþþþþþþþþþþþþþþþþþþþþþþþþþþþþþþþþþþþþþþþþþþþþþþþþþþþþþþþþ»
0USING  CHECKABN,R15               22886              CHECKABN WITH  (CHECKABN,R15),BEGIN
 0023D0 900F D000            00000 22901  1                      STM   R0,R15,@R13
 0023D4 58C0 F8C0            02C90 22902  1                      L     CVR,=V(CV)
                                   22903  1
 0023D8 9640 C4C7      004C7       22904  1                      SET   CVFNCHK             No checkpointing any more
 0023DC 9204 1003      00003       22910  1                      MVI   @R1+3,4             Forget about the error
 0023E0 980F D000            00000 22911  1                      LM    R0,R15,@R13
 0023E4 07FE                       22912  1                      BR    R14
 DROP   CHECKABN,R15               22913                       END
1INIT     (INIT4072) (12:46) (15MAR04) WYLBUR's Initialization Routines                                                     Page   42
0Current Usings:  (CP,R11) (CV,R12)
0Loc    Object Code    Addr1 Addr2  Stmt Lv Lineno    Source Statement           (Hibal 5, Asmedit 3.3)  HLASM R4.0  2004/03/15 12.46
+___    ______ ____    _____ _____  ____ __ ______    ______ _________
0002DBC                02DBC 03168 22922                       DATA  BEGIN
 002DBC 00                         22927  1           LFLAGS     FLAG  ,                   Local flags
 LFLAGS.TSTOPT     80 ONES         22931  1                      FLAG  TSTOPT              - Test option explicit
 LFLAGS.TASKOPT    40 ONES         22936  1                      FLAG  TASKOPT             - Tasks option explicit
 0023E6                023D0 03168 22941                       END
-000000                00000 00117 22948              INITWA   RECORD BEGIN
                                   22956  1                      XSA   R2,R8
 000000 0000000000000000           22957  1 01-XSA   +           DC    (R8+2-(R2))A(0)
                                   22958  1
 000020                            22959  1           INITPTR    DS    2F                  SYSIN buffer ptrs
                                   22960  1
 000028                            22961  1           LINENO     DS    F                   Line-number
                                   22962  1           LINE       DS    CL(&LINESZ)         Unpressed line area
 00002C                                   1          +LINE       DS    CL(235)             Unpressed line area
 000117                00117 00117 22963                       END
-                                  22973              ¿þþþþþþþþþþþþþþþþþþþþþþþþþþþþþþþþþþþþþþþþþþþþþþþþþþþþþþþþþþþþþþþþþþþþþÜ
                                   22974              Ÿ                                                                     Ÿ
                                   22975              Ÿ  INITPARM -- Routine to set up initialization parameters by         Ÿ
                                   22976              Ÿ    reading the SYSIN file and then scanning the OS parm.            Ÿ
                                   22977              Ÿ    options specified in the OS parm will override SYSIN file        Ÿ
                                   22978              Ÿ    options.                                                         Ÿ
                                   22979              Ÿ                                                                     Ÿ
                                                      ¾þþþþþþþþþþþþþþþþþþþþþþþþþþþþþþþþþþþþþþþþþþþþþþþþþþþþþþþþþþþþþþþþþþþþþ»
00023E6 50E0 D000/9028_      00000 22980              INITPARM XENTER R2,R8,L'INITWA
 USING  *,R7
 USING  INITWA,R8                  22999                       USING INITWA,WAR
                                   23008
 002400 58E0 7894/0DEE       02C94 23009                       VCALL GETCP               Get new CP (for CPSCAN)
                                   23013                       ¿þþþþþþþþþþþþþþþþþþþþþþþÜ
                                   23014                       Ÿ  Process SYSIN file.  Ÿ
                                   23015                       ¾þþþþþþþþþþþþþþþþþþþþþþþ»
 002406 58E0 7898/0DEE       02C98 23016                       VCALL AMODE24             ******** 24 bit mode (for QSAM)
 00240C 4510 7014/80/0_      02414 23020                       OPEN  (SYSIN,(INPUT))
 002416 58E0 789C/0DEE       02C9C 23026                       VCALL AMODE31             ********
 00241C 9110 77EC/47E0_02BEC       23030                       IF    SYSIN+(DCBOFLGS-DCB).DCBOFOPN,BEGIN  Process sysin...
 002424 4160 77BC            02BBC 23046  1                      LA    R6,SYSIN            SYSIN DCB ptr
 USING  DCB,R6                     23047  1                      WITH  (DCB,R6)
                                   23060  1
 002428 1B44/1B55                  23061  1                      CLEAR R4,R5               Preset (not in a buffer yet)
 00242C 9045 8020            00020 23067  1                      STM   R4,R5,INITPTR       Save buffer ptrs
                                   23068  1
 002430 9845 8020            00020 23069  1           PARMFILE   LM    R4,R5,INITPTR       Get buffer ptrs
 002434 1244/4720 7078             23070  1                      IF    (R4,NP),BEGIN       Get next buffer...
 00243A 58E0 7898/0DEE       02C98 23084  2                        VCALL AMODE24             ********
 002440 4110 77BC/1FFF_      02BBC 23088  2                        GET   SYSIN               Get next buffer/record
 00244C 58E0 789C/0DEE       02C9C 23094  2                        VCALL AMODE31             ********
 002452 1851                       23098  2                        LR    R5,R1
 002454 91C0 6024/47E0_00024       23099  2                        IF    DCBRECFM.DCBRECU,BEGIN  WYLBUR edit format...
 00245C 4840 1000            00000 23115  3                          LH    R4,@R1              Record length
1INIT     (INIT4072) (12:46) (15MAR04) WYLBUR's Initialization Routines                                                     Page   43
0Current Usings:  (DCB,R6) (*,R7) (INITWA,R8) (CP,R11) (CV,R12)
0Loc    Object Code    Addr1 Addr2  Stmt Lv Lineno    Source Statement           (Hibal 5, Asmedit 3.3)  HLASM R4.0  2004/03/15 12.46
+___    ______ ____    _____ _____  ____ __ ______    ______ _________
0002460 4940 6052/47D0_      00052 23116  3                          CEIL  R4,DCBLRECL         Keep us honest
 00246C 4B40 78FC            02CFC 23122  3                          SH    R4,=H'2'            Don't include record len hw
 002470 47D0 7030            02430 23123  3                          BNP   PARMFILE
 002474 4150 5002            00002 23124  3                          LA    R5,@R5+2
 002478                            23125  2                        END
 002478                            23129  1                      END
                                   23133  1
 002478 91C0 6024/47E0_00024       23134  1                      IF    DCBRECFM.DCBRECU,BEGIN  Unpress line...
 002480 18F5                       23150  2                        LR    R15,R5              Pressed line ptr
 002482 4110 802C            0002C 23151  2                        LA    R1,LINE
 002486 58E0 78A0/0DEE       02CA0 23152  2                        VCALL UNPRESS             Unpress line
 00248C 50F0 8028            00028 23156  2                        ST    R15,LINENO          Save WYLBUR lineno
 002490 1FFF/43F0 5004             23157  2                        LC    R15,@R5+4           Len byte
 002496 41F0 F005            00005 23164  2                        LA    R15,@R15+5          Total pressed line len
 00249A 1A5F                       23165  2                        AR    R5,R15
 00249C 1B4F                       23166  2                        SR    R4,R15
 00249E                            23167  1                      END
                                   23171  1
 00249E 70A2/47F0 70D8 0249E 0247E 23172  1                      ELSE  BEGIN               Fixed or variable...
 0024A2 4800 6052            00052 23183  2                        LH    R0,DCBLRECL
 0024A6 5900 78A4/4770_      02CA4 23184  2                        IF    ((R0,EQ,80),AND,(@R5+76,EQ,'.')),'LA R0,72' No lineno
 0024BA 5900 78A8/47D0_      02CA8 23222  2                        CEIL  R0,L'LINE
 0024C6 18F0                       23241  2                        LR    R15,R0
 0024C8 06F0/12FF/4740_            23242  2                        MOVE  R15,LINE,@R5
 0024D4 4110 802C            0002C 23280  2                        SETMSG   LINE,(R0)
 0024D8                            23293  1                      END
                                   23297  1
 0024D8 9045 8020            00020 23298  1                      STM   R4,R5,INITPTR       Save buffer ptrs
                                   23299  1
 0024DC 58E0 78AC/0DEE       02CAC 23300  1                      OSCINIT (R1),(R0)
 0024E2 D203 BCC8 78B0 00CC8 02CB0 23316  1                      MVC   CPSCNERT,=A(PARMERR)  Set scan error addr
 0024E8 9640 BCD0      00CD0       23317  1                      OI    CPSCNFLG,CPFRTNER   Indicate error rtn present
 0024EC 4110 7214/58E0_      02614 23318  1                      OSCAN INITPRT
 0024F6 4770 779E            02B9E 23331  1                      BNZ   PARMERR
 0024FA 47F0 7030            02430 23332  1                      B     PARMFILE
                                   23333  1
 0024FE                            23334  1           INEOF      LABEL ,
 0024FE 58E0 7898/0DEE       02C98 23336  1                      VCALL AMODE24             ********
 002504 4510 710C/80/0_      0250C 23340  1                      CLOSE (SYSIN)
 00250E 4110 77BC/9101_      02BBC 23346  1                      FREEPOOL SYSIN
 00255C 58E0 789C/0DEE       02C9C 23372  1                      VCALL AMODE31             ********
 DROP   DCB,R6                     23376                       END
                                   23385                       ¿þþþþþþþþþþþþþþþþþþþþþþþþþÜ
                                   23386                       Ÿ  Scan the parm string.  Ÿ
                                   23387                       ¾þþþþþþþþþþþþþþþþþþþþþþþþþ»
 002562 58F0 C098            00098 23388                       L     R15,CVPARMP         OS parm ptr
 002566 4800 F000            00000 23389                       LH    R0,@R15             Parm length
 00256A 4110 F002            00002 23390                       LA    R1,@R15+2           Parm text addr
 00256E 58E0 78AC/0DEE       02CAC 23391                       OSCINIT (R1),(R0)         Set to scan parm
 002574 D203 BCC8 78B0 00CC8 02CB0 23407                       MVC   CPSCNERT,=A(PARMERR)  Set scan error addr
 00257A 9640 BCD0      00CD0       23408                       OI    CPSCNFLG,CPFRTNER   Indicate error rtn present
 00257E 1B66                       23409                       CLEAR R6                  Flag: scanning OS parm now
 002580 4110 7214/58E0_      02614 23413              PARMSTR  OSCAN INITPRT             Scan for parms
1INIT     (INIT4072) (12:46) (15MAR04) WYLBUR's Initialization Routines                                                     Page   44
0Current Usings:  (*,R7) (INITWA,R8) (CP,R11) (CV,R12)
0Loc    Object Code    Addr1 Addr2  Stmt Lv Lineno    Source Statement           (Hibal 5, Asmedit 3.3)  HLASM R4.0  2004/03/15 12.46
+___    ______ ____    _____ _____  ____ __ ______    ______ _________
0                                  23427                       ¿þþþþþþþþþþþþþþþþþþþþþþþþþþþþþþþþþþþþþþÜ
                                   23428                       Ÿ  Now do final parm post-processing.  Ÿ
                                   23429                       ¾þþþþþþþþþþþþþþþþþþþþþþþþþþþþþþþþþþþþþþ»
 00258A 9180 79BC/4710_02DBC       23430                       IF    (~TSTOPT,AND,(CVWYLSSN,NE,'WYLBUR')),'SET CVFTEST'
                                   23472
 0025A0 9140 79BC/4710_02DBC       23473                       IF    (~TASKOPT,AND,CVFTEST),BEGIN
 0025B0 5810 78B8            02CB8 23502  1                      L     R1,=V(IOWRSG)       IOWA resource group
 USING  RSCGROUP,R1                23503  1                      WITH  (RSCGROUP,R1)
 0025B4 D201 100C 7904 0000C 02D04 23516  1                      MVC   RSG#FREE,=H'1'      Only attach one I/O task
 DROP   RSCGROUP,R1                23517                       END
                                   23526
 0025BA 9102 C4C5/4710_004C5       23527                       IF    ~CVFTEST,BEGIN      Production system defaults...
 0025C2 9608 C4C6      004C6       23542  1                      SET   CVFNOTIM
 0025C6                            23548                       END
                                   23552              *
                                   23553              *        ELSE  BEGIN               Test system defaults...          SLP
                                   23554              *        SET   CVFNOSMF            No accounting in testwyl         SLP
                                   23555              *        END                                                        SLP
                                   23556              *
 0025C6 5850 0010            00010 23557                       L     R5,CVTPTR
 USING  CVT,R5                     23558                       WITH  (CVT,R5),BEGIN
 0025CA 5840 50CC/1244       000CC 23572  1                      LT    R4,CVTUSER          USERCVT ptr
 0025D0 4780 7202            02602 23576  1                      IF    NZ,BEGIN
 USING  USERCVT,R4                 23587  2                        WITH  (USERCVT,R4)
 0025D4 D503 78BC 4000_02CBC 00000 23600  2                        IF    (USERCVT,NE,'SCIP'),EXIT  Not ours, scram
 0025DE 9102 C4C5/4710_004C5       23620  2                        IF    ~CVFTEST,BEGIN      Production only...
 0025E6 D607 C050 C050_00050 00050 23635  3                          IF    (CVWORD,Z),BEGIN    Set word from USERCVT...
 0025F0 D207 C050 4074 00050 00074 23651  4                            MVC   CVWORD,USEWORD
 0025F6 9101 4004/47E0_00004       23652  4                            IF    USEHSPFL.HSPFSYST,'SET CVFSYST'  Ditto for flag
 002602                            23679  3                          END
 002602                            23683  2                        END
 DROP   USERCVT,R4                 23687  1                      END
 DROP   CVT,R5                     23696                       END
                                   23704
 002602 58E0 78C0/0DEE       02CC0 23705                       VCALL FREECP              Free CP
                                   23709
 002608 18D8/58E0 D000_            23710                       XEXIT
1INIT     (INIT4072) (12:46) (15MAR04) WYLBUR's Initialization Routines                                                     Page   45
0Current Usings:  (*,R7) (INITWA,R8) (CP,R11) (CV,R12)
0Loc    Object Code    Addr1 Addr2  Stmt Lv Lineno    Source Statement           (Hibal 5, Asmedit 3.3)  HLASM R4.0  2004/03/15 12.46
+___    ______ ____    _____ _____  ____ __ ______    ______ _________
0                                  23716              ***
                                   23717              ***  SYSIN/parm options.
                                   23718              ***
 002614 8B00289ED5C1D4C5           23719              INITPRT  OSCKW NAME,NAME,(A,P)
 00261C 8C0028B0D6D9E5E8           23721                       OSCKW ORVYL,ORVYL,(A,P)
 002625 8B0028BEE6D6D9C4           23723                       OSCKW WORD,WORD,(A,P)
 00262D 0B0028E2E3C5E2E3           23725                       OSCKW TEST,TEST,A
 002635 0E0028DEE3C5E2E3           23727                       OSCKW TESTMIL,TESTMIL,A
 002640 0F0028ECD7D9D6C4           23729                       OSCKW PRODUCTION,PROD,A
 00264C 0F0029C8D9C5C3D6           23731                       OSCKW RECOVERY,RCVY,A
 002658 0F002A34D5D6D9C5           23733                       OSCKW NORECOVERY,NORCVY,A
 002664 0B002A34E2D2C9D7           23735                       OSCKW SKIP,NORCVY,A       (Same as "NORECOVERY")
 00266C 0C0028F6E6C9D5C7           23737                       OSCKW WINGS,WINGS,A
 002675 0D002900D6D3C4C9           23739                       OSCKW OLDIBM,OLDIBM,A
 00267F 0C002A44E5C9E2E3           23741                       OSCKW VISTA,VISTA,A
 002688 0D002A4AD9C4C5C2           23743                       OSCKW RDEBUG,RDEBUG,A
 002692 8D00290AD5D6E3C9           23745                       OSCKW NOTIFY,NOTIFY,(A,P)
 00269C 0F002928D5D6D5D6           23747                       OSCKW NONOTIFY,NONOTIFY,A
 0026A8 0E002930E3C9D4C5           23749                       OSCKW TIMEOUT,TIMEOUT,A
 0026B3 0F002936D5D6E3C9           23751                       OSCKW NOTIMEOUT,NOTIME,A
 0026BF 0300293CE2E8E2C1           23753                       OSCKW SYSA,SYSA
 0026C7 03002944E2E8E2C2           23755                       OSCKW SYSB,SYSB
 0026CF 0300294CE2E8E2C3           23757                       OSCKW SYSC,SYSC
 0026D7 03002954E2E8E2C4           23759                       OSCKW SYSD,SYSD
 0026DF 0300295CE2E8E2C8           23761                       OSCKW SYSH,SYSH
 0026E7 03002964E2E8E2C6           23763                       OSCKW SYSF,SYSF
 0026EF 0300296CE2E8E2C7           23765                       OSCKW SYSG,SYSG
 0026F7 02002944D9D3C7             23767                       OSCKW RLG,SYSB
 0026FE 0E002974E2C5D9E5           23769                       OSCKW SERVWYL,SERVWYL,A
 002709 0F00297AD5D6E2C5           23771                       OSCKW NOSERVWYL,NOSERVW,A
 002715 02002980E2D4C6             23773                       OSCKW SMF,SMF
 00271C 04002986D5D6E2D4           23775                       OSCKW NOSMF,NOSMF
 002725 BC0029C2D7C1C7C5_          23777                       OSCKW PAGES,PAGES,(A,P,PI),9999
 002732 DD00298CD5E3D9C1_          23780                       OSCKW NTRACE,NTRACE,(A,P,I),65535
 002740 BC002992E3C1E2D2_          23783                       OSCKW TASKS,TASKS,(A,P,PI),50
 00274D AC0029A0D4C2E4C6           23786                       OSCKW MBUFF,MBUFF,(A,P,PI)
 002756 0E0029B4D5D6E3D9           23788                       OSCKW NOTRACE,NOTRACE,A
 002761 0C0029AEE3D9C1C3           23790                       OSCKW TRACE,TRACE,A
 00276A 0E0029B4D5D6E3D9           23792                       OSCKW NOTRACE,NOTRACE,A
 002775 0D0029BAD9D6E3C1           23794                       OSCKW ROTATE,ROTATE,A
 00277F 0F0029BCD5D6D9D6           23796                       OSCKW NOROTATE,NOROTATE,A
 00278B 0C002A50D9C5E3D9           23798                       OSCKW RETRY,RETRY,A
 002794 0E002A56D5D6D9C5           23800                       OSCKW NORETRY,NORETRY,A
 00279F 0D0029CEC6D6D9D4           23802                       OSCKW FORMAT,FORMAT,A
 0027A9 020029CEC6D4E3             23804                       OSCKW FMT,FORMAT
 0027B0 0E002A2CD7C6D6D9           23806                       OSCKW PFORMAT,PFORMAT,A
 0027BB 0B002A2CD7C6D4E3           23808                       OSCKW PFMT,PFORMAT,A
 0027C3 0E002A3AC3C6D6D9           23810                       OSCKW CFORMAT,CFORMAT,A
 0027CE 03002A3AC3C6D4E3           23812                       OSCKW CFMT,CFORMAT
 0027D6 0E002A5CD5D6C3C8           23814                       OSCKW NOCHECK,NOCHECK,A
 0027E1 04002A5CD5D6C3C8           23816                       OSCKW NOCHK,NOCHECK
 0027EA 0D002A62D4C1D5E4           23818                       OSCKW MANUAL,MANUAL,A
 0027F4 8E002A68C3D6D4D4           23820                       OSCKW COMMAND,CMD,(A,P)
 0027FF 8A002A68C3D4C4             23822                       OSCKW CMD,CMD,(A,P)
1INIT     (INIT4072) (12:46) (15MAR04) WYLBUR's Initialization Routines                                                     Page   46
0Current Usings:  (*,R7) (INITWA,R8) (CP,R11) (CV,R12)
0Loc    Object Code    Addr1 Addr2  Stmt Lv Lineno    Source Statement           (Hibal 5, Asmedit 3.3)  HLASM R4.0  2004/03/15 12.46
+___    ______ ____    _____ _____  ____ __ ______    ______ _________
0002806 8D002AB4D4C5D4C2           23824                       OSCKW MEMBER,MEMBER,(A,P)
 002810 0F002AC0D5D6C3D6           23826                       OSCKW NOCOMMAND,NOCMD,A
 00281C 0C002AC0D5D6C3D4           23828                       OSCKW NOCMD,NOCMD,A
 002825 02002ACCD9E4D5             23830                       OSCKW RUN,RUN
 00282C 0C002AD2D5D6D9E4           23832                       OSCKW NORUN,NORUN,A
 002835 0B002AD8C4E4D4D7           23834                       OSCKW DUMP,DUMP,A
 00283D 0D002ADED5D6C4E4           23836                       OSCKW NODUMP,NODUMP,A
 002847 0B002AE4D9C1C3C6           23838                       OSCKW RACF,RACF,A
 00284F 0D002AEAD5D6D9C1           23840                       OSCKW NORACF,NORACF,A
 002859 01002AF0E7C1               23842                       OSCKW XA,XA
 00285F 03002AFCD5D6E7C1           23844                       OSCKW NOXA,NOXA
 002867 0B002B02E2E3C1C5           23846                       OSCKW STAE,STAE,A
 00286F 0D002B08D5D6E2E3           23848                       OSCKW NOSTAE,NOSTAE,A
 002879 0B002B0EE2D7C9C5           23850                       OSCKW SPIE,SPIE,A
 002881 0D002B14D5D6E2D7           23852                       OSCKW NOSPIE,NOSPIE,A
 00288B D50028A6D4C1E7E2_          23854                       OSCKW MAXSES,SETMXSES,(P,I),6000
 002899 FF002B1A                   23857                       OSCKW ,CHKSLASH
                                   23859
 00289D 00
 00289E D207 C028 F000 00028 00000 23860              NAME     MVC   CVWYLSSN,@R15       Set subsys name
 0028A4 07FE                       23861                       BR    RAR
                                   23862
 0028A6                            23863              SETMXSES LABEL ,
 0028A6 47D0 7764            02B64 23865                       IF    NP,BADPARM          Invalid interger value
 0028AA 40F0C132                   23879                       ST2   R15,CVMAXSES        Set into the CV
 0028AE 07FE                       23881                       BR    RAR                 Return to the scanner
                                   23882
 0028B0 D207 C030 F000 00030 00000 23883              ORVYL    MVC   CVORVSSN,@R15
 0028B6 D207 C038 F000 00038 00000 23884                       MVC   CVRLGSSN,@R15
 0028BC 07FE                       23885                       BR    RAR
                                   23886
 0028BE D207 C050 F000 00050 00000 23887              WORD     MVC   CVWORD,@R15         Set subsys word
 0028C4 9610 C4C7      004C7       23888                       SET   CVFSYST
 0028C8 D502 7954 F000_02D54 00000 23894                       IF    (@R15,EQ,'NO '),'CLEAR CVWORD,CVFSYST'
 0028DC 07FE                       23927                       BR    RAR
                                   23928
 0028DE 9680 C4C4      004C4       23929              TESTMIL  SET   CVFTMIL             Use test milten path names
 0028E2 9602 C4C5      004C5       23936              TEST     SET   CVFTEST             Set test system
 0028E6 9680 79BC      02DBC       23943                       SET   TSTOPT              Test/notest explicit
 0028EA 07FE                       23949                       BR    RAR
                                   23950
 0028EC 94FD C4C5      004C5       23951              PROD     CLEAR CVFTEST             Reset test option
 0028F0 9680 79BC      02DBC       23959                       SET   TSTOPT              Notest is explicit
 0028F4 07FE                       23965                       BR    RAR
                                   23966
 0028F6 9620 C4C8      004C8       23967              WINGS    SET   CVFWINGS
 0028FA 94EF C4C8      004C8       23974                       CLEAR CVFOLDIBM
 0028FE 07FE                       23981                       BR    RAR
                                   23982
 002900 9610 C4C8      004C8       23983              OLDIBM   SET   CVFOLDIBM
 002904 94DF C4C8      004C8       23990                       CLEAR CVFWINGS
 002908 07FE                       23997                       BR    RAR
                                   23998
 00290A 5900 78C4/4770_      02CC4 23999              NOTIFY   IF    (R0,NE,6),BADPARM
1INIT     (INIT4072) (12:46) (15MAR04) WYLBUR's Initialization Routines                                                     Page   47
0Current Usings:  (*,R7) (INITWA,R8) (CP,R11) (CV,R12)
0Loc    Object Code    Addr1 Addr2  Stmt Lv Lineno    Source Statement           (Hibal 5, Asmedit 3.3)  HLASM R4.0  2004/03/15 12.46
+___    ______ ____    _____ _____  ____ __ ______    ______ _________
0002912 954B 1002/4770_00002       24020                       IF    (@R1+2,NE,'.'),BADPARM
 00291A D202 C061 1003 00061 00003 24039                       MVC   CVNOTIFY(3),@R1+3   uuu
 002920 D201 C064 1000 00064 00000 24040                       MVC   CVNOTIFY+3(2),@R1   gg
 002926 07FE                       24041                       BR    RAR
                                   24042
 002928 D704 C061 C061 00061 00061 24043              NONOTIFY CLEAR CVNOTIFY
 00292E 07FE                       24051                       BR    RAR
                                   24052
 002930 94F7 C4C6      004C6       24053              TIMEOUT  CLEAR CVFNOTIM
 002934 07FE                       24061                       BR    RAR
                                   24062
 002936 9608 C4C6      004C6       24063              NOTIME   SET   CVFNOTIM
 00293A 07FE                       24070                       BR    RAR
                                   24071
 00293C D207 C00C 7858 0000C 02C58 24072              SYSA     MVC   CVMACHID,=CL8'SYSA'
 002942 07FE                       24073                       BR    RAR
                                   24074
 002944 D207 C00C 7860 0000C 02C60 24075              SYSB     MVC   CVMACHID,=CL8'SYSB'
 00294A 07FE                       24076                       BR    RAR
                                   24077
 00294C D207 C00C 7868 0000C 02C68 24078              SYSC     MVC   CVMACHID,=CL8'SYSC'
 002952 07FE                       24079                       BR    RAR
                                   24080
 002954 D207 C00C 7870 0000C 02C70 24081              SYSD     MVC   CVMACHID,=CL8'SYSD'
 00295A 07FE                       24082                       BR    RAR
                                   24083
 00295C D207 C00C 7878 0000C 02C78 24084              SYSH     MVC   CVMACHID,=CL8'SYSH'
 002962 07FE                       24085                       BR    RAR
                                   24086
 002964 D207 C00C 7880 0000C 02C80 24087              SYSF     MVC   CVMACHID,=CL8'SYSF'
 00296A 07FE                       24088                       BR    RAR
                                   24089
 00296C D207 C00C 7888 0000C 02C88 24090              SYSG     MVC   CVMACHID,=CL8'SYSG'
 002972 07FE                       24091                       BR    RAR
                                   24092
 002974 9601 C4C4      004C4       24093              SERVWYL  SET   CVFSERVWYL
 002978 07FE                       24100                       BR    RAR
                                   24101
 00297A 94FE C4C4      004C4       24102              NOSERVW  CLEAR CVFSERVWYL
 00297E 07FE                       24110                       BR    RAR
                                   24111
 002980 94DF CA00      00A00       24112              SMF      CLEAR CVFNOSMF
 002984 07FE                       24120                       BR    RAR
                                   24121
 002986 9620 CA00      00A00       24122              NOSMF    SET   CVFNOSMF
 00298A 07FE                       24129                       BR    RAR
                                   24130
 00298C 40F0 C134            00134 24131              NTRACE   STH   R15,CVTRCENT        Save no. of entries
 002990 07FE                       24132                       BR    RAR
                                   24133
 002992 9640 79BC      02DBC       24134              TASKS    SET   TASKOPT             Option is explicit
 002996 5810 78B8            02CB8 24141                       L     R1,=V(IOWRSG)
 00299A 40F0 100C            0000C 24142                       WITH  (RSCGROUP,R1),'STH R15,RSG#FREE'
 USING  RSCGROUP,R1
1INIT     (INIT4072) (12:46) (15MAR04) WYLBUR's Initialization Routines                                                     Page   48
0Current Usings:  (*,R7) (INITWA,R8) (CP,R11) (CV,R12)
0Loc    Object Code    Addr1 Addr2  Stmt Lv Lineno    Source Statement           (Hibal 5, Asmedit 3.3)  HLASM R4.0  2004/03/15 12.46
+___    ______ ____    _____ _____  ____ __ ______    ______ _________
0DROP   RSCGROUP,R1
 00299E 07FE                       24166                       BR    RAR
                                   24167
 0029A0 41F0 F007            00007 24168              MBUFF    LA    R15,@R15+7
 0029A4 54F0 78C8            02CC8 24169                       N     R15,=X'FFFFFFF8'    Round to doubleword
 0029A8 50F0 C138            00138 24170                       ST    R15,CVMBUFF
 0029AC 07FE                       24171                       BR    RAR
                                   24172
 0029AE 940F C751      00751       24173              TRACE    SET   CVENTON             Enable xenter tracing
 0029B2 07FE                       24180                       BR    RAR
                                   24181
 0029B4 96F0 C751      00751       24182              NOTRACE  SET   CVENTOFF            Disable xenter tracing
 0029B8 07FE                       24189                       BR    RAR
                                   24190
 0029BA                            24191              ROTATE   LABEL ,                   WROTATE
                                   24193              *        SET   CVFPGROT            NO! WROTATE will bomb wylbur !!
 0029BA 07FE                       24194                       BR    RAR
                                   24195
 0029BC 94BF C4C4      004C4       24196              NOROTATE CLEAR CVFPGROT            Don't do page rotation
 0029C0 07FE                       24204                       BR    RAR
                                   24205
 0029C2 40F0 C13C            0013C 24206              PAGES    STH   R15,CVNIPG          Number of pages to get
 0029C6 07FE                       24207                       BR    RAR
                                   24208
 0029C8 9610 C4C5      004C5       24209              RCVY     SET   CVFRCVY
 0029CC 07FE                       24216                       BR    RAR
                                   24217
 0029CE 50E0 D000/41D0_      00000 24218              FORMAT   LENTER
 0029D6 4110 7957/4100_      02D57 24222                       XWTO  'FORMAT is now the same as SKIP; which means'
 0029E8 4110 7906/4100_      02D06 24239                       XWTO  'that Active file recovery will be skipped.'
 0029FA 4110 7982/4100_      02D82 24256                       XWTO  'Specify "PFORMAT" to format the page files.'
 002A0C 4110 7930/4100_      02D30 24273                       XWTO  'MODE=SKIP assumed.'
 002A1E 94EF C4C5      004C5       24290                       CLEAR CVFRCVY
 002A22 4BD0 7942/58E0_      02D42 24297                       LEXIT
                                   24303
 002A2C 9604 C4C5      004C5       24304              PFORMAT  SET   CVFFMT
 002A30 9680 BCD0      00CD0       24311                       SET   CPSCNFLG.CPFSBLK    Blank kw (prevents future use)
 002A34 94EF C4C5      004C5       24318              NORCVY   CLEAR CVFRCVY
 002A38 07FE                       24326                       BR    RAR
                                   24327
 002A3A 9680 C4C7      004C7       24328              CFORMAT  SET   CVFCFMT
 002A3E 9680 BCD0      00CD0       24335                       SET   CPSCNFLG.CPFSBLK    Blank kw (prevents future use)
 002A42 07FE                       24342                       BR    RAR
                                   24343
 002A44 9680 C4C8      004C8       24344              VISTA    SET   CVFVISTA            This is the VLOGON subsystem
 002A48 07FE                       24351                       BR    RAR
                                   24352
 002A4A 9620 C4C5      004C5       24353              RDEBUG   SET   CVFRBUG
 002A4E 07FE                       24360                       BR    RAR
                                   24361
 002A50 94FB C4C7      004C7       24362              RETRY    CLEAR CVFNORET
 002A54 07FE                       24370                       BR    RAR
                                   24371
 002A56 9604 C4C7      004C7       24372              NORETRY  SET   CVFNORET
1INIT     (INIT4072) (12:46) (15MAR04) WYLBUR's Initialization Routines                                                     Page   49
0Current Usings:  (*,R7) (INITWA,R8) (CP,R11) (CV,R12)
0Loc    Object Code    Addr1 Addr2  Stmt Lv Lineno    Source Statement           (Hibal 5, Asmedit 3.3)  HLASM R4.0  2004/03/15 12.46
+___    ______ ____    _____ _____  ____ __ ______    ______ _________
0002A5A 07FE                       24379                       BR    RAR
                                   24380
 002A5C 9640 C4C7      004C7       24381              NOCHECK  SET   CVFNCHK
 002A60 07FE                       24388                       BR    RAR
                                   24389
 002A62 9620 C4C7      004C7       24390              MANUAL   SET   CVFMAN              Manual recovery
 002A66 07FE                       24397                       BR    RAR
                                   24398
 002A68 50E0 D000/41D0_      00000 24399              CMD      LENTER
 002A70 58E0 78D0/0DEE       02CD0 24403                       VCALL DEQUOTE
 002A76 5820 78D4            02CD4 24407                       L     R2,=A(ICMD)
 002A7A D277 2000 C4D8 00000 004D8 24408                       MVC   @R2(L'ICMD),CVBLANKS  Pre-blank
 002A80 58E0 78D8/0DEE       02CD8 24409                       VCALL LRTRIM
 002A86 5900 78DC/47D0_      02CDC 24413                       CEIL  R0,L'ICMD
 002A92 18F0                       24432                       LR    R15,R0
 002A94 06F0/12FF/4740_            24433                       MOVE  R15,@R2,@R1         Save new exec parms
                                   24471
 002AA0 5820 78E0            02CE0 24472                       L     R2,=A(ICMDMEMB)
 002AA4 D207 2000 C4D8 00000 004D8 24473                       MVC   @R2(L'ICMDMEMB),CVBLANKS
 002AAA 4BD0 7942/58E0_      02D42 24474                       LEXIT
                                   24480
 002AB4 5820 78E0            02CE0 24481              MEMBER   L     R2,=A(ICMDMEMB)
 002AB8 D207 2000 F000 00000 00000 24482                       MVC   @R2(8),@R15         Save new member name
 002ABE 07FE                       24483                       BR    RAR
                                   24484
 002AC0 5820 78D4            02CD4 24485              NOCMD    L     R2,=A(ICMD)
 002AC4 D277 2000 C4D8 00000 004D8 24486                       MVC   @R2(L'ICMD),CVBLANKS  Don't execute first command
 002ACA 07FE                       24487                       BR    RAR
                                   24488
 002ACC 947F C4C6      004C6       24489              RUN      CLEAR CVFNOR
 002AD0 07FE                       24497                       BR    RAR
                                   24498
 002AD2 9680 C4C6      004C6       24499              NORUN    SET   CVFNOR
 002AD6 07FE                       24506                       BR    RAR
                                   24507
 002AD8 9680 CA00      00A00       24508              DUMP     SET   CVFDUMP
 002ADC 07FE                       24515                       BR    RAR
                                   24516
 002ADE 947F CA00      00A00       24517              NODUMP   CLEAR CVFDUMP
 002AE2 07FE                       24525                       BR    RAR
                                   24526
 002AE4 94BF C4C6      004C6       24527              RACF     CLEAR CVFNORACF
 002AE8 07FE                       24535                       BR    RAR
                                   24536
 002AEA 9640 C4C6      004C6       24537              NORACF   SET   CVFNORACF
 002AEE 07FE                       24544                       BR    RAR
                                   24545
 002AF0 9110 C4C6/07EE 004C6       24546              XA       IF    ~CVFXA,RAR
 002AF6 9602 C4C6      004C6       24565                       SET   CVFXA31
 002AFA 07FE                       24571                       BR    RAR
                                   24572
 002AFC 94FD C4C6      004C6       24573              NOXA     CLEAR CVFXA31
 002B00 07FE                       24581                       BR    RAR
                                   24582
1INIT     (INIT4072) (12:46) (15MAR04) WYLBUR's Initialization Routines                                                     Page   50
0Current Usings:  (*,R7) (INITWA,R8) (CP,R11) (CV,R12)
0Loc    Object Code    Addr1 Addr2  Stmt Lv Lineno    Source Statement           (Hibal 5, Asmedit 3.3)  HLASM R4.0  2004/03/15 12.46
+___    ______ ____    _____ _____  ____ __ ______    ______ _________
0002B02 94F7 C4C7      004C7       24583              STAE     CLEAR CVFNSTAE
 002B06 07FE                       24591                       BR    RAR
                                   24592
 002B08 9608 C4C7      004C7       24593              NOSTAE   SET   CVFNSTAE
 002B0C 07FE                       24600                       BR    RAR
                                   24601
 002B0E 94FD C4C7      004C7       24602              SPIE     CLEAR CVFNSPIE
 002B12 07FE                       24610                       BR    RAR
                                   24611
 002B14 9602 C4C7      004C7       24612              NOSPIE   SET   CVFNSPIE
 002B18 07FE                       24619                       BR    RAR
                                   24620
 002B1A 5900 78E4/4770_      02CE4 24621              CHKSLASH IF    ((R0,NE,1),OR,(@R1,NE,'/')),BADPARM
 002B2A 5820 78E8            02CE8 24657                       L     R2,=A(ICMDPARM)
 002B2E D277 2000 C4D8 00000 004D8 24658                       MVC   @R2(L'ICMDPARM),CVBLANKS
 002B34 58E0 78EC/0DEE       02CEC 24659                       OSCTELL
 002B3A 58E0 78D8/0DEE       02CD8 24664                       VCALL LRTRIM
 002B40 5900 78F0/47D0_      02CF0 24668                       CEIL  R0,L'ICMDPARM
 002B4C 18F0                       24687                       LR    R15,R0
 002B4E 06F0/12FF/4740_            24688                       MOVE  R15,@R2,@R1         Save new exec parms
 002B5A 41F0 0004/58E0_      00004 24726                       OSCDONE
                                   24733
 002B64 50E0 D000/41D0_      00000 24734              BADPARM  LENTER
 002B6C 58F0 C748/58E0_      00748 24738                       SEG   (R1),(R0),L:CVWTOSGP
 002B76 4110 79AD/4100_      02DAD 24759                       SEG   ' is a bad parm.'
 002B88 1B00/58F0 C748_            24774                       XWTO
 002B94 4BD0 7942/58E0_      02D42 24797                       LEXIT
                                   24803
 002B9E 4110 7944/4100_      02D44 24804              PARMERR  XWTO  'Error in parm.'
 002BB0 1266/4770 7030             24821                       IF    (R6,NZ),PARMFILE    Resume scanning SYSIN
 002BB6 47F0 7180            02580 24838                       B     PARMSTR             Resume scanning OS parm
                                   24839
 DROP   INITWA,R8                  24840                       DROP  INITWA,BR
 DROP   *,R7
1INIT     (INIT4072) (12:46) (15MAR04) WYLBUR's Initialization Routines                                                     Page   51
0Current Usings:  (CP,R11) (CV,R12)
0Loc    Object Code    Addr1 Addr2  Stmt Lv Lineno    Source Statement           (Hibal 5, Asmedit 3.3)  HLASM R4.0  2004/03/15 12.46
+___    ______ ____    _____ _____  ____ __ ______    ______ _________
0002BBA 0000/000000000_            24855              SYSIN    DCB   DDNAME=SYSIN,DSORG=PS,MACRF=GL,EXLST=INEX,EODAD=INEOF
                                   24897
 002C1C 85002C20                   24898              INEX     DC    0F'0',X'85',AL3(SYSINOP)
1INIT     (INIT4072) (12:46) (15MAR04) WYLBUR's Initialization Routines                                                     Page   52
0Current Usings:  (CP,R11) (CV,R12)
0Loc    Object Code    Addr1 Addr2  Stmt Lv Lineno    Source Statement           (Hibal 5, Asmedit 3.3)  HLASM R4.0  2004/03/15 12.46
+___    ______ ____    _____ _____  ____ __ ______    ______ _________
0                                  24900              ¿þþþþþþþþþþþþþþþþþþþþþþþþþþþþþþþþþþþþþþþþþþþþþþþþþþþþþþþþþþþþþþþþþþþþþÜ
                                   24901              Ÿ                                                                     Ÿ
                                   24902              Ÿ  SYSINOP -- OS open exit routine for SYSIN ddcard.                  Ÿ
                                   24903              Ÿ                                                                     Ÿ
                                   24904              Ÿ    On entry:                                                        Ÿ
                                   24905              Ÿ      R1 - DCB ptr                                                   Ÿ
                                   24906              Ÿ      R15- base                                                      Ÿ
                                   24907              Ÿ                                                                     Ÿ
                                                      ¾þþþþþþþþþþþþþþþþþþþþþþþþþþþþþþþþþþþþþþþþþþþþþþþþþþþþþþþþþþþþþþþþþþþþþ»
0002C20                            24908              SYSINOP  LABEL
 USING  DCB,R1                     24910                       WITH  (DCB,R1),(*,R15),BEGIN
 USING  *,R15
 002C20 9608 1030      00030       24935  1                      SET   DCBOFLGS.DCBOFPPC   Allow concat of unlike attributes
 002C24 9500 1014/4770_00014       24942  1                      IF    (DCBBUFNO,Z),'MVI DCBBUFNO,2'  bufno=2 default
 002C30 D601 103E 103E_0003E 0003E 24964  1                      IF    (DCBBLKSI,Z),BEGIN  No blksize...
 002C3A D201 103E 1052 0003E 00052 24980  2                        MVC   DCBBLKSI,DCBLRECL   Blksize = lrecl
 002C40 D601 103E 103E_0003E 0003E 24981  2                        IF    (DCBBLKSI,Z),'MVC DCBBLKSI,=AL2(&BUFRMAX)'  Default
 002C50                            25003  1                      END
 002C50 07FE                       25007  1                      BR    RAR
 DROP   *,R15                      25008                       END
 DROP   DCB,R1
                                   25021
                                   25022                       QLTORG
1INIT     (INIT4072) (12:46) (15MAR04) WYLBUR's Initialization Routines                                                     Page   53
0Current Usings:  (CP,R11) (CV,R12)
0Loc    Object Code    Addr1 Addr2  Stmt Lv Lineno    Source Statement           (Hibal 5, Asmedit 3.3)  HLASM R4.0  2004/03/15 12.46
+___    ______ ____    _____ _____  ____ __ ______    ______ _________
0                                  25081              ¿þþþþþþþþþþþþþþþþþþþþþþþþþþþþþþþþþþþþþþþþþþþþþþþþþþþþþþþþþþþþþþþþþþþþþÜ
                                   25082              Ÿ                                                                     Ÿ
                                   25083              Ÿ  INITCMDS -- Routine to set the pseudo-user to execute a few        Ÿ
                                   25084              Ÿ    commands to complete WYLBUR's initialization.                    Ÿ
                                   25085              Ÿ                                                                     Ÿ
                                   25086              Ÿ    This routine is called by the dispatcher.                        Ÿ
                                   25087              Ÿ                                                                     Ÿ
                                                      ¾þþþþþþþþþþþþþþþþþþþþþþþþþþþþþþþþþþþþþþþþþþþþþþþþþþþþþþþþþþþþþþþþþþþþþ»
0002DD0 50E0 D000/9028_      00000 25088              INITCMDS XENTER
 USING  *,R7
                                   25107              *        XWTO  'INITCMDS entered'  *** slp debug ***
 002DEA 9620 C4C6      004C6       25108                       SET   CVFPUSR             Run as pseudo-user
 002DEE D203 C1C8 C1C0 001C8 001C0 25114                       MVC   CVCURJCB,CVFJCB     Use the first line
 002DF4 5860 C1C8            001C8 25115                       L     JCBR,CVCURJCB
 USING  JCB,R6                     25116                       WITH  JCB,BEGIN
 002DF8 947F 6060      00060       25129  1                      CLEAR JCBWFL.JCBWFSO      User is logged on
 002DFC 41F0 0001/4AF0_      00001 25136  1                      INCR  R15,CVNUSERS        Count as active user
 002E08 18F6/9610 F062_            25142  1                      SETUP JCB
 DROP   JCB,R6                     25170                       END
 002E1E 18D8/58E0 D000_            25178                       XEXIT
 DROP   *,R7                       25183                       DROP  BR
1INIT     (INIT4072) (12:46) (15MAR04) WYLBUR's Initialization Routines                                                     Page   54
0Current Usings:  (CP,R11) (CV,R12)
0Loc    Object Code    Addr1 Addr2  Stmt Lv Lineno    Source Statement           (Hibal 5, Asmedit 3.3)  HLASM R4.0  2004/03/15 12.46
+___    ______ ____    _____ _____  ____ __ ______    ______ _________
0                                  25191              ¿þþþþþþþþþþþþþþþþþþþþþþþþþþþþþþþþþþþþþþþþþþþþþþþþþþþþþþþþþþþþþþþþþþþþþÜ
                                   25192              Ÿ                                                                     Ÿ
                                   25193              Ÿ  INITPUSR -- Initial entry for the pseudo-user.  This routine       Ÿ
                                   25194              Ÿ    initializes the CP fields and then goes to the command           Ÿ
                                   25195              Ÿ    processor.                                                       Ÿ
                                   25196              Ÿ                                                                     Ÿ
                                                      ¾þþþþþþþþþþþþþþþþþþþþþþþþþþþþþþþþþþþþþþþþþþþþþþþþþþþþþþþþþþþþþþþþþþþþþ»
0002E2A 188D/4570 C74C_            25197              INITPUSR GENTER
 USING  *,R7
                                   25214              *        XWTO  'INITPUSR entered'  *** slp debug ***
 002E38 58E0 7294/0DEE       030CC 25215                       VCALL INITCMD             Initialize
 002E3E 58E0 7298/0DEE       030D0 25219                       VCALL INITCP              Initialize CP fields
                                   25223
 002E44 9660 B3BB      003BB       25224                       SET   CPSSFNAR+CPSSFPS    No recovery, pseudo session
                                   25233
 002E48 D204 B3B4 C058 003B4 00058 25234                       MVC   CPSACCT,CVWYLACC    Set as WYLBUR's account
 002E4E 58F0 C1C8            001C8 25235                       L     R15,CVCURJCB
 002E52 D204 F04A C058 0004A 00058 25236                       WITH  (JCB,R15),'MVC JCBACCT,CVWYLACC'  Set it here too
 USING  JCB,R15
 DROP   JCB,R15
 002E58 9670 B3BE      003BE       25260                       SET   CPSFAPR+CPSFSPR+CPSFOPR  Priv'd
                                   25273                       ¿þþþþþþþþþþþþþþþþþþþþþþþþþþþþþþþþþþþþþþþþþþþþþþþþþþþþþÜ
                                   25274                       Ÿ  Initialize the CV record groups (in "user" mode).  Ÿ
                                   25275                       ¾þþþþþþþþþþþþþþþþþþþþþþþþþþþþþþþþþþþþþþþþþþþþþþþþþþþþþ»
 002E5C 4DE0 702C            02E64 25276                       LCALL INITCVRG            Initialize CV RG's
                                   25278
 002E60 47F0 C7DE            007DE 25279                       B     CVNEXT
 DROP   *,R7                       25280                       DROP  BR
1INIT     (INIT4072) (12:46) (15MAR04) WYLBUR's Initialization Routines                                                     Page   55
0Current Usings:  (CP,R11) (CV,R12)
0Loc    Object Code    Addr1 Addr2  Stmt Lv Lineno    Source Statement           (Hibal 5, Asmedit 3.3)  HLASM R4.0  2004/03/15 12.46
+___    ______ ____    _____ _____  ____ __ ______    ______ _________
0                                  25288              ¿þþþþþþþþþþþþþþþþþþþþþþþþþþþþþþþþþþþþþþþþþþþþþþþþþþþþþþþþþþþþþþþþþþþþþÜ
                                   25289              Ÿ                                                                     Ÿ
                                   25290              Ÿ  INITCVRG -- Local routine to initialize the public record          Ÿ
                                   25291              Ÿ    groups.  Note that this must be done in user (not dispatcher)    Ÿ
                                   25292              Ÿ    mode.                                                            Ÿ
                                   25293              Ÿ                                                                     Ÿ
                                                      ¾þþþþþþþþþþþþþþþþþþþþþþþþþþþþþþþþþþþþþþþþþþþþþþþþþþþþþþþþþþþþþþþþþþþþþ»
0002E64 50E0 D000/9008_      00000 25294              INITCVRG PROC
 USING  *,R7
                                   25333                       ¿þþþþþþþþþþþþþþþþþþþþþþþþþþþþþþþþþþþþÜ
                                   25334                       Ÿ  Initialize public record groups.  Ÿ
                                   25335                       ¾þþþþþþþþþþþþþþþþþþþþþþþþþþþþþþþþþþþþ»
                                   25336              *        XWTO  'INITCVRG entered'  *** slp debug ***
 002E7E 41F0 C300            00300 25337                       LA    R15,CVEXEC          EXEC files
 002E82 4100 0004            00004 25338                       LA    R0,4
 002E86 4110 7256            030D4 25339                       LA    R1,=CL4'EXEC'
 002E8A 4120 725A            030D8 25340                       LA    R2,=CL4'M...'
 002E8E 58E0 725E/0DEE       030DC 25341                       VCALL INITRG
                                   25345
 002E94 41F0 C320            00320 25346                       LA    R15,CVFLOW          FLOW information
 002E98 4100 0010            00010 25347                       LA    R0,16
 002E9C 4110 7262            030E0 25348                       LA    R1,=CL4'FLOW'
 002EA0 4120 725A            030D8 25349                       LA    R2,=CL4'M...'
 002EA4 58E0 725E/0DEE       030DC 25350                       VCALL INITRG
                                   25354
 002EAA 41F0 C340            00340 25355                       LA    R15,CVDATA          Exec GETDATA/PUTDATA records
 002EAE 4100 0020            00020 25356                       LA    R0,CPDATANL
 002EB2 4110 7266            030E4 25357                       LA    R1,=CL4'DATA'
 002EB6 4120 725A            030D8 25358                       LA    R2,=CL4'M...'
 002EBA 58E0 725E/0DEE       030DC 25359                       VCALL INITRG
                                   25363
 002EC0 41F0 C360            00360 25364                       LA    R15,CVRG16          Misc Record Group 16
 002EC4 4100 0010            00010 25365                       LA    R0,CPRG16NL
 002EC8 4110 726A            030E8 25366                       LA    R1,=CL4'RG16'
 002ECC 4120 725A            030D8 25367                       LA    R2,=CL4'M...'
 002ED0 58E0 725E/0DEE       030DC 25368                       VCALL INITRG
                                   25372
 002ED6 41F0 C380            00380 25373                       LA    R15,CVRG64          Misc Record Group 64
 002EDA 4100 0040            00040 25374                       LA    R0,CPRG64NL
 002EDE 4110 726E            030EC 25375                       LA    R1,=CL4'RG64'
 002EE2 4120 725A            030D8 25376                       LA    R2,=CL4'M...'
 002EE6 58E0 725E/0DEE       030DC 25377                       VCALL INITRG
                                   25381
 002EEC 58E0 7272/0DEE       030F0 25382                       PFREE PAR
 002EF2 58E0 7276/0DEE       030F4 25388                       PFREE PBR
 002EF8 18D8/9808 D004_            25394                       PEND
 DROP   *,R7
1INIT     (INIT4072) (12:46) (15MAR04) WYLBUR's Initialization Routines                                                     Page   56
0Current Usings:  (CP,R11) (CV,R12)
0Loc    Object Code    Addr1 Addr2  Stmt Lv Lineno    Source Statement           (Hibal 5, Asmedit 3.3)  HLASM R4.0  2004/03/15 12.46
+___    ______ ____    _____ _____  ____ __ ______    ______ _________
0000000                00000 00127 25415              PCMDWA   RECORD BEGIN
                                   25423  1           PCMDSG     SEGCB
 000000 00                         25424  1 01-SEGCB +$$$SEGCB261   DS 0F
 PCMDSGCOD.PCMDSGS 01 EQ
 PCMDSGCOD.PCMDSGW 02 EQ
 PCMDSGCOD.PCMDSGC 03 EQ
 PCMDSGCOD.PCMDSGS 04 EQ
 PCMDSGCOD.PCMDSGO 05 EQ
 PCMDSGCOD.PCMDSGC 06 EQ
 PCMDSGCOD.PCMDSGM 07 EQ
 000001 00                         25499  1 01-SEGCB +           DC    X'00'               Reserved
 000002 0000                              1          +
 000004 00000000                   25500  1 01-SEGCB +PCMDSGMAXF   DC  A(0)                Maximum buffer length
 000008 00000000                   25501  1 01-SEGCB +PCMDSGMRKF   DC  A(0)                Length at last mark
 00000C 00000000                   25502  1 01-SEGCB +PCMDSGLENF   DC  A(0)                Current length
 000010 00000000                   25503  1 01-SEGCB +PCMDSGINDF   DC  A(0)                Overflow/indent count
 000014 00000000                   25504  1 01-SEGCB +PCMDSGERR   DC   A(0)                Address of error recovery routine
 000018 0000000000000000           25505  1 01-SEGCB +           DC    2F'0'               Reserved
 000020 00000000                   25506  1 01-SEGCB +PCMDSGLOC   DC   A(0)                Location of buffer
 000024 00000000                   25507  1 01-SEGCB +PCMDSGRTN   DC   A(0)                Processing routine
 000028 0000000000000000           25508  1 01-SEGCB +           DC    4F'0'               Reserved
 000038 00000000                   25509  1 01-SEGCB +PCMDSGUSR   DC   A(0)                USER field
                                   25510  1 01-SEGCB +PCMDSG     EQU   $$$SEGCB261,*-$$$SEGCB261,C'X'
                                   25511  1           PCMDTEXT   DS    CL(&LINESZ)         Initial command is build here
 00003C                                   1          +PCMDTEXT   DS    CL(235)             Initial command is build here
 000127                00127 00127 25512                       END
-                                  25522              ¿þþþþþþþþþþþþþþþþþþþþþþþþþþþþþþþþþþþþþþþþþþþþþþþþþþþþþþþþþþþþþþþþþþþþþÜ
                                   25523              Ÿ                                                                     Ÿ
                                   25524              Ÿ  INITPCMD -- Entered from the command processor to get the          Ÿ
                                   25525              Ÿ    next command for the pseudo-user.                                Ÿ
                                   25526              Ÿ                                                                     Ÿ
                                   25527              Ÿ    When all the initial commands have been executed we set the      Ÿ
                                   25528              Ÿ    pseudo-user as logging off and return to the command             Ÿ
                                   25529              Ÿ    processor (for the last time).                                   Ÿ
                                   25530              Ÿ                                                                     Ÿ
                                                      ¾þþþþþþþþþþþþþþþþþþþþþþþþþþþþþþþþþþþþþþþþþþþþþþþþþþþþþþþþþþþþþþþþþþþþþ»
0002F06 188D/41D0 D128_            25531              INITPCMD GENTER L'PCMDWA
 USING  *,R7
 USING  PCMDWA,R8                  25550                       USING PCMDWA,WAR
 002F18 D7FF 8000 8000_00000 00000 25559                       CLEAR PCMDWA
                                   25567                       ¿þþþþþþþþþþþþþþþþþþþþþþþþþþþþþþþþÜ
                                   25568                       Ÿ  Execute the initial command.  Ÿ
                                   25569                       ¾þþþþþþþþþþþþþþþþþþþþþþþþþþþþþþþþ»
                                   25570              *        XWTO  'INITPCMD entered'  *** slp debug ***
 002F24 9500 70B4/4770_02FCC       25571                       IF    (ICHK,Z),BEGIN      First time through...
 002F2C 92FF 70B4      02FCC       25587  1                      MVI   ICHK,X'FF'          (Only do this once)
                                   25588  1
 002F30 4110 803C/4100_      0003C 25589  1                      SEGINIT PCMDTEXT,,PCMDSG
 002F42 4110 70B5/4100_      02FCD 25616  1                      SEGT  ICMD                Basic command
                                   25644  1
 002F54 D507 712D C4D8_03045 004D8 25645  1                      IF    (ICMDMEMB,NE,CVBLANKS),BEGIN  Add in member...
1INIT     (INIT4072) (12:46) (15MAR04) WYLBUR's Initialization Routines                                                     Page   57
0Current Usings:  (*,R7) (PCMDWA,R8) (CP,R11) (CV,R12)
0Loc    Object Code    Addr1 Addr2  Stmt Lv Lineno    Source Statement           (Hibal 5, Asmedit 3.3)  HLASM R4.0  2004/03/15 12.46
+___    ______ ____    _____ _____  ____ __ ______    ______ _________
0002F5E 4110 71F0/4100_      03108 25663  2                        SEG   '#'
 002F70 4110 712D/4100_      03045 25680  2                        SEGT  ICMDMEMB            Add member
 002F82                            25708  1                      END
                                   25712  1
 002F82 D577 7135 C4D8_0304D 004D8 25713  1                      IF    (ICMDPARM,NE,CVBLANKS),BEGIN  Add any parms...
 002F8C 4110 71F1/4100_      03109 25731  2                        SEG   '/'
 002F9E 4110 7135/4100_      0304D 25748  2                        SEGT  ICMDPARM
 002FB0                            25776  1                      END
                                   25780  1           *
                                   25781  1           *        XWTO  PCMDTEXT,L:PCMDSGLENF  *** slp debug ***
 002FB0 4110 803C/5800_      0003C 25782  1                      SETMSG PCMDTEXT,L:PCMDSGLENF  Famous first command
 002FB8 58E0 71EC/0DEE       03104 25796  1                      VCALL EDTCOMMV            Go execute the command
 002FBE 0000                       25800  1                      DC    H'0'                (No return)
 002FC0                            25801                       END
                                   25805                       ¿þþþþþþþþþþþþþþþþþþþþþþþþþþþþþþþþþþþþþþþþþþÜ
                                   25806                       Ÿ  All done with initialization commands.  Ÿ
                                   25807                       ¾þþþþþþþþþþþþþþþþþþþþþþþþþþþþþþþþþþþþþþþþþþ»
 002FC0 5860 C1C8            001C8 25808                       L     JCBR,CVCURJCB
 002FC4 9680 6062      00062       25809                       WITH  JCB,'SET JCBAFALO'  Logging off
 USING  JCB,R6
 DROP   JCB,R6
 002FC8 47F0 C7DE            007DE 25837                       B     CVNEXT
 DROP   *,R7                       25838                       DROP  BR
                                   25845              *
                                   25846              *
 002FCC 00                         25847              ICHK     DC    X'00'               Set to FF after the first time
                                   25848
 002FCD E7C3C1D3D340E6E8           25849              ICMD     DC    CL120'XCALL WYL.GS.WYL.PARMS'
 003045 C9D5C9E3D7D9D6C4           25850              ICMDMEMB DC    CL8'INITPROD'       Execute this member
 00304D 4040404040404040           25851              ICMDPARM DC    CL120' '
                                   25852
                                   25853                       QLTORG
                                   25883
                                   25884                       VLTORG
 003168                03168 03168 25896                       END   .

1INIT     (INIT4072) (12:46) (15MAR04) Relocation Dictionary                                                                Page   58
-   Pos.Id   Rel.Id   Flags    Address                                                       HLASM R4.0  2004/03/15 12.46
0  00000001 00000001    08    00000281
   00000001 00000001    08    000003B1
   00000001 00000001    08    000004B9
   00000001 00000001    0C    00000870
   00000001 00000001    0C    00000890
   00000001 00000001    0C    00000898
   00000001 00000001    0C    0000089C
   00000001 00000001    0C    000008A0
   00000001 00000001    0C    000008A4
   00000001 00000001    0C    000008B0
   00000001 00000001    0C    000008B8
   00000001 00000001    0C    000008BC
   00000001 00000001    0C    000008C0
   00000001 00000001    0C    0000090C
   00000001 00000001    0C    00000934
   00000001 00000001    0C    00000938
   00000001 00000001    0C    00000CA8
   00000001 00000001    0C    00000CAC
   00000001 00000001    08    00000E01
   00000001 00000001    08    00000EA9
   00000001 00000001    08    00000ED7
   00000001 00000001    0C    00000FD8
   00000001 00000001    0C    00000FDC
   00000001 00000001    0C    00001008
   00000001 00000001    08    000011D1
   00000001 00000001    0C    000012B8
   00000001 00000001    0C    000012C8
   00000001 00000001    0C    000012CC
   00000001 00000001    0C    000012D0
   00000001 00000001    08    00001315
   00000001 00000001    0C    00001320
   00000001 00000001    08    00001341
   00000001 00000001    08    00001349
   00000001 00000001    08    00001351
   00000001 00000001    08    00001DC5
   00000001 00000001    08    00001DD1
   00000001 00000001    08    00001DE9
   00000001 00000001    08    0000228D
   00000001 00000001    0C    0000229C
   00000001 00000001    0C    000022A0
   00000001 00000001    0C    000022B8
   00000001 00000001    0C    000022BC
   00000001 00000001    08    000022D9
   00000001 00000001    08    000022E1
   00000001 00000001    08    000022E9
   00000001 00000001    08    000022F9
   00000001 00000001    08    00002301
   00000001 00000001    08    00002411
   00000001 00000001    08    00002509
   00000001 00000001    08    00002615
   00000001 00000001    08    0000261D
   00000001 00000001    08    00002626
   00000001 00000001    08    0000262E
   00000001 00000001    08    00002636
   00000001 00000001    08    00002641
1INIT     (INIT4072) (12:46) (15MAR04) Relocation Dictionary                                                                Page   59
   00000001 00000001    08    0000264D
   00000001 00000001    08    00002659
   00000001 00000001    08    00002665
   00000001 00000001    08    0000266D
   00000001 00000001    08    00002676
   00000001 00000001    08    00002680
   00000001 00000001    08    00002689
   00000001 00000001    08    00002693
   00000001 00000001    08    0000269D
   00000001 00000001    08    000026A9
   00000001 00000001    08    000026B4
   00000001 00000001    08    000026C0
   00000001 00000001    08    000026C8
   00000001 00000001    08    000026D0
   00000001 00000001    08    000026D8
   00000001 00000001    08    000026E0
   00000001 00000001    08    000026E8
   00000001 00000001    08    000026F0
   00000001 00000001    08    000026F8
   00000001 00000001    08    000026FF
   00000001 00000001    08    0000270A
   00000001 00000001    08    00002716
   00000001 00000001    08    0000271D
   00000001 00000001    08    00002726
   00000001 00000001    08    00002733
   00000001 00000001    08    00002741
   00000001 00000001    08    0000274E
   00000001 00000001    08    00002757
   00000001 00000001    08    00002762
   00000001 00000001    08    0000276B
   00000001 00000001    08    00002776
   00000001 00000001    08    00002780
   00000001 00000001    08    0000278C
   00000001 00000001    08    00002795
   00000001 00000001    08    000027A0
   00000001 00000001    08    000027AA
   00000001 00000001    08    000027B1
   00000001 00000001    08    000027BC
   00000001 00000001    08    000027C4
   00000001 00000001    08    000027CF
   00000001 00000001    08    000027D7
   00000001 00000001    08    000027E2
   00000001 00000001    08    000027EB
   00000001 00000001    08    000027F5
   00000001 00000001    08    00002800
   00000001 00000001    08    00002807
   00000001 00000001    08    00002811
   00000001 00000001    08    0000281D
   00000001 00000001    08    00002826
   00000001 00000001    08    0000282D
   00000001 00000001    08    00002836
   00000001 00000001    08    0000283E
   00000001 00000001    08    00002848
   00000001 00000001    08    00002850
   00000001 00000001    08    0000285A
   00000001 00000001    08    00002860
   00000001 00000001    08    00002868
   00000001 00000001    08    00002870
   00000001 00000001    08    0000287A
1INIT     (INIT4072) (12:46) (15MAR04) Relocation Dictionary                                                                Page   60
   00000001 00000001    08    00002882
   00000001 00000001    08    0000288C
   00000001 00000001    08    0000289A
   00000001 00000001    08    00002BDD
   00000001 00000001    08    00002BE1
   00000001 00000001    08    00002C1D
   00000001 00000001    0C    00002CB0
   00000001 00000001    0C    00002CD4
   00000001 00000001    0C    00002CE0
   00000001 00000001    0C    00002CE8
   00000001 00000002    1C    00000840
   00000001 00000002    1C    00002C90
   00000001 00000003    1C    00000844
   00000001 00000004    1C    00000850
   00000001 00000004    1C    000012C4
   00000001 00000004    1C    00002C9C
   00000001 00000005    1C    00000858
   00000001 00000006    1C    00000860
   00000001 00000007    1C    0000086C
   00000001 00000008    1C    00000878
   00000001 00000009    1C    0000087C
   00000001 0000000A    1C    00000880
   00000001 0000000B    1C    00000884
   00000001 0000000C    1C    00000888
   00000001 0000000D    1C    0000088C
   00000001 0000000E    1C    00000894
   00000001 0000000E    1C    00000FF4
   00000001 0000000E    1C    000012DC
   00000001 0000000E    1C    00002174
   00000001 0000000E    1C    00002CCC
   00000001 0000000F    1C    000008C4
   00000001 0000000F    1C    00000FE4
   00000001 00000010    1C    000008DC
   00000001 00000011    1C    000008E0
   00000001 00000011    1C    00000FEC
   00000001 00000011    1C    000012D4
   00000001 00000011    1C    00002170
   00000001 00000012    1C    00000904
   00000001 00000013    1C    00000908
   00000001 00000013    1C    000012C0
   00000001 00000013    1C    00002C98
   00000001 00000014    1C    00000910
   00000001 00000015    1C    00000918
   00000001 00000016    1C    0000091C
   00000001 00000017    1C    00000920
   00000001 00000018    1C    00000924
   00000001 00000019    1C    00000928
   00000001 0000001A    1C    0000092C
   00000001 0000001B    1C    00000930
   00000001 0000001C    1C    0000093C
   00000001 0000001D    1C    00000FE0
   00000001 0000001D    1C    000030C8
   00000001 0000001E    1C    00000FE8
   00000001 0000001E    1C    000012D8
   00000001 0000001E    1C    0000216C
   00000001 0000001E    1C    00002CF8
   00000001 0000001E    1C    00003100
   00000001 0000001F    1C    00000FF8
   00000001 0000001F    1C    00002C94
1INIT     (INIT4072) (12:46) (15MAR04) Relocation Dictionary                                                                Page   61
   00000001 00000020    1C    00000FFC
   00000001 00000021    1C    00001004
   00000001 00000022    1C    00001010
   00000001 00000022    1C    00002CC0
   00000001 00000023    1C    00002CA0
   00000001 00000024    1C    00002CAC
   00000001 00000025    1C    00002CB4
   00000001 00000026    1C    00002CB8
   00000001 00000027    1C    00002CD0
   00000001 00000028    1C    00002CD8
   00000001 00000029    1C    00002CEC
   00000001 0000002A    1C    00002CF4
   00000001 0000002B    1C    000030CC
   00000001 0000002C    1C    000030D0
   00000001 0000002D    1C    000030DC
   00000001 0000002E    1C    000030F0
   00000001 0000002F    1C    000030F4
   00000001 00000030    1C    000030F8
   00000001 00000031    1C    000030FC
   00000001 00000032    1C    00003104

1INIT     (INIT4072) (12:46) (15MAR04) Ordinary Symbol and Literal Cross Reference                                          Page   62
-Symbol   Length   Value     Id    R Type   Defn References                                  HLASM R4.0  2004/03/15 12.46
0$$$@R0        1 00000000 FFFFFFFE     J     705  1009
 $$$@R10       1 00000000 FFFFFFF4     J     835  1086
 $$$@R11       1 00000000 FFFFFFF3     J     848  1099
 $$$@R12       1 00000000 FFFFFFF2     J     861  1112
 $$$@R13       1 00000000 FFFFFFF1     J     874  1125
 $$$@R14       1 00000000 FFFFFFF0     J     887  1138
 $$$@R6        1 00000000 FFFFFFF8     J     783  1022
 $$$@R7        1 00000000 FFFFFFF7     J     796  1035
 $$$@R8        1 00000000 FFFFFFF6     J     809  1048   1060
 $$$@R9        1 00000000 FFFFFFF5     J     822  1073
 $$$C1WYLINIT
               1 000009E6 00000001     J   18930 18932  20110
 $$$C2WYLINIT
               1 00001059 00000001     J   20905 20907
 $$$C3WYLINIT
               1 000012E6 00000001     J   21549 21551  21656
 $$$C4WYLINIT
               1 000023D0 00000001     J   22876 22878  22945  22970  23274  24465  24720
 $$$C5WYLINIT
               1 00002DD0 00000001     J   25075 25077  25519
 $$$C6WYLINIT
               1 0000310A 00000001     J   25878 25880
 $$$C7WYLINIT
               1 00003168 00000001     J   25899 25901
 $$$D3WYLINIT
               1 00002263 00000001     J   21550 21596
 $$$D4WYLINIT
               1 00002DBC 00000001     J   22877 22923  23263  24454  24709
 $$$PRIV1257
               2 00000056 00000001     H   16240 16231B 16233B
 $$$RCHKU      1 00000000 FFFFFFC6     J   16140 16172  16172
 $$$RCHRPARMS
               1 00000000 FFFFFFCD     J   10881 10902  10902
 $$$RCSETWA
               1 00000000 FFFFFFC4     J   20096 20109  20109
 $$$RCV        1 00000000 FFFFFFCB     J   10964 12149  12149
 $$$RDEV       1 00000000 FFFFFFC8     J   14446 14491  14491
 $$$RDVTAREA
               1 00000000 FFFFFFC7     J   15963 16126  16126
 $$$RICHKPTWA
               1 00000000 FFFFFFC5     J   17045 17072  17072
 $$$RINITWA
               1 00000000 FFFFFFC3     J   22950 22969  22969
 $$$RJCB       1 00000000 FFFFFFEE     J    1184  1458   1458
 $$$RNSCNCB
               1 00000000 FFFFFFCA     J   12160 12233  12233
 $$$RPATHD
               1 00000000 FFFFFFE9     J    1861  1913   1913
 $$$RPCMDWA
               1 00000000 FFFFFFC2     J   25417 25518  25518
 $$$RPCWD      1 00000000 FFFFFFE8     J    1919  1998   1998
 $$$RPDBD      1 00000000 FFFFFFEA     J    1663  1855   1855
 $$$RPFCB      1 00000000 FFFFFFED     J    1464  1548   1548
 $$$RRDWD      1 00000000 FFFFFFE7     J    2004  2032   2032
 $$$RRESOURCE
1INIT     (INIT4072) (12:46) (15MAR04) Ordinary Symbol and Literal Cross Reference                                          Page   63
               1 00000000 FFFFFFEB     J    1616  1657   1657
 $$$RRSCGROUP
               1 00000000 FFFFFFEC     J    1555  1610   1610
 $$$RUSERCVT
               1 00000000 FFFFFFDB     J    6452  6535   6535
 $$$SEGCB0
               4 00000050 FFFFFFC9     F   12263 12349  12349
 $$$SEGCB261
               4 00000000 FFFFFFC2     F   25424 25510  25510
 $$$V01       29 0000310A 00000001     C   25890 16971
 $$$V02        9 00003127 00000001     C   25891 20231  20548
 $$$V03       24 00003130 00000001     C   25892 20478
 $$$V04       27 00003148 00000001     C   25893 21296
 $$$Z0         4 00000808 00000001     F   18850 17508
 $$$100F       2 0000076C 00000001     H   18637 18608B
 $$$101F       2 00000778 00000001     H   18675 18661B
 $$$102F       2 00000798 00000001     H   18728 18695B
 $$$103F       2 00000798 00000001     H   18723 18713B
 $$$104F       2 000007E0 00000001     H   18805 18778B 18795B
 $$$106F       2 000007FE 00000001     H   18842 18827B
 $$$107B       1 00000A00 00000001     X   18951 18961U
 $$$108F       2 00000A26 00000001     H   19005 18976B
 $$$109F       2 00000A76 00000001     H   19142 19128B
 $$$109S       2 00000A2A 00000001     H   19015 19141B
 $$$110F       2 00000A66 00000001     H   19109 19045B 19062B
 $$$115B       1 00000AAA 00000001     X   19211 19218U
 $$$116F       2 00000C58 00000001     H   19807 19274B
 $$$117F       2 00000B6A 00000001     H   19457 19433B
 $$$118F       2 00000B84 00000001     H   19492 19468B
 $$$119F       2 00000BE4 00000001     H   19597 19582B
 $$$120F       2 00000BF0 00000001     H   19623 19608B
 $$$121F       2 00000BFE 00000001     H   19653 19637B
 $$$122F       2 00000C0C 00000001     H   19682 19666B
 $$$123F       2 00000C1A 00000001     H   19711 19695B
 $$$124B       4 00000C2A 00000001     I   19745 19764
 $$$124F       2 00000C34 00000001     H   19760 19745B 19763
 $$$124T       2 00000C2E 00000001     H   19748 19734B
 $$$126E       2 00000C38 00000001     H   19771 19765
 $$$126F       2 00000C58 00000001     H   19803 19767B
 $$$127F       2 00000C58 00000001     H   19799 19786B
 $$$128        1 00000050 00000001 A   U   19837 19834  19836
 $$$129B       1 00000C82 00000001     X   19863 19870U
 $$$130F       2 00000DA4 00000001     H   20075 19887B
 $$$133F       2 00000CFC 00000001     H   20004 19987B
 $$$134F       2 00000D9C 00000001     H   20067 20018B
 $$$136B       1 00000DD6 00000001     X   20144 20151U
 $$$137F       2 00000E04 00000001     H   20235 20220B
 $$$137T       2 00000DEC 00000001     H   20223 20208B
 $$$139F       2 00000E46 00000001     H   20339 20277B
 $$$140F       2 00000E2E 00000001     H   20307 20292B
 $$$141F       2 00000E3A 00000001     H   20333 20318B
 $$$142F       2 00000E62 00000001     H   20370 20355B
 $$$143        1 0000005C 00000001 A   U   20399 20396  20398
 $$$145B       1 00000E8A 00000001     X   20439 20446U
 $$$146F       2 00000EAC 00000001     H   20482 20467B
 $$$147F       2 00000EDA 00000001     H   20552 20537B
 $$$147T       2 00000EC2 00000001     H   20540 20525B
 $$$149F       2 00000EFC 00000001     H   20598 20583B
 $$$150        1 00000050 00000001 A   U   20626 20623  20625
1INIT     (INIT4072) (12:46) (15MAR04) Ordinary Symbol and Literal Cross Reference                                          Page   64
 $$$151B       1 00000F26 00000001     X   20644 20651U
 $$$152F       2 00000FCA 00000001     H   20851 20830B
 $$$153B       1 00001074 00000001     X   20929 20936U
 $$$154F       2 000010B0 00000001     H   21018 20970B
 $$$155F       2 000011DC 00000001     H   21312 21038B
 $$$155S       2 000010BC 00000001     H   21029 21311B
 $$$157F       2 0000119C 00000001     H   21251 21068B 21081B 21106B 21165B 21241B
 $$$157S       2 000010E0 00000001     H   21058 21250B
 $$$161F       2 0000115C 00000001     H   21199 21125B
 $$$167F       2 000011D4 00000001     H   21300 21285B
 $$$169F       2 00001220 00000001     H   21409 21325B
 $$$170B       1 00001246 00000001     X   21452 21459U
 $$$172B       1 00001D22 00000001     X   21688 21695U
 $$$173F       2 00001DA4 00000001     H   21869 21725B
 $$$174B       4 00001D4A 00000001     I   21748 21852
 $$$174F       2 00001D9E 00000001     H   21849 21748B 21851
 $$$175E       2 00001DA2 00000001     H   21859 21853
 $$$175F       2 00001DA4 00000001     H   21865 21855B
 $$$176B       4 00001E62 00000001     I   22009 22038
 $$$176F       2 00001E7C 00000001     H   22035 22009B 22037
 $$$177E       2 00001E80 00000001     H   22045 22039
 $$$177F       2 00001E9A 00000001     H   22078 22041B
 $$$178        1 00000050 00000001 A   U   22096 22093  22095
 $$$179F       2 00001FD8 00000001     H   22450 22202B 22222B 22250B 22303B 22330B 22357B
 $$$180B       1 00001EC2 00000001     X   22127 22134U
 $$$181B       4 00001EFE 00000001     I   22182 22275
 $$$181F       2 00001F40 00000001     H   22272 22182B 22274
 $$$182F       2 00001F0E 00000001     H   22206 22194B
 $$$183F       2 00001F1C 00000001     H   22226 22214B
 $$$184F       2 00001F2C 00000001     H   22254 22242B
 $$$185E       2 00001F44 00000001     H   22282 22276
 $$$185F       2 00001F4A 00000001     H   22288 22278B
 $$$189F       2 00001FC2 00000001     H   22430 22374B
 $$$190F       2 00001FC2 00000001     H   22426 22395B
 $$$191        1 00000050 00000001 A   U   22459 22456  22458
 $$$193B       1 00002006 00000001     X   22490 22497U
 $$$194        1 00000050 00000001 A   U   22540 22537  22539
 $$$196B       1 00002040 00000001     X   22566 22573U
 $$$197        1 00000050 00000001 A   U   22616 22613  22615
 $$$199B       1 0000207A 00000001     X   22642 22649U
 $$$200        1 00000050 00000001 A   U   22692 22689  22691
 $$$202B       1 000020B4 00000001     X   22718 22725U
 $$$203        1 00000050 00000001 A   U   22768 22765  22767
 $$$205B       1 000020EE 00000001     X   22794 22801U
 $$$206        1 00000050 00000001 A   U   22844 22841  22843
 $$$207B       1 00002400 00000001     X   22990 22997U
 $$$208F       2 00002562 00000001     H   23384 23041B
 $$$210F       2 00002478 00000001     H   23132 23079B
 $$$211F       2 00002478 00000001     H   23128 23110B
 $$$213B       4 0000247C 00000001     I   23145 23174
 $$$213F       2 0000249E 00000001     H   23170 23145B 23173
 $$$215E       2 000024A2 00000001     H   23181 23175
 $$$215F       2 000024D8 00000001     H   23296 23177B
 $$$216F       2 000024BA 00000001     H   23221 23198B 23211B
 $$$218F       2 000024C6 00000001     H   23240 23231B
 $$$219F       2 000024D4 00000001     H   23279 23255B
 $$$220        6 00002DBE 00000001     I   23269 23261X
 $$$221        6 00002DBE 00000001     I   23268 23269  23269
 $$$222F       2 000025A0 00000001     H   23471 23442B 23456B
1INIT     (INIT4072) (12:46) (15MAR04) Ordinary Symbol and Literal Cross Reference                                          Page   65
 $$$224F       2 000025BA 00000001     H   23525 23485B 23497B
 $$$226F       2 000025C6 00000001     H   23551 23537B
 $$$227F       2 00002602 00000001     H   23695 23582B 23614B
 $$$229F       2 00002602 00000001     H   23686 23630B
 $$$230F       2 00002602 00000001     H   23682 23646B
 $$$231F       2 00002602 00000001     H   23678 23663B
 $$$234F       2 000028DC 00000001     H   23926 23905B
 $$$239F       2 00002A92 00000001     H   24431 24422B
 $$$240F       2 00002AA0 00000001     H   24470 24446B
 $$$241        6 00002DC4 00000001     I   24460 24452X
 $$$242        6 00002DC4 00000001     I   24459 24460  24460
 $$$246F       2 00002B4C 00000001     H   24686 24677B
 $$$247F       2 00002B5A 00000001     H   24725 24701B
 $$$248        6 00002DCA 00000001     I   24715 24707X
 $$$249        6 00002DCA 00000001     I   24714 24715  24715
 $$$251B       1 00002C20 00000001     X   24923 24930U
 $$$253F       2 00002C30 00000001     H   24963 24953B
 $$$254F       2 00002C50 00000001     H   25006 24975B
 $$$255F       2 00002C50 00000001     H   25002 24992B
 $$$256B       1 00002DEA 00000001     X   25098 25105U
 $$$257B       1 00002E38 00000001     X   25205 25212U
 $$$259B       1 00002E7E 00000001     X   25317 25324U
 $$$260        1 00000050 00000001 A   U   25411 25408  25410
 $$$269B       1 00002F18 00000001     X   25541 25548U
 $$$270F       2 00002FC0 00000001     H   25804 25582B
 $$$271F       2 00002F82 00000001     H   25711 25658B
 $$$272F       2 00002FB0 00000001     H   25779 25726B
 $$$42B        1 0000001A 00000001     X   16185 16192U
 $$$43F        2 000000B6 00000001     H   16333 16314B
 $$$45F        2 00000106 00000001     H   16414 16402B
 $$$46F        2 000001A8 00000001     H   16614 16599B
 $$$47F        2 000001B6 00000001     H   16642 16627B
 $$$48B        4 000001C0 00000001     I   16664 16683
 $$$48F        2 000001C8 00000001     H   16679 16664B 16682
 $$$49B        4 000001D2 00000001     I   16701 16720
 $$$49E        2 000001CC 00000001     H   16690 16684
 $$$49F        2 000001DA 00000001     H   16716 16686B 16701B 16719
 $$$51B        4 000001E4 00000001     I   16738 16757
 $$$51E        2 000001DE 00000001     H   16727 16721
 $$$51F        2 000001EC 00000001     H   16753 16723B 16738B 16756
 $$$53B        4 000001F6 00000001     I   16775 16794
 $$$53E        2 000001F0 00000001     H   16764 16758
 $$$53F        2 000001FE 00000001     H   16790 16760B 16775B 16793
 $$$55B        4 00000208 00000001     I   16812 16831
 $$$55E        2 00000202 00000001     H   16801 16795
 $$$55F        2 00000210 00000001     H   16827 16797B 16812B 16830
 $$$57B        4 0000021A 00000001     I   16849 16868
 $$$57E        2 00000214 00000001     H   16838 16832
 $$$57F        2 00000222 00000001     H   16864 16834B 16849B 16867
 $$$59B        4 0000022C 00000001     I   16886 16904
 $$$59E        2 00000226 00000001     H   16875 16869
 $$$59F        2 00000234 00000001     H   16901 16871B 16886B 16903
 $$$61E        2 00000238 00000001     H   16911 16905
 $$$61F        2 0000023C 00000001     H   16918 16907B
 $$$62F        2 00000284 00000001     H   16975 16960B
 $$$63F        2 00000490 00000001     H   17747 17117B 17234B 17264B 17292B 17356B 17434B 17519B 17623B 17674B 17709B
 $$$64F        2 000002F0 00000001     H   17189 17148B 17160B
 $$$66F        2 00000310 00000001     H   17238 17223B
 $$$67F        2 00000322 00000001     H   17268 17253B
1INIT     (INIT4072) (12:46) (15MAR04) Ordinary Symbol and Literal Cross Reference                                          Page   66
 $$$68F        2 00000334 00000001     H   17296 17281B
 $$$70F        2 00000382 00000001     H   17360 17345B
 $$$71F        2 000003C8 00000001     H   17438 17423B
 $$$73F        2 000003EA 00000001     H   17528 17477B 17511B
 $$$75F        2 00000448 00000001     H   17631 17600B
 $$$76F        2 00000448 00000001     H   17627 17615B
 $$$77F        2 00000478 00000001     H   17718 17650B
 $$$77S        2 00000448 00000001     H   17636 17717B
 $$$79F        2 0000045E 00000001     H   17678 17666B
 $$$80F        2 00000474 00000001     H   17713 17701B
 $$$81B        4 00000494 00000001     I   17764 17839
 $$$81F        2 000004CE 00000001     H   17836 17764B 17838
 $$$82F        2 000004BE 00000001     H   17810 17796B
 $$$83F        2 000004CE 00000001     H   17832 17822B
 $$$84E        2 000004D2 00000001     H   17846 17840
 $$$84F        2 000004E4 00000001     H   17868 17842B
 $$$85B        4 0000053E 00000001     I   17978 18002
 $$$85F        2 0000054A 00000001     H   17999 17978B 18001
 $$$86E        2 0000054E 00000001     H   18009 18003
 $$$86F        2 0000055E 00000001     H   18020 18005B
 $$$87F        2 000005A0 00000001     H   18088 18059B
 $$$88S        2 000005BE 00000001     H   18110 18137B
 $$$90F        2 000005EE 00000001     H   18203 18178B
 $$$92F        2 0000066E 00000001     H   18370 18351B
 $$$94F        2 000006A2 00000001     H   18412 18395B
 $$$95F        2 00000718 00000001     H   18487 18437B
 $$$97F        2 0000072E 00000001     H   18514 18500B
 $$$98F        2 00000758 00000001     H   18597 18582B
 $$$98S        2 00000744 00000001     H   18551 18596B
 @RAR          0 00000000 FFFFFFF0     @    1139 11947  11955B
 @R0           0 00000000 FFFFFFFE     @     706   982U
 @R1           0 00000000 FFFFFFFD     @     719   978U 11953  11954  16200  16376U 16408  17020U 18143U 18989U 20466
                                                 21177U 21914U 21973M 21974M 21975M 21983U 22262U 22910M 23115  23522U
                                                 24030  24039  24040  24164U 24459  24648  24714  25019U
 @R10          0 00000000 FFFFFFF4     @     836   942U
 @R11          0 00000000 FFFFFFF3     @     849   938U
 @R12          0 00000000 FFFFFFF2     @     862   934U
 @R13          0 00000000 FFFFFFF1     @     875   930U 17367M 17380  18474M 18476  18943M 19855M 20636M 20921M 20983M
                                                 21010  21444M 22901M 22911  22982M 25090M
 @R14          0 00000000 FFFFFFF0     @     888   926U 19560M 19560
 @R15          0 00000000 FFFFFFEF     @     901   922U 17379B 18418  21007U 21184  21188  21214U 21215  21497  21947U
                                                 22919U 23163U 23164  23389  23390  23860  23883  23884  23887  23904
                                                 24168  24482  25014U 25258U
 @R2           0 00000000 FFFFFFFC     @     732   974U 16335  16336  16386U 16388  16390  16556U 17525U 17877U 17958U
                                                 18032U 18312U 18382U 18820  21226  21737U 21931U 22300  22327  24408M
                                                 24459M 24473M 24482M 24486M 24658M 24714M
 @R3           0 00000000 FFFFFFFB     @     745   970U 17307U 17535U 18304U 21180M 21182  21207M 21216M 21223M 21224M
                                                 21225
 @R4           0 00000000 FFFFFFFA     @     758   966U 17386U 17565U 21183M 21186M 21187M 21190M 21191M 21192  21194M
                                                 21195  21203M 21205M 21206  21260M 23692U
 @R5           0 00000000 FFFFFFF9     @     771   962U 16421U 18153U 18525U 18593U 19816U 20192U 20354  20360M 20509U
                                                 20610U 20791M 20791  21421U 21513U 23124  23162  23210  23268  23702U
 @R6           0 00000000 FFFFFFF8     @     784   958U 18160U 18535U 19138U 19821U 20378U 20858U 21428U 23381U 25176U
                                                 25835U
 @R7           0 00000000 FFFFFFF7     @     797   954U 18958U 19171U 19826U 20088U 20388U 20615U 20870U 21434U 21525U
                                                 22085U 22448U 22529U 22605U 22681U 22757U 22833U 24852U 25188U 25285U
                                                 25400U 25843U
 @R8           0 00000000 FFFFFFF6     @     810   950U 20383U 24846U
 @R9           0 00000000 FFFFFFF5     @     823   946U
1INIT     (INIT4072) (12:46) (15MAR04) Ordinary Symbol and Literal Cross Reference                                          Page   67
 ABSCENT       1 00000000 00000000 A   T   11963 11963
 AHLHEAD       1 00000000 00000000 A   T    6945  6945
 AHLVCCR8      1 00000000 00000000 A   T    7436  7436
 AMODE24       1 00000000 00000013     T   18897 18897  21538  25038
 AMODE31       1 00000000 00000004     T   18859 18859  21539  25039
 ASCTBL        1 00000000 00000000 A   T   11971 11971
 ASMVT         1 00000000 00000000 A   T    7325  7325
 BADPARM       4 00002B64 00000001     I   24736 23873B 24014B 24033B 24638B 24651B
 BLTBL         1 00000000 00000000 A   T   11973 11973
 BR            7 00000007 00000001 A   #    1029 18948M 18961U 19206M 19860M 19870U 20139M 20434M 20641M 20651U 20926M
                                                 20936U 21449M 21459U 21683M 22122M 22485M 22561M 22637M 22713M 22789M
                                                 22987M 22997U 25095M 25105U 25312M
 CALCPGC       1 00000000 00000014     T   18899 18899
 CALCSECT      4 000006FA 00000001     I   18472 18483B
 CALCSEEK      4 0000122C 00000001     I   21444 21540
 CALCTRK       1 00000000 00000012     T   18896 18896
 CBBRANCH      1 00000000 00000000 A   T    7481  7481
 CC            2 000012EB 00000001     X   21559 21103  21207
 CCWSEEKH      8 000012F0 00000001     W   21563 21183
 CCWSEQ        8 000012F8 00000001     W   21564 21187
 CCWTIC        8 00001300 00000001     W   21565 21191
 CCWWRCKD      8 00001308 00000001     W   21566 21203
 CCWWREND      1 00001808 00000001     U   21583 21542
 CCWWRFMT      8 00001358 00000001     D   21582 21051
 CFORMAT       2 00002A3A 00000001     H   24330 23811  23813
 CHECKABN      2 000023D0 00000001     H   22899 21628  22895U
 CHECKC        8 000022F0 00000001     W   21643 17583M 17730M 22156M 22157M 22267
 CHECKCCW      8 000022D8 00000001     W   21640 21634  22150
 CHECKCSW      4 000022B0 00000001     A   21633 22207  22232
 CHECKDCB      4 00002268 00000001     F   21607 17210  17392  17410  17805  21634  21898  21905  21923
 CHECKEP       4 000022AC 00000001     A   21632 17542M 22187
 CHECKFMC      8 00002308 00000001     W   21647 21972M
 CHECKFMD      8 00002310 00000001     W   21648 17585M 21985
 CHECKFMT      8 000022F8 00000001     W   21645 21966
 CHECKIOB      8 000022A8 00000001     D   21631 21600  21968M 21988  22152M 22160  22268M
 CHECKIOB      1 00000000 00000000 A   T   12019 12019
 CHECKIOC      4 000022B8 00000001     A   21634 21967M 22151M
 CHECKIOR      8 000022C8 00000001     X   21635 17548  21641  21645  21969M 21973  22153M
 CHECKIOS      1 000022D0 00000001     X   21636 17369  21640
 CHECKSET      2 00000DBC 00000001     H   20123 20119
 CHECKXL       4 0000229C 00000001     A   21628 21621
 CHKJFCB     176 00002318 00000001     X   21650 21629  21879
 CHKPFMT       2 00001D08 00000001     H   21669 18886
 CHKPREAD      2 00001EA8 00000001     H   22108 18887
 CHKSLASH      2 00002B1A 00000001     H   24623 23858
 CHKU         12 00000000 FFFFFFC6     J   16172 18915  19254U 20102  20254U 20265M 20265  20335  20354  20360  20360
                                                 20566U 20791  20895  22858
 CHKUACCT      5 00000003 FFFFFFC6     C   16163 19273M 19273  19347  19389  19570  19571  20334M
 CHKUFLAG      1 00000000 FFFFFFC6     R   16148 16152  16157
 CHKUFNAR     64 00000000 FFFFFFC6        16157 19467  19581  20329M
 CHKUFPS     128 00000000 FFFFFFC6        16152 19607  20303M
 CHKUPGNO      4 00000008 FFFFFFC6     F   16165 19432M 19432  19744M 19744  19773  20335M 20335  20582  20588M
 CHRKPATH      8 00000004 FFFFFFCD     C   10889 16547M
 CHRPARMS     28 00000000 FFFFFFCD     J   10902 10895  16541U
 CHRPLEN       1 0000001C FFFFFFCD A   U   10895 18864
 CHRPRMID      4 00000000 FFFFFFCD     C   10887 16546M
 CHRUPATH      8 00000010 FFFFFFCD     C   10892 16548M
 CKDS          1 00001830 00000001     X   21586 21050
 CKDSEND       1 00001CE0 00000001     U   21587 21541
1INIT     (INIT4072) (12:46) (15MAR04) Ordinary Symbol and Literal Cross Reference                                          Page   68
 CKPTDATA      8 00002268 00000001     D   21601 17096U 18875
 CMD           4 00002A68 00000001     I   24401 23821  23823
 CMDPART       1 0000000B FFFFFFE8 A   U    1971  1974
 CNTTRK        4 0000066E 00000001     I   18373 18375B
 COMMAND       1 00000000 00000000 A   T   11959 11959
 COMMSEG       1 00000000 00000000 A   T   11960 11960
 CP            1 00000000 FFFFFFC9     J   12237  1164U 14492  16127  17376U
 CP#XSTK       1 00000010 FFFFFFC9 A   U   13698 13699
 CPACFLG       1 000005D5 FFFFFFC9     R   13801 13805  13810  13815  13820  13825
 CPACFLN       4 000005C4 FFFFFFC9     F   13793 13828  13828
 CPAFLAG       1 000005C3 FFFFFFC9     R   13765 13769  13774  13779  13784
 CPANAME       8 00000588 FFFFFFC9     C   13747 13843  13843
 CPAUTFLG      1 000008A9 FFFFFFC9     R   14111 14115  14120  14125  14130
 CPCHFLAG      1 00000B68 FFFFFFC9     R   14738 14742
 CPDATANL      1 00000020 FFFFFFC9 A   U   13682 25356
 CPDFLG        1 0000084C FFFFFFC9     R   13998 14002  14007  14012  14017  14022
 CPDFLG2       1 0000084D FFFFFFC9     R   14027 14031  14036  14041  14046  14051  14056
 CPEXFLG       1 00000758 FFFFFFC9     R   13867 13871
 CPEXFLG2      1 00000759 FFFFFFC9     R   13877 13886  13896
 CPEXFLG3      1 0000075A FFFFFFC9     R   13903 13907  13912
 CPEXTFLG      1 00000E28 FFFFFFC9     R   15549 15553  15558  15563  15568  15573  15578
 CPFABORT    128 00000D5A FFFFFFC9        15315 11923M 11923  11928M 11928
 CPFERROR     64 00000D5A FFFFFFC9        15320 11922M 11922  11927M 11927
 CPFNTEX       1 00000040 FFFFFFC9 A   U   15167 15168
 CPFRDRNG      1 00000D88 FFFFFFC9     R   15435 15439  15444  15449  15454  15459  15464  15469
 CPFRDSRC      1 00000D89 FFFFFFC9     R   15474 15483  15493  15503
 CPFRTNER      1 00000040 FFFFFFC9 A   U   15011 23317  23408
 CPFSBLK       1 00000080 FFFFFFC9 A   U   15010 24315  24339
 CPFUNUM       1 00000080 FFFFFFC9 A   U   15166 15168
 CPFXDFLG      1 000007E4 FFFFFFC9     R   13945 13949  13954
 CPGFLG1       1 00000474 FFFFFFC9     R   13308 13312  13317  13322  13327  13332  13662  13662
 CPGFLG10      1 0000047D FFFFFFC9     R   13545 13549  13554  13559  13564  13569  13574
 CPGFLG11      1 0000047E FFFFFFC9     R   13580 13584  13589
 CPGFLG12      1 0000047F FFFFFFC9     R   13595 13599  13604  13609
 CPGFLG13      1 00000480 FFFFFFC9     R   13615 13619
 CPGFLG14      1 00000481 FFFFFFC9     R   13625 13629  13634  13639  13644  13649
 CPGFLG4       1 00000477 FFFFFFC9     R   13361 13372  13381  13390  13399  13408
 CPGFLG5       1 00000478 FFFFFFC9     R   13414 13418  13423  13428  13433  13438  13443  13448  13453
 CPGFLG6       1 00000479 FFFFFFC9     R   13459 13463  13468  13473
 CPGFLG7       1 0000047A FFFFFFC9     R   13479 13483  13488  13493  13498
 CPGFLG8       1 0000047B FFFFFFC9     R   13504 13508  13513  13518  13523
 CPGFLG9       1 0000047C FFFFFFC9     R   13529 13533  13539
 CPINIT        1 00000174 FFFFFFC9     U   12478 15935
 CPJESFLG      1 000009E1 FFFFFFC9     R   14210 14214  14219  14224  14229  14234  14239  14244  14249
 CPJESFLY      1 000009FD FFFFFFC9     R   14260 14264  14269  14274
 CPJESHFL      1 000009E0 FFFFFFC9     R   14195 14199  14204  14283  14283
 CPLFLG10      1 00000D59 FFFFFFC9     R   15301 15305
 CPLFLG11      1 00000D5A FFFFFFC9     R   15311 15315  15320  15325  15330
 CPLFLG12      1 00000D5B FFFFFFC9     R   15336 15340
 CPLFLG14      1 00000D5C FFFFFFC9     R   15346 15350  15355  15360  15365  15370
 CPLFLG6       1 00000D55 FFFFFFC9     R   15176 15180  15185  15190  15195  15200  15205
 CPLFLG7       1 00000D56 FFFFFFC9     R   15211 15215  15220  15225  15230  15235
 CPLFLG8       1 00000D57 FFFFFFC9     R   15241 15245  15250  15255  15260
 CPLFLG9       1 00000D58 FFFFFFC9     R   15266 15270  15275  15280  15285  15290  15295
 CPLOCALZ      1 00000C48 FFFFFFC9     U   14768 15929  15929
 CPMFLG        1 0000084F FFFFFFC9     R   14065 14069
 CPMODFLG      1 00000C78 FFFFFFC9     R   14796 14800  14805  14810  14815  14820
 CPNAMELN      1 00000010 FFFFFFC9 A   U   13691 13938
 CPNEDPFX     10 00000E29 FFFFFFC9     X   15582 15583  15584
1INIT     (INIT4072) (12:46) (15MAR04) Ordinary Symbol and Literal Cross Reference                                          Page   69
 CPNSCAN     176 00000090 FFFFFFC9     X   12352 19554
 CPNSCANP      4 0000008C FFFFFFC9     A   12351 19555M 19559
 CPNUMFLG      1 00000C79 FFFFFFC9     R   14826 14838
 CPORVCMD      1 00000140 FFFFFFC9     R   12360 12364  12369  12374  12379  12384  12389  12394  12399  12404  12404
                                                 12455  12455
 CPORVFLG      1 00000149 FFFFFFC9     R   12411 12415  12420  12425  12430  12435  12440  12445  12450
 CPORVWF       1 00000150 FFFFFFC9     R   12463 12467
 CPOSCANX      4 00000CA8 FFFFFFC9     F   14995 15062  15062
 CPR          11 0000000B 00000001 A   #    1093  1164U 16198M 16198  19033M 19033  19147M 19147  19565  19568  19568M
                                                 20822M 20823M 20823  20842M 20842
 CPRACBAD     16 000001FC FFFFFFC9        12529 12563  12563  12564  12564
 CPRACF1       1 000001FC FFFFFFC9     R   12510 12514  12519  12524  12529  12534  12539  12544  12549  12565
 CPRACPSW     32 000001FC FFFFFFC9        12524 12562  12562  12564  12564
 CPRACUND     64 000001FC FFFFFFC9        12519 12562  12562  12563  12563
 CPRCVCUR      4 00000730 FFFFFFC9     A   13846 13848  13848
 CPREGS        4 00000004 FFFFFFC9     A   12241 19567M 19568M 19569M
 CPRFLG        1 000008AA FFFFFFC9     R   14136 14140  14145  14150  14155  14160  14165
 CPRG16NL      1 00000010 FFFFFFC9 A   U   13689 25365
 CPRG64NL      1 00000040 FFFFFFC9 A   U   13690 25374
 CPS         254 00000344 FFFFFFC9     X   13280 13283  13284  13286  13286
 CPSACCT       5 000003B4 FFFFFFC9     C   12879 13042  13042  19570M 19636  19665  19694  20276M 20276  20334  25234M
 CPSAMCOD      1 00000A22 FFFFFFC9     R   14332 14340  14350  14360  14369  14378  14387  14397  14406  14415
 CPSAMFLG      1 00000A21 FFFFFFC9     R   14292 14296  14301  14306  14311  14316  14321  14326  14437  14437
 CPSCNERT      4 00000CC8 FFFFFFC9     A   15003 23316M 23407M
 CPSCNFLG      1 00000CD0 FFFFFFC9     R   15008 15019  15028  15039  23317M 23408M 24317M 24341M
 CPSCNF2       1 00000CD1 FFFFFFC9     R   15044 15048
 CPSCNMAX      1 00000014 FFFFFFC9 A   U   15060 15061
 CPSCRI        2 00000434 FFFFFFC9     H   13269 13274  13274
 CPSEGCOD      1 00000050 FFFFFFC9     R   12266 12275  12285  12295  12305  12315  12325  12335
 CPSFAPR      64 000003BE FFFFFFC9        12977 25269  25269  25270  25270  25272M
 CPSFL         1 00000384 FFFFFFC9     R   12617 12621  12626  12631  12636  12641
 CPSFLG        1 000003F8 FFFFFFC9     R   13157 13161  13166  13171  13176  13181  13186  13191  13196
 CPSFLG2       1 000003F9 FFFFFFC9     R   13202 13206  13211  13216
 CPSFL2        1 00000385 FFFFFFC9     R   12647 12651  12656  12661  12666
 CPSFL3        1 00000386 FFFFFFC9     R   12672 12676  12681  12686
 CPSFL4        1 00000387 FFFFFFC9     R   12692 12696  12701  12706
 CPSFL5        1 00000388 FFFFFFC9     R   12712 12716  12721  12726
 CPSFOPR      16 000003BE FFFFFFC9        12987 25270  25270  25271  25271
 CPSFSPR      32 000003BE FFFFFFC9        12982 25269  25269  25271  25271
 CPSGRP        2 000003B7 FFFFFFC9     C   12881 19905  20691  20696
 CPSKAFL       1 000003BF FFFFFFC9     R   13013 13017  13022  13027  13032  13037
 CPSKIFL       1 000003BE FFFFFFC9     R   12968 12972  12977  12982  12987  12992  12997  13002  13007
 CPSOF         1 000001F8 FFFFFFC9     X   12500 12502  12502
 CPSOFLAG      1 00000416 FFFFFFC9     R   13227 13231  13236  13241  13246  13251
 CPSOPST       4 000003C4 FFFFFFC9     F   13047 13276  13276
 CPSPORT       8 00000354 FFFFFFC9     C   12611 12731  12731
 CPSQFLG       1 000003EC FFFFFFC9     R   13076 13080
 CPSSFLG       1 000003BB FFFFFFC9     R   12886 12890  12895  12900  12905  12910  12915
 CPSSFNAR     64 000003BB FFFFFFC9        12895 19593M 19649M 19678M 19707M 19731  20317  25231  25231  25232M
 CPSSFPS      32 000003BB FFFFFFC9        12900 19619M 20291  25231  25231
 CPSSTART      4 00000344 FFFFFFC9     F   12603 12607  12607  13043  13043  13148  13148  13280  13280
 CPSSTAT       1 0000038F FFFFFFC9     R   12823 12827  12832  12837  12842  12847  12852  12857
 CPSTACF       1 000003BC FFFFFFC9     R   12921 12925  12930  12935  12940  12945  12950  12955  12960
 CPSTART       4 00000000 FFFFFFC9     C   12239 15933  15937
 CPSTFLAG      1 000003EA FFFFFFC9     R   13054 13058  13063  13068
 CPSTYPE       1 0000038C FFFFFFC9     R   12736 12745  12755  12765  12775  12785  12795  12805  12815
 CPSUFLG       1 000003EE FFFFFFC9     R   13091 13095  13100  13105  13110  13115  13120  13125  13130
 CPSUFLG2      1 000003EF FFFFFFC9     R   13136 13140  13145
 CPSUSER       3 000003B4 FFFFFFC9     C   12880 19906  20731  20736
1INIT     (INIT4072) (12:46) (15MAR04) Ordinary Symbol and Literal Cross Reference                                          Page   70
 CPSVPGM       8 0000039C FFFFFFC9     C   12869 12875  12875
 CPS1ST        4 0000038C FFFFFFC9     F   12733 13278  13278
 CPTEMPP#      1 0000005F FFFFFFC9 A   U   14186 14188
 CPTEXT       32 00000484 FFFFFFC9     X   13669 19756M 19756  19775
 CPTRMFL1      1 00000C7A FFFFFFC9     R   14844 14848  14853  14858  14982  14982
 CPTRMFL2      1 00000C7B FFFFFFC9     R   14864 14868  14873  14878  14883  14888  14893
 CPTRMFL3      1 00000C7C FFFFFFC9     R   14899 14903  14908  14913  14918  14923  14928  14933
 CPTRMFL4      1 00000C7D FFFFFFC9     R   14939 14943  14948  14953  14958  14963  14968  14973
 CPUSED        1 00000FBC FFFFFFC9 A   U   15933 15934
 CPVACURS      8 00000AF0 FFFFFFC9     D   14711 14712  14713
 CPVCURS       8 00000AE0 FFFFFFC9     D   14705 14706  14707
 CPVFLAG       1 00000AC8 FFFFFFC9     R   14506 14510  14515  14520  14525  14530
 CPVFLAG2      1 00000AC9 FFFFFFC9     R   14536 14540  14545  14550  14555  14560  14565
 CPVFLAG3      1 00000ACA FFFFFFC9     R   14571 14575  14580  14585  14590  14595  14600
 CPVFLAG4      1 00000ACB FFFFFFC9     R   14606 14610  14615  14620
 CPVLFLAG      1 00000ACE FFFFFFC9     R   14675 14679  14684  14689
 CPVMODE       1 00000ACC FFFFFFC9     R   14628 14632  14637  14642  14647  14652  14657  14662  14667
 CPVTWID       2 00000AD0 FFFFFFC9     H   14695 14698  14698
 CPWK1         4 00000D60 FFFFFFC9     F   15379 15394  15417
 CPWK2         4 00000D64 FFFFFFC9     F   15380 15395  15409
 CPWK3         4 00000D68 FFFFFFC9     F   15381 15396  15410
 CPWK4         4 00000D6C FFFFFFC9     F   15382 15397  15411
 CPWK5         4 00000D70 FFFFFFC9     F   15383 15399  15404  15412
 CPWK6         4 00000D74 FFFFFFC9     F   15384 15400  15405  15413  15420  15422
 CPWK7         4 00000D78 FFFFFFC9     F   15385 15398  15414
 CPXFLAG       1 000007FD FFFFFFC9     R   13973 13977
 CPXSTATE      4 000007F8 FFFFFFC9     F   13967 13980  13980
 CRBRANCH      1 00000000 00000000 A   T    7222  7222
 CSETCHKU     12 00000000 FFFFFFC4     X   20102 20244
 CSETWA       12 00000000 FFFFFFC4     J   20109 20136  20165U 20396  20398  20399
 CSRTABLE      1 00000000 00000000 A   T    7242  7242
 CSVARMGR      1 00000000 00000000 A   T    7290  7290
 CSVEXIT       1 00000000 00000000 A   T    7163  7163
 CSVLLCB       1 00000000 00000000 A   T    6763  6763
 CSVLLTRM      1 00000000 00000000 A   T    6764  6764
 CSVMEM        1 00000000 00000000 A   T    6991  6991
 CSVVFGET      1 00000000 00000000 A   T    7555  7555
 CSVVFIND      1 00000000 00000000 A   T    7553  7553
 CV         4016 00000000 FFFFFFCB     J   12149  1173U
 CV            1 00000000 00000002     T   18855 18855  25036
 CVABSRTN      4 0000088C FFFFFFCB     V   11963 11938
 CVASCBP       4 00000718 FFFFFFCB     A   11848 16335M
 CVBLANKS    235 000004D8 FFFFFFCB     C   11743 16407  18820  19932  24408  24473  24486  24658  25657  25725
 CVBRMSK       1 00000751 FFFFFFCB     X   11879 11880  11881
 CVCFLAG       1 00000A00 FFFFFFCB     R   12044 12048  12053  12058  12063  12068
 CVCHKBUF      4 000009C0 FFFFFFCB     A   12020 17581M 18013  21934  22154  22289  22433
 CVCHKECB      4 000009C4 FFFFFFCB     F   12021 17541  17729M 17729  17732M 21965M 21965  21995  22008  22053M 22053
                                                 22149M 22149  22167  22181
 CVCHKLEN      2 000009E0 FFFFFFCB     H   12025 21878  21913  21975  21982  22265  22284M 22314  22341
 CVCHKPFX   1080 000009F0 FFFFFFCB     X   12124 18892  21935  21936  22434  22435  22856
 CVCHKPUC      2 000009E4 FFFFFFCB     H   12028 17731M
 CVCHKSFX      8 00000E28 FFFFFFCB     X   12130 21954  21955  22857
 CVCHKST       8 000009F0 FFFFFFCB     D   12034 12124  12124
 CVCHKST2      8 00000E28 FFFFFFCB     D   12127 12130  12130
 CVCHKTAB      4 000009C8 FFFFFFCB     A   12022 17967M 18981  19244  20238  20555  20790
 CVCHKTLN      2 000009E2 FFFFFFCB     H   12026 17961  18988  21874  21946
 CVCHKUC       2 000009F4 FFFFFFCB     H   12037 17731  18734  18735M 18999  19000M 20365  20366M 20593  20594M 20796
                                                 20797M
 CVCHRIS       4 0000025C FFFFFFCB     A   11290 16517M
1INIT     (INIT4072) (12:46) (15MAR04) Ordinary Symbol and Literal Cross Reference                                          Page   71
 CVCOMRTN      4 0000087C FFFFFFCB     V   11959 11929
 CVCPUMUL      4 00000DFC FFFFFFCB     F   12120 18694M 18694  18719M
 CVCURJCB      4 000001C8 FFFFFFCB     A   11228 19029M 19159M 19159  19227  20169  20486  20773  25114M 25115  25235
                                                 25808
 CVDATA       32 00000340 FFFFFFCB     X   11363 25355
 CVDBGFLG      1 000004CC FFFFFFCB     R   11733 11737
 CVDSTK        4 00000270 FFFFFFCB     A   11300 16264M 16266
 CVENT         4 0000074C FFFFFFCB     I   11877 18948B 19206B 19860B 20139B 20434B 20641B 20926B 21449B 21683B 22122B
                                                 22485B 22561B 22637B 22713B 22789B 22987B 25095B 25202B 25312B 25538B
 CVENTBR       2 00000750 FFFFFFCB     I   11878 11879
 CVENTOFF    240 00000751 FFFFFFCB        11881 24188M
 CVENTON     240 00000751 FFFFFFCB        11880 24179M
 CVERROR       4 000007D6 FFFFFFCB     I   11927 11943B
 CVEXEC       32 00000300 FFFFFFCB     X   11357 25337
 CVEXIRTN      4 0000077C FFFFFFCB     V   11907 11903
 CVFCFMT     128 000004C7 FFFFFFCB        11539 17159  17599  17690M 24334M
 CVFCHRKBPR
               8 000004C9 FFFFFFCB        11648 11664  11664
 CVFCHRKBSE
               4 000004C9 FFFFFFCB        11653 11664  11664
 CVFCHRKCPR
               2 000004C9 FFFFFFCB        11670 11686  11686
 CVFCHRKCSE
               1 000004C9 FFFFFFCB        11675 11686  11686
 CVFCHRUBPR
             128 000004C9 FFFFFFCB        11604 11620  11620
 CVFCHRUBSE
              64 000004C9 FFFFFFCB        11609 11620  11620
 CVFCHRUCPR
              32 000004C9 FFFFFFCB        11626 11642  11642
 CVFCHRUCSE
              16 000004C9 FFFFFFCB        11631 11642  11642
 CVFCMDS       4 000004C6 FFFFFFCB        11519 18838M
 CVFDUMP     128 00000A00 FFFFFFCB        12048 24514M 24524M
 CVFFMT        4 000004C5 FFFFFFCB        11474 16442M 16958  16958  16959  18177  18499  24310M
 CVFINIT       8 000004C5 FFFFFFCB        11469 16429M
 CVFJCB        4 000001C0 FFFFFFCB     A   11226 18089M 18105  19009  25114
 CVFL          1 000004C4 FFFFFFCB     R   11400 11404  11409  11414  11419  11424  11429  11434  11439
 CVFLOW       32 00000320 FFFFFFCB     X   11360 25346
 CVFL2         1 000004C5 FFFFFFCB     R   11445 11449  11454  11459  11464  11469  11474  11479  11484
 CVFL3         1 000004C6 FFFFFFCB     R   11490 11494  11499  11504  11509  11514  11519  11524  11529
 CVFL4         1 000004C7 FFFFFFCB     R   11535 11539  11544  11549  11554  11559  11564  11569
 CVFL5         1 000004C8 FFFFFFCB     R   11575 11579  11584  11589  11594
 CVFL6         1 000004C9 FFFFFFCB     R   11600 11604  11609  11621  11626  11631  11643  11648  11653  11665  11670
                                                 11675  11687
 CVFMAN       32 000004C7 FFFFFFCB        11549 19886  19999M 24396M
 CVFMEMPAGE
              64 000004C8 FFFFFFCB        11584 18619M
 CVFNCHK      64 000004C7 FFFFFFCB        11544 17116  17131M 17739M 17763  17977  22909M 24387M
 CVFNOR      128 000004C6 FFFFFFCB        11494 24496M 24505M
 CVFNORACF
              64 000004C6 FFFFFFCB        11499 24534M 24543M
 CVFNORET      4 000004C7 FFFFFFCB        11564 24369M 24378M
 CVFNOSMF     32 00000A00 FFFFFFCB        12058 24119M 24128M
 CVFNOTIM      8 000004C6 FFFFFFCB        11514 23547M 24060M 24069M
 CVFNSPIE      2 000004C7 FFFFFFCB        11569 24609M 24618M
 CVFNSTAE      8 000004C7 FFFFFFCB        11559 24590M 24599M
 CVFOLDIBM
              16 000004C8 FFFFFFCB        11594 23980M 23989M
1INIT     (INIT4072) (12:46) (15MAR04) Ordinary Symbol and Literal Cross Reference                                          Page   72
 CVFPFCB       4 000001D0 FFFFFFCB     A   11231 18205  18546
 CVFPGROT     64 000004C4 FFFFFFCB        11409 24203M
 CVFPUSR      32 000004C6 FFFFFFCB        11504 25113M
 CVFRBUG      32 000004C5 FFFFFFCB        11459 24359M
 CVFRCVY      16 000004C5 FFFFFFCB        11464 16435M 16958  16958  18626M 18975  24215M 24296M 24325M
 CVFRLG       16 000004C4 FFFFFFCB        11419 16610M 16638M
 CVFSERVWYL
               1 000004C4 FFFFFFCB        11439 24099M 24109M
 CVFSYSA     128 00000067 FFFFFFCB        11002 16675M
 CVFSYSB      64 00000067 FFFFFFCB        11007 16712M
 CVFSYSC      32 00000067 FFFFFFCB        11012 16749M
 CVFSYSD      16 00000067 FFFFFFCB        11017 16786M
 CVFSYSE       8 00000067 FFFFFFCB        11022 16823M
 CVFSYSF       4 00000067 FFFFFFCB        11027 16860M
 CVFSYSG       2 00000067 FFFFFFCB        11032 16897M
 CVFSYST      16 000004C7 FFFFFFCB        11554 23674M 23893M 23922M
 CVFTEST       2 000004C5 FFFFFFCB        11479 18792  23467M 23496  23536  23629  23942M 23958M
 CVFTMIL     128 000004C4 FFFFFFCB        11404 23935M
 CVFVISTA    128 000004C8 FFFFFFCB        11579 24350M
 CVFWINGS     32 000004C8 FFFFFFCB        11589 16577M 23973M 23996M
 CVFXA        16 000004C6 FFFFFFCB        11509 16325M 24556
 CVFXA31       2 000004C6 FFFFFFCB        11524 16329M 24570M 24580M
 CVHEAP        4 00000280 FFFFFFCB     A   11308 16289M
 CVHEAP#       1 00000200 FFFFFFCB A   U   11306 11307
 CVHEAPE       4 00000284 FFFFFFCB     A   11309 16291M
 CVHEAPL       4 0000027C FFFFFFCB     A   11307 16284  16290
 CVINVRTN      4 00000888 FFFFFFCB     V   11962 11932
 CVITCBP       4 00000714 FFFFFFCB     A   11847 16378M
 CVJESFLG      1 000004CA FFFFFFCB     R   11693 11697
 CVKEY         1 00000066 FFFFFFCB     X   10994 16352M
 CVLJCB        4 000001C4 FFFFFFCB     A   11227 18093M 19127
 CVLNKRGS      4 00000780 FFFFFFCB     F   11909 11884M 11910  16968M 20228M 20475M 20545M 21293M
 CVLNKRTN      4 000007B0 FFFFFFCB     U   11910 11899M
 CVLOCK1       1 00000088 FFFFFFCB     R   11051 11055  11060
 CVLOCK2       1 00000089 FFFFFFCB     R   11065 11069
 CVLOCK3       1 0000008A FFFFFFCB     R   11074 11078
 CVLOCK4       1 0000008B FFFFFFCB     R   11083 11087
 CVLOGMOD      1 00000068 FFFFFFCB     R   11038 11042
 CVLPFCB       4 000001D4 FFFFFFCB     A   11232 18517  18579
 CVMACH        1 00000067 FFFFFFCB     R   10998 11002  11007  11012  11017  11022  11027  11032  16651M 16914M
 CVMACHID      8 0000000C FFFFFFCB     C   10978 16407M 16408M 16598  16604M 16626  16663  16700  16737  16774  16811
                                                 16848  16885  18712  24072M 24075M 24078M 24081M 24084M 24087M 24090M
 CVMAXSES      2 00000132 FFFFFFCB     H   11171 16207M 16207  17147M 17147  17821M 17821  17828M 17876  17957  18031
                                                 20219  20536  21724M 21724  21736  21871  22373M 22373  22384  22432
                                                 23880
 CVMBUFF       4 00000138 FFFFFFCB     A   11174 24170M
 CVMILRTN      4 00000884 FFFFFFCB     V   11961 11941
 CVNAME        8 00000018 FFFFFFCB     C   10981 16388M 16389
 CVNET#        1 000001F4 FFFFFFCB A   N   11103 18862
 CVNETP        4 000000A8 FFFFFFCB     A   11104 16488M
 CVNEXT        4 000007DE FFFFFFCB     I   11929 25279B 25837B
 CVNIPG        2 0000013C FFFFFFCB     H   11176 16443M 18633M 18633  24206M
 CVNOARTN      4 00000890 FFFFFFCB     V   11964 11935
 CVNOTIFY      5 00000061 FFFFFFCB     X   10992 18777M 18777  18801M 24039M 24040M 24050M 24050
 CVNUSERS      2 000000D4 FFFFFFCB     H   11146 19104  19105M 25140  25141M
 CVNWDATE      4 00000608 FFFFFFCB     F   11766 11770  11770
 CVNWMPG#      1 00000008 FFFFFFCB A   U   11768 11769
 CVOLDJCB      4 000001CC FFFFFFCB     A   11229 19154M 19154
 CVORVSSN      8 00000030 FFFFFFCB     C   10984 23883M
1INIT     (INIT4072) (12:46) (15MAR04) Ordinary Symbol and Literal Cross Reference                                          Page   73
 CVOSRA        4 0000008C FFFFFFCB     A   11091 16199M 22464
 CVPARMP       4 00000098 FFFFFFCB     A   11093 16200M 23388
 CVPATH#       1 000001F4 FFFFFFCB A   N   11099 18860
 CVPATHP       4 000000A4 FFFFFFCB     A   11100 16468M
 CVPFXRTN      1 00000000 00000000 A   T   11907 11907
 CVPGFAUTO
              32 00000A01 FFFFFFCB        12088 18657  18657  18658  18658  18660  18671M
 CVPGFLAG      1 00000A01 FFFFFFCB     R   12074 12078  12083  12088
 CVPGFREAL
             128 00000A01 FFFFFFCB        12078 18657  18657  18659  18659
 CVPGFVIRT
              64 00000A01 FFFFFFCB        12083 18658  18658  18659  18659
 CVPIOSZ       1 00004F80 FFFFFFCB A   U   11137 11139  18918  21537  21546
 CVPPDBQH      4 0000009C FFFFFFCB     A   11095 11096
 CVPSFNO       1 000003E9 FFFFFFCB A   N   11259 11261
 CVPSLNO       1 000007CF FFFFFFCB A   N   11260 11261
 CVPXSZ        1 00000008 FFFFFFCB A   U   11138 11139
 CVR          12 0000000C 00000001 A   #    1106  1173U 16194M 19569  19569M 22902M
 CVRG16       32 00000360 FFFFFFCB     X   11367 25364
 CVRG64       32 00000380 FFFFFFCB     X   11371 25373
 CVRKEY        1 00000008 FFFFFFCB A   U   11832 11833
 CVRLGSSN      8 00000038 FFFFFFCB     C   10985 23884M
 CVRSET        1 00000002 FFFFFFCB A   U   11826 19087  25158
 CVSCLCK       8 00000090 FFFFFFCB     X   11092 16212M
 CVSEGRTN      4 00000880 FFFFFFCB     V   11960 11924
 CVSTACK       4 00000274 FFFFFFCB     A   11301 16280M
 CVSTACK#      1 00000080 FFFFFFCB A   U   11298 11299
 CVSTACKE      4 00000278 FFFFFFCB     A   11302 16282M
 CVSTACKL      4 0000026C FFFFFFCB     A   11299 16259  16274  16281
 CVSTART       4 00000000 FFFFFFCB     C   10971 12142
 CVT           1 00000000 FFFFFFDA     J    6733 16301U 17378  17554  18469  20994U 23567U
 CVTBRET       2 00000052 FFFFFFDA     H    6788  7301   7380
 CVTCBP        4 0000073C FFFFFFCB     A   11862 16337M 16985
 CVTDCB        1 00000074 FFFFFFDA     X    6803 16313
 CVTPCNVT      4 0000001C FFFFFFDA     V    6755 17554
 CVTPTR        1 00000010 FFFFFFDC A   U    6729 16293  17377  17553  20984  23557
 CVTRC         4 00000768 FFFFFFCB     I   11899 11885B 16969B 20229B 20476B 20546B 21294B
 CVTRCENT      2 00000134 FFFFFFCB     H   11173 16920  24131M
 CVTRCRTN      4 00000778 FFFFFFCB     V   11906 11900
 CVTSMCA       4 000000C4 FFFFFFDA     A    6907 16394
 CVTTCBP       4 00000000 FFFFFFDA     V    6740 16334
 CVTUSER       4 000000CC FFFFFFDA     A    6913 23574
 CVTVSTGX      1 00000000 FFFFFFD9     J    7753  7617
 CVTXTNT1      1 00000000 FFFFFFD8     J    7792  6960
 CVTXTNT2      1 00000000 FFFFFFD7     J    7800  7030
 CVT0SCR1      4 000000E8 FFFFFFDA     V    6925 17378  18469  21000
 CVT4MS1       1 00000010 FFFFFFDA A   U    6813  6821
 CVT6DAT       1 00000002 FFFFFFDA A   U    6817  6821
 CVUSFNO       1 00000001 FFFFFFCB A   N   11266 11268
 CVUSLNO       1 000003E7 FFFFFFCB A   N   11267 11268
 CVVOL#        1 00000005 FFFFFFCB A   U   12117 12118
 CVWORD        8 00000050 FFFFFFCB     X   10988 23645M 23645  23651M 23887M 23917M 23917
 CVWTOFLG      1 000004CB FFFFFFCB     R   11703 11707  11712  11717  11722  11727
 CVWTOFNOPFX
              64 000004CB FFFFFFCB        11712 19500  19500  19501M 19533  19533  19534M
 CVWTOFWTL
             128 000004CB FFFFFFCB        11707 19500  19500  19533  19533
 CVWTOSGP      4 00000748 FFFFFFCB     V   11866 17177  17781  17860  17884  17900  17919  17942  18076  18195  19285
                                                 19300  19318  19333  19360  19375  19402  19417  19449  19484  19520
1INIT     (INIT4072) (12:46) (15MAR04) Ordinary Symbol and Literal Cross Reference                                          Page   74
                                                 20662  20677  20702  20717  20742  20765  21344  21359  21378  21401
                                                 21764  21783  21798  21817  21840  22026  22066  22415  22518  22594
                                                 22670  22746  22822  24234  24251  24268  24285  24754  24769  24792
                                                 24816
 CVWYLACC      5 00000058 FFFFFFCB     C   10990 16389M 18801  25234  25251
 CVWYLSSN      8 00000028 FFFFFFCB     C   10983 16390M 23455  23860M
 DBUGINIT      1 00000000 00000009     T   18870 18870
 DCB           1 00000000 FFFFFFDC     U    6448 18230  18269  18283  21130  21486  23040  23056U 24919U
 DCBBIT0       1 00000080 FFFFFFDC A   U    5896  5984   5992   6006   6028   6070   6072   6073   6075   6095   6098
                                                  6120   6124   6139   6176   6232   6258   6296   6300   6319   6425
 DCBBIT1       1 00000040 FFFFFFDC A   U    5897  5985   5993   6008   6037   6038   6047   6053   6070   6072   6074
                                                  6075   6100   6120   6122   6124   6142   6143   6144   6179   6180
                                                  6232   6260   6302   6304   6322   6367   6426
 DCBBIT2       1 00000020 FFFFFFDC A   U    5898  5986   5994   6009   6010   6011   6037   6038   6042   6048   6053
                                                  6070   6071   6076   6102   6125   6126   6147   6148   6149   6183
                                                  6184   6233   6265   6305   6327   6370   6373   6427
 DCBBIT3       1 00000010 FFFFFFDC A   U    5899  5987   6009   6011   6012   6037   6050   6077   6105   6125   6128
                                                  6151   6152   6153   6187   6188   6233   6267   6269   6271   6307
                                                  6328   6370   6374
 DCBBIT4       1 00000008 FFFFFFDC A   U    5900  5995   6051   6052   6053   6078   6106   6130   6135   6136   6156
                                                  6157   6191   6192   6194   6195   6234   6274   6309   6329   6370
                                                  6375
 DCBBIT5       1 00000004 FFFFFFDC A   U    5901  5996   6058   6081   6082   6108   6130   6132   6133   6136   6160
                                                  6162   6163   6164   6198   6199   6200   6201   6234   6276   6279
                                                  6312   6331   6365
 DCBBIT6       1 00000002 FFFFFFDC A   U    5902  5988   6060   6061   6064   6081   6083   6109   6167   6168   6169
                                                  6170   6204   6205   6206   6207   6235   6282   6314   6333   6376
 DCBBIT7       1 00000001 FFFFFFDC A   U    5903  5989   6060   6062   6064   6085   6114   6172   6173   6210   6211
                                                  6213   6214   6285   6315   6316   6334   6378   6428
 DCBBLKSI      2 0000003E FFFFFFDC     H    6336 24974M 24974  24980M 24991M 24991  24998M
 DCBBUFNO      1 00000014 FFFFFFDC     G    5974 24952  24959M
 DCBDCBE       4 00000000 FFFFFFDC     A    5911  5915
 DCBDDNAM      8 00000028 FFFFFFDC     C    6092 17210  18230
 DCBDEBAD      4 0000002C FFFFFFDC     A    6230 17449  17547  18283  21130  21486
 DCBFDAD       8 00000005 FFFFFFDC     C    5927  5929
 DCBLRECL      2 00000052 FFFFFFDC     H    6400 23119  23121  23183  24980
 DCBOFIOF      1 00000001 FFFFFFDC A   U    6114  6116
 DCBOFLGS      1 00000030 FFFFFFDC     B    6094 17422  18269  23040  24941M
 DCBOFOPN      1 00000010 FFFFFFDC A   U    6105 17420  23038
 DCBOFPPC      1 00000008 FFFFFFDC A   U    6106 24939
 DCBOFUEX      1 00000002 FFFFFFDC A   U    6109  6113
 DCBRECFM      1 00000024 FFFFFFDC     B    6069 23109  23144
 DCBRECU       1 000000C0 FFFFFFDC A   U    6075 23107  23142
 DEBACSMD      1 00000000 FFFFFFE0     J    5415  5453   5470   5483   5507   5526   5540   5550   5590
 DEBBASIC      1 00000024 FFFFFFE2     U    5067 17459U 18293U 21131
 DEBBASND      1 00000044 FFFFFFE2     U    5221  5346  17482  18305  21131
 DEBDASD       1 00000000 FFFFFFE1     J    5383  5881  17492U 18324U 21141U
 DEBDEVED      4 00000048 FFFFFFE2     A    5268  5300
 DEBDSZDA      2 00000010 FFFFFFDD A   U    5881 18374
 DEBDVMOD      1 00000000 FFFFFFE1     B    5386 21162
 DEBEOEA       4 00000000 FFFFFFE2     A    4974  4977
 DEBMCOMP      1 00000008 FFFFFFE2 A   U    5253  5254
 DEBMTRF0      1 00000080 FFFFFFE2 A   U    5249  5259   5262   5263
 DEBMTRF1      1 00000040 FFFFFFE2 A   U    5250  5259   5260   5262   5264
 DEBM3424      1 00000002 FFFFFFE2 A   U    5255  5259   5260
 DEBM9348      1 00000002 FFFFFFE2 A   U    5256  5262   5263   5264
 DEBNMEXT      1 00000034 FFFFFFE2     B    5190 17476  18303
 DEBNMTRK      2 0000000E FFFFFFE1     C    5404  5881   5881  17508  18373
 DEBSTRHH      2 00000008 FFFFFFE1     C    5393 18364
1INIT     (INIT4072) (12:46) (15MAR04) Ordinary Symbol and Literal Cross Reference                                          Page   75
 DEBUGSG       1 00000000 00000000 A   T   11860 11860
 DEBXEND       1 00000054 FFFFFFDE     U    5820  5821
 DEBXTN        1 00000000 FFFFFFDE     J    5630  5821
 DEB2XEND      1 000000B8 FFFFFFDD     U    5876  5877
 DEB2XTN       1 00000000 FFFFFFDD     J    5828  5877
 DEQUOTE       1 00000000 00000027     T   25052 25052
 DEV          12 00000000 FFFFFFC8     J   14491 14499
 DEVMAX#       1 00000002 FFFFFFC9 A   U   14442 14499
 DEVTYPE       1 00000001 FFFFFFC8     R   14459 14468  14478
 DFAIDTAB      1 00000000 00000000 A   T    7630  7630
 DISKINIT      1 00000000 00000017     T   18903 18903
 DISPINIT      1 00000000 00000018     T   18904 18904
 DOTTBL        1 00000000 00000000 A   T   11976 11976
 DRENCFLG      1 00000F9F FFFFFFC9     R   15897 15901  15906  15911  15916  15921
 DRENPROT      1 00000F9E FFFFFFC9     R   15884 15892
 DSNON        40 00000E90 FFFFFFC9     C   15617 15618
 DSNWADSN     44 00000E5C FFFFFFC9     C   15604 15605  15606  15607  15616  15624  15855  15861  15863  15869  15872
                                                 15874  15877  15926
 DSNWAF4       1 00000F37 FFFFFFC9     R   15672 15676  15681  15686  15691  15696  15701  15706  15711
 DSNWAF5       1 00000F38 FFFFFFC9     R   15717 15721  15726  15731  15736  15741  15746  15751  15756
 DSNWAF6       1 00000F39 FFFFFFC9     R   15762 15766  15771  15776  15781  15786  15791  15796  15801
 DSNWAF7       1 00000F3A FFFFFFC9     R   15807 15811  15816  15821  15826
 DSNXG         1 00000004 FFFFFFC9 A   U   15609 15611
 DSNXGL        1 00000003 FFFFFFC9 A   U   15610 15611
 DSNXU         1 00000007 FFFFFFC9 A   U   15611 15613
 DSNXUL        1 00000004 FFFFFFC9 A   U   15612 15613
 DSSIZ         1 00000108 FFFFFFC9 A   U   15855 15863  15872  15877
 DUMP          2 00002AD8 00000001     H   24510 23835
 DVACLASS      1 00000002 FFFFFFC7     X   16000 17252  18251
 DVAOPTS       2 00000000 FFFFFFC7     X   15999 17280  18436
 DVAOVHD       2 0000000E FFFFFFC7     H   16013 16077
 DVAOVNK       1 00000010 FFFFFFC7     G   16019 16075
 DVAREA        1 00000000 FFFFFFC7     U   15986 16003  16090  16109
 DVARPS        4 00000014 FFFFFFC7     C   16053 16057
 DVASECTD      1 00000017 FFFFFFC7     X   16056 16081
 DVATAB       12 00000008 FFFFFFC7     C   16008 16042
 DVATOL        2 00000012 FFFFFFC7     H   16032 16079
 DVAUNIT       1 00000003 FFFFFFC7     X   16001 17306  17375  18460  20978
 DVTAREA      24 00000000 FFFFFFC7     J   16126 17051  17204U 17211  18218  18226U 18231  18254  18506  18921  20957U
 EBCTBL        1 00000000 00000000 A   T   11972 11972
 EBCTBL7       1 00000000 00000000 A   T   11975 11975
 ECBLIST       1 00000000 00000000 A   T   11835 11835
 EDTCOMMV      1 00000000 00000032     T   25875 25875
 EPARTBL       1 00000000 00000000 A   T   11967 11967
 FAILINIT      1 00000000 00000008     T   18869 18869
 FMBRANCH      1 00000000 00000000 A   T    7406  7406
 FMTCCWP       4 00001320 00000001     A   21570 20975M
 FMTCCWS       8 00001348 00000001     W   21580 21570
 FMTCCWSC      8 00001340 00000001     W   21579 21536
 FMTDCBP       4 00001324 00000001     A   21571 21020M
 FMTECB        4 0000133C 00000001     F   21577 21270  21284  21307M 21569
 FMTIOB        1 00001310 00000001     X   21569 21263
 FMTPFCB       4 0000105A 00000001     I   20921 18898
 FMTSECT       1 00001338 00000001     X   21575 20977  21579
 FMTSEEK       8 00001330 00000001     X   21573 21049M 21103  21580
 FORMAT        4 000029CE 00000001     I   24220 23803  23805
 FREECP        1 00000000 00000022     T   20894 20894  25048
 FSR           0 00000000 00000001 A   #    1003 19201  19834M 20133  20396M 20429  20623M 21678  22093M 22117  22456M
                                                 22480  22537M 22556  22613M 22632  22689M 22708  22765M 22784  22841M
1INIT     (INIT4072) (12:46) (15MAR04) Ordinary Symbol and Literal Cross Reference                                          Page   76
                                                 25307  25408M
 GETCORE       1 00000000 00000005     T   18861 18861
 GETCP         1 00000000 0000001F     T   20888 20888  25037
 GETRSC        1 00000000 0000001D     T   20882 20882  25860
 GLBRANCH      1 00000000 00000000 A   T    7312  7312
 GMBRANCH      1 00000000 00000000 A   T    7408  7408
 GVT           1 00000000 00000000 A   T    7174  7174
 HH            2 000012ED 00000001     X   21560 21048  21124  21179
 HIBAL         1 00000000 FFFFFFFF     J     691   707    720    733    746    759    772    785    798    811    824
                                                   837    850    863    876    889    902
 HSPFMIL       1 00000080 FFFFFFDB A   U    6464  6468   6469
 HSPFORV       1 00000020 FFFFFFDB A   U    6466  6468
 HSPFORVR      1 00000010 FFFFFFDB A   U    6467  6469
 HSPFSYST      1 00000001 FFFFFFDB A   U    6471 23660
 HSPFWYL       1 00000040 FFFFFFDB A   U    6465  6468   6469
 IARMPVT       1 00000000 00000000 A   T    7049  7049
 IARMRRCE      1 00000000 00000000 A   T    7594  7594
 IARPIBR       1 00000000 00000000 A   T    7564  7564
 IARPSIV       1 00000000 00000000 A   T    7388  7388
 IARPSXM       1 00000000 00000000 A   T    7537  7537
 IARXKEY       1 00000000 00000000 A   T    7495  7495
 IARXVIO       1 00000000 00000000 A   T    7389  7389
 ICHK          1 00002FCC 00000001     X   25847 25581  25587M
 ICHKCNTF      8 000023C8 00000001     C   21651 21970
 ICHKDVTA      1 00000000 FFFFFFC5     X   17051 17194
 ICHKERR1      2 00001FEC 00000001     H   22471 18878
 ICHKERR2      2 00002026 00000001     H   22547 18879
 ICHKERR3      2 00002060 00000001     H   22623 18880
 ICHKERR4      2 0000209A 00000001     H   22699 18883
 ICHKERR5      2 000020D4 00000001     H   22775 18885
 ICHKFLGS      1 00000018 FFFFFFC5     R   17054 17058  17063
 ICHKMAXB      2 000022D4 00000001     R   21638 17362  17576  21709  22157  22261  22284
 ICHKOPEN    128 00000018 FFFFFFC5        17058 17444M 17795
 ICHKPTWA     25 00000000 FFFFFFC5     J   17072 17078  17087U 17104M 17104
 ICHKTERM      2 00001FE6 00000001     H   22463 18877
 ICHK2ND      64 00000018 FFFFFFC5        17063 17665  17684M
 ICMD        120 00002FCD 00000001     C   25849 18820  18909  24408  24486  25053  25055  25626  25631
 ICMDMEMB      8 00003045 00000001     C   25850 24473  25056  25657  25690  25695
 ICMDPARM    120 0000304D 00000001     C   25851 24658  25058  25060  25725  25758  25763
 ICYMMVTC      1 00000000 00000000 A   T    7820  7820
 IDA121CV      1 00000000 00000000 A   T    7327  7327
 IEABEND       1 00000000 00000000 A   T    6911  6911
 IEADQIQE      1 00000000 00000000 A   T    7307  7307
 IEAECVT       1 00000000 00000000 A   T    6836  6836
 IEAGSMQ       1 00000000 00000000 A   T    7284  7284
 IEAIHASU      1 00000000 00000000 A   T    7524  7524
 IEALSMQ       1 00000000 00000000 A   T    7286  7286
 IEAMASCB      1 00000000 00000000 A   T    7254  7254   7258
 IEAPATCH      1 00000000 00000000 A   T    6919  6919
 IEAPDSRT      1 00000000 00000000 A   T    7182  7182
 IEAPTRV       1 00000000 00000000 A   T    6998  6998
 IEAQCDSR      1 00000000 00000000 A   T    6902  6902
 IEAQCS01      1 00000000 00000000 A   T    7294  7294
 IEAQLPAQ      1 00000000 00000000 A   T    6903  6903
 IEAQTD00      1 00000000 00000000 A   T    6799  6799
 IEAQTE00      1 00000000 00000000 A   T    6797  6797
 IEARPOST      1 00000000 00000000 A   T    7309  7309
 IEASMFEX      1 00000000 00000000 A   T    7186  7186
 IEASMFSP      1 00000000 00000000 A   T    7532  7532
1INIT     (INIT4072) (12:46) (15MAR04) Ordinary Symbol and Literal Cross Reference                                          Page   77
 IEASPOST      1 00000000 00000000 A   T    7329  7329
 IEASVDCB      1 00000000 00000000 A   T    6790  6790
 IEATCBP       1 00000000 00000000 A   T    6740  6740
 IEATPC        1 00000000 00000000 A   T    6792  6792
 IEATRSCN      1 00000000 00000000 A   T    7150  7150
 IEAVAR02      1 00000000 00000000 A   T    7234  7234
 IEAVBLDP      1 00000000 00000000 A   T    7218  7218
 IEAVDELP      1 00000000 00000000 A   T    7221  7221
 IEAVEAC0      1 00000000 00000000 A   T    7311  7311
 IEAVEADV      1 00000000 00000000 A   T    7469  7469
 IEAVEDR1      1 00000000 00000000 A   T    7354  7354
 IEAVELRM      1 00000000 00000000 A   T    7303  7303
 IEAVENLU      1 00000000 00000000 A   T    7650  7650
 IEAVENQ2      1 00000000 00000000 A   T    7300  7300
 IEAVEQV1      1 00000000 00000000 A   T    7457  7457
 IEAVEQV2      1 00000000 00000000 A   T    7460  7460
 IEAVEQV3      1 00000000 00000000 A   T    7463  7463
 IEAVERI1      1 00000000 00000000 A   T    7356  7356
 IEAVERP1      1 00000000 00000000 A   T    7358  7358
 IEAVERX1      1 00000000 00000000 A   T    7546  7546
 IEAVESC1      1 00000000 00000000 A   T    7485  7485
 IEAVESPR      1 00000000 00000000 A   T    7414  7414
 IEAVESTU      1 00000000 00000000 A   T    7648  7648
 IEAVESVT      1 00000000 00000000 A   T    7420  7420
 IEAVET6E      1 00000000 00000000 A   T    7520  7520
 IEAVEVT2      1 00000000 00000000 A   T    7474  7474
 IEAVEXPR      1 00000000 00000000 A   T    7282  7282
 IEAVEXP1      1 00000000 00000000 A   T    7451  7451
 IEAVFRCL      1 00000000 00000000 A   T    7220  7220
 IEAVGSDA      1 00000000 00000000 A   T    7465  7465
 IEAVGTCL      1 00000000 00000000 A   T    7219  7219
 IEAVGWSA      1 00000000 00000000 A   T    7314  7314
 IEAVLKRM      1 00000000 00000000 A   T    7021  7021
 IEAVMFRM      1 00000000 00000000 A   T    7399  7399
 IEAVMSGS      1 00000000 00000000 A   T    6968  6968
 IEAVNVT0      1 00000000 00000000 A   T    7633  7633
 IEAVRSUH      1 00000000 00000000 A   T    7512  7512
 IEAVRT03      1 00000000 00000000 A   T    7126  7126
 IEAVSPND      1 00000000 00000000 A   T    7522  7522
 IEAVSTAG      1 00000000 00000000 A   T    7262  7262
 IEAVTCTL      1 00000000 00000000 A   T    7514  7514
 IEAVTEST      1 00000000 00000000 A   T    7025  7025
 IEAVTRGR      1 00000000 00000000 A   T    7322  7322
 IEAVTRG1      1 00000000 00000000 A   T    6771  6771
 IEAVTRV3      1 00000000 00000000 A   T    7018  7018
 IEAVTSBP      1 00000000 00000000 A   T    7268  7268
 IEAVTSFR      1 00000000 00000000 A   T    6989  6989
 IEAVTSGL      1 00000000 00000000 A   T    7266  7266
 IEAVVMSR      1 00000000 00000000 A   T    7047  7047
 IEAVWAIT      1 00000000 00000000 A   T    7289  7289
 IEAVWSAC      1 00000000 00000000 A   T    7320  7320
 IEAVWSAG      1 00000000 00000000 A   T    7318  7318
 IEAVWSAL      1 00000000 00000000 A   T    7316  7316
 IEAVXEXT      1 00000000 00000000 A   T    7397  7397
 IEAVXSFT      1 00000000 00000000 A   T    7364  7364
 IEAVXSTN      1 00000000 00000000 A   T    7370  7370
 IEAVXSTS      1 00000000 00000000 A   T    7368  7368
 IEAVXUNN      1 00000000 00000000 A   T    7393  7393
 IEAVXUNS      1 00000000 00000000 A   T    7372  7372
1INIT     (INIT4072) (12:46) (15MAR04) Ordinary Symbol and Literal Cross Reference                                          Page   78
 IEAWTCB       1 00000000 00000000 A   T    7429  7429
 IEA0DS        1 00000000 00000000 A   T    6835  6835
 IEA0EF00      1 00000000 00000000 A   T    6741  6741
 IEA0EF01      1 00000000 00000000 A   T    6781  6781
 IEA0PT0E      1 00000000 00000000 A   T    7501  7501
 IEA0PT01      1 00000000 00000000 A   T    6842  6842
 IEA0PT02      1 00000000 00000000 A   T    7426  7426
 IEA0PT03      1 00000000 00000000 A   T    7503  7503
 IEA0VL00      1 00000000 00000000 A   T    6752  6752
 IEA0VL01      1 00000000 00000000 A   T    7159  7159
 IECIXAVL      1 00000000 00000000 A   T    6827  6827
 IECPCNVT      1 00000000 00000000 A   T    6755  6755
 IECPRLTV      1 00000000 00000000 A   T    6759  6759
 IECVEXCL      1 00000000 00000000 A   T    7391  7391
 IECXAPG       1 00000000 00000000 A   T    6750  6750
 IECXITP       1 00000000 00000000 A   T    6780  6780
 IECXTLER      1 00000000 00000000 A   T    6766  6766
 IEC0SCR1      1 00000000 00000000 A   T    6925  6925
 IEECUCB       1 00000000 00000000 A   T    6796  6796
 IEEMSER       1 00000000 00000000 A   T    6774  6774   6840
 IEEVEXSN      1 00000000 00000000 A   T    7129  7129
 IEEVSTOP      1 00000000 00000000 A   T    7439  7439
 IEFAQTOP      1 00000000 00000000 A   T    7246  7246
 IEFAUSDM      1 00000000 00000000 A   T    6746  6746
 IEFENFDM      1 00000000 00000000 A   T    6905  6905
 IEFJESCT      1 00000000 00000000 A   T    7005  7005
 IEFLINK       1 00000000 00000000 A   T    6743  6743
 IEFQMWR       1 00000000 00000000 A   T    6856  6856
 IEWFBOSV      1 00000000 00000000 A   T    6833  6833
 IEWMSEPT      1 00000000 00000000 A   T    7338  7338
 IEZJSCB       1 00000000 FFFFFFCE     J   10633 10634  10871  10903
 IFBDCB        1 00000000 00000000 A   T    6822  6822
 IFDOLT0A      1 00000000 00000000 A   T    7184  7184
 IFGDEBVR      1 00000000 00000000 A   T    7815  7815
 IGC043BR      1 00000000 00000000 A   T    7230  7230
 IGC044R2      1 00000000 00000000 A   T    7340  7340
 IGC062R1      1 00000000 00000000 A   T    7310  7310
 IGC07903      1 00000000 00000000 A   T    7455  7455
 IGC124        1 00000000 00000000 A   T    7471  7471
 IGFRVT        1 00000000 00000000 A   T    6920  6920
 IGVCPBDB      1 00000000 00000000 A   T    7586  7586
 IGVCPDLB      1 00000000 00000000 A   T    7588  7588
 IGVCPFRE      1 00000000 00000000 A   T    7578  7578
 IGVCPGTC      1 00000000 00000000 A   T    7576  7576
 IGVCPGUB      1 00000000 00000000 A   T    7570  7570
 IGVCPGUP      1 00000000 00000000 A   T    7573  7573
 IGVCPGUS      1 00000000 00000000 A   T    7596  7596
 IGVGCAS       1 00000000 00000000 A   T    7224  7224
 IGVGFAS       1 00000000 00000000 A   T    7228  7228
 IGVGRRGN      1 00000000 00000000 A   T    7600  7600
 IGVGVRGN      1 00000000 00000000 A   T    7602  7602
 IGVQSPET      1 00000000 00000000 A   T    7226  7226
 IGVSLIST      1 00000000 00000000 A   T    7580  7580
 IGVSLOC       1 00000000 00000000 A   T    7584  7584
 IGVSREGN      1 00000000 00000000 A   T    7582  7582
 IGVSTSKI      1 00000000 00000000 A   T    7567  7567
 IHADCB        1 00000000 FFFFFFDC     J    5886  5966   6016   6091   6218   6223   6238   6244   6253   6353   6356
                                                  6361   6386   6404   6405   6409   6445   6446   6448   6536  17210
                                                 17402U
1INIT     (INIT4072) (12:46) (15MAR04) Ordinary Symbol and Literal Cross Reference                                          Page   79
 IHB2245C      2 00000578 00000001     H   18045 18040B
 IHB2245F      1 00000574 00000001     B   18041 18047
 IHB3289A      2 00000CC8 00000001     H   19921 19911B
 IHB3363A      2 00000D2E 00000001     H   20031 20025B
 IHB3364A      2 00000D52 00000001     H   20041 20035B
 IHB3365A      2 00000D72 00000001     H   20051 20045B
 IHB3366A      2 00000D96 00000001     H   20061 20055B
 IHB5170       2 0000255C 00000001     H   23371 23350B 23357B
 ILRJTERM      1 00000000 00000000 A   T    7509  7509
 INEOF         2 000024FE 00000001     H   23335 24872
 INEX          4 00002C1C 00000001     F   24898 24874
 INITCMD       1 00000000 0000002B     T   25861 25861
 INITCMDS      4 00002DD0 00000001     I   25090 25089
 INITCP        1 00000000 0000002C     T   25862 25862
 INITCVRG      2 00002E64 00000001     H   25298 25277B
 INITFUNC      1 00000000 0000000A     T   18871 18871
 INITPARM      4 000023E6 00000001     I   22982 18867  22981
 INITPCMD      2 00002F06 00000001     H   25534 25532
 INITPROC      1 00000000 0000000C     T   18873 18873
 INITPRT       1 00002614 00000001     R   23720 23326  23422
 INITPTR       4 00000020 FFFFFFC3     F   22959 23067M 23069  23298M
 INITPUSR      2 00002E2A 00000001     H   25200 25198
 INITRG        1 00000000 0000002D     T   25865 25865
 INITSYSV      1 00000000 0000000B     T   18872 18872
 INITWA      279 00000000 FFFFFFC3     J   22969 22986  23006U
 INITWLOG      1 00000000 0000000D     T   18874 18874
 INIT4072      1 00000000 00000001     R    1152  1150
 INVALID       1 00000000 00000000 A   T   11962 11962
 IOBEXTEN      8 00000030 FFFFFFE3     D    4545  4568   4637   4777   4802
 IOBINCAM      2 0000002C FFFFFFE3     H    4461  4482   4499   4503
 IOBPREFX      8 00000000 FFFFFFE3     D    4158  4193   4208   4251   4287
 IOBSEEK       8 00000030 FFFFFFE3     C    4553  4591   4663   4675   4756
 IOSVDEVN      1 00000000 00000000 A   T    7526  7526
 IOSVHID       1 00000000 00000000 A   T    7536  7536
 IOSVSUCB      1 00000000 00000000 A   T    7539  7539
 IOWRSG        1 00000000 00000026     T   25046 25046
 IRARMCNS      1 00000000 00000000 A   T    7280  7280
 IRARMEPS      1 00000000 00000000 A   T    7498  7498
 IRARMI00      1 00000000 00000000 A   T    7237  7237
 ISNBRNCH      1 00000000 00000000 A   T    7395  7395
 JCB         208 00000000 FFFFFFEE     J    1458 18121U 18894  18916  19025U 19079M 19237U 20179U 20496U 20783U 25124U
                                                 25150M 25245U 25817U
 JCBACCT       5 0000004A FFFFFFEE     C    1220 19571M 20805M 20805  25251M
 JCBAFALO    128 00000062 FFFFFFEE         1307 19548M 20818M 25828M
 JCBAFL        1 00000062 FFFFFFEE     R    1303  1307   1312   1317   1322   1327   1332   1337   1342
 JCBAPDSP     16 00000062 FFFFFFEE         1322 19079M 19079  25150M 25150
 JCBBFL        1 00000063 FFFFFFEE     R    1348  1352   1357   1362   1367   1372   1377   1382
 JCBBILLX      8 00000088 FFFFFFEE     D    1433  1441   1441
 JCBCPX        4 00000014 FFFFFFEE     A    1200 19565M 20822  20847M
 JCBNEXT       4 000000D0 FFFFFFEE     F    1451 18132  19111
 JCBR          6 00000006 00000001 A   #    1016 19009M 19025U 19029  19111M 19127  25115M 25124U 25808M 25817U
 JCBRSCF1      1 00000064 FFFFFFEE     R    1388  1392   1397   1402
 JCBSEQ        2 00000048 FFFFFFEE     H    1219 18125M 19242  19308  20185  20502  20788
 JCBSFLG1      1 00000065 FFFFFFEE     R    1408  1412   1417
 JCBWFL        1 00000060 FFFFFFEE     R    1232  1236   1241   1246   1251   1256   1261   1266   1271   1299  25135M
 JCBWFSO     128 00000060 FFFFFFEE         1236 18131M 19542M 20811M
 JCBWWFL       1 00000061 FFFFFFEE     R    1277  1281   1286   1291   1296
 JESINIT       1 00000000 0000001A     T   18906 18906
 JFCBLKSI      2 00000066 FFFFFFE4     H    3855 21916
1INIT     (INIT4072) (12:46) (15MAR04) Ordinary Symbol and Literal Cross Reference                                          Page   80
 JFCLRECL      2 00000068 FFFFFFE4     H    3862 21918
 JFCRESRV      4 0000006C FFFFFFE4     B    3924  3961
 JFDSECT       1 00000000 FFFFFFE4     J    2964 21889U
 JSCB          1 00000000 FFFFFFCE     U   10871 16363U
 JSCBSEC1      1 000000BC FFFFFFCE     U   10641 10744
 JSCBSEC2      1 00000104 FFFFFFCE     U   10751 10755  10762
 JSCBSEC3      1 00000104 FFFFFFCE     U   10763 10862
 JSCBS1LN      1 00000048 FFFFFFCE A   U   10744 10866  10867  10868
 JSCBS2LN      1 00000000 FFFFFFCE A   U   10755 10867
 JSCBS3LN      1 00000078 FFFFFFCE A   U   10862 10868
 JSCBTCBP      4 000000D0 FFFFFFCE     A   10654 16369
 KIOINIT       1 00000000 00000015     T   18901 18901
 LFLAGS        1 00002DBC 00000001     R   22929 22933  22938
 LINE        235 0000002C FFFFFFC3     C   22962 23151  23268M 23288  25042
 LINENO        4 00000028 FFFFFFC3     F   22961 23156M
 LOCALTOD      1 00000000 00000003     T   18856 18856
 LOWTBL        1 00000000 00000000 A   T   11970 11970
 LRTRIM        1 00000000 00000028     T   25054 25054
 LSR           8 00000008 00000001 A   #    1054 19201  19834M 20133  20396M 20429  20623M 21678  22093M 22117  22456M
                                                 22480  22537M 22556  22613M 22632  22689M 22708  22765M 22784  22841M
                                                 25307  25408M
 MANUAL        2 00002A62 00000001     H   24392 23819
 MBBCCHHR      8 000012E8 00000001     D   21557 21049  21180  21487  21558  21559  21560  21561
 MBUFF         4 000029A0 00000001     I   24168 23787
 MEMBER        4 00002AB4 00000001     I   24481 23825
 MILERR        1 00000000 00000000 A   T   11961 11961
 NAME          6 0000289E 00000001     I   23860 23720
 NBLTBL        1 00000000 00000000 A   T   11974 11974
 NEXTPF        2 00000718 00000001     H   18491 18281B 18408B 18444B
 NOACTION      1 00000000 00000000 A   T   11964 11964
 NOCHECK       2 00002A5C 00000001     H   24383 23815  23817
 NOCMD         4 00002AC0 00000001     I   24485 23827  23829
 NODUMP        2 00002ADE 00000001     H   24519 23837
 NONOTIFY      2 00002928 00000001     H   24045 23748
 NORACF        2 00002AEA 00000001     H   24539 23841
 NORCVY        2 00002A34 00000001     H   24320 23734  23736
 NORETRY       2 00002A56 00000001     H   24374 23801
 NOROTATE      2 000029BC 00000001     H   24198 23797
 NORUN         2 00002AD2 00000001     H   24501 23833
 NOSERVW       2 0000297A 00000001     H   24104 23772
 NOSMF         2 00002986 00000001     H   24124 23776
 NOSPIE        2 00002B14 00000001     H   24614 23853
 NOSTAE        2 00002B08 00000001     H   24595 23849
 NOTIFY        2 0000290A 00000001     H   24001 23746
 NOTIME        2 00002936 00000001     H   24065 23752
 NOTRACE       2 000029B4 00000001     H   24184 23789  23793
 NOXA          2 00002AFC 00000001     H   24575 23845
 NPARTBL       1 00000000 00000000 A   T   11968 11968
 NSCNCB      176 00000000 FFFFFFCA     J   12233 12352  19560
 NSCNFLGS      1 00000008 FFFFFFCA     R   12170 12174  12179
 NSCNTYPE      1 00000018 FFFFFFCA     R   12188 12192  12197  12202  12207  12212
 NTRACE        4 0000298C 00000001     I   24131 23781
 OLDHH         2 000012E6 00000001     X   21555 21048M 21124  21179M
 OLDIBM        2 00002900 00000001     H   23985 23740
 ORVYL         6 000028B0 00000001     I   23883 23722
 PAGES         4 000029C2 00000001     I   24206 23778
 PARMERR       4 00002B9E 00000001     I   24809 23331B 25044
 PARMFILE      4 00002430 00000001     I   23069 23123B 23332B 24832B
 PARMSTR       2 00002580 00000001     H   23415 24838B
1INIT     (INIT4072) (12:46) (15MAR04) Ordinary Symbol and Literal Cross Reference                                          Page   81
 PATH          4 00000000 FFFFFFE9     F    1869  1906
 PCMDSG       60 00000000 FFFFFFC2     X   25510 25611  25639  25675  25703  25743  25771
 PCMDSGCOD
               1 00000000 FFFFFFC2     R   25427 25436  25446  25456  25466  25476  25486  25496
 PCMDSGLENF
               4 0000000C FFFFFFC2     A   25502 25795
 PCMDTEXT    235 0000003C FFFFFFC2     C   25511 25598  25603  25790
 PCMDWA      295 00000000 FFFFFFC2     J   25518 25537  25557U 25565M 25565  25566M 25566
 PCW           4 00000000 FFFFFFE8     F    1930  1937
 PDBBYT1       1 0000000E FFFFFFEA     X    1694  1726
 PDBBYT2       1 0000000F FFFFFFEA     X    1695  1732
 PDBCMDFL      1 00000007 FFFFFFEA     X    1682  1718   1718   1724
 PDBINCT       2 00000030 FFFFFFEA     H    1712  1716   1716
 PDBSINP       4 00000010 FFFFFFEA     A    1697  1698
 PDBSTRT       4 00000000 FFFFFFEA     F    1674  1719   1719
 PDBVPGM       8 00000014 FFFFFFEA     C    1700  1706   1706
 PFCB        164 00000000 FFFFFFED     J    1548 18213U 18505  18562U 20946U 21470U
 PFCBDCB       4 00000070 FFFFFFED     F    1519 18230  18261  18269  18283  18400  18414  21019  21130  21485
 PFCBFL        1 00000058 FFFFFFED     R    1496  1500   1505
 PFCBFRPS     64 00000058 FFFFFFED         1505 18450M 20969
 PFCBNEXT      4 000000A4 FFFFFFED     F    1541 18516  18567
 PFCBNO        4 00000004 FFFFFFED     F    1473 21368
 PFCBNP        4 00000008 FFFFFFED     A    1474 18280M 18385M 18566  21037  21238
 PFCBRPT       4 00000014 FFFFFFED     A    1477 18259M 18384  18442  21481
 PFCBSECM      1 00000013 FFFFFFED A   U    1511  1512  18920
 PFCBSECT      1 0000005C FFFFFFED     X    1512 18462
 PFCBUCBP      4 00000018 FFFFFFED     A    1478 18422M
 PFNOPN        2 00000642 00000001     H   18273 18245B 18252B
 PFOPN         4 000005F8 00000001     I   18230 18518B
 PFOPND        4 0000064C 00000001     I   18283 18270B
 PFORMAT       2 00002A2C 00000001     H   24306 23807  23809
 PFREEA        1 00000000 0000002E     T   25870 25870
 PFREEB        1 00000000 0000002F     T   25871 25871
 PROD          2 000028EC 00000001     H   23953 23730
 R             1 000012EF 00000001     X   21561 21213
 RACCHKOP      1 00000000 00000007     T   18866 18866
 RACF          2 00002AE4 00000001     H   24529 23839
 RAR          14 0000000E 00000001 A   #    1132 11899  11900M 11901B 11903M 11904B 11924M 11925B 11929M 11930B 11932M
                                                 11933B 11935M 11936B 11938M 11939B 11941M 11942M 11942B 11948  16210M
                                                 16211M 16211B 16458M 16459M 16459B 16466M 16467M 16467B 16486M 16487M
                                                 16487B 16507M 16508M 16508B 16515M 16516M 16516B 16565M 16566M 16566B
                                                 16581M 16582M 16582B 16923M 16924M 16924B 16927M 16928M 16928B 16931M
                                                 16932M 16932B 16935M 16936M 16936B 16939M 16940M 16940B 16943M 16944M
                                                 16944B 17180M 17181M 17181B 17184M 17185M 17185B 17230M 17231M 17231B
                                                 17260M 17261M 17261B 17288M 17289M 17289B 17352M 17353M 17353B 17430M
                                                 17431M 17431B 17607M 17608M 17608B 17640M 17641M 17641B 17693M 17694M
                                                 17694B 17784M 17785M 17785B 17863M 17864M 17864B 17887M 17888M 17888B
                                                 17903M 17904M 17904B 17922M 17923M 17923B 17945M 17946M 17946B 18079M
                                                 18080M 18080B 18083M 18084M 18084B 18198M 18199M 18199B 18257M 18258M
                                                 18258B 18472M 18473M 18473B 18479M 18480M 18480B 18509M 18510M 18510B
                                                 18681M 18682M 18682B 18741M 18742M 18742B 18745M 18746M 18746B 18749M
                                                 18750M 18750B 18753M 18754M 18754B 18757M 18758M 18758B 18764M 18765M
                                                 18765B 18810M 18811M 18811B 18816M 18817M 18817B 18846M 18847M 18847B
                                                 19037M 19038M 19038B 19052M 19053M 19053B 19097M 19098M 19098B 19198
                                                 19288M 19289M 19289B 19303M 19304M 19304B 19321M 19322M 19322B 19336M
                                                 19337M 19337B 19363M 19364M 19364B 19378M 19379M 19379B 19405M 19406M
                                                 19406B 19420M 19421M 19421B 19452M 19453M 19453B 19487M 19488M 19488B
                                                 19523M 19524M 19524B 19552M 19553M 19553B 19778M 19779M 19779B 19793M
                                                 19794M 19794B 19836M 19839B 20070M 20130  20398M 20401B 20426  20625M
1INIT     (INIT4072) (12:46) (15MAR04) Ordinary Symbol and Literal Cross Reference                                          Page   82
                                                 20628B 20665M 20666M 20666B 20680M 20681M 20681B 20705M 20706M 20706B
                                                 20720M 20721M 20721B 20745M 20746M 20746B 20768M 20769M 20769B 20837M
                                                 20838M 20838B 20981M 20982M 20982B 21013M 21014M 21014B 21046M 21047M
                                                 21047B 21089M 21090M 21090B 21347M 21348M 21348B 21362M 21363M 21363B
                                                 21381M 21382M 21382B 21404M 21405M 21405B 21490M 21491M 21491B 21505M
                                                 21506M 21506B 21675  21767M 21768M 21768B 21786M 21787M 21787B 21801M
                                                 21802M 21802B 21820M 21821M 21821B 21843M 21844M 21844B 22029M 22030M
                                                 22030B 22069M 22070M 22070B 22095M 22098B 22114  22418M 22419M 22419B
                                                 22458M 22461B 22477  22521M 22522M 22522B 22539M 22542B 22553  22597M
                                                 22598M 22598B 22615M 22618B 22629  22673M 22674M 22674B 22691M 22694B
                                                 22705  22749M 22750M 22750B 22767M 22770B 22781  22825M 22826M 22826B
                                                 22843M 22846B 23011M 23012M 23012B 23018M 23019M 23019B 23028M 23029M
                                                 23029B 23086M 23087M 23087B 23096M 23097M 23097B 23154M 23155M 23155B
                                                 23314M 23315M 23315B 23329M 23330M 23330B 23338M 23339M 23339B 23374M
                                                 23375M 23375B 23405M 23406M 23406B 23425M 23426M 23426B 23707M 23708M
                                                 23708B 23861B 23881B 23885B 23927B 23949B 23965B 23981B 23997B 24041B
                                                 24051B 24061B 24070B 24073B 24076B 24079B 24082B 24085B 24088B 24091B
                                                 24100B 24110B 24120B 24129B 24132B 24166B 24171B 24180B 24189B 24194B
                                                 24204B 24207B 24216B 24220  24237M 24238M 24238B 24254M 24255M 24255B
                                                 24271M 24272M 24272B 24288M 24289M 24289B 24301M 24302B 24326B 24342B
                                                 24351B 24360B 24370B 24379B 24388B 24397B 24401  24405M 24406M 24406B
                                                 24411M 24412M 24412B 24478M 24479B 24483B 24487B 24497B 24506B 24515B
                                                 24525B 24535B 24544B 24559B 24571B 24581B 24591B 24600B 24610B 24619B
                                                 24662M 24663M 24663B 24666M 24667M 24667B 24731M 24732M 24732B 24736
                                                 24757M 24758M 24758B 24772M 24773M 24773B 24795M 24796M 24796B 24801M
                                                 24802B 24819M 24820M 24820B 25007B 25168M 25169M 25169B 25217M 25218M
                                                 25218B 25221M 25222M 25222B 25277M 25304  25343M 25344M 25344B 25352M
                                                 25353M 25353B 25361M 25362M 25362B 25370M 25371M 25371B 25379M 25380M
                                                 25380B 25386M 25387M 25387B 25392M 25393M 25393B 25410M 25413B 25614M
                                                 25615M 25615B 25642M 25643M 25643B 25678M 25679M 25679B 25706M 25707M
                                                 25707B 25746M 25747M 25747B 25774M 25775M 25775B 25798M 25799M 25799B
 RCHKEXIT      2 00000DA4 00000001     I   20078 19954B 19968B 20000B
 RCVY          2 000029C8 00000001     H   24211 23732
 RCVYCHK       4 00000C68 00000001     I   19855 20881
 RCVYERR       4 00000F0C 00000001     I   20636 20070B 20892
 RCVYEXIT      2 00000A84 00000001     I   19162 19001B
 RCVYINFO      2 00000E70 00000001     H   20420 20416
 RCVYINIT      4 000009E6 00000001     I   18943 18908
 RCVYLOOP      2 00000C8C 00000001     H   19894 20063B
 RCVYSET       2 00000A90 00000001     H   19192 20880
 RCVYWTOR      4 00000CA4 00000001     I   19911 19923  19924
 RDEBUG        2 00002A4A 00000001     H   24355 23744
 RDW           4 00000000 FFFFFFE7     F    2012  2025
 RECOVERY      1 00000000 00000020     T   20889 20889
 RETRY         2 00002A50 00000001     H   24364 23799
 RGRCVY        1 00000000 00000021     T   20891 20891
 RMBRANCH      1 00000000 00000000 A   T    7405  7405
 ROTATE        2 000029BA 00000001     H   24192 23795
 RSCFLAGS      1 00000014 FFFFFFEB     R    1633  1637   1642   1647
 RSCGROUP     60 00000000 FFFFFFEC     J    1610 23512U 24151U
 RSG#FREE      2 0000000C FFFFFFEC     H    1563 23516M 24157M
 RSGFLG1       1 0000003B FFFFFFEC     R    1585  1589   1594   1599   1602
 RUN           2 00002ACC 00000001     H   24491 23831
 R0            0 00000000 FFFFFFFF A   #     699 11884  11953M 16212  16259M 16274M 16275M 16284M 16463M 16479  16480M
                                                 16480  16481M 16483M 16499  16500M 16500  16501M 16512M 16529  16530M
                                                 16530  16531M 16920M 16968  17171M 17362  17367  17368M 17380M 17546M
                                                 17546  17576M 17775M 17854M 17894M 17913M 17913  17936M 17936  17962M
                                                 17994M 17994  17995M 18011M 18016M 18070M 18090M 18091M 18092M 18093
                                                 18094M 18100M 18104M 18104  18125  18133M 18189M 18253M 18275M 18275
1INIT     (INIT4072) (12:46) (15MAR04) Ordinary Symbol and Literal Cross Reference                                          Page   83
                                                 18384M 18464M 18465M 18467M 18474  18476M 18481M 18981M 18994M 19093M
                                                 19103M 19104M 19105  19294M 19312M 19312  19327M 19354M 19369M 19396M
                                                 19411M 19443M 19478M 19514M 19514  19773M 20228  20475  20545  20582
                                                 20588  20671M 20696M 20711M 20736M 20759M 20759  20976M 20983  21010M
                                                 21293  21338M 21338  21353M 21372M 21372  21395M 21395  21478M 21478
                                                 21481M 21482M 21484M 21709M 21710M 21711M 21712M 21713M 21758M 21777M
                                                 21777  21792M 21811M 21811  21834M 21834  21872M 21936M 21938M 21952M
                                                 21955M 21957M 22020M 22060M 22232M 22241M 22241  22263  22314M 22315
                                                 22341M 22342M 22343M 22344M 22345M 22354M 22354  22384M 22394  22409M
                                                 22435M 22437M 22512M 22588M 22664M 22740M 22816M 22901  22911M 23183M
                                                 23197  23217M 23224  23236M 23241  23389M 24011  24228M 24245M 24262M
                                                 24279M 24415  24427M 24432  24635  24670  24682M 24687  24763M 24786M
                                                 24786  24810M 25164M 25338M 25347M 25356M 25365M 25374M 25603M 25631M
                                                 25667M 25695M 25735M 25763M 25795M
 R1            1 00000001 FFFFFFFF A   #     712 11947M 11948M 11954M 16212  16234M 16250M 16250  16264  16280  16281M
                                                 16282  16289  16290M 16291  16353M 16363U 16394M 16395M 16395  16468
                                                 16474  16488  16494  16517  16518  16524  16985M 17007U 17170M 17547M
                                                 17581  17583  17585  17774M 17853M 17893M 17909M 17967  17988  18011
                                                 18012M 18015  18069M 18089  18092  18094  18095M 18105M 18121U 18132M
                                                 18188M 18254M 18259  18332M 18332  18373M 18385  18394M 18394  18462M
                                                 18463  18466M 18467  18481  18482  18505M 18988M 19087M 19293M 19308M
                                                 19326M 19347M 19368M 19389M 19410M 19442M 19477M 19554M 19555  19774M
                                                 20670M 20691M 20710M 20731M 20938  21019M 21020  21043M 21086M 21130M
                                                 21131M 21131  21141U 21334M 21352M 21368M 21480M 21483M 21484  21485M
                                                 21486M 21486  21747  21753  21757M 21773M 21791M 21807M 21845M 21861M
                                                 21871  21874  21875M 21876M 21878  21913M 21916  21918  21937M 21951M
                                                 21951  21956M 21966M 21967  21970M 21972  21982M 21985  22019M 22059M
                                                 22150M 22151  22154M 22156  22261M 22263M 22265  22267  22394  22401
                                                 22408M 22422M 22432  22436M 22511M 22587M 22663M 22739M 22815M 23098
                                                 23151M 23288M 23326M 23390M 23422M 23502M 23512U 24141M 24151U 24227M
                                                 24244M 24261M 24278M 24762M 24809M 24919U 25158M 25339M 25348M 25357M
                                                 25366M 25375M 25598M 25626M 25666M 25690M 25734M 25758M 25790M
 R11          11 0000000B FFFFFFFF A   #     842 17375M
 R12          12 0000000C FFFFFFFF A   #     855 11910
 R13          13 0000000D FFFFFFFF A   #     868 16224  16232  16267M 17552  17556M 21495  21499M 25201  25535
 R14          14 0000000E FFFFFFFF A   #     881 11885M 16199  16474M 16479M 16481M 16494M 16499M 16501M 16524M 16529M
                                                 16531M 16969M 17379M 17555M 17988M 17993M 17995M 18013M 18014M 18016M
                                                 18100M 18475M 18943  18994M 19559M 19564M 19564  19567M 19855  20229M
                                                 20476M 20546M 20636  20921  21009M 21294M 21444  21498M 21934M 21938M
                                                 21952M 21957M 22433M 22437M 22464M 22465B 22912B 22982  25090
 R15          15 0000000F FFFFFFFF A   #     894 11884  16230M 16230  16369M 16378  16968  17177M 17222M 17222  17344
                                                 17367  17377M 17378M 17378  17380M 17541M 17542  17550  17551  17551
                                                 17551  17553M 17554M 17554  17555B 17559M 17781M 17860M 17884M 17900M
                                                 17919M 17942M 18015M 18058M 18058  18076M 18099M 18099  18195M 18242M
                                                 18242  18414M 18416M 18417M 18418M 18420M 18421M 18422  18468M 18469M
                                                 18469  18474  18475B 18476M 18506M 18733M 18734M 18735  18912  18912
                                                 18912  18993M 18993  18998M 18999M 19000  19078M 19079  19094M 19285M
                                                 19300M 19318M 19333M 19360M 19375M 19402M 19417M 19449M 19484M 19520M
                                                 19775M 19809M 19838M 19838  19875M 19875  19937M 19937  20071M 20185M
                                                 20205M 20205  20219  20228  20236M 20239  20364M 20365M 20366  20400M
                                                 20400  20475  20502M 20522M 20522  20536  20545  20553M 20556  20592M
                                                 20593M 20594  20603M 20603  20627M 20627  20662M 20677M 20702M 20717M
                                                 20742M 20765M 20795M 20796M 20797  20949  20983  20984M 20994U 21000M
                                                 21009B 21010M 21181M 21184M 21186  21188M 21190  21192M 21194  21213M
                                                 21215M 21216  21293  21344M 21359M 21378M 21401M 21493  21494  21494
                                                 21494  21496M 21497M 21498B 21502M 21548  21548  21548  21764M 21783M
                                                 21798M 21817M 21840M 21935M 21937  21946M 21954M 21956  22026M 22031M
                                                 22066M 22074M 22074  22097M 22097  22169M 22415M 22434M 22436  22441M
                                                 22441  22460M 22460  22518M 22541M 22541  22594M 22617M 22617  22670M
1INIT     (INIT4072) (12:46) (15MAR04) Ordinary Symbol and Literal Cross Reference                                          Page   84
                                                 22693M 22693  22746M 22769M 22769  22822M 22845M 22845  22895U 22901
                                                 22911M 23150M 23156  23162M 23164M 23165  23166  23241M 23245M 23254M
                                                 23254  23261  23388M 23880  24131  24157  24168M 24169M 24170  24206
                                                 24234M 24251M 24268M 24285M 24432M 24436M 24445M 24445  24452  24687M
                                                 24691M 24700M 24700  24707  24728M 24754M 24769M 24792M 24816M 24930U
                                                 25139M 25140M 25141  25149M 25150  25165M 25235M 25245U 25337M 25346M
                                                 25355M 25364M 25373M 25412M 25412  25611M 25639M 25675M 25703M 25743M
                                                 25771M
 R2            2 00000002 FFFFFFFF A   #     725 16334M 16336M 16337  16347U 16379M 16518M 16541U 17308M 17327  17369M
                                                 17482M 17492U 17548M 17876M 17909  17957M 17959M 17961  17962  17993
                                                 18012  18031M 18033M 18034  18261M 18266  18283M 18293U 18305M 18324U
                                                 18374M 18374  18400M 18405  18460M 18461M 18463M 18482M 18544M 18544
                                                 18566M 18607M 18607  18819M 18945  18947  18947  18947  19857  19859
                                                 19859  19859  20638  20640  20640  20640  20923  20925  20925  20925
                                                 20977M 20978M 21022M 21037  21043  21086  21226M 21238  21314M 21324M
                                                 21324  21334  21446  21448  21448  21448  21487M 21736M 21747  21773
                                                 21861  21879M 21889U 22289M 22315M 22316M 22957  22984  24407M 24472M
                                                 24481M 24485M 24657M 25092  25094  25094  25094  25340M 25349M 25358M
                                                 25367M 25376M
 R3            3 00000003 FFFFFFFF A   #     738 17306M 17326  17449M 17459U 17552M 17556  18034M 18035M 18090  18095
                                                 18303M 18350  18375M 21050M 21067  21181  21182M 21205  21225M 21495M
                                                 21499  21753M 21807  21845
 R4            4 00000004 FFFFFFFF A   #     751 17194M 17204U 17392M 17402U 18442M 18443  18483M 19259M 19718M 19718
                                                 19795M 19809  21051M 21080  21195M 21206M 21252M 23064M 23064  23067
                                                 23069M 23078M 23078  23115M 23119  23121M 23122M 23166M 23298  23574M
                                                 23575M 23575  23596U
 R5            5 00000005 FFFFFFFF A   #     764 16293M 16301U 17077M 17087U 18163  18205M 18213U 18516M 18517  18546M
                                                 18562U 18567M 18579  19242M 19243M 19244M 19254U 20169M 20179U 20238M
                                                 20239M 20335  20486M 20496U 20555M 20556M 20566U 20788M 20789M 20790M
                                                 20938M 20946U 21470U 23066M 23066  23067  23069M 23098M 23124M 23150
                                                 23165M 23298  23557M 23567U
 R6            6 00000006 FFFFFFFF A   #     777 17079M 17096U 18217M 18226U 19227M 19237U 20244M 20254U 20773M 20783U
                                                 20949M 20957U 23046M 23056U 23412M 23412  24829M 24829
 R7            7 00000007 FFFFFFFF A   #     790 11877M 11877  11878B 11890B 25202M 25212U 25538M 25548U
 R8            8 00000008 FFFFFFFF A   #     803 16266M 16267  18945  18946M 18947  18947  18947  19857  19858M 19859
                                                 19859  19859  20165U 20638  20639M 20640  20640  20640  20923  20924M
                                                 20925  20925  20925  21446  21447M 21448  21448  21448  22957  22984
                                                 22985M 25092  25093M 25094  25094  25094  25201M 25535M
 R9            9 00000009 FFFFFFFF A   #     816 17550  17551  17551  17551  17559M 18912  18912  18912  21493  21494
                                                 21494  21494  21502M 21548  21548  21548
 SCAN          1 00000000 00000025     T   25045 25045
 SCDONE        1 00000000 0000002A     T   25061 25061
 SCINIT        1 00000000 00000024     T   25043 25043
 SCTELL        1 00000000 00000029     T   25059 25059
 SDSNQSZ       1 0000002C FFFFFFC9 A   U   15858 15859  15860
 SEG           1 00000000 0000001E     T   20884 20884  21544  22859  25062  25874
 SEGB          1 00000000 00000010     T   18890 18890
 SEGCLR        1 00000000 0000000F     T   18888 18888  20883
 SEGDC         1 00000000 00000011     T   18891 18891  20885  21543  22860
 SEGINIT       1 00000000 00000030     T   25872 25872
 SEGT          1 00000000 00000031     T   25873 25873
 SEGWR         1 00000000 0000000E     T   18876 18876  20887  21545  22861  25051
 SERVWYL       2 00002974 00000001     H   24095 23770
 SETMXSES      2 000028A6 00000001     H   23864 23855
 SKIPIT        4 0000067A 00000001     I   18384 18367B
 SMF           2 00002980 00000001     H   24114 23774
 SPIE          2 00002B0E 00000001     H   24604 23851
 SPR          13 0000000D 00000001 A   #    1119 19198  19201  19202  19203M 19203  19830M 19834  19836  20130  20133
                                                 20135  20136M 20136  20392M 20396  20398  20426  20429  20430  20431M
1INIT     (INIT4072) (12:46) (15MAR04) Ordinary Symbol and Literal Cross Reference                                          Page   85
                                                 20431  20619M 20623  20625  21675  21678  21679  21680M 21680  22089M
                                                 22093  22095  22114  22117  22118  22119M 22119  22452M 22456  22458
                                                 22477  22480  22481  22482M 22482  22533M 22537  22539  22553  22556
                                                 22557  22558M 22558  22609M 22613  22615  22629  22632  22633  22634M
                                                 22634  22685M 22689  22691  22705  22708  22709  22710M 22710  22761M
                                                 22765  22767  22781  22784  22785  22786M 22786  22837M 22841  22843
                                                 25304  25307  25308  25309M 25309  25404M 25408  25410
 SRTEASCI      1 00000004 FFFFFFD5 A   U    9743  9744
 SRTEBSTR      1 00000004 FFFFFFD5 A   U    9742  9745
 STAE          2 00002B02 00000001     H   24585 23847
 STARTUP       1 00000000 0000001C     T   18910 18910
 STATINIT      1 00000000 00000019     T   18905 18905
 SYMINIT       1 00000000 0000001B     T   18907 18907
 SYSA          6 0000293C 00000001     I   24072 23754
 SYSB          6 00002944 00000001     I   24075 23756  23768
 SYSC          6 0000294C 00000001     I   24078 23758
 SYSD          6 00002954 00000001     I   24081 23760
 SYSF          6 00002964 00000001     I   24087 23764
 SYSG          6 0000296C 00000001     I   24090 23766
 SYSH          6 0000295C 00000001     I   24084 23762
 SYSIN         4 00002BBC 00000001     F   24860 23024  23040  23046  23090  23344  23348
 SYSINOP       2 00002C20 00000001     H   24909 24898
 TASKOPT      64 00002DBC 00000001        22938 23484  24140M
 TASKS         2 00002992 00000001     H   24136 23784
 TCB           1 00000020 FFFFFFD6     U    8033  8732  16347U 17007U
 TCBAE         4 000000BC FFFFFFD6     A    8277  8280
 TCBDARPN      1 00000040 FFFFFFD6 A   U    8323  8325
 TCBDARTN      1 00000080 FFFFFFD6 A   U    8320  8322
 TCBFIX        1 00000000 FFFFFFD6     J    8021  8028
 TCBJSCB       4 000000D4 FFFFFFD6     A    8384 16353
 TCBMNLEN      1 00000158 FFFFFFD6 A   U    8732  8777
 TCBPKF        1 0000003C FFFFFFD6     B    8083 16352
 TCBPXLEN      1 00000020 FFFFFFD6 A   U    8028  8777
 TCBRD         4 000000B8 FFFFFFD6     A    8272  8276
 TCBTIO        4 0000002C FFFFFFD6     A    8041 16379
 TCBUSER       4 000000C8 FFFFFFD6     A    8312 17013M
 TCBXTNT2      1 00000000 FFFFFFD5     J    8737  8775   9638   9864  10024  10248  10362  10392
 TCBX2LEN      1 00000020 FFFFFFD5 A   U    8775  8777
 TEST          2 000028E2 00000001     H   23938 23726
 TESTMIL       2 000028DE 00000001     H   23931 23728
 TIMEOUT       2 00002930 00000001     H   24055 23750
 TIMRINIT      1 00000000 00000016     T   18902 18902
 TRACE         2 000029AE 00000001     H   24175 23791
 TRC           1 00000000 00000000 A   T   11906 11906
 TSEGPLIN      1 00000000 00000006     T   18863 18863
 TSTOPT      128 00002DBC 00000001        22933 23441  23948M 23964M
 UCBALOC       1 00000008 FFFFFFD5 A   U    9285  9472
 UCBBALB       1 00000020 FFFFFFD5 A   U    9658  9739
 UCBBNUL       1 00000001 FFFFFFD5 A   U    9667  9746
 UCBBPRV       1 00000010 FFFFFFD5 A   U    9660  9740
 UCBBPUB       1 00000008 FFFFFFD5 A   U    9661  9741
 UCBBSTR       1 00000004 FFFFFFD5 A   U    9662  9742   9743
 UCBBSVL       1 00000080 FFFFFFD5 A   U    9644  9738
 UCBCHGS       1 00000040 FFFFFFD5 A   U    9275  9469
 UCBDADI       1 00000001 FFFFFFD5 A   U    9299  9475
 UCBDEV        1 00000038 FFFFFFD5     U    9483  9639   9865  10025  10041  10249  10271  10363  10393
 UCBDMCT       1 00000043 FFFFFFD5     X    9676  9747
 UCBFLA        1 00000026 FFFFFFD5     B    9311  9312
 UCBFL1        1 00000026 FFFFFFD5     U    9312  9476
1INIT     (INIT4072) (12:46) (15MAR04) Ordinary Symbol and Literal Cross Reference                                          Page   86
 UCBFSCT       2 00000038 FFFFFFD5     H    9866  9870
 UCBFSEQ       2 0000003A FFFFFFD5     H    9867  9871
 UCBJBNR       1 00000020 FFFFFFD5     B    9206  9465
 UCBMONT       1 00000001 FFFFFFD5 A   U    9227  9466
 UCBNRY        1 00000040 FFFFFFD5 A   U    9316  9317
 UCBONLI       1 00000080 FFFFFFD5 A   U    9274  9468
 UCBPRES       1 00000004 FFFFFFD5 A   U    9295  9473
 UCBRESV       1 00000020 FFFFFFD5 A   U    9280  9470
 UCBSTAB       1 00000042 FFFFFFD5     B    9643  9737
 UCBSTAT       1 00000023 FFFFFFD5     B    9273  9467
 UCBSYSR       1 00000002 FFFFFFD5 A   U    9297  9474
 UCBTR         1 00000054 FFFFFFD5     G    9939  9941
 UCBUNLD       1 00000010 FFFFFFD5 A   U    9282  9471
 UCBUSER       2 00000046 FFFFFFD5     G    9717  9718
 UCBVOLI       6 0000003C FFFFFFD5     C    9642  9736
 UCB3DACC      1 00000020 FFFFFFD5 A   U    9428 17252
 UNPRESS       1 00000000 00000023     T   25040 25040
 UPPTBL        1 00000000 00000000 A   T   11969 11969
 USEHSPFL      1 00000004 FFFFFFDB     X    6463 23662
 USERCVT     863 00000000 FFFFFFDB     J    6535 23596U 23611
 USEWORD       8 00000074 FFFFFFDB     X    6518 23651
 VISTA         2 00002A44 00000001     H   24346 23742
 VOLDSECT      1 00000000 FFFFFFCC     J   10907 10960  12150  12234
 VOLOPNS       2 00000010 FFFFFFCC     H   10937 10944  10944
 VOLOWNF1      1 00000030 FFFFFFCC     X   10955 10959  10959
 WAR           8 00000008 00000001 A   #    1042 19202M 19830  20135M 20392  20430M 20619  21679M 22089  22118M 22452
                                                 22481M 22533  22557M 22609  22633M 22685  22709M 22761  22785M 22837
                                                 23006U 25308M 25404  25557U
 WINGS         2 000028F6 00000001     H   23969 23738
 WORD          6 000028BE 00000001     I   23887 23724
 WTORECB       4 00000DB4 00000001     F   20091 19899M 19899  19914  19930
 WTORGRP       2 00000CBC 00000001     C   19923 19905M
 WTORREP       4 00000DB8 00000001     C   20092 19904M 19904  19913  19915  19932M 19951  19965  19986  20017
 WTORUSER      3 00000CBF 00000001     C   19924 19906M
 WTOSG         1 00000000 00000000 A   T   11866 11866
 WYLBUR        2 00000018 00000001     I   16182 16179
 WYLINIT       1 00000000 00000001     J     993   995   1011   1024   1037   1050   1062   1075   1088   1101   1114
                                                  1127   1140   1459   1549   1611   1658   1856   1914   1999   2033
                                                 16132  16173  17073
 XA            2 00002AF0 00000001     H   24548 23843
 =A(CALCSEEK)
               4 000012C8 00000001     A   21540 21046  21089
 =A(CCWWREND)
               4 000012D0 00000001     A   21542 21080
 =A(CHKPFMT)
               4 000008BC 00000001     A   18886 17607  17693
 =A(CHKPREAD)
               4 000008C0 00000001     A   18887 17640
 =A(CHRPLEN)
               4 00000864 00000001     A   18864 16512
 =A(CKDSEND)
               4 000012CC 00000001     A   21541 21067
 =A(CKPTDATA)
               4 00000890 00000001     A   18875 17079
 =A(CVNET#*4)
               4 0000085C 00000001     A   18862 16483
 =A(CVPATH#*4)
               4 00000854 00000001     A   18860 16463
 =A(CVPIOSZ*X'10000')
1INIT     (INIT4072) (12:46) (15MAR04) Ordinary Symbol and Literal Cross Reference                                          Page   87
               4 000012BC 00000001     A   21537 20976
 =A(FMTCCWSC)
               4 000012B8 00000001     A   21536 20975
 =A(FMTPFCB)
               4 0000090C 00000001     A   18898 18509
 =A(ICHKERR1)
               4 0000089C 00000001     A   18878 17230
 =A(ICHKERR2)
               4 000008A0 00000001     A   18879 17260
 =A(ICHKERR3)
               4 000008A4 00000001     A   18880 17288
 =A(ICHKERR4)
               4 000008B0 00000001     A   18883 17352
 =A(ICHKERR5)
               4 000008B8 00000001     A   18885 17430
 =A(ICHKTERM)
               4 00000898 00000001     A   18877 17184  18083
 =A(ICMD)      4 00000938 00000001     A   18909 18819
 =A(ICMD)      4 00002CD4 00000001     A   25053 24407  24485
 =A(ICMDMEMB)
               4 00002CE0 00000001     A   25056 24472  24481
 =A(ICMDPARM)
               4 00002CE8 00000001     A   25058 24657
 =A(INITPARM)
               4 00000870 00000001     A   18867 16581
 =A(L'CHKU)
               4 00002168 00000001     A   22858 21713  21872  22345
 =A(L'CVCHKPFX)
               4 000008E4 00000001     A   18892 18014
 =A(L'CVCHKPFX)
               4 00002160 00000001     A   22856 21710  21875  22342
 =A(L'CVCHKSFX)
               4 00002164 00000001     A   22857 21711  21876  22343
 =A(L'ICMD)
               4 00002CDC 00000001     A   25055 24415  24427
 =A(L'ICMDPARM)
               4 00002CF0 00000001     A   25060 24670  24682
 =A(L'JCB)
               4 000008EC 00000001     A   18894 18091
 =A(L'LINE)
               4 00002CA8 00000001     A   25042 23224  23236
 =A(PARMERR)
               4 00002CB0 00000001     A   25044 23316  23407
 =A(RCVYCHK)
               4 00000FDC 00000001     A   20881 19052
 =A(RCVYERR)
               4 00001008 00000001     A   20892 19793
 =A(RCVYINIT)
               4 00000934 00000001     A   18908 18816
 =A(RCVYSET)
               4 00000FD8 00000001     A   20880 19037
 =A(X'00010001')
               4 000008B4 00000001     A   18884 17368
 =A(X'0100FFFF')
               4 000008A8 00000001     A   18881 17308
 =A(X'047000')
               4 00000848 00000001     A   18857 16234
 =A(1)         4 000008E8 00000001     A   18893 18033  18133  18350
 =A(1)         4 00002CE4 00000001     A   25057 24635
1INIT     (INIT4072) (12:46) (15MAR04) Ordinary Symbol and Literal Cross Reference                                          Page   88
 =A(32*1024)
               4 0000084C 00000001     A   18858 16275
 =A(6)         4 00002CC4 00000001     A   25049 24011
 =A(8)         4 000008AC 00000001     A   18882 17344
 =A(80)        4 00002CA4 00000001     A   25041 23197
 =AL2(CVPIOSZ)
               2 0000098E 00000001     R   18918 18253  18464
 =AL2(CVPIOSZ)
               2 000012E0 00000001     R   21546 21224
 =AL2(L'CHKU)
               2 0000096C 00000001     R   18915 17959
 =AL2(L'CHKU)
               2 00001014 00000001     R   20895 19243  20236  20553  20789
 =AL2(L'JCB)
               2 0000096E 00000001     R   18916 18035
 =AL2(PFCBSECM)
               2 00000992 00000001     R   18920 18443
 =AL2(2600)
               2 0000096A 00000001     R   18914 17828
 =AL2(32760)
               2 00002D52 00000001     R   25070 24998
 =C' (N)'      4 00000FF0 00000001     C   20886 19442
 =C' (NR)'
               5 00001045 00000001     C   20901 19477
 =C' '         1 00001043 00000001     C   20899 19326
 =C' is a bad parm.'
              15 00002DAD 00000001     C   25074 24762
 =C' is too large, using '
              21 000021EF 00000001     C   22872 21791
 =C' pages formatted on PAGE'
              24 000012A0 00000001     C   21535 21352
 =C' was logged on'
              14 00001016 00000001     C   20896 19410
 =C'.'         1 00001044 00000001     C   20900 19368  20710
 =C'/'         1 00003109 00000001     C   25877 25734
 =C'#'         1 00003108 00000001     C   25876 25666
 =C'that Active file recovery will be skipped.'
              42 00002D06 00000001     C   25066 24244
 =C'Checkpoint defined on non-dasd device'
              37 0000221B 00000001     C   22874 22587
 =C'Checkpoint device does not support rps'
              38 000021A4 00000001     C   22869 22663
 =C'Checkpoint processing is active.'
              32 00000820 00000001     C   18854 17853
 =C'Checkpoint record formatted.'
              28 00002178 00000001     C   22862 22059
 =C'Checkpoint I/O error.  no checkpointing.'
              40 00002110 00000001     C   22854 22019
 =C'CHEK'      4 00002194 00000001     C   22863 22300
 =C'CHRP'      4 00000868 00000001     C   18865 16546
 =C'Error in parm.'
              14 00002D44 00000001     C   25069 24809
 =C'ENDC'      4 00002198 00000001     C   22864 22327
 =C'Formatting starting.'
              20 000008F0 00000001     C   18895 18188
 =C'FORMAT is now the same as SKIP; which means'
              43 00002D57 00000001     C   25072 24227
 =C'Insufficient storage for JCB''s'
              30 00000970 00000001     C   18917 18069
1INIT     (INIT4072) (12:46) (15MAR04) Ordinary Symbol and Literal Cross Reference                                          Page   89
 =C'JDNGG'
               5 0000104A 00000001     C   20902 19636
 =C'Line '
               5 0000103E 00000001     C   20898 19293
 =C'LTMGQ'
               5 0000104F 00000001     C   20903 19665
 =C'Max session count is'
              20 000008C8 00000001     C   18889 17893
 =C'MAXSES cannot be used without the CFMT option'
              45 000009B9 00000001     C   18929 17170
 =C'MAXSES='
               7 000021E8 00000001     C   22871 21757
 =C'MODE=SKIP assumed.'
              18 00002D30 00000001     C   25067 24278
 =C'No checkpoint processing will be done.'
              38 00000944 00000001     C   18913 17774
 =C'No CHECKPOINT DD found.'
              23 00002204 00000001     C   22873 22511
 =C'NO '       3 00002D54 00000001     C   25071 23904
 =C'OPEN FAILED FOR CHECKPOINT DATA SET'
              35 00002240 00000001     C   22875 22815
 =C'PCJGQ'
               5 00001054 00000001     C   20904 19694
 =C'RLG '      4 00000874 00000001     C   18868 16700
 =C'Specified MAXSES value has been ignored.'
              40 00002138 00000001     C   22855 22408
 =C'Specify "PFORMAT" to format the page files.'
              43 00002D82 00000001     C   25073 24261
 =C'SCIP'      4 00002CBC 00000001     C   25047 23611
 =C'SYSA '
               5 000009A0 00000001     C   18924 16663  18712
 =C'SYSB '
               5 00000996 00000001     C   18922 16598
 =C'SYSC '
               5 000009A5 00000001     C   18925 16737
 =C'SYSD '
               5 000009AA 00000001     C   18926 16774
 =C'SYSF '
               5 000009B4 00000001     C   18928 16848
 =C'SYSG '
               5 0000099B 00000001     C   18923 16626  16885
 =C'SYSH '
               5 000009AF 00000001     C   18927 16811
 =C'TEXT'      4 0000100C 00000001     C   20893 20466
 =C'Unable to recover account '
              26 00001024 00000001     C   20897 20670
 =C'Unexpected return from trkcalc'
              30 000021CA 00000001     C   22870 22739
 =C'WYLBUR'
               6 00002CFE 00000001     C   25064 23455
 =CL4'DATA'
               4 000030E4 00000001     C   25867 25357
 =CL4'EXEC'
               4 000030D4 00000001     C   25863 25339
 =CL4'FLOW'
               4 000030E0 00000001     C   25866 25348
 =CL4'M...'
               4 000030D8 00000001     C   25864 25340  25349  25358  25367  25376
 =CL4'RG16'
1INIT     (INIT4072) (12:46) (15MAR04) Ordinary Symbol and Literal Cross Reference                                          Page   90
               4 000030E8 00000001     C   25868 25366
 =CL4'RG64'
               4 000030EC 00000001     C   25869 25375
 =CL4'TEXT'
               4 00001000 00000001     C   20890 19774
 =CL8'CHRISTA'
               8 00000810 00000001     C   18852 16547  16548
 =CL8'RLG'
               8 00000818 00000001     C   18853 16604
 =CL8'SYSA'
               8 00002C58 00000001     C   25029 24072
 =CL8'SYSB'
               8 00002C60 00000001     C   25030 24075
 =CL8'SYSC'
               8 00002C68 00000001     C   25031 24078
 =CL8'SYSD'
               8 00002C70 00000001     C   25032 24081
 =CL8'SYSF'
               8 00002C80 00000001     C   25034 24087
 =CL8'SYSG'
               8 00002C88 00000001     C   25035 24090
 =CL8'SYSH'
               8 00002C78 00000001     C   25033 24084
 =F'18750'
               4 00000914 00000001     F   18900 18719
 =H'-1'        2 00000940 00000001     H   18911 16443
 =H'1'         2 00002D04 00000001     H   25065 23516
 =H'2'         2 00002CFC 00000001     H   25063 23122
 =H'4'         2 000021A0 00000001     H   22867 22316
 =H'8'         2 000012E2 00000001     H   21547 21252
 =V(AMODE24)
               4 00000908 00000001     V   18897 18472
 =V(AMODE24)
               4 000012C0 00000001     V   21538 20981  21490
 =V(AMODE24)
               4 00002C98 00000001     V   25038 23018  23086  23338
 =V(AMODE31)
               4 00000850 00000001     V   18859 16458  18479
 =V(AMODE31)
               4 000012C4 00000001     V   21539 21013  21505
 =V(AMODE31)
               4 00002C9C 00000001     V   25039 23028  23096  23374
 =V(CALCPGC)
               4 00000910 00000001     V   18899 18681
 =V(CALCTRK)
               4 00000904 00000001     V   18896 18257
 =V(CV)        4 00000840 00000001     V   18855 16194
 =V(CV)        4 00002C90 00000001     V   25036 22902
 =V(DBUGINIT)
               4 0000087C 00000001     V   18870 16927
 =V(DEQUOTE)
               4 00002CD0 00000001     V   25052 24405
 =V(DISKINIT)
               4 00000920 00000001     V   18903 18749
 =V(DISPINIT)
               4 00000924 00000001     V   18904 18753
 =V(EDTCOMMV)
               4 00003104 00000001     V   25875 25798
 =V(FAILINIT)
1INIT     (INIT4072) (12:46) (15MAR04) Ordinary Symbol and Literal Cross Reference                                          Page   91
               4 00000878 00000001     V   18869 16923
 =V(FREECP)
               4 00001010 00000001     V   20894 20837
 =V(FREECP)
               4 00002CC0 00000001     V   25048 23707
 =V(GETCORE)
               4 00000858 00000001     V   18861 16466  16486  16515
 =V(GETCP)
               4 00000FF8 00000001     V   20888 19552
 =V(GETCP)
               4 00002C94 00000001     V   25037 23011
 =V(GETRSC)
               4 00000FE0 00000001     V   20882 19097
 =V(GETRSC)
               4 000030C8 00000001     V   25860 25168
 =V(INITCMD)
               4 000030CC 00000001     V   25861 25217
 =V(INITCP)
               4 000030D0 00000001     V   25862 25221
 =V(INITFUNC)
               4 00000880 00000001     V   18871 16931
 =V(INITPROC)
               4 00000888 00000001     V   18873 16939
 =V(INITRG)
               4 000030DC 00000001     V   25865 25343  25352  25361  25370  25379
 =V(INITSYSV)
               4 00000884 00000001     V   18872 16935
 =V(INITWLOG)
               4 0000088C 00000001     V   18874 16943
 =V(IOWRSG)
               4 00002CB8 00000001     V   25046 23502  24141
 =V(JESINIT)
               4 0000092C 00000001     V   18906 18764
 =V(KIOINIT)
               4 00000918 00000001     V   18901 18741
 =V(LOCALTOD)
               4 00000844 00000001     V   18856 16210
 =V(LRTRIM)
               4 00002CD8 00000001     V   25054 24411  24666
 =V(PFREEA)
               4 000030F0 00000001     V   25870 25386
 =V(PFREEB)
               4 000030F4 00000001     V   25871 25392
 =V(RACCHKOP)
               4 0000086C 00000001     V   18866 16565
 =V(RECOVERY)
               4 00000FFC 00000001     V   20889 19567
 =V(RGRCVY)
               4 00001004 00000001     V   20891 19778
 =V(SCAN)      4 00002CB4 00000001     V   25045 23329  23425
 =V(SCDONE)
               4 00002CF4 00000001     V   25061 24731
 =V(SCINIT)
               4 00002CAC 00000001     V   25043 23314  23405
 =V(SCTELL)
               4 00002CEC 00000001     V   25059 24662
 =V(SEG)       4 00000FE8 00000001     V   20884 19303  19336  19363  19378  19405  19420  19452  19487  20680  20705
                                                 20720  20745
 =V(SEG)       4 000012D8 00000001     V   21544 21362
1INIT     (INIT4072) (12:46) (15MAR04) Ordinary Symbol and Literal Cross Reference                                          Page   92
 =V(SEG)       4 0000216C 00000001     V   22859 21767  21801
 =V(SEG)       4 00002CF8 00000001     V   25062 24757  24772
 =V(SEG)       4 00003100 00000001     V   25874 25678  25746
 =V(SEGB)      4 000008DC 00000001     V   18890 17903
 =V(SEGCLR)
               4 000008C4 00000001     V   18888 17887
 =V(SEGCLR)
               4 00000FE4 00000001     V   20883 19288  20665
 =V(SEGDC)
               4 000008E0 00000001     V   18891 17922
 =V(SEGDC)
               4 00000FEC 00000001     V   20885 19321
 =V(SEGDC)
               4 000012D4 00000001     V   21543 21347  21381
 =V(SEGDC)
               4 00002170 00000001     V   22860 21786  21820
 =V(SEGINIT)
               4 000030F8 00000001     V   25872 25614
 =V(SEGT)      4 000030FC 00000001     V   25873 25642  25706  25774
 =V(SEGWR)
               4 00000894 00000001     V   18876 17180  17784  17863  17945  18079  18198
 =V(SEGWR)
               4 00000FF4 00000001     V   20887 19523  20768
 =V(SEGWR)
               4 000012DC 00000001     V   21545 21404
 =V(SEGWR)
               4 00002174 00000001     V   22861 21843  22029  22069  22418  22521  22597  22673  22749  22825
 =V(SEGWR)
               4 00002CCC 00000001     V   25051 24237  24254  24271  24288  24795  24819
 =V(STARTUP)
               4 0000093C 00000001     V   18910 18846
 =V(STATINIT)
               4 00000928 00000001     V   18905 18757
 =V(SYMINIT)
               4 00000930 00000001     V   18907 18810
 =V(TIMRINIT)
               4 0000091C 00000001     V   18902 18745
 =V(TSEGPLIN)
               4 00000860 00000001     V   18863 16507
 =V(UNPRESS)
               4 00002CA0 00000001     V   25040 23154
 =X'FFFF'      2 00000990 00000001     X   18919 18364
 =X'FFFFFFF8'
               4 00002CC8 00000001     X   25050 24169
 =X'0100'      2 0000219C 00000001     X   22865 21974
 =XL2'0C40'
               2 0000219E 00000001     X   22866 22207
 =Y((L'DVTAREA+3)/4*4)
               2 00000994 00000001     Y   18921 18528
 =Y((R15+1-(R9)+16*((R9)/(R15+1))/((R9)/(R15+1)))*4)
               2 00000942 00000001     Y   18912 17558
 =Y((R15+1-(R9)+16*((R9)/(R15+1))/((R9)/(R15+1)))*4)
               2 000012E4 00000001     Y   21548 21501
 =Y(4)         2 000021A2 00000001     Y   22868 22421
 =Y(4)         2 00002D42 00000001     Y   25068 24300  24477  24800

1INIT     (INIT4072) (12:46) (15MAR04) Macro and Copy Code Source Summary                                                   Page   93
- Con Source                                        Volume    Members                        HLASM R4.0  2004/03/15 12.46
0     PRIMARY INPUT                                           CSECT    DROP     END      EX       LTORG    POP
                                                              PRINT    PUSH     START    USING
   L1 WYL.GS.WYL.WYLBUR.MACLIB                      SYSB05    AINFO    BASE     CHRPARMS COLINFO  CP       CPLOCAL  CV
                                                              CVLOCAL  FAIL     GENTER   GETRSC   JCB      KAPUT
                                                              LENTER   LEXIT    OSCAN    OSCDONE  OSCINIT  OSCKW
                                                              OSCTELL  PFCB     PFREE    RG       RSCGROUP RSCHDR
                                                              SCANCB   SCCBADR  SCCLR    SEGINIT  SETUP    VLTORG
                                                              VOLUME   XENTER   XEXIT    XSA      XTRACE   XWTO
   L2 WYL.GG.SYS.MACLIB                             SYSB05    $BC      $BFLKUP  $BV      $CCLKUP  $CRS     $CSS     $L
                                                              $LA      $LBLAD   $LEXP    $LOR     $REL     $RGLKUP
                                                              $USLKUP  ACALL    BEGIN    CEIL     CLEAR    COMPROC
                                                              CSECT    DATA     DECR     DEFCC    DROP     DTEX     ELSE
                                                              ELSEIF   END      EX       EXIT     FLAG     GEN
                                                              HIBAL    IDENT    IF       INCR     LABEL    LC
                                                              LCALL    LCM      LOOP     LS       LT       LTORG    L2
                                                              MOVE     PEND     POP      PRINT    PROC     PUSH
                                                              QLTORG   RECORD   REG      REGS     SET      SETMSG
                                                              START    ST2      ST3      SYSLR    UNTIL    USING
                                                              VCALL    WHILE    WITH     XPROC    ZOT
   L3 SYS3.IS.MACLIB                                SYSB05    CLRHI    DEFINE   PDB      SEG      SEGB     SEGCB
                                                              SEGCLR   SEGDC    SEGLD    SEGT     SEGWR    SIB
                                                              SYSDEFN  XPOP     XPUSH
   L4 SYS3.MACLIB                                   SYSB02    HASPSERV PATH     PCW      PRIVCHK  RDW      SCIPCVT
                                                              USERCVT
   L5 SYS1.MACLIB                                   MVSBR9    ABEND    CHAP     CLOSE    CVT      DCB      DCBD
                                                              DEVTYPE  EXCP     FREEPOOL GET      GETMAIN  IEFJFCBN
                                                              IEFUCBOB IEZDEB   IEZIOB   IEZJSCB  IHAASCB  IHADVA
                                                              IHAECB   IHBINNRA IHBINNRR IHB01    IKJTCB   MODESET  OPEN
                                                              RDJFCB   SPLEVEL  SYSEVENT SYSSTATE TRKCALC  WAIT     WTO
                                                              WTOR
   L6 SYS1.MODGEN                                   MVSBR9    IECDUCBC IECDUCBD IECDUCBE IECDUCBG IECDUCBT IECDUCBU
                                                              IOSDUCBC

1INIT     (INIT4072) (12:46) (15MAR04) Dsect Cross Reference                                                                Page   94
-Dsect     Length      Id       Defn                                                         HLASM R4.0  2004/03/15 12.46
0$$$@R0   00000000  FFFFFFFE     705
 $$$@R1   00000000  FFFFFFFD     718
 $$$@R10  00000000  FFFFFFF4     835
 $$$@R11  00000000  FFFFFFF3     848
 $$$@R12  00000000  FFFFFFF2     861
 $$$@R13  00000000  FFFFFFF1     874
 $$$@R14  00000000  FFFFFFF0     887
 $$$@R15  00000000  FFFFFFEF     900
 $$$@R2   00000000  FFFFFFFC     731
 $$$@R3   00000000  FFFFFFFB     744
 $$$@R4   00000000  FFFFFFFA     757
 $$$@R5   00000000  FFFFFFF9     770
 $$$@R6   00000000  FFFFFFF8     783
 $$$@R7   00000000  FFFFFFF7     796
 $$$@R8   00000000  FFFFFFF6     809
 $$$@R9   00000000  FFFFFFF5     822
 $$$RCHKU 0000000C  FFFFFFC6   16140
 $$$RCHRPARMS
          0000001C  FFFFFFCD   10881
 $$$RCSETWA
          0000000C  FFFFFFC4   20096
 $$$RCV   00000FB0  FFFFFFCB   10964
 $$$RDEV  0000000C  FFFFFFC8   14446
 $$$RDVTAREA
          00000018  FFFFFFC7   15963
 $$$RICHKPTWA
          00000019  FFFFFFC5   17045
 $$$RINITWA
          00000117  FFFFFFC3   22950
 $$$RJCB  000000D0  FFFFFFEE    1184
 $$$RNSCNCB
          000000B0  FFFFFFCA   12160
 $$$RPATHD
          00000028  FFFFFFE9    1861
 $$$RPCMDWA
          00000127  FFFFFFC2   25417
 $$$RPCWD 00000008  FFFFFFE8    1919
 $$$RPDBD 00000038  FFFFFFEA    1663
 $$$RPFCB 000000A4  FFFFFFED    1464
 $$$RRDWD 00000004  FFFFFFE7    2004
 $$$RRESOURCE
          00000018  FFFFFFEB    1616
 $$$RRSCGROUP
          0000003C  FFFFFFEC    1555
 $$$RUSERCVT
          0000035F  FFFFFFDB    6452
 ASCB     00000180  FFFFFFE6    2144
 CP       00001000  FFFFFFC9   12237
 CVT      00000500  FFFFFFDA    6733
 CVTVSTGX 00000050  FFFFFFD9    7753
 CVTXTNT1 0000000C  FFFFFFD8    7792
 CVTXTNT2 00000084  FFFFFFD7    7800
 DEB      00000058  FFFFFFE2    4819
 DEBACSMD 00000044  FFFFFFE0    5415
 DEBDASD  00000010  FFFFFFE1    5383
1INIT     (INIT4072) (12:46) (15MAR04) Dsect Cross Reference                                                                Page   95
 DEBSUBNM 00000002  FFFFFFDF    5617
 DEBXTN   00000054  FFFFFFDE    5630
 DEB2XTN  000000B8  FFFFFFDD    5828
 ECB      00000004  FFFFFFE5    2769
 HIBAL    00000000  FFFFFFFF     691
 IEZJSCB  0000017C  FFFFFFCE   10633
 IHADCB   00000060  FFFFFFDC    5886
 IOB      00000060  FFFFFFE3    4150
 JFDSECT  000000B0  FFFFFFE4    2964
 TCBFIX   00000178  FFFFFFD6    8021
 TCBXTNT2 00000060  FFFFFFD5    8737
 UCBCMEXT 00000020  FFFFFFD4    9502
 UCBOCR   00000008  FFFFFFD3   10058
 UCBPDCTA 00000010  FFFFFFCF   10209
 UCBUCS   00000014  FFFFFFD0   10167
 UCB3540X 00000008  FFFFFFD2   10074
 UCB3800X 00000028  FFFFFFD1   10104
 VOLDSECT 00000044  FFFFFFCC   10907

1INIT     (INIT4072) (12:46) (15MAR04) Using Map                                                                            Page   96
-                                                                                            HLASM R4.0  2004/03/15 12.46
   Stmt  -----Location----- Action ----------------Using----------------- Reg Max    Last  Label and Using Text
           Count      Id           Type          Value    Range     Id        Disp   Stmt
0   922  00000000  FFFFFFFF USING  ORDINARY    00000000 00001000 FFFFFFEF  15 020   18418  @R15,15
    926  00000000  FFFFFFFF USING  ORDINARY    00000000 00001000 FFFFFFF0  14 002   19560  @R14,14
    930  00000000  FFFFFFFF USING  ORDINARY    00000000 00001000 FFFFFFF1  13 000   25090  @R13,13
    934  00000000  FFFFFFFF USING  ORDINARY    00000000 00001000 FFFFFFF2  12 000          @R12,12
    938  00000000  FFFFFFFF USING  ORDINARY    00000000 00001000 FFFFFFF3  11 000          @R11,11
    942  00000000  FFFFFFFF USING  ORDINARY    00000000 00001000 FFFFFFF4  10 000          @R10,10
    946  00000000  FFFFFFFF USING  ORDINARY    00000000 00001000 FFFFFFF5   9 000          @R9,9
    950  00000000  FFFFFFFF USING  ORDINARY    00000000 00001000 FFFFFFF6   8 000          @R8,8
    954  00000000  FFFFFFFF USING  ORDINARY    00000000 00001000 FFFFFFF7   7 000          @R7,7
    958  00000000  FFFFFFFF USING  ORDINARY    00000000 00001000 FFFFFFF8   6 000          @R6,6
    962  00000000  FFFFFFFF USING  ORDINARY    00000000 00001000 FFFFFFF9   5 000          @R5,5
    966  00000000  FFFFFFFF USING  ORDINARY    00000000 00001000 FFFFFFFA   4 000          @R4,4
    970  00000000  FFFFFFFF USING  ORDINARY    00000000 00001000 FFFFFFFB   3 000          @R3,3
    974  00000000  FFFFFFFF USING  ORDINARY    00000000 00001000 FFFFFFFC   2 00C   16336  @R2,2
    978  00000000  FFFFFFFF USING  ORDINARY    00000000 00001000 FFFFFFFD   1 001   16200  @R1,1
    982  00000000  FFFFFFFF USING  ORDINARY    00000000 00001000 FFFFFFFE   0 000          @R0,0
    983  00000000  FFFFFFFF DROP                                            0              0
   1164  00000017  00000001 USING  ORDINARY    00000000 00001000 FFFFFFC9  11 D5A   11928  CP,CPR
   1173  00000017  00000001 USING  ORDINARY    00000000 00001000 FFFFFFCB  12 E28   25837  CV,CVR
  16192  0000001A  00000001 USING  ORDINARY    0000001A 00001000 00000001   7 99F   18846  $$$42B,7
  16301  000000A6  00000001 USING  ORDINARY    00000000 00001000 FFFFFFDA   5 0C4   16394  CVT,R5
  16347  000000C8  00000001 USING  ORDINARY    00000020 00001000 FFFFFFD6   2 0B4   16379  TCB,R2
  16363  000000D2  00000001 USING  ORDINARY    00000000 00001000 FFFFFFCE   1 0D0   16369  JSCB,R1
  16376  000000D6  00000001 USING  ORDINARY    00000000 00001000 FFFFFFFD   1 010   16408  @R1,1
  16386  000000DE  00000001 USING  ORDINARY    00000000 00001000 FFFFFFFC   2 000   16390  @R2,2
  16421  00000106  00000001 USING  ORDINARY    00000000 00001000 FFFFFFF9   5 000          @R5,5
  16541  00000172  00000001 USING  ORDINARY    00000000 00001000 FFFFFFCD   2 010   16548  CHRPARMS,R2
  16556  00000184  00000001 USING  ORDINARY    00000000 00001000 FFFFFFFC   2 000          @R2,2
  17007  00000296  00000001 USING  ORDINARY    00000020 00001000 FFFFFFD6   1 0A8   17013  TCB,R1
  17020  0000029A  00000001 USING  ORDINARY    00000000 00001000 FFFFFFFD   1 000          @R1,1
  17087  000002B4  00000001 USING  ORDINARY    00000000 00001000 FFFFFFC5   5 018   17795  ICHKPTWA,R5
  17096  000002B4  00000001 USING  ORDINARY    00002268 00001000 00000001   6 0A9   17730  CKPTDATA,R6
  17204  000002F4  00000001 USING  ORDINARY    00000000 00001000 FFFFFFC7   4 003   17375  DVTAREA,R4
  17303  00000334  00000001 DROP                                            3              3
  17307  0000033A  00000001 USING  ORDINARY    00000000 00001000 FFFFFFFB   3 000          @R3,3
  17372  00000392  00000001 DROP                                           11              11
  17376  00000398  00000001 USING  ORDINARY    00000000 00001000 FFFFFFC9  11 CD0   25272  CP,11
  17386  000003A8  00000001 USING  ORDINARY    00000000 00001000 FFFFFFFA   4 000          @R4,4
  17402  000003AC  00000001 USING  ORDINARY    00000000 00001000 FFFFFFDC   4 030   17547  IHADCB,R4
  17459  000003D0  00000001 USING  ORDINARY    00000024 00001000 FFFFFFE2   3 020   17482  DEBBASIC,R3
  17492  000003DC  00000001 USING  ORDINARY    00000000 00001000 FFFFFFE1   2 00E   17508  DEBDASD,R2
  17525  000003EA  00000001 USING  ORDINARY    00000000 00001000 FFFFFFFC   2 000          @R2,2
  17535  000003EA  00000001 USING  ORDINARY    00000000 00001000 FFFFFFFB   3 000          @R3,3
  17565  0000041A  00000001 USING  ORDINARY    00000000 00001000 FFFFFFFA   4 018   21260  @R4,4
  17873  000004E4  00000001 DROP                                            2              2
  17877  000004EA  00000001 USING  ORDINARY    00000000 00001000 FFFFFFFC   2 000          @R2,2
  17954  00000520  00000001 DROP                                            2              2
  17958  00000526  00000001 USING  ORDINARY    00000000 00001000 FFFFFFFC   2 000          @R2,2
  18028  0000055E  00000001 DROP                                            2              2
  18032  00000564  00000001 USING  ORDINARY    00000000 00001000 FFFFFFFC   2 000          @R2,2
  18121  000005BE  00000001 USING  ORDINARY    00000000 00001000 FFFFFFEE   1 0D0   18132  JCB,R1
  18143  000005D2  00000001 USING  ORDINARY    00000000 00001000 FFFFFFFD   1 000          @R1,1
  18153  000005D2  00000001 USING  ORDINARY    00000000 00001000 FFFFFFF9   5 000          @R5,5
1INIT     (INIT4072) (12:46) (15MAR04) Using Map                                                                            Page   97
  18160  000005D2  00000001 USING  ORDINARY    00000000 00001000 FFFFFFF8   6 000          @R6,6
  18213  000005F2  00000001 USING  ORDINARY    00000000 00001000 FFFFFFED   5 0A4   18516  PFCB,R5
  18226  000005F8  00000001 USING  ORDINARY    00000000 00001000 FFFFFFC7   6 003   18506  DVTAREA,R6
  18293  00000650  00000001 USING  ORDINARY    00000024 00001000 FFFFFFE2   2 020   18305  DEBBASIC,R2
  18300  00000650  00000001 DROP                                            3              3
  18304  00000656  00000001 USING  ORDINARY    00000000 00001000 FFFFFFFB   3 008   21225  @R3,3
  18312  0000065A  00000001 USING  ORDINARY    00000000 00001000 FFFFFFFC   2 000          @R2,2
  18324  0000065A  00000001 USING  ORDINARY    00000000 00001000 FFFFFFE1   2 00E   18373  DEBDASD,R2
  18382  0000067A  00000001 USING  ORDINARY    00000000 00001000 FFFFFFFC   2 001   21226  @R2,2
  18525  0000073A  00000001 USING  ORDINARY    00000000 00001000 FFFFFFF9   5 000          @R5,5
  18535  0000073E  00000001 USING  ORDINARY    00000000 00001000 FFFFFFF8   6 000          @R6,6
  18562  00000744  00000001 USING  ORDINARY    00000000 00001000 FFFFFFED   5 0A4   18567  PFCB,R5
  18593  00000754  00000001 USING  ORDINARY    00000000 00001000 FFFFFFF9   5 000          @R5,5
  18958  00000A00  00000001 USING  ORDINARY    00000000 00001000 FFFFFFF7   7 000          @R7,7
  18961  00000A00  00000001 USING  ORDINARY    00000A00 00001000 00000001   7 5E0   19141  $$$107B,BR
  18985  00000A0C  00000001 DROP                                            1              1
  18989  00000A12  00000001 USING  ORDINARY    00000000 00001000 FFFFFFFD   1 000   20466  @R1,1
  19025  00000A2A  00000001 USING  ORDINARY    00000000 00001000 FFFFFFEE   6 0D0   19111  JCB,JCBR
  19138  00000A72  00000001 USING  ORDINARY    00000000 00001000 FFFFFFF8   6 000          @R6,6
  19171  00000A90  00000001 USING  ORDINARY    00000000 00001000 FFFFFFF7   7 000          @R7,7
  19218  00000AAA  00000001 USING  ORDINARY    00000AAA 00001000 00000001   7 5AA   19793  $$$115B,7
  19237  00000AAE  00000001 USING  ORDINARY    00000000 00001000 FFFFFFEE   6 062   19571  JCB,R6
  19254  00000ABA  00000001 USING  ORDINARY    00000000 00001000 FFFFFFC6   5 008   19773  CHKU,R5
  19816  00000C5A  00000001 USING  ORDINARY    00000000 00001000 FFFFFFF9   5 000          @R5,5
  19821  00000C5A  00000001 USING  ORDINARY    00000000 00001000 FFFFFFF8   6 000          @R6,6
  19826  00000C5A  00000001 USING  ORDINARY    00000000 00001000 FFFFFFF7   7 000          @R7,7
  19870  00000C82  00000001 USING  ORDINARY    00000C82 00001000 00000001   7 28A   20070  $$$129B,BR
  20088  00000DB2  00000001 USING  ORDINARY    00000000 00001000 FFFFFFF7   7 000          @R7,7
  20151  00000DD6  00000001 USING  ORDINARY    00000DD6 00001000 00000001   7 23E   20355  $$$136B,7
  20165  00000DD6  00000001 USING  ORDINARY    FFFFFFD8 00001000 FFFFFFC4   8 028   20244  CSETWA-(4+36),R8
  20179  00000DDA  00000001 USING  ORDINARY    00000000 00001000 FFFFFFEE   5 048   20185  JCB,R5
  20192  00000DDE  00000001 USING  ORDINARY    00000000 00001000 FFFFFFF9   5 000   20360  @R5,5
  20254  00000E12  00000001 USING  ORDINARY    00000000 00001000 FFFFFFC6   6 008   20360  CHKU,R6
  20378  00000E62  00000001 USING  ORDINARY    00000000 00001000 FFFFFFF8   6 000          @R6,6
  20383  00000E62  00000001 USING  ORDINARY    00000000 00001000 FFFFFFF6   8 000          @R8,8
  20388  00000E62  00000001 USING  ORDINARY    00000000 00001000 FFFFFFF7   7 000          @R7,7
  20446  00000E8A  00000001 USING  ORDINARY    00000E8A 00001000 00000001   7 18A   20583  $$$145B,7
  20496  00000EB0  00000001 USING  ORDINARY    00000000 00001000 FFFFFFEE   5 048   20502  JCB,R5
  20509  00000EB4  00000001 USING  ORDINARY    00000000 00001000 FFFFFFF9   5 000          @R5,5
  20566  00000EE4  00000001 USING  ORDINARY    00000000 00001000 FFFFFFC6   5 008   20588  CHKU,R5
  20610  00000EFE  00000001 USING  ORDINARY    00000000 00001000 FFFFFFF9   5 000   20791  @R5,5
  20615  00000EFE  00000001 USING  ORDINARY    00000000 00001000 FFFFFFF7   7 000          @R7,7
  20651  00000F26  00000001 USING  ORDINARY    00000F26 00001000 00000001   7 11E   20837  $$$151B,BR
  20783  00000F88  00000001 USING  ORDINARY    00000000 00001000 FFFFFFEE   6 062   20847  JCB,R6
  20858  00000FCA  00000001 USING  ORDINARY    00000000 00001000 FFFFFFF8   6 000          @R6,6
  20870  00000FD6  00000001 USING  ORDINARY    00000000 00001000 FFFFFFF7   7 000          @R7,7
  20936  00001074  00000001 USING  ORDINARY    00001074 00001000 00000001   7 7BC   21404  $$$153B,BR
  20946  00001076  00000001 USING  ORDINARY    00000000 00001000 FFFFFFED   5 09C   21368  PFCB,R5
  20957  00001078  00000001 USING  ORDINARY    00000000 00001000 FFFFFFC7   6 003   20978  DVTAREA,R6
  20994  000010A0  00000001 USING  ORDINARY    00000000 00001000 FFFFFFDA  15 0E8   21000  CVT,R15
  21007  000010A4  00000001 USING  ORDINARY    00000000 00001000 FFFFFFEF  15 002   21188  @R15,15
  21141  00001114  00000001 USING  ORDINARY    00000000 00001000 FFFFFFE1   1 000   21162  DEBDASD,R1
  21177  0000111C  00000001 USING  ORDINARY    00000000 00001000 FFFFFFFD   1 000          @R1,1
  21210  00001170  00000001 DROP                                           15              15
  21214  00001176  00000001 USING  ORDINARY    00000000 00001000 FFFFFFEF  15 01C   21497  @R15,15
  21421  0000122C  00000001 USING  ORDINARY    00000000 00001000 FFFFFFF9   5 000          @R5,5
  21428  0000122C  00000001 USING  ORDINARY    00000000 00001000 FFFFFFF8   6 000          @R6,6
  21434  0000122C  00000001 USING  ORDINARY    00000000 00001000 FFFFFFF7   7 000          @R7,7
  21459  00001246  00000001 USING  ORDINARY    00001246 00001000 00000001   7 0A2   21505  $$$170B,BR
1INIT     (INIT4072) (12:46) (15MAR04) Using Map                                                                            Page   98
  21470  00001246  00000001 USING  ORDINARY    00000000 00001000 FFFFFFED   5 070   21485  PFCB,R5
  21513  0000128E  00000001 USING  ORDINARY    00000000 00001000 FFFFFFF9   5 04C   23268  @R5,5
  21525  0000129A  00000001 USING  ORDINARY    00000000 00001000 FFFFFFF7   7 000          @R7,7
  21695  00001D22  00000001 USING  ORDINARY    00001D22 00001000 00000001   7 6A6   22069  $$$172B,7
  21733  00001D42  00000001 DROP                                            2              2
  21737  00001D48  00000001 USING  ORDINARY    00000000 00001000 FFFFFFFC   2 000          @R2,2
  21889  00001DC0  00000001 USING  ORDINARY    00000000 00001000 FFFFFFE4   2 000          JFDSECT,R2
  21910  00001DD6  00000001 DROP                                            1              1
  21914  00001DDC  00000001 USING  ORDINARY    00000000 00001000 FFFFFFFD   1 006   21975  @R1,1
  21931  00001DEE  00000001 USING  ORDINARY    00000000 00001000 FFFFFFFC   2 000   24714  @R2,2
  21943  00001DFE  00000001 DROP                                           15              15
  21947  00001E04  00000001 USING  ORDINARY    00000000 00001000 FFFFFFEF  15 000          @R15,15
  21979  00001E44  00000001 DROP                                            1              1
  21983  00001E4A  00000001 USING  ORDINARY    00000000 00001000 FFFFFFFD   1 000          @R1,1
  22085  00001E9A  00000001 USING  ORDINARY    00000000 00001000 FFFFFFF7   7 000          @R7,7
  22134  00001EC2  00000001 USING  ORDINARY    00001EC2 00001000 00000001   7 434   22421  $$$180B,7
  22258  00001F2C  00000001 DROP                                            1              1
  22262  00001F32  00000001 USING  ORDINARY    00000000 00001000 FFFFFFFD   1 003   23115  @R1,1
  22448  00001FD8  00000001 USING  ORDINARY    00000000 00001000 FFFFFFF7   7 000          @R7,7
  22497  00002006  00000001 USING  ORDINARY    00002006 00001000 00000001   7 1FE   22521  $$$193B,7
  22529  00002018  00000001 USING  ORDINARY    00000000 00001000 FFFFFFF7   7 000          @R7,7
  22573  00002040  00000001 USING  ORDINARY    00002040 00001000 00000001   7 1DB   22597  $$$196B,7
  22605  00002052  00000001 USING  ORDINARY    00000000 00001000 FFFFFFF7   7 000          @R7,7
  22649  0000207A  00000001 USING  ORDINARY    0000207A 00001000 00000001   7 12A   22673  $$$199B,7
  22681  0000208C  00000001 USING  ORDINARY    00000000 00001000 FFFFFFF7   7 000          @R7,7
  22725  000020B4  00000001 USING  ORDINARY    000020B4 00001000 00000001   7 116   22749  $$$202B,7
  22757  000020C6  00000001 USING  ORDINARY    00000000 00001000 FFFFFFF7   7 000          @R7,7
  22801  000020EE  00000001 USING  ORDINARY    000020EE 00001000 00000001   7 152   22825  $$$205B,7
  22833  00002100  00000001 USING  ORDINARY    00000000 00001000 FFFFFFF7   7 000          @R7,7
  22895  000023D0  00000001 USING  ORDINARY    000023D0 00001000 00000001  15 8C0   22902  CHECKABN,R15
  22919  000023E6  00000001 USING  ORDINARY    00000000 00001000 FFFFFFEF  15 000          @R15,15
  22997  00002400  00000001 USING  ORDINARY    00002400 00001000 00000001   7 9CA   24838  $$$207B,BR
  23006  00002400  00000001 USING  ORDINARY    00000000 00001000 FFFFFFC3   8 02C   23298  INITWA,WAR
  23056  00002428  00000001 USING  ORDINARY    00000000 00001000 FFFFFFDC   6 052   23183  DCB,R6
  23159  00002490  00000001 DROP                                           15              15
  23163  00002496  00000001 USING  ORDINARY    00000000 00001000 FFFFFFEF  15 007   24482  @R15,15
  23381  00002562  00000001 USING  ORDINARY    00000000 00001000 FFFFFFF8   6 000          @R6,6
  23512  000025B4  00000001 USING  ORDINARY    00000000 00001000 FFFFFFEC   1 00C   23516  RSCGROUP,R1
  23522  000025BA  00000001 USING  ORDINARY    00000000 00001000 FFFFFFFD   1 003   24040  @R1,1
  23567  000025CA  00000001 USING  ORDINARY    00000000 00001000 FFFFFFDA   5 0CC   23574  CVT,R5
  23596  000025D4  00000001 USING  ORDINARY    00000000 00001000 FFFFFFDB   4 074   23662  USERCVT,R4
  23692  00002602  00000001 USING  ORDINARY    00000000 00001000 FFFFFFFA   4 000          @R4,4
  23702  00002602  00000001 USING  ORDINARY    00000000 00001000 FFFFFFF9   5 000          @R5,5
  24151  0000299A  00000001 USING  ORDINARY    00000000 00001000 FFFFFFEC   1 00C   24157  RSCGROUP,R1
  24164  0000299E  00000001 USING  ORDINARY    00000000 00001000 FFFFFFFD   1 000   24714  @R1,1
  24846  00002BBA  00000001 USING  ORDINARY    00000000 00001000 FFFFFFF6   8 000          @R8,8
  24852  00002BBA  00000001 USING  ORDINARY    00000000 00001000 FFFFFFF7   7 000          @R7,7
  24919  00002C20  00000001 USING  ORDINARY    00000000 00001000 FFFFFFDC   1 052   24998  DCB,R1
  24930  00002C20  00000001 USING  ORDINARY    00002C20 00001000 00000001  15 132   24998  $$$251B,R15
  25014  00002C52  00000001 USING  ORDINARY    00000000 00001000 FFFFFFEF  15 000          @R15,15
  25019  00002C52  00000001 USING  ORDINARY    00000000 00001000 FFFFFFFD   1 000          @R1,1
  25105  00002DEA  00000001 USING  ORDINARY    00002DEA 00001000 00000001   7 2DE   25168  $$$256B,BR
  25124  00002DF8  00000001 USING  ORDINARY    00000000 00001000 FFFFFFEE   6 060   25135  JCB,JCBR
  25176  00002E1E  00000001 USING  ORDINARY    00000000 00001000 FFFFFFF8   6 000          @R6,6
  25188  00002E2A  00000001 USING  ORDINARY    00000000 00001000 FFFFFFF7   7 000          @R7,7
  25212  00002E38  00000001 USING  ORDINARY    00002E38 00001000 00000001   7 298   25277  $$$257B,R7
  25245  00002E52  00000001 USING  ORDINARY    00000000 00001000 FFFFFFEE  15 04A   25251  JCB,R15
  25258  00002E58  00000001 USING  ORDINARY    00000000 00001000 FFFFFFEF  15 000          @R15,15
  25285  00002E64  00000001 USING  ORDINARY    00000000 00001000 FFFFFFF7   7 000          @R7,7
1INIT     (INIT4072) (12:46) (15MAR04) Using Map                                                                            Page   99
  25324  00002E7E  00000001 USING  ORDINARY    00002E7E 00001000 00000001   7 276   25392  $$$259B,7
  25400  00002EF8  00000001 USING  ORDINARY    00000000 00001000 FFFFFFF7   7 000          @R7,7
  25548  00002F18  00000001 USING  ORDINARY    00002F18 00001000 00000001   7 1F1   25798  $$$269B,R7
  25557  00002F18  00000001 USING  ORDINARY    00000000 00001000 FFFFFFC2   8 100   25795  PCMDWA,WAR
  25817  00002FC4  00000001 USING  ORDINARY    00000000 00001000 FFFFFFEE   6 062   25828  JCB,JCBR
  25835  00002FC8  00000001 USING  ORDINARY    00000000 00001000 FFFFFFF8   6 000          @R6,6
  25843  00002FCC  00000001 USING  ORDINARY    00000000 00001000 FFFFFFF7   7 000          @R7,7

1         (INIT4072) (12:46) (15MAR04) General Purpose Register Cross Reference                                             Page  100
- Register  References (M=modified, B=branch, U=USING, D=DROP, N=index)                      HLASM R4.0  2004/03/15 12.46
0    0(0)      982U   983D 11884  11952M 11952  11953M 16212  16219M 16219  16252M 16259M 16274M 16275M 16284M 16450M
             16451M 16451  16463M 16479  16481M 16483M 16499  16501M 16512M 16529  16531M 16920M 16968  17171M 17211M
             17212M 17212  17317  17367  17368M 17380M 17546M 17546  17575M 17575  17576M 17775M 17854M 17894M 17913M
             17913  17936M 17936  17962M 17995M 18011M 18016M 18046M 18070M 18090M 18091M 18092M 18093  18094M 18100M
             18104M 18104  18125  18133M 18189M 18231M 18232M 18232  18253M 18275M 18275  18280  18384M 18464M 18465M
             18467M 18474  18476M 18481M 18981M 18994M 19093M 19103M 19104M 19105  19201  19294M 19312M 19312  19327M
             19354M 19369M 19396M 19411M 19443M 19478M 19514M 19514  19773M 19834M 19928M 20133  20228  20396M 20429
             20475  20545  20582  20588  20623M 20671M 20696M 20711M 20736M 20759M 20759  20976M 20983  21010M 21268M
             21293  21338M 21338  21353M 21372M 21372  21395M 21395  21478M 21478  21481M 21482M 21484M 21678  21708M
             21708  21709M 21710M 21711M 21712M 21713M 21758M 21777M 21777  21792M 21811M 21811  21834M 21834  21872M
             21936M 21938M 21952M 21955M 21957M 21993M 22020M 22060M 22093M 22117  22165M 22231M 22231  22232M 22241M
             22241  22263  22313M 22313  22314M 22315  22340M 22340  22341M 22342M 22343M 22344M 22345M 22354M 22354
             22383M 22383  22384M 22394  22409M 22435M 22437M 22456M 22480  22512M 22537M 22556  22588M 22613M 22632
             22664M 22689M 22708  22740M 22765M 22784  22816M 22841M 22901  22911M 23183M 23197  23217M 23224  23236M
             23241  23363M 23368M 23389M 24011  24228M 24245M 24262M 24279M 24415  24427M 24432  24635  24670  24682M
             24687  24763M 24786M 24786  24810M 25164M 25307  25338M 25347M 25356M 25365M 25374M 25408M 25603M 25631M
             25667M 25695M 25735M 25763M 25795M
     1(1)      978U 11884  11947M 11948M 11954M 16212  16224M 16234M 16250M 16250  16262M 16264  16278M 16280  16281M
             16282  16287M 16289  16290M 16291  16353M 16363U 16376U 16394M 16395M 16395  16449M 16449  16468  16474
             16480M 16480  16481M 16488  16494  16500M 16500  16501M 16517  16518  16524  16530M 16530  16531M 16968
             16981M 16983M 16983  16985M 17007U 17020U 17025M 17027M 17027  17170M 17210M 17317  17318M 17326  17327
             17331M 17367  17380M 17408M 17547M 17579M 17581  17583  17585  17774M 17803M 17853M 17893M 17909M 17965M
             17967  17988  17994M 17994  17995M 18011  18012M 18015  18016M 18048M 18048  18069M 18089  18092  18094
             18095M 18100M 18105M 18121U 18132M 18143U 18188M 18230M 18254M 18259  18264M 18266N 18267  18332M 18332
             18373M 18384M 18385  18394M 18394  18403M 18405N 18406  18462M 18463  18466M 18467  18474  18476M 18481
             18482  18505M 18985D 18987M 18987  18988M 18989U 18994M 19087M 19201  19293M 19308M 19326M 19347M 19368M
             19389M 19410M 19442M 19477M 19554M 19555  19774M 19834M 19911M 19930M 20025M 20035M 20045M 20055M 20133
             20228  20396M 20429  20475  20545  20623M 20670M 20691M 20710M 20731M 20938  20983  21010M 21019M 21020
             21043M 21086M 21130M 21131M 21131  21141U 21177U 21263M 21270M 21293  21334M 21352M 21368M 21480M 21481M
             21483M 21484  21485M 21486M 21486  21678  21712M 21713M 21747  21753  21757M 21773M 21791M 21807M 21845M
             21861M 21872M 21875M 21876M 21896M 21903M 21910D 21912M 21912  21913M 21914U 21921M 21937M 21938M 21951M
             21951  21952M 21956M 21957M 21966M 21967  21970M 21972  21979D 21981M 21981  21982M 21983U 21988M 21995M
             22019M 22059M 22093M 22117  22150M 22151  22154M 22156  22160M 22167M 22258D 22260M 22260  22261M 22262U
             22263M 22344M 22345M 22394  22401  22408M 22422M 22436M 22437M 22456M 22480  22511M 22537M 22556  22587M
             22613M 22632  22663M 22689M 22708  22739M 22765M 22784  22815M 22841M 22901  22911M 23022M 23090M 23092
             23098  23151M 23288M 23326M 23342M 23348M 23349  23352  23358  23360M 23360  23361M 23363M 23364M 23364
             23367M 23367  23368  23369M 23390M 23422M 23502M 23512U 23522U 24141M 24151U 24164U 24227M 24244M 24261M
             24278M 24762M 24809M 24919U 25019U 25158M 25307  25339M 25348M 25357M 25366M 25375M 25408M 25598M 25626M
             25666M 25690M 25734M 25758M 25790M
     2(2)      974U 11884  16334M 16336M 16337  16347U 16379M 16386U 16518M 16541U 16556U 16968  17308M 17317  17327
             17331M 17367  17369M 17380M 17482M 17492U 17525U 17548M 17873D 17875M 17875  17876M 17877U 17909  17954D
             17956M 17956  17957M 17958U 17959M 17962  17993  18012  18028D 18030M 18030  18031M 18032U 18033M 18034
             18137M 18261M 18266  18283M 18293U 18305M 18312U 18324U 18374M 18374  18382U 18400M 18405  18460M 18461M
             18463M 18474  18476M 18482M 18544M 18544  18566M 18607M 18607  18819M 18945  19164M 19201  19834M 19857
             20080M 20133  20228  20396M 20429  20475  20545  20623M 20638  20863M 20923  20977M 20978M 20983  21010M
             21022M 21037  21043  21086  21226M 21238  21293  21314M 21324M 21324  21334  21413M 21446  21487M 21518M
             21678  21733D 21735M 21735  21736M 21737U 21747  21773  21861  21879M 21889U 21931U 22093M 22117  22289M
             22315M 22316M 22456M 22480  22537M 22556  22613M 22632  22689M 22708  22765M 22784  22841M 22901  22911M
             22984  23713M 24407M 24472M 24481M 24485M 24657M 25092  25181M 25307  25340M 25349M 25358M 25367M 25376M
             25408M
     3(3)      970U 11884  16968  17303D 17305M 17305  17306M 17307U 17317  17326  17331M 17367  17380M 17449M 17459U
             17535U 17552M 17556  18034M 18035M 18046  18090  18095  18300D 18302M 18302  18303M 18304U 18350  18375M
             18474  18476M 18945  19164M 19201  19834M 19857  20080M 20133  20228  20396M 20429  20475  20545  20623M
             20638  20863M 20923  20983  21010M 21050M 21067  21181  21182M 21205  21225M 21293  21413M 21446  21495M
             21499  21518M 21678  21753M 21807  21845  22093M 22117  22456M 22480  22537M 22556  22613M 22632  22689M
1         (INIT4072) (12:46) (15MAR04) General Purpose Register Cross Reference                                             Page  101
             22708  22765M 22784  22841M 22901  22911M 22984  23713M 25092  25181M 25307  25408M
     4(4)      966U 11884  16968  17194M 17204U 17317  17331M 17367  17380M 17386U 17392M 17402U 17565U 18442M 18443
             18474  18476M 18483M 18945  19164M 19201  19259M 19718M 19718  19795M 19809  19834M 19857  20080M 20133
             20228  20396M 20429  20475  20545  20623M 20638  20863M 20923  20983  21010M 21051M 21080  21195M 21206M
             21252M 21293  21413M 21446  21518M 21678  22093M 22117  22456M 22480  22537M 22556  22613M 22632  22689M
             22708  22765M 22784  22841M 22901  22911M 22984  23064M 23064  23067  23069M 23078M 23078  23115M 23119
             23121M 23122M 23166M 23298  23574M 23575M 23575  23713M 25092  25181M 25307  25408M
     5(5)      962U 11884  16293M 16301U 16421U 16968  17077M 17087U 17317  17331M 17367  17380M 18153U 18163  18205M
             18213U 18474  18476M 18516M 18517  18525U 18546M 18562U 18567M 18579  18593U 18945  19164M 19201  19242M
             19243M 19244M 19254U 19816U 19834M 19857  20080M 20133  20169M 20179U 20192U 20228  20238M 20239M 20335
             20396M 20429  20475  20486M 20496U 20509U 20545  20555M 20556M 20566U 20610U 20623M 20638  20788M 20789M
             20790M 20863M 20923  20938M 20946U 20983  21010M 21293  21413M 21421U 21446  21470U 21513U 21518M 21678
             22093M 22117  22456M 22480  22537M 22556  22613M 22632  22689M 22708  22765M 22784  22841M 22901  22911M
             22984  23066M 23066  23067  23069M 23098M 23124M 23150  23165M 23298  23557M 23567U 23702U 23713M 25092
             25181M 25307  25408M
     6(6)      958U 11884  16968  17079M 17096U 17317  17331M 17367  17380M 18160U 18217M 18226U 18474  18476M 18535U
             18945  19009M 19025U 19029  19078  19111M 19127  19138U 19164M 19201  19227M 19237U 19821U 19834M 19857
             20080M 20133  20228  20244M 20254U 20378U 20396M 20429  20475  20545  20623M 20638  20773M 20783U 20858U
             20863M 20923  20949M 20957U 20983  21010M 21293  21413M 21428U 21446  21518M 21678  22093M 22117  22456M
             22480  22537M 22556  22613M 22632  22689M 22708  22765M 22784  22841M 22901  22911M 22984  23046M 23056U
             23381U 23412M 23412  23713M 24829M 24829  25092  25115M 25124U 25149  25176U 25181M 25307  25408M 25808M
             25817U 25835U
     7(7)      954U 11877M 11877  11878B 11884  11890B 16182M 16192U 16968  17317  17331M 17367  17380M 18474  18476M
             18945  18948M 18958U 18961U 19164M 19171U 19201  19206M 19218U 19826U 19834M 19857  19860M 19870U 20080M
             20088U 20133  20139M 20151U 20228  20388U 20396M 20429  20434M 20446U 20475  20545  20615U 20623M 20638
             20641M 20651U 20863M 20870U 20923  20926M 20936U 20983  21010M 21293  21413M 21434U 21446  21449M 21459U
             21518M 21525U 21678  21683M 21695U 22085U 22093M 22117  22122M 22134U 22448U 22456M 22480  22485M 22497U
             22529U 22537M 22556  22561M 22573U 22605U 22613M 22632  22637M 22649U 22681U 22689M 22708  22713M 22725U
             22757U 22765M 22784  22789M 22801U 22833U 22841M 22901  22911M 22984  22987M 22997U 23713M 24852U 25092
             25095M 25105U 25181M 25188U 25202M 25212U 25285U 25307  25312M 25324U 25400U 25408M 25538M 25548U 25843U
     8(8)      950U 11884  16266M 16267  16968  17317  17331M 17367  17380M 18474  18476M 18945  18946M 19162  19164M
             19201  19202M 19830  19834M 19857  19858M 20078  20080M 20133  20135M 20165U 20228  20383U 20392  20396M
             20429  20430M 20475  20545  20619  20623M 20638  20639M 20861  20863M 20923  20924M 20983  21010M 21293
             21411  21413M 21446  21447M 21516  21518M 21678  21679M 22089  22093M 22117  22118M 22452  22456M 22480
             22481M 22533  22537M 22556  22557M 22609  22613M 22632  22633M 22685  22689M 22708  22709M 22761  22765M
             22784  22785M 22837  22841M 22901  22911M 22984  22985M 23006U 23711  23713M 24846U 25092  25093M 25179
             25181M 25201M 25307  25308M 25404  25408M 25535M 25557U
     9(9)      946U 11884  16968  17317  17331M 17367  17380M 17550  17559M 18474  18476M 20228  20475  20545  20983
             21010M 21293  21493  21502M 22901  22911M
    10(A)      942U 11884  16968  17317  17331M 17367  17380M 17550  17559M 18474  18476M 20228  20475  20545  20983
             21010M 21293  21493  21502M 22901  22911M
    11(B)      938U  1164U  7148B  7149B 11884  16198M 16198  16968  17317  17331M 17367  17372D 17374M 17374  17375M
             17376U 17380M 17550  17559M 18474  18476M 19033M 19033  19147M 19147  19565  19568  20228  20475  20545
             20822M 20823M 20823  20842M 20842  20847  20983  21010M 21293  21493  21502M 22901  22911M
    12(C)      934U  1173U 11884  16194M 16968  17317  17331M 17367  17380M 17550  17559M 18474  18476M 19569  20228
             20475  20545  20983  21010M 21293  21493  21502M 22901  22902M 22911M
    13(D)      930U 11884  16224  16232  16267M 16968  17077  17078M 17078  17317  17331  17332  17367  17380M 17550
             17550  17551M 17551  17552  17556M 17558M 17559M 17559  18163M 18217  18218M 18218  18474  18476M 18528M
             18945  18946  18947M 18947  19162M 19163  19164  19198  19201  19202  19203M 19203  19830M 19834  19836
             19857  19858  19859M 19859  20078M 20079  20080  20130  20133  20135  20136M 20136  20228  20392M 20396
             20398  20426  20429  20430  20431M 20431  20475  20545  20619M 20623  20625  20638  20639  20640M 20640
             20861M 20862  20863  20923  20924  20925M 20925  20983  21010M 21293  21411M 21412  21413  21446  21447
             21448M 21448  21493  21493  21494M 21494  21495  21499M 21501M 21502M 21502  21516M 21517  21518  21675
             21678  21679  21680M 21680  22089M 22093  22095  22114  22117  22118  22119M 22119  22401  22402M 22402
             22421M 22422  22452M 22456  22458  22477  22480  22481  22482M 22482  22533M 22537  22539  22553  22556
             22557  22558M 22558  22609M 22613  22615  22629  22632  22633  22634M 22634  22685M 22689  22691  22705
             22708  22709  22710M 22710  22761M 22765  22767  22781  22784  22785  22786M 22786  22837M 22841  22843
             22901  22911M 22984  22985  22986M 22986  23711M 23712  23713  24220  24221M 24221  24300M 24301  24401
             24402M 24402  24477M 24478  24736  24737M 24737  24800M 24801  25092  25093  25094M 25094  25179M 25180
1         (INIT4072) (12:46) (15MAR04) General Purpose Register Cross Reference                                             Page  102
             25181  25201  25304  25307  25308  25309M 25309  25404M 25408  25410  25535  25537M 25537
    14(E)      926U 11884  11885M 11899  11900M 11901B 11903M 11904B 11924M 11925B 11929M 11930B 11932M 11933B 11935M
             11936B 11938M 11939B 11941M 11942M 11942B 11948  16199  16210M 16211M 16211B 16458M 16459M 16459B 16466M
             16467M 16467B 16474M 16481M 16486M 16487M 16487B 16494M 16501M 16507M 16508M 16508B 16515M 16516M 16516B
             16524M 16531M 16565M 16566M 16566B 16581M 16582M 16582B 16923M 16924M 16924B 16927M 16928M 16928B 16931M
             16932M 16932B 16935M 16936M 16936B 16939M 16940M 16940B 16943M 16944M 16944B 16968  16969M 17180M 17181M
             17181B 17184M 17185M 17185B 17230M 17231M 17231B 17260M 17261M 17261B 17288M 17289M 17289B 17317  17330M
             17332M 17352M 17353M 17353B 17367  17379M 17380M 17430M 17431M 17431B 17550  17555M 17559M 17607M 17608M
             17608B 17640M 17641M 17641B 17693M 17694M 17694B 17784M 17785M 17785B 17863M 17864M 17864B 17887M 17888M
             17888B 17903M 17904M 17904B 17922M 17923M 17923B 17945M 17946M 17946B 17988M 17995M 18013M 18014M 18016M
             18079M 18080M 18080B 18083M 18084M 18084B 18100M 18198M 18199M 18199B 18257M 18258M 18258B 18472M 18473M
             18473B 18474  18475M 18476M 18479M 18480M 18480B 18509M 18510M 18510B 18681M 18682M 18682B 18741M 18742M
             18742B 18745M 18746M 18746B 18749M 18750M 18750B 18753M 18754M 18754B 18757M 18758M 18758B 18764M 18765M
             18765B 18810M 18811M 18811B 18816M 18817M 18817B 18846M 18847M 18847B 18943  18994M 19037M 19038M 19038B
             19052M 19053M 19053B 19097M 19098M 19098B 19163M 19165B 19198  19288M 19289M 19289B 19303M 19304M 19304B
             19321M 19322M 19322B 19336M 19337M 19337B 19363M 19364M 19364B 19378M 19379M 19379B 19405M 19406M 19406B
             19420M 19421M 19421B 19452M 19453M 19453B 19487M 19488M 19488B 19523M 19524M 19524B 19552M 19553M 19553B
             19559M 19564M 19564  19778M 19779M 19779B 19793M 19794M 19794B 19836M 19839B 19855  20070M 20079M 20082B
             20130  20228  20229M 20398M 20401B 20426  20475  20476M 20545  20546M 20625M 20628B 20636  20665M 20666M
             20666B 20680M 20681M 20681B 20705M 20706M 20706B 20720M 20721M 20721B 20745M 20746M 20746B 20768M 20769M
             20769B 20837M 20838M 20838B 20862M 20864B 20921  20981M 20982M 20982B 20983  21009M 21010M 21013M 21014M
             21014B 21046M 21047M 21047B 21089M 21090M 21090B 21293  21294M 21347M 21348M 21348B 21362M 21363M 21363B
             21381M 21382M 21382B 21404M 21405M 21405B 21412M 21414B 21444  21490M 21491M 21491B 21493  21498M 21502M
             21505M 21506M 21506B 21517M 21519B 21675  21767M 21768M 21768B 21786M 21787M 21787B 21801M 21802M 21802B
             21820M 21821M 21821B 21843M 21844M 21844B 21934M 21938M 21952M 21957M 22029M 22030M 22030B 22069M 22070M
             22070B 22095M 22098B 22114  22418M 22419M 22419B 22433M 22437M 22458M 22461B 22464M 22465B 22477  22521M
             22522M 22522B 22539M 22542B 22553  22597M 22598M 22598B 22615M 22618B 22629  22673M 22674M 22674B 22691M
             22694B 22705  22749M 22750M 22750B 22767M 22770B 22781  22825M 22826M 22826B 22843M 22846B 22901  22911M
             22912B 22982  23011M 23012M 23012B 23018M 23019M 23019B 23028M 23029M 23029B 23086M 23087M 23087B 23093M
             23096M 23097M 23097B 23154M 23155M 23155B 23314M 23315M 23315B 23329M 23330M 23330B 23338M 23339M 23339B
             23353M 23354M 23354  23359M 23359  23362M 23363  23374M 23375M 23375B 23405M 23406M 23406B 23425M 23426M
             23426B 23707M 23708M 23708B 23712M 23714B 23861B 23881B 23885B 23927B 23949B 23965B 23981B 23997B 24041B
             24051B 24061B 24070B 24073B 24076B 24079B 24082B 24085B 24088B 24091B 24100B 24110B 24120B 24129B 24132B
             24166B 24171B 24180B 24189B 24194B 24204B 24207B 24216B 24220  24237M 24238M 24238B 24254M 24255M 24255B
             24271M 24272M 24272B 24288M 24289M 24289B 24301M 24302B 24326B 24342B 24351B 24360B 24370B 24379B 24388B
             24397B 24401  24405M 24406M 24406B 24411M 24412M 24412B 24478M 24479B 24483B 24487B 24497B 24506B 24515B
             24525B 24535B 24544B 24559B 24571B 24581B 24591B 24600B 24610B 24619B 24662M 24663M 24663B 24666M 24667M
             24667B 24731M 24732M 24732B 24736  24757M 24758M 24758B 24772M 24773M 24773B 24795M 24796M 24796B 24801M
             24802B 24819M 24820M 24820B 25007B 25090  25168M 25169M 25169B 25180M 25182B 25217M 25218M 25218B 25221M
             25222M 25222B 25277M 25304  25343M 25344M 25344B 25352M 25353M 25353B 25361M 25362M 25362B 25370M 25371M
             25371B 25379M 25380M 25380B 25386M 25387M 25387B 25392M 25393M 25393B 25410M 25413B 25614M 25615M 25615B
             25642M 25643M 25643B 25678M 25679M 25679B 25706M 25707M 25707B 25746M 25747M 25747B 25774M 25775M 25775B
             25798M 25799M 25799B
    15(F)      922U  7610M  7610  11884  16228M 16228  16230M 16230  16369M 16378  16479M 16481M 16499M 16501M 16529M
             16531M 16968  17177M 17222M 17222  17317  17328M 17329M 17329  17330  17344  17367  17377M 17378M 17378
             17380M 17541M 17542  17550  17553M 17554M 17554  17555B 17559M 17781M 17860M 17884M 17900M 17919M 17942M
             17993M 17995M 18015M 18016M 18047M 18058M 18058  18076M 18099M 18099  18100M 18195M 18242M 18242  18414M
             18416M 18417M 18418M 18420M 18421M 18422  18468M 18469M 18469  18474  18475B 18476M 18506M 18733M 18734M
             18735  18993M 18993  18994M 18998M 18999M 19000  19078M 19079  19093  19094M 19285M 19300M 19318M 19333M
             19360M 19375M 19402M 19417M 19449M 19484M 19520M 19775M 19809M 19838M 19838  19875M 19875  19937M 19937
             20071M 20081M 20081  20185M 20205M 20205  20219  20228  20236M 20239  20364M 20365M 20366  20400M 20400
             20475  20502M 20522M 20522  20536  20545  20553M 20556  20592M 20593M 20594  20603M 20603  20627M 20627
             20662M 20677M 20702M 20717M 20742M 20765M 20795M 20796M 20797  20949  20983  20984M 20994U 21000M 21007U
             21009B 21010M 21181M 21184M 21186  21188M 21190  21192M 21194  21210D 21212M 21212  21213M 21214U 21215M
             21216  21293  21344M 21359M 21378M 21401M 21493  21496M 21497M 21498B 21502M 21764M 21783M 21798M 21817M
             21840M 21935M 21937  21938M 21943D 21945M 21945  21946M 21947U 21952M 21954M 21956  21957M 22026M 22031M
             22066M 22074M 22074  22097M 22097  22169M 22415M 22434M 22436  22437M 22441M 22441  22460M 22460  22518M
             22541M 22541  22594M 22617M 22617  22670M 22693M 22693  22746M 22769M 22769  22822M 22845M 22845  22895U
             22901  22911M 22919U 23091M 23091  23092M 23093B 23150M 23156  23159D 23161M 23161  23162M 23163U 23164M
1         (INIT4072) (12:46) (15MAR04) General Purpose Register Cross Reference                                             Page  103
             23165  23166  23241M 23245M 23254M 23254  23261  23351M 23351  23352M 23353  23356  23361  23362  23365
             23369  23388M 24131  24157  24168M 24169M 24170  24206  24234M 24251M 24268M 24285M 24432M 24436M 24445M
             24445  24452  24687M 24691M 24700M 24700  24707  24728M 24754M 24769M 24792M 24816M 24930U 25014U 25139M
             25140M 25141  25149M 25150  25164  25165M 25235M 25245U 25258U 25337M 25346M 25355M 25364M 25373M 25412M
             25412  25611M 25639M 25675M 25703M 25743M 25771M

1INIT     (INIT4072) (12:46) (15MAR04) Diagnostic Cross Reference and Assembler Summary                                     Page  104
-                                                                                            HLASM R4.0  2004/03/15 12.46
0     No Statements Flagged in this Assembly
 HIGH LEVEL ASSEMBLER, 5696-234, RELEASE 4.0, PTF P72483
0SYSTEM: OS/390 02.10.00            JOBNAME: WYL#INIT    STEPNAME: ASM        PROCSTEP: (NOPROC)
0Datasets Allocated for this Assembly
  Con DDname   Dataset Name                                 Volume  Member
   P1 SYSIN    WYL.GS.WYL.WYLBUR.SOURCE                     SYSB05  INIT
   L1 SYSLIB   WYL.GS.WYL.WYLBUR.MACLIB                     SYSB05
   L2          WYL.GG.SYS.MACLIB                            SYSB05
   L3          SYS3.IS.MACLIB                               SYSB05
   L4          SYS3.MACLIB                                  SYSB02
   L5          SYS1.MACLIB                                  MVSBR9
   L6          SYS1.MODGEN                                  MVSBR9
      SYSPRINT SYS04075.T124644.RA000.WYL#INIT.PRINT.H01    SCR100
      SYSTERM  GG$SLP.WYL#INIT.JOB03532.D0000101.?

    3668K allocated to Buffer Pool,         6153K would be required for this to be an In-Storage Assembly
    2009 Primary Input Records Read        33470 Library Records Read                605 Work File Reads
       0 ASMAOPT Records Read               7916 Primary Print Records Written       625 Work File Writes
       0 Punch Records Written                 0 ADATA Records Written
0Assembly Start Time: 12.46.46 Stop Time: 12.47.00 Processor Time: 00.00.04.4602
 Return Code 000
