1         (ACMD4072) (12:39) (15MAR04) General Purpose Register Cross Reference                                             Page  256
     7(7)      954U  2094M  2094   2095B  2101   2107B  8053   8059M  8071U  8379U  8387M  8440   8446M  8458U  8596U
              8604M  8639   8645M  8657U  8794U  8802M  8835   8840M  8852U  8907U  8915M  8941   8947M  8959U  9161U
              9169M  9298   9303M  9315U  9896U  9904M  9924   9929M  9941U  9963U  9971M  9991   9996M 10008U 10030U
             10038M 10058  10063M 10075U 10098U 10106M 10126  10131M 10143U 10274U 10282M 10362  10367M 10379U 10704U
             10712M 10781  10787M 10799U 11727U 11735M 11789  11794M 11806U 11842U 11850M 11883  11888M 11900U 12023U
             12031M 12060  12065M 12077U 12114U 12122M 12232  12238M 12250U 12444U 12452M 13048  13053M 13065U 13091U
             13099M 13119  13124M 13136U 13163U 13171M 13191  13196M 13208U 13506U 13514M 13534  13539M 13551U 13577U
             13585M 13605  13610M 13622U 13649U 13657M 13677  13682M 13694U 13720U 13728M 13748  13753M 13765U 13792U
             13800M 13820  13825M 13837U 13878U 13886M 13906  13911M 13923U 13964U 13972M 13992  13997M 14009U 14046U
             14054M 14074  14079M 14091U 14129U 14137M 14158  14163M 14175U 14201U 14209M 14229  14234M 14246U 14273U
             14281M 14302  14307M 14319U 14345U 14353M 14373  14378M 14390U 14417U 14425M 14460  14466M 14478U 14558U
             14566M 14603  14608M 14620U 15400U 15408M 15494  15500M 15512U 15693U 15701M 15859  15864M 15876U 15904U
             15912M 15932  15937M 15949U 15978U 15986M 16006  16011M 16023U 16051U 16059M 16079  16084M 16096U 16125U
             16133M 16153  16158M 16170U 16198U 16206M 16226  16231M 16243U 16272U 16280M 16315  16321M 16333U 17102U
             17110M 17144  17150M 17162U 17416U 17424M 17537  17542M 17554U 17576U 17584M 17604  17609M 17621U 17705U
             17713M 17733  17738M 17750U 17775U 17783M 17818  17824M 17836U 18211U 18219M 18253  18259M 18271U 18465U
             18473M 18646  18651M 18663U 18689U 18697M 18717  18722M 18734U 18761U 18769M 18803  18809M 18821U 18922U
             18930M 18967  18972M 18984U 19409U 19417M 19518  19524M 19536U 19730U 19738M 19975  19980M 19992U 20018U
             20026M 20046  20051M 20063U 20090U 20098M 20118  20123M 20135U 20161U 20169M 20189  20194M 20206U 20233U
             20241M 20261  20266M 20278U 20381U 20389M 20409  20414M 20426U 20454U 20462M 20482  20487M 20499U 20542U
             20550M 20571  20576M 20588U 20686U 20694M 20835  20840M 20852U 20874U 20882M 20902  20907M 20919U 20941U
             20949M 20969  20974M 20986U 21008U 21016M 21036  21041M 21053U 21075U 21083M 21103  21108M 21120U 21184U
             21192M 21212  21217M 21229U 21244U 21252M 21274  21279M 21291U 21317U 21325M 21345  21350M 21362U 21389U
             21397M 21432  21438M 21450U 21530U 21538M 21575  21580M 21592U 22144U 22152M 22243  22249M 22261U 22434U
             22442M 22524  22529M 22541U 22574U 22582M 22616  22621M 22633U 22884U 22892M 22917  22922M 22934U 23044U
             23052M 23077  23082M 23094U 23267U 23275M 23300  23305M 23317U 23427U 23435M 23496  23501M 23513U 23619U
             23627M 23653  23659M 23671U 25722U 25730M 25812  25817M 25829U 25845U 25853M 25904  25910M 25922U 26203U
             26211M 26237  26243M 26255U 26535U 26543M 26626  26631M 26643U 26665U 26673M 26693  26698M 26710U 26750U
             26758M 26778  26783M 26795U 26811U 26819M 26852  26857M 26869U 26929U 26937M 27087  27092M 27104U 27567U
             27575M 27634  27640M 27652U 28541U 28549M 28665  28671M 28683U 28763U 28771M 28812  28817M 28829U 29074U
             29082M 29116  29122M 29134U 29214U 29222M 29263  29268M 29280U 29558U 29566M 29622  29628M 29640U 29879U
             29887M 30088  30093M 30105U 30121U 30129M 30154  30159M 30171U 30413U 30421M 30452  30457M 30469U 30532U
             30540M 30645  30651M 30663U 31315U 31323M 31480  31485M 31497U 31519U 31527M 31547  31552M 31564U 31586U
             31594M 31614  31619M 31631U 31653U 31661M 31681  31686M 31698U 31720U 31728M 31748  31753M 31765U 31787U
             31795M 31815  31820M 31832U 31854U 31862M 31937  31943M 31955U 33696U 33704M 35261  35266M 35278U 35401U
             35409M 35432  35437M 35449U 35476U 35484M 35504  35509M 35521U 35547U 35555M 35575  35580M 35592U 35619U
             35627M 35647  35652M 35664U 35690U 35698M 35718  35723M 35735U 35759U 35767M 35787  35792M 35804U 35828U
             35836M 35856  35861M 35873U 35897U 35905M 35925  35930M 35942U 35966U 35974M 35994  35999M 36011U 36035U
             36043M 36063  36068M 36080U 36104U 36112M 36132  36137M 36149U 36190U 36198M 36218  36223M 36235U 36346U
             36354M 36374  36379M 36391U 36418U 36426M 36446  36451M 36463U 36489U 36497M 36517  36522M 36534U 36579U
             36587M 36607  36612M 36624U 36651U 36659M 36679  36684M 36696U 36722U 36730M 36750  36755M 36767U 36794U
             36802M 36822  36827M 36839U 36865U 36873M 36893  36898M 36910U 36937U 36945M 36965  36970M 36982U 37008U
             37016M 37036  37041M 37053U 37080U 37088M 37108  37113M 37125U 37157U 37165M 37185  37190M 37202U 37234U
             37242M 37262  37267M 37279U 37309U 37317M 37337  37342M 37354U 37384U 37392M 37412  37417M 37429U 37455U
             37463M 37483  37488M 37500U 37527U 37535M 37555  37560M 37572U 37621U 37629M 37649  37654M 37666U 37692U
             37700M 37720  37725M 37737U 37764U 37772M 37793  37798M 37810U 38060U 38068M 38089  38094M 38106U 38202U
             38210M 38255  38260M 38272U 38335U 38343M 38363  38368M 38380U 38443U 38451M 38471  38476M 38488U 38551U
             38559M 38579  38584M 38596U 38659U 38667M 38687  38692M 38704U 38733U 38741M 38762  38767M 38779U 38801U
             38809M 38829  38834M 38846U 38908U 38916M 38936  38941M 38953U 38992U 39000M 39021  39026M 39038U 39060U
             39068M 39088  39093M 39105U 39178U 39186M 39206  39211M 39223U 39245U 39253M 39273  39278M 39290U 39389U
             39397M 39417  39422M 39434U 39456U 39464M 39484  39489M 39501U 39602U 39610M 39630  39635M 39647U 39673U
             39681M 39701  39706M 39718U 39745U 39753M 39773  39778M 39790U 39816U 39824M 39844  39849M 39861U 39888U
             39896M 39916  39921M 39933U 39960U 39968M 39988  39993M 40005U 40031U 40039M 40059  40064M 40076U 40198U
             40206M 40226  40231M 40243U 40269U 40277M 40297  40302M 40314U 40341U 40349M 40369  40374M 40386U 40412U
             40420M 40440  40445M 40457U 40484U 40492M 40512  40517M 40529U 40556U 40564M 40584  40589M 40601U 40627U
             40635M 40655  40660M 40672U 40698U 40706M 40726  40731M 40743U 40770U 40778M 40798  40803M 40815U 40844U
             40852M 40872  40877M 40889U 40915U 40923M 40943  40948M 40960U 40989U 40997M 41017  41022M 41034U 41060U
             41068M 41088  41093M 41105U 41127U 41135M 41155  41160M 41172U 41264U 41272M 41292  41297M 41309U 41382U
             41390M 41410  41415M 41427U 41632U 41640M 41660  41665M 41677U 41733U 41741M 41761  41766M 41778U 41806U
1         (ACMD4072) (12:39) (15MAR04) General Purpose Register Cross Reference                                             Page  257
             41814M 41834  41839M 41851U 41946U 41954M 41974  41979M 41991U 42019U 42027M 42047  42052M 42064U 42136U
             42144M 42164  42169M 42181U 42209U 42217M 42237  42242M 42254U 42279U 42287M 42307  42312M 42324U 42345U
             42353M 42628  42634M 42646U 43372U 43380M 43448  43453M 43465U 43486U 43494M 43566  43571M 43583U 48881U
             48889M 49055  49060M 49072U 49287U 49295M 49362  49367M 49379U 49395U 49403M 49423  49428M 49440U 49456U
             49464M 49488  49493M 49505U 49624U 49632M 49657  49662M 49674U 49820U 49828M 49851  49856M 49868U 49983U
             49991M 50013  50018M 50030U 50144U 50152M 50175  50180M 50192U 50364U 50372M 50392  50397M 50409U 50581U
             50589M 50609  50614M 50626U 50697U 50705M 50725  50730M 50742U 50858U 50866M 50886  50891M 50903U 50973U
             50981M 51001  51006M 51018U 51046U 51054M 51074  51079M 51091U 51161U 51169M 51189  51194M 51206U 51305U
             51313M 51333  51338M 51350U 51378U 51386M 51406  51411M 51423U 51493U 51501M 51521  51526M 51538U 51626U
             51634M 51654  51659M 51671U 51699U 51707M 51727  51732M 51744U 51778U 51786M 51806  51811M 51823U 51852U
             51860M 51880  51885M 51897U 51927U 51935M 51975  51980M 51992U 52338U 52346M 52433  52438M 52450U 52504U
             52512M 52535  52540M 52552U 52606U 52614M 52788  52793M 52805U 52827U 52835M 52855  52860M 52872U 52891U
             52899M 52919  52924M 52936U 52955U 52963M 52983  52988M 53000U 53019U 53027M 53080  53086M 53098U 53248U
             53256M 53310  53315M 53327U 53957U 53965M 54029  54035M 54047U 54282U 54290M 54364  54369M 54381U 54582U
             54590M 54653  54658M 54670U 55139U 55147M 55275  55280M 55292U 55308U 55316M 55336  55341M 55353U 55369U
             55377M 55397  55402M 55414U 55513U 55521M 55543  55548M 55560U 55755U 55763M 55802  55807M 55819U 56256U
             56264M 56301  56306M 56318U 56549U 56557M 56584  56589M 56601U 56713U 56721M 56748  56753M 56765U 56884U
             56892M
     8(8)      950U  2101   8053   8055M  8085U  8374U  8383   8387M  8440   8442M  8472U  8591U  8600   8604M  8639
              8641M  8671U  8789U  8798   8802M  8835   8836M  8911   8915M  8941   8943M  8973U  9156U  9165   9169M
              9298   9299M  9900   9904M  9924   9925M  9967   9971M  9991   9992M 10034  10038M 10058  10059M 10102
             10106M 10126  10127M 10278  10282M 10362  10363M 10708  10712M 10781  10783M 10813U 11722U 11731  11735M
             11789  11790M 11846  11850M 11883  11884M 12027  12031M 12060  12061M 12118  12122M 12232  12234M 12264U
             12439U 12448  12452M 13048  13049M 13095  13099M 13119  13120M 13167  13171M 13191  13192M 13510  13514M
             13534  13535M 13581  13585M 13605  13606M 13653  13657M 13677  13678M 13724  13728M 13748  13749M 13796
             13800M 13820  13821M 13882  13886M 13906  13907M 13968  13972M 13992  13993M 14050  14054M 14074  14075M
             14133  14137M 14158  14159M 14205  14209M 14229  14230M 14277  14281M 14302  14303M 14349  14353M 14373
             14374M 14421  14425M 14460  14462M 14492U 14553U 14562  14566M 14603  14604M 15404  15408M 15494  15496M
             15526U 15688U 15697  15701M 15859  15860M 15908  15912M 15932  15933M 15982  15986M 16006  16007M 16055
             16059M 16079  16080M 16129  16133M 16153  16154M 16202  16206M 16226  16227M 16276  16280M 16315  16317M
             16347U 17097U 17106  17110M 17144  17146M 17176U 17411U 17420  17424M 17537  17538M 17580  17584M 17604
             17605M 17709  17713M 17733  17734M 17779  17783M 17818  17820M 17850U 18206U 18215  18219M 18253  18255M
             18285U 18460U 18469  18473M 18646  18647M 18693  18697M 18717  18718M 18765  18769M 18803  18805M 18835U
             18917U 18926  18930M 18967  18968M 19413  19417M 19518  19520M 19550U 19725U 19734  19738M 19975  19976M
             20022  20026M 20046  20047M 20094  20098M 20118  20119M 20165  20169M 20189  20190M 20237  20241M 20261
             20262M 20385  20389M 20409  20410M 20458  20462M 20482  20483M 20546  20550M 20571  20572M 20690  20694M
             20835  20836M 20878  20882M 20902  20903M 20945  20949M 20969  20970M 21012  21016M 21036  21037M 21079
             21083M 21103  21104M 21188  21192M 21212  21213M 21248  21252M 21274  21275M 21321  21325M 21345  21346M
             21393  21397M 21432  21434M 21464U 21525U 21534  21538M 21575  21576M 22148  22152M 22243  22245M 22275U
             22429U 22438  22442M 22524  22525M 22578  22582M 22616  22617M 22888  22892M 22917  22918M 23048  23052M
             23077  23078M 23271  23275M 23300  23301M 23431  23435M 23496  23497M 23623  23627M 23653  23655M 23685U
             25717U 25726  25730M 25812  25813M 25849  25853M 25904  25906M 25936U 26198U 26207  26211M 26237  26239M
             26269U 26530U 26539  26543M 26626  26627M 26669  26673M 26693  26694M 26754  26758M 26778  26779M 26815
             26819M 26852  26853M 26933  26937M 27087  27088M 27571  27575M 27634  27636M 27666U 28536U 28545  28549M
             28665  28667M 28697U 28758U 28767  28771M 28812  28813M 29078  29082M 29116  29118M 29148U 29209U 29218
             29222M 29263  29264M 29562  29566M 29622  29624M 29654U 29665U 29668U 29874U 29883  29887M 30088  30089M
             30125  30129M 30154  30155M 30417  30421M 30452  30453M 30536  30540M 30645  30647M 30677U 31310U 31319
             31323M 31480  31481M 31523  31527M 31547  31548M 31590  31594M 31614  31615M 31657  31661M 31681  31682M
             31724  31728M 31748  31749M 31791  31795M 31815  31816M 31858  31862M 31937  31939M 31969U 33691U 33700
             33704M 35261  35262M 35405  35409M 35432  35433M 35480  35484M 35504  35505M 35551  35555M 35575  35576M
             35623  35627M 35647  35648M 35694  35698M 35718  35719M 35763  35767M 35787  35788M 35832  35836M 35856
             35857M 35901  35905M 35925  35926M 35970  35974M 35994  35995M 36039  36043M 36063  36064M 36108  36112M
             36132  36133M 36194  36198M 36218  36219M 36350  36354M 36374  36375M 36422  36426M 36446  36447M 36493
             36497M 36517  36518M 36583  36587M 36607  36608M 36655  36659M 36679  36680M 36726  36730M 36750  36751M
             36798  36802M 36822  36823M 36869  36873M 36893  36894M 36941  36945M 36965  36966M 37012  37016M 37036
             37037M 37084  37088M 37108  37109M 37161  37165M 37185  37186M 37238  37242M 37262  37263M 37313  37317M
             37337  37338M 37388  37392M 37412  37413M 37459  37463M 37483  37484M 37531  37535M 37555  37556M 37625
             37629M 37649  37650M 37696  37700M 37720  37721M 37768  37772M 37793  37794M 38064  38068M 38089  38090M
             38206  38210M 38255  38256M 38339  38343M 38363  38364M 38447  38451M 38471  38472M 38555  38559M 38579
1         (ACMD4072) (12:39) (15MAR04) General Purpose Register Cross Reference                                             Page  258
             38580M 38663  38667M 38687  38688M 38737  38741M 38762  38763M 38805  38809M 38829  38830M 38912  38916M
             38936  38937M 38996  39000M 39021  39022M 39064  39068M 39088  39089M 39182  39186M 39206  39207M 39249
             39253M 39273  39274M 39393  39397M 39417  39418M 39460  39464M 39484  39485M 39606  39610M 39630  39631M
             39677  39681M 39701  39702M 39749  39753M 39773  39774M 39820  39824M 39844  39845M 39892  39896M 39916
             39917M 39964  39968M 39988  39989M 40035  40039M 40059  40060M 40202  40206M 40226  40227M 40273  40277M
             40297  40298M 40345  40349M 40369  40370M 40416  40420M 40440  40441M 40488  40492M 40512  40513M 40560
             40564M 40584  40585M 40631  40635M 40655  40656M 40702  40706M 40726  40727M 40774  40778M 40798  40799M
             40848  40852M 40872  40873M 40919  40923M 40943  40944M 40993  40997M 41017  41018M 41064  41068M 41088
             41089M 41131  41135M 41155  41156M 41268  41272M 41292  41293M 41386  41390M 41410  41411M 41636  41640M
             41660  41661M 41737  41741M 41761  41762M 41810  41814M 41834  41835M 41950  41954M 41974  41975M 42023
             42027M 42047  42048M 42140  42144M 42164  42165M 42213  42217M 42237  42238M 42283  42287M 42307  42308M
             42349  42353M 42628  42630M 42660U 43367U 43376  43380M 43448  43449M 43490  43494M 43566  43567M 48885
             48889M 49055  49056M 49291  49295M 49362  49363M 49399  49403M 49423  49424M 49460  49464M 49488  49489M
             49628  49632M 49657  49658M 49824  49828M 49851  49852M 49987  49991M 50013  50014M 50148  50152M 50175
             50176M 50368  50372M 50392  50393M 50585  50589M 50609  50610M 50701  50705M 50725  50726M 50862  50866M
             50886  50887M 50977  50981M 51001  51002M 51050  51054M 51074  51075M 51165  51169M 51189  51190M 51309
             51313M 51333  51334M 51382  51386M 51406  51407M 51497  51501M 51521  51522M 51630  51634M 51654  51655M
             51703  51707M 51727  51728M 51782  51786M 51806  51807M 51856  51860M 51880  51881M 51931  51935M 51975
             51976M 52342  52346M 52433  52434M 52508  52512M 52535  52536M 52610  52614M 52788  52789M 52831  52835M
             52855  52856M 52883N 52895  52899M 52919  52920M 52947N 52959  52963M 52983  52984M 53011N 53023  53027M
             53080  53082M 53112U 53243U 53252  53256M 53310  53311M 53961  53965M 54029  54031M 54061U 54277U 54286
             54290M 54364  54365M 54586  54590M 54653  54654M 55143  55147M 55275  55276M 55312  55316M 55336  55337M
             55373  55377M 55397  55398M 55517  55521M 55543  55544M 55759  55763M 55802  55803M 56243N 56260  56264M
             56301  56302M 56553  56557M 56584  56585M 56717  56721M 56748  56749M 56888  56892M
     9(9)      946U  2101
    10(A)      942U  2101
    11(B)      938U  1165U  2101
    12(C)      934U  1174U  2101
    13(D)      930U  2101   8050   8053   8055   8056M  8056   8194   8195   8196   8198M  8198   8211M  8212   8213
              8214   8383M  8387   8389   8437   8440   8442   8443M  8443   8600M  8604   8606   8636   8639   8641
              8642M  8642   8798M  8802   8804   8832   8835   8836   8837M  8837   8911M  8915   8917   8938   8941
              8943   8944M  8944   9077   9078   9079   9081M  9081   9094M  9095   9096   9097   9165M  9169   9171
              9295   9298   9299   9300M  9300   9336   9337   9338   9340M  9340   9350M  9351   9352   9353   9900M
              9904   9906   9921   9924   9925   9926M  9926   9967M  9971   9973   9988   9991   9992   9993M  9993
             10034M 10038  10040  10055  10058  10059  10060M 10060  10102M 10106  10108  10123  10126  10127  10128M
             10128  10278M 10282  10284  10359  10362  10363  10364M 10364  10708M 10712  10714  10778  10781  10783
             10784M 10784  10847  10848  10849  10851M 10851  10863M 10864  10865  10866  11358  11359  11360  11362M
             11362  11375M 11376  11377  11378  11731M 11735  11737  11786  11789  11790  11791M 11791  11846M 11850
             11852  11880  11883  11884  11885M 11885  12027M 12031  12033  12057  12060  12061  12062M 12062  12118M
             12122  12124  12229  12232  12234  12235M 12235  12331  12332  12333  12335M 12335  12348M 12349  12350
             12351  12448M 12452  12454  13045  13048  13049  13050M 13050  13095M 13099  13101  13116  13119  13120
             13121M 13121  13167M 13171  13173  13188  13191  13192  13193M 13193  13257  13258  13259  13261M 13261
             13271M 13272  13273  13274  13510M 13514  13516  13531  13534  13535  13536M 13536  13581M 13585  13587
             13602  13605  13606  13607M 13607  13653M 13657  13659  13674  13677  13678  13679M 13679  13724M 13728
             13730  13745  13748  13749  13750M 13750  13796M 13800  13802  13817  13820  13821  13822M 13822  13882M
             13886  13888  13903  13906  13907  13908M 13908  13968M 13972  13974  13989  13992  13993  13994M 13994
             14050M 14054  14056  14071  14074  14075  14076M 14076  14133M 14137  14139  14155  14158  14159  14160M
             14160  14205M 14209  14211  14226  14229  14230  14231M 14231  14277M 14281  14283  14299  14302  14303
             14304M 14304  14349M 14353  14355  14370  14373  14374  14375M 14375  14421M 14425  14427  14457  14460
             14462  14463M 14463  14562M 14566  14568  14600  14603  14604  14605M 14605  15404M 15408  15410  15491
             15494  15496  15497M 15497  15593  15594  15595  15597M 15597  15610M 15611  15612  15613  15697M 15701
             15703  15856  15859  15860  15861M 15861  15908M 15912  15914  15929  15932  15933  15934M 15934  15982M
             15986  15988  16003  16006  16007  16008M 16008  16055M 16059  16061  16076  16079  16080  16081M 16081
             16129M 16133  16135  16150  16153  16154  16155M 16155  16202M 16206  16208  16223  16226  16227  16228M
             16228  16276M 16280  16282  16312  16315  16317  16318M 16318  17106M 17110  17112  17141  17144  17146
             17147M 17147  17243  17244  17245  17247M 17247  17260M 17261  17262  17263  17420M 17424  17426  17534
             17537  17538  17539M 17539  17580M 17584  17586  17601  17604  17605  17606M 17606  17709M 17713  17715
             17730  17733  17734  17735M 17735  17779M 17783  17785  17815  17818  17820  17821M 17821  18215M 18219
             18221  18250  18253  18255  18256M 18256  18352  18353  18354  18356M 18356  18369M 18370  18371  18372
1         (ACMD4072) (12:39) (15MAR04) General Purpose Register Cross Reference                                             Page  259
             18469M 18473  18475  18643  18646  18647  18648M 18648  18693M 18697  18699  18714  18717  18718  18719M
             18719  18765M 18769  18771  18800  18803  18805  18806M 18806  18926M 18930  18932  18964  18967  18968
             18969M 18969  19413M 19417  19419  19515  19518  19520  19521M 19521  19617  19618  19619  19621M 19621
             19634M 19635  19636  19637  19734M 19738  19740  19972  19975  19976  19977M 19977  20022M 20026  20028
             20043  20046  20047  20048M 20048  20094M 20098  20100  20115  20118  20119  20120M 20120  20165M 20169
             20171  20186  20189  20190  20191M 20191  20237M 20241  20243  20258  20261  20262  20263M 20263  20385M
             20389  20391  20406  20409  20410  20411M 20411  20458M 20462  20464  20479  20482  20483  20484M 20484
             20546M 20550  20552  20568  20571  20572  20573M 20573  20600  20602M 20602  20647  20648  20649  20651M
             20651  20664M 20665  20666  20667  20678M 20690M 20694  20696  20832  20835  20836  20837M 20837  20878M
             20882  20884  20899  20902  20903  20904M 20904  20945M 20949  20951  20966  20969  20970  20971M 20971
             21012M 21016  21018  21033  21036  21037  21038M 21038  21079M 21083  21085  21100  21103  21104  21105M
             21105  21188M 21192  21194  21209  21212  21213  21214M 21214  21248M 21252  21254  21271  21274  21275
             21276M 21276  21321M 21325  21327  21342  21345  21346  21347M 21347  21393M 21397  21399  21429  21432
             21434  21435M 21435  21534M 21538  21540  21572  21575  21576  21577M 21577  22148M 22152  22154  22240
             22243  22245  22246M 22246  22322  22323  22324  22326M 22326  22339M 22340  22341  22342  22376  22377
             22378  22380M 22380  22393M 22394  22395  22396  22438M 22442  22444  22521  22524  22525  22526M 22526
             22578M 22582  22584  22613  22616  22617  22618M 22618  22653  22654  22655  22657M 22657  22669M 22670
             22671  22672  22888M 22892  22894  22914  22917  22918  22919M 22919  23048M 23052  23054  23074  23077
             23078  23079M 23079  23139  23140  23141  23143M 23143  23155M 23156  23157  23158  23271M 23275  23277
             23297  23300  23301  23302M 23302  23431M 23435  23437  23493  23496  23497  23498M 23498  23533  23534
             23535  23537M 23537  23549M 23550  23551  23552  23623M 23627  23629  23650  23653  23655  23656M 23656
             23723  23724  23725  23727M 23727  23739M 23740  23741  23742  23893  23894  23895  23897M 23897  23910M
             23911  23912  23913  23967  23968M 23968  24028M 25726M 25730  25732  25809  25812  25813  25814M 25814
             25849M 25853  25855  25901  25904  25906  25907M 25907  26207M 26211  26213  26234  26237  26239  26240M
             26240  26325  26326  26327  26329M 26329  26341M 26342  26343  26344  26442  26443  26444  26446M 26446
             26459M 26460  26461  26462  26539M 26543  26545  26623  26626  26627  26628M 26628  26669M 26673  26675
             26690  26693  26694  26695M 26695  26754M 26758  26760  26775  26778  26779  26780M 26780  26815M 26819
             26821  26849  26852  26853  26854M 26854  26888  26889  26890  26892M 26892  26905M 26906  26907  26908
             26933M 26937  26939  27084  27087  27088  27089M 27089  27571M 27575  27577  27631  27634  27636  27637M
             27637  27714  27715  27716  27718M 27718  27731M 27732  27733  27734  27902  27903M 27903  27943M 27944
             28545M 28549  28551  28662  28665  28667  28668M 28668  28767M 28771  28773  28809  28812  28813  28814M
             28814  28924  28925M 28925  29078M 29082  29084  29113  29116  29118  29119M 29119  29218M 29222  29224
             29260  29263  29264  29265M 29265  29383  29384M 29384  29414M 29562M 29566  29568  29619  29622  29624
             29625M 29625  29687  29688  29689  29691M 29691  29704M 29705  29706  29707  29764  29765  29766  29768M
             29768  29780M 29781  29782  29783  29883M 29887  29889  30085  30088  30089  30090M 30090  30125M 30129
             30131  30151  30154  30155  30156M 30156  30417M 30421  30423  30449  30452  30453  30454M 30454  30536M
             30540  30542  30642  30645  30647  30648M 30648  30758  30760M 30760  30771  30772  30773  30775M 30775
             30787M 30788  30789  30790  30840M 30852  30853  30854  30856M 30856  30868M 30869  30870  30871  30882M
             30926  30928M 30928  30937M 31046  31047  31048  31050M 31050  31063M 31064  31065  31066  31076  31077M
             31077  31101M 31319M 31323  31325  31477  31480  31481  31482M 31482  31523M 31527  31529  31544  31547
             31548  31549M 31549  31590M 31594  31596  31611  31614  31615  31616M 31616  31657M 31661  31663  31678
             31681  31682  31683M 31683  31724M 31728  31730  31745  31748  31749  31750M 31750  31791M 31795  31797
             31812  31815  31816  31817M 31817  31858M 31862  31864  31934  31937  31939  31940M 31940  32934  32935M
             32935  33013M 33502  33503M 33503  33523M 33524  33592  33593M 33593  33613M 33614  33700M 33704  33706
             35258  35261  35262  35263M 35263  35312  35313  35314  35316M 35316  35329M 35330  35331  35332  35364
             35365  35366  35368M 35368  35381M 35382  35383  35384  35405M 35409  35411  35429  35432  35433  35434M
             35434  35480M 35484  35486  35501  35504  35505  35506M 35506  35551M 35555  35557  35572  35575  35576
             35577M 35577  35623M 35627  35629  35644  35647  35648  35649M 35649  35694M 35698  35700  35715  35718
             35719  35720M 35720  35763M 35767  35769  35784  35787  35788  35789M 35789  35832M 35836  35838  35853
             35856  35857  35858M 35858  35901M 35905  35907  35922  35925  35926  35927M 35927  35970M 35974  35976
             35991  35994  35995  35996M 35996  36039M 36043  36045  36060  36063  36064  36065M 36065  36108M 36112
             36114  36129  36132  36133  36134M 36134  36194M 36198  36200  36215  36218  36219  36220M 36220  36350M
             36354  36356  36371  36374  36375  36376M 36376  36422M 36426  36428  36443  36446  36447  36448M 36448
             36493M 36497  36499  36514  36517  36518  36519M 36519  36583M 36587  36589  36604  36607  36608  36609M
             36609  36655M 36659  36661  36676  36679  36680  36681M 36681  36726M 36730  36732  36747  36750  36751
             36752M 36752  36798M 36802  36804  36819  36822  36823  36824M 36824  36869M 36873  36875  36890  36893
             36894  36895M 36895  36941M 36945  36947  36962  36965  36966  36967M 36967  37012M 37016  37018  37033
             37036  37037  37038M 37038  37084M 37088  37090  37105  37108  37109  37110M 37110  37161M 37165  37167
             37182  37185  37186  37187M 37187  37238M 37242  37244  37259  37262  37263  37264M 37264  37313M 37317
1         (ACMD4072) (12:39) (15MAR04) General Purpose Register Cross Reference                                             Page  260
             37319  37334  37337  37338  37339M 37339  37388M 37392  37394  37409  37412  37413  37414M 37414  37459M
             37463  37465  37480  37483  37484  37485M 37485  37531M 37535  37537  37552  37555  37556  37557M 37557
             37625M 37629  37631  37646  37649  37650  37651M 37651  37696M 37700  37702  37717  37720  37721  37722M
             37722  37768M 37772  37774  37790  37793  37794  37795M 37795  38064M 38068  38070  38086  38089  38090
             38091M 38091  38206M 38210  38212  38252  38255  38256  38257M 38257  38339M 38343  38345  38360  38363
             38364  38365M 38365  38447M 38451  38453  38468  38471  38472  38473M 38473  38555M 38559  38561  38576
             38579  38580  38581M 38581  38663M 38667  38669  38684  38687  38688  38689M 38689  38737M 38741  38743
             38759  38762  38763  38764M 38764  38805M 38809  38811  38826  38829  38830  38831M 38831  38912M 38916
             38918  38933  38936  38937  38938M 38938  38996M 39000  39002  39018  39021  39022  39023M 39023  39064M
             39068  39070  39085  39088  39089  39090M 39090  39182M 39186  39188  39203  39206  39207  39208M 39208
             39249M 39253  39255  39270  39273  39274  39275M 39275  39393M 39397  39399  39414  39417  39418  39419M
             39419  39460M 39464  39466  39481  39484  39485  39486M 39486  39606M 39610  39612  39627  39630  39631
             39632M 39632  39677M 39681  39683  39698  39701  39702  39703M 39703  39749M 39753  39755  39770  39773
             39774  39775M 39775  39820M 39824  39826  39841  39844  39845  39846M 39846  39892M 39896  39898  39913
             39916  39917  39918M 39918  39964M 39968  39970  39985  39988  39989  39990M 39990  40035M 40039  40041
             40056  40059  40060  40061M 40061  40202M 40206  40208  40223  40226  40227  40228M 40228  40273M 40277
             40279  40294  40297  40298  40299M 40299  40345M 40349  40351  40366  40369  40370  40371M 40371  40416M
             40420  40422  40437  40440  40441  40442M 40442  40488M 40492  40494  40509  40512  40513  40514M 40514
             40560M 40564  40566  40581  40584  40585  40586M 40586  40631M 40635  40637  40652  40655  40656  40657M
             40657  40702M 40706  40708  40723  40726  40727  40728M 40728  40774M 40778  40780  40795  40798  40799
             40800M 40800  40848M 40852  40854  40869  40872  40873  40874M 40874  40919M 40923  40925  40940  40943
             40944  40945M 40945  40993M 40997  40999  41014  41017  41018  41019M 41019  41064M 41068  41070  41085
             41088  41089  41090M 41090  41131M 41135  41137  41152  41155  41156  41157M 41157  41268M 41272  41274
             41289  41292  41293  41294M 41294  41386M 41390  41392  41407  41410  41411  41412M 41412  41636M 41640
             41642  41657  41660  41661  41662M 41662  41737M 41741  41743  41758  41761  41762  41763M 41763  41810M
             41814  41816  41831  41834  41835  41836M 41836  41950M 41954  41956  41971  41974  41975  41976M 41976
             42023M 42027  42029  42044  42047  42048  42049M 42049  42140M 42144  42146  42161  42164  42165  42166M
             42166  42213M 42217  42219  42234  42237  42238  42239M 42239  42283M 42287  42289  42304  42307  42308
             42309M 42309  42349M 42353  42355  42625  42628  42630  42631M 42631  43053  43054  43055  43057M 43057
             43070M 43071  43072  43073  43376M 43380  43382  43445  43448  43449  43450M 43450  43490M 43494  43496
             43563  43566  43567  43568M 43568  48741  48742M 48742  48772M 48885M 48889  48891  49052  49055  49056
             49057M 49057  49112  49113  49114  49116M 49116  49129M 49130  49131  49132  49291M 49295  49297  49359
             49362  49363  49364M 49364  49399M 49403  49405  49420  49423  49424  49425M 49425  49460M 49464  49466
             49485  49488  49489  49490M 49490  49628M 49632  49634  49654  49657  49658  49659M 49659  49824M 49828
             49830  49848  49851  49852  49853M 49853  49987M 49991  49993  50010  50013  50014  50015M 50015  50148M
             50152  50154  50172  50175  50176  50177M 50177  50368M 50372  50374  50389  50392  50393  50394M 50394
             50585M 50589  50591  50606  50609  50610  50611M 50611  50701M 50705  50707  50722  50725  50726  50727M
             50727  50862M 50866  50868  50883  50886  50887  50888M 50888  50977M 50981  50983  50998  51001  51002
             51003M 51003  51050M 51054  51056  51071  51074  51075  51076M 51076  51165M 51169  51171  51186  51189
             51190  51191M 51191  51309M 51313  51315  51330  51333  51334  51335M 51335  51382M 51386  51388  51403
             51406  51407  51408M 51408  51497M 51501  51503  51518  51521  51522  51523M 51523  51630M 51634  51636
             51651  51654  51655  51656M 51656  51703M 51707  51709  51724  51727  51728  51729M 51729  51782M 51786
             51788  51803  51806  51807  51808M 51808  51856M 51860  51862  51877  51880  51881  51882M 51882  51931M
             51935  51937  51972  51975  51976  51977M 51977  52342M 52346  52348  52430  52433  52434  52435M 52435
             52470  52471  52472  52474M 52474  52487M 52488  52489  52490  52508M 52512  52514  52532  52535  52536
             52537M 52537  52572  52573  52574  52576M 52576  52589M 52590  52591  52592  52610M 52614  52616  52785
             52788  52789  52790M 52790  52831M 52835  52837  52852  52855  52856  52857M 52857  52895M 52899  52901
             52916  52919  52920  52921M 52921  52959M 52963  52965  52980  52983  52984  52985M 52985  53023M 53027
             53029  53077  53080  53082  53083M 53083  53136  53137  53138  53140M 53140  53152M 53153  53154  53155
             53252M 53256  53258  53307  53310  53311  53312M 53312  53961M 53965  53967  54026  54029  54031  54032M
             54032  54286M 54290  54292  54361  54364  54365  54366M 54366  54443  54444M 54444  54451M 54452  54586M
             54590  54592  54650  54653  54654  54655M 54655  54682  54684M 54684  54958  54959  54960  54962M 54962
             54975M 54976  54977  54978  55012  55013  55014  55016M 55016  55029M 55030  55031  55032  55131M 55143M
             55147  55149  55272  55275  55276  55277M 55277  55312M 55316  55318  55333  55336  55337  55338M 55338
             55373M 55377  55379  55394  55397  55398  55399M 55399  55425  55426M 55426  55466M 55467  55517M 55521
             55523  55540  55543  55544  55545M 55545  55759M 55763  55765  55799  55802  55803  55804M 55804  55831
             55833M 55833  55994  55995  55996  55998M 55998  56010M 56011  56012  56013  56248M 56260M 56264  56266
             56298  56301  56302  56303M 56303  56553M 56557  56559  56581  56584  56585  56586M 56586  56717M 56721
             56723  56745  56748  56749  56750M 56750  56888M 56892  56894
1         (ACMD4072) (12:39) (15MAR04) General Purpose Register Cross Reference                                             Page  261
    14(E)      926U  2101   2102M  2116   2117M  2118B  2120M  2121B  2141M  2142B  2146M  2147B  2149M  2150B  2152M
              2153B  2155M  2156B  2158M  2159M  2159B  2165   8050   8114M  8115M  8115B  8162M  8167M  8167   8178M
              8183M  8183   8193M  8194   8195   8196   8201M  8202   8205M  8206M  8206B  8209M  8212   8213   8214
              8219M  8220M  8220B  8250M  8251M  8251B  8328M  8329M  8329B  8389M  8392B  8437   8501M  8502M  8502B
              8505M  8506M  8506B  8510M  8511M  8511B  8573M  8574M  8574B  8606M  8609B  8636   8727M  8728M  8728B
              8731M  8732M  8732B  8804M  8807B  8832   8892M  8893M  8893B  8917M  8920B  8938   9002M  9003M  9003B
              9008M  9013M  9013   9024M  9029M  9029   9076M  9077   9078   9079   9084M  9085   9088M  9089M  9089B
              9092M  9095   9096   9097   9102M  9103M  9103B  9106M  9107M  9107B  9133M  9134M  9134B  9138M  9139M
              9139B  9171M  9174B  9295   9335M  9336   9337   9338   9344M  9345M  9345B  9348M  9351   9352   9353
              9358M  9359M  9359B  9906M  9909B  9921   9973M  9976B  9988  10040M 10043B 10055  10108M 10111B 10123
             10154M 10155M 10155B 10169M 10170M 10170B 10284M 10287B 10359  10454M 10455M 10455B 10500M 10501M 10501B
             10535M 10536M 10536B 10563M 10564M 10564B 10588M 10589M 10589B 10628M 10629M 10629B 10650M 10651M 10651B
             10669M 10670M 10670B 10695M 10696M 10696B 10714M 10717B 10778  10846M 10847  10848  10849  10857M 10858M
             10858B 10861M 10864  10865  10866  10871M 10872M 10872B 10924M 10925M 10925B 11357M 11358  11359  11360
             11365M 11366  11369M 11370M 11370B 11373M 11376  11377  11378  11383M 11384M 11384B 11737M 11740B 11786
             11834M 11835M 11835B 11852M 11855B 11880  11911M 11912M 11912B 11946M 11947M 11947B 11990M 11991M 11991B
             12008M 12009M 12009B 12033M 12036B 12057  12089M 12090N 12091N 12095M 12095  12098M 12099M 12099B 12103M
             12104M 12104B 12124M 12127B 12229  12293M 12294M 12294B 12299M 12304M 12304  12315M 12320M 12320  12330M
             12331  12332  12333  12338M 12339  12342M 12343M 12343B 12346M 12349  12350  12351  12356M 12357M 12357B
             12387M 12388M 12388B 12412M 12413M 12413B 12416M 12417M 12417B 12421M 12422M 12422B 12454M 12457B 13045
             13101M 13104B 13116  13173M 13176B 13188  13240M 13241M 13241B 13256M 13257  13258  13259  13265M 13266M
             13266B 13269M 13272  13273  13274  13279M 13280M 13280B 13301M 13302M 13302B 13341M 13342M 13342B 13372M
             13373M 13373B 13381M 13382M 13382B 13414M 13415M 13415B 13423M 13424M 13424B 13456M 13457M 13457B 13465M
             13466M 13466B 13489M 13490M 13490B 13516M 13519B 13531  13587M 13590B 13602  13659M 13662B 13674  13730M
             13733B 13745  13802M 13805B 13817  13888M 13891B 13903  13974M 13977B 13989  14056M 14059B 14071  14139M
             14142B 14155  14211M 14214B 14226  14283M 14286B 14299  14355M 14358B 14370  14427M 14430B 14457  14521M
             14522M 14522B 14526M 14527M 14527B 14530M 14531M 14531B 14535M 14536M 14536B 14568M 14571B 14600  14672M
             14673M 14673B 14700M 14701M 14701B 14739M 14740M 14740B 14767M 14768M 14768B 14808M 14809M 14809B 14836M
             14837M 14837B 14854M 14855M 14855B 14923M 14924M 14924B 14975M 14976M 14976B 15027M 15028M 15028B 15129M
             15130M 15130B 15182M 15183M 15183B 15235M 15236M 15236B 15318M 15319M 15319B 15372M 15373M 15373B 15391M
             15392M 15392B 15410M 15413B 15491  15555M 15556M 15556B 15561M 15566M 15566  15577M 15582M 15582  15592M
             15593  15594  15595  15600M 15601  15604M 15605M 15605B 15608M 15611  15612  15613  15618M 15619M 15619B
             15649M 15650M 15650B 15703M 15706B 15856  15914M 15917B 15929  15988M 15991B 16003  16061M 16064B 16076
             16135M 16138B 16150  16208M 16211B 16223  16282M 16285B 16312  16376M 16377M 16377B 16381M 16382M 16382B
             16399M 16400M 16400B 16427M 16428M 16428B 16445M 16446M 16446B 16473M 16474M 16474B 16508M 16509M 16509B
             16536M 16537M 16537B 16554M 16555M 16555B 16576M 16577M 16577B 16615M 16616M 16616B 16657M 16658M 16658B
             16682M 16683M 16683B 16741M 16742M 16742B 16787M 16788M 16788B 16806M 16807M 16807B 16841M 16842M 16842B
             16863M 16864M 16864B 16888M 16889M 16889B 16907M 16908M 16908B 16942M 16943M 16943B 16964M 16965M 16965B
             16999M 17000M 17000B 17021M 17022M 17022B 17056M 17057M 17057B 17078M 17079M 17079B 17112M 17115B 17141
             17205M 17206M 17206B 17211M 17216M 17216  17227M 17232M 17232  17242M 17243  17244  17245  17250M 17251
             17254M 17255M 17255B 17258M 17261  17262  17263  17268M 17269M 17269B 17290M 17291M 17291B 17349M 17350M
             17350B 17426M 17429B 17534  17586M 17589B 17601  17715M 17718B 17730  17785M 17788B 17815  17879M 17880M
             17880B 17884M 17885M 17885B 17888M 17889M 17889B 17947M 17948M 17948B 17965M 17966M 17966B 18013M 18014M
             18014B 18047M 18048M 18048B 18069M 18070M 18070B 18087M 18088M 18088B 18126M 18127M 18127B 18147M 18148M
             18148B 18165M 18166M 18166B 18183M 18184M 18184B 18221M 18224B 18250  18314M 18315M 18315B 18320M 18325M
             18325  18336M 18341M 18341  18351M 18352  18353  18354  18359M 18360  18363M 18364M 18364B 18367M 18370
             18371  18372  18377M 18378M 18378B 18408M 18409M 18409B 18433M 18434M 18434B 18437M 18438M 18438B 18442M
             18443M 18443B 18475M 18478B 18643  18699M 18702B 18714  18771M 18774B 18800  18885M 18886M 18886B 18890M
             18891M 18891B 18894M 18895M 18895B 18899M 18900M 18900B 18932M 18935B 18964  19036M 19037M 19037B 19064M
             19065M 19065B 19107M 19108M 19108B 19135M 19136M 19136B 19178M 19179M 19179B 19206M 19207M 19207B 19249M
             19250M 19250B 19277M 19278M 19278B 19319M 19320M 19320B 19359M 19360M 19360B 19381M 19382M 19382B 19400M
             19401M 19401B 19419M 19422B 19515  19579M 19580M 19580B 19585M 19590M 19590  19601M 19606M 19606  19616M
             19617  19618  19619  19624M 19625  19628M 19629M 19629B 19632M 19635  19636  19637  19642M 19643M 19643B
             19673M 19674M 19674B 19698M 19699M 19699B 19702M 19703M 19703B 19707M 19708M 19708B 19740M 19743B 19972
             20028M 20031B 20043  20100M 20103B 20115  20171M 20174B 20186  20243M 20246B 20258  20318M 20319M 20319B
             20326M 20327M 20327B 20361M 20362M 20362B 20391M 20394B 20406  20464M 20467B 20479  20552M 20555B 20568
             20599M 20600  20630M 20631N 20632N 20636M 20636  20646M 20647  20648  20649  20654M 20655  20658M 20659M
             20659B 20662M 20665  20666  20667  20672M 20673M 20673B 20676M 20679  20696M 20699B 20832  20884M 20887B
             20899  20951M 20954B 20966  21018M 21021B 21033  21085M 21088B 21100  21151M 21152M 21152B 21169M 21170M
1         (ACMD4072) (12:39) (15MAR04) General Purpose Register Cross Reference                                             Page  262
             21170B 21194M 21197B 21209  21254M 21257B 21271  21327M 21330B 21342  21399M 21402B 21429  21493M 21494M
             21494B 21498M 21499M 21499B 21502M 21503M 21503B 21507M 21508M 21508B 21540M 21543B 21572  21644M 21645M
             21645B 21666M 21667M 21667B 21701M 21702M 21702B 21723M 21724M 21724B 21758M 21759M 21759B 21796M 21797M
             21797B 21836M 21837M 21837B 21858M 21859M 21859B 21884M 21885M 21885B 21908M 21909M 21909B 21926M 21927M
             21927B 21952M 21953M 21953B 21976M 21977M 21977B 21994M 21995M 21995B 22013M 22014M 22014B 22116M 22117M
             22117B 22135M 22136M 22136B 22154M 22157B 22240  22306M 22311M 22311  22321M 22322  22323  22324  22329M
             22330  22333M 22334M 22334B 22337M 22340  22341  22342  22347M 22348M 22348B 22352M 22357M 22357  22363M
             22364M 22364B 22375M 22376  22377  22378  22383M 22384  22387M 22388M 22388B 22391M 22394  22395  22396
             22401M 22402M 22402B 22411M 22412M 22412B 22444M 22447B 22521  22553M 22558M 22558  22565M 22566M 22566B
             22584M 22587B 22613  22652M 22653  22654  22655  22663M 22664M 22664B 22667M 22670  22671  22672  22677M
             22678M 22678B 22724M 22725M 22725B 22806M 22807M 22807B 22894M 22897B 22914  22945M 22946M 22946B 23026M
             23027M 23027B 23054M 23057B 23074  23121M 23122M 23122B 23138M 23139  23140  23141  23149M 23150M 23150B
             23153M 23156  23157  23158  23163M 23164M 23164B 23240M 23241M 23241B 23277M 23280B 23297  23328M 23329M
             23329B 23409M 23410M 23410B 23437M 23440B 23493  23532M 23533  23534  23535  23543M 23544M 23544B 23547M
             23550  23551  23552  23557M 23558M 23558B 23629M 23632B 23650  23722M 23723  23724  23725  23733M 23734M
             23734B 23737M 23740  23741  23742  23747M 23748M 23748B 23799M 23800M 23800B 23819M 23820N 23835N 23850N
             23851N 23852  23852  23853N 23854N 23867N 23871M 23871  23880M 23881M 23881B 23892M 23893  23894  23895
             23900M 23901  23904M 23905M 23905B 23908M 23911  23912  23913  23918M 23919M 23919B 23954M 23955M 23955B
             23971M 23972M 23972B 23995M 23996M 23996B 24025M 24026M 24026B 24045M 24046M 24046B 24069M 24070M 24070B
             24136M 24137M 24137B 24154M 24155M 24155B 24182M 24183M 24183B 24200M 24201M 24201B 24238M 24239M 24239B
             24250M 24251M 24251B 24268M 24269M 24269B 24290M 24291M 24291B 24302M 24303M 24303B 24320M 24321M 24321B
             24332M 24333M 24333B 24350M 24351M 24351B 24384M 24385M 24385B 24451M 24452M 24452B 24469M 24470M 24470B
             24475M 24476M 24476B 24502M 24503M 24503B 24520M 24521M 24521B 24571M 24572M 24572B 24680M 24681M 24681B
             24709M 24710M 24710B 24733M 24734M 24734B 24757M 24758M 24758B 24775M 24776M 24776B 24811M 24812M 24812B
             24817M 24818M 24818B 24841M 24842M 24842B 24859M 24860M 24860B 24888M 24889M 24889B 24960M 24961M 24961B
             24988M 24989M 24989B 25106M 25107M 25107B 25146M 25147M 25147B 25169M 25170M 25170B 25193M 25194M 25194B
             25222M 25223M 25223B 25246M 25247M 25247B 25319M 25320M 25320B 25343M 25344M 25344B 25396M 25397M 25397B
             25420M 25421M 25421B 25473M 25474M 25474B 25497M 25498M 25498B 25603M 25604M 25604B 25627M 25628M 25628B
             25653M 25654M 25654B 25694M 25695M 25695B 25732M 25735B 25809  25855M 25858B 25901  25950M 25951M 25951B
             25963M 25964M 25964B 25984M 25985M 25985B 26014M 26015M 26015B 26032M 26033M 26033B 26067M 26068M 26068B
             26072M 26073M 26073B 26096M 26097M 26097B 26114M 26115M 26115B 26154M 26155M 26155B 26184M 26185M 26185B
             26213M 26216B 26234  26308M 26309M 26309B 26324M 26325  26326  26327  26335M 26336M 26336B 26339M 26342
             26343  26344  26349M 26350M 26350B 26397M 26398M 26398B 26406M 26407M 26407B 26427M 26428M 26428B 26441M
             26442  26443  26444  26449M 26450  26453M 26454M 26454B 26457M 26460  26461  26462  26467M 26468M 26468B
             26476M 26477M 26477B 26497M 26498M 26498B 26545M 26548B 26623  26675M 26678B 26690  26738M 26739M 26739B
             26760M 26763B 26775  26821M 26824B 26849  26887M 26888  26889  26890  26895M 26896  26899M 26900M 26900B
             26903M 26906  26907  26908  26913M 26914M 26914B 26920M 26921M 26921B 26939M 26942B 27084  27140M 27141M
             27141B 27160M 27161M 27161B 27184M 27185M 27185B 27202M 27203M 27203B 27220M 27221M 27221B 27239M 27240M
             27240B 27247M 27248M 27248B 27329M 27330M 27330B 27370M 27371M 27371B 27395M 27396M 27396B 27403M 27404M
             27404B 27485M 27486M 27486B 27533M 27534M 27534B 27558M 27559M 27559B 27577M 27580B 27631  27693M 27694M
             27694B 27701M 27702M 27702B 27713M 27714  27715  27716  27721M 27722  27725M 27726M 27726B 27729M 27732
             27733  27734  27739M 27740M 27740B 27743M 27744M 27744B 27768M 27769M 27769B 27820M 27821M 27821B 27875M
             27876M 27876B 27893M 27894M 27894B 27897M 27898M 27898B 27938M 27939M 27939B 27964M 27965M 27965B 27999M
             28000M 28000B 28054M 28055M 28055B 28072M 28073M 28073B 28076M 28077M 28077B 28114M 28115M 28115B 28155M
             28156M 28156B 28169M 28170M 28170B 28215M 28216M 28216B 28233M 28234M 28234B 28256M 28257M 28257B 28274M
             28275M 28275B 28292M 28293M 28293B 28310M 28311M 28311B 28328M 28329M 28329B 28346M 28347M 28347B 28371M
             28372M 28372B 28395M 28396M 28396B 28413M 28414M 28414B 28417M 28418M 28418B 28453M 28454M 28454B 28481M
             28482M 28482B 28509M 28510M 28510B 28517M 28518M 28518B 28551M 28554B 28662  28726M 28727M 28727B 28731M
             28732M 28732B 28735M 28736M 28736B 28740M 28741M 28741B 28773M 28776B 28809  28882M 28883M 28883B 28916M
             28917M 28917B 28928M 28929M 28929B 28952M 28953M 28953B 29004M 29005M 29005B 29032M 29033M 29033B 29066M
             29067M 29067B 29084M 29087B 29113  29177M 29178M 29178B 29182M 29183M 29183B 29186M 29187M 29187B 29191M
             29192M 29192B 29224M 29227B 29260  29333M 29334M 29334B 29366M 29367M 29367B 29370M 29371M 29371B 29387M
             29388M 29388B 29411M 29412M 29412B 29416M 29421M 29422M 29455M 29456M 29456B 29475M 29476M 29476B 29499M
             29500M 29500B 29517M 29518M 29518B 29550M 29551M 29551B 29568M 29571B 29619  29686M 29687  29688  29689
             29694M 29695  29698M 29699M 29699B 29702M 29705  29706  29707  29712M 29713M 29713B 29751M 29752M 29752B
             29763M 29764  29765  29766  29774M 29775M 29775B 29778M 29781  29782  29783  29788M 29789M 29789B 29828M
             29829N 29830N 29834M 29834  29852M 29853M 29853B 29856M 29857M 29857B 29865M 29866M 29866B 29889M 29892B
             30085  30131M 30134B 30151  30203M 30204M 30204B 30226M 30227M 30227B 30280M 30281M 30281B 30288M 30289M
             30289B 30342M 30343M 30343B 30361M 30362M 30362B 30423M 30426B 30449  30494M 30495M 30495B 30542M 30545B
1         (ACMD4072) (12:39) (15MAR04) General Purpose Register Cross Reference                                             Page  263
             30642  30752M 30753M 30753B 30757M 30758  30770M 30771  30772  30773  30781M 30782M 30782B 30785M 30788
             30789  30790  30795M 30796M 30796B 30838M 30841  30851M 30852  30853  30854  30862M 30863M 30863B 30866M
             30869  30870  30871  30880M 30883  30917M 30918M 30918B 30925M 30926  30931M 30932M 30932B 30935M 30938
             30974M 30975M 30975B 31003M 31004M 31004B 31045M 31046  31047  31048  31053M 31054  31057M 31058M 31058B
             31061M 31064  31065  31066  31071M 31072M 31072B 31096M 31097M 31097B 31158M 31159M 31159B 31186M 31187M
             31187B 31214M 31215M 31215B 31242M 31243M 31243B 31254M 31255M 31255B 31325M 31328B 31477  31529M 31532B
             31544  31596M 31599B 31611  31663M 31666B 31678  31730M 31733B 31745  31797M 31800B 31812  31864M 31867B
             31934  32003M 32004M 32004B 32033M 32034M 32034B 32037M 32038M 32038B 32087M 32088M 32088B 32219M 32220M
             32220B 32307M 32308M 32308B 32347M 32348M 32348B 32420M 32421M 32421B 32566M 32567M 32567B 32580M 32594M
             32938M 32939M 32939B 32943M 32944M 32944B 32963M 32964M 32964B 32985M 32986M 32986B 33007M 33008M 33008B
             33022M 33027M 33027  33030M 33031M 33031B 33127M 33128M 33128B 33177M 33178M 33178B 33228M 33229M 33229B
             33256M 33257M 33257B 33274M 33275M 33275B 33302M 33303M 33303B 33346M 33347M 33347B 33417M 33418M 33418B
             33439M 33440M 33440B 33452M 33457M 33457  33460M 33461M 33461B 33488M 33489M 33489B 33520M 33521M 33521B
             33547M 33548M 33548B 33578M 33579M 33579B 33610M 33611M 33611B 33637M 33638M 33638B 33669M 33670M 33670B
             33681M 33682M 33682B 33706M 33709B 35258  35311M 35312  35313  35314  35319M 35320  35323M 35324M 35324B
             35327M 35330  35331  35332  35337M 35338M 35338B 35363M 35364  35365  35366  35371M 35372  35375M 35376M
             35376B 35379M 35382  35383  35384  35389M 35390M 35390B 35411M 35414B 35429  35486M 35489B 35501  35557M
             35560B 35572  35629M 35632B 35644  35700M 35703B 35715  35747M 35748M 35748B 35769M 35772B 35784  35816M
             35817M 35817B 35838M 35841B 35853  35885M 35886M 35886B 35907M 35910B 35922  35954M 35955M 35955B 35976M
             35979B 35991  36023M 36024M 36024B 36045M 36048B 36060  36092M 36093M 36093B 36114M 36117B 36129  36173M
             36174M 36174B 36178M 36179M 36179B 36200M 36203B 36215  36334M 36335M 36335B 36356M 36359B 36371  36428M
             36431B 36443  36499M 36502B 36514  36589M 36592B 36604  36661M 36664B 36676  36732M 36735B 36747  36804M
             36807B 36819  36875M 36878B 36890  36947M 36950B 36962  37018M 37021B 37033  37090M 37093B 37105  37167M
             37170B 37182  37244M 37247B 37259  37319M 37322B 37334  37394M 37397B 37409  37465M 37468B 37480  37537M
             37540B 37552  37631M 37634B 37646  37702M 37705B 37717  37774M 37777B 37790  37849M 37850M 37850B 37875M
             37876M 37876B 37931M 37932M 37932B 37978M 37979M 37979B 38034M 38035M 38035B 38070M 38073B 38086  38145M
             38146M 38146B 38185M 38186M 38186B 38212M 38215B 38252  38298M 38299M 38299B 38322M 38322  38323M 38345M
             38348B 38360  38406M 38407M 38407B 38430M 38430  38431M 38453M 38456B 38468  38514M 38515M 38515B 38538M
             38538  38539M 38561M 38564B 38576  38622M 38623M 38623B 38646M 38646  38647M 38669M 38672B 38684  38721M
             38722M 38722B 38743M 38746B 38759  38811M 38814B 38826  38871M 38872M 38872B 38890M 38891M 38891B 38918M
             38921B 38933  38978M 38979M 38979B 39002M 39005B 39018  39070M 39073B 39085  39123M 39124M 39124B 39161M
             39162M 39162B 39188M 39191B 39203  39255M 39258B 39270  39328M 39329M 39329B 39366M 39367M 39367B 39376M
             39376  39377M 39399M 39402B 39414  39466M 39469B 39481  39539M 39540M 39540B 39589M 39589  39590M 39612M
             39615B 39627  39683M 39686B 39698  39755M 39758B 39770  39826M 39829B 39841  39898M 39901B 39913  39970M
             39973B 39985  40041M 40044B 40056  40095M 40096M 40096B 40152M 40153M 40153B 40208M 40211B 40223  40279M
             40282B 40294  40351M 40354B 40366  40422M 40425B 40437  40494M 40497B 40509  40566M 40569B 40581  40637M
             40640B 40652  40708M 40711B 40723  40780M 40783B 40795  40854M 40857B 40869  40925M 40928B 40940  40999M
             41002B 41014  41070M 41073B 41085  41137M 41140B 41152  41209M 41210M 41210B 41274M 41277B 41289  41327M
             41328M 41328B 41392M 41395B 41407  41438M 41439M 41439B 41460M 41461M 41461B 41542M 41543M 41543B 41560M
             41561M 41561B 41642M 41645B 41657  41706M 41707M 41707B 41743M 41746B 41758  41816M 41819B 41831  41880M
             41881M 41881B 41911M 41912M 41912B 41956M 41959B 41971  42029M 42032B 42044  42093M 42094M 42094B 42124M
             42125M 42125B 42146M 42149B 42161  42219M 42222B 42234  42289M 42292B 42304  42355M 42358B 42625  42688M
             42689M 42689B 42718M 42719M 42719B 42722M 42723M 42723B 42772M 42773M 42773B 42904M 42905M 42905B 42992M
             42993M 42993B 43032M 43033M 43033B 43052M 43053  43054  43055  43060M 43061  43064M 43065M 43065B 43068M
             43071  43072  43073  43078M 43079M 43079B 43123M 43124M 43124B 43141M 43142M 43142B 43169M 43170M 43170B
             43187M 43188M 43188B 43220M 43221M 43221B 43244M 43245M 43245B 43274M 43275M 43275B 43310M 43311M 43311B
             43343M 43344M 43344B 43349M 43350M 43350B 43382M 43385B 43445  43496M 43499B 43563  43643M 43644M 43644B
             43661M 43662M 43662B 43689M 43690M 43690B 43723M 43724M 43724B 43751M 43752M 43752B 43769M 43770M 43770B
             43808M 43809M 43809B 43836M 43837M 43837B 43854M 43855M 43855B 43894M 43895M 43895B 43967M 43968M 43968B
             44006M 44007M 44007B 44045M 44046M 44046B 44084M 44085M 44085B 44138M 44139M 44139B 44177M 44178M 44178B
             44216M 44217M 44217B 44255M 44256M 44256B 44298M 44299M 44299B 44327M 44328M 44328B 44412M 44413M 44413B
             44430M 44431M 44431B 44466M 44467M 44467B 44484M 44485M 44485B 44489M 44490M 44490B 44507M 44508M 44508B
             44512M 44513M 44513B 44570M 44571M 44571B 44600M 44601M 44601B 44679M 44680M 44680B 44740M 44741M 44741B
             45111M 45112M 45112B 45178M 45179M 45179B 45211M 45212M 45212B 45233M 45234M 45234B 45261M 45262M 45262B
             45393M 45394M 45394B 45438M 45439M 45439B 45474M 45475M 45475B 45513M 45514M 45514B 45533M 45534M 45534B
             45555M 45556M 45556B 45589M 45590M 45590B 45601M 45602M 45602B 45619M 45620M 45620B 45631M 45632M 45632B
             45649M 45650M 45650B 45674M 45675M 45675B 45712M 45713M 45713B 45734M 45735M 45735B 45766M 45767M 45767B
             45800M 45801M 45801B 45822M 45823M 45823B 45840M 45841M 45841B 45903M 45904M 45904B 45964M 45965M 45965B
             45982M 45983M 45983B 46010M 46011M 46011B 46058M 46059M 46059B 46076M 46077M 46077B 46104M 46105M 46105B
1         (ACMD4072) (12:39) (15MAR04) General Purpose Register Cross Reference                                             Page  264
             46152M 46153M 46153B 46170M 46171M 46171B 46198M 46199M 46199B 46260M 46261M 46261B 46296M 46297M 46297B
             46334M 46335M 46335B 46376M 46377M 46377B 46430M 46431M 46431B 46466M 46467M 46467B 46494M 46495M 46495B
             46528M 46529M 46529B 46567M 46568M 46568B 46595M 46596M 46596B 46657M 46658M 46658B 46719M 46720M 46720B
             46737M 46738M 46738B 46743M 46744M 46744B 46767M 46768M 46768B 46785M 46786M 46786B 46796M 46797M 46797B
             46820M 46821M 46821B 46838M 46839M 46839B 46876M 46877M 46877B 46882M 46883M 46883B 46906M 46907M 46907B
             46924M 46925M 46925B 46966M 46967M 46967B 46972M 46973M 46973B 46996M 46997M 46997B 47014M 47015M 47015B
             47036M 47037M 47037B 47102M 47103M 47103B 47151M 47152M 47152B 47169M 47170M 47170B 47189M 47190M 47190B
             47213M 47214M 47214B 47231M 47232M 47232B 47279M 47280M 47280B 47297M 47298M 47298B 47318M 47319M 47319B
             47342M 47343M 47343B 47390M 47391M 47391B 47408M 47409M 47409B 47429M 47430M 47430B 47453M 47454M 47454B
             47515M 47516M 47516B 47552M 47553M 47553B 47570M 47571M 47571B 47591M 47592M 47592B 47609M 47610M 47610B
             47630M 47631M 47631B 47687M 47688M 47688B 47705M 47706M 47706B 47754M 47755M 47755B 47772M 47773M 47773B
             47821M 47822M 47822B 47839M 47840M 47840B 47888M 47889M 47889B 47906M 47907M 47907B 47955M 47956M 47956B
             47973M 47974M 47974B 48021M 48022M 48022B 48039M 48040M 48040B 48105M 48106M 48106B 48166M 48167M 48167B
             48184M 48185M 48185B 48235M 48236M 48236B 48253M 48254M 48254B 48334M 48335M 48335B 48352M 48353M 48353B
             48414M 48415M 48415B 48529M 48530M 48530B 48547M 48548M 48548B 48609M 48610M 48610B 48627M 48628M 48628B
             48697M 48698M 48698B 48720M 48721M 48721B 48745M 48746M 48746B 48769M 48770M 48770B 48805M 48806M 48806B
             48867M 48868M 48868B 48891M 48894B 49052  49111M 49112  49113  49114  49119M 49120  49123M 49124M 49124B
             49127M 49130  49131  49132  49137M 49138M 49138B 49159M 49160N 49175N 49190N 49191N 49192  49192  49193N
             49194N 49207N 49211M 49211  49279M 49280M 49280B 49297M 49300B 49359  49405M 49408B 49420  49466M 49469B
             49485  49525M 49526M 49526B 49606M 49607M 49607B 49634M 49637B 49654  49744M 49745M 49745B 49762M 49763M
             49763B 49790M 49791M 49791B 49808M 49809M 49809B 49830M 49833B 49848  49893M 49894M 49894B 49921M 49922M
             49922B 49939M 49940M 49940B 49967M 49968M 49968B 49993M 49996B 50010  50055M 50056M 50056B 50083M 50084M
             50084B 50101M 50102M 50102B 50129M 50130M 50130B 50154M 50157B 50172  50209M 50210M 50210B 50244M 50245M
             50245B 50374M 50377B 50389  50426M 50427M 50427B 50461M 50462M 50462B 50591M 50594B 50606  50669M 50670M
             50670B 50689M 50690M 50690B 50707M 50710B 50722  50785M 50786M 50786B 50835M 50836M 50836B 50868M 50871B
             50883  50946M 50947M 50947B 50983M 50986B 50998  51056M 51059B 51071  51134M 51135M 51135B 51171M 51174B
             51186  51249M 51250M 51250B 51315M 51318B 51330  51388M 51391B 51403  51466M 51467M 51467B 51503M 51506B
             51518  51549M 51550M 51550B 51636M 51639B 51651  51709M 51712B 51724  51788M 51791B 51803  51862M 51865B
             51877  51937M 51940B 51972  52037M 52038M 52038B 52088M 52089M 52089B 52127M 52128M 52128B 52166M 52167M
             52167B 52205M 52206M 52206B 52244M 52245M 52245B 52283M 52284M 52284B 52322M 52323M 52323B 52348M 52351B
             52430  52469M 52470  52471  52472  52477M 52478  52481M 52482M 52482B 52485M 52488  52489  52490  52495M
             52496M 52496B 52514M 52517B 52532  52571M 52572  52573  52574  52579M 52580  52583M 52584M 52584B 52587M
             52590  52591  52592  52597M 52598M 52598B 52616M 52619B 52785  52837M 52840B 52852  52901M 52904B 52916
             52965M 52968B 52980  53029M 53032B 53077  53119M 53124M 53124  53135M 53136  53137  53138  53146M 53147M
             53147B 53150M 53153  53154  53155  53160M 53161M 53161B 53205M 53206M 53206B 53221M 53226M 53226  53258M
             53261B 53307  53358M 53359M 53359B 53392M 53393M 53393B 53458M 53459M 53459B 53486M 53487M 53487B 53504M
             53505M 53505B 53532M 53533M 53533B 53943M 53944M 53944B 53967M 53970B 54026  54292M 54295B 54361  54392M
             54393M 54393B 54398M 54399M 54399B 54429M 54430M 54430B 54448M 54449M 54449B 54481M 54482M 54482B 54548M
             54549M 54549B 54592M 54595B 54650  54681M 54682  54724M 54725M 54725B 54740M 54741M 54741B 54787M 54788M
             54788B 54842M 54843M 54843B 54888M 54889M 54889B 54913M 54914N 54915N 54919M 54919  54957M 54958  54959
             54960  54965M 54966  54969M 54970M 54970B 54973M 54976  54977  54978  54983M 54984M 54984B 55011M 55012
             55013  55014  55019M 55020  55023M 55024M 55024B 55027M 55030  55031  55032  55037M 55038M 55038B 55129M
             55132  55149M 55152B 55272  55318M 55321B 55333  55379M 55382B 55394  55461M 55462M 55462B 55493M 55494M
             55494B 55523M 55526B 55540  55590M 55591M 55591B 55637M 55638M 55638B 55665M 55666M 55666B 55683M 55684M
             55684B 55711M 55712M 55712B 55741M 55742M 55742B 55765M 55768B 55799  55830M 55831  55883M 55884M 55884B
             55929M 55930M 55930B 55977M 55978N 55979N 55983M 55983  55993M 55994  55995  55996  56004M 56005M 56005B
             56008M 56011  56012  56013  56045M 56046M 56046B 56135M 56136M 56136B 56190M 56191M 56191B 56246M 56249
             56266M 56269B 56298  56386M 56387M 56387B 56432M 56433M 56433B 56450M 56451M 56451B 56468M 56469M 56469B
             56502M 56503M 56503B 56559M 56562B 56581  56613M 56613  56614M 56626  56658M 56659M 56659B 56681M 56682M
             56682B 56705M 56706M 56706B 56723M 56726B 56745  56810M 56811M 56811B 56832M 56833M 56833B 56852M 56853M
             56853B 56876M 56877M 56877B 56894M 56897B
    15(F)      922U  2101   8215M  8215   8391M  8391   8570M  8608M  8608   8806M  8806   8919M  8919   9098M  9098
              9173M  9173   9354M  9354   9823M  9826   9838M  9846M  9855M  9855   9862   9889M  9889   9908M  9908
              9975M  9975  10042M 10042  10110M 10110  10176M 10179  10191M 10199M 10208M 10208  10215  10267M 10267
             10286M 10286  10451M 10497M 10532M 10560M 10585M 10625M 10647M 10666M 10692M 10716M 10716  10867M 10867
             10907M 11379M 11379  11739M 11739  11817M 11854M 11854  11943M 11987M 12005M 12035M 12035  12100M 12126M
             12126  12352M 12352  12456M 12456  13103M 13103  13175M 13175  13275M 13275  13387  13429  13471  13499M
             13499  13518M 13518  13589M 13589  13661M 13661  13732M 13732  13804M 13804  13890M 13890  13976M 13976
             14058M 14058  14141M 14141  14213M 14213  14285M 14285  14357M 14357  14429M 14429  14570M 14570  14669M
1         (ACMD4072) (12:39) (15MAR04) General Purpose Register Cross Reference                                             Page  265
             14697M 14736M 14764M 14805M 14833M 14851M 14920M 14972M 15024M 15126M 15179M 15232M 15315M 15369M 15388M
             15412M 15412  15614M 15614  15705M 15705  15916M 15916  15990M 15990  16063M 16063  16137M 16137  16210M
             16210  16284M 16284  16396M 16424M 16442M 16470M 16505M 16533M 16551M 16573M 16612M 16654M 16679M 16738M
             16784M 16803M 16838M 16860M 16885M 16904M 16939M 16961M 16996M 17018M 17053M 17075M 17114M 17114  17264M
             17264  17428M 17428  17588M 17588  17698M 17698  17717M 17717  17787M 17787  17944M 17962M 18010M 18044M
             18066M 18084M 18123M 18144M 18162M 18180M 18223M 18223  18373M 18373  18477M 18477  18701M 18701  18773M
             18773  18934M 18934  19033M 19061M 19104M 19132M 19175M 19203M 19246M 19274M 19316M 19356M 19378M 19397M
             19421M 19421  19638M 19638  19742M 19742  20030M 20030  20102M 20102  20173M 20173  20245M 20245  20295M
             20296M 20296N 20358M 20393M 20393  20466M 20466  20554M 20554  20668M 20668  20698M 20698  20886M 20886
             20953M 20953  21020M 21020  21087M 21087  21148M 21166M 21196M 21196  21256M 21256  21329M 21329  21401M
             21401  21542M 21542  21641M 21663M 21698M 21720M 21755M 21793M 21833M 21855M 21866D 21868M 21868  21869M
             21870U 21905M 21923M 21934D 21936M 21936  21937M 21938U 21973M 21991M 22010M 22113M 22132M 22156M 22156
             22343M 22343  22397M 22397  22446M 22446  22586M 22586  22673M 22673  22721M 22839M 22896M 22896  23023M
             23056M 23056  23159M 23159  23237M 23279M 23279  23406M 23439M 23439  23553M 23553  23631M 23631  23743M
             23743  23751M 23752M 23752N 23796M 23820M 23829M 23829  23835M 23844M 23844  23850M 23851M 23853M 23854
             23866M 23866  23867  23914M 23914  23967M 23992M 24022M 24066M 24133M 24151M 24179M 24197M 24235M 24243D
             24245M 24245  24246M 24247U 24265M 24287M 24295D 24297M 24297  24298M 24299U 24317M 24325D 24327M 24327
             24328M 24329U 24347M 24381M 24389D 24391M 24391  24392M 24393U 24405  24412M 24448M 24466M 24499M 24517M
             24568M 24677M 24706M 24754M 24772M 24808M 24838M 24856M 24885M 24957M 24985M 25103M 25143M 25148M 25190M
             25201D 25203M 25203  25204M 25205U 25243M 25251D 25253M 25253  25254M 25255U 25267  25274M 25287M 25287
             25294M 25340M 25348D 25350M 25350  25351M 25352U 25364  25371M 25417M 25425D 25427M 25427  25428M 25429U
             25441  25448M 25494M 25502D 25504M 25504  25505M 25506U 25518  25525M 25568M 25578M 25578  25624M 25691M
             25734M 25734  25857M 25857  25960M 25981M 26011M 26029M 26064M 26093M 26111M 26151M 26181M 26215M 26215
             26345M 26345  26380M 26403M 26424M 26463M 26463  26473M 26494M 26547M 26547  26677M 26677  26721M 26743M
             26743  26762M 26762  26823M 26823  26909M 26909  26941M 26941  27137M 27146M 27181M 27199M 27217M 27236M
             27244M 27244  27260M 27270U 27288U 27326M 27367M 27392M 27400M 27400  27416M 27426U 27444U 27482M 27487M
             27497U 27515U 27579M 27579  27735M 27735  27765M 27817M 27872M 27890M 27902  27935M 27940M 27940  27944M
             27996M 28051M 28069M 28111M 28152M 28193  28212M 28230M 28253M 28271M 28289M 28307M 28325M 28343M 28368M
             28392M 28410M 28450M 28505M 28553M 28553  28775M 28775  28879M 28913M 28924M 28949M 29001M 29029M 29063M
             29086M 29086  29226M 29226  29330M 29363M 29383M 29408M 29420M 29420  29421M 29422M 29427  29452M 29461M
             29496M 29514M 29547M 29570M 29570  29708M 29708  29734M 29784M 29784  29862M 29891M 29891  30114M 30133M
             30133  30223M 30277M 30339M 30345M 30402M 30403M 30404  30425M 30425  30491M 30544M 30544  30791M 30791
             30872M 30872  30914M 31067M 31067  31074M 31129M 31130M 31131  31155M 31183M 31211M 31239M 31281  31327M
             31327  31531M 31531  31598M 31598  31665M 31665  31732M 31732  31799M 31799  31866M 31866  32587M 32593
             32594M 32617M 32617  32627M 32627  32940M 32965  32987  33009  33225M 33253M 33271M 33299M 33517M 33544M
             33607M 33634M 33665M 33708M 33708  35333M 35333  35385M 35385  35413M 35413  35488M 35488  35559M 35559
             35631M 35631  35702M 35702  35744M 35752M 35752  35771M 35771  35813M 35821M 35821  35840M 35840  35882M
             35890M 35890  35909M 35909  35951M 35959M 35959  35978M 35978  36020M 36028M 36028  36047M 36047  36089M
             36097M 36097  36116M 36116  36170M 36175M 36183M 36183  36202M 36202  36272  36304  36331M 36358M 36358
             36430M 36430  36501M 36501  36591M 36591  36663M 36663  36734M 36734  36806M 36806  36877M 36877  36949M
             36949  37020M 37020  37092M 37092  37169M 37169  37246M 37246  37321M 37321  37396M 37396  37467M 37467
             37539M 37539  37633M 37633  37704M 37704  37776M 37776  37827M 37828M 37828N 38053M 38053  38072M 38072
             38195M 38195  38214M 38214  38290D 38292M 38292  38293M 38294U 38295M 38302  38314M 38323M 38324  38328M
             38328  38347M 38347  38398D 38400M 38400  38401M 38402U 38403M 38410  38422M 38431M 38432  38436M 38436
             38455M 38455  38506D 38508M 38508  38509M 38510U 38511M 38518  38530M 38539M 38540  38544M 38544  38563M
             38563  38614D 38616M 38616  38617M 38618U 38619M 38626  38638M 38647M 38648  38652M 38652  38671M 38671
             38726M 38726  38745M 38745  38813M 38813  38864D 38866M 38866  38867M 38868U 38881M 38881  38897  38901M
             38901  38920M 38920  38971D 38973M 38973  38974M 38975U 38981  38985M 38985  39004M 39004  39072M 39072
             39120M 39127  39139M 39152M 39152  39167  39171M 39171  39190M 39190  39257M 39257  39305M 39308  39320M
             39325M 39332  39344M 39357M 39357  39372M 39377M 39378  39382M 39382  39401M 39401  39468M 39468  39516M
             39519  39531M 39536M 39543  39555M 39568M 39568  39585M 39590M 39591  39595M 39595  39614M 39614  39685M
             39685  39757M 39757  39828M 39828  39900M 39900  39972M 39972  40043M 40043  40092M 40107  40148  40149M
             40164  40171M 40179  40181  40183  40191M 40191  40210M 40210  40281M 40281  40353M 40353  40424M 40424
             40496M 40496  40568M 40568  40639M 40639  40710M 40710  40782M 40782  40856M 40856  40927M 40927  41001M
             41001  41072M 41072  41139M 41139  41187M 41190  41202M 41213  41225M 41241  41248M 41253  41257M 41257
             41276M 41276  41324M 41331  41343M 41359  41366M 41371  41375M 41375  41394M 41394  41473M 41486  41539M
             41557M 41571M 41580M 41580  41587  41610M 41625M 41625  41644M 41644  41726M 41726  41745M 41745  41818M
             41818  41894M 41939M 41939  41958M 41958  42031M 42031  42107M 42129M 42129  42148M 42148  42221M 42221
             42291M 42291  42357M 42357  43074M 43074  43120M 43138M 43166M 43184M 43198M 43199M 43241M 43271M 43276M
1         (ACMD4072) (12:39) (15MAR04) General Purpose Register Cross Reference                                             Page  266
             43384M 43384  43498M 43498  43640M 43658M 43686M 43720M 43748M 43766M 43805M 43833M 43851M 43891M 43964M
             44003M 44042M 44081M 44135M 44174M 44213M 44252M 44295M 44324M 44409M 44427M 44463M 44481M 44504M 44567M
             44597M 44676M 44737M 45108M 45175M 45208M 45230M 45258M 45390M 45435M 45471M 45486D 45488M 45488  45489M
             45490U 45510M 45552M 45586M 45594D 45596M 45596  45597M 45598U 45616M 45624D 45626M 45626  45627M 45628U
             45646M 45671M 45709M 45731M 45763M 45797M 45819M 45837M 45900M 45961M 45979M 46007M 46055M 46073M 46101M
             46149M 46167M 46195M 46257M 46293M 46331M 46373M 46427M 46463M 46491M 46525M 46564M 46592M 46654M 46716M
             46734M 46764M 46782M 46817M 46835M 46873M 46903M 46921M 46963M 46993M 47011M 47033M 47099M 47148M 47166M
             47175M 47210M 47228M 47276M 47294M 47304M 47339M 47387M 47405M 47415M 47450M 47512M 47549M 47567M 47588M
             47606M 47627M 47684M 47702M 47751M 47769M 47818M 47836M 47885M 47903M 47952M 47970M 48018M 48036M 48102M
             48163M 48181M 48232M 48250M 48331M 48349M 48411M 48439M 48439  48449M 48449  48526M 48544M 48606M 48624M
             48694M 48717M 48741M 48766M 48802M 48864M 48893M 48893  49133M 49133  49150  49160M 49169M 49169  49175M
             49184M 49184  49190M 49191M 49193M 49194  49206M 49206  49207  49219M 49219  49299M 49299  49388M 49407M
             49407  49449M 49468M 49468  49530M 49530  49603M 49613M 49636M 49636  49741M 49759M 49787M 49805M 49832M
             49832  49890M 49918M 49936M 49964M 49995M 49995  50052M 50080M 50098M 50126M 50156M 50156  50241M 50292M
             50295  50307M 50315M 50324M 50324  50331  50357M 50357  50376M 50376  50458M 50509M 50512  50524M 50532M
             50541M 50541  50548  50574M 50574  50593M 50593  50709M 50709  50832M 50851M 50851  50870M 50870  50966M
             50966  50985M 50985  51058M 51058  51154M 51154  51173M 51173  51298M 51298  51317M 51317  51390M 51390
             51486M 51486  51505M 51505  51558M 51561  51573M 51581M 51590M 51590  51597  51619M 51619  51638M 51638
             51711M 51711  51790M 51790  51864M 51864  51939M 51939  52034M 52085M 52124M 52163M 52202M 52241M 52280M
             52319M 52350M 52350  52459  52491M 52491  52497M 52516M 52516  52561  52593M 52593  52599M 52618M 52618
             52839M 52839  52884M 52903M 52903  52948M 52967M 52967  53012M 53031M 53031  53125  53156M 53156  53176M
             53227M 53260M 53260  53389M 53455M 53483M 53501M 53529M 53969M 53969  54184M 54184  54246M 54246  54263M
             54294M 54294  54394  54443  54445M 54452M 54453M 54454M 54454  54478M 54572M 54594M 54594  54745M 54745
             54784M 54839M 54885M 54885  54979M 54979  55033M 55033  55051M 55051  55058M 55074  55094  55103M 55103
             55119M 55151M 55151  55301M 55320M 55320  55362M 55381M 55381  55425  55458M 55463M 55463  55467M 55506M
             55525M 55525  55634M 55662M 55680M 55708M 55738M 55767M 55767  55880M 55926M 55926  55949M 55949  56014M
             56014  56023M 56023  56042M 56132M 56187M 56200M 56203  56215M 56222M 56224  56239M 56268M 56268  56328M
             56329M 56341  56429M 56447M 56465M 56499M 56508M 56518U 56536U 56561M 56561  56614M 56635M 56641  56655M
             56664M 56702M 56725M 56725  56774  56807M 56829M 56838M 56873M 56896M 56896

1ACMD     (ACMD4072) (12:39) (15MAR04) Diagnostic Cross Reference and Assembler Summary                                     Page  267
-                                                                                            HLASM R4.0  2004/03/15 12.39
0     No Statements Flagged in this Assembly
 HIGH LEVEL ASSEMBLER, 5696-234, RELEASE 4.0, PTF P72483
0SYSTEM: OS/390 02.10.00            JOBNAME: WYL#ACMD    STEPNAME: ASM        PROCSTEP: (NOPROC)
0Datasets Allocated for this Assembly
  Con DDname   Dataset Name                                 Volume  Member
   P1 SYSIN    WYL.GS.WYL.WYLBUR.SOURCE                     SYSB05  ACMD
   L1 SYSLIB   WYL.GS.WYL.WYLBUR.MACLIB                     SYSB05
   L2          WYL.GG.SYS.MACLIB                            SYSB05
   L3          SYS3.IS.MACLIB                               SYSB05
   L4          SYS3.MACLIB                                  SYSB02
   L5          SYS1.MACLIB                                  MVSBR9
   L6          SYS1.MODGEN                                  MVSBR9
      SYSPRINT SYS04075.T123931.RA000.WYL#ACMD.PRINT.H01    SCR101
      SYSTERM  GG$SLP.WYL#ACMD.JOB03504.D0000101.?

    3668K allocated to Buffer Pool,         6741K would be required for this to be an In-Storage Assembly
    4733 Primary Input Records Read         7931 Library Records Read                727 Work File Reads
       0 ASMAOPT Records Read              30402 Primary Print Records Written       772 Work File Writes
       0 Punch Records Written                 0 ADATA Records Written
0Assembly Start Time: 12.39.33 Stop Time: 12.40.05 Processor Time: 00.00.11.9967
 Return Code 000
