1                        J E S 2  J O B  L O G  --  S Y S T E M  S Y S B  --  N O D E  R L G
0
 12.54.44 JOB03563 ---- MONDAY,    15 MAR 2004 ----
 12.54.44 JOB03563  ICH70001I GG$SLP   LAST ACCESS AT 12:54:26 ON MONDAY, MARCH 15, 2004
 12.54.44 JOB03563  $HASP373 WYL#SIGN STARTED - INIT 6    - CLASS B - SYS SYSB
 12.54.44 JOB03563  ***  HCMD      STEP $$QUIET
 12.54.44 JOB03563  PUR * Q OUT MUL
 12.54.44 JOB03563  JOB 5425 WYL#SIGN WILL BE PURGED
 12.54.45 JOB03563  WYL#SIGN.$$QUIET .         RC=Zero TapeIO=0000 DiskIO=0000 CPU=  .01s Elapsed=84.02s
 12.55.16 JOB03563  WYL#SIGN.ASM     .         RC=Zero TapeIO=0000 DiskIO=0832 CPU= 6.49s Elapsed=85.20s
 12.55.18 JOB03563  WYL#SIGN.EDIT    .         RC=Zero TapeIO=0000 DiskIO=0292 CPU=  .86s Elapsed=16.27s
 12.55.18 JOB03563  WYL#SIGN Ended.  Name=Assemble SIGN                  Total CPU= 7.36s Elapsed=84.02s
 12.55.18 JOB03563
 12.55.18 JOB03563  Execution charges   Priority=Standard   Block=Day
 12.55.18 JOB03563
 12.55.18 JOB03563  CPU Usage         136.12          $84.39   Standard Processing Unit Equivalent
 12.55.18 JOB03563                                   =======
 12.55.18 JOB03563                                    $84.39   Total Job execution charge
 12.55.18 JOB03563
 12.55.18 JOB03563  See back separator page for print charges
 12.55.18 JOB03563
 12.55.18 JOB03563  $HASP395 WYL#SIGN ENDED  ASM=0, EDIT=0
1        1 //WYL#SIGN JOB SLP$GG,'Assemble SIGN',TIME=4,REGION=4M                  JOB03563
           //*
           /*JOBPARM LINES=99,COPIES=1
           /*JOBPARM FORMS=3HOL,PFORMAT=LAND,CHARS=BD13,DUPLEX=YES,FLASH=BAR4
           //*
           /*JOBPARM NOTIFY=GG.SLP,HOLD=OUTPUT                                     WYLGEN
         2 //$$QUIET EXEC PGM=HCMDX,PARM='PUR * Q OUT MUL'
           //*
         3 //ASM    EXEC PGM=ASMA90,REGION=8M,
           //            PARM=('NORENT,TERM,FLAG(NOCONT),US(MAP,WARN(10)),NODECK',
           //            'LC(32767),XREF(SHORT),ESD,DXREF,NOOBJECT')
         4 //STEPLIB DD DSN=SYS3.IS.TESTASM,DISP=SHR
         5 //SYSLIB   DD  DSN=WYL.GS.WYL.WYLBUR.MACLIB,DISP=SHR
         6 //         DD  DSN=WYL.GG.SYS.MACLIB,DISP=SHR
         7 //         DD  DSN=SYS3.IS.MACLIB,DISP=SHR
         8 //         DD  DSN=SYS3.MACLIB,DISP=SHR
         9 //         DD  DSN=SYS1.MACLIB,DISP=SHR
        10 //         DD  DSN=SYS1.MODGEN,DISP=SHR
        11 //SYSUT1   DD DSN=&&SYSUT1,UNIT=VIO,DISP=(,DELETE),
           //            SPACE=(4088,(500,250),,CONTIG,ROUND)
        12 //SYSTERM  DD SYSOUT=T
        13 //SYSPRINT DD DSN=&&PRINT,UNIT=SYSDA,DISP=(,PASS),
           //            SPACE=(6650,(250,250),RLSE),
           //            DCB=(BLKSIZE=6650,LRECL=133,RECFM=FB)
        14 //SYSUDUMP DD SYSOUT=A
        15 //SYSIN    DD  DSN=WYL.GS.WYL.WYLBUR.SOURCE(SIGN),DISP=SHR
           //*
        16 //EDIT    EXEC PGM=ASMEDIT,TIME=2,REGION=4000K,
           //             PARM='STMT'
        17 //STEPLIB  DD  DSN=WYL.GG.SYS.LINKLIB,DISP=SHR
        18 //ASMOUT   DD  DSN=&PRINT,DISP=(OLD,DELETE)
        19 //SYSPRINT DD  SYSOUT=A
1 STMT NO. MESSAGE
 -
        11 IGD01010I STORCLAS= TEMP STORGROUP =
        11 IGD01010I STORGRP=VIO ASSIGNED.
        13 IGD01010I STORCLAS= TEMP STORGROUP =
        13 IGD01010I STORGRP=VIO ASSIGNED.
 ICH70001I GG$SLP   LAST ACCESS AT 12:54:26 ON MONDAY, MARCH 15, 2004
 IEF142I WYL#SIGN $$QUIET - STEP WAS EXECUTED - COND CODE 0000
 *********************************************************************************
 *   WYL#SIGN/$$QUIET /                    Return Code      Zero                 *
 *   Region used      260K (16K user + 244K system)                              *
 *   Extended region  9692K (4K user + 9688K system)                             *
 *                                                                               *
 *   Paging              In      Out                                             *
 *   Private <-> Aux      0        0       CPU time (TCB)   00:00:00.01          *
 *   Private <-> Exp      0        0       CPU time (SRB)   00:00:00.00          *
 *   VIO                  0        0       Elapsed time    917:33:08.94          *
 *   Common               0      ---                                             *
 *                                                                               *
 *                                                                               *
 *   CPU Usage          0.18         $0.11  Standard Processing Unit Equivalent  *
 *                                   $0.11  Total Step execution charge          *
 *                                                                               *
 *    I/O count  DDname   Type Addr           I/O count  DDname   Type Addr      *
 *                         *** No I/O for this step ***                          *
 *********************************************************************************
 IEF373I STEP/$$QUIET /START 2004075.1254
 IEF374I STEP/$$QUIET /STOP  2004075.1254 CPU    0MIN 00.01SEC SRB    0MIN 00.00SEC VIRT    16K SYS   244K EXT       4K SYS    9688K
 IEF236I ALLOC. FOR WYL#SIGN ASM
 IEF237I 04DC ALLOCATED TO STEPLIB
 IEF237I 04DC ALLOCATED TO SYSLIB
 IEF237I 04DC ALLOCATED TO
 IEF237I 04DC ALLOCATED TO
 IEF237I 0402 ALLOCATED TO
 IEF237I 04A0 ALLOCATED TO
 IEF237I 04A0 ALLOCATED TO
 IGD101I SMS ALLOCATED TO DDNAME (SYSUT1  )
         DSN (SYS04075.T125443.RA000.WYL#SIGN.SYSUT1.H01  )
         STORCLAS (TEMP) MGMTCLAS (        ) DATACLAS (        )
         VOL SER NOS= VIO
 IEF237I JES2 ALLOCATED TO SYSTERM
 IGD101I SMS ALLOCATED TO DDNAME (SYSPRINT)
         DSN (SYS04075.T125443.RA000.WYL#SIGN.PRINT.H01   )
         STORCLAS (TEMP) MGMTCLAS (        ) DATACLAS (        )
         VOL SER NOS= SCR101
 IEF237I JES2 ALLOCATED TO SYSUDUMP
 IEF237I 04DC ALLOCATED TO SYSIN
 IEF142I WYL#SIGN ASM - STEP WAS EXECUTED - COND CODE 0000
 IEF285I   SYS3.IS.TESTASM                              KEPT
 IEF285I   VOL SER NOS= SYSB05.
 IEF285I   WYL.GS.WYL.WYLBUR.MACLIB                     KEPT
 IEF285I   VOL SER NOS= SYSB05.
 IEF285I   WYL.GG.SYS.MACLIB                            KEPT
 IEF285I   VOL SER NOS= SYSB05.
 IEF285I   SYS3.IS.MACLIB                               KEPT
 IEF285I   VOL SER NOS= SYSB05.
 IEF285I   SYS3.MACLIB                                  KEPT
 IEF285I   VOL SER NOS= SYSB02.
 IEF285I   SYS1.MACLIB                                  KEPT
 IEF285I   VOL SER NOS= MVSBR9.
 IEF285I   SYS1.MODGEN                                  KEPT
 IEF285I   VOL SER NOS= MVSBR9.
 IGD105I SYS04075.T125443.RA000.WYL#SIGN.SYSUT1.H01   DELETED,   DDNAME=SYSUT1
 IEF285I   GG$SLP.WYL#SIGN.JOB03563.D0000101.?          SYSOUT
 IGD106I SYS04075.T125443.RA000.WYL#SIGN.PRINT.H01    PASSED,    DDNAME=SYSPRINT
 IEF285I   GG$SLP.WYL#SIGN.JOB03563.D0000102.?          SYSOUT
 IEF285I   WYL.GS.WYL.WYLBUR.SOURCE                     KEPT
 IEF285I   VOL SER NOS= SYSB05.
 *********************************************************************************
 *   WYL#SIGN/ASM     /                    Return Code      Zero                 *
 *   Region used      4376K (4096K user + 280K system)                           *
 *   Extended region  10308K (412K user + 9896K system)                          *
 *                                                                               *
 *   Paging              In      Out                                             *
 *   Private <-> Aux      0        0       CPU time (TCB)   00:00:06.42          *
 *   Private <-> Exp      0        0       CPU time (SRB)   00:00:00.07          *
 *   VIO                  0        0       Elapsed time    917:33:07.76          *
 *   Common               0      ---                                             *
 *                                                                               *
 *                                                                               *
 *   CPU Usage        120.37        $74.62  Standard Processing Unit Equivalent  *
 *                                  $74.62  Total Step execution charge          *
 *                                                                               *
 *    I/O count  DDname   Type Addr           I/O count  DDname   Type Addr      *
 *           84  STEPLIB  Disk 04DC                 387  SYSLIB   Disk 04DC      *
 *            0  SYSLIB   Disk 04DC                   0  SYSLIB   Disk 04DC      *
 *            6  SYSLIB   Disk 0402                  57  SYSLIB   Disk 04A0      *
 *            0  SYSLIB   Disk 04A0                 386  SYSUT1   VIO  ----      *
 *            0  SYSTERM       ----                 289  SYSPRINT Disk 04E3      *
 *            0  SYSUDUMP      ----                   9  SYSIN    Disk 04DC      *
 *********************************************************************************
 IEF373I STEP/ASM     /START 2004075.1254
 IEF374I STEP/ASM     /STOP  2004075.1255 CPU    0MIN 06.42SEC SRB    0MIN 00.07SEC VIRT  4096K SYS   280K EXT     412K SYS    9896K
 IEF236I ALLOC. FOR WYL#SIGN EDIT
 IEF237I 0402 ALLOCATED TO STEPLIB
 IGD103I SMS ALLOCATED TO DDNAME ASMOUT
 IEF237I JES2 ALLOCATED TO SYSPRINT
 IEF142I WYL#SIGN EDIT - STEP WAS EXECUTED - COND CODE 0000
 IEF285I   WYL.GG.SYS.LINKLIB                           KEPT
 IEF285I   VOL SER NOS= SYSB02.
 IGD105I SYS04075.T125443.RA000.WYL#SIGN.PRINT.H01    DELETED,   DDNAME=ASMOUT
 IEF285I   GG$SLP.WYL#SIGN.JOB03563.D0000103.?          SYSOUT
 *********************************************************************************
 *   WYL#SIGN/EDIT    /                    Return Code      Zero                 *
 *   Region used      380K (116K user + 264K system)                             *
 *   Extended region  9836K (4K user + 9832K system)                             *
 *                                                                               *
 *   Paging              In      Out                                             *
 *   Private <-> Aux      0        0       CPU time (TCB)   00:00:00.83          *
 *   Private <-> Exp      0        0       CPU time (SRB)   00:00:00.03          *
 *   VIO                  0        0       Elapsed time    917:32:36.69          *
 *   Common               0      ---                                             *
 *                                                                               *
 *                                                                               *
 *   CPU Usage         15.56         $9.64  Standard Processing Unit Equivalent  *
 *                                   $9.64  Total Step execution charge          *
 *                                                                               *
 *    I/O count  DDname   Type Addr           I/O count  DDname   Type Addr      *
 *            2  STEPLIB  Disk 0402                 290  ASMOUT   Disk 04E3      *
 *            0  SYSPRINT      ----                                              *
 *********************************************************************************
 IEF373I STEP/EDIT    /START 2004075.1255
 IEF374I STEP/EDIT    /STOP  2004075.1255 CPU    0MIN 00.83SEC SRB    0MIN 00.03SEC VIRT   116K SYS   264K EXT       4K SYS    9832K
 *********************************************************************************
 *                                                                               *
 *                      S t a n f o r d   U n i v e r s i t y                    *
 *                                                                               *
 *                              *** Job Summary ***                              *
 *                                                                               *
 *   System Id      SYSB                   Input time     12:39:26  Mar 15, 2004 *
 *                                                                               *
 *   System Release SP6.1.0                Start time     12:54:44  Mar 15, 2004 *
 *                                                                               *
 *   Job name       WYL#SIGN               Stop  time     00:00:00  Mar 15, 2004 *
 *                                                                               *
 *   Account        SLP$GG                 Elapsed time  917:33:08.94            *
 *                                                                               *
 *   User Name      Assemble SIGN          CPU time       00:00:07.26            *
 *                                                                               *
 *   Job class      B                      SRB Time       00:00:00.10            *
 *                                                                               *
 *********************************************************************************
 IEF375I  JOB/WYL#SIGN/START 2004075.1254
 IEF376I  JOB/WYL#SIGN/STOP  2004075.1255 CPU    0MIN 07.26SEC SRB    0MIN 00.10SEC
1Assembler Done SIGN No Statements Flagged
1         High Level Assembler Option Summary                   (PTF P72483 )                                               Page    1
-                                                                                            HLASM R4.0  2004/03/15 12.54
0  No Overriding ASMAOPT Parameters
   Overriding Parameters-  NORENT,TERM,FLAG(NOCONT),US(MAP,WARN(10)),NODECK,LC(32767),XREF(SHORT),ESD,DXREF,NOOBJECT
   No Process Statements


   Options for this Assembly
0  NOADATA
     ALIGN
   NOASA
     BATCH
     CODEPAGE(047C)
   NOCOMPAT
   NODBCS
 3 NODECK
 3   DXREF
 3   ESD
   NOEXIT
 3   FLAG(0,ALIGN,NOCONT,NOIMPLEN,NOPAGE0,PUSH,RECORD,NOSUBSTR,USING0)
   NOFOLD
   NOGOFF
   NOINFO
     LANGUAGE(EN)
   NOLIBMAC
 3   LINECOUNT(32767)
     LIST(121)
     MXREF(SOURCE)
 3 NOOBJECT
     OPTABLE(UNI,NOLIST)
   NOPCONTROL
   NOPESTOP
   NOPROFILE
   NORA2
 3 NORENT
     RLD
     RXREF
     SIZE(MAX)
     SYSPARM()
 3   TERM(WIDE)
   NOTEST
     THREAD
   NOTRANSLATE
 3   USING(NOLIMIT,MAP,WARN(10))
 3   XREF(SHORT)

   No Overriding DD Names

1SIGN     External Symbol Dictionary                                                                                        Page    2
-Symbol   Type   Id     Address  Length     LD ID  Flags Alias-of                            HLASM R4.0  2004/03/15 12.54
0WYLSIGN   SD 00000001 00000000 000057D0             00
 SIGN4072  LD          00000000           00000001
 SIGNON    LD          00000018           00000001
 SIGNRES   LD          0000024C           00000001
 NSCAN     ER 00000002
 SCINIT    ER 00000003
 INITSTK   ER 00000004
 SEG       ER 00000005
 TSTAT     ER 00000006
 SEGB      ER 00000007
 TREAD     ER 00000008
 TREADQ    ER 00000009
 ACCTPSHL  ER 0000000A
 MTOKEN    ER 0000000B
 MALL      ER 0000000C
 MPARM     ER 0000000D
 SCNNOOP   ER 0000000E
 MACRO     ER 0000000F
 SET       ER 00000010
 SHOW      ER 00000011
 JESCMD    ER 00000012
 XCTL      ER 00000013
 RLOOKUP   ER 00000014
 SEGCR     ER 00000015
 SEGWR     ER 00000016
 CHKTTYPE  ER 00000017
 SETTTYPE  ER 00000018
 UPDCPSIB  ER 00000019
 GETACCT   ER 0000001A
 SCDQUOTE  ER 0000001B
 CHKPRT    ER 0000001C
 SETPRT    ER 0000001D
 LRTRIM    ER 0000001E
 SETPARM   ER 0000001F
 PROTFREE  ER 00000020
 FREEBILL  ER 00000021
 HOSTINIT  ER 00000022
 GETUID    ER 00000023
 SEGCLR    ER 00000024
 TCNTL     ER 00000025
 CHECKSET  ER 00000026
 DOBILL    ER 00000027
 LOGSESS   ER 00000028
 SYSCHECK  ER 00000029
 SEGDC     ER 0000002A
 FMTXDATE  ER 0000002B
 KWIO      ER 0000002C
 LTIMDISP  ER 0000002D
 FORCPASS  ER 0000002E
 KTIMDISP  ER 0000002F
 NEWSDISP  ER 00000030
 MAILDISP  ER 00000031
 USE       ER 00000032
 EDTCOM    ER 00000033
 SEGT      ER 00000034
1SIGN     External Symbol Dictionary                                                                                        Page    3
 WAITER    ER 00000035
 KLOGINCK  ER 00000036
 READPW    ER 00000037
 LOGKWR    ER 00000038
 LOCALTOD  ER 00000039
 SEGTB     ER 0000003A
 YESREQ    ER 0000003B
 TOUPPER   ER 0000003C
 FMTRCLCK  ER 0000003D
 SHOWBKUP  ER 0000003E
 GETCP     LD          00003B54           00000001
 TERMSEG   ER 0000003F
 FREECP    LD          00003BF0           00000001
 GETPOOL   ER 00000040
 TSGBUFGT  ER 00000041
 SEGINIT   ER 00000042
 SEGINITR  ER 00000043
 FREEVIEW  ER 00000044
 TSGBUFRE  ER 00000045
 FREECORE  ER 00000046
 FREEPOOL  ER 00000047
 INITCP    LD          00003CFA           00000001
 GETCORE   ER 00000048
 ACTRESET  ER 00000049
 INITEXEC  ER 0000004A
 INITXCAL  ER 0000004B
 INITFLOW  ER 0000004C
 INITVARS  ER 0000004D
 INITDBUG  ER 0000004E
 RETFNAME  ER 0000004F
 SAMINIT   ER 00000050
 EXREINIT  ER 00000051
 BILLCHK   ER 00000052
 FREERG    ER 00000053
 INITRG    ER 00000054
 LOGOFF    LD          000041EC           00000001
 LOGON     LD          00004220           00000001
 CLRPSH    ER 00000055
 SCNINVAL  ER 00000056
 SCANCHK   ER 00000057
 CLRACTS   ER 00000058
 ORVCPASS  ER 00000059
 RECOVERY  LD          00004998           00000001
 SIGNOFF   LD          00004AB6           00000001
 SETLOGON  LD          00005136           00000001
 ACCTPSHC  ER 0000005A
 COLLPSH   ER 0000005B
 NOTVALID  ER 0000005C
 ACTRCVY   ER 0000005D
 BTD       ER 0000005E
 INITCMD   ER 0000005F
 OLDSAVE   ER 00000060
 PFREEA    ER 00000061
 PFREEB    ER 00000062
 CLRHCMDS  ER 00000063
 MCLEAR    ER 00000064
 VETSFREE  ER 00000065
 DENQFREE  ER 00000066
 SERVFREE  ER 00000067
1SIGN     External Symbol Dictionary                                                                                        Page    4
 NPATFREE  ER 00000068
 PATHFREE  ER 00000069
 FMTTIME   ER 0000006A
 TSUBOFF   ER 0000006B
 DISPLGF   ER 0000006C
 TLOGOFF   ER 0000006D
 EOSDISP   ER 0000006E

1SIGN     WYLBUR's Signon/Signoff Processing                                                                                Page    5
0Loc    Object Code    Addr1 Addr2  Stmt Lv Lineno    Source Statement                    (Asmedit 3.3)  HLASM R4.0  2004/03/15 12.54
+___    ______ ____    _____ _____  ____ __ ______    ______ _________
0                                      2              *******************************************************************
                                       3              *                                                                 *
                                       4              *     WYLBUR/370 - Release VI - Class I - Stanford Proprietary    *
                                       5              *                                                                 *
                                       6              *******************************************************************
                                       7                       HIBAL
                                     988
                                     989                       SYSDEFN ,                 Define installation params
                                     990                       GBLC  &GREET,&INSTALN
                                     991                       GBLA  &FPDAYS
                                     992                       GBLB  &SETLTIM,&KEYUPLO   (See SYSDEFN)
                                     993
 000000                00000 057D0   994              WYLSIGN  CSECT
                                     998              SIGN     IDENT 4072                10:30:08 03/12/04  (SLP)
                                    1001             +
                                    1002    01-IDENT +         ENTRY SIGN4072
                                    1003             +
 000000 16E2C9C7D5F4F0F7            1004    01-IDENT +SIGN4072 DC    AL1(22),C'SIGN4072,15MAR04,12:54'
                                    1005             +*
                                    1007              *
                                    1008                       REGS  FSR,,,,,,,BR,(WAR,LSR),PAR,PBR,CPR,CVR,SPR,RAR
                                    1144
                                    1145                       PUSH  DSECTS
 USING  CP,R11                      1157             =         USING (CP),(CV)
 USING  CV,R12
 000017                00000 057D0  1176             =         POP   PRINT
1SIGN     (SIGN4072) (12:54) (15MAR04) WYLBUR's Signon/Signoff Processor                                                    Page    6
0Current Usings:  (CP,R11) (CV,R12)
0Loc    Object Code    Addr1 Addr2  Stmt Lv Lineno    Source Statement           (Hibal 5, Asmedit 3.3)  HLASM R4.0  2004/03/15 12.54
+___    ______ ____    _____ _____  ____ __ ______    ______ _________
0                                   9458              ¿þþþþþþþþþþþþþþþþþþþþþþþþþþþþþþþþþþþþþþþþþþþþþþþþþþþþþþþþþþþþþþþþþþþþþÜ
                                    9459              Ÿ                                                                     Ÿ
                                    9460              Ÿ  SIGNON:  Initial logon entry is here.  If CPSACCT is filled        Ÿ
                                    9461              Ÿ    in then the user is pre-logged on.  Otherwise, the user must     Ÿ
                                    9462              Ÿ    go through the signon sequence.                                  Ÿ
                                    9463              Ÿ                                                                     Ÿ
                                    9464              Ÿ      On entry:                                                      Ÿ
                                    9465              Ÿ       R1,R0 - initial text                                          Ÿ
                                    9466              Ÿ                                                                     Ÿ
                                                      ¾þþþþþþþþþþþþþþþþþþþþþþþþþþþþþþþþþþþþþþþþþþþþþþþþþþþþþþþþþþþþþþþþþþþþþ»
0000000                00000 00208  9467              SIGNWA   RECORD BEGIN
 000000                             9475  1           SIGNPASS   DS    CL(L'KWRPASS)       Pre-entered password
                                    9476  1
 000008                             9477  1           SIGNSYS    DS    CL8                 Subsystem name
                                    9478  1
 000010                             9479  1           SIGNKWR    DS    XL(L'KWR)
 000208                00208 00208  9480                       END
                                    9489              þþþþ
 000018 188D/4570 C74C_             9490              SIGNON   GENTER
 USING  *,R7
 000026 186D/41D0 D208              9507                       XPUSH ,,L'SIGNWA,PTR=R6
 USING  SIGNWA,R6                   9510                       USING SIGNWA,R6
 00002C D7FF 6000 6000_00000 00000  9519                       CLEAR SIGNWA
 00003E 9200 B47C      0047C        9528    ***ISU             CLEAR CPGFLG9             Clear SIGNON process flags
                                    9535
 000042 D507 709A B154_000C0 00154  9536                       IF    (CPSYS,EQ,'MILTEN  '),'CLEAR CPSYS'  From MILTEN
 000052 D607 B154 B154_00154 00154  9565    ***ISU             IF    (CPSYS,Z),'SET CPFSGNML'  This is an initial logon
 000060 D207 B15C B154 0015C 00154  9592                       MVC   CPORGSYS,CPSYS      Save originating subsystem name
                                    9593
 000066 41F0 0001/4AF0_      00001  9594                       INCR  R15,CVNUSERS        Kick active user count
                                    9600
 000072 184D/41D0 D0EC              9601                       XPUSH ,,&LINESZ,PTR=R4
 000078 1850                        9604                       LR    R5,R0
 00007A 5950 70A2/47D0_      000C8  9605                       CEIL  R5,&LINESZ
 000086 18F5                        9624                       LR    R15,R5
 000088 06F0/12FF/4740_             9625                       MOVE  R15,@R4,@R1         Save initial text
                                    9663
 000094 58E0 70A6/0DEE       000CC  9664                       ACALL INITCP              Set up CP, record groups, etc.
 00009A 9620 B478      00478        9668                       SET   CPGFWR              (Avoid @OK first time thru)
                                    9674
 00009E 58F0 C1C8            001C8  9675                       L     R15,CVCURJCB
 0000A2 D201 F052 B3C4 00052 003C4  9676                       WITH  (JCB,R15),'MVC JCBSUC,CPSUC'
 USING  JCB,R15
 DROP   JCB,R15
                                    9700
 0000A8 4050 B240            00240  9701                       STH   R5,CPCMDLEN
 0000AC 0650/1255/4740_             9702                       MOVE  R5,CPCMD,@R4        Move input into command buffer
 0000B8 4BD0 70AA            000D0  9740                       XPOP  ,,&LINESZ
 0000BC 47F0 70B8            000DE  9742                       B     SIGNB
                                    9743
                                    9744                       QLTORG
1SIGN     (SIGN4072) (12:54) (15MAR04) WYLBUR's Signon/Signoff Processor                                                    Page    7
0Current Usings:  (SIGNWA,R6) (*,R7) (CP,R11) (CV,R12)
0Loc    Object Code    Addr1 Addr2  Stmt Lv Lineno    Source Statement           (Hibal 5, Asmedit 3.3)  HLASM R4.0  2004/03/15 12.54
+___    ______ ____    _____ _____  ____ __ ______    ______ _________
00000DE 0D70                        9761              SIGNB    BASE
 DROP   *,R7
 USING  *,R7
 0000E0                             9778              SIGNBASE LABEL
                                    9780
 0000E0 D204 BC48 B3B4 00C48 003B4  9781                       MVC   CPCACCT,CPSACCT
 0000E6 D604 BC48 BC48_00C48 00C48  9782                       IF    (CPCACCT,NZ),BEGIN  User is pre-logged on...
 0000F0 9640 B8A9      008A9        9798  1                      SET   CPFGREET
 0000F4 D601 B240 B240_00240 00240  9804  1                      IF    (CPCMDLEN,NZ),'SET CPFSGNCM'  First command provided
 000102 47F0 716C            0024C  9831  1                      B     SIGNSTD
 000106                             9832                       END
                                    9836
 000106 9200 B3BE/9200_003BE        9837                       CLEAR CPSKIFL,CPSKAFL,CPSTACF,CPSIDMAX
                                    9859
 000118 D607 C050 C050_00050 00050  9860                       IF    (CVWORD,NZ),SIGNSTD  Skip initial text if sys time
                                    9879
                                    9880                       COMMENT                   SET UP SCANCB
 000122 4110 B090            00090  9881                       LA    R1,CPNSCAN          General purpose SCANCB
 000126 5010 B08C            0008C  9882                       ST    R1,CPNSCANP         Save addr in CP
 00012A 58E0 B08C/D7AF_      0008C  9883                       SCCLR                     Clear control block
                                    9892
                                    9893                       COMMENT                   OLD SCANNER COMPATABILITY FIX
 000136 4110 B242/4800_      00242  9894                       SCINIT CPCMD,LH:CPCMDLEN  Init for scan
 00014C 5810 B08C/1B00_      0008C  9917                       SCAN  ,                   Scan off first token
 00019A 58E0 B08C/581E_      0008C  9948                       SCINFO ,
 0001A8 58E0 76CC/0DEE       007AC  9957                       OSCINIT (R1),(R0)         Old scanner compatability
                                    9973
                                    9974                       COMMENT                   SCAN LOGON INPUT
                                    9975                       COMMENT                   WE ARE USING NEW SCANNER
 0001AE 4110 B242/4800_      00242  9976                       SCINIT CPCMD,LH:CPCMDLEN  Init for scan
 0001C4 5810 B08C/1B00_      0008C  9999                       SCAN  SIGNPRT1            Scan off first token
 000216 59F0 76D4/4770_      007B4 10031                       IF    (R15,EQ,4),'CLEAR R15'
 000220 12FF/4780 714A             10057                       IF    (R15,NZ),BEGIN
 000226 47F0 7166            00246 10071  1                      B     SIGNCLR
 00022A                            10072                       END
 00022A D602 BC48 BC48_00C48 00C48 10076                       IF    ((CPCUSER,Z),OR,(CPCGRP,Z)),SIGNCLR
 00023E 9640 B8A9      008A9       10110                       SET   CPFGREET            Don't do greeting line
 000242 47F0 7692            00772 10116                       B     SIGNK
                                   10117
 000246 D704 BC48 BC48 00C48 00C48 10118              SIGNCLR  CLEAR CPCACCT
 00024C                            10126              SIGNSTD  LABEL
                                   10128
 00024C 188D/4570 C74C_            10129              SIGNRES  GENTER
 DROP   *,R7
 USING  *,R7
 00025A 5870 755E            007B8 10149                       BASE  SIGNBASE
 DROP   *,R7
 USING  SIGNBASE,R7
 00025E 58E0 76DC/0DEE       007BC 10167                       VCALL INITSTK             Re-initialize the stack
                                   10171
 000264 186D/41D0 D208             10172                       XPUSH ,,L'SIGNWA,PTR=R6
 00026A D7FF 6000 6000_00000 00000 10175                       CLEAR SIGNWA
                                   10184
 00027C 58E0 76E0/0DEE       007C0 10185                       ACALL GREET               Write initial messages
1SIGN     (SIGN4072) (12:54) (15MAR04) WYLBUR's Signon/Signoff Processor                                                    Page    8
0Current Usings:  (SIGNWA,R6) (SIGNBASE,R7) (CP,R11) (CV,R12)
0Loc    Object Code    Addr1 Addr2  Stmt Lv Lineno    Source Statement           (Hibal 5, Asmedit 3.3)  HLASM R4.0  2004/03/15 12.54
+___    ______ ____    _____ _____  ____ __ ______    ______ _________
0                                  10189
 000282 58F0 C1C8            001C8 10190                       L     R15,CVCURJCB
 USING  JCB,R15                    10191                       WITH  (JCB,R15),BEGIN
 000286 D704 F04A F04A_0004A 0004A 10205  1                      CLEAR JCBACCT,JCBANO,JCBBFNR,JCBSFV+JCBSFMIC
 DROP   JCB,R15                    10230                       END
                                   10238
 00029A D7FF BC48 BC48_00C48 00C48 10239                       CLEAR CPZERO              Init local area
 0002B2 D201 BC50 7716 00C50 007F6 10249                       MVC   CPLCOL,=H'&LINESZ'
 0002B8 D707 B88E B88E 0088E 0088E 10250                       CLEAR CPOERRID
 0002BE 58E0 76E4/0DEE       007C4 10257                       ACALL INITDFLT            Make sure logon defaults are set
                                   10261
 0002C4 9620 BD57/94EF_00D57       10262                       SET   CPFCASE,(CPFUPPER,OFF)  Set uplow for logon prompts
 0002CC 9501 B38C/4770_0038C       10273                       IF    CPSTCONS,'SET CPFLMSG+CPFWORD'  Console is special
 0002D8 D604 B3B4 B3B4_003B4 003B4 10302                       IF    (CPSACCT,NZ),'MVC CPCACCT,CPSACCT; B SIGNK'
                                   10325
 0002EC D704 BC48 BC48_00C48 00C48 10326              SIGNLOOP CLEAR CPCACCT,SIGNPASS,CPSPROJ,CPSNAME
 000304 58F0 C1C8            001C8 10349                       L     R15,CVCURJCB
 000308 94FD F062      00062       10350                       WITH  (JCB,R15),'CLEAR JCBFATTN'
 USING  JCB,R15
 DROP   JCB,R15
 00030C D501 7718 B87C_007F8 0087C 10380                       IF    (CPLGNCT,GE,5),BEGIN
 000316 4110 774E/4100_      0082E 10398  1                      TSEG  'Valid account not specified, logoff proceeding.'
 000328 58F0 C1C8            001C8 10416  1                      L     R15,CVCURJCB
 00032C 9680 F062      00062       10417  1                      WITH  (JCB,R15),'SET JCBAFALO'  Logoff (eventually)
 USING  JCB,R15
 DROP   JCB,R15
 000330                            10446                       END
                                   10450
 000330 58E0 76EC/0DEE       007CC 10451                       TSTAT
 000336 4740 76B2            00792 10456                       BM    SIGNLGF             Logoff
                                   10457
 00033A 9120 B8A9/4710_008A9       10458                       IF    ~CPFWORD,BEGIN      Get the word, if any...
 000342 D607 C050 C050_00050 00050 10473  1                      IF    (CVWORD,Z),EXIT     No word
 00034C D704 BC48 BC48_00C48 00C48 10492  1                      CLEAR CPCACCT,SIGNPASS,CPSPROJ,CPSNAME
 000364 4110 777D/4100_      0085D 10514  1                      SETMSG 'Maintenance'
 00036C 9110 C4C7/47E0_004C7       10518  1                      IF    CVFSYST,'SETMSG "System maintenance"'
 00037C 41F0 B050/58E0_      00050 10542  1                      TSEG  (R1),(R0),B
 000386 4110 772C/4100_      0080C 10566  1                      TREAD 'in progress, logon not allowed... '
 000396 D607 C050 C050_00050 00050 10580  1                      IF    (CVWORD,Z),EXIT     The word got reset
 0003A0 12FF/4740 720C             10599  1                      IF    (R15,NEG),SIGNLOOP
 0003A6 12FF/4720 76B2             10616  1                      IF    (R15,POS),SIGNLGF   No soap, fella
 0003AC 5900 76F8/47D0_      007D8 10633  1                      CEIL  R0,&LINESZ
 0003B8 4000 B240            00240 10652  1                      STH   R0,CPCMDLEN
 0003BC 12F0/47D0 72EE_            10653  1                      IF    ('LTR R15,R0',P),'MOVE R15,CPCMD,@R1'
                                   10709  1
                                   10710  1                      COMMENT                   SET UP SCANCB
 0003CE 4110 B090            00090 10711  1                      LA    R1,CPNSCAN          General purpose SCANCB
 0003D2 5010 B08C            0008C 10712  1                      ST    R1,CPNSCANP         Save addr in CP
 0003D6 58E0 B08C/D7AF_      0008C 10713  1                      SCCLR                     Clear control block
                                   10722  1
                                   10723  1                      COMMENT                   OLD SCANNER COMPATABILITY FIX
 0003E2 4110 B242/4800_      00242 10724  1                      SCINIT CPCMD,LH:CPCMDLEN  Init for scan
 0003F8 5810 B08C/1B00_      0008C 10747  1                      SCAN  ,                   Scan off first token
 000446 58E0 B08C/581E_      0008C 10778  1                      SCINFO ,
1SIGN     (SIGN4072) (12:54) (15MAR04) WYLBUR's Signon/Signoff Processor                                                    Page    9
0Current Usings:  (SIGNWA,R6) (SIGNBASE,R7) (CP,R11) (CV,R12)
0Loc    Object Code    Addr1 Addr2  Stmt Lv Lineno    Source Statement           (Hibal 5, Asmedit 3.3)  HLASM R4.0  2004/03/15 12.54
+___    ______ ____    _____ _____  ____ __ ______    ______ _________
0000454 58E0 76CC/0DEE       007AC 10787  1                      OSCINIT (R1),(R0)         Old scanner compatability
                                   10803  1
 00045A 4110 B242/4800_      00242 10804  1                      SCINIT CPCMD,LH:CPCMDLEN
 000470 5810 B08C/1B00_      0008C 10827  1                      SCAN
 0004BE 12FF/4770 C7DE_            10858  1                      IF    ((R15,NZ),OR,(R0,Z)),CVNEXT  TRY AGAIN
 0004CA 5810 B08C/4111_      0008C 10888  1                      SCUPTOK R1
 0004D2 D507 C050 1000_00050 00000 10892  1                      IF    (CVWORD,EQ,@R1),BEGIN  You guessed it...
 0004DC 9620 B8A9      008A9       10909  2                        SET   CPFWORD
 0004E0 9200 BCD0      00CD0       10915  2                        CLEAR CPSCNFLG
 0004E4 5810 B08C/1B00_      0008C 10922  2                        SCAN  SIGNPRT             Allow logon stuff after word
 000536 59F0 76D4/4770_      007B4 10954  2                        IF    (R15,EQ,4),'CLEAR R15'
 000540 12FF/4780 746A             10980  2                        IF    (R15,NZ),BEGIN
 000546 47F0 C7DE            007DE 10994  3                          B     CVNEXT
 00054A                            10995  2                        END
 00054A 47F0 720C            002EC 10999  2                        B     SIGNLOOP
 00054E                            11000  1                      END
 00054E 58E0 B08C/58FE_      0008C 11004  1                      SCBKUP ,                  DID NOT GET WORK, CHECK ACCT
 000584 5810 B08C/1B00_      0008C 11060  1                      SCAN  SIGNPRT             (Looking for sys priv'd acct)
 0005D6 59F0 76D4/4770_      007B4 11092  1                      IF    (R15,EQ,4),'CLEAR R15'
 0005E0 12FF/4780 750A             11118  1                      IF    (R15,NZ),BEGIN
 0005E6 47F0 C7DE            007DE 11132  2                        B     CVNEXT
 0005EA                            11133  1                      END
 0005EA D602 BC48 BC48_00C48 00C48 11137  1                      IF    ((CPCUSER,NZ),AND,(CPCGRP,NZ)),SIGNLOG
 0005FE 47F0 C7DE            007DE 11171  1                      B     CVNEXT
 000602                            11172                       END
                                   11176
 000602 D207 B88E 76C0 0088E 007A0 11177                       MVC   CPOERRID,=CL8'INITACCT'
 000608 4110 7788/4100_      00868 11178                       TREAD 'Account',,Q
 000618 4740 720C            002EC 11192                       BM    SIGNLOOP
 00061C 4720 76B2            00792 11193                       BP    SIGNLGF
 000620 5900 76F8/47D0_      007D8 11194                       CEIL  R0,&LINESZ
 00062C 4000 B240            00240 11213                       STH   R0,CPCMDLEN
 000630 12F0/47D0 7562_            11214                       IF    ('LTR R15,R0',P),'MOVE R15,CPCMD,@R1'
                                   11270
                                   11271                       COMMENT                   SET UP SCANCB
 000642 4110 B090            00090 11272                       LA    R1,CPNSCAN          General purpose SCANCB
 000646 5010 B08C            0008C 11273                       ST    R1,CPNSCANP         Save addr in CP
 00064A 58E0 B08C/D7AF_      0008C 11274                       SCCLR                     Clear control block
                                   11283
                                   11284                       COMMENT                   OLD SCANNER COMPATABILITY FIX
 000656 4110 B242/4800_      00242 11285                       SCINIT CPCMD,LH:CPCMDLEN  Init for scan
 00066C 5810 B08C/1B00_      0008C 11308                       SCAN  ,                   Scan off first token
 0006BA 58E0 B08C/581E_      0008C 11339                       SCINFO ,
 0006C8 58E0 76CC/0DEE       007AC 11348                       OSCINIT (R1),(R0)         Old scanner compatability
                                   11364
                                   11365                       COMMENT                   SCAN LOGON INPUT
                                   11366                       COMMENT                   WE ARE USING NEW SCANNER
 0006CE 4110 B242/4800_      00242 11367                       SCINIT CPCMD,LH:CPCMDLEN  Init for scan
 0006E4 5810 B08C/1B00_      0008C 11390                       SCAN  SIGNPRT             Scan off first token
 000736 59F0 76D4/4770_      007B4 11422                       IF    (R15,EQ,4),'CLEAR R15'
 000740 12FF/4780 766A             11448                       IF    (R15,NZ),BEGIN
 000746 47F0 C7DE            007DE 11462  1                      B     CVNEXT
 00074A                            11463                       END
 00074A D602 BC48 BC48_00C48 00C48 11467                       IF    ((CPCUSER,Z),OR,(CPCGRP,Z)),SIGNLOOP
1SIGN     (SIGN4072) (12:54) (15MAR04) WYLBUR's Signon/Signoff Processor                                                    Page   10
0Current Usings:  (SIGNWA,R6) (SIGNBASE,R7) (CP,R11) (CV,R12)
0Loc    Object Code    Addr1 Addr2  Stmt Lv Lineno    Source Statement           (Hibal 5, Asmedit 3.3)  HLASM R4.0  2004/03/15 12.54
+___    ______ ____    _____ _____  ____ __ ______    ______ _________
0                                  11501
 00075E 41F0 0001/4AF0_      00001 11502              SIGNLOG  INCR  R15,CPLGNCT         Count attempt to logon
 00076A 9200 BB68      00B68       11508                       CLEAR CPCHFLAG            Clear special charging flags
 00076E 9200 B3BC      003BC       11515                       CLEAR CPSTACF             Assumptions
                                   11522
 000772 4110 6000            00000 11523              SIGNK    LA    R1,SIGNWA
 000776 58E0 7704/0DEE       007E4 11524                       ACALL CKACCT              Check to make sure account is ok
                                   11528
 00077C 58E0 7708/0DEE       007E8 11529                       ACALL DOLOGMSG            Do msg-of-day now (if not before)
                                   11533
 000782 58E0 770C/0DEE       007EC 11534                       ACALL CHKWORD             Check for the secret word
                                   11538
 000788 4110 6000            00000 11539                       LA    R1,SIGNWA
 00078C 58E0 7710/0DEE       007F0 11540                       ACALL LOGFIN              User is now officially logged on
                                   11544                       COMMENT                   LOGFIN ROUTINE DOES NOT RETURN
                                   11545
 000792 58F0 C1C8            001C8 11546              SIGNLGF  L     R15,CVCURJCB
 000796 9680 F062      00062       11547                       WITH  (JCB,R15),'SET JCBAFALO'
 USING  JCB,R15
 DROP   JCB,R15
 00079A 47F0 C7DE            007DE 11576                       B     CVNEXT              Logoff (eventually)
                                   11577
 DROP   SIGNBASE,R7                11578                       DROP  BR
                                   11585
                                   11586                       QLTORG
1SIGN     (SIGN4072) (12:54) (15MAR04) WYLBUR's Signon/Signoff Processor                                                    Page   11
0Current Usings:  (SIGNWA,R6) (CP,R11) (CV,R12)
0Loc    Object Code    Addr1 Addr2  Stmt Lv Lineno    Source Statement           (Hibal 5, Asmedit 3.3)  HLASM R4.0  2004/03/15 12.54
+___    ______ ____    _____ _____  ____ __ ______    ______ _________
0                                  11627                       ¿þþþþþþþþþþþþþþþþþþþþþþþþþþþþþþþþþþþþþþþþþþþþþþþÜ
                                   11628                       Ÿ  Logon scan tables                            Ÿ
                                   11629                       Ÿ  (used only when MILTEN has supplied initial  Ÿ
                                   11630                       Ÿ   text).                                      Ÿ
                                   11631                       ¾þþþþþþþþþþþþþþþþþþþþþþþþþþþþþþþþþþþþþþþþþþþþþþþ»
 00087C 4040404040404040_          11632              SIGNPRT1 SCKW  ,V(ACCTPSHL),PUSH
 0008A4 4040404040404040_          11647                       SCKW  ,SIGNPSH,PUSH
 0008CC D3D6C7C9D57A4040_          11662                       SCKW  LOGIN:,ELFLOGIN
 0008F4 4040404040404040_          11677                       SCKW  ,SIGNCPSH,PUSH
 00091C 4040404040404040_          11692                       SCKW  ,CHKTRM
-                                  11708                       ¿þþþþþþþþþþþþþþþþþþþþþþÜ
                                   11709                       Ÿ  Logon scan tables.  Ÿ
                                   11710                       ¾þþþþþþþþþþþþþþþþþþþþþþ»
 000944 4040404040404040_          11711              SIGNPRT  SCKW  ,V(ACCTPSHL),PUSH
 00096C 4040404040404040_          11726                       SCKW  ,SIGNPSH,PUSH
 000994 4040404040404040_          11741                       SCKW  ,SIGNCPSH,PUSH
 0009BC 4040404040404040_          11756                       SCKW  ,CHKTRM
-                                  11772                       ¿þþþþþþþþþþþþþþþþþþþþþþþþþþþþþÜ
                                   11773                       Ÿ  Common Logon scan tables.  Ÿ
                                   11774                       ¾þþþþþþþþþþþþþþþþþþþþþþþþþþþþþ»
 0009E4 50E0 D000/9008_      00000 11775              SIGNCPSH PUSHRTN SIGNCPRT
 USING  *,R7
 DROP   *,R7
 000A1C D4C5C4D3C9D5C540_          11842              SIGNCPRT SCKW  MEDLINE,CHKMED
 000A44 E2D6C3D9C1E3C5E2_          11857                       SCKW  SOCRATES,CHKSOC
 000A6C C6D6D3C9D6404040_          11872                       SCKW  FOLIO,CHKFOLIO
 000A94 D7D9C9E2D4404040_          11887                       SCKW  PRISM,CHKPRISM
 000ABC D7D9C9D5E3C5D940_          11902                       SCKW  PRINTER,CHKPRNTR,(A,P)
 000AE4 C3D3D6C1D2C5C440_          11917                       SCKW  CLOAKED,CLOAKED
 000B0C C5C3C8D640404040_          11932                       SCKW  ECHO,CHKECHO,A
 000B34 D5D6C5C3C8D64040_          11947                       SCKW  NOECHO,CHKNECHO,A
 000B5C E2C3C1D5C3C1E2C5_          11962                       SCKW  SCANCASE,V(SCNNOOP)
 000B84 6140404040404040_          11977                       SCKW  /,CHKKEY,P
 000BAC 4040404040404040_          11992                       SCKW  ,,END
                                   12007                       ¿þþþþþþþþþþþþþþþþþþþþþþþþþþþþþþþþþþþþþþþþþþÜ
                                   12008                       Ÿ  List of commands allowed before logon.  Ÿ
                                   12009                       ¾þþþþþþþþþþþþþþþþþþþþþþþþþþþþþþþþþþþþþþþþþþ»
 000BD4 50E0 D000/9008_      00000 12010              SIGNPSH  PUSHRTN SIGNCMD
 USING  *,R7
 DROP   *,R7
 000C0C E7C5D5D9D6D3D340_          12077              SIGNCMD  SCKW  XENROLL,V(MACRO),S
 000C34 6F40404040404040_          12092                       SCKW  ?,CHKHELP
 000C5C C8C5D3D740404040_          12107                       SCKW  HELP,CHKHELP,(A,S)
 000C84 C9D5C6D640404040_          12122                       SCKW  INFO,CHKHELP,(A,S)
 000CAC E2C5E34040404040_          12137                       SCKW  SET,V(SET),S
 000CD4 E2C8D6E640404040_          12152                       SCKW  SHOW,V(SHOW),(A,S)
 000CFC D3D6C3C1E3C54040_          12167                       SCKW  LOCATE,V(JESCMD),(A,S)  LOCATE
 000D24 E7C3E3D340404040_          12182                       SCKW  XCTL,V(XCTL),S
 000D4C E6E8D3C2E4D94040_          12197                       SCKW  WYLBUR,V(XCTL),S
 000D74 C4C5E5E6E8D34040_          12212                       SCKW  DEVWYL,V(XCTL),S
1SIGN     (SIGN4072) (12:54) (15MAR04) WYLBUR's Signon/Signoff Processor                                                    Page   12
0Current Usings:  (SIGNWA,R6) (CP,R11) (CV,R12)
0Loc    Object Code    Addr1 Addr2  Stmt Lv Lineno    Source Statement           (Hibal 5, Asmedit 3.3)  HLASM R4.0  2004/03/15 12.54
+___    ______ ____    _____ _____  ____ __ ______    ______ _________
0000D9C E3C5E2E3E6E8D340_          12227                       SCKW  TESTWYL,V(XCTL),S
 000DC4 D6D3C4E6E8D34040_          12242                       SCKW  OLDWYL,V(XCTL),S
 000DEC D3D6C7D6C6C64040_          12257                       SCKW  LOGOFF,LOGOFF,S
 000E14 D3D6C7D6E4E34040_          12272                       SCKW  LOGOUT,LOGOFF,S
 000E3C E2C9C7D5D6C6C640_          12287                       SCKW  SIGNOFF,LOGOFF,S
 000E64 D3D6C7D6D5404040_          12302                       SCKW  LOGON,LOGON,S
 000E8C D3D6C7C9D5404040_          12317                       SCKW  LOGIN,LOGON,S
 000EB4 E2C9C7D5D6D54040_          12332                       SCKW  SIGNON,LOGON,S
 000EDC E2E3D6D740404040_          12347                       SCKW  STOP,LOGOFF,S       (As requested by RLIN)
 000F04 4040404040404040_          12362                       SCKW  ,,END
1SIGN     (SIGN4072) (12:54) (15MAR04) WYLBUR's Signon/Signoff Processor                                                    Page   13
0Current Usings:  (SIGNWA,R6) (CP,R11) (CV,R12)
0Loc    Object Code    Addr1 Addr2  Stmt Lv Lineno    Source Statement           (Hibal 5, Asmedit 3.3)  HLASM R4.0  2004/03/15 12.54
+___    ______ ____    _____ _____  ____ __ ______    ______ _________
0                                  12378              ¿þþþþþþþþþþþþþþþþþþþþþþþþþþþþþþþþþþþþþþþþþþþþþþþþþþþþþþþþþþþþþþþþþþþþþÜ
                                   12379              Ÿ                                                                     Ÿ
                                   12380              Ÿ  CHKHELP -- Handle HELP/? response to initial Account prompt.       Ÿ
                                   12381              Ÿ                                                                     Ÿ
                                   12382              Ÿ  NOTES:                                                             Ÿ
                                   12383              Ÿ  WINGS WILL NOT ALLOW DISK ACCESS WITHOUT AN ACCOUNT.               Ÿ
                                   12384              Ÿ  SO FOR NOW WE HARD CODE THIS LOGON HELP.  ANOTHER                  Ÿ
                                   12385              Ÿ  APPROACH WOULD BE TO INIT A LOGON HELP MEMORY AREA                 Ÿ
                                   12386              Ÿ  AT WYLBUR INIT TIME, THEN WE CAN READ MEMORY                       Ÿ
                                   12387              Ÿ  AT PRE-LOGON TIME WITHOUT AN ACCOUNT.                              Ÿ
                                   12388              Ÿ                                                                     Ÿ
                                                      ¾þþþþþþþþþþþþþþþþþþþþþþþþþþþþþþþþþþþþþþþþþþþþþþþþþþþþþþþþþþþþþþþþþþþþþ»
0000F2C 50E0 D000/9008_      00000 12389              CHKHELP  PROC
 USING  *,R7
                                   12428              *        WINGS WILL NOT ALLOW ACOUNTLESS DISK ACCESS.
                                   12429              *         MSG   'LOGON HELP'
                                   12430              *         OSCINIT (R1),(R0)         OLD SCANNER COMPATABILITY
                                   12431              *         SCINIT (R1),(R0)
                                   12432              *         MVC   CPCMNM,=C'HEL'
                                   12433              *         VCALL HELP                Call HELP
                                   12434              *
                                   12435              *
                                   12436                       COMMENT GIVE IN LINE HELP
 000F46 9110 C4C4/4710_004C4       12437                       IF    ~CVFRLG,BEGIN
 000F4E 1B00/41F0 B050_            12452  1                      TCR
 000F5A 4110 7C1E/4100_      01B64 12477  1                      TSEG  'Enter your Data Center account.  '
 000F6C 4110 7A6E/4100_      019B4 12495  1                      TSEG  'The account is a 6-character string in'
 000F7E 1B00/41F0 B050_            12513  1                      TCR
 000F8A 4110 7A94/4100_      019DA 12538  1                      TSEG  'the format "gg.uuu", that is, two '
 000F9C 4110 7C3F/4100_      01B85 12556  1                      TSEG  'characters, a period, and three characters.'
 000FAE 1B00/41F0 B050_            12574  1                      TCR
 000FBA 1B00/41F0 B050_            12599  1                      TCR
 000FC6 4110 7AB6/4100_      019FC 12624  1                      TSEG  'Other options:'
 000FD8 1B00/41F0 B050_            12642  1                      TCR
 000FE4 4110 7AC4/4100_      01A0A 12667  1                      TSEG  ' - Type FOLIO to search Folio '
 000FF6 4110 7C6A/4100_      01BB0 12685  1                      TSEG  'if you don''t have a Forsythe account.'
 001008 1B00/41F0 B050_            12703  1                      TCR
 001014 4110 7AE2/4100_      01A28 12728  1                      TSEG  ' - Type PRISM to enter Prism under general access.'
 001026 1B00/41F0 B050_            12746  1                      TCR
 001032 4110 7832/4100_      01778 12771  1                      TSEG  ' - Type a terminal type, to set '
 001044 4110 7C8F/4100_      01BD5 12789  1                      TSEG  'your terminal type before logging on.'
 001056 1B00/41F0 B050_            12807  1                      TCR
 001062 4110 7CB4/4100_      01BFA 12832  1                      TSEG  ' - Type SHOW TERMINAL to see the '
 001074 4110 7B14/4100_      01A5A 12850  1                      TSEG  'current terminal settings.'
 001086 1B00/41F0 B050_            12868  1                      TCR
 001092 1B00/41F0 B050_            12893  1                      TCR
 00109E 4110 7CD5/4100_      01C1B 12918  1                      TSEG  ' - Type LOGOFF to end your session.'
 0010B0 1B00/41F0 B050_            12936  1                      TCR
 0010BC 1B00/41F0 B050_            12961  1                      TCR
 0010C8 4110 7852/4100_      01798 12986  1                      TSEG  'To open a Forsythe account, contact the '
 0010DA 4110 7B2E/4100_      01A74 13004  1                      TSEG  'Stanford Data Center''s Account'
 0010EC 1B00/41F0 B050_            13022  1                      TCR
 0010F8 4110 7CF8/4100_      01C3E 13047  1                      TSEG  'Services office, phone (415)723-4795.'
1SIGN     (SIGN4072) (12:54) (15MAR04) WYLBUR's Signon/Signoff Processor                                                    Page   14
0Current Usings:  (SIGNWA,R6) (*,R7) (CP,R11) (CV,R12)
0Loc    Object Code    Addr1 Addr2  Stmt Lv Lineno    Source Statement           (Hibal 5, Asmedit 3.3)  HLASM R4.0  2004/03/15 12.54
+___    ______ ____    _____ _____  ____ __ ______    ______ _________
000110A 1B00/41F0 B050_            13065  1                      TCR
 001116 1B00/41F0 B050_            13090  1                      TCR
 001122 1B00/41F0 B050_            13115  1                      TWRITE
 00112E                            13140                       END
 00112E 71EC/47F0 73FC 0112E 00F4C 13144                       ELSE  BEGIN
 001132 1B00/41F0 B050_            13155  1                      TCR
 00113E 4110 798A/4100_      018D0 13180  1                      TSEG  'Type your RLIN account number; for example, '
 001150 4110 7B4C/4100_      01A92 13198  1                      TSEG  'xx.yyy',,CR
 001162 4110 79B6/4100_      018FC 13216  1                      TSEG  'You will then be prompted for your password.'
 001174 1B00/41F0 B050_            13234  1                      TCR
 001180 1B00/41F0 B050_            13259  1                      TCR
 00118C 4110 787A/4100_      017C0 13284  1                      TSEG  'At the prompt "Command>"',,CR
 00119E 4110 7D1D/4100_      01C63 13302  1                      TSEG  '*  type EUREKA for Eureka search access to RLIN BIB'
 0011B0 4110 7B52/4100_      01A98 13320  1                      TSEG  ' and CitaDel files',,CR
 0011C2 4110 7892/4100_      017D8 13338  1                      TSEG  '*  type CALL RLIN (AUT) for RLIN Authority file '
 0011D4 4110 7B64/4100_      01AAA 13356  1                      TSEG  'access',,CR
 0011E6 4110 78C2/4100_      01808 13374  1                      TSEG  '*  type CALL RLIN (CAT) for the RLIN Cataloging '
 0011F8 4110 7B64/4100_      01AAA 13392  1                      TSEG  'access',,CR
 00120A 4110 7B6A/4100_      01AB0 13410  1                      TSEG  '*  type CALL RLIN (CON) for RLG Conspectus Online '
 00121C 4110 7B64/4100_      01AAA 13428  1                      TSEG  'access',,CR
 00122E 4110 7D50/4100_      01C96 13446  1                      TSEG  '*  type CALL RLIN (ILL) for RLIN Interlibrary Loan '
 001240 4110 7B64/4100_      01AAA 13464  1                      TSEG  'access',,CR
 001252 4110 7B9C/4100_      01AE2 13482  1                      TSEG  '*  type CALL RLIN (SCI) for SCIPIO Arts Sales Catalog '
 001264 4110 7B64/4100_      01AAA 13500  1                      TSEG  'access',,CR
 001276 1B00/41F0 B050_            13518  1                      TCR
 001282 4110 7D83/4100_      01CC9 13543  1                      TSEG  'For information about obtaining an account to search '
 001294 4110 79E2/4100_      01928 13561  1                      TSEG  'the online resources',,CR
 0012A6 4110 7DB8/4100_      01CFE 13579  1                      TSEG  'of The Research Libraries Group, Inc., contact the '
 0012B8 4110 78F2/4100_      01838 13597  1                      TSEG  'RLIN Information Center:',,CR
 0012CA 4110 7DEB/4100_      01D31 13615  1                      TSEG  'Phone: 800-537-RLIN',,CR
 0012DC 4110 7BD2/4100_      01B18 13633  1                      TSEG  'E-mail: bl.ric@rlg.org',,CR
 0012EE 4110 79F6/4100_      0193C 13651  1                      TSEG  'Fax: 415.964.0943 (Attn:RIC)',,CR
 001300 1B00/41F0 B050_            13669  1                      TCR
 00130C 4110 7DFE/4100_      01D44 13694  1                      TSEG  'or visit our Web site at http://www.rlg.org'
 00131E 1B00/41F0 B050_            13712  1                      TCR
 00132A 1B00/41F0 B050_            13737  1                      TCR
 001336 1B00/41F0 B050_            13762  1                      TWRITE
 001342                            13787                       END
                                   13791
 001342 47F0 C7DE            007DE 13792                       B     CVNEXT
 001346 18D8/9808 D004_            13793                       PEND
 DROP   *,R7
1SIGN     (SIGN4072) (12:54) (15MAR04) WYLBUR's Signon/Signoff Processor                                                    Page   15
0Current Usings:  (SIGNWA,R6) (CP,R11) (CV,R12)
0Loc    Object Code    Addr1 Addr2  Stmt Lv Lineno    Source Statement           (Hibal 5, Asmedit 3.3)  HLASM R4.0  2004/03/15 12.54
+___    ______ ____    _____ _____  ____ __ ______    ______ _________
0                                  13814                       ¿þþþþþþþþþþþþþþþþþþþþþþþþþþþþþþÜ
                                   13815                       Ÿ  It could be a terminal id.  Ÿ
                                   13816                       ¾þþþþþþþþþþþþþþþþþþþþþþþþþþþþþþ»
 001354 50E0 D000/9008_      00000 13817              CHKTRM   PROC
 USING  *,R7
 00136E 58F0 B08C/41FF_      0008C 13856                       SCUPTOK R15
                                   13860                       ¿þþþþþþþþþþþþþþþþþþþþþþþþþþþþþþþþþþþþþþþþþþþþþþþþþþþþþþþÜ
                                   13861                       Ÿ  Check terminal type before looking for terminal id.  Ÿ
                                   13862                       ¾þþþþþþþþþþþþþþþþþþþþþþþþþþþþþþþþþþþþþþþþþþþþþþþþþþþþþþþ»
 001376                            13863              CHKTTY   LABEL ,                   TERMINAL NAME
 001376 90F1 D000/41D0_      00000 13865                       XPUSH R15,R1
 00137E 58E0 75EA/0DEE       01958 13868                       VCALL CHKTTYPE            Is it a terminal name?
 001384 4770 7026/4BD0_      01394 13872                       IF    Z,'XPOP R15,R1; B CHKTRMID'  No
 001394 58E0 75EE/0DEE       0195C 13892                       VCALL SETTTYPE            Set related info
 00139A 4BD0 77C0/98F1_      01B2E 13896                       XPOP  R15,R1
 0013A2 1BFF                       13899                       CLEAR R15
 0013A4 47F0 711E            0148C 13903                       B     CHKTDONE
                                   13904              *
                                   13905              *  CATCH-ALL, FREE TOKEN MUST BE ONE OF THE FOLLOWING:
                                   13906              *        1. TERMINAL ID,  2. TERMINAL TYPE, 3. NAME  4. ERROR
                                   13907              *
 0013A8                            13908              CHKTRMID LABEL ,                   TERMINAL ID
 0013A8 D607 B3DA B3DA_003DA 003DA 13910                       IF    (CPSTID,NZ),CHKUID
 0013B2 5900 75F2/4770_      01960 13929                       IF    (R0,NE,3),CHKUID
 0013BA 95C1 F000/4740_00000       13949                       IF    ((@R15,LT,'A'),OR,(@R15,GT,'Z')),CHKUID
 0013CA 95F0 F001/4740_00001       13983                       IF    ((@R15+1,LT,'0'),OR,(@R15+1,GT,'9')),CHKUID
 0013DA 95F0 F002/4740_00002       14017                       IF    ((@R15+2,LT,'0'),OR,(@R15+2,GT,'9')),CHKUID
 0013EA D207 BC88 F000 00C88 00000 14051                       MVC   CPDOUB,@R15         Save terminal id for loop below
 0013F0                            14052                       LOOP  BEGIN
 0013F0 D207 B3DA BC88 003DA 00C88 14058  1                      MVC   CPSTID,CPDOUB       Set terminal ID
 0013F6 95E5 B3DA/4780_003DA       14059  1                      IF    (CPSTID,EQ,'V'),EXIT  Temp/VT100, exit
 0013FE 9503 B38C/4770_0038C       14079  1                      IF    CPSTPDP,'MVC CPSTTYPE,=CL8"TEK4023"'
 00140C 95E4 B3DA/4770_003DA       14100  1                      IF    (CPSTID,EQ,'U'),'MVC CPSTTYPE,=CL8"TVI912"'
 00141A 95C8 B3DA/4770_003DA       14123  1                      IF    (CPSTID,EQ,'H'),'MVC CPSTTYPE,=CL8"HP2621"'
                                   14146  1           ****     IF    (CPSTID,EQ,'V'),'MVC CPSTTYPE,=CL8"VT100"'
                                   14147  1           *
 001428 58E0 75F6/0DEE       01964 14148  1                      VCALL UPDCPSIB
 00142E 4780 70C8            01436 14152  1                      UNTIL Z
 001432 47F0 7082            013F0 14167                       END
 001436 1BFF                       14172                       CLEAR R15
 001438 47F0 711E            0148C 14176                       B     CHKTDONE
                                   14177              *
                                   14178              *  Look for userid
                                   14179              *
 00143C                            14180              CHKUID   LABEL ,                   USER ID
 00143C 41F0 BC48            00C48 14182                       LA    R15,CPCACCT         Put resolved account here
 001440 58E0 75FA/0DEE       01968 14183                       VCALL GETACCT             Convert userid to account
 001446 4780 711E            0148C 14187                       BZ    CHKTDONE            Got it, scram
                                   14188              *
                                   14189              *  Look for "name" or 'name'
                                   14190              *
 00144A                            14191              CHKNAME  LABEL ,                   NAME
 00144A 1200/47D0 710A             14193                       IF    (R0,POS),BEGIN
 001450 957F 1000/4780_00000       14207  1                      IF    ((@R1,EQ,'"'),OR,(@R1,EQ,'''')),BEGIN
1SIGN     (SIGN4072) (12:54) (15MAR04) WYLBUR's Signon/Signoff Processor                                                    Page   16
0Current Usings:  (SIGNWA,R6) (*,R7) (CP,R11) (CV,R12)
0Loc    Object Code    Addr1 Addr2  Stmt Lv Lineno    Source Statement           (Hibal 5, Asmedit 3.3)  HLASM R4.0  2004/03/15 12.54
+___    ______ ____    _____ _____  ____ __ ______    ______ _________
0001460 58F0 B08C/4110_      0008C 14238  2                        SCDQUOTE CPSNAME,L'CPSNAME
 001472 1BFF                       14261  2                        CLEAR R15
 001474 47F0 711E            0148C 14265  2                        B     CHKTDONE
 001478                            14266  1                      END
 001478                            14270                       END
 001478 58E0 7602/0DEE       01970 14274                       ACALL CHKSPID             Check for special ids
 00147E 12FF/4780 711E             14278                       IF    (R15,Z),CHKTDONE    Got one
                                   14295
                                   14296                       COMMENT                   ANY THING THAT FALLS THRU
 001484 58E0 7606/0DEE       01974 14297                       ACALL SIGNERR             IS AN ERROR,
 00148A 0000                       14301                       BOMB  ,                   NO RETURN FROM SIGNERR
                                   14303
 00148C                            14304              CHKTDONE LABEL ,
 00148C 18D8/9808 D004_            14306                       PEND
 DROP   *,R7
                                   14326
 00149A 50E0 D000/9008_      00000 14327              CHKMED   PROC
 USING  *,R7
 0014B4 D204 BC48 78BB 00C48 01D6F 14366                       MVC   CPCACCT,=C'XPSMA'   Medline account
 0014BA 18D8/9808 D004_            14367                       PEND
 DROP   *,R7
                                   14387
 0014C8 50E0 D000/9008_      00000 14388              CHKSOC   PROC
 USING  *,R7
 0014E2 D204 BC48 7892 00C48 01D74 14427                       MVC   CPCACCT,=C'SCNEC'   EC.SCN in socrates account
 0014E8 18D8/9808 D004_            14428                       PEND
 DROP   *,R7
                                   14448
 0014F6 50E0 D000/9008_      00000 14449              CHKFOLIO PROC
 USING  *,R7
 001510 D204 BC48 7869 00C48 01D79 14488                       MVC   CPCACCT,=C'FOLEN'   EN.FOL is the Folio account
 001516 18D8/9808 D004_            14489                       PEND
 DROP   *,R7
                                   14509
 001524 50E0 D000/9008_      00000 14510              CHKPRISM PROC
 USING  *,R7
 00153E D204 BC48 7840 00C48 01D7E 14549                       MVC   CPCACCT,=C'PRMHQ'   HQ.PRM is the Prism account
 001544 18D8/9808 D004_            14550                       PEND
 DROP   *,R7
                                   14570
 001552 50E0 D000/9008_      00000 14571              CHKPRNTR PROC
 USING  *,R7
 00156C 58F0 B08C/41FF_      0008C 14610                       SCUPTOK R15
 001574 58E0 740C/0DEE       01978 14614                       VCALL CHKPRT              Is it a printer name?
 00157A 4770 7028            01594 14618                       IF    Z,BEGIN             No...
 00157E 41F0 B050/58E0_      00050 14629  1                      TSEG  (R1),(R0),B
 001588 4110 7414/4100_      01980 14653  1                      ERROR 'is not a valid printer name.'
 001594                            14660                       END
                                   14664
 001594 58E0 7430/0DEE       0199C 14665                       VCALL SETPRT              Set printer info
                                   14669
 00159A 58E0 B08C/581E_      0008C 14670                       SCINFO ,                  Info after printer name
 0015A8 58E0 7434/0DEE       019A0 14679                       VCALL LRTRIM              Trim blanks
 0015AE 58E0 7438/0DEE       019A4 14683                       VCALL SETPARM             Set exec PARM
1SIGN     (SIGN4072) (12:54) (15MAR04) WYLBUR's Signon/Signoff Processor                                                    Page   17
0Current Usings:  (SIGNWA,R6) (*,R7) (CP,R11) (CV,R12)
0Loc    Object Code    Addr1 Addr2  Stmt Lv Lineno    Source Statement           (Hibal 5, Asmedit 3.3)  HLASM R4.0  2004/03/15 12.54
+___    ______ ____    _____ _____  ____ __ ______    ______ _________
00015B4 9604 B3BB      003BB       14687                       SET   CPSSFPRT            Printer session
 0015B8 96E0 B3BB      003BB       14693                       SET   CPSSFNAR+CPSSFNAT+CPSSFPS  Pseudo-session
 0015BC 9608 B3BB      003BB       14706                       SET   CPSSFSEC            Session is secure
 0015C0 9640 B47C      0047C       14712    ***ISU             SET   CPFSGNCM            First command already set
 0015C4 41F0 0004            00004 14718                       LA    R15,4               Scan done,,
 0015C8 18D8/9808 D004_            14719                       PEND
 DROP   *,R7
                                   14739
 0015D6 50E0 D000/9008_      00000 14740              CLOAKED  PROC
 USING  *,R7
 0015F0 9620 B3BB      003BB       14779                       SET   CPSSFPS
 0015F4 18D8/9808 D004_            14785                       PEND
 DROP   *,R7
                                   14805
 001602 50E0 D000/9008_      00000 14806              SCANCASE PROC
 USING  *,R7
                                   14845                       AIF   (NOT &KEYUPLO).KEYUPL1
                                   14846              .KEYUPL1 ANOP
 00161C 41F0 0004            00004 14847                       LA    R15,4               NO MATCH
 001620 18D8/9808 D004_            14848                       PEND
 DROP   *,R7
                                   14868
 00162E 50E0 D000/9008_      00000 14869              CHKKEY   PROC
 USING  *,R7
 001648 5810 B08C/4111_      0008C 14908                       SCUPTOK R1
 001650 D207 6000 1000 00000 00000 14912                       MVC   SIGNPASS,@R1
 001656 18D8/9808 D004_            14913                       PEND
 DROP   *,R7
                                   14933
 001664 50E0 D000/9008_      00000 14934              CHKECHO  PROC
 USING  *,R7
 00167E                            14973                       LOOP  BEGIN
 00167E 94FE B3F8      003F8       14979  1                      CLEAR CPSFNECH
 001682 58E0 72E6/0DEE       01964 14986  1                      VCALL UPDCPSIB
 001688 4770 7000            0167E 14990                       UNTIL Z,END
 00168C 1BFF                       15009                       CLEAR R15
 00168E 18D8/9808 D004_            15013                       PEND
 DROP   *,R7
                                   15033
 00169C 50E0 D000/9008_      00000 15034              CHKNECHO PROC
 USING  *,R7
 0016B6                            15073                       LOOP  BEGIN
 0016B6 9601 B3F8      003F8       15079  1                      SET   CPSFNECH
 0016BA 58E0 72AE/0DEE       01964 15085  1                      VCALL UPDCPSIB
 0016C0 4770 7000            016B6 15089                       UNTIL Z,END
 0016C4 1BFF                       15108                       CLEAR R15
 0016C6 18D8/9808 D004_            15112                       PEND
 DROP   *,R7
                                   15132              *
                                   15133              *  MISC SIGN ON ERROR
                                   15134              *
 0016D4 50E0 D000/9008_      00000 15135              SIGNERR  PROC
 USING  *,R7
                                   15174
1SIGN     (SIGN4072) (12:54) (15MAR04) WYLBUR's Signon/Signoff Processor                                                    Page   18
0Current Usings:  (SIGNWA,R6) (*,R7) (CP,R11) (CV,R12)
0Loc    Object Code    Addr1 Addr2  Stmt Lv Lineno    Source Statement           (Hibal 5, Asmedit 3.3)  HLASM R4.0  2004/03/15 12.54
+___    ______ ____    _____ _____  ____ __ ______    ______ _________
00016EE 9110 C4C4/47E0_004C4       15175                       IF    CVFRLG,BEGIN        RLG version...
 0016F6 41F0 B050/58E0_      00050 15190  1                      TSEG  (R1),(R0)
 001700 4110 7442/4100_      01B30 15214  1                      TSEG  ': invalid.',,CR
 001712 4110 744C/4100_      01B3A 15232  1                      TSEG  'Enter an RLIN account in the form GG.UUU, '
 001724 4110 7695/4100_      01D83 15250  1                      TSEG  'enter ? for more ',,CR
 001736 4110 717A/4100_      01868 15268  1                      TSEG  'information, or enter STOP to leave the '
 001748 4110 72BA/4100_      019A8 15286  1                      ERROR 'RLIN system.'
 001754                            15293                       END
                                   15297
 001754 41F0 B050/58E0_      00050 15298                       TSEG  (R1),(R0)
 00175E 4110 71A2/4100_      01890 15322                       ERROR ': invalid.  Type ? for more information.'
 00176A 18D8/9808 D004_            15329                       PEND
 DROP   *,R7
                                   15349
 DROP   SIGNWA,R6                  15350                       DROP  R6
                                   15357                       QLTORG
1SIGN     (SIGN4072) (12:54) (15MAR04) WYLBUR's Signon/Signoff Processor                                                    Page   19
0Current Usings:  (CP,R11) (CV,R12)
0Loc    Object Code    Addr1 Addr2  Stmt Lv Lineno    Source Statement           (Hibal 5, Asmedit 3.3)  HLASM R4.0  2004/03/15 12.54
+___    ______ ____    _____ _____  ____ __ ______    ______ _________
0                                  15440                       ¿þþþþþþþþþþþþþþþþþþþþþþþþþþþþþþþþþþþþþþþþþþþþþþþþþþþþþþþþþþþþÜ
                                   15441                       Ÿ  User is now officially logged on, set defaults and start  Ÿ
                                   15442                       Ÿ    him up.                                                 Ÿ
                                   15443                       ¾þþþþþþþþþþþþþþþþþþþþþþþþþþþþþþþþþþþþþþþþþþþþþþþþþþþþþþþþþþþþ»
 001D94 0D70                       15444              LOGFIN   BASE
 USING  *,R7
 001D96                            15458              FINBASE  LABEL ,
 001D96 D204 B3B4 BC48 003B4 00C48 15460                       MVC   CPSACCT,CPCACCT     Set session account
 001D9C 1851                       15461                       LR    R5,R1
 USING  SIGNWA,R5                  15462                       USING SIGNWA,R5
 001D9E 4160 5010            00010 15471                       LA    R6,SIGNKWR
 USING  KWR,R6                     15472                       WITH  (KWR,R6),BEGIN
                                   15486  1                      ¿þþþþþþþþþþþþþþþþþþþþþþþþþþþþþþþþþþþþþþþþþþþþþþþþþþþþþþþþþþÜ
                                   15487  1                      Ÿ  Re-initialize stuff that might have gotten prematurely  Ÿ
                                   15488  1                      Ÿ    set up during the logon process.                      Ÿ
                                   15489  1                      ¾þþþþþþþþþþþþþþþþþþþþþþþþþþþþþþþþþþþþþþþþþþþþþþþþþþþþþþþþþþ»
 001DA2 58E0 783A/0DEE       025D0 15490  1                      VCALL PROTFREE            Reinit RACF settings
                                   15494  1
 001DA8 5810 C1C8            001C8 15495  1                      L     R1,CVCURJCB         Our JCB ptr
 001DAC 58E0 783E/0DEE       025D4 15496  1                      VCALL FREEBILL            Reinit charges
                                   15500  1
 001DB2 D213 B174 6078 00174 00078 15501  1                      MVC   CPNAME,KWRNAME      Save our user name
 001DB8 D613 B3C6 B3C6_003C6 003C6 15502  1                      IF    (CPSNAME,Z),'MVC CPSNAME,KWRNAME'  Default name
                                   15524  1
 001DC8 D207 B8BC C030 008BC 00030 15525  1                      MVC   CPORVYL,CVORVSSN    Set default ORVYL name
 001DCE D607 602D 602D_0002D 0002D 15526  1                      IF    (KWRORV,NZ),'MVC CPORVYL,KWRORV'  Use user's default
                                   15548  1
 001DDE 4110 6000            00000 15549  1                      LA    R1,KWR
 001DE2 58E0 7842/0DEE       025D8 15550  1                      VCALL HOSTINIT            Set default net host and userid
 DROP   KWR,R6                     15554                       END
                                   15562
 001DE8 D507 B3F0 C4D8_003F0 004D8 15563                       IF    (CPSPROJ,EQ,CVBLANKS),'CLEAR CPSPROJ'  Zot subgroup
                                   15593                       ¿þþþþþþþþþþþþþþþþþþþþÜ
                                   15594                       Ÿ  Save our userid.  Ÿ
                                   15595                       ¾þþþþþþþþþþþþþþþþþþþþ»
 001DF8 D71F B198 B198 00198 00198 15596                       CLEAR CPUID               Assume no userid
                                   15603
 001DFE 41F0 B3B4            003B4 15604                       LA    R15,CPSACCT         Logged on account
 001E02 4110 B198/4100_      00198 15605                       SETMSG CPUID               Put userid here
 001E0A 58E0 7846/0DEE       025DC 15619                       VCALL GETUID              Get corresponding userid
 001E10 D61F B198 B198_00198 00198 15623                       IF    (CPUID,Z),'CLEAR CPUID'  No userid
                                   15651                       ¿þþþþþþþþþþþþþþþþþþþþþþþþþþþþþþþþþþþþþþþþþþþþþþþþþÜ
                                   15652                       Ÿ  The user has requested a special ORVYL on the  Ÿ
                                   15653                       Ÿ    JES JOBPARM card.                            Ÿ
                                   15654                       ¾þþþþþþþþþþþþþþþþþþþþþþþþþþþþþþþþþþþþþþþþþþþþþþþþþ»
 001E20 9505 B38C/4770_0038C       15655                       IF    CPSTVIRT,BEGIN      Virtual terminal session...
 001E28 58F0 B3C0            003C0 15670  1                      L     R15,CPSASCBP        Virtual job's ASCB ptr
 001E2C 4100 0008/181D_      00008 15671  1                      HASPSERV ORVYL,@R13,ASCB=(R15)  Get ORVYL name
 001E34 12FF/4770 70BA             15691  1                      IF    (R15,NZ),EXIT       No haspserv, scram
 001E3A 9500 D000/4780_00000       15708  1                      IF    (@R13,EQ,X'00'),EXIT  No ORVYL name, scram
 001E42 9540 D000/4780_00000       15727  1                      IF    (@R13,EQ,C' '),EXIT   No ORVYL name, scram
 001E4A D207 B8BC D000 008BC 00000 15746  1                      MVC   CPORVYL,@R13        Set ORVYL name
 001E50                            15747                       END
                                   15751
1SIGN     (SIGN4072) (12:54) (15MAR04) WYLBUR's Signon/Signoff Processor                                                    Page   20
0Current Usings:  (SIGNWA,R5) (*,R7) (CP,R11) (CV,R12)
0Loc    Object Code    Addr1 Addr2  Stmt Lv Lineno    Source Statement           (Hibal 5, Asmedit 3.3)  HLASM R4.0  2004/03/15 12.54
+___    ______ ____    _____ _____  ____ __ ______    ______ _________
0001E50 9110 C4C4/47E0_004C4       15752                       IF    CVFRLG,BEGIN        RLG machine...
 001E58 D507 B8BC C030_008BC 00030 15767  1                      IF    (CPORVYL,EQ,CVORVSSN),'MVC CPORVYL,CVRLGSSN'
 001E68                            15791                       END
                                   15795                       ¿þþþþþþþþþþþþþþþþþþþþþþþþþþþþþþþþþþþþþþþþþþþÜ
                                   15796                       Ÿ  Set session information for a new user.  Ÿ
                                   15797                       ¾þþþþþþþþþþþþþþþþþþþþþþþþþþþþþþþþþþþþþþþþþþþ»
 001E68 D204 B3B4 BC48 003B4 00C48 15798                       MVC   CPSACCT,CPCACCT     Set session account
                                   15799
 001E6E 41F0 B050/58E0_      00050 15800                       TCLEAR
 001E78 9180 C4C8/4710_004C8       15814                       IF    ~CVFVISTA,BEGIN     VISTA doesn't do this...
 001E80 4110 B3B4/4100_      003B4 15829  1                      TSEG  CPSSESS
 001E92 4100 0065/58E0_      00065 15857  1                      TCNTL CTLPSETS            Set session
 001E9C 4780 711E/900F_      01EB4 15869  1                      FAIL  NZ,MILERR
 001EB4 18F0                       15891  1                      LR    R15,R0
 001EB6 59F0 7856/47D0_      025EC 15892  1                      CEIL  R15,L'CPSINFO
 001EC2 06F0/12FF/4740_            15911  1                      MOVE  R15,CPSINFO,@R1
 001ECE                            15949                       END
                                   15953
 001ECE 58E0 785A/0DEE       025F0 15954                       VCALL CHECKSET            Set up for recovery
                                   15958
 001ED4 4110 77CA            02560 15959                       LA    R1,=CL8'LOGON'
 001ED8 58F0 C1C8            001C8 15960                       L     R15,CVCURJCB
 001EDC 58E0 785E/0DEE       025F4 15961                       VCALL DOBILL              Write accounting records
                                   15965
 001EE2 4110 7960/4100_      026F6 15966                       SETMSG 'LOGON: '
 001EEA 58E0 7862/0DEE       025F8 15970                       VCALL LOGSESS             Log session logon
                                   15974
 001EF0 9501 B38C/4770_0038C       15975                       IF    CPSTCONS,'CLEAR CPSFUPL'  Upper is console default
                                   16002
 001EFC 41F0 0001/4AF0_      00001 16003              TCPSLP   INCR  R15,CPSUC           Kick update count
 001F08 4110 B3C4/4100_      003C4 16009                       TSEG  CPSOPT
 001F1A 4100 0002/58E0_      00002 16037                       TCNTL CTLSETI             Set SIB options
 001F24 47B0 71A6/900F_      01F3C 16049                       FAIL  NEG,MILERR
 001F3C 47D0 71B4/D201_      01F4A 16071                       IF    POS,'MVC CPSUC,CPSUC-CPS(R1); B TCPSLP'
                                   16089
 001F4A D204 B1B8 B3B4 001B8 003B4 16090                       MVC   CPACCTSV,CPSACCT    Saved user
 001F50 5840 C1C8            001C8 16091                       L     R4,CVCURJCB
 USING  JCB,R4                     16092                       WITH  (JCB,R4),BEGIN
 001F54 D204 404A B3B4 0004A 003B4 16106  1                      MVC   JCBACCT,CPSACCT
 001F5A D201 404F B3B9 0004F 003B9 16107  1                      MVC   JCBANO,CPSANO
 001F60 945F 4063      00063       16108  1                      CLEAR JCBBFPS+JCBBFNR
 001F64 9120 B3BB/47E0_003BB       16118  1                      IF    CPSSFPS,'SET JCBBFPS'
 001F70 9140 B3BB/47E0_003BB       16144  1                      IF    CPSSFNAR,'SET JCBBFNR'
 DROP   JCB,R4                     16170                       END
                                   16178
 001F7C 58E0 7866/0DEE       025FC 16179                       ACALL INITDFLT            Set logon defaults
                                   16183                       ¿þþþþþþþþþþþþþþþþþþþþþþþþþþþþþþþþþþþþþþþþþþþþþþþþþþþÜ
                                   16184                       Ÿ  Transfer control to a different WYLBUR (maybe).  Ÿ
                                   16185                       ¾þþþþþþþþþþþþþþþþþþþþþþþþþþþþþþþþþþþþþþþþþþþþþþþþþþþ»
 001F82 9180 B47C/47E0_0047C       16186    ***ISU             IF    CPFSGNML,BEGIN      Only if initial logon...
 001F8A 41F0 5010            00010 16201  1                      LA    R15,SIGNKWR
 001F8E D207 5008 F092 00008 00092 16202  1                      WITH  (KWR,R15),'MVC SIGNSYS,KWRSYS'  WYLBUR system name
 USING  KWR,R15
 DROP   KWR,R15
1SIGN     (SIGN4072) (12:54) (15MAR04) WYLBUR's Signon/Signoff Processor                                                    Page   21
0Current Usings:  (SIGNWA,R5) (*,R7) (CP,R11) (CV,R12)
0Loc    Object Code    Addr1 Addr2  Stmt Lv Lineno    Source Statement           (Hibal 5, Asmedit 3.3)  HLASM R4.0  2004/03/15 12.54
+___    ______ ____    _____ _____  ____ __ ______    ______ _________
0001F94 D607 5008 5008_00008 00008 16226  1                      IF    (SIGNSYS,Z),'MVC SIGNSYS,=CL8"WYLBUR"'  Universal
                                   16248  1
 001FA4 D507 5008 C028_00008 00028 16249  1                      IF    (SIGNSYS,EQ,CVWYLSSN),EXIT  We are already here
                                   16270  1
 001FAE 9140 B47C/4710_0047C       16271  1                      IF    CPFSGNCM,EXIT       Don't switch if 1st cmd provided
                                   16289  1                      ¿þþþþþþþþþþþþþþþþþþþþþþþþþþþþþþþþþþþþþþþþþþþþþþþþþþþþþþþþþþþþþþÜ
                                   16290  1                      Ÿ  "CPLGFSYS" is the name of the subsystem to receive control  Ÿ
                                   16291  1                      Ÿ     after we have logged off our subsystem.  For example,    Ÿ
                                   16292  1                      Ÿ     TESTWYL.                                                 Ÿ
                                   16293  1                      ¾þþþþþþþþþþþþþþþþþþþþþþþþþþþþþþþþþþþþþþþþþþþþþþþþþþþþþþþþþþþþþþ»
 001FB6 4110 5008            00008 16294  1                      LA    R1,SIGNSYS
 001FBA 58E0 786A/0DEE       02600 16295  1                      VCALL SYSCHECK            Is this subsystem running?
 001FC0 4770 7244            01FDA 16299  1                      IF    NZ,EXIT             No, forget it
                                   16313  1
 001FC4 9608 B474      00474       16314  1                      SET   CPFSYSMV            Transfer control w/o msgs
 001FC8 D207 B164 5008 00164 00008 16320  1                      MVC   CPLGFSYS,SIGNSYS    Set new subsys name
 001FCE 58F0 C1C8            001C8 16321  1                      L     R15,CVCURJCB
 001FD2 9680 F062      00062       16322  1                      WITH  (JCB,R15),'SET JCBAFALO'  Log off our WYLBUR
 USING  JCB,R15
 DROP   JCB,R15
 001FD6 47F0 C7DE            007DE 16351  1                      B     CVNEXT              Scram
 001FDA                            16352                       END
                                   16356                       ¿þþþþþþþþþþþþþþþþþþþþþþþþþþþþþþþþþþþþþþþþþþþþþþþþþþþþþþþþþþþÜ
                                   16357                       Ÿ  Update our terminal type information is a terminal type  Ÿ
                                   16358                       Ÿ     has already been set.                                 Ÿ
                                   16359                       ¾þþþþþþþþþþþþþþþþþþþþþþþþþþþþþþþþþþþþþþþþþþþþþþþþþþþþþþþþþþþ»
 001FDA D607 B41E B41E_0041E 0041E 16360                       IF    (CPSTTYPE,Z),BEGIN  No terminal type...
 001FE4 9504 B38C/4770_0038C       16376  1                      IF    CPSTVTAM,'MVC CPSTTYPE,=CL8"3278M2"'
 001FF2 D502 7967 B34C_026FD 0034C 16397  1                      IF    (CPSFE,EQ,'11R'),'MVC CPSTTYPE,=CL8"RLG40"'
 002002                            16420                       END
                                   16424
 002002 D607 B41E B41E_0041E 0041E 16425                       IF    (CPSTTYPE,NZ),BEGIN  Set terminal type info...
 00200C 41F0 B41E            0041E 16441  1                      LA    R15,CPSTTYPE        Terminal type
 002010 58E0 786E/0DEE       02604 16442  1                      VCALL CHKTTYPE            Look up name
                                   16446  1
 002016 4780 728A/58E0_      02020 16447  1                      IF    NZ,'VCALL SETTTYPE'  Known terminal type
                                   16467  1
 002020 728E/47F0 72A0 02020 02018 16468  1                      ELSE  BEGIN               Unknown...
 002024 D707 B41E B41E_0041E 0041E 16479  2                        CLEAR CPSTTYPE,CPSTCLS    Reset terminal info
 002030 58E0 7876/0DEE       0260C 16491  2                        VCALL UPDCPSIB            Update SIB
 002036                            16495  1                      END
 002036                            16499                       END
                                   16503              ***
                                   16504              ***  The following is for "real" terminals only.
                                   16505              ***
 002036 9120 B3BB/4710_003BB       16506                       IF    ~CPSSFPS,BEGIN      Real terminals only...
                                   16521  1                      ¿þþþþþþþþþþþþþþþþþþþþþþþþþþþþþþþþþþþþþþþþþþþþþþþþÜ
                                   16522  1                      Ÿ  Report previous unsuccessful logon attempts.  Ÿ
                                   16523  1                      ¾þþþþþþþþþþþþþþþþþþþþþþþþþþþþþþþþþþþþþþþþþþþþþþþþ»
 00203E 4160 5010            00010 16524  1                      LA    R6,SIGNKWR
 USING  KWR,R6                     16525  1                      WITH  (KWR,R6)
                                   16538  1
 002042 9500 60AF/4780_000AF       16539  1                      IF    (KWRXCNT,NZ),BEGIN  We had some...
 00204A 9504 60AF/4750_000AF       16555  2                        IF    (KWRXCNT,GE,4),BEGIN  Four or more attempts...
1SIGN     (SIGN4072) (12:54) (15MAR04) WYLBUR's Signon/Signoff Processor                                                    Page   22
0Current Usings:  (SIGNWA,R5) (KWR,R6) (*,R7) (CP,R11) (CV,R12)
0Loc    Object Code    Addr1 Addr2  Stmt Lv Lineno    Source Statement           (Hibal 5, Asmedit 3.3)  HLASM R4.0  2004/03/15 12.54
+___    ______ ____    _____ _____  ____ __ ______    ______ _________
0002052 4110 796A/4100_      02700 16573  3                          TSEG  X'2F'               (Bell)
 002064 4110 78CE/4100_      02664 16591  3                          TSEG  'Security Note:',,CR
 002076 4110 796B/4100_      02701 16609  3                          TSEG  '  There were '
 002088 1F11/4310 60AF_            16627  3                          TNUM  LC:KWRXCNT
 00209A 4110 7978/4100_      0270E 16654  3                          TSEG  ' unsuccessful logon attempts '
 0020AC 4110 77EA/4100_      02580 16672  3                          TSEG  'since your last session.',,CR
 0020BE 4110 78DC/4100_      02672 16690  3                          TSEG  '  The last attempt was on '
 0020D0 5800 60B0            000B0 16708  3                          L     R0,KWRXTIM
 0020D4 1B11                       16709  3                          CLEAR R1
 0020D6 18FD/41D0 D020             16713  3                          XPUSH ,,32,PTR=R15
 0020DC 58E0 7882/0DEE       02618 16716  3                          VCALL FMTXDATE
 0020E2 41F0 B050/58E0_      00050 16720  3                          TSEG  (R1),(R0)           Full time and date
 0020EC 4BD0 78F6            0268C 16744  3                          XPOP  ,,32
 0020F0 4110 7995/4100_      0272B 16746  3                          TSEG  '.',,CR
 002102 4110 7996/4100_      0272C 16764  3                          TSEG  '  Contact security '
 002114 4110 79A9/4100_      0273F 16782  3                          SETMSG 'at (650) 725-7516'
 00211C 9110 C4C4/47E0_004C4       16786  3                          IF    CVFRLG,'SETMSG "at 1-800-537-7546"'  RLIN info center
 00212C D504 79CB C00C_02761 0000C 16810  3                          IF    (CVMACHID,EQ,'SYSC '),'CLEAR R0'
 002138 41F0 B050/58E0_      00050 16836  3                          TSEG  (R1),(R0)
 002142 4110 78F8/4100_      0268E 16860  3                          TSEG  ' if you need more information.',,CR
 002154 1B00/41F0 B050_            16878  3                          TCR
 002160 1B00/41F0 B050_            16903  3                          TWRITE
 00216C                            16928  2                        END
                                   16932  2
 00216C                            16933  2                        LOOP  BEGIN
 00216C 9200 60AF/D703_000AF       16939  3                          CLEAR KWRXCNT,KWRXTIM     Reset fields
 002176 1816/4100 0080_            16951  3                          KWRITE KWR                Update keyword record
 002182 9140 61F4/4710_001F4       16964  3                          UNTIL KWRHFL.KWRHFUOK     Keep trying until update works
 00218A 47F0 73D6            0216C 16984  2                        END
 00218E 94BF 61F4      001F4       16989  2                        CLEAR KWRHFL.KWRHFUOK
 002192                            16997  1                      END
                                   17001  1                      ¿þþþþþþþþþþþþþþþþþþþþþþþþþÜ
                                   17002  1                      Ÿ  Create first command.  Ÿ
                                   17003  1                      ¾þþþþþþþþþþþþþþþþþþþþþþþþþ»
 002192 9120 6057/47E0_00057       17004  1                      IF    KWROFL.KWRFSEC,'SET CPFSEC'  Secure mode
 DROP   KWR,R6                     17031                       END
                                   17040
 00219E 9140 B47C/4710_0047C       17041    ***ISU             IF    CPFSGNCM,AUTCMD     First command already provided
                                   17059
 0021A6 9180 B3BB/4710_003BB       17060                       IF    CPSSFNAT,CVNEXT     No auto processing, scram
                                   17078
 0021AE 4160 5010            00010 17079                       LA    R6,SIGNKWR
 USING  KWR,R6                     17080                       USING KWR,R6
                                   17089
 0021B2 D64F 6152 6152_00152 00152 17090                       IF    (KWRCMD,NZ),BEGIN   First command...
 0021BC 4110 6152/4100_      00152 17106  1                      SETMSG KWRCMD
 0021C4 58E0 788E/0DEE       02624 17120  1                      VCALL LRTRIM
 0021CA 4000 B240            00240 17124  1                      STH   R0,CPCMDLEN         Set command length
 0021CE 18F0                       17125  1                      LR    R15,R0
 0021D0 06F0/12FF/4740_            17126  1                      MOVE  R15,CPCMD,@R1       Set command text
 0021DC 47F0 779C            02532 17164  1                      B     AUTCMD              Go do first command
 0021E0                            17165                       END
1SIGN     (SIGN4072) (12:54) (15MAR04) WYLBUR's Signon/Signoff Processor                                                    Page   23
0Current Usings:  (SIGNWA,R5) (KWR,R6) (*,R7) (CP,R11) (CV,R12)
0Loc    Object Code    Addr1 Addr2  Stmt Lv Lineno    Source Statement           (Hibal 5, Asmedit 3.3)  HLASM R4.0  2004/03/15 12.54
+___    ______ ____    _____ _____  ____ __ ______    ______ _________
0                                  17169                       ¿þþþþþþþþþþþþþþþþþþþþþþþþþþþþþþþþþÜ
                                   17170                       Ÿ  Old style auto first command.  Ÿ
                                   17171                       ¾þþþþþþþþþþþþþþþþþþþþþþþþþþþþþþþþþ»
 0021E0 9104 6049/47E0_00049       17172                       IF    KWRTFL.KWRTFAE,BEGIN  EXEC FROM command...
 0021E8 9110 6064/47E0_00064       17188  1                      IF    KWRTFL2.KWRTFANE,BEGIN  Newexec...
 0021F0 4110 7916/4100_      026AC 17204  2                        TSEG  'EXEC FROM LIB#NEWLOGON PUBLIC '
 002202                            17222  1                      END
                                   17226  1
 002202 7470/47F0 74B6 02202 021EE 17227  1                      ELSE  BEGIN
 002206 4110 79D0/4100_      02766 17238  2                        TSEG  'EXEC FROM #LOGON QUIET '
 002218 9180 6064/47E0_00064       17256  2                        IF    KWRTFL2.KWRTFAPE,BEGIN  Pubexec...
 002220 4110 7802/4100_      02598 17272  3                          TSEG  'USER PUB',,B
 002232 95C2 B3B7/4770_003B7       17290  3                          IF    (CPSGRP,EQ,'B'),'TSEG "GROUP BP",,B'  Rlin
 00224C                            17330  2                        END
 00224C                            17334  1                      END
                                   17338  1
 00224C 4110 7934/4100_      026CA 17339  1                      SETMSG 'PARM='''
 002254 9120 6049/4710_00049       17343  1                      IF    (~KWRTFL.KWRTFAN,AND,(KWRNEWDT,LT,CVNWDATE)),BEGIN
 002266 41F0 B050/58E0_      00050 17376  2                        TSEG  (R1),(R0)
 002270 4110 7896/4100_      0262C 17400  2                        TSEG  'NEWS'
 002282 4110 79E7/4100_      0277D 17418  2                        SETMSG ','
 00228A                            17422  1                      END
 00228A 9110 6049/4710_00049       17426  1                      IF    (~KWRTFL.KWRTFAM,AND,KWRSFL.KWRSFMAI),BEGIN
 00229A 41F0 B050/58E0_      00050 17457  2                        TSEG  (R1),(R0)
 0022A4 4110 79E8/4100_      0277E 17481  2                        TSEG  'NEWMAIL'
 0022B6 4110 79E7/4100_      0277D 17499  2                        SETMSG ','
 0022BE                            17503  1                      END
 0022BE 9180 6036/47E0_00036       17507  1                      IF    KWRSFL.KWRSFKEP,BEGIN
 0022C6 41F0 B050/58E0_      00050 17523  2                        TSEG  (R1),(R0)
 0022D0 4110 7812/4100_      025A8 17547  2                        TSEG  'KEPTMAIL'
 0022E2 4110 79E7/4100_      0277D 17565  2                        SETMSG ','
 0022EA                            17569  1                      END
 0022EA 9108 6049/4710_00049       17573  1                      IF    (~KWRTFL.KWRTFAR,AND,KWRAFL.KWRAFASV),BEGIN
 0022FA 41F0 B050/58E0_      00050 17604  2                        TSEG  (R1),(R0)
 002304 4110 781A/4100_      025B0 17628  2                        TSEG  'RECOVERY'
 002316 4110 79E7/4100_      0277D 17646  2                        SETMSG ','
 00231E                            17650  1                      END
 00231E 5900 789A/4770_      02630 17654  1                      IF    (R0,EQ,1),BEGIN
 002326 4110 79EF/4100_      02785 17671  2                        TSEG  ''''
 002338                            17689  1                      END
 002338                            17693                       END
 002338 58F0 B05C            0005C 17697                       L     R15,CPSEGLENF
 00233C 40F0 B240            00240 17698                       STH   R15,CPCMDLEN
 002340 5810 B070            00070 17699                       L     R1,CPSEGLOC
 002344 06F0/12FF/4740_            17700                       MOVE  R15,CPCMD,@R1
 002350 41F0 B050/58E0_      00050 17738                       TCLEAR
                                   17752
 00235A 9180 B3BB/4710_003BB       17753                       IF    CPSSFNAT,CVNEXT     No auto processing
                                   17771              *
                                   17772              *
                                   17773              *   The following SHOW SPACE command was deleted on 6/16/95
                                   17774              *   by M. Durket. WYLBUR no longer blocks sequential saves
                                   17775              *   and recovery because it uses WINGS. Nightly accounting
                                   17776              *   now will handle the overspace issue.
1SIGN     (SIGN4072) (12:54) (15MAR04) WYLBUR's Signon/Signoff Processor                                                    Page   24
0Current Usings:  (SIGNWA,R5) (KWR,R6) (*,R7) (CP,R11) (CV,R12)
0Loc    Object Code    Addr1 Addr2  Stmt Lv Lineno    Source Statement           (Hibal 5, Asmedit 3.3)  HLASM R4.0  2004/03/15 12.54
+___    ______ ____    _____ _____  ____ __ ______    ______ _________
0                                  17777              *
                                   17778              *        LA    R0,4                Conditional SHOW SPACE
                                   17779              *        LA    R1,KWR              R1 -> KWR
                                   17780              *        VCALL EXIT3               LOCAL exit - show space
                                   17781              *
                                   17782                       AIF   (&SETLTIM).LTIME1A
                                   17783              .LTIME1A ANOP
 002362 9102 6049/47E0_00049       17784                       IF    KWRTFL.KWRTFAL,BEGIN  Auto ltime...
 00236A 4110 6000            00000 17800  1                      LA    R1,KWR
 00236E 58E0 789E/0DEE       02634 17801  1                      VCALL LTIMDISP
 002374                            17805                       END
                                   17809              .LTIME1B ANOP
                                   17810
 002374 58E0 605C            0005C 17811                       L     R14,KWRKTIM         Time/date of last kw change
 002378 1BFF                       17812                       CLEAR R15
 00237A 8CE0 0012            00012 17816                       SRDL  R14,12+6            .000001*64 of a sec
 00237E 5DE0 78A2            02638 17817                       D     R14,=A(1000000/64*60*60*24)  No. of days since 1900
 002382 B205 BC88      00C88       17818                       STCK  CPDOUB
 002386 9823 BC88            00C88 17819                       LM    R2,R3,CPDOUB        Current time/date
 00238A 8C20 0012            00012 17820                       SRDL  R2,12+6
 00238E 5D20 78A2            02638 17821                       D     R2,=A(1000000/64*60*60*24)
 002392 1B3F                       17822                       SR    R3,R15              No. of elapsed days
                                   17823
 002394 1B44                       17824                       CLEAR R4                  Clear work reg
 002396 4340 600E            0000E 17828                       IC    R4,KWRIFL           Load privs
 00239A 5440 78A6            0263C 17829                       N     R4,=AL4(255-KWRIFVAL)  Mask off unwanted bit
 00239E 5930 78AA/4750_      02640 17830                       IF   ((R3,GE,&FPDAYS),AND,(R4,NZ)),'LA R1,KWR; VCALL FORCPASS'
                                   17870
 0023B6 41F0 00B4            000B4 17871                       LA    R15,180             Always show ktime if over 180 days
 0023BA 9101 6049/47E0_00049       17872                       IF    KWRTFL.KWRTFAK,'LA R15,14'  Auto ktime--over 14 days
 0023C6 193F/4750 7640_            17894                       IF    (R3,GE,R15),'LA R1,KWR; VCALL KTIMDISP'
                                   17919
 0023D6 9120 6049/47E0_00049       17920                       IF    KWRTFL.KWRTFAN,BEGIN  Auto news...
 0023DE 58F0 C1C8            001C8 17936  1                      L     R15,CVCURJCB
 0023E2 94FD F062      00062       17937  1                      WITH  (JCB,R15),'CLEAR JCBFATTN'  Reset attn
 USING  JCB,R15
 DROP   JCB,R15
 0023E6 9620 BD58      00D58       17967  1                      SET   CPFVER              Verify
 0023EA 4100 0001            00001 17973  1                      LA    R0,1                Show news items & prompt for text
 0023EE 5810 60B4            000B4 17974  1                      L     R1,KWRNEWDT         Last date
 0023F2 58E0 78B6/0DEE       0264C 17975  1                      VCALL NEWSDISP
 0023F8 1841                       17979  1                      LR    R4,R1
 0023FA 4770 767A/4110_      02410 17980  1                      IF    Z,'TSEG CVBLANKS,1,WR'  Skip a line after news
 002410 5940 60B4/4780_      000B4 18026  1                      IF    (R4,EQ,KWRNEWDT),EXIT
 002418                            18046  1                      LOOP  BEGIN
 002418 5040 60B4            000B4 18052  2                        ST    R4,KWRNEWDT         Update date read
 00241C 1816/4100 0080_            18053  2                        KWRITE KWR
 002428 9140 61F4/47E0_001F4       18066  1                      UNTIL KWRHFL.KWRHFUOK,END  Stop when rewrite works
 002430 94BF 61F4      001F4       18090  1                      CLEAR KWRHFL.KWRHFUOK
 002434                            18098                       END
                                   18102              *
                                   18103              *
 002434 9110 6049/47E0_00049       18104                       IF    (KWRTFL.KWRTFAM,AND,KWRSFL.KWRSFMAI),BEGIN  Mail...
 002444 1FFF/43F0 C067             18135  1                      LC    R15,CVMACH
1SIGN     (SIGN4072) (12:54) (15MAR04) WYLBUR's Signon/Signoff Processor                                                    Page   25
0Current Usings:  (SIGNWA,R5) (KWR,R6) (*,R7) (CP,R11) (CV,R12)
0Loc    Object Code    Addr1 Addr2  Stmt Lv Lineno    Source Statement           (Hibal 5, Asmedit 3.3)  HLASM R4.0  2004/03/15 12.54
+___    ______ ____    _____ _____  ____ __ ______    ______ _________
000244A 44F0 7A32/9100_      027C8 18142  1                      EX    R15,'TM KWRMPRIM,0'  Can we display mail?
 00244E 4780 7704            0249A 18158  1                      IF    Z,EXIT              No, wrong machine, forget it
                                   18172  1
 002452 58F0 C1C8            001C8 18173  1                      L     R15,CVCURJCB
 002456 94FD F062      00062       18174  1                      WITH  (JCB,R15),'CLEAR JCBFATTN'  Reset attn
 USING  JCB,R15
 DROP   JCB,R15
 00245A 9620 BD58      00D58       18204  1                      SET   CPFVER              Verify
 00245E D204 BC48 B3B4 00C48 003B4 18210  1                      MVC   CPCACCT,CPSACCT
 002464 41F0 6000            00000 18211  1                      LA    R15,KWR
 002468 1B00/1B11                  18212  1                      CLEAR R0,R1               Options
 00246C 58E0 78BA/0DEE       02650 18218  1                      VCALL MAILDISP
 002472 47B0 76F2            02488 18222  1                      IF    NEG,BEGIN           Attn aborted reading mail...
 002476 4110 79F0/4100_      02786 18233  2                        TSEG  'Mail not displayed.',,CR
 002488                            18251  1                      END
 002488 4110 C4D8/4100_      004D8 18255  1                      TSEG  CVBLANKS,1,WR
 00249A                            18285                       END
                                   18289              *
                                   18290              *
 00249A 9101 600F/47E0_0000F       18291                       IF    KWRAFL.KWRAFASV,BEGIN  Active saved...
 0024A2                            18307  1                      LOOP  BEGIN
 0024A2 94FE 600F      0000F       18313  2                        CLEAR KWRAFL.KWRAFASV     Turn off save bit
 0024A6 1816/4100 0080_            18321  2                        KWRITE KWR                Rewrite password record
 0024B2 9140 61F4/47E0_001F4       18334  1                      UNTIL KWRHFL.KWRHFUOK,END  Stop when rewrite works
 0024BA 94BF 61F4      001F4       18358  1                      CLEAR KWRHFL.KWRHFUOK
 0024BE 9108 6049/47E0_00049       18366  1                      IF    KWRTFL.KWRTFAR,BEGIN  Auto recovery...
 0024C6 9200 BCD0      00CD0       18382  2                        CLEAR CPSCNFLG
                                   18389  2           *         MSG   'ACTIVE'
                                   18390  2           *         OSCINIT (R1),(R0)
 0024CA 4110 7822/4100_      025B8 18391  2                        SCINIT 'ACTIVE RECOVERY MULTIPLE'
 0024E0 D203 B340 78BE 00340 02654 18405  2                        MVC   CPCMDRTN,=A(RCVYUSE)  Return here
 0024E6 D202 BD24 7A03 00D24 02799 18406  2                        MVC   CPCMNM,=C'USE'
 0024EC 9680 B8A9      008A9       18407  2                        SET   CPFAUSE             Auto use in progress
 0024F0 58E0 78C2/0DEE       02658 18413  2                        VCALL USE
 0024F6 0D70                       18417  2           RCVYUSE      BASE
 DROP   *,R7
 USING  *,R7
 0024F8 5870 7164            0265C 18434  2                        BASE  FINBASE
 DROP   *,R7
 USING  FINBASE,R7
 0024FC 947F B8A9      008A9       18452  2                        CLEAR CPFAUSE             Reset
 002500 D603 B56C B56C_0056C 0056C 18459  2                        IF    (CPATTEXT,NZ),BEGIN  We have Actives...
 00250A 4110 7A06/4100_      0279C 18475  3                          TSEG  'ACTIVE file(s) recovered.',,WR
 00251C                            18493  2                        END
 00251C                            18497  1                      END
 00251C 778A/47F0 779C 0251C 024C4 18501  1                      ELSE  BEGIN
 002520 4110 793A/4100_      026D0 18512  2                        TSEG 'ACTIVE saved by recovery last session.',,WR
 002532                            18530  1                      END
 002532                            18534                       END
 DROP   KWR,R6                     18538                       DROP  KWR
                                   18546
 002532 1B00/41F0 B050_            18547              AUTCMD   TWRITE
 00253E 58F0 C1C8            001C8 18573                       L     R15,CVCURJCB
 002542 94FD F062      00062       18574                       WITH  (JCB,R15),'CLEAR JCBFATTN'
1SIGN     (SIGN4072) (12:54) (15MAR04) WYLBUR's Signon/Signoff Processor                                                    Page   26
0Current Usings:  (SIGNWA,R5) (FINBASE,R7) (CP,R11) (CV,R12)
0Loc    Object Code    Addr1 Addr2  Stmt Lv Lineno    Source Statement           (Hibal 5, Asmedit 3.3)  HLASM R4.0  2004/03/15 12.54
+___    ______ ____    _____ _____  ____ __ ______    ______ _________
0USING  JCB,R15
 DROP   JCB,R15
                                   18604
 002546 4110 B242/4800_      00242 18605                       SETMSG CPCMD,LH:CPCMDLEN
 00254E 1200/4780 C7DE             18618                       IF    (R0,Z),CVNEXT       No command to execute
 002554 58E0 78CA/0DEE       02660 18635                       VCALL EDTCOM
 00255A 0000                       18639                       DC    H'0'                (No return)
                                   18640
 DROP   SIGNWA,R5                  18641                       DROP  R5
                                   18648
                                   18649                       QLTORG
1SIGN     (SIGN4072) (12:54) (15MAR04) WYLBUR's Signon/Signoff Processor                                                    Page   27
0Current Usings:  (FINBASE,R7) (CP,R11) (CV,R12)
0Loc    Object Code    Addr1 Addr2  Stmt Lv Lineno    Source Statement           (Hibal 5, Asmedit 3.3)  HLASM R4.0  2004/03/15 12.54
+___    ______ ____    _____ _____  ____ __ ______    ______ _________
0                                  18733              ¿þþþþþþþþþþþþþþþþþþþþþþþþþþþþþþþþþþþþþþþþþþþþþþþþþþþþþþþþþþþþþþþþþþþþþÜ
                                   18734              Ÿ                                                                     Ÿ
                                   18735              Ÿ  GREET -- Local routine to write initial logon messages.            Ÿ
                                   18736              Ÿ                                                                     Ÿ
                                                      ¾þþþþþþþþþþþþþþþþþþþþþþþþþþþþþþþþþþþþþþþþþþþþþþþþþþþþþþþþþþþþþþþþþþþþþ»
00027CC 50E0 D000/9008_      00000 18737              GREET    PROC
 DROP   FINBASE,R7
 USING  *,R7
 0027E6 9140 B8A9/4710_008A9       18779                       IF    ~CPFGREET,BEGIN
 0027EE 9503 B38C/4780_0038C       18794  1                      IF    (CPSTPDP,OR,CPSTASYN),'TSEG X"15"'
 002810 4110 73CD/4100_      02BB3 18846  1                      TSEG  'Connecting to port '
 002822 4110 B34C/4100_      0034C 18864  1                      TSEG  CPSFE,,T
 002834 4110 73E0/4100_      02BC6 18892  1                      TSEG  '-'
 002846 4110 B354/4100_      00354 18910  1                      TSEG  CPSPORT,,T
 002858 1B00/41F0 B050_            18938  1                      TCR
 002864 1B00/41F0 B050_            18963  1                      TCR
                                   18988  1
 002870 4110 7312/4100_      02AF8 18989  1                      SETMSG '&GREET'
                                   18993  1
                                   18994  1                      AIF   ('&INSTALN' NE 'STANFORD').NOSGR
 002878 D503 72C6 C00C_02AAC 0000C 18995  1                      IF    (CVMACHID,EQ,'RLG '),BEGIN
 002882 4110 7344/4100_      02B2A 19012  2                        TSEG  'Welcome to RLIN.  '
 002894 4110 7356/4100_      02B3C 19030  2                        SETMSG 'Enter ? for information on access to RLIN.'
 00289C                            19034  1                      END
                                   19038  1
 00289C 70BA/47F0 7102_0289C 02880 19039  1                      ELSEIF (CVMACHID,EQ,'SYSC '),BEGIN
 0028AA 4110 73E6/4100_      02BCC 19065  2                        TSEG  'Welcome to the '
 0028BC 4110 73F5/4100_      02BDB 19083  2                        TSEG  'Stanford University Hospital System (SUH/'
 0028CE 4110 C00C/4100_      0000C 19101  2                        TSEG  CVMACHID,,T
 0028E0 4110 7380/4100_      02B66 19129  2                        SETMSG ').'
 0028E8                            19133  1                      END
                                   19137  1
 0028E8 7106/47F0 713C_028E8 028A8 19138  1                      ELSEIF (CVMACHID,EQ,'SYSD '),BEGIN
 0028F6 4110 727A/4100_      02A60 19164  2                        TSEG  'This is the Development System ('
 002908 4110 C00C/4100_      0000C 19182  2                        TSEG  CVMACHID,,T
 00291A 4110 7380/4100_      02B66 19210  2                        SETMSG ').'
 002922                            19214  1                      END
                                   19218  1
 002922 7140/47F0 7176_02922 028F4 19219  1                      ELSEIF (CVMACHID,EQ,'SYSG '),BEGIN
 002930 4110 72CA/4100_      02AB0 19245  2                        TSEG  'This is the RLG Development System ('
 002942 4110 C00C/4100_      0000C 19263  2                        TSEG  CVMACHID,,T
 002954 4110 7380/4100_      02B66 19291  2                        SETMSG ').'
 00295C                            19295  1                      END
                                   19299  1
 00295C 717A/47F0 71B0_0295C 0292E 19300  1                      ELSEIF (CVMACHID,EQ,'SYSH '),BEGIN
 00296A 4110 729A/4100_      02A80 19326  2                        TSEG  'Welcome to the Y2K test system ('
 00297C 4110 C00C/4100_      0000C 19344  2                        TSEG  CVMACHID,,T
 00298E 4110 7380/4100_      02B66 19372  2                        SETMSG ').'
 002996                            19376  1                      END
                                   19380  1
 002996 71B4/47F0 722E 02996 02968 19381  1                      ELSE  BEGIN
 00299A 4110 742D/4100_      02C13 19392  2                        TSEG  '                     Welcome '
 0029AC 4110 7382/4100_      02B68 19410  2                        TSEG  'to Stanford University'
1SIGN     (SIGN4072) (12:54) (15MAR04) WYLBUR's Signon/Signoff Processor                                                    Page   28
0Current Usings:  (*,R7) (CP,R11) (CV,R12)
0Loc    Object Code    Addr1 Addr2  Stmt Lv Lineno    Source Statement           (Hibal 5, Asmedit 3.3)  HLASM R4.0  2004/03/15 12.54
+___    ______ ____    _____ _____  ____ __ ______    ______ _________
00029BE 1B00/41F0 B050_            19428  2                        TCR
 0029CA 4110 72EE/4100_      02AD4 19453  2                        TSEG  '                Information '
 0029DC 4110 744A/4100_      02C30 19471  2                        TSEG  'Technology Systems && Services'
 0029EE 1B00/41F0 B050_            19489  2                        TCR
 0029FA 4110 7398/4100_      02B7E 19514  2                        TSEG  '                     Forsythe '
 002A0C 4110 73B6/4100_      02B9C 19532  2                        SETMSG 'Hall Operations Center'
 002A14                            19536  1                      END
                                   19540  1           .NOSGR     ANOP
                                   19541  1
 002A14 41F0 B050/58E0_      00050 19542  1                      TSEG  (R1),(R0)
 002A1E 1B00/41F0 B050_            19566  1                      TCR
 002A2A 1B00/41F0 B050_            19591  1                      TCR
 002A36 1B00/41F0 B050_            19616  1                      TWRITE
                                   19641  1
 002A42 58E0 730E/0DEE       02AF4 19642  1                      ACALL DOLOGMSG            Write msg-of-day, etc.
                                   19646  1
 002A48 9640 B8A9      008A9       19647  1                      SET   CPFGREET
 002A4C                            19653                       END
                                   19657
 002A4C 18D8/9808 D004_            19658                       PEND
 DROP   *,R7
 USING  FINBASE,R7
                                   19685
                                   19686                       QLTORG
1SIGN     (SIGN4072) (12:54) (15MAR04) WYLBUR's Signon/Signoff Processor                                                    Page   29
0Current Usings:  (FINBASE,R7) (CP,R11) (CV,R12)
0Loc    Object Code    Addr1 Addr2  Stmt Lv Lineno    Source Statement           (Hibal 5, Asmedit 3.3)  HLASM R4.0  2004/03/15 12.54
+___    ______ ____    _____ _____  ____ __ ______    ______ _________
0                                  19727              ¿þþþþþþþþþþþþþþþþþþþþþþþþþþþþþþþþþþþþþþþþþþþþþþþþþþþþþþþþþþþþþþþþþþþþþÜ
                                   19728              Ÿ                                                                     Ÿ
                                   19729              Ÿ  CKACCT  -- Routine to check validity of account for logon.         Ÿ
                                   19730              Ÿ    (Returns to caller only if account is ok to use.)                Ÿ
                                   19731              Ÿ                                                                     Ÿ
                                   19732              Ÿ    On entry:                                                        Ÿ
                                   19733              Ÿ      R1 - SIGNWA ptr                                                Ÿ
                                   19734              Ÿ                                                                     Ÿ
                                                      ¾þþþþþþþþþþþþþþþþþþþþþþþþþþþþþþþþþþþþþþþþþþþþþþþþþþþþþþþþþþþþþþþþþþþþþ»
0002C4E 50E0 D000/9008_      00000 19735              CKACCT   PROC
 DROP   FINBASE,R7
 USING  *,R7
 002C68 1861                       19777                       LR    R6,R1
 USING  SIGNWA,R6                  19778                       USING SIGNWA,R6
 002C6A 4150 6010            00010 19787                       LA    R5,SIGNKWR
 USING  KWR,R5                     19788                       USING KWR,R5
                                   19797                       ¿þþþþþþþþþþþþþþþþþþþþþþþþþþþþþþþþþÜ
                                   19798                       Ÿ  Now read the password record.  Ÿ
                                   19799                       ¾þþþþþþþþþþþþþþþþþþþþþþþþþþþþþþþþþ»
 002C6E D7FF 5000 5000_00000 00000 19800                       CLEAR KWR
 002C7A D201 5003 BC4B 00003 00C4B 19808                       MVC   KWRGRP,CPCGRP       "gg"
 002C80 D202 5000 BC48 00000 00C48 19809                       MVC   KWRUSER,CPCUSER     "uuu"
 002C86 1815/4100 0040_            19810                       KREAD KWR                 (calls KWIO in TERM)
 002C92 9501 B38C/4770_0038C       19823                       IF    CPSTCONS,'SET KWRIFL.KWRIFOPR'  opr privs if cons
 002C9E 9180 51F4/4710_001F4       19850                       IF    ~KWRHFL.KWRHFCK,BEGIN  If no key file, bypass read
 002CA6 9501 B38C/4770_0038C       19866  1                      IF    CPSTCONS,'SET CPSFOPR; B CHKAEXIT'  a-ok for console
 002CB6 4110 7754/4100_      033BC 19893  1                      TSEG  'No account file, password not checked.',,WR
 002CC8 47F0 76AC            03314 19911  1                      B     CHKAEXIT
 002CCC                            19912                       END
0002CCC 9180 500E/4710_0000E       19917                       IF    ~KWRIFL.KWRIFVAL,BEGIN
                                   19933  1           *        Not valid key entry - check whether user knows word
 002CD4 D607 C050 C050_00050 00050 19934  1                      IF    ((CVWORD,NZ),AND,~CPFWORD),CVNEXT
 002CE6 4110 76C0/4100_      03328 19967  1                      TSEG  'Account '
 002CF8 4110 BC4B/4100_      00C4B 19985  1                      TSEG  CPCGRP
 002D0A 4110 783E/4100_      034A6 20013  1                      TSEG  '.'
 002D1C 4110 BC48/4100_      00C48 20031  1                      TSEG  CPCUSER
 002D2E 4110 76C8/4100_      03330 20059  1                      TSEG  ' does not exist.',,WR
 002D40 9501 B38C/4780_0038C       20077  1                      IF    CPSTCONS,EXIT       Nothing stops a console
 002D48 41F0 0001/4AF0_      00001 20095  1                      INCR  R15,CPLGNCT         Count logon attempt
 002D54 47F0 C7DE            007DE 20101  1                      B     CVNEXT
 002D58                            20102                       END
                                   20106
 002D58 D200 B3BC 5048 003BC 00048 20107                       MVC   CPSTACF,KWRTACF     Save account flags
                                   20108
 002D5E D200 B444 5065 00444 00065 20109                       MVC   CPSPFL,KWRPFL       Privilege flags
                                   20110
 002D64 9120 B3BB/4710_003BB       20111                       IF    ~CPSSFPS,BEGIN      Flat rate for real trms only...
                                   20126  1         C            IF    ((KWRSOF,NE,'2'),OR,
                                          1         C                  ((KWRSOF,EQ,'2'),AND,(KWRAR,EQ,'0')),OR,
 002D6C 95F2 5061/4770_00061              1                            ((KWRSOF,EQ,'2'),AND,(KWRAR,EQ,'9'))),BEGIN
 002D94 9680 BB68      00B68       20205  2                        SET   CPFFLAT             Flat rate for non-prime time
 002D98                            20211  1                      END
1SIGN     (SIGN4072) (12:54) (15MAR04) WYLBUR's Signon/Signoff Processor                                                    Page   30
0Current Usings:  (KWR,R5) (SIGNWA,R6) (*,R7) (CP,R11) (CV,R12)
0Loc    Object Code    Addr1 Addr2  Stmt Lv Lineno    Source Statement           (Hibal 5, Asmedit 3.3)  HLASM R4.0  2004/03/15 12.54
+___    ______ ____    _____ _____  ____ __ ______    ______ _________
0002D98                            20215                       END
                                   20219
 002D98 D200 B3BE 500E 003BE 0000E 20220                       MVC   CPSKIFL,KWRIFL
 002D9E D200 B3BF 500F 003BF 0000F 20221                       MVC   CPSKAFL,KWRAFL
 002DA4 D201 B42E 504A 0042E 0004A 20222                       MVC   CPSIDMAX,KWRNTDEF   Set idle session (notime) limit
                                   20223                       AIF   ('&INSTALN' NE 'STANFORD').NOSOF2A
 002DAA D200 B1F8 5061 001F8 00061 20224                       MVC   CPSOF,KWRSOF        Save source of funds code
 002DB0 D200 B1F9 5062 001F9 00062 20225                       MVC   CPAR,KWRAR          Save accounts receivable code
                                   20226              .NOSOF2A ANOP
                                   20227
 002DB6 D604 B3B4 B3B4_003B4 003B4 20228                       IF    (CPSACCT,NZ),HAVEDO
                                   20247
 002DC0 D607 C050 C050_00050 00050 20248                       IF    ((CVWORD,NZ),AND,~CPFWORD),BEGIN  Is it a good-guy...
 002DD2 9130 B3BE/4780_003BE       20278  1                      IF    (CPSFSPR+CPSFOPR,Z),CVNEXT  No, scram
                                   20301  1
 002DDA 9110 C4C7/47E0_004C7       20302  1                      IF    ~CVFSYST,CVNEXT     He must supply the word...
                                   20320  1
 002DE2 9620 B8A9      008A9       20321  1                      SET   CPFWORD             He knows the word
 002DE6                            20327                       END
                                   20331                       ¿þþþþþþþþþþþþþþþþþþþþþþþþþþþþþþþþþþþþþþþþþþþþþþþþþþþþþþþþþþþþþÜ
                                   20332                       Ÿ  Process Logon of account that doesn't require a password.  Ÿ
                                   20333                       ¾þþþþþþþþþþþþþþþþþþþþþþþþþþþþþþþþþþþþþþþþþþþþþþþþþþþþþþþþþþþþþ»
 002DE6 9104 5057/47E0_00057       20334                       IF    KWROFL.KWRFNPAS,BEGIN  No logon password needed...
 002DEE 9640 B3BB      003BB       20350  1                      SET   CPSSFNAR            Assume no recovery
 002DF2 47F0 7308            02F70 20356  1                      B     HAVEDO
 002DF6                            20357                       END
                                   20361                       ¿þþþþþþþþþþþþþþþþþþþþþþþþþþþþþþþþþþþþþþþþþþþþþþÜ
                                   20362                       Ÿ  Process normal logon (get password, etc.).  Ÿ
                                   20363                       ¾þþþþþþþþþþþþþþþþþþþþþþþþþþþþþþþþþþþþþþþþþþþþþþ»
 002DF6 4120 0002            00002 20364                       LA    R2,2                Retry count
 002DFA D607 6000 6000_00000 00000 20365                       IF    (SIGNPASS,NZ),BEGIN  Password already entered...
 002E04 90F1 D000/41D0_      00000 20381  1                      DELAY                     Wait a bit ...
 USING  JCB,R1
 DROP   JCB,R1
 002E2C D507 5070 6000_00070 00000 20426  1                      IF    (KWRPASS,EQ,SIGNPASS),HAVEDO
 002E36 41F0 6000            00000 20447  1                      LA    R15,SIGNPASS
 002E3A 47F0 7228            02E90 20448  1                      B     SIGNKNO
 002E3E                            20449                       END
                                   20453              *
                                   20454              * If Kerberos authentication has been sent, check the authenticator
                                   20455              * against the KLOGIN list for the account. If that doesn't succeed,
                                   20456              * then abort.
                                   20457              *
 002E3E D67F BB80 BB80_00B80 00B80 20458                       IF    (CPAUTHID,NZ),BEGIN
 002E48 58E0 7718/0DEE       03380 20474  1                      VCALL KLOGINCK
 002E4E 12FF/4780 7308             20478  1                      IF    (R15,Z),HAVEDO
 002E54                            20495                       END
                                   20499
 002E54 58E0 771C/0DEE       03384 20500              SIGNKWL  VCALL READPW
 002E5A 4780 C7EA            007EA 20504                       BZ    CVNOACTN            (ATTENTION)
 002E5E 90F1 D000/41D0_      00000 20505                       DELAY                     Wait a bit ...
 USING  JCB,R1
 DROP   JCB,R1
 002E86 D507 5070 F000_00070 00000 20550                       IF    (KWRPASS,EQ,@R15),HAVEDO
1SIGN     (SIGN4072) (12:54) (15MAR04) WYLBUR's Signon/Signoff Processor                                                    Page   31
0Current Usings:  (KWR,R5) (SIGNWA,R6) (*,R7) (CP,R11) (CV,R12)
0Loc    Object Code    Addr1 Addr2  Stmt Lv Lineno    Source Statement           (Hibal 5, Asmedit 3.3)  HLASM R4.0  2004/03/15 12.54
+___    ______ ____    _____ _____  ____ __ ______    ______ _________
0                                  20570
 002E90 9023 D000/41D0_      00000 20571              SIGNKNO  XPUSH R2,R3
 002E98 4820 B240            00240 20574                       LH    R2,CPCMDLEN
 002E9C 183D/41D0 D0EC             20575                       XPUSH ,,L'CPCMD,PTR=R3
 002EA2 D2EA 3000 B242 00000 00242 20578                       MVC   @R3(L'CPCMD),CPCMD  Save last command
                                   20579
 002EA8 D201 B240 777C 00240 033E4 20580                       MVC   CPCMDLEN,=AL2(34+18)
 002EAE D221 B242 777E 00242 033E6 20581                       MVC   CPCMD(34),=C'Logon attempted for account ??.???'
 002EB4 D211 B264 77A0 00264 03408 20582                       MVC   CPCMD+34(18),=C' password 12345678'
 002EBA D201 B25E BC4B 0025E 00C4B 20583                       MVC   CPCMD+28(2),CPCGRP
 002EC0 D202 B261 BC48 00261 00C48 20584                       MVC   CPCMD+31(3),CPCUSER
 002EC6 D207 B26D F000 0026D 00000 20585                       MVC   CPCMD+43(8),@R15
 002ECC 4100 0002            00002 20586                       LA    R0,SMFWSECL
 002ED0 58E0 7720/0DEE       03388 20587                       VCALL LOGKWR              Do security logging
                                   20591
 002ED6 4020 B240            00240 20592                       STH   R2,CPCMDLEN
 002EDA D2EA B242 3000 00242 00000 20593                       MVC   CPCMD,@R3           Restore last command
 002EE0 4BD0 77B2            0341A 20594                       XPOP  ,,L'CPCMD
 002EE4 4BD0 77B4/9823_      0341C 20596                       XPOP  R2,R3
                                   20599              *
                                   20600              *
 002EEC                            20601                       LOOP  BEGIN
 002EEC BFF1 50AF/41F0_      000AF 20607  1                      INCR  R15,KWRXCNT         Kick logon attempt counter
 002EF8 9500 50AF/4770_000AF       20613  1                      IF    (KWRXCNT,Z),'MVI KWRXCNT,X"FF"'  Max attempts
 002F04 58E0 7724/0DEE       0338C 20635  1                      VCALL LOCALTOD
 002F0A 5000 50B0            000B0 20639  1                      ST    R0,KWRXTIM          Save time/date of attempt
 002F0E 1815/4100 0080_            20640  1                      KWRITE KWR
 002F1A 9140 51F4/4710_001F4       20653  1                      UNTIL KWRHFL.KWRHFUOK     Loop back until rewrite works
 002F22 47F0 7284            02EEC 20673                       END
 002F26 94BF 51F4      001F4       20678                       CLEAR KWRHFL.KWRHFUOK
                                   20686
 002F2A 4110 77B6/4100_      0341E 20687                       TSEG  'Incorrect Password'
 002F3C 1222/4780 72F2_            20705                       IF    (R2,NZ),'DECR R2; TSEG ", Re-enter.",,WR; B SIGNKWL'
 002F5A 4110 783E/4100_      034A6 20745                       TSEG  '.',,WR
 002F6C 47F0 C7DE            007DE 20763                       B     CVNEXT
                                   20764
 002F70 1FFF/43F0 5035             20765              HAVEDO   LC    R15,KWRMACC         Machine he is allowed on
 002F76 44F0 7900/00/9_      03568 20772                       EX    R15,'TM CVMACH,0'   Can he use this system?
 002F7A 4770 7398            03000 20788                       IF    Z,BEGIN             Not allowed on this system...
 002F7E 4110 76C0/4100_      03328 20799  1                      TSEG  'Account '
 002F90 4110 BC4B/4100_      00C4B 20817  1                      TSEG  CPCGRP
 002FA2 4110 783E/4100_      034A6 20845  1                      TSEG  '.'
 002FB4 4110 BC48/4100_      00C48 20863  1                      TSEG  CPCUSER
 002FC6 4110 77C8/4100_      03430 20891  1                      TSEG  ' can''t be used on the '
 002FD8 4110 C00C/4100_      0000C 20909  1                      TSEG  CVMACHID,,TB
 002FEA 4110 76D8/4100_      03340 20937  1                      TSEG  'machine.',,CR
 002FFC 47F0 C7DA            007DA 20955  1                      B     CVABORT
 003000                            20956                       END
                                   20960
 003000 9188 500F/4710_0000F       20961                       IF    (KWRAFL.KWRAFVAL*KWRAFTOK,~ONES),BEGIN
 003008 D607 C050 C050_00050 00050 20982  1                      IF    ((CVWORD,NZ),AND,~CPFWORD),CVNEXT
 00301A 4110 76C0/4100_      03328 21015  1                      TSEG  'Account '
 00302C 4110 BC4B/4100_      00C4B 21033  1                      TSEG  CPCGRP
 00303E 4110 783E/4100_      034A6 21061  1                      TSEG  '.'
1SIGN     (SIGN4072) (12:54) (15MAR04) WYLBUR's Signon/Signoff Processor                                                    Page   32
0Current Usings:  (KWR,R5) (SIGNWA,R6) (*,R7) (CP,R11) (CV,R12)
0Loc    Object Code    Addr1 Addr2  Stmt Lv Lineno    Source Statement           (Hibal 5, Asmedit 3.3)  HLASM R4.0  2004/03/15 12.54
+___    ______ ____    _____ _____  ____ __ ______    ______ _________
0003050 4110 BC48/4100_      00C48 21079  1                      TSEG  CPCUSER,,B
 003062 4110 77DE/4100_      03446 21107  1                      SETMSG 'does not have terminal access.'
 00306A 9180 500F/4710_0000F       21111  1                      IF    ~KWRAFL.KWRAFVAL,BEGIN  Suspended...
 003072 4110 77FC/4100_      03464 21127  2                        SETMSG 'suspended.'
 00307A 95F1 5063/4770_00063       21131  2                        IF    (KWRSTAT,EQ,KWRSEXP),'SETMSG "has expired."'
 00308A 95F3 5063/4770_00063       21158  2                        IF    (KWRSTAT,EQ,KWRSOVB),'SETMSG "is over budget."'
 00309A 41F0 B050/58E0_      00050 21185  2                        TSEG  (R1),(R0)
 0030A4 4110 7859/4100_      034C1 21209  2                        TSEG  '  Contact: ITSS Account Services at (650) 723-4795 '
 0030B6 4110 7806/4100_      0346E 21227  2                        SETMSG '  or send email to GB.ACC@forsythe'
 0030BE                            21231  1                      END
 0030BE 47F0 C7CC            007CC 21235  1                      ABORT (R1),(R0)
 0030C2                            21248                       END
                                   21252
 0030C2 D601 5042 5042_00042 00042 21253                       IF    (KWRHRSAL,NZ),BEGIN  Hour limit account...
 0030CC 4110 7828/4100_      03490 21269  1                      TSEG  'This account has used '
 0030DE 4820 5068            00068 21287  1                      LH    R2,KWRHRSUS
 0030E2 1812/1B00/41F0_            21288  1                      TNUM  (R2)
 0030F0 4110 7744/4100_      033AC 21310  1                      TSEG  ' of '
 003102 4810 5042/1B00_      00042 21328  1                      TNUM  LH:KWRHRSAL
 003112 4110 788C/4100_      034F4 21349  1                      TSEG  ' hours.'
                                   21367  1
 003124 4920 5042/4750_      00042 21368  1                      IF    (R2,GE,KWRHRSAL),BEGIN
 00312C 4110 7893/4100_      034FB 21385  2                        ABORT '  Account limit exceeded.'
 003138                            21392  1                      END
                                   21396  1
 003138 1B00/41F0 B050_            21397  1                      TWRITE
 003144 1B00                       21422  1                      CLEAR R0
 003146 58F0 0010            00010 21426  1                      L     R15,CVTPTR
 00314A 58F0 F0CC            000CC 21427  1                      WITH  (CVT,R15),'L R15,CVTUSER'
 USING  CVT,R15
 DROP   CVT,R15
 00314E 12FF/4780 74FA_            21451  1                      IF    ((R15,NZ),AND,(@R15,EQ,'SCIP')),BEGIN
 00315E 4300 F00F            0000F 21480  2                        WITH  (USERCVT,R15),'IC R0,USEBLOCK'  Current time-block
 USING  USERCVT,R15
 DROP   USERCVT,R15
 003162                            21504  1                      END
 003162 1200/4770 750C             21508  1                      IF    (R0,Z),BEGIN        Day block...
 003168 9102 5048/4710_00048       21522  2                        IF    KWRTACF.KWRTNDAY,EXIT  Skip confusing msg if ng
 003170 947F BB68      00B68       21541  2                        CLEAR CPFFLAT             Reset flat rate
 003174                            21548  1                      END
 003174                            21552                       END
                                   21556
 003174 9102 5048/47E0_00048       21557                       IF    KWRTACF.KWRTNDAY,BEGIN  No day time access...
 00317C 1B00                       21573  1                      CLEAR R0
 00317E 58F0 0010            00010 21577  1                      L     R15,CVTPTR
 003182 58F0 F0CC            000CC 21578  1                      WITH  (CVT,R15),'L R15,CVTUSER'
 USING  CVT,R15
 DROP   CVT,R15
 003186 12FF/4780 7532_            21602  1                      IF    ((R15,NZ),AND,(@R15,EQ,'SCIP')),BEGIN
 003196 4300 F00F            0000F 21631  2                        WITH  (USERCVT,R15),'IC R0,USEBLOCK'  Current time-block
 USING  USERCVT,R15
 DROP   USERCVT,R15
 00319A                            21655  1                      END
 00319A 1200/4770 758C             21659  1                      IF    (R0,NZ),EXIT        Not the day block, scram
1SIGN     (SIGN4072) (12:54) (15MAR04) WYLBUR's Signon/Signoff Processor                                                    Page   33
0Current Usings:  (KWR,R5) (SIGNWA,R6) (*,R7) (CP,R11) (CV,R12)
0Loc    Object Code    Addr1 Addr2  Stmt Lv Lineno    Source Statement           (Hibal 5, Asmedit 3.3)  HLASM R4.0  2004/03/15 12.54
+___    ______ ____    _____ _____  ____ __ ______    ______ _________
00031A0 4110 78AC/4100_      03514 21676  1                      TSEG  'Account',,B
 0031B2 4110 BC4B/4100_      00C4B 21694  1                      TSEG  CPCGRP
 0031C4 4110 783E/4100_      034A6 21722  1                      TSEG  '.'
 0031D6 4110 BC48/4100_      00C48 21740  1                      TSEG  CPCUSER,,B
 0031E8 4110 78B3/4100_      0351B 21768  1                      ABORT 'is not valid for the day block.'
 0031F4                            21775                       END
1SIGN     (SIGN4072) (12:54) (15MAR04) WYLBUR's Signon/Signoff Processor                                                    Page   34
0Current Usings:  (KWR,R5) (SIGNWA,R6) (*,R7) (CP,R11) (CV,R12)
0Loc    Object Code    Addr1 Addr2  Stmt Lv Lineno    Source Statement           (Hibal 5, Asmedit 3.3)  HLASM R4.0  2004/03/15 12.54
+___    ______ ____    _____ _____  ____ __ ______    ______ _________
0                                  21780                       ¿þþþþþþþþþþþþþþþþþþþþþþþþþþþþþþþþþþþþþþþþþþþþþþþþþþþþþþþþþÜ
                                   21781                       Ÿ  If multiple logons for single account,                 Ÿ
                                   21782                       Ÿ  Ask user if ok not to recover active file.             Ÿ
                                   21783                       Ÿ  (we do not recover or ask to recover psuedo sessions)  Ÿ
                                   21784                       ¾þþþþþþþþþþþþþþþþþþþþþþþþþþþþþþþþþþþþþþþþþþþþþþþþþþþþþþþþþ»
 0031F4 9120 B3BB/4710_003BB       21785                       IF    ~CPSSFPS,BEGIN      If pseudo session, skip recovery
 0031FC 9180 C4C8/4710_004C8       21800  1                      IF    CVFVISTA,EXIT       Forget it if VISTA
 003204 1B33                       21818  1                      CLEAR R3                  R3 - flag, 0 not mult, 1 if mult
 003206 5840 C1C0            001C0 21822  1                      L     R4,CVFJCB
 USING  JCB,R4                     21823  1                      WITH  (JCB,R4),BEGIN
 00320A 5940 C1C4/4730_      001C4 21837  2                        WHILE (R4,LE,CVLJCB),BEGIN   Look for duplicate sessions
 003212 D504 BC48 404A_00C48 0004A 21856  3                          IF    (CPCACCT,EQ,JCBACCT),BEGIN
                                   21874  4                            COMMENT , We do not care if other ses is pseudo or non-rcvy
 00321C 9120 4063/4710_00063       21875  4                            IF    (~JCBBFPS,AND,~JCBBFNR),BEGIN
 00322C 4130 0001            00001 21904  5                              LA    R3,1
 003230                            21905  4                            END
 003230                            21909  3                          END
 003230 4140 40D0            000D0 21913  3                          LA    R4,JCBNEXT
 003234 47F0 75A2            0320A 21914  2                        END
 DROP   JCB,R4                     21919  1                      END   , WITH (JCB,R4)
                                   21927  1                      COMMENT ,                 R3=0 if not multiple session
                                   21928  1
                                   21929  1                      COMMENT                   If mult ses., ask to not recover
 003238 1233/4780 7676             21930  1                      IF    (R3,NZ),BEGIN
 00323E 4110 78AC/4100_      03514 21944  2                        TSEG  'Account',,B
 003250 4110 BC4B/4100_      00C4B 21962  2                        TSEG  CPCGRP
 003262 4110 783E/4100_      034A6 21990  2                        TSEG  '.'
 003274 4110 BC48/4100_      00C48 22008  2                        TSEG  CPCUSER,,B
 003286 4110 78D2/4100_      0353A 22036  2                        TSEG  'is already logged on.',,WR
 003298 9180 5057/47E0_00057       22054  2                        IF    ~KWROFL.KWRFMULT,CVABORT
 0032A0 4110 76E0/4100_      03348 22073  2                        TSEG  'No ACTIVE file recovery will be possible',,B
 0032B2 4110 78E7/4100_      0354F 22091  2                        TSEG  'for this session.',,WR
 0032C4 9108 5057/4710_00057       22109  2                        IF    ~KWROFL.KWRFMNPR,BEGIN  Prompt...
 0032CC 4110 78F8/4100_      03560 22125  3                          SETMSG 'Proceed'
 0032D4 58E0 774C/0DEE       033B4 22129  3                          VCALL YESREQ
 0032DA                            22133  2                        END
 0032DA 9640 B3BB      003BB       22137  2                        SET   CPSSFNAR            No recovery for us
 0032DE                            22143  1                      END
 0032DE                            22147                       END
                                   22151
                                   22152                       COMMENT                   Get unique user number,
 0032DE 58E0 7750/0DEE       033B8 22153                       ACALL GETUSRNO            (this can be a bit complicated!)
 0032E4 40F0B3B9                   22157                       ST2   R15,CPSANO          Save user number
                                   22159
                                   22160                       COMMENT                   Update JCB now, avoid non-unique
                                   22161                       COMMENT                   user numbers
 0032E8 5840 C1C8            001C8 22162                       L     R4,CVCURJCB
 USING  JCB,R4                     22163                       WITH  (JCB,R4),BEGIN
 0032EC D204 404A BC48 0004A 00C48 22177  1                      MVC   JCBACCT,CPCACCT
 0032F2 D201 404F B3B9 0004F 003B9 22178  1                      MVC   JCBANO,CPSANO
 0032F8 945F 4063      00063       22179  1                      CLEAR JCBBFPS+JCBBFNR
 0032FC 9120 B3BB/47E0_003BB       22189  1                      IF    CPSSFPS,'SET JCBBFPS'
 003308 9140 B3BB/47E0_003BB       22215  1                      IF    CPSSFNAR,'SET JCBBFNR'
 DROP   JCB,R4                     22241                       END   , WITH (JCB,R4)
1SIGN     (SIGN4072) (12:54) (15MAR04) WYLBUR's Signon/Signoff Processor                                                    Page   35
0Current Usings:  (KWR,R5) (SIGNWA,R6) (*,R7) (CP,R11) (CV,R12)
0Loc    Object Code    Addr1 Addr2  Stmt Lv Lineno    Source Statement           (Hibal 5, Asmedit 3.3)  HLASM R4.0  2004/03/15 12.54
+___    ______ ____    _____ _____  ____ __ ______    ______ _________
0                                  22249
 003314 18D8/9808 D004_            22250              CHKAEXIT PEND
 DROP   *,R7
 USING  FINBASE,R7
 DROP   SIGNWA,R6                  22278                       DROP  R6
 DROP   KWR,R5                     22285                       DROP  R5
                                   22292                       QLTORG
1SIGN     (SIGN4072) (12:54) (15MAR04) WYLBUR's Signon/Signoff Processor                                                    Page   36
0Current Usings:  (FINBASE,R7) (CP,R11) (CV,R12)
0Loc    Object Code    Addr1 Addr2  Stmt Lv Lineno    Source Statement           (Hibal 5, Asmedit 3.3)  HLASM R4.0  2004/03/15 12.54
+___    ______ ____    _____ _____  ____ __ ______    ______ _________
0                                  22350              *
                                   22351              *
                                   22352              *  GET UNIQUE NUMBER FOR DUPLICATE SESSION
                                   22353              *
                                   22354              *  RETURNS:
                                   22355              *        R15 - UNIQUE SESSION NUMBER FOR DUPLICATE LOGONS
                                   22356              *
                                   22357              *  BY DUPLICATE LOGON, WE MEAN MULTIPLE SESSIONS FOR A
                                   22358              *  SINGLE ACCOUNT
                                   22359              *
                                   22360              *  WE GET UNUSED SESSION NUMBER BY MARKING ALL USED SESSION
                                   22361              *  NUMBERS IN AN BYTE ARRAY THAT IS MAX NUMBER OF SESSIONS
                                   22362              *  LONG (PLUS A LITTLE BIT).  WE THEN FIND THE FIRST UNUSED
                                   22363              *  SESSION NUMBER BY LOOKING FOR THE FIRST ZERO IN THE ARRAY.
                                   22364              *
                                   22365              *  FOR PSEUDO SESSIONS:
                                   22366              *  THE SESSION NUMBER OF '9663' SHOULD SIMPLY BE HIGHER
                                   22367              *  THAN THE MAXIMUM NUMBER OF USERS WE WOULD EVER HAVE.
                                   22368              *  SPIRES FOR SOME REASON WANTS A NUMBER THAT MODULO 64
                                   22369              *  IS 63 ...  9663 WORKS, BUT THERE IS NOTHING SPECIAL
                                   22370              *  ABOUT THIS NUMBER.  THE ARRAY SCHEME MENTIONED ABOVE
                                   22371              *  IS USED TO FIND UNIQUE PSUEDO SESSION NUMBERS ...
                                   22372              *  ...  9663, 9662, 9661, 9660, ETC ..
                                   22373              *
 00356C 50E0 D000/9008_      00000 22374              GETUSRNO PROC
 DROP   FINBASE,R7
 USING  *,R7
                                   22416
                                   22417                       COMMENT GET MAX SESSIONS BYTES, AND ZERO THEM
 003586 4860 C132            00132 22418                       LH    R6,CVMAXSES
 00358A 4160 6020            00020 22419                       LA    R6,@R6+32
 00358E 185D/1AD6/41D0_            22420                       XPUSH ,,(R6),PTR=R5
 00359A 1825                       22425                       LR    R2,R5
 00359C 4830 C132            00132 22426                       LH    R3,CVMAXSES
 0035A0 1BFF                       22427                       CLEAR R15
 0035A2 0E2E                       22431                       MVCL  R2,R14
                                   22432
                                   22433                       COMMENT                   SESSION NUMBERS START AT 1
                                   22434                       COMMENT ,                 (EXCEPT FOR PSUEDO SESSIONS)
 0035A4 9120 B3BB/4710_003BB       22435                       IF    ~CPSSFPS,BEGIN
 0035AC 5840 C1C0            001C0 22450  1                      L     R4,CVFJCB
 USING  JCB,R4                     22451  1                      WITH  (JCB,R4),BEGIN
                                   22465  2                        COMMENT LOOP THRU JCB'S AND MARK ALL USED SESSION NO.S
 0035B0 5940 C1C4/4730_      001C4 22466  2                        WHILE (R4,LE,CVLJCB),BEGIN
 0035B8 D504 BC48 404A_00C48 0004A 22485  3                          IF    (CPCACCT,EQ,JCBACCT),BEGIN
 0035C2 1F22/BF23 404F             22503  4                            L2    R2,JCBANO
 0035C8 1222/4780 704A             22511  4                            IF    (R2,NZ),BEGIN
 0035CE 0620                       22525  5                              DECR  R2
 0035D0                            22527  4                            END
 0035D0 1A25                       22531  4                            AR    R2,R5
 0035D2 92E7 2000      00000       22532  4                            MVI   0(R2),C'X'
 0035D6                            22533  3                          END
 0035D6 4140 40D0            000D0 22537  3                          LA    R4,JCBNEXT
 0035DA 47F0 702A            035B0 22538  2                        END
1SIGN     (SIGN4072) (12:54) (15MAR04) WYLBUR's Signon/Signoff Processor                                                    Page   37
0Current Usings:  (*,R7) (CP,R11) (CV,R12)
0Loc    Object Code    Addr1 Addr2  Stmt Lv Lineno    Source Statement           (Hibal 5, Asmedit 3.3)  HLASM R4.0  2004/03/15 12.54
+___    ______ ____    _____ _____  ____ __ ______    ______ _________
0DROP   JCB,R4                     22543  1                      END   , WITH (JCB,R4)
 0035DE 5820 74FE            03A84 22551  1                      L     R2,=F'1'
 0035E2 1835                       22552  1                      LR    R3,R5
 0035E4 9500 3000/4780_00000       22553  1                      WHILE (@R3,NE,0),BEGIN
 0035EC 5E30 7502            03A88 22572  2                        INCR  R3
 0035F0 5E20 7502            03A88 22575  2                        INCR  R2
 0035F4 47F0 705E            035E4 22578  1                      END
 0035F8 18F2                       22583  1                      LR    R15,R2
 0035FA                            22584                       END
                                   22588
                                   22589                       COMMENT                   IF PSUEDO, START AT 9663
                                   22590                       COMMENT                   AND DECREMENT
 0035FA 9120 B3BB/47E0_003BB       22591                       IF    CPSSFPS,BEGIN
 003602 5840 C1C0            001C0 22606  1                      L     R4,CVFJCB
 USING  JCB,R4                     22607  1                      WITH  (JCB,R4),BEGIN
                                   22621  2                        COMMENT LOOP THRU JCB'S AND MARK ALL USED SESSION NO.S
 003606 5940 C1C4/4730_      001C4 22622  2                        WHILE (R4,LE,CVLJCB),BEGIN
 00360E D504 BC48 404A_00C48 0004A 22641  3                          IF    (CPCACCT,EQ,JCBACCT),BEGIN
 003618 5820 7506            03A8C 22659  4                            L     R2,=F'9663'
 00361C 1F33/BF33 404F             22660  4                            L2    R3,JCBANO
 003622 1B23                       22668  4                            SR    R2,R3
 003624 1A25                       22669  4                            AR    R2,R5
 003626 92E7 2000      00000       22670  4                            MVI   0(R2),C'X'
 00362A                            22671  3                          END
 00362A 4140 40D0            000D0 22675  3                          LA    R4,JCBNEXT
 00362E 47F0 7080            03606 22676  2                        END
 DROP   JCB,R4                     22681  1                      END   , WITH (JCB,R4)
 003632 5820 7506            03A8C 22689  1                      L     R2,=F'9663'
 003636 1835                       22690  1                      LR    R3,R5
 003638 9500 3000/4780_00000       22691  1                      WHILE (@R3,NE,0),BEGIN
 003640 5E30 7502            03A88 22710  2                        INCR  R3
 003644 0620                       22713  2                        DECR  R2
 003646 47F0 70B2            03638 22715  1                      END
 00364A 18F2                       22720  1                      LR    R15,R2
 00364C                            22721                       END
                                   22725
 00364C 1BD6/54D0 74FA             22726                       XPOP  ,,(R6)
 003652 18D8/9808 D004_            22729                       PEND
 DROP   *,R7
 USING  FINBASE,R7
1SIGN     (SIGN4072) (12:54) (15MAR04) WYLBUR's Signon/Signoff Processor                                                    Page   38
0Current Usings:  (FINBASE,R7) (CP,R11) (CV,R12)
0Loc    Object Code    Addr1 Addr2  Stmt Lv Lineno    Source Statement           (Hibal 5, Asmedit 3.3)  HLASM R4.0  2004/03/15 12.54
+___    ______ ____    _____ _____  ____ __ ______    ______ _________
0                                  22757              ¿þþþþþþþþþþþþþþþþþþþþþþþþþþþþþþþþþþþþþþþþþþþþþþþþþþþþþþþþþþþþþþþþþþþþþÜ
                                   22758              Ÿ                                                                     Ÿ
                                   22759              Ÿ  CHKWORD -- Local routine to check to see if the user knows the     Ÿ
                                   22760              Ÿ    secret word.                                                     Ÿ
                                   22761              Ÿ                                                                     Ÿ
                                   22762              Ÿ    Returns to caller only if the account is ok to use.              Ÿ
                                   22763              Ÿ                                                                     Ÿ
                                                      ¾þþþþþþþþþþþþþþþþþþþþþþþþþþþþþþþþþþþþþþþþþþþþþþþþþþþþþþþþþþþþþþþþþþþþþ»
0003660 50E0 D000/9008_      00000 22764              CHKWORD  PROC
 DROP   FINBASE,R7
 USING  *,R7
 00367A D607 C050 C050_00050 00050 22806                       IF    ((CVWORD,NZ),AND,~CPFWORD),BEGIN  better ask...
 00368C 9120 B3BB/4710_003BB       22836  1                      IF    CPSSFPS,EXIT        Never ask a pseudo session
 003694 4110 C028/4100_      00028 22854  1                      TSEG  CVWYLSSN,,TB
 0036A6 4110 73DE/4100_      03A58 22882  1                      TREAD 'access is restricted... '
 0036B6 4770 70C4            0373E 22896  1                      IF    Z,BEGIN             Normal ending...
 0036BA 9110 C4C7/47E0_004C7       22907  2                        IF    (CVFSYST,AND,CPSFSPR),CHKWEXIT  Good guys are allowed
 0036CA 58E0 B08C/501E_      0008C 22939  2                        SCINIT (R1),(R0)
 0036D8 5810 B08C/1B00_      0008C 22959  2                        SCAN  ,
 003726 12FF/4770 70C4             22990  2                        IF    (R15,Z),BEGIN
 00372C 5810 B08C/4111_      0008C 23004  3                          SCUPTOK R1
 003734 D507 C050 1000_00050 00000 23008  3                          IF    (CVWORD,EQ,@R1),CHKWEXIT  They got it, scram
 00373E                            23028  2                        END
 00373E                            23032  1                      END
                                   23036  1                     ¿þþþþþþþþþþþþþþþþþþþþþþþþþþþþþþþþþþþþþþþþþþþþþþþþþþþþþþþþþþþþþþþþÜ
                                   23037  1                     Ÿ  The user couldn't get the correct secret word, kick him out.  Ÿ
                                   23038  1                     ¾þþþþþþþþþþþþþþþþþþþþþþþþþþþþþþþþþþþþþþþþþþþþþþþþþþþþþþþþþþþþþþþþ»
 00373E D704 BC48 BC48_00C48 00C48 23039  1                      CLEAR CPCACCT,CPSACCT     Clear any account
                                   23051  1
 00374A 58F0 C1C8            001C8 23052  1                      L     R15,CVCURJCB
 00374E 9680 F062      00062       23053  1                      WITH  (JCB,R15),'SET JCBAFALO'  Logging off
 USING  JCB,R15
 DROP   JCB,R15
 003752 47F0 C7DE            007DE 23082  1                      B     CVNEXT              Logoff (eventually)
 003756                            23083                       END
                                   23087
 003756 18D8/9808 D004_            23088              CHKWEXIT PEND
 DROP   *,R7
 USING  FINBASE,R7
1SIGN     (SIGN4072) (12:54) (15MAR04) WYLBUR's Signon/Signoff Processor                                                    Page   39
0Current Usings:  (FINBASE,R7) (CP,R11) (CV,R12)
0Loc    Object Code    Addr1 Addr2  Stmt Lv Lineno    Source Statement           (Hibal 5, Asmedit 3.3)  HLASM R4.0  2004/03/15 12.54
+___    ______ ____    _____ _____  ____ __ ______    ______ _________
0                                  23117              ¿þþþþþþþþþþþþþþþþþþþþþþþþþþþþþþþþþþþþþþþþþþþþþþþþþþþþþþþþþþþþþþþþþþþþþÜ
                                   23118              Ÿ                                                                     Ÿ
                                   23119              Ÿ  CHKSPID -- Local routine to check for special userid               Ÿ
                                   23120              Ÿ             and set account and project appropriately.              Ÿ
                                   23121              Ÿ                                                                     Ÿ
                                   23122              Ÿ    Input: R1, R0 contain id location and length.                    Ÿ
                                   23123              Ÿ                                                                     Ÿ
                                   23124              Ÿ    Output: R15 = 0 special id found                                 Ÿ
                                   23125              Ÿ                = 4 special id not found                             Ÿ
                                   23126              Ÿ                                                                     Ÿ
                                                      ¾þþþþþþþþþþþþþþþþþþþþþþþþþþþþþþþþþþþþþþþþþþþþþþþþþþþþþþþþþþþþþþþþþþþþþ»
0000000                00000 000EB 23127              CHKSPWA  RECORD BEGIN
                                   23135  1           CHKSPAC    DS    CL(&LINESZ)
 000000                                   1          +CHKSPAC    DS    CL(235)
 0000EB                000EB 000EB 23136                       END
 003764 50E0 D000/9008_      00000 23145              CHKSPID  PROC  CHKSPWA
 DROP   FINBASE,R7
 USING  *,R7
 USING  CHKSPWA-(4+36),R8
                                   23198              *
                                   23199              *  By request from Lynn McRae in an email dated July 9, 1998
                                   23200              *  we will allow the special ids followed by a project
                                   23201              *  field:
                                   23202              *
                                   23203              *        PRISM.project
                                   23204              *        SOCRATES.project
                                   23205              *        FOLIO.project
                                   23206              *        MEDLINE.project
                                   23207              *
 00377E 1200/47D0 7180             23208                       IF    (R0,POS),BEGIN
                                   23222  1           *
                                   23223  1           *  Upper case it for comparisons
                                   23224  1           *
 003784 5900 731E/47D0_      03A9C 23225  1                      CEIL  R0,L'CHKSPAC
 003790 18F0                       23244  1                      LR    R15,R0
 003792 06F0/12FF/4740_            23245  1                      MOVE  R15,CHKSPAC,@R1
 00379E 4110 8028            00000 23283  1                      LA    R1,CHKSPAC
 0037A2 58E0 7322/0DEE       03AA0 23284  1                      VCALL TOUPPER
 0037A8 18F1                       23288  1                      LR    R15,R1
                                   23289  1
 0037AA 5900 7326/4750_      03AA4 23290  1                      IF    ((R0,GE,5),AND,(@R15,EQ,'PRISM')),BEGIN
 0037BC D204 BC48 7373 00C48 03AF1 23322  2                        MVC   CPCACCT,=C'PRMHQ'   HQ.PRM is the Prism account
 0037C2 5900 732A/47D0_      03AA8 23323  2                        IF    ((R0,GT,6),AND,(@R15,EQ,'PRISM.')),BEGIN
 0037D4 1820                       23355  3                          LR    R2,R0
 0037D6 4B20 7362            03AE0 23356  3                          SH    R2,=H'6'
 0037DA 5920 732E/47D0_      03AAC 23357  3                          CEIL  R2,L'CPSPROJ
 0037E6 D207 B3F0 C4D8 003F0 004D8 23376  3                          MVC   CPSPROJ,CVBLANKS
 0037EC 0620/1222/4740_            23377  3                          MOVE  R2,CPSPROJ,@R15+6
 0037F8                            23415  2                        END
 0037F8 1BFF                       23419  2                        CLEAR R15
 0037FA                            23423  1                      END
                                   23427  1
 0037FA 7080/7080/47F0_037FA 037B0 23428  1                      ELSEIF ((R0,GE,8),AND,(@R15,EQ,'SOCRATES')),BEGIN
1SIGN     (SIGN4072) (12:54) (15MAR04) WYLBUR's Signon/Signoff Processor                                                    Page   40
0Current Usings:  (*,R7) (CHKSPWA-(4+36),R8) (CP,R11) (CV,R12)
0Loc    Object Code    Addr1 Addr2  Stmt Lv Lineno    Source Statement           (Hibal 5, Asmedit 3.3)  HLASM R4.0  2004/03/15 12.54
+___    ______ ____    _____ _____  ____ __ ______    ______ _________
0003810 D204 BC48 7378 00C48 03AF6 23471  2                        MVC   CPCACCT,=C'SCNEC'   EC.SCN in socrates account
 003816 5900 7336/47D0_      03AB4 23472  2                        IF    ((R0,GT,9),AND,(@R15,EQ,'SOCRATES.')),BEGIN
 003828 1820                       23504  3                          LR    R2,R0
 00382A 4B20 7364            03AE2 23505  3                          SH    R2,=H'9'
 00382E 5920 732E/47D0_      03AAC 23506  3                          CEIL  R2,L'CPSPROJ
 00383A D207 B3F0 C4D8 003F0 004D8 23525  3                          MVC   CPSPROJ,CVBLANKS
 003840 0620/1222/4740_            23526  3                          MOVE  R2,CPSPROJ,@R15+9
 00384C                            23564  2                        END
 00384C 1BFF                       23568  2                        CLEAR R15
 00384E                            23572  1                      END
                                   23576  1
 00384E 70D4/70D4/47F0_0384E 03804 23577  1                      ELSEIF ((R0,GE,5),AND,(@R15,EQ,'FOLIO')),BEGIN
 003864 D204 BC48 738B 00C48 03B09 23620  2                        MVC   CPCACCT,=C'FOLEN'   EN.FOL is the Folio account
 00386A 5900 732A/47D0_      03AA8 23621  2                        IF    ((R0,GT,6),AND,(@R15,EQ,'FOLIO.')),BEGIN
 00387C 1820                       23653  3                          LR    R2,R0
 00387E 4B20 7362            03AE0 23654  3                          SH    R2,=H'6'
 003882 5920 732E/47D0_      03AAC 23655  3                          CEIL  R2,L'CPSPROJ
 00388E D207 B3F0 C4D8 003F0 004D8 23674  3                          MVC   CPSPROJ,CVBLANKS
 003894 0620/1222/4740_            23675  3                          MOVE  R2,CPSPROJ,@R15+6
 0038A0                            23713  2                        END
 0038A0 1BFF                       23717  2                        CLEAR R15
 0038A2                            23721  1                      END
                                   23725  1
 0038A2 7128/7128/47F0_038A2 03858 23726  1                      ELSEIF ((R0,GE,7),AND,(@R15,EQ,'MEDLINE')),BEGIN
 0038B8 D204 BC48 7397 00C48 03B15 23769  2                        MVC   CPCACCT,=C'XPSMA'   Medline account
 0038BE 5900 7332/47D0_      03AB0 23770  2                        IF    ((R0,GT,8),AND,(@R15,EQ,'MEDLINE.')),BEGIN
 0038D0 1820                       23802  3                          LR    R2,R0
 0038D2 4B20 736C            03AEA 23803  3                          SH    R2,=H'8'
 0038D6 5920 732E/47D0_      03AAC 23804  3                          CEIL  R2,L'CPSPROJ
 0038E2 D207 B3F0 C4D8 003F0 004D8 23823  3                          MVC   CPSPROJ,CVBLANKS
 0038E8 0620/1222/4740_            23824  3                          MOVE  R2,CPSPROJ,@R15+8
 0038F4                            23862  2                        END
 0038F4 1BFF                       23866  2                        CLEAR R15
 0038F6                            23870  1                      END
                                   23874  1
 0038F6 717C/717C/47F0_038F6 038AC 23875  1                      ELSE  BEGIN
 0038FA 41F0 0004            00004 23888  2                        LA    R15,4               Not found
 0038FE                            23889  1                      END
                                   23893  1
 0038FE                            23894                       END
                                   23898
 0038FE 7184/47F0 7188 038FE 03782 23899                       ELSE  BEGIN
 003902 41F0 0004            00004 23910  1                      LA    R15,4               If R0 <= 0, id not found
 003906                            23911                       END
                                   23915
 003906 18D8/9808 D004_            23916                       PEND
 DROP   CHKSPWA-(4+36),R8
 DROP   *,R7
 USING  FINBASE,R7
1SIGN     (SIGN4072) (12:54) (15MAR04) WYLBUR's Signon/Signoff Processor                                                    Page   41
0Current Usings:  (FINBASE,R7) (CP,R11) (CV,R12)
0Loc    Object Code    Addr1 Addr2  Stmt Lv Lineno    Source Statement           (Hibal 5, Asmedit 3.3)  HLASM R4.0  2004/03/15 12.54
+___    ______ ____    _____ _____  ____ __ ______    ______ _________
0                                  23949              ¿þþþþþþþþþþþþþþþþþþþþþþþþþþþþþþþþþþþþþþþþþþþþþþþþþþþþþþþþþþþþþþþþþþþþþÜ
                                   23950              Ÿ                                                                     Ÿ
                                   23951              Ÿ  DOLOGMSG -- Local routine to write logon messages (if not          Ÿ
                                   23952              Ÿ    already written).                                                Ÿ
                                   23953              Ÿ                                                                     Ÿ
                                                      ¾þþþþþþþþþþþþþþþþþþþþþþþþþþþþþþþþþþþþþþþþþþþþþþþþþþþþþþþþþþþþþþþþþþþþþ»
0003914 50E0 D000/9008_      00000 23954              DOLOGMSG PROC
 DROP   FINBASE,R7
 USING  *,R7
 00392E 9110 B8A9/4710_008A9       23996                       IF    ~CPFLMSG,BEGIN
 003936 9180 C4C4/47E0_004C4       24011  1                      IF    CVFTMIL,BEGIN       Test milten...
 00393E 4110 71EC/4100_      03B1A 24026  2                        TSEG  '*** Test MILTEN Version ***',,CR
 003950 1B00/41F0 B050_            24044  2                        TCR
 00395C 1B00/41F0 B050_            24069  2                        TWRITE
 003968                            24094  1                      END
                                   24098  1
 003968 1B00                       24099  1                      CLEAR R0
 00396A D6EA CA1C CA1C_00A1C 00A1C 24103  1                      IF    (CVMSG,NZ),BEGIN    Message of the day...
 003974 58E0 7196/0DEE       03AC4 24119  2                        VCALL LOCALTOD
 00397A 1820                       24123  2                        LR    R2,R0
 00397C 5800 CA18            00A18 24124  2                        L     R0,CVMSGCK
 003980 1B11/1B33                  24125  2                        CLEAR R1,R3
 003984 18FD/41D0 D020             24131  2                        XPUSH ,,30,PTR=R15
 00398A 58E0 719A/0DEE       03AC8 24134  2                        VCALL FMTRCLCK            "hh:mm" or "hh:mm mm/dd/yyyy"
 003990 41F0 B050/58E0_      00050 24138  2                        TSEG  (R1),(R0)
 00399A 4110 C4D8/4100_      004D8 24162  2                        TSEG  CVBLANKS,2
 0039AC 4110 CA1C/4100_      00A1C 24192  2                        SETMSG CVMSG
 0039B4 58E0 71A2/0DEE       03AD0 24206  2                        VCALL LRTRIM
 0039BA 41F0 B050/58E0_      00050 24210  2                        TSEG  (R1),(R0),WR
 0039C4 4110 C4D8/4100_      004D8 24234  2                        SETMSG CVBLANKS,1
 0039CC                            24250  1                      END
                                   24254  1
 0039CC 4140 CB08            00B08 24255  1                      LA    R4,CVUMSGCK         User message
 0039D0 9500 4004/4780_00004       24256  1                      IF    (@R4+4,NE,X'00'),BEGIN  User message...
 0039D8 58E0 7196/0DEE       03AC4 24272  2                        VCALL LOCALTOD
 0039DE 1820                       24276  2                        LR    R2,R0
 0039E0 5800 4000            00000 24277  2                        L     R0,@R4
 0039E4 1B11/1B33                  24278  2                        CLEAR R1,R3
 0039E8 18FD/41D0 D020             24284  2                        XPUSH ,,30,PTR=R15
 0039EE 58E0 719A/0DEE       03AC8 24287  2                        VCALL FMTRCLCK            "hh:mm" or "hh:mm mm/dd/yyyy"
 0039F4 41F0 B050/58E0_      00050 24291  2                        TSEG  (R1),(R0)
 0039FE 4110 C4D8/4100_      004D8 24315  2                        TSEG  CVBLANKS,2
 003A10 4110 4004/4100_      00004 24345  2                        SETMSG @R4+4,L'CVMSG
 003A18 58E0 71A2/0DEE       03AD0 24361  2                        VCALL LRTRIM
 003A1E 41F0 B050/58E0_      00050 24365  2                        TSEG  (R1),(R0),WR
 003A28 4110 C4D8/4100_      004D8 24389  2                        SETMSG CVBLANKS,1
 003A30                            24405  1                      END
                                   24409  1
 003A30 1200/4780 7112_            24410  1                      IF    (R0,NZ),'TSEG (R1),(R0),WR'
 003A40 58E0 71A6/0DEE       03AD4 24453  1                      VCALL SHOWBKUP            Display any backup status vols
 003A46 9610 B8A9      008A9       24457  1                      SET   CPFLMSG
 003A4A                            24463                       END
 003A4A 18D8/9808 D004_            24467                       PEND
1SIGN     (SIGN4072) (12:54) (15MAR04) WYLBUR's Signon/Signoff Processor                                                    Page   42
0Current Usings:  (FINBASE,R7) (CP,R11) (CV,R12)
0Loc    Object Code    Addr1 Addr2  Stmt Lv Lineno    Source Statement           (Hibal 5, Asmedit 3.3)  HLASM R4.0  2004/03/15 12.54
+___    ______ ____    _____ _____  ____ __ ______    ______ _________
0DROP   *,R7
 USING  FINBASE,R7
                                   24494
                                   24495                       QLTORG
1SIGN     (SIGN4072) (12:54) (15MAR04) WYLBUR's Signon/Signoff Processor                                                    Page   43
0Current Usings:  (FINBASE,R7) (CP,R11) (CV,R12)
0Loc    Object Code    Addr1 Addr2  Stmt Lv Lineno    Source Statement           (Hibal 5, Asmedit 3.3)  HLASM R4.0  2004/03/15 12.54
+___    ______ ____    _____ _____  ____ __ ______    ______ _________
0                                  24548              ¿þþþþþþþþþþþþþþþþþþþþþþþþþþþþþþþþþþþþþþþþþþþþþþþþþþþþþþþþþþþþþþþþþþþþþÜ
                                   24549              Ÿ                                                                     Ÿ
                                   24550              Ÿ  GETCP -- Routine to get (and initialize) the CP.                   Ÿ
                                   24551              Ÿ                                                                     Ÿ
                                   24552              Ÿ    On entry:                                                        Ÿ
                                   24553              Ÿ      CPR - zero                                                     Ÿ
                                   24554              Ÿ                                                                     Ÿ
                                   24555              Ÿ    On exit:                                                         Ÿ
                                   24556              Ÿ      CPR - New CP                                                   Ÿ
                                   24557              Ÿ                                                                     Ÿ
                                                      ¾þþþþþþþþþþþþþþþþþþþþþþþþþþþþþþþþþþþþþþþþþþþþþþþþþþþþþþþþþþþþþþþþþþþþþ»
0003B54 50E0 D000/9008_      00000 24558              GETCP    XPROC
 DROP   FINBASE,R7
 USING  *,R7
 003B6E 12BB/4780 701E_            24601                       FAIL  (CPR,NZ),GETCP,'CP logic error.'
                                   24627
 003B8C 41F0 7132            03CA0 24628                       LA    R15,CPPOOL          Getmain new CP
 003B90 58E0 715A/0DEE       03CC8 24629                       VCALL GETPOOL
 003B96 18B1                       24633                       LR    CPR,R1
 003B98 18EB/48F0 7186_            24634                       ZOT   CP,LH:=AL2(CPXSIZE)  Zot CP
                                   24648
 003BA2 D203 B000 715E 00000 03CCC 24649                       MVC   CP(4),=C'CP  '      Set self identification
                                   24650
 003BA8 58F0 C6A8            006A8 24651                       L     R15,CVCPMEM
 003BAC 4AF0 7186            03CF4 24652                       AH    R15,=AL2(CPXSIZE)   New total memory used
 003BB0 50F0 C6A8            006A8 24653                       ST    R15,CVCPMEM         Save new total
                                   24654                       ¿þþþþþþþþþþþþþþþþþþþþþþþþþþþþþþÜ
                                   24655                       Ÿ  Set up default seg buffer.  Ÿ
                                   24656                       ¾þþþþþþþþþþþþþþþþþþþþþþþþþþþþþþ»
 003BB4 4800 7188            03CF6 24657                       LH    R0,=AL2(CPSEGDF#)   Get default seg buffer
 003BB8 58E0 7162/0DEE       03CD0 24658                       VCALL TSGBUFGT
 003BBE 4000 B04C            0004C 24662                       STH   R0,CPSEGBSZ         Save buffer length
 003BC2 5010 B048            00048 24663                       ST    R1,CPSEGBP          Save buffer ptr
                                   24664
                                   24665                       EXTRN TERMSEG
 003BC6 4800 B04C/41F0_      0004C 24666                       SEGINIT (R1),LH:CPSEGBSZ,CPSEG,RTN=TERMSEG
                                   24704
 003BE2 18D8/9808 D004_            24705                       PEND
 DROP   *,R7
 USING  FINBASE,R7
1SIGN     (SIGN4072) (12:54) (15MAR04) WYLBUR's Signon/Signoff Processor                                                    Page   44
0Current Usings:  (FINBASE,R7) (CP,R11) (CV,R12)
0Loc    Object Code    Addr1 Addr2  Stmt Lv Lineno    Source Statement           (Hibal 5, Asmedit 3.3)  HLASM R4.0  2004/03/15 12.54
+___    ______ ____    _____ _____  ____ __ ______    ______ _________
0                                  24733              ¿þþþþþþþþþþþþþþþþþþþþþþþþþþþþþþþþþþþþþþþþþþþþþþþþþþþþþþþþþþþþþþþþþþþþþÜ
                                   24734              Ÿ                                                                     Ÿ
                                   24735              Ÿ  FREECP -- Routine to free the CP.                                  Ÿ
                                   24736              Ÿ                                                                     Ÿ
                                   24737              Ÿ    On entry:                                                        Ÿ
                                   24738              Ÿ      CPR - CP ptr                                                   Ÿ
                                   24739              Ÿ                                                                     Ÿ
                                   24740              Ÿ    On exit:                                                         Ÿ
                                   24741              Ÿ      CPR - zero                                                     Ÿ
                                   24742              Ÿ                                                                     Ÿ
                                                      ¾þþþþþþþþþþþþþþþþþþþþþþþþþþþþþþþþþþþþþþþþþþþþþþþþþþþþþþþþþþþþþþþþþþþþþ»
0003BF0 50E0 D000/9008_      00000 24743              FREECP   XPROC
 DROP   FINBASE,R7
 USING  *,R7
 003C0A D501 70EE B000_03CF8 00000 24786                       FAIL  (CP,NE,'CP'),FREECP,'CP logic error.'
                                   24815                       ¿þþþþþþþþþþþþþþþþþþþþþþþþþþþþþþþÜ
                                   24816                       Ÿ  Free View extensions to CP.  Ÿ
                                   24817                       ¾þþþþþþþþþþþþþþþþþþþþþþþþþþþþþþþ»
 003C2C 58E0 70D6/0DEE       03CE0 24818                       VCALL FREEVIEW            Free View CP extension
                                   24822                       ¿þþþþþþþþþþþþþþþþþþþþÜ
                                   24823                       Ÿ  Free seg buffer.  Ÿ
                                   24824                       ¾þþþþþþþþþþþþþþþþþþþþ»
 003C32 5810 B048/1211_      00048 24825                       IF    ('LT R1,CPSEGBP',NZ),BEGIN  Free seg buffer...
 003C3C 4800 B04C            0004C 24841  1                      LH    R0,CPSEGBSZ
 003C40 58E0 70DA/0DEE       03CE4 24842  1                      VCALL TSGBUFRE
 003C46 D703 B070 B070_00070 00070 24846  1                      CLEAR CPSEGLOC,CPSEGLENF  Tidy
 003C52 D703 B048 B048_00048 00048 24858  1                      CLEAR CPSEGBP,CPSEGBSZ
 003C5E                            24870                       END
                                   24874                       ¿þþþþþþþþþþþþÜ
                                   24875                       Ÿ  Free CP.  Ÿ
                                   24876                       ¾þþþþþþþþþþþþ»
 003C5E D203 B000 70DE 00000 03CE8 24877                       MVC   CP(4),=C'OCP '      Old CP
                                   24878
 003C64 5810 B864            00864 24879                       L     R1,CPGETSTK         Load pointer to GETSTACK
 003C68 1211/4780 706A             24880                       IF    (R1,NZ),BEGIN       Free it if there is one...
 003C6E 58E0 70E2/0DEE       03CEC 24894  1                      VCALL FREECORE
 003C74                            24898                       END
                                   24902
 003C74 181B                       24903                       LR    R1,CPR
 003C76 41F0 7096            03CA0 24904                       LA    R15,CPPOOL          Freemain CP
 003C7A 58E0 70E6/0DEE       03CF0 24905                       VCALL FREEPOOL
                                   24909
 003C80 1BBB                       24910                       CLEAR CPR                 No CP now
                                   24914
 003C82 58F0 C6A8            006A8 24915                       L     R15,CVCPMEM
 003C86 4BF0 70EA            03CF4 24916                       SH    R15,=AL2(CPXSIZE)   Deduct space from total used
 003C8A 50F0 C6A8            006A8 24917                       ST    R15,CVCPMEM         Save new total
 003C8E 18D8/9808 D004_            24918                       PEND
 DROP   *,R7
 USING  FINBASE,R7
 003CA0 C3C5D3D3C2D3D6D2_          24945              CPPOOL   CELLBLOK SIZE=CPXSIZE,SUBPOOL=20
                                   24956                       QLTORG ,
1SIGN     (SIGN4072) (12:54) (15MAR04) WYLBUR's Signon/Signoff Processor                                                    Page   45
0Current Usings:  (FINBASE,R7) (CP,R11) (CV,R12)
0Loc    Object Code    Addr1 Addr2  Stmt Lv Lineno    Source Statement           (Hibal 5, Asmedit 3.3)  HLASM R4.0  2004/03/15 12.54
+___    ______ ____    _____ _____  ____ __ ______    ______ _________
0                                  24983              ¿þþþþþþþþþþþþþþþþþþþþþþþþþþþþþþþþþþþþþþþþþþþþþþþþþþþþþþþþþþþþþþþþþþþþþÜ
                                   24984              Ÿ                                                                     Ÿ
                                   24985              Ÿ  INITCP -- Routine to initialize ALL CP fields.                     Ÿ
                                   24986              Ÿ                                                                     Ÿ
                                   24987              Ÿ  This routine also initializes RECORD GROUPS,                       Ÿ
                                   24988              Ÿ  various routines, etc. ..                                          Ÿ
                                   24989              Ÿ                                                                     Ÿ
                                                      ¾þþþþþþþþþþþþþþþþþþþþþþþþþþþþþþþþþþþþþþþþþþþþþþþþþþþþþþþþþþþþþþþþþþþþþ»
0003CFA 50E0 D000/9008_      00000 24990              INITCP   XPROC
 DROP   FINBASE,R7
 USING  *,R7
 003D14 D501 74AC B000_041C0 00000 25033                       FAIL  (CP,NE,'CP'),BADCP,'WYLBUR logon logic error'
                                   25062              *
                                   25063    ***ISU    *  Preserve SIGNON flags.  This could be removed if flags were
                                   25064    ***ISU    *  moved out of CPINIT area.
                                   25065    ***ISU    *
 003D36 1F22/4320 B47C             25066    ***ISU             LC    R2,CPGFLG9
 003D3C 4100 B174            00174 25073                       LA    R0,CPINIT
 003D40 4810 74AE            041C2 25074                       LH    R1,=AL2(CPINITL)
 003D44 1BFF                       25075                       CLEAR R15
 003D46 0E0E                       25079                       MVCL  R0,R14              Zot CP
                                   25080    ***ISU
 003D48 4220 B47C            0047C 25081    ***ISU             STC   R2,CPGFLG9          Save back SIGNON flags
                                   25082    ***ISU
 003D4C D701 B240 B240 00240 00240 25083                       CLEAR CPCMDLEN            Other cleanup
                                   25090
                                   25091                       COMMENT                   SET UP SCANCB IN CP
 003D52 4110 B090            00090 25092                       LA    R1,CPNSCAN          General purpose SCANCB
 003D56 5010 B08C            0008C 25093                       ST    R1,CPNSCANP         Save addr in CP
 003D5A 58E0 B08C/D7AF_      0008C 25094                       SCCLR                     Clear control block
                                   25103
 003D66 9108 C4C5/4710_004C5       25104                       IF    ~CVFINIT,BEGIN
 003D6E 41F0 B050/58E0_      00050 25119  1                      TCLEAR
 003D78 4100 0001/58E0_      00001 25133  1                      TCNTL CTLSNSI             Sense our session info
 003D82 4770 708C            03DA0 25145  1                      IF    NZ,EXIT
 003D86 18F0                       25159  1                      LR    R15,R0
 003D88 59F0 743C/47D0_      04150 25160  1                      CEIL  R15,L'CPSIB
 003D94 06F0/12FF/4740_            25179  1                      MOVE  R15,CPSIB,@R1       Save session info
 003DA0                            25217                       END
                                   25221                       ¿þþþþþþþþþþþþþþþþþþþþþþþþþþþþþþþþþÜ
                                   25222                       Ÿ  Get an area for the GETSTACK.  Ÿ
                                   25223                       ¾þþþþþþþþþþþþþþþþþþþþþþþþþþþþþþþþþ»
 003DA0 4100 00EB            000EB 25224                       LA    R0,&LINESZ          Get memory for GETSTACK
 003DA4 58E0 7440/0DEE       04154 25225                       VCALL GETCORE
 003DAA 5010 B864            00864 25229                       ST    R1,CPGETSTK         Save GETSTACK address
                                   25230                       ¿þþþþþþþþþþþþþþþþþþþþþþþþþþþþþÜ
                                   25231                       Ÿ  Initialize record groups.  Ÿ
                                   25232                       ¾þþþþþþþþþþþþþþþþþþþþþþþþþþþþþ»
 003DAE 58E0 7444/0DEE       04158 25233                       ACALL INITRECS            Initialize all Record Groups
 003DB4 58E0 7448/0DEE       0415C 25237                       VCALL ACTRESET            Initialize Active file RG too
                                   25241
                                   25242                       COMMENT                   Initialize various modules
 003DBA 58E0 744C/0DEE       04160 25243                       VCALL INITEXEC            Init EXEC module
1SIGN     (SIGN4072) (12:54) (15MAR04) WYLBUR's Signon/Signoff Processor                                                    Page   46
0Current Usings:  (*,R7) (CP,R11) (CV,R12)
0Loc    Object Code    Addr1 Addr2  Stmt Lv Lineno    Source Statement           (Hibal 5, Asmedit 3.3)  HLASM R4.0  2004/03/15 12.54
+___    ______ ____    _____ _____  ____ __ ______    ______ _________
0003DC0 58E0 7450/0DEE       04164 25247                       VCALL INITXCAL            Init XCALL module
 003DC6 58E0 7454/0DEE       04168 25251                       VCALL INITFLOW            Init FLOW module
 003DCC 58E0 7458/0DEE       0416C 25255                       VCALL INITVARS            Init EXEC variables
 003DD2 58E0 745C/0DEE       04170 25259                       VCALL INITDBUG            Init DeBUG module
                                   25263
 003DD8 4DE0 70D6            03DEA 25264                       LCALL INITDFLT            Initialize other defaults
                                   25266
 003DDC 18D8/9808 D004_            25267                       PEND
 DROP   *,R7
 USING  FINBASE,R7
1SIGN     (SIGN4072) (12:54) (15MAR04) WYLBUR's Signon/Signoff Processor                                                    Page   47
0Current Usings:  (FINBASE,R7) (CP,R11) (CV,R12)
0Loc    Object Code    Addr1 Addr2  Stmt Lv Lineno    Source Statement           (Hibal 5, Asmedit 3.3)  HLASM R4.0  2004/03/15 12.54
+___    ______ ____    _____ _____  ____ __ ______    ______ _________
0                                  25295              ¿þþþþþþþþþþþþþþþþþþþþþþþþþþþþþþþþþþþþþþþþþþþþþþþþþþþþþþþþþþþþþþþþþþþþþÜ
                                   25296              Ÿ                                                                     Ÿ
                                   25297              Ÿ  INITDFLT -- Routine to initialize CP fields to their logon         Ÿ
                                   25298              Ÿ    defaults.                                                        Ÿ
                                   25299              Ÿ                                                                     Ÿ
                                                      ¾þþþþþþþþþþþþþþþþþþþþþþþþþþþþþþþþþþþþþþþþþþþþþþþþþþþþþþþþþþþþþþþþþþþþþ»
0003DEA 50E0 D000/9008_      00000 25300              INITDFLT PROC
 DROP   FINBASE,R7
 USING  *,R7
                                   25342    ***ISU    *  Preserve SIGNON flags.  This could be removed if flags were
                                   25343    ***ISU    *  moved out of CPINIT area.
                                   25344    ***ISU    *
 003E04 1F22/4320 B47C             25345    ***ISU             LC    R2,CPGFLG9
 003E0A D70F B474 B474 00474 00474 25352                       CLEAR CPGFLGS             Reset global flags
                                   25359    ***ISU
 003E10 4220 B47C            0047C 25360    ***ISU             STC   R2,CPGFLG9          Save back SIGNON flags
                                   25361    ***ISU    *
                                   25362              *
 003E14 4110 73CE/4100_      041D2 25363                       SETMSG 'Command'           Default command prompt text
 003E1C 9102 C4C5/47E0_004C5       25367                       IF    CVFTEST,BEGIN       Test subsystem...
 003E24 9680 B474      00474       25382  1                      SET   CPGFCPR             Explicit command prompt text
 003E28 4110 C028/4100_      00028 25388  1                      SETMSG CVWYLSSN
 003E30 58E0 7370/0DEE       04174 25402  1                      VCALL LRTRIM              Use subsystem name
 003E36                            25406                       END
 003E36 4000 B7FE            007FE 25410                       STH   R0,CPCPLEN
 003E3A 18F0                       25411                       LR    R15,R0
 003E3C 06F0/12FF/4740_            25412                       MOVE  R15,CPCPRMT,@R1     Set command prompt text
                                   25450
 003E48 D20F B448 731C 00448 04120 25451                       MVC   CPWCHAR,=CL(L'CPWCHAR)'GENERAL'  Default component
 003E4E D201 BC50 73C0 00C50 041C4 25452                       MVC   CPLCOL,=H'&LINESZ'  Default ending column
 003E54 D203 B738 7374 00738 04178 25453                       MVC   CPDELTA,=F'1000'    Set global delta to 1
 003E5A D201 B87E 73C2 0087E 041C6 25454                       MVC   CPLENGTH,=H'72'     Set default length
 003E60 D201 B86C 73C4 0086C 041C8 25455                       MVC   CPHCMDMX,=H'5'      No. of previous cmds to display
 003E66 D201 B7E0 73C6 007E0 041CA 25456                       MVC   CPLIMIT,=H'5000'    No of cmds before exec loop warn
 003E6C 9601 B477      00477       25457                       SET   CPGFNLST            Global nolist in effect
 003E70 D201 BB52 73C8 00B52 041CC 25463                       MVC   CPVMARG,=H'68'      View mode right margin
 003E76 9680 BACA      00ACA       25464                       SET   CPVFWRAP            Page mode defaults
 003E7A 9240 BACD      00ACD       25470                       MVI   CPVWCHAR,C' '       Word separator is blank
 003E7E 9608 B9E1      009E1       25471                       SET   CPJFFRCE            Jes force mode
 003E82 D201 BA0A 73CA 00A0A 041CE 25477                       MVC   CPJNO,=H'-1'        No local job count
 003E88 D707 B88E B88E 0088E 0088E 25478                       CLEAR CPOERRID            Init "prev" error id
 003E8E D207 B588 732C 00588 04130 25485                       MVC   CPANAME,=CL8'NEW'   Set Active file name
 003E94 D207 B590 7334 00590 04138 25486                       MVC   CPATYPE,=CL8'TEXT'  Set Active file type
 003E9A D203 B5A8 7378 005A8 0417C 25487                       MVC   CPACLNO,=F'-1000'   No current line ptr
 003EA0 9280 B75C      0075C       25488                       MVI   CPEXLINE,X'80'      Set no exec line ptr
 003EA4 D703 B89C B89C 0089C 0089C 25489                       CLEAR CPEXATTN            No "ON ATTN"
 003EAA D703 B898 B898 00898 00898 25496                       CLEAR CPEXABRT            No "ON ABORT"
 003EB0 9604 B477      00477       25503                       SET   CPFNPARM            Exec parm not set
 003EB4 D207 B8AB 733C 008AB 04140 25509                       MVC   CPLIB,=CL8'LIB'
                                   25510                       COMMENT                   Clear member  CH 5/91
 003EBA 4110 B62C/5800_      0062C 25511                       SETMSG CPAFNAME,L:CPAFNAMEL (we recalc name len w/o mem)
 003EC2 58E0 737C/0DEE       04180 25525                       VCALL RETFNAME
 003EC8 5000 B628            00628 25529                       ST    R0,CPAFNAMEL
1SIGN     (SIGN4072) (12:54) (15MAR04) WYLBUR's Signon/Signoff Processor                                                    Page   48
0Current Usings:  (*,R7) (CP,R11) (CV,R12)
0Loc    Object Code    Addr1 Addr2  Stmt Lv Lineno    Source Statement           (Hibal 5, Asmedit 3.3)  HLASM R4.0  2004/03/15 12.54
+___    ______ ____    _____ _____  ____ __ ______    ______ _________
0003ECC D201 B8B6 73CC 008B6 041D0 25530                       MVC   CPWRNCNT,=H'30'     Set default warn count
 003ED2 D703 B5B4 B5B4 005B4 005B4 25531                       CLEAR CPACHCT             Clear the change count
 003ED8 D201 B8B8 73C4 008B8 041C8 25538                       MVC   CPRSCNVL,=H'5'      Set rescan limit
                                   25539
 003EDE 9501 B38C/4770_0038C       25540                       IF    CPSTCONS,BEGIN      CONSOLE defaults...
 003EE6 D701 B7FE B7FE 007FE 007FE 25555  1                      CLEAR CPCPLEN             No command prompt text
 003EEC 9608 B478      00478       25562  1                      SET   CPGFNATN            Mode noattn
 003EF0                            25568                       END
                                   25572
 003EF0 9108 B3BB/47E0_003BB       25573                       IF    CPSSFSEC,'SET CPFSEC'  Session is secure
                                   25599
 003EFC 58E0 7380/0DEE       04184 25600                       VCALL SAMINIT             Reset Samson information
 003F02 58E0 7358/0DEE       0415C 25604                       VCALL ACTRESET            Clear all actives
 003F08 58E0 7384/0DEE       04188 25608                       VCALL EXREINIT            Clear all execs
 003F0E 4DE0 7128            03F2C 25612                       LCALL INITSESS            Initialize milten session info
 003F12 58E0 7388/0DEE       0418C 25614                       VCALL CHECKSET            Keep accurate for recovery
                                   25618
 003F18 58E0 738C/0DEE       04190 25619                       VCALL BILLCHK             Initialize user accounting
 003F1E 18D8/9808 D004_            25623                       PEND
 DROP   *,R7
 USING  FINBASE,R7
1SIGN     (SIGN4072) (12:54) (15MAR04) WYLBUR's Signon/Signoff Processor                                                    Page   49
0Current Usings:  (FINBASE,R7) (CP,R11) (CV,R12)
0Loc    Object Code    Addr1 Addr2  Stmt Lv Lineno    Source Statement           (Hibal 5, Asmedit 3.3)  HLASM R4.0  2004/03/15 12.54
+___    ______ ____    _____ _____  ____ __ ______    ______ _________
0                                  25651              ¿þþþþþþþþþþþþþþþþþþþþþþþþþþþþþþþþþþþþþþþþþþþþþþþþþþþþþþþþþþþþþþþþþþþþþÜ
                                   25652              Ÿ                                                                     Ÿ
                                   25653              Ÿ  INITSESS -- Initialize MILTEN Session Information Block.           Ÿ
                                   25654              Ÿ                                                                     Ÿ
                                                      ¾þþþþþþþþþþþþþþþþþþþþþþþþþþþþþþþþþþþþþþþþþþþþþþþþþþþþþþþþþþþþþþþþþþþþþ»
0003F2C 50E0 D000/9008_      00000 25655              INITSESS PROC
 DROP   FINBASE,R7
 USING  *,R7
 003F46 9108 C4C5/4710_004C5       25697                       IF    ~CVFINIT,BEGIN
 003F4E D604 B3B4 B3B4_003B4 003B4 25712  1                      IF    (CPSACCT,Z),BEGIN   Clear other session stuff...
 003F58 41F0 B050/58E0_      00050 25728  2                        TCLEAR
 003F62 D70F B3B4 B3B4 003B4 003B4 25742  2                        CLEAR CPSSESS             Reset account info
 003F68 4110 B3B4/4100_      003B4 25749  2                        TSEG  CPSSESS
 003F7A 4100 0065/58E0_      00065 25777  2                        TCNTL CTLPSETS            Set session
 003F84 4780 7056/900F_      03F9C 25789  2                        FAIL  NZ,MILERR
 003F9C 18F0                       25811  2                        LR    R15,R0
 003F9E 59F0 7252/47D0_      04198 25812  2                        CEIL  R15,L'CPS
 003FAA 06F0/12FF/4740_            25831  2                        MOVE  R15,CPS,@R1
 003FB6                            25869  1                      END
 003FB6                            25873                       END
 003FB6 18D8/9808 D004_            25877                       PEND
 DROP   *,R7
 USING  FINBASE,R7
1SIGN     (SIGN4072) (12:54) (15MAR04) WYLBUR's Signon/Signoff Processor                                                    Page   50
0Current Usings:  (FINBASE,R7) (CP,R11) (CV,R12)
0Loc    Object Code    Addr1 Addr2  Stmt Lv Lineno    Source Statement           (Hibal 5, Asmedit 3.3)  HLASM R4.0  2004/03/15 12.54
+___    ______ ____    _____ _____  ____ __ ______    ______ _________
0                                  25905              ¿þþþþþþþþþþþþþþþþþþþþþþþþþþþþþþþþþþþþþþþþþþþþþþþþþþþþþþþþþþþþþþþþþþþþþÜ
                                   25906              Ÿ                                                                     Ÿ
                                   25907              Ÿ                                                                     Ÿ
                                   25908              Ÿ  INITRECS- INITIALIZE ALL RECORD GROUPS                             Ÿ
                                   25909              Ÿ                                                                     Ÿ
                                   25910              Ÿ                                                                     Ÿ
                                   25911              Ÿ  Called at user start up.  Destroys any existing information        Ÿ
                                   25912              Ÿ  in the record groups!                                              Ÿ
                                   25913              Ÿ                                                                     Ÿ
                                   25914              Ÿ  Note:  This routine must NOT initialize the Active file            Ÿ
                                   25915              Ÿ    record group (CPTEXT).  That function is done by the             Ÿ
                                   25916              Ÿ    "ACTRESET" routine.                                              Ÿ
                                   25917              Ÿ                                                                     Ÿ
                                   25918              Ÿ                                                                     Ÿ
                                                      ¾þþþþþþþþþþþþþþþþþþþþþþþþþþþþþþþþþþþþþþþþþþþþþþþþþþþþþþþþþþþþþþþþþþþþþ»
0003FC4 50E0 D000/9008_      00000 25919              INITRECS PROC
 DROP   FINBASE,R7
 USING  *,R7
                                   25961
                                   25962                       COMMENT                   Free any current Record Groups
                                   25963                       COMMENT                   NOTE: this will destroy all data!
 003FDE 41F0 B4A4            004A4 25964                       LA    R15,CPEXEC
 003FE2 58E0 71BE/0DEE       0419C 25965                       VCALL FREERG
 003FE8 41F0 B4C4            004C4 25969                       LA    R15,CPFLOW
 003FEC 58E0 71BE/0DEE       0419C 25970                       VCALL FREERG
 003FF2 41F0 B4E4            004E4 25974                       LA    R15,CPVARS
 003FF6 58E0 71BE/0DEE       0419C 25975                       VCALL FREERG
 003FFC 41F0 B504            00504 25979                       LA    R15,CPDATA
 004000 58E0 71BE/0DEE       0419C 25980                       VCALL FREERG
 004006 41F0 B524            00524 25984                       LA    R15,CPRG16
 00400A 58E0 71BE/0DEE       0419C 25985                       VCALL FREERG
 004010 41F0 B544            00544 25989                       LA    R15,CPRG64
 004014 58E0 71BE/0DEE       0419C 25990                       VCALL FREERG
                                   25994
 00401A 41F0 B4A4            004A4 25995                       LA    R15,CPEXEC          EXEC files
 00401E 4100 0004            00004 25996                       LA    R0,4
 004022 4110 71C2            041A0 25997                       LA    R1,=CL4'EXEC'
 004026 4120 71C6            041A4 25998                       LA    R2,=CL4'....'
 00402A 58E0 71CA/0DEE       041A8 25999                       VCALL INITRG
 004030 41F0 B4C4            004C4 26003                       LA    R15,CPFLOW          FLOW information
 004034 4100 0010            00010 26004                       LA    R0,16
 004038 4110 71CE            041AC 26005                       LA    R1,=CL4'FLOW'
 00403C 4120 71C6            041A4 26006                       LA    R2,=CL4'....'
 004040 58E0 71CA/0DEE       041A8 26007                       VCALL INITRG
 004046 41F0 B4E4            004E4 26011                       LA    R15,CPVARS          Exec Variables
 00404A 4100 0010            00010 26012                       LA    R0,16
 00404E 4110 71D2            041B0 26013                       LA    R1,=CL4'VARS'
 004052 4120 71C6            041A4 26014                       LA    R2,=CL4'....'
 004056 58E0 71CA/0DEE       041A8 26015                       VCALL INITRG
 00405C 41F0 B504            00504 26019                       LA    R15,CPDATA          Exec GETDATA/PUTDATA records
 004060 4100 0020            00020 26020                       LA    R0,CPDATANL
 004064 4110 71D6            041B4 26021                       LA    R1,=CL4'DATA'
 004068 4120 71C6            041A4 26022                       LA    R2,=CL4'....'
1SIGN     (SIGN4072) (12:54) (15MAR04) WYLBUR's Signon/Signoff Processor                                                    Page   51
0Current Usings:  (*,R7) (CP,R11) (CV,R12)
0Loc    Object Code    Addr1 Addr2  Stmt Lv Lineno    Source Statement           (Hibal 5, Asmedit 3.3)  HLASM R4.0  2004/03/15 12.54
+___    ______ ____    _____ _____  ____ __ ______    ______ _________
000406C 58E0 71CA/0DEE       041A8 26023                       VCALL INITRG
                                   26027
 004072 41F0 B524            00524 26028                       LA    R15,CPRG16          Misc Record Group 16
 004076 4100 0010            00010 26029                       LA    R0,CPRG16NL
 00407A 4110 71DA            041B8 26030                       LA    R1,=CL4'RG16'
 00407E 4120 71C6            041A4 26031                       LA    R2,=CL4'....'
 004082 58E0 71CA/0DEE       041A8 26032                       VCALL INITRG
 004088 41F0 B544            00544 26036                       LA    R15,CPRG64          Misc Record Group 64
 00408C 4100 0040            00040 26037                       LA    R0,CPRG64NL
 004090 4110 71DE            041BC 26038                       LA    R1,=CL4'RG64'
 004094 4120 71C6            041A4 26039                       LA    R2,=CL4'....'
 004098 58E0 71CA/0DEE       041A8 26040                       VCALL INITRG
                                   26044
 00409E 1BFF                       26045                       CLEAR R15
 0040A0 18D8/9808 D004_            26049                       PEND
 DROP   *,R7
 USING  FINBASE,R7
1SIGN     (SIGN4072) (12:54) (15MAR04) WYLBUR's Signon/Signoff Processor                                                    Page   52
0Current Usings:  (FINBASE,R7) (CP,R11) (CV,R12)
0Loc    Object Code    Addr1 Addr2  Stmt Lv Lineno    Source Statement           (Hibal 5, Asmedit 3.3)  HLASM R4.0  2004/03/15 12.54
+___    ______ ____    _____ _____  ____ __ ______    ______ _________
0                                  26077              ¿þþþþþþþþþþþþþþþþþþþþþþþþþþþþþþþþþþþþþþþþþþþþþþþþþþþþþþþþþþþþþþþþþþþþþÜ
                                   26078              Ÿ                                                                     Ÿ
                                   26079              Ÿ                                                                     Ÿ
                                   26080              Ÿ  FREERECS - FREE ALL RECORD GROUPS (including the Active file       Ÿ
                                   26081              Ÿ       Record Group.)                                                Ÿ
                                   26082              Ÿ                                                                     Ÿ
                                   26083              Ÿ                                                                     Ÿ
                                   26084              Ÿ                                                                     Ÿ
                                                      ¾þþþþþþþþþþþþþþþþþþþþþþþþþþþþþþþþþþþþþþþþþþþþþþþþþþþþþþþþþþþþþþþþþþþþþ»
00040AE 50E0 D000/9008_      00000 26085              FREERECS PROC
 DROP   FINBASE,R7
 USING  *,R7
                                   26127
                                   26128                       COMMENT                   Free all current Record Groups
                                   26129                       COMMENT                   NOTE: this will destroy all data!
 0040C8 41F0 B484            00484 26130                       LA    R15,CPTEXT
 0040CC 58E0 70D4/0DEE       0419C 26131                       VCALL FREERG
 0040D2 41F0 B4A4            004A4 26135                       LA    R15,CPEXEC
 0040D6 58E0 70D4/0DEE       0419C 26136                       VCALL FREERG
 0040DC 41F0 B4C4            004C4 26140                       LA    R15,CPFLOW
 0040E0 58E0 70D4/0DEE       0419C 26141                       VCALL FREERG
 0040E6 41F0 B4E4            004E4 26145                       LA    R15,CPVARS
 0040EA 58E0 70D4/0DEE       0419C 26146                       VCALL FREERG
 0040F0 41F0 B504            00504 26150                       LA    R15,CPDATA
 0040F4 58E0 70D4/0DEE       0419C 26151                       VCALL FREERG
 0040FA 41F0 B524            00524 26155                       LA    R15,CPRG16
 0040FE 58E0 70D4/0DEE       0419C 26156                       VCALL FREERG
 004104 41F0 B544            00544 26160                       LA    R15,CPRG64
 004108 58E0 70D4/0DEE       0419C 26161                       VCALL FREERG
                                   26165
 00410E 1BFF                       26166                       CLEAR R15
 004110 18D8/9808 D004_            26170                       PEND
 DROP   *,R7
 USING  FINBASE,R7
                                   26197
                                   26198                       QLTORG
1SIGN     (SIGN4072) (12:54) (15MAR04) LOGON/LOGOFF Commands                                                                Page   53
0Current Usings:  (FINBASE,R7) (CP,R11) (CV,R12)
0Loc    Object Code    Addr1 Addr2  Stmt Lv Lineno    Source Statement           (Hibal 5, Asmedit 3.3)  HLASM R4.0  2004/03/15 12.54
+___    ______ ____    _____ _____  ____ __ ______    ______ _________
0000000                00000 00001 26255              LOGWA    RECORD BEGIN
 000000 00                         26263  1           LOGFLAG    FLAG
 LOGFLAG.LOGFSAVE  80 ONES         26267  1                      FLAG  LOGFSAVE            - Save active file
 000001                00001 00001 26272                       END
-                                  26282              ¿þþþþþþþþþþþþþþþþþþþþþþþþþþþþþþþþþþþþþþþþþþþþþþþþþþþþþþþþþþþþþþþþþþþþþÜ
                                   26283              Ÿ                                                                     Ÿ
                                   26284              Ÿ  LOGOFF                                                             Ÿ
                                   26285              Ÿ                                                                     Ÿ
                                                      ¾þþþþþþþþþþþþþþþþþþþþþþþþþþþþþþþþþþþþþþþþþþþþþþþþþþþþþþþþþþþþþþþþþþþþþ»
00041EC 50E0 D000/9008_      00000 26286              LOGOFF   XPROC  ,                  SET CPCMNM AND CALL LOGON
 DROP   FINBASE,R7
 USING  *,R7
 004206 92FF BD24      00D24       26329                       MVI   CPCMNM,X'FF'
 00420A 58E0 76EA/0DEE       048F0 26330                       ACALL LOGON               NO RETURN
 004210 0000                       26334                       BOMB
 004212 18D8/9808 D004_            26336                       PEND
 DROP   *,R7
 USING  FINBASE,R7
                                   26363              ¿þþþþþþþþþþþþþþþþþþþþþþþþþþþþþþþþþþþþþþþþþþþþþþþþþþþþþþþþþþþþþþþþþþþþþÜ
                                   26364              Ÿ                                                                     Ÿ
                                   26365              Ÿ  LOGON                                                              Ÿ
                                   26366              Ÿ                                                                     Ÿ
                                                      ¾þþþþþþþþþþþþþþþþþþþþþþþþþþþþþþþþþþþþþþþþþþþþþþþþþþþþþþþþþþþþþþþþþþþþþ»
0004220 50E0 D000/9008_      00000 26367              LOGON    XPROC LOGWA
 DROP   FINBASE,R7
 USING  *,R7
 USING  LOGWA-(4+36),R8
 00423A 4160 8028            00000 26421                       LA    R6,LOGWA
 USING  LOGWA,R6                   26422                       USING LOGWA,R6
 00423E 9200 6000      00000       26431                       CLEAR LOGWA
                                   26438
 004242 5810 B08C/1B00_      0008C 26439                       SCAN LOGPRT
 004294 58E0 76C2/0DEE       048FC 26471                       SCANCHK
                                   26476
 00429A 9180 6000/4710_00000       26477                       IF    ~LOGFSAVE,BEGIN
 0042A2 58E0 76C6/0DEE       04900 26492  1                      VCALL CLRACTS             Clear Actives
 0042A8                            26496                       END
                                   26500                       ¿þþþþþþþþþþþþþþþþþþþþþþþþþþþþþþþþþþþþþþþþþþþþþþþþþþþþþþÜ
                                   26501                       Ÿ  Vista LOGOFF simply returns to the subsystem which  Ÿ
                                   26502                       Ÿ    invoked it (no logoff messages, etc.)             Ÿ
                                   26503                       ¾þþþþþþþþþþþþþþþþþþþþþþþþþþþþþþþþþþþþþþþþþþþþþþþþþþþþþþ»
 0042A8 9180 C4C8/47E0_004C8       26504                       IF    CVFVISTA,BEGIN      VISTA style...
 0042B0 D607 B15C B15C_0015C 0015C 26519  1                      IF    (CPORGSYS,Z),BEGIN  Originated from MILTEN...
 0042BA 4110 771C/4100_      04956 26535  2                        TSEG  'End of VISTA session.',,CR
 0042CC 1B00/41F0 B050_            26553  2                        TWRITE
 0042D8                            26578  1                      END
                                   26582  1
 0042D8 70A2/47F0 70E0 042D8 042B8 26583  1                      ELSE  BEGIN               See if subsys is running...
 0042DC 4110 B15C            0015C 26594  2                        LA    R1,CPORGSYS
 0042E0 58E0 76D2/0DEE       0490C 26595  2                        VCALL SYSCHECK            Is this subsystem running?
1SIGN     (SIGN4072) (12:54) (15MAR04) LOGON/LOGOFF Commands                                                                Page   54
0Current Usings:  (LOGWA,R6) (*,R7) (LOGWA-(4+36),R8) (CP,R11) (CV,R12)
0Loc    Object Code    Addr1 Addr2  Stmt Lv Lineno    Source Statement           (Hibal 5, Asmedit 3.3)  HLASM R4.0  2004/03/15 12.54
+___    ______ ____    _____ _____  ____ __ ______    ______ _________
00042E6 4780 70E0            0431A 26599  2                        IF    NZ,BEGIN            No...
 0042EA 4110 B15C/4100_      0015C 26610  3                          TSEG  CPORGSYS,,TB
 0042FC 4110 7708/4100_      04942 26638  3                          TSEG  ' is not available.',,CR
 00430E 1B00/41F0 B050_            26656  3                          TWRITE
 00431A                            26681  2                        END
 00431A                            26685  1                      END
                                   26689  1
 00431A 9608 B474      00474       26690  1                      SET   CPFSYSMV            Transfer control w/o msgs
 00431E D207 B164 B15C 00164 0015C 26696  1                      MVC   CPLGFSYS,CPORGSYS   Set new subsys name
 004324 58F0 C1C8            001C8 26697  1                      L     R15,CVCURJCB
 004328 9680 F062      00062       26698  1                      WITH  (JCB,R15),'SET JCBAFALO'  Log off our WYLBUR
 USING  JCB,R15
 DROP   JCB,R15
 00432C 47F0 C7DE            007DE 26727  1                      B     CVNEXT              Scram
 004330                            26728                       END
                                   26732                       ¿þþþþþþþþþþþþþþþþþþþþþþþþþþþþþþþÜ
                                   26733                       Ÿ  Normal Wylbur logon/logoff.  Ÿ
                                   26734                       ¾þþþþþþþþþþþþþþþþþþþþþþþþþþþþþþþ»
 004330 58E0 76DA/0DEE       04914 26735                       VCALL ORVCPASS            Pass command to SPIRES
                                   26739
 004336 9680 BC7D      00C7D       26740                       SET   CPFNPAU             Don't page/pause
                                   26746                       ¿þþþþþþþþþþþþþþþþþþþþþþþþþþþþþþþþþþþþþÜ
                                   26747                       Ÿ  April fools joke in TESTWYL only.  Ÿ
                                   26748                       ¾þþþþþþþþþþþþþþþþþþþþþþþþþþþþþþþþþþþþþ»
                                   26749                       AGO   .NOJOKE
                                   26750              .NOJOKE  ANOP
                                   26751
 00433A 9180 B387/47E0_00387       26752                       IF    CPSFSTOP,'MVI CPCMNM,X"FF"'  Force logoff if stopping
                                   26773
 004346 95FF BD24/4770_00D24       26774                       IF    (CPCMNM,EQ,X'FF'),BEGIN  Logoff command...
 00434E 58F0 C1C8            001C8 26791  1                      L     R15,CVCURJCB
 004352 9680 F062      00062       26792  1                      WITH  (JCB,R15),'SET JCBAFALO'  Logoff
 USING  JCB,R15
 DROP   JCB,R15
 004356                            26821                       END
 004356 58E0 76DE/0DEE       04918 26825                       ACALL SIGNOFF             NO RETURN
 00435C 0000                       26829                       BOMB
 00435E 18D8/9808 D004_            26831                       PEND
 DROP   LOGWA-(4+36),R8
 DROP   *,R7
 USING  FINBASE,R7
                                   26863
 00436C E2C1E5C540404040_          26864              LOGPRT   SCKW  SAVE,LGFSAVE,A
 004394 4040404040404040_          26879                       SCKW  ,V(CLRPSH),PUSH
 0043BC 4040404040404040_          26894                       SCKW  ,V(SCNINVAL)
                                   26909
 0043E4 50E0 D000/9008_      00000 26910              LGFSAVE  PROC
 DROP   FINBASE,R7
 USING  *,R7
 0043FE 9680 6000      00000       26952                       SET   LOGFSAVE
 004402 18D8/9808 D004_            26958                       PEND
 DROP   *,R7
 USING  FINBASE,R7
                                   26985
1SIGN     (SIGN4072) (12:54) (15MAR04) LOGON/LOGOFF Commands                                                                Page   55
0Current Usings:  (FINBASE,R7) (CP,R11) (CV,R12)
0Loc    Object Code    Addr1 Addr2  Stmt Lv Lineno    Source Statement           (Hibal 5, Asmedit 3.3)  HLASM R4.0  2004/03/15 12.54
+___    ______ ____    _____ _____  ____ __ ______    ______ _________
0DROP   LOGWA,R6                   26986                       DROP  R6
1SIGN     (SIGN4072) (12:54) (15MAR04) LOGON/LOGOFF Commands                                                                Page   56
0Current Usings:  (FINBASE,R7) (CP,R11) (CV,R12)
0Loc    Object Code    Addr1 Addr2  Stmt Lv Lineno    Source Statement           (Hibal 5, Asmedit 3.3)  HLASM R4.0  2004/03/15 12.54
+___    ______ ____    _____ _____  ____ __ ______    ______ _________
0                                  26994              *
                                   26995              *
                                   26996              *  ELF LOGIN:  PROCESS ELF DIRECT LOGIN
                                   26997              *
                                   26998              *  THIS ROUTINE PROCESSES 'LOGIN: ... ' STRING
                                   26999              *  PASSED BY ELF.  FOR NOW WE ONLY LOOK AT THE
                                   27000              *  ACCOUNT AND COMMAND FIELDS.  ALL OTHER FIELDS
                                   27001              *  ARE IGNORED.  SPECIFICALLY, THE PASSWORD FIELD
                                   27002              *  IS IGNORED.  IF AN ACCOUNT REQUIRES A PASSWORD,
                                   27003              *  THE USER WILL BE PROMPTED, EVEN IF ONE WAS SUPPLIED.
                                   27004              *  THE COMMAND WILL BE PASSED AS THE FIRST COMMAND.
                                   27005              *  (HMMM).
                                   27006              *
                                   27007              *  ON ENTRY:
                                   27008              *  THE SCAN CONTROL BLOCK POINTS JUST PAST THE 'LOGIN: '
                                   27009              *
                                   27010              *  ON EXIT:
                                   27011              *  CPCACCT AND CPCMD,CPCMDLEN ARE SET APPROPRIATELY
                                   27012              *
                                   27013              *  ERRORS:
                                   27014              *  FOR NOW (EVER),  BAD SCANS SHOULD SET R15=4 (NZ) AND NOT
                                   27015              *  GIVE ANY ERROR MSGS.  UNRECOGNIZED OPTIONS FROM ELF SHOULD BE
                                   27016              *  IGNORED.
                                   27017              *
                                   27018              *  THIS ROUTINES IS CALLED BY 'SCAN SIGNPRT'.
                                   27019              *
                                   27020              *  ADMINISTRATIVE NOTE:
                                   27021              *  SIGN LOGIN CODE USES CPCMD AREA TO PASS LOGIN
                                   27022              *  STRING INFO.. AND YET THE CMD=' ...' OPTION
                                   27023              *  MAY UPDATE THE CPCMD FIELD.  IT MAY NOT BE SUCH
                                   27024              *  A GOOD IDEA TO USE THE CPCMD AREA FOR THIS. THE
                                   27025              *  LOGIN INFO SHOULD BE PLACED ON THE STACK IN THE
                                   27026              *  SIGNON WORK AREA.  BUT FOR NOW WE JUST COPY THE
                                   27027              *  STRING BEING SCANNED TO THE STACK AND SCAN IT
                                   27028              *  THERE.
                                   27029              *
                                   27030              *
 000000                00000 00520 27031              LGNWA    RECORD BEGIN
 000000                            27039  1           LGNACCTL   DS    F
                                   27040  1           LGNWACCT   DS    CL(&LINESZ)
 000004                                   1          +LGNWACCT   DS    CL(235)
 0000F0                            27041  1           LGNPRINL   DS    F
 0000F4                            27042  1           LGNPRINC   DS    CL(L'CPAUTHID)
                                   27043  1           LGNTEXT    DS    CL(&LINESZ*4)
 000174                                   1          +LGNTEXT    DS    CL(235*4)
 000520                00520 00520 27044                       END
                                   27053
 004410 50E0 D000/9008_      00000 27054              ELFLOGIN PROC  LGNWA
 DROP   FINBASE,R7
 USING  *,R7
 USING  LGNWA-(4+36),R8
                                   27107
 00442A 4160 8028            00000 27108                       LA    R6,LGNWA
 USING  LGNWA,R6                   27109                       USING LGNWA,R6
1SIGN     (SIGN4072) (12:54) (15MAR04) LOGON/LOGOFF Commands                                                                Page   57
0Current Usings:  (LGNWA,R6) (*,R7) (LGNWA-(4+36),R8) (CP,R11) (CV,R12)
0Loc    Object Code    Addr1 Addr2  Stmt Lv Lineno    Source Statement           (Hibal 5, Asmedit 3.3)  HLASM R4.0  2004/03/15 12.54
+___    ______ ____    _____ _____  ____ __ ______    ______ _________
0                                  27118
 00442E D7FF 6000 6000_00000 00000 27119                       CLEAR LGNWA               Zero the work area
                                   27131
                                   27132                       COMMENT                   MOVE SCAN TEXT INTO STACK
 004452 58E0 B08C/581E_      0008C 27133                       SCINFO
 004460 1821                       27142                       LR    R2,R1
 004462 1830                       27143                       LR    R3,R0
 004464 4140 6174            00174 27144                       LA    R4,LGNTEXT
 004468 1850                       27145                       LR    R5,R0
 00446A 5950 74F2/47D0_      0491C 27146                       CEIL  R5,L'LGNTEXT
 004476 0E42                       27165                       MVCL  R4,R2
 004478 58E0 B08C/D7AF_      0008C 27166                       SCCLR
 004484 4110 6174/58E0_      00174 27175                       SCINIT LGNTEXT,(R0)
                                   27198
 004496 D77F BB80 BB80 00B80 00B80 27199                       CLEAR CPAUTHID            Clear out principal
 00449C D704 BC48 BC48 00C48 00C48 27206                       CLEAR CPCACCT
                                   27213
                                   27214                       COMMENT                   SCAN ELF LOGIN OPTIONS
 0044A2 5810 B08C/1B00_      0008C 27215                       SCAN  ELFPRT
 0044F4 12FF/4780 70E4             27247                       IF    (R15,NZ),BEGIN      IF ERR, STOP SCAN, IGNORE MSG
 0044FA D704 BC48 BC48 00C48 00C48 27261  1                      CLEAR CPCACCT
 004500 D701 B240 B240 00240 00240 27268  1                      CLEAR CPCMDLEN
 004506 94BF B47C      0047C       27275  1                      CLEAR CPFSGNCM
 00450A 41F0 0004            00004 27282  1                      LA    R15,4
 00450E                            27283                       END
 00450E 70E8/47F0 7186 0450E 044F8 27287                       ELSE  BEGIN               Check out account and principal
 004512 D603 6000 6000_00000 00000 27298  1                      IF    (LGNACCTL,NZ),BEGIN
 00451C 4110 6004            00004 27314  2                        LA    R1,LGNWACCT
 004520 5800 6000            00000 27315  2                        L     R0,LGNACCTL
 004524 58E0 74FA/0DEE       04924 27316  2                        ACALL CHKSPID             Check for special ids
 00452A 12FF/4780 7186             27320  2                        IF    (R15,Z),ELFLOGEX
 004530 4110 6004            00004 27337  2                        LA    R1,LGNWACCT
 004534 5800 6000            00000 27338  2                        L     R0,LGNACCTL
 004538 41F0 BC48            00C48 27339  2                        LA    R15,CPCACCT         Put resolved account here
 00453C 58E0 74FE/0DEE       04928 27340  2                        VCALL GETACCT             Convert to account
 004542 12FF/4780 7128             27344  2                        IF    (R15,NZ),BEGIN
 004548 D704 BC48 BC48 00C48 00C48 27358  3                          CLEAR CPCACCT
 00454E 41F0 0004            00004 27365  3                          LA    R15,4
 004552                            27366  2                        END
 004552                            27370  1                      END
 004552 712C/47F0 7158_04552 0451A 27374  1                      ELSEIF (LGNPRINL,NZ),BEGIN
 004560 4110 60F4            000F4 27399  2                        LA    R1,LGNPRINC
 004564 5800 60F0            000F0 27400  2                        L     R0,LGNPRINL
 004568 41F0 BC48            00C48 27401  2                        LA    R15,CPCACCT         Put resolved account here
 00456C 58E0 74FE/0DEE       04928 27402  2                        VCALL GETACCT             Convert to account
 004572 12FF/4780 7158             27406  2                        IF    (R15,NZ),BEGIN
 004578 D704 BC48 BC48 00C48 00C48 27420  3                          CLEAR CPCACCT
 00457E 41F0 0004            00004 27427  3                          LA    R15,4
 004582                            27428  2                        END
 004582                            27432  1                      END
 004582 715C/47F0 715C 04582 0455E 27436  1                      ELSE  BEGIN
 004586                            27447  1                      END
                                   27451  1           *
                                   27452  1           * If we managed to find an account, then check to see if the
1SIGN     (SIGN4072) (12:54) (15MAR04) LOGON/LOGOFF Commands                                                                Page   58
0Current Usings:  (LGNWA,R6) (*,R7) (LGNWA-(4+36),R8) (CP,R11) (CV,R12)
0Loc    Object Code    Addr1 Addr2  Stmt Lv Lineno    Source Statement           (Hibal 5, Asmedit 3.3)  HLASM R4.0  2004/03/15 12.54
+___    ______ ____    _____ _____  ____ __ ______    ______ _________
0                                  27453  1           * account has a KLOGIN file and if the Kerberos principal
                                   27454  1           * is listed in it.
                                   27455  1           *
                                   27456  1           *
                                   27457  1           *  Warning! - The ELFs can send account information in two cases:
                                   27458  1           *             1) The Kerberos authentication case
                                   27459  1           *             2) When the ports for GEOREF, FOLIO, etc are used.
                                   27460  1           *
                                   27461  1           *             We need to come up with a way to distinguish these
                                   27462  1           *             cases (in the future event that Kerberos
                                   27463  1           *             authentication is applied to the libary ports).
                                   27464  1           *             Otherwise, the test below will cause those ports
                                   27465  1           *             indicated in (2) not to work - they'll get an account
                                   27466  1           *             prompt.
                                   27467  1           *
 004586 D604 BC48 BC48_00C48 00C48 27468  1                      IF    ((CPCACCT,NZ),AND,(CPAUTHID,NZ)),BEGIN
 00459A 58E0 7502/0DEE       0492C 27499  2                        VCALL KLOGINCK
 0045A0 12FF/4780 7186             27503  2                        IF    (R15,NZ),BEGIN
 0045A6 D704 BC48 BC48 00C48 00C48 27517  3                          CLEAR CPCACCT
 0045AC 41F0 0004            00004 27524  3                          LA    R15,4
 0045B0                            27525  2                        END
 0045B0                            27529  1                      END
 0045B0                            27533                       END
 0045B0 18D8/9808 D004_            27537              ELFLOGEX PEND  ,
 DROP   LGNWA-(4+36),R8
 DROP   *,R7
 USING  FINBASE,R7
                                   27570              *
                                   27571              *  ELF LOGIN OPTIONS
                                   27572              *
 0045C0 C1C3C3D6E4D5E340_          27573              ELFPRT   SCKW  ACCOUNT,LGNACCT
 0045E8 C3D6D4D4C1D5C440_          27588                       SCKW  COMMAND,LGNCMD
 004610 C1E4E3C86DC9C4C5_          27603                       SCKW  AUTH_IDENTITY,LGNAUTH
 004638 4040404040404040_          27618                       SCKW  ,LGNMISC
                                   27633              *
                                   27634              *  ACCOUNT=<account>
                                   27635              *
 004660 50E0 D000/9008_      00000 27636              LGNACCT  PROC  ,
 DROP   FINBASE,R7
 USING  *,R7
 00467A 5810 B08C/1B00_      0008C 27678                       SCAN  ,                   Get the account or userid
 0046C8 12FF/4770 7074             27709                       IF    (R15,Z),BEGIN
 0046CE 5900 72B6/47D0_      04930 27723  1                      CEIL  R0,L'LGNWACCT
 0046DA 18F0                       27742  1                      LR    R15,R0
 0046DC 50F0 6000            00000 27743  1                      ST    R15,LGNACCTL        Save length
 0046E0 06F0/12FF/4740_            27744  1                      MOVE  R15,LGNWACCT,@R1    Save account
 0046EC 1BFF                       27782  1                      CLEAR R15                 Scan the rest of the login string
 0046EE                            27786                       END
 0046EE 18D8/9808 D004_            27790                       PEND
 DROP   *,R7
 USING  FINBASE,R7
                                   27817              *
                                   27818              *  COMMAND='ABC ... '
                                   27819              *
1SIGN     (SIGN4072) (12:54) (15MAR04) LOGON/LOGOFF Commands                                                                Page   59
0Current Usings:  (LGNWA,R6) (*,R7) (CP,R11) (CV,R12)
0Loc    Object Code    Addr1 Addr2  Stmt Lv Lineno    Source Statement           (Hibal 5, Asmedit 3.3)  HLASM R4.0  2004/03/15 12.54
+___    ______ ____    _____ _____  ____ __ ______    ______ _________
00046FC 50E0 D000/9008_      00000 27820              LGNCMD   PROC  ,                   SCAN COMMAND VALUE
 DROP   FINBASE,R7
 USING  *,R7
 004716 5810 B08C/1B00_      0008C 27862                       SCAN  ,
 004764 12FF/4770 706E             27893                       IF    (R15,Z),BEGIN       IF ALL OK, SAVE FIRST CMD
 00476A 9640 B47C      0047C       27907  1                      SET   CPFSGNCM            FIRST COMMAND PROVIDED
 00476E 58F0 B08C/4110_      0008C 27913  1                      SCDQUOTE CPCMD
 004780 4000 B240            00240 27934  1                      STH   R0,CPCMDLEN
 004784                            27935                       END
 004784 18D8/9808 D004_            27939                       PEND
 DROP   *,R7
 USING  FINBASE,R7
                                   27966              *
                                   27967              *  AUTH_IDENTITY=string
                                   27968              *
 004792 50E0 D000/9008_      00000 27969              LGNAUTH  PROC  ,                   SCAN IDENTITY STRING
 DROP   FINBASE,R7
 USING  *,R7
 0047AC 5810 B08C/1B00_      0008C 28011                       SCAN  ,
 0047FA 12FF/4770 70BC             28042                       IF    (R15,Z),BEGIN       IF ALL OK, SAVE IT
 004800 5900 718C/4730_      04938 28056  1                      IF    (R0,LE,L'CPAUTHID),BEGIN
 004808 D27F BB80 C4D8 00B80 004D8 28073  2                        MVC   CPAUTHID,CVBLANKS
 00480E 18F0                       28074  2                        LR    R15,R0
 004810 06F0/12FF/4740_            28075  2                        MOVE  R15,CPAUTHID,@R1
                                   28113  2           *
                                   28114  2           * Extract the principal name and save it in the
                                   28115  2           * work area for later.
                                   28116  2           *
 00481C 5010 D000/41D0_      00000 28117  2                        XPUSH R1
 004824 1BFF                       28120  2                        CLEAR R15
 004826 19F0/47B0 7094_            28124  2                        WHILE ((R15,LT,R0),AND,(@R1,NE,'@')),BEGIN
 004834 5EF0 7190            0493C 28156  3                          INCR  R15
 004838 5E10 7190            0493C 28159  3                          INCR  R1
 00483C 47F0 707A            04826 28162  2                        END
 004840 4BD0 71A8/5810_      04954 28167  2                        XPOP  R1
 004848 19F0/47B0 70B2             28170  2                        IF    (R15,LT,R0),BEGIN
 00484E 50F0 60F0            000F0 28185  3                          ST    R15,LGNPRINL        Save length
 004852 06F0/12FF/4740_            28186  3                          MOVE  R15,LGNPRINC,@R1    Save principal name
 00485E                            28224  2                        END
 00485E 1BFF                       28228  2                        CLEAR R15                 Continue scanning
 004860                            28232  1                      END
 004860 70B8/47F0 70BC 04860 04806 28236  1                      ELSE  BEGIN               Stop scan - authid too large
 004864 41F0 0004            00004 28247  2                        LA    R15,4
 004868                            28248  1                      END
 004868                            28252                       END
 004868 18D8/9808 D004_            28256                       PEND
 DROP   *,R7
 USING  FINBASE,R7
                                   28283              *
                                   28284              *  MISC IS IGNORED
                                   28285              *
 004876 50E0 D000/9008_      00000 28286              LGNMISC  PROC  ,
 DROP   FINBASE,R7
 USING  *,R7
1SIGN     (SIGN4072) (12:54) (15MAR04) LOGON/LOGOFF Commands                                                                Page   60
0Current Usings:  (LGNWA,R6) (*,R7) (CP,R11) (CV,R12)
0Loc    Object Code    Addr1 Addr2  Stmt Lv Lineno    Source Statement           (Hibal 5, Asmedit 3.3)  HLASM R4.0  2004/03/15 12.54
+___    ______ ____    _____ _____  ____ __ ______    ______ _________
0004890 5810 B08C/1B00_      0008C 28328                       SCAN  ,                   SKIP (KEYWORD=) VALUE
 0048DE 18D8/9808 D004_            28359                       PEND  ,
 DROP   *,R7
 USING  FINBASE,R7
                                   28386
 DROP   LGNWA,R6                   28387                       DROP  R6
                                   28394                       QLTORG
1SIGN     (SIGN4072) (12:54) (15MAR04) Terminate Session                                                                    Page   61
0Current Usings:  (FINBASE,R7) (CP,R11) (CV,R12)
0Loc    Object Code    Addr1 Addr2  Stmt Lv Lineno    Source Statement           (Hibal 5, Asmedit 3.3)  HLASM R4.0  2004/03/15 12.54
+___    ______ ____    _____ _____  ____ __ ______    ______ _________
0                                  28431              ¿þþþþþþþþþþþþþþþþþþþþþþþþþþþþþþþþþþþþþþþþþþþþþþþþþþþþþþþþþþþþþþþþþþþþþÜ
                                   28432              Ÿ                                                                     Ÿ
                                   28433              Ÿ  RECOVERY -- Initial entry point for a user who is going            Ÿ
                                   28434              Ÿ    through WYLBUR recovery.                                         Ÿ
                                   28435              Ÿ                                                                     Ÿ
                                                      ¾þþþþþþþþþþþþþþþþþþþþþþþþþþþþþþþþþþþþþþþþþþþþþþþþþþþþþþþþþþþþþþþþþþþþþ»
000497E 50E0 D000/9008_      00000 28436                       PROC
 DROP   FINBASE,R7
 USING  *,R7
                                   28477                       ENTRY RECOVERY
 004998 0D70                       28478              RECOVERY BASE
 DROP   *,R7
 USING  *,R7
                                   28495
 00499A 58E0 7B56/0DEE       054F0 28496                       VCALL INITSTK             Initialize stack
 0049A0 58E0 7B5A/0DEE       054F4 28500                       ACALL INITRECS            Allocate RGs (except CPTEXT)
                                   28504
 0049A6 D61F B484 B484_00484 00484 28505                       IF    (CPTEXT,Z),BEGIN    No Actives to recover...
 0049B0 58E0 7B5E/0DEE       054F8 28521  1                      VCALL ACTRESET            Initialize Active files rg
 0049B6                            28525                       END
                                   28529
 0049B6 7020/47F0 7026 049B6 049AE 28530                       ELSE  BEGIN               Otherwise re-build for recovery...
 0049BA 58E0 7B62/0DEE       054FC 28541  1                      VCALL ACTRCVY             Finish setting up Active file
 0049C0                            28545                       END
                                   28549                       ¿þþþþþþþþþþþþþþþþþþþþþþþþþþþþþþþþþÜ
                                   28550                       Ÿ  Write out a recovery message.  Ÿ
                                   28551                       ¾þþþþþþþþþþþþþþþþþþþþþþþþþþþþþþþþþ»
 0049C0 58F0 C748/58E0_      00748 28552                       SEGCLR L:CVWTOSGP
 0049CA 4110 7CA0/4100_      0563A 28563                       SEG   'Line '
 0049DC 58F0 C1C8            001C8 28578                       L     R15,CVCURJCB
 0049E0 48F0 F048            00048 28579                       WITH  (JCB,R15),'LH R15,JCBSEQ'
 USING  JCB,R15
 DROP   JCB,R15
 0049E4 181F/1B00/58F0_            28603                       SEGDC (R15)
 0049F2 4110 7CA5/4100_      0563F 28622                       SEG   ' '
 004A04 4110 B3B7/4100_      003B7 28637                       SEG   CPSGRP
 004A16 4110 7CA6/4100_      05640 28662                       SEG   '.'
 004A28 4110 B3B4/4100_      003B4 28677                       SEG   CPSUSER
                                   28702
 004A3A 9140 B3BB/47E0_003BB       28703                       IF    CPSSFNAR,BEGIN      No recovery...
 004A42 4110 7AD6/4100_      05470 28718  1                      SETMSG ' will be skipped'
 004A4A                            28722                       END
                                   28726
 004A4A 70B4/47F0 70CE 04A4A 04A40 28727                       ELSE  BEGIN
 004A4E 4110 7C4A/4100_      055E4 28738  1                      SETMSG ' will be recovered'
 004A56 58F0 B56C/12FF_      0056C 28742  1                      IF    ('LT R15,CPATTEXT',NP),'SETMSG " has no Active files"'
 004A68                            28767                       END
 004A68 58F0 C748/58E0_      00748 28771                       SEG   (R1),(R0)           Finish the message
 004A72 96C0 C4CB      004CB       28792                       SET   CVWTOFNOPFX+CVWTOFWTL  WTO logging flags
 004A76 1B00/58F0 C748_            28801                       XWTO
 004A82 943F C4CB      004CB       28824                       CLEAR CVWTOFNOPFX+CVWTOFWTL  Reset
                                   28834
 004A86 58E0 7B8A/0DEE       05524 28835                       ACALL SIGNOFF             Join common SIGNOFF code
1SIGN     (SIGN4072) (12:54) (15MAR04) Terminate Session                                                                    Page   62
0Current Usings:  (*,R7) (CP,R11) (CV,R12)
0Loc    Object Code    Addr1 Addr2  Stmt Lv Lineno    Source Statement           (Hibal 5, Asmedit 3.3)  HLASM R4.0  2004/03/15 12.54
+___    ______ ____    _____ _____  ____ __ ______    ______ _________
0004A8C 0000                       28839                       BOMB                      SIGNOFF does not return
                                   28841
 004A8E 18D8/9808 D004_            28842                       PEND
 DROP   *,R7
 USING  FINBASE,R7
1SIGN     (SIGN4072) (12:54) (15MAR04) Terminate Session                                                                    Page   63
0Current Usings:  (FINBASE,R7) (CP,R11) (CV,R12)
0Loc    Object Code    Addr1 Addr2  Stmt Lv Lineno    Source Statement           (Hibal 5, Asmedit 3.3)  HLASM R4.0  2004/03/15 12.54
+___    ______ ____    _____ _____  ____ __ ______    ______ _________
0                                  28870              ¿þþþþþþþþþþþþþþþþþþþþþþþþþþþþþþþþþþþþþþþþþþþþþþþþþþþþþþþþþþþþþþþþþþþþþÜ
                                   28871              Ÿ                                                                     Ÿ
                                   28872              Ÿ  SIGNOFF -- Routine to terminate the session.  This routine         Ÿ
                                   28873              Ÿ    is responsible for saving the user's ACTIVE file.                Ÿ
                                   28874              Ÿ                                                                     Ÿ
                                                      ¾þþþþþþþþþþþþþþþþþþþþþþþþþþþþþþþþþþþþþþþþþþþþþþþþþþþþþþþþþþþþþþþþþþþþþ»
0004A9C 50E0 D000/9008_      00000 28875                       PROC
 DROP   FINBASE,R7
 USING  *,R7
                                   28916                       ENTRY SIGNOFF
 004AB6 0D70                       28917              SIGNOFF  BASE
 DROP   *,R7
 USING  *,R7
 004AB8 58E0 7A38/0DEE       054F0 28934                       VCALL INITSTK             Initialize stack
                                   28938                       ¿þþþþþþþþþþþþþþþþþþþþþþþþþþþþþþþþþþþþþþþþþþþþþþþþþÜ
                                   28939                       Ÿ  Verify that ACTIVE file recovery is possible.  Ÿ
                                   28940                       ¾þþþþþþþþþþþþþþþþþþþþþþþþþþþþþþþþþþþþþþþþþþþþþþþþþ»
 004ABE 9140 B3BB/4710_003BB       28941                       IF    CPSSFNAR,NORCVY     Skip recovery (virtual trm)
                                   28959
 004AC6 58F0 B56C/12FF_      0056C 28960                       IF    ('LT R15,CPATTEXT',NP),NORCVY  No Active files
                                   28979                       ¿þþþþþþþþþþþþþþþþþþþþþþþþþþþþþþþþþþþþþþþþþþþþþþþþþþþþþþþþþþþþþþþÜ
                                   28980                       Ÿ  Set up a SAVE command for the ACTIVE file.                   Ÿ
                                   28981                       Ÿ    If the SAVE command doesn't work "SIGNOFF" will be called  Ÿ
                                   28982                       Ÿ    again, and this routine will pick a different volume.      Ÿ
                                   28983                       ¾þþþþþþþþþþþþþþþþþþþþþþþþþþþþþþþþþþþþþþþþþþþþþþþþþþþþþþþþþþþþþþþ»
 004AD0 D607 B730 B730_00730 00730 28984                       IF    (CPRCV,Z),BEGIN     First time...
 004ADA 9640 B474      00474       29000  1                      SET   CPFRCVY             Set flags
 004ADE D705 B880 B880 00880 00880 29006  1                      CLEAR CPVOLUME            Default volume
 004AE4 D203 B734 C744 00734 00744 29013  1                      MVC   CPRCVEND,CVRCVOL    Remember where we started from
 004AEA D2EA B242 C4D8 00242 004D8 29014  1                      MVC   CPCMD,CVBLANKS      Reset previous command
 004AF0 D22C B242 764C 00242 05104 29015  1                      MVC   CPCMD(L'RCVYCMD1),RCVYCMD1  SAVE (without volume)
                                   29016  1
                                   29017  1         C            IF    ((CPSACCT,EQ,'MPDGG'),
                                          1         C                  OR,(CPSACCT,EQ,'LTMGQ'),
                                          1         C                  OR,(CPSACCT,EQ,'PCJGQ')),
 004AF6 D504 7B89 B3B4_05641 003B4        1                            BEGIN
 004B14 58F0 C1C8            001C8 29064  2                        L     R15,CVCURJCB
 004B18 48F0 F048            00048 29065  2                        WITH  (JCB,R15),'LH R15,JCBSEQ'  Line number
 USING  JCB,R15
 DROP   JCB,R15
 004B1C 5AF0 7A70            05528 29089  2                        A     R15,=F'100000'      Force leading zeros
 004B20 4100 0006/4110_      00006 29090  2                        BTD   CPCMD+(RCVYCLIN-RCVYCMDX),L'RCVYCLIN,(R15)  Format
 004B2E D201 B24C 7B3E 0024C 055F6 29112  2                        MVC   CPCMD+(RCVYCLIN-RCVYCMDX)(2),=C'.L'  "ACTIVE.L####"
 004B34                            29113  1                      END
                                   29117  1
 004B34 D201 B240 7B40 00240 055F8 29118  1                      MVC   CPCMDLEN,=AL2(L'RCVYCMD1)  Set length
 004B3A 47F0 7128            04BE0 29119  1                      B     RCVYSAVE            Try the catalog first
 004B3E                            29120                       END
1SIGN     (SIGN4072) (12:54) (15MAR04) Terminate Session                                                                    Page   64
0Current Usings:  (*,R7) (CP,R11) (CV,R12)
0Loc    Object Code    Addr1 Addr2  Stmt Lv Lineno    Source Statement           (Hibal 5, Asmedit 3.3)  HLASM R4.0  2004/03/15 12.54
+___    ______ ____    _____ _____  ____ __ ______    ______ _________
0                                  29124                       ¿þþþþþþþþþþþþþþþþþþþþþþþþþþþþþþþþþþþþþþþþþþþþþþþþþþþþþþþþþþþþþÜ
                                   29125                       Ÿ  The SAVE command has failed, go on to the next volume and  Ÿ
                                   29126                       Ÿ    retry the save command.                                  Ÿ
                                   29127                       ¾þþþþþþþþþþþþþþþþþþþþþþþþþþþþþþþþþþþþþþþþþþþþþþþþþþþþþþþþþþþþþ»
 004B3E D2EA B242 C4D8 00242 004D8 29128              RCVYLOOP MVC   CPCMD,CVBLANKS
 004B44 D230 B242 764C 00242 05104 29129                       MVC   CPCMD(L'RCVYCMD),RCVYCMD  SAVE ON <...>
                                   29130
 004B4A D504 7B89 B3B4_05641 003B4 29131                       IF    ((CPSACCT,EQ,'MPDGG'),OR,(CPSACCT,EQ,'LTMGQ')),BEGIN
 004B5E 58F0 C1C8            001C8 29164  1                      L     R15,CVCURJCB
 004B62 48F0 F048            00048 29165  1                      WITH  (JCB,R15),'LH R15,JCBSEQ'  Line number
 USING  JCB,R15
 DROP   JCB,R15
 004B66 5AF0 7A70            05528 29189  1                      A     R15,=F'100000'      Force leading zeros
 004B6A 4100 0006/4110_      00006 29190  1                      BTD   CPCMD+(RCVYCLIN-RCVYCMDX),L'RCVYCLIN,(R15)  Format
 004B78 D201 B24C 7B3E 0024C 055F6 29212  1                      MVC   CPCMD+(RCVYCLIN-RCVYCMDX)(2),=C'.L'  "ACTIVE.L####"
 004B7E                            29213                       END
                                   29217
 004B7E 5840 B730            00730 29218                       L     R4,CPRCVCUR         Current recovery volume ptr
 004B82 5940 B734/4780_      00734 29219                       IF    (R4,EQ,CPRCVEND),RCVYFAIL  No more volumes, scram
 004B8A 1244/4770 70DC_            29239                       IF    (R4,Z),'L R4,CPRCVEND'  Start at the beginning
                                   29259
 004B94 41F0 4044            00044 29260                       LA    R15,@R4+L'VOL       Point to next entry
 004B98 95FF F000/4770_00000       29261                       IF    (@R15,EQ,X'FF'),'L R15,CVVOLIST'  Volume table wraps
 004BA4 50F0 B730            00730 29283                       ST    R15,CPRCVCUR        Save vol ptr for next time
 004BA8 50F0 C744            00744 29284                       ST    R15,CVRCVOL         Update global starting vol ptr
                                   29285
 USING  VOL,R4                     29286                       WITH  (VOL,R4),BEGIN
 004BAC 91C1 4008/47E0_00008       29300  1                      IF    (NOT,VFLG1.VF1AVAIL*VF1PRES*VF1ON),RCVYLOOP  Skip vol
                                   29327  1                      AIF   ('&INSTALN' NE 'STANFORD').NOT4U
 004BB4 9110 C4C4/47E0_004C4       29328  1                      IF    CVFRLG,BEGIN        RLG machine...
 004BBC D502 7B98 4002_05650 00002 29343  2                        IF    (VNAME,NE,'RLG'),RCVYLOOP  Skip this vol
 004BC6                            29363  1                      END
 004BC6 7112/47F0 711C 04BC6 04BBA 29367  1                      ELSE  BEGIN               SYSA and SYSC...
 004BCA D502 7B9B 4002_05653 00002 29378  2                        IF    (VNAME,NE,'PUB'),RCVYLOOP  Skip this vol
 004BD4                            29398  1                      END
 004BD4 D205 B273 4002 00273 00002 29402  1           .NOT4U     MVC   CPCMD+L'RCVYCMD(6),VNAME  Set volume
 DROP   VOL,R4                     29403                       END
                                   29411
 004BDA D201 B240 7B42 00240 055FA 29412                       MVC   CPCMDLEN,=AL2(L'RCVYCMD+6)  Complete SAVE command
                                   29413                       ¿þþþþþþþþþþþþþþþþþþþþþþþþþþþþþþþþþþþþþþþþþþþþþþþþþþþþþþþþþÜ
                                   29414                       Ÿ  Issue the SAVE command.                                Ÿ
                                   29415                       Ÿ    (Returns to SIGNOFF through the command processor.)  Ÿ
                                   29416                       ¾þþþþþþþþþþþþþþþþþþþþþþþþþþþþþþþþþþþþþþþþþþþþþþþþþþþþþþþþþ»
 004BE0 58E0 7A78/0DEE       05530 29417              RCVYSAVE VCALL INITCMD             Re-initialize
 004BE6 94BF B476      00476       29421                       CLEAR CPGFLG3.CPFCMDFX    Turn off retry mode
 004BEA D202 BD24 7B9E 00D24 05656 29429                       MVC   CPCMNM,=C'SAV'      Set save command name
 004BF0 4110 B242/4800_      00242 29430                       OSCINIT CPCMD,LH:CPCMDLEN
 004BFE 58E0 7A80/0DEE       05538 29449                       VCALL OLDSAVE                Go try save
                                   29453
 004C04 4110 7BA1/4100_      05659 29454              RCVYFAIL TSEG  'No more volumes -- Recovery not possible for '
 004C16 4110 B3B7/4100_      003B7 29472                       TSEG  CPSGRP
 004C28 4110 7B88/4100_      05640 29500                       TSEG  '.'
 004C3A 4110 B3B4/4100_      003B4 29518                       TSEG  CPSUSER,,WR
 004C4C 47F0 7198            04C50 29546                       B     NORCVY
1SIGN     (SIGN4072) (12:54) (15MAR04) Terminate Session                                                                    Page   65
0Current Usings:  (*,R7) (CP,R11) (CV,R12)
0Loc    Object Code    Addr1 Addr2  Stmt Lv Lineno    Source Statement           (Hibal 5, Asmedit 3.3)  HLASM R4.0  2004/03/15 12.54
+___    ______ ____    _____ _____  ____ __ ______    ______ _________
0                                  29548                   ¿þþþþþþþþþþþþþþþþþþþþþþþþþþþþþþþþþþþþþþþþþþþþþþþþþþþþþþþþþþþþþþþþþþþÜ
                                   29549                   Ÿ  ACTIVE file has been recovered, now finish terminating session.  Ÿ
                                   29550                   ¾þþþþþþþþþþþþþþþþþþþþþþþþþþþþþþþþþþþþþþþþþþþþþþþþþþþþþþþþþþþþþþþþþþþ»
 004C50 D7FF BC48 BC48_00C48 00C48 29551              NORCVY   CLEAR CPZERO              Reset any local command options
                                   29562
 004C68 5820 C1C8            001C8 29563                       L     R2,CVCURJCB
 USING  JCB,R2                     29564                       WITH  (JCB,R2),BEGIN
 004C6C 9140 2063/47E0_00063       29578  1                      IF    JCBBFSIB,BEGIN      Get new SIB...
 004C74 4100 0001/58E0_      00001 29593  2                        TCNTL CTLSNSI             Sense SIB
 004C7E 4780 71DE/900F_      04C96 29605  2                        FAIL  NZ,MILERR
 004C96 5900 7A88/47D0_      05540 29627  2                        CEIL  R0,L'CPSIB
 004CA2 18F0                       29646  2                        LR    R15,R0
 004CA4 06F0/12FF/4740_            29647  2                        MOVE  R15,CPSIB,@R1
 004CB0 94BF 2063      00063       29685  2                        CLEAR JCBBFSIB
 004CB4 D201 2052 B3C4 00052 003C4 29692  2                        MVC   JCBSUC,CPSUC
 004CBA                            29693  1                      END
 DROP   JCB,R2                     29697                       END
                                   29705
 004CBA 58E0 7A8C/0DEE       05544 29706                       PFREE PAR                 Release page A
 004CC0 58E0 7A90/0DEE       05548 29712                       PFREE PBR                 Release page B
                                   29718
 004CC6 58E0 7A94/0DEE       0554C 29719                       VCALL CLRHCMDS            Free history commands
                                   29723
                                   29724                       COMMENT                   Clear Exec Monitor, if any
 004CCC 58E0 7A98/0DEE       05550 29725                       VCALL MCLEAR
                                   29729
 004CD2 9610 BD55/9604_00D55       29730                       SET   CPFCLEAR,CPFNWARN
                                   29740              *        VCALL CLRMULT             Clear all Actives
 004CDA 58E0 7A40/0DEE       054F8 29741                       VCALL ACTRESET            Wipe out all actives - MPD
 004CE0 58E0 7A9C/0DEE       05554 29745                       VCALL EXREINIT            Clear all execs (not necessary?)
                                   29749
 004CE6 58E0 7AA0/0DEE       05558 29750                       VCALL VETSFREE            Free any VTAM terminal info
                                   29754
 004CEC 58E0 7AA4/0DEE       0555C 29755                       VCALL PROTFREE            Release any protection info
                                   29759
 004CF2 1BFF                       29760                       CLEAR R15                 Free ALL dsnames
 004CF4 58E0 7AA8/0DEE       05560 29764                       VCALL DENQFREE            DEQ any enqueued data sets
                                   29768
 004CFA 58E0 7AAC/0DEE       05564 29769                       VCALL SERVFREE            Close any open server connections
                                   29773
 004D00 58E0 7AB0/0DEE       05568 29774                       VCALL NPATFREE            Close any open net connections
                                   29778
 004D06 58E0 7AB4/0DEE       0556C 29779                       VCALL PATHFREE            Close any open user paths
                                   29783
 004D0C 58E0 7AB8/0DEE       05570 29784                       ACALL FREERECS            Clear all Record Groups
                                   29788
 004D12 5860 C1C8            001C8 29789                       L     R6,CVCURJCB
 USING  JCB,R6                     29790                       USING JCB,R6
1SIGN     (SIGN4072) (12:54) (15MAR04) Terminate Session                                                                    Page   66
0Current Usings:  (JCB,R6) (*,R7) (CP,R11) (CV,R12)
0Loc    Object Code    Addr1 Addr2  Stmt Lv Lineno    Source Statement           (Hibal 5, Asmedit 3.3)  HLASM R4.0  2004/03/15 12.54
+___    ______ ____    _____ _____  ____ __ ______    ______ _________
0                                  29799                       ¿þþþþþþþþþþþþþþþþþþþþþþþþþþþþþþþþþþþþþþþþþþþþþþþþþþþþþþþþþþþþþþÜ
                                   29800                       Ÿ  Skip updating last logoff time and billing/logoff messages  Ÿ
                                   29801                       Ÿ    if we are simply transferring control to a test           Ÿ
                                   29802                       Ÿ    subsystem.                                                Ÿ
                                   29803                       ¾þþþþþþþþþþþþþþþþþþþþþþþþþþþþþþþþþþþþþþþþþþþþþþþþþþþþþþþþþþþþþþ»
 004D16 9108 B474/4710_00474       29804                       IF    CPFSYSMV,SIGNDONE   No logoff msgs if XCTL
                                   29822                       ¿þþþþþþþþþþþþþþþþþþþþþþþþþþþþþþþþþþþþþþÜ
                                   29823                       Ÿ  VISTA logoffs are short and sweet.  Ÿ
                                   29824                       ¾þþþþþþþþþþþþþþþþþþþþþþþþþþþþþþþþþþþþþþ»
 004D1E 9180 C4C8/4710_004C8       29825                       IF    CVFVISTA,SIGNDONE   No logoff msgs for VISTA
                                   29843                       ¿þþþþþþþþþþþþþþþþþþþþþþþþþþþþþþþþþþþþþþþþþþþþþþþþþþþþþþþþþþþþþþþÜ
                                   29844                       Ÿ  Update last logoff time/date if a real user is logging off.  Ÿ
                                   29845                       ¾þþþþþþþþþþþþþþþþþþþþþþþþþþþþþþþþþþþþþþþþþþþþþþþþþþþþþþþþþþþþþþþ»
 004D26 9120 B3BB/4710_003BB       29846                       IF    ~CPSSFPS,BEGIN      Real user logging off...
                                   29861  1
 004D2E 185D/41D0 D1F8             29862  1                      XPUSH ,,L'KWR,PTR=R5
 USING  KWR,R5                     29865  1                      WITH  (KWR,R5),BEGIN
 004D34 D7FF 5000 5000_00000 00000 29879  2                        CLEAR KWR
 004D40 D201 5003 B3B7 00003 003B7 29887  2                        MVC   KWRGRP,CPSGRP       gg
 004D46 D202 5000 B3B4 00000 003B4 29888  2                        MVC   KWRUSER,CPSUSER     uuu
                                   29889  2
                                   29890  2                        COMMENT                   Limit loop to 10 times thru we
 004D4C 4140 000A            0000A 29891  2                        LA    R4,10 LOOP LIMIT      do not want to stop logouts
                                   29892  2
 004D50                            29893  2                        LOOP  BEGIN
 004D50 1815/4100 0040_            29899  3                          KREAD KWR
 004D5C 1244                       29912  3                          LTR   R4,R4
 004D5E 1244/4780 73CC             29913  3                          IF    (R4,Z),SKIPWCHK exit loop
 004D64 0640                       29930  3                          DECR  R4
                                   29932  3           *
                                   29933  3           *
 004D66 9180 51F4/47E0_001F4       29934  3                          IF    ~KWRHFL.KWRHFCK,EXIT  No password processing now
 004D6E 9180 500E/47E0_0000E       29953  3                          IF    ~KWRIFL.KWRIFVAL,EXIT  Account doesn't exist
                                   29972  3                          ¿þþþþþþþþþþþþþþþþþþþþþþþþþþþþþþþþþþþþþþþþþþþþþþþþþþþþþþÜ
                                   29973  3                          Ÿ  Save port we are using in last logoff information.  Ÿ
                                   29974  3                          ¾þþþþþþþþþþþþþþþþþþþþþþþþþþþþþþþþþþþþþþþþþþþþþþþþþþþþþþ»
 004D76 D213 51A2 C4D8 001A2 004D8 29975  3                          MVC   KWRLPORT,CVBLANKS   Blank out port information
                                   29976  3
 004D7C D613 B370 B370_00370 00370 29977  3                          IF    ((CPSPLOC,NZ),AND,(CPSPLOC,NE,CVBLANKS)),BEGIN
 004D90 D213 51A2 B370 001A2 00370 30010  4                            MVC   KWRLPORT,CPSPLOC    Save port location info
 004D96                            30011  3                          END
                                   30015  3
 004D96 72E2/72E2/47F0_04D96 04D84 30016  3                          ELSE  BEGIN               Save "fe-port" style...
 004D9A D607 B34C B34C_0034C 0034C 30029  4                            IF    ((CPSFE,NZ),OR,(CPSPORT,NZ)),BEGIN
 004DAE 182D/41D0 D03C             30060  5                              XPUSH ,,L'SEGCB,PTR=R2
 004DB4 4110 51A2/4100_      001A2 30063  5                              SEGINIT KWRLPORT,,(R2)
 004DC4 4110 B34C/4100_      0034C 30088  5                              SEGT  CPSFE               Front-end name
 004DD4 4110 7BCE/4100_      05686 30114  5                              SEG   '-'
 004DE4 4110 B354/4100_      00354 30129  5                              SEGT  CPSPORT             Port name
 004DF4 4BD0 7B44            055FC 30155  5                              XPOP  ,,L'SEGCB
 004DF8                            30157  4                            END
 004DF8                            30161  3                          END
1SIGN     (SIGN4072) (12:54) (15MAR04) Terminate Session                                                                    Page   67
0Current Usings:  (KWR,R5) (JCB,R6) (*,R7) (CP,R11) (CV,R12)
0Loc    Object Code    Addr1 Addr2  Stmt Lv Lineno    Source Statement           (Hibal 5, Asmedit 3.3)  HLASM R4.0  2004/03/15 12.54
+___    ______ ____    _____ _____  ____ __ ______    ______ _________
0                                  30165  3                          ¿þþþþþþþþþþþþþþþþþþþþþþþþþþþþþþþþþþþþþþþþþþþþþþþþÜ
                                   30166  3                          Ÿ  Update total number of connect hours in KWR.  Ÿ
                                   30167  3                          ¾þþþþþþþþþþþþþþþþþþþþþþþþþþþþþþþþþþþþþþþþþþþþþþþþ»
 004DF8 58E0 7AC8/0DEE       05580 30168  3                          VCALL LOCALTOD            Current time of "logoff"
 004DFE 5000 5058            00058 30172  3                          ST    R0,KWRLTIM          Save logoff time
 004E02 D607 B3AC B3AC_003AC 003AC 30173  3                          IF    ((CPSLCLCK,NZ),AND,(CPCLCK,GT,CPSLCLCK)),BEGIN
 004E16 5F10 B3B0/47B0_      003B0 30206  4                            SDL   R0,CPSLCLCK         Elapsed time
 004E24 5D00 7ACC            05584 30211  4                            D     R0,=A(40960000)     R1 = .01 sec
 004E28 1B00                       30212  4                            CLEAR R0
 004E2A 5D00 7AD0            05588 30216  4                            D     R0,=A(60*60*100/10)  R1 = hours/10  (6 mins)
 004E2E 1200/4780 7380_            30217  4                            IF    (R0,NZ),'INCR R1'   Kick upwards
                                   30239  4
 004E38 1FFF/BFF3 5068             30240  4                            L2    R15,KWRHRSUS        Old accumulated time
 004E3E 1EF1                       30248  4                            ALR   R15,R1              New total
 004E40 5800 7AD8            05590 30249  4                            L     R0,=A(X'7FFF')
 004E44 19F0/47D0 7394_            30250  4                            CEIL  R15,R0
 004E4C 40F0 5068            00068 30256  4                            STH   R15,KWRHRSUS        Save it
 004E50                            30257  3                          END
                                   30261  3                          ¿þþþþþþþþþþþþþþþþþþþþþþÜ
                                   30262  3                          Ÿ  Update user's KWR.  Ÿ
                                   30263  3                          ¾þþþþþþþþþþþþþþþþþþþþþþ»
 004E50 9101 B475/47E0_00475       30264  3                          IF    CPGFLG2.CPFACTSV,'SET KWRAFL.KWRAFASV'  Active saved
 004E5C 1815/4100 0080_            30292  3                          KWRITE KWR                Re-write password record
                                   30305  3                          COMMENT  avoid deadly embrace
                                   30306  3                          COMMENT  below 2 lines fix axess logout deadlock jan0493
 004E68 D504 7BCF B3B4_05687 003B4 30307  3                          IF    (CPSACCT,EQ,'FOLEN'),SKIPWCHK
 004E72 D504 7BD4 B3B4_0568C 003B4 30327  3                          IF    (CPSACCT,EQ,'PRMHQ'),SKIPWCHK
 004E7C 9140 51F4/47E0_001F4       30347  2                        UNTIL KWRHFL.KWRHFUOK,END  Stop when re-write works
                                   30371  2
 004E84                            30372  2           SKIPWCHK     LABEL ,
 004E84 D7FF 5000 5000_00000 00000 30374  2                        CLEAR KWR
 DROP   KWR,R5                     30382  1                      END
                                   30390  1
 004E90 4BD0 7B46            055FE 30391  1                      XPOP  ,,L'KWR
 004E94 94BF B474      00474       30393  1                      CLEAR CPFRCVY             Reset recovery flag
 004E98                            30400                       END
                                   30404                       ¿þþþþþþþþþþþþþþþþþþþþþþþþþþþÜ
                                   30405                       Ÿ  Give logoff statistics.  Ÿ
                                   30406                       ¾þþþþþþþþþþþþþþþþþþþþþþþþþþþ»
 004E98 9108 C4C5/4710_004C5       30407                       IF    ~CVFINIT,BEGIN      Not doing recovery/news...
                                   30422  1
 004EA0 1B00                       30423  1                      CLEAR R0
 004EA2 9108 B38F/47E0_0038F       30427  1                      IF    CPSFTO,'SETMSG "Session terminated due to inactivity."'
 004EB2 9104 B38F/47E0_0038F       30451  1                      IF    CPSFMT,'SETMSG "No more time left, session terminated."'
 004EC2 9110 B38F/47E0_0038F       30475  1                      IF    CPSFKL,'SETMSG "Session terminated by the operator."'
 004ED2 D604 B3B4 B3B4_003B4 003B4 30499  1                      IF    (CPSACCT,Z),'CLEAR R0'
 004EDE 1200/4780 746A             30524  1                      IF    (R0,NZ),BEGIN
 004EE4 9001 D000/41D0_      00000 30538  2                        XPUSH R0,R1
 004EEC 58E0 7AC8/0DEE       05580 30541  2                        VCALL LOCALTOD
 004EF2 18FD/41D0 D00C             30545  2                        XPUSH ,,11,PTR=R15        Put current hh:mm:ss.hh here
 004EF8 58E0 7ADC/0DEE       05594 30548  2                        VCALL FMTTIME
 004EFE 4100 0005/41F0_      00005 30552  2                        TSEG  (R1),5,B            Hh:mm
 004F0C 4BD0 7B6E            05626 30579  2                        XPOP  ,,11
 004F10 4BD0 7B70/9801_      05628 30581  2                        XPOP  R0,R1
1SIGN     (SIGN4072) (12:54) (15MAR04) Terminate Session                                                                    Page   68
0Current Usings:  (JCB,R6) (*,R7) (CP,R11) (CV,R12)
0Loc    Object Code    Addr1 Addr2  Stmt Lv Lineno    Source Statement           (Hibal 5, Asmedit 3.3)  HLASM R4.0  2004/03/15 12.54
+___    ______ ____    _____ _____  ____ __ ______    ______ _________
0004F18 41F0 B050/58E0_      00050 30584  2                        TSEG  (R1),(R0),WR
 004F22                            30608  1                      END
                                   30612  1
 004F22 58E0 7AE4/0DEE       0559C 30613  1                      VCALL TSUBOFF             Exit all other subsystems now
 004F28 D604 B3B4 B3B4_003B4 003B4 30617  1                      IF    (CPSACCT,NZ),BEGIN  Give logoff stats...
 004F32 4110 79C8            05480 30633  2                        LA    R1,=CL8'LOGOFF'
 004F36 58F0 C1C8            001C8 30634  2                        L     R15,CVCURJCB
 004F3A 58E0 7AE8/0DEE       055A0 30635  2                        VCALL DOBILL              Write accounting records
                                   30639  2
 004F40 58F0 C1C8            001C8 30640  2                        L     R15,CVCURJCB
 004F44 9602 F063      00063       30641  2                        WITH  (JCB,R15),'SET JCBFBILLED'  Final bill now written
 USING  JCB,R15
 DROP   JCB,R15
                                   30670  2
 004F48 4110 7C21/4100_      056D9 30671  2                        SETMSG 'LOGOFF:'
 004F50 58E0 7AEC/0DEE       055A4 30675  2                        VCALL LOGSESS             Log session logoff
                                   30679  2
 004F56 58E0 7AF0/0DEE       055A8 30680  2                        VCALL DISPLGF             Display logoff messages
 004F5C                            30684  1                      END
                                   30688  1
 004F5C D607 B164 B164_00164 00164 30689  1                      IF    (CPLGFSYS,Z),BEGIN  Real end of session...
 004F66 4110 7C28/4100_      056E0 30705  2                        SETMSG 'End of session.'
 004F6E 9110 C4C4/47E0_004C4       30709  2                        IF    CVFRLG,'SETMSG "RLIN session ended.  Goodbye."'
 004F7E 9180 B3BC/47E0_003BC       30733  2                        IF    CPSFNST,'SETMSG "Good-bye."'
 004F8E 9104 B3BB/47E0_003BB       30757  2                        IF    CPSSFPRT,'SETMSG "End of printer session."'
 004F9E 41F0 B050/58E0_      00050 30781  2                        TSEG  (R1),(R0),CR
 004FA8 1B00/41F0 B050_            30805  2                        TCR
 004FB4 1B00/41F0 B050_            30830  2                        TCR
                                   30855  2
 004FC0 9180 6062/47E0_00062       30856  2                        IF    JCBAFALO,BEGIN      Logoff...
 004FC8 9140 B3EA/47E0_003EA       30871  3                          IF    CPSFSAM,BEGIN       Send Samson disconnect packet...
 004FD0 4110 7C74/4100_      0572C 30886  4                            TSEG  X'27'               [ESC]
 004FE2 4110 7AF8/4100_      055B0 30904  4                            TSEG  '\\DD'              Disconnect
 004FF4 4110 7C75/4100_      0572D 30922  4                            TSEG  X'0D'               [CR]
 005006                            30940  3                          END
 005006 9140 B385/4710_00385       30944  3                          IF    (CPSFTEL,OR,CPSFTYM),'TSEG =80X"00",80'  It works!
 005028                            31008  2                        END
 005028                            31012  1                      END
                                   31016  1
 005028 9180 BD55/47E0_00D55       31017  1                      FAIL  CPFDUMP,LGFERR1,'Logoff processing error.'
 005048 1B00/41F0 B050_            31044  1                      TWRITE
 005054                            31069                       END
                                   31073                       ¿þþþþþþþþþþþþþþþþþþþþþþþþþþþþþþþþþþþþþþþÜ
                                   31074                       Ÿ  Tell MILTEN the user is logged off.  Ÿ
                                   31075                       ¾þþþþþþþþþþþþþþþþþþþþþþþþþþþþþþþþþþþþþþþ»
 005054                            31076              SIGNDONE LABEL ,
 005054 48F0 C0D4/06F0_      000D4 31078                       DECR  R15,CVNUSERS        Decr no of users logged on
                                   31083
 00505E D704 604A 604A_0004A 0004A 31084                       CLEAR JCBACCT,JCBANO,JCBBFNR
 00506E 4110 6000            00000 31101                       LA    R1,JCB
 005072 58E0 7AFC/0DEE       055B4 31102                       VCALL FREEBILL            Free billing information
 005078 94FD 6063      00063       31106                       CLEAR JCBFBILLED          Reset billing record written
 00507C D701 6034 6034 00034 00034 31113                       CLEAR JCBFCNT             Reset failsoft counter
                                   31120
1SIGN     (SIGN4072) (12:54) (15MAR04) Terminate Session                                                                    Page   69
0Current Usings:  (JCB,R6) (*,R7) (CP,R11) (CV,R12)
0Loc    Object Code    Addr1 Addr2  Stmt Lv Lineno    Source Statement           (Hibal 5, Asmedit 3.3)  HLASM R4.0  2004/03/15 12.54
+___    ______ ____    _____ _____  ____ __ ______    ______ _________
0005082 D704 B3B4 B3B4 003B4 003B4 31121                       CLEAR CPSACCT             Reset user/group for recovery
 005088 58E0 7B00/0DEE       055B8 31128                       VCALL CHECKSET            Keep accurare for recovery
                                   31132
 00508E 9180 6062/4710_00062       31133                       IF    ~JCBAFALO,BEGIN     Logon...
 005096 D70F B3B4 B3B4 003B4 003B4 31148  1                      CLEAR CPSSESS             Reset account info
 00509C 4110 B3B4/4100_      003B4 31155  1                      TSEG  CPSSESS
 0050AE 4100 0065/58E0_      00065 31183  1                      TCNTL CTLPSETS            Set session
 0050B8 4780 7618/900F_      050D0 31195  1                      FAIL  NZ,MILERR
                                   31217  1
 0050D0 D707 B154 B154 00154 00154 31218  1                      CLEAR CPSYS               As if it's an initial signon
 0050D6 1B11/1B00                  31225  1                      CLEAR R1,R0               (Signon routine parms)
 0050DA 58E0 7B04/0DEE       055BC 31231  1                      ACALL SIGNON              Go logon again
 0050E0                            31235                       END
                                   31239
 0050E0 9108 C4C5/4710_004C5       31240                       IF    ~CVFINIT,'VCALL TLOGOFF'  Tell MILTEN end of session
                                   31264
 0050EE 58E0 7B0C/0DEE       055C4 31265                       VCALL EOSDISP             Logged off, enter dispatcher
 0050F4 0000                       31269                       DC    H'0'                (No return)
                                   31270
 0050F6 18D8/9808 D004_            31271                       PEND
 DROP   *,R7
 USING  FINBASE,R7
 DROP   JCB,R6                     31298                       DROP  JCB
                                   31306                       ¿þþþþþþþþþþþþþþþþþþþþþþþþþþþþþþþþþþÜ
                                   31307                       Ÿ  Recovery SAVE command options.  Ÿ
                                   31308                       ¾þþþþþþþþþþþþþþþþþþþþþþþþþþþþþþþþþþ»
 005104 7C4B504BC1C3E3C9           31309              RCVYCMDX DC    C'@.&&.ACTIVE'
 00510E 404040404040               31310              RCVYCLIN DC    C'      '
 005114 40D4E4D3E3C9D7D3           31311                       DC    C' MULTIPLE REPLACE RECAT CLEAR'
                                   31312              RCVYCMD1 EQU   RCVYCMDX,*-RCVYCMDX,C'X'
 005131 40D6D540                   31313                       DC    C' ON '
                                   31314              RCVYCMD  EQU   RCVYCMDX,*-RCVYCMDX,C'X'
1SIGN     (SIGN4072) (12:54) (15MAR04) SET LOGON Command                                                                    Page   70
0Current Usings:  (FINBASE,R7) (CP,R11) (CV,R12)
0Loc    Object Code    Addr1 Addr2  Stmt Lv Lineno    Source Statement           (Hibal 5, Asmedit 3.3)  HLASM R4.0  2004/03/15 12.54
+___    ______ ____    _____ _____  ____ __ ______    ______ _________
0                                  31316              ¿þþþþþþþþþþþþþþþþþþþþþþþþþþþþþþþþþþþþþþþþþþþþþþþþþþþþþþþþþþþþþþþþþþþþþÜ
                                   31317              Ÿ                                                                     Ÿ
                                   31318              Ÿ  SET LOGON Command.                                                 Ÿ
                                   31319              Ÿ                                                                     Ÿ
                                                      ¾þþþþþþþþþþþþþþþþþþþþþþþþþþþþþþþþþþþþþþþþþþþþþþþþþþþþþþþþþþþþþþþþþþþþþ»
0000000                00000 001F8 31320              SLOGWA   RECORD BEGIN
 000000                            31328  1           SLOGKWR    DS    XL(L'KWR)           Keyword record
 0001F8                001F8 001F8 31329                       END
                                   31338              þþþþ
 005136 50E0 D000/9008_      00000 31339              SETLOGON XPROC SLOGWA
 DROP   FINBASE,R7
 USING  *,R7
 USING  SLOGWA-(4+36),R8
 005150 D504 75DE B3B4_0572E 003B4 31393                       IF    ((CPSACCT,NE,'WYLGS'),AND,(CPSACCT,NE,'MPDGG')),BEGIN
 005164 D504 75E3 B3B4_05733 003B4 31426  1                      IF    ((CPSACCT,EQ,'RPCGS'),OR,(CPSACCT,EQ,'RPCGQ')),EXIT
 005178 D504 75ED B3B4_0573D 003B4 31462  1                      IF    (CPSACCT,EQ,'WWWGS'),EXIT
 005182 58E0 7478/0DEE       055C8 31482  1                      VCALL NOTVALID            Sorry, only for RPC/WEB servers
 005188                            31486                       END
                                   31490
 005188 5810 B08C/1B00_      0008C 31491                       SCAN  SLOGPRT             Scan for new account
 0051DA 58E0 7484/0DEE       055D4 31523                       SCANCHK
                                   31528
 0051E0 D604 BC48 BC48_00C48 00C48 31529                       IF    (CPCACCT,Z),'ERROR "Missing account on SET LOGON."'
 0051F6 4160 8028            00000 31557                       LA    R6,SLOGKWR
 USING  KWR,R6                     31558                       WITH  (KWR,R6)
 0051FA D7FF 6000 6000_00000 00000 31571                       CLEAR KWR
 005206 D204 6000 BC48 00000 00C48 31579                       MVC   KWRACCT,CPCACCT     Set "uuugg"
 00520C 1816/4100 0040_            31580                       KREAD KWR
                                   31593
 005218 9180 61F4/4710_001F4       31594                       IF    ~KWRHFL.KWRHFCK,BEGIN  No keyword file...
 005220 4110 760F/4100_      0575F 31610  1                      ERROR 'No account file, no action taken.'
 00522C                            31617                       END
                                   31621
 00522C 9180 600E/4710_0000E       31622                       IF    ~KWRIFL.KWRIFVAL,BEGIN  No such account...
 005234 4110 7388/4100_      054D8 31638  1                      TSEG  'Account '
 005246 4110 BC4B/4100_      00C4B 31656  1                      TSEG  CPCGRP
 005258 4110 74F0/4100_      05640 31684  1                      TSEG  '.'
 00526A 4110 BC48/4100_      00C48 31702  1                      TSEG  CPCUSER
 00527C 4110 7390/4100_      054E0 31730  1                      ERROR ' does not exist.'
 005288                            31737                       END
                                   31741                       ¿þþþþþþþþþþþþþþþþþþþþþþþþþþþþþþþþþþþþþþþþþþþþþþþþþÜ
                                   31742                       Ÿ  Force exit from all other subsystems (ORVYL).  Ÿ
                                   31743                       ¾þþþþþþþþþþþþþþþþþþþþþþþþþþþþþþþþþþþþþþþþþþþþþþþþþ»
 005288 58E0 744C/0DEE       0559C 31744                       VCALL TSUBOFF             Force exit from ORVYL
                                   31748
 00528E D504 75ED B3B4_0573D 003B4 31749                       IF    (CPSACCT,EQ,'WWWGS'),BEGIN   Set return data
 005298 D204 B458 B3B4 00458 003B4 31766  1                      MVC   CPLACCT,CPSACCT
 00529E                            31767                       END
1SIGN     (SIGN4072) (12:54) (15MAR04) SET LOGON Command                                                                    Page   71
0Current Usings:  (KWR,R6) (*,R7) (SLOGWA-(4+36),R8) (CP,R11) (CV,R12)
0Loc    Object Code    Addr1 Addr2  Stmt Lv Lineno    Source Statement           (Hibal 5, Asmedit 3.3)  HLASM R4.0  2004/03/15 12.54
+___    ______ ____    _____ _____  ____ __ ______    ______ _________
0                                  31771                       ¿þþþþþþþþþþþþþþþþþþþþþþþþþþþþþþþþþþþþþþþþþþþþþþþþþþþÜ
                                   31772                       Ÿ  Change accounts.                                 Ÿ
                                   31773                       Ÿ    First calculate the "user number" then change  Ÿ
                                   31774                       Ÿ    the account.                                   Ÿ
                                   31775                       ¾þþþþþþþþþþþþþþþþþþþþþþþþþþþþþþþþþþþþþþþþþþþþþþþþþþþ»
 00529E D204 B3B4 BC48 003B4 00C48 31776                       MVC   CPSACCT,CPCACCT     Set account
 0052A4 D204 B1B8 BC48 001B8 00C48 31777                       MVC   CPACCTSV,CPCACCT    Set saved account too
 0052AA 58E0 7488/0DEE       055D8 31778                       ACALL GETUSRNO            Get a unique user number
 0052B0 40F0B3B9                   31782                       ST2   R15,CPSANO          Save user number
                                   31784
 0052B4 58F0 C1C8            001C8 31785                       L     R15,CVCURJCB
 0052B8 D204 F04A BC48_0004A 00C48 31786                       WITH  (JCB,R15),'MVC JCBACCT,CPCACCT; MVC JCBANO,CPSANO'
 USING  JCB,R15
 DROP   JCB,R15
                                   31811
 0052C4 D200 B3BE 600E 003BE 0000E 31812                       MVC   CPSKIFL,KWRIFL      Set new privs
 0052CA D200 B3BF 600F 003BF 0000F 31813                       MVC   CPSKAFL,KWRAFL      Set new privs
                                   31814                       AIF   ('&INSTALN' NE 'STANFORD').NOSOF3A
                                   31815              *
                                   31816              * Copy over new source of funds - it appears that WYLBUR didn't
                                   31817              * originally do this, leading to accounting problems - MPD 05/06/98
                                   31818              *
 0052D0 D200 B1F8 6061 001F8 00061 31819                       MVC   CPSOF,KWRSOF        Save source of funds code
 0052D6 D200 B1F9 6062 001F9 00062 31820                       MVC   CPAR,KWRAR          Save accounts receivable code
                                   31821              .NOSOF3A ANOP
                                   31822                       ¿þþþþþþþþþþþþþþþþþþþþþþþþþþþþþþþþþþþþþþÜ
                                   31823                       Ÿ  Tell MILTEN about our new account.  Ÿ
                                   31824                       ¾þþþþþþþþþþþþþþþþþþþþþþþþþþþþþþþþþþþþþþ»
 0052DC 41F0 B050/58E0_      00050 31825                       TCLEAR
 0052E6 4110 B3B4/4100_      003B4 31839                       TSEG  CPSSESS
 0052F8 4100 0065/58E0_      00065 31867                       TCNTL CTLPSETS            Set session
 005302 4780 71CA/900F_      0531A 31879                       FAIL  NZ,MILERR
 00531A 18F0                       31901                       LR    R15,R0
 00531C 59F0 748C/47D0_      055DC 31902                       CEIL  R15,L'CPSINFO
 005328 06F0/12FF/4740_            31921                       MOVE  R15,CPSINFO,@R1     Save new session info
                                   31959                       ¿þþþþþþþþþþþþþþþþþþþþþþþþÜ
                                   31960                       Ÿ  Save our new userid.  Ÿ
                                   31961                       ¾þþþþþþþþþþþþþþþþþþþþþþþþ»
 005334 D71F B198 B198 00198 00198 31962                       CLEAR CPUID               Assume no userid
                                   31969
 00533A 41F0 B3B4            003B4 31970                       LA    R15,CPSACCT         Logged on account
 00533E 4110 B198/4100_      00198 31971                       SETMSG CPUID               Put userid here
 005346 58E0 7490/0DEE       055E0 31985                       VCALL GETUID              Get corresponding userid
 00534C D61F B198 B198_00198 00198 31989                       IF    (CPUID,Z),'CLEAR CPUID'  No userid
                                   32017                       ¿þþþþþþþþþþþþþþþþþþþþþþþþþþþþþþþþþþþþþþþþþþþþþþþþþþþþþþÜ
                                   32018                       Ÿ  Release RACF privileges based on previous account.  Ÿ
                                   32019                       ¾þþþþþþþþþþþþþþþþþþþþþþþþþþþþþþþþþþþþþþþþþþþþþþþþþþþþþþ»
 00535C 58E0 740C/0DEE       0555C 32020                       VCALL PROTFREE            Reinit RACF settings
                                   32024                       ¿þþþþþþþþþþþþþþþþþþþþþþþþþþþþþþþþþþþþþþþþþÜ
                                   32025                       Ÿ  Write "LOGON-SWITCH:" message to log.  Ÿ
                                   32026                       ¾þþþþþþþþþþþþþþþþþþþþþþþþþþþþþþþþþþþþþþþþþ»
 005362 4110 74DC/4100_      0562C 32027                       SETMSG 'LOGON-SWITCH: '
 00536A 58E0 7454/0DEE       055A4 32031                       VCALL LOGSESS             Log session logon
                                   32035
1SIGN     (SIGN4072) (12:54) (15MAR04) SET LOGON Command                                                                    Page   72
0Current Usings:  (KWR,R6) (*,R7) (SLOGWA-(4+36),R8) (CP,R11) (CV,R12)
0Loc    Object Code    Addr1 Addr2  Stmt Lv Lineno    Source Statement           (Hibal 5, Asmedit 3.3)  HLASM R4.0  2004/03/15 12.54
+___    ______ ____    _____ _____  ____ __ ______    ______ _________
0005370 47F0 C7DE            007DE 32036                       B     CVNEXT              It's done
 005374 18D8/9808 D004_            32037                       PEND
 DROP   KWR,R6
 DROP   SLOGWA-(4+36),R8
 DROP   *,R7
 USING  FINBASE,R7
                                   32074                       ¿þþþþþþþþþþþþþþþþþþþþþþÜ
                                   32075                       Ÿ  SET LOGON Options.  Ÿ
                                   32076                       ¾þþþþþþþþþþþþþþþþþþþþþþ»
 005384 D9C5E3E4D9D54040_          32077              SLOGPRT  SCKW  RETURN,SLOGRET
 0053AC 4040404040404040_          32092                       SCKW  ,V(ACCTPSHC),PUSH
 0053D4 4040404040404040_          32107                       SCKW  ,V(COLLPSH),PUSH
 0053FC 4040404040404040_          32122                       SCKW  ,V(NOTVALID)
                                   32137
 005424 50E0 D000/9008_      00000 32138              SLOGRET  PROC
 DROP   FINBASE,R7
 USING  *,R7
 00543E D604 B458 B458_00458 00458 32180                       IF    ((CPLACCT,NZ),AND,(CPLACCT,EQ,'WWWGS')),BEGIN
 005452 D204 BC48 B458 00C48 00458 32212  1                      MVC   CPCACCT,CPLACCT   Restore previous account
 005458 D704 B458 B458 00458 00458 32213  1                      CLEAR CPLACCT           No return nesting allowed
 00545E                            32220                       END
 00545E 18D8/9808 D004_            32224                       PEND
 DROP   *,R7
 USING  FINBASE,R7
0                                  32252                       QLTORG
                                   32365
                                   32366                       VLTORG
 0057D0                057D0 057D0 32377                       END   .

1SIGN     (SIGN4072) (12:54) (15MAR04) Relocation Dictionary                                                                Page   73
-   Pos.Id   Rel.Id   Flags    Address                                                       HLASM R4.0  2004/03/15 12.54
0  00000001 00000001    0C    000000CC
   00000001 00000001    0C    000007B0
   00000001 00000001    0C    000007B8
   00000001 00000001    0C    000007C0
   00000001 00000001    0C    000007C4
   00000001 00000001    0C    000007DC
   00000001 00000001    0C    000007E4
   00000001 00000001    0C    000007E8
   00000001 00000001    0C    000007EC
   00000001 00000001    0C    000007F0
   00000001 00000001    0C    000008C8
   00000001 00000001    0C    000008F0
   00000001 00000001    0C    00000918
   00000001 00000001    0C    00000940
   00000001 00000001    0C    00000990
   00000001 00000001    0C    000009B8
   00000001 00000001    0C    000009E0
   00000001 00000001    0C    00000A40
   00000001 00000001    0C    00000A68
   00000001 00000001    0C    00000A90
   00000001 00000001    0C    00000AB8
   00000001 00000001    0C    00000AE0
   00000001 00000001    0C    00000B08
   00000001 00000001    0C    00000B30
   00000001 00000001    0C    00000B58
   00000001 00000001    0C    00000BA8
   00000001 00000001    0C    00000C58
   00000001 00000001    0C    00000C80
   00000001 00000001    0C    00000CA8
   00000001 00000001    0C    00000E10
   00000001 00000001    0C    00000E38
   00000001 00000001    0C    00000E60
   00000001 00000001    0C    00000E88
   00000001 00000001    0C    00000EB0
   00000001 00000001    0C    00000ED8
   00000001 00000001    0C    00000F00
   00000001 00000001    0C    000018B8
   00000001 00000001    0C    000018C0
   00000001 00000001    0C    00001970
   00000001 00000001    0C    00001974
   00000001 00000001    0C    000025FC
   00000001 00000001    0C    00002654
   00000001 00000001    0C    0000265C
   00000001 00000001    0C    00002AF4
   00000001 00000001    0C    000033B8
   00000001 00000001    08    00003B89
   00000001 00000001    08    00003C29
   00000001 00000001    08    00003D33
   00000001 00000001    0C    00004158
   00000001 00000001    0C    00004390
   00000001 00000001    0C    000045E4
   00000001 00000001    0C    0000460C
   00000001 00000001    0C    00004634
   00000001 00000001    0C    0000465C
   00000001 00000001    0C    000048F0
1SIGN     (SIGN4072) (12:54) (15MAR04) Relocation Dictionary                                                                Page   74
   00000001 00000001    0C    000048F4
   00000001 00000001    0C    00004918
   00000001 00000001    0C    00004920
   00000001 00000001    0C    00004924
   00000001 00000001    08    00005045
   00000001 00000001    0C    000053A8
   00000001 00000001    0C    000054F4
   00000001 00000001    0C    00005524
   00000001 00000001    0C    00005570
   00000001 00000001    0C    000055BC
   00000001 00000001    0C    000055CC
   00000001 00000001    0C    000055D8
   00000001 00000002    1C    000007A8
   00000001 00000002    1C    00003A98
   00000001 00000002    1C    000048F8
   00000001 00000002    1C    000055D0
   00000001 00000003    1C    000007AC
   00000001 00000003    1C    00005534
   00000001 00000004    1C    000007BC
   00000001 00000004    1C    000054F0
   00000001 00000005    1C    000007C8
   00000001 00000005    1C    000018C8
   00000001 00000005    1C    000025E4
   00000001 00000005    1C    00002AA0
   00000001 00000005    1C    00003378
   00000001 00000005    1C    00003ACC
   00000001 00000005    1C    00004194
   00000001 00000005    1C    00005504
   00000001 00000006    1C    000007CC
   00000001 00000007    1C    000007D0
   00000001 00000007    1C    0000197C
   00000001 00000007    1C    00002628
   00000001 00000007    1C    00003398
   00000001 00000007    1C    00005598
   00000001 00000008    1C    000007D4
   00000001 00000008    1C    00003A94
   00000001 00000009    1C    000007E0
   00000001 0000000A    1C    000008A0
   00000001 0000000A    1C    00000968
   00000001 0000000B    1C    000008EC
   00000001 0000000B    1C    00000A3C
   00000001 0000000B    1C    00000A64
   00000001 0000000B    1C    00000A8C
   00000001 0000000B    1C    00000AB4
   00000001 0000000B    1C    00000B04
   00000001 0000000B    1C    00000B2C
   00000001 0000000B    1C    00000B54
   00000001 0000000B    1C    00000B7C
   00000001 0000000B    1C    00000C2C
   00000001 0000000B    1C    00000C54
   00000001 0000000B    1C    00000C7C
   00000001 0000000B    1C    00000CA4
   00000001 0000000B    1C    00000CCC
   00000001 0000000B    1C    00000CF4
   00000001 0000000B    1C    00000D1C
   00000001 0000000B    1C    00000D44
   00000001 0000000B    1C    00000D6C
   00000001 0000000B    1C    00000D94
   00000001 0000000B    1C    00000DBC
1SIGN     (SIGN4072) (12:54) (15MAR04) Relocation Dictionary                                                                Page   75
   00000001 0000000B    1C    00000DE4
   00000001 0000000B    1C    00000E0C
   00000001 0000000B    1C    00000E34
   00000001 0000000B    1C    00000E5C
   00000001 0000000B    1C    00000E84
   00000001 0000000B    1C    00000EAC
   00000001 0000000B    1C    00000ED4
   00000001 0000000B    1C    00000EFC
   00000001 0000000B    1C    0000438C
   00000001 0000000B    1C    000045E0
   00000001 0000000B    1C    00004608
   00000001 0000000B    1C    00004630
   00000001 0000000B    1C    000053A4
   00000001 0000000C    1C    0000093C
   00000001 0000000C    1C    000009DC
   00000001 0000000C    1C    000043DC
   00000001 0000000C    1C    00004658
   00000001 0000000C    1C    0000541C
   00000001 0000000D    1C    00000ADC
   00000001 0000000D    1C    00000BA4
   00000001 0000000E    1C    00000B80
   00000001 0000000F    1C    00000C30
   00000001 00000010    1C    00000CD0
   00000001 00000011    1C    00000CF8
   00000001 00000012    1C    00000D20
   00000001 00000013    1C    00000D48
   00000001 00000013    1C    00000D70
   00000001 00000013    1C    00000D98
   00000001 00000013    1C    00000DC0
   00000001 00000013    1C    00000DE8
   00000001 00000014    1C    000018BC
   00000001 00000015    1C    000018C4
   00000001 00000015    1C    00002610
   00000001 00000015    1C    00002AA8
   00000001 00000015    1C    00003394
   00000001 00000015    1C    00003ABC
   00000001 00000015    1C    00004904
   00000001 00000015    1C    000055AC
   00000001 00000016    1C    000018CC
   00000001 00000016    1C    0000261C
   00000001 00000016    1C    00002AF0
   00000001 00000016    1C    00003374
   00000001 00000016    1C    00003AC0
   00000001 00000016    1C    00004908
   00000001 00000016    1C    00005520
   00000001 00000017    1C    00001958
   00000001 00000017    1C    00002604
   00000001 00000018    1C    0000195C
   00000001 00000018    1C    00002608
   00000001 00000019    1C    00001964
   00000001 00000019    1C    0000260C
   00000001 0000001A    1C    00001968
   00000001 0000001A    1C    00004928
   00000001 0000001B    1C    0000196C
   00000001 0000001B    1C    00004934
   00000001 0000001C    1C    00001978
   00000001 0000001D    1C    0000199C
   00000001 0000001E    1C    000019A0
   00000001 0000001E    1C    00002624
1SIGN     (SIGN4072) (12:54) (15MAR04) Relocation Dictionary                                                                Page   76
   00000001 0000001E    1C    00003AD0
   00000001 0000001E    1C    00004174
   00000001 0000001F    1C    000019A4
   00000001 00000020    1C    000025D0
   00000001 00000020    1C    0000555C
   00000001 00000021    1C    000025D4
   00000001 00000021    1C    000055B4
   00000001 00000022    1C    000025D8
   00000001 00000023    1C    000025DC
   00000001 00000023    1C    000055E0
   00000001 00000024    1C    000025E0
   00000001 00000024    1C    00004148
   00000001 00000024    1C    00005500
   00000001 00000025    1C    000025E8
   00000001 00000025    1C    0000414C
   00000001 00000025    1C    0000553C
   00000001 00000026    1C    000025F0
   00000001 00000026    1C    0000418C
   00000001 00000026    1C    000055B8
   00000001 00000027    1C    000025F4
   00000001 00000027    1C    000055A0
   00000001 00000028    1C    000025F8
   00000001 00000028    1C    000055A4
   00000001 00000029    1C    00002600
   00000001 00000029    1C    0000490C
   00000001 0000002A    1C    00002614
   00000001 0000002A    1C    000033A8
   00000001 0000002A    1C    00005508
   00000001 0000002B    1C    00002618
   00000001 0000002C    1C    00002620
   00000001 0000002C    1C    00003370
   00000001 0000002C    1C    00005574
   00000001 0000002D    1C    00002634
   00000001 0000002E    1C    00002644
   00000001 0000002F    1C    00002648
   00000001 00000030    1C    0000264C
   00000001 00000031    1C    00002650
   00000001 00000032    1C    00002658
   00000001 00000033    1C    00002660
   00000001 00000034    1C    00002AA4
   00000001 00000034    1C    0000557C
   00000001 00000035    1C    0000337C
   00000001 00000036    1C    00003380
   00000001 00000036    1C    0000492C
   00000001 00000037    1C    00003384
   00000001 00000038    1C    00003388
   00000001 00000039    1C    0000338C
   00000001 00000039    1C    00003AC4
   00000001 00000039    1C    00005580
   00000001 0000003A    1C    00003390
   00000001 0000003A    1C    00003A90
   00000001 0000003A    1C    00004910
   00000001 0000003B    1C    000033B4
   00000001 0000003C    1C    00003AA0
   00000001 0000003D    1C    00003AC8
   00000001 0000003E    1C    00003AD4
   00000001 0000003F    0C    00003CD8
   00000001 00000040    1C    00003CC8
   00000001 00000041    1C    00003CD0
1SIGN     (SIGN4072) (12:54) (15MAR04) Relocation Dictionary                                                                Page   77
   00000001 00000042    1C    00003CD4
   00000001 00000042    1C    00005578
   00000001 00000043    1C    00003CDC
   00000001 00000044    1C    00003CE0
   00000001 00000045    1C    00003CE4
   00000001 00000046    1C    00003CEC
   00000001 00000047    1C    00003CF0
   00000001 00000048    1C    00004154
   00000001 00000049    1C    0000415C
   00000001 00000049    1C    000054F8
   00000001 0000004A    1C    00004160
   00000001 0000004B    1C    00004164
   00000001 0000004C    1C    00004168
   00000001 0000004D    1C    0000416C
   00000001 0000004E    1C    00004170
   00000001 0000004F    1C    00004180
   00000001 00000050    1C    00004184
   00000001 00000051    1C    00004188
   00000001 00000051    1C    00005554
   00000001 00000052    1C    00004190
   00000001 00000053    1C    0000419C
   00000001 00000054    1C    000041A8
   00000001 00000055    1C    000043B8
   00000001 00000056    1C    000043E0
   00000001 00000057    1C    000048FC
   00000001 00000057    1C    000055D4
   00000001 00000058    1C    00004900
   00000001 00000059    1C    00004914
   00000001 0000005A    1C    000053D0
   00000001 0000005B    1C    000053F8
   00000001 0000005C    1C    00005420
   00000001 0000005C    1C    000055C8
   00000001 0000005D    1C    000054FC
   00000001 0000005E    1C    0000552C
   00000001 0000005F    1C    00005530
   00000001 00000060    1C    00005538
   00000001 00000061    1C    00005544
   00000001 00000062    1C    00005548
   00000001 00000063    1C    0000554C
   00000001 00000064    1C    00005550
   00000001 00000065    1C    00005558
   00000001 00000066    1C    00005560
   00000001 00000067    1C    00005564
   00000001 00000068    1C    00005568
   00000001 00000069    1C    0000556C
   00000001 0000006A    1C    00005594
   00000001 0000006B    1C    0000559C
   00000001 0000006C    1C    000055A8
   00000001 0000006D    1C    000055C0
   00000001 0000006E    1C    000055C4

1SIGN     (SIGN4072) (12:54) (15MAR04) Ordinary Symbol and Literal Cross Reference                                          Page   78
-Symbol   Length   Value     Id    R Type   Defn References                                  HLASM R4.0  2004/03/15 12.54
0$$$@R0        1 00000000 FFFFFFFE     J     705  1021
 $$$@R10       1 00000000 FFFFFFF4     J     835  1085
 $$$@R11       1 00000000 FFFFFFF3     J     848  1098
 $$$@R12       1 00000000 FFFFFFF2     J     861  1111
 $$$@R13       1 00000000 FFFFFFF1     J     874  1124
 $$$@R14       1 00000000 FFFFFFF0     J     887  1137
 $$$@R7        1 00000000 FFFFFFF7     J     796  1034
 $$$@R8        1 00000000 FFFFFFF6     J     809  1047   1059
 $$$@R9        1 00000000 FFFFFFF5     J     822  1072
 $$$C1WYLSIGN
               1 000000DE 00000001     J    9755  9757  10699  11260
 $$$C10WYLSIGN
               1 0000497E 00000001     J   28425 28427  29679  31336  31953
 $$$C11WYLSIGN
               1 0000578C 00000001     J   32360 32362
 $$$C12WYLSIGN
               1 000057D0 00000001     J   32380 32382
 $$$C2WYLSIGN
               1 0000087C 00000001     J   11621 11623
 $$$C3WYLSIGN
               1 00001D94 00000001     J   15434 15436  15943  17158  17732  18156
 $$$C4WYLSIGN
               1 000027CC 00000001     J   18727 18729
 $$$C5WYLSIGN
               1 00002C4D 00000001     J   19721 19723  20786
 $$$C6WYLSIGN
               1 0000356C 00000001     J   22344 22346  23143  23277  23409  23558  23707  23856
 $$$C7WYLSIGN
               1 00003B54 00000001     J   24542 24544
 $$$C8WYLSIGN
               1 00003CFA 00000001     J   24977 24979  25211  25444  25863
 $$$C9WYLSIGN
               1 000041EC 00000001     J   26249 26251  26279  27051  27776  28107  28218
 $$$D0WYLSIGN
               1 000000D2 00000001     J     996  9646   9723
 $$$D1WYLSIGN
               1 0000086F 00000001     J    9756 10688  11249
 $$$D10WYLSIGN
               1 00005780 00000001     J   28426 29668  31942
 $$$D3WYLSIGN
               1 000027B5 00000001     J   15435 15932  17147  17721  18145
 $$$D5WYLSIGN
               1 00003567 00000001     J   19722 20775
 $$$D6WYLSIGN
               1 00003B35 00000001     J   22345 23266  23398  23547  23696  23845
 $$$D8WYLSIGN
               1 000041D9 00000001     J   24978 25200  25433  25852
 $$$D9WYLSIGN
               1 0000496B 00000001     J   26250 27765  28096  28207
 $$$RCHKSPWA
               1 00000000 FFFFFFDA     J   23129 23142  23142
 $$$RCP        1 00000000 FFFFFFEC     J    2456  4716   6190   6190
 $$$RCV        1 00000000 FFFFFFEE     J    1181  2366   2366
 $$$RDEV       1 00000000 FFFFFFEB     J    4670  4715   4715
 $$$RJCB       1 00000000 FFFFFFE0     J    8941  9215   9215
1SIGN     (SIGN4072) (12:54) (15MAR04) Ordinary Symbol and Literal Cross Reference                                          Page   79
 $$$RKWR       1 00000000 FFFFFFE1     J    8730  8935   8935
 $$$RLGNWA
               1 00000000 FFFFFFD8     J   27033 27050  27050
 $$$RLOGWA
               1 00000000 FFFFFFD9     J   26257 26278  26278
 $$$RNSCNCB
               1 00000000 FFFFFFED     J    2377  2450   2450
 $$$RPFCB      1 00000000 FFFFFFDD     J    9309  9393   9393
 $$$RSEGCB
               1 00000000 FFFFFFE7     J    7204  7304   7304
 $$$RSIGNWA
               1 00000000 FFFFFFDB     J    9469  9486   9486
 $$$RSLOGWA
               1 00000000 FFFFFFD7     J   31322 31335  31335
 $$$RSMFHDR
               1 00000000 FFFFFFDF     J    9221  9259   9259
 $$$RSMFKWR
               1 00000000 FFFFFFDE     J    9265  9303   9303
 $$$RTTYPE
               1 00000000 FFFFFFEA     J    6201  6302   6302
 $$$RUSERCVT
               1 00000000 FFFFFFE2     J    8641  8724   8724
 $$$SEGCB0
               4 00000050 FFFFFFEC     F    2487  2573   2573
 $$$V01       15 0000578C 00000001     C   32372 24622  24810
 $$$V02       24 0000579B 00000001     C   32373 25057
 $$$V03       24 000057B3 00000001     C   32374 31039
 $$$100F       2 000005E0 00000001     H   11117 11104B
 $$$101F       2 000005EA 00000001     H   11136 11127B
 $$$102F       2 000005FE 00000001     H   11168 11150B
 $$$104F       2 0000062C 00000001     H   11212 11203B
 $$$105F       2 00000642 00000001     H   11269 11222B
 $$$106F       2 00000642 00000001     H   11265 11241B
 $$$107        6 00000876 00000001     I   11255 11247X
 $$$108        6 00000876 00000001     I   11254 11255  11255
 $$$109F       2 00000740 00000001     H   11447 11434B
 $$$110F       2 0000074A 00000001     H   11466 11457B
 $$$114B       1 000009FE 00000001     X   11799 11806U
 $$$115        1 00000050 00000001 A   U   11839 11836  11838
 $$$117B       1 00000BEE 00000001     X   12034 12041U
 $$$118        1 00000050 00000001 A   U   12074 12071  12073
 $$$120B       1 00000F46 00000001     X   12412 12419U
 $$$121B       4 00000F4A 00000001     I   12447 13146
 $$$121F       2 0000112E 00000001     H   13143 12447B 13145
 $$$122E       2 00001132 00000001     H   13153 13147
 $$$122F       2 00001342 00000001     H   13790 13149B
 $$$123        1 00000050 00000001 A   U   13810 13807  13809
 $$$125B       1 0000136E 00000001     X   13840 13847U
 $$$126F       2 00001394 00000001     H   13891 13878B
 $$$135F       2 00001436 00000001     H   14171 14073B 14162B
 $$$135S       2 000013F0 00000001     H   14056 14170B
 $$$137F       2 0000140C 00000001     H   14099 14089B
 $$$138F       2 0000141A 00000001     H   14122 14112B
 $$$139F       2 00001428 00000001     H   14145 14135B
 $$$142F       2 00001478 00000001     H   14273 14202B
 $$$143F       2 00001478 00000001     H   14269 14233B
 $$$143T       2 00001460 00000001     H   14236 14222B
 $$$146        1 00000050 00000001 A   U   14323 14320  14322
 $$$148B       1 000014B4 00000001     X   14350 14357U
1SIGN     (SIGN4072) (12:54) (15MAR04) Ordinary Symbol and Literal Cross Reference                                          Page   80
 $$$149        1 00000050 00000001 A   U   14384 14381  14383
 $$$151B       1 000014E2 00000001     X   14411 14418U
 $$$152        1 00000050 00000001 A   U   14445 14442  14444
 $$$154B       1 00001510 00000001     X   14472 14479U
 $$$155        1 00000050 00000001 A   U   14506 14503  14505
 $$$157B       1 0000153E 00000001     X   14533 14540U
 $$$158        1 00000050 00000001 A   U   14567 14564  14566
 $$$160B       1 0000156C 00000001     X   14594 14601U
 $$$161F       2 00001594 00000001     H   14663 14624B
 $$$162        1 00000050 00000001 A   U   14736 14733  14735
 $$$164B       1 000015F0 00000001     X   14763 14770U
 $$$165        1 00000050 00000001 A   U   14802 14799  14801
 $$$167B       1 0000161C 00000001     X   14829 14836U
 $$$168        1 00000050 00000001 A   U   14865 14862  14864
 $$$170B       1 00001648 00000001     X   14892 14899U
 $$$171        1 00000050 00000001 A   U   14930 14927  14929
 $$$173B       1 0000167E 00000001     X   14957 14964U
 $$$174S       2 0000167E 00000001     H   14977 15003B
 $$$177        1 00000050 00000001 A   U   15030 15027  15029
 $$$179B       1 000016B6 00000001     X   15057 15064U
 $$$180S       2 000016B6 00000001     H   15077 15102B
 $$$183        1 00000050 00000001 A   U   15129 15126  15128
 $$$185B       1 000016EE 00000001     X   15158 15165U
 $$$186F       2 00001754 00000001     H   15296 15185B
 $$$187        1 00000050 00000001 A   U   15346 15343  15345
 $$$188B       1 00001D96 00000001     X   15449 15456U
 $$$189F       2 00001DC8 00000001     H   15523 15513B
 $$$190F       2 00001DDE 00000001     H   15547 15537B
 $$$191F       2 00001DF8 00000001     H   15592 15576B
 $$$192F       2 00001E20 00000001     H   15650 15634B
 $$$193F       2 00001E50 00000001     H   15750 15665B 15702B 15721B 15740B
 $$$197F       2 00001E68 00000001     H   15794 15762B
 $$$198F       2 00001E68 00000001     H   15790 15780B
 $$$199F       2 00001ECE 00000001     H   15952 15824B
 $$$200F       2 00001EB4 00000001     H   15890 15876B
 $$$201F       2 00001EC2 00000001     H   15910 15901B
 $$$202F       2 00001ECE 00000001     H   15948 15924B
 $$$203        6 000027B6 00000001     I   15938 15930X
 $$$204        6 000027B6 00000001     I   15937 15938  15938
 $$$205F       2 00001EFC 00000001     H   16001 15985B
 $$$206F       2 00001F3C 00000001     H   16070 16056B
 $$$207F       2 00001F4A 00000001     H   16088 16077B
 $$$208F       2 00001F70 00000001     H   16143 16128B
 $$$209F       2 00001F7C 00000001     H   16169 16154B
 $$$210F       2 00001FDA 00000001     H   16355 16196B 16264B 16283B 16307B
 $$$211F       2 00001FA4 00000001     H   16247 16237B
 $$$215F       2 00002002 00000001     H   16423 16371B
 $$$216F       2 00001FF2 00000001     H   16396 16386B
 $$$217F       2 00002002 00000001     H   16419 16409B
 $$$218F       2 00002036 00000001     H   16502 16436B
 $$$219B       4 00002016 00000001     I   16453 16470
 $$$219F       2 00002020 00000001     H   16466 16453B 16469
 $$$220E       2 00002024 00000001     H   16477 16471
 $$$220F       2 00002036 00000001     H   16498 16473B
 $$$221F       2 0000219E 00000001     H   17039 16516B
 $$$222F       2 00002192 00000001     H   17000 16550B
 $$$223F       2 0000216C 00000001     H   16931 16568B
 $$$224F       2 0000212C 00000001     H   16809 16796B
 $$$225F       2 00002138 00000001     H   16835 16822B
1SIGN     (SIGN4072) (12:54) (15MAR04) Ordinary Symbol and Literal Cross Reference                                          Page   81
 $$$226F       2 0000218E 00000001     H   16988 16979B
 $$$226S       2 0000216C 00000001     H   16937 16987B
 $$$231F       2 0000219E 00000001     H   17030 17015B
 $$$235F       2 000021E0 00000001     H   17168 17101B
 $$$236F       2 000021DC 00000001     H   17163 17139B
 $$$237        6 000027BC 00000001     I   17153 17145X
 $$$238        6 000027BC 00000001     I   17152 17153  17153
 $$$239F       2 00002338 00000001     H   17696 17183B
 $$$241B       4 000021EC 00000001     I   17199 17229
 $$$241F       2 00002202 00000001     H   17225 17199B 17228
 $$$243E       2 00002206 00000001     H   17236 17230
 $$$243F       2 0000224C 00000001     H   17337 17232B
 $$$244F       2 0000224C 00000001     H   17333 17267B
 $$$246F       2 0000224C 00000001     H   17329 17302B
 $$$247F       2 0000228A 00000001     H   17425 17356B 17371B
 $$$250F       2 000022BE 00000001     H   17506 17439B 17452B
 $$$254F       2 000022EA 00000001     H   17572 17518B
 $$$256F       2 0000231E 00000001     H   17653 17586B 17599B
 $$$260F       2 00002338 00000001     H   17692 17666B
 $$$261F       2 00002350 00000001     H   17737 17713B
 $$$262        6 000027C2 00000001     I   17727 17719X
 $$$263        6 000027C2 00000001     I   17726 17727  17727
 $$$265F       2 00002374 00000001     H   17808 17795B
 $$$267F       2 000023B6 00000001     H   17869 17844B 17855B
 $$$269F       2 000023C6 00000001     H   17893 17883B
 $$$271F       2 000023D6 00000001     H   17918 17904B
 $$$272F       2 00002434 00000001     H   18101 17931B 18040B
 $$$274F       2 00002410 00000001     H   18025 17986B
 $$$276S       2 00002418 00000001     H   18050 18084B
 $$$281F       2 0000249A 00000001     H   18288 18117B 18130B 18166B
 $$$285        4 000027C8 00000001     I   18151 18143X
 $$$286        4 000027C8 00000001     I   18150 18151  18151
 $$$288F       2 00002488 00000001     H   18254 18228B
 $$$289F       2 00002532 00000001     H   18537 18302B
 $$$291S       2 000024A2 00000001     H   18311 18352B
 $$$297B       4 000024C2 00000001     I   18377 18503
 $$$297F       2 0000251C 00000001     H   18500 18377B 18502
 $$$299B       1 000024F8 00000001     X   18422 18432U
 $$$300F       2 0000251C 00000001     H   18496 18470B
 $$$301E       2 00002520 00000001     H   18510 18504
 $$$301F       2 00002532 00000001     H   18533 18506B
 $$$304B       1 000027E6 00000001     X   18760 18770U
 $$$305F       2 00002A4C 00000001     H   19656 18789B
 $$$306F       2 00002810 00000001     H   18845 18818B
 $$$306T       2 000027FE 00000001     H   18821 18808B
 $$$308B       4 0000287E 00000001     I   19007 19042
 $$$308F       2 0000289C 00000001     H   19037 19007B 19041
 $$$309B       4 000028A6 00000001     I   19060 19141
 $$$309E       2 000028A0 00000001     H   19049 19043
 $$$309F       2 000028E8 00000001     H   19136 19045B 19060B 19140
 $$$311B       4 000028F2 00000001     I   19159 19222
 $$$311E       2 000028EC 00000001     H   19148 19142
 $$$311F       2 00002922 00000001     H   19217 19144B 19159B 19221
 $$$313B       4 0000292C 00000001     I   19240 19303
 $$$313E       2 00002926 00000001     H   19229 19223
 $$$313F       2 0000295C 00000001     H   19298 19225B 19240B 19302
 $$$315B       4 00002966 00000001     I   19321 19383
 $$$315E       2 00002960 00000001     H   19310 19304
 $$$315F       2 00002996 00000001     H   19379 19306B 19321B 19382
1SIGN     (SIGN4072) (12:54) (15MAR04) Ordinary Symbol and Literal Cross Reference                                          Page   82
 $$$317E       2 0000299A 00000001     H   19390 19384
 $$$317F       2 00002A14 00000001     H   19539 19386B
 $$$318        1 00000050 00000001 A   U   19682 19679  19681
 $$$320B       1 00002C68 00000001     X   19758 19768U
 $$$321F       2 00002C9E 00000001     H   19849 19833B
 $$$323F       2 00002CCC 00000001     H   19915 19861B
 $$$325F       2 00002CB6 00000001     H   19892 19876B
 $$$326F       2 00002D58 00000001     H   20105 19928B 20089B
 $$$328F       2 00002CE6 00000001     H   19964 19947B
 $$$331F       2 00002D98 00000001     H   20218 20121B
 $$$332F       2 00002D98 00000001     H   20214 20186B 20200B
 $$$332T       2 00002D94 00000001     H   20203 20142B 20172B
 $$$334F       2 00002D84 00000001     H   20175 20156B
 $$$338F       2 00002DE6 00000001     H   20330 20261B 20273B
 $$$342F       2 00002DF6 00000001     H   20360 20345B
 $$$344F       2 00002E3E 00000001     H   20452 20376B
 $$$346F       2 00002E54 00000001     H   20498 20469B
 $$$349F       2 00002F26 00000001     H   20677 20668B
 $$$349S       2 00002EEC 00000001     H   20605 20676B
 $$$350F       2 00002F04 00000001     H   20634 20624B
 $$$355F       2 00002F5A 00000001     H   20744 20714B
 $$$356        4 00003568 00000001     I   20781 20773X
 $$$357        4 00003568 00000001     I   20780 20781  20781
 $$$358F       2 00003000 00000001     H   20959 20794B
 $$$359F       2 000030C2 00000001     H   21251 20977B
 $$$362F       2 0000301A 00000001     H   21012 20995B
 $$$364F       2 000030BE 00000001     H   21234 21122B
 $$$366F       2 0000308A 00000001     H   21157 21144B
 $$$367F       2 0000309A 00000001     H   21184 21171B
 $$$368F       2 00003174 00000001     H   21555 21264B
 $$$369F       2 00003138 00000001     H   21395 21380B
 $$$370F       2 00003162 00000001     H   21507 21462B 21475B
 $$$372F       2 00003174 00000001     H   21551 21517B 21535B
 $$$375F       2 000031F4 00000001     H   21778 21568B 21670B
 $$$377F       2 0000319A 00000001     H   21658 21613B 21626B
 $$$380F       2 000032DE 00000001     H   22150 21795B 21812B
 $$$382F       2 00003238 00000001     H   21918 21851B
 $$$382S       2 0000320A 00000001     H   21842 21917B
 $$$384F       2 00003230 00000001     H   21912 21869B
 $$$385F       2 00003230 00000001     H   21908 21887B 21899B
 $$$387F       2 000032DE 00000001     H   22146 21939B
 $$$390F       2 000032DA 00000001     H   22136 22120B
 $$$392F       2 00003308 00000001     H   22214 22199B
 $$$393F       2 00003314 00000001     H   22240 22225B
 $$$394        1 00000050 00000001 A   U   22275 22272  22274
 $$$396B       1 00003586 00000001     X   22397 22407U
 $$$397F       2 000035FA 00000001     H   22587 22445B
 $$$398F       2 000035DE 00000001     H   22542 22480B
 $$$398S       2 000035B0 00000001     H   22471 22541B
 $$$400F       2 000035D6 00000001     H   22536 22498B
 $$$401F       2 000035D0 00000001     H   22530 22520B
 $$$402F       2 000035F8 00000001     H   22582 22567B
 $$$402S       2 000035E4 00000001     H   22558 22581B
 $$$404F       2 0000364C 00000001     H   22724 22601B
 $$$405F       2 00003632 00000001     H   22680 22636B
 $$$405S       2 00003606 00000001     H   22627 22679B
 $$$407F       2 0000362A 00000001     H   22674 22654B
 $$$408F       2 0000364A 00000001     H   22719 22705B
 $$$408S       2 00003638 00000001     H   22696 22718B
1SIGN     (SIGN4072) (12:54) (15MAR04) Ordinary Symbol and Literal Cross Reference                                          Page   83
 $$$410        1 00000050 00000001 A   U   22753 22750  22752
 $$$412B       1 0000367A 00000001     X   22787 22797U
 $$$413F       2 00003756 00000001     H   23086 22819B 22831B 22848B
 $$$416F       2 0000373E 00000001     H   23035 22902B
 $$$417F       2 000036CA 00000001     H   22936 22919B
 $$$419F       2 0000373E 00000001     H   23031 22999B
 $$$421        1 00000050 00000001 A   U   23113 23110  23112
 $$$423B       1 0000377E 00000001     X   23170 23180U
 $$$424B       4 00003780 00000001     I   23217 23901
 $$$424F       2 000038FE 00000001     H   23897 23217B 23900
 $$$425F       2 00003790 00000001     H   23243 23234B
 $$$426F       2 0000379E 00000001     H   23282 23258B
 $$$427        6 00003B36 00000001     I   23272 23264X
 $$$428        6 00003B36 00000001     I   23271 23272  23272
 $$$429B       4 000037B8 00000001     I   23317 23433
 $$$429F       2 000037FA 00000001     H   23426 23304B 23317B 23430
 $$$430B       4 000037AE 00000001     I   23304 23431
 $$$431F       2 000037F8 00000001     H   23418 23337B 23350B
 $$$433F       2 000037E6 00000001     H   23375 23366B
 $$$434F       2 000037F8 00000001     H   23414 23390B
 $$$435        6 00003B3C 00000001     I   23404 23396X
 $$$436        6 00003B3C 00000001     I   23403 23404  23404
 $$$437B       4 0000380C 00000001     I   23466 23582
 $$$437E       2 000037FE 00000001     H   23440 23432  23434
 $$$437F       2 0000384E 00000001     H   23575 23436B 23453B 23466B 23579
 $$$439B       4 00003802 00000001     I   23453 23580
 $$$440F       2 0000384C 00000001     H   23567 23486B 23499B
 $$$442F       2 0000383A 00000001     H   23524 23515B
 $$$443F       2 0000384C 00000001     H   23563 23539B
 $$$444        6 00003B42 00000001     I   23553 23545X
 $$$445        6 00003B42 00000001     I   23552 23553  23553
 $$$446B       4 00003860 00000001     I   23615 23731
 $$$446E       2 00003852 00000001     H   23589 23581  23583
 $$$446F       2 000038A2 00000001     H   23724 23585B 23602B 23615B 23728
 $$$448B       4 00003856 00000001     I   23602 23729
 $$$449F       2 000038A0 00000001     H   23716 23635B 23648B
 $$$451F       2 0000388E 00000001     H   23673 23664B
 $$$452F       2 000038A0 00000001     H   23712 23688B
 $$$453        6 00003B48 00000001     I   23702 23694X
 $$$454        6 00003B48 00000001     I   23701 23702  23702
 $$$455B       4 000038B4 00000001     I   23764 23879
 $$$455E       2 000038A6 00000001     H   23738 23730  23732
 $$$455F       2 000038F6 00000001     H   23873 23734B 23751B 23764B 23876
 $$$457B       4 000038AA 00000001     I   23751 23877
 $$$458F       2 000038F4 00000001     H   23865 23784B 23797B
 $$$460F       2 000038E2 00000001     H   23822 23813B
 $$$461F       2 000038F4 00000001     H   23861 23837B
 $$$462        6 00003B4E 00000001     I   23851 23843X
 $$$463        6 00003B4E 00000001     I   23850 23851  23851
 $$$464E       2 000038FA 00000001     H   23886 23878  23880
 $$$464F       2 000038FE 00000001     H   23892 23882B
 $$$465E       2 00003902 00000001     H   23908 23902
 $$$465F       2 00003906 00000001     H   23914 23904B
 $$$466        1 0000013C 00000001 A   U   23945 23942  23944
 $$$468B       1 0000392E 00000001     X   23977 23987U
 $$$469F       2 00003A4A 00000001     H   24466 24006B
 $$$470F       2 00003968 00000001     H   24097 24021B
 $$$471F       2 000039CC 00000001     H   24253 24114B
 $$$472F       2 00003A30 00000001     H   24408 24267B
1SIGN     (SIGN4072) (12:54) (15MAR04) Ordinary Symbol and Literal Cross Reference                                          Page   84
 $$$473F       2 00003A40 00000001     H   24452 24419B
 $$$474        1 00000050 00000001 A   U   24491 24488  24490
 $$$476B       1 00003B6E 00000001     X   24582 24592U
 $$$477F       2 00003B8C 00000001     H   24626 24611B
 $$$478        1 00000050 00000001 A   U   24729 24726  24728
 $$$480B       1 00003C0A 00000001     X   24767 24777U
 $$$481F       2 00003C2C 00000001     H   24814 24799B
 $$$482F       2 00003C5E 00000001     H   24873 24836B
 $$$483F       2 00003C74 00000001     H   24901 24889B
 $$$484        1 00000050 00000001 A   U   24942 24939  24941
 $$$486B       1 00003D14 00000001     X   25014 25024U
 $$$487F       2 00003D36 00000001     H   25061 25046B
 $$$488F       2 00003DA0 00000001     H   25220 25114B 25153B
 $$$490F       2 00003D94 00000001     H   25178 25169B
 $$$491F       2 00003DA0 00000001     H   25216 25192B
 $$$492        6 000041DA 00000001     I   25206 25198X
 $$$493        6 000041DA 00000001     I   25205 25206  25206
 $$$494        1 00000050 00000001 A   U   25291 25288  25290
 $$$496B       1 00003E04 00000001     X   25323 25333U
 $$$497F       2 00003E36 00000001     H   25409 25377B
 $$$498F       2 00003E48 00000001     H   25449 25425B
 $$$499        6 000041E0 00000001     I   25439 25431X
 $$$500        6 000041E0 00000001     I   25438 25439  25439
 $$$501F       2 00003EF0 00000001     H   25571 25550B
 $$$502F       2 00003EFC 00000001     H   25598 25583B
 $$$503        1 00000050 00000001 A   U   25647 25644  25646
 $$$505B       1 00003F46 00000001     X   25678 25688U
 $$$506F       2 00003FB6 00000001     H   25876 25707B
 $$$507F       2 00003FB6 00000001     H   25872 25723B
 $$$508F       2 00003F9C 00000001     H   25810 25796B
 $$$509F       2 00003FAA 00000001     H   25830 25821B
 $$$510F       2 00003FB6 00000001     H   25868 25844B
 $$$511        6 000041E6 00000001     I   25858 25850X
 $$$512        6 000041E6 00000001     I   25857 25858  25858
 $$$513        1 00000050 00000001 A   U   25901 25898  25900
 $$$515B       1 00003FDE 00000001     X   25942 25952U
 $$$516        1 00000050 00000001 A   U   26073 26070  26072
 $$$518B       1 000040C8 00000001     X   26108 26118U
 $$$519        1 00000050 00000001 A   U   26194 26191  26193
 $$$521B       1 00004206 00000001     X   26310 26320U
 $$$522        1 00000050 00000001 A   U   26360 26357  26359
 $$$524B       1 0000423A 00000001     X   26393 26403U
 $$$525F       2 000042A8 00000001     H   26499 26487B
 $$$526F       2 00004330 00000001     H   26731 26514B
 $$$527B       4 000042B6 00000001     I   26530 26585
 $$$527F       2 000042D8 00000001     H   26581 26530B 26584
 $$$528E       2 000042DC 00000001     H   26592 26586
 $$$528F       2 0000431A 00000001     H   26688 26588B
 $$$529F       2 0000431A 00000001     H   26684 26605B
 $$$530F       2 00004346 00000001     H   26772 26762B
 $$$531F       2 00004356 00000001     H   26824 26786B
 $$$532        1 00000054 00000001 A   U   26860 26857  26859
 $$$534B       1 000043FE 00000001     X   26933 26943U
 $$$535        1 00000050 00000001 A   U   26982 26979  26981
 $$$537B       1 0000442A 00000001     X   27079 27089U
 $$$538F       2 00004476 00000001     H   27164 27155B
 $$$539B       4 000044F6 00000001     I   27256 27289
 $$$539F       2 0000450E 00000001     H   27286 27256B 27288
 $$$540E       2 00004512 00000001     H   27296 27290
1SIGN     (SIGN4072) (12:54) (15MAR04) Ordinary Symbol and Literal Cross Reference                                          Page   85
 $$$540F       2 000045B0 00000001     H   27536 27292B
 $$$541B       4 00004518 00000001     I   27309 27377
 $$$541F       2 00004552 00000001     H   27373 27309B 27376
 $$$543F       2 00004552 00000001     H   27369 27353B
 $$$544B       4 0000455C 00000001     I   27394 27438
 $$$544E       2 00004556 00000001     H   27384 27378
 $$$544F       2 00004582 00000001     H   27435 27380B 27394B 27437
 $$$546F       2 00004582 00000001     H   27431 27415B
 $$$547E       2 00004586 00000001     H   27445 27439
 $$$547F       2 00004586 00000001     H   27450 27441B
 $$$548F       2 000045B0 00000001     H   27532 27481B 27494B
 $$$550F       2 000045B0 00000001     H   27528 27512B
 $$$551        1 00000570 00000001 A   U   27567 27564  27566
 $$$553B       1 0000467A 00000001     X   27659 27669U
 $$$554F       2 000046EE 00000001     H   27789 27718B
 $$$555F       2 000046DA 00000001     H   27741 27732B
 $$$556F       2 000046EC 00000001     H   27781 27757B
 $$$557        6 0000496C 00000001     I   27771 27763X
 $$$558        6 0000496C 00000001     I   27770 27771  27771
 $$$559        1 00000050 00000001 A   U   27814 27811  27813
 $$$561B       1 00004716 00000001     X   27843 27853U
 $$$562F       2 00004784 00000001     H   27938 27902B
 $$$563        1 00000050 00000001 A   U   27963 27960  27962
 $$$565B       1 000047AC 00000001     X   27992 28002U
 $$$566F       2 00004868 00000001     H   28255 28051B
 $$$567B       4 00004804 00000001     I   28068 28238
 $$$567F       2 00004860 00000001     H   28235 28068B 28237
 $$$568F       2 0000481C 00000001     H   28112 28088B
 $$$569        6 00004972 00000001     I   28102 28094X
 $$$570        6 00004972 00000001     I   28101 28102  28102
 $$$571F       2 00004840 00000001     H   28166 28138B 28151B
 $$$571S       2 00004826 00000001     H   28129 28165B
 $$$574F       2 0000485E 00000001     H   28227 28180B
 $$$575F       2 0000485E 00000001     H   28223 28199B
 $$$576        6 00004978 00000001     I   28213 28205X
 $$$577        6 00004978 00000001     I   28212 28213  28213
 $$$578E       2 00004864 00000001     H   28245 28239
 $$$578F       2 00004868 00000001     H   28251 28241B
 $$$579        1 00000050 00000001 A   U   28280 28277  28279
 $$$581B       1 00004890 00000001     X   28309 28319U
 $$$582        1 00000050 00000001 A   U   28383 28380  28382
 $$$584B       1 00004998 00000001     X   28458 28468U
 $$$585B       1 0000499A 00000001     X   28483 28493U
 $$$586B       4 000049AC 00000001     I   28516 28532
 $$$586F       2 000049B6 00000001     H   28528 28516B 28531
 $$$587E       2 000049BA 00000001     H   28539 28533
 $$$587F       2 000049C0 00000001     H   28548 28535B
 $$$588B       4 00004A3E 00000001     I   28713 28729
 $$$588F       2 00004A4A 00000001     H   28725 28713B 28728
 $$$589E       2 00004A4E 00000001     H   28736 28730
 $$$589F       2 00004A68 00000001     H   28770 28732B
 $$$590F       2 00004A68 00000001     H   28766 28753B
 $$$591        1 00000050 00000001 A   U   28866 28863  28865
 $$$593B       1 00004AB6 00000001     X   28897 28907U
 $$$594B       1 00004AB8 00000001     X   28922 28932U
 $$$597F       2 00004B3E 00000001     H   29123 28995B
 $$$598F       2 00004B34 00000001     H   29116 29059B
 $$$598T       2 00004B14 00000001     H   29062 29033B 29047B
 $$$60B        1 00000026 00000001     X    9498  9505U
1SIGN     (SIGN4072) (12:54) (15MAR04) Ordinary Symbol and Literal Cross Reference                                          Page   86
 $$$601F       2 00004B7E 00000001     H   29216 29159B
 $$$601T       2 00004B5E 00000001     H   29162 29147B
 $$$604F       2 00004B94 00000001     H   29258 29248B
 $$$605F       2 00004BA4 00000001     H   29282 29272B
 $$$61F        2 00000052 00000001     H    9564  9548B
 $$$610B       4 00004BB8 00000001     I   29338 29369
 $$$610F       2 00004BC6 00000001     H   29366 29338B 29368
 $$$612E       2 00004BCA 00000001     H   29376 29370
 $$$612F       2 00004BD4 00000001     H   29401 29372B
 $$$615F       2 00004CBA 00000001     H   29696 29588B
 $$$616F       2 00004C96 00000001     H   29626 29612B
 $$$617F       2 00004CA2 00000001     H   29645 29636B
 $$$618F       2 00004CB0 00000001     H   29684 29660B
 $$$619        6 00005780 00000001     I   29674 29666X
 $$$62F        2 00000060 00000001     H    9591  9576B
 $$$620        6 00005780 00000001     I   29673 29674  29674
 $$$623F       2 00004E98 00000001     H   30403 29856B
 $$$624F       2 00004E84 00000001     H   30368 29947B 29966B
 $$$624S       2 00004D50 00000001     H   29897 30365B
 $$$63F        2 00000086 00000001     H    9623  9614B
 $$$630B       4 00004D8C 00000001     I   30005 30020
 $$$630F       2 00004D96 00000001     H   30014 29990B 30005B 30017
 $$$631B       4 00004D82 00000001     I   29990 30018
 $$$632E       2 00004D9A 00000001     H   30027 30019  30021
 $$$632F       2 00004DF8 00000001     H   30164 30023B
 $$$633F       2 00004DF8 00000001     H   30160 30055B
 $$$633T       2 00004DAE 00000001     H   30058 30044B
 $$$635F       2 00004E50 00000001     H   30260 30186B 30201B
 $$$637F       2 00004E38 00000001     H   30238 30226B
 $$$638F       2 00004E5C 00000001     H   30291 30275B
 $$$64F        2 00000094 00000001     H    9662  9638B
 $$$646F       2 00005054 00000001     H   31072 30417B
 $$$647F       2 00004EB2 00000001     H   30450 30437B
 $$$648F       2 00004EC2 00000001     H   30474 30461B
 $$$649F       2 00004ED2 00000001     H   30498 30485B
 $$$65         6 000000D2 00000001     I    9652  9644X
 $$$650F       2 00004EDE 00000001     H   30523 30510B
 $$$651F       2 00004F22 00000001     H   30611 30533B
 $$$652F       2 00004F5C 00000001     H   30687 30628B
 $$$653F       2 00005028 00000001     H   31015 30700B
 $$$654F       2 00004F7E 00000001     H   30732 30719B
 $$$655F       2 00004F8E 00000001     H   30756 30743B
 $$$656F       2 00004F9E 00000001     H   30780 30767B
 $$$657F       2 00005028 00000001     H   31011 30866B
 $$$658F       2 00005006 00000001     H   30943 30881B
 $$$659F       2 00005028 00000001     H   31007 30968B
 $$$659T       2 00005016 00000001     H   30971 30958B
 $$$66         6 000000D2 00000001     I    9651  9652   9652
 $$$661F       2 00005048 00000001     H   31043 31028B
 $$$662F       2 000050E0 00000001     H   31238 31143B
 $$$663F       2 000050D0 00000001     H   31216 31202B
 $$$664F       2 000050EE 00000001     H   31263 31250B
 $$$665        1 00000050 00000001 A   U   31295 31292  31294
 $$$667B       1 00005150 00000001     X   31365 31375U
 $$$668F       2 00005188 00000001     H   31489 31407B 31421B 31442B 31456B 31476B
 $$$67F        2 000000B8 00000001     H    9739  9715B
 $$$673F       2 000051F6 00000001     H   31556 31540B
 $$$674F       2 0000522C 00000001     H   31620 31605B
 $$$676F       2 00005288 00000001     H   31740 31633B
1SIGN     (SIGN4072) (12:54) (15MAR04) Ordinary Symbol and Literal Cross Reference                                          Page   87
 $$$678F       2 0000529E 00000001     H   31770 31761B
 $$$679F       2 0000531A 00000001     H   31900 31886B
 $$$68         6 000000D8 00000001     I    9729  9721X
 $$$680F       2 00005328 00000001     H   31920 31911B
 $$$681F       2 00005334 00000001     H   31958 31934B
 $$$682        6 00005786 00000001     I   31948 31940X
 $$$683        6 00005786 00000001     I   31947 31948  31948
 $$$684F       2 0000535C 00000001     H   32016 32000B
 $$$685        1 00000248 00000001 A   U   32071 32068  32070
 $$$687B       1 0000543E 00000001     X   32161 32171U
 $$$688F       2 0000545E 00000001     H   32223 32193B 32207B
 $$$69         6 000000D8 00000001     I    9728  9729   9729
 $$$690        1 00000050 00000001 A   U   32248 32245  32247
 $$$70B        1 000000E0 00000001     X    9766  9776U
 $$$71F        2 00000106 00000001     H    9835  9793B
 $$$72F        2 00000102 00000001     H    9830  9815B
 $$$74F        2 00000220 00000001     H   10056 10043B
 $$$75F        2 0000022A 00000001     H   10075 10066B
 $$$78B        1 0000025A 00000001     X   10137 10147U
 $$$79F        2 000002D8 00000001     H   10301 10283B
 $$$80F        2 000002EC 00000001     H   10324 10313B
 $$$81F        2 00000330 00000001     H   10449 10393B
 $$$82F        2 00000602 00000001     H   11175 10468B 10486B 10593B
 $$$84F        2 0000037C 00000001     H   10541 10528B
 $$$88F        2 000003B8 00000001     H   10651 10642B
 $$$89F        2 000003CE 00000001     H   10708 10661B
 $$$90F        2 000003CE 00000001     H   10704 10680B
 $$$91         6 00000870 00000001     I   10694 10686X
 $$$92         6 00000870 00000001     I   10693 10694  10694
 $$$95F        2 0000054E 00000001     H   11003 10904B
 $$$96F        2 00000540 00000001     H   10979 10966B
 $$$97F        2 0000054A 00000001     H   10998 10989B
 $$$98F        2 0000057C 00000001     H   11050 11018B
 $$$99F        2 0000057C 00000001     H   11046 11033B
 @RAR          0 00000000 FFFFFFF0     @    1138  2164   2172B
 @R0           0 00000000 FFFFFFFE     @     706   982U
 @R1           0 00000000 FFFFFFFD     @     719   978U  2170   2171   9651  10693  10903  11254  14219  14232  14912
                                                 15937  16637U 17152  17726  20414U 20538U 23019  23271  25205  25438
                                                 25857  27770  28101  28150  28212  29673  31947
 @R10          0 00000000 FFFFFFF4     @     836   942U
 @R11          0 00000000 FFFFFFF3     @     849   938U
 @R12          0 00000000 FFFFFFF2     @     862   934U
 @R13          0 00000000 FFFFFFF1     @     875   930U 15718  15737  15746
 @R14          0 00000000 FFFFFFF0     @     888   926U  9887M  9887  10717M 10717  11278M 11278  25098M 25098  27170M
                                                 27170
 @R15          0 00000000 FFFFFFEF     @     901   922U  9698U 10236U 10378U 10444U 11574U 13961  13974  13995  14008
                                                 14029  14042  14051  16224U 16349U 17965U 18141U 18202U 18602U 20561
                                                 20585  20611  20771U 21449U 21474  21502U 21600U 21625  21653U 23080U
                                                 23316  23349  23403  23465  23498  23552  23614  23647  23701  23763
                                                 23796  23850  26725U 26819U 28601U 29087U 29187U 29271  30247U 30668U
                                                 31809U
 @R2           0 00000000 FFFFFFFC     @     732   974U 22510U 25072U 25351U 29703U
 @R3           0 00000000 FFFFFFFB     @     745   970U 20578M 20593  22566  22667U 22704
 @R4           0 00000000 FFFFFFFA     @     758   966U  9651M  9728  16176U 21925U 22247U 22549U 22687U 24266  24277
                                                 24353  29260  29409U
 @R5           0 00000000 FFFFFFF9     @     771   962U 18646U 22290U 30388U
 @R6           0 00000000 FFFFFFF8     @     784   958U 15355U 15560U 17036U 18544U 22283U 22419  26991U 28392U 31304U
                                                 32043U
 @R7           0 00000000 FFFFFFF7     @     797   954U  9773U 10144U 10162U 11583U 11828U 12063U 13799U 14312U 14373U
1SIGN     (SIGN4072) (12:54) (15MAR04) Ordinary Symbol and Literal Cross Reference                                          Page   88
                                                 14434U 14495U 14556U 14725U 14791U 14854U 14919U 15019U 15118U 15335U
                                                 18429U 18447U 18767U 19668U 19765U 22261U 22404U 22739U 22794U 23099U
                                                 23177U 23931U 23984U 24477U 24589U 24715U 24774U 24928U 25021U 25277U
                                                 25330U 25633U 25685U 25887U 25949U 26059U 26115U 26180U 26317U 26346U
                                                 26400U 26846U 26940U 26968U 27086U 27553U 27666U 27800U 27850U 27949U
                                                 27999U 28266U 28316U 28369U 28465U 28490U 28852U 28904U 28929U 31281U
                                                 31372U 32057U 32168U 32234U
 @R8           0 00000000 FFFFFFF6     @     810   950U 23922U 26837U 27544U 32048U
 @R9           0 00000000 FFFFFFF5     @     823   946U
 ABSCENT       1 00000000 00000000 A   T    2180  2180
 ACCTPSHC      1 00000000 0000005A     T   32106 32106
 ACCTPSHL      1 00000000 0000000A     T   11646 11646  11725
 ACTRCVY       1 00000000 0000005D     T   32267 32267
 ACTRESET      1 00000000 00000049     T   26214 26214  32266
 AHLHEAD       1 00000000 00000000 A   T    7714  7714
 AHLVCCR8      1 00000000 00000000 A   T    8205  8205
 ASCTBL        1 00000000 00000000 A   T    2188  2188
 ASMVT         1 00000000 00000000 A   T    8094  8094
 AUTCMD        2 00002532 00000001     H   18556 17053B 17164B
 BILLCHK       1 00000000 00000052     T   26227 26227
 BLTBL         1 00000000 00000000 A   T    2190  2190
 BR            7 00000007 00000001 A   #    1028 11794M 12029M 12407M 13835M 14345M 14406M 14467M 14528M 14589M 14758M
                                                 14824M 14887M 14952M 15052M 15153M 18755M 19753M 22392M 22782M 23165M
                                                 23972M 24577M 24762M 25009M 25318M 25673M 25937M 26103M 26305M 26388M
                                                 26928M 27074M 27654M 27838M 27987M 28304M 28453M 28892M 31360M 32156M
 BTD           1 00000000 0000005E     T   32275 32275
 CBBRANCH      1 00000000 00000000 A   T    8250  8250
 CHECKIOB      1 00000000 00000000 A   T    2236  2236
 CHECKSET      1 00000000 00000026     T   18674 18674  26226  32310
 CHKAEXIT      2 00003314 00000001     H   22253 19888B 19911B
 CHKECHO       2 00001664 00000001     H   14938 11946
 CHKFOLIO      2 000014F6 00000001     H   14453 11886
 CHKHELP       2 00000F2C 00000001     H   12393 12106  12121  12136
 CHKKEY        2 0000162E 00000001     H   14873 11991
 CHKMED        2 0000149A 00000001     H   14331 11856
 CHKNECHO      2 0000169C 00000001     H   15038 11961
 CHKPRISM      2 00001524 00000001     H   14514 11901
 CHKPRNTR      2 00001552 00000001     H   14575 11916
 CHKPRT        1 00000000 0000001C     T   15393 15393
 CHKSOC        2 000014C8 00000001     H   14392 11871
 CHKSPAC     235 00000000 FFFFFFDA     C   23135 23271M 23283  24512
 CHKSPID       2 00003764 00000001     H   23149 15391  28414
 CHKSPWA     235 00000000 FFFFFFDA     J   23142 23162  23194U 23942  23944  23945
 CHKTDONE      2 0000148C 00000001     H   14305 13903B 14176B 14187B 14265B 14289B
 CHKTRM        2 00001354 00000001     H   13821 11706  11770
 CHKTRMID      2 000013A8 00000001     H   13909 13887B
 CHKTTYPE      1 00000000 00000017     T   15385 15385  18679
 CHKUID        2 0000143C 00000001     H   14181 13923B 13943B 13964B 13977B 13998B 14011B 14032B 14045B
 CHKWEXIT      2 00003756 00000001     H   23091 22933B 23022B
 CHKWORD       2 00003660 00000001     H   22768 11611
 CKACCT        2 00002C4E 00000001     H   19739 11609
 CLOAKED       2 000015D6 00000001     H   14744 11931
 CLRACTS       1 00000000 00000058     T   28405 28405
 CLRHCMDS      1 00000000 00000063     T   32283 32283
 CLRPSH        1 00000000 00000055     T   26893 26893
 COLLPSH       1 00000000 0000005B     T   32121 32121
 COMMAND       1 00000000 00000000 A   T    2176  2176
 COMMSEG       1 00000000 00000000 A   T    2177  2177
 CP         4096 00000000 FFFFFFEC     J    6190  1165U 24649M 24798  24877M 25045
1SIGN     (SIGN4072) (12:54) (15MAR04) Ordinary Symbol and Literal Cross Reference                                          Page   89
 CP#XSTK       1 00000010 FFFFFFEC A   U    3922  3923
 CPACCTSV      5 000001B8 FFFFFFEC     C    2708 16090M 31777M
 CPACFLG       1 000005D5 FFFFFFEC     R    4025  4029   4034   4039   4044   4049
 CPACFLN       4 000005C4 FFFFFFEC     F    4017  4052   4052
 CPACHCT       4 000005B4 FFFFFFEC     F    3982 25537M 25537
 CPACLNO       4 000005A8 FFFFFFEC     F    3979 25487M
 CPAFLAG       1 000005C3 FFFFFFEC     R    3989  3993   3998   4003   4008
 CPAFNAME    128 0000062C FFFFFFEC     C    4063 25519
 CPAFNAMEL
               4 00000628 FFFFFFEC     F    4062 25524  25529M
 CPANAME       8 00000588 FFFFFFEC     C    3971  4067   4067  25485M
 CPAR          1 000001F9 FFFFFFEC     X    2725 20225M 31820M
 CPATTEXT      4 0000056C FFFFFFEC     F    3955 18469M 18469  28751  28969
 CPATYPE       8 00000590 FFFFFFEC     C    3972 25486M
 CPAUTFLG      1 000008A9 FFFFFFEC     R    4335  4339   4344   4349   4354
 CPAUTHID    128 00000B80 FFFFFFEC     C    4971 20468M 20468  27042  27205M 27205  27493M 27493  28073M 28101M 28419
 CPCACCT       5 00000C48 FFFFFFEC     C    5000  9781M  9792M  9792  10125M 10125  10319M 10333M 10333  10498M 10498
                                                 14182  14366M 14427M 14488M 14549M 15460  15798  18210M 21868  22177
                                                 22497  22653  23045M 23045  23322M 23471M 23620M 23769M 27212M 27212
                                                 27267M 27267  27339  27364M 27364  27401  27426M 27426  27480M 27480
                                                 27523M 27523  31539M 31539  31579  31776  31777  31801  32212M
 CPCGRP        2 00000C4B FFFFFFEC     C    5002 10101M 10101  11162M 11162  11492M 11492  19808  19995  20000  20583
                                                 20827  20832  21043  21048  21704  21709  21972  21977  31666  31671
 CPCHFLAG      1 00000B68 FFFFFFEC     R    4962  4966  11514M
 CPCLCK        8 00000338 FFFFFFEC     D    2819 30200
 CPCMD       235 00000242 FFFFFFEC     C    2815  9728M  9904   9986  10693M 10734  10814  11254M 11295  11377  17152M
                                                 17726M 18613  20577  20578  20578  20581M 20582M 20583M 20584M 20585M
                                                 20593M 22325  27924  27929  29014M 29015M 29107  29112M 29128M 29129M
                                                 29207  29212M 29402M 29440
 CPCMDLEN      2 00000240 FFFFFFEC     H    2814  9701M  9814M  9814   9908   9990  10652M 10738  10818  11213M 11299
                                                 11381  17124M 17698M 18617  20574  20580M 20592M 25089M 25089  27274M
                                                 27274  27934M 29118M 29412M 29444
 CPCMDRTN      4 00000340 FFFFFFEC     A    2821 18405M
 CPCMNM        3 00000D24 FFFFFFEC     C    5288 18406M 26329M 26768M 26785  29429M
 CPCPLEN       2 000007FE FFFFFFEC     H    4206 25410M 25561M 25561
 CPCPRMT      62 00000800 FFFFFFEC     C    4207 25438M
 CPCUSER       3 00000C48 FFFFFFEC     C    5001 10088M 10088  11149M 11149  11479M 11479  19809  20041  20046  20584
                                                 20873  20878  21089  21094  21750  21755  22018  22023  31712  31717
 CPDATA       32 00000504 FFFFFFEC     X    3905 25979  26019  26150
 CPDATANL      1 00000020 FFFFFFEC A   U    3906 26020
 CPDELTA       4 00000738 FFFFFFEC     F    4074 25453M
 CPDFLG        1 0000084C FFFFFFEC     R    4222  4226   4231   4236   4241   4246
 CPDFLG2       1 0000084D FFFFFFEC     R    4251  4255   4260   4265   4270   4275   4280
 CPDOUB        8 00000C88 FFFFFFEC     D    5208 14051M 14058  17818M 17819
 CPEXABRT      4 00000898 FFFFFFEC     F    4324 25502M 25502
 CPEXATTN      4 0000089C FFFFFFEC     F    4325 25495M 25495
 CPEXEC       32 000004A4 FFFFFFEC     X    3896 25964  25995  26135
 CPEXFLG       1 00000758 FFFFFFEC     R    4091  4095
 CPEXFLG2      1 00000759 FFFFFFEC     R    4101  4110   4120
 CPEXFLG3      1 0000075A FFFFFFEC     R    4127  4131   4136
 CPEXLINE      4 0000075C FFFFFFEC     F    4144 25488M
 CPEXTFLG      1 00000E28 FFFFFFEC     R    5773  5777   5782   5787   5792   5797   5802
 CPFABORT    128 00000D5A FFFFFFEC         5539  2140M  2140   2145M  2145
 CPFACTSV      1 00000001 FFFFFFEC A   U    3565 30272
 CPFAUSE     128 000008A9 FFFFFFEC         4339 18412M 18458M
 CPFCASE      32 00000D57 FFFFFFEC         5479 10267M
 CPFCLEAR     16 00000D55 FFFFFFEC         5419 29735M
 CPFCMDFX      1 00000040 FFFFFFEC A   U    3575 29426
 CPFDUMP     128 00000D55 FFFFFFEC         5404 31027
1SIGN     (SIGN4072) (12:54) (15MAR04) Ordinary Symbol and Literal Cross Reference                                          Page   90
 CPFERROR     64 00000D5A FFFFFFEC         5544  2139M  2139   2144M  2144
 CPFFLAT     128 00000B68 FFFFFFEC         4966 20210M 21547M
 CPFGREET     64 000008A9 FFFFFFEC         4344  9803M 10115M 18788  19652M
 CPFLMSG      16 000008A9 FFFFFFEC         4354 10296  10296  10297M 24005  24462M
 CPFLOW       32 000004C4 FFFFFFEC     X    3899 25969  26003  26140
 CPFNPARM      4 00000477 FFFFFFEC         3614 25508M
 CPFNPAU     128 00000C7D FFFFFFEC         5167 26745M
 CPFNTEX       1 00000040 FFFFFFEC A   U    5391  5392
 CPFNWARN      4 00000D55 FFFFFFEC         5429 29739M
 CPFRCVY      64 00000474 FFFFFFEC         3541 29005M 30399M
 CPFRDRNG      1 00000D88 FFFFFFEC     R    5659  5663   5668   5673   5678   5683   5688   5693
 CPFRDSRC      1 00000D89 FFFFFFEC     R    5698  5707   5717   5727
 CPFSEC       32 00000474 FFFFFFEC         3546 17026M 25594M
 CPFSGNCM     64 0000047C FFFFFFEC         3763  9826M 14717M 16280  17050  27281M 27912M
 CPFSGNML    128 0000047C FFFFFFEC         3757  9587M 16195
 CPFSYSMV      8 00000474 FFFFFFEC         3556 16319M 26695M 29813
 CPFUNUM       1 00000080 FFFFFFEC A   U    5390  5392
 CPFUPPER     16 00000D57 FFFFFFEC         5484 10272M
 CPFVER       32 00000D58 FFFFFFEC         5504 17972M 18209M
 CPFWORD      32 000008A9 FFFFFFEC         4349 10296  10296  10467  10914M 19958  20272  20326M 21006  22830
 CPFXDFLG      1 000007E4 FFFFFFEC     R    4169  4173   4178
 CPGETSTK      4 00000864 FFFFFFEC     F    4306 24879  25229M
 CPGFCPR     128 00000474 FFFFFFEC         3536 25387M
 CPGFLGS      16 00000474 FFFFFFEC     X    3886 25358M 25358
 CPGFLG1       1 00000474 FFFFFFEC     R    3532  3536   3541   3546   3551   3556   3886   3886
 CPGFLG10      1 0000047D FFFFFFEC     R    3769  3773   3778   3783   3788   3793   3798
 CPGFLG11      1 0000047E FFFFFFEC     R    3804  3808   3813
 CPGFLG12      1 0000047F FFFFFFEC     R    3819  3823   3828   3833
 CPGFLG13      1 00000480 FFFFFFEC     R    3839  3843
 CPGFLG14      1 00000481 FFFFFFEC     R    3849  3853   3858   3863   3868   3873
 CPGFLG2       1 00000475 FFFFFFEC     R    3562 30274
 CPGFLG3       1 00000476 FFFFFFEC     R    3572 29428M
 CPGFLG4       1 00000477 FFFFFFEC     R    3585  3596   3605   3614   3623   3632
 CPGFLG5       1 00000478 FFFFFFEC     R    3638  3642   3647   3652   3657   3662   3667   3672   3677
 CPGFLG6       1 00000479 FFFFFFEC     R    3683  3687   3692   3697
 CPGFLG7       1 0000047A FFFFFFEC     R    3703  3707   3712   3717   3722
 CPGFLG8       1 0000047B FFFFFFEC     R    3728  3732   3737   3742   3747
 CPGFLG9       1 0000047C FFFFFFEC     R    3753  3757   3763   9534M 25071  25081M 25350  25360M
 CPGFNATN      8 00000478 FFFFFFEC         3662 25567M
 CPGFNLST      1 00000477 FFFFFFEC         3632 25462M
 CPGFWR       32 00000478 FFFFFFEC         3652  9673M
 CPHCMDMX      2 0000086C FFFFFFEC     H    4311 25455M
 CPINIT        1 00000174 FFFFFFEC     U    2702  6159  25073
 CPINITL       1 00000E8C FFFFFFEC A   N    6159 26240
 CPJESFLG      1 000009E1 FFFFFFEC     R    4434  4438   4443   4448   4453   4458   4463   4468   4473
 CPJESFLY      1 000009FD FFFFFFEC     R    4484  4488   4493   4498
 CPJESHFL      1 000009E0 FFFFFFEC     R    4419  4423   4428   4507   4507
 CPJFFRCE      8 000009E1 FFFFFFEC         4458 25476M
 CPJNO         2 00000A0A FFFFFFEC     H    4505 25477M
 CPLACCT       5 00000458 FFFFFFEC     C    3517 31766M 32192M 32192  32206  32212  32219M 32219
 CPLCOL        2 00000C50 FFFFFFEC     H    5005 10249M 25452M
 CPLENGTH      2 0000087E FFFFFFEC     H    4319 25454M
 CPLFLG10      1 00000D59 FFFFFFEC     R    5525  5529
 CPLFLG11      1 00000D5A FFFFFFEC     R    5535  5539   5544   5549   5554
 CPLFLG12      1 00000D5B FFFFFFEC     R    5560  5564
 CPLFLG14      1 00000D5C FFFFFFEC     R    5570  5574   5579   5584   5589   5594
 CPLFLG6       1 00000D55 FFFFFFEC     R    5400  5404   5409   5414   5419   5424   5429
 CPLFLG7       1 00000D56 FFFFFFEC     R    5435  5439   5444   5449   5454   5459
 CPLFLG8       1 00000D57 FFFFFFEC     R    5465  5469   5474   5479   5484
1SIGN     (SIGN4072) (12:54) (15MAR04) Ordinary Symbol and Literal Cross Reference                                          Page   91
 CPLFLG9       1 00000D58 FFFFFFEC     R    5490  5494   5499   5504   5509   5514   5519
 CPLGFSYS      8 00000164 FFFFFFEC     C    2699 16320M 26696M 30699M 30699
 CPLGNCT       2 0000087C FFFFFFEC     H    4317 10392  11506  11507M 20099  20100M
 CPLIB         8 000008AB FFFFFFEC     C    4393 25509M
 CPLIMIT       2 000007E0 FFFFFFEC     H    4164 25456M
 CPLOCALZ      1 00000C48 FFFFFFEC     U    4992  6153   6153
 CPMFLG        1 0000084F FFFFFFEC     R    4289  4293
 CPMODFLG      1 00000C78 FFFFFFEC     R    5020  5024   5029   5034   5039   5044
 CPNAME       20 00000174 FFFFFFEC     C    2703 15501M
 CPNAMELN      1 00000010 FFFFFFEC A   U    3915  4162
 CPNEDPFX     10 00000E29 FFFFFFEC     X    5806  5807   5808
 CPNSCAN     176 00000090 FFFFFFEC     X    2576  9881  10711  11272  25092
 CPNSCANP      4 0000008C FFFFFFEC     A    2575  9882M  9886   9910   9919   9926   9941   9950   9992  10001  10008
                                                 10024  10712M 10716  10740  10749  10756  10771  10780  10820  10829
                                                 10836  10851  10890  10924  10931  10947  11007  11062  11069  11085
                                                 11273M 11277  11301  11310  11317  11332  11341  11383  11392  11399
                                                 11415  13858  14240  14612  14672  14910  18398  22952  22961  22968
                                                 22983  23006  25093M 25097  26441  26448  26464  27135  27169  27191
                                                 27217  27224  27240  27680  27687  27702  27864  27871  27886  27915
                                                 28013  28020  28035  28330  28337  28352  31493  31500  31516
 CPNUMFLG      1 00000C79 FFFFFFEC     R    5050  5062
 CPOERRID      8 0000088E FFFFFFEC     C    4322 10256M 10256  11177M 25484M 25484
 CPORGSYS      8 0000015C FFFFFFEC     C    2698  9592M 26529M 26529  26594  26620  26625  26696
 CPORVCMD      1 00000140 FFFFFFEC     R    2584  2588   2593   2598   2603   2608   2613   2618   2623   2628   2628
                                                  2679   2679
 CPORVFLG      1 00000149 FFFFFFEC     R    2635  2639   2644   2649   2654   2659   2664   2669   2674
 CPORVWF       1 00000150 FFFFFFEC     R    2687  2691
 CPORVYL       8 000008BC FFFFFFEC     C    4399 15525M 15543M 15746M 15779  15786M
 CPOSCANX      4 00000CA8 FFFFFFEC     F    5219  5286   5286
 CPPOOL        8 00003CA0 00000001     D   24946 24628  24904
 CPR          11 0000000B 00000001 A   #    1092  1165U 24610M 24610  24633M 24903  24913M 24913
 CPRACBAD     16 000001FC FFFFFFEC         2753  2787   2787   2788   2788
 CPRACF1       1 000001FC FFFFFFEC     R    2734  2738   2743   2748   2753   2758   2763   2768   2773   2789
 CPRACPSW     32 000001FC FFFFFFEC         2748  2786   2786   2788   2788
 CPRACUND     64 000001FC FFFFFFEC         2743  2786   2786   2787   2787
 CPRCV         8 00000730 FFFFFFEC     X    4072 28994M 28994
 CPRCVCUR      4 00000730 FFFFFFEC     A    4070  4072   4072  29218  29283M
 CPRCVEND      4 00000734 FFFFFFEC     A    4071 29013M 29230  29254
 CPRFLG        1 000008AA FFFFFFEC     R    4360  4364   4369   4374   4379   4384   4389
 CPRG16       32 00000524 FFFFFFEC     X    3909 25984  26028  26155
 CPRG16NL      1 00000010 FFFFFFEC A   U    3913 26029
 CPRG64       32 00000544 FFFFFFEC     X    3912 25989  26036  26160
 CPRG64NL      1 00000040 FFFFFFEC A   U    3914 26037
 CPRSCNVL      2 000008B8 FFFFFFEC     H    4396 25538M
 CPS         254 00000344 FFFFFFEC     X    3504  3507   3508   3510   3510  16083  25857M 26229
 CPSACCT       5 000003B4 FFFFFFEC     C    3103  3266   3266   9781  10312M 10312  10319  15460M 15604  15798M 16090
                                                 16106  18210  20238M 20238  23050M 23050  25722M 25722  29030  29044
                                                 29058  29144  29158  30318  30338  30509M 30509  30627M 30627  31127M
                                                 31127  31406  31420  31439  31453  31473  31760  31766  31776M 31970
 CPSAMCOD      1 00000A22 FFFFFFEC     R    4556  4564   4574   4584   4593   4602   4611   4621   4630   4639
 CPSAMFLG      1 00000A21 FFFFFFEC     R    4516  4520   4525   4530   4535   4540   4545   4550   4661   4661
 CPSANO        2 000003B9 FFFFFFEC     X    3106 16107  22158  22178  31783  31802
 CPSASCBP      4 000003C0 FFFFFFEC     A    3265 15670
 CPSCNFLG      1 00000CD0 FFFFFFEC     R    5232  5243   5252   5263  10921M 18388M
 CPSCNF2       1 00000CD1 FFFFFFEC     R    5268  5272
 CPSCNMAX      1 00000014 FFFFFFEC A   U    5284  5285
 CPSCRI        2 00000434 FFFFFFEC     H    3493  3498   3498
 CPSEG        60 00000050 FFFFFFEC     X    2573 10411  10561  12472  12490  12508  12533  12551  12569  12594  12619
                                                 12637  12662  12680  12698  12723  12741  12766  12784  12802  12827
1SIGN     (SIGN4072) (12:54) (15MAR04) Ordinary Symbol and Literal Cross Reference                                          Page   92
                                                 12845  12863  12888  12913  12931  12956  12981  12999  13017  13042
                                                 13060  13085  13110  13135  13175  13193  13211  13229  13254  13279
                                                 13297  13315  13333  13351  13369  13387  13405  13423  13441  13459
                                                 13477  13495  13513  13538  13556  13574  13592  13610  13628  13646
                                                 13664  13689  13707  13732  13757  13782  14648  15209  15227  15245
                                                 15263  15281  15317  15809  15852  16032  16586  16604  16622  16649
                                                 16667  16685  16703  16739  16759  16777  16855  16873  16898  16923
                                                 17217  17251  17285  17321  17395  17413  17476  17494  17542  17560
                                                 17623  17641  17684  17747  18017  18246  18280  18488  18525  18568
                                                 18837  18859  18887  18905  18933  18958  18983  19025  19078  19096
                                                 19124  19177  19205  19258  19286  19339  19367  19405  19423  19448
                                                 19466  19484  19509  19527  19561  19586  19611  19636  19906  19980
                                                 20008  20026  20054  20072  20700  20735  20758  20812  20840  20858
                                                 20886  20904  20932  20950  21028  21056  21074  21102  21204  21222
                                                 21282  21305  21323  21344  21362  21417  21689  21717  21735  21763
                                                 21957  21985  22003  22031  22049  22086  22104  22877  24039  24064
                                                 24089  24157  24187  24229  24310  24340  24384  24444  24684  24699
                                                 25128  25737  25772  26548  26573  26633  26651  26676  29467  29495
                                                 29513  29541  30574  30603  30800  30825  30850  30899  30917  30935
                                                 30999  31064  31178  31651  31679  31697  31725  31834  31862
 CPSEGBP       4 00000048 FFFFFFEC     A    2482 24663M 24834  24864M 24864
 CPSEGBSZ      2 0000004C FFFFFFEC     H    2483 24662M 24676  24841  24869M 24869
 CPSEGCOD      1 00000050 FFFFFFEC     R    2490  2499   2509   2519   2529   2539   2549   2559
 CPSEGDF#      1 00001000 FFFFFFEC A   U    2480 24975
 CPSEGLENF
               4 0000005C FFFFFFEC     A    2565 17697  24857M 24857
 CPSEGLOC      4 00000070 FFFFFFEC     A    2569 17699  24852M 24852
 CPSFE         8 0000034C FFFFFFEC     C    2833 16408  18874  18879  30041M 30041  30098  30103
 CPSFKL       16 0000038F FFFFFFEC         3066 30484
 CPSFL         1 00000384 FFFFFFEC     R    2841  2845   2850   2855   2860   2865
 CPSFLG        1 000003F8 FFFFFFEC     R    3381  3385   3390   3395   3400   3405   3410   3415   3420
 CPSFLG2       1 000003F9 FFFFFFEC     R    3426  3430   3435   3440
 CPSFL2        1 00000385 FFFFFFEC     R    2871  2875   2880   2885   2890
 CPSFL3        1 00000386 FFFFFFEC     R    2896  2900   2905   2910
 CPSFL4        1 00000387 FFFFFFEC     R    2916  2920   2925   2930
 CPSFL5        1 00000388 FFFFFFEC     R    2936  2940   2945   2950
 CPSFMT        4 0000038F FFFFFFEC         3076 30460
 CPSFNECH      1 000003F8 FFFFFFEC         3420 14985M 15084M
 CPSFNST     128 000003BC FFFFFFEC         3149 30742
 CPSFOPR      16 000003BE FFFFFFEC         3211 19887M 20291  20291
 CPSFSAM      64 000003EA FFFFFFEC         3287 30880
 CPSFSPR      32 000003BE FFFFFFEC         3206 20291  20291  20292  22930
 CPSFSTOP    128 00000387 FFFFFFEC         2920 26761
 CPSFTEL      64 00000385 FFFFFFEC         2880 30955
 CPSFTO        8 0000038F FFFFFFEC         3071 30436
 CPSFTYM      32 00000385 FFFFFFEC         2885 30967
 CPSFUPL     128 000003F8 FFFFFFEC         3385 15997M
 CPSGRP        2 000003B7 FFFFFFEC     C    3105 17301  28646  28651  29482  29487  29887
 CPSIB       256 00000344 FFFFFFEC     X    3510 25205M 26211  29673M 32280
 CPSIDMAX      2 0000042E FFFFFFEC     H    3488  9858M  9858  20222M
 CPSINFO     128 00000344 FFFFFFEC     X    3267 15937M 18673  31947M 32319
 CPSKAFL       1 000003BF FFFFFFEC     R    3237  3241   3246   3251   3256   3261   9848M 20221M 31813M
 CPSKIFL       1 000003BE FFFFFFEC     R    3192  3196   3201   3206   3211   3216   3221   3226   3231   9843M 20220M
                                                 31812M
 CPSLCLCK      8 000003AC FFFFFFEC     X    3101 30185M 30185  30200  30207  30210
 CPSNAME      20 000003C6 FFFFFFEC     C    3273 10348M 10348  10513M 10513  14249  14256  15512M 15512  15519M
 CPSOF         1 000001F8 FFFFFFEC     X    2724  2726   2726  20224M 31819M
 CPSOFLAG      1 00000416 FFFFFFEC     R    3451  3455   3460   3465   3470   3475
 CPSOPST       4 000003C4 FFFFFFEC     F    3271  3500   3500
1SIGN     (SIGN4072) (12:54) (15MAR04) Ordinary Symbol and Literal Cross Reference                                          Page   93
 CPSOPT      126 000003C4 FFFFFFEC     X    3500 16019  16024
 CPSPFL        1 00000444 FFFFFFEC     X    3512 20109M
 CPSPLOC      20 00000370 FFFFFFEC     C    2837 29989M 29989  30004  30010
 CPSPORT       8 00000354 FFFFFFEC     C    2835  2955   2955  18920  18925  30054M 30054  30139  30144
 CPSPROJ       8 000003F0 FFFFFFEC     C    3377 10343M 10343  10508M 10508  15575  15588M 15588  23376M 23403M 23525M
                                                 23552M 23674M 23701M 23823M 23850M 24516
 CPSQFLG       1 000003EC FFFFFFEC     R    3300  3304
 CPSSESS      16 000003B4 FFFFFFEC     X    3266 15839  15844  25748M 25748  25759  25764  31154M 31154  31165  31170
                                                 31849  31854
 CPSSFLG       1 000003BB FFFFFFEC     R    3110  3114   3119   3124   3129   3134   3139
 CPSSFNAR     64 000003BB FFFFFFEC         3119 14702  14702  14703  14703  14705M 16153  20355M 22142M 22224  28712
                                                 28950
 CPSSFNAT    128 000003BB FFFFFFEC         3114 14702  14702  14704  14704  17069  17762
 CPSSFPRT      4 000003BB FFFFFFEC         3139 14692M 30766
 CPSSFPS      32 000003BB FFFFFFEC         3124 14703  14703  14704  14704  14784M 16127  16515  20120  21794  22198
                                                 22444  22600  22845  29855
 CPSSFSEC      8 000003BB FFFFFFEC         3134 14711M 25582
 CPSSTART      4 00000344 FFFFFFEC     F    2827  2831   2831   3267   3267   3372   3372   3504   3504
 CPSSTAT       1 0000038F FFFFFFEC     R    3047  3051   3056   3061   3066   3071   3076   3081
 CPSTACF       1 000003BC FFFFFFEC     R    3145  3149   3154   3159   3164   3169   3174   3179   3184   9853M 11521M
                                                 20107M
 CPSTART       4 00000000 FFFFFFEC     C    2463  6157   6161
 CPSTASYN      2 0000038C FFFFFFEC         2979 18817
 CPSTCLS       8 000003E2 FFFFFFEC     C    3275 16490M 16490
 CPSTCONS      1 0000038C FFFFFFEC         2969 10282  15984  19832  19875  20086  25549
 CPSTFLAG      1 000003EA FFFFFFEC     R    3278  3282   3287   3292
 CPSTID        8 000003DA FFFFFFEC     C    3274 13920M 13920  14058M 14070  14111  14134
 CPSTPDP       3 0000038C FFFFFFEC         2989 14088  18805
 CPSTTYPE      8 0000041E FFFFFFEC     C    3483 14095M 14118M 14141M 16370M 16370  16392M 16415M 16435M 16435  16441
                                                 16485M 16485
 CPSTVIRT      5 0000038C FFFFFFEC         3009 15664
 CPSTVTAM      4 0000038C FFFFFFEC         2999 16385
 CPSTYPE       1 0000038C FFFFFFEC     R    2960  2969   2979   2989   2999   3009   3019   3029   3039
 CPSUC         2 000003C4 FFFFFFEC     H    3272  9691  16007  16008M 16083M 16083  29692
 CPSUFLG       1 000003EE FFFFFFEC     R    3315  3319   3324   3329   3334   3339   3344   3349   3354
 CPSUFLG2      1 000003EF FFFFFFEC     R    3360  3364   3369
 CPSUSER       3 000003B4 FFFFFFEC     C    3104 28686  28691  29528  29533  29888
 CPSVPGM       8 0000039C FFFFFFEC     C    3093  3099   3099
 CPSYS         8 00000154 FFFFFFEC     C    2697  9547   9560M  9560   9575M  9575   9592  31224M 31224
 CPS1ST        4 0000038C FFFFFFEC     F    2957  3502   3502
 CPTEMPP#      1 0000005F FFFFFFEC A   U    4410  4412
 CPTEXT       32 00000484 FFFFFFEC     X    3893 26130  28515M 28515
 CPTRMFL1      1 00000C7A FFFFFFEC     R    5068  5072   5077   5082   5206   5206
 CPTRMFL2      1 00000C7B FFFFFFEC     R    5088  5092   5097   5102   5107   5112   5117
 CPTRMFL3      1 00000C7C FFFFFFEC     R    5123  5127   5132   5137   5142   5147   5152   5157
 CPTRMFL4      1 00000C7D FFFFFFEC     R    5163  5167   5172   5177   5182   5187   5192   5197
 CPUID        32 00000198 FFFFFFEC     C    2706 15602M 15602  15613  15618  15633M 15633  15646M 15646  31968M 31968
                                                 31979  31984  31999M 31999  32012M 32012
 CPUSED        1 00000FBC FFFFFFEC A   U    6157  6158
 CPVACURS      8 00000AF0 FFFFFFEC     D    4935  4936   4937
 CPVARS       32 000004E4 FFFFFFEC     X    3902 25974  26011  26145
 CPVCURS       8 00000AE0 FFFFFFEC     D    4929  4930   4931
 CPVFLAG       1 00000AC8 FFFFFFEC     R    4730  4734   4739   4744   4749   4754
 CPVFLAG2      1 00000AC9 FFFFFFEC     R    4760  4764   4769   4774   4779   4784   4789
 CPVFLAG3      1 00000ACA FFFFFFEC     R    4795  4799   4804   4809   4814   4819   4824
 CPVFLAG4      1 00000ACB FFFFFFEC     R    4830  4834   4839   4844
 CPVFWRAP    128 00000ACA FFFFFFEC         4799 25469M
 CPVLFLAG      1 00000ACE FFFFFFEC     R    4899  4903   4908   4913
 CPVMARG       2 00000B52 FFFFFFEC     H    4946 25463M
1SIGN     (SIGN4072) (12:54) (15MAR04) Ordinary Symbol and Literal Cross Reference                                          Page   94
 CPVMODE       1 00000ACC FFFFFFEC     R    4852  4856   4861   4866   4871   4876   4881   4886   4891
 CPVOLUME      6 00000880 FFFFFFEC     C    4320 29012M 29012
 CPVTWID       2 00000AD0 FFFFFFEC     H    4919  4922   4922
 CPVWCHAR      1 00000ACD FFFFFFEC     C    4895 25470M
 CPWCHAR      16 00000448 FFFFFFEC     C    3515 25451M 26205
 CPWK1         4 00000D60 FFFFFFEC     F    5603  5618   5641
 CPWK2         4 00000D64 FFFFFFEC     F    5604  5619   5633
 CPWK3         4 00000D68 FFFFFFEC     F    5605  5620   5634
 CPWK4         4 00000D6C FFFFFFEC     F    5606  5621   5635
 CPWK5         4 00000D70 FFFFFFEC     F    5607  5623   5628   5636
 CPWK6         4 00000D74 FFFFFFEC     F    5608  5624   5629   5637   5644   5646
 CPWK7         4 00000D78 FFFFFFEC     F    5609  5622   5638
 CPWRNCNT      2 000008B6 FFFFFFEC     H    4395 25530M
 CPXFLAG       1 000007FD FFFFFFEC     R    4197  4201
 CPXSIZE       1 00001000 FFFFFFEC A   U    6161 24952  24974
 CPXSTATE      4 000007F8 FFFFFFEC     F    4191  4204   4204
 CPZERO      884 00000C48 FFFFFFEC     X    6153 10245M 10245  10246M 10246  10247M 10247  10248M 10248  29558M 29558
                                                 29559M 29559  29560M 29560  29561M 29561
 CRBRANCH      1 00000000 00000000 A   T    7991  7991
 CSRTABLE      1 00000000 00000000 A   T    8011  8011
 CSVARMGR      1 00000000 00000000 A   T    8059  8059
 CSVEXIT       1 00000000 00000000 A   T    7932  7932
 CSVLLCB       1 00000000 00000000 A   T    7532  7532
 CSVLLTRM      1 00000000 00000000 A   T    7533  7533
 CSVMEM        1 00000000 00000000 A   T    7760  7760
 CSVVFGET      1 00000000 00000000 A   T    8324  8324
 CSVVFIND      1 00000000 00000000 A   T    8322  8322
 CTLPSETS      1 00000065 FFFFFFE9 A   U    6473 15864  25784  31190  31874
 CTLSETI       1 00000002 FFFFFFE9 A   U    6462 16044
 CTLSNSI       1 00000001 FFFFFFE9 A   U    6461 25140  29600
 CV         4016 00000000 FFFFFFEE     J    2366  1174U
 CVABORT       4 000007DA FFFFFFEE     I    2145 20955B 22067B
 CVABSRTN      4 0000088C FFFFFFEE     V    2180  2155
 CVABTMSG      4 000007CC FFFFFFEE     I    2140 21247B 21391B 21774B
 CVBLANKS    235 000004D8 FFFFFFEE     C    1960 15575  18002  18265  23376  23525  23674  23823  24172  24242  24325
                                                 24397  28073  29014  29128  29975  30004
 CVBRMSK       1 00000751 FFFFFFEE     X    2096  2097   2098
 CVCFLAG       1 00000A00 FFFFFFEE     R    2261  2265   2270   2275   2280   2285
 CVCHKST       8 000009F0 FFFFFFEE     D    2251  2341   2341
 CVCHKST2      8 00000E28 FFFFFFEE     D    2344  2347   2347
 CVCOMRTN      4 0000087C FFFFFFEE     V    2176  2146
 CVCPMEM       4 000006A8 FFFFFFEE     F    2016 24651  24653M 24915  24917M
 CVCURJCB      4 000001C8 FFFFFFEE     A    1445  9675  10190  10349  10416  11546  15495  15960  16091  16321  17936
                                                 18173  18573  20385  20509  22162  23052  26697  26791  28578  29064
                                                 29164  29563  29789  30634  30640  31785
 CVDBGFLG      1 000004CC FFFFFFEE     R    1950  1954
 CVENT         4 0000074C FFFFFFEE     I    2094  9495B 10134B 11794B 12029B 12407B 13835B 14345B 14406B 14467B 14528B
                                                 14589B 14758B 14824B 14887B 14952B 15052B 15153B 18755B 19753B 22392B
                                                 22782B 23165B 23972B 24577B 24762B 25009B 25318B 25673B 25937B 26103B
                                                 26305B 26388B 26928B 27074B 27654B 27838B 27987B 28304B 28453B 28892B
                                                 31360B 32156B
 CVENTBR       2 00000750 FFFFFFEE     I    2095  2096
 CVERRMSG      4 000007C8 FFFFFFEE     I    2139 14659B 15292B 15328B 31552B 31616B 31736B
 CVERROR       4 000007D6 FFFFFFEE     I    2144  2160B
 CVEXIRTN      4 0000077C FFFFFFEE     V    2124  2120
 CVFCHRKBPR
               8 000004C9 FFFFFFEE         1865  1881   1881
 CVFCHRKBSE
               4 000004C9 FFFFFFEE         1870  1881   1881
1SIGN     (SIGN4072) (12:54) (15MAR04) Ordinary Symbol and Literal Cross Reference                                          Page   95
 CVFCHRKCPR
               2 000004C9 FFFFFFEE         1887  1903   1903
 CVFCHRKCSE
               1 000004C9 FFFFFFEE         1892  1903   1903
 CVFCHRUBPR
             128 000004C9 FFFFFFEE         1821  1837   1837
 CVFCHRUBSE
              64 000004C9 FFFFFFEE         1826  1837   1837
 CVFCHRUCPR
              32 000004C9 FFFFFFEE         1843  1859   1859
 CVFCHRUCSE
              16 000004C9 FFFFFFEE         1848  1859   1859
 CVFINIT       8 000004C5 FFFFFFEE         1686 25113  25706  30416  31249
 CVFJCB        4 000001C0 FFFFFFEE     A    1443 21822  22450  22606
 CVFL          1 000004C4 FFFFFFEE     R    1617  1621   1626   1631   1636   1641   1646   1651   1656
 CVFL2         1 000004C5 FFFFFFEE     R    1662  1666   1671   1676   1681   1686   1691   1696   1701
 CVFL3         1 000004C6 FFFFFFEE     R    1707  1711   1716   1721   1726   1731   1736   1741   1746
 CVFL4         1 000004C7 FFFFFFEE     R    1752  1756   1761   1766   1771   1776   1781   1786
 CVFL5         1 000004C8 FFFFFFEE     R    1792  1796   1801   1806   1811
 CVFL6         1 000004C9 FFFFFFEE     R    1817  1821   1826   1838   1843   1848   1860   1865   1870   1882   1887
                                                  1892   1904
 CVFRLG       16 000004C4 FFFFFFEE         1636 12446  15184  15761  16795  29337  30718
 CVFSYST      16 000004C7 FFFFFFEE         1771 10527  20311  22918
 CVFTEST       2 000004C5 FFFFFFEE         1696 25376
 CVFTMIL     128 000004C4 FFFFFFEE         1621 24020
 CVFVISTA    128 000004C8 FFFFFFEE         1796 15823  21809  26513  29834
 CVHACKWT      2 000005F8 FFFFFFEE     R    1973 20416  20540
 CVHEAP#       1 00000200 FFFFFFEE A   U    1523  1524
 CVINVRTN      4 00000888 FFFFFFEE     V    2179  2149
 CVJESFLG      1 000004CA FFFFFFEE     R    1910  1914
 CVLJCB        4 000001C4 FFFFFFEE     A    1444 21850  22479  22635
 CVLNKRGS      4 00000780 FFFFFFEE     F    2126  2101M  2127  15884M 16064M 24619M 24807M 25054M 25804M 29620M 31036M
                                                 31210M 31894M
 CVLNKRTN      4 000007B0 FFFFFFEE     U    2127  2116M
 CVLOCK1       1 00000088 FFFFFFEE     R    1268  1272   1277
 CVLOCK2       1 00000089 FFFFFFEE     R    1282  1286
 CVLOCK3       1 0000008A FFFFFFEE     R    1291  1295
 CVLOCK4       1 0000008B FFFFFFEE     R    1300  1304
 CVLOGMOD      1 00000068 FFFFFFEE     R    1255  1259
 CVMACH        1 00000067 FFFFFFEE     R    1215  1219   1224   1229   1234   1239   1244   1249  18140  20780
 CVMACHID      8 0000000C FFFFFFEE     C    1195 16821  19006  19059  19111  19116  19158  19192  19197  19239  19273
                                                 19278  19320  19354  19359  20919  20924
 CVMAXSES      2 00000132 FFFFFFEE     H    1388 22418  22426
 CVMILRTN      4 00000884 FFFFFFEE     V    2178  2158
 CVMSG       235 00000A1C FFFFFFEE     X    2321 24113M 24113  24200  24205  24360
 CVMSGCK       4 00000A18 FFFFFFEE     F    2320 24124
 CVNEXT        4 000007DE FFFFFFEE     I    2146 10871B 10882B 10994B 11132B 11171B 11462B 11576B 13792B 16351B 17072B
                                                 17765B 18629B 19961B 20101B 20295B 20314B 20763B 21009B 23082B 26727B
                                                 32036B
 CVNOACTN      4 000007EA FFFFFFEE     I    2152 20504B
 CVNOARTN      4 00000890 FFFFFFEE     V    2181  2152
 CVNUSERS      2 000000D4 FFFFFFEE     H    1363  9598   9599M 31080  31082M
 CVNWDATE      4 00000608 FFFFFFEE     F    1983  1987   1987  17370
 CVNWMPG#      1 00000008 FFFFFFEE A   U    1985  1986
 CVORVSSN      8 00000030 FFFFFFEE     C    1201 15525  15779
 CVPFXRTN      1 00000000 00000000 A   T    2124  2124
 CVPGFLAG      1 00000A01 FFFFFFEE     R    2291  2295   2300   2305
 CVPIOSZ       1 00004F80 FFFFFFEE A   U    1354  1356
 CVPPDBQH      4 0000009C FFFFFFEE     A    1312  1313
1SIGN     (SIGN4072) (12:54) (15MAR04) Ordinary Symbol and Literal Cross Reference                                          Page   96
 CVPSFNO       1 000003E9 FFFFFFEE A   N    1476  1478
 CVPSLNO       1 000007CF FFFFFFEE A   N    1477  1478
 CVPXSZ        1 00000008 FFFFFFEE A   U    1355  1356
 CVR          12 0000000C 00000001 A   #    1105  1174U
 CVRCVOL       4 00000744 FFFFFFEE     A    2081 29013  29284M
 CVRKEY        1 00000008 FFFFFFEE A   U    2049  2050
 CVRLGSSN      8 00000038 FFFFFFEE     C    1202 15786
 CVSEGRTN      4 00000880 FFFFFFEE     V    2177  2141
 CVSTACK#      1 00000080 FFFFFFEE A   U    1515  1516
 CVSTART       4 00000000 FFFFFFEE     C    1188  2359
 CVT           1 00000000 FFFFFFE6     J    7502 21436U 21587U
 CVTBRET       2 00000052 FFFFFFE6     H    7557  8070   8149
 CVTPTR        1 00000010 00000001 A   U    7498 21426  21577
 CVTRC         4 00000768 FFFFFFEE     I    2116  2102B 15885B 16065B 24620B 24808B 25055B 25805B 29621B 31037B 31211B
                                                 31895B
 CVTRCRTN      4 00000778 FFFFFFEE     V    2123  2117
 CVTUSER       4 000000CC FFFFFFE6     A    7682 21442  21593
 CVTVSTGX      1 00000000 FFFFFFE5     J    8522  8386
 CVTXTNT1      1 00000000 FFFFFFE4     J    8561  7729
 CVTXTNT2      1 00000000 FFFFFFE3     J    8569  7799   8725   8936   9216   9260   9304   9394
 CVT4MS1       1 00000010 FFFFFFE6 A   U    7582  7590
 CVT6DAT       1 00000002 FFFFFFE6 A   U    7586  7590
 CVUMSGCK      4 00000B08 FFFFFFEE     F    2323 24255
 CVUSFNO       1 00000001 FFFFFFEE A   N    1483  1485
 CVUSLNO       1 000003E7 FFFFFFEE A   N    1484  1485
 CVVOL#        1 00000005 FFFFFFEE A   U    2334  2335
 CVVOLIST      4 00000740 FFFFFFEE     A    2080 29278
 CVWORD        8 00000050 FFFFFFEE     X    1205  9870M  9870  10483M 10483  10590M 10590  10903  19946M 19946  20260M
                                                 20260  20994M 20994  22818M 22818  23019
 CVWTOFLG      1 000004CB FFFFFFEE     R    1920  1924   1929   1934   1939   1944
 CVWTOFNOPFX
              64 000004CB FFFFFFEE         1929 28799  28799  28800M 28832  28832  28833M
 CVWTOFWTL
             128 000004CB FFFFFFEE         1924 28799  28799  28832  28832
 CVWTOSGP      4 00000748 FFFFFFEE     V    2083 28558  28573  28617  28632  28657  28672  28697  28787  28819
 CVWYLSSN      8 00000028 FFFFFFEE     C    1200 16261  22864  22869  25396  25401
 DEBUGSG       1 00000000 00000000 A   T    2077  2077
 DENQFREE      1 00000000 00000066     T   32288 32288
 DEV          12 00000000 FFFFFFEB     J    4715  4723
 DEVMAX#       1 00000002 FFFFFFEC A   U    4666  4723
 DEVTYPE       1 00000001 FFFFFFEB     R    4683  4692   4702
 DFAIDTAB      1 00000000 00000000 A   T    8399  8399
 DISPLGF       1 00000000 0000006C     T   32306 32306
 DOBILL        1 00000000 00000027     T   18675 18675  32304
 DOLOGMSG      2 00003914 00000001     H   23958 11610  19702
 DOTTBL        1 00000000 00000000 A   T    2193  2193
 DRENCFLG      1 00000F9F FFFFFFEC     R    6121  6125   6130   6135   6140   6145
 DRENPROT      1 00000F9E FFFFFFEC     R    6108  6116
 DSNON        40 00000E90 FFFFFFEC     C    5841  5842
 DSNWADSN     44 00000E5C FFFFFFEC     C    5828  5829   5830   5831   5840   5848   6079   6085   6087   6093   6096
                                                  6098   6101   6150
 DSNWAF4       1 00000F37 FFFFFFEC     R    5896  5900   5905   5910   5915   5920   5925   5930   5935
 DSNWAF5       1 00000F38 FFFFFFEC     R    5941  5945   5950   5955   5960   5965   5970   5975   5980
 DSNWAF6       1 00000F39 FFFFFFEC     R    5986  5990   5995   6000   6005   6010   6015   6020   6025
 DSNWAF7       1 00000F3A FFFFFFEC     R    6031  6035   6040   6045   6050
 DSNXG         1 00000004 FFFFFFEC A   U    5833  5835
 DSNXGL        1 00000003 FFFFFFEC A   U    5834  5835
 DSNXU         1 00000007 FFFFFFEC A   U    5835  5837
 DSNXUL        1 00000004 FFFFFFEC A   U    5836  5837
1SIGN     (SIGN4072) (12:54) (15MAR04) Ordinary Symbol and Literal Cross Reference                                          Page   97
 DSSIZ         1 00000108 FFFFFFEC A   U    6079  6087   6096   6101
 EBCTBL        1 00000000 00000000 A   T    2189  2189
 EBCTBL7       1 00000000 00000000 A   T    2192  2192
 ECBLIST       1 00000000 00000000 A   T    2052  2052
 EDTCOM        1 00000000 00000033     T   18702 18702
 ELFLOGEX      2 000045B0 00000001     H   27540 27331B
 ELFLOGIN      2 00004410 00000001     H   27058 11676
 ELFPRT        4 000045C0 00000001     F   27575 28413
 EOSDISP       1 00000000 0000006E     T   32313 32313
 EPARTBL       1 00000000 00000000 A   T    2184  2184
 EXREINIT      1 00000000 00000051     T   26225 26225  32285
 FINBASE       2 00001D96 00000001     H   15459 18450U 18701  19671U 22264U 22742U 23102U 23934U 24480U 24718U 24931U
                                                 25280U 25636U 25890U 26062U 26183U 26349U 26849U 26971U 27556U 27803U
                                                 27952U 28269U 28372U 28855U 31284U 32060U 32237U
 FMBRANCH      1 00000000 00000000 A   T    8175  8175
 FMTRCLCK      1 00000000 0000003D     T   24523 24523
 FMTTIME       1 00000000 0000006A     T   32301 32301
 FMTXDATE      1 00000000 0000002B     T   18684 18684
 FORCPASS      1 00000000 0000002E     T   18695 18695
 FREEBILL      1 00000000 00000021     T   18667 18667  32309
 FREECORE      1 00000000 00000046     T   24972 24972
 FREECP        2 00003BF0 00000001     H   24748 24744
 FREEPOOL      1 00000000 00000047     T   24973 24973
 FREERECS      2 000040AE 00000001     H   26089 32292
 FREERG        1 00000000 00000053     T   26230 26230
 FREEVIEW      1 00000000 00000044     T   24969 24969
 FSR           0 00000000 00000001 A   #    1015 11789  11821M 11836M 12024  12056M 12071M 12402  13807M 13830  14320M
                                                 14340  14381M 14401  14442M 14462  14503M 14523  14564M 14584  14733M
                                                 14753  14799M 14819  14862M 14882  14927M 14947  15027M 15047  15126M
                                                 15148  15343M 18750  19679M 19748  22272M 22387  22750M 22777  23110M
                                                 23159  23942M 23967  24488M 24572  24726M 24757  24939M 25004  25288M
                                                 25313  25644M 25668  25898M 25932  26070M 26098  26191M 26300  26357M
                                                 26382  26857M 26923  26979M 27068  27564M 27649  27811M 27833  27960M
                                                 27982  28277M 28299  28380M 28448  28863M 28887  31292M 31354  32068M
                                                 32151  32245M
 GETACCT       1 00000000 0000001A     T   15389 15389  28415
 GETCORE       1 00000000 00000048     T   26212 26212
 GETCP         2 00003B54 00000001     H   24563 24559
 GETPOOL       1 00000000 00000040     T   24963 24963
 GETUID        1 00000000 00000023     T   18669 18669  32320
 GETUSRNO      2 0000356C 00000001     H   22378 22319  32318
 GLBRANCH      1 00000000 00000000 A   T    8081  8081
 GMBRANCH      1 00000000 00000000 A   T    8177  8177
 GREET         2 000027CC 00000001     H   18741 11600
 GVT           1 00000000 00000000 A   T    7943  7943
 HAVEDO        2 00002F70 00000001     I   20769 20241B 20356B 20441B 20489B 20564B
 HIBAL         1 00000000 FFFFFFFF     J     691   707    720    733    746    759    772    785    798    811    824
                                                   837    850    863    876    889    902
 HOSTINIT      1 00000000 00000022     T   18668 18668
 HSPFMIL       1 00000080 FFFFFFE2 A   U    8653  8657   8658
 HSPFORV       1 00000020 FFFFFFE2 A   U    8655  8657
 HSPFORVR      1 00000010 FFFFFFE2 A   U    8656  8658
 HSPFWYL       1 00000040 FFFFFFE2 A   U    8654  8657   8658
 IARMPVT       1 00000000 00000000 A   T    7818  7818
 IARMRRCE      1 00000000 00000000 A   T    8363  8363
 IARPIBR       1 00000000 00000000 A   T    8333  8333
 IARPSIV       1 00000000 00000000 A   T    8157  8157
 IARPSXM       1 00000000 00000000 A   T    8306  8306
 IARXKEY       1 00000000 00000000 A   T    8264  8264
1SIGN     (SIGN4072) (12:54) (15MAR04) Ordinary Symbol and Literal Cross Reference                                          Page   98
 IARXVIO       1 00000000 00000000 A   T    8158  8158
 ICYMMVTC      1 00000000 00000000 A   T    8589  8589
 IDA121CV      1 00000000 00000000 A   T    8096  8096
 IEABEND       1 00000000 00000000 A   T    7680  7680
 IEADQIQE      1 00000000 00000000 A   T    8076  8076
 IEAECVT       1 00000000 00000000 A   T    7605  7605
 IEAGSMQ       1 00000000 00000000 A   T    8053  8053
 IEAIHASU      1 00000000 00000000 A   T    8293  8293
 IEALSMQ       1 00000000 00000000 A   T    8055  8055
 IEAMASCB      1 00000000 00000000 A   T    8023  8023   8027
 IEAPATCH      1 00000000 00000000 A   T    7688  7688
 IEAPDSRT      1 00000000 00000000 A   T    7951  7951
 IEAPTRV       1 00000000 00000000 A   T    7767  7767
 IEAQCDSR      1 00000000 00000000 A   T    7671  7671
 IEAQCS01      1 00000000 00000000 A   T    8063  8063
 IEAQLPAQ      1 00000000 00000000 A   T    7672  7672
 IEAQTD00      1 00000000 00000000 A   T    7568  7568
 IEAQTE00      1 00000000 00000000 A   T    7566  7566
 IEARPOST      1 00000000 00000000 A   T    8078  8078
 IEASMFEX      1 00000000 00000000 A   T    7955  7955
 IEASMFSP      1 00000000 00000000 A   T    8301  8301
 IEASPOST      1 00000000 00000000 A   T    8098  8098
 IEASVDCB      1 00000000 00000000 A   T    7559  7559
 IEATCBP       1 00000000 00000000 A   T    7509  7509
 IEATPC        1 00000000 00000000 A   T    7561  7561
 IEATRSCN      1 00000000 00000000 A   T    7919  7919
 IEAVAR02      1 00000000 00000000 A   T    8003  8003
 IEAVBLDP      1 00000000 00000000 A   T    7987  7987
 IEAVDELP      1 00000000 00000000 A   T    7990  7990
 IEAVEAC0      1 00000000 00000000 A   T    8080  8080
 IEAVEADV      1 00000000 00000000 A   T    8238  8238
 IEAVEDR1      1 00000000 00000000 A   T    8123  8123
 IEAVELRM      1 00000000 00000000 A   T    8072  8072
 IEAVENLU      1 00000000 00000000 A   T    8419  8419
 IEAVENQ2      1 00000000 00000000 A   T    8069  8069
 IEAVEQV1      1 00000000 00000000 A   T    8226  8226
 IEAVEQV2      1 00000000 00000000 A   T    8229  8229
 IEAVEQV3      1 00000000 00000000 A   T    8232  8232
 IEAVERI1      1 00000000 00000000 A   T    8125  8125
 IEAVERP1      1 00000000 00000000 A   T    8127  8127
 IEAVERX1      1 00000000 00000000 A   T    8315  8315
 IEAVESC1      1 00000000 00000000 A   T    8254  8254
 IEAVESPR      1 00000000 00000000 A   T    8183  8183
 IEAVESTU      1 00000000 00000000 A   T    8417  8417
 IEAVESVT      1 00000000 00000000 A   T    8189  8189
 IEAVET6E      1 00000000 00000000 A   T    8289  8289
 IEAVEVT2      1 00000000 00000000 A   T    8243  8243
 IEAVEXPR      1 00000000 00000000 A   T    8051  8051
 IEAVEXP1      1 00000000 00000000 A   T    8220  8220
 IEAVFRCL      1 00000000 00000000 A   T    7989  7989
 IEAVGSDA      1 00000000 00000000 A   T    8234  8234
 IEAVGTCL      1 00000000 00000000 A   T    7988  7988
 IEAVGWSA      1 00000000 00000000 A   T    8083  8083
 IEAVLKRM      1 00000000 00000000 A   T    7790  7790
 IEAVMFRM      1 00000000 00000000 A   T    8168  8168
 IEAVMSGS      1 00000000 00000000 A   T    7737  7737
 IEAVNVT0      1 00000000 00000000 A   T    8402  8402
 IEAVRSUH      1 00000000 00000000 A   T    8281  8281
 IEAVRT03      1 00000000 00000000 A   T    7895  7895
1SIGN     (SIGN4072) (12:54) (15MAR04) Ordinary Symbol and Literal Cross Reference                                          Page   99
 IEAVSPND      1 00000000 00000000 A   T    8291  8291
 IEAVSTAG      1 00000000 00000000 A   T    8031  8031
 IEAVTCTL      1 00000000 00000000 A   T    8283  8283
 IEAVTEST      1 00000000 00000000 A   T    7794  7794
 IEAVTRGR      1 00000000 00000000 A   T    8091  8091
 IEAVTRG1      1 00000000 00000000 A   T    7540  7540
 IEAVTRV3      1 00000000 00000000 A   T    7787  7787
 IEAVTSBP      1 00000000 00000000 A   T    8037  8037
 IEAVTSFR      1 00000000 00000000 A   T    7758  7758
 IEAVTSGL      1 00000000 00000000 A   T    8035  8035
 IEAVVMSR      1 00000000 00000000 A   T    7816  7816
 IEAVWAIT      1 00000000 00000000 A   T    8058  8058
 IEAVWSAC      1 00000000 00000000 A   T    8089  8089
 IEAVWSAG      1 00000000 00000000 A   T    8087  8087
 IEAVWSAL      1 00000000 00000000 A   T    8085  8085
 IEAVXEXT      1 00000000 00000000 A   T    8166  8166
 IEAVXSFT      1 00000000 00000000 A   T    8133  8133
 IEAVXSTN      1 00000000 00000000 A   T    8139  8139
 IEAVXSTS      1 00000000 00000000 A   T    8137  8137
 IEAVXUNN      1 00000000 00000000 A   T    8162  8162
 IEAVXUNS      1 00000000 00000000 A   T    8141  8141
 IEAWTCB       1 00000000 00000000 A   T    8198  8198
 IEA0DS        1 00000000 00000000 A   T    7604  7604
 IEA0EF00      1 00000000 00000000 A   T    7510  7510
 IEA0EF01      1 00000000 00000000 A   T    7550  7550
 IEA0PT0E      1 00000000 00000000 A   T    8270  8270
 IEA0PT01      1 00000000 00000000 A   T    7611  7611
 IEA0PT02      1 00000000 00000000 A   T    8195  8195
 IEA0PT03      1 00000000 00000000 A   T    8272  8272
 IEA0VL00      1 00000000 00000000 A   T    7521  7521
 IEA0VL01      1 00000000 00000000 A   T    7928  7928
 IECIXAVL      1 00000000 00000000 A   T    7596  7596
 IECPCNVT      1 00000000 00000000 A   T    7524  7524
 IECPRLTV      1 00000000 00000000 A   T    7528  7528
 IECVEXCL      1 00000000 00000000 A   T    8160  8160
 IECXAPG       1 00000000 00000000 A   T    7519  7519
 IECXITP       1 00000000 00000000 A   T    7549  7549
 IECXTLER      1 00000000 00000000 A   T    7535  7535
 IEC0SCR1      1 00000000 00000000 A   T    7694  7694
 IEECUCB       1 00000000 00000000 A   T    7565  7565
 IEEMSER       1 00000000 00000000 A   T    7543  7543   7609
 IEEVEXSN      1 00000000 00000000 A   T    7898  7898
 IEEVSTOP      1 00000000 00000000 A   T    8208  8208
 IEFAQTOP      1 00000000 00000000 A   T    8015  8015
 IEFAUSDM      1 00000000 00000000 A   T    7515  7515
 IEFENFDM      1 00000000 00000000 A   T    7674  7674
 IEFJESCT      1 00000000 00000000 A   T    7774  7774
 IEFLINK       1 00000000 00000000 A   T    7512  7512
 IEFQMWR       1 00000000 00000000 A   T    7625  7625
 IEWFBOSV      1 00000000 00000000 A   T    7602  7602
 IEWMSEPT      1 00000000 00000000 A   T    8107  8107
 IFBDCB        1 00000000 00000000 A   T    7591  7591
 IFDOLT0A      1 00000000 00000000 A   T    7953  7953
 IFGDEBVR      1 00000000 00000000 A   T    8584  8584
 IGC043BR      1 00000000 00000000 A   T    7999  7999
 IGC044R2      1 00000000 00000000 A   T    8109  8109
 IGC062R1      1 00000000 00000000 A   T    8079  8079
 IGC07903      1 00000000 00000000 A   T    8224  8224
 IGC124        1 00000000 00000000 A   T    8240  8240
1SIGN     (SIGN4072) (12:54) (15MAR04) Ordinary Symbol and Literal Cross Reference                                          Page  100
 IGFRVT        1 00000000 00000000 A   T    7689  7689
 IGVCPBDB      1 00000000 00000000 A   T    8355  8355
 IGVCPDLB      1 00000000 00000000 A   T    8357  8357
 IGVCPFRE      1 00000000 00000000 A   T    8347  8347
 IGVCPGTC      1 00000000 00000000 A   T    8345  8345
 IGVCPGUB      1 00000000 00000000 A   T    8339  8339
 IGVCPGUP      1 00000000 00000000 A   T    8342  8342
 IGVCPGUS      1 00000000 00000000 A   T    8365  8365
 IGVGCAS       1 00000000 00000000 A   T    7993  7993
 IGVGFAS       1 00000000 00000000 A   T    7997  7997
 IGVGRRGN      1 00000000 00000000 A   T    8369  8369
 IGVGVRGN      1 00000000 00000000 A   T    8371  8371
 IGVQSPET      1 00000000 00000000 A   T    7995  7995
 IGVSLIST      1 00000000 00000000 A   T    8349  8349
 IGVSLOC       1 00000000 00000000 A   T    8353  8353
 IGVSREGN      1 00000000 00000000 A   T    8351  8351
 IGVSTSKI      1 00000000 00000000 A   T    8336  8336
 ILRJTERM      1 00000000 00000000 A   T    8278  8278
 INITCMD       1 00000000 0000005F     T   32276 32276
 INITCP        2 00003CFA 00000001     H   24995  9753  24991
 INITDBUG      1 00000000 0000004E     T   26219 26219
 INITDFLT      2 00003DEA 00000001     H   25304 11601  18677  25265B
 INITEXEC      1 00000000 0000004A     T   26215 26215
 INITFLOW      1 00000000 0000004C     T   26217 26217
 INITRECS      2 00003FC4 00000001     H   25923 26213  32265
 INITRG        1 00000000 00000054     T   26233 26233
 INITSESS      2 00003F2C 00000001     H   25659 25613B
 INITSTK       1 00000000 00000004     T   11599 11599  32264
 INITVARS      1 00000000 0000004D     T   26218 26218
 INITXCAL      1 00000000 0000004B     T   26216 26216
 INVALID       1 00000000 00000000 A   T    2179  2179
 IOSVDEVN      1 00000000 00000000 A   T    8295  8295
 IOSVHID       1 00000000 00000000 A   T    8305  8305
 IOSVSUCB      1 00000000 00000000 A   T    8308  8308
 IRARMCNS      1 00000000 00000000 A   T    8049  8049
 IRARMEPS      1 00000000 00000000 A   T    8267  8267
 IRARMI00      1 00000000 00000000 A   T    8006  8006
 ISNBRNCH      1 00000000 00000000 A   T    8164  8164
 JCB         208 00000000 FFFFFFE0     J    9215  9685U 10200U 10359U 10426U 11556U 16101U 16331U 17946U 18183U 18583U
                                                 20395U 20519U 21832U 22172U 22460U 22616U 23062U 26707U 26801U 28588U
                                                 29074U 29174U 29573U 29797U 30650U 31101  31795U
 JCBACCT       5 0000004A FFFFFFE0     C    8977 10211M 10211  16106M 21868  22177M 22497  22653  31090M 31090  31801M
 JCBAFALO    128 00000062 FFFFFFE0         9064 10437M 11567M 16342M 23073M 26718M 26812M 30865  31142
 JCBAFL        1 00000062 FFFFFFE0     R    9060  9064   9069   9074   9079   9084   9089   9094   9099
 JCBANO        2 0000004F FFFFFFE0     X    8980 10216M 10216  16107M 22178M 22509  22666  31095M 31095  31802M
 JCBBFL        1 00000063 FFFFFFE0     R    9105  9109   9114   9119   9124   9129   9134   9139
 JCBBFNR     128 00000063 FFFFFFE0         9109 10221M 16116  16116  16165M 21898  22187  22187  22236M 31100M
 JCBBFPS      32 00000063 FFFFFFE0         9119 16116  16116  16117M 16139M 21886  22187  22187  22188M 22210M
 JCBBFSIB     64 00000063 FFFFFFE0         9114 29587  29691M
 JCBBILLX      8 00000088 FFFFFFE0     D    9190  9198   9198
 JCBFATTN      2 00000062 FFFFFFE0         9094 10371M 17958M 18195M 18595M 20407M 20531M
 JCBFBILLED
               2 00000063 FFFFFFE0         9139 30661M 31112M
 JCBFCNT       2 00000034 FFFFFFE0     H    8967 31119M 31119
 JCBNEXT       4 000000D0 FFFFFFE0     F    9208 21913  22537  22675
 JCBRSCF1      1 00000064 FFFFFFE0     R    9145  9149   9154   9159
 JCBSEQ        2 00000048 FFFFFFE0     H    8976 28594  29080  29180
 JCBSFLG1      1 00000065 FFFFFFE0     R    9165  9169   9174
 JCBSFMIC     64 00000065 FFFFFFE0         9174 10228  10228
1SIGN     (SIGN4072) (12:54) (15MAR04) Ordinary Symbol and Literal Cross Reference                                          Page  101
 JCBSFV      128 00000065 FFFFFFE0         9169 10228  10228  10229M
 JCBSUC        2 00000052 FFFFFFE0     H    8981  9691M 29692M
 JCBWFL        1 00000060 FFFFFFE0     R    8989  8993   8998   9003   9008   9013   9018   9023   9028   9056
 JCBWWFL       1 00000061 FFFFFFE0     R    9034  9038   9043   9048   9053
 JESCMD        1 00000000 00000012     T   12181 12181
 KLOGINCK      1 00000000 00000036     T   22307 22307  28416
 KTIMDISP      1 00000000 0000002F     T   18696 18696
 KWIO          1 00000000 0000002C     T   18686 18686  22303  32293
 KWR         504 00000000 FFFFFFE1     J    8935  9479  15481U 15549  16211U 16534U 17087U 17800  17861  17910  18211
                                                 19795U 19806M 19806  19807M 19807  29864  29874U 29885M 29885  29886M
                                                 29886  30380M 30380  30381M 30381  31328  31567U 31577M 31577  31578M
                                                 31578  32326
 KWRACCT       5 00000000 FFFFFFE1     X    8744 31579M
 KWRAFASV      1 00000001 FFFFFFE1 A   U    8766 17596  18299  18318  30285
 KWRAFL        1 0000000F FFFFFFE1     X    8762 17598  18301  18320M 20221  20976  21121  30287M 31813
 KWRAFTOK      1 00000008 FFFFFFE1 A   U    8764 20974
 KWRAFVAL      1 00000080 FFFFFFE1 A   U    8763 20971  21119
 KWRAR         1 00000062 FFFFFFE1     C    8854 20169  20199  20225  31820
 KWRCMD       80 00000152 FFFFFFE1     X    8897 17100M 17100  17114  17119
 KWRCRD        1 00000040 FFFFFFE1 A   U    8927 19818  29907  31588
 KWRCWR        1 00000080 FFFFFFE1 A   U    8926 16959  18061  18329  20648  30300
 KWRDSTRT      1 00000005 FFFFFFE1     U    8746  8908   8908
 KWRFMNPR      1 00000008 FFFFFFE1 A   U    8845 22117
 KWRFMULT      1 00000080 FFFFFFE1 A   U    8842 22062
 KWRFNPAS      1 00000004 FFFFFFE1 A   U    8846 20342
 KWRFSEC       1 00000020 FFFFFFE1 A   U    8844 17012
 KWRGRP        2 00000003 FFFFFFE1     C    8743 19808M 29887M
 KWRHFCK       1 00000080 FFFFFFE1 A   U    8913 19858  29942  31602
 KWRHFL        1 000001F4 FFFFFFE1     X    8912 16978  16996M 18081  18097M 18349  18365M 19860  20667  20685M 29944
                                                 30362  31604
 KWRHFUOK      1 00000040 FFFFFFE1 A   U    8914 16976  16994  18079  18095  18347  18363  20665  20683  30360
 KWRHRSAL      2 00000042 FFFFFFE1     H    8815 21263M 21263  21332  21379
 KWRHRSUS      2 00000068 FFFFFFE1     H    8872 21287  30246  30256M
 KWRIFL        1 0000000E FFFFFFE1     X    8752 17828  19845M 19927  20220  29963  31632  31812
 KWRIFOPR      1 00000010 FFFFFFE1 A   U    8756 19843
 KWRIFVAL      1 00000080 FFFFFFE1 A   U    8753 18693  19925  29961  31630
 KWRKTIM       4 0000005C FFFFFFE1     X    8849 17811
 KWRLPORT     20 000001A2 FFFFFFE1     X    8898 29975M 30010M 30072  30077
 KWRLTIM       4 00000058 FFFFFFE1     X    8848 30172M
 KWRMACC       1 00000035 FFFFFFE1     X    8788 20770
 KWRMPRIM      1 000000AE FFFFFFE1     X    8882 18150
 KWRNAME      20 00000078 FFFFFFE1     X    8877 15501  15519
 KWRNEWDT      4 000000B4 FFFFFFE1     F    8888 17370  17974  18037  18052M
 KWRNTDEF      2 0000004A FFFFFFE1     H    8834 20222
 KWROFL        1 00000057 FFFFFFE1     X    8841 17014  20344  22064  22119
 KWRORV        8 0000002D FFFFFFE1     X    8786 15536M 15536  15543
 KWRPASS       8 00000070 FFFFFFE1     X    8876  9475  20438  20561
 KWRPFL        1 00000065 FFFFFFE1     X    8868 20109
 KWRSEXP       1 000000F1 FFFFFFE1 A   U    8857 21143
 KWRSFKEP      1 00000080 FFFFFFE1 A   U    8798 17515
 KWRSFL        1 00000036 FFFFFFE1     X    8797 17451  17517  18129
 KWRSFMAI      1 00000040 FFFFFFE1 A   U    8799 17449  18127
 KWRSOF        1 00000061 FFFFFFE1     C    8853 20139  20155  20185  20224  31819
 KWRSOVB       1 000000F3 FFFFFFE1 A   U    8859 21170
 KWRSTART      4 00000000 FFFFFFE1     F    8741  8922
 KWRSTAT       1 00000063 FFFFFFE1     C    8856 21143  21170
 KWRSYS        8 00000092 FFFFFFE1     X    8879 16217
 KWRTACF       1 00000048 FFFFFFE1     X    8819 20107  21532  21567
 KWRTFAE       1 00000004 FFFFFFE1 A   U    8830 17180
1SIGN     (SIGN4072) (12:54) (15MAR04) Ordinary Symbol and Literal Cross Reference                                          Page  102
 KWRTFAK       1 00000001 FFFFFFE1 A   U    8832 17880
 KWRTFAL       1 00000002 FFFFFFE1 A   U    8831 17792
 KWRTFAM       1 00000010 FFFFFFE1 A   U    8828 17436  18114
 KWRTFAN       1 00000020 FFFFFFE1 A   U    8827 17353  17928
 KWRTFANE      1 00000010 FFFFFFE1 A   U    8865 17196
 KWRTFAPE      1 00000080 FFFFFFE1 A   U    8863 17264
 KWRTFAR       1 00000008 FFFFFFE1 A   U    8829 17583  18374
 KWRTFL        1 00000049 FFFFFFE1     X    8824 17182  17355  17438  17585  17794  17882  17930  18116  18376
 KWRTFL2       1 00000064 FFFFFFE1     X    8862 17198  17266
 KWRTNDAY      1 00000002 FFFFFFE1 A   U    8822 21530  21565
 KWRUSER       3 00000000 FFFFFFE1     C    8742  8744   8744  19809M 29888M
 KWRXCNT       1 000000AF FFFFFFE1     X    8885 16549  16567  16636  16945M 20610  20612M 20623  20630M
 KWRXTIM       4 000000B0 FFFFFFE1     X    8886 16708  16950M 16950  20639M
 LGFSAVE       2 000043E4 00000001     H   26914 26878
 LGNACCT       2 00004660 00000001     H   27640 27587
 LGNACCTL      4 00000000 FFFFFFD8     F   27039 27308M 27308  27315  27338  27743M
 LGNAUTH       2 00004792 00000001     H   27973 27617
 LGNCMD        2 000046FC 00000001     H   27824 27602
 LGNMISC       2 00004876 00000001     H   28290 27632
 LGNPRINC    128 000000F4 FFFFFFD8     C   27042 27399  28212M
 LGNPRINL      4 000000F0 FFFFFFD8     F   27041 27393M 27393  27400  28185M
 LGNTEXT     940 00000174 FFFFFFD8     C   27043 27144  27185  28412
 LGNWA      1312 00000000 FFFFFFD8     J   27050 27071  27103U 27108  27116U 27125M 27125  27126M 27126  27127M 27127
                                                 27128M 27128  27129M 27129  27130M 27130  27564  27566  27567
 LGNWACCT    235 00000004 FFFFFFD8     C   27040 27314  27337  27770M 28417
 LOCALTOD      1 00000000 00000039     T   22310 22310  24522  32296
 LOGFIN        2 00001D94 00000001     I   15446 11612
 LOGFLAG       1 00000000 FFFFFFD9     R   26265 26269
 LOGFSAVE    128 00000000 FFFFFFD9        26269 26486  26957M
 LOGKWR        1 00000000 00000038     T   22309 22309
 LOGOFF        2 000041EC 00000001     H   26291 12271  12286  12301  12361  26287
 LOGON         2 00004220 00000001     H   26372 12316  12331  12346  26368  28401
 LOGPRT        4 0000436C 00000001     F   26866 28402
 LOGSESS       1 00000000 00000028     T   18676 18676  32305
 LOGWA         1 00000000 FFFFFFD9     J   26278 26385  26417U 26421  26429U 26437M 26857  26859  26860
 LOWTBL        1 00000000 00000000 A   T    2187  2187
 LRTRIM        1 00000000 0000001E     T   15397 15397  18687  24525  26220
 LSR           8 00000008 00000001 A   #    1053 11789  11836M 12024  12071M 12402  13807M 13830  14320M 14340  14381M
                                                 14401  14442M 14462  14503M 14523  14564M 14584  14733M 14753  14799M
                                                 14819  14862M 14882  14927M 14947  15027M 15047  15126M 15148  15343M
                                                 18750  19679M 19748  22272M 22387  22750M 22777  23110M 23159  23942M
                                                 23967  24488M 24572  24726M 24757  24939M 25004  25288M 25313  25644M
                                                 25668  25898M 25932  26070M 26098  26191M 26300  26357M 26382  26857M
                                                 26923  26979M 27068  27564M 27649  27811M 27833  27960M 27982  28277M
                                                 28299  28380M 28448  28863M 28887  31292M 31354  32068M 32151  32245M
 LTIMDISP      1 00000000 0000002D     T   18691 18691
 MACRO         1 00000000 0000000F     T   12091 12091
 MAILDISP      1 00000000 00000031     T   18698 18698
 MALL          1 00000000 0000000C     T   11705 11705  11769  26907  27631  32135
 MCLEAR        1 00000000 00000064     T   32284 32284
 MILERR        1 00000000 00000000 A   T    2178  2178
 MPARM         1 00000000 0000000D     T   11915 11915  11990
 MTOKEN        1 00000000 0000000B     T   11675 11675  11855  11870  11885  11900  11930  11945  11960  11975  12090
                                                 12105  12120  12135  12150  12165  12180  12195  12210  12225  12240
                                                 12255  12270  12285  12300  12315  12330  12345  12360  26877  27586
                                                 27601  27616  32090
 NBLTBL        1 00000000 00000000 A   T    2191  2191
 NEWSDISP      1 00000000 00000030     T   18697 18697
 NOACTION      1 00000000 00000000 A   T    2181  2181
1SIGN     (SIGN4072) (12:54) (15MAR04) Ordinary Symbol and Literal Cross Reference                                          Page  103
 NORCVY        2 00004C50 00000001     H   29553 28953B 28973B 29546B
 NOTVALID      1 00000000 0000005C     T   32314 32136  32314
 NPARTBL       1 00000000 00000000 A   T    2185  2185
 NPATFREE      1 00000000 00000068     T   32290 32290
 NSCAN         1 00000000 00000002     T   11594 11594  24511  28403  32316
 NSCNCB      176 00000000 FFFFFFED     J    2450  2576   9887   9911M  9912M  9927   9928   9929   9932M  9933M  9934M
                                                  9944M  9945M  9946M  9951   9952   9993M  9994M 10009  10010  10011
                                                 10014M 10015M 10017M 10027M 10028M 10029M 10717  10741M 10742M 10757
                                                 10758  10759  10762M 10763M 10764M 10774M 10775M 10776M 10781  10782
                                                 10821M 10822M 10837  10838  10839  10842M 10843M 10844M 10854M 10855M
                                                 10856M 10891  10932  10933  10934  10937M 10938M 10940M 10950M 10951M
                                                 10952M 11008  11023  11038  11039  11040M 11040  11041  11042M 11055M
                                                 11070  11071  11072  11075M 11076M 11078M 11088M 11089M 11090M 11278
                                                 11302M 11303M 11318  11319  11320  11323M 11324M 11325M 11335M 11336M
                                                 11337M 11342  11343  11384M 11385M 11400  11401  11402  11405M 11406M
                                                 11408M 11418M 11419M 11420M 13859  14613  14673  14674  14911  18399M
                                                 18400M 22953M 22954M 22969  22970  22971  22974M 22975M 22976M 22986M
                                                 22987M 22988M 23007  25098  26449  26450  26451  26454M 26455M 26457M
                                                 26467M 26468M 26469M 27136  27137  27170  27192M 27193M 27225  27226
                                                 27227  27230M 27231M 27233M 27243M 27244M 27245M 27688  27689  27690
                                                 27693M 27694M 27695M 27705M 27706M 27707M 27872  27873  27874  27877M
                                                 27878M 27879M 27889M 27890M 27891M 28021  28022  28023  28026M 28027M
                                                 28028M 28038M 28039M 28040M 28338  28339  28340  28343M 28344M 28345M
                                                 28355M 28356M 28357M 31501  31502  31503  31506M 31507M 31509M 31519M
                                                 31520M 31521M
 NSCNFLGS      1 00000008 FFFFFFED     R    2387  2391   2396
 NSCNKWS       4 00000028 FFFFFFED     A    2436  9927   9934M  9944M 10009  10017M 10027M 10757  10764M 10774M 10837
                                                 10844M 10854M 10932  10940M 10950M 11070  11078M 11088M 11318  11325M
                                                 11335M 11400  11408M 11418M 22969  22976M 22986M 26449  26457M 26467M
                                                 27225  27233M 27243M 27688  27695M 27705M 27872  27879M 27889M 28021
                                                 28028M 28038M 28338  28345M 28355M 31501  31509M 31519M
 NSCNLEN       4 00000004 FFFFFFED     F    2384  9912M  9952   9994M 10742M 10782  10822M 11041  11042M 11303M 11343
                                                 11385M 14674  18400M 22954M 27137  27193M
 NSCNLOC       4 00000000 FFFFFFED     A    2383  9911M  9951   9993M 10741M 10781  10821M 11038  11040M 11302M 11342
                                                 11384M 14673  18399M 22953M 27136  27192M
 NSCNSKIP      4 00000024 FFFFFFED     A    2435  9928   9932M  9945M 10010  10014M 10028M 10758  10762M 10775M 10838
                                                 10842M 10855M 10933  10937M 10951M 11071  11075M 11089M 11319  11323M
                                                 11336M 11401  11405M 11419M 22970  22974M 22987M 26450  26454M 26468M
                                                 27226  27230M 27244M 27689  27693M 27706M 27873  27877M 27890M 28022
                                                 28026M 28039M 28339  28343M 28356M 31502  31506M 31520M
 NSCNSTOP      4 00000020 FFFFFFED     A    2434  9929   9933M  9946M 10011  10015M 10029M 10759  10763M 10776M 10839
                                                 10843M 10856M 10934  10938M 10952M 11072  11076M 11090M 11320  11324M
                                                 11337M 11402  11406M 11420M 22971  22975M 22988M 26451  26455M 26469M
                                                 27227  27231M 27245M 27690  27694M 27707M 27874  27878M 27891M 28023
                                                 28027M 28040M 28340  28344M 28357M 31503  31507M 31521M
 NSCNTLEN      4 00000014 FFFFFFED     F    2402 11008  11055M
 NSCNTLOC      4 00000010 FFFFFFED     A    2401 11023  11039  11040
 NSCNTOK      16 00000030 FFFFFFED     C    2438 10891  13859  14613  14911  23007
 NSCNTYPE      1 00000018 FFFFFFED     R    2405  2409   2414   2419   2424   2429
 OLDSAVE       1 00000000 00000060     T   32278 32278
 ORVCPASS      1 00000000 00000059     T   28410 28410
 PATHFREE      1 00000000 00000069     T   32291 32291
 PDBBYT1       1 0000000E FFFFFFE9     X    6339  6371
 PDBBYT2       1 0000000F FFFFFFE9     X    6340  6377
 PDBCMDFL      1 00000007 FFFFFFE9     X    6327  6363   6363   6369
 PDBINCT       2 00000030 FFFFFFE9     H    6357  6361   6361
 PDBSINP       4 00000010 FFFFFFE9     A    6342  6343
 PDBSTRT       4 00000000 FFFFFFE9     F    6319  6364   6364
 PDBVPGM       8 00000014 FFFFFFE9     C    6345  6351   6351
1SIGN     (SIGN4072) (12:54) (15MAR04) Ordinary Symbol and Literal Cross Reference                                          Page  104
 PFCBFL        1 00000058 FFFFFFDD     R    9341  9345   9350
 PFCBSECM      1 00000013 FFFFFFDD A   U    9356  9357
 PFREEA        1 00000000 00000061     T   32281 32281
 PFREEB        1 00000000 00000062     T   32282 32282
 PROTFREE      1 00000000 00000020     T   18666 18666  32287
 RAR          14 0000000E 00000001 A   #    1131  2116   2117M  2118B  2120M  2121B  2141M  2142B  2146M  2147B  2149M
                                                  2150B  2152M  2153B  2155M  2156B  2158M  2159M  2159B  2165   9666M
                                                  9667M  9667B  9937M  9938M  9938B  9971M  9972M  9972B 10020M 10021M
                                                 10021B 10169M 10170M 10170B 10187M 10188M 10188B 10259M 10260M 10260B
                                                 10414M 10415M 10415B 10454M 10455M 10455B 10564M 10565M 10565B 10578M
                                                 10579M 10579B 10767M 10768M 10768B 10801M 10802M 10802B 10847M 10848M
                                                 10848B 10943M 10944M 10944B 11081M 11082M 11082B 11190M 11191M 11191B
                                                 11328M 11329M 11329B 11362M 11363M 11363B 11411M 11412M 11412B 11526M
                                                 11527M 11527B 11531M 11532M 11532B 11536M 11537M 11537B 11542M 11543M
                                                 11543B 11786  11818M 11819M 11819B 11838M 11841B 12021  12053M 12054M
                                                 12054B 12073M 12076B 12399  12475M 12476M 12476B 12493M 12494M 12494B
                                                 12511M 12512M 12512B 12536M 12537M 12537B 12554M 12555M 12555B 12572M
                                                 12573M 12573B 12597M 12598M 12598B 12622M 12623M 12623B 12640M 12641M
                                                 12641B 12665M 12666M 12666B 12683M 12684M 12684B 12701M 12702M 12702B
                                                 12726M 12727M 12727B 12744M 12745M 12745B 12769M 12770M 12770B 12787M
                                                 12788M 12788B 12805M 12806M 12806B 12830M 12831M 12831B 12848M 12849M
                                                 12849B 12866M 12867M 12867B 12891M 12892M 12892B 12916M 12917M 12917B
                                                 12934M 12935M 12935B 12959M 12960M 12960B 12984M 12985M 12985B 13002M
                                                 13003M 13003B 13020M 13021M 13021B 13045M 13046M 13046B 13063M 13064M
                                                 13064B 13088M 13089M 13089B 13113M 13114M 13114B 13138M 13139M 13139B
                                                 13178M 13179M 13179B 13196M 13197M 13197B 13214M 13215M 13215B 13232M
                                                 13233M 13233B 13257M 13258M 13258B 13282M 13283M 13283B 13300M 13301M
                                                 13301B 13318M 13319M 13319B 13336M 13337M 13337B 13354M 13355M 13355B
                                                 13372M 13373M 13373B 13390M 13391M 13391B 13408M 13409M 13409B 13426M
                                                 13427M 13427B 13444M 13445M 13445B 13462M 13463M 13463B 13480M 13481M
                                                 13481B 13498M 13499M 13499B 13516M 13517M 13517B 13541M 13542M 13542B
                                                 13559M 13560M 13560B 13577M 13578M 13578B 13595M 13596M 13596B 13613M
                                                 13614M 13614B 13631M 13632M 13632B 13649M 13650M 13650B 13667M 13668M
                                                 13668B 13692M 13693M 13693B 13710M 13711M 13711B 13735M 13736M 13736B
                                                 13760M 13761M 13761B 13785M 13786M 13786B 13809M 13812B 13827  13870M
                                                 13871M 13871B 13894M 13895M 13895B 14150M 14151M 14151B 14185M 14186M
                                                 14186B 14259M 14260M 14260B 14276M 14277M 14277B 14299M 14300M 14300B
                                                 14322M 14325B 14337  14383M 14386B 14398  14444M 14447B 14459  14505M
                                                 14508B 14520  14566M 14569B 14581  14616M 14617M 14617B 14651M 14652M
                                                 14652B 14667M 14668M 14668B 14681M 14682M 14682B 14685M 14686M 14686B
                                                 14735M 14738B 14750  14801M 14804B 14816  14864M 14867B 14879  14929M
                                                 14932B 14944  14988M 14989M 14989B 15029M 15032B 15044  15087M 15088M
                                                 15088B 15128M 15131B 15145  15212M 15213M 15213B 15230M 15231M 15231B
                                                 15248M 15249M 15249B 15266M 15267M 15267B 15284M 15285M 15285B 15320M
                                                 15321M 15321B 15345M 15348B 15492M 15493M 15493B 15498M 15499M 15499B
                                                 15552M 15553M 15553B 15621M 15622M 15622B 15812M 15813M 15813B 15855M
                                                 15856M 15856B 15867M 15868M 15868B 15956M 15957M 15957B 15963M 15964M
                                                 15964B 15972M 15973M 15973B 16035M 16036M 16036B 16047M 16048M 16048B
                                                 16181M 16182M 16182B 16297M 16298M 16298B 16444M 16445M 16445B 16461M
                                                 16462M 16462B 16493M 16494M 16494B 16589M 16590M 16590B 16607M 16608M
                                                 16608B 16625M 16626M 16626B 16652M 16653M 16653B 16670M 16671M 16671B
                                                 16688M 16689M 16689B 16706M 16707M 16707B 16718M 16719M 16719B 16742M
                                                 16743M 16743B 16762M 16763M 16763B 16780M 16781M 16781B 16858M 16859M
                                                 16859B 16876M 16877M 16877B 16901M 16902M 16902B 16926M 16927M 16927B
                                                 16962M 16963M 16963B 17122M 17123M 17123B 17220M 17221M 17221B 17254M
                                                 17255M 17255B 17288M 17289M 17289B 17324M 17325M 17325B 17398M 17399M
                                                 17399B 17416M 17417M 17417B 17479M 17480M 17480B 17497M 17498M 17498B
                                                 17545M 17546M 17546B 17563M 17564M 17564B 17626M 17627M 17627B 17644M
                                                 17645M 17645B 17687M 17688M 17688B 17750M 17751M 17751B 17803M 17804M
1SIGN     (SIGN4072) (12:54) (15MAR04) Ordinary Symbol and Literal Cross Reference                                          Page  105
                                                 17804B 17864M 17865M 17865B 17913M 17914M 17914B 17977M 17978M 17978B
                                                 18020M 18021M 18021B 18064M 18065M 18065B 18220M 18221M 18221B 18249M
                                                 18250M 18250B 18283M 18284M 18284B 18332M 18333M 18333B 18415M 18416M
                                                 18416B 18491M 18492M 18492B 18528M 18529M 18529B 18571M 18572M 18572B
                                                 18637M 18638M 18638B 18747  18840M 18841M 18841B 18862M 18863M 18863B
                                                 18890M 18891M 18891B 18908M 18909M 18909B 18936M 18937M 18937B 18961M
                                                 18962M 18962B 18986M 18987M 18987B 19028M 19029M 19029B 19081M 19082M
                                                 19082B 19099M 19100M 19100B 19127M 19128M 19128B 19180M 19181M 19181B
                                                 19208M 19209M 19209B 19261M 19262M 19262B 19289M 19290M 19290B 19342M
                                                 19343M 19343B 19370M 19371M 19371B 19408M 19409M 19409B 19426M 19427M
                                                 19427B 19451M 19452M 19452B 19469M 19470M 19470B 19487M 19488M 19488B
                                                 19512M 19513M 19513B 19530M 19531M 19531B 19564M 19565M 19565B 19589M
                                                 19590M 19590B 19614M 19615M 19615B 19639M 19640M 19640B 19644M 19645M
                                                 19645B 19681M 19684B 19745  19821M 19822M 19822B 19909M 19910M 19910B
                                                 19983M 19984M 19984B 20011M 20012M 20012B 20029M 20030M 20030B 20057M
                                                 20058M 20058B 20075M 20076M 20076B 20419M 20420M 20420B 20476M 20477M
                                                 20477B 20502M 20503M 20503B 20543M 20544M 20544B 20589M 20590M 20590B
                                                 20637M 20638M 20638B 20651M 20652M 20652B 20703M 20704M 20704B 20738M
                                                 20739M 20739B 20761M 20762M 20762B 20815M 20816M 20816B 20843M 20844M
                                                 20844B 20861M 20862M 20862B 20889M 20890M 20890B 20907M 20908M 20908B
                                                 20935M 20936M 20936B 20953M 20954M 20954B 21031M 21032M 21032B 21059M
                                                 21060M 21060B 21077M 21078M 21078B 21105M 21106M 21106B 21207M 21208M
                                                 21208B 21225M 21226M 21226B 21285M 21286M 21286B 21308M 21309M 21309B
                                                 21326M 21327M 21327B 21347M 21348M 21348B 21365M 21366M 21366B 21420M
                                                 21421M 21421B 21692M 21693M 21693B 21720M 21721M 21721B 21738M 21739M
                                                 21739B 21766M 21767M 21767B 21960M 21961M 21961B 21988M 21989M 21989B
                                                 22006M 22007M 22007B 22034M 22035M 22035B 22052M 22053M 22053B 22089M
                                                 22090M 22090B 22107M 22108M 22108B 22131M 22132M 22132B 22155M 22156M
                                                 22156B 22274M 22277B 22384  22752M 22755B 22774  22880M 22881M 22881B
                                                 22894M 22895M 22895B 22979M 22980M 22980B 23112M 23115B 23156  23286M
                                                 23287M 23287B 23944M 23947B 23964  24042M 24043M 24043B 24067M 24068M
                                                 24068B 24092M 24093M 24093B 24121M 24122M 24122B 24136M 24137M 24137B
                                                 24160M 24161M 24161B 24190M 24191M 24191B 24208M 24209M 24209B 24232M
                                                 24233M 24233B 24274M 24275M 24275B 24289M 24290M 24290B 24313M 24314M
                                                 24314B 24343M 24344M 24344B 24363M 24364M 24364B 24387M 24388M 24388B
                                                 24447M 24448M 24448B 24455M 24456M 24456B 24490M 24493B 24569  24631M
                                                 24632M 24632B 24660M 24661M 24661B 24687M 24688M 24688B 24702M 24703M
                                                 24703B 24728M 24731B 24754  24820M 24821M 24821B 24844M 24845M 24845B
                                                 24896M 24897M 24897B 24907M 24908M 24908B 24941M 24944B 25001  25131M
                                                 25132M 25132B 25143M 25144M 25144B 25227M 25228M 25228B 25235M 25236M
                                                 25236B 25239M 25240M 25240B 25245M 25246M 25246B 25249M 25250M 25250B
                                                 25253M 25254M 25254B 25257M 25258M 25258B 25261M 25262M 25262B 25265M
                                                 25290M 25293B 25310  25404M 25405M 25405B 25527M 25528M 25528B 25602M
                                                 25603M 25603B 25606M 25607M 25607B 25610M 25611M 25611B 25613M 25616M
                                                 25617M 25617B 25621M 25622M 25622B 25646M 25649B 25665  25740M 25741M
                                                 25741B 25775M 25776M 25776B 25787M 25788M 25788B 25900M 25903B 25929
                                                 25967M 25968M 25968B 25972M 25973M 25973B 25977M 25978M 25978B 25982M
                                                 25983M 25983B 25987M 25988M 25988B 25992M 25993M 25993B 26001M 26002M
                                                 26002B 26009M 26010M 26010B 26017M 26018M 26018B 26025M 26026M 26026B
                                                 26034M 26035M 26035B 26042M 26043M 26043B 26072M 26075B 26095  26133M
                                                 26134M 26134B 26138M 26139M 26139B 26143M 26144M 26144B 26148M 26149M
                                                 26149B 26153M 26154M 26154B 26158M 26159M 26159B 26163M 26164M 26164B
                                                 26193M 26196B 26297  26332M 26333M 26333B 26359M 26362B 26379  26460M
                                                 26461M 26461B 26474M 26475M 26475B 26494M 26495M 26495B 26551M 26552M
                                                 26552B 26576M 26577M 26577B 26597M 26598M 26598B 26636M 26637M 26637B
                                                 26654M 26655M 26655B 26679M 26680M 26680B 26737M 26738M 26738B 26827M
                                                 26828M 26828B 26859M 26862B 26920  26981M 26984B 27065  27236M 27237M
                                                 27237B 27318M 27319M 27319B 27342M 27343M 27343B 27404M 27405M 27405B
                                                 27501M 27502M 27502B 27566M 27569B 27646  27698M 27699M 27699B 27813M
1SIGN     (SIGN4072) (12:54) (15MAR04) Ordinary Symbol and Literal Cross Reference                                          Page  106
                                                 27816B 27830  27882M 27883M 27883B 27932M 27933M 27933B 27962M 27965B
                                                 27979  28031M 28032M 28032B 28279M 28282B 28296  28348M 28349M 28349B
                                                 28382M 28385B 28445  28498M 28499M 28499B 28502M 28503M 28503B 28523M
                                                 28524M 28524B 28543M 28544M 28544B 28561M 28562M 28562B 28576M 28577M
                                                 28577B 28620M 28621M 28621B 28635M 28636M 28636B 28660M 28661M 28661B
                                                 28675M 28676M 28676B 28700M 28701M 28701B 28790M 28791M 28791B 28822M
                                                 28823M 28823B 28837M 28838M 28838B 28865M 28868B 28884  28936M 28937M
                                                 28937B 29110M 29111M 29111B 29210M 29211M 29211B 29419M 29420M 29420B
                                                 29447M 29448M 29448B 29451M 29452M 29452B 29470M 29471M 29471B 29498M
                                                 29499M 29499B 29516M 29517M 29517B 29544M 29545M 29545B 29603M 29604M
                                                 29604B 29710M 29711M 29711B 29716M 29717M 29717B 29721M 29722M 29722B
                                                 29727M 29728M 29728B 29743M 29744M 29744B 29747M 29748M 29748B 29752M
                                                 29753M 29753B 29757M 29758M 29758B 29766M 29767M 29767B 29771M 29772M
                                                 29772B 29776M 29777M 29777B 29781M 29782M 29782B 29786M 29787M 29787B
                                                 29910M 29911M 29911B 30086M 30087M 30087B 30112M 30113M 30113B 30127M
                                                 30128M 30128B 30153M 30154M 30154B 30170M 30171M 30171B 30303M 30304M
                                                 30304B 30543M 30544M 30544B 30550M 30551M 30551B 30577M 30578M 30578B
                                                 30606M 30607M 30607B 30615M 30616M 30616B 30637M 30638M 30638B 30677M
                                                 30678M 30678B 30682M 30683M 30683B 30803M 30804M 30804B 30828M 30829M
                                                 30829B 30853M 30854M 30854B 30902M 30903M 30903B 30920M 30921M 30921B
                                                 30938M 30939M 30939B 31002M 31003M 31003B 31067M 31068M 31068B 31104M
                                                 31105M 31105B 31130M 31131M 31131B 31181M 31182M 31182B 31193M 31194M
                                                 31194B 31233M 31234M 31234B 31258M 31259M 31259B 31267M 31268M 31268B
                                                 31294M 31297B 31351  31484M 31485M 31485B 31512M 31513M 31513B 31526M
                                                 31527M 31527B 31591M 31592M 31592B 31654M 31655M 31655B 31682M 31683M
                                                 31683B 31700M 31701M 31701B 31728M 31729M 31729B 31746M 31747M 31747B
                                                 31780M 31781M 31781B 31837M 31838M 31838B 31865M 31866M 31866B 31877M
                                                 31878M 31878B 31987M 31988M 31988B 32022M 32023M 32023B 32033M 32034M
                                                 32034B 32070M 32073B 32148  32247M 32250B
 RCVYCLIN      6 0000510E 00000001     C   31310 29100  29107  29112M 29200  29207  29212M
 RCVYCMD      49 00005104 00000001     X   31314 29129  29129  29402M 32324
 RCVYCMDX     10 00005104 00000001     C   31309 29107  29112M 29207  29212M 31312  31312  31314  31314
 RCVYCMD1     45 00005104 00000001     X   31312 29015  29015  32323
 RCVYFAIL      4 00004C04 00000001     I   29458 29233B
 RCVYLOOP      6 00004B3E 00000001     I   29128 29321B 29357B 29392B
 RCVYSAVE      4 00004BE0 00000001     I   29419 29119B
 RCVYUSE       2 000024F6 00000001     I   18419 18699
 READPW        1 00000000 00000037     T   22308 22308
 RECOVERY      2 00004998 00000001     I   28480 28477
 RETFNAME      1 00000000 0000004F     T   26223 26223
 RLOOKUP       1 00000000 00000014     T   15376 15376
 RMBRANCH      1 00000000 00000000 A   T    8174  8174
 R0            0 00000000 FFFFFFFF A   #     699  2101   2170M  9604   9908M  9912   9923M  9923   9932   9933   9934
                                                  9952M  9990M  9994  10005M 10005  10014  10015  10403M 10517M 10537M
                                                 10571M 10635  10647M 10652  10660  10738M 10742  10753M 10753  10762
                                                 10763  10764  10782M 10818M 10822  10833M 10833  10842  10843  10844
                                                 10879M 10879  10928M 10928  10937  10938  11066M 11066  11075  11076
                                                 11183M 11196  11208M 11213  11221  11299M 11303  11314M 11314  11323
                                                 11324  11325  11343M 11381M 11385  11396M 11396  11405  11406  11821
                                                 11821M 12056  12056M 12464M 12464  12482M 12500M 12525M 12525  12543M
                                                 12561M 12586M 12586  12611M 12611  12629M 12654M 12654  12672M 12690M
                                                 12715M 12715  12733M 12758M 12758  12776M 12794M 12819M 12819  12837M
                                                 12855M 12880M 12880  12905M 12905  12923M 12948M 12948  12973M 12973
                                                 12991M 13009M 13034M 13034  13052M 13077M 13077  13102M 13102  13127M
                                                 13127  13167M 13167  13185M 13203M 13221M 13246M 13246  13271M 13271
                                                 13289M 13307M 13325M 13343M 13361M 13379M 13397M 13415M 13433M 13451M
                                                 13469M 13487M 13505M 13530M 13530  13548M 13566M 13584M 13602M 13620M
                                                 13638M 13656M 13681M 13681  13699M 13724M 13724  13749M 13749  13774M
                                                 13774  13940  14201M 14201  14256M 14658M 14674M 15219M 15237M 15255M
1SIGN     (SIGN4072) (12:54) (15MAR04) Ordinary Symbol and Literal Cross Reference                                          Page  107
                                                 15273M 15291M 15327M 15618M 15844M 15864M 15884  15891  15969M 16024M
                                                 16044M 16064  16578M 16596M 16614M 16641M 16641  16659M 16677M 16695M
                                                 16708M 16751M 16769M 16785M 16805M 16831M 16831  16865M 16890M 16890
                                                 16915M 16915  17119M 17124  17125  17209M 17243M 17277M 17313M 17342M
                                                 17405M 17421M 17486M 17502M 17552M 17568M 17633M 17649M 17665  17676M
                                                 17973M 18009M 18215M 18215  18238M 18272M 18396M 18400  18480M 18517M
                                                 18560M 18560  18617M 18626M 18626  18829M 18851M 18879M 18897M 18925M
                                                 18950M 18950  18975M 18975  18992M 19017M 19033M 19070M 19088M 19116M
                                                 19132M 19169M 19197M 19213M 19250M 19278M 19294M 19331M 19359M 19375M
                                                 19397M 19415M 19440M 19440  19458M 19476M 19501M 19501  19519M 19535M
                                                 19578M 19578  19603M 19603  19628M 19628  19898M 19972M 20000M 20018M
                                                 20046M 20064M 20586M 20639  20692M 20727M 20750M 20804M 20832M 20850M
                                                 20878M 20896M 20924M 20942M 21020M 21048M 21066M 21094M 21110M 21130M
                                                 21153M 21180M 21214M 21230M 21274M 21297M 21297  21315M 21336M 21336
                                                 21354M 21390M 21409M 21409  21425M 21425  21495M 21516M 21516  21576M
                                                 21576  21646M 21667M 21667  21681M 21709M 21727M 21755M 21773M 21949M
                                                 21977M 21995M 22023M 22041M 22078M 22096M 22128M 22869M 22887M 22954
                                                 22965M 22965  22974  22975  22976  23216M 23216  23227  23239M 23244
                                                 23303  23336  23355  23452  23485  23504  23601  23634  23653  23750
                                                 23783  23802  24031M 24056M 24056  24081M 24081  24102M 24102  24123
                                                 24124M 24179M 24205M 24249M 24276  24277M 24332M 24360M 24404M 24418M
                                                 24418  24619  24646M 24646  24647M 24657M 24662  24676M 24691M 24807
                                                 24841M 25054  25073M 25079M 25140M 25159  25224M 25366M 25401M 25410
                                                 25411  25524M 25529  25764M 25784M 25804  25811  25996M 26004M 26012M
                                                 26020M 26029M 26037M 26445M 26445  26454  26455  26540M 26565M 26565
                                                 26625M 26643M 26668M 26668  27137M 27143  27145  27193  27221M 27221
                                                 27230  27231  27315M 27338M 27400M 27684M 27684  27693  27694  27695
                                                 27725  27737M 27742  27868M 27868  27877  27878  27879  27929M 27934
                                                 28017M 28017  28026  28027  28028  28067  28074  28137  28179  28334M
                                                 28334  28343  28344  28345  28567M 28611M 28611  28626M 28651M 28666M
                                                 28691M 28721M 28741M 28762M 28813M 28813  29100M 29200M 29444M 29459M
                                                 29487M 29505M 29533M 29600M 29620  29629  29641M 29646  30077M 30103M
                                                 30118M 30144M 30172  30207M 30209M 30210M 30211M 30215M 30215  30216M
                                                 30225M 30225  30249M 30253  30255  30426M 30426  30446M 30470M 30494M
                                                 30519M 30519  30532M 30532  30539  30540  30540  30540  30566M 30583M
                                                 30674M 30708M 30728M 30752M 30776M 30817M 30817  30842M 30842  30891M
                                                 30909M 30927M 30991M 31036  31056M 31056  31170M 31190M 31210  31230M
                                                 31230  31497M 31497  31506  31507  31551M 31615M 31643M 31671M 31689M
                                                 31717M 31735M 31854M 31874M 31894  31901  31984M 32030M 32329  32329
                                                 32329
 R1            1 00000001 FFFFFFFF A   #     712  2164M  2165M  2171M  9881M  9882   9904M  9911   9919M  9932   9933
                                                  9934   9951M  9986M  9993  10001M 10014  10015  10017  10402M 10516M
                                                 10536M 10570M 10711M 10712  10734M 10741  10749M 10762  10763  10764
                                                 10781M 10814M 10821  10829M 10842  10843  10844  10890M 10891M 10891
                                                 10924M 10937  10938  10940  11062M 11075  11076  11078  11182M 11272M
                                                 11273  11295M 11302  11310M 11323  11324  11325  11342M 11377M 11384
                                                 11392M 11405  11406  11408  11523M 11539M 11815M 12050M 12481M 12499M
                                                 12542M 12560M 12628M 12671M 12689M 12732M 12775M 12793M 12836M 12854M
                                                 12922M 12990M 13008M 13051M 13184M 13202M 13220M 13288M 13306M 13324M
                                                 13342M 13360M 13378M 13396M 13414M 13432M 13450M 13468M 13486M 13504M
                                                 13547M 13565M 13583M 13601M 13619M 13637M 13655M 13698M 13866  13867
                                                 13867  13867  13886M 13898M 14249M 14657M 14673M 14910M 14911M 14911
                                                 15218M 15236M 15254M 15272M 15290M 15326M 15413  15413  15413  15461
                                                 15495M 15549M 15613M 15839M 15959M 15968M 16019M 16083  16294M 16577M
                                                 16595M 16613M 16636M 16658M 16676M 16694M 16712M 16712  16750M 16768M
                                                 16784M 16804M 16864M 16958M 17114M 17208M 17242M 17276M 17312M 17341M
                                                 17404M 17420M 17485M 17501M 17551M 17567M 17632M 17648M 17675M 17699M
                                                 17800M 17861M 17910M 17974M 17979  18002M 18060M 18217M 18217  18237M
                                                 18265M 18328M 18395M 18399  18479M 18516M 18613M 18828M 18850M 18874M
1SIGN     (SIGN4072) (12:54) (15MAR04) Ordinary Symbol and Literal Cross Reference                                          Page  108
                                                 18896M 18920M 18991M 19016M 19032M 19069M 19087M 19111M 19131M 19168M
                                                 19192M 19212M 19249M 19273M 19293M 19330M 19354M 19374M 19396M 19414M
                                                 19457M 19475M 19518M 19534M 19777  19817M 19897M 19971M 19995M 20017M
                                                 20041M 20063M 20383  20384  20384  20384  20385M 20395U 20425M 20507
                                                 20508  20508  20508  20509M 20519U 20549M 20647M 20691M 20726M 20749M
                                                 20803M 20827M 20849M 20873M 20895M 20919M 20941M 21019M 21043M 21065M
                                                 21089M 21109M 21129M 21152M 21179M 21213M 21229M 21273M 21293M 21314M
                                                 21332M 21353M 21389M 21680M 21704M 21726M 21750M 21772M 21948M 21972M
                                                 21994M 22018M 22040M 22077M 22095M 22127M 22321  22321  22321  22864M
                                                 22886M 22953  22961M 22974  22975  22976  23006M 23007M 23007  23283M
                                                 23288  24030M 24128M 24128  24172M 24200M 24242M 24281M 24281  24325M
                                                 24353M 24397M 24633  24663  24834M 24835M 24835  24879M 24888M 24888
                                                 24903M 25074M 25092M 25093  25229  25365M 25396M 25519M 25759M 25997M
                                                 26005M 26013M 26021M 26030M 26038M 26441M 26454  26455  26457  26539M
                                                 26594M 26620M 26642M 27136M 27142  27185M 27192  27217M 27230  27231
                                                 27233  27314M 27337M 27399M 27680M 27693  27694  27695  27864M 27877
                                                 27878  27879  27924M 28013M 28026  28027  28028  28118  28161M 28169M
                                                 28330M 28343  28344  28345  28566M 28607M 28625M 28646M 28665M 28686M
                                                 28720M 28740M 28761M 29107M 29207M 29440M 29458M 29482M 29504M 29528M
                                                 29906M 30072M 30098M 30117M 30139M 30234M 30248  30299M 30445M 30469M
                                                 30493M 30539  30540  30540  30540  30583M 30633M 30673M 30707M 30727M
                                                 30751M 30775M 30890M 30908M 30926M 30984M 31101M 31165M 31228M 31228
                                                 31493M 31506  31507  31509  31550M 31587M 31614M 31642M 31666M 31688M
                                                 31712M 31734M 31849M 31979M 32029M 32329  32329  32329
 R12          12 0000000C FFFFFFFF A   #     855  2127
 R13          13 0000000D FFFFFFFF A   #     868  9494   9927   9928   9929   9944   9945   9946  10009  10010  10011
                                                 10027  10028  10029  10133  10757  10758  10759  10774  10775  10776
                                                 10837  10838  10839  10854  10855  10856  10932  10933  10934  10950
                                                 10951  10952  11070  11071  11072  11088  11089  11090  11318  11319
                                                 11320  11335  11336  11337  11400  11401  11402  11418  11419  11420
                                                 22969  22970  22971  22986  22987  22988  26449  26450  26451  26467
                                                 26468  26469  27225  27226  27227  27243  27244  27245  27688  27689
                                                 27690  27705  27706  27707  27872  27873  27874  27889  27890  27891
                                                 28021  28022  28023  28038  28039  28040  28338  28339  28340  28355
                                                 28356  28357  31501  31502  31503  31519  31520  31521
 R14          14 0000000E FFFFFFFF A   #     881  2102M  9886M  9891M  9891   9910M  9911   9912   9916M  9916   9926M
                                                  9927   9928   9929   9941M  9944   9945   9946   9950M  9951   9952
                                                  9956M  9956   9992M  9993   9994   9998M  9998  10008M 10009  10010
                                                 10011  10016M 10017  10024M 10027  10028  10029  10716M 10721M 10721
                                                 10740M 10741  10742  10746M 10746  10756M 10757  10758  10759  10771M
                                                 10774  10775  10776  10780M 10781  10782  10786M 10786  10820M 10821
                                                 10822  10826M 10826  10836M 10837  10838  10839  10851M 10854  10855
                                                 10856  10931M 10932  10933  10934  10939M 10940  10947M 10950  10951
                                                 10952  11007M 11008  11023  11038  11039  11040  11040  11041  11042
                                                 11055  11059M 11059  11069M 11070  11071  11072  11077M 11078  11085M
                                                 11088  11089  11090  11277M 11282M 11282  11301M 11302  11303  11307M
                                                 11307  11317M 11318  11319  11320  11332M 11335  11336  11337  11341M
                                                 11342  11343  11347M 11347  11383M 11384  11385  11389M 11389  11399M
                                                 11400  11401  11402  11407M 11408  11415M 11418  11419  11420  14672M
                                                 14673  14674  14678M 14678  15885M 16065M 17811M 17816M 17817M 18398M
                                                 18399  18400  18404M 18404  22431M 22952M 22953  22954  22958M 22958
                                                 22968M 22969  22970  22971  22983M 22986  22987  22988  24620M 24641M
                                                 24645M 24647M 24808M 25055M 25079M 25097M 25102M 25102  25805M 26448M
                                                 26449  26450  26451  26456M 26457  26464M 26467  26468  26469  27135M
                                                 27136  27137  27141M 27141  27169M 27174M 27174  27191M 27192  27193
                                                 27197M 27197  27224M 27225  27226  27227  27232M 27233  27240M 27243
                                                 27244  27245  27687M 27688  27689  27690  27702M 27705  27706  27707
                                                 27871M 27872  27873  27874  27886M 27889  27890  27891  28020M 28021
                                                 28022  28023  28035M 28038  28039  28040  28337M 28338  28339  28340
1SIGN     (SIGN4072) (12:54) (15MAR04) Ordinary Symbol and Literal Cross Reference                                          Page  109
                                                 28352M 28355  28356  28357  29621M 31037M 31211M 31500M 31501  31502
                                                 31503  31508M 31509  31516M 31519  31520  31521  31895M
 R15          15 0000000F FFFFFFFF A   #     894  2101   9597M  9598M  9599   9624M  9628M  9637M  9637   9644   9675M
                                                  9685U  9947M  9947  10030M 10030  10042  10052M 10052  10065M 10065
                                                 10190M 10200U 10349M 10359U 10411M 10416M 10426U 10561M 10575M 10575
                                                 10607M 10607  10624M 10624  10660M 10670M 10679M 10679  10686  10777M
                                                 10777  10857M 10857  10868M 10868  10953M 10953  10965  10975M 10975
                                                 10988M 10988  11008M 11017M 11017  11023M 11032M 11032  11038M 11039M
                                                 11041M 11042  11054M 11054  11055  11091M 11091  11103  11113M 11113
                                                 11126M 11126  11187M 11187  11221M 11231M 11240M 11240  11247  11338M
                                                 11338  11421M 11421  11433  11443M 11443  11456M 11456  11505M 11506M
                                                 11507  11546M 11556U 11840M 11840  12075M 12075  12472M 12490M 12508M
                                                 12533M 12551M 12569M 12594M 12619M 12637M 12662M 12680M 12698M 12723M
                                                 12741M 12766M 12784M 12802M 12827M 12845M 12863M 12888M 12913M 12931M
                                                 12956M 12981M 12999M 13017M 13042M 13060M 13085M 13110M 13135M 13175M
                                                 13193M 13211M 13229M 13254M 13279M 13297M 13315M 13333M 13351M 13369M
                                                 13387M 13405M 13423M 13441M 13459M 13477M 13495M 13513M 13538M 13556M
                                                 13574M 13592M 13610M 13628M 13646M 13664M 13689M 13707M 13732M 13757M
                                                 13782M 13811M 13811  13858M 13859M 13859  13866  13867  13867  13867
                                                 13886M 13898M 13902M 13902  14175M 14175  14182M 14240M 14264M 14264
                                                 14286M 14286  14324M 14324  14385M 14385  14446M 14446  14507M 14507
                                                 14568M 14568  14612M 14613M 14613  14648M 14718M 14737M 14737  14803M
                                                 14803  14847M 14866M 14866  14931M 14931  15012M 15012  15031M 15031
                                                 15111M 15111  15130M 15130  15209M 15227M 15245M 15263M 15281M 15317M
                                                 15347M 15347  15413  15413  15413  15604M 15670M 15699M 15699  15809M
                                                 15852M 15884  15891M 15894  15906M 15914M 15923M 15923  15930  15960M
                                                 16006M 16007M 16008  16032M 16064  16201M 16211U 16321M 16331U 16441M
                                                 16586M 16604M 16622M 16649M 16667M 16685M 16703M 16714M 16739M 16759M
                                                 16777M 16855M 16873M 16898M 16923M 17125M 17129M 17138M 17138  17145
                                                 17217M 17251M 17285M 17321M 17395M 17413M 17476M 17494M 17542M 17560M
                                                 17623M 17641M 17684M 17697M 17698  17703M 17712M 17712  17719  17747M
                                                 17815M 17815  17822  17871M 17889M 17903  17936M 17946U 18017M 18140M
                                                 18143  18173M 18183U 18211M 18246M 18280M 18488M 18525M 18568M 18573M
                                                 18583U 18837M 18859M 18887M 18905M 18933M 18958M 18983M 19025M 19078M
                                                 19096M 19124M 19177M 19205M 19258M 19286M 19339M 19367M 19405M 19423M
                                                 19448M 19466M 19484M 19509M 19527M 19561M 19586M 19611M 19636M 19683M
                                                 19683  19906M 19980M 20008M 20026M 20054M 20072M 20098M 20099M 20100
                                                 20383  20384  20384  20384  20416M 20421M 20421  20425M 20447M 20486M
                                                 20486  20507  20508  20508  20508  20540M 20545M 20545  20549M 20610M
                                                 20611M 20612  20700M 20735M 20758M 20770M 20773  20812M 20840M 20858M
                                                 20886M 20904M 20932M 20950M 21028M 21056M 21074M 21102M 21204M 21222M
                                                 21282M 21305M 21323M 21344M 21362M 21417M 21426M 21436U 21442M 21461M
                                                 21461  21489U 21577M 21587U 21593M 21612M 21612  21640U 21689M 21717M
                                                 21735M 21763M 21957M 21985M 22003M 22031M 22049M 22086M 22104M 22158
                                                 22276M 22276  22321  22321  22321  22430M 22430  22583M 22720M 22754M
                                                 22754  22877M 22891M 22891  22989M 22989  22998M 22998  23052M 23062U
                                                 23114M 23114  23244M 23248M 23257M 23257  23264  23288M 23422M 23422
                                                 23571M 23571  23720M 23720  23869M 23869  23888M 23910M 23946M 23946
                                                 24039M 24064M 24089M 24132M 24157M 24187M 24229M 24285M 24310M 24340M
                                                 24384M 24444M 24492M 24492  24619  24628M 24651M 24652M 24653  24684M
                                                 24699M 24730M 24730  24807  24904M 24915M 24916M 24917  24943M 24943
                                                 25054  25078M 25078  25128M 25159M 25162  25174M 25182M 25191M 25191
                                                 25198  25292M 25292  25411M 25415M 25424M 25424  25431  25648M 25648
                                                 25737M 25772M 25804  25811M 25814  25826M 25834M 25843M 25843  25850
                                                 25902M 25902  25964M 25969M 25974M 25979M 25984M 25989M 25995M 26003M
                                                 26011M 26019M 26028M 26036M 26048M 26048  26074M 26074  26130M 26135M
                                                 26140M 26145M 26150M 26155M 26160M 26169M 26169  26195M 26195  26361M
                                                 26361  26470M 26470  26548M 26573M 26633M 26651M 26676M 26697M 26707U
                                                 26791M 26801U 26861M 26861  26983M 26983  27246M 27246  27255M 27255
1SIGN     (SIGN4072) (12:54) (15MAR04) Ordinary Symbol and Literal Cross Reference                                          Page  110
                                                 27282M 27328M 27328  27339M 27352M 27352  27365M 27401M 27414M 27414
                                                 27427M 27511M 27511  27524M 27568M 27568  27708M 27708  27717M 27717
                                                 27742M 27743  27747M 27756M 27756  27763  27785M 27785  27815M 27815
                                                 27892M 27892  27901M 27901  27915M 27964M 27964  28041M 28041  28050M
                                                 28050  28074M 28078M 28087M 28087  28094  28123M 28123  28137  28158M
                                                 28179  28185  28189M 28198M 28198  28205  28231M 28231  28247M 28281M
                                                 28281  28358M 28358  28384M 28384  28558M 28573M 28578M 28588U 28594M
                                                 28607  28617M 28632M 28657M 28672M 28697M 28751M 28752M 28752  28787M
                                                 28819M 28867M 28867  28969M 28970M 28970  29064M 29074U 29080M 29089M
                                                 29164M 29174U 29180M 29189M 29260M 29278M 29283  29284  29467M 29495M
                                                 29513M 29541M 29620  29646M 29650M 29659M 29659  29666  29763M 29763
                                                 30083M 30109M 30124M 30150M 30246M 30248M 30253  30255M 30256  30546M
                                                 30574M 30603M 30634M 30640M 30650U 30800M 30825M 30850M 30899M 30917M
                                                 30935M 30999M 31036  31064M 31080M 31081M 31082  31178M 31210  31296M
                                                 31296  31522M 31522  31651M 31679M 31697M 31725M 31783  31785M 31795U
                                                 31834M 31862M 31894  31901M 31904  31916M 31924M 31933M 31933  31940
                                                 31970M 32072M 32072  32249M 32249
 R2            2 00000002 FFFFFFFF A   #     725 17819M 17820M 17821M 20364M 20572  20573  20573  20573  20574M 20592
                                                 20598M 20713M 20713  20721M 21287M 21293  21379  22326  22326  22326
                                                 22425M 22431M 22509M 22519M 22519  22526M 22531M 22532  22551M 22577M
                                                 22583  22659M 22668M 22669M 22670  22689M 22714M 22720  23355M 23356M
                                                 23359  23371M 23380M 23389M 23389  23396  23504M 23505M 23508  23520M
                                                 23529M 23538M 23538  23545  23653M 23654M 23657  23669M 23678M 23687M
                                                 23687  23694  23802M 23803M 23806  23818M 23827M 23836M 23836  23843
                                                 24123M 24276M 25071M 25081  25350M 25360  25998M 26006M 26014M 26022M
                                                 26031M 26039M 27142M 27165M 29563M 29573U 30061M 30083  30109  30124
                                                 30150
 R3            3 00000003 FFFFFFFF A   #     738 17819M 17822M 17843  17903  20572  20573  20573  20573  20576M 20598M
                                                 21821M 21821  21904M 21938M 21938  22326  22326  22326  22426M 22552M
                                                 22574M 22666M 22668  22690M 22712M 24130M 24130  24283M 24283  27143M
 R4            4 00000004 FFFFFFFF A   #     751  9602M 16091M 16101U 17827M 17827  17828M 17829M 17854M 17854  17979M
                                                 18037  18052  21822M 21832U 21850  21913M 22162M 22172U 22450M 22460U
                                                 22479  22537M 22606M 22616U 22635  22675M 24255M 27144M 27165M 29218M
                                                 29230  29247M 29247  29254M 29295U 29891M 29912M 29912  29921M 29921
                                                 29931M
 R5            5 00000005 FFFFFFFF A   #     764  9604M  9607   9619M  9624   9701   9705M  9714M  9714   9721  15461M
                                                 15469U 19787M 19795U 22421M 22425  22531  22552  22669  22690  27145M
                                                 27148  27160M 29863M 29874U
 R6            6 00000006 FFFFFFFF A   #     777  9508M  9517U 10173M 15471M 15481U 16524M 16534U 17079M 17087U 19777M
                                                 19785U 22418M 22419M 22422  22727  26421M 26429U 27108M 27116U 29789M
                                                 29797U 31557M 31567U
 R7            7 00000007 FFFFFFFF A   #     790  2094M  2094   2095B  2107B  9495M  9505U 10134M 10147U
 R8            8 00000008 FFFFFFFF A   #     803  9494M 10133M 23194U 26417U 27103U 31389U
 SAMINIT       1 00000000 00000050     T   26224 26224
 SCANCHK       1 00000000 00000057     T   28404 28404  32317
 SCDQUOTE      1 00000000 0000001B     T   15390 15390  28418
 SCINIT        1 00000000 00000003     T   11595 11595  32277
 SCNINVAL      1 00000000 00000056     T   26908 26908
 SCNNOOP       1 00000000 0000000E     T   11976 11976
 SDSNQSZ       1 0000002C FFFFFFEC A   U    6082  6083   6084
 SEG           1 00000000 00000005     T   11602 11602  15379  18671  19695  22305  24524  26228  32269
 SEGB          1 00000000 00000007     T   11604 11604  15394  18688  22313  32302
 SEGCB        60 00000000 FFFFFFE7     J    7304 30062  32325
 SEGCBCOD      1 00000000 FFFFFFE7     R    7215  7224   7234   7244   7254   7264   7274   7284
 SEGCLR        1 00000000 00000024     T   18670 18670  26209  32268
 SEGCR         1 00000000 00000015     T   15378 15378  18682  19697  22312  24520  28406  32307
 SEGDC         1 00000000 0000002A     T   18683 18683  22315  32270
 SEGINIT       1 00000000 00000042     T   24966 24966  32294
 SEGINITR      1 00000000 00000043     T   24968 24968
1SIGN     (SIGN4072) (12:54) (15MAR04) Ordinary Symbol and Literal Cross Reference                                          Page  111
 SEGT          1 00000000 00000034     T   19696 19696  32295
 SEGTB         1 00000000 0000003A     T   22311 22311  24509  28409
 SEGWR         1 00000000 00000016     T   15380 15380  18685  19701  22304  24521  28407  32272
 SERVFREE      1 00000000 00000067     T   32289 32289
 SET           1 00000000 00000010     T   12151 12151
 SETLOGON      2 00005136 00000001     H   31344 31340
 SETPARM       1 00000000 0000001F     T   15398 15398
 SETPRT        1 00000000 0000001D     T   15396 15396
 SETTTYPE      1 00000000 00000018     T   15386 15386  18680
 SHOW          1 00000000 00000011     T   12166 12166
 SHOWBKUP      1 00000000 0000003E     T   24526 24526
 SIBACCT       5 00000070 FFFFFFE8     C    6790  6953   6953
 SIBCRI        2 000000F0 FFFFFFE8     H    7180  7185   7185
 SIBFL         1 00000040 FFFFFFE8     R    6528  6532   6537   6542   6547   6552
 SIBFLG        1 000000B4 FFFFFFE8     R    7068  7072   7077   7082   7087   7092   7097   7102   7107
 SIBFLG2       1 000000B5 FFFFFFE8     R    7113  7117   7122   7127
 SIBFL2        1 00000041 FFFFFFE8     R    6558  6562   6567   6572   6577
 SIBFL3        1 00000042 FFFFFFE8     R    6583  6587   6592   6597
 SIBFL4        1 00000043 FFFFFFE8     R    6603  6607   6612   6617
 SIBFL5        1 00000044 FFFFFFE8     R    6623  6627   6632   6637
 SIBKAFL       1 0000007B FFFFFFE8     R    6924  6928   6933   6938   6943   6948
 SIBKIFL       1 0000007A FFFFFFE8     R    6879  6883   6888   6893   6898   6903   6908   6913   6918
 SIBOFLAG      1 000000D2 FFFFFFE8     R    7138  7142   7147   7152   7157   7162
 SIBOPST       4 00000080 FFFFFFE8     F    6958  7187   7187
 SIBPORT       8 00000010 FFFFFFE8     C    6522  6642   6642
 SIBQFLG       1 000000A8 FFFFFFE8     R    6987  6991
 SIBSFLG       1 00000077 FFFFFFE8     R    6797  6801   6806   6811   6816   6821   6826
 SIBSTART      4 00000000 FFFFFFE8     F    6514  6518   6518   6954   6954   7059   7059   7191   7191
 SIBSTAT       1 0000004B FFFFFFE8     R    6734  6738   6743   6748   6753   6758   6763   6768
 SIBTACF       1 00000078 FFFFFFE8     R    6832  6836   6841   6846   6851   6856   6861   6866   6871
 SIBTFLAG      1 000000A6 FFFFFFE8     R    6965  6969   6974   6979
 SIBTYPE       1 00000048 FFFFFFE8     R    6647  6656   6666   6676   6686   6696   6706   6716   6726
 SIBUFLG       1 000000AA FFFFFFE8     R    7002  7006   7011   7016   7021   7026   7031   7036   7041
 SIBUFLG2      1 000000AB FFFFFFE8     R    7047  7051   7056
 SIBVPGM       8 00000058 FFFFFFE8     C    6780  6786   6786
 SIB1ST        4 00000048 FFFFFFE8     F    6644  7189   7189
 SIGNB         2 000000DE 00000001     I    9763  9742B
 SIGNBASE      2 000000E0 00000001     H    9779 10165U 11598
 SIGNCLR       2 00000246 00000001     H   10120 10071B 10091B 10104B
 SIGNCMD       4 00000C0C 00000001     F   12079 15377
 SIGNCPRT      4 00000A1C 00000001     F   11844 15375
 SIGNCPSH      2 000009E4 00000001     H   11780 11691  11755
 SIGNDONE      2 00005054 00000001     H   31077 29816B 29837B
 SIGNERR       2 000016D4 00000001     H   15139 15392
 SIGNK         4 00000772 00000001     I   11523 10116B 10320B
 SIGNKNO       4 00002E90 00000001     I   20572 20448B
 SIGNKWL       4 00002E54 00000001     I   20502 20740B
 SIGNKWR     504 00000010 FFFFFFDB     X    9479 15471  16201  16524  17079  19787
 SIGNLGF       4 00000792 00000001     I   11546 10456B 10627B 11193B
 SIGNLOG       4 0000075E 00000001     I   11505 11165B
 SIGNLOOP      2 000002EC 00000001     H   10328 10610B 10999B 11192B 11482B 11495B
 SIGNOFF       2 00004AB6 00000001     I   28919 28411  28916  32273
 SIGNON        2 00000018 00000001     H    9493  9491  32311
 SIGNPASS      8 00000000 FFFFFFDB     C    9475 10338M 10338  10503M 10503  14912M 20375M 20375  20438  20447
 SIGNPRT       4 00000944 00000001     F   11713 11607
 SIGNPRT1      4 0000087C 00000001     F   11634 11596
 SIGNPSH       2 00000BD4 00000001     H   12015 11661  11740
 SIGNRES       2 0000024C 00000001     H   10132 10130
 SIGNSTD       2 0000024C 00000001     H   10127  9831B  9873B
1SIGN     (SIGN4072) (12:54) (15MAR04) Ordinary Symbol and Literal Cross Reference                                          Page  112
 SIGNSYS       8 00000008 FFFFFFDB     C    9477 16217M 16236M 16236  16243M 16261  16294  16320
 SIGNWA      520 00000000 FFFFFFDB     J    9486  9509   9517U  9525M  9525   9526M  9526   9527M  9527  10174  10181M
                                                 10181  10182M 10182  10183M 10183  11523  11539  15469U 19785U
 SIGN4072      1 00000000 00000001     R    1004  1002
 SKIPWCHK      2 00004E84 00000001     H   30373 29924B 30321B 30341B
 SLOGKWR     504 00000000 FFFFFFD7     X   31328 31557
 SLOGPRT       4 00005384 00000001     F   32079 32315
 SLOGRET       2 00005424 00000001     H   32142 32091
 SLOGWA      504 00000000 FFFFFFD7     J   31335 31357  31389U 32068  32070  32071
 SMFHDR       56 00000000 FFFFFFDF     J    9259  9271
 SMFSTRT       2 00000004 FFFFFFDF     H    9234  9252   9252
 SMFWSECL      1 00000002 FFFFFFDE A   U    9292 20586
 SPR          13 0000000D 00000001 A   #    1118 11786  11789  11790  11791M 11791  11832M 11836  11838  12021  12024
                                                 12025  12026M 12026  12067M 12071  12073  12399  12402  12403  12404M
                                                 12404  13803M 13807  13809  13827  13830  13831  13832M 13832  14316M
                                                 14320  14322  14337  14340  14341  14342M 14342  14377M 14381  14383
                                                 14398  14401  14402  14403M 14403  14438M 14442  14444  14459  14462
                                                 14463  14464M 14464  14499M 14503  14505  14520  14523  14524  14525M
                                                 14525  14560M 14564  14566  14581  14584  14585  14586M 14586  14729M
                                                 14733  14735  14750  14753  14754  14755M 14755  14795M 14799  14801
                                                 14816  14819  14820  14821M 14821  14858M 14862  14864  14879  14882
                                                 14883  14884M 14884  14923M 14927  14929  14944  14947  14948  14949M
                                                 14949  15023M 15027  15029  15044  15047  15048  15049M 15049  15122M
                                                 15126  15128  15145  15148  15149  15150M 15150  15339M 15343  15345
                                                 18747  18750  18751  18752M 18752  19675M 19679  19681  19745  19748
                                                 19749  19750M 19750  22268M 22272  22274  22384  22387  22388  22389M
                                                 22389  22746M 22750  22752  22774  22777  22778  22779M 22779  23106M
                                                 23110  23112  23156  23159  23161  23162M 23162  23938M 23942  23944
                                                 23964  23967  23968  23969M 23969  24484M 24488  24490  24569  24572
                                                 24573  24574M 24574  24722M 24726  24728  24754  24757  24758  24759M
                                                 24759  24935M 24939  24941  25001  25004  25005  25006M 25006  25284M
                                                 25288  25290  25310  25313  25314  25315M 25315  25640M 25644  25646
                                                 25665  25668  25669  25670M 25670  25894M 25898  25900  25929  25932
                                                 25933  25934M 25934  26066M 26070  26072  26095  26098  26099  26100M
                                                 26100  26187M 26191  26193  26297  26300  26301  26302M 26302  26353M
                                                 26357  26359  26379  26382  26384  26385M 26385  26853M 26857  26859
                                                 26920  26923  26924  26925M 26925  26975M 26979  26981  27065  27068
                                                 27070  27071M 27071  27560M 27564  27566  27646  27649  27650  27651M
                                                 27651  27807M 27811  27813  27830  27833  27834  27835M 27835  27956M
                                                 27960  27962  27979  27982  27983  27984M 27984  28273M 28277  28279
                                                 28296  28299  28300  28301M 28301  28376M 28380  28382  28445  28448
                                                 28449  28450M 28450  28859M 28863  28865  28884  28887  28888  28889M
                                                 28889  31288M 31292  31294  31351  31354  31356  31357M 31357  32064M
                                                 32068  32070  32148  32151  32152  32153M 32153  32241M 32245  32247
 SYSCHECK      1 00000000 00000029     T   18678 18678  28408
 TCNTL         1 00000000 00000025     T   18672 18672  26210  32279
 TCPSLP        4 00001EFC 00000001     I   16006 16084B
 TERMSEG       1 00000000 0000003F     T   24665 24967
 TLOGOFF       1 00000000 0000006D     T   32312 32312
 TOUPPER       1 00000000 0000003C     T   24513 24513
 TRC           1 00000000 00000000 A   T    2123  2123
 TREAD         1 00000000 00000008     T   11605 11605  24510
 TREADQ        1 00000000 00000009     T   11608 11608
 TSGBUFGT      1 00000000 00000041     T   24965 24965
 TSGBUFRE      1 00000000 00000045     T   24970 24970
 TSTAT         1 00000000 00000006     T   11603 11603
 TSUBOFF       1 00000000 0000006B     T   32303 32303
 TTYFLAG       1 00000004 FFFFFFEA     R    6211  6215
 TTYMAX#       1 00000006 FFFFFFEA A   U    6267  6268
1SIGN     (SIGN4072) (12:54) (15MAR04) Ordinary Symbol and Literal Cross Reference                                          Page  113
 TTYTFLAG      1 00000005 FFFFFFEA     R    6221  6225   6230   6235   6240   6245   6250   6255
 UPDCPSIB      1 00000000 00000019     T   15388 15388  18681
 UPPTBL        1 00000000 00000000 A   T    2186  2186
 USE           1 00000000 00000032     T   18700 18700
 USEBLOCK      1 0000000F FFFFFFE2     X    8680 21495  21646
 USERCVT     863 00000000 FFFFFFE2     J    8724 21489U 21640U
 VETSFREE      1 00000000 00000065     T   32286 32286
 VFLG1         1 00000008 FFFFFFDC     X    9402 29318
 VF1AVAIL      1 00000040 FFFFFFDC A   U    9405 29310
 VF1ON         1 00000001 FFFFFFDC A   U    9411 29316
 VF1PRES       1 00000080 FFFFFFDC A   U    9404 29313
 VNAME         6 00000002 FFFFFFDC     C    9400 29354  29389  29402
 VOL          68 00000000 FFFFFFDC     U    9451 29260  29295U
 VOLDSECT      1 00000000 FFFFFFDC     J    9398  9451   9451
 VOLOPNS       2 00000010 FFFFFFDC     H    9428  9435   9435
 VOLOWNF1      1 00000030 FFFFFFDC     X    9446  9450   9450
 WAITER        1 00000000 00000035     T   22306 22306
 WAR           8 00000008 00000001 A   #    1041 11790M 11821  11832  12025M 12056  12067  12403M 13803  13831M 14316
                                                 14341M 14377  14402M 14438  14463M 14499  14524M 14560  14585M 14729
                                                 14754M 14795  14820M 14858  14883M 14923  14948M 15023  15048M 15122
                                                 15149M 15339  18751M 19675  19749M 22268  22388M 22746  22778M 23106
                                                 23161M 23938  23968M 24484  24573M 24722  24758M 24935  25005M 25284
                                                 25314M 25640  25669M 25894  25933M 26066  26099M 26187  26301M 26353
                                                 26384M 26853  26924M 26975  27070M 27560  27650M 27807  27834M 27956
                                                 27983M 28273  28300M 28376  28449M 28859  28888M 31288  31356M 32064
                                                 32152M 32241
 WTOSG         1 00000000 00000000 A   T    2083  2083
 WYLSIGN       1 00000000 00000001     J     995   997   1023   1036   1049   1061   1074   1087   1100   1113   1126
                                                  1139   2367   2451   6191   6303   6500   7199   7305   9455   9487
                                                  9657   9734
 XCTL          1 00000000 00000013     T   12196 12196  12211  12226  12241  12256
 YESREQ        1 00000000 0000003B     T   22318 22318
 =A(CHKSPID)
               4 00001970 00000001     A   15391 14276
 =A(CHKSPID)
               4 00004924 00000001     A   28414 27318
 =A(CHKWORD)
               4 000007EC 00000001     A   11611 11536
 =A(CKACCT)
               4 000007E4 00000001     A   11609 11526
 =A(DOLOGMSG)
               4 000007E8 00000001     A   11610 11531
 =A(DOLOGMSG)
               4 00002AF4 00000001     A   19702 19644
 =A(ELFPRT)
               4 00004920 00000001     A   28413 27232
 =A(FINBASE)
               4 0000265C 00000001     A   18701 18438
 =A(FREERECS)
               4 00005570 00000001     A   32292 29786
 =A(GETUSRNO)
               4 000033B8 00000001     A   22319 22155
 =A(GETUSRNO)
               4 000055D8 00000001     A   32318 31780
 =A(GREET)
               4 000007C0 00000001     A   11600 10187
 =A(INITCP)
               4 000000CC 00000001     A    9753  9666
 =A(INITDFLT)
1SIGN     (SIGN4072) (12:54) (15MAR04) Ordinary Symbol and Literal Cross Reference                                          Page  114
               4 000007C4 00000001     A   11601 10259
 =A(INITDFLT)
               4 000025FC 00000001     A   18677 16181
 =A(INITRECS)
               4 00004158 00000001     A   26213 25235
 =A(INITRECS)
               4 000054F4 00000001     A   32265 28502
 =A(L'CHKSPAC)
               4 00003A9C 00000001     A   24512 23227  23239
 =A(L'CPAUTHID)
               4 00004938 00000001     A   28419 28067
 =A(L'CPS)
               4 00004198 00000001     A   26229 25814  25826
 =A(L'CPSIB)
               4 00004150 00000001     A   26211 25162  25174
 =A(L'CPSIB)
               4 00005540 00000001     A   32280 29629  29641
 =A(L'CPSINFO)
               4 000025EC 00000001     A   18673 15894  15906
 =A(L'CPSINFO)
               4 000055DC 00000001     A   32319 31904  31916
 =A(L'CPSPROJ)
               4 00003AAC 00000001     A   24516 23359  23371  23508  23520  23657  23669  23806  23818
 =A(L'LGNTEXT)
               4 0000491C 00000001     A   28412 27148  27160
 =A(L'LGNWACCT)
               4 00004930 00000001     A   28417 27725  27737
 =A(LOGFIN)
               4 000007F0 00000001     A   11612 11542
 =A(LOGON)
               4 000048F0 00000001     A   28401 26332
 =A(LOGPRT)
               4 000048F4 00000001     A   28402 26456
 =A(RCVYUSE)
               4 00002654 00000001     A   18699 18405
 =A(SIGNBASE)
               4 000007B8 00000001     A   11598 10153
 =A(SIGNCMD)
               4 000018C0 00000001     A   15377 12050
 =A(SIGNCPRT)
               4 000018B8 00000001     A   15375 11815
 =A(SIGNERR)
               4 00001974 00000001     A   15392 14299
 =A(SIGNOFF)
               4 00004918 00000001     A   28411 26827
 =A(SIGNOFF)
               4 00005524 00000001     A   32273 28837
 =A(SIGNON)
               4 000055BC 00000001     A   32311 31233
 =A(SIGNPRT)
               4 000007DC 00000001     A   11607 10939  11077  11407
 =A(SIGNPRT1)
               4 000007B0 00000001     A   11596 10016
 =A(SLOGPRT)
               4 000055CC 00000001     A   32315 31508
 =A(TERMSEG)
               4 00003CD8 00000001     A   24967 24691
 =A(X'7FFF')
               4 00005590 00000001     A   32300 30249
1SIGN     (SIGN4072) (12:54) (15MAR04) Ordinary Symbol and Literal Cross Reference                                          Page  115
 =A(1)         4 00002630 00000001     A   18690 17665
 =A(1)         4 00003A88 00000001     A   24507 22574  22577  22712
 =A(1)         4 0000493C 00000001     A   28420 28158  28161
 =A(1)         4 0000558C 00000001     A   32299 30234
 =A(1000000/64*60*60*24)
               4 00002638 00000001     A   18692 17817  17821
 =A(235)       4 000000C8 00000001     A    9752  9607   9619
 =A(235)       4 000007D8 00000001     A   11606 10635  10647  11196  11208
 =A(3)         4 00001960 00000001     A   15387 13940
 =A(4)         4 000007B4 00000001     A   11597 10042  10965  11103  11433
 =A(40960000)
               4 00005584 00000001     A   32297 30211
 =A(5)         4 00003AA4 00000001     A   24514 23303  23601
 =A(6)         4 00003AA8 00000001     A   24515 23336  23634
 =A(60*60*100/10)
               4 00005588 00000001     A   32298 30216
 =A(7)         4 00003AB8 00000001     A   24519 23750
 =A(8)         4 00003AB0 00000001     A   24517 23452  23783
 =A(9)         4 00003AB4 00000001     A   24518 23485
 =A(9999)      4 00002640 00000001     A   18694 17843
 =AL2(CPINITL)
               2 000041C2 00000001     R   26240 25074
 =AL2(CPSEGDF#)
               2 00003CF6 00000001     R   24975 24657
 =AL2(CPXSIZE)
               2 00003CF4 00000001     R   24974 24645  24652  24916
 =AL2(L'RCVYCMD+6)
               2 000055FA 00000001     R   32324 29412
 =AL2(L'RCVYCMD1)
               2 000055F8 00000001     R   32323 29118
 =AL2(34+18)
               2 000033E4 00000001     R   22322 20580
 =AL2(5)       2 000007F8 00000001     R   11615 10392
 =AL4(255-KWRIFVAL)
               4 0000263C 00000001     R   18693 17829
 =C'                     Forsythe '
              30 00002B7E 00000001     C   19708 19518
 =C'                     Welcome '
              29 00002C13 00000001     C   19719 19396
 =C'                Information '
              28 00002AD4 00000001     C   19700 19457
 =C'  or send email to GB.ACC@forsythe'
              34 0000346E 00000001     C   22331 21229
 =C'  Account limit exceeded.'
              25 000034FB 00000001     C   22338 21389
 =C'  Contact security '
              19 0000272C 00000001     C   18716 16768
 =C'  Contact: ITSS Account Services at (650) 723-4795 '
              51 000034C1 00000001     C   22336 21213
 =C'  The last attempt was on '
              26 00002672 00000001     C   18704 16694
 =C'  There were '
              13 00002701 00000001     C   18713 16613
 =C' - Type a terminal type, to set '
              32 00001778 00000001     C   15364 12775
 =C' - Type FOLIO to search Folio '
              30 00001A0A 00000001     C   15403 12671
 =C' - Type LOGOFF to end your session.'
              35 00001C1B 00000001     C   15421 12922
1SIGN     (SIGN4072) (12:54) (15MAR04) Ordinary Symbol and Literal Cross Reference                                          Page  116
 =C' - Type PRISM to enter Prism under general access.'
              50 00001A28 00000001     C   15404 12732
 =C' - Type SHOW TERMINAL to see the '
              33 00001BFA 00000001     C   15420 12836
 =C' '         1 0000563F 00000001     C   32333 28625
 =C' and CitaDel files'
              18 00001A98 00000001     C   15408 13324
 =C' can''t be used on the '
              22 00003430 00000001     C   22328 20895
 =C' does not exist.'
              16 00003330 00000001     C   22300 20063
 =C' does not exist.'
              16 000054E0 00000001     C   32263 31734
 =C' has no Active files'
              20 0000550C 00000001     C   32271 28761
 =C' hours.'
               7 000034F4 00000001     C   22337 21353
 =C' if you need more information.'
              30 0000268E 00000001     C   18706 16864
 =C' is not available.'
              18 00004942 00000001     C   28422 26642
 =C' of '      4 000033AC 00000001     C   22316 21314
 =C' password 12345678'
              18 00003408 00000001     C   22324 20582
 =C' unsuccessful logon attempts '
              29 0000270E 00000001     C   18714 16658
 =C' will be recovered'
              18 000055E4 00000001     C   32321 28740
 =C' will be skipped'
              16 00005470 00000001     C   32259 28720
 =C'.'         1 0000272B 00000001     C   18715 16750
 =C'.'         1 000034A6 00000001     C   22333 20017  20749  20849  21065  21726  21994
 =C'.'         1 00005640 00000001     C   32334 28665  29504  31688
 =C'.L'        2 000055F6 00000001     C   32322 29112  29212
 =C'*  type CALL RLIN (AUT) for RLIN Authority file '
              48 000017D8 00000001     C   15367 13342
 =C'*  type CALL RLIN (CAT) for the RLIN Cataloging '
              48 00001808 00000001     C   15368 13378
 =C'*  type CALL RLIN (CON) for RLG Conspectus Online '
              50 00001AB0 00000001     C   15410 13414
 =C'*  type CALL RLIN (ILL) for RLIN Interlibrary Loan '
              51 00001C96 00000001     C   15424 13450
 =C'*  type CALL RLIN (SCI) for SCIPIO Arts Sales Catalog '
              54 00001AE2 00000001     C   15411 13486
 =C'*  type EUREKA for Eureka search access to RLIN BIB'
              51 00001C63 00000001     C   15423 13306
 =C'*** Test MILTEN Version ***'
              27 00003B1A 00000001     C   24541 24030
 =C').'        2 00002B66 00000001     C   19706 19131  19212  19293  19374
 =C'-'         1 00002BC6 00000001     C   19712 18896
 =C'-'         1 00005686 00000001     C   32342 30117
 =C', Re-enter.'
              11 000034A7 00000001     C   22334 20726
 =C','         1 0000277D 00000001     C   18721 17420  17501  17567  17648
 =C': invalid.  Type ? for more information.'
              40 00001890 00000001     C   15374 15326
 =C': invalid.'
              10 00001B30 00000001     C   15414 15218
 =C''''        1 00002785 00000001     C   18723 17675
1SIGN     (SIGN4072) (12:54) (15MAR04) Ordinary Symbol and Literal Cross Reference                                          Page  117
 =C'access is restricted... '
              24 00003A58 00000001     C   24502 22886
 =C'access'
               6 00001AAA 00000001     C   15409 13360  13396  13432  13468  13504
 =C'at (650) 725-7516'
              17 0000273F 00000001     C   18717 16784
 =C'at 1-800-537-7546'
              17 00002750 00000001     C   18718 16804
 =C'characters, a period, and three characters.'
              43 00001B85 00000001     C   15417 12560
 =C'current terminal settings.'
              26 00001A5A 00000001     C   15405 12854
 =C'does not have terminal access.'
              30 00003446 00000001     C   22329 21109
 =C'enter ? for more '
              17 00001D83 00000001     C   15433 15254
 =C'for this session.'
              17 0000354F 00000001     C   22342 22095
 =C'has expired.'
              12 0000339C 00000001     C   22314 21152
 =C'if you don''t have a Forsythe account.'
              37 00001BB0 00000001     C   15418 12689
 =C'in progress, logon not allowed... '
              34 0000080C 00000001     C   11617 10570
 =C'information, or enter STOP to leave the '
              40 00001868 00000001     C   15373 15272
 =C'is already logged on.'
              21 0000353A 00000001     C   22341 22040
 =C'is not a valid printer name.'
              28 00001980 00000001     C   15395 14657
 =C'is not valid for the day block.'
              31 0000351B 00000001     C   22340 21772
 =C'is over budget.'
              15 000034B2 00000001     C   22335 21179
 =C'machine.'
               8 00003340 00000001     C   22301 20941
 =C'of The Research Libraries Group, Inc., contact the '
              51 00001CFE 00000001     C   15426 13583
 =C'or visit our Web site at http://www.rlg.org'
              43 00001D44 00000001     C   15428 13698
 =C'since your last session.'
              24 00002580 00000001     C   18660 16676
 =C'suspended.'
              10 00003464 00000001     C   22330 21129
 =C'the format "gg.uuu", that is, two '
              34 000019DA 00000001     C   15401 12542
 =C'the online resources'
              20 00001928 00000001     C   15383 13565
 =C'to Stanford University'
              22 00002B68 00000001     C   19707 19414
 =C'xx.yyy'
               6 00001A92 00000001     C   15407 13202
 =C'your terminal type before logging on.'
              37 00001BD5 00000001     C   15419 12793
 =C'Account '
               8 00003328 00000001     C   22299 19971  20803  21019
 =C'Account '
               8 000054D8 00000001     C   32262 31642
 =C'Account'
1SIGN     (SIGN4072) (12:54) (15MAR04) Ordinary Symbol and Literal Cross Reference                                          Page  118
               7 00000868 00000001     C   11620 11182
 =C'Account'
               7 00003514 00000001     C   22339 21680  21948
 =C'At the prompt "Command>"'
              24 000017C0 00000001     C   15366 13288
 =C'ACTIVE file(s) recovered.'
              25 0000279C 00000001     C   18726 18479
 =C'ACTIVE saved by recovery last session.'
              38 000026D0 00000001     C   18709 18516
 =C'ACTIVE RECOVERY MULTIPLE'
              24 000025B8 00000001     C   18665 18395
 =C'Command'
               7 000041D2 00000001     C   26248 25365
 =C'Connecting to port '
              19 00002BB3 00000001     C   19711 18850
 =C'CP  '      4 00003CCC 00000001     C   24964 24649
 =C'CP'        2 00003CF8 00000001     C   24976 24798
 =C'CP'        2 000041C0 00000001     C   26239 25045
 =C'E-mail: bl.ric@rlg.org'
              22 00001B18 00000001     C   15412 13637
 =C'End of printer session.'
              23 00005715 00000001     C   32351 30775
 =C'End of session.'
              15 000056E0 00000001     C   32348 30707
 =C'End of VISTA session.'
              21 00004956 00000001     C   28424 26539
 =C'Enter ? for information on access to RLIN.'
              42 00002B3C 00000001     C   19705 19032
 =C'Enter an RLIN account in the form GG.UUU, '
              42 00001B3A 00000001     C   15415 15236
 =C'Enter your Data Center account.  '
              33 00001B64 00000001     C   15416 12481
 =C'EXEC FROM #LOGON QUIET '
              23 00002766 00000001     C   18720 17242
 =C'EXEC FROM LIB#NEWLOGON PUBLIC '
              30 000026AC 00000001     C   18707 17208
 =C'Fax: 415.964.0943 (Attn:RIC)'
              28 0000193C 00000001     C   15384 13655
 =C'For information about obtaining an account to search '
              53 00001CC9 00000001     C   15425 13547
 =C'FOLEN'
               5 00001D79 00000001     C   15431 14488
 =C'FOLEN'
               5 00003B09 00000001     C   24538 23620
 =C'FOLEN'
               5 00005687 00000001     C   32343 30318
 =C'FOLIO.'
               6 00003AE4 00000001     C   24531 23647
 =C'FOLIO'
               5 00003B04 00000001     C   24537 23614
 =C'Good-bye.'
               9 0000570C 00000001     C   32350 30751
 =C'GROUP BP'
               8 000025A0 00000001     C   18662 17312
 =C'Hall Operations Center'
              22 00002B9C 00000001     C   19709 19534
 =C'Incorrect Password'
              18 0000341E 00000001     C   22327 20691
 =C'KEPTMAIL'
1SIGN     (SIGN4072) (12:54) (15MAR04) Ordinary Symbol and Literal Cross Reference                                          Page  119
               8 000025A8 00000001     C   18663 17551
 =C'Line '
               5 0000563A 00000001     C   32332 28566
 =C'Logon attempted for account ??.???'
              34 000033E6 00000001     C   22323 20581
 =C'LOGOFF:'
               7 000056D9 00000001     C   32347 30673
 =C'LOGON-SWITCH: '
              14 0000562C 00000001     C   32331 32029
 =C'LOGON: '
               7 000026F6 00000001     C   18710 15968
 =C'LTMGQ'
               5 00005646 00000001     C   32336 29044  29158
 =C'Mail not displayed.'
              19 00002786 00000001     C   18724 18237
 =C'Maintenance'
              11 0000085D 00000001     C   11619 10516
 =C'Missing account on SET LOGON.'
              29 00005742 00000001     C   32358 31550
 =C'MEDLINE.'
               8 00003A78 00000001     C   24504 23796
 =C'MEDLINE'
               7 00003B0E 00000001     C   24539 23763
 =C'MILTEN  '
               8 000000C0 00000001     C    9751  9547
 =C'MPDGG'
               5 00005641 00000001     C   32335 29030  29144  31420
 =C'No account file, no action taken.'
              33 0000575F 00000001     C   32359 31614
 =C'No account file, password not checked.'
              38 000033BC 00000001     C   22320 19897
 =C'No more time left, session terminated.'
              38 00005600 00000001     C   32327 30469
 =C'No more volumes -- Recovery not possible for '
              45 00005659 00000001     C   32341 29458
 =C'No ACTIVE file recovery will be possible'
              40 00003348 00000001     C   22302 22077
 =C'NEWMAIL'
               7 0000277E 00000001     C   18722 17485
 =C'NEWS'      4 0000262C 00000001     C   18689 17404
 =C'Other options:'
              14 000019FC 00000001     C   15402 12628
 =C'OCP '      4 00003CE8 00000001     C   24971 24877
 =C'Phone: 800-537-RLIN'
              19 00001D31 00000001     C   15427 13619
 =C'Proceed'
               7 00003560 00000001     C   22343 22127
 =C'PARM='''
               6 000026CA 00000001     C   18708 17341
 =C'PCJGQ'
               5 0000564B 00000001     C   32337 29058
 =C'PRISM.'
               6 00003ADA 00000001     C   24528 23349
 =C'PRISM'
               5 00003AEC 00000001     C   24533 23316
 =C'PRMHQ'
               5 00001D7E 00000001     C   15432 14549
 =C'PRMHQ'
               5 00003AF1 00000001     C   24534 23322
1SIGN     (SIGN4072) (12:54) (15MAR04) Ordinary Symbol and Literal Cross Reference                                          Page  120
 =C'PRMHQ'
               5 0000568C 00000001     C   32344 30338
 =C'PUB'       3 00005653 00000001     C   32339 29389
 =C'RECOVERY'
               8 000025B0 00000001     C   18664 17632
 =C'RLG '      4 00002AAC 00000001     C   19698 19006
 =C'RLG'       3 00005650 00000001     C   32338 29354
 =C'RLIN session ended.  Goodbye.'
              29 000056EF 00000001     C   32349 30727
 =C'RLIN system.'
              12 000019A8 00000001     C   15399 15290
 =C'RLIN Information Center:'
              24 00001838 00000001     C   15369 13601
 =C'RPCGQ'
               5 00005738 00000001     C   32356 31453
 =C'RPCGS'
               5 00005733 00000001     C   32355 31439
 =C'\\DD'      4 000055B0 00000001     C   32308 30908
 =C'Security Note:'
              14 00002664 00000001     C   18703 16595
 =C'Services office, phone (415)723-4795.'
              37 00001C3E 00000001     C   15422 13051
 =C'Session terminated by the operator.'
              35 000056B6 00000001     C   32346 30493
 =C'Session terminated due to inactivity.'
              37 00005691 00000001     C   32345 30445
 =C'Stanford Data Center''s Account'
              30 00001A74 00000001     C   15406 13008
 =C'Stanford University Hospital System (SUH/'
              41 00002BDB 00000001     C   19715 19087
 =C'System maintenance'
              18 000007FA 00000001     C   11616 10536
 =C'SAV'       3 00005656 00000001     C   32340 29429
 =C'SCIP'      4 000033B0 00000001     C   22317 21474  21625
 =C'SCNEC'
               5 00001D74 00000001     C   15430 14427
 =C'SCNEC'
               5 00003AF6 00000001     C   24535 23471
 =C'SOCRATES.'
               9 00003AFB 00000001     C   24536 23498
 =C'SOCRATES'
               8 00003A70 00000001     C   24503 23465
 =C'SYSC '
               5 00002761 00000001     C   18719 16821
 =C'SYSC '
               5 00002BC7 00000001     C   19713 19059
 =C'SYSD '
               5 00002C04 00000001     C   19716 19158
 =C'SYSG '
               5 00002C09 00000001     C   19717 19239
 =C'SYSH '
               5 00002C0E 00000001     C   19718 19320
 =C'Technology Systems && Services'
              29 00002C30 00000001     C   19720 19475
 =C'The account is a 6-character string in'
              38 000019B4 00000001     C   15400 12499
 =C'This account has used '
              22 00003490 00000001     C   22332 21273
 =C'This is the Development System ('
1SIGN     (SIGN4072) (12:54) (15MAR04) Ordinary Symbol and Literal Cross Reference                                          Page  121
              32 00002A60 00000001     C   19693 19168
 =C'This is the RLG Development System ('
              36 00002AB0 00000001     C   19699 19249
 =C'To open a Forsythe account, contact the '
              40 00001798 00000001     C   15365 12990
 =C'Type your RLIN account number; for example, '
              44 000018D0 00000001     C   15381 13184
 =C'USE'       3 00002799 00000001     C   18725 18406
 =C'USER PUB'
               8 00002598 00000001     C   18661 17276
 =C'Valid account not specified, logoff proceeding.'
              47 0000082E 00000001     C   11618 10402
 =C'Welcome to the '
              15 00002BCC 00000001     C   19714 19069
 =C'Welcome to the Stanford Data Center, Forsythe Hall'
              50 00002AF8 00000001     C   19703 18991
 =C'Welcome to the Y2K test system ('
              32 00002A80 00000001     C   19694 19330
 =C'Welcome to RLIN.  '
              18 00002B2A 00000001     C   19704 19016
 =C'WWWGS'
               5 0000573D 00000001     C   32357 31473  31760  32206
 =C'WYLGS'
               5 0000572E 00000001     C   32354 31406
 =C'XPSMA'
               5 00001D6F 00000001     C   15429 14366
 =C'XPSMA'
               5 00003B15 00000001     C   24540 23769
 =C'You will then be prompted for your password.'
              44 000018FC 00000001     C   15382 13220
 =C'11R'       3 000026FD 00000001     C   18711 16408
 =CL(L'CPWCHAR)'GENERAL'
              16 00004120 00000001     C   26205 25451
 =CL4'....'
               4 000041A4 00000001     C   26232 25998  26006  26014  26022  26031  26039
 =CL4'DATA'
               4 000041B4 00000001     C   26236 26021
 =CL4'EXEC'
               4 000041A0 00000001     C   26231 25997
 =CL4'FLOW'
               4 000041AC 00000001     C   26234 26005
 =CL4'RG16'
               4 000041B8 00000001     C   26237 26030
 =CL4'RG64'
               4 000041BC 00000001     C   26238 26038
 =CL4'VARS'
               4 000041B0 00000001     C   26235 26013
 =CL8'HP2621'
               8 00001860 00000001     C   15372 14141
 =CL8'INITACCT'
               8 000007A0 00000001     C   11593 11177
 =CL8'LIB'
               8 00004140 00000001     C   26208 25509
 =CL8'LOGOFF'
               8 00005480 00000001     C   32260 30633
 =CL8'LOGON'
               8 00002560 00000001     C   18656 15959
 =CL8'NEW'
               8 00004130 00000001     C   26206 25485
1SIGN     (SIGN4072) (12:54) (15MAR04) Ordinary Symbol and Literal Cross Reference                                          Page  122
 =CL8'RLG40'
               8 00002578 00000001     C   18659 16415
 =CL8'TEK4023'
               8 00001850 00000001     C   15370 14095
 =CL8'TEXT'
               8 00004138 00000001     C   26207 25486
 =CL8'TVI912'
               8 00001858 00000001     C   15371 14118
 =CL8'WYLBUR'
               8 00002568 00000001     C   18657 16243
 =CL8'3278M2'
               8 00002570 00000001     C   18658 16392
 =F'-1000'
               4 0000417C 00000001     F   26222 25487
 =F'-4'        4 00003A80 00000001     F   24505 22424  22728
 =F'1'         4 00003A84 00000001     F   24506 22551
 =F'1000'      4 00004178 00000001     F   26221 25453
 =F'100000'
               4 00005528 00000001     F   32274 29089  29189
 =F'9663'      4 00003A8C 00000001     F   24508 22659  22689
 =H'-1'        2 000041CE 00000001     H   26246 25477
 =H'235'       2 000007F6 00000001     H   11614 10249
 =H'235'       2 000041C4 00000001     H   26241 25452
 =H'30'        2 000041D0 00000001     H   26247 25530
 =H'5'         2 000041C8 00000001     H   26243 25455  25538
 =H'5000'      2 000041CA 00000001     H   26244 25456
 =H'6'         2 00003AE0 00000001     H   24529 23356  23654
 =H'68'        2 000041CC 00000001     H   26245 25463
 =H'72'        2 000041C6 00000001     H   26242 25454
 =H'8'         2 00003AEA 00000001     H   24532 23803
 =H'9'         2 00003AE2 00000001     H   24530 23505
 =V(ACTRCVY)
               4 000054FC 00000001     V   32267 28543
 =V(ACTRESET)
               4 0000415C 00000001     V   26214 25239  25606
 =V(ACTRESET)
               4 000054F8 00000001     V   32266 28523  29743
 =V(BILLCHK)
               4 00004190 00000001     V   26227 25621
 =V(BTD)       4 0000552C 00000001     V   32275 29110  29210
 =V(CHECKSET)
               4 000025F0 00000001     V   18674 15956
 =V(CHECKSET)
               4 0000418C 00000001     V   26226 25616
 =V(CHECKSET)
               4 000055B8 00000001     V   32310 31130
 =V(CHKPRT)
               4 00001978 00000001     V   15393 14616
 =V(CHKTTYPE)
               4 00001958 00000001     V   15385 13870
 =V(CHKTTYPE)
               4 00002604 00000001     V   18679 16444
 =V(CLRACTS)
               4 00004900 00000001     V   28405 26494
 =V(CLRHCMDS)
               4 0000554C 00000001     V   32283 29721
 =V(DENQFREE)
               4 00005560 00000001     V   32288 29766
 =V(DISPLGF)
1SIGN     (SIGN4072) (12:54) (15MAR04) Ordinary Symbol and Literal Cross Reference                                          Page  123
               4 000055A8 00000001     V   32306 30682
 =V(DOBILL)
               4 000025F4 00000001     V   18675 15963
 =V(DOBILL)
               4 000055A0 00000001     V   32304 30637
 =V(EDTCOM)
               4 00002660 00000001     V   18702 18637
 =V(EOSDISP)
               4 000055C4 00000001     V   32313 31267
 =V(EXREINIT)
               4 00004188 00000001     V   26225 25610
 =V(EXREINIT)
               4 00005554 00000001     V   32285 29747
 =V(FMTRCLCK)
               4 00003AC8 00000001     V   24523 24136  24289
 =V(FMTTIME)
               4 00005594 00000001     V   32301 30550
 =V(FMTXDATE)
               4 00002618 00000001     V   18684 16718
 =V(FORCPASS)
               4 00002644 00000001     V   18695 17864
 =V(FREEBILL)
               4 000025D4 00000001     V   18667 15498
 =V(FREEBILL)
               4 000055B4 00000001     V   32309 31104
 =V(FREECORE)
               4 00003CEC 00000001     V   24972 24896
 =V(FREEPOOL)
               4 00003CF0 00000001     V   24973 24907
 =V(FREERG)
               4 0000419C 00000001     V   26230 25967  25972  25977  25982  25987  25992  26133  26138  26143  26148
                                                 26153  26158  26163
 =V(FREEVIEW)
               4 00003CE0 00000001     V   24969 24820
 =V(GETACCT)
               4 00001968 00000001     V   15389 14185
 =V(GETACCT)
               4 00004928 00000001     V   28415 27342  27404
 =V(GETCORE)
               4 00004154 00000001     V   26212 25227
 =V(GETPOOL)
               4 00003CC8 00000001     V   24963 24631
 =V(GETUID)
               4 000025DC 00000001     V   18669 15621
 =V(GETUID)
               4 000055E0 00000001     V   32320 31987
 =V(HOSTINIT)
               4 000025D8 00000001     V   18668 15552
 =V(INITCMD)
               4 00005530 00000001     V   32276 29419
 =V(INITDBUG)
               4 00004170 00000001     V   26219 25261
 =V(INITEXEC)
               4 00004160 00000001     V   26215 25245
 =V(INITFLOW)
               4 00004168 00000001     V   26217 25253
 =V(INITRG)
               4 000041A8 00000001     V   26233 26001  26009  26017  26025  26034  26042
 =V(INITSTK)
1SIGN     (SIGN4072) (12:54) (15MAR04) Ordinary Symbol and Literal Cross Reference                                          Page  124
               4 000007BC 00000001     V   11599 10169
 =V(INITSTK)
               4 000054F0 00000001     V   32264 28498  28936
 =V(INITVARS)
               4 0000416C 00000001     V   26218 25257
 =V(INITXCAL)
               4 00004164 00000001     V   26216 25249
 =V(KLOGINCK)
               4 00003380 00000001     V   22307 20476
 =V(KLOGINCK)
               4 0000492C 00000001     V   28416 27501
 =V(KTIMDISP)
               4 00002648 00000001     V   18696 17913
 =V(KWIO)      4 00002620 00000001     V   18686 16962  18064  18332
 =V(KWIO)      4 00003370 00000001     V   22303 19821  20651
 =V(KWIO)      4 00005574 00000001     V   32293 29910  30303  31591
 =V(LOCALTOD)
               4 0000338C 00000001     V   22310 20637
 =V(LOCALTOD)
               4 00003AC4 00000001     V   24522 24121  24274
 =V(LOCALTOD)
               4 00005580 00000001     V   32296 30170  30543
 =V(LOGKWR)
               4 00003388 00000001     V   22309 20589
 =V(LOGSESS)
               4 000025F8 00000001     V   18676 15972
 =V(LOGSESS)
               4 000055A4 00000001     V   32305 30677  32033
 =V(LRTRIM)
               4 000019A0 00000001     V   15397 14681
 =V(LRTRIM)
               4 00002624 00000001     V   18687 17122
 =V(LRTRIM)
               4 00003AD0 00000001     V   24525 24208  24363
 =V(LRTRIM)
               4 00004174 00000001     V   26220 25404
 =V(LTIMDISP)
               4 00002634 00000001     V   18691 17803
 =V(MAILDISP)
               4 00002650 00000001     V   18698 18220
 =V(MCLEAR)
               4 00005550 00000001     V   32284 29727
 =V(NEWSDISP)
               4 0000264C 00000001     V   18697 17977
 =V(NOTVALID)
               4 000055C8 00000001     V   32314 31484
 =V(NPATFREE)
               4 00005568 00000001     V   32290 29776
 =V(NSCAN)
               4 000007A8 00000001     V   11594  9937  10020  10767  10847  10943  11081  11328  11411
 =V(NSCAN)
               4 00003A98 00000001     V   24511 22979
 =V(NSCAN)
               4 000048F8 00000001     V   28403 26460  27236  27698  27882  28031  28348
 =V(NSCAN)
               4 000055D0 00000001     V   32316 31512
 =V(OLDSAVE)
               4 00005538 00000001     V   32278 29451
 =V(ORVCPASS)
1SIGN     (SIGN4072) (12:54) (15MAR04) Ordinary Symbol and Literal Cross Reference                                          Page  125
               4 00004914 00000001     V   28410 26737
 =V(PATHFREE)
               4 0000556C 00000001     V   32291 29781
 =V(PFREEA)
               4 00005544 00000001     V   32281 29710
 =V(PFREEB)
               4 00005548 00000001     V   32282 29716
 =V(PROTFREE)
               4 000025D0 00000001     V   18666 15492
 =V(PROTFREE)
               4 0000555C 00000001     V   32287 29757  32022
 =V(READPW)
               4 00003384 00000001     V   22308 20502
 =V(RETFNAME)
               4 00004180 00000001     V   26223 25527
 =V(RLOOKUP)
               4 000018BC 00000001     V   15376 11818  12053
 =V(SAMINIT)
               4 00004184 00000001     V   26224 25602
 =V(SCANCHK)
               4 000048FC 00000001     V   28404 26474
 =V(SCANCHK)
               4 000055D4 00000001     V   32317 31526
 =V(SCDQUOTE)
               4 0000196C 00000001     V   15390 14259
 =V(SCDQUOTE)
               4 00004934 00000001     V   28418 27932
 =V(SCINIT)
               4 000007AC 00000001     V   11595  9971  10801  11362
 =V(SCINIT)
               4 00005534 00000001     V   32277 29447
 =V(SEG)       4 000007C8 00000001     V   11602 10414
 =V(SEG)       4 000018C8 00000001     V   15379 12493  12511  12554  12572  12640  12683  12701  12744  12787  12805
                                                 12848  12866  12934  13002  13020  13063  13196  13232  13318  13354
                                                 13390  13426  13462  13498  13559  13595  13710  15212  15248  15284
                                                 15320
 =V(SEG)       4 000025E4 00000001     V   18671 15855  16035  16589  16625  16670  16706  16742  16780  16858  17220
                                                 17254  17398  17416  17479  17497  17545  17563  17626  17644  17687
 =V(SEG)       4 00002AA0 00000001     V   19695 18840  18862  18908  19028  19081  19099  19180  19261  19342  19408
                                                 19426  19469  19487  19530  19564
 =V(SEG)       4 00003378 00000001     V   22305 19983  20011  20029  20057  20703  20815  20843  20861  20889  20907
                                                 21031  21059  21077  21207  21225  21285  21326  21365  21720  21738
                                                 21988  22006
 =V(SEG)       4 00003ACC 00000001     V   24524 24160  24190  24313  24343
 =V(SEG)       4 00004194 00000001     V   26228 25775
 =V(SEG)       4 00005504 00000001     V   32269 28576  28635  28660  28675  28700  28790  29470  29498  29516  30127
                                                 30902  30920  30938  31002  31181  31654  31682  31700  31728  31865
 =V(SEGB)      4 000007D0 00000001     V   11604 10564
 =V(SEGB)      4 0000197C 00000001     V   15394 14651
 =V(SEGB)      4 00002628 00000001     V   18688 17288  17324
 =V(SEGB)      4 00003398 00000001     V   22313 21105  21692  21766  21960  22034  22089
 =V(SEGB)      4 00005598 00000001     V   32302 30577
 =V(SEGCLR)
               4 000025E0 00000001     V   18670 15812  17750
 =V(SEGCLR)
               4 00004148 00000001     V   26209 25131  25740
 =V(SEGCLR)
               4 00005500 00000001     V   32268 28561  31837
 =V(SEGCR)
1SIGN     (SIGN4072) (12:54) (15MAR04) Ordinary Symbol and Literal Cross Reference                                          Page  126
               4 000018C4 00000001     V   15378 12475  12536  12597  12622  12665  12726  12769  12830  12891  12916
                                                 12959  12984  13045  13088  13113  13178  13214  13257  13282  13300
                                                 13336  13372  13408  13444  13480  13516  13541  13577  13613  13631
                                                 13649  13667  13692  13735  13760  15230  15266
 =V(SEGCR)
               4 00002610 00000001     V   18682 16607  16688  16762  16876  16901  18249
 =V(SEGCR)
               4 00002AA8 00000001     V   19697 18961  18986  19451  19512  19589  19614
 =V(SEGCR)
               4 00003394 00000001     V   22312 20953
 =V(SEGCR)
               4 00003ABC 00000001     V   24520 24042  24067
 =V(SEGCR)
               4 00004904 00000001     V   28406 26551  26654
 =V(SEGCR)
               4 000055AC 00000001     V   32307 30803  30828  30853
 =V(SEGDC)
               4 00002614 00000001     V   18683 16652
 =V(SEGDC)
               4 000033A8 00000001     V   22315 21308  21347
 =V(SEGDC)
               4 00005508 00000001     V   32270 28620
 =V(SEGINIT)
               4 00003CD4 00000001     V   24966 24687
 =V(SEGINIT)
               4 00005578 00000001     V   32294 30086
 =V(SEGINITR)
               4 00003CDC 00000001     V   24968 24702
 =V(SEGT)      4 00002AA4 00000001     V   19696 18890  18936  19127  19208  19289  19370
 =V(SEGT)      4 0000557C 00000001     V   32295 30112  30153
 =V(SEGTB)
               4 00003390 00000001     V   22311 20935
 =V(SEGTB)
               4 00003A90 00000001     V   24509 22880
 =V(SEGTB)
               4 00004910 00000001     V   28409 26636
 =V(SEGWR)
               4 000018CC 00000001     V   15380 13138  13785
 =V(SEGWR)
               4 0000261C 00000001     V   18685 16926  18020  18283  18491  18528  18571
 =V(SEGWR)
               4 00002AF0 00000001     V   19701 19639
 =V(SEGWR)
               4 00003374 00000001     V   22304 19909  20075  20738  20761  21420  22052  22107
 =V(SEGWR)
               4 00003AC0 00000001     V   24521 24092  24232  24387  24447
 =V(SEGWR)
               4 00004908 00000001     V   28407 26576  26679
 =V(SEGWR)
               4 00005520 00000001     V   32272 28822  29544  30606  31067
 =V(SERVFREE)
               4 00005564 00000001     V   32289 29771
 =V(SETPARM)
               4 000019A4 00000001     V   15398 14685
 =V(SETPRT)
               4 0000199C 00000001     V   15396 14667
 =V(SETTTYPE)
               4 0000195C 00000001     V   15386 13894
 =V(SETTTYPE)
1SIGN     (SIGN4072) (12:54) (15MAR04) Ordinary Symbol and Literal Cross Reference                                          Page  127
               4 00002608 00000001     V   18680 16461
 =V(SHOWBKUP)
               4 00003AD4 00000001     V   24526 24455
 =V(SYSCHECK)
               4 00002600 00000001     V   18678 16297
 =V(SYSCHECK)
               4 0000490C 00000001     V   28408 26597
 =V(TCNTL)
               4 000025E8 00000001     V   18672 15867  16047
 =V(TCNTL)
               4 0000414C 00000001     V   26210 25143  25787
 =V(TCNTL)
               4 0000553C 00000001     V   32279 29603  31193  31877
 =V(TLOGOFF)
               4 000055C0 00000001     V   32312 31258
 =V(TOUPPER)
               4 00003AA0 00000001     V   24513 23286
 =V(TREAD)
               4 000007D4 00000001     V   11605 10578
 =V(TREAD)
               4 00003A94 00000001     V   24510 22894
 =V(TREADQ)
               4 000007E0 00000001     V   11608 11190
 =V(TSGBUFGT)
               4 00003CD0 00000001     V   24965 24660
 =V(TSGBUFRE)
               4 00003CE4 00000001     V   24970 24844
 =V(TSTAT)
               4 000007CC 00000001     V   11603 10454
 =V(TSUBOFF)
               4 0000559C 00000001     V   32303 30615  31746
 =V(UPDCPSIB)
               4 00001964 00000001     V   15388 14150  14988  15087
 =V(UPDCPSIB)
               4 0000260C 00000001     V   18681 16493
 =V(USE)       4 00002658 00000001     V   18700 18415
 =V(VETSFREE)
               4 00005558 00000001     V   32286 29752
 =V(WAITER)
               4 0000337C 00000001     V   22306 20419  20543
 =V(YESREQ)
               4 000033B4 00000001     V   22318 22131
 =X'0D'        1 0000572D 00000001     X   32353 30926
 =X'15'        1 00002BB2 00000001     X   19710 18828
 =X'2F'        1 00002700 00000001     X   18712 16577
 =X'27'        1 0000572C 00000001     X   32352 30890
 =Y((L'CPCMD+3)/4*4)
               2 0000341A 00000001     Y   22325 20595
 =Y((L'KWR+3)/4*4)
               2 000055FE 00000001     Y   32326 30392
 =Y((L'SEGCB+3)/4*4)
               2 000055FC 00000001     Y   32325 30156
 =Y((R1+1-(R0)+16*((R0)/(R1+1))/((R0)/(R1+1)))*4)
               2 00005628 00000001     Y   32329 30582
 =Y((R1+1-(R15)+16*((R15)/(R1+1))/((R15)/(R1+1)))*4)
               2 00001B2E 00000001     Y   15413 13885  13897
 =Y((R1+1-(R15)+16*((R15)/(R1+1))/((R15)/(R1+1)))*4)
               2 000033E2 00000001     Y   22321 20424  20548
 =Y((R3+1-(R2)+16*((R2)/(R3+1))/((R2)/(R3+1)))*4)
1SIGN     (SIGN4072) (12:54) (15MAR04) Ordinary Symbol and Literal Cross Reference                                          Page  128
               2 0000341C 00000001     Y   22326 20597
 =Y((11+3)/4*4)
               2 00005626 00000001     Y   32328 30580
 =Y((12+3)/4*4)
               2 000007F4 00000001     Y   11613  9943  10026  10773  10853  10949  11087  11334  11417
 =Y((12+3)/4*4)
               2 00003AD8 00000001     Y   24527 22985
 =Y((12+3)/4*4)
               2 00004940 00000001     Y   28421 26466  27242  27704  27888  28037  28354
 =Y((12+3)/4*4)
               2 0000562A 00000001     Y   32330 31518
 =Y((235+3)/4*4)
               2 000000D0 00000001     Y    9754  9741
 =Y((32+3)/4*4)
               2 0000268C 00000001     Y   18705 16745
 =Y(4)         2 00004954 00000001     Y   28423 28168
 =80X'00'      1 00005488 00000001     X   32261 30984

1SIGN     (SIGN4072) (12:54) (15MAR04) Macro and Copy Code Source Summary                                                   Page  129
- Con Source                                        Volume    Members                        HLASM R4.0  2004/03/15 12.54
0     PRIMARY INPUT                                           CSECT    DROP     END      EX       LTORG    POP
                                                              PRINT    PUSH     START    USING
   L1 WYL.GS.WYL.WYLBUR.MACLIB                      SYSB05    ABORT    AINFO    BASE     BOMB     BTD      CELLBLOK
                                                              COLINFO  COMMENT  CONTROL  CP       CPLOCAL  CV
                                                              CVLOCAL  DELAY    ERROR    FAIL     GENTER   JCB
                                                              KAPUT    KREAD    KWRITE   LOADRTNP OSCINIT  PFCB
                                                              PFREE    PUSHRTN  RG       SCAN     SCANCB   SCANCHK
                                                              SCBKUP   SCCBADR  SCCLR    SCDQUOTE SCINFO   SCINIT   SCKW
                                                              SCPOP    SCPUSH   SCUPTOK  SEGINIT  TCLEAR   TCNTL    TCR
                                                              TNUM     TREAD    TSEG     TSTAT    TTYPE    TWRITE
                                                              VLTORG   VOLUME   XTRACE   XWTO
   L2 WYL.GG.SYS.MACLIB                             SYSB05    $BC      $BFLKUP  $BV      $CCLKUP  $CRS     $CSS     $L
                                                              $LA      $LBLAD   $LEXP    $LOR     $REL     $RGLKUP
                                                              $USLKUP  ACALL    BEGIN    CEIL     CLEAR    COMPROC
                                                              CSECT    DATA     DECR     DEFCC    DROP     DTEX     ELSE
                                                              ELSEIF   END      EX       FLAG     GEN      HIBAL
                                                              IDENT    IF       INCR     LABEL    LC       LCALL    LCM
                                                              LOOP     LS       LT       LTORG    L2       MOVE     PEND
                                                              POP      PRETURN  PRINT    PROC     PUSH     QLTORG
                                                              RECORD   REG      REGS     SDL      SET      SETMSG
                                                              START    ST2      SYSLR    UNTIL    USING    VCALL
                                                              WHILE    WITH     XPROC    ZOT
   L3 SYS3.IS.MACLIB                                SYSB05    KWR      PDB      SEG      SEGCB    SEGCLR   SEGCR
                                                              SEGDC    SEGLD    SEGT     SEGWR    SIB      SMFHDR
                                                              SMFKWR   SYSDEFN  XPOP     XPUSH
   L4 SYS3.MACLIB                                   SYSB02    HASPSERV SCIPCVT  USERCVT
   L5 SYS1.MACLIB                                   MVSBR9    CVT      DCB      IHB01

1SIGN     (SIGN4072) (12:54) (15MAR04) Dsect Cross Reference                                                                Page  130
-Dsect     Length      Id       Defn                                                         HLASM R4.0  2004/03/15 12.54
0$$$@R0   00000000  FFFFFFFE     705
 $$$@R1   00000000  FFFFFFFD     718
 $$$@R10  00000000  FFFFFFF4     835
 $$$@R11  00000000  FFFFFFF3     848
 $$$@R12  00000000  FFFFFFF2     861
 $$$@R13  00000000  FFFFFFF1     874
 $$$@R14  00000000  FFFFFFF0     887
 $$$@R15  00000000  FFFFFFEF     900
 $$$@R2   00000000  FFFFFFFC     731
 $$$@R3   00000000  FFFFFFFB     744
 $$$@R4   00000000  FFFFFFFA     757
 $$$@R5   00000000  FFFFFFF9     770
 $$$@R6   00000000  FFFFFFF8     783
 $$$@R7   00000000  FFFFFFF7     796
 $$$@R8   00000000  FFFFFFF6     809
 $$$@R9   00000000  FFFFFFF5     822
 $$$RCHKSPWA
          000000EB  FFFFFFDA   23129
 $$$RCP   00001000  FFFFFFEC    2456
 $$$RCV   00000FB0  FFFFFFEE    1181
 $$$RDEV  0000000C  FFFFFFEB    4670
 $$$RJCB  000000D0  FFFFFFE0    8941
 $$$RKWR  000001F8  FFFFFFE1    8730
 $$$RLGNWA
          00000520  FFFFFFD8   27033
 $$$RLOGWA
          00000001  FFFFFFD9   26257
 $$$RNSCNCB
          000000B0  FFFFFFED    2377
 $$$RPFCB 000000A4  FFFFFFDD    9309
 $$$RSEGCB
          0000003C  FFFFFFE7    7204
 $$$RSIGNWA
          00000208  FFFFFFDB    9469
 $$$RSLOGWA
          000001F8  FFFFFFD7   31322
 $$$RSMFHDR
          00000038  FFFFFFDF    9221
 $$$RSMFKWR
          00000130  FFFFFFDE    9265
 $$$RTTYPE
          0000010C  FFFFFFEA    6201
 $$$RUSERCVT
          0000035F  FFFFFFE2    8641
 $$$R42   00000038  FFFFFFE9    6308
 $$$R43   000000FE  FFFFFFE8    6505
 CVT      00000500  FFFFFFE6    7502
 CVTVSTGX 00000050  FFFFFFE5    8522
 CVTXTNT1 0000000C  FFFFFFE4    8561
 CVTXTNT2 00000084  FFFFFFE3    8569
 HIBAL    00000000  FFFFFFFF     691
 VOLDSECT 00000044  FFFFFFDC    9398

1SIGN     (SIGN4072) (12:54) (15MAR04) Using Map                                                                            Page  131
-                                                                                            HLASM R4.0  2004/03/15 12.54
   Stmt  -----Location----- Action ----------------Using----------------- Reg Max    Last  Label and Using Text
           Count      Id           Type          Value    Range     Id        Disp   Stmt
0   922  00000000  FFFFFFFF USING  ORDINARY    00000000 00001000 FFFFFFEF  15 000          @R15,15
    926  00000000  FFFFFFFF USING  ORDINARY    00000000 00001000 FFFFFFF0  14 002   27170  @R14,14
    930  00000000  FFFFFFFF USING  ORDINARY    00000000 00001000 FFFFFFF1  13 000   15746  @R13,13
    934  00000000  FFFFFFFF USING  ORDINARY    00000000 00001000 FFFFFFF2  12 000          @R12,12
    938  00000000  FFFFFFFF USING  ORDINARY    00000000 00001000 FFFFFFF3  11 000          @R11,11
    942  00000000  FFFFFFFF USING  ORDINARY    00000000 00001000 FFFFFFF4  10 000          @R10,10
    946  00000000  FFFFFFFF USING  ORDINARY    00000000 00001000 FFFFFFF5   9 000          @R9,9
    950  00000000  FFFFFFFF USING  ORDINARY    00000000 00001000 FFFFFFF6   8 000          @R8,8
    954  00000000  FFFFFFFF USING  ORDINARY    00000000 00001000 FFFFFFF7   7 000          @R7,7
    958  00000000  FFFFFFFF USING  ORDINARY    00000000 00001000 FFFFFFF8   6 000          @R6,6
    962  00000000  FFFFFFFF USING  ORDINARY    00000000 00001000 FFFFFFF9   5 000          @R5,5
    966  00000000  FFFFFFFF USING  ORDINARY    00000000 00001000 FFFFFFFA   4 000    9728  @R4,4
    970  00000000  FFFFFFFF USING  ORDINARY    00000000 00001000 FFFFFFFB   3 000   22566  @R3,3
    974  00000000  FFFFFFFF USING  ORDINARY    00000000 00001000 FFFFFFFC   2 000          @R2,2
    978  00000000  FFFFFFFF USING  ORDINARY    00000000 00001000 FFFFFFFD   1 001   15937  @R1,1
    982  00000000  FFFFFFFF USING  ORDINARY    00000000 00001000 FFFFFFFE   0 000          @R0,0
    983  00000000  FFFFFFFF DROP                                            0              0
   1165  00000017  00000001 USING  ORDINARY    00000000 00001000 FFFFFFEC  11 F48   32219  CP,CPR
   1174  00000017  00000001 USING  ORDINARY    00000000 00001000 FFFFFFEE  12 B08   32156  CV,CVR
   9505  00000026  00000001 USING  ORDINARY    00000026 00001000 00000001   7 0B8    9742  $$$60B,R7
   9517  0000002C  00000001 USING  ORDINARY    00000000 00001000 FFFFFFDB   6 200   14912  SIGNWA,R6
   9685  000000A2  00000001 USING  ORDINARY    00000000 00001000 FFFFFFE0  15 052    9691  JCB,R15
   9698  000000A8  00000001 USING  ORDINARY    00000000 00001000 FFFFFFEF  15 000          @R15,15
   9773  000000E0  00000001 USING  ORDINARY    00000000 00001000 FFFFFFF7   7 000          @R7,7
   9776  000000E0  00000001 USING  ORDINARY    000000E0 00001000 00000001   7 714   10116  $$$70B,7
  10144  0000025A  00000001 USING  ORDINARY    00000000 00001000 FFFFFFF7   7 000          @R7,7
  10147  0000025A  00000001 USING  ORDINARY    0000025A 00001000 00000001   7 55E   10153  $$$78B,R7
  10162  0000025E  00000001 USING  ORDINARY    00000000 00001000 FFFFFFF7   7 000          @R7,7
  10165  0000025E  00000001 USING  ORDINARY    000000E0 00001000 00000001   7 796   11542  SIGNBASE,7
  10200  00000286  00000001 USING  ORDINARY    00000000 00001000 FFFFFFE0  15 065   10229  JCB,R15
  10236  0000029A  00000001 USING  ORDINARY    00000000 00001000 FFFFFFEF  15 000          @R15,15
  10359  00000308  00000001 USING  ORDINARY    00000000 00001000 FFFFFFE0  15 062   10371  JCB,R15
  10378  0000030C  00000001 USING  ORDINARY    00000000 00001000 FFFFFFEF  15 000          @R15,15
  10426  0000032C  00000001 USING  ORDINARY    00000000 00001000 FFFFFFE0  15 062   10437  JCB,R15
  10444  00000330  00000001 USING  ORDINARY    00000000 00001000 FFFFFFEF  15 000          @R15,15
  11556  00000796  00000001 USING  ORDINARY    00000000 00001000 FFFFFFE0  15 062   11567  JCB,R15
  11574  0000079A  00000001 USING  ORDINARY    00000000 00001000 FFFFFFEF  15 002   14051  @R15,15
  11583  0000079E  00000001 USING  ORDINARY    00000000 00001000 FFFFFFF7   7 000          @R7,7
  11806  000009FE  00000001 USING  ORDINARY    000009FE 00001000 00000001   7 EBE   11818  $$$114B,7
  11828  00000A0C  00000001 USING  ORDINARY    00000000 00001000 FFFFFFF7   7 000          @R7,7
  12041  00000BEE  00000001 USING  ORDINARY    00000BEE 00001000 00000001   7 CD2   12053  $$$117B,7
  12063  00000BFC  00000001 USING  ORDINARY    00000000 00001000 FFFFFFF7   7 000          @R7,7
  12419  00000F46  00000001 USING  ORDINARY    00000F46 00001000 00000001   7 DFE   13785  $$$120B,7
  13799  00001346  00000001 USING  ORDINARY    00000000 00001000 FFFFFFF7   7 000          @R7,7
  13847  0000136E  00000001 USING  ORDINARY    0000136E 00001000 00000001   7 7C0   14299  $$$125B,7
  14312  0000148C  00000001 USING  ORDINARY    00000000 00001000 FFFFFFF7   7 000          @R7,7
  14357  000014B4  00000001 USING  ORDINARY    000014B4 00001000 00000001   7 8BB   14366  $$$148B,7
  14373  000014BA  00000001 USING  ORDINARY    00000000 00001000 FFFFFFF7   7 000          @R7,7
  14418  000014E2  00000001 USING  ORDINARY    000014E2 00001000 00000001   7 892   14427  $$$151B,7
  14434  000014E8  00000001 USING  ORDINARY    00000000 00001000 FFFFFFF7   7 000          @R7,7
  14479  00001510  00000001 USING  ORDINARY    00001510 00001000 00000001   7 869   14488  $$$154B,7
  14495  00001516  00000001 USING  ORDINARY    00000000 00001000 FFFFFFF7   7 000          @R7,7
  14540  0000153E  00000001 USING  ORDINARY    0000153E 00001000 00000001   7 840   14549  $$$157B,7
1SIGN     (SIGN4072) (12:54) (15MAR04) Using Map                                                                            Page  132
  14556  00001544  00000001 USING  ORDINARY    00000000 00001000 FFFFFFF7   7 000          @R7,7
  14601  0000156C  00000001 USING  ORDINARY    0000156C 00001000 00000001   7 438   14685  $$$160B,7
  14725  000015C8  00000001 USING  ORDINARY    00000000 00001000 FFFFFFF7   7 000          @R7,7
  14770  000015F0  00000001 USING  ORDINARY    000015F0 00001000 00000001   7 000          $$$164B,7
  14791  000015F4  00000001 USING  ORDINARY    00000000 00001000 FFFFFFF7   7 000          @R7,7
  14836  0000161C  00000001 USING  ORDINARY    0000161C 00001000 00000001   7 000          $$$167B,7
  14854  00001620  00000001 USING  ORDINARY    00000000 00001000 FFFFFFF7   7 000          @R7,7
  14899  00001648  00000001 USING  ORDINARY    00001648 00001000 00000001   7 000          $$$170B,7
  14919  00001656  00000001 USING  ORDINARY    00000000 00001000 FFFFFFF7   7 000          @R7,7
  14964  0000167E  00000001 USING  ORDINARY    0000167E 00001000 00000001   7 2E6   15003  $$$173B,7
  15019  0000168E  00000001 USING  ORDINARY    00000000 00001000 FFFFFFF7   7 000          @R7,7
  15064  000016B6  00000001 USING  ORDINARY    000016B6 00001000 00000001   7 2AE   15102  $$$179B,7
  15118  000016C6  00000001 USING  ORDINARY    00000000 00001000 FFFFFFF7   7 000          @R7,7
  15165  000016EE  00000001 USING  ORDINARY    000016EE 00001000 00000001   7 695   15326  $$$185B,7
  15335  0000176A  00000001 USING  ORDINARY    00000000 00001000 FFFFFFF7   7 000          @R7,7
  15355  00001778  00000001 USING  ORDINARY    00000000 00001000 FFFFFFF8   6 000          @R6,6
  15456  00001D96  00000001 USING  ORDINARY    00001D96 00001000 00000001   7 A32   18415  $$$188B,7
  15469  00001D9E  00000001 USING  ORDINARY    00000000 00001000 FFFFFFDB   5 010   17079  SIGNWA,R5
  15481  00001DA2  00000001 USING  ORDINARY    00000000 00001000 FFFFFFE1   6 078   15549  KWR,R6
  15560  00001DE8  00000001 USING  ORDINARY    00000000 00001000 FFFFFFF8   6 000          @R6,6
  16101  00001F54  00000001 USING  ORDINARY    00000000 00001000 FFFFFFE0   4 063   16165  JCB,R4
  16176  00001F7C  00000001 USING  ORDINARY    00000000 00001000 FFFFFFFA   4 000          @R4,4
  16211  00001F8E  00000001 USING  ORDINARY    00000000 00001000 FFFFFFE1  15 092   16217  KWR,R15
  16224  00001F94  00000001 USING  ORDINARY    00000000 00001000 FFFFFFEF  15 000          @R15,15
  16331  00001FD2  00000001 USING  ORDINARY    00000000 00001000 FFFFFFE0  15 062   16342  JCB,R15
  16349  00001FD6  00000001 USING  ORDINARY    00000000 00001000 FFFFFFEF  15 000          @R15,15
  16534  00002042  00000001 USING  ORDINARY    00000000 00001000 FFFFFFE1   6 1F4   17014  KWR,R6
  16633  00002088  00000001 DROP                                            1              1
  16637  0000208E  00000001 USING  ORDINARY    00000000 00001000 FFFFFFFD   1 000   17726  @R1,1
  17036  0000219E  00000001 USING  ORDINARY    00000000 00001000 FFFFFFF8   6 000          @R6,6
  17087  000021B2  00000001 USING  ORDINARY    00000000 00001000 FFFFFFE1   6 1F4   18376  KWR,R6
  17946  000023E2  00000001 USING  ORDINARY    00000000 00001000 FFFFFFE0  15 062   17958  JCB,R15
  17965  000023E6  00000001 USING  ORDINARY    00000000 00001000 FFFFFFEF  15 000          @R15,15
  18137  00002444  00000001 DROP                                           15              15
  18141  0000244A  00000001 USING  ORDINARY    00000000 00001000 FFFFFFEF  15 000          @R15,15
  18183  00002456  00000001 USING  ORDINARY    00000000 00001000 FFFFFFE0  15 062   18195  JCB,R15
  18202  0000245A  00000001 USING  ORDINARY    00000000 00001000 FFFFFFEF  15 000          @R15,15
  18429  000024F8  00000001 USING  ORDINARY    00000000 00001000 FFFFFFF7   7 000          @R7,7
  18432  000024F8  00000001 USING  ORDINARY    000024F8 00001000 00000001   7 164   18438  $$$299B,7
  18447  000024FC  00000001 USING  ORDINARY    00000000 00001000 FFFFFFF7   7 000          @R7,7
  18450  000024FC  00000001 USING  ORDINARY    00001D96 00001000 00000001   7 A06   18637  FINBASE,7
  18544  00002532  00000001 USING  ORDINARY    00000000 00001000 FFFFFFF8   6 000          @R6,6
  18583  00002542  00000001 USING  ORDINARY    00000000 00001000 FFFFFFE0  15 062   18595  JCB,R15
  18602  00002546  00000001 USING  ORDINARY    00000000 00001000 FFFFFFEF  15 001   20611  @R15,15
  18646  0000255C  00000001 USING  ORDINARY    00000000 00001000 FFFFFFF9   5 000          @R5,5
  18767  000027E6  00000001 USING  ORDINARY    00000000 00001000 FFFFFFF7   7 000          @R7,7
  18770  000027E6  00000001 USING  ORDINARY    000027E6 00001000 00000001   7 44A   19644  $$$304B,7
  19668  00002A4C  00000001 USING  ORDINARY    00000000 00001000 FFFFFFF7   7 000          @R7,7
  19671  00002A4C  00000001 USING  ORDINARY    00001D96 00001000 00000001   7 000          FINBASE,7
  19765  00002C68  00000001 USING  ORDINARY    00000000 00001000 FFFFFFF7   7 000          @R7,7
  19768  00002C68  00000001 USING  ORDINARY    00002C68 00001000 00000001   7 900   22225  $$$320B,7
  19785  00002C6A  00000001 USING  ORDINARY    00000000 00001000 FFFFFFDB   6 010   20447  SIGNWA,R6
  19795  00002C6E  00000001 USING  ORDINARY    00000000 00001000 FFFFFFE1   5 1F4   22119  KWR,R5
  20395  00002E10  00000001 USING  ORDINARY    00000000 00001000 FFFFFFE0   1 062   20407  JCB,R1
  20414  00002E14  00000001 USING  ORDINARY    00000000 00001000 FFFFFFFD   1 000          @R1,1
  20519  00002E6A  00000001 USING  ORDINARY    00000000 00001000 FFFFFFE0   1 062   20531  JCB,R1
  20538  00002E6E  00000001 USING  ORDINARY    00000000 00001000 FFFFFFFD   1 000   31947  @R1,1
  20767  00002F70  00000001 DROP                                           15              15
  20771  00002F76  00000001 USING  ORDINARY    00000000 00001000 FFFFFFEF  15 000          @R15,15
1SIGN     (SIGN4072) (12:54) (15MAR04) Using Map                                                                            Page  133
  21436  0000314A  00000001 USING  ORDINARY    00000000 00001000 FFFFFFE6  15 0CC   21442  CVT,R15
  21449  0000314E  00000001 USING  ORDINARY    00000000 00001000 FFFFFFEF  15 000   21474  @R15,15
  21489  0000315E  00000001 USING  ORDINARY    00000000 00001000 FFFFFFE2  15 00F   21495  USERCVT,R15
  21502  00003162  00000001 USING  ORDINARY    00000000 00001000 FFFFFFEF  15 000          @R15,15
  21587  00003182  00000001 USING  ORDINARY    00000000 00001000 FFFFFFE6  15 0CC   21593  CVT,R15
  21600  00003186  00000001 USING  ORDINARY    00000000 00001000 FFFFFFEF  15 000   21625  @R15,15
  21640  00003196  00000001 USING  ORDINARY    00000000 00001000 FFFFFFE2  15 00F   21646  USERCVT,R15
  21653  0000319A  00000001 USING  ORDINARY    00000000 00001000 FFFFFFEF  15 000          @R15,15
  21832  0000320A  00000001 USING  ORDINARY    00000000 00001000 FFFFFFE0   4 0D0   21913  JCB,R4
  21925  00003238  00000001 USING  ORDINARY    00000000 00001000 FFFFFFFA   4 000          @R4,4
  22172  000032EC  00000001 USING  ORDINARY    00000000 00001000 FFFFFFE0   4 063   22236  JCB,R4
  22247  00003314  00000001 USING  ORDINARY    00000000 00001000 FFFFFFFA   4 000          @R4,4
  22261  00003314  00000001 USING  ORDINARY    00000000 00001000 FFFFFFF7   7 000          @R7,7
  22264  00003314  00000001 USING  ORDINARY    00001D96 00001000 00000001   7 000          FINBASE,7
  22283  00003322  00000001 USING  ORDINARY    00000000 00001000 FFFFFFF8   6 020   22419  @R6,6
  22290  00003322  00000001 USING  ORDINARY    00000000 00001000 FFFFFFF9   5 000          @R5,5
  22404  00003586  00000001 USING  ORDINARY    00000000 00001000 FFFFFFF7   7 000          @R7,7
  22407  00003586  00000001 USING  ORDINARY    00003586 00001000 00000001   7 506   22728  $$$396B,7
  22460  000035B0  00000001 USING  ORDINARY    00000000 00001000 FFFFFFE0   4 0D0   22537  JCB,R4
  22506  000035C2  00000001 DROP                                            2              2
  22510  000035C8  00000001 USING  ORDINARY    00000000 00001000 FFFFFFFC   2 000          @R2,2
  22549  000035DE  00000001 USING  ORDINARY    00000000 00001000 FFFFFFFA   4 000          @R4,4
  22616  00003606  00000001 USING  ORDINARY    00000000 00001000 FFFFFFE0   4 0D0   22675  JCB,R4
  22663  0000361C  00000001 DROP                                            3              3
  22667  00003622  00000001 USING  ORDINARY    00000000 00001000 FFFFFFFB   3 000   22704  @R3,3
  22687  00003632  00000001 USING  ORDINARY    00000000 00001000 FFFFFFFA   4 044   29260  @R4,4
  22739  00003652  00000001 USING  ORDINARY    00000000 00001000 FFFFFFF7   7 000          @R7,7
  22742  00003652  00000001 USING  ORDINARY    00001D96 00001000 00000001   7 000          FINBASE,7
  22794  0000367A  00000001 USING  ORDINARY    00000000 00001000 FFFFFFF7   7 000          @R7,7
  22797  0000367A  00000001 USING  ORDINARY    0000367A 00001000 00000001   7 45E   23022  $$$412B,7
  23062  0000374E  00000001 USING  ORDINARY    00000000 00001000 FFFFFFE0  15 062   23073  JCB,R15
  23080  00003752  00000001 USING  ORDINARY    00000000 00001000 FFFFFFEF  15 009   23850  @R15,15
  23099  00003756  00000001 USING  ORDINARY    00000000 00001000 FFFFFFF7   7 000          @R7,7
  23102  00003756  00000001 USING  ORDINARY    00001D96 00001000 00000001   7 000          FINBASE,7
  23177  0000377E  00000001 USING  ORDINARY    00000000 00001000 FFFFFFF7   7 000          @R7,7
  23180  0000377E  00000001 USING  ORDINARY    0000377E 00001000 00000001   7 3D0   23904  $$$423B,7
  23194  0000377E  00000001 USING  ORDINARY    FFFFFFD8 00001000 FFFFFFDA   8 028   23283  CHKSPWA-(4+36),R8
  23922  00003906  00000001 USING  ORDINARY    00000000 00001000 FFFFFFF6   8 000          @R8,8
  23931  00003906  00000001 USING  ORDINARY    00000000 00001000 FFFFFFF7   7 000          @R7,7
  23934  00003906  00000001 USING  ORDINARY    00001D96 00001000 00000001   7 000          FINBASE,7
  23984  0000392E  00000001 USING  ORDINARY    00000000 00001000 FFFFFFF7   7 000          @R7,7
  23987  0000392E  00000001 USING  ORDINARY    0000392E 00001000 00000001   7 1EC   24455  $$$468B,7
  24477  00003A4A  00000001 USING  ORDINARY    00000000 00001000 FFFFFFF7   7 000          @R7,7
  24480  00003A4A  00000001 USING  ORDINARY    00001D96 00001000 00000001   7 000          FINBASE,7
  24589  00003B6E  00000001 USING  ORDINARY    00000000 00001000 FFFFFFF7   7 000          @R7,7
  24592  00003B6E  00000001 USING  ORDINARY    00003B6E 00001000 00000001   7 188   24702  $$$476B,7
  24715  00003BE2  00000001 USING  ORDINARY    00000000 00001000 FFFFFFF7   7 000          @R7,7
  24718  00003BE2  00000001 USING  ORDINARY    00001D96 00001000 00000001   7 000          FINBASE,7
  24774  00003C0A  00000001 USING  ORDINARY    00000000 00001000 FFFFFFF7   7 000          @R7,7
  24777  00003C0A  00000001 USING  ORDINARY    00003C0A 00001000 00000001   7 0EE   24916  $$$480B,7
  24928  00003C8E  00000001 USING  ORDINARY    00000000 00001000 FFFFFFF7   7 000          @R7,7
  24931  00003C8E  00000001 USING  ORDINARY    00001D96 00001000 00000001   7 000          FINBASE,7
  25021  00003D14  00000001 USING  ORDINARY    00000000 00001000 FFFFFFF7   7 000          @R7,7
  25024  00003D14  00000001 USING  ORDINARY    00003D14 00001000 00000001   7 4C6   25265  $$$486B,7
  25068  00003D36  00000001 DROP                                            2              2
  25072  00003D3C  00000001 USING  ORDINARY    00000000 00001000 FFFFFFFC   2 000          @R2,2
  25277  00003DDC  00000001 USING  ORDINARY    00000000 00001000 FFFFFFF7   7 000          @R7,7
  25280  00003DDC  00000001 USING  ORDINARY    00001D96 00001000 00000001   7 000          FINBASE,7
  25330  00003E04  00000001 USING  ORDINARY    00000000 00001000 FFFFFFF7   7 000          @R7,7
1SIGN     (SIGN4072) (12:54) (15MAR04) Using Map                                                                            Page  134
  25333  00003E04  00000001 USING  ORDINARY    00003E04 00001000 00000001   7 3DC   25621  $$$496B,7
  25347  00003E04  00000001 DROP                                            2              2
  25351  00003E0A  00000001 USING  ORDINARY    00000000 00001000 FFFFFFFC   2 000          @R2,2
  25633  00003F1E  00000001 USING  ORDINARY    00000000 00001000 FFFFFFF7   7 000          @R7,7
  25636  00003F1E  00000001 USING  ORDINARY    00001D96 00001000 00000001   7 000          FINBASE,7
  25685  00003F46  00000001 USING  ORDINARY    00000000 00001000 FFFFFFF7   7 000          @R7,7
  25688  00003F46  00000001 USING  ORDINARY    00003F46 00001000 00000001   7 2A0   25850  $$$505B,7
  25887  00003FB6  00000001 USING  ORDINARY    00000000 00001000 FFFFFFF7   7 000          @R7,7
  25890  00003FB6  00000001 USING  ORDINARY    00001D96 00001000 00000001   7 000          FINBASE,7
  25949  00003FDE  00000001 USING  ORDINARY    00000000 00001000 FFFFFFF7   7 000          @R7,7
  25952  00003FDE  00000001 USING  ORDINARY    00003FDE 00001000 00000001   7 1DE   26042  $$$515B,7
  26059  000040A0  00000001 USING  ORDINARY    00000000 00001000 FFFFFFF7   7 000          @R7,7
  26062  000040A0  00000001 USING  ORDINARY    00001D96 00001000 00000001   7 000          FINBASE,7
  26115  000040C8  00000001 USING  ORDINARY    00000000 00001000 FFFFFFF7   7 000          @R7,7
  26118  000040C8  00000001 USING  ORDINARY    000040C8 00001000 00000001   7 0D4   26163  $$$518B,7
  26180  00004110  00000001 USING  ORDINARY    00000000 00001000 FFFFFFF7   7 000          @R7,7
  26183  00004110  00000001 USING  ORDINARY    00001D96 00001000 00000001   7 000          FINBASE,7
  26317  00004206  00000001 USING  ORDINARY    00000000 00001000 FFFFFFF7   7 000          @R7,7
  26320  00004206  00000001 USING  ORDINARY    00004206 00001000 00000001   7 6EA   26332  $$$521B,7
  26346  00004212  00000001 USING  ORDINARY    00000000 00001000 FFFFFFF7   7 000          @R7,7
  26349  00004212  00000001 USING  ORDINARY    00001D96 00001000 00000001   7 000          FINBASE,7
  26400  0000423A  00000001 USING  ORDINARY    00000000 00001000 FFFFFFF7   7 000          @R7,7
  26403  0000423A  00000001 USING  ORDINARY    0000423A 00001000 00000001   7 71C   26827  $$$524B,7
  26417  0000423A  00000001 USING  ORDINARY    FFFFFFD8 00001000 FFFFFFD9   8 028   26421  LOGWA-(4+36),R8
  26429  0000423E  00000001 USING  ORDINARY    00000000 00001000 FFFFFFD9   6 000   26957  LOGWA,R6
  26707  00004328  00000001 USING  ORDINARY    00000000 00001000 FFFFFFE0  15 062   26718  JCB,R15
  26725  0000432C  00000001 USING  ORDINARY    00000000 00001000 FFFFFFEF  15 000          @R15,15
  26801  00004352  00000001 USING  ORDINARY    00000000 00001000 FFFFFFE0  15 062   26812  JCB,R15
  26819  00004356  00000001 USING  ORDINARY    00000000 00001000 FFFFFFEF  15 000          @R15,15
  26837  0000435E  00000001 USING  ORDINARY    00000000 00001000 FFFFFFF6   8 000          @R8,8
  26846  0000435E  00000001 USING  ORDINARY    00000000 00001000 FFFFFFF7   7 000          @R7,7
  26849  0000435E  00000001 USING  ORDINARY    00001D96 00001000 00000001   7 000          FINBASE,7
  26940  000043FE  00000001 USING  ORDINARY    00000000 00001000 FFFFFFF7   7 000          @R7,7
  26943  000043FE  00000001 USING  ORDINARY    000043FE 00001000 00000001   7 000          $$$534B,7
  26968  00004402  00000001 USING  ORDINARY    00000000 00001000 FFFFFFF7   7 000          @R7,7
  26971  00004402  00000001 USING  ORDINARY    00001D96 00001000 00000001   7 000          FINBASE,7
  26991  00004410  00000001 USING  ORDINARY    00000000 00001000 FFFFFFF8   6 000          @R6,6
  27086  0000442A  00000001 USING  ORDINARY    00000000 00001000 FFFFFFF7   7 000          @R7,7
  27089  0000442A  00000001 USING  ORDINARY    0000442A 00001000 00000001   7 516   27512  $$$537B,7
  27103  0000442A  00000001 USING  ORDINARY    FFFFFFD8 00001000 FFFFFFD8   8 028   27108  LGNWA-(4+36),R8
  27116  0000442E  00000001 USING  ORDINARY    00000000 00001000 FFFFFFD8   6 500   28212  LGNWA,R6
  27544  000045B0  00000001 USING  ORDINARY    00000000 00001000 FFFFFFF6   8 000          @R8,8
  27553  000045B0  00000001 USING  ORDINARY    00000000 00001000 FFFFFFF7   7 000          @R7,7
  27556  000045B0  00000001 USING  ORDINARY    00001D96 00001000 00000001   7 000          FINBASE,7
  27666  0000467A  00000001 USING  ORDINARY    00000000 00001000 FFFFFFF7   7 000          @R7,7
  27669  0000467A  00000001 USING  ORDINARY    0000467A 00001000 00000001   7 2F2   27763  $$$553B,7
  27800  000046EE  00000001 USING  ORDINARY    00000000 00001000 FFFFFFF7   7 000          @R7,7
  27803  000046EE  00000001 USING  ORDINARY    00001D96 00001000 00000001   7 000          FINBASE,7
  27850  00004716  00000001 USING  ORDINARY    00000000 00001000 FFFFFFF7   7 000          @R7,7
  27853  00004716  00000001 USING  ORDINARY    00004716 00001000 00000001   7 22A   27932  $$$561B,7
  27949  00004784  00000001 USING  ORDINARY    00000000 00001000 FFFFFFF7   7 000          @R7,7
  27952  00004784  00000001 USING  ORDINARY    00001D96 00001000 00000001   7 000          FINBASE,7
  27999  000047AC  00000001 USING  ORDINARY    00000000 00001000 FFFFFFF7   7 000          @R7,7
  28002  000047AC  00000001 USING  ORDINARY    000047AC 00001000 00000001   7 1CC   28241  $$$565B,7
  28266  00004868  00000001 USING  ORDINARY    00000000 00001000 FFFFFFF7   7 000          @R7,7
  28269  00004868  00000001 USING  ORDINARY    00001D96 00001000 00000001   7 000          FINBASE,7
  28316  00004890  00000001 USING  ORDINARY    00000000 00001000 FFFFFFF7   7 000          @R7,7
  28319  00004890  00000001 USING  ORDINARY    00004890 00001000 00000001   7 0B0   28354  $$$581B,7
  28369  000048DE  00000001 USING  ORDINARY    00000000 00001000 FFFFFFF7   7 000          @R7,7
1SIGN     (SIGN4072) (12:54) (15MAR04) Using Map                                                                            Page  135
  28372  000048DE  00000001 USING  ORDINARY    00001D96 00001000 00000001   7 000          FINBASE,7
  28392  000048EC  00000001 USING  ORDINARY    00000000 00001000 FFFFFFF8   6 000          @R6,6
  28465  00004998  00000001 USING  ORDINARY    00000000 00001000 FFFFFFF7   7 000          @R7,7
  28468  00004998  00000001 USING  ORDINARY    00004998 00001000 00000001   7 000          $$$584B,7
  28490  0000499A  00000001 USING  ORDINARY    00000000 00001000 FFFFFFF7   7 000          @R7,7
  28493  0000499A  00000001 USING  ORDINARY    0000499A 00001000 00000001   7 CA6   28837  $$$585B,7
  28588  000049E0  00000001 USING  ORDINARY    00000000 00001000 FFFFFFE0  15 048   28594  JCB,R15
  28601  000049E4  00000001 USING  ORDINARY    00000000 00001000 FFFFFFEF  15 000          @R15,15
  28852  00004A8E  00000001 USING  ORDINARY    00000000 00001000 FFFFFFF7   7 000          @R7,7
  28855  00004A8E  00000001 USING  ORDINARY    00001D96 00001000 00000001   7 000          FINBASE,7
  28904  00004AB6  00000001 USING  ORDINARY    00000000 00001000 FFFFFFF7   7 000          @R7,7
  28907  00004AB6  00000001 USING  ORDINARY    00004AB6 00001000 00000001   7 000          $$$593B,7
  28929  00004AB8  00000001 USING  ORDINARY    00000000 00001000 FFFFFFF7   7 000          @R7,7
  28932  00004AB8  00000001 USING  ORDINARY    00004AB8 00001000 00000001   7 CC8   31267  $$$594B,7
  29074  00004B18  00000001 USING  ORDINARY    00000000 00001000 FFFFFFE0  15 048   29080  JCB,R15
  29087  00004B1C  00000001 USING  ORDINARY    00000000 00001000 FFFFFFEF  15 000          @R15,15
  29174  00004B62  00000001 USING  ORDINARY    00000000 00001000 FFFFFFE0  15 048   29180  JCB,R15
  29187  00004B66  00000001 USING  ORDINARY    00000000 00001000 FFFFFFEF  15 000   29271  @R15,15
  29295  00004BAC  00000001 USING  ORDINARY    00000000 00001000 FFFFFFDC   4 008   29402  VOL,R4
  29409  00004BDA  00000001 USING  ORDINARY    00000000 00001000 FFFFFFFA   4 000          @R4,4
  29573  00004C6C  00000001 USING  ORDINARY    00000000 00001000 FFFFFFE0   2 063   29692  JCB,R2
  29703  00004CBA  00000001 USING  ORDINARY    00000000 00001000 FFFFFFFC   2 000          @R2,2
  29797  00004D16  00000001 USING  ORDINARY    00000000 00001000 FFFFFFE0   6 063   31142  JCB,R6
  29874  00004D34  00000001 USING  ORDINARY    00000000 00001000 FFFFFFE1   5 1F4   30381  KWR,R5
  30243  00004E38  00000001 DROP                                           15              15
  30247  00004E3E  00000001 USING  ORDINARY    00000000 00001000 FFFFFFEF  15 000          @R15,15
  30388  00004E90  00000001 USING  ORDINARY    00000000 00001000 FFFFFFF9   5 000          @R5,5
  30650  00004F44  00000001 USING  ORDINARY    00000000 00001000 FFFFFFE0  15 063   30661  JCB,R15
  30668  00004F48  00000001 USING  ORDINARY    00000000 00001000 FFFFFFEF  15 000          @R15,15
  31281  000050F6  00000001 USING  ORDINARY    00000000 00001000 FFFFFFF7   7 000          @R7,7
  31284  000050F6  00000001 USING  ORDINARY    00001D96 00001000 00000001   7 000          FINBASE,7
  31304  00005104  00000001 USING  ORDINARY    00000000 00001000 FFFFFFF8   6 000          @R6,6
  31372  00005150  00000001 USING  ORDINARY    00000000 00001000 FFFFFFF7   7 000          @R7,7
  31375  00005150  00000001 USING  ORDINARY    00005150 00001000 00000001   7 636   32033  $$$667B,7
  31389  00005150  00000001 USING  ORDINARY    FFFFFFD8 00001000 FFFFFFD7   8 028   31557  SLOGWA-(4+36),R8
  31567  000051FA  00000001 USING  ORDINARY    00000000 00001000 FFFFFFE1   6 1F4   31820  KWR,R6
  31795  000052B8  00000001 USING  ORDINARY    00000000 00001000 FFFFFFE0  15 04F   31802  JCB,R15
  31809  000052C4  00000001 USING  ORDINARY    00000000 00001000 FFFFFFEF  15 000          @R15,15
  32043  00005374  00000001 USING  ORDINARY    00000000 00001000 FFFFFFF8   6 000          @R6,6
  32048  00005374  00000001 USING  ORDINARY    00000000 00001000 FFFFFFF6   8 000          @R8,8
  32057  00005374  00000001 USING  ORDINARY    00000000 00001000 FFFFFFF7   7 000          @R7,7
  32060  00005374  00000001 USING  ORDINARY    00001D96 00001000 00000001   7 000          FINBASE,7
  32168  0000543E  00000001 USING  ORDINARY    00000000 00001000 FFFFFFF7   7 000          @R7,7
  32171  0000543E  00000001 USING  ORDINARY    0000543E 00001000 00000001   7 2FF   32207  $$$687B,7
  32234  0000545E  00000001 USING  ORDINARY    00000000 00001000 FFFFFFF7   7 000          @R7,7
  32237  0000545E  00000001 USING  ORDINARY    00001D96 00001000 00000001   7 000          FINBASE,7

1         (SIGN4072) (12:54) (15MAR04) General Purpose Register Cross Reference                                             Page  136
- Register  References (M=modified, B=branch, U=USING, D=DROP, N=index)                      HLASM R4.0  2004/03/15 12.54
0    0(0)      982U   983D  2101   2169M  2169   2170M  9604   9908M  9912   9923M  9923   9932   9933   9934   9952M
              9990M  9994  10005M 10005  10014  10015  10403M 10517M 10537M 10571M 10635  10647M 10652  10660  10738M
             10742  10753M 10753  10762  10763  10764  10782M 10818M 10822  10833M 10833  10842  10843  10844  10879M
             10879  10928M 10928  10937  10938  11066M 11066  11075  11076  11183M 11196  11208M 11213  11221  11299M
             11303  11314M 11314  11323  11324  11325  11343M 11381M 11385  11396M 11396  11405  11406  11789  11821
             11836M 12024  12056  12071M 12402  12464M 12464  12482M 12500M 12525M 12525  12543M 12561M 12586M 12586
             12611M 12611  12629M 12654M 12654  12672M 12690M 12715M 12715  12733M 12758M 12758  12776M 12794M 12819M
             12819  12837M 12855M 12880M 12880  12905M 12905  12923M 12948M 12948  12973M 12973  12991M 13009M 13034M
             13034  13052M 13077M 13077  13102M 13102  13127M 13127  13167M 13167  13185M 13203M 13221M 13246M 13246
             13271M 13271  13289M 13307M 13325M 13343M 13361M 13379M 13397M 13415M 13433M 13451M 13469M 13487M 13505M
             13530M 13530  13548M 13566M 13584M 13602M 13620M 13638M 13656M 13681M 13681  13699M 13724M 13724  13749M
             13749  13774M 13774  13807M 13830  13866  13886M 13898M 13940  14201M 14201  14256M 14320M 14340  14381M
             14401  14442M 14462  14503M 14523  14564M 14584  14658M 14674M 14733M 14753  14799M 14819  14862M 14882
             14927M 14947  15027M 15047  15126M 15148  15219M 15237M 15255M 15273M 15291M 15327M 15343M 15618M 15678M
             15844M 15864M 15884  15891  15969M 16024M 16044M 16064  16578M 16596M 16614M 16641M 16641  16659M 16677M
             16695M 16708M 16751M 16769M 16785M 16805M 16831M 16831  16865M 16890M 16890  16915M 16915  16959M 17119M
             17124  17125  17209M 17243M 17277M 17313M 17342M 17405M 17421M 17486M 17502M 17552M 17568M 17633M 17649M
             17665  17676M 17973M 18009M 18061M 18215M 18215  18238M 18272M 18329M 18396M 18400  18480M 18517M 18560M
             18560  18617M 18626M 18626  18750  18829M 18851M 18879M 18897M 18925M 18950M 18950  18975M 18975  18992M
             19017M 19033M 19070M 19088M 19116M 19132M 19169M 19197M 19213M 19250M 19278M 19294M 19331M 19359M 19375M
             19397M 19415M 19440M 19440  19458M 19476M 19501M 19501  19519M 19535M 19578M 19578  19603M 19603  19628M
             19628  19679M 19748  19818M 19898M 19972M 20000M 20018M 20046M 20064M 20383  20425M 20507  20549M 20586M
             20639  20648M 20692M 20727M 20750M 20804M 20832M 20850M 20878M 20896M 20924M 20942M 21020M 21048M 21066M
             21094M 21110M 21130M 21153M 21180M 21214M 21230M 21274M 21297M 21297  21315M 21336M 21336  21354M 21390M
             21409M 21409  21425M 21425  21495M 21516M 21516  21576M 21576  21646M 21667M 21667  21681M 21709M 21727M
             21755M 21773M 21949M 21977M 21995M 22023M 22041M 22078M 22096M 22128M 22272M 22387  22750M 22777  22869M
             22887M 22954  22965M 22965  22974  22975  22976  23110M 23159  23216M 23216  23227  23239M 23244  23303
             23336  23355  23452  23485  23504  23601  23634  23653  23750  23783  23802  23942M 23967  24031M 24056M
             24056  24081M 24081  24102M 24102  24123  24124M 24179M 24205M 24249M 24276  24277M 24332M 24360M 24404M
             24418M 24418  24488M 24572  24619  24647M 24657M 24662  24676M 24691M 24726M 24757  24807  24841M 24939M
             25004  25054  25073M 25079M 25140M 25159  25224M 25288M 25313  25366M 25401M 25410  25411  25524M 25529
             25644M 25668  25764M 25784M 25804  25811  25898M 25932  25996M 26004M 26012M 26020M 26029M 26037M 26070M
             26098  26191M 26300  26357M 26382  26445M 26445  26454  26455  26540M 26565M 26565  26625M 26643M 26668M
             26668  26857M 26923  26979M 27068  27137M 27143  27145  27193  27221M 27221  27230  27231  27315M 27338M
             27400M 27564M 27649  27684M 27684  27693  27694  27695  27725  27737M 27742  27811M 27833  27868M 27868
             27877  27878  27879  27929M 27934  27960M 27982  28017M 28017  28026  28027  28028  28067  28074  28137
             28179  28277M 28299  28334M 28334  28343  28344  28345  28380M 28448  28567M 28611M 28611  28626M 28651M
             28666M 28691M 28721M 28741M 28762M 28813M 28813  28863M 28887  29100M 29200M 29444M 29459M 29487M 29505M
             29533M 29600M 29620  29629  29641M 29646  29907M 30077M 30103M 30118M 30144M 30172  30209M 30210M 30211M
             30215M 30215  30216M 30225M 30225  30249M 30253  30255  30300M 30426M 30426  30446M 30470M 30494M 30519M
             30519  30532M 30532  30539  30566M 30583M 30674M 30708M 30728M 30752M 30776M 30817M 30817  30842M 30842
             30891M 30909M 30927M 30991M 31036  31056M 31056  31170M 31190M 31210  31230M 31230  31292M 31354  31497M
             31497  31506  31507  31551M 31588M 31615M 31643M 31671M 31689M 31717M 31735M 31854M 31874M 31894  31901
             31984M 32030M 32068M 32151  32245M
     1(1)      978U  2101   2164M  2165M  2171M  9881M  9882   9904M  9911   9919M  9932N  9933N  9934N  9951M  9986M
              9993  10001M 10014N 10015N 10017N 10402M 10516M 10536M 10570M 10711M 10712  10734M 10741  10749M 10762N
             10763N 10764N 10781M 10814M 10821  10829M 10842N 10843N 10844N 10890M 10891M 10891N 10924M 10937N 10938N
             10940N 11062M 11075N 11076N 11078N 11182M 11272M 11273  11295M 11302  11310M 11323N 11324N 11325N 11342M
             11377M 11384  11392M 11405N 11406N 11408N 11523M 11539M 11789  11815M 11836M 12024  12050M 12071M 12402
             12481M 12499M 12542M 12560M 12628M 12671M 12689M 12732M 12775M 12793M 12836M 12854M 12922M 12990M 13008M
             13051M 13184M 13202M 13220M 13288M 13306M 13324M 13342M 13360M 13378M 13396M 13414M 13432M 13450M 13468M
             13486M 13504M 13547M 13565M 13583M 13601M 13619M 13637M 13655M 13698M 13807M 13830  13866  13886M 13898M
             14249M 14320M 14340  14381M 14401  14442M 14462  14503M 14523  14564M 14584  14657M 14673M 14733M 14753
             14799M 14819  14862M 14882  14910M 14911M 14911N 14927M 14947  15027M 15047  15126M 15148  15218M 15236M
             15254M 15272M 15290M 15326M 15343M 15461  15495M 15549M 15613M 15685M 15839M 15884  15959M 15968M 16019M
1         (SIGN4072) (12:54) (15MAR04) General Purpose Register Cross Reference                                             Page  137
             16064  16083  16294M 16577M 16595M 16613M 16633D 16635M 16635  16636M 16637U 16658M 16676M 16694M 16712M
             16712  16750M 16768M 16784M 16804M 16864M 16958M 17114M 17208M 17242M 17276M 17312M 17341M 17404M 17420M
             17485M 17501M 17551M 17567M 17632M 17648M 17675M 17699M 17800M 17861M 17910M 17974M 17979  18002M 18060M
             18217M 18217  18237M 18265M 18328M 18395M 18399  18479M 18516M 18613M 18750  18828M 18850M 18874M 18896M
             18920M 18991M 19016M 19032M 19069M 19087M 19111M 19131M 19168M 19192M 19212M 19249M 19273M 19293M 19330M
             19354M 19374M 19396M 19414M 19457M 19475M 19518M 19534M 19679M 19748  19777  19817M 19897M 19971M 19995M
             20017M 20041M 20063M 20383  20385M 20395U 20414U 20425M 20507  20509M 20519U 20538U 20549M 20647M 20691M
             20726M 20749M 20803M 20827M 20849M 20873M 20895M 20919M 20941M 21019M 21043M 21065M 21089M 21109M 21129M
             21152M 21179M 21213M 21229M 21273M 21293M 21314M 21332M 21353M 21389M 21680M 21704M 21726M 21750M 21772M
             21948M 21972M 21994M 22018M 22040M 22077M 22095M 22127M 22272M 22387  22750M 22777  22864M 22886M 22953
             22961M 22974N 22975N 22976N 23006M 23007M 23007N 23110M 23159  23283M 23288  23942M 23967  24030M 24128M
             24128  24172M 24200M 24242M 24281M 24281  24325M 24353M 24397M 24488M 24572  24619  24633  24646M 24646
             24647M 24663  24726M 24757  24807  24834M 24835M 24835  24879M 24888M 24888  24903M 24939M 25004  25054
             25074M 25079M 25092M 25093  25229  25288M 25313  25365M 25396M 25519M 25644M 25668  25759M 25804  25898M
             25932  25997M 26005M 26013M 26021M 26030M 26038M 26070M 26098  26191M 26300  26357M 26382  26441M 26454N
             26455N 26457N 26539M 26594M 26620M 26642M 26857M 26923  26979M 27068  27136M 27142  27185M 27192  27217M
             27230N 27231N 27233N 27314M 27337M 27399M 27564M 27649  27680M 27693N 27694N 27695N 27811M 27833  27864M
             27877N 27878N 27879N 27924M 27960M 27982  28013M 28026N 28027N 28028N 28118  28161M 28169M 28277M 28299
             28330M 28343N 28344N 28345N 28380M 28448  28566M 28607M 28625M 28646M 28665M 28686M 28720M 28740M 28761M
             28863M 28887  29107M 29207M 29440M 29458M 29482M 29504M 29528M 29620  29906M 30072M 30098M 30117M 30139M
             30207M 30211M 30216M 30234M 30248  30299M 30445M 30469M 30493M 30539  30583M 30633M 30673M 30707M 30727M
             30751M 30775M 30890M 30908M 30926M 30984M 31036  31101M 31165M 31210  31228M 31228  31292M 31354  31493M
             31506N 31507N 31509N 31550M 31587M 31614M 31642M 31666M 31688M 31712M 31734M 31849M 31894  31979M 32029M
             32068M 32151  32245M
     2(2)      974U  2101  11789  11836M 12024  12071M 12402  13807M 13830  14320M 14340  14381M 14401  14442M 14462
             14503M 14523  14564M 14584  14733M 14753  14799M 14819  14862M 14882  14927M 14947  15027M 15047  15126M
             15148  15343M 15884  16064  17819M 17820M 17821M 18750  19679M 19748  20364M 20572  20574M 20592  20598M
             20713M 20713  20721M 21287M 21293  21379  22272M 22387  22425M 22431M 22506D 22508M 22508  22509M 22510U
             22519M 22519  22526M 22531M 22532  22551M 22577M 22583  22659M 22668M 22669M 22670  22689M 22714M 22720
             22750M 22777  23110M 23159  23355M 23356M 23359  23371M 23380M 23389M 23389  23396  23504M 23505M 23508
             23520M 23529M 23538M 23538  23545  23653M 23654M 23657  23669M 23678M 23687M 23687  23694  23802M 23803M
             23806  23818M 23827M 23836M 23836  23843  23942M 23967  24123M 24276M 24488M 24572  24619  24726M 24757
             24807  24939M 25004  25054  25068D 25070M 25070  25071M 25072U 25081  25288M 25313  25347D 25349M 25349
             25350M 25351U 25360  25644M 25668  25804  25898M 25932  25998M 26006M 26014M 26022M 26031M 26039M 26070M
             26098  26191M 26300  26357M 26382  26857M 26923  26979M 27068  27142M 27165M 27564M 27649  27811M 27833
             27960M 27982  28277M 28299  28380M 28448  28863M 28887  29563M 29573U 29620  29703U 30061M 30083  30109
             30124  30150  31036  31210  31292M 31354  31894  32068M 32151  32245M
     3(3)      970U  2101  11789  11836M 12024  12071M 12402  13807M 13830  14320M 14340  14381M 14401  14442M 14462
             14503M 14523  14564M 14584  14733M 14753  14799M 14819  14862M 14882  14927M 14947  15027M 15047  15126M
             15148  15343M 15884  16064  17819M 17820M 17821M 17822M 17843  17903  18750  19679M 19748  20572  20576M
             20598M 21821M 21821  21904M 21938M 21938  22272M 22387  22426M 22431M 22552M 22574M 22663D 22665M 22665
             22666M 22667U 22668  22690M 22712M 22750M 22777  23110M 23159  23942M 23967  24130M 24130  24283M 24283
             24488M 24572  24619  24726M 24757  24807  24939M 25004  25054  25288M 25313  25644M 25668  25804  25898M
             25932  26070M 26098  26191M 26300  26357M 26382  26857M 26923  26979M 27068  27143M 27165M 27564M 27649
             27811M 27833  27960M 27982  28277M 28299  28380M 28448  28863M 28887  29620  31036  31210  31292M 31354
             31894  32068M 32151  32245M
     4(4)      966U  2101   9602M 11789  11836M 12024  12071M 12402  13807M 13830  14320M 14340  14381M 14401  14442M
             14462  14503M 14523  14564M 14584  14733M 14753  14799M 14819  14862M 14882  14927M 14947  15027M 15047
             15126M 15148  15343M 15884  16064  16091M 16101U 16176U 17827M 17827  17828M 17829M 17854M 17854  17979M
             18037  18052  18750  19679M 19748  21822M 21832U 21850  21913M 21925U 22162M 22172U 22247U 22272M 22387
             22450M 22460U 22479  22537M 22549U 22606M 22616U 22635  22675M 22687U 22750M 22777  23110M 23159  23942M
             23967  24255M 24488M 24572  24619  24726M 24757  24807  24939M 25004  25054  25288M 25313  25644M 25668
             25804  25898M 25932  26070M 26098  26191M 26300  26357M 26382  26857M 26923  26979M 27068  27144M 27165M
             27564M 27649  27811M 27833  27960M 27982  28277M 28299  28380M 28448  28863M 28887  29218M 29230  29247M
             29247  29254M 29295U 29409U 29620  29891M 29912M 29912  29921M 29921  29931M 31036  31210  31292M 31354
             31894  32068M 32151  32245M
     5(5)      962U  2101   9604M  9607   9619M  9624   9701   9705M  9714M  9714   9721  11789  11836M 12024  12071M
             12402  13807M 13830  14320M 14340  14381M 14401  14442M 14462  14503M 14523  14564M 14584  14733M 14753
             14799M 14819  14862M 14882  14927M 14947  15027M 15047  15126M 15148  15343M 15461M 15469U 15884  16064
1         (SIGN4072) (12:54) (15MAR04) General Purpose Register Cross Reference                                             Page  138
             18646U 18750  19679M 19748  19787M 19795U 19817  20647  22272M 22290U 22387  22421M 22425  22531  22552
             22669  22690  22750M 22777  23110M 23159  23942M 23967  24488M 24572  24619  24726M 24757  24807  24939M
             25004  25054  25288M 25313  25644M 25668  25804  25898M 25932  26070M 26098  26191M 26300  26357M 26382
             26857M 26923  26979M 27068  27145M 27148  27160M 27165M 27564M 27649  27811M 27833  27960M 27982  28277M
             28299  28380M 28448  28863M 28887  29620  29863M 29874U 29906  30299  30388U 31036  31210  31292M 31354
             31894  32068M 32151  32245M
     6(6)      958U  2101   9508M  9517U 10173M 11789  11836M 12024  12071M 12402  13807M 13830  14320M 14340  14381M
             14401  14442M 14462  14503M 14523  14564M 14584  14733M 14753  14799M 14819  14862M 14882  14927M 14947
             15027M 15047  15126M 15148  15343M 15355U 15471M 15481U 15560U 15884  16064  16524M 16534U 16958  17036U
             17079M 17087U 18060  18328  18544U 18750  19679M 19748  19777M 19785U 22272M 22283U 22387  22418M 22419M
             22422  22727  22750M 22777  23110M 23159  23942M 23967  24488M 24572  24619  24726M 24757  24807  24939M
             25004  25054  25288M 25313  25644M 25668  25804  25898M 25932  26070M 26098  26191M 26300  26357M 26382
             26421M 26429U 26857M 26923  26979M 26991U 27068  27108M 27116U 27564M 27649  27811M 27833  27960M 27982
             28277M 28299  28380M 28392U 28448  28863M 28887  29620  29789M 29797U 31036  31210  31292M 31304U 31354
             31557M 31567U 31587  31894  32043U 32068M 32151  32245M
     7(7)      954U  2094M  2094   2095B  2101   2107B  9495M  9505U  9763M  9773U  9776U 10134M 10144U 10147U 10153M
             10162U 10165U 11583U 11789  11794M 11806U 11828U 11836M 12024  12029M 12041U 12063U 12071M 12402  12407M
             12419U 13799U 13807M 13830  13835M 13847U 14312U 14320M 14340  14345M 14357U 14373U 14381M 14401  14406M
             14418U 14434U 14442M 14462  14467M 14479U 14495U 14503M 14523  14528M 14540U 14556U 14564M 14584  14589M
             14601U 14725U 14733M 14753  14758M 14770U 14791U 14799M 14819  14824M 14836U 14854U 14862M 14882  14887M
             14899U 14919U 14927M 14947  14952M 14964U 15019U 15027M 15047  15052M 15064U 15118U 15126M 15148  15153M
             15165U 15335U 15343M 15446M 15456U 15884  16064  18419M 18429U 18432U 18438M 18447U 18450U 18750  18755M
             18767U 18770U 19668U 19671U 19679M 19748  19753M 19765U 19768U 22261U 22264U 22272M 22387  22392M 22404U
             22407U 22739U 22742U 22750M 22777  22782M 22794U 22797U 23099U 23102U 23110M 23159  23165M 23177U 23180U
             23931U 23934U 23942M 23967  23972M 23984U 23987U 24477U 24480U 24488M 24572  24577M 24589U 24592U 24619
             24715U 24718U 24726M 24757  24762M 24774U 24777U 24807  24928U 24931U 24939M 25004  25009M 25021U 25024U
             25054  25277U 25280U 25288M 25313  25318M 25330U 25333U 25633U 25636U 25644M 25668  25673M 25685U 25688U
             25804  25887U 25890U 25898M 25932  25937M 25949U 25952U 26059U 26062U 26070M 26098  26103M 26115U 26118U
             26180U 26183U 26191M 26300  26305M 26317U 26320U 26346U 26349U 26357M 26382  26388M 26400U 26403U 26846U
             26849U 26857M 26923  26928M 26940U 26943U 26968U 26971U 26979M 27068  27074M 27086U 27089U 27553U 27556U
             27564M 27649  27654M 27666U 27669U 27800U 27803U 27811M 27833  27838M 27850U 27853U 27949U 27952U 27960M
             27982  27987M 27999U 28002U 28266U 28269U 28277M 28299  28304M 28316U 28319U 28369U 28372U 28380M 28448
             28453M 28465U 28468U 28480M 28490U 28493U 28852U 28855U 28863M 28887  28892M 28904U 28907U 28919M 28929U
             28932U 29620  31036  31210  31281U 31284U 31292M 31354  31360M 31372U 31375U 31894  32057U 32060U 32068M
             32151  32156M 32168U 32171U 32234U 32237U 32245M
     8(8)      950U  2101   9494M 10133M 11789  11790M 11821N 11832  11836M 12024  12025M 12056N 12067  12071M 12402
             12403M 13803  13807M 13830  13831M 14316  14320M 14340  14341M 14377  14381M 14401  14402M 14438  14442M
             14462  14463M 14499  14503M 14523  14524M 14560  14564M 14584  14585M 14729  14733M 14753  14754M 14795
             14799M 14819  14820M 14858  14862M 14882  14883M 14923  14927M 14947  14948M 15023  15027M 15047  15048M
             15122  15126M 15148  15149M 15339  15343M 15884  16064  18750  18751M 19675  19679M 19748  19749M 22268
             22272M 22387  22388M 22746  22750M 22777  22778M 23106  23110M 23159  23161M 23194U 23922U 23938  23942M
             23967  23968M 24484  24488M 24572  24573M 24619  24722  24726M 24757  24758M 24807  24935  24939M 25004
             25005M 25054  25284  25288M 25313  25314M 25640  25644M 25668  25669M 25804  25894  25898M 25932  25933M
             26066  26070M 26098  26099M 26187  26191M 26300  26301M 26353  26357M 26382  26384M 26417U 26837U 26853
             26857M 26923  26924M 26975  26979M 27068  27070M 27103U 27544U 27560  27564M 27649  27650M 27807  27811M
             27833  27834M 27956  27960M 27982  27983M 28273  28277M 28299  28300M 28376  28380M 28448  28449M 28859
             28863M 28887  28888M 29620  31036  31210  31288  31292M 31354  31356M 31389U 31894  32048U 32064  32068M
             32151  32152M 32241  32245M
     9(9)      946U  2101  15884  16064  24619  24807  25054  25804  29620  31036  31210  31894
    10(A)      942U  2101  15884  16064  24619  24807  25054  25804  29620  31036  31210  31894
    11(B)      938U  1165U  2101   7917B  7918B 15884  16064  24610M 24610  24619  24633M 24641  24807  24903  24913M
             24913  25054  25804  29620  31036  31210  31894
    12(C)      934U  1174U  2101  15884  16064  24619  24807  25054  25804  29620  31036  31210  31894
    13(D)      930U  2101   9494   9508   9509M  9509   9602   9603M  9603   9741M  9927   9928   9929   9931M  9931
              9943M  9944   9945   9946  10009  10010  10011  10013M 10013  10026M 10027  10028  10029  10133  10173
             10174M 10174  10757  10758  10759  10761M 10761  10773M 10774  10775  10776  10837  10838  10839  10841M
             10841  10853M 10854  10855  10856  10932  10933  10934  10936M 10936  10949M 10950  10951  10952  11070
             11071  11072  11074M 11074  11087M 11088  11089  11090  11318  11319  11320  11322M 11322  11334M 11335
             11336  11337  11400  11401  11402  11404M 11404  11417M 11418  11419  11420  11786  11789  11790  11791M
1         (SIGN4072) (12:54) (15MAR04) General Purpose Register Cross Reference                                             Page  139
             11791  11832M 11836  11838  12021  12024  12025  12026M 12026  12067M 12071  12073  12399  12402  12403
             12404M 12404  13803M 13807  13809  13827  13830  13831  13832M 13832  13866  13867M 13867  13885M 13886
             13897M 13898  14316M 14320  14322  14337  14340  14341  14342M 14342  14377M 14381  14383  14398  14401
             14402  14403M 14403  14438M 14442  14444  14459  14462  14463  14464M 14464  14499M 14503  14505  14520
             14523  14524  14525M 14525  14560M 14564  14566  14581  14584  14585  14586M 14586  14729M 14733  14735
             14750  14753  14754  14755M 14755  14795M 14799  14801  14816  14819  14820  14821M 14821  14858M 14862
             14864  14879  14882  14883  14884M 14884  14923M 14927  14929  14944  14947  14948  14949M 14949  15023M
             15027  15029  15044  15047  15048  15049M 15049  15122M 15126  15128  15145  15148  15149  15150M 15150
             15339M 15343  15345  15685  15884  16064  16714  16715M 16715  16745M 18747  18750  18751  18752M 18752
             19675M 19679  19681  19745  19748  19749  19750M 19750  20383  20384M 20384  20424M 20425  20507  20508M
             20508  20548M 20549  20572  20573M 20573  20576  20577M 20577  20595M 20597M 20598  22268M 22272  22274
             22384  22387  22388  22389M 22389  22421  22422M 22423M 22423  22424M 22727M 22728M 22746M 22750  22752
             22774  22777  22778  22779M 22779  22969  22970  22971  22973M 22973  22985M 22986  22987  22988  23106M
             23110  23112  23156  23159  23161  23162M 23162  23938M 23942  23944  23964  23967  23968  23969M 23969
             24132  24133M 24133  24285  24286M 24286  24484M 24488  24490  24569  24572  24573  24574M 24574  24619
             24722M 24726  24728  24754  24757  24758  24759M 24759  24807  24935M 24939  24941  25001  25004  25005
             25006M 25006  25054  25284M 25288  25290  25310  25313  25314  25315M 25315  25640M 25644  25646  25665
             25668  25669  25670M 25670  25804  25894M 25898  25900  25929  25932  25933  25934M 25934  26066M 26070
             26072  26095  26098  26099  26100M 26100  26187M 26191  26193  26297  26300  26301  26302M 26302  26353M
             26357  26359  26379  26382  26384  26385M 26385  26449  26450  26451  26453M 26453  26466M 26467  26468
             26469  26853M 26857  26859  26920  26923  26924  26925M 26925  26975M 26979  26981  27065  27068  27070
             27071M 27071  27225  27226  27227  27229M 27229  27242M 27243  27244  27245  27560M 27564  27566  27646
             27649  27650  27651M 27651  27688  27689  27690  27692M 27692  27704M 27705  27706  27707  27807M 27811
             27813  27830  27833  27834  27835M 27835  27872  27873  27874  27876M 27876  27888M 27889  27890  27891
             27956M 27960  27962  27979  27982  27983  27984M 27984  28021  28022  28023  28025M 28025  28037M 28038
             28039  28040  28118  28119M 28119  28168M 28169  28273M 28277  28279  28296  28299  28300  28301M 28301
             28338  28339  28340  28342M 28342  28354M 28355  28356  28357  28376M 28380  28382  28445  28448  28449
             28450M 28450  28859M 28863  28865  28884  28887  28888  28889M 28889  29620  29863  29864M 29864  30061
             30062M 30062  30156M 30392M 30539  30540M 30540  30546  30547M 30547  30580M 30582M 30583  31036  31210
             31288M 31292  31294  31351  31354  31356  31357M 31357  31501  31502  31503  31505M 31505  31518M 31519
             31520  31521  31894  32064M 32068  32070  32148  32151  32152  32153M 32153  32241M 32245  32247
    14(E)      926U  2101   2102M  2116   2117M  2118B  2120M  2121B  2141M  2142B  2146M  2147B  2149M  2150B  2152M
              2153B  2155M  2156B  2158M  2159M  2159B  2165   9666M  9667M  9667B  9886M  9891M  9891   9910M  9911N
              9912N  9916M  9916   9926M  9927   9928   9929   9937M  9938M  9938B  9941M  9944   9945   9946   9950M
              9951N  9952N  9956M  9956   9971M  9972M  9972B  9992M  9993N  9994N  9998M  9998  10008M 10009  10010
             10011  10016M 10017  10020M 10021M 10021B 10024M 10027  10028  10029  10169M 10170M 10170B 10187M 10188M
             10188B 10259M 10260M 10260B 10414M 10415M 10415B 10454M 10455M 10455B 10564M 10565M 10565B 10578M 10579M
             10579B 10716M 10721M 10721  10740M 10741N 10742N 10746M 10746  10756M 10757  10758  10759  10767M 10768M
             10768B 10771M 10774  10775  10776  10780M 10781N 10782N 10786M 10786  10801M 10802M 10802B 10820M 10821N
             10822N 10826M 10826  10836M 10837  10838  10839  10847M 10848M 10848B 10851M 10854  10855  10856  10931M
             10932  10933  10934  10939M 10940  10943M 10944M 10944B 10947M 10950  10951  10952  11007M 11008N 11023N
             11038N 11039N 11040  11040  11041N 11042N 11055N 11059M 11059  11069M 11070  11071  11072  11077M 11078
             11081M 11082M 11082B 11085M 11088  11089  11090  11190M 11191M 11191B 11277M 11282M 11282  11301M 11302N
             11303N 11307M 11307  11317M 11318  11319  11320  11328M 11329M 11329B 11332M 11335  11336  11337  11341M
             11342N 11343N 11347M 11347  11362M 11363M 11363B 11383M 11384N 11385N 11389M 11389  11399M 11400  11401
             11402  11407M 11408  11411M 11412M 11412B 11415M 11418  11419  11420  11526M 11527M 11527B 11531M 11532M
             11532B 11536M 11537M 11537B 11542M 11543M 11543B 11786  11818M 11819M 11819B 11838M 11841B 12021  12053M
             12054M 12054B 12073M 12076B 12399  12475M 12476M 12476B 12493M 12494M 12494B 12511M 12512M 12512B 12536M
             12537M 12537B 12554M 12555M 12555B 12572M 12573M 12573B 12597M 12598M 12598B 12622M 12623M 12623B 12640M
             12641M 12641B 12665M 12666M 12666B 12683M 12684M 12684B 12701M 12702M 12702B 12726M 12727M 12727B 12744M
             12745M 12745B 12769M 12770M 12770B 12787M 12788M 12788B 12805M 12806M 12806B 12830M 12831M 12831B 12848M
             12849M 12849B 12866M 12867M 12867B 12891M 12892M 12892B 12916M 12917M 12917B 12934M 12935M 12935B 12959M
             12960M 12960B 12984M 12985M 12985B 13002M 13003M 13003B 13020M 13021M 13021B 13045M 13046M 13046B 13063M
             13064M 13064B 13088M 13089M 13089B 13113M 13114M 13114B 13138M 13139M 13139B 13178M 13179M 13179B 13196M
             13197M 13197B 13214M 13215M 13215B 13232M 13233M 13233B 13257M 13258M 13258B 13282M 13283M 13283B 13300M
             13301M 13301B 13318M 13319M 13319B 13336M 13337M 13337B 13354M 13355M 13355B 13372M 13373M 13373B 13390M
             13391M 13391B 13408M 13409M 13409B 13426M 13427M 13427B 13444M 13445M 13445B 13462M 13463M 13463B 13480M
             13481M 13481B 13498M 13499M 13499B 13516M 13517M 13517B 13541M 13542M 13542B 13559M 13560M 13560B 13577M
             13578M 13578B 13595M 13596M 13596B 13613M 13614M 13614B 13631M 13632M 13632B 13649M 13650M 13650B 13667M
1         (SIGN4072) (12:54) (15MAR04) General Purpose Register Cross Reference                                             Page  140
             13668M 13668B 13692M 13693M 13693B 13710M 13711M 13711B 13735M 13736M 13736B 13760M 13761M 13761B 13785M
             13786M 13786B 13809M 13812B 13827  13870M 13871M 13871B 13894M 13895M 13895B 14150M 14151M 14151B 14185M
             14186M 14186B 14259M 14260M 14260B 14276M 14277M 14277B 14299M 14300M 14300B 14322M 14325B 14337  14383M
             14386B 14398  14444M 14447B 14459  14505M 14508B 14520  14566M 14569B 14581  14616M 14617M 14617B 14651M
             14652M 14652B 14667M 14668M 14668B 14672M 14673N 14674N 14678M 14678  14681M 14682M 14682B 14685M 14686M
             14686B 14735M 14738B 14750  14801M 14804B 14816  14864M 14867B 14879  14929M 14932B 14944  14988M 14989M
             14989B 15029M 15032B 15044  15087M 15088M 15088B 15128M 15131B 15145  15212M 15213M 15213B 15230M 15231M
             15231B 15248M 15249M 15249B 15266M 15267M 15267B 15284M 15285M 15285B 15320M 15321M 15321B 15345M 15348B
             15492M 15493M 15493B 15498M 15499M 15499B 15552M 15553M 15553B 15621M 15622M 15622B 15812M 15813M 15813B
             15855M 15856M 15856B 15867M 15868M 15868B 15884  15885M 15956M 15957M 15957B 15963M 15964M 15964B 15972M
             15973M 15973B 16035M 16036M 16036B 16047M 16048M 16048B 16064  16065M 16181M 16182M 16182B 16297M 16298M
             16298B 16444M 16445M 16445B 16461M 16462M 16462B 16493M 16494M 16494B 16589M 16590M 16590B 16607M 16608M
             16608B 16625M 16626M 16626B 16652M 16653M 16653B 16670M 16671M 16671B 16688M 16689M 16689B 16706M 16707M
             16707B 16718M 16719M 16719B 16742M 16743M 16743B 16762M 16763M 16763B 16780M 16781M 16781B 16858M 16859M
             16859B 16876M 16877M 16877B 16901M 16902M 16902B 16926M 16927M 16927B 16962M 16963M 16963B 17122M 17123M
             17123B 17220M 17221M 17221B 17254M 17255M 17255B 17288M 17289M 17289B 17324M 17325M 17325B 17398M 17399M
             17399B 17416M 17417M 17417B 17479M 17480M 17480B 17497M 17498M 17498B 17545M 17546M 17546B 17563M 17564M
             17564B 17626M 17627M 17627B 17644M 17645M 17645B 17687M 17688M 17688B 17750M 17751M 17751B 17803M 17804M
             17804B 17811M 17816M 17817M 17864M 17865M 17865B 17913M 17914M 17914B 17977M 17978M 17978B 18020M 18021M
             18021B 18064M 18065M 18065B 18220M 18221M 18221B 18249M 18250M 18250B 18283M 18284M 18284B 18332M 18333M
             18333B 18398M 18399N 18400N 18404M 18404  18415M 18416M 18416B 18491M 18492M 18492B 18528M 18529M 18529B
             18571M 18572M 18572B 18637M 18638M 18638B 18747  18840M 18841M 18841B 18862M 18863M 18863B 18890M 18891M
             18891B 18908M 18909M 18909B 18936M 18937M 18937B 18961M 18962M 18962B 18986M 18987M 18987B 19028M 19029M
             19029B 19081M 19082M 19082B 19099M 19100M 19100B 19127M 19128M 19128B 19180M 19181M 19181B 19208M 19209M
             19209B 19261M 19262M 19262B 19289M 19290M 19290B 19342M 19343M 19343B 19370M 19371M 19371B 19408M 19409M
             19409B 19426M 19427M 19427B 19451M 19452M 19452B 19469M 19470M 19470B 19487M 19488M 19488B 19512M 19513M
             19513B 19530M 19531M 19531B 19564M 19565M 19565B 19589M 19590M 19590B 19614M 19615M 19615B 19639M 19640M
             19640B 19644M 19645M 19645B 19681M 19684B 19745  19821M 19822M 19822B 19909M 19910M 19910B 19983M 19984M
             19984B 20011M 20012M 20012B 20029M 20030M 20030B 20057M 20058M 20058B 20075M 20076M 20076B 20419M 20420M
             20420B 20476M 20477M 20477B 20502M 20503M 20503B 20543M 20544M 20544B 20589M 20590M 20590B 20637M 20638M
             20638B 20651M 20652M 20652B 20703M 20704M 20704B 20738M 20739M 20739B 20761M 20762M 20762B 20815M 20816M
             20816B 20843M 20844M 20844B 20861M 20862M 20862B 20889M 20890M 20890B 20907M 20908M 20908B 20935M 20936M
             20936B 20953M 20954M 20954B 21031M 21032M 21032B 21059M 21060M 21060B 21077M 21078M 21078B 21105M 21106M
             21106B 21207M 21208M 21208B 21225M 21226M 21226B 21285M 21286M 21286B 21308M 21309M 21309B 21326M 21327M
             21327B 21347M 21348M 21348B 21365M 21366M 21366B 21420M 21421M 21421B 21692M 21693M 21693B 21720M 21721M
             21721B 21738M 21739M 21739B 21766M 21767M 21767B 21960M 21961M 21961B 21988M 21989M 21989B 22006M 22007M
             22007B 22034M 22035M 22035B 22052M 22053M 22053B 22089M 22090M 22090B 22107M 22108M 22108B 22131M 22132M
             22132B 22155M 22156M 22156B 22274M 22277B 22384  22431M 22752M 22755B 22774  22880M 22881M 22881B 22894M
             22895M 22895B 22952M 22953N 22954N 22958M 22958  22968M 22969  22970  22971  22979M 22980M 22980B 22983M
             22986  22987  22988  23112M 23115B 23156  23286M 23287M 23287B 23944M 23947B 23964  24042M 24043M 24043B
             24067M 24068M 24068B 24092M 24093M 24093B 24121M 24122M 24122B 24136M 24137M 24137B 24160M 24161M 24161B
             24190M 24191M 24191B 24208M 24209M 24209B 24232M 24233M 24233B 24274M 24275M 24275B 24289M 24290M 24290B
             24313M 24314M 24314B 24343M 24344M 24344B 24363M 24364M 24364B 24387M 24388M 24388B 24447M 24448M 24448B
             24455M 24456M 24456B 24490M 24493B 24569  24619  24620M 24631M 24632M 24632B 24641M 24647M 24660M 24661M
             24661B 24687M 24688M 24688B 24702M 24703M 24703B 24728M 24731B 24754  24807  24808M 24820M 24821M 24821B
             24844M 24845M 24845B 24896M 24897M 24897B 24907M 24908M 24908B 24941M 24944B 25001  25054  25055M 25079M
             25097M 25102M 25102  25131M 25132M 25132B 25143M 25144M 25144B 25227M 25228M 25228B 25235M 25236M 25236B
             25239M 25240M 25240B 25245M 25246M 25246B 25249M 25250M 25250B 25253M 25254M 25254B 25257M 25258M 25258B
             25261M 25262M 25262B 25265M 25290M 25293B 25310  25404M 25405M 25405B 25527M 25528M 25528B 25602M 25603M
             25603B 25606M 25607M 25607B 25610M 25611M 25611B 25613M 25616M 25617M 25617B 25621M 25622M 25622B 25646M
             25649B 25665  25740M 25741M 25741B 25775M 25776M 25776B 25787M 25788M 25788B 25804  25805M 25900M 25903B
             25929  25967M 25968M 25968B 25972M 25973M 25973B 25977M 25978M 25978B 25982M 25983M 25983B 25987M 25988M
             25988B 25992M 25993M 25993B 26001M 26002M 26002B 26009M 26010M 26010B 26017M 26018M 26018B 26025M 26026M
             26026B 26034M 26035M 26035B 26042M 26043M 26043B 26072M 26075B 26095  26133M 26134M 26134B 26138M 26139M
             26139B 26143M 26144M 26144B 26148M 26149M 26149B 26153M 26154M 26154B 26158M 26159M 26159B 26163M 26164M
             26164B 26193M 26196B 26297  26332M 26333M 26333B 26359M 26362B 26379  26448M 26449  26450  26451  26456M
             26457  26460M 26461M 26461B 26464M 26467  26468  26469  26474M 26475M 26475B 26494M 26495M 26495B 26551M
             26552M 26552B 26576M 26577M 26577B 26597M 26598M 26598B 26636M 26637M 26637B 26654M 26655M 26655B 26679M
             26680M 26680B 26737M 26738M 26738B 26827M 26828M 26828B 26859M 26862B 26920  26981M 26984B 27065  27135M
1         (SIGN4072) (12:54) (15MAR04) General Purpose Register Cross Reference                                             Page  141
             27136N 27137N 27141M 27141  27169M 27174M 27174  27191M 27192N 27193N 27197M 27197  27224M 27225  27226
             27227  27232M 27233  27236M 27237M 27237B 27240M 27243  27244  27245  27318M 27319M 27319B 27342M 27343M
             27343B 27404M 27405M 27405B 27501M 27502M 27502B 27566M 27569B 27646  27687M 27688  27689  27690  27698M
             27699M 27699B 27702M 27705  27706  27707  27813M 27816B 27830  27871M 27872  27873  27874  27882M 27883M
             27883B 27886M 27889  27890  27891  27932M 27933M 27933B 27962M 27965B 27979  28020M 28021  28022  28023
             28031M 28032M 28032B 28035M 28038  28039  28040  28279M 28282B 28296  28337M 28338  28339  28340  28348M
             28349M 28349B 28352M 28355  28356  28357  28382M 28385B 28445  28498M 28499M 28499B 28502M 28503M 28503B
             28523M 28524M 28524B 28543M 28544M 28544B 28561M 28562M 28562B 28576M 28577M 28577B 28620M 28621M 28621B
             28635M 28636M 28636B 28660M 28661M 28661B 28675M 28676M 28676B 28700M 28701M 28701B 28790M 28791M 28791B
             28822M 28823M 28823B 28837M 28838M 28838B 28865M 28868B 28884  28936M 28937M 28937B 29110M 29111M 29111B
             29210M 29211M 29211B 29419M 29420M 29420B 29447M 29448M 29448B 29451M 29452M 29452B 29470M 29471M 29471B
             29498M 29499M 29499B 29516M 29517M 29517B 29544M 29545M 29545B 29603M 29604M 29604B 29620  29621M 29710M
             29711M 29711B 29716M 29717M 29717B 29721M 29722M 29722B 29727M 29728M 29728B 29743M 29744M 29744B 29747M
             29748M 29748B 29752M 29753M 29753B 29757M 29758M 29758B 29766M 29767M 29767B 29771M 29772M 29772B 29776M
             29777M 29777B 29781M 29782M 29782B 29786M 29787M 29787B 29910M 29911M 29911B 30086M 30087M 30087B 30112M
             30113M 30113B 30127M 30128M 30128B 30153M 30154M 30154B 30170M 30171M 30171B 30303M 30304M 30304B 30543M
             30544M 30544B 30550M 30551M 30551B 30577M 30578M 30578B 30606M 30607M 30607B 30615M 30616M 30616B 30637M
             30638M 30638B 30677M 30678M 30678B 30682M 30683M 30683B 30803M 30804M 30804B 30828M 30829M 30829B 30853M
             30854M 30854B 30902M 30903M 30903B 30920M 30921M 30921B 30938M 30939M 30939B 31002M 31003M 31003B 31036
             31037M 31067M 31068M 31068B 31104M 31105M 31105B 31130M 31131M 31131B 31181M 31182M 31182B 31193M 31194M
             31194B 31210  31211M 31233M 31234M 31234B 31258M 31259M 31259B 31267M 31268M 31268B 31294M 31297B 31351
             31484M 31485M 31485B 31500M 31501  31502  31503  31508M 31509  31512M 31513M 31513B 31516M 31519  31520
             31521  31526M 31527M 31527B 31591M 31592M 31592B 31654M 31655M 31655B 31682M 31683M 31683B 31700M 31701M
             31701B 31728M 31729M 31729B 31746M 31747M 31747B 31780M 31781M 31781B 31837M 31838M 31838B 31865M 31866M
             31866B 31877M 31878M 31878B 31894  31895M 31987M 31988M 31988B 32022M 32023M 32023B 32033M 32034M 32034B
             32070M 32073B 32148  32247M 32250B
    15(F)      922U  2101   8379M  8379   9597M  9598M  9599   9624M  9628M  9637M  9637   9644   9675M  9685U  9698U
              9947M  9947  10030M 10030  10042  10052M 10052  10065M 10065  10190M 10200U 10236U 10349M 10359U 10378U
             10411M 10416M 10426U 10444U 10561M 10575M 10575  10607M 10607  10624M 10624  10660M 10670M 10679M 10679
             10686  10777M 10777  10857M 10857  10868M 10868  10953M 10953  10965  10975M 10975  10988M 10988  11008M
             11017M 11017  11023M 11032M 11032  11038M 11039M 11041M 11042  11054M 11054  11055  11091M 11091  11103
             11113M 11113  11126M 11126  11187M 11187  11221M 11231M 11240M 11240  11247  11338M 11338  11421M 11421
             11433  11443M 11443  11456M 11456  11505M 11506M 11507  11546M 11556U 11574U 11840M 11840  12075M 12075
             12472M 12490M 12508M 12533M 12551M 12569M 12594M 12619M 12637M 12662M 12680M 12698M 12723M 12741M 12766M
             12784M 12802M 12827M 12845M 12863M 12888M 12913M 12931M 12956M 12981M 12999M 13017M 13042M 13060M 13085M
             13110M 13135M 13175M 13193M 13211M 13229M 13254M 13279M 13297M 13315M 13333M 13351M 13369M 13387M 13405M
             13423M 13441M 13459M 13477M 13495M 13513M 13538M 13556M 13574M 13592M 13610M 13628M 13646M 13664M 13689M
             13707M 13732M 13757M 13782M 13811M 13811  13858M 13859M 13859N 13866  13886M 13898M 13902M 13902  14175M
             14175  14182M 14240M 14264M 14264  14286M 14286  14324M 14324  14385M 14385  14446M 14446  14507M 14507
             14568M 14568  14612M 14613M 14613N 14648M 14718M 14737M 14737  14803M 14803  14847M 14866M 14866  14931M
             14931  15012M 15012  15031M 15031  15111M 15111  15130M 15130  15209M 15227M 15245M 15263M 15281M 15317M
             15347M 15347  15604M 15670M 15699M 15699  15809M 15852M 15884  15891M 15894  15906M 15914M 15923M 15923
             15930  15960M 16006M 16007M 16008  16032M 16064  16201M 16211U 16224U 16321M 16331U 16349U 16441M 16586M
             16604M 16622M 16649M 16667M 16685M 16703M 16714M 16739M 16759M 16777M 16855M 16873M 16898M 16923M 17125M
             17129M 17138M 17138  17145  17217M 17251M 17285M 17321M 17395M 17413M 17476M 17494M 17542M 17560M 17623M
             17641M 17684M 17697M 17698  17703M 17712M 17712  17719  17747M 17815M 17815  17816M 17817M 17822  17871M
             17889M 17903  17936M 17946U 17965U 18017M 18137D 18139M 18139  18140M 18141U 18143  18173M 18183U 18202U
             18211M 18246M 18280M 18488M 18525M 18568M 18573M 18583U 18602U 18837M 18859M 18887M 18905M 18933M 18958M
             18983M 19025M 19078M 19096M 19124M 19177M 19205M 19258M 19286M 19339M 19367M 19405M 19423M 19448M 19466M
             19484M 19509M 19527M 19561M 19586M 19611M 19636M 19683M 19683  19906M 19980M 20008M 20026M 20054M 20072M
             20098M 20099M 20100  20383  20416M 20421M 20421  20425M 20447M 20486M 20486  20507  20540M 20545M 20545
             20549M 20610M 20611M 20612  20700M 20735M 20758M 20767D 20769M 20769  20770M 20771U 20773  20812M 20840M
             20858M 20886M 20904M 20932M 20950M 21028M 21056M 21074M 21102M 21204M 21222M 21282M 21305M 21323M 21344M
             21362M 21417M 21426M 21436U 21442M 21449U 21461M 21461  21489U 21502U 21577M 21587U 21593M 21600U 21612M
             21612  21640U 21653U 21689M 21717M 21735M 21763M 21957M 21985M 22003M 22031M 22049M 22086M 22104M 22276M
             22276  22430M 22430  22431M 22583M 22720M 22754M 22754  22877M 22891M 22891  22989M 22989  22998M 22998
             23052M 23062U 23080U 23114M 23114  23244M 23248M 23257M 23257  23264  23288M 23422M 23422  23571M 23571
             23720M 23720  23869M 23869  23888M 23910M 23946M 23946  24039M 24064M 24089M 24132M 24157M 24187M 24229M
             24285M 24310M 24340M 24384M 24444M 24492M 24492  24619  24628M 24645M 24647M 24651M 24652M 24653  24684M
1         (SIGN4072) (12:54) (15MAR04) General Purpose Register Cross Reference                                             Page  142
             24699M 24730M 24730  24807  24904M 24915M 24916M 24917  24943M 24943  25054  25078M 25078  25079M 25128M
             25159M 25162  25174M 25182M 25191M 25191  25198  25292M 25292  25411M 25415M 25424M 25424  25431  25648M
             25648  25737M 25772M 25804  25811M 25814  25826M 25834M 25843M 25843  25850  25902M 25902  25964M 25969M
             25974M 25979M 25984M 25989M 25995M 26003M 26011M 26019M 26028M 26036M 26048M 26048  26074M 26074  26130M
             26135M 26140M 26145M 26150M 26155M 26160M 26169M 26169  26195M 26195  26361M 26361  26470M 26470  26548M
             26573M 26633M 26651M 26676M 26697M 26707U 26725U 26791M 26801U 26819U 26861M 26861  26983M 26983  27246M
             27246  27255M 27255  27282M 27328M 27328  27339M 27352M 27352  27365M 27401M 27414M 27414  27427M 27511M
             27511  27524M 27568M 27568  27708M 27708  27717M 27717  27742M 27743  27747M 27756M 27756  27763  27785M
             27785  27815M 27815  27892M 27892  27901M 27901  27915M 27964M 27964  28041M 28041  28050M 28050  28074M
             28078M 28087M 28087  28094  28123M 28123  28137  28158M 28179  28185  28189M 28198M 28198  28205  28231M
             28231  28247M 28281M 28281  28358M 28358  28384M 28384  28558M 28573M 28578M 28588U 28594M 28601U 28607
             28617M 28632M 28657M 28672M 28697M 28751M 28752M 28752  28787M 28819M 28867M 28867  28969M 28970M 28970
             29064M 29074U 29080M 29087U 29089M 29164M 29174U 29180M 29187U 29189M 29260M 29278M 29283  29284  29467M
             29495M 29513M 29541M 29620  29646M 29650M 29659M 29659  29666  29763M 29763  30083M 30109M 30124M 30150M
             30243D 30245M 30245  30246M 30247U 30248M 30253  30255M 30256  30546M 30574M 30603M 30634M 30640M 30650U
             30668U 30800M 30825M 30850M 30899M 30917M 30935M 30999M 31036  31064M 31080M 31081M 31082  31178M 31210
             31296M 31296  31522M 31522  31651M 31679M 31697M 31725M 31785M 31795U 31809U 31834M 31862M 31894  31901M
             31904  31916M 31924M 31933M 31933  31940  31970M 32072M 32072  32249M 32249

1SIGN     (SIGN4072) (12:54) (15MAR04) Diagnostic Cross Reference and Assembler Summary                                     Page  143
-                                                                                            HLASM R4.0  2004/03/15 12.54
0     No Statements Flagged in this Assembly
 HIGH LEVEL ASSEMBLER, 5696-234, RELEASE 4.0, PTF P72483
0SYSTEM: OS/390 02.10.00            JOBNAME: WYL#SIGN    STEPNAME: ASM        PROCSTEP: (NOPROC)
0Datasets Allocated for this Assembly
  Con DDname   Dataset Name                                 Volume  Member
   P1 SYSIN    WYL.GS.WYL.WYLBUR.SOURCE                     SYSB05  SIGN
   L1 SYSLIB   WYL.GS.WYL.WYLBUR.MACLIB                     SYSB05
   L2          WYL.GG.SYS.MACLIB                            SYSB05
   L3          SYS3.IS.MACLIB                               SYSB05
   L4          SYS3.MACLIB                                  SYSB02
   L5          SYS1.MACLIB                                  MVSBR9
   L6          SYS1.MODGEN                                  MVSBR9
      SYSPRINT SYS04075.T125443.RA000.WYL#SIGN.PRINT.H01    SCR101
      SYSTERM  GG$SLP.WYL#SIGN.JOB03563.D0000101.?

    3668K allocated to Buffer Pool,         4505K would be required for this to be an In-Storage Assembly
    2709 Primary Input Records Read        12255 Library Records Read                173 Work File Reads
       0 ASMAOPT Records Read              14423 Primary Print Records Written       213 Work File Writes
       0 Punch Records Written                 0 ADATA Records Written
0Assembly Start Time: 12.54.45 Stop Time: 12.55.15 Processor Time: 00.00.06.3110
 Return Code 000
