1                        J E S 2  J O B  L O G  --  S Y S T E M  S Y S B  --  N O D E  R L G
0
 12.41.04 JOB03511 ---- MONDAY,    15 MAR 2004 ----
 12.41.04 JOB03511  ICH70001I GG$SLP   LAST ACCESS AT 12:40:46 ON MONDAY, MARCH 15, 2004
 12.41.04 JOB03511  $HASP373 WYL#CR   STARTED - INIT 9    - CLASS B - SYS SYSB
 12.41.04 JOB03511  ***  HCMD      STEP $$QUIET
 12.41.04 JOB03511  PUR * Q OUT MUL
 12.41.04 JOB03511  JOB 5373 WYL#CR   WILL BE PURGED
 12.41.05 JOB03511  WYL#CR  .$$QUIET .         RC=Zero TapeIO=0000 DiskIO=0000 CPU=  .01s Elapsed=64.19s
 12.41.10 JOB03511  WYL#CR  .ASM     .         RC=Zero TapeIO=0000 DiskIO=0397 CPU= 1.63s Elapsed=65.23s
 12.41.11 JOB03511  WYL#CR  .EDIT    .         RC=Zero TapeIO=0000 DiskIO=0086 CPU=  .28s Elapsed=70.58s
 12.41.11 JOB03511  WYL#CR   Ended.  Name=Assemble CR                    Total CPU= 1.92s Elapsed=64.19s
 12.41.11 JOB03511
 12.41.11 JOB03511  Execution charges   Priority=Standard   Block=Day
 12.41.11 JOB03511
 12.41.11 JOB03511  CPU Usage          35.06          $21.73   Standard Processing Unit Equivalent
 12.41.11 JOB03511                                   =======
 12.41.11 JOB03511                                    $21.73   Total Job execution charge
 12.41.11 JOB03511
 12.41.11 JOB03511  See back separator page for print charges
 12.41.11 JOB03511
 12.41.11 JOB03511  $HASP395 WYL#CR   ENDED  ASM=0, EDIT=0
1        1 //WYL#CR JOB SLP$GG,'Assemble CR',TIME=4,REGION=4M                      JOB03511
           //*
           /*JOBPARM LINES=99,COPIES=1
           /*JOBPARM FORMS=3HOL,PFORMAT=LAND,CHARS=BD13,DUPLEX=YES,FLASH=BAR4
           //*
           /*JOBPARM NOTIFY=GG.SLP,HOLD=OUTPUT                                     WYLGEN
         2 //$$QUIET EXEC PGM=HCMDX,PARM='PUR * Q OUT MUL'
           //*
         3 //ASM    EXEC PGM=ASMA90,REGION=8M,
           //            PARM=('NORENT,TERM,FLAG(NOCONT),US(MAP,WARN(10)),NODECK',
           //            'LC(32767),XREF(SHORT),ESD,DXREF,NOOBJECT')
         4 //STEPLIB DD DSN=SYS3.IS.TESTASM,DISP=SHR
         5 //SYSLIB   DD  DSN=WYL.GS.WYL.WYLBUR.MACLIB,DISP=SHR
         6 //         DD  DSN=WYL.GG.SYS.MACLIB,DISP=SHR
         7 //         DD  DSN=SYS3.IS.MACLIB,DISP=SHR
         8 //         DD  DSN=SYS3.MACLIB,DISP=SHR
         9 //         DD  DSN=SYS1.MACLIB,DISP=SHR
        10 //         DD  DSN=SYS1.MODGEN,DISP=SHR
        11 //SYSUT1   DD DSN=&&SYSUT1,UNIT=VIO,DISP=(,DELETE),
           //            SPACE=(4088,(500,250),,CONTIG,ROUND)
        12 //SYSTERM  DD SYSOUT=T
        13 //SYSPRINT DD DSN=&&PRINT,UNIT=SYSDA,DISP=(,PASS),
           //            SPACE=(6650,(250,250),RLSE),
           //            DCB=(BLKSIZE=6650,LRECL=133,RECFM=FB)
        14 //SYSUDUMP DD SYSOUT=A
        15 //SYSIN    DD  DSN=WYL.GS.WYL.WYLBUR.SOURCE(CR),DISP=SHR
           //*
        16 //EDIT    EXEC PGM=ASMEDIT,TIME=2,REGION=4000K,
           //             PARM='STMT'
        17 //STEPLIB  DD  DSN=WYL.GG.SYS.LINKLIB,DISP=SHR
        18 //ASMOUT   DD  DSN=&PRINT,DISP=(OLD,DELETE)
        19 //SYSPRINT DD  SYSOUT=A
1 STMT NO. MESSAGE
 -
        11 IGD01010I STORCLAS= TEMP STORGROUP =
        11 IGD01010I STORGRP=VIO ASSIGNED.
        13 IGD01010I STORCLAS= TEMP STORGROUP =
        13 IGD01010I STORGRP=VIO ASSIGNED.
 ICH70001I GG$SLP   LAST ACCESS AT 12:40:46 ON MONDAY, MARCH 15, 2004
 IEF142I WYL#CR $$QUIET - STEP WAS EXECUTED - COND CODE 0000
 *********************************************************************************
 *   WYL#CR  /$$QUIET /                    Return Code      Zero                 *
 *   Region used      260K (16K user + 244K system)                              *
 *   Extended region  9464K (4K user + 9460K system)                             *
 *                                                                               *
 *   Paging              In      Out                                             *
 *   Private <-> Aux      0        0       CPU time (TCB)   00:00:00.01          *
 *   Private <-> Exp      0        0       CPU time (SRB)   00:00:00.00          *
 *   VIO                  0        0       Elapsed time    917:46:48.77          *
 *   Common               0      ---                                             *
 *                                                                               *
 *                                                                               *
 *   CPU Usage          0.18         $0.11  Standard Processing Unit Equivalent  *
 *                                   $0.11  Total Step execution charge          *
 *                                                                               *
 *    I/O count  DDname   Type Addr           I/O count  DDname   Type Addr      *
 *                         *** No I/O for this step ***                          *
 *********************************************************************************
 IEF373I STEP/$$QUIET /START 2004075.1241
 IEF374I STEP/$$QUIET /STOP  2004075.1241 CPU    0MIN 00.01SEC SRB    0MIN 00.00SEC VIRT    16K SYS   244K EXT       4K SYS    9460K
 IEF236I ALLOC. FOR WYL#CR ASM
 IEF237I 04DC ALLOCATED TO STEPLIB
 IEF237I 04DC ALLOCATED TO SYSLIB
 IEF237I 04DC ALLOCATED TO
 IEF237I 04DC ALLOCATED TO
 IEF237I 0402 ALLOCATED TO
 IEF237I 04A0 ALLOCATED TO
 IEF237I 04A0 ALLOCATED TO
 IGD101I SMS ALLOCATED TO DDNAME (SYSUT1  )
         DSN (SYS04075.T124104.RA000.WYL#CR.SYSUT1.H01    )
         STORCLAS (TEMP) MGMTCLAS (        ) DATACLAS (        )
         VOL SER NOS= VIO
 IEF237I JES2 ALLOCATED TO SYSTERM
 IGD101I SMS ALLOCATED TO DDNAME (SYSPRINT)
         DSN (SYS04075.T124104.RA000.WYL#CR.PRINT.H01     )
         STORCLAS (TEMP) MGMTCLAS (        ) DATACLAS (        )
         VOL SER NOS= SCR101
 IEF237I JES2 ALLOCATED TO SYSUDUMP
 IEF237I 04DC ALLOCATED TO SYSIN
 IEF142I WYL#CR ASM - STEP WAS EXECUTED - COND CODE 0000
 IEF285I   SYS3.IS.TESTASM                              KEPT
 IEF285I   VOL SER NOS= SYSB05.
 IEF285I   WYL.GS.WYL.WYLBUR.MACLIB                     KEPT
 IEF285I   VOL SER NOS= SYSB05.
 IEF285I   WYL.GG.SYS.MACLIB                            KEPT
 IEF285I   VOL SER NOS= SYSB05.
 IEF285I   SYS3.IS.MACLIB                               KEPT
 IEF285I   VOL SER NOS= SYSB05.
 IEF285I   SYS3.MACLIB                                  KEPT
 IEF285I   VOL SER NOS= SYSB02.
 IEF285I   SYS1.MACLIB                                  KEPT
 IEF285I   VOL SER NOS= MVSBR9.
 IEF285I   SYS1.MODGEN                                  KEPT
 IEF285I   VOL SER NOS= MVSBR9.
 IGD105I SYS04075.T124104.RA000.WYL#CR.SYSUT1.H01     DELETED,   DDNAME=SYSUT1
 IEF285I   GG$SLP.WYL#CR.JOB03511.D0000101.?            SYSOUT
 IGD106I SYS04075.T124104.RA000.WYL#CR.PRINT.H01      PASSED,    DDNAME=SYSPRINT
 IEF285I   GG$SLP.WYL#CR.JOB03511.D0000102.?            SYSOUT
 IEF285I   WYL.GS.WYL.WYLBUR.SOURCE                     KEPT
 IEF285I   VOL SER NOS= SYSB05.
 *********************************************************************************
 *   WYL#CR  /ASM     /                    Return Code      Zero                 *
 *   Region used      4376K (4096K user + 280K system)                           *
 *   Extended region  10064K (412K user + 9652K system)                          *
 *                                                                               *
 *   Paging              In      Out                                             *
 *   Private <-> Aux      0        0       CPU time (TCB)   00:00:01.59          *
 *   Private <-> Exp      0        0       CPU time (SRB)   00:00:00.04          *
 *   VIO                  0        0       Elapsed time    917:46:47.73          *
 *   Common               0      ---                                             *
 *                                                                               *
 *                                                                               *
 *   CPU Usage         29.81        $18.48  Standard Processing Unit Equivalent  *
 *                                  $18.48  Total Step execution charge          *
 *                                                                               *
 *    I/O count  DDname   Type Addr           I/O count  DDname   Type Addr      *
 *           84  STEPLIB  Disk 04DC                 181  SYSLIB   Disk 04DC      *
 *            0  SYSLIB   Disk 04DC                   0  SYSLIB   Disk 04DC      *
 *            0  SYSLIB   Disk 0402                  44  SYSLIB   Disk 04A0      *
 *            0  SYSLIB   Disk 04A0                   0  SYSUT1   VIO  ----      *
 *            0  SYSTERM       ----                  83  SYSPRINT Disk 04E3      *
 *            0  SYSUDUMP      ----                   5  SYSIN    Disk 04DC      *
 *********************************************************************************
 IEF373I STEP/ASM     /START 2004075.1241
 IEF374I STEP/ASM     /STOP  2004075.1241 CPU    0MIN 01.59SEC SRB    0MIN 00.04SEC VIRT  4096K SYS   280K EXT     412K SYS    9652K
 IEF236I ALLOC. FOR WYL#CR EDIT
 IEF237I 0402 ALLOCATED TO STEPLIB
 IGD103I SMS ALLOCATED TO DDNAME ASMOUT
 IEF237I JES2 ALLOCATED TO SYSPRINT
 IEF142I WYL#CR EDIT - STEP WAS EXECUTED - COND CODE 0000
 IEF285I   WYL.GG.SYS.LINKLIB                           KEPT
 IEF285I   VOL SER NOS= SYSB02.
 IGD105I SYS04075.T124104.RA000.WYL#CR.PRINT.H01      DELETED,   DDNAME=ASMOUT
 IEF285I   GG$SLP.WYL#CR.JOB03511.D0000103.?            SYSOUT
 *********************************************************************************
 *   WYL#CR  /EDIT    /                    Return Code      Zero                 *
 *   Region used      380K (116K user + 264K system)                             *
 *   Extended region  9588K (4K user + 9584K system)                             *
 *                                                                               *
 *   Paging              In      Out                                             *
 *   Private <-> Aux      0        0       CPU time (TCB)   00:00:00.27          *
 *   Private <-> Exp      0        0       CPU time (SRB)   00:00:00.01          *
 *   VIO                  0        0       Elapsed time    917:46:42.38          *
 *   Common               0      ---                                             *
 *                                                                               *
 *                                                                               *
 *   CPU Usage          5.06         $3.13  Standard Processing Unit Equivalent  *
 *                                   $3.13  Total Step execution charge          *
 *                                                                               *
 *    I/O count  DDname   Type Addr           I/O count  DDname   Type Addr      *
 *            2  STEPLIB  Disk 0402                  84  ASMOUT   Disk 04E3      *
 *            0  SYSPRINT      ----                                              *
 *********************************************************************************
 IEF373I STEP/EDIT    /START 2004075.1241
 IEF374I STEP/EDIT    /STOP  2004075.1241 CPU    0MIN 00.27SEC SRB    0MIN 00.01SEC VIRT   116K SYS   264K EXT       4K SYS    9584K
 *********************************************************************************
 *                                                                               *
 *                      S t a n f o r d   U n i v e r s i t y                    *
 *                                                                               *
 *                              *** Job Summary ***                              *
 *                                                                               *
 *   System Id      SYSB                   Input time     12:39:15  Mar 15, 2004 *
 *                                                                               *
 *   System Release SP6.1.0                Start time     12:41:04  Mar 15, 2004 *
 *                                                                               *
 *   Job name       WYL#CR                 Stop  time     00:00:00  Mar 15, 2004 *
 *                                                                               *
 *   Account        SLP$GG                 Elapsed time  917:46:48.77            *
 *                                                                               *
 *   User Name      Assemble CR            CPU time       00:00:01.87            *
 *                                                                               *
 *   Job class      B                      SRB Time       00:00:00.05            *
 *                                                                               *
 *********************************************************************************
 IEF375I  JOB/WYL#CR  /START 2004075.1241
 IEF376I  JOB/WYL#CR  /STOP  2004075.1241 CPU    0MIN 01.87SEC SRB    0MIN 00.05SEC
1Assembler Done CR No Statements Flagged
1         High Level Assembler Option Summary                   (PTF P72483 )                                               Page    1
-                                                                                            HLASM R4.0  2004/03/15 12.41
0  No Overriding ASMAOPT Parameters
   Overriding Parameters-  NORENT,TERM,FLAG(NOCONT),US(MAP,WARN(10)),NODECK,LC(32767),XREF(SHORT),ESD,DXREF,NOOBJECT
   No Process Statements


   Options for this Assembly
0  NOADATA
     ALIGN
   NOASA
     BATCH
     CODEPAGE(047C)
   NOCOMPAT
   NODBCS
 3 NODECK
 3   DXREF
 3   ESD
   NOEXIT
 3   FLAG(0,ALIGN,NOCONT,NOIMPLEN,NOPAGE0,PUSH,RECORD,NOSUBSTR,USING0)
   NOFOLD
   NOGOFF
   NOINFO
     LANGUAGE(EN)
   NOLIBMAC
 3   LINECOUNT(32767)
     LIST(121)
     MXREF(SOURCE)
 3 NOOBJECT
     OPTABLE(UNI,NOLIST)
   NOPCONTROL
   NOPESTOP
   NOPROFILE
   NORA2
 3 NORENT
     RLD
     RXREF
     SIZE(MAX)
     SYSPARM()
 3   TERM(WIDE)
   NOTEST
     THREAD
   NOTRANSLATE
 3   USING(NOLIMIT,MAP,WARN(10))
 3   XREF(SHORT)

   No Overriding DD Names

1CR       External Symbol Dictionary                                                                                        Page    2
-Symbol   Type   Id     Address  Length     LD ID  Flags Alias-of                            HLASM R4.0  2004/03/15 12.41
0WYLCR     SD 00000001 00000000 00001220             00
 CR2193    LD          00000000           00000001
 DTB       LD          00000016           00000001
 XTB       LD          00000068           00000001
 BTD       LD          000000D2           00000001
 BTDZEROS  LD          0000014E           00000001
 BTX       LD          000001B4           00000001
 BTR       LD          0000021C           00000001
 LOCALTOD  LD          000002B2           00000001
 FMTXDATE  LD          00000300           00000001
 FMTCLCK   LD          00000464           00000001
 FMTRCLCK  LD          000004C4           00000001
 FMTTIME   LD          00000548           00000001
 FMTDATE   LD          000005EA           00000001
 FMTDAY    LD          0000068A           00000001
 TIMEDATE  LD          0000083A           00000001
 DATE      LD          000008EE           00000001
 DTB       ER 00000002
 DEQUOTE   LD          00000B60           00000001
 DEQSTR    LD          00000B8C           00000001
 SEGINIT   LD          00000C2E           00000001
 SEGINITR  LD          00000C5A           00000001
 SEGB      LD          00000C80           00000001
 SEGTB     LD          00000CB6           00000001
 SEGCR     LD          00000CEC           00000001
 SEGWR     LD          00000D6E           00000001
 SEGT      LD          00000DC8           00000001
 SEG       LD          00000E1A           00000001
 SEGCOL    LD          00000F4E           00000001
 SEGBLANK  LD          00000FB6           00000001
 SEGCLR    LD          00001106           00000001
 SEGMARK   LD          0000114A           00000001
 SEGDC     LD          0000116E           00000001
 SEGHX     LD          000011A6           00000001
 SEG       ER 00000003
 BTD       ER 00000004
 BTX       ER 00000005

1CR       WYLBUR's Conversion Routines                                                                                      Page    3
0Loc    Object Code    Addr1 Addr2  Stmt Lv Lineno    Source Statement                    (Asmedit 3.3)  HLASM R4.0  2004/03/15 12.41
+___    ______ ____    _____ _____  ____ __ ______    ______ _________
0                                      2              *******************************************************************
                                       3              *                                                                 *
                                       4              *     WYLBUR/370 - Release VI - Class I - Stanford Proprietary    *
                                       5              *                                                                 *
                                       6              *******************************************************************
                                       7                       HIBAL
                                     988
                                     989                       SYSDEFN
                                     990                       GBLC  &ZONE,&ALTZONE      Time zones
                                     991
 000000                00000 00000   992                       PUSH  DSECTS
                                    2331
 000000                00000 01220  2332              WYLCR    CSECT
                                    2336                       REGS  FSR,,,,,,,BR,(WAR,LSR),PAR,PBR,CPR,CVR,SPR,RAR
-                                   2473              CR       IDENT 2193                15:11:42 07/12/02  (SLP)
                                    2476             +
                                    2477    01-IDENT +         ENTRY CR2193
                                    2478             +
 000000 14C3D9F2F1F9F36B            2479    01-IDENT +CR2193   DC    AL1(20),C'CR2193,15MAR04,12:41'
                                    2480             +*
                                    2482              *
 USING  DEC,R6                      2483                       USING DEC,R6
1CR       (CR2193) (12:41) (15MAR04) Conversion Routines - Data Areas                                                       Page    4
0Current Usings:  (DEC,R6)
0Loc    Object Code    Addr1 Addr2  Stmt Lv Lineno    Source Statement           (Hibal 5, Asmedit 3.3)  HLASM R4.0  2004/03/15 12.41
+___    ______ ____    _____ _____  ____ __ ______    ______ _________
0                                   2493              *
                                    2494              *  CAUTION: WE DO NOT DEFINE CV OR CP IN THIS MODULE.
                                    2495              *  (PS. I DO NOT KNOW IF THIS IS A REQUIREMENT OR WHAT ?? -SCH)
                                    2496              *
                                    2497              *  THEREFORE ALL XPROCS, PROCS MUST HAVE TRACE=NO
                                    2498              *
                                    2499              *
                                    2500              * Work area used for date and time routines
                                    2501              *
 000000                00000 00038  2502              STCKCVWA RECORD BEGIN
 000000                             2510  1           STCKCVCK   DS    XL8                 Clock value to be converted
 000008                             2511  1           STCKCVVL   DS    CL16                Converted output value
 000018                             2512  1           STCKEDIT   DS    XL32                EDIT Work area
 000038                00038 00038  2513                       END
                                    2522              *
                                    2523              *  work area
                                    2524              *
 000000                00000 0005C  2525              WA       RECORD BEGIN
                                    2533  1                      XSA   R2,R8
 000000 0000000000000000            2534  1 01-XSA   +           DC    (R8+2-(R2))A(0)
 000020                             2535  1                      DS    F                   Insurance
 000024                             2536  1           DW         DS    2F                  Double word
 00002C                             2537  1           HEXW       DS    F
 000030                             2538  1           HEXS       DS    CL16
                                    2539  1           *
                                    2540  1           *                                  Work area for FMTXDATE
 000040                             2541  1           SAVEDAY    DS    F                   Save area for day-of-week
 000044                             2542  1           SAVEDATE   DS    F                   Save area for day-of-month
                                    2543  1
 000048                             2544  1           REDITWA    DS    CL17
 000059                             2545  1                      DS    CL3
 00005C                0005C 0005C  2546                       END
                                    2555              *
                                    2556              *
 000000                00000 00008  2557              DEC      RECORD BEGIN
 000000                             2565  1                      DS    D
 000008                00008 00008  2566                       END
1CR       (CR2193) (12:41) (15MAR04) WYLBUR's Conversion Routines                                                           Page    5
0Current Usings:  (DEC,R6)
0Loc    Object Code    Addr1 Addr2  Stmt Lv Lineno    Source Statement           (Hibal 5, Asmedit 3.3)  HLASM R4.0  2004/03/15 12.41
+___    ______ ____    _____ _____  ____ __ ______    ______ _________
0000015                00000 01220  2576              WYLCR    CSECT
                                    2578              *
                                    2579              *
                                    2580              *  decimal to binary conversion
                                    2581              *
                                    2582              *  on entry:
                                    2583              *    r1,r0 - loc len of input string (number)
                                    2584              *
                                    2585              *  on exit:
                                    2586              *    if CC=0, all ok; if CC=NZ, string is non-numeric
                                    2587              *    r15 - value
                                    2588              *
                                    2589              * NOTE:
                                    2590              * CC is set is nonstandard way.  value should be returned
                                    2591              * in R0 and CC in R15 or some such.  Oh well, ce la vie.
                                    2592              *
                                    2593              *
 000016 50E0 D000/9008_      00000  2594              DTB      XPROC TRACE=NO
 USING  *,R7
 000026 1BFF                        2633                       CLEAR R15                 Clear result
 000028 1200                        2637              DTBL     LTR   R0,R0               Done?
 00002A 47D0 7032            00058  2638                       BNP   DTBX
 00002E 95F0 1000      00000        2639                       CLI   @R1,C'0'            Digit?
 000032 4740 7032            00058  2640                       BL    DTBX                Br if too low
 000036 95F9 1000      00000        2641                       CLI   @R1,C'9'
 00003A 4720 7032            00058  2642                       BH    DTBX                Br if too high
 00003E 1F22/4320 1000              2643                       LC    R2,@R1
 000044 5F20 7A9A            00AC0  2650                       SL    R2,=A(C'0')
 000048 4CF0 7B06            00B2C  2651                       MH    R15,=H'10'          Build result
 00004C 1EF2                        2652                       ALR   R15,R2
 00004E 4110 1001            00001  2653                       LA    R1,@R1+1
 000052 0600                        2654                       DECR  R0
 000054 47F0 7002            00028  2656                       B     DTBL
 000058                             2657              DTBX     LABEL ,
 000058 9001 8004            00004  2659                       PRETURN (R0,R1)
 00005C 18D8/9808 D004_             2661                       PEND  *                   ** don't set cc !
 DROP   *,R7
1CR       (CR2193) (12:41) (15MAR04) WYLBUR's Conversion Routines                                                           Page    6
0Current Usings:  (DEC,R6)
0Loc    Object Code    Addr1 Addr2  Stmt Lv Lineno    Source Statement           (Hibal 5, Asmedit 3.3)  HLASM R4.0  2004/03/15 12.41
+___    ______ ____    _____ _____  ____ __ ______    ______ _________
0                                   2681              *
                                    2682              *
                                    2683              *  hexadecimal to binary conversion
                                    2684              *
                                    2685              *  on entry:
                                    2686              *    r1,r0 - loc len of input string (number)
                                    2687              *
                                    2688              *  on exit:
                                    2689              *    if CC=0,all ok; if CC=NZ, string is non-numeric
                                    2690              *    r15 - value
                                    2691              *
                                    2692              * NOTE:
                                    2693              * CC is set is nonstandard way.  value should be returned
                                    2694              * in R0 and CC in R15 or some such.  Oh well, ce la vie.
                                    2695              *
                                    2696              *
 000068 50E0 D000/9008_      00000  2697              XTB      XPROC TRACE=NO
 USING  *,R7
 000078 1BFF                        2736                       CLEAR R15
 00007A 1200                        2740              XTBL     LTR   R0,R0               Done?
 00007C 47D0 704A            000C2  2741                       BNP   XTBX                Br if so
 000080 1F22/4320 1000              2742                       LC    R2,@R1              Pick up digit
 000086 95C1 1000      00000        2749                       CLI   @R1,C'A'
 00008A 4740 7026            0009E  2750                       BL    XTBN
 00008E 95C6 1000      00000        2751                       CLI   @R1,C'F'
 000092 4720 7026            0009E  2752                       BH    XTBN
 000096 5F20 7A4C            00AC4  2753                       SL    R2,=A(C'A'-10)
 00009A 47F0 703A            000B2  2754                       B     XTBB
                                    2755
 00009E 95F0 1000      00000        2756              XTBN     CLI   @R1,C'0'
 0000A2 4740 704A            000C2  2757                       BL    XTBX
 0000A6 95F9 1000      00000        2758                       CLI   @R1,C'9'
 0000AA 4720 704A            000C2  2759                       BH    XTBX
 0000AE 5F20 7A48            00AC0  2760                       SL    R2,=A(C'0')
 0000B2 89F0 0004            00004  2761              XTBB     SLL   R15,4               Add new digit in
 0000B6 16F2                        2762                       OR    R15,R2
 0000B8 4110 1001            00001  2763                       LA    R1,@R1+1            Next digit
 0000BC 0600                        2764                       DECR  R0
 0000BE 47F0 7002            0007A  2766                       B     XTBL
                                    2767
 0000C2                             2768              XTBX     LABEL ,
 0000C2 9001 8004            00004  2770                       PRETURN (R0,R1)
 0000C6 18D8/9808 D004_             2772                       PEND  *                   ** don't set cc !
 DROP   *,R7
1CR       (CR2193) (12:41) (15MAR04) WYLBUR's Conversion Routines                                                           Page    7
0Current Usings:  (DEC,R6)
0Loc    Object Code    Addr1 Addr2  Stmt Lv Lineno    Source Statement           (Hibal 5, Asmedit 3.3)  HLASM R4.0  2004/03/15 12.41
+___    ______ ____    _____ _____  ____ __ ______    ______ _________
0                                   2792              *
                                    2793              *  binary to decimal conversion
                                    2794              *
                                    2795              *  on entry:
                                    2796              *    r15 - value
                                    2797              *
                                    2798              *  on exit:
                                    2799              *    r1,r0 - loc len of result
                                    2800              *
                                    2801              *
 0000D2 50E0 D000/9008_      00000  2802              BTD      XPROC WA,TRACE=NO
 USING  *,R7
 USING  WA-(4+36),R8
 0000E2 4160 804C            00024  2852                       LA    R6,DW               Get a double word
 0000E6 5460 79E6            00AC8  2853                       N     R6,=XL4'FFFFF8'
 0000EA 4EF0 6000            00000  2854                       CVD   R15,DEC             Convert number to packed
 0000EE D20F 8058 705C 00030 0013E  2855                       MVC   HEXS(16),ED15       Edit mask
 0000F4 1841                        2856                       LR    R4,1                Save result loc.
 0000F6 4110 8067            0003F  2857                       LA    R1,HEXS+15
 0000FA DF0F 8058 6000 00030 00000  2858                       EDMK  HEXS(16),DEC
 000100 12FF                        2859                       LTR   R15,R15             Negative?
 000102 47B0 702A            0010C  2860                       BNM   *+10                Br if not
 000106 0610                        2861                       DECR  R1                  Put in a sign
 000108 9260 1000      00000        2863                       MVI   @R1,C'-'
 00010C 4130 8068            00040  2864                       LA    R3,HEXS+16          Compute actual length
 000110 1B31                        2865                       SR    R3,R1
 000112 1814                        2866                       LR    R1,R4               Restore result pointer
 000114 1200                        2867                       LTR   R0,R0               Field size given?
 000116 4720 703C            0011E  2868                       BP    *+8                 Br if so
 00011A 1300                        2869                       LCR   R0,R0
 00011C 1A03                        2870                       AR    R0,R3               Compute field size
 00011E 1830                        2871                       LR    R3,R0               Field length
 000120 4120 8068            00040  2872                       LA    R2,HEXS+16          Compute starting addr
 000124 1B23                        2873                       SR    R2,R3
 000126 0630/4430 7A66_             2874                       DEX   R3,' MVC @R1(0),@R2 '  Move to result loc.
 00012C 9001 8004            00004  2893                       PRETURN (R0,R1)
 000130 18D8/9808 D004_             2895                       PEND  ,
 DROP   WA-(4+36),R8
 DROP   *,R7
                                    2920
 00013E 4020202020202020            2921              ED15     DC    C' ',13X'20',X'2120'
1CR       (CR2193) (12:41) (15MAR04) WYLBUR's Conversion Routines                                                           Page    8
0Current Usings:  (DEC,R6)
0Loc    Object Code    Addr1 Addr2  Stmt Lv Lineno    Source Statement           (Hibal 5, Asmedit 3.3)  HLASM R4.0  2004/03/15 12.41
+___    ______ ____    _____ _____  ____ __ ______    ______ _________
0                                   2923              *
                                    2924              *
                                    2925              *  BTDZEROS - BTD with LEADING ZEROS
                                    2926              *
                                    2927              *  on entry:
                                    2928              *    r1,r0 - loc, len of result
                                    2929              *    r15 - value
                                    2930              *
                                    2931              *  note:
                                    2932              *  r0 must be > 0
                                    2933              *  r15 must be >= 0
                                    2934              *
                                    2935              *
 00014E 50E0 D000/9008_      00000  2936              BTDZEROS XPROC WA,TRACE=NO
 USING  *,R7
 USING  WA-(4+36),R8
 00015E 4160 804C            00024  2986                       LA    R6,DW               Get a double word
 000162 5460 796A            00AC8  2987                       N     R6,=XL4'FFFFF8'
 000166 4EF0 6000            00000  2988                       CVD   R15,DEC             Convert number to packed
 00016A D20F 8058 7046 00030 001A4  2989                       MVC   HEXS(16),EDZ15      Edit mask
 000170 1841                        2990                       LR    R4,R1               Save result loc.
 000172 4110 8067            0003F  2991                       LA    R1,HEXS+15
 000176 DF0F 8058 6000 00030 00000  2992                       EDMK  HEXS(16),DEC
 00017C 4130 8068            00040  2993                       LA    R3,HEXS+16          Compute actual length
 000180 1B31                        2994                       SR    R3,R1
 000182 1814                        2995                       LR    R1,R4               Restore result pointer
 000184 1830                        2996                       LR    R3,R0               Field length
 000186 4120 8068            00040  2997                       LA    R2,HEXS+16          Compute starting addr
 00018A 1B23                        2998                       SR    R2,R3
 00018C 0630/4430 79F0_             2999                       DEX   R3,' MVC @R1(0),@R2 '  Move to result loc.
 000192 9001 8004            00004  3018                       PRETURN (R0,R1)
 000196 18D8/9808 D004_             3020                       PEND  ,
 DROP   WA-(4+36),R8
 DROP   *,R7
                                    3045
 0001A4 4021202020202020            3046              EDZ15    DC    C' ',X'21',14X'20'
1CR       (CR2193) (12:41) (15MAR04) WYLBUR's Conversion Routines                                                           Page    9
0Current Usings:  (DEC,R6)
0Loc    Object Code    Addr1 Addr2  Stmt Lv Lineno    Source Statement           (Hibal 5, Asmedit 3.3)  HLASM R4.0  2004/03/15 12.41
+___    ______ ____    _____ _____  ____ __ ______    ______ _________
0                                   3048              *  binary to hexadecimal conversion
                                    3049              *
 0001B4 50E0 D000/9008_      00000  3050              BTX      XPROC WA,TRACE=NO
 USING  *,R7
 USING  WA-(4+36),R8
 0001C4 50F0 8054            0002C  3100                       ST    R15,HEXW            Word to be converted
 0001C8 F384 8058 8054 00030 0002C  3101                       UNPK  HEXS(9),HEXW(5)     To zoned format
 0001CE DC07 8058 77F8 00030 009BC  3102                       TR    HEXS(8),HEXTBL-C'0' To hex format
 0001D4 1230                        3103                       LTR   R3,R0               Length
 0001D6 4770 703A            001FE  3104                       IF    Z,BEGIN             Zero means calculate it
 0001DA 4120 8057            0002F  3115  1           BTX0       LA    R2,HEXS-1
 0001DE 4130 0007            00007  3116  1                      LA    R3,7
 0001E2 4120 2001            00001  3117  1           BTXCHK0    LA    R2,@R2+1            Bump
 0001E6 95F0 2000      00000        3118  1                      CLI   @R2,C'0'            Start of non-zero stuff?
 0001EA 4770 7032            001F6  3119  1                      BNE   BTXX                No, branch
 0001EE 4630 701E            001E2  3120  1                      BCT   R3,BTXCHK0          Loop if not last dig
 0001F2 4120 2001            00001  3121  1                      LA    R2,@R2+1            Point to last digit
 0001F6 4100 3001            00001  3122  1           BTXX       LA    R0,@R3+1            Get real length in R0
                                    3123  1           *              now return with r3 having the length in ex form
 0001FA 47F0 7042            00206  3124  1                      B     BTXC
 0001FE                             3125                       END
 0001FE 4120 8060            00038  3129                       LA    R2,HEXS+8           Compute addr to move from
 000202 1B23                        3130                       SR    R2,R3
 000204 0630                        3131                       DECR  R3
 000206 4430 7990/D200_      00B54  3133              BTXC     EX    R3,' MVC @R1(0),@R2 '  Move to users area
 00020A 9001 8004            00004  3149                       PRETURN (R0,R1)
 00020E 18D8/9808 D004_             3151                       PEND  ,
 DROP   WA-(4+36),R8
 DROP   *,R7
                                    3176
1CR       (CR2193) (12:41) (15MAR04) WYLBUR's Conversion Routines                                                           Page   10
0Current Usings:  (DEC,R6)
0Loc    Object Code    Addr1 Addr2  Stmt Lv Lineno    Source Statement           (Hibal 5, Asmedit 3.3)  HLASM R4.0  2004/03/15 12.41
+___    ______ ____    _____ _____  ____ __ ______    ______ _________
0                                   3178              *  binary to real conversion
                                    3179              *
 00021C 50E0 D000/9008_      00000  3180              BTR      XPROC WA,TRACE=NO
 USING  *,R7
 USING  WA-(4+36),R8
                                    3230              *** R15 has value, R1 has output addr, R0 = length*256+no of digits
 00022C 4160 804C            00024  3231                       LA    R6,DW               Set up
 000230 5460 78A0            00ACC  3232                       N     R6,=F'-8'           Double word
 000234 1851                        3233                       LR    R5,R1               Save output pointer
 000236 4EF0 6000            00000  3234                       CVD   R15,DEC
 00023A 4120 0007            00007  3235                       LA    R2,X'07'            Get number
 00023E 1420                        3236                       NR    R2,R0               ...of digits
 000240 4132 706E            0029A  3237                       LA    R3,BTREDMSK(R2)     Get start of mask to use
 000244 4110 807F            00057  3238                       LA    R1,REDITWA+15       Default starting point
 000248 1B12                        3239                       SR    R1,R2               Minus offset
 00024A D210 8070 3000 00048 00000  3240                       MVC   REDITWA,@R3         Get mask
 000250 9240 8070      00048        3241                       MVI   REDITWA,C' '        First byte is pad char
 000254 DF10 8070 6000 00048 00000  3242                       EDMK  REDITWA,DEC         Edit number
 00025A 12FF/47B0 703A_             3243                       IF    (R15,NEG),'DECR R1; MVI @R1,C"-"'
 000266 8A00 0008            00008  3265                       SRA   R0,8                Get number of digits to produce
 00026A 4770 7048            00274  3266                       IF    Z,BEGIN             If 0, use as much as necessary
 00026E 4100 8081            00059  3277  1                      LA    R0,REDITWA+L'REDITWA  R1 points to start,
 000272 1B01                        3278  1                      SR    R0,R1               Get length in R0
 000274                             3279                       END
 000274 704C/47F0 7052 00274 0026C  3283                       ELSE  BEGIN
 000278 4110 8081            00059  3294  1                      LA    R1,REDITWA+L'REDITWA  R0 has length,
 00027C 1B10                        3295  1                      SR    R1,R0               Get start in R1
 00027E                             3296                       END
 00027E 1820                        3300                       LR    R2,R0               Length in r2 for execute
 000280 0620/4420 792E_             3301                       DEX   R2,'MVC @R5(0),@R1'    Move to output area
 000286 1815                        3320                       LR    R1,R5               Set R1 to point to output
 000288 9001 8004            00004  3321                       PRETURN (R0,R1)
 00028C 18D8/9808 D004_             3323                       PEND  ,
 DROP   WA-(4+36),R8
 DROP   *,R7
-00029A 2020202020202020            3349              BTREDMSK DC    0CL24' ',14X'20',X'2120',C'.',7X'20'
                                    3350
 DROP   DEC,R6                      3351                       DROP  R6
1CR       (CR2193) (12:41) (15MAR04) WYLBUR's Conversion Routines                                                           Page   11
0Loc    Object Code    Addr1 Addr2  Stmt Lv Lineno    Source Statement           (Hibal 5, Asmedit 3.3)  HLASM R4.0  2004/03/15 12.41
+___    ______ ____    _____ _____  ____ __ ______    ______ _________
0                                   3359              ¿þþþþþþþþþþþþþþþþþþþþþþþþþþþþþþþþþþþþþþþþþþþþþþþþþþþþþþþþþþþþþþþþþþþþþÜ
                                    3360              Ÿ                                                                     Ÿ
                                    3361              Ÿ  LOCALTOD -- Routine to obtain the local time and date in           Ÿ
                                    3362              Ÿ              STCK format.                                           Ÿ
                                    3363              Ÿ                                                                     Ÿ
                                    3364              Ÿ    On entry:                                                        Ÿ
                                    3365              Ÿ      No entry parameters                                            Ÿ
                                    3366              Ÿ                                                                     Ÿ
                                    3367              Ÿ    On exit:                                                         Ÿ
                                    3368              Ÿ      R0,R1 contain the local time in STCK format.                   Ÿ
                                    3369              Ÿ                                                                     Ÿ
                                    3370              Ÿ    Notes: This code comes from a message on dejanews posted         Ÿ
                                    3371              Ÿ           by William H. Blair for IBM-MAIN list.                    Ÿ
                                    3372              Ÿ                                                                     Ÿ
                                    3373              Ÿ           Assuming the TOD clock is set to International Atomic     Ÿ
                                    3374              Ÿ           Time (TAI), then:                                         Ÿ
                                    3375              Ÿ               UTC        = TOD - CVTLSO                             Ÿ
                                    3376              Ÿ                    and                                              Ÿ
                                    3377              Ÿ               Local time = UTC + CVTLDTO                            Ÿ
                                    3378              Ÿ                                                                     Ÿ
                                    3379              Ÿ           If the TOD clock is set to UTC ("GMT"), then CVTLSO       Ÿ
                                    3380              Ÿ           will be (or should be) zero.  CVTLDTO is a TOD            Ÿ
                                    3381              Ÿ           clock-format (64 bit) "time zone offset" value            Ÿ
                                    3382              Ÿ           (don't use the old CVTTZ field, which is just             Ÿ
                                    3383              Ÿ           the high-order word of the CVTLDTO field).                Ÿ
                                    3384              Ÿ                                                                     Ÿ
                                                      ¾þþþþþþþþþþþþþþþþþþþþþþþþþþþþþþþþþþþþþþþþþþþþþþþþþþþþþþþþþþþþþþþþþþþþþ»
00002B2 50E0 D000/9008_      00000  3385              LOCALTOD XPROC TRACE=NO
 USING  *,R7
 0002C2 B205 D000      00000        3424                       STCK  @R13
 0002C6 9801 D000            00000  3425                       LM    R0,R1,@R13
 0002CA 5820 0010            00010  3426                       L     R2,CVTPTR
 0002CE 5820 2148            00148  3427                       WITH  (CVT,R2),'L R2,CVTEXT2'
 USING  CVT,R2
 DROP   CVT,R2
 USING  CVTXTNT2,R2                 3451                       WITH  (CVTXTNT2,R2),BEGIN
 0002D2 5F10 2054/47B0_      00054  3465  1                      SDL   R0,CVTLSO
 0002E0 5E10 203C/47C0_      0003C  3470  1                      ADL   R0,CVTLDTO
 DROP   CVTXTNT2,R2                 3491                       END
 0002F0 9001 8004            00004  3499                       PRETURN (R0,R1)
 0002F4 18D8/9808 D004_             3501                       PEND  *                   Leave R15 alone
 DROP   *,R7
1CR       (CR2193) (12:41) (15MAR04) WYLBUR's Conversion Routines                                                           Page   12
0Loc    Object Code    Addr1 Addr2  Stmt Lv Lineno    Source Statement           (Hibal 5, Asmedit 3.3)  HLASM R4.0  2004/03/15 12.41
+___    ______ ____    _____ _____  ____ __ ______    ______ _________
0                                   3521              ¿þþþþþþþþþþþþþþþþþþþþþþþþþþþþþþþþþþþþþþþþþþþþþþþþþþþþþþþþþþþþþþþþþþþþþÜ
                                    3522              Ÿ                                                                     Ÿ
                                    3523              Ÿ  FMTXDATE -- Routine to format Arpa-style time/date from TOD        Ÿ
                                    3524              Ÿ    clock.                                                           Ÿ
                                    3525              Ÿ                                                                     Ÿ
                                    3526              Ÿ    On entry:                                                        Ÿ
                                    3527              Ÿ      R0-R1 - 64 bit clock                                           Ÿ
                                    3528              Ÿ      R15   - return area (32 bytes)                                 Ÿ
                                    3529              Ÿ                                                                     Ÿ
                                    3530              Ÿ    On exit:                                                         Ÿ
                                    3531              Ÿ      R1,R0 - text loc, len                                          Ÿ
                                    3532              Ÿ              returns: DAY, dd MON yyyy hh:mm:ss ZON                 Ÿ
                                    3533              Ÿ                                                                     Ÿ
                                                      ¾þþþþþþþþþþþþþþþþþþþþþþþþþþþþþþþþþþþþþþþþþþþþþþþþþþþþþþþþþþþþþþþþþþþþþ»
0000300 50E0 D000/9008_      00000  3534              FMTXDATE XPROC WA,TRACE=NO
 USING  *,R7
 USING  WA-(4+36),R8
 000310 41D0 D014            00014  3584                       XPUSH ,,20                Lengthen work area
 000314 186F                        3586                       LR    R6,R15
 000316 9240 6000      00000        3587                       MVI   0(R6),C' '          Blank the output area
 00031A D21E 6001 6000 00001 00000  3588                       MVC   1(31,R6),0(R6)
                                    3589
 000320 1840                        3590                       LR    R4,R0
 000322 1851                        3591                       LR    R5,R1
                                    3592                       ¿þþþþþþþþþþþþþþþþþþþþþþþþþþþÜ
                                    3593                       Ÿ  Format day of the week.  Ÿ
                                    3594                       ¾þþþþþþþþþþþþþþþþþþþþþþþþþþþ»
 000324 58E0 77C4/0DEE       00AD4  3595                       ACALL FMTDAY              Get day of the week
 00032A 50F0 8068            00040  3599                       ST    R15,SAVEDAY         Save day number
 00032E D202 6000 1000 00000 00000  3600                       MVC   @R6(3),@R1          Move in first three chars
 000334 94BF 6001      00001        3601                       NI    @R6+1,255-C' '      (Lower case)
 000338 94BF 6002      00002        3602                       NI    @R6+2,255-C' '      (Lower case)
                                    3603
 00033C 926B 6003      00003        3604                       MVI   @R6+3,C','
                                    3605                       ¿þþþþþþþþþþþþþþþþÜ
                                    3606                       Ÿ  Format date.  Ÿ
                                    3607                       ¾þþþþþþþþþþþþþþþþ»
 000340 1804                        3608                       LR    R0,R4
 000342 1815                        3609                       LR    R1,R5
 000344 41F0 8058            00030  3610                       LA    R15,HEXS            Point to 10 byte area
 000348 58E0 77C8/0DEE       00AD8  3611                       ACALL FMTDATE             mm/dd/yyyy
 00034E D201 6005 1003 00005 00003  3615                       MVC   @R6+5(2),@R1+3      "dd"
 000354 95F0 6005/4770_00005        3616                       IF    (@R6+5,EQ,'0'),'MVI @R6+5,C" "'  Blank leading zero
                                    3638
 000360 D203 600C 1006 0000C 00006  3639                       MVC   @R6+12(4),@R1+6     "yyyy"
                                    3640
 000366 1821                        3641                       LR    R2,R1
 000368 4110 2003/4100_      00003  3642                       DTB   @R2+3,2             Day-of-month
 000376 50F0 806C            00044  3663                       ST    R15,SAVEDATE
 00037A 1812/4100 0002_             3664                       DTB   @R2,2               Month
 000386 59F0 77D0/4740_      00AE0  3685                       IF    ((R15,LT,0),OR,(R15,GT,12)),'CLEAR R15'  Bad month
 000398 183F                        3727                       LR    R3,R15              Save for later
 00039A 4CF0 781E            00B2E  3728                       MH    R15,=H'3'
 00039E 411F 712C            0043C  3729                       LA    R1,FMTXMON(R15)     Month string
 0003A2 D202 6008 1000 00008 00000  3730                       MVC   @R6+8(3),@R1
1CR       (CR2193) (12:41) (15MAR04) WYLBUR's Conversion Routines                                                           Page   13
0Current Usings:  (*,R7) (WA-(4+36),R8)
0Loc    Object Code    Addr1 Addr2  Stmt Lv Lineno    Source Statement           (Hibal 5, Asmedit 3.3)  HLASM R4.0  2004/03/15 12.41
+___    ______ ____    _____ _____  ____ __ ______    ______ _________
0                                   3731                       ¿þþþþþþþþþþþþþþþþþþþþþþþÜ
                                    3732                       Ÿ  Format time of day.  Ÿ
                                    3733                       ¾þþþþþþþþþþþþþþþþþþþþþþþ»
 0003A8 1804                        3734                       LR    R0,R4
 0003AA 1815                        3735                       LR    R1,R5
 0003AC 41F0 6011            00011  3736                       LA    R15,@R6+17
 0003B0 58E0 77D8/0DEE       00AE8  3737                       ACALL FMTTIME             hh:mm:ss
                                    3741                       ¿þþþþþþþþþþþþþþþþþþþþþÜ
                                    3742                       Ÿ  Format time zone.  Ÿ
                                    3743                       ¾þþþþþþþþþþþþþþþþþþþþþ»
 0003B6 D203 6019 77DC 00019 00AEC  3744                       MVC   @R6+25(4),=C' &ZONE'  Set time zone
 0003BC 5930 77E0/4750_      00AF0  3745                       IF    ((R3,GE,4),AND,(R3,LE,10)),BEGIN
 0003CC D203 6019 77E8 00019 00AF8  3778  1                      MVC   @R6+25(4),=C' &ALTZONE'  Assume daylight savings
                                    3779  1                      ¿þþþþþþþþþþþþþþþþþþþþþþþþþþþþþþþþþþþþþþþþþþþþþþþþþþÜ
                                    3780  1                      Ÿ  Now handle special cases for April and October  Ÿ
                                    3781  1                      ¾þþþþþþþþþþþþþþþþþþþþþþþþþþþþþþþþþþþþþþþþþþþþþþþþþþ»
 0003D2 5930 77E0/4780_      00AF0  3782  1                      IF    ((R3,EQ,4),OR,(R3,EQ,10)),BEGIN
 0003E2 5810 806C            00044  3815  2                        L     R1,SAVEDATE         Get binary day-of-month
 0003E6 5820 8068            00040  3816  2                        L     R2,SAVEDAY          Get binary day-of-week
 0003EA 4100 001E            0001E  3817  2                        LA    R0,30               Assume April
 0003EE 5930 77E4/4770_      00AF4  3818  2                        IF    (R3,EQ,10),'LA R0,31'
 0003FA 1B01                        3841  2                        SR    R0,R1               Days in month - day of month
 0003FC 1A02                        3842  2                        AR    R0,R2               ... + day of week
                                    3843  2         C              IF    (((R0,GT,30),AND,(R3,EQ,4)),OR,
 0003FE 5900 77EC/47D0_      00AFC        2                              ((R0,LE,7),AND,(R3,EQ,10))),BEGIN
 00041E D203 6019 77DC 00019 00AEC  3908  3                          MVC   @R6+25(4),=C' &ZONE'  Re-do assumption
 000424                             3909  2                        END
 000424                             3913  1                      END
 000424                             3917                       END
                                    3921
 000424 1816/4100 001D              3922                       SETMSG @R6,29              Formatted date
 00042A 9001 8004            00004  3938                       PRETURN (R0,R1)
 00042E 18D8/9808 D004_             3940                       PEND  ,
 DROP   WA-(4+36),R8
 DROP   *,R7
                                    3965
 00043C 6F6F6FD18195C685            3966              FMTXMON  DC    C'???JanFebMarAprMayJunJulAugSepOctNovDec'
1CR       (CR2193) (12:41) (15MAR04) WYLBUR's Conversion Routines                                                           Page   14
0Loc    Object Code    Addr1 Addr2  Stmt Lv Lineno    Source Statement           (Hibal 5, Asmedit 3.3)  HLASM R4.0  2004/03/15 12.41
+___    ______ ____    _____ _____  ____ __ ______    ______ _________
0                                   3968              ¿þþþþþþþþþþþþþþþþþþþþþþþþþþþþþþþþþþþþþþþþþþþþþþþþþþþþþþþþþþþþþþþþþþþþþÜ
                                    3969              Ÿ                                                                     Ÿ
                                    3970              Ÿ  FMTCLCK -- Routine to format time/date from TOD clock.             Ÿ
                                    3971              Ÿ                                                                     Ÿ
                                    3972              Ÿ    On entry:                                                        Ÿ
                                    3973              Ÿ      R0-R1 - 64 bit clock                                           Ÿ
                                    3974              Ÿ      R15   - return area (30 bytes)                                 Ÿ
                                    3975              Ÿ                                                                     Ÿ
                                    3976              Ÿ    On exit:                                                         Ÿ
                                    3977              Ÿ      R1,R0 - text loc, len    returns: hh:mm:ss mm/dd/yyyy (yyyy.ddd)
                                    3978              Ÿ                                                                     Ÿ
                                                      ¾þþþþþþþþþþþþþþþþþþþþþþþþþþþþþþþþþþþþþþþþþþþþþþþþþþþþþþþþþþþþþþþþþþþþþ»
0000464 50E0 D000/9008_      00000  3979              FMTCLCK  XPROC WA,TRACE=NO
 USING  *,R7
 USING  WA-(4+36),R8
 000474 186F                        4029                       LR    R6,R15
 000476 D21D 6000 7B92 00000 01006  4030                       MVC   @R6(30),BLANKS
                                    4031
 00047C 1840                        4032                       LR    R4,R0
 00047E 1851                        4033                       LR    R5,R1
 000480 4DE0 70D4            00548  4034                       LCALL FMTTIME             hh:mm:ss.hh
 000484 D202 6008 7B92 00008 01006  4036                       MVC   8(3,R6),BLANKS      Don't want hundredths
                                    4037
 00048A 1804                        4038                       LR    R0,R4
 00048C 1815                        4039                       LR    R1,R5
 00048E 41F0 6009            00009  4040                       LA    R15,@R6+9
 000492 58E0 7664/0DEE       00AD8  4041                       ACALL FMTDATE             mm/dd/yyyy
                                    4045
 000498 924D 6014      00014        4046                       MVI   @R6+20,C'('
 00049C 1804                        4047                       LR    R0,R4
 00049E 1815                        4048                       LR    R1,R5
 0004A0 41F0 6015            00015  4049                       LA    R15,@R6+21
 0004A4 4DE0 732A            0079E  4050                       LCALL FMTJUL              yyyy.ddd
 0004A8 925D 601D      0001D        4052                       MVI   @R6+29,C')'
                                    4053
 0004AC 1816/4100 001E              4054                       SETMSG @R6,30
                                    4070
 0004B2 9001 8004            00004  4071                       PRETURN (R0,R1)
 0004B6 18D8/9808 D004_             4073                       PEND
 DROP   WA-(4+36),R8
 DROP   *,R7
1CR       (CR2193) (12:41) (15MAR04) WYLBUR's Conversion Routines                                                           Page   15
0Loc    Object Code    Addr1 Addr2  Stmt Lv Lineno    Source Statement           (Hibal 5, Asmedit 3.3)  HLASM R4.0  2004/03/15 12.41
+___    ______ ____    _____ _____  ____ __ ______    ______ _________
0                                   4099              ¿þþþþþþþþþþþþþþþþþþþþþþþþþþþþþþþþþþþþþþþþþþþþþþþþþþþþþþþþþþþþþþþþþþþþþÜ
                                    4100              Ÿ                                                                     Ÿ
                                    4101              Ÿ  FMTRCLCK -- Routine to format time/conditional-date from TOD       Ÿ
                                    4102              Ÿ    clock.                                                           Ÿ
                                    4103              Ÿ                                                                     Ÿ
                                    4104              Ÿ    On entry:                                                        Ÿ
                                    4105              Ÿ      R0-R1 - 64 bit clock                                           Ÿ
                                    4106              Ÿ      R2-R3 - 64 bit comparison clock                                Ÿ
                                    4107              Ÿ      R15   - return area (16 bytes)                                 Ÿ
                                    4108              Ÿ                                                                     Ÿ
                                    4109              Ÿ    On exit:                                                         Ÿ
                                    4110              Ÿ      R1,R0 - text loc,len    returns: hh:mm -or- hh:mm mm/dd/yyyy   Ÿ
                                    4111              Ÿ                                                                     Ÿ
                                                      ¾þþþþþþþþþþþþþþþþþþþþþþþþþþþþþþþþþþþþþþþþþþþþþþþþþþþþþþþþþþþþþþþþþþþþþ»
00004C4 50E0 D000/9008_      00000  4112              FMTRCLCK XPROC WA,TRACE=NO
 USING  *,R7
 USING  WA-(4+36),R8
 0004D4 186F                        4162                       LR    R6,R15
 0004D6 D20F 6000 7B32 00000 01006  4163                       MVC   @R6(16),BLANKS
                                    4164
 0004DC 1840                        4165                       LR    R4,R0
 0004DE 1851                        4166                       LR    R5,R1
 0004E0 18FD/41D0 D00C              4167                       PUSH  11,PTR=R15
 0004E6 58E0 7614/0DEE       00AE8  4171                       ACALL FMTTIME
 0004EC D204 6000 1000 00000 00000  4175                       MVC   @R6(5),@R1          "hh:mm"
                                    4176
 0004F2 18F1                        4177                       LR    R15,R1
 0004F4 1804                        4178                       LR    R0,R4
 0004F6 1815                        4179                       LR    R1,R5
 0004F8 58E0 7604/0DEE       00AD8  4180                       ACALL FMTDATE
 0004FE D209 6006 1000 00006 00000  4184                       MVC   @R6+6(10),@R1        "mm/dd/yyyy"
 000504 4BD0 765C            00B30  4185                       POP   11
                                    4189
 000508 1804                        4190                       LR    R0,R4
 00050A 4110 0005            00005  4191                       LA    R1,R5
 00050E 58E0 7630/0DEE       00B04  4192                       ACALL TIMEDATE            Get date in R1
 000514 1851                        4196                       LR    R5,R1
                                    4197
 000516 1802                        4198                       LR    R0,R2
 000518 1813                        4199                       LR    R1,R3
 00051A 58E0 7630/0DEE       00B04  4200                       ACALL TIMEDATE            Get "comparison" date in R1
                                    4204
 000520 1915/4770 7058_             4205                       IF    (R1,EQ,R5),'SETMSG @R6,5'  same day
 00052C 705C/47F0 7062_0052C 00524  4241                       ELSE  'SETMSG @R6,16'
 000536 9001 8004            00004  4273                       PRETURN (R0,R1)
 00053A 18D8/9808 D004_             4275                       PEND
 DROP   WA-(4+36),R8
 DROP   *,R7
1CR       (CR2193) (12:41) (15MAR04) WYLBUR's Conversion Routines                                                           Page   16
0Loc    Object Code    Addr1 Addr2  Stmt Lv Lineno    Source Statement           (Hibal 5, Asmedit 3.3)  HLASM R4.0  2004/03/15 12.41
+___    ______ ____    _____ _____  ____ __ ______    ______ _________
0                                   4301              ¿þþþþþþþþþþþþþþþþþþþþþþþþþþþþþþþþþþþþþþþþþþþþþþþþþþþþþþþþþþþþþþþþþþþþþÜ
                                    4302              Ÿ                                                                     Ÿ
                                    4303              Ÿ  FMTTIME -- Routine to format time from TOD clock.                  Ÿ
                                    4304              Ÿ                                                                     Ÿ
                                    4305              Ÿ    On entry:                                                        Ÿ
                                    4306              Ÿ      R0-R1 - 64 bit clock                                           Ÿ
                                    4307              Ÿ      R15   - return area (11 bytes)                                 Ÿ
                                    4308              Ÿ                                                                     Ÿ
                                    4309              Ÿ    On exit:                                                         Ÿ
                                    4310              Ÿ      R1,R0 - text loc, len    returns: hh:mm:ss.hh                  Ÿ
                                    4311              Ÿ                                                                     Ÿ
                                                      ¾þþþþþþþþþþþþþþþþþþþþþþþþþþþþþþþþþþþþþþþþþþþþþþþþþþþþþþþþþþþþþþþþþþþþþ»
0000548 50E0 D000/9008_      00000  4312              FMTTIME  XPROC STCKCVWA,TRACE=NO
 USING  *,R7
 USING  STCKCVWA-(4+36),R8
 000558 9001 8028            00000  4362                       STM   R0,R1,STCKCVCK      Save the clock value
                                    4363
 00055C 186F                        4364                       LR    R6,R15
 00055E D20A 6000 7AAE 00000 01006  4365                       MVC   @R6(11),BLANKS
 000564 5110 0000/4110_      00000  4366                       STCKCONV STCKVAL=STCKCVCK,CONVVAL=STCKCVVL,DATETYPE=MMDDYYYY
                                    4391
 0005BA 12FF/4770 707A              4392                       IF    (R15,Z),BEGIN
 0005C0 D20B 8040 75B0 00018 00B08  4406  1                      MVC   STCKEDIT(12),=X'F021207A20207A20204B2020'  HH:MM:SS.HH
 0005C6 DE0B 8040 8030 00018 00008  4407  1                      ED    STCKEDIT(12),STCKCVVL
 0005CC D20A 6000 8041 00000 00019  4408  1                      MVC   0(11,R6),STCKEDIT+1
 0005D2                             4409                       END
                                    4413
 0005D2 1816/4100 000B              4414                       SETMSG @R6,11
                                    4430
 0005D8 9001 8004            00004  4431                       PRETURN (R0,R1)
 0005DC 18D8/9808 D004_             4433                       PEND
 DROP   STCKCVWA-(4+36),R8
 DROP   *,R7
1CR       (CR2193) (12:41) (15MAR04) WYLBUR's Conversion Routines                                                           Page   17
0Loc    Object Code    Addr1 Addr2  Stmt Lv Lineno    Source Statement           (Hibal 5, Asmedit 3.3)  HLASM R4.0  2004/03/15 12.41
+___    ______ ____    _____ _____  ____ __ ______    ______ _________
0                                   4459              ¿þþþþþþþþþþþþþþþþþþþþþþþþþþþþþþþþþþþþþþþþþþþþþþþþþþþþþþþþþþþþþþþþþþþþþÜ
                                    4460              Ÿ                                                                     Ÿ
                                    4461              Ÿ  FMTDATE -- Routine to format date from TOD clock.                  Ÿ
                                    4462              Ÿ                                                                     Ÿ
                                    4463              Ÿ    On entry:                                                        Ÿ
                                    4464              Ÿ      R0-R1 - 64 bit clock                                           Ÿ
                                    4465              Ÿ      R15   - return area (10 bytes)                                 Ÿ
                                    4466              Ÿ                                                                     Ÿ
                                    4467              Ÿ    On exit:                                                         Ÿ
                                    4468              Ÿ      R1,R0 - text loc,len    returns: mm/dd/yyyy                    Ÿ
                                    4469              Ÿ                                                                     Ÿ
                                                      ¾þþþþþþþþþþþþþþþþþþþþþþþþþþþþþþþþþþþþþþþþþþþþþþþþþþþþþþþþþþþþþþþþþþþþþ»
00005EA 50E0 D000/9008_      00000  4470              FMTDATE  XPROC STCKCVWA,TRACE=NO
 USING  *,R7
 USING  STCKCVWA-(4+36),R8
 0005FA 9001 8028            00000  4520                       STM   R0,R1,STCKCVCK      Save the clock value
                                    4521
 0005FE 186F                        4522                       LR    R6,R15
 000600 D209 6000 7A0C 00000 01006  4523                       MVC   @R6(10),BLANKS
                                    4524
 000606 5110 0000/4110_      00000  4525                       STCKCONV STCKVAL=STCKCVCK,CONVVAL=STCKCVVL,DATETYPE=MMDDYYYY
                                    4550
 00065A 12FF/4770 7078              4551                       IF    (R15,Z),BEGIN
 000660 D20A 8040 7542 00018 00B3C  4565  1                      MVC   STCKEDIT(11),=X'F021206120206120202020'  MM/DD/YYYY
 000666 DE0A 8040 8038 00018 00010  4566  1                      ED    STCKEDIT(11),STCKCVVL+8
 00066C D209 6000 8041 00000 00019  4567  1                      MVC   @R6(10),STCKEDIT+1
 000672                             4568                       END
                                    4572
 000672 1816/4100 000A              4573                       SETMSG @R6,10
                                    4589
 000678 9001 8004            00004  4590                       PRETURN (R0,R1)
 00067C 18D8/9808 D004_             4592                       PEND
 DROP   STCKCVWA-(4+36),R8
 DROP   *,R7
1CR       (CR2193) (12:41) (15MAR04) WYLBUR's Conversion Routines                                                           Page   18
0Loc    Object Code    Addr1 Addr2  Stmt Lv Lineno    Source Statement           (Hibal 5, Asmedit 3.3)  HLASM R4.0  2004/03/15 12.41
+___    ______ ____    _____ _____  ____ __ ______    ______ _________
0                                   4618              ¿þþþþþþþþþþþþþþþþþþþþþþþþþþþþþþþþþþþþþþþþþþþþþþþþþþþþþþþþþþþþþþþþþþþþþÜ
                                    4619              Ÿ                                                                     Ÿ
                                    4620              Ÿ  FMTDAY -- Routine to format the day of the week from TOD clock.    Ÿ
                                    4621              Ÿ                                                                     Ÿ
                                    4622              Ÿ    On entry:                                                        Ÿ
                                    4623              Ÿ      R0-R1 - 64 bit clock                                           Ÿ
                                    4624              Ÿ                                                                     Ÿ
                                    4625              Ÿ    On exit:                                                         Ÿ
                                    4626              Ÿ      R15 - day number (1=Sunday, 2=Monday, etc.)                    Ÿ
                                    4627              Ÿ      R1,R0 - day text loc, len ("Sunday", "Monday", etc.)           Ÿ
                                    4628              Ÿ                                                                     Ÿ
                                                      ¾þþþþþþþþþþþþþþþþþþþþþþþþþþþþþþþþþþþþþþþþþþþþþþþþþþþþþþþþþþþþþþþþþþþþþ»
000068A 50E0 D000/9008_      00000  4629              FMTDAY   XPROC TRACE=NO
 USING  *,R7
 00069A 8C00 0012            00012  4668                       SRDL  R0,12+6             .000001*64 of a sec
 00069E 5D00 747A            00B14  4669                       D     R0,=A(1000000/64*60*60*24)  One day
 0006A2 4130 1001            00001  4670                       LA    R3,@R1+1            No. of days since 1900
                                    4671
 0006A6 1B22                        4672                       CLEAR R2
 0006A8 5D20 747E            00B18  4676                       D     R2,=F'7'            Get day of the week in R15
                                    4677
 0006AC 1812                        4678                       LR    R1,R2               Day number 0 to 6
 0006AE 5910 7446/4770_      00AE0  4679                       IF     (R1,EQ,0),'LA R1,DAYSUN'
 0006BA 7024/47F0 7030_006BA 006B4  4702                       ELSEIF (R1,EQ,1),'LA R1,DAYMON'
 0006CA 7034/47F0 7040_006CA 006C4  4734                       ELSEIF (R1,EQ,2),'LA R1,DAYTUE'
 0006DA 7044/47F0 7050_006DA 006D4  4766                       ELSEIF (R1,EQ,3),'LA R1,DAYWED'
 0006EA 7054/47F0 7060_006EA 006E4  4798                       ELSEIF (R1,EQ,4),'LA R1,DAYTHU'
 0006FA 7064/47F0 7070_006FA 006F4  4830                       ELSEIF (R1,EQ,5),'LA R1,DAYFRI'
 00070A 7074/47F0 7080_0070A 00704  4862                       ELSEIF (R1,EQ,6),'LA R1,DAYSAT'
                                    4894
 00071A 1F00/4300 1000              4895                       LC    R0,@R1              Get string length
 000720 4110 1001            00001  4900                       LA    R1,@R1+1
 000724 41F0 2001            00001  4901                       LA    R15,@R2+1           Return day number (1..7)
 000728 9001 8004            00004  4902                       PRETURN (R0,R1)
 00072C 18D8/9808 D004_             4904                       PEND  ,
 DROP   *,R7
                                    4924
 00073A 0000
 00073C 0000075800000762            4925              DAYTBL   DC    A(DAYSUN,DAYMON,DAYTUE,DAYWED,DAYTHU,DAYFRI,DAYSAT)
 000758 06E2A4958481A840            4926              DAYSUN   DC    AL1(6),CL9'Sunday'
 000762 06D496958481A840            4927              DAYMON   DC    AL1(6),CL9'Monday'
 00076C 07E3A485A28481A8            4928              DAYTUE   DC    AL1(7),CL9'Tuesday'
 000776 09E685849585A284            4929              DAYWED   DC    AL1(9),CL9'Wednesday'
 000780 08E388A499A28481            4930              DAYTHU   DC    AL1(8),CL9'Thursday'
 00078A 06C699898481A840            4931              DAYFRI   DC    AL1(6),CL9'Friday'
 000794 08E281A3A4998481            4932              DAYSAT   DC    AL1(8),CL9'Saturday'
1CR       (CR2193) (12:41) (15MAR04) WYLBUR's Conversion Routines                                                           Page   19
0Loc    Object Code    Addr1 Addr2  Stmt Lv Lineno    Source Statement           (Hibal 5, Asmedit 3.3)  HLASM R4.0  2004/03/15 12.41
+___    ______ ____    _____ _____  ____ __ ______    ______ _________
0                                   4934              ¿þþþþþþþþþþþþþþþþþþþþþþþþþþþþþþþþþþþþþþþþþþþþþþþþþþþþþþþþþþþþþþþþþþþþþÜ
                                    4935              Ÿ                                                                     Ÿ
                                    4936              Ÿ  FMTJUL -- routine to format julian date from TOD clock.            Ÿ
                                    4937              Ÿ                                                                     Ÿ
                                    4938              Ÿ    On entry:                                                        Ÿ
                                    4939              Ÿ      R0-R1 - 64 bit clock                                           Ÿ
                                    4940              Ÿ      R15   - return area (8 bytes)                                  Ÿ
                                    4941              Ÿ                                                                     Ÿ
                                    4942              Ÿ    On exit:                                                         Ÿ
                                    4943              Ÿ      R1,R0 - text loc,len    returns: yyyy.ddd                      Ÿ
                                    4944              Ÿ                                                                     Ÿ
                                                      ¾þþþþþþþþþþþþþþþþþþþþþþþþþþþþþþþþþþþþþþþþþþþþþþþþþþþþþþþþþþþþþþþþþþþþþ»
000079E 50E0 D000/9008_      00000  4945              FMTJUL   PROC  STCKCVWA,TRACE=NO
 USING  *,R7
 USING  STCKCVWA-(4+36),R8
 0007AE 186F                        4994                       LR    R6,R15
 0007B0 D207 6000 7858 00000 01006  4995                       MVC   0(8,R6),BLANKS
                                    4996
 0007B6 5110 0000/4110_      00000  4997                       STCKCONV STCKVAL=STCKCVCK,CONVVAL=STCKCVVL
 00080A 12FF/4770 7074              5022                       IF    (R15,Z),BEGIN
 000810 D209 8040 7384 00018 00B32  5036  1                      MVC   STCKEDIT(10),=X'F020212020204B202020'
 000816 DE09 8040 8038 00018 00010  5037  1                      ED    STCKEDIT(10),STCKCVVL+8
 00081C D207 6000 8042 00000 0001A  5038  1                      MVC   0(8,R6),STCKEDIT+2
 000822                             5039                       END
                                    5043
 000822 1816/4100 0008              5044                       SETMSG @R6,8
 000828 9001 8004            00004  5060                       PRETURN (R0,R1)
 00082C 18D8/9808 D004_             5062                       PEND
 DROP   STCKCVWA-(4+36),R8
 DROP   *,R7
1CR       (CR2193) (12:41) (15MAR04) WYLBUR's Conversion Routines                                                           Page   20
0Loc    Object Code    Addr1 Addr2  Stmt Lv Lineno    Source Statement           (Hibal 5, Asmedit 3.3)  HLASM R4.0  2004/03/15 12.41
+___    ______ ____    _____ _____  ____ __ ______    ______ _________
0                                   5088              ¿þþþþþþþþþþþþþþþþþþþþþþþþþþþþþþþþþþþþþþþþþþþþþþþþþþþþþþþþþþþþþþþþþþþþþÜ
                                    5089              Ÿ                                                                     Ÿ
                                    5090              Ÿ  TIMEDATE -- Routine to calculate time/date from TOD clock.         Ÿ
                                    5091              Ÿ                                                                     Ÿ
                                    5092              Ÿ    On entry:                                                        Ÿ
                                    5093              Ÿ      R0-R1 - 64 bit clock                                           Ÿ
                                    5094              Ÿ                                                                     Ÿ
                                    5095              Ÿ    On exit:                                                         Ÿ
                                    5096              Ÿ      R0 - time (in .01 sec's past midnight)                         Ÿ
                                    5097              Ÿ      R1 - date (in "0CYYDDDF" format)                               Ÿ
                                    5098              Ÿ                                                                     Ÿ
                                                      ¾þþþþþþþþþþþþþþþþþþþþþþþþþþþþþþþþþþþþþþþþþþþþþþþþþþþþþþþþþþþþþþþþþþþþþ»
000083A 50E0 D000/9008_      00000  5099              TIMEDATE XPROC STCKCVWA,TRACE=NO
 USING  *,R7
 USING  STCKCVWA-(4+36),R8
 00084A 9001 8028            00000  5149                       STM   R0,R1,STCKCVCK      Save the clock value
                                    5150
 00084E 5110 0000/4110_      00000  5151                       STCKCONV STCKVAL=STCKCVCK,CONVVAL=STCKCVVL,TIMETYPE=BIN
                                    5176
 0008A2 12FF/4770 708A              5177                       IF    (R15,Z),BEGIN
 0008A8 5800 8030            00008  5191  1                      L     R0,STCKCVVL         Get time
 0008AC 5810 8038            00010  5192  1                      L     R1,STCKCVVL+8        and date
 0008B0 8910 0004            00004  5193  1                      SLL   R1,4                Make room for sign digit
 0008B4 5010 8038            00010  5194  1                      ST    R1,STCKCVVL+8
 0008B8 960F 803B      00013        5195  1                      OI    STCKCVVL+11,X'0F'   Add correct sign digit
                                    5196  1           *
                                    5197  1           * Check for century and create 0C portion of date
                                    5198  1           *
 0008BC 9519 8038/4770_00010        5199  1                      IF    ('CLI STCKCVVL+8,X"19"',EQ),BEGIN  1900...
 0008C4 9200 8038      00010        5212  2                        MVI   STCKCVVL+8,X'00'
 0008C8                             5213  1                      END
 0008C8 7082/47F0 7086 008C8 008C2  5217  1                      ELSE  BEGIN
 0008CC 9201 8038      00010        5228  2                        MVI   STCKCVVL+8,X'01'
 0008D0                             5229  1                      END
 0008D0 5810 8038            00010  5233  1                      L     R1,STCKCVVL+8       Get correct format date
 0008D4                             5234                       END
                                    5238
 0008D4 708E/47F0 7092 008D4 008A6  5239                       ELSE  BEGIN
 0008D8 1B00/1B11                   5250  1                      CLEAR R0,R1
 0008DC                             5256                       END
 0008DC 9001 8004            00004  5260                       PRETURN (R0,R1)
 0008E0 18D8/9808 D004_             5262                       PEND
 DROP   STCKCVWA-(4+36),R8
 DROP   *,R7
1CR       (CR2193) (12:41) (15MAR04) WYLBUR's Conversion Routines                                                           Page   21
0Loc    Object Code    Addr1 Addr2  Stmt Lv Lineno    Source Statement           (Hibal 5, Asmedit 3.3)  HLASM R4.0  2004/03/15 12.41
+___    ______ ____    _____ _____  ____ __ ______    ______ _________
0                                   5288              ¿þþþþþþþþþþþþþþþþþþþþþþþþþþþþþþþþþþþþþþþþþþþþþþþþþþþþþþþþþþþþþþþþþþþþþÜ
                                    5289              Ÿ                                                                     Ÿ
                                    5290              Ÿ  DATE -- Routine to convert packed decimal julian date (as          Ÿ
                                    5291              Ÿ    returned by 'TIME BIN') to 'mm/dd/yyyy' format.                  Ÿ
                                    5292              Ÿ                                                                     Ÿ
                                    5293              Ÿ      On entry:                                                      Ÿ
                                    5294              Ÿ        R0 - packed julian date (0CYYDDDF)                           Ÿ
                                    5295              Ÿ        R1 - 10 byte return area (for 'MM/DD/YYYY')                  Ÿ
                                    5296              Ÿ                                                                     Ÿ
                                    5297              Ÿ      On exit:                                                       Ÿ
                                    5298              Ÿ        R1,R0 - return area loc,len                                  Ÿ
                                    5299              Ÿ                                                                     Ÿ
                                                      ¾þþþþþþþþþþþþþþþþþþþþþþþþþþþþþþþþþþþþþþþþþþþþþþþþþþþþþþþþþþþþþþþþþþþþþ»
00008EE 50E0 D000/9008_      00000  5300              DATE     XPROC WA,TRACE=NO
 USING  *,R7
 USING  WA-(4+36),R8
 0008FE 1861                        5350                       LR    R6,R1               Save return area ptr
 000900 D70F 8058 8058 00030 00030  5351                       CLEAR HEXS
 000906 9201 8059      00031        5358                       MVI   HEXS+1,X'01'
 00090A 5000 8060            00038  5359                       ST    R0,HEXS+8
 00090E 5110 0000/4110_      00000  5360                       CONVTOD  CONVVAL=HEXS,TODVAL=DW,TIMETYPE=DEC,DATETYPE=YYDDD
 00096E 12FF/4770 707A              5387                       IF    (R15,Z),BEGIN
 000974 9801 804C            00024  5401  1                      LM    R0,R1,DW
 000978                             5402                       END
 000978 707E/47F0 7082 00978 00972  5406                       ELSE  BEGIN
 00097C 1B00/1B11                   5417  1                      CLEAR R0,R1
 000980                             5423                       END
 000980 18F6                        5427                       LR    R15,R6
 000982 58E0 71DA/0DEE       00AD8  5428                       ACALL FMTDATE
 000988 9001 8004            00004  5432                       PRETURN (R0,R1)
 00098C 18D8/9808 D004_             5434                       PEND  ,
 DROP   WA-(4+36),R8
 DROP   *,R7
                                    5459
1CR       (CR2193) (12:41) (15MAR04) WYLBUR's Conversion Routines                                                           Page   22
0Loc    Object Code    Addr1 Addr2  Stmt Lv Lineno    Source Statement           (Hibal 5, Asmedit 3.3)  HLASM R4.0  2004/03/15 12.41
+___    ______ ____    _____ _____  ____ __ ______    ______ _________
0                                   5461              * constants
                                    5462              *
 00099A 0000
 00099C 0000000000000000            5463              DATA1    DC    64F'0'              NOT USED, BUT NEEDED FOR $PCODE
 000A9C 0000000000000000            5464              DATEVAL  DC    X'00000000000000000000010101010101'
 000AAC F0F1F2F3F4F5F6F7            5465              HEXTBL   DC    C'0123456789ABCDEF'
                                    5466
                                    5467                       QLTORG
1CR       (CR2193) (12:41) (15MAR04) Routine to Dequote a String                                                            Page   23
0Loc    Object Code    Addr1 Addr2  Stmt Lv Lineno    Source Statement           (Hibal 5, Asmedit 3.3)  HLASM R4.0  2004/03/15 12.41
+___    ______ ____    _____ _____  ____ __ ______    ______ _________
0                                   5510              ¿þþþþþþþþþþþþþþþþþþþþþþþþþþþþþþþþþþþþþþþþþþþþþþþþþþþþþþþþþþþþþþþþþþþþþÜ
                                    5511              Ÿ                                                                     Ÿ
                                    5512              Ÿ  DEQUOTE/DEQSTR -- Routine to dequote string.                       Ÿ
                                    5513              Ÿ   On entry:                                                         Ÿ
                                    5514              Ÿ     R1,R0 - string loc,len                                          Ÿ
                                    5515              Ÿ     R15   - output string loc (only for DEQSTR entry)               Ÿ
                                    5516              Ÿ                                                                     Ÿ
                                    5517              Ÿ   On exit:                                                          Ÿ
                                    5518              Ÿ     R15=NZ, not a string (R1,R0 - same as on entry)                 Ÿ
                                    5519              Ÿ     R15=0,POS string dequoted (R1,R0 - loc,len of dequoted string)  Ÿ
                                    5520              Ÿ        r15 is string length (ie. R15=0 is null string)              Ÿ
                                    5521              Ÿ                                                                     Ÿ
                                    5522              Ÿ   NOTE:                                                             Ÿ
                                    5523              Ÿ   jan/91, r15 now set as cc, formerly cc was set from R0            Ÿ
                                    5524              Ÿ   formerly returned as junk (ie, r15=r1+r0)                         Ÿ
                                    5525              Ÿ                                                                     Ÿ
                                                      ¾þþþþþþþþþþþþþþþþþþþþþþþþþþþþþþþþþþþþþþþþþþþþþþþþþþþþþþþþþþþþþþþþþþþþþ»
0000B60 50E0 D000/9008_      00000  5526              DEQUOTE  XPROC TRACE=NO
 USING  *,R7
 000B70 41F0 1001            00001  5565                       LA    R15,@R1+1           De-quote string in place
 000B74 58E0 7678/0DEE       011E8  5566                       ACALL DEQSTR
 000B7A 9001 8004            00004  5570                       PRETURN (R0,R1)
 000B7E 18D8/9808 D004_             5572                       PEND  ,
 DROP   *,R7
                                    5592
 000B8C 50E0 D000/9008_      00000  5593              DEQSTR   XPROC TRACE=NO
 USING  *,R7
 000B9C 5900 7650/4740_      011EC  5632                       IF    (R0,LT,2),DQBAD     Bad string
                                    5652
 000BA4 957D 1000/4780_00000        5653                       IF    ((@R1,NE,''''),AND,(@R1,NE,'"')),DQBAD  Start quote
                                    5687
 000BB4 1821                        5688                       LR    R2,R1
 000BB6 1A20                        5689                       AR    R2,R0
 000BB8 0620                        5690                       DECR  R2
 000BBA D500 2000 1000_00000 00000  5692                       IF    ('CLC @R2(1),@R1',NE),DQBAD  End not properly quoted
                                    5708
 000BC4 0600                        5709                       DECR  R0                  Strip off outer quotes
 000BC6 0600                        5711                       DECR  R0
 000BC8 1841                        5713                       LR    R4,R1               Remember kind of quote
 000BCA 4160 1001            00001  5714                       LA    R6,@R1+1            Inp ptr
 000BCE 181F                        5715                       LR    R1,R15
 000BD0 1850                        5716                       LR    R5,R0
 000BD2 1255/47D0 7072              5717                       WHILE (R5,POS),BEGIN      Move string a char at a time...
 000BD8 D200 F000 6000 00000 00000  5733  1                      MVC   @R15(1),@R6
 000BDE D500 F000 4000_00000 00000  5734  1                      IF    ('CLC @R15(1),@R4',EQ),BEGIN  Check for two quotes...
 000BE8 1255/47D0 7064_             5747  2                        IF    ((R5,POS),AND,('CLC @R6(1),@R6+1',EQ)),BEGIN
 000BF8 4160 6001            00001  5773  3                          LA    R6,@R6+1            Skip second quote
 000BFC 0650                        5774  3                          DECR  R5
 000BFE 0600                        5776  3                          DECR  R0
 000C00                             5778  2                        END
 000C00                             5782  1                      END
                                    5786  1
 000C00 41F0 F001            00001  5787  1                      LA    R15,@R15+1
 000C04 4160 6001            00001  5788  1                      LA    R6,@R6+1
 000C08 0650                        5789  1                      DECR  R5
1CR       (CR2193) (12:41) (15MAR04) Routine to Dequote a String                                                            Page   24
0Current Usings:  (*,R7)
0Loc    Object Code    Addr1 Addr2  Stmt Lv Lineno    Source Statement           (Hibal 5, Asmedit 3.3)  HLASM R4.0  2004/03/15 12.41
+___    ______ ____    _____ _____  ____ __ ______    ______ _________
0000C0A 47F0 7036            00BD2  5791                       END
 000C0E 18F0                        5796                       LR    R15,R0
 000C10 47F0 7080            00C1C  5797                       B     DQEXIT
                                    5798
 000C14                             5799              DQBAD    LABEL ,
 000C14 58F0 7654            011F0  5801                       L     R15,=F'-4'
 000C18 47F0 7080            00C1C  5802                       B     DQEXIT
                                    5803
 000C1C                             5804              DQEXIT   LABEL ,
 000C1C 9001 8004            00004  5806                       PRETURN (R0,R1)
 000C20 18D8/9808 D004_             5808                       PEND
 DROP   *,R7
1CR       (CR2193) (12:41) (15MAR04) WYLBUR's SEG Routines                                                                  Page   25
0Loc    Object Code    Addr1 Addr2  Stmt Lv Lineno    Source Statement           (Hibal 5, Asmedit 3.3)  HLASM R4.0  2004/03/15 12.41
+___    ______ ____    _____ _____  ____ __ ______    ______ _________
0000000                00000 0003C  5829              SEGCB    RECORD 'SEGCB'
 000000 00                          5839  1 03-SEGCB +$$$SEGCB113   DS 0F
 SEGCBCOD.SEGCBSEG 01 EQ
 SEGCBCOD.SEGCBWR  02 EQ
 SEGCBCOD.SEGCBCLR 03 EQ
 SEGCBCOD.SEGCBSPP 04 EQ
 SEGCBCOD.SEGCBOVF 05 EQ
 SEGCBCOD.SEGCBCR  06 EQ
 SEGCBCOD.SEGCBMAR 07 EQ
 000001 00                          5914  1 03-SEGCB +           DC    X'00'               Reserved
 000002 0000                              1          +
 000004 00000000                    5915  1 03-SEGCB +SEGCBMAXF   DC   A(0)                Maximum buffer length
 000008 00000000                    5916  1 03-SEGCB +SEGCBMRKF   DC   A(0)                Length at last mark
 00000C 00000000                    5917  1 03-SEGCB +SEGCBLENF   DC   A(0)                Current length
 000010 00000000                    5918  1 03-SEGCB +SEGCBINDF   DC   A(0)                Overflow/indent count
 000014 00000000                    5919  1 03-SEGCB +SEGCBERR   DC    A(0)                Address of error recovery routine
 000018 0000000000000000            5920  1 03-SEGCB +           DC    2F'0'               Reserved
 000020 00000000                    5921  1 03-SEGCB +SEGCBLOC   DC    A(0)                Location of buffer
 000024 00000000                    5922  1 03-SEGCB +SEGCBRTN   DC    A(0)                Processing routine
 000028 0000000000000000            5923  1 03-SEGCB +           DC    4F'0'               Reserved
 000038 00000000                    5924    03-SEGCB +SEGCBUSR DC    A(0)                USER field
-                                   5935              ¿þþþþþþþþþþþþþþþþþþþþþþþþþþþþþþþþþþþþþþþþþþþþþþþþþþþþþþþþþþþþþþþþþþþþþÜ
                                    5936              Ÿ                                                                     Ÿ
                                    5937              Ÿ  SEGINITR/SEGINITB --                                               Ÿ
                                    5938              Ÿ    Routine to initialize the SEGCB control block.                   Ÿ
                                    5939              Ÿ                                                                     Ÿ
                                    5940              Ÿ    On entry:                                                        Ÿ
                                    5941              Ÿ      R1,R0 - location & length of seg buffer                        Ÿ
                                    5942              Ÿ      R15   - SEGCB ptr                                              Ÿ
                                    5943              Ÿ      @RAR  - adcon of processing routine                            Ÿ
                                    5944              Ÿ                                                                     Ÿ
                                    5945              Ÿ  NOTE (01/23/91):                                                   Ÿ
                                    5946              Ÿ  SEGINIT ROUTINE CHANGED TO SEGINIT AND                             Ÿ
                                    5947              Ÿ  SEGINITR.  THIS WAS DONE TO ELIMINATE THE                          Ÿ
                                    5948              Ÿ  PASSING THE ROUTINE AS AN INLINE 'DC A(ROUTINE)'.                  Ÿ
                                    5949              Ÿ  SEGINITR SHOULD BE CALLED FIRST. IT CLEARS THE SEGCB.              Ÿ
                                    5950              Ÿ                                                                     Ÿ
                                    5951              Ÿ                                                                     Ÿ
                                                      ¾þþþþþþþþþþþþþþþþþþþþþþþþþþþþþþþþþþþþþþþþþþþþþþþþþþþþþþþþþþþþþþþþþþþþþ»
0000C2E 50E0 D000/9008_      00000  5952              SEGINIT  XPROC TRACE=NO
 USING  *,R7
 USING  SEGCB,R15                   5991                       WITH  (SEGCB,R15),BEGIN
 000C3E D73B F000 F000 00000 00000  6005  1                      CLEAR SEGCB               Init
 000C44 5000 F004            00004  6012  1                      ST    R0,SEGCBMAXF        Save max seg buffer length
 000C48 5010 F020            00020  6013  1                      ST    R1,SEGCBLOC         ... and location
 DROP   SEGCB,R15                   6014                       END
 000C4C 18D8/9808 D004_             6022                       PEND
 DROP   *,R7
                                    6042              *
                                    6043              *
 000C5A 50E0 D000/9008_      00000  6044              SEGINITR XPROC TRACE=NO
 USING  *,R7
 USING  SEGCB,R15                   6083                       WITH  (SEGCB,R15),BEGIN
1CR       (CR2193) (12:41) (15MAR04) WYLBUR's SEG Routines                                                                  Page   26
0Current Usings:  (*,R7) (SEGCB,R15)
0Loc    Object Code    Addr1 Addr2  Stmt Lv Lineno    Source Statement           (Hibal 5, Asmedit 3.3)  HLASM R4.0  2004/03/15 12.41
+___    ______ ____    _____ _____  ____ __ ______    ______ _________
0000C6A 5000 F024            00024  6097  1                      ST    R0,SEGCBRTN         Save processing routine addr
 000C6E 5010 F014            00014  6098  1                      ST    R1,SEGCBERR         Save error recovery routine addr
 DROP   SEGCB,R15                   6099                       END
 000C72 18D8/9808 D004_             6107                       PEND
 DROP   *,R7
1CR       (CR2193) (12:41) (15MAR04) WYLBUR's SEG Routines                                                                  Page   27
0Loc    Object Code    Addr1 Addr2  Stmt Lv Lineno    Source Statement           (Hibal 5, Asmedit 3.3)  HLASM R4.0  2004/03/15 12.41
+___    ______ ____    _____ _____  ____ __ ______    ______ _________
0                                   6128              ¿þþþþþþþþþþþþþþþþþþþþþþþþþþþþþþþþþþþþþþþþþþþþþþþþþþþþþþþþþþþþþþþþþþþþþÜ
                                    6129              Ÿ                                                                     Ÿ
                                    6130              Ÿ  SEGB -- Routine to add segment to buffer followed by a blank.      Ÿ
                                    6131              Ÿ    (Same entry conventions as "SEG" routine below.)                 Ÿ
                                    6132              Ÿ                                                                     Ÿ
                                                      ¾þþþþþþþþþþþþþþþþþþþþþþþþþþþþþþþþþþþþþþþþþþþþþþþþþþþþþþþþþþþþþþþþþþþþþ»
0000C80 50E0 D000/9008_      00000  6133              SEGB     XPROC TRACE=NO
 USING  *,R7
 000C90 186F                        6172                       LR    R6,R15              Segcb ptr
 000C92 58E0 7564/0DEE       011F4  6173                       ACALL SEG
 000C98 4110 758A/4100_      0121A  6177                       SEG   ' ',,(R6)
 000CA8 18D8/9808 D004_             6192                       PEND  ,
 DROP   *,R7
-                                   6213              ¿þþþþþþþþþþþþþþþþþþþþþþþþþþþþþþþþþþþþþþþþþþþþþþþþþþþþþþþþþþþþþþþþþþþþþÜ
                                    6214              Ÿ                                                                     Ÿ
                                    6215              Ÿ  SEGTB -- Routine to add "trimmed" segment to buffer followed by    Ÿ
                                    6216              Ÿ    a blank.  (Same entry conventions as "SEG" routine below.)       Ÿ
                                    6217              Ÿ                                                                     Ÿ
                                                      ¾þþþþþþþþþþþþþþþþþþþþþþþþþþþþþþþþþþþþþþþþþþþþþþþþþþþþþþþþþþþþþþþþþþþþþ»
0000CB6 50E0 D000/9008_      00000  6218              SEGTB    XPROC TRACE=NO
 USING  *,R7
 000CC6 186F                        6257                       LR    R6,R15              Segcb ptr
 000CC8 58E0 7536/0DEE       011FC  6258                       ACALL SEGT
 000CCE 4110 7554/4100_      0121A  6262                       SEG   ' ',,(R6)
 000CDE 18D8/9808 D004_             6277                       PEND  ,
 DROP   *,R7
1CR       (CR2193) (12:41) (15MAR04) WYLBUR's SEG Routines                                                                  Page   28
0Loc    Object Code    Addr1 Addr2  Stmt Lv Lineno    Source Statement           (Hibal 5, Asmedit 3.3)  HLASM R4.0  2004/03/15 12.41
+___    ______ ____    _____ _____  ____ __ ______    ______ _________
0                                   6298              ¿þþþþþþþþþþþþþþþþþþþþþþþþþþþþþþþþþþþþþþþþþþþþþþþþþþþþþþþþþþþþþþþþþþþþþÜ
                                    6299              Ÿ                                                                     Ÿ
                                    6300              Ÿ  SEGCR -- Routine to add segment to buffer followed by a carriage   Ÿ
                                    6301              Ÿ    return.  (Same entry conventions as "SEG" routine below.)        Ÿ
                                    6302              Ÿ                                                                     Ÿ
                                                      ¾þþþþþþþþþþþþþþþþþþþþþþþþþþþþþþþþþþþþþþþþþþþþþþþþþþþþþþþþþþþþþþþþþþþþþ»
0000CEC 50E0 D000/9008_      00000  6303              SEGCR    XPROC TRACE=NO
 USING  *,R7
 000CFC 186F                        6342                       LR    R6,R15              Segcb ptr
 000CFE 58E0 74F8/0DEE       011F4  6343                       ACALL SEG
                                    6347
 USING  SEGCB,R6                    6348                       WITH  (SEGCB,R6),BEGIN
 000D04 9206 6000      00000        6362  1                      SET   SEGCBCR             Set function code for exit routine
 000D08 5810 6020            00020  6368  1                      L     R1,SEGCBLOC         Location of buffer
 000D0C 5800 600C            0000C  6369  1                      L     R0,SEGCBLENF        Length
 000D10 18F6                        6370  1                      LR    R15,R6              Segcb ptr
                                    6371  1                      COMMENT                   If user seg routine, call it
 000D12 D503 74E4 6024_011E0 00024  6372  1                      IF    (SEGCBRTN,NE,0),BEGIN
 000D1C 41E0 6024            00024  6390  2                        LA    R14,SEGCBRTN
 000D20 58E0 E000/0DEE       00000  6391  2                        CALLRTNP @R14
 000D26                             6395  1                      END
 000D26 702E/47F0 7040 00D26 00D1A  6399  1                      ELSE  BEGIN
 000D2A 4110 751F/4100_      0121B  6410  2                        SEG   X'15',,(R6)         Followed by a cr
 000D3A 1BFF                        6425  2                        CLEAR R15
 000D3C                             6429  1                      END
                                    6433  1
 000D3C D203 6008 600C 00008 0000C  6434  1                      MVC   SEGCBMRKF,SEGCBLENF  Segmark
                                    6435  1
 000D42 9204 6000      00000        6436  1                      SET   SEGCBSPP            Set function code for exit routine
 000D46 18F6                        6442  1                      LR    R15,R6
 000D48 1B00                        6443  1                      CLEAR R0                  Pre-set good rc
                                    6447  1                      COMMENT                   If user seg routine, call it
 000D4A D503 74E4 6024_011E0 00024  6448  1                      IF    (SEGCBRTN,NE,0),' LA  R14,SEGCBRTN; CALLRTNP @R14 '
 DROP   SEGCB,R6                    6476                       END
                                    6484
 000D5E 12F0                        6485                       LTR   R15,R0              Set rc
 000D60 18D8/9808 D004_             6486                       PEND  ,
 DROP   *,R7
1CR       (CR2193) (12:41) (15MAR04) WYLBUR's SEG Routines                                                                  Page   29
0Loc    Object Code    Addr1 Addr2  Stmt Lv Lineno    Source Statement           (Hibal 5, Asmedit 3.3)  HLASM R4.0  2004/03/15 12.41
+___    ______ ____    _____ _____  ____ __ ______    ______ _________
0                                   6507              ¿þþþþþþþþþþþþþþþþþþþþþþþþþþþþþþþþþþþþþþþþþþþþþþþþþþþþþþþþþþþþþþþþþþþþþÜ
                                    6508              Ÿ                                                                     Ÿ
                                    6509              Ÿ  SEGWR -- Routine to add (final) segment to buffer and write        Ÿ
                                    6510              Ÿ    contents.  (Same entry conventions as "SEG" routine below.)      Ÿ
                                    6511              Ÿ                                                                     Ÿ
                                                      ¾þþþþþþþþþþþþþþþþþþþþþþþþþþþþþþþþþþþþþþþþþþþþþþþþþþþþþþþþþþþþþþþþþþþþþ»
0000D6E 50E0 D000/9008_      00000  6512              SEGWR    XPROC TRACE=NO
 USING  *,R7
 000D7E 186F                        6551                       LR    R6,R15              Segcb ptr
 000D80 58E0 7476/0DEE       011F4  6552                       ACALL SEG
 USING  SEGCB,R6                    6556                       WITH  (SEGCB,R6),BEGIN
 000D86 9202 6000      00000        6570  1                      SET   SEGCBWR             Set function code for exit routine
 000D8A 5810 6020            00020  6576  1                      L     R1,SEGCBLOC         Start of buffer
 000D8E 5800 600C            0000C  6577  1                      L     R0,SEGCBLENF        Length
 000D92 18F6                        6578  1                      LR    R15,R6              Segcb ptr
 000D94 D503 7462 6024_011E0 00024  6579  1                      IF    (SEGCBRTN,NE,0),BEGIN  If user seg routine,
 000D9E 41E0 6024            00024  6597  2                        LA    R14,SEGCBRTN
 000DA2 58E0 E000/0DEE       00000  6598  2                        CALLRTNP @R14              Go off to exit routine
 000DA8 D203 600C 7482 0000C 01200  6602  2                        MVC   SEGCBLENF,=F'0'     Reset buffer (don't change cc)
 000DAE D203 6008 7482 00008 01200  6603  2                        MVC   SEGCBMRKF,=F'0'     Reset mark too
 000DB4                             6604  1                      END
 000DB4 703A/47F0 703C_00DB4 00D9C  6608  1                      ELSE  'CLEAR R15'         Set dummy rc
 DROP   SEGCB,R6                    6628                       END
                                    6636
 000DBA 18D8/9808 D004_             6637                       PEND
 DROP   *,R7
1CR       (CR2193) (12:41) (15MAR04) WYLBUR's SEG Routines                                                                  Page   30
0Loc    Object Code    Addr1 Addr2  Stmt Lv Lineno    Source Statement           (Hibal 5, Asmedit 3.3)  HLASM R4.0  2004/03/15 12.41
+___    ______ ____    _____ _____  ____ __ ______    ______ _________
0                                   6658              ¿þþþþþþþþþþþþþþþþþþþþþþþþþþþþþþþþþþþþþþþþþþþþþþþþþþþþþþþþþþþþþþþþþþþþþÜ
                                    6659              Ÿ                                                                     Ÿ
                                    6660              Ÿ  SEG/SEGT -- Routine to add segment to buffer.  SEGT entry will     Ÿ
                                    6661              Ÿ    trim trailing blanks.                                            Ÿ
                                    6662              Ÿ                                                                     Ÿ
                                    6663              Ÿ      On entry:                                                      Ÿ
                                    6664              Ÿ        R1,R0 - location & length of segment                         Ÿ
                                    6665              Ÿ        R15 - SEGCB ptr                                              Ÿ
                                    6666              Ÿ                                                                     Ÿ
                                    6667              Ÿ      On exit, R15 (and CC):                                         Ÿ
                                    6668              Ÿ        -4 - overflow occured                                        Ÿ
                                    6669              Ÿ         0 - normal                                                  Ÿ
                                    6670              Ÿ                                                                     Ÿ
                                                      ¾þþþþþþþþþþþþþþþþþþþþþþþþþþþþþþþþþþþþþþþþþþþþþþþþþþþþþþþþþþþþþþþþþþþþþ»
0000DC8 50E0 D000/9008_      00000  6671              SEGT     XPROC TRACE=NO
 USING  *,R7
 000DD8 186F                        6710                       LR    R6,R15
 USING  SEGCB,R6                    6711                       USING SEGCB,R6
 000DDA 1200/47D0 702C              6720                       IF    (R0,POS),BEGIN      Something to seg...
 000DE0 4110 1000            00000  6734  1                      LA    R1,@R1              Clear high byte
 000DE4 1821                        6735  1                      LR    R2,R1
 000DE6 1A20                        6736  1                      AR    R2,R0
 000DE8 0620                        6737  1                      DECR  R2                  Addr of last char
 000DEA 1921/4750 7026_             6739  1                      WHILE ((R2,GE,R1),AND,(@R2,EQ,' ')),'DECR R2'
 000DFE 1B21                        6779  1                      SR    R2,R1
 000E00 4100 2001            00001  6780  1                      LA    R0,@R2+1            Trimmed string len
 000E04                             6781                       END
 000E04 18F6                        6785                       LR    R15,R6
 000E06 58E0 741C/0DEE       011F4  6786                       ACALL SEG
 000E0C 18D8/9808 D004_             6790                       PEND  ,
 DROP   *,R7
                                    6810
 000E1A 50E0 D000/9008_      00000  6811              SEG      XPROC TRACE=NO
 USING  *,R7
 000E2A 186F                        6850                       LR    R6,R15
                                    6851
 000E2C 9201 6000      00000        6852                       SET   SEGCBSEG            Set function code for exit routine
                                    6858                       COMMENT                   If user seg routine, call it
 000E30 D503 73B6 6024_011E0 00024  6859                       IF    (SEGCBRTN,NE,0),' LA  R14,SEGCBRTN; CALLRTNP @R14 '
                                    6887
 000E44 1B55                        6888                       CLEAR R5                  Set ok rc
 000E46 1200/47D0 70F8              6892                       IF    (R0,~POS),SEGEXIT   Skip if nothing to seg
 000E4C 5900 6004/47D0_      00004  6909                       CEIL  R0,SEGCBMAXF        Max allowed
 000E58 1821                        6915                       LR    R2,R1
 000E5A 1830                        6916                       LR    R3,R0
                                    6917
 000E5C 1B55                        6918              SEGRETRY CLEAR R5                  Init return code
 000E5E 5A00 600C            0000C  6923                       A     R0,SEGCBLENF        Calc new total length
 000E62 5900 6004/47D0_      00004  6924                       IF    (R0,GT,SEGCBMAXF),BEGIN  Overflow...
 000E6A 9205 6000      00000        6941  1                      SET   SEGCBOVF            Set function code for exit routine
 000E6E 5810 6020            00020  6947  1                      L     R1,SEGCBLOC         Start of buffer
 000E72 5800 6008/1200       00008  6948  1                      LT    R0,SEGCBMRKF        Last marked position
 000E78 4720 7056/5800_      00E80  6952  1                      IF    NP,'L R0,SEGCBLENF' Use cur len if no mark
 000E80 18F6                        6969  1                      LR    R15,R6              Segcb ptr
                                    6970  1                      COMMENT                   If user seg routine, call it
1CR       (CR2193) (12:41) (15MAR04) WYLBUR's SEG Routines                                                                  Page   31
0Current Usings:  (SEGCB,R6) (*,R7)
0Loc    Object Code    Addr1 Addr2  Stmt Lv Lineno    Source Statement           (Hibal 5, Asmedit 3.3)  HLASM R4.0  2004/03/15 12.41
+___    ______ ____    _____ _____  ____ __ ______    ______ _________
0000E82 D503 73B6 6024_011E0 00024  6971  1                      IF    (SEGCBRTN,NE,0),' LA  R14,SEGCBRTN; CALLRTNP @R14 '
 000E96 1200/47B0 70C6              6999  1                      IF    (R0,NEG),BEGIN      Exit processed something...
 000E9C D703 6008 6008 00008 00008  7013  2                        CLEAR SEGCBMRKF           Clear mark
 000EA2 1300                        7020  2                        LCR   R0,R0               Amount processed
 000EA4 5810 600C            0000C  7021  2                        L     R1,SEGCBLENF
 000EA8 58E0 6020            00020  7022  2                        L     R14,SEGCBLOC
 000EAC 58F0 6010/12FF_      00010  7023  2                        IF    ('LT R15,SEGCBINDF',NZ),BEGIN  Indent...
 000EB6 55F0 6004/47A0_      00004  7039  3                          IF    (R15,LGE,SEGCBMAXF),EXIT
 000EBE 5810 73DA            01204  7059  3                          L     R1,=A(X'40000000')
 000EC2 0EE0                        7060  3                          MVCL  R14,R0              Pad with blanks
 000EC4 5810 600C            0000C  7061  3                          L     R1,SEGCBLENF
 000EC8 58F0 6010            00010  7062  3                          L     R15,SEGCBINDF
 000ECC                             7063  2                        END
 000ECC 1B10                        7067  2                        SR    R1,R0               New buffer len
 000ECE 1AF1                        7068  2                        AR    R15,R1              Including indentation
 000ED0 50F0 600C            0000C  7069  2                        ST    R15,SEGCBLENF
 000ED4 1211/4720 70B8_             7070  2                        IF    (R1,~POS),'LA R0,@R3(R15); B SEGDO'  add new segment
 000EE2 18F1                        7091  2                        LR    R15,R1
 000EE4 5A00 6020            00020  7092  2                        A     R0,SEGCBLOC
 000EE8 0EE0                        7093  2                        MVCL  R14,R0              Move remaining text over
 000EEA 1803                        7094  2                        LR    R0,R3               New segment len
 000EEC 47F0 7032            00E5C  7095  2                        B     SEGRETRY            Try again
 000EF0                             7096  1                      END
 000EF0 1803                        7100  1                      LR    R0,R3
 000EF2 5A00 600C            0000C  7101  1                      A     R0,SEGCBLENF        Re-calc total len
 000EF6 5900 6004/47C0_      00004  7102  1                      IF    (R0,LE,SEGCBMAXF),SEGDO  It's ok now
 000EFE 4850 73EA            01214  7122  1                      LH    R5,=H'-4'           Set return code
 000F02 5B00 6004            00004  7123  1                      S     R0,SEGCBMAXF        No. of chars that won't fit
 000F06 1B30                        7124  1                      SR    R3,R0               Only seg as much as will fit
 000F08 47D0 70F8            00F22  7125  1                      BNP   SEGEXIT             Nothing will fit
 000F0C 5800 6004            00004  7126  1                      L     R0,SEGCBMAXF        New buffer len
 000F10                             7127                       END
 000F10 58F0 600C            0000C  7131              SEGDO    L     R15,SEGCBLENF
 000F14 5000 600C            0000C  7132                       ST    R0,SEGCBLENF        Update length
 000F18 5800 6020            00020  7133                       L     R0,SEGCBLOC
 000F1C 1A0F                        7134                       AR    R0,R15              Insertion point
 000F1E 1813                        7135                       LR    R1,R3               Len
 000F20 0E02                        7136                       MVCL  R0,R2               Move in segment
 000F22 9204 6000      00000        7137              SEGEXIT  SET   SEGCBSPP            Set function code for exit routine
 000F26 18F6                        7144                       LR    R15,R6              Segcb ptr
 000F28 1205                        7145                       LTR   R0,R5               Put rc in R0 for exit routine
                                    7146                       COMMENT                   If user seg routine, call it
 000F2A D503 73B6 6024_011E0 00024  7147                       IF    (SEGCBRTN,NE,0),' LA  R14,SEGCBRTN; CALLRTNP @R14 '
 DROP   SEGCB,R6                    7175                       DROP  SEGCB
 000F3E 12F0                        7183                       LTR   R15,R0
 000F40 18D8/9808 D004_             7184                       PEND  ,
 DROP   *,R7
1CR       (CR2193) (12:41) (15MAR04) WYLBUR's SEG Routines                                                                  Page   32
0Loc    Object Code    Addr1 Addr2  Stmt Lv Lineno    Source Statement           (Hibal 5, Asmedit 3.3)  HLASM R4.0  2004/03/15 12.41
+___    ______ ____    _____ _____  ____ __ ______    ______ _________
0                                   7205              ¿þþþþþþþþþþþþþþþþþþþþþþþþþþþþþþþþþþþþþþþþþþþþþþþþþþþþþþþþþþþþþþþþþþþþþÜ
                                    7206              Ÿ                                                                     Ÿ
                                    7207              Ÿ  SEGCOL -- Routine to extend seg buffer to absolute column.         Ÿ
                                    7208              Ÿ                                                                     Ÿ
                                    7209              Ÿ    On entry:                                                        Ÿ
                                    7210              Ÿ      R0  - column number                                            Ÿ
                                    7211              Ÿ      R15 - SEGCB ptr                                                Ÿ
                                    7212              Ÿ                                                                     Ÿ
                                                      ¾þþþþþþþþþþþþþþþþþþþþþþþþþþþþþþþþþþþþþþþþþþþþþþþþþþþþþþþþþþþþþþþþþþþþþ»
0000F4E 50E0 D000/9008_      00000  7213              SEGCOL   XPROC TRACE=NO
 USING  *,R7
 000F5E 186F                        7252                       LR    R6,R15
 USING  SEGCB,R6                    7253                       WITH  (SEGCB,R6),BEGIN
 000F60 0600                        7267  1                      DECR  R0                  Make rel to zero
 000F62 5900 6004/47D0_      00004  7269  1                      IF    (R0,GT,SEGCBMAXF),'L R0,SEGCBMAXF'
 000F6E 58F0 600C            0000C  7292  1                      L     R15,SEGCBLENF
 000F72 5BF0 6008            00008  7293  1                      S     R15,SEGCBMRKF       Length from previous mark
 000F76 1B0F/47D0 7036              7294  1                      IF    ('SR R0,R15',POS),BEGIN
 000F7C 5900 72AA/47D0_      01208  7307  2                        CEIL  R0,L'BLANKS
 000F88 4110 70A8/18F6_      01006  7326  2                        SEG   BLANKS,(R0),(R6)
 000F94                             7350  1                      END
 000F94 703A/47F0 704A_00F94 00F7A  7354  1                      ELSE  'SEG "  ",,(R6)'
 DROP   SEGCB,R6                    7385                       END
 000FA8 18D8/9808 D004_             7393                       PEND
 DROP   *,R7
                                    7413              ¿þþþþþþþþþþþþþþþþþþþþþþþþþþþþþþþþþþþþþþþþþþþþþþþþþþþþþþþþþþþþþþþþþþþþþÜ
                                    7414              Ÿ                                                                     Ÿ
                                    7415              Ÿ  SEGBLANK -- Routine to add blanks to the seg buffer.               Ÿ
                                    7416              Ÿ                                                                     Ÿ
                                    7417              Ÿ    On entry:                                                        Ÿ
                                    7418              Ÿ      R0  - no. of blanks to add                                     Ÿ
                                    7419              Ÿ      R15 - SEGCB ptr                                                Ÿ
                                    7420              Ÿ                                                                     Ÿ
                                                      ¾þþþþþþþþþþþþþþþþþþþþþþþþþþþþþþþþþþþþþþþþþþþþþþþþþþþþþþþþþþþþþþþþþþþþþ»
0000FB6 50E0 D000/9008_      00000  7421              SEGBLANK XPROC TRACE=NO
 USING  *,R7
 000FC6 186F                        7460                       LR    R6,R15
 USING  SEGCB,R6                    7461                       WITH  (SEGCB,R6)
 000FC8 1850                        7474                       LR    R5,R0
 000FCA 5950 7242/47D0_      01208  7475                       WHILE (R5,GT,L'BLANKS),BEGIN
 000FD2 4110 7040/4100_      01006  7494  1                      SEG   BLANKS,,(R6)
 000FE2 4B50 7252            01218  7519  1                      SH    R5,=AL2(L'BLANKS)
 000FE6 47F0 7004            00FCA  7520                       END
 000FEA 4110 7040/1805_      01006  7525                       SEG   BLANKS,(R5),(R6)
 000FF8 18D8/9808 D004_             7550                       PEND
 DROP   SEGCB,R6
 DROP   *,R7
                                    7575
 001006 4040404040404040            7576              BLANKS   DC    CL256' '
1CR       (CR2193) (12:41) (15MAR04) WYLBUR's SEG Routines                                                                  Page   33
0Loc    Object Code    Addr1 Addr2  Stmt Lv Lineno    Source Statement           (Hibal 5, Asmedit 3.3)  HLASM R4.0  2004/03/15 12.41
+___    ______ ____    _____ _____  ____ __ ______    ______ _________
0                                   7578              ¿þþþþþþþþþþþþþþþþþþþþþþþþþþþþþþþþþþþþþþþþþþþþþþþþþþþþþþþþþþþþþþþþþþþþþÜ
                                    7579              Ÿ                                                                     Ÿ
                                    7580              Ÿ  SEGCLR -- Routine to reset seg buffer.                             Ÿ
                                    7581              Ÿ                                                                     Ÿ
                                    7582              Ÿ    On entry:                                                        Ÿ
                                    7583              Ÿ      R15 - SEGCB ptr                                                Ÿ
                                    7584              Ÿ                                                                     Ÿ
                                                      ¾þþþþþþþþþþþþþþþþþþþþþþþþþþþþþþþþþþþþþþþþþþþþþþþþþþþþþþþþþþþþþþþþþþþþþ»
0001106 50E0 D000/9008_      00000  7585              SEGCLR   XPROC TRACE=NO
 USING  *,R7
 001116 186F                        7624                       LR    R6,R15
 USING  SEGCB,R6                    7625                       WITH  (SEGCB,R6),BEGIN
 001118 9203 6000      00000        7639  1                      SET   SEGCBCLR            Set function code for exit routine
                                    7645  1                      COMMENT                   If user seg routine, call it
 00111C D503 70CA 6024_011E0 00024  7646  1                      IF    (SEGCBRTN,NE,0),' LA  R14,SEGCBRTN; CALLRTNP @R14 '
 001130 D703 600C 600C_0000C 0000C  7674  1                      CLEAR SEGCBLENF,SEGCBMRKF
 DROP   SEGCB,R6                    7686                       END
 00113C 18D8/9808 D004_             7694                       PEND
 DROP   *,R7
-                                   7715              ¿þþþþþþþþþþþþþþþþþþþþþþþþþþþþþþþþþþþþþþþþþþþþþþþþþþþþþþþþþþþþþþþþþþþþþÜ
                                    7716              Ÿ                                                                     Ÿ
                                    7717              Ÿ  SEGMARK -- Routine to mark current location in seg buffer.         Ÿ
                                    7718              Ÿ                                                                     Ÿ
                                    7719              Ÿ    On entry:                                                        Ÿ
                                    7720              Ÿ      R15 - SEGCB ptr                                                Ÿ
                                    7721              Ÿ                                                                     Ÿ
                                                      ¾þþþþþþþþþþþþþþþþþþþþþþþþþþþþþþþþþþþþþþþþþþþþþþþþþþþþþþþþþþþþþþþþþþþþþ»
000114A 50E0 D000/9008_      00000  7722              SEGMARK  XPROC TRACE=NO
 USING  *,R7
 00115A D203 F008 F00C 00008 0000C  7761                       WITH  (SEGCB,R15),'MVC SEGCBMRKF,SEGCBLENF'
 USING  SEGCB,R15
 DROP   SEGCB,R15
 001160 18D8/9808 D004_             7785                       PEND
 DROP   *,R7
1CR       (CR2193) (12:41) (15MAR04) WYLBUR's SEG Routines                                                                  Page   34
0Loc    Object Code    Addr1 Addr2  Stmt Lv Lineno    Source Statement           (Hibal 5, Asmedit 3.3)  HLASM R4.0  2004/03/15 12.41
+___    ______ ____    _____ _____  ____ __ ______    ______ _________
0                                   7806              ¿þþþþþþþþþþþþþþþþþþþþþþþþþþþþþþþþþþþþþþþþþþþþþþþþþþþþþþþþþþþþþþþþþþþþþÜ
                                    7807              Ÿ                                                                     Ÿ
                                    7808              Ÿ  SEGDC -- Routine to add number in decimal to seg buffer.           Ÿ
                                    7809              Ÿ                                                                     Ÿ
                                    7810              Ÿ    On entry:                                                        Ÿ
                                    7811              Ÿ      R1 - number; R0 - length                                       Ÿ
                                    7812              Ÿ      R15 - SEGCB ptr                                                Ÿ
                                    7813              Ÿ                                                                     Ÿ
                                                      ¾þþþþþþþþþþþþþþþþþþþþþþþþþþþþþþþþþþþþþþþþþþþþþþþþþþþþþþþþþþþþþþþþþþþþþ»
000116E 50E0 D000/9008_      00000  7814              SEGDC    XPROC TRACE=NO
 USING  *,R7
 00117E 186F                        7853                       LR    R6,R15              Save segcb ptr
 001180 182D/41D0 D014              7854                       XPUSH ,,20,PTR=R2
 001186 18F1                        7857                       LR    R15,R1
 001188 1812/58E0 708E_             7858                       BTD   (R2),(R0),(R15)     Convert to printable format
 001190 18F6/58E0 707A_             7875                       SEG   (R1),(R0),(R6)
 001198 18D8/9808 D004_             7896                       PEND  ,
 DROP   *,R7
1CR       (CR2193) (12:41) (15MAR04) WYLBUR's SEG Routines                                                                  Page   35
0Loc    Object Code    Addr1 Addr2  Stmt Lv Lineno    Source Statement           (Hibal 5, Asmedit 3.3)  HLASM R4.0  2004/03/15 12.41
+___    ______ ____    _____ _____  ____ __ ______    ______ _________
0                                   7917              ¿þþþþþþþþþþþþþþþþþþþþþþþþþþþþþþþþþþþþþþþþþþþþþþþþþþþþþþþþþþþþþþþþþþþþþÜ
                                    7918              Ÿ                                                                     Ÿ
                                    7919              Ÿ  SEGHX -- Routine to add number in hex to seg buffer.               Ÿ
                                    7920              Ÿ                                                                     Ÿ
                                    7921              Ÿ    On entry:                                                        Ÿ
                                    7922              Ÿ      R1 - number; R0 - length                                       Ÿ
                                    7923              Ÿ      R15 - SEGCB ptr                                                Ÿ
                                    7924              Ÿ                                                                     Ÿ
                                                      ¾þþþþþþþþþþþþþþþþþþþþþþþþþþþþþþþþþþþþþþþþþþþþþþþþþþþþþþþþþþþþþþþþþþþþþ»
00011A6 50E0 D000/9008_      00000  7925              SEGHX    XPROC TRACE=NO
 USING  *,R7
 0011B6 186F                        7964                       LR    R6,R15              Save segcb ptr
 0011B8 182D/41D0 D014              7965                       XPUSH ,,20,PTR=R2
 0011BE 18F1                        7968                       LR    R15,R1
 0011C0 1812/58E0 705A_             7969                       BTX   (R2),(R0),(R15)     Convert to printable format
 0011C8 18F6/58E0 7042_             7986                       SEG   (R1),(R0),(R6)
 0011D0 18D8/9808 D004_             8007                       PEND  ,
 DROP   *,R7
-                                   8028
                                    8029                       QLTORG
 001220                01220 01220  8058                       END   .

1CR       (CR2193) (12:41) (15MAR04) Relocation Dictionary                                                                  Page   36
-   Pos.Id   Rel.Id   Flags    Address                                                       HLASM R4.0  2004/03/15 12.41
0  00000001 00000001    0C    0000073C
   00000001 00000001    0C    00000740
   00000001 00000001    0C    00000744
   00000001 00000001    0C    00000748
   00000001 00000001    0C    0000074C
   00000001 00000001    0C    00000750
   00000001 00000001    0C    00000754
   00000001 00000001    0C    00000AD4
   00000001 00000001    0C    00000AD8
   00000001 00000001    0C    00000AE8
   00000001 00000001    0C    00000B04
   00000001 00000001    0C    000011E8
   00000001 00000001    0C    000011F4
   00000001 00000001    0C    000011FC
   00000001 00000002    1C    00000ADC
   00000001 00000003    1C    000011F8
   00000001 00000004    1C    0000120C
   00000001 00000005    1C    00001210

1CR       (CR2193) (12:41) (15MAR04) Ordinary Symbol and Literal Cross Reference                                            Page   37
-Symbol   Length   Value     Id    R Type   Defn References                                  HLASM R4.0  2004/03/15 12.41
0$$$@R0        1 00000000 FFFFFFFE     J     705 2349
 $$$@R10       1 00000000 FFFFFFF4     J     835 2413
 $$$@R11       1 00000000 FFFFFFF3     J     848 2426
 $$$@R12       1 00000000 FFFFFFF2     J     861 2439
 $$$@R13       1 00000000 FFFFFFF1     J     874 2452
 $$$@R14       1 00000000 FFFFFFF0     J     887 2465
 $$$@R7        1 00000000 FFFFFFF7     J     796 2362
 $$$@R8        1 00000000 FFFFFFF6     J     809 2375  2387
 $$$@R9        1 00000000 FFFFFFF5     J     822 2400
 $$$C1WYLCR
               1 00000B60 00000001     J    5504 5506  5932
 $$$C2WYLCR
               1 0000121C 00000001     J    8053 8055
 $$$C3WYLCR
               1 00001220 00000001     J    8061 8063
 $$$D0WYLCR
               1 00000B47 00000001     J    2334 2880  3005  3136  3307
 $$$RDEC       1 00000000 FFFFFFE8     J    2559 2572  2572
 $$$RSEGCB
               1 00000000 FFFFFFE7     J    5831 5931  5931
 $$$RSTCKCVWA
               1 00000000 FFFFFFEA     J    2504 2519  2519
 $$$RWA        1 00000000 FFFFFFE9     J    2527 2552  2552
 $$$Z1         4 000011E0 00000001     F    8035 6384  6460  6591  6871  6983  7159  7658
 $$$1B         1 00000026 00000001     X    2617 2624U
 $$$10         1 000000AC 00000001 A   U    2917 2914  2916
 $$$100        1 00000050 00000001 A   U    5589 5586  5588
 $$$102B       1 00000B9C 00000001     X    5616 5623U
 $$$104F       2 00000BB4 00000001     H    5684 5666B
 $$$107F       2 00000C0E 00000001     H    5795 5728B
 $$$107S       2 00000BD2 00000001     H    5722 5794B
 $$$109F       2 00000C00 00000001     H    5785 5742B
 $$$110F       2 00000C00 00000001     H    5781 5758B 5768B
 $$$112        1 00000050 00000001 A   U    5825 5822  5824
 $$$12B        1 0000015E 00000001     X    2961 2968U
 $$$122B       1 00000C3E 00000001     X    5975 5982U
 $$$123        1 00000050 00000001 A   U    6039 6036  6038
 $$$125B       1 00000C6A 00000001     X    6067 6074U
 $$$126        1 00000050 00000001 A   U    6124 6121  6123
 $$$128B       1 00000C90 00000001     X    6156 6163U
 $$$129        1 00000050 00000001 A   U    6209 6206  6208
 $$$13         6 00000B4E 00000001     I    3011 3003X
 $$$131B       1 00000CC6 00000001     X    6241 6248U
 $$$132        1 00000050 00000001 A   U    6294 6291  6293
 $$$134B       1 00000CFC 00000001     X    6326 6333U
 $$$135B       4 00000D18 00000001     I    6385 6401
 $$$135F       2 00000D26 00000001     H    6398 6385B 6400
 $$$136E       2 00000D2A 00000001     H    6408 6402
 $$$136F       2 00000D3C 00000001     H    6432 6404B
 $$$137F       2 00000D5E 00000001     H    6475 6461B
 $$$138        1 00000050 00000001 A   U    6503 6500  6502
 $$$14         6 00000B4E 00000001     I    3010 3011  3011
 $$$140B       1 00000D7E 00000001     X    6535 6542U
 $$$141B       4 00000D9A 00000001     I    6592 6610
 $$$141F       2 00000DB4 00000001     H    6607 6592B 6609
1CR       (CR2193) (12:41) (15MAR04) Ordinary Symbol and Literal Cross Reference                                            Page   38
 $$$142E       2 00000DB8 00000001     H    6617 6611
 $$$142F       2 00000DBA 00000001     H    6627 6613B
 $$$143        1 00000050 00000001 A   U    6654 6651  6653
 $$$145B       1 00000DD8 00000001     X    6694 6701U
 $$$146F       2 00000E04 00000001     H    6784 6729B
 $$$147F       2 00000DFE 00000001     H    6778 6753B 6766B
 $$$147S       2 00000DEA 00000001     H    6744 6777B
 $$$15         1 000000AC 00000001 A   U    3042 3039  3041
 $$$150        1 00000050 00000001 A   U    6807 6804  6806
 $$$152B       1 00000E2A 00000001     X    6834 6841U
 $$$153F       2 00000E44 00000001     H    6886 6872B
 $$$155F       2 00000F10 00000001     H    7130 6936B
 $$$156F       2 00000E80 00000001     H    6968 6958B
 $$$157F       2 00000E96 00000001     H    6998 6984B
 $$$158F       2 00000EF0 00000001     H    7099 7008B
 $$$159F       2 00000ECC 00000001     H    7066 7034B 7053B
 $$$161F       2 00000EE2 00000001     H    7090 7079B
 $$$163F       2 00000F3E 00000001     H    7174 7160B
 $$$164        1 00000050 00000001 A   U    7201 7198  7200
 $$$166B       1 00000F5E 00000001     X    7236 7243U
 $$$167F       2 00000F6E 00000001     H    7291 7281B
 $$$168B       4 00000F78 00000001     I    7302 7356
 $$$168F       2 00000F94 00000001     H    7353 7302B 7355
 $$$169F       2 00000F88 00000001     H    7325 7316B
 $$$17B        1 000001C4 00000001     X    3075 3082U
 $$$170E       2 00000F98 00000001     H    7363 7357
 $$$170F       2 00000FA8 00000001     H    7384 7359B
 $$$171        1 00000050 00000001 A   U    7410 7407  7409
 $$$173B       1 00000FC6 00000001     X    7444 7451U
 $$$174F       2 00000FEA 00000001     H    7524 7489B
 $$$174S       2 00000FCA 00000001     H    7480 7523B
 $$$176        1 00000050 00000001 A   U    7572 7569  7571
 $$$178B       1 00001116 00000001     X    7608 7615U
 $$$179F       2 00001130 00000001     H    7673 7659B
 $$$18F        2 000001FE 00000001     H    3128 3110B
 $$$180        1 00000050 00000001 A   U    7711 7708  7710
 $$$182B       1 0000115A 00000001     X    7745 7752U
 $$$183        1 00000050 00000001 A   U    7802 7799  7801
 $$$185B       1 0000117E 00000001     X    7837 7844U
 $$$186        1 00000050 00000001 A   U    7913 7910  7912
 $$$188B       1 000011B6 00000001     X    7948 7955U
 $$$189        1 00000050 00000001 A   U    8024 8021  8023
 $$$19         6 00000B54 00000001     I    3142 3134X
 $$$2          1 00000050 00000001 A   U    2678 2675  2677
 $$$20         6 00000B54 00000001     I    3141 3142  3142
 $$$21         1 000000AC 00000001 A   U    3173 3170  3172
 $$$23B        1 0000022C 00000001     X    3205 3212U
 $$$24F        2 00000266 00000001     H    3264 3252B
 $$$25B        4 0000026A 00000001     I    3272 3285
 $$$25F        2 00000274 00000001     H    3282 3272B 3284
 $$$26E        2 00000278 00000001     H    3292 3286
 $$$26F        2 0000027E 00000001     H    3299 3288B
 $$$27         6 00000B5A 00000001     I    3313 3305X
 $$$28         6 00000B5A 00000001     I    3312 3313  3313
 $$$29         1 000000AC 00000001 A   U    3345 3342  3344
 $$$31B        1 000002C2 00000001     X    3408 3415U
 $$$32F        2 000002EC 00000001     H    3489 3479B
 $$$33         1 00000050 00000001 A   U    3518 3515  3517
 $$$35B        1 00000310 00000001     X    3559 3566U
1CR       (CR2193) (12:41) (15MAR04) Ordinary Symbol and Literal Cross Reference                                            Page   39
 $$$36F        2 00000360 00000001     H    3637 3627B
 $$$37F        2 00000398 00000001     H    3726 3713B
 $$$37T        2 00000396 00000001     H    3716 3701B
 $$$39F        2 00000424 00000001     H    3920 3759B 3773B
 $$$4B         1 00000078 00000001     X    2720 2727U
 $$$41F        2 00000424 00000001     H    3916 3810B
 $$$41T        2 000003E2 00000001     H    3813 3798B
 $$$43F        2 000003FA 00000001     H    3840 3830B
 $$$44F        2 00000424 00000001     H    3912 3889B 3903B
 $$$44T        2 0000041E 00000001     H    3906 3875B
 $$$45F        2 0000040E 00000001     H    3878 3859B
 $$$48         1 000000AC 00000001 A   U    3962 3959  3961
 $$$5          1 00000050 00000001 A   U    2789 2786  2788
 $$$50B        1 00000474 00000001     X    4004 4011U
 $$$51         1 000000AC 00000001 A   U    4095 4092  4094
 $$$53B        1 000004D4 00000001     X    4137 4144U
 $$$54         1 0000000C 00000001 A   U    4188 5501
 $$$55B        4 00000522 00000001     I    4215 4243
 $$$55F        2 0000052C 00000001     H    4240 4215B 4242
 $$$56E        2 00000530 00000001     H    4250 4244
 $$$56F        2 00000536 00000001     H    4272 4246B
 $$$57         1 000000AC 00000001 A   U    4297 4294  4296
 $$$59B        1 00000558 00000001     X    4337 4344U
 $$$60F        2 000005D2 00000001     H    4412 4401B
 $$$61         1 00000088 00000001 A   U    4455 4452  4454
 $$$63B        1 000005FA 00000001     X    4495 4502U
 $$$64F        2 00000672 00000001     H    4571 4560B
 $$$65         1 00000088 00000001 A   U    4614 4611  4613
 $$$67B        1 0000069A 00000001     X    4652 4659U
 $$$68B        4 000006B2 00000001     I    4691 4705
 $$$68F        2 000006BA 00000001     H    4701 4691B 4704
 $$$69B        4 000006C2 00000001     I    4723 4737
 $$$69E        2 000006BE 00000001     H    4712 4706
 $$$69F        2 000006CA 00000001     H    4733 4708B 4723B 4736
 $$$7B         1 000000E2 00000001     X    2827 2834U
 $$$71B        4 000006D2 00000001     I    4755 4769
 $$$71E        2 000006CE 00000001     H    4744 4738
 $$$71F        2 000006DA 00000001     H    4765 4740B 4755B 4768
 $$$73B        4 000006E2 00000001     I    4787 4801
 $$$73E        2 000006DE 00000001     H    4776 4770
 $$$73F        2 000006EA 00000001     H    4797 4772B 4787B 4800
 $$$75B        4 000006F2 00000001     I    4819 4833
 $$$75E        2 000006EE 00000001     H    4808 4802
 $$$75F        2 000006FA 00000001     H    4829 4804B 4819B 4832
 $$$77B        4 00000702 00000001     I    4851 4865
 $$$77E        2 000006FE 00000001     H    4840 4834
 $$$77F        2 0000070A 00000001     H    4861 4836B 4851B 4864
 $$$79E        2 0000070E 00000001     H    4872 4866
 $$$79F        2 0000071A 00000001     H    4893 4868B 4883B
 $$$8          6 00000B48 00000001     I    2886 2878X
 $$$81         1 00000050 00000001 A   U    4921 4918  4920
 $$$83B        1 000007AE 00000001     X    4969 4976U
 $$$84F        2 00000822 00000001     H    5042 5031B
 $$$85         1 00000088 00000001 A   U    5084 5081  5083
 $$$87B        1 0000084A 00000001     X    5124 5131U
 $$$88B        4 000008A4 00000001     I    5186 5241
 $$$88F        2 000008D4 00000001     H    5237 5186B 5240
 $$$89B        4 000008C0 00000001     I    5207 5219
 $$$89F        2 000008C8 00000001     H    5216 5207B 5218
1CR       (CR2193) (12:41) (15MAR04) Ordinary Symbol and Literal Cross Reference                                            Page   40
 $$$9          6 00000B48 00000001     I    2885 2886  2886
 $$$90E        2 000008CC 00000001     H    5226 5220
 $$$90F        2 000008D0 00000001     H    5232 5222B
 $$$91E        2 000008D8 00000001     H    5248 5242
 $$$91F        2 000008DC 00000001     H    5259 5244B
 $$$92         1 00000088 00000001 A   U    5284 5281  5283
 $$$94B        1 000008FE 00000001     X    5325 5332U
 $$$95B        4 00000970 00000001     I    5396 5408
 $$$95F        2 00000978 00000001     H    5405 5396B 5407
 $$$96E        2 0000097C 00000001     H    5415 5409
 $$$96F        2 00000980 00000001     H    5426 5411B
 $$$97         1 000000AC 00000001 A   U    5456 5453  5455
 $$$99B        1 00000B70 00000001     X    5549 5556U
 @R0           0 00000000 FFFFFFFE     @     706  982U
 @R1           0 00000000 FFFFFFFD     @     719  978U 2639  2641  2648  2653  2747  2749  2751  2756  2758  2763  2863M
                                                 2885M 3010M 3141M 3260M 3312  3600  3615  3639  3730  4175  4184  4670
                                                 4899  4900  5565  5665  5678  5699  5714  6734
 @R10          0 00000000 FFFFFFF4     @     836  942U
 @R11          0 00000000 FFFFFFF3     @     849  938U
 @R12          0 00000000 FFFFFFF2     @     862  934U
 @R13          0 00000000 FFFFFFF1     @     875  930U 3424M 3425
 @R14          0 00000000 FFFFFFF0     @     888  926U 6393  6470  6600  6881  6993  7169  7668
 @R15          0 00000000 FFFFFFEF     @     901  922U 5733M 5741  5787  6020U 6105U 7783U
 @R2           0 00000000 FFFFFFFC     @     732  974U 2649U 2748U 2885  3010  3117  3118  3121  3141  3449U 3497U 3651
                                                 4901  5699  6765  6780
 @R3           0 00000000 FFFFFFFB     @     745  970U 3122  3240  7085
 @R4           0 00000000 FFFFFFFA     @     758  966U 5741
 @R5           0 00000000 FFFFFFF9     @     771  962U 3312M
 @R6           0 00000000 FFFFFFF8     @     784  958U 3356U 3600M 3601M 3602M 3604M 3615M 3626  3633M 3639M 3730M 3736
                                                 3744M 3778M 3908M 4030M 4040  4046M 4049  4052M 4163M 4175M 4184M 4365M
                                                 4523M 4567M 5733  5767  5767  5773  5788  6482U 6634U 7181U 7391U 7556U
                                                 7692U
 @R7           0 00000000 FFFFFFF7     @     797  954U 2667U 2778U 2906U 3031U 3162U 3334U 3507U 3951U 4084U 4286U 4444U
                                                 4603U 4910U 5073U 5273U 5445U 5578U 5814U 6028U 6113U 6198U 6283U 6492U
                                                 6643U 6796U 7190U 7399U 7561U 7700U 7791U 7902U 8013U
 @R8           0 00000000 FFFFFFF6     @     810  950U 2901U 3026U 3157U 3329U 3946U 4079U 4281U 4439U 4598U 5068U 5268U
                                                 5440U
 @R9           0 00000000 FFFFFFF5     @     823  946U
 AHLHEAD       1 00000000 00000000 A   T    1403 1403
 AHLVCCR8      1 00000000 00000000 A   T    1894 1894
 ASMVT         1 00000000 00000000 A   T    1783 1783
 BLANKS      256 00001006 00000001     C    7576 4030  4036  4163  4365  4523  4995  7335  7503  7508  7534  8045  8050
 BTD           2 000000D2 00000001     H    2807 2803
 BTD           1 00000000 00000004     T    8046 8046
 BTDZEROS      2 0000014E 00000001     H    2941 2937
 BTR           2 0000021C 00000001     H    3185 3181
 BTREDMSK     24 0000029A 00000001     C    3349 3237
 BTX           2 000001B4 00000001     H    3055 3051
 BTX           1 00000000 00000005     T    8047 8047
 BTXC          4 00000206 00000001     I    3134 3124B
 BTXCHK0       4 000001E2 00000001     I    3117 3120B
 BTXX          4 000001F6 00000001     I    3122 3119B
 CBBRANCH      1 00000000 00000000 A   T    1939 1939
 CRBRANCH      1 00000000 00000000 A   T    1680 1680
 CR2193        1 00000000 00000001     R    2479 2477
 CSRTABLE      1 00000000 00000000 A   T    1700 1700
 CSVARMGR      1 00000000 00000000 A   T    1748 1748
 CSVEXIT       1 00000000 00000000 A   T    1621 1621
 CSVLLCB       1 00000000 00000000 A   T    1221 1221
1CR       (CR2193) (12:41) (15MAR04) Ordinary Symbol and Literal Cross Reference                                            Page   41
 CSVLLTRM      1 00000000 00000000 A   T    1222 1222
 CSVMEM        1 00000000 00000000 A   T    1449 1449
 CSVVFGET      1 00000000 00000000 A   T    2013 2013
 CSVVFIND      1 00000000 00000000 A   T    2011 2011
 CVT           1 00000000 FFFFFFEE     J    1191 3436U
 CVTBRET       2 00000052 FFFFFFEE     H    1246 1759  1838
 CVTEXT2       4 00000148 FFFFFFEE     A    1485 3442
 CVTLDTO       8 00000038 FFFFFFEB     D    2310 3478  3490
 CVTLSO        8 00000050 FFFFFFEB     D    2319 3466  3469
 CVTPTR        1 00000010 FFFFFFFF A   U    1187 3426
 CVTVSTGX      1 00000000 FFFFFFED     J    2211 2075
 CVTXTNT1      1 00000000 FFFFFFEC     J    2250 1418
 CVTXTNT2      1 00000000 FFFFFFEB     J    2258 1488  3460U
 CVT4MS1       1 00000010 FFFFFFEE A   U    1271 1279
 CVT6DAT       1 00000002 FFFFFFEE A   U    1275 1279
 DATE          2 000008EE 00000001     H    5305 5301
 DAYFRI        1 0000078A 00000001     R    4931 4857  4925
 DAYMON        1 00000762 00000001     R    4927 4729  4925
 DAYSAT        1 00000794 00000001     R    4932 4889  4925
 DAYSUN        1 00000758 00000001     R    4926 4697  4925
 DAYTHU        1 00000780 00000001     R    4930 4825  4925
 DAYTUE        1 0000076C 00000001     R    4928 4761  4925
 DAYWED        1 00000776 00000001     R    4929 4793  4925
 DEC           8 00000000 FFFFFFE8     J    2572 2490U 2854M 2858  2988M 2992  3234M 3242
 DEQSTR        2 00000B8C 00000001     H    5598 5594  8037
 DEQUOTE       2 00000B60 00000001     H    5531 5527
 DFAIDTAB      1 00000000 00000000 A   T    2088 2088
 DQBAD         2 00000C14 00000001     H    5800 5646B 5681B 5702B
 DQEXIT        2 00000C1C 00000001     H    5805 5797B 5802B
 DTB           2 00000016 00000001     H    2599 2595
 DTB           1 00000000 00000002     T    5481 5481
 DTBL          2 00000028 00000001     I    2637 2656B
 DTBX          2 00000058 00000001     H    2658 2638B 2640B 2642B
 DW            4 00000024 FFFFFFE9     F    2536 2852  2986  3231  5384  5401
 EDZ15         1 000001A4 00000001     C    3046 2989
 ED15          1 0000013E 00000001     C    2921 2855
 FMBRANCH      1 00000000 00000000 A   T    1864 1864
 FMTCLCK       2 00000464 00000001     H    3984 3980
 FMTDATE       2 000005EA 00000001     H    4475 4471  5480
 FMTDAY        2 0000068A 00000001     H    4634 4630  5479
 FMTJUL        2 0000079E 00000001     H    4949 4051B
 FMTRCLCK      2 000004C4 00000001     H    4117 4113
 FMTTIME       2 00000548 00000001     H    4317 4035B 4313  5484
 FMTXDATE      2 00000300 00000001     H    3539 3535
 FMTXMON      39 0000043C 00000001     C    3966 3729
 FSR           0 00000000 00000001 A   #    2343 2608  2660M 2675M 2711  2771M 2786M 2817  2894M 2914M 2951  3019M 3039M
                                                 3065  3150M 3170M 3195  3322M 3342M 3399  3500M 3515M 3549  3939M 3959M
                                                 3994  4072M 4092M 4127  4274M 4294M 4327  4432M 4452M 4485  4591M 4611M
                                                 4643  4903M 4918M 4959  5061M 5081M 5114  5261M 5281M 5315  5433M 5453M
                                                 5540  5571M 5586M 5607  5807M 5822M 5966  6036M 6058  6121M 6147  6206M
                                                 6232  6291M 6317  6500M 6526  6651M 6685  6804M 6825  7198M 7227  7407M
                                                 7435  7569M 7599  7708M 7736  7799M 7828  7910M 7939  8021M
 GLBRANCH      1 00000000 00000000 A   T    1770 1770
 GMBRANCH      1 00000000 00000000 A   T    1866 1866
 GVT           1 00000000 00000000 A   T    1632 1632
 HEXS         16 00000030 FFFFFFE9     C    2538 2855M 2857  2858M 2864  2872  2989M 2991  2992M 2993  2997  3101M 3102M
                                                 3115  3129  3610  5357M 5357  5358M 5359M 5368
 HEXTBL       16 00000AAC 00000001     C    5465 3102
 HEXW          4 0000002C FFFFFFE9     F    2537 3100M 3101
1CR       (CR2193) (12:41) (15MAR04) Ordinary Symbol and Literal Cross Reference                                            Page   42
 HIBAL         1 00000000 FFFFFFFF     J     691  707   720   733   746   759   772   785   798   811   824   837   850
                                                  863   876   889   902  2329
 IARMPVT       1 00000000 00000000 A   T    1507 1507
 IARMRRCE      1 00000000 00000000 A   T    2052 2052
 IARPIBR       1 00000000 00000000 A   T    2022 2022
 IARPSIV       1 00000000 00000000 A   T    1846 1846
 IARPSXM       1 00000000 00000000 A   T    1995 1995
 IARXKEY       1 00000000 00000000 A   T    1953 1953
 IARXVIO       1 00000000 00000000 A   T    1847 1847
 ICYMMVTC      1 00000000 00000000 A   T    2278 2278
 IDA121CV      1 00000000 00000000 A   T    1785 1785
 IEABEND       1 00000000 00000000 A   T    1369 1369
 IEADQIQE      1 00000000 00000000 A   T    1765 1765
 IEAECVT       1 00000000 00000000 A   T    1294 1294
 IEAGSMQ       1 00000000 00000000 A   T    1742 1742
 IEAIHASU      1 00000000 00000000 A   T    1982 1982
 IEALSMQ       1 00000000 00000000 A   T    1744 1744
 IEAMASCB      1 00000000 00000000 A   T    1712 1712  1716
 IEAPATCH      1 00000000 00000000 A   T    1377 1377
 IEAPDSRT      1 00000000 00000000 A   T    1640 1640
 IEAPTRV       1 00000000 00000000 A   T    1456 1456
 IEAQCDSR      1 00000000 00000000 A   T    1360 1360
 IEAQCS01      1 00000000 00000000 A   T    1752 1752
 IEAQLPAQ      1 00000000 00000000 A   T    1361 1361
 IEAQTD00      1 00000000 00000000 A   T    1257 1257
 IEAQTE00      1 00000000 00000000 A   T    1255 1255
 IEARPOST      1 00000000 00000000 A   T    1767 1767
 IEASMFEX      1 00000000 00000000 A   T    1644 1644
 IEASMFSP      1 00000000 00000000 A   T    1990 1990
 IEASPOST      1 00000000 00000000 A   T    1787 1787
 IEASVDCB      1 00000000 00000000 A   T    1248 1248
 IEATCBP       1 00000000 00000000 A   T    1198 1198
 IEATPC        1 00000000 00000000 A   T    1250 1250
 IEATRSCN      1 00000000 00000000 A   T    1608 1608
 IEAVAR02      1 00000000 00000000 A   T    1692 1692
 IEAVBLDP      1 00000000 00000000 A   T    1676 1676
 IEAVDELP      1 00000000 00000000 A   T    1679 1679
 IEAVEAC0      1 00000000 00000000 A   T    1769 1769
 IEAVEADV      1 00000000 00000000 A   T    1927 1927
 IEAVEDR1      1 00000000 00000000 A   T    1812 1812
 IEAVELRM      1 00000000 00000000 A   T    1761 1761
 IEAVENLU      1 00000000 00000000 A   T    2108 2108
 IEAVENQ2      1 00000000 00000000 A   T    1758 1758
 IEAVEQV1      1 00000000 00000000 A   T    1915 1915
 IEAVEQV2      1 00000000 00000000 A   T    1918 1918
 IEAVEQV3      1 00000000 00000000 A   T    1921 1921
 IEAVERI1      1 00000000 00000000 A   T    1814 1814
 IEAVERP1      1 00000000 00000000 A   T    1816 1816
 IEAVERX1      1 00000000 00000000 A   T    2004 2004
 IEAVESC1      1 00000000 00000000 A   T    1943 1943
 IEAVESPR      1 00000000 00000000 A   T    1872 1872
 IEAVESTU      1 00000000 00000000 A   T    2106 2106
 IEAVESVT      1 00000000 00000000 A   T    1878 1878
 IEAVET6E      1 00000000 00000000 A   T    1978 1978
 IEAVEVT2      1 00000000 00000000 A   T    1932 1932
 IEAVEXPR      1 00000000 00000000 A   T    1740 1740
 IEAVEXP1      1 00000000 00000000 A   T    1909 1909
 IEAVFRCL      1 00000000 00000000 A   T    1678 1678
 IEAVGSDA      1 00000000 00000000 A   T    1923 1923
1CR       (CR2193) (12:41) (15MAR04) Ordinary Symbol and Literal Cross Reference                                            Page   43
 IEAVGTCL      1 00000000 00000000 A   T    1677 1677
 IEAVGWSA      1 00000000 00000000 A   T    1772 1772
 IEAVLKRM      1 00000000 00000000 A   T    1479 1479
 IEAVMFRM      1 00000000 00000000 A   T    1857 1857
 IEAVMSGS      1 00000000 00000000 A   T    1426 1426
 IEAVNVT0      1 00000000 00000000 A   T    2091 2091
 IEAVRSUH      1 00000000 00000000 A   T    1970 1970
 IEAVRT03      1 00000000 00000000 A   T    1584 1584
 IEAVSPND      1 00000000 00000000 A   T    1980 1980
 IEAVSTAG      1 00000000 00000000 A   T    1720 1720
 IEAVTCTL      1 00000000 00000000 A   T    1972 1972
 IEAVTEST      1 00000000 00000000 A   T    1483 1483
 IEAVTRGR      1 00000000 00000000 A   T    1780 1780
 IEAVTRG1      1 00000000 00000000 A   T    1229 1229
 IEAVTRV3      1 00000000 00000000 A   T    1476 1476
 IEAVTSBP      1 00000000 00000000 A   T    1726 1726
 IEAVTSFR      1 00000000 00000000 A   T    1447 1447
 IEAVTSGL      1 00000000 00000000 A   T    1724 1724
 IEAVVMSR      1 00000000 00000000 A   T    1505 1505
 IEAVWAIT      1 00000000 00000000 A   T    1747 1747
 IEAVWSAC      1 00000000 00000000 A   T    1778 1778
 IEAVWSAG      1 00000000 00000000 A   T    1776 1776
 IEAVWSAL      1 00000000 00000000 A   T    1774 1774
 IEAVXEXT      1 00000000 00000000 A   T    1855 1855
 IEAVXSFT      1 00000000 00000000 A   T    1822 1822
 IEAVXSTN      1 00000000 00000000 A   T    1828 1828
 IEAVXSTS      1 00000000 00000000 A   T    1826 1826
 IEAVXUNN      1 00000000 00000000 A   T    1851 1851
 IEAVXUNS      1 00000000 00000000 A   T    1830 1830
 IEAWTCB       1 00000000 00000000 A   T    1887 1887
 IEA0DS        1 00000000 00000000 A   T    1293 1293
 IEA0EF00      1 00000000 00000000 A   T    1199 1199
 IEA0EF01      1 00000000 00000000 A   T    1239 1239
 IEA0PT0E      1 00000000 00000000 A   T    1959 1959
 IEA0PT01      1 00000000 00000000 A   T    1300 1300
 IEA0PT02      1 00000000 00000000 A   T    1884 1884
 IEA0PT03      1 00000000 00000000 A   T    1961 1961
 IEA0VL00      1 00000000 00000000 A   T    1210 1210
 IEA0VL01      1 00000000 00000000 A   T    1617 1617
 IECIXAVL      1 00000000 00000000 A   T    1285 1285
 IECPCNVT      1 00000000 00000000 A   T    1213 1213
 IECPRLTV      1 00000000 00000000 A   T    1217 1217
 IECVEXCL      1 00000000 00000000 A   T    1849 1849
 IECXAPG       1 00000000 00000000 A   T    1208 1208
 IECXITP       1 00000000 00000000 A   T    1238 1238
 IECXTLER      1 00000000 00000000 A   T    1224 1224
 IEC0SCR1      1 00000000 00000000 A   T    1383 1383
 IEECUCB       1 00000000 00000000 A   T    1254 1254
 IEEMSER       1 00000000 00000000 A   T    1232 1232  1298
 IEEVEXSN      1 00000000 00000000 A   T    1587 1587
 IEEVSTOP      1 00000000 00000000 A   T    1897 1897
 IEFAQTOP      1 00000000 00000000 A   T    1704 1704
 IEFAUSDM      1 00000000 00000000 A   T    1204 1204
 IEFENFDM      1 00000000 00000000 A   T    1363 1363
 IEFJESCT      1 00000000 00000000 A   T    1463 1463
 IEFLINK       1 00000000 00000000 A   T    1201 1201
 IEFQMWR       1 00000000 00000000 A   T    1314 1314
 IEWFBOSV      1 00000000 00000000 A   T    1291 1291
 IEWMSEPT      1 00000000 00000000 A   T    1796 1796
1CR       (CR2193) (12:41) (15MAR04) Ordinary Symbol and Literal Cross Reference                                            Page   44
 IFBDCB        1 00000000 00000000 A   T    1280 1280
 IFDOLT0A      1 00000000 00000000 A   T    1642 1642
 IFGDEBVR      1 00000000 00000000 A   T    2273 2273
 IGC043BR      1 00000000 00000000 A   T    1688 1688
 IGC044R2      1 00000000 00000000 A   T    1798 1798
 IGC062R1      1 00000000 00000000 A   T    1768 1768
 IGC07903      1 00000000 00000000 A   T    1913 1913
 IGC124        1 00000000 00000000 A   T    1929 1929
 IGFRVT        1 00000000 00000000 A   T    1378 1378
 IGVCPBDB      1 00000000 00000000 A   T    2044 2044
 IGVCPDLB      1 00000000 00000000 A   T    2046 2046
 IGVCPFRE      1 00000000 00000000 A   T    2036 2036
 IGVCPGTC      1 00000000 00000000 A   T    2034 2034
 IGVCPGUB      1 00000000 00000000 A   T    2028 2028
 IGVCPGUP      1 00000000 00000000 A   T    2031 2031
 IGVCPGUS      1 00000000 00000000 A   T    2054 2054
 IGVGCAS       1 00000000 00000000 A   T    1682 1682
 IGVGFAS       1 00000000 00000000 A   T    1686 1686
 IGVGRRGN      1 00000000 00000000 A   T    2058 2058
 IGVGVRGN      1 00000000 00000000 A   T    2060 2060
 IGVQSPET      1 00000000 00000000 A   T    1684 1684
 IGVSLIST      1 00000000 00000000 A   T    2038 2038
 IGVSLOC       1 00000000 00000000 A   T    2042 2042
 IGVSREGN      1 00000000 00000000 A   T    2040 2040
 IGVSTSKI      1 00000000 00000000 A   T    2025 2025
 IHB1215A      2 0000059C 00000001     H    4382 4374B
 IHB1215K      4 00000580 00000001     F    4375 4370
 IHB1293A      2 0000063C 00000001     H    4541 4533B
 IHB1293K      4 00000620 00000001     F    4534 4529
 IHB1546A      2 000007EC 00000001     H    5013 5005B
 IHB1546K      4 000007D0 00000001     F    5006 5001
 IHB1624A      2 00000884 00000001     H    5167 5159B
 IHB1624K      4 00000868 00000001     F    5160 5155
 IHB1721A      2 00000954 00000001     H    5379 5370B
 IHB1721K      4 00000934 00000001     F    5371 5364
 ILRJTERM      1 00000000 00000000 A   T    1967 1967
 IOSVDEVN      1 00000000 00000000 A   T    1984 1984
 IOSVHID       1 00000000 00000000 A   T    1994 1994
 IOSVSUCB      1 00000000 00000000 A   T    1997 1997
 IRARMCNS      1 00000000 00000000 A   T    1738 1738
 IRARMEPS      1 00000000 00000000 A   T    1956 1956
 IRARMI00      1 00000000 00000000 A   T    1695 1695
 ISNBRNCH      1 00000000 00000000 A   T    1853 1853
 LOCALTOD      2 000002B2 00000001     H    3390 3386
 LSR           8 00000008 00000001 A   #    2381 2608  2675M 2711  2786M 2817  2914M 2951  3039M 3065  3170M 3195  3342M
                                                 3399  3515M 3549  3959M 3994  4092M 4127  4294M 4327  4452M 4485  4611M
                                                 4643  4918M 4959  5081M 5114  5281M 5315  5453M 5540  5586M 5607  5822M
                                                 5966  6036M 6058  6121M 6147  6206M 6232  6291M 6317  6500M 6526  6651M
                                                 6685  6804M 6825  7198M 7227  7407M 7435  7569M 7599  7708M 7736  7799M
                                                 7828  7910M 7939  8021M
 RAR          14 0000000E 00000001 A   #    2459 2605  2677M 2679B 2708  2788M 2790B 2814  2916M 2919B 2948  3041M 3044B
                                                 3062  3172M 3175B 3192  3344M 3347B 3396  3517M 3519B 3546  3597M 3598M
                                                 3598B 3613M 3614M 3614B 3661M 3662M 3662B 3683M 3684M 3684B 3739M 3740M
                                                 3740B 3961M 3964B 3991  4035M 4043M 4044M 4044B 4051M 4094M 4097B 4124
                                                 4173M 4174M 4174B 4182M 4183M 4183B 4194M 4195M 4195B 4202M 4203M 4203B
                                                 4296M 4299B 4324  4454M 4457B 4482  4613M 4616B 4640  4920M 4923B 4956
                                                 5083M 5086B 5111  5283M 5286B 5312  5430M 5431M 5431B 5455M 5458B 5537
                                                 5568M 5569M 5569B 5588M 5591B 5604  5824M 5827B 5963  6038M 6041B 6055
                                                 6123M 6126B 6144  6175M 6176M 6176B 6190M 6191M 6191B 6208M 6211B 6229
1CR       (CR2193) (12:41) (15MAR04) Ordinary Symbol and Literal Cross Reference                                            Page   45
                                                 6260M 6261M 6261B 6275M 6276M 6276B 6293M 6296B 6314  6345M 6346M 6346B
                                                 6423M 6424M 6424B 6502M 6505B 6523  6554M 6555M 6555B 6653M 6656B 6682
                                                 6788M 6789M 6789B 6806M 6809B 6822  7200M 7203B 7224  7348M 7349M 7349B
                                                 7379M 7380M 7380B 7409M 7412B 7432  7517M 7518M 7518B 7548M 7549M 7549B
                                                 7571M 7574B 7596  7710M 7713B 7733  7801M 7804B 7825  7873M 7874M 7874B
                                                 7894M 7895M 7895B 7912M 7915B 7936  7984M 7985M 7985B 8005M 8006M 8006B
                                                 8023M 8026B
 REDITWA      17 00000048 FFFFFFE9     C    2544 3238  3240M 3241M 3242M 3277  3277  3294  3294
 RMBRANCH      1 00000000 00000000 A   T    1863 1863
 R0            0 00000000 FFFFFFFF A   #     699 2637M 2637  2655M 2660  2660M 2740M 2740  2765M 2771  2771M 2867M 2867
                                                 2869M 2869  2870M 2871  2894  2894M 2996  3019  3019M 3103  3122M 3150
                                                 3150M 3236  3265M 3277M 3278M 3295  3300  3322  3322M 3425M 3466M 3468M
                                                 3469M 3478M 3485M 3490M 3500  3500M 3590  3608M 3658M 3680M 3734M 3817M
                                                 3836M 3841M 3842M 3858  3888  3937M 3939  3939M 4032  4038M 4047M 4069M
                                                 4072  4072M 4165  4178M 4190M 4198M 4236M 4268M 4274  4274M 4362  4429M
                                                 4432  4432M 4520  4588M 4591  4591M 4668M 4669M 4899M 4903  4903M 5059M
                                                 5061  5061M 5149  5191M 5253M 5253  5261  5261M 5359  5401M 5420M 5420
                                                 5433  5433M 5571  5571M 5643  5689  5710M 5712M 5716  5777M 5796  5807
                                                 5807M 6012  6097  6181M 6266M 6369M 6414M 6446M 6446  6485  6577M 6728M
                                                 6728  6736  6780M 6900M 6900  6912  6914M 6916  6923M 6935  6950M 6951M
                                                 6951  6964M 7007M 7007  7020M 7020  7060M 7067  7085M 7092M 7093M 7094M
                                                 7100M 7101M 7113  7123M 7124  7126M 7132  7133M 7134M 7136M 7145M 7183
                                                 7268M 7280  7287M 7301M 7309  7321M 7370M 7474  7508M 7539M
 R1            1 00000001 FFFFFFFF A   #     712 2653M 2660  2763M 2771  2857M 2862M 2865  2866M 2894  2990  2991M 2994
                                                 2995M 3019  3150  3233  3238M 3239M 3259M 3278  3294M 3295M 3320M 3322
                                                 3425M 3500  3591  3609M 3641  3651M 3673M 3729M 3735M 3815M 3841  3930M
                                                 3939  4033  4039M 4048M 4062M 4072  4166  4177  4179M 4191M 4196  4199M
                                                 4214  4229M 4261M 4274  4362  4422M 4432  4520  4581M 4591  4678M 4690
                                                 4697M 4722  4729M 4754  4761M 4786  4793M 4818  4825M 4850  4857M 4882
                                                 4889M 4900M 4903  5052M 5061  5149  5192M 5193M 5194  5233M 5255M 5255
                                                 5261  5350  5401M 5422M 5422  5433  5571  5688  5713  5715M 5807  6013
                                                 6098  6180M 6265M 6368M 6413M 6576M 6734M 6735  6752  6779  6915  6947M
                                                 7021M 7059M 7061M 7067M 7068  7078M 7078  7091  7135M 7335M 7369M 7503M
                                                 7534M 7857  7870M 7968  7981M
 R14          14 0000000E FFFFFFFF A   #     881 6390M 6393M 6394M 6394B 6467M 6470M 6471M 6471B 6597M 6600M 6601M 6601B
                                                 6878M 6881M 6882M 6882B 6990M 6993M 6994M 6994B 7022M 7060M 7093M 7166M
                                                 7169M 7170M 7170B 7665M 7668M 7669M 7669B
 R15          15 0000000F FFFFFFFF A   #     894 2636M 2636  2651M 2652M 2739M 2739  2761M 2762M 2854  2859M 2859  2918M
                                                 2918  2988  3043M 3043  3100  3174M 3174  3234  3251M 3251  3346M 3346
                                                 3586  3599  3610M 3663  3698  3712  3722M 3722  3727  3728M 3729  3736M
                                                 3963M 3963  4029  4040M 4049M 4096M 4096  4162  4169M 4177M 4298M 4298
                                                 4364  4400M 4400  4456M 4456  4522  4559M 4559  4615M 4615  4901M 4922M
                                                 4922  4994  5030M 5030  5085M 5085  5185M 5185  5285M 5285  5395M 5395
                                                 5427M 5457M 5457  5565M 5590M 5590  5715  5787M 5796M 5801M 5826M 5826
                                                 6000U 6040M 6040  6092U 6125M 6125  6172  6187M 6210M 6210  6257  6272M
                                                 6295M 6295  6342  6370M 6420M 6428M 6428  6442M 6485M 6504M 6504  6551
                                                 6578M 6623M 6623  6655M 6655  6710  6785M 6808M 6808  6850  6969M 7032M
                                                 7033M 7033  7050  7062M 7068M 7069  7085  7091M 7131M 7134  7144M 7183M
                                                 7202M 7202  7252  7292M 7293M 7301  7345M 7376M 7411M 7411  7460  7514M
                                                 7545M 7573M 7573  7624  7712M 7712  7770U 7803M 7803  7853  7857M 7891M
                                                 7914M 7914  7964  7968M 8002M 8025M 8025
 R2            2 00000002 FFFFFFFF A   #     725 2534  2648M 2650M 2652  2747M 2753M 2760M 2762  2872M 2873M 2997M 2998M
                                                 3115M 3117M 3121M 3129M 3130M 3235M 3236M 3237  3239  3300M 3303M 3305
                                                 3426M 3436U 3442M 3460U 3641M 3816M 3842  4198  4675M 4675  4676M 4678
                                                 5688M 5689M 5691M 6735M 6736M 6738M 6752  6773M 6779M 6915M 7136M 7855M
                                                 7870  7966M 7981
 R3            3 00000003 FFFFFFFF A   #     738 2864M 2865M 2870  2871M 2873  2876M 2878  2993M 2994M 2996M 2998  3001M
                                                 3003  3103M 3116M 3120M 3130  3132M 3134  3237M 3727M 3758  3772  3795
                                                 3809  3829  3872  3902  4199  4670M 6916M 7094  7100  7124M 7135
1CR       (CR2193) (12:41) (15MAR04) Ordinary Symbol and Literal Cross Reference                                            Page   46
 R4            4 00000004 FFFFFFFF A   #     751 2856M 2866  2990M 2995  3590M 3608  3734  4032M 4038  4047  4165M 4178
                                                 4190  5713M
 R5            5 00000005 FFFFFFFF A   #     764 3233M 3320  3591M 3609  3735  4033M 4039  4048  4166M 4179  4191  4196M
                                                 4214  5716M 5727M 5727  5757M 5757  5775M 5790M 6891M 6891  6922M 6922
                                                 7122M 7145  7474M 7488  7519M 7539
 R6            6 00000006 FFFFFFFF A   #     777 2490U 2852M 2853M 2986M 2987M 3231M 3232M 3586M 3587  3588  3588  4029M
                                                 4036  4162M 4364M 4408  4522M 4994M 4995  5038  5350M 5427  5714M 5773M
                                                 5788M 6172M 6187  6257M 6272  6342M 6357U 6370  6420  6442  6551M 6565U
                                                 6578  6710M 6718U 6785  6850M 6969  7144  7252M 7262U 7345  7376  7460M
                                                 7470U 7514  7545  7624M 7634U 7853M 7891  7964M 8002
 R8            8 00000008 FFFFFFFF A   #     803 2534  2848U 2982U 3096U 3226U 3580U 4025U 4158U 4358U 4516U 4990U 5145U
                                                 5346U
 SAVEDATE      4 00000044 FFFFFFE9     F    2542 3663M 3815
 SAVEDAY       4 00000040 FFFFFFE9     F    2541 3599M 3816
 SEG           2 00000E1A 00000001     H    6816 6812  8040
 SEG           1 00000000 00000003     T    8041 8041
 SEGB          2 00000C80 00000001     H    6138 6134
 SEGBLANK      2 00000FB6 00000001     H    7426 7422
 SEGCB        60 00000000 FFFFFFE7     J    5931 6000U 6011M 6011  6092U 6357U 6565U 6718U 7262U 7470U 7634U 7770U
 SEGCBCLR      3 00000000 FFFFFFE7         5871 7644M
 SEGCBCOD      1 00000000 FFFFFFE7     R    5842 5851  5861  5871  5881  5891  5901  5911
 SEGCBCR       6 00000000 FFFFFFE7         5901 6367M
 SEGCBERR      4 00000014 FFFFFFE7     A    5919 6098M
 SEGCBINDF
               4 00000010 FFFFFFE7     A    5918 7032  7062
 SEGCBLENF
               4 0000000C FFFFFFE7     A    5917 6369  6434  6577  6602M 6923  6964  7021  7061  7069M 7101  7131  7132M
                                                 7292  7680M 7680  7776
 SEGCBLOC      4 00000020 FFFFFFE7     A    5921 6013M 6368  6576  6947  7022  7092  7133
 SEGCBMAXF
               4 00000004 FFFFFFE7     A    5915 6012M 6912  6914  6935  7050  7113  7123  7126  7280  7287
 SEGCBMRKF
               4 00000008 FFFFFFE7     A    5916 6434M 6603M 6950  7019M 7019  7293  7685M 7685  7776M
 SEGCBOVF      5 00000000 FFFFFFE7         5891 6946M
 SEGCBRTN      4 00000024 FFFFFFE7     A    5922 6097M 6384  6390  6460  6467  6591  6597  6871  6878  6983  6990  7159
                                                 7166  7658  7665
 SEGCBSEG      1 00000000 FFFFFFE7         5851 6857M
 SEGCBSPP      4 00000000 FFFFFFE7         5881 6441M 7143M
 SEGCBWR       2 00000000 FFFFFFE7         5861 6575M
 SEGCLR        2 00001106 00000001     H    7590 7586
 SEGCOL        2 00000F4E 00000001     H    7218 7214
 SEGCR         2 00000CEC 00000001     H    6308 6304
 SEGDC         2 0000116E 00000001     H    7819 7815
 SEGDO         4 00000F10 00000001     I    7131 7086B 7116B
 SEGEXIT       2 00000F22 00000001     H    7139 6903B 7125B
 SEGHX         2 000011A6 00000001     H    7930 7926
 SEGINIT       2 00000C2E 00000001     H    5957 5953
 SEGINITR      2 00000C5A 00000001     H    6049 6045
 SEGMARK       2 0000114A 00000001     H    7727 7723
 SEGRETRY      2 00000E5C 00000001     H    6920 7095B
 SEGT          2 00000DC8 00000001     H    6676 6672  8042
 SEGTB         2 00000CB6 00000001     H    6223 6219
 SEGWR         2 00000D6E 00000001     H    6517 6513
 SPR          13 0000000D 00000001 A   #    2446 2605  2608  2609  2610M 2610  2671M 2675  2677  2708  2711  2712  2713M
                                                 2713  2782M 2786  2788  2814  2817  2819  2820M 2820  2910M 2914  2916
                                                 2948  2951  2953  2954M 2954  3035M 3039  3041  3062  3065  3067  3068M
                                                 3068  3166M 3170  3172  3192  3195  3197  3198M 3198  3338M 3342  3344
                                                 3396  3399  3400  3401M 3401  3511M 3515  3517  3546  3549  3551  3552M
                                                 3552  3955M 3959  3961  3991  3994  3996  3997M 3997  4088M 4092  4094
1CR       (CR2193) (12:41) (15MAR04) Ordinary Symbol and Literal Cross Reference                                            Page   47
                                                 4124  4127  4129  4130M 4130  4169  4170M 4170  4186M 4290M 4294  4296
                                                 4324  4327  4329  4330M 4330  4448M 4452  4454  4482  4485  4487  4488M
                                                 4488  4607M 4611  4613  4640  4643  4644  4645M 4645  4914M 4918  4920
                                                 4956  4959  4961  4962M 4962  5077M 5081  5083  5111  5114  5116  5117M
                                                 5117  5277M 5281  5283  5312  5315  5317  5318M 5318  5449M 5453  5455
                                                 5537  5540  5541  5542M 5542  5582M 5586  5588  5604  5607  5608  5609M
                                                 5609  5818M 5822  5824  5963  5966  5967  5968M 5968  6032M 6036  6038
                                                 6055  6058  6059  6060M 6060  6117M 6121  6123  6144  6147  6148  6149M
                                                 6149  6202M 6206  6208  6229  6232  6233  6234M 6234  6287M 6291  6293
                                                 6314  6317  6318  6319M 6319  6496M 6500  6502  6523  6526  6527  6528M
                                                 6528  6647M 6651  6653  6682  6685  6686  6687M 6687  6800M 6804  6806
                                                 6822  6825  6826  6827M 6827  7194M 7198  7200  7224  7227  7228  7229M
                                                 7229  7403M 7407  7409  7432  7435  7436  7437M 7437  7565M 7569  7571
                                                 7596  7599  7600  7601M 7601  7704M 7708  7710  7733  7736  7737  7738M
                                                 7738  7795M 7799  7801  7825  7828  7829  7830M 7830  7906M 7910  7912
                                                 7936  7939  7940  7941M 7941  8017M 8021  8023
 STCKCVCK      8 00000000 FFFFFFEA     X    2510 4362M 4372  4520M 4531  5003  5149M 5157
 STCKCVVL     16 00000008 FFFFFFEA     C    2511 4388  4407  4547  4566  5019  5037  5173  5191  5192  5194M 5195M 5206
                                                 5212M 5228M 5233
 STCKCVWA     56 00000000 FFFFFFEA     J    2519 4330  4358U 4452  4454  4455  4488  4516U 4611  4613  4614  4962  4990U
                                                 5081  5083  5084  5117  5145U 5281  5283  5284
 STCKEDIT     32 00000018 FFFFFFEA     X    2512 4406M 4407M 4408  4565M 4566M 4567  5036M 5037M 5038
 TIMEDATE      2 0000083A 00000001     H    5104 5100  5491
 WA           92 00000000 FFFFFFE9     J    2552 2820  2848U 2914  2916  2917  2954  2982U 3039  3041  3042  3068  3096U
                                                 3170  3172  3173  3198  3226U 3342  3344  3345  3552  3580U 3959  3961
                                                 3962  3997  4025U 4092  4094  4095  4130  4158U 4294  4296  4297  5318
                                                 5346U 5453  5455  5456
 WAR           8 00000008 00000001 A   #    2369 2609M 2660  2671  2712M 2771  2782  2819M 2894  2910  2953M 3019  3035
                                                 3067M 3150  3166  3197M 3322  3338  3400M 3500  3511  3551M 3939  3955
                                                 3996M 4072  4088  4129M 4274  4290  4329M 4432  4448  4487M 4591  4607
                                                 4644M 4903  4914  4961M 5061  5077  5116M 5261  5277  5317M 5433  5449
                                                 5541M 5571  5582  5608M 5807  5818  5967M 6032  6059M 6117  6148M 6202
                                                 6233M 6287  6318M 6496  6527M 6647  6686M 6800  6826M 7194  7228M 7403
                                                 7436M 7565  7600M 7704  7737M 7795  7829M 7906  7940M 8017
 WYLCR         1 00000000 00000001     J    2333 2335  2351  2364  2377  2389  2402  2415  2428  2441  2454  2467  2520
                                                 2553  2573  2577  2891  3016  3147  3318
 XTB           2 00000068 00000001     H    2702 2698
 XTBB          4 000000B2 00000001     I    2761 2754B
 XTBL          2 0000007A 00000001     I    2740 2766B
 XTBN          4 0000009E 00000001     I    2756 2750B 2752B
 XTBX          2 000000C2 00000001     H    2769 2741B 2757B 2759B
 =A(C'A'-10)
               4 00000AC4 00000001     A    5475 2753
 =A(C'0')      4 00000AC0 00000001     A    5474 2650  2760
 =A(DEQSTR)
               4 000011E8 00000001     A    8037 5568
 =A(FMTDATE)
               4 00000AD8 00000001     A    5480 3613  4043  4182  5430
 =A(FMTDAY)
               4 00000AD4 00000001     A    5479 3597
 =A(FMTTIME)
               4 00000AE8 00000001     A    5484 3739  4173
 =A(L'BLANKS)
               4 00001208 00000001     A    8045 7309  7321  7488
 =A(SEG)       4 000011F4 00000001     A    8040 6175  6345  6554  6788
 =A(SEGT)      4 000011FC 00000001     A    8042 6260
 =A(TIMEDATE)
               4 00000B04 00000001     A    5491 4194  4202
 =A(X'40000000')
1CR       (CR2193) (12:41) (15MAR04) Ordinary Symbol and Literal Cross Reference                                            Page   48
               4 00001204 00000001     A    8044 7059
 =A(0)         4 00000AE0 00000001     A    5482 3698  4690
 =A(1)         4 00000AD0 00000001     A    5478 3485  4722
 =A(10)        4 00000AF4 00000001     A    5487 3772  3809  3829  3902
 =A(1000000/64*60*60*24)
               4 00000B14 00000001     A    5493 4669
 =A(12)        4 00000AE4 00000001     A    5483 3712
 =A(2)         4 00000B1C 00000001     A    5495 4754
 =A(2)         4 000011EC 00000001     A    8038 5643
 =A(3)         4 00000B20 00000001     A    5496 4786
 =A(30)        4 00000AFC 00000001     A    5489 3858
 =A(4)         4 00000AF0 00000001     A    5486 3758  3795  3872  4818
 =A(5)         4 00000B24 00000001     A    5497 4850
 =A(6)         4 00000B28 00000001     A    5498 4882
 =A(7)         4 00000B00 00000001     A    5490 3888
 =AL2($$$54)
               2 00000B30 00000001     R    5501 4186
 =AL2(L'BLANKS)
               2 00001218 00000001     R    8050 7519
 =C'  '        2 00001216 00000001     C    8049 7369
 =C' '         1 0000121A 00000001     C    8051 6180  6265
 =C' PDT'      4 00000AF8 00000001     C    5488 3778
 =C' PST'      4 00000AEC 00000001     C    5485 3744  3908
 =F'-4'        4 000011F0 00000001     F    8039 5801
 =F'-8'        4 00000ACC 00000001     F    5477 3232
 =F'0'         4 00001200 00000001     F    8043 6602  6603
 =F'7'         4 00000B18 00000001     F    5494 4676
 =H'-4'        2 00001214 00000001     H    8048 7122
 =H'10'        2 00000B2C 00000001     H    5499 2651
 =H'3'         2 00000B2E 00000001     H    5500 3728
 =V(BTD)       4 0000120C 00000001     V    8046 7873
 =V(BTX)       4 00001210 00000001     V    8047 7984
 =V(DTB)       4 00000ADC 00000001     V    5481 3661  3683
 =V(SEG)       4 000011F8 00000001     V    8041 6190  6275  6423  7348  7379  7517  7548  7894  8005
 =X'F020212020204B202020'
              10 00000B32 00000001     X    5502 5036
 =X'F021206120206120202020'
              11 00000B3C 00000001     X    5503 4565
 =X'F021207A20207A20204B2020'
              12 00000B08 00000001     X    5492 4406
 =X'15'        1 0000121B 00000001     X    8052 6413
 =XL4'FFFFF8'
               4 00000AC8 00000001     X    5476 2853  2987

1CR       (CR2193) (12:41) (15MAR04) Macro and Copy Code Source Summary                                                     Page   49
- Con Source                                        Volume    Members                        HLASM R4.0  2004/03/15 12.41
0     PRIMARY INPUT                                           CSECT    DROP     END      EX       LTORG    POP
                                                              PRINT    PUSH     START    USING
   L1 WYL.GS.WYL.WYLBUR.MACLIB                      SYSB05    BASE     BTD      BTX      CALLRTNP COMMENT  DTB      XSA
   L2 WYL.GG.SYS.MACLIB                             SYSB05    $BC      $BFLKUP  $BV      $CCLKUP  $CRS     $CSS     $L
                                                              $LA      $LBLAD   $LEXP    $LOR     $REL     $RGLKUP
                                                              $USLKUP  ACALL    ADL      BEGIN    CEIL     CLEAR
                                                              COMPROC  CSECT    DATA     DECR     DEFCC    DEX      DROP
                                                              ELSE     ELSEIF   END      EX       FLAG     GEN
                                                              HIBAL    IDENT    IF       LABEL    LC       LCALL    LS
                                                              LT       LTORG    PEND     POP      PRETURN  PRINT    PROC
                                                              PUSH     QLTORG   RECORD   REG      REGS     SDL      SET
                                                              SETMSG   START    USING    VCALL    WHILE    WITH
                                                              XPROC
   L3 SYS3.IS.MACLIB                                SYSB05    SEG      SEGCB    SEGLD    SYSDEFN  XPUSH
   L5 SYS1.MACLIB                                   MVSBR9    CONVTOD  CVT      STCKCONV

1CR       (CR2193) (12:41) (15MAR04) Dsect Cross Reference                                                                  Page   50
-Dsect     Length      Id       Defn                                                         HLASM R4.0  2004/03/15 12.41
0$$$@R0   00000000  FFFFFFFE     705
 $$$@R1   00000000  FFFFFFFD     718
 $$$@R10  00000000  FFFFFFF4     835
 $$$@R11  00000000  FFFFFFF3     848
 $$$@R12  00000000  FFFFFFF2     861
 $$$@R13  00000000  FFFFFFF1     874
 $$$@R14  00000000  FFFFFFF0     887
 $$$@R15  00000000  FFFFFFEF     900
 $$$@R2   00000000  FFFFFFFC     731
 $$$@R3   00000000  FFFFFFFB     744
 $$$@R4   00000000  FFFFFFFA     757
 $$$@R5   00000000  FFFFFFF9     770
 $$$@R6   00000000  FFFFFFF8     783
 $$$@R7   00000000  FFFFFFF7     796
 $$$@R8   00000000  FFFFFFF6     809
 $$$@R9   00000000  FFFFFFF5     822
 $$$RDEC  00000008  FFFFFFE8    2559
 $$$RSEGCB
          0000003C  FFFFFFE7    5831
 $$$RSTCKCVWA
          00000038  FFFFFFEA    2504
 $$$RWA   0000005C  FFFFFFE9    2527
 CVT      00000500  FFFFFFEE    1191
 CVTVSTGX 00000050  FFFFFFED    2211
 CVTXTNT1 0000000C  FFFFFFEC    2250
 CVTXTNT2 00000084  FFFFFFEB    2258
 HIBAL    00000000  FFFFFFFF     691

1CR       (CR2193) (12:41) (15MAR04) Using Map                                                                              Page   51
-                                                                                            HLASM R4.0  2004/03/15 12.41
   Stmt  -----Location----- Action ----------------Using----------------- Reg Max    Last  Label and Using Text
           Count      Id           Type          Value    Range     Id        Disp   Stmt
0   922  00000000  FFFFFFFF USING  ORDINARY    00000000 00001000 FFFFFFEF  15 001    5787  @R15,15
    926  00000000  FFFFFFFF USING  ORDINARY    00000000 00001000 FFFFFFF0  14 000    7668  @R14,14
    930  00000000  FFFFFFFF USING  ORDINARY    00000000 00001000 FFFFFFF1  13 000    3425  @R13,13
    934  00000000  FFFFFFFF USING  ORDINARY    00000000 00001000 FFFFFFF2  12 000          @R12,12
    938  00000000  FFFFFFFF USING  ORDINARY    00000000 00001000 FFFFFFF3  11 000          @R11,11
    942  00000000  FFFFFFFF USING  ORDINARY    00000000 00001000 FFFFFFF4  10 000          @R10,10
    946  00000000  FFFFFFFF USING  ORDINARY    00000000 00001000 FFFFFFF5   9 000          @R9,9
    950  00000000  FFFFFFFF USING  ORDINARY    00000000 00001000 FFFFFFF6   8 000          @R8,8
    954  00000000  FFFFFFFF USING  ORDINARY    00000000 00001000 FFFFFFF7   7 000          @R7,7
    958  00000000  FFFFFFFF USING  ORDINARY    00000000 00001000 FFFFFFF8   6 000          @R6,6
    962  00000000  FFFFFFFF USING  ORDINARY    00000000 00001000 FFFFFFF9   5 000    3312  @R5,5
    966  00000000  FFFFFFFF USING  ORDINARY    00000000 00001000 FFFFFFFA   4 000    5741  @R4,4
    970  00000000  FFFFFFFF USING  ORDINARY    00000000 00001000 FFFFFFFB   3 001    7085  @R3,3
    974  00000000  FFFFFFFF USING  ORDINARY    00000000 00001000 FFFFFFFC   2 000          @R2,2
    978  00000000  FFFFFFFF USING  ORDINARY    00000000 00001000 FFFFFFFD   1 006    6734  @R1,1
    982  00000000  FFFFFFFF USING  ORDINARY    00000000 00001000 FFFFFFFE   0 000          @R0,0
    983  00000000  FFFFFFFF DROP                                            0              0
   2490  00000015  00000001 USING  ORDINARY    00000000 00001000 FFFFFFE8   6 000    3242  DEC,R6
   2624  00000026  00000001 USING  ORDINARY    00000026 00001000 00000001   7 B06    2656  $$$1B,7
   2645  0000003E  00000001 DROP                                            2              2
   2649  00000044  00000001 USING  ORDINARY    00000000 00001000 FFFFFFFC   2 000          @R2,2
   2667  0000005C  00000001 USING  ORDINARY    00000000 00001000 FFFFFFF7   7 000          @R7,7
   2727  00000078  00000001 USING  ORDINARY    00000078 00001000 00000001   7 A4C    2766  $$$4B,7
   2744  00000080  00000001 DROP                                            2              2
   2748  00000086  00000001 USING  ORDINARY    00000000 00001000 FFFFFFFC   2 001    3141  @R2,2
   2778  000000C6  00000001 USING  ORDINARY    00000000 00001000 FFFFFFF7   7 000          @R7,7
   2834  000000E2  00000001 USING  ORDINARY    000000E2 00001000 00000001   7 A66    2878  $$$7B,7
   2848  000000E2  00000001 USING  ORDINARY    FFFFFFD8 00001000 FFFFFFE9   8 068    2872  WA-(4+36),R8
   2901  00000130  00000001 USING  ORDINARY    00000000 00001000 FFFFFFF6   8 000          @R8,8
   2906  00000130  00000001 USING  ORDINARY    00000000 00001000 FFFFFFF7   7 000          @R7,7
   2968  0000015E  00000001 USING  ORDINARY    0000015E 00001000 00000001   7 9F0    3003  $$$12B,7
   2982  0000015E  00000001 USING  ORDINARY    FFFFFFD8 00001000 FFFFFFE9   8 068    2997  WA-(4+36),R8
   3026  00000196  00000001 USING  ORDINARY    00000000 00001000 FFFFFFF6   8 000          @R8,8
   3031  00000196  00000001 USING  ORDINARY    00000000 00001000 FFFFFFF7   7 000          @R7,7
   3082  000001C4  00000001 USING  ORDINARY    000001C4 00001000 00000001   7 990    3134  $$$17B,7
   3096  000001C4  00000001 USING  ORDINARY    FFFFFFD8 00001000 FFFFFFE9   8 060    3129  WA-(4+36),R8
   3157  0000020E  00000001 USING  ORDINARY    00000000 00001000 FFFFFFF6   8 000          @R8,8
   3162  0000020E  00000001 USING  ORDINARY    00000000 00001000 FFFFFFF7   7 000          @R7,7
   3212  0000022C  00000001 USING  ORDINARY    0000022C 00001000 00000001   7 92E    3305  $$$23B,7
   3226  0000022C  00000001 USING  ORDINARY    FFFFFFD8 00001000 FFFFFFE9   8 081    3294  WA-(4+36),R8
   3329  0000028C  00000001 USING  ORDINARY    00000000 00001000 FFFFFFF6   8 000          @R8,8
   3334  0000028C  00000001 USING  ORDINARY    00000000 00001000 FFFFFFF7   7 000          @R7,7
   3356  000002B2  00000001 USING  ORDINARY    00000000 00001000 FFFFFFF8   6 01D    5788  @R6,6
   3415  000002C2  00000001 USING  ORDINARY    000002C2 00001000 00000001   7 80E    3485  $$$31B,7
   3436  000002CE  00000001 USING  ORDINARY    00000000 00001000 FFFFFFEE   2 148    3442  CVT,R2
   3449  000002D2  00000001 USING  ORDINARY    00000000 00001000 FFFFFFFC   2 000          @R2,2
   3460  000002D2  00000001 USING  ORDINARY    00000000 00001000 FFFFFFEB   2 054    3490  CVTXTNT2,R2
   3497  000002F0  00000001 USING  ORDINARY    00000000 00001000 FFFFFFFC   2 003    6780  @R2,2
   3507  000002F4  00000001 USING  ORDINARY    00000000 00001000 FFFFFFF7   7 000          @R7,7
   3566  00000310  00000001 USING  ORDINARY    00000310 00001000 00000001   7 81E    3908  $$$35B,7
   3580  00000310  00000001 USING  ORDINARY    FFFFFFD8 00001000 FFFFFFE9   8 06C    3816  WA-(4+36),R8
   3946  0000042E  00000001 USING  ORDINARY    00000000 00001000 FFFFFFF6   8 000          @R8,8
   3951  0000042E  00000001 USING  ORDINARY    00000000 00001000 FFFFFFF7   7 000          @R7,7
1CR       (CR2193) (12:41) (15MAR04) Using Map                                                                              Page   52
   4011  00000474  00000001 USING  ORDINARY    00000474 00001000 00000001   7 B92    4051  $$$50B,7
   4025  00000474  00000001 USING  ORDINARY    FFFFFFD8 00001000 FFFFFFE9   8 000          WA-(4+36),R8
   4079  000004B6  00000001 USING  ORDINARY    00000000 00001000 FFFFFFF6   8 000          @R8,8
   4084  000004B6  00000001 USING  ORDINARY    00000000 00001000 FFFFFFF7   7 000          @R7,7
   4144  000004D4  00000001 USING  ORDINARY    000004D4 00001000 00000001   7 B32    4246  $$$53B,7
   4158  000004D4  00000001 USING  ORDINARY    FFFFFFD8 00001000 FFFFFFE9   8 000          WA-(4+36),R8
   4281  0000053A  00000001 USING  ORDINARY    00000000 00001000 FFFFFFF6   8 000          @R8,8
   4286  0000053A  00000001 USING  ORDINARY    00000000 00001000 FFFFFFF7   7 000          @R7,7
   4344  00000558  00000001 USING  ORDINARY    00000558 00001000 00000001   7 AAE    4406  $$$59B,7
   4358  00000558  00000001 USING  ORDINARY    FFFFFFD8 00001000 FFFFFFEA   8 041    4408  STCKCVWA-(4+36),R8
   4439  000005DC  00000001 USING  ORDINARY    00000000 00001000 FFFFFFF6   8 000          @R8,8
   4444  000005DC  00000001 USING  ORDINARY    00000000 00001000 FFFFFFF7   7 000          @R7,7
   4502  000005FA  00000001 USING  ORDINARY    000005FA 00001000 00000001   7 A0C    4565  $$$63B,7
   4516  000005FA  00000001 USING  ORDINARY    FFFFFFD8 00001000 FFFFFFEA   8 041    4567  STCKCVWA-(4+36),R8
   4598  0000067C  00000001 USING  ORDINARY    00000000 00001000 FFFFFFF6   8 000          @R8,8
   4603  0000067C  00000001 USING  ORDINARY    00000000 00001000 FFFFFFF7   7 000          @R7,7
   4659  0000069A  00000001 USING  ORDINARY    0000069A 00001000 00000001   7 48E    4889  $$$67B,7
   4910  0000072C  00000001 USING  ORDINARY    00000000 00001000 FFFFFFF7   7 000          @R7,7
   4976  000007AE  00000001 USING  ORDINARY    000007AE 00001000 00000001   7 858    5036  $$$83B,7
   4990  000007AE  00000001 USING  ORDINARY    FFFFFFD8 00001000 FFFFFFEA   8 042    5038  STCKCVWA-(4+36),R8
   5068  0000082C  00000001 USING  ORDINARY    00000000 00001000 FFFFFFF6   8 000          @R8,8
   5073  0000082C  00000001 USING  ORDINARY    00000000 00001000 FFFFFFF7   7 000          @R7,7
   5131  0000084A  00000001 USING  ORDINARY    0000084A 00001000 00000001   7 092    5244  $$$87B,7
   5145  0000084A  00000001 USING  ORDINARY    FFFFFFD8 00001000 FFFFFFEA   8 03B    5233  STCKCVWA-(4+36),R8
   5268  000008E0  00000001 USING  ORDINARY    00000000 00001000 FFFFFFF6   8 000          @R8,8
   5273  000008E0  00000001 USING  ORDINARY    00000000 00001000 FFFFFFF7   7 000          @R7,7
   5332  000008FE  00000001 USING  ORDINARY    000008FE 00001000 00000001   7 1DA    5430  $$$94B,7
   5346  000008FE  00000001 USING  ORDINARY    FFFFFFD8 00001000 FFFFFFE9   8 060    5401  WA-(4+36),R8
   5440  0000098C  00000001 USING  ORDINARY    00000000 00001000 FFFFFFF6   8 000          @R8,8
   5445  0000098C  00000001 USING  ORDINARY    00000000 00001000 FFFFFFF7   7 000          @R7,7
   5556  00000B70  00000001 USING  ORDINARY    00000B70 00001000 00000001   7 678    5568  $$$99B,7
   5578  00000B7E  00000001 USING  ORDINARY    00000000 00001000 FFFFFFF7   7 000          @R7,7
   5623  00000B9C  00000001 USING  ORDINARY    00000B9C 00001000 00000001   7 654    5802  $$$102B,7
   5814  00000C20  00000001 USING  ORDINARY    00000000 00001000 FFFFFFF7   7 000          @R7,7
   5982  00000C3E  00000001 USING  ORDINARY    00000C3E 00001000 00000001   7 000          $$$122B,7
   6000  00000C3E  00000001 USING  ORDINARY    00000000 00001000 FFFFFFE7  15 020    6013  SEGCB,R15
   6020  00000C4C  00000001 USING  ORDINARY    00000000 00001000 FFFFFFEF  15 000          @R15,15
   6028  00000C4C  00000001 USING  ORDINARY    00000000 00001000 FFFFFFF7   7 000          @R7,7
   6074  00000C6A  00000001 USING  ORDINARY    00000C6A 00001000 00000001   7 000          $$$125B,7
   6092  00000C6A  00000001 USING  ORDINARY    00000000 00001000 FFFFFFE7  15 024    6098  SEGCB,R15
   6105  00000C72  00000001 USING  ORDINARY    00000000 00001000 FFFFFFEF  15 000          @R15,15
   6113  00000C72  00000001 USING  ORDINARY    00000000 00001000 FFFFFFF7   7 000          @R7,7
   6163  00000C90  00000001 USING  ORDINARY    00000C90 00001000 00000001   7 58A    6190  $$$128B,7
   6198  00000CA8  00000001 USING  ORDINARY    00000000 00001000 FFFFFFF7   7 000          @R7,7
   6248  00000CC6  00000001 USING  ORDINARY    00000CC6 00001000 00000001   7 554    6275  $$$131B,7
   6283  00000CDE  00000001 USING  ORDINARY    00000000 00001000 FFFFFFF7   7 000          @R7,7
   6333  00000CFC  00000001 USING  ORDINARY    00000CFC 00001000 00000001   7 51F    6461  $$$134B,7
   6357  00000D04  00000001 USING  ORDINARY    00000000 00001000 FFFFFFE7   6 024    6467  SEGCB,R6
   6482  00000D5E  00000001 USING  ORDINARY    00000000 00001000 FFFFFFF8   6 000          @R6,6
   6492  00000D60  00000001 USING  ORDINARY    00000000 00001000 FFFFFFF7   7 000          @R7,7
   6542  00000D7E  00000001 USING  ORDINARY    00000D7E 00001000 00000001   7 482    6613  $$$140B,7
   6565  00000D86  00000001 USING  ORDINARY    00000000 00001000 FFFFFFE7   6 024    6603  SEGCB,R6
   6634  00000DBA  00000001 USING  ORDINARY    00000000 00001000 FFFFFFF8   6 000          @R6,6
   6643  00000DBA  00000001 USING  ORDINARY    00000000 00001000 FFFFFFF7   7 000          @R7,7
   6701  00000DD8  00000001 USING  ORDINARY    00000DD8 00001000 00000001   7 41C    6788  $$$145B,7
   6718  00000DDA  00000001 USING  ORDINARY    00000000 00001000 FFFFFFE7   6 024    7166  SEGCB,R6
   6796  00000E0C  00000001 USING  ORDINARY    00000000 00001000 FFFFFFF7   7 000          @R7,7
   6841  00000E2A  00000001 USING  ORDINARY    00000E2A 00001000 00000001   7 3EA    7160  $$$152B,7
   7181  00000F3E  00000001 USING  ORDINARY    00000000 00001000 FFFFFFF8   6 000          @R6,6
1CR       (CR2193) (12:41) (15MAR04) Using Map                                                                              Page   53
   7190  00000F40  00000001 USING  ORDINARY    00000000 00001000 FFFFFFF7   7 000          @R7,7
   7243  00000F5E  00000001 USING  ORDINARY    00000F5E 00001000 00000001   7 2B8    7379  $$$166B,7
   7262  00000F60  00000001 USING  ORDINARY    00000000 00001000 FFFFFFE7   6 00C    7293  SEGCB,R6
   7391  00000FA8  00000001 USING  ORDINARY    00000000 00001000 FFFFFFF8   6 000          @R6,6
   7399  00000FA8  00000001 USING  ORDINARY    00000000 00001000 FFFFFFF7   7 000          @R7,7
   7451  00000FC6  00000001 USING  ORDINARY    00000FC6 00001000 00000001   7 252    7548  $$$173B,7
   7470  00000FC8  00000001 USING  ORDINARY    00000000 00001000 FFFFFFE7   6 000          SEGCB,R6
   7556  00000FF8  00000001 USING  ORDINARY    00000000 00001000 FFFFFFF8   6 000          @R6,6
   7561  00000FF8  00000001 USING  ORDINARY    00000000 00001000 FFFFFFF7   7 000          @R7,7
   7615  00001116  00000001 USING  ORDINARY    00001116 00001000 00000001   7 0CA    7659  $$$178B,7
   7634  00001118  00000001 USING  ORDINARY    00000000 00001000 FFFFFFE7   6 024    7685  SEGCB,R6
   7692  0000113C  00000001 USING  ORDINARY    00000000 00001000 FFFFFFF8   6 000          @R6,6
   7700  0000113C  00000001 USING  ORDINARY    00000000 00001000 FFFFFFF7   7 000          @R7,7
   7752  0000115A  00000001 USING  ORDINARY    0000115A 00001000 00000001   7 000          $$$182B,7
   7770  0000115A  00000001 USING  ORDINARY    00000000 00001000 FFFFFFE7  15 00C    7776  SEGCB,R15
   7783  00001160  00000001 USING  ORDINARY    00000000 00001000 FFFFFFEF  15 000          @R15,15
   7791  00001160  00000001 USING  ORDINARY    00000000 00001000 FFFFFFF7   7 000          @R7,7
   7844  0000117E  00000001 USING  ORDINARY    0000117E 00001000 00000001   7 08E    7894  $$$185B,7
   7902  00001198  00000001 USING  ORDINARY    00000000 00001000 FFFFFFF7   7 000          @R7,7
   7955  000011B6  00000001 USING  ORDINARY    000011B6 00001000 00000001   7 05A    8005  $$$188B,7
   8013  000011D0  00000001 USING  ORDINARY    00000000 00001000 FFFFFFF7   7 000          @R7,7

1         (CR2193) (12:41) (15MAR04) General Purpose Register Cross Reference                                               Page   54
- Register  References (M=modified, B=branch, U=USING, D=DROP, N=index)                      HLASM R4.0  2004/03/15 12.41
0    0(0)     982U  983D 2608  2637M 2637  2655M 2660  2675M 2711  2740M 2740  2765M 2771  2786M 2817  2867M 2867  2869M
             2869  2870M 2871  2894  2914M 2951  2996  3019  3039M 3065  3103  3122M 3150  3170M 3195  3236  3265M 3277M
             3278M 3295  3300  3322  3342M 3399  3425M 3468M 3469M 3485M 3490M 3500  3515M 3549  3590  3608M 3658M 3680M
             3734M 3817M 3836M 3841M 3842M 3858  3888  3937M 3939  3959M 3994  4032  4038M 4047M 4069M 4072  4092M 4127
             4165  4178M 4190M 4198M 4236M 4268M 4274  4294M 4327  4362  4429M 4432  4452M 4485  4520  4588M 4591  4611M
             4643  4668M 4669M 4898M 4898  4899M 4903  4918M 4959  5059M 5061  5081M 5114  5149  5191M 5253M 5253  5261
             5281M 5315  5359  5401M 5420M 5420  5433  5453M 5540  5571  5586M 5607  5643  5689  5710M 5712M 5716  5777M
             5796  5807  5822M 5966  6012  6036M 6058  6097  6121M 6147  6181M 6206M 6232  6266M 6291M 6317  6369M 6414M
             6446M 6446  6485  6500M 6526  6577M 6651M 6685  6728M 6728  6736  6780M 6804M 6825  6900M 6900  6912  6914M
             6916  6923M 6935  6950M 6951M 6951  6964M 7007M 7007  7020M 7020  7060M 7067  7085M 7092M 7093M 7094M 7100M
             7101M 7113  7123M 7124  7126M 7132  7133M 7134M 7136M 7145M 7183  7198M 7227  7268M 7280  7287M 7301M 7309
             7321M 7370M 7407M 7435  7474  7508M 7539M 7569M 7599  7708M 7736  7799M 7828  7910M 7939  8021M
     1(1)     978U 2608  2653M 2660  2675M 2711  2763M 2771  2786M 2817  2856  2857M 2858M 2862M 2865  2866M 2894  2914M
             2951  2990  2991M 2992M 2994  2995M 3019  3039M 3065  3150  3170M 3195  3233  3238M 3239M 3242M 3259M 3278
             3294M 3295M 3320M 3322  3342M 3399  3425M 3466M 3478M 3500  3515M 3549  3591  3609M 3641  3651M 3673M 3729M
             3735M 3815M 3841  3930M 3939  3959M 3994  4033  4039M 4048M 4062M 4072  4092M 4127  4166  4177  4179M 4191M
             4196  4199M 4214  4229M 4261M 4274  4294M 4327  4362  4369M 4370M 4371  4373  4383  4389  4422M 4432  4452M
             4485  4520  4528M 4529M 4530  4532  4542  4548  4581M 4591  4611M 4643  4668M 4669M 4678M 4690  4697M 4722
             4729M 4754  4761M 4786  4793M 4818  4825M 4850  4857M 4882  4889M 4900M 4903  4918M 4959  5000M 5001M 5002
             5004  5014  5020  5052M 5061  5081M 5114  5149  5154M 5155M 5156  5158  5168  5174  5192M 5193M 5194  5233M
             5255M 5255  5261  5281M 5315  5350  5363M 5364M 5365  5365  5366  5367  5369  5385  5401M 5422M 5422  5433
             5453M 5540  5571  5586M 5607  5688  5713  5715M 5807  5822M 5966  6013  6036M 6058  6098  6121M 6147  6180M
             6206M 6232  6265M 6291M 6317  6368M 6413M 6500M 6526  6576M 6651M 6685  6734M 6735  6752  6779  6804M 6825
             6915  6947M 7021M 7059M 7060M 7061M 7067M 7068  7078M 7078  7091  7093M 7135M 7136M 7198M 7227  7335M 7369M
             7407M 7435  7503M 7534M 7569M 7599  7708M 7736  7799M 7828  7857  7870M 7910M 7939  7968  7981M 8021M
     2(2)     974U 2608  2645D 2647M 2647  2648M 2649U 2650M 2652  2675M 2711  2744D 2746M 2746  2747M 2748U 2753M 2760M
             2762  2786M 2817  2872M 2873M 2914M 2951  2997M 2998M 3039M 3065  3115M 3117M 3121M 3129M 3130M 3170M 3195
             3235M 3236M 3237N 3239  3300M 3303M 3305  3342M 3399  3426M 3436U 3442M 3449U 3460U 3497U 3515M 3549  3641M
             3673  3816M 3842  3959M 3994  4092M 4127  4198  4294M 4327  4452M 4485  4611M 4643  4675M 4675  4676M 4678
             4918M 4959  5081M 5114  5281M 5315  5453M 5540  5586M 5607  5688M 5689M 5691M 5822M 5966  6036M 6058  6121M
             6147  6206M 6232  6291M 6317  6500M 6526  6651M 6685  6735M 6736M 6738M 6752  6773M 6779M 6804M 6825  6915M
             7136M 7198M 7227  7407M 7435  7569M 7599  7708M 7736  7799M 7828  7855M 7870  7910M 7939  7966M 7981  8021M
     3(3)     970U 2608  2675M 2711  2786M 2817  2864M 2865M 2870  2871M 2873  2876M 2878  2914M 2951  2993M 2994M 2996M
             2998  3001M 3003  3039M 3065  3103M 3116M 3120M 3130  3132M 3134  3170M 3195  3237M 3342M 3399  3515M 3549
             3727M 3758  3772  3795  3809  3829  3872  3902  3959M 3994  4092M 4127  4199  4294M 4327  4387M 4452M 4485
             4546M 4611M 4643  4670M 4676M 4918M 4959  5018M 5081M 5114  5172M 5281M 5315  5383M 5453M 5540  5586M 5607
             5822M 5966  6036M 6058  6121M 6147  6206M 6232  6291M 6317  6500M 6526  6651M 6685  6804M 6825  6916M 7094
             7100  7124M 7135  7136M 7198M 7227  7407M 7435  7569M 7599  7708M 7736  7799M 7828  7910M 7939  8021M
     4(4)     966U 2608  2675M 2711  2786M 2817  2856M 2866  2914M 2951  2990M 2995  3039M 3065  3170M 3195  3342M 3399
             3515M 3549  3590M 3608  3734  3959M 3994  4032M 4038  4047  4092M 4127  4165M 4178  4190  4294M 4327  4387M
             4452M 4485  4546M 4611M 4643  4918M 4959  5018M 5081M 5114  5172M 5281M 5315  5383M 5453M 5540  5586M 5607
             5713M 5822M 5966  6036M 6058  6121M 6147  6206M 6232  6291M 6317  6500M 6526  6651M 6685  6804M 6825  7198M
             7227  7407M 7435  7569M 7599  7708M 7736  7799M 7828  7910M 7939  8021M
     5(5)     962U 2608  2675M 2711  2786M 2817  2914M 2951  3039M 3065  3170M 3195  3233M 3320  3342M 3399  3515M 3549
             3591M 3609  3735  3959M 3994  4033M 4039  4048  4092M 4127  4166M 4179  4196M 4214  4294M 4327  4452M 4485
             4611M 4643  4918M 4959  5081M 5114  5281M 5315  5453M 5540  5586M 5607  5716M 5727M 5727  5757M 5757  5775M
             5790M 5822M 5966  6036M 6058  6121M 6147  6206M 6232  6291M 6317  6500M 6526  6651M 6685  6804M 6825  6891M
             6891  6922M 6922  7122M 7145  7198M 7227  7407M 7435  7474M 7488  7519M 7539  7569M 7599  7708M 7736  7799M
             7828  7910M 7939  8021M
     6(6)     958U 2490U 2608  2675M 2711  2786M 2817  2852M 2853M 2914M 2951  2986M 2987M 3039M 3065  3170M 3195  3231M
             3232M 3342M 3356U 3399  3515M 3549  3586M 3587  3588  3588  3930  3959M 3994  4029M 4036  4062  4092M 4127
             4162M 4229  4261  4294M 4327  4364M 4408  4422  4452M 4485  4522M 4581  4611M 4643  4918M 4959  4994M 4995
             5038  5052  5081M 5114  5281M 5315  5350M 5427  5453M 5540  5586M 5607  5714M 5773M 5788M 5822M 5966  6036M
             6058  6121M 6147  6172M 6187  6206M 6232  6257M 6272  6291M 6317  6342M 6357U 6370  6420  6442  6482U 6500M
             6526  6551M 6565U 6578  6634U 6651M 6685  6710M 6718U 6785  6804M 6825  6850M 6969  7144  7181U 7198M 7227
1         (CR2193) (12:41) (15MAR04) General Purpose Register Cross Reference                                               Page   55
             7252M 7262U 7345  7376  7391U 7407M 7435  7460M 7470U 7514  7545  7556U 7569M 7599  7624M 7634U 7692U 7708M
             7736  7799M 7828  7853M 7891  7910M 7939  7964M 8002  8021M
     7(7)     954U 2608  2613M 2624U 2667U 2675M 2711  2716M 2727U 2778U 2786M 2817  2823M 2834U 2906U 2914M 2951  2957M
             2968U 3031U 3039M 3065  3071M 3082U 3162U 3170M 3195  3201M 3212U 3334U 3342M 3399  3404M 3415U 3507U 3515M
             3549  3555M 3566U 3951U 3959M 3994  4000M 4011U 4084U 4092M 4127  4133M 4144U 4286U 4294M 4327  4333M 4344U
             4444U 4452M 4485  4491M 4502U 4603U 4611M 4643  4648M 4659U 4910U 4918M 4959  4965M 4976U 5073U 5081M 5114
             5120M 5131U 5273U 5281M 5315  5321M 5332U 5445U 5453M 5540  5545M 5556U 5578U 5586M 5607  5612M 5623U 5814U
             5822M 5966  5971M 5982U 6028U 6036M 6058  6063M 6074U 6113U 6121M 6147  6152M 6163U 6198U 6206M 6232  6237M
             6248U 6283U 6291M 6317  6322M 6333U 6492U 6500M 6526  6531M 6542U 6643U 6651M 6685  6690M 6701U 6796U 6804M
             6825  6830M 6841U 7190U 7198M 7227  7232M 7243U 7399U 7407M 7435  7440M 7451U 7561U 7569M 7599  7604M 7615U
             7700U 7708M 7736  7741M 7752U 7791U 7799M 7828  7833M 7844U 7902U 7910M 7939  7944M 7955U 8013U 8021M
     8(8)     950U 2608  2609M 2660  2671  2675M 2711  2712M 2771  2782  2786M 2817  2819M 2848U 2894  2901U 2910  2914M
             2951  2953M 2982U 3019  3026U 3035  3039M 3065  3067M 3096U 3150  3157U 3166  3170M 3195  3197M 3226U 3322
             3329U 3338  3342M 3399  3400M 3500  3511  3515M 3549  3551M 3580U 3939  3946U 3955  3959M 3994  3996M 4025U
             4072  4079U 4088  4092M 4127  4129M 4158U 4274  4281U 4290  4294M 4327  4329M 4358U 4432  4439U 4448  4452M
             4485  4487M 4516U 4591  4598U 4607  4611M 4643  4644M 4903  4914  4918M 4959  4961M 4990U 5061  5068U 5077
             5081M 5114  5116M 5145U 5261  5268U 5277  5281M 5315  5317M 5346U 5433  5440U 5449  5453M 5540  5541M 5571
             5582  5586M 5607  5608M 5807  5818  5822M 5966  5967M 6032  6036M 6058  6059M 6117  6121M 6147  6148M 6202
             6206M 6232  6233M 6287  6291M 6317  6318M 6496  6500M 6526  6527M 6647  6651M 6685  6686M 6800  6804M 6825
             6826M 7194  7198M 7227  7228M 7403  7407M 7435  7436M 7565  7569M 7599  7600M 7704  7708M 7736  7737M 7795
             7799M 7828  7829M 7906  7910M 7939  7940M 8017  8021M
     9(9)     946U
    10(A)     942U
    11(B)     938U 1606B 1607B
    12(C)     934U
    13(D)     930U 2605  2608  2609  2610M 2610  2671M 2675  2677  2708  2711  2712  2713M 2713  2782M 2786  2788  2814
             2817  2819  2820M 2820  2910M 2914  2916  2948  2951  2953  2954M 2954  3035M 3039  3041  3062  3065  3067
             3068M 3068  3166M 3170  3172  3192  3195  3197  3198M 3198  3338M 3342  3344  3396  3399  3400  3401M 3401
             3511M 3515  3517  3546  3549  3551  3552M 3552  3585M 3585  3955M 3959  3961  3991  3994  3996  3997M 3997
             4088M 4092  4094  4124  4127  4129  4130M 4130  4169  4170M 4170  4186M 4290M 4294  4296  4324  4327  4329
             4330M 4330  4448M 4452  4454  4482  4485  4487  4488M 4488  4607M 4611  4613  4640  4643  4644  4645M 4645
             4914M 4918  4920  4956  4959  4961  4962M 4962  5077M 5081  5083  5111  5114  5116  5117M 5117  5277M 5281
             5283  5312  5315  5317  5318M 5318  5449M 5453  5455  5537  5540  5541  5542M 5542  5582M 5586  5588  5604
             5607  5608  5609M 5609  5818M 5822  5824  5963  5966  5967  5968M 5968  6032M 6036  6038  6055  6058  6059
             6060M 6060  6117M 6121  6123  6144  6147  6148  6149M 6149  6202M 6206  6208  6229  6232  6233  6234M 6234
             6287M 6291  6293  6314  6317  6318  6319M 6319  6496M 6500  6502  6523  6526  6527  6528M 6528  6647M 6651
             6653  6682  6685  6686  6687M 6687  6800M 6804  6806  6822  6825  6826  6827M 6827  7194M 7198  7200  7224
             7227  7228  7229M 7229  7403M 7407  7409  7432  7435  7436  7437M 7437  7565M 7569  7571  7596  7599  7600
             7601M 7601  7704M 7708  7710  7733  7736  7737  7738M 7738  7795M 7799  7801  7825  7828  7829  7830M 7830
             7855  7856M 7856  7906M 7910  7912  7936  7939  7940  7941M 7941  7966  7967M 7967  8017M 8021  8023
    14(E)     926U 2605  2677M 2679B 2708  2788M 2790B 2814  2916M 2919B 2948  3041M 3044B 3062  3172M 3175B 3192  3344M
             3347B 3396  3517M 3519B 3546  3597M 3598M 3598B 3613M 3614M 3614B 3661M 3662M 3662B 3683M 3684M 3684B 3739M
             3740M 3740B 3961M 3964B 3991  4035M 4043M 4044M 4044B 4051M 4094M 4097B 4124  4173M 4174M 4174B 4182M 4183M
             4183B 4194M 4195M 4195B 4202M 4203M 4203B 4296M 4299B 4324  4372M 4373  4384M 4385M 4385N 4386M 4386N 4387
             4387M 4388M 4389  4454M 4457B 4482  4531M 4532  4543M 4544M 4544N 4545M 4545N 4546  4546M 4547M 4548  4613M
             4616B 4640  4920M 4923B 4956  5003M 5004  5015M 5016M 5016N 5017M 5017N 5018  5018M 5019M 5020  5083M 5086B
             5111  5157M 5158  5169M 5170M 5170N 5171M 5171N 5172  5172M 5173M 5174  5283M 5286B 5312  5368M 5369  5380M
             5381M 5381N 5382M 5382N 5383  5383M 5384M 5385  5430M 5431M 5431B 5455M 5458B 5537  5568M 5569M 5569B 5588M
             5591B 5604  5824M 5827B 5963  6038M 6041B 6055  6123M 6126B 6144  6175M 6176M 6176B 6190M 6191M 6191B 6208M
             6211B 6229  6260M 6261M 6261B 6275M 6276M 6276B 6293M 6296B 6314  6345M 6346M 6346B 6390M 6393M 6394M 6394B
             6423M 6424M 6424B 6467M 6470M 6471M 6471B 6502M 6505B 6523  6554M 6555M 6555B 6597M 6600M 6601M 6601B 6653M
             6656B 6682  6788M 6789M 6789B 6806M 6809B 6822  6878M 6881M 6882M 6882B 6990M 6993M 6994M 6994B 7022M 7060M
             7093M 7166M 7169M 7170M 7170B 7200M 7203B 7224  7348M 7349M 7349B 7379M 7380M 7380B 7409M 7412B 7432  7517M
             7518M 7518B 7548M 7549M 7549B 7571M 7574B 7596  7665M 7668M 7669M 7669B 7710M 7713B 7733  7801M 7804B 7825
             7873M 7874M 7874B 7894M 7895M 7895B 7912M 7915B 7936  7984M 7985M 7985B 8005M 8006M 8006B 8023M 8026B
    15(F)     922U 2068M 2068  2636M 2636  2651M 2652M 2739M 2739  2761M 2762M 2854  2859M 2859  2918M 2918  2988  3043M
             3043  3100  3174M 3174  3234  3251M 3251  3346M 3346  3586  3599  3610M 3663  3698  3712  3722M 3722  3727
             3728M 3729N 3736M 3963M 3963  4029  4040M 4049M 4096M 4096  4162  4169M 4177M 4298M 4298  4364  4400M 4400
             4456M 4456  4522  4559M 4559  4615M 4615  4901M 4922M 4922  4994  5030M 5030  5085M 5085  5185M 5185  5285M
1         (CR2193) (12:41) (15MAR04) General Purpose Register Cross Reference                                               Page   56
             5285  5395M 5395  5427M 5457M 5457  5565M 5590M 5590  5715  5787M 5796M 5801M 5826M 5826  6000U 6020U 6040M
             6040  6092U 6105U 6125M 6125  6172  6187M 6210M 6210  6257  6272M 6295M 6295  6342  6370M 6420M 6428M 6428
             6442M 6485M 6504M 6504  6551  6578M 6623M 6623  6655M 6655  6710  6785M 6808M 6808  6850  6969M 7032M 7033M
             7033  7050  7060M 7062M 7068M 7069  7085N 7091M 7093M 7131M 7134  7144M 7183M 7202M 7202  7252  7292M 7293M
             7301  7345M 7376M 7411M 7411  7460  7514M 7545M 7573M 7573  7624  7712M 7712  7770U 7783U 7803M 7803  7853
             7857M 7891M 7914M 7914  7964  7968M 8002M 8025M 8025

1CR       (CR2193) (12:41) (15MAR04) Diagnostic Cross Reference and Assembler Summary                                       Page   57
-                                                                                            HLASM R4.0  2004/03/15 12.41
0     No Statements Flagged in this Assembly
 HIGH LEVEL ASSEMBLER, 5696-234, RELEASE 4.0, PTF P72483
0SYSTEM: OS/390 02.10.00            JOBNAME: WYL#CR      STEPNAME: ASM        PROCSTEP: (NOPROC)
0Datasets Allocated for this Assembly
  Con DDname   Dataset Name                                 Volume  Member
   P1 SYSIN    WYL.GS.WYL.WYLBUR.SOURCE                     SYSB05  CR
   L1 SYSLIB   WYL.GS.WYL.WYLBUR.MACLIB                     SYSB05
   L2          WYL.GG.SYS.MACLIB                            SYSB05
   L3          SYS3.IS.MACLIB                               SYSB05
   L4          SYS3.MACLIB                                  SYSB02
   L5          SYS1.MACLIB                                  MVSBR9
   L6          SYS1.MODGEN                                  MVSBR9
      SYSPRINT SYS04075.T124104.RA000.WYL#CR.PRINT.H01      SCR101
      SYSTERM  GG$SLP.WYL#CR.JOB03511.D0000101.?

    3668K allocated to Buffer Pool,         1601K would be required for this to be an In-Storage Assembly
    1069 Primary Input Records Read         6415 Library Records Read                  0 Work File Reads
       0 ASMAOPT Records Read               4110 Primary Print Records Written         0 Work File Writes
       0 Punch Records Written                 0 ADATA Records Written
0Assembly Start Time: 12.41.05 Stop Time: 12.41.10 Processor Time: 00.00.01.4901
 Return Code 000
