1                        J E S 2  J O B  L O G  --  S Y S T E M  S Y S B  --  N O D E  R L G
0
 12.52.18 JOB03556 ---- MONDAY,    15 MAR 2004 ----
 12.52.18 JOB03556  ICH70001I GG$SLP   LAST ACCESS AT 12:51:33 ON MONDAY, MARCH 15, 2004
 12.52.18 JOB03556  $HASP373 WYL#PROT STARTED - INIT 6    - CLASS B - SYS SYSB
 12.52.19 JOB03556  ***  HCMD      STEP $$QUIET
 12.52.19 JOB03556  PUR * Q OUT MUL
 12.52.19 JOB03556  JOB 5419 WYL#PROT WILL BE PURGED
 12.52.20 JOB03556  WYL#PROT.$$QUIET .         RC=Zero TapeIO=0000 DiskIO=0000 CPU=  .01s Elapsed=39.00s
 12.52.28 JOB03556  WYL#PROT.ASM     .         RC=Zero TapeIO=0000 DiskIO=0724 CPU= 2.95s Elapsed=40.13s
 12.52.29 JOB03556  WYL#PROT.EDIT    .         RC=Zero TapeIO=0000 DiskIO=0081 CPU=  .27s Elapsed=48.66s
 12.52.29 JOB03556  WYL#PROT Ended.  Name=Assemble PROT                  Total CPU= 3.23s Elapsed=39.00s
 12.52.29 JOB03556
 12.52.29 JOB03556  Execution charges   Priority=Standard   Block=Day
 12.52.29 JOB03556
 12.52.29 JOB03556  CPU Usage          58.87          $36.49   Standard Processing Unit Equivalent
 12.52.29 JOB03556                                   =======
 12.52.29 JOB03556                                    $36.49   Total Job execution charge
 12.52.29 JOB03556
 12.52.29 JOB03556  See back separator page for print charges
 12.52.29 JOB03556
 12.52.29 JOB03556  $HASP395 WYL#PROT ENDED  ASM=0, EDIT=0
1        1 //WYL#PROT JOB SLP$GG,'Assemble PROT',TIME=4,REGION=4M                  JOB03556
           //*
           /*JOBPARM LINES=99,COPIES=1
           /*JOBPARM FORMS=3HOL,PFORMAT=LAND,CHARS=BD13,DUPLEX=YES,FLASH=BAR4
           //*
           /*JOBPARM NOTIFY=GG.SLP,HOLD=OUTPUT                                     WYLGEN
         2 //$$QUIET EXEC PGM=HCMDX,PARM='PUR * Q OUT MUL'
           //*
         3 //ASM    EXEC PGM=ASMA90,REGION=8M,
           //            PARM=('NORENT,TERM,FLAG(NOCONT),US(MAP,WARN(10)),NODECK',
           //            'LC(32767),XREF(SHORT),ESD,DXREF,NOOBJECT')
         4 //STEPLIB DD DSN=SYS3.IS.TESTASM,DISP=SHR
         5 //SYSLIB   DD  DSN=WYL.GS.WYL.WYLBUR.MACLIB,DISP=SHR
         6 //         DD  DSN=WYL.GG.SYS.MACLIB,DISP=SHR
         7 //         DD  DSN=SYS3.IS.MACLIB,DISP=SHR
         8 //         DD  DSN=SYS3.MACLIB,DISP=SHR
         9 //         DD  DSN=SYS1.MACLIB,DISP=SHR
        10 //         DD  DSN=SYS1.MODGEN,DISP=SHR
        11 //SYSUT1   DD DSN=&&SYSUT1,UNIT=VIO,DISP=(,DELETE),
           //            SPACE=(4088,(500,250),,CONTIG,ROUND)
        12 //SYSTERM  DD SYSOUT=T
        13 //SYSPRINT DD DSN=&&PRINT,UNIT=SYSDA,DISP=(,PASS),
           //            SPACE=(6650,(250,250),RLSE),
           //            DCB=(BLKSIZE=6650,LRECL=133,RECFM=FB)
        14 //SYSUDUMP DD SYSOUT=A
        15 //SYSIN    DD  DSN=WYL.GS.WYL.WYLBUR.SOURCE(PROT),DISP=SHR
           //*
        16 //EDIT    EXEC PGM=ASMEDIT,TIME=2,REGION=4000K,
           //             PARM='STMT'
        17 //STEPLIB  DD  DSN=WYL.GG.SYS.LINKLIB,DISP=SHR
        18 //ASMOUT   DD  DSN=&PRINT,DISP=(OLD,DELETE)
        19 //SYSPRINT DD  SYSOUT=A
1 STMT NO. MESSAGE
 -
        11 IGD01010I STORCLAS= TEMP STORGROUP =
        11 IGD01010I STORGRP=VIO ASSIGNED.
        13 IGD01010I STORCLAS= TEMP STORGROUP =
        13 IGD01010I STORGRP=VIO ASSIGNED.
 ICH70001I GG$SLP   LAST ACCESS AT 12:51:33 ON MONDAY, MARCH 15, 2004
 IEF142I WYL#PROT $$QUIET - STEP WAS EXECUTED - COND CODE 0000
 *********************************************************************************
 *   WYL#PROT/$$QUIET /                    Return Code      Zero                 *
 *   Region used      260K (16K user + 244K system)                              *
 *   Extended region  9692K (4K user + 9688K system)                             *
 *                                                                               *
 *   Paging              In      Out                                             *
 *   Private <-> Aux      0        0       CPU time (TCB)   00:00:00.01          *
 *   Private <-> Exp      0        0       CPU time (SRB)   00:00:00.00          *
 *   VIO                  0        0       Elapsed time    917:35:33.96          *
 *   Common               0      ---                                             *
 *                                                                               *
 *                                                                               *
 *   CPU Usage          0.18         $0.11  Standard Processing Unit Equivalent  *
 *                                   $0.11  Total Step execution charge          *
 *                                                                               *
 *    I/O count  DDname   Type Addr           I/O count  DDname   Type Addr      *
 *                         *** No I/O for this step ***                          *
 *********************************************************************************
 IEF373I STEP/$$QUIET /START 2004075.1252
 IEF374I STEP/$$QUIET /STOP  2004075.1252 CPU    0MIN 00.01SEC SRB    0MIN 00.00SEC VIRT    16K SYS   244K EXT       4K SYS    9688K
 IEF236I ALLOC. FOR WYL#PROT ASM
 IEF237I 04DC ALLOCATED TO STEPLIB
 IEF237I 04DC ALLOCATED TO SYSLIB
 IEF237I 04DC ALLOCATED TO
 IEF237I 04DC ALLOCATED TO
 IEF237I 0402 ALLOCATED TO
 IEF237I 04A0 ALLOCATED TO
 IEF237I 04A0 ALLOCATED TO
 IGD101I SMS ALLOCATED TO DDNAME (SYSUT1  )
         DSN (SYS04075.T125218.RA000.WYL#PROT.SYSUT1.H01  )
         STORCLAS (TEMP) MGMTCLAS (        ) DATACLAS (        )
         VOL SER NOS= VIO
 IEF237I JES2 ALLOCATED TO SYSTERM
 IGD101I SMS ALLOCATED TO DDNAME (SYSPRINT)
         DSN (SYS04075.T125218.RA000.WYL#PROT.PRINT.H01   )
         STORCLAS (TEMP) MGMTCLAS (        ) DATACLAS (        )
         VOL SER NOS= SCR101
 IEF237I JES2 ALLOCATED TO SYSUDUMP
 IEF237I 04DC ALLOCATED TO SYSIN
 IEF142I WYL#PROT ASM - STEP WAS EXECUTED - COND CODE 0000
 IEF285I   SYS3.IS.TESTASM                              KEPT
 IEF285I   VOL SER NOS= SYSB05.
 IEF285I   WYL.GS.WYL.WYLBUR.MACLIB                     KEPT
 IEF285I   VOL SER NOS= SYSB05.
 IEF285I   WYL.GG.SYS.MACLIB                            KEPT
 IEF285I   VOL SER NOS= SYSB05.
 IEF285I   SYS3.IS.MACLIB                               KEPT
 IEF285I   VOL SER NOS= SYSB05.
 IEF285I   SYS3.MACLIB                                  KEPT
 IEF285I   VOL SER NOS= SYSB02.
 IEF285I   SYS1.MACLIB                                  KEPT
 IEF285I   VOL SER NOS= MVSBR9.
 IEF285I   SYS1.MODGEN                                  KEPT
 IEF285I   VOL SER NOS= MVSBR9.
 IGD105I SYS04075.T125218.RA000.WYL#PROT.SYSUT1.H01   DELETED,   DDNAME=SYSUT1
 IEF285I   GG$SLP.WYL#PROT.JOB03556.D0000101.?          SYSOUT
 IGD106I SYS04075.T125218.RA000.WYL#PROT.PRINT.H01    PASSED,    DDNAME=SYSPRINT
 IEF285I   GG$SLP.WYL#PROT.JOB03556.D0000102.?          SYSOUT
 IEF285I   WYL.GS.WYL.WYLBUR.SOURCE                     KEPT
 IEF285I   VOL SER NOS= SYSB05.
 *********************************************************************************
 *   WYL#PROT/ASM     /                    Return Code      Zero                 *
 *   Region used      4376K (4096K user + 280K system)                           *
 *   Extended region  10292K (412K user + 9880K system)                          *
 *                                                                               *
 *   Paging              In      Out                                             *
 *   Private <-> Aux      0        0       CPU time (TCB)   00:00:02.87          *
 *   Private <-> Exp      0        0       CPU time (SRB)   00:00:00.08          *
 *   VIO                  0        0       Elapsed time    917:35:32.83          *
 *   Common               0      ---                                             *
 *                                                                               *
 *                                                                               *
 *   CPU Usage         53.81        $33.36  Standard Processing Unit Equivalent  *
 *                                  $33.36  Total Step execution charge          *
 *                                                                               *
 *    I/O count  DDname   Type Addr           I/O count  DDname   Type Addr      *
 *           84  STEPLIB  Disk 04DC                 298  SYSLIB   Disk 04DC      *
 *            0  SYSLIB   Disk 04DC                   0  SYSLIB   Disk 04DC      *
 *            6  SYSLIB   Disk 0402                 254  SYSLIB   Disk 04A0      *
 *            0  SYSLIB   Disk 04A0                 194  SYSUT1   VIO  ----      *
 *            0  SYSTERM       ----                  78  SYSPRINT Disk 04E3      *
 *            0  SYSUDUMP      ----                   4  SYSIN    Disk 04DC      *
 *********************************************************************************
 IEF373I STEP/ASM     /START 2004075.1252
 IEF374I STEP/ASM     /STOP  2004075.1252 CPU    0MIN 02.87SEC SRB    0MIN 00.08SEC VIRT  4096K SYS   280K EXT     412K SYS    9880K
 IEF236I ALLOC. FOR WYL#PROT EDIT
 IEF237I 0402 ALLOCATED TO STEPLIB
 IGD103I SMS ALLOCATED TO DDNAME ASMOUT
 IEF237I JES2 ALLOCATED TO SYSPRINT
 IEF142I WYL#PROT EDIT - STEP WAS EXECUTED - COND CODE 0000
 IEF285I   WYL.GG.SYS.LINKLIB                           KEPT
 IEF285I   VOL SER NOS= SYSB02.
 IGD105I SYS04075.T125218.RA000.WYL#PROT.PRINT.H01    DELETED,   DDNAME=ASMOUT
 IEF285I   GG$SLP.WYL#PROT.JOB03556.D0000103.?          SYSOUT
 *********************************************************************************
 *   WYL#PROT/EDIT    /                    Return Code      Zero                 *
 *   Region used      380K (116K user + 264K system)                             *
 *   Extended region  9812K (4K user + 9808K system)                             *
 *                                                                               *
 *   Paging              In      Out                                             *
 *   Private <-> Aux      0        0       CPU time (TCB)   00:00:00.26          *
 *   Private <-> Exp      0        0       CPU time (SRB)   00:00:00.01          *
 *   VIO                  0        0       Elapsed time    917:35:24.30          *
 *   Common               0      ---                                             *
 *                                                                               *
 *                                                                               *
 *   CPU Usage          4.87         $3.01  Standard Processing Unit Equivalent  *
 *                                   $3.01  Total Step execution charge          *
 *                                                                               *
 *    I/O count  DDname   Type Addr           I/O count  DDname   Type Addr      *
 *            2  STEPLIB  Disk 0402                  79  ASMOUT   Disk 04E3      *
 *            0  SYSPRINT      ----                                              *
 *********************************************************************************
 IEF373I STEP/EDIT    /START 2004075.1252
 IEF374I STEP/EDIT    /STOP  2004075.1252 CPU    0MIN 00.26SEC SRB    0MIN 00.01SEC VIRT   116K SYS   264K EXT       4K SYS    9808K
 *********************************************************************************
 *                                                                               *
 *                      S t a n f o r d   U n i v e r s i t y                    *
 *                                                                               *
 *                              *** Job Summary ***                              *
 *                                                                               *
 *   System Id      SYSB                   Input time     12:39:24  Mar 15, 2004 *
 *                                                                               *
 *   System Release SP6.1.0                Start time     12:52:19  Mar 15, 2004 *
 *                                                                               *
 *   Job name       WYL#PROT               Stop  time     00:00:00  Mar 15, 2004 *
 *                                                                               *
 *   Account        SLP$GG                 Elapsed time  917:35:33.96            *
 *                                                                               *
 *   User Name      Assemble PROT          CPU time       00:00:03.14            *
 *                                                                               *
 *   Job class      B                      SRB Time       00:00:00.09            *
 *                                                                               *
 *********************************************************************************
 IEF375I  JOB/WYL#PROT/START 2004075.1252
 IEF376I  JOB/WYL#PROT/STOP  2004075.1252 CPU    0MIN 03.14SEC SRB    0MIN 00.09SEC
1Assembler Done PROT No Statements Flagged
1         High Level Assembler Option Summary                   (PTF P72483 )                                               Page    1
-                                                                                            HLASM R4.0  2004/03/15 12.52
0  No Overriding ASMAOPT Parameters
   Overriding Parameters-  NORENT,TERM,FLAG(NOCONT),US(MAP,WARN(10)),NODECK,LC(32767),XREF(SHORT),ESD,DXREF,NOOBJECT
   No Process Statements


   Options for this Assembly
0  NOADATA
     ALIGN
   NOASA
     BATCH
     CODEPAGE(047C)
   NOCOMPAT
   NODBCS
 3 NODECK
 3   DXREF
 3   ESD
   NOEXIT
 3   FLAG(0,ALIGN,NOCONT,NOIMPLEN,NOPAGE0,PUSH,RECORD,NOSUBSTR,USING0)
   NOFOLD
   NOGOFF
   NOINFO
     LANGUAGE(EN)
   NOLIBMAC
 3   LINECOUNT(32767)
     LIST(121)
     MXREF(SOURCE)
 3 NOOBJECT
     OPTABLE(UNI,NOLIST)
   NOPCONTROL
   NOPESTOP
   NOPROFILE
   NORA2
 3 NORENT
     RLD
     RXREF
     SIZE(MAX)
     SYSPARM()
 3   TERM(WIDE)
   NOTEST
     THREAD
   NOTRANSLATE
 3   USING(NOLIMIT,MAP,WARN(10))
 3   XREF(SHORT)

   No Overriding DD Names

1PROT     External Symbol Dictionary                                                                                        Page    2
-Symbol   Type   Id     Address  Length     LD ID  Flags Alias-of                            HLASM R4.0  2004/03/15 12.52
0WYLPROT   SD 00000001 00000000 00000D28             00
 PROT2025  LD          00000000           00000001
 WYLVOL    ER 00000002
 PROTECT   LD          00000018           00000001
 SEG       ER 00000003
 ACCESS    LD          00000094           00000001
 RACGREM   LD          00000600           00000001
 PROTFREE  LD          000006B6           00000001
 SECSYS    LD          00000756           00000001
 RACCHKOP  LD          000007D6           00000001
 RACDSOP   LD          00000828           00000001
 ACEECLR   LD          00000872           00000001
 ACEESET   LD          000008C6           00000001
 RACADD    LD          00000922           00000001
 RACDEL    LD          00000954           00000001
 RACUPDPW  LD          00000986           00000001
 RACPASCK  LD          00000A06           00000001
 KWIO      ER 00000004
 WAITOFF   ER 00000005
 WAITON    ER 00000006
 AMODE24   ER 00000007
 AMODE31   ER 00000008
 DOPEN     ER 00000009
 EXTCLOSE  ER 0000000A

1PROT     WYLBUR's Security System Interface Commands                                                                       Page    3
0Loc    Object Code    Addr1 Addr2  Stmt Lv Lineno    Source Statement                    (Asmedit 3.3)  HLASM R4.0  2004/03/15 12.52
+___    ______ ____    _____ _____  ____ __ ______    ______ _________
0                                      2              *******************************************************************
                                       3              *                                                                 *
                                       4              *     WYLBUR/370 - Release VI - Class I - Stanford Proprietary    *
                                       5              *                                                                 *
                                       6              *******************************************************************
-                                      8                       HIBAL
                                     989
                                     990                       REGS  FSR,,,,,,IOWAR,BR,(WAR,LSR),PAR,PBR,CPR,CVR,SPR,RAR
                                    1139
 000000                00000 00D28  1140              WYLPROT  CSECT
                                    1144              PROT     IDENT 2025                11:49:30 01/25/02  (SLP)
                                    1147             +
                                    1148    01-IDENT +         ENTRY PROT2025
                                    1149             +
 000000 16D7D9D6E3F2F0F2            1150    01-IDENT +PROT2025 DC    AL1(22),C'PROT2025,15MAR04,12:52'
                                    1151             +*
-                                   1154                       SYSDEFN ,                 Define installation params
                                    1155                       GBLC  &INSTALN            Installation name (see SYSDEFN)
                                    1156                       GBLC  &PUBACCT
1PROT     (PROT2025) (12:52) (15MAR04) WYLBUR's Security System Interface Commands                                          Page    4
0Loc    Object Code    Addr1 Addr2  Stmt Lv Lineno    Source Statement           (Hibal 5, Asmedit 3.3)  HLASM R4.0  2004/03/15 12.52
+___    ______ ____    _____ _____  ____ __ ______    ______ _________
0                                   1158                       COPY  RTNCODES
-                                   1160             =***  symbolic names for return codes going to ntgdopn routine
                                    1161             =*
                                    1162             =RTNNODS  EQU   4         data set not found
                                    1163             =RTNDUPDS EQU   8         data set already exists
                                    1164             =RTNNOSPC EQU   12        no space for data set
                                    1165             =RTNINUSE EQU   16        data set in use
                                    1166             =RTNINVBS EQU   20        invalid block size
                                    1167             =RTNILDSN EQU   24        illegal dsname
                                    1168             =RTNILORG EQU   28        invalid recfm or dsorg
                                    1169             =** talocode is 32 defined in wylconst
                                    1170             =** abrtcode is 36 defined in wylconst
                                    1171             =RTNBDVOL EQU   40        invalid volume
                                    1172             =RTNBDMBR EQU   44        invalid member name
                                    1173             =RTNDIRFL EQU   48        directory full
                                    1174             =RTNEXPDT EQU   52        data set is expiration date protected
                                    1175             =RTNOVSP  EQU   56        user has exceeded sequential save space
                                    1176             =RTNDIRIO EQU   60        directory i/o error
                                    1177             =RTNBDCAT EQU   64        invalid catalog reference
                                    1178             =RTNNTPDS EQU   68        dataset is not a pds (for scratch)
                                    1179             =RTNNOACS EQU   72        dataset access denied by security sys
                                    1180             =RTNBUSY  EQU   76        can't enq on ucbs just yet
                                    1181             =RTNSHERR EQU   80        error in show dsnames/directory routine
                                    1182             =RTNNOSTR EQU   84        can't allocate the volume
                                    1183             =RTNALLER EQU   88        allocation error
                                    1184             =RTNVOLNA EQU   92        volume requested is not available
                                    1185             =RTNVOLNO EQU   96        no volume paths available
                                    1186             =RTNCATDV EQU   100       data set cataloged on different volume
                                    1187             =RTNBKUP  EQU   104       Volume undergoing backup
                                    1188    **ISU**  =RTNCATER EQU   108       "catastrophic" error
1PROT     (PROT2025) (12:52) (15MAR04) WYLBUR's Security System Interface Commands                                          Page    5
0Loc    Object Code    Addr1 Addr2  Stmt Lv Lineno    Source Statement           (Hibal 5, Asmedit 3.3)  HLASM R4.0  2004/03/15 12.52
+___    ______ ____    _____ _____  ____ __ ______    ______ _________
0                                   1190              *
                                    1191                       PUSH  DSECTS
 USING  CP,R11                      1202             =         USING (CP),(CV)
 USING  CV,R12
 000017                00000 00D28  1221             =         POP   PRINT
                                   12739
                                   12740                       AIF   ('&INSTALN' NE 'STANFORD').NOTSTAN
1PROT     (PROT2025) (12:52) (15MAR04) Stanford Access Control System Interface                                             Page    6
0Current Usings:  (CP,R11) (CV,R12)
0Loc    Object Code    Addr1 Addr2  Stmt Lv Lineno    Source Statement           (Hibal 5, Asmedit 3.3)  HLASM R4.0  2004/03/15 12.52
+___    ______ ____    _____ _____  ____ __ ______    ______ _________
0000000                00000 00056 12742              PROTWA   RECORD  BEGIN
                                   12750  1                      ¿þþþþþþþþþþþþþþþþþþþþþþþþþþþþþþþþþþþþþþþþþþþþþþþþþþþþþþþÜ
                                   12751  1                      Ÿ  protect work area                                    Ÿ
                                   12752  1                      Ÿ                                                       Ÿ
                                   12753  1                      Ÿ  flag definitions and storage areas for set and show  Ÿ
                                   12754  1                      Ÿ    protect commands.                                  Ÿ
                                   12755  1                      ¾þþþþþþþþþþþþþþþþþþþþþþþþþþþþþþþþþþþþþþþþþþþþþþþþþþþþþþþ»
 000000 00                         12756  1           PRFLGS1    FLAG  ,                   Target flags (set prot)
 PRFLGS1.FTARGUSR  80 ONES         12760  1                      FLAG  FTARGUSR            User specified in target
 PRFLGS1.FTARGGRP  40 ONES         12765  1                      FLAG  FTARGGRP            Group
 PRFLGS1.FTARGCOM  20 ONES         12770  1                      FLAG  FTARGCOM              community
 PRFLGS1.FTARGPUB  10 ONES         12775  1                      FLAG  FTARGPUB              public
 PRFLGS1.FTARGMSK  08 ONES         12780  1                      FLAG  FTARGMSK              filemask
 PRFLGS1.FTARGCPM  38 NZ           12785  1                      FLAG  (FTARGCPM,FTARGCOM+FTARGPUB+FTARGMSK,NZ)
 PRFLGS1.FTARGANY  F8 NZ           12801  1                      FLAG  (FTARGANY,FTARGCPM+FTARGUSR+FTARGGRP,NZ)
                                   12817  1
 000001 00                         12818  1           PRFLGS2    FLAG  FSETCMD             Set protect command
 PRFLGS2.FSETCMD   80 ONES
 PRFLGS2.FSHOCMD   80 OFF          12824  1                      FLAG  (FSHOCMD,FSETCMD,OFF)     sho protect command
 PRFLGS2.FPRIVRES  40 ONES         12833  1                      FLAG  FPRIVRES            'reset' specified  (set prot)
 PRFLGS2.FNOIBM    20 ONES         12838  1                      FLAG  FNOIBM              'noibm'
 PRFLGS2.FUNPROT   10 ONES         12843  1                      FLAG  FUNPROT             'unprot'
 PRFLGS2.FACCLOG   08 ONES         12848  1                      FLAG  FACCLOG             Log option specified
 PRFLGS2.FDSGLOBL  78 NZ           12853  1                      FLAG  (FDSGLOBL,FPRIVRES+FNOIBM+FUNPROT+FACCLOG,NZ)
 PRFLGS2.FREMPER   04 ONES         12874  1                      FLAG  FREMPER             permit removed for 'none'
 PRFLGS2.FPRIVSET  02 ONES         12879  1                      FLAG  FPRIVSET            Some access priv specified (set)
 PRFLGS2.FGRPPERM  01 ONES         12884  1                      FLAG  FGRPPERM            Group-level permit
                                   12889  1
 000002 00                         12890  1           PRFLGS3    FLAG  ,                   Warning message flags
 PRFLGS3.FPUBOVER  80 ONES         12894  1                      FLAG  FPUBOVER              overriding public permit
 PRFLGS3.FCOMOVER  40 ONES         12899  1                      FLAG  FCOMOVER              overriding comm permit
 PRFLGS3.FGRPOVER  20 ONES         12904  1                      FLAG  FGRPOVER              overriding group permit
 PRFLGS3.FNOROOM   10 ONES         12909  1                      FLAG  FNOROOM               permit list full
                                   12914  1
 000003 00                         12915  1           PRFLGS4    FLAG  ,
 PRFLGS4.FSETLIS   80 ONES         12919  1                      FLAG  FSETLIS             'list' option   (set)
 PRFLGS4.FSHOLINE  40 ONES         12924  1                      FLAG  FSHOLINE            >=1 response line written  (sho)
 PRFLGS4.FSHOHEX   20 ONES         12929  1                      FLAG  FSHOHEX             'hex'  (sho or set/list)
 PRFLGS4.FPSEGD    10 ONES         12934  1                      FLAG  FPSEGD              priv term seg'd on current line
 PRFLGS4.FACCESOK  08 ONES         12939  1                      FLAG  FACCESOK            Access ok  (set & show)
 PRFLGS4.FPERMSET  04 ONES         12944  1                      FLAG  FPERMSET            New permit has been set (set)
                                   12949  1
 000004 00                         12950  1           PRFLGS5    FLAG  ,
 PRFLGS5.FLOGALL   80 ONES         12954  1                      FLAG  FLOGALL             Log=all  specified (set)
 PRFLGS5.FLOGWRIT  40 ONES         12959  1                      FLAG  FLOGWRIT            Log=write
 PRFLGS5.FLOGPROT  20 ONES         12964  1                      FLAG  FLOGPROT            Log=prot
 PRFLGS5.FLOGNONE  10 ONES         12969  1                      FLAG  FLOGNONE            Log=none
                                   12974  1
 000005 00                         12975  1           PFFLGS6    FLAG  ,                   <object> flags
 PFFLGS6.FOBJVOP   80 ONES         12979  1                      FLAG  FOBJVOP             Volume-owner permit
 PFFLGS6.FOBJTAPE  40 ONES         12984  1                      FLAG  FOBJTAPE            Tape permit
 PFFLGS6.FOBJDISK  20 ONES         12989  1                      FLAG  FOBJDISK            Disk volume permit
 PFFLGS6.FOBJACCT  10 ONES         12994  1                      FLAG  FOBJACCT            Account-level permit
 PFFLGS6.FOBJDSN   F0 OFF          12999  1                      FLAG  (FOBJDSN,FOBJVOP+FOBJTAPE+FOBJDISK+FOBJACCT,Z) ds per
1PROT     (PROT2025) (12:52) (15MAR04) Stanford Access Control System Interface                                             Page    7
0Current Usings:  (CP,R11) (CV,R12)
0Loc    Object Code    Addr1 Addr2  Stmt Lv Lineno    Source Statement           (Hibal 5, Asmedit 3.3)  HLASM R4.0  2004/03/15 12.52
+___    ______ ____    _____ _____  ____ __ ______    ______ _________
0                                  13020  1
 DSNWAF1.FDSOWNER  40 NZ           13021  1                      FLAG  (FDSOWNER,DSNWAF1.DSNFMYDS,NZ)
 DSNWAF1.FDSNWYL   80 NZ           13031  1                      FLAG  (FDSNWYL,DSNWAF1.DSNFSTD,NZ)
 USERKIFL.FSYSPR   20 NZ           13041  1                      FLAG  (FSYSPR,USERKIFL.KWRIFSPR,NZ)
 USERKIFL.FACCTPR  40 NZ           13051  1                      FLAG  (FACCTPR,USERKIFL.KWRIFAPR,NZ)
-000006                            13062  1           TARGACCT   DS    0CL5                Target acct from set cmd
 000006                            13063  1           TARGUSER   DS    CL3
 000009                            13064  1           TARGGRP    DS    CL2
 00000B                            13065  1           TARGCOM    DS    X                   Targacct user comm
                                   13066  1
 00000C                            13067  1           DSNACCT    DS    0CL5                Ds owner acct (from dsname)
 00000C                            13068  1           DSNUSER    DS    CL3
 00000F                            13069  1           DSNGRP     DS    CL2
 000011                            13070  1           DSCOM      DS    X
                                   13071  1
 000012                            13072  1           USERACCT   DS    0CL7                Current user
 000012                            13073  1           USERUSER   DS    CL3
 000015                            13074  1           USERGRP    DS    CL2
 000017                            13075  1           USERSBGP   DS    CL2                 Subgroup
 000019                            13076  1           USERKIFL   DS    X
 00001A                            13077  1           USERKAFL   DS    X
 00001B                            13078  1           USERCOM    DS    X
                                   13079  1
 00001C                            13080  1           PRIVSAVE   DS    X                   Access priv scanned from set cmd
 00001D                            13081  1           OTESPRIV   DS    X                   Strongest priv granted or withdrawn
 00001E                            13082  1           OACCPRIV   DS    X                   user's existing access to ds
 00001F                            13083  1           PERMWK     DS    CL5                 Work area for unscrambled permit
                                   13084  1
 000024                            13085  1           HEXLINE    DS    CL50                Area for sho prot hex
 000056                00056 00056 13086                       END
                                   13095                       ¿þþþþþþþþþþþþþþþþþþþþþþþþþþþþþþþþþþþþþþþþþþþþþÜ
                                   13096                       Ÿ  Formerly in ACS.MACLIB as member ACSDEFN.  Ÿ
                                   13097                       Ÿ     10/90, Niz                              Ÿ
                                   13098                       ¾þþþþþþþþþþþþþþþþþþþþþþþþþþþþþþþþþþþþþþþþþþþþþ»
                                   13099              *
                                   13100              *        ACSDEFN
                                   13101              *              SCIP ACCESS CONTROL SYSTEM
                                   13102              *              MISCELLANEOUS DEFINITIONS
                                   13103              *              J. LIPKIS, 9/76. LAST MODIFIED 10/77
                                   13104              *
                                   13105              *  PRIMITIVE ACCESS PRIVILEGE DEFINITIONS
                                   13106              PREAD    EQU   X'80'               READ ACCESS
                                   13107              PWRITNK  EQU   X'40'               KEYWORD-NOT-REQUIRED FLAG
                                   13108              PWRITE   EQU   X'20'               WRITE ACCESS (KW REQ UNLESS PWRITNK)
                                   13109              PAPPEND  EQU   X'10'               APPEND ACCESS
                                   13110              PEXEC    EQU   X'08'               EXECUTE ACCESS
                                   13111              PEXTEND  EQU   X'04'               EXTEND ACCESS
                                   13112              PSCR     EQU   X'02'               SCRATCH & RENAME ACCESS
                                   13113              *
                                   13114              *  EXTERNAL ACCESS CATEGORIES
                                   13115              ACS$$R   EQU   PREAD+PEXEC,,C'N'   'R' ACCESS PRIV
                                   13116              ACS$$K   EQU   ACS$$R+PWRITE+PAPPEND+PSCR,,C'N'   'K' ACCESS PRIV
1PROT     (PROT2025) (12:52) (15MAR04) Stanford Access Control System Interface                                             Page    8
0Current Usings:  (CP,R11) (CV,R12)
0Loc    Object Code    Addr1 Addr2  Stmt Lv Lineno    Source Statement           (Hibal 5, Asmedit 3.3)  HLASM R4.0  2004/03/15 12.52
+___    ______ ____    _____ _____  ____ __ ______    ______ _________
0                                  13117              ACS$$W   EQU   ACS$$K+PWRITNK,,C'N'  'W' ACCESS PRIV
                                   13118              ACS$$U   EQU   ACS$$R+PWRITE+PAPPEND+PWRITNK,,C'N' 'U' ACCESS PRIV
                                   13119              ACS$$E   EQU   ACS$$W+PEXTEND,,C'N'  'E' ACCESS PRIV
                                   13120              ACS$$D   EQU   PSCR+PWRITNK,,C'N'  'D' ACCESS PRIV
                                   13121              ACS$$N   EQU   0,,C'N'             'N' ACCESS PRIV
                                   13122              *
                                   13123              *  ACWOPER - FLAG DEFINITIONS
                                   13124              $ACSWRIT EQU   PWRITE+PWRITNK      WRITE OPERATION
                                   13125              $ACSREAD EQU   PREAD               READ OPERATION
                                   13126              $ACSSCRN EQU   PSCR+PWRITNK        SCRATCH OPER
                                   13127              $ACSEXEC EQU   PEXEC               EXECUTE
                                   13128              $ACSEXTD EQU   PEXTEND             EXTEND
                                   13129              $ACSAPND EQU   PAPPEND             APPEND
                                   13130              *
                                   13131              *  ACWMODE - FLAG DEFINITIONS
                                   13132              MINQ     EQU   X'80'               GENERAL INQUIRY CALL
                                   13133              MOPEN    EQU   X'40'               OPEN/EOV CALL
                                   13134              MSCRATCH EQU   X'20'               SCRATCH/RENAME CALL
                                   13135              MOBDSCB  EQU   X'10'               F1 DSCB OBTAINED BY CALLER
                                   13136              MCLR     EQU   X'08'               FORCE CLEAR REQUESTED
                                   13137              MNEW     EQU   X'04'               NEW (NON-EXISTENT) DATASET
                                   13138              MLOG     EQU   X'02'               LOG ACCESS ATTEMPT
                                   13139              MALLOC   EQU   X'01'               ALLOCATION (DADSM) CALL
                                   13140              *
                                   13141              *  DS1ACSFL - FLAG DEFINITIONS
                                   13142              DS1NOLD  EQU   X'80'               DSCB PROCESSED BY A.C.S.
                                   13143              DS1UPROT EQU   X'40'               ACCESS STATUS CHANGED BY USER
                                   13144              DS1EXTD  EQU   X'20'               EXTENDED PERMITS SET
                                   13145              DS1LOG#1 EQU   X'10'               ACCESS LOGGING FLAGS
                                   13146              DS1LOG#2 EQU   X'08'
                                   13147              DS1RESVD EQU   X'04'               RESERVED
                                   13148              DS1CONV1 EQU   X'02'               ALLOC'D OR CONVERTED SINCE 7/76
                                   13149              DS1WYLSP EQU   X'01'               WYLBUR SPACE ACCTG FLAG
                                   13150
                                   13151              DS1LOGAL EQU   DS1LOG#1+DS1LOG#2   ALWAYS LOG ACCESS TO DS
                                   13152              DS1LOGWR EQU   DS1LOG#1            LOG WRITE ACCESS & SET PROT ONLY
                                   13153              DS1LOGPR EQU   DS1LOG#2            LOG SET PROT CMDS ONLY
                                   13154              *
                                   13155              *
-
-
                                   13157                       COPY  UTYPDEFN
                                   13158             =*
                                   13159             =*        SCIP USERTYPE DEFINITIONS
                                   13160             =*              SYMBOLICS FOR USE WITH HASPSERV MACRO, USERTYPE
                                   13161             =*              FUNCTION.
                                   13162             =*
                                   13163             =$USOPEN  EQU   X'01'               OPEN-SHOP - ACADEMIC, INSTR,
                                   13164             =*                                    RESEARCH, OUTSIDE USERS
                                   13165             =$USINTUS EQU   X'02'               INTERNAL - USER SERVICES
1PROT     (PROT2025) (12:52) (15MAR04) Stanford Access Control System Interface                                             Page    9
0Current Usings:  (CP,R11) (CV,R12)
0Loc    Object Code    Addr1 Addr2  Stmt Lv Lineno    Source Statement           (Hibal 5, Asmedit 3.3)  HLASM R4.0  2004/03/15 12.52
+___    ______ ____    _____ _____  ____ __ ______    ______ _________
0                                  13166             =*                                    (GROUP GA)
                                   13167             =$USINTMS EQU   X'04'               INTERNAL - OPS, ACCOUNTING, MISC.
                                   13168             =*                                    (GROUPS G,H)
                                   13169             =$USINTSY EQU   X'08'               INTERNAL - SYSTEMS
                                   13170             =*                                    (GROUPS GG,GS)
                                   13171             =$USADMIN EQU   X'10'               ADMINISTRATIVE USERS
                                   13172             =*                                    (GROUPS A,C,GE)
                                   13173             =$USSTC   EQU   X'20'               DIRECT STARTED TASK (MVS)
                                   13174             =
                                   13175             =$USRLIN  EQU   X'40'               RLIN
                                   13176             =*                                    (GROUPS B,Y,Z,HH)
                                   13177             =*
                                   13178             =$USINTAL EQU   $USINTUS+$USINTMS+$USINTSY+$USSTC  ALL INTERNAL GROUPS
1PROT     (PROT2025) (12:52) (15MAR04) Stanford Access Control System Interface                                             Page   10
0Current Usings:  (CP,R11) (CV,R12)
0Loc    Object Code    Addr1 Addr2  Stmt Lv Lineno    Source Statement           (Hibal 5, Asmedit 3.3)  HLASM R4.0  2004/03/15 12.52
+___    ______ ____    _____ _____  ____ __ ______    ______ _________
0000017                00000 00D28 13180              WYLPROT  CSECT
                                   13182                       EXTRN WYLVOL
-                                  13184                       MACRO
                                   13185              &L       SETPERM  &NEW,&OLDLOC     Link to setperm routine
                                   13186              &L      $LA    R1,&NEW
                                   13187                      $LA    R2,&OLDLOC
                                   13188                       LCALL SETPERM
                                   13189                       MEND
-                                  13191                       MACRO
                                   13192              &L       SUBTEST  &A,&B,&REG=R2
                                   13193              .*  BYTE SUBSET test - determines whether the set of one bits
                                   13194              .*   IN &A is a subset of that in &b.
                                   13195              .*   HIBAL COND codes 'sub' or 'nsub' are used to test the result.
                                   13196                       LCLC  &LOC
                                   13197              &L      $LC    &REG,&A
                                   13198                       IF    (&REG,NZ),BEGIN     &a=0 => subset, cannot use tm
                                   13199              &LOC     SETC  '&B'
                                   13200                       AIF   ('&B' NE '*').NSTAR
                                   13201              &LOC     SETC  'PRIVSAVE'          Default for &b
                                   13202              .NSTAR   EX    &REG,'TM  &LOC,*-*'
                                   13203                       END
                                   13204                       ELSE  'TM  *+1,255'       Set cc=ones for &a=0 case
                                   13205                       MEND
                                   13206
                                   13207                       DEFCC (SUB),1
                                   13208                       DEFCC (NSUB),14
1PROT     (PROT2025) (12:52) (15MAR04) SET and SHOW PROTECT Commands                                                        Page   11
0Current Usings:  (CP,R11) (CV,R12)
0Loc    Object Code    Addr1 Addr2  Stmt Lv Lineno    Source Statement           (Hibal 5, Asmedit 3.3)  HLASM R4.0  2004/03/15 12.52
+___    ______ ____    _____ _____  ____ __ ______    ______ _________
0                                  13211              ¿þþþþþþþþþþþþþþþþþþþþþþþþþþþþþþþþþþþþþþþþþþþþþþþþþþþþþþþþþþþþþþþþþþþþþÜ
                                   13212              Ÿ                                                                     Ÿ
                                   13213              Ÿ  PROTECT -- SET/SHOW PROTECT commands.                              Ÿ
                                   13214              Ÿ                                                                     Ÿ
                                                      ¾þþþþþþþþþþþþþþþþþþþþþþþþþþþþþþþþþþþþþþþþþþþþþþþþþþþþþþþþþþþþþþþþþþþþþ»
0000018 188D/4570 C74C_            13215              PROTECT  GENTER
 USING  *,R7
 000026 4110 7048/4100_      0006E 13232                       TSEG  'SCIP security system SET/SHOW PROTECT'
 000038 4110 7026/4100_      0004C 13250                       ABORT ' commands are no longer supported.'
                                   13257
                                   13258                       QLTORG
1PROT     (PROT2025) (12:52) (15MAR04) Access Interface & UAL Setup  (for DISK)                                             Page   12
0Current Usings:  (*,R7) (CP,R11) (CV,R12)
0Loc    Object Code    Addr1 Addr2  Stmt Lv Lineno    Source Statement           (Hibal 5, Asmedit 3.3)  HLASM R4.0  2004/03/15 12.52
+___    ______ ____    _____ _____  ____ __ ______    ______ _________
0                                  13274              ¿þþþþþþþþþþþþþþþþþþþþþþþþþþþþþþþþþþþþþþþþþþþþþþþþþþþþþþþþþþþþþþþþþþþþþÜ
                                   13275              Ÿ                                                                     Ÿ
                                   13276              Ÿ  access - Routine to validate data set access.                      Ÿ
                                   13277              Ÿ           Called by DOPEN (DISK) for use, save, scratch,            Ÿ
                                   13278              Ÿ             copy from, exec from, etc.                              Ÿ
                                   13279              Ÿ                                                                     Ÿ
                                   13280              Ÿ             Input - iowa (@r6) containing dscb from obtain          Ÿ
                                   13281              Ÿ                                 (unless new ds)                     Ÿ
                                   13282              Ÿ                                                                     Ÿ
                                   13283              Ÿ             Returns -                                               Ÿ
                                   13284              Ÿ                R15 -  0  access ok                                  Ÿ
                                   13285              Ÿ                      72  access violation or password needed        Ÿ
                                   13286              Ÿ                R0 -   0  no password needed or wanted               Ÿ
                                   13287              Ÿ                       4  issue password prompt                      Ÿ
                                   13288              Ÿ                                                                     Ÿ
                                                      ¾þþþþþþþþþþþþþþþþþþþþþþþþþþþþþþþþþþþþþþþþþþþþþþþþþþþþþþþþþþþþþþþþþþþþþ»
-000093 00/50E0 D000/902_          13290              ACCESS   XENTER
 DROP   *,R7
 USING  *,R7
 USING  IOWA,R6                    13312                       USING IOWA,R6             Entry assumption
                                   13321
 0000AE 9140 C4C6/4710_004C6       13322                       IF    CVFNORACF,ACSSTANF  Skip to Stanford security
                                   13340                       ¿þþþþþþþþþþþþþþþþþþþþþþþþþþþþþþþþþþþþþþþþþþþþþþþþþþþþþþþþþþþþþÜ
                                   13341                       Ÿ  Check for a RACF identified user.  If no attempt has been  Ÿ
                                   13342                       Ÿ  made thus far, identify the user to RACF.                  Ÿ
                                   13343                       ¾þþþþþþþþþþþþþþþþþþþþþþþþþþþþþþþþþþþþþþþþþþþþþþþþþþþþþþþþþþþþþ»
 0000B6 9500 B1FC/4770_001FC       13344                       IF    (CPRACF1,Z),'ACALL CRTACEE'   Identify user to RACF
                                   13369
 0000C4 9180 B1FC/47E0_001FC       13370                       IF    ~CPRACDEF,ACSSTANF  Abort if not RACF defined user
 0000CC 4100 0002            00002 13388                       LA    R0,X'02'            Set read access
 0000D0 1300                       13389                       LCR   R0,R0               Seet for LOG=NONE
 0000D2 58E0 7BEE/0DEE       00C9C 13390                       ACALL RACFCHK             Check RACF status
 0000D8 59F0 7BF2/47A0_      00CA0 13394                       IF    (R15,GE,8),ACSSTANF Exit for non-racf protected dsn
 0000E0 91C0 BF34/47E0_00F34       13414                       IF    (DSNWAF1.DSNFSTD*DSNFMYDS),BEGIN
 0000E8 D202 D000 6277 00000 00277 13433  1                      MVC   @R13(3),DSNAME+7    SET "UUU" FROM DATA SET NAME
 0000EE D201 D003 6274 00003 00274 13434  1                      MVC   @R13+3(2),DSNAME+4  SET "GG" FROM DATA SET NAME
 0000F4 D504 B3B4 D000_003B4 00000 13435  1                      IF    (CPSACCT,NE,@R13),BEGIN NON-OWNER USE GS$WYL ACEE
 0000FE 58E0 7BF6/0DEE       00CA4 13452  2                        ACALL ACEECLR             CLEAR SUBTASK ACEE POINTER
 000104                            13456  1                      END   ,
 000104 47F0 7204            002B2 13460  1                      B     ACSOK               User's own access, (or MAIL)
 000108                            13461                       END   ,
 000108 4100 0002            00002 13465                       LA    R0,X'02'            Set read access
 00010C 58E0 7BEE/0DEE       00C9C 13466                       ACALL RACFCHK             Check RACF status
 000112 59F0 7BFA/4780_      00CA8 13470                       IF    (R15,EQ,4),ACS8     RACF-protected, access prevented
 00011A 91D0 BF35/4780_00F35       13490                       IF    (DSNWAF2.DSNFWRT+DSNFSCR+DSNFALLO,Z),ACSOK
 000122 4100 0080            00080 13517                       LA    R0,X'80'            SET ALTER ACCESS
 000126 1300                       13518                       LCR   R0,R0               SET FOR LOG=NONE
 000128 58E0 7BEE/0DEE       00C9C 13519                       ACALL RACFCHK             CHECK RACF STATUS FOR ALTER
 00012E 59F0 7BFE/4780_      00CAC 13523                       IF    (R15,EQ,0),ACSOK    OK - LET HIM GO
 000136 58E0 7BF6/0DEE       00CA4 13543                       ACALL ACEECLR             PASSWORD ACCESS REQUIRES GS$WYL
 00013C 47F0 71F4            002A2 13547                       B     ACSASK              NO - PROMPT FOR KEYWORD
 000140                            13548              ACSSTANF LABEL ,                   CONTINUE WITH STANFORD SECURITY
1PROT     (PROT2025) (12:52) (15MAR04) Access Interface & UAL Setup  (for DISK)                                             Page   13
0Current Usings:  (IOWA,R6) (*,R7) (CP,R11) (CV,R12)
0Loc    Object Code    Addr1 Addr2  Stmt Lv Lineno    Source Statement           (Hibal 5, Asmedit 3.3)  HLASM R4.0  2004/03/15 12.52
+___    ______ ____    _____ _____  ____ __ ______    ______ _________
0                                  13551                       ¿þþþþþþþþþþþþþþþþþþþþþþþþþþþþþþþþþþþþþþþþþþþþþÜ
                                   13552                       Ÿ  Stanford security system access checking.  Ÿ
                                   13553                       ¾þþþþþþþþþþþþþþþþþþþþþþþþþþþþþþþþþþþþþþþþþþþþþ»
 000140 91D0 616C      0016C       13554                       TM    F2,DSNFALLO+DSNFWRT+DSNFSCR  scratch and rewrite?
 000144 4780 70C2            00170 13555                       BZ    ACSREAD             Br if only a read
 000148 9140 616C      0016C       13556                       TM    F2,DSNFSCR          Create new?
 00014C 4780 70BA            00168 13557                       BZ    ACSMAKE             Yes (save cmd)
                                   13558              M1       EQU   MEMBER,1,C'C'
 000150 9540 62F8/4780_002F8       13559                       IF  ((M1,EQ,' '),OR,(M1,EQ,X'00'),OR,(M1,EQ,X'FF')),ACSSCR
                                   13609
 000168 9260 6468      00468       13610              ACSMAKE  MVI   ACWOPER,$ACSWRIT    Treat as a write
 00016C 47F0 70CE            0017C 13611                       B     ACSSTO              - Go on
                                   13612
 000170 9280 6468      00468       13613              ACSREAD  MVI   ACWOPER,$ACSREAD    Read in data set
 000174 47F0 70CE            0017C 13614                       B     ACSSTO              - Go on
                                   13615
 000178 9242 6468      00468       13616              ACSSCR   MVI   ACWOPER,$ACSSCRN    Set scratch function
                                   13617              *       *B     ACSSTO              - Go on
                                   13618              *
 00017C 9290 6469      00469       13619              ACSSTO   MVI   ACWMODE,MINQ+MOBDSCB  Assume old ds
 000180 9500 6355      00355       13620                       CLI   SCRRET,0            Did obtain go ok?
 000184 4780 70DE            0018C 13621                       BE    ACSOBT              Yes,branch
 000188 9284 6469      00469       13622                       MVI   ACWMODE,MINQ+MNEW   No DSCB -- it's new
 00018C 4110 646E            0046E 13623              ACSOBT   LA    R1,UALAUTH          Addr of signed on user field
 000190 5010 6464            00464 13624                       ST    R1,ACSPACCT         Save user address
 000194 4110 69C4            009C4 13625                       LA    R1,DS1FMTID
 000198 5010 6460            00460 13626                       ST    R1,ACSPDSCB         Refresh dscb pointer
                                   13627              **             build ual in case of open
 00019C 4110 646C            0046C 13628                       LA    R1,ACSUAL           Point at ual
 0001A0 BF18 7C3E            00CEC 13629                       ICM   R1,8,=XL1'20'       Flag it as there
 0001A4 5010 6960            00960 13630                       ST    R1,JFCBVOLS+(4-1)*6 Save it in its place
 0001A8 D204 646E B3B4 0046E 003B4 13631                       MVC   UALAUTH(5),CPSACCT  Move in uuugg
 0001AE D604 B3B4 B3B4_003B4 003B4 13632                       IF    (CPSACCT,Z),'MVC UALAUTH(5),=C"&PUBACCT"'
 0001BE D201 6473 B3F0 00473 003F0 13654                       MVC   UALAUTH+5(2),CPSPROJ  Project-id
 0001C4 D701 6475 6475 00475 00475 13655                       CLEAR UALKIAF             Kifl & kafl are zero
 0001CA 9180 616B/47E0_0016B       13662                       IF    F1.DSNFSTD,BEGIN    Fill in ds owner if std
 0001D2 D202 6477 6277 00477 00277 13678  1                      MVC   UALKEY(DSNXUL-1),DSNXU+DSNAME  uuu
 0001D8 D201 647A 6274 0047A 00274 13679  1                      MVC   UALKEY+DSNXUL-1(DSNXGL-1),DSNXG+DSNAME  gg
 0001DE                            13680                       END
 0001DE 7134/47F0 713A_001DE 001D0 13684                       ELSE  'MVC UALKEY,=C"$$$$$"'  Owner of non-std ds
 0001E8 91C0 BF37/4780_00F37       13701                       IF    DSNFMAIL+DSNFSML,'MVC UALAUTH(5),UALKEY'  Special
 0001F6 D201 6475 B3BE 00475 003BE 13725                       MVC   UALKIAF,CPSKIFL     Move in kifl & kafl flags
 0001FC 1B11                       13726              ACSUBLT  CLEAR R1                  Zero
 0001FE 5010 647C            0047C 13731                       ST    R1,UALODSCB         Make sure its zero
 000202 9500 6355      00355       13732                       CLI   SCRRET,0            Did we get a dscb?
 000206 4770 7172            00220 13733                       BNE   ACSCAL              Br if not
 00020A 9140 BD51      00D51       13734                       TM    CPLFLG2,CPFSCRTC    Is this a replace operation?
 00020E 4780 7172            00220 13735                       BZ    ACSCAL              Br if not
 000212 D25F 6D48 69C4 00D48 009C4 13736                       MVC   DSCBSAVE(DS1SIZE),DS1FMTID  Save dscb
 000218 4110 6D48            00D48 13737                       LA    R1,DSCBSAVE         Point at saved dscb w/o dsn
 00021C 5010 647C            0047C 13738                       ST    R1,UALODSCB         Save address
 000220 9101 BF34/4710_00F34       13739              ACSCAL   IF    DSNWAF1.DSNFACCS,ACSOK  Aok if access chkd already
 000228 41F0 0000            00000 13759                       LA    R15,0               Zero
1PROT     (PROT2025) (12:52) (15MAR04) Access Interface & UAL Setup  (for DISK)                                             Page   14
0Current Usings:  (IOWA,R6) (*,R7) (CP,R11) (CV,R12)
0Loc    Object Code    Addr1 Addr2  Stmt Lv Lineno    Source Statement           (Hibal 5, Asmedit 3.3)  HLASM R4.0  2004/03/15 12.52
+___    ______ ____    _____ _____  ____ __ ______    ______ _________
0                                  13760                       ¿þþþþþþþþþþþþþþþþþþþþþþþþþþþþþþþþþþþþþþþÜ
                                   13761                       Ÿ  Dummy "SCIP security system" logic.  Ÿ
                                   13762                       ¾þþþþþþþþþþþþþþþþþþþþþþþþþþþþþþþþþþþþþþþ»
 00022C 1BFF                       13763                       CLEAR R15                 Assume OK for read
 00022E 91D0 BF35/4780_00F35       13767                       IF    DSNWAF2.DSNFWRT+DSNFSCR+DSNFALLO,'LA R15,8'  Denied
                                   13795              þþþþ
 00023A 47FF 7190            0023E 13796                       B     *+4(R15)            Br to respond to reply
 00023E 47F0 71A0            0024E 13797                       B     ACS0                0:  access is ok
 000242 47F0 71BA            00268 13798                       B     ACS4                4:  access is ok with password
 000246 47F0 7212            002C0 13799                       B     ACS8                8:  accesss not permitted
 00024A 47F0 7BB6            00C64 13800                       B     ACS12               12: logic problem (abend)
                                   13801
 00024E D704 6477 6477 00477 00477 13802              ACS0     CLEAR UALKEY              Show no password prompt
 000254 91D0 616C      0016C       13810                       TM    F2,DSNFALLO+DSNFWRT+DSNFSCR  save or scratch?
 000258 4780 7204            002B2 13811                       BZ    ACSOK               No, no verify required then
 00025C 9140 616B      0016B       13812                       TM    F1,DSNFMYDS         Is is my own ds?
 000260 4710 7204            002B2 13813                       BO    ACSOK               br if so don't even ask
 000264 47F0 71F0            0029E 13814                       B     ACSOKC              Must get verification
                                   13815
 000268 9108 C4C5/4710_004C5       13816              ACS4     IF    (CVFINIT,OR,CPFRCVY),ACS8  rcvy, no prompt
 000278 9180 616B      0016B       13849                       TM    F1,DSNFSTD          Is it std dsn?
 00027C 4780 71E8            00296 13850                       BZ    ACSNSTD             No, branch
 000280 D504 6477 B3B4 00477 003B4 13851                       CLC   UALKEY(L'CPSACCT),CPSACCT  ds owner?
 000286 4780 71F0            0029E 13852                       BE    ACSOKC              Yes, ask if ok
 00028A 9140 616B      0016B       13853                       TM    F1,DSNFMYDS         Must we ask for kw?
 00028E 4710 7204            002B2 13854                       BO    ACSOK               No, branch
 000292 47F0 71F4            002A2 13855                       B     ACSASK
 000296 9120 B3BE/47E0_003BE       13856              ACSNSTD  IF    ~CPSFSPR,ACS8       No access
 00029E 9620 BD55      00D55       13875              ACSOKC   SET   CPFKOK              Set ok request please
                                   13882
 0002A2 41F0 0048            00048 13883              ACSASK   LA    R15,RTNNOACS        Set no access
 0002A6 4100 0004            00004 13884                       LA    R0,4                Set key prompt rqd
 0002AA 5000 6364            00364 13885                       ST    R0,RECSIZE          Save indicator
 0002AE 47F0 721C            002CA 13886                       B     ACSRTN              Go return
                                   13887
 0002B2 1BFF                       13888              ACSOK    CLEAR R15                 Zero is ok
 0002B4 47F0 721C            002CA 13893                       B     ACSRTN              Go return
                                   13894
 0002B8 41F0 0024            00024 13895              ACSABT   LA    R15,ABRTCODE        Set abort request
 0002BC 47F0 721C            002CA 13896                       B     ACSRTN              Return with code
                                   13897
 0002C0 41F0 0048            00048 13898              ACS8     LA    R15,RTNNOACS        Set no access allowed
 0002C4 1B00                       13899                       CLEAR R0                  Zero indicate no key
 0002C6 5000 6364            00364 13903                       ST    R0,RECSIZE          Save indicator
                                   13904
 0002CA 18D8/58E0 D000_            13905              ACSRTN   XEXIT ,,LTR
 DROP   *,R7                       13911                       DROP  BR,IOWA
 DROP   IOWA,R6
1PROT     (PROT2025) (12:52) (15MAR04) Access Interface & UAL Setup  (for DISK)                                             Page   15
0Current Usings:  (CP,R11) (CV,R12)
0Loc    Object Code    Addr1 Addr2  Stmt Lv Lineno    Source Statement           (Hibal 5, Asmedit 3.3)  HLASM R4.0  2004/03/15 12.52
+___    ______ ____    _____ _____  ____ __ ______    ______ _________
0                                  13926              ¿þþþþþþþþþþþþþþþþþþþþþþþþþþþþþþþþþþþþþþþþþþþþþþþþþþþþþþþþþþþþþþþþþþþþþÜ
                                   13927              Ÿ                                                                     Ÿ
                                   13928              Ÿ Identify user to RACF and create the ACEE entry in the user's       Ÿ
                                   13929              Ÿ command page.                                                       Ÿ
                                   13930              Ÿ                                                                     Ÿ
                                                      ¾þþþþþþþþþþþþþþþþþþþþþþþþþþþþþþþþþþþþþþþþþþþþþþþþþþþþþþþþþþþþþþþþþþþþþ»
00002D8 50E0 D000/9008_      00000 13932              CRTACEE  PROC  ,
 USING  *,R7
 USING  IOWA,R6                    13971                       USING IOWA,IOWAR          Addressability to work area
 0002F2 D7FF 6524 6524_00524 00524 13980                       CLEAR KWR                 Zero keyword record
 0002FE D202 6524 B3B4 00524 003B4 13988                       MVC   KWRUSER,CPSUSER       Set signed on user
 000304 D201 6527 B3B7 00527 003B7 13989                       MVC   KWRGRP,CPSGRP           And signed on group
 00030A 4110 6524/4100_      00524 13990                       KREAD KWR                       Read keyword record
 000318 9180 6532/47E0_00532       14003                       IF    KWRIFL.KWRIFVAL,BEGIN   Valid keyword record
 000320 9206 6DA8      00DA8       14019  1                      MVI   RACFID,06           Set length of racf id
 000324 D201 6DA9 6187 00DA9 00187 14020  1                      MVC   RACFID+1(2),WAGRP     Set group portion
 00032A 925B 6DAB      00DAB       14021  1                      MVI   RACFID+3,C'$'           Set $ seperator
 00032E D202 6DAC 6184 00DAC 00184 14022  1                      MVC   RACFID+4(3),WAUSER        Set user portion
 000334 9208 6DAF      00DAF       14023  1                      MVI   RACFPSWD,08                 Set RACF password length
 000338 D207 6DB0 6594 00DB0 00594 14024  1                      MVC   RACFPSWD+1(8),KWRPASS         And password from KWR
 00033E 7050/47F0 705C 0033E 0031E 14025                       END   ELSE,BEGIN          Error obtaining keyword record
 000342 D206 6DA8 7896 00DA8 00B88 14040  1                      MVC   RACFID(7),RACNUSR   Set default user id
 000348 D208 6DAF 789D 00DAF 00B8F 14041  1                      MVC   RACFPSWD(9),RACNPAS Set default password
 00034E                            14042                       END
000034E 4110 6DB0            00DB0 14047                       LA    R1,RACFPSWD+1       Point to user's password
 000352 4DE0 7714            00A06 14048                       LCALL RACPASCK            Convert password to RACF format
0000356 4DE0 70CC            003BE 14051                       LCALL RACFINIT            Identify user to RACF
 00035A 4780 709C            0038E 14053                       IF    NZ,BEGIN            Process error return codes
 00035E 42F0 B1FE            001FE 14064  1                      STC   R15,CPRACF1+2       Save initial RACINIT code
 000362 59F0 79B6/4770_      00CA8 14065  1                      IF    (R15,EQ,4),BEGIN    User has no profile
 00036A D206 6DA8 7896 00DA8 00B88 14082  2                        MVC   RACFID(7),RACNUSR   Set RACF default user
 000370 D208 6DAF 789D 00DAF 00B8F 14083  2                        MVC   RACFPSWD(9),RACNPAS Set RACF default user password
 000376 4DE0 70CC            003BE 14084  2                        LCALL RACFINIT            Identify default user to RACF
 00037A                            14086  1                      END   ,
 00037A 708C/47F0 709C_0037A 00368 14090  1                      ELSEIF (R15,LE,12),BEGIN  RACF password sync error
 000386 4DE0 7254            00546 14116  2                        LCALL RACNPASS            Reset user's RACF password
 00038A 4DE0 70CC            003BE 14118  2                        LCALL RACFINIT            Identify user to RACF
 00038E                            14120  1                      END   ,
 00038E                            14124                       END   ,
 00038E 5820 B200/1222       00200 14128                       LT    R2,CPACEE           Set address of RACF ACEE control
 000394 4780 70BE            003B0 14132                       IF    NZ,BEGIN            Check only if one created
 USING  ACEE,R2                    14143  1                      WITH  (ACEE,R2),BEGIN     Adressabilitiy to ACEE
 000398 9120 2026/47E0_00026       14157  2                        IF    ACEEFLG1.ACEEOPER,BEGIN Operations attribute set
 0003A0 5810 7886/0A6B       00B78 14173  3                          MODESET MF=(E,MODSETZ)    Enter key zero for ACEE update
 0003A6 94DF 2026      00026       14177  3                          CLEAR ACEEFLG1.ACEEOPER   Clear OPERATIONS attribute
 0003AA 5810 788A/0A6B       00B7C 14185  3                          MODESET MF=(E,MODSETP)    Resume problem key
 0003B0                            14189  2                        END   ,
 DROP   ACEE,R2                    14193  1                      END   ,
 0003B0                            14201                       END   ,
 0003B0 18D8/9808 D004_            14205                       PEND  ,
 DROP   *,R7
1PROT     (PROT2025) (12:52) (15MAR04) Access Interface & UAL Setup  (for DISK)                                             Page   16
0Current Usings:  (IOWA,R6) (CP,R11) (CV,R12)
0Loc    Object Code    Addr1 Addr2  Stmt Lv Lineno    Source Statement           (Hibal 5, Asmedit 3.3)  HLASM R4.0  2004/03/15 12.52
+___    ______ ____    _____ _____  ____ __ ______    ______ _________
0                                  14226              ¿þþþþþþþþþþþþþþþþþþþþþþþþþþþþþþþþþþþþþþþþþþþþþþþþþþþþþþþþþþþþþþþþþþþþþÜ
                                   14227              Ÿ                                                                     Ÿ
                                   14228              Ÿ  RACINIT call to identify user to RACF                              Ÿ
                                   14229              Ÿ                                                                     Ÿ
                                                      ¾þþþþþþþþþþþþþþþþþþþþþþþþþþþþþþþþþþþþþþþþþþþþþþþþþþþþþþþþþþþþþþþþþþþþþ»
00003BE 50E0 D000/9008_      00000 14230              RACFINIT PROC  ,                   Identify user to RACF
 USING  *,R7
                                   14269
 0003D8 58E0 78E0/0DEE       00CB8 14270                       WAITOFF X                 Enter subtask
 0003DE D237 6DE8 77C0 00DE8 00B98 14275                       MVC   RACINIT(RACIMODL),RACIMOD     Set parameter list
                                   14276            C          RACINIT USERID=RACFID,PASSWRD=RACFPSWD,PASSCHK=YES,
                                                    C                RELEASE=1.7,
 0003E4 4110 6DE8/94FB_      00DE8                                   LOG=ALL,ENVIR=CREATE,ACEE=CPACEE,MF=(E,RACINIT)
 00042C 58E0 78E4/0DEE       00CBC 14298                       WAITON X                  Enter main task
                                   14303
 000432 42F0 B1FF            001FF 14304                       STC   R15,CPRACF1+3       Save return code from racinit call
 000436 12FF/4770 706C             14305                       IF    (R15,Z),BEGIN
 00043C 9680 B1FC      001FC       14319  1                      SET   CPRACDEF            SET USER ACEE CREATED
 000440 4DE0 7450            00828 14325  1                      LCALL RACDSOP             DISABLE ANY OPERATIONS ATTRIBUTE
 000444                            14327                       END   ,
 000444 18D8/9808 D004_            14331                       PEND  ,                   Return with r15 set
 DROP   *,R7
 DROP   IOWA,R6                    14351                       DROP  IOWA,BR
1PROT     (PROT2025) (12:52) (15MAR04) Access Interface & UAL Setup  (for DISK)                                             Page   17
0Current Usings:  (CP,R11) (CV,R12)
0Loc    Object Code    Addr1 Addr2  Stmt Lv Lineno    Source Statement           (Hibal 5, Asmedit 3.3)  HLASM R4.0  2004/03/15 12.52
+___    ______ ____    _____ _____  ____ __ ______    ______ _________
0                                  14363              ¿þþþþþþþþþþþþþþþþþþþþþþþþþþþþþþþþþþþþþþþþþþþþþþþþþþþþþþþþþþþþþþþþþþþþþÜ
                                   14364              Ÿ                                                                     Ÿ
                                   14365              Ÿ Check user's access to a RACF protected data set.                   Ÿ
                                   14366              Ÿ                                                                     Ÿ
                                   14367              Ÿ        Returns    0  RACF protected, allow access                   Ÿ
                                   14368              Ÿ                   4  RACF protected, no access allowed              Ÿ
                                   14369              Ÿ                   8  Resource not controlled by RACF                Ÿ
                                   14370              Ÿ                                                                     Ÿ
                                                      ¾þþþþþþþþþþþþþþþþþþþþþþþþþþþþþþþþþþþþþþþþþþþþþþþþþþþþþþþþþþþþþþþþþþþþþ»
0000452 50E0 D000/9008_      00000 14372              RACFCHK  PROC  ,
 USING  *,R7
 USING  IOWA,R6                    14411                       USING IOWA,IOWAR          Addressability to work area
 00046C 1820                       14420                       LR    R2,R0               SAVE ACCESS CODE AND LOG
 00046E 5830 B200            00200 14421                       L     R3,CPACEE           SET USER'S ACCESS CONTROL ELEMENT
 000472 D237 6DE8 7764 00DE8 00BD0 14422                       MVC   RACINIT(RACIMODL),RACCMOD
 000478 41E0 70C8/50E0_      00534 14423                       WAITOFF X,ABEND=RCHKABE   ENTER SUBTASKING MODE
 000486 58E0 7854/0DEE       00CC0 14436                       VCALL AMODE24             RACHECK NEEDS 24-BIT AMODE
 00048C 1222/47D0 7058             14440                       IF    (R2,P),BEGIN
                                   14455  1         C            RACHECK ENTITY=(DSNAME),CLASS=RACLASS,RELEASE=1.7,ATTR=(R2),
                                          1         C                  DSTYPE=M,ACEE=(R3),RACFIND=NO,GENERIC=ASIS,
                                          1                            MF=(E,RACINIT)
 000492 4110 6DE8            00DE8 14457  1 02-IHBIN +           LA    1,RACINIT                         LOAD PARAMETER REG 1
 000496 94DF 100C      0000C       14458  1 01-RACHE +           NI    12(1),B'11011111'     TURN OFF PROFILE BIT          @Q7A
 00049A 9407 1004      00004       14459  1 01-RACHE +           NI    4(1),B'00000111'
 00049E 9680 1004      00004       14460  1 01-RACHE +           OI    4(1),B'10000000'                                 FLAGS
 0004A2 941B 100C      0000C       14461  1 01-RACHE +           NI    12(1),B'00011011'                                  @P1C
 0004A6 9640 100C      0000C       14462  1 01-RACHE +           OI    12(1),B'01000000'                                  @P1C
 0004AA 4100 6270            00270 14463  1 01-RACHE +           LA    0,DSNAME                 - MOVE ENTITY NAME ADDRESS @M3C
 0004AE BE07 1005            00005 14464  1 01-RACHE +           STCM  0,7,5(1) -      INTO PARM LIST
 0004B2 4221 0008            00008 14465  1 01-RACHE +           STC   R2,8(1)       - STORE ATTR VALUE IN LIST FORM
 0004B6 4100 7714            00B80 14466  1 01-RACHEC+           LA    0,RACLASS
                                          1          +                          -     MOVE CLASS NAME ADDRESS
 0004BA BE07 1009            00009 14467  1 01-RACHE +           STCM  0,7,9(1) -      INTO PARM LIST
 0004BE 5031 0018            00018 14468  1 01-RACHE +           ST    R3,24(1)       - STORE ACEE ADDRESS             @PC003PY
 0004C2 0A82                       14469  1 01-RACHE +           SVC   130               INVOKE RACHECK SVC ROUTINE
 0004C4 705C/47F0 7090 004C4 00490 14471                       END   ELSE,BEGIN
 0004C8 1322                       14486  1                      LCR   R2,R2               SET ACCESS DESIRED
                                   14488  1         C            RACHECK ENTITY=(DSNAME),CLASS=RACLASS,RELEASE=1.7,ATTR=(R2),
                                          1         C                  DSTYPE=M,ACEE=(R3),RACFIND=NO,GENERIC=ASIS,
                                          1                            LOG=NONE,MF=(E,RACINIT)
 0004CA 4110 6DE8            00DE8 14490  1 02-IHBIN +           LA    1,RACINIT                         LOAD PARAMETER REG 1
 0004CE 94DF 100C      0000C       14491  1 01-RACHE +           NI    12(1),B'11011111'     TURN OFF PROFILE BIT          @Q7A
 0004D2 9401 1004      00004       14492  1 01-RACHE +           NI    4(1),B'00000001'
 0004D6 9682 1004      00004       14493  1 01-RACHE +           OI    4(1),B'10000010'                                 FLAGS
 0004DA 941B 100C      0000C       14494  1 01-RACHE +           NI    12(1),B'00011011'                                  @P1C
 0004DE 9640 100C      0000C       14495  1 01-RACHE +           OI    12(1),B'01000000'                                  @P1C
 0004E2 4100 6270            00270 14496  1 01-RACHE +           LA    0,DSNAME                 - MOVE ENTITY NAME ADDRESS @M3C
 0004E6 BE07 1005            00005 14497  1 01-RACHE +           STCM  0,7,5(1) -      INTO PARM LIST
 0004EA 4221 0008            00008 14498  1 01-RACHE +           STC   R2,8(1)       - STORE ATTR VALUE IN LIST FORM
 0004EE 4100 7714            00B80 14499  1 01-RACHEC+           LA    0,RACLASS
                                          1          +                          -     MOVE CLASS NAME ADDRESS
 0004F2 BE07 1009            00009 14500  1 01-RACHE +           STCM  0,7,9(1) -      INTO PARM LIST
 0004F6 5031 0018            00018 14501  1 01-RACHE +           ST    R3,24(1)       - STORE ACEE ADDRESS             @PC003PY
1PROT     (PROT2025) (12:52) (15MAR04) Access Interface & UAL Setup  (for DISK)                                             Page   18
0Current Usings:  (IOWA,R6) (*,R7) (CP,R11) (CV,R12)
0Loc    Object Code    Addr1 Addr2  Stmt Lv Lineno    Source Statement           (Hibal 5, Asmedit 3.3)  HLASM R4.0  2004/03/15 12.52
+___    ______ ____    _____ _____  ____ __ ______    ______ _________
00004FA 0A82                       14502  1 01-RACHE +           SVC   130               INVOKE RACHECK SVC ROUTINE
 0004FC                            14504                       END   ,
 0004FC 182F                       14508                       LR    R2,R15              SAVE RETURN CODE FROM RACHECK
 0004FE 1830                       14509                       LR    R3,R0                 AND REASOND CODE ALSO
 000500 58E0 7858/0DEE       00CC4 14510                       VCALL AMODE31                 RETURN TO 31 BIT ADDRESSING
 000506 58E0 7850/0DEE       00CBC 14514                       WAITON X                  RESUME MOTHER TASK
 00050C 41F0 0008            00008 14519                       LA    R15,8               ASSUME NOT RACF PROTECTED
 000510 5920 7848/47A0_      00CB4 14520                       IF    (R2,GE,12),RACFCHKX EXIT WITH NON RACF PROTECTION
 000518 5920 783C/4780_      00CA8 14540                       IF    (R2,EQ,4),RACFCHKX  EXIT WITH NON RACF PROTECTION
 000520 41F0 0004            00004 14560                       LA    R15,4               ASSUME RACF NO ACCESS
 000524 5920 7834/4780_      00CA0 14561                       IF    (R2,EQ,8),RACFCHKX  EXIT FOR RACF NO ACCESS
 00052C 1BFF                       14581                       CLEAR R15                 SET RACF ALLOWED ACCESS
                                   14585                       ¿þþþþþþþþþþþþþþþþþþþþþþþþþþÜ
                                   14586                       Ÿ  RACHECK abend handler.  Ÿ
                                   14587                       ¾þþþþþþþþþþþþþþþþþþþþþþþþþþ»
 00052E 19FF/4780 70CC             14588                       IF    (R15,NE,R15),BEGIN  See branch label below...
 000534 41F0 0008            00008 14603  1           RCHKABE    LA    R15,8               Resource not controlled by RACF
 000538                            14604                       END
                                   14608
 000538 18D8/9808 D004_            14609              RACFCHKX PEND  ,
 DROP   *,R7
1PROT     (PROT2025) (12:52) (15MAR04) Access Interface & UAL Setup  (for DISK)                                             Page   19
0Current Usings:  (IOWA,R6) (CP,R11) (CV,R12)
0Loc    Object Code    Addr1 Addr2  Stmt Lv Lineno    Source Statement           (Hibal 5, Asmedit 3.3)  HLASM R4.0  2004/03/15 12.52
+___    ______ ____    _____ _____  ____ __ ______    ______ _________
0                                  14631              ¿þþþþþþþþþþþþþþþþþþþþþþþþþþþþþþþþþþþþþþþþþþþþþþþþþþþþþþþþþþþþþþþþþþþþþÜ
                                   14632              Ÿ                                                                     Ÿ
                                   14633              Ÿ  Local routine to modify the user's existing RACF password          Ÿ
                                   14634              Ÿ  and password change date.  The password pointed to by              Ÿ
                                   14635              Ÿ  IOWA field RACFPSWD is passed to the RACF manager to replace       Ÿ
                                   14636              Ÿ  the existing RACF password.                                        Ÿ
                                   14637              Ÿ                                                                     Ÿ
                                                      ¾þþþþþþþþþþþþþþþþþþþþþþþþþþþþþþþþþþþþþþþþþþþþþþþþþþþþþþþþþþþþþþþþþþþþþ»
0000546 50E0 D000/9008_      00000 14639              RACNPASS PROC  ,                   RESET EXISTING RACF PASSWORD
 USING  *,R7
                                   14678                       USING IOWA,IOWAR          ADDRESSABILTY TO WORK AREA
 000560 4110 0002/0A0B       00002 14680                       TIME  DEC                 RETURN SYSTEM DATE IN R1
 000566 BE17 6DB8            00DB8 14684                       ST3   R1,RACFPDAT         SAVE FOR PASSWORD CHANGE DATE
 00056A D21F 6DE8 76A8 00DE8 00C08 14686                       MVC   ICHELST(32),ICHIPRM SET ICHEINTY PARAMETER MODEL
 000570 D213 6E10 76D0 00E10 00C30 14687                       MVC   ICHSETP(20),ICHAPRM SET FIRST ICHEACTN MODEL
 000576 D213 6E24 76D0 00E24 00C30 14688                       MVC   ICHSETPD(20),ICHAPRM  SET SECOND ICHEACTN MODEL
                                   14689            C          ICHEACTN FIELD='PASSWORD',FLDATA=(8,RACFPSWD+1),
 00057C 4110 6E10/D207_      00E10                                   MF=(E,ICHSETP)
                                   14705            C          ICHEACTN FIELD='PASSDATE',FLDATA=(3,RACFPDAT),
 000596 4110 6E24/D207_      00E24                                   MF=(E,ICHSETPD)
 0005B0 58E0 7758/0DEE       00CB8 14721                       WAITOFF X                 ENTER SUBTASKING MODE
                                   14726            C          ICHEINTY ALTER,TYPE='USR',ENTRY=RACFID,
                                                    C                OPTIONS=(ACTION,FLDEF),
 0005B6 4110 6DE8/9200_      00DE8                                   ACTIONS=(ICHSETP,ICHSETPD),MF=(E,ICHELST)
 0005EC 58E0 775C/0DEE       00CBC 14766                       WAITON X                  RESUME MOTHER TASK
 0005F2 18D8/9808 D004_            14771                       PEND  ,                   RETURN TO CALLER
 DROP   *,R7
1PROT     (PROT2025) (12:52) (15MAR04) Access Interface & UAL Setup  (for DISK)                                             Page   20
0Current Usings:  (IOWA,R6) (CP,R11) (CV,R12)
0Loc    Object Code    Addr1 Addr2  Stmt Lv Lineno    Source Statement           (Hibal 5, Asmedit 3.3)  HLASM R4.0  2004/03/15 12.52
+___    ______ ____    _____ _____  ____ __ ______    ______ _________
0                                  14792              ¿þþþþþþþþþþþþþþþþþþþþþþþþþþþþþþþþþþþþþþþþþþþþþþþþþþþþþþþþþþþþþþþþþþþþþÜ
                                   14793              Ÿ                                                                     Ÿ
                                   14794              Ÿ  Remove generic profile on scratch.                                 Ÿ
                                   14795              Ÿ                                                                     Ÿ
                                   14796              Ÿ    Called in DISK for the SCRATCH command.                          Ÿ
                                   14797              Ÿ                                                                     Ÿ
                                                      ¾þþþþþþþþþþþþþþþþþþþþþþþþþþþþþþþþþþþþþþþþþþþþþþþþþþþþþþþþþþþþþþþþþþþþþ»
0000600 50E0 D000/9008_      00000 14799              RACGREM  XPROC ,                   ENTER AND WORK AREA POINTER
 USING  *,R7
 00061A D505 BE90 BEB8_00E90 00EB8 14839                       IF    (DSNON6,EQ,DSNCATV),BEGIN  Correctly cataloged...
 000624 9108 BF39/4710_00F39       14857  1                      IF    DSNFRETAIN,EXIT     Don't do this if RETAIN is set
 00062C 9180 616C/47E0_0016C       14875  1                      IF    ~F2.DSNFSTD,EXIT    DON'T DO IF NON-STANDARD NAME
 000634 D505 76CA 627A_00CE4 0027A 14894  1                      IF    ('.MAIL ',EQ,DSNAME+10),EXIT      NOT FOR MAIL
 00063E D507 7676 627A_00C90 0027A 14914  1                      IF    ('.ACTIVE ',EQ,DSNAME+10),EXIT    NOT FOR ACTIVES
 000648 4120 002C            0002C 14934  1                      LA    R2,44               SET MAXIMUM DSN LENGTH
 00064C 4130 629B            0029B 14935  1                      LA    R3,DSNAME+43        POINT TO LAST BYTE
 000650 9540 3000/4770_00000       14936  1                      WHILE (@R3,EQ,' '),BEGIN  SCAN BACKWARDS TILL NON-BLANK
 000658 5B20 76AE            00CC8 14954  2                        S     R2,=A(1)            Decrement length
 00065C 5B30 76AE            00CC8 14955  2                        S     R3,=A(1)            Decrement address
 000660 47F0 7036            00650 14956  1                      END   ,                   R2 Contains length on termination
0000664 D206 6DBC 6274 00DBC 00274 14962  1                      MVC   GREMPRF(7),DSNAME+4     Set "GG.UUU."
 00066A 925B 6DBE      00DBE       14963  1                      MVI   GREMPRF+2,C'$'          Set "GG$UUU."
 00066E D203 6DC3 6270 00DC3 00270 14964  1                      MVC   GREMPRF+7(4),DSNAME     Set "GG$UUU.WYL."
 000674 4220 6DBB            00DBB 14965  1                      STC   R2,GREMLIN              Set Profile length
 000678 0620/4420 76DE_            14966  1                      DEX   R2,'MVC GREMPRF+11(0),DSNAME+11'  Complete profile
 00067E D21F 6DE8 762A 00DE8 00C44 14985  1                      MVC   ICHELST(ICHDPRFL),ICHDPRF
 000684 58E0 769E/0DEE       00CB8 14986  1                      WAITOFF X                 ENTER SUBTASKING MODE
 00068A 4120 6DBB            00DBB 14992  1                      LA    R2,GREMLIN          ADDRESS OF DATA SET PROFILE
                                   14993  1         C            ICHEINTY DELETE,ENTRY=(R2),
                                          1                            MF=(E,ICHELST)
 00068E 4110 6DE8            00DE8 14994  1 01-ICHEI +           LA    1,ICHELST
 000692 9200 1000      00000       14997  1 03-ICHEO +           MVI   0(1),0                   SET IPLOPT1.
 000696 9280 1001      00001       15000  1 03-ICHEO +           MVI   1(1),128                 SET IPLOPT2.
 00069A 5021 0004            00004 15003  1 03-ICHEO +           ST    (R2),4(1)                ENTRY.
 00069E 0A84                       15009  1 01-ICHEI +           SVC   132
 0006A0 58E0 76A2/0DEE       00CBC 15011  1                      WAITON X                  RESUME MAIN TASK
 0006A6                            15016                       END
00006A6 1BFF                       15021                       CLEAR R15                 A-ok
 DROP   IOWA,R6                    15025                       DROP  IOWAR               RELEASE I/O WORK AREA
 0006A8 18D8/9808 D004_            15032                       PEND
 DROP   *,R7
1PROT     (PROT2025) (12:52) (15MAR04) Access Interface & UAL Setup  (for DISK)                                             Page   21
0Current Usings:  (CP,R11) (CV,R12)
0Loc    Object Code    Addr1 Addr2  Stmt Lv Lineno    Source Statement           (Hibal 5, Asmedit 3.3)  HLASM R4.0  2004/03/15 12.52
+___    ______ ____    _____ _____  ____ __ ______    ______ _________
0                                  15053              ¿þþþþþþþþþþþþþþþþþþþþþþþþþþþþþþþþþþþþþþþþþþþþþþþþþþþþþþþþþþþþþþþþþþþþþÜ
                                   15054              Ÿ                                                                     Ÿ
                                   15055              Ÿ  Release RACF ACEE entry if one has been acquired for               Ÿ
                                   15056              Ÿ   security processing.  Called during logoff processing.            Ÿ
                                   15057              Ÿ                                                                     Ÿ
                                                      ¾þþþþþþþþþþþþþþþþþþþþþþþþþþþþþþþþþþþþþþþþþþþþþþþþþþþþþþþþþþþþþþþþþþþþþ»
00006B6 50E0 D000/9008_      00000 15058              PROTFREE XPROC ,                   Release RACF ACEE entry
 USING  *,R7
 0006D0 5820 B200/1222       00200 15098                       LT    R2,CPACEE           Set address of ACEE entry
 0006D6 4780 7072            00742 15102                       IF    NZ,BEGIN            RACF ACEE entry has been built
 0006DA 92FF BF35      00F35       15113  1                      MVI   DSNWAF2,DSNFSIMP    Set for simple dopen/dclose
 0006DE 58E0 75FC/0DEE       00CCC 15114  1                      DOPEN ,                   Request simple iowa for release
 0006E4 4770 706C            0073C 15123  1                      IF    Z,BEGIN             ??WHAT TO DO WITH BAD RETURN??
 0006E8 5860 BDDC            00DDC 15134  2                        L     IOWAR,CPIOWAP       Set address of our IOWA
 USING  IOWA,R6                    15135  2                        USING IOWA,IOWAR          Addressability to IOWA
                                   15144  2
 0006EC 58E0 75E8/0DEE       00CB8 15145  2                        WAITOFF X                 Enter subtask mode
 0006F2 5810 7600            00CD0 15150  2                        L     R1,=A(RACIMOD)      Address of model racinit list
 0006F6 D237 6DE8 1000 00DE8 00000 15151  2                        MVC   RACINIT(RACIMODL),@R1   Set model parameter list
 0006FC 4110 6DE8/943F_      00DE8 15152  2                        RACINIT ENVIR=DELETE,ACEE=CPACEE,MF=(E,RACINIT)
 000730 58E0 75EC/0DEE       00CBC 15169  2                        WAITON X                  Enter normal mode
                                   15174  2
 000736 58E0 7604/0DEE       00CD4 15175  2                        VCALL EXTCLOSE            Release IOWA
 DROP   IOWA,R6                    15179  2                        DROP  IOWAR               Release IOWA addressability
 00073C                            15186  1                      END
                                   15190  1
 00073C D703 B200 B200 00200 00200 15191  1                      CLEAR CPACEE              Clear ACEE pointer in user's CP
 000742                            15198                       END
                                   15202
 000742 9200 B1FC      001FC       15203                       CLEAR CPRACF1             Clear RACF CP flags
 000746 1BFF                       15210                       CLEAR R15                 Zero return code from protfree
 000748 18D8/9808 D004_            15214                       PEND
 DROP   *,R7
1PROT     (PROT2025) (12:52) (15MAR04) Access Interface & UAL Setup  (for DISK)                                             Page   22
0Current Usings:  (CP,R11) (CV,R12)
0Loc    Object Code    Addr1 Addr2  Stmt Lv Lineno    Source Statement           (Hibal 5, Asmedit 3.3)  HLASM R4.0  2004/03/15 12.52
+___    ______ ____    _____ _____  ____ __ ______    ______ _________
0                                  15235              ¿þþþþþþþþþþþþþþþþþþþþþþþþþþþþþþþþþþþþþþþþþþþþþþþþþþþþþþþþþþþþþþþþþþþþþÜ
                                   15236              Ÿ                                                                     Ÿ
                                   15237              Ÿ Return security protection system in effect                         Ÿ
                                   15238              Ÿ                                                                     Ÿ
                                   15239              Ÿ   Return code:  0  - Data set is under RACF protection              Ÿ
                                   15240              Ÿ                 4  - Data set is under Stanford protection          Ÿ
                                   15241              Ÿ                 8  - Unable to determine protection status          Ÿ
                                   15242              Ÿ                                                                     Ÿ
                                                      ¾þþþþþþþþþþþþþþþþþþþþþþþþþþþþþþþþþþþþþþþþþþþþþþþþþþþþþþþþþþþþþþþþþþþþþ»
0000756 50E0 D000/9008_      00000 15243              SECSYS   XPROC ,
 USING  *,R7
 000770 4120 0008            00008 15283                       LA    R2,8                Assume unknown system
 000774 92FF BF35      00F35       15284                       MVI   DSNWAF2,DSNFSIMP    Set for simple dopen/dclose
 000778 58E0 755C/0DEE       00CCC 15285                       DOPEN ,                   Request simple iowa for release
 00077E 4770 7056            007C6 15294                       IF    Z,BEGIN             Have work area, now check
 000782 5860 BDDC            00DDC 15305  1                      L     IOWAR,CPIOWAP       Set address of our iowa
 USING  IOWA,R6                    15306  1                      USING IOWA,IOWAR          Addressability to iowa
 000786 9500 B1FC/4770_001FC       15315  1                      IF    (CPRACF1,Z),BEGIN   Identify user to RACF
 00078E 58E0 7528/0DEE       00C98 15331  2                        ACALL CRTACEE             Racinit call for user
 000794                            15335  1                      END   ,
 000794 9180 B1FC/47E0_001FC       15339  1                      IF    CPRACDEF,BEGIN      User defined, check access
 00079C D22B 6270 BE5C 00270 00E5C 15354  2                        MVC   DSNAME,DSNWADSN     Set data set name
 0007A2 4100 0002            00002 15355  2                        LA    R0,X'02'            Set read access
 0007A6 1300                       15356  2                        LCR   R0,R0               Set for log=none
 0007A8 58E0 752C/0DEE       00C9C 15357  2                        ACALL RACFCHK             Check for a RACF profile
 0007AE 59F0 7538/4730_      00CA8 15361  2                        IF    (R15,LE,4),'CLEAR R2'   Indicate RACF profile
 0007B8 704C/47F0 7050_007B8 007B4 15387  2                        ELSE  'LA R2,4'               Indicate under stanford
 0007C0                            15404  1                      END   ,
 0007C0 58E0 7564/0DEE       00CD4 15408  1                      VCALL EXTCLOSE            Release work area
 DROP   IOWA,R6                    15412  1                      DROP  IOWAR               Release iowa work area
 0007C6                            15419                       END   ,
 0007C6 18F2                       15423                       LR    R15,R2              Set return code
 0007C8 18D8/9808 D004_            15424                       PEND  ,                   Return to caller
 DROP   *,R7
1PROT     (PROT2025) (12:52) (15MAR04) Access Interface & UAL Setup  (for DISK)                                             Page   23
0Current Usings:  (CP,R11) (CV,R12)
0Loc    Object Code    Addr1 Addr2  Stmt Lv Lineno    Source Statement           (Hibal 5, Asmedit 3.3)  HLASM R4.0  2004/03/15 12.52
+___    ______ ____    _____ _____  ____ __ ______    ______ _________
0                                  15445              ¿þþþþþþþþþþþþþþþþþþþþþþþþþþþþþþþþþþþþþþþþþþþþþþþþþþþþþþþþþþþþþþþþþþþþþÜ
                                   15446              Ÿ                                                                     Ÿ
                                   15447              Ÿ  Check ASCB ACEE control block for the OPERATIONS attribute.        Ÿ
                                   15448              Ÿ  If not on, turn it on                                              Ÿ
                                   15449              Ÿ                                                                     Ÿ
                                                      ¾þþþþþþþþþþþþþþþþþþþþþþþþþþþþþþþþþþþþþþþþþþþþþþþþþþþþþþþþþþþþþþþþþþþþþ»
00007D6 50E0 D000/9008_      00000 15451              RACCHKOP XPROC ,
 USING  *,R7
 0007F0 5820 C718            00718 15491                       L     R2,CVASCBP              ADDRESS OF ASCB
 0007F4 5820 206C            0006C 15492                       L     R2,ASCBASXB-ASCB(,R2)   ADDRESS OF EXTENSION
 0007F8 5820 20C8            000C8 15493                       L     R2,ASXBSENV-ASXB(,R2)   ADDRESS OF ACEE POINTER
 0007FC 1222/4780 702A             15494                       IF    (R2,NZ),BEGIN       CHECK ONLY IF ONE PRESENT
 USING  ACEE,R2                    15508  1                      WITH  (ACEE,R2),BEGIN     ADDRESSABILITY TO ACEE
 000802 9120 2026/4710_00026       15522  2                        IF    ~ACEEFLG1.ACEEOPER,BEGIN      NO OPERATIONS, SET IT
 00080A 5810 7388/0A6B       00B78 15538  3                          MODESET MF=(E,MODSETZ)    ENTER KEY ZERO
 000810 9620 2026      00026       15542  3                          SET   ACEEFLG1.ACEEOPER   SET OPERATIONS ATTRIBUTE
 000814 5810 738C/0A6B       00B7C 15549  3                          MODESET MF=(E,MODSETP)    RESUME PROBLEM KEY
 00081A                            15553  2                        END   ,
 DROP   ACEE,R2                    15557  1                      END   ,
 00081A                            15565                       END   ,
 00081A 18D8/9808 D004_            15569                       PEND
 DROP   *,R7
1PROT     (PROT2025) (12:52) (15MAR04) Access Interface & UAL Setup  (for DISK)                                             Page   24
0Current Usings:  (CP,R11) (CV,R12)
0Loc    Object Code    Addr1 Addr2  Stmt Lv Lineno    Source Statement           (Hibal 5, Asmedit 3.3)  HLASM R4.0  2004/03/15 12.52
+___    ______ ____    _____ _____  ____ __ ______    ______ _________
0                                  15590              ¿þþþþþþþþþþþþþþþþþþþþþþþþþþþþþþþþþþþþþþþþþþþþþþþþþþþþþþþþþþþþþþþþþþþþþÜ
                                   15591              Ÿ                                                                     Ÿ
                                   15592              Ÿ  Check user's ACEE control block for operations attribute.          Ÿ
                                   15593              Ÿ  Disable individual user's operations attribute so that he          Ÿ
                                   15594              Ÿ  participates in RACF security.                                     Ÿ
                                   15595              Ÿ                                                                     Ÿ
                                                      ¾þþþþþþþþþþþþþþþþþþþþþþþþþþþþþþþþþþþþþþþþþþþþþþþþþþþþþþþþþþþþþþþþþþþþþ»
0000828 50E0 D000/9008_      00000 15597              RACDSOP  XPROC ,
 USING  *,R7
 000842 5820 B200/1222       00200 15637                       LT    R2,CPACEE           SET USER'S ACEE POINTER
 000848 4780 7022            00864 15641                       IF    NZ,BEGIN            ONLY IF ONE EXISTS
 USING  ACEE,R2                    15652  1                      WITH  (ACEE,R2),BEGIN     ADDRESSABILITY TO ACEE
 00084C 9120 2026/47E0_00026       15666  2                        IF    ACEEFLG1.ACEEOPER,BEGIN
 000854 5810 7336/0A6B       00B78 15682  3                          MODESET MF=(E,MODSETZ)    ENTER KEY ZERO
 00085A 94DF 2026      00026       15686  3                          CLEAR ACEEFLG1.ACEEOPER   CLEAR OPERATIONS ATTRIBUTE
 00085E 5810 733A/0A6B       00B7C 15694  3                          MODESET MF=(E,MODSETP)    RESUME PROBLEM KEY
 000864                            15698  2                        END   ,
 DROP   ACEE,R2                    15702  1                      END   ,
 000864                            15710                       END   ,
 000864 18D8/9808 D004_            15714                       PEND
 DROP   *,R7
1PROT     (PROT2025) (12:52) (15MAR04) Access Interface & UAL Setup  (for DISK)                                             Page   25
0Current Usings:  (CP,R11) (CV,R12)
0Loc    Object Code    Addr1 Addr2  Stmt Lv Lineno    Source Statement           (Hibal 5, Asmedit 3.3)  HLASM R4.0  2004/03/15 12.52
+___    ______ ____    _____ _____  ____ __ ______    ______ _________
0                                  15735                       ¿þþþþþþþþþþþþþþþþþþþþþþþþþþþþþþþþþþþþþþþþþþþþþþþþþþþþþþþþþþþþÜ
                                   15736                       Ÿ  Clear the RACF ACEE pointer.                              Ÿ
                                   15737                       Ÿ                                                            Ÿ
                                   15738                       Ÿ  The RACF access control element will be removed from      Ÿ
                                   15739                       Ÿ  the applicable TCBSENV field.  For normal operations      Ÿ
                                   15740                       Ÿ  the pointer is cleared from the allocated IOWA TCB.       Ÿ
                                   15741                       Ÿ  If in debugging mode the mother TCB is used.              Ÿ
                                   15742                       Ÿ                                                            Ÿ
                                   15743                       Ÿ  Input:      The IOWAR is assumed to contain a valid work  Ÿ
                                   15744                       Ÿ        area pointer                                        Ÿ
                                   15745                       ¾þþþþþþþþþþþþþþþþþþþþþþþþþþþþþþþþþþþþþþþþþþþþþþþþþþþþþþþþþþþþ»
0000872 50E0 D000/9008_      00000 15747              ACEECLR  XPROC ,
 USING  *,R7
 USING  IOWA,R6                    15787                       USING IOWA,IOWAR          ADDRESSABILITY TO IOWA
 00088C 5820 6024            00024 15796                       L     R2,WATCB            SET IOWA TCB ADDRESS
 000890 9108 C4C4/47E0_004C4       15797                       IF    CVFNDSUB,'L R2,CVTCBP'  ELSE SET MOTHER TCB
 USING  TCB,R2                     15818                       WITH  (TCB,R2),BEGIN      ADDRESSABILITY TO TCB
 00089C D503 7420 2154_00CAC 00174 15832  1                      IF    (TCBSENV,NE,=A(0)),BEGIN
 0008A6 5810 72EC/0A6B       00B78 15849  2                        MODESET MF=(E,MODSETZ)    ENTER KEY ZERO
 0008AC D703 2154 2154 00174 00174 15853  2                        CLEAR TCBSENV             CLEAR ACEE POINTER FROM TCB
 0008B2 5810 72F0/0A6B       00B7C 15860  2                        MODESET MF=(E,MODSETP)    RESUME PROBLEM PROGRAM KEY
 0008B8                            15864  1                      END
 DROP   TCB,R2                     15868                       END
 0008B8 18D8/9808 D004_            15876                       PEND  ,
 DROP   *,R7
1PROT     (PROT2025) (12:52) (15MAR04) Access Interface & UAL Setup  (for DISK)                                             Page   26
0Current Usings:  (IOWA,R6) (CP,R11) (CV,R12)
0Loc    Object Code    Addr1 Addr2  Stmt Lv Lineno    Source Statement           (Hibal 5, Asmedit 3.3)  HLASM R4.0  2004/03/15 12.52
+___    ______ ____    _____ _____  ____ __ ______    ______ _________
0                                  15897                       ¿þþþþþþþþþþþþþþþþþþþþþþþþþþþþþþþþþþþþþþþþþþþþþþþþþþþþþþþþþþþþþÜ
                                   15898                       Ÿ  Set the RACF ACEE.                                         Ÿ
                                   15899                       Ÿ                                                             Ÿ
                                   15900                       Ÿ  The RACF access control element is set into an approriate  Ÿ
                                   15901                       Ÿ  TCBSENV field to facilitate RACF checking for DFP          Ÿ
                                   15902                       Ÿ  operations.  The owned IOWA is set unless we are in        Ÿ
                                   15903                       Ÿ  debugging mode, in that case WYLBUR's mother TCB is used.  Ÿ
                                   15904                       Ÿ                                                             Ÿ
                                   15905                       Ÿ  It is assumed that an IOWA is owned and its address is     Ÿ
                                   15906                       Ÿ  contained in IOWAR.                                        Ÿ
                                   15907                       ¾þþþþþþþþþþþþþþþþþþþþþþþþþþþþþþþþþþþþþþþþþþþþþþþþþþþþþþþþþþþþþ»
00008C6 50E0 D000/9008_      00000 15909              ACEESET  XPROC ,
 USING  *,R7
 0008E0 5820 6024            00024 15949                       L     R2,WATCB            SET ADDRESS OF IOWA TCB
 0008E4 9108 C4C4/47E0_004C4       15950                       IF    CVFNDSUB,'L R2,CVTCBP'  SET MOTHER TCB FOR DEBUGGING
 USING  TCB,R2                     15971                       WITH  (TCB,R2),BEGIN      ADDRESSABILITY TO TCB
 0008F0 9180 B1FC/47E0_001FC       15985  1                      IF    (CPRACDEF,AND,(TCBSENV,EQ,=A(0))),BEGIN
 000902 5810 7298/0A6B       00B78 16016  2                        MODESET MF=(E,MODSETZ)    ENTER KEY ZERO FOR TCB UPDATE
 000908 D203 2154 B200 00174 00200 16020  2                        MVC   TCBSENV,CPACEE      SET USER'S ACEE POINTER
 00090E 5810 729C/0A6B       00B7C 16021  2                        MODESET MF=(E,MODSETP)    RESUME PROBLEM PROGRAM KEY
 000914                            16025  1                      END
 DROP   TCB,R2                     16029                       END
 000914 18D8/9808 D004_            16037                       PEND  ,
 DROP   *,R7
 DROP   IOWA,R6                    16057                       DROP  IOWAR               RELEASE IOWA
1PROT     (PROT2025) (12:52) (15MAR04) Access Interface & UAL Setup  (for DISK)                                             Page   27
0Current Usings:  (CP,R11) (CV,R12)
0Loc    Object Code    Addr1 Addr2  Stmt Lv Lineno    Source Statement           (Hibal 5, Asmedit 3.3)  HLASM R4.0  2004/03/15 12.52
+___    ______ ____    _____ _____  ____ __ ______    ______ _________
0                                  16065              ¿þþþþþþþþþþþþþþþþþþþþþþþþþþþþþþþþþþþþþþþþþþþþþþþþþþþþþþþþþþþþþþþþþþþþþÜ
                                   16066              Ÿ                                                                     Ÿ
                                   16067              Ÿ  Add RACF account to RACF data base.                                Ÿ
                                   16068              Ÿ                                                                     Ÿ
                                   16069              Ÿ        R1    Pointer to 5 byte ("uuugg") account                    Ÿ
                                   16070              Ÿ                                                                     Ÿ
                                   16071              Ÿ        Returns   0 - OK                                             Ÿ
                                   16072              Ÿ                  nz- Not OK; R1,R0 - error msg loc, len             Ÿ
                                   16073              Ÿ                                                                     Ÿ
                                                      ¾þþþþþþþþþþþþþþþþþþþþþþþþþþþþþþþþþþþþþþþþþþþþþþþþþþþþþþþþþþþþþþþþþþþþþ»
0000922 50E0 D000/9028_      00000 16074              RACADD   XPROC (R2,LSR)
 USING  *,R7
 00093C 4110 73AE/4100_      00CEA 16114                       SETMSG 'OK'
 000944 1BFF                       16118                       CLEAR R15                 A-ok
 000946 18D8/9828 D004_            16122                       PEND
 DROP   *,R7
1PROT     (PROT2025) (12:52) (15MAR04) Access Interface & UAL Setup  (for DISK)                                             Page   28
0Current Usings:  (CP,R11) (CV,R12)
0Loc    Object Code    Addr1 Addr2  Stmt Lv Lineno    Source Statement           (Hibal 5, Asmedit 3.3)  HLASM R4.0  2004/03/15 12.52
+___    ______ ____    _____ _____  ____ __ ______    ______ _________
0                                  16143              ¿þþþþþþþþþþþþþþþþþþþþþþþþþþþþþþþþþþþþþþþþþþþþþþþþþþþþþþþþþþþþþþþþþþþþþÜ
                                   16144              Ÿ                                                                     Ÿ
                                   16145              Ÿ  Delete RACF account from RACF data base.                           Ÿ
                                   16146              Ÿ                                                                     Ÿ
                                   16147              Ÿ        R1    Pointer to 5 byte ("uuugg") account                    Ÿ
                                   16148              Ÿ                                                                     Ÿ
                                   16149              Ÿ        Returns   0 - OK                                             Ÿ
                                   16150              Ÿ                  nz- Not OK; R1,R0 - error msg loc, len             Ÿ
                                   16151              Ÿ                                                                     Ÿ
                                                      ¾þþþþþþþþþþþþþþþþþþþþþþþþþþþþþþþþþþþþþþþþþþþþþþþþþþþþþþþþþþþþþþþþþþþþþ»
0000954 50E0 D000/9028_      00000 16152              RACDEL   XPROC (R2,LSR)
 USING  *,R7
 00096E 4110 737C/4100_      00CEA 16192                       SETMSG 'OK'
 000976 1BFF                       16196                       CLEAR R15                 A-ok
 000978 18D8/9828 D004_            16200                       PEND
 DROP   *,R7
1PROT     (PROT2025) (12:52) (15MAR04) Access Interface & UAL Setup  (for DISK)                                             Page   29
0Current Usings:  (CP,R11) (CV,R12)
0Loc    Object Code    Addr1 Addr2  Stmt Lv Lineno    Source Statement           (Hibal 5, Asmedit 3.3)  HLASM R4.0  2004/03/15 12.52
+___    ______ ____    _____ _____  ____ __ ______    ______ _________
0                                  16221              ¿þþþþþþþþþþþþþþþþþþþþþþþþþþþþþþþþþþþþþþþþþþþþþþþþþþþþþþþþþþþþþþþþþþþþþÜ
                                   16222              Ÿ                                                                     Ÿ
                                   16223              Ÿ  Update account's RACF password to the password specified.          Ÿ
                                   16224              Ÿ                                                                     Ÿ
                                   16225              Ÿ        R1    Contains the address of an 8 byte left adjusted        Ÿ
                                   16226              Ÿ              blank filled password                                  Ÿ
                                   16227              Ÿ        R15   Pointer to 5 byte ("uuugg") account                    Ÿ
                                   16228              Ÿ                                                                     Ÿ
                                   16229              Ÿ        Returns   0 - Password has been updated                      Ÿ
                                   16230              Ÿ                  4 - Unable to acquire an IOWA                      Ÿ
                                   16231              Ÿ                  8 - RACF failure                                   Ÿ
                                   16232              Ÿ                                                                     Ÿ
                                                      ¾þþþþþþþþþþþþþþþþþþþþþþþþþþþþþþþþþþþþþþþþþþþþþþþþþþþþþþþþþþþþþþþþþþþþþ»
0000986 50E0 D000/9008_      00000 16234              RACUPDPW XPROC ,
 USING  *,R7
 0009A0 1821                       16274                       LR    R2,R1               SAVE POINTER TO PASSWORD
 0009A2 183F                       16275                       LR    R3,R15              SAVE POINTER TO USER ID
 0009A4 92FF BF35      00F35       16276                       MVI   DSNWAF2,DSNFSIMP    SET FOR SIMPLE WORK AREA
 0009A8 58E0 732C/0DEE       00CCC 16277                       DOPEN ,                   Request iowa work area
 0009AE 4770 7050            009F0 16286                       IF    Z,BEGIN             Successful - proceed
 0009B2 5860 BDDC            00DDC 16297  1                      L     IOWAR,CPIOWAP       Set address of our IOWA
 USING  IOWA,R6                    16298  1                      WITH  IOWA                Addressability to IOWA
 0009B6 1812                       16310  1                      LR    R1,R2               Set address of password
 0009B8 58E0 7338/0DEE       00CD8 16311  1                      ACALL RACPASCK            Check for valid RACF password
 0009BE 4770 7048            009E8 16315  1                      IF    Z,BEGIN             Password valid - proceed
 0009C2 9206 6DA8      00DA8       16326  2                        MVI   RACFID,06           Set length of RACF user ID
 0009C6 D201 6DA9 3003 00DA9 00003 16327  2                        MVC   RACFID+1(2),@R3+3     Set group portion
 0009CC 925B 6DAB      00DAB       16328  2                        MVI   RACFID+3,C'$'           Set $ seperator
 0009D0 D202 6DAC 3000 00DAC 00000 16329  2                        MVC   RACFID+4(3),@R3           Set user portion
 0009D6 9208 6DAF      00DAF       16330  2                        MVI   RACFPSWD,08                 Set RACF password length
 0009DA D207 6DB0 2000 00DB0 00000 16331  2                        MVC   RACFPSWD+1(8),@R2             And passed password
 0009E0 58E0 733C/0DEE       00CDC 16332  2                        ACALL RACNPASS            Set new RACF password for user
 0009E6 1BFF                       16336  2                        CLEAR R15                 Set successful return code
 0009E8 704C/47F0 7050_009E8 009C0 16340  1                      END   ELSE,'LA R15,8'     Set invalid racf password
 0009F0 7054/47F0 7058_009F0 009B0 16361                       END   ELSE,'LA R15,4'     Set return code
 DROP   IOWA,R6
 0009F8 18D8/9808 D004_            16387                       PEND  ,
 DROP   *,R7
1PROT     (PROT2025) (12:52) (15MAR04) Access Interface & UAL Setup  (for DISK)                                             Page   30
0Current Usings:  (CP,R11) (CV,R12)
0Loc    Object Code    Addr1 Addr2  Stmt Lv Lineno    Source Statement           (Hibal 5, Asmedit 3.3)  HLASM R4.0  2004/03/15 12.52
+___    ______ ____    _____ _____  ____ __ ______    ______ _________
0                                  16408              ¿þþþþþþþþþþþþþþþþþþþþþþþþþþþþþþþþþþþþþþþþþþþþþþþþþþþþþþþþþþþþþþþþþþþþþÜ
                                   16409              Ÿ                                                                     Ÿ
                                   16410              Ÿ  Check user's password for RACF compatability.                      Ÿ
                                   16411              Ÿ                                                                     Ÿ
                                   16412              Ÿ        R1    Contains the address of an 8 byte left adjusted        Ÿ
                                   16413              Ÿ              blank filled password                                  Ÿ
                                   16414              Ÿ                                                                     Ÿ
                                   16415              Ÿ        Returns   0 - Password valid, no modifications made          Ÿ
                                   16416              Ÿ                  4 - Password contains invalid characters.          Ÿ
                                   16417              Ÿ                      password pointed to by R1 has been modified    Ÿ
                                   16418              Ÿ                      to conform to RACF password conventions.       Ÿ
                                   16419              Ÿ                  8 - Password too short                             Ÿ
                                   16420              Ÿ                                                                     Ÿ
                                                      ¾þþþþþþþþþþþþþþþþþþþþþþþþþþþþþþþþþþþþþþþþþþþþþþþþþþþþþþþþþþþþþþþþþþþþþ»
0000A06 50E0 D000/9008_      00000 16421              RACPASCK XPROC ,
 USING  *,R7
 000A20 1841                       16461                       LR    R4,R1               Copy address of password
 000A22 4110 4007            00007 16462                       LA    R1,@R4+7            Point to last character
 000A26 4130 0008            00008 16463                       LA    R3,8                Set maximum length of password
0000A2A                            16465                       LOOP  BEGIN               Compute actual length
 000A2A 9540 1000/4770_00000       16471  1                      IF    (@R1,NE,C' '),EXIT  Exit with length set
 000A32 5B10 72A8            00CC8 16490  1                      S     R1,=A(1)            Decrement address
 000A36 5B30 72A8            00CC8 16491  1                      S     R3,=A(1)            Decrement length
 000A3A 4770 700A            00A2A 16492                       WHILE NZ,END              Keep checking
0000A3E 5930 72C0/47B0_      00CE0 16509                       IF    (R3,LT,5),BEGIN     Password too short
 000A46 41F0 0008            00008 16526  1                      LA    R15,8               Set return code
 000A4A 702E/47F0 7048 00A4A 00A44 16527                       END   ELSE,BEGIN          Scan for invalid characters
 000A4E 5B30 72A8            00CC8 16542  1                      S     R3,=A(1)            Adjust for ex(trt)
 000A52 1BFF                       16543  1                      CLEAR R15                 Assume password is valid
 000A54 4430 72DE/DD00_      00CFE 16547  1                      WHILE ('EX R3,"TRT @R4(0),RACTRT"',NZ),BEGIN
 000A5C 41F0 0004            00004 16577  2                        LA    R15,4               Set password modified
 000A60 4220 1000            00000 16578  2                        STC   R2,@R1              Set replacement character
 000A64 47F0 7034            00A54 16579  1                      END
 000A68                            16584                       END
0000A68 18D8/9808 D004_            16589                       PEND  ,
 DROP   *,R7
1PROT     (PROT2025) (12:52) (15MAR04) Access Interface & UAL Setup  (for DISK)                                             Page   31
0Current Usings:  (CP,R11) (CV,R12)
0Loc    Object Code    Addr1 Addr2  Stmt Lv Lineno    Source Statement           (Hibal 5, Asmedit 3.3)  HLASM R4.0  2004/03/15 12.52
+___    ______ ____    _____ _____  ____ __ ______    ______ _________
0                                  16610              *
                                   16611              * Password translate and test table.
                                   16612              *
                                   16613              *        Valid characters are indicated by x'00'.  The invalid
                                   16614              *        character's table value is what it will be translated
                                   16615              *        to in the returned password string.
                                   16616              *
0000A76 7C7C7C7C7C7C7C7C           16618              RACTRT   DC    256XL01'7C'         Set all characters to invalid
0000B76                00B76 00AF7 16620                       ORG   RACTRT+C'a'         Define lower "a-i"
 000AF7 C1C2C3C4C5C6C7C8           16621                       DC    CL9'ABCDEFGHI'        Set for translate to upper
0000B00                00B00 00B07 16623                       ORG   RACTRT+C'j'         Define lower "j-r"
 000B07 D1D2D3D4D5D6D7D8           16624                       DC    CL9'JKLMNOPQR'        Set for translate to upper
0000B10                00B10 00B18 16626                       ORG   RACTRT+C's'         Define lower "s-z"
 000B18 E2E3E4E5E6E7E8E9           16627                       DC    CL8'STUVWXYZ'         Set for translate to upper
0000B20                00B20 00B37 16629                       ORG   RACTRT+C'A'         Define A-I as valid characters
 000B37 0000000000000000           16630                       DC    XL9'00'               Set valid password character
0000B40                00B40 00B47 16632                       ORG   RACTRT+C'J'         Define J-R as valid characters
 000B47 0000000000000000           16633                       DC    XL9'00'               Set valid password character
0000B50                00B50 00B58 16635                       ORG   RACTRT+C'S'         Define S-Z as valid characters
 000B58 0000000000000000           16636                       DC    XL8'00'               Set valid password character
0000B60                00B60 00B66 16638                       ORG   RACTRT+C'0'         Define 0-9 as valid characters
 000B66 0000000000000000           16639                       DC    XL10'00'              Set valid password character
0000B70                00B70 00AD1 16641                       ORG   RACTRT+C'$'         Define $
 000AD1 00                         16642                       DC    XL1'00'               Set valid password character
0000AD2                00AD2 00AF1 16644                       ORG   RACTRT+C'#'         Define #
 000AF1 00                         16645                       DC    XL1'00'               Set valid password character
0000AF2                00AF2 00AF2 16647                       ORG   RACTRT+C'@'         Define @
 000AF2 00                         16648                       DC    XL1'00'               Set valid password character
0000AF3                00AF3 00B76 16650                       ORG   ,                   Origin out to end of table
1PROT     (PROT2025) (12:52) (15MAR04) Access Interface & UAL Setup  (for DISK)                                             Page   32
0Current Usings:  (CP,R11) (CV,R12)
0Loc    Object Code    Addr1 Addr2  Stmt Lv Lineno    Source Statement           (Hibal 5, Asmedit 3.3)  HLASM R4.0  2004/03/15 12.52
+___    ______ ____    _____ _____  ____ __ ______    ______ _________
0                                  16652                     ¿þþþþþþþþþþþþþþþþþþþþþþþþþþþþþþþþþþþþþþþþþþþþþþþþþþþþþþþþþþþþþþþþþÜ
                                   16653                     Ÿ  Define model RACF parameter lists and RACF associated control  Ÿ
                                   16654                     Ÿ    constants.                                                   Ÿ
                                   16655                     ¾þþþþþþþþþþþþþþþþþþþþþþþþþþþþþþþþþþþþþþþþþþþþþþþþþþþþþþþþþþþþþþþþþ»
0000B78 00000030                   16657              MODSETZ  MODESET KEY=ZERO,MF=L     Enter key zero
 000B7C 00000020                   16661              MODSETP  MODESET KEY=NZERO,MF=L    Enter problem key
0000B80 07C4C1E3C1E2C5E3           16666              RACLASS  DC    X'07',C'DATASET'    Define RACF class name parameter
 000B88 067C7C5B7C7C7C             16667              RACNUSR  DC    X'06',C'@@$@@@'     Define RACF null user
 000B8F 08D5E4D3D3D7C1E2           16668              RACNPAS  DC    X'08',C'NULLPASS'   Define RACF null user password
                                   16671              RACIMOD  RACINIT MF=L              Define RACINIT parameter list
 000B98                            16672    01-RACIN +RACIMOD  DS    0F
                                   16673    01-RACIN +ICH03430 EQU   *
 000B98 38                         16674    01-RACIN +         DC    AL1(56)          LIST LENGTH                    @YA24122
 000B99 00                         16675    01-RACIN +         DC    AL1(0)           NO SUBPOOL SPECIFIED           @PC003PY
 000B9A 00                         16676    01-RACIN +         DC    B'00000000'                                         @M4C
 000B9B 00                         16677    01-RACIN +         DC    B'00000000'                                         @L6A
 000B9C 00000000                   16678    01-RACIN +         DC    A(0) -              USERID ADDRESS FIELD
 000BA0 00000000                   16679    01-RACIN +         DC    A(0) -             PASSWORD ADDRESS FIELD
 000BA4 00000000                   16680    01-RACIN +         DC    A(0) -             PROCEDURE NAME ADDR FIELD
 000BA8 00000000                   16681    01-RACIN +         DC    A(0) -             INSTALLATION PARAMETERS ADDRESS
 000BAC 00000000                   16682    01-RACIN +         DC    A(0) -             GROUP ADDRESS FIELD
 000BB0 00000000                   16683    01-RACIN +         DC    A(0) -             NEW PASSWORD ADDRESS FIELD
 000BB4 00000000                   16684    01-RACIN +         DC    A(0) -             PGMNAME ADDRESS FIELD        @PC002PY
 000BB8 00000000                   16685    01-RACIN +         DC    A(0) -             ACTINFO ADDRESS FIELD        @PC002PY
 000BBC 00000000                   16686    01-RACIN +         DC    A(0) -             OIDCARD ADDRESS FIELD        @PC002PY
 000BC0 00000000                   16687    01-RACIN +         DC    A(0) -             TERMID ADDRESS FIELD         @PC002PY
 000BC4 00000000                   16688    01-RACIN +         DC    A(0) -             JOBNAME ADDRESS FIELD        @PM44591
 000BC8 00000000                   16689    01-RACIN +         DC    A(0) -             APPL ADDRESS FIELD           @PC003PY
 000BCC 00000000                   16690    01-RACIN +         DC    A(0) -             ACEE ADDRESS FIELD           @PC003PY
                                   16691              RACIMODL EQU   *-RACIMOD           Generate length of parameter list
1PROT     (PROT2025) (12:52) (15MAR04) Access Interface & UAL Setup  (for DISK)                                             Page   33
0Current Usings:  (CP,R11) (CV,R12)
0Loc    Object Code    Addr1 Addr2  Stmt Lv Lineno    Source Statement           (Hibal 5, Asmedit 3.3)  HLASM R4.0  2004/03/15 12.52
+___    ______ ____    _____ _____  ____ __ ______    ______ _________
0                                  16693              RACCMOD  RACHECK MF=L              Define RACHECK parameter list
 000BD0                            16694    01-RACHE +RACCMOD  DS    0F
                                   16695    01-RACHE +ICH03431    EQU *
 000BD0 38                         16696    01-RACHE +         DC    AL1(56)          LENGTH OF RACHECK PARAMETER LIST   @L7A
 000BD1 000000                     16697    01-RACHE +         DC    AL3(0) - ADDRESS OF INSTALLATION DATA
 000BD4 00                         16698    01-RACHE +         DC    B'00000000'
 000BD5 000000                     16699    01-RACHE +         DC    AL3(0) -       ENTITY OR PROFILE ADDRESS FIELD  @PC002PY
 000BD8 02                         16700    01-RACHE +         DC    B'00000010'                                         @Q1C
 000BD9 000000                     16701    01-RACHE +         DC    AL3(0) -       CLASS NAME ADDRESS FIELD
 000BDC 00                         16702    01-RACHE +         DC    B'00000000'                              3RD FLAGS  @P1C
 000BDD 000000                     16703    01-RACHE +         DC    AL3(0) -       VOLSER ADDR FIELD
 000BE0 00000000                   16704    01-RACHE +         DC    A(0) -       OLD VOLSER ADDR FIELD              @PC002PY
 000BE4 00000000                   16705    01-RACHE +         DC    A(0)     - APPL ADDRESS                         @PC003PY
 000BE8 00000000                   16706    01-RACHE +         DC    A(0)     - ACEE ADDRESS                         @PC003PY
 000BEC 00000000                   16707    01-RACHE +         DC    A(0)     - OWNER ADDRESS.                         @L4A
 000BF0 0000000000000000           16708    01-RACHE +         DC    4A(0)                                               @L5A
 000C00 00000000                   16709    01-RACHE +         DC    A(0)     - ACCESS VALUE ADDRESS.                  @L5A
 000C04 00000000                   16710    01-RACHE +         DC    A(0)     - 2ND ACCESS ADDRESS.                    @L5A
                                   16711              RACCMODL EQU   *-RACCMOD           Generate length of parameter list
0                                  16713            C ICHIPRM  ICHEINTY ALTER,TYPE='USR',ENTRY=*-*,
                                                                     ACTIONS=(*-*,*-*),MF=L
 000C08                            16714    01-ICHEI +ICHIPRM  DS    0F
 000C08 00                         16717    03-ICHEO +         DC    AL1(0)                   IPLOPT1.
 000C09 08                         16720    03-ICHEO +         DC    AL1(8)                   IPLOPT2.
 000C0A 01                         16723    03-ICHEO +         DC    AL1(1)                   IPLOPT3.
 000C0B 02                         16726    03-ICHEO +         DC    AL1(2)                   ENTRY TYPE.
 000C0C 00000000                   16729    03-ICHEO +         DC    AL4(*-*)                 ENTRY.
 000C10 00000C24                   16732    03-ICHEO +         DC    AL4(IHB3432C)            FLDEF PTR.
 000C14 00000000                   16735    03-ICHEO +         DC    AL4(0)                   POINTER TO RBA
 000C18 00000000                   16738    03-ICHEO +         DC    AL4(0)                   ADDR OF ENTITY CLASS
 000C1C 00000000                   16741    03-ICHEO +         DC    AL4(0)                   WORK AREA OR NEWNAME
 000C20 00000000                   16744    03-ICHEO +         DC    AL4(0)                   POINTER TO VOLUME
                                   16745    01-ICHEI +IHB3432C EQU   *                        END OF FIXED LENGTH LIST
 000C24 00                         16748    03-ICHEO +         DC    AL1(0)                   RESERVED.
 000C25 00                         16751    03-ICHEO +         DC    AL1(0)                   MAX NO. TESTS.
 000C26 00                         16754    03-ICHEO +         DC    AL1(0)                   CURRENT NO. TESTS.
 000C27 02                         16757    03-ICHEO +         DC    AL1(2)                   NO. ACTIONS.
 000C28 00000000                   16760    03-ICHEO +         DC    AL4(*-*)                 ACTION.
 000C2C 00000000                   16763    03-ICHEO +         DC    AL4(*-*)                 ACTION.
0                                  16765              ICHAPRM  ICHEACTN FIELD=PASSWORD,FLDATA=(*-*,*-*),MF=L
 000C30                            16766    01-ICHEA +ICHAPRM  DS    0H                                              @ZA59772
 000C30 00                         16769    03-ICHEO +         DC    AL1(0)                   NO. OF TESTS.
 000C31 01                         16772    03-ICHEO +         DC    AL1(1)                   NO. OF FLDATA PTRS.
 000C32 00                         16775    03-ICHEO +         DC    AL1(0)                   FIRST FLAG BYTE
 000C33 00                         16778    03-ICHEO +         DC    AL1(0)                   GROUP INDICATOR.
 000C34 D7C1E2E2E6D6D9C4           16781    03-ICHEO +         DC    CL8'PASSWORD'            FIELD NAME.
 000C3C 00000000                   16784    03-ICHEO +         DC    AL4(*-*)                 FLDATA.
 000C40 00000000                   16787    03-ICHEO +         DC    AL4(*-*)                 FLDATA.
0                                  16789              ICHDPRF  ICHEINTY DELETE,TYPE='DS',ENTRY=*-*,GENERIC=UNCOND,MF=L
 000C44                            16790    01-ICHEI +ICHDPRF  DS    0F
 000C44 00                         16793    03-ICHEO +         DC    AL1(0)                   IPLOPT1.
1PROT     (PROT2025) (12:52) (15MAR04) Access Interface & UAL Setup  (for DISK)                                             Page   34
0Current Usings:  (CP,R11) (CV,R12)
0Loc    Object Code    Addr1 Addr2  Stmt Lv Lineno    Source Statement           (Hibal 5, Asmedit 3.3)  HLASM R4.0  2004/03/15 12.52
+___    ______ ____    _____ _____  ____ __ ______    ______ _________
0000C45 80                         16796    03-ICHEO +         DC    AL1(128)                 IPLOPT2.
 000C46 0D                         16799    03-ICHEO +         DC    AL1(13)                  IPLOPT3.
 000C47 04                         16802    03-ICHEO +         DC    AL1(4)                   ENTRY TYPE.
 000C48 00000000                   16805    03-ICHEO +         DC    AL4(*-*)                 ENTRY.
 000C4C 00000C60                   16808    03-ICHEO +         DC    AL4(IHB3480C)            FLDEF PTR.
 000C50 00000000                   16811    03-ICHEO +         DC    AL4(0)                   POINTER TO RBA
 000C54 00000000                   16814    03-ICHEO +         DC    AL4(0)                   ADDR OF ENTITY CLASS
 000C58 00000000                   16817    03-ICHEO +         DC    AL4(0)                   WORK AREA OR NEWNAME
 000C5C 00000000                   16820    03-ICHEO +         DC    AL4(0)                   POINTER TO VOLUME
                                   16821    01-ICHEI +IHB3480C EQU   *                        END OF FIXED LENGTH LIST
 000C60 00                         16824    03-ICHEO +         DC    AL1(0)                   RESERVED.
 000C61 00                         16827    03-ICHEO +         DC    AL1(0)                   MAX NO. TESTS.
 000C62 00                         16830    03-ICHEO +         DC    AL1(0)                   CURRENT NO. TESTS.
 000C63 00                         16833    03-ICHEO +         DC    AL1(0)                   NO. ACTIONS.
                                   16834              ICHDPRFL EQU   *-ICHDPRF
1PROT     (PROT2025) (12:52) (15MAR04) Access Interface & UAL Setup  (for DISK)                                             Page   35
0Current Usings:  (CP,R11) (CV,R12)
0Loc    Object Code    Addr1 Addr2  Stmt Lv Lineno    Source Statement           (Hibal 5, Asmedit 3.3)  HLASM R4.0  2004/03/15 12.52
+___    ______ ____    _____ _____  ____ __ ______    ______ _________
0                                  16837              *
 000C64 900F C780/4DE0_      00780 16838              ACS12    KAPUT ACSERR,'SECURITY SYSTEM INTERFACE ERROR'
                                   16846                       AGO   .DONE
 000C80                            16847              .DONE    LTORG
 000C80 D7C1E2E2E6D6D9C4           16849                             =CL8'PASSWORD'
 000C88 D7C1E2E2C4C1E3C5           16850                             =CL8'PASSDATE'
 000C90 4BC1C3E3C9E5C540           16851                             =C'.ACTIVE '
 000C98 000002D8                   16852                             =A(CRTACEE)
 000C9C 00000452                   16853                             =A(RACFCHK)
 000CA0 00000008                   16854                             =A(8)
 000CA4 00000872                   16855                             =A(ACEECLR)
 000CA8 00000004                   16856                             =A(4)
 000CAC 00000000                   16857                             =A(0)
 000CB0 00000000                   16858                             =V(KWIO)
 000CB4 0000000C                   16859                             =A(12)
 000CB8 00000000                   16860                             =V(WAITOFF)
 000CBC 00000000                   16861                             =V(WAITON)
 000CC0 00000000                   16862                             =V(AMODE24)
 000CC4 00000000                   16863                             =V(AMODE31)
 000CC8 00000001                   16864                             =A(1)
 000CCC 00000000                   16865                             =V(DOPEN)
 000CD0 00000B98                   16866                             =A(RACIMOD)
 000CD4 00000000                   16867                             =V(EXTCLOSE)
 000CD8 00000A06                   16868                             =A(RACPASCK)
 000CDC 00000546                   16869                             =A(RACNPASS)
 000CE0 00000005                   16870                             =A(5)
 000CE4 4BD4C1C9D340               16871                             =C'.MAIL '
 000CEA D6D2                       16872                             =C'OK'
 000CEC 20                         16873                             =XL1'20'
 000CED D7E4C2C7C1                 16874                             =C'PUBGA'
 000CF2 5B5B5B5B5B                 16875                             =C'$$$$$'
                                   16879
                                   16880                       VLTORG
 000D28                00D28 00D28 16889                       END   .

1PROT     (PROT2025) (12:52) (15MAR04) Relocation Dictionary                                                                Page   36
-   Pos.Id   Rel.Id   Flags    Address                                                       HLASM R4.0  2004/03/15 12.52
0  00000001 00000001    0C    00000C10
   00000001 00000001    0C    00000C4C
   00000001 00000001    08    00000C79
   00000001 00000001    0C    00000C98
   00000001 00000001    0C    00000C9C
   00000001 00000001    0C    00000CA4
   00000001 00000001    0C    00000CD0
   00000001 00000001    0C    00000CD8
   00000001 00000001    0C    00000CDC
   00000001 00000003    1C    00000048
   00000001 00000004    1C    00000CB0
   00000001 00000005    1C    00000CB8
   00000001 00000006    1C    00000CBC
   00000001 00000007    1C    00000CC0
   00000001 00000008    1C    00000CC4
   00000001 00000009    1C    00000CCC
   00000001 0000000A    1C    00000CD4

1PROT     (PROT2025) (12:52) (15MAR04) Ordinary Symbol and Literal Cross Reference                                          Page   37
-Symbol   Length   Value     Id    R Type   Defn References                                  HLASM R4.0  2004/03/15 12.52
0$$$@R0        1 00000000 FFFFFFFE     J     706  1003
 $$$@R10       1 00000000 FFFFFFF4     J     836  1080
 $$$@R11       1 00000000 FFFFFFF3     J     849  1093
 $$$@R12       1 00000000 FFFFFFF2     J     862  1106
 $$$@R13       1 00000000 FFFFFFF1     J     875  1119
 $$$@R14       1 00000000 FFFFFFF0     J     888  1132
 $$$@R6        1 00000000 FFFFFFF8     J     784  1016
 $$$@R7        1 00000000 FFFFFFF7     J     797  1029
 $$$@R8        1 00000000 FFFFFFF6     J     810  1042   1054
 $$$@R9        1 00000000 FFFFFFF5     J     823  1067
 $$$C1WYLPROT
               1 00000093 00000001     J   13268 13270  14983  16570
 $$$C2WYLPROT
               1 00000D04 00000001     J   16876 16878
 $$$C3WYLPROT
               1 00000D28 00000001     J   16892 16894
 $$$DVT        4 000008B8 FFFFFFE9     F    7172  7226   7226
 $$$D1WYLPROT
               1 00000CF7 00000001     J   13269 14972  16559
 $$$RCP        1 00000000 FFFFFFEC     J    2501  4761   6235   6235
 $$$RCV        1 00000000 FFFFFFEE     J    1226  2411   2411
 $$$RDEV       1 00000000 FFFFFFEB     J    4715  4760   4760
 $$$RJCB       1 00000000 FFFFFFE4     J   10320 10594  10594
 $$$RNSCNCB
               1 00000000 FFFFFFED     J    2422  2495   2495
 $$$RPROTWA
               1 00000000 FFFFFFDD     J   12744 13092  13092
 $$$RTTYPE
               1 00000000 FFFFFFEA     J    6246  6347   6347
 $$$RUSERCVT
               1 00000000 FFFFFFE3     J   10600 10683  10683
 $$$SEGCB0
               4 00000050 FFFFFFEC     F    2532  2618   2618
 $$$V01       31 00000D04 00000001     C   16886 16845
 $$$100E       2 000004C8 00000001     H   14484 14478
 $$$100F       2 000004FC 00000001     H   14507 14480B
 $$$104F       2 00000538 00000001     H   14607 14598B
 $$$105        1 00000050 00000001 A   U   14627 14624  14626
 $$$107B       1 00000560 00000001     X   14662 14669U
 $$$108        1 00000050 00000001 A   U   14788 14785  14787
 $$$110B       1 0000061A 00000001     X   14823 14830U
 $$$111F       2 000006A6 00000001     H   15019 14852B 14869B 14888B 14908B 14928B
 $$$117F       2 00000664 00000001     H   14960 14949B
 $$$117S       2 00000650 00000001     H   14941 14959B
 $$$119        6 00000CF8 00000001     I   14978 14970X
 $$$120        6 00000CF8 00000001     I   14977 14978  14978
 $$$121        1 00000050 00000001 A   U   15049 15046  15048
 $$$123B       1 000006D0 00000001     X   15082 15089U
 $$$124F       2 00000742 00000001     H   15201 15108B
 $$$125F       2 0000073C 00000001     H   15189 15129B
 $$$126        1 00000050 00000001 A   U   15231 15228  15230
 $$$128B       1 00000770 00000001     X   15267 15274U
 $$$129F       2 000007C6 00000001     H   15422 15300B
 $$$130F       2 00000794 00000001     H   15338 15326B
 $$$131F       2 000007C0 00000001     H   15407 15349B
1PROT     (PROT2025) (12:52) (15MAR04) Ordinary Symbol and Literal Cross Reference                                          Page   38
 $$$132B       4 000007B2 00000001     I   15373 15389
 $$$132F       2 000007B8 00000001     H   15386 15373B 15388
 $$$133E       2 000007BC 00000001     H   15396 15390
 $$$133F       2 000007C0 00000001     H   15403 15392B
 $$$134        1 00000050 00000001 A   U   15441 15438  15440
 $$$136B       1 000007F0 00000001     X   15475 15482U
 $$$137F       2 0000081A 00000001     H   15568 15503B
 $$$138F       2 0000081A 00000001     H   15556 15533B
 $$$141        1 00000050 00000001 A   U   15586 15583  15585
 $$$143B       1 00000842 00000001     X   15621 15628U
 $$$144F       2 00000864 00000001     H   15713 15647B
 $$$145F       2 00000864 00000001     H   15701 15677B
 $$$148        1 00000050 00000001 A   U   15731 15728  15730
 $$$150B       1 0000088C 00000001     X   15771 15778U
 $$$151F       2 0000089C 00000001     H   15817 15807B
 $$$152F       2 000008B8 00000001     H   15867 15844B
 $$$153        1 00000050 00000001 A   U   15893 15890  15892
 $$$155B       1 000008E0 00000001     X   15933 15940U
 $$$156F       2 000008F0 00000001     H   15970 15960B
 $$$157F       2 00000914 00000001     H   16028 15997B 16011B
 $$$159        1 00000050 00000001 A   U   16054 16051  16053
 $$$161B       1 0000093C 00000001     X   16098 16105U
 $$$162        1 00000040 00000001 A   U   16139 16136  16138
 $$$164B       1 0000096E 00000001     X   16176 16183U
 $$$165        1 00000040 00000001 A   U   16217 16214  16216
 $$$167B       1 000009A0 00000001     X   16258 16265U
 $$$168B       4 000009AE 00000001     I   16292 16372
 $$$168F       2 000009F0 00000001     H   16369 16292B 16371
 $$$169B       4 000009BE 00000001     I   16321 16346
 $$$169F       2 000009E8 00000001     H   16343 16321B 16345
 $$$170E       2 000009EC 00000001     H   16353 16347
 $$$170F       2 000009F0 00000001     H   16360 16349B
 $$$171E       2 000009F4 00000001     H   16379 16373
 $$$171F       2 000009F8 00000001     H   16386 16375B
 $$$172        1 00000050 00000001 A   U   16404 16401  16403
 $$$174B       1 00000A20 00000001     X   16445 16452U
 $$$175F       2 00000A3E 00000001     H   16505 16484B
 $$$175S       2 00000A2A 00000001     H   16469 16502B
 $$$179B       4 00000A42 00000001     I   16521 16533
 $$$179F       2 00000A4A 00000001     H   16530 16521B 16532
 $$$180E       2 00000A4E 00000001     H   16540 16534
 $$$180F       2 00000A68 00000001     H   16587 16536B
 $$$181F       2 00000A68 00000001     H   16583 16572B
 $$$181S       2 00000A54 00000001     H   16552 16582B
 $$$183        6 00000CFE 00000001     I   16565 16557X
 $$$184        6 00000CFE 00000001     I   16564 16565  16565
 $$$185        1 00000050 00000001 A   U   16606 16603  16605
 $$$46B        1 00000026 00000001     X   13223 13230U
 $$$47B        1 000000AE 00000001     X   13300 13310U
 $$$49F        2 000000C4 00000001     H   13368 13355B
 $$$52F        2 00000108 00000001     H   13464 13428B
 $$$55F        2 00000104 00000001     H   13459 13447B
 $$$65F        2 000001BE 00000001     H   13653 13643B
 $$$66B        4 000001CE 00000001     I   13673 13686
 $$$66F        2 000001DE 00000001     H   13683 13673B 13685
 $$$68E        2 000001E2 00000001     H   13693 13687
 $$$68F        2 000001E8 00000001     H   13700 13689B
 $$$69F        2 000001F6 00000001     H   13724 13714B
 $$$72F        2 0000023A 00000001     H   13794 13784B
1PROT     (PROT2025) (12:52) (15MAR04) Ordinary Symbol and Literal Cross Reference                                          Page   39
 $$$80B        1 000002F2 00000001     X   13955 13962U
 $$$81B        4 0000031C 00000001     I   14014 14031
 $$$81F        2 0000033E 00000001     H   14028 14014B 14030
 $$$83E        2 00000342 00000001     H   14038 14032
 $$$83F        2 0000034E 00000001     H   14045 14034B
 $$$84F        2 0000038E 00000001     H   14127 14059B
 $$$85B        4 00000366 00000001     I   14077 14093
 $$$85F        2 0000037A 00000001     H   14089 14077B 14092
 $$$86E        2 0000037E 00000001     H   14100 14094
 $$$86F        2 0000038E 00000001     H   14123 14096B 14111B
 $$$88F        2 000003B0 00000001     H   14204 14138B
 $$$89F        2 000003B0 00000001     H   14192 14168B
 $$$92         1 00000050 00000001 A   U   14222 14219  14221
 $$$94B        1 000003D8 00000001     X   14253 14260U
 $$$95F        2 00000444 00000001     H   14330 14314B
 $$$96         1 00000050 00000001 A   U   14348 14345  14347
 $$$98B        1 0000046C 00000001     X   14395 14402U
 $$$99B        4 0000048E 00000001     I   14449 14477
 $$$99F        2 000004C4 00000001     H   14474 14449B 14476
 $ACSREAD      1 00000080 00000001 A   U   13125 13613
 $ACSSCRN      1 00000042 00000001 A   U   13126 13616
 $ACSWRIT      1 00000060 00000001 A   U   13124 13610
 $USINTMS      1 00000004 00000001 A   U   13167 13178
 $USINTSY      1 00000008 00000001 A   U   13169 13178
 $USINTUS      1 00000002 00000001 A   U   13165 13178
 $USSTC        1 00000020 00000001 A   U   13173 13178
 @RAR          0 00000000 FFFFFFF0     @    1133  2209   2217B
 @R0           0 00000000 FFFFFFFE     @     707   983U
 @R1           0 00000000 FFFFFFFD     @     720   979U  2215   2216  15151  16481  16578M
 @R10          0 00000000 FFFFFFF4     @     837   943U
 @R11          0 00000000 FFFFFFF3     @     850   939U
 @R12          0 00000000 FFFFFFF2     @     863   935U
 @R13          0 00000000 FFFFFFF1     @     876   931U 13292M 13433M 13434M 13446
 @R14          0 00000000 FFFFFFF0     @     889   927U
 @R15          0 00000000 FFFFFFEF     @     902   923U
 @R2           0 00000000 FFFFFFFC     @     733   975U 14199U 15563U 15708U 15874U 16035U 16331
 @R3           0 00000000 FFFFFFFB     @     746   971U 14948  16327  16329
 @R4           0 00000000 FFFFFFFA     @     759   967U 16462  16564
 @R5           0 00000000 FFFFFFF9     @     772   963U
 @R6           0 00000000 FFFFFFF8     @     785   959U 13923U 14357U 15030U 15184U 15417U 16062U 16366U
 @R7           0 00000000 FFFFFFF7     @     798   955U 13307U 13916U 14211U 14337U 14616U 14777U 15038U 15220U 15430U
                                                 15575U 15720U 15882U 16043U 16128U 16206U 16393U 16595U
 @R8           0 00000000 FFFFFFF6     @     811   951U
 @R9           0 00000000 FFFFFFF5     @     824   947U
 ABRTCODE      1 00000024 FFFFFFEC A   U    6226 13895
 ABSCENT       1 00000000 00000000 A   T    2225  2225
 ACCESS        4 00000094 00000001     I   13292 13291
 ACEE          1 00000000 FFFFFFDE     J   12526 14152U 15517U 15661U
 ACEECLR       2 00000872 00000001     H   15752 15748  16855
 ACEEFLG1      1 00000026 FFFFFFDE     B   12564 14167  14184M 15532  15548M 15676  15693M
 ACEEOPER      1 00000020 FFFFFFDE A   U   12568 14165  14182  15530  15546  15674  15691
 ACEESET       2 000008C6 00000001     H   15914 15910
 ACS$$K        1 000000BA 00000001 A   N   13116 13117
 ACS$$R        1 00000088 00000001 A   N   13115 13116  13118
 ACS$$W        1 000000FA 00000001 A   N   13117 13119
 ACSASK        4 000002A2 00000001     I   13883 13547B 13855B
 ACSCAL        2 00000220 00000001     H   13741 13733B 13735B
 ACSMAKE       4 00000168 00000001     I   13610 13557B
 ACSNSTD       2 00000296 00000001     H   13858 13850B
1PROT     (PROT2025) (12:52) (15MAR04) Ordinary Symbol and Literal Cross Reference                                          Page   40
 ACSOBT        4 0000018C 00000001     I   13623 13621B
 ACSOK         2 000002B2 00000001     H   13890 13460B 13511B 13537B 13753B 13811B 13813B 13854B
 ACSOKC        2 0000029E 00000001     H   13877 13814B 13852B
 ACSPACCT      4 00000464 FFFFFFE9     A    6720 13624M
 ACSPDSCB      4 00000460 FFFFFFE9     A    6719 13626M
 ACSREAD       4 00000170 00000001     I   13613 13555B
 ACSRTN        2 000002CA 00000001     I   13906 13886B 13893B 13896B
 ACSSCR        4 00000178 00000001     I   13616 13575B 13589B 13603B
 ACSSTANF      2 00000140 00000001     H   13549 13334B 13382B 13408B
 ACSSTO        4 0000017C 00000001     I   13619 13611B 13614B
 ACSUAL        4 0000046C FFFFFFE9     F    6724 13628
 ACS0          2 0000024E 00000001     H   13804 13797B
 ACS12         2 00000C64 00000001     H   16841 13800B
 ACS4          2 00000268 00000001     H   13818 13798B
 ACS8          4 000002C0 00000001     I   13898 13484B 13799B 13831B 13843B 13869B
 ACWMODE       1 00000469 FFFFFFE9     X    6722 13619M 13622M
 ACWOPER       1 00000468 FFFFFFE9     X    6721  6717  13610M 13613M 13616M
 AHLHEAD       1 00000000 00000000 A   T    9393  9393
 AHLVCCR8      1 00000000 00000000 A   T    9884  9884
 AMODE24       1 00000000 00000007     T   16862 16862
 AMODE31       1 00000000 00000008     T   16863 16863
 ASCB          1 00000000 FFFFFFE0     J   11708 15492
 ASCBASXB      4 0000006C FFFFFFE0     A   11831 15492
 ASCTBL        1 00000000 00000000 A   T    2233  2233
 ASMVT         1 00000000 00000000 A   T    9773  9773
 ASXB          1 00000000 FFFFFFDF     J   12418 15493
 ASXBSENV      4 000000C8 FFFFFFDF     A   12470 15493
 BLDLSZ        1 0000004C FFFFFFE9 A   U    6563  6552
 BLTBL         1 00000000 00000000 A   T    2235  2235
 BR            7 00000007 FFFFFFFF A   #    1023 13297M 13310U 13950M 14248M 14390M 14657M 14818M 15077M 15262M 15470M
                                                 15616M 15766M 15928M 16093M 16171M 16253M 16440M
 CATBLOCK      8 00000988 FFFFFFE9     D    8391  6626   6636   8398   8400   8674
 CATDVTYP      4 0000098A FFFFFFE9     C    8393  8396
 CATNTTR       8 00000A88 FFFFFFE9     U    8398  6634   8399
 CATRSIZE      8 00000109 FFFFFFE9 A   U    8400  8674
 CATVOLID      8 00000A8B FFFFFFE9     U    8399  6635   8400
 CBBRANCH      1 00000000 00000000 A   T    9929  9929
 CC            1 00000040 FFFFFFE9 A   U    6486  6492   6494   6496   6498   6500   6502   6506   6508   6514   6516
                                                  6518   6520   6522   6532   6534   6540
 CHECKIOB      1 00000000 00000000 A   T    2281  2281
 COMMAND       1 00000000 00000000 A   T    2221  2221
 COMMSEG       1 00000000 00000000 A   T    2222  2222
 CP         4096 00000000 FFFFFFEC     J    6235  1210U
 CP#XSTK       1 00000010 FFFFFFEC A   U    3967  3968
 CPACEE        4 00000200 FFFFFFEC     A    2842 14130  14286  14421  15100  15157  15197M 15197  15639  16020
 CPACFLG       1 000005D5 FFFFFFEC     R    4070  4074   4079   4084   4089   4094
 CPACFLN       4 000005C4 FFFFFFEC     F    4062  4097   4097
 CPAFLAG       1 000005C3 FFFFFFEC     R    4034  4038   4043   4048   4053
 CPANAME       8 00000588 FFFFFFEC     C    4016  4112   4112
 CPAUTFLG      1 000008A9 FFFFFFEC     R    4380  4384   4389   4394   4399
 CPCHFLAG      1 00000B68 FFFFFFEC     R    5007  5011
 CPDFLG        1 0000084C FFFFFFEC     R    4267  4271   4276   4281   4286   4291
 CPDFLG2       1 0000084D FFFFFFEC     R    4296  4300   4305   4310   4315   4320   4325
 CPEXFLG       1 00000758 FFFFFFEC     R    4136  4140
 CPEXFLG2      1 00000759 FFFFFFEC     R    4146  4155   4165
 CPEXFLG3      1 0000075A FFFFFFEC     R    4172  4176   4181
 CPEXTFLG      1 00000E28 FFFFFFEC     R    5818  5822   5827   5832   5837   5842   5847
 CPFABORT    128 00000D5A FFFFFFEC         5584  2185M  2185   2190M  2190
 CPFERROR     64 00000D5A FFFFFFEC         5589  2184M  2184   2189M  2189
1PROT     (PROT2025) (12:52) (15MAR04) Ordinary Symbol and Literal Cross Reference                                          Page   41
 CPFKOK       32 00000D55 FFFFFFEC         5459 13881M
 CPFNTEX       1 00000040 FFFFFFEC A   U    5436  5437
 CPFRCVY      64 00000474 FFFFFFEC         3586 13840
 CPFRDRNG      1 00000D88 FFFFFFEC     R    5704  5708   5713   5718   5723   5728   5733   5738
 CPFRDSRC      1 00000D89 FFFFFFEC     R    5743  5752   5762   5772
 CPFSCRTC      1 00000040 FFFFFFEC A   U    5359 13734
 CPFUNUM       1 00000080 FFFFFFEC A   U    5435  5437
 CPFXDFLG      1 000007E4 FFFFFFEC     R    4214  4218   4223
 CPGFLG1       1 00000474 FFFFFFEC     R    3577  3581   3586   3591   3596   3601   3931   3931
 CPGFLG10      1 0000047D FFFFFFEC     R    3814  3818   3823   3828   3833   3838   3843
 CPGFLG11      1 0000047E FFFFFFEC     R    3849  3853   3858
 CPGFLG12      1 0000047F FFFFFFEC     R    3864  3868   3873   3878
 CPGFLG13      1 00000480 FFFFFFEC     R    3884  3888
 CPGFLG14      1 00000481 FFFFFFEC     R    3894  3898   3903   3908   3913   3918
 CPGFLG4       1 00000477 FFFFFFEC     R    3630  3641   3650   3659   3668   3677
 CPGFLG5       1 00000478 FFFFFFEC     R    3683  3687   3692   3697   3702   3707   3712   3717   3722
 CPGFLG6       1 00000479 FFFFFFEC     R    3728  3732   3737   3742
 CPGFLG7       1 0000047A FFFFFFEC     R    3748  3752   3757   3762   3767
 CPGFLG8       1 0000047B FFFFFFEC     R    3773  3777   3782   3787   3792
 CPGFLG9       1 0000047C FFFFFFEC     R    3798  3802   3808
 CPINIT        1 00000174 FFFFFFEC     U    2747  6204
 CPIOWAP       4 00000DDC FFFFFFEC     F    5796 15134  15305  16297
 CPJESFLG      1 000009E1 FFFFFFEC     R    4479  4483   4488   4493   4498   4503   4508   4513   4518
 CPJESFLY      1 000009FD FFFFFFEC     R    4529  4533   4538   4543
 CPJESHFL      1 000009E0 FFFFFFEC     R    4464  4468   4473   4552   4552
 CPLFLG10      1 00000D59 FFFFFFEC     R    5570  5574
 CPLFLG11      1 00000D5A FFFFFFEC     R    5580  5584   5589   5594   5599
 CPLFLG12      1 00000D5B FFFFFFEC     R    5605  5609
 CPLFLG14      1 00000D5C FFFFFFEC     R    5615  5619   5624   5629   5634   5639
 CPLFLG2       1 00000D51 FFFFFFEC     R    5357 13734
 CPLFLG6       1 00000D55 FFFFFFEC     R    5445  5449   5454   5459   5464   5469   5474
 CPLFLG7       1 00000D56 FFFFFFEC     R    5480  5484   5489   5494   5499   5504
 CPLFLG8       1 00000D57 FFFFFFEC     R    5510  5514   5519   5524   5529
 CPLFLG9       1 00000D58 FFFFFFEC     R    5535  5539   5544   5549   5554   5559   5564
 CPLOCALZ      1 00000C48 FFFFFFEC     U    5037  6198   6198
 CPMFLG        1 0000084F FFFFFFEC     R    4334  4338
 CPMODFLG      1 00000C78 FFFFFFEC     R    5065  5069   5074   5079   5084   5089
 CPNAMELN      1 00000010 FFFFFFEC A   U    3960  4207
 CPNEDPFX     10 00000E29 FFFFFFEC     X    5851  5852   5853
 CPNUMFLG      1 00000C79 FFFFFFEC     R    5095  5107
 CPORVCMD      1 00000140 FFFFFFEC     R    2629  2633   2638   2643   2648   2653   2658   2663   2668   2673   2673
                                                  2724   2724
 CPORVFLG      1 00000149 FFFFFFEC     R    2680  2684   2689   2694   2699   2704   2709   2714   2719
 CPORVWF       1 00000150 FFFFFFEC     R    2732  2736
 CPOSCANX      4 00000CA8 FFFFFFEC     F    5264  5331   5331
 CPR          11 0000000B FFFFFFFF A   #    1087  1210U
 CPRACBAD     16 000001FC FFFFFFEC         2798  2832   2832   2833   2833
 CPRACDEF    128 000001FC FFFFFFEC         2783 13379  14324M 15348  15996
 CPRACF1       1 000001FC FFFFFFEC     R    2779  2783   2788   2793   2798   2803   2808   2813   2818   2834  13354
                                                 14064M 14304M 15209M 15325
 CPRACPSW     32 000001FC FFFFFFEC         2793  2831   2831   2833   2833
 CPRACUND     64 000001FC FFFFFFEC         2788  2831   2831   2832   2832
 CPRCVCUR      4 00000730 FFFFFFEC     A    4115  4117   4117
 CPRFLG        1 000008AA FFFFFFEC     R    4405  4409   4414   4419   4424   4429   4434
 CPS         254 00000344 FFFFFFEC     X    3549  3552   3553   3555   3555
 CPSACCT       5 000003B4 FFFFFFEC     C    3148  3311   3311  13446  13631  13642M 13642  13851  13851
 CPSAMCOD      1 00000A22 FFFFFFEC     R    4601  4609   4619   4629   4638   4647   4656   4666   4675   4684
 CPSAMFLG      1 00000A21 FFFFFFEC     R    4561  4565   4570   4575   4580   4585   4590   4595   4706   4706
 CPSCNFLG      1 00000CD0 FFFFFFEC     R    5277  5288   5297   5308
1PROT     (PROT2025) (12:52) (15MAR04) Ordinary Symbol and Literal Cross Reference                                          Page   42
 CPSCNF2       1 00000CD1 FFFFFFEC     R    5313  5317
 CPSCNMAX      1 00000014 FFFFFFEC A   U    5329  5330
 CPSCRI        2 00000434 FFFFFFEC     H    3538  3543   3543
 CPSEG        60 00000050 FFFFFFEC     X    2618 13245
 CPSEGCOD      1 00000050 FFFFFFEC     R    2535  2544   2554   2564   2574   2584   2594   2604
 CPSFL         1 00000384 FFFFFFEC     R    2886  2890   2895   2900   2905   2910
 CPSFLG        1 000003F8 FFFFFFEC     R    3426  3430   3435   3440   3445   3450   3455   3460   3465
 CPSFLG2       1 000003F9 FFFFFFEC     R    3471  3475   3480   3485
 CPSFL2        1 00000385 FFFFFFEC     R    2916  2920   2925   2930   2935
 CPSFL3        1 00000386 FFFFFFEC     R    2941  2945   2950   2955
 CPSFL4        1 00000387 FFFFFFEC     R    2961  2965   2970   2975
 CPSFL5        1 00000388 FFFFFFEC     R    2981  2985   2990   2995
 CPSFSPR      32 000003BE FFFFFFEC         3251 13866
 CPSGRP        2 000003B7 FFFFFFEC     C    3150 13989
 CPSKAFL       1 000003BF FFFFFFEC     R    3282  3286   3291   3296   3301   3306
 CPSKIFL       1 000003BE FFFFFFEC     R    3237  3241   3246   3251   3256   3261   3266   3271   3276  13725
 CPSOF         1 000001F8 FFFFFFEC     X    2769  2771   2771
 CPSOFLAG      1 00000416 FFFFFFEC     R    3496  3500   3505   3510   3515   3520
 CPSOPST       4 000003C4 FFFFFFEC     F    3316  3545   3545
 CPSPORT       8 00000354 FFFFFFEC     C    2880  3000   3000
 CPSPROJ       8 000003F0 FFFFFFEC     C    3422 13654
 CPSQFLG       1 000003EC FFFFFFEC     R    3345  3349
 CPSSFLG       1 000003BB FFFFFFEC     R    3155  3159   3164   3169   3174   3179   3184
 CPSSTART      4 00000344 FFFFFFEC     F    2872  2876   2876   3312   3312   3417   3417   3549   3549
 CPSSTAT       1 0000038F FFFFFFEC     R    3092  3096   3101   3106   3111   3116   3121   3126
 CPSTACF       1 000003BC FFFFFFEC     R    3190  3194   3199   3204   3209   3214   3219   3224   3229
 CPSTART       4 00000000 FFFFFFEC     C    2508  6202   6206
 CPSTFLAG      1 000003EA FFFFFFEC     R    3323  3327   3332   3337
 CPSTYPE       1 0000038C FFFFFFEC     R    3005  3014   3024   3034   3044   3054   3064   3074   3084
 CPSUFLG       1 000003EE FFFFFFEC     R    3360  3364   3369   3374   3379   3384   3389   3394   3399
 CPSUFLG2      1 000003EF FFFFFFEC     R    3405  3409   3414
 CPSUSER       3 000003B4 FFFFFFEC     C    3149 13988
 CPSVPGM       8 0000039C FFFFFFEC     C    3138  3144   3144
 CPS1ST        4 0000038C FFFFFFEC     F    3002  3547   3547
 CPTEMPP#      1 0000005F FFFFFFEC A   U    4455  4457
 CPTRMFL1      1 00000C7A FFFFFFEC     R    5113  5117   5122   5127   5251   5251
 CPTRMFL2      1 00000C7B FFFFFFEC     R    5133  5137   5142   5147   5152   5157   5162
 CPTRMFL3      1 00000C7C FFFFFFEC     R    5168  5172   5177   5182   5187   5192   5197   5202
 CPTRMFL4      1 00000C7D FFFFFFEC     R    5208  5212   5217   5222   5227   5232   5237   5242
 CPUSED        1 00000FBC FFFFFFEC A   U    6202  6203
 CPVACURS      8 00000AF0 FFFFFFEC     D    4980  4981   4982
 CPVCURS       8 00000AE0 FFFFFFEC     D    4974  4975   4976
 CPVFLAG       1 00000AC8 FFFFFFEC     R    4775  4779   4784   4789   4794   4799
 CPVFLAG2      1 00000AC9 FFFFFFEC     R    4805  4809   4814   4819   4824   4829   4834
 CPVFLAG3      1 00000ACA FFFFFFEC     R    4840  4844   4849   4854   4859   4864   4869
 CPVFLAG4      1 00000ACB FFFFFFEC     R    4875  4879   4884   4889
 CPVLFLAG      1 00000ACE FFFFFFEC     R    4944  4948   4953   4958
 CPVMODE       1 00000ACC FFFFFFEC     R    4897  4901   4906   4911   4916   4921   4926   4931   4936
 CPVTWID       2 00000AD0 FFFFFFEC     H    4964  4967   4967
 CPWK1         4 00000D60 FFFFFFEC     F    5648  5663   5686
 CPWK2         4 00000D64 FFFFFFEC     F    5649  5664   5678
 CPWK3         4 00000D68 FFFFFFEC     F    5650  5665   5679
 CPWK4         4 00000D6C FFFFFFEC     F    5651  5666   5680
 CPWK5         4 00000D70 FFFFFFEC     F    5652  5668   5673   5681
 CPWK6         4 00000D74 FFFFFFEC     F    5653  5669   5674   5682   5689   5691
 CPWK7         4 00000D78 FFFFFFEC     F    5654  5667   5683
 CPXFLAG       1 000007FD FFFFFFEC     R    4242  4246
 CPXSTATE      4 000007F8 FFFFFFEC     F    4236  4249   4249
 CRBRANCH      1 00000000 00000000 A   T    9670  9670
1PROT     (PROT2025) (12:52) (15MAR04) Ordinary Symbol and Literal Cross Reference                                          Page   43
 CRTACEE       2 000002D8 00000001     H   13936 16852
 CSRTABLE      1 00000000 00000000 A   T    9690  9690
 CSVARMGR      1 00000000 00000000 A   T    9738  9738
 CSVEXIT       1 00000000 00000000 A   T    9611  9611
 CSVLLCB       1 00000000 00000000 A   T    9211  9211
 CSVLLTRM      1 00000000 00000000 A   T    9212  9212
 CSVMEM        1 00000000 00000000 A   T    9439  9439
 CSVVFGET      1 00000000 00000000 A   T   10003 10003
 CSVVFIND      1 00000000 00000000 A   T   10001 10001
 CV         4016 00000000 FFFFFFEE     J    2411  1219U
 CVABSRTN      4 0000088C FFFFFFEE     V    2225  2200
 CVABTMSG      4 000007CC FFFFFFEE     I    2185 13256B
 CVASCBP       4 00000718 FFFFFFEE     A    2110 15491
 CVBRMSK       1 00000751 FFFFFFEE     X    2141  2142   2143
 CVCFLAG       1 00000A00 FFFFFFEE     R    2306  2310   2315   2320   2325   2330
 CVCHKST       8 000009F0 FFFFFFEE     D    2296  2386   2386
 CVCHKST2      8 00000E28 FFFFFFEE     D    2389  2392   2392
 CVCOMRTN      4 0000087C FFFFFFEE     V    2221  2191
 CVDBGFLG      1 000004CC FFFFFFEE     R    1995  1999
 CVENT         4 0000074C FFFFFFEE     I    2139 13220B 13297B 13950B 14248B 14390B 14657B 14818B 15077B 15262B 15470B
                                                 15616B 15766B 15928B 16093B 16171B 16253B 16440B
 CVENTBR       2 00000750 FFFFFFEE     I    2140  2141
 CVERROR       4 000007D6 FFFFFFEE     I    2189  2205B
 CVEXIRTN      4 0000077C FFFFFFEE     V    2169  2165
 CVFCHRKBPR
               8 000004C9 FFFFFFEE         1910  1926   1926
 CVFCHRKBSE
               4 000004C9 FFFFFFEE         1915  1926   1926
 CVFCHRKCPR
               2 000004C9 FFFFFFEE         1932  1948   1948
 CVFCHRKCSE
               1 000004C9 FFFFFFEE         1937  1948   1948
 CVFCHRUBPR
             128 000004C9 FFFFFFEE         1866  1882   1882
 CVFCHRUBSE
              64 000004C9 FFFFFFEE         1871  1882   1882
 CVFCHRUCPR
              32 000004C9 FFFFFFEE         1888  1904   1904
 CVFCHRUCSE
              16 000004C9 FFFFFFEE         1893  1904   1904
 CVFINIT       8 000004C5 FFFFFFEE         1731 13828
 CVFL          1 000004C4 FFFFFFEE     R    1662  1666   1671   1676   1681   1686   1691   1696   1701
 CVFL2         1 000004C5 FFFFFFEE     R    1707  1711   1716   1721   1726   1731   1736   1741   1746
 CVFL3         1 000004C6 FFFFFFEE     R    1752  1756   1761   1766   1771   1776   1781   1786   1791
 CVFL4         1 000004C7 FFFFFFEE     R    1797  1801   1806   1811   1816   1821   1826   1831
 CVFL5         1 000004C8 FFFFFFEE     R    1837  1841   1846   1851   1856
 CVFL6         1 000004C9 FFFFFFEE     R    1862  1866   1871   1883   1888   1893   1905   1910   1915   1927   1932
                                                  1937   1949
 CVFNDSUB      8 000004C4 FFFFFFEE         1686 15806  15959
 CVFNORACF
              64 000004C6 FFFFFFEE         1761 13331
 CVHEAP#       1 00000200 FFFFFFEE A   U    1568  1569
 CVINVRTN      4 00000888 FFFFFFEE     V    2224  2194
 CVJESFLG      1 000004CA FFFFFFEE     R    1955  1959
 CVLNKRGS      4 00000780 FFFFFFEE     F    2171  2146M  2172  16842M
 CVLNKRTN      4 000007B0 FFFFFFEE     U    2172  2161M
 CVLOCK1       1 00000088 FFFFFFEE     R    1313  1317   1322
 CVLOCK2       1 00000089 FFFFFFEE     R    1327  1331
 CVLOCK3       1 0000008A FFFFFFEE     R    1336  1340
1PROT     (PROT2025) (12:52) (15MAR04) Ordinary Symbol and Literal Cross Reference                                          Page   44
 CVLOCK4       1 0000008B FFFFFFEE     R    1345  1349
 CVLOGMOD      1 00000068 FFFFFFEE     R    1300  1304
 CVMACH        1 00000067 FFFFFFEE     R    1260  1264   1269   1274   1279   1284   1289   1294
 CVMILRTN      4 00000884 FFFFFFEE     V    2223  2203
 CVNOARTN      4 00000890 FFFFFFEE     V    2226  2197
 CVNWDATE      4 00000608 FFFFFFEE     F    2028  2032   2032
 CVNWMPG#      1 00000008 FFFFFFEE A   U    2030  2031
 CVPFXRTN      1 00000000 00000000 A   T    2169  2169
 CVPGFLAG      1 00000A01 FFFFFFEE     R    2336  2340   2345   2350
 CVPIOSZ       1 00004F80 FFFFFFEE A   U    1399  1401
 CVPPDBQH      4 0000009C FFFFFFEE     A    1357  1358
 CVPSFNO       1 000003E9 FFFFFFEE A   N    1521  1523
 CVPSLNO       1 000007CF FFFFFFEE A   N    1522  1523
 CVPXSZ        1 00000008 FFFFFFEE A   U    1400  1401
 CVR          12 0000000C FFFFFFFF A   #    1100  1219U
 CVRKEY        1 00000008 FFFFFFEE A   U    2094  2095
 CVSEGRTN      4 00000880 FFFFFFEE     V    2222  2186
 CVSTACK#      1 00000080 FFFFFFEE A   U    1560  1561
 CVSTART       4 00000000 FFFFFFEE     C    1233  2404
 CVTBRET       2 00000052 FFFFFFE8     H    9236  9749   9828
 CVTCBP        4 0000073C FFFFFFEE     A    2124 15813  15966
 CVTRC         4 00000768 FFFFFFEE     I    2161  2147B 16843B
 CVTRCRTN      4 00000778 FFFFFFEE     V    2168  2162
 CVTVSTGX      1 00000000 FFFFFFE7     J   10201 10065
 CVTXTNT1      1 00000000 FFFFFFE6     J   10240  9408
 CVTXTNT2      1 00000000 FFFFFFE5     J   10248  9478  10595  10684
 CVT4MS1       1 00000010 FFFFFFE8 A   U    9261  9269
 CVT6DAT       1 00000002 FFFFFFE8 A   U    9265  9269
 CVUSFNO       1 00000001 FFFFFFEE A   N    1528  1530
 CVUSLNO       1 000003E7 FFFFFFEE A   N    1529  1530
 CVVOL#        1 00000005 FFFFFFEE A   U    2379  2380
 CVWTOFLG      1 000004CB FFFFFFEE     R    1965  1969   1974   1979   1984   1989
 DBUF          8 00000720 FFFFFFE9     D    7021  6542   6594   7027
 DCB           4 00000498 FFFFFFE9     F    6758  6593   6682
 DEBUGSG       1 00000000 00000000 A   T    2122  2122
 DECB          4 0000037C FFFFFFE9     F    6589  6397
 DEV          12 00000000 FFFFFFEB     J    4760  4768
 DEVMAX#       1 00000002 FFFFFFEC A   U    4711  4768
 DEVTYPE       1 00000001 FFFFFFEB     R    4728  4737   4747
 DFAIDTAB      1 00000000 00000000 A   T   10078 10078
 DOPEN         1 00000000 00000009     T   16865 16865
 DOTTBL        1 00000000 00000000 A   T    2238  2238
 DRENCFLG      1 00000F9F FFFFFFEC     R    6166  6170   6175   6180   6185   6190
 DRENPROT      1 00000F9E FFFFFFEC     R    6153  6161
 DSCBSAVE      8 00000D48 FFFFFFE9     D    8688 13736M 13737
 DSN           1 0000029C FFFFFFE9     X    6547  6645
 DSNAME       44 00000270 FFFFFFE9     C    6546  6506   6514   6603   6614   6624   6665   6675   6718  13433  13434
                                                 13678  13679  14463  14496  14905  14925  14935  14962  14964  14977
                                                 15354M
 DSNCATV       6 00000EB8 FFFFFFEC     C    5888 14851
 DSNFACCS      1 00000001 FFFFFFEC A   U    5909 13748
 DSNFALLO      1 00000010 FFFFFFEC A   U    5919 13506  13554  13781  13810
 DSNFMAIL    128 00000F37 FFFFFFEC         5945 13712  13712  13713
 DSNFMYDS      1 00000040 FFFFFFEC A   U    5903 13026  13425  13812  13853
 DSNFRETAIN
               8 00000F39 FFFFFFEC         6055 14866
 DSNFSCR       1 00000040 FFFFFFEC A   U    5917 13503  13554  13556  13778  13810
 DSNFSIMP      1 000000FF FFFFFFEC A   U    5915 15113  15284  16276
 DSNFSML      64 00000F37 FFFFFFEC         5950 13712  13712
1PROT     (PROT2025) (12:52) (15MAR04) Ordinary Symbol and Literal Cross Reference                                          Page   45
 DSNFSTD       1 00000080 FFFFFFEC A   U    5902 13036  13422  13670  13849  14883
 DSNFWRT       1 00000080 FFFFFFEC A   U    5916 13500  13554  13775  13810
 DSNON        40 00000E90 FFFFFFEC     C    5886  5887
 DSNON6        6 00000E90 FFFFFFEC     X    5887 14851
 DSNWADSN     44 00000E5C FFFFFFEC     C    5873  5874   5875   5876   5885   5893   6124   6130   6132   6138   6141
                                                  6143   6146   6195  15354
 DSNWAF1       1 00000F34 FFFFFFEC     R    5900 13028  13038  13427  13750
 DSNWAF2       1 00000F35 FFFFFFEC     R    5913 13508  13783  15113M 15284M 16276M
 DSNWAF4       1 00000F37 FFFFFFEC     R    5941  5945   5950   5955   5960   5965   5970   5975   5980
 DSNWAF5       1 00000F38 FFFFFFEC     R    5986  5990   5995   6000   6005   6010   6015   6020   6025
 DSNWAF6       1 00000F39 FFFFFFEC     R    6031  6035   6040   6045   6050   6055   6060   6065   6070
 DSNWAF7       1 00000F3A FFFFFFEC     R    6076  6080   6085   6090   6095
 DSNXG         1 00000004 FFFFFFEC A   U    5878  5880  13679
 DSNXGL        1 00000003 FFFFFFEC A   U    5879  5880  13679
 DSNXU         1 00000007 FFFFFFEC A   U    5880  5882  13678
 DSNXUL        1 00000004 FFFFFFEC A   U    5881  5882  13678  13679M
 DSSIZ         1 00000108 FFFFFFEC A   U    6124  6132   6141   6146
 DSVID         6 0000034E FFFFFFE9     C    6570  6604   6646   6656   6695
 DS1DSNAM     44 00000998 FFFFFFE9     C    8407  6524   6524   6536   6536
 DS1END        1 00000A24 FFFFFFE9     U    8618  6524   6536   8620
 DS1FMTID      1 000009C4 FFFFFFE9     C    8408  6605   6719   8620  13625  13736
 DS1IND01      1 00000001 FFFFFFE9 A   U    8567  8568
 DS1IND02      1 00000002 FFFFFFE9 A   U    8563  8566
 DS1IND04      1 00000004 FFFFFFE9 A   U    8556  8562
 DS1IND10      1 00000010 FFFFFFE9 A   U    8551  8554
 DS1IND40      1 00000040 FFFFFFE9 A   U    8547  8548
 DS1LOG#1      1 00000010 00000001 A   U   13145 13151  13152
 DS1LOG#2      1 00000008 00000001 A   U   13146 13151  13153
 DS1PTRDS      5 00000A1F FFFFFFE9     X    8616  6655
 DS1SIZE       1 00000060 FFFFFFE9 A   U    8620  8689  13736
 DS1SYSCD     13 000009D6 FFFFFFE9     C    8426  8621
 DS4DEVSZ      4 00000732 FFFFFFE9     X    7083  7084
 DS4VTOCE     10 0000075D FFFFFFE9     X    7139  7160
 DS5AVEXT      5 0000099C FFFFFFE9     X    8654  8665
 DS5EXTAV     35 000009A1 FFFFFFE9     X    8659  8665
 DVTDEVCD      4 000008B8 FFFFFFE9     F    7173  7175   7179   7188
 EBCTBL        1 00000000 00000000 A   T    2234  2234
 EBCTBL7       1 00000000 00000000 A   T    2237  2237
 ECBLIST       1 00000000 00000000 A   T    2097  2097
 ENDCCW        8 00000238 FFFFFFE9     W    6527  6516   6576   6577
 ENDCCW1       8 00000208 FFFFFFE9     W    6514  6502
 ENDCCW2       8 00000220 FFFFFFE9     W    6520  6522
 ENDTEST       5 000008B0 FFFFFFE9     X    7169  6498   6520
 EPARTBL       1 00000000 00000000 A   T    2229  2229
 ERROR         4 0000036C FFFFFFE9     F    6580  6581
 EXLST         4 0000018C FFFFFFE9     F    6448  6816
 EXTCLOSE      1 00000000 0000000A     T   16867 16867
 FACCLOG       8 00000001 FFFFFFDD        12850 12868  12868  12869  12869  12870  12870
 FLAGS         5 0000016B FFFFFFE9     C    6425  6426   6427   6428   6429   6430
 FMBRANCH      1 00000000 00000000 A   T    9854  9854
 FNOIBM       32 00000001 FFFFFFDD        12840 12865  12865  12867  12867  12869  12869
 FOBJACCT     16 00000005 FFFFFFDD        12996 13014  13014  13015  13015  13016  13016
 FOBJDISK     32 00000005 FFFFFFDD        12991 13012  13012  13013  13013  13016  13016
 FOBJTAPE     64 00000005 FFFFFFDD        12986 13011  13011  13013  13013  13015  13015
 FOBJVOP     128 00000005 FFFFFFDD        12981 13011  13011  13012  13012  13014  13014
 FPRIVRES     64 00000001 FFFFFFDD        12835 12865  12865  12866  12866  12868  12868
 FSR           0 00000000 FFFFFFFF A   #     997 13945  14219M 14243  14345M 14385  14624M 14652  14785M 14813  15046M
                                                 15072  15228M 15257  15438M 15465  15583M 15611  15728M 15761  15890M
                                                 15923  16051M 16248  16401M 16435  16603M
1PROT     (PROT2025) (12:52) (15MAR04) Ordinary Symbol and Literal Cross Reference                                          Page   46
 FTARGCOM     32 00000000 FFFFFFDD        12772 12795  12795  12796  12796
 FTARGCPM     56 00000000 FFFFFFDD        12798 12811  12811  12812  12812
 FTARGGRP     64 00000000 FFFFFFDD        12767 12812  12812  12813  12813
 FTARGMSK      8 00000000 FFFFFFDD        12782 12796  12796  12797  12797
 FTARGPUB     16 00000000 FFFFFFDD        12777 12795  12795  12797  12797
 FTARGUSR    128 00000000 FFFFFFDD        12762 12811  12811  12813  12813
 FUNPROT      16 00000001 FFFFFFDD        12845 12866  12866  12867  12867  12870  12870
 F1            1 0000016B FFFFFFE9     X    6426 13672  13812  13849  13853
 F2            1 0000016C FFFFFFE9     X    6427 13554  13556  13810  14885
 GLBRANCH      1 00000000 00000000 A   T    9760  9760
 GMBRANCH      1 00000000 00000000 A   T    9856  9856
 GREMLIN       1 00000DBB FFFFFFE9     R    8698 14965M 14992
 GREMPRF      44 00000DBC FFFFFFE9     C    8700 14962M 14963M 14964M 14977M
 GVT           1 00000000 00000000 A   T    9622  9622
 HIBAL         1 00000000 FFFFFFFF     J     692   708    721    734    747    760    773    786    799    812    825
                                                   838    851    864    877    890    903   1005   1018   1031   1044
                                                  1056   1069   1082   1095   1108   1121   1134
 HSPFMIL       1 00000080 FFFFFFE3 A   U   10612 10616  10617
 HSPFORV       1 00000020 FFFFFFE3 A   U   10614 10616
 HSPFORVR      1 00000010 FFFFFFE3 A   U   10615 10617
 HSPFWYL       1 00000040 FFFFFFE3 A   U   10613 10616  10617
 IARMPVT       1 00000000 00000000 A   T    9497  9497
 IARMRRCE      1 00000000 00000000 A   T   10042 10042
 IARPIBR       1 00000000 00000000 A   T   10012 10012
 IARPSIV       1 00000000 00000000 A   T    9836  9836
 IARPSXM       1 00000000 00000000 A   T    9985  9985
 IARXKEY       1 00000000 00000000 A   T    9943  9943
 IARXVIO       1 00000000 00000000 A   T    9837  9837
 ICHAPRM       2 00000C30 00000001     H   16766 14687  14688
 ICHDPRF       4 00000C44 00000001     F   16790 14985  16834
 ICHDPRFL      1 00000020 00000001 A   U   16834 14985
 ICHELST       4 00000DE8 FFFFFFE9     F    8746  8844   8844  14686M 14727  14985M 14994
 ICHIPRM       4 00000C08 00000001     F   16714 14686
 ICHSETP       2 00000E10 FFFFFFE9     H    8798  8792  14687M 14690  14757
 ICHSETPD      2 00000E24 FFFFFFE9     H    8822  8795  14688M 14706  14762
 ICYMMVTC      1 00000000 00000000 A   T   10268 10268
 ID            8 000001D8 FFFFFFE9     W    6498  6496   6508   6574
 IDA121CV      1 00000000 00000000 A   T    9775  9775
 IEABEND       1 00000000 00000000 A   T    9359  9359
 IEADQIQE      1 00000000 00000000 A   T    9755  9755
 IEAECVT       1 00000000 00000000 A   T    9284  9284
 IEAGSMQ       1 00000000 00000000 A   T    9732  9732
 IEAIHASU      1 00000000 00000000 A   T    9972  9972
 IEALSMQ       1 00000000 00000000 A   T    9734  9734
 IEAMASCB      1 00000000 00000000 A   T    9702  9702   9706
 IEAPATCH      1 00000000 00000000 A   T    9367  9367
 IEAPDSRT      1 00000000 00000000 A   T    9630  9630
 IEAPTRV       1 00000000 00000000 A   T    9446  9446
 IEAQCDSR      1 00000000 00000000 A   T    9350  9350
 IEAQCS01      1 00000000 00000000 A   T    9742  9742
 IEAQLPAQ      1 00000000 00000000 A   T    9351  9351
 IEAQTD00      1 00000000 00000000 A   T    9247  9247
 IEAQTE00      1 00000000 00000000 A   T    9245  9245
 IEARPOST      1 00000000 00000000 A   T    9757  9757
 IEASMFEX      1 00000000 00000000 A   T    9634  9634
 IEASMFSP      1 00000000 00000000 A   T    9980  9980
 IEASPOST      1 00000000 00000000 A   T    9777  9777
 IEASVDCB      1 00000000 00000000 A   T    9238  9238
 IEATCBP       1 00000000 00000000 A   T    9188  9188
1PROT     (PROT2025) (12:52) (15MAR04) Ordinary Symbol and Literal Cross Reference                                          Page   47
 IEATPC        1 00000000 00000000 A   T    9240  9240
 IEATRSCN      1 00000000 00000000 A   T    9598  9598
 IEAVAR02      1 00000000 00000000 A   T    9682  9682
 IEAVBLDP      1 00000000 00000000 A   T    9666  9666
 IEAVDELP      1 00000000 00000000 A   T    9669  9669
 IEAVEAC0      1 00000000 00000000 A   T    9759  9759
 IEAVEADV      1 00000000 00000000 A   T    9917  9917
 IEAVEDR1      1 00000000 00000000 A   T    9802  9802
 IEAVELRM      1 00000000 00000000 A   T    9751  9751
 IEAVENLU      1 00000000 00000000 A   T   10098 10098
 IEAVENQ2      1 00000000 00000000 A   T    9748  9748
 IEAVEQV1      1 00000000 00000000 A   T    9905  9905
 IEAVEQV2      1 00000000 00000000 A   T    9908  9908
 IEAVEQV3      1 00000000 00000000 A   T    9911  9911
 IEAVERI1      1 00000000 00000000 A   T    9804  9804
 IEAVERP1      1 00000000 00000000 A   T    9806  9806
 IEAVERX1      1 00000000 00000000 A   T    9994  9994
 IEAVESC1      1 00000000 00000000 A   T    9933  9933
 IEAVESPR      1 00000000 00000000 A   T    9862  9862
 IEAVESTU      1 00000000 00000000 A   T   10096 10096
 IEAVESVT      1 00000000 00000000 A   T    9868  9868
 IEAVET6E      1 00000000 00000000 A   T    9968  9968
 IEAVEVT2      1 00000000 00000000 A   T    9922  9922
 IEAVEXPR      1 00000000 00000000 A   T    9730  9730
 IEAVEXP1      1 00000000 00000000 A   T    9899  9899
 IEAVFRCL      1 00000000 00000000 A   T    9668  9668
 IEAVGSDA      1 00000000 00000000 A   T    9913  9913
 IEAVGTCL      1 00000000 00000000 A   T    9667  9667
 IEAVGWSA      1 00000000 00000000 A   T    9762  9762
 IEAVLKRM      1 00000000 00000000 A   T    9469  9469
 IEAVMFRM      1 00000000 00000000 A   T    9847  9847
 IEAVMSGS      1 00000000 00000000 A   T    9416  9416
 IEAVNVT0      1 00000000 00000000 A   T   10081 10081
 IEAVRSUH      1 00000000 00000000 A   T    9960  9960
 IEAVRT03      1 00000000 00000000 A   T    9574  9574
 IEAVSPND      1 00000000 00000000 A   T    9970  9970
 IEAVSTAG      1 00000000 00000000 A   T    9710  9710
 IEAVTCTL      1 00000000 00000000 A   T    9962  9962
 IEAVTEST      1 00000000 00000000 A   T    9473  9473
 IEAVTRGR      1 00000000 00000000 A   T    9770  9770
 IEAVTRG1      1 00000000 00000000 A   T    9219  9219
 IEAVTRV3      1 00000000 00000000 A   T    9466  9466
 IEAVTSBP      1 00000000 00000000 A   T    9716  9716
 IEAVTSFR      1 00000000 00000000 A   T    9437  9437
 IEAVTSGL      1 00000000 00000000 A   T    9714  9714
 IEAVVMSR      1 00000000 00000000 A   T    9495  9495
 IEAVWAIT      1 00000000 00000000 A   T    9737  9737
 IEAVWSAC      1 00000000 00000000 A   T    9768  9768
 IEAVWSAG      1 00000000 00000000 A   T    9766  9766
 IEAVWSAL      1 00000000 00000000 A   T    9764  9764
 IEAVXEXT      1 00000000 00000000 A   T    9845  9845
 IEAVXSFT      1 00000000 00000000 A   T    9812  9812
 IEAVXSTN      1 00000000 00000000 A   T    9818  9818
 IEAVXSTS      1 00000000 00000000 A   T    9816  9816
 IEAVXUNN      1 00000000 00000000 A   T    9841  9841
 IEAVXUNS      1 00000000 00000000 A   T    9820  9820
 IEAWTCB       1 00000000 00000000 A   T    9877  9877
 IEA0DS        1 00000000 00000000 A   T    9283  9283
 IEA0EF00      1 00000000 00000000 A   T    9189  9189
1PROT     (PROT2025) (12:52) (15MAR04) Ordinary Symbol and Literal Cross Reference                                          Page   48
 IEA0EF01      1 00000000 00000000 A   T    9229  9229
 IEA0PT0E      1 00000000 00000000 A   T    9949  9949
 IEA0PT01      1 00000000 00000000 A   T    9290  9290
 IEA0PT02      1 00000000 00000000 A   T    9874  9874
 IEA0PT03      1 00000000 00000000 A   T    9951  9951
 IEA0VL00      1 00000000 00000000 A   T    9200  9200
 IEA0VL01      1 00000000 00000000 A   T    9607  9607
 IECIXAVL      1 00000000 00000000 A   T    9275  9275
 IECPCNVT      1 00000000 00000000 A   T    9203  9203
 IECPRLTV      1 00000000 00000000 A   T    9207  9207
 IECSDSL1      1 00000998 FFFFFFE9     U    8405  8406   8627   8648
 IECSDSL3      1 00000998 FFFFFFE9     U    8630  6657   8631
 IECSDSL4      1 00000720 FFFFFFE9     U    7030  7031
 IECSDSL5      1 00000998 FFFFFFE9     U    8651  8652
 IECVEXCL      1 00000000 00000000 A   T    9839  9839
 IECXAPG       1 00000000 00000000 A   T    9198  9198
 IECXITP       1 00000000 00000000 A   T    9228  9228
 IECXTLER      1 00000000 00000000 A   T    9214  9214
 IEC0SCR1      1 00000000 00000000 A   T    9373  9373
 IEECUCB       1 00000000 00000000 A   T    9244  9244
 IEEMSER       1 00000000 00000000 A   T    9222  9222   9288
 IEEVEXSN      1 00000000 00000000 A   T    9577  9577
 IEEVSTOP      1 00000000 00000000 A   T    9887  9887
 IEFAQTOP      1 00000000 00000000 A   T    9694  9694
 IEFAUSDM      1 00000000 00000000 A   T    9194  9194
 IEFENFDM      1 00000000 00000000 A   T    9353  9353
 IEFJESCT      1 00000000 00000000 A   T    9453  9453
 IEFLINK       1 00000000 00000000 A   T    9191  9191
 IEFQMWR       1 00000000 00000000 A   T    9304  9304
 IEWFBOSV      1 00000000 00000000 A   T    9281  9281
 IEWMSEPT      1 00000000 00000000 A   T    9786  9786
 IFBDCB        1 00000000 00000000 A   T    9270  9270
 IFDOLT0A      1 00000000 00000000 A   T    9632  9632
 IFGDEBVR      1 00000000 00000000 A   T   10263 10263
 IGC043BR      1 00000000 00000000 A   T    9678  9678
 IGC044R2      1 00000000 00000000 A   T    9788  9788
 IGC062R1      1 00000000 00000000 A   T    9758  9758
 IGC07903      1 00000000 00000000 A   T    9903  9903
 IGC124        1 00000000 00000000 A   T    9919  9919
 IGFRVT        1 00000000 00000000 A   T    9368  9368
 IGVCPBDB      1 00000000 00000000 A   T   10034 10034
 IGVCPDLB      1 00000000 00000000 A   T   10036 10036
 IGVCPFRE      1 00000000 00000000 A   T   10026 10026
 IGVCPGTC      1 00000000 00000000 A   T   10024 10024
 IGVCPGUB      1 00000000 00000000 A   T   10018 10018
 IGVCPGUP      1 00000000 00000000 A   T   10021 10021
 IGVCPGUS      1 00000000 00000000 A   T   10044 10044
 IGVGCAS       1 00000000 00000000 A   T    9672  9672
 IGVGFAS       1 00000000 00000000 A   T    9676  9676
 IGVGRRGN      1 00000000 00000000 A   T   10048 10048
 IGVGVRGN      1 00000000 00000000 A   T   10050 10050
 IGVQSPET      1 00000000 00000000 A   T    9674  9674
 IGVSLIST      1 00000000 00000000 A   T   10028 10028
 IGVSLOC       1 00000000 00000000 A   T   10032 10032
 IGVSREGN      1 00000000 00000000 A   T   10030 10030
 IGVSTSKI      1 00000000 00000000 A   T   10015 10015
 IHB1146C      1 00000E04 FFFFFFE9     U    8777  8764
 IHB1209C      1 00000E04 FFFFFFE9     U    8878  8865
 IHB1238C      1 00000E04 FFFFFFE9     U    8924  8911
1PROT     (PROT2025) (12:52) (15MAR04) Ordinary Symbol and Literal Cross Reference                                          Page   49
 IHB1267C      1 00000E04 FFFFFFE9     U    8970  8957
 IHB3432C      1 00000C24 00000001     U   16745 16732
 IHB3480C      1 00000C60 00000001     U   16821 16808
 ILRJTERM      1 00000000 00000000 A   T    9957  9957
 INVALID       1 00000000 00000000 A   T    2224  2224
 IOBCSW        4 000001A0 FFFFFFE9     F    6459  6460   6461   6462
 IOSVDEVN      1 00000000 00000000 A   T    9974  9974
 IOSVHID       1 00000000 00000000 A   T    9984  9984
 IOSVSUCB      1 00000000 00000000 A   T    9987  9987
 IOWA          1 00000000 FFFFFFE9     J    6353 13319U 13978U 14418U 15142U 15313U 15794U 16306U
 IOWAR         6 00000006 FFFFFFFF A   #    1010 13978U 14418U 15134M 15142U 15305M 15313U 15794U 16297M 16306U
 IRARMCNS      1 00000000 00000000 A   T    9728  9728
 IRARMEPS      1 00000000 00000000 A   T    9946  9946
 IRARMI00      1 00000000 00000000 A   T    9685  9685
 ISNBRNCH      1 00000000 00000000 A   T    9843  9843
 IWAFLAGS      1 00000014 FFFFFFE9     R    6378  6382   6387   6392
 JCBAFL        1 00000062 FFFFFFE4     R   10439 10443  10448  10453  10458  10463  10468  10473  10478
 JCBBFL        1 00000063 FFFFFFE4     R   10484 10488  10493  10498  10503  10508  10513  10518
 JCBBILLX      8 00000088 FFFFFFE4     D   10569 10577  10577
 JCBRSCF1      1 00000064 FFFFFFE4     R   10524 10528  10533  10538
 JCBSFLG1      1 00000065 FFFFFFE4     R   10544 10548  10553
 JCBWFL        1 00000060 FFFFFFE4     R   10368 10372  10377  10382  10387  10392  10397  10402  10407  10435
 JCBWWFL       1 00000061 FFFFFFE4     R   10413 10417  10422  10427  10432
 JFCB          8 000008D8 FFFFFFE9     D    7234  6452
 JFCBLGTH      1 000000B0 FFFFFFE9 A   U    8385  8680
 JFCBVOLS     30 0000094E FFFFFFE9     C    8277 13630M
 JFCRESRV      4 00000944 FFFFFFE9     B    8194  8231
 KEY           8 000001F0 FFFFFFE9     W    6506  6500
 KWIO          1 00000000 00000004     T   16858 16858
 KWR         504 00000524 FFFFFFE9     X    7012 13986M 13986  13987M 13987  13997
 KWRCRD        1 00000040 FFFFFFE9 A   U    7018 13998
 KWRDSTRT      1 00000529 FFFFFFE9     U    6836  6998   6998
 KWRGRP        2 00000527 FFFFFFE9     C    6833 13989M
 KWRIFAPR      1 00000040 FFFFFFE9 A   U    6844 13056
 KWRIFL        1 00000532 FFFFFFE9     X    6842 14013
 KWRIFSPR      1 00000020 FFFFFFE9 A   U    6845 13046
 KWRIFVAL      1 00000080 FFFFFFE9 A   U    6843 14011
 KWRPASS       8 00000594 FFFFFFE9     X    6966 14024
 KWRSTART      4 00000524 FFFFFFE9     F    6831  7012   7012   7013
 KWRUSER       3 00000524 FFFFFFE9     C    6832  6834   6834  13988M
 LOWTBL        1 00000000 00000000 A   T    2232  2232
 LSR           8 00000008 FFFFFFFF A   #    1048 13945  14219M 14243  14345M 14385  14624M 14652  14785M 14813  15046M
                                                 15072  15228M 15257  15438M 15465  15583M 15611  15728M 15761  15890M
                                                 15923  16051M 16088  16136M 16166  16214M 16248  16401M 16435  16603M
 MEMBER        8 000002F8 FFFFFFE9     C    6553  6558   6563  13558
 MILERR        1 00000000 00000000 A   T    2223  2223
 MINQ          1 00000080 00000001 A   U   13132 13619  13622
 MNEW          1 00000004 00000001 A   U   13137 13622
 MOBDSCB       1 00000010 00000001 A   U   13135 13619
 MODSETP       4 00000B7C 00000001     F   16663 14187  15551  15696  15862  16023
 MODSETZ       4 00000B78 00000001     F   16659 14175  15540  15684  15851  16018
 MT            1 00000080 FFFFFFE9 A   U    6471  6498   6506   6510   6540
 M1            1 000002F8 FFFFFFE9     C   13558 13572  13586  13600
 NBLTBL        1 00000000 00000000 A   T    2236  2236
 NEWDSNAM     44 000002C8 FFFFFFE9     C    6548  6676
 NOACTION      1 00000000 00000000 A   T    2226  2226
 NOPIC         1 00000003 FFFFFFE9 A   U    6484  6518   6527
 NPARTBL       1 00000000 00000000 A   T    2230  2230
 NSCNCB      176 00000000 FFFFFFED     J    2495  2621
1PROT     (PROT2025) (12:52) (15MAR04) Ordinary Symbol and Literal Cross Reference                                          Page   50
 NSCNFLGS      1 00000008 FFFFFFED     R    2432  2436   2441
 NSCNTYPE      1 00000018 FFFFFFED     R    2450  2454   2459   2464   2469   2474
 PAPPEND       1 00000010 00000001 A   U   13109 13116  13118  13129
 PDSREAD       8 00000258 FFFFFFE9     W    6540  6575
 PEXEC         1 00000008 00000001 A   U   13110 13115  13127
 PEXTEND       1 00000004 00000001 A   U   13111 13119  13128
 PFFLGS6       1 00000005 FFFFFFDD     R   12977 12981  12986  12991  12996  13017
 PREAD         1 00000080 00000001 A   U   13106 13115  13125
 PRFLGS1       1 00000000 FFFFFFDD     R   12758 12762  12767  12772  12777  12782  12798  12814
 PRFLGS2       1 00000001 FFFFFFDD     R   12820 12821  12830  12835  12840  12845  12850  12871  12876  12881  12886
 PRFLGS3       1 00000002 FFFFFFDD     R   12892 12896  12901  12906  12911
 PRFLGS4       1 00000003 FFFFFFDD     R   12917 12921  12926  12931  12936  12941  12946
 PRFLGS5       1 00000004 FFFFFFDD     R   12952 12956  12961  12966  12971
 PROTECT       2 00000018 00000001     H   13218 13216
 PROTFREE      2 000006B6 00000001     H   15063 15059
 PROT2025      1 00000000 00000001     R    1150  1148
 PSCR          1 00000002 00000001 A   U   13112 13116  13120  13126
 PWRITE        1 00000020 00000001 A   U   13108 13116  13118  13124
 PWRITNK       1 00000040 00000001 A   U   13107 13117  13118  13120  13124  13126
 RACADD        2 00000922 00000001     H   16079 16075
 RACCHKOP      2 000007D6 00000001     H   15456 15452
 RACCMOD       4 00000BD0 00000001     F   16694 14422  16711
 RACDEL        2 00000954 00000001     H   16157 16153
 RACDSOP       2 00000828 00000001     H   15602 14326B 15598
 RACFCHK       2 00000452 00000001     H   14376 16853
 RACFCHKX      2 00000538 00000001     H   14612 14534B 14554B 14575B
 RACFID        1 00000DA8 FFFFFFE9     X    8695  8710   8761  14019M 14020M 14021M 14022M 14040M 14082M 14282  14739
                                                 16326M 16327M 16328M 16329M
 RACFINIT      2 000003BE 00000001     H   14234 14052B 14085B 14119B
 RACFPDAT      3 00000DB8 FFFFFFE9     X    8697  8843  14685M 14718
 RACFPSWD      1 00000DAF FFFFFFE9     X    8696  8711   8819  14023M 14024M 14041M 14047  14083M 14284  14702  16330M
                                                 16331M
 RACGREM       2 00000600 00000001     H   14804 14800
 RACIMOD       4 00000B98 00000001     F   16672 14275  16691  16866
 RACIMODL      1 00000038 00000001 A   U   16691 14275  14422  15151
 RACINIT       4 00000DE8 FFFFFFE9     F    8704  8723   8724   8744   8845   8891   8937  14275M 14278  14422M 14457
                                                 14490  15151M 15154
 RACLASS       1 00000B80 00000001     X   16666 14466  14499
 RACNPAS       1 00000B8F 00000001     X   16668 14041  14083
 RACNPASS      2 00000546 00000001     H   14643 14117B 16869
 RACNUSR       1 00000B88 00000001     X   16667 14040  14082
 RACPASCK      2 00000A06 00000001     H   16426 14049B 16422  16868
 RACTRT        1 00000A76 00000001     X   16618 16564  16620  16623  16626  16629  16632  16635  16638  16641  16644
                                                 16647
 RACUPDPW      2 00000986 00000001     H   16239 16235
 RAR          14 0000000E FFFFFFFF A   #    1126  2161   2162M  2163B  2165M  2166B  2186M  2187B  2191M  2192B  2194M
                                                  2195B  2197M  2198B  2200M  2201B  2203M  2204M  2204B  2210  13248M
                                                 13249M 13249B 13363M 13364M 13364B 13392M 13393M 13393B 13454M 13455M
                                                 13455B 13468M 13469M 13469B 13521M 13522M 13522B 13545M 13546M 13546B
                                                 13942  14001M 14002M 14002B 14049M 14052M 14085M 14117M 14119M 14221M
                                                 14224B 14240  14273M 14274M 14274B 14301M 14302M 14302B 14326M 14347M
                                                 14350B 14382  14434M 14435M 14435B 14438M 14439M 14439B 14512M 14513M
                                                 14513B 14517M 14518M 14518B 14626M 14629B 14649  14724M 14725M 14725B
                                                 14769M 14770M 14770B 14787M 14790B 14810  14989M 14990M 14990B 15014M
                                                 15015M 15015B 15048M 15051B 15069  15121M 15122M 15122B 15148M 15149M
                                                 15149B 15172M 15173M 15173B 15177M 15178M 15178B 15230M 15233B 15254
                                                 15292M 15293M 15293B 15333M 15334M 15334B 15359M 15360M 15360B 15410M
                                                 15411M 15411B 15440M 15443B 15462  15585M 15588B 15608  15730M 15733B
                                                 15758  15892M 15895B 15920  16053M 16056B 16085  16138M 16141B 16163
1PROT     (PROT2025) (12:52) (15MAR04) Ordinary Symbol and Literal Cross Reference                                          Page   51
                                                 16216M 16219B 16245  16284M 16285M 16285B 16313M 16314M 16314B 16334M
                                                 16335M 16335B 16403M 16406B 16432  16605M 16608B
 RCHKABE       4 00000534 00000001     I   14603 14430
 RDCNT         1 00000012 FFFFFFE9 A   U    6481  6510   6540
 RDKYDATA      1 0000000E FFFFFFE9 A   U    6483  6524   6536   6542
 READCCW       8 00000240 FFFFFFE9     W    6532  6534
 RECSIZE       4 00000364 FFFFFFE9     F    6578 13885M 13903M
 RMBRANCH      1 00000000 00000000 A   T    9853  9853
 RTNNOACS      1 00000048 00000001 A   U    1179 13883  13898
 R0            0 00000000 FFFFFFFF A   #     700  2146   2215M 13237M 13255M 13388M 13389M 13389  13465M 13517M 13518M
                                                 13518  13884M 13885  13902M 13902  13903  14420  14509  15355M 15356M
                                                 15356  16117M 16195M 16842
 R1            1 00000001 FFFFFFFF A   #     713  2209M  2210M  2216M 13236M 13254M 13623M 13624  13625M 13626  13628M
                                                 13629M 13630  13730M 13730  13731  13737M 13738  13997M 14047M 14685
                                                 15150M 16116M 16194M 16274  16310M 16461  16462M 16490M
 R12          12 0000000C FFFFFFFF A   #     856  2172
 R13          13 0000000D FFFFFFFF A   #     869 13219
 R14          14 0000000E FFFFFFFF A   #     882  2147M 13292  14430M 14431  16843M
 R15          15 0000000F FFFFFFFF A   #     895  2146  13245M 13405  13481  13534  13759M 13766M 13766  13790M 13796B
                                                 13883M 13892M 13892  13895M 13898M 14064  14076  14110  14223M 14223
                                                 14304  14313M 14313  14349M 14349  14508  14519M 14560M 14584M 14584
                                                 14597  14597  14603M 14628M 14628  14789M 14789  15024M 15024  15050M
                                                 15050  15213M 15213  15232M 15232  15372  15423M 15442M 15442  15587M
                                                 15587  15732M 15732  15894M 15894  16055M 16055  16121M 16121  16140M
                                                 16140  16199M 16199  16218M 16218  16275  16339M 16339  16356M 16382M
                                                 16405M 16405  16526M 16546M 16546  16577M 16607M 16607  16842
 R2            2 00000002 FFFFFFFF A   #     726 13294  13296  13296  13296  14130M 14131M 14131  14152U 14420M 14448M
                                                 14448  14465  14486M 14486  14498  14508M 14531  14551  14572  14934M
                                                 14954M 14965  14968M 14970  14992M 15003  15100M 15101M 15101  15283M
                                                 15382M 15382  15399M 15423  15491M 15492M 15492  15493M 15493  15502M
                                                 15502  15517U 15639M 15640M 15640  15661U 15796M 15813M 15827U 15949M
                                                 15966M 15980U 16088  16136M 16166  16214M 16274M 16310  16578
 R3            3 00000003 FFFFFFFF A   #     739 14421M 14468  14501  14509M 14935M 14955M 16275M 16463M 16491M 16520
                                                 16542M 16557
 R4            4 00000004 FFFFFFFF A   #     752 16461M
 R6            6 00000006 FFFFFFFF A   #     778 13319U
 R7            7 00000007 FFFFFFFF A   #     791  2139M  2139   2140B  2152B 13220M 13230U
 R8            8 00000008 FFFFFFFF A   #     804 13219M 13294  13295M 13296  13296  13296
 SCHIDEQ       1 00000031 FFFFFFE9 A   U    6472  6492   6498   6520   6532
 SCHKADEQ      1 0000002D FFFFFFE9 A   U    6477  6506   6514
 SCHKADHE      1 0000006D FFFFFFE9 A   U    6479  6480
 SCHKYHE       1 00000069 FFFFFFE9 A   U    6476  6480
 SCRRET        1 00000355 FFFFFFE9     X    6572 13620  13732
 SCRVLST       4 00000348 FFFFFFE9     F    6567  6616   6667   6677
 SDSNQSZ       1 0000002C FFFFFFEC A   U    6127  6128   6129
 SECSYS        2 00000756 00000001     H   15248 15244
 SEEK          5 000001BB FFFFFFE9     X    6468  6492   6518   6527
 SEG           1 00000000 00000003     T   13265 13265
 SKP           1 00000010 FFFFFFE9 A   U    6489  6518
 SLI           1 00000020 FFFFFFE9 A   U    6488  6492   6494   6496   6498   6500   6502   6506   6508   6510   6514
                                                  6516   6518   6520   6522   6524   6527   6532   6534   6536   6540
                                                  6542
 SPR          13 0000000D FFFFFFFF A   #    1113 13942  13945  13946  13947M 13947  14215M 14219  14221  14240  14243
                                                 14244  14245M 14245  14341M 14345  14347  14382  14385  14386  14387M
                                                 14387  14620M 14624  14626  14649  14652  14653  14654M 14654  14781M
                                                 14785  14787  14810  14813  14814  14815M 14815  15042M 15046  15048
                                                 15069  15072  15073  15074M 15074  15224M 15228  15230  15254  15257
                                                 15258  15259M 15259  15434M 15438  15440  15462  15465  15466  15467M
                                                 15467  15579M 15583  15585  15608  15611  15612  15613M 15613  15724M
1PROT     (PROT2025) (12:52) (15MAR04) Ordinary Symbol and Literal Cross Reference                                          Page   52
                                                 15728  15730  15758  15761  15762  15763M 15763  15886M 15890  15892
                                                 15920  15923  15924  15925M 15925  16047M 16051  16053  16085  16088
                                                 16089  16090M 16090  16132M 16136  16138  16163  16166  16167  16168M
                                                 16168  16210M 16214  16216  16245  16248  16249  16250M 16250  16397M
                                                 16401  16403  16432  16435  16436  16437M 16437  16599M 16603  16605
 SRCHC         2 000008D2 FFFFFFE9     H    7230  6510   6532   6540
 SRCHCCW       8 000001C0 FFFFFFE9     W    6492  6494
 STOWLEN       1 00000303 FFFFFFE9     X    6556  6559
 TCB           1 00000020 FFFFFFE2     U   10850 11549  15827U 15980U
 TCBAE         4 000000BC FFFFFFE2     A   11094 11097
 TCBDARPN      1 00000040 FFFFFFE2 A   U   11140 11142
 TCBDARTN      1 00000080 FFFFFFE2 A   U   11137 11139
 TCBFIX        1 00000000 FFFFFFE2     J   10838 10845
 TCBMNLEN      1 00000158 FFFFFFE2 A   U   11549 11594
 TCBPXLEN      1 00000020 FFFFFFE2 A   U   10845 11594
 TCBRD         4 000000B8 FFFFFFE2     A   11089 11093
 TCBSENV       4 00000174 FFFFFFE2     A   11542 15843  15859M 15859  16010  16020M
 TCBXTNT2      1 00000000 FFFFFFE1     J   11554 11592
 TCBX2LEN      1 00000020 FFFFFFE1 A   U   11592 11594
 TIC           1 00000008 FFFFFFE9 A   U    6473  6494   6496   6500   6502   6508   6516   6522   6534
 TRC           1 00000000 00000000 A   T    2168  2168
 TTYFLAG       1 00000004 FFFFFFEA     R    6256  6260
 TTYMAX#       1 00000006 FFFFFFEA A   U    6312  6313
 TTYTFLAG      1 00000005 FFFFFFEA     R    6266  6270   6275   6280   6285   6290   6295   6300
 UALAUTH       5 0000046E FFFFFFE9     C    6726  6720  13623  13631M 13649M 13654M 13720M
 UALKEY        5 00000477 FFFFFFE9     X    6729 13678M 13679M 13696M 13720  13809M 13809  13851
 UALKIAF       2 00000475 FFFFFFE9     X    6728 13661M 13661  13725M
 UALODSCB      4 0000047C FFFFFFE9     A    6730 13731M 13738M
 UPPTBL        1 00000000 00000000 A   T    2231  2231
 USERKIFL      1 00000019 FFFFFFDD     X   13076 13048  13058
 VTOCAREA      8 00000720 FFFFFFE9     D    7028  6647
 WAABEND       4 00000180 FFFFFFE9     A    6441 14431M
 WAGRP         2 00000187 FFFFFFE9     C    6444 14020
 WAITOFF       1 00000000 00000005     T   16860 16860
 WAITON        1 00000000 00000006     T   16861 16861
 WAR           8 00000008 FFFFFFFF A   #    1036 13946M 14215  14244M 14341  14386M 14620  14653M 14781  14814M 15042
                                                 15073M 15224  15258M 15434  15466M 15579  15612M 15724  15762M 15886
                                                 15924M 16047  16089M 16132  16167M 16210  16249M 16397  16436M 16599
 WAR14         4 00000134 FFFFFFE9     F    6409  6410
 WATCB         4 00000024 FFFFFFE9     A    6401 15796  15949
 WAUSER        3 00000184 FFFFFFE9     C    6443 14022
 WTOSG         1 00000000 00000000 A   T    2128  2128
 WYLPROT       1 00000000 00000001     J    1141  1143   2412   2496   6236   6348  12737  13093  13181
 =A(ACEECLR)
               4 00000CA4 00000001     A   16855 13454  13545
 =A(CRTACEE)
               4 00000C98 00000001     A   16852 13363  15333
 =A(RACFCHK)
               4 00000C9C 00000001     A   16853 13392  13468  13521  15359
 =A(RACIMOD)
               4 00000CD0 00000001     A   16866 15150
 =A(RACNPASS)
               4 00000CDC 00000001     A   16869 16334
 =A(RACPASCK)
               4 00000CD8 00000001     A   16868 16313
 =A(0)         4 00000CAC 00000001     A   16857 13534  15843  16010
 =A(1)         4 00000CC8 00000001     A   16864 14954  14955  16490  16491  16542
 =A(12)        4 00000CB4 00000001     A   16859 14110  14531
 =A(4)         4 00000CA8 00000001     A   16856 13481  14076  14551  15372
1PROT     (PROT2025) (12:52) (15MAR04) Ordinary Symbol and Literal Cross Reference                                          Page   53
 =A(5)         4 00000CE0 00000001     A   16870 16520
 =A(8)         4 00000CA0 00000001     A   16854 13405  14572
 =C' commands are no longer supported.'
              34 0000004C 00000001     C   13266 13254
 =C'.ACTIVE '
               8 00000C90 00000001     C   16851 14925
 =C'.MAIL '
               6 00000CE4 00000001     C   16871 14905
 =C'$$$$$'
               5 00000CF2 00000001     C   16875 13696
 =C'OK'        2 00000CEA 00000001     C   16872 16116  16194
 =C'PUBGA'
               5 00000CED 00000001     C   16874 13649
 =C'SCIP security system SET/SHOW PROTECT'
              37 0000006E 00000001     C   13267 13236
 =CL8'PASSDATE'
               8 00000C88 00000001     C   16850 14710
 =CL8'PASSWORD'
               8 00000C80 00000001     C   16849 14694
 =V(AMODE24)
               4 00000CC0 00000001     V   16862 14438
 =V(AMODE31)
               4 00000CC4 00000001     V   16863 14512
 =V(DOPEN)
               4 00000CCC 00000001     V   16865 15121  15292  16284
 =V(EXTCLOSE)
               4 00000CD4 00000001     V   16867 15177  15410
 =V(KWIO)      4 00000CB0 00000001     V   16858 14001
 =V(SEG)       4 00000048 00000001     V   13265 13248
 =V(WAITOFF)
               4 00000CB8 00000001     V   16860 14273  14434  14724  14989  15148
 =V(WAITON)
               4 00000CBC 00000001     V   16861 14301  14517  14769  15014  15172
 =XL1'20'      1 00000CEC 00000001     X   16873 13629

1PROT     (PROT2025) (12:52) (15MAR04) Macro and Copy Code Source Summary                                                   Page   54
- Con Source                                        Volume    Members                        HLASM R4.0  2004/03/15 12.52
0     PRIMARY INPUT                                           CSECT    DROP     END      EX       LTORG    POP
                                                              PRINT    PUSH     SETPERM  START    SUBTEST  USING
   L1 WYL.GS.WYL.WYLBUR.MACLIB                      SYSB05    ABORT    AINFO    ALLOPARM BASE     CCWP     COLINFO
                                                              CONTROL  CP       CPLOCAL  CV       CVLOCAL  DIOWAHDR
                                                              DOPEN    GENTER   IOWA     JCB      KAPUT    KREAD    RG
                                                              RSCHDR   RTNCODES SCANCB   TSEG     TTYPE    VLTORG
                                                              WAITOFF  WAITON   XENTER   XEXIT    XTRACE
   L2 WYL.GG.SYS.MACLIB                             SYSB05    $BC      $BFLKUP  $BV      $CCLKUP  $CRS     $CSS     $L
                                                              $LA      $LBLAD   $LEXP    $LOR     $REL     $RGLKUP
                                                              $USLKUP  ACALL    BEGIN    CLEAR    COMPROC  CSECT    DATA
                                                              DEFCC    DEX      DROP     ELSE     ELSEIF   END      EX
                                                              FLAG     GEN      HIBAL    IDENT    IF       LABEL    LC
                                                              LCALL    LOOP     LS       LT       LTORG    PEND     POP
                                                              PRINT    PROC     PUSH     QLTORG   RECORD   REG      REGS
                                                              SET      SETMSG   START    ST3      USING    VCALL
                                                              WHILE    WITH     XPROC
   L3 SYS3.IS.MACLIB                                SYSB05    DVTAREA  KWR      SEG      SEGCB    SEGLD    SIB
                                                              SYSDEFN  XPUSH
   L4 SYS3.MACLIB                                   SYSB02    SCIPCVT  USERCVT  UTYPDEFN
   L5 SYS1.MACLIB                                   MVSBR9    CAMLST   CVT      DCB      ENQ      IEFJFCBN IHAACEE
                                                              IHAASCB  IHBERMAC IHBINNRA IHBRDWRS IHB01    IKJTCB
                                                              MODESET  OPEN     RACHECK  RACINIT  READ     TIME
   L6 SYS1.MODGEN                                   MVSBR9    ICHEACTN ICHEIN   ICHEINTY ICHEOPT  IECSDSL1 IHAASXB

1PROT     (PROT2025) (12:52) (15MAR04) Dsect Cross Reference                                                                Page   55
-Dsect     Length      Id       Defn                                                         HLASM R4.0  2004/03/15 12.52
0$$$@R0   00000000  FFFFFFFE     706
 $$$@R1   00000000  FFFFFFFD     719
 $$$@R10  00000000  FFFFFFF4     836
 $$$@R11  00000000  FFFFFFF3     849
 $$$@R12  00000000  FFFFFFF2     862
 $$$@R13  00000000  FFFFFFF1     875
 $$$@R14  00000000  FFFFFFF0     888
 $$$@R15  00000000  FFFFFFEF     901
 $$$@R2   00000000  FFFFFFFC     732
 $$$@R3   00000000  FFFFFFFB     745
 $$$@R4   00000000  FFFFFFFA     758
 $$$@R5   00000000  FFFFFFF9     771
 $$$@R6   00000000  FFFFFFF8     784
 $$$@R7   00000000  FFFFFFF7     797
 $$$@R8   00000000  FFFFFFF6     810
 $$$@R9   00000000  FFFFFFF5     823
 $$$RCP   00001000  FFFFFFEC    2501
 $$$RCV   00000FB0  FFFFFFEE    1226
 $$$RDEV  0000000C  FFFFFFEB    4715
 $$$RJCB  000000D0  FFFFFFE4   10320
 $$$RNSCNCB
          000000B0  FFFFFFED    2422
 $$$RPROTWA
          00000056  FFFFFFDD   12744
 $$$RTTYPE
          0000010C  FFFFFFEA    6246
 $$$RUSERCVT
          0000035F  FFFFFFE3   10600
 ACEE     000000A8  FFFFFFDE   12526
 ASCB     00000180  FFFFFFE0   11708
 ASXB     00000100  FFFFFFDF   12418
 CVT      00000500  FFFFFFE8    9181
 CVTVSTGX 00000050  FFFFFFE7   10201
 CVTXTNT1 0000000C  FFFFFFE6   10240
 CVTXTNT2 00000084  FFFFFFE5   10248
 HIBAL    00000000  FFFFFFFF     692
 IOWA     00008718  FFFFFFE9    6353
 TCBFIX   00000178  FFFFFFE2   10838
 TCBXTNT2 00000020  FFFFFFE1   11554

1PROT     (PROT2025) (12:52) (15MAR04) Using Map                                                                            Page   56
-                                                                                            HLASM R4.0  2004/03/15 12.52
   Stmt  -----Location----- Action ----------------Using----------------- Reg Max    Last  Label and Using Text
           Count      Id           Type          Value    Range     Id        Disp   Stmt
0   923  00000000  FFFFFFFF USING  ORDINARY    00000000 00001000 FFFFFFEF  15 000          @R15,15
    927  00000000  FFFFFFFF USING  ORDINARY    00000000 00001000 FFFFFFF0  14 002    2217  @R14,14
    931  00000000  FFFFFFFF USING  ORDINARY    00000000 00001000 FFFFFFF1  13 003   13446  @R13,13
    935  00000000  FFFFFFFF USING  ORDINARY    00000000 00001000 FFFFFFF2  12 000          @R12,12
    939  00000000  FFFFFFFF USING  ORDINARY    00000000 00001000 FFFFFFF3  11 000          @R11,11
    943  00000000  FFFFFFFF USING  ORDINARY    00000000 00001000 FFFFFFF4  10 000          @R10,10
    947  00000000  FFFFFFFF USING  ORDINARY    00000000 00001000 FFFFFFF5   9 000          @R9,9
    951  00000000  FFFFFFFF USING  ORDINARY    00000000 00001000 FFFFFFF6   8 000          @R8,8
    955  00000000  FFFFFFFF USING  ORDINARY    00000000 00001000 FFFFFFF7   7 000          @R7,7
    959  00000000  FFFFFFFF USING  ORDINARY    00000000 00001000 FFFFFFF8   6 000          @R6,6
    963  00000000  FFFFFFFF USING  ORDINARY    00000000 00001000 FFFFFFF9   5 000          @R5,5
    967  00000000  FFFFFFFF USING  ORDINARY    00000000 00001000 FFFFFFFA   4 007   16564  @R4,4
    971  00000000  FFFFFFFF USING  ORDINARY    00000000 00001000 FFFFFFFB   3 003   16329  @R3,3
    975  00000000  FFFFFFFF USING  ORDINARY    00000000 00001000 FFFFFFFC   2 000          @R2,2
    979  00000000  FFFFFFFF USING  ORDINARY    00000000 00001000 FFFFFFFD   1 001   16578  @R1,1
    983  00000000  FFFFFFFF USING  ORDINARY    00000000 00001000 FFFFFFFE   0 000          @R0,0
    984  00000000  FFFFFFFF DROP                                            0              0
   1210  00000017  00000001 USING  ORDINARY    00000000 00001000 FFFFFFEC  11 F39   16297  CP,CPR
   1219  00000017  00000001 USING  ORDINARY    00000000 00001000 FFFFFFEE  12 890   16843  CV,CVR
  13230  00000026  00000001 USING  ORDINARY    00000026 00001000 00000001   7 048   13254  $$$46B,R7
  13307  000000AE  00000001 USING  ORDINARY    00000000 00001000 FFFFFFF7   7 000          @R7,7
  13310  000000AE  00000001 USING  ORDINARY    000000AE 00001000 00000001   7 C44   13896  $$$47B,BR
  13319  000000AE  00000001 USING  ORDINARY    00000000 00001000 FFFFFFE9   6 D48   13903  IOWA,R6
  13916  000002D8  00000001 USING  ORDINARY    00000000 00001000 FFFFFFF7   7 000          @R7,7
  13923  000002D8  00000001 USING  ORDINARY    00000000 00001000 FFFFFFF8   6 000          @R6,6
  13962  000002F2  00000001 USING  ORDINARY    000002F2 00001000 00000001   7 9C2   14187  $$$80B,7
  13978  000002F2  00000001 USING  ORDINARY    00000000 00001000 FFFFFFE9   6 DE8   14284  IOWA,IOWAR
  14152  00000398  00000001 USING  ORDINARY    00000000 00001000 FFFFFFDE   2 026   14184  ACEE,R2
  14199  000003B0  00000001 USING  ORDINARY    00000000 00001000 FFFFFFFC   2 000          @R2,2
  14211  000003B0  00000001 USING  ORDINARY    00000000 00001000 FFFFFFF7   7 000          @R7,7
  14260  000003D8  00000001 USING  ORDINARY    000003D8 00001000 00000001   7 8E4   14326  $$$94B,7
  14337  00000444  00000001 USING  ORDINARY    00000000 00001000 FFFFFFF7   7 000          @R7,7
  14357  00000452  00000001 USING  ORDINARY    00000000 00001000 FFFFFFF8   6 000          @R6,6
  14402  0000046C  00000001 USING  ORDINARY    0000046C 00001000 00000001   7 858   14598  $$$98B,7
  14418  0000046C  00000001 USING  ORDINARY    00000000 00001000 FFFFFFE9   6 E24   14994  IOWA,IOWAR
  14616  00000538  00000001 USING  ORDINARY    00000000 00001000 FFFFFFF7   7 000          @R7,7
  14669  00000560  00000001 USING  ORDINARY    00000560 00001000 00000001   7 75C   14769  $$$107B,7
  14777  000005F2  00000001 USING  ORDINARY    00000000 00001000 FFFFFFF7   7 000          @R7,7
  14830  0000061A  00000001 USING  ORDINARY    0000061A 00001000 00000001   7 6DE   15014  $$$110B,7
  15030  000006A8  00000001 USING  ORDINARY    00000000 00001000 FFFFFFF8   6 000          @R6,6
  15038  000006A8  00000001 USING  ORDINARY    00000000 00001000 FFFFFFF7   7 000          @R7,7
  15089  000006D0  00000001 USING  ORDINARY    000006D0 00001000 00000001   7 604   15177  $$$123B,7
  15142  000006EC  00000001 USING  ORDINARY    00000000 00001000 FFFFFFE9   6 DE8   15154  IOWA,IOWAR
  15184  0000073C  00000001 USING  ORDINARY    00000000 00001000 FFFFFFF8   6 000          @R6,6
  15220  00000748  00000001 USING  ORDINARY    00000000 00001000 FFFFFFF7   7 000          @R7,7
  15274  00000770  00000001 USING  ORDINARY    00000770 00001000 00000001   7 564   15410  $$$128B,7
  15313  00000786  00000001 USING  ORDINARY    00000000 00001000 FFFFFFE9   6 270   15354  IOWA,IOWAR
  15417  000007C6  00000001 USING  ORDINARY    00000000 00001000 FFFFFFF8   6 000          @R6,6
  15430  000007C8  00000001 USING  ORDINARY    00000000 00001000 FFFFFFF7   7 000          @R7,7
  15482  000007F0  00000001 USING  ORDINARY    000007F0 00001000 00000001   7 38C   15551  $$$136B,7
  15517  00000802  00000001 USING  ORDINARY    00000000 00001000 FFFFFFDE   2 026   15548  ACEE,R2
  15563  0000081A  00000001 USING  ORDINARY    00000000 00001000 FFFFFFFC   2 000          @R2,2
  15575  0000081A  00000001 USING  ORDINARY    00000000 00001000 FFFFFFF7   7 000          @R7,7
1PROT     (PROT2025) (12:52) (15MAR04) Using Map                                                                            Page   57
  15628  00000842  00000001 USING  ORDINARY    00000842 00001000 00000001   7 33A   15696  $$$143B,7
  15661  0000084C  00000001 USING  ORDINARY    00000000 00001000 FFFFFFDE   2 026   15693  ACEE,R2
  15708  00000864  00000001 USING  ORDINARY    00000000 00001000 FFFFFFFC   2 000          @R2,2
  15720  00000864  00000001 USING  ORDINARY    00000000 00001000 FFFFFFF7   7 000          @R7,7
  15778  0000088C  00000001 USING  ORDINARY    0000088C 00001000 00000001   7 420   15862  $$$150B,7
  15794  0000088C  00000001 USING  ORDINARY    00000000 00001000 FFFFFFE9   6 024   15949  IOWA,IOWAR
  15827  0000089C  00000001 USING  ORDINARY    00000020 00001000 FFFFFFE2   2 154   15859  TCB,R2
  15874  000008B8  00000001 USING  ORDINARY    00000000 00001000 FFFFFFFC   2 000          @R2,2
  15882  000008B8  00000001 USING  ORDINARY    00000000 00001000 FFFFFFF7   7 000          @R7,7
  15940  000008E0  00000001 USING  ORDINARY    000008E0 00001000 00000001   7 3CC   16023  $$$155B,7
  15980  000008F0  00000001 USING  ORDINARY    00000020 00001000 FFFFFFE2   2 154   16020  TCB,R2
  16035  00000914  00000001 USING  ORDINARY    00000000 00001000 FFFFFFFC   2 000   16331  @R2,2
  16043  00000914  00000001 USING  ORDINARY    00000000 00001000 FFFFFFF7   7 000          @R7,7
  16062  00000922  00000001 USING  ORDINARY    00000000 00001000 FFFFFFF8   6 000          @R6,6
  16105  0000093C  00000001 USING  ORDINARY    0000093C 00001000 00000001   7 3AE   16116  $$$161B,7
  16128  00000946  00000001 USING  ORDINARY    00000000 00001000 FFFFFFF7   7 000          @R7,7
  16183  0000096E  00000001 USING  ORDINARY    0000096E 00001000 00000001   7 37C   16194  $$$164B,7
  16206  00000978  00000001 USING  ORDINARY    00000000 00001000 FFFFFFF7   7 000          @R7,7
  16265  000009A0  00000001 USING  ORDINARY    000009A0 00001000 00000001   7 33C   16375  $$$167B,7
  16306  000009B6  00000001 USING  ORDINARY    00000000 00001000 FFFFFFE9   6 DB0   16331  IOWA,IOWAR
  16366  000009F0  00000001 USING  ORDINARY    00000000 00001000 FFFFFFF8   6 000          @R6,6
  16393  000009F8  00000001 USING  ORDINARY    00000000 00001000 FFFFFFF7   7 000          @R7,7
  16452  00000A20  00000001 USING  ORDINARY    00000A20 00001000 00000001   7 2DE   16582  $$$174B,7
  16595  00000A68  00000001 USING  ORDINARY    00000000 00001000 FFFFFFF7   7 000          @R7,7

1         (PROT2025) (12:52) (15MAR04) General Purpose Register Cross Reference                                             Page   58
- Register  References (M=modified, B=branch, U=USING, D=DROP, N=index)                      HLASM R4.0  2004/03/15 12.52
0    0(0)      983U   984D  2146   2214M  2214   2215M 13237M 13255M 13388M 13389M 13389  13465M 13517M 13518M 13518
             13884M 13885  13902M 13902  13903  13945  13998M 14219M 14243  14282M 14283  14284M 14285  14286M 14287
             14345M 14385  14420  14463M 14464  14466M 14467  14496M 14497  14499M 14500  14509  14624M 14652  14785M
             14813  15046M 15072  15157M 15158  15228M 15257  15355M 15356M 15356  15438M 15465  15583M 15611  15728M
             15761  15890M 15923  16051M 16117M 16195M 16248  16401M 16435  16603M 16842
     1(1)      979U  2146   2209M  2210M  2216M 13236M 13254M 13623M 13624  13625M 13626  13628M 13629M 13630  13730M
             13730  13731  13737M 13738  13945  13997M 14047M 14175M 14187M 14219M 14243  14278M 14279  14280  14281
             14283N 14285N 14287N 14345M 14385  14457M 14458  14459  14460  14461  14462  14464  14465N 14467  14468N
             14490M 14491  14492  14493  14494  14495  14497  14498N 14500  14501N 14624M 14652  14682M 14685  14690M
             14694  14699N 14704N 14706M 14710  14715N 14720N 14727M 14730  14733  14736  14741N 14749N 14751N 14754
             14759N 14764N 14785M 14813  14994M 14997  15000  15003N 15046M 15072  15150M 15154M 15155  15156  15158N
             15228M 15257  15438M 15465  15540M 15551M 15583M 15611  15684M 15696M 15728M 15761  15851M 15862M 15890M
             15923  16018M 16023M 16051M 16116M 16194M 16248  16274  16310M 16401M 16435  16461  16462M 16490M 16564M
             16603M 16842
     2(2)      975U  2146  13294  13908M 13945  14130M 14131M 14131  14152U 14199U 14219M 14243  14345M 14385  14420M
             14448M 14448  14465  14486M 14486  14498  14508M 14531  14551  14572  14624M 14652  14785M 14813  14934M
             14954M 14965  14968M 14970  14992M 15003  15046M 15072  15100M 15101M 15101  15228M 15257  15283M 15382M
             15382  15399M 15423  15438M 15465  15491M 15492M 15492  15493M 15493  15502M 15502  15517U 15563U 15583M
             15611  15639M 15640M 15640  15661U 15708U 15728M 15761  15796M 15813M 15827U 15874U 15890M 15923  15949M
             15966M 15980U 16035U 16051M 16088  16136M 16166  16214M 16248  16274M 16310  16401M 16435  16564M 16578
             16603M 16842
     3(3)      971U  2146  13294  13908M 13945  14219M 14243  14345M 14385  14421M 14468  14501  14509M 14624M 14652
             14785M 14813  14935M 14955M 15046M 15072  15228M 15257  15438M 15465  15583M 15611  15728M 15761  15890M
             15923  16051M 16088  16136M 16166  16214M 16248  16275M 16401M 16435  16463M 16491M 16520  16542M 16557
             16603M 16842
     4(4)      967U  2146  13294  13908M 13945  14219M 14243  14345M 14385  14624M 14652  14785M 14813  15046M 15072
             15228M 15257  15438M 15465  15583M 15611  15728M 15761  15890M 15923  16051M 16088  16136M 16166  16214M
             16248  16401M 16435  16461M 16603M 16842
     5(5)      963U  2146  13294  13908M 13945  14219M 14243  14345M 14385  14624M 14652  14785M 14813  15046M 15072
             15228M 15257  15438M 15465  15583M 15611  15728M 15761  15890M 15923  16051M 16088  16136M 16166  16214M
             16248  16401M 16435  16603M 16842
     6(6)      959U  2146  13294  13319U 13908M 13923U 13945  13978U 14219M 14243  14345M 14357U 14385  14418U 14624M
             14652  14785M 14813  15030U 15046M 15072  15134M 15142U 15184U 15228M 15257  15305M 15313U 15417U 15438M
             15465  15583M 15611  15728M 15761  15794U 15890M 15923  16051M 16062U 16088  16136M 16166  16214M 16248
             16297M 16306U 16366U 16401M 16435  16603M 16842
     7(7)      955U  2139M  2139   2140B  2146   2152B 13220M 13230U 13294  13297M 13307U 13310U 13908M 13916U 13945
             13950M 13962U 14211U 14219M 14243  14248M 14260U 14337U 14345M 14385  14390M 14402U 14616U 14624M 14652
             14657M 14669U 14777U 14785M 14813  14818M 14830U 15038U 15046M 15072  15077M 15089U 15220U 15228M 15257
             15262M 15274U 15430U 15438M 15465  15470M 15482U 15575U 15583M 15611  15616M 15628U 15720U 15728M 15761
             15766M 15778U 15882U 15890M 15923  15928M 15940U 16043U 16051M 16088  16093M 16105U 16128U 16136M 16166
             16171M 16183U 16206U 16214M 16248  16253M 16265U 16393U 16401M 16435  16440M 16452U 16595U 16603M 16842
     8(8)      951U  2146  13219M 13294  13295M 13906  13908M 13945  13946M 14215  14219M 14243  14244M 14341  14345M
             14385  14386M 14620  14624M 14652  14653M 14781  14785M 14813  14814M 15042  15046M 15072  15073M 15224
             15228M 15257  15258M 15434  15438M 15465  15466M 15579  15583M 15611  15612M 15724  15728M 15761  15762M
             15886  15890M 15923  15924M 16047  16051M 16088  16089M 16132  16136M 16166  16167M 16210  16214M 16248
             16249M 16397  16401M 16435  16436M 16599  16603M 16842
     9(9)      947U  2146  16842
    10(A)      943U  2146  16842
    11(B)      939U  1210U  2146   9596B  9597B 16842
    12(C)      935U  1219U  2146  16842
    13(D)      931U  2146  13219  13294  13295  13296M 13296  13906M 13907  13908  13942  13945  13946  13947M 13947
             14215M 14219  14221  14240  14243  14244  14245M 14245  14341M 14345  14347  14382  14385  14386  14387M
             14387  14620M 14624  14626  14649  14652  14653  14654M 14654  14781M 14785  14787  14810  14813  14814
             14815M 14815  15042M 15046  15048  15069  15072  15073  15074M 15074  15224M 15228  15230  15254  15257
             15258  15259M 15259  15434M 15438  15440  15462  15465  15466  15467M 15467  15579M 15583  15585  15608
1         (PROT2025) (12:52) (15MAR04) General Purpose Register Cross Reference                                             Page   59
             15611  15612  15613M 15613  15724M 15728  15730  15758  15761  15762  15763M 15763  15886M 15890  15892
             15920  15923  15924  15925M 15925  16047M 16051  16053  16085  16088  16089  16090M 16090  16132M 16136
             16138  16163  16166  16167  16168M 16168  16210M 16214  16216  16245  16248  16249  16250M 16250  16397M
             16401  16403  16432  16435  16436  16437M 16437  16599M 16603  16605  16842
    14(E)      927U  2146   2147M  2161   2162M  2163B  2165M  2166B  2186M  2187B  2191M  2192B  2194M  2195B  2197M
              2198B  2200M  2201B  2203M  2204M  2204B  2210  13248M 13249M 13249B 13292  13363M 13364M 13364B 13392M
             13393M 13393B 13454M 13455M 13455B 13468M 13469M 13469B 13521M 13522M 13522B 13545M 13546M 13546B 13907M
             13910B 13942  14001M 14002M 14002B 14049M 14052M 14085M 14117M 14119M 14221M 14224B 14240  14273M 14274M
             14274B 14301M 14302M 14302B 14326M 14347M 14350B 14382  14430M 14431  14434M 14435M 14435B 14438M 14439M
             14439B 14512M 14513M 14513B 14517M 14518M 14518B 14626M 14629B 14649  14724M 14725M 14725B 14769M 14770M
             14770B 14787M 14790B 14810  14989M 14990M 14990B 15014M 15015M 15015B 15048M 15051B 15069  15121M 15122M
             15122B 15148M 15149M 15149B 15172M 15173M 15173B 15177M 15178M 15178B 15230M 15233B 15254  15292M 15293M
             15293B 15333M 15334M 15334B 15359M 15360M 15360B 15410M 15411M 15411B 15440M 15443B 15462  15585M 15588B
             15608  15730M 15733B 15758  15892M 15895B 15920  16053M 16056B 16085  16138M 16141B 16163  16216M 16219B
             16245  16284M 16285M 16285B 16313M 16314M 16314B 16334M 16335M 16335B 16403M 16406B 16432  16605M 16608B
             16842  16843M
    15(F)      923U  2146  10058M 10058  13245M 13405  13481  13534  13759M 13766M 13766  13790M 13796N 13883M 13892M
             13892  13895M 13898M 13909M 13909  14064  14076  14110  14223M 14223  14289M 14290M 14290  14291M 14291
             14293  14295M 14304  14313M 14313  14349M 14349  14508  14519M 14560M 14584M 14584  14597  14597  14603M
             14628M 14628  14697M 14699  14702M 14704  14713M 14715  14718M 14720  14739M 14741  14749M 14751  14757M
             14759  14762M 14764  14789M 14789  15024M 15024  15050M 15050  15160M 15161M 15161  15162M 15162  15164
             15166M 15213M 15213  15232M 15232  15372  15423M 15442M 15442  15587M 15587  15732M 15732  15894M 15894
             16055M 16055  16121M 16121  16140M 16140  16199M 16199  16218M 16218  16275  16339M 16339  16356M 16382M
             16405M 16405  16526M 16546M 16546  16577M 16607M 16607  16842

1PROT     (PROT2025) (12:52) (15MAR04) Diagnostic Cross Reference and Assembler Summary                                     Page   60
-                                                                                            HLASM R4.0  2004/03/15 12.52
0     No Statements Flagged in this Assembly
 HIGH LEVEL ASSEMBLER, 5696-234, RELEASE 4.0, PTF P72483
0SYSTEM: OS/390 02.10.00            JOBNAME: WYL#PROT    STEPNAME: ASM        PROCSTEP: (NOPROC)
0Datasets Allocated for this Assembly
  Con DDname   Dataset Name                                 Volume  Member
   P1 SYSIN    WYL.GS.WYL.WYLBUR.SOURCE                     SYSB05  PROT
   L1 SYSLIB   WYL.GS.WYL.WYLBUR.MACLIB                     SYSB05
   L2          WYL.GG.SYS.MACLIB                            SYSB05
   L3          SYS3.IS.MACLIB                               SYSB05
   L4          SYS3.MACLIB                                  SYSB02
   L5          SYS1.MACLIB                                  MVSBR9
   L6          SYS1.MODGEN                                  MVSBR9
      SYSPRINT SYS04075.T125218.RA000.WYL#PROT.PRINT.H01    SCR101
      SYSTERM  GG$SLP.WYL#PROT.JOB03556.D0000101.?

    3668K allocated to Buffer Pool,         4089K would be required for this to be an In-Storage Assembly
     958 Primary Input Records Read        24023 Library Records Read                 85 Work File Reads
       0 ASMAOPT Records Read               3852 Primary Print Records Written       109 Work File Writes
       0 Punch Records Written                 0 ADATA Records Written
0Assembly Start Time: 12.52.20 Stop Time: 12.52.28 Processor Time: 00.00.02.7601
 Return Code 000
