1                        J E S 2  J O B  L O G  --  S Y S T E M  S Y S B  --  N O D E  R L G
0
 12.45.44 JOB03528 ---- MONDAY,    15 MAR 2004 ----
 12.45.44 JOB03528  ICH70001I GG$SLP   LAST ACCESS AT 12:45:24 ON MONDAY, MARCH 15, 2004
 12.45.44 JOB03528  $HASP373 WYL#FUNC STARTED - INIT 9    - CLASS B - SYS SYSB
 12.45.44 JOB03528  ***  HCMD      STEP $$QUIET
 12.45.44 JOB03528  PUR * Q OUT MUL
 12.45.44 JOB03528  JOB 5392 WYL#FUNC WILL BE PURGED
 12.45.45 JOB03528  WYL#FUNC.$$QUIET .         RC=Zero TapeIO=0000 DiskIO=0000 CPU=  .01s Elapsed=44.87s
 12.46.15 JOB03528  WYL#FUNC.ASM     .         RC=Zero TapeIO=0000 DiskIO=1161 CPU=12.97s Elapsed=45.91s
 12.46.22 JOB03528  WYL#FUNC.EDIT    .         RC=Zero TapeIO=0000 DiskIO=0684 CPU= 2.03s Elapsed=75.50s
 12.46.22 JOB03528  WYL#FUNC Ended.  Name=Assemble FUNC                  Total CPU=15.01s Elapsed=44.87s
 12.46.22 JOB03528
 12.46.22 JOB03528  Execution charges   Priority=Standard   Block=Day
 12.46.22 JOB03528
 12.46.22 JOB03528  CPU Usage         279.18         $173.09   Standard Processing Unit Equivalent
 12.46.22 JOB03528                                   =======
 12.46.22 JOB03528                                   $173.09   Total Job execution charge
 12.46.22 JOB03528
 12.46.22 JOB03528  See back separator page for print charges
 12.46.22 JOB03528
 12.46.22 JOB03528  $HASP395 WYL#FUNC ENDED  ASM=0, EDIT=0
1        1 //WYL#FUNC JOB SLP$GG,'Assemble FUNC',TIME=4,REGION=4M                  JOB03528
           //*
           /*JOBPARM LINES=99,COPIES=1
           /*JOBPARM FORMS=3HOL,PFORMAT=LAND,CHARS=BD13,DUPLEX=YES,FLASH=BAR4
           //*
           /*JOBPARM NOTIFY=GG.SLP,HOLD=OUTPUT                                     WYLGEN
         2 //$$QUIET EXEC PGM=HCMDX,PARM='PUR * Q OUT MUL'
           //*
         3 //ASM    EXEC PGM=ASMA90,REGION=8M,
           //            PARM=('NORENT,TERM,FLAG(NOCONT),US(MAP,WARN(10)),NODECK',
           //            'LC(32767),XREF(SHORT),ESD,DXREF,NOOBJECT')
         4 //STEPLIB DD DSN=SYS3.IS.TESTASM,DISP=SHR
         5 //SYSLIB   DD  DSN=WYL.GS.WYL.WYLBUR.MACLIB,DISP=SHR
         6 //         DD  DSN=WYL.GG.SYS.MACLIB,DISP=SHR
         7 //         DD  DSN=SYS3.IS.MACLIB,DISP=SHR
         8 //         DD  DSN=SYS3.MACLIB,DISP=SHR
         9 //         DD  DSN=SYS1.MACLIB,DISP=SHR
        10 //         DD  DSN=SYS1.MODGEN,DISP=SHR
        11 //SYSUT1   DD DSN=&&SYSUT1,UNIT=VIO,DISP=(,DELETE),
           //            SPACE=(4088,(500,250),,CONTIG,ROUND)
        12 //SYSTERM  DD SYSOUT=T
        13 //SYSPRINT DD DSN=&&PRINT,UNIT=SYSDA,DISP=(,PASS),
           //            SPACE=(6650,(250,250),RLSE),
           //            DCB=(BLKSIZE=6650,LRECL=133,RECFM=FB)
        14 //SYSUDUMP DD SYSOUT=A
        15 //SYSIN    DD  DSN=WYL.GS.WYL.WYLBUR.SOURCE(FUNC),DISP=SHR
           //*
        16 //EDIT    EXEC PGM=ASMEDIT,TIME=2,REGION=4000K,
           //             PARM='STMT'
        17 //STEPLIB  DD  DSN=WYL.GG.SYS.LINKLIB,DISP=SHR
        18 //ASMOUT   DD  DSN=&PRINT,DISP=(OLD,DELETE)
        19 //SYSPRINT DD  SYSOUT=A
1 STMT NO. MESSAGE
 -
        11 IGD01010I STORCLAS= TEMP STORGROUP =
        11 IGD01010I STORGRP=VIO ASSIGNED.
        13 IGD01010I STORCLAS= TEMP STORGROUP =
        13 IGD01010I STORGRP=VIO ASSIGNED.
 ICH70001I GG$SLP   LAST ACCESS AT 12:45:24 ON MONDAY, MARCH 15, 2004
 IEF142I WYL#FUNC $$QUIET - STEP WAS EXECUTED - COND CODE 0000
 *********************************************************************************
 *   WYL#FUNC/$$QUIET /                    Return Code      Zero                 *
 *   Region used      260K (16K user + 244K system)                              *
 *   Extended region  9464K (4K user + 9460K system)                             *
 *                                                                               *
 *   Paging              In      Out                                             *
 *   Private <-> Aux      0        0       CPU time (TCB)   00:00:00.01          *
 *   Private <-> Exp      0        0       CPU time (SRB)   00:00:00.00          *
 *   VIO                  0        0       Elapsed time    917:42:08.09          *
 *   Common               0      ---                                             *
 *                                                                               *
 *                                                                               *
 *   CPU Usage          0.18         $0.11  Standard Processing Unit Equivalent  *
 *                                   $0.11  Total Step execution charge          *
 *                                                                               *
 *    I/O count  DDname   Type Addr           I/O count  DDname   Type Addr      *
 *                         *** No I/O for this step ***                          *
 *********************************************************************************
 IEF373I STEP/$$QUIET /START 2004075.1245
 IEF374I STEP/$$QUIET /STOP  2004075.1245 CPU    0MIN 00.01SEC SRB    0MIN 00.00SEC VIRT    16K SYS   244K EXT       4K SYS    9460K
 IEF236I ALLOC. FOR WYL#FUNC ASM
 IEF237I 04DC ALLOCATED TO STEPLIB
 IEF237I 04DC ALLOCATED TO SYSLIB
 IEF237I 04DC ALLOCATED TO
 IEF237I 04DC ALLOCATED TO
 IEF237I 0402 ALLOCATED TO
 IEF237I 04A0 ALLOCATED TO
 IEF237I 04A0 ALLOCATED TO
 IGD101I SMS ALLOCATED TO DDNAME (SYSUT1  )
         DSN (SYS04075.T124544.RA000.WYL#FUNC.SYSUT1.H01  )
         STORCLAS (TEMP) MGMTCLAS (        ) DATACLAS (        )
         VOL SER NOS= VIO
 IEF237I JES2 ALLOCATED TO SYSTERM
 IGD101I SMS ALLOCATED TO DDNAME (SYSPRINT)
         DSN (SYS04075.T124544.RA000.WYL#FUNC.PRINT.H01   )
         STORCLAS (TEMP) MGMTCLAS (        ) DATACLAS (        )
         VOL SER NOS= SCR100
 IEF237I JES2 ALLOCATED TO SYSUDUMP
 IEF237I 04DC ALLOCATED TO SYSIN
 IEF142I WYL#FUNC ASM - STEP WAS EXECUTED - COND CODE 0000
 IEF285I   SYS3.IS.TESTASM                              KEPT
 IEF285I   VOL SER NOS= SYSB05.
 IEF285I   WYL.GS.WYL.WYLBUR.MACLIB                     KEPT
 IEF285I   VOL SER NOS= SYSB05.
 IEF285I   WYL.GG.SYS.MACLIB                            KEPT
 IEF285I   VOL SER NOS= SYSB05.
 IEF285I   SYS3.IS.MACLIB                               KEPT
 IEF285I   VOL SER NOS= SYSB05.
 IEF285I   SYS3.MACLIB                                  KEPT
 IEF285I   VOL SER NOS= SYSB02.
 IEF285I   SYS1.MACLIB                                  KEPT
 IEF285I   VOL SER NOS= MVSBR9.
 IEF285I   SYS1.MODGEN                                  KEPT
 IEF285I   VOL SER NOS= MVSBR9.
 IGD105I SYS04075.T124544.RA000.WYL#FUNC.SYSUT1.H01   DELETED,   DDNAME=SYSUT1
 IEF285I   GG$SLP.WYL#FUNC.JOB03528.D0000101.?          SYSOUT
 IGD106I SYS04075.T124544.RA000.WYL#FUNC.PRINT.H01    PASSED,    DDNAME=SYSPRINT
 IEF285I   GG$SLP.WYL#FUNC.JOB03528.D0000102.?          SYSOUT
 IEF285I   WYL.GS.WYL.WYLBUR.SOURCE                     KEPT
 IEF285I   VOL SER NOS= SYSB05.
 *********************************************************************************
 *   WYL#FUNC/ASM     /                    Return Code      Zero                 *
 *   Region used      4376K (4096K user + 280K system)                           *
 *   Extended region  10088K (412K user + 9676K system)                          *
 *                                                                               *
 *   Paging              In      Out                                             *
 *   Private <-> Aux      0        0       CPU time (TCB)   00:00:12.90          *
 *   Private <-> Exp      0        0       CPU time (SRB)   00:00:00.07          *
 *   VIO                  0        0       Elapsed time    917:42:07.05          *
 *   Common               0      ---                                             *
 *                                                                               *
 *                                                                               *
 *   CPU Usage        241.87       $149.95  Standard Processing Unit Equivalent  *
 *                                 $149.95  Total Step execution charge          *
 *                                                                               *
 *    I/O count  DDname   Type Addr           I/O count  DDname   Type Addr      *
 *           86  STEPLIB  Disk 04DC                 364  SYSLIB   Disk 04DC      *
 *            0  SYSLIB   Disk 04DC                   0  SYSLIB   Disk 04DC      *
 *            0  SYSLIB   Disk 0402                   8  SYSLIB   Disk 04A0      *
 *            0  SYSLIB   Disk 04A0               1,655  SYSUT1   VIO  ----      *
 *            0  SYSTERM       ----                 681  SYSPRINT Disk 038B      *
 *            0  SYSUDUMP      ----                  22  SYSIN    Disk 04DC      *
 *********************************************************************************
 IEF373I STEP/ASM     /START 2004075.1245
 IEF374I STEP/ASM     /STOP  2004075.1246 CPU    0MIN 12.90SEC SRB    0MIN 00.07SEC VIRT  4096K SYS   280K EXT     412K SYS    9676K
 IEF236I ALLOC. FOR WYL#FUNC EDIT
 IEF237I 0402 ALLOCATED TO STEPLIB
 IGD103I SMS ALLOCATED TO DDNAME ASMOUT
 IEF237I JES2 ALLOCATED TO SYSPRINT
 IEF142I WYL#FUNC EDIT - STEP WAS EXECUTED - COND CODE 0000
 IEF285I   WYL.GG.SYS.LINKLIB                           KEPT
 IEF285I   VOL SER NOS= SYSB02.
 IGD105I SYS04075.T124544.RA000.WYL#FUNC.PRINT.H01    DELETED,   DDNAME=ASMOUT
 IEF285I   GG$SLP.WYL#FUNC.JOB03528.D0000103.?          SYSOUT
 *********************************************************************************
 *   WYL#FUNC/EDIT    /                    Return Code      Zero                 *
 *   Region used      380K (116K user + 264K system)                             *
 *   Extended region  9588K (4K user + 9584K system)                             *
 *                                                                               *
 *   Paging              In      Out                                             *
 *   Private <-> Aux      0        0       CPU time (TCB)   00:00:01.98          *
 *   Private <-> Exp      0        0       CPU time (SRB)   00:00:00.05          *
 *   VIO                  0        0       Elapsed time    917:41:37.46          *
 *   Common               0      ---                                             *
 *                                                                               *
 *                                                                               *
 *   CPU Usage         37.12        $23.01  Standard Processing Unit Equivalent  *
 *                                  $23.01  Total Step execution charge          *
 *                                                                               *
 *    I/O count  DDname   Type Addr           I/O count  DDname   Type Addr      *
 *            2  STEPLIB  Disk 0402                 682  ASMOUT   Disk 038B      *
 *            0  SYSPRINT      ----                                              *
 *********************************************************************************
 IEF373I STEP/EDIT    /START 2004075.1246
 IEF374I STEP/EDIT    /STOP  2004075.1246 CPU    0MIN 01.98SEC SRB    0MIN 00.05SEC VIRT   116K SYS   264K EXT       4K SYS    9584K
 *********************************************************************************
 *                                                                               *
 *                      S t a n f o r d   U n i v e r s i t y                    *
 *                                                                               *
 *                              *** Job Summary ***                              *
 *                                                                               *
 *   System Id      SYSB                   Input time     12:39:19  Mar 15, 2004 *
 *                                                                               *
 *   System Release SP6.1.0                Start time     12:45:44  Mar 15, 2004 *
 *                                                                               *
 *   Job name       WYL#FUNC               Stop  time     00:00:00  Mar 15, 2004 *
 *                                                                               *
 *   Account        SLP$GG                 Elapsed time  917:42:08.09            *
 *                                                                               *
 *   User Name      Assemble FUNC          CPU time       00:00:14.89            *
 *                                                                               *
 *   Job class      B                      SRB Time       00:00:00.12            *
 *                                                                               *
 *********************************************************************************
 IEF375I  JOB/WYL#FUNC/START 2004075.1245
 IEF376I  JOB/WYL#FUNC/STOP  2004075.1246 CPU    0MIN 14.89SEC SRB    0MIN 00.12SEC
1Assembler Done FUNC No Statements Flagged
1         High Level Assembler Option Summary                   (PTF P72483 )                                               Page    1
-                                                                                            HLASM R4.0  2004/03/15 12.45
0  No Overriding ASMAOPT Parameters
   Overriding Parameters-  NORENT,TERM,FLAG(NOCONT),US(MAP,WARN(10)),NODECK,LC(32767),XREF(SHORT),ESD,DXREF,NOOBJECT
   No Process Statements


   Options for this Assembly
0  NOADATA
     ALIGN
   NOASA
     BATCH
     CODEPAGE(047C)
   NOCOMPAT
   NODBCS
 3 NODECK
 3   DXREF
 3   ESD
   NOEXIT
 3   FLAG(0,ALIGN,NOCONT,NOIMPLEN,NOPAGE0,PUSH,RECORD,NOSUBSTR,USING0)
   NOFOLD
   NOGOFF
   NOINFO
     LANGUAGE(EN)
   NOLIBMAC
 3   LINECOUNT(32767)
     LIST(121)
     MXREF(SOURCE)
 3 NOOBJECT
     OPTABLE(UNI,NOLIST)
   NOPCONTROL
   NOPESTOP
   NOPROFILE
   NORA2
 3 NORENT
     RLD
     RXREF
     SIZE(MAX)
     SYSPARM()
 3   TERM(WIDE)
   NOTEST
     THREAD
   NOTRANSLATE
 3   USING(NOLIMIT,MAP,WARN(10))
 3   XREF(SHORT)

   No Overriding DD Names

1FUNC     External Symbol Dictionary                                                                                        Page    2
-Symbol   Type   Id     Address  Length     LD ID  Flags Alias-of                            HLASM R4.0  2004/03/15 12.45
0WYLFUNC   SD 00000001 00000000 00009F78             00
 FUNC2193  LD          00000000           00000001
 INITFUNC  LD          00000018           00000001
 GTFNRTN   LD          0000006C           00000001
 SETARGS   LD          000000D0           00000001
 VTRIM     LD          0000025E           00000001
 GETCORE   ER 00000002
 BSINIT    ER 00000003
 ABSEARCH  ER 00000004
 SEG       ER 00000005
 SEGT      ER 00000006
 MAKESTR   ER 00000007
 MAKEINT   ER 00000008
 MAKELNO   ER 00000009
 MAKENUMB  ER 0000000A
 MAKEBOOL  ER 0000000B
 BADARG    LD          0000039A           00000001
 SEGCR     ER 0000000C
 SEGDC     ER 0000000D
 KWIO      ER 0000000E
 MAKEITOD  ER 0000000F
 LRTRIM    ER 00000010
 CHKACCT   ER 00000011
 DECRYPT   ER 00000012
 DESTCHK   ER 00000013
 WATCHKW   ER 00000014
 GETKWR    ER 00000015
 MAKECHAR  ER 00000016
 DSNPSH    ER 00000017
 MALL      ER 00000018
 DODSNM    ER 00000019
 NSCAN     ER 0000001A
 DSNFIN    ER 0000001B
 DDEQ      ER 0000001C
 DENQ      ER 0000001D
 FNAMPSH   ER 0000001E
 FNAMESCN  ER 0000001F
 FNAMEFIN  ER 00000020
 NRESOLVE  ER 00000021
 SEGCLR    ER 00000022
 SECSYS    ER 00000023
 GETTPAG   LD          00002CC6           00000001
 RETFNAME  ER 00000024
 WGSHODSN  ER 00000025
 PNUMA     ER 00000026
 PGETA     ER 00000027
 DSPDSNIN  ER 00000028
 PJUNKA    ER 00000029
 PGETNEW   ER 0000002A
 MTOKEN    ER 0000002B
 WGSACCES  ER 0000002C
 ENCRYPT   ER 0000002D
 GETACCT   ER 0000002E
 GETUID    ER 0000002F
 GETUIDL   ER 00000030
1FUNC     External Symbol Dictionary                                                                                        Page    3
 FMTXDATE  ER 00000031
 MPINT     ER 00000032
 XSETSET   ER 00000033
 XGET      ER 00000034
 TOASCII   ER 00000035
 SEGINIT   ER 00000036
 TREAD     ER 00000037
 SAVEDATA  ER 00000038
 ZAPINTR6  ER 00000039
 GETLINEX  ER 0000003A
 PTAPPEND  ER 0000003B
 ACTPICK   ER 0000003C
 DELRANGE  ER 0000003D
 PTLINE    ER 0000003E
 MAKELTOD  ER 0000003F
 CHECKLN   ER 00000040
 GTENDLN   ER 00000041
 CVEXNO    ER 00000042
 GTFRSTLN  ER 00000043
 GTLASTLN  ER 00000044
 GTNEXTLN  ER 00000045
 GTPREVLN  ER 00000046
 CHKRADDR  ER 00000047
 MAKEHEX   ER 00000048
 GETCVAR   ER 00000049
 GETQSTAT  ER 0000004A
 QUERYFC   ER 0000004B
 XDELSET   ER 0000004C
 XCNTRECS  ER 0000004D
 XDELETE   ER 0000004E
 XLOCFRST  ER 0000004F
 XLOCLAST  ER 00000050
 XLOCNEXT  ER 00000051
 XLASTSET  ER 00000052
 XPUT      ER 00000053
 XLOCPREV  ER 00000054
 XLOCATE   ER 00000055
 SQSHRTN   ER 00000056
 SYSCHECK  ER 00000057
 SYSGTSSB  ER 00000058
 FMTCLCK   ER 00000059
 FMTTIME   ER 0000005A
 XTB       ER 0000005B
 SCNVDESC  ER 0000005C
 GETVAR    ER 0000005D
 GETARRAY  ER 0000005E
 FEALBLKD  ER 0000005F
 FEALBLKE  ER 00000060
 GETWCNT   ER 00000061
 YESRTNH   ER 00000062
 YESRTN    ER 00000063

1FUNC     WYLBUR Functions                                                                                                  Page    4
0Loc    Object Code    Addr1 Addr2  Stmt Lv Lineno    Source Statement                    (Asmedit 3.3)  HLASM R4.0  2004/03/15 12.45
+___    ______ ____    _____ _____  ____ __ ______    ______ _________
0                                      2              *******************************************************************
                                       3              *                                                                 *
                                       4              *     WYLBUR/370 - Release VI - Class I - Stanford Proprietary    *
                                       5              *                                                                 *
                                       6              *******************************************************************
                                       7                       HIBAL
                                     988              *
                                     989              * Modification history:
                                     990              *
                                     991              *   3-July-1997 - M. Durket
                                     992              *      Added SUBSYS_START function for Roberta.
                                     993              *
                                     994              *   7-July-1997 - M. Durket
                                     995              *      Removed all TOEVENP calls. Generating parity for terminal
                                     996              *      output is the responsibility of the front ends, not
                                     997              *      WYLBUR.
                                     998              *
-
-
-
0                                   1000              *******************************************************************
                                    1001              *                                                                 *
                                    1002              *                **** ATTENTION !!!! ****                         *
                                    1003              *                **** ATTENTION !!!! ****                         *
                                    1004              *                **** ATTENTION !!!! ****                         *
                                    1005              *                                                                 *
                                    1006              *       SEE COMMENTS ON NEXT PAGE BEFORE ADDING SYSTEM            *
                                    1007              *       VARIABLES OR FUNCTIONS !!!!                               *
                                    1008              *                                                                 *
                                    1009              *******************************************************************
                                    1010              *
                                    1011              *  NOTE: SYSTEM PROCEDURES ARE LOCATED IN PROC MODULE.
                                    1012              *  NOTE: SYSTEM VARIABLES ARE LOCATED IN SYSV MODULE.
1FUNC     WYLBUR Functions                                                                                                  Page    5
0D-Loc  Object Code    Addr1 Addr2  Stmt Lv Lineno    Source Statement           (Hibal 5, Asmedit 3.3)  HLASM R4.0  2004/03/15 12.45
+_____  ______ ____    _____ _____  ____ __ ______    ______ _________
0                                   1014              * LAST UPDATE 7/89
                                    1015              *******************************************************************
                                    1016              **                                                             ****
                                    1017              **                                                              ***
                                    1018              **      HOW TO ADD A SYSTEM VARIABLE OR FUNCTION !               **
                                    1019              ***     ------------------------------------------               **
                                    1020              *****                                                            **
                                    1021              *******************************************************************
                                    1022              *
                                    1023              *  PROCEDURE TO ADD VARIABLE OR FUNCTION:
                                    1024              *
                                    1025              *  1. ADD A ENTRY INTO THE SYSTEM VARIABLE/FUNCTION TABLE.
                                    1026              *
                                    1027              *       THIS TABLE (SYSFNS) IS SEARCHED TO FIND THE ADDRESS OF
                                    1028              *       THE ROUTINE FOR THE SPECIFIED FUNCTION, VARIABLE, OR
                                    1029              *       PROC.  THE ENTRIES MUST APPEAR IN ALPHABETICAL ORDER.
                                    1030              *       USE THE 'SYSFN'    AND  'SYSVAR'   MACRO TO CREATE A
                                    1031              *       PROPERLY FORMATTED ENTRY.
                                    1032              *
                                    1033              *  2. ADD A SYSTEM VARIABLE/FUNCTION ROUTINE.
                                    1034              *
                                    1035              *       SYSTEM VARIABLE/FUNCTION ROUTINES ARE FOUND AFTER THE
                                    1036              *       SYSTEM VARIABLE/FUNCTION TABLE. THE ROUTINES SHOULD BE
                                    1037              *       PLACED IN ALPHABETICAL ORDER BASED ON THE VAR/FUNC
                                    1038              *       KEYWORD.  WORK AND COMMON ROUTINES SHOULD BE PLACED
                                    1039              *       IN ALPHABETICAL ORDER IN THE COMMON/WORK ROUTINES AREA.
                                    1040              *       THE BASIC ENTRY AND EXIT CONVENTIONS ARE:
                                    1041              *
                                    1042              *       ON ENTRY:
                                    1043              *            R0 - VARIABLE COUNT
                                    1044              *            R1 - ARGUMENT LIST
                                    1045              *            R6 - FUNCTION/VARIABLE RETURN AREA
                                    1046              *                 (AREA WILL INITIALLY CONTAIN VAR/FUNC/PROC NAME)
                                    1047              *
                                    1048              *       ON EXIT:
                                    1049              *            R6 - RETURNED VALUE (SAME AS ON ENTRY)
                                    1050              *           R15 - CC=ZERO, ALL OK
                                    1051              *                 CC=NZ, IF ERROR,,, ERROR MSG TSEG 'D
                                    1052              *
                                    1053              *       THE FORMAT OF THE ARGUMENTS PASSED AND RETURNED IS
                                    1054              *       DESCRIBED BY THE VNENTRY DSECT.  EACH ARGUMENT OCCUPIES
                                    1055              *       A FIXED LENGTH (L'VPARM) ENTRY. THUS EACH INPUT
                                    1056              *       ARGUMENT (IF ANY) CAN BE EASILY FOUND AT A FIXED OFFSET
                                    1057              *       BASED OFF OF R1.
                                    1058              *
                                    1059              *       SEVERAL MACROS EXIST TO MAKE THE ADDITION OF ROUTINES
                                    1060              *       EASIER.  TO USE THESE MACROS CERTAIN ADDITIONAL
                                    1061              *       CONVENTIONS MUST BE ADHERED TO.  THESE CONVENTIONS AND
                                    1062              *       THE MACROS ARE DESCRIBED NOW:
                                    1063              *
                                    1064              *   *** AN 'PROC' AND A 'PEND' MUST
                                    1065              *       BE USED TO ENTER AND EXIT THE ROUTINE.
                                    1066              *
                                    1067              *   *** IF THE ROUTINE IS SUCCESSFUL R15 MUST BE RETURNED
                                    1068              *       EQUAL TO ZERO.  IF NOT R15 MUST BE RETURNED AS NON-ZERO
                                    1069              *       (4).  ALSO AN APPROPRIATE ERROR MESSAGE MUST BE TSEG'D.
1FUNC     WYLBUR Functions                                                                                                  Page    6
0D-Loc  Object Code    Addr1 Addr2  Stmt Lv Lineno    Source Statement           (Hibal 5, Asmedit 3.3)  HLASM R4.0  2004/03/15 12.45
+_____  ______ ____    _____ _____  ____ __ ______    ______ _________
0                                   1070              *       ** DO NOT EXIT A ROUTINE VIA CVNEXT OR CVERROR !! **
                                    1071              *
                                    1072              *   *** IF YOU INTEND TO USE THE "SCANNER", YOU MUST SAVE AND
                                    1073              *       RESTORE THE CURRENT SCANNER STATE.  FOR AN EXAMPLE SEE
                                    1074              *       'YESNO' ROUTINE.
                                    1075              *
                                    1076              *   *** THE 'SETARGS' MACRO.
                                    1077              *
                                    1078              *       TO CHECK ENTRY ARGUMENTS, THE 'SETARGS' MACRO IS
                                    1079              *       PROVIDED.  IT TAKES A SINGLE STRING AS A PARAMETER.
                                    1080              *       THE FIRST TWO CHARACTERS OF THIS STRING DEFINE THE
                                    1081              *       MAXIMUM AND MINIMUM NUMBER OF ARGUMENTS THAT THE
                                    1082              *       ROUTINE WILL TAKE.  THE REMAINING CHARACTERS DESCRIBE
                                    1083              *       THE FORMAT THAT THESE ARGUMENTS SHOULD BE CONVERTED TO:
                                    1084              *       S=STRING, I=INTEGER, W=LINE NUMBER, X=DON'T CARE.  FOR
                                    1085              *       AN EXAMPLE SEE THE 'FNSUBSTR' ROUTINE.  NOTE THAT THE
                                    1086              *       'SETARGS' MACRO CALLS A SETARGS ROUTINE.  THIS ROUTINE
                                    1087              *       ASSUMES THAT R0,R1 AND R6 ARE THE SAME AS WHEN THE
                                    1088              *       SYSTEM VAR/FUNC ROUTINE WAS CALLED.  'SETARGS' ALSO
                                    1089              *       WILL GIVE A NON-ZERO RETURN CODE AND TSEG A ERROR
                                    1090              *       MESSAGE IF THE ARGUMENTS CANNOT BE CONVERTED TO THE
                                    1091              *       REQUIRED FORMAT. THE 'SETARGS' MACRO DOES NOT HANDLE
                                    1092              *       'ARRAYS' OR 'PACKED' NUMBERS.
                                    1093              *
                                    1094              *   *** THE 'BADARG' MACRO
                                    1095              *
                                    1096              *       ERROR MESSAGES CAN BE GENERATED
                                    1097              *       WITH THE 'BADARG' MACRO.  THE MACRO TAKES A SINGLE
                                    1098              *       NUMBER AS A PARAMETER.  THIS NUMBER IS THE NUMBER OF
                                    1099              *       THE INVALID ARGUMENT.  THIS MACRO REQUIRES THAT R6 AND
                                    1100              *       THE AREA POINTED TO BY R6 BE THE SAME AS WHEN THE
                                    1101              *       SYSTEM VAR/FUNC ROUTINE WAS ENTERED.  FOR AN EXAMPLE
                                    1102              *       SEE THE 'FNSUBSTR' ROUTINE.
                                    1103              *
                                    1104              *   *** THE 'VRETURN' MACRO
                                    1105              *
                                    1106              *       THE 'VRETURN' MACRO IS USED TO RETURN A VARIABLE OR
                                    1107              *       FUNCTION VALUE.  IT TAKES 2-3 PARAMETERS. THE FIRST IS
                                    1108              *       THE TYPE OF VALUE TO RETURN.  THIS MAY BE STRING,
                                    1109              *       INTEGER, LINENO, OR BOOLEAN.  ARRAYS AND PACKED NUMBERS
                                    1110              *       MAY NOT BE RETURNED WITH THIS MACRO.  ARGUMENTS 2-3 ARE
                                    1111              *       THE VALUE OF THE VAR/FUNC.  IF THE TYPE IS A STRING:
                                    1112              *       ARGS 2-3 ARE THE STRING LOC, LENGTH; A QUOTED STRING
                                    1113              *       MAY BE RETURNED, THE CONVENTIONS FOR RETURNING A STRING
                                    1114              *       ARE THE SAME AS FOR THE 'MSG' MACRO.  IF THE TYPE IS
                                    1115              *       INTEGER OR LINENO: THE SECOND PARAMETER IS A FULLWORD
                                    1116              *       VALUE.  IF THE TYPE IS BOOLEAN: THE SECOND PARAMETER IS
                                    1117              *       THE WORD 'TRUE' OR THE WORD 'FALSE'.  THIS MACRO
                                    1118              *       REQUIRES THAT R6 BE THE SAME AS WHEN THE SYSTEM
                                    1119              *       VAR/FUNC. ROUTINE WAS ENTERED.  FOR EXAMPLES, SEE THE
                                    1120              *       'FNCASE' 'FNLENGTH' 'FNLILB' 'FNLAST' AND 'FNTRUE'.
                                    1121              *       SOME ISOLATED EXAMPLES ARE:
                                    1122              *             VRETURN STRING,' THIS IS IT '
                                    1123              *             VRETURN STRING,(R1),(R0)
                                    1124              *             VRETURN BOOLEAN,TRUE
                                    1125              *             VRETURN LINENO,L:XXLINENO
1FUNC     WYLBUR Functions                                                                                                  Page    7
0D-Loc  Object Code    Addr1 Addr2  Stmt Lv Lineno    Source Statement           (Hibal 5, Asmedit 3.3)  HLASM R4.0  2004/03/15 12.45
+_____  ______ ____    _____ _____  ____ __ ______    ______ _________
0                                   1126              *             VRETURN INTEGER,(R4)
                                    1127              *       HEY DUDE !! THE VRETURN MACRO CLOBBERS R15,R0,R1,R2 SO
                                    1128              *       BE CAREFUL.  R15 IS SET TO ZERO BY THE VRETURN MACRO.
                                    1129              *
                                    1130              *   *** THE 'VTRIM' MACRO
                                    1131              *
                                    1132              *       THE 'VTRIM' MACRO IS USED TO TRIM TRAILING BLANKS OFF
                                    1133              *       THE END OF RETURNED STINGS.  IT WILL ALSO SET BLANK OR
                                    1134              *       ZEROED STRINGS TO NULL STRINGS.  IT REQUIRES THAT R6 BE
                                    1135              *       THE SAVE AS WHEN THE SYSTEM FUNC/VAR ROUTINE WAS
                                    1136              *       ENTERED.  IT IS GENERALLY CODED DIRECTLY FOLLOWING THE
                                    1137              *       'VRETURN STRING,..' MACRO.  FOR AN EXAMPLE SEE 'FNLIB'
                                    1138              *       ROUTINE.
                                    1139              *
                                    1140              *   *** GENERAL ARGUMENT LOADING/CHECKING PROCEDURES
                                    1141              *
                                    1142              *       ARGUMENTS PASSED TO A ROUTINE ARE GENERALLY CHECKED FOR
                                    1143              *       VALIDITY AT THE VERY BEGINNING OF THE ROUTINE WITH THE
                                    1144              *       'SETARGS' MACRO.  THE ARGUMENTS ARE THEN LOADED AND
                                    1145              *       CHECKED (WHILE THE ENTRY REGS ARE STILL SET UP)
                                    1146              *       GENERALLY AS FOLLOWS:  (THIS IS AN EXAMPLE ONLY, OH
                                    1147              *       YEAH:)
                                    1148              *
                                    1149              *       FNX      PROC  ,
                                    1150              *                SETARGS '22SI'            2 ARGS: STRING, INTEGER
                                    1151              *                IF    Z,BEGIN             IF ARGS OK,...
                                    1152              *                USING VNENTRY,R5
                                    1153              *                LA    R5,ARG1(R1)         R5 - 1ST ARG POINTER
                                    1154              *                LA    R2,VNSTRLOC         R2 - LOC OF STRING
                                    1155              *                LH    R3,VNSTRLEN         R3 - LEN OF STRING
                                    1156              *                IF    (R3,GT,120),BEGIN
                                    1157              *                BADARG 1                  PRETEND CHECK FOR STR LEN
                                    1158              *                EXIT  FNX
                                    1159              *                END
                                    1160              *                LA    R5,ARG2(R1)         R5 - 2ND ARG POINTER
                                    1161              *                L     R4,VNVALUE          R4 - INTEGER VALUE
                                    1162              *                IF    ((R4,NEG),OR,(R4,GT,120)),BEGIN
                                    1163              *                BADARG 2                  PRETEND CHECK FOR ARG 2
                                    1164              *                EXIT  FNX
                                    1165              *                END
                                    1166              *                ..... AND SO ON
                                    1167              *
                                    1168              *
                                    1169              *                ... END OF ROUTINE, XEXIT ...
                                    1170              *
                                    1171              *
                                    1172              *   *** RETURNING VAR/FUNCTION VALUE,,,
                                    1173              *
                                    1174              *       THE EASY WAY IS WITH THE 'VRETURN MACRO', BUT THERE ARE
                                    1175              *       OTHER WAYS.  YOU MAY SET UP YOUR OWN RETURN VALUE @R6.
                                    1176              *       SEE VNENTRY DSECT. THE AREA MUST BE CLEARED.  FLAGS
                                    1177              *       MUST BE SET FOR THE VARIABLE TYPE:  STRING, BOOLEAN,
                                    1178              *       NUMBER.  THE VARIABLE VALUE MUST BE SET.  FOR EXAMPLES,
                                    1179              *       SEE 'FNASCII' 'FNPI' OR 'FNSUBSTR'.  IF YOU WANT TO
                                    1180              *       DEAL WITH ARRAYS (IF THEY EXIST),,, GOOD LUCK HASBRO !!
                                    1181              *
1FUNC     WYLBUR Functions                                                                                                  Page    8
0D-Loc  Object Code    Addr1 Addr2  Stmt Lv Lineno    Source Statement           (Hibal 5, Asmedit 3.3)  HLASM R4.0  2004/03/15 12.45
+_____  ______ ____    _____ _____  ____ __ ______    ______ _________
0                                   1182              *   *** FINAL ADVICE
                                    1183              *
                                    1184              *       THIS MODULE ADHERES TO SEVERAL CONVENTIONS.  IF YOU
                                    1185              *       ADHERE TO THESE CONVENTIONS, IT WILL MAKE IT EASIER FOR
                                    1186              *       YOU AND ALL THE PEOPLE WHO ALSO WANT TO ADD VARS/FUNCS
                                    1187              *       TO ADD THEM. IT IS WORTH IT TO TAKE A BIT OF TIME AND
                                    1188              *       LOOK AT HOW SEVERAL EXITING SYSTEM VARIABLE/FUNCTION
                                    1189              *       ROUTINES ARE CODED.
                                    1190              *
                                    1191              *   *** SOME DOCUMENTATION
                                    1192              *
                                    1193              *        ON ENTRY:
                                    1194              *             R0 - VARIABLE COUNT
                                    1195              *             R1 - ARGUMENT LIST
                                    1196              *             R6 - FUNCTION/VARIABLE RETURN AREA
                                    1197              *                  (AREA WILL INITIALLY CONTAIN VAR/FUNC/PROC NAME)
                                    1198              *
                                    1199              *
                                    1200              *        ON EXIT:
                                    1201              *             R6 - RETURNED VALUE (SAME AS ON ENTRY)
                                    1202              *            R15 - CC=ZERO, ALL OK
                                    1203              *                  CC=NZ, IF ERROR,,, ERROR MSG TSEG 'D
                                    1204              *
                                    1205              *        ARG1     EQU   0*L'VPARM           USUALLY @R1
                                    1206              *        ARG2     EQU   1*L'VPARM
                                    1207              *        ARG3     EQU   2*L'VPARM
                                    1208              *        ARG4     EQU   3*L'VPARM
                                    1209              *        ARG5     EQU   4*L'VPARM
                                    1210              *        ARG6     EQU   5*L'VPARM
                                    1211              *
                                    1212              *        FNRET    EQU   0*L'VPARM           USUALLY @R6
                                    1213              *
                                    1214              *
                                    1215              *        FNWA     RECORD BEGIN ,            GENERALIZED WORK AREA !
                                    1216              *        FNWORK   DS    XL(L'VPARM)         256+ BYTE WORK AREA
                                    1217              *                 END
                                    1218              *        ******************** OH YEAH !!
1FUNC     WYLBUR Functions                                                                                                  Page    9
0D-Loc  Object Code    Addr1 Addr2  Stmt Lv Lineno    Source Statement           (Hibal 5, Asmedit 3.3)  HLASM R4.0  2004/03/15 12.45
+_____  ______ ____    _____ _____  ____ __ ______    ______ _________
0000000                00000 09F78  1220              WYLFUNC  CSECT
                                    1224                       REGS  FSR,,,,,,,BR,(WAR,LSR),PAR,PBR,CPR,CVR,SPR,RAR
                                    1360
                                    1361              FUNC     IDENT 2193                15:11:44 07/12/02  (SLP)
                                    1364             +
                                    1365    01-IDENT +         ENTRY FUNC2193
                                    1366             +
 000000 16C6E4D5C3F2F1F9            1367    01-IDENT +FUNC2193 DC    AL1(22),C'FUNC2193,15MAR04,12:45'
                                    1368             +*
                                    1370              *
                                    1371                       SYSDEFN ,                 Define installation values
                                    1372
                                    1373                       PUSH  DSECTS
 USING  CP,R11                      1385             =         USING (CP),(CV)
 USING  CV,R12
 000017                00000 09F78  1404             =         POP   PRINT
 000017                00000 09F78  7157              WYLFUNC  CSECT
1FUNC     (FUNC2193) (12:45) (15MAR04) DSECTS                                                                               Page   10
0Current Usings:  (CP,R11) (CV,R12)
0Loc    Object Code    Addr1 Addr2  Stmt Lv Lineno    Source Statement           (Hibal 5, Asmedit 3.3)  HLASM R4.0  2004/03/15 12.45
+___    ______ ____    _____ _____  ____ __ ______    ______ _________
0                                   7160                       COPY  BSINFO
                                    7161=            =    ¿þþþþþþþþþþþþþþþþþþþþþþþþþþþþþþþþþþþÜ
                                    7162=            =    Ÿ  BINARY SEARCH INFORMATION DSECT  Ÿ
                                    7163=            =    Ÿ                                   Ÿ
                                    7164=            =    ¾þþþþþþþþþþþþþþþþþþþþþþþþþþþþþþþþþþþ»
 000000                00000 00020  7165             =BSINFO   RECORD BEGIN ,            BINARY SEARCH INFO
 000000                             7173  1          =BSTLEN     DS    F                   TOTAL LENGTH FOR ENTRIES
 000004                             7174  1          =BSELEN     DS    F                   ENTRY LENGTH
 000008                             7175  1          =BSSLEN     DS    F                   SEARCH FIELD LENGTH
 00000C                             7176  1          =BSSOFF     DS    F                   SEARCH FIELD OFFSET
 000010                             7177  1          =BSEND      DS    F                   END OF LAST VALID ENTRY
 000014                             7178  1          =BSCNT      DS    F                   COUNT OF BINARY SEARCH ITERATIONS
 000018                             7179  1          =BSSTART    DS    F                   START BINARY SEARCH AT MIDDLE
 00001C                             7180  1          =BSRSVD     DS    F                   NOT USED
 000020                00020 00020  7181             =         END
1FUNC     (FUNC2193) (12:45) (15MAR04) DSECTS                                                                               Page   11
0Current Usings:  (CP,R11) (CV,R12)
0Loc    Object Code    Addr1 Addr2  Stmt Lv Lineno    Source Statement           (Hibal 5, Asmedit 3.3)  HLASM R4.0  2004/03/15 12.45
+___    ______ ____    _____ _____  ____ __ ______    ______ _________
0                                   7191                       COPY  VNENTRY
                                    7192=            =¿þþþþþþþþþþþþþþþþþþþþþþþþþþþþþþþþþþþþþþþþþþþþþþþþþþþþþþþþþþþþþþþþþþþþþÜ
                                    7193=            =Ÿ                                                                     Ÿ
                                    7194=            =Ÿ                                                                     Ÿ
                                    7195=            =Ÿ  VARIABLE ENTRY (COMMON)                                            Ÿ
                                    7196=            =Ÿ                                                                     Ÿ
                                    7197=            =Ÿ                                                                     Ÿ
                                    7198=            =Ÿ                                                                     Ÿ
                                                      ¾þþþþþþþþþþþþþþþþþþþþþþþþþþþþþþþþþþþþþþþþþþþþþþþþþþþþþþþþþþþþþþþþþþþþþ»
0000000                00000 00050  7199             =VNENTRY  RECORD BEGIN ,            VARIABLE ENTRY
                                    7207= 1          =     ¿þþþþþþþþþþþþþþþþþþþþþþþþþþþþþþþþþþþþþþþþþþþþþþþþþþþþþþþþþþþþþþÜ
                                    7208= 1          =     Ÿ  VARIABLE NAME, DESCRIPTION      (ONLY NAME SAVED WITH VAR)  Ÿ
                                    7209= 1          =     ¾þþþþþþþþþþþþþþþþþþþþþþþþþþþþþþþþþþþþþþþþþþþþþþþþþþþþþþþþþþþþþþ»
 000000                             7210  1          =VNDESC     DS    XL32                VARIABLE DESCRIPTOR,
 000020                00020 00000  7211  1          =           ORG   VNDESC
 000000                             7212  1          =VNNAME     DS    CL16                VARIABLE NAME
 000010 00                          7213  1          =VNPREFIX   FLAG  ,                   NAME PREFIX FLAGS
 VNPREFIX.VNPFX    01 EQ            7217  1          =           FLAG  (VNPFX,1,EQ)        X.
 VNPREFIX.VNPFGBL  02 EQ            7227  1          =           FLAG  (VNPFGBL,2,EQ)      GBL.
 VNPREFIX.VNPFSYS  03 EQ            7237  1          =           FLAG  (VNPFSYS,3,EQ)      SYS.
 VNPREFIX.VNPFSES  04 EQ            7247  1          =           FLAG  (VNPFSES,4,EQ)      SES.
 VNPREFIX.VNPFPUB  05 EQ            7257  1          =           FLAG  (VNPFPUB,5,EQ)      PUB.
 000011 00                          7267  1          =VNAFLAGS   FLAG  ,                   ARRAY FLAGS
 VNAFLAGS.VNADESC  80 ONES          7271  1          =           FLAG  VNADESC             GENERIC ARRAY DESCRIPTOR
 000012                             7276  1          =VNASUB1    DS    H                   ARRAY SUBSCRIPTS
 000014                             7277  1          =VNASUB2    DS    H
 000016                             7278  1          =VNASUB3    DS    H
 000018                             7279  1          =           DS    0S(VNDESC+L'VNDESC-*)
 000018                00018 00020  7280  1          =           ORG
                                    7281= 1          =     ¿þþþþþþþþþþþþþþþþþþþþþþþþÜ
                                    7282= 1          =     Ÿ  VARIABLE TYPE, VALUE  Ÿ
                                    7283= 1          =     ¾þþþþþþþþþþþþþþþþþþþþþþþþ»
 000020                             7284  1          =VNDATA     DS    XL16                VARIABLE TYPE/VALUE
 000030                00030 00020  7285  1          =           ORG   VNDATA
 000020                             7286  1          =VNSDATA    DS    XL6                 VARIABLE TYPE/VALUE (STRING)
 000026                00026 00020  7287  1          =           ORG   VNDATA
 000020                             7288  1          =VNADATA    DS    XL48                VARIABLE TYPE/VALUE (ARRAY)
 000050                00050 00020  7289  1          =           ORG   VNDATA
                                    7290  1          =
 000020 00                          7291  1          =VNTYPE     FLAG  ,                   VARIABLE TYPE
 VNTYPE.VNSTRING   01 EQ            7295  1          =           FLAG  (VNSTRING,1,EQ)     STRING
 VNTYPE.VNNUMB     02 EQ            7305  1          =           FLAG  (VNNUMB,2,EQ)       NUMBER
 VNTYPE.VNBOOL     03 EQ            7315  1          =           FLAG  (VNBOOL,3,EQ)       BOOLEAN
 VNTYPE.VNARRAY    04 EQ            7325  1          =           FLAG  (VNARRAY,4,EQ)      ARRAY
 VNTYPE.VNFN       05 EQ            7335  1          =           FLAG  (VNFN,5,EQ)         FUNCTION
 VNTYPE.VNPROC     06 EQ            7345  1          =           FLAG  (VNPROC,6,EQ)       PROCEDURE
 VNTYPE.VNLABEL    07 EQ            7355  1          =           FLAG  (VNLABEL,7,EQ)      LABEL
 000021 00                          7365  1          =VNDEBUG    FLAG  ,                   DEBUG FLAGS
 VNDEBUG.VNDBGET   80 ONES          7369  1          =           FLAG  VNDBGET             DEBUG VARIABLE FETCH
 VNDEBUG.VNDBSAVE  40 ONES          7374  1          =           FLAG  VNDBSAVE            DEBUG VARIABLE STORE
 VNDEBUG.VNDBTRAC  20 ONES          7379  1          =           FLAG  VNDBTRAC            DEBUG TRACE THIS PROC/LABEL
 VNDEBUG.VNDBSTOP  10 ONES          7384  1          =           FLAG  VNDBSTOP            DEBUG STOP AT PROC/LABEL
 000022 00                          7389  1          =VNFLAGS1   FLAG  ,
1FUNC     (FUNC2193) (12:45) (15MAR04) DSECTS                                                                               Page   12
0Current Usings:  (CP,R11) (CV,R12)
0Loc    Object Code    Addr1 Addr2  Stmt Lv Lineno    Source Statement           (Hibal 5, Asmedit 3.3)  HLASM R4.0  2004/03/15 12.45
+___    ______ ____    _____ _____  ____ __ ______    ______ _________
0VNFLAGS1.VNINT    80 ONES          7393  1          =           FLAG  VNINT               ** INTEGER, OLD EXEC MODE !
 000023 00                          7398  1          =VNFLAGS2   FLAG  ,                   UNUSED
                                    7402= 1          =     ¿þþþþþþþþþþþþþþþÜ
                                    7403= 1          =     Ÿ  COMMON AREA  Ÿ
                                    7404= 1          =     ¾þþþþþþþþþþþþþþþ»
 000024                             7405  1          =           DS    0F
                                    7406  1          =VNAREA     EQU   *                   MULTI-USE AREA (COMMON)
                                    7407  1          =
 000024                00024 00024  7408  1          =           ORG   VNAREA
 000024                             7409  1          =           DS    0H                  (NUMBER), (BOOLEAN)
 000024                             7410  1          =VNVALUE    DS    XL12                ALL NUMBERS STORED AS PCKD DECIMAL
                                    7411  1          =
 000030                00030 00024  7412  1          =           ORG   VNAREA
 000024                             7413  1          =           DS    0H                  (STRING)
 000024                             7414  1          =VNSTRLEN   DS    H                   STRING LENGTH
                                    7415  1          =VNSTRLOC   EQU   *,1,C'C'            START OF STRING (IF ANY)
 000026                             7416  1          =           DS    0S(VNSDATA+L'VNSDATA-*)
                                    7417  1          =
 000026                00026 00024  7418  1          =           ORG   VNAREA
 000024                             7419  1          =           DS    0H                  (ARRAY)
 000024                             7420  1          =VNARG      DS    F                   ARRAY RECORD GROUP INFO POINTER
 000028                             7421  1          =VNASET     DS    F                   ARRAY SET NUMBER
 00002C                             7422  1          =VNAIDENT   DS    F                   ARRAY ID NUMBER
 000030 00                          7423  1          =VNATYPE    FLAG  ,                   ARRAY TYPE
 VNATYPE.VNASTR    01 EQ            7427  1          =           FLAG  (VNASTR,1,EQ)       STRINGS
 VNATYPE.VNANUMB   02 EQ            7437  1          =           FLAG  (VNANUMB,2,EQ)      NUMBERS
 VNATYPE.VNABOOL   03 EQ            7447  1          =           FLAG  (VNABOOL,3,EQ)      BOOLEANS
 000031 00                          7457  1          =VNAFLAG    FLAG  ,                   NOT USED
 000032                             7461  1          =VNADIM1    DS    H                   DIMENSION 1
 000034                             7462  1          =VNADIM2    DS    H                   DIMENSION 2
 000036                             7463  1          =VNADIM3    DS    H                   DIMENSION 3
 000038                             7464  1          =VNANAME    DS    CL(L'VNNAME)        ORIGINAL ARRAY NAME
 000048                             7465  1          =           DS    0S(VNADATA+L'VNADATA-*)
                                    7466  1          =
 000048                00048 00024  7467  1          =           ORG   VNAREA
 000024                             7468  1          =           DS    0H                  (PROCEDURE)
 000024                             7469  1          =VNPSTART   DS    F                   STARTING LINE NUMBER
 000028                             7470  1          =VNPEND     DS    F                   ENDING LINE NUMBER
 00002C                             7471  1          =           DS    0S(VNDATA+L'VNDATA-*)
                                    7472  1          =
 00002C                0002C 00024  7473  1          =           ORG   VNAREA
 000024                             7474  1          =           DS    0H                  (LABEL)
 000024                             7475  1          =VNLLINE    DS    F                   LABEL LINE NUMBER
 000028                             7476  1          =           DS    0S(VNDATA+L'VNDATA-*)
                                    7477  1          =
 000028                00028 00024  7478  1          =           ORG   VNAREA
 000024                             7479  1          =           DS    0H                  (FUNCTION)
 000024                             7480  1          =VNFSTART   DS    F                   STARTING LINE NUMBER
 000028                             7481  1          =VNFEND     DS    F                   ENDING LINE NUMBER
 00002C                             7482  1          =           DS    0S(VNDATA+L'VNDATA-*)
                                    7483  1          =
 00002C                0002C 00024  7484  1          =           ORG   VNAREA
 000024                             7485  1          =           DS    0H                  (SYSTEM VAR/FN/PROC)
 000024                             7486  1          =VNSYSRTN   DS    A                   ADDRESS OF SYSTEM ROUTINE
1FUNC     (FUNC2193) (12:45) (15MAR04) DSECTS                                                                               Page   13
0Current Usings:  (CP,R11) (CV,R12)
0Loc    Object Code    Addr1 Addr2  Stmt Lv Lineno    Source Statement           (Hibal 5, Asmedit 3.3)  HLASM R4.0  2004/03/15 12.45
+___    ______ ____    _____ _____  ____ __ ______    ______ _________
0000028                             7487  1          =           DS    0S(VNDATA+L'VNDATA-*)
 000028                00028 00050  7488  1          =           ORG
                                    7489  1          =*
                                    7490  1          =*
                                    7491  1          =NL         EQU   L'VNVALUE,,C'N'     NUMBER LENGTH
                                    7492  1          =MAXSTRLN   EQU   256,,C'N'           MAXIMUM STRING VAR LENGTH
                                    7493  1          =           DS    0S(MAXSTRLN-&LINESZ)
 000050                                   1          +           DS    0S(MAXSTRLN-235)
 000050                00050 00050  7494             =         END
                                    7503                       COPY  VPARM
                                    7504=            =¿þþþþþþþþþþþþþþþþþþþþþþþþþþþþþþþþþþþþþþþþþþþþþþþþþþþþþþþþþþþþþþþþþþþþþÜ
                                    7505=            =Ÿ                                                                     Ÿ
                                    7506=            =Ÿ                                                                     Ÿ
                                    7507=            =Ÿ  VARIABLE PARM AREA                                                 Ÿ
                                    7508=            =Ÿ                                                                     Ÿ
                                    7509=            =Ÿ                                                                     Ÿ
                                    7510=            =Ÿ                                                                     Ÿ
                                                      ¾þþþþþþþþþþþþþþþþþþþþþþþþþþþþþþþþþþþþþþþþþþþþþþþþþþþþþþþþþþþþþþþþþþþþþ»
0000000                00000 00150  7511             =VPARM    RECORD BEGIN ,            PARM AREA FOR VARIABLES
 000000                             7519  1          =           DS    (L'VNENTRY)X        IS A VARIABLE ENTRY
 000050                             7520  1          =           DS    (((MAXSTRLN-1)/16)*16+16)X  AND A STRING AREA
 000150                00150 00150  7521             =         END
1FUNC     (FUNC2193) (12:45) (15MAR04) DSECTS                                                                               Page   14
0Current Usings:  (CP,R11) (CV,R12)
0Loc    Object Code    Addr1 Addr2  Stmt Lv Lineno    Source Statement           (Hibal 5, Asmedit 3.3)  HLASM R4.0  2004/03/15 12.45
+___    ______ ____    _____ _____  ____ __ ______    ______ _________
0                                   7531                       COPY  XSENTRY
                                    7532=            =   ¿þþþþþþþþþþþþþþþþþþþþþþþþþþþþþþþþþþþþÜ
                                    7533=            =   Ÿ  GENERATE EQUIVALENT SYMBOL ENTRY  Ÿ
                                    7534=            =   ¾þþþþþþþþþþþþþþþþþþþþþþþþþþþþþþþþþþþþ»
                                    7535             =         MACRO
                                    7536             =&L       SAMEAS &SYMBOL,&DSECT=,&BASE=
                                    7537             =         LCLC  &TYPE
                                    7538             =&TYPE    SETC  T'&SYMBOL
                                    7539             =&L       EQU   &BASE+(&SYMBOL-&DSECT),L'&SYMBOL,C'&TYPE'
                                    7540             =         MEND
0                                   7542=            =¿þþþþþþþþþþþþþþþþþþþþþþþþþþþþþþþþþþþþþþþþþþþþþþþþþþþþþþþþþþþþþþþþþþþþþÜ
                                    7543=            =Ÿ                                                                     Ÿ
                                    7544=            =Ÿ                                                                     Ÿ
                                    7545=            =Ÿ  EXPRESSION STACK ENTRY                                             Ÿ
                                    7546=            =Ÿ                                                                     Ÿ
                                    7547=            =Ÿ  *** NOTE ***                                                       Ÿ
                                    7548=            =Ÿ  THIS DSECT IS THE SAME AS A VARIABLE ENTRY DSECT, WITH THE         Ÿ
                                    7549=            =Ÿ  EXCEPTION THAT THE VARIABLE NAME (DESCRIPTOR) FIELD IS REPLACE     Ÿ
                                    7550=            =Ÿ  WITH SPECIAL TYPE FLAGS AND OPERATOR STACK ENTRIES.                Ÿ
                                    7551=            =Ÿ                                                                     Ÿ
                                    7552=            =Ÿ  THE POINT OF THE COMPATIBILITY BETWEEN THIS DSECT AND THE          Ÿ
                                    7553=            =Ÿ  VARIABLE ENTRY DSECT, IS SO THAT THE RESULT OF THE EXPRESSION      Ÿ
                                    7554=            =Ÿ  EVALUATION (TYPE AND VALUE) IS COMPATIBLE.                         Ÿ
                                    7555=            =Ÿ                                                                     Ÿ
                                    7556=            =Ÿ                                                                     Ÿ
                                                      ¾þþþþþþþþþþþþþþþþþþþþþþþþþþþþþþþþþþþþþþþþþþþþþþþþþþþþþþþþþþþþþþþþþþþþþ»
0000000                00000 00050  7557             =XSENTRY  RECORD BEGIN ,            EXPRESSION STACK ENTRY
 000000                             7565  1          =XXSSTART   DS    0D
 000000                             7566  1          =           DS    (L'VNENTRY)X
                                    7567  1          =XSLENGTH   EQU   8192                STANDARD EXPRESSION STACK LEN
                                    7568  1          =XSLENTRY   EQU   XXSSTART,L'VPARM    ACTUAL LEN OF ENTRY (INCL. STR)
                                    7569  1          =*
                                    7570  1          =* EXPRESSION STACK ENTRIES,,,
                                    7571  1          =*
                                    7572  1          =*  ** CAUTION **
                                    7573  1          =* EXPRESSION STACK ENTRIES SHOULD ONLY OVERLAY VNDESC FIELD !
 000050                00050 00000  7574  1          =           ORG   XXSSTART+(VNDESC-VNENTRY)
 000000 00                          7575  1          =XSTYPE     FLAG  ,                   STACK ENTRY TYPE
 XSTYPE.XSSTART    01 EQ            7579  1          =           FLAG  (XSSTART,1,EQ)      START OF EXPRESSION
 XSTYPE.XSVAL      02 EQ            7589  1          =           FLAG  (XSVAL,2,EQ)        TERM, EVALUATED
 XSTYPE.XSOPER     03 EQ            7599  1          =           FLAG  (XSOPER,3,EQ)       OPERATOR
 XSTYPE.XSEND      04 EQ            7609  1          =           FLAG  (XSEND,4,EQ)        END OF EXPRESSION
 XSTYPE.XSNULL     05 EQ            7619  1          =           FLAG  (XSNULL,5,EQ)       NULL EXPRESSION
                                    7629  1          =
 000001                             7630  1          =XSUOPLVL   DS    X                   UNARY OPERATOR PRIORITY LEVEL
 000002                             7631  1          =XSBOPLVL   DS    X                   BINARY OPERATOR PRIORITY LEVEL
 000004                             7632  1          =XSUOPRTN   DS    A                   UNARY OPERATOR ROUTINE
 000008                             7633  1          =XSBOPRTN   DS    A                   BINARY OPERATOR ROUTINE
 00000C                             7634  1          =XSOPCHAR   DS    CL4                 OPERATOR
 000010                             7635  1          =           DS    0S(L'VNDESC-(*-(XXSSTART+(VNDESC-VNENTRY))))
1FUNC     (FUNC2193) (12:45) (15MAR04) DSECTS                                                                               Page   15
0Current Usings:  (CP,R11) (CV,R12)
0Loc    Object Code    Addr1 Addr2  Stmt Lv Lineno    Source Statement           (Hibal 5, Asmedit 3.3)  HLASM R4.0  2004/03/15 12.45
+___    ______ ____    _____ _____  ____ __ ______    ______ _________
0                                   7636= 1          =     ¿þþþþþþþþþþþþþþþþþþþþþþþþþþþþþþþþÜ
                                    7637= 1          =     Ÿ  STANDARD VARIABLE ENTRIES !!  Ÿ
                                    7638= 1          =     ¾þþþþþþþþþþþþþþþþþþþþþþþþþþþþþþþþ»
                                    7639  1          =XSNAME     SAMEAS VNNAME,DSECT=VNENTRY,BASE=XSENTRY     NAME AREA
                                    7640  1 01-07539 +XSNAME     EQU   XSENTRY+(VNNAME-VNENTRY),L'VNNAME,C'C'
                                    7641  1          =
                                    7642  1          =XSNUMB     SAMEAS VNNUMB,DSECT=VNENTRY,BASE=XSENTRY     TYPE: NUMBER
                                    7643  1 01-07539 +XSNUMB     EQU   XSENTRY+(VNNUMB-VNENTRY),L'VNNUMB,C''
                                    7644  1          =XSBOOL     SAMEAS VNBOOL,DSECT=VNENTRY,BASE=XSENTRY           BOOLEAN
                                    7645  1 01-07539 +XSBOOL     EQU   XSENTRY+(VNBOOL-VNENTRY),L'VNBOOL,C''
                                    7646  1          =XSSTRING   SAMEAS VNSTRING,DSECT=VNENTRY,BASE=XSENTRY         STRING
                                    7647  1 01-07539 +XSSTRING   EQU   XSENTRY+(VNSTRING-VNENTRY),L'VNSTRING,C''
                                    7648  1          =XSARRAY    SAMEAS VNARRAY,DSECT=VNENTRY,BASE,XSENTRY          ARRAY
                                    7649  1 01-07539 +XSARRAY    EQU   +(VNARRAY-VNENTRY),L'VNARRAY,C''
                                    7650  1          =
                                    7651  1          =XSVALUE    SAMEAS VNVALUE,DSECT=VNENTRY,BASE=XSENTRY     VALUE
                                    7652  1 01-07539 +XSVALUE    EQU   XSENTRY+(VNVALUE-VNENTRY),L'VNVALUE,C'X'
                                    7653  1          =XSSTRLOC   SAMEAS VNSTRLOC,DSECT=VNENTRY,BASE=XSENTRY    STRING LOC
                                    7654  1 01-07539 +XSSTRLOC   EQU   XSENTRY+(VNSTRLOC-VNENTRY),L'VNSTRLOC,C'C'
                                    7655  1          =XSSTRLEN   SAMEAS VNSTRLEN,DSECT=VNENTRY,BASE=XSENTRY    STRING LEN
                                    7656  1 01-07539 +XSSTRLEN   EQU   XSENTRY+(VNSTRLEN-VNENTRY),L'VNSTRLEN,C'H'
                                    7657  1          =
 000010                             7658  1          =           DS    0S(L'VPARM-L'XSLENTRY)
 000010                             7659  1          =           DS    0S(L'XSLENTRY-L'VPARM)
 000010                00010 00050  7660             =         END
1FUNC     (FUNC2193) (12:45) (15MAR04) DSECTS                                                                               Page   16
0Current Usings:  (CP,R11) (CV,R12)
0Loc    Object Code    Addr1 Addr2  Stmt Lv Lineno    Source Statement           (Hibal 5, Asmedit 3.3)  HLASM R4.0  2004/03/15 12.45
+___    ______ ____    _____ _____  ____ __ ______    ______ _________
0                                   7670                       COPY  SHDSARGS
 000000                00000 00200  7671             =SHDSARGS RECORD BEGIN
 000000 00                          7679  1          =SHDSFLAG   FLAG  ,
 SHDSFLAG.SHDSALL  80 ONES          7683  1          =           FLAG  SHDSALL             All
 SHDSFLAG.SHDSTRK  40 ONES          7688  1          =           FLAG  SHDSTRK             Tracks
 SHDSFLAG.SHDSTYP  20 ONES          7693  1          =           FLAG  SHDSTYP             Typed
 SHDSFLAG.SHDSDAT  10 ONES          7698  1          =           FLAG  SHDSDAT             Dated
 SHDSFLAG.SHDSSCR  08 ONES          7703  1          =           FLAG  SHDSSCR             Scratch
 SHDSFLAG.SHDSINT  04 ONES          7708  1          =           FLAG  SHDSINT             Internal
 SHDSFLAG.SHDSONLY 02 ONES          7713  1          =           FLAG  SHDSONLY            Only
 SHDSFLAG.SHDSLIK  01 ONES          7718  1          =           FLAG  SHDSLIK             Like was explicit
 000001 00                          7723  1          =SHDSFLG2   FLAG  SHDSNEW             New format display
 SHDSFLG2.SHDSNEW  80 ONES
 000004                             7729  1          =           DS    0F
 000004                             7730  1          =SHDSUPL    DS    F
 000008                             7731  1          =SHDSUPB    DS    CL128
 000088                             7732  1          =SHDSLOWL   DS    F
 00008C                             7733  1          =SHDSLOWB   DS    CL128
 00010C                             7734  1          =SHDSLIKL   DS    F
 000110                             7735  1          =SHDSLIKE   DS    CL128
                                    7736  1          =*
                                    7737  1          =* Space for page number which contain the output
                                    7738  1          =* from SHOW DIR (used only by Wings for now).
                                    7739  1          =*
 000190                             7740  1          =SHDSPGCT   DS    H                  Number of pages
 000194                             7741  1          =SHDSPAGS   DS    25F                Slots for pages
                                    7742  1          =SHDSMXPG   EQU   (*-SHDSPAGS)/4
                                    7743  1          =*
                                    7744  1          =* The following fields are used during the display of
                                    7745  1          =* the information on the various pages by the DIR
                                    7746  1          =* module.
 0001F8                             7747  1          =SHDSCPG    DS    F                  Current page array index
 0001FC                             7748  1          =SHDSCOFF   DS    F                  Offset in current page
 000200                00200 00200  7749             =         END
                                    7758                       COPY  FFINFO
                                    7759             =*
                                    7760             =*
                                    7761             =*  FILE INFO DSECT
                                    7762             =*
                                    7763             =*  THIS DSECT CONTAINS THE INFO NEEDED TO OPEN FILES.
                                    7764             =*  IT CONTAINS THE FILE NAME, FILE OPTIONS, FILE SYSTEM
                                    7765             =*  NAME AND FILE SYSTEM OPTIONS. THIS DSECT SHOULD CONTAIN
                                    7766             =*  ONLY DESCRIPTIVE INFO NEEDED TO OPEN THE FILE.
                                    7767             =*
                                    7768             =*
                                    7769             =FNAMELN  EQU   128                 MAXIMUM FILE NAME LENGTH
                                    7770             =FSYSLN   EQU   128                 MAXIMUM FILE SYSTEM LENGTH
                                    7771             =FHOSTLN  EQU   128                 MAXIMUM FILE SYSTEM HOST LENGTH
                                    7772             =*
                                    7773             =*
 000000                00000 003A0  7774             =FFINFO   RECORD BEGIN
 000000 00                          7782  1          =FFTYPE     FLAG  ,                   FILE SYSTEM TYPE FLAGS
 FFTYPE.FFFWINGS   01 EQ            7786  1          =           FLAG  (FFFWINGS,1,EQ)     WINGS
 FFTYPE.FFFUNIX    02 EQ            7796  1          =           FLAG  (FFFUNIX,2,EQ)      UNIX (NOT IMPLEMENTED)
1FUNC     (FUNC2193) (12:45) (15MAR04) DSECTS                                                                               Page   17
0Current Usings:  (CP,R11) (CV,R12)
0Loc    Object Code    Addr1 Addr2  Stmt Lv Lineno    Source Statement           (Hibal 5, Asmedit 3.3)  HLASM R4.0  2004/03/15 12.45
+___    ______ ____    _____ _____  ____ __ ______    ______ _________
0FFTYPE.FFFSAM     03 EQ            7806  1          =           FLAG  (FFFSAM,3,EQ)       SAMSON
 FFTYPE.FFFNET     04 EQ            7816  1          =           FLAG  (FFFNET,4,EQ)       NET
 FFTYPE.FFFOLD     05 EQ            7826  1          =           FLAG  (FFFOLD,5,EQ)       OLD IBM
 000001 00                          7836  1          =FFRQTYPE   FLAG  ,                   REQUEST TYPE FLAGS
 FFRQTYPE.FFFREAD  01 EQ            7840  1          =           FLAG  (FFFREAD,1,EQ)      READ (DEFAULT)
 FFRQTYPE.FFFWRITE 02 EQ            7850  1          =           FLAG  (FFFWRITE,2,EQ)     WRITE
 FFRQTYPE.FFFAPPD  04 EQ            7860  1          =           FLAG  (FFFAPPD,4,EQ)      APPEND
 FFRQTYPE.FFFREPL  08 EQ            7870  1          =           FLAG  (FFFREPL,8,EQ)      REPLACE
 000002 00                          7880  1          =FFMISC     FLAG  ,                   MISC FLAGS
 FFMISC.FFFPASSW   80 ONES          7884  1          =           FLAG  FFFPASSW            PASSWORD ACCESS OK
 FFMISC.FFFDIFFV   40 ONES          7889  1          =           FLAG  FFFDIFFV            DIFFERENT VOL SAVE OK
 FFMISC.FFFCHFMT   20 ONES          7894  1          =           FLAG  FFFCHFMT            CHANGE DSN FORMAT OK
 FFMISC.FFFNRACF   10 ONES          7899  1          =           FLAG  FFFNRACF            NO RACF PROCESSING
 FFMISC.FFFPDS     08 ONES          7904  1          =           FLAG  FFFPDS              OP APPLIES TO PDS
 000003 00                          7909  1          =FFPTYPE    FLAG  ,                   PREVIOUS FILE TYPE
 FFPTYPE.FFFPWINGS 01 EQ            7913  1          =           FLAG  (FFFPWINGS,1,EQ)    WINGS
 FFPTYPE.FFFPUNIX  02 EQ            7923  1          =           FLAG  (FFFPUNIX,2,EQ)     UNIX (NOT IMPLEMENTED)
 FFPTYPE.FFFPSAM   03 EQ            7933  1          =           FLAG  (FFFPSAM,3,EQ)      SAMSON
 FFPTYPE.FFFPNET   04 EQ            7943  1          =           FLAG  (FFFPNET,4,EQ)      NET
 FFPTYPE.FFFPOLD   05 EQ            7953  1          =           FLAG  (FFFPOLD,5,EQ)      OLD IBM
 000004 00                          7963  1          =FFFLAG4    FLAG  ,
 000008                             7967  1          =FFNAMEL    DS    F                   FILE NAME
 00000C                             7968  1          =FFNAME     DS    CL128
 00008C                             7969  1          =FFHOSTL    DS    F                   FILE HOST
 000090                             7970  1          =FFHOST     DS    CL128
 000110                             7971  1          =FFOPTSL    DS    F                   FILE OPTIONS (FORMAT ETC)
 000114                             7972  1          =FFOPTS     DS    CL256
 000214                             7973  1          =FFRNAMEL   DS    F                   RESOLVED FULL FILE NAME
 000218                             7974  1          =FFRNAME    DS    CL128
 000298                             7975  1          =FFPNAMEL   DS    F                   PREVIOUS FILE NAME (IE. *)
 00029C                             7976  1          =FFPNAME    DS    CL128
 00031C                             7977  1          =FFPHOSTL   DS    F                   PREVIOUS HOST
 000320                             7978  1          =FFPHOST    DS    CL128
 0003A0                003A0 003A0  7979             =         END   ,
                                    7988                       COPY  DSNINFO
 000000                00000 000EB  7989             =DSNINFO  RECORD BEGIN
                                    7997  1          =*********************************************************************
                                    7998  1          =*                                                                   *
                                    7999  1          =* This record describes the layout of a line received from the      *
                                    8000  1          =* WINGS FILESHOW command sent by WYLBUR (for SHOW DSNAMES and       *
                                    8001  1          =* SHOW CAT).                                                        *
                                    8002  1          =*                                                                   *
                                    8003  1          =* revised 1995/01/09 MCL                                            *
                                    8004  1          =* revised 1197/01/27 MPD
                                    8005  1          =*                                                                   *
                                    8006  1          =*********************************************************************
0000000                             8008  1          =DSNCATTP   DS    CL1                 Catalog entry type
                                    8009  1          =*                                      'A' - Non-VSAM dataset
                                    8010  1          =*                                      'B' - GDG Base
                                    8011  1          =*                                      'C' - VSAM cluster entry
                                    8012  1          =*                                      'D' - VSAM dataset
                                    8013  1          =*                                      'G' - Alternate index
                                    8014  1          =*                                      'I' - VSAM index
1FUNC     (FUNC2193) (12:45) (15MAR04) DSECTS                                                                               Page   18
0Current Usings:  (CP,R11) (CV,R12)
0Loc    Object Code    Addr1 Addr2  Stmt Lv Lineno    Source Statement           (Hibal 5, Asmedit 3.3)  HLASM R4.0  2004/03/15 12.45
+___    ______ ____    _____ _____  ____ __ ______    ______ _________
0                                   8015  1          =*                                      'M' - Master catalog
                                    8016  1          =*                                      'P' - System paging space
                                    8017  1          =*                                      'R' - Path entry
                                    8018  1          =*                                      'U' - User catalog
                                    8019  1          =*                                      'V' - VSAM volume entry
                                    8020  1          =*                                      'X' - Alias name
                                    8021  1          =*                                      '+' - subsequent volume entry
 000001                             8022  1          =DSNBLK01   DS    CL1                 Blank
 000002                             8023  1          =DSNDSN     DS    CL44                Fully-qualified dataset name
 00002E                             8024  1          =DSNVOL     DS    CL6                 Volume name
 000034                             8025  1          =DSNBLK02   DS    CL1                 Blank
 000035                             8026  1          =DSNDEVTP   DS    CL1                 'D' (disk) or 'T' (tape)
 000036                             8027  1          =DSNFLSQ    DS    CL4                 File sequence number
                                    8028  1          =DSNSEQ     EQU   DSNFLSQ               ...
 00003A                             8029  1          =DSNVLCT    DS    CL3                 Volume count
 00003D                             8030  1          =DSNBLK03   DS    CL1                 Blank
 00003E                             8031  1          =DSNUCBTP   DS    CL8                 UCBTYPE info from catalog
 000046                             8032  1          =DSNBLK04   DS    CL1                 Blank
 000047                             8033  1          =DSNDVDES   DS    CL10                Device description
                                    8034  1          =*
                                    8035  1          =* The following columns are only filled in for disks
                                    8036  1          =*
 000051                             8037  1          =DSNERRCD   DS    CL1                 ' ' - No problems getting info
                                    8038  1          =*                                  'A' - Migrated via HSM
                                    8039  1          =*                                  'M' - Volume not mounted
                                    8040  1          =*                                  'D' - DSCB not on volume
                                    8041  1          =*                                  'X' - OBTAIN error occurred
                                    8042  1          =*                                        "tracks used" contains RC
                                    8043  1          =*
                                    8044  1          =*If DSNERRCD above reflects other than blank, an error occurred
                                    8045  1          =*on the OBTAIN and the following fields are blanked.
                                    8046  1          =*
 000052                             8047  1          =DSNTRKUS   DS    CL8                 Tracks used, as nnnnn.nn
 00005A                             8048  1          =DSNBLK05   DS    CL1                 Blank
 00005B                             8049  1          =DSNTRKAL   DS    CL5                 Tracks allocated
 000060                             8050  1          =DSNBLK06   DS    CL1                 Blank
 000061                             8051  1          =DSNXTNTS   DS    CL3                 Number of extents
 000064                             8052  1          =DSNBLK07   DS    CL1                 Blank
 000065                             8053  1          =DSNDSORG   DS    CL3                 DSORG
 000068                             8054  1          =DSNBLK08   DS    CL1                 Blank
 000069                             8055  1          =DSNRECFM   DS    CL5                 RECFM
 00006E                             8056  1          =DSNBLK09   DS    CL1                 Blank
 00006F                             8057  1          =DSNLRECL   DS    CL5                 LRECL
 000074                             8058  1          =DSNBLK10   DS    CL1                 Blank
 000075                             8059  1          =DSNBKSIZ   DS    CL5                 BLKSIZE
 00007A                             8060  1          =DSNBLK11   DS    CL1                 Blank
 00007B                             8061  1          =DSNKEYLN   DS    CL3                 KEYLEN
 00007E                             8062  1          =DSNBLK12   DS    CL1                 Blank
 00007F                             8063  1          =DSNCRDAT   DS    CL10                Creation date, yyyy/mm/dd
 000089                             8064  1          =DSNBLK13   DS    CL1                 Blank
 00008A                             8065  1          =DSNLADAT   DS    CL10                Last access date, yyyy/mm/dd
 000094                             8066  1          =DSNBLK14   DS    CL1                 Blank
 000095                             8067  1          =DSNCHGED   DS    CL1                 'Y' - changed since last backup
                                    8068  1          =*                                  'N' - not
1FUNC     (FUNC2193) (12:45) (15MAR04) DSECTS                                                                               Page   19
0Current Usings:  (CP,R11) (CV,R12)
0Loc    Object Code    Addr1 Addr2  Stmt Lv Lineno    Source Statement           (Hibal 5, Asmedit 3.3)  HLASM R4.0  2004/03/15 12.45
+___    ______ ____    _____ _____  ____ __ ______    ______ _________
0000096                             8069  1          =DSNBLK15   DS    CL1                 Blank
 000097                             8070  1          =DSNKBYTU   DS    CL8                 space used, Kbytes
 00009F                             8071  1          =DSNBLK16   DS    CL1                 blank
 0000A0                             8072  1          =DSNKBYTA   DS    CL8                 space allocated, Kbytes
 0000A8                             8073  1          =DSNBLK17   DS    CL1                 blank
 0000A9                             8074  1          =DSNEXPDT   DS    CL10                Expiration date YYYY/MM/DD
 0000B3                             8075  1          =DSNBLK18   DS    CL1                 Blank
 0000B4                             8076  1          =DSNSTORC   DS    CL8                 SMS STORCLAS or blank
 0000BC                             8077  1          =DSNMGMTC   DS    CL8                 SMS MGMTCLAS or blank
 0000C4                             8078  1          =DSNDATAC   DS    CL8                 SMS DATACLAS or blank
                                    8079  1          =*  Remaining space reserved for future use
                                    8080  1          =DSNREC#    EQU   235                 length of this record
                                    8081  1          =DSNRC##    EQU   235-(*-DSNCATTP)    length of final filler
 0000CC                             8082  1          =DSNRESV1   DS    CL(DSNRC##)         the final filler
 0000EB                000EB 000EB  8083             =         END
1FUNC     (FUNC2193) (12:45) (15MAR04) Local Macros                                                                         Page   20
0Current Usings:  (CP,R11) (CV,R12)
0Loc    Object Code    Addr1 Addr2  Stmt Lv Lineno    Source Statement           (Hibal 5, Asmedit 3.3)  HLASM R4.0  2004/03/15 12.45
+___    ______ ____    _____ _____  ____ __ ______    ______ _________
0                                   8094              *
                                    8095              *
                                    8096              *   SYSTEM ROUTINE TABLE ENTRY MACRO
                                    8097              *
                                    8098              *
 000000                00000 00014  8099              RTNENTRY RECORD BEGIN
 000000                             8107  1           RTNNAME    DS    CL16
                                    8108  1           RTNPTR     DEFRTNP
 000010                             8109  1 01-DEFRT +RTNPTR     DS    A
 000014                00014 00014  8110                       END
                                    8119              *
                                    8120              *C-DATA  struct sysrtn {
                                    8121              *C-DATA    unsigned char name[16];
                                    8122              *C-DATA    void (* routine)();
                                    8123              *C-DATA  };
                                    8124              *
                                    8125              *
 000018                             8126                       DS    0S(16-L'VNNAME)     VNNAME MUST BE 16 OR FIXED ABOVE
 000018                             8127                       DS    0S(L'VNNAME-16)       AND FIXED IN SYSRTN MACRO
 000018                             8128                       DS    0S(16-L'RTNNAME)    RTNNAME MUST BE 16 OR FIXED ABOVE
 000018                             8129                       DS    0S(L'RTNNAME-16)      AND FIXED IN SYSRTN MACRO
                                    8130
                                    8131                       MACRO
                                    8132              &L       SYSFN     &NAME,&ROUTINE
                                    8133              &L       SYSRTN    &NAME,&ROUTINE
                                    8134                       MEND
                                    8135
                                    8136                       MACRO
                                    8137              &L       LA$TABLE &RX,&LOC
                                    8138                       GBLB  &$PCODE
                                    8139                       AIF   (&$PCODE).CGENLA
                                    8140                       L     &RX,=A(&LOC)
                                    8141                       MEXIT
                                    8142              .CGENLA  ANOP
                                    8143                       MNOTE *,'C-CODE &RX = (long int)((char *)( && &LOC));'
                                    8144                       MEND
                                    8145
1FUNC     (FUNC2193) (12:45) (15MAR04) Local Macros                                                                         Page   21
0Current Usings:  (CP,R11) (CV,R12)
0Loc    Object Code    Addr1 Addr2  Stmt Lv Lineno    Source Statement           (Hibal 5, Asmedit 3.3)  HLASM R4.0  2004/03/15 12.45
+___    ______ ____    _____ _____  ____ __ ______    ______ _________
0                                   8147              *
                                    8148              *
                                    8149              *   LOCAL MACROS
                                    8150              *
                                    8151              *        SETARGS - SET ARG TYPES
                                    8152              *        RETARGS - RETURN PROCEDURE ARGS
                                    8153              *        VRETURN - RETURN VARIABLE VALUE, TYPE
                                    8154              *        BADARG - CREATE BAD ARGUMENT MESSAGE
                                    8155              *
                                    8156              *.... ..   -... ..- -..
-                                   8158              *
                                    8159              *                               SET ARGUMENT TYPES
                                    8160                       MACRO
                                    8161              &L       SETARGS  &LIST
                                    8162              &L       LA    R2,=C&LIST          LIST OF ARGUMENT TYPES TO SET
                                    8163                       ACALL SETARGS             R1 - ARG LIST, R0 - ARG COUNT
                                    8164                       MEND
-                                   8166              *
                                    8167              *                             RETURN VARIABLE @R6
                                    8168                       MACRO
                                    8169              &L       VRETURN &TYPE,&VALUE,&LEN
                                    8170              &L       DS    0H
                                    8171                       AIF   ('&TYPE' EQ 'STRING').TYPESTR
                                    8172                       AIF   ('&TYPE' EQ 'INTEGER').TYPEINT
                                    8173                       AIF   ('&TYPE' EQ 'LINENO').TYPELNO
                                    8174                       AIF   ('&TYPE' EQ 'BOOLEAN').TYPEBOOL
                                    8175                       MNOTE 8,'INVALID TYPE SPECIFIED'
                                    8176              .*
                                    8177              .*                                 RETURN STRING VALUE
                                    8178              .TYPESTR ANOP
                                    8179                       WITH  (VNENTRY,R6),BEGIN
                                    8180                       CLEAR VNENTRY                 CLEAR ENTRY
                                    8181                       SET   VNSTRING                SET STRING TYPE
                                    8182                       SETMSG &VALUE,&LEN
                                    8183                       STH   R0,VNSTRLEN             SAVE STRING LEN
                                    8184                       LTR   R3,R0                   SAVE STRING VALUE
                                    8185                       IF    POS,BEGIN
                                    8186                       DEX   R3,' MVC VNSTRLOC(0),@R1 '
                                    8187                       END
                                    8188                       SR    R15,R15
                                    8189                       END   , WITH (VNENTRY,R6)
                                    8190                       MEXIT
                                    8191              .*                                 RETURN INTEGER VALUE
                                    8192              .TYPEINT ANOP
                                    8193                       WITH  (VNENTRY,R6),BEGIN
                                    8194                       CLEAR VNENTRY                 CLEAR ENTRY
                                    8195                       SET   VNNUMB                  SET NUMBER TYPE
                                    8196                       $L    R1,&VALUE,OP=LA         SET VALUE
                                    8197                       ST    R1,VNVALUE
                                    8198                       LA    R2,VNENTRY
1FUNC     (FUNC2193) (12:45) (15MAR04) Local Macros                                                                         Page   22
0Current Usings:  (CP,R11) (CV,R12)
0Loc    Object Code    Addr1 Addr2  Stmt Lv Lineno    Source Statement           (Hibal 5, Asmedit 3.3)  HLASM R4.0  2004/03/15 12.45
+___    ______ ____    _____ _____  ____ __ ______    ______ _________
0                                   8199                       VCALL MAKEITOD                ALL #'S RETURNED AS PKD DEC
                                    8200                       END   , WITH (VNENTRY,R6)
                                    8201                       MEXIT
                                    8202              .*                                 RETURN LINE NUMBER VALUE
                                    8203              .TYPELNO ANOP
                                    8204                       WITH  (VNENTRY,R6),BEGIN
                                    8205                       CLEAR VNENTRY                 CLEAR ENTRY
                                    8206                       SET   VNNUMB                  SET NUMBER TYPE
                                    8207                       $L    R1,&VALUE,OP=LA         SET VALUE
                                    8208                       ST    R1,VNVALUE
                                    8209                       LA    R2,VNENTRY
                                    8210                       VCALL MAKELTOD                ALL #'S RETURNED AS PKD DEC
                                    8211                       END   , WITH (VNENTRY,R6)
                                    8212                       MEXIT
                                    8213              .*                                 RETURN BOOLEAN
                                    8214              .TYPEBOOL ANOP
                                    8215                       AIF   ('&VALUE' EQ 'TRUE').TRUEVAL
                                    8216                       AIF   ('&VALUE' EQ 'FALSE').FALSEVAL
                                    8217                       MNOTE 8,'INVALID BOOLEAN VALUE'
                                    8218              .TRUEVAL ANOP
                                    8219                       WITH  (VNENTRY,R6),BEGIN
                                    8220                       CLEAR VNENTRY                 CLEAR ENTRY
                                    8221                       SET   VNBOOL                  SET BOOLEAN TYPE
                                    8222                       MVC   VNVALUE(12),=X'00000000000001000000000C'   TRUE
                                    8223                       SR    R15,R15
                                    8224                       END   , WITH (VNENTRY,R6)
                                    8225                       MEXIT
                                    8226              .FALSEVAL ANOP
                                    8227                       WITH  (VNENTRY,R6),BEGIN
                                    8228                       CLEAR VNENTRY                 CLEAR ENTRY
                                    8229                       SET   VNBOOL                  SET BOOLEAN TYPE
                                    8230                       MVC   VNVALUE(12),=X'00000000000000000000000C'   FALSE
                                    8231                       SR    R15,R15
                                    8232                       END   , WITH (VNENTRY,R6)
                                    8233                       MEXIT
                                    8234              .*                                 DECIMAL/ARRAY RETURNS MUST
                                    8235              .*                                 BE CODED BY HAND !!!!
                                    8236                       MEND
-                                   8238              *
                                    8239              *                               TRIM BLANKS FROM END OF STRING
                                    8240                       MACRO
                                    8241              &L       VTRIM
                                    8242              &L       ACALL VTRIM               TRIM BLANKS, R6 - VAR ENTRY
                                    8243                       MEND
-                                   8245              *
                                    8246              *                               BAD ARGUMENT
                                    8247                       MACRO
                                    8248              &L       BADARG &ARGNO
                                    8249              &L       $L    R2,&ARGNO,OP=LA     NUMBER OF BAD ARGUMENT
                                    8250                       ACALL BADARG
1FUNC     (FUNC2193) (12:45) (15MAR04) Local Macros                                                                         Page   23
0Current Usings:  (CP,R11) (CV,R12)
0Loc    Object Code    Addr1 Addr2  Stmt Lv Lineno    Source Statement           (Hibal 5, Asmedit 3.3)  HLASM R4.0  2004/03/15 12.45
+___    ______ ____    _____ _____  ____ __ ______    ______ _________
0                                   8251                       MEND
1FUNC     (FUNC2193) (12:45) (15MAR04) Binary Search Info for Procedure List                                                Page   24
0Current Usings:  (CP,R11) (CV,R12)
0Loc    Object Code    Addr1 Addr2  Stmt Lv Lineno    Source Statement           (Hibal 5, Asmedit 3.3)  HLASM R4.0  2004/03/15 12.45
+___    ______ ____    _____ _____  ____ __ ______    ______ _________
0                                   8253              *
                                    8254              **
                                    8255              **  BINARY SEARCH INFO FOR TABLE OF SYSTEM FUNCTIONS
                                    8256              **
                                    8257              **  INITIALIZED BY INITFNS ROUTINE IN THIS MODULE.
                                    8258              *$  SHOULD GETMAIN THIS AREA TO MAKE REENTRANT !
                                    8259              **
                                    8260              *
1FUNC     (FUNC2193) (12:45) (15MAR04) Initialize System Variables/Functions                                                Page   25
0Current Usings:  (CP,R11) (CV,R12)
0Loc    Object Code    Addr1 Addr2  Stmt Lv Lineno    Source Statement           (Hibal 5, Asmedit 3.3)  HLASM R4.0  2004/03/15 12.45
+___    ______ ____    _____ _____  ____ __ ______    ______ _________
0                                   8262              ¿þþþþþþþþþþþþþþþþþþþþþþþþþþþþþþþþþþþþþþþþþþþþþþþþþþþþþþþþþþþþþþþþþþþþþÜ
                                    8263              Ÿ                                                                     Ÿ
                                    8264              Ÿ                                                                     Ÿ
                                    8265              Ÿ  INITFUNC - FUNC MODULE INITIALIZATION                              Ÿ
                                    8266              Ÿ                                                                     Ÿ
                                    8267              Ÿ  SET UP BINARY SEARCH INFO FOR SYSTEM VARIABLES/FUNCTIONS.          Ÿ
                                    8268              Ÿ                                                                     Ÿ
                                    8269              Ÿ                                                                     Ÿ
                                    8270              Ÿ                                                                     Ÿ
                                                      ¾þþþþþþþþþþþþþþþþþþþþþþþþþþþþþþþþþþþþþþþþþþþþþþþþþþþþþþþþþþþþþþþþþþþþþ»
0000018 50E0 D000/9008_      00000  8271              INITFUNC XPROC ,
 USING  *,R7
                                    8311
                                    8312                       COMMENT                   GET MEMORY FOR FNS BSEARCH INFO
 000032 4100 0020            00020  8313                       LA    R0,L'BSINFO
 000036 58E0 72E6/0DEE       00318  8314                       VCALL GETCORE
 00003C 5010 C264            00264  8318                       ST    R1,CVFBINFO
                                    8319
                                    8320                       COMMENT                   FUNCTIONS BSEARCH INFO
 000040 5800 C264            00264  8321                       L     R0,CVFBINFO         R0 - BSEARCH INFO
 000044 5810 72EA            0031C  8322                       LA$TABLE R1,SYSFEND       R1 - TOTAL POSSIBLE TABLE LEN
 000048 5820 72EE            00320  8324                       LA$TABLE R2,SYSFNS
 00004C 1B12                        8326                       SR    R1,R2
 00004E 4120 0014            00014  8327                       LA    R2,L'RTNENTRY       R2 - ENTRY LENGTH
 000052 4130 0010            00010  8328                       LA    R3,L'RTNNAME        R3 - SEARCH LENGTH (NAME LEN)
 000056 1841                        8329                       LR    R4,R1               R4 - END OF LAST ENTRY = TAB LEN
 000058 58E0 72F2/0DEE       00324  8330                       VCALL BSINIT
 00005E 18D8/9808 D004_             8334                       PEND
 DROP   *,R7
1FUNC     (FUNC2193) (12:45) (15MAR04) Initialize System Variables/Functions                                                Page   26
0Current Usings:  (CP,R11) (CV,R12)
0Loc    Object Code    Addr1 Addr2  Stmt Lv Lineno    Source Statement           (Hibal 5, Asmedit 3.3)  HLASM R4.0  2004/03/15 12.45
+___    ______ ____    _____ _____  ____ __ ______    ______ _________
0                                   8355              *
                                    8356              *
                                    8357              *  GTFNRTN - GET SYSTEM FUNCTION ROUTINE ADDRESS
                                    8358              *
                                    8359              *  ON ENTRY:
                                    8360              *    @R0 - PLACE TO RETURN ROUTINE ADDRESS
                                    8361              *    @R1 - FUNCTION NAME, LEFT JUSTIFIED BLANK PADDED
                                    8362              *
                                    8363              *  ON EXIT:
                                    8364              *    R15=Z, ROUTINE FOUND;  R15=NZ, ROUTINE NOT FOUND
                                    8365              *    R1 - POINTS TO FULL NAME OF FUNCTION (NOT SAME AS ENTRY VALUE)
                                    8366              *
                                    8367              *
                                    8368              *  NOTE:
                                    8369              *  IF ROUTINE POINTER IS ZERO, ROUTINE IS NOT DEFINED. THIS IS
                                    8370              *  SO THAT WE CAN CONTROL WHICH ABBREVAIATIONS FIND MATCHES.
                                    8371              *
                                    8372              *
 00006C 50E0 D000/9008_      00000  8373              GTFNRTN  XPROC ,
 USING  *,R7
                                    8413
 000086 1840                        8414                       LR    R4,R0
 000088 1851                        8415                       LR    R5,R1
                                    8416
                                    8417                       COMMENT                   SEARCH FOR SYSTEM ROUTINE
 00008A 5800 C264            00264  8418                       L     R0,CVFBINFO
 00008E 5810 729A            00320  8419                       LA$TABLE R1,SYSFNS
 000092 1825                        8421                       LR    R2,R5 IE. NAME
 000094 58E0 72A2/0DEE       00328  8422                       VCALL ABSEARCH
                                    8426
                                    8427                       COMMENT                   IF FOUND RETURN VALUES
 00009A 12FF/4770 7038              8428                       IF    (R15,Z),BEGIN
 0000A0 1861                        8442  1                      LR    R6,R1
 USING  RTNENTRY,R6                 8443  1                      USING RTNENTRY,R6
 0000A2 D603 6010 6010_00010 00010  8452  1                      IF    (RTNPTR,NZ),BEGIN
 0000AC D203 4000 6010 00000 00010  8468  2                        MVC   @R4(L'RTNPTR),RTNPTR
 0000B2 4110 6000            00000  8469  2                        LA    R1,RTNNAME
 DROP   RTNENTRY,R6                 8470  2                        DROP  R6
 0000B6                             8477  1                      END
 0000B6 7034/47F0 7038 000B6 000AA  8481  1                      ELSE  BEGIN               IF NO RTNPTR, RETURN R15=NZ
 0000BA 41F0 0004            00004  8492  2                        LA    R15,4
 0000BE                             8493  1                      END
 0000BE                             8497                       END
                                    8501
 0000BE 5018 0008            00008  8502                       PRETURN (R1)
 0000C2 18D8/9808 D004_             8504                       PEND
 DROP   *,R7
1FUNC     (FUNC2193) (12:45) (15MAR04) ENTRY/EXIT Routines for System Vars/Functions                                        Page   27
0Current Usings:  (CP,R11) (CV,R12)
0Loc    Object Code    Addr1 Addr2  Stmt Lv Lineno    Source Statement           (Hibal 5, Asmedit 3.3)  HLASM R4.0  2004/03/15 12.45
+___    ______ ____    _____ _____  ____ __ ______    ______ _________
0                                   8525              ¿þþþþþþþþþþþþþþþþþþþþþþþþþþþþþþþþþþþþþþþþþþþþþþþþþþþþþþþþþþþþþþþþþþþþþÜ
                                    8526              Ÿ                                                                     Ÿ
                                    8527              Ÿ                                                                     Ÿ
                                    8528              Ÿ  SETARGS - CHECK FUNCTION ARGUMENTS                                 Ÿ
                                    8529              Ÿ                                                                     Ÿ
                                    8530              Ÿ  ON ENTRY:                                                          Ÿ
                                    8531              Ÿ       R0 - NUMBER OF ARGUMENTS                                      Ÿ
                                    8532              Ÿ       R1 - ADDRESS OF ARGUMENTS                                     Ÿ
                                    8533              Ÿ       R2 - TYPE LIST, AS FOLLOWS                                    Ÿ
                                    8534              Ÿ            1 BYTE: MINIMUM NUMBER OF ARGS, 0-9                      Ÿ
                                    8535              Ÿ            1 BYTE: MAXIMUM NUMBER OF ARGS, 0-9                      Ÿ
                                    8536              Ÿ            N BYTES: ARG TYPES                                       Ÿ
                                    8537              Ÿ               S - STRING                                            Ÿ
                                    8538              Ÿ               N - DECIMAL NUMBER                                    Ÿ
                                    8539              Ÿ               I - INTEGER FULLWORD (INTERNAL ONLY)                  Ÿ
                                    8540              Ÿ               W - LINE NUMBER FULLWORD (INTERNAL ONLY)              Ÿ
                                    8541              Ÿ               B - BOOLEAN                                           Ÿ
                                    8542              Ÿ               X - DON'T CARE                                        Ÿ
                                    8543              Ÿ       R6 - VARIABLE ENTRY (CONTAINS FUNCTION/PROC NAME)             Ÿ
                                    8544              Ÿ                                                                     Ÿ
                                    8545              Ÿ  ON EXIT:                                                           Ÿ
                                    8546              Ÿ       R15 - CC=ZERO, IF ALL ARG TYPES SET OK                        Ÿ
                                    8547              Ÿ             CC=NZ, IF ERROR... ERROR MSG IS TSEG'D                  Ÿ
                                    8548              Ÿ                                                                     Ÿ
                                    8549              Ÿ                                                                     Ÿ
                                    8550              Ÿ                                                                     Ÿ
                                                      ¾þþþþþþþþþþþþþþþþþþþþþþþþþþþþþþþþþþþþþþþþþþþþþþþþþþþþþþþþþþþþþþþþþþþþþ»
00000D0 50E0 D000/9008_      00000  8551              SETARGS  XPROC ,
 USING  *,R7
 0000EA 1852                        8591                       LR    R5,R2               R5 - ARG TYPE LIST
                                    8592              * IF TOO FEW ARGS
 0000EC 4335 0000            00000  8593                       IC    R3,0(R5)
 0000F0 5430 7242            0032C  8594                       N     R3,=X'0000000F'
 0000F4 1903/47B0 704C              8595                       IF    (R0,LT,R3),BEGIN    IF TOO FEW ARGS,
 0000FA 4110 728C/4100_      00376  8610  1                      TSEG  'Too few arguments specified for "'
 00010C 1816/4100 0010_             8628  1                      TSEG  (R6),L'VNNAME,T
 00011C 4110 72AD/4100_      00397  8656  1                      TSEG  '". '
 00012E 41F0 0004            00004  8674  1                      LA    R15,4
 000132 47F0 7166            00250  8675  1                      B     SETADONE
 000136                             8676                       END
                                    8680              * IF TOO MANY ARGS
 000136 4335 0001            00001  8681                       IC    R3,1(R5)
 00013A 5430 7242            0032C  8682                       N     R3,=X'0000000F'
 00013E 1903/47D0 7096              8683                       IF    (R0,GT,R3),BEGIN    IF TOO MANY ARGS,
 000144 4110 726A/4100_      00354  8698  1                      TSEG  'Too many arguments specified for "'
 000156 1816/4100 0010_             8716  1                      TSEG  (R6),L'VNNAME,T
 000166 4110 72AD/4100_      00397  8744  1                      TSEG  '". '
 000178 41F0 0004            00004  8762  1                      LA    R15,4
 00017C 47F0 7166            00250  8763  1                      B     SETADONE
 000180                             8764                       END
                                    8768              * LOOP CONVERTING ARGS
 000180 4155 0002            00002  8769                       LA    R5,2(R5)            R5 - ARGUMENT LIST POINTER
 000184 4140 0001            00001  8770                       LA    R4,1                R4 - ARG NUMBER
1FUNC     (FUNC2193) (12:45) (15MAR04) ENTRY/EXIT Routines for System Vars/Functions                                        Page   28
0Current Usings:  (*,R7) (CP,R11) (CV,R12)
0Loc    Object Code    Addr1 Addr2  Stmt Lv Lineno    Source Statement           (Hibal 5, Asmedit 3.3)  HLASM R4.0  2004/03/15 12.45
+___    ______ ____    _____ _____  ____ __ ______    ______ _________
0000188 1940/4730 7154              8771                       WHILE (R4,LE,R0),BEGIN
 00018E 95E2 5000/4770_00000        8788  1                      IF    (@R5,EQ,C'S'),BEGIN      STRING
 000196 1821                        8804  2                        LR    R2,R1
 000198 58E0 724E/0DEE       00338  8805  2                        VCALL MAKESTR
 00019E 4770 715A            00244  8809  2                        IF    NZ,SETABAD
 0001A2                             8823  1                      END
 0001A2 70BC/47F0 70D0_001A2 00194  8827  1                      ELSEIF (@R5,EQ,C'I'),BEGIN     INTEGER
 0001AE 1821                        8852  2                        LR    R2,R1
 0001B0 58E0 7252/0DEE       0033C  8853  2                        VCALL MAKEINT
 0001B6 4770 715A            00244  8857  2                        IF    NZ,SETABAD
 0001BA                             8871  1                      END
 0001BA 70D4/47F0 70E8_001BA 001AC  8875  1                      ELSEIF (@R5,EQ,C'W'),BEGIN      LINE NUMBER
 0001C6 1821                        8900  2                        LR    R2,R1
 0001C8 58E0 7256/0DEE       00340  8901  2                        VCALL MAKELNO
 0001CE 4770 715A            00244  8905  2                        IF    NZ,SETABAD
 0001D2                             8919  1                      END
 0001D2 70EC/47F0 7100_001D2 001C4  8923  1                      ELSEIF (@R5,EQ,C'N'),BEGIN      PACKED DECIMAL
 0001DE 1821                        8948  2                        LR    R2,R1
 0001E0 58E0 725A/0DEE       00344  8949  2                        VCALL MAKENUMB
 0001E6 4770 715A            00244  8953  2                        IF    NZ,SETABAD
 0001EA                             8967  1                      END
 0001EA 7104/47F0 7118_001EA 001DC  8971  1                      ELSEIF (@R5,EQ,C'B'),BEGIN      BOOLEAN
 0001F6 1821                        8996  2                        LR    R2,R1
 0001F8 58E0 725E/0DEE       00348  8997  2                        VCALL MAKEBOOL
 0001FE 4770 715A            00244  9001  2                        IF    NZ,SETABAD
 000202                             9015  1                      END
 000202 711C/47F0 7124_00202 001F4  9019  1                      ELSEIF (@R5,EQ,C'X'),BEGIN      DON'T CARE
 00020E                             9044  1                      END
 00020E 7128/47F0 7144_0020E 0020C  9048  1                      ELSEIF (R0,EQ,R0),BEGIN         ALL OTHERS INVALID
 000218 4110 7206/4100_      002F0  9072  2                        TSEG   'Invalid specification of argument type. '
 00022A 47F0 715A            00244  9090  2                        B     SETABAD
 00022E                             9091  1                      END
 00022E 4155 0001            00001  9095  1                      LA    R5,1(R5)            BUMP TYPE LIST POINTER
 000232 4144 0001            00001  9096  1                      LA    R4,1(R4)            BUMP ARG COUNT
 000236 4111 0150            00150  9097  1                      LA    R1,L'VPARM(R1)      POINT AT NEXT ARGUMENT
 00023A 47F0 709E            00188  9098                       END
 00023E 1BFF                        9103              SETAGOOD SR    R15,R15             SUCCESS !!!
 000240 47F0 7166            00250  9104                       B     SETADONE
                                    9105
 000244                             9106              SETABAD  LABEL ,
 000244 1824/58E0 7262_             9108                       BADARG (R4)
 00024C 47F0 7166            00250  9117                       B     SETADONE
                                    9118
 000250                             9119              SETADONE LABEL ,
 000250 18D8/9808 D004_             9121                       PEND
 DROP   *,R7
1FUNC     (FUNC2193) (12:45) (15MAR04) ENTRY/EXIT Routines for System Vars/Functions                                        Page   29
0Current Usings:  (CP,R11) (CV,R12)
0Loc    Object Code    Addr1 Addr2  Stmt Lv Lineno    Source Statement           (Hibal 5, Asmedit 3.3)  HLASM R4.0  2004/03/15 12.45
+___    ______ ____    _____ _____  ____ __ ______    ______ _________
0                                   9142              ¿þþþþþþþþþþþþþþþþþþþþþþþþþþþþþþþþþþþþþþþþþþþþþþþþþþþþþþþþþþþþþþþþþþþþþÜ
                                    9143              Ÿ                                                                     Ÿ
                                    9144              Ÿ                                                                     Ÿ
                                    9145              Ÿ  VTRIM - TRIM TRAILING BLANKS FROM A VAR ENTRY                      Ÿ
                                    9146              Ÿ                                                                     Ÿ
                                    9147              Ÿ  ON ENTRY - R6 VARIABLE ENTRY                                       Ÿ
                                    9148              Ÿ                                                                     Ÿ
                                    9149              Ÿ  ROUTINE CALLED VIA VTRIM MACRO, TO TRIM SYSTEM VARIABLES           Ÿ
                                    9150              Ÿ  THAT ARE LEFT JUSTIFIED AND PADDED WITH BLANKS, OR ALL             Ÿ
                                    9151              Ÿ  ZEROS.                                                             Ÿ
                                    9152              Ÿ                                                                     Ÿ
                                    9153              Ÿ                                                                     Ÿ
                                                      ¾þþþþþþþþþþþþþþþþþþþþþþþþþþþþþþþþþþþþþþþþþþþþþþþþþþþþþþþþþþþþþþþþþþþþþ»
000025E 50E0 D000/9008_      00000  9154              VTRIM    XPROC ,
 USING  *,R7
 USING  VNENTRY,R6                  9194                       USING VNENTRY,R6
 000278 4120 6026            00026  9203                       LA    R2,VNSTRLOC         R2 - STRING LOCATION
 00027C 4830 6024            00024  9204                       LH    R3,VNSTRLEN         R3 - STRING LEN
 000280 1B55                        9205                       SR    R5,R5
 000282 0F24                        9206                       CLCL  R2,R4
 000284 4770 701A            00292  9207                       IF    E,BEGIN             IF FIELD IS ALL ZERO,
 000288 1B00                        9218  1                      SR    R0,R0                  RETURN NULL STRING
 00028A 4000 6024            00024  9219  1                      STH   R0,VNSTRLEN
 00028E 47F0 7064            002DC  9220  1                      B     TRIMDONE
 000292                             9221                       END
 000292 4120 6026            00026  9225                       LA    R2,VNSTRLOC
 000296 4830 6024            00024  9226                       LH    R3,VNSTRLEN
 00029A 5850 70D8            00350  9227                       L     R5,=X'40000000'
 00029E 0F24                        9228                       CLCL  R2,R4
 0002A0 4770 7036            002AE  9229                       IF    E,BEGIN             IF FIELD IS ALL BLANKS,
 0002A4 1B00                        9240  1                      SR    R0,R0                  RETURN NULL STRING
 0002A6 4000 6024            00024  9241  1                      STH   R0,VNSTRLEN
 0002AA 47F0 7064            002DC  9242  1                      B     TRIMDONE
 0002AE                             9243                       END
 0002AE 4120 6026            00026  9247                       LA    R2,VNSTRLOC
 0002B2 4830 6024            00024  9248                       LH    R3,VNSTRLEN
 0002B6 1A32                        9249                       AR    R3,R2               R2 - START, R3 - END OF STRING
 0002B8 0630                        9250                       BCTR  R3,0
                                    9251                       COMMENT                   TRIM TRAILING BLANKS
 0002BA 1932/4750 7056_             9252                       WHILE ((R3,GE,R2),AND,(@R3,EQ,' ')),' BCTR R3,0 '
 0002CE 4133 0001            00001  9291                       LA    R3,1(R3)
 0002D2 1B32                        9292                       SR    R3,R2               R3 - LENGTH AFTER TRIMMING
 0002D4 4030 6024            00024  9293                       STH   R3,VNSTRLEN
 0002D8 47F0 7064            002DC  9294                       B     TRIMDONE
 DROP   VNENTRY,R6                  9295                       DROP  R6
                                    9302
 0002DC                             9303              TRIMDONE LABEL ,
 0002DC 1BFF                        9305                       SR    R15,R15
 0002DE 18D8/9808 D004_             9306                       PEND
 DROP   *,R7
                                    9326
                                    9327                       QLTORG
1FUNC     (FUNC2193) (12:45) (15MAR04) ENTRY/EXIT Routines for System Vars/Functions                                        Page   30
0Current Usings:  (CP,R11) (CV,R12)
0Loc    Object Code    Addr1 Addr2  Stmt Lv Lineno    Source Statement           (Hibal 5, Asmedit 3.3)  HLASM R4.0  2004/03/15 12.45
+___    ______ ____    _____ _____  ____ __ ______    ______ _________
0                                   9359              ¿þþþþþþþþþþþþþþþþþþþþþþþþþþþþþþþþþþþþþþþþþþþþþþþþþþþþþþþþþþþþþþþþþþþþþÜ
                                    9360              Ÿ                                                                     Ÿ
                                    9361              Ÿ                                                                     Ÿ
                                    9362              Ÿ  BADARG - TSEG BAD ARGUMENT MESSAGE                                 Ÿ
                                    9363              Ÿ                                                                     Ÿ
                                    9364              Ÿ  ON ENTRY:                                                          Ÿ
                                    9365              Ÿ       R2 - ARGUMENT NUMBER                                          Ÿ
                                    9366              Ÿ       R6 - VAR ENTRY, CONTAINS FUNCTION/PROCEDURE NAME              Ÿ
                                    9367              Ÿ                                                                     Ÿ
                                    9368              Ÿ  ON EXIT:                                                           Ÿ
                                    9369              Ÿ       ERROR MESSAGE IS TSEG'D                                       Ÿ
                                    9370              Ÿ                                                                     Ÿ
                                    9371              Ÿ                                                                     Ÿ
                                    9372              Ÿ                                                                     Ÿ
                                                      ¾þþþþþþþþþþþþþþþþþþþþþþþþþþþþþþþþþþþþþþþþþþþþþþþþþþþþþþþþþþþþþþþþþþþþþ»
000039A 50E0 D000/9008_      00000  9373              BADARG   XPROC ,
 USING  *,R7
 0003B4 D603 B05C B05C_0005C 0005C  9413                       TCCR
 0003D4 4110 70A4/4100_      00458  9475                       TSEG  'Argument #'        ARGUMENT #n OF XYZ IS INVALID.
 0003E6 1812/1B00/41F0_             9493                       TNUM  (R2)
 0003F4 4110 70BC/4100_      00470  9515                       TSEG  ' of "'
 000406 1816/4100 0010_             9533                       TSEG  (R6),L'VNNAME,T
 000416 4110 70AE/4100_      00462  9561                       TSEG  '" is invalid. '
 000428 D207 B886 708C 00886 00440  9579                       MVC   CPERRID,=CL8'BADARG  '    ERRID = 'BADARG'
 00042E 41F0 0004            00004  9580                       LA    R15,4
 000432 18D8/9808 D004_             9581                       PEND  ,
 DROP   *,R7
                                    9601
                                    9602                       QLTORG
1FUNC     (FUNC2193) (12:45) (15MAR04) Table of System Functions                                                            Page   31
0Current Usings:  (CP,R11) (CV,R12)
0Loc    Object Code    Addr1 Addr2  Stmt Lv Lineno    Source Statement           (Hibal 5, Asmedit 3.3)  HLASM R4.0  2004/03/15 12.45
+___    ______ ____    _____ _____  ____ __ ______    ______ _________
0000478                             9623                       DS    0D
                                    9624              ¿þþþþþþþþþþþþþþþþþþþþþþþþþþþþþþþþþþþþþþþþþþþþþþþþþþþþþþþþþþþþþþþþþþþþþÜ
                                    9625              Ÿ                                                                     Ÿ
                                    9626              Ÿ                                                                     Ÿ
                                    9627              Ÿ  SORTED TABLE OF SYSTEM FUNCTIONS                                   Ÿ
                                    9628              Ÿ                                                                     Ÿ
                                    9629              Ÿ  FOR TABLE ENTRIES USE THE FOLLOWING MACRO:                         Ÿ
                                    9630              Ÿ       SYSFN   <FUNCTION NAME>,<ROUTINE>                             Ÿ
                                    9631              Ÿ                                                                     Ÿ
                                    9632              Ÿ                                                                     Ÿ
                                    9633              Ÿ       **** CAUTION !!! ****                                         Ÿ
                                    9634              Ÿ  ENTRIES MUST BE SORTED ALPHABETICALLY BY NAME !!                   Ÿ
                                    9635              Ÿ                                                                     Ÿ
                                    9636              Ÿ                                                                     Ÿ
                                    9637              Ÿ                                                                     Ÿ
                                    9638              Ÿ                                                                     Ÿ
                                                      ¾þþþþþþþþþþþþþþþþþþþþþþþþþþþþþþþþþþþþþþþþþþþþþþþþþþþþþþþþþþþþþþþþþþþþþ»
0                                   9639                       COMMENT                   SYSTEM FUNCTIONS
 000478 C1C2C2D9C5E54040_           9640              SYSFNS   SYSFN   ABBREV,FNABBREV       ALPHABETIZE !
 00048C C1C2E24040404040_           9645                       SYSFN   ABS,FNABS
 0004A0 C1C3C3D6E4D5E36D_           9650                       SYSFN   ACCOUNT_INFO,FNACCTNF
 0004B4 C1D9D9C1E86DE2C5_           9655                       SYSFN   ARRAY_SEARCH,FNASRCH
 0004C8 C1E2C3C9C9404040_           9660                       SYSFN   ASCII,FNASCII         ALPHABETIZE !
 0004DC C2C9E34040404040_           9665                       SYSFN   BIT,FNBITTST
 0004F0 C2C9E3C1D5C44040_           9670                       SYSFN   BITAND,FNBITAND
 000504 C2C9E3D6D9404040_           9675                       SYSFN   BITOR,FNBITOR
 000518 C2C9E3E3C5E2E340_           9680                       SYSFN   BITTEST,FNBITTST
 00052C C2C9E3E7D6D94040_           9685                       SYSFN   BITXOR,FNBITXOR
 000540 C2D6E4D5C4E24040_           9690                       SYSFN   BOUNDS,FNBOUNDS
 000554 C3C5D5E3C5D94040_           9695                       SYSFN   CENTER,FNCENTER
 000568 C3C5D5E3D9C54040_           9700                       SYSFN   CENTRE,FNCENTER
 00057C C3C8C5C3D26DC1C3_           9705                       SYSFN   CHECK_ACCOUNT,FNCHKACC
 000590 C3C8E2E3D9404040_           9710                       SYSFN   CHSTR,FNCHSTR
 0005A4 C3D6D4D7C1D9C540_           9715                       SYSFN   COMPARE,FNCOMP
 0005B8 C3D6D7C9C5E24040_           9720                       SYSFN   COPIES,FNCOPIES
 0005CC C3F2C44040404040_           9725                       SYSFN   C2D,FNC2D
 0005E0 C3F2E74040404040_           9730                       SYSFN   C2X,FNC2X
 0005F4 C4C1E3C1E3E8D7C5_           9735                       SYSFN   DATATYPE,FNDTYPE
 000608 C4C5C3D9E8D7E340_           9740                       SYSFN   DECRYPT,FNDECRYP
 00061C C4C5D3E2E3D94040_           9745                       SYSFN   DELSTR,FNDELSTR
 000630 C4C5D3E6D6D9C440_           9750                       SYSFN   DELWORD,FNDELWRD
 000644 C4C5E2E36DE5C5D9_           9755                       SYSFN   DEST_VERIFY,FNDESTV   ALPHABETIZE !
 000658 C4C9E2D7D3C1E840_           9760                       SYSFN   DISPLAY,FNDISPLY
 00066C C4E2D5C4C5D84040_           9765                       SYSFN   DSNDEQ,FNDSNDEQ
 000680 C4E2D5C5D5D84040_           9770                       SYSFN   DSNENQ,FNDSNENQ
 000694 C4E2D5C6D4E34040_           9775                       SYSFN   DSNFMT,FNDSNFMT
 0006A8 C4E2D5C6D6D9D4C1_           9780                       SYSFN   DSNFORMAT,FNDSNFMT
 0006BC C4E2D5C9D5C6D640_           9785                       SYSFN   DSNINFO,FNDSNINF
 0006D0 C4E2D5D7D9D6E340_           9790                       SYSFN   DSNPROT,FNDPROT       ALPHABETIZE !
 0006E4 C4E2D5E5C5D9C9C6_           9795                       SYSFN   DSNVERIFY,FNDSNVER    ALPHABETIZE !
 0006F8 C4F2C34040404040_           9800                       SYSFN   D2C,FND2C
 00070C C4F2E74040404040_           9805                       SYSFN   D2X,FND2X
 000720 C5C2C3C4C9C34040_           9810                       SYSFN   EBCDIC,FNEBCDIC
1FUNC     (FUNC2193) (12:45) (15MAR04) Table of System Functions                                                            Page   32
0Current Usings:  (CP,R11) (CV,R12)
0Loc    Object Code    Addr1 Addr2  Stmt Lv Lineno    Source Statement           (Hibal 5, Asmedit 3.3)  HLASM R4.0  2004/03/15 12.45
+___    ______ ____    _____ _____  ____ __ ______    ______ _________
0000734 C5D5C3D9E8D7E340_           9815                       SYSFN   ENCRYPT,FNENCRYP
 000748 C6C9D5C440404040_           9820                       SYSFN   FIND,FNFIND
 00075C C6D6D9D4C1E34040_           9825                       SYSFN   FORMAT,FNFORMAT
 000770 C7C5E36DC1C3C3D6_           9830                       SYSFN   GET_ACCOUNT,FNGETACC
 000784 C7C5E36DE4E2C5D9_           9835                       SYSFN   GET_USERID,FNGETID
 000798 C7C5E36DE4E2C5D9_           9840                       SYSFN   GET_USERID_LIST,FNGETIDL
 0007AC C7C5E36DE4E2C5D9_           9845                       SYSFN   GET_USERID_TYPE,FNGETIDT
 0007C0 C7D4E34040404040_           9850                       SYSFN   GMT,FNGETGMT
 0007D4 C8D6E2E36DC9D5C6_           9855                       SYSFN   HOST_INFO,FNHOSTI
 0007E8 C8D6E2E36DE4E2C5_           9860                       SYSFN   HOST_USER,FNHOSTU
 0007FC C9D5C3C8C1D94040_           9865                       SYSFN   INCHAR,FNINCHAR
 000810 C9D5C4C5E7404040_           9870                       SYSFN   INDEX,FNINDEX
 000824 C9D5D7E4E3404040_           9875                       SYSFN   INPUT,FNINPUT
 000838 C9D5E2C5D9E34040_           9880                       SYSFN   INSERT,FNINSERT
 00084C C9D5E34040404040_           9885                       SYSFN   INT,FNINT
 000860 D1E4E2E3C9C6E840_           9890                       SYSFN   JUSTIFY,FNJUST
 000874 D3C1E2E3D7D6E240_           9895                       SYSFN   LASTPOS,FNLPOS
 000888 D3C5C6E340404040_           9900                       SYSFN   LEFT,FNLEFT
 00089C D3C9D5C540404040_           9905                       SYSFN   LINE,FNLINE
 0008B0 D3C9D5C56DC1D7D7_           9910                       SYSFN   LINE_APPEND,FNLNAPND  ALPHABETIZE !
 0008C4 D3C9D5C56DC4C5D3_           9915                       SYSFN   LINE_DELETE,FNLNDEL
 0008D8 D3C9D5C56DD7E4E3_           9920                       SYSFN   LINE_PUT,FNLNPUT
 0008EC D3D5D64040404040_           9925                       SYSFN   LNO,FNLNO
 000900 D3D5D66DC3C8C5C3_           9930                       SYSFN   LNO_CHECK,FNLNCHK     ALPHABETIZE !
 000914 D3D5D66DC5D5C440_           9935                       SYSFN   LNO_END,FNLNEND
 000928 D3D5D66DC6C9C5D3_           9940                       SYSFN   LNO_FIELD,FNLNFLD
 00093C D3D5D66DC6C9D9E2_           9945                       SYSFN   LNO_FIRST,FNLNFRST
 000950 D3D5D66DD3C1E2E3_           9950                       SYSFN   LNO_LAST,FNLNLAST
 000964 D3D5D66DD5C5E7E3_           9955                       SYSFN   LNO_NEXT,FNLNNEXT
 000978 D3D5D66DD7D9C5E5_           9960                       SYSFN   LNO_PREV,FNLNPREV
 00098C D3D6E6C5D9404040_           9965                       SYSFN   LOWER,FNLOWER
 0009A0 D4C1E3C3C8404040_           9970                       SYSFN   MATCH,FNMATCH
 0009B4 D4C1E74040404040_           9975                       SYSFN   MAX,FNMAX
 0009C8 D4C9D54040404040_           9980                       SYSFN   MIN,FNMIN
 0009DC D5C3D6D5E5C5D9E3_           9985                       SYSFN   NCONVERT,FNNCONV
 0009F0 D5C4E4D4D7404040_           9990                       SYSFN   NDUMP,FNNDUMP
 000A04 D5C8C5E740404040_           9995                       SYSFN   NHEX,FNNHEX
 000A18 D5D6D7C1D9C9E3E8_          10000                       SYSFN   NOPARITY,FNNOPAR      ALPHABETIZE !
 000A2C D6D9E5E8D36DC3D7_          10005                       SYSFN   ORVYL_CPU_,FNGORVC
 000A40 D6D9E5E8D36DC9D6_          10010                       SYSFN   ORVYL_IO_,FNGORVI
 000A54 D6E5C5D9D3C1E840_          10015                       SYSFN   OVERLAY,FNOLAY
 000A68 D7C1D9C9E3E84040_          10020                       SYSFN   PARITY,FNPARITY
 000A7C D7D6E24040404040_          10025                       SYSFN   POS,FNPOS
 000A90 D8E2E3C1E3C54040_          10030                       SYSFN   QSTATE,FNQSTATE
 000AA4 D8E4C5D9E8404040_          10035                       SYSFN   QUERY,FNQUERY
 000AB8 D9C5C36DC3D3D6E2_          10040                       SYSFN   REC_CLOSE,FNRECCLS
 000ACC D9C5C36DC3D6E4D5_          10045                       SYSFN   REC_COUNT,FNRECCNT
 000AE0 D9C5C36DC4C5D3C5_          10050                       SYSFN   REC_DELETE,FNRECDEL
 000AF4 D9C5C36DC6C9D9E2_          10055                       SYSFN   REC_FIRSTKEY,FNRECFRK
 000B08 D9C5C36DC7C5E340_          10060                       SYSFN   REC_GET,FNRECGET
 000B1C D9C5C36DD3C1E2E3_          10065                       SYSFN   REC_LASTKEY,FNRECLAK
 000B30 D9C5C36DD5C5E7E3_          10070                       SYSFN   REC_NEXTKEY,FNRECNEK
 000B44 D9C5C36DD6D7C5D5_          10075                       SYSFN   REC_OPEN,FNRECOPN
 000B58 D9C5C36DD7D9C5E5_          10080                       SYSFN   REC_PREVKEY,FNRECPRK
1FUNC     (FUNC2193) (12:45) (15MAR04) Table of System Functions                                                            Page   33
0Current Usings:  (CP,R11) (CV,R12)
0Loc    Object Code    Addr1 Addr2  Stmt Lv Lineno    Source Statement           (Hibal 5, Asmedit 3.3)  HLASM R4.0  2004/03/15 12.45
+___    ______ ____    _____ _____  ____ __ ______    ______ _________
0000B6C D9C5C36DD7E4E340_          10085                       SYSFN   REC_PUT,FNRECPUT
 000B80 D9C5C36DE3C5E2E3_          10090                       SYSFN   REC_TEST,FNRECTST
 000B94 D9C5E5C5D9E2C540_          10095                       SYSFN   REVERSE,FNREV         ALPHABETIZE !
 000BA8 D9C66DC4C5C3D9E8_          10100                       SYSFN   RF_DECRYPT_V8B,FNV8BD
 000BBC D9C66DC4C5E2E36D_          10105                       SYSFN   RF_DEST_CHECK,FNDESTV
 000BD0 D9C66DC5D5C3D9E8_          10110                       SYSFN   RF_ENCRYPT_V8B,FNV8BE
 000BE4 D9C66DD7E66DC3C8_          10115                       SYSFN   RF_PW_CHECK,FNPASSV
 000BF8 D9C66DD7E66DD7D9_          10120                       SYSFN   RF_PW_PROMPT,FNPASSP
 000C0C D9C9C7C8E3404040_          10125                       SYSFN   RIGHT,FNRIGHT         ALPHABETIZE !
 000C20 D9D4C1E3C3C84040_          10130                       SYSFN   RMATCH,FNRMATCH
 000C34 E2C3C1D56DE2D2C9_          10135                       SYSFN   SCAN_SKIP,FNSCANSK
 000C48 E2C3C1D56DE3D6D2_          10140                       SYSFN   SCAN_TOKEN,FNSCANTK
 000C5C E2C3D6D5E5C5D9E3_          10145                       SYSFN   SCONVERT,FNSCONV
 000C70 E2C4E4D4D7404040_          10150                       SYSFN   SDUMP,FNSDUMP
 000C84 E2C8C5E740404040_          10155                       SYSFN   SHEX,FNSHEX
 000C98 E2C9C7D540404040_          10160                       SYSFN   SIGN,FNSIGN
 000CAC E2C9E9C540404040_          10165                       SYSFN   SIZE,FNSIZE           ALPHABETIZE !
 000CC0 E2D7C1C3C5404040_          10170                       SYSFN   SPACE,FNSPACE
 000CD4 E2D8E4C1E2C84040_          10175                       SYSFN   SQUASH,FNSQUASH
 000CE8 E2E3D9C9D7404040_          10180                       SYSFN   STRIP,FNSTRIP
 000CFC E2E4C24040404040_          10185                       SYSFN   SUB,FNSUBSTR          ALPHABETIZE !
 000D10 E2E4C2E2E3D94040_          10190                       SYSFN   SUBSTR,FNSUBSTR       ALPHABETIZE !
 000D24 E2E4C2E2E8E26DE2_          10195                       SYSFN   SUBSYS_START,FNSUBCLK
 000D38 E2E4C2E6D6D9C440_          10200                       SYSFN   SUBWORD,FNSUBWRD
 000D4C E2E8E2E3C5D46DE4_          10205                       SYSFN   SYSTEM_UP,FNSYSUP
 000D60 E3D6C4E3C9D4C540_          10210                       SYSFN   TODTIME,FNTODTIM
 000D74 E3D9C1D5E2D3C1E3_          10215                       SYSFN   TRANSLATE,FNXLATE
 000D88 E3D9E4D5C3404040_          10220                       SYSFN   TRUNC,FNTRUNC
 000D9C E4D7D7C5D9404040_          10225                       SYSFN   UPPER,FNUPPER
 000DB0 E4D9D36DC4C5C3D6_          10230                       SYSFN   URL_DECODE,FNURLDCD
 000DC4 E5C1D9E3E8D7C540_          10235                       SYSFN   VARTYPE,FNVARTYP
 000DD8 E5C5D9C9C6E84040_          10240                       SYSFN   VERIFY,FNVERIFY
 000DEC E6C3D6D5E5C5D9E3_          10245                       SYSFN   WCONVERT,FNWCONV
 000E00 E6C3D6E4D5E34040_          10250                       SYSFN   WCOUNT,FNWCOUNT
 000E14 E6C8C5E740404040_          10255                       SYSFN   WHEX,FNWHEX
 000E28 E6D6D9C440404040_          10260                       SYSFN   WORD,FNWORD           ALPHABETIZE !
 000E3C E6D6D9C4C9D5C4C5_          10265                       SYSFN   WORDINDEX,FNWORDIX
 000E50 E6D6D9C4D3C5D5C7_          10270                       SYSFN   WORDLENGTH,FNWORDLN
 000E64 E6D6D9C4E2404040_          10275                       SYSFN   WORDS,FNWORDS
 000E78 E6E8D3C2E4D96DC3_          10280                       SYSFN   WYLBUR_CPU_,FNGWYLC
 000E8C E6E8D3C2E4D96DC9_          10285                       SYSFN   WYLBUR_IO_,FNGWYLI
 000EA0 E7D9C1D5C7C54040_          10290                       SYSFN   XRANGE,FNXRANGE
 000EB4 E7F2C34040404040_          10295                       SYSFN   X2C,FNX2C
 000EC8 E7F2C44040404040_          10300                       SYSFN   X2D,FNX2D
 000EDC E8C5E2D5D6404040_          10305                       SYSFN   YESNO,FNYESNO         ALPHABETIZE !
 000EF0 E9E9E9C4E4D4D4E8_          10310              SYSFEND  SYSFN   ZZZDUMMY,NULL     END OF SYSTEM TABLE
                                   10315              *                                  END OF SYSTEM TABLE
1FUNC     (FUNC2193) (12:45) (15MAR04) Table of System Functions                                                            Page   34
0Current Usings:  (CP,R11) (CV,R12)
0Loc    Object Code    Addr1 Addr2  Stmt Lv Lineno    Source Statement           (Hibal 5, Asmedit 3.3)  HLASM R4.0  2004/03/15 12.45
+___    ______ ____    _____ _____  ____ __ ______    ______ _________
0                                  10317                       QLTORG
1FUNC     (FUNC2193) (12:45) (15MAR04) System Routines for Functions                                                        Page   35
0Current Usings:  (CP,R11) (CV,R12)
0Loc    Object Code    Addr1 Addr2  Stmt Lv Lineno    Source Statement           (Hibal 5, Asmedit 3.3)  HLASM R4.0  2004/03/15 12.45
+___    ______ ____    _____ _____  ____ __ ______    ______ _________
0                                  10330              ¿þþþþþþþþþþþþþþþþþþþþþþþþþþþþþþþþþþþþþþþþþþþþþþþþþþþþþþþþþþþþþþþþþþþþþÜ
                                   10331              Ÿ                                                                     Ÿ
                                   10332              Ÿ                                                                     Ÿ
                                   10333              Ÿ  SYSTEM FUNCTION, PROCEDURE, AND VARIABLE ROUTINES                  Ÿ
                                   10334              Ÿ                                                                     Ÿ
                                   10335              Ÿ  ****NOTE !!                                                        Ÿ
                                   10336              Ÿ  SEE COMMENTS AT START OF THIS MODULE.                              Ÿ
                                   10337              Ÿ                                                                     Ÿ
                                   10338              Ÿ                                                                     Ÿ
                                   10339              Ÿ  ON ENTRY:                                                          Ÿ
                                   10340              Ÿ       R0 - VARIABLE COUNT                                           Ÿ
                                   10341              Ÿ       R1 - ARGUMENT LIST                                            Ÿ
                                   10342              Ÿ       R6 - FUNCTION/VARIABLE RETURN AREA                            Ÿ
                                   10343              Ÿ            (AREA WILL INITIALLY CONTAIN FUNCTION/PROC/VAR NAME)     Ÿ
                                   10344              Ÿ                                                                     Ÿ
                                   10345              Ÿ                                                                     Ÿ
                                   10346              Ÿ  ON EXIT:                                                           Ÿ
                                   10347              Ÿ       R6 - RETURNED VALUE (SAME AS ON ENTRY)                        Ÿ
                                   10348              Ÿ      R15 - CC=ZERO, ALL OK                                          Ÿ
                                   10349              Ÿ            CC=NZ, IF ERROR,,, ERROR MSG TSEG 'D                     Ÿ
                                   10350              Ÿ                                                                     Ÿ
                                   10351              Ÿ                                                                     Ÿ
                                   10352              Ÿ                                                                     Ÿ
                                                      ¾þþþþþþþþþþþþþþþþþþþþþþþþþþþþþþþþþþþþþþþþþþþþþþþþþþþþþþþþþþþþþþþþþþþþþ»
0                                  10353              ARG1     EQU   0*L'VPARM           USUALLY @R1
                                   10354              ARG2     EQU   1*L'VPARM
                                   10355              ARG3     EQU   2*L'VPARM
                                   10356              ARG4     EQU   3*L'VPARM
                                   10357              ARG5     EQU   4*L'VPARM
                                   10358              ARG6     EQU   5*L'VPARM
                                   10359              ARG7     EQU   6*L'VPARM
                                   10360              ARG8     EQU   7*L'VPARM
                                   10361
                                   10362              FNRET    EQU   0*L'VPARM           USUALLY @R6
                                   10363              *
                                   10364              *
 000000                00000 00150 10365              FNWA     RECORD BEGIN ,            GENERALIZED WORK AREA !
 000000                            10373  1           FNWORK     DS    XL(L'VPARM)         256+ BYTE WORK AREA
 000150                00150 00150 10374                       END
                                   10383              *
                                   10384              *
                                   10385              **************** ROUTINES FOLLOW BELOW !!
                                   10386              ¿þþþþþþþþþþþþþþþþþþþþþþþþþþþþþþþþþþþþþþþþþþþþþþþþþþþþþþþþþþþþþþþþþþþþþÜ
                                   10387              Ÿ                                                                     Ÿ
                                   10388              Ÿ  FNINV -- Generic error message.                                    Ÿ
                                   10389              Ÿ                                                                     Ÿ
                                                      ¾þþþþþþþþþþþþþþþþþþþþþþþþþþþþþþþþþþþþþþþþþþþþþþþþþþþþþþþþþþþþþþþþþþþþþ»
0000F08 50E0 D000/9008_      00000 10390              FNINV    PROC
 USING  *,R7
 000F22 4110 75BE/4100_      014E0 10429                       TSEG  'Invalid variable or function name.',,CR
                                   10447
 000F34 41F0 0004            00004 10448                       LA    R15,4               Error
1FUNC     (FUNC2193) (12:45) (15MAR04) System Routines for Functions                                                        Page   36
0Current Usings:  (CP,R11) (CV,R12)
0Loc    Object Code    Addr1 Addr2  Stmt Lv Lineno    Source Statement           (Hibal 5, Asmedit 3.3)  HLASM R4.0  2004/03/15 12.45
+___    ______ ____    _____ _____  ____ __ ______    ______ _________
0000F38 18D8/9808 D004_            10449                       PEND
 DROP   *,R7
1FUNC     (FUNC2193) (12:45) (15MAR04) System Routines for Functions                                                        Page   37
0Current Usings:  (CP,R11) (CV,R12)
0Loc    Object Code    Addr1 Addr2  Stmt Lv Lineno    Source Statement           (Hibal 5, Asmedit 3.3)  HLASM R4.0  2004/03/15 12.45
+___    ______ ____    _____ _____  ____ __ ______    ______ _________
0                                  10470              ¿þþþþþþþþþþþþþþþþþþþþþþþþþþþþþþþþþþþþþþþþþþþþþþþþþþþþþþþþþþþþþþþþþþþþþÜ
                                   10471              Ÿ                                                                     Ÿ
                                   10472              Ÿ  ABBREV -- ABBREV Function.                                         Ÿ
                                   10473              Ÿ                                                                     Ÿ
                                   10474              Ÿ    ABBREV(info-string,match-string[,length])                        Ÿ
                                   10475              Ÿ                                                                     Ÿ
                                                      ¾þþþþþþþþþþþþþþþþþþþþþþþþþþþþþþþþþþþþþþþþþþþþþþþþþþþþþþþþþþþþþþþþþþþþþ»
0000F46 50E0 D000/9008_      00000 10476              FNABBREV PROC  ,
 USING  *,R7
 000F60 4120 75A4/58E0_      01504 10515                       SETARGS '23SSI'           2-3 args: string, string, integer
 000F6A 4770 70A2            01002 10521                       IF    Z,BEGIN             Ok...
 USING  VNENTRY,R5                 10532  1                      WITH  (VNENTRY,R5)
                                   10545  1                      ¿þþþþþþþþþþþþþþþþþþþþþþþþþþþþþþþÜ
                                   10546  1                      Ÿ  Arg#1:  information string.  Ÿ
                                   10547  1                      ¾þþþþþþþþþþþþþþþþþþþþþþþþþþþþþþþ»
 000F6E 4151 0000            00000 10548  1                      LA    R5,ARG1(R1)
 000F72 4120 5026            00026 10549  1                      LA    R2,VNSTRLOC         R2,R3 - information str len, loc
 000F76 4830 5024            00024 10550  1                      LH    R3,VNSTRLEN
                                   10551  1                      ¿þþþþþþþþþþþþþþþþþþþþþþþþþþþþþþþþþþþþþþþþÜ
                                   10552  1                      Ÿ  Arg#2:  possibly abbreviated string.  Ÿ
                                   10553  1                      ¾þþþþþþþþþþþþþþþþþþþþþþþþþþþþþþþþþþþþþþþþ»
 000F7A 4151 0150            00150 10554  1                      LA    R5,ARG2(R1)
 000F7E 41E0 5026            00026 10555  1                      LA    R14,VNSTRLOC        R14,R15 - token string
 000F82 48F0 5024            00024 10556  1                      LH    R15,VNSTRLEN
                                   10557  1                      ¿þþþþþþþþþþþþþþþþþþþþþþþþþþÜ
                                   10558  1                      Ÿ  Arg#3: minimum length.  Ÿ
                                   10559  1                      ¾þþþþþþþþþþþþþþþþþþþþþþþþþþ»
 000F86 5900 7530/4750_      01490 10560  1                      IF    (R0,GE,3),BEGIN     Minimum length...
 000F8E 4151 02A0            002A0 10577  2                        LA    R5,ARG3(R1)
 000F92 5840 5024            00024 10578  2                        L     R4,VNVALUE
 000F96 1244/4740 7044_            10579  2                        IF    ((R4,NEG),OR,(R4,GT,MAXSTRLN)),BEGIN
 000FA4 4120 0003/58E0_      00003 10609  3                          BADARG 3
 000FAE 47F0 70A2            01002 10620  3                          EXIT  FNABBREV
 000FB2                            10623  2                        END
 000FB2 19F4/47B0 7070             10627  2                        IF    (R15,LT,R4),BEGIN   Token is too small...
 000FB8 D74F 6000 6000_00000 00000 10642  3                          VRETURN BOOLEAN,FALSE     No match
 USING  VNENTRY,R6
 DROP   VNENTRY,R6
 000FCA 1BFF                       10681  3                          CLEAR R15                 Set RC
 000FCC 47F0 70A2            01002 10685  3                          EXIT  FNABBREV            Scram
 000FD0                            10688  2                        END
 000FD0                            10692  1                      END
                                   10696  1                      ¿þþþþþþþþþþþþþþþþþþþþþþþþþþþþþþþþþþþþþþþþþÜ
                                   10697  1                      Ÿ  Compare to see if valid abbreviation.  Ÿ
                                   10698  1                      ¾þþþþþþþþþþþþþþþþþþþþþþþþþþþþþþþþþþþþþþþþþ»
 000FD0 183F                       10699  1                      LR    R3,R15
 000FD2 0FE2                       10700  1                      CLCL  R14,R2              Valid abbreviation?
 000FD4 4770 708A/D74F_      00FEA 10701  1                      IF    EQ,'VRETURN BOOLEAN,TRUE'
 USING  VNENTRY,R6
 DROP   VNENTRY,R6
 000FEA 708E/47F0 70A0_00FEA 00FD6 10756  1                      ELSE  'VRETURN BOOLEAN,FALSE'
 USING  VNENTRY,R6
 DROP   VNENTRY,R6
1FUNC     (FUNC2193) (12:45) (15MAR04) System Routines for Functions                                                        Page   38
0Current Usings:  (VNENTRY,R5) (*,R7) (CP,R11) (CV,R12)
0Loc    Object Code    Addr1 Addr2  Stmt Lv Lineno    Source Statement           (Hibal 5, Asmedit 3.3)  HLASM R4.0  2004/03/15 12.45
+___    ______ ____    _____ _____  ____ __ ______    ______ _________
0                                  10811  1
 001000 1BFF                       10812  1                      CLEAR R15                 A-Ok
 DROP   VNENTRY,R5                 10816                       END
                                   10825
 001002 18D8/9808 D004_            10826                       PEND
 DROP   *,R7
1FUNC     (FUNC2193) (12:45) (15MAR04) System Routines for Functions                                                        Page   39
0Current Usings:  (CP,R11) (CV,R12)
0Loc    Object Code    Addr1 Addr2  Stmt Lv Lineno    Source Statement           (Hibal 5, Asmedit 3.3)  HLASM R4.0  2004/03/15 12.45
+___    ______ ____    _____ _____  ____ __ ______    ______ _________
0                                  10847              ¿þþþþþþþþþþþþþþþþþþþþþþþþþþþþþþþþþþþþþþþþþþþþþþþþþþþþþþþþþþþþþþþþþþþþþÜ
                                   10848              Ÿ                                                                     Ÿ
                                   10849              Ÿ  ABS Function.                                                      Ÿ
                                   10850              Ÿ                                                                     Ÿ
                                   10851              Ÿ    ABS(number)                                                      Ÿ
                                   10852              Ÿ                                                                     Ÿ
                                                      ¾þþþþþþþþþþþþþþþþþþþþþþþþþþþþþþþþþþþþþþþþþþþþþþþþþþþþþþþþþþþþþþþþþþþþþ»
0001010 50E0 D000/9008_      00000 10853              FNABS    PROC  ,
 USING  *,R7
 00102A 4120 74DF/58E0_      01509 10892                       SETARGS '11N'             1 arg: number
 001034 4770 702A            01054 10898                       IF    Z,BEGIN             OK...
 001038 4151 0000            00000 10909  1                      LA    R5,ARG1(R1)
                                   10910  1                      ¿þþþþþþþþþþþþþþþþþþþþþþþþþþÜ
                                   10911  1                      Ÿ  Return absolute value.  Ÿ
                                   10912  1                      ¾þþþþþþþþþþþþþþþþþþþþþþþþþþ»
 USING  VNENTRY,R6                 10913  1                      WITH  (VNENTRY,R6),BEGIN
 00103C D74F 6000 6000 00000 00000 10927  2                        CLEAR VNENTRY
 001042 9202 6020      00020       10934  2                        SET   VNNUMB
 001046 D20B 6024 5024 00024 00024 10940  2                        MVC   VNVALUE,VNVALUE-VNENTRY(R5)  Copy number
 00104C 94F0 602F      0002F       10941  2                        NI    VNVALUE+L'VNVALUE-1,X'F0'
 001050 960C 602F      0002F       10942  2                        OI    VNVALUE+L'VNVALUE-1,X'0C'  Set pos
 DROP   VNENTRY,R6                 10943  1                      END
 001054                            10951                       END
                                   10955
 001054 18D8/9808 D004_            10956                       PEND
 DROP   *,R7
1FUNC     (FUNC2193) (12:45) (15MAR04) System Routines for Functions                                                        Page   40
0Current Usings:  (CP,R11) (CV,R12)
0Loc    Object Code    Addr1 Addr2  Stmt Lv Lineno    Source Statement           (Hibal 5, Asmedit 3.3)  HLASM R4.0  2004/03/15 12.45
+___    ______ ____    _____ _____  ____ __ ______    ______ _________
0                                  10977              *
                                   10978              * ACCOUNT_INFO -- RETURN KEYWORD FILE INFO
                                   10979              *
                                   10980              * ACCOUNT_INFO('gg.uuu','FIELD_NAME')
                                   10981              *
                                   10982              *
                                   10983              * SEE COMMENTS AT START OF MODULE.
                                   10984              *
 000000                00000 00208 10985              ANFWA    RECORD BEGIN
 000000                            10993  1           ANFKEYLC   DS    F
 000004                            10994  1           ANFKEYLN   DS    F
 000008                            10995  1           ANFFLDLC   DS    F
 00000C                            10996  1           ANFFLDLN   DS    F
 000010                            10997  1           ANFKWR     DS    XL(L'KWR)
 000208                00208 00208 10998                       END
                                   11007              *
                                   11008              *
 001062 50E0 D000/9008_      00000 11009              FNACCTNF PROC  ANFWA
 USING  *,R7
 USING  ANFWA-(4+36),R8
 00107C 4140 8038            00010 11059                       LA    R4,ANFKWR
 USING  KWR,R4                     11060                       USING KWR,R4
                                   11069
 001080 4120 7438/58E0_      014B4 11070                       SETARGS '22SS'
                                   11076
                                   11077                       COMMENT                   GET ARGS
 00108A 4770 71A4            01220 11078                       IF    Z,BEGIN
 USING  VNENTRY,R5                 11089  1                      USING VNENTRY,R5
 00108E 4151 0000            00000 11098  1                      LA    R5,ARG1(R1)
 001092 4120 5026            00026 11099  1                      LA    R2,VNSTRLOC
 001096 5020 8028            00000 11100  1                      ST    R2,ANFKEYLC
 00109A 4830 5024            00024 11101  1                      LH    R3,VNSTRLEN
 00109E 5030 802C            00004 11102  1                      ST    R3,ANFKEYLN
 0010A2 4151 0150            00150 11103  1                      LA    R5,ARG2(R1)
 0010A6 4120 5026            00026 11104  1                      LA    R2,VNSTRLOC
 0010AA 5020 8030            00008 11105  1                      ST    R2,ANFFLDLC
 0010AE 4830 5024            00024 11106  1                      LH    R3,VNSTRLEN
 0010B2 5030 8034            0000C 11107  1                      ST    R3,ANFFLDLN
 DROP   VNENTRY,R5                 11108  1                      DROP  R5
                                   11115  1
                                   11116  1                      COMMENT                   CONVERT ARGS TO UPPER CASE
 0010B6 5820 C8A8            008A8 11117  1                      L     R2,CVUPPTBL
 0010BA 5810 8028            00000 11118  1                      L     R1,ANFKEYLC
 0010BE 5830 802C            00004 11119  1                      L     R3,ANFKEYLN
 0010C2 0630/4430 74C8_            11120  1                      DEX   R3,' TR @R1(0),@R2 '
 0010C8 5810 8030            00008 11139  1                      L     R1,ANFFLDLC
 0010CC 5830 8034            0000C 11140  1                      L     R3,ANFFLDLN
 0010D0 0630/4430 74CE_            11141  1                      DEX   R3,' TR @R1(0),@R2 '
                                   11160  1
                                   11161  1                      COMMENT                   GET AND VERIFY KEY,,,
 0010D6 5810 8028            00000 11162  1                      L     R1,ANFKEYLC
 0010DA 5800 802C            00004 11163  1                      L     R0,ANFKEYLN
 0010DE 5900 743C/4770_      014B8 11164  1                      IF    ((R0,NE,6),OR,(@R1+2,NE,'.')),BEGIN
 0010EE 4110 7490/4100_      0150C 11196  2                        TSEG  'Invalid account specified. ',,CR
1FUNC     (FUNC2193) (12:45) (15MAR04) System Routines for Functions                                                        Page   41
0Current Usings:  (KWR,R4) (*,R7) (ANFWA-(4+36),R8) (CP,R11) (CV,R12)
0Loc    Object Code    Addr1 Addr2  Stmt Lv Lineno    Source Statement           (Hibal 5, Asmedit 3.3)  HLASM R4.0  2004/03/15 12.45
+___    ______ ____    _____ _____  ____ __ ______    ______ _________
0001100 4120 0001/58E0_      00001 11214  2                        BADARG 1
 00110A 1B00                       11225  2                        CLEAR R0
 00110C 47F0 71DC            01258 11229  2                        EXIT  FNACCTNF
 001110                            11232  1                      END
 001110 7098/47F0 71A4 01110 010EC 11236  1                      ELSE  BEGIN
 001114 D7FF 4000 4000_00000 00000 11247  2                        CLEAR KWR
 001120 D201 4003 1000 00003 00000 11255  2                        MVC   KWRGRP,@R1
 001126 D202 4000 1003 00000 00003 11256  2                        MVC   KWRUSER,@R1+3
 00112C 1814/4100 0040_            11257  2                        KREAD KWR
 001138 9180 400E/4710_0000E       11270  2                        IF    ~KWRIFL.KWRIFVAL,BEGIN  IF NO KWD RECORD,,,
 001140 4110 73EC/4100_      01468 11286  3                          TSEG  'Account does not exist. ',,CR
 001152 D207 B886 7404 00886 01480 11304  3                          MVC   CPERRID,=CL8'NOINFO  '
 001158 41F0 0004            00004 11305  3                          LA    R15,4
 00115C 1B00                       11306  3                          CLEAR R0
 00115E                            11310  2                        END
 00115E 70E6/47F0 71A4 0115E 0113E 11314  2                        ELSE  BEGIN               GOT VALID KWD RECORD
 001162 5810 8030            00008 11325  3                          L     R1,ANFFLDLC
 001166 5800 8034            0000C 11326  3                          L     R0,ANFFLDLN
                                   11327  3
 00116A 5900 7444/4770_      014C0 11328  3                          IF    ((R0,EQ,9),AND,(@R1,EQ,'USER_NAME')),BEGIN
 00117C 4110 4078/4100_      00078 11360  4                            SETMSG KWRNAME             GET NAME, TRIM TRAILING BLANKS,,
 001184 1831                       11374  4                            LR    R3,R1
 001186 1A30                       11375  4                            AR    R3,R0
 001188 0630                       11376  4                            DECR  R3
 00118A 1931/4750 712A_            11378  4                            WHILE ((R3,GE,R1),AND,((@R3,EQ,' '),OR,(@R3,EQ,X'00'))),BEGIN
 0011A0 0630                       11425  5                              DECR  R3
 0011A2 47F0 710E            0118A 11427  4                            END
 0011A6 5E30 7448            014C4 11432  4                            INCR  R3
 0011AA 1803                       11435  4                            LR    R0,R3
 0011AC 1B01                       11436  4                            SR    R0,R1
 0011AE 1BFF                       11437  4                            CLEAR R15
 0011B0                            11441  3                          END
                                   11445  3
 0011B0 7138/7138/47F0_011B0 01170 11446  3                          ELSEIF ((R0,EQ,12),AND,(@R1,EQ,'MAIL_MESSAGE')),BEGIN
 0011C6 4110 4102/4100_      00102 11489  4                            SETMSG KWRMTXT             Mail message text
 0011CE 1831                       11503  4                            LR    R3,R1
 0011D0 1A30                       11504  4                            AR    R3,R0
 0011D2 0630                       11505  4                            DECR  R3
 0011D4 1931/4750 7174_            11507  4                            WHILE ((R3,GE,R1),AND,((@R3,EQ,' '),OR,(@R3,EQ,X'00'))),BEGIN
 0011EA 0630                       11554  5                              DECR  R3
 0011EC 47F0 7158            011D4 11556  4                            END
 0011F0 5E30 7448            014C4 11561  4                            INCR  R3
 0011F4 1803                       11564  4                            LR    R0,R3
 0011F6 1B01                       11565  4                            SR    R0,R1
 0011F8 1BFF                       11566  4                            CLEAR R15
 0011FA                            11570  3                          END
                                   11574  3
 0011FA 7182/7182/47F0_011FA 011BA 11575  3                          ELSE  BEGIN
 0011FE 4110 74B4/4100_      01530 11588  4                            TSEG  'Invalid request. ',,CR
 001210 4120 0002/58E0_      00002 11606  4                            BADARG 2
 00121A 1B00                       11617  4                            CLEAR R0
 00121C 47F0 71DC            01258 11621  4                            EXIT FNACCTNF
 001220                            11624  3                          END
 001220                            11628  2                        END
1FUNC     (FUNC2193) (12:45) (15MAR04) System Routines for Functions                                                        Page   42
0Current Usings:  (KWR,R4) (*,R7) (ANFWA-(4+36),R8) (CP,R11) (CV,R12)
0Loc    Object Code    Addr1 Addr2  Stmt Lv Lineno    Source Statement           (Hibal 5, Asmedit 3.3)  HLASM R4.0  2004/03/15 12.45
+___    ______ ____    _____ _____  ____ __ ______    ______ _________
0001220                            11632  1                      END
 001220                            11636                       END
                                   11640
                                   11641                       COMMENT                   GOT INFO, RETURN IT
 001220 50F0 D000/41D0_      00000 11642                       XPUSH R15
 001228 D74F 6000 6000_00000 00000 11645                       VRETURN STRING,(R1),(R0)
 USING  VNENTRY,R6
 DROP   VNENTRY,R6
 001244 4BD0 7486/58F0_      01502 11729                       XPOP  R15
 00124C D7FF 4000 4000_00000 00000 11732                       CLEAR KWR                 DON'T CLR UNTIL INFO IS RETURNED
 001258 18D8/9808 D004_            11740                       PEND
 DROP   ANFWA-(4+36),R8
 DROP   *,R7
 DROP   KWR,R4                     11765                       DROP  R4
1FUNC     (FUNC2193) (12:45) (15MAR04) System Routines for Functions                                                        Page   43
0Current Usings:  (CP,R11) (CV,R12)
0Loc    Object Code    Addr1 Addr2  Stmt Lv Lineno    Source Statement           (Hibal 5, Asmedit 3.3)  HLASM R4.0  2004/03/15 12.45
+___    ______ ____    _____ _____  ____ __ ______    ______ _________
0                                  11773              ¿þþþþþþþþþþþþþþþþþþþþþþþþþþþþþþþþþþþþþþþþþþþþþþþþþþþþþþþþþþþþþþþþþþþþþÜ
                                   11774              Ÿ                                                                     Ÿ
                                   11775              Ÿ                                                                     Ÿ
                                   11776              Ÿ  ASCII                                                              Ÿ
                                   11777              Ÿ                                                                     Ÿ
                                   11778              Ÿ  SEE COMMENTS AT START OF THIS MODULE                               Ÿ
                                   11779              Ÿ                                                                     Ÿ
                                                      ¾þþþþþþþþþþþþþþþþþþþþþþþþþþþþþþþþþþþþþþþþþþþþþþþþþþþþþþþþþþþþþþþþþþþþþ»
0001266 50E0 D000/9008_      00000 11780              FNASCII  PROC  ,
 USING  *,R7
 001280 4120 72C1/58E0_      01541 11819                       SETARGS '11S'             1 ARG: STRING
 00128A 4770 703C            012BC 11825                       IF    Z,BEGIN
 USING  VNENTRY,R5                 11836  1                      USING VNENTRY,R5
 00128E 4151 0000            00000 11845  1                      LA    R5,ARG1(R1)
 001292 4110 5026            00026 11846  1                      LA    R1,VNSTRLOC         R1 - STRING LOC
 001296 4820 5024            00024 11847  1                      LH    R2,VNSTRLEN         R2 - STRING LEN
 DROP   VNENTRY,R5                 11848  1                      DROP  R5
 USING  VNENTRY,R6                 11855  1                      USING VNENTRY,R6
 00129A D74F 6000 6000 00000 00000 11864  1                      CLEAR VNENTRY
 0012A0 9201 6020      00020       11871  1                      SET   VNSTRING
 0012A4 4020 6024            00024 11877  1                      STH   R2,VNSTRLEN
 0012A8 1222/47D0 703C             11878  1                      IF    (R2,POS),BEGIN
 0012AE 0620/4420 72D6_            11892  2                        DEX   R2,' MVC VNSTRLOC(0),0(R1) '  MOVE STRING TO RET AREA
 0012B4 5840 C8B0            008B0 11911  2                        L     R4,CVASCTBL
 0012B8 4420 72DC/DC00_      0155C 11912  2                        EX    R2,' TR VNSTRLOC(0),0(R4) '   CONVERT IT
 0012BC                            11928  1                      END
 DROP   VNENTRY,R6                 11932  1                      DROP  R6
 0012BC                            11939                       END
 0012BC 18D8/9808 D004_            11943                       PEND
 DROP   *,R7
1FUNC     (FUNC2193) (12:45) (15MAR04) System Routines for Functions                                                        Page   44
0Current Usings:  (CP,R11) (CV,R12)
0Loc    Object Code    Addr1 Addr2  Stmt Lv Lineno    Source Statement           (Hibal 5, Asmedit 3.3)  HLASM R4.0  2004/03/15 12.45
+___    ______ ____    _____ _____  ____ __ ______    ______ _________
0                                  11964              ¿þþþþþþþþþþþþþþþþþþþþþþþþþþþþþþþþþþþþþþþþþþþþþþþþþþþþþþþþþþþþþþþþþþþþþÜ
                                   11965              Ÿ                                                                     Ÿ
                                   11966              Ÿ                                                                     Ÿ
                                   11967              Ÿ  BITAND                                                             Ÿ
                                   11968              Ÿ                                                                     Ÿ
                                   11969              Ÿ  SEE COMMENTS AT START OF THIS MODULE                               Ÿ
                                   11970              Ÿ                                                                     Ÿ
                                                      ¾þþþþþþþþþþþþþþþþþþþþþþþþþþþþþþþþþþþþþþþþþþþþþþþþþþþþþþþþþþþþþþþþþþþþþ»
00012CA 50E0 D000/9008_      00000 11971              FNBITAND PROC  ,
 USING  *,R7
 0012E4 4120 71F4/58E0_      014D8 12010                       SETARGS '22II'            2 ARGS: INTEGER, INTEGER
 0012EE 4770 703A            0131E 12016                       IF    Z,BEGIN
 USING  VNENTRY,R5                 12027  1                      USING VNENTRY,R5
 0012F2 4151 0000            00000 12036  1                      LA    R5,ARG1(R1)
 0012F6 5820 5024            00024 12037  1                      L     R2,VNVALUE          R2 - 1ST NUMBER
 0012FA 4151 0150            00150 12038  1                      LA    R5,ARG2(R1)
 0012FE 5830 5024            00024 12039  1                      L     R3,VNVALUE          R3 - 2ND NUMBER
 DROP   VNENTRY,R5                 12040  1                      DROP  R5
 001302 1423                       12047  1                      NR    R2,R3               AND BITS
 001304 D74F 6000 6000_00000 00000 12048  1                      VRETURN INTEGER,(R2)
 USING  VNENTRY,R6
 DROP   VNENTRY,R6
 00131E                            12095                       END
 00131E 18D8/9808 D004_            12099                       PEND
 DROP   *,R7
1FUNC     (FUNC2193) (12:45) (15MAR04) System Routines for Functions                                                        Page   45
0Current Usings:  (CP,R11) (CV,R12)
0Loc    Object Code    Addr1 Addr2  Stmt Lv Lineno    Source Statement           (Hibal 5, Asmedit 3.3)  HLASM R4.0  2004/03/15 12.45
+___    ______ ____    _____ _____  ____ __ ______    ______ _________
0                                  12120              ¿þþþþþþþþþþþþþþþþþþþþþþþþþþþþþþþþþþþþþþþþþþþþþþþþþþþþþþþþþþþþþþþþþþþþþÜ
                                   12121              Ÿ                                                                     Ÿ
                                   12122              Ÿ                                                                     Ÿ
                                   12123              Ÿ  BITOR                                                              Ÿ
                                   12124              Ÿ                                                                     Ÿ
                                   12125              Ÿ  SEE COMMENTS AT START OF THIS MODULE                               Ÿ
                                   12126              Ÿ                                                                     Ÿ
                                                      ¾þþþþþþþþþþþþþþþþþþþþþþþþþþþþþþþþþþþþþþþþþþþþþþþþþþþþþþþþþþþþþþþþþþþþþ»
000132C 50E0 D000/9008_      00000 12127              FNBITOR  PROC  ,
 USING  *,R7
 001346 4120 7192/58E0_      014D8 12166                       SETARGS '22II'            2 ARGS: INTEGER, INTEGER
 001350 4770 703A            01380 12172                       IF    Z,BEGIN
 USING  VNENTRY,R5                 12183  1                      USING VNENTRY,R5
 001354 4151 0000            00000 12192  1                      LA    R5,ARG1(R1)
 001358 5820 5024            00024 12193  1                      L     R2,VNVALUE          R2 - 1ST NUMBER
 00135C 4151 0150            00150 12194  1                      LA    R5,ARG2(R1)
 001360 5830 5024            00024 12195  1                      L     R3,VNVALUE          R3 - 2ND NUMBER
 DROP   VNENTRY,R5                 12196  1                      DROP  R5
 001364 1623                       12203  1                      OR    R2,R3               OR BITS
 001366 D74F 6000 6000_00000 00000 12204  1                      VRETURN INTEGER,(R2)
 USING  VNENTRY,R6
 DROP   VNENTRY,R6
 001380                            12251                       END
 001380 18D8/9808 D004_            12255                       PEND
 DROP   *,R7
1FUNC     (FUNC2193) (12:45) (15MAR04) System Routines for Functions                                                        Page   46
0Current Usings:  (CP,R11) (CV,R12)
0Loc    Object Code    Addr1 Addr2  Stmt Lv Lineno    Source Statement           (Hibal 5, Asmedit 3.3)  HLASM R4.0  2004/03/15 12.45
+___    ______ ____    _____ _____  ____ __ ______    ______ _________
0                                  12276              ¿þþþþþþþþþþþþþþþþþþþþþþþþþþþþþþþþþþþþþþþþþþþþþþþþþþþþþþþþþþþþþþþþþþþþþÜ
                                   12277              Ÿ                                                                     Ÿ
                                   12278              Ÿ                                                                     Ÿ
                                   12279              Ÿ  BITTEST                                                            Ÿ
                                   12280              Ÿ                                                                     Ÿ
                                   12281              Ÿ  SEE COMMENTS AT START OF THIS MODULE                               Ÿ
                                   12282              Ÿ                                                                     Ÿ
                                                      ¾þþþþþþþþþþþþþþþþþþþþþþþþþþþþþþþþþþþþþþþþþþþþþþþþþþþþþþþþþþþþþþþþþþþþþ»
000138E 50E0 D000/9008_      00000 12283              FNBITTST PROC  ,
 USING  *,R7
 0013A8 4120 7130/58E0_      014D8 12322                       SETARGS '22II'
 0013B2 4770 704E            013F6 12328                       IF    Z,BEGIN
 USING  VNENTRY,R5                 12339  1                      USING VNENTRY,R5
 0013B6 4151 0000            00000 12348  1                      LA    R5,ARG1(R1)
 0013BA 5820 5024            00024 12349  1                      L     R2,VNVALUE          R2 - 1ST NUMBER
 0013BE 4151 0150            00150 12350  1                      LA    R5,ARG2(R1)
 0013C2 5830 5024            00024 12351  1                      L     R3,VNVALUE          R3 - 2ND NUMBER (MASK)
 DROP   VNENTRY,R5                 12352  1                      DROP  R5
 0013C6 1423                       12359  1                      NR    R2,R3               TEST BITS
 0013C8 1923                       12360  1                      CR    R2,R3               ARE ALL BITS IN MASK ON ??
 0013CA 4770 7038            013E0 12361  1                      IF    E,BEGIN
 0013CE D74F 6000 6000_00000 00000 12372  2                        VRETURN BOOLEAN,TRUE
 USING  VNENTRY,R6
 DROP   VNENTRY,R6
 0013E0                            12411  1                      END
 0013E0 703C/47F0 704E 013E0 013CC 12415  1                      ELSE  BEGIN
 0013E4 D74F 6000 6000_00000 00000 12426  2                        VRETURN BOOLEAN,FALSE
 USING  VNENTRY,R6
 DROP   VNENTRY,R6
 0013F6                            12465  1                      END
 0013F6                            12469                       END
 0013F6 18D8/9808 D004_            12473                       PEND
 DROP   *,R7
1FUNC     (FUNC2193) (12:45) (15MAR04) System Routines for Functions                                                        Page   47
0Current Usings:  (CP,R11) (CV,R12)
0Loc    Object Code    Addr1 Addr2  Stmt Lv Lineno    Source Statement           (Hibal 5, Asmedit 3.3)  HLASM R4.0  2004/03/15 12.45
+___    ______ ____    _____ _____  ____ __ ______    ______ _________
0                                  12494              ¿þþþþþþþþþþþþþþþþþþþþþþþþþþþþþþþþþþþþþþþþþþþþþþþþþþþþþþþþþþþþþþþþþþþþþÜ
                                   12495              Ÿ                                                                     Ÿ
                                   12496              Ÿ                                                                     Ÿ
                                   12497              Ÿ  BITXOR                                                             Ÿ
                                   12498              Ÿ                                                                     Ÿ
                                   12499              Ÿ  SEE COMMENTS AT START OF THIS MODULE                               Ÿ
                                   12500              Ÿ                                                                     Ÿ
                                                      ¾þþþþþþþþþþþþþþþþþþþþþþþþþþþþþþþþþþþþþþþþþþþþþþþþþþþþþþþþþþþþþþþþþþþþþ»
0001404 50E0 D000/9008_      00000 12501              FNBITXOR PROC  ,
 USING  *,R7
 00141E 4120 70BA/58E0_      014D8 12540                       SETARGS '22II'            2 ARGS: INTEGER, INTEGER
 001428 4770 703A            01458 12546                       IF    Z,BEGIN
 USING  VNENTRY,R5                 12557  1                      USING VNENTRY,R5
 00142C 4151 0000            00000 12566  1                      LA    R5,ARG1(R1)
 001430 5820 5024            00024 12567  1                      L     R2,VNVALUE          R2 - 1ST NUMBER
 001434 4151 0150            00150 12568  1                      LA    R5,ARG2(R1)
 001438 5830 5024            00024 12569  1                      L     R3,VNVALUE          R3 - 2ND NUMBER
 DROP   VNENTRY,R5                 12570  1                      DROP  R5
 00143C 1723                       12577  1                      XR    R2,R3               XOR BITS
 00143E D74F 6000 6000_00000 00000 12578  1                      VRETURN INTEGER,(R2)
 USING  VNENTRY,R6
 DROP   VNENTRY,R6
 001458                            12625                       END
 001458 18D8/9808 D004_            12629                       PEND
 DROP   *,R7
                                   12649
                                   12650                       QLTORG
1FUNC     (FUNC2193) (12:45) (15MAR04) System Routines for Functions                                                        Page   48
0Current Usings:  (CP,R11) (CV,R12)
0Loc    Object Code    Addr1 Addr2  Stmt Lv Lineno    Source Statement           (Hibal 5, Asmedit 3.3)  HLASM R4.0  2004/03/15 12.45
+___    ______ ____    _____ _____  ____ __ ______    ______ _________
0000000                00000 00008 12689              CENWA  RECORD BEGIN
 000000                            12697  1           CENPAD     DS    C                   Pad character
 000002                            12698  1           CENLEADL   DS    H                   Number of leading pad chars
 000004                            12699  1           CENREML    DS    H                   Length of text after leader
 000006                            12700  1           CENTLEN    DS    H                   Total string length
 000008                00008 00008 12701                       END
-                                  12711              ¿þþþþþþþþþþþþþþþþþþþþþþþþþþþþþþþþþþþþþþþþþþþþþþþþþþþþþþþþþþþþþþþþþþþþþÜ
                                   12712              Ÿ                                                                     Ÿ
                                   12713              Ÿ  CENTER -- CENTER Function.                                         Ÿ
                                   12714              Ÿ                                                                     Ÿ
                                   12715              Ÿ    CENTER(string,length[,pad-char])                                 Ÿ
                                   12716              Ÿ                                                                     Ÿ
                                                      ¾þþþþþþþþþþþþþþþþþþþþþþþþþþþþþþþþþþþþþþþþþþþþþþþþþþþþþþþþþþþþþþþþþþþþþ»
0001562 50E0 D000/9008_      00000 12717              FNCENTER PROC  CENWA
 USING  *,R7
 USING  CENWA-(4+36),R8
 00157C D707 8028 8028 00000 00000 12767                       CLEAR CENWA
 001582 9240 8028      00000       12774                       MVI   CENPAD,C' '         Default pad character
                                   12775
 001586 4120 7B34/58E0_      020B0 12776                       SETARGS '23SIS'           2-3 args: string,integer,string
 001590 4770 70E4            01660 12782                       IF    Z,BEGIN             OK...
 USING  VNENTRY,R5                 12793  1                      WITH  (VNENTRY,R5)
 001594 4151 0000            00000 12806  1                      LA    R5,ARG1(R1)
 001598 4120 5026            00026 12807  1                      LA    R2,VNSTRLOC         R2,R3 - string loc, len
 00159C 4830 5024            00024 12808  1                      LH    R3,VNSTRLEN
                                   12809  1                      ¿þþþþþþþþþþþþþþþþþþþÜ
                                   12810  1                      Ÿ  Arg#2:  Length.  Ÿ
                                   12811  1                      ¾þþþþþþþþþþþþþþþþþþþ»
 0015A0 4151 0150            00150 12812  1                      LA    R5,ARG2(R1)
 0015A4 5840 5024            00024 12813  1                      L     R4,VNVALUE          R4 - Length
 0015A8 1244/4740 703A_            12814  1                      IF    ((R4,NEG),OR,(R4,GT,MAXSTRLN)),BEGIN
 0015B6 4120 0002/58E0_      00002 12844  2                        BADARG 2
 0015C0 47F0 70E4            01660 12855  2                        EXIT  FNCENTER
 0015C4                            12858  1                      END
                                   12862  1
 0015C4 1934/47D0 705A             12863  1                      IF    (R3,GT,R4),BEGIN    Take right most chars...
 0015CA 1B34                       12878  2                        SR    R3,R4
 0015CC 8830 0001            00001 12879  2                        SRL   R3,1                Divided by two for centering
 0015D0 4123 2000            00000 12880  2                        LA    R2,@R2(R3)          R2,R3 - right most string loc,len
 0015D4 1834                       12881  2                        LR    R3,R4
 0015D6                            12882  1                      END
                                   12886  1
 0015D6 18E4                       12887  1                      LR    R14,R4
 0015D8 1BE3                       12888  1                      SR    R14,R3              Number of pad chars
 0015DA 88E0 0001            00001 12889  1                      SRL   R14,1
 0015DE 40E0 802A            00002 12890  1                      STH   R14,CENLEADL        Number of leading pads
 0015E2 1B4E                       12891  1                      SR    R4,R14
 0015E4 4040 802C            00004 12892  1                      STH   R4,CENREML          Length of remaining text
1FUNC     (FUNC2193) (12:45) (15MAR04) System Routines for Functions                                                        Page   49
0Current Usings:  (VNENTRY,R5) (*,R7) (CENWA-(4+36),R8) (CP,R11) (CV,R12)
0Loc    Object Code    Addr1 Addr2  Stmt Lv Lineno    Source Statement           (Hibal 5, Asmedit 3.3)  HLASM R4.0  2004/03/15 12.45
+___    ______ ____    _____ _____  ____ __ ______    ______ _________
0                                  12893  1                      ¿þþþþþþþþþþþþþþþþþþþþþþþþþþþþÜ
                                   12894  1                      Ÿ  Arg#3:  Pad char string.  Ÿ
                                   12895  1                      ¾þþþþþþþþþþþþþþþþþþþþþþþþþþþþ»
 0015E8 5900 7A70/4750_      01FEC 12896  1                      IF    (R0,GE,3),BEGIN     Process arg#3...
 0015F0 4151 02A0            002A0 12913  2                        LA    R5,ARG3(R1)
 0015F4 D501 7B10 5024_0208C 00024 12914  2                        IF    (VNSTRLEN,GT,1),BEGIN
 0015FE 4110 7B39/4100_      020B5 12932  3                          TSEG  'Expecting one character pad string.  '
 001610 4120 0003/58E0_      00003 12950  3                          BADARG 3
 00161A 47F0 70E4            01660 12961  3                          EXIT  FNCENTER
 00161E                            12964  2                        END
                                   12968  2
 00161E D501 7B10 5024_0208C 00024 12969  2                        IF    (VNSTRLEN,EQ,1),BEGIN
 001628 D200 8028 5026 00000 00026 12987  3                          MVC   CENPAD,VNSTRLOC     Save pad character
 00162E                            12988  2                        END
 00162E                            12992  1                      END
                                   12996  1                      ¿þþþþþþþþþþþþþþþþþþþþþþþþþþþþþþþþþþþþþþþÜ
                                   12997  1                      Ÿ  Move in pad and then centered text.  Ÿ
                                   12998  1                      ¾þþþþþþþþþþþþþþþþþþþþþþþþþþþþþþþþþþþþþþþ»
 USING  VNENTRY,R6                 12999  1                      WITH  (VNENTRY,R6),BEGIN
 00162E D74F 6000 6000 00000 00000 13013  2                        CLEAR VNENTRY
 001634 9201 6020      00020       13020  2                        SET   VNSTRING            Returning a string
                                   13026  2                        ¿þþþþþþþþþþþþþþþþþþþþþþþþþþþþþþþþþþþþþþþþþþþþþþÜ
                                   13027  2                        Ÿ  First add leading pad characters (if any).  Ÿ
                                   13028  2                        ¾þþþþþþþþþþþþþþþþþþþþþþþþþþþþþþþþþþþþþþþþþþþþþþ»
 001638 41E0 6026            00026 13029  2                        LA    R14,VNSTRLOC
 00163C 48F0 802A            00002 13030  2                        LH    R15,CENLEADL        Length to pad
 001640 1B11                       13031  2                        CLEAR R1
 001642 BF18 8028            00000 13035  2                        ICM   R1,8,CENPAD         Pad character
 001646 0EE0                       13036  2                        MVCL  R14,R0              First add any pad characters
                                   13037  2                        ¿þþþþþþþþþþþþþþþþþþþþþþþþþþÜ
                                   13038  2                        Ÿ  Now add centered text.  Ÿ
                                   13039  2                        ¾þþþþþþþþþþþþþþþþþþþþþþþþþþ»
 001648 48F0 802C            00004 13040  2                        LH    R15,CENREML         Remaining string length
 00164C BF38 8028            00000 13041  2                        ICM   R3,8,CENPAD         Pad character
 001650 0EE2                       13042  2                        MVCL  R14,R2              Move string and trailing pad
                                   13043  2
 001652 48F0 802A            00002 13044  2                        LH    R15,CENLEADL
 001656 4AF0 802C            00004 13045  2                        AH    R15,CENREML
 00165A 40F0 6024            00024 13046  2                        STH   R15,VNSTRLEN        Save string length
                                   13047  2
 00165E 1BFF                       13048  2                        CLEAR R15                 A-ok
 DROP   VNENTRY,R6                 13052  1                      END
 DROP   VNENTRY,R5                 13060                       END
                                   13069
 001660 18D8/9808 D004_            13070                       PEND
 DROP   CENWA-(4+36),R8
 DROP   *,R7
1FUNC     (FUNC2193) (12:45) (15MAR04) System Routines for Functions                                                        Page   50
0Current Usings:  (CP,R11) (CV,R12)
0Loc    Object Code    Addr1 Addr2  Stmt Lv Lineno    Source Statement           (Hibal 5, Asmedit 3.3)  HLASM R4.0  2004/03/15 12.45
+___    ______ ____    _____ _____  ____ __ ______    ______ _________
0                                  13096              *
                                   13097              *
                                   13098              *  CHK_ACCOUNT function.
                                   13099              *
                                   13100              *  NOTE:
                                   13101              *  same as get account except checks that acct exists.
                                   13102              *
 000000                00000 00105 13103              FNCAWA   RECORD BEGIN
 000000                            13111  1           FNCAACCT   DS    CL5                 Working account (uuugg form)
 000005                            13112  1           FNCADATA   DS    CL256               Work area
 000105                00105 00105 13113                       END
                                   13122              *
                                   13123              *
 00166E 50E0 D000/9008_      00000 13124              FNCHKACC PROC  FNCAWA
 USING  *,R7
 USING  FNCAWA-(4+36),R8
                                   13174
 001688 4120 7A52/58E0_      020DA 13175                       SETARGS '11S'             1 arg: str
 001692 4770 706A            016F2 13181                       IF    Z,BEGIN
 001696 4151 0000            00000 13192  1                      LA    R5,ARG1(R1)
 USING  VNENTRY,R5                 13193  1                      WITH  (VNENTRY,R5)
 00169A 4110 5026/4800_      00026 13206  1                      SETMSG VNSTRLOC,LH:VNSTRLEN  Account/id
 0016A2 58E0 796C/0DEE       01FF4 13219  1                      VCALL LRTRIM
 0016A8 41F0 8028            00000 13223  1                      LA    R15,FNCAACCT        Put account in "uuugg" form here
 0016AC 58E0 7970/0DEE       01FF8 13224  1                      VCALL CHKACCT             Get account
 0016B2 4780 7032/1B11_      016BA 13228  1                      IF    NZ,'CLEAR R1,R0'    ID not found/ACCT does not exist
 0016BA 7036/47F0 704E 016BA 016B4 13250  1                      ELSE  BEGIN
 0016BE D201 802D 802B 00005 00003 13261  2                        MVC   FNCADATA(2),FNCAACCT+3  gg
 0016C4 924B 802F      00007       13262  2                        MVI   FNCADATA+2,C'.'
 0016C8 D202 8030 8028 00008 00000 13263  2                        MVC   FNCADATA+3(3),FNCAACCT  uuu
 0016CE 4110 802D/4100_      00005 13264  2                        SETMSG FNCADATA,6          "gg.uuu"
 0016D6                            13280  1                      END
                                   13284  1
 0016D6 D74F 6000 6000_00000 00000 13285  1                      VRETURN STRING,(R1),(R0)
 USING  VNENTRY,R6
 DROP   VNENTRY,R6
 DROP   VNENTRY,R5                 13369                       END
                                   13378
 0016F2 18D8/9808 D004_            13379                       PEND
 DROP   FNCAWA-(4+36),R8
 DROP   *,R7
1FUNC     (FUNC2193) (12:45) (15MAR04) System Routines for Functions                                                        Page   51
0Current Usings:  (CP,R11) (CV,R12)
0Loc    Object Code    Addr1 Addr2  Stmt Lv Lineno    Source Statement           (Hibal 5, Asmedit 3.3)  HLASM R4.0  2004/03/15 12.45
+___    ______ ____    _____ _____  ____ __ ______    ______ _________
0                                  13405              ¿þþþþþþþþþþþþþþþþþþþþþþþþþþþþþþþþþþþþþþþþþþþþþþþþþþþþþþþþþþþþþþþþþþþþþÜ
                                   13406              Ÿ                                                                     Ÿ
                                   13407              Ÿ                                                                     Ÿ
                                   13408              Ÿ  CHSTR - CHANGE STRING                                              Ÿ
                                   13409              Ÿ                                                                     Ÿ
                                   13410              Ÿ  CHSTR(STRING, MATCH_STRING, SUBSTITUTION_STRING)                   Ÿ
                                   13411              Ÿ                                                                     Ÿ
                                   13412              Ÿ  SEE COMMENTS AT START OF THIS MODULE                               Ÿ
                                   13413              Ÿ                                                                     Ÿ
                                   13414              Ÿ                                                                     Ÿ
                                                      ¾þþþþþþþþþþþþþþþþþþþþþþþþþþþþþþþþþþþþþþþþþþþþþþþþþþþþþþþþþþþþþþþþþþþþþ»
0000000                00000 00324 13415              FNCHWA   RECORD BEGIN
 000000                            13423  1           CHSTRLOC   DS    F                   STRING
 000004                            13424  1           CHSTRLEN   DS    F
 000008                            13425  1           CHMATLOC   DS    F                   MATCH STRING
 00000C                            13426  1           CHMATLEN   DS    F
 000010                            13427  1           CHSUBLOC   DS    F                   SUBSTITUTION STRING
 000014                            13428  1           CHSUBLEN   DS    F
 000018                            13429  1           CHOUTLOC   DS    F
 00001C                            13430  1           CHOUTLEN   DS    F
 000020                            13431  1           CHOUTSTR   DS    CL(3*MAXSTRLN)      OUTPUT STRING (W/OVERFLOW)
 000320                            13432  1           CHMAXOUT   DS    F                   MAX VALID OUTPUT INDEX VALUE
 000324                00324 00324 13433                       END
                                   13442
 001700 50E0 D000/9008_      00000 13443              FNCHSTR  PROC  FNCHWA
 USING  *,R7
 USING  FNCHWA-(4+36),R8
 00171A 4120 79C3/58E0_      020DD 13493                       SETARGS '33SSS'           3 ARGS: STRING, STRING, STRING
 001724 4770 7168            01882 13499                       IF    Z,BEGIN
 USING  VNENTRY,R5                 13510  1                      USING VNENTRY,R5
                                   13519  1
                                   13520  1                      COMMENT                   SET UP WORK AREA, GET ARGS
 001728 D7FF 8028 8028_00000 00000 13521  1                      CLEAR FNCHWA
 001740 4151 0000            00000 13531  1                      LA    R5,ARG1(R1)         ARG 1
 001744 4120 5026            00026 13532  1                      LA    R2,VNSTRLOC
 001748 4830 5024            00024 13533  1                      LH    R3,VNSTRLEN
 00174C 5020 8028            00000 13534  1                      ST    R2,CHSTRLOC
 001750 5030 802C            00004 13535  1                      ST    R3,CHSTRLEN
 001754 4151 0150            00150 13536  1                      LA    R5,ARG2(R1)         ARG 2
 001758 4120 5026            00026 13537  1                      LA    R2,VNSTRLOC
 00175C 4830 5024            00024 13538  1                      LH    R3,VNSTRLEN
 001760 5020 8030            00008 13539  1                      ST    R2,CHMATLOC
 001764 5030 8034            0000C 13540  1                      ST    R3,CHMATLEN
 001768 4151 02A0            002A0 13541  1                      LA    R5,ARG3(R1)         ARG 3
 00176C 4120 5026            00026 13542  1                      LA    R2,VNSTRLOC
 001770 4830 5024            00024 13543  1                      LH    R3,VNSTRLEN
 001774 5020 8038            00010 13544  1                      ST    R2,CHSUBLOC
 001778 5030 803C            00014 13545  1                      ST    R3,CHSUBLEN
 DROP   VNENTRY,R5                 13546  1                      DROP  R5
 00177C 4120 8048            00020 13553  1                      LA    R2,CHOUTSTR
 001780 4122 0100            00100 13554  1                      LA    R2,MAXSTRLN(R2)
 001784 5020 8348            00320 13555  1                      ST    R2,CHMAXOUT
                                   13556  1
1FUNC     (FUNC2193) (12:45) (15MAR04) System Routines for Functions                                                        Page   52
0Current Usings:  (*,R7) (FNCHWA-(4+36),R8) (CP,R11) (CV,R12)
0Loc    Object Code    Addr1 Addr2  Stmt Lv Lineno    Source Statement           (Hibal 5, Asmedit 3.3)  HLASM R4.0  2004/03/15 12.45
+___    ______ ____    _____ _____  ____ __ ______    ______ _________
0                                  13557  1                      COMMENT                   SET UP LOOP REGISTERS
 001788 5820 8028            00000 13558  1                      L     R2,CHSTRLOC         R2 - STRING
 00178C 5830 8030            00008 13559  1                      L     R3,CHMATLOC         R3 - MATCH STRING
 001790 5840 8038            00010 13560  1                      L     R4,CHSUBLOC         R4 - SUBSTITUTE STRING
 001794 4150 8048            00020 13561  1                      LA    R5,CHOUTSTR         R5 - NEW STRING
 001798 58E0 8028            00000 13562  1                      L     R14,CHSTRLOC        R14 - TEST LIMIT
 00179C 5AE0 802C            00004 13563  1                      A     R14,CHSTRLEN
 0017A0 5BE0 8034            0000C 13564  1                      S     R14,CHMATLEN
 0017A4 5EE0 78E2            01FFC 13565  1                      INCR  R14
 0017A8 58F0 8034            0000C 13568  1                      L     R15,CHMATLEN        R15 - MATCH COMPARE LEN
 0017AC 06F0                       13569  1                      DECR  R15
                                   13571  1                      COMMENT                   IF NULL STRINGS
 0017AE D503 78BE 802C_01FD8 00004 13572  1                      IF    ((CHSTRLEN,EQ,0),OR,(CHMATLEN,EQ,0)),BEGIN
 0017C2 5810 8028            00000 13607  2                        L     R1,CHSTRLOC
 0017C6 5800 802C            00004 13608  2                        L     R0,CHSTRLEN
 0017CA D74F 6000 6000_00000 00000 13609  2                        VRETURN STRING,(R1),(R0)
 USING  VNENTRY,R6
 DROP   VNENTRY,R6
 0017E6                            13693  1                      END
 0017E6 70D0/47F0 7168 017E6 017C0 13697  1                      ELSE  BEGIN               ,, ELSE NON NULL STRINGS
                                   13708  2
                                   13709  2                        COMMENT                   MAIN LOOP
 0017EA 192E/47B0 7118             13710  2                        WHILE (R2,LT,R14),BEGIN
 0017F0 44F0 7A16/D500_      02130 13727  3                          EX    R15,' CLC @R2(0),@R3 '
 0017F4 4770 7102            0181C 13743  3                          IF    E,BEGIN             IF MATCH, DO SUBSTITUTION
 0017F8 5810 803C            00014 13754  4                            L     R1,CHSUBLEN
 0017FC 0610/1211/4740_            13755  4                            MOVE  R1,@R5,@R4
 001808 5A20 8034            0000C 13793  4                            A     R2,CHMATLEN
 00180C 5A50 803C            00014 13794  4                            A     R5,CHSUBLEN
 001810 5950 8348/47D0_      00320 13795  4                            IF    (R5,GT,CHMAXOUT),' L R5,CHMAXOUT '
 00181C                            13818  3                          END
 00181C 7106/47F0 7114 0181C 017F6 13822  3                          ELSE  BEGIN               IF NO MATCH, JUST OUTPUT
 001820 D200 5000 2000 00000 00000 13833  4                            MVC   @R5(1),@R2
 001826 5E20 78E2            01FFC 13834  4                            INCR  R2
 00182A 5E50 78E2            01FFC 13837  4                            INCR  R5
 00182E                            13840  3                          END
 00182E 47F0 70D0            017EA 13844  2                        END
                                   13849  2
                                   13850  2                        COMMENT                   DO LAST BIT OF STRING, IF ANY
 001832 58E0 8028            00000 13851  2                        L     R14,CHSTRLOC
 001836 5AE0 802C            00004 13852  2                        A     R14,CHSTRLEN
 00183A 192E/47B0 7138             13853  2                        WHILE (R2,LT,R14),BEGIN
 001840 D200 5000 2000 00000 00000 13870  3                          MVC   @R5(1),@R2
 001846 5E20 78E2            01FFC 13871  3                          INCR  R2
 00184A 5E50 78E2            01FFC 13874  3                          INCR  R5
 00184E 47F0 7120            0183A 13877  2                        END
                                   13882  2
                                   13883  2                        COMMENT RETURN STRING
 001852 5950 8348/47D0_      00320 13884  2                        IF    (R5,GT,CHMAXOUT),' L R5,CHMAXOUT '
 00185E 4110 8048            00020 13907  2                        LA    R1,CHOUTSTR
 001862 1805                       13908  2                        LR    R0,R5
 001864 1B01                       13909  2                        SR    R0,R1
 001866 D74F 6000 6000_00000 00000 13910  2                        VRETURN STRING,(R1),(R0)
 USING  VNENTRY,R6
1FUNC     (FUNC2193) (12:45) (15MAR04) System Routines for Functions                                                        Page   53
0Current Usings:  (*,R7) (FNCHWA-(4+36),R8) (CP,R11) (CV,R12)
0Loc    Object Code    Addr1 Addr2  Stmt Lv Lineno    Source Statement           (Hibal 5, Asmedit 3.3)  HLASM R4.0  2004/03/15 12.45
+___    ______ ____    _____ _____  ____ __ ______    ______ _________
0DROP   VNENTRY,R6
 001882                            13994  1                      END   , OF NON NULL STRINGS
 001882                            13998                       END   , OF GOOD ARGS
 001882 18D8/9808 D004_            14002                       PEND
 DROP   FNCHWA-(4+36),R8
 DROP   *,R7
1FUNC     (FUNC2193) (12:45) (15MAR04) System Routines for Functions                                                        Page   54
0Current Usings:  (CP,R11) (CV,R12)
0Loc    Object Code    Addr1 Addr2  Stmt Lv Lineno    Source Statement           (Hibal 5, Asmedit 3.3)  HLASM R4.0  2004/03/15 12.45
+___    ______ ____    _____ _____  ____ __ ______    ______ _________
0                                  14028              ¿þþþþþþþþþþþþþþþþþþþþþþþþþþþþþþþþþþþþþþþþþþþþþþþþþþþþþþþþþþþþþþþþþþþþþÜ
                                   14029              Ÿ                                                                     Ÿ
                                   14030              Ÿ  COMPARE Function.                                                  Ÿ
                                   14031              Ÿ                                                                     Ÿ
                                   14032              Ÿ    COMPARE(??????????)                                              Ÿ
                                   14033              Ÿ                                                                     Ÿ
                                                      ¾þþþþþþþþþþþþþþþþþþþþþþþþþþþþþþþþþþþþþþþþþþþþþþþþþþþþþþþþþþþþþþþþþþþþþ»
0001890 50E0 D000/9008_      00000 14034              FNCOMP   PROC  ,
 USING  *,R7
 0018AA 4110 77E4/4100_      0208E 14073                       TSEG  'Not Yet!  ',,CR
 0018BC 4120 0001/58E0_      00001 14091                       BADARG 1
 0018C6 18D8/9808 D004_            14102                       PEND
 DROP   *,R7
1FUNC     (FUNC2193) (12:45) (15MAR04) System Routines for Functions                                                        Page   55
0Current Usings:  (CP,R11) (CV,R12)
0Loc    Object Code    Addr1 Addr2  Stmt Lv Lineno    Source Statement           (Hibal 5, Asmedit 3.3)  HLASM R4.0  2004/03/15 12.45
+___    ______ ____    _____ _____  ____ __ ______    ______ _________
0                                  14123              ¿þþþþþþþþþþþþþþþþþþþþþþþþþþþþþþþþþþþþþþþþþþþþþþþþþþþþþþþþþþþþþþþþþþþþþÜ
                                   14124              Ÿ                                                                     Ÿ
                                   14125              Ÿ  COPIES Function.                                                   Ÿ
                                   14126              Ÿ                                                                     Ÿ
                                   14127              Ÿ    COPIES(??????????)                                               Ÿ
                                   14128              Ÿ                                                                     Ÿ
                                                      ¾þþþþþþþþþþþþþþþþþþþþþþþþþþþþþþþþþþþþþþþþþþþþþþþþþþþþþþþþþþþþþþþþþþþþþ»
00018D4 50E0 D000/9008_      00000 14129              FNCOPIES PROC  ,
 USING  *,R7
 0018EE 4120 7716/58E0_      02004 14168                       SETARGS '22SI'            1-2 args: string, integer
 0018F8 4770 7078            01966 14174                       IF    Z,BEGIN             OK...
 USING  VNENTRY,R5                 14185  1                      WITH  (VNENTRY,R5)
 0018FC 4151 0000            00000 14198  1                      LA    R5,ARG1(R1)
 001900 4120 5026            00026 14199  1                      LA    R2,VNSTRLOC         R2,R3 - string loc, len
 001904 4830 5024            00024 14200  1                      LH    R3,VNSTRLEN
                                   14201  1                      ¿þþþþþþþþþþþþþþþþþþþþþþþþþþÜ
                                   14202  1                      Ÿ  Arg#2: Repition count.  Ÿ
                                   14203  1                      ¾þþþþþþþþþþþþþþþþþþþþþþþþþþ»
 001908 4151 0150            00150 14204  1                      LA    R5,ARG2(R1)
 00190C 5840 5024            00024 14205  1                      L     R4,VNVALUE          Repition count
                                   14206  1
 001910 18F3                       14207  1                      LR    R15,R3
 001912 1CE4                       14208  1                      MR    R14,R4
 001914 184F                       14209  1                      LR    R4,R15              R4 = total string length
 001916 1244/4740 7036_            14210  1                      IF    ((R4,NEG),OR,(R4,GT,MAXSTRLN)),BEGIN
 001924 4120 0002/58E0_      00002 14240  2                        BADARG 2
 00192E 47F0 7078            01966 14251  2                        EXIT  FNCOPIES
 001932                            14254  1                      END
                                   14258  1                      ¿þþþþþþþþþþþþþþþþþþþþþÜ
                                   14259  1                      Ÿ  Duplicate string.  Ÿ
                                   14260  1                      ¾þþþþþþþþþþþþþþþþþþþþþ»
 USING  VNENTRY,R6                 14261  1                      WITH  (VNENTRY,R6),BEGIN
 001932 D74F 6000 6000 00000 00000 14275  2                        CLEAR VNENTRY
 001938 9201 6020      00020       14282  2                        SET   VNSTRING            Returning a string
 00193C 4040 6024            00024 14288  2                        STH   R4,VNSTRLEN         Set string length
                                   14289  2
 001940 41E0 6026            00026 14290  2                        LA    R14,VNSTRLOC        Start of string
 001944 1244/47D0 7076             14291  2                        WHILE (R4,POS),BEGIN      Keep duplicating...
 00194A 9023 D000/41D0_      00000 14307  3                          XPUSH R2,R3               Save string ptrs
 001952 18F3                       14310  3                          LR    R15,R3
 001954 0EE2                       14311  3                          MVCL  R14,R2              Copy string
 001956 4BD0 77AA/9823_      02098 14312  3                          XPOP  R2,R3               Restore orig string ptrs
                                   14315  3
 00195E 1B43                       14316  3                          SR    R4,R3               Decrement remaining length
 001960 47F0 7056            01944 14317  2                        END
                                   14322  2
 001964 1BFF                       14323  2                        CLEAR R15                 A-ok
 DROP   VNENTRY,R6                 14327  1                      END
 DROP   VNENTRY,R5                 14335                       END
                                   14344
 001966 18D8/9808 D004_            14345                       PEND
 DROP   *,R7
1FUNC     (FUNC2193) (12:45) (15MAR04) System Routines for Functions                                                        Page   56
0Current Usings:  (CP,R11) (CV,R12)
0Loc    Object Code    Addr1 Addr2  Stmt Lv Lineno    Source Statement           (Hibal 5, Asmedit 3.3)  HLASM R4.0  2004/03/15 12.45
+___    ______ ____    _____ _____  ____ __ ______    ______ _________
0                                  14366              ¿þþþþþþþþþþþþþþþþþþþþþþþþþþþþþþþþþþþþþþþþþþþþþþþþþþþþþþþþþþþþþþþþþþþþþÜ
                                   14367              Ÿ                                                                     Ÿ
                                   14368              Ÿ  C2D Function.                                                      Ÿ
                                   14369              Ÿ                                                                     Ÿ
                                   14370              Ÿ    C2D(??????????)                                                  Ÿ
                                   14371              Ÿ                                                                     Ÿ
                                                      ¾þþþþþþþþþþþþþþþþþþþþþþþþþþþþþþþþþþþþþþþþþþþþþþþþþþþþþþþþþþþþþþþþþþþþþ»
0001974 50E0 D000/9008_      00000 14372              FNC2D    PROC  ,
 USING  *,R7
 00198E 4110 7700/4100_      0208E 14411                       TSEG  'Not Yet!  '
 0019A0 4120 0001/58E0_      00001 14429                       BADARG 1
 0019AA 18D8/9808 D004_            14440                       PEND
 DROP   *,R7
1FUNC     (FUNC2193) (12:45) (15MAR04) System Routines for Functions                                                        Page   57
0Current Usings:  (CP,R11) (CV,R12)
0Loc    Object Code    Addr1 Addr2  Stmt Lv Lineno    Source Statement           (Hibal 5, Asmedit 3.3)  HLASM R4.0  2004/03/15 12.45
+___    ______ ____    _____ _____  ____ __ ______    ______ _________
0                                  14461              ¿þþþþþþþþþþþþþþþþþþþþþþþþþþþþþþþþþþþþþþþþþþþþþþþþþþþþþþþþþþþþþþþþþþþþþÜ
                                   14462              Ÿ                                                                     Ÿ
                                   14463              Ÿ  C2X Function.                                                      Ÿ
                                   14464              Ÿ                                                                     Ÿ
                                   14465              Ÿ    C2X(??????????)                                                  Ÿ
                                   14466              Ÿ                                                                     Ÿ
                                                      ¾þþþþþþþþþþþþþþþþþþþþþþþþþþþþþþþþþþþþþþþþþþþþþþþþþþþþþþþþþþþþþþþþþþþþþ»
00019B8 50E0 D000/9008_      00000 14467              FNC2X    PROC  ,
 USING  *,R7
 0019D2 4110 76BC/4100_      0208E 14506                       TSEG  'Not Yet!  '
 0019E4 4120 0001/58E0_      00001 14524                       BADARG 1
 0019EE 18D8/9808 D004_            14535                       PEND
 DROP   *,R7
1FUNC     (FUNC2193) (12:45) (15MAR04) System Routines for Functions                                                        Page   58
0Current Usings:  (CP,R11) (CV,R12)
0Loc    Object Code    Addr1 Addr2  Stmt Lv Lineno    Source Statement           (Hibal 5, Asmedit 3.3)  HLASM R4.0  2004/03/15 12.45
+___    ______ ____    _____ _____  ____ __ ______    ______ _________
0                                  14556              ¿þþþþþþþþþþþþþþþþþþþþþþþþþþþþþþþþþþþþþþþþþþþþþþþþþþþþþþþþþþþþþþþþþþþþþÜ
                                   14557              Ÿ                                                                     Ÿ
                                   14558              Ÿ  DATATYPE Function.                                                 Ÿ
                                   14559              Ÿ                                                                     Ÿ
                                   14560              Ÿ    DATATYPE(??????????)                                             Ÿ
                                   14561              Ÿ                                                                     Ÿ
                                                      ¾þþþþþþþþþþþþþþþþþþþþþþþþþþþþþþþþþþþþþþþþþþþþþþþþþþþþþþþþþþþþþþþþþþþþþ»
00019FC 50E0 D000/9008_      00000 14562              FNDTYPE PROC  ,
 USING  *,R7
 001A16 4110 7678/4100_      0208E 14601                       TSEG  'Not Yet!  '
 001A28 4120 0001/58E0_      00001 14619                       BADARG 1
 001A32 18D8/9808 D004_            14630                       PEND
 DROP   *,R7
1FUNC     (FUNC2193) (12:45) (15MAR04) System Routines for Functions                                                        Page   59
0Current Usings:  (CP,R11) (CV,R12)
0Loc    Object Code    Addr1 Addr2  Stmt Lv Lineno    Source Statement           (Hibal 5, Asmedit 3.3)  HLASM R4.0  2004/03/15 12.45
+___    ______ ____    _____ _____  ____ __ ______    ______ _________
0000000                00000 00108 14651              DECRYWA  RECORD BEGIN
 000000                            14659  1           DECARGP    DS    F                   ARG ptr
 000004                            14660  1           DECNARG    DS    F                   Number of arguments
                                   14661  1
 000008                            14662  1           DECTEXT    DS    CL(MAXSTRLN)        Working text area
 000108                00108 00108 14663                       END
-                                  14673              ¿þþþþþþþþþþþþþþþþþþþþþþþþþþþþþþþþþþþþþþþþþþþþþþþþþþþþþþþþþþþþþþþþþþþþþÜ
                                   14674              Ÿ                                                                     Ÿ
                                   14675              Ÿ  DECRYPT -- DECRYPT Function.                                       Ÿ
                                   14676              Ÿ                                                                     Ÿ
                                   14677              Ÿ    DECRYPT(text-string[, encryption-key-string])                    Ÿ
                                   14678              Ÿ                                                                     Ÿ
                                                      ¾þþþþþþþþþþþþþþþþþþþþþþþþþþþþþþþþþþþþþþþþþþþþþþþþþþþþþþþþþþþþþþþþþþþþþ»
0001A40 50E0 D000/9008_      00000 14679              FNDECRYP PROC  DECRYWA
 USING  *,R7
 USING  DECRYWA-(4+36),R8
 001A5A D7FF 8028 8028_00000 00000 14729                       CLEAR DECRYWA
                                   14737
 001A66 4120 75AE/58E0_      02008 14738                       SETARGS '12SS'            1-2 args: string, string
 001A70 4770 7082            01ADC 14744                       IF    Z,BEGIN             OK...
 001A74 5000 802C            00004 14755  1                      ST    R0,DECNARG          Number of arguments
 001A78 5010 8028            00000 14756  1                      ST    R1,DECARGP          Start of args ptr
                                   14757  1
 USING  VNENTRY,R5                 14758  1                      WITH  (VNENTRY,R5)
                                   14771  1                      ¿þþþþþþþþþþþþþþþþþþþþþþþþþþþþþþþþÜ
                                   14772  1                      Ÿ  Arg 1: text to be decrypted.  Ÿ
                                   14773  1                      ¾þþþþþþþþþþþþþþþþþþþþþþþþþþþþþþþþ»
 001A7C 4150 0000            00000 14774  1                      LA    R5,ARG1
 001A80 5E50 8028            00000 14775  1                      AL    R5,DECARGP
                                   14776  1
 001A84 4840 5024            00024 14777  1                      LH    R4,VNSTRLEN
 001A88 41E0 8030/18F4_      00008 14778  1                      MOVEL DECTEXT,VNSTRLOC,(R4)  Copy text string
                                   14800  1                      ¿þþþþþþþþþþþþþþþþþþþþþþþþþþÜ
                                   14801  1                      Ÿ  Arg 2: encryption key.  Ÿ
                                   14802  1                      ¾þþþþþþþþþþþþþþþþþþþþþþþþþþ»
 001A96 1B22/1B33                  14803  1                      CLEAR R2,R3               Assume no key
                                   14809  1
 001A9A D503 75B2 802C_0200C 00004 14810  1                      IF    (DECNARG,GE,2),BEGIN  Encryption key specified...
 001AA4 4150 0150            00150 14828  2                        LA    R5,ARG2
 001AA8 5E50 8028            00000 14829  2                        AL    R5,DECARGP
                                   14830  2
 001AAC 4120 5026/4830_      00026 14831  2                        LS    R2,R3,VNSTRLOC,LH:VNSTRLEN  Encryption key
 001AB4                            14843  1                      END
                                   14847  1                      ¿þþþþþþþþþþþþþþþþþþþþþþÜ
                                   14848  1                      Ÿ  Do the encryption.  Ÿ
                                   14849  1                      ¾þþþþþþþþþþþþþþþþþþþþþþ»
 001AB4 4110 8030/1804       00008 14850  1                      SETMSG DECTEXT,(R4)        Text to encrypt
 001ABA 58E0 75B6/0DEE       02010 14864  1                      VCALL DECRYPT             Decrypt the text
                                   14868  1
 001AC0 D74F 6000 6000_00000 00000 14869  1                      VRETURN STRING,(R1),(R0)
 USING  VNENTRY,R6
1FUNC     (FUNC2193) (12:45) (15MAR04) System Routines for Functions                                                        Page   60
0Current Usings:  (VNENTRY,R5) (*,R7) (DECRYWA-(4+36),R8) (CP,R11) (CV,R12)
0Loc    Object Code    Addr1 Addr2  Stmt Lv Lineno    Source Statement           (Hibal 5, Asmedit 3.3)  HLASM R4.0  2004/03/15 12.45
+___    ______ ____    _____ _____  ____ __ ______    ______ _________
0DROP   VNENTRY,R6
 DROP   VNENTRY,R5                 14953                       END
                                   14962
 001ADC 18D8/9808 D004_            14963                       PEND
 DROP   DECRYWA-(4+36),R8
 DROP   *,R7
1FUNC     (FUNC2193) (12:45) (15MAR04) System Routines for Functions                                                        Page   61
0Current Usings:  (CP,R11) (CV,R12)
0Loc    Object Code    Addr1 Addr2  Stmt Lv Lineno    Source Statement           (Hibal 5, Asmedit 3.3)  HLASM R4.0  2004/03/15 12.45
+___    ______ ____    _____ _____  ____ __ ______    ______ _________
0                                  14989              ¿þþþþþþþþþþþþþþþþþþþþþþþþþþþþþþþþþþþþþþþþþþþþþþþþþþþþþþþþþþþþþþþþþþþþþÜ
                                   14990              Ÿ                                                                     Ÿ
                                   14991              Ÿ  DELSTR Function.                                                   Ÿ
                                   14992              Ÿ                                                                     Ÿ
                                   14993              Ÿ    DELSTR(??????????)                                               Ÿ
                                   14994              Ÿ                                                                     Ÿ
                                                      ¾þþþþþþþþþþþþþþþþþþþþþþþþþþþþþþþþþþþþþþþþþþþþþþþþþþþþþþþþþþþþþþþþþþþþþ»
0001AEA 50E0 D000/9008_      00000 14995              FNDELSTR PROC  ,
 USING  *,R7
 001B04 4110 758A/4100_      0208E 15034                       TSEG  'Not Yet!  '
 001B16 4120 0001/58E0_      00001 15052                       BADARG 1
 001B20 18D8/9808 D004_            15063                       PEND
 DROP   *,R7
1FUNC     (FUNC2193) (12:45) (15MAR04) System Routines for Functions                                                        Page   62
0Current Usings:  (CP,R11) (CV,R12)
0Loc    Object Code    Addr1 Addr2  Stmt Lv Lineno    Source Statement           (Hibal 5, Asmedit 3.3)  HLASM R4.0  2004/03/15 12.45
+___    ______ ____    _____ _____  ____ __ ______    ______ _________
0                                  15084              ¿þþþþþþþþþþþþþþþþþþþþþþþþþþþþþþþþþþþþþþþþþþþþþþþþþþþþþþþþþþþþþþþþþþþþþÜ
                                   15085              Ÿ                                                                     Ÿ
                                   15086              Ÿ  DELWORD Function.                                                  Ÿ
                                   15087              Ÿ                                                                     Ÿ
                                   15088              Ÿ    DELWORD(??????????)                                              Ÿ
                                   15089              Ÿ                                                                     Ÿ
                                                      ¾þþþþþþþþþþþþþþþþþþþþþþþþþþþþþþþþþþþþþþþþþþþþþþþþþþþþþþþþþþþþþþþþþþþþþ»
0001B2E 50E0 D000/9008_      00000 15090              FNDELWRD PROC  ,
 USING  *,R7
 001B48 4110 7546/4100_      0208E 15129                       TSEG  'Not Yet!  '
 001B5A 4120 0001/58E0_      00001 15147                       BADARG 1
 001B64 18D8/9808 D004_            15158                       PEND
 DROP   *,R7
1FUNC     (FUNC2193) (12:45) (15MAR04) System Routines for Functions                                                        Page   63
0Current Usings:  (CP,R11) (CV,R12)
0Loc    Object Code    Addr1 Addr2  Stmt Lv Lineno    Source Statement           (Hibal 5, Asmedit 3.3)  HLASM R4.0  2004/03/15 12.45
+___    ______ ____    _____ _____  ____ __ ______    ______ _________
0                                  15179              ¿þþþþþþþþþþþþþþþþþþþþþþþþþþþþþþþþþþþþþþþþþþþþþþþþþþþþþþþþþþþþþþþþþþþþþÜ
                                   15180              Ÿ                                                                     Ÿ
                                   15181              Ÿ  RF_DEST_CHECK -- CHECK IF DEST EXISTS                              Ÿ
                                   15182              Ÿ                                                                     Ÿ
                                   15183              Ÿ    RF_DEST_CHECK('DEST')                                            Ÿ
                                   15184              Ÿ                                                                     Ÿ
                                   15185              Ÿ                                                                     Ÿ
                                   15186              Ÿ  SEE COMMENTS AT START OF MODULE.                                   Ÿ
                                   15187              Ÿ                                                                     Ÿ
                                                      ¾þþþþþþþþþþþþþþþþþþþþþþþþþþþþþþþþþþþþþþþþþþþþþþþþþþþþþþþþþþþþþþþþþþþþþ»
0000000                00000 00008 15188              DCHECKWA RECORD BEGIN
 000000                            15196  1           DESTNAME   DS    CL8
 000008                00008 00008 15197                       END
                                   15206              þþþþ
 001B72 50E0 D000/9008_      00000 15207              FNDESTV  PROC  DCHECKWA
 USING  *,R7
 USING  DCHECKWA-(4+36),R8
 001B8C D207 8028 C4D8 00000 004D8 15257                       MVC   DESTNAME,CVBLANKS
                                   15258
 001B92 4120 7488/58E0_      02014 15259                       SETARGS '11SS'
                                   15265
                                   15266                       COMMENT                   GET ARG
 001B9C 4770 7084            01C10 15267                       IF    Z,BEGIN
 USING  VNENTRY,R5                 15278  1                      USING VNENTRY,R5
 001BA0 4151 0000            00000 15287  1                      LA    R5,ARG1(R1)
 001BA4 4120 5026            00026 15288  1                      LA    R2,VNSTRLOC         R2,R3 - STRING LOC,LEN
 001BA8 4830 5024            00024 15289  1                      LH    R3,VNSTRLEN
 DROP   VNENTRY,R5                 15290  1                      DROP  R5
                                   15297  1
                                   15298  1                      COMMENT                   PRESUME DEST IS INVALID
 001BAC 41F0 0004            00004 15299  1                      LA    R15,4
                                   15300  1
                                   15301  1                      COMMENT                   CHECK ARG
 001BB0 5930 7470/4750_      01FFC 15302  1                      IF    ((R3,GE,1),AND,(R3,LE,8)),BEGIN
                                   15335  2
                                   15336  2                        COMMENT                   MOVE NAME (IN UPPER CASE)
                                   15337  2                        COMMENT                   TO 8 CHAR HOLDING AREA
 001BC0 D207 8028 C4D8 00000 004D8 15338  2                        MVC   DESTNAME,CVBLANKS
 001BC6 5810 C8A8            008A8 15339  2                        L     R1,CVUPPTBL
 001BCA 0630/4430 75BC_            15340  2                        DEX   R3,' MVC DESTNAME(0),@R2 '
 001BD0 4430 75C2/DC00_      0214E 15359  2                        EX    R3,' TR DESTNAME(0),@R1 '
                                   15375  2
                                   15376  2                        COMMENT                   CHECK DEST
 001BD4 4100 0008            00008 15377  2                        LA    R0,L'DESTNAME
 001BD8 4110 8028            00000 15378  2                        LA    R1,DESTNAME
 001BDC 58E0 7490/0DEE       0201C 15379  2                        VCALL DESTCHK
 001BE2                            15383  1                      END
 001BE2 12FF/4770 706E             15387  1                      IF    (R15,Z),BEGIN
 001BE8 D74F 6000 6000_00000 00000 15401  2                        VRETURN BOOLEAN,TRUE
 USING  VNENTRY,R6
 DROP   VNENTRY,R6
 001BFA                            15440  1                      END
 001BFA 7072/47F0 7084 01BFA 01BE6 15444  1                      ELSE  BEGIN
1FUNC     (FUNC2193) (12:45) (15MAR04) System Routines for Functions                                                        Page   64
0Current Usings:  (*,R7) (DCHECKWA-(4+36),R8) (CP,R11) (CV,R12)
0Loc    Object Code    Addr1 Addr2  Stmt Lv Lineno    Source Statement           (Hibal 5, Asmedit 3.3)  HLASM R4.0  2004/03/15 12.45
+___    ______ ____    _____ _____  ____ __ ______    ______ _________
0001BFE D74F 6000 6000_00000 00000 15455  2                        VRETURN BOOLEAN,FALSE
 USING  VNENTRY,R6
 DROP   VNENTRY,R6
 001C10                            15494  1                      END
 001C10                            15498                       END
                                   15502
                                   15503                       COMMENT                   RETURN
 001C10 18D8/9808 D004_            15504                       PEND
 DROP   DCHECKWA-(4+36),R8
 DROP   *,R7
1FUNC     (FUNC2193) (12:45) (15MAR04) System Routines for Functions                                                        Page   65
0Current Usings:  (CP,R11) (CV,R12)
0Loc    Object Code    Addr1 Addr2  Stmt Lv Lineno    Source Statement           (Hibal 5, Asmedit 3.3)  HLASM R4.0  2004/03/15 12.45
+___    ______ ____    _____ _____  ____ __ ______    ______ _________
0                                  15530              ¿þþþþþþþþþþþþþþþþþþþþþþþþþþþþþþþþþþþþþþþþþþþþþþþþþþþþþþþþþþþþþþþþþþþþþÜ
                                   15531              Ÿ                                                                     Ÿ
                                   15532              Ÿ  RF_PW_CHECK -- Routine to verify a user password.                  Ÿ
                                   15533              Ÿ                                                                     Ÿ
                                   15534              Ÿ      RF_PW_CHECK('password', 'account')                             Ÿ
                                   15535              Ÿ                                                                     Ÿ
                                   15536              Ÿ                                                                     Ÿ
                                   15537              Ÿ  SEE COMMENTS AT START OF MODULE.                                   Ÿ
                                   15538              Ÿ                                                                     Ÿ
                                                      ¾þþþþþþþþþþþþþþþþþþþþþþþþþþþþþþþþþþþþþþþþþþþþþþþþþþþþþþþþþþþþþþþþþþþþþ»
0000000                00000 00208 15539              DPASSWA  RECORD BEGIN
 000000                            15547  1           DPASKWR    DS    XL(L'KWR)           Working KWR area
                                   15548  1
 0001F8                            15549  1           DPASNARG   DS    F                   Number of arguments
 0001FC                            15550  1           DPASARGP   DS    F                   First ARG ptr
 000200                            15551  1           DPASKEY    DS    CL8                 Password
 000208                00208 00208 15552                       END
                                   15561              þþþþ
 001C1E 50E0 D000/9008_      00000 15562              FNPASSV  PROC  DPASSWA
 USING  *,R7
 USING  DPASSWA-(4+36),R8
                                   15612
 001C38 4140 8028            00000 15613                       LA    R4,DPASKWR
 USING  KWR,R4                     15614                       WITH  (KWR,R4)
 001C3C D7FF 4000 4000_00000 00000 15627                       CLEAR KWR
 001C48 D202 4000 B3B4 00000 003B4 15635                       MVC   KWRUSER,CPSUSER     Set logged...
 001C4E D201 4003 B3B7 00003 003B7 15636                       MVC   KWRGRP,CPSGRP       ...on account
                                   15637
 001C54 5000 8220            001F8 15638                       ST    R0,DPASNARG         Number of arguments
 001C58 5010 8224            001FC 15639                       ST    R1,DPASARGP         Start of args ptr
                                   15640
 001C5C 4120 73D0/58E0_      02008 15641                       SETARGS '12SS'            1-2 args: str, str
 001C66 4770 7140            01D78 15647                       BNZ   FNPSEXIT
                                   15648
 USING  VNENTRY,R5                 15649                       WITH  (VNENTRY,R5)
                                   15662                       ¿þþþþþþþþþþþþþþþþþþþþþþþþþþþþþþÜ
                                   15663                       Ÿ  Arg 1:  Password to check.  Ÿ
                                   15664                       ¾þþþþþþþþþþþþþþþþþþþþþþþþþþþþþþ»
 001C6A 4150 0000            00000 15665                       LA    R5,ARG1
 001C6E 5E50 8224            001FC 15666                       AL    R5,DPASARGP
                                   15667
 001C72 D207 8228 C4D8 00200 004D8 15668                       MVC   DPASKEY,CVBLANKS    Pre-blank
 001C78 4820 5024            00024 15669                       LH    R2,VNSTRLEN
 001C7C 5920 7400/47D0_      02038 15670                       CEIL  R2,L'DPASKEY        Not too much
 001C88 0620/4420 751C_            15689                       DEX   R2,'MVC DPASKEY(0),VNSTRLOC'  Copy string
 001C8E 5810 C8A8            008A8 15708                       L     R1,CVUPPTBL
 001C92 4420 7522/DC00_      0215A 15709                       EX    R2,'TR DPASKEY(0),@R1'   Convert to caps
                                   15725                       ¿þþþþþþþþþþþþþþþþþþþþþþþþþþþþþþþþþþþþþþþþþþþþþþþþþþþþþþþþþþþþþÜ
                                   15726                       Ÿ  Arg 2:  Account (use logged on account if not specified).  Ÿ
                                   15727                       ¾þþþþþþþþþþþþþþþþþþþþþþþþþþþþþþþþþþþþþþþþþþþþþþþþþþþþþþþþþþþþþ»
 001C96 D503 73D4 8220_0200C 001F8 15728                       IF    (DPASNARG,GE,2),BEGIN  Account specified...
 001CA0 4150 0150            00150 15746  1                      LA    R5,ARG2
 001CA4 5E50 8224            001FC 15747  1                      AL    R5,DPASARGP
1FUNC     (FUNC2193) (12:45) (15MAR04) System Routines for Functions                                                        Page   66
0Current Usings:  (KWR,R4) (VNENTRY,R5) (*,R7) (DPASSWA-(4+36),R8) (CP,R11) (CV,R12)
0Loc    Object Code    Addr1 Addr2  Stmt Lv Lineno    Source Statement           (Hibal 5, Asmedit 3.3)  HLASM R4.0  2004/03/15 12.45
+___    ______ ____    _____ _____  ____ __ ______    ______ _________
0                                  15748  1
 001CA8 4110 5026/4800_      00026 15749  1                      SETMSG VNSTRLOC,LH:VNSTRLEN  Account
 001CB0 58E0 73BC/0DEE       01FF4 15762  1                      VCALL LRTRIM              Strip blanks
 001CB6 5900 7404/4770_      0203C 15766  1                      IF    ((R0,NE,6),OR,(@R1+2,NE,'.')),BEGIN  Must be "gg.uuu"
 001CC6 D74F 6000 6000_00000 00000 15798  2                        VRETURN BOOLEAN,FALSE     Bad account format
 USING  VNENTRY,R6
 DROP   VNENTRY,R6
 001CD8 D7FF 4000 4000_00000 00000 15837  2                        CLEAR KWR,DPASKEY         (Tidy)
 001CEA 47F0 7140            01D78 15850  2                        B     FNPSEXIT            Scram
 001CEE                            15851  1                      END
                                   15855  1
 001CEE D201 4003 1000 00003 00000 15856  1                      MVC   KWRGRP,@R1          Save gg
 001CF4 D202 4000 1003 00000 00003 15857  1                      MVC   KWRUSER,@R1+3       Save uuu
 001CFA 5810 C8A8            008A8 15858  1                      L     R1,CVUPPTBL
 001CFE DC04 4000 1000 00000 00000 15859  1                      TR    KWRACCT,@R1         Convert KWRUSER/KWRGRP to caps
 001D04                            15860                       END
                                   15864                       ¿þþþþþþþþþþþþþþþþþþþþþþþþþþþþþþþþþþþþþþþþþþþþþþþþþþþþþþþþþþþÜ
                                   15865                       Ÿ  Read the keyword record and check for correct password.  Ÿ
                                   15866                       ¾þþþþþþþþþþþþþþþþþþþþþþþþþþþþþþþþþþþþþþþþþþþþþþþþþþþþþþþþþþþ»
 001D04 1814/4100 0040_            15867                       KREAD KWR
                                   15880
 001D10 41F0 0004            00004 15881                       LA    R15,4               Assume no match
 001D14 9180 400E/47E0_0000E       15882                       IF    KWRIFL.KWRIFVAL,BEGIN  Valid KWR record...
 001D1C D507 4070 8228_00070 00200 15898  1                      IF    (KWRPASS,EQ,DPASKEY),'CLEAR R15'  It matches
 001D28 70F4/47F0 70FE_01D28 01D24 15925  1                      ELSE  'VCALL WATCHKW; LA R15,4'  No match
 001D36                            15946                       END
                                   15950
 001D36 D7FF 4000 4000_00000 00000 15951                       CLEAR KWR,DPASKEY         (Tidy)
                                   15964
 001D48 12FF/4770 7128_            15965                       IF    (R15,Z),'VRETURN BOOLEAN,TRUE'
 USING  VNENTRY,R6
 DROP   VNENTRY,R6
 001D60 712C/47F0 713E_01D60 01D4C 16023                       ELSE  'VRETURN BOOLEAN,FALSE'
 USING  VNENTRY,R6
 DROP   VNENTRY,R6
                                   16078
 001D76 1BFF                       16079                       CLEAR R15                 A-ok
 001D78 18D8/9808 D004_            16083              FNPSEXIT PEND
 DROP   VNENTRY,R5
 DROP   KWR,R4
 DROP   DPASSWA-(4+36),R8
 DROP   *,R7
1FUNC     (FUNC2193) (12:45) (15MAR04) System Routines for Functions                                                        Page   67
0Current Usings:  (CP,R11) (CV,R12)
0Loc    Object Code    Addr1 Addr2  Stmt Lv Lineno    Source Statement           (Hibal 5, Asmedit 3.3)  HLASM R4.0  2004/03/15 12.45
+___    ______ ____    _____ _____  ____ __ ______    ______ _________
0                                  16120              ¿þþþþþþþþþþþþþþþþþþþþþþþþþþþþþþþþþþþþþþþþþþþþþþþþþþþþþþþþþþþþþþþþþþþþþÜ
                                   16121              Ÿ                                                                     Ÿ
                                   16122              Ÿ  RF_PW_PROMPT -- Routine to prompt for a user password.             Ÿ
                                   16123              Ÿ                                                                     Ÿ
                                   16124              Ÿ      RF_PW_PROMPT('prompt string', 'account')                       Ÿ
                                   16125              Ÿ                                                                     Ÿ
                                   16126              Ÿ  Returns:                                                           Ÿ
                                   16127              Ÿ      "OK"                                                           Ÿ
                                   16128              Ÿ      "WRONG"                                                        Ÿ
                                   16129              Ÿ      "ATTN"                                                         Ÿ
                                   16130              Ÿ                                                                     Ÿ
                                                      ¾þþþþþþþþþþþþþþþþþþþþþþþþþþþþþþþþþþþþþþþþþþþþþþþþþþþþþþþþþþþþþþþþþþþþþ»
0000000                00000 00200 16131              DPPWA    RECORD BEGIN
 000000                            16139  1           DPPKWR     DS    XL(L'KWR)           Working KWR area
                                   16140  1
 0001F8                            16141  1           DPPNARG    DS    F                   Number of arguments
 0001FC                            16142  1           DPPARGP    DS    F                   First ARG ptr
 000200                00200 00200 16143                       END
                                   16152              þþþþ
 001D86 50E0 D000/9008_      00000 16153              FNPASSP  PROC  DPPWA
 USING  *,R7
 USING  DPPWA-(4+36),R8
                                   16203
 001DA0 4140 8028            00000 16204                       LA    R4,DPPKWR
 USING  KWR,R4                     16205                       WITH  (KWR,R4)
 001DA4 D7FF 4000 4000_00000 00000 16218                       CLEAR KWR
 001DB0 D202 4000 B3B4 00000 003B4 16226                       MVC   KWRUSER,CPSUSER     Set logged...
 001DB6 D201 4003 B3B7 00003 003B7 16227                       MVC   KWRGRP,CPSGRP       ...on account
                                   16228
 001DBC 5000 8220            001F8 16229                       ST    R0,DPPNARG          Number of arguments
 001DC0 5010 8224            001FC 16230                       ST    R1,DPPARGP          Start of args ptr
                                   16231
 001DC4 4120 7268/58E0_      02008 16232                       SETARGS '12SS'            1-2 args: str, str
 001DCE 4770 7114            01EB4 16238                       BNZ   FNPPEXIT
                                   16239
 USING  VNENTRY,R5                 16240                       WITH  (VNENTRY,R5)
                                   16253                       ¿þþþþþþþþþþþþþþþþþþþþþþþþþþþþþþþþþÜ
                                   16254                       Ÿ  Arg 1:  Password prompt text.  Ÿ
                                   16255                       ¾þþþþþþþþþþþþþþþþþþþþþþþþþþþþþþþþþ»
 001DD2 4150 0000            00000 16256                       LA    R5,ARG1
 001DD6 5E50 8224            001FC 16257                       AL    R5,DPPARGP
                                   16258
 001DDA D601 5024 5024_00024 00024 16259                       IF    (VNSTRLEN,NZ),BEGIN
 001DE4 4110 7342/4100_      020E2 16275  1                      TSEG  'Non-standard password prompt not implemented.'
 001DF6 4120 0001/58E0_      00001 16293  1                      BADARG 1
 001E00 47F0 7114            01EB4 16304  1                      B     FNPPEXIT
 001E04                            16305                       END
                                   16309                       ¿þþþþþþþþþþþþþþþþþþþþþþþþþþþþþþþþþþþþþþþþþþþþþþþþþþþþþþþþþþþþþÜ
                                   16310                       Ÿ  Arg 2:  Account (use logged on account if not specified).  Ÿ
                                   16311                       ¾þþþþþþþþþþþþþþþþþþþþþþþþþþþþþþþþþþþþþþþþþþþþþþþþþþþþþþþþþþþþþ»
 001E04 D503 726C 8220_0200C 001F8 16312                       IF    (DPPNARG,GE,2),BEGIN  Account specified...
 001E0E 4150 0150            00150 16330  1                      LA    R5,ARG2
 001E12 5E50 8224            001FC 16331  1                      AL    R5,DPPARGP
1FUNC     (FUNC2193) (12:45) (15MAR04) System Routines for Functions                                                        Page   68
0Current Usings:  (KWR,R4) (VNENTRY,R5) (*,R7) (DPPWA-(4+36),R8) (CP,R11) (CV,R12)
0Loc    Object Code    Addr1 Addr2  Stmt Lv Lineno    Source Statement           (Hibal 5, Asmedit 3.3)  HLASM R4.0  2004/03/15 12.45
+___    ______ ____    _____ _____  ____ __ ______    ______ _________
0                                  16332  1
 001E16 4110 5026/4800_      00026 16333  1                      SETMSG VNSTRLOC,LH:VNSTRLEN  Account
 001E1E 58E0 7254/0DEE       01FF4 16346  1                      VCALL LRTRIM              Strip blanks
 001E24 5900 729C/4770_      0203C 16350  1                      IF    ((R0,NE,6),OR,(@R1+2,NE,'.')),BEGIN  Must be "gg.uuu"
 001E34 D74F 6000 6000_00000 00000 16382  2                        VRETURN STRING,'BAD ACCOUNT FORMAT'
 USING  VNENTRY,R6
 DROP   VNENTRY,R6
 001E58 47F0 7114            01EB4 16460  2                        B     FNPPEXIT            Scram
 001E5C                            16461  1                      END
                                   16465  1
 001E5C D201 4003 1000 00003 00000 16466  1                      MVC   KWRGRP,@R1          Save gg
 001E62 D202 4000 1003 00000 00003 16467  1                      MVC   KWRUSER,@R1+3       Save uuu
 001E68 5810 C8A8            008A8 16468  1                      L     R1,CVUPPTBL
 001E6C DC04 4000 1000 00000 00000 16469  1                      TR    KWRACCT,@R1         Convert KWRUSER/KWRGRP to caps
 001E72                            16470                       END
                                   16474                       ¿þþþþþþþþþþþþþþþþþþþþþþþþþþþþþþþþþþþþþþþþþþþþþþþþþþþþþþþþþþþÜ
                                   16475                       Ÿ  Read the keyword record and check for correct password.  Ÿ
                                   16476                       ¾þþþþþþþþþþþþþþþþþþþþþþþþþþþþþþþþþþþþþþþþþþþþþþþþþþþþþþþþþþþ»
 001E72 4800 730C            020AC 16477                       LH    R0,=H'-1'           GETKWR option
 001E76 4110 4000            00000 16478                       LA    R1,KWR
 001E7A 58E0 72A8/0DEE       02048 16479                       VCALL GETKWR              Get keyword record
 001E80 1BFF                       16483                       CLEAR R15                 Only returns if OK (shortcoming)
                                   16487
 001E82 D7FF 4000 4000_00000 00000 16488                       CLEAR KWR                 Tidy
                                   16496
 001E8E D74F 6000 6000_00000 00000 16497                       VRETURN STRING,'OK'
 USING  VNENTRY,R6
 DROP   VNENTRY,R6
                                   16575
 001EB2 1BFF                       16576                       CLEAR R15                 A-ok
 001EB4 18D8/9808 D004_            16580              FNPPEXIT PEND
 DROP   VNENTRY,R5
 DROP   KWR,R4
 DROP   DPPWA-(4+36),R8
 DROP   *,R7
1FUNC     (FUNC2193) (12:45) (15MAR04) System Routines for Functions                                                        Page   69
0Current Usings:  (CP,R11) (CV,R12)
0Loc    Object Code    Addr1 Addr2  Stmt Lv Lineno    Source Statement           (Hibal 5, Asmedit 3.3)  HLASM R4.0  2004/03/15 12.45
+___    ______ ____    _____ _____  ____ __ ______    ______ _________
0                                  16617              ¿þþþþþþþþþþþþþþþþþþþþþþþþþþþþþþþþþþþþþþþþþþþþþþþþþþþþþþþþþþþþþþþþþþþþþÜ
                                   16618              Ÿ                                                                     Ÿ
                                   16619              Ÿ                                                                     Ÿ
                                   16620              Ÿ  DISPLAY - DISPLAY VARIABLE VALUE IN HEX                            Ÿ
                                   16621              Ÿ                                                                     Ÿ
                                   16622              Ÿ                                                                     Ÿ
                                   16623              Ÿ  SEE COMMENTS AT START OF THIS MODULE                               Ÿ
                                   16624              Ÿ                                                                     Ÿ
                                                      ¾þþþþþþþþþþþþþþþþþþþþþþþþþþþþþþþþþþþþþþþþþþþþþþþþþþþþþþþþþþþþþþþþþþþþþ»
0000000                00000 000EB 16625              FNDSWA   RECORD BEGIN
                                   16633  1           FNDSTEMP   DS    CL(&LINESZ)         TEMP WORK AREA
 000000                                   1          +FNDSTEMP   DS    CL(235)             TEMP WORK AREA
 0000EB                000EB 000EB 16634                       END
                                   16643              *
                                   16644              *
 001EC2 50E0 D000/9008_      00000 16645              FNDISPLY PROC  FNDSWA
 USING  *,R7
 USING  FNDSWA-(4+36),R8
 USING  VNENTRY,R5                 16695                       USING VNENTRY,R5
 001EDC 4120 7233/58E0_      0210F 16704                       SETARGS '11X'             DO NOT CHANGE ARG TYPE
 001EE6 4770 70EE            01FCA 16710                       IF    Z,BEGIN
 001EEA 4151 0000            00000 16721  1                      LA    R5,ARG1(R1)
 001EEE 9501 5020/4770_00020       16722  1                      IF    VNSTRING,BEGIN      IF STRING,
 001EF6 4800 5024            00024 16737  2                        LH    R0,VNSTRLEN
 001EFA 5900 7170/47D0_      0204C 16738  2                        IF    (R0,GT,116),BEGIN
 001F02 4110 7236/4100_      02112 16755  3                          TSEG  'String overflow. '
 001F14 4120 0001/58E0_      00001 16773  3                          BADARG 1
 001F1E 47F0 70EE            01FCA 16784  3                          EXIT  FNDISPLY
 001F22                            16787  2                        END
 001F22 4110 5026            00026 16791  2                        LA    R1,VNSTRLOC
 001F26 4120 8028            00000 16792  2                        LA    R2,FNDSTEMP
 001F2A 58E0 7174/0DEE       02050 16793  2                        VCALL MAKECHAR               CONVERT TO HEX CHARS IN TEMP
 001F30 D74F 6000 6000_00000 00000 16797  2                        VRETURN STRING,(R2),(R0)     RETURN STRING
 USING  VNENTRY,R6
 DROP   VNENTRY,R6
 001F4E                            16882  1                      END
                                   16886  1           *$
                                   16887  1           *$ note: display number !@!
                                   16888  1           *$ hex display of integer part only !! oh yeah !! delete line no
                                   16889  1           *$ part,, do it to it bud,, ax it jack !
                                   16890  1           *$
 001F4E 9502 5020/4770_00020       16891  1                      IF    VNNUMB,BEGIN        IF NUMBER
 001F56 D503 502B 7178 0002B 02054 16906  2                        CLC   VNVALUE+7(4),=X'00000000'
 001F5C 4780 7090            01F6C 16907  2                        IF    NE,BEGIN            IF LINENO (IE. FRACTIONAL PART)
 001F60 1825                       16918  3                          LR    R2,R5
 001F62 58E0 717C/0DEE       02058 16919  3                          VCALL MAKELNO
 001F68 4770 70EE            01FCA 16923  3                          BNZ   FNDSDONE
 001F6C                            16924  2                        END
 001F6C 7094/47F0 70A0 01F6C 01F5E 16928  2                        ELSE  BEGIN ,,            IF INTEGER,, DECIMAL
 001F70 1825                       16939  3                          LR    R2,R5
 001F72 58E0 7180/0DEE       0205C 16940  3                          VCALL MAKEINT
 001F78 4770 70EE            01FCA 16944  3                          BNZ   FNDSDONE               *** NOTE DECIMAL ONLY DISPLAYS
 001F7C                            16945  2                        END   ,                      WHOLE PART IN HEX,, JUST LIKE
1FUNC     (FUNC2193) (12:45) (15MAR04) System Routines for Functions                                                        Page   70
0Current Usings:  (VNENTRY,R5) (*,R7) (FNDSWA-(4+36),R8) (CP,R11) (CV,R12)
0Loc    Object Code    Addr1 Addr2  Stmt Lv Lineno    Source Statement           (Hibal 5, Asmedit 3.3)  HLASM R4.0  2004/03/15 12.45
+___    ______ ____    _____ _____  ____ __ ______    ______ _________
0001F7C 4100 0004            00004 16949  2                        LA    R0,4                   AN INTEGER
 001F80 4110 5024            00024 16950  2                        LA    R1,VNVALUE
 001F84 4120 8028            00000 16951  2                        LA    R2,FNDSTEMP
 001F88 58E0 7174/0DEE       02050 16952  2                        VCALL MAKECHAR               CONVERT TO HEX CHARS IN TEMP
 001F8E D74F 6000 6000_00000 00000 16956  2                        VRETURN STRING,(R2),(R0)     RETURN STRING
 USING  VNENTRY,R6
 DROP   VNENTRY,R6
 001FAC                            17041  1                      END
 001FAC 9503 5020/4770_00020       17045  1                      IF    VNBOOL,BEGIN        IF BOOLEAN, NO DISPLAY
 001FB4 4110 7184/4100_      02060 17060  2                        TSEG  'Boolean values may not be displayed in hex. '
 001FC6 41F0 0004            00004 17078  2                        LA    R15,4
 001FCA                            17079  1                      END
 001FCA                            17083                       END
                                   17087
 001FCA                            17088              FNDSDONE LABEL ,
 001FCA 18D8/9808 D004_            17090                       PEND
 DROP   FNDSWA-(4+36),R8
 DROP   *,R7
 DROP   VNENTRY,R5                 17115                       DROP  R5
1FUNC     (FUNC2193) (12:45) (15MAR04) System Routines for Functions                                                        Page   71
0Current Usings:  (CP,R11) (CV,R12)
0Loc    Object Code    Addr1 Addr2  Stmt Lv Lineno    Source Statement           (Hibal 5, Asmedit 3.3)  HLASM R4.0  2004/03/15 12.45
+___    ______ ____    _____ _____  ____ __ ______    ______ _________
0                                  17123                       QLTORG
1FUNC     (FUNC2193) (12:45) (15MAR04) System Routines for Functions                                                        Page   72
0Current Usings:  (CP,R11) (CV,R12)
0Loc    Object Code    Addr1 Addr2  Stmt Lv Lineno    Source Statement           (Hibal 5, Asmedit 3.3)  HLASM R4.0  2004/03/15 12.45
+___    ______ ____    _____ _____  ____ __ ______    ______ _________
0                                  17179              ¿þþþþþþþþþþþþþþþþþþþþþþþþþþþþþþþþþþþþþþþþþþþþþþþþþþþþþþþþþþþþþþþþþþþþþÜ
                                   17180              Ÿ                                                                     Ÿ
                                   17181              Ÿ                                                                     Ÿ
                                   17182              Ÿ  DSNDEQ(string) -- Dequeue on the data set.                         Ÿ
                                   17183              Ÿ                                                                     Ÿ
                                   17184              Ÿ  See comments at start of this module                               Ÿ
                                   17185              Ÿ                                                                     Ÿ
                                                      ¾þþþþþþþþþþþþþþþþþþþþþþþþþþþþþþþþþþþþþþþþþþþþþþþþþþþþþþþþþþþþþþþþþþþþþ»
0002178 50E0 D000/9008_      00000 17186              FNDSNDEQ PROC
 USING  *,R7
 002192 58E0 B08C/D2AF_      0008C 17225                       SCPUSH ,
 0021A0 4120 745E/58E0_      025F0 17231                       SETARGS '11S'             Get string argument
 0021AA 4770 70F6            02288 17237                       IF    Z,BEGIN             If ok, process
 0021AE 9130 B3BE/4780_003BE       17248  1                      IF    (CPSFSPR+CPSFOPR,Z),FNDSNDQZ
 0021B6 9610 BD5C      00D5C       17271  1                      SET   CPFDSNNE            Suppress error exits in dsn proc
 USING  VNENTRY,R5                 17277  1                      WITH  (VNENTRY,R5),BEGIN
 0021BA 4150 1000            00000 17291  2                        LA    R5,@R1+ARG1         Address argument
 0021BE 4110 5026/4800_      00026 17292  2                        SCINIT VNSTRLOC,LH:VNSTRLEN
 DROP   VNENTRY,R5                 17315  1                      END
 0021D4 58E0 7422/0DEE       025B4 17323  1                      VCALL DODSNM              Process dsname
 0021DA 9108 BD5C/4710_00D5C       17327  1                      IF    CPFDSNBD,FNDSNDQE
 0021E2 5810 B08C/1B00_      0008C 17345  1                      SCAN  FNDEQPRT            Find any overrides
 002234 12FF/4770 7122             17377  1                      IF    (R15,NZ),FNDSNDQE
 00223A 9108 BD5C/4710_00D5C       17394  1                      IF    CPFDSNBD,FNDSNDQE
 002242 58E0 742E/0DEE       025C0 17412  1                      VCALL DSNFIN              Finish dsname processing
 002248 9108 BD5C/4710_00D5C       17416  1                      IF    CPFDSNBD,FNDSNDQE
 002250 58E0 7432/0DEE       025C4 17434  1                      VCALL DDEQ                Dequeue dsname
 002256 4110 7454/4100_      025E6 17438  1                      SETMSG 'OK'                Assume "OK"
 00225E 12FF/4780 70DA_            17442  1                      IF    (R15,NZ),'SETMSG "NOT ENQUEUED"'
 00226C D74F 6000 6000_00000 00000 17465  1                      VRETURN STRING,(R1),(R0)
 USING  VNENTRY,R6
 DROP   VNENTRY,R6
 002288                            17549                       END
 002288 47F0 714A            022DC 17553                       B     FNDSNDQX
                                   17554              *
                                   17555              *  EXITS
                                   17556              *
 00228C                            17557              FNDSNDQZ LABEL ,
 00228C D74F 6000 6000_00000 00000 17559                       VRETURN STRING,'INVALID FUNCTION'
 USING  VNENTRY,R6
 DROP   VNENTRY,R6
 0022B0 47F0 714A            022DC 17637                       B     FNDSNDQX
                                   17638
 0022B4                            17639              FNDSNDQE LABEL ,
 0022B4 D74F 6000 6000_00000 00000 17641                       VRETURN STRING,'BAD DSN'
 USING  VNENTRY,R6
 DROP   VNENTRY,R6
 0022D8 47F0 714A            022DC 17719                       B     FNDSNDQX
                                   17720
 0022DC 58E0 B08C/4BD0_      0008C 17721              FNDSNDQX SCPOP ,                   Restore scanner
 0022EA 18D8/9808 D004_            17727                       PEND
 DROP   *,R7
                                   17747              *
1FUNC     (FUNC2193) (12:45) (15MAR04) System Routines for Functions                                                        Page   73
0Current Usings:  (CP,R11) (CV,R12)
0Loc    Object Code    Addr1 Addr2  Stmt Lv Lineno    Source Statement           (Hibal 5, Asmedit 3.3)  HLASM R4.0  2004/03/15 12.45
+___    ______ ____    _____ _____  ____ __ ______    ______ _________
0                                  17748              *  SCAN DSN NAME
                                   17749              *
 0022F8 4040404040404040_          17750              FNDEQPRT SCKW  ,V(DSNPSH),PUSH
 002320 4040404040404040_          17765                       SCKW  ,FNDSNDQB
                                   17780
 002348 50E0 D000/9008_      00000 17781              FNDSNDQB DPROC ,
 USING  *,R7
 002362 41F0 0004            00004 17821                       LA    R15,4
 002366 18D8/9808 D004_            17822                       PEND
 DROP   *,R7
1FUNC     (FUNC2193) (12:45) (15MAR04) System Routines for Functions                                                        Page   74
0Current Usings:  (CP,R11) (CV,R12)
0Loc    Object Code    Addr1 Addr2  Stmt Lv Lineno    Source Statement           (Hibal 5, Asmedit 3.3)  HLASM R4.0  2004/03/15 12.45
+___    ______ ____    _____ _____  ____ __ ______    ______ _________
0                                  17843              ¿þþþþþþþþþþþþþþþþþþþþþþþþþþþþþþþþþþþþþþþþþþþþþþþþþþþþþþþþþþþþþþþþþþþþþÜ
                                   17844              Ÿ                                                                     Ÿ
                                   17845              Ÿ                                                                     Ÿ
                                   17846              Ÿ  DSNENQ(string) -- Enqueue on the data set.                         Ÿ
                                   17847              Ÿ                                                                     Ÿ
                                   17848              Ÿ  See comments at start of this module                               Ÿ
                                   17849              Ÿ                                                                     Ÿ
                                                      ¾þþþþþþþþþþþþþþþþþþþþþþþþþþþþþþþþþþþþþþþþþþþþþþþþþþþþþþþþþþþþþþþþþþþþþ»
0002374 50E0 D000/9008_      00000 17850              FNDSNENQ PROC
 USING  *,R7
 00238E 58E0 B08C/D2AF_      0008C 17889                       SCPUSH ,
 00239C 4120 7262/58E0_      025F0 17895                       SETARGS '11S'             Get string argument
 0023A6 4770 7124            024B2 17901                       IF    Z,BEGIN             If ok, process
 0023AA 9130 B3BE/4780_003BE       17912  1                      IF    (CPSFSPR+CPSFOPR,Z),FNDSNEQZ
 0023B2 9610 BD5C      00D5C       17935  1                      SET   CPFDSNNE            Suppress error exits in dsn proc
 USING  VNENTRY,R5                 17941  1                      WITH  (VNENTRY,R5),BEGIN
 0023B6 4150 1000            00000 17955  2                        LA    R5,@R1+ARG1         Address argument
 0023BA 4110 5026/4800_      00026 17956  2                        SCINIT VNSTRLOC,LH:VNSTRLEN
 DROP   VNENTRY,R5                 17979  1                      END
 0023D0 58E0 7226/0DEE       025B4 17987  1                      VCALL DODSNM              Process dsname
 0023D6 9108 BD5C/4710_00D5C       17991  1                      IF    CPFDSNBD,FNDSNEQE
 0023DE 5810 B08C/1B00_      0008C 18009  1                      SCAN  FNENQPRT            Find any overrides
 002430 12FF/4770 7150             18041  1                      IF    (R15,NZ),FNDSNEQE
 002436 9108 BD5C/4710_00D5C       18058  1                      IF    CPFDSNBD,FNDSNEQE
 00243E 58E0 7232/0DEE       025C0 18076  1                      VCALL DSNFIN              Finish dsname processing
 002444 9108 BD5C/4710_00D5C       18080  1                      IF    CPFDSNBD,FNDSNEQE
                                   18098  1
 00244C 1BFF                       18099  1                      CLEAR R15                 Flag: permanent ENQ
 00244E 58E0 724A/0DEE       025D8 18103  1                      VCALL DENQ                Enqueue on data set
 002454 12FF/4770 70D4_            18107  1                      IF    (R15,Z),'SETMSG "OK"'
 002462 70D8/47F0 70E8_02462 02458 18130  1                      ELSEIF (R15,EQ,4),'SETMSG "NOT YOURS"'
 002476 70EC/47F0 70FC_02476 0246C 18165  1                      ELSEIF (R15,EQ,8),'SETMSG "IN USE"'
 00248A 7100/47F0 7108_0248A 02480 18200  1                      ELSE  'SETMSG "ERROR"'
                                   18220  1
 002496 D74F 6000 6000_00000 00000 18221  1                      VRETURN STRING,(R1),(R0)
 USING  VNENTRY,R6
 DROP   VNENTRY,R6
 0024B2                            18305                       END
 0024B2 47F0 7178            02506 18309                       B     FNDSNEQX
                                   18310              *
                                   18311              * EXITS
                                   18312              *
 0024B6                            18313              FNDSNEQZ LABEL ,
 0024B6 D74F 6000 6000_00000 00000 18315                       VRETURN STRING,'INVALID FUNCTION'
 USING  VNENTRY,R6
 DROP   VNENTRY,R6
 0024DA 47F0 7178            02506 18393                       B     FNDSNEQX
                                   18394
 0024DE                            18395              FNDSNEQE LABEL ,
 0024DE D74F 6000 6000_00000 00000 18397                       VRETURN STRING,'BAD DSN'
 USING  VNENTRY,R6
 DROP   VNENTRY,R6
 002502 47F0 7178            02506 18475                       B     FNDSNEQX
1FUNC     (FUNC2193) (12:45) (15MAR04) System Routines for Functions                                                        Page   75
0Current Usings:  (*,R7) (CP,R11) (CV,R12)
0Loc    Object Code    Addr1 Addr2  Stmt Lv Lineno    Source Statement           (Hibal 5, Asmedit 3.3)  HLASM R4.0  2004/03/15 12.45
+___    ______ ____    _____ _____  ____ __ ______    ______ _________
0                                  18476
 002506                            18477              FNDSNEQX LABEL ,                   Restore scanner
 002506 58E0 B08C/4BD0_      0008C 18479                       SCPOP ,
 002514 18D8/9808 D004_            18485                       PEND
 DROP   *,R7
                                   18505              *
                                   18506              *  SCAN DSN NAME
                                   18507              *
 002524 4040404040404040_          18508              FNENQPRT SCKW  ,V(DSNPSH),PUSH
 00254C 4040404040404040_          18523                       SCKW  ,FNDSNEQB
                                   18538
 002574 50E0 D000/9008_      00000 18539              FNDSNEQB DPROC ,
 USING  *,R7
 00258E 41F0 0004            00004 18579                       LA    R15,4
 002592 18D8/9808 D004_            18580                       PEND
 DROP   *,R7
                                   18600                       QLTORG ,
1FUNC     (FUNC2193) (12:45) (15MAR04) System Routines for Functions                                                        Page   76
0Current Usings:  (CP,R11) (CV,R12)
0Loc    Object Code    Addr1 Addr2  Stmt Lv Lineno    Source Statement           (Hibal 5, Asmedit 3.3)  HLASM R4.0  2004/03/15 12.45
+___    ______ ____    _____ _____  ____ __ ______    ______ _________
0                                  18633              ¿þþþþþþþþþþþþþþþþþþþþþþþþþþþþþþþþþþþþþþþþþþþþþþþþþþþþþþþþþþþþþþþþþþþþþÜ
                                   18634              Ÿ                                                                     Ÿ
                                   18635              Ÿ                                                                     Ÿ
                                   18636              Ÿ  Expand String to Full Dsname                                       Ÿ
                                   18637              Ÿ                                                                     Ÿ
                                   18638              Ÿ  See comments at start of this module                               Ÿ
                                   18639              Ÿ                                                                     Ÿ
                                                      ¾þþþþþþþþþþþþþþþþþþþþþþþþþþþþþþþþþþþþþþþþþþþþþþþþþþþþþþþþþþþþþþþþþþþþþ»
000262C 50E0 D000/9008_      00000 18640              FNDSNFMT PROC
 USING  *,R7
 002646 58E0 B08C/D2AF_      0008C 18679                       SCPUSH ,
 002654 4120 71F2/58E0_      02838 18685                       SETARGS '11S'             Get string argument
 00265E 4770 7108            0274E 18691                       IF    Z,BEGIN             If ok, process
 002662 9610 BD5C      00D5C       18702  1                      SET   CPFDSNNE            Suppress error exits in dsn proc
 USING  VNENTRY,R5                 18708  1                      WITH  (VNENTRY,R5),BEGIN
 002666 4150 1000            00000 18722  2                        LA    R5,@R1+ARG1         Address argument
 00266A 4110 5026/4800_      00026 18723  2                        SCINIT VNSTRLOC,LH:VNSTRLEN
 DROP   VNENTRY,R5                 18746  1                      END
 002680 58E0 71D6/0DEE       0281C 18754  1                      VCALL FNAMESCN            Get the filename
 002686 12FF/4780 7056             18758  1                      IF    (R15,NZ),BEGIN
 00268C 58E0 B08C/D703_      0008C 18772  2                        SCSEGCLR
 002698 47F0 710C            02752 18781  2                        B     FNDSNFME
 00269C                            18782  1                      END
 00269C 5810 B08C/1B00_      0008C 18786  1                      SCAN  FNDSNPRT            Find any overrides
 0026EE 12FF/4770 710C             18818  1                      IF    (R15,NZ),FNDSNFME
                                   18835  1                      COMMENT                   FINISH FILE NAME PROCESSING
 0026F4 58E0 71E2/0DEE       02828 18836  1                      VCALL FNAMEFIN
 0026FA 5840 BE54            00E54 18840  1                      L     R4,CPFINFOP
 USING  FFINFO,R4                  18841  1                      USING FFINFO,R4
 0026FE 9501 4000/4770_00000       18850  1                      IF    (~FFFWINGS),FNDSNFME
 002706 58E0 71E6/0DEE       0282C 18868  1                      VCALL NRESOLVE
 00270C 12FF/4780 70E6             18872  1                      IF    (R15,NZ),BEGIN
 002712 58E0 B08C/D703_      0008C 18886  2                        SCSEGCLR
 00271E 41F0 B050/58E0_      00050 18895  2                        TCLEAR
 002728 47F0 710C            02752 18909  2                        B     FNDSNFME
 00272C                            18910  1                      END
 USING  VNENTRY,R6                 18914  1                      WITH  (VNENTRY,R6),BEGIN
 00272C D74F 6000 6000 00000 00000 18928  2                        CLEAR VNENTRY
 002732 9201 6020      00020       18935  2                        SET   VNSTRING            Returned value is a string
 002736 5820 4214            00214 18941  2                        L     R2,FFRNAMEL
 00273A 4020 6024            00024 18942  2                        STH   R2,VNSTRLEN
 00273E 18F2                       18943  2                        LR    R15,R2
 002740 06F0/12FF/4740_            18944  2                        MOVE  R15,VNSTRLOC,FFRNAME
 DROP   VNENTRY,R6                 18982  1                      END
 00274C 1BFF                       18990  1                      CLEAR R15
 00274E                            18994                       END
 00274E 47F0 7134            0277A 18998                       B     FNDSNFMX
                                   18999              *
                                   19000              *  EXITS
                                   19001              *
 002752 D74F 6000 6000_00000 00000 19002              FNDSNFME VRETURN STRING,'BAD DSN'
 USING  VNENTRY,R6
 DROP   VNENTRY,R6
1FUNC     (FUNC2193) (12:45) (15MAR04) System Routines for Functions                                                        Page   77
0Current Usings:  (FFINFO,R4) (*,R7) (CP,R11) (CV,R12)
0Loc    Object Code    Addr1 Addr2  Stmt Lv Lineno    Source Statement           (Hibal 5, Asmedit 3.3)  HLASM R4.0  2004/03/15 12.45
+___    ______ ____    _____ _____  ____ __ ______    ______ _________
0002776 47F0 7134            0277A 19080                       B     FNDSNFMX
                                   19081
 00277A 58E0 B08C/4BD0_      0008C 19082              FNDSNFMX SCPOP ,                   Restore scanner
 002788 18D8/9808 D004_            19088                       PEND
 DROP   *,R7
                                   19108              *
                                   19109              *  SCAN DSN NAME
                                   19110              *
 002798 4040404040404040_          19111              FNDSNPRT SCKW  ,V(FNAMPSH),PUSH
 0027C0 4040404040404040_          19126                       SCKW  ,FNDSNFMB
                                   19141
 0027E8 50E0 D000/9008_      00000 19142              FNDSNFMB DPROC ,
 USING  *,R7
 002802 41F0 0004            00004 19182                       LA    R15,4
 002806 18D8/9808 D004_            19183                       PEND
 DROP   *,R7
                                   19203                       QLTORG ,
1FUNC     (FUNC2193) (12:45) (15MAR04) System Routines for Functions                                                        Page   78
0Current Usings:  (FFINFO,R4) (CP,R11) (CV,R12)
0Loc    Object Code    Addr1 Addr2  Stmt Lv Lineno    Source Statement           (Hibal 5, Asmedit 3.3)  HLASM R4.0  2004/03/15 12.45
+___    ______ ____    _____ _____  ____ __ ______    ______ _________
0                                  19227              ¿þþþþþþþþþþþþþþþþþþþþþþþþþþþþþþþþþþþþþþþþþþþþþþþþþþþþþþþþþþþþþþþþþþþþþÜ
                                   19228              Ÿ                                                                     Ÿ
                                   19229              Ÿ  DSNPROT(dsname) -- Routine to return the type of data set          Ÿ
                                   19230              Ÿ    protection being used for the data set specified.  The           Ÿ
                                   19231              Ÿ    function will return one of the following:                       Ÿ
                                   19232              Ÿ                                                                     Ÿ
                                   19233              Ÿ         NONE - not protected by any security system                 Ÿ
                                   19234              Ÿ         STANFORD - protected by the Stanford security system        Ÿ
                                   19235              Ÿ         RACF - protected by the RACF security system                Ÿ
                                   19236              Ÿ                                                                     Ÿ
                                                      ¾þþþþþþþþþþþþþþþþþþþþþþþþþþþþþþþþþþþþþþþþþþþþþþþþþþþþþþþþþþþþþþþþþþþþþ»
000284E 50E0 D000/9008_      00000 19237              FNDPROT  PROC  ,
 USING  *,R7
 002868 58E0 B08C/D2AF_      0008C 19276                       SCPUSH ,
 002876 4120 71F4/58E0_      02A5C 19282                       SETARGS '11S'             Args: 1 string
 002880 4770 7104            0296C 19288                       IF    Z,BEGIN
                                   19299  1
 002884 9610 BD5C      00D5C       19300  1                      SET   CPFDSNNE            Suppress error exits in dsn proc
 USING  VNENTRY,R5                 19306  1                      WITH  (VNENTRY,R5),BEGIN
 002888 4150 1000            00000 19320  2                        LA    R5,@R1+ARG1
 00288C 4110 5026/4800_      00026 19321  2                        SCINIT VNSTRLOC,LH:VNSTRLEN  First argument to function
 DROP   VNENTRY,R5                 19344  1                      END
                                   19352  1                      ¿þþþþþþþþþþþþþþþþþþþþþþþþþþþþþþþþÜ
                                   19353  1                      Ÿ  Scan 1st argument as dsname.  Ÿ
                                   19354  1                      ¾þþþþþþþþþþþþþþþþþþþþþþþþþþþþþþþþ»
 0028A2 58E0 71D4/0DEE       02A3C 19355  1                      VCALL DODSNM              Scan dsname
 0028A8 9108 BD5C/4710_00D5C       19359  1                      IF    CPFDSNBD,FNDSNPRE
 0028B0 5810 B08C/1B00_      0008C 19377  1                      SCAN  FNDSPPRT            Scan overrides
 002902 12FF/4770 7108             19409  1                      IF    (R15,NZ),FNDSNPRE
 002908 9108 BD5C/4710_00D5C       19426  1                      IF    CPFDSNBD,FNDSNPRE
 002910 58E0 71E0/0DEE       02A48 19444  1                      VCALL DSNFIN              Finish dsname processing
 002916 9108 BD5C/4710_00D5C       19448  1                      IF    CPFDSNBD,FNDSNPRE
                                   19466  1
 00291E 58E0 71E4/0DEE       02A4C 19467  1                      VCALL SECSYS              Check for security system
 002924 4770 70C8/4110_      02930 19471  1                      IF    Z,'SETMSG "RACF"'                Protected by RACF
 002930 70CC/47F0 70DC_02930 02926 19491  1                      ELSEIF (R15,EQ,4),'SETMSG "Stanford"' Protected by Stanford
 002944 70E0/47F0 70E8_02944 0293A 19526  1                      ELSE  'SETMSG "Unknown"'            Unknown protection
                                   19546  1
 002950 D74F 6000 6000_00000 00000 19547  1                      VRETURN STRING,(R1),(R0)
 USING  VNENTRY,R6
 DROP   VNENTRY,R6
 00296C                            19631                       END
 00296C 47F0 7130            02998 19635                       B     FNDSNPRX
                                   19636              *
                                   19637              *  EXITS
                                   19638              *
 002970                            19639              FNDSNPRE LABEL ,
 002970 D74F 6000 6000_00000 00000 19641                       VRETURN STRING,'BAD DSN'
 USING  VNENTRY,R6
 DROP   VNENTRY,R6
 002994 47F0 7130            02998 19719                       B     FNDSNPRX
                                   19720
 002998 58E0 B08C/4BD0_      0008C 19721              FNDSNPRX SCPOP ,
1FUNC     (FUNC2193) (12:45) (15MAR04) System Routines for Functions                                                        Page   79
0Current Usings:  (FFINFO,R4) (CP,R11) (CV,R12)
0Loc    Object Code    Addr1 Addr2  Stmt Lv Lineno    Source Statement           (Hibal 5, Asmedit 3.3)  HLASM R4.0  2004/03/15 12.45
+___    ______ ____    _____ _____  ____ __ ______    ______ _________
00029A6 18D8/9808 D004_            19727                       PEND
 DROP   *,R7
                                   19747              *
                                   19748              *  SCAN DSN NAME
                                   19749              *
 0029B4 4040404040404040_          19750              FNDSPPRT SCKW  ,V(DSNPSH),PUSH
 0029DC 4040404040404040_          19765                       SCKW  ,FNDSNPRB
                                   19780
 002A04 50E0 D000/9008_      00000 19781              FNDSNPRB DPROC ,
 USING  *,R7
 002A1E 41F0 0004            00004 19821                       LA    R15,4
 002A22 18D8/9808 D004_            19822                       PEND
 DROP   *,R7
                                   19842                       QLTORG ,
1FUNC     (FUNC2193) (12:45) (15MAR04) System Routines for Functions                                                        Page   80
0Current Usings:  (FFINFO,R4) (CP,R11) (CV,R12)
0Loc    Object Code    Addr1 Addr2  Stmt Lv Lineno    Source Statement           (Hibal 5, Asmedit 3.3)  HLASM R4.0  2004/03/15 12.45
+___    ______ ____    _____ _____  ____ __ ______    ______ _________
0                                  19869              ¿þþþþþþþþþþþþþþþþþþþþþþþþþþþþþþþþþþþþþþþþþþþþþþþþþþþþþþþþþþþþþþþþþþþþþÜ
                                   19870              Ÿ                                                                     Ÿ
                                   19871              Ÿ                                                                     Ÿ
                                   19872              Ÿ  Get DSCB info for a Dataset on the System                          Ÿ
                                   19873              Ÿ                                                                     Ÿ
                                   19874              Ÿ  See comments at start of this module                               Ÿ
                                   19875              Ÿ                                                                     Ÿ
                                                      ¾þþþþþþþþþþþþþþþþþþþþþþþþþþþþþþþþþþþþþþþþþþþþþþþþþþþþþþþþþþþþþþþþþþþþþ»
0000000                00000 00044 19876              SDSNBUF  RECORD 'SDSNBUF'
 000000                            19886  1 03-SDSNB +SBUF       DS    0D                  output buffer for show dsnames
 000000                            19887  1 03-SDSNB +SBDSN      DS    CL44                dsname
 00002C                            19888  1 03-SDSNB +SBCRDT     DS    CL3                 creation date
 00002F                            19889  1 03-SDSNB +SBEXDT     DS    CL3                 last access date
 000032                            19890  1 03-SDSNB +SBNOEX     DS    CL1                 no. of extents
 000033                            19891  1 03-SDSNB +SBDSORG    DS    CL2                 DSORG
 000035                            19892  1 03-SDSNB +SBDSIND    DS    X                   Data set indicators
                                   19893  1 03-SDSNB +SBWSB      EQU   X'02'               - File written since last backup
 000036                            19894  1 03-SDSNB +SBRECFM    DS    CL1                 recfm
 000037                            19895  1 03-SDSNB +SBKEYL     DS    CL1                 key length
 000038                            19896  1 03-SDSNB +SBLRECL    DS    H                   lrecl
 00003A                            19897  1 03-SDSNB +SBBLKSZ    DS    H                   blksize
 00003C                            19898  1 03-SDSNB +SBLB       DS    0H,CL5              last block - ttrll
 000041                            19899  1 03-SDSNB +SBACCTG    DS    CL1                 accounted for flag
 000042                            19900  1 03-SDSNB +SPTRK      DS    H                   tracks alloc
                                   19901  1          +
 000044                00044 00044 19902    03-SDSNB +SBSZ     EQU   *-SBUF              ** must be halfword multiple **
-002A7A 50E0 D000/9008_      00000 19913              FNDSNINF PROC  FNWA
 USING  *,R7
 USING  FNWA-(4+36),R8
 002A94 58E0 B08C/D2AF_      0008C 19963                       SCPUSH ,
 002AA2 4120 736C/58E0_      02E00 19969                       SETARGS '11S'             Get string argument
 002AAC 4770 71EA            02C7E 19975                       IF    Z,BEGIN             If ok, process
 002AB0 9610 BD5C      00D5C       19986  1                      SET   CPFDSNNE            Suppress error exits in dsn proc
 USING  VNENTRY,R5                 19992  1                      WITH  (VNENTRY,R5),BEGIN
 002AB4 4150 1000            00000 20006  2                        LA    R5,@R1+ARG1         Address argument
 002AB8 4110 5026/4800_      00026 20007  2                        SCINIT VNSTRLOC,LH:VNSTRLEN
 DROP   VNENTRY,R5                 20030  1                      END
 002ACE 58E0 7328/0DEE       02DBC 20038  1                      VCALL FNAMESCN            Get the filename
 002AD4 12FF/4780 7056             20042  1                      IF    (R15,NZ),BEGIN
 002ADA 58E0 B08C/D703_      0008C 20056  2                        SCSEGCLR
 002AE6 47F0 71EE            02C82 20065  2                        B     FNDSNINE
 002AEA                            20066  1                      END
 002AEA 5810 B08C/1B00_      0008C 20070  1                      SCAN  FNDSIPRT            Find any overrides
 002B3C 12FF/4770 71EE             20102  1                      IF    (R15,NZ),FNDSNINE
                                   20119  1                      COMMENT                   FINISH FILE NAME PROCESSING
 002B42 58E0 7334/0DEE       02DC8 20120  1                      VCALL FNAMEFIN
 002B48 5840 BE54            00E54 20124  1                      L     R4,CPFINFOP
                                   20125  1                      USING FFINFO,R4
 002B4C 9501 4000/4770_00000       20127  1                      IF    (~FFFWINGS),FNDSNINE
                                   20145  1
 002B54 183D/41D0 D200             20146  1                      XPUSH ,,L'SHDSARGS,PTR=R3
1FUNC     (FUNC2193) (12:45) (15MAR04) System Routines for Functions                                                        Page   81
0Current Usings:  (SHDSARGS,R3) (FFINFO,R4) (*,R7) (FNWA-(4+36),R8) (CP,R11) (CV,R12)
0Loc    Object Code    Addr1 Addr2  Stmt Lv Lineno    Source Statement           (Hibal 5, Asmedit 3.3)  HLASM R4.0  2004/03/15 12.45
+___    ______ ____    _____ _____  ____ __ ______    ______ _________
0USING  SHDSARGS,R3                20149  1                      WITH  (SHDSARGS,R3),BEGIN
 002B5A 9035 D000/41D0_      00000 20163  2                        XPUSH R3,R5
 002B62 1823                       20166  2                        LR    R2,R3
 002B64 4130 0200            00200 20167  2                        LA    R3,L'SHDSARGS
 002B68 1B55                       20168  2                        SR    R5,R5
 002B6A 0E24                       20169  2                        MVCL  R2,R4
 002B6C 4BD0 7362/9835_      02DF6 20170  2                        XPOP  R3,R5
 002B74 58E0 7338/0DEE       02DCC 20173  2                        VCALL NRESOLVE
 002B7A 94EF BD5C      00D5C       20177  2                        CLEAR CPFDSNNE
 002B7E 12FF/4770 71EE             20184  2                        IF    (R15,NZ),FNDSNINE
 002B84 5800 4214            00214 20201  2                        L     R0,FFRNAMEL
 002B88 4110 4218            00218 20202  2                        LA    R1,FFRNAME
 002B8C 58E0 733C/0DEE       02DD0 20203  2                        VCALL RETFNAME
 002B92 5000 310C            0010C 20207  2                        ST    R0,SHDSLIKL
 002B96 1810                       20208  2                        LR    R1,R0
 002B98 0610/1211/4740_            20209  2                        MOVE  R1,SHDSLIKE,FFRNAME
 002BA4 9602 3000      00000       20247  2                        SET   SHDSONLY
 002BA8 4110 3000            00000 20253  2                        LA    R1,SHDSARGS
 002BAC 58E0 7340/0DEE       02DD4 20254  2                        VCALL WGSHODSN
 DROP   FFINFO,R4                  20258  2                        DROP  R4
                                   20265  2
 002BB2 1B22                       20266  2                        CLEAR R2                  Init to null string
 002BB4 12FF/4770 71C4             20270  2                        IF    (R15,NZ),FNDSNIX    Can't get the info ...
                                   20287  2
 002BBA D501 7320 3190_02DB4 00190 20288  2                        IF    (SHDSPGCT,EQ,0),FNDSNIX  No pages????
 002BC4 1B00                       20309  2                        CLEAR R0                  Assume no page number
 002BC6 1299/4780 713E_            20313  2                        IF    (PAR,NZ),'PNUM PAR' Get number of page already in
 002BD2 5900 3194/4780_      00194 20337  2                        IF    (R0,NE,SHDSPAGS),'PGET PAR,L:SHDSPAGS'  Get proper page
                                   20368  2
 002BE4 4120 0002            00002 20369  2                        LA    R2,2                Number of bytes processed on page
 002BE8 4920 9000            00000 20370  2                        CH    R2,@PAR             More on page?
 002BEC 47B0 71C4            02C58 20371  2                        IF    NL,FNDSNIX          No - all done
 002BF0 1F44/4349 2000             20385  2                        LC    R4,@R2(PAR)         Field character count
 002BF6 1244/4780 71C4             20392  2                        IF    (R4,Z),FNDSNIX      All done
 002BFC 4120 9003            00003 20409  2                        LA    R2,3(,PAR)          Point at DSNINFO
 USING  DSNINFO,R2                 20410  2                        WITH  (DSNINFO,R2),BEGIN
 002C00 9540 2051/4780_00051       20424  3                          IF    (DSNERRCD,NE,' '),BEGIN
 002C08 1B22                       20441  4                            CLEAR R2
 002C0A 47F0 71C4            02C58 20445  4                            B     FNDSNIX
 002C0E                            20446  3                          END
 DROP   DSNINFO,R2                 20450  2                        END
 002C0E 185D/41D0 D200             20458  2                        XPUSH ,,512,PTR=R5
 002C14 4110 50EB            000EB 20461  2                        LA    R1,L'DSNINFO(,R5)
 002C18 D2EA 5000 C4D8 00000 004D8 20462  2                        MVC   0(L'DSNINFO,R5),CVBLANKS
 002C1E 0640/4440 737C_            20463  2                        DEX   R4,'MVC 0(0,R5),0(R2)'
 002C24 1825                       20482  2                        LR    R2,R5
 002C26 4100 0100            00100 20483  2                        LA    R0,256
 002C2A 58E0 734C/0DEE       02DE0 20484  2                        VCALL DSPDSNIN
 002C30 1820                       20488  2                        LR    R2,R0
 002C32 5920 7350/47D0_      02DE4 20489  2                        CEIL  R2,L'FNWORK
 002C3E 0620/1222/4740_            20508  2                        MOVE  R2,FNWORK,@R1
 002C4A 5E20 7354            02DE8 20546  2                        INCR  R2
 002C4E 4BD0 7364            02DF8 20549  2                        XPOP  ,,512
                                   20551  2
1FUNC     (FUNC2193) (12:45) (15MAR04) System Routines for Functions                                                        Page   82
0Current Usings:  (SHDSARGS,R3) (*,R7) (FNWA-(4+36),R8) (CP,R11) (CV,R12)
0Loc    Object Code    Addr1 Addr2  Stmt Lv Lineno    Source Statement           (Hibal 5, Asmedit 3.3)  HLASM R4.0  2004/03/15 12.45
+___    ______ ____    _____ _____  ____ __ ______    ______ _________
0002C52 58E0 7358/0DEE       02DEC 20552  2                        PFREE PAR,EMPTY           Don't need this anymore
                                   20558  2
 002C58 4BD0 7366            02DFA 20559  2           FNDSNIX      XPOP  ,,L'SHDSARGS
 002C5C D74F 6000 6000_00000 00000 20561  2                        VRETURN STRING,FNWORK,(R2)
 USING  VNENTRY,R6
 DROP   VNENTRY,R6
 DROP   SHDSARGS,R3                20649  1                      END
 002C7E                            20657                       END
 002C7E 47F0 7216            02CAA 20661                       B     FNDSNINX
                                   20662              *
                                   20663              *  EXITS
                                   20664              *
 002C82                            20665              FNDSNINE LABEL ,
 002C82 D74F 6000 6000_00000 00000 20667                       VRETURN STRING,'BAD DSN'
 USING  VNENTRY,R6
 DROP   VNENTRY,R6
 002CA6 47F0 7216            02CAA 20745                       B     FNDSNINX
                                   20746
 002CAA 58E0 B08C/4BD0_      0008C 20747              FNDSNINX SCPOP ,
 002CB8 18D8/9808 D004_            20753                       PEND
 DROP   FNWA-(4+36),R8
 DROP   *,R7
                                   20778              *
                                   20779              *  WHERE IS THIS ROUTINE USED IN DIR ???
                                   20780              *  MAY NEED TO RESTORE TO ORIGINAL ?
                                   20781              *
 002CC6 50E0 D000/9008_      00000 20782              GETTPAG  XPROC FNWA
 USING  *,R7
 USING  FNWA-(4+36),R8
 002CE0 50F0 D000/41D0_      00000 20833                       XPUSH R15
 002CE8 D603 BDA8 BDA8_00DA8 00DA8 20836                       FAIL  (CPMDLN,NZ),DSNINFO,'DSNINFO error #1.'
 002D0A 58E0 7110/0DEE       02DF0 20864                       VCALL PGETNEW             Get a temp page in PAR
 002D10 4770 7040            02D20 20868                       IF    Z,BEGIN             Got the page ...
 002D14 4120 0001            00001 20879  1                      LA    R2,1                One page
 002D18 5020 BDA8            00DA8 20880  1                      ST    R2,CPMDLN           Store page count
 002D1C 5000 BDAC            00DAC 20881  1                      ST    R0,CPMDAD           Store page no
 002D20                            20882                       END
 002D20 4BD0 711E/58F0_      02DFE 20886                       XPOP  R15
 002D28 1299                       20889                       LTR   PAR,PAR             NEED TO RETURN PAR AS CC ??
 002D2A 18D8/9808 D004_            20890                       PEND
 DROP   FNWA-(4+36),R8
 DROP   *,R7
                                   20915              *
                                   20916              *  SCAN DSN NAME
                                   20917              *
 002D38 4040404040404040_          20918              FNDSIPRT SCKW  ,V(FNAMPSH),PUSH
 002D60 4040404040404040_          20933                       SCKW  ,FNDSNINB
                                   20948
 002D88 50E0 D000/9008_      00000 20949              FNDSNINB DPROC ,
 USING  *,R7
 002DA2 41F0 0004            00004 20989                       LA    R15,4
 002DA6 18D8/9808 D004_            20990                       PEND
 DROP   *,R7
                                   21010                       QLTORG ,
1FUNC     (FUNC2193) (12:45) (15MAR04) System Routines for Functions                                                        Page   83
0Current Usings:  (CP,R11) (CV,R12)
0Loc    Object Code    Addr1 Addr2  Stmt Lv Lineno    Source Statement           (Hibal 5, Asmedit 3.3)  HLASM R4.0  2004/03/15 12.45
+___    ______ ____    _____ _____  ____ __ ______    ______ _________
0                                  21047              ¿þþþþþþþþþþþþþþþþþþþþþþþþþþþþþþþþþþþþþþþþþþþþþþþþþþþþþþþþþþþþþþþþþþþþþÜ
                                   21048              Ÿ                                                                     Ÿ
                                   21049              Ÿ                                                                     Ÿ
                                   21050              Ÿ  Verify Existence of a Dataset on the System                        Ÿ
                                   21051              Ÿ                                                                     Ÿ
                                   21052              Ÿ  See comments at start of this module                               Ÿ
                                   21053              Ÿ                                                                     Ÿ
                                                      ¾þþþþþþþþþþþþþþþþþþþþþþþþþþþþþþþþþþþþþþþþþþþþþþþþþþþþþþþþþþþþþþþþþþþþþ»
0002E28 50E0 D000/9008_      00000 21054              FNDSNVER PROC  FNWA
 USING  *,R7
 USING  FNWA-(4+36),R8
 002E42 58E0 B08C/D2AF_      0008C 21104                       SCPUSH ,
 002E50 4120 742E/58E0_      03270 21110                       SETARGS '12SS'            Get string argument(s)
 002E5A 4770 723C            0307E 21116                       IF    Z,BEGIN             If ok, process
 002E5E 1820                       21127  1                      LR    R2,R0               Save number of arguments
 002E60 1831                       21128  1                      LR    R3,R1                 and argument pointer
 USING  VNENTRY,R5                 21129  1                      WITH  (VNENTRY,R5),BEGIN
 002E62 4150 1000            00000 21143  2                        LA    R5,@R1+ARG1         Address argument
 002E66 4110 5026/4800_      00026 21144  2                        SCINIT VNSTRLOC,LH:VNSTRLEN
 DROP   VNENTRY,R5                 21167  1                      END
 002E7C 9610 BD5C      00D5C       21175  1                      SET   CPFDSNNE
 002E80 58E0 7436/0DEE       03278 21181  1                      VCALL FNAMESCN            Get the filename
 002E86 12FF/4780 705A             21185  1                      IF    (R15,NZ),BEGIN
 002E8C 58E0 B08C/D703_      0008C 21199  2                        SCSEGCLR
 002E98 47F0 7240            03082 21208  2                        B     FNDSNVEE
 002E9C                            21209  1                      END
 002E9C 5810 B08C/1B00_      0008C 21213  1                      SCAN  FNDSVPRT            Find any overrides
 002EEE 12FF/4770 7240             21245  1                      IF    (R15,NZ),FNDSNVEE
                                   21262  1                      COMMENT                   FINISH FILE NAME PROCESSING
 002EF4 58E0 7442/0DEE       03284 21263  1                      VCALL FNAMEFIN
 002EFA 5840 BE54            00E54 21267  1                      L     R4,CPFINFOP
 USING  FFINFO,R4                  21268  1                      USING FFINFO,R4
 002EFE 9201 4000      00000       21277  1                      SET   FFFWINGS
 002F02 9201 4001      00001       21283  1                      SET   FFFREAD
 002F06 58E0 7446/0DEE       03288 21289  1                      VCALL NRESOLVE
 002F0C 12FF/4770 7240             21293  1                      IF    (R15,NZ),FNDSNVEE
 002F12 94EF BD5C      00D5C       21310  1                      CLEAR CPFDSNNE
                                   21317  1
 002F16 5920 744A/4740_      0328C 21318  1                      IF    (R2,LT,2),FNDSNVDO
 USING  VNENTRY,R5                 21338  1                      WITH  (VNENTRY,R5),BEGIN
 002F1E 4153 0150            00150 21352  2                        LA    R5,ARG2(R3)
 002F22 4110 5026/4800_      00026 21353  2                        SCINIT VNSTRLOC,LH:VNSTRLEN  Options
 DROP   VNENTRY,R5                 21376  1                      END
 002F38 5810 B08C/1B00_      0008C 21384  1                      SCAN  DSNVPRT
 002F8A 12FF/4780 715C             21416  1                      IF    (R15,NZ),BEGIN
 002F90 4120 0002/58E0_      00002 21430  2                        BADARG 2
 002F9A 47F0 7268            030AA 21441  2                        B     FNDSNVEX
 002F9E                            21442  1                      END
                                   21446  1
 002F9E 58E0 7456/0DEE       03298 21447  1           FNDSNVDO   VCALL WGSACCES
 002FA4 12FF/4770 7174_            21451  1                      IF    (R15,Z),'SETMSG "OK"; B FNDSNVX'
 002FB6 D507 73D6 B886_03218 00886 21475  1                      IF    (CPERRID,EQ,'BADOSDSN'),'B FNDSNVEE'
 002FC4 D507 73DE B886_03220 00886 21498  1                      IF    (CPERRID,EQ,'NOTFOUND'),'SETMSG "NOT THERE"; B FNDSNVX'
1FUNC     (FUNC2193) (12:45) (15MAR04) System Routines for Functions                                                        Page   84
0Current Usings:  (FFINFO,R4) (*,R7) (FNWA-(4+36),R8) (CP,R11) (CV,R12)
0Loc    Object Code    Addr1 Addr2  Stmt Lv Lineno    Source Statement           (Hibal 5, Asmedit 3.3)  HLASM R4.0  2004/03/15 12.45
+___    ______ ____    _____ _____  ____ __ ______    ______ _________
0002FDA D507 73E6 B886_03228 00886 21525  1                      IF    (CPERRID,EQ,'INUSE   '),'SETMSG "IN USE"; B FNDSNVX'
                                   21552  1         C            IF    ((CPERRID,EQ,'NOTAUTH '),OR,
 002FF0 D507 73EE B886_03230 00886        1                            (CPERRID,EQ,'NOACCESS')),BEGIN
 003004 4110 7479/4100_      032BB 21585  2                        SETMSG 'NO ACCESS'
 00300C 47F0 7220            03062 21589  2                        B     FNDSNVX
 003010                            21590  1                      END
                                   21594  1         C            IF    ((CPERRID,EQ,'NOTMNTD '),OR,
                                          1         C                  (CPERRID,EQ,'NOVOL   '),OR,
 003010 D507 73FE B886_03240 00886        1                            (CPERRID,EQ,'INVVOL  ')),BEGIN
 00302E 4110 7482/4100_      032C4 21641  2                        SETMSG 'OFFLINE'
 003036 47F0 7220            03062 21645  2                        B     FNDSNVX
 00303A                            21646  1                      END
                                   21650  1         C            IF    ((CPERRID,EQ,'NOMEMBER'),OR,
 00303A D507 7416 B886_03258 00886        1                            (CPERRID,EQ,'NOTINPDS')),BEGIN
 00304E 4110 7464/4100_      032A6 21683  2                        SETMSG 'BAD MEMBER'
 003056 47F0 7220            03062 21687  2                        B     FNDSNVX
 00305A                            21688  1                      END
 00305A 4110 7426/4100_      03268 21692  1                      SETMSG 'UNUSABLE'
 003062 D74F 6000 6000_00000 00000 21696  1           FNDSNVX    VRETURN STRING,(R1),(R0)
 USING  VNENTRY,R6
 DROP   VNENTRY,R6
 00307E                            21780                       END
 00307E 47F0 7268            030AA 21784                       B     FNDSNVEX
                                   21785              *
                                   21786              *  EXITS
                                   21787              *
 003082                            21788              FNDSNVEE LABEL ,
 003082 D74F 6000 6000_00000 00000 21790                       VRETURN STRING,'BAD DSN'
 USING  VNENTRY,R6
 DROP   VNENTRY,R6
 0030A6 47F0 7268            030AA 21868                       B     FNDSNVEX
                                   21869
 0030AA 58E0 B08C/4BD0_      0008C 21870              FNDSNVEX SCPOP ,
 0030B8 18D8/9808 D004_            21876                       PEND
 DROP   FNWA-(4+36),R8
 DROP   *,R7
                                   21901              *
                                   21902              *  SCAN DSN NAME
                                   21903              *
 0030C8 4040404040404040_          21904              FNDSVPRT SCKW  ,V(FNAMPSH),PUSH
 0030F0 4040404040404040_          21919                       SCKW  ,FNDSNVEB
                                   21934                       ¿þþþþþþþþþþþþþþþþþþþþþþþþþþþþþþþÜ
                                   21935                       Ÿ  DSNVERIFY function options.  Ÿ
                                   21936                       ¾þþþþþþþþþþþþþþþþþþþþþþþþþþþþþþþ»
 003118 D9C5C1C440404040_          21937              DSNVPRT  SCKW  READ,FNDSNVRD,A
 003140 E6D9C9E3C5404040_          21952                       SCKW  WRITE,FNDSNVWR,A
 003168 4040404040404040_          21967                       SCKW  ,FNDSNVEB
                                   21982
 003190 50E0 D000/9008_      00000 21983              FNDSNVRD PROC  ,
 USING  *,R7
 0031AA 9201 4001      00001       22022                       SET   FFFREAD
 0031AE 18D8/9808 D004_            22028                       PEND
 DROP   *,R7
                                   22048
1FUNC     (FUNC2193) (12:45) (15MAR04) System Routines for Functions                                                        Page   85
0Current Usings:  (FFINFO,R4) (*,R7) (CP,R11) (CV,R12)
0Loc    Object Code    Addr1 Addr2  Stmt Lv Lineno    Source Statement           (Hibal 5, Asmedit 3.3)  HLASM R4.0  2004/03/15 12.45
+___    ______ ____    _____ _____  ____ __ ______    ______ _________
00031BC 50E0 D000/9008_      00000 22049              FNDSNVWR PROC  ,
 USING  *,R7
 0031D6 9202 4001      00001       22088                       SET   FFFWRITE
 0031DA 18D8/9808 D004_            22094                       PEND
 DROP   *,R7
                                   22114
 0031E8 50E0 D000/9008_      00000 22115              FNDSNVEB DPROC ,
 USING  *,R7
 003202 41F0 0004            00004 22155                       LA    R15,4
 003206 18D8/9808 D004_            22156                       PEND
 DROP   *,R7
                                   22176
 DROP   FFINFO,R4                  22177                       DROP  R4
                                   22184                       QLTORG
1FUNC     (FUNC2193) (12:45) (15MAR04) System Routines for Functions                                                        Page   86
0Current Usings:  (CP,R11) (CV,R12)
0Loc    Object Code    Addr1 Addr2  Stmt Lv Lineno    Source Statement           (Hibal 5, Asmedit 3.3)  HLASM R4.0  2004/03/15 12.45
+___    ______ ____    _____ _____  ____ __ ______    ______ _________
0                                  22228              ¿þþþþþþþþþþþþþþþþþþþþþþþþþþþþþþþþþþþþþþþþþþþþþþþþþþþþþþþþþþþþþþþþþþþþþÜ
                                   22229              Ÿ                                                                     Ÿ
                                   22230              Ÿ  D2C Function.                                                      Ÿ
                                   22231              Ÿ                                                                     Ÿ
                                   22232              Ÿ    D2C(??????????)                                                  Ÿ
                                   22233              Ÿ                                                                     Ÿ
                                                      ¾þþþþþþþþþþþþþþþþþþþþþþþþþþþþþþþþþþþþþþþþþþþþþþþþþþþþþþþþþþþþþþþþþþþþþ»
00032DE 50E0 D000/9008_      00000 22234              FND2C    PROC  ,
 USING  *,R7
 0032F8 4110 7420/4100_      03718 22273                       TSEG  'Not Yet!  '
 00330A 4120 0001/58E0_      00001 22291                       BADARG 1
 003314 18D8/9808 D004_            22302                       PEND
 DROP   *,R7
1FUNC     (FUNC2193) (12:45) (15MAR04) System Routines for Functions                                                        Page   87
0Current Usings:  (CP,R11) (CV,R12)
0Loc    Object Code    Addr1 Addr2  Stmt Lv Lineno    Source Statement           (Hibal 5, Asmedit 3.3)  HLASM R4.0  2004/03/15 12.45
+___    ______ ____    _____ _____  ____ __ ______    ______ _________
0                                  22323              ¿þþþþþþþþþþþþþþþþþþþþþþþþþþþþþþþþþþþþþþþþþþþþþþþþþþþþþþþþþþþþþþþþþþþþþÜ
                                   22324              Ÿ                                                                     Ÿ
                                   22325              Ÿ  D2X Function.                                                      Ÿ
                                   22326              Ÿ                                                                     Ÿ
                                   22327              Ÿ    D2X(??????????)                                                  Ÿ
                                   22328              Ÿ                                                                     Ÿ
                                                      ¾þþþþþþþþþþþþþþþþþþþþþþþþþþþþþþþþþþþþþþþþþþþþþþþþþþþþþþþþþþþþþþþþþþþþþ»
0003322 50E0 D000/9008_      00000 22329              FND2X    PROC  ,
 USING  *,R7
 00333C 4110 73DC/4100_      03718 22368                       TSEG  'Not Yet!  '
 00334E 4120 0001/58E0_      00001 22386                       BADARG 1
 003358 18D8/9808 D004_            22397                       PEND
 DROP   *,R7
1FUNC     (FUNC2193) (12:45) (15MAR04) System Routines for Functions                                                        Page   88
0Current Usings:  (CP,R11) (CV,R12)
0Loc    Object Code    Addr1 Addr2  Stmt Lv Lineno    Source Statement           (Hibal 5, Asmedit 3.3)  HLASM R4.0  2004/03/15 12.45
+___    ______ ____    _____ _____  ____ __ ______    ______ _________
0                                  22418              ¿þþþþþþþþþþþþþþþþþþþþþþþþþþþþþþþþþþþþþþþþþþþþþþþþþþþþþþþþþþþþþþþþþþþþþÜ
                                   22419              Ÿ                                                                     Ÿ
                                   22420              Ÿ                                                                     Ÿ
                                   22421              Ÿ  EBCDIC                                                             Ÿ
                                   22422              Ÿ                                                                     Ÿ
                                   22423              Ÿ  SEE COMMENTS AT START OF THIS MODULE                               Ÿ
                                   22424              Ÿ                                                                     Ÿ
                                                      ¾þþþþþþþþþþþþþþþþþþþþþþþþþþþþþþþþþþþþþþþþþþþþþþþþþþþþþþþþþþþþþþþþþþþþþ»
0003366 50E0 D000/9008_      00000 22425              FNEBCDIC PROC  ,
 USING  *,R7
 003380 4120 73A2/58E0_      03722 22464                       SETARGS '11S'             1 ARG: STRING
 00338A 4770 703C            033BC 22470                       IF    Z,BEGIN
 USING  VNENTRY,R5                 22481  1                      USING VNENTRY,R5
 00338E 4151 0000            00000 22490  1                      LA    R5,ARG1(R1)
 003392 4110 5026            00026 22491  1                      LA    R1,VNSTRLOC         R1 - STRING LOC
 003396 4820 5024            00024 22492  1                      LH    R2,VNSTRLEN         R2 - STRING LEN
 DROP   VNENTRY,R5                 22493  1                      DROP  R5
 USING  VNENTRY,R6                 22500  1                      USING VNENTRY,R6
 00339A D74F 6000 6000 00000 00000 22509  1                      CLEAR VNENTRY
 0033A0 9201 6020      00020       22516  1                      SET   VNSTRING
 0033A4 4020 6024            00024 22522  1                      STH   R2,VNSTRLEN
 0033A8 1222/47D0 703C             22523  1                      IF    (R2,POS),BEGIN
 0033AE 0620/4420 73AA_            22537  2                        DEX   R2,' MVC VNSTRLOC(0),0(R1) '  MOVE STRING TO RET AREA
 0033B4 5840 C8B4            008B4 22556  2                        L     R4,CVEBCTBL
 0033B8 4420 73B0/DC00_      03730 22557  2                        EX    R2,' TR VNSTRLOC(0),0(R4) '   CONVERT IT
 0033BC                            22573  1                      END
 DROP   VNENTRY,R6                 22577  1                      DROP  R6
 0033BC                            22584                       END
 0033BC 18D8/9808 D004_            22588                       PEND
 DROP   *,R7
1FUNC     (FUNC2193) (12:45) (15MAR04) System Routines for Functions                                                        Page   89
0Current Usings:  (CP,R11) (CV,R12)
0Loc    Object Code    Addr1 Addr2  Stmt Lv Lineno    Source Statement           (Hibal 5, Asmedit 3.3)  HLASM R4.0  2004/03/15 12.45
+___    ______ ____    _____ _____  ____ __ ______    ______ _________
0000000                00000 00108 22609              ENCRYWA  RECORD BEGIN
 000000                            22617  1           ENCARGP    DS    F                   ARG ptr
 000004                            22618  1           ENCNARG    DS    F                   Number of arguments
                                   22619  1
 000008                            22620  1           ENCTEXT    DS    CL(MAXSTRLN)        Encrypted text area
 000108                00108 00108 22621                       END
-                                  22631              ¿þþþþþþþþþþþþþþþþþþþþþþþþþþþþþþþþþþþþþþþþþþþþþþþþþþþþþþþþþþþþþþþþþþþþþÜ
                                   22632              Ÿ                                                                     Ÿ
                                   22633              Ÿ  ENCRYPT -- ENCRYPT Function.                                       Ÿ
                                   22634              Ÿ                                                                     Ÿ
                                   22635              Ÿ    ENCRYPT(text-string[, encryption-key-string])                    Ÿ
                                   22636              Ÿ                                                                     Ÿ
                                                      ¾þþþþþþþþþþþþþþþþþþþþþþþþþþþþþþþþþþþþþþþþþþþþþþþþþþþþþþþþþþþþþþþþþþþþþ»
00033CA 50E0 D000/9008_      00000 22637              FNENCRYP PROC  ENCRYWA
 USING  *,R7
 USING  ENCRYWA-(4+36),R8
 0033E4 D7FF 8028 8028_00000 00000 22687                       CLEAR ENCRYWA
                                   22695
 0033F0 4120 7308/58E0_      036EC 22696                       SETARGS '12SS'            1-2 args: string, string
 0033FA 4770 7082            03466 22702                       IF    Z,BEGIN             OK...
 0033FE 5000 802C            00004 22713  1                      ST    R0,ENCNARG          Number of arguments
 003402 5010 8028            00000 22714  1                      ST    R1,ENCARGP          Start of args ptr
                                   22715  1
 USING  VNENTRY,R5                 22716  1                      WITH  (VNENTRY,R5)
                                   22729  1                      ¿þþþþþþþþþþþþþþþþþþþþþþþþþþþþþþþþÜ
                                   22730  1                      Ÿ  Arg 1: text to be encrypted.  Ÿ
                                   22731  1                      ¾þþþþþþþþþþþþþþþþþþþþþþþþþþþþþþþþ»
 003406 4150 0000            00000 22732  1                      LA    R5,ARG1
 00340A 5E50 8028            00000 22733  1                      AL    R5,ENCARGP
                                   22734  1
 00340E 4840 5024            00024 22735  1                      LH    R4,VNSTRLEN
 003412 41E0 8030/18F4_      00008 22736  1                      MOVEL ENCTEXT,VNSTRLOC,(R4)  Copy text string
                                   22758  1                      ¿þþþþþþþþþþþþþþþþþþþþþþþþþþÜ
                                   22759  1                      Ÿ  Arg 2: encryption key.  Ÿ
                                   22760  1                      ¾þþþþþþþþþþþþþþþþþþþþþþþþþþ»
 003420 1B22/1B33                  22761  1                      CLEAR R2,R3               Assume no key
                                   22767  1
 003424 D503 730C 802C_036F0 00004 22768  1                      IF    (ENCNARG,GE,2),BEGIN  Encryption key specified...
 00342E 4150 0150            00150 22786  2                        LA    R5,ARG2
 003432 5E50 8028            00000 22787  2                        AL    R5,ENCARGP
                                   22788  2
 003436 4120 5026/4830_      00026 22789  2                        LS    R2,R3,VNSTRLOC,LH:VNSTRLEN  Encryption key
 00343E                            22801  1                      END
                                   22805  1                      ¿þþþþþþþþþþþþþþþþþþþþþþÜ
                                   22806  1                      Ÿ  Do the encryption.  Ÿ
                                   22807  1                      ¾þþþþþþþþþþþþþþþþþþþþþþ»
 00343E 4110 8030/1804       00008 22808  1                      SETMSG ENCTEXT,(R4)        Text to encrypt
 003444 58E0 7310/0DEE       036F4 22822  1                      VCALL ENCRYPT             Encrypt the text
                                   22826  1
 00344A D74F 6000 6000_00000 00000 22827  1                      VRETURN STRING,(R1),(R0)
 USING  VNENTRY,R6
1FUNC     (FUNC2193) (12:45) (15MAR04) System Routines for Functions                                                        Page   90
0Current Usings:  (VNENTRY,R5) (*,R7) (ENCRYWA-(4+36),R8) (CP,R11) (CV,R12)
0Loc    Object Code    Addr1 Addr2  Stmt Lv Lineno    Source Statement           (Hibal 5, Asmedit 3.3)  HLASM R4.0  2004/03/15 12.45
+___    ______ ____    _____ _____  ____ __ ______    ______ _________
0DROP   VNENTRY,R6
 DROP   VNENTRY,R5                 22911                       END
                                   22920
 003466 18D8/9808 D004_            22921                       PEND
 DROP   ENCRYWA-(4+36),R8
 DROP   *,R7
1FUNC     (FUNC2193) (12:45) (15MAR04) System Routines for Functions                                                        Page   91
0Current Usings:  (CP,R11) (CV,R12)
0Loc    Object Code    Addr1 Addr2  Stmt Lv Lineno    Source Statement           (Hibal 5, Asmedit 3.3)  HLASM R4.0  2004/03/15 12.45
+___    ______ ____    _____ _____  ____ __ ______    ______ _________
0                                  22947              ¿þþþþþþþþþþþþþþþþþþþþþþþþþþþþþþþþþþþþþþþþþþþþþþþþþþþþþþþþþþþþþþþþþþþþþÜ
                                   22948              Ÿ                                                                     Ÿ
                                   22949              Ÿ                                                                     Ÿ
                                   22950              Ÿ  FIND                                                               Ÿ
                                   22951              Ÿ                                                                     Ÿ
                                   22952              Ÿ  FIND(STRING,CHARS_TO_FIND),,,                                      Ÿ
                                   22953              Ÿ                                                                     Ÿ
                                   22954              Ÿ  SEE COMMENTS AT START OF THIS MODULE                               Ÿ
                                   22955              Ÿ                                                                     Ÿ
                                                      ¾þþþþþþþþþþþþþþþþþþþþþþþþþþþþþþþþþþþþþþþþþþþþþþþþþþþþþþþþþþþþþþþþþþþþþ»
0003474 50E0 D000/9008_      00000 22956              FNFIND   PROC  FNWA
 USING  *,R7
 USING  FNWA-(4+36),R8
 00348E 4120 726A/58E0_      036F8 23006                       SETARGS '22SS'            2 ARGS: STRING, STRING
 003498 4770 7082            03510 23012                       IF    Z,BEGIN
 USING  VNENTRY,R5                 23023  1                      USING VNENTRY,R5
 00349C 4151 0000            00000 23032  1                      LA    R5,ARG1(R1)
 0034A0 4120 5026            00026 23033  1                      LA    R2,VNSTRLOC         R2,R3 - 1ST STRING LOC, LEN
 0034A4 4830 5024            00024 23034  1                      LH    R3,VNSTRLEN
 0034A8 4151 0150            00150 23035  1                      LA    R5,ARG2(R1)
 0034AC 4140 5026            00026 23036  1                      LA    R4,VNSTRLOC         R4,R5 - 2ND STRING LOC, END
 0034B0 4850 5024            00024 23037  1                      LH    R5,VNSTRLEN
 0034B4 1A54                       23038  1                      AR    R5,R4
 DROP   VNENTRY,R5                 23039  1                      DROP  R5
 0034B6 D7FF 8028 8028_00000 00000 23046  1                      CLEAR FNWORK              SET UP TRT TABLE
 0034C2 1B11                       23054  1                      SR    R1,R1               MARK CHARS IN STRING #2
 0034C4 4100 0001            00001 23055  1                      LA    R0,1
 0034C8 1945/47B0 7050             23056  1                      WHILE (R4,LT,R5),BEGIN    MARK CHARS IN STRING #2
 0034CE 4314 0000            00000 23073  2                        IC    R1,0(R4)
 0034D2 4201 8028            00000 23074  2                        STC   R0,FNWORK(R1)
 0034D6 4144 0001            00001 23075  2                        LA    R4,1(R4)
 0034DA 47F0 703A            034C8 23076  1                      END
 0034DE 1812                       23081  1                      LR    R1,R2               R1,R4 - START OF STRING #1
 0034E0 1842                       23082  1                      LR    R4,R2
 0034E2 1233/47D0 7068             23083  1                      IF    (R3,POS),BEGIN
 0034E8 0630/4430 72AE_            23097  2                        DEX   R3,' TRT @R1(0),FNWORK '   ** TRT **
 0034EE 4780 7068            034F6 23116  2                        IF    NZ,BEGIN
 0034F2 4111 0001            00001 23127  3                          LA    R1,1(R1)            OFFSET+1 = CHAR NUMBER
 0034F6                            23128  2                        END
 0034F6                            23132  1                      END
                                   23136  1                      COMMENT                   R1 - LOC OF 1ST CHAR FOUND
 0034F6 1B14                       23137  1                      SR    R1,R4               R1 - INDEX OF 1ST CHAR FOUND
 0034F8 D74F 6000 6000_00000 00000 23138  1                      VRETURN INTEGER,(R1)
 USING  VNENTRY,R6
 DROP   VNENTRY,R6
 003510                            23184                       END
 003510 18D8/9808 D004_            23188                       PEND
 DROP   FNWA-(4+36),R8
 DROP   *,R7
1FUNC     (FUNC2193) (12:45) (15MAR04) System Routines for Functions                                                        Page   92
0Current Usings:  (CP,R11) (CV,R12)
0Loc    Object Code    Addr1 Addr2  Stmt Lv Lineno    Source Statement           (Hibal 5, Asmedit 3.3)  HLASM R4.0  2004/03/15 12.45
+___    ______ ____    _____ _____  ____ __ ______    ______ _________
0                                  23214              ¿þþþþþþþþþþþþþþþþþþþþþþþþþþþþþþþþþþþþþþþþþþþþþþþþþþþþþþþþþþþþþþþþþþþþþÜ
                                   23215              Ÿ                                                                     Ÿ
                                   23216              Ÿ                                                                     Ÿ
                                   23217              Ÿ  FORMAT                                                             Ÿ
                                   23218              Ÿ                                                                     Ÿ
                                   23219              Ÿ  SEE COMMENTS AT START OF THIS MODULE                               Ÿ
                                   23220              Ÿ                                                                     Ÿ
                                                      ¾þþþþþþþþþþþþþþþþþþþþþþþþþþþþþþþþþþþþþþþþþþþþþþþþþþþþþþþþþþþþþþþþþþþþþ»
0000000                00000 00092 23221              FMTWA    RECORD BEGIN
 000000                            23229  1           FMTARG2    DS    F                   LEADING LENGTH  (BLANK PADDED)
 000004                            23230  1           FMTARG3    DS    F                   TRAILING LENGTH (ZERO PADDED)
 000008                            23231  1           FMTARG1    DS    CL(64+1+1)          NUMBER IN STRING FORMAT  (-1,-1)
 00004C                            23232  1           FMTARG1L   DS    F                   LENGTH OF STRING
 000050                            23233  1           FMTAREA    DS    CL(64+1+1)          FORMATING AREA
 000092                00092 00092 23234                       END
                                   23243              þþþþ
 00351E 50E0 D000/9008_      00000 23244              FNFORMAT PROC  FMTWA
 USING  *,R7
 USING  FMTWA-(4+36),R8
                                   23294
 003538 4120 71ED/58E0_      03725 23295                       SETARGS '33NII'           3 ARGS: NUMBER, INTEGER, INTEGER
 003542 4770 7194            036CC 23301                       IF    Z,BEGIN
 USING  VNENTRY,R5                 23312  1                      USING VNENTRY,R5
                                   23321  1
                                   23322  1                      COMMENT                   CONVERT ARG #1 TO STRING
 003546 4151 0000            00000 23323  1                      LA    R5,ARG1(R1)         AND SAVE
 00354A 4120 5000            00000 23324  1                      LA    R2,VNENTRY
 00354E 58E0 71C8/0DEE       03700 23325  1                      VCALL MAKESTR
 003554 4830 5024            00024 23329  1                      LH    R3,VNSTRLEN
 003558 5030 8074            0004C 23330  1                      ST    R3,FMTARG1L
 00355C 0630/1233/4740_            23331  1                      MOVE  R3,FMTARG1,VNSTRLOC
                                   23369  1
                                   23370  1                      COMMENT                   CHECK ARG #2 AND #3 AND SAVE
                                   23371  1                      COMMENT
 003568 4151 0150            00150 23372  1                      LA    R5,ARG2(R1)
 00356C 5820 5024            00024 23373  1                      L     R2,VNVALUE
 003570 5020 8028            00000 23374  1                      ST    R2,FMTARG2
 003574 5920 71CC/4720_      03704 23375  1                      IF    ((R2,GT,64),OR,(R2,LT,-1)),BEGIN
 003584 4120 0002/58E0_      00002 23407  2                        BADARG 2
 00358E 47F0 7194            036CC 23418  2                        EXIT  FNFORMAT
 003592                            23421  1                      END
 003592 4151 02A0            002A0 23425  1                      LA    R5,ARG3(R1)
 003596 5820 5024            00024 23426  1                      L     R2,VNVALUE
 00359A 5020 802C            00004 23427  1                      ST    R2,FMTARG3
 00359E 5920 71D4/4720_      0370C 23428  1                      IF    ((R2,GT,32),OR,(R2,LT,-1)),BEGIN
 0035AE 4120 0003/58E0_      00003 23460  2                        BADARG 3
 0035B8 47F0 7194            036CC 23471  2                        EXIT  FNFORMAT
 0035BC                            23474  1                      END
 DROP   VNENTRY,R5                 23478  1                      DROP  R5
                                   23485  1
                                   23486  1                      COMMENT                   LOCATE DECIMAL POINT @R3, IF ANY
 0035BC 4130 8030            00008 23487  1                      LA    R3,FMTARG1
 0035C0 4140 8030            00008 23488  1                      LA    R4,FMTARG1
1FUNC     (FUNC2193) (12:45) (15MAR04) System Routines for Functions                                                        Page   93
0Current Usings:  (*,R7) (FMTWA-(4+36),R8) (CP,R11) (CV,R12)
0Loc    Object Code    Addr1 Addr2  Stmt Lv Lineno    Source Statement           (Hibal 5, Asmedit 3.3)  HLASM R4.0  2004/03/15 12.45
+___    ______ ____    _____ _____  ____ __ ______    ______ _________
00035C4 5A40 8074            0004C 23489  1                      A     R4,FMTARG1L
 0035C8 1934/47B0 70A6_            23490  1                      WHILE ((R3,LT,R4),AND,(@R3,NE,'.')),BEGIN
 0035D6 5E30 71D8            03710 23522  2                        INCR  R3
 0035DA 47F0 7090            035C8 23525  1                      END
 0035DE 1934/4770 70B4             23530  1                      IF    (R3,EQ,R4),BEGIN    IF NO DECIMAL POINT, PUT ONE
 0035E4 924B 3000      00000       23545  2                        MVI   0(R3),C'.'          R3 - ADDR OF DECIMAL POINT
 0035E8 5E40 71D8            03710 23546  2                        INCR  R4                  R4 - END OF STRING
 0035EC                            23549  1                      END
                                   23553  1
                                   23554  1                      COMMENT                   CALCULATE
                                   23555  1                      COMMENT                   R4 - UNFORMATTED LEADING LEN
                                   23556  1                      COMMENT                   R5 - UNFORMATTED TRAILING LEN
 0035EC 1854                       23557  1                      LR    R5,R4
 0035EE 1B53                       23558  1                      SR    R5,R3
 0035F0 0650                       23559  1                      DECR  R5
 0035F2 1843                       23561  1                      LR    R4,R3
 0035F4 4120 8030            00008 23562  1                      LA    R2,FMTARG1
 0035F8 1B42                       23563  1                      SR    R4,R2
                                   23564  1           *
                                   23565  1           *
                                   23566  1                      COMMENT                   DO FORMATTING   (WHOLE PART)
 0035FA 4110 8078            00050 23567  1                      LA    R1,FMTAREA          R1 - FORMAT AREA
 0035FE 4120 8030            00008 23568  1                      LA    R2,FMTARG1          R2 - UNFORMATTED NUMBER
 003602 5830 8028            00000 23569  1                      L     R3,FMTARG2          R3 - COUNTER (LEADING COUNTER)
 003606 D503 71DC 8028_03714 00000 23570  1                      IF    (FMTARG2,EQ,-1),BEGIN
 003610 1834                       23588  2                        LR    R3,R4
 003612                            23589  1                      END
 003612 1934/47D0 70EE             23593  1                      WHILE (R3,GT,R4),BEGIN    PUT OUT LEADING BLANKS
 003618 9240 1000      00000       23610  2                        MVI   0(R1),C' '
 00361C 5E10 71D8            03710 23611  2                        INCR  R1
 003620 0630                       23614  2                        DECR  R3
 003622 47F0 70DA            03612 23616  1                      END
 003626 1934/47B0 70F8             23621  1                      IF    (R3,LT,R4),BEGIN    ADJUST IF TRUNCATING WHOLE PART
 00362C 1A24                       23636  2                        AR    R2,R4
 00362E 1B23                       23637  2                        SR    R2,R3
 003630                            23638  1                      END
 003630 1233/47D0 7112             23642  1                      WHILE (R3,POS),BEGIN      MOVE WHOLE PART OF NUMBER
 003636 D200 1000 2000 00000 00000 23658  2                        MVC   0(1,R1),0(R2)
 00363C 5E10 71D8            03710 23659  2                        INCR  R1
 003640 5E20 71D8            03710 23662  2                        INCR  R2
 003644 0630                       23665  2                        DECR  R3
 003646 47F0 70F8            03630 23667  1                      END
                                   23672  1
                                   23673  1                      COMMENT                   DO FORMATTING (FRACTIONAL PART)
                                   23674  1                      COMMENT
 00364A 4130 0001            00001 23675  1                      LA    R3,1                R3 - COUNTER (TRAILING COUNT)
 00364E D503 71DC 802C_03714 00004 23676  1                      IF    (FMTARG3,EQ,-1),BEGIN
 003658 5050 802C            00004 23694  2                        ST    R5,FMTARG3
 00365C                            23695  1                      END
 00365C D503 71A4 802C_036DC 00004 23699  1                      IF    (FMTARG3,GT,0),BEGIN
 003666 924B 1000      00000       23717  2                        MVI   0(R1),C'.'          PUT OUT DECIMAL POINT
 00366A 5E10 71D8            03710 23718  2                        INCR  R1
 00366E 5E20 71D8            03710 23721  2                        INCR  R2
 003672 5930 802C/4730_      00004 23724  2                        WHILE (R3,LE,FMTARG3),BEGIN  PUT OUT FRACTIONAL PART
1FUNC     (FUNC2193) (12:45) (15MAR04) System Routines for Functions                                                        Page   94
0Current Usings:  (*,R7) (FMTWA-(4+36),R8) (CP,R11) (CV,R12)
0Loc    Object Code    Addr1 Addr2  Stmt Lv Lineno    Source Statement           (Hibal 5, Asmedit 3.3)  HLASM R4.0  2004/03/15 12.45
+___    ______ ____    _____ _____  ____ __ ______    ______ _________
000367A 1935/4730 715A             23743  3                          IF    (R3,LE,R5),BEGIN       WITH DIGITS
 003680 D200 1000 2000 00000 00000 23758  4                            MVC   0(1,R1),0(R2)
 003686 5E10 71D8            03710 23759  4                            INCR  R1
 00368A 5E20 71D8            03710 23762  4                            INCR  R2
 00368E 5E30 71D8            03710 23765  4                            INCR  R3
 003692                            23768  3                          END
 003692 715E/47F0 716A 03692 0367E 23772  3                          ELSE  BEGIN ,                WITH TRAILING ZEROS
 003696 92F0 1000      00000       23783  4                            MVI   0(R1),C'0'
 00369A 5E10 71D8            03710 23784  4                            INCR  R1
 00369E 5E30 71D8            03710 23787  4                            INCR  R3
 0036A2                            23790  3                          END
 0036A2 47F0 713A            03672 23794  2                        END
 0036A6                            23799  1                      END
                                   23803  1
                                   23804  1                      COMMENT                   GET FORMATTED STRING LOC, LENGTH
 0036A6 1821                       23805  1                      LR    R2,R1
 0036A8 4110 8078            00050 23806  1                      LA    R1,FMTAREA          R1 - LOCATION
 0036AC 1B21                       23807  1                      SR    R2,R1               R2 - LENGTH
                                   23808  1
                                   23809  1                      COMMENT                   RETURN FORMATTED NUMBER
 0036AE D74F 6000 6000_00000 00000 23810  1                      VRETURN STRING,(R1),(R2)
 USING  VNENTRY,R6
 DROP   VNENTRY,R6
                                   23895  1
 0036CC                            23896                       END
 0036CC 18D8/9808 D004_            23900                       PEND
 DROP   FMTWA-(4+36),R8
 DROP   *,R7
1FUNC     (FUNC2193) (12:45) (15MAR04) System Routines for Functions                                                        Page   95
0Current Usings:  (CP,R11) (CV,R12)
0Loc    Object Code    Addr1 Addr2  Stmt Lv Lineno    Source Statement           (Hibal 5, Asmedit 3.3)  HLASM R4.0  2004/03/15 12.45
+___    ______ ____    _____ _____  ____ __ ______    ______ _________
0                                  23926                       QLTORG
1FUNC     (FUNC2193) (12:45) (15MAR04) System Routines for Functions                                                        Page   96
0Current Usings:  (CP,R11) (CV,R12)
0Loc    Object Code    Addr1 Addr2  Stmt Lv Lineno    Source Statement           (Hibal 5, Asmedit 3.3)  HLASM R4.0  2004/03/15 12.45
+___    ______ ____    _____ _____  ____ __ ______    ______ _________
0                                  23957              ¿þþþþþþþþþþþþþþþþþþþþþþþþþþþþþþþþþþþþþþþþþþþþþþþþþþþþþþþþþþþþþþþþþþþþþÜ
                                   23958              Ÿ                                                                     Ÿ
                                   23959              Ÿ  Common work area for GET_ACCOUNT, GET_USERID,                      Ÿ
                                   23960              Ÿ     GET_USERID_LIST, GET_USERID_TYPE.                               Ÿ
                                   23961              Ÿ                                                                     Ÿ
                                                      ¾þþþþþþþþþþþþþþþþþþþþþþþþþþþþþþþþþþþþþþþþþþþþþþþþþþþþþþþþþþþþþþþþþþþþþ»
0000000                00000 00105 23962              FNGIDWA  RECORD BEGIN
 000000                            23970  1           FNGIACCT   DS    CL5                 Working account (uuugg form)
 000005                            23971  1           FNGIDATA   DS    CL256               Work area
 000105                00105 00105 23972                       END
-                                  23982              ¿þþþþþþþþþþþþþþþþþþþþþþþþþþþþþþþþþþþþþþþþþþþþþþþþþþþþþþþþþþþþþþþþþþþþþÜ
                                   23983              Ÿ                                                                     Ÿ
                                   23984              Ÿ  GET_ACCOUNT function.                                              Ÿ
                                   23985              Ÿ                                                                     Ÿ
                                                      ¾þþþþþþþþþþþþþþþþþþþþþþþþþþþþþþþþþþþþþþþþþþþþþþþþþþþþþþþþþþþþþþþþþþþþþ»
000374E 50E0 D000/9008_      00000 23986              FNGETACC PROC  FNGIDWA
 USING  *,R7
 USING  FNGIDWA-(4+36),R8
                                   24036
 003768 4120 7490/58E0_      03BF8 24037                       SETARGS '11S'             1 arg: str
 003772 4770 706A            037D2 24043                       IF    Z,BEGIN
 003776 4151 0000            00000 24054  1                      LA    R5,ARG1(R1)
 USING  VNENTRY,R5                 24055  1                      WITH  (VNENTRY,R5)
 00377A 4110 5026/4800_      00026 24068  1                      SETMSG VNSTRLOC,LH:VNSTRLEN  Account/id
 003782 58E0 746C/0DEE       03BD4 24081  1                      VCALL LRTRIM
 003788 41F0 8028            00000 24085  1                      LA    R15,FNGIACCT        Put account in "uuugg" form here
 00378C 58E0 7470/0DEE       03BD8 24086  1                      VCALL GETACCT             Get account
 003792 4780 7032/1B11_      0379A 24090  1                      IF    NZ,'CLEAR R1,R0'    ID not found
 00379A 7036/47F0 704E 0379A 03794 24112  1                      ELSE  BEGIN
 00379E D201 802D 802B 00005 00003 24123  2                        MVC   FNGIDATA(2),FNGIACCT+3  gg
 0037A4 924B 802F      00007       24124  2                        MVI   FNGIDATA+2,C'.'
 0037A8 D202 8030 8028 00008 00000 24125  2                        MVC   FNGIDATA+3(3),FNGIACCT  uuu
 0037AE 4110 802D/4100_      00005 24126  2                        SETMSG FNGIDATA,6          "gg.uuu"
 0037B6                            24142  1                      END
                                   24146  1
 0037B6 D74F 6000 6000_00000 00000 24147  1                      VRETURN STRING,(R1),(R0)
 USING  VNENTRY,R6
 DROP   VNENTRY,R6
 DROP   VNENTRY,R5                 24231                       END
                                   24240
 0037D2 18D8/9808 D004_            24241                       PEND
 DROP   FNGIDWA-(4+36),R8
 DROP   *,R7
1FUNC     (FUNC2193) (12:45) (15MAR04) System Routines for Functions                                                        Page   97
0Current Usings:  (CP,R11) (CV,R12)
0Loc    Object Code    Addr1 Addr2  Stmt Lv Lineno    Source Statement           (Hibal 5, Asmedit 3.3)  HLASM R4.0  2004/03/15 12.45
+___    ______ ____    _____ _____  ____ __ ______    ______ _________
0                                  24267              ¿þþþþþþþþþþþþþþþþþþþþþþþþþþþþþþþþþþþþþþþþþþþþþþþþþþþþþþþþþþþþþþþþþþþþþÜ
                                   24268              Ÿ                                                                     Ÿ
                                   24269              Ÿ  GET_USERID function.                                               Ÿ
                                   24270              Ÿ                                                                     Ÿ
                                                      ¾þþþþþþþþþþþþþþþþþþþþþþþþþþþþþþþþþþþþþþþþþþþþþþþþþþþþþþþþþþþþþþþþþþþþþ»
00037E0 50E0 D000/9008_      00000 24271              FNGETID  PROC  FNGIDWA
 USING  *,R7
 USING  FNGIDWA-(4+36),R8
                                   24321
 0037FA 4120 73FE/58E0_      03BF8 24322                       SETARGS '11S'             1 arg: str
 003804 4770 7064            0385E 24328                       IF    Z,BEGIN
 003808 4151 0000            00000 24339  1                      LA    R5,ARG1(R1)
 USING  VNENTRY,R5                 24340  1                      WITH  (VNENTRY,R5)
 00380C 4110 5026/4800_      00026 24353  1                      SETMSG VNSTRLOC,LH:VNSTRLEN  Account
 003814 58E0 73DA/0DEE       03BD4 24366  1                      VCALL LRTRIM
 00381A 41F0 8028            00000 24370  1                      LA    R15,FNGIACCT        Put account in "uuugg" form here
 00381E 58E0 73DE/0DEE       03BD8 24371  1                      VCALL GETACCT             Get account
 003824 4780 7032/1B11_      0382C 24375  1                      IF    NZ,'CLEAR R1,R0'    ID not found
 00382C 7036/47F0 7048 0382C 03826 24397  1                      ELSE  BEGIN
 003830 41F0 8028            00000 24408  2                        LA    R15,FNGIACCT        "uuugg" ptr
 003834 4110 802D/4100_      00005 24409  2                        SETMSG FNGIDATA            Work area
 00383C 58E0 73E2/0DEE       03BDC 24423  2                        VCALL GETUID              Get userid for this account
 003842                            24427  1                      END
                                   24431  1
 003842 D74F 6000 6000_00000 00000 24432  1                      VRETURN STRING,(R1),(R0)
 USING  VNENTRY,R6
 DROP   VNENTRY,R6
 DROP   VNENTRY,R5                 24516                       END
                                   24525
 00385E 18D8/9808 D004_            24526                       PEND
 DROP   FNGIDWA-(4+36),R8
 DROP   *,R7
1FUNC     (FUNC2193) (12:45) (15MAR04) System Routines for Functions                                                        Page   98
0Current Usings:  (CP,R11) (CV,R12)
0Loc    Object Code    Addr1 Addr2  Stmt Lv Lineno    Source Statement           (Hibal 5, Asmedit 3.3)  HLASM R4.0  2004/03/15 12.45
+___    ______ ____    _____ _____  ____ __ ______    ______ _________
0                                  24552              ¿þþþþþþþþþþþþþþþþþþþþþþþþþþþþþþþþþþþþþþþþþþþþþþþþþþþþþþþþþþþþþþþþþþþþþÜ
                                   24553              Ÿ                                                                     Ÿ
                                   24554              Ÿ  GET_USERID_LIST function.                                          Ÿ
                                   24555              Ÿ                                                                     Ÿ
                                                      ¾þþþþþþþþþþþþþþþþþþþþþþþþþþþþþþþþþþþþþþþþþþþþþþþþþþþþþþþþþþþþþþþþþþþþþ»
000386C 50E0 D000/9008_      00000 24556              FNGETIDL PROC  FNGIDWA
 USING  *,R7
 USING  FNGIDWA-(4+36),R8
                                   24606
 003886 4120 7372/58E0_      03BF8 24607                       SETARGS '11S'             1 arg: str
 003890 4770 705E            038E4 24613                       IF    Z,BEGIN
 003894 4151 0000            00000 24624  1                      LA    R5,ARG1(R1)
 USING  VNENTRY,R5                 24625  1                      WITH  (VNENTRY,R5)
 003898 4110 5026/4800_      00026 24638  1                      SETMSG VNSTRLOC,LH:VNSTRLEN  Account
 0038A0 58E0 734E/0DEE       03BD4 24651  1                      VCALL LRTRIM
 0038A6 41F0 8028            00000 24655  1                      LA    R15,FNGIACCT        Put account in "uuugg" form here
 0038AA 58E0 7352/0DEE       03BD8 24656  1                      VCALL GETACCT             Get account
                                   24660  1
 0038B0 41F0 8028            00000 24661  1                      LA    R15,FNGIACCT        "uuugg" ptr
 0038B4 4110 802D/4100_      00005 24662  1                      SETMSG FNGIDATA            Work area
 0038BC 58E0 735A/0DEE       03BE0 24676  1                      VCALL GETUIDL             Get IDLIST for this account
 0038C2 4780 7042/1B00       038C8 24680  1                      IF    NZ,'CLEAR R0'       No IDLIST
                                   24700  1
 0038C8 D74F 6000 6000_00000 00000 24701  1                      VRETURN STRING,(R1),(R0)
 USING  VNENTRY,R6
 DROP   VNENTRY,R6
 DROP   VNENTRY,R5                 24785                       END
                                   24794
 0038E4 18D8/9808 D004_            24795                       PEND
 DROP   FNGIDWA-(4+36),R8
 DROP   *,R7
1FUNC     (FUNC2193) (12:45) (15MAR04) System Routines for Functions                                                        Page   99
0Current Usings:  (CP,R11) (CV,R12)
0Loc    Object Code    Addr1 Addr2  Stmt Lv Lineno    Source Statement           (Hibal 5, Asmedit 3.3)  HLASM R4.0  2004/03/15 12.45
+___    ______ ____    _____ _____  ____ __ ______    ______ _________
0                                  24821              ¿þþþþþþþþþþþþþþþþþþþþþþþþþþþþþþþþþþþþþþþþþþþþþþþþþþþþþþþþþþþþþþþþþþþþþÜ
                                   24822              Ÿ                                                                     Ÿ
                                   24823              Ÿ  GET_USERID_TYPE function.                                          Ÿ
                                   24824              Ÿ                                                                     Ÿ
                                                      ¾þþþþþþþþþþþþþþþþþþþþþþþþþþþþþþþþþþþþþþþþþþþþþþþþþþþþþþþþþþþþþþþþþþþþþ»
00038F2 50E0 D000/9008_      00000 24825              FNGETIDT PROC  FNGIDWA
 USING  *,R7
 USING  FNGIDWA-(4+36),R8
                                   24875
 00390C 4120 72EC/58E0_      03BF8 24876                       SETARGS '11S'             1 arg: str
 003916 4770 7036            03942 24882                       IF    Z,BEGIN
 00391A 4151 0000            00000 24893  1                      LA    R5,ARG1(R1)
 USING  VNENTRY,R5                 24894  1                      WITH  (VNENTRY,R5)
 00391E 4110 72EF/4100_      03BFB 24907  1                      SETMSG '???'               !!!! TEMPORARY !!!!
 003926 D74F 6000 6000_00000 00000 24911  1                      VRETURN STRING,(R1),(R0)
 USING  VNENTRY,R6
 DROP   VNENTRY,R6
 DROP   VNENTRY,R5                 24995                       END
                                   25004
 003942 18D8/9808 D004_            25005                       PEND
 DROP   FNGIDWA-(4+36),R8
 DROP   *,R7
1FUNC     (FUNC2193) (12:45) (15MAR04) System Routines for Functions                                                        Page  100
0Current Usings:  (CP,R11) (CV,R12)
0Loc    Object Code    Addr1 Addr2  Stmt Lv Lineno    Source Statement           (Hibal 5, Asmedit 3.3)  HLASM R4.0  2004/03/15 12.45
+___    ______ ____    _____ _____  ____ __ ______    ______ _________
0                                  25031              ¿þþþþþþþþþþþþþþþþþþþþþþþþþþþþþþþþþþþþþþþþþþþþþþþþþþþþþþþþþþþþþþþþþþþþþÜ
                                   25032              Ÿ                                                                     Ÿ
                                   25033              Ÿ  GMT function.                                                      Ÿ
                                   25034              Ÿ                                                                     Ÿ
                                   25035              Ÿ    Convert a local time string                                      Ÿ
                                   25036              Ÿ    of the form YYYY/MM/DD HH:MM[:SS] to                             Ÿ
                                   25037              Ÿ    ARPA standard format in GMT                                      Ÿ
                                   25038              Ÿ                                                                     Ÿ
                                                      ¾þþþþþþþþþþþþþþþþþþþþþþþþþþþþþþþþþþþþþþþþþþþþþþþþþþþþþþþþþþþþþþþþþþþþþ»
0000000                00000 0003C 25039              FNGMTWA  RECORD BEGIN
 000000                            25047  1           FNGMTCLK   DS    D
 000008                            25048  1           FNGMTOFF   DS    F
 00000C                            25049  1           FNGMTCNV   DS    CL16
 00001C                            25050  1           FNGMTXDT   DS    CL32
 00003C                0003C 0003C 25051                       END
-003950 50E0 D000/9008_      00000 25061              FNGETGMT PROC  FNGMTWA
 USING  *,R7
 USING  FNGMTWA-(4+36),R8
                                   25111
 00396A 4120 728E/58E0_      03BF8 25112                       SETARGS '11S'             1 arg: str
 003974 4770 7258            03BC2 25118                       IF    Z,BEGIN
 003978 4151 0000            00000 25129  1                      LA    R5,ARG1(R1)
 USING  VNENTRY,R5                 25130  1                      WITH  (VNENTRY,R5)
 00397C 4120 5026            00026 25143  1                      LA    R2,VNSTRLOC
 003980 4830 5024            00024 25144  1                      LH    R3,VNSTRLEN
 003984 5930 727A/4750_      03BE4 25145  1                      IF    (R3,GE,16),BEGIN
 00398C D70F 8034 8034 0000C 0000C 25162  2                        CLEAR FNGMTCNV
 003992 1F00/4300 200B             25169  2                        LC    R0,11(,R2)          Do HH
 003998 8900 001C            0001C 25174  2                        SLL   R0,28
 00399C 1F11/4310 200C             25175  2                        LC    R1,12(,R2)
 0039A2 8910 001C            0001C 25182  2                        SLL   R1,28
 0039A6 8810 0004            00004 25183  2                        SRL   R1,4
 0039AA 1601                       25184  2                        OR    R0,R1
 0039AC 1F11/4310 200E             25185  2                        LC    R1,14(,R2)          Do MM
 0039B2 8910 001C            0001C 25192  2                        SLL   R1,28
 0039B6 8810 0008            00008 25193  2                        SRL   R1,8
 0039BA 1601                       25194  2                        OR    R0,R1
 0039BC 1F11/4310 200F             25195  2                        LC    R1,15(,R2)
 0039C2 8910 001C            0001C 25202  2                        SLL   R1,28
 0039C6 8810 000C            0000C 25203  2                        SRL   R1,12
 0039CA 1601                       25204  2                        OR    R0,R1
 0039CC 5930 727E/4750_      03BE8 25205  2                        IF    (R3,GE,19),BEGIN    Do SS
 0039D4 1F11/4310 2011             25222  3                          LC    R1,17(,R2)
 0039DA 8910 001C            0001C 25229  3                          SLL   R1,28
 0039DE 8810 0010            00010 25230  3                          SRL   R1,16
 0039E2 1601                       25231  3                          OR    R0,R1
 0039E4 1F11/4310 2012             25232  3                          LC    R1,18(,R2)
 0039EA 8910 001C            0001C 25239  3                          SLL   R1,28
 0039EE 8810 0014            00014 25240  3                          SRL   R1,20
 0039F2 1601                       25241  3                          OR    R0,R1
 0039F4                            25242  2                        END
1FUNC     (FUNC2193) (12:45) (15MAR04) System Routines for Functions                                                        Page  101
0Current Usings:  (VNENTRY,R5) (*,R7) (FNGMTWA-(4+36),R8) (CP,R11) (CV,R12)
0Loc    Object Code    Addr1 Addr2  Stmt Lv Lineno    Source Statement           (Hibal 5, Asmedit 3.3)  HLASM R4.0  2004/03/15 12.45
+___    ______ ____    _____ _____  ____ __ ______    ______ _________
00039F4 5000 8034            0000C 25246  2                        ST    R0,FNGMTCNV         Time goes in 1st word
 0039F8 1F00/4300 2000             25247  2                        LC    R0,0(,R2)           Do YYYY
 0039FE 8900 001C            0001C 25252  2                        SLL   R0,28
 003A02 1F11/4310 2001             25253  2                        LC    R1,1(,R2)
 003A08 8910 001C            0001C 25260  2                        SLL   R1,28
 003A0C 8810 0004            00004 25261  2                        SRL   R1,4
 003A10 1601                       25262  2                        OR    R0,R1
 003A12 1F11/4310 2002             25263  2                        LC    R1,2(,R2)
 003A18 8910 001C            0001C 25270  2                        SLL   R1,28
 003A1C 8810 0008            00008 25271  2                        SRL   R1,8
 003A20 1601                       25272  2                        OR    R0,R1
 003A22 1F11/4310 2003             25273  2                        LC    R1,3(,R2)
 003A28 8910 001C            0001C 25280  2                        SLL   R1,28
 003A2C 8810 000C            0000C 25281  2                        SRL   R1,12
 003A30 1601                       25282  2                        OR    R0,R1
 003A32 1F11/4310 2005             25283  2                        LC    R1,5(,R2)           Do MM
 003A38 8910 001C            0001C 25290  2                        SLL   R1,28
 003A3C 8810 0010            00010 25291  2                        SRL   R1,16
 003A40 1601                       25292  2                        OR    R0,R1
 003A42 1F11/4310 2006             25293  2                        LC    R1,6(,R2)
 003A48 8910 001C            0001C 25300  2                        SLL   R1,28
 003A4C 8810 0014            00014 25301  2                        SRL   R1,20
 003A50 1601                       25302  2                        OR    R0,R1
 003A52 1F11/4310 2008             25303  2                        LC    R1,8(,R2)           And DD
 003A58 8910 001C            0001C 25310  2                        SLL   R1,28
 003A5C 8810 0018            00018 25311  2                        SRL   R1,24
 003A60 1601                       25312  2                        OR    R0,R1
 003A62 1F11/4310 2009             25313  2                        LC    R1,9(,R2)
 003A68 8910 001C            0001C 25320  2                        SLL   R1,28
 003A6C 8810 001C            0001C 25321  2                        SRL   R1,28
 003A70 1601                       25322  2                        OR    R0,R1
 003A72 5000 803C            00014 25323  2                        ST    R0,FNGMTCNV+8       Date goes in 3rd word
 003A76 5110 0000/4110_      00000 25324  2                        CONVTOD CONVVAL=FNGMTCNV,TODVAL=FNGMTCLK,DATETYPE=YYYYMMDD
 003AD6 12FF/4770 722C             25351  2                        IF    (R15,Z),BEGIN
 003ADC 9801 8028            00000 25365  3                          LM    R0,R1,FNGMTCLK
 003AE0 41F0 8044            0001C 25366  3                          LA    R15,FNGMTXDT
 003AE4 58E0 7282/0DEE       03BEC 25367  3                          VCALL FMTXDATE
 003AEA D203 8030 7286 00008 03BF0 25371  3                          MVC   FNGMTOFF,=X'0000800F'   Assume standard time
 003AF0 95C4 101B/4770_0001B       25372  3                          IF    (@R1+27,EQ,'D'),BEGIN   Daylight/Standard time?
 003AF8 D203 8030 728A 00008 03BF4 25388  4                            MVC   FNGMTOFF,=X'0000700F'
 003AFE                            25389  3                          END
                                   25393  3         C                CONVTOD CONVVAL=FNGMTCNV,TODVAL=FNGMTCLK,DATETYPE=YYYYMMDD,
 003AFE 5110 0000/4110_      00000        3                                OFFSET=FNGMTOFF
 003B68 12FF/4770 7224             25422  3                          IF    (R15,Z),BEGIN
 003B6E 9801 8028            00000 25436  4                            LM    R0,R1,FNGMTCLK
 003B72 41F0 8044            0001C 25437  4                            LA    R15,FNGMTXDT
 003B76 58E0 7282/0DEE       03BEC 25438  4                            VCALL FMTXDATE
 003B7C 9540 1005/4770_00005       25442  4                            IF    (@R1+5,EQ,' '),'MVI @R1+5,C"0"'  Restore leading zero
 003B88 D202 101A 7294 0001A 03BFE 25464  4                            MVC   26(3,R1),=CL3'GMT'
 003B8E                            25465  3                          END
 003B8E 7228/47F0 722C 03B8E 03B6C 25469  3                          ELSE  BEGIN
 003B92 1B00/1B11                  25480  4                            CLEAR R0,R1
 003B96                            25486  3                          END
 003B96                            25490  2                        END
1FUNC     (FUNC2193) (12:45) (15MAR04) System Routines for Functions                                                        Page  102
0Current Usings:  (VNENTRY,R5) (*,R7) (FNGMTWA-(4+36),R8) (CP,R11) (CV,R12)
0Loc    Object Code    Addr1 Addr2  Stmt Lv Lineno    Source Statement           (Hibal 5, Asmedit 3.3)  HLASM R4.0  2004/03/15 12.45
+___    ______ ____    _____ _____  ____ __ ______    ______ _________
0003B96 7230/47F0 7234 03B96 03ADA 25494  2                        ELSE  BEGIN
 003B9A 1B00/1B11                  25505  3                          CLEAR R0,R1
 003B9E                            25511  2                        END
 003B9E                            25515  1                      END
 003B9E 7238/47F0 723C 03B9E 0398A 25519  1                      ELSE  BEGIN
 003BA2 1B00/1B11                  25530  2                        CLEAR R0,R1
 003BA6                            25536  1                      END
                                   25540  1
 003BA6 D74F 6000 6000_00000 00000 25541  1                      VRETURN STRING,(R1),(R0)
 USING  VNENTRY,R6
 DROP   VNENTRY,R6
 DROP   VNENTRY,R5                 25625                       END
                                   25634
 003BC2 18D8/9808 D004_            25635                       PEND
 DROP   FNGMTWA-(4+36),R8
 DROP   *,R7
                                   25660                       QLTORG ,
1FUNC     (FUNC2193) (12:45) (15MAR04) System Routines for Functions                                                        Page  103
0Current Usings:  (CP,R11) (CV,R12)
0Loc    Object Code    Addr1 Addr2  Stmt Lv Lineno    Source Statement           (Hibal 5, Asmedit 3.3)  HLASM R4.0  2004/03/15 12.45
+___    ______ ____    _____ _____  ____ __ ______    ______ _________
0                                  25686              ¿þþþþþþþþþþþþþþþþþþþþþþþþþþþþþþþþþþþþþþþþþþþþþþþþþþþþþþþþþþþþþþþþþþþþþÜ
                                   25687              Ÿ                                                                     Ÿ
                                   25688              Ÿ   HOST_INFO( what [,host] )                                         Ÿ
                                   25689              Ÿ                                                                     Ÿ
                                   25690              Ÿ   Return information about either the specified host or (if host is Ÿ
                                   25691              Ÿ   omitted) the current host.  Currently "what" can be used to returnŸ
                                   25692              Ÿ   one of the following:                                             Ÿ
                                   25693              Ÿ      'HOST'   - the hostname (only useful if "host" is omitted)     Ÿ
                                   25694              Ÿ      'USER'   - the username                                        Ÿ
                                   25695              Ÿ      'PASS'   - "*" if a password has been set, "" if not           Ÿ
                                   25696              Ÿ      'ACCT'   - the account                                         Ÿ
                                   25697              Ÿ                                                                     Ÿ
                                                      ¾þþþþþþþþþþþþþþþþþþþþþþþþþþþþþþþþþþþþþþþþþþþþþþþþþþþþþþþþþþþþþþþþþþþþþ»
0000000                00000 00064 25698              HIWA     RECORD  BEGIN
 000000 00                         25706  1           HIFLAG1    FLAG    HIFHOST           wants the host name
 HIFLAG1.HIFHOST   80 ONES
 HIFLAG1.HIFPASS   40 ONES         25712  1                      FLAG    HIFPASS           wants the password
 000004                            25717  1                      DS      0F
 000004                            25718  1           HIKEY      DS      0CL64             a place for the key
 000004                            25719  1           HIKTYPE    DS      CL5                 type_
 000009                            25720  1           HIKHOST    DS      CL59                     hostname
 000044                            25721  1           HIDATA     DS      CL32              a place for the record
 000064                00064 00064 25722                       END
-                                  25732
 003C20 50E0 D000/9008_      00000 25733              FNHOSTI  PROC    HIWA
 USING  *,R7
 USING  HIWA-(4+36),R8
 003C3A 4130 8028            00000 25783                       LA      R3,HIWA
 USING  HIWA,R3                    25784                       USING   HIWA,R3
 003C3E 9200 3000      00000       25793                       CLEAR   HIFLAG1
 003C42 D23A 3009 C4D8 00009 004D8 25800                       MVC     HIKHOST,CVBLANKS
 003C48 4120 7B26/58E0_      04760 25801                       SETARGS '12SS'            check arguments
 003C52 4770 718C            03DC6 25807                       IF      Z,BEGIN
                                   25818  1           *
                                   25819  1           * Create a search key of the form "what_host"  (i.e., USER_CCVAX)
                                   25820  1           *
 003C56 1841                       25821  1                      LR      R4,R1             move argument pointer to R4
 USING  VNENTRY,R5                 25822  1                      WITH    (VNENTRY,R5)
 003C58 5900 7B2E/4750_      04768 25835  1                      IF      (R0,GE,2),BEGIN   if (a host specified) begin
 003C60 4154 0150            00150 25852  2                        LA      R5,ARG2(R4)
 003C64 4110 5026/4800_      00026 25853  2                        SETMSG   VNSTRLOC,LH:VNSTRLEN  get address & length
 003C6C 58E0 7B32/0DEE       0476C 25866  2                        VCALL   LRTRIM                trim leading/trailing blanks
 003C72                            25870  1                      END
 003C72 703C/47F0 7044 03C72 03C5E 25874  1                      ELSE    BEGIN             otherwise
 003C76 4110 B1BD/4100_      001BD 25885  2                        SETMSG   CPHOST                use default host
 003C7E                            25899  1                      END
 003C7E 18F0                       25903  1                      LR      R15,R0
 003C80 59F0 7B36/47D0_      04770 25904  1                      CEIL    R15,L'HIKHOST     insure a reasonable length
 003C8C 06F0/12FF/4740_            25923  1                      MOVE    R15,HIKHOST,@R1   copy into key area
 003C98 5820 C8A8            008A8 25961  1                      L       R2,CVUPPTBL
 003C9C DC3A 3009 2000 00009 00000 25962  1                      TR      HIKHOST,@R2       make it uppercase
1FUNC     (FUNC2193) (12:45) (15MAR04) System Routines for Functions                                                        Page  104
0Current Usings:  (HIWA,R3) (VNENTRY,R5) (*,R7) (HIWA-(4+36),R8) (CP,R11) (CV,R12)
0Loc    Object Code    Addr1 Addr2  Stmt Lv Lineno    Source Statement           (Hibal 5, Asmedit 3.3)  HLASM R4.0  2004/03/15 12.45
+___    ______ ____    _____ _____  ____ __ ______    ______ _________
0                                  25963  1           *
                                   25964  1           *   Scan "type" to finish building the key
                                   25965  1           *
 003CA2 58E0 B08C/D2AF_      0008C 25966  1                      SCPUSH  ,
 003CB0 4154 0000            00000 25972  1                      LA      R5,ARG1(R4)
 003CB4 4110 5026/4800_      00026 25973  1                      SCINIT  VNSTRLOC,LH:VNSTRLEN  get address & length
 003CCA 5810 B08C/1B00_      0008C 25996  1                      SCAN    HIPRT
 003D1C 58E0 B08C/4BD0_      0008C 26028  1                      SCPOP   ,
 003D2A 12FF/4770 718C             26034  1                      IF    (R15,NZ),HIXIT
                                   26051  1           *
                                   26052  1           * If they just want the name of the (current) host, give it to them
                                   26053  1           *
 003D30 9180 3000/47E0_00000       26054  1                      IF      (HIFHOST),BEGIN
 003D38 4110 3009/4100_      00009 26069  2                        SETMSG   HIKHOST
 003D40 D74F 6000 6000_00000 00000 26083  2                        VRETURN STRING,(R1),(R0)
 USING  VNENTRY,R6
 DROP   VNENTRY,R6
 003D5C 58E0 7B42/0DEE       0477C 26167  2                        VTRIM
 003D62                            26172  1                      END
 003D62 712C/47F0 718C 03D62 03D36 26176  1                      ELSE    BEGIN
                                   26187  2           *
                                   26188  2           * Setup access to the record group
                                   26189  2           *
 003D66 4100 0012            00012 26190  2                        LA      R0,CP#HOSTI
 003D6A 41F0 B544            00544 26191  2                        LA      R15,CPRG64
 003D6E 58E0 7B46/0DEE       04780 26192  2                        VCALL   XSETSET
                                   26196  2           *
                                   26197  2           * Find the record
                                   26198  2           *
 003D74 4120 3004            00004 26199  2                        LA      R2,HIKEY
 003D78 4110 3044/4100_      00044 26200  2                        SETMSG   HIDATA
 003D80 41F0 B544            00544 26214  2                        LA      R15,CPRG64
 003D84 58E0 7B4A/0DEE       04784 26215  2                        VCALL   XGET
 003D8A 4780 7156/1B00       03D90 26219  2                        IF      NZ,'CLEAR R0'
 003D90 715A/47F0 716A_03D90 03D8C 26239  2                        ELSEIF  (HIFPASS),'SETMSG "*"'
 003DA4 D74F 6000 6000_00000 00000 26272  2                        VRETURN STRING,(R1),(R0)
 USING  VNENTRY,R6
 DROP   VNENTRY,R6
 003DC0 58E0 7B42/0DEE       0477C 26356  2                        VTRIM
 003DC6                            26361  1                      END
 DROP   VNENTRY,R5                 26365                       END
 003DC6                            26374              HIXIT    LABEL ,
 003DC6 18D8/9808 D004_            26376                       PEND  ,
 DROP   HIWA-(4+36),R8
 DROP   *,R7
                                   26401              *
                                   26402              * Scan table for "type"
                                   26403              *
 003DD4 C1C3C3E340404040_          26404              HIPRT    SCKW    ACCT,HIACCT
 003DFC C8D6E2E340404040_          26419                       SCKW    HOST,HIHOST
 003E24 D7C1E2E240404040_          26434                       SCKW    PASS,HIPASS
 003E4C E4E2C5D940404040_          26449                       SCKW    USER,HIUSER
 003E74 4040404040404040_          26464                       SCKW    ,HIERR
                                   26479              *
1FUNC     (FUNC2193) (12:45) (15MAR04) System Routines for Functions                                                        Page  105
0Current Usings:  (HIWA,R3) (CP,R11) (CV,R12)
0Loc    Object Code    Addr1 Addr2  Stmt Lv Lineno    Source Statement           (Hibal 5, Asmedit 3.3)  HLASM R4.0  2004/03/15 12.45
+___    ______ ____    _____ _____  ____ __ ______    ______ _________
0                                  26480              * Modify the search key to reflect what they are asking for
                                   26481              *
 003E9C 50E0 D000/9008_      00000 26482              HIACCT   PROC
 USING  *,R7
 003EB6 D204 3004 7925 00004 047DB 26521                       MVC     HIKEY(5),=C'ACCT_'
 003EBC 18D8/9808 D004_            26522                       PEND
 DROP   *,R7
                                   26542
 003ECA 50E0 D000/9008_      00000 26543              HIPASS   PROC
 USING  *,R7
 003EE4 D204 3004 78FC 00004 047E0 26582                       MVC     HIKEY(5),=C'PASS_'
 003EEA 9640 3000      00000       26583                       SET     HIFPASS
 003EEE 18D8/9808 D004_            26589                       PEND
 DROP   *,R7
                                   26609
 003EFC 50E0 D000/9008_      00000 26610              HIUSER   PROC
 USING  *,R7
 003F16 D204 3004 78CF 00004 047E5 26649                       MVC     HIKEY(5),=C'USER_'
 003F1C 18D8/9808 D004_            26650                       PEND
 DROP   *,R7
                                   26670
 003F2A 50E0 D000/9008_      00000 26671              HIHOST   PROC
 USING  *,R7
 003F44 9680 3000      00000       26710                       SET     HIFHOST           Type=HOST is special
 003F48 18D8/9808 D004_            26716                       PEND
 DROP   *,R7
                                   26736
 003F56 50E0 D000/9008_      00000 26737              HIERR    PROC
 USING  *,R7
 003F70 41F0 B050/58E0_      00050 26776                       TSEG    (R1),(R0)
 003F7A 4110 77C0/4100_      04730 26800                       TSEG    ' is an unknown HOST_INFO option.'
 003F8C 4120 0001/58E0_      00001 26818                       BADARG  1
 003F96 41F0 0004            00004 26829                       LA      R15,4
 003F9A 18D8/9808 D004_            26830                       PEND
 DROP   *,R7
 DROP   HIWA,R3                    26850                       DROP    R3
1FUNC     (FUNC2193) (12:45) (15MAR04) System Routines for Functions                                                        Page  106
0Current Usings:  (CP,R11) (CV,R12)
0Loc    Object Code    Addr1 Addr2  Stmt Lv Lineno    Source Statement           (Hibal 5, Asmedit 3.3)  HLASM R4.0  2004/03/15 12.45
+___    ______ ____    _____ _____  ____ __ ______    ______ _________
0                                  26858              ¿þþþþþþþþþþþþþþþþþþþþþþþþþþþþþþþþþþþþþþþþþþþþþþþþþþþþþþþþþþþþþþþþþþþþþÜ
                                   26859              Ÿ                                                                     Ÿ
                                   26860              Ÿ  HOST_USER('host') -- Return userid for the host specified.         Ÿ
                                   26861              Ÿ                                                                     Ÿ
                                   26862              Ÿ  See comments at the start of this module.                          Ÿ
                                   26863              Ÿ                                                                     Ÿ
                                                      ¾þþþþþþþþþþþþþþþþþþþþþþþþþþþþþþþþþþþþþþþþþþþþþþþþþþþþþþþþþþþþþþþþþþþþþ»
0000000                00000 00080 26864              HWA      RECORD BEGIN
 000000                            26872  1           HWAREA     DS    CL64                Assemble record key here
 000040                            26873  1           HWDATA     DS    CL64                Data goes here
 000080                00080 00080 26874                       END
                                   26883              þþþþ
 003FA8 50E0 D000/9008_      00000 26884              FNHOSTU  PROC  HWA
 USING  *,R7
 USING  HWA-(4+36),R8
                                   26934
 003FC2 4120 7828/58E0_      047EA 26935                       SETARGS '11S'             1 arg: str
 003FCC 4770 70AA            0406C 26941                       IF    Z,BEGIN
 003FD0 D23F 8028 C4D8 00000 004D8 26952  1                      MVC   HWAREA,CVBLANKS
 003FD6 D204 8028 7823 00000 047E5 26953  1                      MVC   HWAREA(5),=C'USER_'
                                   26954  1
 003FDC 4151 0000            00000 26955  1                      LA    R5,ARG1(R1)
 USING  VNENTRY,R5                 26956  1                      WITH  (VNENTRY,R5)
 003FE0 4110 5026/4800_      00026 26969  1                      SETMSG VNSTRLOC,LH:VNSTRLEN  Host name specified
 003FE8 58E0 77AA/0DEE       0476C 26982  1                      VCALL LRTRIM              Trim leading/trailing blanks
 003FEE 1200/4770 703A_            26986  1                      IF    (R0,Z),'SETMSG CPHOST'  Use default host name
 003FFC 18F0                       27019  1                      LR    R15,R0
 003FFE 59F0 77CE/47D0_      04790 27020  1                      CEIL  R15,L'HWAREA-5      Not too long now
 00400A 06F0/12FF/4740_            27039  1                      MOVE  R15,HWAREA+5,@R1    Make "USER_host" as key
 004016 5820 C8A8            008A8 27077  1                      L     R2,CVUPPTBL
 00401A DC3F 8028 2000 00000 00000 27078  1                      TR    HWAREA,@R2          Make sure it's all upper case
                                   27079  1
 004020 4100 0012            00012 27080  1                      LA    R0,CP#HOSTI
 004024 41F0 B544            00544 27081  1                      LA    R15,CPRG64          Misc keylen 64 record group
 004028 58E0 77BE/0DEE       04780 27082  1                      VCALL XSETSET             Set host info RG
                                   27086  1
 00402E 4120 8028            00000 27087  1                      LA    R2,HWAREA
 004032 4110 8068/4100_      00040 27088  1                      SETMSG HWDATA
 00403A 41F0 B544            00544 27102  1                      LA    R15,CPRG64
 00403E 58E0 77C2/0DEE       04784 27103  1                      VCALL XGET                Get user-id for this host
 004044 4780 7088/1B00       0404A 27107  1                      IF    NZ,'CLEAR R0'
                                   27127  1
 00404A D74F 6000 6000_00000 00000 27128  1                      VRETURN STRING,(R1),(R0)  Return network userid
 USING  VNENTRY,R6
 DROP   VNENTRY,R6
 004066 58E0 77BA/0DEE       0477C 27212  1                      VTRIM
 DROP   VNENTRY,R5                 27217                       END
                                   27226
 00406C 18D8/9808 D004_            27227                       PEND
 DROP   HWA-(4+36),R8
 DROP   *,R7
1FUNC     (FUNC2193) (12:45) (15MAR04) System Routines for Functions                                                        Page  107
0Current Usings:  (CP,R11) (CV,R12)
0Loc    Object Code    Addr1 Addr2  Stmt Lv Lineno    Source Statement           (Hibal 5, Asmedit 3.3)  HLASM R4.0  2004/03/15 12.45
+___    ______ ____    _____ _____  ____ __ ______    ______ _________
0                                  27253              ¿þþþþþþþþþþþþþþþþþþþþþþþþþþþþþþþþþþþþþþþþþþþþþþþþþþþþþþþþþþþþþþþþþþþþþÜ
                                   27254              Ÿ                                                                     Ÿ
                                   27255              Ÿ  INCHAR -- Routine to get a single input character from the         Ÿ
                                   27256              Ÿ    terminal.                                                        Ÿ
                                   27257              Ÿ                                                                     Ÿ
                                   27258              Ÿ                                                                     Ÿ
                                                      ¾þþþþþþþþþþþþþþþþþþþþþþþþþþþþþþþþþþþþþþþþþþþþþþþþþþþþþþþþþþþþþþþþþþþþþ»
0000000                00000 00022 27259              INCHRWA  RECORD BEGIN
 000000 00                         27267  1           INCHRFLG   FLAG
 INCHRFLG.INCHRFAT 80 ONES         27271  1                      FLAG  INCHRFATTN          - ATTNs are allowed
 INCHRFLG.INCHRFTR 40 ONES         27276  1                      FLAG  INCHRFTRAN          - TRANSPARENT mode
                                   27281  1
 000004                            27282  1           INCHRPTR   DS    2A                  Prompt loc, len
 00000C                            27283  1           INCHRRC    DS    F                   TREAD return code
                                   27284  1
 000010                            27285  1           INCHRTVL   DS    F                   Timeout in .01 sec (0=no timeout)
 000014                            27286  1           INCHRTRM   DS    CL(L'CPTRM)         Saved terminal options
 000022                00022 00022 27287                       END
                                   27296              þþþþ
 00407A 50E0 D000/9008_      00000 27297              FNINCHAR PROC  INCHRWA
 USING  *,R7
 USING  INCHRWA-(4+36),R8
 004094 4140 8028            00000 27347                       LA    R4,INCHRWA
 USING  INCHRWA,R4                 27348                       USING INCHRWA,R4
 004098 D721 4000 4000 00000 00000 27357                       CLEAR INCHRWA
                                   27364
 00409E 58E0 B08C/D2AF_      0008C 27365                       SCPUSH ,
 0040AC D20D 4014 BC7A 00014 00C7A 27371                       MVC   INCHRTRM,CPTRM      Save terminal options
 0040B2 9680 BC7C/9610_00C7C       27372                       SET   CPFTRAN,CPFNMOD,CPFUFMT
 0040BE 9620 BC7C      00C7C       27386                       SET   CPFRUND             Count rundown mode
 0040C2 D201 BC80 773C 00C80 047D0 27392                       MVC   CPTRMIN,=H'1'       Maximum number of chars
                                   27393
 0040C8 4120 76CC/58E0_      04760 27394                       SETARGS '12SS'            1-2 args: str, str
 0040D2 4770 7226            042BA 27400                       BNZ   INCHRXIT
                                   27401
 0040D6 9140 BD5C/47E0_00D5C       27402                       IF    CPFZAPIF,BEGIN      Expression rescan...
 0040DE D74F 6000 6000_00000 00000 27417  1                      VRETURN STRING,'DUMMY'
 USING  VNENTRY,R6
 DROP   VNENTRY,R6
 004102 47F0 7226            042BA 27495  1                      B     INCHRXIT
 004106                            27496                       END
                                   27500
 004106 1820                       27501                       LR    R2,R0               Save number of arguments
 004108 1831                       27502                       LR    R3,R1               Argument list ptr
 USING  VNENTRY,R5                 27503                       WITH  (VNENTRY,R5)
                                   27516                       ¿þþþþþþþþþþþþþþþþþþþþþþþþþþþþþþþþÜ
                                   27517                       Ÿ  Save prompt string pointers.  Ÿ
                                   27518                       ¾þþþþþþþþþþþþþþþþþþþþþþþþþþþþþþþþ»
 00410A 4153 0000            00000 27519                       LA    R5,ARG1(R3)
 00410E 4110 5026/4800_      00026 27520                       SETMSG VNSTRLOC,LH:VNSTRLEN  Prompt text
                                   27533
 004116 9140 4000/4710_00000       27534                       IF    ~INCHRFTRAN,BEGIN   Translate prompt text...
 00411E 58E0 7700/0DEE       04794 27549  1                      VCALL TOASCII             Convert to ASCII
1FUNC     (FUNC2193) (12:45) (15MAR04) System Routines for Functions                                                        Page  108
0Current Usings:  (INCHRWA,R4) (VNENTRY,R5) (*,R7) (INCHRWA-(4+36),R8) (CP,R11) (CV,R12)
0Loc    Object Code    Addr1 Addr2  Stmt Lv Lineno    Source Statement           (Hibal 5, Asmedit 3.3)  HLASM R4.0  2004/03/15 12.45
+___    ______ ____    _____ _____  ____ __ ______    ______ _________
0004124                            27553                       END
                                   27557
 004124 9001 4004            00004 27558                       STM   R0,R1,INCHRPTR      Save ptrs for later
                                   27559                       ¿þþþþþþþþþþþþþþþþþþþþþþþþþþþþþþþþþþþþþþþþþþþþþÜ
                                   27560                       Ÿ  Scan second parameter for inchar options.  Ÿ
                                   27561                       ¾þþþþþþþþþþþþþþþþþþþþþþþþþþþþþþþþþþþþþþþþþþþþþ»
 004128 5920 76D4/4740_      04768 27562                       IF    (R2,LT,2),INCHRDO
 004130 4153 0150            00150 27582                       LA    R5,ARG2(R3)
 004134 4110 5026/4800_      00026 27583                       SCINIT VNSTRLOC,LH:VNSTRLEN  Options
 00414A 5810 B08C/1B00_      0008C 27606                       SCAN  INCPRT
 00419C 12FF/4770 7112             27638                       IF    (R15,NZ),INCERR
 0041A2 47F0 7140            041D4 27655                       B     INCHRDO             Now go do it
                                   27656
 0041A6 41F0 B050/58E0_      00050 27657              INCERR   TSEG  (R1),(R0)
 0041B0 4110 775E/4100_      047F2 27682                       TSEG  ' is an unknown INCHAR option.',,CR
 0041C2 4120 0002/58E0_      00002 27700                       BADARG 2
 0041CC 41F0 0004            00004 27711                       LA    R15,4
 0041D0 47F0 7226            042BA 27712                       B     INCHRXIT
                                   27713                       ¿þþþþþþþþþþþþþþþþþþþþþþþþþþþþþþþþþþþþþþþþþþþÜ
                                   27714                       Ÿ  Do the terminal read for one character.  Ÿ
                                   27715                       ¾þþþþþþþþþþþþþþþþþþþþþþþþþþþþþþþþþþþþþþþþþþþ»
 0041D4                            27716              INCHRDO  LABEL ,
                                   27718
 0041D4 18ED/41D0 D43C_            27719                       TPUSH
                                   27757
 004208 9801 4004            00004 27758                       LM    R0,R1,INCHRPTR      Prompt
 00420C 58F0 4010            00010 27759                       L     R15,INCHRTVL        Timeout value in .01 secs
 004210 58E0 7710/0DEE       047A4 27760                       TREAD (R1),(R0),TIMEOUT=(R15)  Get input from user
 004216 50F0 400C            0000C 27780                       ST    R15,INCHRRC
                                   27781
 00421A 5900 7714/4750_      047A8 27782                       IF    (R0,GE,1),BEGIN     We got the character...
 004222 9140 4000/4710_00000       27799  1                      IF    INCHRFTRAN,EXIT     Transparent, don't xl, scram
 00422A 1FFF/43F0 1000             27817  1                      LC    R15,@R1             Get ASCII character
 004230 54F0 7718            047AC 27824  1                      N     R15,=A(X'7F')
 004234 5AF0 C8B4            008B4 27825  1                      A     R15,CVEBCTBL
 004238 181F/4100 0001             27826  1                      SETMSG (R15),1             EBCDIC character
 00423E                            27840                       END
                                   27844
 00423E D74F 6000 6000_00000 00000 27845                       VRETURN STRING,(R1),(R0)  Return input string
 USING  VNENTRY,R6
 DROP   VNENTRY,R6
 00425A 4BD0 7740/D23B_      047D4 27929                       TPOP  JUNK
                                   27934                       ¿þþþþþþþþþþþþþþþþþþþþþþþþþþþþþþþþþþþþþþþþþþþþþþþÜ
                                   27935                       Ÿ  Set IORESULT variable to input return code.  Ÿ
                                   27936                       ¾þþþþþþþþþþþþþþþþþþþþþþþþþþþþþþþþþþþþþþþþþþþþþþþ»
 004264 4110 7742/4100_      047D6 27937                       SETMSG 'OK'
                                   27941
 00426C D503 771C 400C_047B0 0000C 27942                       IF    (INCHRRC,EQ,1),BEGIN  Attn...
 004276 9180 4000/47E0_00000       27960  1                      IF    INCHRFATTN,BEGIN    Attn's are allowed...
 00427E 5820 C1C8            001C8 27975  2                        L     R2,CVCURJCB
 004282 94FD 2062/94F7_00062       27976  2                        WITH  (JCB,R2),'CLEAR JCBFATTN,JCBFPATN'
 USING  JCB,R2
 DROP   JCB,R2
 00428A                            28011  1                      END
1FUNC     (FUNC2193) (12:45) (15MAR04) System Routines for Functions                                                        Page  109
0Current Usings:  (INCHRWA,R4) (VNENTRY,R5) (*,R7) (INCHRWA-(4+36),R8) (CP,R11) (CV,R12)
0Loc    Object Code    Addr1 Addr2  Stmt Lv Lineno    Source Statement           (Hibal 5, Asmedit 3.3)  HLASM R4.0  2004/03/15 12.45
+___    ______ ____    _____ _____  ____ __ ______    ______ _________
0                                  28015  1
 00428A 4110 7720/4100_      047B4 28016  1                      SETMSG 'ATTN'
 004292                            28020                       END
                                   28024
 004292 D503 7724 400C_047B8 0000C 28025                       IF    (INCHRRC,EQ,2),CVABORT  ?-Attn...  force EXEC BREAK
                                   28046
 00429C D503 7728 400C_047BC 0000C 28047                       IF    (INCHRRC,EQ,101),BEGIN  Reverse break...
 0042A6 4110 777B/4100_      0480F 28065  1                      SETMSG 'TIMEOUT'           (Can only happen because TIMEOUT)
 0042AE                            28069                       END
                                   28073
 0042AE 4120 76BC            04750 28074                       LA    R2,=CL16'SYS.IORESULT'
 0042B2 58E0 772C/0DEE       047C0 28075                       VCALL SAVEDATA            Save I/O return code in IORESULT
                                   28079
 0042B8 1BFF                       28080                       CLEAR R15
                                   28084
 0042BA D20D BC7A 4014 00C7A 00014 28085              INCHRXIT MVC   CPTRM,INCHRTRM      Restore terminal options
 0042C0 58E0 B08C/4BD0_      0008C 28086                       SCPOP ,
 0042CE 18D8/9808 D004_            28092                       PEND
 DROP   VNENTRY,R5
 DROP   INCHRWA-(4+36),R8
 DROP   *,R7
                                   28122                       ¿þþþþþþþþþþþþþþþþþþþþþþþþþþþþÜ
                                   28123                       Ÿ  INCHAR function options.  Ÿ
                                   28124                       ¾þþþþþþþþþþþþþþþþþþþþþþþþþþþþ»
 0042DC C1E3E3D540404040_          28125              INCPRT   SCKW  ATTN,INCATTN,A
 004304 C9D5E3C5D9D9E4D7_          28140                       SCKW  INTERRUPT,INCINT,A
 00432C C3D3C5C1D5404040_          28155                       SCKW  CLEAN,INCCLEAN,A
 004354 C5C3C8D640404040_          28170                       SCKW  ECHO,INCECHO,A
 00437C D5D6C5C3C8D64040_          28185                       SCKW  NOECHO,INCNECHO,A
 0043A4 E3E8D7C5C1C8C5C1_          28200                       SCKW  TYPEAHEAD,INCTYP,A
 0043CC D5D6E3E8D7C5C1C8_          28215                       SCKW  NOTYPEAHEAD,INCNTYP,A
 0043F4 C6D6D9C3C5404040_          28230                       SCKW  FORCE,INCFORCE,A
 00441C E3D9C1D5E2D7C1D9_          28245                       SCKW  TRANSPARENT,INCTRAN,A
 004444 E3C9D4C5D6E4E340_          28260                       SCKW  TIMEOUT,INCTMOUT,(A,P,PI),100000
 00446C 4040404040404040_          28275                       SCKW  ,INCHRERR
                                   28290
 004494 50E0 D000/9008_      00000 28291              INCATTN  PROC  ,
 USING  *,R7
 0044AE 9680 4000      00000       28330                       SET   INCHRFATTN
 0044B2 18D8/9808 D004_            28336                       PEND
 DROP   *,R7
                                   28356
 0044C0 50E0 D000/9008_      00000 28357              INCTRAN  PROC  ,
 USING  *,R7
 0044DA 9640 4000      00000       28396                       SET   INCHRFTRAN
 0044DE 18D8/9808 D004_            28402                       PEND
 DROP   *,R7
                                   28422
 0044EC 50E0 D000/9008_      00000 28423              INCINT   PROC  ,
 USING  *,R7
 004506 9620 BC7D      00C7D       28462                       SET   CPFTINT
 00450A 18D8/9808 D004_            28468                       PEND
 DROP   *,R7
                                   28488
1FUNC     (FUNC2193) (12:45) (15MAR04) System Routines for Functions                                                        Page  110
0Current Usings:  (INCHRWA,R4) (*,R7) (CP,R11) (CV,R12)
0Loc    Object Code    Addr1 Addr2  Stmt Lv Lineno    Source Statement           (Hibal 5, Asmedit 3.3)  HLASM R4.0  2004/03/15 12.45
+___    ______ ____    _____ _____  ____ __ ______    ______ _________
0004518 50E0 D000/9008_      00000 28489              INCCLEAN PROC  ,
 USING  *,R7
 004532 9680 BC7B      00C7B       28528                       SET   CPFCLEAN
 004536 18D8/9808 D004_            28534                       PEND
 DROP   *,R7
                                   28554
 004544 50E0 D000/9008_      00000 28555              INCECHO  PROC  ,
 USING  *,R7
 00455E 94BF BC7B      00C7B       28594                       CLEAR CPFNECHO
 004562 18D8/9808 D004_            28601                       PEND
 DROP   *,R7
                                   28621
 004570 50E0 D000/9008_      00000 28622              INCNECHO PROC  ,
 USING  *,R7
 00458A 9640 BC7B      00C7B       28661                       SET   CPFNECHO
 00458E 18D8/9808 D004_            28667                       PEND
 DROP   *,R7
                                   28687
 00459C 50E0 D000/9008_      00000 28688              INCTYP   PROC  ,
 USING  *,R7
 0045B6 94BF BC7C      00C7C       28727                       CLEAR CPFNTYPE
 0045BA 18D8/9808 D004_            28734                       PEND
 DROP   *,R7
                                   28754
 0045C8 50E0 D000/9008_      00000 28755              INCNTYP  PROC  ,
 USING  *,R7
 0045E2 9640 BC7C      00C7C       28794                       SET   CPFNTYPE
 0045E6 18D8/9808 D004_            28800                       PEND
 DROP   *,R7
                                   28820
 0045F4 50E0 D000/9008_      00000 28821              INCFORCE PROC  ,
 USING  *,R7
 00460E 9604 BC7C      00C7C       28860                       SET   CPFFORCE
 004612 18D8/9808 D004_            28866                       PEND
 DROP   *,R7
                                   28886
 004620 50E0 D000/9008_      00000 28887              INCTMOUT PROC  ,
 USING  *,R7
 00463A 4C00 719E            047D8 28926                       MH    R0,=H'100'          Times 100 for value in .01 sec
 00463E 5000 4010            00010 28927                       ST    R0,INCHRTVL
 004642 18D8/9808 D004_            28928                       PEND
 DROP   *,R7
                                   28948
 004650 50E0 D000/9008_      00000 28949              INCHRERR PROC  ,
 USING  *,R7
 00466A 41F0 0004            00004 28988                       LA    R15,4
 00466E 18D8/9808 D004_            28989                       PEND
 DROP   *,R7
 DROP   INCHRWA,R4                 29009                       DROP  R4
1FUNC     (FUNC2193) (12:45) (15MAR04) System Routines for Functions                                                        Page  111
0Current Usings:  (CP,R11) (CV,R12)
0Loc    Object Code    Addr1 Addr2  Stmt Lv Lineno    Source Statement           (Hibal 5, Asmedit 3.3)  HLASM R4.0  2004/03/15 12.45
+___    ______ ____    _____ _____  ____ __ ______    ______ _________
0                                  29017              ¿þþþþþþþþþþþþþþþþþþþþþþþþþþþþþþþþþþþþþþþþþþþþþþþþþþþþþþþþþþþþþþþþþþþþþÜ
                                   29018              Ÿ                                                                     Ÿ
                                   29019              Ÿ                                                                     Ÿ
                                   29020              Ÿ  INDEX                                                              Ÿ
                                   29021              Ÿ                                                                     Ÿ
                                   29022              Ÿ  INDEX(STRING,STRING_TO_FIND),,,                                    Ÿ
                                   29023              Ÿ                                                                     Ÿ
                                   29024              Ÿ  SEE COMMENTS AT START OF THIS MODULE                               Ÿ
                                   29025              Ÿ                                                                     Ÿ
                                                      ¾þþþþþþþþþþþþþþþþþþþþþþþþþþþþþþþþþþþþþþþþþþþþþþþþþþþþþþþþþþþþþþþþþþþþþ»
000467C 50E0 D000/9008_      00000 29026              FNINDEX  PROC  ,
 USING  *,R7
 004696 4120 712E/58E0_      047C4 29065                       SETARGS '22SS'            2 ARGS: STRING, STRING
 0046A0 4770 7086            0471C 29071                       IF    Z,BEGIN
 USING  VNENTRY,R5                 29082  1                      USING VNENTRY,R5
 0046A4 4151 0000            00000 29091  1                      LA    R5,ARG1(R1)
 0046A8 4120 5026            00026 29092  1                      LA    R2,VNSTRLOC         R2,R3 - 1ST STRING LOC, LEN
 0046AC 4830 5024            00024 29093  1                      LH    R3,VNSTRLEN
 0046B0 4151 0150            00150 29094  1                      LA    R5,ARG2(R1)
 0046B4 4140 5026            00026 29095  1                      LA    R4,VNSTRLOC         R4,R5 - 2ND STRING LOC, LEN
 0046B8 4850 5024            00024 29096  1                      LH    R5,VNSTRLEN
 DROP   VNENTRY,R5                 29097  1                      DROP  R5
 0046BC 1812                       29104  1                      LR    R1,R2               R1 - INDEX INTO 1ST STRING
                                   29105  1                      COMMENT
 0046BE 1233/47D0 706C_            29106  1                      IF    ((R3,POS),AND,(R5,POS)),BEGIN     NON NULL STRINGS
 0046CA 1935/4750 706C             29133  2                        IF    (R3,GE,R5),BEGIN                  1ST STR LEN >= 2ND
 0046D0 1A32                       29148  3                          AR    R3,R2
 0046D2 1B35                       29149  3                          SR    R3,R5               R3 - LOC TO STOP CLC TEST
 0046D4 0650                       29150  3                          BCTR  R5,0                R5 - LEN TO TEST (-1 FOR EX)
 0046D6 1812                       29151  3                          LR    R1,R2               R1 - LOC TO TEST
 0046D8 1B00                       29152  3                          SR    R0,R0               R0 - ASSUME NOT FOUND (R0=0)
                                   29153  3                          COMMENT
 0046DA 1200/4770 7064_            29154  3                          WHILE ((R0,Z),AND,(R1,LE,R3)),BEGIN
 0046E6 4450 71AA/D500_      04840 29184  4                            EX    R5,' CLC @R1(0),@R4 '
 0046EA 4770 705C/4100_      046F2 29200  4                            IF    E,'LA R0,1'         IF INDEX FOUND, SET R0=1
 0046F2 4111 0001            00001 29217  4                            LA    R1,1(R1)
 0046F6 47F0 7044            046DA 29218  3                          END
                                   29223  3                          COMMENT                   R1 - OFFSET OF MATCH+1 = CHAR #
 0046FA 1200/4770 706C_            29224  3                          IF    (R0,Z),'LR R1,R2'   IF NO MATCH RESET R1=R2
 004702                            29244  2                        END
 004702                            29248  1                      END
 004702 1B12                       29252  1                      SR    R1,R2               R1 - INDEX OF STRING
 004704 D74F 6000 6000_00000 00000 29253  1                      VRETURN INTEGER,(R1)
 USING  VNENTRY,R6
 DROP   VNENTRY,R6
 00471C                            29299                       END
 00471C 18D8/9808 D004_            29303                       PEND
 DROP   *,R7
                                   29323
                                   29324                       QLTORG
1FUNC     (FUNC2193) (12:45) (15MAR04) System Routines for Functions                                                        Page  112
0Current Usings:  (CP,R11) (CV,R12)
0Loc    Object Code    Addr1 Addr2  Stmt Lv Lineno    Source Statement           (Hibal 5, Asmedit 3.3)  HLASM R4.0  2004/03/15 12.45
+___    ______ ____    _____ _____  ____ __ ______    ______ _________
0000000                00000 00022 29381              INSTRWA  RECORD BEGIN
 000000 00                         29389  1           INSFLAG    FLAG
 INSFLAG.INSFATTN  80 ONES         29393  1                      FLAG  INSFATTN            - ATTNs are allowed
 INSFLAG.INSFCASE  40 ONES         29398  1                      FLAG  INSFCASE            - Saved copy of CPFCASE flag
 INSFLAG.INSFUPPER 20 ONES         29403  1                      FLAG  INSFUPPER           - Saved copy of CPFUPPER flag
                                   29408  1
 000004                            29409  1           INSPTRS    DS    2A                  Prompt loc, len
 00000C                            29410  1           INSRC      DS    F                   TREAD return code
                                   29411  1
 000010                            29412  1           INSTMVAL   DS    F                   Timeout in .01 sec (0=no timeout)
                                   29413  1
 000014                            29414  1           INSTRTRM   DS    XL(L'CPTRM)         Saved terminal options
 000022                00022 00022 29415                       END
-                                  29425              ¿þþþþþþþþþþþþþþþþþþþþþþþþþþþþþþþþþþþþþþþþþþþþþþþþþþþþþþþþþþþþþþþþþþþþþÜ
                                   29426              Ÿ                                                                     Ÿ
                                   29427              Ÿ                                                                     Ÿ
                                   29428              Ÿ  INPUT -- Routine to get terminal input.                            Ÿ
                                   29429              Ÿ                                                                     Ÿ
                                   29430              Ÿ    See comments at the start of this module.                        Ÿ
                                   29431              Ÿ                                                                     Ÿ
                                                      ¾þþþþþþþþþþþþþþþþþþþþþþþþþþþþþþþþþþþþþþþþþþþþþþþþþþþþþþþþþþþþþþþþþþþþþ»
0004846 50E0 D000/9008_      00000 29432              FNINPUT  PROC  INSTRWA
 USING  *,R7
 USING  INSTRWA-(4+36),R8
 004860 4140 8028            00000 29482                       LA    R4,INSTRWA
 USING  INSTRWA,R4                 29483                       USING INSTRWA,R4
 004864 D721 4000 4000 00000 00000 29492                       CLEAR INSTRWA
                                   29499
 00486A 58E0 B08C/D2AF_      0008C 29500                       SCPUSH ,
 004878 D20D 4014 BC7A 00014 00C7A 29506                       MVC   INSTRTRM,CPTRM      Save terminal options
 00487E 9120 BD57/47E0_00D57       29507                       IF    CPFCASE,'SET INSFCASE'  Save flags
 00488A 9110 BD57/47E0_00D57       29533                       IF    CPFUPPER,'SET INSFUPPER'
 004896 9620 BD57      00D57       29559                       SET   CPFCASE
 00489A 94EF BD57      00D57       29565                       CLEAR CPFUPPER            Force UPLOW
                                   29572
 00489E D201 BC80 7D10 00C80 05570 29573                       MVC   CPTRMIN,=AL2(MAXSTRLN)  Maximum read length
                                   29574
 0048A4 4120 7CA8/58E0_      05508 29575                       SETARGS '12SS'            1-2 args: str, str
 0048AE 4770 7204            04A64 29581                       BNZ   INPEXIT
                                   29582
 0048B2 9140 BD5C/47E0_00D5C       29583                       IF    CPFZAPIF,BEGIN      Expression rescan...
 0048BA D74F 6000 6000_00000 00000 29598  1                      VRETURN STRING,'DUMMY'
 USING  VNENTRY,R6
 DROP   VNENTRY,R6
 0048DE 47F0 7204            04A64 29676  1                      B     INPEXIT             Scram
 0048E2                            29677                       END
                                   29681
 0048E2 1820                       29682                       LR    R2,R0               Save number of arguments
 0048E4 1831                       29683                       LR    R3,R1               Argument list ptr
 USING  VNENTRY,R5                 29684                       WITH  (VNENTRY,R5)        (Will be accurate later)
1FUNC     (FUNC2193) (12:45) (15MAR04) System Routines for Functions                                                        Page  113
0Current Usings:  (INSTRWA,R4) (VNENTRY,R5) (*,R7) (INSTRWA-(4+36),R8) (CP,R11) (CV,R12)
0Loc    Object Code    Addr1 Addr2  Stmt Lv Lineno    Source Statement           (Hibal 5, Asmedit 3.3)  HLASM R4.0  2004/03/15 12.45
+___    ______ ____    _____ _____  ____ __ ______    ______ _________
0                                  29697                       ¿þþþþþþþþþþþþþþþþþþþþþþþþþþþþþþþþÜ
                                   29698                       Ÿ  Save prompt string pointers.  Ÿ
                                   29699                       ¾þþþþþþþþþþþþþþþþþþþþþþþþþþþþþþþþ»
 0048E6 4153 0000            00000 29700                       LA    R5,ARG1(R3)
 0048EA 4110 5026/4800_      00026 29701                       SETMSG VNSTRLOC,LH:VNSTRLEN  Prompt text
 0048F2 9001 4004            00004 29714                       STM   R0,R1,INSPTRS       Save ptrs for later
                                   29715                       ¿þþþþþþþþþþþþþþþþþþþþþþþþþþþþþþþþþþþþþþþþþþþþÜ
                                   29716                       Ÿ  Scan second parameter for input options.  Ÿ
                                   29717                       ¾þþþþþþþþþþþþþþþþþþþþþþþþþþþþþþþþþþþþþþþþþþþþ»
 0048F6 5920 7CB0/4740_      05510 29718                       IF    (R2,LT,2),INPCONT
 0048FE 4153 0150            00150 29738                       LA    R5,ARG2(R3)
 004902 4110 5026/4800_      00026 29739                       SCINIT VNSTRLOC,LH:VNSTRLEN  Options
 004918 5810 B08C/1B00_      0008C 29762                       SCAN  INPPRT
 00496A 12FF/4770 7114             29794                       IF    (R15,NZ),INPERR
 004970 47F0 7142            049A2 29811                       B     INPCONT             Now go do it
                                   29812
 004974 41F0 B050/58E0_      00050 29813              INPERR   TSEG  (R1),(R0)
 00497E 4110 7CC0/4100_      05520 29838                       TSEG  ' is an unknown INPUT option.'
 004990 4120 0002/58E0_      00002 29856                       BADARG 2
 00499A 41F0 0004            00004 29867                       LA    R15,4
 00499E 47F0 7204            04A64 29868                       B     INPEXIT
                                   29869              *
                                   29870              *
 0049A2                            29871              INPCONT  LABEL ,
                                   29873
 0049A2 18ED/41D0 D43C_            29874                       TPUSH
                                   29912
 0049D6 9801 4004            00004 29913                       LM    R0,R1,INSPTRS       Prompt
 0049DA 58F0 4010            00010 29914                       L     R15,INSTMVAL        Timeout value in .01 secs
 0049DE 58E0 7CE4/0DEE       05544 29915                       TREAD (R1),(R0),TIMEOUT=(R15)  Get input from user
 0049E4 50F0 400C            0000C 29935                       ST    R15,INSRC
 0049E8 D74F 6000 6000_00000 00000 29936                       VRETURN STRING,(R1),(R0)  Return input string
 USING  VNENTRY,R6
 DROP   VNENTRY,R6
 004A04 4BD0 7D16/D23B_      05576 30020                       TPOP  JUNK
                                   30025                       ¿þþþþþþþþþþþþþþþþþþþþþþþþþþþþþþþþþþþþþþþþþþþþþþþÜ
                                   30026                       Ÿ  Set IORESULT variable to input return code.  Ÿ
                                   30027                       ¾þþþþþþþþþþþþþþþþþþþþþþþþþþþþþþþþþþþþþþþþþþþþþþþ»
 004A0E 4110 7D18/4100_      05578 30028                       SETMSG 'OK'
                                   30032
 004A16 D503 7CE8 400C_05548 0000C 30033                       IF    (INSRC,EQ,1),BEGIN  Attn...
 004A20 9180 4000/47E0_00000       30051  1                      IF    INSFATTN,BEGIN      Attn's are allowed...
 004A28 5820 C1C8            001C8 30066  2                        L     R2,CVCURJCB
 004A2C 94FD 2062/94F7_00062       30067  2                        WITH  (JCB,R2),'CLEAR JCBFATTN,JCBFPATN'
 USING  JCB,R2
 DROP   JCB,R2
 004A34                            30102  1                      END
                                   30106  1
 004A34 4110 7CEC/4100_      0554C 30107  1                      SETMSG 'ATTN'
 004A3C                            30111                       END
                                   30115
 004A3C D503 7CF0 400C_05550 0000C 30116                       IF    (INSRC,EQ,2),CVABORT  ?-Attn...  force EXEC BREAK
                                   30137
 004A46 D503 7CF4 400C_05554 0000C 30138                       IF    (INSRC,EQ,101),BEGIN  Reverse break...
1FUNC     (FUNC2193) (12:45) (15MAR04) System Routines for Functions                                                        Page  114
0Current Usings:  (INSTRWA,R4) (VNENTRY,R5) (*,R7) (INSTRWA-(4+36),R8) (CP,R11) (CV,R12)
0Loc    Object Code    Addr1 Addr2  Stmt Lv Lineno    Source Statement           (Hibal 5, Asmedit 3.3)  HLASM R4.0  2004/03/15 12.45
+___    ______ ____    _____ _____  ____ __ ______    ______ _________
0004A50 4110 7D2F/4100_      0558F 30156  1                      SETMSG 'TIMEOUT'           (Can only happen because TIMEOUT)
 004A58                            30160                       END
                                   30164
 004A58 4120 7C98            054F8 30165                       LA    R2,=CL16'SYS.IORESULT'
 004A5C 58E0 7CF8/0DEE       05558 30166                       VCALL SAVEDATA            Save I/O return code in IORESULT
                                   30170
 004A62 1BFF                       30171                       CLEAR R15
                                   30175              *
                                   30176              *
 004A64 94DF BD57/94EF_00D57       30177              INPEXIT  CLEAR CPFCASE,CPFUPPER
 004A6C 9140 4000/47E0_00000       30190                       IF    INSFCASE,'SET CPFCASE'
 004A78 9120 4000/47E0_00000       30216                       IF    INSFUPPER,'SET CPFUPPER'
 004A84 D20D BC7A 4014 00C7A 00014 30242                       MVC   CPTRM,INSTRTRM      Restore terminal options
 004A8A 58E0 B08C/4BD0_      0008C 30243                       SCPOP ,
 004A98 18D8/9808 D004_            30249                       PEND
 DROP   VNENTRY,R5
 DROP   INSTRWA-(4+36),R8
 DROP   *,R7
                                   30279              ***
                                   30280              ***  INPUT function options.
                                   30281              ***
 004AA8 E4D7D7C5D9404040_          30282              INPPRT   SCKW  UPPER,INPUPPER,A
 004AD0 E4D7D3D6E6404040_          30297                       SCKW  UPLOW,INPUPLOW,A
 004AF8 C1E3E3D540404040_          30312                       SCKW  ATTN,INPATTN,A
 004B20 C9D5E3C5D9D9E4D7_          30327                       SCKW  INTERRUPT,INPINT,A
 004B48 C3D3C5C1D5404040_          30342                       SCKW  CLEAN,INPCLEAN,A
 004B70 C5C3C8D640404040_          30357                       SCKW  ECHO,INPECHO,A
 004B98 D5D6C5C3C8D64040_          30372                       SCKW  NOECHO,INPNECHO,A
 004BC0 C2E4C6C6C5D9C5C4_          30387                       SCKW  BUFFERED,INPBUF,A
 004BE8 D5D6C2E4C6C6C5D9_          30402                       SCKW  NOBUFFERED,INPNBUF,A
 004C10 C4C1E3E3D5404040_          30417                       SCKW  DATTN,INPDATN,A
 004C38 D5D6C4C1E3E3D540_          30432                       SCKW  NODATTN,INPNDATN,A
 004C60 E2E3C1D9E2404040_          30447                       SCKW  STARS,INPSTAR,A
 004C88 D5D6E2E3C1D9E240_          30462                       SCKW  NOSTARS,INPNSTAR,A
 004CB0 D3C6404040404040_          30477                       SCKW  LF,INPLF,A
 004CD8 D5D6D3C640404040_          30492                       SCKW  NOLF,INPNOLF,A
 004D00 E3E8D7C5C1C8C5C1_          30507                       SCKW  TYPEAHEAD,INPTYP,A
 004D28 D5D6E3E8D7C5C1C8_          30522                       SCKW  NOTYPEAHEAD,INPNTYP,A
 004D50 E2D3D6E6D3C9E2E3_          30537                       SCKW  SLOWLIST,INPSLOW,A
 004D78 C6D6D9C3C5404040_          30552                       SCKW  FORCE,INPFORCE,A
 004DA0 E3D9C1D5E2D7C1D9_          30567                       SCKW  TRANSPARENT,INPTRAN,A
 004DC8 D5D6D4D6C4C5D340_          30582                       SCKW  NOMODEL,INPNMOD,A
 004DF0 E4D5C6D6D9D4C1E3_          30597                       SCKW  UNFORMATTED,INPUFMT,A
 004E18 E3C9D4C5D6E4E340_          30612                       SCKW  TIMEOUT,INPTMOUT,(A,P,PI),100000
 004E40 D4C1E7C9D4E4D440_          30627                       SCKW  MAXIMUM,INPMAX,(A,P,PI),256  *MAXSTRLN
 004E68 D9E4D5C4D6E6D540_          30642                       SCKW  RUNDOWN,INPRUND,(A,P,PI),256 *MAXSTRLN
 004E90 4040404040404040_          30657                       SCKW  ,INPSTERR
                                   30672
 004EB8 50E0 D000/9008_      00000 30673              INPUPPER PROC  ,
 USING  *,R7
 004ED2 9620 BD57/9610_00D57       30712                       SET   CPFCASE,CPFUPPER
 004EDA 18D8/9808 D004_            30722                       PEND
 DROP   *,R7
                                   30742
1FUNC     (FUNC2193) (12:45) (15MAR04) System Routines for Functions                                                        Page  115
0Current Usings:  (INSTRWA,R4) (*,R7) (CP,R11) (CV,R12)
0Loc    Object Code    Addr1 Addr2  Stmt Lv Lineno    Source Statement           (Hibal 5, Asmedit 3.3)  HLASM R4.0  2004/03/15 12.45
+___    ______ ____    _____ _____  ____ __ ______    ______ _________
0004EE8 50E0 D000/9008_      00000 30743              INPUPLOW PROC  ,
 USING  *,R7
 004F02 9620 BD57      00D57       30782                       SET   CPFCASE
 004F06 94EF BD57      00D57       30788                       CLEAR CPFUPPER
 004F0A 18D8/9808 D004_            30795                       PEND
 DROP   *,R7
                                   30815
 004F18 50E0 D000/9008_      00000 30816              INPATTN  PROC  ,
 USING  *,R7
 004F32 9680 4000      00000       30855                       SET   INSFATTN
 004F36 18D8/9808 D004_            30861                       PEND
 DROP   *,R7
                                   30881
 004F44 50E0 D000/9008_      00000 30882              INPINT   PROC  ,
 USING  *,R7
 004F5E 9620 BC7D      00C7D       30921                       SET   CPFTINT
 004F62 18D8/9808 D004_            30927                       PEND
 DROP   *,R7
                                   30947
 004F70 50E0 D000/9008_      00000 30948              INPCLEAN PROC  ,
 USING  *,R7
 004F8A 9680 BC7B      00C7B       30987                       SET   CPFCLEAN
 004F8E 18D8/9808 D004_            30993                       PEND
 DROP   *,R7
                                   31013
 004F9C 50E0 D000/9008_      00000 31014              INPECHO  PROC  ,
 USING  *,R7
 004FB6 94BF BC7B      00C7B       31053                       CLEAR CPFNECHO
 004FBA 18D8/9808 D004_            31060                       PEND
 DROP   *,R7
                                   31080
 004FC8 50E0 D000/9008_      00000 31081              INPNECHO PROC  ,
 USING  *,R7
 004FE2 9640 BC7B      00C7B       31120                       SET   CPFNECHO
 004FE6 18D8/9808 D004_            31126                       PEND
 DROP   *,R7
                                   31146
 004FF4 50E0 D000/9008_      00000 31147              INPBUF   PROC  ,
 USING  *,R7
 00500E 9602 BC7C      00C7C       31186                       SET   CPFBUFIO
 005012 18D8/9808 D004_            31192                       PEND
 DROP   *,R7
                                   31212
 005020 50E0 D000/9008_      00000 31213              INPNBUF  PROC  ,
 USING  *,R7
 00503A 94FD BC7C      00C7C       31252                       CLEAR CPFBUFIO
 00503E 18D8/9808 D004_            31259                       PEND
 DROP   *,R7
                                   31279
 00504C 50E0 D000/9008_      00000 31280              INPTYP   PROC  ,
 USING  *,R7
 005066 94BF BC7C      00C7C       31319                       CLEAR CPFNTYPE
 00506A 18D8/9808 D004_            31326                       PEND
 DROP   *,R7
1FUNC     (FUNC2193) (12:45) (15MAR04) System Routines for Functions                                                        Page  116
0Current Usings:  (INSTRWA,R4) (CP,R11) (CV,R12)
0Loc    Object Code    Addr1 Addr2  Stmt Lv Lineno    Source Statement           (Hibal 5, Asmedit 3.3)  HLASM R4.0  2004/03/15 12.45
+___    ______ ____    _____ _____  ____ __ ______    ______ _________
0                                  31346
 005078 50E0 D000/9008_      00000 31347              INPNTYP  PROC  ,
 USING  *,R7
 005092 9640 BC7C      00C7C       31386                       SET   CPFNTYPE
 005096 18D8/9808 D004_            31392                       PEND
 DROP   *,R7
                                   31412
 0050A4 50E0 D000/9008_      00000 31413              INPSTAR  PROC  ,
 USING  *,R7
 0050BE 94EF BC7D      00C7D       31452                       CLEAR CPFNSTAR
 0050C2 18D8/9808 D004_            31459                       PEND
 DROP   *,R7
                                   31479
 0050D0 50E0 D000/9008_      00000 31480              INPNSTAR PROC  ,
 USING  *,R7
 0050EA 9610 BC7D      00C7D       31519                       SET   CPFNSTAR
 0050EE 18D8/9808 D004_            31525                       PEND
 DROP   *,R7
                                   31545
 0050FC 50E0 D000/9008_      00000 31546              INPDATN  PROC  ,
 USING  *,R7
 005116 9602 BC7D      00C7D       31585                       SET   CPFDATTN
 00511A 18D8/9808 D004_            31591                       PEND
 DROP   *,R7
                                   31611
 005128 50E0 D000/9008_      00000 31612              INPNDATN PROC  ,
 USING  *,R7
 005142 94FD BC7D      00C7D       31651                       CLEAR CPFDATTN
 005146 18D8/9808 D004_            31658                       PEND
 DROP   *,R7
                                   31678
 005154 50E0 D000/9008_      00000 31679              INPLF    PROC  ,
 USING  *,R7
 00516E 94FB BC7D      00C7D       31718                       CLEAR CPFNLF
 005172 18D8/9808 D004_            31725                       PEND
 DROP   *,R7
                                   31745
 005180 50E0 D000/9008_      00000 31746              INPNOLF  PROC  ,
 USING  *,R7
 00519A 9604 BC7D      00C7D       31785                       SET   CPFNLF
 00519E 18D8/9808 D004_            31791                       PEND
 DROP   *,R7
                                   31811
 0051AC 50E0 D000/9008_      00000 31812              INPTRAN  PROC  ,
 USING  *,R7
 0051C6 9680 BC7C      00C7C       31851                       SET   CPFTRAN
 0051CA 18D8/9808 D004_            31857                       PEND
 DROP   *,R7
                                   31877
 0051D8 50E0 D000/9008_      00000 31878              INPNMOD  PROC  ,
 USING  *,R7
 0051F2 9610 BC7C      00C7C       31917                       SET   CPFNMOD
 0051F6 18D8/9808 D004_            31923                       PEND
 DROP   *,R7
1FUNC     (FUNC2193) (12:45) (15MAR04) System Routines for Functions                                                        Page  117
0Current Usings:  (INSTRWA,R4) (CP,R11) (CV,R12)
0Loc    Object Code    Addr1 Addr2  Stmt Lv Lineno    Source Statement           (Hibal 5, Asmedit 3.3)  HLASM R4.0  2004/03/15 12.45
+___    ______ ____    _____ _____  ____ __ ______    ______ _________
0                                  31943
 005204 50E0 D000/9008_      00000 31944              INPUFMT  PROC  ,
 USING  *,R7
 00521E 9608 BC7C      00C7C       31983                       SET   CPFUFMT
 005222 18D8/9808 D004_            31989                       PEND
 DROP   *,R7
                                   32009
 005230 50E0 D000/9008_      00000 32010              INPFORCE PROC  ,
 USING  *,R7
 00524A 9604 BC7C      00C7C       32049                       SET   CPFFORCE
 00524E 18D8/9808 D004_            32055                       PEND
 DROP   *,R7
                                   32075
 00525C 50E0 D000/9008_      00000 32076              INPTMOUT PROC  ,
 USING  *,R7
 005276 4C00 7306            0557C 32115                       MH    R0,=H'100'          Times 100 for value in .01 sec
 00527A 5000 4010            00010 32116                       ST    R0,INSTMVAL
 00527E 18D8/9808 D004_            32117                       PEND
 DROP   *,R7
                                   32137
 00528C 50E0 D000/9008_      00000 32138              INPMAX   PROC  ,
 USING  *,R7
 0052A6 4000 BC80            00C80 32177                       STH   R0,CPTRMIN
 0052AA 18D8/9808 D004_            32178                       PEND
 DROP   *,R7
                                   32198
 0052B8 50E0 D000/9008_      00000 32199              INPSLOW  PROC  ,
 USING  *,R7
 0052D2 9620 BC7B      00C7B       32238                       SET   CPFSLOW
 0052D6 18D8/9808 D004_            32244                       PEND
 DROP   *,R7
                                   32264
 0052E4 50E0 D000/9008_      00000 32265              INPRUND  PROC  ,
 USING  *,R7
 0052FE 9620 BC7C      00C7C       32304                       SET   CPFRUND
 005302 5900 725E/47D0_      0555C 32310                       CEIL  R0,256
 00530E 4000 BC80            00C80 32329                       STH   R0,CPTRMIN
 005312 18D8/9808 D004_            32330                       PEND
 DROP   *,R7
                                   32350
 005320 50E0 D000/9008_      00000 32351              INPSTERR PROC  ,
 USING  *,R7
 00533A 41F0 0004            00004 32390                       LA    R15,4
 00533E 18D8/9808 D004_            32391                       PEND
 DROP   *,R7
 DROP   INSTRWA,R4                 32411                       DROP  R4
1FUNC     (FUNC2193) (12:45) (15MAR04) System Routines for Functions                                                        Page  118
0Current Usings:  (CP,R11) (CV,R12)
0Loc    Object Code    Addr1 Addr2  Stmt Lv Lineno    Source Statement           (Hibal 5, Asmedit 3.3)  HLASM R4.0  2004/03/15 12.45
+___    ______ ____    _____ _____  ____ __ ______    ______ _________
0                                  32419              ¿þþþþþþþþþþþþþþþþþþþþþþþþþþþþþþþþþþþþþþþþþþþþþþþþþþþþþþþþþþþþþþþþþþþþþÜ
                                   32420              Ÿ                                                                     Ÿ
                                   32421              Ÿ  INSERT Function.                                                   Ÿ
                                   32422              Ÿ                                                                     Ÿ
                                   32423              Ÿ    INSERT(??????????)                                               Ÿ
                                   32424              Ÿ                                                                     Ÿ
                                                      ¾þþþþþþþþþþþþþþþþþþþþþþþþþþþþþþþþþþþþþþþþþþþþþþþþþþþþþþþþþþþþþþþþþþþþþ»
000534C 50E0 D000/9008_      00000 32425              FNINSERT PROC  ,
 USING  *,R7
 005366 4110 7218/4100_      0557E 32464                       TSEG  'Not Yet!  '
 005378 4120 0001/58E0_      00001 32482                       BADARG 1
 005382 18D8/9808 D004_            32493                       PEND
 DROP   *,R7
1FUNC     (FUNC2193) (12:45) (15MAR04) System Routines for Functions                                                        Page  119
0Current Usings:  (CP,R11) (CV,R12)
0Loc    Object Code    Addr1 Addr2  Stmt Lv Lineno    Source Statement           (Hibal 5, Asmedit 3.3)  HLASM R4.0  2004/03/15 12.45
+___    ______ ____    _____ _____  ____ __ ______    ______ _________
0                                  32514              ¿þþþþþþþþþþþþþþþþþþþþþþþþþþþþþþþþþþþþþþþþþþþþþþþþþþþþþþþþþþþþþþþþþþþþþÜ
                                   32515              Ÿ                                                                     Ÿ
                                   32516              Ÿ                                                                     Ÿ
                                   32517              Ÿ  INT - TRUNCATE NUMBER TO INTEGER                                   Ÿ
                                   32518              Ÿ                                                                     Ÿ
                                   32519              Ÿ                                                                     Ÿ
                                   32520              Ÿ  SEE COMMENTS AT START OF THIS MODULE                               Ÿ
                                   32521              Ÿ                                                                     Ÿ
                                                      ¾þþþþþþþþþþþþþþþþþþþþþþþþþþþþþþþþþþþþþþþþþþþþþþþþþþþþþþþþþþþþþþþþþþþþþ»
0005390 50E0 D000/9008_      00000 32522              FNINT    PROC  ,
 USING  *,R7
 0053AA 4120 71EC/58E0_      05596 32561                       SETARGS '11I'             1 ARG: NUMBER, INTEGER
                                   32567                       COMMENT                   THE SETARG ROUTINE ABOVE DOES THE
                                   32568                       COMMENT                   WORK, CONVERTING THE INPUT ARG TO
                                   32569                       COMMENT                   A INTEGER,,, WHICH WE RETURN
 0053B4 4770 7036            053E0 32570                       IF    Z,BEGIN
 USING  VNENTRY,R5                 32581  1                      USING VNENTRY,R5
 0053B8 4151 0000            00000 32590  1                      LA    R5,ARG1(R1)
 0053BC 5830 5024            00024 32591  1                      L     R3,VNVALUE          R3 - INTGER VALUE
 DROP   VNENTRY,R5                 32592  1                      DROP  R5
 0053C0 D74F 6000 6000_00000 00000 32599  1                      VRETURN INTEGER,(R3)
 USING  VNENTRY,R6
 DROP   VNENTRY,R6
 0053DA 58E0 71BA/0DEE       05564 32646  1                      VCALL ZAPINTR6            ** ZAP INTEGER (**OLD N0-N9)
 0053E0                            32650                       END
 0053E0 18D8/9808 D004_            32654                       PEND
 DROP   *,R7
1FUNC     (FUNC2193) (12:45) (15MAR04) System Routines for Functions                                                        Page  120
0Current Usings:  (CP,R11) (CV,R12)
0Loc    Object Code    Addr1 Addr2  Stmt Lv Lineno    Source Statement           (Hibal 5, Asmedit 3.3)  HLASM R4.0  2004/03/15 12.45
+___    ______ ____    _____ _____  ____ __ ______    ______ _________
0                                  32675              ¿þþþþþþþþþþþþþþþþþþþþþþþþþþþþþþþþþþþþþþþþþþþþþþþþþþþþþþþþþþþþþþþþþþþþþÜ
                                   32676              Ÿ                                                                     Ÿ
                                   32677              Ÿ  JUSTIFY Function.                                                  Ÿ
                                   32678              Ÿ                                                                     Ÿ
                                   32679              Ÿ    JUSTIFY(??????????)                                              Ÿ
                                   32680              Ÿ                                                                     Ÿ
                                                      ¾þþþþþþþþþþþþþþþþþþþþþþþþþþþþþþþþþþþþþþþþþþþþþþþþþþþþþþþþþþþþþþþþþþþþþ»
00053EE 50E0 D000/9008_      00000 32681              FNJUST   PROC  ,
 USING  *,R7
 005408 4110 7176/4100_      0557E 32720                       TSEG  'Not Yet!  '
 00541A 4120 0001/58E0_      00001 32738                       BADARG 1
 005424 18D8/9808 D004_            32749                       PEND
 DROP   *,R7
1FUNC     (FUNC2193) (12:45) (15MAR04) System Routines for Functions                                                        Page  121
0Current Usings:  (CP,R11) (CV,R12)
0Loc    Object Code    Addr1 Addr2  Stmt Lv Lineno    Source Statement           (Hibal 5, Asmedit 3.3)  HLASM R4.0  2004/03/15 12.45
+___    ______ ____    _____ _____  ____ __ ______    ______ _________
0                                  32770              ¿þþþþþþþþþþþþþþþþþþþþþþþþþþþþþþþþþþþþþþþþþþþþþþþþþþþþþþþþþþþþþþþþþþþþþÜ
                                   32771              Ÿ                                                                     Ÿ
                                   32772              Ÿ  LEFT -- LEFT Function.                                             Ÿ
                                   32773              Ÿ                                                                     Ÿ
                                   32774              Ÿ    LEFT(string,length,pad-char)                                     Ÿ
                                   32775              Ÿ                                                                     Ÿ
                                                      ¾þþþþþþþþþþþþþþþþþþþþþþþþþþþþþþþþþþþþþþþþþþþþþþþþþþþþþþþþþþþþþþþþþþþþþ»
0005432 50E0 D000/9008_      00000 32776              FNLEFT   PROC  ,
 USING  *,R7
 00544C 4120 714D/58E0_      05599 32815                       SETARGS '23SIS'           2-3 args: string,integer,string
 005456 4770 709E            054EA 32821                       IF    Z,BEGIN             OK...
 USING  VNENTRY,R5                 32832  1                      WITH  (VNENTRY,R5)
 00545A 4151 0000            00000 32845  1                      LA    R5,ARG1(R1)
 00545E 4120 5026            00026 32846  1                      LA    R2,VNSTRLOC         R2,R3 - string loc, len
 005462 4830 5024            00024 32847  1                      LH    R3,VNSTRLEN
 005466 BF38 7152            0559E 32848  1                      ICM   R3,8,=C' '          Default pad character
                                   32849  1                      ¿þþþþþþþþþþþþþþþþþþþÜ
                                   32850  1                      Ÿ  Arg#2:  Length.  Ÿ
                                   32851  1                      ¾þþþþþþþþþþþþþþþþþþþ»
 00546A 4151 0150            00150 32852  1                      LA    R5,ARG2(R1)
 00546E 5840 5024            00024 32853  1                      L     R4,VNVALUE          R4 - Length
 005472 1244/4740 7034_            32854  1                      IF    ((R4,NEG),OR,(R4,GT,MAXSTRLN)),BEGIN
 005480 4120 0002/58E0_      00002 32884  2                        BADARG 2
 00548A 47F0 709E            054EA 32895  2                        EXIT  FNLEFT
 00548E                            32898  1                      END
                                   32902  1                      ¿þþþþþþþþþþþþþþþþþþþþþþþþþþþþÜ
                                   32903  1                      Ÿ  Arg#3:  Pad char string.  Ÿ
                                   32904  1                      ¾þþþþþþþþþþþþþþþþþþþþþþþþþþþþ»
 00548E 5900 7120/4750_      0556C 32905  1                      IF    (R0,GE,3),BEGIN     Process arg#3...
 005496 4151 02A0            002A0 32922  2                        LA    R5,ARG3(R1)
 00549A D501 713C 5024_05588 00024 32923  2                        IF    (VNSTRLEN,GT,1),BEGIN
 0054A4 4110 7153/4100_      0559F 32941  3                          TSEG  'Expecting one character pad string.  '
 0054B6 4120 0003/58E0_      00003 32959  3                          BADARG 3
 0054C0 47F0 709E            054EA 32970  3                          EXIT  FNLEFT
 0054C4                            32973  2                        END
                                   32977  2
 0054C4 D501 713C 5024_05588 00024 32978  2                        IF    (VNSTRLEN,EQ,1),BEGIN
 0054CE BF38 5026            00026 32996  3                          ICM   R3,8,VNSTRLOC       Pick up pad character
 0054D2                            32997  2                        END
 0054D2                            33001  1                      END
                                   33005  1                      ¿þþþþþþþþþþþþþþþþþþþþþþþþþþþþþþþþþÜ
                                   33006  1                      Ÿ  Move in LEFT most characters.  Ÿ
                                   33007  1                      ¾þþþþþþþþþþþþþþþþþþþþþþþþþþþþþþþþþ»
 USING  VNENTRY,R6                 33008  1                      WITH  (VNENTRY,R6),BEGIN
 0054D2 D74F 6000 6000 00000 00000 33022  2                        CLEAR VNENTRY
 0054D8 9201 6020      00020       33029  2                        SET   VNSTRING            Returning a string
 0054DC 4040 6024            00024 33035  2                        STH   R4,VNSTRLEN         Set string length
 0054E0 41E0 6026            00026 33036  2                        LA    R14,VNSTRLOC
 0054E4 18F4                       33037  2                        LR    R15,R4
 0054E6 0EE2                       33038  2                        MVCL  R14,R2              Move string (with pad)
 0054E8 1BFF                       33039  2                        CLEAR R15                 A-ok
 DROP   VNENTRY,R6                 33043  1                      END
 DROP   VNENTRY,R5                 33051                       END
1FUNC     (FUNC2193) (12:45) (15MAR04) System Routines for Functions                                                        Page  122
0Current Usings:  (*,R7) (CP,R11) (CV,R12)
0Loc    Object Code    Addr1 Addr2  Stmt Lv Lineno    Source Statement           (Hibal 5, Asmedit 3.3)  HLASM R4.0  2004/03/15 12.45
+___    ______ ____    _____ _____  ____ __ ______    ______ _________
0                                  33060
 0054EA 18D8/9808 D004_            33061                       PEND
 DROP   *,R7
1FUNC     (FUNC2193) (12:45) (15MAR04) System Routines for Functions                                                        Page  123
0Current Usings:  (CP,R11) (CV,R12)
0Loc    Object Code    Addr1 Addr2  Stmt Lv Lineno    Source Statement           (Hibal 5, Asmedit 3.3)  HLASM R4.0  2004/03/15 12.45
+___    ______ ____    _____ _____  ____ __ ______    ______ _________
0                                  33082                       QLTORG
1FUNC     (FUNC2193) (12:45) (15MAR04) System Routines for Functions                                                        Page  124
0Current Usings:  (CP,R11) (CV,R12)
0Loc    Object Code    Addr1 Addr2  Stmt Lv Lineno    Source Statement           (Hibal 5, Asmedit 3.3)  HLASM R4.0  2004/03/15 12.45
+___    ______ ____    _____ _____  ____ __ ______    ______ _________
0                                  33131              ¿þþþþþþþþþþþþþþþþþþþþþþþþþþþþþþþþþþþþþþþþþþþþþþþþþþþþþþþþþþþþþþþþþþþþþÜ
                                   33132              Ÿ                                                                     Ÿ
                                   33133              Ÿ  LINE Function.                                                     Ÿ
                                   33134              Ÿ                                                                     Ÿ
                                   33135              Ÿ    LINE(line-number [,active-number])                               Ÿ
                                   33136              Ÿ                                                                     Ÿ
                                                      ¾þþþþþþþþþþþþþþþþþþþþþþþþþþþþþþþþþþþþþþþþþþþþþþþþþþþþþþþþþþþþþþþþþþþþþ»
00055D0 50E0 D000/9008_      00000 33137              FNLINE   PROC  ,
 USING  *,R7
 0055EA 4120 730E/58E0_      058F8 33176                       SETARGS '12WI'            1-2 args: lineno, integer
 0055F4 4770 708C            05676 33182                       IF    Z,BEGIN             OK...
 USING  VNENTRY,R5                 33193  1                      WITH  (VNENTRY,R5)
                                   33206  1                      ¿þþþþþþþþþþþþþþþþþþþþþþþþÜ
                                   33207  1                      Ÿ  Arg 1:  Line-number.  Ÿ
                                   33208  1                      ¾þþþþþþþþþþþþþþþþþþþþþþþþ»
 0055F8 4151 0000            00000 33209  1                      LA    R5,ARG1(R1)
 0055FC 58F0 5024            00024 33210  1                      L     R15,VNVALUE         Get lineno
 005600 12FF/4740 7024_            33211  1                      IF    ((R15,NEG),OR,(R15,GT,CVMAXLNO)),BEGIN
 00560E 4110 733E/4100_      05928 33241  2                        TSEG  'Line-number out of bounds.'
 005620 4120 0001/58E0_      00001 33259  2                        BADARG 1
 00562A 47F0 708C            05676 33270  2                        EXIT  FNLINE
 00562E                            33273  1                      END
                                   33277  1                      ¿þþþþþþþþþþþþþþþþþþþþþþþþþþþþþþþþþþþþþþþþþþþÜ
                                   33278  1                      Ÿ  Arg 2:  Active file number (0=default).  Ÿ
                                   33279  1                      ¾þþþþþþþþþþþþþþþþþþþþþþþþþþþþþþþþþþþþþþþþþþþ»
 00562E 1B22                       33280  1                      CLEAR R2                  Assume default Active
 005630 5900 731E/4750_      05908 33284  1                      IF    (R0,GE,2),BEGIN     Actno specified...
 005638 4151 0150            00150 33301  2                        LA    R5,ARG2(R1)
 00563C 5820 5024            00024 33302  2                        L     R2,VNVALUE          Get active number
 005640                            33303  1                      END
                                   33307  1                      ¿þþþþþþþþþþþþþþþþþþþþþþþþþþþþþþÜ
                                   33308  1                      Ÿ  Now get the line contents.  Ÿ
                                   33309  1                      ¾þþþþþþþþþþþþþþþþþþþþþþþþþþþþþþ»
 USING  VNENTRY,R6                 33310  1                      WITH  (VNENTRY,R6)
 005640 D74F 6000 6000 00000 00000 33323  1                      CLEAR VNENTRY
 005646 9201 6020      00020       33330  1                      SET   VNSTRING
                                   33336  1
 00564A 4110 6026/4100_      00026 33337  1                      SETMSG VNSTRLOC,&LINESZ    Put line here
 005652 58E0 7322/0DEE       0590C 33353  1                      VCALL GETLINEX            Get line contents
 005658 4770 7080            0566A 33357  1                      IF    Z,BEGIN             Got the line...
 00565C 1200/4770 7080             33368  2                        IF    (R0,Z),BEGIN        Null line...
 005662 9240 1000      00000       33382  3                          MVI   @R1,C' '            Change to one blank
 005666 4100 0001            00001 33383  3                          LA    R0,1
 00566A                            33384  2                        END
 00566A                            33388  1                      END
                                   33392  1
 00566A 7084/47F0 7086_0566A 0565A 33393  1                      ELSE  'CLEAR R0'
 005670 4000 6024            00024 33413  1                      STH   R0,VNSTRLEN         Save line length
 005674 1BFF                       33414  1                      CLEAR R15                 A-ok
 DROP   VNENTRY,R6                 33418                       END
 DROP   VNENTRY,R5
                                   33432
 005676 18D8/9808 D004_            33433                       PEND
1FUNC     (FUNC2193) (12:45) (15MAR04) System Routines for Functions                                                        Page  125
0Current Usings:  (CP,R11) (CV,R12)
0Loc    Object Code    Addr1 Addr2  Stmt Lv Lineno    Source Statement           (Hibal 5, Asmedit 3.3)  HLASM R4.0  2004/03/15 12.45
+___    ______ ____    _____ _____  ____ __ ______    ______ _________
0DROP   *,R7
1FUNC     (FUNC2193) (12:45) (15MAR04) System Routines for Functions                                                        Page  126
0Current Usings:  (CP,R11) (CV,R12)
0Loc    Object Code    Addr1 Addr2  Stmt Lv Lineno    Source Statement           (Hibal 5, Asmedit 3.3)  HLASM R4.0  2004/03/15 12.45
+___    ______ ____    _____ _____  ____ __ ______    ______ _________
0                                  33454              ¿þþþþþþþþþþþþþþþþþþþþþþþþþþþþþþþþþþþþþþþþþþþþþþþþþþþþþþþþþþþþþþþþþþþþþÜ
                                   33455              Ÿ                                                                     Ÿ
                                   33456              Ÿ  LINE_APPEND function.                                              Ÿ
                                   33457              Ÿ                                                                     Ÿ
                                   33458              Ÿ  LINE_APPEND ( text-string [, activeno])                            Ÿ
                                   33459              Ÿ                                                                     Ÿ
                                   33460              Ÿ                                                                     Ÿ
                                   33461              Ÿ  SEE COMMENTS AT START OF MODULE                                    Ÿ
                                   33462              Ÿ                                                                     Ÿ
                                                      ¾þþþþþþþþþþþþþþþþþþþþþþþþþþþþþþþþþþþþþþþþþþþþþþþþþþþþþþþþþþþþþþþþþþþþþ»
0005684 50E0 D000/9008_      00000 33463              FNLNAPND PROC  ,
 USING  *,R7
 00569E 4120 7272/58E0_      05910 33502                       SETARGS '12SI'            1-2 args: string, integer
 0056A8 4770 705A            056F8 33508                       IF    Z,BEGIN             OK...
 USING  VNENTRY,R5                 33519  1                      USING VNENTRY,R5
                                   33528  1
                                   33529  1                      COMMENT                   GET ARG2: ACTIVE FILE NUMBER
                                   33530  1                      COMMENT ,                       (DEFAULT IS ZERO)
 0056AC 1B33                       33531  1                      CLEAR R3
 0056AE 5900 726A/4750_      05908 33535  1                      IF    (R0,GE,2),BEGIN
 0056B6 4151 0150            00150 33552  2                        LA    R5,ARG2(R1)
 0056BA 5830 5024            00024 33553  2                        L     R3,VNVALUE
 0056BE                            33554  1                      END
                                   33558  1
                                   33559  1                      COMMENT                   GET ARG1: TEXT
 0056BE 4151 0000            00000 33560  1                      LA    R5,ARG1(R1)
 0056C2 4110 5026/4800_      00026 33561  1                      SETMSG VNSTRLOC,LH:VNSTRLEN
 DROP   VNENTRY,R5                 33574  1                      DROP  R5
                                   33581  1
                                   33582  1                      COMMENT                   ADD THE LINE
                                   33583  1                      COMMENT
                                   33584  1                      COMMENT                   R0,R1 - TEXT LOC, LENGTH
                                   33585  1                      COMMENT                   R3 - ACTIVE FILE NUMBER
 0056CA 58E0 7276/0DEE       05914 33586  1                      VCALL PTAPPEND  ,
 0056D0 4770 705A            056F8 33590  1                      IF    Z,BEGIN
 0056D4 D74F 6000 6000_00000 00000 33601  2                        VRETURN STRING,'OK'
 USING  VNENTRY,R6
 DROP   VNENTRY,R6
 0056F8                            33679  1                      END
 0056F8                            33683                       END
                                   33687
 0056F8 18D8/9808 D004_            33688                       PEND
 DROP   *,R7
1FUNC     (FUNC2193) (12:45) (15MAR04) System Routines for Functions                                                        Page  127
0Current Usings:  (CP,R11) (CV,R12)
0Loc    Object Code    Addr1 Addr2  Stmt Lv Lineno    Source Statement           (Hibal 5, Asmedit 3.3)  HLASM R4.0  2004/03/15 12.45
+___    ______ ____    _____ _____  ____ __ ______    ______ _________
0                                  33709              ¿þþþþþþþþþþþþþþþþþþþþþþþþþþþþþþþþþþþþþþþþþþþþþþþþþþþþþþþþþþþþþþþþþþþþþÜ
                                   33710              Ÿ                                                                     Ÿ
                                   33711              Ÿ  LINE_DELETE Function.                                              Ÿ
                                   33712              Ÿ                                                                     Ÿ
                                   33713              Ÿ    LINE_DELETE(first-lineno [,last-lineno] [,activeno])             Ÿ
                                   33714              Ÿ                                                                     Ÿ
                                                      ¾þþþþþþþþþþþþþþþþþþþþþþþþþþþþþþþþþþþþþþþþþþþþþþþþþþþþþþþþþþþþþþþþþþþþþ»
0005706 50E0 D000/9008_      00000 33715              FNLNDEL  PROC  ,
 USING  *,R7
 005720 4120 7234/58E0_      05954 33754                       SETARGS '13WWI'           1-3 args: lineno, lineno, integer
 00572A 4770 7134            05854 33760                       IF    Z,BEGIN             OK...
 USING  VNENTRY,R5                 33771  1                      WITH  (VNENTRY,R5)
                                   33784  1                      ¿þþþþþþþþþþþþþþþþþþþþþþþþþþþþþþÜ
                                   33785  1                      Ÿ  Arg 1:  First line-number.  Ÿ
                                   33786  1                      ¾þþþþþþþþþþþþþþþþþþþþþþþþþþþþþþ»
 00572E 4151 0000            00000 33787  1                      LA    R5,ARG1(R1)
 005732 5830 5024            00024 33788  1                      L     R3,VNVALUE          Get lineno
 005736 1233/4740 7024_            33789  1                      IF    ((R3,NEG),OR,(R3,GT,CVMAXLNO)),BEGIN
 005744 4110 7208/4100_      05928 33819  2                        TSEG  'Line-number out of bounds.'
 005756 4120 0001/58E0_      00001 33837  2                        BADARG 1
 005760 47F0 7134            05854 33848  2                        EXIT  FNLNDEL
 005764                            33851  1                      END
                                   33855  1                      ¿þþþþþþþþþþþþþþþþþþþþþþþþþþþþþÜ
                                   33856  1                      Ÿ  Arg 2:  Last line-number.  Ÿ
                                   33857  1                      ¾þþþþþþþþþþþþþþþþþþþþþþþþþþþþþ»
 005764 1843                       33858  1                      LR    R4,R3
 005766 5900 71E8/4750_      05908 33859  1                      IF    (R0,GE,2),BEGIN     Second Arg specified...
 00576E 4151 0150            00150 33876  2                        LA    R5,ARG2(R1)
 005772 5840 5024            00024 33877  2                        L     R4,VNVALUE          Get lineno
 005776 1244/4740 7064_            33878  2                        IF    ((R4,NEG),OR,(R4,GT,CVMAXLNO)),BEGIN
 005784 4110 7208/4100_      05928 33908  3                          TSEG  'Line-number out of bounds.'
 005796 4120 0002/58E0_      00002 33926  3                          BADARG 2
 0057A0 47F0 7134            05854 33937  3                          EXIT  FNLNDEL
 0057A4                            33940  2                        END
                                   33944  2
 0057A4 1934/47D0 70AA             33945  2                        IF    (R3,GT,R4),BEGIN    Bad range...
 0057AA 4110 7239/4100_      05959 33960  3                          TSEG  'First line-number is greater than last line-number.'
 0057BC 4120 0002/58E0_      00002 33978  3                          BADARG 2
 0057C6 47F0 7134            05854 33989  3                          EXIT  FNLNDEL
 0057CA                            33992  2                        END
 0057CA                            33996  1                      END
                                   34000  1                      ¿þþþþþþþþþþþþþþþþþþþþþþþþþþþþþþþþþþþþþþþþþþþÜ
                                   34001  1                      Ÿ  Arg 3:  Active file number (0=default).  Ÿ
                                   34002  1                      ¾þþþþþþþþþþþþþþþþþþþþþþþþþþþþþþþþþþþþþþþþþþþ»
 0057CA 1B22                       34003  1                      CLEAR R2                  Assume default Active
 0057CC 5900 71F8/4750_      05918 34007  1                      IF    (R0,GE,3),BEGIN     Actno specified...
 0057D4 4151 02A0            002A0 34024  2                        LA    R5,ARG3(R1)
 0057D8 5820 5024            00024 34025  2                        L     R2,VNVALUE          Get active number
 0057DC                            34026  1                      END
1FUNC     (FUNC2193) (12:45) (15MAR04) System Routines for Functions                                                        Page  128
0Current Usings:  (VNENTRY,R5) (*,R7) (CP,R11) (CV,R12)
0Loc    Object Code    Addr1 Addr2  Stmt Lv Lineno    Source Statement           (Hibal 5, Asmedit 3.3)  HLASM R4.0  2004/03/15 12.45
+___    ______ ____    _____ _____  ____ __ ______    ______ _________
0                                  34030  1                      ¿þþþþþþþþþþþþþþþþþþþþþþþþþÜ
                                   34031  1                      Ÿ  Now delete the lines.  Ÿ
                                   34032  1                      ¾þþþþþþþþþþþþþþþþþþþþþþþþþ»
 0057DC 12F2/4780 70DA             34033  1                      IF    ('LTR R15,R2',NZ),BEGIN  Switch Actives...
 0057E2 58E0 71FC/0DEE       0591C 34046  2                        VCALL ACTPICK
 0057E8 4770 70D8/4110_      057F8 34050  2                        IF    Z,'SETMSG "NO SUCH ACTIVE"; B FNLNDM'
 0057F8 182F                       34071  2                        LR    R2,R15
 0057FA                            34072  1                      END
                                   34076  1
 0057FA 1803                       34077  1                      LR    R0,R3               First lineno
 0057FC 1814                       34078  1                      LR    R1,R4               Last lineno
 0057FE 58E0 7200/0DEE       05920 34079  1                      VCALL DELRANGE            Delete lines
 005804 4770 70F0/4110_      05810 34083  1                      IF    Z,'SETMSG "OK"'
 005810 70F4/47F0 70FC_05810 05806 34103  1                      ELSE  'SETMSG "NO LINES"'
                                   34123  1
 00581C 9001 D000/41D0_      00000 34124  1                      XPUSH R0,R1
 005824 12F2                       34127  1                      LTR   R15,R2
 005826 4780 7110/58E0_      05830 34128  1                      IF    NZ,'VCALL ACTPICK'  Switch back
 005830 4BD0 7232/9801_      05952 34148  1                      XPOP  R0,R1
                                   34151  1
 005838 D74F 6000 6000_00000 00000 34152  1           FNLNDM     VRETURN STRING,(R1),(R0)
 USING  VNENTRY,R6
 DROP   VNENTRY,R6
 DROP   VNENTRY,R5                 34236                       END
                                   34245
 005854 18D8/9808 D004_            34246                       PEND
 DROP   *,R7
1FUNC     (FUNC2193) (12:45) (15MAR04) System Routines for Functions                                                        Page  129
0Current Usings:  (CP,R11) (CV,R12)
0Loc    Object Code    Addr1 Addr2  Stmt Lv Lineno    Source Statement           (Hibal 5, Asmedit 3.3)  HLASM R4.0  2004/03/15 12.45
+___    ______ ____    _____ _____  ____ __ ______    ______ _________
0                                  34267              ¿þþþþþþþþþþþþþþþþþþþþþþþþþþþþþþþþþþþþþþþþþþþþþþþþþþþþþþþþþþþþþþþþþþþþþÜ
                                   34268              Ÿ                                                                     Ÿ
                                   34269              Ÿ  LINE_PUT Function.                                                 Ÿ
                                   34270              Ÿ                                                                     Ÿ
                                   34271              Ÿ  LINE_PUT(lineno, text-string [, activeno])                         Ÿ
                                   34272              Ÿ                                                                     Ÿ
                                   34273              Ÿ                                                                     Ÿ
                                   34274              Ÿ  SEE COMMENTS AT START OF THIS MODULE                               Ÿ
                                   34275              Ÿ                                                                     Ÿ
                                                      ¾þþþþþþþþþþþþþþþþþþþþþþþþþþþþþþþþþþþþþþþþþþþþþþþþþþþþþþþþþþþþþþþþþþþþþ»
0005862 50E0 D000/9008_      00000 34276              FNLNPUT  PROC  ,
 USING  *,R7
 00587C 4120 7110/58E0_      0598C 34315                       SETARGS '23WSI'           2-3 args: lineno, string, integer
 005886 4770 7062            058DE 34321                       IF    Z,BEGIN             OK...
 USING  VNENTRY,R5                 34332  1                      USING VNENTRY,R5
                                   34341  1
                                   34342  1                      COMMENT                   ARG1: LINE NUMBER
 00588A 4151 0000            00000 34343  1                      LA    R5,ARG1(R1)
 00588E 4120 5024            00024 34344  1                      LA    R2,VNVALUE
                                   34345  1
                                   34346  1                      COMMENT                   GET ARG3: ACTIVE FILE NUMBER
                                   34347  1                      COMMENT ,                       (DEFAULT IS ZERO)
 005892 1B33                       34348  1                      CLEAR R3
 005894 5900 709C/4750_      05918 34352  1                      IF    (R0,GE,3),BEGIN
 00589C 4151 02A0            002A0 34369  2                        LA    R5,ARG3(R1)
 0058A0 5830 5024            00024 34370  2                        L     R3,VNVALUE
 0058A4                            34371  1                      END
                                   34375  1
                                   34376  1                      COMMENT                   GET ARG2: TEXT
 0058A4 4151 0150            00150 34377  1                      LA    R5,ARG2(R1)
 0058A8 4110 5026/4800_      00026 34378  1                      SETMSG VNSTRLOC,LH:VNSTRLEN
 DROP   VNENTRY,R5                 34391  1                      DROP  R5
                                   34398  1
                                   34399  1                      COMMENT                   ADD THE LINE
                                   34400  1                      COMMENT
                                   34401  1                      COMMENT                   R0,R1 - TEXT LOC, LENGTH
                                   34402  1                      COMMENT                   @R2 - LINE NUMBER
                                   34403  1                      COMMENT                   R3 - ACTIVE FILE NUMBER
 0058B0 58E0 70A8/0DEE       05924 34404  1                      VCALL PTLINE
 0058B6 4770 7062            058DE 34408  1                      IF    Z,BEGIN
 0058BA D74F 6000 6000_00000 00000 34419  2                        VRETURN STRING,'OK'
 USING  VNENTRY,R6
 DROP   VNENTRY,R6
 0058DE                            34497  1                      END
 0058DE                            34501                       END
                                   34505
 0058DE 18D8/9808 D004_            34506                       PEND
 DROP   *,R7
1FUNC     (FUNC2193) (12:45) (15MAR04) System Routines for Functions                                                        Page  130
0Current Usings:  (CP,R11) (CV,R12)
0Loc    Object Code    Addr1 Addr2  Stmt Lv Lineno    Source Statement           (Hibal 5, Asmedit 3.3)  HLASM R4.0  2004/03/15 12.45
+___    ______ ____    _____ _____  ____ __ ______    ______ _________
0                                  34527                       QLTORG
1FUNC     (FUNC2193) (12:45) (15MAR04) System Routines for Functions                                                        Page  131
0Current Usings:  (CP,R11) (CV,R12)
0Loc    Object Code    Addr1 Addr2  Stmt Lv Lineno    Source Statement           (Hibal 5, Asmedit 3.3)  HLASM R4.0  2004/03/15 12.45
+___    ______ ____    _____ _____  ____ __ ______    ______ _________
0                                  34560              ¿þþþþþþþþþþþþþþþþþþþþþþþþþþþþþþþþþþþþþþþþþþþþþþþþþþþþþþþþþþþþþþþþþþþþþÜ
                                   34561              Ÿ                                                                     Ÿ
                                   34562              Ÿ                                                                     Ÿ
                                   34563              Ÿ  LNO - TRUNCATE NUMBER TO LINE NUMBER                               Ÿ
                                   34564              Ÿ                                                                     Ÿ
                                   34565              Ÿ                                                                     Ÿ
                                   34566              Ÿ  SEE COMMENTS AT START OF THIS MODULE                               Ÿ
                                   34567              Ÿ                                                                     Ÿ
                                                      ¾þþþþþþþþþþþþþþþþþþþþþþþþþþþþþþþþþþþþþþþþþþþþþþþþþþþþþþþþþþþþþþþþþþþþþ»
00059A4 50E0 D000/9008_      00000 34568              FNLNO    PROC  ,
 USING  *,R7
 0059BE 4120 7332/58E0_      05CF0 34607                       SETARGS '11W'             1 ARG: NUMBER, WYLBUR LINENO
                                   34613                       COMMENT                   THE SETARG ROUTINE ABOVE DOES THE
                                   34614                       COMMENT                   WORK, CONVERTING THE INPUT ARG TO
                                   34615                       COMMENT                   A LINENO,,, WHICH WE RETURN
 0059C8 4770 7030            059EE 34616                       IF    Z,BEGIN
 USING  VNENTRY,R5                 34627  1                      USING VNENTRY,R5
 0059CC 4151 0000            00000 34636  1                      LA    R5,ARG1(R1)
 0059D0 5830 5024            00024 34637  1                      L     R3,VNVALUE          R3 - LINENO VALUE
 DROP   VNENTRY,R5                 34638  1                      DROP  R5
 0059D4 D74F 6000 6000_00000 00000 34645  1                      VRETURN LINENO,(R3)
 USING  VNENTRY,R6
 DROP   VNENTRY,R6
 0059EE                            34692                       END
 0059EE 18D8/9808 D004_            34696                       PEND
 DROP   *,R7
1FUNC     (FUNC2193) (12:45) (15MAR04) System Routines for Functions                                                        Page  132
0Current Usings:  (CP,R11) (CV,R12)
0Loc    Object Code    Addr1 Addr2  Stmt Lv Lineno    Source Statement           (Hibal 5, Asmedit 3.3)  HLASM R4.0  2004/03/15 12.45
+___    ______ ____    _____ _____  ____ __ ______    ______ _________
0                                  34717              ¿þþþþþþþþþþþþþþþþþþþþþþþþþþþþþþþþþþþþþþþþþþþþþþþþþþþþþþþþþþþþþþþþþþþþþÜ
                                   34718              Ÿ                                                                     Ÿ
                                   34719              Ÿ                                                                     Ÿ
                                   34720              Ÿ  LINE_CHECK ( LINENO [, ACTIVENO] )                                 Ÿ
                                   34721              Ÿ                                                                     Ÿ
                                   34722              Ÿ                                                                     Ÿ
                                   34723              Ÿ  SEE COMMENTS AT START OF THIS MODULE                               Ÿ
                                   34724              Ÿ                                                                     Ÿ
                                                      ¾þþþþþþþþþþþþþþþþþþþþþþþþþþþþþþþþþþþþþþþþþþþþþþþþþþþþþþþþþþþþþþþþþþþþþ»
00059FC 50E0 D000/9008_      00000 34725              FNLNCHK  PROC  ,
 USING  *,R7
                                   34764
                                   34765                       COMMENT                   CHECK ARGS
 005A16 4120 72B2/58E0_      05CC8 34766                       SETARGS '12WI'
 005A20 4770 7088            05A9E 34772                       IF    Z,BEGIN
                                   34783  1
                                   34784  1                      COMMENT                   GET ARGS
 USING  VNENTRY,R5                 34785  1                      USING VNENTRY,R5
 005A24 4151 0000            00000 34794  1                      LA    R5,ARG1(R1)
 005A28 5820 5024            00024 34795  1                      L     R2,VNVALUE          R2 - LINE NUMBER
 005A2C 5900 72B6/4770_      05CCC 34796  1                      IF    (R0,EQ,2),BEGIN
 005A34 4151 0150            00150 34813  2                        LA    R5,ARG2(R1)
 005A38 5830 5024            00024 34814  2                        L     R3,VNVALUE          R3 - ACTIVE FILE NUMBER, IF ANY
 005A3C 1233/4720 703A             34815  2                        IF    (R3,NP),BEGIN
 005A42 4120 0002/58E0_      00002 34829  3                          BADARG 2
 005A4C 47F0 7088            05A9E 34840  3                          EXIT  FNLNCHK
 005A50                            34843  2                        END
 005A50                            34847  1                      END
 005A50 703E/47F0 7040 05A50 05A32 34851  1                      ELSE  BEGIN
 005A54 1B33                       34862  2                        CLEAR R3
 005A56                            34866  1                      END
 DROP   VNENTRY,R5                 34870  1                      DROP  R5
                                   34877  1
                                   34878  1                      COMMENT                   CHECK FOR LINE NUMBER
 005A56 1802                       34879  1                      LR    R0,R2
 005A58 1813                       34880  1                      LR    R1,R3
 005A5A 58E0 72BE/0DEE       05CD4 34881  1                      VCALL CHECKLN
 005A60 4770 7068            05A7E 34885  1                      IF    Z,BEGIN             IF LINENO EXISTS, RETURN IT
 005A64 D74F 6000 6000_00000 00000 34896  2                        VRETURN LINENO,(R0)
 USING  VNENTRY,R6
 DROP   VNENTRY,R6
 005A7E                            34943  1                      END
 005A7E 706C/47F0 7088 05A7E 05A62 34947  1                      ELSE  BEGIN               IF NOT FOUND, RETURN -1.000
 005A82 D74F 6000 6000_00000 00000 34958  2                        VRETURN LINENO,L:=F'-1000'
 USING  VNENTRY,R6
 DROP   VNENTRY,R6
 005A9E                            35005  1                      END
                                   35009  1
 005A9E                            35010                       END , OF GOOD ARGS
                                   35014
 005A9E 18D8/9808 D004_            35015                       PEND
 DROP   *,R7
1FUNC     (FUNC2193) (12:45) (15MAR04) System Routines for Functions                                                        Page  133
0Current Usings:  (CP,R11) (CV,R12)
0Loc    Object Code    Addr1 Addr2  Stmt Lv Lineno    Source Statement           (Hibal 5, Asmedit 3.3)  HLASM R4.0  2004/03/15 12.45
+___    ______ ____    _____ _____  ____ __ ______    ______ _________
0                                  35036              ¿þþþþþþþþþþþþþþþþþþþþþþþþþþþþþþþþþþþþþþþþþþþþþþþþþþþþþþþþþþþþþþþþþþþþþÜ
                                   35037              Ÿ                                                                     Ÿ
                                   35038              Ÿ                                                                     Ÿ
                                   35039              Ÿ  LNO_END ( [ACTIVENO] )                                             Ÿ
                                   35040              Ÿ                                                                     Ÿ
                                   35041              Ÿ                                                                     Ÿ
                                   35042              Ÿ  SEE COMMENTS AT START OF THIS MODULE                               Ÿ
                                   35043              Ÿ                                                                     Ÿ
                                                      ¾þþþþþþþþþþþþþþþþþþþþþþþþþþþþþþþþþþþþþþþþþþþþþþþþþþþþþþþþþþþþþþþþþþþþþ»
0005AAC 50E0 D000/9008_      00000 35044              FNLNEND  PROC  ,
 USING  *,R7
                                   35083
                                   35084                       COMMENT                   CHECK ARGS
 005AC6 4120 722D/58E0_      05CF3 35085                       SETARGS '01I'
 005AD0 4770 705E            05B24 35091                       IF    Z,BEGIN
                                   35102  1
                                   35103  1                      COMMENT                   GET ARGS
 USING  VNENTRY,R5                 35104  1                      USING VNENTRY,R5
 005AD4 5900 7216/4770_      05CDC 35113  1                      IF    (R0,EQ,1),BEGIN
 005ADC 4151 0000            00000 35130  2                        LA    R5,ARG1(R1)
 005AE0 5830 5024            00024 35131  2                        L     R3,VNVALUE          R3 - ACTIVE FILE NUMBER, IF ANY
 005AE4 1233/4720 7032             35132  2                        IF    (R3,NP),BEGIN
 005AEA 4120 0002/58E0_      00002 35146  3                          BADARG 2
 005AF4 47F0 705E            05B24 35157  3                          EXIT   FNLNEND
 005AF8                            35160  2                        END
 005AF8                            35164  1                      END
 005AF8 7036/47F0 7038 05AF8 05ADA 35168  1                      ELSE  BEGIN
 005AFC 1B33                       35179  2                        CLEAR R3
 005AFE                            35183  1                      END
 DROP   VNENTRY,R5                 35187  1                      DROP  R5
                                   35194  1
                                   35195  1                      COMMENT                   GET FIRST LINENO IN RANGE
 005AFE 1813                       35196  1                      LR    R1,R3
 005B00 58E0 721A/0DEE       05CE0 35197  1                      VCALL GTENDLN
 005B06 4770 705E            05B24 35201  1                      IF    Z,BEGIN             IF LINENO EXISTS, RETURN IT
 005B0A D74F 6000 6000_00000 00000 35212  2                        VRETURN LINENO,(R0)
 USING  VNENTRY,R6
 DROP   VNENTRY,R6
 005B24                            35259  1                      END
                                   35263  1
 005B24                            35264                       END , OF GOOD ARGS
                                   35268
 005B24 18D8/9808 D004_            35269                       PEND
 DROP   *,R7
1FUNC     (FUNC2193) (12:45) (15MAR04) System Routines for Functions                                                        Page  134
0Current Usings:  (CP,R11) (CV,R12)
0Loc    Object Code    Addr1 Addr2  Stmt Lv Lineno    Source Statement           (Hibal 5, Asmedit 3.3)  HLASM R4.0  2004/03/15 12.45
+___    ______ ____    _____ _____  ____ __ ______    ______ _________
0                                  35290              ¿þþþþþþþþþþþþþþþþþþþþþþþþþþþþþþþþþþþþþþþþþþþþþþþþþþþþþþþþþþþþþþþþþþþþþÜ
                                   35291              Ÿ                                                                     Ÿ
                                   35292              Ÿ                                                                     Ÿ
                                   35293              Ÿ  LNO_FIELD - FORMAT LINE NUMBER IN FIXED FIELD                      Ÿ
                                   35294              Ÿ                                                                     Ÿ
                                   35295              Ÿ  LNO_FIELD(LINENO)                                                  Ÿ
                                   35296              Ÿ                                                                     Ÿ
                                   35297              Ÿ  SEE COMMENTS AT START OF THIS MODULE                               Ÿ
                                   35298              Ÿ                                                                     Ÿ
                                   35299              Ÿ                                                                     Ÿ
                                                      ¾þþþþþþþþþþþþþþþþþþþþþþþþþþþþþþþþþþþþþþþþþþþþþþþþþþþþþþþþþþþþþþþþþþþþþ»
0005B32 50E0 D000/9008_      00000 35300              FNLNFLD  PROC  ,
 USING  *,R7
 005B4C 4120 71A4/58E0_      05CF0 35339                       SETARGS '11W'             1 ARG: WYLBUR LINE NUMBER
 005B56 4770 70B0            05BFC 35345                       IF    Z,BEGIN
                                   35356  1
                                   35357  1                      COMMENT                   Check line number
 005B5A 1222/4740 701C_            35358  1                      IF    ((R2,NEG),OR,(R2,GT,CVMAXLNO)),BEGIN
 005B68 4110 71AA/4100_      05CF6 35388  2                        TSEG  'Invalid line number (negative or too large)'
 005B7A 41F0 0004            00004 35406  2                        LA    R15,4
 005B7E                            35407  1                      END
                                   35411  1
                                   35412  1                      COMMENT                   GET ARG 1,
 USING  VNENTRY,R5                 35413  1                      USING VNENTRY,R5
 005B7E 4151 0000            00000 35422  1                      LA    R5,ARG1(R1)
 005B82 5800 5024            00024 35423  1                      L     R0,VNVALUE          R0 - LINE NUMBER
 DROP   VNENTRY,R5                 35424  1                      DROP  R5
                                   35431  1
                                   35432  1                      COMMENT                   CHECK LINE NUMBER
 005B86 1200/4740 7048_            35433  1                      IF    ((R0,NEG),OR,(R0,GT,CVMAXLNO)),BEGIN
 005B94 4110 71AA/4100_      05CF6 35463  2                        TSEG  'Invalid line number (negative or too large)'
 005BA6 D74F 6000 6000_00000 00000 35481  2                        VRETURN STRING,'?????.???'
 USING  VNENTRY,R6
 DROP   VNENTRY,R6
 005BCA 41F0 0004            00004 35559  2                        LA    R15,4
 005BCE                            35560  1                      END
                                   35564  1
                                   35565  1                      COMMENT                   IF VALID LINE NO, FORMAT IT
 005BCE 7086/47F0 70B0 05BCE 05B92 35566  1                      ELSE  BEGIN
 005BD2 58E0 719C/0DEE       05CE8 35577  2                        VCALL CVEXNO              FORMAT LINE NUMBER
 005BD8 D74F 6000 6000_00000 00000 35581  2                        VRETURN STRING,CPDOUB,9   RETURN FORMATTED LINE NUMBER
 USING  VNENTRY,R6
 DROP   VNENTRY,R6
 005BFC                            35671  1                      END , OF VALID LINE NO
 005BFC                            35675                       END , OF GOOD ARGS
                                   35679
 005BFC 18D8/9808 D004_            35680                       PEND
 DROP   *,R7
1FUNC     (FUNC2193) (12:45) (15MAR04) System Routines for Functions                                                        Page  135
0Current Usings:  (CP,R11) (CV,R12)
0Loc    Object Code    Addr1 Addr2  Stmt Lv Lineno    Source Statement           (Hibal 5, Asmedit 3.3)  HLASM R4.0  2004/03/15 12.45
+___    ______ ____    _____ _____  ____ __ ______    ______ _________
0                                  35701              ¿þþþþþþþþþþþþþþþþþþþþþþþþþþþþþþþþþþþþþþþþþþþþþþþþþþþþþþþþþþþþþþþþþþþþþÜ
                                   35702              Ÿ                                                                     Ÿ
                                   35703              Ÿ                                                                     Ÿ
                                   35704              Ÿ  LNO_FIRST ( LINENO [, ACTIVENO] )                                  Ÿ
                                   35705              Ÿ                                                                     Ÿ
                                   35706              Ÿ                                                                     Ÿ
                                   35707              Ÿ  SEE COMMENTS AT START OF THIS MODULE                               Ÿ
                                   35708              Ÿ                                                                     Ÿ
                                                      ¾þþþþþþþþþþþþþþþþþþþþþþþþþþþþþþþþþþþþþþþþþþþþþþþþþþþþþþþþþþþþþþþþþþþþþ»
0005C0A 50E0 D000/9008_      00000 35709              FNLNFRST PROC  ,
 USING  *,R7
                                   35748
                                   35749                       COMMENT                   CHECK ARGS
 005C24 4120 70A4/58E0_      05CC8 35750                       SETARGS '12WI'
 005C2E 4770 7088            05CAC 35756                       IF    Z,BEGIN
                                   35767  1
                                   35768  1                      COMMENT                   GET ARGS
 USING  VNENTRY,R5                 35769  1                      USING VNENTRY,R5
 005C32 4151 0000            00000 35778  1                      LA    R5,ARG1(R1)
 005C36 5820 5024            00024 35779  1                      L     R2,VNVALUE          R2 - LINE NUMBER
 005C3A 5900 70A8/4770_      05CCC 35780  1                      IF    (R0,EQ,2),BEGIN
 005C42 4151 0150            00150 35797  2                        LA    R5,ARG2(R1)
 005C46 5830 5024            00024 35798  2                        L     R3,VNVALUE          R3 - ACTIVE FILE NUMBER, IF ANY
 005C4A 1233/4720 703A             35799  2                        IF    (R3,NP),BEGIN
 005C50 4120 0002/58E0_      00002 35813  3                          BADARG 2
 005C5A 47F0 7088            05CAC 35824  3                          EXIT  FNLNFRST
 005C5E                            35827  2                        END
 005C5E                            35831  1                      END
 005C5E 703E/47F0 7040 05C5E 05C40 35835  1                      ELSE  BEGIN
 005C62 1B33                       35846  2                        CLEAR R3
 005C64                            35850  1                      END
 DROP   VNENTRY,R5                 35854  1                      DROP  R5
                                   35861  1
                                   35862  1                      COMMENT                   GET FIRST LINENO IN RANGE
 005C64 1802                       35863  1                      LR    R0,R2
 005C66 1813                       35864  1                      LR    R1,R3
 005C68 58E0 70C8/0DEE       05CEC 35865  1                      VCALL GTFRSTLN
 005C6E 4770 7068            05C8C 35869  1                      IF    Z,BEGIN             IF LINENO EXISTS, RETURN IT
 005C72 D74F 6000 6000_00000 00000 35880  2                        VRETURN LINENO,(R0)
 USING  VNENTRY,R6
 DROP   VNENTRY,R6
 005C8C                            35927  1                      END
 005C8C 706C/47F0 7088 05C8C 05C70 35931  1                      ELSE  BEGIN               IF NOT FOUND, RETURN -1.000
 005C90 D74F 6000 6000_00000 00000 35942  2                        VRETURN LINENO,L:=F'-1000'
 USING  VNENTRY,R6
 DROP   VNENTRY,R6
 005CAC                            35989  1                      END
                                   35993  1
 005CAC                            35994                       END , OF GOOD ARGS
                                   35998
 005CAC 18D8/9808 D004_            35999                       PEND
 DROP   *,R7
                                   36019
1FUNC     (FUNC2193) (12:45) (15MAR04) System Routines for Functions                                                        Page  136
0Current Usings:  (CP,R11) (CV,R12)
0Loc    Object Code    Addr1 Addr2  Stmt Lv Lineno    Source Statement           (Hibal 5, Asmedit 3.3)  HLASM R4.0  2004/03/15 12.45
+___    ______ ____    _____ _____  ____ __ ______    ______ _________
0                                  36020                       QLTORG
1FUNC     (FUNC2193) (12:45) (15MAR04) System Routines for Functions                                                        Page  137
0Current Usings:  (CP,R11) (CV,R12)
0Loc    Object Code    Addr1 Addr2  Stmt Lv Lineno    Source Statement           (Hibal 5, Asmedit 3.3)  HLASM R4.0  2004/03/15 12.45
+___    ______ ____    _____ _____  ____ __ ______    ______ _________
0                                  36049              ¿þþþþþþþþþþþþþþþþþþþþþþþþþþþþþþþþþþþþþþþþþþþþþþþþþþþþþþþþþþþþþþþþþþþþþÜ
                                   36050              Ÿ                                                                     Ÿ
                                   36051              Ÿ                                                                     Ÿ
                                   36052              Ÿ  LNO_LAST  ( LINENO [, ACTIVENO] )                                  Ÿ
                                   36053              Ÿ                                                                     Ÿ
                                   36054              Ÿ                                                                     Ÿ
                                   36055              Ÿ  SEE COMMENTS AT START OF THIS MODULE                               Ÿ
                                   36056              Ÿ                                                                     Ÿ
                                                      ¾þþþþþþþþþþþþþþþþþþþþþþþþþþþþþþþþþþþþþþþþþþþþþþþþþþþþþþþþþþþþþþþþþþþþþ»
0005D36 50E0 D000/9008_      00000 36057              FNLNLAST PROC  ,
 USING  *,R7
                                   36096
                                   36097                       COMMENT                   CHECK ARGS
 005D50 4120 7748/58E0_      06498 36098                       SETARGS '12WI'
 005D5A 4770 7088            05DD8 36104                       IF    Z,BEGIN
                                   36115  1
                                   36116  1                      COMMENT                   GET ARGS
 USING  VNENTRY,R5                 36117  1                      USING VNENTRY,R5
 005D5E 4151 0000            00000 36126  1                      LA    R5,ARG1(R1)
 005D62 5820 5024            00024 36127  1                      L     R2,VNVALUE          R2 - LINE NUMBER
 005D66 5900 7750/4770_      064A0 36128  1                      IF    (R0,EQ,2),BEGIN
 005D6E 4151 0150            00150 36145  2                        LA    R5,ARG2(R1)
 005D72 5830 5024            00024 36146  2                        L     R3,VNVALUE          R3 - ACTIVE FILE NUMBER, IF ANY
 005D76 1233/4720 703A             36147  2                        IF    (R3,NP),BEGIN
 005D7C 4120 0002/58E0_      00002 36161  3                          BADARG 2
 005D86 47F0 7088            05DD8 36172  3                          EXIT  FNLNLAST
 005D8A                            36175  2                        END
 005D8A                            36179  1                      END
 005D8A 703E/47F0 7040 05D8A 05D6C 36183  1                      ELSE  BEGIN
 005D8E 1B33                       36194  2                        CLEAR R3
 005D90                            36198  1                      END
 DROP   VNENTRY,R5                 36202  1                      DROP  R5
                                   36209  1
                                   36210  1                      COMMENT                   GET LAST LINENO IN RANGE
 005D90 1802                       36211  1                      LR    R0,R2
 005D92 1813                       36212  1                      LR    R1,R3
 005D94 58E0 7758/0DEE       064A8 36213  1                      VCALL GTLASTLN
 005D9A 4770 7068            05DB8 36217  1                      IF    Z,BEGIN             IF LINENO EXISTS, RETURN IT
 005D9E D74F 6000 6000_00000 00000 36228  2                        VRETURN LINENO,(R0)
 USING  VNENTRY,R6
 DROP   VNENTRY,R6
 005DB8                            36275  1                      END
 005DB8 706C/47F0 7088 05DB8 05D9C 36279  1                      ELSE  BEGIN               IF NOT FOUND, RETURN -1.000
 005DBC D74F 6000 6000_00000 00000 36290  2                        VRETURN LINENO,L:=F'-1000'
 USING  VNENTRY,R6
 DROP   VNENTRY,R6
 005DD8                            36337  1                      END
                                   36341  1
 005DD8                            36342                       END , OF GOOD ARGS
                                   36346
 005DD8 18D8/9808 D004_            36347                       PEND
 DROP   *,R7
1FUNC     (FUNC2193) (12:45) (15MAR04) System Routines for Functions                                                        Page  138
0Current Usings:  (CP,R11) (CV,R12)
0Loc    Object Code    Addr1 Addr2  Stmt Lv Lineno    Source Statement           (Hibal 5, Asmedit 3.3)  HLASM R4.0  2004/03/15 12.45
+___    ______ ____    _____ _____  ____ __ ______    ______ _________
0                                  36368              ¿þþþþþþþþþþþþþþþþþþþþþþþþþþþþþþþþþþþþþþþþþþþþþþþþþþþþþþþþþþþþþþþþþþþþþÜ
                                   36369              Ÿ                                                                     Ÿ
                                   36370              Ÿ                                                                     Ÿ
                                   36371              Ÿ  LNO_NEXT ( LINENO [, ACTIVENO] )                                   Ÿ
                                   36372              Ÿ                                                                     Ÿ
                                   36373              Ÿ                                                                     Ÿ
                                   36374              Ÿ  SEE COMMENTS AT START OF THIS MODULE                               Ÿ
                                   36375              Ÿ                                                                     Ÿ
                                                      ¾þþþþþþþþþþþþþþþþþþþþþþþþþþþþþþþþþþþþþþþþþþþþþþþþþþþþþþþþþþþþþþþþþþþþþ»
0005DE6 50E0 D000/9008_      00000 36376              FNLNNEXT PROC  ,
 USING  *,R7
                                   36415
                                   36416                       COMMENT                   CHECK ARGS
 005E00 4120 7698/58E0_      06498 36417                       SETARGS '12WI'
 005E0A 4770 7088            05E88 36423                       IF    Z,BEGIN
                                   36434  1
                                   36435  1                      COMMENT                   GET ARGS
 USING  VNENTRY,R5                 36436  1                      USING VNENTRY,R5
 005E0E 4151 0000            00000 36445  1                      LA    R5,ARG1(R1)
 005E12 5820 5024            00024 36446  1                      L     R2,VNVALUE          R2 - LINE NUMBER
 005E16 5900 76A0/4770_      064A0 36447  1                      IF    (R0,EQ,2),BEGIN
 005E1E 4151 0150            00150 36464  2                        LA    R5,ARG2(R1)
 005E22 5830 5024            00024 36465  2                        L     R3,VNVALUE          R3 - ACTIVE FILE NUMBER, IF ANY
 005E26 1233/4720 703A             36466  2                        IF    (R3,NP),BEGIN
 005E2C 4120 0002/58E0_      00002 36480  3                          BADARG 2
 005E36 47F0 7088            05E88 36491  3                          EXIT  FNLNNEXT
 005E3A                            36494  2                        END
 005E3A                            36498  1                      END
 005E3A 703E/47F0 7040 05E3A 05E1C 36502  1                      ELSE  BEGIN
 005E3E 1B33                       36513  2                        CLEAR R3
 005E40                            36517  1                      END
 DROP   VNENTRY,R5                 36521  1                      DROP  R5
                                   36528  1
                                   36529  1                      COMMENT                   GET NEXT LINE NUMBER IN RANGE
 005E40 1802                       36530  1                      LR    R0,R2
 005E42 1813                       36531  1                      LR    R1,R3
 005E44 58E0 76B4/0DEE       064B4 36532  1                      VCALL GTNEXTLN
 005E4A 4770 7068            05E68 36536  1                      IF    Z,BEGIN             IF LINENO EXISTS, RETURN IT
 005E4E D74F 6000 6000_00000 00000 36547  2                        VRETURN LINENO,(R0)
 USING  VNENTRY,R6
 DROP   VNENTRY,R6
 005E68                            36594  1                      END
 005E68 706C/47F0 7088 05E68 05E4C 36598  1                      ELSE  BEGIN               IF NOT FOUND, RETURN -1.000
 005E6C D74F 6000 6000_00000 00000 36609  2                        VRETURN LINENO,L:=F'-1000'
 USING  VNENTRY,R6
 DROP   VNENTRY,R6
 005E88                            36656  1                      END
                                   36660  1
 005E88                            36661                       END , OF GOOD ARGS
                                   36665
 005E88 18D8/9808 D004_            36666                       PEND
 DROP   *,R7
1FUNC     (FUNC2193) (12:45) (15MAR04) System Routines for Functions                                                        Page  139
0Current Usings:  (CP,R11) (CV,R12)
0Loc    Object Code    Addr1 Addr2  Stmt Lv Lineno    Source Statement           (Hibal 5, Asmedit 3.3)  HLASM R4.0  2004/03/15 12.45
+___    ______ ____    _____ _____  ____ __ ______    ______ _________
0                                  36687              ¿þþþþþþþþþþþþþþþþþþþþþþþþþþþþþþþþþþþþþþþþþþþþþþþþþþþþþþþþþþþþþþþþþþþþþÜ
                                   36688              Ÿ                                                                     Ÿ
                                   36689              Ÿ                                                                     Ÿ
                                   36690              Ÿ  LNO_PREV ( LINENO [, ACTIVENO] )                                   Ÿ
                                   36691              Ÿ                                                                     Ÿ
                                   36692              Ÿ                                                                     Ÿ
                                   36693              Ÿ  SEE COMMENTS AT START OF THIS MODULE                               Ÿ
                                   36694              Ÿ                                                                     Ÿ
                                                      ¾þþþþþþþþþþþþþþþþþþþþþþþþþþþþþþþþþþþþþþþþþþþþþþþþþþþþþþþþþþþþþþþþþþþþþ»
0005E96 50E0 D000/9008_      00000 36695              FNLNPREV PROC  ,
 USING  *,R7
                                   36734
                                   36735                       COMMENT                   CHECK ARGS
 005EB0 4120 75E8/58E0_      06498 36736                       SETARGS '12WI'
 005EBA 4770 7088            05F38 36742                       IF    Z,BEGIN
                                   36753  1
                                   36754  1                      COMMENT                   GET ARGS
 USING  VNENTRY,R5                 36755  1                      USING VNENTRY,R5
 005EBE 4151 0000            00000 36764  1                      LA    R5,ARG1(R1)
 005EC2 5820 5024            00024 36765  1                      L     R2,VNVALUE          R2 - LINE NUMBER
 005EC6 5900 75F0/4770_      064A0 36766  1                      IF    (R0,EQ,2),BEGIN
 005ECE 4151 0150            00150 36783  2                        LA    R5,ARG2(R1)
 005ED2 5830 5024            00024 36784  2                        L     R3,VNVALUE          R3 - ACTIVE FILE NUMBER, IF ANY
 005ED6 1233/4720 703A             36785  2                        IF    (R3,NP),BEGIN
 005EDC 4120 0002/58E0_      00002 36799  3                          BADARG 2
 005EE6 47F0 7088            05F38 36810  3                          EXIT  FNLNPREV
 005EEA                            36813  2                        END
 005EEA                            36817  1                      END
 005EEA 703E/47F0 7040 05EEA 05ECC 36821  1                      ELSE  BEGIN
 005EEE 1B33                       36832  2                        CLEAR R3
 005EF0                            36836  1                      END
 DROP   VNENTRY,R5                 36840  1                      DROP  R5
                                   36847  1
                                   36848  1                      COMMENT                   GET PREVIOUS LINENO IN RANGE
 005EF0 1802                       36849  1                      LR    R0,R2
 005EF2 1813                       36850  1                      LR    R1,R3
 005EF4 58E0 7608/0DEE       064B8 36851  1                      VCALL GTPREVLN
 005EFA 4770 7068            05F18 36855  1                      IF    Z,BEGIN             IF LINENO EXISTS, RETURN IT
 005EFE D74F 6000 6000_00000 00000 36866  2                        VRETURN LINENO,(R0)
 USING  VNENTRY,R6
 DROP   VNENTRY,R6
 005F18                            36913  1                      END
 005F18 706C/47F0 7088 05F18 05EFC 36917  1                      ELSE  BEGIN               IF NOT FOUND, RETURN -1.000
 005F1C D74F 6000 6000_00000 00000 36928  2                        VRETURN LINENO,L:=F'-1000'
 USING  VNENTRY,R6
 DROP   VNENTRY,R6
 005F38                            36975  1                      END
                                   36979  1
 005F38                            36980                       END , OF GOOD ARGS
                                   36984
 005F38 18D8/9808 D004_            36985                       PEND
 DROP   *,R7
1FUNC     (FUNC2193) (12:45) (15MAR04) System Routines for Functions                                                        Page  140
0Current Usings:  (CP,R11) (CV,R12)
0Loc    Object Code    Addr1 Addr2  Stmt Lv Lineno    Source Statement           (Hibal 5, Asmedit 3.3)  HLASM R4.0  2004/03/15 12.45
+___    ______ ____    _____ _____  ____ __ ______    ______ _________
0                                  37006              ¿þþþþþþþþþþþþþþþþþþþþþþþþþþþþþþþþþþþþþþþþþþþþþþþþþþþþþþþþþþþþþþþþþþþþþÜ
                                   37007              Ÿ                                                                     Ÿ
                                   37008              Ÿ  LOWER                                                              Ÿ
                                   37009              Ÿ                                                                     Ÿ
                                   37010              Ÿ  SEE COMMENTS AT START OF THIS MODULE                               Ÿ
                                   37011              Ÿ                                                                     Ÿ
                                                      ¾þþþþþþþþþþþþþþþþþþþþþþþþþþþþþþþþþþþþþþþþþþþþþþþþþþþþþþþþþþþþþþþþþþþþþ»
0005F46 50E0 D000/9008_      00000 37012              FNLOWER  PROC  ,
 USING  *,R7
 005F60 4120 75DA/58E0_      0653A 37051                       SETARGS '11S'             1 ARG: STRING
 005F6A 4770 703C            05F9C 37057                       IF    Z,BEGIN
 USING  VNENTRY,R5                 37068  1                      USING VNENTRY,R5
 005F6E 4151 0000            00000 37077  1                      LA    R5,ARG1(R1)
 005F72 4110 5026            00026 37078  1                      LA    R1,VNSTRLOC         R1 - STRING LOC
 005F76 4820 5024            00024 37079  1                      LH    R2,VNSTRLEN         R2 - STRING LEN
 DROP   VNENTRY,R5                 37080  1                      DROP  R5
 USING  VNENTRY,R6                 37087  1                      USING VNENTRY,R6
 005F7A D74F 6000 6000 00000 00000 37096  1                      CLEAR VNENTRY
 005F80 9201 6020      00020       37103  1                      SET   VNSTRING
 005F84 4020 6024            00024 37109  1                      STH   R2,VNSTRLEN
 005F88 1222/47D0 703C             37110  1                      IF    (R2,POS),BEGIN
 005F8E 0620/4420 7622_            37124  2                        DEX   R2,' MVC VNSTRLOC(0),0(R1) '  MOVE STRING TO RET AREA
 005F94 5840 C8AC            008AC 37143  2                        L     R4,CVLOWTBL
 005F98 4420 7628/DC00_      06588 37144  2                        EX    R2,' TR VNSTRLOC(0),0(R4) '   CONVERT IT
 005F9C                            37160  1                      END
 DROP   VNENTRY,R6                 37164  1                      DROP  R6
 005F9C                            37171                       END
 005F9C 18D8/9808 D004_            37175                       PEND
 DROP   *,R7
1FUNC     (FUNC2193) (12:45) (15MAR04) System Routines for Functions                                                        Page  141
0Current Usings:  (CP,R11) (CV,R12)
0Loc    Object Code    Addr1 Addr2  Stmt Lv Lineno    Source Statement           (Hibal 5, Asmedit 3.3)  HLASM R4.0  2004/03/15 12.45
+___    ______ ____    _____ _____  ____ __ ______    ______ _________
0                                  37196              ¿þþþþþþþþþþþþþþþþþþþþþþþþþþþþþþþþþþþþþþþþþþþþþþþþþþþþþþþþþþþþþþþþþþþþþÜ
                                   37197              Ÿ                                                                     Ÿ
                                   37198              Ÿ  LASTPOS Function.                                                  Ÿ
                                   37199              Ÿ                                                                     Ÿ
                                   37200              Ÿ    LASTPOS(??????????)                                              Ÿ
                                   37201              Ÿ                                                                     Ÿ
                                                      ¾þþþþþþþþþþþþþþþþþþþþþþþþþþþþþþþþþþþþþþþþþþþþþþþþþþþþþþþþþþþþþþþþþþþþþ»
0005FAA 50E0 D000/9008_      00000 37202              FNLPOS   PROC  ,
 USING  *,R7
 005FC4 4110 7554/4100_      06518 37241                       TSEG  'Not Yet!  '
 005FD6 4120 0001/58E0_      00001 37259                       BADARG 1
 005FE0 18D8/9808 D004_            37270                       PEND
 DROP   *,R7
1FUNC     (FUNC2193) (12:45) (15MAR04) System Routines for Functions                                                        Page  142
0Current Usings:  (CP,R11) (CV,R12)
0Loc    Object Code    Addr1 Addr2  Stmt Lv Lineno    Source Statement           (Hibal 5, Asmedit 3.3)  HLASM R4.0  2004/03/15 12.45
+___    ______ ____    _____ _____  ____ __ ______    ______ _________
0                                  37291              ¿þþþþþþþþþþþþþþþþþþþþþþþþþþþþþþþþþþþþþþþþþþþþþþþþþþþþþþþþþþþþþþþþþþþþþÜ
                                   37292              Ÿ                                                                     Ÿ
                                   37293              Ÿ  MATCH -- MATCH function.                                           Ÿ
                                   37294              Ÿ                                                                     Ÿ
                                   37295              Ÿ    Return true if string in arg2 matches the first part             Ÿ
                                   37296              Ÿ    of the string in arg1.                                           Ÿ
                                   37297              Ÿ                                                                     Ÿ
                                                      ¾þþþþþþþþþþþþþþþþþþþþþþþþþþþþþþþþþþþþþþþþþþþþþþþþþþþþþþþþþþþþþþþþþþþþþ»
0000000                00000 00001 37298              MATWA    RECORD BEGIN
 000000 00                         37306  1           MATFLAG    FLAG
 MATFLAG.MATFCASE  80 ONES         37310  1                      FLAG  MATFCASE            - Do case independent match
 MATFLAG.MATFSTRIP 40 ONES         37315  1                      FLAG  MATFSTRIP           - Strip any trailing blanks
 000001                00001 00001 37320                       END
                                   37329              þþþþ
 005FEE 50E0 D000/9008_      00000 37330              FNMATCH  PROC  MATWA
 USING  *,R7
 USING  MATWA-(4+36),R8
 006008 9200 8028      00000       37380                       CLEAR MATWA
                                   37387
 00600C 4120 7535/58E0_      0653D 37388                       SETARGS '23SSS'           2-3 string args
 006016 4770 7146            0614E 37394                       IF    NZ,EXIT             Return if error
                                   37408                       ¿þþþþþþþþþþþþþþþþþþþþþþþþþþþþþþþþþþÜ
                                   37409                       Ÿ  Scan arg3 for special options.  Ÿ
                                   37410                       ¾þþþþþþþþþþþþþþþþþþþþþþþþþþþþþþþþþþ»
 00601A 5900 7498/47D0_      064A0 37411                       IF    (R0,GT,2),BEGIN     Check options...
 006022 4151 02A0            002A0 37428  1                      LA    R5,ARG3(R1)
 USING  VNENTRY,R5                 37429  1                      WITH  (VNENTRY,R5)
 006026 4130 5026            00026 37442  1                      LA    R3,VNSTRLOC
 00602A 4820 5024            00024 37443  1                      LH    R2,VNSTRLEN
 00602E 1222/47D0 7096             37444  1                      WHILE (R2,POS),BEGIN      Scan options...
 006034 95C3 3000/4780_00000       37460  2                        IF    ((@R3,EQ,'C'),OR,(@R3,EQ,'c')),'SET MATFCASE'
 006048 7044/47F0 7058_06048 06042 37502  2                        ELSEIF ((@R3,EQ,'B'),OR,(@R3,EQ,'b')),'SET MATFSTRIP'
 006060 705C/47F0 708C 06060 0605A 37553  2                        ELSE  BEGIN
 006064 1813/4100 0001_            37564  3                          TSEG  @R3,1
 006074 4110 753A/4100_      06542 37594  3                          TSEG  ': bad MATCH option character.',,CR
 006086 4120 0003/58E0_      00003 37612  3                          BADARG 3
 006090 47F0 7146            0614E 37623  3                          EXIT  FNMATCH
 006094                            37626  2                        END
                                   37630  2
 006094 4130 3001            00001 37631  2                        LA    R3,@R3+1
 006098 0620                       37632  2                        DECR  R2
 00609A 47F0 7026            0602E 37634  1                      END
 DROP   VNENTRY,R5                 37639                       END
                                   37648                       ¿þþþþþþþþþþþþþþþþþþþþþþþþþþÜ
                                   37649                       Ÿ  Set up for comparison.  Ÿ
                                   37650                       ¾þþþþþþþþþþþþþþþþþþþþþþþþþþ»
 00609E 4121 0026            00026 37651                       LA    R2,ARG1+VNSTRLOC-VNENTRY(R1)  Arg 1 address
 0060A2 4831 0024            00024 37652                       LH    R3,ARG1+VNSTRLEN-VNENTRY(R1)  Arg 1 length
 0060A6 9140 8028/47E0_00000       37653                       IF    MATFSTRIP,BEGIN     Strip leading blanks...
 0060AE 1233/47D0 70BE_            37668  1                      WHILE ((R3,POS),AND,(@R2,EQ,' ')),'LA R2,@R2+1; DECR R3'
 0060C6                            37708                       END
                                   37712
 0060C6 4141 0176            00176 37713                       LA    R4,ARG2+VNSTRLOC-VNENTRY(R1)  Arg 2 address
1FUNC     (FUNC2193) (12:45) (15MAR04) System Routines for Functions                                                        Page  143
0Current Usings:  (*,R7) (MATWA-(4+36),R8) (CP,R11) (CV,R12)
0Loc    Object Code    Addr1 Addr2  Stmt Lv Lineno    Source Statement           (Hibal 5, Asmedit 3.3)  HLASM R4.0  2004/03/15 12.45
+___    ______ ____    _____ _____  ____ __ ______    ______ _________
00060CA 4851 0174            00174 37714                       LH    R5,ARG2+VNSTRLEN-VNENTRY(R1)  Arg 2 length
 0060CE 9140 8028/47E0_00000       37715                       IF    MATFSTRIP,BEGIN     Strip leading blanks...
 0060D6 1255/47D0 70E6_            37730  1                      WHILE ((R5,POS),AND,(@R4,EQ,' ')),'LA R4,@R4+1; DECR R5'
 0060EE                            37770                       END
                                   37774
 0060EE 1BFF                       37775                       CLEAR R15                 Init result to false
                                   37779
 0060F0 1255/47D0 7116_            37780                       IF    ((R5,P),AND,(R5,LE,R3)),BEGIN
 0060FC 0650                       37808  1                      DECR  R5                  Get length-1
                                   37810  1
 0060FE 9180 8028/47E0_00000       37811  1                      IF    MATFCASE,BEGIN      We don't care about case...
 006106 5810 C8AC            008AC 37826  2                        L     R1,CVLOWTBL         Translate table
 00610A 4450 7586/DC00_      0658E 37827  2                        EX    R5,'TR @R2(0),@R1'     Lower case arg 1
 00610E 4450 758C/DC00_      06594 37843  2                        EX    R5,'TR @R4(0),@R1'     Lower case arg 2
 006112                            37859  1                      END
                                   37863  1                      ¿þþþþþþþþþþþþþþþþþþþþþþÜ
                                   37864  1                      Ÿ  Do the comparison.  Ÿ
                                   37865  1                      ¾þþþþþþþþþþþþþþþþþþþþþþ»
 006112 4450 7592/D500_      0659A 37866  1                      EX    R5,'CLC @R2(0),@R4'    Compare strings
 006116 4770 7116/5EF0_      0611E 37882  1                      IF    EQ,'INCR R15'       If equal, set true return
 00611E                            37901                       END
                                   37905
 00611E 12FF/4770 712E_            37906                       IF    (R15,Z),'VRETURN BOOLEAN,FALSE'
 USING  VNENTRY,R6
 DROP   VNENTRY,R6
 006136 7132/47F0 7144_06136 06122 37964                       ELSE  'VRETURN BOOLEAN,TRUE'
 USING  VNENTRY,R6
 DROP   VNENTRY,R6
                                   38019
 00614C 1BFF                       38020                       CLEAR R15                 A-ok
 00614E 18D8/9808 D004_            38024                       PEND
 DROP   MATWA-(4+36),R8
 DROP   *,R7
1FUNC     (FUNC2193) (12:45) (15MAR04) System Routines for Functions                                                        Page  144
0Current Usings:  (CP,R11) (CV,R12)
0Loc    Object Code    Addr1 Addr2  Stmt Lv Lineno    Source Statement           (Hibal 5, Asmedit 3.3)  HLASM R4.0  2004/03/15 12.45
+___    ______ ____    _____ _____  ____ __ ______    ______ _________
0                                  38050              ¿þþþþþþþþþþþþþþþþþþþþþþþþþþþþþþþþþþþþþþþþþþþþþþþþþþþþþþþþþþþþþþþþþþþþþÜ
                                   38051              Ÿ                                                                     Ÿ
                                   38052              Ÿ  MAX -- MAX Function.                                               Ÿ
                                   38053              Ÿ                                                                     Ÿ
                                   38054              Ÿ    MAX(number[,number]...)                                          Ÿ
                                   38055              Ÿ                                                                     Ÿ
                                                      ¾þþþþþþþþþþþþþþþþþþþþþþþþþþþþþþþþþþþþþþþþþþþþþþþþþþþþþþþþþþþþþþþþþþþþþ»
000615C 50E0 D000/9008_      00000 38056              FNMAX    PROC  ,
 USING  *,R7
 006176 4120 73E9/58E0_      0655F 38095                       SETARGS '19NNNNNNNNN'     1-9 args: numbers
 006180 4770 7042            061B8 38101                       IF    Z,BEGIN
 USING  VNENTRY,R6                 38112  1                      WITH  (VNENTRY,R6)
 006184 D74F 6000 6000 00000 00000 38125  1                      CLEAR VNENTRY
 00618A 9202 6020      00020       38132  1                      SET   VNNUMB
 00618E D20B 6024 736A 00024 064E0 38138  1                      MVC   VNVALUE(12),=X'99999999999999999999999D'  Pre-set
                                   38139  1                      ¿þþþþþþþþþþþþþþþþþþþþþþþþþþþþþþþþþþþþþþþþÜ
                                   38140  1                      Ÿ  Find highest number and return that.  Ÿ
                                   38141  1                      ¾þþþþþþþþþþþþþþþþþþþþþþþþþþþþþþþþþþþþþþþþ»
 006194 4151 0000            00000 38142  1                      LA    R5,ARG1(R1)
 006198 1200/47D0 7042             38143  1                      WHILE (R0,POS),BEGIN      Find highest value...
 00619E F9BB 5024 6024 00024 00024 38159  2                        CP    VNVALUE-VNENTRY(12,R5),VNVALUE  Highest so far?
 0061A4 47D0 7038            061AE 38160  2                        IF    GT,BEGIN            Yes, save it...
 0061A8 D20B 6024 5024 00024 00024 38171  3                          MVC   VNVALUE,VNVALUE-VNENTRY(R5)
 0061AE                            38172  2                        END
                                   38176  2
 0061AE 4150 5150            00150 38177  2                        LA    R5,@R5+L'VPARM      Next arg
 0061B2 0600                       38178  2                        DECR  R0
 0061B4 47F0 7022            06198 38180  1                      END
 DROP   VNENTRY,R6                 38185                       END
                                   38194
 0061B8 18D8/9808 D004_            38195                       PEND
 DROP   *,R7
1FUNC     (FUNC2193) (12:45) (15MAR04) System Routines for Functions                                                        Page  145
0Current Usings:  (CP,R11) (CV,R12)
0Loc    Object Code    Addr1 Addr2  Stmt Lv Lineno    Source Statement           (Hibal 5, Asmedit 3.3)  HLASM R4.0  2004/03/15 12.45
+___    ______ ____    _____ _____  ____ __ ______    ______ _________
0                                  38216              ¿þþþþþþþþþþþþþþþþþþþþþþþþþþþþþþþþþþþþþþþþþþþþþþþþþþþþþþþþþþþþþþþþþþþþþÜ
                                   38217              Ÿ                                                                     Ÿ
                                   38218              Ÿ  MIN -- MIN Function.                                               Ÿ
                                   38219              Ÿ                                                                     Ÿ
                                   38220              Ÿ    MIN(number[,number]...)                                          Ÿ
                                   38221              Ÿ                                                                     Ÿ
                                                      ¾þþþþþþþþþþþþþþþþþþþþþþþþþþþþþþþþþþþþþþþþþþþþþþþþþþþþþþþþþþþþþþþþþþþþþ»
00061C6 50E0 D000/9008_      00000 38222              FNMIN    PROC  ,
 USING  *,R7
 0061E0 4120 737F/58E0_      0655F 38261                       SETARGS '19NNNNNNNNN'     1-9 args: numbers
 0061EA 4770 7042            06222 38267                       IF    Z,BEGIN
 USING  VNENTRY,R6                 38278  1                      WITH  (VNENTRY,R6)
 0061EE D74F 6000 6000 00000 00000 38291  1                      CLEAR VNENTRY
 0061F4 9202 6020      00020       38298  1                      SET   VNNUMB
 0061F8 D20B 6024 730C 00024 064EC 38304  1                      MVC   VNVALUE(12),=X'99999999999999999999999C'  Preset
                                   38305  1                      ¿þþþþþþþþþþþþþþþþþþþþþþþþþþþþþþþþþþþþþþþÜ
                                   38306  1                      Ÿ  Find lowest number and return that.  Ÿ
                                   38307  1                      ¾þþþþþþþþþþþþþþþþþþþþþþþþþþþþþþþþþþþþþþþ»
 0061FE 4151 0000            00000 38308  1                      LA    R5,ARG1(R1)
 006202 1200/47D0 7042             38309  1                      WHILE (R0,POS),BEGIN      Find lowest value...
 006208 F9BB 5024 6024 00024 00024 38325  2                        CP    VNVALUE-VNENTRY(12,R5),VNVALUE  Lowest so far?
 00620E 47B0 7038            06218 38326  2                        IF    LT,BEGIN            Yes, save it...
 006212 D20B 6024 5024 00024 00024 38337  3                          MVC   VNVALUE,VNVALUE-VNENTRY(R5)
 006218                            38338  2                        END
                                   38342  2
 006218 4150 5150            00150 38343  2                        LA    R5,@R5+L'VPARM      Next arg
 00621C 0600                       38344  2                        DECR  R0
 00621E 47F0 7022            06202 38346  1                      END
 DROP   VNENTRY,R6                 38351                       END
                                   38360
 006222 18D8/9808 D004_            38361                       PEND
 DROP   *,R7
1FUNC     (FUNC2193) (12:45) (15MAR04) System Routines for Functions                                                        Page  146
0Current Usings:  (CP,R11) (CV,R12)
0Loc    Object Code    Addr1 Addr2  Stmt Lv Lineno    Source Statement           (Hibal 5, Asmedit 3.3)  HLASM R4.0  2004/03/15 12.45
+___    ______ ____    _____ _____  ____ __ ______    ______ _________
0                                  38382              ¿þþþþþþþþþþþþþþþþþþþþþþþþþþþþþþþþþþþþþþþþþþþþþþþþþþþþþþþþþþþþþþþþþþþþþÜ
                                   38383              Ÿ                                                                     Ÿ
                                   38384              Ÿ                                                                     Ÿ
                                   38385              Ÿ  NCONVERT - CONVERT TO NUMBER, WITH INTEGER FORMAT                  Ÿ
                                   38386              Ÿ                                                                     Ÿ
                                   38387              Ÿ                                                                     Ÿ
                                   38388              Ÿ  SEE COMMENTS AT START OF THIS MODULE                               Ÿ
                                   38389              Ÿ                                                                     Ÿ
                                                      ¾þþþþþþþþþþþþþþþþþþþþþþþþþþþþþþþþþþþþþþþþþþþþþþþþþþþþþþþþþþþþþþþþþþþþþ»
0006230 50E0 D000/9008_      00000 38390              FNNCONV  PROC  ,
 USING  *,R7
 00624A 4120 7320/58E0_      0656A 38429                       SETARGS '11I'             1 ARG: NUMBER, INTEGER
                                   38435                       COMMENT                   THE SETARG ROUTINE ABOVE DOES THE
                                   38436                       COMMENT                   WORK, CONVERTING THE INPUT ARG TO
                                   38437                       COMMENT                   A INTEGER,,, WHICH WE RETURN
 006254 4770 7036            06280 38438                       IF    Z,BEGIN
 USING  VNENTRY,R5                 38449  1                      USING VNENTRY,R5
 006258 4151 0000            00000 38458  1                      LA    R5,ARG1(R1)
 00625C 5830 5024            00024 38459  1                      L     R3,VNVALUE          R3 - INTGER VALUE
 DROP   VNENTRY,R5                 38460  1                      DROP  R5
 006260 D74F 6000 6000_00000 00000 38467  1                      VRETURN INTEGER,(R3)
 USING  VNENTRY,R6
 DROP   VNENTRY,R6
 00627A 58E0 72B2/0DEE       064FC 38514  1                      VCALL ZAPINTR6            ** ZAP INTEGER (**OLD N0-N9)
 006280                            38518                       END
 006280 18D8/9808 D004_            38522                       PEND
 DROP   *,R7
1FUNC     (FUNC2193) (12:45) (15MAR04) System Routines for Functions                                                        Page  147
0Current Usings:  (CP,R11) (CV,R12)
0Loc    Object Code    Addr1 Addr2  Stmt Lv Lineno    Source Statement           (Hibal 5, Asmedit 3.3)  HLASM R4.0  2004/03/15 12.45
+___    ______ ____    _____ _____  ____ __ ______    ______ _________
0                                  38543              ¿þþþþþþþþþþþþþþþþþþþþþþþþþþþþþþþþþþþþþþþþþþþþþþþþþþþþþþþþþþþþþþþþþþþþþÜ
                                   38544              Ÿ                                                                     Ÿ
                                   38545              Ÿ                                                                     Ÿ
                                   38546              Ÿ  NDUMP - DUMP NUMBER AT MEMORY LOC, LEN                             Ÿ
                                   38547              Ÿ                                                                     Ÿ
                                   38548              Ÿ  BOTH ARGUMENTS ARE INTEGER NUMBERS, 2ND ARG IS OPTIONAL (DFT=4)    Ÿ
                                   38549              Ÿ                                                                     Ÿ
                                   38550              Ÿ                                                                     Ÿ
                                   38551              Ÿ  SEE COMMENTS AT START OF THIS MODULE                               Ÿ
                                   38552              Ÿ                                                                     Ÿ
                                                      ¾þþþþþþþþþþþþþþþþþþþþþþþþþþþþþþþþþþþþþþþþþþþþþþþþþþþþþþþþþþþþþþþþþþþþþ»
000628E 50E0 D000/9008_      00000 38553              FNNDUMP  PROC  ,
 USING  *,R7
 0062A8 4120 7258/58E0_      06500 38592                       SETARGS '12II'            1-2 ARGS: INT, INT
 0062B2 4770 70B0            06358 38598                       IF    Z,BEGIN
 USING  VNENTRY,R5                 38609  1                      USING VNENTRY,R5
 0062B6 4151 0000            00000 38618  1                      LA    R5,ARG1(R1)
 0062BA 5820 5024            00024 38619  1                      L     R2,VNVALUE          R2 - 1ST ARG = MEMORY LOCATION
 0062BE 9001 D000/41D0_      00000 38620  1                      XPUSH R0,R1
 0062C6 1812                       38623  1                      LR    R1,R2
 0062C8 4100 0004            00004 38624  1                      LA    R0,4                CHECK ADDRESS VALIDITY FOR READ
 0062CC 58E0 725C/0DEE       06504 38625  1                      VCALL CHKRADDR            ROUTINE IS IN DEBUG MODULE
 0062D2 4BD0 727A/9801_      06522 38629  1                      XPOP  R0,R1
 0062DA 12FF/4780 7046             38632  1                      IF    (R15,NZ),BEGIN
 0062E0 4120 0001/58E0_      00001 38646  2                        BADARG 1
 0062EA 47F0 70B0            06358 38657  2                        EXIT  FNNDUMP
 0062EE                            38660  1                      END
                                   38664  1                      COMMENT                   R3 - 2ND ARG = MEMORY LENGTH
                                   38665  1                      COMMENT
                                   38666  1                      COMMENT                   MEMORY LEN = 1,2,3 OR 4
                                   38667  1                      COMMENT                   1 RETURNS 1 BYTE NUM VAL AT ADDR
                                   38668  1                      COMMENT                   2 RETURNS 2 BYTE NUM VAL AT ADDR
                                   38669  1                      COMMENT                   ETC, ETC.
 0062EE 5900 721C/4770_      064C4 38670  1                      IF    (R0,EQ,1),BEGIN
 0062F6 4130 0004            00004 38687  2                        LA    R3,4                DEFAULT IS 4  (R0 IS ARG COUNT)
 0062FA                            38688  1                      END
 0062FA 5900 71F8/4770_      064A0 38692  1                      IF    (R0,EQ,2),BEGIN
 006302 4151 0150            00150 38709  2                        LA    R5,ARG2(R1)
 006306 5830 5024            00024 38710  2                        L     R3,VNVALUE          R3 - MEM LEN
 00630A 1233/4740 7070_            38711  2                        IF    ((R3,NEG),OR,(R3,GT,4)),BEGIN
 006318 4120 0002/58E0_      00002 38741  3                          BADARG 2
 006322 47F0 70B0            06358 38752  3                          EXIT  FNNDUMP
 006326                            38755  2                        END
 006326                            38759  1                      END
 006326 5822 0000            00000 38763  1                      L     R2,0(R2)            LOAD VALUE, AND SHIFT IT
 00632A 5930 7260/47B0_      06508 38764  1                      WHILE (R3,LT,4),BEGIN
 006332 8820 0008            00008 38783  2                        SRL   R2,8
 006336 4133 0001            00001 38784  2                        LA    R3,1(R3)
 00633A 47F0 7082            0632A 38785  1                      END
 00633E D74F 6000 6000_00000 00000 38790  1                      VRETURN INTEGER,(R2)
 USING  VNENTRY,R6
 DROP   VNENTRY,R6
 006358                            38837                       END
1FUNC     (FUNC2193) (12:45) (15MAR04) System Routines for Functions                                                        Page  148
0Current Usings:  (VNENTRY,R5) (CP,R11) (CV,R12)
0Loc    Object Code    Addr1 Addr2  Stmt Lv Lineno    Source Statement           (Hibal 5, Asmedit 3.3)  HLASM R4.0  2004/03/15 12.45
+___    ______ ____    _____ _____  ____ __ ______    ______ _________
0006358 18D8/9808 D004_            38841                       PEND
 DROP   *,R7
1FUNC     (FUNC2193) (12:45) (15MAR04) System Routines for Functions                                                        Page  149
0Current Usings:  (VNENTRY,R5) (CP,R11) (CV,R12)
0Loc    Object Code    Addr1 Addr2  Stmt Lv Lineno    Source Statement           (Hibal 5, Asmedit 3.3)  HLASM R4.0  2004/03/15 12.45
+___    ______ ____    _____ _____  ____ __ ______    ______ _________
0                                  38862              ¿þþþþþþþþþþþþþþþþþþþþþþþþþþþþþþþþþþþþþþþþþþþþþþþþþþþþþþþþþþþþþþþþþþþþþÜ
                                   38863              Ÿ                                                                     Ÿ
                                   38864              Ÿ  NHEX - CONVERT HEX STRING TO INTEGER FORMAT NUMBER                 Ÿ
                                   38865              Ÿ                                                                     Ÿ
                                   38866              Ÿ                                                                     Ÿ
                                   38867              Ÿ  SEE COMMENTS AT START OF THIS MODULE                               Ÿ
                                   38868              Ÿ                                                                     Ÿ
                                                      ¾þþþþþþþþþþþþþþþþþþþþþþþþþþþþþþþþþþþþþþþþþþþþþþþþþþþþþþþþþþþþþþþþþþþþþ»
0000000                00000 00030 38869              FNNHWA   RECORD BEGIN
                                   38877  1                      XSA   R0,R8
 000000 0000000000000000           38878  1 01-XSA   +           DC    (R8+2-(R0))A(0)
 000028                            38879  1           FNNHTEMP   DS    CL8
 000030                00030 00030 38880                       END
                                   38889              þþþþ
 006366 50E0 D000/9008_      00000 38890              FNNHEX   PROC  FNNHWA
 USING  *,R7
 USING  FNNHWA-(4+36),R8
                                   38940                       USING VNENTRY,R5
 006380 4120 71BA/58E0_      0653A 38942                       SETARGS '11S'             1 ARG: STRING
 00638A 4770 70A6            06426 38948                       IF    Z,BEGIN
 00638E 4151 0000            00000 38959  1                      LA    R5,ARG1(R1)
 006392 4800 5024            00024 38960  1                      LH    R0,VNSTRLEN
 006396 5900 718C/47D0_      0650C 38961  1                      IF    (R0,GT,8),BEGIN
 00639E 4110 71A4/4100_      06524 38978  2                        TSEG  'Arithmetic overflow.  '
 0063B0 4120 0001/58E0_      00001 38996  2                        BADARG 1
 0063BA 47F0 70A6            06426 39007  2                        EXIT  FNNHEX
 0063BE                            39010  1                      END
 0063BE 4110 5026            00026 39014  1                      LA    R1,VNSTRLOC
 0063C2 4120 8050            00028 39015  1                      LA    R2,FNNHTEMP
 0063C6 58E0 7190/0DEE       06510 39016  1                      VCALL MAKEHEX             CONVERT HEX STRING TO HEX
 0063CC 4780 7070            063F0 39020  1                      IF    NZ,BEGIN
 0063D0 4110 71ED/4100_      0656D 39031  2                        TSEG  'Invalid hex string.  '
 0063E2 4120 0001/58E0_      00001 39049  2                        BADARG 1
 0063EC 47F0 70A6            06426 39060  2                        EXIT  FNNHEX
 0063F0                            39063  1                      END
 0063F0 5810 8050            00028 39067  1                      L     R1,FNNHTEMP         R1 - HEX VALUE
 0063F4 5900 7188/47B0_      06508 39068  1                      WHILE (R0,LT,4),BEGIN     PROPERLY SHIFTED
 0063FC 8810 0008            00008 39087  2                        SRL   R1,8
 006400 5A00 7194            06514 39088  2                        A     R0,=F'1'
 006404 47F0 7074            063F4 39089  1                      END
 006408 D74F 6000 6000_00000 00000 39094  1                      VRETURN INTEGER,(R1) ,    RETURN INTEGER
 USING  VNENTRY,R6
 DROP   VNENTRY,R6
 006420 58E0 717C/0DEE       064FC 39140  1                      VCALL ZAPINTR6            ** ZAP INTEGER (**OLD N0-N9)
 006426                            39144                       END
 006426 18D8/9808 D004_            39148                       PEND
 DROP   FNNHWA-(4+36),R8
 DROP   *,R7
 DROP   VNENTRY,R5                 39173                       DROP  R5
1FUNC     (FUNC2193) (12:45) (15MAR04) System Routines for Functions                                                        Page  150
0Current Usings:  (CP,R11) (CV,R12)
0Loc    Object Code    Addr1 Addr2  Stmt Lv Lineno    Source Statement           (Hibal 5, Asmedit 3.3)  HLASM R4.0  2004/03/15 12.45
+___    ______ ____    _____ _____  ____ __ ______    ______ _________
0                                  39181              ¿þþþþþþþþþþþþþþþþþþþþþþþþþþþþþþþþþþþþþþþþþþþþþþþþþþþþþþþþþþþþþþþþþþþþþÜ
                                   39182              Ÿ                                                                     Ÿ
                                   39183              Ÿ                                                                     Ÿ
                                   39184              Ÿ  NOPARITY                                                           Ÿ
                                   39185              Ÿ                                                                     Ÿ
                                   39186              Ÿ  SEE COMMENTS AT START OF THIS MODULE                               Ÿ
                                   39187              Ÿ                                                                     Ÿ
                                                      ¾þþþþþþþþþþþþþþþþþþþþþþþþþþþþþþþþþþþþþþþþþþþþþþþþþþþþþþþþþþþþþþþþþþþþþ»
0006434 50E0 D000/9008_      00000 39188              FNNOPAR  PROC  ,
 USING  *,R7
 00644E 4120 70EC/58E0_      0653A 39227                       SETARGS '11S'             1 ARG: STRING
 006458 4770 703C            0648A 39233                       IF    Z,BEGIN
 USING  VNENTRY,R5                 39244  1                      USING VNENTRY,R5
 00645C 4151 0000            00000 39253  1                      LA    R5,ARG1(R1)
 006460 4110 5026            00026 39254  1                      LA    R1,VNSTRLOC         R1 - STRING LOC
 006464 4820 5024            00024 39255  1                      LH    R2,VNSTRLEN         R2 - STRING LEN
 DROP   VNENTRY,R5                 39256  1                      DROP  R5
 USING  VNENTRY,R6                 39263  1                      USING VNENTRY,R6
 006468 D74F 6000 6000 00000 00000 39272  1                      CLEAR VNENTRY
 00646E 9201 6020      00020       39279  1                      SET   VNSTRING
 006472 4020 6024            00024 39285  1                      STH   R2,VNSTRLEN
 006476 1222/47D0 703C             39286  1                      IF    (R2,POS),BEGIN
 00647C 0620/4420 7152_            39300  2                        DEX   R2,' MVC VNSTRLOC(0),0(R1) '  MOVE STRING TO RET AREA
 006482 5840 C8A4            008A4 39319  2                        L     R4,CVNPRTBL
 006486 4420 7158/DC00_      065A6 39320  2                        EX    R2,' TR VNSTRLOC(0),0(R4) '   CONVERT IT
 00648A                            39336  1                      END
 DROP   VNENTRY,R6                 39340  1                      DROP  R6
 00648A                            39347                       END
 00648A 18D8/9808 D004_            39351                       PEND
 DROP   *,R7
                                   39371
                                   39372                       QLTORG
1FUNC     (FUNC2193) (12:45) (15MAR04) System Routines for Functions                                                        Page  151
0Current Usings:  (CP,R11) (CV,R12)
0Loc    Object Code    Addr1 Addr2  Stmt Lv Lineno    Source Statement           (Hibal 5, Asmedit 3.3)  HLASM R4.0  2004/03/15 12.45
+___    ______ ____    _____ _____  ____ __ ______    ______ _________
0                                  39418              ¿þþþþþþþþþþþþþþþþþþþþþþþþþþþþþþþþþþþþþþþþþþþþþþþþþþþþþþþþþþþþþþþþþþþþþÜ
                                   39419              Ÿ                                                                     Ÿ
                                   39420              Ÿ  ORVYL_CPU_ function.                                               Ÿ
                                   39421              Ÿ                                                                     Ÿ
                                                      ¾þþþþþþþþþþþþþþþþþþþþþþþþþþþþþþþþþþþþþþþþþþþþþþþþþþþþþþþþþþþþþþþþþþþþþ»
00065AC 50E0 D000/9008_      00000 39422              FNGORVC  PROC  ,
 USING  *,R7
                                   39461
 0065C6 4120 713C/58E0_      06702 39462                       SETARGS '11S'             1 arg: str
 0065D0 4770 703E            06604 39468                       IF    Z,BEGIN
 0065D4 4151 0000            00000 39479  1                      LA    R5,ARG1(R1)
 USING  VNENTRY,R5                 39480  1                      WITH  (VNENTRY,R5)
 0065D8 4110 5026/4800_      00026 39493  1                      SETMSG VNSTRLOC,LH:VNSTRLEN  Component name specified
 0065E0 41F0 70FA            066C0 39506  1                      LA    R15,=CL16'ORVYL_CPU'
 0065E4 58E0 711E/0DEE       066E4 39507  1                      VCALL GETCVAR
 0065EA D74F 6000 6000_00000 00000 39511  1                      VRETURN LINENO,(R15)      Return ORVYL cpu in .001 sec
 USING  VNENTRY,R6
 DROP   VNENTRY,R6
 DROP   VNENTRY,R5                 39558                       END
                                   39567
 006604 18D8/9808 D004_            39568                       PEND
 DROP   *,R7
1FUNC     (FUNC2193) (12:45) (15MAR04) System Routines for Functions                                                        Page  152
0Current Usings:  (CP,R11) (CV,R12)
0Loc    Object Code    Addr1 Addr2  Stmt Lv Lineno    Source Statement           (Hibal 5, Asmedit 3.3)  HLASM R4.0  2004/03/15 12.45
+___    ______ ____    _____ _____  ____ __ ______    ______ _________
0                                  39589              ¿þþþþþþþþþþþþþþþþþþþþþþþþþþþþþþþþþþþþþþþþþþþþþþþþþþþþþþþþþþþþþþþþþþþþþÜ
                                   39590              Ÿ                                                                     Ÿ
                                   39591              Ÿ  ORVYL_IO_ function.                                                Ÿ
                                   39592              Ÿ                                                                     Ÿ
                                                      ¾þþþþþþþþþþþþþþþþþþþþþþþþþþþþþþþþþþþþþþþþþþþþþþþþþþþþþþþþþþþþþþþþþþþþþ»
0006612 50E0 D000/9008_      00000 39593              FNGORVI  PROC  ,
 USING  *,R7
                                   39632
 00662C 4120 70D6/58E0_      06702 39633                       SETARGS '11S'             1 arg: str
 006636 4770 703E            0666A 39639                       IF    Z,BEGIN
 00663A 4151 0000            00000 39650  1                      LA    R5,ARG1(R1)
 USING  VNENTRY,R5                 39651  1                      WITH  (VNENTRY,R5)
 00663E 4110 5026/4800_      00026 39664  1                      SETMSG VNSTRLOC,LH:VNSTRLEN  Component name specified
 006646 41F0 70A4            066D0 39677  1                      LA    R15,=CL16'ORVYL_IO'
 00664A 58E0 70B8/0DEE       066E4 39678  1                      VCALL GETCVAR
 006650 D74F 6000 6000_00000 00000 39682  1                      VRETURN INTEGER,(R15)     Return ORVYL I/Os
 USING  VNENTRY,R6
 DROP   VNENTRY,R6
 DROP   VNENTRY,R5                 39729                       END
                                   39738
 00666A 18D8/9808 D004_            39739                       PEND
 DROP   *,R7
1FUNC     (FUNC2193) (12:45) (15MAR04) System Routines for Functions                                                        Page  153
0Current Usings:  (CP,R11) (CV,R12)
0Loc    Object Code    Addr1 Addr2  Stmt Lv Lineno    Source Statement           (Hibal 5, Asmedit 3.3)  HLASM R4.0  2004/03/15 12.45
+___    ______ ____    _____ _____  ____ __ ______    ______ _________
0                                  39760              ¿þþþþþþþþþþþþþþþþþþþþþþþþþþþþþþþþþþþþþþþþþþþþþþþþþþþþþþþþþþþþþþþþþþþþþÜ
                                   39761              Ÿ                                                                     Ÿ
                                   39762              Ÿ  OVERLAY Function.                                                  Ÿ
                                   39763              Ÿ                                                                     Ÿ
                                   39764              Ÿ    OVERLAY(??????????)                                              Ÿ
                                   39765              Ÿ                                                                     Ÿ
                                                      ¾þþþþþþþþþþþþþþþþþþþþþþþþþþþþþþþþþþþþþþþþþþþþþþþþþþþþþþþþþþþþþþþþþþþþþ»
0006678 50E0 D000/9008_      00000 39766              FNOLAY   PROC  ,
 USING  *,R7
 006692 4110 7066/4100_      066F8 39805                       TSEG  'Not Yet!  '
 0066A4 4120 0001/58E0_      00001 39823                       BADARG 1
 0066AE 18D8/9808 D004_            39834                       PEND
 DROP   *,R7
                                   39854
                                   39855                       QLTORG
1FUNC     (FUNC2193) (12:45) (15MAR04) System Routines for Functions                                                        Page  154
0Current Usings:  (CP,R11) (CV,R12)
0Loc    Object Code    Addr1 Addr2  Stmt Lv Lineno    Source Statement           (Hibal 5, Asmedit 3.3)  HLASM R4.0  2004/03/15 12.45
+___    ______ ____    _____ _____  ____ __ ______    ______ _________
0                                  39878              ¿þþþþþþþþþþþþþþþþþþþþþþþþþþþþþþþþþþþþþþþþþþþþþþþþþþþþþþþþþþþþþþþþþþþþþÜ
                                   39879              Ÿ                                                                     Ÿ
                                   39880              Ÿ                                                                     Ÿ
                                   39881              Ÿ  PARITY                                                             Ÿ
                                   39882              Ÿ                                                                     Ÿ
                                   39883              Ÿ  SEE COMMENTS AT START OF THIS MODULE                               Ÿ
                                   39884              Ÿ                                                                     Ÿ
                                                      ¾þþþþþþþþþþþþþþþþþþþþþþþþþþþþþþþþþþþþþþþþþþþþþþþþþþþþþþþþþþþþþþþþþþþþþ»
0006706 50E0 D000/9008_      00000 39885              FNPARITY PROC  ,
 USING  *,R7
 006720 4120 7F4E/58E0_      0766E 39924                       SETARGS '11S'             1 ARG: STRING
 00672A 4770 703C            0675C 39930                       IF    Z,BEGIN
 USING  VNENTRY,R5                 39941  1                      USING VNENTRY,R5
 00672E 4151 0000            00000 39950  1                      LA    R5,ARG1(R1)
 006732 4110 5026            00026 39951  1                      LA    R1,VNSTRLOC         R1 - STRING LOC
 006736 4820 5024            00024 39952  1                      LH    R2,VNSTRLEN         R2 - STRING LEN
 DROP   VNENTRY,R5                 39953  1                      DROP  R5
 USING  VNENTRY,R6                 39960  1                      USING VNENTRY,R6
 00673A D74F 6000 6000 00000 00000 39969  1                      CLEAR VNENTRY
 006740 9201 6020      00020       39976  1                      SET   VNSTRING
 006744 4020 6024            00024 39982  1                      STH   R2,VNSTRLEN
 006748 1222/47D0 703C             39983  1                      IF    (R2,POS),BEGIN
 00674E 0620/4420 7F92_            39997  2                        DEX   R2,' MVC VNSTRLOC(0),0(R1) '  MOVE STRING TO RET AREA
 006754 5840 C8A0            008A0 40016  2                        L     R4,CVPARTBL
 006758 4420 7F98/DC00_      076B8 40017  2                        EX    R2,' TR VNSTRLOC(0),0(R4) '   CONVERT IT
 00675C                            40033  1                      END
 DROP   VNENTRY,R6                 40037  1                      DROP  R6
 00675C                            40044                       END
 00675C 18D8/9808 D004_            40048                       PEND
 DROP   *,R7
1FUNC     (FUNC2193) (12:45) (15MAR04) System Routines for Functions                                                        Page  155
0Current Usings:  (CP,R11) (CV,R12)
0Loc    Object Code    Addr1 Addr2  Stmt Lv Lineno    Source Statement           (Hibal 5, Asmedit 3.3)  HLASM R4.0  2004/03/15 12.45
+___    ______ ____    _____ _____  ____ __ ______    ______ _________
0                                  40069              ¿þþþþþþþþþþþþþþþþþþþþþþþþþþþþþþþþþþþþþþþþþþþþþþþþþþþþþþþþþþþþþþþþþþþþþÜ
                                   40070              Ÿ                                                                     Ÿ
                                   40071              Ÿ  POS Function.                                                      Ÿ
                                   40072              Ÿ                                                                     Ÿ
                                   40073              Ÿ    POS(??????????)                                                  Ÿ
                                   40074              Ÿ                                                                     Ÿ
                                                      ¾þþþþþþþþþþþþþþþþþþþþþþþþþþþþþþþþþþþþþþþþþþþþþþþþþþþþþþþþþþþþþþþþþþþþþ»
000676A 50E0 D000/9008_      00000 40075              FNPOS    PROC  ,
 USING  *,R7
 006784 4110 7EAC/4100_      07630 40114                       TSEG  'Not Yet!  '
 006796 4120 0001/58E0_      00001 40132                       BADARG 1
 0067A0 18D8/9808 D004_            40143                       PEND
 DROP   *,R7
1FUNC     (FUNC2193) (12:45) (15MAR04) System Routines for Functions                                                        Page  156
0Current Usings:  (CP,R11) (CV,R12)
0Loc    Object Code    Addr1 Addr2  Stmt Lv Lineno    Source Statement           (Hibal 5, Asmedit 3.3)  HLASM R4.0  2004/03/15 12.45
+___    ______ ____    _____ _____  ____ __ ______    ______ _________
0                                  40164              ¿þþþþþþþþþþþþþþþþþþþþþþþþþþþþþþþþþþþþþþþþþþþþþþþþþþþþþþþþþþþþþþþþþþþþþÜ
                                   40165              Ÿ                                                                     Ÿ
                                   40166              Ÿ  QSTATE Function.                                                   Ÿ
                                   40167              Ÿ                                                                     Ÿ
                                   40168              Ÿ  QSTATE(server-number) -- returns state of query server.            Ÿ
                                   40169              Ÿ                                                                     Ÿ
                                                      ¾þþþþþþþþþþþþþþþþþþþþþþþþþþþþþþþþþþþþþþþþþþþþþþþþþþþþþþþþþþþþþþþþþþþþþ»
00067AE 50E0 D000/9008_      00000 40170              FNQSTATE PROC
 USING  *,R7
 0067C8 4120 7EA9/58E0_      07671 40209                       SETARGS '11I'             1 arg: integer
 0067D2 4770 7038            06800 40215                       IF    Z,BEGIN             OK...
 0067D6 4151 0000            00000 40226  1                      LA    R5,ARG1(R1)
 USING  VNENTRY,R5                 40227  1                      WITH  (VNENTRY,R5)
 0067DA 58F0 5024            00024 40240  1                      L     R15,VNVALUE         Get server number
 0067DE 58E0 7DF4/0DEE       075BC 40241  1                      VCALL GETQSTAT            Get server's state
 0067E4 D74F 6000 6000_00000 00000 40245  1                      VRETURN STRING,(R1),(R0)
 USING  VNENTRY,R6
 DROP   VNENTRY,R6
 DROP   VNENTRY,R5                 40329                       END
 006800 18D8/9808 D004_            40338                       PEND
 DROP   *,R7
1FUNC     (FUNC2193) (12:45) (15MAR04) System Routines for Functions                                                        Page  157
0Current Usings:  (CP,R11) (CV,R12)
0Loc    Object Code    Addr1 Addr2  Stmt Lv Lineno    Source Statement           (Hibal 5, Asmedit 3.3)  HLASM R4.0  2004/03/15 12.45
+___    ______ ____    _____ _____  ____ __ ______    ______ _________
0                                  40359              ¿þþþþþþþþþþþþþþþþþþþþþþþþþþþþþþþþþþþþþþþþþþþþþþþþþþþþþþþþþþþþþþþþþþþþþÜ
                                   40360              Ÿ                                                                     Ÿ
                                   40361              Ÿ  QUERY Function.                                                    Ÿ
                                   40362              Ÿ                                                                     Ÿ
                                   40363              Ÿ  QUERY(server, command) -- returns the first row of results or the  Ÿ
                                   40364              Ÿ                            null string if not available.            Ÿ
                                   40365              Ÿ                                                                     Ÿ
                                                      ¾þþþþþþþþþþþþþþþþþþþþþþþþþþþþþþþþþþþþþþþþþþþþþþþþþþþþþþþþþþþþþþþþþþþþþ»
0000000                00000 00100 40366              QFWA     RECORD BEGIN
 000000                            40374  1           QFRETSTR   DS    CL(MAXSTRLN)        Returned variable buffer
 000100                00100 00100 40375                       END
                                   40384              þþþþ
 00680E 50E0 D000/9008_      00000 40385              FNQUERY  PROC  QFWA
 USING  *,R7
 USING  QFWA-(4+36),R8
                                   40435
 006828 4120 7D98/58E0_      075C0 40436                       SETARGS '22SS'            2 args: string, string
 006832 4770 708E            068B6 40442                       IF    Z,BEGIN             OK...
                                   40453  1
 USING  VNENTRY,R5                 40454  1                      WITH  (VNENTRY,R5),BEGIN
 006836 4151 0000            00000 40468  2                        LA    R5,ARG1(R1)
 00683A 4130 5026            00026 40469  2                        LA    R3,VNSTRLOC         R3,R2 - 1st string loc,len
 00683E 4820 5024            00024 40470  2                        LH    R2,VNSTRLEN
                                   40471  2
 006842 4151 0150            00150 40472  2                        LA    R5,ARG2(R1)
 006846 4110 5026            00026 40473  2                        LA    R1,VNSTRLOC         R1,R0 - 2nd string loc,len
 00684A 4800 5024            00024 40474  2                        LH    R0,VNSTRLEN
 00684E 58E0 7D9C/0DEE       075C4 40475  2                        VCALL LRTRIM
 DROP   VNENTRY,R5                 40479  1                      END
                                   40487  1
 006854 4150 8028            00000 40488  1                      LA    R5,QFRETSTR         R5,R4 - Response buffer
 006858 4140 0100            00100 40489  1                      LA    R4,L'QFRETSTR
                                   40490  1                      ¿þþþþþþþþþþþþþþþþþþþþþþþþþþþþþþþþþþþþþþþþþþþþþþþþþþþþþþþþþÜ
                                   40491  1                      Ÿ  Send query to server and get the first response line.  Ÿ
                                   40492  1                      ¾þþþþþþþþþþþþþþþþþþþþþþþþþþþþþþþþþþþþþþþþþþþþþþþþþþþþþþþþþ»
 00685C 58E0 7DA0/0DEE       075C8 40493  1                      VCALL QUERYFC             Query function call
 006862 4770 7056            0687E 40497  1                      IF    Z,BEGIN             Normal completion...
 006866 1200/47D0 7052_            40508  2                        IF    ((R0,POS),AND,(@R1,EQ,X'05')),'LA R1,@R1+1; DECR R0'
 00687A 1B22/1B33                  40545  2                        CLEAR R2,R3               No error message
 00687E                            40551  1                      END
 00687E 705A/47F0 7062_0687E 06864 40555  1                      ELSE  'LR R2,R0; LR R3,R1; CLEAR R0,R1'  Error completion
                                   40579  1                      ¿þþþþþþþþþþþþþþþþþþþþþþþþþþþþþþþþþþþþþþþþþþþþþþþþþþÜ
                                   40580  1                      Ÿ  Return first response line (or null if error).  Ÿ
                                   40581  1                      ¾þþþþþþþþþþþþþþþþþþþþþþþþþþþþþþþþþþþþþþþþþþþþþþþþþþ»
 00688A D74F 6000 6000_00000 00000 40582  1                      VRETURN STRING,(R1),(R0)  Return line of data
 USING  VNENTRY,R6
 DROP   VNENTRY,R6
                                   40666  1                      ¿þþþþþþþþþþþþþþþþþþþþþþþþþþþþþþþþþþþþþþþþþþþþþþþþþþþþþþþþþþþþþÜ
                                   40667  1                      Ÿ  Save any error information in the QUERY_ERRINFO variable.  Ÿ
                                   40668  1                      ¾þþþþþþþþþþþþþþþþþþþþþþþþþþþþþþþþþþþþþþþþþþþþþþþþþþþþþþþþþþþþþ»
 0068A6 1813/1802                  40669  1                      SETMSG (R3),(R2)           Error info (or null string)
 0068AA 4120 7D70            07598 40681  1                      LA    R2,=CL16'SYS.QUERY_ERRINFO'
 0068AE 58E0 7DA4/0DEE       075CC 40682  1                      VCALL SAVEDATA            Set variable
1FUNC     (FUNC2193) (12:45) (15MAR04) System Routines for Functions                                                        Page  158
0Current Usings:  (*,R7) (QFWA-(4+36),R8) (CP,R11) (CV,R12)
0Loc    Object Code    Addr1 Addr2  Stmt Lv Lineno    Source Statement           (Hibal 5, Asmedit 3.3)  HLASM R4.0  2004/03/15 12.45
+___    ______ ____    _____ _____  ____ __ ______    ______ _________
0                                  40686  1
 0068B4 1BFF                       40687  1                      CLEAR R15                 A-ok
 0068B6                            40691                       END
                                   40695
 0068B6 18D8/9808 D004_            40696                       PEND
 DROP   QFWA-(4+36),R8
 DROP   *,R7
                                   40721
                                   40722                       SEGDEF DUMMY              (Neatness)
1FUNC     (FUNC2193) (12:45) (15MAR04) System Routines for Functions                                                        Page  159
0Current Usings:  (CP,R11) (CV,R12)
0Loc    Object Code    Addr1 Addr2  Stmt Lv Lineno    Source Statement           (Hibal 5, Asmedit 3.3)  HLASM R4.0  2004/03/15 12.45
+___    ______ ____    _____ _____  ____ __ ______    ______ _________
0000000                00000 0004C 40724              RECWA    RECORD BEGIN
 000000 00                         40732  1           RECFLAG    FLAG
 RECFLAG.RECFPUB   80 ONES         40736  1                      FLAG  RECFPUB             - Public record group wanted
                                   40741  1
 000004                            40742  1           RECNARGS   DS    F                   Number of arguments given
 000008                            40743  1           RECDRG     DS    A                   Record group ptr
                                   40744  1
 00000C                            40745  1           RECKEY     DS    CL(CPDATANL)        Maximum key length
                                   40746  1           RECKPFX    EQU   RECKEY,1,C'X'               .our prefix
                                   40747  1           RECKDATA   EQU   RECKEY+1,L'RECKEY-1,C'X'    .real key
                                   40748  1
 00002C                            40749  1           RECKEY2    DS    CL(CPDATANL)        Maximum key length
                                   40750  1           RECKPFX2   EQU   RECKEY2,1,C'X'              .our prefix
                                   40751  1           RECKDAT2   EQU   RECKEY2+1,L'RECKEY2-1,C'X'  .real key
                                   40752  1
 00004C                0004C 0004C 40753                       END
-                                  40763              ¿þþþþþþþþþþþþþþþþþþþþþþþþþþþþþþþþþþþþþþþþþþþþþþþþþþþþþþþþþþþþþþþþþþþþþÜ
                                   40764              Ÿ                                                                     Ÿ
                                   40765              Ÿ  REC_CLOSE -- REC_CLOSE Function.                                   Ÿ
                                   40766              Ÿ                                                                     Ÿ
                                   40767              Ÿ    REC_CLOSE(setno)                                                 Ÿ
                                   40768              Ÿ                                                                     Ÿ
                                                      ¾þþþþþþþþþþþþþþþþþþþþþþþþþþþþþþþþþþþþþþþþþþþþþþþþþþþþþþþþþþþþþþþþþþþþþ»
00068C4 50E0 D000/9008_      00000 40769              FNRECCLS PROC  RECWA
 USING  *,R7
 USING  RECWA-(4+36),R8
 0068DE D74B 8028 8028 00000 00000 40819                       CLEAR RECWA
                                   40826
 0068E4 4120 7D93/58E0_      07671 40827                       SETARGS '11I'             1 arg: number
 0068EE 4770 708E            0696C 40833                       IF    Z,BEGIN
 USING  VNENTRY,R5                 40844  1                      WITH  (VNENTRY,R5)
 0068F2 4151 0000            00000 40857  1                      LA    R5,ARG1(R1)
 0068F6 5830 5024            00024 40858  1                      L     R3,VNVALUE          Record set number
 0068FA 1233/4770 7030             40859  1                      IF    (R3,Z),BEGIN
 006900 4120 0001/58E0_      00001 40873  2                        BADARG 1
 00690A 47F0 708E            0696C 40884  2                        EXIT  FNRECCLS
 00690E                            40887  1                      END
                                   40891  1
 00690E 41F0 B504            00504 40892  1                      LA    R15,CPDATA
 006912 1233/47B0 7040_            40893  1                      IF    (R3,NEG),'LCR R3,R3; LA R15,CVDATA'
 00691E 50F0 8030            00008 40914  1                      ST    R15,RECDRG
                                   40915  1
 006922 1803                       40916  1                      LR    R0,R3
 006924 58F0 8030            00008 40917  1                      L     R15,RECDRG          Data record group
 006928 58E0 7CF2/0DEE       075D0 40918  1                      VCALL XSETSET
                                   40922  1
 00692E 58F0 8030            00008 40923  1                      L     R15,RECDRG          Data record group
 006932 58E0 7CF6/0DEE       075D4 40924  1                      ACALL RECOPCHK            Make sure record set is open
 006938 4770 7072            06950 40928  1                      IF    Z,BEGIN
 00693C 1803                       40939  2                        LR    R0,R3
 00693E 58F0 8030            00008 40940  2                        L     R15,RECDRG          Data record group
1FUNC     (FUNC2193) (12:45) (15MAR04) System Routines for Functions                                                        Page  160
0Current Usings:  (VNENTRY,R5) (*,R7) (RECWA-(4+36),R8) (CP,R11) (CV,R12)
0Loc    Object Code    Addr1 Addr2  Stmt Lv Lineno    Source Statement           (Hibal 5, Asmedit 3.3)  HLASM R4.0  2004/03/15 12.45
+___    ______ ____    _____ _____  ____ __ ______    ______ _________
0006942 58E0 7CFA/0DEE       075D8 40941  2                        VCALL XDELSET             Delete all entries in this set
 006948 4110 7D5C/4100_      0763A 40945  2                        SETMSG 'OK'
 006950                            40949  1                      END
                                   40953  1
 006950 D74F 6000 6000_00000 00000 40954  1                      VRETURN STRING,(R1),(R0)  A-ok
 USING  VNENTRY,R6
 DROP   VNENTRY,R6
 DROP   VNENTRY,R5                 41038                       END
 00696C 18D8/9808 D004_            41047                       PEND
 DROP   RECWA-(4+36),R8
 DROP   *,R7
1FUNC     (FUNC2193) (12:45) (15MAR04) System Routines for Functions                                                        Page  161
0Current Usings:  (CP,R11) (CV,R12)
0Loc    Object Code    Addr1 Addr2  Stmt Lv Lineno    Source Statement           (Hibal 5, Asmedit 3.3)  HLASM R4.0  2004/03/15 12.45
+___    ______ ____    _____ _____  ____ __ ______    ______ _________
0                                  41073              ¿þþþþþþþþþþþþþþþþþþþþþþþþþþþþþþþþþþþþþþþþþþþþþþþþþþþþþþþþþþþþþþþþþþþþþÜ
                                   41074              Ÿ                                                                     Ÿ
                                   41075              Ÿ  REC_COUNT -- REC_COUNT Function.                                   Ÿ
                                   41076              Ÿ                                                                     Ÿ
                                   41077              Ÿ    REC_COUNT(setno, [startkey], [endkey])                           Ÿ
                                   41078              Ÿ                                                                     Ÿ
                                                      ¾þþþþþþþþþþþþþþþþþþþþþþþþþþþþþþþþþþþþþþþþþþþþþþþþþþþþþþþþþþþþþþþþþþþþþ»
000697A 50E0 D000/9008_      00000 41079              FNRECCNT PROC  RECWA
 USING  *,R7
 USING  RECWA-(4+36),R8
 006994 D74B 8028 8028 00000 00000 41129                       CLEAR RECWA
                                   41136
 00699A 4120 7CE0/58E0_      07674 41137                       SETARGS '13ISS'           1-3 args: num, str, str
 0069A4 4770 712E            06AC2 41143                       IF    Z,BEGIN             OK...
 0069A8 5000 802C            00004 41154  1                      ST    R0,RECNARGS         Save number of args
 0069AC 1841                       41155  1                      LR    R4,R1
 USING  VNENTRY,R5                 41156  1                      WITH  (VNENTRY,R5)
                                   41169  1                      ¿þþþþþþþþþþþþþþþþþþþþþþþþþþþþþÜ
                                   41170  1                      Ÿ  Arg 1: record set number.  Ÿ
                                   41171  1                      ¾þþþþþþþþþþþþþþþþþþþþþþþþþþþþþ»
 0069AE 4154 0000            00000 41172  1                      LA    R5,ARG1(R4)
 0069B2 5800 5024            00024 41173  1                      L     R0,VNVALUE          Record set number
 0069B6 1200/4770 7036             41174  1                      IF    (R0,Z),BEGIN
 0069BC 4120 0001/58E0_      00001 41188  2                        BADARG 1
 0069C6 47F0 712E            06AC2 41199  2                        EXIT  FNRECCNT
 0069CA                            41202  1                      END
                                   41206  1
 0069CA 41F0 B504            00504 41207  1                      LA    R15,CPDATA
 0069CE 1200/47B0 7046_            41208  1                      IF    (R0,NEG),'LCR R0,R0; LA R15,CVDATA'
 0069DA 50F0 8030            00008 41229  1                      ST    R15,RECDRG
                                   41230  1
 0069DE 58F0 8030            00008 41231  1                      L     R15,RECDRG          Data record group
 0069E2 58E0 7C3C/0DEE       075D0 41232  1                      VCALL XSETSET             Specified record set
                                   41236  1                      ¿þþþþþþþþþþþþþþþþþþþþþþþþÜ
                                   41237  1                      Ÿ  Arg 2: starting key.  Ÿ
                                   41238  1                      ¾þþþþþþþþþþþþþþþþþþþþþþþþ»
 0069E8 9240 8034      0000C       41239  1                      MVI   RECKPFX,C' '
 0069EC D71E 8035 8035 0000D 0000D 41240  1                      CLEAR RECKDATA            First possible key
                                   41247  1
 0069F2 D503 7C48 802C_075DC 00004 41248  1                      IF    (RECNARGS,GE,2),BEGIN
 0069FC 4154 0150            00150 41266  2                        LA    R5,ARG2(R4)
 006A00 48F0 5024            00024 41267  2                        LH    R15,VNSTRLEN        Key data string length
 006A04 59F0 7C4C/47D0_      075E0 41268  2                        IF    (R15,GT,L'RECKDATA),BEGIN  Too long...
 006A0C 4110 7CA8/4100_      0763C 41285  3                          TSEG  'Key data string is too long.  '
 006A1E 4120 0002/58E0_      00002 41303  3                          BADARG 2
 006A28 47F0 712E            06AC2 41314  3                          EXIT  FNRECCNT
 006A2C                            41317  2                        END
 006A2C D21E 8035 C4D8 0000D 004D8 41321  2                        MVC   RECKDATA,CVBLANKS   Pre-blank
 006A32 06F0/12FF/4740_            41322  2                        MOVE  R15,RECKDATA,VNSTRLOC  Move in key data
 006A3E                            41360  1                      END
1FUNC     (FUNC2193) (12:45) (15MAR04) System Routines for Functions                                                        Page  162
0Current Usings:  (VNENTRY,R5) (*,R7) (RECWA-(4+36),R8) (CP,R11) (CV,R12)
0Loc    Object Code    Addr1 Addr2  Stmt Lv Lineno    Source Statement           (Hibal 5, Asmedit 3.3)  HLASM R4.0  2004/03/15 12.45
+___    ______ ____    _____ _____  ____ __ ______    ______ _________
0                                  41364  1                      ¿þþþþþþþþþþþþþþþþþþþþþþÜ
                                   41365  1                      Ÿ  Arg 3: ending key.  Ÿ
                                   41366  1                      ¾þþþþþþþþþþþþþþþþþþþþþþ»
 006A3E 9240 8054      0002C       41367  1                      MVI   RECKPFX2,C' '
 006A42 D21E 8055 7CE5 0002D 07679 41368  1                      MVC   RECKDAT2,=(L'RECKDAT2)X'FF'  Last possible key
                                   41369  1
 006A48 D503 7C50 802C_075E4 00004 41370  1                      IF    (RECNARGS,GE,3),BEGIN
 006A52 4154 02A0            002A0 41388  2                        LA    R5,ARG3(R4)
 006A56 48F0 5024            00024 41389  2                        LH    R15,VNSTRLEN        Key data string length
 006A5A 59F0 7C54/47D0_      075E8 41390  2                        IF    (R15,GT,L'RECKDAT2),BEGIN  Too long...
 006A62 4110 7CA8/4100_      0763C 41407  3                          TSEG  'Key data string is too long.  '
 006A74 4120 0003/58E0_      00003 41425  3                          BADARG 3
 006A7E 47F0 712E            06AC2 41436  3                          EXIT  FNRECCNT
 006A82                            41439  2                        END
 006A82 D21E 8055 C4D8 0002D 004D8 41443  2                        MVC   RECKDAT2,CVBLANKS   Pre-blank
 006A88 06F0/12FF/4740_            41444  2                        MOVE  R15,RECKDAT2,VNSTRLOC  Move in key data
 006A94                            41482  1                      END
                                   41486  1                       ¿þþþþþþþþþþþþþþþþþþþþþþþþþþþþþþþþþþþþþþþþþþþþþÜ
                                   41487  1                       Ÿ  Count the number of records in the range.  Ÿ
                                   41488  1                       ¾þþþþþþþþþþþþþþþþþþþþþþþþþþþþþþþþþþþþþþþþþþþþþ»
 006A94 4100 8034            0000C 41489  1                      LA    R0,RECKEY           First key
 006A98 4110 8054            0002C 41490  1                      LA    R1,RECKEY2          Last key
 006A9C 1B22                       41491  1                      CLEAR R2                  (Not crossing rec set boundry)
 006A9E 58F0 8030            00008 41495  1                      L     R15,RECDRG          Data record group
 006AA2 58E0 7C58/0DEE       075EC 41496  1                      VCALL XCNTRECS            Count records
 006AA8 D74F 6000 6000_00000 00000 41500  1                      VRETURN INTEGER,(R15)     Return number of records
 USING  VNENTRY,R6
 DROP   VNENTRY,R6
 DROP   VNENTRY,R5                 41547                       END
                                   41556
 006AC2 18D8/9808 D004_            41557                       PEND
 DROP   RECWA-(4+36),R8
 DROP   *,R7
1FUNC     (FUNC2193) (12:45) (15MAR04) System Routines for Functions                                                        Page  163
0Current Usings:  (CP,R11) (CV,R12)
0Loc    Object Code    Addr1 Addr2  Stmt Lv Lineno    Source Statement           (Hibal 5, Asmedit 3.3)  HLASM R4.0  2004/03/15 12.45
+___    ______ ____    _____ _____  ____ __ ______    ______ _________
0                                  41583              ¿þþþþþþþþþþþþþþþþþþþþþþþþþþþþþþþþþþþþþþþþþþþþþþþþþþþþþþþþþþþþþþþþþþþþþÜ
                                   41584              Ÿ                                                                     Ÿ
                                   41585              Ÿ  REC_DELETE -- REC_DELETE Function.                                 Ÿ
                                   41586              Ÿ                                                                     Ÿ
                                   41587              Ÿ    REC_DELETE(setno,key)                                            Ÿ
                                   41588              Ÿ                                                                     Ÿ
                                                      ¾þþþþþþþþþþþþþþþþþþþþþþþþþþþþþþþþþþþþþþþþþþþþþþþþþþþþþþþþþþþþþþþþþþþþþ»
0006AD0 50E0 D000/9008_      00000 41589              FNRECDEL PROC  RECWA
 USING  *,R7
 USING  RECWA-(4+36),R8
 006AEA D74B 8028 8028 00000 00000 41639                       CLEAR RECWA
                                   41646
 006AF0 4120 7B0A/58E0_      075F4 41647                       SETARGS '22IS'            2 args: number, string
 006AFA 4770 70E2            06BCC 41653                       IF    Z,BEGIN             OK...
 006AFE 1841                       41664  1                      LR    R4,R1
 USING  VNENTRY,R5                 41665  1                      WITH  (VNENTRY,R5)
 006B00 4154 0000            00000 41678  1                      LA    R5,ARG1(R4)
 006B04 5800 5024            00024 41679  1                      L     R0,VNVALUE          Record set number
 006B08 1200/4770 7032             41680  1                      IF    (R0,Z),BEGIN
 006B0E 4120 0001/58E0_      00001 41694  2                        BADARG 1
 006B18 47F0 70E2            06BCC 41705  2                        EXIT  FNRECDEL
 006B1C                            41708  1                      END
                                   41712  1
 006B1C 41F0 B504            00504 41713  1                      LA    R15,CPDATA
 006B20 1200/47B0 7042_            41714  1                      IF    (R0,NEG),'LCR R0,R0; LA R15,CVDATA'
 006B2C 50F0 8030            00008 41735  1                      ST    R15,RECDRG
                                   41736  1
 006B30 58F0 8030            00008 41737  1                      L     R15,RECDRG          Data record group
 006B34 58E0 7AE6/0DEE       075D0 41738  1                      VCALL XSETSET             Specified record set
                                   41742  1
 006B3A 58F0 8030            00008 41743  1                      L     R15,RECDRG          Data record group
 006B3E 58E0 7AEA/0DEE       075D4 41744  1                      ACALL RECOPCHK            Make sure record set is open
 006B44 4770 70C6            06BB0 41748  1                      IF    Z,BEGIN
 006B48 4154 0150            00150 41759  2                        LA    R5,ARG2(R4)
 006B4C 48F0 5024            00024 41760  2                        LH    R15,VNSTRLEN        Key data string length
 006B50 59F0 7AF6/47D0_      075E0 41761  2                        IF    (R15,GT,L'RECKDATA),BEGIN  Too long...
 006B58 4110 7B52/4100_      0763C 41778  3                          TSEG  'Key data string is too long.  '
 006B6A 4120 0002/58E0_      00002 41796  3                          BADARG 2
 006B74 47F0 70E2            06BCC 41807  3                          EXIT  FNRECDEL
 006B78                            41810  2                        END
 006B78 D21F 8034 C4D8 0000C 004D8 41814  2                        MVC   RECKEY,CVBLANKS     Pre-blank
 006B7E 06F0/12FF/4740_            41815  2                        MOVE  R15,RECKDATA,VNSTRLOC  Move in key data
                                   41853  2
 006B8A 58F0 8030            00008 41854  2                        L     R15,RECDRG          Data record group
 006B8E 4120 8034            0000C 41855  2                        LA    R2,RECKEY           Key data (blank padded)
 006B92 58E0 7B0E/0DEE       075F8 41856  2                        VCALL XDELETE             Delete the record
 006B98 4770 70BA/4110_      06BA4 41860  2                        IF    Z,'SETMSG "OK"'
 006BA4 70BE/47F0 70C6_06BA4 06B9A 41880  2                        ELSE  'SETMSG "NOT FOUND"'
 006BB0                            41900  1                      END
                                   41904  1
 006BB0 D74F 6000 6000_00000 00000 41905  1                      VRETURN STRING,(R1),(R0)
 USING  VNENTRY,R6
 DROP   VNENTRY,R6
1FUNC     (FUNC2193) (12:45) (15MAR04) System Routines for Functions                                                        Page  164
0Current Usings:  (*,R7) (RECWA-(4+36),R8) (CP,R11) (CV,R12)
0Loc    Object Code    Addr1 Addr2  Stmt Lv Lineno    Source Statement           (Hibal 5, Asmedit 3.3)  HLASM R4.0  2004/03/15 12.45
+___    ______ ____    _____ _____  ____ __ ______    ______ _________
0DROP   VNENTRY,R5                 41989                       END
 006BCC 18D8/9808 D004_            41998                       PEND
 DROP   RECWA-(4+36),R8
 DROP   *,R7
1FUNC     (FUNC2193) (12:45) (15MAR04) System Routines for Functions                                                        Page  165
0Current Usings:  (CP,R11) (CV,R12)
0Loc    Object Code    Addr1 Addr2  Stmt Lv Lineno    Source Statement           (Hibal 5, Asmedit 3.3)  HLASM R4.0  2004/03/15 12.45
+___    ______ ____    _____ _____  ____ __ ______    ______ _________
0                                  42024              ¿þþþþþþþþþþþþþþþþþþþþþþþþþþþþþþþþþþþþþþþþþþþþþþþþþþþþþþþþþþþþþþþþþþþþþÜ
                                   42025              Ÿ                                                                     Ÿ
                                   42026              Ÿ  REC_FIRSTKEY -- REC_FIRSTKEY Function.                             Ÿ
                                   42027              Ÿ                                                                     Ÿ
                                   42028              Ÿ    REC_FIRSTKEY(setno,key)                                          Ÿ
                                   42029              Ÿ                                                                     Ÿ
                                                      ¾þþþþþþþþþþþþþþþþþþþþþþþþþþþþþþþþþþþþþþþþþþþþþþþþþþþþþþþþþþþþþþþþþþþþþ»
0006BDA 50E0 D000/9008_      00000 42030              FNRECFRK PROC  RECWA
 USING  *,R7
 USING  RECWA-(4+36),R8
 006BF4 D74B 8028 8028 00000 00000 42080                       CLEAR RECWA
                                   42087
 006BFA 4120 7A00/58E0_      075F4 42088                       SETARGS '22IS'            2 args: number, string
 006C04 4770 70E0            06CD4 42094                       IF    Z,BEGIN             OK...
 006C08 1841                       42105  1                      LR    R4,R1
 USING  VNENTRY,R5                 42106  1                      WITH  (VNENTRY,R5)
 006C0A 4154 0000            00000 42119  1                      LA    R5,ARG1(R4)
 006C0E 5800 5024            00024 42120  1                      L     R0,VNVALUE          Record set number
 006C12 1200/4770 7032             42121  1                      IF    (R0,Z),BEGIN
 006C18 4120 0001/58E0_      00001 42135  2                        BADARG 1
 006C22 47F0 70E0            06CD4 42146  2                        EXIT  FNRECFRK
 006C26                            42149  1                      END
                                   42153  1
 006C26 41F0 B504            00504 42154  1                      LA    R15,CPDATA
 006C2A 1200/47B0 7042_            42155  1                      IF    (R0,NEG),'LCR R0,R0; LA R15,CVDATA'
 006C36 50F0 8030            00008 42176  1                      ST    R15,RECDRG
                                   42177  1
 006C3A 58F0 8030            00008 42178  1                      L     R15,RECDRG          Data record group
 006C3E 58E0 79DC/0DEE       075D0 42179  1                      VCALL XSETSET             Specified record set
                                   42183  1
 006C44 4154 0150            00150 42184  1                      LA    R5,ARG2(R4)
 006C48 48F0 5024            00024 42185  1                      LH    R15,VNSTRLEN        Key data string length
 006C4C 59F0 79EC/47D0_      075E0 42186  1                      IF    (R15,GT,L'RECKDATA),BEGIN  Too long...
 006C54 4110 7A48/4100_      0763C 42203  2                        TSEG  'Key data string is too long.  '
 006C66 4120 0002/58E0_      00002 42221  2                        BADARG 2
 006C70 47F0 70E0            06CD4 42232  2                        EXIT  FNRECFRK
 006C74                            42235  1                      END
 006C74 D21F 8034 C4D8 0000C 004D8 42239  1                      MVC   RECKEY,CVBLANKS     Pre-blank
 006C7A 06F0/12FF/4740_            42240  1                      MOVE  R15,RECKDATA,VNSTRLOC  Move in key data
                                   42278  1
 006C86 4120 8034            0000C 42279  1                      LA    R2,RECKEY           Key data (blank padded)
 006C8A 58F0 8030            00008 42280  1                      L     R15,RECDRG          Data record group
 006C8E 58E0 7A08/0DEE       075FC 42281  1                      VCALL XLOCFRST            Get record
 006C94 4770 70B8            06CAC 42285  1                      IF    Z,BEGIN             We found it...
 006C98 4110 8035/4100_      0000D 42296  2                        SETMSG RECKDATA            Return "key"
 006CA0 D61F 8034 8034_0000C 0000C 42310  2                        IF    (RECKEY,Z),'CLEAR R0'  That's internal
 006CAC                            42335  1                      END
 006CAC 70BC/47F0 70BE_06CAC 06C96 42339  1                      ELSE  'CLEAR R0'
 006CB2 D74F 6000 6000_00000 00000 42359  1                      VRETURN STRING,(R1),(R0)
 USING  VNENTRY,R6
 DROP   VNENTRY,R6
 006CCE 58E0 7A0C/0DEE       07600 42443  1                      VTRIM
 DROP   VNENTRY,R5                 42448                       END
1FUNC     (FUNC2193) (12:45) (15MAR04) System Routines for Functions                                                        Page  166
0Current Usings:  (CP,R11) (CV,R12)
0Loc    Object Code    Addr1 Addr2  Stmt Lv Lineno    Source Statement           (Hibal 5, Asmedit 3.3)  HLASM R4.0  2004/03/15 12.45
+___    ______ ____    _____ _____  ____ __ ______    ______ _________
0006CD4 18D8/9808 D004_            42457                       PEND
 DROP   RECWA-(4+36),R8
 DROP   *,R7
1FUNC     (FUNC2193) (12:45) (15MAR04) System Routines for Functions                                                        Page  167
0Current Usings:  (CP,R11) (CV,R12)
0Loc    Object Code    Addr1 Addr2  Stmt Lv Lineno    Source Statement           (Hibal 5, Asmedit 3.3)  HLASM R4.0  2004/03/15 12.45
+___    ______ ____    _____ _____  ____ __ ______    ______ _________
0                                  42483              ¿þþþþþþþþþþþþþþþþþþþþþþþþþþþþþþþþþþþþþþþþþþþþþþþþþþþþþþþþþþþþþþþþþþþþþÜ
                                   42484              Ÿ                                                                     Ÿ
                                   42485              Ÿ  REC_GET -- REC_GET Function.                                       Ÿ
                                   42486              Ÿ                                                                     Ÿ
                                   42487              Ÿ    REC_GET(setno,key)                                               Ÿ
                                   42488              Ÿ                                                                     Ÿ
                                                      ¾þþþþþþþþþþþþþþþþþþþþþþþþþþþþþþþþþþþþþþþþþþþþþþþþþþþþþþþþþþþþþþþþþþþþþ»
0006CE2 50E0 D000/9008_      00000 42489              FNRECGET PROC  RECWA
 USING  *,R7
 USING  RECWA-(4+36),R8
 006CFC D74B 8028 8028 00000 00000 42539                       CLEAR RECWA
                                   42546
 006D02 4120 78F8/58E0_      075F4 42547                       SETARGS '22IS'            2 args: number, string
 006D0C 4770 70BE            06DBA 42553                       IF    Z,BEGIN             OK...
 006D10 1841                       42564  1                      LR    R4,R1
 USING  VNENTRY,R5                 42565  1                      WITH  (VNENTRY,R5)
 006D12 4154 0000            00000 42578  1                      LA    R5,ARG1(R4)
 006D16 5800 5024            00024 42579  1                      L     R0,VNVALUE          Record set number
 006D1A 1200/4770 7032             42580  1                      IF    (R0,Z),BEGIN
 006D20 4120 0001/58E0_      00001 42594  2                        BADARG 1
 006D2A 47F0 70BE            06DBA 42605  2                        EXIT  FNRECGET
 006D2E                            42608  1                      END
                                   42612  1
 006D2E 41F0 B504            00504 42613  1                      LA    R15,CPDATA
 006D32 1200/47B0 7042_            42614  1                      IF    (R0,NEG),'LCR R0,R0; LA R15,CVDATA'
 006D3E 50F0 8030            00008 42635  1                      ST    R15,RECDRG
                                   42636  1
 006D42 58F0 8030            00008 42637  1                      L     R15,RECDRG          Data record group
 006D46 58E0 78D4/0DEE       075D0 42638  1                      VCALL XSETSET             Specified record set
                                   42642  1
 006D4C 4154 0150            00150 42643  1                      LA    R5,ARG2(R4)
 006D50 48F0 5024            00024 42644  1                      LH    R15,VNSTRLEN        Key data string length
 006D54 59F0 78E4/47D0_      075E0 42645  1                      IF    (R15,GT,L'RECKDATA),BEGIN  Too long...
 006D5C 4110 7940/4100_      0763C 42662  2                        TSEG  'Key data string is too long.  '
 006D6E 4120 0002/58E0_      00002 42680  2                        BADARG 2
 006D78 47F0 70BE            06DBA 42691  2                        EXIT  FNRECGET
 006D7C                            42694  1                      END
 006D7C D21F 8034 C4D8 0000C 004D8 42698  1                      MVC   RECKEY,CVBLANKS     Pre-blank
 006D82 06F0/12FF/4740_            42699  1                      MOVE  R15,RECKDATA,VNSTRLOC  Move in key data
                                   42737  1                 ¿þþþþþþþþþþþþþþþþþþþþþþþþþþþþþþþþþþþþþþþþþþþþþþþþþþþþþþþþþþþþþþþþþþþþÜ
                                   42738  1                 Ÿ  Get the record data given it's key.  If the record set is record  Ÿ
                                   42739  1                 Ÿ     doesn't exist then return a null string.  A null string would  Ÿ
                                   42740  1                 Ÿ    also be returned if a unopened record set number was supplied.  Ÿ
                                   42741  1                 ¾þþþþþþþþþþþþþþþþþþþþþþþþþþþþþþþþþþþþþþþþþþþþþþþþþþþþþþþþþþþþþþþþþþþþ»
 006D8E 4120 8034            0000C 42742  1                      LA    R2,RECKEY           Key data (blank padded)
 USING  VNENTRY,R6                 42743  1                      WITH  (VNENTRY,R6),BEGIN
 006D92 D74F 6000 6000 00000 00000 42757  2                        CLEAR VNENTRY
 006D98 9201 6020      00020       42764  2                        SET   VNSTRING            Returning a string
 006D9C 4110 6026/4100_      00026 42770  2                        SETMSG VNSTRLOC,MAXSTRLN   Put string here
 006DA4 58F0 8030            00008 42786  2                        L     R15,RECDRG          Data record group
 006DA8 58E0 7908/0DEE       07604 42787  2                        VCALL XGET                Get record data
 006DAE 4780 70B8/1B00       06DB4 42791  2                        IF    NZ,'CLEAR R0'       Record not found
 006DB4 4000 6024            00024 42811  2                        STH   R0,VNSTRLEN         Save string length
1FUNC     (FUNC2193) (12:45) (15MAR04) System Routines for Functions                                                        Page  168
0Current Usings:  (VNENTRY,R5) (VNENTRY,R6) (*,R7) (RECWA-(4+36),R8) (CP,R11) (CV,R12)
0Loc    Object Code    Addr1 Addr2  Stmt Lv Lineno    Source Statement           (Hibal 5, Asmedit 3.3)  HLASM R4.0  2004/03/15 12.45
+___    ______ ____    _____ _____  ____ __ ______    ______ _________
0006DB8 1BFF                       42812  2                        CLEAR R15                 Function return code
 DROP   VNENTRY,R6                 42816  1                      END
 DROP   VNENTRY,R5                 42824                       END
 006DBA 18D8/9808 D004_            42833                       PEND
 DROP   RECWA-(4+36),R8
 DROP   *,R7
1FUNC     (FUNC2193) (12:45) (15MAR04) System Routines for Functions                                                        Page  169
0Current Usings:  (CP,R11) (CV,R12)
0Loc    Object Code    Addr1 Addr2  Stmt Lv Lineno    Source Statement           (Hibal 5, Asmedit 3.3)  HLASM R4.0  2004/03/15 12.45
+___    ______ ____    _____ _____  ____ __ ______    ______ _________
0                                  42859              ¿þþþþþþþþþþþþþþþþþþþþþþþþþþþþþþþþþþþþþþþþþþþþþþþþþþþþþþþþþþþþþþþþþþþþþÜ
                                   42860              Ÿ                                                                     Ÿ
                                   42861              Ÿ  REC_LASTKEY -- REC_LASTKEY Function.                               Ÿ
                                   42862              Ÿ                                                                     Ÿ
                                   42863              Ÿ    REC_LASTKEY(setno,key)                                           Ÿ
                                   42864              Ÿ                                                                     Ÿ
                                                      ¾þþþþþþþþþþþþþþþþþþþþþþþþþþþþþþþþþþþþþþþþþþþþþþþþþþþþþþþþþþþþþþþþþþþþþ»
0006DC8 50E0 D000/9008_      00000 42865              FNRECLAK PROC  RECWA
 USING  *,R7
 USING  RECWA-(4+36),R8
 006DE2 D74B 8028 8028 00000 00000 42915                       CLEAR RECWA
                                   42922
 006DE8 4120 7812/58E0_      075F4 42923                       SETARGS '22IS'            2 args: number, string
 006DF2 4770 70E0            06EC2 42929                       IF    Z,BEGIN             OK...
 006DF6 1841                       42940  1                      LR    R4,R1
 USING  VNENTRY,R5                 42941  1                      WITH  (VNENTRY,R5)
 006DF8 4154 0000            00000 42954  1                      LA    R5,ARG1(R4)
 006DFC 5800 5024            00024 42955  1                      L     R0,VNVALUE          Record set number
 006E00 1200/4770 7032             42956  1                      IF    (R0,Z),BEGIN
 006E06 4120 0001/58E0_      00001 42970  2                        BADARG 1
 006E10 47F0 70E0            06EC2 42981  2                        EXIT  FNRECLAK
 006E14                            42984  1                      END
                                   42988  1
 006E14 41F0 B504            00504 42989  1                      LA    R15,CPDATA
 006E18 1200/47B0 7042_            42990  1                      IF    (R0,NEG),'LCR R0,R0; LA R15,CVDATA'
 006E24 50F0 8030            00008 43011  1                      ST    R15,RECDRG
                                   43012  1
 006E28 58F0 8030            00008 43013  1                      L     R15,RECDRG          Data record group
 006E2C 58E0 77EE/0DEE       075D0 43014  1                      VCALL XSETSET             Specified record set
                                   43018  1
 006E32 4154 0150            00150 43019  1                      LA    R5,ARG2(R4)
 006E36 48F0 5024            00024 43020  1                      LH    R15,VNSTRLEN        Key data string length
 006E3A 59F0 77FE/47D0_      075E0 43021  1                      IF    (R15,GT,L'RECKDATA),BEGIN  Too long...
 006E42 4110 785A/4100_      0763C 43038  2                        TSEG  'Key data string is too long.  '
 006E54 4120 0002/58E0_      00002 43056  2                        BADARG 2
 006E5E 47F0 70E0            06EC2 43067  2                        EXIT  FNRECLAK
 006E62                            43070  1                      END
 006E62 D21F 8034 C4D8 0000C 004D8 43074  1                      MVC   RECKEY,CVBLANKS     Pre-blank
 006E68 06F0/12FF/4740_            43075  1                      MOVE  R15,RECKDATA,VNSTRLOC  Move in key data
                                   43113  1
 006E74 4120 8034            0000C 43114  1                      LA    R2,RECKEY           Key data (blank padded)
 006E78 58F0 8030            00008 43115  1                      L     R15,RECDRG          Data record group
 006E7C 58E0 7826/0DEE       07608 43116  1                      VCALL XLOCLAST            Get record
 006E82 4770 70B8            06E9A 43120  1                      IF    Z,BEGIN             We found it...
 006E86 4110 8035/4100_      0000D 43131  2                        SETMSG RECKDATA            Return "key"
 006E8E D61F 8034 8034_0000C 0000C 43145  2                        IF    (RECKEY,Z),'CLEAR R0'  That's internal
 006E9A                            43170  1                      END
 006E9A 70BC/47F0 70BE_06E9A 06E84 43174  1                      ELSE  'CLEAR R0'
 006EA0 D74F 6000 6000_00000 00000 43194  1                      VRETURN STRING,(R1),(R0)
 USING  VNENTRY,R6
 DROP   VNENTRY,R6
 006EBC 58E0 781E/0DEE       07600 43278  1                      VTRIM
 DROP   VNENTRY,R5                 43283                       END
1FUNC     (FUNC2193) (12:45) (15MAR04) System Routines for Functions                                                        Page  170
0Current Usings:  (CP,R11) (CV,R12)
0Loc    Object Code    Addr1 Addr2  Stmt Lv Lineno    Source Statement           (Hibal 5, Asmedit 3.3)  HLASM R4.0  2004/03/15 12.45
+___    ______ ____    _____ _____  ____ __ ______    ______ _________
0006EC2 18D8/9808 D004_            43292                       PEND
 DROP   RECWA-(4+36),R8
 DROP   *,R7
1FUNC     (FUNC2193) (12:45) (15MAR04) System Routines for Functions                                                        Page  171
0Current Usings:  (CP,R11) (CV,R12)
0Loc    Object Code    Addr1 Addr2  Stmt Lv Lineno    Source Statement           (Hibal 5, Asmedit 3.3)  HLASM R4.0  2004/03/15 12.45
+___    ______ ____    _____ _____  ____ __ ______    ______ _________
0                                  43318              ¿þþþþþþþþþþþþþþþþþþþþþþþþþþþþþþþþþþþþþþþþþþþþþþþþþþþþþþþþþþþþþþþþþþþþþÜ
                                   43319              Ÿ                                                                     Ÿ
                                   43320              Ÿ  REC_NEXTKEY -- REC_NEXTKEY Function.                               Ÿ
                                   43321              Ÿ                                                                     Ÿ
                                   43322              Ÿ    REC_NEXTKEY(setno,key)                                           Ÿ
                                   43323              Ÿ                                                                     Ÿ
                                                      ¾þþþþþþþþþþþþþþþþþþþþþþþþþþþþþþþþþþþþþþþþþþþþþþþþþþþþþþþþþþþþþþþþþþþþþ»
0006ED0 50E0 D000/9008_      00000 43324              FNRECNEK PROC  RECWA
 USING  *,R7
 USING  RECWA-(4+36),R8
 006EEA D74B 8028 8028 00000 00000 43374                       CLEAR RECWA
                                   43381
 006EF0 4120 770A/58E0_      075F4 43382                       SETARGS '22IS'            2 args: number, string
 006EFA 4770 70E0            06FCA 43388                       IF    Z,BEGIN             OK...
 006EFE 1841                       43399  1                      LR    R4,R1
 USING  VNENTRY,R5                 43400  1                      WITH  (VNENTRY,R5)
 006F00 4154 0000            00000 43413  1                      LA    R5,ARG1(R4)
 006F04 5800 5024            00024 43414  1                      L     R0,VNVALUE          Record set number
 006F08 1200/4770 7032             43415  1                      IF    (R0,Z),BEGIN
 006F0E 4120 0001/58E0_      00001 43429  2                        BADARG 1
 006F18 47F0 70E0            06FCA 43440  2                        EXIT  FNRECNEK
 006F1C                            43443  1                      END
                                   43447  1
 006F1C 41F0 B504            00504 43448  1                      LA    R15,CPDATA
 006F20 1200/47B0 7042_            43449  1                      IF    (R0,NEG),'LCR R0,R0; LA R15,CVDATA'
 006F2C 50F0 8030            00008 43470  1                      ST    R15,RECDRG
                                   43471  1
 006F30 58F0 8030            00008 43472  1                      L     R15,RECDRG          Data record group
 006F34 58E0 76E6/0DEE       075D0 43473  1                      VCALL XSETSET             Specified record set
                                   43477  1
 006F3A 4154 0150            00150 43478  1                      LA    R5,ARG2(R4)
 006F3E 48F0 5024            00024 43479  1                      LH    R15,VNSTRLEN        Key data string length
 006F42 59F0 76F6/47D0_      075E0 43480  1                      IF    (R15,GT,L'RECKDATA),BEGIN  Too long...
 006F4A 4110 7752/4100_      0763C 43497  2                        TSEG  'Key data string is too long.  '
 006F5C 4120 0002/58E0_      00002 43515  2                        BADARG 2
 006F66 47F0 70E0            06FCA 43526  2                        EXIT  FNRECNEK
 006F6A                            43529  1                      END
 006F6A D21F 8034 C4D8 0000C 004D8 43533  1                      MVC   RECKEY,CVBLANKS     Pre-blank
 006F70 06F0/12FF/4740_            43534  1                      MOVE  R15,RECKDATA,VNSTRLOC  Move in key data
                                   43572  1
 006F7C 4120 8034            0000C 43573  1                      LA    R2,RECKEY           Key data (blank padded)
 006F80 58F0 8030            00008 43574  1                      L     R15,RECDRG          Data record group
 006F84 58E0 7722/0DEE       0760C 43575  1                      VCALL XLOCNEXT            Get record
 006F8A 4770 70B8            06FA2 43579  1                      IF    Z,BEGIN             We found it...
 006F8E 4110 8035/4100_      0000D 43590  2                        SETMSG RECKDATA            Return "key"
 006F96 D61F 8034 8034_0000C 0000C 43604  2                        IF    (RECKEY,Z),'CLEAR R0'  That's internal
 006FA2                            43629  1                      END
 006FA2 70BC/47F0 70BE_06FA2 06F8C 43633  1                      ELSE  'CLEAR R0'
 006FA8 D74F 6000 6000_00000 00000 43653  1                      VRETURN STRING,(R1),(R0)
 USING  VNENTRY,R6
 DROP   VNENTRY,R6
 006FC4 58E0 7716/0DEE       07600 43737  1                      VTRIM
 DROP   VNENTRY,R5                 43742                       END
1FUNC     (FUNC2193) (12:45) (15MAR04) System Routines for Functions                                                        Page  172
0Current Usings:  (CP,R11) (CV,R12)
0Loc    Object Code    Addr1 Addr2  Stmt Lv Lineno    Source Statement           (Hibal 5, Asmedit 3.3)  HLASM R4.0  2004/03/15 12.45
+___    ______ ____    _____ _____  ____ __ ______    ______ _________
0006FCA 18D8/9808 D004_            43751                       PEND
 DROP   RECWA-(4+36),R8
 DROP   *,R7
1FUNC     (FUNC2193) (12:45) (15MAR04) System Routines for Functions                                                        Page  173
0Current Usings:  (CP,R11) (CV,R12)
0Loc    Object Code    Addr1 Addr2  Stmt Lv Lineno    Source Statement           (Hibal 5, Asmedit 3.3)  HLASM R4.0  2004/03/15 12.45
+___    ______ ____    _____ _____  ____ __ ______    ______ _________
0                                  43777              ¿þþþþþþþþþþþþþþþþþþþþþþþþþþþþþþþþþþþþþþþþþþþþþþþþþþþþþþþþþþþþþþþþþþþþþÜ
                                   43778              Ÿ                                                                     Ÿ
                                   43779              Ÿ  REC_OPEN -- REC_OPEN Function.                                     Ÿ
                                   43780              Ÿ                                                                     Ÿ
                                   43781              Ÿ    REC_OPEN(option-string)                                          Ÿ
                                   43782              Ÿ                                                                     Ÿ
                                                      ¾þþþþþþþþþþþþþþþþþþþþþþþþþþþþþþþþþþþþþþþþþþþþþþþþþþþþþþþþþþþþþþþþþþþþþ»
0006FD8 50E0 D000/9008_      00000 43783              FNRECOPN PROC  RECWA
 USING  *,R7
 USING  RECWA-(4+36),R8
 006FF2 4140 8028            00000 43833                       LA    R4,RECWA
 USING  RECWA,R4                   43834                       USING RECWA,R4
 006FF6 D74B 4000 4000 00000 00000 43843                       CLEAR RECWA
 006FFC 58E0 B08C/D2AF_      0008C 43850                       SCPUSH ,
                                   43856
 00700A 4120 761E/58E0_      07610 43857                       SETARGS '11SS'            1 arg: string
 007014 4770 7118            0710A 43863                       IF    Z,BEGIN
 USING  VNENTRY,R5                 43874  1                      WITH  (VNENTRY,R5)
 007018 4151 0000            00000 43887  1                      LA    R5,ARG1(R1)
                                   43888  1
 00701C 4110 5026/4800_      00026 43889  1                      SCINIT VNSTRLOC,LH:VNSTRLEN  Option string
 007032 5810 B08C/1B00_      0008C 43912  1                      SCAN  ROPNPRT
 007084 12FF/4770 711C             43944  1                      IF    (R15,NZ),ROPNERR
                                   43961  1
 00708A 41F0 B504            00504 43962  1                      LA    R15,CPDATA
 00708E 9180 4000/47E0_00000       43963  1                      IF    RECFPUB,'LA R15,CVDATA'  Public record group
 00709A 50F0 4008            00008 43984  1                      ST    R15,RECDRG          Assume local record group
                                   43985  1                      ¿þþþþþþþþþþþþþþþþþþþþþþþþþþþþÜ
                                   43986  1                      Ÿ  Assign a new set number.  Ÿ
                                   43987  1                      ¾þþþþþþþþþþþþþþþþþþþþþþþþþþþþ»
 00709E 5800 762A            0761C 43988  1                      L     R0,=A(X'7FFFFFFF')
 0070A2 58F0 4008            00008 43989  1                      L     R15,RECDRG          Data record group
 0070A6 58E0 762E/0DEE       07620 43990  1                      VCALL XLASTSET            Get highest set number so far
 0070AC 4780 70C0/1B00       070B2 43994  1                      IF    NZ,'CLEAR R0'
 0070B2 1830                       44014  1                      LR    R3,R0
 0070B4 5A30 C4D0            004D0 44015  1                      A     R3,CVONE            Next set number
                                   44016  1
 0070B8 1803                       44017  1                      LR    R0,R3               Set number
 0070BA 58F0 4008            00008 44018  1                      L     R15,RECDRG          Data record group
 0070BE 58E0 75DE/0DEE       075D0 44019  1                      VCALL XSETSET
                                   44023  1                      ¿þþþþþþþþþþþþþþþþþþþþþþþþþþþþþþþþþþþþþþþþþþþþþþþþþþþþþþþþþþþþþþÜ
                                   44024  1                      Ÿ  Add one dummy record which indicates that the record group  Ÿ
                                   44025  1                      Ÿ     is open.                                                 Ÿ
                                   44026  1                      ¾þþþþþþþþþþþþþþþþþþþþþþþþþþþþþþþþþþþþþþþþþþþþþþþþþþþþþþþþþþþþþþ»
 0070C4 D71F 400C 400C 0000C 0000C 44027  1                      CLEAR RECKEY              Key is all binary zeros
 0070CA 4110 766A/4100_      0765C 44034  1                      SETMSG 'OPENED'
 0070D2 4120 400C            0000C 44038  1                      LA    R2,RECKEY
 0070D6 58F0 4008            00008 44039  1                      L     R15,RECDRG          Data record group
 0070DA 58E0 7632/0DEE       07624 44040  1                      VCALL XPUT                Add definition record
 0070E0 12FF/4770 711C             44044  1                      IF    (R15,NZ),ROPNERR
                                   44061  1
 0070E6 9180 4000/47E0_00000       44062  1                      IF    RECFPUB,'LNR R3,R3'  Public rg is neg number
 0070F0 D74F 6000 6000_00000 00000 44083  1                      VRETURN INTEGER,(R3)      Return the set number
1FUNC     (FUNC2193) (12:45) (15MAR04) System Routines for Functions                                                        Page  174
0Current Usings:  (RECWA,R4) (VNENTRY,R5) (*,R7) (RECWA-(4+36),R8) (CP,R11) (CV,R12)
0Loc    Object Code    Addr1 Addr2  Stmt Lv Lineno    Source Statement           (Hibal 5, Asmedit 3.3)  HLASM R4.0  2004/03/15 12.45
+___    ______ ____    _____ _____  ____ __ ______    ______ _________
0USING  VNENTRY,R6
 DROP   VNENTRY,R6
 DROP   VNENTRY,R5                 44130                       END
 00710A 47F0 713C            0712E 44139                       B     ROPNEXIT
                                   44140              *
                                   44141              *  EXITS
                                   44142              *
 00710E 1B33                       44143              ROPNERR  CLEAR R3                  Error: return zero
 007110 D74F 6000 6000_00000 00000 44148                       VRETURN INTEGER,(R3)
 USING  VNENTRY,R6
 DROP   VNENTRY,R6
 00712A 47F0 713C            0712E 44195                       B     ROPNEXIT
                                   44196              *
                                   44197              *
 00712E 58E0 B08C/4BD0_      0008C 44198              ROPNEXIT SCPOP ,
 00713C 18D8/9808 D004_            44204                       PEND
 DROP   RECWA-(4+36),R8
 DROP   *,R7
                                   44229              *
                                   44230              *  SCKW STUFF
                                   44231              *
 00714C D7E4C2D3C9C34040_          44232              ROPNPRT  SCKW  PUBLIC,ROPNPUB,A
 007174 4040404040404040_          44247                       SCKW  ,ROPNBAD
                                   44262              *
                                   44263              *
 00719C 50E0 D000/9008_      00000 44264              ROPNPUB  PROC  ,
 USING  *,R7
 0071B6 9680 4000      00000       44303                       SET   RECFPUB             User wants public record group
 0071BA 18D8/9808 D004_            44309                       PEND
 DROP   *,R7
                                   44329
 0071C8 50E0 D000/9008_      00000 44330              ROPNBAD  PROC  ,
 USING  *,R7
 0071E2 41F0 0004            00004 44369                       LA    R15,4
 0071E6 18D8/9808 D004_            44370                       PEND
 DROP   *,R7
 DROP   RECWA,R4                   44390                       DROP  R4
1FUNC     (FUNC2193) (12:45) (15MAR04) System Routines for Functions                                                        Page  175
0Current Usings:  (CP,R11) (CV,R12)
0Loc    Object Code    Addr1 Addr2  Stmt Lv Lineno    Source Statement           (Hibal 5, Asmedit 3.3)  HLASM R4.0  2004/03/15 12.45
+___    ______ ____    _____ _____  ____ __ ______    ______ _________
0                                  44398              ¿þþþþþþþþþþþþþþþþþþþþþþþþþþþþþþþþþþþþþþþþþþþþþþþþþþþþþþþþþþþþþþþþþþþþþÜ
                                   44399              Ÿ                                                                     Ÿ
                                   44400              Ÿ  REC_PREVKEY -- REC_PREVKEY Function.                               Ÿ
                                   44401              Ÿ                                                                     Ÿ
                                   44402              Ÿ    REC_PREVKEY(setno,key)                                           Ÿ
                                   44403              Ÿ                                                                     Ÿ
                                                      ¾þþþþþþþþþþþþþþþþþþþþþþþþþþþþþþþþþþþþþþþþþþþþþþþþþþþþþþþþþþþþþþþþþþþþþ»
00071F4 50E0 D000/9008_      00000 44404              FNRECPRK PROC  RECWA
 USING  *,R7
 USING  RECWA-(4+36),R8
 00720E D74B 8028 8028 00000 00000 44454                       CLEAR RECWA
                                   44461
 007214 4120 73E6/58E0_      075F4 44462                       SETARGS '22IS'            2 args: number, string
 00721E 4770 70E0            072EE 44468                       IF    Z,BEGIN             OK...
 007222 1841                       44479  1                      LR    R4,R1
 USING  VNENTRY,R5                 44480  1                      WITH  (VNENTRY,R5)
 007224 4154 0000            00000 44493  1                      LA    R5,ARG1(R4)
 007228 5800 5024            00024 44494  1                      L     R0,VNVALUE          Record set number
 00722C 1200/4770 7032             44495  1                      IF    (R0,Z),BEGIN
 007232 4120 0001/58E0_      00001 44509  2                        BADARG 1
 00723C 47F0 70E0            072EE 44520  2                        EXIT  FNRECPRK
 007240                            44523  1                      END
                                   44527  1
 007240 41F0 B504            00504 44528  1                      LA    R15,CPDATA
 007244 1200/47B0 7042_            44529  1                      IF    (R0,NEG),'LCR R0,R0; LA R15,CVDATA'
 007250 50F0 8030            00008 44550  1                      ST    R15,RECDRG
                                   44551  1
 007254 58F0 8030            00008 44552  1                      L     R15,RECDRG          Data record group
 007258 58E0 73C2/0DEE       075D0 44553  1                      VCALL XSETSET             Specified record set
                                   44557  1
 00725E 4154 0150            00150 44558  1                      LA    R5,ARG2(R4)
 007262 48F0 5024            00024 44559  1                      LH    R15,VNSTRLEN        Key data string length
 007266 59F0 73D2/47D0_      075E0 44560  1                      IF    (R15,GT,L'RECKDATA),BEGIN  Too long...
 00726E 4110 742E/4100_      0763C 44577  2                        TSEG  'Key data string is too long.  '
 007280 4120 0002/58E0_      00002 44595  2                        BADARG 2
 00728A 47F0 70E0            072EE 44606  2                        EXIT  FNRECPRK
 00728E                            44609  1                      END
 00728E D21F 8034 C4D8 0000C 004D8 44613  1                      MVC   RECKEY,CVBLANKS     Pre-blank
 007294 06F0/12FF/4740_            44614  1                      MOVE  R15,RECKDATA,VNSTRLOC  Move in key data
                                   44652  1
 0072A0 4120 8034            0000C 44653  1                      LA    R2,RECKEY           Key data (blank padded)
 0072A4 58F0 8030            00008 44654  1                      L     R15,RECDRG          Data record group
 0072A8 58E0 741A/0DEE       07628 44655  1                      VCALL XLOCPREV            Get record
 0072AE 4770 70B8            072C6 44659  1                      IF    Z,BEGIN             We found it...
 0072B2 4110 8035/4100_      0000D 44670  2                        SETMSG RECKDATA            Return "key"
 0072BA D61F 8034 8034_0000C 0000C 44684  2                        IF    (RECKEY,Z),'CLEAR R0'  That's internal
 0072C6                            44709  1                      END
 0072C6 70BC/47F0 70BE_072C6 072B0 44713  1                      ELSE  'CLEAR R0'
 0072CC D74F 6000 6000_00000 00000 44733  1                      VRETURN STRING,(R1),(R0)
 USING  VNENTRY,R6
 DROP   VNENTRY,R6
 0072E8 58E0 73F2/0DEE       07600 44817  1                      VTRIM
 DROP   VNENTRY,R5                 44822                       END
1FUNC     (FUNC2193) (12:45) (15MAR04) System Routines for Functions                                                        Page  176
0Current Usings:  (CP,R11) (CV,R12)
0Loc    Object Code    Addr1 Addr2  Stmt Lv Lineno    Source Statement           (Hibal 5, Asmedit 3.3)  HLASM R4.0  2004/03/15 12.45
+___    ______ ____    _____ _____  ____ __ ______    ______ _________
00072EE 18D8/9808 D004_            44831                       PEND
 DROP   RECWA-(4+36),R8
 DROP   *,R7
1FUNC     (FUNC2193) (12:45) (15MAR04) System Routines for Functions                                                        Page  177
0Current Usings:  (CP,R11) (CV,R12)
0Loc    Object Code    Addr1 Addr2  Stmt Lv Lineno    Source Statement           (Hibal 5, Asmedit 3.3)  HLASM R4.0  2004/03/15 12.45
+___    ______ ____    _____ _____  ____ __ ______    ______ _________
0                                  44857              ¿þþþþþþþþþþþþþþþþþþþþþþþþþþþþþþþþþþþþþþþþþþþþþþþþþþþþþþþþþþþþþþþþþþþþþÜ
                                   44858              Ÿ                                                                     Ÿ
                                   44859              Ÿ  REC_PUT -- REC_PUT Function.                                       Ÿ
                                   44860              Ÿ                                                                     Ÿ
                                   44861              Ÿ    REC_PUT(setno,key,data)                                          Ÿ
                                   44862              Ÿ                                                                     Ÿ
                                                      ¾þþþþþþþþþþþþþþþþþþþþþþþþþþþþþþþþþþþþþþþþþþþþþþþþþþþþþþþþþþþþþþþþþþþþþ»
00072FC 50E0 D000/9008_      00000 44863              FNRECPUT PROC  RECWA
 USING  *,R7
 USING  RECWA-(4+36),R8
 007316 D74B 8028 8028 00000 00000 44913                       CLEAR RECWA
                                   44920
 00731C 4120 738B/58E0_      076A1 44921                       SETARGS '33ISS'           3 args: number, string, string
 007326 4770 710C            07422 44927                       IF    Z,BEGIN             OK...
 00732A 1841                       44938  1                      LR    R4,R1
 USING  VNENTRY,R5                 44939  1                      WITH  (VNENTRY,R5)
 00732C 4154 0000            00000 44952  1                      LA    R5,ARG1(R4)
 007330 5800 5024            00024 44953  1                      L     R0,VNVALUE          Record set number
 007334 1200/4770 7032             44954  1                      IF    (R0,Z),BEGIN
 00733A 4120 0001/58E0_      00001 44968  2                        BADARG 1
 007344 47F0 710C            07422 44979  2                        EXIT  FNRECPUT
 007348                            44982  1                      END
                                   44986  1
 007348 41F0 B504            00504 44987  1                      LA    R15,CPDATA
 00734C 1200/47B0 7042_            44988  1                      IF    (R0,NEG),'LCR R0,R0; LA R15,CVDATA'
 007358 50F0 8030            00008 45009  1                      ST    R15,RECDRG
                                   45010  1
 00735C 58F0 8030            00008 45011  1                      L     R15,RECDRG          Data record group
 007360 58E0 72BA/0DEE       075D0 45012  1                      VCALL XSETSET             Specified record set
                                   45016  1
 007366 4154 0150            00150 45017  1                      LA    R5,ARG2(R4)
 00736A 48F0 5024            00024 45018  1                      LH    R15,VNSTRLEN        Key data string length
 00736E 59F0 72CA/47D0_      075E0 45019  1                      IF    (R15,GT,L'RECKDATA),BEGIN  Too long...
 007376 4110 7326/4100_      0763C 45036  2                        TSEG  'Key data string is too long.  '
 007388 4120 0002/58E0_      00002 45054  2                        BADARG 2
 007392 47F0 710C            07422 45065  2                        EXIT  FNRECPUT
 007396                            45068  1                      END
 007396 D21F 8034 C4D8 0000C 004D8 45072  1                      MVC   RECKEY,CVBLANKS
 00739C 06F0/12FF/4740_            45073  1                      MOVE  R15,RECKDATA,VNSTRLOC  Move in key data
                                   45111  1
 0073A8 58F0 8030            00008 45112  1                      L     R15,RECDRG          Data record group
 0073AC 58E0 72BE/0DEE       075D4 45113  1                      ACALL RECOPCHK            Make sure record set is opened
 0073B2 4780 70A8/4110_      073BE 45117  1                      IF    NZ,'SETMSG "NOT OPENED"'
 0073BE 70AC/47F0 70F0 073BE 073B4 45137  1                      ELSE  BEGIN
 0073C2 4154 02A0            002A0 45148  2                        LA    R5,ARG3(R4)
 0073C6 4120 8034            0000C 45149  2                        LA    R2,RECKEY           Key data is here
 0073CA 4110 5026/4800_      00026 45150  2                        SETMSG VNSTRLOC,LH:VNSTRLEN  Value data is here
 0073D2 58F0 8030            00008 45163  2                        L     R15,RECDRG          Data record group
 0073D6 58E0 730E/0DEE       07624 45164  2                        VCALL XPUT                Add record
 0073DC 4770 70D2/4110_      073E8 45168  2                        IF    Z,'SETMSG "OK"'
 0073E8 70D6/47F0 70E4_073E8 073DE 45188  2                        ELSEIF (R15,NEG),'SETMSG "NO ROOM"'
 0073FA 70E8/47F0 70F0_073FA 073F0 45220  2                        ELSE 'SETMSG "ERROR"'
 007406                            45240  1                      END
1FUNC     (FUNC2193) (12:45) (15MAR04) System Routines for Functions                                                        Page  178
0Current Usings:  (VNENTRY,R5) (*,R7) (RECWA-(4+36),R8) (CP,R11) (CV,R12)
0Loc    Object Code    Addr1 Addr2  Stmt Lv Lineno    Source Statement           (Hibal 5, Asmedit 3.3)  HLASM R4.0  2004/03/15 12.45
+___    ______ ____    _____ _____  ____ __ ______    ______ _________
0                                  45244  1
 007406 D74F 6000 6000_00000 00000 45245  1                      VRETURN STRING,(R1),(R0)
 USING  VNENTRY,R6
 DROP   VNENTRY,R6
 DROP   VNENTRY,R5                 45329                       END
 007422 18D8/9808 D004_            45338                       PEND
 DROP   RECWA-(4+36),R8
 DROP   *,R7
1FUNC     (FUNC2193) (12:45) (15MAR04) System Routines for Functions                                                        Page  179
0Current Usings:  (CP,R11) (CV,R12)
0Loc    Object Code    Addr1 Addr2  Stmt Lv Lineno    Source Statement           (Hibal 5, Asmedit 3.3)  HLASM R4.0  2004/03/15 12.45
+___    ______ ____    _____ _____  ____ __ ______    ______ _________
0                                  45364              ¿þþþþþþþþþþþþþþþþþþþþþþþþþþþþþþþþþþþþþþþþþþþþþþþþþþþþþþþþþþþþþþþþþþþþþÜ
                                   45365              Ÿ                                                                     Ÿ
                                   45366              Ÿ  REC_TEST -- REC_TEST Function.                                     Ÿ
                                   45367              Ÿ                                                                     Ÿ
                                   45368              Ÿ    REC_TEST(setno,key)                                              Ÿ
                                   45369              Ÿ                                                                     Ÿ
                                                      ¾þþþþþþþþþþþþþþþþþþþþþþþþþþþþþþþþþþþþþþþþþþþþþþþþþþþþþþþþþþþþþþþþþþþþþ»
0007430 50E0 D000/9008_      00000 45370              FNRECTST PROC  RECWA
 USING  *,R7
 USING  RECWA-(4+36),R8
 00744A D74B 8028 8028 00000 00000 45420                       CLEAR RECWA
                                   45427
 007450 4120 71AA/58E0_      075F4 45428                       SETARGS '22IS'            2 args: number, string
 00745A 4770 70EC            07536 45434                       IF    Z,BEGIN             OK...
 00745E 1841                       45445  1                      LR    R4,R1
 USING  VNENTRY,R5                 45446  1                      WITH  (VNENTRY,R5)
 007460 4154 0000            00000 45459  1                      LA    R5,ARG1(R4)
 007464 5800 5024            00024 45460  1                      L     R0,VNVALUE          Record set number
 007468 1200/4770 7032             45461  1                      IF    (R0,Z),BEGIN
 00746E 4120 0001/58E0_      00001 45475  2                        BADARG 1
 007478 47F0 70EC            07536 45486  2                        EXIT  FNRECTST
 00747C                            45489  1                      END
                                   45493  1
 00747C 41F0 B504            00504 45494  1                      LA    R15,CPDATA
 007480 1200/47B0 7042_            45495  1                      IF    (R0,NEG),'LCR R0,R0; LA R15,CVDATA'
 00748C 50F0 8030            00008 45516  1                      ST    R15,RECDRG
                                   45517  1
 007490 58F0 8030            00008 45518  1                      L     R15,RECDRG          Data record group
 007494 58E0 7186/0DEE       075D0 45519  1                      VCALL XSETSET             Specified record set
                                   45523  1
 00749A 58F0 8030            00008 45524  1                      L     R15,RECDRG
 00749E 58E0 718A/0DEE       075D4 45525  1                      ACALL RECOPCHK            Make sure record group is open
 0074A4 4770 70D0            0751A 45529  1                      IF    Z,BEGIN             OK...
 0074A8 4154 0150            00150 45540  2                        LA    R5,ARG2(R4)
 0074AC 48F0 5024            00024 45541  2                        LH    R15,VNSTRLEN        Key data string length
 0074B0 59F0 7196/47D0_      075E0 45542  2                        IF    (R15,GT,L'RECKDATA),BEGIN  Too long...
 0074B8 4110 71F2/4100_      0763C 45559  3                          TSEG  'Key data string is too long.  '
 0074CA 4120 0002/58E0_      00002 45577  3                          BADARG 2
 0074D4 47F0 70EC            07536 45588  3                          EXIT  FNRECTST
 0074D8                            45591  2                        END
 0074D8 D21F 8034 C4D8 0000C 004D8 45595  2                        MVC   RECKEY,CVBLANKS
 0074DE 06F0/12FF/4740_            45596  2                        MOVE  R15,RECKDATA,VNSTRLOC  Move in key data
                                   45634  2
 0074EA 4120 8034            0000C 45635  2                        LA    R2,RECKEY           Key data (blank padded)
 0074EE 181D/41D0 D004             45636  2                        XPUSH ,,4,PTR=R1
 0074F4 4100 0004            00004 45639  2                        SETMSG (R1),4              Put a little data here
 0074F8 58F0 8030            00008 45652  2                        L     R15,RECDRG          Data record group
 0074FC 58E0 71BA/0DEE       07604 45653  2                        VCALL XGET                Get record entry (if it exists)
 007502 4770 70C4/4110_      0750E 45657  2                        IF    Z,'SETMSG "OK"'
 00750E 70C8/47F0 70D0_0750E 07504 45677  2                        ELSE  'SETMSG "NOT FOUND"'
 00751A                            45697  1                      END
                                   45701  1
 00751A D74F 6000 6000_00000 00000 45702  1                      VRETURN STRING,(R1),(R0)
1FUNC     (FUNC2193) (12:45) (15MAR04) System Routines for Functions                                                        Page  180
0Current Usings:  (VNENTRY,R5) (*,R7) (RECWA-(4+36),R8) (CP,R11) (CV,R12)
0Loc    Object Code    Addr1 Addr2  Stmt Lv Lineno    Source Statement           (Hibal 5, Asmedit 3.3)  HLASM R4.0  2004/03/15 12.45
+___    ______ ____    _____ _____  ____ __ ______    ______ _________
0USING  VNENTRY,R6
 DROP   VNENTRY,R6
 DROP   VNENTRY,R5                 45786                       END
 007536 18D8/9808 D004_            45795                       PEND
 DROP   RECWA-(4+36),R8
 DROP   *,R7
1FUNC     (FUNC2193) (12:45) (15MAR04) System Routines for Functions                                                        Page  181
0Current Usings:  (CP,R11) (CV,R12)
0Loc    Object Code    Addr1 Addr2  Stmt Lv Lineno    Source Statement           (Hibal 5, Asmedit 3.3)  HLASM R4.0  2004/03/15 12.45
+___    ______ ____    _____ _____  ____ __ ______    ______ _________
0                                  45821              ¿þþþþþþþþþþþþþþþþþþþþþþþþþþþþþþþþþþþþþþþþþþþþþþþþþþþþþþþþþþþþþþþþþþþþþÜ
                                   45822              Ÿ                                                                     Ÿ
                                   45823              Ÿ  RECOPCHK -- Local routine to check to see if the current           Ÿ
                                   45824              Ÿ    record set has been "opened".  If it has been opened then        Ÿ
                                   45825              Ÿ    it will have a record with a key of all binary zeros in it.      Ÿ
                                   45826              Ÿ                                                                     Ÿ
                                   45827              Ÿ    On entry:                                                        Ÿ
                                   45828              Ÿ      R15 - Record group ptr (CPDATA or CVDATA)                      Ÿ
                                   45829              Ÿ                                                                     Ÿ
                                   45830              Ÿ    On exit, R15 (and cc):                                           Ÿ
                                   45831              Ÿ      0 - it's open; R1,R0 = ""                                      Ÿ
                                   45832              Ÿ      4 - not open; R1,R0 = "NOT OPEN"                               Ÿ
                                   45833              Ÿ                                                                     Ÿ
                                                      ¾þþþþþþþþþþþþþþþþþþþþþþþþþþþþþþþþþþþþþþþþþþþþþþþþþþþþþþþþþþþþþþþþþþþþþ»
0007544 50E0 D000/9008_      00000 45834              RECOPCHK PROC  ,
 USING  *,R7
 00755E 182D/41D0 D020             45873                       XPUSH ,,L'RECKEY,PTR=R2
 007564 D71F 2000 2000 00000 00000 45876                       CLEAR (@R2,L'RECKEY)      Set binary zero record
 00756A 58E0 70CE/0DEE       0762C 45883                       VCALL XLOCATE             Does our zero record exist?
 007570 4770 701A/1B11_      07578 45887                       IF    Z,'CLEAR R1,R0'     -Yes
 007578 701E/47F0 7026_07578 07572 45909                       ELSE  'SETMSG "NOT OPEN"'    -No
 007584 9001 8004            00004 45929                       PRETURN (R0,R1)           Return string too
 007588 18D8/9808 D004_            45931                       PEND
 DROP   *,R7
                                   45951                       QLTORG
1FUNC     (FUNC2193) (12:45) (15MAR04) System Routines for Functions                                                        Page  182
0Current Usings:  (CP,R11) (CV,R12)
0Loc    Object Code    Addr1 Addr2  Stmt Lv Lineno    Source Statement           (Hibal 5, Asmedit 3.3)  HLASM R4.0  2004/03/15 12.45
+___    ______ ____    _____ _____  ____ __ ______    ______ _________
0                                  46013              ¿þþþþþþþþþþþþþþþþþþþþþþþþþþþþþþþþþþþþþþþþþþþþþþþþþþþþþþþþþþþþþþþþþþþþþÜ
                                   46014              Ÿ                                                                     Ÿ
                                   46015              Ÿ  REVERSE -- REVERSE Function.                                       Ÿ
                                   46016              Ÿ                                                                     Ÿ
                                   46017              Ÿ    REVERSE(string)                                                  Ÿ
                                   46018              Ÿ                                                                     Ÿ
                                                      ¾þþþþþþþþþþþþþþþþþþþþþþþþþþþþþþþþþþþþþþþþþþþþþþþþþþþþþþþþþþþþþþþþþþþþþ»
0007736 50E0 D000/9008_      00000 46019              FNREV    PROC  ,
 USING  *,R7
 007750 4120 7C64/58E0_      083B4 46058                       SETARGS '11S'             1 arg: string
 00775A 4770 7048            07798 46064                       IF    Z,BEGIN             OK...
 USING  VNENTRY,R5                 46075  1                      WITH  (VNENTRY,R5)
 00775E 4151 0000            00000 46088  1                      LA    R5,ARG1(R1)
 007762 4120 5026            00026 46089  1                      LA    R2,VNSTRLOC         R2,R3 - string loc, len
 007766 4830 5024            00024 46090  1                      LH    R3,VNSTRLEN
                                   46091  1                      ¿þþþþþþþþþþþþþþþþþþþþþþþþþþþþþþþþþþþþþþþþþþþþþþÜ
                                   46092  1                      Ÿ  Reverse the string character by character.  Ÿ
                                   46093  1                      ¾þþþþþþþþþþþþþþþþþþþþþþþþþþþþþþþþþþþþþþþþþþþþþþ»
 USING  VNENTRY,R6                 46094  1                      WITH  (VNENTRY,R6),BEGIN
 00776A D74F 6000 6000 00000 00000 46108  2                        CLEAR VNENTRY
 007770 9201 6020      00020       46115  2                        SET   VNSTRING            Returning a string
                                   46121  2
 007774 4030 6024            00024 46122  2                        STH   R3,VNSTRLEN         Save string length
                                   46123  2
 007778 1A23                       46124  2                        AR    R2,R3
 00777A 0620                       46125  2                        DECR  R2                  R2 - Last char of arg string
                                   46127  2
 00777C 4140 6026            00026 46128  2                        LA    R4,VNSTRLOC         First char of our string
 007780 1233/47D0 7048             46129  2                        WHILE (R3,POS),BEGIN
 007786 D200 4000 2000 00000 00000 46145  3                          MVC   @R4(1),@R2          Move char
 00778C 4140 4001            00001 46146  3                          LA    R4,@R4+1
 007790 0620                       46147  3                          DECR  R2
 007792 0630                       46149  3                          DECR  R3
 007794 47F0 7030            07780 46151  2                        END
 DROP   VNENTRY,R6                 46156  1                      END
 DROP   VNENTRY,R5                 46164                       END
                                   46173
 007798 18D8/9808 D004_            46174                       PEND
 DROP   *,R7
1FUNC     (FUNC2193) (12:45) (15MAR04) System Routines for Functions                                                        Page  183
0Current Usings:  (CP,R11) (CV,R12)
0Loc    Object Code    Addr1 Addr2  Stmt Lv Lineno    Source Statement           (Hibal 5, Asmedit 3.3)  HLASM R4.0  2004/03/15 12.45
+___    ______ ____    _____ _____  ____ __ ______    ______ _________
0                                  46195              ¿þþþþþþþþþþþþþþþþþþþþþþþþþþþþþþþþþþþþþþþþþþþþþþþþþþþþþþþþþþþþþþþþþþþþþÜ
                                   46196              Ÿ                                                                     Ÿ
                                   46197              Ÿ  RIGHT -- RIGHT Function.                                           Ÿ
                                   46198              Ÿ                                                                     Ÿ
                                   46199              Ÿ    RIGHT(string,length,pad-char)                                    Ÿ
                                   46200              Ÿ                                                                     Ÿ
                                                      ¾þþþþþþþþþþþþþþþþþþþþþþþþþþþþþþþþþþþþþþþþþþþþþþþþþþþþþþþþþþþþþþþþþþþþþ»
0000000                00000 00006 46201              RIGHTWA  RECORD BEGIN
 000000                            46209  1           RIGHTPAD   DS    C                   Pad character
 000002                            46210  1           RIGHTPDL   DS    H                   Length of area to pad
 000004                            46211  1           RIGHTLEN   DS    H                   Total string length
 000006                00006 00006 46212                       END
                                   46221              þþþþ
 0077A6 50E0 D000/9008_      00000 46222              FNRIGHT  PROC  RIGHTWA
 USING  *,R7
 USING  RIGHTWA-(4+36),R8
 0077C0 D705 8028 8028 00000 00000 46272                       CLEAR RIGHTWA
 0077C6 9240 8028      00000       46279                       MVI   RIGHTPAD,C' '       Default pad character
                                   46280
 0077CA 4120 7BF7/58E0_      083B7 46281                       SETARGS '23SIS'           2-3 args: string,integer,string
 0077D4 4770 70C8            07888 46287                       IF    Z,BEGIN             OK...
 USING  VNENTRY,R5                 46298  1                      WITH  (VNENTRY,R5)
 0077D8 4151 0000            00000 46311  1                      LA    R5,ARG1(R1)
 0077DC 4120 5026            00026 46312  1                      LA    R2,VNSTRLOC         R2,R3 - string loc, len
 0077E0 4830 5024            00024 46313  1                      LH    R3,VNSTRLEN
                                   46314  1                      ¿þþþþþþþþþþþþþþþþþþþÜ
                                   46315  1                      Ÿ  Arg#2:  Length.  Ÿ
                                   46316  1                      ¾þþþþþþþþþþþþþþþþþþþ»
 0077E4 4151 0150            00150 46317  1                      LA    R5,ARG2(R1)
 0077E8 5840 5024            00024 46318  1                      L     R4,VNVALUE          R4 - Length
 0077EC 1244/4740 703A_            46319  1                      IF    ((R4,NEG),OR,(R4,GT,MAXSTRLN)),BEGIN
 0077FA 4120 0002/58E0_      00002 46349  2                        BADARG 2
 007804 47F0 70C8            07888 46360  2                        EXIT  FNRIGHT
 007808                            46363  1                      END
                                   46367  1
 007808 1934/47D0 7056             46368  1                      IF    (R3,GT,R4),BEGIN    Take right most chars...
 00780E 1B34                       46383  2                        SR    R3,R4
 007810 4123 2000            00000 46384  2                        LA    R2,@R2(R3)          R2,R3 - right most string loc,len
 007814 1834                       46385  2                        LR    R3,R4
 007816                            46386  1                      END
                                   46390  1
 007816 18E4                       46391  1                      LR    R14,R4
 007818 1BE3                       46392  1                      SR    R14,R3              Number of pad chars
 00781A 40E0 802A            00002 46393  1                      STH   R14,RIGHTPDL        Save pad length
                                   46394  1                      ¿þþþþþþþþþþþþþþþþþþþþþþþþþþþþÜ
                                   46395  1                      Ÿ  Arg#3:  Pad char string.  Ÿ
                                   46396  1                      ¾þþþþþþþþþþþþþþþþþþþþþþþþþþþþ»
 00781E 5900 7B5C/4750_      0831C 46397  1                      IF    (R0,GE,3),BEGIN     Process arg#3...
 007826 4151 02A0            002A0 46414  2                        LA    R5,ARG3(R1)
 00782A D501 7BC4 5024_08384 00024 46415  2                        IF    (VNSTRLEN,GT,1),BEGIN
 007834 4110 7BFC/4100_      083BC 46433  3                          TSEG  'Expecting one character pad string.  '
 007846 4120 0003/58E0_      00003 46451  3                          BADARG 3
 007850 47F0 70C8            07888 46462  3                          EXIT  FNRIGHT
1FUNC     (FUNC2193) (12:45) (15MAR04) System Routines for Functions                                                        Page  184
0Current Usings:  (VNENTRY,R5) (*,R7) (RIGHTWA-(4+36),R8) (CP,R11) (CV,R12)
0Loc    Object Code    Addr1 Addr2  Stmt Lv Lineno    Source Statement           (Hibal 5, Asmedit 3.3)  HLASM R4.0  2004/03/15 12.45
+___    ______ ____    _____ _____  ____ __ ______    ______ _________
0007854                            46465  2                        END
                                   46469  2
 007854 D501 7BC4 5024_08384 00024 46470  2                        IF    (VNSTRLEN,EQ,1),BEGIN
 00785E D200 8028 5026 00000 00026 46488  3                          MVC   RIGHTPAD,VNSTRLOC   Save pad character
 007864                            46489  2                        END
 007864                            46493  1                      END
                                   46497  1                      ¿þþþþþþþþþþþþþþþþþþþþþþþþþþþþþþþþþþÜ
                                   46498  1                      Ÿ  Move in RIGHT most characters.  Ÿ
                                   46499  1                      ¾þþþþþþþþþþþþþþþþþþþþþþþþþþþþþþþþþþ»
 USING  VNENTRY,R6                 46500  1                      WITH  (VNENTRY,R6),BEGIN
 007864 D74F 6000 6000 00000 00000 46514  2                        CLEAR VNENTRY
 00786A 9201 6020      00020       46521  2                        SET   VNSTRING            Returning a string
                                   46527  2
 00786E 41E0 6026            00026 46528  2                        LA    R14,VNSTRLOC
 007872 48F0 802A            00002 46529  2                        LH    R15,RIGHTPDL        Length to pad
 007876 1B11                       46530  2                        CLEAR R1
 007878 BF18 8028            00000 46534  2                        ICM   R1,8,RIGHTPAD       Pad character
 00787C 0EE0                       46535  2                        MVCL  R14,R0              First add any pad characters
                                   46536  2
 00787E 18F3                       46537  2                        LR    R15,R3              String length
 007880 0EE2                       46538  2                        MVCL  R14,R2              Move string
                                   46539  2
 007882 4040 6024            00024 46540  2                        STH   R4,VNSTRLEN         Save string length
                                   46541  2
 007886 1BFF                       46542  2                        CLEAR R15                 A-ok
 DROP   VNENTRY,R6                 46546  1                      END
 DROP   VNENTRY,R5                 46554                       END
                                   46563
 007888 18D8/9808 D004_            46564                       PEND
 DROP   RIGHTWA-(4+36),R8
 DROP   *,R7
1FUNC     (FUNC2193) (12:45) (15MAR04) System Routines for Functions                                                        Page  185
0Current Usings:  (CP,R11) (CV,R12)
0Loc    Object Code    Addr1 Addr2  Stmt Lv Lineno    Source Statement           (Hibal 5, Asmedit 3.3)  HLASM R4.0  2004/03/15 12.45
+___    ______ ____    _____ _____  ____ __ ______    ______ _________
0                                  46590              ¿þþþþþþþþþþþþþþþþþþþþþþþþþþþþþþþþþþþþþþþþþþþþþþþþþþþþþþþþþþþþþþþþþþþþþÜ
                                   46591              Ÿ                                                                     Ÿ
                                   46592              Ÿ  RMATCH -- RMATCH function.                                         Ÿ
                                   46593              Ÿ                                                                     Ÿ
                                   46594              Ÿ    Return true if string in arg2 matches the right hand part        Ÿ
                                   46595              Ÿ    of the string in arg1.                                           Ÿ
                                   46596              Ÿ                                                                     Ÿ
                                                      ¾þþþþþþþþþþþþþþþþþþþþþþþþþþþþþþþþþþþþþþþþþþþþþþþþþþþþþþþþþþþþþþþþþþþþþ»
0000000                00000 00001 46597              RMATWA   RECORD BEGIN
 000000 00                         46605  1           RMATFLAG   FLAG
 RMATFLAG.RMATFCAS 80 ONES         46609  1                      FLAG  RMATFCASE           - Do case independent match
 RMATFLAG.RMATFSTR 40 ONES         46614  1                      FLAG  RMATFSTRIP          - Strip any trailing blanks
 000001                00001 00001 46619                       END
                                   46628              þþþþ
 007896 50E0 D000/9008_      00000 46629              FNRMATCH PROC  RMATWA
 USING  *,R7
 USING  RMATWA-(4+36),R8
 0078B0 9200 8028      00000       46679                       CLEAR RMATWA
                                   46686
 0078B4 4120 7B31/58E0_      083E1 46687                       SETARGS '23SSS'           2-3 string args
 0078BE 4770 7152            07A02 46693                       IF    NZ,EXIT             Return if error
                                   46707                       ¿þþþþþþþþþþþþþþþþþþþþþþþþþþþþþþþþþþÜ
                                   46708                       Ÿ  Scan arg3 for special options.  Ÿ
                                   46709                       ¾þþþþþþþþþþþþþþþþþþþþþþþþþþþþþþþþþþ»
 0078C2 5900 7A74/47D0_      08324 46710                       IF    (R0,GT,2),BEGIN     Check options...
 0078CA 4151 02A0            002A0 46727  1                      LA    R5,ARG3(R1)
 USING  VNENTRY,R5                 46728  1                      WITH  (VNENTRY,R5)
 0078CE 4130 5026            00026 46741  1                      LA    R3,VNSTRLOC
 0078D2 4820 5024            00024 46742  1                      LH    R2,VNSTRLEN
 0078D6 1222/47D0 7096             46743  1                      WHILE (R2,POS),BEGIN      Scan options...
 0078DC 95C3 3000/4780_00000       46759  2                        IF    ((@R3,EQ,'C'),OR,(@R3,EQ,'c')),'SET RMATFCASE'
 0078F0 7044/47F0 7058_078F0 078EA 46801  2                        ELSEIF ((@R3,EQ,'B'),OR,(@R3,EQ,'b')),'SET RMATFSTRIP'
 007908 705C/47F0 708C 07908 07902 46852  2                        ELSE  BEGIN
 00790C 1813/4100 0001_            46863  3                          TSEG  @R3,1
 00791C 4110 7AD6/4100_      08386 46893  3                          TSEG  ': bad RMATCH option character.',,CR
 00792E 4120 0003/58E0_      00003 46911  3                          BADARG 3
 007938 47F0 7152            07A02 46922  3                          EXIT  FNRMATCH
 00793C                            46925  2                        END
                                   46929  2
 00793C 4130 3001            00001 46930  2                        LA    R3,@R3+1
 007940 0620                       46931  2                        DECR  R2
 007942 47F0 7026            078D6 46933  1                      END
 DROP   VNENTRY,R5                 46938                       END
                                   46947                       ¿þþþþþþþþþþþþþþþþþþþþþþþþþþÜ
                                   46948                       Ÿ  Set up for comparison.  Ÿ
                                   46949                       ¾þþþþþþþþþþþþþþþþþþþþþþþþþþ»
 007946 4121 0026            00026 46950                       LA    R2,ARG1+VNSTRLOC-VNENTRY(R1)  Arg 1 address
 00794A 4831 0024            00024 46951                       LH    R3,ARG1+VNSTRLEN-VNENTRY(R1)  Arg 1 length
 00794E 9140 8028/47E0_00000       46952                       IF    RMATFSTRIP,BEGIN    Strip trailing blanks...
 007956 4143 2000            00000 46967  1                      LA    R4,@R2(R3)
 00795A 0640                       46968  1                      DECR  R4
 00795C 1233/47D0 70C2_            46970  1                      WHILE ((R3,POS),AND,(@R4,EQ,' ')),'DECR R3; DECR R4'
 007972                            47011                       END
1FUNC     (FUNC2193) (12:45) (15MAR04) System Routines for Functions                                                        Page  186
0Current Usings:  (*,R7) (RMATWA-(4+36),R8) (CP,R11) (CV,R12)
0Loc    Object Code    Addr1 Addr2  Stmt Lv Lineno    Source Statement           (Hibal 5, Asmedit 3.3)  HLASM R4.0  2004/03/15 12.45
+___    ______ ____    _____ _____  ____ __ ______    ______ _________
0                                  47015
 007972 4141 0176            00176 47016                       LA    R4,ARG2+VNSTRLOC-VNENTRY(R1)  Arg 2 address
 007976 4851 0174            00174 47017                       LH    R5,ARG2+VNSTRLEN-VNENTRY(R1)  Arg 2 length
 00797A 9140 8028/47E0_00000       47018                       IF    RMATFSTRIP,BEGIN    Strip trailing blanks...
 007982 4115 4000            00000 47033  1                      LA    R1,@R4(R5)
 007986 0610                       47034  1                      DECR  R1
 007988 1255/47D0 70EE_            47036  1                      WHILE ((R5,POS),AND,(@R1,EQ,' ')),'DECR R5; DECR R1'
 00799E                            47077                       END
                                   47081
 00799E 1BFF                       47082                       CLEAR R15                 Init result to false
                                   47086
 0079A0 1255/47D0 7122_            47087                       IF    ((R5,P),AND,(R5,LE,R3)),BEGIN
 0079AC 1A23                       47115  1                      AR    R2,R3               Point to right hand
 0079AE 1B25                       47116  1                      SR    R2,R5                substring of arg1
 0079B0 0650                       47117  1                      DECR  R5                  Get length-1
                                   47119  1
 0079B2 9180 8028/47E0_00000       47120  1                      IF    RMATFCASE,BEGIN     We don't care about case...
 0079BA 5810 C8AC            008AC 47135  2                        L     R1,CVLOWTBL         Translate table
 0079BE 4450 7BF2/00/D_      084A2 47136  2                        EX    R5,'TR @R2(0),@R1'     Lower case arg 1
 0079C2 4450 7BF8/DC00_      084A8 47152  2                        EX    R5,'TR @R4(0),@R1'     Lower case arg 2
 0079C6                            47168  1                      END
                                   47172  1                      ¿þþþþþþþþþþþþþþþþþþþþþþÜ
                                   47173  1                      Ÿ  Do the comparison.  Ÿ
                                   47174  1                      ¾þþþþþþþþþþþþþþþþþþþþþþ»
 0079C6 4450 7BFE/D500_      084AE 47175  1                      EX    R5,'CLC @R2(0),@R4'    Compare strings
 0079CA 4770 7122/5EF0_      079D2 47191  1                      IF    EQ,'INCR R15'       If equal, set true return
 0079D2                            47210                       END
                                   47214
 0079D2 12FF/4770 713A_            47215                       IF    (R15,Z),'VRETURN BOOLEAN,FALSE'
 USING  VNENTRY,R6
 DROP   VNENTRY,R6
 0079EA 713E/47F0 7150_079EA 079D6 47273                       ELSE  'VRETURN BOOLEAN,TRUE'
 USING  VNENTRY,R6
 DROP   VNENTRY,R6
                                   47328
 007A00 1BFF                       47329                       CLEAR R15                 A-ok
 007A02 18D8/9808 D004_            47333                       PEND
 DROP   RMATWA-(4+36),R8
 DROP   *,R7
1FUNC     (FUNC2193) (12:45) (15MAR04) System Routines for Functions                                                        Page  187
0Current Usings:  (CP,R11) (CV,R12)
0Loc    Object Code    Addr1 Addr2  Stmt Lv Lineno    Source Statement           (Hibal 5, Asmedit 3.3)  HLASM R4.0  2004/03/15 12.45
+___    ______ ____    _____ _____  ____ __ ______    ______ _________
0                                  47359              ¿þþþþþþþþþþþþþþþþþþþþþþþþþþþþþþþþþþþþþþþþþþþþþþþþþþþþþþþþþþþþþþþþþþþþþÜ
                                   47360              Ÿ                                                                     Ÿ
                                   47361              Ÿ                                                                     Ÿ
                                   47362              Ÿ  SCAN_SKIP                                                          Ÿ
                                   47363              Ÿ                                                                     Ÿ
                                   47364              Ÿ  SEE COMMENTS AT START OF THIS MODULE                               Ÿ
                                   47365              Ÿ                                                                     Ÿ
                                                      ¾þþþþþþþþþþþþþþþþþþþþþþþþþþþþþþþþþþþþþþþþþþþþþþþþþþþþþþþþþþþþþþþþþþþþþ»
0007A10 50E0 D000/9008_      00000 47366              FNSCANSK PROC  FNWA
 USING  *,R7
 USING  FNWA-(4+36),R8
 007A2A 58E0 B08C/D2AF_      0008C 47416                       SCPUSH ,
 007A38 4120 791E/58E0_      08348 47422                       SETARGS '11SS'            1 ARG: STRING
 007A42 4770 70BE            07AE8 47428                       IF    Z,BEGIN
 USING  VNENTRY,R5                 47439  1                      USING VNENTRY,R5
 007A46 4151 0000            00000 47448  1                      LA    R5,ARG1(R1)
 007A4A 4120 5026            00026 47449  1                      LA    R2,VNSTRLOC         R2, R3 - LOC, LEN OF STRING
 007A4E 4830 5024            00024 47450  1                      LH    R3,VNSTRLEN
 007A52 1812/1803/58E0_            47451  1                      SCINIT (R2),(R3)
 007A64 5810 B08C/1B00_      0008C 47473  1                      SCAN  ,                   SCAN FOR 1ST TOKEN
 007AB2 12FF/4780 7092             47504  1                      IF    (R15,NZ),BEGIN
 007AB8 1B11                       47518  2                        CLEAR R1
 007ABA 1B00                       47522  2                        CLEAR R0
 007ABC                            47526  1                      END
 007ABC 58E0 B08C/581E_      0008C 47530  1                      SCINFO
 007ACA D74F 6000 6000_00000 00000 47539  1                      VRETURN STRING,(R1),(R0)
 USING  VNENTRY,R6
 DROP   VNENTRY,R6
 007AE6 1BFF                       47623  1                      CLEAR R15
 007AE8                            47627                       END
 007AE8 58E0 B08C/4BD0_      0008C 47631                       SCPOP
 007AF6 18D8/9808 D004_            47637                       PEND
 DROP   FNWA-(4+36),R8
 DROP   *,R7
1FUNC     (FUNC2193) (12:45) (15MAR04) System Routines for Functions                                                        Page  188
0Current Usings:  (VNENTRY,R5) (CP,R11) (CV,R12)
0Loc    Object Code    Addr1 Addr2  Stmt Lv Lineno    Source Statement           (Hibal 5, Asmedit 3.3)  HLASM R4.0  2004/03/15 12.45
+___    ______ ____    _____ _____  ____ __ ______    ______ _________
0                                  47663              ¿þþþþþþþþþþþþþþþþþþþþþþþþþþþþþþþþþþþþþþþþþþþþþþþþþþþþþþþþþþþþþþþþþþþþþÜ
                                   47664              Ÿ                                                                     Ÿ
                                   47665              Ÿ                                                                     Ÿ
                                   47666              Ÿ  SCAN_TOKEN                                                         Ÿ
                                   47667              Ÿ                                                                     Ÿ
                                   47668              Ÿ  SEE COMMENTS AT START OF THIS MODULE                               Ÿ
                                   47669              Ÿ                                                                     Ÿ
                                                      ¾þþþþþþþþþþþþþþþþþþþþþþþþþþþþþþþþþþþþþþþþþþþþþþþþþþþþþþþþþþþþþþþþþþþþþ»
0007B04 50E0 D000/9008_      00000 47670              FNSCANTK PROC  FNWA
 USING  *,R7
 USING  FNWA-(4+36),R8
 007B1E 58E0 B08C/D2AF_      0008C 47720                       SCPUSH
 007B2C 4120 782A/58E0_      08348 47726                       SETARGS '11SS'            1 ARG: STRING
 007B36 4770 70B0            07BCE 47732                       IF    Z,BEGIN
                                   47743  1                      USING VNENTRY,R5
 007B3A 4151 0000            00000 47745  1                      LA    R5,ARG1(R1)
 007B3E 4120 5026            00026 47746  1                      LA    R2,VNSTRLOC         R2, R3 - LOC, LEN OF STRING
 007B42 4830 5024            00024 47747  1                      LH    R3,VNSTRLEN
 007B46 1812/1803/58E0_            47748  1                      SCINIT (R2),(R3)
 007B58 5810 B08C/1B00_      0008C 47770  1                      SCAN  ,                   SCAN FOR 1ST TOKEN
 007BA6 12FF/4780 7092             47801  1                      IF    (R15,NZ),BEGIN      Scan errors...
 007BAC 1812/1803                  47815  2                        SETMSG (R2),(R3)           Give the remainder of the text
 007BB0                            47827  1                      END
 007BB0 D74F 6000 6000_00000 00000 47831  1                      VRETURN STRING,(R1),(R0)
 USING  VNENTRY,R6
 DROP   VNENTRY,R6
 007BCC 1BFF                       47915  1                      CLEAR R15
 007BCE                            47919                       END
 007BCE 58E0 B08C/4BD0_      0008C 47923                       SCPOP
 007BDC 18D8/9808 D004_            47929                       PEND
 DROP   FNWA-(4+36),R8
 DROP   *,R7
1FUNC     (FUNC2193) (12:45) (15MAR04) System Routines for Functions                                                        Page  189
0Current Usings:  (VNENTRY,R5) (CP,R11) (CV,R12)
0Loc    Object Code    Addr1 Addr2  Stmt Lv Lineno    Source Statement           (Hibal 5, Asmedit 3.3)  HLASM R4.0  2004/03/15 12.45
+___    ______ ____    _____ _____  ____ __ ______    ______ _________
0                                  47955              ¿þþþþþþþþþþþþþþþþþþþþþþþþþþþþþþþþþþþþþþþþþþþþþþþþþþþþþþþþþþþþþþþþþþþþþÜ
                                   47956              Ÿ                                                                     Ÿ
                                   47957              Ÿ  SCONVERT - CONVERT TO STRING                                       Ÿ
                                   47958              Ÿ                                                                     Ÿ
                                   47959              Ÿ                                                                     Ÿ
                                   47960              Ÿ  SEE COMMENTS AT START OF THIS MODULE                               Ÿ
                                   47961              Ÿ                                                                     Ÿ
                                                      ¾þþþþþþþþþþþþþþþþþþþþþþþþþþþþþþþþþþþþþþþþþþþþþþþþþþþþþþþþþþþþþþþþþþþþþ»
0007BEA 50E0 D000/9008_      00000 47962              FNSCONV  PROC
 USING  *,R7
 007C04 4120 77B0/58E0_      083B4 48001                       SETARGS '11S'             1 ARG: STRING
                                   48007                       COMMENT                   THE SETARG ROUTINE ABOVE DOES THE
                                   48008                       COMMENT                   WORK, CONVERTING THE INPUT ARG TO
                                   48009                       COMMENT                   A STRING,,, WHICH WE RETURN
 007C0E 4770 703A            07C3E 48010                       IF    Z,BEGIN
                                   48021  1                      USING VNENTRY,R5
 007C12 4151 0000            00000 48023  1                      LA    R5,ARG1(R1)
 007C16 4120 5026            00026 48024  1                      LA    R2,VNSTRLOC         R2 - STRING LOCATION
 007C1A 4830 5024            00024 48025  1                      LH    R3,VNSTRLEN         R3 - STRING LENGTH
 DROP   VNENTRY,R5                 48026  1                      DROP  R5
 007C1E D74F 6000 6000_00000 00000 48033  1                      VRETURN STRING,(R2),(R3)
 USING  VNENTRY,R6
 DROP   VNENTRY,R6
 007C3E                            48119                       END
 007C3E 18D8/9808 D004_            48123                       PEND
 DROP   *,R7
1FUNC     (FUNC2193) (12:45) (15MAR04) System Routines for Functions                                                        Page  190
0Current Usings:  (CP,R11) (CV,R12)
0Loc    Object Code    Addr1 Addr2  Stmt Lv Lineno    Source Statement           (Hibal 5, Asmedit 3.3)  HLASM R4.0  2004/03/15 12.45
+___    ______ ____    _____ _____  ____ __ ______    ______ _________
0                                  48144              ¿þþþþþþþþþþþþþþþþþþþþþþþþþþþþþþþþþþþþþþþþþþþþþþþþþþþþþþþþþþþþþþþþþþþþþÜ
                                   48145              Ÿ                                                                     Ÿ
                                   48146              Ÿ                                                                     Ÿ
                                   48147              Ÿ  SDUMP(MEMORY ADDR, MEMORY LENGTH)                                  Ÿ
                                   48148              Ÿ                                                                     Ÿ
                                   48149              Ÿ  BOTH ARGUMENTS ARE INTEGER NUMBERS, 2ND ARG IS OPTIONAL (DFT=4)    Ÿ
                                   48150              Ÿ                                                                     Ÿ
                                   48151              Ÿ                                                                     Ÿ
                                   48152              Ÿ  SEE COMMENTS AT START OF THIS MODULE                               Ÿ
                                   48153              Ÿ                                                                     Ÿ
                                                      ¾þþþþþþþþþþþþþþþþþþþþþþþþþþþþþþþþþþþþþþþþþþþþþþþþþþþþþþþþþþþþþþþþþþþþþ»
0007C4C 50E0 D000/9008_      00000 48154              FNSDUMP  PROC  ,
 USING  *,R7
 007C66 4120 76EA/58E0_      08350 48193                       SETARGS '12II'            1-2 ARGS: INT, INT
 007C70 4770 709E            07D04 48199                       IF    Z,BEGIN
 USING  VNENTRY,R5                 48210  1                      USING VNENTRY,R5
 007C74 4151 0000            00000 48219  1                      LA    R5,ARG1(R1)
 007C78 5820 5024            00024 48220  1                      L     R2,VNVALUE          R2 - 1ST ARG = MEMORY LOCATION
 007C7C 9001 D000/41D0_      00000 48221  1                      XPUSH R0,R1
 007C84 1812                       48224  1                      LR    R1,R2
 007C86 4100 0004            00004 48225  1                      LA    R0,4                CHECK ADDRESS VALIDITY FOR READ
                                   48226  1           *        LA    R0,MAXSTRLN         CHECK ADDRESS VALIDITY FOR READ
 007C8A 58E0 76EE/0DEE       08354 48227  1                      VCALL CHKRADDR            ROUTINE IS IN DEBUG MODULE
 007C90 4BD0 7742/9801_      083A8 48231  1                      XPOP  R0,R1
 007C98 12FF/4780 7046             48234  1                      IF    (R15,NZ),BEGIN
 007C9E 4120 0001/58E0_      00001 48248  2                        BADARG 1
 007CA8 47F0 709E            07D04 48259  2                        EXIT  FNSDUMP
 007CAC                            48262  1                      END
                                   48266  1                      COMMENT                   R3 - 2ND ARG = MEMORY LENGTH
 007CAC 5900 76C6/4770_      0832C 48267  1                      IF    (R0,EQ,1),BEGIN
 007CB4 4130 0004            00004 48284  2                        LA    R3,4                DEFAULT IS 4  (R0 IS ARG COUNT)
 007CB8                            48285  1                      END
 007CB8 5900 76BE/4770_      08324 48289  1                      IF    (R0,EQ,2),BEGIN
 007CC0 4151 0150            00150 48306  2                        LA    R5,ARG2(R1)
 007CC4 5830 5024            00024 48307  2                        L     R3,VNVALUE          R3 - MEM LEN
 007CC8 1233/4740 7070_            48308  2                        IF    ((R3,NEG),OR,(R3,GT,MAXSTRLN)),BEGIN
 007CD6 4120 0002/58E0_      00002 48338  3                          BADARG 2
 007CE0 47F0 709E            07D04 48349  3                          EXIT  FNSDUMP
 007CE4                            48352  2                        END
 007CE4                            48356  1                      END
 007CE4 D74F 6000 6000_00000 00000 48360  1                      VRETURN STRING,(R2),(R3)
 USING  VNENTRY,R6
 DROP   VNENTRY,R6
 007D04                            48446                       END
 007D04 18D8/9808 D004_            48450                       PEND
 DROP   *,R7
1FUNC     (FUNC2193) (12:45) (15MAR04) System Routines for Functions                                                        Page  191
0Current Usings:  (VNENTRY,R5) (CP,R11) (CV,R12)
0Loc    Object Code    Addr1 Addr2  Stmt Lv Lineno    Source Statement           (Hibal 5, Asmedit 3.3)  HLASM R4.0  2004/03/15 12.45
+___    ______ ____    _____ _____  ____ __ ______    ______ _________
0                                  48471              ¿þþþþþþþþþþþþþþþþþþþþþþþþþþþþþþþþþþþþþþþþþþþþþþþþþþþþþþþþþþþþþþþþþþþþþÜ
                                   48472              Ÿ                                                                     Ÿ
                                   48473              Ÿ                                                                     Ÿ
                                   48474              Ÿ  SHEX - CONVERT HEX STRING TO STRING                                Ÿ
                                   48475              Ÿ                                                                     Ÿ
                                   48476              Ÿ                                                                     Ÿ
                                   48477              Ÿ  SEE COMMENTS AT START OF THIS MODULE                               Ÿ
                                   48478              Ÿ                                                                     Ÿ
                                                      ¾þþþþþþþþþþþþþþþþþþþþþþþþþþþþþþþþþþþþþþþþþþþþþþþþþþþþþþþþþþþþþþþþþþþþþ»
0000000                00000 000EB 48479              FNSHWA   RECORD BEGIN
                                   48487  1           FNSHTEMP   DS    CL(&LINESZ)
 000000                                   1          +FNSHTEMP   DS    CL(235)
 0000EB                000EB 000EB 48488                       END
                                   48497              þþþþ
 007D12 50E0 D000/9008_      00000 48498              FNSHEX   PROC  FNSHWA
 USING  *,R7
 USING  FNSHWA-(4+36),R8
                                   48548                       USING VNENTRY,R5
 007D2C 4120 76BA/58E0_      083E6 48550                       SETARGS '11X'
 007D36 4770 7112            07E3E 48556                       IF    Z,BEGIN
 007D3A 4151 0000            00000 48567  1                      LA    R5,ARG1(R1)
 007D3E 9502 5020/4770_00020       48568  1                      IF    VNNUMB,BEGIN        IF INTEGER FORMAT NUMBER,,,
 007D46 D503 502B 762C 0002B 08358 48583  2                        CLC   VNVALUE+7(4),=X'00000000'
 007D4C 4780 7044            07D70 48584  2                        IF    NE,BEGIN            IF NOT INTGER, ERROR
 007D50 4110 76BD/4100_      083E9 48595  3                          TSEG  'Invalid number format. '
 007D62 4120 0001/58E0_      00001 48613  3                          BADARG 1
 007D6C 47F0 7112            07E3E 48624  3                          EXIT  FNSHEX
 007D70                            48627  2                        END
 007D70 1825                       48631  2                        LR    R2,R5
 007D72 58E0 7630/0DEE       0835C 48632  2                        VCALL MAKEINT                CONVERT TO INTEGER,,,
 007D78 4780 705E            07D8A 48636  2                        IF    NZ,BEGIN
 007D7C 4120 0001/58E0_      00001 48647  3                          BADARG 1
 007D86 47F0 7112            07E3E 48658  3                          EXIT  FNSHEX
 007D8A                            48661  2                        END
 007D8A 4110 5024            00024 48665  2                        LA    R1,VNVALUE             PRUNE OFF HIGH ORDER ZEROS
 007D8E 4100 0004            00004 48666  2                        LA    R0,4
 007D92 9500 1000/4770_00000       48667  2                        WHILE ((@R1,EQ,X'0'),AND,(R0,GT,1)),BEGIN
 007DA2 4111 0001            00001 48701  3                          LA    R1,1(R1)
 007DA6 0600                       48702  3                          DECR  R0
 007DA8 47F0 7066            07D92 48704  2                        END
 007DAC D74F 6000 6000_00000 00000 48709  2                        VRETURN STRING,(R1),(R0)     RETURN AS STRING
 USING  VNENTRY,R6
 DROP   VNENTRY,R6
 007DC8                            48793  1                      END
 007DC8 9502 5020/4780_00020       48797  1                      IF    ~VNNUMB,BEGIN       OTHER WISE,  GET HEX STRING ARG
 007DD0 1825                       48812  2                        LR    R2,R5
 007DD2 58E0 7634/0DEE       08360 48813  2                        VCALL MAKESTR
 007DD8 4780 70BE            07DEA 48817  2                        IF    NZ,BEGIN
 007DDC 4120 0001/58E0_      00001 48828  3                          BADARG 1
 007DE6 47F0 7112            07E3E 48839  3                          EXIT  FNSHEX
 007DEA                            48842  2                        END
 007DEA 4800 5024            00024 48846  2                        LH    R0,VNSTRLEN
 007DEE 4110 5026            00026 48847  2                        LA    R1,VNSTRLOC
1FUNC     (FUNC2193) (12:45) (15MAR04) System Routines for Functions                                                        Page  192
0Current Usings:  (VNENTRY,R5) (*,R7) (FNSHWA-(4+36),R8) (CP,R11) (CV,R12)
0Loc    Object Code    Addr1 Addr2  Stmt Lv Lineno    Source Statement           (Hibal 5, Asmedit 3.3)  HLASM R4.0  2004/03/15 12.45
+___    ______ ____    _____ _____  ____ __ ______    ______ _________
0007DF2 4120 8028            00000 48848  2                        LA    R2,FNSHTEMP
 007DF6 58E0 7638/0DEE       08364 48849  2                        VCALL MAKEHEX                CONVERT TO HEX,, AND SAVE AS
                                   48853  2                        COMMENT                      AS STRING
 007DFC 4780 70F4            07E20 48854  2                        IF    NZ,BEGIN
 007E00 4110 76D4/4100_      08400 48865  3                          TSEG  'Invalid hex string.  '
 007E12 4120 0001/58E0_      00001 48883  3                          BADARG 1
 007E1C 47F0 7112            07E3E 48894  3                          EXIT  FNSHEX
 007E20                            48897  2                        END
 007E20 D74F 6000 6000_00000 00000 48901  2                        VRETURN STRING,(R2),(R0)
 USING  VNENTRY,R6
 DROP   VNENTRY,R6
 007E3E                            48986  1                      END
 007E3E                            48990                       END
 007E3E 18D8/9808 D004_            48994                       PEND
 DROP   FNSHWA-(4+36),R8
 DROP   *,R7
 DROP   VNENTRY,R5                 49019                       DROP  R5
1FUNC     (FUNC2193) (12:45) (15MAR04) System Routines for Functions                                                        Page  193
0Current Usings:  (CP,R11) (CV,R12)
0Loc    Object Code    Addr1 Addr2  Stmt Lv Lineno    Source Statement           (Hibal 5, Asmedit 3.3)  HLASM R4.0  2004/03/15 12.45
+___    ______ ____    _____ _____  ____ __ ______    ______ _________
0                                  49027              ¿þþþþþþþþþþþþþþþþþþþþþþþþþþþþþþþþþþþþþþþþþþþþþþþþþþþþþþþþþþþþþþþþþþþþþÜ
                                   49028              Ÿ                                                                     Ÿ
                                   49029              Ÿ  SIGN Function.                                                     Ÿ
                                   49030              Ÿ                                                                     Ÿ
                                   49031              Ÿ    SIGN(??????????)                                                 Ÿ
                                   49032              Ÿ                                                                     Ÿ
                                                      ¾þþþþþþþþþþþþþþþþþþþþþþþþþþþþþþþþþþþþþþþþþþþþþþþþþþþþþþþþþþþþþþþþþþþþþ»
0007E4C 50E0 D000/9008_      00000 49033              FNSIGN   PROC  ,
 USING  *,R7
 007E66 4110 7544/4100_      083AA 49072                       TSEG  'Not Yet!  '
 007E78 4120 0001/58E0_      00001 49090                       BADARG 1
 007E82 18D8/9808 D004_            49101                       PEND
 DROP   *,R7
1FUNC     (FUNC2193) (12:45) (15MAR04) System Routines for Functions                                                        Page  194
0Current Usings:  (CP,R11) (CV,R12)
0Loc    Object Code    Addr1 Addr2  Stmt Lv Lineno    Source Statement           (Hibal 5, Asmedit 3.3)  HLASM R4.0  2004/03/15 12.45
+___    ______ ____    _____ _____  ____ __ ______    ______ _________
0                                  49122              ¿þþþþþþþþþþþþþþþþþþþþþþþþþþþþþþþþþþþþþþþþþþþþþþþþþþþþþþþþþþþþþþþþþþþþþÜ
                                   49123              Ÿ                                                                     Ÿ
                                   49124              Ÿ  SIZE - GET STRING SIZE                                             Ÿ
                                   49125              Ÿ                                                                     Ÿ
                                   49126              Ÿ  SIZE(STRING)                                                       Ÿ
                                   49127              Ÿ                                                                     Ÿ
                                   49128              Ÿ                                                                     Ÿ
                                   49129              Ÿ  SEE COMMENTS AT START OF THIS MODULE                               Ÿ
                                   49130              Ÿ                                                                     Ÿ
                                                      ¾þþþþþþþþþþþþþþþþþþþþþþþþþþþþþþþþþþþþþþþþþþþþþþþþþþþþþþþþþþþþþþþþþþþþþ»
0007E90 50E0 D000/9008_      00000 49131              FNSIZE   PROC  ,
 USING  *,R7
 007EAA 4120 750A/58E0_      083B4 49170                       SETARGS '11S'             1 ARG: STRING
 007EB4 4770 7030            07EDA 49176                       IF    Z,BEGIN
 USING  VNENTRY,R5                 49187  1                      USING VNENTRY,R5
 007EB8 4151 0000            00000 49196  1                      LA    R5,ARG1(R1)
 007EBC 4830 5024            00024 49197  1                      LH    R3,VNSTRLEN         R3 - STRING LENGTH
 DROP   VNENTRY,R5                 49198  1                      DROP  R5
 007EC0 D74F 6000 6000_00000 00000 49205  1                      VRETURN INTEGER,(R3)
 USING  VNENTRY,R6
 DROP   VNENTRY,R6
 007EDA                            49252                       END
 007EDA 18D8/9808 D004_            49256                       PEND
 DROP   *,R7
1FUNC     (FUNC2193) (12:45) (15MAR04) System Routines for Functions                                                        Page  195
0Current Usings:  (CP,R11) (CV,R12)
0Loc    Object Code    Addr1 Addr2  Stmt Lv Lineno    Source Statement           (Hibal 5, Asmedit 3.3)  HLASM R4.0  2004/03/15 12.45
+___    ______ ____    _____ _____  ____ __ ______    ______ _________
0                                  49277              ¿þþþþþþþþþþþþþþþþþþþþþþþþþþþþþþþþþþþþþþþþþþþþþþþþþþþþþþþþþþþþþþþþþþþþþÜ
                                   49278              Ÿ                                                                     Ÿ
                                   49279              Ÿ  SPACE Function.                                                    Ÿ
                                   49280              Ÿ                                                                     Ÿ
                                   49281              Ÿ    SPACE(??????????)                                                Ÿ
                                   49282              Ÿ                                                                     Ÿ
                                                      ¾þþþþþþþþþþþþþþþþþþþþþþþþþþþþþþþþþþþþþþþþþþþþþþþþþþþþþþþþþþþþþþþþþþþþþ»
0007EE8 50E0 D000/9008_      00000 49283              FNSPACE  PROC  ,
 USING  *,R7
 007F02 4110 74A8/4100_      083AA 49322                       TSEG  'Not Yet!  '
 007F14 4120 0001/58E0_      00001 49340                       BADARG 1
 007F1E 18D8/9808 D004_            49351                       PEND
 DROP   *,R7
1FUNC     (FUNC2193) (12:45) (15MAR04) System Routines for Functions                                                        Page  196
0Current Usings:  (CP,R11) (CV,R12)
0Loc    Object Code    Addr1 Addr2  Stmt Lv Lineno    Source Statement           (Hibal 5, Asmedit 3.3)  HLASM R4.0  2004/03/15 12.45
+___    ______ ____    _____ _____  ____ __ ______    ______ _________
0                                  49372              ¿þþþþþþþþþþþþþþþþþþþþþþþþþþþþþþþþþþþþþþþþþþþþþþþþþþþþþþþþþþþþþþþþþþþþþÜ
                                   49373              Ÿ                                                                     Ÿ
                                   49374              Ÿ  SQUASH -- SQUASH Function.  Compresses multiple blanks to a        Ÿ
                                   49375              Ÿ    a single blank.                                                  Ÿ
                                   49376              Ÿ                                                                     Ÿ
                                   49377              Ÿ    SQUASH(string)                                                   Ÿ
                                   49378              Ÿ                                                                     Ÿ
                                                      ¾þþþþþþþþþþþþþþþþþþþþþþþþþþþþþþþþþþþþþþþþþþþþþþþþþþþþþþþþþþþþþþþþþþþþþ»
0007F2C 50E0 D000/9008_      00000 49379              FNSQUASH PROC  ,
 USING  *,R7
 007F46 4120 7402/58E0_      08348 49418                       SETARGS '11SS'            1 arg: string
 007F50 4770 7042            07F88 49424                       IF    Z,BEGIN             OK...
 007F54 4151 0000            00000 49435  1                      LA    R5,ARG1(R1)
 USING  VNENTRY,R5                 49436  1                      WITH  (VNENTRY,R5)
 007F58 4110 5026/4800_      00026 49449  1                      SETMSG VNSTRLOC,LH:VNSTRLEN
                                   49462  1
 007F60 58E0 7426/0DEE       0836C 49463  1                      VCALL LRTRIM              Zot leading/trailing blanks
 007F66 58E0 742A/0DEE       08370 49467  1                      VCALL SQSHRTN             Squash multiple blanks
                                   49471  1
 007F6C D74F 6000 6000_00000 00000 49472  1                      VRETURN STRING,(R1),(R0)
 USING  VNENTRY,R6
 DROP   VNENTRY,R6
 DROP   VNENTRY,R5                 49556                       END
                                   49565
 007F88 18D8/9808 D004_            49566                       PEND
 DROP   *,R7
1FUNC     (FUNC2193) (12:45) (15MAR04) System Routines for Functions                                                        Page  197
0Current Usings:  (CP,R11) (CV,R12)
0Loc    Object Code    Addr1 Addr2  Stmt Lv Lineno    Source Statement           (Hibal 5, Asmedit 3.3)  HLASM R4.0  2004/03/15 12.45
+___    ______ ____    _____ _____  ____ __ ______    ______ _________
0000000                00000 00002 49587              STRIPWA  RECORD BEGIN
 000000 00                         49595  1           STRIPFLG   FLAG
 STRIPFLG.STRIPFL  80 ONES         49599  1                      FLAG  STRIPFL             - Strip leading chars
 STRIPFLG.STRIPFT  40 ONES         49604  1                      FLAG  STRIPFT             - Strip trailing chars
                                   49609  1
 000001                            49610  1           STRIPCHR   DS    C                   Char to strip (usually a blank)
 000002                00002 00002 49611                       END
-                                  49621              ¿þþþþþþþþþþþþþþþþþþþþþþþþþþþþþþþþþþþþþþþþþþþþþþþþþþþþþþþþþþþþþþþþþþþþþÜ
                                   49622              Ÿ                                                                     Ÿ
                                   49623              Ÿ  STRIP -- STRIP Function.                                           Ÿ
                                   49624              Ÿ                                                                     Ÿ
                                   49625              Ÿ    STRIP(string,option-string,char)                                 Ÿ
                                   49626              Ÿ                                                                     Ÿ
                                                      ¾þþþþþþþþþþþþþþþþþþþþþþþþþþþþþþþþþþþþþþþþþþþþþþþþþþþþþþþþþþþþþþþþþþþþþ»
0007F96 50E0 D000/9008_      00000 49627              FNSTRIP  PROC  STRIPWA
 USING  *,R7
 USING  STRIPWA-(4+36),R8
 007FB0 D701 8028 8028 00000 00000 49677                       CLEAR STRIPWA
 007FB6 96C0 8028      00000       49684                       SET   STRIPFL+STRIPFT     Strip leading and trailing
 007FBA 9240 8029      00001       49693                       MVI   STRIPCHR,C' '       ...blanks
                                   49694
 007FBE 4120 7465/58E0_      08415 49695                       SETARGS '13SSS'           1-3 args: string,string,string
 007FC8 4770 7194            08144 49701                       IF    Z,BEGIN             OK...
 USING  VNENTRY,R5                 49712  1                      WITH  (VNENTRY,R5)
                                   49725  1                      ¿þþþþþþþþþþþþþþþþþþþþþþþþþþÜ
                                   49726  1                      Ÿ  Arg#2:  Option string.  Ÿ
                                   49727  1                      ¾þþþþþþþþþþþþþþþþþþþþþþþþþþ»
 007FCC 5900 7374/4750_      08324 49728  1                      IF    (R0,GE,2),BEGIN     Check options...
 007FD4 4151 0150            00150 49745  2                        LA    R5,ARG2(R1)
 007FD8 D501 73D4 5024_08384 00024 49746  2                        IF    (VNSTRLEN,GT,1),BEGIN
 007FE2 4110 746A/4100_      0841A 49764  3                          TSEG  'Expecting one character options string.  '
 007FF4 4120 0002/58E0_      00002 49782  3                          BADARG 2
 007FFE 47F0 7194            08144 49793  3                          EXIT  FNSTRIP
 008002                            49796  2                        END
                                   49800  2
 008002 D501 73D4 5024_08384 00024 49801  2                        IF    (VNSTRLEN,EQ,1),BEGIN  Check option char...
 00800C 943F 8028      00000       49819  3                          CLEAR STRIPFL+STRIPFT
 008010 4130 5026            00026 49829  3                          LA    R3,VNSTRLOC
 008014 95D3 3000/4780_00000       49830  3                          IF     ((@R3,EQ,'L'),OR,(@R3,EQ,'l')),'SET STRIPFL'
 008028 707C/47F0 7090_08028 08022 49872  3                          ELSEIF ((@R3,EQ,'T'),OR,(@R3,EQ,'t')),'SET STRIPFT'
 008040 7094/47F0 70A8_08040 0803A 49923  3                          ELSEIF ((@R3,EQ,'B'),OR,(@R3,EQ,'b')),BEGIN
 008054 96C0 8028      00000       49963  4                            SET   STRIPFL+STRIPFT
 008058                            49972  3                          END
 008058 70AC/47F0 70DE 08058 08052 49976  3                          ELSE  BEGIN               Bad option char
 00805C 4110 7493/4100_      08443 49987  4                            TSEG  'Expecting string of "L"=leading, "T"=trailing, '
 00806E 4110 74C2/4100_      08472 50005  4                            TSEG  '"B"=both.',,CR
 008080 4120 0002/58E0_      00002 50023  4                            BADARG 2
 00808A 47F0 7194            08144 50034  4                            EXIT  FNSTRIP
 00808E                            50037  3                          END
 00808E                            50041  2                        END
 00808E                            50045  1                      END
1FUNC     (FUNC2193) (12:45) (15MAR04) System Routines for Functions                                                        Page  198
0Current Usings:  (VNENTRY,R5) (*,R7) (STRIPWA-(4+36),R8) (CP,R11) (CV,R12)
0Loc    Object Code    Addr1 Addr2  Stmt Lv Lineno    Source Statement           (Hibal 5, Asmedit 3.3)  HLASM R4.0  2004/03/15 12.45
+___    ______ ____    _____ _____  ____ __ ______    ______ _________
0                                  50049  1                      ¿þþþþþþþþþþþþþþþþþþþþþþþþþþÜ
                                   50050  1                      Ÿ  Arg#3:  Char to strip.  Ÿ
                                   50051  1                      ¾þþþþþþþþþþþþþþþþþþþþþþþþþþ»
 00808E 5900 736C/4750_      0831C 50052  1                      IF    (R0,GE,3),BEGIN     Check char...
 008096 4151 02A0            002A0 50069  2                        LA    R5,ARG3(R1)
 00809A D501 73D4 5024_08384 00024 50070  2                        IF    (VNSTRLEN,GT,1),BEGIN
 0080A4 4110 74CB/4100_      0847B 50088  3                          TSEG  'Expecting one character string.  '
 0080B6 4120 0003/58E0_      00003 50106  3                          BADARG 3
 0080C0 47F0 7194            08144 50117  3                          EXIT  FNSTRIP
 0080C4                            50120  2                        END
                                   50124  2
 0080C4 D501 73D4 5024_08384 00024 50125  2                        IF    (VNSTRLEN,EQ,1),BEGIN  Save strip char...
 0080CE D200 8029 5026 00001 00026 50143  3                          MVC   STRIPCHR,VNSTRLOC   Save char
 0080D4                            50144  2                        END
 0080D4                            50148  1                      END
                                   50152  1
 0080D4 4151 0000            00000 50153  1                      LA    R5,ARG1(R1)
 0080D8 4110 5026            00026 50154  1                      LA    R1,VNSTRLOC         Source string loc
 0080DC 4800 5024            00024 50155  1                      LH    R0,VNSTRLEN         ...and len
                                   50156  1                      ¿þþþþþþþþþþþþþþþþþþþþþþþþþþþþþÜ
                                   50157  1                      Ÿ  Strip leading characters.  Ÿ
                                   50158  1                      ¾þþþþþþþþþþþþþþþþþþþþþþþþþþþþþ»
 0080E0 9180 8028/47E0_00000       50159  1                      IF    STRIPFL,BEGIN       Strip leading chars...
 0080E8 1200/47D0 7152             50174  2                        WHILE (R0,POS),BEGIN
 0080EE D500 8029 1000_00001 00000 50190  3                          IF    (@R1,NE,STRIPCHR),EXIT  Stop
 0080F8 4110 1001            00001 50210  3                          LA    R1,@R1+1
 0080FC 0600                       50211  3                          DECR  R0
 0080FE 47F0 7138            080E8 50213  2                        END
 008102                            50218  1                      END
                                   50222  1                      ¿þþþþþþþþþþþþþþþþþþþþþþþþþþþþþþÜ
                                   50223  1                      Ÿ  Strip trailing characters.  Ÿ
                                   50224  1                      ¾þþþþþþþþþþþþþþþþþþþþþþþþþþþþþþ»
 008102 9140 8028/47E0_00000       50225  1                      IF    STRIPFT,BEGIN       Strip trailing chars...
 00810A 1831                       50240  2                        LR    R3,R1
 00810C 1A30                       50241  2                        AR    R3,R0
 00810E 0630                       50242  2                        DECR  R3
                                   50244  2
 008110 1200/47D0 7178             50245  2                        WHILE (R0,POS),BEGIN
 008116 D500 8029 3000_00001 00000 50261  3                          IF    (@R3,NE,STRIPCHR),EXIT  Stop
 008120 0630                       50281  3                          DECR  R3
 008122 0600                       50283  3                          DECR  R0
 008124 47F0 7160            08110 50285  2                        END
 008128                            50290  1                      END
                                   50294  1
 008128 D74F 6000 6000_00000 00000 50295  1                      VRETURN STRING,(R1),(R0)  Return stripped string
 USING  VNENTRY,R6
 DROP   VNENTRY,R6
 DROP   VNENTRY,R5                 50379                       END
                                   50388
 008144 18D8/9808 D004_            50389                       PEND
 DROP   STRIPWA-(4+36),R8
 DROP   *,R7
1FUNC     (FUNC2193) (12:45) (15MAR04) System Routines for Functions                                                        Page  199
0Current Usings:  (CP,R11) (CV,R12)
0Loc    Object Code    Addr1 Addr2  Stmt Lv Lineno    Source Statement           (Hibal 5, Asmedit 3.3)  HLASM R4.0  2004/03/15 12.45
+___    ______ ____    _____ _____  ____ __ ______    ______ _________
0                                  50415              ¿þþþþþþþþþþþþþþþþþþþþþþþþþþþþþþþþþþþþþþþþþþþþþþþþþþþþþþþþþþþþþþþþþþþþþÜ
                                   50416              Ÿ                                                                     Ÿ
                                   50417              Ÿ                                                                     Ÿ
                                   50418              Ÿ  SUBSTR - GET SUBSTRING                                             Ÿ
                                   50419              Ÿ                                                                     Ÿ
                                   50420              Ÿ  SUBSTR(STRING,FIRST_CHAR,LENGTH),,,                                Ÿ
                                   50421              Ÿ                                                                     Ÿ
                                   50422              Ÿ                                                                     Ÿ
                                   50423              Ÿ  SEE ENTRY/EXIT CONVENTIONS IN COMMENT AT START                     Ÿ
                                   50424              Ÿ  OF THIS MODULE.                                                    Ÿ
                                   50425              Ÿ                                                                     Ÿ
                                                      ¾þþþþþþþþþþþþþþþþþþþþþþþþþþþþþþþþþþþþþþþþþþþþþþþþþþþþþþþþþþþþþþþþþþþþþ»
0008152 50E0 D000/9008_      00000 50426              FNSUBSTR PROC  ,
 USING  *,R7
 00816C 4120 7330/58E0_      0849C 50465                       SETARGS '23SII'           2-3 ARGS: STRING, INT, INT
 008176 4770 70A6            08212 50471                       IF    Z,BEGIN
 USING  VNENTRY,R5                 50482  1                      USING VNENTRY,R5
 00817A 4151 0000            00000 50491  1                      LA    R5,ARG1(R1)
 00817E 4120 5026            00026 50492  1                      LA    R2,VNSTRLOC         R2,R3 - STRING LOC, LEN
 008182 4830 5024            00024 50493  1                      LH    R3,VNSTRLEN
 008186 4151 0150            00150 50494  1                      LA    R5,ARG2(R1)
 00818A 5840 5024            00024 50495  1                      L     R4,VNVALUE          R4 - SUBSTRING OFFSET
 00818E 1244/47D0 7030_            50496  1                      IF    ((R4,NP),OR,(R4,GT,MAXSTRLN)),BEGIN
 00819C 4120 0002/58E0_      00002 50526  2                        BADARG 2
 0081A6 47F0 70A6            08212 50537  2                        EXIT  FNSUBSTR
 0081AA                            50540  1                      END
 0081AA 0640                       50544  1                      BCTR  R4,0
 0081AC 5900 71B0/4770_      0831C 50545  1                      IF    (R0,EQ,3),BEGIN
 0081B4 4151 02A0            002A0 50562  2                        LA    R5,ARG3(R1)
 0081B8 5850 5024            00024 50563  2                        L     R5,VNVALUE          R5 - SUBSTRING LENGTH
 0081BC                            50564  1                      END
 DROP   VNENTRY,R5                 50568  1                      DROP  R5
 0081BC 5900 71B8/4770_      08324 50575  1                      IF    (R0,EQ,2),BEGIN
 0081C4 1853                       50592  2                        LR    R5,R3
 0081C6 1B54                       50593  2                        SR    R5,R4
 0081C8 5950 7208/47B0_      08374 50594  2                        IF    (R5,LT,0),' SR R5,R5 '
 0081D2                            50617  1                      END
 0081D2 1255/4740 7074_            50621  1                      IF    ((R5,NEG),OR,(R5,GT,MAXSTRLN)),BEGIN
 0081E0 4120 0003/58E0_      00003 50651  2                        BADARG 3
 0081EA 47F0 70A6            08212 50662  2                        EXIT  FNSUBSTR
 0081EE                            50665  1                      END
 0081EE 1A24                       50669  1                      AR    R2,R4
 0081F0 1B34                       50670  1                      SR    R3,R4
 0081F2 1233/47B0 708E_            50671  1                      IF    (R3,NEG),' SR R3,R3 '
 0081FA 5630 720C            08378 50691  1                      O     R3,=X'40000000'
 USING  VNENTRY,R6                 50692  1                      USING VNENTRY,R6
 0081FE D74F 6000 6000 00000 00000 50701  1                      CLEAR VNENTRY
 008204 9201 6020      00020       50708  1                      SET   VNSTRING
 008208 4140 6026            00026 50714  1                      LA    R4,VNSTRLOC         R4,R5 - SUBSTRING LOC,LEN
 00820C 4050 6024            00024 50715  1                      STH   R5,VNSTRLEN
 008210 0E42                       50716  1                      MVCL  R4,R2               MOVE SUBSTRING
 DROP   VNENTRY,R6                 50717  1                      DROP  R6
 008212                            50724                       END
1FUNC     (FUNC2193) (12:45) (15MAR04) System Routines for Functions                                                        Page  200
0Current Usings:  (*,R7) (CP,R11) (CV,R12)
0Loc    Object Code    Addr1 Addr2  Stmt Lv Lineno    Source Statement           (Hibal 5, Asmedit 3.3)  HLASM R4.0  2004/03/15 12.45
+___    ______ ____    _____ _____  ____ __ ______    ______ _________
0                                  50728
 008212 18D8/9808 D004_            50729                       PEND
 DROP   *,R7
1FUNC     (FUNC2193) (12:45) (15MAR04) System Routines for Functions                                                        Page  201
0Current Usings:  (CP,R11) (CV,R12)
0Loc    Object Code    Addr1 Addr2  Stmt Lv Lineno    Source Statement           (Hibal 5, Asmedit 3.3)  HLASM R4.0  2004/03/15 12.45
+___    ______ ____    _____ _____  ____ __ ______    ______ _________
0                                  50750              ¿þþþþþþþþþþþþþþþþþþþþþþþþþþþþþþþþþþþþþþþþþþþþþþþþþþþþþþþþþþþþþþþþþþþþþÜ
                                   50751              Ÿ                                                                     Ÿ
                                   50752              Ÿ  SUBWORD Function.                                                  Ÿ
                                   50753              Ÿ                                                                     Ÿ
                                   50754              Ÿ    SUBWORD(??????????)                                              Ÿ
                                   50755              Ÿ                                                                     Ÿ
                                                      ¾þþþþþþþþþþþþþþþþþþþþþþþþþþþþþþþþþþþþþþþþþþþþþþþþþþþþþþþþþþþþþþþþþþþþþ»
0008220 50E0 D000/9008_      00000 50756              FNSUBWRD PROC  ,
 USING  *,R7
 00823A 4110 7170/4100_      083AA 50795                       TSEG  'Not Yet!  '
 00824C 4120 0001/58E0_      00001 50813                       BADARG 1
 008256 41F0 0004            00004 50824                       LA    R15,4
 00825A 18D8/9808 D004_            50825                       PEND
 DROP   *,R7
1FUNC     (FUNC2193) (12:45) (15MAR04) System Routines for Functions                                                        Page  202
0Current Usings:  (CP,R11) (CV,R12)
0Loc    Object Code    Addr1 Addr2  Stmt Lv Lineno    Source Statement           (Hibal 5, Asmedit 3.3)  HLASM R4.0  2004/03/15 12.45
+___    ______ ____    _____ _____  ____ __ ______    ______ _________
0                                  50846              ¿þþþþþþþþþþþþþþþþþþþþþþþþþþþþþþþþþþþþþþþþþþþþþþþþþþþþþþþþþþþþþþþþþþþþþÜ
                                   50847              Ÿ                                                                     Ÿ
                                   50848              Ÿ  SYSTEM_UP boolean variable.                                        Ÿ
                                   50849              Ÿ                                                                     Ÿ
                                                      ¾þþþþþþþþþþþþþþþþþþþþþþþþþþþþþþþþþþþþþþþþþþþþþþþþþþþþþþþþþþþþþþþþþþþþþ»
0000000                00000 00008 50850              SYSUPWA  RECORD BEGIN
 000000                            50858  1           SYSUPNM    DS    CL8                 Subsystem name
 000008                00008 00008 50859                       END
                                   50868              þþþþ
 008268 50E0 D000/9008_      00000 50869              FNSYSUP  PROC  SYSUPWA
 USING  *,R7
 USING  SYSUPWA-(4+36),R8
 008282 4120 7132/58E0_      083B4 50919                       SETARGS '11S'             1 arg: string
 00828C 4770 707E            08300 50925                       IF    Z,BEGIN             OK...
 008290 4151 0000            00000 50936  1                      LA    R5,ARG1(R1)
 USING  VNENTRY,R5                 50937  1                      WITH  (VNENTRY,R5)
                                   50950  1
 008294 4110 5026/4800_      00026 50951  1                      SETMSG VNSTRLOC,LH:VNSTRLEN  Subsystem name
 00829C 5900 70FA/47D0_      0837C 50964  1                      CEIL  R0,L'SYSUPNM        Not too long
 0082A8 D207 8028 C4D8 00000 004D8 50983  1                      MVC   SYSUPNM,CVBLANKS
 0082AE 18F0                       50984  1                      LR    R15,R0
 0082B0 06F0/12FF/4740_            50985  1                      MOVE  R15,SYSUPNM,@R1
 0082BC 58F0 C8A8            008A8 51023  1                      L     R15,CVUPPTBL
 0082C0 DC07 8028 F000 00000 00000 51024  1                      TR    SYSUPNM,@R15        Convert to caps
                                   51025  1
 0082C6 4110 8028/4100_      00000 51026  1                      SETMSG SYSUPNM             Subsystem name
 0082CE 58E0 70FE/0DEE       08380 51040  1                      VCALL SYSCHECK            Is it up?
 0082D4 4770 7068/D74F_      082EA 51044  1                      IF    Z,'VRETURN BOOLEAN,TRUE'
 USING  VNENTRY,R6
 DROP   VNENTRY,R6
 0082EA 706C/47F0 707E_082EA 082D6 51099  1                      ELSE  'VRETURN BOOLEAN,FALSE'
 USING  VNENTRY,R6
 DROP   VNENTRY,R6
 DROP   VNENTRY,R5                 51154                       END
                                   51163
 008300 18D8/9808 D004_            51164                       PEND
 DROP   SYSUPWA-(4+36),R8
 DROP   *,R7
1FUNC     (FUNC2193) (12:45) (15MAR04) System Routines for Functions                                                        Page  203
0Current Usings:  (CP,R11) (CV,R12)
0Loc    Object Code    Addr1 Addr2  Stmt Lv Lineno    Source Statement           (Hibal 5, Asmedit 3.3)  HLASM R4.0  2004/03/15 12.45
+___    ______ ____    _____ _____  ____ __ ______    ______ _________
0                                  51190                       QLTORG
1FUNC     (FUNC2193) (12:45) (15MAR04) System Routines for Functions                                                        Page  204
0Current Usings:  (CP,R11) (CV,R12)
0Loc    Object Code    Addr1 Addr2  Stmt Lv Lineno    Source Statement           (Hibal 5, Asmedit 3.3)  HLASM R4.0  2004/03/15 12.45
+___    ______ ____    _____ _____  ____ __ ______    ______ _________
0                                  51247              ¿þþþþþþþþþþþþþþþþþþþþþþþþþþþþþþþþþþþþþþþþþþþþþþþþþþþþþþþþþþþþþþþþþþþþþÜ
                                   51248              Ÿ                                                                     Ÿ
                                   51249              Ÿ  SUBSYS_START string variable.                                      Ÿ
                                   51250              Ÿ                                                                     Ÿ
                                   51251              Ÿ  This function returns the time the given subsystem                 Ÿ
                                   51252              Ÿ  was started. It is intended to allow the user to                   Ÿ
                                   51253              Ÿ  determine if the subsystem has been restarted at                   Ÿ
                                   51254              Ÿ  any time during the user's WYLBUR session (this                    Ÿ
                                   51255              Ÿ  can be done by saving the SUBSYS_START value and                   Ÿ
                                   51256              Ÿ  comparing it against the value returned by subsequent              Ÿ
                                   51257              Ÿ  SUBSYS_START calls).                                               Ÿ
                                   51258              Ÿ                                                                     Ÿ
                                   51259              Ÿ  This function was specifically added to solve Roberta              Ÿ
                                   51260              Ÿ  Lucier's DISPLAY CIRC PSOC server restart problem, since           Ÿ
                                   51261              Ÿ  the system variable PROGRAM (which indicates the name              Ÿ
                                   51262              Ÿ  of the current ORVYL program) doesn't get reset when               Ÿ
                                   51263              Ÿ  ORVYL dies.                                                        Ÿ
                                   51264              Ÿ                                                                     Ÿ
                                                      ¾þþþþþþþþþþþþþþþþþþþþþþþþþþþþþþþþþþþþþþþþþþþþþþþþþþþþþþþþþþþþþþþþþþþþþ»
0000000                00000 00040 51265              SYSCKWA  RECORD BEGIN
 000000                            51273  1           SYSCKNM    DS    CL8                 Subsystem name
 000008                            51274  1           SYSCKSSB   DS    XL(L'SSB)           Subsystem info block
 000040                00040 00040 51275                       END
                                   51284              þþþþ
 0084EA 50E0 D000/9008_      00000 51285              FNSUBCLK PROC  SYSCKWA
 USING  *,R7
 USING  SYSCKWA-(4+36),R8
 008504 4120 70B6/58E0_      085BA 51335                       SETARGS '11S'             1 arg: string
 00850E 4770 7092            08596 51341                       IF    Z,BEGIN             OK...
 008512 4151 0000            00000 51352  1                      LA    R5,ARG1(R1)
 USING  VNENTRY,R5                 51353  1                      WITH  (VNENTRY,R5)
                                   51366  1
 008516 4110 5026/4800_      00026 51367  1                      SETMSG VNSTRLOC,LH:VNSTRLEN  Subsystem name
 00851E 5900 70A8/47D0_      085AC 51380  1                      CEIL  R0,L'SYSCKNM        Not too long
 00852A D207 8028 C4D8 00000 004D8 51399  1                      MVC   SYSCKNM,CVBLANKS
 008530 18F0                       51400  1                      LR    R15,R0
 008532 06F0/12FF/4740_            51401  1                      MOVE  R15,SYSCKNM,@R1
 00853E 58F0 C8A8            008A8 51439  1                      L     R15,CVUPPTBL
 008542 DC07 8028 F000 00000 00000 51440  1                      TR    SYSCKNM,@R15        Convert to caps
                                   51441  1
 008548 4110 8028/4100_      00000 51442  1                      SETMSG SYSCKNM             Subsystem name
 008550 4120 8030            00008 51456  1                      LA    R2,SYSCKSSB
 008554 58E0 70AC/0DEE       085B0 51457  1                      VCALL SYSGTSSB            Did we get it?
 00855A 4770 706E            08572 51461  1                      IF    Z,BEGIN
 00855E 18FD/41D0 D100             51472  2                        XPUSH  ,,MAXSTRLN,PTR=R15
 USING  SSB,R2                     51475  2                        WITH  (SSB,R2)
 008564 9801 2018            00018 51488  2                        LM    R0,R1,SSBSCLCK
 008568 58E0 70B0/0DEE       085B4 51489  2                        VCALL FMTCLCK              IN CR MODULE
 00856E 4BD0 70B4            085B8 51493  2                        XPOP  ,,MAXSTRLN
 DROP   SSB,R2                     51495  1                      END
 008572 7072/47F0 7076 08572 0855C 51504  1                      ELSE  BEGIN
 008576 1B00                       51515  2                        CLEAR R0                 Return null string
 008578 1B11                       51519  2                        CLEAR R1
1FUNC     (FUNC2193) (12:45) (15MAR04) System Routines for Functions                                                        Page  205
0Current Usings:  (VNENTRY,R5) (*,R7) (SYSCKWA-(4+36),R8) (CP,R11) (CV,R12)
0Loc    Object Code    Addr1 Addr2  Stmt Lv Lineno    Source Statement           (Hibal 5, Asmedit 3.3)  HLASM R4.0  2004/03/15 12.45
+___    ______ ____    _____ _____  ____ __ ______    ______ _________
000857A                            51523  1                      END
 00857A D74F 6000 6000_00000 00000 51527  1                      VRETURN STRING,(R1),(R0)
 USING  VNENTRY,R6
 DROP   VNENTRY,R6
 DROP   VNENTRY,R5                 51611                       END
                                   51620
 008596 18D8/9808 D004_            51621                       PEND
 DROP   SYSCKWA-(4+36),R8
 DROP   *,R7
1FUNC     (FUNC2193) (12:45) (15MAR04) System Routines for Functions                                                        Page  206
0Current Usings:  (CP,R11) (CV,R12)
0Loc    Object Code    Addr1 Addr2  Stmt Lv Lineno    Source Statement           (Hibal 5, Asmedit 3.3)  HLASM R4.0  2004/03/15 12.45
+___    ______ ____    _____ _____  ____ __ ______    ______ _________
0                                  51647                       QLTORG
1FUNC     (FUNC2193) (12:45) (15MAR04) System Routines for Functions                                                        Page  207
0Current Usings:  (CP,R11) (CV,R12)
0Loc    Object Code    Addr1 Addr2  Stmt Lv Lineno    Source Statement           (Hibal 5, Asmedit 3.3)  HLASM R4.0  2004/03/15 12.45
+___    ______ ____    _____ _____  ____ __ ______    ______ _________
0000000                00000 00119 51666              XLWA     RECORD BEGIN
 000000                            51674  1           XLSTPTRS   DS    2F                  Arg1 string len, loc
 000008                            51675  1           XLFRPTRS   DS    2F                  xl-from string len, loc
 000010                            51676  1           XLTOPTRS   DS    2F                  xl-to string len, loc
                                   51677  1
 000018                            51678  1           XLPAD      DS    C                   Pad character
                                   51679  1
 000019                            51680  1           XLTBL      DS    XL256               Translation table
 000119                00119 00119 51681                       END
-                                  51691              ¿þþþþþþþþþþþþþþþþþþþþþþþþþþþþþþþþþþþþþþþþþþþþþþþþþþþþþþþþþþþþþþþþþþþþþÜ
                                   51692              Ÿ                                                                     Ÿ
                                   51693              Ÿ  TODTIME Function.                                                  Ÿ
                                   51694              Ÿ                                                                     Ÿ
                                   51695              Ÿ    TODTIME(Hi-order STCK, Low-order STCK)                           Ÿ
                                   51696              Ÿ                                                                     Ÿ
                                                      ¾þþþþþþþþþþþþþþþþþþþþþþþþþþþþþþþþþþþþþþþþþþþþþþþþþþþþþþþþþþþþþþþþþþþþþ»
00085CA 50E0 D000/9008_      00000 51697              FNTODTIM PROC  ,
 USING  *,R7
 0085E4 4120 735C/58E0_      08940 51736                       SETARGS '22II'            2 ARGS: INTEGER, INTEGER
 0085EE 4770 704A            0862E 51742                       IF    Z,BEGIN
 USING  VNENTRY,R5                 51753  1                      USING VNENTRY,R5
 0085F2 4151 0000            00000 51762  1                      LA    R5,ARG1(R1)
 0085F6 5820 5024            00024 51763  1                      L     R2,VNVALUE          R2 - 1ST NUMBER
 0085FA 4151 0150            00150 51764  1                      LA    R5,ARG2(R1)
 0085FE 5830 5024            00024 51765  1                      L     R3,VNVALUE          R3 - 2ND NUMBER
 DROP   VNENTRY,R5                 51766  1                      DROP  R5
 008602 18FD/41D0 D00C             51773  1                      XPUSH ,,11,PTR=R15
 008608 1802                       51776  1                      LR    R0,R2
 00860A 1813                       51777  1                      LR    R1,R3
 00860C 58E0 7364/0DEE       08948 51778  1                      VCALL FMTTIME
 008612 D74F 6000 6000_00000 00000 51782  1                      VRETURN STRING,(R1),(R0)
 USING  VNENTRY,R6
 DROP   VNENTRY,R6
 00862E                            51866                       END
 00862E 18D8/9808 D004_            51870                       PEND
 DROP   *,R7
1FUNC     (FUNC2193) (12:45) (15MAR04) System Routines for Functions                                                        Page  208
0Current Usings:  (CP,R11) (CV,R12)
0Loc    Object Code    Addr1 Addr2  Stmt Lv Lineno    Source Statement           (Hibal 5, Asmedit 3.3)  HLASM R4.0  2004/03/15 12.45
+___    ______ ____    _____ _____  ____ __ ______    ______ _________
0                                  51891              ¿þþþþþþþþþþþþþþþþþþþþþþþþþþþþþþþþþþþþþþþþþþþþþþþþþþþþþþþþþþþþþþþþþþþþþÜ
                                   51892              Ÿ                                                                     Ÿ
                                   51893              Ÿ  TRANSLATE Function.                                                Ÿ
                                   51894              Ÿ                                                                     Ÿ
                                   51895              Ÿ    TRANSLATE(string[,[tableo][,[tablei][,pad]]])                    Ÿ
                                   51896              Ÿ                                                                     Ÿ
                                                      ¾þþþþþþþþþþþþþþþþþþþþþþþþþþþþþþþþþþþþþþþþþþþþþþþþþþþþþþþþþþþþþþþþþþþþþ»
000863C 50E0 D000/9008_      00000 51897              FNXLATE  PROC  XLWA
 USING  *,R7
 USING  XLWA-(4+36),R8
 008656 4120 7312/58E0_      08968 51947                       SETARGS '14SSSS'          1-4 args: str,str,str,str
 008660 4770 7134            0878A 51953                       IF    Z,BEGIN             OK...
 USING  VNENTRY,R5                 51964  1                      WITH  (VNENTRY,R5)
                                   51977  1
 008664 4151 0000            00000 51978  1                      LA    R5,ARG1(R1)
 008668 4120 5026            00026 51979  1                      LA    R2,VNSTRLOC
 00866C 4830 5024            00024 51980  1                      LH    R3,VNSTRLEN
 008670 9023 8028            00000 51981  1                      STM   R2,R3,XLSTPTRS      Save orig string loc, len
                                   51982  1                      ¿þþþþþþþþþþþþþþþþþþþþþþþþþþþþþþþþþþþþþþþþþþþþþþþþþþþþÜ
                                   51983  1                      Ÿ  Only one argument means translate to upper case.  Ÿ
                                   51984  1                      ¾þþþþþþþþþþþþþþþþþþþþþþþþþþþþþþþþþþþþþþþþþþþþþþþþþþþþ»
 008674 5900 72F6/4770_      0894C 51985  1                      IF    (R0,EQ,1),BEGIN
 00867C 5840 C8A8            008A8 52002  2                        L     R4,CVUPPTBL
 008680 D2FF 8041 4000 00019 00000 52003  2                        MVC   XLTBL,@R4           Move in UPPER xl table
 008686                            52004  1                      END
                                   52008  1                      ¿þþþþþþþþþþþþþþþþþþþþþþþþþþþþþþþþþþþþþþþþþþþþþþþþÜ
                                   52009  1                      Ÿ  Build translate table from user's arguments.  Ÿ
                                   52010  1                      ¾þþþþþþþþþþþþþþþþþþþþþþþþþþþþþþþþþþþþþþþþþþþþþþþþ»
 008686 7034/47F0 70EA 08686 0867A 52011  1                      ELSE  BEGIN
                                   52022  2                        ¿þþþþþþþþþþþþþþþþþþþþþþþþþþþþþþþþÜ
                                   52023  2                        Ÿ  Arg#2:  Translate-to string.  Ÿ
                                   52024  2                        ¾þþþþþþþþþþþþþþþþþþþþþþþþþþþþþþþþ»
 00868A 1B22/1B33                  52025  2                        CLEAR R2,R3
 00868E 5900 72FA/4750_      08950 52031  2                        IF    (R0,GE,2),BEGIN     Arg#2 specified...
 008696 4151 0150            00150 52048  3                          LA    R5,ARG2(R1)
 00869A 4120 5026            00026 52049  3                          LA    R2,VNSTRLOC
 00869E 4830 5024            00024 52050  3                          LH    R3,VNSTRLEN
 0086A2                            52051  2                        END
 0086A2 9023 8038            00010 52055  2                        STM   R2,R3,XLTOPTRS      R2,R3 - translate-to string ptrs
                                   52056  2                        ¿þþþþþþþþþþþþþþþþþþþþþþþþþþþþþþþþþþÜ
                                   52057  2                        Ÿ  Arg#3:  Translate-from string.  Ÿ
                                   52058  2                        ¾þþþþþþþþþþþþþþþþþþþþþþþþþþþþþþþþþþ»
 0086A6 1B22/1B33                  52059  2                        CLEAR R2,R3
 0086AA 5900 72FE/4750_      08954 52065  2                        IF    (R0,GE,3),BEGIN     Arg#3 specified...
 0086B2 4151 02A0            002A0 52082  3                          LA    R5,ARG3(R1)
 0086B6 4120 5026            00026 52083  3                          LA    R2,VNSTRLOC
 0086BA 4830 5024            00024 52084  3                          LH    R3,VNSTRLEN
 0086BE                            52085  2                        END
 0086BE 9023 8030            00008 52089  2                        STM   R2,R3,XLFRPTRS      R2,R3 - translate-from str ptrs
1FUNC     (FUNC2193) (12:45) (15MAR04) System Routines for Functions                                                        Page  209
0Current Usings:  (VNENTRY,R5) (*,R7) (XLWA-(4+36),R8) (CP,R11) (CV,R12)
0Loc    Object Code    Addr1 Addr2  Stmt Lv Lineno    Source Statement           (Hibal 5, Asmedit 3.3)  HLASM R4.0  2004/03/15 12.45
+___    ______ ____    _____ _____  ____ __ ______    ______ _________
0                                  52090  2                        ¿þþþþþþþþþþþþþþþþþþþþþþþþþþÜ
                                   52091  2                        Ÿ  Arg#4:  Pad character.  Ÿ
                                   52092  2                        ¾þþþþþþþþþþþþþþþþþþþþþþþþþþ»
 0086C2 9240 8040      00018       52093  2                        MVI   XLPAD,C' '          Default pad character
                                   52094  2
 0086C6 5900 7302/4750_      08958 52095  2                        IF    (R0,GE,4),BEGIN     Pad character specified...
 0086CE 4151 03F0            003F0 52112  3                          LA    R5,ARG4(R1)
 0086D2 4840 5024/1244       00024 52113  3                          LTH   R4,VNSTRLEN
 0086D8 4780 70A2            086F8 52117  3                          IF    Z,EXIT              Ignore null string
 0086DC 5940 72F6/47D0_      0894C 52131  3                          IF    (R4,GT,1),BEGIN
 0086E4 4120 0004/58E0_      00004 52148  4                            BADARG 4  Too long
 0086EE 47F0 7134            0878A 52159  4                            EXIT  FNXLATE
 0086F2                            52162  3                          END
 0086F2 D200 8040 5026 00018 00026 52166  3                          MVC   XLPAD,VNSTRLOC      Save pad character
 0086F8                            52167  2                        END
                                   52171  2                        ¿þþþþþþþþþþþþþþþþþþþþþþþþþþÜ
                                   52172  2                        Ÿ  Build translate table.  Ÿ
                                   52173  2                        ¾þþþþþþþþþþþþþþþþþþþþþþþþþþ»
 0086F8 D2FF 8041 7142 00019 08798 52174  2                        MVC   XLTBL,XLMDLTBL      Default translate table
                                   52175  2
 0086FE 98EF 8030            00008 52176  2                        LM    R14,R15,XLFRPTRS    R14,R15 - xl-from loc, len
 008702 9823 8038            00010 52177  2                        LM    R2,R3,XLTOPTRS      R2,R3 - xl-to loc, len
 008706 12FF/47D0 70EA             52178  2                        WHILE (R15,POS),BEGIN     Go through from string...
 00870C 1233/4720 70C2_            52194  3                          IF    (R3,NP),'LC R0,XLPAD'
 008718 70C6/47F0 70D2_08718 08710 52218  3                          ELSE  'LC R0,@R2; LA R2,@R2+1; DECR R3'
 008728 1F11/4310 E000             52242  3                          LC    R1,@R14
 00872E 41E0 E001            00001 52249  3                          LA    R14,@R14+1
 008732 06F0                       52250  3                          DECR  R15
                                   52252  3
 008734 4111 8041            00019 52253  3                          LA    R1,XLTBL(R1)        Loc in xl table
 008738 4200 1000            00000 52254  3                          STC   R0,@R1              Set byte in translate table
 00873C 47F0 70B0            08706 52255  2                        END
 008740                            52260  1                      END
                                   52264  1                      ¿þþþþþþþþþþþþþþþþþþþþþþþþþþþþþþþþþþþþþþþþþþþÜ
                                   52265  1                      Ÿ  Copy the string and do the translation.  Ÿ
                                   52266  1                      ¾þþþþþþþþþþþþþþþþþþþþþþþþþþþþþþþþþþþþþþþþþþþ»
 USING  VNENTRY,R6                 52267  1                      WITH  (VNENTRY,R6),BEGIN
 008740 D74F 6000 6000 00000 00000 52281  2                        CLEAR VNENTRY
 008746 9201 6020      00020       52288  2                        SET   VNSTRING
 00874A 9823 8028            00000 52294  2                        LM    R2,R3,XLSTPTRS      Orig string loc, len
 00874E 4030 6024            00024 52295  2                        STH   R3,VNSTRLEN         Set output string length
 008752 41E0 6026            00026 52296  2                        LA    R14,VNSTRLOC
 008756 18F3                       52297  2                        LR    R15,R3
 008758 0EE2                       52298  2                        MVCL  R14,R2              Copy orig string
                                   52299  2
 00875A 4120 6026            00026 52300  2                        LA    R2,VNSTRLOC
 00875E 4830 6024            00024 52301  2                        LH    R3,VNSTRLEN
 008762 1233/47D0 7132             52302  2                        WHILE (R3,POS),BEGIN      Translate string...
 008768 18F3                       52318  3                          LR    R15,R3
 00876A 59F0 730A/47D0_      08960 52319  3                          CEIL  R15,256
 008776 06F0/44F0 732E_            52338  3                          DEX   R15,'TR @R2(0),XLTBL'  TRANSLATE!
                                   52357  3
 00877C 4120 2100            00100 52358  3                          LA    R2,@R2+256
 008780 4B30 7318            0896E 52359  3                          SH    R3,=H'256'
1FUNC     (FUNC2193) (12:45) (15MAR04) System Routines for Functions                                                        Page  210
0Current Usings:  (VNENTRY,R5) (VNENTRY,R6) (*,R7) (XLWA-(4+36),R8) (CP,R11) (CV,R12)
0Loc    Object Code    Addr1 Addr2  Stmt Lv Lineno    Source Statement           (Hibal 5, Asmedit 3.3)  HLASM R4.0  2004/03/15 12.45
+___    ______ ____    _____ _____  ____ __ ______    ______ _________
0008784 47F0 710C            08762 52360  2                        END
 008788 1BFF                       52365  2                        CLEAR R15                 Set RC
 DROP   VNENTRY,R6                 52369  1                      END
 DROP   VNENTRY,R5                 52377                       END
                                   52386
 00878A 18D8/9808 D004_            52387                       PEND
 DROP   XLWA-(4+36),R8
 DROP   *,R7
                                   52412
 008798 0001020304050607           52413              XLMDLTBL DC    256AL1(*-XLMDLTBL)  Virgin translate table
1FUNC     (FUNC2193) (12:45) (15MAR04) System Routines for Functions                                                        Page  211
0Current Usings:  (CP,R11) (CV,R12)
0Loc    Object Code    Addr1 Addr2  Stmt Lv Lineno    Source Statement           (Hibal 5, Asmedit 3.3)  HLASM R4.0  2004/03/15 12.45
+___    ______ ____    _____ _____  ____ __ ______    ______ _________
0                                  52415              ¿þþþþþþþþþþþþþþþþþþþþþþþþþþþþþþþþþþþþþþþþþþþþþþþþþþþþþþþþþþþþþþþþþþþþþÜ
                                   52416              Ÿ                                                                     Ÿ
                                   52417              Ÿ  TRUNC Function.                                                    Ÿ
                                   52418              Ÿ                                                                     Ÿ
                                   52419              Ÿ    TRUNC(??????????)                                                Ÿ
                                   52420              Ÿ                                                                     Ÿ
                                                      ¾þþþþþþþþþþþþþþþþþþþþþþþþþþþþþþþþþþþþþþþþþþþþþþþþþþþþþþþþþþþþþþþþþþþþþ»
0008898 50E0 D000/9008_      00000 52421              FNTRUNC  PROC  ,
 USING  *,R7
 0088B2 4110 70BE/4100_      08970 52460                       TSEG  'Not Yet!  '
 0088C4 4120 0001/58E0_      00001 52478                       BADARG 1
 0088CE 18D8/9808 D004_            52489                       PEND
 DROP   *,R7
1FUNC     (FUNC2193) (12:45) (15MAR04) System Routines for Functions                                                        Page  212
0Current Usings:  (CP,R11) (CV,R12)
0Loc    Object Code    Addr1 Addr2  Stmt Lv Lineno    Source Statement           (Hibal 5, Asmedit 3.3)  HLASM R4.0  2004/03/15 12.45
+___    ______ ____    _____ _____  ____ __ ______    ______ _________
0                                  52510              ¿þþþþþþþþþþþþþþþþþþþþþþþþþþþþþþþþþþþþþþþþþþþþþþþþþþþþþþþþþþþþþþþþþþþþþÜ
                                   52511              Ÿ                                                                     Ÿ
                                   52512              Ÿ  UPPER                                                              Ÿ
                                   52513              Ÿ                                                                     Ÿ
                                   52514              Ÿ  SEE COMMENTS AT START OF THIS MODULE                               Ÿ
                                   52515              Ÿ                                                                     Ÿ
                                                      ¾þþþþþþþþþþþþþþþþþþþþþþþþþþþþþþþþþþþþþþþþþþþþþþþþþþþþþþþþþþþþþþþþþþþþþ»
00088DC 50E0 D000/9008_      00000 52516              FNUPPER  PROC  ,
 USING  *,R7
 0088F6 4120 7084/58E0_      0897A 52555                       SETARGS '11S'             1 ARG: STRING
 008900 4770 703C            08932 52561                       IF    Z,BEGIN
 USING  VNENTRY,R5                 52572  1                      USING VNENTRY,R5
 008904 4151 0000            00000 52581  1                      LA    R5,ARG1(R1)
 008908 4110 5026            00026 52582  1                      LA    R1,VNSTRLOC         R1 - STRING LOC
 00890C 4820 5024            00024 52583  1                      LH    R2,VNSTRLEN         R2 - STRING LEN
 DROP   VNENTRY,R5                 52584  1                      DROP  R5
 USING  VNENTRY,R6                 52591  1                      USING VNENTRY,R6
 008910 D74F 6000 6000 00000 00000 52600  1                      CLEAR VNENTRY
 008916 9201 6020      00020       52607  1                      SET   VNSTRING
 00891A 4020 6024            00024 52613  1                      STH   R2,VNSTRLEN
 00891E 1222/47D0 703C             52614  1                      IF    (R2,POS),BEGIN
 008924 0620/4420 7094_            52628  2                        DEX   R2,' MVC VNSTRLOC(0),0(R1) '  MOVE STRING TO RET AREA
 00892A 5840 C8A8            008A8 52647  2                        L     R4,CVUPPTBL
 00892E 4420 709A/DC00_      08990 52648  2                        EX    R2,' TR VNSTRLOC(0),0(R4) '   CONVERT IT
 008932                            52664  1                      END
 DROP   VNENTRY,R6                 52668  1                      DROP  R6
 008932                            52675                       END
 008932 18D8/9808 D004_            52679                       PEND
 DROP   *,R7
1FUNC     (FUNC2193) (12:45) (15MAR04) System Routines for Functions                                                        Page  213
0Current Usings:  (CP,R11) (CV,R12)
0Loc    Object Code    Addr1 Addr2  Stmt Lv Lineno    Source Statement           (Hibal 5, Asmedit 3.3)  HLASM R4.0  2004/03/15 12.45
+___    ______ ____    _____ _____  ____ __ ______    ______ _________
0                                  52700                       QLTORG
                                   52726              ¿þþþþþþþþþþþþþþþþþþþþþþþþþþþþþþþþþþþþþþþþþþþþþþþþþþþþþþþþþþþþþþþþþþþþþÜ
                                   52727              Ÿ                                                                     Ÿ
                                   52728              Ÿ  URL_DECODE                                                         Ÿ
                                   52729              Ÿ                                                                     Ÿ
                                   52730              Ÿ  Decodes a string according to the escaping                         Ÿ
                                   52731              Ÿ  convention described in RFC 2396                                   Ÿ
                                   52732              Ÿ                                                                     Ÿ
                                                      ¾þþþþþþþþþþþþþþþþþþþþþþþþþþþþþþþþþþþþþþþþþþþþþþþþþþþþþþþþþþþþþþþþþþþþþ»
0000000                00000 00002 52733              FNURLWA  RECORD BEGIN
 000000                            52741  1           FNURLHEX   DS    CL2         Uppercase form for XTB
 000002                00002 00002 52742                       END
-008996 50E0 D000/9008_      00000 52752              FNURLDCD PROC  FNURLWA
 USING  *,R7
 USING  FNURLWA-(4+36),R8
 0089B0 4120 7608/58E0_      08FB8 52802                       SETARGS '11S'             1 ARG: STRING
 0089BA 4770 70A4            08A54 52808                       IF    Z,BEGIN
 USING  VNENTRY,R5                 52819  1                      USING VNENTRY,R5
 0089BE 4151 0000            00000 52828  1                      LA    R5,ARG1(R1)
 0089C2 4120 5026            00026 52829  1                      LA    R2,VNSTRLOC         R1 - STRING LOC
 0089C6 4830 5024            00024 52830  1                      LH    R3,VNSTRLEN         R2 - STRING LEN
 DROP   VNENTRY,R5                 52831  1                      DROP  R5
 USING  VNENTRY,R6                 52838  1                      USING VNENTRY,R6
 0089CA D74F 6000 6000 00000 00000 52847  1                      CLEAR VNENTRY
 0089D0 9201 6020      00020       52854  1                      SET   VNSTRING
 0089D4 4030 6024            00024 52860  1                      STH   R3,VNSTRLEN
 0089D8 4140 6026            00026 52861  1                      LA    R4,VNSTRLOC
 0089DC 1233/47D0 7098             52862  1                      WHILE (R3,POS),BEGIN
 0089E2 956C 2000/4770_00000       52878  2                        IF    ((@R2,EQ,'%'),AND,(R3,GE,3)),BEGIN
 0089F2 D201 8028 2001 00000 00001 52910  3                          MVC   FNURLHEX(L'FNURLHEX),@R2+1
 0089F8 5810 C8A8            008A8 52911  3                          L     R1,CVUPPTBL
 0089FC DC01 8028 1000 00000 00000 52912  3                          TR    FNURLHEX(L'FNURLHEX),0(R1)
 008A02 4110 8028/4100_      00000 52913  3                          XTB   FNURLHEX,L'FNURLHEX
 008A10 4770 7076            08A26 52934  3                          IF    Z,BEGIN
 008A14 5AF0 C8B4            008B4 52945  4                            A     R15,CVEBCTBL
 008A18 D200 4000 F000 00000 00000 52946  4                            MVC   @R4(1),@R15
 008A1E 4120 2002            00002 52947  4                            LA    R2,2(,R2)
 008A22 0630                       52948  4                            DECR  R3
 008A24 0630                       52950  4                            DECR  R3
 008A26                            52952  3                          END
 008A26 707A/47F0 7080 08A26 08A12 52956  3                          ELSE  BEGIN
 008A2A D200 4000 2000 00000 00000 52967  4                            MVC   @R4(1),@R2
 008A30                            52968  3                          END
 008A30                            52972  2                        END
 008A30 7084/7084/47F0_08A30 089E8 52976  2                        ELSE  BEGIN
 008A34 D200 4000 2000 00000 00000 52989  3                          MVC   @R4(1),@R2
 008A3A                            52990  2                        END
 008A3A 0630                       52994  2                        DECR  R3
 008A3C 5E20 757C            08F2C 52996  2                        INCR  R2
 008A40 5E40 757C            08F2C 52999  2                        INCR  R4
 008A44 47F0 702C            089DC 53002  1                      END
1FUNC     (FUNC2193) (12:45) (15MAR04) System Routines for Functions                                                        Page  214
0Current Usings:  (VNENTRY,R6) (*,R7) (FNURLWA-(4+36),R8) (CP,R11) (CV,R12)
0Loc    Object Code    Addr1 Addr2  Stmt Lv Lineno    Source Statement           (Hibal 5, Asmedit 3.3)  HLASM R4.0  2004/03/15 12.45
+___    ______ ____    _____ _____  ____ __ ______    ______ _________
0008A48 4110 6026            00026 53007  1                      LA    R1,VNSTRLOC
 008A4C 1B41                       53008  1                      SR    R4,R1
 008A4E 4040 6024            00024 53009  1                      STH   R4,VNSTRLEN
 008A52 1BFF                       53010  1                      CLEAR R15
 DROP   VNENTRY,R6                 53014  1                      DROP  R6
 008A54                            53021                       END
 008A54 18D8/9808 D004_            53025                       PEND
 DROP   FNURLWA-(4+36),R8
 DROP   *,R7
1FUNC     (FUNC2193) (12:45) (15MAR04) System Routines for Functions                                                        Page  215
0Current Usings:  (CP,R11) (CV,R12)
0Loc    Object Code    Addr1 Addr2  Stmt Lv Lineno    Source Statement           (Hibal 5, Asmedit 3.3)  HLASM R4.0  2004/03/15 12.45
+___    ______ ____    _____ _____  ____ __ ______    ______ _________
0000000                00000 00160 53051              FNVARWA  RECORD BEGIN
 000000                            53059  1           FNVARRET   DS    CL16                Variable type text
                                   53060  1
 000010                            53061  1           FNVARPRM   DS    XL(L'VPARM)         Working VPARM
 000160                00160 00160 53062                       END
-                                  53072              ¿þþþþþþþþþþþþþþþþþþþþþþþþþþþþþþþþþþþþþþþþþþþþþþþþþþþþþþþþþþþþþþþþþþþþþÜ
                                   53073              Ÿ                                                                     Ÿ
                                   53074              Ÿ  VARTYPE                                                            Ÿ
                                   53075              Ÿ                                                                     Ÿ
                                   53076              Ÿ    VARTYPE('variable-name')                                         Ÿ
                                   53077              Ÿ                                                                     Ÿ
                                   53078              Ÿ    See comments at the start of this module.                        Ÿ
                                   53079              Ÿ                                                                     Ÿ
                                                      ¾þþþþþþþþþþþþþþþþþþþþþþþþþþþþþþþþþþþþþþþþþþþþþþþþþþþþþþþþþþþþþþþþþþþþþ»
0008A62 50E0 D000/9008_      00000 53080              FNVARTYP PROC  FNVARWA
 USING  *,R7
 USING  FNVARWA-(4+36),R8
 008A7C 58E0 B08C/D2AF_      0008C 53130                       SCPUSH ,
 008A8A 18ED/41D0 D43C_            53136                       TPUSH
                                   53174              *
                                   53175              *
 008ABE 4120 74B8/58E0_      08F34 53176                       SETARGS '11SS'            1 Arg: string
 008AC8 4770 7130            08BAC 53182                       IF    Z,BEGIN
 008ACC D20F 8028 7454 00000 08ED0 53193  1                      MVC   FNVARRET,=CL16'UNDEFINED'  Assume the worst
                                   53194  1
 008AD2 4151 0000            00000 53195  1                      LA    R5,ARG1(R1)
 USING  VNENTRY,R5                 53196  1                      WITH  (VNENTRY,R5)
 008AD6 4110 5026/4800_      00026 53209  1                      SETMSG VNSTRLOC,LH:VNSTRLEN
 008ADE 4120 8038            00010 53222  1                      LA    R2,FNVARPRM
 008AE2 58E0 74BC/0DEE       08F38 53223  1                      VCALL SCNVDESC            Scan variable name
 008AE8 4770 7106            08B82 53227  1                      IF    Z,BEGIN             Get variable value...
 008AEC 4150 8038            00010 53238  2                        LA    R5,FNVARPRM         Working VPARM area
                                   53239  2
 008AF0 D601 5012 5012_00012 00012 53240  2                        IF    (VNASUB1,Z),BEGIN   Regular variable...
 008AFA 4110 5000            00000 53256  3                          LA    R1,VNENTRY
 008AFE 1821                       53257  3                          LR    R2,R1
 008B00 58E0 74C0/0DEE       08F3C 53258  3                          VCALL GETVAR              Get variable entry value
 008B06 4770 70C6            08B42 53262  3                          IF    Z,BEGIN             OK...
 008B0A 9501 5020/4770_00020       53273  4                            IF    VNSTRING,'MVC FNVARRET,=CL16"STRING"'
 008B18 9502 5020/4770_00020       53294  4                            IF    VNNUMB,'MVC FNVARRET,=CL16"NUMBER"'
 008B26 9503 5020/4770_00020       53315  4                            IF    VNBOOL,'MVC FNVARRET,=CL16"BOOLEAN"'
 008B34 9504 5020/4770_00020       53336  4                            IF    VNARRAY,'MVC FNVARRET,=CL16"ARRAY"'
 008B42                            53357  3                          END
 008B42                            53361  2                        END
                                   53365  2
 008B42 70CA/47F0 7106 08B42 08AF8 53366  2                        ELSE  BEGIN               Array...
 008B46 1B00                       53377  3                          CLEAR R0                  No array descriptor
 008B48 4110 5000            00000 53381  3                          LA    R1,VNENTRY
 008B4C 1821                       53382  3                          LR    R2,R1
 008B4E 58E0 74C4/0DEE       08F40 53383  3                          VCALL GETARRAY            Get array entry value
 008B54 4770 7106            08B82 53387  3                          IF    Z,BEGIN             OK...
1FUNC     (FUNC2193) (12:45) (15MAR04) System Routines for Functions                                                        Page  216
0Current Usings:  (VNENTRY,R5) (*,R7) (FNVARWA-(4+36),R8) (CP,R11) (CV,R12)
0Loc    Object Code    Addr1 Addr2  Stmt Lv Lineno    Source Statement           (Hibal 5, Asmedit 3.3)  HLASM R4.0  2004/03/15 12.45
+___    ______ ____    _____ _____  ____ __ ______    ______ _________
0008B58 9501 5020/4770_00020       53398  4                            IF    VNSTRING,'MVC FNVARRET,=CL16"STRING"'
 008B66 9502 5020/4770_00020       53419  4                            IF    VNNUMB,'MVC FNVARRET,=CL16"NUMBER"'
 008B74 9503 5020/4770_00020       53440  4                            IF    VNBOOL,'MVC FNVARRET,=CL16"BOOLEAN"'
 008B82                            53461  3                          END
 008B82                            53465  2                        END
 008B82                            53469  1                      END
                                   53473  1
 008B82 D74F 6000 6000_00000 00000 53474  1                      VRETURN STRING,FNVARRET   Return variable type text
 USING  VNENTRY,R6
 DROP   VNENTRY,R6
 008BA6 58E0 74C8/0DEE       08F44 53562  1                      VTRIM
 DROP   VNENTRY,R5                 53567                       END
                                   53576              *
                                   53577              *
 008BAC 4BD0 7516/D23B_      08F92 53578                       TPOP  JUNK
 008BB6 58E0 B08C/4BD0_      0008C 53583                       SCPOP ,
 008BC4 18D8/9808 D004_            53589                       PEND
 DROP   FNVARWA-(4+36),R8
 DROP   *,R7
1FUNC     (FUNC2193) (12:45) (15MAR04) System Routines for Functions                                                        Page  217
0Current Usings:  (CP,R11) (CV,R12)
0Loc    Object Code    Addr1 Addr2  Stmt Lv Lineno    Source Statement           (Hibal 5, Asmedit 3.3)  HLASM R4.0  2004/03/15 12.45
+___    ______ ____    _____ _____  ____ __ ______    ______ _________
0                                  53615              ¿þþþþþþþþþþþþþþþþþþþþþþþþþþþþþþþþþþþþþþþþþþþþþþþþþþþþþþþþþþþþþþþþþþþþþÜ
                                   53616              Ÿ                                                                     Ÿ
                                   53617              Ÿ                                                                     Ÿ
                                   53618              Ÿ  VERIFY                                                             Ÿ
                                   53619              Ÿ                                                                     Ÿ
                                   53620              Ÿ  VERIFY(STRING,CHARS_TO_VERIFY),,,                                  Ÿ
                                   53621              Ÿ                                                                     Ÿ
                                   53622              Ÿ  SEE COMMENTS AT START OF THIS MODULE                               Ÿ
                                   53623              Ÿ                                                                     Ÿ
                                                      ¾þþþþþþþþþþþþþþþþþþþþþþþþþþþþþþþþþþþþþþþþþþþþþþþþþþþþþþþþþþþþþþþþþþþþþ»
0008BD2 50E0 D000/9008_      00000 53624              FNVERIFY PROC  FNWA
 USING  *,R7
 USING  FNWA-(4+36),R8
 008BEC 4120 735C/58E0_      08F48 53674                       SETARGS '22SS'            2 ARGS: STRING, STRING
 008BF6 4770 707E            08C6A 53680                       IF    Z,BEGIN
 USING  VNENTRY,R5                 53691  1                      USING VNENTRY,R5
 008BFA 4151 0000            00000 53700  1                      LA    R5,ARG1(R1)
 008BFE 4120 5026            00026 53701  1                      LA    R2,VNSTRLOC         R2,R3 - 1ST STRING LOC, LEN
 008C02 4830 5024            00024 53702  1                      LH    R3,VNSTRLEN
 008C06 4151 0150            00150 53703  1                      LA    R5,ARG2(R1)
 008C0A 4140 5026            00026 53704  1                      LA    R4,VNSTRLOC         R4,R5 - 2ND STRING LOC, END
 008C0E 4850 5024            00024 53705  1                      LH    R5,VNSTRLEN
 008C12 1A54                       53706  1                      AR    R5,R4
 DROP   VNENTRY,R5                 53707  1                      DROP  R5
 008C14 9204 8028      00000       53714  1                      MVI   FNWORK,X'04'         SET UP TRT TABLE
 008C18 D2FE 8029 8028 00001 00000 53715  1                      MVC   FNWORK+1(255),FNWORK MARK ALL CHARS,
 008C1E 1B11                       53716  1                      SR    R1,R1                UNMARK ALL CHARS IN STR #2
 008C20 1B00                       53717  1                      SR    R0,R0
 008C22 1945/47B0 704C             53718  1                      WHILE (R4,LT,R5),BEGIN     UNMARK ALL CHARS IN STR #2
 008C28 4314 0000            00000 53735  2                        IC    R1,0(R4)
 008C2C 4201 8028            00000 53736  2                        STC   R0,FNWORK(R1)
 008C30 4144 0001            00001 53737  2                        LA    R4,1(R4)
 008C34 47F0 7036            08C22 53738  1                      END
 008C38 1812                       53743  1                      LR    R1,R2               R1,R4 - START OF STRING #1
 008C3A 1842                       53744  1                      LR    R4,R2
 008C3C 1233/47D0 7064             53745  1                      IF    (R3,POS),BEGIN
 008C42 0630/4430 73FA_            53759  2                        DEX   R3,' TRT @R1(0),FNWORK '   ** TRT **
 008C48 4780 7064            08C50 53778  2                        IF    NZ,BEGIN
 008C4C 4111 0001            00001 53789  3                          LA    R1,1(R1)            OFFSET+1 = CHAR NUMBER
 008C50                            53790  2                        END
 008C50                            53794  1                      END
                                   53798  1                      COMMENT                   R1 - LOC OF 1ST CHAR NOT FOUND
 008C50 1B14                       53799  1                      SR    R1,R4               R1 - INDEX OF 1ST CHAR NOT FOUND
 008C52 D74F 6000 6000_00000 00000 53800  1                      VRETURN INTEGER,(R1)
 USING  VNENTRY,R6
 DROP   VNENTRY,R6
 008C6A                            53846                       END
 008C6A 18D8/9808 D004_            53850                       PEND
 DROP   FNWA-(4+36),R8
 DROP   *,R7
1FUNC     (FUNC2193) (12:45) (15MAR04) System Routines for Functions                                                        Page  218
0Current Usings:  (CP,R11) (CV,R12)
0Loc    Object Code    Addr1 Addr2  Stmt Lv Lineno    Source Statement           (Hibal 5, Asmedit 3.3)  HLASM R4.0  2004/03/15 12.45
+___    ______ ____    _____ _____  ____ __ ______    ______ _________
0                                  53876              ¿þþþþþþþþþþþþþþþþþþþþþþþþþþþþþþþþþþþþþþþþþþþþþþþþþþþþþþþþþþþþþþþþþþþþþÜ
                                   53877              Ÿ                                                                     Ÿ
                                   53878              Ÿ  RF_DECRYPT_V8B(KEY,CIPHER)                                         Ÿ
                                   53879              Ÿ                                                                     Ÿ
                                   53880              Ÿ  SEE COMMENTS AT START OF THIS MODULE                               Ÿ
                                   53881              Ÿ                                                                     Ÿ
                                                      ¾þþþþþþþþþþþþþþþþþþþþþþþþþþþþþþþþþþþþþþþþþþþþþþþþþþþþþþþþþþþþþþþþþþþþþ»
0008C78 50E0 D000/9008_      00000 53882              FNV8BD   PROC  FNWA
 USING  *,R7
 USING  FNWA-(4+36),R8
                                   53932
 008C92 4120 72B6/58E0_      08F48 53933                       SETARGS '22SS'            2 ARGS: STRING, STRING
 008C9C 4770 70A6            08D38 53939                       IF    Z,BEGIN
 USING  VNENTRY,R5                 53950  1                      USING VNENTRY,R5
 008CA0 4151 0000            00000 53959  1                      LA    R5,ARG1(R1)
 008CA4 4120 5026            00026 53960  1                      LA    R2,VNSTRLOC         R2,R3 - 1ST STRING LOC, LEN
 008CA8 4830 5024            00024 53961  1                      LH    R3,VNSTRLEN
 008CAC 4151 0150            00150 53962  1                      LA    R5,ARG2(R1)
 008CB0 4140 5026            00026 53963  1                      LA    R4,VNSTRLOC         R4,R5 - 2ND STRING LOC, LEN
 008CB4 4850 5024            00024 53964  1                      LH    R5,VNSTRLEN
 DROP   VNENTRY,R5                 53965  1                      DROP  R5
 008CB8 5930 72BE/4780_      08F50 53972  1                      IF    (R3,NE,8),BEGIN
 008CC0 4110 7329/4100_      08FBB 53989  2                        TSEG  'Key must be exactly 8 bytes long.'
 008CD2 4120 0001/58E0_      00001 54007  2                        BADARG 1
 008CDC 47F0 70A6            08D38 54018  2                        EXIT  FNV8BD
 008CE0                            54021  1                      END
 008CE0 5950 72BE/4780_      08F50 54025  1                      IF    (R5,NE,8),BEGIN
 008CE8 4110 72CA/4100_      08F5C 54042  2                        TSEG  'Cipher must be exactly 8 bytes long.'
 008CFA 4120 0002/58E0_      00002 54060  2                        BADARG 2
 008D04 47F0 70A6            08D38 54071  2                        EXIT  FNV8BD
 008D08                            54074  1                      END
                                   54078  1
                                   54079  1                      COMMENT                   DECODE 8 BYTES
 008D08 1802                       54080  1                      LR    R0,R2               8 BYTE KEY
 008D0A 4110 8028            00000 54081  1                      LA    R1,FNWA             8 BYTE TEXT (RETURNED)
 008D0E 1824                       54082  1                      LR    R2,R4               8 BYTE CIPHER
 008D10 58E0 72EE/0DEE       08F80 54083  1                      VCALL FEALBLKD
 008D16 D74F 6000 6000_00000 00000 54087  1                      VRETURN STRING,(R1),8
 USING  VNENTRY,R6
 DROP   VNENTRY,R6
 008D36 1BFF                       54174  1                      CLEAR R15
 008D38                            54178                       END
                                   54182
 008D38 18D8/9808 D004_            54183                       PEND
 DROP   FNWA-(4+36),R8
 DROP   *,R7
1FUNC     (FUNC2193) (12:45) (15MAR04) System Routines for Functions                                                        Page  219
0Current Usings:  (CP,R11) (CV,R12)
0Loc    Object Code    Addr1 Addr2  Stmt Lv Lineno    Source Statement           (Hibal 5, Asmedit 3.3)  HLASM R4.0  2004/03/15 12.45
+___    ______ ____    _____ _____  ____ __ ______    ______ _________
0                                  54209              ¿þþþþþþþþþþþþþþþþþþþþþþþþþþþþþþþþþþþþþþþþþþþþþþþþþþþþþþþþþþþþþþþþþþþþþÜ
                                   54210              Ÿ                                                                     Ÿ
                                   54211              Ÿ  RF_ENCRYPT_V8B(KEY,TEXT)                                           Ÿ
                                   54212              Ÿ                                                                     Ÿ
                                   54213              Ÿ  SEE COMMENTS AT START OF THIS MODULE                               Ÿ
                                   54214              Ÿ                                                                     Ÿ
                                                      ¾þþþþþþþþþþþþþþþþþþþþþþþþþþþþþþþþþþþþþþþþþþþþþþþþþþþþþþþþþþþþþþþþþþþþþ»
0008D46 50E0 D000/9008_      00000 54215              FNV8BE   PROC  FNWA
 USING  *,R7
 USING  FNWA-(4+36),R8
                                   54265
 008D60 4120 71E8/58E0_      08F48 54266                       SETARGS '22SS'            2 ARGS: STRING, STRING
 008D6A 4770 70A8            08E08 54272                       IF    Z,BEGIN
 USING  VNENTRY,R5                 54283  1                      USING VNENTRY,R5
 008D6E 4151 0000            00000 54292  1                      LA    R5,ARG1(R1)
 008D72 4120 5026            00026 54293  1                      LA    R2,VNSTRLOC         R2,R3 - 1ST STRING LOC, LEN
 008D76 4830 5024            00024 54294  1                      LH    R3,VNSTRLEN
 008D7A 4151 0150            00150 54295  1                      LA    R5,ARG2(R1)
 008D7E 4140 5026            00026 54296  1                      LA    R4,VNSTRLOC         R4,R5 - 2ND STRING LOC, LEN
 008D82 4850 5024            00024 54297  1                      LH    R5,VNSTRLEN
 DROP   VNENTRY,R5                 54298  1                      DROP  R5
 008D86 5930 71F0/4780_      08F50 54305  1                      IF    (R3,NE,8),BEGIN
 008D8E 4110 725B/4100_      08FBB 54322  2                        TSEG  'Key must be exactly 8 bytes long.'
 008DA0 4120 0001/58E0_      00001 54340  2                        BADARG 1
 008DAA 47F0 70A8            08E08 54351  2                        EXIT  FNV8BE
 008DAE                            54354  1                      END
 008DAE 5950 71F0/4780_      08F50 54358  1                      IF    (R5,NE,8),BEGIN
 008DB6 4110 7236/4100_      08F96 54375  2                        TSEG  'Text must be exactly 8 bytes long.'
 008DC8 4120 0002/58E0_      00002 54393  2                        BADARG 2
 008DD2 47F0 70A8            08E08 54404  2                        EXIT  FNV8BE
 008DD6                            54407  1                      END
                                   54411  1
                                   54412  1                      COMMENT                   DECODE 8 BYTES
 008DD6 1802                       54413  1                      LR    R0,R2               8 BYTE KEY
 008DD8 1814                       54414  1                      LR    R1,R4               8 BYTE TEXT
 008DDA 4120 8028            00000 54415  1                      LA    R2,FNWA             8 BYTE CIPHER (RETURNED)
 008DDE 58E0 7224/0DEE       08F84 54416  1                      VCALL FEALBLKE
 008DE4 D74F 6000 6000_00000 00000 54420  1                      VRETURN STRING,(R2),8
 USING  VNENTRY,R6
 DROP   VNENTRY,R6
 008E06 1BFF                       54508  1                      CLEAR R15
 008E08                            54512                       END
                                   54516
 008E08 18D8/9808 D004_            54517                       PEND
 DROP   FNWA-(4+36),R8
 DROP   *,R7
1FUNC     (FUNC2193) (12:45) (15MAR04) System Routines for Functions                                                        Page  220
0Current Usings:  (CP,R11) (CV,R12)
0Loc    Object Code    Addr1 Addr2  Stmt Lv Lineno    Source Statement           (Hibal 5, Asmedit 3.3)  HLASM R4.0  2004/03/15 12.45
+___    ______ ____    _____ _____  ____ __ ______    ______ _________
0                                  54543              ¿þþþþþþþþþþþþþþþþþþþþþþþþþþþþþþþþþþþþþþþþþþþþþþþþþþþþþþþþþþþþþþþþþþþþþÜ
                                   54544              Ÿ                                                                     Ÿ
                                   54545              Ÿ                                                                     Ÿ
                                   54546              Ÿ  WCONVERT - CONVERT TO NUMBER, WITH LINE NUMBER FORMAT              Ÿ
                                   54547              Ÿ                                                                     Ÿ
                                   54548              Ÿ                                                                     Ÿ
                                   54549              Ÿ  SEE COMMENTS AT START OF THIS MODULE                               Ÿ
                                   54550              Ÿ                                                                     Ÿ
                                                      ¾þþþþþþþþþþþþþþþþþþþþþþþþþþþþþþþþþþþþþþþþþþþþþþþþþþþþþþþþþþþþþþþþþþþþþ»
0008E16 50E0 D000/9008_      00000 54551              FNWCONV  PROC  ,
 USING  *,R7
 008E30 4120 71AC/58E0_      08FDC 54590                       SETARGS '11W'             1 ARG: NUMBER, WYLBUR LINENO
                                   54596                       COMMENT                   THE SETARG ROUTINE ABOVE DOES THE
                                   54597                       COMMENT                   WORK, CONVERTING THE INPUT ARG TO
                                   54598                       COMMENT                   A LINENO,,, WHICH WE RETURN
 008E3A 4770 7030            08E60 54599                       IF    Z,BEGIN
 USING  VNENTRY,R5                 54610  1                      USING VNENTRY,R5
 008E3E 4151 0000            00000 54619  1                      LA    R5,ARG1(R1)
 008E42 5830 5024            00024 54620  1                      L     R3,VNVALUE          R3 - LINENO VALUE
 DROP   VNENTRY,R5                 54621  1                      DROP  R5
 008E46 D74F 6000 6000_00000 00000 54628  1                      VRETURN LINENO,(R3)
 USING  VNENTRY,R6
 DROP   VNENTRY,R6
 008E60                            54675                       END
 008E60 18D8/9808 D004_            54679                       PEND
 DROP   *,R7
1FUNC     (FUNC2193) (12:45) (15MAR04) System Routines for Functions                                                        Page  221
0Current Usings:  (CP,R11) (CV,R12)
0Loc    Object Code    Addr1 Addr2  Stmt Lv Lineno    Source Statement           (Hibal 5, Asmedit 3.3)  HLASM R4.0  2004/03/15 12.45
+___    ______ ____    _____ _____  ____ __ ______    ______ _________
0                                  54700              ¿þþþþþþþþþþþþþþþþþþþþþþþþþþþþþþþþþþþþþþþþþþþþþþþþþþþþþþþþþþþþþþþþþþþþþÜ
                                   54701              Ÿ                                                                     Ÿ
                                   54702              Ÿ  WCOUNT -- Get the value of a "counter".                            Ÿ
                                   54703              Ÿ                                                                     Ÿ
                                   54704              Ÿ  SEE COMMENTS AT START OF THIS MODULE                               Ÿ
                                   54705              Ÿ                                                                     Ÿ
                                                      ¾þþþþþþþþþþþþþþþþþþþþþþþþþþþþþþþþþþþþþþþþþþþþþþþþþþþþþþþþþþþþþþþþþþþþþ»
0008E6E 50E0 D000/9008_      00000 54706              FNWCOUNT PROC  ,
 USING  *,R7
 008E88 4120 7130/58E0_      08FB8 54745                       SETARGS '11S'             1 arg: string
 008E92 4770 703A            08EC2 54751                       IF    Z,BEGIN
 008E96 4151 0000            00000 54762  1                      LA    R5,ARG1(R1)
 USING  VNENTRY,R5                 54763  1                      WITH  (VNENTRY,R5)
 008E9A 4110 5026/4800_      00026 54776  1                      SETMSG VNSTRLOC,LH:VNSTRLEN  Counter name
 008EA2 58E0 7104/0DEE       08F8C 54789  1                      VCALL GETWCNT             Get WCOUNTER value in R15
 008EA8 D74F 6000 6000_00000 00000 54793  1                      VRETURN INTEGER,(R15)
 USING  VNENTRY,R6
 DROP   VNENTRY,R6
 DROP   VNENTRY,R5                 54840                       END
                                   54849
 008EC2 18D8/9808 D004_            54850                       PEND
 DROP   *,R7
                                   54870
                                   54871                       QLTORG
1FUNC     (FUNC2193) (12:45) (15MAR04) System Routines for Functions                                                        Page  222
0Current Usings:  (CP,R11) (CV,R12)
0Loc    Object Code    Addr1 Addr2  Stmt Lv Lineno    Source Statement           (Hibal 5, Asmedit 3.3)  HLASM R4.0  2004/03/15 12.45
+___    ______ ____    _____ _____  ____ __ ______    ______ _________
0                                  54916              ¿þþþþþþþþþþþþþþþþþþþþþþþþþþþþþþþþþþþþþþþþþþþþþþþþþþþþþþþþþþþþþþþþþþþþþÜ
                                   54917              Ÿ                                                                     Ÿ
                                   54918              Ÿ                                                                     Ÿ
                                   54919              Ÿ  WHEX - CONVERT HEX STRING TO LINENO FORMATTED NUMBER               Ÿ
                                   54920              Ÿ                                                                     Ÿ
                                   54921              Ÿ                                                                     Ÿ
                                   54922              Ÿ  SEE COMMENTS AT START OF THIS MODULE                               Ÿ
                                   54923              Ÿ                                                                     Ÿ
                                                      ¾þþþþþþþþþþþþþþþþþþþþþþþþþþþþþþþþþþþþþþþþþþþþþþþþþþþþþþþþþþþþþþþþþþþþþ»
0000000                00000 00030 54924              FNWHWA   RECORD BEGIN
                                   54932  1                      XSA   R0,R8
 000000 0000000000000000           54933  1 01-XSA   +           DC    (R8+2-(R0))A(0)
 000028                            54934  1           FNWHTEMP   DS    CL8
 000030                00030 00030 54935                       END
                                   54944              *
                                   54945              *
 008FF8 50E0 D000/9008_      00000 54946              FNWHEX   PROC  FNWHWA
 USING  *,R7
 USING  FNWHWA-(4+36),R8
 USING  VNENTRY,R5                 54996                       USING VNENTRY,R5
 009012 4120 7A08/58E0_      09A1A 55005                       SETARGS '11S'             1 ARG: STRING
 00901C 4770 70A0            090B2 55011                       IF    Z,BEGIN
 009020 4151 0000            00000 55022  1                      LA    R5,ARG1(R1)
 009024 4800 5024            00024 55023  1                      LH    R0,VNSTRLEN
 009028 5900 78F2/47D0_      09904 55024  1                      IF    (R0,GT,8),BEGIN
 009030 4110 798E/4100_      099A0 55041  2                        TSEG  'Arithmetic overflow.  '
 009042 4120 0001/58E0_      00001 55059  2                        BADARG 1
 00904C 47F0 70A0            090B2 55070  2                        EXIT  FNWHEX
 009050                            55073  1                      END
 009050 4110 5026            00026 55077  1                      LA    R1,VNSTRLOC
 009054 4120 8050            00028 55078  1                      LA    R2,FNWHTEMP
 009058 58E0 78FE/0DEE       09910 55079  1                      VCALL MAKEHEX             CONVERT HEX STRING TO HEX
 00905E 4780 7070            09082 55083  1                      IF    NZ,BEGIN
 009062 4110 7A0B/4100_      09A1D 55094  2                        TSEG  'Invalid hex string.  '
 009074 4120 0001/58E0_      00001 55112  2                        BADARG 1
 00907E 47F0 70A0            090B2 55123  2                        EXIT  FNWHEX
 009082                            55126  1                      END
 009082 5810 8050            00028 55130  1                      L     R1,FNWHTEMP         R1 - HEX VALUE
 009086 5900 7902/47B0_      09914 55131  1                      WHILE (R0,LT,4),BEGIN     PROPERLY SHIFTED
 00908E 8810 0008            00008 55150  2                        SRL   R1,8
 009092 5A00 7906            09918 55151  2                        A     R0,=F'1'
 009096 47F0 7074            09086 55152  1                      END
 00909A D74F 6000 6000_00000 00000 55157  1                      VRETURN LINENO,(R1)       RETURN LINE NUMBER
 USING  VNENTRY,R6
 DROP   VNENTRY,R6
 0090B2                            55203                       END
 0090B2 18D8/9808 D004_            55207                       PEND
 DROP   FNWHWA-(4+36),R8
 DROP   *,R7
 DROP   VNENTRY,R5                 55232                       DROP  R5
1FUNC     (FUNC2193) (12:45) (15MAR04) System Routines for Functions                                                        Page  223
0Current Usings:  (CP,R11) (CV,R12)
0Loc    Object Code    Addr1 Addr2  Stmt Lv Lineno    Source Statement           (Hibal 5, Asmedit 3.3)  HLASM R4.0  2004/03/15 12.45
+___    ______ ____    _____ _____  ____ __ ______    ______ _________
0                                  55240              ¿þþþþþþþþþþþþþþþþþþþþþþþþþþþþþþþþþþþþþþþþþþþþþþþþþþþþþþþþþþþþþþþþþþþþþÜ
                                   55241              Ÿ                                                                     Ÿ
                                   55242              Ÿ  WORD Function.                                                     Ÿ
                                   55243              Ÿ                                                                     Ÿ
                                   55244              Ÿ    WORD(??????????)                                                 Ÿ
                                   55245              Ÿ                                                                     Ÿ
                                                      ¾þþþþþþþþþþþþþþþþþþþþþþþþþþþþþþþþþþþþþþþþþþþþþþþþþþþþþþþþþþþþþþþþþþþþþ»
00090C0 50E0 D000/9008_      00000 55246              FNWORD   PROC  ,
 USING  *,R7
 0090DA 4110 78DC/4100_      099B6 55285                       TSEG  'Not Yet!  '
 0090EC 4120 0001/58E0_      00001 55303                       BADARG 1
 0090F6 41F0 0004            00004 55314                       LA    R15,4
 0090FA 18D8/9808 D004_            55315                       PEND
 DROP   *,R7
1FUNC     (FUNC2193) (12:45) (15MAR04) System Routines for Functions                                                        Page  224
0Current Usings:  (CP,R11) (CV,R12)
0Loc    Object Code    Addr1 Addr2  Stmt Lv Lineno    Source Statement           (Hibal 5, Asmedit 3.3)  HLASM R4.0  2004/03/15 12.45
+___    ______ ____    _____ _____  ____ __ ______    ______ _________
0                                  55336              ¿þþþþþþþþþþþþþþþþþþþþþþþþþþþþþþþþþþþþþþþþþþþþþþþþþþþþþþþþþþþþþþþþþþþþþÜ
                                   55337              Ÿ                                                                     Ÿ
                                   55338              Ÿ  WORDINDEX Function.                                                Ÿ
                                   55339              Ÿ                                                                     Ÿ
                                   55340              Ÿ    WORDINDEX(??????????)                                            Ÿ
                                   55341              Ÿ                                                                     Ÿ
                                                      ¾þþþþþþþþþþþþþþþþþþþþþþþþþþþþþþþþþþþþþþþþþþþþþþþþþþþþþþþþþþþþþþþþþþþþþ»
0009108 50E0 D000/9008_      00000 55342              FNWORDIX PROC  ,
 USING  *,R7
 009122 4110 7894/4100_      099B6 55381                       TSEG  'Not Yet!  '
 009134 4120 0001/58E0_      00001 55399                       BADARG 1
 00913E 18D8/9808 D004_            55410                       PEND
 DROP   *,R7
1FUNC     (FUNC2193) (12:45) (15MAR04) System Routines for Functions                                                        Page  225
0Current Usings:  (CP,R11) (CV,R12)
0Loc    Object Code    Addr1 Addr2  Stmt Lv Lineno    Source Statement           (Hibal 5, Asmedit 3.3)  HLASM R4.0  2004/03/15 12.45
+___    ______ ____    _____ _____  ____ __ ______    ______ _________
0                                  55431              ¿þþþþþþþþþþþþþþþþþþþþþþþþþþþþþþþþþþþþþþþþþþþþþþþþþþþþþþþþþþþþþþþþþþþþþÜ
                                   55432              Ÿ                                                                     Ÿ
                                   55433              Ÿ  WORDLENGTH Function.                                               Ÿ
                                   55434              Ÿ                                                                     Ÿ
                                   55435              Ÿ    WORDLENGTH(??????????)                                           Ÿ
                                   55436              Ÿ                                                                     Ÿ
                                                      ¾þþþþþþþþþþþþþþþþþþþþþþþþþþþþþþþþþþþþþþþþþþþþþþþþþþþþþþþþþþþþþþþþþþþþþ»
000914C 50E0 D000/9008_      00000 55437              FNWORDLN PROC  ,
 USING  *,R7
 009166 4110 7850/4100_      099B6 55476                       TSEG  'Not Yet!  '
 009178 4120 0001/58E0_      00001 55494                       BADARG 1
 009182 18D8/9808 D004_            55505                       PEND
 DROP   *,R7
1FUNC     (FUNC2193) (12:45) (15MAR04) System Routines for Functions                                                        Page  226
0Current Usings:  (CP,R11) (CV,R12)
0Loc    Object Code    Addr1 Addr2  Stmt Lv Lineno    Source Statement           (Hibal 5, Asmedit 3.3)  HLASM R4.0  2004/03/15 12.45
+___    ______ ____    _____ _____  ____ __ ______    ______ _________
0                                  55526              ¿þþþþþþþþþþþþþþþþþþþþþþþþþþþþþþþþþþþþþþþþþþþþþþþþþþþþþþþþþþþþþþþþþþþþþÜ
                                   55527              Ÿ                                                                     Ÿ
                                   55528              Ÿ  WORDS Function.                                                    Ÿ
                                   55529              Ÿ                                                                     Ÿ
                                   55530              Ÿ    WORDS(??????????)                                                Ÿ
                                   55531              Ÿ                                                                     Ÿ
                                                      ¾þþþþþþþþþþþþþþþþþþþþþþþþþþþþþþþþþþþþþþþþþþþþþþþþþþþþþþþþþþþþþþþþþþþþþ»
0009190 50E0 D000/9008_      00000 55532              FNWORDS  PROC  ,
 USING  *,R7
 0091AA 4110 780C/4100_      099B6 55571                       TSEG  'Not Yet!  '
 0091BC 4120 0001/58E0_      00001 55589                       BADARG 1
 0091C6 18D8/9808 D004_            55600                       PEND
 DROP   *,R7
1FUNC     (FUNC2193) (12:45) (15MAR04) System Routines for Functions                                                        Page  227
0Current Usings:  (CP,R11) (CV,R12)
0Loc    Object Code    Addr1 Addr2  Stmt Lv Lineno    Source Statement           (Hibal 5, Asmedit 3.3)  HLASM R4.0  2004/03/15 12.45
+___    ______ ____    _____ _____  ____ __ ______    ______ _________
0                                  55621              ¿þþþþþþþþþþþþþþþþþþþþþþþþþþþþþþþþþþþþþþþþþþþþþþþþþþþþþþþþþþþþþþþþþþþþþÜ
                                   55622              Ÿ                                                                     Ÿ
                                   55623              Ÿ  WYLBUR_CPU_ function.                                              Ÿ
                                   55624              Ÿ                                                                     Ÿ
                                                      ¾þþþþþþþþþþþþþþþþþþþþþþþþþþþþþþþþþþþþþþþþþþþþþþþþþþþþþþþþþþþþþþþþþþþþþ»
00091D4 50E0 D000/9008_      00000 55625              FNGWYLC  PROC  ,
 USING  *,R7
                                   55664
 0091EE 4120 782C/58E0_      09A1A 55665                       SETARGS '11S'             1 arg: str
 0091F8 4770 703E            0922C 55671                       IF    Z,BEGIN
 0091FC 4151 0000            00000 55682  1                      LA    R5,ARG1(R1)
 USING  VNENTRY,R5                 55683  1                      WITH  (VNENTRY,R5)
 009200 4110 5026/4800_      00026 55696  1                      SETMSG VNSTRLOC,LH:VNSTRLEN  Component name specified
 009208 41F0 76F2            098E0 55709  1                      LA    R15,=CL16'WYLBUR_CPU'
 00920C 58E0 7732/0DEE       09920 55710  1                      VCALL GETCVAR
 009212 D74F 6000 6000_00000 00000 55714  1                      VRETURN LINENO,(R15)      Return WYLBUR cpu in .001 sec
 USING  VNENTRY,R6
 DROP   VNENTRY,R6
 DROP   VNENTRY,R5                 55761                       END
                                   55770
 00922C 18D8/9808 D004_            55771                       PEND
 DROP   *,R7
1FUNC     (FUNC2193) (12:45) (15MAR04) System Routines for Functions                                                        Page  228
0Current Usings:  (CP,R11) (CV,R12)
0Loc    Object Code    Addr1 Addr2  Stmt Lv Lineno    Source Statement           (Hibal 5, Asmedit 3.3)  HLASM R4.0  2004/03/15 12.45
+___    ______ ____    _____ _____  ____ __ ______    ______ _________
0                                  55792              ¿þþþþþþþþþþþþþþþþþþþþþþþþþþþþþþþþþþþþþþþþþþþþþþþþþþþþþþþþþþþþþþþþþþþþþÜ
                                   55793              Ÿ                                                                     Ÿ
                                   55794              Ÿ  WYLBUR_IO_ function.                                               Ÿ
                                   55795              Ÿ                                                                     Ÿ
                                                      ¾þþþþþþþþþþþþþþþþþþþþþþþþþþþþþþþþþþþþþþþþþþþþþþþþþþþþþþþþþþþþþþþþþþþþþ»
000923A 50E0 D000/9008_      00000 55796              FNGWYLI  PROC  ,
 USING  *,R7
                                   55835
 009254 4120 77C6/58E0_      09A1A 55836                       SETARGS '11S'             1 arg: str
 00925E 4770 703E            09292 55842                       IF    Z,BEGIN
 009262 4151 0000            00000 55853  1                      LA    R5,ARG1(R1)
 USING  VNENTRY,R5                 55854  1                      WITH  (VNENTRY,R5)
 009266 4110 5026/4800_      00026 55867  1                      SETMSG VNSTRLOC,LH:VNSTRLEN  Component name specified
 00926E 41F0 769C            098F0 55880  1                      LA    R15,=CL16'WYLBUR_IO'
 009272 58E0 76CC/0DEE       09920 55881  1                      VCALL GETCVAR
 009278 D74F 6000 6000_00000 00000 55885  1                      VRETURN INTEGER,(R15)     Return WYLBUR I/Os
 USING  VNENTRY,R6
 DROP   VNENTRY,R6
 DROP   VNENTRY,R5                 55932                       END
                                   55941
 009292 18D8/9808 D004_            55942                       PEND
 DROP   *,R7
1FUNC     (FUNC2193) (12:45) (15MAR04) System Routines for Functions                                                        Page  229
0Current Usings:  (CP,R11) (CV,R12)
0Loc    Object Code    Addr1 Addr2  Stmt Lv Lineno    Source Statement           (Hibal 5, Asmedit 3.3)  HLASM R4.0  2004/03/15 12.45
+___    ______ ____    _____ _____  ____ __ ______    ______ _________
0                                  55963              ¿þþþþþþþþþþþþþþþþþþþþþþþþþþþþþþþþþþþþþþþþþþþþþþþþþþþþþþþþþþþþþþþþþþþþþÜ
                                   55964              Ÿ                                                                     Ÿ
                                   55965              Ÿ  XRANGE Function.                                                   Ÿ
                                   55966              Ÿ                                                                     Ÿ
                                   55967              Ÿ    XRANGE([start-char][,end-char])                                  Ÿ
                                   55968              Ÿ                                                                     Ÿ
                                                      ¾þþþþþþþþþþþþþþþþþþþþþþþþþþþþþþþþþþþþþþþþþþþþþþþþþþþþþþþþþþþþþþþþþþþþþ»
00092A0 50E0 D000/9008_      00000 55969              FNXRANGE PROC  ,
 USING  *,R7
 0092BA 4120 766E/58E0_      09928 56008                       SETARGS '02SS'            0-2 args: string, string
 0092C4 4770 70AA            09364 56014                       IF    Z,BEGIN             OK...
 USING  VNENTRY,R5                 56025  1                      WITH  (VNENTRY,R5)
 0092C8 1B22                       56038  1                      CLEAR R2                  R2 - lower bound
 0092CA 4130 00FF            000FF 56042  1                      LA    R3,X'FF'            R3 - upper bound
                                   56043  1                      ¿þþþþþþþþþþþþþþþþþþþþþþÜ
                                   56044  1                      Ÿ  Arg#1: lower bound  Ÿ
                                   56045  1                      ¾þþþþþþþþþþþþþþþþþþþþþþ»
 0092CE 5900 7672/4750_      0992C 56046  1                      IF    (R0,GE,1),BEGIN
 0092D6 4151 0000            00000 56063  2                        LA    R5,ARG1(R1)
 0092DA 4840 5024/1244       00024 56064  2                        LTH   R4,VNSTRLEN
 0092E0 4780 7046            09300 56068  2                        IF    Z,EXIT
 0092E4 5940 7672/47D0_      0992C 56082  2                        IF    (R4,GT,1),BEGIN     String too long
 0092EC 4120 0001/58E0_      00001 56099  3                          BADARG 1
 0092F6 47F0 70AA            09364 56110  3                          EXIT  FNXRANGE
 0092FA                            56113  2                        END
 0092FA 1F22/4320 5026             56117  2                        LC    R2,VNSTRLOC         Get starting byte
 009300                            56124  1                      END
                                   56128  1                      ¿þþþþþþþþþþþþþþþþþþþþþþÜ
                                   56129  1                      Ÿ  Arg#2: upper bound  Ÿ
                                   56130  1                      ¾þþþþþþþþþþþþþþþþþþþþþþ»
 009300 5900 7676/4750_      09930 56131  1                      IF    (R0,GE,2),BEGIN
 009308 4151 0150            00150 56148  2                        LA    R5,ARG2(R1)
 00930C 4840 5024/1244       00024 56149  2                        LTH   R4,VNSTRLEN
 009312 4780 7078            09332 56153  2                        IF    Z,EXIT
 009316 5940 7672/47D0_      0992C 56167  2                        IF    (R4,GT,1),BEGIN     String too long
 00931E 4120 0002/58E0_      00002 56184  3                          BADARG 2
 009328 47F0 70AA            09364 56195  3                          EXIT  FNXRANGE
 00932C                            56198  2                        END
 00932C 1F33/4330 5026             56202  2                        LC    R3,VNSTRLOC         Get ending byte
 009332                            56209  1                      END
                                   56213  1                      ¿þþþþþþþþþþþþþþþþþþþþþþþÜ
                                   56214  1                      Ÿ  Build range string.  Ÿ
                                   56215  1                      ¾þþþþþþþþþþþþþþþþþþþþþþþ»
 USING  VNENTRY,R6                 56216  1                      WITH  (VNENTRY,R6),BEGIN
 009332 D74F 6000 6000 00000 00000 56230  2                        CLEAR VNENTRY
 009338 9201 6020      00020       56237  2                        SET   VNSTRING
 00933C 1B00                       56243  2                        CLEAR R0
 00933E 4110 6026            00026 56247  2                        LA    R1,VNSTRLOC
 009342                            56248  2                        LOOP  BEGIN               Build range string...
 009342 4220 1000            00000 56254  3                          STC   R2,@R1              Set char
 009346 4110 1001            00001 56255  3                          LA    R1,@R1+1
 00934A 5E00 7672            0992C 56256  3                          INCR  R0
 00934E 1923/4780 70A6             56259  3                          IF    (R2,EQ,R3),EXIT     Time to stop, scram
1FUNC     (FUNC2193) (12:45) (15MAR04) System Routines for Functions                                                        Page  230
0Current Usings:  (VNENTRY,R5) (VNENTRY,R6) (*,R7) (CP,R11) (CV,R12)
0Loc    Object Code    Addr1 Addr2  Stmt Lv Lineno    Source Statement           (Hibal 5, Asmedit 3.3)  HLASM R4.0  2004/03/15 12.45
+___    ______ ____    _____ _____  ____ __ ______    ______ _________
0009354 4120 2001            00001 56277  3                          LA    R2,@R2+1
 009358 5420 767A            09934 56278  3                          N     R2,=A(X'FF')        Modulo 256
 00935C 47F0 7088            09342 56279  2                        END
 009360 4000 6024            00024 56284  2                        STH   R0,VNSTRLEN         Set string length
 DROP   VNENTRY,R6                 56285  1                      END
                                   56293  1
 DROP   VNENTRY,R5                 56294                       END
 009364 18D8/9808 D004_            56303                       PEND
 DROP   *,R7
1FUNC     (FUNC2193) (12:45) (15MAR04) System Routines for Functions                                                        Page  231
0Current Usings:  (CP,R11) (CV,R12)
0Loc    Object Code    Addr1 Addr2  Stmt Lv Lineno    Source Statement           (Hibal 5, Asmedit 3.3)  HLASM R4.0  2004/03/15 12.45
+___    ______ ____    _____ _____  ____ __ ______    ______ _________
0                                  56324              ¿þþþþþþþþþþþþþþþþþþþþþþþþþþþþþþþþþþþþþþþþþþþþþþþþþþþþþþþþþþþþþþþþþþþþþÜ
                                   56325              Ÿ                                                                     Ÿ
                                   56326              Ÿ  X2C Function.                                                      Ÿ
                                   56327              Ÿ                                                                     Ÿ
                                   56328              Ÿ    X2C(??????????)                                                  Ÿ
                                   56329              Ÿ                                                                     Ÿ
                                                      ¾þþþþþþþþþþþþþþþþþþþþþþþþþþþþþþþþþþþþþþþþþþþþþþþþþþþþþþþþþþþþþþþþþþþþþ»
0009372 50E0 D000/9008_      00000 56330              FNX2C    PROC  ,
 USING  *,R7
 00938C 4110 762A/4100_      099B6 56369                       TSEG  'Not Yet!  '
 00939E 4120 0001/58E0_      00001 56387                       BADARG 1
 0093A8 18D8/9808 D004_            56398                       PEND
 DROP   *,R7
1FUNC     (FUNC2193) (12:45) (15MAR04) System Routines for Functions                                                        Page  232
0Current Usings:  (CP,R11) (CV,R12)
0Loc    Object Code    Addr1 Addr2  Stmt Lv Lineno    Source Statement           (Hibal 5, Asmedit 3.3)  HLASM R4.0  2004/03/15 12.45
+___    ______ ____    _____ _____  ____ __ ______    ______ _________
0                                  56419              ¿þþþþþþþþþþþþþþþþþþþþþþþþþþþþþþþþþþþþþþþþþþþþþþþþþþþþþþþþþþþþþþþþþþþþþÜ
                                   56420              Ÿ                                                                     Ÿ
                                   56421              Ÿ  X2D Function.                                                      Ÿ
                                   56422              Ÿ                                                                     Ÿ
                                   56423              Ÿ    X2D(??????????)                                                  Ÿ
                                   56424              Ÿ                                                                     Ÿ
                                                      ¾þþþþþþþþþþþþþþþþþþþþþþþþþþþþþþþþþþþþþþþþþþþþþþþþþþþþþþþþþþþþþþþþþþþþþ»
00093B6 50E0 D000/9008_      00000 56425              FNX2D    PROC  ,
 USING  *,R7
 0093D0 4110 75E6/4100_      099B6 56464                       TSEG  'Not Yet!  '
 0093E2 4120 0001/58E0_      00001 56482                       BADARG 1
 0093EC 18D8/9808 D004_            56493                       PEND
 DROP   *,R7
1FUNC     (FUNC2193) (12:45) (15MAR04) System Routines for Functions                                                        Page  233
0Current Usings:  (CP,R11) (CV,R12)
0Loc    Object Code    Addr1 Addr2  Stmt Lv Lineno    Source Statement           (Hibal 5, Asmedit 3.3)  HLASM R4.0  2004/03/15 12.45
+___    ______ ____    _____ _____  ____ __ ______    ______ _________
0000000                00000 0000C 56514              YNWA     RECORD BEGIN
 000000 00                         56522  1           YNFLAG     FLAG  YNFYES              - Allow YES
 YNFLAG.YNFYES     80 ONES
 YNFLAG.YNFNO      40 ONES         56528  1                      FLAG  YNFNO               - Allow NO
 YNFLAG.YNFATTN    20 ONES         56533  1                      FLAG  YNFATTN             - Allow ATTN
 YNFLAG.YNFNULL    10 ONES         56538  1                      FLAG  YNFNULL             - Allow NULL (just return)
 YNFLAG.YNFHELP    08 ONES         56543  1                      FLAG  YNFHELP             - Allow HELP or ?
                                   56548  1
 000004                            56549  1           YNPTRS     DS    2A                  Prompt loc, len
 00000C                0000C 0000C 56550                       END
-                                  56560              ¿þþþþþþþþþþþþþþþþþþþþþþþþþþþþþþþþþþþþþþþþþþþþþþþþþþþþþþþþþþþþþþþþþþþþþÜ
                                   56561              Ÿ                                                                     Ÿ
                                   56562              Ÿ                                                                     Ÿ
                                   56563              Ÿ  YESNO - Prompt with "Yes or No" question and set return string.    Ÿ
                                   56564              Ÿ                                                                     Ÿ
                                   56565              Ÿ  SEE COMMENTS AT START OF THIS MODULE                               Ÿ
                                   56566              Ÿ                                                                     Ÿ
                                                      ¾þþþþþþþþþþþþþþþþþþþþþþþþþþþþþþþþþþþþþþþþþþþþþþþþþþþþþþþþþþþþþþþþþþþþþ»
00093FA 50E0 D000/9008_      00000 56567              FNYESNO  PROC  YNWA
 USING  *,R7
 USING  YNWA-(4+36),R8
 009414 4140 8028            00000 56617                       LA    R4,YNWA
 USING  YNWA,R4                    56618                       USING YNWA,R4
 009418 D70B 4000 4000 00000 00000 56627                       CLEAR YNWA
                                   56634
 00941E 58E0 B08C/D2AF_      0008C 56635                       SCPUSH ,
                                   56641
 00942C 4120 7524/58E0_      09938 56642                       SETARGS '12SS'            1-2 args: str, str
 009436 4770 72B8            096CC 56648                       BNZ   YNEXIT
                                   56649
 00943A 9140 BD5C/47E0_00D5C       56650                       IF    CPFZAPIF,BEGIN      Expression rescan...
 009442 D74F 6000 6000_00000 00000 56665  1                      VRETURN STRING,'DUMMY'
 USING  VNENTRY,R6
 DROP   VNENTRY,R6
 009466 47F0 72B8            096CC 56743  1                      B     YNEXIT              Scram
 00946A                            56744                       END
                                   56748
 00946A 1820                       56749                       LR    R2,R0               Save number of arguments
 00946C 1831                       56750                       LR    R3,R1               Argument list ptr
 USING  VNENTRY,R5                 56751                       WITH  (VNENTRY,R5)        (Will be accurate later)
                                   56764                       ¿þþþþþþþþþþþþþþþþþþþþþþþþþþþþþþþþÜ
                                   56765                       Ÿ  Save prompt string pointers.  Ÿ
                                   56766                       ¾þþþþþþþþþþþþþþþþþþþþþþþþþþþþþþþþ»
 00946E 4153 0000            00000 56767                       LA    R5,ARG1(R3)
 009472 4110 5026/4800_      00026 56768                       SETMSG VNSTRLOC,LH:VNSTRLEN  Prompt text
 00947A 9001 4004            00004 56781                       STM   R0,R1,YNPTRS        Save ptrs for later
1FUNC     (FUNC2193) (12:45) (15MAR04) System Routines for Functions                                                        Page  234
0Current Usings:  (YNWA,R4) (VNENTRY,R5) (*,R7) (YNWA-(4+36),R8) (CP,R11) (CV,R12)
0Loc    Object Code    Addr1 Addr2  Stmt Lv Lineno    Source Statement           (Hibal 5, Asmedit 3.3)  HLASM R4.0  2004/03/15 12.45
+___    ______ ____    _____ _____  ____ __ ______    ______ _________
0                                  56782                       ¿þþþþþþþþþþþþþþþþþþþþþþþþþþþþþþþþþþþþþþþþþþþþÜ
                                   56783                       Ÿ  Scan second parameter for yesno options.  Ÿ
                                   56784                       ¾þþþþþþþþþþþþþþþþþþþþþþþþþþþþþþþþþþþþþþþþþþþþ»
 00947E 5920 751C/4740_      09930 56785                       IF    (R2,LT,2),YNCONT
 009486 4153 0150            00150 56805                       LA    R5,ARG2(R3)
 00948A 4110 5026/4800_      00026 56806                       SCINIT VNSTRLOC,LH:VNSTRLEN  Options
 0094A0 5810 B08C/1B00_      0008C 56829                       SCAN  YNPRT
 0094F2 12FF/4770 70E8             56861                       IF    (R15,NZ),YNERR
 0094F8 47F0 7112            09526 56878                       B     YNCONT              Now go do it
                                   56879
 0094FC 41F0 B050/58E0_      00050 56880              YNERR    TSEG  (R1),(R0)
 009506 4110 7530/4100_      09944 56905                       TSEG  ' is an unknown YESNO option.'
 009518 4120 0002/58E0_      00002 56923                       BADARG 2
 009522 47F0 72B8            096CC 56934                       B     YNEXIT
                                   56935              *
                                   56936              *
 009526                            56937              YNCONT   LABEL ,
                                   56939
 009526 91F0 4000/4770_00000       56940                       IF    (YNFYES+YNFNO+YNFNULL+YNFATTN,Z),BEGIN  Default...
 00952E 96C0 4000      00000       56969  1                      SET   YNFYES+YNFNO        Default options
 009532                            56978                       END
                                   56982
 009532 91C0 4000/4770_00000       56983                       IF    (YNFYES+YNFNO,Z),BEGIN
 00953A 4110 75AE/4100_      099C2 57003  1                      TSEG  'YES or NO must be specified as a YESNO option.'
 00954C 4120 0002/58E0_      00002 57021  1                      BADARG 2
 009556 47F0 72B8            096CC 57032  1                      B     YNEXIT
 00955A                            57033                       END
                                   57037
 00955A 47F0 7184            09598 57038                       B     YNASK
                                   57039                       ¿þþþþþþþþþþþþþþþþþþþþþÜ
                                   57040                       Ÿ  Pop the question.  Ÿ
                                   57041                       ¾þþþþþþþþþþþþþþþþþþþþþ»
 00955E 4110 75DC/4100_      099F0 57042              YNLOOP   SETMSG 'YES or NO.'
 009566 91C0 4000/47B0_00000       57046                       IF    (YNFYES+YNFNO,MIXED),BEGIN
 00956E 9180 4000/47E0_00000       57066  1                      IF    YNFYES,'SETMSG "YES when you are ready."'
 00957E 9140 4000/47E0_00000       57090  1                      IF    YNFNO,'SETMSG "NO when you are ready."'
 00958E                            57114                       END
 00958E 41F0 B050/58E0_      00050 57118                       TSEG  (R1),(R0),CR
                                   57142
 009598 9801 4004            00004 57143              YNASK    LM    R0,R1,YNPTRS        Prompt
 00959C 41F0 B050/58E0_      00050 57144                       TSEG  (R1),(R0)
 0095A6 4110 763A/4100_      09A4E 57168                       SETMSG ' (Yes/No)'
 0095AE 91C0 4000/47B0_00000       57172                       IF    (YNFYES+YNFNO,MIXED),BEGIN
 0095B6 9180 4000/47E0_00000       57192  1                      IF    YNFYES,'SETMSG " (Yes)"'
 0095C6 9140 4000/47E0_00000       57216  1                      IF    YNFNO,'SETMSG " (No)"'
 0095D6                            57240                       END
 0095D6 1300                       57244                       LCR   R0,R0               (Don't add anything to prompt)
 0095D8 9108 4000/47E0_00000       57245                       IF    YNFHELP,'VCALL YESRTNH'  Allow yes/no/help
 0095E6 71D6/47F0 71DC_095E6 095DE 57269                       ELSE  'VCALL YESRTN'      Otherwise just yes/no
                                   57289
 0095F0 59F0 7558/47B0_      0996C 57290                       IF    (R15,LT,0),BEGIN    Attn ...
 0095F8 4110 755C/4100_      09970 57307  1                      SETMSG 'ATTN'
 009600 9120 4000/47E0_00000       57311  1                      IF    YNFATTN,BEGIN       Attn's are allowed...
 009608 5820 C1C8            001C8 57326  2                        L     R2,CVCURJCB         Ptr to current JCB
1FUNC     (FUNC2193) (12:45) (15MAR04) System Routines for Functions                                                        Page  235
0Current Usings:  (YNWA,R4) (VNENTRY,R5) (*,R7) (YNWA-(4+36),R8) (CP,R11) (CV,R12)
0Loc    Object Code    Addr1 Addr2  Stmt Lv Lineno    Source Statement           (Hibal 5, Asmedit 3.3)  HLASM R4.0  2004/03/15 12.45
+___    ______ ____    _____ _____  ____ __ ______    ______ _________
000960C 94FD 2062      00062       57327  2                        WITH  (JCB,R2),'CLEAR JCBFATTN'  Reset attn
 USING  JCB,R2
 DROP   JCB,R2
 009610                            57357  1                      END
 009610                            57361                       END
                                   57365                       ¿þþþþþþþþþþþþþþþþþÜ
                                   57366                       Ÿ  "HELP" or "?"  Ÿ
                                   57367                       ¾þþþþþþþþþþþþþþþþþ»
 009610 7200/47F0 7210_09610 095F6 57368                       ELSEIF (R15,EQ,8),BEGIN   Help...
 00961C 4110 7560/4100_      09974 57394  1                      SETMSG 'HELP'
 009624                            57398                       END
                                   57402                       ¿þþþþþþþþþþþþþþþþþþþþþþþþþþþþþþþþþþþþþþþþþþþþþþÜ
                                   57403                       Ÿ  Unrecognized response (could be NO, NULL).  Ÿ
                                   57404                       ¾þþþþþþþþþþþþþþþþþþþþþþþþþþþþþþþþþþþþþþþþþþþþþþ»
 009624 7214/47F0 7272_09624 0961A 57405                       ELSEIF (R15,GT,0),BEGIN   No (or null)...
                                   57431  1                      ¿þþþþþþþþþþÜ
                                   57432  1                      Ÿ  "NULL"  Ÿ
                                   57433  1                      ¾þþþþþþþþþþ»
 009630 1200/4770 7248             57434  1                      IF    (R0,Z),BEGIN        NULL...
 009636 4110 7564/4100_      09978 57448  2                        SETMSG 'NULL'
 00963E 9110 4000/4710_00000       57452  2                        IF    ~YNFNULL,BEGIN
 009646 4110 7648/4100_      09A5C 57467  3                          TSEG  'Answer '
 009658 47F0 714A            0955E 57485  3                          B     YNLOOP
 00965C                            57486  2                        END
 00965C                            57490  1                      END
                                   57494  1                      ¿þþþþþþþþÜ
                                   57495  1                      Ÿ  "NO"  Ÿ
                                   57496  1                      ¾þþþþþþþþ»
 00965C 724C/47F0 7272 0965C 09634 57497  1                      ELSE  BEGIN               NO...
 009660 4110 7602/4100_      09A16 57508  2                        SETMSG 'NO'
 009668 9140 4000/4710_00000       57512  2                        IF    ~YNFNO,BEGIN
 009670 4110 764F/4100_      09A63 57527  3                          TSEG  'You can not answer NO here, answer '
 009682 47F0 714A            0955E 57545  3                          B     YNLOOP
 009686                            57546  2                        END
 009686                            57550  1                      END
 009686                            57554                       END
                                   57558                       ¿þþþþþþþþþÜ
                                   57559                       Ÿ  "YES"  Ÿ
                                   57560                       ¾þþþþþþþþþ»
 009686 7276/47F0 729C 09686 0962E 57561                       ELSE  BEGIN
 00968A 4110 7672/4100_      09A86 57572  1                      SETMSG 'YES'
 009692 9180 4000/4710_00000       57576  1                      IF    ~YNFYES,BEGIN
 00969A 4110 7568/4100_      0997C 57591  2                        TSEG  'You can not answer YES here, answer '
 0096AC 47F0 714A            0955E 57609  2                        B     YNLOOP
 0096B0                            57610  1                      END
 0096B0                            57614                       END
                                   57618              *
                                   57619              *
 0096B0 D74F 6000 6000_00000 00000 57620              YNSETRC  VRETURN STRING,(R1),(R0)
 USING  VNENTRY,R6
 DROP   VNENTRY,R6
                                   57704
 0096CC 58E0 B08C/4BD0_      0008C 57705              YNEXIT   SCPOP
 0096DA 18D8/9808 D004_            57711                       PEND
1FUNC     (FUNC2193) (12:45) (15MAR04) System Routines for Functions                                                        Page  236
0Current Usings:  (YNWA,R4) (CP,R11) (CV,R12)
0Loc    Object Code    Addr1 Addr2  Stmt Lv Lineno    Source Statement           (Hibal 5, Asmedit 3.3)  HLASM R4.0  2004/03/15 12.45
+___    ______ ____    _____ _____  ____ __ ______    ______ _________
0DROP   VNENTRY,R5
 DROP   YNWA-(4+36),R8
 DROP   *,R7
                                   57741              *
                                   57742              *  SCKW STUFF
                                   57743              *
 0096E8 E8C5E24040404040_          57744              YNPRT    SCKW  YES,YNYES
 009710 D5D6404040404040_          57759                       SCKW  NO,YNNO
 009738 C8C5D3D740404040_          57774                       SCKW  HELP,YNHELP
 009760 D5E4D3D340404040_          57789                       SCKW  NULL,YNNULL
 009788 C1E3E3D540404040_          57804                       SCKW  ATTN,YNATTN
 0097B0 4040404040404040_          57819                       SCKW  ,YNBAD
                                   57834
 0097D8 50E0 D000/9008_      00000 57835              YNYES    PROC  ,
 USING  *,R7
 0097F2 9680 4000      00000       57874                       SET   YNFYES
 0097F6 18D8/9808 D004_            57880                       PEND
 DROP   *,R7
                                   57900
 009804 50E0 D000/9008_      00000 57901              YNNO     PROC  ,
 USING  *,R7
 00981E 9640 4000      00000       57940                       SET   YNFNO
 009822 18D8/9808 D004_            57946                       PEND
 DROP   *,R7
                                   57966
 009830 50E0 D000/9008_      00000 57967              YNHELP   PROC  ,
 USING  *,R7
 00984A 9608 4000      00000       58006                       SET   YNFHELP
 00984E 18D8/9808 D004_            58012                       PEND
 DROP   *,R7
                                   58032
 00985C 50E0 D000/9008_      00000 58033              YNATTN   PROC  ,
 USING  *,R7
 009876 9620 4000      00000       58072                       SET   YNFATTN
 00987A 18D8/9808 D004_            58078                       PEND
 DROP   *,R7
                                   58098
 009888 50E0 D000/9008_      00000 58099              YNNULL   PROC  ,
 USING  *,R7
 0098A2 9610 4000      00000       58138                       SET   YNFNULL
 0098A6 18D8/9808 D004_            58144                       PEND
 DROP   *,R7
                                   58164
 0098B4 50E0 D000/9008_      00000 58165              YNBAD    PROC  ,
 USING  *,R7
 0098CE 41F0 0004            00004 58204                       LA    R15,4
 0098D2 18D8/9808 D004_            58205                       PEND
 DROP   *,R7
 DROP   YNWA,R4                    58225                       DROP  R4
                                   58232                       QLTORG
1FUNC     (FUNC2193) (12:45) (15MAR04) System Routines for Functions                                                        Page  237
0Current Usings:  (CP,R11) (CV,R12)
0Loc    Object Code    Addr1 Addr2  Stmt Lv Lineno    Source Statement           (Hibal 5, Asmedit 3.3)  HLASM R4.0  2004/03/15 12.45
+___    ______ ____    _____ _____  ____ __ ______    ______ _________
0                                  58291              ¿þþþþþþþþþþþþþþþþþþþþþþþþþþþþþþþþþþþþþþþþþþþþþþþþþþþþþþþþþþþþþþþþþþþþþÜ
                                   58292              Ÿ                                                                     Ÿ
                                   58293              Ÿ  ARRAY_SEARCH( array, string [,cnt] [,flags] [,min] [,pos] [,size] )I
                                   58294              Ÿ                                                                     Ÿ
                                   58295              Ÿ   search "array[1] to array[cnt]" for "string", if "cnt" is 0 or    Ÿ
                                   58296              Ÿ     omitted search the whole array.  Returns the index into the     Ÿ
                                   58297              Ÿ     array or 0 if a match is not found. Flags are as follows:       Ÿ
                                   58298              Ÿ        01  Case insensitive compare                                 Ÿ
                                   58299              Ÿ        02  Abbreviation is allowed                                  Ÿ
                                   58300              Ÿ        04  Use a linear search (array is not sorted)                Ÿ
                                   58301              Ÿ        08  Perform a stem-search (array must be sorted)             Ÿ
                                   58302              Ÿ     If abbreviation is allowed then a positive "min" indicates the  Ÿ
                                   58303              Ÿ     minimum abbreviation allowed.  "Pos" and "size" delimit the     Ÿ
                                   58304              Ÿ     portion of each string of array to be compared, they default to Ÿ
                                   58305              Ÿ     1 and "to the end" respectively.                                Ÿ
                                   58306              Ÿ     If a stem-search is being performed "min" is the last element ofI
                                   58307              Ÿ     array searched (i.e., start searching at array[min+1]).         Ÿ
                                   58308              Ÿ                                                                     Ÿ
                                   58309              Ÿ                                                                     Ÿ
                                                      ¾þþþþþþþþþþþþþþþþþþþþþþþþþþþþþþþþþþþþþþþþþþþþþþþþþþþþþþþþþþþþþþþþþþþþþ»
0000000                00000 0011C 58310              ASWA     RECORD  BEGIN
 000000 00                         58318  1           ASFLAG     FLAG    ASFLG80
 ASFLAG.ASFLG80    80 ONES
 ASFLAG.ASFLG40    40 ONES         58324  1                      FLAG    ASFLG40
 ASFLAG.ASFLG20    20 ONES         58329  1                      FLAG    ASFLG20
 ASFLAG.ASFLG10    10 ONES         58334  1                      FLAG    ASFLG10
 ASFLAG.ASSTEM     08 ONES         58339  1                      FLAG    ASSTEM
 ASFLAG.ASLINEAR   04 ONES         58344  1                      FLAG    ASLINEAR
 ASFLAG.ASABBREV   02 ONES         58349  1                      FLAG    ASABBREV
 ASFLAG.ASCASEIN   01 ONES         58354  1                      FLAG    ASCASEIN
 000004                            58359  1                      DS      0F
 000004                            58360  1           ASMIN      DS      F
 000008                            58361  1           ASMAX      DS      F
 00000C                            58362  1           ASPOS      DS      F
 000010                            58363  1           ASSIZ      DS      F
 000014                            58364  1           ASARRAY    DS      F
 000018                            58365  1           ASSTRLEN   DS      F                 length of string
 00001C                            58366  1           ASSTRING   DS      CL256             comparison string
 00011C                0011C 0011C 58367                       END
-                                  58377
 009A96 50E0 D000/9008_      00000 58378              FNASRCH  PROC    ASWA
 USING  *,R7
 USING  ASWA-(4+36),R8
 009AB0 D7FF 8028 8028_00000 00000 58428                       CLEAR   ASWA
 009ABC 4120 7304/58E0_      09DB4 58436                       SETARGS '27XSIIIII'       check arguments
 009AC6 4770 71EA            09C9A 58442                       IF      Z,BEGIN
 USING  VNENTRY,R5                 58453  1                      WITH    (VNENTRY,R5)
                                   58466  1           * check out the array
 009ACA 4151 0000            00000 58467  1                      LA      R5,ARG1(R1)
 009ACE 5050 803C            00014 58468  1                      ST      R5,ASARRAY
 009AD2 9504 5020/4770_00020       58469  1                      IF      VNARRAY,BEGIN
1FUNC     (FUNC2193) (12:45) (15MAR04) System Routines for Functions                                                        Page  238
0Current Usings:  (VNENTRY,R5) (*,R7) (ASWA-(4+36),R8) (CP,R11) (CV,R12)
0Loc    Object Code    Addr1 Addr2  Stmt Lv Lineno    Source Statement           (Hibal 5, Asmedit 3.3)  HLASM R4.0  2004/03/15 12.45
+___    ______ ____    _____ _____  ____ __ ______    ______ _________
0009ADA 9501 5030/4770_00030       58484  2                        IF      VNASTR,BEGIN
 009AE2 4830 5032            00032 58499  3                          LH      R3,VNADIM1        save the array bounds as MAX
 009AE6 5030 8030            00008 58500  3                          ST      R3,ASMAX
 009AEA                            58501  2                        END
 009AEA 703E/47F0 704C 09AEA 09AE0 58505  2                        ELSE    BEGIN             arg 1 array base type not string
 009AEE 4120 0001/58E0_      00001 58516  3                          BADARG  1
 009AF8 47F0 71EA            09C9A 58527  3                          EXIT    FNASRCH
 009AFC                            58530  2                        END
 009AFC                            58534  1                      END
 009AFC 7050/47F0 705E 09AFC 09AD8 58538  1                      ELSE    BEGIN             arg 1 not an array
 009B00 4120 0001/58E0_      00001 58549  2                        BADARG  1
 009B0A 47F0 71EA            09C9A 58560  2                        EXIT    FNASRCH
 009B0E                            58563  1                      END
                                          1                ¿þþþþþþþþþþþþþþþþþþþþþþþþþþþþþþþþþþþþþþþþþþþþÜ
                                   58567  1                Ÿ  see which optional arguments are present  Ÿ
                                          1                ¾þþþþþþþþþþþþþþþþþþþþþþþþþþþþþþþþþþþþþþþþþþþþ»
 009B0E D203 8038 72D8 00010 09D88 58568  1                      MVC     ASSIZ,=F'256'     maximum allowable size
 009B14 5900 72DC/4750_      09D8C 58569  1                      IF      (R0,GE,3),BEGIN   cnt specified
 009B1C 4151 02A0            002A0 58586  2                        LA      R5,ARG3(R1)
 009B20 5830 5024            00024 58587  2                        L       R3,VNVALUE
 009B24 1233/47D0 7086_            58588  2                        IF      ((R3,POS),AND,(R3,LT,ASMAX)),'ST R3,ASMAX'
                                   58624  2
 009B36 5900 72E0/4750_      09D90 58625  2                        IF      (R0,GE,4),BEGIN   flags specified
 009B3E 4151 03F0            003F0 58642  3                          LA      R5,ARG4(R1)
 009B42 5830 5024            00024 58643  3                          L       R3,VNVALUE        set flags
 009B46 4230 8028            00000 58644  3                          STC     R3,ASFLAG
                                   58645  3
 009B4A 5900 72E4/4750_      09D94 58646  3                          IF      (R0,GE,5),BEGIN   min specified
 009B52 4151 0540            00540 58663  4                            LA      R5,ARG5(R1)
 009B56 5830 5024            00024 58664  4                            L       R3,VNVALUE
 009B5A 1233/47D0 70B4_            58665  4                            IF      (R3,POS),'ST R3,ASMIN'
                                   58685  4
 009B64 5900 72E8/4750_      09D98 58686  4                            IF      (R0,GE,6),BEGIN   pos specified
 009B6C 4151 0690            00690 58703  5                              LA      R5,ARG6(R1)
 009B70 5830 5024            00024 58704  5                              L       R3,VNVALUE
 009B74 0630                       58705  5                              DECR    R3
 009B76 1233/47D0 70D0_            58707  5                              IF      (R3,POS),'ST R3,ASPOS'
                                   58727  5
 009B80 5900 72EC/4750_      09D9C 58728  5                              IF      (R0,GE,7),BEGIN   size specified
 009B88 4151 07E0            007E0 58745  6                                LA      R5,ARG7(R1)
 009B8C 5830 5024            00024 58746  6                                L       R3,VNVALUE
 009B90 1233/47D0 70EA_            58747  6                                IF      (R3,POS),'ST R3,ASSIZ'
                                   58767  6
 009B9A                            58768  5                              END
 009B9A                            58772  4                            END
 009B9A                            58776  3                          END
 009B9A                            58780  2                        END
 009B9A                            58784  1                      END
                                   58788  1
 009B9A 4151 0150            00150 58789  1                      LA      R5,ARG2(R1)
 009B9E 4120 5026            00026 58790  1                      LA      R2,VNSTRLOC
 009BA2 4830 5024            00024 58791  1                      LH      R3,VNSTRLEN
 009BA6 5030 8040            00018 58792  1                      ST      R3,ASSTRLEN       save string length away
 009BAA 0630/4430 730E_            58793  1                      DEX     R3,'MVC ASSTRING(0),0(R2)'  move string
1FUNC     (FUNC2193) (12:45) (15MAR04) System Routines for Functions                                                        Page  239
0Current Usings:  (VNENTRY,R5) (*,R7) (ASWA-(4+36),R8) (CP,R11) (CV,R12)
0Loc    Object Code    Addr1 Addr2  Stmt Lv Lineno    Source Statement           (Hibal 5, Asmedit 3.3)  HLASM R4.0  2004/03/15 12.45
+___    ______ ____    _____ _____  ____ __ ______    ______ _________
0009BB0 9101 8028/47E0_00000       58812  1                      IF      ASCASEIN,BEGIN
 009BB8 5840 C8A8            008A8 58827  2                        L       R4,CVUPPTBL       uppercase translate table
 009BBC 4430 7314/DC00_      09DC4 58828  2                        EX      R3,'TR ASSTRING(0),0(R4)'  uppercase the string
 009BC0                            58844  1                      END
                                   58848  1           * do appropriate search
 009BC0 9108 8028/4710_00000       58849  1                      IF      ASSTEM,ASRCHS     stem search?
 009BC8 9104 8028/4710_00000       58867  1                      IF      ASLINEAR,ASRCHL   linear search?
                                          1                ¿þþþþþþþþþþþþþþþþþÜ
                                   58885  1                Ÿ  binary search  Ÿ
                                          1                ¾þþþþþþþþþþþþþþþþþ»
 009BD0 5820 72F0            09DA0 58886  1           ASRCHB     L       R2,=F'1'          LO=1
 009BD4 5840 8030            00008 58887  1                      L       R4,ASMAX          HI=MAX
 009BD8 1924/4730 7156             58888  1                      WHILE   (R2,LE,R4),BEGIN  ; else return 0
 009BDE 1834                       58905  2                        LR      R3,R4             MID=HIGH+LOW/2
 009BE0 1A32                       58906  2                        AR      R3,R2
 009BE2 8830 0001            00001 58907  2                        SRL     R3,1
 009BE6 58E0 72F4/0DEE       09DA4 58908  2                        ACALL   ASCMPC           compare string & array[mid]<p:p+s-1>I
 009BEC 4780 71D0            09C80 58912  2                        IF      EQ,ASFOUND
 009BF0 47B0 7148/1843_      09BF8 58926  2                        IF      LT,'LR R4,R3;DECR R4'   HI=MID-1
 009BF8 47D0 7152/1823_      09C02 58945  2                        IF      GT,'LR R2,R3;INCR R2'   LO=MOD+1
 009C02 47F0 7128            09BD8 58965  1                      END
 009C06 47F0 71CE            09C7E 58970  1                      B       ASNOTFND          didn't find it, oh well
                                          1                ¿þþþþþþþþþþþþþþþþþÜ
                                   58971  1                Ÿ  linear search  Ÿ
                                          1                ¾þþþþþþþþþþþþþþþþþ»
 009C0A 5830 72F0            09DA0 58972  1           ASRCHL     L       R3,=F'1'
 009C0E 5840 8030            00008 58973  1                      L       R4,ASMAX
 009C12 1934/4730 717A             58974  1                      WHILE   (R3,LE,R4),BEGIN
 009C18 58E0 72F4/0DEE       09DA4 58991  2                        ACALL   ASCMPC
 009C1E 4780 71D0            09C80 58995  2                        IF      EQ,ASFOUND
 009C22 5E30 72F8            09DA8 59009  2                        INCR    R3                look at the next one
 009C26 47F0 7162            09C12 59012  1                      END
 009C2A 47F0 71CE            09C7E 59017  1                      B       ASNOTFND          didn't find it
                                          1                ¿þþþþþþþþþþþþþþþÜ
                                   59018  1                Ÿ  stem search  Ÿ
                                          1                ¾þþþþþþþþþþþþþþþ»
 009C2E 1B33                       59019  1           ASRCHS     CLEAR   R3                index of previous stem-match
 009C30 5840 802C            00004 59024  1                      L       R4,ASMIN          index to start matching
 009C34 1B22                       59025  1                      CLEAR   R2                number of chars in prev s-match
 009C36 1244/4780 7194             59029  1                      IF      (R4,NZ),BEGIN     had a previous stem-match
 009C3C 58E0 72F4/0DEE       09DA4 59043  2                        ACALL   ASCMPC            match characters
 009C42 182F                       59047  2                        LR      R2,R15
 009C44                            59048  1                      END
 009C44 5E40 72F8            09DA8 59052  1                      INCR    R4
 009C48 5940 8030/4730_      00008 59055  1                      WHILE   (R4,LE,ASMAX),BEGIN
 009C50 58E0 72F4/0DEE       09DA4 59074  2                        ACALL   ASCMPC            R15=matchc(array[r4])
 009C56 19F2/4740 71D0             59078  2                        IF      (R15,LT,R2),ASFOUND  found a shorter match (done)
 009C5C 19F2/4720 71BE_            59096  2                        IF      ((R15,GT,R2),OR,((R3,Z),AND,(R15,NZ))),BEGIN  match
 009C6E 182F                       59137  3                          LR      R2,R15            longest match so far
 009C70 1834                       59138  3                          LR      R3,R4             index of the element
 009C72                            59139  2                        END
 009C72 5E40 72F8            09DA8 59143  2                        INCR    R4
 009C76 47F0 7198            09C48 59146  1                      END
 009C7A 47F0 71D0            09C80 59151  1                      B       ASFOUND           if (R3 > 0) found something
1FUNC     (FUNC2193) (12:45) (15MAR04) System Routines for Functions                                                        Page  240
0Current Usings:  (VNENTRY,R5) (*,R7) (ASWA-(4+36),R8) (CP,R11) (CV,R12)
0Loc    Object Code    Addr1 Addr2  Stmt Lv Lineno    Source Statement           (Hibal 5, Asmedit 3.3)  HLASM R4.0  2004/03/15 12.45
+___    ______ ____    _____ _____  ____ __ ______    ______ _________
0                                  59152  1
 009C7E 1B33                       59153  1           ASNOTFND   CLEAR   R3
 009C80 D74F 6000 6000_00000 00000 59158  1           ASFOUND    VRETURN INTEGER,(R3)
 USING  VNENTRY,R6
 DROP   VNENTRY,R6
 DROP   VNENTRY,R5                 59205                       END
 009C9A 18D8/9808 D004_            59214                       PEND
 DROP   ASWA-(4+36),R8
 DROP   *,R7
-                                  59240              ¿þþþþþþþþþþþþþþþþþþþþþþþþþþþþþþþþþþþþþþþþþþþþþþþþþþþþþþþþþþþþþþþþþþþþþÜ
                                   59241              Ÿ compare subroutine                                                  Ÿ
                                   59242              Ÿ   on input:  R3  index of array element to compare (~ASSTEM)        Ÿ
                                   59243              Ÿ              R4  index of array element to match (ASSTEM)           Ÿ
                                   59244              Ÿ              R8  address of ASWA                                    Ÿ
                                   59245              Ÿ   on output: R15 count of matched characters (ASSTEM)               Ÿ
                                                      ¾þþþþþþþþþþþþþþþþþþþþþþþþþþþþþþþþþþþþþþþþþþþþþþþþþþþþþþþþþþþþþþþþþþþþþ»
0009CA8 50E0 D000/9008_      00000 59246              ASCMPC   PROC    ASWA,TRACE=NO
 USING  *,R7
 USING  ASWA-(4+36),R8
 009CB8 1868                       59295                       LR      R6,R8             save our WAR
 009CBA 5888 0024            00024 59296                       L       R8,36(R8)         point WAR back at callers work areaI
 009CBE 1B00                       59297                       CLEAR   R0                we have no array descriptor
 USING  VNENTRY,R2                 59301                       WITH    (VNENTRY,R2),BEGIN
 009CC0 5820 803C            00014 59315  1                      L       R2,ASARRAY
 009CC4 1812                       59316  1                      LR      R1,R2             R1,R2 point to VNENTRY area
 009CC6 9108 8028/47E0_00000       59317  1                      IF      ASSTEM,'LR R3,R4'
 009CD0 4030 2012            00012 59338  1                      STH     R3,VNASUB1
 009CD4 58E0 70F8/0DEE       09DB0 59339  1                      VCALL   GETARRAY
 009CDA 4780 7028/0000       09CE0 59343  1                      IF      NZ,'BOMB'         We are screwed
 DROP   VNENTRY,R2                 59361                       END
 USING  VNENTRY,R5                 59369                       WITH    (VNENTRY,R5),BEGIN
 009CE0 1852                       59383  1                      LR      R5,R2
 009CE2 4100 8044            0001C 59384  1                      LA      R0,ASSTRING
 009CE6 5810 8040            00018 59385  1                      L       R1,ASSTRLEN
 009CEA 4120 5026            00026 59386  1                      LA      R2,VNSTRLOC
 009CEE 4830 5024            00024 59387  1                      LH      R3,VNSTRLEN
 009CF2 9102 8028/47E0_00000       59388  1                      IF      (ASABBREV,AND,(R1,GE,R3)),'LR R1,R3'
 009D02 5A20 8034            0000C 59423  1                      A       R2,ASPOS          Take care of POS & SIZE
 009D06 5B30 8034            0000C 59424  1                      S       R3,ASPOS
 009D0A 5930 8038/47D0_      00010 59425  1                      IF      (ASSIZ,LT,R3),'L R3,ASSIZ'
 009D16 1233/47B0 7066_            59448  1                      IF      (R3,NEG),'CLEAR R3'
 009D1E 9101 8028/47E0_00000       59471  1                      IF      ASCASEIN,BEGIN
 009D26 5840 C8A8            008A8 59486  2                        L       R4,CVUPPTBL
 009D2A 0630/4430 7112_            59487  2                        DEX     R3,'TR @R2(0),0(R4)'  upcase the array element
 009D30 5E30 70F0            09DA8 59506  2                        INCR    R3
 009D34                            59509  1                      END
 009D34 9108 8028/47E0_00000       59513  1                      IF      ASSTEM,BEGIN
 009D3C 1BFF                       59528  2                        CLEAR   R15               count of characters matched
 009D3E 1840                       59532  2                        LR      R4,R0             since we can't use R0 in a CLC
                                   59533  2         C              WHILE   ((R15,LT,R1),AND,(R15,LT,R3),AND,
 009D40 19F1/47B0 70AE_                   2                              ('CLC @R4(1),@R2',EQ)),BEGIN
1FUNC     (FUNC2193) (12:45) (15MAR04) System Routines for Functions                                                        Page  241
0Current Usings:  (VNENTRY,R5) (*,R7) (ASWA-(4+36),R8) (CP,R11) (CV,R12)
0Loc    Object Code    Addr1 Addr2  Stmt Lv Lineno    Source Statement           (Hibal 5, Asmedit 3.3)  HLASM R4.0  2004/03/15 12.45
+___    ______ ____    _____ _____  ____ __ ______    ______ _________
0009D56 5EF0 70F0            09DA8 59574  3                          INCR    R15               one more matched
 009D5A 5E40 70F0            09DA8 59577  3                          INCR    R4                bump input string pointer
 009D5E 5E20 70F0            09DA8 59580  3                          INCR    R2                bump array element pointer
 009D62 47F0 7088            09D40 59583  2                        END
 009D66                            59588  1                      END
 009D66 70B2/47F0 70B4_09D66 09D3A 59592  1                      ELSE    'CLCL R0,R2'
 DROP   VNENTRY,R5                 59609                       END
 009D6C 1886                       59617                       LR      R8,R6             put WAR back where it belongs
 009D6E 18D8/9808 D004_            59618                       PEND    *
 DROP   ASWA-(4+36),R8
 DROP   *,R7
                                   59642                       QLTORG
1FUNC     (FUNC2193) (12:45) (15MAR04) System Routines for Functions                                                        Page  242
0Current Usings:  (CP,R11) (CV,R12)
0Loc    Object Code    Addr1 Addr2  Stmt Lv Lineno    Source Statement           (Hibal 5, Asmedit 3.3)  HLASM R4.0  2004/03/15 12.45
+___    ______ ____    _____ _____  ____ __ ______    ______ _________
0                                  59669              ¿þþþþþþþþþþþþþþþþþþþþþþþþþþþþþþþþþþþþþþþþþþþþþþþþþþþþþþþþþþþþþþþþþþþþþÜ
                                   59670              Ÿ   BOUNDS                                                            Ÿ
                                   59671              Ÿ                                                                     Ÿ
                                   59672              Ÿ     BOUNDS('array-name' [,dimension])                               Ÿ
                                   59673              Ÿ                                                                     Ÿ
                                   59674              Ÿ     Returns the declared size of an array dimension.  Returns -1 if Ÿ
                                   59675              Ÿ     array-name is not declared.  Returns 0 if array-name is a scalarI
                                   59676              Ÿ     or if the array is of less dimensions than specified.           Ÿ
                                                      ¾þþþþþþþþþþþþþþþþþþþþþþþþþþþþþþþþþþþþþþþþþþþþþþþþþþþþþþþþþþþþþþþþþþþþþ»
0009DD0 50E0 D000/9008_      00000 59677              FNBOUNDS PROC  FNVARWA
 USING  *,R7
 USING  FNVARWA-(4+36),R8
 009DEA 58E0 B08C/D2AF_      0008C 59727                       SCPUSH ,
 009DF8 18ED/41D0 D43C_            59733                       TPUSH
                                   59771              *
                                   59772              *
 009E2C 4120 714A/58E0_      09F34 59773                       SETARGS '12SI'            2 Args: a string, an optional int
 009E36 4770 711A            09F04 59779                       IF    Z,BEGIN
 USING  VNENTRY,R5                 59790  1                      WITH  (VNENTRY,R5)
 009E3A 5900 7152/47B0_      09F3C 59803  1                      IF    (R0,LT,2),'LA R3,1' Dimension omitted, default it to 1
 009E46 7060/47F0 7068 09E46 09E40 59826  1                      ELSE  BEGIN
 009E4A 4151 0150            00150 59837  2                        LA    R5,ARG2(R1)
 009E4E 5830 5024            00024 59838  2                        L     R3,VNVALUE          Get the dimension specified
 009E52                            59839  1                      END
 009E52 5930 7156/4740_      09F40 59843  1                      IF    ((R3,LT,1),OR,(R3,GT,3)),BEGIN
 009E62 4120 0002/58E0_      00002 59876  2                        BADARG 2
 009E6C 47F0 7132            09F1C 59887  2                        EXIT  FNBOUNDS
 009E70                            59890  1                      END
 009E70 708A/47F0 7100 09E70 09E60 59894  1                      ELSE  BEGIN
 009E74 5840 7162            09F4C 59905  2                        L     R4,=F'-1'           Assume variable is undefined
                                   59906  2
 009E78 4151 0000            00000 59907  2                        LA    R5,ARG1(R1)
 009E7C 4110 5026/4800_      00026 59908  2                        SETMSG VNSTRLOC,LH:VNSTRLEN  Loads R0,R1
 009E84 4120 8038            00010 59921  2                        LA    R2,FNVARPRM
 009E88 58E0 7166/0DEE       09F50 59922  2                        VCALL SCNVDESC            Scan variable name
 009E8E 4770 7100            09EEA 59926  2                        IF    Z,BEGIN             Is it a valid variable name?
 009E92 4150 8038            00010 59937  3                          LA    R5,FNVARPRM         Working VPARM area
 009E96 1B00                       59938  3                          CLEAR R0
 009E98 4110 5000            00000 59942  3                          LA    R1,VNENTRY
 009E9C 1821                       59943  3                          LR    R2,R1
 009E9E D601 5012 5012_00012 00012 59944  3                          IF    (VNASUB1,Z),'VCALL GETVAR'
 009EAE 70C8/47F0 70CE_09EAE 09EA6 59969  3                          ELSE  'VCALL GETARRAY'
 009EB8 4770 7100            09EEA 59989  3                          IF    Z,BEGIN             Is it declared?
 009EBC 1B44                       60000  4                            CLEAR R4                  Assume it's a scalar
 009EBE 9504 5020/4770_00020       60004  4                            IF    VNARRAY,BEGIN       Array?  Get the requested dimensionI
 009EC6 5930 7156/4770_      09F40 60019  5                              IF    (R3,EQ,1),'LH R4,VNADIM1'
 009ED2 5930 7152/4770_      09F3C 60042  5                              IF    (R3,EQ,2),'LH R4,VNADIM2'
 009EDE 5930 715A/4770_      09F44 60065  5                              IF    (R3,EQ,3),'LH R4,VNADIM3'
 009EEA                            60088  4                            END
 009EEA                            60092  3                          END
 009EEA                            60096  2                        END
 009EEA                            60100  1                      END
                                   60104  1
1FUNC     (FUNC2193) (12:45) (15MAR04) System Routines for Functions                                                        Page  243
0Current Usings:  (VNENTRY,R5) (*,R7) (FNVARWA-(4+36),R8) (CP,R11) (CV,R12)
0Loc    Object Code    Addr1 Addr2  Stmt Lv Lineno    Source Statement           (Hibal 5, Asmedit 3.3)  HLASM R4.0  2004/03/15 12.45
+___    ______ ____    _____ _____  ____ __ ______    ______ _________
0009EEA D74F 6000 6000_00000 00000 60105  1                      VRETURN INTEGER,(R4)      Return array bounds
 USING  VNENTRY,R6
 DROP   VNENTRY,R6
 DROP   VNENTRY,R5                 60152                       END
                                   60161              *
                                   60162              *
 009F04 4BD0 7178/D23B_      09F62 60163                       TPOP  JUNK
 009F0E 58E0 B08C/4BD0_      0008C 60168                       SCPOP ,
 009F1C 18D8/9808 D004_            60174                       PEND
 DROP   FNVARWA-(4+36),R8
 DROP   *,R7
                                   60199                       QLTORG
                                   60226
                                   60227                       VLTORG
 009F78                09F78 09F78 60236                       END   .

1FUNC     (FUNC2193) (12:45) (15MAR04) Relocation Dictionary                                                                Page  244
-   Pos.Id   Rel.Id   Flags    Address                                                       HLASM R4.0  2004/03/15 12.45
0  00000001 00000001    0C    0000031C
   00000001 00000001    0C    00000320
   00000001 00000001    0C    0000034C
   00000001 00000001    0C    00000488
   00000001 00000001    0C    0000049C
   00000001 00000001    0C    000004B0
   00000001 00000001    0C    000004C4
   00000001 00000001    0C    000004D8
   00000001 00000001    0C    000004EC
   00000001 00000001    0C    00000500
   00000001 00000001    0C    00000514
   00000001 00000001    0C    00000528
   00000001 00000001    0C    0000053C
   00000001 00000001    0C    00000550
   00000001 00000001    0C    00000564
   00000001 00000001    0C    00000578
   00000001 00000001    0C    0000058C
   00000001 00000001    0C    000005A0
   00000001 00000001    0C    000005B4
   00000001 00000001    0C    000005C8
   00000001 00000001    0C    000005DC
   00000001 00000001    0C    000005F0
   00000001 00000001    0C    00000604
   00000001 00000001    0C    00000618
   00000001 00000001    0C    0000062C
   00000001 00000001    0C    00000640
   00000001 00000001    0C    00000654
   00000001 00000001    0C    00000668
   00000001 00000001    0C    0000067C
   00000001 00000001    0C    00000690
   00000001 00000001    0C    000006A4
   00000001 00000001    0C    000006B8
   00000001 00000001    0C    000006CC
   00000001 00000001    0C    000006E0
   00000001 00000001    0C    000006F4
   00000001 00000001    0C    00000708
   00000001 00000001    0C    0000071C
   00000001 00000001    0C    00000730
   00000001 00000001    0C    00000744
   00000001 00000001    0C    00000758
   00000001 00000001    0C    0000076C
   00000001 00000001    0C    00000780
   00000001 00000001    0C    00000794
   00000001 00000001    0C    000007A8
   00000001 00000001    0C    000007BC
   00000001 00000001    0C    000007D0
   00000001 00000001    0C    000007E4
   00000001 00000001    0C    000007F8
   00000001 00000001    0C    0000080C
   00000001 00000001    0C    00000820
   00000001 00000001    0C    00000834
   00000001 00000001    0C    00000848
   00000001 00000001    0C    0000085C
   00000001 00000001    0C    00000870
   00000001 00000001    0C    00000884
1FUNC     (FUNC2193) (12:45) (15MAR04) Relocation Dictionary                                                                Page  245
   00000001 00000001    0C    00000898
   00000001 00000001    0C    000008AC
   00000001 00000001    0C    000008C0
   00000001 00000001    0C    000008D4
   00000001 00000001    0C    000008E8
   00000001 00000001    0C    000008FC
   00000001 00000001    0C    00000910
   00000001 00000001    0C    00000924
   00000001 00000001    0C    00000938
   00000001 00000001    0C    0000094C
   00000001 00000001    0C    00000960
   00000001 00000001    0C    00000974
   00000001 00000001    0C    00000988
   00000001 00000001    0C    0000099C
   00000001 00000001    0C    000009B0
   00000001 00000001    0C    000009C4
   00000001 00000001    0C    000009D8
   00000001 00000001    0C    000009EC
   00000001 00000001    0C    00000A00
   00000001 00000001    0C    00000A14
   00000001 00000001    0C    00000A28
   00000001 00000001    0C    00000A3C
   00000001 00000001    0C    00000A50
   00000001 00000001    0C    00000A64
   00000001 00000001    0C    00000A78
   00000001 00000001    0C    00000A8C
   00000001 00000001    0C    00000AA0
   00000001 00000001    0C    00000AB4
   00000001 00000001    0C    00000AC8
   00000001 00000001    0C    00000ADC
   00000001 00000001    0C    00000AF0
   00000001 00000001    0C    00000B04
   00000001 00000001    0C    00000B18
   00000001 00000001    0C    00000B2C
   00000001 00000001    0C    00000B40
   00000001 00000001    0C    00000B54
   00000001 00000001    0C    00000B68
   00000001 00000001    0C    00000B7C
   00000001 00000001    0C    00000B90
   00000001 00000001    0C    00000BA4
   00000001 00000001    0C    00000BB8
   00000001 00000001    0C    00000BCC
   00000001 00000001    0C    00000BE0
   00000001 00000001    0C    00000BF4
   00000001 00000001    0C    00000C08
   00000001 00000001    0C    00000C1C
   00000001 00000001    0C    00000C30
   00000001 00000001    0C    00000C44
   00000001 00000001    0C    00000C58
   00000001 00000001    0C    00000C6C
   00000001 00000001    0C    00000C80
   00000001 00000001    0C    00000C94
   00000001 00000001    0C    00000CA8
   00000001 00000001    0C    00000CBC
   00000001 00000001    0C    00000CD0
   00000001 00000001    0C    00000CE4
   00000001 00000001    0C    00000CF8
   00000001 00000001    0C    00000D0C
   00000001 00000001    0C    00000D20
1FUNC     (FUNC2193) (12:45) (15MAR04) Relocation Dictionary                                                                Page  246
   00000001 00000001    0C    00000D34
   00000001 00000001    0C    00000D48
   00000001 00000001    0C    00000D5C
   00000001 00000001    0C    00000D70
   00000001 00000001    0C    00000D84
   00000001 00000001    0C    00000D98
   00000001 00000001    0C    00000DAC
   00000001 00000001    0C    00000DC0
   00000001 00000001    0C    00000DD4
   00000001 00000001    0C    00000DE8
   00000001 00000001    0C    00000DFC
   00000001 00000001    0C    00000E10
   00000001 00000001    0C    00000E24
   00000001 00000001    0C    00000E38
   00000001 00000001    0C    00000E4C
   00000001 00000001    0C    00000E60
   00000001 00000001    0C    00000E74
   00000001 00000001    0C    00000E88
   00000001 00000001    0C    00000E9C
   00000001 00000001    0C    00000EB0
   00000001 00000001    0C    00000EC4
   00000001 00000001    0C    00000ED8
   00000001 00000001    0C    00000EEC
   00000001 00000001    0C    0000148C
   00000001 00000001    0C    00001498
   00000001 00000001    0C    00001FE0
   00000001 00000001    0C    00001FE8
   00000001 00000001    0C    00002344
   00000001 00000001    0C    00002570
   00000001 00000001    0C    000025B0
   00000001 00000001    0C    000025B8
   00000001 00000001    0C    000025D4
   00000001 00000001    0C    000027E4
   00000001 00000001    0C    00002818
   00000001 00000001    0C    00002820
   00000001 00000001    0C    00002A00
   00000001 00000001    0C    00002A38
   00000001 00000001    0C    00002A40
   00000001 00000001    08    00002D07
   00000001 00000001    0C    00002D84
   00000001 00000001    0C    00002DB8
   00000001 00000001    0C    00002DC0
   00000001 00000001    0C    00003114
   00000001 00000001    0C    0000313C
   00000001 00000001    0C    00003164
   00000001 00000001    0C    0000318C
   00000001 00000001    0C    00003274
   00000001 00000001    0C    0000327C
   00000001 00000001    0C    00003290
   00000001 00000001    0C    00003294
   00000001 00000001    0C    000036E4
   00000001 00000001    0C    000036E8
   00000001 00000001    0C    00003BD0
   00000001 00000001    0C    00003DF8
   00000001 00000001    0C    00003E20
   00000001 00000001    0C    00003E48
   00000001 00000001    0C    00003E70
   00000001 00000001    0C    00003E98
   00000001 00000001    0C    00004300
1FUNC     (FUNC2193) (12:45) (15MAR04) Relocation Dictionary                                                                Page  247
   00000001 00000001    0C    00004328
   00000001 00000001    0C    00004350
   00000001 00000001    0C    00004378
   00000001 00000001    0C    000043A0
   00000001 00000001    0C    000043C8
   00000001 00000001    0C    000043F0
   00000001 00000001    0C    00004418
   00000001 00000001    0C    00004440
   00000001 00000001    0C    00004468
   00000001 00000001    0C    00004490
   00000001 00000001    0C    00004764
   00000001 00000001    0C    00004774
   00000001 00000001    0C    0000477C
   00000001 00000001    0C    0000478C
   00000001 00000001    0C    00004798
   00000001 00000001    0C    00004ACC
   00000001 00000001    0C    00004AF4
   00000001 00000001    0C    00004B1C
   00000001 00000001    0C    00004B44
   00000001 00000001    0C    00004B6C
   00000001 00000001    0C    00004B94
   00000001 00000001    0C    00004BBC
   00000001 00000001    0C    00004BE4
   00000001 00000001    0C    00004C0C
   00000001 00000001    0C    00004C34
   00000001 00000001    0C    00004C5C
   00000001 00000001    0C    00004C84
   00000001 00000001    0C    00004CAC
   00000001 00000001    0C    00004CD4
   00000001 00000001    0C    00004CFC
   00000001 00000001    0C    00004D24
   00000001 00000001    0C    00004D4C
   00000001 00000001    0C    00004D74
   00000001 00000001    0C    00004D9C
   00000001 00000001    0C    00004DC4
   00000001 00000001    0C    00004DEC
   00000001 00000001    0C    00004E14
   00000001 00000001    0C    00004E3C
   00000001 00000001    0C    00004E64
   00000001 00000001    0C    00004E8C
   00000001 00000001    0C    00004EB4
   00000001 00000001    0C    0000550C
   00000001 00000001    0C    00005514
   00000001 00000001    0C    0000553C
   00000001 00000001    0C    000058FC
   00000001 00000001    0C    00005904
   00000001 00000001    0C    00005CC0
   00000001 00000001    0C    00005CD0
   00000001 00000001    0C    0000649C
   00000001 00000001    0C    000064A4
   00000001 00000001    0C    000066E0
   00000001 00000001    0C    000066F4
   00000001 00000001    0C    00007170
   00000001 00000001    0C    00007198
   00000001 00000001    0C    000075B0
   00000001 00000001    0C    000075B8
   00000001 00000001    0C    000075D4
   00000001 00000001    0C    00007600
   00000001 00000001    0C    00007614
1FUNC     (FUNC2193) (12:45) (15MAR04) Relocation Dictionary                                                                Page  248
   00000001 00000001    0C    00008310
   00000001 00000001    0C    00008318
   00000001 00000001    0C    000085A8
   00000001 00000001    0C    00008944
   00000001 00000001    0C    0000895C
   00000001 00000001    0C    00008F20
   00000001 00000001    0C    00008F44
   00000001 00000001    0C    00008F58
   00000001 00000001    0C    0000970C
   00000001 00000001    0C    00009734
   00000001 00000001    0C    0000975C
   00000001 00000001    0C    00009784
   00000001 00000001    0C    000097AC
   00000001 00000001    0C    000097D4
   00000001 00000001    0C    00009900
   00000001 00000001    0C    0000990C
   00000001 00000001    0C    0000993C
   00000001 00000001    0C    00009D80
   00000001 00000001    0C    00009D84
   00000001 00000001    0C    00009DA4
   00000001 00000001    0C    00009F38
   00000001 00000001    0C    00009F48
   00000001 00000002    1C    00000318
   00000001 00000003    1C    00000324
   00000001 00000004    1C    00000328
   00000001 00000005    1C    00000330
   00000001 00000005    1C    0000044C
   00000001 00000005    1C    00001FF0
   00000001 00000005    1C    000036E0
   00000001 00000005    1C    00004788
   00000001 00000005    1C    0000551C
   00000001 00000005    1C    00005900
   00000001 00000005    1C    00005CE4
   00000001 00000005    1C    000064BC
   00000001 00000005    1C    000066F0
   00000001 00000005    1C    000075B4
   00000001 00000005    1C    00008320
   00000001 00000005    1C    00008964
   00000001 00000005    1C    00008F54
   00000001 00000005    1C    00009908
   00000001 00000006    1C    00000334
   00000001 00000006    1C    00000454
   00000001 00000007    1C    00000338
   00000001 00000007    1C    00003700
   00000001 00000007    1C    00008360
   00000001 00000008    1C    0000033C
   00000001 00000008    1C    0000205C
   00000001 00000008    1C    0000835C
   00000001 00000009    1C    00000340
   00000001 00000009    1C    00002058
   00000001 0000000A    1C    00000344
   00000001 0000000B    1C    00000348
   00000001 0000000C    1C    00000448
   00000001 0000000C    1C    00001488
   00000001 0000000C    1C    00002000
   00000001 0000000C    1C    0000479C
   00000001 0000000C    1C    000064C0
   00000001 0000000C    1C    00008328
   00000001 0000000C    1C    00009960
1FUNC     (FUNC2193) (12:45) (15MAR04) Relocation Dictionary                                                                Page  249
   00000001 0000000D    1C    00000450
   00000001 0000000E    1C    000014BC
   00000001 0000000E    1C    00002040
   00000001 0000000F    1C    000014DC
   00000001 0000000F    1C    000036FC
   00000001 0000000F    1C    000047C8
   00000001 0000000F    1C    00005560
   00000001 0000000F    1C    000064F8
   00000001 0000000F    1C    000066EC
   00000001 0000000F    1C    000075F0
   00000001 0000000F    1C    00008368
   00000001 0000000F    1C    00008F4C
   00000001 0000000F    1C    00009924
   00000001 0000000F    1C    00009DAC
   00000001 0000000F    1C    00009F5C
   00000001 00000010    1C    00001FF4
   00000001 00000010    1C    00003BD4
   00000001 00000010    1C    0000476C
   00000001 00000010    1C    000075C4
   00000001 00000010    1C    0000836C
   00000001 00000011    1C    00001FF8
   00000001 00000012    1C    00002010
   00000001 00000013    1C    0000201C
   00000001 00000014    1C    00002044
   00000001 00000015    1C    00002048
   00000001 00000016    1C    00002050
   00000001 00000017    1C    0000231C
   00000001 00000017    1C    00002548
   00000001 00000017    1C    000029D8
   00000001 00000018    1C    00002340
   00000001 00000018    1C    0000256C
   00000001 00000018    1C    000027E0
   00000001 00000018    1C    000029FC
   00000001 00000018    1C    00002D80
   00000001 00000018    1C    00003110
   00000001 00000018    1C    00003188
   00000001 00000018    1C    00003E94
   00000001 00000018    1C    0000448C
   00000001 00000018    1C    00004EB0
   00000001 00000018    1C    00007194
   00000001 00000018    1C    000097D0
   00000001 00000019    1C    000025B4
   00000001 00000019    1C    00002A3C
   00000001 0000001A    1C    000025BC
   00000001 0000001A    1C    00002824
   00000001 0000001A    1C    00002A44
   00000001 0000001A    1C    00002DC4
   00000001 0000001A    1C    00003280
   00000001 0000001A    1C    00004778
   00000001 0000001A    1C    00005518
   00000001 0000001A    1C    00007618
   00000001 0000001A    1C    0000834C
   00000001 0000001A    1C    00009940
   00000001 0000001B    1C    000025C0
   00000001 0000001B    1C    00002A48
   00000001 0000001C    1C    000025C4
   00000001 0000001D    1C    000025D8
   00000001 0000001E    1C    000027BC
   00000001 0000001E    1C    00002D5C
1FUNC     (FUNC2193) (12:45) (15MAR04) Relocation Dictionary                                                                Page  250
   00000001 0000001E    1C    000030EC
   00000001 0000001F    1C    0000281C
   00000001 0000001F    1C    00002DBC
   00000001 0000001F    1C    00003278
   00000001 00000020    1C    00002828
   00000001 00000020    1C    00002DC8
   00000001 00000020    1C    00003284
   00000001 00000021    1C    0000282C
   00000001 00000021    1C    00002DCC
   00000001 00000021    1C    00003288
   00000001 00000022    1C    00002830
   00000001 00000023    1C    00002A4C
   00000001 00000024    1C    00002DD0
   00000001 00000025    1C    00002DD4
   00000001 00000026    1C    00002DD8
   00000001 00000027    1C    00002DDC
   00000001 00000028    1C    00002DE0
   00000001 00000029    1C    00002DEC
   00000001 0000002A    1C    00002DF0
   00000001 0000002B    1C    00003138
   00000001 0000002B    1C    00003160
   00000001 0000002B    1C    00003DF4
   00000001 0000002B    1C    00003E1C
   00000001 0000002B    1C    00003E44
   00000001 0000002B    1C    00003E6C
   00000001 0000002B    1C    000042FC
   00000001 0000002B    1C    00004324
   00000001 0000002B    1C    0000434C
   00000001 0000002B    1C    00004374
   00000001 0000002B    1C    0000439C
   00000001 0000002B    1C    000043C4
   00000001 0000002B    1C    000043EC
   00000001 0000002B    1C    00004414
   00000001 0000002B    1C    0000443C
   00000001 0000002B    1C    00004AC8
   00000001 0000002B    1C    00004AF0
   00000001 0000002B    1C    00004B18
   00000001 0000002B    1C    00004B40
   00000001 0000002B    1C    00004B68
   00000001 0000002B    1C    00004B90
   00000001 0000002B    1C    00004BB8
   00000001 0000002B    1C    00004BE0
   00000001 0000002B    1C    00004C08
   00000001 0000002B    1C    00004C30
   00000001 0000002B    1C    00004C58
   00000001 0000002B    1C    00004C80
   00000001 0000002B    1C    00004CA8
   00000001 0000002B    1C    00004CD0
   00000001 0000002B    1C    00004CF8
   00000001 0000002B    1C    00004D20
   00000001 0000002B    1C    00004D48
   00000001 0000002B    1C    00004D70
   00000001 0000002B    1C    00004D98
   00000001 0000002B    1C    00004DC0
   00000001 0000002B    1C    00004DE8
   00000001 0000002B    1C    00004E10
   00000001 0000002B    1C    0000716C
   00000001 0000002B    1C    00009708
   00000001 0000002B    1C    00009730
1FUNC     (FUNC2193) (12:45) (15MAR04) Relocation Dictionary                                                                Page  251
   00000001 0000002B    1C    00009758
   00000001 0000002B    1C    00009780
   00000001 0000002B    1C    000097A8
   00000001 0000002C    1C    00003298
   00000001 0000002D    1C    000036F4
   00000001 0000002E    1C    00003BD8
   00000001 0000002F    1C    00003BDC
   00000001 00000030    1C    00003BE0
   00000001 00000031    1C    00003BEC
   00000001 00000032    1C    00004464
   00000001 00000032    1C    00004E38
   00000001 00000032    1C    00004E60
   00000001 00000032    1C    00004E88
   00000001 00000033    1C    00004780
   00000001 00000033    1C    000075D0
   00000001 00000034    1C    00004784
   00000001 00000034    1C    00007604
   00000001 00000035    1C    00004794
   00000001 00000036    1C    000047A0
   00000001 00000036    1C    00005540
   00000001 00000036    1C    00008F30
   00000001 00000036    1C    00009F30
   00000001 00000037    1C    000047A4
   00000001 00000037    1C    00005544
   00000001 00000038    1C    000047C0
   00000001 00000038    1C    00005558
   00000001 00000038    1C    000075CC
   00000001 00000039    1C    00005564
   00000001 00000039    1C    000064FC
   00000001 0000003A    1C    0000590C
   00000001 0000003B    1C    00005914
   00000001 0000003C    1C    0000591C
   00000001 0000003D    1C    00005920
   00000001 0000003E    1C    00005924
   00000001 0000003F    1C    00005CC4
   00000001 0000003F    1C    000064AC
   00000001 0000003F    1C    000066E8
   00000001 0000003F    1C    00008F88
   00000001 0000003F    1C    0000991C
   00000001 00000040    1C    00005CD4
   00000001 00000041    1C    00005CE0
   00000001 00000042    1C    00005CE8
   00000001 00000043    1C    00005CEC
   00000001 00000044    1C    000064A8
   00000001 00000045    1C    000064B4
   00000001 00000046    1C    000064B8
   00000001 00000047    1C    00006504
   00000001 00000047    1C    00008354
   00000001 00000048    1C    00006510
   00000001 00000048    1C    00008364
   00000001 00000048    1C    00009910
   00000001 00000049    1C    000066E4
   00000001 00000049    1C    00009920
   00000001 0000004A    1C    000075BC
   00000001 0000004B    1C    000075C8
   00000001 0000004C    1C    000075D8
   00000001 0000004D    1C    000075EC
   00000001 0000004E    1C    000075F8
   00000001 0000004F    1C    000075FC
1FUNC     (FUNC2193) (12:45) (15MAR04) Relocation Dictionary                                                                Page  252
   00000001 00000050    1C    00007608
   00000001 00000051    1C    0000760C
   00000001 00000052    1C    00007620
   00000001 00000053    1C    00007624
   00000001 00000054    1C    00007628
   00000001 00000055    1C    0000762C
   00000001 00000056    1C    00008370
   00000001 00000057    1C    00008380
   00000001 00000058    1C    000085B0
   00000001 00000059    1C    000085B4
   00000001 0000005A    1C    00008948
   00000001 0000005B    1C    00008F28
   00000001 0000005C    1C    00008F38
   00000001 0000005C    1C    00009F50
   00000001 0000005D    1C    00008F3C
   00000001 0000005D    1C    00009F54
   00000001 0000005E    1C    00008F40
   00000001 0000005E    1C    00009DB0
   00000001 0000005E    1C    00009F58
   00000001 0000005F    1C    00008F80
   00000001 00000060    1C    00008F84
   00000001 00000061    1C    00008F8C
   00000001 00000062    1C    00009964
   00000001 00000063    1C    00009968

1FUNC     (FUNC2193) (12:45) (15MAR04) Ordinary Symbol and Literal Cross Reference                                          Page  253
-Symbol   Length   Value     Id    R Type   Defn References                                  HLASM R4.0  2004/03/15 12.45
0$$$@R0        1 00000000 FFFFFFFE     J     705  1237
 $$$@R10       1 00000000 FFFFFFF4     J     835  1301
 $$$@R11       1 00000000 FFFFFFF3     J     848  1314
 $$$@R12       1 00000000 FFFFFFF2     J     861  1327
 $$$@R13       1 00000000 FFFFFFF1     J     874  1340
 $$$@R14       1 00000000 FFFFFFF0     J     887  1353
 $$$@R7        1 00000000 FFFFFFF7     J     796  1250
 $$$@R8        1 00000000 FFFFFFF6     J     809  1263   1275
 $$$@R9        1 00000000 FFFFFFF5     J     822  1288
 $$$C1WYLFUNC
               1 0000039A 00000001     J    9353  9355
 $$$C10WYLFUNC
               1 000032DE 00000001     J   22222 22224  22554  22571  22628  22896  23114  23241  23363  23880
 $$$C11WYLFUNC
               1 0000374E 00000001     J   23951 23953  23979  24216  24501  24770  24980  25058  25610
 $$$C12WYLFUNC
               1 00003C20 00000001     J   25680 25682  25729  25955  26152  26341  26881  27071  27197  27294  27480
                                                 27914  29198
 $$$C13WYLFUNC
               1 00004846 00000001     J   29375 29377  29422  29661  30005
 $$$C14WYLFUNC
               1 000055D0 00000001     J   33125 33127  33664  34221  34482
 $$$C15WYLFUNC
               1 000059A4 00000001     J   34554 34556  35544  35656
 $$$C16WYLFUNC
               1 00005D36 00000001     J   36043 36045  37141  37158  37327  37841  37857  37880  38887  39317  39334
 $$$C17WYLFUNC
               1 000065AC 00000001     J   39412 39414
 $$$C18WYLFUNC
               1 00006705 00000001     J   39872 39874  40014  40031  40314  40382  40651  40760  41023  41354  41476
                                                 41847  41974  42272  42428  42731  43107  43263  43566  43722  44646
                                                 44802  45105  45314  45628  45771
 $$$C19WYLFUNC
               1 00007736 00000001     J   46007 46009  46219  46626  47150  47166  47189  47608  47900  48104  48431
                                                 48495  48778  48971  49541  49618  50364  50866  51017
 $$$C2WYLFUNC
               1 00000475 00000001     J    9617  9619
 $$$C20WYLFUNC
               1 000084EA 00000001     J   51241 51243  51282  51433  51596
 $$$C21WYLFUNC
               1 000085CA 00000001     J   51660 51662  51688  51851  52355  52645  52662
 $$$C22WYLFUNC
               1 00008996 00000001     J   52721 52723  52749  53069  53547  53776  54159  54493
 $$$C23WYLFUNC
               1 00008FF8 00000001     J   54910 54912  54942  56557  56728  57689
 $$$C24WYLFUNC
               1 00009A96 00000001     J   58285 58287  58374  58810  58842  59504
 $$$C25WYLFUNC
               1 00009DD0 00000001     J   59663 59665
 $$$C26WYLFUNC
               1 00009F66 00000001     J   60221 60223
 $$$C27WYLFUNC
               1 00009F78 00000001     J   60239 60241
 $$$C3WYLFUNC
               1 00000F08 00000001     J   10324 10326  10381  11005  11137  11158  11714  11909  11926
1FUNC     (FUNC2193) (12:45) (15MAR04) Ordinary Symbol and Literal Cross Reference                                          Page  254
 $$$C4WYLFUNC
               1 00001562 00000001     J   12683 12685  12708  13120  13354  13440  13678  13741  13787  13979  14670
                                                 14938  15204  15357  15373  15559  15706  15723  16150  16445  16560
                                                 16641  16867  17026
 $$$C5WYLFUNC
               1 00002178 00000001     J   17173 17175  17534  17622  17704  18290  18378  18460
 $$$C6WYLFUNC
               1 0000262C 00000001     J   18627 18629  18976  19065
 $$$C7WYLFUNC
               1 0000284E 00000001     J   19221 19223  19616  19704
 $$$C8WYLFUNC
               1 00002A7A 00000001     J   19863 19865  19910  20241  20480  20540  20634  20730
 $$$C9WYLFUNC
               1 00002E28 00000001     J   21041 21043  21765  21853
 $$$D10WYLFUNC
               1 0000372A 00000001     J   22223 22543  22560  22885  23103  23352  23869
 $$$D11WYLFUNC
               1 00003C01 00000001     J   23952 24205  24490  24759  24969  25599
 $$$D12WYLFUNC
               1 00004816 00000001     J   25681 25944  26141  26330  27060  27186  27469  27903  29187
 $$$D13WYLFUNC
               1 000055C4 00000001     J   29376 29650  29994
 $$$D14WYLFUNC
               1 00005991 00000001     J   33126 33653  34210  34471
 $$$D15WYLFUNC
               1 00005D2A 00000001     J   34555 35533  35645
 $$$D16WYLFUNC
               1 00006582 00000001     J   36044 37130  37147  37830  37846  37869  39306  39323
 $$$D18WYLFUNC
               1 000076B2 00000001     J   39873 40003  40020  40303  40640  41012  41343  41465  41836  41963  42261
                                                 42417  42720  43096  43252  43555  43711  44635  44791  45094  45303
                                                 45617  45760
 $$$D19WYLFUNC
               1 000084A1 00000001     J   46008 47139  47155  47178  47597  47889  48093  48420  48767  48960  49530
                                                 50353  51006
 $$$D20WYLFUNC
               1 000085BD 00000001     J   51242 51422  51585
 $$$D21WYLFUNC
               1 0000897D 00000001     J   51661 51840  52344  52634  52651
 $$$D22WYLFUNC
               1 00008FDF 00000001     J   52722 53536  53765  54148  54482
 $$$D23WYLFUNC
               1 00009A89 00000001     J   54911 56717  57678
 $$$D24WYLFUNC
               1 00009DBD 00000001     J   58286 58799  58831  59493
 $$$D3WYLFUNC
               1 00001544 00000001     J   10325 11126  11147  11703  11898  11915
 $$$D4WYLFUNC
               1 00002123 00000001     J   12684 13343  13667  13730  13776  13968  14927  15346  15362  15695  15712
                                                 16434  16549  16856  17015
 $$$D5WYLFUNC
               1 00002608 00000001     J   17174 17523  17611  17693  18279  18367  18449
 $$$D6WYLFUNC
               1 00002842 00000001     J   18628 18965  19054
 $$$D7WYLFUNC
               1 00002A6D 00000001     J   19222 19605  19693
 $$$D8WYLFUNC
               1 00002E0A 00000001     J   19864 20230  20469  20529  20623  20719
 $$$D9WYLFUNC
1FUNC     (FUNC2193) (12:45) (15MAR04) Ordinary Symbol and Literal Cross Reference                                          Page  255
               1 000032D2 00000001     J   21042 21754  21842
 $$$RANFWA
               1 00000000 FFFFFFDC     J   10987 11004  11004
 $$$RASWA      1 00000000 FFFFFFBB     J   58312 58373  58373
 $$$RBSINFO
               1 00000000 FFFFFFE5     J    7167  7187   7187
 $$$RCENWA
               1 00000000 FFFFFFDB     J   12691 12707  12707
 $$$RCP        1 00000000 FFFFFFEC     J    2684  4944   6418   6418
 $$$RCV        1 00000000 FFFFFFEE     J    1409  2594   2594
 $$$RDCHECKWA
               1 00000000 FFFFFFD7     J   15190 15203  15203
 $$$RDECRYWA
               1 00000000 FFFFFFD8     J   14653 14669  14669
 $$$RDEV       1 00000000 FFFFFFEB     J    4898  4943   4943
 $$$RDPASSWA
               1 00000000 FFFFFFD6     J   15541 15558  15558
 $$$RDPPWA
               1 00000000 FFFFFFD5     J   16133 16149  16149
 $$$RDSNINFO
               1 00000000 FFFFFFDF     J    7991  8089   8089
 $$$RENCRYWA
               1 00000000 FFFFFFD2     J   22611 22627  22627
 $$$RFFINFO
               1 00000000 FFFFFFE0     J    7776  7985   7985
 $$$RFMTWA
               1 00000000 FFFFFFD1     J   23223 23240  23240
 $$$RFNCAWA
               1 00000000 FFFFFFDA     J   13105 13119  13119
 $$$RFNCHWA
               1 00000000 FFFFFFD9     J   13417 13439  13439
 $$$RFNDSWA
               1 00000000 FFFFFFD4     J   16627 16640  16640
 $$$RFNGIDWA
               1 00000000 FFFFFFD0     J   23964 23978  23978
 $$$RFNGMTWA
               1 00000000 FFFFFFCF     J   25041 25057  25057
 $$$RFNNHWA
               1 00000000 FFFFFFC9     J   38871 38886  38886
 $$$RFNSHWA
               1 00000000 FFFFFFC4     J   48481 48494  48494
 $$$RFNURLWA
               1 00000000 FFFFFFBF     J   52735 52748  52748
 $$$RFNVARWA
               1 00000000 FFFFFFBE     J   53053 53068  53068
 $$$RFNWA      1 00000000 FFFFFFDD     J   10367 10380  10380
 $$$RFNWHWA
               1 00000000 FFFFFFBD     J   54926 54941  54941
 $$$RHIWA      1 00000000 FFFFFFCE     J   25700 25728  25728
 $$$RHWA       1 00000000 FFFFFFCD     J   26866 26880  26880
 $$$RINCHRWA
               1 00000000 FFFFFFCC     J   27261 27293  27293
 $$$RINSTRWA
               1 00000000 FFFFFFCB     J   29383 29421  29421
 $$$RJCB       1 00000000 FFFFFFE8     J    6588  6862   6862
 $$$RKWR       1 00000000 FFFFFFE7     J    6868  7072   7072
 $$$RMATWA
               1 00000000 FFFFFFCA     J   37300 37326  37326
 $$$RNSCNCB
1FUNC     (FUNC2193) (12:45) (15MAR04) Ordinary Symbol and Literal Cross Reference                                          Page  256
               1 00000000 FFFFFFED     J    2605  2678   2678
 $$$RQFWA      1 00000000 FFFFFFC8     J   40368 40381  40381
 $$$RRECWA
               1 00000000 FFFFFFC7     J   40726 40759  40759
 $$$RRIGHTWA
               1 00000000 FFFFFFC6     J   46203 46218  46218
 $$$RRMATWA
               1 00000000 FFFFFFC5     J   46599 46625  46625
 $$$RRTNENTRY
               1 00000000 FFFFFFDE     J    8101  8116   8116
 $$$RSDSNBUF
               1 00000000 FFFFFFD3     J   19878 19909  19909
 $$$RSHDSARGS
               1 00000000 FFFFFFE1     J    7673  7755   7755
 $$$RSIN       1 00000000 FFFFFFE6     J    7078  7149   7149
 $$$RSSB       1 00000000 FFFFFFE9     J    6539  6578   6578
 $$$RSTRIPWA
               1 00000000 FFFFFFC3     J   49589 49617  49617
 $$$RSYSCKWA
               1 00000000 FFFFFFC1     J   51267 51281  51281
 $$$RSYSUPWA
               1 00000000 FFFFFFC2     J   50852 50865  50865
 $$$RTTYPE
               1 00000000 FFFFFFEA     J    6429  6530   6530
 $$$RVNENTRY
               1 00000000 FFFFFFE4     J    7201  7500   7500
 $$$RVPARM
               1 00000000 FFFFFFE3     J    7513  7527   7527
 $$$RXLWA      1 00000000 FFFFFFC0     J   51668 51687  51687
 $$$RXSENTRY
               1 00000000 FFFFFFE2     J    7559  7666   7666
 $$$RYNWA      1 00000000 FFFFFFBC     J   56516 56556  56556
 $$$SEGCB0
               4 00000050 FFFFFFEC     F    2715  2801   2801
 $$$V01       17 00009F66 00000001     C   60233 20859
 $$$Z10        4 000036DC 00000001     F   23932 23711
 $$$Z4         4 00001FD8 00000001     F   17129 13586  13601
 $$$Z8         4 00002DB4 00000001     F   21016 20300
 $$$1000       6 0000659A 00000001     I   37874 37875  37875
 $$$1001F      2 0000611E 00000001     H   37900 37888B
 $$$1002B      4 00006120 00000001     I   37915 37966
 $$$1002F      2 00006136 00000001     H   37963 37915B 37965
 $$$1003E      2 0000613A 00000001     H   37973 37967
 $$$1003F      2 0000614C 00000001     H   38018 37969B
 $$$1004       1 00000054 00000001 A   U   38046 38043  38045
 $$$1006B      1 00006176 00000001     X   38079 38086U
 $$$1007F      2 000061B8 00000001     H   38193 38107B
 $$$1008F      2 000061B8 00000001     H   38184 38154B
 $$$1008S      2 00006198 00000001     H   38148 38183B
 $$$1010F      2 000061AE 00000001     H   38175 38166B
 $$$1011       1 00000050 00000001 A   U   38212 38209  38211
 $$$1013B      1 000061E0 00000001     X   38245 38252U
 $$$1014F      2 00006222 00000001     H   38359 38273B
 $$$1015F      2 00006222 00000001     H   38350 38320B
 $$$1015S      2 00006202 00000001     H   38314 38349B
 $$$1017F      2 00006218 00000001     H   38341 38332B
 $$$1018       1 00000050 00000001 A   U   38378 38375  38377
 $$$102B       4 000001F2 00000001     I    8991  9022
 $$$102E       2 000001EE 00000001     H    8981  8975
1FUNC     (FUNC2193) (12:45) (15MAR04) Ordinary Symbol and Literal Cross Reference                                          Page  257
 $$$102F       2 00000202 00000001     H    9018  8977B  8991B  9021
 $$$1020B      1 0000624A 00000001     X   38413 38420U
 $$$1021F      2 00006280 00000001     H   38521 38444B
 $$$1022       1 00000050 00000001 A   U   38539 38536  38538
 $$$1023F      2 00006358 00000001     H   38849 38659B 38754B
 $$$1024B      1 000062A8 00000001     X   38576 38583U
 $$$1025F      2 00006358 00000001     H   38840 38604B
 $$$1026F      2 000062EE 00000001     H   38663 38641B
 $$$1027F      2 000062FA 00000001     H   38691 38682B
 $$$1028F      2 00006326 00000001     H   38762 38704B
 $$$1029F      2 00006326 00000001     H   38758 38736B
 $$$1029T      2 00006318 00000001     H   38739 38724B
 $$$1031F      2 0000633E 00000001     H   38789 38778B
 $$$1031S      2 0000632A 00000001     H   38769 38788B
 $$$1033       1 00000050 00000001 A   U   38858 38855  38857
 $$$1034F      2 00006426 00000001     H   39161 39009B 39062B
 $$$1035B      1 00006380 00000001     X   38915 38922U
 $$$1036F      2 00006426 00000001     H   39147 38954B
 $$$1037F      2 000063BE 00000001     H   39013 38973B
 $$$1038F      2 000063F0 00000001     H   39066 39026B
 $$$1039F      2 00006408 00000001     H   39093 39082B
 $$$1039S      2 000063F4 00000001     H   39073 39092B
 $$$1041       1 00000080 00000001 A   U   39170 39167  39169
 $$$1043B      1 0000644E 00000001     X   39211 39218U
 $$$1044F      2 0000648A 00000001     H   39350 39239B
 $$$1045F      2 0000648A 00000001     H   39339 39295B
 $$$1046       6 000065A0 00000001     I   39312 39304X
 $$$1047       6 000065A0 00000001     I   39311 39312  39312
 $$$1048       6 000065A6 00000001     I   39329 39321X
 $$$1049       6 000065A6 00000001     I   39328 39329  39329
 $$$105B       4 0000020A 00000001     I    9039  9051
 $$$105E       2 00000206 00000001     H    9029  9023
 $$$105F       2 0000020E 00000001     H    9047  9025B  9039B  9050
 $$$1050       1 00000050 00000001 A   U   39368 39365  39367
 $$$1052B      1 000065C6 00000001     X   39445 39452U
 $$$1053F      2 00006604 00000001     H   39566 39474B
 $$$1054       1 00000050 00000001 A   U   39585 39582  39584
 $$$1056B      1 0000662C 00000001     X   39616 39623U
 $$$1057F      2 0000666A 00000001     H   39737 39645B
 $$$1058       1 00000050 00000001 A   U   39756 39753  39755
 $$$1060B      1 00006692 00000001     X   39789 39796U
 $$$1061       1 00000050 00000001 A   U   39851 39848  39850
 $$$1063B      1 00006720 00000001     X   39908 39915U
 $$$1064F      2 0000675C 00000001     H   40047 39936B
 $$$1065F      2 0000675C 00000001     H   40036 39992B
 $$$1066       6 000076B2 00000001     I   40009 40001X
 $$$1067       6 000076B2 00000001     I   40008 40009  40009
 $$$1068       6 000076B8 00000001     I   40026 40018X
 $$$1069       6 000076B8 00000001     I   40025 40026  40026
 $$$107E       2 00000212 00000001     H    9058  9052
 $$$107F       2 0000022E 00000001     H    9094  9054B  9067B
 $$$1070       1 00000050 00000001 A   U   40065 40062  40064
 $$$1072B      1 00006784 00000001     X   40098 40105U
 $$$1073       1 00000050 00000001 A   U   40160 40157  40159
 $$$1075B      1 000067C8 00000001     X   40193 40200U
 $$$1076F      2 00006800 00000001     H   40337 40221B
 $$$1077F      2 000067FE 00000001     H   40319 40292B
 $$$1078       6 000076BE 00000001     I   40309 40301X
 $$$1079       6 000076BE 00000001     I   40308 40309  40309
1FUNC     (FUNC2193) (12:45) (15MAR04) Ordinary Symbol and Literal Cross Reference                                          Page  258
 $$$1080       1 00000050 00000001 A   U   40355 40352  40354
 $$$1082B      1 00006828 00000001     X   40410 40417U
 $$$1083F      2 000068B6 00000001     H   40694 40448B
 $$$1084B      4 00006862 00000001     I   40503 40557
 $$$1084F      2 0000687E 00000001     H   40554 40503B 40556
 $$$1085F      2 0000687A 00000001     H   40544 40519B 40532B
 $$$1087E      2 00006882 00000001     H   40564 40558
 $$$1087F      2 0000688A 00000001     H   40578 40560B
 $$$1088F      2 000068A4 00000001     H   40656 40629B
 $$$1089       6 000076C4 00000001     I   40646 40638X
 $$$109        1 00000050 00000001 A   U    9138  9135   9137
 $$$1090       6 000076C4 00000001     I   40645 40646  40646
 $$$1091       1 00000150 00000001 A   U   40718 40715  40717
 $$$1092F      2 0000696C 00000001     H   41060 40886B
 $$$1093B      1 000068DE 00000001     X   40794 40801U
 $$$1094F      2 0000696C 00000001     H   41046 40839B
 $$$1095F      2 0000690E 00000001     H   40890 40868B
 $$$1096F      2 0000691E 00000001     H   40913 40902B
 $$$1097F      2 00006950 00000001     H   40952 40934B
 $$$1098F      2 0000696A 00000001     H   41028 41001B
 $$$1099       6 000076CA 00000001     I   41018 41010X
 $$$1100       6 000076CA 00000001     I   41017 41018  41018
 $$$1101       1 0000009C 00000001 A   U   41069 41066  41068
 $$$1102F      2 00006AC2 00000001     H   41570 41201B 41316B 41438B
 $$$1103B      1 00006994 00000001     X   41104 41111U
 $$$1104F      2 00006AC2 00000001     H   41555 41149B
 $$$1105F      2 000069CA 00000001     H   41205 41183B
 $$$1106F      2 000069DA 00000001     H   41228 41217B
 $$$1107F      2 00006A3E 00000001     H   41363 41261B
 $$$1108F      2 00006A2C 00000001     H   41320 41280B
 $$$1109F      2 00006A3E 00000001     H   41359 41335B
 $$$111B       1 00000278 00000001     X    9178  9185U
 $$$1110       6 000076D0 00000001     I   41349 41341X
 $$$1111       6 000076D0 00000001     I   41348 41349  41349
 $$$1112F      2 00006A94 00000001     H   41485 41383B
 $$$1113F      2 00006A82 00000001     H   41442 41402B
 $$$1114F      2 00006A94 00000001     H   41481 41457B
 $$$1115       6 000076D6 00000001     I   41471 41463X
 $$$1116       6 000076D6 00000001     I   41470 41471  41471
 $$$1117       1 0000009C 00000001 A   U   41579 41576  41578
 $$$1118F      2 00006BCC 00000001     H   42011 41707B 41809B
 $$$1119B      1 00006AEA 00000001     X   41614 41621U
 $$$112F       2 00000292 00000001     H    9224  9213B
 $$$1120F      2 00006BCC 00000001     H   41997 41659B
 $$$1121F      2 00006B1C 00000001     H   41711 41689B
 $$$1122F      2 00006B2C 00000001     H   41734 41723B
 $$$1123F      2 00006BB0 00000001     H   41903 41754B
 $$$1124F      2 00006B78 00000001     H   41813 41773B
 $$$1125F      2 00006B8A 00000001     H   41852 41828B
 $$$1126       6 000076DC 00000001     I   41842 41834X
 $$$1127       6 000076DC 00000001     I   41841 41842  41842
 $$$1128B      4 00006B98 00000001     I   41866 41882
 $$$1128F      2 00006BA4 00000001     H   41879 41866B 41881
 $$$1129E      2 00006BA8 00000001     H   41889 41883
 $$$1129F      2 00006BB0 00000001     H   41899 41885B
 $$$113F       2 000002AE 00000001     H    9246  9235B
 $$$1130F      2 00006BCA 00000001     H   41979 41952B
 $$$1131       6 000076E2 00000001     I   41969 41961X
 $$$1132       6 000076E2 00000001     I   41968 41969  41969
1FUNC     (FUNC2193) (12:45) (15MAR04) Ordinary Symbol and Literal Cross Reference                                          Page  259
 $$$1133       1 0000009C 00000001 A   U   42020 42017  42019
 $$$1134F      2 00006CD4 00000001     H   42470 42148B 42234B
 $$$1135B      1 00006BF4 00000001     X   42055 42062U
 $$$1136F      2 00006CD4 00000001     H   42456 42100B
 $$$1137F      2 00006C26 00000001     H   42152 42130B
 $$$1138F      2 00006C36 00000001     H   42175 42164B
 $$$1139F      2 00006C74 00000001     H   42238 42198B
 $$$114F       2 000002CE 00000001     H    9290  9266B  9279B
 $$$114S       2 000002BA 00000001     H    9257  9289B
 $$$1140F      2 00006C86 00000001     H   42277 42253B
 $$$1141       6 000076E8 00000001     I   42267 42259X
 $$$1142       6 000076E8 00000001     I   42266 42267  42267
 $$$1143B      4 00006C94 00000001     I   42291 42341
 $$$1143F      2 00006CAC 00000001     H   42338 42291B 42340
 $$$1144F      2 00006CAC 00000001     H   42334 42321B
 $$$1145E      2 00006CB0 00000001     H   42348 42342
 $$$1145F      2 00006CB2 00000001     H   42358 42344B
 $$$1146F      2 00006CCC 00000001     H   42433 42406B
 $$$1147       6 000076EE 00000001     I   42423 42415X
 $$$1148       6 000076EE 00000001     I   42422 42423  42423
 $$$1149       1 0000009C 00000001 A   U   42479 42476  42478
 $$$1150F      2 00006DBA 00000001     H   42846 42607B 42693B
 $$$1151B      1 00006CFC 00000001     X   42514 42521U
 $$$1152F      2 00006DBA 00000001     H   42832 42559B
 $$$1153F      2 00006D2E 00000001     H   42611 42589B
 $$$1154F      2 00006D3E 00000001     H   42634 42623B
 $$$1155F      2 00006D7C 00000001     H   42697 42657B
 $$$1156F      2 00006D8E 00000001     H   42736 42712B
 $$$1157       6 000076F4 00000001     I   42726 42718X
 $$$1158       6 000076F4 00000001     I   42725 42726  42726
 $$$1159F      2 00006DB4 00000001     H   42810 42797B
 $$$1160       1 0000009C 00000001 A   U   42855 42852  42854
 $$$1161F      2 00006EC2 00000001     H   43305 42983B 43069B
 $$$1162B      1 00006DE2 00000001     X   42890 42897U
 $$$1163F      2 00006EC2 00000001     H   43291 42935B
 $$$1164F      2 00006E14 00000001     H   42987 42965B
 $$$1165F      2 00006E24 00000001     H   43010 42999B
 $$$1166F      2 00006E62 00000001     H   43073 43033B
 $$$1167F      2 00006E74 00000001     H   43112 43088B
 $$$1168       6 000076FA 00000001     I   43102 43094X
 $$$1169       6 000076FA 00000001     I   43101 43102  43102
 $$$117        1 00000050 00000001 A   U    9323  9320   9322
 $$$1170B      4 00006E82 00000001     I   43126 43176
 $$$1170F      2 00006E9A 00000001     H   43173 43126B 43175
 $$$1171F      2 00006E9A 00000001     H   43169 43156B
 $$$1172E      2 00006E9E 00000001     H   43183 43177
 $$$1172F      2 00006EA0 00000001     H   43193 43179B
 $$$1173F      2 00006EBA 00000001     H   43268 43241B
 $$$1174       6 00007700 00000001     I   43258 43250X
 $$$1175       6 00007700 00000001     I   43257 43258  43258
 $$$1176       1 0000009C 00000001 A   U   43314 43311  43313
 $$$1177F      2 00006FCA 00000001     H   43764 43442B 43528B
 $$$1178B      1 00006EEA 00000001     X   43349 43356U
 $$$1179F      2 00006FCA 00000001     H   43750 43394B
 $$$1180F      2 00006F1C 00000001     H   43446 43424B
 $$$1181F      2 00006F2C 00000001     H   43469 43458B
 $$$1182F      2 00006F6A 00000001     H   43532 43492B
 $$$1183F      2 00006F7C 00000001     H   43571 43547B
 $$$1184       6 00007706 00000001     I   43561 43553X
1FUNC     (FUNC2193) (12:45) (15MAR04) Ordinary Symbol and Literal Cross Reference                                          Page  260
 $$$1185       6 00007706 00000001     I   43560 43561  43561
 $$$1186B      4 00006F8A 00000001     I   43585 43635
 $$$1186F      2 00006FA2 00000001     H   43632 43585B 43634
 $$$1187F      2 00006FA2 00000001     H   43628 43615B
 $$$1188E      2 00006FA6 00000001     H   43642 43636
 $$$1188F      2 00006FA8 00000001     H   43652 43638B
 $$$1189F      2 00006FC2 00000001     H   43727 43700B
 $$$119B       1 000003B4 00000001     X    9397  9404U
 $$$1190       6 0000770C 00000001     I   43717 43709X
 $$$1191       6 0000770C 00000001     I   43716 43717  43717
 $$$1192       1 0000009C 00000001 A   U   43773 43770  43772
 $$$1194B      1 00006FF2 00000001     X   43808 43815U
 $$$1195F      2 0000710A 00000001     H   44138 43869B
 $$$1197F      2 0000709A 00000001     H   43983 43973B
 $$$1198F      2 000070B2 00000001     H   44013 44000B
 $$$120F       2 000003D4 00000001     H    9474  9427B  9442B
 $$$1200F      2 000070F0 00000001     H   44082 44072B
 $$$1201       1 0000009C 00000001 A   U   44226 44223  44225
 $$$1203B      1 000071B6 00000001     X   44287 44294U
 $$$1204       1 00000050 00000001 A   U   44326 44323  44325
 $$$1206B      1 000071E2 00000001     X   44353 44360U
 $$$1207       1 00000050 00000001 A   U   44387 44384  44386
 $$$1208F      2 000072EE 00000001     H   44844 44522B 44608B
 $$$1209B      1 0000720E 00000001     X   44429 44436U
 $$$1210F      2 000072EE 00000001     H   44830 44474B
 $$$1211F      2 00007240 00000001     H   44526 44504B
 $$$1212F      2 00007250 00000001     H   44549 44538B
 $$$1213F      2 0000728E 00000001     H   44612 44572B
 $$$1214F      2 000072A0 00000001     H   44651 44627B
 $$$1215       6 00007712 00000001     I   44641 44633X
 $$$1216       6 00007712 00000001     I   44640 44641  44641
 $$$1217B      4 000072AE 00000001     I   44665 44715
 $$$1217F      2 000072C6 00000001     H   44712 44665B 44714
 $$$1218F      2 000072C6 00000001     H   44708 44695B
 $$$1219E      2 000072CA 00000001     H   44722 44716
 $$$1219F      2 000072CC 00000001     H   44732 44718B
 $$$122        1 00000050 00000001 A   U    9598  9595   9597
 $$$1220F      2 000072E6 00000001     H   44807 44780B
 $$$1221       6 00007718 00000001     I   44797 44789X
 $$$1222       6 00007718 00000001     I   44796 44797  44797
 $$$1223       1 0000009C 00000001 A   U   44853 44850  44852
 $$$1224F      2 00007422 00000001     H   45351 44981B 45067B
 $$$1225B      1 00007316 00000001     X   44888 44895U
 $$$1226F      2 00007422 00000001     H   45337 44933B
 $$$1227F      2 00007348 00000001     H   44985 44963B
 $$$1228F      2 00007358 00000001     H   45008 44997B
 $$$1229F      2 00007396 00000001     H   45071 45031B
 $$$1230F      2 000073A8 00000001     H   45110 45086B
 $$$1231       6 0000771E 00000001     I   45100 45092X
 $$$1232       6 0000771E 00000001     I   45099 45100  45100
 $$$1233B      4 000073B2 00000001     I   45123 45139
 $$$1233F      2 000073BE 00000001     H   45136 45123B 45138
 $$$1234E      2 000073C2 00000001     H   45146 45140
 $$$1234F      2 00007406 00000001     H   45243 45142B
 $$$1235B      4 000073DC 00000001     I   45174 45191
 $$$1235F      2 000073E8 00000001     H   45187 45174B 45190
 $$$1236B      4 000073EE 00000001     I   45206 45222
 $$$1236E      2 000073EC 00000001     H   45198 45192
 $$$1236F      2 000073FA 00000001     H   45219 45194B 45206B 45221
1FUNC     (FUNC2193) (12:45) (15MAR04) Ordinary Symbol and Literal Cross Reference                                          Page  261
 $$$1238E      2 000073FE 00000001     H   45229 45223
 $$$1238F      2 00007406 00000001     H   45239 45225B
 $$$1239F      2 00007420 00000001     H   45319 45292B
 $$$124B       1 00000F22 00000001     X   10413 10420U
 $$$1240       6 00007724 00000001     I   45309 45301X
 $$$1241       6 00007724 00000001     I   45308 45309  45309
 $$$1242       1 0000009C 00000001 A   U   45360 45357  45359
 $$$1243F      2 00007536 00000001     H   45808 45488B 45590B
 $$$1244B      1 0000744A 00000001     X   45395 45402U
 $$$1245F      2 00007536 00000001     H   45794 45440B
 $$$1246F      2 0000747C 00000001     H   45492 45470B
 $$$1247F      2 0000748C 00000001     H   45515 45504B
 $$$1248F      2 0000751A 00000001     H   45700 45535B
 $$$1249F      2 000074D8 00000001     H   45594 45554B
 $$$125        1 00000050 00000001 A   U   10466 10463  10465
 $$$1250F      2 000074EA 00000001     H   45633 45609B
 $$$1251       6 0000772A 00000001     I   45623 45615X
 $$$1252       6 0000772A 00000001     I   45622 45623  45623
 $$$1253B      4 00007502 00000001     I   45663 45679
 $$$1253F      2 0000750E 00000001     H   45676 45663B 45678
 $$$1254E      2 00007512 00000001     H   45686 45680
 $$$1254F      2 0000751A 00000001     H   45696 45682B
 $$$1255F      2 00007534 00000001     H   45776 45749B
 $$$1256       6 00007730 00000001     I   45766 45758X
 $$$1257       6 00007730 00000001     I   45765 45766  45766
 $$$1258       1 0000009C 00000001 A   U   45817 45814  45816
 $$$126F       2 00001002 00000001     H   10834 10622B 10687B
 $$$1260B      1 0000755E 00000001     X   45857 45864U
 $$$1262B      4 00007570 00000001     I   45893 45911
 $$$1262F      2 00007578 00000001     H   45908 45893B 45910
 $$$1263E      2 0000757C 00000001     H   45918 45912
 $$$1263F      2 00007584 00000001     H   45928 45914B
 $$$1264       1 00000050 00000001 A   U   45948 45945  45947
 $$$1266B      1 00007750 00000001     X   46042 46049U
 $$$1267F      2 00007798 00000001     H   46172 46070B
 $$$1268F      2 00007798 00000001     H   46155 46140B
 $$$1268S      2 00007780 00000001     H   46134 46154B
 $$$127B       1 00000F60 00000001     X   10499 10506U
 $$$1270       1 00000050 00000001 A   U   46191 46188  46190
 $$$1271F      2 00007888 00000001     H   46577 46362B 46464B
 $$$1272B      1 000077C0 00000001     X   46247 46254U
 $$$1273F      2 00007888 00000001     H   46562 46293B
 $$$1274F      2 00007808 00000001     H   46366 46344B
 $$$1274T      2 000077FA 00000001     H   46347 46332B
 $$$1276F      2 00007816 00000001     H   46389 46378B
 $$$1277F      2 00007864 00000001     H   46496 46409B
 $$$1278F      2 00007854 00000001     H   46468 46428B
 $$$1279F      2 00007864 00000001     H   46492 46483B
 $$$128F       2 00001002 00000001     H   10824 10527B
 $$$1280       1 00000058 00000001 A   U   46586 46583  46585
 $$$1281F      2 00007A02 00000001     H   47346 46701B 46924B
 $$$1282B      1 000078B0 00000001     X   46654 46661U
 $$$1284F      2 00007946 00000001     H   46946 46722B
 $$$1285F      2 00007946 00000001     H   46937 46754B
 $$$1285S      2 000078D6 00000001     H   46748 46936B
 $$$1287B      4 000078E8 00000001     I   46785 46804
 $$$1287F      2 000078F0 00000001     H   46800 46785B 46803
 $$$1287T      2 000078EC 00000001     H   46788 46774B
 $$$1289B      4 00007900 00000001     I   46836 46854
1FUNC     (FUNC2193) (12:45) (15MAR04) Ordinary Symbol and Literal Cross Reference                                          Page  262
 $$$1289E      2 000078F4 00000001     H   46811 46805
 $$$1289F      2 00007908 00000001     H   46851 46807B 46836B 46853
 $$$1289T      2 00007904 00000001     H   46839 46825B
 $$$129F       2 00000FD0 00000001     H   10695 10572B
 $$$1292E      2 0000790C 00000001     H   46861 46855
 $$$1292F      2 0000793C 00000001     H   46928 46857B
 $$$1293F      2 00007972 00000001     H   47014 46962B
 $$$1294F      2 00007972 00000001     H   47010 46983B 46996B
 $$$1294S      2 0000795C 00000001     H   46975 47009B
 $$$1297F      2 0000799E 00000001     H   47080 47028B
 $$$1298F      2 0000799E 00000001     H   47076 47049B 47062B
 $$$1298S      2 00007988 00000001     H   47041 47075B
 $$$130F       2 00000FB2 00000001     H   10626 10604B
 $$$130T       2 00000FA4 00000001     H   10607 10592B
 $$$1301F      2 000079D2 00000001     H   47213 47098B 47110B
 $$$1303F      2 000079C6 00000001     H   47171 47130B
 $$$1304       6 000084A2 00000001     I   47145 47137X
 $$$1305       6 000084A2 00000001     I   47144 47145  47145
 $$$1306       6 000084A8 00000001     I   47161 47153X
 $$$1307       6 000084A8 00000001     I   47160 47161  47161
 $$$1308       6 000084AE 00000001     I   47184 47176X
 $$$1309       6 000084AE 00000001     I   47183 47184  47184
 $$$1310F      2 000079D2 00000001     H   47209 47197B
 $$$1311B      4 000079D4 00000001     I   47224 47275
 $$$1311F      2 000079EA 00000001     H   47272 47224B 47274
 $$$1312E      2 000079EE 00000001     H   47282 47276
 $$$1312F      2 00007A00 00000001     H   47327 47278B
 $$$1313       1 00000054 00000001 A   U   47355 47352  47354
 $$$1315B      1 00007A2A 00000001     X   47391 47398U
 $$$1316F      2 00007AE8 00000001     H   47630 47434B
 $$$1317F      2 00007ABC 00000001     H   47529 47513B
 $$$1318F      2 00007AE4 00000001     H   47613 47586B
 $$$1319       6 000084B4 00000001     I   47603 47595X
 $$$132F       2 00000FD0 00000001     H   10691 10637B
 $$$1320       6 000084B4 00000001     I   47602 47603  47603
 $$$1321       1 000001A0 00000001 A   U   47659 47656  47658
 $$$1323B      1 00007B1E 00000001     X   47695 47702U
 $$$1324F      2 00007BCE 00000001     H   47922 47738B
 $$$1325F      2 00007BB0 00000001     H   47830 47810B
 $$$1326F      2 00007BCA 00000001     H   47905 47878B
 $$$1327       6 000084BA 00000001     I   47895 47887X
 $$$1328       6 000084BA 00000001     I   47894 47895  47895
 $$$1329       1 000001A0 00000001 A   U   47951 47948  47950
 $$$133B       4 00000FD4 00000001     I   10707 10758
 $$$133F       2 00000FEA 00000001     H   10755 10707B 10757
 $$$1331B      1 00007C04 00000001     X   47985 47992U
 $$$1332F      2 00007C3E 00000001     H   48122 48016B
 $$$1333F      2 00007C3C 00000001     H   48109 48082B
 $$$1334       6 000084C0 00000001     I   48099 48091X
 $$$1335       6 000084C0 00000001     I   48098 48099  48099
 $$$1336       1 00000050 00000001 A   U   48140 48137  48139
 $$$1337F      2 00007D04 00000001     H   48458 48261B 48351B
 $$$1338B      1 00007C66 00000001     X   48177 48184U
 $$$1339F      2 00007D04 00000001     H   48449 48205B
 $$$134E       2 00000FEE 00000001     H   10765 10759
 $$$134F       2 00001000 00000001     H   10810 10761B
 $$$1340F      2 00007CAC 00000001     H   48265 48243B
 $$$1341F      2 00007CB8 00000001     H   48288 48279B
 $$$1342F      2 00007CE4 00000001     H   48359 48301B
1FUNC     (FUNC2193) (12:45) (15MAR04) Ordinary Symbol and Literal Cross Reference                                          Page  263
 $$$1343F      2 00007CE4 00000001     H   48355 48333B
 $$$1343T      2 00007CD6 00000001     H   48336 48321B
 $$$1345F      2 00007D02 00000001     H   48436 48409B
 $$$1346       6 000084C6 00000001     I   48426 48418X
 $$$1347       6 000084C6 00000001     I   48425 48426  48426
 $$$1348       1 00000050 00000001 A   U   48467 48464  48466
 $$$1349F      2 00007E3E 00000001     H   49007 48626B 48660B 48841B 48896B
 $$$135        1 00000050 00000001 A   U   10843 10840  10842
 $$$1350B      1 00007D2C 00000001     X   48523 48530U
 $$$1351F      2 00007E3E 00000001     H   48993 48562B
 $$$1352F      2 00007DC8 00000001     H   48796 48578B
 $$$1353F      2 00007D70 00000001     H   48630 48590B
 $$$1354F      2 00007D8A 00000001     H   48664 48642B
 $$$1355F      2 00007DAC 00000001     H   48708 48682B 48696B
 $$$1355S      2 00007D92 00000001     H   48672 48707B
 $$$1358F      2 00007DC6 00000001     H   48783 48756B
 $$$1359       6 000084CC 00000001     I   48773 48765X
 $$$1360       6 000084CC 00000001     I   48772 48773  48773
 $$$1361F      2 00007E3E 00000001     H   48989 48807B
 $$$1362F      2 00007DEA 00000001     H   48845 48823B
 $$$1363F      2 00007E20 00000001     H   48900 48860B
 $$$1364F      2 00007E3C 00000001     H   48976 48949B
 $$$1365       6 000084D2 00000001     I   48966 48958X
 $$$1366       6 000084D2 00000001     I   48965 48966  48966
 $$$1367       1 0000013C 00000001 A   U   49016 49013  49015
 $$$1369B      1 00007E66 00000001     X   49056 49063U
 $$$137B       1 0000102A 00000001     X   10876 10883U
 $$$1370       1 00000050 00000001 A   U   49118 49115  49117
 $$$1372B      1 00007EAA 00000001     X   49154 49161U
 $$$1373F      2 00007EDA 00000001     H   49255 49182B
 $$$1374       1 00000050 00000001 A   U   49273 49270  49272
 $$$1376B      1 00007F02 00000001     X   49306 49313U
 $$$1377       1 00000050 00000001 A   U   49368 49365  49367
 $$$1379B      1 00007F46 00000001     X   49402 49409U
 $$$138F       2 00001054 00000001     H   10954 10904B
 $$$1380F      2 00007F88 00000001     H   49564 49430B
 $$$1381F      2 00007F86 00000001     H   49546 49519B
 $$$1382       6 000084D8 00000001     I   49536 49528X
 $$$1383       6 000084D8 00000001     I   49535 49536  49536
 $$$1384       1 00000050 00000001 A   U   49583 49580  49582
 $$$1385F      2 00008144 00000001     H   50402 49795B 50036B 50119B
 $$$1386B      1 00007FB0 00000001     X   49652 49659U
 $$$1387F      2 00008144 00000001     H   50387 49707B
 $$$1388F      2 0000808E 00000001     H   50048 49740B
 $$$1389F      2 00008002 00000001     H   49799 49759B
 $$$139        1 00000050 00000001 A   U   10973 10970  10972
 $$$1390F      2 0000808E 00000001     H   50044 49814B
 $$$1391B      4 00008020 00000001     I   49856 49875
 $$$1391F      2 00008028 00000001     H   49871 49856B 49874
 $$$1391T      2 00008024 00000001     H   49859 49845B
 $$$1393B      4 00008038 00000001     I   49907 49926
 $$$1393E      2 0000802C 00000001     H   49882 49876
 $$$1393F      2 00008040 00000001     H   49922 49878B 49907B 49925
 $$$1393T      2 0000803C 00000001     H   49910 49896B
 $$$1396B      4 00008050 00000001     I   49958 49978
 $$$1396E      2 00008044 00000001     H   49933 49927
 $$$1396F      2 00008058 00000001     H   49975 49929B 49958B 49977
 $$$1396T      2 00008054 00000001     H   49961 49947B
 $$$1399E      2 0000805C 00000001     H   49985 49979
1FUNC     (FUNC2193) (12:45) (15MAR04) Ordinary Symbol and Literal Cross Reference                                          Page  264
 $$$1399F      2 0000808E 00000001     H   50040 49981B
 $$$140F       2 00001258 00000001     H   11753 11231B 11623B
 $$$1400F      2 000080D4 00000001     H   50151 50064B
 $$$1401F      2 000080C4 00000001     H   50123 50083B
 $$$1402F      2 000080D4 00000001     H   50147 50138B
 $$$1403F      2 00008102 00000001     H   50221 50169B
 $$$1404F      2 00008102 00000001     H   50217 50185B 50204B
 $$$1404S      2 000080E8 00000001     H   50179 50216B
 $$$1407F      2 00008128 00000001     H   50293 50235B
 $$$1408F      2 00008128 00000001     H   50289 50256B 50275B
 $$$1408S      2 00008110 00000001     H   50250 50288B
 $$$141B       1 0000107C 00000001     X   11034 11041U
 $$$1411F      2 00008142 00000001     H   50369 50342B
 $$$1412       6 000084DE 00000001     I   50359 50351X
 $$$1413       6 000084DE 00000001     I   50358 50359  50359
 $$$1414       1 00000054 00000001 A   U   50411 50408  50410
 $$$1415F      2 00008212 00000001     H   50737 50539B 50664B
 $$$1416B      1 0000816C 00000001     X   50449 50456U
 $$$1417F      2 00008212 00000001     H   50727 50477B
 $$$1418F      2 000081AA 00000001     H   50543 50521B
 $$$1418T      2 0000819C 00000001     H   50524 50509B
 $$$142F       2 00001220 00000001     H   11639 11084B
 $$$1420F      2 000081BC 00000001     H   50567 50557B
 $$$1421F      2 000081D2 00000001     H   50620 50587B
 $$$1422F      2 000081D2 00000001     H   50616 50606B
 $$$1423F      2 000081EE 00000001     H   50668 50646B
 $$$1423T      2 000081E0 00000001     H   50649 50634B
 $$$1425F      2 000081FA 00000001     H   50690 50680B
 $$$1426       1 00000050 00000001 A   U   50746 50743  50745
 $$$1428B      1 0000823A 00000001     X   50779 50786U
 $$$1429       1 00000050 00000001 A   U   50842 50839  50841
 $$$143        6 00001544 00000001     I   11132 11124X
 $$$1431B      1 00008282 00000001     X   50894 50901U
 $$$1432F      2 00008300 00000001     H   51162 50931B
 $$$1433F      2 000082A8 00000001     H   50982 50973B
 $$$1434F      2 000082BC 00000001     H   51022 50998B
 $$$1435       6 000084E4 00000001     I   51012 51004X
 $$$1436       6 000084E4 00000001     I   51011 51012  51012
 $$$1437B      4 000082D4 00000001     I   51050 51101
 $$$1437F      2 000082EA 00000001     H   51098 51050B 51100
 $$$1438E      2 000082EE 00000001     H   51108 51102
 $$$1438F      2 00008300 00000001     H   51153 51104B
 $$$1439       1 00000058 00000001 A   U   51186 51183  51185
 $$$144        6 00001544 00000001     I   11131 11132  11132
 $$$1441B      1 00008504 00000001     X   51310 51317U
 $$$1442F      2 00008596 00000001     H   51619 51347B
 $$$1443F      2 0000852A 00000001     H   51398 51389B
 $$$1444F      2 0000853E 00000001     H   51438 51414B
 $$$1445       6 000085BE 00000001     I   51428 51420X
 $$$1446       6 000085BE 00000001     I   51427 51428  51428
 $$$1447B      4 0000855A 00000001     I   51467 51506
 $$$1447F      2 00008572 00000001     H   51503 51467B 51505
 $$$1448E      2 00008576 00000001     H   51513 51507
 $$$1448F      2 0000857A 00000001     H   51526 51509B
 $$$1449F      2 00008594 00000001     H   51601 51574B
 $$$145        6 0000154A 00000001     I   11153 11145X
 $$$1450       6 000085C4 00000001     I   51591 51583X
 $$$1451       6 000085C4 00000001     I   51590 51591  51591
 $$$1452       1 00000090 00000001 A   U   51643 51640  51642
1FUNC     (FUNC2193) (12:45) (15MAR04) Ordinary Symbol and Literal Cross Reference                                          Page  265
 $$$1454B      1 000085E4 00000001     X   51720 51727U
 $$$1455F      2 0000862E 00000001     H   51869 51748B
 $$$1456F      2 0000862C 00000001     H   51856 51829B
 $$$1457       6 0000897E 00000001     I   51846 51838X
 $$$1458       6 0000897E 00000001     I   51845 51846  51846
 $$$1459       1 00000050 00000001 A   U   51887 51884  51886
 $$$146        6 0000154A 00000001     I   11152 11153  11153
 $$$1460F      2 0000878A 00000001     H   52400 52161B
 $$$1461B      1 00008656 00000001     X   51922 51929U
 $$$1462F      2 0000878A 00000001     H   52385 51959B
 $$$1463B      4 00008678 00000001     I   51997 52013
 $$$1463F      2 00008686 00000001     H   52007 51997B 52012
 $$$1464E      2 0000868A 00000001     H   52020 52014
 $$$1464F      2 00008740 00000001     H   52263 52016B
 $$$1465F      2 000086A2 00000001     H   52054 52043B
 $$$1466F      2 000086BE 00000001     H   52088 52077B
 $$$1467F      2 000086F8 00000001     H   52170 52107B 52125B
 $$$1469F      2 000086F2 00000001     H   52165 52143B
 $$$147B       4 000010EA 00000001     I   11191 11238
 $$$147F       2 00001110 00000001     H   11235 11191B 11237
 $$$147T       2 000010EE 00000001     H   11194 11180B
 $$$1470F      2 00008740 00000001     H   52259 52189B
 $$$1470S      2 00008706 00000001     H   52183 52258B
 $$$1472B      4 0000870E 00000001     I   52203 52220
 $$$1472F      2 00008718 00000001     H   52217 52203B 52219
 $$$1473E      2 0000871C 00000001     H   52227 52221
 $$$1473F      2 00008728 00000001     H   52241 52223B
 $$$1474F      2 00008788 00000001     H   52364 52313B
 $$$1474S      2 00008762 00000001     H   52307 52363B
 $$$1476F      2 00008776 00000001     H   52337 52328B
 $$$1477       6 00008984 00000001     I   52350 52342X
 $$$1478       6 00008984 00000001     I   52349 52350  52350
 $$$1479       1 0000016C 00000001 A   U   52409 52406  52408
 $$$1481B      1 000088B2 00000001     X   52444 52451U
 $$$1482       1 00000050 00000001 A   U   52506 52503  52505
 $$$1484B      1 000088F6 00000001     X   52539 52546U
 $$$1485F      2 00008932 00000001     H   52678 52567B
 $$$1486F      2 00008932 00000001     H   52667 52623B
 $$$1487       6 0000898A 00000001     I   52640 52632X
 $$$1488       6 0000898A 00000001     I   52639 52640  52640
 $$$1489       6 00008990 00000001     I   52657 52649X
 $$$149E       2 00001114 00000001     H   11245 11239
 $$$149F       2 00001220 00000001     H   11635 11241B
 $$$1490       6 00008990 00000001     I   52656 52657  52657
 $$$1491       1 00000050 00000001 A   U   52696 52693  52695
 $$$1493B      1 000089B0 00000001     X   52777 52784U
 $$$1494F      2 00008A54 00000001     H   53024 52814B
 $$$1495F      2 00008A48 00000001     H   53006 52873B
 $$$1495S      2 000089DC 00000001     H   52867 53005B
 $$$1497B      4 000089EE 00000001     I   52905 52980
 $$$1497F      2 00008A30 00000001     H   52975 52891B 52905B 52977
 $$$1498B      4 000089E6 00000001     I   52891 52978
 $$$1499B      4 00008A10 00000001     I   52940 52958
 $$$1499F      2 00008A26 00000001     H   52955 52940B 52957
 $$$150B       4 0000113C 00000001     I   11281 11316
 $$$150F       2 0000115E 00000001     H   11313 11281B 11315
 $$$1500E      2 00008A2A 00000001     H   52965 52959
 $$$1500F      2 00008A30 00000001     H   52971 52961B
 $$$1501E      2 00008A34 00000001     H   52987 52979  52981
1FUNC     (FUNC2193) (12:45) (15MAR04) Ordinary Symbol and Literal Cross Reference                                          Page  266
 $$$1501F      2 00008A3A 00000001     H   52993 52983B
 $$$1502       1 00000054 00000001 A   U   53047 53044  53046
 $$$1504B      1 00008A7C 00000001     X   53105 53112U
 $$$1505F      2 00008BAC 00000001     H   53575 53188B
 $$$1506F      2 00008B82 00000001     H   53472 53233B
 $$$1507B      4 00008AF6 00000001     I   53251 53368
 $$$1507F      2 00008B42 00000001     H   53364 53251B 53367
 $$$1508F      2 00008B42 00000001     H   53360 53268B
 $$$1509F      2 00008B18 00000001     H   53293 53283B
 $$$1510F      2 00008B26 00000001     H   53314 53304B
 $$$1511F      2 00008B34 00000001     H   53335 53325B
 $$$1512F      2 00008B42 00000001     H   53356 53346B
 $$$1513E      2 00008B46 00000001     H   53375 53369
 $$$1513F      2 00008B82 00000001     H   53468 53371B
 $$$1514F      2 00008B82 00000001     H   53464 53393B
 $$$1515F      2 00008B66 00000001     H   53418 53408B
 $$$1516F      2 00008B74 00000001     H   53439 53429B
 $$$1517F      2 00008B82 00000001     H   53460 53450B
 $$$1518F      2 00008BA4 00000001     H   53552 53525B
 $$$1519       6 00008FE0 00000001     I   53542 53534X
 $$$152E       2 00001162 00000001     H   11323 11317
 $$$152F       2 00001220 00000001     H   11631 11319B
 $$$1520       6 00008FE0 00000001     I   53541 53542  53542
 $$$1521       1 000001B0 00000001 A   U   53611 53608  53610
 $$$1523B      1 00008BEC 00000001     X   53649 53656U
 $$$1524F      2 00008C6A 00000001     H   53849 53686B
 $$$1525F      2 00008C38 00000001     H   53742 53730B
 $$$1525S      2 00008C22 00000001     H   53723 53741B
 $$$1527F      2 00008C50 00000001     H   53797 53754B
 $$$1528       6 00008FE6 00000001     I   53771 53763X
 $$$1529       6 00008FE6 00000001     I   53770 53771  53771
 $$$153B       4 00001178 00000001     I   11355 11451
 $$$153F       2 000011B0 00000001     H   11444 11342B 11355B 11448
 $$$1530F      2 00008C50 00000001     H   53793 53784B
 $$$1531       1 000001A0 00000001 A   U   53872 53869  53871
 $$$1532F      2 00008D38 00000001     H   54196 54020B 54073B
 $$$1533B      1 00008C92 00000001     X   53907 53914U
 $$$1534F      2 00008D38 00000001     H   54181 53945B
 $$$1535F      2 00008CE0 00000001     H   54024 53984B
 $$$1536F      2 00008D08 00000001     H   54077 54037B
 $$$1537F      2 00008D34 00000001     H   54164 54137B
 $$$1538       6 00008FEC 00000001     I   54154 54146X
 $$$1539       6 00008FEC 00000001     I   54153 54154  54154
 $$$154B       4 0000116E 00000001     I   11342 11449
 $$$1540       1 000001A0 00000001 A   U   54205 54202  54204
 $$$1541F      2 00008E08 00000001     H   54530 54353B 54406B
 $$$1542B      1 00008D60 00000001     X   54240 54247U
 $$$1543F      2 00008E08 00000001     H   54515 54278B
 $$$1544F      2 00008DAE 00000001     H   54357 54317B
 $$$1545F      2 00008DD6 00000001     H   54410 54370B
 $$$1546F      2 00008E04 00000001     H   54498 54471B
 $$$1547       6 00008FF2 00000001     I   54488 54480X
 $$$1548       6 00008FF2 00000001     I   54487 54488  54488
 $$$1549       1 000001A0 00000001 A   U   54539 54536  54538
 $$$155F       2 000011A6 00000001     H   11431 11392B 11420B
 $$$155S       2 0000118A 00000001     H   11383 11430B
 $$$155T       2 000011A0 00000001     H   11423 11409B
 $$$1551B      1 00008E30 00000001     X   54574 54581U
 $$$1552F      2 00008E60 00000001     H   54678 54605B
1FUNC     (FUNC2193) (12:45) (15MAR04) Ordinary Symbol and Literal Cross Reference                                          Page  267
 $$$1553       1 00000050 00000001 A   U   54696 54693  54695
 $$$1555B      1 00008E88 00000001     X   54729 54736U
 $$$1556F      2 00008EC2 00000001     H   54848 54757B
 $$$1557       1 00000050 00000001 A   U   54867 54864  54866
 $$$1558F      2 000090B2 00000001     H   55220 55072B 55125B
 $$$1559B      1 00009012 00000001     X   54971 54978U
 $$$1560F      2 000090B2 00000001     H   55206 55017B
 $$$1561F      2 00009050 00000001     H   55076 55036B
 $$$1562F      2 00009082 00000001     H   55129 55089B
 $$$1563F      2 0000909A 00000001     H   55156 55145B
 $$$1563S      2 00009086 00000001     H   55136 55155B
 $$$1565       1 00000080 00000001 A   U   55229 55226  55228
 $$$1567B      1 000090DA 00000001     X   55269 55276U
 $$$1568       1 00000050 00000001 A   U   55332 55329  55331
 $$$1570B      1 00009122 00000001     X   55365 55372U
 $$$1571       1 00000050 00000001 A   U   55427 55424  55426
 $$$1573B      1 00009166 00000001     X   55460 55467U
 $$$1574       1 00000050 00000001 A   U   55522 55519  55521
 $$$1576B      1 000091AA 00000001     X   55555 55562U
 $$$1577       1 00000050 00000001 A   U   55617 55614  55616
 $$$1579B      1 000091EE 00000001     X   55648 55655U
 $$$1580F      2 0000922C 00000001     H   55769 55677B
 $$$1581       1 00000050 00000001 A   U   55788 55785  55787
 $$$1583B      1 00009254 00000001     X   55819 55826U
 $$$1584F      2 00009292 00000001     H   55940 55848B
 $$$1585       1 00000050 00000001 A   U   55959 55956  55958
 $$$1586F      2 00009364 00000001     H   56311 56112B 56197B
 $$$1587B      1 000092BA 00000001     X   55992 55999U
 $$$1588F      2 00009364 00000001     H   56302 56020B
 $$$1589F      2 00009300 00000001     H   56127 56058B 56076B
 $$$159B       4 000011C2 00000001     I   11484 11579
 $$$159E       2 000011B4 00000001     H   11458 11450  11452
 $$$159F       2 000011FA 00000001     H   11573 11454B 11471B 11484B 11576
 $$$1591F      2 000092FA 00000001     H   56116 56094B
 $$$1592F      2 00009332 00000001     H   56212 56143B 56161B
 $$$1594F      2 0000932C 00000001     H   56201 56179B
 $$$1595F      2 00009360 00000001     H   56283 56271B
 $$$1595S      2 00009342 00000001     H   56252 56282B
 $$$1597       1 00000050 00000001 A   U   56320 56317  56319
 $$$1599B      1 0000938C 00000001     X   56353 56360U
 $$$1600       1 00000050 00000001 A   U   56415 56412  56414
 $$$1602B      1 000093D0 00000001     X   56448 56455U
 $$$1603       1 00000050 00000001 A   U   56510 56507  56509
 $$$1605B      1 00009414 00000001     X   56592 56599U
 $$$1606F      2 0000946A 00000001     H   56747 56660B
 $$$1607F      2 00009464 00000001     H   56733 56706B
 $$$1608       6 00009A8A 00000001     I   56723 56715X
 $$$1609       6 00009A8A 00000001     I   56722 56723  56723
 $$$161B       4 000011B8 00000001     I   11471 11577
 $$$1612F      2 00009532 00000001     H   56981 56964B
 $$$1613F      2 0000955A 00000001     H   57036 56998B
 $$$1614F      2 0000958E 00000001     H   57117 57061B
 $$$1615F      2 0000957E 00000001     H   57089 57076B
 $$$1616F      2 0000958E 00000001     H   57113 57100B
 $$$1617F      2 000095D6 00000001     H   57243 57187B
 $$$1618F      2 000095C6 00000001     H   57215 57202B
 $$$1619F      2 000095D6 00000001     H   57239 57226B
 $$$162F       2 000011F0 00000001     H   11560 11521B 11549B
 $$$162S       2 000011D4 00000001     H   11512 11559B
1FUNC     (FUNC2193) (12:45) (15MAR04) Ordinary Symbol and Literal Cross Reference                                          Page  268
 $$$162T       2 000011EA 00000001     H   11552 11538B
 $$$1620B      4 000095DC 00000001     I   57255 57271
 $$$1620F      2 000095E6 00000001     H   57268 57255B 57270
 $$$1621E      2 000095EA 00000001     H   57278 57272
 $$$1621F      2 000095F0 00000001     H   57288 57274B
 $$$1622B      4 000095F4 00000001     I   57302 57371
 $$$1622F      2 00009610 00000001     H   57364 57302B 57370
 $$$1623F      2 00009610 00000001     H   57360 57321B
 $$$1624B      4 00009618 00000001     I   57389 57408
 $$$1624E      2 00009614 00000001     H   57378 57372
 $$$1624F      2 00009624 00000001     H   57401 57374B 57389B 57407
 $$$1626B      4 0000962C 00000001     I   57426 57563
 $$$1626E      2 00009628 00000001     H   57415 57409
 $$$1626F      2 00009686 00000001     H   57557 57411B 57426B 57562
 $$$1628B      4 00009632 00000001     I   57443 57499
 $$$1628F      2 0000965C 00000001     H   57493 57443B 57498
 $$$1629F      2 0000965C 00000001     H   57489 57462B
 $$$1630E      2 00009660 00000001     H   57506 57500
 $$$1630F      2 00009686 00000001     H   57553 57502B
 $$$1631F      2 00009686 00000001     H   57549 57522B
 $$$1632E      2 0000968A 00000001     H   57570 57564
 $$$1632F      2 000096B0 00000001     H   57617 57566B
 $$$1633F      2 000096B0 00000001     H   57613 57586B
 $$$1634F      2 000096CA 00000001     H   57694 57667B
 $$$1635       6 00009A90 00000001     I   57684 57676X
 $$$1636       6 00009A90 00000001     I   57683 57684  57684
 $$$1637       1 0000005C 00000001 A   U   57738 57735  57737
 $$$1639B      1 000097F2 00000001     X   57858 57865U
 $$$1640       1 00000050 00000001 A   U   57897 57894  57896
 $$$1642B      1 0000981E 00000001     X   57924 57931U
 $$$1643       1 00000050 00000001 A   U   57963 57960  57962
 $$$1645B      1 0000984A 00000001     X   57990 57997U
 $$$1646       1 00000050 00000001 A   U   58029 58026  58028
 $$$1648B      1 00009876 00000001     X   58056 58063U
 $$$1649       1 00000050 00000001 A   U   58095 58092  58094
 $$$1651B      1 000098A2 00000001     X   58122 58129U
 $$$1652       1 00000050 00000001 A   U   58161 58158  58160
 $$$1654B      1 000098CE 00000001     X   58188 58195U
 $$$1655       1 00000050 00000001 A   U   58222 58219  58221
 $$$1656F      2 00009C9A 00000001     H   59227 58529B 58562B
 $$$1657B      1 00009AB0 00000001     X   58403 58410U
 $$$1658F      2 00009C9A 00000001     H   59213 58448B
 $$$1659B      4 00009AD6 00000001     I   58479 58540
 $$$1659F      2 00009AFC 00000001     H   58537 58479B 58539
 $$$166E       2 000011FE 00000001     H   11586 11578  11580
 $$$166F       2 00001220 00000001     H   11627 11582B
 $$$1660B      4 00009ADE 00000001     I   58494 58507
 $$$1660F      2 00009AEA 00000001     H   58504 58494B 58506
 $$$1661E      2 00009AEE 00000001     H   58514 58508
 $$$1661F      2 00009AFC 00000001     H   58533 58510B
 $$$1662E      2 00009B00 00000001     H   58547 58541
 $$$1662F      2 00009B0E 00000001     H   58566 58543B
 $$$1663F      2 00009B9A 00000001     H   58787 58581B
 $$$1664F      2 00009B36 00000001     H   58623 58599B 58613B
 $$$1666F      2 00009B9A 00000001     H   58783 58637B
 $$$1667F      2 00009B9A 00000001     H   58779 58658B
 $$$1668F      2 00009B64 00000001     H   58684 58674B
 $$$1669F      2 00009B9A 00000001     H   58775 58698B
 $$$167F       2 00001242 00000001     H   11719 11692B
1FUNC     (FUNC2193) (12:45) (15MAR04) Ordinary Symbol and Literal Cross Reference                                          Page  269
 $$$1670F      2 00009B80 00000001     H   58726 58716B
 $$$1671F      2 00009B9A 00000001     H   58771 58740B
 $$$1672F      2 00009B9A 00000001     H   58766 58756B
 $$$1673       6 00009DBE 00000001     I   58805 58797X
 $$$1674       6 00009DBE 00000001     I   58804 58805  58805
 $$$1675F      2 00009BC0 00000001     H   58847 58822B
 $$$1676       6 00009DC4 00000001     I   58837 58829X
 $$$1677       6 00009DC4 00000001     I   58836 58837  58837
 $$$168        6 00001550 00000001     I   11709 11701X
 $$$1680F      2 00009C06 00000001     H   58969 58900B
 $$$1680S      2 00009BD8 00000001     H   58893 58968B
 $$$1683F      2 00009BF8 00000001     H   58944 58932B
 $$$1684F      2 00009C02 00000001     H   58964 58951B
 $$$1685F      2 00009C2A 00000001     H   59016 58986B
 $$$1685S      2 00009C12 00000001     H   58979 59015B
 $$$1688F      2 00009C44 00000001     H   59051 59038B
 $$$1689F      2 00009C7A 00000001     H   59150 59069B
 $$$1689S      2 00009C48 00000001     H   59060 59149B
 $$$169        6 00001550 00000001     I   11708 11709  11709
 $$$1692F      2 00009C72 00000001     H   59142 59121B 59132B
 $$$1692T      2 00009C6E 00000001     H   59135 59110B
 $$$1695       1 0000016C 00000001 A   U   59236 59233  59235
 $$$1697B      1 00009CB8 00000001     X   59270 59277U
 $$$1698F      2 00009CD0 00000001     H   59337 59327B
 $$$1699F      2 00009CE0 00000001     H   59360 59349B
 $$$170        1 00000258 00000001 A   U   11762 11759  11761
 $$$1700F      2 00009D02 00000001     H   59422 59400B 59412B
 $$$1702F      2 00009D16 00000001     H   59447 59437B
 $$$1703F      2 00009D1E 00000001     H   59470 59457B
 $$$1704F      2 00009D34 00000001     H   59512 59481B
 $$$1705       6 00009DCA 00000001     I   59499 59491X
 $$$1706       6 00009DCA 00000001     I   59498 59499  59499
 $$$1707B      4 00009D38 00000001     I   59523 59594
 $$$1707F      2 00009D66 00000001     H   59591 59523B 59593
 $$$1708F      2 00009D66 00000001     H   59587 59547B 59559B 59569B
 $$$1708S      2 00009D40 00000001     H   59538 59586B
 $$$1712E      2 00009D6A 00000001     H   59601 59595
 $$$1712F      2 00009D6C 00000001     H   59608 59597B
 $$$1713       1 0000016C 00000001 A   U   59640 59637  59639
 $$$1714F      2 00009F1C 00000001     H   60187 59889B
 $$$1715B      1 00009DEA 00000001     X   59702 59709U
 $$$1716F      2 00009F04 00000001     H   60160 59785B
 $$$1717B      4 00009E3E 00000001     I   59815 59828
 $$$1717F      2 00009E46 00000001     H   59825 59815B 59827
 $$$1718E      2 00009E4A 00000001     H   59835 59829
 $$$1718F      2 00009E52 00000001     H   59842 59831B
 $$$1719B      4 00009E5E 00000001     I   59871 59896
 $$$1719F      2 00009E70 00000001     H   59893 59871B 59895
 $$$1719T      2 00009E62 00000001     H   59874 59859B
 $$$172B       1 00001280 00000001     X   11803 11810U
 $$$1721E      2 00009E74 00000001     H   59903 59897
 $$$1721F      2 00009EEA 00000001     H   60103 59899B
 $$$1722F      2 00009EEA 00000001     H   60099 59932B
 $$$1723B      4 00009EA4 00000001     I   59955 59971
 $$$1723F      2 00009EAE 00000001     H   59968 59955B 59970
 $$$1724E      2 00009EB2 00000001     H   59978 59972
 $$$1724F      2 00009EB8 00000001     H   59988 59974B
 $$$1725F      2 00009EEA 00000001     H   60095 59995B
 $$$1726F      2 00009EEA 00000001     H   60091 60014B
1FUNC     (FUNC2193) (12:45) (15MAR04) Ordinary Symbol and Literal Cross Reference                                          Page  270
 $$$1727F      2 00009ED2 00000001     H   60041 60031B
 $$$1728F      2 00009EDE 00000001     H   60064 60054B
 $$$1729F      2 00009EEA 00000001     H   60087 60077B
 $$$173F       2 000012BC 00000001     H   11942 11831B
 $$$1730       1 000001B0 00000001 A   U   60196 60193  60195
 $$$174F       2 000012BC 00000001     H   11931 11887B
 $$$175        6 00001556 00000001     I   11904 11896X
 $$$176        6 00001556 00000001     I   11903 11904  11904
 $$$177        6 0000155C 00000001     I   11921 11913X
 $$$178        6 0000155C 00000001     I   11920 11921  11921
 $$$179        1 00000050 00000001 A   U   11960 11957  11959
 $$$181B       1 000012E4 00000001     X   11994 12001U
 $$$182F       2 0000131E 00000001     H   12098 12022B
 $$$183        1 00000050 00000001 A   U   12116 12113  12115
 $$$185B       1 00001346 00000001     X   12150 12157U
 $$$186F       2 00001380 00000001     H   12254 12178B
 $$$187        1 00000050 00000001 A   U   12272 12269  12271
 $$$189B       1 000013A8 00000001     X   12306 12313U
 $$$190F       2 000013F6 00000001     H   12472 12334B
 $$$191B       4 000013CA 00000001     I   12367 12417
 $$$191F       2 000013E0 00000001     H   12414 12367B 12416
 $$$192E       2 000013E4 00000001     H   12424 12418
 $$$192F       2 000013F6 00000001     H   12468 12420B
 $$$193        1 00000050 00000001 A   U   12490 12487  12489
 $$$195B       1 0000141E 00000001     X   12524 12531U
 $$$196F       2 00001458 00000001     H   12628 12552B
 $$$197        1 00000050 00000001 A   U   12646 12643  12645
 $$$198F       2 00001660 00000001     H   13083 12857B 12963B
 $$$199B       1 0000157C 00000001     X   12742 12749U
 $$$200F       2 00001660 00000001     H   13068 12788B
 $$$201F       2 000015C4 00000001     H   12861 12839B
 $$$201T       2 000015B6 00000001     H   12842 12827B
 $$$203F       2 000015D6 00000001     H   12885 12873B
 $$$204F       2 0000162E 00000001     H   12995 12908B
 $$$205F       2 0000161E 00000001     H   12967 12927B
 $$$206F       2 0000162E 00000001     H   12991 12982B
 $$$207        1 00000058 00000001 A   U   13092 13089  13091
 $$$209B       1 00001688 00000001     X   13149 13156U
 $$$210F       2 000016F2 00000001     H   13377 13187B
 $$$211B       4 000016B2 00000001     I   13234 13252
 $$$211F       2 000016BA 00000001     H   13249 13234B 13251
 $$$212E       2 000016BE 00000001     H   13259 13253
 $$$212F       2 000016D6 00000001     H   13283 13255B
 $$$213F       2 000016F0 00000001     H   13359 13332B
 $$$214        6 00002124 00000001     I   13349 13341X
 $$$215        6 00002124 00000001     I   13348 13349  13349
 $$$216        1 00000158 00000001 A   U   13401 13398  13400
 $$$218B       1 0000171A 00000001     X   13468 13475U
 $$$219F       2 00001882 00000001     H   14001 13505B
 $$$220B       4 000017BE 00000001     I   13602 13699
 $$$220F       2 000017E6 00000001     H   13696 13602B 13698
 $$$220T       2 000017C2 00000001     H   13605 13589B
 $$$222F       2 000017E4 00000001     H   13683 13656B
 $$$223        6 0000212A 00000001     I   13673 13665X
 $$$224        6 0000212A 00000001     I   13672 13673  13673
 $$$225E       2 000017EA 00000001     H   13706 13700
 $$$225F       2 00001882 00000001     H   13997 13702B
 $$$226F       2 00001832 00000001     H   13848 13722B
 $$$226S       2 000017EA 00000001     H   13715 13847B
1FUNC     (FUNC2193) (12:45) (15MAR04) Ordinary Symbol and Literal Cross Reference                                          Page  271
 $$$228        6 00002130 00000001     I   13736 13728X
 $$$229        6 00002130 00000001     I   13735 13736  13736
 $$$230B       4 000017F4 00000001     I   13749 13824
 $$$230F       2 0000181C 00000001     H   13821 13749B 13823
 $$$231F       2 00001808 00000001     H   13792 13768B
 $$$232        6 00002136 00000001     I   13782 13774X
 $$$233        6 00002136 00000001     I   13781 13782  13782
 $$$234F       2 0000181C 00000001     H   13817 13807B
 $$$235E       2 00001820 00000001     H   13831 13825
 $$$235F       2 0000182E 00000001     H   13843 13827B
 $$$236F       2 00001852 00000001     H   13881 13865B
 $$$236S       2 0000183A 00000001     H   13858 13880B
 $$$238F       2 0000185E 00000001     H   13906 13896B
 $$$239F       2 00001880 00000001     H   13984 13957B
 $$$240        6 0000213C 00000001     I   13974 13966X
 $$$241        6 0000213C 00000001     I   13973 13974  13974
 $$$242        1 00000374 00000001 A   U   14024 14021  14023
 $$$244B       1 000018AA 00000001     X   14057 14064U
 $$$245        1 00000050 00000001 A   U   14119 14116  14118
 $$$246F       2 00001966 00000001     H   14353 14253B
 $$$247B       1 000018EE 00000001     X   14152 14159U
 $$$248F       2 00001966 00000001     H   14343 14180B
 $$$249F       2 00001932 00000001     H   14257 14235B
 $$$249T       2 00001924 00000001     H   14238 14223B
 $$$251F       2 00001964 00000001     H   14321 14302B
 $$$251S       2 00001944 00000001     H   14296 14320B
 $$$253        1 00000050 00000001 A   U   14362 14359  14361
 $$$255B       1 0000198E 00000001     X   14395 14402U
 $$$256        1 00000050 00000001 A   U   14457 14454  14456
 $$$258B       1 000019D2 00000001     X   14490 14497U
 $$$259        1 00000050 00000001 A   U   14552 14549  14551
 $$$261B       1 00001A16 00000001     X   14585 14592U
 $$$262        1 00000050 00000001 A   U   14647 14644  14646
 $$$264B       1 00001A5A 00000001     X   14704 14711U
 $$$265F       2 00001ADC 00000001     H   14961 14750B
 $$$266F       2 00001AB4 00000001     H   14846 14823B
 $$$267F       2 00001ADA 00000001     H   14943 14916B
 $$$268        6 00002142 00000001     I   14933 14925X
 $$$269        6 00002142 00000001     I   14932 14933  14933
 $$$270        1 00000158 00000001 A   U   14985 14982  14984
 $$$272B       1 00001B04 00000001     X   15018 15025U
 $$$273        1 00000050 00000001 A   U   15080 15077  15079
 $$$275B       1 00001B48 00000001     X   15113 15120U
 $$$276        1 00000050 00000001 A   U   15175 15172  15174
 $$$278B       1 00001B8C 00000001     X   15232 15239U
 $$$279F       2 00001C10 00000001     H   15501 15273B
 $$$280F       2 00001BE2 00000001     H   15386 15316B 15330B
 $$$282        6 00002148 00000001     I   15352 15344X
 $$$283        6 00002148 00000001     I   15351 15352  15352
 $$$284        6 0000214E 00000001     I   15368 15360X
 $$$285        6 0000214E 00000001     I   15367 15368  15368
 $$$286B       4 00001BE4 00000001     I   15396 15446
 $$$286F       2 00001BFA 00000001     H   15443 15396B 15445
 $$$287E       2 00001BFE 00000001     H   15453 15447
 $$$287F       2 00001C10 00000001     H   15497 15449B
 $$$288        1 00000058 00000001 A   U   15526 15523  15525
 $$$290B       1 00001C38 00000001     X   15587 15594U
 $$$291F       2 00001C88 00000001     H   15688 15679B
 $$$292        6 00002154 00000001     I   15701 15693X
1FUNC     (FUNC2193) (12:45) (15MAR04) Ordinary Symbol and Literal Cross Reference                                          Page  272
 $$$293        6 00002154 00000001     I   15700 15701  15701
 $$$294        6 0000215A 00000001     I   15718 15710X
 $$$295        6 0000215A 00000001     I   15717 15718  15718
 $$$296F       2 00001D04 00000001     H   15863 15741B
 $$$297F       2 00001CEE 00000001     H   15854 15793B
 $$$297T       2 00001CC6 00000001     H   15796 15782B
 $$$299F       2 00001D36 00000001     H   15949 15893B
 $$$301B       4 00001D22 00000001     I   15911 15927
 $$$301F       2 00001D28 00000001     H   15924 15911B 15926
 $$$302E       2 00001D2C 00000001     H   15934 15928
 $$$302F       2 00001D36 00000001     H   15945 15930B
 $$$303B       4 00001D4A 00000001     I   15974 16025
 $$$303F       2 00001D60 00000001     H   16022 15974B 16024
 $$$304E       2 00001D64 00000001     H   16032 16026
 $$$304F       2 00001D76 00000001     H   16077 16028B
 $$$305        1 00000258 00000001 A   U   16116 16113  16115
 $$$307B       1 00001DA0 00000001     X   16178 16185U
 $$$308F       2 00001E04 00000001     H   16308 16270B
 $$$309F       2 00001E72 00000001     H   16473 16325B
 $$$310F       2 00001E5C 00000001     H   16464 16377B
 $$$310T       2 00001E34 00000001     H   16380 16366B
 $$$312F       2 00001E56 00000001     H   16450 16423B
 $$$313        6 00002160 00000001     I   16440 16432X
 $$$314        6 00002160 00000001     I   16439 16440  16440
 $$$315F       2 00001EB0 00000001     H   16565 16538B
 $$$316        6 00002166 00000001     I   16555 16547X
 $$$317        6 00002166 00000001     I   16554 16555  16555
 $$$318        1 00000250 00000001 A   U   16613 16610  16612
 $$$319F       2 00001FCA 00000001     H   17103 16786B
 $$$320B       1 00001EDC 00000001     X   16670 16677U
 $$$321F       2 00001FCA 00000001     H   17086 16716B
 $$$322F       2 00001F4E 00000001     H   16885 16732B
 $$$323F       2 00001F22 00000001     H   16790 16750B
 $$$324F       2 00001F4C 00000001     H   16872 16845B
 $$$325        6 0000216C 00000001     I   16862 16854X
 $$$326        6 0000216C 00000001     I   16861 16862  16862
 $$$327F       2 00001FAC 00000001     H   17044 16901B
 $$$328B       4 00001F5C 00000001     I   16913 16930
 $$$328F       2 00001F6C 00000001     H   16927 16913B 16929
 $$$329E       2 00001F70 00000001     H   16937 16931
 $$$329F       2 00001F7C 00000001     H   16948 16933B
 $$$330F       2 00001FAA 00000001     H   17031 17004B
 $$$331        6 00002172 00000001     I   17021 17013X
 $$$332        6 00002172 00000001     I   17020 17021  17021
 $$$333F       2 00001FCA 00000001     H   17082 17055B
 $$$334        1 0000013C 00000001 A   U   17112 17109  17111
 $$$336B       1 00002192 00000001     X   17209 17216U
 $$$337F       2 00002288 00000001     H   17552 17243B
 $$$343F       2 0000226C 00000001     H   17464 17451B
 $$$344F       2 00002286 00000001     H   17539 17512B
 $$$345        6 00002608 00000001     I   17529 17521X
 $$$346        6 00002608 00000001     I   17528 17529  17529
 $$$347F       2 000022AE 00000001     H   17627 17600B
 $$$348        6 0000260E 00000001     I   17617 17609X
 $$$349        6 0000260E 00000001     I   17616 17617  17617
 $$$350F       2 000022D6 00000001     H   17709 17682B
 $$$351        6 00002614 00000001     I   17699 17691X
 $$$352        6 00002614 00000001     I   17698 17699  17699
 $$$353        1 00000050 00000001 A   U   17744 17741  17743
1FUNC     (FUNC2193) (12:45) (15MAR04) Ordinary Symbol and Literal Cross Reference                                          Page  273
 $$$355B       1 00002362 00000001     X   17805 17812U
 $$$356        1 00000050 00000001 A   U   17839 17836  17838
 $$$358B       1 0000238E 00000001     X   17873 17880U
 $$$359F       2 000024B2 00000001     H   18308 17907B
 $$$365B       4 00002456 00000001     I   18116 18133
 $$$365F       2 00002462 00000001     H   18129 18116B 18132
 $$$366B       4 0000246A 00000001     I   18151 18168
 $$$366E       2 00002466 00000001     H   18140 18134
 $$$366F       2 00002476 00000001     H   18164 18136B 18151B 18167
 $$$368B       4 0000247E 00000001     I   18186 18202
 $$$368E       2 0000247A 00000001     H   18175 18169
 $$$368F       2 0000248A 00000001     H   18199 18171B 18186B 18201
 $$$370E       2 0000248E 00000001     H   18209 18203
 $$$370F       2 00002496 00000001     H   18219 18205B
 $$$371F       2 000024B0 00000001     H   18295 18268B
 $$$372        6 0000261A 00000001     I   18285 18277X
 $$$373        6 0000261A 00000001     I   18284 18285  18285
 $$$374F       2 000024D8 00000001     H   18383 18356B
 $$$375        6 00002620 00000001     I   18373 18365X
 $$$376        6 00002620 00000001     I   18372 18373  18373
 $$$377F       2 00002500 00000001     H   18465 18438B
 $$$378        6 00002626 00000001     I   18455 18447X
 $$$379        6 00002626 00000001     I   18454 18455  18455
 $$$380        1 00000050 00000001 A   U   18502 18499  18501
 $$$382B       1 0000258E 00000001     X   18563 18570U
 $$$383        1 00000050 00000001 A   U   18597 18594  18596
 $$$385B       1 00002646 00000001     X   18663 18670U
 $$$386F       2 0000274E 00000001     H   18997 18697B
 $$$387F       2 0000269C 00000001     H   18785 18767B
 $$$390F       2 0000272C 00000001     H   18913 18881B
 $$$391F       2 0000274C 00000001     H   18981 18957B
 $$$392        6 00002842 00000001     I   18971 18963X
 $$$393        6 00002842 00000001     I   18970 18971  18971
 $$$394F       2 00002774 00000001     H   19070 19043B
 $$$395        6 00002848 00000001     I   19060 19052X
 $$$396        6 00002848 00000001     I   19059 19060  19060
 $$$397        1 00000050 00000001 A   U   19105 19102  19104
 $$$399B       1 00002802 00000001     X   19166 19173U
 $$$400        1 00000050 00000001 A   U   19200 19197  19199
 $$$402B       1 00002868 00000001     X   19260 19267U
 $$$403F       2 0000296C 00000001     H   19634 19294B
 $$$408B       4 00002924 00000001     I   19477 19494
 $$$408F       2 00002930 00000001     H   19490 19477B 19493
 $$$409B       4 00002938 00000001     I   19512 19528
 $$$409E       2 00002934 00000001     H   19501 19495
 $$$409F       2 00002944 00000001     H   19525 19497B 19512B 19527
 $$$411E       2 00002948 00000001     H   19535 19529
 $$$411F       2 00002950 00000001     H   19545 19531B
 $$$412F       2 0000296A 00000001     H   19621 19594B
 $$$413        6 00002A6E 00000001     I   19611 19603X
 $$$414        6 00002A6E 00000001     I   19610 19611  19611
 $$$415F       2 00002992 00000001     H   19709 19682B
 $$$416        6 00002A74 00000001     I   19699 19691X
 $$$417        6 00002A74 00000001     I   19698 19699  19699
 $$$418        1 00000050 00000001 A   U   19744 19741  19743
 $$$420B       1 00002A1E 00000001     X   19805 19812U
 $$$421        1 00000050 00000001 A   U   19839 19836  19838
 $$$423B       1 00002A94 00000001     X   19938 19945U
 $$$424F       2 00002C7E 00000001     H   20660 19981B
1FUNC     (FUNC2193) (12:45) (15MAR04) Ordinary Symbol and Literal Cross Reference                                          Page  274
 $$$425F       2 00002AEA 00000001     H   20069 20051B
 $$$429F       2 00002BA4 00000001     H   20246 20222B
 $$$430        6 00002E0A 00000001     I   20236 20228X
 $$$431        6 00002E0A 00000001     I   20235 20236  20236
 $$$434F       2 00002BD2 00000001     H   20336 20322B
 $$$435F       2 00002BE4 00000001     H   20367 20349B
 $$$438F       2 00002C0E 00000001     H   20449 20436B
 $$$439        6 00002E10 00000001     I   20475 20467X
 $$$440        6 00002E10 00000001     I   20474 20475  20475
 $$$441F       2 00002C3E 00000001     H   20507 20498B
 $$$442F       2 00002C4A 00000001     H   20545 20521B
 $$$443        6 00002E16 00000001     I   20535 20527X
 $$$444        6 00002E16 00000001     I   20534 20535  20535
 $$$445F       2 00002C7C 00000001     H   20639 20612B
 $$$446        6 00002E1C 00000001     I   20629 20621X
 $$$447        6 00002E1C 00000001     I   20628 20629  20629
 $$$448F       2 00002CA4 00000001     H   20735 20708B
 $$$449        6 00002E22 00000001     I   20725 20717X
 $$$450        6 00002E22 00000001     I   20724 20725  20725
 $$$451        1 000001A0 00000001 A   U   20775 20772  20774
 $$$453B       1 00002CE0 00000001     X   20808 20815U
 $$$454F       2 00002D0A 00000001     H   20863 20848B
 $$$455F       2 00002D20 00000001     H   20885 20874B
 $$$456        1 000001A0 00000001 A   U   20912 20909  20911
 $$$458B       1 00002DA2 00000001     X   20973 20980U
 $$$459        1 00000050 00000001 A   U   21007 21004  21006
 $$$461B       1 00002E42 00000001     X   21079 21086U
 $$$462F       2 0000307E 00000001     H   21783 21122B
 $$$463F       2 00002E9C 00000001     H   21212 21194B
 $$$467F       2 00002F9E 00000001     H   21445 21425B
 $$$468F       2 00002FB6 00000001     H   21474 21460B
 $$$469F       2 00002FC4 00000001     H   21497 21487B
 $$$470F       2 00002FDA 00000001     H   21524 21510B
 $$$471F       2 00002FF0 00000001     H   21551 21537B
 $$$472F       2 00003010 00000001     H   21593 21580B
 $$$472T       2 00003004 00000001     H   21583 21568B
 $$$474F       2 0000303A 00000001     H   21649 21636B
 $$$474T       2 0000302E 00000001     H   21639 21610B 21624B
 $$$477F       2 0000305A 00000001     H   21691 21678B
 $$$477T       2 0000304E 00000001     H   21681 21666B
 $$$479F       2 0000307C 00000001     H   21770 21743B
 $$$480        6 000032D2 00000001     I   21760 21752X
 $$$481        6 000032D2 00000001     I   21759 21760  21760
 $$$482F       2 000030A4 00000001     H   21858 21831B
 $$$483        6 000032D8 00000001     I   21848 21840X
 $$$484        6 000032D8 00000001     I   21847 21848  21848
 $$$485        1 000001A0 00000001 A   U   21898 21895  21897
 $$$487B       1 000031AA 00000001     X   22006 22013U
 $$$488        1 00000050 00000001 A   U   22045 22042  22044
 $$$490B       1 000031D6 00000001     X   22072 22079U
 $$$491        1 00000050 00000001 A   U   22111 22108  22110
 $$$493B       1 00003202 00000001     X   22139 22146U
 $$$494        1 00000050 00000001 A   U   22173 22170  22172
 $$$496B       1 000032F8 00000001     X   22257 22264U
 $$$497        1 00000050 00000001 A   U   22319 22316  22318
 $$$499B       1 0000333C 00000001     X   22352 22359U
 $$$500        1 00000050 00000001 A   U   22414 22411  22413
 $$$502B       1 00003380 00000001     X   22448 22455U
 $$$503F       2 000033BC 00000001     H   22587 22476B
1FUNC     (FUNC2193) (12:45) (15MAR04) Ordinary Symbol and Literal Cross Reference                                          Page  275
 $$$504F       2 000033BC 00000001     H   22576 22532B
 $$$505        6 0000372A 00000001     I   22549 22541X
 $$$506        6 0000372A 00000001     I   22548 22549  22549
 $$$507        6 00003730 00000001     I   22566 22558X
 $$$508        6 00003730 00000001     I   22565 22566  22566
 $$$509        1 00000050 00000001 A   U   22605 22602  22604
 $$$511B       1 000033E4 00000001     X   22662 22669U
 $$$512F       2 00003466 00000001     H   22919 22708B
 $$$513F       2 0000343E 00000001     H   22804 22781B
 $$$514F       2 00003464 00000001     H   22901 22874B
 $$$515        6 00003736 00000001     I   22891 22883X
 $$$516        6 00003736 00000001     I   22890 22891  22891
 $$$517        1 00000158 00000001 A   U   22943 22940  22942
 $$$519B       1 0000348E 00000001     X   22981 22988U
 $$$520F       2 00003510 00000001     H   23187 23018B
 $$$521F       2 000034DE 00000001     H   23080 23068B
 $$$521S       2 000034C8 00000001     H   23061 23079B
 $$$523F       2 000034F6 00000001     H   23135 23092B
 $$$524        6 0000373C 00000001     I   23109 23101X
 $$$525        6 0000373C 00000001     I   23108 23109  23109
 $$$526F       2 000034F6 00000001     H   23131 23122B
 $$$527        1 000001A0 00000001 A   U   23210 23207  23209
 $$$528F       2 000036CC 00000001     H   23913 23420B 23473B
 $$$529B       1 00003538 00000001     X   23269 23276U
 $$$530F       2 000036CC 00000001     H   23899 23307B
 $$$531F       2 00003568 00000001     H   23368 23344B
 $$$532        6 00003742 00000001     I   23358 23350X
 $$$533        6 00003742 00000001     I   23357 23358  23358
 $$$534F       2 00003592 00000001     H   23424 23402B
 $$$534T       2 00003584 00000001     H   23405 23391B
 $$$536F       2 000035BC 00000001     H   23477 23455B
 $$$536T       2 000035AE 00000001     H   23458 23444B
 $$$538F       2 000035DE 00000001     H   23529 23504B 23517B
 $$$538S       2 000035C8 00000001     H   23495 23528B
 $$$541F       2 000035EC 00000001     H   23552 23540B
 $$$542F       2 00003612 00000001     H   23592 23583B
 $$$543F       2 00003626 00000001     H   23620 23605B
 $$$543S       2 00003612 00000001     H   23598 23619B
 $$$545F       2 00003630 00000001     H   23641 23631B
 $$$546F       2 0000364A 00000001     H   23671 23653B
 $$$546S       2 00003630 00000001     H   23647 23670B
 $$$548F       2 0000365C 00000001     H   23698 23689B
 $$$549F       2 000036A6 00000001     H   23802 23712B
 $$$550F       2 000036A6 00000001     H   23798 23738B
 $$$550S       2 00003672 00000001     H   23729 23797B
 $$$552B       4 0000367C 00000001     I   23753 23774
 $$$552F       2 00003692 00000001     H   23771 23753B 23773
 $$$553E       2 00003696 00000001     H   23781 23775
 $$$553F       2 000036A2 00000001     H   23793 23777B
 $$$554F       2 000036CA 00000001     H   23885 23858B
 $$$555        6 00003748 00000001     I   23875 23867X
 $$$556        6 00003748 00000001     I   23874 23875  23875
 $$$557        1 000000E4 00000001 A   U   23922 23919  23921
 $$$559B       1 00003768 00000001     X   24011 24018U
 $$$560F       2 000037D2 00000001     H   24239 24049B
 $$$561B       4 00003792 00000001     I   24096 24114
 $$$561F       2 0000379A 00000001     H   24111 24096B 24113
 $$$562E       2 0000379E 00000001     H   24121 24115
 $$$562F       2 000037B6 00000001     H   24145 24117B
1FUNC     (FUNC2193) (12:45) (15MAR04) Ordinary Symbol and Literal Cross Reference                                          Page  276
 $$$563F       2 000037D0 00000001     H   24221 24194B
 $$$564        6 00003C02 00000001     I   24211 24203X
 $$$565        6 00003C02 00000001     I   24210 24211  24211
 $$$566        1 00000158 00000001 A   U   24263 24260  24262
 $$$568B       1 000037FA 00000001     X   24296 24303U
 $$$569F       2 0000385E 00000001     H   24524 24334B
 $$$570B       4 00003824 00000001     I   24381 24399
 $$$570F       2 0000382C 00000001     H   24396 24381B 24398
 $$$571E       2 00003830 00000001     H   24406 24400
 $$$571F       2 00003842 00000001     H   24430 24402B
 $$$572F       2 0000385C 00000001     H   24506 24479B
 $$$573        6 00003C08 00000001     I   24496 24488X
 $$$574        6 00003C08 00000001     I   24495 24496  24496
 $$$575        1 00000158 00000001 A   U   24548 24545  24547
 $$$577B       1 00003886 00000001     X   24581 24588U
 $$$578F       2 000038E4 00000001     H   24793 24619B
 $$$579F       2 000038C8 00000001     H   24699 24686B
 $$$580F       2 000038E2 00000001     H   24775 24748B
 $$$581        6 00003C0E 00000001     I   24765 24757X
 $$$582        6 00003C0E 00000001     I   24764 24765  24765
 $$$583        1 00000158 00000001 A   U   24817 24814  24816
 $$$585B       1 0000390C 00000001     X   24850 24857U
 $$$586F       2 00003942 00000001     H   25003 24888B
 $$$587F       2 00003940 00000001     H   24985 24958B
 $$$588        6 00003C14 00000001     I   24975 24967X
 $$$589        6 00003C14 00000001     I   24974 24975  24975
 $$$590        1 00000158 00000001 A   U   25027 25024  25026
 $$$592B       1 0000396A 00000001     X   25086 25093U
 $$$593F       2 00003BC2 00000001     H   25633 25124B
 $$$594B       4 00003988 00000001     I   25157 25521
 $$$594F       2 00003B9E 00000001     H   25518 25157B 25520
 $$$595F       2 000039F4 00000001     H   25245 25217B
 $$$596B       4 00003AD8 00000001     I   25360 25496
 $$$596F       2 00003B96 00000001     H   25493 25360B 25495
 $$$597F       2 00003AFE 00000001     H   25392 25383B
 $$$598B       4 00003B6A 00000001     I   25431 25471
 $$$598F       2 00003B8E 00000001     H   25468 25431B 25470
 $$$599F       2 00003B88 00000001     H   25463 25453B
 $$$600E       2 00003B92 00000001     H   25478 25472
 $$$600F       2 00003B96 00000001     H   25489 25474B
 $$$601E       2 00003B9A 00000001     H   25503 25497
 $$$601F       2 00003B9E 00000001     H   25514 25499B
 $$$602E       2 00003BA2 00000001     H   25528 25522
 $$$602F       2 00003BA6 00000001     H   25539 25524B
 $$$603F       2 00003BC0 00000001     H   25615 25588B
 $$$604        6 00003C1A 00000001     I   25605 25597X
 $$$605        6 00003C1A 00000001     I   25604 25605  25605
 $$$606        1 0000008C 00000001 A   U   25657 25654  25656
 $$$608B       1 00003C3A 00000001     X   25758 25765U
 $$$609F       2 00003DC6 00000001     H   26373 25813B
 $$$610B       4 00003C5C 00000001     I   25847 25876
 $$$610F       2 00003C72 00000001     H   25873 25847B 25875
 $$$611E       2 00003C76 00000001     H   25883 25877
 $$$611F       2 00003C7E 00000001     H   25902 25879B
 $$$612F       2 00003C8C 00000001     H   25922 25913B
 $$$613F       2 00003C98 00000001     H   25960 25936B
 $$$614        6 00004816 00000001     I   25950 25942X
 $$$615        6 00004816 00000001     I   25949 25950  25950
 $$$617B       4 00003D34 00000001     I   26064 26178
1FUNC     (FUNC2193) (12:45) (15MAR04) Ordinary Symbol and Literal Cross Reference                                          Page  277
 $$$617F       2 00003D62 00000001     H   26175 26064B 26177
 $$$618F       2 00003D5A 00000001     H   26157 26130B
 $$$619        6 0000481C 00000001     I   26147 26139X
 $$$620        6 0000481C 00000001     I   26146 26147  26147
 $$$621E       2 00003D66 00000001     H   26185 26179
 $$$621F       2 00003DC6 00000001     H   26364 26181B
 $$$622B       4 00003D8A 00000001     I   26225 26242
 $$$622F       2 00003D90 00000001     H   26238 26225B 26241
 $$$623E       2 00003D94 00000001     H   26249 26243
 $$$623F       2 00003DA4 00000001     H   26271 26245B 26258B
 $$$625F       2 00003DBE 00000001     H   26346 26319B
 $$$626        6 00004822 00000001     I   26336 26328X
 $$$627        6 00004822 00000001     I   26335 26336  26336
 $$$628        1 000000B4 00000001 A   U   26398 26395  26397
 $$$630B       1 00003EB6 00000001     X   26505 26512U
 $$$631        1 00000050 00000001 A   U   26539 26536  26538
 $$$633B       1 00003EE4 00000001     X   26566 26573U
 $$$634        1 00000050 00000001 A   U   26606 26603  26605
 $$$636B       1 00003F16 00000001     X   26633 26640U
 $$$637        1 00000050 00000001 A   U   26667 26664  26666
 $$$639B       1 00003F44 00000001     X   26694 26701U
 $$$640        1 00000050 00000001 A   U   26733 26730  26732
 $$$642B       1 00003F70 00000001     X   26760 26767U
 $$$643        1 00000050 00000001 A   U   26847 26844  26846
 $$$645B       1 00003FC2 00000001     X   26909 26916U
 $$$646F       2 0000406C 00000001     H   27225 26947B
 $$$647F       2 00003FFC 00000001     H   27018 26995B
 $$$648F       2 0000400A 00000001     H   27038 27029B
 $$$649F       2 00004016 00000001     H   27076 27052B
 $$$650        6 00004828 00000001     I   27066 27058X
 $$$651        6 00004828 00000001     I   27065 27066  27066
 $$$652F       2 0000404A 00000001     H   27126 27113B
 $$$653F       2 00004064 00000001     H   27202 27175B
 $$$654        6 0000482E 00000001     I   27192 27184X
 $$$655        6 0000482E 00000001     I   27191 27192  27192
 $$$656        1 000000D0 00000001 A   U   27249 27246  27248
 $$$658B       1 00004094 00000001     X   27322 27329U
 $$$659F       2 00004106 00000001     H   27499 27412B
 $$$660F       2 00004100 00000001     H   27485 27458B
 $$$661        6 00004834 00000001     I   27475 27467X
 $$$662        6 00004834 00000001     I   27474 27475  27475
 $$$663F       2 00004124 00000001     H   27556 27544B
 $$$666F       2 0000423E 00000001     H   27843 27794B 27811B
 $$$668F       2 00004258 00000001     H   27919 27892B
 $$$669        6 0000483A 00000001     I   27909 27901X
 $$$670        6 0000483A 00000001     I   27908 27909  27909
 $$$671F       2 00004292 00000001     H   28023 27955B
 $$$672F       2 0000428A 00000001     H   28014 27970B
 $$$674F       2 000042AE 00000001     H   28072 28060B
 $$$675        1 00000074 00000001 A   U   28119 28116  28118
 $$$677B       1 000044AE 00000001     X   28314 28321U
 $$$678        1 00000050 00000001 A   U   28353 28350  28352
 $$$680B       1 000044DA 00000001     X   28380 28387U
 $$$681        1 00000050 00000001 A   U   28419 28416  28418
 $$$683B       1 00004506 00000001     X   28446 28453U
 $$$684        1 00000050 00000001 A   U   28485 28482  28484
 $$$686B       1 00004532 00000001     X   28512 28519U
 $$$687        1 00000050 00000001 A   U   28551 28548  28550
 $$$689B       1 0000455E 00000001     X   28578 28585U
1FUNC     (FUNC2193) (12:45) (15MAR04) Ordinary Symbol and Literal Cross Reference                                          Page  278
 $$$690        1 00000050 00000001 A   U   28618 28615  28617
 $$$692B       1 0000458A 00000001     X   28645 28652U
 $$$693        1 00000050 00000001 A   U   28684 28681  28683
 $$$695B       1 000045B6 00000001     X   28711 28718U
 $$$696        1 00000050 00000001 A   U   28751 28748  28750
 $$$698B       1 000045E2 00000001     X   28778 28785U
 $$$699        1 00000050 00000001 A   U   28817 28814  28816
 $$$701B       1 0000460E 00000001     X   28844 28851U
 $$$702        1 00000050 00000001 A   U   28883 28880  28882
 $$$704B       1 0000463A 00000001     X   28910 28917U
 $$$705        1 00000050 00000001 A   U   28945 28942  28944
 $$$707B       1 0000466A 00000001     X   28972 28979U
 $$$708        1 00000050 00000001 A   U   29006 29003  29005
 $$$710B       1 00004696 00000001     X   29049 29056U
 $$$711F       2 0000471C 00000001     H   29302 29077B
 $$$712F       2 00004702 00000001     H   29251 29117B 29128B
 $$$714F       2 00004702 00000001     H   29247 29143B
 $$$715F       2 000046FA 00000001     H   29222 29167B 29179B
 $$$715S       2 000046DA 00000001     H   29159 29221B
 $$$718        6 00004840 00000001     I   29193 29185X
 $$$719        6 00004840 00000001     I   29192 29193  29193
 $$$720F       2 000046F2 00000001     H   29216 29206B
 $$$721F       2 00004702 00000001     H   29243 29233B
 $$$722        1 00000050 00000001 A   U   29320 29317  29319
 $$$724B       1 00004860 00000001     X   29457 29464U
 $$$725F       2 0000488A 00000001     H   29532 29517B
 $$$726F       2 00004896 00000001     H   29558 29543B
 $$$727F       2 000048E2 00000001     H   29680 29593B
 $$$728F       2 000048DC 00000001     H   29666 29639B
 $$$729        6 000055C4 00000001     I   29656 29648X
 $$$730        6 000055C4 00000001     I   29655 29656  29656
 $$$733F       2 00004A02 00000001     H   30010 29983B
 $$$734        6 000055CA 00000001     I   30000 29992X
 $$$735        6 000055CA 00000001     I   29999 30000  30000
 $$$736F       2 00004A3C 00000001     H   30114 30046B
 $$$737F       2 00004A34 00000001     H   30105 30061B
 $$$739F       2 00004A58 00000001     H   30163 30151B
 $$$740F       2 00004A78 00000001     H   30215 30200B
 $$$741F       2 00004A84 00000001     H   30241 30226B
 $$$742        1 00000074 00000001 A   U   30276 30273  30275
 $$$744B       1 00004ED2 00000001     X   30696 30703U
 $$$745        1 00000050 00000001 A   U   30739 30736  30738
 $$$747B       1 00004F02 00000001     X   30766 30773U
 $$$748        1 00000050 00000001 A   U   30812 30809  30811
 $$$750B       1 00004F32 00000001     X   30839 30846U
 $$$751        1 00000050 00000001 A   U   30878 30875  30877
 $$$753B       1 00004F5E 00000001     X   30905 30912U
 $$$754        1 00000050 00000001 A   U   30944 30941  30943
 $$$756B       1 00004F8A 00000001     X   30971 30978U
 $$$757        1 00000050 00000001 A   U   31010 31007  31009
 $$$759B       1 00004FB6 00000001     X   31037 31044U
 $$$760        1 00000050 00000001 A   U   31077 31074  31076
 $$$762B       1 00004FE2 00000001     X   31104 31111U
 $$$763        1 00000050 00000001 A   U   31143 31140  31142
 $$$765B       1 0000500E 00000001     X   31170 31177U
 $$$766        1 00000050 00000001 A   U   31209 31206  31208
 $$$768B       1 0000503A 00000001     X   31236 31243U
 $$$769        1 00000050 00000001 A   U   31276 31273  31275
 $$$77B        1 00000032 00000001     X    8295  8302U
1FUNC     (FUNC2193) (12:45) (15MAR04) Ordinary Symbol and Literal Cross Reference                                          Page  279
 $$$771B       1 00005066 00000001     X   31303 31310U
 $$$772        1 00000050 00000001 A   U   31343 31340  31342
 $$$774B       1 00005092 00000001     X   31370 31377U
 $$$775        1 00000050 00000001 A   U   31409 31406  31408
 $$$777B       1 000050BE 00000001     X   31436 31443U
 $$$778        1 00000050 00000001 A   U   31476 31473  31475
 $$$78         1 00000050 00000001 A   U    8351  8348   8350
 $$$780B       1 000050EA 00000001     X   31503 31510U
 $$$781        1 00000050 00000001 A   U   31542 31539  31541
 $$$783B       1 00005116 00000001     X   31569 31576U
 $$$784        1 00000050 00000001 A   U   31608 31605  31607
 $$$786B       1 00005142 00000001     X   31635 31642U
 $$$787        1 00000050 00000001 A   U   31675 31672  31674
 $$$789B       1 0000516E 00000001     X   31702 31709U
 $$$790        1 00000050 00000001 A   U   31742 31739  31741
 $$$792B       1 0000519A 00000001     X   31769 31776U
 $$$793        1 00000050 00000001 A   U   31808 31805  31807
 $$$795B       1 000051C6 00000001     X   31835 31842U
 $$$796        1 00000050 00000001 A   U   31874 31871  31873
 $$$798B       1 000051F2 00000001     X   31901 31908U
 $$$799        1 00000050 00000001 A   U   31940 31937  31939
 $$$80B        1 00000086 00000001     X    8397  8404U
 $$$801B       1 0000521E 00000001     X   31967 31974U
 $$$802        1 00000050 00000001 A   U   32006 32003  32005
 $$$804B       1 0000524A 00000001     X   32033 32040U
 $$$805        1 00000050 00000001 A   U   32072 32069  32071
 $$$807B       1 00005276 00000001     X   32099 32106U
 $$$808        1 00000050 00000001 A   U   32134 32131  32133
 $$$81F        2 000000BE 00000001     H    8500  8437B
 $$$810B       1 000052A6 00000001     X   32161 32168U
 $$$811        1 00000050 00000001 A   U   32195 32192  32194
 $$$813B       1 000052D2 00000001     X   32222 32229U
 $$$814        1 00000050 00000001 A   U   32261 32258  32260
 $$$816B       1 000052FE 00000001     X   32288 32295U
 $$$817F       2 0000530E 00000001     H   32328 32319B
 $$$818        1 00000050 00000001 A   U   32347 32344  32346
 $$$82B        4 000000A8 00000001     I    8463  8483
 $$$82F        2 000000B6 00000001     H    8480  8463B  8482
 $$$820B       1 0000533A 00000001     X   32374 32381U
 $$$821        1 00000050 00000001 A   U   32408 32405  32407
 $$$823B       1 00005366 00000001     X   32448 32455U
 $$$824        1 00000050 00000001 A   U   32510 32507  32509
 $$$826B       1 000053AA 00000001     X   32545 32552U
 $$$827F       2 000053E0 00000001     H   32653 32576B
 $$$828        1 00000050 00000001 A   U   32671 32668  32670
 $$$83E        2 000000BA 00000001     H    8490  8484
 $$$83F        2 000000BE 00000001     H    8496  8486B
 $$$830B       1 00005408 00000001     X   32704 32711U
 $$$831        1 00000050 00000001 A   U   32766 32763  32765
 $$$832F       2 000054EA 00000001     H   33069 32897B 32972B
 $$$833B       1 0000544C 00000001     X   32799 32806U
 $$$834F       2 000054EA 00000001     H   33059 32827B
 $$$835F       2 0000548E 00000001     H   32901 32879B
 $$$835T       2 00005480 00000001     H   32882 32867B
 $$$837F       2 000054D2 00000001     H   33004 32917B
 $$$838F       2 000054C4 00000001     H   32976 32936B
 $$$839F       2 000054D2 00000001     H   33000 32991B
 $$$84         1 00000050 00000001 A   U    8521  8518   8520
 $$$840        1 00000050 00000001 A   U   33078 33075  33077
1FUNC     (FUNC2193) (12:45) (15MAR04) Ordinary Symbol and Literal Cross Reference                                          Page  280
 $$$841F       2 00005676 00000001     H   33441 33272B
 $$$842B       1 000055EA 00000001     X   33160 33167U
 $$$843F       2 00005676 00000001     H   33431 33188B
 $$$844F       2 0000562E 00000001     H   33276 33236B
 $$$844T       2 0000560E 00000001     H   33239 33224B
 $$$846F       2 00005640 00000001     H   33306 33296B
 $$$847B       4 00005658 00000001     I   33363 33395
 $$$847F       2 0000566A 00000001     H   33391 33363B 33394
 $$$848F       2 0000566A 00000001     H   33387 33377B
 $$$849E       2 0000566E 00000001     H   33402 33396
 $$$849F       2 00005670 00000001     H   33412 33398B
 $$$850        1 00000050 00000001 A   U   33450 33447  33449
 $$$852B       1 0000569E 00000001     X   33486 33493U
 $$$853F       2 000056F8 00000001     H   33686 33514B
 $$$854F       2 000056BE 00000001     H   33557 33547B
 $$$855F       2 000056F8 00000001     H   33682 33596B
 $$$856F       2 000056F6 00000001     H   33669 33642B
 $$$857        6 00005992 00000001     I   33659 33651X
 $$$858        6 00005992 00000001     I   33658 33659  33659
 $$$859        1 00000050 00000001 A   U   33705 33702  33704
 $$$86B        1 000000EA 00000001     X    8575  8582U
 $$$860F       2 00005854 00000001     H   34254 33850B 33939B 33991B
 $$$861B       1 00005720 00000001     X   33738 33745U
 $$$862F       2 00005854 00000001     H   34244 33766B
 $$$863F       2 00005764 00000001     H   33854 33814B
 $$$863T       2 00005744 00000001     H   33817 33802B
 $$$865F       2 000057CA 00000001     H   33999 33871B
 $$$866F       2 000057A4 00000001     H   33943 33903B
 $$$866T       2 00005784 00000001     H   33906 33891B
 $$$868F       2 000057CA 00000001     H   33995 33955B
 $$$869F       2 000057DC 00000001     H   34029 34019B
 $$$87F        2 00000136 00000001     H    8679  8605B
 $$$870F       2 000057FA 00000001     H   34075 34041B
 $$$871F       2 000057F8 00000001     H   34070 34056B
 $$$872B       4 00005804 00000001     I   34089 34105
 $$$872F       2 00005810 00000001     H   34102 34089B 34104
 $$$873E       2 00005814 00000001     H   34112 34106
 $$$873F       2 0000581C 00000001     H   34122 34108B
 $$$874F       2 00005830 00000001     H   34147 34134B
 $$$875F       2 00005852 00000001     H   34226 34199B
 $$$876        6 00005998 00000001     I   34216 34208X
 $$$877        6 00005998 00000001     I   34215 34216  34216
 $$$878        1 00000050 00000001 A   U   34263 34260  34262
 $$$88F        2 00000180 00000001     H    8767  8693B
 $$$880B       1 0000587C 00000001     X   34299 34306U
 $$$881F       2 000058DE 00000001     H   34504 34327B
 $$$882F       2 000058A4 00000001     H   34374 34364B
 $$$883F       2 000058DE 00000001     H   34500 34414B
 $$$884F       2 000058DC 00000001     H   34487 34460B
 $$$885        6 0000599E 00000001     I   34477 34469X
 $$$886        6 0000599E 00000001     I   34476 34477  34477
 $$$887        1 00000050 00000001 A   U   34523 34520  34522
 $$$889B       1 000059BE 00000001     X   34591 34598U
 $$$89F        2 0000023E 00000001     H    9102  8783B
 $$$89S        2 00000188 00000001     H    8776  9101B
 $$$890F       2 000059EE 00000001     H   34695 34622B
 $$$891        1 00000050 00000001 A   U   34713 34710  34712
 $$$892F       2 00005A9E 00000001     H   35023 34842B
 $$$893B       1 00005A16 00000001     X   34748 34755U
1FUNC     (FUNC2193) (12:45) (15MAR04) Ordinary Symbol and Literal Cross Reference                                          Page  281
 $$$894F       2 00005A9E 00000001     H   35013 34778B
 $$$895B       4 00005A30 00000001     I   34808 34853
 $$$895F       2 00005A50 00000001     H   34850 34808B 34852
 $$$896F       2 00005A50 00000001     H   34846 34824B
 $$$897E       2 00005A54 00000001     H   34860 34854
 $$$897F       2 00005A56 00000001     H   34869 34856B
 $$$898B       4 00005A60 00000001     I   34891 34949
 $$$898F       2 00005A7E 00000001     H   34946 34891B 34948
 $$$899E       2 00005A82 00000001     H   34956 34950
 $$$899F       2 00005A9E 00000001     H   35008 34952B
 $$$900        1 00000050 00000001 A   U   35032 35029  35031
 $$$901F       2 00005B24 00000001     H   35277 35159B
 $$$902B       1 00005AC6 00000001     X   35067 35074U
 $$$903F       2 00005B24 00000001     H   35267 35097B
 $$$904B       4 00005AD8 00000001     I   35125 35170
 $$$904F       2 00005AF8 00000001     H   35167 35125B 35169
 $$$905F       2 00005AF8 00000001     H   35163 35141B
 $$$906E       2 00005AFC 00000001     H   35177 35171
 $$$906F       2 00005AFE 00000001     H   35186 35173B
 $$$907F       2 00005B24 00000001     H   35262 35207B
 $$$908        1 00000050 00000001 A   U   35286 35283  35285
 $$$91B        4 00000192 00000001     I    8799  8830
 $$$91F        2 000001A2 00000001     H    8826  8799B  8829
 $$$910B       1 00005B4C 00000001     X   35323 35330U
 $$$911F       2 00005BFC 00000001     H   35678 35351B
 $$$912F       2 00005B7E 00000001     H   35410 35383B
 $$$912T       2 00005B68 00000001     H   35386 35371B
 $$$914B       4 00005B90 00000001     I   35458 35568
 $$$914F       2 00005BCE 00000001     H   35563 35458B 35567
 $$$914T       2 00005B94 00000001     H   35461 35446B
 $$$916F       2 00005BC8 00000001     H   35549 35522B
 $$$917        6 00005D2A 00000001     I   35539 35531X
 $$$918        6 00005D2A 00000001     I   35538 35539  35539
 $$$919E       2 00005BD2 00000001     H   35575 35569
 $$$919F       2 00005BFC 00000001     H   35674 35571B
 $$$920F       2 00005BFA 00000001     H   35661 35634B
 $$$921        6 00005D30 00000001     I   35651 35643X
 $$$922        6 00005D30 00000001     I   35650 35651  35651
 $$$923        1 00000050 00000001 A   U   35697 35694  35696
 $$$924F       2 00005CAC 00000001     H   36007 35826B
 $$$925B       1 00005C24 00000001     X   35732 35739U
 $$$926F       2 00005CAC 00000001     H   35997 35762B
 $$$927B       4 00005C3E 00000001     I   35792 35837
 $$$927F       2 00005C5E 00000001     H   35834 35792B 35836
 $$$928F       2 00005C5E 00000001     H   35830 35808B
 $$$929E       2 00005C62 00000001     H   35844 35838
 $$$929F       2 00005C64 00000001     H   35853 35840B
 $$$93B        4 000001AA 00000001     I    8847  8878
 $$$93E        2 000001A6 00000001     H    8837  8831
 $$$93F        2 000001BA 00000001     H    8874  8833B  8847B  8877
 $$$930B       4 00005C6E 00000001     I   35875 35933
 $$$930F       2 00005C8C 00000001     H   35930 35875B 35932
 $$$931E       2 00005C90 00000001     H   35940 35934
 $$$931F       2 00005CAC 00000001     H   35992 35936B
 $$$932        1 00000050 00000001 A   U   36016 36013  36015
 $$$933F       2 00005DD8 00000001     H   36355 36174B
 $$$934B       1 00005D50 00000001     X   36080 36087U
 $$$935F       2 00005DD8 00000001     H   36345 36110B
 $$$936B       4 00005D6A 00000001     I   36140 36185
1FUNC     (FUNC2193) (12:45) (15MAR04) Ordinary Symbol and Literal Cross Reference                                          Page  282
 $$$936F       2 00005D8A 00000001     H   36182 36140B 36184
 $$$937F       2 00005D8A 00000001     H   36178 36156B
 $$$938E       2 00005D8E 00000001     H   36192 36186
 $$$938F       2 00005D90 00000001     H   36201 36188B
 $$$939B       4 00005D9A 00000001     I   36223 36281
 $$$939F       2 00005DB8 00000001     H   36278 36223B 36280
 $$$940E       2 00005DBC 00000001     H   36288 36282
 $$$940F       2 00005DD8 00000001     H   36340 36284B
 $$$941        1 00000050 00000001 A   U   36364 36361  36363
 $$$942F       2 00005E88 00000001     H   36674 36493B
 $$$943B       1 00005E00 00000001     X   36399 36406U
 $$$944F       2 00005E88 00000001     H   36664 36429B
 $$$945B       4 00005E1A 00000001     I   36459 36504
 $$$945F       2 00005E3A 00000001     H   36501 36459B 36503
 $$$946F       2 00005E3A 00000001     H   36497 36475B
 $$$947E       2 00005E3E 00000001     H   36511 36505
 $$$947F       2 00005E40 00000001     H   36520 36507B
 $$$948B       4 00005E4A 00000001     I   36542 36600
 $$$948F       2 00005E68 00000001     H   36597 36542B 36599
 $$$949E       2 00005E6C 00000001     H   36607 36601
 $$$949F       2 00005E88 00000001     H   36659 36603B
 $$$950        1 00000050 00000001 A   U   36683 36680  36682
 $$$951F       2 00005F38 00000001     H   36993 36812B
 $$$952B       1 00005EB0 00000001     X   36718 36725U
 $$$953F       2 00005F38 00000001     H   36983 36748B
 $$$954B       4 00005ECA 00000001     I   36778 36823
 $$$954F       2 00005EEA 00000001     H   36820 36778B 36822
 $$$955F       2 00005EEA 00000001     H   36816 36794B
 $$$956E       2 00005EEE 00000001     H   36830 36824
 $$$956F       2 00005EF0 00000001     H   36839 36826B
 $$$957B       4 00005EFA 00000001     I   36861 36919
 $$$957F       2 00005F18 00000001     H   36916 36861B 36918
 $$$958E       2 00005F1C 00000001     H   36926 36920
 $$$958F       2 00005F38 00000001     H   36978 36922B
 $$$959        1 00000050 00000001 A   U   37002 36999  37001
 $$$96B        4 000001C2 00000001     I    8895  8926
 $$$96E        2 000001BE 00000001     H    8885  8879
 $$$96F        2 000001D2 00000001     H    8922  8881B  8895B  8925
 $$$961B       1 00005F60 00000001     X   37035 37042U
 $$$962F       2 00005F9C 00000001     H   37174 37063B
 $$$963F       2 00005F9C 00000001     H   37163 37119B
 $$$964        6 00006582 00000001     I   37136 37128X
 $$$965        6 00006582 00000001     I   37135 37136  37136
 $$$966        6 00006588 00000001     I   37153 37145X
 $$$967        6 00006588 00000001     I   37152 37153  37153
 $$$968        1 00000050 00000001 A   U   37192 37189  37191
 $$$970B       1 00005FC4 00000001     X   37225 37232U
 $$$971        1 00000050 00000001 A   U   37287 37284  37286
 $$$972F       2 0000614E 00000001     H   38037 37402B 37625B
 $$$973B       1 00006008 00000001     X   37355 37362U
 $$$975F       2 0000609E 00000001     H   37647 37423B
 $$$976F       2 0000609E 00000001     H   37638 37455B
 $$$976S       2 0000602E 00000001     H   37449 37637B
 $$$978B       4 00006040 00000001     I   37486 37505
 $$$978F       2 00006048 00000001     H   37501 37486B 37504
 $$$978T       2 00006044 00000001     H   37489 37475B
 $$$980B       4 00006058 00000001     I   37537 37555
 $$$980E       2 0000604C 00000001     H   37512 37506
 $$$980F       2 00006060 00000001     H   37552 37508B 37537B 37554
1FUNC     (FUNC2193) (12:45) (15MAR04) Ordinary Symbol and Literal Cross Reference                                          Page  283
 $$$980T       2 0000605C 00000001     H   37540 37526B
 $$$983E       2 00006064 00000001     H   37562 37556
 $$$983F       2 00006094 00000001     H   37629 37558B
 $$$984F       2 000060C6 00000001     H   37711 37663B
 $$$985F       2 000060C6 00000001     H   37707 37681B 37694B
 $$$985S       2 000060AE 00000001     H   37673 37706B
 $$$988F       2 000060EE 00000001     H   37773 37725B
 $$$989F       2 000060EE 00000001     H   37769 37743B 37756B
 $$$989S       2 000060D6 00000001     H   37735 37768B
 $$$99B        4 000001DA 00000001     I    8943  8974
 $$$99E        2 000001D6 00000001     H    8933  8927
 $$$99F        2 000001EA 00000001     H    8970  8929B  8943B  8973
 $$$992F       2 0000611E 00000001     H   37904 37791B 37803B
 $$$994F       2 00006112 00000001     H   37862 37821B
 $$$995        6 0000658E 00000001     I   37836 37828X
 $$$996        6 0000658E 00000001     I   37835 37836  37836
 $$$997        6 00006594 00000001     I   37852 37844X
 $$$998        6 00006594 00000001     I   37851 37852  37852
 $$$999        6 0000659A 00000001     I   37875 37867X
 @PAR          0 00000000 FFFFFFF5     @    1289 20370
 @RAR          0 00000000 FFFFFFF0     @    1354  2392   2400B
 @R0           0 00000000 FFFFFFFE     @     706   982U
 @R1           0 00000000 FFFFFFFD     @     719   978U  2398   2399  11131M 11152M 11190  11255  11256  11354  11483
                                                 11708  13348  13672  13973  14932  15367  15717  15792  15856  15857
                                                 15859  16376  16439  16466  16467  16469  16554  16861  17020  17291
                                                 17528  17616  17698  17955  18284  18372  18454  18722  19059  19320
                                                 19610  19698  20006  20534  20628  20724  21143  21759  21847  22890
                                                 23108  23874  24210  24495  24764  24974  25181U 25191U 25201U 25228U
                                                 25238U 25259U 25269U 25279U 25289U 25299U 25309U 25319U 25382  25452
                                                 25459M 25604  25949  26146  26335  27065  27191  27474  27822  27908
                                                 29192  29655  29999  33382M 33658  34215  34476  35538  35650  37835
                                                 37851  40308  40531  40538  40645  41017  41968  42422  43257  43716
                                                 44796  45308  45765  47061  47144  47160  47602  47894  48098  48425
                                                 48681  48772  48965  49535  50201  50210  50358  51011  51427  51590
                                                 51845  52248U 52254M 53541  53770  54153  54487  56254M 56255  56722
                                                 57683
 @R10          0 00000000 FFFFFFF4     @     836   942U
 @R11          0 00000000 FFFFFFF3     @     849   938U
 @R12          0 00000000 FFFFFFF2     @     862   934U
 @R13          0 00000000 FFFFFFF1     @     875   930U 17726  18484  19087  19726  20752  21875  26033  27933  28091
                                                 30024  30248  44203  47636  47928  53582  53588  57710  60167  60173
 @R14          0 00000000 FFFFFFF0     @     888   926U 27724M 27756  29879M 29911  52247  52249  53141M 53173  59738M
                                                 59770
 @R15          0 00000000 FFFFFFEF     @     901   922U 27823U 51024  51440  52946
 @R2           0 00000000 FFFFFFFC     @     732   974U 11131  11152  12880  13735  13833  13870  15351  20390  20456U
                                                 25962  27078  28009U 30100U 37693  37700  37835M 37874  45882M 45882
                                                 46145  46384  46967  47144M 47183  51500U 52234  52235  52349M 52358
                                                 52890  52910  52967  52989  56123U 56277  57355U 59367U 59498M 59568
 @R3           0 00000000 FFFFFFFB     @     745   970U  9278  11406  11419  11535  11548  13735  20655U 23516  26855U
                                                 37472  37485  37523  37536  37631  46771  46784  46822  46835  46930
                                                 49842  49855  49893  49906  49944  49957  50272  56208U
 @R4           0 00000000 FFFFFFFA     @     758   966U  8468M 11770U 13781  16095U 16592U 20263U 20391U 22182U 29014U
                                                 29192  32416U 37755  37762  37851M 37874  44395U 46145M 46146  46995
                                                 47033  47160M 47183  52003  52946M 52967M 52989M 58230U 59568
 @R5           0 00000000 FFFFFFF9     @     771   962U  8798   8846   8894   8942   8990   9038  10821U 11113U 11853U
                                                 12045U 12201U 12357U 12575U 13065U 13374U 13551U 13781M 13833M 13870M
                                                 14340U 14958U 15295U 16090U 16587U 17120U 17321U 17985U 18752U 19350U
                                                 20036U 21173U 21382U 22498U 22916U 23044U 23483U 24236U 24521U 24790U
                                                 25000U 25630U 26370U 27222U 28098U 29102U 30255U 32597U 33056U 33428U
1FUNC     (FUNC2193) (12:45) (15MAR04) Ordinary Symbol and Literal Cross Reference                                          Page  284
                                                 33579U 34241U 34396U 34643U 34875U 35192U 35429U 35859U 36207U 36526U
                                                 36845U 37085U 37644U 38177  38343  38465U 39178U 39261U 39563U 39734U
                                                 39958U 40334U 40485U 41043U 41552U 41994U 42453U 42829U 43288U 43747U
                                                 44135U 44827U 45334U 45791U 46169U 46559U 46943U 48031U 49024U 49203U
                                                 49561U 50384U 50573U 51159U 51616U 51771U 52382U 52589U 52836U 53572U
                                                 53712U 53970U 54303U 54626U 54845U 55237U 55766U 55937U 56299U 57717U
                                                 59210U 59615U 60157U
 @R6           0 00000000 FFFFFFF8     @     784   958U  8475U  9300U 10679U 10750U 10805U 10949U 11727U 11937U 12093U
                                                 12249U 12409U 12463U 12623U 13058U 13367U 13691U 13992U 14333U 14951U
                                                 15438U 15492U 15835U 16017U 16072U 16458U 16573U 16880U 17039U 17547U
                                                 17635U 17717U 18303U 18391U 18473U 18988U 19078U 19629U 19717U 20647U
                                                 20743U 21778U 21866U 22582U 22909U 23182U 23893U 24229U 24514U 24783U
                                                 24993U 25623U 26165U 26354U 27210U 27493U 27927U 29297U 29674U 30018U
                                                 32644U 33049U 33423U 33677U 34234U 34495U 34690U 34941U 35003U 35257U
                                                 35557U 35669U 35925U 35987U 36273U 36335U 36592U 36654U 36911U 36973U
                                                 37169U 37958U 38013U 38190U 38356U 38512U 38835U 39138U 39345U 39556U
                                                 39727U 40042U 40327U 40664U 41036U 41545U 41987U 42441U 42822U 43276U
                                                 43735U 44128U 44193U 44815U 45327U 45784U 46162U 46552U 47267U 47322U
                                                 47621U 47913U 48117U 48444U 48791U 48984U 49250U 49554U 50377U 50722U
                                                 51093U 51148U 51609U 51864U 52375U 52673U 53019U 53560U 53844U 54172U
                                                 54506U 54673U 54838U 55201U 55759U 55930U 56291U 56741U 57702U 59203U
                                                 60150U
 @R7           0 00000000 FFFFFFF7     @     797   954U  8340U  8510U  9127U  9312U  9587U 10455U 10832U 10962U 11751U
                                                 11949U 12105U 12261U 12479U 12635U 13081U 13390U 14013U 14108U 14351U
                                                 14446U 14541U 14636U 14974U 15069U 15164U 15515U 16105U 16602U 17101U
                                                 17733U 17828U 18491U 18586U 19094U 19189U 19733U 19828U 20764U 20901U
                                                 20996U 21887U 22034U 22100U 22162U 22308U 22403U 22594U 22932U 23199U
                                                 23911U 24252U 24537U 24806U 25016U 25646U 26387U 26528U 26595U 26656U
                                                 26722U 26836U 27238U 28108U 28342U 28408U 28474U 28540U 28607U 28673U
                                                 28740U 28806U 28872U 28934U 28995U 29309U 30265U 30728U 30801U 30867U
                                                 30933U 30999U 31066U 31132U 31198U 31265U 31332U 31398U 31465U 31531U
                                                 31597U 31664U 31731U 31797U 31863U 31929U 31995U 32061U 32123U 32184U
                                                 32250U 32336U 32397U 32499U 32660U 32755U 33067U 33439U 33694U 34252U
                                                 34512U 34702U 35021U 35275U 35686U 36005U 36353U 36672U 36991U 37181U
                                                 37276U 38035U 38201U 38367U 38528U 38847U 39159U 39357U 39574U 39745U
                                                 39840U 40054U 40149U 40344U 40707U 41058U 41568U 42009U 42468U 42844U
                                                 43303U 43762U 44215U 44315U 44376U 44842U 45349U 45806U 45937U 46180U
                                                 46575U 47344U 47648U 47940U 48129U 48456U 49005U 49107U 49262U 49357U
                                                 49572U 50400U 50735U 50831U 51175U 51632U 51876U 52398U 52495U 52685U
                                                 53036U 53600U 53861U 54194U 54528U 54685U 54856U 55218U 55321U 55416U
                                                 55511U 55606U 55777U 55948U 56309U 56404U 56499U 57727U 57886U 57952U
                                                 58018U 58084U 58150U 58211U 59225U 59629U 60185U
 @R8           0 00000000 FFFFFFF6     @     810   950U 11746U 13076U 13385U 14008U 14969U 15510U 16100U 16597U 17096U
                                                 20759U 20896U 21882U 22927U 23194U 23906U 24247U 24532U 24801U 25011U
                                                 25641U 26382U 27233U 28103U 30260U 38030U 39154U 40702U 41053U 41563U
                                                 42004U 42463U 42839U 43298U 43757U 44210U 44837U 45344U 45801U 46570U
                                                 47339U 47643U 47935U 49000U 50395U 51170U 51627U 52393U 53031U 53595U
                                                 53856U 54189U 54523U 55213U 57722U 59220U 59624U 60180U
 @R9           0 00000000 FFFFFFF5     @     823   946U
 ABSCENT       1 00000000 00000000 A   T    2408  2408
 ABSEARCH      1 00000000 00000004     T    9339  9339
 ACTPICK       1 00000000 0000003C     T   34544 34544
 ANFFLDLC      4 00000008 FFFFFFDC     F   10995 11105M 11139  11325
 ANFFLDLN      4 0000000C FFFFFFDC     F   10996 11107M 11140  11326
 ANFKEYLC      4 00000000 FFFFFFDC     F   10993 11100M 11118  11162
 ANFKEYLN      4 00000004 FFFFFFDC     F   10994 11102M 11119  11163
 ANFKWR      504 00000010 FFFFFFDC     X   10997 11059
 ANFWA       520 00000000 FFFFFFDC     J   11004 11026  11055U 11759  11761  11762
 ARG1          1 00000000 00000001 A   U   10353 10548  10909  11098  11845  12036  12192  12348  12566  12806  13192
1FUNC     (FUNC2193) (12:45) (15MAR04) Ordinary Symbol and Literal Cross Reference                                          Page  285
                                                 13531  14198  14774  15287  15665  16256  16721  17291  17955  18722
                                                 19320  20006  21143  22490  22732  23032  23323  24054  24339  24624
                                                 24893  25129  25972  26955  27519  29091  29700  32590  32845  33209
                                                 33560  33787  34343  34636  34794  35130  35422  35778  36126  36445
                                                 36764  37077  37651  37652  38142  38308  38458  38618  38959  39253
                                                 39479  39650  39950  40226  40468  40857  41172  41678  42119  42578
                                                 42954  43413  43887  44493  44952  45459  46088  46311  46950  46951
                                                 47448  47745  48023  48219  48567  49196  49435  50153  50491  50936
                                                 51352  51762  51978  52581  52828  53195  53700  53959  54292  54619
                                                 54762  55022  55682  55853  56063  56767  58467  59907
 ARG2          1 00000150 00000001 A   U   10354 10554  11103  12038  12194  12350  12568  12812  13536  14204  14828
                                                 15746  16330  21352  22786  23035  23372  25852  27582  29094  29738
                                                 32852  33301  33552  33876  34377  34813  35797  36145  36464  36783
                                                 37713  37714  38709  40472  41266  41759  42184  42643  43019  43478
                                                 44558  45017  45540  46317  47016  47017  48306  49745  50494  51764
                                                 52048  53703  53962  54295  56148  56805  58789  59837
 ARG3          1 000002A0 00000001 A   U   10355 10577  12913  13541  23425  32922  34024  34369  37428  41388  45148
                                                 46414  46727  50069  50562  52082  58586
 ARG4          1 000003F0 00000001 A   U   10356 52112  58642
 ARG5          1 00000540 00000001 A   U   10357 58663
 ARG6          1 00000690 00000001 A   U   10358 58703
 ARG7          1 000007E0 00000001 A   U   10359 58745
 ASABBREV      2 00000000 FFFFFFBB        58351 59399
 ASARRAY       4 00000014 FFFFFFBB     F   58364 58468M 59315
 ASCASEIN      1 00000000 FFFFFFBB        58356 58821  59480
 ASCMPC        2 00009CA8 00000001     H   59250 59658
 ASCTBL        1 00000000 00000000 A   T    2416  2416
 ASFLAG        1 00000000 FFFFFFBB     R   58320 58321  58326  58331  58336  58341  58346  58351  58356  58644M
 ASFOUND       2 00009C80 00000001     H   59159 58920B 59003B 59090B 59151B
 ASLINEAR      4 00000000 FFFFFFBB        58346 58876
 ASMAX         4 00000008 FFFFFFBB     F   58361 58500M 58612  58619M 58887  58973  59068
 ASMIN         4 00000004 FFFFFFBB     F   58360 58680M 59024
 ASNOTFND      2 00009C7E 00000001     H   59155 58970B 59017B
 ASPOS         4 0000000C FFFFFFBB     F   58362 58722M 59423  59424
 ASRCHL        4 00009C0A 00000001     I   58972 58879B
 ASRCHS        2 00009C2E 00000001     H   59021 58861B
 ASSIZ         4 00000010 FFFFFFBB     F   58363 58568M 58762M 59436  59443
 ASSTEM        8 00000000 FFFFFFBB        58341 58858  59326  59522
 ASSTRING    256 0000001C FFFFFFBB     C   58366 58804M 58836M 59384
 ASSTRLEN      4 00000018 FFFFFFBB     F   58365 58792M 59385
 ASWA        284 00000000 FFFFFFBB     J   58373 58395  58424U 58434M 58434  58435M 58435  59233  59235  59236  59263
                                                 59291U 59637  59639  59640
 BADARG        2 0000039A 00000001     H    9378  9348   9374  12663  17133  22211  23935  29344  33097  34538  36031
                                                 39382  39869  45962  51199  52714  54897  58244  59650  60212
 BLTBL         1 00000000 00000000 A   T    2418  2418
 BR            7 00000007 00000001 A   #    1244  8290M  8392M  8570M  9173M  9392M 10408M 10494M 10871M 11029M 11798M
                                                 11989M 12145M 12301M 12519M 12737M 13144M 13463M 14052M 14147M 14390M
                                                 14485M 14580M 14699M 15013M 15108M 15227M 15582M 16173M 16665M 17204M
                                                 17800M 17868M 18558M 18658M 19161M 19255M 19800M 19933M 20803M 20968M
                                                 21074M 22001M 22067M 22134M 22252M 22347M 22443M 22657M 22976M 23264M
                                                 24006M 24291M 24576M 24845M 25081M 25753M 26500M 26561M 26628M 26689M
                                                 26755M 26904M 27317M 28309M 28375M 28441M 28507M 28573M 28640M 28706M
                                                 28773M 28839M 28905M 28967M 29044M 29452M 30691M 30761M 30834M 30900M
                                                 30966M 31032M 31099M 31165M 31231M 31298M 31365M 31431M 31498M 31564M
                                                 31630M 31697M 31764M 31830M 31896M 31962M 32028M 32094M 32156M 32217M
                                                 32283M 32369M 32443M 32540M 32699M 32794M 33155M 33481M 33733M 34294M
                                                 34586M 34743M 35062M 35318M 35727M 36075M 36394M 36713M 37030M 37220M
                                                 37350M 38074M 38240M 38408M 38571M 38910M 39206M 39440M 39611M 39784M
                                                 39903M 40093M 40188M 40405M 40789M 41099M 41609M 42050M 42509M 42885M
1FUNC     (FUNC2193) (12:45) (15MAR04) Ordinary Symbol and Literal Cross Reference                                          Page  286
                                                 43344M 43803M 44282M 44348M 44424M 44883M 45390M 45852M 46037M 46242M
                                                 46649M 47386M 47690M 47980M 48172M 48518M 49051M 49149M 49301M 49397M
                                                 49647M 50444M 50774M 50889M 51305M 51715M 51917M 52439M 52534M 52772M
                                                 53100M 53644M 53902M 54235M 54569M 54724M 54966M 55264M 55360M 55455M
                                                 55550M 55643M 55814M 55987M 56348M 56443M 56587M 57853M 57919M 57985M
                                                 58051M 58117M 58183M 58398M 59697M
 BSINFO       32 00000000 FFFFFFE5     J    7187  8313
 BSINIT        1 00000000 00000003     T    9338  9338
 CENLEADL      2 00000002 FFFFFFDB     H   12698 12890M 13030  13044
 CENPAD        1 00000000 FFFFFFDB     C   12697 12774M 12987M 13035  13041
 CENREML       2 00000004 FFFFFFDB     H   12699 12892M 13040  13045
 CENWA         8 00000000 FFFFFFDB     J   12707 12734  12763U 12773M 12773  13089  13091  13092
 CHECKIOB      1 00000000 00000000 A   T    2464  2464
 CHECKLN       1 00000000 00000040     T   36032 36032
 CHKACCT       1 00000000 00000011     T   17137 17137
 CHKRADDR      1 00000000 00000047     T   39398 39398  51210
 CHMATLEN      4 0000000C FFFFFFD9     F   13426 13540M 13564  13568  13601  13793
 CHMATLOC      4 00000008 FFFFFFD9     F   13425 13539M 13559
 CHMAXOUT      4 00000320 FFFFFFD9     F   13432 13555M 13806  13813  13895  13902
 CHOUTSTR    768 00000020 FFFFFFD9     C   13431 13553  13561  13907
 CHSTRLEN      4 00000004 FFFFFFD9     F   13424 13535M 13563  13586  13608  13852
 CHSTRLOC      4 00000000 FFFFFFD9     F   13423 13534M 13558  13562  13607  13851
 CHSUBLEN      4 00000014 FFFFFFD9     F   13428 13545M 13754  13794
 CHSUBLOC      4 00000010 FFFFFFD9     F   13427 13544M 13560
 COMMAND       1 00000000 00000000 A   T    2404  2404
 COMMSEG       1 00000000 00000000 A   T    2405  2405
 CP         4096 00000000 FFFFFFEC     J    6418  1393U
 CP#HOSTI      1 00000012 FFFFFFEC A   U    4171 26190  27080
 CP#XSTK       1 00000010 FFFFFFEC A   U    4150  4151
 CPACFLG       1 000005D5 FFFFFFEC     R    4253  4257   4262   4267   4272   4277
 CPACFLN       4 000005C4 FFFFFFEC     F    4245  4280   4280
 CPAFLAG       1 000005C3 FFFFFFEC     R    4217  4221   4226   4231   4236
 CPANAME       8 00000588 FFFFFFEC     C    4199  4295   4295
 CPAUTFLG      1 000008A9 FFFFFFEC     R    4563  4567   4572   4577   4582
 CPCHFLAG      1 00000B68 FFFFFFEC     R    5190  5194
 CPDATA       32 00000504 FFFFFFEC     X    4133 40892  41207  41713  42154  42613  42989  43448  43962  44528  44987
                                                 45494
 CPDATANL      1 00000020 FFFFFFEC A   U    4134 40745  40749
 CPDFLG        1 0000084C FFFFFFEC     R    4450  4454   4459   4464   4469   4474
 CPDFLG2       1 0000084D FFFFFFEC     R    4479  4483   4488   4493   4498   4503   4508
 CPDOUB        8 00000C88 FFFFFFEC     D    5436 35618
 CPERRID       8 00000886 FFFFFFEC     C    4549  9579M 11304M 21486  21509  21536  21565  21579  21607  21621  21635
                                                 21663  21677
 CPEXFLG       1 00000758 FFFFFFEC     R    4319  4323
 CPEXFLG2      1 00000759 FFFFFFEC     R    4329  4338   4348
 CPEXFLG3      1 0000075A FFFFFFEC     R    4355  4359   4364
 CPEXTFLG      1 00000E28 FFFFFFEC     R    6001  6005   6010   6015   6020   6025   6030
 CPFABORT    128 00000D5A FFFFFFEC         5767  2368M  2368   2373M  2373
 CPFBUFIO      2 00000C7C FFFFFFEC         5385 31191M 31258M
 CPFCASE      32 00000D57 FFFFFFEC         5707 29516  29564M 30184M 30211M 30717M 30787M
 CPFCLEAN    128 00000C7B FFFFFFEC         5320 28533M 30992M
 CPFDATTN      2 00000C7D FFFFFFEC         5425 31590M 31657M
 CPFDSNBD      8 00000D5C FFFFFFEC         5822 17336  17403  17425  18000  18067  18089  19368  19435  19457
 CPFDSNNE     16 00000D5C FFFFFFEC         5817 17276M 17940M 18707M 19305M 19991M 20183M 21180M 21316M
 CPFERROR     64 00000D5A FFFFFFEC         5772  2367M  2367   2372M  2372
 CPFFORCE      4 00000C7C FFFFFFEC         5380 28865M 32054M
 CPFINFOP      4 00000E54 FFFFFFEC     A    6049 18840  20124  21267
 CPFNECHO     64 00000C7B FFFFFFEC         5325 28600M 28666M 31059M 31125M
 CPFNLF        4 00000C7D FFFFFFEC         5420 31724M 31790M
1FUNC     (FUNC2193) (12:45) (15MAR04) Ordinary Symbol and Literal Cross Reference                                          Page  287
 CPFNMOD      16 00000C7C FFFFFFEC         5370 27381M 31922M
 CPFNSTAR     16 00000C7D FFFFFFEC         5410 31458M 31524M
 CPFNTEX       1 00000040 FFFFFFEC A   U    5619  5620
 CPFNTYPE     64 00000C7C FFFFFFEC         5360 28733M 28799M 31325M 31391M
 CPFRDRNG      1 00000D88 FFFFFFEC     R    5887  5891   5896   5901   5906   5911   5916   5921
 CPFRDSRC      1 00000D89 FFFFFFEC     R    5926  5935   5945   5955
 CPFRUND      32 00000C7C FFFFFFEC         5365 27391M 32309M
 CPFSLOW      32 00000C7B FFFFFFEC         5330 32243M
 CPFTINT      32 00000C7D FFFFFFEC         5405 28467M 30926M
 CPFTRAN     128 00000C7C FFFFFFEC         5355 27377M 31856M
 CPFUFMT       8 00000C7C FFFFFFEC         5375 27385M 31988M
 CPFUNUM       1 00000080 FFFFFFEC A   U    5618  5620
 CPFUPPER     16 00000D57 FFFFFFEC         5712 29542  29571M 30189M 30237M 30721M 30794M
 CPFXDFLG      1 000007E4 FFFFFFEC     R    4397  4401   4406
 CPFZAPIF     64 00000D5C FFFFFFEC         5807 27411  29592  56659
 CPGFLG1       1 00000474 FFFFFFEC     R    3760  3764   3769   3774   3779   3784   4114   4114
 CPGFLG10      1 0000047D FFFFFFEC     R    3997  4001   4006   4011   4016   4021   4026
 CPGFLG11      1 0000047E FFFFFFEC     R    4032  4036   4041
 CPGFLG12      1 0000047F FFFFFFEC     R    4047  4051   4056   4061
 CPGFLG13      1 00000480 FFFFFFEC     R    4067  4071
 CPGFLG14      1 00000481 FFFFFFEC     R    4077  4081   4086   4091   4096   4101
 CPGFLG4       1 00000477 FFFFFFEC     R    3813  3824   3833   3842   3851   3860
 CPGFLG5       1 00000478 FFFFFFEC     R    3866  3870   3875   3880   3885   3890   3895   3900   3905
 CPGFLG6       1 00000479 FFFFFFEC     R    3911  3915   3920   3925
 CPGFLG7       1 0000047A FFFFFFEC     R    3931  3935   3940   3945   3950
 CPGFLG8       1 0000047B FFFFFFEC     R    3956  3960   3965   3970   3975
 CPGFLG9       1 0000047C FFFFFFEC     R    3981  3985   3991
 CPHOST       32 000001BD FFFFFFEC     C    2940 25893  25898  27009  27014
 CPINIT        1 00000174 FFFFFFEC     U    2930  6387
 CPJESFLG      1 000009E1 FFFFFFEC     R    4662  4666   4671   4676   4681   4686   4691   4696   4701
 CPJESFLY      1 000009FD FFFFFFEC     R    4712  4716   4721   4726
 CPJESHFL      1 000009E0 FFFFFFEC     R    4647  4651   4656   4735   4735
 CPLFLG10      1 00000D59 FFFFFFEC     R    5753  5757
 CPLFLG11      1 00000D5A FFFFFFEC     R    5763  5767   5772   5777   5782
 CPLFLG12      1 00000D5B FFFFFFEC     R    5788  5792
 CPLFLG14      1 00000D5C FFFFFFEC     R    5798  5802   5807   5812   5817   5822
 CPLFLG6       1 00000D55 FFFFFFEC     R    5628  5632   5637   5642   5647   5652   5657
 CPLFLG7       1 00000D56 FFFFFFEC     R    5663  5667   5672   5677   5682   5687
 CPLFLG8       1 00000D57 FFFFFFEC     R    5693  5697   5702   5707   5712
 CPLFLG9       1 00000D58 FFFFFFEC     R    5718  5722   5727   5732   5737   5742   5747
 CPLOCALZ      1 00000C48 FFFFFFEC     U    5220  6381   6381
 CPMDAD        4 00000DAC FFFFFFEC     F    5967 20881M
 CPMDLN        4 00000DA8 FFFFFFEC     F    5966 20847M 20847  20880M
 CPMFLG        1 0000084F FFFFFFEC     R    4517  4521
 CPMODFLG      1 00000C78 FFFFFFEC     R    5248  5252   5257   5262   5267   5272
 CPNAMELN      1 00000010 FFFFFFEC A   U    4143  4390
 CPNEDPFX     10 00000E29 FFFFFFEC     X    6034  6035   6036
 CPNSCANP      4 0000008C FFFFFFEC     A    2803 17227  17308  17347  17354  17370  17723  17891  17972  18011  18018
                                                 18034  18481  18681  18739  18775  18788  18795  18811  18889  19084
                                                 19278  19337  19379  19386  19402  19723  19965  20023  20059  20072
                                                 20079  20095  20749  21106  21160  21202  21215  21222  21238  21369
                                                 21386  21393  21409  21872  25968  25989  25998  26005  26021  26030
                                                 27367  27599  27608  27615  27631  28088  29502  29755  29764  29771
                                                 29787  30245  43852  43905  43914  43921  43937  44200  47418  47466
                                                 47475  47482  47497  47532  47633  47722  47763  47772  47779  47794
                                                 47925  53132  53585  56637  56822  56831  56838  56854  57707  59729
                                                 60170
 CPNUMFLG      1 00000C79 FFFFFFEC     R    5278  5290
 CPORVCMD      1 00000140 FFFFFFEC     R    2812  2816   2821   2826   2831   2836   2841   2846   2851   2856   2856
1FUNC     (FUNC2193) (12:45) (15MAR04) Ordinary Symbol and Literal Cross Reference                                          Page  288
                                                  2907   2907
 CPORVFLG      1 00000149 FFFFFFEC     R    2863  2867   2872   2877   2882   2887   2892   2897   2902
 CPORVWF       1 00000150 FFFFFFEC     R    2915  2919
 CPOSCANX      4 00000CA8 FFFFFFEC     F    5447  5514   5514
 CPR          11 0000000B 00000001 A   #    1308  1393U
 CPRACBAD     16 000001FC FFFFFFEC         2981  3015   3015   3016   3016
 CPRACF1       1 000001FC FFFFFFEC     R    2962  2966   2971   2976   2981   2986   2991   2996   3001   3017
 CPRACPSW     32 000001FC FFFFFFEC         2976  3014   3014   3016   3016
 CPRACUND     64 000001FC FFFFFFEC         2971  3014   3014   3015   3015
 CPRCVCUR      4 00000730 FFFFFFEC     A    4298  4300   4300
 CPRFLG        1 000008AA FFFFFFEC     R    4588  4592   4597   4602   4607   4612   4617
 CPRG64       32 00000544 FFFFFFEC     X    4140 26191  26214  27081  27102
 CPS         254 00000344 FFFFFFEC     X    3732  3735   3736   3738   3738
 CPSACCT       5 000003B4 FFFFFFEC     C    3331  3494   3494
 CPSAMCOD      1 00000A22 FFFFFFEC     R    4784  4792   4802   4812   4821   4830   4839   4849   4858   4867
 CPSAMFLG      1 00000A21 FFFFFFEC     R    4744  4748   4753   4758   4763   4768   4773   4778   4889   4889
 CPSCNFLG      1 00000CD0 FFFFFFEC     R    5460  5471   5480   5491
 CPSCNF2       1 00000CD1 FFFFFFEC     R    5496  5500
 CPSCNMAX      1 00000014 FFFFFFEC A   U    5512  5513
 CPSCRI        2 00000434 FFFFFFEC     H    3721  3726   3726
 CPSEG        60 00000050 FFFFFFEC     X    2801  8623   8651   8669   8711   8739   8757   9085   9466   9488   9510
                                                  9528   9556   9574  10442  11209  11299  11601  12945  14086  14424
                                                 14519  14614  15047  15142  16288  16768  17073  18904  22286  22381
                                                 26795  26813  27677  27695  27723  27724  27724  27728  27748  27756
                                                 27933M 29364  29833  29851  29878  29879  29879  29883  29903  29911
                                                 30024M 32477  32733  32954  33113  33254  33832  33921  33973  35401
                                                 35476  37254  37589  37607  38991  39044  39818  40127  41298  41420
                                                 41791  42216  42675  43051  43510  44590  45049  45572  46446  46888
                                                 46906  48608  48878  49085  49335  49777  50000  50018  50101  50808
                                                 52473  53140  53141  53141  53145  53165  53173  53582M 54002  54055
                                                 54335  54388  54904  55054  55107  55298  55394  55489  55584  56382
                                                 56477  56900  56918  57016  57137  57163  57480  57540  57604  59737
                                                 59738  59738  59742  59762  59770  60167M 60219
 CPSEGCOD      1 00000050 FFFFFFEC     R    2718  2727   2737   2747   2757   2767   2777   2787
 CPSEGLENF
               4 0000005C FFFFFFEC     A    2793  9426M  9426   9441
 CPSEGMRKF
               4 00000058 FFFFFFEC     A    2792  9441
 CPSEGRTN      4 00000074 FFFFFFEC     A    2798 27756M 27756  29911M 29911  53173M 53173  59770M 59770
 CPSFL         1 00000384 FFFFFFEC     R    3069  3073   3078   3083   3088   3093
 CPSFLG        1 000003F8 FFFFFFEC     R    3609  3613   3618   3623   3628   3633   3638   3643   3648
 CPSFLG2       1 000003F9 FFFFFFEC     R    3654  3658   3663   3668
 CPSFL2        1 00000385 FFFFFFEC     R    3099  3103   3108   3113   3118
 CPSFL3        1 00000386 FFFFFFEC     R    3124  3128   3133   3138
 CPSFL4        1 00000387 FFFFFFEC     R    3144  3148   3153   3158
 CPSFL5        1 00000388 FFFFFFEC     R    3164  3168   3173   3178
 CPSFOPR      16 000003BE FFFFFFEC         3439 17261  17261  17925  17925
 CPSFSPR      32 000003BE FFFFFFEC         3434 17261  17261  17262  17925  17925  17926
 CPSGRP        2 000003B7 FFFFFFEC     C    3333 15636  16227
 CPSKAFL       1 000003BF FFFFFFEC     R    3465  3469   3474   3479   3484   3489
 CPSKIFL       1 000003BE FFFFFFEC     R    3420  3424   3429   3434   3439   3444   3449   3454   3459
 CPSOF         1 000001F8 FFFFFFEC     X    2952  2954   2954
 CPSOFLAG      1 00000416 FFFFFFEC     R    3679  3683   3688   3693   3698   3703
 CPSOPST       4 000003C4 FFFFFFEC     F    3499  3728   3728
 CPSPORT       8 00000354 FFFFFFEC     C    3063  3183   3183
 CPSQFLG       1 000003EC FFFFFFEC     R    3528  3532
 CPSSFLG       1 000003BB FFFFFFEC     R    3338  3342   3347   3352   3357   3362   3367
 CPSSTART      4 00000344 FFFFFFEC     F    3055  3059   3059   3495   3495   3600   3600   3732   3732
 CPSSTAT       1 0000038F FFFFFFEC     R    3275  3279   3284   3289   3294   3299   3304   3309
1FUNC     (FUNC2193) (12:45) (15MAR04) Ordinary Symbol and Literal Cross Reference                                          Page  289
 CPSTACF       1 000003BC FFFFFFEC     R    3373  3377   3382   3387   3392   3397   3402   3407   3412
 CPSTART       4 00000000 FFFFFFEC     C    2691  6385   6389
 CPSTFLAG      1 000003EA FFFFFFEC     R    3506  3510   3515   3520
 CPSTYPE       1 0000038C FFFFFFEC     R    3188  3197   3207   3217   3227   3237   3247   3257   3267
 CPSUFLG       1 000003EE FFFFFFEC     R    3543  3547   3552   3557   3562   3567   3572   3577   3582
 CPSUFLG2      1 000003EF FFFFFFEC     R    3588  3592   3597
 CPSUSER       3 000003B4 FFFFFFEC     C    3332 15635  16226
 CPSVPGM       8 0000039C FFFFFFEC     C    3321  3327   3327
 CPS1ST        4 0000038C FFFFFFEC     F    3185  3730   3730
 CPTEMPP#      1 0000005F FFFFFFEC A   U    4638  4640
 CPTRM        14 00000C7A FFFFFFEC     X    5434 27286  27371  28085M 29414  29506  30242M
 CPTRMFL1      1 00000C7A FFFFFFEC     R    5296  5300   5305   5310   5434   5434
 CPTRMFL2      1 00000C7B FFFFFFEC     R    5316  5320   5325   5330   5335   5340   5345
 CPTRMFL3      1 00000C7C FFFFFFEC     R    5351  5355   5360   5365   5370   5375   5380   5385
 CPTRMFL4      1 00000C7D FFFFFFEC     R    5391  5395   5400   5405   5410   5415   5420   5425
 CPTRMIN       2 00000C80 FFFFFFEC     H    5431 27392M 29573M 32177M 32329M
 CPUSED        1 00000FBC FFFFFFEC A   U    6385  6386
 CPVACURS      8 00000AF0 FFFFFFEC     D    5163  5164   5165
 CPVCURS       8 00000AE0 FFFFFFEC     D    5157  5158   5159
 CPVFLAG       1 00000AC8 FFFFFFEC     R    4958  4962   4967   4972   4977   4982
 CPVFLAG2      1 00000AC9 FFFFFFEC     R    4988  4992   4997   5002   5007   5012   5017
 CPVFLAG3      1 00000ACA FFFFFFEC     R    5023  5027   5032   5037   5042   5047   5052
 CPVFLAG4      1 00000ACB FFFFFFEC     R    5058  5062   5067   5072
 CPVLFLAG      1 00000ACE FFFFFFEC     R    5127  5131   5136   5141
 CPVMODE       1 00000ACC FFFFFFEC     R    5080  5084   5089   5094   5099   5104   5109   5114   5119
 CPVTWID       2 00000AD0 FFFFFFEC     H    5147  5150   5150
 CPWK1         4 00000D60 FFFFFFEC     F    5831  5846   5869
 CPWK2         4 00000D64 FFFFFFEC     F    5832  5847   5861
 CPWK3         4 00000D68 FFFFFFEC     F    5833  5848   5862
 CPWK4         4 00000D6C FFFFFFEC     F    5834  5849   5863
 CPWK5         4 00000D70 FFFFFFEC     F    5835  5851   5856   5864
 CPWK6         4 00000D74 FFFFFFEC     F    5836  5852   5857   5865   5872   5874
 CPWK7         4 00000D78 FFFFFFEC     F    5837  5850   5866
 CPXFLAG       1 000007FD FFFFFFEC     R    4425  4429
 CPXSTATE      4 000007F8 FFFFFFEC     F    4419  4432   4432
 CV         4016 00000000 FFFFFFEE     J    2594  1402U
 CVABORT       4 000007DA FFFFFFEE     I    2373 28040B 30131B
 CVABSRTN      4 0000088C FFFFFFEE     V    2408  2383
 CVASCTBL      4 000008B0 FFFFFFEE     V    2416 11911
 CVBLANKS    235 000004D8 FFFFFFEE     C    2188 15257  15338  15668  20462  25800  26952  41321  41443  41814  42239
                                                 42698  43074  43533  44613  45072  45595  50983  51399
 CVBRMSK       1 00000751 FFFFFFEE     X    2324  2325   2326
 CVCFLAG       1 00000A00 FFFFFFEE     R    2489  2493   2498   2503   2508   2513
 CVCHKST       8 000009F0 FFFFFFEE     D    2479  2569   2569
 CVCHKST2      8 00000E28 FFFFFFEE     D    2572  2575   2575
 CVCOMRTN      4 0000087C FFFFFFEE     V    2404  2374
 CVCURJCB      4 000001C8 FFFFFFEE     A    1673 27975  30066  57326
 CVDATA       32 00000340 FFFFFFEE     X    1808 40909  41224  41730  42171  42630  43006  43465  43979  44545  45004
                                                 45511
 CVDBGFLG      1 000004CC FFFFFFEE     R    2178  2182
 CVEBCTBL      4 000008B4 FFFFFFEE     V    2417 22556  27825  52945
 CVENT         4 0000074C FFFFFFEE     I    2322  8290B  8392B  8570B  9173B  9392B 10408B 10494B 10871B 11029B 11798B
                                                 11989B 12145B 12301B 12519B 12737B 13144B 13463B 14052B 14147B 14390B
                                                 14485B 14580B 14699B 15013B 15108B 15227B 15582B 16173B 16665B 17204B
                                                 17800B 17868B 18558B 18658B 19161B 19255B 19800B 19933B 20803B 20968B
                                                 21074B 22001B 22067B 22134B 22252B 22347B 22443B 22657B 22976B 23264B
                                                 24006B 24291B 24576B 24845B 25081B 25753B 26500B 26561B 26628B 26689B
                                                 26755B 26904B 27317B 28309B 28375B 28441B 28507B 28573B 28640B 28706B
                                                 28773B 28839B 28905B 28967B 29044B 29452B 30691B 30761B 30834B 30900B
1FUNC     (FUNC2193) (12:45) (15MAR04) Ordinary Symbol and Literal Cross Reference                                          Page  290
                                                 30966B 31032B 31099B 31165B 31231B 31298B 31365B 31431B 31498B 31564B
                                                 31630B 31697B 31764B 31830B 31896B 31962B 32028B 32094B 32156B 32217B
                                                 32283B 32369B 32443B 32540B 32699B 32794B 33155B 33481B 33733B 34294B
                                                 34586B 34743B 35062B 35318B 35727B 36075B 36394B 36713B 37030B 37220B
                                                 37350B 38074B 38240B 38408B 38571B 38910B 39206B 39440B 39611B 39784B
                                                 39903B 40093B 40188B 40405B 40789B 41099B 41609B 42050B 42509B 42885B
                                                 43344B 43803B 44282B 44348B 44424B 44883B 45390B 45852B 46037B 46242B
                                                 46649B 47386B 47690B 47980B 48172B 48518B 49051B 49149B 49301B 49397B
                                                 49647B 50444B 50774B 50889B 51305B 51715B 51917B 52439B 52534B 52772B
                                                 53100B 53644B 53902B 54235B 54569B 54724B 54966B 55264B 55360B 55455B
                                                 55550B 55643B 55814B 55987B 56348B 56443B 56587B 57853B 57919B 57985B
                                                 58051B 58117B 58183B 58398B 59697B
 CVENTBR       2 00000750 FFFFFFEE     I    2323  2324
 CVERROR       4 000007D6 FFFFFFEE     I    2372  2388B
 CVEXIRTN      4 0000077C FFFFFFEE     V    2352  2348
 CVEXNO        1 00000000 00000042     T   36037 36037
 CVFBINFO      4 00000264 FFFFFFEE     A    1738  8318M  8321   8418
 CVFCHRKBPR
               8 000004C9 FFFFFFEE         2093  2109   2109
 CVFCHRKBSE
               4 000004C9 FFFFFFEE         2098  2109   2109
 CVFCHRKCPR
               2 000004C9 FFFFFFEE         2115  2131   2131
 CVFCHRKCSE
               1 000004C9 FFFFFFEE         2120  2131   2131
 CVFCHRUBPR
             128 000004C9 FFFFFFEE         2049  2065   2065
 CVFCHRUBSE
              64 000004C9 FFFFFFEE         2054  2065   2065
 CVFCHRUCPR
              32 000004C9 FFFFFFEE         2071  2087   2087
 CVFCHRUCSE
              16 000004C9 FFFFFFEE         2076  2087   2087
 CVFL          1 000004C4 FFFFFFEE     R    1845  1849   1854   1859   1864   1869   1874   1879   1884
 CVFL2         1 000004C5 FFFFFFEE     R    1890  1894   1899   1904   1909   1914   1919   1924   1929
 CVFL3         1 000004C6 FFFFFFEE     R    1935  1939   1944   1949   1954   1959   1964   1969   1974
 CVFL4         1 000004C7 FFFFFFEE     R    1980  1984   1989   1994   1999   2004   2009   2014
 CVFL5         1 000004C8 FFFFFFEE     R    2020  2024   2029   2034   2039
 CVFL6         1 000004C9 FFFFFFEE     R    2045  2049   2054   2066   2071   2076   2088   2093   2098   2110   2115
                                                  2120   2132
 CVHEAP#       1 00000200 FFFFFFEE A   U    1751  1752
 CVINVRTN      4 00000888 FFFFFFEE     V    2407  2377
 CVJESFLG      1 000004CA FFFFFFEE     R    2138  2142
 CVLNKRGS      4 00000780 FFFFFFEE     F    2354  2329M  2355  20856M
 CVLNKRTN      4 000007B0 FFFFFFEE     U    2355  2344M
 CVLOCK1       1 00000088 FFFFFFEE     R    1496  1500   1505
 CVLOCK2       1 00000089 FFFFFFEE     R    1510  1514
 CVLOCK3       1 0000008A FFFFFFEE     R    1519  1523
 CVLOCK4       1 0000008B FFFFFFEE     R    1528  1532
 CVLOGMOD      1 00000068 FFFFFFEE     R    1483  1487
 CVLOWTBL      4 000008AC FFFFFFEE     V    2415 37143  37826  47135
 CVMACH        1 00000067 FFFFFFEE     R    1443  1447   1452   1457   1462   1467   1472   1477
 CVMAXLNO      4 0000015C FFFFFFEE     A    1637 33235  33813  33902  35382  35457
 CVMILRTN      4 00000884 FFFFFFEE     V    2406  2386
 CVNOARTN      4 00000890 FFFFFFEE     V    2409  2380
 CVNPRTBL      4 000008A4 FFFFFFEE     V    2413 39319
 CVNWDATE      4 00000608 FFFFFFEE     F    2211  2215   2215
 CVNWMPG#      1 00000008 FFFFFFEE A   U    2213  2214
 CVONE         4 000004D0 FFFFFFEE     F    2186 44015
1FUNC     (FUNC2193) (12:45) (15MAR04) Ordinary Symbol and Literal Cross Reference                                          Page  291
 CVPARTBL      4 000008A0 FFFFFFEE     V    2412 40016
 CVPFXRTN      1 00000000 00000000 A   T    2352  2352
 CVPGFLAG      1 00000A01 FFFFFFEE     R    2519  2523   2528   2533
 CVPIOSZ       1 00004F80 FFFFFFEE A   U    1582  1584
 CVPPDBQH      4 0000009C FFFFFFEE     A    1540  1541
 CVPSFNO       1 000003E9 FFFFFFEE A   N    1704  1706
 CVPSLNO       1 000007CF FFFFFFEE A   N    1705  1706
 CVPXSZ        1 00000008 FFFFFFEE A   U    1583  1584
 CVR          12 0000000C 00000001 A   #    1321  1402U
 CVRKEY        1 00000008 FFFFFFEE A   U    2277  2278
 CVSEGRTN      4 00000880 FFFFFFEE     V    2405  2369
 CVSTACK#      1 00000080 FFFFFFEE A   U    1743  1744
 CVSTART       4 00000000 FFFFFFEE     C    1416  2587
 CVTRC         4 00000768 FFFFFFEE     I    2344  2330B 20857B
 CVTRCRTN      4 00000778 FFFFFFEE     V    2351  2345
 CVUPPTBL      4 000008A8 FFFFFFEE     V    2414 11117  15339  15708  15858  16468  25961  27077  51023  51439  52002
                                                 52647  52911  58827  59486
 CVUSFNO       1 00000001 FFFFFFEE A   N    1711  1713
 CVUSLNO       1 000003E7 FFFFFFEE A   N    1712  1713
 CVVOL#        1 00000005 FFFFFFEE A   U    2562  2563
 CVWTOFLG      1 000004CB FFFFFFEE     R    2148  2152   2157   2162   2167   2172
 DCHECKWA      8 00000000 FFFFFFD7     J   15203 15224  15253U 15523  15525  15526
 DDEQ          1 00000000 0000001C     T   18613 18613
 DEBUGSG       1 00000000 00000000 A   T    2305  2305
 DECARGP       4 00000000 FFFFFFD8     F   14659 14756M 14775  14829
 DECNARG       4 00000004 FFFFFFD8     F   14660 14755M 14822
 DECRYPT       1 00000000 00000012     T   17143 17143
 DECRYWA     264 00000000 FFFFFFD8     J   14669 14696  14725U 14735M 14735  14736M 14736  14982  14984  14985
 DECTEXT     256 00000008 FFFFFFD8     C   14662 14785  14858
 DELRANGE      1 00000000 0000003D     T   34545 34545
 DENQ          1 00000000 0000001D     T   18616 18616
 DESTCHK       1 00000000 00000013     T   17146 17146
 DESTNAME      8 00000000 FFFFFFD7     C   15196 15257M 15338M 15351M 15367M 15377  15378
 DEV          12 00000000 FFFFFFEB     J    4943  4951
 DEVMAX#       1 00000002 FFFFFFEC A   U    4894  4951
 DEVTYPE       1 00000001 FFFFFFEB     R    4911  4920   4930
 DODSNM        1 00000000 00000019     T   18609 18609  19851
 DOTTBL        1 00000000 00000000 A   T    2421  2421
 DPASARGP      4 000001FC FFFFFFD6     F   15550 15639M 15666  15747
 DPASKEY       8 00000200 FFFFFFD6     C   15551 15668M 15700M 15717M 15849M 15849  15910  15963M 15963  17149
 DPASKWR     504 00000000 FFFFFFD6     X   15547 15613
 DPASNARG      4 000001F8 FFFFFFD6     F   15549 15638M 15740
 DPASSWA     520 00000000 FFFFFFD6     J   15558 15579  15608U 16113  16115  16116
 DPPARGP       4 000001FC FFFFFFD5     F   16142 16230M 16257  16331
 DPPKWR      504 00000000 FFFFFFD5     X   16139 16204
 DPPNARG       4 000001F8 FFFFFFD5     F   16141 16229M 16324
 DPPWA       512 00000000 FFFFFFD5     J   16149 16170  16199U 16610  16612  16613
 DRENCFLG      1 00000F9F FFFFFFEC     R    6349  6353   6358   6363   6368   6373
 DRENPROT      1 00000F9E FFFFFFEC     R    6336  6344
 DSNCATTP      1 00000000 FFFFFFDF     C    8008  8081
 DSNERRCD      1 00000051 FFFFFFDF     C    8037 20435
 DSNFIN        1 00000000 0000001B     T   18612 18612  19854
 DSNFLSQ       4 00000036 FFFFFFDF     C    8027  8028
 DSNINFO     235 00000000 FFFFFFDF     J    8089 20419U 20461  20462
 DSNON        40 00000E90 FFFFFFEC     C    6069  6070
 DSNPSH        1 00000000 00000017     T   17764 17764  18522  19764
 DSNRC##       1 0000001F FFFFFFDF A   U    8081  8082
 DSNVPRT       4 00003118 00000001     F   21939 22210
 DSNWADSN     44 00000E5C FFFFFFEC     C    6056  6057   6058   6059   6068   6076   6307   6313   6315   6321   6324
1FUNC     (FUNC2193) (12:45) (15MAR04) Ordinary Symbol and Literal Cross Reference                                          Page  292
                                                  6326   6329   6378
 DSNWAF4       1 00000F37 FFFFFFEC     R    6124  6128   6133   6138   6143   6148   6153   6158   6163
 DSNWAF5       1 00000F38 FFFFFFEC     R    6169  6173   6178   6183   6188   6193   6198   6203   6208
 DSNWAF6       1 00000F39 FFFFFFEC     R    6214  6218   6223   6228   6233   6238   6243   6248   6253
 DSNWAF7       1 00000F3A FFFFFFEC     R    6259  6263   6268   6273   6278
 DSNXG         1 00000004 FFFFFFEC A   U    6061  6063
 DSNXGL        1 00000003 FFFFFFEC A   U    6062  6063
 DSNXU         1 00000007 FFFFFFEC A   U    6063  6065
 DSNXUL        1 00000004 FFFFFFEC A   U    6064  6065
 DSPDSNIN      1 00000000 00000028     T   21028 21028
 DSSIZ         1 00000108 FFFFFFEC A   U    6307  6315   6324   6329
 EBCTBL        1 00000000 00000000 A   T    2417  2417
 EBCTBL7       1 00000000 00000000 A   T    2420  2420
 ECBLIST       1 00000000 00000000 A   T    2280  2280
 ENCARGP       4 00000000 FFFFFFD2     F   22617 22714M 22733  22787
 ENCNARG       4 00000004 FFFFFFD2     F   22618 22713M 22780
 ENCRYPT       1 00000000 0000002D     T   23939 23939
 ENCRYWA     264 00000000 FFFFFFD2     J   22627 22654  22683U 22693M 22693  22694M 22694  22940  22942  22943
 ENCTEXT     256 00000008 FFFFFFD2     C   22620 22743  22816
 EPARTBL       1 00000000 00000000 A   T    2412  2412
 FEALBLKD      1 00000000 0000005F     T   54899 54899
 FEALBLKE      1 00000000 00000060     T   54900 54900
 FFFREAD       1 00000001 FFFFFFE0         7847 21288M 22027M
 FFFWINGS      1 00000000 FFFFFFE0         7793 18859  20136  21282M
 FFFWRITE      2 00000001 FFFFFFE0         7857 22093M
 FFINFO      928 00000000 FFFFFFE0     J    7985 18848U 21275U
 FFMISC        1 00000002 FFFFFFE0     R    7882  7886   7891   7896   7901   7906
 FFPTYPE       1 00000003 FFFFFFE0     R    7911  7920   7930   7940   7950   7960
 FFRNAME     128 00000218 FFFFFFE0     C    7974 18970  20202  20235
 FFRNAMEL      4 00000214 FFFFFFE0     F    7973 18941  20201
 FFRQTYPE      1 00000001 FFFFFFE0     R    7838  7847   7857   7867   7877
 FFTYPE        1 00000000 FFFFFFE0     R    7784  7793   7803   7813   7823   7833
 FMTAREA      66 00000050 FFFFFFD1     C   23233 23567  23806
 FMTARG1      66 00000008 FFFFFFD1     C   23231 23357M 23487  23488  23562  23568
 FMTARG1L      4 0000004C FFFFFFD1     F   23232 23330M 23489
 FMTARG2       4 00000000 FFFFFFD1     F   23229 23374M 23569  23582
 FMTARG3       4 00000004 FFFFFFD1     F   23230 23427M 23688  23694M 23711  23737
 FMTCLCK       1 00000000 00000059     T   51657 51657
 FMTTIME       1 00000000 0000005A     T   52709 52709
 FMTWA       146 00000000 FFFFFFD1     J   23240 23261  23290U 23919  23921  23922
 FMTXDATE      1 00000000 00000031     T   25674 25674
 FNABBREV      2 00000F46 00000001     H   10480  9644
 FNABS         2 00001010 00000001     H   10857  9649
 FNACCTNF      2 00001062 00000001     H   11013  9654
 FNAMEFIN      1 00000000 00000020     T   19214 19214  21022  22207
 FNAMESCN      1 00000000 0000001F     T   19211 19211  21019  22204
 FNAMPSH       1 00000000 0000001E     T   19125 19125  20932  21918
 FNASCII       2 00001266 00000001     H   11784  9664
 FNASRCH       2 00009A96 00000001     H   58382  9659
 FNBITAND      2 000012CA 00000001     H   11975  9674
 FNBITOR       2 0000132C 00000001     H   12131  9679
 FNBITTST      2 0000138E 00000001     H   12287  9669   9684
 FNBITXOR      2 00001404 00000001     H   12505  9689
 FNBOUNDS      2 00009DD0 00000001     H   59681  9694
 FNCAACCT      5 00000000 FFFFFFDA     C   13111 13223  13261  13263
 FNCADATA    256 00000005 FFFFFFDA     C   13112 13261M 13262M 13263M 13272
 FNCAWA      261 00000000 FFFFFFDA     J   13119 13141  13170U 13398  13400  13401
 FNCENTER      2 00001562 00000001     H   12721  9699   9704
 FNCHKACC      2 0000166E 00000001     H   13128  9709
1FUNC     (FUNC2193) (12:45) (15MAR04) Ordinary Symbol and Literal Cross Reference                                          Page  293
 FNCHSTR       2 00001700 00000001     H   13447  9714
 FNCHWA      804 00000000 FFFFFFD9     J   13439 13460  13489U 13527M 13527  13528M 13528  13529M 13529  13530M 13530
                                                 14021  14023  14024
 FNCOMP        2 00001890 00000001     H   14038  9719
 FNCOPIES      2 000018D4 00000001     H   14133  9724
 FNC2D         2 00001974 00000001     H   14376  9729
 FNC2X         2 000019B8 00000001     H   14471  9734
 FNDECRYP      2 00001A40 00000001     H   14683  9744
 FNDELSTR      2 00001AEA 00000001     H   14999  9749
 FNDELWRD      2 00001B2E 00000001     H   15094  9754
 FNDEQPRT      4 000022F8 00000001     F   17752 18610
 FNDESTV       2 00001B72 00000001     H   15211  9759  10109
 FNDISPLY      2 00001EC2 00000001     H   16649  9764
 FNDPROT       2 0000284E 00000001     H   19241  9794
 FNDSDONE      2 00001FCA 00000001     H   17089 16923B 16944B
 FNDSIPRT      4 00002D38 00000001     F   20920 21020
 FNDSNDEQ      2 00002178 00000001     H   17190  9769
 FNDSNDQB      2 00002348 00000001     H   17786 17779
 FNDSNDQE      2 000022B4 00000001     H   17640 17339B 17388B 17406B 17428B
 FNDSNDQX      4 000022DC 00000001     I   17723 17553B 17637B 17719B
 FNDSNDQZ      2 0000228C 00000001     H   17558 17265B
 FNDSNENQ      2 00002374 00000001     H   17854  9774
 FNDSNEQB      2 00002574 00000001     H   18544 18537
 FNDSNEQE      2 000024DE 00000001     H   18396 18003B 18052B 18070B 18092B
 FNDSNEQX      2 00002506 00000001     H   18478 18309B 18393B 18475B
 FNDSNEQZ      2 000024B6 00000001     H   18314 17929B
 FNDSNFMB      2 000027E8 00000001     H   19147 19140
 FNDSNFME      2 00002752 00000001     H   19003 18781B 18829B 18862B 18909B
 FNDSNFMT      2 0000262C 00000001     H   18644  9779   9784
 FNDSNFMX      4 0000277A 00000001     I   19084 18998B 19080B
 FNDSNINB      2 00002D88 00000001     H   20954 20947
 FNDSNINE      2 00002C82 00000001     H   20666 20065B 20113B 20139B 20195B
 FNDSNINF      2 00002A7A 00000001     H   19917  9789
 FNDSNINX      4 00002CAA 00000001     I   20749 20661B 20745B
 FNDSNIX       4 00002C58 00000001     I   20560 20281B 20303B 20379B 20403B 20445B
 FNDSNPRB      2 00002A04 00000001     H   19786 19779
 FNDSNPRE      2 00002970 00000001     H   19640 19371B 19420B 19438B 19460B
 FNDSNPRT      4 00002798 00000001     F   19113 19212
 FNDSNPRX      4 00002998 00000001     I   19723 19635B 19719B
 FNDSNVDO      4 00002F9E 00000001     I   21449 21332B
 FNDSNVEB      2 000031E8 00000001     H   22120 21933  21981
 FNDSNVEE      2 00003082 00000001     H   21789 21208B 21256B 21304B 21493B
 FNDSNVER      2 00002E28 00000001     H   21058  9799
 FNDSNVEX      4 000030AA 00000001     I   21872 21441B 21784B 21868B
 FNDSNVRD      2 00003190 00000001     H   21987 21951
 FNDSNVWR      2 000031BC 00000001     H   22053 21966
 FNDSNVX       2 00003062 00000001     H   21697 21470B 21520B 21547B 21589B 21645B 21687B
 FNDSPPRT      4 000029B4 00000001     F   19752 19852
 FNDSTEMP    235 00000000 FFFFFFD4     C   16633 16792  16951
 FNDSVPRT      4 000030C8 00000001     F   21906 22205
 FNDSWA      235 00000000 FFFFFFD4     J   16640 16662  16691U 17109  17111  17112
 FNDTYPE       2 000019FC 00000001     H   14566  9739
 FND2C         2 000032DE 00000001     H   22238  9804
 FND2X         2 00003322 00000001     H   22333  9809
 FNEBCDIC      2 00003366 00000001     H   22429  9814
 FNENCRYP      2 000033CA 00000001     H   22641  9819
 FNENQPRT      4 00002524 00000001     F   18510 18615
 FNFIND        2 00003474 00000001     H   22960  9824
 FNFORMAT      2 0000351E 00000001     H   23248  9829
1FUNC     (FUNC2193) (12:45) (15MAR04) Ordinary Symbol and Literal Cross Reference                                          Page  294
 FNGETACC      2 0000374E 00000001     H   23990  9834
 FNGETGMT      2 00003950 00000001     H   25065  9854
 FNGETID       2 000037E0 00000001     H   24275  9839
 FNGETIDL      2 0000386C 00000001     H   24560  9844
 FNGETIDT      2 000038F2 00000001     H   24829  9849
 FNGIACCT      5 00000000 FFFFFFD0     C   23970 24085  24123  24125  24370  24408  24655  24661
 FNGIDATA    256 00000005 FFFFFFD0     C   23971 24123M 24124M 24125M 24134  24417  24422  24670  24675
 FNGIDWA     261 00000000 FFFFFFD0     J   23978 24003  24032U 24260  24262  24263  24288  24317U 24545  24547  24548
                                                 24573  24602U 24814  24816  24817  24842  24871U 25024  25026  25027
 FNGMTCLK      8 00000000 FFFFFFCF     D   25047 25348  25365  25419  25436
 FNGMTCNV     16 0000000C FFFFFFCF     C   25049 25168M 25168  25246M 25323M 25332  25401
 FNGMTOFF      4 00000008 FFFFFFCF     F   25048 25371M 25388M 25413
 FNGMTWA      60 00000000 FFFFFFCF     J   25057 25078  25107U 25654  25656  25657
 FNGMTXDT     32 0000001C FFFFFFCF     C   25050 25366  25437
 FNGORVC       2 000065AC 00000001     H   39426 10009
 FNGORVI       2 00006612 00000001     H   39597 10014
 FNGWYLC       2 000091D4 00000001     H   55629 10284
 FNGWYLI       2 0000923A 00000001     H   55800 10289
 FNHOSTI       2 00003C20 00000001     H   25737  9859
 FNHOSTU       2 00003FA8 00000001     H   26888  9864
 FNINCHAR      2 0000407A 00000001     H   27301  9869
 FNINDEX       2 0000467C 00000001     H   29030  9874
 FNINPUT       2 00004846 00000001     H   29436  9879
 FNINSERT      2 0000534C 00000001     H   32429  9884
 FNINT         2 00005390 00000001     H   32526  9889
 FNJUST        2 000053EE 00000001     H   32685  9894
 FNLEFT        2 00005432 00000001     H   32780  9904
 FNLINE        2 000055D0 00000001     H   33141  9909
 FNLNAPND      2 00005684 00000001     H   33467  9914
 FNLNCHK       2 000059FC 00000001     H   34729  9934
 FNLNDEL       2 00005706 00000001     H   33719  9919
 FNLNDM        2 00005838 00000001     H   34153 34066B
 FNLNEND       2 00005AAC 00000001     H   35048  9939
 FNLNFLD       2 00005B32 00000001     H   35304  9944
 FNLNFRST      2 00005C0A 00000001     H   35713  9949
 FNLNLAST      2 00005D36 00000001     H   36061  9954
 FNLNNEXT      2 00005DE6 00000001     H   36380  9959
 FNLNO         2 000059A4 00000001     H   34572  9929
 FNLNPREV      2 00005E96 00000001     H   36699  9964
 FNLNPUT       2 00005862 00000001     H   34280  9924
 FNLOWER       2 00005F46 00000001     H   37016  9969
 FNLPOS        2 00005FAA 00000001     H   37206  9899
 FNMATCH       2 00005FEE 00000001     H   37334  9974
 FNMAX         2 0000615C 00000001     H   38060  9979
 FNMIN         2 000061C6 00000001     H   38226  9984
 FNNCONV       2 00006230 00000001     H   38394  9989
 FNNDUMP       2 0000628E 00000001     H   38557  9994
 FNNHEX        2 00006366 00000001     H   38894  9999
 FNNHTEMP      8 00000028 FFFFFFC9     C   38879 39015  39067
 FNNHWA       48 00000000 FFFFFFC9     J   38886 38907  38936U 39167  39169  39170
 FNNOPAR       2 00006434 00000001     H   39192 10004
 FNOLAY        2 00006678 00000001     H   39770 10019
 FNPARITY      2 00006706 00000001     H   39889 10024
 FNPASSP       2 00001D86 00000001     H   16157 10124
 FNPASSV       2 00001C1E 00000001     H   15566 10119
 FNPOS         2 0000676A 00000001     H   40079 10029
 FNPPEXIT      2 00001EB4 00000001     H   16583 16238B 16304B 16460B
 FNPSEXIT      2 00001D78 00000001     H   16086 15647B 15850B
 FNQSTATE      2 000067AE 00000001     H   40174 10034
1FUNC     (FUNC2193) (12:45) (15MAR04) Ordinary Symbol and Literal Cross Reference                                          Page  295
 FNQUERY       2 0000680E 00000001     H   40389 10039
 FNRECCLS      2 000068C4 00000001     H   40773 10044
 FNRECCNT      2 0000697A 00000001     H   41083 10049
 FNRECDEL      2 00006AD0 00000001     H   41593 10054
 FNRECFRK      2 00006BDA 00000001     H   42034 10059
 FNRECGET      2 00006CE2 00000001     H   42493 10064
 FNRECLAK      2 00006DC8 00000001     H   42869 10069
 FNRECNEK      2 00006ED0 00000001     H   43328 10074
 FNRECOPN      2 00006FD8 00000001     H   43787 10079
 FNRECPRK      2 000071F4 00000001     H   44408 10084
 FNRECPUT      2 000072FC 00000001     H   44867 10089
 FNRECTST      2 00007430 00000001     H   45374 10094
 FNREV         2 00007736 00000001     H   46023 10099
 FNRIGHT       2 000077A6 00000001     H   46226 10129
 FNRMATCH      2 00007896 00000001     H   46633 10134
 FNSCANSK      2 00007A10 00000001     H   47370 10139
 FNSCANTK      2 00007B04 00000001     H   47674 10144
 FNSCONV       2 00007BEA 00000001     H   47966 10149
 FNSDUMP       2 00007C4C 00000001     H   48158 10154
 FNSHEX        2 00007D12 00000001     H   48502 10159
 FNSHTEMP    235 00000000 FFFFFFC4     C   48487 48848
 FNSHWA      235 00000000 FFFFFFC4     J   48494 48515  48544U 49013  49015  49016
 FNSIGN        2 00007E4C 00000001     H   49037 10164
 FNSIZE        2 00007E90 00000001     H   49135 10169
 FNSPACE       2 00007EE8 00000001     H   49287 10174
 FNSQUASH      2 00007F2C 00000001     H   49383 10179
 FNSTRIP       2 00007F96 00000001     H   49631 10184
 FNSUBCLK      2 000084EA 00000001     H   51289 10199
 FNSUBSTR      2 00008152 00000001     H   50430 10189  10194
 FNSUBWRD      2 00008220 00000001     H   50760 10204
 FNSYSUP       2 00008268 00000001     H   50873 10209
 FNTODTIM      2 000085CA 00000001     H   51701 10214
 FNTRUNC       2 00008898 00000001     H   52425 10224
 FNUPPER       2 000088DC 00000001     H   52520 10229
 FNURLDCD      2 00008996 00000001     H   52756 10234
 FNURLHEX      2 00000000 FFFFFFBF     C   52741 52910  52910M 52912  52912M 52922  52929
 FNURLWA       2 00000000 FFFFFFBF     J   52748 52769  52798U 53044  53046  53047
 FNVARPRM    336 00000010 FFFFFFBE     X   53061 53222  53238  59921  59937
 FNVARRET     16 00000000 FFFFFFBE     C   53059 53193M 53289M 53310M 53331M 53352M 53414M 53435M 53456M 53511  53516
 FNVARTYP      2 00008A62 00000001     H   53084 10239
 FNVARWA     352 00000000 FFFFFFBE     J   53068 53097  53126U 53608  53610  53611  59694  59723U 60193  60195  60196
 FNVERIFY      2 00008BD2 00000001     H   53628 10244
 FNV8BD        2 00008C78 00000001     H   53886 10104
 FNV8BE        2 00008D46 00000001     H   54219 10114
 FNWA        336 00000000 FFFFFFDD     J   10380 19930  19959U 20772  20774  20775  20800  20829U 20909  20911  20912
                                                 21071  21100U 21895  21897  21898  22973  23002U 23207  23209  23210
                                                 47383  47412U 47656  47658  47659  47687  47716U 47948  47950  47951
                                                 53641  53670U 53869  53871  53872  53899  53928U 54081  54202  54204
                                                 54205  54232  54261U 54415  54536  54538  54539
 FNWCONV       2 00008E16 00000001     H   54555 10249
 FNWCOUNT      2 00008E6E 00000001     H   54710 10254
 FNWHEX        2 00008FF8 00000001     H   54950 10259
 FNWHTEMP      8 00000028 FFFFFFBD     C   54934 55078  55130
 FNWHWA       48 00000000 FFFFFFBD     J   54941 54963  54992U 55226  55228  55229
 FNWORD        2 000090C0 00000001     H   55250 10264
 FNWORDIX      2 00009108 00000001     H   55346 10269
 FNWORDLN      2 0000914C 00000001     H   55441 10274
 FNWORDS       2 00009190 00000001     H   55536 10279
 FNWORK      336 00000000 FFFFFFDD     X   10373 20534M 20598  21029  23052M 23052  23053M 23053  23074M 23108  53714M
1FUNC     (FUNC2193) (12:45) (15MAR04) Ordinary Symbol and Literal Cross Reference                                          Page  296
                                                 53715M 53715  53736M 53770
 FNXLATE       2 0000863C 00000001     H   51901 10219
 FNXRANGE      2 000092A0 00000001     H   55973 10294
 FNX2C         2 00009372 00000001     H   56334 10299
 FNX2D         2 000093B6 00000001     H   56429 10304
 FNYESNO       2 000093FA 00000001     H   56571 10309
 FSR           0 00000000 00000001 A   #    1231  8285   8348M  8387   8503M  8518M  8565   9135M  9168   9320M  9387
                                                  9595M 10403  10463M 10489  10840M 10866  10970M 11023  11759M 11793
                                                 11957M 11984  12113M 12140  12269M 12296  12487M 12514  12643M 12731
                                                 13089M 13138  13398M 13457  14021M 14047  14116M 14142  14359M 14385
                                                 14454M 14480  14549M 14575  14644M 14693  14982M 15008  15077M 15103
                                                 15172M 15221  15523M 15576  16113M 16167  16610M 16659  17109M 17199
                                                 17741M 17795  17836M 17863  18499M 18553  18594M 18653  19102M 19156
                                                 19197M 19250  19741M 19795  19836M 19927  20772M 20797  20909M 20963
                                                 21004M 21068  21895M 21996  22042M 22062  22108M 22129  22170M 22247
                                                 22316M 22342  22411M 22438  22602M 22651  22940M 22970  23207M 23258
                                                 23919M 24000  24260M 24285  24545M 24570  24814M 24839  25024M 25075
                                                 25654M 25747  26395M 26495  26536M 26556  26603M 26623  26664M 26684
                                                 26730M 26750  26844M 26898  27246M 27311  28116M 28304  28350M 28370
                                                 28416M 28436  28482M 28502  28548M 28568  28615M 28635  28681M 28701
                                                 28748M 28768  28814M 28834  28880M 28900  28942M 28962  29003M 29039
                                                 29317M 29446  30273M 30686  30736M 30756  30809M 30829  30875M 30895
                                                 30941M 30961  31007M 31027  31074M 31094  31140M 31160  31206M 31226
                                                 31273M 31293  31340M 31360  31406M 31426  31473M 31493  31539M 31559
                                                 31605M 31625  31672M 31692  31739M 31759  31805M 31825  31871M 31891
                                                 31937M 31957  32003M 32023  32069M 32089  32131M 32151  32192M 32212
                                                 32258M 32278  32344M 32364  32405M 32438  32507M 32535  32668M 32694
                                                 32763M 32789  33075M 33150  33447M 33476  33702M 33728  34260M 34289
                                                 34520M 34581  34710M 34738  35029M 35057  35283M 35313  35694M 35722
                                                 36013M 36070  36361M 36389  36680M 36708  36999M 37025  37189M 37215
                                                 37284M 37344  38043M 38069  38209M 38235  38375M 38403  38536M 38566
                                                 38855M 38904  39167M 39201  39365M 39435  39582M 39606  39753M 39779
                                                 39848M 39898  40062M 40088  40157M 40183  40352M 40399  40715M 40783
                                                 41066M 41093  41576M 41603  42017M 42044  42476M 42503  42852M 42879
                                                 43311M 43338  43770M 43797  44223M 44277  44323M 44343  44384M 44418
                                                 44850M 44877  45357M 45384  45814M 45847  45930M 45945M 46032  46188M
                                                 46236  46583M 46643  47352M 47380  47656M 47684  47948M 47975  48137M
                                                 48167  48464M 48512  49013M 49046  49115M 49144  49270M 49296  49365M
                                                 49392  49580M 49641  50408M 50439  50743M 50769  50839M 50883  51183M
                                                 51299  51640M 51710  51884M 51911  52406M 52434  52503M 52529  52693M
                                                 52766  53044M 53094  53608M 53638  53869M 53896  54202M 54229  54536M
                                                 54564  54693M 54719  54864M 54960  55226M 55259  55329M 55355  55424M
                                                 55450  55519M 55545  55614M 55638  55785M 55809  55956M 55982  56317M
                                                 56343  56412M 56438  56507M 56581  57735M 57848  57894M 57914  57960M
                                                 57980  58026M 58046  58092M 58112  58158M 58178  58219M 58392  59233M
                                                 59260  59637M 59691  60193M
 FUNC2193      1 00000000 00000001     R    1367  1365
 GETACCT       1 00000000 0000002E     T   25669 25669
 GETARRAY      1 00000000 0000005E     T   54891 54891  59661  60216
 GETCORE       1 00000000 00000002     T    9335  9335
 GETCVAR       1 00000000 00000049     T   39865 39865  58249
 GETKWR        1 00000000 00000015     T   17153 17153
 GETLINEX      1 00000000 0000003A     T   34540 34540
 GETQSTAT      1 00000000 0000004A     T   45963 45963
 GETTPAG       2 00002CC6 00000001     H   20787 20783
 GETUID        1 00000000 0000002F     T   25670 25670
 GETUIDL       1 00000000 00000030     T   25671 25671
 GETVAR        1 00000000 0000005D     T   54890 54890  60215
 GETWCNT       1 00000000 00000061     T   54902 54902
