1                        J E S 2  J O B  L O G  --  S Y S T E M  S Y S B  --  N O D E  R L G
0
 12.50.45 JOB03551 ---- MONDAY,    15 MAR 2004 ----
 12.50.45 JOB03551  ICH70001I GG$SLP   LAST ACCESS AT 12:50:24 ON MONDAY, MARCH 15, 2004
 12.50.45 JOB03551  $HASP373 WYL#ORV  STARTED - INIT 9    - CLASS B - SYS SYSB
 12.50.46 JOB03551  ***  HCMD      STEP $$QUIET
 12.50.46 JOB03551  PUR * Q OUT MUL
 12.50.46 JOB03551  JOB 5412 WYL#ORV  WILL BE PURGED
 12.50.47 JOB03551  WYL#ORV .$$QUIET .         RC=Zero TapeIO=0000 DiskIO=0000 CPU=  .01s Elapsed=46.00s
 12.50.52 JOB03551  WYL#ORV .ASM     .         RC=Zero TapeIO=0000 DiskIO=0491 CPU= 2.64s Elapsed=47.22s
 12.50.53 JOB03551  WYL#ORV .EDIT    .         RC=Zero TapeIO=0000 DiskIO=0112 CPU=  .35s Elapsed=52.42s
 12.50.53 JOB03551  WYL#ORV  Ended.  Name=Assemble ORV                   Total CPU= 3.00s Elapsed=46.00s
 12.50.53 JOB03551
 12.50.53 JOB03551  Execution charges   Priority=Standard   Block=Day
 12.50.53 JOB03551
 12.50.53 JOB03551  CPU Usage          55.31          $34.29   Standard Processing Unit Equivalent
 12.50.53 JOB03551                                   =======
 12.50.53 JOB03551                                    $34.29   Total Job execution charge
 12.50.53 JOB03551
 12.50.53 JOB03551  See back separator page for print charges
 12.50.53 JOB03551
 12.50.53 JOB03551  $HASP395 WYL#ORV  ENDED  ASM=0, EDIT=0
1        1 //WYL#ORV JOB SLP$GG,'Assemble ORV',TIME=4,REGION=4M                    JOB03551
           //*
           /*JOBPARM LINES=99,COPIES=1
           /*JOBPARM FORMS=3HOL,PFORMAT=LAND,CHARS=BD13,DUPLEX=YES,FLASH=BAR4
           //*
           /*JOBPARM NOTIFY=GG.SLP,HOLD=OUTPUT                                     WYLGEN
         2 //$$QUIET EXEC PGM=HCMDX,PARM='PUR * Q OUT MUL'
           //*
         3 //ASM    EXEC PGM=ASMA90,REGION=8M,
           //            PARM=('NORENT,TERM,FLAG(NOCONT),US(MAP,WARN(10)),NODECK',
           //            'LC(32767),XREF(SHORT),ESD,DXREF,NOOBJECT')
         4 //STEPLIB DD DSN=SYS3.IS.TESTASM,DISP=SHR
         5 //SYSLIB   DD  DSN=WYL.GS.WYL.WYLBUR.MACLIB,DISP=SHR
         6 //         DD  DSN=WYL.GG.SYS.MACLIB,DISP=SHR
         7 //         DD  DSN=SYS3.IS.MACLIB,DISP=SHR
         8 //         DD  DSN=SYS3.MACLIB,DISP=SHR
         9 //         DD  DSN=SYS1.MACLIB,DISP=SHR
        10 //         DD  DSN=SYS1.MODGEN,DISP=SHR
        11 //SYSUT1   DD DSN=&&SYSUT1,UNIT=VIO,DISP=(,DELETE),
           //            SPACE=(4088,(500,250),,CONTIG,ROUND)
        12 //SYSTERM  DD SYSOUT=T
        13 //SYSPRINT DD DSN=&&PRINT,UNIT=SYSDA,DISP=(,PASS),
           //            SPACE=(6650,(250,250),RLSE),
           //            DCB=(BLKSIZE=6650,LRECL=133,RECFM=FB)
        14 //SYSUDUMP DD SYSOUT=A
        15 //SYSIN    DD  DSN=WYL.GS.WYL.WYLBUR.SOURCE(ORV),DISP=SHR
           //*
        16 //EDIT    EXEC PGM=ASMEDIT,TIME=2,REGION=4000K,
           //             PARM='STMT'
        17 //STEPLIB  DD  DSN=WYL.GG.SYS.LINKLIB,DISP=SHR
        18 //ASMOUT   DD  DSN=&PRINT,DISP=(OLD,DELETE)
        19 //SYSPRINT DD  SYSOUT=A
1 STMT NO. MESSAGE
 -
        11 IGD01010I STORCLAS= TEMP STORGROUP =
        11 IGD01010I STORGRP=VIO ASSIGNED.
        13 IGD01010I STORCLAS= TEMP STORGROUP =
        13 IGD01010I STORGRP=VIO ASSIGNED.
 ICH70001I GG$SLP   LAST ACCESS AT 12:50:24 ON MONDAY, MARCH 15, 2004
 IEF142I WYL#ORV $$QUIET - STEP WAS EXECUTED - COND CODE 0000
 *********************************************************************************
 *   WYL#ORV /$$QUIET /                    Return Code      Zero                 *
 *   Region used      260K (16K user + 244K system)                              *
 *   Extended region  9464K (4K user + 9460K system)                             *
 *                                                                               *
 *   Paging              In      Out                                             *
 *   Private <-> Aux      0        0       CPU time (TCB)   00:00:00.01          *
 *   Private <-> Exp      0        0       CPU time (SRB)   00:00:00.00          *
 *   VIO                  0        0       Elapsed time    917:37:06.96          *
 *   Common               0      ---                                             *
 *                                                                               *
 *                                                                               *
 *   CPU Usage          0.18         $0.11  Standard Processing Unit Equivalent  *
 *                                   $0.11  Total Step execution charge          *
 *                                                                               *
 *    I/O count  DDname   Type Addr           I/O count  DDname   Type Addr      *
 *                         *** No I/O for this step ***                          *
 *********************************************************************************
 IEF373I STEP/$$QUIET /START 2004075.1250
 IEF374I STEP/$$QUIET /STOP  2004075.1250 CPU    0MIN 00.01SEC SRB    0MIN 00.00SEC VIRT    16K SYS   244K EXT       4K SYS    9460K
 IEF236I ALLOC. FOR WYL#ORV ASM
 IEF237I 04DC ALLOCATED TO STEPLIB
 IEF237I 04DC ALLOCATED TO SYSLIB
 IEF237I 04DC ALLOCATED TO
 IEF237I 04DC ALLOCATED TO
 IEF237I 0402 ALLOCATED TO
 IEF237I 04A0 ALLOCATED TO
 IEF237I 04A0 ALLOCATED TO
 IGD101I SMS ALLOCATED TO DDNAME (SYSUT1  )
         DSN (SYS04075.T125045.RA000.WYL#ORV.SYSUT1.H01   )
         STORCLAS (TEMP) MGMTCLAS (        ) DATACLAS (        )
         VOL SER NOS= VIO
 IEF237I JES2 ALLOCATED TO SYSTERM
 IGD101I SMS ALLOCATED TO DDNAME (SYSPRINT)
         DSN (SYS04075.T125045.RA000.WYL#ORV.PRINT.H01    )
         STORCLAS (TEMP) MGMTCLAS (        ) DATACLAS (        )
         VOL SER NOS= SCR101
 IEF237I JES2 ALLOCATED TO SYSUDUMP
 IEF237I 04DC ALLOCATED TO SYSIN
 IEF142I WYL#ORV ASM - STEP WAS EXECUTED - COND CODE 0000
 IEF285I   SYS3.IS.TESTASM                              KEPT
 IEF285I   VOL SER NOS= SYSB05.
 IEF285I   WYL.GS.WYL.WYLBUR.MACLIB                     KEPT
 IEF285I   VOL SER NOS= SYSB05.
 IEF285I   WYL.GG.SYS.MACLIB                            KEPT
 IEF285I   VOL SER NOS= SYSB05.
 IEF285I   SYS3.IS.MACLIB                               KEPT
 IEF285I   VOL SER NOS= SYSB05.
 IEF285I   SYS3.MACLIB                                  KEPT
 IEF285I   VOL SER NOS= SYSB02.
 IEF285I   SYS1.MACLIB                                  KEPT
 IEF285I   VOL SER NOS= MVSBR9.
 IEF285I   SYS1.MODGEN                                  KEPT
 IEF285I   VOL SER NOS= MVSBR9.
 IGD105I SYS04075.T125045.RA000.WYL#ORV.SYSUT1.H01    DELETED,   DDNAME=SYSUT1
 IEF285I   GG$SLP.WYL#ORV.JOB03551.D0000101.?           SYSOUT
 IGD106I SYS04075.T125045.RA000.WYL#ORV.PRINT.H01     PASSED,    DDNAME=SYSPRINT
 IEF285I   GG$SLP.WYL#ORV.JOB03551.D0000102.?           SYSOUT
 IEF285I   WYL.GS.WYL.WYLBUR.SOURCE                     KEPT
 IEF285I   VOL SER NOS= SYSB05.
 *********************************************************************************
 *   WYL#ORV /ASM     /                    Return Code      Zero                 *
 *   Region used      4376K (4096K user + 280K system)                           *
 *   Extended region  10064K (412K user + 9652K system)                          *
 *                                                                               *
 *   Paging              In      Out                                             *
 *   Private <-> Aux      0        0       CPU time (TCB)   00:00:02.60          *
 *   Private <-> Exp      0        0       CPU time (SRB)   00:00:00.04          *
 *   VIO                  0        0       Elapsed time    917:37:05.74          *
 *   Common               0      ---                                             *
 *                                                                               *
 *                                                                               *
 *   CPU Usage         48.75        $30.22  Standard Processing Unit Equivalent  *
 *                                  $30.22  Total Step execution charge          *
 *                                                                               *
 *    I/O count  DDname   Type Addr           I/O count  DDname   Type Addr      *
 *           85  STEPLIB  Disk 04DC                 292  SYSLIB   Disk 04DC      *
 *            0  SYSLIB   Disk 04DC                   0  SYSLIB   Disk 04DC      *
 *            0  SYSLIB   Disk 0402                   0  SYSLIB   Disk 04A0      *
 *            0  SYSLIB   Disk 04A0                   0  SYSUT1   VIO  ----      *
 *            0  SYSTERM       ----                 109  SYSPRINT Disk 04E3      *
 *            0  SYSUDUMP      ----                   5  SYSIN    Disk 04DC      *
 *********************************************************************************
 IEF373I STEP/ASM     /START 2004075.1250
 IEF374I STEP/ASM     /STOP  2004075.1250 CPU    0MIN 02.60SEC SRB    0MIN 00.04SEC VIRT  4096K SYS   280K EXT     412K SYS    9652K
 IEF236I ALLOC. FOR WYL#ORV EDIT
 IEF237I 0402 ALLOCATED TO STEPLIB
 IGD103I SMS ALLOCATED TO DDNAME ASMOUT
 IEF237I JES2 ALLOCATED TO SYSPRINT
 IEF142I WYL#ORV EDIT - STEP WAS EXECUTED - COND CODE 0000
 IEF285I   WYL.GG.SYS.LINKLIB                           KEPT
 IEF285I   VOL SER NOS= SYSB02.
 IGD105I SYS04075.T125045.RA000.WYL#ORV.PRINT.H01     DELETED,   DDNAME=ASMOUT
 IEF285I   GG$SLP.WYL#ORV.JOB03551.D0000103.?           SYSOUT
 *********************************************************************************
 *   WYL#ORV /EDIT    /                    Return Code      Zero                 *
 *   Region used      380K (116K user + 264K system)                             *
 *   Extended region  9584K (4K user + 9580K system)                             *
 *                                                                               *
 *   Paging              In      Out                                             *
 *   Private <-> Aux      0        0       CPU time (TCB)   00:00:00.34          *
 *   Private <-> Exp      0        0       CPU time (SRB)   00:00:00.01          *
 *   VIO                  0        0       Elapsed time    917:37:00.54          *
 *   Common               0      ---                                             *
 *                                                                               *
 *                                                                               *
 *   CPU Usage          6.37         $3.94  Standard Processing Unit Equivalent  *
 *                                   $3.94  Total Step execution charge          *
 *                                                                               *
 *    I/O count  DDname   Type Addr           I/O count  DDname   Type Addr      *
 *            2  STEPLIB  Disk 0402                 110  ASMOUT   Disk 04E3      *
 *            0  SYSPRINT      ----                                              *
 *********************************************************************************
 IEF373I STEP/EDIT    /START 2004075.1250
 IEF374I STEP/EDIT    /STOP  2004075.1250 CPU    0MIN 00.34SEC SRB    0MIN 00.01SEC VIRT   116K SYS   264K EXT       4K SYS    9580K
 *********************************************************************************
 *                                                                               *
 *                      S t a n f o r d   U n i v e r s i t y                    *
 *                                                                               *
 *                              *** Job Summary ***                              *
 *                                                                               *
 *   System Id      SYSB                   Input time     12:39:23  Mar 15, 2004 *
 *                                                                               *
 *   System Release SP6.1.0                Start time     12:50:46  Mar 15, 2004 *
 *                                                                               *
 *   Job name       WYL#ORV                Stop  time     00:00:00  Mar 15, 2004 *
 *                                                                               *
 *   Account        SLP$GG                 Elapsed time  917:37:06.96            *
 *                                                                               *
 *   User Name      Assemble ORV           CPU time       00:00:02.95            *
 *                                                                               *
 *   Job class      B                      SRB Time       00:00:00.05            *
 *                                                                               *
 *********************************************************************************
 IEF375I  JOB/WYL#ORV /START 2004075.1250
 IEF376I  JOB/WYL#ORV /STOP  2004075.1250 CPU    0MIN 02.95SEC SRB    0MIN 00.05SEC
1Assembler Done ORV No Statements Flagged
1         High Level Assembler Option Summary                   (PTF P72483 )                                               Page    1
-                                                                                            HLASM R4.0  2004/03/15 12.50
0  No Overriding ASMAOPT Parameters
   Overriding Parameters-  NORENT,TERM,FLAG(NOCONT),US(MAP,WARN(10)),NODECK,LC(32767),XREF(SHORT),ESD,DXREF,NOOBJECT
   No Process Statements


   Options for this Assembly
0  NOADATA
     ALIGN
   NOASA
     BATCH
     CODEPAGE(047C)
   NOCOMPAT
   NODBCS
 3 NODECK
 3   DXREF
 3   ESD
   NOEXIT
 3   FLAG(0,ALIGN,NOCONT,NOIMPLEN,NOPAGE0,PUSH,RECORD,NOSUBSTR,USING0)
   NOFOLD
   NOGOFF
   NOINFO
     LANGUAGE(EN)
   NOLIBMAC
 3   LINECOUNT(32767)
     LIST(121)
     MXREF(SOURCE)
 3 NOOBJECT
     OPTABLE(UNI,NOLIST)
   NOPCONTROL
   NOPESTOP
   NOPROFILE
   NORA2
 3 NORENT
     RLD
     RXREF
     SIZE(MAX)
     SYSPARM()
 3   TERM(WIDE)
   NOTEST
     THREAD
   NOTRANSLATE
 3   USING(NOLIMIT,MAP,WARN(10))
 3   XREF(SHORT)

   No Overriding DD Names

1ORV      External Symbol Dictionary                                                                                        Page    2
-Symbol   Type   Id     Address  Length     LD ID  Flags Alias-of                            HLASM R4.0  2004/03/15 12.50
0WYLORV    SD 00000001 00000000 00001228             00
 ORV2025   LD          00000000           00000001
 PASS      LD          00000016           00000001
 ORVCMD    LD          00000082           00000001
 ORVCPASS  LD          000000C2           00000001
 ORVCABRT  LD          00000122           00000001
 ORVRETN   LD          0000015A           00000001
 ORVCHK    LD          000001BE           00000001
 ORVRQST   LD          00000242           00000001
 SCTELL    ER 00000002
 SEG       ER 00000003
 SEGWR     ER 00000004
 SEGCLR    ER 00000005
 TXCTL     ER 00000006
 INITCMD   ER 00000007
 SEGT      ER 00000008
 PAGERES   ER 00000009
 CMDUNREC  ER 0000000A
 EDTCOMMV  ER 0000000B
 GETLINE   ER 0000000C
 PREVLNO   ER 0000000D
 SEGINIT   ER 0000000E
 SEGDC     ER 0000000F
 CVEXNO    ER 00000010
 SCINIT    ER 00000011
 ZDETRNG   ER 00000012
 DESPOT    ER 00000013
 TSEGBUF   ER 00000014
 PRESS     ER 00000015
 GETHEAP   ER 00000016
 ACTFULL   ER 00000017
 STOW      ER 00000018
 DELRANGE  ER 00000019
 ENDLNO    ER 0000001A
 EDITCK    ER 0000001B
 EVALSTR   ER 0000001C
 CLRTEXT   ER 0000001D

1ORV      WYLBUR's ORVYL Interface                                                                                          Page    3
0Loc    Object Code    Addr1 Addr2  Stmt Lv Lineno    Source Statement                    (Asmedit 3.3)  HLASM R4.0  2004/03/15 12.50
+___    ______ ____    _____ _____  ____ __ ______    ______ _________
0                                      2              *******************************************************************
                                       3              *                                                                 *
                                       4              *     WYLBUR/370 - Release VI - Class I - Stanford Proprietary    *
                                       5              *                                                                 *
                                       6              *******************************************************************
                                       7                       HIBAL
                                     988
 000000                00000 01228   989              WYLORV   CSECT
                                     993              ORV      IDENT 2025                11:49:29 01/25/02  (SLP)
                                     996             +
                                     997    01-IDENT +         ENTRY ORV2025
                                     998             +
 000000 15D6D9E5F2F0F2F5             999    01-IDENT +ORV2025  DC    AL1(21),C'ORV2025,15MAR04,12:50'
                                    1000             +*
-                                   1003                       REGS  FSR,,,,,,,BR,(WAR,LSR),PAR,PBR,CPR,CVR,SPR,RAR
                                    1139                       SYSDEFN ,                 Define installation params
-                                   1141                       PUSH  DSECTS
 USING  CP,R11                      1152             =         USING (CP),(CV)
 USING  CV,R12
 000016                00000 01228  1171             =         POP   PRINT
1ORV      (ORV2025) (12:50) (15MAR04) WYLBUR's ORVYL Interface                                                              Page    4
0Current Usings:  (CP,R11) (CV,R12)
0Loc    Object Code    Addr1 Addr2  Stmt Lv Lineno    Source Statement           (Hibal 5, Asmedit 3.3)  HLASM R4.0  2004/03/15 12.50
+___    ______ ____    _____ _____  ____ __ ______    ______ _________
0000016                00000 01228  6587              WYLORV   CSECT
                                    6589              ¿þþþþþþþþþþþþþþþþþþþþþþþþþþþþþþþþþþþþþþþþþþþþþþþþþþþþþþþþþþþþþþþþþþþþþÜ
                                    6590              Ÿ                                                                     Ÿ
                                    6591              Ÿ  PASS - pass command to orvyl                                       Ÿ
                                    6592              Ÿ                                                                     Ÿ
                                    6593              Ÿ  on entry:                                                          Ÿ
                                    6594              Ÿ       command pointed to by scan control block                      Ÿ
                                    6595              Ÿ                                                                     Ÿ
                                    6596              Ÿ  comments:                                                          Ÿ
                                    6597              Ÿ       command is passed to ORVYL in CPCMD, and CPCMDLEN.            Ÿ
                                    6598              Ÿ       ORVCMD routine does not return unless ORVYL is unavailable.   Ÿ
                                    6599              Ÿ                                                                     Ÿ
                                                      ¾þþþþþþþþþþþþþþþþþþþþþþþþþþþþþþþþþþþþþþþþþþþþþþþþþþþþþþþþþþþþþþþþþþþþþ»
0000016 50E0 D000/9008_      00000  6600              PASS     XPROC
 USING  *,R7
 000030 58E0 72D0/0DEE       00300  6640                       OSCTELL ,                 Get ORVYL command loc, len
 000036 1200/47D0 C7F0              6645                       IF    (R0,NP),CVABSENT
 00003C 4000 B240            00240  6662                       STH   R0,CPCMDLEN         Set up CPCMD and CPCMDLEN
 000040 1820                        6663                       LR    R2,R0
 000042 0620/1222/4740_             6664                       MOVE  R2,CPCMD,@R1
 00004E 58E0 72D4/0DEE       00304  6702                       ACALL ORVCMD              Pass command to ORVYL
 000054 41F0 B050/58E0_      00050  6706                       TSEG  (R1),(R0)           Only returns if ORVYL is down
 00005E 4110 72A0/4100_      002D0  6730                       TSEG  ': unrecognized command. '
 000070 47F0 C7D6            007D6  6748                       B     CVERROR
 000074 18D8/9808 D004_             6749                       PEND
 DROP   *,R7
1ORV      (ORV2025) (12:50) (15MAR04) WYLBUR's ORVYL Interface                                                              Page    5
0Current Usings:  (CP,R11) (CV,R12)
0Loc    Object Code    Addr1 Addr2  Stmt Lv Lineno    Source Statement           (Hibal 5, Asmedit 3.3)  HLASM R4.0  2004/03/15 12.50
+___    ______ ____    _____ _____  ____ __ ______    ______ _________
0                                   6770              ¿þþþþþþþþþþþþþþþþþþþþþþþþþþþþþþþþþþþþþþþþþþþþþþþþþþþþþþþþþþþþþþþþþþþþþÜ
                                    6771              Ÿ                                                                     Ÿ
                                    6772              Ÿ  ORVCMD -- Routine to pass the current command to ORVYL.            Ÿ
                                    6773              Ÿ                                                                     Ÿ
                                    6774              Ÿ    This routine only returns if ORVYL is not active.                Ÿ
                                    6775              Ÿ                                                                     Ÿ
                                                      ¾þþþþþþþþþþþþþþþþþþþþþþþþþþþþþþþþþþþþþþþþþþþþþþþþþþþþþþþþþþþþþþþþþþþþþ»
0000082 50E0 D000/9008_      00000  6776              ORVCMD   XPROC
 USING  *,R7
 00009C 9500 B140/4770_00140        6816                       IF    (CPORVCMD,Z),BEGIN  First communications with ORVYL...
 0000A4 9680 B140      00140        6832  1                      SET   CPFREDT             Assume a read edit
 0000A8                             6838                       END
                                    6842
 0000A8 947F B150      00150        6843                       CLEAR CPOFRPASS           Sending regular read edit
                                    6850
 0000AC 9180 B140/4710_00140        6851                       IF    CPFREDT,REDTFIN     Finish the read edit
 0000B4 18D8/9808 D004_             6869                       PEND
 DROP   *,R7
1ORV      (ORV2025) (12:50) (15MAR04) WYLBUR's ORVYL Interface                                                              Page    6
0Current Usings:  (CP,R11) (CV,R12)
0Loc    Object Code    Addr1 Addr2  Stmt Lv Lineno    Source Statement           (Hibal 5, Asmedit 3.3)  HLASM R4.0  2004/03/15 12.50
+___    ______ ____    _____ _____  ____ __ ______    ______ _________
0                                   6890              ¿þþþþþþþþþþþþþþþþþþþþþþþþþþþþþþþþþþþþþþþþþþþþþþþþþþþþþþþþþþþþþþþþþþþþþÜ
                                    6891              Ÿ                                                                     Ÿ
                                    6892              Ÿ  ORVCPASS -- Routine to pass the command to ORVYL because it is     Ÿ
                                    6893              Ÿ    possibly a SPIRES command.  SPIRES tells us it wants             Ÿ
                                    6894              Ÿ    "syntactically incorrect" Wylbur commands passed to it,          Ÿ
                                    6895              Ÿ    normally a READ EDIT only passes completely unrecognized         Ÿ
                                    6896              Ÿ    commands.                                                        Ÿ
                                    6897              Ÿ                                                                     Ÿ
                                    6898              Ÿ    This routine returns if we didn't pass the command to ORVYL.     Ÿ
                                    6899              Ÿ                                                                     Ÿ
                                                      ¾þþþþþþþþþþþþþþþþþþþþþþþþþþþþþþþþþþþþþþþþþþþþþþþþþþþþþþþþþþþþþþþþþþþþþ»
00000C2 50E0 D000/9008_      00000  6900              ORVCPASS XPROC
 USING  *,R7
                                    6940                       ¿þþþþþþþþþþþþþþþþþþþþþþþþþþþþþþþþþþþþþþþþþþþþþþþþþþþþþþþÜ
                                    6941                       Ÿ  Only pass commands back if Spires pass flag is set.  Ÿ
                                    6942                       ¾þþþþþþþþþþþþþþþþþþþþþþþþþþþþþþþþþþþþþþþþþþþþþþþþþþþþþþþ»
 0000DC 9140 B149/47E0_00149        6943                       IF    CPOFNPAS,BEGIN      Only pass if Spires flag set...
 0000E4 9180 B480/4710_00480        6958  1                      IF    CPGFNOSPIEDIT,EXIT  Ignore Spires bit in mode word
 0000EC 9180 B47B/4710_0047B        6976  1                      IF    CPFTRY,EXIT         Don't pass if TRY prefix
 0000F4 9500 B8AA/4770_008AA        6994  1                      IF    (CPRFLG,NZ),EXIT    Resources owned, can't pass
                                    7013  1
 0000FC 9500 B140/4770_00140        7014  1                      IF    (CPORVCMD,Z),BEGIN  First communications with ORVYL...
 000104 9680 B140      00140        7030  2                        SET   CPFREDT             Assume a read edit
 000108                             7036  1                      END
                                    7040  1
 000108 9680 B150      00150        7041  1                      SET   CPOFRPASS           Sending special read edit
                                    7047  1
 00010C 9180 B140/4710_00140        7048  1                      IF    CPFREDT,REDTFIN     Finish the read edit
 000114                             7066                       END
                                    7070
 000114 18D8/9808 D004_             7071                       PEND
 DROP   *,R7
1ORV      (ORV2025) (12:50) (15MAR04) WYLBUR's ORVYL Interface                                                              Page    7
0Current Usings:  (CP,R11) (CV,R12)
0Loc    Object Code    Addr1 Addr2  Stmt Lv Lineno    Source Statement           (Hibal 5, Asmedit 3.3)  HLASM R4.0  2004/03/15 12.50
+___    ______ ____    _____ _____  ____ __ ______    ______ _________
0                                   7092              ¿þþþþþþþþþþþþþþþþþþþþþþþþþþþþþþþþþþþþþþþþþþþþþþþþþþþþþþþþþþþþþþþþþþþþþÜ
                                    7093              Ÿ                                                                     Ÿ
                                    7094              Ÿ  ORVCABRT -- Routine to abort the READ EDIT.  This is done          Ÿ
                                    7095              Ÿ    by sending a zero length command in response to the              Ÿ
                                    7096              Ÿ    READ EDIT.  (This routine is called by the command               Ÿ
                                    7097              Ÿ    processor when it detects a ?break.)                             Ÿ
                                    7098              Ÿ                                                                     Ÿ
                                                      ¾þþþþþþþþþþþþþþþþþþþþþþþþþþþþþþþþþþþþþþþþþþþþþþþþþþþþþþþþþþþþþþþþþþþþþ»
0000122 50E0 D000/9008_      00000  7099              ORVCABRT XPROC
 USING  *,R7
 00013C D701 B240 B240 00240 00240  7139                       CLEAR CPCMDLEN
 000142 58E0 71C8/0DEE       00304  7146                       ACALL ORVCMD              Send response to ORVYL
 000148 47F0 C7DE            007DE  7150                       B     CVNEXT
 00014C 18D8/9808 D004_             7151                       PEND
 DROP   *,R7
1ORV      (ORV2025) (12:50) (15MAR04) WYLBUR's ORVYL Interface                                                              Page    8
0Current Usings:  (CP,R11) (CV,R12)
0Loc    Object Code    Addr1 Addr2  Stmt Lv Lineno    Source Statement           (Hibal 5, Asmedit 3.3)  HLASM R4.0  2004/03/15 12.50
+___    ______ ____    _____ _____  ____ __ ______    ______ _________
0                                   7172              ¿þþþþþþþþþþþþþþþþþþþþþþþþþþþþþþþþþþþþþþþþþþþþþþþþþþþþþþþþþþþþþþþþþþþþþÜ
                                    7173              Ÿ                                                                     Ÿ
                                    7174              Ÿ  ORVRETN - Return to ORVYL                                          Ÿ
                                    7175              Ÿ                                                                     Ÿ
                                    7176              Ÿ  ORVYL passed us a WYLBUR command (WRITE MODE=EDIT).  We            Ÿ
                                    7177              Ÿ  executed it and now we pass control back to ORVYL.  This           Ÿ
                                    7178              Ÿ  routine does not return.                                           Ÿ
                                    7179              Ÿ                                                                     Ÿ
                                                      ¾þþþþþþþþþþþþþþþþþþþþþþþþþþþþþþþþþþþþþþþþþþþþþþþþþþþþþþþþþþþþþþþþþþþþþ»
000015A 50E0 D000/9008_      00000  7180              ORVRETN  XPROC
 USING  *,R7
                                    7220
                                    7221                       COMMENT                   CHECK TO MAKE SURE ALL COOL
                                    7222              *        IF    CPFEXEC,BEGIN       PASSED CMDS ARE NOT EXEC COMMANDS
                                    7223              *        CLEAR CPFEXEC
                                    7224              *        CLEAR CPFVCMD
                                    7225              *        BOMB
                                    7226              *        END
                                    7227              *
                                    7228                       COMMENT                   PASS CONTROL BACK TO ORVYL
 000174 9140 B140/47E0_00140        7229                       IF    CPFWEDT,BEGIN       (IE. COMPLETE WRITE MODE=EDIT)
 00017C 947F B47D      0047D        7244  1                      CLEAR CPFVCMD
 000180 58E0 7198/0DEE       0030C  7251  1                      ACALL WEDTFIN             DOES NOT RETURN
 000186                             7255                       END
                                    7259
                                    7260                       COMMENT                   IF NOT WRITE MODE=EDIT
                                    7261                       COMMENT                   WE ARE NOT SYNCHRONIZED W/ORVYL
 000186 9140 B140/4710_00140        7262                       IF    ~CPFWEDT,BEGIN      we return to wylbur and keep going
 00018E 947F B47D      0047D        7277  1                      CLEAR CPFVCMD
                                    7284  1           *        BOMB
                                    7285  1                      COMMENT                   Keep on going.
 000192 4110 71C8/4100_      0033C  7286  1                      TSEG  'ORVYL/WYLBUR re-synchronized.'
 0001A4 1B00/41F0 B050_             7304  1                      TWRITE
 0001B0                             7329                       END
                                    7333
 0001B0 18D8/9808 D004_             7334                       PEND
 DROP   *,R7
1ORV      (ORV2025) (12:50) (15MAR04) WYLBUR's ORVYL Interface                                                              Page    9
0Current Usings:  (CP,R11) (CV,R12)
0Loc    Object Code    Addr1 Addr2  Stmt Lv Lineno    Source Statement           (Hibal 5, Asmedit 3.3)  HLASM R4.0  2004/03/15 12.50
+___    ______ ____    _____ _____  ____ __ ______    ______ _________
0                                   7355              ¿þþþþþþþþþþþþþþþþþþþþþþþþþþþþþþþþþþþþþþþþþþþþþþþþþþþþþþþþþþþþþþþþþþþþþÜ
                                    7356              Ÿ                                                                     Ÿ
                                    7357              Ÿ  ORVCHK -- Routine to check if a command from ORVYL is still        Ÿ
                                    7358              Ÿ    outstanding.   That is, if ORVYL still waiting for us to         Ÿ
                                    7359              Ÿ    return control back to ORVYL and we are out of sync for          Ÿ
                                    7360              Ÿ    reason, we get back in sync by returning ORVYL an abend          Ÿ
                                    7361              Ÿ    completion code.                                                 Ÿ
                                    7362              Ÿ                                                                     Ÿ
                                    7363              Ÿ   NOTE: this routine should not be necessary, but we keep it        Ÿ
                                    7364              Ÿ    just in case it is.  We log all out of sync w/ORVYL events.      Ÿ
                                    7365              Ÿ                                                                     Ÿ
                                                      ¾þþþþþþþþþþþþþþþþþþþþþþþþþþþþþþþþþþþþþþþþþþþþþþþþþþþþþþþþþþþþþþþþþþþþþ»
00001BE 50E0 D000/9008_      00000  7366              ORVCHK   XPROC
 USING  *,R7
                                    7406
                                    7407                       COMMENT                   If extended exec, do not return
                                    7408                       COMMENT                   control to ORVYL until done.
 0001D8 9501 B759/4780_00759        7409                       IF    ~CPFXTEND,BEGIN
                                    7424  1
 0001E0 9500 B140/4780_00140        7425  1                      IF    ((CPORVCMD,NZ),AND,~CPFREDT),BEGIN
                                    7455  2                   ¿þþþþþþþþþþþþþþþþþþþþþþþþþþþþþþþþþþþþþþþþþþþþþþþþþþþþþþþþþþþþþþþþþþþþÜ
                                    7456  2                   Ÿ  Due to some sort of error, a previous ORVYL request has not been  Ÿ
                                    7457  2                   Ÿ      sent a completion.  We must tell ORVYL to abort that request  Ÿ
                                    7458  2                   Ÿ     before we can continue with a new command, otherwise we would  Ÿ
                                    7459  2                   Ÿ       be out of synch.                                             Ÿ
                                    7460  2                   ¾þþþþþþþþþþþþþþþþþþþþþþþþþþþþþþþþþþþþþþþþþþþþþþþþþþþþþþþþþþþþþþþþþþþþ»
 0001F0 41F0 B050/58E0_      00050  7461  2                        TCLEAR
 0001FA 41F0 7110            002E8  7475  2                        LA    R15,=XL8'00'        Closest guess for an abort
 0001FE 9120 B140/47E0_00140        7476  2                        IF    CPFRTEXT,'LA R15,=X"0400000000000000"'  rtxt abort
 00020A 9110 B140/47E0_00140        7497  2                        IF    CPFWTEXT,'LA R15,=X"1800000000000000"'  wtxt abort
 000216 D70F B140 B140 00140 00140  7518  2                        CLEAR CPORV               Reset ORVYL control info
 00021C 4110 B8BC/58E0_      008BC  7525  2                        TXCTL CPORVYL,(R15)       Send abort completion
 000226 4780 7056            0022E  7541  2                        IF    NZ,BEGIN            No ORVYL, forget it
 00022A 47F0 C7DE            007DE  7552  3                          B     CVNEXT
 00022E                             7553  2                        END
 00022E 58E0 7144/0DEE       0031C  7557  2                        ACALL ORVRQST             Handle the next ORVYL request
 000234                             7561  1                      END
 000234                             7565                       END
 000234 18D8/9808 D004_             7569                       PEND
 DROP   *,R7
1ORV      (ORV2025) (12:50) (15MAR04) WYLBUR's ORVYL Interface                                                              Page   10
0Current Usings:  (CP,R11) (CV,R12)
0Loc    Object Code    Addr1 Addr2  Stmt Lv Lineno    Source Statement           (Hibal 5, Asmedit 3.3)  HLASM R4.0  2004/03/15 12.50
+___    ______ ____    _____ _____  ____ __ ______    ______ _________
0                                   7590              ¿þþþþþþþþþþþþþþþþþþþþþþþþþþþþþþþþþþþþþþþþþþþþþþþþþþþþþþþþþþþþþþþþþþþþþÜ
                                    7591              Ÿ                                                                     Ÿ
                                    7592              Ÿ  ORVRQST -- Routine to process a request from ORVYL.                Ÿ
                                    7593              Ÿ                                                                     Ÿ
                                    7594              Ÿ    (Entered from the command processor.)                            Ÿ
                                    7595              Ÿ                                                                     Ÿ
                                                      ¾þþþþþþþþþþþþþþþþþþþþþþþþþþþþþþþþþþþþþþþþþþþþþþþþþþþþþþþþþþþþþþþþþþþþþ»
0000242 188D/4570 C74C_             7596              ORVRQST  GENTER
 USING  *,R7
 000250 58E0 70D0/0DEE       00320  7613              ORVNEXT  VCALL INITCMD             Initialize
                                    7617
 000256 D507 B154 B8BC_00154 008BC  7618                       IF    (CPSYS,EQ,CPORVYL),BEGIN  From ORVYL...
 000260 D607 B154 B154_00154 00154  7636  1                      IF    (CPSYS,Z),EXIT      No ORVYL access allowed
                                    7655  1           *
                                    7656  1           *
 00026A 1BFF                        7657  1                      CLEAR R15
 00026C 9108 B140/47E0_00140        7661  1                      IF    CPFCNTL,'L R15,=A(CONTROL)'  Control
 000278 9180 B140/47E0_00140        7682  1                      IF    CPFREDT,'L R15,=A(RDEDIT)'   Read edit
 000284 9140 B140/47E0_00140        7703  1                      IF    CPFWEDT,'L R15,=A(WREDIT)'   Write edit
 000290 9120 B140/47E0_00140        7724  1                      IF    CPFRTEXT,'L R15,=A(RDTEXT)'  Read text
 00029C 9110 B140/47E0_00140        7745  1                      IF    CPFWTEXT,'L R15,=A(WRTEXT)'  Write text
 0002A8 9101 B140/47E0_00140        7766  1                      IF    CPFRCTRL,'L R15,=A(RDCTRL)'  Read control (special)
 0002B4 12FF/4780 7070              7787  1                      IF    (R15,NZ),BEGIN
 0002BA 0DEF                        7801  2                        BASR  RAR,R15             Process request
 0002BC 4780 7000            00250  7802  2                        BZ    ORVNEXT             We have another ORVYL request
 0002C0                             7803  1                      END
 0002C0                             7807                       END
                                    7811
 0002C0 41F0 B050/58E0_      00050  7812                       TCLEAR
 0002CA 47F0 C7DE            007DE  7826                       B     CVNEXT
                                    7827
 DROP   *,R7                        7828                       DROP  BR
                                    7835
                                    7836                       QLTORG
1ORV      (ORV2025) (12:50) (15MAR04) WYLBUR's ORVYL Interface                                                              Page   11
0Current Usings:  (CP,R11) (CV,R12)
0Loc    Object Code    Addr1 Addr2  Stmt Lv Lineno    Source Statement           (Hibal 5, Asmedit 3.3)  HLASM R4.0  2004/03/15 12.50
+___    ______ ____    _____ _____  ____ __ ______    ______ _________
0                                   7869              ***
                                    7870              ***  READ EDIT Data Areas
                                    7871              ***
 000000                00000 00008  7872              REDTORV  RECORD BEGIN              Read edit information from ORVYL
 000000                             7880  1                      DS    X                   Command code
                                    7881  1
 000001 00                          7882  1           REDTOFLG   FLAG
 REDTOFLG.REDTRSEN 04 ONES          7886  1                      FLAG  (REDTRSEN,4)        - Resend last cmd (for logon)
                                    7895  1
 000002 00                          7896  1           REDTOFL2   FLAG
 REDTOFL2.REDTFCME 80 ONES          7900  1                      FLAG  REDTFCME            - Prev command in error
 REDTOFL2.REDTFATT 40 ONES          7905  1                      FLAG  REDTFATT            - Prev command ended with attn
                                    7910  1
 000003                             7911  1                      DS    XL5                 Reserved
 000008                00008 00008  7912                       END
-000000                00000 00008  7922              REDTWYL  RECORD BEGIN              Read edit information for ORVYL
 000000 00                          7930  1           REDTRET    FLAG
 REDTRET.REDTFCMD  63 EQ            7934  1                      FLAG  (REDTFCMD,X'63',EQ)  - Command is being returned
                                    7944  1
 000001 00                          7945  1           REDTFLAG   FLAG
 REDTFLAG.REDTFNT  80 ONES          7949  1                      FLAG  REDTFNT             - Command is not-typed
                                    7954  1
 000002                             7955  1           REDTLEN    DS    H                   Command text length
                                    7956  1
 000004                             7957  1                      DS    XL4                 Reserved
 000008                00008 00008  7958                       END
1ORV      (ORV2025) (12:50) (15MAR04) WYLBUR's ORVYL Interface                                                              Page   12
0Current Usings:  (CP,R11) (CV,R12)
0Loc    Object Code    Addr1 Addr2  Stmt Lv Lineno    Source Statement           (Hibal 5, Asmedit 3.3)  HLASM R4.0  2004/03/15 12.50
+___    ______ ____    _____ _____  ____ __ ______    ______ _________
0                                   7968              ¿þþþþþþþþþþþþþþþþþþþþþþþþþþþþþþþþþþþþþþþþþþþþþþþþþþþþþþþþþþþþþþþþþþþþþÜ
                                    7969              Ÿ                                                                     Ÿ
                                    7970              Ÿ  RDEDIT -- Routine to process a READ EDIT request from ORVYL.       Ÿ
                                    7971              Ÿ                                                                     Ÿ
                                    7972              Ÿ    On entry:                                                        Ÿ
                                    7973              Ÿ      CPORVINF - contains control information                        Ÿ
                                    7974              Ÿ                                                                     Ÿ
                                    7975              Ÿ    There is no direct return from this routine.  Instead, when      Ÿ
                                    7976              Ÿ    the command processor gets an unrecognized command it            Ÿ
                                    7977              Ÿ    (eventually) goes to REDTFIN.                                    Ÿ
                                    7978              Ÿ                                                                     Ÿ
                                                      ¾þþþþþþþþþþþþþþþþþþþþþþþþþþþþþþþþþþþþþþþþþþþþþþþþþþþþþþþþþþþþþþþþþþþþþ»
0000360 0D70                        7979              RDEDIT   BASE
 USING  *,R7
 000362 4160 B140            00140  7993                       LA    R6,CPORVINF
 USING  REDTORV,R6                  7994                       WITH  (REDTORV,R6),BEGIN
 000366 9104 6001/47E0_00001        8008  1                      IF    REDTRSEN,BEGIN      Re-send read edit...
                                    8023  2                        ¿þþþþþþþþþþþþþþþþþþþþþþþþþþþþþþþþþþþþþþþþþþþþþþþþþþþþþþþþþþþþÜ
                                    8024  2                        Ÿ  We get here because we tried to pass a syntactically      Ÿ
                                    8025  2                        Ÿ    incorrect Wylbur command to Spires, and ORVYL died and  Ÿ
                                    8026  2                        Ÿ    has since been restarted.  The "resend" request is the  Ÿ
                                    8027  2                        Ÿ    first response we get from ORVYL.                       Ÿ
                                    8028  2                        Ÿ                                                            Ÿ
                                    8029  2                        Ÿ    We reset the ORVYL information and then write out an    Ÿ
                                    8030  2                        Ÿ    error message.                                          Ÿ
                                    8031  2                        ¾þþþþþþþþþþþþþþþþþþþþþþþþþþþþþþþþþþþþþþþþþþþþþþþþþþþþþþþþþþþþ»
 00036E 9180 B150/47E0_00150        8032  2                        IF    CPOFRPASS,BEGIN     Grrr...
 000376 D70F B140 B140 00140 00140  8047  3                          CLEAR CPORV               Reset ORVYL info
 00037C 4110 B8BC/4100_      008BC  8054  3                          TSEG  CPORVYL,,T
 00038E 4110 7E32/4100_      01194  8082  3                          ABORT ' failure, command interrupted.'  What can we say
 00039A                             8089  2                        END
                                    8093  2
 00039A 58E0 7D82/0DEE       010E4  8094  2                        ACALL ORVCMD              Send command back to ORVYL
 0003A0 47F0 C7DE            007DE  8098  2                        B     CVNEXT
 0003A4                             8099  1                      END
                                    8103  1
 0003A4 9140 6002/47E0_00002        8104  1                      IF    REDTFATT,BEGIN      Attn...
 0003AC 5860 C1C8            001C8  8119  2                        L     R6,CVCURJCB
 0003B0 9602 6062      00062        8120  2                        WITH  (JCB,R6),'SET JCBFATTN'  Set attn
 DROP   REDTORV,R6
 USING  JCB,R6
 DROP   JCB,R6
 USING  REDTORV,R6
 0003B4                             8159  1                      END
 0003B4 41F0 B050/58E0_      00050  8163  1                      TCLEAR
 0003BE 9180 6002/4710_00002        8177  1                      IF    REDTFCME,CVERROR    Command error
 DROP   REDTORV,R6                  8195                       END
 0003C6 47F0 C7DE            007DE  8203                       B     CVNEXT              Go start read edit
                                    8204
 DROP   *,R7                        8205                       DROP  BR
1ORV      (ORV2025) (12:50) (15MAR04) WYLBUR's ORVYL Interface                                                              Page   13
0Current Usings:  (CP,R11) (CV,R12)
0Loc    Object Code    Addr1 Addr2  Stmt Lv Lineno    Source Statement           (Hibal 5, Asmedit 3.3)  HLASM R4.0  2004/03/15 12.50
+___    ______ ____    _____ _____  ____ __ ______    ______ _________
0                                   8213                       ¿þþþþþþþþþþþþþþþþþþþþþþþþþþþþþþþþþþþþþþþþþþþÜ
                                    8214                       Ÿ  Handle the completion of the read edit.  Ÿ
                                    8215                       ¾þþþþþþþþþþþþþþþþþþþþþþþþþþþþþþþþþþþþþþþþþþþ»
 0003CA 0D70                        8216              REDTFIN  BASE
 USING  *,R7
 0003CC 186D/41D0 D008              8230                       XPUSH ,,L'REDTWYL,PTR=R6
 USING  REDTWYL,R6                  8233                       WITH  (REDTWYL,R6),BEGIN
 0003D2 D707 6000 6000 00000 00000  8247  1                      CLEAR REDTWYL
 0003D8 9263 6000      00000        8254  1                      SET   REDTFCMD            Command is being returned
                                    8260  1
 0003DC 9110 B477/4710_00477        8261  1                      IF    ~CPFTYPED,'SET REDTFNT'  Not typed command
                                    8287  1
 0003E8 41F0 B050/58E0_      00050  8288  1                      TCLEAR
 0003F2 58E0 7D20/0DEE       010EC  8302  1                      VCALL PAGERES             Reset page mode
                                    8306  1
 0003F8 4110 B242/4800_      00242  8307  1                      SETMSG CPCMD,LH:CPCMDLEN   Command text
 000400 4000 6002            00002  8320  1                      STH   R0,REDTLEN
                                    8321  1
 000404 41F0 B050/58E0_      00050  8322  1                      TSEG  (R1),(R0)
                                    8346  1
 00040E 4110 B8BC/18F6_      008BC  8347  1                      TXCTL CPORVYL,REDTWYL     Send command to ORVYL
 00041A 4770 7058/58E0_      00424  8366  1                      IF    Z,'ACALL ORVRQST'   Process next request from ORVYL
 DROP   REDTWYL,R6                  8386                       END
                                    8394                       ¿þþþþþþþþþþþþþþþþþþþþþþþþþþþþþþþþþþþþþþþþþþþþþþþþþþþþþþþþþþþþþÜ
                                    8395                       Ÿ  We get here because we tried to pass a syntactically       Ÿ
                                    8396                       Ÿ    incorrect Wylbur command to Spires, and ORVYL has died.  Ÿ
                                    8397                       Ÿ                                                             Ÿ
                                    8398                       Ÿ    This will only happen once because TXCTL zeroed CPORV    Ÿ
                                    8399                       Ÿ    when it discovered that ORVYL died.                      Ÿ
                                    8400                       ¾þþþþþþþþþþþþþþþþþþþþþþþþþþþþþþþþþþþþþþþþþþþþþþþþþþþþþþþþþþþþþ»
 000424 9180 B150/47E0_00150        8401                       IF    CPOFRPASS,BEGIN     Grrr...
 00042C 4110 B8BC/4100_      008BC  8416  1                      TSEG  CPORVYL,,T
 00043E 4110 7DC8/4100_      01194  8444  1                      ABORT ' failure, command interrupted.'  What can we say
 00044A                             8451                       END
                                    8455
 00044A 58E0 7D30/0DEE       010FC  8456                       VCALL CMDUNREC            Command is unrecognized
 000450 0000                        8460                       DC    H'0'                (no return)
 DROP   *,R7                        8461                       DROP  BR
1ORV      (ORV2025) (12:50) (15MAR04) WYLBUR's ORVYL Interface                                                              Page   14
0Current Usings:  (CP,R11) (CV,R12)
0Loc    Object Code    Addr1 Addr2  Stmt Lv Lineno    Source Statement           (Hibal 5, Asmedit 3.3)  HLASM R4.0  2004/03/15 12.50
+___    ______ ____    _____ _____  ____ __ ______    ______ _________
0                                   8469              ***
                                    8470              ***  WRITE EDIT Data Areas
                                    8471              ***
 000000                00000 00008  8472              WEDTORV  RECORD BEGIN              Write edit information from ORVYL
 000000                             8480  1                      DS    X                   Command code
                                    8481  1
 000001 00                          8482  1           WEDTOFLG   FLAG
 WEDTOFLG.WEDTNTYP 04 ONES          8486  1                      FLAG  (WEDTNTYP,4)        - Command is not-typed
                                    8495  1
 000002                             8496  1           WEDTOLEN   DS    H                   Command length
                                    8497  1
 000004                             8498  1                      DS    XL4                 Reserved
 000008                00008 00008  8499                       END
-000000                00000 00008  8509              WEDTWYL  RECORD BEGIN              Write edit information for ORVYL
 000000 00                          8517  1           WEDTRET    FLAG
 WEDTRET.WEDTCERR  10 EQ            8521  1                      FLAG  (WEDTCERR,16,EQ)    - Command error
                                    8531  1
 000001                             8532  1                      DS    XL6                 Reserved
                                    8533  1
 000007 00                          8534  1           WEDTFLAG   FLAG
 WEDTFLAG.WEDTATTN 04 ONES          8538  1                      FLAG  (WEDTATTN,4)        - Attn occurred
 000008                00008 00008  8547                       END
1ORV      (ORV2025) (12:50) (15MAR04) WYLBUR's ORVYL Interface                                                              Page   15
0Current Usings:  (CP,R11) (CV,R12)
0Loc    Object Code    Addr1 Addr2  Stmt Lv Lineno    Source Statement           (Hibal 5, Asmedit 3.3)  HLASM R4.0  2004/03/15 12.50
+___    ______ ____    _____ _____  ____ __ ______    ______ _________
0                                   8557              ¿þþþþþþþþþþþþþþþþþþþþþþþþþþþþþþþþþþþþþþþþþþþþþþþþþþþþþþþþþþþþþþþþþþþþþÜ
                                    8558              Ÿ                                                                     Ÿ
                                    8559              Ÿ  WREDIT -- Routine to process a WRITE EDIT request from ORVYL.      Ÿ
                                    8560              Ÿ                                                                     Ÿ
                                    8561              Ÿ    On entry:                                                        Ÿ
                                    8562              Ÿ      CPORVINF - contains control information                        Ÿ
                                    8563              Ÿ                                                                     Ÿ
                                    8564              Ÿ    There is no direct return from this routine.  Instead, when      Ÿ
                                    8565              Ÿ    the command passed by the WRITE EDIT request has completed,      Ÿ
                                    8566              Ÿ    control (eventually) goes to WEDTFIN.                            Ÿ
                                    8567              Ÿ                                                                     Ÿ
                                                      ¾þþþþþþþþþþþþþþþþþþþþþþþþþþþþþþþþþþþþþþþþþþþþþþþþþþþþþþþþþþþþþþþþþþþþþ»
0000452 0D70                        8568              WREDIT   BASE
 USING  *,R7
 000454 4160 B140            00140  8582                       LA    R6,CPORVINF
 USING  WEDTORV,R6                  8583                       WITH  (WEDTORV,R6),BEGIN
 000458 5820 C1C8            001C8  8597  1                      L     R2,CVCURJCB
 00045C 94FD 2062      00062        8598  1                      WITH  (JCB,R2),'CLEAR JCBFATTN'
 USING  JCB,R2
 DROP   JCB,R2
 000460 41F0 B050/58E0_      00050  8628  1                      TCLEAR
                                    8642  1
                                    8643  1                      COMMENT                   ORVYL in control
 00046A 9680 B47D      0047D        8644  1                      SET   CPFVCMD             Command for WYLBUR from ORVYL
                                    8650  1
 00046E 9610 B477      00477        8651  1                      SET   CPFTYPED            Assume it's a typed command
 000472 9104 6001/47E0_00001        8657  1                      IF    WEDTNTYP,'CLEAR CPFTYPED'  It's not typed
                                    8684  1
 00047E 5810 B070/4800_      00070  8685  1                      SETMSG L:CPSEGLOC,LH:WEDTOLEN  Command text
 000486 58E0 7CAC/0DEE       01100  8696  1                      VCALL EDTCOMMV            Execute the command
 DROP   WEDTORV,R6                  8700                       END
 00048C 0000                        8708                       DC    H'0'                (No return)
                                    8709
 DROP   *,R7                        8710                       DROP  BR
1ORV      (ORV2025) (12:50) (15MAR04) WYLBUR's ORVYL Interface                                                              Page   16
0Current Usings:  (CP,R11) (CV,R12)
0Loc    Object Code    Addr1 Addr2  Stmt Lv Lineno    Source Statement           (Hibal 5, Asmedit 3.3)  HLASM R4.0  2004/03/15 12.50
+___    ______ ____    _____ _____  ____ __ ______    ______ _________
0                                   8718                       ¿þþþþþþþþþþþþþþþþþþþþþþþþþþþþþþþþþþþþþþþþþþþþþþþþþþþþþþþþþÜ
                                    8719                       Ÿ  Handle the completion of the write edit.               Ÿ
                                    8720                       Ÿ                                                         Ÿ
                                    8721                       Ÿ  This routine returns control to ORVYL after ORVYL has  Ÿ
                                    8722                       Ÿ  passed a command to WYLBUR to execute.  This routine   Ÿ
                                    8723                       Ÿ  does not return.                                       Ÿ
                                    8724                       ¾þþþþþþþþþþþþþþþþþþþþþþþþþþþþþþþþþþþþþþþþþþþþþþþþþþþþþþþþþ»
 00048E 0D70                        8725              WEDTFIN  BASE
 USING  *,R7
                                    8739
                                    8740                       COMMENT                   INITIALIZE WORK AREAS
 000490 186D/41D0 D008              8741                       XPUSH ,,L'WEDTWYL,PTR=R6
 USING  WEDTWYL,R6                  8744                       USING WEDTWYL,R6
 000496 D707 6000 6000 00000 00000  8753                       CLEAR WEDTWYL
 00049C 5850 C1C8            001C8  8760                       L     R5,CVCURJCB
 USING  JCB,R5                      8761                       USING JCB,R5
                                    8770
                                    8771                       COMMENT                   Reset Cmd from ORVYL flag
 0004A0 947F B47D      0047D        8772                       CLEAR CPFVCMD
                                    8779
                                    8780                       COMMENT                   IF ERROR, SET ERR RETURN FOR ORVYL
 0004A4 9102 5062/4710_00062        8781                       IF    (JCBFATTN,OR,CPFERROR,OR,CPFABORT),BEGIN
 0004BC 9140 BD5A/47E0_00D5A        8822  1                      IF    CPFERROR,'SET WEDTCERR'  Command error
 0004C8 9180 BD5A/47E0_00D5A        8848  1                      IF    CPFABORT,'SET WEDTCERR'  Command error
 0004D4 9102 5062/47E0_00062        8874  1                      IF    JCBFATTN,'SET WEDTATTN'  Attn occurred
 0004E0 94FD 5062/943F_00062        8900  1                      CLEAR JCBFATTN,CPFABORT+CPFERROR,CPGFNCMD
 0004EC                             8920                       END
                                    8924
                                    8925                       COMMENT                   RETURN TO ORVYL
 0004EC 41F0 B050/58E0_      00050  8926                       TCLEAR
 0004F6 4110 B8BC/18F6_      008BC  8940                       TXCTL CPORVYL,WEDTWYL     Send completion to ORVYL
 000502 4770 707C            0050C  8959                       IF    Z,BEGIN             Process next request from ORVYL
 000506 58E0 7C68/0DEE       010F8  8970  1                      ACALL ORVRQST
 00050C                             8974                       END
                                    8978
 00050C 47F0 C7DE            007DE  8979                       B     CVNEXT
                                    8980
 DROP   *,R7                        8981                       DROP  BR
 DROP   JCB,R5                      8988                       DROP  R5
 DROP   WEDTWYL,R6                  8995                       DROP  R6
1ORV      (ORV2025) (12:50) (15MAR04) WYLBUR's ORVYL Interface                                                              Page   17
0Current Usings:  (CP,R11) (CV,R12)
0Loc    Object Code    Addr1 Addr2  Stmt Lv Lineno    Source Statement           (Hibal 5, Asmedit 3.3)  HLASM R4.0  2004/03/15 12.50
+___    ______ ____    _____ _____  ____ __ ______    ______ _________
0                                   9003              ***
                                    9004              ***  READ TEXT Data Areas
                                    9005              ***
 000000                00000 00008  9006              RTXTORV  RECORD BEGIN              Read text information from ORVYL
 000000                             9014  1                      DS    X                   Command code
                                    9015  1
 000001 00                          9016  1           RTXTOFLG   FLAG
 RTXTOFLG.RTXTFNLP 80 ONES          9020  1                      FLAG  RTXTFNLP            - Don't use locked page passing
                                    9025  1
 000002                             9026  1                      DS    XL4                 Reserved
                                    9027  1
 000006                             9028  1           RTXTRLEN   DS    H                   Length of user's receiving area
 000008                00008 00008  9029                       END
-000000                00000 00260  9039              RTXTWA   RECORD BEGIN
                                    9047  1                      ¿þþþþþþþþþþþþþþþþþþþþþþþþþþþþþþþþþþþþÜ
                                    9048  1                      Ÿ  Read text information for ORVYL.  Ÿ
                                    9049  1                      ¾þþþþþþþþþþþþþþþþþþþþþþþþþþþþþþþþþþþþ»
                                    9050  1           RTXTWYL    EQU   *,8,C'X'            Read text information for ORVYL
 000000 00                          9051  1           RTXTRET    FLAG
 RTXTRET.RTXTROK   00 EQ            9055  1                      FLAG  (RTXTROK,0,EQ)      - Success
 RTXTRET.RTXTRNOL  04 EQ            9065  1                      FLAG  (RTXTRNOL,4,EQ)     - No lines in range
 RTXTRET.RTXTRTOS  08 EQ            9075  1                      FLAG  (RTXTRTOS,8,EQ)     - User area is too small
 RTXTRET.RTXTRLKP  64 EQ            9085  1                      FLAG  (RTXTRLKP,100,EQ)   - Get ORVYL buffer addr/len
                                    9095  1
 000001 00                          9096  1           RTXTFLAG   FLAG
                                    9100  1
 000002                             9101  1           RTXTLEN    DS    H                   Length of text returned
 000004                             9102  1           RTXTNUM    DS    H                   Number of lines returned
 000006                             9103  1                      DS    H                   Reserved
                                    9104  1                      ¿þþþþþþþþþþþþþþþþþþþþþþþþþþþþþþþþþþþþþþþþþþþþþþþþÜ
                                    9105  1                      Ÿ  Additional READ TEXT information from ORVYL.  Ÿ
                                    9106  1                      ¾þþþþþþþþþþþþþþþþþþþþþþþþþþþþþþþþþþþþþþþþþþþþþþþþ»
                                    9107  1           RTXTINF    EQU   *,18,C'X'
 000008 00                          9108  1           RTXTOPT    FLAG
 RTXTOPT.RTXTOPT0  00 EQ            9112  1                      FLAG  (RTXTOPT0,0,EQ)     - Return RTXTFLIN line
 RTXTOPT.RTXTOPT1  01 EQ            9122  1                      FLAG  (RTXTOPT1,1,EQ)     - Return line before RTXTFLIN
 RTXTOPT.RTXTOPT2  02 EQ            9132  1                      FLAG  (RTXTOPT2,2,EQ)     - Return line after RTXTFLIN
 RTXTOPT.RTXTOPT3  03 EQ            9142  1                      FLAG  (RTXTOPT3,3,EQ)     - Return RTXTFLIN/RTXTLLIN
 RTXTOPT.RTXTOPT4  04 EQ            9152  1                      FLAG  (RTXTOPT4,4,EQ)     - Return lines which match string
 RTXTOPT.RTXTOPT5  05 EQ            9162  1                      FLAG  (RTXTOPT5,5,EQ)     - Option 4 with starting column
 RTXTOPT.RTXTOPT6  06 EQ            9172  1                      FLAG  (RTXTOPT6,6,EQ)     - Option 4 with fcolumn/lcolumn
                                    9182  1
 RTXTOPT.RTXTFNOT  80 ONES          9183  1                      FLAG  (RTXTFNOT,X'80')    - Notext (just line-numbers)
 RTXTOPT.RTXTFNUM  40 ONES          9192  1                      FLAG  (RTXTFNUM,X'40')    - Card with lineno in 73/80
 RTXTOPT.RTXTFINT  20 ONES          9201  1                      FLAG  (RTXTFINT,X'20')    - Card with int lineno in 73/80
                                    9210  1
 000009                             9211  1           RTXTLREC   DS    X                   Lrecl (0=none specified)
 00000A                             9212  1           RTXTMAXL   DS    H                   Maximum number of lines to return
 00000C                             9213  1           RTXTFLIN   DS    F                   Starting lineno
 000010                             9214  1           RTXTLLIN   DS    F                   Ending lineno
 000014                             9215  1           RTXTFCOL   DS    H                   Starting column (option 5,6)
 000016                             9216  1           RTXTLCOL   DS    H                   Ending column (option 6)
1ORV      (ORV2025) (12:50) (15MAR04) WYLBUR's ORVYL Interface                                                              Page   18
0Current Usings:  (CP,R11) (CV,R12)
0Loc    Object Code    Addr1 Addr2  Stmt Lv Lineno    Source Statement           (Hibal 5, Asmedit 3.3)  HLASM R4.0  2004/03/15 12.50
+___    ______ ____    _____ _____  ____ __ ______    ______ _________
0000018                             9217  1           RTXTSLEN   DS    H                   String length (option 4,5,6)
 00001A                             9218  1           RTXTSTR    DS    0C                  String
                                    9219  1                      ¿þþþþþþþþþþþþþþþþþþþþÜ
                                    9220  1                      Ÿ  Local work area.  Ÿ
                                    9221  1                      ¾þþþþþþþþþþþþþþþþþþþþ»
 00001C                             9222  1           RTXTSTKP   DS    A                   Saved stack ptr
 000020 00                          9223  1           RTXTLFLG   FLAG
 RTXTLFLG.RTXTLUNP 80 ONES          9227  1                      FLAG  RTXTLUNP            - Return unpressed lines
 RTXTLFLG.RTXTLINT 40 ONES          9232  1                      FLAG  RTXTLINT            - Seg buffer has been initialized
 RTXTLFLG.RTXTLTRN 20 ONES          9237  1                      FLAG  RTXTLTRN            - Buffer was truncated
                                    9242  1
                                    9243  1           RTXTLINE   DS    CL(&LINESZ)         Working line buffer
 000021                                   1          +RTXTLINE   DS    CL(235)             Working line buffer
                                    9244  1                      DS    XL(&PRESSZ-&LINESZ)
 00010C                                   1          +           DS    XL(256-235)
                                    9245  1
                                    9246  1           RTSG       SEGCB
 000124 00                          9247  1 01-SEGCB +$$$SEGCB128   DS 0F
 RTSGCOD.RTSGSEG   01 EQ
 RTSGCOD.RTSGWR    02 EQ
 RTSGCOD.RTSGCLR   03 EQ
 RTSGCOD.RTSGSPP   04 EQ
 RTSGCOD.RTSGOVF   05 EQ
 RTSGCOD.RTSGCR    06 EQ
 RTSGCOD.RTSGMAR   07 EQ
 000125 00                          9322  1 01-SEGCB +           DC    X'00'               Reserved
 000126 0000                              1          +
 000128 00000000                    9323  1 01-SEGCB +RTSGMAXF   DC    A(0)                Maximum buffer length
 00012C 00000000                    9324  1 01-SEGCB +RTSGMRKF   DC    A(0)                Length at last mark
 000130 00000000                    9325  1 01-SEGCB +RTSGLENF   DC    A(0)                Current length
 000134 00000000                    9326  1 01-SEGCB +RTSGINDF   DC    A(0)                Overflow/indent count
 000138 00000000                    9327  1 01-SEGCB +RTSGERR    DC    A(0)                Address of error recovery routine
 00013C 0000000000000000            9328  1 01-SEGCB +           DC    2F'0'               Reserved
 000144 00000000                    9329  1 01-SEGCB +RTSGLOC    DC    A(0)                Location of buffer
 000148 00000000                    9330  1 01-SEGCB +RTSGRTN    DC    A(0)                Processing routine
 00014C 0000000000000000            9331  1 01-SEGCB +           DC    4F'0'               Reserved
 00015C 00000000                    9332  1 01-SEGCB +RTSGUSR    DC    A(0)                USER field
                                    9333  1 01-SEGCB +RTSG       EQU   $$$SEGCB128,*-$$$SEGCB128,C'X'
 000160                             9334  1           RTXTBUF    DS    XL256               Working buffer
 000260                00260 00260  9335                       END
1ORV      (ORV2025) (12:50) (15MAR04) WYLBUR's ORVYL Interface                                                              Page   19
0Current Usings:  (CP,R11) (CV,R12)
0Loc    Object Code    Addr1 Addr2  Stmt Lv Lineno    Source Statement           (Hibal 5, Asmedit 3.3)  HLASM R4.0  2004/03/15 12.50
+___    ______ ____    _____ _____  ____ __ ______    ______ _________
0                                   9345              ¿þþþþþþþþþþþþþþþþþþþþþþþþþþþþþþþþþþþþþþþþþþþþþþþþþþþþþþþþþþþþþþþþþþþþþÜ
                                    9346              Ÿ                                                                     Ÿ
                                    9347              Ÿ  RDTEXT -- Routine to process a READ TEXT request from ORVYL.       Ÿ
                                    9348              Ÿ                                                                     Ÿ
                                    9349              Ÿ    On entry:                                                        Ÿ
                                    9350              Ÿ      CPORVINF - contains control information                        Ÿ
                                    9351              Ÿ                                                                     Ÿ
                                    9352              Ÿ    On exit, R15 (and cc):                                           Ÿ
                                    9353              Ÿ      0 - we have another request from ORVYL                         Ÿ
                                    9354              Ÿ      nz- ORVYL is not active (see TXCTL return codes)               Ÿ
                                    9355              Ÿ                                                                     Ÿ
                                                      ¾þþþþþþþþþþþþþþþþþþþþþþþþþþþþþþþþþþþþþþþþþþþþþþþþþþþþþþþþþþþþþþþþþþþþþ»
0000510 50E0 D000/9028_      00000  9356              RDTEXT   XENTER R2,R8,,LOCAL
 USING  *,R7
 00052A                             9374              RDBASE   LABEL
 00052A 186D/41D0 D260              9376                       XPUSH ,,L'RTXTWA,PTR=R6
 000530 5060 BCA4            00CA4  9379                       ST    R6,CPCWA
 USING  RTXTWA,R6                   9380                       USING RTXTWA,R6
 000534 D7FF 6000 6000_00000 00000  9389                       CLEAR RTXTWA
                                    9398
 000546 5080 601C            0001C  9399                       ST    WAR,RTXTSTKP        Save stack ptr (in case of abort)
                                    9400
 00054A 58F0 B070            00070  9401                       L     R15,CPSEGLOC
 00054E D211 6008 F000 00008 00000  9402                       MVC   RTXTINF,@R15        Save READ TEXT info
                                    9403                       ¿þþþþþþþþþþþþþþþþþþþþþþþþþþþþþþÜ
                                    9404                       Ÿ  Process READ TEXT request.  Ÿ
                                    9405                       ¾þþþþþþþþþþþþþþþþþþþþþþþþþþþþþþ»
 000554 9160 6008/4780_00008        9406                       IF    RTXTFNUM+RTXTFINT,'MVI RTXTLREC,80'  Implies lrecl=80
                                    9430
 000560 D503 7BDA 600C_01104 0000C  9431                       IF    (RTXTFLIN,EQ,-1),BEGIN  Lineno after last read edit...
 00056A 41F0 0001            00001  9449  1                      LA    R15,1
 00056E 5AF0 B14C            0014C  9450  1                      A     R15,CPORVLNO        Next lineno
 000572 50F0 600C            0000C  9451  1                      ST    R15,RTXTFLIN
 000576                             9452                       END
                                    9456
 000576 D603 6010 6010_00010 00010  9457                       IF    (RTXTLLIN,Z),'MVC RTXTLLIN,CVMAXLNO'  Last lineno
                                    9479
 000586 9101 B149/4710_00149        9480                       IF    ~CPOFPRST,'SET RTXTLUNP'  Unpressed format
 000592 9500 6009/4780_00009        9506                       IF    (RTXTLREC,NZ),'SET RTXTLUNP'
                                    9533
 00059E 4350 6008            00008  9534                       IC    R5,RTXTOPT          Option code
 0005A2 5450 7BDE            01108  9535                       N     R5,=A(X'F')
 0005A6 5950 7BE2/47D0_      0110C  9536                       CEIL  R5,6                Allow 0..6
                                    9555                       ¿þþþþþþþþþþþþþþþþþþþþþþþþþþþþþþþþþþþþþÜ
                                    9556                       Ÿ  Option 0:  Return line specified.  Ÿ
                                    9557                       ¾þþþþþþþþþþþþþþþþþþþþþþþþþþþþþþþþþþþþþ»
 0005B2 1255/4770 70B0              9558                       IF    (R5,Z),BEGIN
 0005B8 58F0 600C            0000C  9572  1                      L     R15,RTXTFLIN        Lineno
 0005BC 4110 6021/4100_      00021  9573  1                      SETMSG RTXTLINE            Line text area
 0005C4 58E0 7BE6/0DEE       01110  9587  1                      VCALL GETLINE             Get line text
 0005CA 4770 726E            00798  9591  1                      BNZ   RDTDONE             Not an exact match, scram
 0005CE 58F0 B73C            0073C  9592  1                      L     R15,CPLCNO
 0005D2 4DE0 7356            00880  9593  1                      LCALL RDTLINE
1ORV      (ORV2025) (12:50) (15MAR04) WYLBUR's ORVYL Interface                                                              Page   20
0Current Usings:  (RTXTWA,R6) (*,R7) (CP,R11) (CV,R12)
0Loc    Object Code    Addr1 Addr2  Stmt Lv Lineno    Source Statement           (Hibal 5, Asmedit 3.3)  HLASM R4.0  2004/03/15 12.50
+___    ______ ____    _____ _____  ____ __ ______    ______ _________
00005D6 47F0 726E            00798  9595  1                      B     RDTDONE
 0005DA                             9596                       END
                                    9600                       ¿þþþþþþþþþþþþþþþþþþþþþþþþþþþþþþþþþþþþþþþþþþþþþþþþþþþþþþþþÜ
                                    9601                       Ÿ  Option 1:  Return line before line-number specified.  Ÿ
                                    9602                       ¾þþþþþþþþþþþþþþþþþþþþþþþþþþþþþþþþþþþþþþþþþþþþþþþþþþþþþþþþ»
 0005DA 5950 7BEA/4770_      01114  9603                       IF    (R5,EQ,1),BEGIN
 0005E2 D203 B73C 600C 0073C 0000C  9620  1                      MVC   CPLCNO,RTXTFLIN
 0005E8 58E0 7BEE/0DEE       01118  9621  1                      VCALL PREVLNO             Get previous lineno
 0005EE 4740 726E            00798  9625  1                      BM    RDTDONE
 0005F2 58F0 B73C            0073C  9626  1                      L     R15,CPLCNO          Line-number
 0005F6 4110 6021/4100_      00021  9627  1                      SETMSG RTXTLINE            Text area
 0005FE 58E0 7BE6/0DEE       01110  9641  1                      VCALL GETLINE             Get line text
 000604 58F0 B73C            0073C  9645  1                      L     R15,CPLCNO          Line-number
 000608 4DE0 7356            00880  9646  1                      LCALL RDTLINE
 00060C 47F0 726E            00798  9648  1                      B     RDTDONE
 000610                             9649                       END
                                    9653                       ¿þþþþþþþþþþþþþþþþþþþþþþþþþþþþþþþþþþþþþþþþþþþþþþþþþþþþþþþÜ
                                    9654                       Ÿ  Option 2:  Return line after line-number specified.  Ÿ
                                    9655                       ¾þþþþþþþþþþþþþþþþþþþþþþþþþþþþþþþþþþþþþþþþþþþþþþþþþþþþþþþ»
 000610 5950 7BF2/4770_      0111C  9656                       IF    (R5,EQ,2),BEGIN
 000618 41F0 0001            00001  9673  1                      LA    R15,1
 00061C 5AF0 600C            0000C  9674  1                      A     R15,RTXTFLIN        Next lineno
 000620 4110 6021/4100_      00021  9675  1                      SETMSG RTXTLINE            Line text area
 000628 58E0 7BE6/0DEE       01110  9689  1                      VCALL GETLINE
 00062E 4740 726E            00798  9693  1                      BM    RDTDONE             Past end of file, scram
 000632 58F0 B73C            0073C  9694  1                      L     R15,CPLCNO
 000636 4DE0 7356            00880  9695  1                      LCALL RDTLINE
 00063A 47F0 726E            00798  9697  1                      B     RDTDONE
 00063E                             9698                       END
                                    9702                       ¿þþþþþþþþþþþþþþþþþþþþþþþþþþþþþþþþþþþþþþþþþþþþþþþÜ
                                    9703                       Ÿ  Option 3:  Return range of lines specified.  Ÿ
                                    9704                       ¾þþþþþþþþþþþþþþþþþþþþþþþþþþþþþþþþþþþþþþþþþþþþþþþ»
 00063E 5950 7BF6/4770_      01120  9705                       IF    (R5,EQ,3),BEGIN
 000646 5840 600C            0000C  9722  1                      L     R4,RTXTFLIN
 00064A                             9723  1                      LOOP  BEGIN               Go through lines...
 00064A 18F4                        9729  2                        LR    R15,R4
 00064C 4110 6021/4100_      00021  9730  2                        SETMSG RTXTLINE
 000654 58E0 7BE6/0DEE       01110  9744  2                        VCALL GETLINE
 00065A 4740 7154            0067E  9748  2                        IF    NEG,EXIT
                                    9762  2
 00065E 58F0 B73C            0073C  9763  2                        L     R15,CPLCNO
 000662 59F0 6010/4720_      00010  9764  2                        IF    (R15,GT,RTXTLLIN),EXIT  Past end, scram
                                    9784  2
 00066A 4DE0 7356            00880  9785  2                        LCALL RDTLINE             Add line to the buffer
 00066E 4770 7154            0067E  9787  2                        IF    NZ,EXIT
 000672 4140 0001            00001  9801  2                        LA    R4,1
 000676 5A40 B73C            0073C  9802  2                        A     R4,CPLCNO           Next lineno
 00067A 47F0 7120            0064A  9803  1                      END
 00067E 47F0 726E            00798  9808  1                      B     RDTDONE
 000682                             9809                       END
1ORV      (ORV2025) (12:50) (15MAR04) WYLBUR's ORVYL Interface                                                              Page   21
0Current Usings:  (RTXTWA,R6) (*,R7) (CP,R11) (CV,R12)
0Loc    Object Code    Addr1 Addr2  Stmt Lv Lineno    Source Statement           (Hibal 5, Asmedit 3.3)  HLASM R4.0  2004/03/15 12.50
+___    ______ ____    _____ _____  ____ __ ______    ______ _________
0                                   9813                       ¿þþþþþþþþþþþþþþþþþþþþþþþþþþþþþþþþþþþþþþþþþþþþþþþþþþþþþþþþþþþþþþÜ
                                    9814                       Ÿ  Option 4:  Return lines which match the associative range.  Ÿ
                                    9815                       Ÿ  Option 5:  Same as option 4, but with a starting column.    Ÿ
                                    9816                       Ÿ  Option 6:  Same as option 4, but with fcolumn/lcolumn.      Ÿ
                                    9817                       ¾þþþþþþþþþþþþþþþþþþþþþþþþþþþþþþþþþþþþþþþþþþþþþþþþþþþþþþþþþþþþþþ»
 000682 5950 7BFA/4750_      01124  9818                       IF    ((R5,GE,4),AND,(R5,LE,6)),BEGIN
 000692 D603 B5AC B5AC_005AC 005AC  9851  1                      IF    (CPALNCT,Z),RDTDONE  Nothing, scram
                                    9870  1
 00069C 4110 6160/4100_      00160  9871  1                      SEGINIT RTXTBUF,,RTSG
 0006AE 4110 7C9C/4100_      011C6  9898  1                      SEG   '"'
 0006C0 5820 B070            00070  9915  1                      L     R2,CPSEGLOC
 0006C4 4112 0012/4800_      00012  9916  1                      SEG   RTXTSTR-RTXTINF(R2),LH:RTXTSLEN  String
 0006D6 4110 7C9C/4100_      011C6  9942  1                      SEG   '"'
 0006E8 5950 7C02/4750_      0112C  9959  1                      IF    (R5,GE,5),'SEGDC LH:RTXTFCOL'  First column
 000700 5950 7BE2/4770_      0110C 10001  1                      IF    (R5,EQ,6),'SEG "/"; SEGDC LH:RTXTLCOL'  Last column
 00072A 4110 7C0A/4100_      01134 10060  1                      SEG   ' IN '
 00073C 5800 600C            0000C 10077  1                      L     R0,RTXTFLIN
 000740 58E0 7C0E/0DEE       01138 10078  1                      VCALL CVEXNO
 000746 41F0 6124/58E0_      00124 10082  1                      SEG   (R1),(R0)
 000750 4110 7C9D/4100_      011C7 10105  1                      SEG   '/'
 000762 5800 6010            00010 10122  1                      L     R0,RTXTLLIN
 000766 58E0 7C0E/0DEE       01138 10123  1                      VCALL CVEXNO
 00076C 41F0 6124/58E0_      00124 10127  1                      SEG   (R1),(R0)
                                   10150  1
 000776 4110 6160/5800_      00160 10151  1                      OSCINIT RTXTBUF,L:RTSGLENF  Range, as a user would type it
 000784 58E0 7C16/0DEE       01140 10171  1                      VCALL ZDETRNG             Scan range
                                   10175  1
 00078A 58F0 7316            00840 10176  1                      L     R15,RDTXTWRK
 00078E 58E0 7C1A/0DEE       01144 10177  1                      VCALL DESPOT              (Co-routine is RDTXTRTN)
 000794 47F0 726E            00798 10181  1                      B     RDTDONE
 000798                            10182                       END
                                   10186                       ¿þþþþþþþþþþþþþþþþþþþþþþþþþþþþþþþþþþþþþþÜ
                                   10187                       Ÿ  Send response to ORVYL with lines.  Ÿ
                                   10188                       ¾þþþþþþþþþþþþþþþþþþþþþþþþþþþþþþþþþþþþþþ»
 000798 41F0 B050/58E0_      00050 10189              RDTDONE  TCLEAR
                                   10203
 0007A2 9204 6000      00000       10204                       SET   RTXTRNOL            Assume no lines
                                   10210
 0007A6 9140 6020/47E0_00020       10211                       IF    RTXTLINT,BEGIN      We have some lines...
 0007AE 9200 6000      00000       10226  1                      SET   RTXTROK
 0007B2 D601 6004 6004_00004 00004 10232  1                      IF    ((RTXTNUM,Z),AND,RTXTLTRN),'SET RTXTRTOS'  Too small
 0007C8                            10273                       END
                                   10277                      ¿þþþþþþþþþþþþþþþþþþþþþþþþþþþþþþþþþþþþþþþþþþþþþþþþþþþþþþþþþþþþþþþþÜ
                                   10278                      Ÿ  For the new ORVYL the read text data is returned in the PDB.  Ÿ
                                   10279                      ¾þþþþþþþþþþþþþþþþþþþþþþþþþþþþþþþþþþþþþþþþþþþþþþþþþþþþþþþþþþþþþþþþ»
 0007C8 1B44                       10280                       CLEAR R4                  Flag: Old ORVYL
 0007CA 4150 B140            00140 10284                       LA    R5,CPORVINF
 USING  RTXTORV,R5                 10285                       WITH  (RTXTORV,R5),BEGIN
 0007CE 9140 6020/47E0_00020       10299  1                      IF    RTXTLINT,BEGIN      We have some lines...
 0007D6 9180 5001/47E0_00001       10314  2                        IF    ~RTXTFNLP,EXIT      Old style, scram
 0007DE 5800 6130            00130 10332  2                        L     R0,RTSGLENF         Amount of data we need to seg
 0007E2 5900 B054/47D0_      00054 10333  2                        IF    (R0,GT,CPSEGMAXF),'VCALL TSEGBUF'  Allocate larger
 0007F0 5810 6144/5800_      00144 10359  2                        TSEG  L:RTSGLOC,L:RTSGLENF  Seg READ TEXT data
 000802 4140 0001            00001 10385  2                        LA    R4,1                Flag: New ORVYL
1ORV      (ORV2025) (12:50) (15MAR04) WYLBUR's ORVYL Interface                                                              Page   22
0Current Usings:  (RTXTORV,R5) (RTXTWA,R6) (*,R7) (CP,R11) (CV,R12)
0Loc    Object Code    Addr1 Addr2  Stmt Lv Lineno    Source Statement           (Hibal 5, Asmedit 3.3)  HLASM R4.0  2004/03/15 12.50
+___    ______ ____    _____ _____  ____ __ ______    ______ _________
0000806                            10386  1                      END
 DROP   RTXTORV,R5                 10390                       END
                                   10398                     ¿þþþþþþþþþþþþþþþþþþþþþþþþþþþþþþþþþþþþþþþþþþþþþþþþþþþþþþþþþþþþþþþþþÜ
                                   10399                     Ÿ  For the old ORVYL the read text data is in the CSA buffer and  Ÿ
                                   10400                     Ÿ    only the current line-number is returned.                    Ÿ
                                   10401                     ¾þþþþþþþþþþþþþþþþþþþþþþþþþþþþþþþþþþþþþþþþþþþþþþþþþþþþþþþþþþþþþþþþþ»
 000806 1244/4770 72F4             10402                       IF    (R4,Z),BEGIN        Old ORVYL...
 00080C 4110 B14C/4100_      0014C 10416  1                      TSEG  CPORVLNO            Compatability--report last lineno
 00081E                            10444                       END
                                   10448              *
                                   10449              *
 00081E 4110 B8BC/41F0_      008BC 10450                       TXCTL CPORVYL,RTXTWYL     Send response to ORVYL
 00082C 5880 601C            0001C 10469                       L     WAR,RTXTSTKP        Restore stack ptr
 000830 18D8/58E0 D000_            10470                       XEXIT ,,LTR
 DROP   *,R7                       10476                       DROP  BR
1ORV      (ORV2025) (12:50) (15MAR04) WYLBUR's ORVYL Interface                                                              Page   23
0Current Usings:  (RTXTWA,R6) (CP,R11) (CV,R12)
0Loc    Object Code    Addr1 Addr2  Stmt Lv Lineno    Source Statement           (Hibal 5, Asmedit 3.3)  HLASM R4.0  2004/03/15 12.50
+___    ______ ____    _____ _____  ____ __ ______    ______ _________
0000840                            10484                       DS    0F
 000840 81                         10485              RDTXTWRK DC    AL1(DESRTRN+LOCATRTN+UNPRST)
 000841 000844                     10486                       DC    AL3(RDTXTRTN)
-                                  10488              ¿þþþþþþþþþþþþþþþþþþþþþþþþþþþþþþþþþþþþþþþþþþþþþþþþþþþþþþþþþþþþþþþþþþþþþÜ
                                   10489              Ÿ                                                                     Ÿ
                                   10490              Ÿ  RDTXTRTN -- Local routine to process lines from the range          Ÿ
                                   10491              Ÿ    processor for complicated READ TEXT requests (e.g.,              Ÿ
                                   10492              Ÿ    associative ranges).                                             Ÿ
                                   10493              Ÿ                                                                     Ÿ
                                   10494              Ÿ    On entry:                                                        Ÿ
                                   10495              Ÿ      R1,R0 - line loc, len                                          Ÿ
                                   10496              Ÿ                                                                     Ÿ
                                                      ¾þþþþþþþþþþþþþþþþþþþþþþþþþþþþþþþþþþþþþþþþþþþþþþþþþþþþþþþþþþþþþþþþþþþþþ»
0000844 50E0 D000/9008_      00000 10497              RDTXTRTN PROC
 USING  *,R7
 00085E 5870 78EE            0114C 10536                       BASE  RDBASE
 DROP   *,R7
 USING  RDBASE,R7
 000862 5860 BCA4            00CA4 10554                       L     R6,CPCWA
                                   10555
 000866 58F0 B73C            0073C 10556                       L     R15,CPLCNO
 00086A 4DE0 7356            00880 10557                       LCALL RDTLINE             Add line to buffer
 00086E 4770 726E            00798 10559                       BNZ   RDTDONE             Abort
 000872 18D8/9808 D004_            10560                       PEND
 DROP   RDBASE,R7
1ORV      (ORV2025) (12:50) (15MAR04) WYLBUR's ORVYL Interface                                                              Page   24
0Current Usings:  (RTXTWA,R6) (CP,R11) (CV,R12)
0Loc    Object Code    Addr1 Addr2  Stmt Lv Lineno    Source Statement           (Hibal 5, Asmedit 3.3)  HLASM R4.0  2004/03/15 12.50
+___    ______ ____    _____ _____  ____ __ ______    ______ _________
0000000                00000 00001 10581              RDTLWA   RECORD BEGIN
 000000                            10589  1           RDTLBYTE   DS    X                   Work byte
 000001                00001 00001 10590                       END
-                                  10600              ¿þþþþþþþþþþþþþþþþþþþþþþþþþþþþþþþþþþþþþþþþþþþþþþþþþþþþþþþþþþþþþþþþþþþþþÜ
                                   10601              Ÿ                                                                     Ÿ
                                   10602              Ÿ  RDTLINE -- Local routine to add a line to the read text buffer.    Ÿ
                                   10603              Ÿ                                                                     Ÿ
                                   10604              Ÿ    On entry:                                                        Ÿ
                                   10605              Ÿ      R15 - line-number                                              Ÿ
                                   10606              Ÿ      R1,R0 - line text loc, len                                     Ÿ
                                   10607              Ÿ                                                                     Ÿ
                                   10608              Ÿ    On exit, R15 (and cc):                                           Ÿ
                                   10609              Ÿ      0 - ok                                                         Ÿ
                                   10610              Ÿ      4 - buffer is full                                             Ÿ
                                   10611              Ÿ      8 - all done                                                   Ÿ
                                   10612              Ÿ                                                                     Ÿ
                                                      ¾þþþþþþþþþþþþþþþþþþþþþþþþþþþþþþþþþþþþþþþþþþþþþþþþþþþþþþþþþþþþþþþþþþþþþ»
0000880 50E0 D000/9008_      00000 10613              RDTLINE  PROC  RDTLWA
 USING  *,R7
 USING  RDTLWA-(4+36),R8
 00089A 1831                       10663                       LR    R3,R1               Text location...
 00089C 1820                       10664                       LR    R2,R0               ...and length
                                   10665                       ¿þþþþþþþþþþþþþþþþþþþþþþþþþþþþþþþþþþþþþþþþþþþþþþþþþþþþþþþþþþÜ
                                   10666                       Ÿ  Initialize the seg buffer, if not already initialized.  Ÿ
                                   10667                       ¾þþþþþþþþþþþþþþþþþþþþþþþþþþþþþþþþþþþþþþþþþþþþþþþþþþþþþþþþþþ»
 00089E 4DE0 7108            009A2 10668                       LCALL RDTINIT
 0008A2 4770 70FA            00994 10670                       BNZ   RDLEXIT
                                   10671                       ¿þþþþþþþþþþþþþþþþþþþþþþþþþþþþþþþþþþþþþþþþþÜ
                                   10672                       Ÿ  Add the line to the read text buffer.  Ÿ
                                   10673                       ¾þþþþþþþþþþþþþþþþþþþþþþþþþþþþþþþþþþþþþþþþþ»
 0008A6 9500 6009/4770_00009       10674                       IF    (RTXTLREC,Z),BEGIN
 0008AE 4110 B73C/4100_      0073C 10690  1                      SEG   CPLCNO              Seg lineno
 0008C0 4770 70F2            0098C 10717  1                      BNZ   RDLFULL
 0008C4                            10718                       END
                                   10722                       ¿þþþþþþþþþþþþþþþþþþþþþþþþþþþþþþþþþþþþþþþþþþþÜ
                                   10723                       Ÿ  Return line text in appropriate format.  Ÿ
                                   10724                       ¾þþþþþþþþþþþþþþþþþþþþþþþþþþþþþþþþþþþþþþþþþþþ»
 0008C4 9180 6008/4710_00008       10725                       IF    ~RTXTFNOT,BEGIN     Return line text...
 0008CC 9160 6008/4780_00008       10740  1                      IF    RTXTFNUM+RTXTFINT,BEGIN  Add lineno...
 0008D4 9120 6008/47E0_00008       10758  2                        IF    RTXTFINT,'SET CPLFLG5.CPNFINT'
 0008E0 5800 B73C            0073C 10785  2                        L     R0,CPLCNO
 0008E4 58E0 789E/0DEE       01138 10786  2                        VCALL CVEXNO              Make a printable lineno
 0008EA D207 3048 BC89 00048 00C89 10790  2                        MVC   @R3+72(8),CPDOUB+1
 0008F0 94F7 BD54      00D54       10791  2                        CLEAR CPLFLG5.CPNFINT
 0008F4                            10799  1                      END
                                   10803  1                      ¿þþþþþþþþþþþþþþþþþþþþþþþþþþþþþþþþþþþþþþÜ
                                   10804  1                      Ÿ  Return a regular (unpressed) line.  Ÿ
                                   10805  1                      ¾þþþþþþþþþþþþþþþþþþþþþþþþþþþþþþþþþþþþþþ»
 0008F4 9180 6020/47E0_00020       10806  1                      IF    RTXTLUNP,BEGIN      Unpressed...
 0008FC 9500 6009/4780_00009       10821  2                        IF    (RTXTLREC,NZ),'LC R2,RTXTLREC'
                                   10849  2
1ORV      (ORV2025) (12:50) (15MAR04) WYLBUR's ORVYL Interface                                                              Page   25
0Current Usings:  (RTXTWA,R6) (*,R7) (RDTLWA-(4+36),R8) (CP,R11) (CV,R12)
0Loc    Object Code    Addr1 Addr2  Stmt Lv Lineno    Source Statement           (Hibal 5, Asmedit 3.3)  HLASM R4.0  2004/03/15 12.50
+___    ______ ____    _____ _____  ____ __ ______    ______ _________
000090A 7074/47F0 708E 0090A 00902 10850  2                        ELSE  BEGIN               Add length byte to buffer...
 00090E 4220 8028            00000 10861  3                          STC   R2,RDTLBYTE
 000912 4110 8028/4100_      00000 10862  3                          SEG   RDTLBYTE,1          Seg length byte
 000924 4770 70F2            0098C 10891  3                          BNZ   RDLFULL
 000928                            10892  2                        END
                                   10896  2
 000928 1813/1802                  10897  2                        SETMSG (R3),(R2)           Assume regular line text
 00092C                            10909  1                      END
                                   10913  1                      ¿þþþþþþþþþþþþþþþþþþþþþþþþþþþþþþþþþþþþþþþþþþþþþþþþþþþþþþþþþþþþþþþÜ
                                   10914  1                      Ÿ  For compatibility, if the user wants a pressed line we will  Ÿ
                                   10915  1                      Ÿ    press the line.                                            Ÿ
                                   10916  1                      ¾þþþþþþþþþþþþþþþþþþþþþþþþþþþþþþþþþþþþþþþþþþþþþþþþþþþþþþþþþþþþþþþ»
 00092C 7096/47F0 70AC 0092C 008FA 10917  1                      ELSE  BEGIN               Otherwise return pressed line...
 000930 58F0 B73C            0073C 10928  2                        L     R15,CPLCNO
 000934 1813/1802                  10929  2                        SETMSG (R3),(R2)
 000938 58E0 78B6/0DEE       01150 10941  2                        VCALL PRESS               Make a pressed line
 00093E 4110 1004            00004 10945  2                        LA    R1,@R1+4            Point past lineno
 000942 5A00 78BA            01154 10946  2                        A     R0,=F'1'            Length must include length byte
 000946                            10947  1                      END
                                   10951  1
 000946 41F0 6124/58E0_      00124 10952  1                      SEG   (R1),(R0)           Add line text
 000950 4770 70F2            0098C 10975  1                      BNZ   RDLFULL
 000954                            10976                       END
                                   10980
 000954 D203 B14C B73C 0014C 0073C 10981                       MVC   CPORVLNO,CPLCNO     Remember last lineno
 00095A D201 6002 6132 00002 00132 10982                       MVC   RTXTLEN,RTSGLENF+2  Save length
 000960 41F0 0001/4AF0_      00001 10983                       INCR  R15,RTXTNUM         No. of lines
 00096C 1BFF                       10989                       CLEAR R15                 Assume good rc
                                   10993
 00096E 4800 600A/1200_      0000A 10994                       IF    ('LTH R0,RTXTMAXL',POS),BEGIN  Counting the lines...
 000978 0600                       11010  1                      DECR  R0                  One less now
 00097A 1200/4770 70EA_            11012  1                      IF    (R0,Z),'LA R15,8'   All done
 000984 4000 600A            0000A 11032  1                      STH   R0,RTXTMAXL
 000988                            11033                       END
 000988 47F0 70FA            00994 11037                       B     RDLEXIT
                                   11038
 00098C 9620 6020      00020       11039              RDLFULL  SET   RTXTLTRN            Truncated response
 000990 41F0 0004            00004 11046                       LA    R15,4
 000994 18D8/9808 D004_            11047              RDLEXIT  PEND
 DROP   RDTLWA-(4+36),R8
 DROP   *,R7
1ORV      (ORV2025) (12:50) (15MAR04) WYLBUR's ORVYL Interface                                                              Page   26
0Current Usings:  (RTXTWA,R6) (CP,R11) (CV,R12)
0Loc    Object Code    Addr1 Addr2  Stmt Lv Lineno    Source Statement           (Hibal 5, Asmedit 3.3)  HLASM R4.0  2004/03/15 12.50
+___    ______ ____    _____ _____  ____ __ ______    ______ _________
0                                  11074              ¿þþþþþþþþþþþþþþþþþþþþþþþþþþþþþþþþþþþþþþþþþþþþþþþþþþþþþþþþþþþþþþþþþþþþþÜ
                                   11075              Ÿ                                                                     Ÿ
                                   11076              Ÿ  RDTINIT -- Local routine to initialize the READ TEXT buffer.       Ÿ
                                   11077              Ÿ                                                                     Ÿ
                                   11078              Ÿ    On exit, R15 (and cc):                                           Ÿ
                                   11079              Ÿ      0 - ok                                                         Ÿ
                                   11080              Ÿ      8 - ORVYL died (or something strange)                          Ÿ
                                   11081              Ÿ                                                                     Ÿ
                                   11082              Ÿ                                                                     Ÿ
                                                      ¾þþþþþþþþþþþþþþþþþþþþþþþþþþþþþþþþþþþþþþþþþþþþþþþþþþþþþþþþþþþþþþþþþþþþþ»
00009A2 50E0 D000/9028_      00000 11083              RDTINIT  XENTER  R2,R8,,LOCAL
 USING  *,R7
 0009BC 9140 6020/4710_00020       11101                       IF    ~RTXTLINT,BEGIN     Not yet initialized...
 0009C4 4150 B140            00140 11116  1                      LA    R5,CPORVINF
 USING  RTXTORV,R5                 11117  1                      WITH  (RTXTORV,R5)
                                   11130  1                   ¿þþþþþþþþþþþþþþþþþþþþþþþþþþþþþþþþþþþþþþþþþþþþþþþþþþþþþþþþþþþþþþþþþþÜ
                                   11131  1                   Ÿ    ORVYL 5.0 does not use the old "locked page" passing scheme.  Ÿ
                                   11132  1                   Ÿ  All READ TEXT requests coming from the new ORVYL will have the  Ÿ
                                   11133  1                   Ÿ     "no locked page passing" flag on.                            Ÿ
                                   11134  1                   ¾þþþþþþþþþþþþþþþþþþþþþþþþþþþþþþþþþþþþþþþþþþþþþþþþþþþþþþþþþþþþþþþþþþ»
 0009C8 9180 5001/47E0_00001       11135  1                      IF    RTXTFNLP,BEGIN      No locked page passing mode...
 0009D0 4800 5006            00006 11150  2                        LH    R0,RTXTRLEN
 0009D4 1200/47B0 7020_            11151  2                        IF    (R0,NEG),'CLEAR R0'
 0009DC 5900 779C/47D0_      01158 11174  2                        IF    (R0,GT,=A(8192)),'L R0,=A(8192)'  Universal maximum
 0009E8 58E0 77A0/0DEE       0115C 11196  2                        VCALL GETHEAP             Get local heap space for buffer
 0009EE 41F0 6124/58E0_      00124 11200  2                        SEGINIT (R1),(R0),RTSG
 0009F8                            11223  1                      END
                                   11227  1
 0009F8 7040/47F0 707E 009F8 009CE 11228  1                      ELSE  BEGIN               Locked page style...
                                   11239  2                  ¿þþþþþþþþþþþþþþþþþþþþþþþþþþþþþþþþþþþþþþþþþþþþþþþþþþþþþþþþþþþþþþþþþþþþþþÜ
                                   11240  2                  Ÿ  ORVYL has a READ TEXT buffer in CSA (commonly addressable memory).  Ÿ
                                   11241  2                  Ÿ    We use that buffer as our seg buffer for the read text results.   Ÿ
                                   11242  2                  Ÿ    Passing data this way instead of sending it directly in the PDB   Ÿ
                                   11243  2                  Ÿ       is called a "locked page pass" for historical reasons.  Some   Ÿ
                                   11244  2                  Ÿ     poor soul probably even thought this was a temporary solution.   Ÿ
                                   11245  2                  ¾þþþþþþþþþþþþþþþþþþþþþþþþþþþþþþþþþþþþþþþþþþþþþþþþþþþþþþþþþþþþþþþþþþþþþþ»
 0009FC 9264 6000      00000       11246  2                        SET   RTXTRLKP
 000A00 4110 B8BC/41F0_      008BC 11252  2                        TXCTL CPORVYL,RTXTWYL     Get buffer ptr from ORVYL
 000A0E 4770 7084            00A40 11271  2                        BNZ   RDIEXIT             (ORVYL died)
                                   11272  2
 000A12 41F0 0008            00008 11273  2                        LA    R15,8               Assume bad rc
 000A16 9104 B140/47E0_00140       11274  2                        IF    ~CPFLKPP,RDIEXIT    (something weird happened)
 000A1E 5900 77A4/4770_      01160 11292  2                        IF    (R0,NE,12),RDIEXIT  (response length is wrong)
                                   11312  2
 000A26 1821                       11313  2                        LR    R2,R1
 000A28 5810 2000/4800_      00000 11314  2                        SEGINIT L:@R2,LH:@R2+8,RTSG
 000A3A                            11338  1                      END
                                   11342  1           *
                                   11343  1           *
 000A3A 9640 6020      00020       11344  1                      SET   RTXTLINT            Seg buffer is initialized
 DROP   RTXTORV,R5                 11350                       END
                                   11359              *
                                   11360              *
1ORV      (ORV2025) (12:50) (15MAR04) WYLBUR's ORVYL Interface                                                              Page   27
0Current Usings:  (RTXTWA,R6) (*,R7) (CP,R11) (CV,R12)
0Loc    Object Code    Addr1 Addr2  Stmt Lv Lineno    Source Statement           (Hibal 5, Asmedit 3.3)  HLASM R4.0  2004/03/15 12.50
+___    ______ ____    _____ _____  ____ __ ______    ______ _________
0000A3E 1BFF                       11361                       CLEAR R15
 000A40 18D8/58E0 D000_            11365              RDIEXIT  XEXIT ,,LTR
                                   11371
 DROP   RTXTWA,R6                  11372                       DROP  RTXTWA,BR
 DROP   *,R7
1ORV      (ORV2025) (12:50) (15MAR04) WYLBUR's ORVYL Interface                                                              Page   28
0Current Usings:  (CP,R11) (CV,R12)
0Loc    Object Code    Addr1 Addr2  Stmt Lv Lineno    Source Statement           (Hibal 5, Asmedit 3.3)  HLASM R4.0  2004/03/15 12.50
+___    ______ ____    _____ _____  ____ __ ______    ______ _________
0                                  11387              ***
                                   11388              ***  WRITE TEXT Data Areas
                                   11389              ***
 000000                00000 00008 11390              WTXTORV  RECORD BEGIN              Write text information from ORVYL
 000000                            11398  1                      DS    X                   Command code
                                   11399  1
 000001 00                         11400  1           WTXTOFLG   FLAG
 WTXTOFLG.WTXTFLKP 04 ONES         11404  1                      FLAG  (WTXTFLKP,X'04')    - PDB contains buffer ptr
                                   11413  1
 000002                            11414  1           WTXTLEN    DS    H                   Total text length
 000004                            11415  1           WTXTNUM    DS    H                   No. of lines being passed/deleted
                                   11416  1
 000006 00                         11417  1           WTXTOPT    FLAG
 WTXTOPT.WTXTOPT0  00 EQ           11421  1                      FLAG  (WTXTOPT0,0,EQ)     - Insert/replace lines
 WTXTOPT.WTXTOPT1  01 EQ           11431  1                      FLAG  (WTXTOPT1,1,EQ)     - Replace lines only
 WTXTOPT.WTXTOPT2  02 EQ           11441  1                      FLAG  (WTXTOPT2,2,EQ)     - Insert lines only
 WTXTOPT.WTXTOPT3  03 EQ           11451  1                      FLAG  (WTXTOPT3,3,EQ)     - Delete lines
 WTXTOPT.WTXTOPT4  04 EQ           11461  1                      FLAG  (WTXTOPT4,4,EQ)     - LRECL option (append lines)
 WTXTOPT.WTXTOPT5  05 EQ           11471  1                      FLAG  (WTXTOPT5,5,EQ)     - NUMBERED option (insert only)
 WTXTOPT.WTXTOPT6  06 EQ           11481  1                      FLAG  (WTXTOPT6,6,EQ)     - (Same as WTXTOPT5)
                                   11491  1
 000007                            11492  1           WTXTLREC   DS    X                   Lrecl
                                   11493  1
 000008                00008 00008 11494                       END
-000000                00000 00110 11504              WTXTWA   RECORD BEGIN
                                   11512  1                      ¿þþþþþþþþþþþþþþþþþþþþþþþþþþþþþþþþþþþþþÜ
                                   11513  1                      Ÿ  Write text information for ORVYL.  Ÿ
                                   11514  1                      ¾þþþþþþþþþþþþþþþþþþþþþþþþþþþþþþþþþþþþþ»
                                   11515  1           WTXTWYL    EQU   *,8,C'X'            Write text information for ORVYL
 000000 00                         11516  1           WTXTRET    FLAG
 WTXTRET.WTXTROK   00 EQ           11520  1                      FLAG  (WTXTROK,0,EQ)      - Success
 WTXTRET.WTXTRLEN  04 EQ           11530  1                      FLAG  (WTXTRLEN,4,EQ)     - Success; lines over length
 WTXTRET.WTXTRTRN  08 EQ           11540  1                      FLAG  (WTXTRTRN,8,EQ)     - Lines were truncated
 WTXTRET.WTXTRFUL  0C EQ           11550  1                      FLAG  (WTXTRFUL,12,EQ)    - ACTIVE file is full
 WTXTRET.WTXTRNOL  10 EQ           11560  1                      FLAG  (WTXTRNOL,16,EQ)    - No line exists
 WTXTRET.WTXTRDUP  14 EQ           11570  1                      FLAG  (WTXTRDUP,20,EQ)    - Line already exists
 WTXTRET.WTXTRBAD  18 EQ           11580  1                      FLAG  (WTXTRBAD,24,EQ)    - Illegal control number/text
 WTXTRET.WTXTRBLN  1C EQ           11590  1                      FLAG  (WTXTRBLN,28,EQ)    - Lineno too big
                                   11600  1
 000001 00                         11601  1           WTXTFLAG   FLAG
                                   11605  1
 000002                            11606  1                      DS    XL4                 Reserved
                                   11607  1
 000006                            11608  1           WTXTRES    DS    H                   Residual byte count
                                   11609  1                      ¿þþþþþþþþþþþþþþþþþþþþÜ
                                   11610  1                      Ÿ  Local work area.  Ÿ
                                   11611  1                      ¾þþþþþþþþþþþþþþþþþþþþ»
 000008                            11612  1           WTXTPTRS   DS    2A                  Working data len, loc
                                   11613  1           WTXTLBUF   DS    CL(&PRESSZ)         Working line buffer
 000010                                   1          +WTXTLBUF   DS    CL(256)             Working line buffer
 000110                00110 00110 11614                       END
1ORV      (ORV2025) (12:50) (15MAR04) WYLBUR's ORVYL Interface                                                              Page   29
0Current Usings:  (CP,R11) (CV,R12)
0Loc    Object Code    Addr1 Addr2  Stmt Lv Lineno    Source Statement           (Hibal 5, Asmedit 3.3)  HLASM R4.0  2004/03/15 12.50
+___    ______ ____    _____ _____  ____ __ ______    ______ _________
0                                  11624              ¿þþþþþþþþþþþþþþþþþþþþþþþþþþþþþþþþþþþþþþþþþþþþþþþþþþþþþþþþþþþþþþþþþþþþþÜ
                                   11625              Ÿ                                                                     Ÿ
                                   11626              Ÿ  WRTEXT -- Routine to process a WRITE TEXT request from ORVYL.      Ÿ
                                   11627              Ÿ                                                                     Ÿ
                                   11628              Ÿ    On entry:                                                        Ÿ
                                   11629              Ÿ      CPORVINF - contains control information                        Ÿ
                                   11630              Ÿ                                                                     Ÿ
                                   11631              Ÿ    On exit, R15 (and cc):                                           Ÿ
                                   11632              Ÿ      0 - we have another request from ORVYL                         Ÿ
                                   11633              Ÿ      nz- ORVYL is not active (see TXCTL return codes)               Ÿ
                                   11634              Ÿ                                                                     Ÿ
                                                      ¾þþþþþþþþþþþþþþþþþþþþþþþþþþþþþþþþþþþþþþþþþþþþþþþþþþþþþþþþþþþþþþþþþþþþþ»
0000A4E 50E0 D000/9028_      00000 11635              WRTEXT   XENTER R2,R8,,LOCAL
 USING  *,R7
 000A68 186D/41D0 D110             11653                       XPUSH ,,L'WTXTWA,PTR=R6
 USING  WTXTWA,R6                  11656                       USING WTXTWA,R6
 000A6E D7FF 6000 6000_00000 00000 11665                       CLEAR WTXTWA
                                   11673
 000A7A 4150 B140            00140 11674                       LA    R5,CPORVINF
 USING  WTXTORV,R5                 11675                       USING WTXTORV,R5
                                   11684
 000A7E 5810 B070/4800_      00070 11685                       SETMSG L:CPSEGLOC,LH:WTXTLEN  data ptrs
 000A86 9104 5001/47E0_00001       11696                       IF    WTXTFLKP,'L R1,@R1'  locked page pass
 000A92 9001 6008            00008 11717                       STM   R0,R1,WTXTPTRS      Save data len, loc
                                   11718                       ¿þþþþþþþþþþþþþþþþþþþþþþþþþþþþþþþÜ
                                   11719                       Ÿ  Process WRITE TEXT request.  Ÿ
                                   11720                       ¾þþþþþþþþþþþþþþþþþþþþþþþþþþþþþþþ»
 000A96 1F44/4340 5006             11721                       LC    R4,WTXTOPT          Option code
 000A9C 5940 76A4/47D0_      0110C 11728                       CEIL  R4,6                Allow 0..6
                                   11747                       ¿þþþþþþþþþþþþþþþþþþþþþþþþþþþþþþþþþþþþþþþÜ
                                   11748                       Ÿ  Option 0:  Insert or Replace lines.  Ÿ
                                   11749                       Ÿ  Option 1:  Replace lines only.       Ÿ
                                   11750                       Ÿ  Option 2:  Insert lines only.        Ÿ
                                   11751                       ¾þþþþþþþþþþþþþþþþþþþþþþþþþþþþþþþþþþþþþþþ»
 000AA8 5940 76FC/4750_      01164 11752                       IF    ((R4,GE,0),AND,(R4,LE,2)),BEGIN
 000AB8 58E0 7700/0DEE       01168 11785  1                      VCALL ACTFULL             Is the Active file (almost) full?
 000ABE 4780 7062            00ACA 11789  1                      IF    NZ,BEGIN            Yes...
 000AC2 920C 6000      00000       11800  2                        SET   WTXTRFUL            Active file is full
 000AC6 47F0 7252            00CBA 11806  2                        B     WRTEXIT
 000ACA                            11807  1                      END
                                   11811  1
 000ACA 5940 76AC/4770_      01114 11812  1                      IF    (R4,EQ,1),'SET CPLFLG4.CPFSTREP'
 000AD6 5940 76B4/4770_      0111C 11841  1                      IF    (R4,EQ,2),'SET CPLFLG4.CPFSTINS'
                                   11870  1
 000AE2                            11871  1                      LOOP  BEGIN
 000AE2 4DE0 7276            00CDE 11877  2                        LCALL WRTLINE             Get a (pressed) line
 000AE6 4770 7252            00CBA 11879  2                        BNZ   WRTEXIT             All done, scram
                                   11880  2
 000AEA D603 B5AC B5AC_005AC 005AC 11881  2                        IF    (CPALNCT,Z),BEGIN   First line...
 000AF4 D507 7618 B588_01080 00588 11897  3                          IF    (CPANAME,EQ,=CL8'NEW'),'MVC CPANAME,=CL8"ORVYL"'
 000B04 D64F B5D6 B5D6_005D6 005D6 11920  3                          IF    (CPATITL,Z),BEGIN
 000B0E D24F B5D6 7628 005D6 01090 11936  4                            MVC   CPATITL,=CL(L'CPATITL)'Text from ORVYL'
 000B14 D607 B39C B39C_0039C 0039C 11937  4                            IF    ((CPSVPGM,Z),OR,(CPSVPGM,EQ,' ')),EXIT
1ORV      (ORV2025) (12:50) (15MAR04) WYLBUR's ORVYL Interface                                                              Page   30
0Current Usings:  (WTXTORV,R5) (WTXTWA,R6) (*,R7) (CP,R11) (CV,R12)
0Loc    Object Code    Addr1 Addr2  Stmt Lv Lineno    Source Statement           (Hibal 5, Asmedit 3.3)  HLASM R4.0  2004/03/15 12.50
+___    ______ ____    _____ _____  ____ __ ______    ______ _________
0000B26 D506 7760 B39C_011C8 0039C 11972  4                            IF    (CPSVPGM,EQ,'DISPLAY'),EXIT  (Avoid embarrassing msg)
 000B30 9261 B5E5      005E5       11992  4                            MVI   CPATITL+15,C'/'
 000B34 D207 B5E6 B39C 005E6 0039C 11993  4                            MVC   CPATITL+16(8),CPSVPGM  Program name
 000B3A                            11994  3                          END
 000B3A                            11998  2                        END
                                   12002  2
 000B3A 58E0 7704/0DEE       0116C 12003  2                        VCALL STOW                Add it to the ACTIVE file
 000B40 4780 70F0            00B58 12007  2                        IF    NZ,BEGIN            Can't insert/replace...
 000B44 9214 6000      00000       12018  3                          SET   WTXTRDUP            Already exists
 000B48 5940 76AC/4770_      01114 12024  3                          IF    (R4,EQ,1),'SET WTXTRNOL'  ...or not found
 000B54 47F0 7252            00CBA 12052  3                          B     WRTEXIT
 000B58                            12053  2                        END
 000B58 47F0 707A            00AE2 12057  1                      END
 000B5C 47F0 7252            00CBA 12062  1                      B     WRTEXIT
 000B60                            12063                       END
                                   12067                       ¿þþþþþþþþþþþþþþþþþþþþþþþþþþþþÜ
                                   12068                       Ÿ  Option 3:  Delete lines.  Ÿ
                                   12069                       ¾þþþþþþþþþþþþþþþþþþþþþþþþþþþþ»
 000B60 5940 76B8/4770_      01120 12070                       IF    (R4,EQ,3),BEGIN
 000B68                            12087  1                      LOOP  BEGIN
 000B68 9823 6008            00008 12093  2                        LM    R2,R3,WTXTPTRS
 000B6C 5920 76BC/4740_      01124 12094  2                        IF    (R2,LT,4),EXIT      All done, scram
 000B74 5800 3000            00000 12114  2                        L     R0,@R3
 000B78 1810                       12115  2                        LR    R1,R0
 000B7A 58E0 7708/0DEE       01170 12116  2                        VCALL DELRANGE            Delete line
 000B80 4780 7124            00B8C 12120  2                        IF    NZ,BEGIN            Line doesn't exist...
 000B84 9210 6000      00000       12131  3                          SET   WTXTRNOL
 000B88 47F0 7252            00CBA 12137  3                          B     WRTEXIT
 000B8C                            12138  2                        END
                                   12142  2
 000B8C 4130 3004            00004 12143  2                        LA    R3,@R3+4            Next line-number
 000B90 4B20 774A            011B2 12144  2                        SH    R2,=H'4'
 000B94 9023 6008            00008 12145  2                        STM   R2,R3,WTXTPTRS      Save updated ptrs (in case abort)
 000B98 47F0 7100            00B68 12146  1                      END
 000B9C 47F0 7252            00CBA 12151  1                      B     WRTEXIT
 000BA0                            12152                       END
                                   12156                      ¿þþþþþþþþþþþþþþþþþþþþþþþþþþþþþþþþþþþþþþþþþþþþþþþþþþþþþþþþþþþþþþþþÜ
                                   12157                      Ÿ   Option 4:  Append lines.                                     Ÿ
                                   12158                      Ÿ  Option 5:  Insert lines (line-numbers are in columns 73/80).  Ÿ
                                   12159                      Ÿ   Option 6:  (Same as option 5.)                               Ÿ
                                   12160                      ¾þþþþþþþþþþþþþþþþþþþþþþþþþþþþþþþþþþþþþþþþþþþþþþþþþþþþþþþþþþþþþþþþ»
 000BA0 5940 76BC/4750_      01124 12161                       IF    ((R4,GE,4),AND,(R4,LE,6)),BEGIN
 000BB0 58E0 7700/0DEE       01168 12194  1                      VCALL ACTFULL             Is the Active file (almost) full?
 000BB6 4780 715A            00BC2 12198  1                      IF    NZ,BEGIN            Yes...
 000BBA 920C 6000      00000       12209  2                        SET   WTXTRFUL            Active file is full
 000BBE 47F0 7252            00CBA 12215  2                        B     WRTEXIT
 000BC2                            12216  1                      END
                                   12220  1
 000BC2 1FFF/43F0 5007             12221  1                      LC    R15,WTXTLREC        LRECL to be used
 000BC8 12FF/4780 716E_            12228  1                      IF    ((R15,Z),OR,(R15,GT,&LINESZ)),BEGIN  Out of bounds...
 000BD6 9218 6000      00000       12258  2                        SET   WTXTRBAD
 000BDA 47F0 7252            00CBA 12264  2                        B     WRTEXIT
 000BDE                            12265  1                      END
                                   12269  1
1ORV      (ORV2025) (12:50) (15MAR04) WYLBUR's ORVYL Interface                                                              Page   31
0Current Usings:  (WTXTORV,R5) (WTXTWA,R6) (*,R7) (CP,R11) (CV,R12)
0Loc    Object Code    Addr1 Addr2  Stmt Lv Lineno    Source Statement           (Hibal 5, Asmedit 3.3)  HLASM R4.0  2004/03/15 12.50
+___    ______ ____    _____ _____  ____ __ ______    ______ _________
0000BDE                            12270  1                      LOOP  BEGIN               Go through buffer...
 000BDE 1FFF/43F0 5007             12276  2                        LC    R15,WTXTLREC
 000BE4 9801 6008            00008 12283  2                        LM    R0,R1,WTXTPTRS      Current buffer len, loc
 000BE8 190F/4740 724E             12284  2                        IF    (R0,LT,R15),EXIT    All done, scram
 000BEE 06F0/12FF/4740_            12302  2                        MOVE  R15,WTXTLBUF,@R1
                                   12340  2
 000BFA 5940 76BC/4770_      01124 12341  2                        IF    (R4,EQ,4),BEGIN     Calculate end lineno...
 000C02 58E0 7710/0DEE       01178 12358  3                          VCALL ENDLNO              Get END line-number
 000C08 18F0                       12362  3                          LR    R15,R0              Lineno
 000C0A 4110 6010/1F00_      00010 12363  3                          SETMSG WTXTLBUF,LC:WTXTLREC
 000C14                            12380  2                        END
                                   12384  2
 000C14 71B0/47F0 71C4 00C14 00C00 12385  2                        ELSE  BEGIN               Numbered card image...
 000C18 4110 6058/4100_      00058 12396  3                          SETMSG WTXTLBUF+72,8       Columns 73/80
 000C20 4DE0 733C            00DA4 12412  3                          LCALL WRTLNO              Get line-number
 000C24 4110 6010/4100_      00010 12414  3                          SETMSG WTXTLBUF,72
 000C2C                            12430  2                        END
                                   12434  2
 000C2C 12FF/4740 71D2_            12435  2                        IF    ((R15,NEG),OR,(R15,GT,CVMAXLNO)),BEGIN  Bad lineno...
 000C3A 9218 6000      00000       12465  3                          SET   WTXTRBAD            Bad line-number
 000C3E 47F0 7252            00CBA 12471  3                          B     WRTEXIT
 000C42                            12472  2                        END
                                   12476  2
 000C42 D603 B5AC B5AC_005AC 005AC 12477  2                        IF    (CPALNCT,Z),BEGIN   First line...
 000C4C D507 7618 B588_01080 00588 12493  3                          IF    (CPANAME,EQ,=CL8'NEW'),'MVC CPANAME,=CL8"ORVYL"'
 000C5C D64F B5D6 B5D6_005D6 005D6 12516  3                          IF    (CPATITL,Z),BEGIN
 000C66 D24F B5D6 7628 005D6 01090 12532  4                            MVC   CPATITL,=CL(L'CPATITL)'Text from ORVYL'
 000C6C D607 B39C B39C_0039C 0039C 12533  4                            IF    ((CPSVPGM,Z),OR,(CPSVPGM,EQ,' ')),EXIT
 000C7E 9261 B5E5      005E5       12568  4                            MVI   CPATITL+15,C'/'
 000C82 D207 B5E6 B39C 005E6 0039C 12569  4                            MVC   CPATITL+16(8),CPSVPGM  Program name
 000C88                            12570  3                          END
 000C88                            12574  2                        END
                                   12578  2
 000C88 58E0 76E8/0DEE       01150 12579  2                        VCALL PRESS
 000C8E 58E0 7704/0DEE       0116C 12583  2                        VCALL STOW                Add line to the ACTIVE file
 000C94 4780 7238            00CA0 12587  2                        IF    NZ,BEGIN
 000C98 9214 6000      00000       12598  3                          SET   WTXTRDUP            Line-number already exists
 000C9C 47F0 7252            00CBA 12604  3                          B     WRTEXIT
 000CA0                            12605  2                        END
                                   12609  2           *
                                   12610  2           *
 000CA0 9801 6008            00008 12611  2                        LM    R0,R1,WTXTPTRS
 000CA4 1FFF/43F0 5007             12612  2                        LC    R15,WTXTLREC        Line length
 000CAA 1A1F                       12619  2                        AR    R1,R15
 000CAC 1B0F                       12620  2                        SR    R0,R15
 000CAE 9001 6008            00008 12621  2                        STM   R0,R1,WTXTPTRS      Update buffer ptrs
 000CB2 47F0 7176            00BDE 12622  1                      END
 000CB6 47F0 7252            00CBA 12627  1                      B     WRTEXIT
 000CBA                            12628                       END
1ORV      (ORV2025) (12:50) (15MAR04) WYLBUR's ORVYL Interface                                                              Page   32
0Current Usings:  (WTXTORV,R5) (WTXTWA,R6) (*,R7) (CP,R11) (CV,R12)
0Loc    Object Code    Addr1 Addr2  Stmt Lv Lineno    Source Statement           (Hibal 5, Asmedit 3.3)  HLASM R4.0  2004/03/15 12.50
+___    ______ ____    _____ _____  ____ __ ______    ______ _________
0                                  12632                       ¿þþþþþþþþþþþþþþþþþþþþþþþþþþþþþþþþþþþþþþþþþþþþþþþþÜ
                                   12633                       Ÿ  Send response to ORVYL with completion code.  Ÿ
                                   12634                       ¾þþþþþþþþþþþþþþþþþþþþþþþþþþþþþþþþþþþþþþþþþþþþþþþþ»
 000CBA 5800 6008            00008 12635              WRTEXIT  L     R0,WTXTPTRS         Residual length
 000CBE 4000 6006            00006 12636                       STH   R0,WTXTRES          Save it in reply
                                   12637
 000CC2 4110 B8BC/41F0_      008BC 12638                       TXCTL CPORVYL,WTXTWYL     Send response to ORVYL
 000CD0 18D8/58E0 D000_            12657                       XEXIT ,,LTR
 DROP   *,R7                       12663                       DROP  BR
1ORV      (ORV2025) (12:50) (15MAR04) WYLBUR's ORVYL Interface                                                              Page   33
0Current Usings:  (WTXTORV,R5) (WTXTWA,R6) (CP,R11) (CV,R12)
0Loc    Object Code    Addr1 Addr2  Stmt Lv Lineno    Source Statement           (Hibal 5, Asmedit 3.3)  HLASM R4.0  2004/03/15 12.50
+___    ______ ____    _____ _____  ____ __ ______    ______ _________
0                                  12671              ¿þþþþþþþþþþþþþþþþþþþþþþþþþþþþþþþþþþþþþþþþþþþþþþþþþþþþþþþþþþþþþþþþþþþþþÜ
                                   12672              Ÿ                                                                     Ÿ
                                   12673              Ÿ  WRTLINE -- Local routine to get a line from the WRITE TEXT         Ÿ
                                   12674              Ÿ    buffer.                                                          Ÿ
                                   12675              Ÿ                                                                     Ÿ
                                   12676              Ÿ    On exit, R15 (and cc):                                           Ÿ
                                   12677              Ÿ      0 - got a line; R1 - pressed line ptr                          Ÿ
                                   12678              Ÿ      nz- no lines left or error of some sort                        Ÿ
                                   12679              Ÿ                                                                     Ÿ
                                                      ¾þþþþþþþþþþþþþþþþþþþþþþþþþþþþþþþþþþþþþþþþþþþþþþþþþþþþþþþþþþþþþþþþþþþþþ»
0000CDE 50E0 D000/9028_      00000 12680              WRTLINE  XENTER R2,R8,,LOCAL
 USING  *,R7
 000CF8 9823 6008            00008 12698                       LM    R2,R3,WTXTPTRS
                                   12699
 000CFC 41F0 0004            00004 12700                       LA    R15,4               Assume eof rc
 000D00 5920 7434/4740_      0112C 12701                       IF    (R2,LT,5),WRLEXIT   All done, scram
                                   12721
 000D08 9101 B149/47E0_00149       12722                       IF    CPOFPRST,BEGIN      Line is already pressed...
 000D10 1FFF/43F0 3004             12737  1                      LC    R15,@R3+4           Pressed text length
 000D16 41F0 F005            00005 12744  1                      LA    R15,@R15+5
 000D1A 59F0 7484/47D0_      0117C 12745  1                      CEIL  R15,&PRESSZ
 000D26 06F0/12FF/4740_            12764  1                      MOVE  R15,WTXTLBUF,@R3    Save line
 000D32 4110 6010            00010 12802  1                      LA    R1,WTXTLBUF
 000D36 58E0 7488/0DEE       01180 12803  1                      VCALL EDITCK              Verify correct edit format
 000D3C 4780 7050/9218_      00D48 12807  1                      IF    NZ,'SET WTXTRBAD; B WRLEXIT'
 000D48                            12830                       END
                                   12834
 000D48 7054/47F0 7086 00D48 00D0E 12835                       ELSE  BEGIN               Line passed to us is unpressed...
 000D4C 1FFF/43F0 3004             12846  1                      LC    R15,@R3+4           Text length
 000D52 59F0 747C/47D0_      01174 12853  1                      CEIL  R15,&LINESZ
 000D5E 06F0/12FF/4740_            12872  1                      MOVE  R15,WTXTLBUF,@R3+5  Save line
                                   12910  1
 000D6A 58F0 3000            00000 12911  1                      L     R15,@R3             Line-number
 000D6E 4110 6010/1F00_      00010 12912  1                      SETMSG WTXTLBUF,LC:@R3+4
 000D78 58E0 7458/0DEE       01150 12929  1                      VCALL PRESS               Press the line
 000D7E                            12933                       END
                                   12937
 000D7E 1FFF/43F0 3004             12938                       LC    R15,@R3+4           Text length
 000D84 41F0 F005            00005 12945                       LA    R15,@R15+5          Total line length
 000D88 1A3F                       12946                       AR    R3,R15
 000D8A 1B2F                       12947                       SR    R2,R15
 000D8C 9023 6008            00008 12948                       STM   R2,R3,WTXTPTRS      Updated buffer ptrs
                                   12949
 000D90 4110 6010            00010 12950                       LA    R1,WTXTLBUF
 000D94 1BFF                       12951                       CLEAR R15                 Good rc
 000D96 18D8/58E0 D000_            12955              WRLEXIT  XEXIT ,,LTR
                                   12961
 DROP   WTXTORV,R5                 12962                       DROP  WTXTORV,WTXTWA,BR
 DROP   WTXTWA,R6
 DROP   *,R7
1ORV      (ORV2025) (12:50) (15MAR04) WYLBUR's ORVYL Interface                                                              Page   34
0Current Usings:  (CP,R11) (CV,R12)
0Loc    Object Code    Addr1 Addr2  Stmt Lv Lineno    Source Statement           (Hibal 5, Asmedit 3.3)  HLASM R4.0  2004/03/15 12.50
+___    ______ ____    _____ _____  ____ __ ______    ______ _________
0                                  12984              ¿þþþþþþþþþþþþþþþþþþþþþþþþþþþþþþþþþþþþþþþþþþþþþþþþþþþþþþþþþþþþþþþþþþþþþÜ
                                   12985              Ÿ                                                                     Ÿ
                                   12986              Ÿ  WRTLNO -- Local routine to parse line-number from an input         Ÿ
                                   12987              Ÿ    string.                                                          Ÿ
                                   12988              Ÿ                                                                     Ÿ
                                   12989              Ÿ    On entry:                                                        Ÿ
                                   12990              Ÿ      R1,R0 - text loc, len                                          Ÿ
                                   12991              Ÿ                                                                     Ÿ
                                   12992              Ÿ    On exit:                                                         Ÿ
                                   12993              Ÿ      R15 - line-number (-1 if invalid)                              Ÿ
                                   12994              Ÿ                                                                     Ÿ
                                                      ¾þþþþþþþþþþþþþþþþþþþþþþþþþþþþþþþþþþþþþþþþþþþþþþþþþþþþþþþþþþþþþþþþþþþþþ»
0000DA4 50E0 D000/9028_      00000 12995              WRTLNO   XENTER R2,R8,,LOCAL
 USING  *,R7
 000DBE 1BFF                       13013                       CLEAR R15                 Line-number accumulator
                                   13017
 000DC0 1B33                       13018                       CLEAR R3
 000DC2 1200/47D0 7058             13022                       WHILE (R0,POS),BEGIN
 000DC8 9540 1000/4780_00000       13038  1                      IF    (@R1,NE,' '),BEGIN
 000DD0 95F0 1000/4750_00000       13054  2                        IF    ((@R1,GE,'0'),AND,(@R1,LE,'9')),BEGIN
 000DE0 4320 1000            00000 13085  3                          IC    R2,@R1
 000DE4 5420 734A            01108 13086  3                          N     R2,=A(X'F')
 000DE8 4CF0 73F6            011B4 13087  3                          MH    R15,=H'10'
 000DEC 1AF2                       13088  3                          AR    R15,R2              Add in the next digit
 000DEE 0630                       13089  3                          DECR  R3
 000DF0                            13091  2                        END
                                   13095  2
 000DF0 7036/7036/47F0_00DF0 00DD6 13096  2                        ELSEIF (@R1,EQ,'.'),BEGIN  Decimal format...
 000DFC 4130 0003            00003 13123  3                          LA    R3,3
 000E00                            13124  2                        END
                                   13128  2
 000E00 7046/47F0 704E 00E00 00DFA 13129  2                        ELSE  BEGIN               This ain't no number...
 000E04 48F0 73F8            011B6 13140  3                          LH    R15,=H'-1'
 000E08 47F0 7068            00E26 13141  3                          B     WLNOEXIT            Scram
 000E0C                            13142  2                        END
 000E0C                            13146  1                      END
                                   13150  1
 000E0C 4110 1001            00001 13151  1                      LA    R1,@R1+1
 000E10 0600                       13152  1                      DECR  R0
 000E12 47F0 7004            00DC2 13154                       END
                                   13159
 000E16 1233/47D0 7068_            13160                       WHILE (R3,POS),'MH R15,=H"10"; DECR R3'  Decimal adjust
                                   13185
 000E26 18D8/58E0 D000_            13186              WLNOEXIT XEXIT
 DROP   *,R7                       13191                       DROP  BR
1ORV      (ORV2025) (12:50) (15MAR04) WYLBUR's ORVYL Interface                                                              Page   35
0Current Usings:  (CP,R11) (CV,R12)
0Loc    Object Code    Addr1 Addr2  Stmt Lv Lineno    Source Statement           (Hibal 5, Asmedit 3.3)  HLASM R4.0  2004/03/15 12.50
+___    ______ ____    _____ _____  ____ __ ______    ______ _________
0                                  13199              ***
                                   13200              ***  READ CONTROL Data Areas
                                   13201              ***
 000000                00000 00008 13202              RCTLORV  RECORD BEGIN
 000000                            13210  1           RCTLCMD    DS    X                   Command code
                                   13211  1
 000001 00                         13212  1           RCTLOFLG   FLAG
                                   13216  1
 000002                            13217  1           RCTLLEN    DS    H                   Input text length
                                   13218  1
 000004                            13219  1                      DS    XL4                 Reserved
 000008                00008 00008 13220                       END
-000000                00000 00208 13230              RDCTRLWA RECORD BEGIN
 000000                            13238  1           RDCINP     DS    CL256               Input text
                                   13239  1
 000100                            13240  1           RDCOUT     DS    CL256               Output text
 000200                            13241  1           RDCWYL     DS    XL(L'RCTLORV)       Output control info
 000208                00208 00208 13242                       END
-                                  13252              ¿þþþþþþþþþþþþþþþþþþþþþþþþþþþþþþþþþþþþþþþþþþþþþþþþþþþþþþþþþþþþþþþþþþþþþÜ
                                   13253              Ÿ                                                                     Ÿ
                                   13254              Ÿ  RDCTRL -- Routine to process a "read control" from ORVYL.          Ÿ
                                   13255              Ÿ                                                                     Ÿ
                                   13256              Ÿ    On entry:                                                        Ÿ
                                   13257              Ÿ      CPSEG buffer has read prompt text                              Ÿ
                                   13258              Ÿ                                                                     Ÿ
                                   13259              Ÿ    Important Note:                                                  Ÿ
                                   13260              Ÿ      ORVYL currently has no support in it for "read control"        Ÿ
                                   13261              Ÿ      (damn shame too).                                              Ÿ
                                   13262              Ÿ                                                                     Ÿ
                                   13263              Ÿ      MILTEN changes any terminal read that begins with the          Ÿ
                                   13264              Ÿ      @@SYSEXPR? prefix to a XCTL to WYLBUR.  It also has            Ÿ
                                   13265              Ÿ      to change the XCTL from WYLBUR back into a PDB that looks      Ÿ
                                   13266              Ÿ      like a response to a terminal read.  So, to ORVYL, it simply   Ÿ
                                   13267              Ÿ      looks like a terminal read.                                    Ÿ
                                   13268              Ÿ                                                                     Ÿ
                                   13269              Ÿ      The really ugly part of this is in MILTEN's SIFT module.       Ÿ
                                   13270              Ÿ      If ORVYL ever were to support a "read control"                 Ÿ
                                   13271              Ÿ      directly, none of this code would have to change, and the      Ÿ
                                   13272              Ÿ      code in MILTEN could be removed.                               Ÿ
                                   13273              Ÿ                                                                     Ÿ
                                                      ¾þþþþþþþþþþþþþþþþþþþþþþþþþþþþþþþþþþþþþþþþþþþþþþþþþþþþþþþþþþþþþþþþþþþþþ»
0000E32 50E0 D000/9008_      00000 13274              RDCTRL   PROC  RDCTRLWA
 USING  *,R7
 USING  RDCTRLWA-(4+36),R8
 000E4C D7FF 8028 8028_00000 00000 13324                       CLEAR RDCTRLWA
                                   13333
 000E5E 4160 B140            00140 13334                       LA    R6,CPORVINF
 000E62 4850 6002            00002 13335                       WITH  (RCTLORV,R6),'LH R5,RCTLLEN'
 USING  RCTLORV,R6
1ORV      (ORV2025) (12:50) (15MAR04) WYLBUR's ORVYL Interface                                                              Page   36
0Current Usings:  (*,R7) (RDCTRLWA-(4+36),R8) (CP,R11) (CV,R12)
0Loc    Object Code    Addr1 Addr2  Stmt Lv Lineno    Source Statement           (Hibal 5, Asmedit 3.3)  HLASM R4.0  2004/03/15 12.50
+___    ______ ____    _____ _____  ____ __ ______    ______ _________
0DROP   RCTLORV,R6
 000E66 5950 7318/47B0_      01164 13359                       FLOOR R5,0
 000E72 5950 7338/47D0_      01184 13378                       CEIL  R5,L'RDCINP         Not too much
 000E7E 5810 B070            00070 13397                       L     R1,CPSEGLOC
 000E82 18F5                       13398                       LR    R15,R5
 000E84 06F0/12FF/4740_            13399                       MOVE  R15,RDCINP,@R1      Save input text
                                   13437
 000E90 41F0 B050/58E0_      00050 13438                       TCLEAR
                                   13452              ***
                                   13453              ***  @@SYSEXPR? -- Evaluate WYLBUR expression.
                                   13454              ***
 000E9A D509 736C 8028_011B8 00000 13455                       IF    (RDCINP,EQ,'@@SYSEXPR?'),BEGIN
 000EA4 4110 8032/1805       0000A 13472  1                      SETMSG RDCINP+10,(R5)      Actual expression text
 000EAA 4B00 7368            011B4 13486  1                      SH    R0,=H'10'
 000EAE 4120 8128            00100 13487  1                      LA    R2,RDCOUT
 000EB2 4130 0100            00100 13488  1                      LA    R3,L'RDCOUT
 000EB6 58E0 733C/0DEE       01188 13489  1                      VCALL EVALSTR             Evaluate expression
 000EBC 4770 7094            00EE0 13493  1                      IF    Z,BEGIN             A-ok...
 000EC0 4110 7376/4100_      011C2 13504  2                        TSEG  '0;'                Normal Return code
 000ED2 1812/1803/41F0_            13522  2                        TSEG  (R2),(R3)           Return expression
 000EE0                            13548  1                      END
                                   13552  1
 000EE0 7098/47F0 710E 00EE0 00EBE 13553  1                      ELSE  BEGIN               Bad expression...
 000EE4 5810 B070            00070 13564  2                        L     R1,CPSEGLOC
 000EE8 5820 B05C            0005C 13565  2                        L     R2,CPSEGLENF
 000EEC 5920 7318/47B0_      01164 13566  2                        FLOOR R2,0
 000EF8 5920 7340/47D0_      0118C 13585  2                        CEIL  R2,L'RDCOUT
 000F04 18F2                       13604  2                        LR    R15,R2
 000F06 06F0/12FF/4740_            13605  2                        MOVE  R15,RDCOUT,@R1      Save the error message text
 000F12 41F0 B050/58E0_      00050 13643  2                        TCLEAR
                                   13657  2
 000F1C 4110 7378/4100_      011C4 13658  2                        TSEG  '1;'                Error return code
 000F2E 1222/4770 70FA_            13676  2                        IF    (R2,Z),'TSEG "Missing expression."'
 000F46 70FE/47F0 710E_00F46 00F32 13713  2                        ELSE  'TSEG RDCOUT,(R2)'  Real error message
 000F5A                            13757  1                      END
 000F5A 47F0 7124            00F70 13761  1                      B     RDCDONE             Finish up
 000F5E                            13762                       END
                                   13766              ***
                                   13767              ***  Unrecognized control information.
                                   13768              ***
 000F5E 4110 7396/4100_      011E2 13769                       TSEG  '9;Unrecognized control information.'
                                   13787              *
                                   13788              *
 000F70 4160 8228            00200 13789              RDCDONE  LA    R6,RDCWYL
 USING  RCTLORV,R6                 13790                       WITH  (RCTLORV,R6),BEGIN
 000F74 D707 6000 6000 00000 00000 13804  1                      CLEAR RCTLORV
 000F7A 9601 6000      00000       13811  1                      SET   RCTLCMD.CPFRCTRL    Responding to a READ CONTROL
 000F7E 58F0 B05C            0005C 13817  1                      L     R15,CPSEGLENF
 000F82 40F0 6002            00002 13818  1                      STH   R15,RCTLLEN         Set data length
 DROP   RCTLORV,R6                 13819                       END
                                   13827
 000F86 4110 B8BC/41F0_      008BC 13828                       TXCTL CPORVYL,RDCWYL      Send response to ORVYL
 000F94 18D8/9808 D004_            13847                       PEND
 DROP   RDCTRLWA-(4+36),R8
1ORV      (ORV2025) (12:50) (15MAR04) WYLBUR's ORVYL Interface                                                              Page   37
0Current Usings:  (CP,R11) (CV,R12)
0Loc    Object Code    Addr1 Addr2  Stmt Lv Lineno    Source Statement           (Hibal 5, Asmedit 3.3)  HLASM R4.0  2004/03/15 12.50
+___    ______ ____    _____ _____  ____ __ ______    ______ _________
0DROP   *,R7
1ORV      (ORV2025) (12:50) (15MAR04) WYLBUR's ORVYL Interface                                                              Page   38
0Current Usings:  (CP,R11) (CV,R12)
0Loc    Object Code    Addr1 Addr2  Stmt Lv Lineno    Source Statement           (Hibal 5, Asmedit 3.3)  HLASM R4.0  2004/03/15 12.50
+___    ______ ____    _____ _____  ____ __ ______    ______ _________
0                                  13873              ***
                                   13874              ***  CONTROL Data Areas
                                   13875              ***
 000000                00000 00008 13876              CNTLORV  RECORD BEGIN              Control information from ORVYL
 000000                            13884  1                      DS    X                   Command code
                                   13885  1
 000001 00                         13886  1           CNTLCODE   FLAG
 CNTLCODE.CNTLSTMW 0C EQ           13890  1                      FLAG  (CNTLSTMW,12,EQ)    - Set WYLBUR mode word
 CNTLCODE.CNTLSNMW 0D EQ           13900  1                      FLAG  (CNTLSNMW,13,EQ)    - Sense WYLBUR mode word
 CNTLCODE.CNTLSNAS 0E EQ           13910  1                      FLAG  (CNTLSNAS,14,EQ)    - Sense ACTIVE file size
 CNTLCODE.CNTLSNFL 0F EQ           13920  1                      FLAG  (CNTLSNFL,15,EQ)    - Sense first lineno in ACTIVE
 CNTLCODE.CNTLSNLL 10 EQ           13930  1                      FLAG  (CNTLSNLL,16,EQ)    - Sense last lineno in ACTIVE
 CNTLCODE.CNTLCLRA 11 EQ           13940  1                      FLAG  (CNTLCLRA,17,EQ)    - Clear ACTIVE file
 CNTLCODE.CNTLSNDL 1C EQ           13950  1                      FLAG  (CNTLSNDL,28,EQ)    - Sense current DELTA
                                   13960  1
 000002                            13961  1                      DS    XL4                 Reserved
                                   13962  1
 000006                            13963  1           CNTLMOD    DS    H                   WYLBUR mode word
 000008                00008 00008 13964                       END
-000000                00000 00028 13974              CNTLWA   RECORD BEGIN
                                   13982  1                      XSA   R2,R8
 000000 0000000000000000           13983  1 01-XSA   +           DC    (R8+2-(R2))A(0)
                                   13984  1
                                   13985  1           CNTLWYL    EQU   *,8,C'X'            Control information for ORVYL
 000020 00                         13986  1           CNTLRET    FLAG
 CNTLRET.CNTLROK   00 EQ           13990  1                      FLAG  (CNTLROK,0,EQ)      - Success
 CNTLRET.CNTLRNOL  04 EQ           14000  1                      FLAG  (CNTLRNOL,4,EQ)     - No ACTIVE file
 CNTLRET.CNTLRBAD  80 EQ           14010  1                      FLAG  (CNTLRBAD,128,EQ)   - Bad control number
                                   14020  1
 000021 00                         14021  1           CNTLFLAG   FLAG
                                   14025  1
 000022                            14026  1                      DS    H                   Reserved
                                   14027  1
 000024                            14028  1           CNTLWORD   DS    F                   Returned information word
                                   14029  1           CNTLINIT   EQU   CNTLWYL,*-CNTLWYL,C'X'
 000028                00028 00028 14030                       END
1ORV      (ORV2025) (12:50) (15MAR04) WYLBUR's ORVYL Interface                                                              Page   39
0Current Usings:  (CP,R11) (CV,R12)
0Loc    Object Code    Addr1 Addr2  Stmt Lv Lineno    Source Statement           (Hibal 5, Asmedit 3.3)  HLASM R4.0  2004/03/15 12.50
+___    ______ ____    _____ _____  ____ __ ______    ______ _________
0                                  14040              ¿þþþþþþþþþþþþþþþþþþþþþþþþþþþþþþþþþþþþþþþþþþþþþþþþþþþþþþþþþþþþþþþþþþþþþÜ
                                   14041              Ÿ                                                                     Ÿ
                                   14042              Ÿ  CONTROL -- Routine to process a CONTROL request from ORVYL.        Ÿ
                                   14043              Ÿ                                                                     Ÿ
                                   14044              Ÿ    On entry:                                                        Ÿ
                                   14045              Ÿ      CPORVINF - contains control information                        Ÿ
                                   14046              Ÿ                                                                     Ÿ
                                   14047              Ÿ    On exit, R15 (and cc):                                           Ÿ
                                   14048              Ÿ      0 - we have another request from ORVYL                         Ÿ
                                   14049              Ÿ      nz- ORVYL is not active (see TXCTL return codes)               Ÿ
                                   14050              Ÿ                                                                     Ÿ
                                                      ¾þþþþþþþþþþþþþþþþþþþþþþþþþþþþþþþþþþþþþþþþþþþþþþþþþþþþþþþþþþþþþþþþþþþþþ»
0000FA2 50E0 D000/9028_      00000 14051              CONTROL  XENTER R2,R8,L'CNTLWA,LOCAL
 USING  *,R7
 USING  CNTLWA,R8                  14069                       USING CNTLWA,WAR
                                   14078
 000FBC D707 8020 8020 00020 00020 14079                       CLEAR CNTLINIT
                                   14086
 000FC2 4160 B140            00140 14087                       LA    R6,CPORVINF
 USING  CNTLORV,R6                 14088                       USING CNTLORV,R6
                                   14097
 000FC6 1B55                       14098                       CLEAR R5
 000FC8 9280 8020      00020       14102                       SET   CNTLRBAD            Assume it's a bad control number
                                   14108
 000FCC 950C 6001/4770_00001       14109                       IF    CNTLSTMW,BEGIN      Set mode word...
 000FD4 D201 B148 6006 00148 00006 14124  1                      MVC   CPORVMOD,CNTLMOD
 000FDA 9200 8020      00020       14125  1                      SET   CNTLROK
 000FDE                            14131                       END
                                   14135
 000FDE 950E 6001/4770_00001       14136                       IF    CNTLSNAS,BEGIN      Sense ACTIVE file size...
 000FE6 5850 B5AC            005AC 14151  1                      L     R5,CPALNCT          Get line count
 000FEA 9200 8020      00020       14152  1                      SET   CNTLROK
 000FEE                            14158                       END
                                   14162
 000FEE 950F 6001/4770_00001       14163                       IF    CNTLSNFL,BEGIN      Sense first lineno...
 000FF6 D603 B5AC B5AC_005AC 005AC 14178  1                      IF    (CPALNCT,Z),'SET CNTLRNOL'  No lines
 001004 704C/47F0 7054 01004 00FFE 14205  1                      ELSE  BEGIN
 001008 5850 B5A0            005A0 14216  2                        L     R5,CPAFLNO          First lineno
 00100C 9200 8020      00020       14217  2                        SET   CNTLROK
 001010                            14223  1                      END
 001010                            14227                       END
                                   14231
 001010 9510 6001/4770_00001       14232                       IF    CNTLSNLL,BEGIN      Sense last lineno...
 001018 D603 B5AC B5AC_005AC 005AC 14247  1                      IF    (CPALNCT,Z),'SET CNTLRNOL'  No lines
 001026 706E/47F0 7076 01026 01020 14274  1                      ELSE  BEGIN
 00102A 5850 B5A4            005A4 14285  2                        L     R5,CPALLNO          Last lineno
 00102E 9200 8020      00020       14286  2                        SET   CNTLROK
 001032                            14292  1                      END
 001032                            14296                       END
                                   14300
 001032 9511 6001/4770_00001       14301                       IF    CNTLCLRA,BEGIN      Clear active...
 00103A 9610 BD55/9604_00D55       14316  1                      SET   CPFCLEAR,CPFNWARN   Clear it always
 001042 58E0 71D4/0DEE       01190 14326  1                      VCALL CLRTEXT             Clear ACTIVE
1ORV      (ORV2025) (12:50) (15MAR04) WYLBUR's ORVYL Interface                                                              Page   40
0Current Usings:  (CNTLORV,R6) (*,R7) (CNTLWA,R8) (CP,R11) (CV,R12)
0Loc    Object Code    Addr1 Addr2  Stmt Lv Lineno    Source Statement           (Hibal 5, Asmedit 3.3)  HLASM R4.0  2004/03/15 12.50
+___    ______ ____    _____ _____  ____ __ ______    ______ _________
0001048 9200 8020      00020       14330  1                      SET   CNTLROK
 00104C                            14336                       END
                                   14340
 00104C 951C 6001/4770_00001       14341                       IF    CNTLSNDL,BEGIN      Sense delta...
 001054 5850 B738            00738 14356  1                      L     R5,CPDELTA          DELTA
 001058 9200 8020      00020       14357  1                      SET   CNTLROK
 00105C                            14363                       END
                                   14367
 00105C 5050 8024            00024 14368                       ST    R5,CNTLWORD         Set return info
                                   14369                       ¿þþþþþþþþþþþþþþþþþþþþþþþþþþþþþþþþþþþþþþþþþþþþþþþÜ
                                   14370                       Ÿ  Send response to the control back to ORVYL.  Ÿ
                                   14371                       ¾þþþþþþþþþþþþþþþþþþþþþþþþþþþþþþþþþþþþþþþþþþþþþþþ»
 001060 4110 B8BC/41F0_      008BC 14372                       TXCTL CPORVYL,CNTLWYL     Send response to ORVYL
 00106E 18D8/58E0 D000_            14391                       XEXIT ,,LTR
                                   14397
 DROP   CNTLORV,R6                 14398                       DROP  CNTLORV,CNTLWA,BR
 DROP   CNTLWA,R8
 DROP   *,R7
                                   14419
                                   14420                       QLTORG
                                   14492
                                   14493                       VLTORG
 001228                01228 01228 14501                       END   .

1ORV      (ORV2025) (12:50) (15MAR04) Relocation Dictionary                                                                 Page   41
-   Pos.Id   Rel.Id   Flags    Address                                                       HLASM R4.0  2004/03/15 12.50
0  00000001 00000001    0C    00000304
   00000001 00000001    0C    0000030C
   00000001 00000001    0C    0000031C
   00000001 00000001    0C    00000324
   00000001 00000001    0C    00000328
   00000001 00000001    0C    0000032C
   00000001 00000001    0C    00000330
   00000001 00000001    0C    00000334
   00000001 00000001    0C    00000338
   00000001 00000001    08    00000841
   00000001 00000001    0C    000010E4
   00000001 00000001    0C    000010F8
   00000001 00000001    0C    0000114C
   00000001 00000002    1C    00000300
   00000001 00000003    1C    00000308
   00000001 00000003    1C    000010F0
   00000001 00000004    1C    00000310
   00000001 00000005    1C    00000314
   00000001 00000005    1C    000010E8
   00000001 00000006    1C    00000318
   00000001 00000006    1C    000010F4
   00000001 00000007    1C    00000320
   00000001 00000008    1C    000010E0
   00000001 00000009    1C    000010EC
   00000001 0000000A    1C    000010FC
   00000001 0000000B    1C    00001100
   00000001 0000000C    1C    00001110
   00000001 0000000D    1C    00001118
   00000001 0000000E    1C    00001128
   00000001 0000000F    1C    00001130
   00000001 00000010    1C    00001138
   00000001 00000011    1C    0000113C
   00000001 00000012    1C    00001140
   00000001 00000013    1C    00001144
   00000001 00000014    1C    00001148
   00000001 00000015    1C    00001150
   00000001 00000016    1C    0000115C
   00000001 00000017    1C    00001168
   00000001 00000018    1C    0000116C
   00000001 00000019    1C    00001170
   00000001 0000001A    1C    00001178
   00000001 0000001B    1C    00001180
   00000001 0000001C    1C    00001188
   00000001 0000001D    1C    00001190

1ORV      (ORV2025) (12:50) (15MAR04) Ordinary Symbol and Literal Cross Reference                                           Page   42
-Symbol   Length   Value     Id    R Type   Defn References                                  HLASM R4.0  2004/03/15 12.50
0$$$@R0        1 00000000 FFFFFFFE     J     705  1016
 $$$@R10       1 00000000 FFFFFFF4     J     835  1080
 $$$@R11       1 00000000 FFFFFFF3     J     848  1093
 $$$@R12       1 00000000 FFFFFFF2     J     861  1106
 $$$@R13       1 00000000 FFFFFFF1     J     874  1119
 $$$@R14       1 00000000 FFFFFFF0     J     887  1132
 $$$@R7        1 00000000 FFFFFFF7     J     796  1029
 $$$@R8        1 00000000 FFFFFFF6     J     809  1042   1054
 $$$@R9        1 00000000 FFFFFFF5     J     822  1067
 $$$C1WYLORV
               1 00000360 00000001     J    7863  7865   7919   7965   8506   8554   9036   9342  10597  11501  11621
                                                 12334  12796  12904  13227  13249  13431  13637  13971  14037
 $$$C2WYLORV
               1 00001224 00000001     J   14487 14489
 $$$C3WYLORV
               1 00001228 00000001     J   14504 14506
 $$$D0WYLORV
               1 00000359 00000001     J     991  6685
 $$$D1WYLORV
               1 00001205 00000001     J    7864 12323  12785  12893  13420  13626
 $$$RCNTLORV
               1 00000000 FFFFFFDD     J   13878 13970  13970
 $$$RCNTLWA
               1 00000000 FFFFFFDC     J   13976 14036  14036
 $$$RCP        1 00000000 FFFFFFEC     J    2451  4711   6185   6185
 $$$RCV        1 00000000 FFFFFFEE     J    1176  2361   2361
 $$$RDEV       1 00000000 FFFFFFEB     J    4665  4710   4710
 $$$RJCB       1 00000000 FFFFFFE9     J    6304  6578   6578
 $$$RNSCNCB
               1 00000000 FFFFFFED     J    2372  2445   2445
 $$$RRCTLORV
               1 00000000 FFFFFFDF     J   13204 13226  13226
 $$$RRDCTRLWA
               1 00000000 FFFFFFDE     J   13232 13248  13248
 $$$RRDTLWA
               1 00000000 FFFFFFE2     J   10583 10596  10596
 $$$RREDTORV
               1 00000000 FFFFFFE8     J    7874  7918   7918
 $$$RREDTWYL
               1 00000000 FFFFFFE7     J    7924  7964   7964
 $$$RRTXTORV
               1 00000000 FFFFFFE4     J    9008  9035   9035
 $$$RRTXTWA
               1 00000000 FFFFFFE3     J    9041  9341   9341
 $$$RTTYPE
               1 00000000 FFFFFFEA     J    6196  6297   6297
 $$$RWEDTORV
               1 00000000 FFFFFFE6     J    8474  8505   8505
 $$$RWEDTWYL
               1 00000000 FFFFFFE5     J    8511  8553   8553
 $$$RWTXTORV
               1 00000000 FFFFFFE1     J   11392 11500  11500
 $$$RWTXTWA
               1 00000000 FFFFFFE0     J   11506 11620  11620
 $$$SEGCB0
1ORV      (ORV2025) (12:50) (15MAR04) Ordinary Symbol and Literal Cross Reference                                           Page   43
               4 00000050 FFFFFFEC     F    2482  2568   2568
 $$$SEGCB128
               4 00000124 FFFFFFE3     F    9247  9333   9333
 $$$100F       2 0000044A 00000001     H    8454  8411B
 $$$104B       1 00000454 00000001     X    8573  8580U
 $$$105F       2 0000047E 00000001     H    8683  8667B
 $$$106B       1 00000490 00000001     X    8730  8737U
 $$$107F       2 000004EC 00000001     H    8923  8817B
 $$$107T       2 000004BC 00000001     H    8820  8795B  8807B
 $$$110F       2 000004C8 00000001     H    8847  8832B
 $$$111F       2 000004D4 00000001     H    8873  8858B
 $$$112F       2 000004E0 00000001     H    8899  8884B
 $$$113F       2 0000050C 00000001     H    8977  8965B
 $$$136B       1 0000052A 00000001     X    9365  9372U
 $$$137F       2 00000560 00000001     H    9429  9419B
 $$$138F       2 00000576 00000001     H    9455  9444B
 $$$139F       2 00000586 00000001     H    9478  9468B
 $$$140F       2 00000592 00000001     H    9505  9490B
 $$$141F       2 0000059E 00000001     H    9532  9517B
 $$$142F       2 000005B2 00000001     H    9554  9545B
 $$$143F       2 000005DA 00000001     H    9599  9567B
 $$$144F       2 00000610 00000001     H    9652  9615B
 $$$145F       2 0000063E 00000001     H    9701  9668B
 $$$146F       2 00000682 00000001     H    9812  9717B
 $$$147F       2 0000067E 00000001     H    9807  9756B  9778B  9795B
 $$$147S       2 0000064A 00000001     H    9727  9806B
 $$$151F       2 00000798 00000001     H   10185  9832B  9846B
 $$$154F       2 00000700 00000001     H   10000  9971B
 $$$155F       2 0000072A 00000001     H   10059 10013B
 $$$156F       2 000007C8 00000001     H   10276 10221B
 $$$157F       2 000007C8 00000001     H   10272 10245B 10257B
 $$$159F       2 00000806 00000001     H   10389 10309B 10326B
 $$$161F       2 000007F0 00000001     H   10358 10345B
 $$$162F       2 0000081E 00000001     H   10447 10411B
 $$$164B       1 0000085E 00000001     X   10520 10527U
 $$$165        1 00000050 00000001 A   U   10577 10574  10576
 $$$167B       1 0000089A 00000001     X   10638 10645U
 $$$168F       2 000008C4 00000001     H   10721 10685B
 $$$169F       2 00000954 00000001     H   10979 10735B
 $$$170F       2 000008F4 00000001     H   10802 10753B
 $$$171F       2 000008E0 00000001     H   10784 10768B
 $$$174B       4 000008F8 00000001     I   10816 10919
 $$$174F       2 0000092C 00000001     H   10912 10816B 10918
 $$$175B       4 00000900 00000001     I   10832 10852
 $$$175F       2 0000090A 00000001     H   10848 10832B 10851
 $$$176E       2 0000090E 00000001     H   10859 10853
 $$$176F       2 00000928 00000001     H   10895 10855B
 $$$177E       2 00000930 00000001     H   10926 10920
 $$$177F       2 00000946 00000001     H   10950 10922B
 $$$178F       2 00000988 00000001     H   11036 11005B
 $$$179F       2 00000984 00000001     H   11031 11021B
 $$$180        1 00000054 00000001 A   U   11070 11067  11069
 $$$181B       1 000009BC 00000001     X   11092 11099U
 $$$182F       2 00000A3E 00000001     H   11358 11111B
 $$$183B       4 000009CC 00000001     I   11145 11230
 $$$183F       2 000009F8 00000001     H   11226 11145B 11229
 $$$184F       2 000009DC 00000001     H   11173 11160B
 $$$185F       2 000009E8 00000001     H   11195 11185B
 $$$186E       2 000009FC 00000001     H   11237 11231
1ORV      (ORV2025) (12:50) (15MAR04) Ordinary Symbol and Literal Cross Reference                                           Page   44
 $$$186F       2 00000A3A 00000001     H   11341 11233B
 $$$205B       1 00000A68 00000001     X   11644 11651U
 $$$206F       2 00000A92 00000001     H   11716 11706B
 $$$207F       2 00000AA8 00000001     H   11746 11737B
 $$$208F       2 00000B60 00000001     H   12066 11766B 11780B
 $$$210F       2 00000ACA 00000001     H   11810 11795B
 $$$211F       2 00000AD6 00000001     H   11840 11824B
 $$$213F       2 00000AE2 00000001     H   11869 11853B
 $$$215S       2 00000AE2 00000001     H   11875 12060B
 $$$216F       2 00000B3A 00000001     H   12001 11892B
 $$$217F       2 00000B04 00000001     H   11919 11909B
 $$$218F       2 00000B3A 00000001     H   11997 11931B 11952B 11966B 11986B
 $$$222F       2 00000B58 00000001     H   12056 12013B
 $$$223F       2 00000B54 00000001     H   12051 12036B
 $$$224F       2 00000BA0 00000001     H   12155 12082B
 $$$225F       2 00000B9C 00000001     H   12150 12108B
 $$$225S       2 00000B68 00000001     H   12091 12149B
 $$$227F       2 00000B8C 00000001     H   12141 12126B
 $$$228F       2 00000CBA 00000001     H   12631 12175B 12189B
 $$$230F       2 00000BC2 00000001     H   12219 12204B
 $$$231F       2 00000BDE 00000001     H   12268 12253B
 $$$231T       2 00000BD6 00000001     H   12256 12241B
 $$$233F       2 00000CB6 00000001     H   12626 12296B
 $$$233S       2 00000BDE 00000001     H   12274 12625B
 $$$235F       2 00000BFA 00000001     H   12339 12315B
 $$$236        6 00001206 00000001     I   12329 12321X
 $$$237        6 00001206 00000001     I   12328 12329  12329
 $$$238B       4 00000BFE 00000001     I   12353 12387
 $$$238F       2 00000C14 00000001     H   12383 12353B 12386
 $$$239E       2 00000C18 00000001     H   12394 12388
 $$$239F       2 00000C2C 00000001     H   12433 12390B
 $$$240F       2 00000C42 00000001     H   12475 12460B
 $$$240T       2 00000C3A 00000001     H   12463 12448B
 $$$242F       2 00000C88 00000001     H   12577 12488B
 $$$243F       2 00000C5C 00000001     H   12515 12505B
 $$$244F       2 00000C88 00000001     H   12573 12527B 12548B 12562B
 $$$247F       2 00000CA0 00000001     H   12608 12593B
 $$$248B       1 00000CF8 00000001     X   12689 12696U
 $$$250B       4 00000D0C 00000001     I   12732 12837
 $$$250F       2 00000D48 00000001     H   12833 12732B 12836
 $$$251F       2 00000D26 00000001     H   12763 12754B
 $$$252F       2 00000D32 00000001     H   12801 12777B
 $$$253        6 0000120C 00000001     I   12791 12783X
 $$$254        6 0000120C 00000001     I   12790 12791  12791
 $$$255F       2 00000D48 00000001     H   12829 12813B
 $$$256E       2 00000D4C 00000001     H   12844 12838
 $$$256F       2 00000D7E 00000001     H   12936 12840B
 $$$257F       2 00000D5E 00000001     H   12871 12862B
 $$$258F       2 00000D6A 00000001     H   12909 12885B
 $$$259        6 00001212 00000001     I   12899 12891X
 $$$260        6 00001212 00000001     I   12898 12899  12899
 $$$261B       1 00000DBE 00000001     X   13004 13011U
 $$$262F       2 00000E16 00000001     H   13158 13033B
 $$$262S       2 00000DC2 00000001     H   13027 13157B
 $$$264F       2 00000E0C 00000001     H   13149 13049B
 $$$265B       4 00000DDC 00000001     I   13080 13101
 $$$265F       2 00000DF0 00000001     H   13094 13067B 13080B 13098
 $$$266B       4 00000DD4 00000001     I   13067 13099
 $$$267B       4 00000DF8 00000001     I   13118 13131
1ORV      (ORV2025) (12:50) (15MAR04) Ordinary Symbol and Literal Cross Reference                                           Page   45
 $$$267E       2 00000DF4 00000001     H   13108 13100  13102
 $$$267F       2 00000E00 00000001     H   13127 13104B 13118B 13130
 $$$269E       2 00000E04 00000001     H   13138 13132
 $$$269F       2 00000E0C 00000001     H   13145 13134B
 $$$270F       2 00000E26 00000001     H   13184 13171B
 $$$270S       2 00000E16 00000001     H   13165 13183B
 $$$273B       1 00000E4C 00000001     X   13299 13306U
 $$$274F       2 00000E72 00000001     H   13377 13368B
 $$$275F       2 00000E7E 00000001     H   13396 13387B
 $$$276F       2 00000E90 00000001     H   13436 13412B
 $$$277        6 00001218 00000001     I   13426 13418X
 $$$278        6 00001218 00000001     I   13425 13426  13426
 $$$279F       2 00000F5E 00000001     H   13765 13467B
 $$$280B       4 00000EBC 00000001     I   13499 13555
 $$$280F       2 00000EE0 00000001     H   13551 13499B 13554
 $$$281E       2 00000EE4 00000001     H   13562 13556
 $$$281F       2 00000F5A 00000001     H   13760 13558B
 $$$282F       2 00000EF8 00000001     H   13584 13575B
 $$$283F       2 00000F04 00000001     H   13603 13594B
 $$$284F       2 00000F12 00000001     H   13642 13618B
 $$$285        6 0000121E 00000001     I   13632 13624X
 $$$286        6 0000121E 00000001     I   13631 13632  13632
 $$$287B       4 00000F30 00000001     I   13685 13715
 $$$287F       2 00000F46 00000001     H   13712 13685B 13714
 $$$288E       2 00000F4A 00000001     H   13722 13716
 $$$288F       2 00000F5A 00000001     H   13756 13718B
 $$$289        1 00000258 00000001 A   U   13869 13866  13868
 $$$300B       1 00000FBC 00000001     X   14060 14067U
 $$$301F       2 00000FDE 00000001     H   14134 14119B
 $$$302F       2 00000FEE 00000001     H   14161 14146B
 $$$303F       2 00001010 00000001     H   14230 14173B
 $$$304B       4 00000FFC 00000001     I   14189 14207
 $$$304F       2 00001004 00000001     H   14204 14189B 14206
 $$$305E       2 00001008 00000001     H   14214 14208
 $$$305F       2 00001010 00000001     H   14226 14210B
 $$$306F       2 00001032 00000001     H   14299 14242B
 $$$307B       4 0000101E 00000001     I   14258 14276
 $$$307F       2 00001026 00000001     H   14273 14258B 14275
 $$$308E       2 0000102A 00000001     H   14283 14277
 $$$308F       2 00001032 00000001     H   14295 14279B
 $$$309F       2 0000104C 00000001     H   14339 14311B
 $$$310F       2 0000105C 00000001     H   14366 14351B
 $$$43B        1 00000030 00000001     X    6624  6631U
 $$$45F        2 0000004E 00000001     H    6701  6677B
 $$$46         6 0000035A 00000001     I    6691  6683X
 $$$47         6 0000035A 00000001     I    6690  6691   6691
 $$$48         1 00000050 00000001 A   U    6766  6763   6765
 $$$50B        1 0000009C 00000001     X    6800  6807U
 $$$51F        2 000000A8 00000001     H    6841  6827B
 $$$53         1 00000050 00000001 A   U    6886  6883   6885
 $$$55B        1 000000DC 00000001     X    6924  6931U
 $$$56F        2 00000114 00000001     H    7069  6953B  6970B  6988B  7007B
 $$$60F        2 00000108 00000001     H    7039  7025B
 $$$62         1 00000050 00000001 A   U    7088  7085   7087
 $$$64B        1 0000013C 00000001     X    7123  7130U
 $$$65         1 00000050 00000001 A   U    7168  7165   7167
 $$$67B        1 00000174 00000001     X    7204  7211U
 $$$68F        2 00000186 00000001     H    7258  7239B
 $$$69F        2 000001B0 00000001     H    7332  7272B
1ORV      (ORV2025) (12:50) (15MAR04) Ordinary Symbol and Literal Cross Reference                                           Page   46
 $$$70         1 00000050 00000001 A   U    7351  7348   7350
 $$$72B        1 000001D8 00000001     X    7390  7397U
 $$$73F        2 00000234 00000001     H    7568  7419B
 $$$74F        2 00000234 00000001     H    7564  7438B  7450B
 $$$76F        2 0000020A 00000001     H    7496  7486B
 $$$77F        2 00000216 00000001     H    7517  7507B
 $$$78F        2 0000022E 00000001     H    7556  7547B
 $$$79         1 00000050 00000001 A   U    7586  7583   7585
 $$$80B        1 00000250 00000001     X    7604  7611U
 $$$81F        2 000002C0 00000001     H    7810  7631B  7649B
 $$$83F        2 00000278 00000001     H    7681  7671B
 $$$84F        2 00000284 00000001     H    7702  7692B
 $$$85F        2 00000290 00000001     H    7723  7713B
 $$$86F        2 0000029C 00000001     H    7744  7734B
 $$$87F        2 000002A8 00000001     H    7765  7755B
 $$$88F        2 000002B4 00000001     H    7786  7776B
 $$$89F        2 000002C0 00000001     H    7806  7796B
 $$$92B        1 00000362 00000001     X    7984  7991U
 $$$93F        2 000003A4 00000001     H    8102  8018B
 $$$94F        2 0000039A 00000001     H    8092  8042B
 $$$95F        2 000003B4 00000001     H    8162  8114B
 $$$97B        1 000003CC 00000001     X    8221  8228U
 $$$98F        2 000003E8 00000001     H    8286  8271B
 $$$99F        2 00000424 00000001     H    8385  8372B
 @RAR          0 00000000 FFFFFFF0     @    1133  2159   2167B
 @R0           0 00000000 FFFFFFFE     @     706   982U
 @R1           0 00000000 FFFFFFFD     @     719   978U  2165   2166   6690  10945  11712  12328  13048  13066  13079
                                                 13085  13117  13151  13425  13631
 @R10          0 00000000 FFFFFFF4     @     836   942U
 @R11          0 00000000 FFFFFFF3     @     849   938U
 @R12          0 00000000 FFFFFFF2     @     862   934U
 @R13          0 00000000 FFFFFFF1     @     875   930U  9357M 11084M 11636M 12681M 12996M 14052M
 @R14          0 00000000 FFFFFFF0     @     888   926U
 @R15          0 00000000 FFFFFFEF     @     901   922U  9402  12227U 12282U 12618U 12743U 12744  12852U 12944U 12945
 @R2           0 00000000 FFFFFFFC     @     732   974U  8626U 10844U 11321  11325
 @R3           0 00000000 FFFFFFFB     @     745   970U 10790M 12114  12143  12742  12790  12851  12898  12911  12928
                                                 12943
 @R4           0 00000000 FFFFFFFA     @     758   966U 11727U
 @R5           0 00000000 FFFFFFF9     @     771   962U  8993U 10396U 11355U 12968U
 @R6           0 00000000 FFFFFFF8     @     784   958U  8129U  8154U  8201U  8392U  8706U  9000U 11378U 12975U 13357U
                                                 13825U 14404U
 @R7           0 00000000 FFFFFFF7     @     797   954U  6755U  6875U  7077U  7157U  7340U  7575U  7833U  8210U  8466U
                                                  8715U  8986U 10481U 10549U 10566U 11059U 11384U 12668U 12981U 13196U
                                                 13858U 14417U
 @R8           0 00000000 FFFFFFF6     @     810   950U 11054U 13853U 14411U
 @R9           0 00000000 FFFFFFF5     @     823   946U
 ABSCENT       1 00000000 00000000 A   T    2175  2175
 ACTFULL       1 00000000 00000017     T   14464 14464
 ASCTBL        1 00000000 00000000 A   T    2183  2183
 BLTBL         1 00000000 00000000 A   T    2185  2185
 BR            7 00000007 00000001 A   #    1023  6619M  6795M  6919M  7118M  7199M  7385M  9362M  9372U 10515M 10633M
                                                 11089M 11099U 11641M 11651U 12686M 12696U 13001M 13011U 13294M 14057M
                                                 14067U
 CHECKIOB      1 00000000 00000000 A   T    2231  2231
 CLRTEXT       1 00000000 0000001D     T   14474 14474
 CMDUNREC      1 00000000 0000000A     T   14437 14437
 CNTLCLRA     17 00000001 FFFFFFDD        13947 14310
 CNTLCODE      1 00000001 FFFFFFDD     R   13888 13897  13907  13917  13927  13937  13947  13957
 CNTLINIT      8 00000020 FFFFFFDC     X   14029 14085M 14085
1ORV      (ORV2025) (12:50) (15MAR04) Ordinary Symbol and Literal Cross Reference                                           Page   47
 CNTLMOD       2 00000006 FFFFFFDD     H   13963 14124
 CNTLORV       8 00000000 FFFFFFDD     J   13970 14095U
 CNTLRBAD    128 00000020 FFFFFFDC        14017 14107M
 CNTLRET       1 00000020 FFFFFFDC     R   13988 13997  14007  14017
 CNTLRNOL      4 00000020 FFFFFFDC        14007 14200M 14269M
 CNTLROK       0 00000020 FFFFFFDC        13997 14130M 14157M 14222M 14291M 14335M 14362M
 CNTLSNAS     14 00000001 FFFFFFDD        13917 14145
 CNTLSNDL     28 00000001 FFFFFFDD        13957 14350
 CNTLSNFL     15 00000001 FFFFFFDD        13927 14172
 CNTLSNLL     16 00000001 FFFFFFDD        13937 14241
 CNTLSTMW     12 00000001 FFFFFFDD        13897 14118
 CNTLWA       40 00000000 FFFFFFDC     J   14036 14056  14076U
 CNTLWORD      4 00000024 FFFFFFDC     F   14028 14368M
 CNTLWYL       8 00000020 FFFFFFDC     X   13985 14029  14029  14386
 COMMAND       1 00000000 00000000 A   T    2171  2171
 COMMSEG       1 00000000 00000000 A   T    2172  2172
 CONTROL       4 00000FA2 00000001     I   14052  7856
 CP         4096 00000000 FFFFFFEC     J    6185  1160U
 CP#XSTK       1 00000010 FFFFFFEC A   U    3917  3918
 CPACFLG       1 000005D5 FFFFFFEC     R    4020  4024   4029   4034   4039   4044
 CPACFLN       4 000005C4 FFFFFFEC     F    4012  4047   4047
 CPAFLAG       1 000005C3 FFFFFFEC     R    3984  3988   3993   3998   4003
 CPAFLNO       4 000005A0 FFFFFFEC     F    3972 14216
 CPALLNO       4 000005A4 FFFFFFEC     F    3973 14285
 CPALNCT       4 000005AC FFFFFFEC     F    3975  9861M  9861  11891M 11891  12487M 12487  14151  14188M 14188  14257M
                                                 14257
 CPANAME       8 00000588 FFFFFFEC     C    3966  4062   4062  11908  11915M 12504  12511M
 CPATITL      80 000005D6 FFFFFFEC     C    4052 11930M 11930  11936M 11992M 11993M 12526M 12526  12532M 12568M 12569M
                                                 14429
 CPAUTFLG      1 000008A9 FFFFFFEC     R    4330  4334   4339   4344   4349
 CPCHFLAG      1 00000B68 FFFFFFEC     R    4957  4961
 CPCMD       235 00000242 FFFFFFEC     C    2810  6690M  8315
 CPCMDLEN      2 00000240 FFFFFFEC     H    2809  6662M  7145M  7145   8319
 CPCWA         4 00000CA4 FFFFFFEC     F    5209  9379M 10554
 CPDELTA       4 00000738 FFFFFFEC     F    4069 14356
 CPDFLG        1 0000084C FFFFFFEC     R    4217  4221   4226   4231   4236   4241
 CPDFLG2       1 0000084D FFFFFFEC     R    4246  4250   4255   4260   4265   4270   4275
 CPDOUB        8 00000C88 FFFFFFEC     D    5203 10790
 CPEXFLG       1 00000758 FFFFFFEC     R    4086  4090
 CPEXFLG2      1 00000759 FFFFFFEC     R    4096  4105   4115
 CPEXFLG3      1 0000075A FFFFFFEC     R    4122  4126   4131
 CPEXTFLG      1 00000E28 FFFFFFEC     R    5768  5772   5777   5782   5787   5792   5797
 CPFABORT    128 00000D5A FFFFFFEC         5534  2135M  2135   2140M  2140   8816   8857   8913   8913   8914M
 CPFCLEAR     16 00000D55 FFFFFFEC         5414 14321M
 CPFCNTL       8 00000140 FFFFFFEC         2603  7670
 CPFERROR     64 00000D5A FFFFFFEC         5539  2134M  2134   2139M  2139   8804   8831   8913   8913
 CPFLKPP       4 00000140 FFFFFFEC         2608 11283
 CPFNTEX       1 00000040 FFFFFFEC A   U    5386  5387
 CPFNWARN      4 00000D55 FFFFFFEC         5424 14325M
 CPFRCTRL      1 00000140 FFFFFFEC         2618  7775
 CPFRDRNG      1 00000D88 FFFFFFEC     R    5654  5658   5663   5668   5673   5678   5683   5688
 CPFRDSRC      1 00000D89 FFFFFFEC     R    5693  5702   5712   5722
 CPFREDT     128 00000140 FFFFFFEC         2583  6837M  6860   7035M  7057   7449   7691
 CPFRTEXT     32 00000140 FFFFFFEC         2593  7485   7733
 CPFSTINS      1 00000040 FFFFFFEC A   U    5365 11863
 CPFSTREP      1 00000008 FFFFFFEC A   U    5374 11834
 CPFTRY      128 0000047B FFFFFFEC         3727  6985
 CPFTYPED     16 00000477 FFFFFFEC         3591  8270   8656M  8679M
 CPFUNUM       1 00000080 FFFFFFEC A   U    5385  5387
1ORV      (ORV2025) (12:50) (15MAR04) Ordinary Symbol and Literal Cross Reference                                           Page   48
 CPFVCMD     128 0000047D FFFFFFEC         3768  7250M  7283M  8649M  8778M
 CPFWEDT      64 00000140 FFFFFFEC         2588  7238   7271   7712
 CPFWTEXT     16 00000140 FFFFFFEC         2598  7506   7754
 CPFXDFLG      1 000007E4 FFFFFFEC     R    4164  4168   4173
 CPFXTEND      1 00000759 FFFFFFEC         4105  7418
 CPGFLG1       1 00000474 FFFFFFEC     R    3527  3531   3536   3541   3546   3551   3881   3881
 CPGFLG10      1 0000047D FFFFFFEC     R    3764  3768   3773   3778   3783   3788   3793
 CPGFLG11      1 0000047E FFFFFFEC     R    3799  3803   3808
 CPGFLG12      1 0000047F FFFFFFEC     R    3814  3818   3823   3828
 CPGFLG13      1 00000480 FFFFFFEC     R    3834  3838
 CPGFLG14      1 00000481 FFFFFFEC     R    3844  3848   3853   3858   3863   3868
 CPGFLG4       1 00000477 FFFFFFEC     R    3580  3591   3600   3609   3618   3627
 CPGFLG5       1 00000478 FFFFFFEC     R    3633  3637   3642   3647   3652   3657   3662   3667   3672
 CPGFLG6       1 00000479 FFFFFFEC     R    3678  3682   3687   3692
 CPGFLG7       1 0000047A FFFFFFEC     R    3698  3702   3707   3712   3717
 CPGFLG8       1 0000047B FFFFFFEC     R    3723  3727   3732   3737   3742
 CPGFLG9       1 0000047C FFFFFFEC     R    3748  3752   3758
 CPGFNCMD     16 00000478 FFFFFFEC         3652  8919M
 CPGFNOSPIEDIT
             128 00000480 FFFFFFEC         3838  6967
 CPINIT        1 00000174 FFFFFFEC     U    2697  6154
 CPJESFLG      1 000009E1 FFFFFFEC     R    4429  4433   4438   4443   4448   4453   4458   4463   4468
 CPJESFLY      1 000009FD FFFFFFEC     R    4479  4483   4488   4493
 CPJESHFL      1 000009E0 FFFFFFEC     R    4414  4418   4423   4502   4502
 CPLCNO        4 0000073C FFFFFFEC     F    4071  9592   9620M  9626   9645   9694   9763   9802  10556  10699  10704
                                                 10785  10928  10981
 CPLFLG10      1 00000D59 FFFFFFEC     R    5520  5524
 CPLFLG11      1 00000D5A FFFFFFEC     R    5530  5534   5539   5544   5549
 CPLFLG12      1 00000D5B FFFFFFEC     R    5555  5559
 CPLFLG14      1 00000D5C FFFFFFEC     R    5565  5569   5574   5579   5584   5589
 CPLFLG4       1 00000D53 FFFFFFEC     R    5363 11836M 11865M
 CPLFLG5       1 00000D54 FFFFFFEC     R    5382 10780M 10798M
 CPLFLG6       1 00000D55 FFFFFFEC     R    5395  5399   5404   5409   5414   5419   5424
 CPLFLG7       1 00000D56 FFFFFFEC     R    5430  5434   5439   5444   5449   5454
 CPLFLG8       1 00000D57 FFFFFFEC     R    5460  5464   5469   5474   5479
 CPLFLG9       1 00000D58 FFFFFFEC     R    5485  5489   5494   5499   5504   5509   5514
 CPLOCALZ      1 00000C48 FFFFFFEC     U    4987  6148   6148
 CPMFLG        1 0000084F FFFFFFEC     R    4284  4288
 CPMODFLG      1 00000C78 FFFFFFEC     R    5015  5019   5024   5029   5034   5039
 CPNAMELN      1 00000010 FFFFFFEC A   U    3910  4157
 CPNEDPFX     10 00000E29 FFFFFFEC     X    5801  5802   5803
 CPNFINT       1 00000008 FFFFFFEC A   U    5390 10778  10796
 CPNUMFLG      1 00000C79 FFFFFFEC     R    5045  5057
 CPOFNPAS     64 00000149 FFFFFFEC         2639  6952
 CPOFPRST      1 00000149 FFFFFFEC         2669  9489  12731
 CPOFRPASS
             128 00000150 FFFFFFEC         2686  6849M  7046M  8041   8410
 CPORV        16 00000140 FFFFFFEC     X    2674  7524M  7524   8053M  8053
 CPORVCMD      1 00000140 FFFFFFEC     R    2579  2583   2588   2593   2598   2603   2608   2613   2618   2623   2623
                                                  2674   2674   6826   7024   7437
 CPORVFLG      1 00000149 FFFFFFEC     R    2630  2634   2639   2644   2649   2654   2659   2664   2669
 CPORVINF      8 00000140 FFFFFFEC     X    2623  7993   8582  10284  11116  11674  13334  14087
 CPORVLNO      4 0000014C FFFFFFEC     F    2673  9450  10426  10431  10981M
 CPORVMOD      2 00000148 FFFFFFEC     X    2625 14124M
 CPORVWF       1 00000150 FFFFFFEC     R    2682  2686
 CPORVYL       8 000008BC FFFFFFEC     C    4394  7532   7630   8064   8069   8354   8426   8431   8947  10457  11259
                                                 12645  13835  14379
 CPOSCANX      4 00000CA8 FFFFFFEC     F    5214  5281   5281
 CPR          11 0000000B 00000001 A   #    1087  1160U
1ORV      (ORV2025) (12:50) (15MAR04) Ordinary Symbol and Literal Cross Reference                                           Page   49
 CPRACBAD     16 000001FC FFFFFFEC         2748  2782   2782   2783   2783
 CPRACF1       1 000001FC FFFFFFEC     R    2729  2733   2738   2743   2748   2753   2758   2763   2768   2784
 CPRACPSW     32 000001FC FFFFFFEC         2743  2781   2781   2783   2783
 CPRACUND     64 000001FC FFFFFFEC         2738  2781   2781   2782   2782
 CPRCVCUR      4 00000730 FFFFFFEC     A    4065  4067   4067
 CPRFLG        1 000008AA FFFFFFEC     R    4355  4359   4364   4369   4374   4379   4384   7004
 CPS         254 00000344 FFFFFFEC     X    3499  3502   3503   3505   3505
 CPSACCT       5 000003B4 FFFFFFEC     C    3098  3261   3261
 CPSAMCOD      1 00000A22 FFFFFFEC     R    4551  4559   4569   4579   4588   4597   4606   4616   4625   4634
 CPSAMFLG      1 00000A21 FFFFFFEC     R    4511  4515   4520   4525   4530   4535   4540   4545   4656   4656
 CPSCNFLG      1 00000CD0 FFFFFFEC     R    5227  5238   5247   5258
 CPSCNF2       1 00000CD1 FFFFFFEC     R    5263  5267
 CPSCNMAX      1 00000014 FFFFFFEC A   U    5279  5280
 CPSCRI        2 00000434 FFFFFFEC     H    3488  3493   3493
 CPSEG        60 00000050 FFFFFFEC     X    2568  6725   6743   7299   7324   7470   7821   8077   8172   8297   8341
                                                  8439   8637   8935  10198  10380  10439  13447  13517  13543  13652
                                                 13671  13704  13748  13782
 CPSEGCOD      1 00000050 FFFFFFEC     R    2485  2494   2504   2514   2524   2534   2544   2554
 CPSEGLENF
               4 0000005C FFFFFFEC     A    2560 13565  13817
 CPSEGLOC      4 00000070 FFFFFFEC     A    2564  8691   9401   9915  11691  13397  13564
 CPSEGMAXF
               4 00000054 FFFFFFEC     A    2558 10344
 CPSFL         1 00000384 FFFFFFEC     R    2836  2840   2845   2850   2855   2860
 CPSFLG        1 000003F8 FFFFFFEC     R    3376  3380   3385   3390   3395   3400   3405   3410   3415
 CPSFLG2       1 000003F9 FFFFFFEC     R    3421  3425   3430   3435
 CPSFL2        1 00000385 FFFFFFEC     R    2866  2870   2875   2880   2885
 CPSFL3        1 00000386 FFFFFFEC     R    2891  2895   2900   2905
 CPSFL4        1 00000387 FFFFFFEC     R    2911  2915   2920   2925
 CPSFL5        1 00000388 FFFFFFEC     R    2931  2935   2940   2945
 CPSKAFL       1 000003BF FFFFFFEC     R    3232  3236   3241   3246   3251   3256
 CPSKIFL       1 000003BE FFFFFFEC     R    3187  3191   3196   3201   3206   3211   3216   3221   3226
 CPSOF         1 000001F8 FFFFFFEC     X    2719  2721   2721
 CPSOFLAG      1 00000416 FFFFFFEC     R    3446  3450   3455   3460   3465   3470
 CPSOPST       4 000003C4 FFFFFFEC     F    3266  3495   3495
 CPSPORT       8 00000354 FFFFFFEC     C    2830  2950   2950
 CPSQFLG       1 000003EC FFFFFFEC     R    3295  3299
 CPSSFLG       1 000003BB FFFFFFEC     R    3105  3109   3114   3119   3124   3129   3134
 CPSSTART      4 00000344 FFFFFFEC     F    2822  2826   2826   3262   3262   3367   3367   3499   3499
 CPSSTAT       1 0000038F FFFFFFEC     R    3042  3046   3051   3056   3061   3066   3071   3076
 CPSTACF       1 000003BC FFFFFFEC     R    3140  3144   3149   3154   3159   3164   3169   3174   3179
 CPSTART       4 00000000 FFFFFFEC     C    2458  6152   6156
 CPSTFLAG      1 000003EA FFFFFFEC     R    3273  3277   3282   3287
 CPSTYPE       1 0000038C FFFFFFEC     R    2955  2964   2974   2984   2994   3004   3014   3024   3034
 CPSUFLG       1 000003EE FFFFFFEC     R    3310  3314   3319   3324   3329   3334   3339   3344   3349
 CPSUFLG2      1 000003EF FFFFFFEC     R    3355  3359   3364
 CPSVPGM       8 0000039C FFFFFFEC     C    3088  3094   3094  11949M 11949  11963  11983  11993  12545M 12545  12559
                                                 12569
 CPSYS         8 00000154 FFFFFFEC     C    2692  7630   7646M  7646
 CPS1ST        4 0000038C FFFFFFEC     F    2952  3497   3497
 CPTEMPP#      1 0000005F FFFFFFEC A   U    4405  4407
 CPTRMFL1      1 00000C7A FFFFFFEC     R    5063  5067   5072   5077   5201   5201
 CPTRMFL2      1 00000C7B FFFFFFEC     R    5083  5087   5092   5097   5102   5107   5112
 CPTRMFL3      1 00000C7C FFFFFFEC     R    5118  5122   5127   5132   5137   5142   5147   5152
 CPTRMFL4      1 00000C7D FFFFFFEC     R    5158  5162   5167   5172   5177   5182   5187   5192
 CPUSED        1 00000FBC FFFFFFEC A   U    6152  6153
 CPVACURS      8 00000AF0 FFFFFFEC     D    4930  4931   4932
 CPVCURS       8 00000AE0 FFFFFFEC     D    4924  4925   4926
 CPVFLAG       1 00000AC8 FFFFFFEC     R    4725  4729   4734   4739   4744   4749
1ORV      (ORV2025) (12:50) (15MAR04) Ordinary Symbol and Literal Cross Reference                                           Page   50
 CPVFLAG2      1 00000AC9 FFFFFFEC     R    4755  4759   4764   4769   4774   4779   4784
 CPVFLAG3      1 00000ACA FFFFFFEC     R    4790  4794   4799   4804   4809   4814   4819
 CPVFLAG4      1 00000ACB FFFFFFEC     R    4825  4829   4834   4839
 CPVLFLAG      1 00000ACE FFFFFFEC     R    4894  4898   4903   4908
 CPVMODE       1 00000ACC FFFFFFEC     R    4847  4851   4856   4861   4866   4871   4876   4881   4886
 CPVTWID       2 00000AD0 FFFFFFEC     H    4914  4917   4917
 CPWK1         4 00000D60 FFFFFFEC     F    5598  5613   5636
 CPWK2         4 00000D64 FFFFFFEC     F    5599  5614   5628
 CPWK3         4 00000D68 FFFFFFEC     F    5600  5615   5629
 CPWK4         4 00000D6C FFFFFFEC     F    5601  5616   5630
 CPWK5         4 00000D70 FFFFFFEC     F    5602  5618   5623   5631
 CPWK6         4 00000D74 FFFFFFEC     F    5603  5619   5624   5632   5639   5641
 CPWK7         4 00000D78 FFFFFFEC     F    5604  5617   5633
 CPXFLAG       1 000007FD FFFFFFEC     R    4192  4196
 CPXSTATE      4 000007F8 FFFFFFEC     F    4186  4199   4199
 CV         4016 00000000 FFFFFFEE     J    2361  1169U
 CVABSENT      4 000007F0 FFFFFFEE     I    2150  6656B
 CVABSRTN      4 0000088C FFFFFFEE     V    2175  2150
 CVABTMSG      4 000007CC FFFFFFEE     I    2135  8088B  8450B
 CVBRMSK       1 00000751 FFFFFFEE     X    2091  2092   2093
 CVCFLAG       1 00000A00 FFFFFFEE     R    2256  2260   2265   2270   2275   2280
 CVCHKST       8 000009F0 FFFFFFEE     D    2246  2336   2336
 CVCHKST2      8 00000E28 FFFFFFEE     D    2339  2342   2342
 CVCOMRTN      4 0000087C FFFFFFEE     V    2171  2141
 CVCURJCB      4 000001C8 FFFFFFEE     A    1440  8119   8597   8760
 CVDBGFLG      1 000004CC FFFFFFEE     R    1945  1949
 CVENT         4 0000074C FFFFFFEE     I    2089  6619B  6795B  6919B  7118B  7199B  7385B  7601B  9362B 10515B 10633B
                                                 11089B 11641B 12686B 13001B 13294B 14057B
 CVENTBR       2 00000750 FFFFFFEE     I    2090  2091
 CVERROR       4 000007D6 FFFFFFEE     I    2139  2155B  6748B  8189B
 CVEXIRTN      4 0000077C FFFFFFEE     V    2119  2115
 CVEXNO        1 00000000 00000010     T   14452 14452
 CVFCHRKBPR
               8 000004C9 FFFFFFEE         1860  1876   1876
 CVFCHRKBSE
               4 000004C9 FFFFFFEE         1865  1876   1876
 CVFCHRKCPR
               2 000004C9 FFFFFFEE         1882  1898   1898
 CVFCHRKCSE
               1 000004C9 FFFFFFEE         1887  1898   1898
 CVFCHRUBPR
             128 000004C9 FFFFFFEE         1816  1832   1832
 CVFCHRUBSE
              64 000004C9 FFFFFFEE         1821  1832   1832
 CVFCHRUCPR
              32 000004C9 FFFFFFEE         1838  1854   1854
 CVFCHRUCSE
              16 000004C9 FFFFFFEE         1843  1854   1854
 CVFL          1 000004C4 FFFFFFEE     R    1612  1616   1621   1626   1631   1636   1641   1646   1651
 CVFL2         1 000004C5 FFFFFFEE     R    1657  1661   1666   1671   1676   1681   1686   1691   1696
 CVFL3         1 000004C6 FFFFFFEE     R    1702  1706   1711   1716   1721   1726   1731   1736   1741
 CVFL4         1 000004C7 FFFFFFEE     R    1747  1751   1756   1761   1766   1771   1776   1781
 CVFL5         1 000004C8 FFFFFFEE     R    1787  1791   1796   1801   1806
 CVFL6         1 000004C9 FFFFFFEE     R    1812  1816   1821   1833   1838   1843   1855   1860   1865   1877   1882
                                                  1887   1899
 CVHEAP#       1 00000200 FFFFFFEE A   U    1518  1519
 CVINVRTN      4 00000888 FFFFFFEE     V    2174  2144
 CVJESFLG      1 000004CA FFFFFFEE     R    1905  1909
 CVLNKRGS      4 00000780 FFFFFFEE     F    2121  2096M  2122
1ORV      (ORV2025) (12:50) (15MAR04) Ordinary Symbol and Literal Cross Reference                                           Page   51
 CVLNKRTN      4 000007B0 FFFFFFEE     U    2122  2111M
 CVLOCK1       1 00000088 FFFFFFEE     R    1263  1267   1272
 CVLOCK2       1 00000089 FFFFFFEE     R    1277  1281
 CVLOCK3       1 0000008A FFFFFFEE     R    1286  1290
 CVLOCK4       1 0000008B FFFFFFEE     R    1295  1299
 CVLOGMOD      1 00000068 FFFFFFEE     R    1250  1254
 CVMACH        1 00000067 FFFFFFEE     R    1210  1214   1219   1224   1229   1234   1239   1244
 CVMAXLNO      4 0000015C FFFFFFEE     A    1404  9474  12459
 CVMILRTN      4 00000884 FFFFFFEE     V    2173  2153
 CVNEXT        4 000007DE FFFFFFEE     I    2141  7150B  7552B  7826B  8098B  8203B  8979B
 CVNOARTN      4 00000890 FFFFFFEE     V    2176  2147
 CVNWDATE      4 00000608 FFFFFFEE     F    1978  1982   1982
 CVNWMPG#      1 00000008 FFFFFFEE A   U    1980  1981
 CVPFXRTN      1 00000000 00000000 A   T    2119  2119
 CVPGFLAG      1 00000A01 FFFFFFEE     R    2286  2290   2295   2300
 CVPIOSZ       1 00004F80 FFFFFFEE A   U    1349  1351
 CVPPDBQH      4 0000009C FFFFFFEE     A    1307  1308
 CVPSFNO       1 000003E9 FFFFFFEE A   N    1471  1473
 CVPSLNO       1 000007CF FFFFFFEE A   N    1472  1473
 CVPXSZ        1 00000008 FFFFFFEE A   U    1350  1351
 CVR          12 0000000C 00000001 A   #    1100  1169U
 CVRKEY        1 00000008 FFFFFFEE A   U    2044  2045
 CVSEGRTN      4 00000880 FFFFFFEE     V    2172  2136
 CVSTACK#      1 00000080 FFFFFFEE A   U    1510  1511
 CVSTART       4 00000000 FFFFFFEE     C    1183  2354
 CVTRC         4 00000768 FFFFFFEE     I    2111  2097B
 CVTRCRTN      4 00000778 FFFFFFEE     V    2118  2112
 CVUSFNO       1 00000001 FFFFFFEE A   N    1478  1480
 CVUSLNO       1 000003E7 FFFFFFEE A   N    1479  1480
 CVVOL#        1 00000005 FFFFFFEE A   U    2329  2330
 CVWTOFLG      1 000004CB FFFFFFEE     R    1915  1919   1924   1929   1934   1939
 DEBUGSG       1 00000000 00000000 A   T    2072  2072
 DELRANGE      1 00000000 00000019     T   14466 14466
 DESPOT        1 00000000 00000013     T   14455 14455
 DESRTRN       1 00000080 FFFFFFEC A   U    6161 10485
 DEV          12 00000000 FFFFFFEB     J    4710  4718
 DEVMAX#       1 00000002 FFFFFFEC A   U    4661  4718
 DEVTYPE       1 00000001 FFFFFFEB     R    4678  4687   4697
 DOTTBL        1 00000000 00000000 A   T    2188  2188
 DRENCFLG      1 00000F9F FFFFFFEC     R    6116  6120   6125   6130   6135   6140
 DRENPROT      1 00000F9E FFFFFFEC     R    6103  6111
 DSNON        40 00000E90 FFFFFFEC     C    5836  5837
 DSNWADSN     44 00000E5C FFFFFFEC     C    5823  5824   5825   5826   5835   5843   6074   6080   6082   6088   6091
                                                  6093   6096   6145
 DSNWAF4       1 00000F37 FFFFFFEC     R    5891  5895   5900   5905   5910   5915   5920   5925   5930
 DSNWAF5       1 00000F38 FFFFFFEC     R    5936  5940   5945   5950   5955   5960   5965   5970   5975
 DSNWAF6       1 00000F39 FFFFFFEC     R    5981  5985   5990   5995   6000   6005   6010   6015   6020
 DSNWAF7       1 00000F3A FFFFFFEC     R    6026  6030   6035   6040   6045
 DSNXG         1 00000004 FFFFFFEC A   U    5828  5830
 DSNXGL        1 00000003 FFFFFFEC A   U    5829  5830
 DSNXU         1 00000007 FFFFFFEC A   U    5830  5832
 DSNXUL        1 00000004 FFFFFFEC A   U    5831  5832
 DSSIZ         1 00000108 FFFFFFEC A   U    6074  6082   6091   6096
 EBCTBL        1 00000000 00000000 A   T    2184  2184
 EBCTBL7       1 00000000 00000000 A   T    2187  2187
 ECBLIST       1 00000000 00000000 A   T    2047  2047
 EDITCK        1 00000000 0000001B     T   14470 14470
 EDTCOMMV      1 00000000 0000000B     T   14438 14438
 ENDLNO        1 00000000 0000001A     T   14468 14468
1ORV      (ORV2025) (12:50) (15MAR04) Ordinary Symbol and Literal Cross Reference                                           Page   52
 EPARTBL       1 00000000 00000000 A   T    2179  2179
 EVALSTR       1 00000000 0000001C     T   14472 14472
 FSR           0 00000000 00000001 A   #    1010  6614   6763M  6790   6883M  6914   7085M  7113   7165M  7194   7348M
                                                  7380   7583M 10510  10574M 10627  11067M 13288  13866M
 GETHEAP       1 00000000 00000016     T   14461 14461
 GETLINE       1 00000000 0000000C     T   14442 14442
 HIBAL         1 00000000 FFFFFFFF     J     691   707    720    733    746    759    772    785    798    811    824
                                                   837    850    863    876    889    902
 INITCMD       1 00000000 00000007     T    7855  7855
 INVALID       1 00000000 00000000 A   T    2174  2174
 JCB         208 00000000 FFFFFFE9     J    6578  8132U  8607U  8768U
 JCBAFL        1 00000062 FFFFFFE9     R    6423  6427   6432   6437   6442   6447   6452   6457   6462
 JCBBFL        1 00000063 FFFFFFE9     R    6468  6472   6477   6482   6487   6492   6497   6502
 JCBBILLX      8 00000088 FFFFFFE9     D    6553  6561   6561
 JCBFATTN      2 00000062 FFFFFFE9         6457  8143M  8619M  8792   8883   8906M
 JCBRSCF1      1 00000064 FFFFFFE9     R    6508  6512   6517   6522
 JCBSFLG1      1 00000065 FFFFFFE9     R    6528  6532   6537
 JCBWFL        1 00000060 FFFFFFE9     R    6352  6356   6361   6366   6371   6376   6381   6386   6391   6419
 JCBWWFL       1 00000061 FFFFFFE9     R    6397  6401   6406   6411   6416
 LOCATRTN      1 00000000 FFFFFFEC A   U    6165 10485
 LOWTBL        1 00000000 00000000 A   T    2182  2182
 LSR           8 00000008 00000001 A   #    1048  6614   6763M  6790   6883M  6914   7085M  7113   7165M  7194   7348M
                                                  7380   7583M 10510  10574M 10627  11067M 13288  13866M
 MILERR        1 00000000 00000000 A   T    2173  2173
 NBLTBL        1 00000000 00000000 A   T    2186  2186
 NOACTION      1 00000000 00000000 A   T    2176  2176
 NPARTBL       1 00000000 00000000 A   T    2180  2180
 NSCNCB      176 00000000 FFFFFFED     J    2445  2571
 NSCNFLGS      1 00000008 FFFFFFED     R    2382  2386   2391
 NSCNTYPE      1 00000018 FFFFFFED     R    2400  2404   2409   2414   2419   2424
 ORVCABRT      2 00000122 00000001     H    7104  7100
 ORVCHK        2 000001BE 00000001     H    7371  7367
 ORVCMD        2 00000082 00000001     H    6781  6777   7848  14431
 ORVCPASS      2 000000C2 00000001     H    6905  6901
 ORVNEXT       4 00000250 00000001     I    7615  7802B
 ORVRETN       2 0000015A 00000001     H    7185  7181
 ORVRQST       2 00000242 00000001     H    7599  7597   7854  14436
 ORV2025       1 00000000 00000001     R     999   997
 PAGERES       1 00000000 00000009     T   14433 14433
 PASS          2 00000016 00000001     H    6605  6601
 PRESS         1 00000000 00000015     T   14458 14458
 PREVLNO       1 00000000 0000000D     T   14444 14444
 RAR          14 0000000E 00000001 A   #    1126  2111   2112M  2113B  2115M  2116B  2136M  2137B  2141M  2142B  2144M
                                                  2145B  2147M  2148B  2150M  2151B  2153M  2154M  2154B  2160   6611
                                                  6643M  6644M  6644B  6704M  6705M  6705B  6728M  6729M  6729B  6746M
                                                  6747M  6747B  6765M  6768B  6787   6885M  6888B  6911   7087M  7090B
                                                  7110   7148M  7149M  7149B  7167M  7170B  7191   7253M  7254M  7254B
                                                  7302M  7303M  7303B  7327M  7328M  7328B  7350M  7353B  7377   7473M
                                                  7474M  7474B  7539M  7540M  7540B  7559M  7560M  7560B  7585M  7588B
                                                  7615M  7616M  7616B  7801M  7824M  7825M  7825B  8080M  8081M  8081B
                                                  8096M  8097M  8097B  8175M  8176M  8176B  8300M  8301M  8301B  8304M
                                                  8305M  8305B  8344M  8345M  8345B  8364M  8365M  8365B  8380M  8381M
                                                  8381B  8442M  8443M  8443B  8458M  8459M  8459B  8640M  8641M  8641B
                                                  8698M  8699M  8699B  8938M  8939M  8939B  8957M  8958M  8958B  8972M
                                                  8973M  8973B  9589M  9590M  9590B  9594M  9623M  9624M  9624B  9643M
                                                  9644M  9644B  9647M  9691M  9692M  9692B  9696M  9746M  9747M  9747B
                                                  9786M  9896M  9897M  9897B  9913M  9914M  9914B  9940M  9941M  9941B
                                                  9957M  9958M  9958B  9995M  9996M  9996B 10034M 10035M 10035B 10054M
                                                 10055M 10055B 10075M 10076M 10076B 10080M 10081M 10081B 10103M 10104M
1ORV      (ORV2025) (12:50) (15MAR04) Ordinary Symbol and Literal Cross Reference                                           Page   53
                                                 10104B 10120M 10121M 10121B 10125M 10126M 10126B 10148M 10149M 10149B
                                                 10169M 10170M 10170B 10173M 10174M 10174B 10179M 10180M 10180B 10201M
                                                 10202M 10202B 10353M 10354M 10354B 10383M 10384M 10384B 10442M 10443M
                                                 10443B 10467M 10468M 10468B 10507  10558M 10576M 10579B 10624  10669M
                                                 10715M 10716M 10716B 10788M 10789M 10789B 10889M 10890M 10890B 10943M
                                                 10944M 10944B 10973M 10974M 10974B 11069M 11072B 11198M 11199M 11199B
                                                 11221M 11222M 11222B 11269M 11270M 11270B 11336M 11337M 11337B 11787M
                                                 11788M 11788B 11878M 12005M 12006M 12006B 12118M 12119M 12119B 12196M
                                                 12197M 12197B 12360M 12361M 12361B 12413M 12581M 12582M 12582B 12585M
                                                 12586M 12586B 12655M 12656M 12656B 12805M 12806M 12806B 12931M 12932M
                                                 12932B 13285  13450M 13451M 13451B 13491M 13492M 13492B 13520M 13521M
                                                 13521B 13546M 13547M 13547B 13655M 13656M 13656B 13674M 13675M 13675B
                                                 13707M 13708M 13708B 13751M 13752M 13752B 13785M 13786M 13786B 13845M
                                                 13846M 13846B 13868M 13871B 14328M 14329M 14329B 14389M 14390M 14390B
 RCTLCMD       1 00000000 FFFFFFDF     X   13210 13816M
 RCTLLEN       2 00000002 FFFFFFDF     H   13217 13350  13818M
 RCTLORV       8 00000000 FFFFFFDF     J   13226 13241  13344U 13799U 13810M 13810
 RDBASE        2 0000052A 00000001     H    9375 10552U 14457
 RDCDONE       4 00000F70 00000001     I   13789 13761B
 RDCINP      256 00000000 FFFFFFDE     C   13238 13425M 13466  13480  14471
 RDCOUT      256 00000100 FFFFFFDE     C   13240 13487  13488  13631M 13735  14473
 RDCTRL        2 00000E32 00000001     H   13278  7861
 RDCTRLWA    520 00000000 FFFFFFDE     J   13248 13291  13320U 13330M 13330  13331M 13331  13332M 13332  13866  13868
                                                 13869
 RDCWYL        8 00000200 FFFFFFDE     X   13241 13789  13842
 RDEDIT        2 00000360 00000001     I    7981  7857
 RDIEXIT       2 00000A40 00000001     I   11366 11271B 11286B 11306B
 RDLEXIT       2 00000994 00000001     H   11050 10670B 11037B
 RDLFULL       2 0000098C 00000001     H   11041 10717B 10891B 10975B
 RDTDONE       4 00000798 00000001     I   10198  9591B  9595B  9625B  9648B  9693B  9697B  9808B  9864B 10181B 10559B
 RDTEXT        4 00000510 00000001     I    9357  7859
 RDTINIT       4 000009A2 00000001     I   11084 10669B
 RDTLBYTE      1 00000000 FFFFFFE2     X   10589 10861M 10871
 RDTLINE       2 00000880 00000001     H   10617  9594B  9647B  9696B  9786B 10558B
 RDTLWA        1 00000000 FFFFFFE2     J   10596 10630  10659U 11067  11069  11070
 RDTXTRTN      2 00000844 00000001     H   10501 10486
 RDTXTWRK      1 00000840 00000001     R   10485 10176
 REDTFATT     64 00000002 FFFFFFE8         7907  8113
 REDTFCMD     99 00000000 FFFFFFE7         7941  8259M
 REDTFCME    128 00000002 FFFFFFE8         7902  8186
 REDTFIN       2 000003CA 00000001     I    8218  6863B  7060B
 REDTFLAG      1 00000001 FFFFFFE7     R    7947  7951
 REDTFNT     128 00000001 FFFFFFE7         7951  8282M
 REDTLEN       2 00000002 FFFFFFE7     H    7955  8320M
 REDTOFLG      1 00000001 FFFFFFE8     R    7884  7892
 REDTOFL2      1 00000002 FFFFFFE8     R    7898  7902   7907
 REDTORV       8 00000000 FFFFFFE8     J    7918  8003U  8157U
 REDTRET       1 00000000 FFFFFFE7     R    7932  7941
 REDTRSEN      4 00000001 FFFFFFE8         7892  8017
 REDTWYL       8 00000000 FFFFFFE7     J    7964  8232   8242U  8253M  8253
 RTSG         60 00000124 FFFFFFE3     X    9333  9893   9910   9937   9954   9992  10031  10051  10072  10100  10117
                                                 10145  10712  10886  10970  11218  11333
 RTSGCOD       1 00000124 FFFFFFE3     R    9250  9259   9269   9279   9289   9299   9309   9319
 RTSGLENF      4 00000130 FFFFFFE3     A    9325 10166  10332  10372  10982
 RTSGLOC       4 00000144 FFFFFFE3     A    9329 10367
 RTXTBUF     256 00000160 FFFFFFE3     X    9334  9880   9885  10161
 RTXTFCOL      2 00000014 FFFFFFE3     H    9215  9980
 RTXTFINT     32 00000008 FFFFFFE3         9207  9417   9417  10751  10751  10767
 RTXTFLIN      4 0000000C FFFFFFE3     F    9213  9443   9451M  9572   9620   9674   9722  10077
1ORV      (ORV2025) (12:50) (15MAR04) Ordinary Symbol and Literal Cross Reference                                           Page   54
 RTXTFNLP    128 00000001 FFFFFFE4         9022 10323  11144
 RTXTFNOT    128 00000008 FFFFFFE3         9189 10734
 RTXTFNUM     64 00000008 FFFFFFE3         9198  9417   9417   9418  10751  10751  10752
 RTXTINF      18 00000008 FFFFFFE3     X    9107  9402M  9925
 RTXTLCOL      2 00000016 FFFFFFE3     H    9216 10039
 RTXTLEN       2 00000002 FFFFFFE3     H    9101 10982M
 RTXTLFLG      1 00000020 FFFFFFE3     R    9225  9229   9234   9239
 RTXTLINE    235 00000021 FFFFFFE3     C    9243  9581   9586   9635   9640   9683   9688   9738   9743
 RTXTLINT     64 00000020 FFFFFFE3         9234 10220  10308  11110  11349M
 RTXTLLIN      4 00000010 FFFFFFE3     F    9214  9467M  9467   9474M  9775  10122
 RTXTLREC      1 00000009 FFFFFFE3     X    9211  9425M  9516  10684  10831  10843
 RTXTLTRN     32 00000020 FFFFFFE3         9239 10256  11045M
 RTXTLUNP    128 00000020 FFFFFFE3         9229  9501M  9528M 10815
 RTXTMAXL      2 0000000A FFFFFFE3     H    9212 11003  11032M
 RTXTNUM       2 00000004 FFFFFFE3     H    9102 10244M 10244  10987  10988M
 RTXTOFLG      1 00000001 FFFFFFE4     R    9018  9022
 RTXTOPT       1 00000008 FFFFFFE3     R    9110  9119   9129   9139   9149   9159   9169   9179   9189   9198   9207
                                                  9534
 RTXTORV       8 00000000 FFFFFFE4     J    9035 10294U 11126U
 RTXTRET       1 00000000 FFFFFFE3     R    9053  9062   9072   9082   9092
 RTXTRLEN      2 00000006 FFFFFFE4     H    9028 11150
 RTXTRLKP    100 00000000 FFFFFFE3         9092 11251M
 RTXTRNOL      4 00000000 FFFFFFE3         9072 10209M
 RTXTROK       0 00000000 FFFFFFE3         9062 10231M
 RTXTRTOS      8 00000000 FFFFFFE3         9082 10268M
 RTXTSLEN      2 00000018 FFFFFFE3     H    9217  9929
 RTXTSTKP      4 0000001C FFFFFFE3     A    9222  9399M 10469
 RTXTSTR       1 0000001A FFFFFFE3     C    9218  9925
 RTXTWA      608 00000000 FFFFFFE3     J    9341  9378   9387U  9395M  9395   9396M  9396   9397M  9397
 RTXTWYL       8 00000000 FFFFFFE3     X    9050 10464  11266
 R0            0 00000000 FFFFFFFF A   #     699  2096   2165M  6653M  6653   6662   6663   6735M  7291M  7316M  7316
                                                  8069M  8087M  8319M  8320   8431M  8449M  8695M  9586M  9640M  9688M
                                                  9743M  9885M  9902M  9929M  9946M  9984M  9984  10023M 10043M 10043
                                                 10064M 10077M 10109M 10122M 10166M 10332M 10344  10372M 10431M 10664
                                                 10704M 10785M 10878M 10908M 10940M 10946M 11003M 11004M 11004  11011M
                                                 11020M 11020  11032  11150M 11159M 11159  11169M 11169  11184  11191M
                                                 11303  11325M 11695M 11717  12114M 12115  12283M 12293  12362  12379M
                                                 12411M 12429M 12611M 12620M 12621  12635M 12636  12928M 13032M 13032
                                                 13153M 13485M 13486M 13509M 13535M 13663M 13696M 13740M 13774M
 R1            1 00000001 FFFFFFFF A   #     712  2159M  2160M  2166M  6734M  7290M  7532M  8064M  8086M  8315M  8354M
                                                  8426M  8448M  8691M  8947M  9581M  9635M  9683M  9738M  9880M  9901M
                                                  9925M  9945M  9980M 10022M 10039M 10063M 10108M 10161M 10367M 10426M
                                                 10457M 10663  10699M 10871M 10903M 10935M 10945M 11259M 11313  11321M
                                                 11691M 11712M 11717  12115M 12283M 12371M 12404M 12422M 12611M 12619M
                                                 12621  12645M 12802M 12920M 12950M 13151M 13397M 13480M 13508M 13530M
                                                 13564M 13662M 13695M 13735M 13773M 13835M 14379M
 R12          12 0000000C FFFFFFFF A   #     855  2122
 R13          13 0000000D FFFFFFFF A   #     868  7600
 R14          14 0000000E FFFFFFFF A   #     881  2097M  9357  11084  11636  12681  12996  14052
 R15          15 0000000F FFFFFFFF A   #     894  2096   6725M  6743M  6767M  6767   6887M  6887   7089M  7089   7169M
                                                  7169   7299M  7324M  7352M  7352   7470M  7475M  7492M  7513M  7587M
                                                  7587   7660M  7660   7677M  7698M  7719M  7740M  7761M  7782M  7795M
                                                  7795   7801B  7821M  8077M  8172M  8297M  8341M  8361M  8439M  8637M
                                                  8935M  8954M  9401M  9449M  9450M  9451   9572M  9592M  9626M  9645M
                                                  9673M  9674M  9694M  9729M  9763M  9775   9893M  9910M  9937M  9954M
                                                  9992M 10031M 10051M 10072M 10100M 10117M 10145M 10176M 10198M 10380M
                                                 10439M 10464M 10556M 10578M 10578  10712M 10886M 10928M 10970M 10986M
                                                 10987M 10988  10992M 10992  11027M 11046M 11071M 11071  11218M 11266M
                                                 11273M 11333M 11364M 11364  12226M 12238M 12238  12252  12281M 12293
1ORV      (ORV2025) (12:50) (15MAR04) Ordinary Symbol and Literal Cross Reference                                           Page   55
                                                 12305M 12314M 12314  12321  12362M 12445M 12445  12459  12617M 12619
                                                 12620  12652M 12700M 12742M 12744M 12747  12759M 12767M 12776M 12776
                                                 12783  12851M 12855  12867M 12875M 12884M 12884  12891  12911M 12943M
                                                 12945M 12946  12947  12954M 12954  13016M 13016  13087M 13088M 13140M
                                                 13177M 13398M 13402M 13411M 13411  13418  13447M 13517M 13543M 13604M
                                                 13608M 13617M 13617  13624  13652M 13671M 13704M 13748M 13782M 13817M
                                                 13818  13842M 13870M 13870  14386M
 R2            2 00000002 FFFFFFFF A   #     725  6663M  6667M  6676M  6676   6683   8597M  8607U  9359   9361   9361
                                                  9361   9915M  9925  10664M 10843M 10861  10908  10940  11086  11088
                                                 11088  11088  11313M 11638  11640  11640  11640  12093M 12105  12144M
                                                 12145  12683  12685  12685  12685  12698M 12712  12947M 12948  12998
                                                 13000  13000  13000  13085M 13086M 13088  13487M 13530  13565M 13568
                                                 13580M 13587  13599M 13604  13684M 13684  13740  13983  14054
 R3            3 00000003 FFFFFFFF A   #     738 10663M 10903  10935  12093M 12143M 12145  12698M 12946M 12948  13021M
                                                 13021  13090M 13123M 13170M 13170  13179M 13488M 13535
 R4            4 00000004 FFFFFFFF A   #     751  9722M  9729   9801M  9802M 10283M 10283  10385M 10410M 10410  11726M
                                                 11730  11742M 11765  11779  11823  11852  12035  12081  12174  12188
                                                 12352
 R5            5 00000005 FFFFFFFF A   #     764  8760M  8768U  9534M  9535M  9538   9550M  9566M  9566   9614   9667
                                                  9716   9831   9845   9970  10012  10284M 10294U 11116M 11126U 11674M
                                                 11682U 13350M 13361  13373M 13380  13392M 13398  13485  14101M 14101
                                                 14151M 14216M 14285M 14356M 14368
 R6            6 00000006 FFFFFFFF A   #     777  7993M  8003U  8119M  8132U  8231M  8242U  8582M  8592U  8742M  8751U
                                                  9377M  9379   9387U 10554M 11654M 11663U 13334M 13344U 13789M 13799U
                                                 14087M 14095U
 R7            7 00000007 FFFFFFFF A   #     790  2089M  2089   2090B  2102B  7601M  7611U
 R8            8 00000008 FFFFFFFF A   #     803  7600M  9359   9360M  9361   9361   9361  10659U 11086  11087M 11088
                                                 11088  11088  11638  11639M 11640  11640  11640  12683  12684M 12685
                                                 12685  12685  12998  12999M 13000  13000  13000  13320U 13983  14054
                                                 14055M
 SCINIT        1 00000000 00000011     T   14453 14453
 SCTELL        1 00000000 00000002     T    7847  7847
 SDSNQSZ       1 0000002C FFFFFFEC A   U    6077  6078   6079
 SEG           1 00000000 00000003     T    7849  7849  14434
 SEGCLR        1 00000000 00000005     T    7852  7852  14432
 SEGDC         1 00000000 0000000F     T   14450 14450
 SEGINIT       1 00000000 0000000E     T   14448 14448
 SEGT          1 00000000 00000008     T   14430 14430
 SEGWR         1 00000000 00000004     T    7851  7851
 SPR          13 0000000D 00000001 A   #    1113  6611   6614   6615   6616M  6616   6759M  6763   6765   6787   6790
                                                  6791   6792M  6792   6879M  6883   6885   6911   6914   6915   6916M
                                                  6916   7081M  7085   7087   7110   7113   7114   7115M  7115   7161M
                                                  7165   7167   7191   7194   7195   7196M  7196   7344M  7348   7350
                                                  7377   7380   7381   7382M  7382   7579M  7583   7585  10507  10510
                                                 10511  10512M 10512  10570M 10574  10576  10624  10627  10629  10630M
                                                 10630  11063M 11067  11069  13285  13288  13290  13291M 13291  13862M
                                                 13866  13868
 STOW          1 00000000 00000018     T   14465 14465
 TRC           1 00000000 00000000 A   T    2118  2118
 TSEGBUF       1 00000000 00000014     T   14456 14456
 TTYFLAG       1 00000004 FFFFFFEA     R    6206  6210
 TTYMAX#       1 00000006 FFFFFFEA A   U    6262  6263
 TTYTFLAG      1 00000005 FFFFFFEA     R    6216  6220   6225   6230   6235   6240   6245   6250
 TXCTL         1 00000000 00000006     T    7853  7853  14435
 UNPRST        1 00000001 FFFFFFEC A   U    6166 10485
 UPPTBL        1 00000000 00000000 A   T    2181  2181
 WAR           8 00000008 00000001 A   #    1036  6615M  6759   6791M  6879   6915M  7081   7114M  7161   7195M  7344
                                                  7381M  7579   9399  10469M 10511M 10570  10629M 11063  13290M 13862
                                                 14076U
1ORV      (ORV2025) (12:50) (15MAR04) Ordinary Symbol and Literal Cross Reference                                           Page   56
 WEDTATTN      4 00000007 FFFFFFE5         8544  8895M
 WEDTCERR     16 00000000 FFFFFFE5         8528  8843M  8869M
 WEDTFIN       2 0000048E 00000001     I    8727  7850
 WEDTFLAG      1 00000007 FFFFFFE5     R    8536  8544
 WEDTNTYP      4 00000001 FFFFFFE6         8492  8666
 WEDTOFLG      1 00000001 FFFFFFE6     R    8484  8492
 WEDTOLEN      2 00000002 FFFFFFE6     H    8496  8695
 WEDTORV       8 00000000 FFFFFFE6     J    8505  8592U
 WEDTRET       1 00000000 FFFFFFE5     R    8519  8528
 WEDTWYL       8 00000000 FFFFFFE5     J    8553  8743   8751U  8759M  8759
 WLNOEXIT      2 00000E26 00000001     I   13187 13141B
 WREDIT        2 00000452 00000001     I    8570  7858
 WRLEXIT       2 00000D96 00000001     I   12956 12715B 12825B
 WRTEXIT       4 00000CBA 00000001     I   12635 11806B 11879B 12052B 12062B 12137B 12151B 12215B 12264B 12471B 12604B
                                                 12627B
 WRTEXT        4 00000A4E 00000001     I   11636  7860
 WRTLINE       4 00000CDE 00000001     I   12681 11878B
 WRTLNO        4 00000DA4 00000001     I   12996 12413B
 WTOSG         1 00000000 00000000 A   T    2078  2078
 WTXTFLKP      4 00000001 FFFFFFE1        11410 11705
 WTXTLBUF    256 00000010 FFFFFFE0     C   11613 12328M 12371  12404  12422  12790M 12802  12898M 12920  12950
 WTXTLEN       2 00000002 FFFFFFE1     H   11414 11695
 WTXTLREC      1 00000007 FFFFFFE1     X   11492 12226  12281  12379  12617
 WTXTOFLG      1 00000001 FFFFFFE1     R   11402 11410
 WTXTOPT       1 00000006 FFFFFFE1     R   11419 11428  11438  11448  11458  11468  11478  11488  11726
 WTXTORV       8 00000000 FFFFFFE1     J   11500 11682U
 WTXTPTRS      4 00000008 FFFFFFE0     A   11612 11717M 12093  12145M 12283  12611  12621M 12635  12698  12948M
 WTXTRBAD     24 00000000 FFFFFFE0        11587 12263M 12470M 12824M
 WTXTRDUP     20 00000000 FFFFFFE0        11577 12023M 12603M
 WTXTRES       2 00000006 FFFFFFE0     H   11608 12636M
 WTXTRET       1 00000000 FFFFFFE0     R   11518 11527  11537  11547  11557  11567  11577  11587  11597
 WTXTRFUL     12 00000000 FFFFFFE0        11557 11805M 12214M
 WTXTRNOL     16 00000000 FFFFFFE0        11567 12047M 12136M
 WTXTWA      272 00000000 FFFFFFE0     J   11620 11655  11663U 11671M 11671  11672M 11672
 WTXTWYL       8 00000000 FFFFFFE0     X   11515 12652
 WYLORV        1 00000000 00000001     J     990   992   1018   1031   1044   1056   1069   1082   1095   1108   1121
                                                  1134   2362   2446   6186   6298   6579   6584   6588   6696
 ZDETRNG       1 00000000 00000012     T   14454 14454
 =A(CONTROL)
               4 00000324 00000001     A    7856  7677
 =A(L'RDCINP)
               4 00001184 00000001     A   14471 13380  13392
 =A(L'RDCOUT)
               4 0000118C 00000001     A   14473 13587  13599
 =A(ORVCMD)
               4 00000304 00000001     A    7848  6704   7148
 =A(ORVCMD)
               4 000010E4 00000001     A   14431  8096
 =A(ORVRQST)
               4 0000031C 00000001     A    7854  7559
 =A(ORVRQST)
               4 000010F8 00000001     A   14436  8380   8972
 =A(RDBASE)
               4 0000114C 00000001     A   14457 10540
 =A(RDCTRL)
               4 00000338 00000001     A    7861  7782
 =A(RDEDIT)
               4 00000328 00000001     A    7857  7698
 =A(RDTEXT)
1ORV      (ORV2025) (12:50) (15MAR04) Ordinary Symbol and Literal Cross Reference                                           Page   57
               4 00000330 00000001     A    7859  7740
 =A(WEDTFIN)
               4 0000030C 00000001     A    7850  7253
 =A(WREDIT)
               4 0000032C 00000001     A    7858  7719
 =A(WRTEXT)
               4 00000334 00000001     A    7860  7761
 =A(X'F')      4 00001108 00000001     A   14440  9535  13086
 =A(0)         4 00001164 00000001     A   14463 11765  13361  13373  13568  13580
 =A(1)         4 00001114 00000001     A   14443  9614  11823  12035
 =A(12)        4 00001160 00000001     A   14462 11303
 =A(2)         4 0000111C 00000001     A   14445  9667  11779  11852
 =A(235)       4 00001174 00000001     A   14467 12252  12855  12867
 =A(256)       4 0000117C 00000001     A   14469 12747  12759
 =A(3)         4 00001120 00000001     A   14446  9716  12081
 =A(4)         4 00001124 00000001     A   14447  9831  12105  12174  12352
 =A(5)         4 0000112C 00000001     A   14449  9970  12712
 =A(6)         4 0000110C 00000001     A   14441  9538   9550   9845  10012  11730  11742  12188
 =A(8192)      4 00001158 00000001     A   14460 11184  11191
 =AL4(-1)      4 00001104 00000001     R   14439  9443
 =C' failure, command interrupted.'
              30 00001194 00000001     C   14475  8086   8448
 =C' IN '      4 00001134 00000001     C   14451 10063
 =C'/'         1 000011C7 00000001     C   14483 10022  10108
 =C': unrecognized command. '
              24 000002D0 00000001     C    7843  6734
 =C'@@SYSEXPR?'
              10 000011B8 00000001     C   14479 13466
 =C'"'         1 000011C6 00000001     C   14482  9901   9945
 =C'DISPLAY'
               7 000011C8 00000001     C   14484 11983
 =C'Missing expression.'
              19 000011CF 00000001     C   14485 13695
 =C'ORVYL/WYLBUR re-synchronized.'
              29 0000033C 00000001     C    7862  7290
 =C'0;'        2 000011C2 00000001     C   14480 13508
 =C'1;'        2 000011C4 00000001     C   14481 13662
 =C'9;Unrecognized control information.'
              35 000011E2 00000001     C   14486 13773
 =CL(L'CPATITL)'Text from ORVYL'
              80 00001090 00000001     C   14429 11936  12532
 =CL8'NEW'
               8 00001080 00000001     C   14427 11908  12504
 =CL8'ORVYL'
               8 00001088 00000001     C   14428 11915  12511
 =F'1'         4 00001154 00000001     F   14459 10946
 =H'-1'        2 000011B6 00000001     H   14478 13140
 =H'10'        2 000011B4 00000001     H   14477 13087  13177  13486
 =H'4'         2 000011B2 00000001     H   14476 12144
 =V(ACTFULL)
               4 00001168 00000001     V   14464 11787  12196
 =V(CLRTEXT)
               4 00001190 00000001     V   14474 14328
 =V(CMDUNREC)
               4 000010FC 00000001     V   14437  8458
 =V(CVEXNO)
               4 00001138 00000001     V   14452 10080  10125  10788
 =V(DELRANGE)
               4 00001170 00000001     V   14466 12118
1ORV      (ORV2025) (12:50) (15MAR04) Ordinary Symbol and Literal Cross Reference                                           Page   58
 =V(DESPOT)
               4 00001144 00000001     V   14455 10179
 =V(EDITCK)
               4 00001180 00000001     V   14470 12805
 =V(EDTCOMMV)
               4 00001100 00000001     V   14438  8698
 =V(ENDLNO)
               4 00001178 00000001     V   14468 12360
 =V(EVALSTR)
               4 00001188 00000001     V   14472 13491
 =V(GETHEAP)
               4 0000115C 00000001     V   14461 11198
 =V(GETLINE)
               4 00001110 00000001     V   14442  9589   9643   9691   9746
 =V(INITCMD)
               4 00000320 00000001     V    7855  7615
 =V(PAGERES)
               4 000010EC 00000001     V   14433  8304
 =V(PRESS)
               4 00001150 00000001     V   14458 10943  12581  12931
 =V(PREVLNO)
               4 00001118 00000001     V   14444  9623
 =V(SCINIT)
               4 0000113C 00000001     V   14453 10169
 =V(SCTELL)
               4 00000300 00000001     V    7847  6643
 =V(SEG)       4 00000308 00000001     V    7849  6728   6746   7302
 =V(SEG)       4 000010F0 00000001     V   14434  8344   9913   9940   9957  10034  10075  10103  10120  10148  10383
                                                 10442  10715  10889  10973  13520  13546  13674  13707  13751  13785
 =V(SEGCLR)
               4 00000314 00000001     V    7852  7473   7824
 =V(SEGCLR)
               4 000010E8 00000001     V   14432  8175   8300   8640   8938  10201  13450  13655
 =V(SEGDC)
               4 00001130 00000001     V   14450  9995  10054
 =V(SEGINIT)
               4 00001128 00000001     V   14448  9896  11221  11336
 =V(SEGT)      4 000010E0 00000001     V   14430  8080   8442
 =V(SEGWR)
               4 00000310 00000001     V    7851  7327
 =V(STOW)      4 0000116C 00000001     V   14465 12005  12585
 =V(TSEGBUF)
               4 00001148 00000001     V   14456 10353
 =V(TXCTL)
               4 00000318 00000001     V    7853  7539
 =V(TXCTL)
               4 000010F4 00000001     V   14435  8364   8957  10467  11269  12655  13845  14389
 =V(ZDETRNG)
               4 00001140 00000001     V   14454 10173
 =X'0400000000000000'
               8 000002F0 00000001     X    7845  7492
 =X'1800000000000000'
               8 000002F8 00000001     X    7846  7513
 =XL8'00'      8 000002E8 00000001     X    7844  7475

1ORV      (ORV2025) (12:50) (15MAR04) Macro and Copy Code Source Summary                                                    Page   59
- Con Source                                        Volume    Members                        HLASM R4.0  2004/03/15 12.50
0     PRIMARY INPUT                                           CSECT    DROP     END      EX       LTORG    POP
                                                              PRINT    PUSH     START    USING
   L1 WYL.GS.WYL.WYLBUR.MACLIB                      SYSB05    ABORT    AINFO    BASE     COLINFO  COMMENT  CONTROL  CP
                                                              CPLOCAL  CV       CVLOCAL  GENTER   JCB      OSCINIT
                                                              OSCTELL  RG       SCANCB   SEGINIT  TCLEAR   TSEG
                                                              TTYPE    TWRITE   TXCTL    VLTORG   XENTER   XEXIT    XSA
                                                              XTRACE
   L2 WYL.GG.SYS.MACLIB                             SYSB05    $BC      $BFLKUP  $BV      $CCLKUP  $CRS     $CSS     $L
                                                              $LA      $LBLAD   $LEXP    $LOR     $REL     $RGLKUP
                                                              $USLKUP  ACALL    BEGIN    CEIL     CLEAR    COMPROC
                                                              CSECT    DATA     DECR     DEFCC    DROP     DTEX     ELSE
                                                              ELSEIF   END      EX       FLAG     FLOOR    GEN
                                                              HIBAL    IDENT    IF       INCR     LABEL    LC
                                                              LCALL    LOOP     LS       LTH      LTORG    MOVE     PEND
                                                              POP      PRINT    PROC     PUSH     QLTORG   RECORD   REG
                                                              REGS     SET      SETMSG   START    USING    VCALL
                                                              WHILE    WITH     XPROC
   L3 SYS3.IS.MACLIB                                SYSB05    SEG      SEGCB    SEGCLR   SEGDC    SEGLD    SEGWR    SIB
                                                              SYSDEFN  XPUSH

1ORV      (ORV2025) (12:50) (15MAR04) Dsect Cross Reference                                                                 Page   60
-Dsect     Length      Id       Defn                                                         HLASM R4.0  2004/03/15 12.50
0$$$@R0   00000000  FFFFFFFE     705
 $$$@R1   00000000  FFFFFFFD     718
 $$$@R10  00000000  FFFFFFF4     835
 $$$@R11  00000000  FFFFFFF3     848
 $$$@R12  00000000  FFFFFFF2     861
 $$$@R13  00000000  FFFFFFF1     874
 $$$@R14  00000000  FFFFFFF0     887
 $$$@R15  00000000  FFFFFFEF     900
 $$$@R2   00000000  FFFFFFFC     731
 $$$@R3   00000000  FFFFFFFB     744
 $$$@R4   00000000  FFFFFFFA     757
 $$$@R5   00000000  FFFFFFF9     770
 $$$@R6   00000000  FFFFFFF8     783
 $$$@R7   00000000  FFFFFFF7     796
 $$$@R8   00000000  FFFFFFF6     809
 $$$@R9   00000000  FFFFFFF5     822
 $$$RCNTLORV
          00000008  FFFFFFDD   13878
 $$$RCNTLWA
          00000028  FFFFFFDC   13976
 $$$RCP   00001000  FFFFFFEC    2451
 $$$RCV   00000FB0  FFFFFFEE    1176
 $$$RDEV  0000000C  FFFFFFEB    4665
 $$$RJCB  000000D0  FFFFFFE9    6304
 $$$RNSCNCB
          000000B0  FFFFFFED    2372
 $$$RRCTLORV
          00000008  FFFFFFDF   13204
 $$$RRDCTRLWA
          00000208  FFFFFFDE   13232
 $$$RRDTLWA
          00000001  FFFFFFE2   10583
 $$$RREDTORV
          00000008  FFFFFFE8    7874
 $$$RREDTWYL
          00000008  FFFFFFE7    7924
 $$$RRTXTORV
          00000008  FFFFFFE4    9008
 $$$RRTXTWA
          00000260  FFFFFFE3    9041
 $$$RTTYPE
          0000010C  FFFFFFEA    6196
 $$$RWEDTORV
          00000008  FFFFFFE6    8474
 $$$RWEDTWYL
          00000008  FFFFFFE5    8511
 $$$RWTXTORV
          00000008  FFFFFFE1   11392
 $$$RWTXTWA
          00000110  FFFFFFE0   11506
 HIBAL    00000000  FFFFFFFF     691

1ORV      (ORV2025) (12:50) (15MAR04) Using Map                                                                             Page   61
-                                                                                            HLASM R4.0  2004/03/15 12.50
   Stmt  -----Location----- Action ----------------Using----------------- Reg Max    Last  Label and Using Text
           Count      Id           Type          Value    Range     Id        Disp   Stmt
0   922  00000000  FFFFFFFF USING  ORDINARY    00000000 00001000 FFFFFFEF  15 000    9402  @R15,15
    926  00000000  FFFFFFFF USING  ORDINARY    00000000 00001000 FFFFFFF0  14 002    2167  @R14,14
    930  00000000  FFFFFFFF USING  ORDINARY    00000000 00001000 FFFFFFF1  13 000   14052  @R13,13
    934  00000000  FFFFFFFF USING  ORDINARY    00000000 00001000 FFFFFFF2  12 000          @R12,12
    938  00000000  FFFFFFFF USING  ORDINARY    00000000 00001000 FFFFFFF3  11 000          @R11,11
    942  00000000  FFFFFFFF USING  ORDINARY    00000000 00001000 FFFFFFF4  10 000          @R10,10
    946  00000000  FFFFFFFF USING  ORDINARY    00000000 00001000 FFFFFFF5   9 000          @R9,9
    950  00000000  FFFFFFFF USING  ORDINARY    00000000 00001000 FFFFFFF6   8 000          @R8,8
    954  00000000  FFFFFFFF USING  ORDINARY    00000000 00001000 FFFFFFF7   7 000          @R7,7
    958  00000000  FFFFFFFF USING  ORDINARY    00000000 00001000 FFFFFFF8   6 000          @R6,6
    962  00000000  FFFFFFFF USING  ORDINARY    00000000 00001000 FFFFFFF9   5 000          @R5,5
    966  00000000  FFFFFFFF USING  ORDINARY    00000000 00001000 FFFFFFFA   4 000          @R4,4
    970  00000000  FFFFFFFF USING  ORDINARY    00000000 00001000 FFFFFFFB   3 048   12943  @R3,3
    974  00000000  FFFFFFFF USING  ORDINARY    00000000 00001000 FFFFFFFC   2 000          @R2,2
    978  00000000  FFFFFFFF USING  ORDINARY    00000000 00001000 FFFFFFFD   1 004   13631  @R1,1
    982  00000000  FFFFFFFF USING  ORDINARY    00000000 00001000 FFFFFFFE   0 000          @R0,0
    983  00000000  FFFFFFFF DROP                                            0              0
   1160  00000016  00000001 USING  ORDINARY    00000000 00001000 FFFFFFEC  11 D5A   14379  CP,CPR
   1169  00000016  00000001 USING  ORDINARY    00000000 00001000 FFFFFFEE  12 890   14057  CV,CVR
   6631  00000030  00000001 USING  ORDINARY    00000030 00001000 00000001   7 32A    6746  $$$43B,7
   6755  00000074  00000001 USING  ORDINARY    00000000 00001000 FFFFFFF7   7 000          @R7,7
   6807  0000009C  00000001 USING  ORDINARY    0000009C 00001000 00000001   7 32E    6863  $$$50B,7
   6875  000000B4  00000001 USING  ORDINARY    00000000 00001000 FFFFFFF7   7 000          @R7,7
   6931  000000DC  00000001 USING  ORDINARY    000000DC 00001000 00000001   7 2EE    7060  $$$55B,7
   7077  00000114  00000001 USING  ORDINARY    00000000 00001000 FFFFFFF7   7 000          @R7,7
   7130  0000013C  00000001 USING  ORDINARY    0000013C 00001000 00000001   7 1C8    7148  $$$64B,7
   7157  0000014C  00000001 USING  ORDINARY    00000000 00001000 FFFFFFF7   7 000          @R7,7
   7211  00000174  00000001 USING  ORDINARY    00000174 00001000 00000001   7 1C8    7327  $$$67B,7
   7340  000001B0  00000001 USING  ORDINARY    00000000 00001000 FFFFFFF7   7 000          @R7,7
   7397  000001D8  00000001 USING  ORDINARY    000001D8 00001000 00000001   7 144    7559  $$$72B,7
   7575  00000234  00000001 USING  ORDINARY    00000000 00001000 FFFFFFF7   7 000          @R7,7
   7611  00000250  00000001 USING  ORDINARY    00000250 00001000 00000001   7 0E8    7824  $$$80B,R7
   7833  000002CE  00000001 USING  ORDINARY    00000000 00001000 FFFFFFF7   7 000          @R7,7
   7991  00000362  00000001 USING  ORDINARY    00000362 00001000 00000001   7 E32    8175  $$$92B,7
   8003  00000366  00000001 USING  ORDINARY    00000000 00001000 FFFFFFE8   6 002    8113  REDTORV,R6
   8129  000003B0  00000001 USING  ORDINARY    00000000 00001000 FFFFFFF8   6 000          @R6,6
   8132  000003B0  00000001 USING  ORDINARY    00000000 00001000 FFFFFFE9   6 062    8143  JCB,R6
   8154  000003B4  00000001 USING  ORDINARY    00000000 00001000 FFFFFFF8   6 000          @R6,6
   8157  000003B4  00000001 USING  ORDINARY    00000000 00001000 FFFFFFE8   6 002    8186  REDTORV,6
   8201  000003C6  00000001 USING  ORDINARY    00000000 00001000 FFFFFFF8   6 000          @R6,6
   8210  000003CA  00000001 USING  ORDINARY    00000000 00001000 FFFFFFF7   7 000          @R7,7
   8228  000003CC  00000001 USING  ORDINARY    000003CC 00001000 00000001   7 DC8    8458  $$$97B,7
   8242  000003D2  00000001 USING  ORDINARY    00000000 00001000 FFFFFFE7   6 002    8320  REDTWYL,R6
   8392  00000424  00000001 USING  ORDINARY    00000000 00001000 FFFFFFF8   6 000          @R6,6
   8466  00000452  00000001 USING  ORDINARY    00000000 00001000 FFFFFFF7   7 000          @R7,7
   8580  00000454  00000001 USING  ORDINARY    00000454 00001000 00000001   7 CAC    8698  $$$104B,7
   8592  00000458  00000001 USING  ORDINARY    00000000 00001000 FFFFFFE6   6 002    8695  WEDTORV,R6
   8607  0000045C  00000001 USING  ORDINARY    00000000 00001000 FFFFFFE9   2 062    8619  JCB,R2
   8626  00000460  00000001 USING  ORDINARY    00000000 00001000 FFFFFFFC   2 000          @R2,2
   8706  0000048C  00000001 USING  ORDINARY    00000000 00001000 FFFFFFF8   6 000          @R6,6
   8715  0000048E  00000001 USING  ORDINARY    00000000 00001000 FFFFFFF7   7 000          @R7,7
   8737  00000490  00000001 USING  ORDINARY    00000490 00001000 00000001   7 C68    8972  $$$106B,7
   8751  00000496  00000001 USING  ORDINARY    00000000 00001000 FFFFFFE5   6 007    8895  WEDTWYL,R6
1ORV      (ORV2025) (12:50) (15MAR04) Using Map                                                                             Page   62
   8768  000004A0  00000001 USING  ORDINARY    00000000 00001000 FFFFFFE9   5 062    8906  JCB,R5
   8986  00000510  00000001 USING  ORDINARY    00000000 00001000 FFFFFFF7   7 000          @R7,7
   8993  00000510  00000001 USING  ORDINARY    00000000 00001000 FFFFFFF9   5 000          @R5,5
   9000  00000510  00000001 USING  ORDINARY    00000000 00001000 FFFFFFF8   6 000          @R6,6
   9372  0000052A  00000001 USING  ORDINARY    0000052A 00001000 00000001   7 C9D   10467  $$$136B,BR
   9387  00000534  00000001 USING  ORDINARY    00000000 00001000 FFFFFFE3   6 200   11349  RTXTWA,R6
  10294  000007CE  00000001 USING  ORDINARY    00000000 00001000 FFFFFFE4   5 001   10323  RTXTORV,R5
  10396  00000806  00000001 USING  ORDINARY    00000000 00001000 FFFFFFF9   5 000          @R5,5
  10481  0000083E  00000001 USING  ORDINARY    00000000 00001000 FFFFFFF7   7 000          @R7,7
  10527  0000085E  00000001 USING  ORDINARY    0000085E 00001000 00000001   7 8EE   10540  $$$164B,7
  10549  00000862  00000001 USING  ORDINARY    00000000 00001000 FFFFFFF7   7 000          @R7,7
  10552  00000862  00000001 USING  ORDINARY    0000052A 00001000 00000001   7 356   10559  RDBASE,7
  10566  00000872  00000001 USING  ORDINARY    00000000 00001000 FFFFFFF7   7 000          @R7,7
  10645  0000089A  00000001 USING  ORDINARY    0000089A 00001000 00000001   7 8BA   11037  $$$167B,7
  10659  0000089A  00000001 USING  ORDINARY    FFFFFFD8 00001000 FFFFFFE2   8 028   10871  RDTLWA-(4+36),R8
  10840  00000904  00000001 DROP                                            2              2
  10844  0000090A  00000001 USING  ORDINARY    00000000 00001000 FFFFFFFC   2 008   11325  @R2,2
  11054  00000994  00000001 USING  ORDINARY    00000000 00001000 FFFFFFF6   8 000          @R8,8
  11059  00000994  00000001 USING  ORDINARY    00000000 00001000 FFFFFFF7   7 000          @R7,7
  11099  000009BC  00000001 USING  ORDINARY    000009BC 00001000 00000001   7 7A4   11336  $$$181B,BR
  11126  000009C8  00000001 USING  ORDINARY    00000000 00001000 FFFFFFE4   5 006   11150  RTXTORV,R5
  11355  00000A3E  00000001 USING  ORDINARY    00000000 00001000 FFFFFFF9   5 000          @R5,5
  11378  00000A4E  00000001 USING  ORDINARY    00000000 00001000 FFFFFFF8   6 000          @R6,6
  11384  00000A4E  00000001 USING  ORDINARY    00000000 00001000 FFFFFFF7   7 000          @R7,7
  11651  00000A68  00000001 USING  ORDINARY    00000A68 00001000 00000001   7 79E   12655  $$$205B,BR
  11663  00000A6E  00000001 USING  ORDINARY    00000000 00001000 FFFFFFE0   6 100   12950  WTXTWA,R6
  11682  00000A7E  00000001 USING  ORDINARY    00000000 00001000 FFFFFFE1   5 007   12617  WTXTORV,R5
  11723  00000A96  00000001 DROP                                            4              4
  11727  00000A9C  00000001 USING  ORDINARY    00000000 00001000 FFFFFFFA   4 000          @R4,4
  12223  00000BC2  00000001 DROP                                           15              15
  12227  00000BC8  00000001 USING  ORDINARY    00000000 00001000 FFFFFFEF  15 000          @R15,15
  12278  00000BDE  00000001 DROP                                           15              15
  12282  00000BE4  00000001 USING  ORDINARY    00000000 00001000 FFFFFFEF  15 000          @R15,15
  12614  00000CA4  00000001 DROP                                           15              15
  12618  00000CAA  00000001 USING  ORDINARY    00000000 00001000 FFFFFFEF  15 000          @R15,15
  12668  00000CDE  00000001 USING  ORDINARY    00000000 00001000 FFFFFFF7   7 000          @R7,7
  12696  00000CF8  00000001 USING  ORDINARY    00000CF8 00001000 00000001   7 51A   12931  $$$248B,BR
  12739  00000D10  00000001 DROP                                           15              15
  12743  00000D16  00000001 USING  ORDINARY    00000000 00001000 FFFFFFEF  15 005   12744  @R15,15
  12848  00000D4C  00000001 DROP                                           15              15
  12852  00000D52  00000001 USING  ORDINARY    00000000 00001000 FFFFFFEF  15 000          @R15,15
  12940  00000D7E  00000001 DROP                                           15              15
  12944  00000D84  00000001 USING  ORDINARY    00000000 00001000 FFFFFFEF  15 005   12945  @R15,15
  12968  00000DA4  00000001 USING  ORDINARY    00000000 00001000 FFFFFFF9   5 000          @R5,5
  12975  00000DA4  00000001 USING  ORDINARY    00000000 00001000 FFFFFFF8   6 000          @R6,6
  12981  00000DA4  00000001 USING  ORDINARY    00000000 00001000 FFFFFFF7   7 000          @R7,7
  13011  00000DBE  00000001 USING  ORDINARY    00000DBE 00001000 00000001   7 3F8   13183  $$$261B,BR
  13196  00000E32  00000001 USING  ORDINARY    00000000 00001000 FFFFFFF7   7 000          @R7,7
  13306  00000E4C  00000001 USING  ORDINARY    00000E4C 00001000 00000001   7 3D2   13845  $$$273B,7
  13320  00000E4C  00000001 USING  ORDINARY    FFFFFFD8 00001000 FFFFFFDE   8 228   13842  RDCTRLWA-(4+36),R8
  13344  00000E62  00000001 USING  ORDINARY    00000000 00001000 FFFFFFDF   6 002   13350  RCTLORV,R6
  13357  00000E66  00000001 USING  ORDINARY    00000000 00001000 FFFFFFF8   6 000          @R6,6
  13799  00000F74  00000001 USING  ORDINARY    00000000 00001000 FFFFFFDF   6 002   13818  RCTLORV,R6
  13825  00000F86  00000001 USING  ORDINARY    00000000 00001000 FFFFFFF8   6 000          @R6,6
  13853  00000F94  00000001 USING  ORDINARY    00000000 00001000 FFFFFFF6   8 000          @R8,8
  13858  00000F94  00000001 USING  ORDINARY    00000000 00001000 FFFFFFF7   7 000          @R7,7
  14067  00000FBC  00000001 USING  ORDINARY    00000FBC 00001000 00000001   7 1D4   14389  $$$300B,BR
  14076  00000FBC  00000001 USING  ORDINARY    00000000 00001000 FFFFFFDC   8 024   14386  CNTLWA,WAR
  14095  00000FC6  00000001 USING  ORDINARY    00000000 00001000 FFFFFFDD   6 006   14350  CNTLORV,R6
1ORV      (ORV2025) (12:50) (15MAR04) Using Map                                                                             Page   63
  14404  0000107C  00000001 USING  ORDINARY    00000000 00001000 FFFFFFF8   6 000          @R6,6
  14411  0000107C  00000001 USING  ORDINARY    00000000 00001000 FFFFFFF6   8 000          @R8,8
  14417  0000107C  00000001 USING  ORDINARY    00000000 00001000 FFFFFFF7   7 000          @R7,7

1         (ORV2025) (12:50) (15MAR04) General Purpose Register Cross Reference                                              Page   64
- Register  References (M=modified, B=branch, U=USING, D=DROP, N=index)                      HLASM R4.0  2004/03/15 12.50
0    0(0)      982U   983D  2096   2164M  2164   2165M  6614   6653M  6653   6662   6663   6735M  6763M  6790   6883M
              6914   7085M  7113   7165M  7194   7291M  7316M  7316   7348M  7380   7583M  8069M  8087M  8319M  8320
              8431M  8449M  8695M  9586M  9640M  9688M  9743M  9885M  9902M  9929M  9946M  9984M  9984  10023M 10043M
             10043  10064M 10077M 10109M 10122M 10166M 10332M 10344  10372M 10431M 10510  10574M 10627  10664  10704M
             10785M 10878M 10908M 10940M 10946M 11003M 11004M 11004  11011M 11020M 11020  11032  11067M 11150M 11159M
             11159  11169M 11169  11184  11191M 11303  11325M 11695M 11717  12114M 12115  12283M 12293  12362  12378M
             12378  12379M 12411M 12429M 12611M 12620M 12621  12635M 12636  12927M 12927  12928M 13032M 13032  13153M
             13288  13485M 13486M 13509M 13535M 13663M 13696M 13740M 13774M 13866M
     1(1)      978U  2096   2159M  2160M  2166M  6614   6734M  6763M  6790   6883M  6914   7085M  7113   7165M  7194
              7290M  7348M  7380   7532M  7583M  8064M  8086M  8315M  8354M  8426M  8448M  8691M  8947M  9581M  9635M
              9683M  9738M  9880M  9901M  9925M  9945M  9980M 10022M 10039M 10063M 10108M 10161M 10367M 10426M 10457M
             10510  10574M 10627  10663  10699M 10871M 10903M 10935M 10945M 11067M 11259M 11313  11321M 11691M 11712M
             11717  12115M 12283M 12371M 12404M 12422M 12611M 12619M 12621  12645M 12802M 12920M 12950M 13151M 13288
             13397M 13480M 13508M 13530M 13564M 13662M 13695M 13735M 13773M 13835M 13866M 14379M
     2(2)      974U  2096   6614   6663M  6667M  6676M  6676   6683   6763M  6790   6883M  6914   7085M  7113   7165M
              7194   7348M  7380   7583M  8597M  8607U  8626U  9359   9915M  9925N 10473M 10510  10574M 10627  10664M
             10840D 10842M 10842  10843M 10844U 10861  10908  10940  11067M 11086  11313M 11368M 11638  12093M 12105
             12144M 12145  12660M 12683  12698M 12712  12947M 12948  12958M 12998  13085M 13086M 13088  13189M 13288
             13487M 13530  13565M 13568  13580M 13587  13599M 13604  13684M 13684  13740  13866M 14054  14394M
     3(3)      970U  2096   6614   6763M  6790   6883M  6914   7085M  7113   7165M  7194   7348M  7380   7583M  9359
             10473M 10510  10574M 10627  10663M 10903  10935  11067M 11086  11368M 11638  12093M 12143M 12145  12660M
             12683  12698M 12946M 12948  12958M 12998  13021M 13021  13090M 13123M 13170M 13170  13179M 13189M 13288
             13488M 13535  13866M 14054  14394M
     4(4)      966U  2096   6614   6763M  6790   6883M  6914   7085M  7113   7165M  7194   7348M  7380   7583M  9359
              9722M  9729   9801M  9802M 10283M 10283  10385M 10410M 10410  10473M 10510  10574M 10627  11067M 11086
             11368M 11638  11723D 11725M 11725  11726M 11727U 11730  11742M 11765  11779  11823  11852  12035  12081
             12174  12188  12352  12660M 12683  12958M 12998  13189M 13288  13866M 14054  14394M
     5(5)      962U  2096   6614   6763M  6790   6883M  6914   7085M  7113   7165M  7194   7348M  7380   7583M  8760M
              8768U  8993U  9359   9534M  9535M  9538   9550M  9566M  9566   9614   9667   9716   9831   9845   9970
             10012  10284M 10294U 10396U 10473M 10510  10574M 10627  11067M 11086  11116M 11126U 11355U 11368M 11638
             11674M 11682U 12660M 12683  12958M 12968U 12998  13189M 13288  13350M 13361  13373M 13380  13392M 13398
             13485  13866M 14054  14101M 14101  14151M 14216M 14285M 14356M 14368  14394M
     6(6)      958U  2096   6614   6763M  6790   6883M  6914   7085M  7113   7165M  7194   7348M  7380   7583M  7993M
              8003U  8119M  8129U  8132U  8154U  8157U  8201U  8231M  8242U  8361   8392U  8582M  8592U  8706U  8742M
              8751U  8954   9000U  9359   9377M  9379   9387U 10473M 10510  10554M 10574M 10627  11067M 11086  11368M
             11378U 11638  11654M 11663U 12660M 12683  12958M 12975U 12998  13189M 13288  13334M 13344U 13357U 13789M
             13799U 13825U 13866M 14054  14087M 14095U 14394M 14404U
     7(7)      954U  2089M  2089   2090B  2096   2102B  6614   6619M  6631U  6755U  6763M  6790   6795M  6807U  6875U
              6883M  6914   6919M  6931U  7077U  7085M  7113   7118M  7130U  7157U  7165M  7194   7199M  7211U  7340U
              7348M  7380   7385M  7397U  7575U  7583M  7601M  7611U  7833U  7981M  7991U  8210U  8218M  8228U  8466U
              8570M  8580U  8715U  8727M  8737U  8986U  9359   9362M  9372U 10473M 10481U 10510  10515M 10527U 10540M
             10549U 10552U 10566U 10574M 10627  10633M 10645U 11059U 11067M 11086  11089M 11099U 11368M 11384U 11638
             11641M 11651U 12660M 12668U 12683  12686M 12696U 12958M 12981U 12998  13001M 13011U 13189M 13196U 13288
             13294M 13306U 13858U 13866M 14054  14057M 14067U 14394M 14417U
     8(8)      950U  2096   6614   6615M  6759   6763M  6790   6791M  6879   6883M  6914   6915M  7081   7085M  7113
              7114M  7161   7165M  7194   7195M  7344   7348M  7380   7381M  7579   7583M  7600M  9359   9360M  9399
             10469M 10471  10473M 10510  10511M 10570  10574M 10627  10629M 10659U 11054U 11063  11067M 11086  11087M
             11366  11368M 11638  11639M 12658  12660M 12683  12684M 12956  12958M 12998  12999M 13187  13189M 13288
             13290M 13320U 13853U 13862  13866M 14054  14055M 14076U 14392  14394M 14411U
     9(9)      946U  2096
    10(A)      942U  2096
    11(B)      938U  1160U  2096
    12(C)      934U  1169U  2096
    13(D)      930U  2096   6611   6614   6615   6616M  6616   6759M  6763   6765   6787   6790   6791   6792M  6792
              6879M  6883   6885   6911   6914   6915   6916M  6916   7081M  7085   7087   7110   7113   7114   7115M
1         (ORV2025) (12:50) (15MAR04) General Purpose Register Cross Reference                                              Page   65
              7115   7161M  7165   7167   7191   7194   7195   7196M  7196   7344M  7348   7350   7377   7380   7381
              7382M  7382   7579M  7583   7585   7600   8231   8232M  8232   8742   8743M  8743   9359   9360   9361M
              9361   9377   9378M  9378  10471M 10472  10473  10507  10510  10511  10512M 10512  10570M 10574  10576
             10624  10627  10629  10630M 10630  11063M 11067  11069  11086  11087  11088M 11088  11366M 11367  11368
             11638  11639  11640M 11640  11654  11655M 11655  12658M 12659  12660  12683  12684  12685M 12685  12956M
             12957  12958  12998  12999  13000M 13000  13187M 13188  13189  13285  13288  13290  13291M 13291  13862M
             13866  13868  14054  14055  14056M 14056  14392M 14393  14394
    14(E)      926U  2096   2097M  2111   2112M  2113B  2115M  2116B  2136M  2137B  2141M  2142B  2144M  2145B  2147M
              2148B  2150M  2151B  2153M  2154M  2154B  2160   6611   6643M  6644M  6644B  6704M  6705M  6705B  6728M
              6729M  6729B  6746M  6747M  6747B  6765M  6768B  6787   6885M  6888B  6911   7087M  7090B  7110   7148M
              7149M  7149B  7167M  7170B  7191   7253M  7254M  7254B  7302M  7303M  7303B  7327M  7328M  7328B  7350M
              7353B  7377   7473M  7474M  7474B  7539M  7540M  7540B  7559M  7560M  7560B  7585M  7588B  7615M  7616M
              7616B  7801M  7824M  7825M  7825B  8080M  8081M  8081B  8096M  8097M  8097B  8175M  8176M  8176B  8300M
              8301M  8301B  8304M  8305M  8305B  8344M  8345M  8345B  8364M  8365M  8365B  8380M  8381M  8381B  8442M
              8443M  8443B  8458M  8459M  8459B  8640M  8641M  8641B  8698M  8699M  8699B  8938M  8939M  8939B  8957M
              8958M  8958B  8972M  8973M  8973B  9357   9589M  9590M  9590B  9594M  9623M  9624M  9624B  9643M  9644M
              9644B  9647M  9691M  9692M  9692B  9696M  9746M  9747M  9747B  9786M  9896M  9897M  9897B  9913M  9914M
              9914B  9940M  9941M  9941B  9957M  9958M  9958B  9995M  9996M  9996B 10034M 10035M 10035B 10054M 10055M
             10055B 10075M 10076M 10076B 10080M 10081M 10081B 10103M 10104M 10104B 10120M 10121M 10121B 10125M 10126M
             10126B 10148M 10149M 10149B 10169M 10170M 10170B 10173M 10174M 10174B 10179M 10180M 10180B 10201M 10202M
             10202B 10353M 10354M 10354B 10383M 10384M 10384B 10442M 10443M 10443B 10467M 10468M 10468B 10472M 10475B
             10507  10558M 10576M 10579B 10624  10669M 10715M 10716M 10716B 10788M 10789M 10789B 10889M 10890M 10890B
             10943M 10944M 10944B 10973M 10974M 10974B 11069M 11072B 11084  11198M 11199M 11199B 11221M 11222M 11222B
             11269M 11270M 11270B 11336M 11337M 11337B 11367M 11370B 11636  11787M 11788M 11788B 11878M 12005M 12006M
             12006B 12118M 12119M 12119B 12196M 12197M 12197B 12360M 12361M 12361B 12413M 12581M 12582M 12582B 12585M
             12586M 12586B 12655M 12656M 12656B 12659M 12662B 12681  12805M 12806M 12806B 12931M 12932M 12932B 12957M
             12960B 12996  13188M 13190B 13285  13450M 13451M 13451B 13491M 13492M 13492B 13520M 13521M 13521B 13546M
             13547M 13547B 13655M 13656M 13656B 13674M 13675M 13675B 13707M 13708M 13708B 13751M 13752M 13752B 13785M
             13786M 13786B 13845M 13846M 13846B 13868M 13871B 14052  14328M 14329M 14329B 14389M 14390M 14390B 14393M
             14396B
    15(F)      922U  2096   6725M  6743M  6767M  6767   6887M  6887   7089M  7089   7169M  7169   7299M  7324M  7352M
              7352   7470M  7475M  7492M  7513M  7587M  7587   7660M  7660   7677M  7698M  7719M  7740M  7761M  7782M
              7795M  7795   7801B  7821M  8077M  8172M  8297M  8341M  8361M  8439M  8637M  8935M  8954M  9401M  9449M
              9450M  9451   9572M  9592M  9626M  9645M  9673M  9674M  9694M  9729M  9763M  9775   9893M  9910M  9937M
              9954M  9992M 10031M 10051M 10072M 10100M 10117M 10145M 10176M 10198M 10380M 10439M 10464M 10474M 10474
             10556M 10578M 10578  10712M 10886M 10928M 10970M 10986M 10987M 10988  10992M 10992  11027M 11046M 11071M
             11071  11218M 11266M 11273M 11333M 11364M 11364  11369M 11369  12223D 12225M 12225  12226M 12227U 12238M
             12238  12252  12278D 12280M 12280  12281M 12282U 12293  12305M 12314M 12314  12321  12362M 12445M 12445
             12459  12614D 12616M 12616  12617M 12618U 12619  12620  12652M 12661M 12661  12700M 12739D 12741M 12741
             12742M 12743U 12744M 12747  12759M 12767M 12776M 12776  12783  12848D 12850M 12850  12851M 12852U 12855
             12867M 12875M 12884M 12884  12891  12911M 12940D 12942M 12942  12943M 12944U 12945M 12946  12947  12954M
             12954  12959M 12959  13016M 13016  13087M 13088M 13140M 13177M 13398M 13402M 13411M 13411  13418  13447M
             13517M 13543M 13604M 13608M 13617M 13617  13624  13652M 13671M 13704M 13748M 13782M 13817M 13818  13842M
             13870M 13870  14386M 14395M 14395

1ORV      (ORV2025) (12:50) (15MAR04) Diagnostic Cross Reference and Assembler Summary                                      Page   66
-                                                                                            HLASM R4.0  2004/03/15 12.50
0     No Statements Flagged in this Assembly
 HIGH LEVEL ASSEMBLER, 5696-234, RELEASE 4.0, PTF P72483
0SYSTEM: OS/390 02.10.00            JOBNAME: WYL#ORV     STEPNAME: ASM        PROCSTEP: (NOPROC)
0Datasets Allocated for this Assembly
  Con DDname   Dataset Name                                 Volume  Member
   P1 SYSIN    WYL.GS.WYL.WYLBUR.SOURCE                     SYSB05  ORV
   L1 SYSLIB   WYL.GS.WYL.WYLBUR.MACLIB                     SYSB05
   L2          WYL.GG.SYS.MACLIB                            SYSB05
   L3          SYS3.IS.MACLIB                               SYSB05
   L4          SYS3.MACLIB                                  SYSB02
   L5          SYS1.MACLIB                                  MVSBR9
   L6          SYS1.MODGEN                                  MVSBR9
      SYSPRINT SYS04075.T125045.RA000.WYL#ORV.PRINT.H01     SCR101
      SYSTERM  GG$SLP.WYL#ORV.JOB03551.D0000101.?

    3668K allocated to Buffer Pool,         1885K would be required for this to be an In-Storage Assembly
    1344 Primary Input Records Read         6347 Library Records Read                  0 Work File Reads
       0 ASMAOPT Records Read               5449 Primary Print Records Written         0 Work File Writes
       0 Punch Records Written                 0 ADATA Records Written
0Assembly Start Time: 12.50.47 Stop Time: 12.50.52 Processor Time: 00.00.02.4947
 Return Code 000
