1                        J E S 2  J O B  L O G  --  S Y S T E M  S Y S B  --  N O D E  R L G
0
 12.56.28 JOB03567 ---- MONDAY,    15 MAR 2004 ----
 12.56.28 JOB03567  ICH70001I GG$SLP   LAST ACCESS AT 12:56:04 ON MONDAY, MARCH 15, 2004
 12.56.28 JOB03567  $HASP373 WYL#TAPE STARTED - INIT 6    - CLASS B - SYS SYSB
 12.56.28 JOB03567  ***  HCMD      STEP $$QUIET
 12.56.28 JOB03567  PUR * Q OUT MUL
 12.56.28 JOB03567  JOB 5429 WYL#TAPE WILL BE PURGED
 12.56.29 JOB03567  WYL#TAPE.$$QUIET .         RC=Zero TapeIO=0000 DiskIO=0000 CPU=  .01s Elapsed=88.55s
 12.56.45 JOB03567  WYL#TAPE.ASM     .         RC=Zero TapeIO=0000 DiskIO=0808 CPU= 4.64s Elapsed=89.65s
 12.56.50 JOB03567  WYL#TAPE.EDIT    .         RC=Zero TapeIO=0000 DiskIO=0150 CPU=  .42s Elapsed=05.77s
 12.56.50 JOB03567  WYL#TAPE Ended.  Name=Assemble TAPE                  Total CPU= 5.07s Elapsed=88.55s
 12.56.50 JOB03567
 12.56.50 JOB03567  Execution charges   Priority=Standard   Block=Day
 12.56.50 JOB03567
 12.56.50 JOB03567  CPU Usage          93.37          $57.88   Standard Processing Unit Equivalent
 12.56.50 JOB03567                                   =======
 12.56.50 JOB03567                                    $57.88   Total Job execution charge
 12.56.50 JOB03567
 12.56.50 JOB03567  See back separator page for print charges
 12.56.50 JOB03567
 12.56.50 JOB03567  $HASP395 WYL#TAPE ENDED  ASM=0, EDIT=0
1        1 //WYL#TAPE JOB SLP$GG,'Assemble TAPE',TIME=4,REGION=4M                  JOB03567
           //*
           /*JOBPARM LINES=99,COPIES=1
           /*JOBPARM FORMS=3HOL,PFORMAT=LAND,CHARS=BD13,DUPLEX=YES,FLASH=BAR4
           //*
           /*JOBPARM NOTIFY=GG.SLP,HOLD=OUTPUT                                     WYLGEN
         2 //$$QUIET EXEC PGM=HCMDX,PARM='PUR * Q OUT MUL'
           //*
         3 //ASM    EXEC PGM=ASMA90,REGION=8M,
           //            PARM=('NORENT,TERM,FLAG(NOCONT),US(MAP,WARN(10)),NODECK',
           //            'LC(32767),XREF(SHORT),ESD,DXREF,NOOBJECT')
         4 //STEPLIB DD DSN=SYS3.IS.TESTASM,DISP=SHR
         5 //SYSLIB   DD  DSN=WYL.GS.WYL.WYLBUR.MACLIB,DISP=SHR
         6 //         DD  DSN=WYL.GG.SYS.MACLIB,DISP=SHR
         7 //         DD  DSN=SYS3.IS.MACLIB,DISP=SHR
         8 //         DD  DSN=SYS3.MACLIB,DISP=SHR
         9 //         DD  DSN=SYS1.MACLIB,DISP=SHR
        10 //         DD  DSN=SYS1.MODGEN,DISP=SHR
        11 //SYSUT1   DD DSN=&&SYSUT1,UNIT=VIO,DISP=(,DELETE),
           //            SPACE=(4088,(500,250),,CONTIG,ROUND)
        12 //SYSTERM  DD SYSOUT=T
        13 //SYSPRINT DD DSN=&&PRINT,UNIT=SYSDA,DISP=(,PASS),
           //            SPACE=(6650,(250,250),RLSE),
           //            DCB=(BLKSIZE=6650,LRECL=133,RECFM=FB)
        14 //SYSUDUMP DD SYSOUT=A
        15 //SYSIN    DD  DSN=WYL.GS.WYL.WYLBUR.SOURCE(TAPE),DISP=SHR
           //*
        16 //EDIT    EXEC PGM=ASMEDIT,TIME=2,REGION=4000K,
           //             PARM='STMT'
        17 //STEPLIB  DD  DSN=WYL.GG.SYS.LINKLIB,DISP=SHR
        18 //ASMOUT   DD  DSN=&PRINT,DISP=(OLD,DELETE)
        19 //SYSPRINT DD  SYSOUT=A
1 STMT NO. MESSAGE
 -
        11 IGD01010I STORCLAS= TEMP STORGROUP =
        11 IGD01010I STORGRP=VIO ASSIGNED.
        13 IGD01010I STORCLAS= TEMP STORGROUP =
        13 IGD01010I STORGRP=VIO ASSIGNED.
 ICH70001I GG$SLP   LAST ACCESS AT 12:56:04 ON MONDAY, MARCH 15, 2004
 IEF142I WYL#TAPE $$QUIET - STEP WAS EXECUTED - COND CODE 0000
 *********************************************************************************
 *   WYL#TAPE/$$QUIET /                    Return Code      Zero                 *
 *   Region used      260K (16K user + 244K system)                              *
 *   Extended region  9692K (4K user + 9688K system)                             *
 *                                                                               *
 *   Paging              In      Out                                             *
 *   Private <-> Aux      0        0       CPU time (TCB)   00:00:00.01          *
 *   Private <-> Exp      0        0       CPU time (SRB)   00:00:00.00          *
 *   VIO                  0        0       Elapsed time    917:31:24.41          *
 *   Common               0      ---                                             *
 *                                                                               *
 *                                                                               *
 *   CPU Usage          0.18         $0.11  Standard Processing Unit Equivalent  *
 *                                   $0.11  Total Step execution charge          *
 *                                                                               *
 *    I/O count  DDname   Type Addr           I/O count  DDname   Type Addr      *
 *                         *** No I/O for this step ***                          *
 *********************************************************************************
 IEF373I STEP/$$QUIET /START 2004075.1256
 IEF374I STEP/$$QUIET /STOP  2004075.1256 CPU    0MIN 00.01SEC SRB    0MIN 00.00SEC VIRT    16K SYS   244K EXT       4K SYS    9688K
 IEF236I ALLOC. FOR WYL#TAPE ASM
 IEF237I 04DC ALLOCATED TO STEPLIB
 IEF237I 04DC ALLOCATED TO SYSLIB
 IEF237I 04DC ALLOCATED TO
 IEF237I 04DC ALLOCATED TO
 IEF237I 0402 ALLOCATED TO
 IEF237I 04A0 ALLOCATED TO
 IEF237I 04A0 ALLOCATED TO
 IGD101I SMS ALLOCATED TO DDNAME (SYSUT1  )
         DSN (SYS04075.T125628.RA000.WYL#TAPE.SYSUT1.H01  )
         STORCLAS (TEMP) MGMTCLAS (        ) DATACLAS (        )
         VOL SER NOS= VIO
 IEF237I JES2 ALLOCATED TO SYSTERM
 IGD101I SMS ALLOCATED TO DDNAME (SYSPRINT)
         DSN (SYS04075.T125628.RA000.WYL#TAPE.PRINT.H01   )
         STORCLAS (TEMP) MGMTCLAS (        ) DATACLAS (        )
         VOL SER NOS= SCR101
 IEF237I JES2 ALLOCATED TO SYSUDUMP
 IEF237I 04DC ALLOCATED TO SYSIN
 IEF142I WYL#TAPE ASM - STEP WAS EXECUTED - COND CODE 0000
 IEF285I   SYS3.IS.TESTASM                              KEPT
 IEF285I   VOL SER NOS= SYSB05.
 IEF285I   WYL.GS.WYL.WYLBUR.MACLIB                     KEPT
 IEF285I   VOL SER NOS= SYSB05.
 IEF285I   WYL.GG.SYS.MACLIB                            KEPT
 IEF285I   VOL SER NOS= SYSB05.
 IEF285I   SYS3.IS.MACLIB                               KEPT
 IEF285I   VOL SER NOS= SYSB05.
 IEF285I   SYS3.MACLIB                                  KEPT
 IEF285I   VOL SER NOS= SYSB02.
 IEF285I   SYS1.MACLIB                                  KEPT
 IEF285I   VOL SER NOS= MVSBR9.
 IEF285I   SYS1.MODGEN                                  KEPT
 IEF285I   VOL SER NOS= MVSBR9.
 IGD105I SYS04075.T125628.RA000.WYL#TAPE.SYSUT1.H01   DELETED,   DDNAME=SYSUT1
 IEF285I   GG$SLP.WYL#TAPE.JOB03567.D0000101.?          SYSOUT
 IGD106I SYS04075.T125628.RA000.WYL#TAPE.PRINT.H01    PASSED,    DDNAME=SYSPRINT
 IEF285I   GG$SLP.WYL#TAPE.JOB03567.D0000102.?          SYSOUT
 IEF285I   WYL.GS.WYL.WYLBUR.SOURCE                     KEPT
 IEF285I   VOL SER NOS= SYSB05.
 *********************************************************************************
 *   WYL#TAPE/ASM     /                    Return Code      Zero                 *
 *   Region used      4376K (4096K user + 280K system)                           *
 *   Extended region  10292K (412K user + 9880K system)                          *
 *                                                                               *
 *   Paging              In      Out                                             *
 *   Private <-> Aux      0        0       CPU time (TCB)   00:00:04.56          *
 *   Private <-> Exp      0        0       CPU time (SRB)   00:00:00.08          *
 *   VIO                  0        0       Elapsed time    917:31:23.31          *
 *   Common               0      ---                                             *
 *                                                                               *
 *                                                                               *
 *   CPU Usage         85.50        $53.01  Standard Processing Unit Equivalent  *
 *                                  $53.01  Total Step execution charge          *
 *                                                                               *
 *    I/O count  DDname   Type Addr           I/O count  DDname   Type Addr      *
 *           83  STEPLIB  Disk 04DC                 321  SYSLIB   Disk 04DC      *
 *            0  SYSLIB   Disk 04DC                   0  SYSLIB   Disk 04DC      *
 *            5  SYSLIB   Disk 0402                 248  SYSLIB   Disk 04A0      *
 *            0  SYSLIB   Disk 04A0                 310  SYSUT1   VIO  ----      *
 *            0  SYSTERM       ----                 147  SYSPRINT Disk 04E3      *
 *            0  SYSUDUMP      ----                   4  SYSIN    Disk 04DC      *
 *********************************************************************************
 IEF373I STEP/ASM     /START 2004075.1256
 IEF374I STEP/ASM     /STOP  2004075.1256 CPU    0MIN 04.56SEC SRB    0MIN 00.08SEC VIRT  4096K SYS   280K EXT     412K SYS    9880K
 IEF236I ALLOC. FOR WYL#TAPE EDIT
 IEF237I 0402 ALLOCATED TO STEPLIB
 IGD103I SMS ALLOCATED TO DDNAME ASMOUT
 IEF237I JES2 ALLOCATED TO SYSPRINT
 IEF142I WYL#TAPE EDIT - STEP WAS EXECUTED - COND CODE 0000
 IEF285I   WYL.GG.SYS.LINKLIB                           KEPT
 IEF285I   VOL SER NOS= SYSB02.
 IGD105I SYS04075.T125628.RA000.WYL#TAPE.PRINT.H01    DELETED,   DDNAME=ASMOUT
 IEF285I   GG$SLP.WYL#TAPE.JOB03567.D0000103.?          SYSOUT
 *********************************************************************************
 *   WYL#TAPE/EDIT    /                    Return Code      Zero                 *
 *   Region used      380K (116K user + 264K system)                             *
 *   Extended region  9816K (4K user + 9812K system)                             *
 *                                                                               *
 *   Paging              In      Out                                             *
 *   Private <-> Aux      0        0       CPU time (TCB)   00:00:00.41          *
 *   Private <-> Exp      0        0       CPU time (SRB)   00:00:00.01          *
 *   VIO                  0        0       Elapsed time    917:31:07.19          *
 *   Common               0      ---                                             *
 *                                                                               *
 *                                                                               *
 *   CPU Usage          7.68         $4.76  Standard Processing Unit Equivalent  *
 *                                   $4.76  Total Step execution charge          *
 *                                                                               *
 *    I/O count  DDname   Type Addr           I/O count  DDname   Type Addr      *
 *            2  STEPLIB  Disk 0402                 148  ASMOUT   Disk 04E3      *
 *            0  SYSPRINT      ----                                              *
 *********************************************************************************
 IEF373I STEP/EDIT    /START 2004075.1256
 IEF374I STEP/EDIT    /STOP  2004075.1256 CPU    0MIN 00.41SEC SRB    0MIN 00.01SEC VIRT   116K SYS   264K EXT       4K SYS    9812K
 *********************************************************************************
 *                                                                               *
 *                      S t a n f o r d   U n i v e r s i t y                    *
 *                                                                               *
 *                              *** Job Summary ***                              *
 *                                                                               *
 *   System Id      SYSB                   Input time     12:39:27  Mar 15, 2004 *
 *                                                                               *
 *   System Release SP6.1.0                Start time     12:56:28  Mar 15, 2004 *
 *                                                                               *
 *   Job name       WYL#TAPE               Stop  time     00:00:00  Mar 15, 2004 *
 *                                                                               *
 *   Account        SLP$GG                 Elapsed time  917:31:24.41            *
 *                                                                               *
 *   User Name      Assemble TAPE          CPU time       00:00:04.98            *
 *                                                                               *
 *   Job class      B                      SRB Time       00:00:00.09            *
 *                                                                               *
 *********************************************************************************
 IEF375I  JOB/WYL#TAPE/START 2004075.1256
 IEF376I  JOB/WYL#TAPE/STOP  2004075.1256 CPU    0MIN 04.98SEC SRB    0MIN 00.09SEC
1Assembler Done TAPE No Statements Flagged
1         High Level Assembler Option Summary                   (PTF P72483 )                                               Page    1
-                                                                                            HLASM R4.0  2004/03/15 12.56
0  No Overriding ASMAOPT Parameters
   Overriding Parameters-  NORENT,TERM,FLAG(NOCONT),US(MAP,WARN(10)),NODECK,LC(32767),XREF(SHORT),ESD,DXREF,NOOBJECT
   No Process Statements


   Options for this Assembly
0  NOADATA
     ALIGN
   NOASA
     BATCH
     CODEPAGE(047C)
   NOCOMPAT
   NODBCS
 3 NODECK
 3   DXREF
 3   ESD
   NOEXIT
 3   FLAG(0,ALIGN,NOCONT,NOIMPLEN,NOPAGE0,PUSH,RECORD,NOSUBSTR,USING0)
   NOFOLD
   NOGOFF
   NOINFO
     LANGUAGE(EN)
   NOLIBMAC
 3   LINECOUNT(32767)
     LIST(121)
     MXREF(SOURCE)
 3 NOOBJECT
     OPTABLE(UNI,NOLIST)
   NOPCONTROL
   NOPESTOP
   NOPROFILE
   NORA2
 3 NORENT
     RLD
     RXREF
     SIZE(MAX)
     SYSPARM()
 3   TERM(WIDE)
   NOTEST
     THREAD
   NOTRANSLATE
 3   USING(NOLIMIT,MAP,WARN(10))
 3   XREF(SHORT)

   No Overriding DD Names

1TAPE     External Symbol Dictionary                                                                                        Page    2
-Symbol   Type   Id     Address  Length     LD ID  Flags Alias-of                            HLASM R4.0  2004/03/15 12.56
0WYLTAPE   SD 00000001 00000000 00002BF0             00
 TAPE4072  LD          00000000           00000001
 TAPE      LD          00000018           00000001
 NSCAN     ER 00000002
 NOTVALID  ER 00000003
 SCUPCASE  ER 00000004
 SCANCHK   ER 00000005
 GETKWR    ER 00000006
 DOPEN     ER 00000007
 NTGDOPN   ER 00000008
 SEGB      ER 00000009
 LRTRIM    ER 0000000A
 SEG       ER 0000000B
 EXTCLOSE  ER 0000000C
 MPARM     ER 0000000D
 MPINT     ER 0000000E
 MTOKEN    ER 0000000F
 QUIETPSH  ER 00000010
 INTPSH    ER 00000011
 ACCTPSH   ER 00000012
 COLLPSH   ER 00000013
 MALL      ER 00000014
 DTB       ER 00000015
 BTD       ER 00000016
 SCDQUOTE  ER 00000017
 CNVDATE   ER 00000018
 BTX       ER 00000019
 SEGCR     ER 0000001A
 SEGTB     ER 0000001B
 DATE      ER 0000001C
 XTB       ER 0000001D
 WAITOFF   ER 0000001E
 WAITON    ER 0000001F
 SMFLOG    ER 00000020

1TAPE     WYLBUR's SET and SHOW TAPE Commands                                                                               Page    3
0Loc    Object Code    Addr1 Addr2  Stmt Lv Lineno    Source Statement                    (Asmedit 3.3)  HLASM R4.0  2004/03/15 12.56
+___    ______ ____    _____ _____  ____ __ ______    ______ _________
0                                      2              *******************************************************************
                                       3              *                                                                 *
                                       4              *     WYLBUR/370 - Release VI - Class I - Stanford Proprietary    *
                                       5              *                                                                 *
                                       6              *******************************************************************
                                       7                       HIBAL
                                     988
                                     989                       REGS  FSR,,,,,,IOWAR,BR,(WAR,LSR),PAR,PBR,CPR,CVR,SPR,RAR
-000000                00000 02BF0  1139              WYLTAPE  CSECT
                                    1143              TAPE     IDENT 4072                10:30:09 03/12/04  (SLP)
                                    1146             +
                                    1147    01-IDENT +         ENTRY TAPE4072
                                    1148             +
 000000 16E3C1D7C5F4F0F7            1149    01-IDENT +TAPE4072 DC    AL1(22),C'TAPE4072,15MAR04,12:56'
                                    1150             +*
-                                   1153                       SYSDEFN ,                 Define installation params
                                    1154                       GBLC  &INSTALN            Installation name (see SYSDEFN)
                                    1155
                                    1156                       PUSH  DSECTS
 USING  CP,R11                      1167             =         USING (CP),(CV)
 USING  CV,R12
 000017                00000 02BF0  1186             =         POP   PRINT
                                    8956                       AIF   ('&INSTALN' NE 'STANFORD').NOTSTAN
                                    8957
1TAPE     (TAPE4072) (12:56) (15MAR04) SET/SHOW TAPE Commands                                                               Page    4
0Current Usings:  (CP,R11) (CV,R12)
0Loc    Object Code    Addr1 Addr2  Stmt Lv Lineno    Source Statement           (Hibal 5, Asmedit 3.3)  HLASM R4.0  2004/03/15 12.56
+___    ______ ____    _____ _____  ____ __ ______    ______ _________
0                                   8959              &SVCTLMS SETA  238                 TLMS svc no
                                    8960
 000000                00000 00135  8961              TAPEWA   RECORD BEGIN
 000000 00                          8969  1           TAPEFLG1   FLAG
 TAPEFLG1.TAPEFUPD 80 ONES          8973  1                      FLAG  TAPEFUPD            - Fields will be updated
 TAPEFLG1.TAPEFREL 40 ONES          8978  1                      FLAG  TAPEFREL            - Release tape request
 TAPEFLG1.TAPEFRES 20 ONES          8983  1                      FLAG  TAPEFRES            - Reserve tape request
 TAPEFLG1.TAPEFSLT 10 ONES          8988  1                      FLAG  TAPEFSLT            - Assign new slot number
 TAPEFLG1.TAPEFRSL 08 ONES          8993  1                      FLAG  TAPEFRSL            - Reassign a slot number
 TAPEFLG1.TAPEFNSL 04 ONES          8998  1                      FLAG  TAPEFNSL            - Unassign the slot number
                                    9003  1
 000001 00                          9004  1           TAPEFLG2   FLAG
 TAPEFLG2.TAPEFRET 80 ONES          9008  1                      FLAG  TAPEFRET            - Request RETRIEVE of tape
 TAPEFLG2.TAPEFARC 40 ONES          9013  1                      FLAG  TAPEFARC            - Request ARCHIVE of tape
 TAPEFLG2.TAPEFNAR 20 ONES          9018  1                      FLAG  TAPEFNAR            - Request NOARCHIVE of tape
 TAPEFLG2.TAPEFLAB 10 ONES          9023  1                      FLAG  TAPEFLAB            - Print a tape label
 TAPEFLG2.TAPEFALL 08 ONES          9028  1                      FLAG  TAPEFALL            - Display all fields
 TAPEFLG2.TAPEFRAW 04 ONES          9033  1                      FLAG  TAPEFRAW            - Display TDSECT (unformatted)
 TAPEFLG2.TAPEFTYP 02 ONES          9038  1                      FLAG  TAPEFTYP            - SHOW TAPE vvvvvv TYPE
                                    9043  1
 000002                             9044  1           TAPEDSN    DS    CL44                New dsname
 00002E                             9045  1           TAPEIN     DS    X                   New incode
 00002F                             9046  1           TAPEOUT    DS    C                   New outcode
 000030                             9047  1           TAPENAME   DS    CL10                New programmer name
 00003A                             9048  1           TAPEJOB    DS    CL8                 New jobname
 000042                             9049  1           TAPEKEEP   DS    XL5                 New "keep" date
 000047                             9050  1           TAPEFILE   DS    CL3                 No. of files on tape
                                    9051  1
                                    9052  1           TDSECT     TDSECT
 000050                             9053  1 01-TDSEC +TDSECT     DS    0D
                                    9054  1          +*
                                    9055  1          +* THE FIRST PART IS FILLED IN BY WYLBUR...
 000050 E6E8D3F7                    9056  1 01-TDSEC +TDTYPE     DC    CL4'WYL7'          TO IDENTIFY THIS AS A WYLBUR CALL
                                    9057  1          +
 000054 00000000                    9058  1 01-TDSEC +TCODE      DC    F'0'               MUST BE ZERO.  TLMSUPDA SETS RETURN
                                    9059  1          +*                                 CODE HERE.  'POST' MOVES IT TO TECB.
 000058 00000060                    9060  1 01-TDSEC +TECBPNTR   DC    A(TECB)            ECB POINTER FOR POST
 00005C 00000000                    9061  1 01-TDSEC +TASCBPTR   DC    A(*-*)             POINTER TO WYLBUR'S ASCB FOR POST
                                    9062  1 01-TDSEC +TTCBPNTR   EQU   TASCBPTR,4,C'F'
 000060 00000000                    9063  1 01-TDSEC +TECB       DC    A(0)               ECB TO BE POSTED BY 'POST' ROUTINE
                                    9064  1 01-TDSEC +TECBCODE   EQU   TECB+3,1,C'X'    - RETURN CODE FROM TLMS:
                                    9065  1 01-TDSEC +TECBCOK    EQU   0                - TAPE IS USERS & IN DATA BASE
                                    9066  1 01-TDSEC +TECBCVNF   EQU   1                - TAPE IS NOT IN TLMS DATA BASE
                                    9067  1 01-TDSEC +TECBCVNY   EQU   2                - NO INQUIRY PERMITTED.  USER IS NOT
                                    9068  1          +*                                 A MEMBER OF THE GROUP THAT OWNS THE
                                    9069  1          +*                                 TAPE, NOR IS GROUP CODE IN THE DSN.
                                    9070  1          +*                                 NO SLOT REQUEST GRANTED. REQUESTER
                                    9071  1          +*                                 IS NOT AUTHORIZED TO CHANGE SLOT.
                                    9072  1          +*                                 NO LABEL REQUEST GRANTED. REQUESTER
                                    9073  1          +*                                 IS NOT AUTHORIZED TO PRINT LABELS.
                                    9074  1 01-TDSEC +TECBCVNW   EQU   3                - PARM PASSED BY WYLBUR IS NOT
                                    9075  1          +*                                 0, 1, 2, 3, 4, 5, 6, 7, 8, OR 9.
                                    9076  1 01-TDSEC +TECBCVNX   EQU   4                - NO CHANGE TO TLMS RECORD PERMITTED.
                                    9077  1          +*                                 USER DOES NOT OWN/RENT THE TAPE.
1TAPE     (TAPE4072) (12:56) (15MAR04) SET/SHOW TAPE Commands                                                               Page    5
0Current Usings:  (CP,R11) (CV,R12)
0Loc    Object Code    Addr1 Addr2  Stmt Lv Lineno    Source Statement           (Hibal 5, Asmedit 3.3)  HLASM R4.0  2004/03/15 12.56
+___    ______ ____    _____ _____  ____ __ ______    ______ _________
0                                   9078  1 01-TDSEC +TECBCVNS   EQU   5                - SCRATCH REQUEST DENIED.  THE TAPE
                                    9079  1          +*                                 IS NOT PRESENTLY AT FORSYTHE.
                                    9080  1 01-TDSEC +TECBCVNL   EQU   6                - LOCATION REQUEST DENIED.  THE TAPE
                                    9081  1          +*                                 IS NOT PRESENTLY AT FORSYTHE.
                                    9082  1 01-TDSEC +TECBCVNU   EQU   7                - LOCATION REQUEST DENIED.  THE TAPE
                                    9083  1          +*                                 IS NOT IN ARCHIVE STORAGE.
                                    9084  1          +*
 000064                             9085  1 01-TDSEC +TPARM      DS    X                  TYPE OF REQUEST:
                                    9086  1 01-TDSEC +TPINQ      EQU   X'F0'            - INQUIRY (SHOW TAPE)
                                    9087  1 01-TDSEC +TPUPD      EQU   X'F1'            - UPDATE
                                    9088  1 01-TDSEC +TPREL      EQU   X'F2'            - RELEASE TO SCRATCH POOL
                                    9089  1 01-TDSEC +TPRES      EQU   X'F3'            - RESERVE (REMOVE FROM SCRATCH POOL)
                                    9090  1 01-TDSEC +TPLABEL    EQU   X'F4'            - REQUESTS THAT A LABEL BE PRINTED
                                    9091  1 01-TDSEC +TPSLOT     EQU   X'F5'            - ASSIGN A NEW SLOT NUMBER
                                    9092  1 01-TDSEC +TPRESL     EQU   X'F6'            - RELEASE THE PRESENT SLOT AND ASSIGN
                                    9093  1          +*                                 A NEW SLOT NUMBER.
                                    9094  1 01-TDSEC +TPONS      EQU   X'F7'            - BRING THE TAPE ONSITE (TO FORSYTHE)
                                    9095  1 01-TDSEC +TPOFFS     EQU   X'F8'            - SEND IT OFFSITE (TO REMOTE STORAGE)
                                    9096  1 01-TDSEC +TPNOFFS    EQU   X'F9'            - NEVER SEND IT OFFSITE (KEEP IT HERE
                                    9097  1 01-TDSEC +TPINQTYP   EQU   C'A'             - VOLSER TYPE INQUIRY
                                    9098  1 01-TDSEC +TPFREESL   EQU   C'F'             - RELEASE THE SLOT
                                    9099  1          +
                                    9100  1 01-TDSEC +TACCT1     EQU   *,5,C'X'           LOGGED ON ACCOUNT (UUUGG)
 000065                             9101  1 01-TDSEC +TUSER      DS    CL3                USER ID
 000068                             9102  1 01-TDSEC +TGROUP     DS    CL2                GROUP
 00006A                             9103  1 01-TDSEC +TSUBGRP    DS    CL2                SUBGROUP
 00006C                             9104  1 01-TDSEC +TIFL       DS    X                  PRIV FLAGS (FROM KWRIFL)
 00006D                             9105  1 01-TDSEC +TAFL       DS    X                  PRIV FLAGS (FROM KWRAFL)
                                    9106  1          +
 00006E                             9107  1 01-TDSEC +TVSN       DS    CL6                VOLUME SERIAL NUMBER
                                    9108  1          +*
                                    9109  1          +*
                                    9110  1          +* THE NEXT 193 BYTES OF THIS COMMUNICATIONS BLOCK ARE FILLED IN BY
                                    9111  1          +* TLMS AND PASSED TO THE TAPE OWNER VIA WYLBUR.
                                    9112  1          +*
 000074                             9113  1 01-TDSEC +TDRIVE     DS    CL3                TAPE UNIT ADDRESS
 000077                             9114  1 01-TDSEC +TGENDT     DS    CL5                DATA SET CREATION DATE
 00007C                             9115  1 01-TDSEC +TEXPDT     DS    CL5                O/S EXPIRATION DATE
 000081                             9116  1 01-TDSEC +TKEEPDT    DS    CL5                TLMS KEEP DATE
 000086                             9117  1 01-TDSEC +TJOBNAME   DS    CL8                NAME OF JOB THAT CREATED THE DATA SET
 00008E                             9118  1 01-TDSEC +TDEN       DS    CL4                TAPE DENSITY
 000092                             9119  1 01-TDSEC +TTRTC      DS    CL2                FOR 7 TRACK TAPES ONLY
 000094                             9120  1 01-TDSEC +TSIO       DS    CL5                NUMBER OF SIOS TO WRITE FIRST FILE
 000099                             9121  1 01-TDSEC +TERG       DS    CL3                ERASE GAPS
 00009C                             9122  1 01-TDSEC +TTRE       DS    CL3                MAX NUMBER OF TEMPORARY READ ERRORS
 00009F                             9123  1 01-TDSEC +TVSQ       DS    CL2                SEQUENCE NUMBER - MULTI-REEL DATA SET
 0000A1                             9124  1 01-TDSEC +TVCT       DS    CL2                COUNT OF REELS IN DATA-SET
 0000A3                             9125  1 01-TDSEC +TLAB       DS    CL1                S = SL   N = NL   B = BLP
 0000A4                             9126  1 01-TDSEC +TLUSED     DS    CL5                DATE LAST USED
 0000A9                             9127  1 01-TDSEC +TACCT      DS    CL5                OWNER'S ACCOUNT NUMBER
 0000AE                             9128  1 01-TDSEC +TLASTFIL   DS    CL3                NUMBER OF FILES ON TAPE
 0000B1                             9129  1 01-TDSEC +TDSN       DS    CL44               DATA SET NAME
 0000DD                             9130  1 01-TDSEC +TPRVSLOT   DS    CL5                PREVIOUS SLOT NUMBER
 0000E2                             9131  1 01-TDSEC +TMFG       DS    CL2
1TAPE     (TAPE4072) (12:56) (15MAR04) SET/SHOW TAPE Commands                                                               Page    6
0Current Usings:  (CP,R11) (CV,R12)
0Loc    Object Code    Addr1 Addr2  Stmt Lv Lineno    Source Statement           (Hibal 5, Asmedit 3.3)  HLASM R4.0  2004/03/15 12.56
+___    ______ ____    _____ _____  ____ __ ______    ______ _________
00000E4                             9132  1 01-TDSEC +TTYP       DS    CL2
 0000E6                             9133  1 01-TDSEC +TSLOTNO    DS    CL5                PRESENT SLOT NUMBER
 0000EB                             9134  1 01-TDSEC +           DS    X                  ( AVAILABLE )
 0000EC                             9135  1 01-TDSEC +TSLTYDDD   DS    CL4                LAST FOUR DIGITS OF THE JULIAN DATE
                                    9136  1          +*                                 OF THE LAST SLOT CHANGE     Y-YDDD
 0000F0                             9137  1 01-TDSEC +TSLTFLG    DS    C                  W = WYLBUR   A = ATL   T = TOSS
 0000F1                             9138  1 01-TDSEC +TCHRGFLG   DS    C                  ARCHIVING TRANSPORTATION CHARGE MADE
 0000F2                             9139  1 01-TDSEC +TAPEINAT   DS    C                  Y = TAPE IS IN ATL   N = NOT IN ATL
 0000F3                             9140  1 01-TDSEC +TLNGTH     DS    CL4
 0000F7                             9141  1 01-TDSEC +TLOCBOX    DS    CL4                'TOSS' SLOT IF AT ARCUS
 0000FB                             9142  1 01-TDSEC +TLOCID     DS    CL2                LOCATION
 0000FD                             9143  1 01-TDSEC +TLOCDATE   DS    CL5                DATE OF LAST LOCATION CHANGE
 000102                             9144  1 01-TDSEC +           DS    CL2
 000104                             9145  1 01-TDSEC +TPRELOC    DS    CL2                PRIOR LOCATION
 000106                             9146  1 01-TDSEC +TPRLOCDT   DS    CL5                DATE OF PRIOR LOCATION CHANGE
 00010B                             9147  1 01-TDSEC +TPRGRMMR   DS    CL10
 000115                             9148  1 01-TDSEC +TMAXPWE    DS    CL3
 000118                             9149  1 01-TDSEC +TUSECT     DS    CL5
 00011D                             9150  1 01-TDSEC +TTUSECT    DS    CL5
 000122                             9151  1 01-TDSEC +TINCODE    DS    CL1                USER'S INPUT  CODE  (DETERMINES WHO
                                    9152  1          +*                                                  MAY READ THE TAPE).
 000123                             9153  1 01-TDSEC +TOUTCODE   DS    CL1                USER'S OUTPUT CODE  (DETERMINES WHO
                                    9154  1          +*                                                  MAY WRITE ON TAPE).
 000124                             9155  1 01-TDSEC +TUACTCD    DS    CL3
 000127                             9156  1 01-TDSEC +TGACTCD    DS    CL2
 000129                             9157  1 01-TDSEC +TACCT2     DS    CL5                SECOND ACCOUNT (UUUGG) OR BLANKS
 00012E                             9158  1 01-TDSEC +TACCT3     DS    CL5                THIRD  ACCOUNT (UUUGG) OR BLANKS
                                    9159  1          +
 000133                             9160  1 01-TDSEC +TSER       DS    CL1
 000134                             9161  1 01-TDSEC +TSCT       DS    CL1
                                    9162  1 01-TDSEC +TAREA      EQU   TVSN,*-TVSN,C'X'   RESPONSE TEXT AREA
                                    9163  1          +
                                    9164  1 01-TDSEC +TDSIZE     EQU   *-TDTYPE
                                    9165  1           TAPETDSC   EQU   TDSECT,*-TDSECT,C'X'
 000135                00135 00135  9166                       END
1TAPE     (TAPE4072) (12:56) (15MAR04) SET/SHOW TAPE Commands                                                               Page    7
0Current Usings:  (CP,R11) (CV,R12)
0Loc    Object Code    Addr1 Addr2  Stmt Lv Lineno    Source Statement           (Hibal 5, Asmedit 3.3)  HLASM R4.0  2004/03/15 12.56
+___    ______ ____    _____ _____  ____ __ ______    ______ _________
0000000                00000 00025  9176              TTPD     RECORD BEGIN
                                    9184  1                      TTYPEFMT
 000000 00                          9185  1 01-TTYPE +TTYPLEN      DC    AL1(0)              Tape prefix length
 000001 C5E2                        9186  1 01-TTYPE +TTYPREF      DC    CL2'ES'             Tape prefix (1-2 chars)
 000003 E2                          9187  1 01-TTYPE +TTYTYPE      DC    CL1'S'              Tape type - scratch/user
 000004 F1                          9188  1 01-TTYPE +TTYICODE     DC    CL1'1'              Tape input use code
 000005 F1                          9189  1 01-TTYPE +TTYOCODE     DC    CL1'1'              Tape output use code
 000006 E8                          9190  1 01-TTYPE +TTYGLABL     DC    CL1'Y'              Tape requires gummed labels
 000007 F2                          9191  1 01-TTYPE +TTYDEVT      DC    CL1'2'              Tape device type:
                                    9192  1          +*                                  2=3420, 8=3480, 9=3490E, 5=3590
 000008 E2                          9193  1 01-TTYPE +TTYLTYP      DC    CL1'S'              Label type SL, AL, <b> not def.
 000009 C1                          9194  1 01-TTYPE +TTYMACH      DC    CL1'A'              Machine (system) name e.g. sysA
 00000A 4B4B4B                      9195  1 01-TTYPE +TTYRSV       DC    CL3'.....'          Reserved bytes
 00000D 4040404040404040            9196  1 01-TTYPE +TTYNOTE      DC    CL24' '             description
 000025                             9197  1 01-TTYPE +TTYTNEXT     DC    0X'00'              Define start of next entry
                                    9198  1 01-TTYPE +TTYLNGTH     EQU   *-TTYPLEN           Length of an entry
 000025                00025 00025  9199                       END
                                    9208                       MACRO
                                    9209              &L       TMSG  &MSG,&LOC
                                    9210              &L       SETMSG &MSG
                                    9211                       LS    R3,R2,&LOC
                                    9212                       LCALL TMSG
                                    9213                       MEND
1TAPE     (TAPE4072) (12:56) (15MAR04) SET/SHOW TAPE Commands                                                               Page    8
0Current Usings:  (CP,R11) (CV,R12)
0Loc    Object Code    Addr1 Addr2  Stmt Lv Lineno    Source Statement           (Hibal 5, Asmedit 3.3)  HLASM R4.0  2004/03/15 12.56
+___    ______ ____    _____ _____  ____ __ ______    ______ _________
0                                   9215              ¿þþþþþþþþþþþþþþþþþþþþþþþþþþþþþþþþþþþþþþþþþþþþþþþþþþþþþþþþþþþþþþþþþþþþþÜ
                                    9216              Ÿ                                                                     Ÿ
                                    9217              Ÿ  TAPE -- SET/SHOW TAPE commands.                                    Ÿ
                                    9218              Ÿ                                                                     Ÿ
                                                      ¾þþþþþþþþþþþþþþþþþþþþþþþþþþþþþþþþþþþþþþþþþþþþþþþþþþþþþþþþþþþþþþþþþþþþþ»
0000018 50E0 D000/9008_      00000  9219              TAPE     XPROC TAPEWA              Entry for SET/SHOW TAPE
 USING  *,R7
 USING  TAPEWA-(4+36),R8
 000032 4160 8028            00000  9270                       LA    R6,TAPEWA
 USING  TAPEWA,R6                   9271                       USING TAPEWA,R6
                                    9280
 000036 D7FF 6000 6000_00000 00000  9281                       CLEAR TAPEWA
 000042 D203 6050 742E 00050 00460  9289                       MVC   TDTYPE,=C'WYL7'     Initialize
 000048 D204 6065 B3B4 00065 003B4  9290                       MVC   TUSER(5),CPSACCT    Move in uuugg
 00004E D201 606A B3F0 0006A 003F0  9291                       MVC   TUSER+5(2),CPSPROJ  Subgroup too
 000054 D201 606C B3BE 0006C 003BE  9292                       MVC   TIFL(2),CPSKIFL     Move in kifl & kafl
 00005A D204 6129 C4D8 00129 004D8  9293                       MVC   TACCT2,CVBLANKS     Assume no second
 000060 D204 612E C4D8 0012E 004D8  9294                       MVC   TACCT3,CVBLANKS     ...or third account
 000066 5060 BCA4            00CA4  9295                       ST    R6,CPCWA            Save TAPEWA address
                                    9296                       ¿þþþþþþþþþþþþþþþþþþþþþþþþþþþþþþþþþþÜ
                                    9297                       Ÿ  Regular SET/SHOW TAPE command.  Ÿ
                                    9298                       ¾þþþþþþþþþþþþþþþþþþþþþþþþþþþþþþþþþþ»
 00006A 5810 B08C/1B00_      0008C  9299                       SCAN  ,
 0000B8 1200/4770 7098_             9330                       IF    (R0,Z),'ERROR "Missing tape name."'
                                    9356
 0000CA 5900 7436/47D0_      00468  9357              TAPEOK   IF    (R0,GT,6),'VCALL NOTVALID'
 0000D8 58F0 B08C/4110_      0008C  9384                       SCUPCASE TVSN
                                    9405
 0000EA D502 749C BD24_004CE 00D24  9406                       IF    (CPCMNM,EQ,'SHO'),BEGIN        SCAN SHOW OPTIONS
 0000F4 5810 B08C/1B00_      0008C  9423  1                      SCAN  TAPEPRTS
 000146 58E0 7446/0DEE       00478  9455  1                      SCANCHK
 00014C                             9460                       END
 00014C 711E/47F0 7176 0014C 000F2  9464                       ELSE  BEGIN                          SCAN SET OPTIONS
 000150 5810 B08C/1B00_      0008C  9475  1                      SCAN  TAPEPRT
 0001A2 58E0 7446/0DEE       00478  9507  1                      SCANCHK
 0001A8                             9512                       END
 0001A8 D502 749F BD24_004D1 00D24  9516                       IF    ((CPCMNM,EQ,'SET'),AND,~TAPEFUPD),BEGIN
 0001BA 4110 74A2/4100_      004D4  9547  1                      ERROR 'Options expected after the tape name.'
 0001C6                             9554                       END
                                    9558
 0001C6 9180 B476/47E0_00476        9559                       IF    CPGFLG3.CPFKWENT,'MVC TACCT2(5),CPUSERSV'
 0001D4 D604 BC48 BC48_00C48 00C48  9581                       IF    (CPCACCT,NZ),BEGIN  User entered the account...
 0001DE 182D/41D0 D1F8              9597  1                      XPUSH ,,L'KWR,PTR=R2
 USING  KWR,R2                      9600  1                      WITH  (KWR,R2)
 0001E4 D7FF 2000 2000_00524 00524  9613  1                      CLEAR KWR
 0001F0 D204 2000 BC48 00524 00C48  9621  1                      MVC   KWRUSER(5),CPCACCT  Move in account to be checked
 0001F6 D602 2000 2000_00524 00524  9622  1                      IF    (KWRUSER,Z),'MVC KWRUSER,CPSUSER'
 000206 D601 2003 2003_00527 00527  9644  1                      IF    (KWRGRP,Z),'MVC KWRGRP,CPSGRP'
 000216 4110 2000            00524  9666  1                      LA    R1,KWR
 00021A 1B00                        9667  1                      CLEAR R0                  Getkwr options
 00021C 58E0 744E/0DEE       00480  9671  1                      VCALL GETKWR
 000222 D204 612E 2000 0012E 00524  9675  1                      MVC   TACCT3,KWRUSER      Put account in TDSECT
 000228 D7FF 2000 2000_00524 00524  9676  1                      CLEAR KWR
1TAPE     (TAPE4072) (12:56) (15MAR04) SET/SHOW TAPE Commands                                                               Page    9
0Current Usings:  (TAPEWA,R6) (*,R7) (TAPEWA-(4+36),R8) (CP,R11) (CV,R12)
0Loc    Object Code    Addr1 Addr2  Stmt Lv Lineno    Source Statement           (Hibal 5, Asmedit 3.3)  HLASM R4.0  2004/03/15 12.56
+___    ______ ____    _____ _____  ____ __ ______    ______ _________
0DROP   KWR,R2                      9684                       END
                                    9693
 000234 92FF BF35      00F35        9694                       MVI   DSNWAF2,DSNFSIMP    Set for simple dopen/dclose
 000238 58E0 7452/0DEE       00484  9695                       DOPEN
 00023E 4780 7216/58E0_      00248  9704                       IF    NZ,'VCALL NTGDOPN'  Error of some sort
                                    9724
 000248 9160 6000/4780_00000        9725                       IF    TAPEFRES+TAPEFREL,BEGIN  Reserve/release request...
 000250 92F3 6064      00064        9743  1                      MVI   TPARM,TPRES         Assume reserve
 000254 9140 6000/47E0_00000        9744  1                      IF    TAPEFREL,'MVI TPARM,TPREL'  set release
 000260 58E0 745A/0DEE       0048C  9765  1                      ACALL SENDTLMS
 000266 4110 745E/4100_      00490  9769  1                      TSEG  'Tape',,B
 000278 4110 606E/4100_      0006E  9787  1                      SETMSG TVSN
 000280 58E0 7466/0DEE       00498  9801  1                      VCALL LRTRIM
 000286 41F0 B050/58E0_      00050  9805  1                      TSEG  (R1),(R0),B
 000290 4110 73FE/4100_      00430  9829  1                      SETMSG 'is now reserved.'
 000298 9140 6000/47E0_00000        9833  1                      IF    TAPEFREL,'SETMSG "has been released."'
 0002A8 47F0 C7D0            007D0  9857  1                      B     CVNXTMSG
 0002AC                             9858                       END
                                    9862
 0002AC 9102 6001/47E0_00001        9863                       IF    TAPEFTYP,BEGIN
 0002B4 92C1 6064      00064        9878  1                      MVI   TPARM,TPINQTYP
 0002B8                             9879                       END
 0002B8 728A/47F0 728E 002B8 002B2  9883                       ELSE  BEGIN
 0002BC 92F0 6064      00064        9894  1                      MVI   TPARM,TPINQ         Inquiry
 0002C0                             9895                       END
 0002C0 58E0 745A/0DEE       0048C  9899                       ACALL SENDTLMS
 0002C6 9180 6000/47E0_00000        9903                       IF    TAPEFUPD,BEGIN      Update fields & re-write...
 0002CE D62B 6002 6002_00002 00002  9918  1                      IF    (TAPEDSN,NZ),BEGIN
 0002D8 D21F 60B1 6002 000B1 00002  9934  2                        MVC   TDSN(32),TAPEDSN    Try to preserve the "hhmm"
                                    9935  2         C              IF    ((TAPEDSN+33,NE,' '),
 0002DE 9540 6023/4770_00023              2                              OR,(TDSN+33,NE,' '),OR,(TDSN+34.C'0',~ONES)),BEGIN
 0002F6 D22B 60B1 6002 000B1 00002  9983  3                          MVC   TDSN,TAPEDSN
 0002FC                             9984  2                        END
 0002FC                             9988  1                      END
 0002FC 9500 602E/4780_0002E        9992  1                      IF    (TAPEIN,NZ),'MVC TINCODE,TAPEIN'
 00030A 9500 602F/4780_0002F       10014  1                      IF    (TAPEOUT,NZ),'MVC TOUTCODE,TAPEOUT'
 000318 D609 6030 6030_00030 00030 10036  1                      IF    (TAPENAME,NZ),'MVC TPRGRMMR,TAPENAME'
 000328 D607 603A 603A_0003A 0003A 10058  1                      IF    (TAPEJOB,NZ),'MVC TJOBNAME,TAPEJOB'
 000338 D604 6042 6042_00042 00042 10080  1                      IF    (TAPEKEEP,NZ),'MVC TKEEPDT,TAPEKEEP'
 000348 D602 6047 6047_00047 00047 10102  1                      IF    (TAPEFILE,NZ),'MVC TLASTFIL,TAPEFILE'
 000358 92F1 6064      00064       10124  1                      MVI   TPARM,TPUPD         Update record
 00035C 58E0 745A/0DEE       0048C 10125  1                      ACALL SENDTLMS
                                   10129  1
 000362 9110 6000/47E0_00000       10130  1                      IF    TAPEFSLT,BEGIN      Assign new slot number...
 00036A 92F5 6064      00064       10145  2                        MVI   TPARM,TPSLOT        Newslot call
 00036E 9108 6000/47E0_00000       10146  2                        IF    TAPEFRSL,'MVI TPARM,TPRESL'  Reassign slot
 00037A 9104 6000/47E0_00000       10167  2                        IF    TAPEFNSL,'MVI TPARM,TPFREESL'  Unassign slot
 000386 58E0 745A/0DEE       0048C 10188  2                        ACALL SENDTLMS            Assign the new slot
                                   10192  2
 00038C 92F0 6064      00064       10193  2                        MVI   TPARM,TPINQ         Do another inquiry
 000390 58E0 745A/0DEE       0048C 10194  2                        ACALL SENDTLMS            This will return TSLOTNO
 000396                            10198  1                      END
                                   10202  1
 000396 91E0 6001/4780_00001       10203  1                      IF    TAPEFRET+TAPEFARC+TAPEFNAR,BEGIN ARC/NOARC/RET...
1TAPE     (TAPE4072) (12:56) (15MAR04) SET/SHOW TAPE Commands                                                               Page   10
0Current Usings:  (TAPEWA,R6) (*,R7) (TAPEWA-(4+36),R8) (CP,R11) (CV,R12)
0Loc    Object Code    Addr1 Addr2  Stmt Lv Lineno    Source Statement           (Hibal 5, Asmedit 3.3)  HLASM R4.0  2004/03/15 12.56
+___    ______ ____    _____ _____  ____ __ ______    ______ _________
000039E 92F7 6064      00064       10225  2                        MVI   TPARM,TPONS         Assume RETRIEVE request
 0003A2 9140 6001/47E0_00001       10226  2                        IF    TAPEFARC,'MVI TPARM,TPOFFS'  ARCHIVE request
 0003AE 9120 6001/47E0_00001       10247  2                        IF    TAPEFNAR,'MVI TPARM,TPNOFFS'  NOARCHIVE request
 0003BA 58E0 745A/0DEE       0048C 10268  2                        ACALL SENDTLMS            Request tape ARCHIVE/NOARCHIVE
                                   10272  2
 0003C0 92F0 6064      00064       10273  2                        MVI   TPARM,TPINQ         Do another inquiry
 0003C4 58E0 745A/0DEE       0048C 10274  2                        ACALL SENDTLMS            This will return TLOCID
 0003CA                            10278  1                      END
                                   10282  1
 0003CA 9110 6001/47E0_00001       10283  1                      IF    TAPEFLAB,BEGIN      Print a tape label...
 0003D2 92F4 6064      00064       10298  2                        MVI   TPARM,TPLABEL       Print label call
 0003D6 58E0 745A/0DEE       0048C 10299  2                        ACALL SENDTLMS
 0003DC 4110 740E/4100_      00440 10303  2                        TSEG  'A label will be printed for tape',,B
 0003EE 4110 606E/4100_      0006E 10321  2                        SETMSG TVSN
 0003F6 58E0 7466/0DEE       00498 10335  2                        VCALL LRTRIM
 0003FC 41F0 B050/58E0_      00050 10339  2                        TSEG  (R1),(R0)
 000406 4110 74C7/4100_      004F9 10363  2                        SETMSG '.'
 00040E 47F0 C7D0            007D0 10367  2                        B     CVNXTMSG
 000412                            10368  1                      END
 000412                            10372                       END
                                   10376
 000412 58E0 746E/0DEE       004A0 10377                       VCALL EXTCLOSE
                                   10381                       ¿þþþþþþþþþþþþþþþþþþþþþþþþþþþþþþþþþþþþþþþþþþþþþþÜ
                                   10382                       Ÿ  Now display the relevant tape information.  Ÿ
                                   10383                       ¾þþþþþþþþþþþþþþþþþþþþþþþþþþþþþþþþþþþþþþþþþþþþþþ»
 000418 58E0 7472/0DEE       004A4 10384                       ACALL TAPEDISP            Display tape information
 00041E 47F0 C7DE            007DE 10388                       B     CVNEXT
 000422 18D8/9808 D004_            10389                       PEND  ,
 DROP   TAPEWA-(4+36),R8
 DROP   *,R7
1TAPE     (TAPE4072) (12:56) (15MAR04) SET/SHOW TAPE Commands                                                               Page   11
0Current Usings:  (TAPEWA,R6) (CP,R11) (CV,R12)
0Loc    Object Code    Addr1 Addr2  Stmt Lv Lineno    Source Statement           (Hibal 5, Asmedit 3.3)  HLASM R4.0  2004/03/15 12.56
+___    ______ ____    _____ _____  ____ __ ______    ______ _________
0                                  10415                       QLTORG
1TAPE     (TAPE4072) (12:56) (15MAR04) SET/SHOW TAPE Commands                                                               Page   12
0Current Usings:  (TAPEWA,R6) (CP,R11) (CV,R12)
0Loc    Object Code    Addr1 Addr2  Stmt Lv Lineno    Source Statement           (Hibal 5, Asmedit 3.3)  HLASM R4.0  2004/03/15 12.56
+___    ______ ____    _____ _____  ____ __ ______    ______ _________
00004FC C4E2D5C1D4C54040_          10455              TAPEPRT  SCKW  DSNAME,VDSN,(A,P)
 000524 C9D5404040404040_          10470                       SCKW  IN,VIN,(A,P,PI),5
 00054C C9D5C3D6C4C54040_          10485                       SCKW  INCODE,VIN,(A,P,PI),5
 000574 D6E4E3C3D6C4C540_          10500                       SCKW  OUTCODE,VOUT,(A,P,PI),5
 00059C E4E2C54040404040_          10515                       SCKW  USE,VUSE,P          Could be "user" or "usecode"
 0005C4 E4E2C5C3D6C4C540_          10530                       SCKW  USECODE,VOUT,(A,P,PI),5
 0005EC D6D5404040404040_          10545                       SCKW  ON,VON
 000614 D6D5E2C9E3C54040_          10560                       SCKW  ONSITE,VON,A
 00063C D6C6C6E2C9E3C540_          10575                       SCKW  OFFSITE,VOFF,A
 000664 C1D9C3C8C9E5C540_          10590                       SCKW  ARCHIVE,VARCH,A
 00068C D5D6C1D9C3C8C9E5_          10605                       SCKW  NOARCHIVE,VNOARCH,A
 0006B4 D9C5E3D9C9C5E5C5_          10620                       SCKW  RETRIEVE,VRET,A
 0006DC D5C1D4C540404040_          10635                       SCKW  NAME,VNAME,(A,P)
 000704 D1D6C2D5C1D4C540_          10650                       SCKW  JOBNAME,VJOB,(A,P)
 00072C D2C5C5D740404040_          10665                       SCKW  KEEP,VKEEP,A
 000754 C6C9D3C5E2404040_          10680                       SCKW  FILES,VFIL,(A,P,I),999
 00077C D9C5D3C5C1E2C540_          10695                       SCKW  RELEASE,VREL,A
 0007A4 D9C5E2C5D9E5C540_          10710                       SCKW  RESERVE,VRES,A
 0007CC E2D3D6E340404040_          10725                       SCKW  SLOT,VSLOT,A
 0007F4 D9C5E2D3D6E34040_          10740                       SCKW  RESLOT,VRESLOT,A
 00081C D5D6E2D3D6E34040_          10755                       SCKW  NOSLOT,VNOSLOT,A
 000844 D3C1C2C5D3404040_          10770                       SCKW  LABEL,VLABEL,A
 00086C D6E6D5C5D9404040_          10785                       SCKW  OWNER,VOWN,A
 000894 4040404040404040_          10800                       SCKW  ,V(QUIETPSH),PUSH
                                   10815
 0008BC C1D3D34040404040_          10816              TAPEPRTS SCKW  ALL,VALL
 0008E4 D9C1E64040404040_          10831                       SCKW  RAW,VRAW
 00090C E3E8D7C540404040_          10846                       SCKW  TYPE,VTYPE
 000934 4040404040404040_          10861                       SCKW  ,V(INTPSH),PUSH
 00095C 4040404040404040_          10876                       SCKW  ,V(ACCTPSH),PUSH
 000984 4040404040404040_          10891                       SCKW  ,V(COLLPSH),PUSH
 0009AC 4040404040404040_          10906                       SCKW  ,V(NOTVALID)
                                   10921
 0009D4 50E0 D000/9008_      00000 10922              VDSN     PROC  ,
 USING  *,R7
 0009EE 957D 1000/4780_00000       10961                       IF ((@R1,EQ,''''),OR,(@R1,EQ,'"'),OR,(@R1,EQ,'(')),BEGIN
 000A06 58E0 76DA/0DEE       010C8 11005  1                      VCALL NOTVALID
 000A0C                            11009                       END
 000A0C 955B 1000/4780_00000       11013                       IF    ((@R1,EQ,'$'),OR,(@R1,EQ,'&&'),OR,(@R1,EQ,'@')),BEGIN
 000A26 4110 7692/4100_      01080 11057  1                      ERROR 'Dsname can''t be qualified with "$", "@", OR "&&".'
 000A32                            11064                       END
 000A32 9680 6000      00000       11068                       SET   TAPEFUPD
 000A36 58F0 B08C/4110_      0008C 11074                       SCUPCASE TAPEDSN
 000A48 1BFF                       11095                       CLEAR R15
 000A4A 18D8/9808 D004_            11099                       PEND  ,
 DROP   *,R7
                                   11119
 000A58 50E0 D000/9008_      00000 11120              VUSE     PROC  ,
 USING  *,R7
 000A72 5810 B08C/4111_      0008C 11159                       SCUPTOK R1
 000A7A 5900 765E/4770_      010D0 11163                       IF    (R0,EQ,3),BEGIN     It's user=xxx...
 000A82 D202 BC48 1000 00C48 00000 11180  1                      MVC   CPCUSER,@R1
 000A88 47F0 7052            00AC4 11181  1                      EXIT  VUSE
 000A8C                            11184                       END
1TAPE     (TAPE4072) (12:56) (15MAR04) SET/SHOW TAPE Commands                                                               Page   13
0Current Usings:  (TAPEWA,R6) (*,R7) (CP,R11) (CV,R12)
0Loc    Object Code    Addr1 Addr2  Stmt Lv Lineno    Source Statement           (Hibal 5, Asmedit 3.3)  HLASM R4.0  2004/03/15 12.56
+___    ______ ____    _____ _____  ____ __ ______    ______ _________
0000A8C 58E0 7662/0DEE       010D4 11188                       VCALL DTB                 It's usecode=x...
 000A92 4780 702A/58E0_      00A9C 11192                       IF    NZ,'VCALL NOTVALID'
 000A9C 12FF/47D0 7038_            11212                       IF    ((R15,NP),OR,(R15,GT,5)),'VCALL NOTVALID'
 000AB0 9680 6000      00000       11251                       SET   TAPEFUPD
 000AB4 4100 0001/4110_      00001 11257                       BTD   TAPEOUT,,(R15)
 000AC2 1BFF                       11277                       CLEAR R15
 000AC4 18D8/9808 D004_            11281                       PEND  ,
 DROP   *,R7
                                   11301
 000AD2 50E0 D000/9008_      00000 11302              VIN      PROC  ,
 USING  *,R7
 000AEC 18F0                       11341                       LR    R15,R0
 000AEE 9680 6000      00000       11342                       SET   TAPEFUPD
 000AF2 4100 0001/4110_      00001 11348                       BTD   TAPEIN,,(R15)
 000B00 1BFF                       11368                       CLEAR R15
 000B02 18D8/9808 D004_            11372                       PEND  ,
 DROP   *,R7
                                   11392
 000B10 50E0 D000/9008_      00000 11393              VOUT     PROC  ,
 USING  *,R7
 000B2A 18F0                       11432                       LR    R15,R0
 000B2C 9680 6000      00000       11433                       SET   TAPEFUPD
 000B30 4100 0001/4110_      00001 11439                       BTD   TAPEOUT,,(R15)
 000B3E 1BFF                       11459                       CLEAR R15
 000B40 18D8/9808 D004_            11463                       PEND  ,
 DROP   *,R7
                                   11483
 000B4E 50E0 D000/9008_      00000 11484              VNAME    PROC  ,
 USING  *,R7
 000B68 9680 6000      00000       11523                       SET   TAPEFUPD
 000B6C 58F0 B08C/4110_      0008C 11529                       SCDQUOTE TAPENAME
 000B7E 1BFF                       11550                       CLEAR R15
 000B80 18D8/9808 D004_            11554                       PEND  ,
 DROP   *,R7
                                   11574
 000B8E 50E0 D000/9008_      00000 11575              VJOB     PROC  ,
 USING  *,R7
 000BA8 957D 1000/4780_00000       11614                       IF ((@R1,EQ,''''),OR,(@R1,EQ,'"'),OR,(@R1,EQ,'(')),BEGIN
 000BC0 58E0 7520/0DEE       010C8 11658  1                      VCALL NOTVALID
 000BC6                            11662                       END
 000BC6 9680 6000      00000       11666                       SET   TAPEFUPD
 000BCA 58F0 B08C/4110_      0008C 11672                       SCUPCASE TAPEJOB
 000BDC 1BFF                       11693                       CLEAR R15
 000BDE 18D8/9808 D004_            11697                       PEND  ,
 DROP   *,R7
                                   11717
 000BEC 50E0 D000/9008_      00000 11718              VKEEP    PROC  ,
 USING  *,R7
 000C06 9680 6000      00000       11757                       SET   TAPEFUPD
 000C0A 58E0 74DE/0DEE       010E4 11763                       VCALL CNVDATE             Get date in YYDDDF format
 000C10 88F0 0004            00004 11767                       SRL   R15,4               Get rid of F
 000C14 4100 0005/4110_      00005 11768                       BTX   TAPEKEEP,,(R15)
 000C22 1BFF                       11788                       CLEAR R15
 000C24 18D8/9808 D004_            11792                       PEND  ,
1TAPE     (TAPE4072) (12:56) (15MAR04) SET/SHOW TAPE Commands                                                               Page   14
0Current Usings:  (TAPEWA,R6) (CP,R11) (CV,R12)
0Loc    Object Code    Addr1 Addr2  Stmt Lv Lineno    Source Statement           (Hibal 5, Asmedit 3.3)  HLASM R4.0  2004/03/15 12.56
+___    ______ ____    _____ _____  ____ __ ______    ______ _________
0DROP   *,R7
                                   11812
 000C32 50E0 D000/9008_      00000 11813              VFIL     PROC  ,
 USING  *,R7
 000C4C 9680 6000      00000       11852                       SET   TAPEFUPD
 000C50 18F0                       11858                       LR    R15,R0
 000C52 4100 0003/4110_      00003 11859                       BTD   TAPEFILE,,(R15)
 000C60 D602 6047 7464 00047 010B0 11879                       OC    TAPEFILE,=C'00000000'
 000C66 1BFF                       11880                       CLEAR R15
 000C68 18D8/9808 D004_            11884                       PEND  ,
 DROP   *,R7
                                   11904
 000C76 50E0 D000/9008_      00000 11905              VALL     PROC  ,
 USING  *,R7
 000C90 9608 6001      00001       11944                       SET   TAPEFALL
 000C94 18D8/9808 D004_            11950                       PEND  ,
 DROP   *,R7
                                   11970
 000CA2 50E0 D000/9008_      00000 11971              VRAW     PROC  ,
 USING  *,R7
 000CBC 9604 6001      00001       12010                       SET   TAPEFRAW
 000CC0 18D8/9808 D004_            12016                       PEND  ,
 DROP   *,R7
                                   12036
 000CCE 50E0 D000/9008_      00000 12037              VTYPE    PROC  ,
 USING  *,R7
 000CE8 9602 6001      00001       12076                       SET   TAPEFTYP
 000CEC 18D8/9808 D004_            12082                       PEND  ,
 DROP   *,R7
                                   12102
 000CFA 50E0 D000/9008_      00000 12103              VREL     PROC  ,
 USING  *,R7
 000D14 9180 6000/47E0_00000       12142                       IF    TAPEFUPD,BEGIN
 000D1C 4110 73D8/4100_      010EC 12157  1                      TSEG  'RELEASE is inconsistent with',,B
 000D2E 4110 74F9/4100_      0120D 12175  1                      SETMSG 'new options'
 000D36 9120 6000/47E0_00000       12179  1                      IF    TAPEFRES,'SETMSG "RESERVE"'
 000D46 41F0 B050/58E0_      00050 12203  1                      TSEG  (R1),(R0)
 000D50 4110 750B/4100_      0121F 12227  1                      ERROR '.'
 000D5C                            12234                       END
 000D5C 96C0 6000      00000       12238                       SET   TAPEFREL+TAPEFUPD
 000D60 18D8/9808 D004_            12247                       PEND  ,
 DROP   *,R7
                                   12267
 000D6E 50E0 D000/9008_      00000 12268              VRES     PROC  ,
 USING  *,R7
 000D88 9180 6000/47E0_00000       12307                       IF    TAPEFUPD,BEGIN
 000D90 4110 7388/4100_      01110 12322  1                      TSEG  'RESERVE is inconsistent with',,B
 000DA2 4110 7485/4100_      0120D 12340  1                      SETMSG 'new options'
 000DAA 9140 6000/47E0_00000       12344  1                      IF    TAPEFREL,'SETMSG "RELEASE"'
 000DBA 41F0 B050/58E0_      00050 12368  1                      TSEG  (R1),(R0)
 000DC4 4110 7497/4100_      0121F 12392  1                      ERROR '.'
 000DD0                            12399                       END
 000DD0 96A0 6000      00000       12403                       SET   TAPEFRES+TAPEFUPD
 000DD4 18D8/9808 D004_            12412                       PEND  ,
1TAPE     (TAPE4072) (12:56) (15MAR04) SET/SHOW TAPE Commands                                                               Page   15
0Current Usings:  (TAPEWA,R6) (CP,R11) (CV,R12)
0Loc    Object Code    Addr1 Addr2  Stmt Lv Lineno    Source Statement           (Hibal 5, Asmedit 3.3)  HLASM R4.0  2004/03/15 12.56
+___    ______ ____    _____ _____  ____ __ ______    ______ _________
0DROP   *,R7
                                   12432
 000DE2 50E0 D000/9008_      00000 12433              VON      PROC  ,
 USING  *,R7
 000DFC 4110 742B/4100_      01227 12472                       TSEG  'Please use the RETRIEVE option to bring a tape '
 000E0E 4110 745A/4100_      01256 12490                       ERROR 'ONSITE.'
 000E1A 18D8/9808 D004_            12497                       PEND  ,
 DROP   *,R7
                                   12517
 000E28 50E0 D000/9008_      00000 12518              VOFF     PROC  ,
 USING  *,R7
 000E42 4110 736E/4100_      011B0 12557                       TSEG  'Please use the ARCHIVE option to place a tape '
 000E54 4110 7276/4100_      010B8 12575                       ERROR 'OFFSITE.'
 000E60 18D8/9808 D004_            12582                       PEND  ,
 DROP   *,R7
                                   12602
 000E6E 50E0 D000/9008_      00000 12603              VRET     PROC  ,
 USING  *,R7
 000E88 9140 6001/47E0_00001       12642                       IF    TAPEFARC,BEGIN
 000E90 4110 72A4/4100_      0112C 12657  1                      ERROR 'ARCHIVE and RETRIEVE are mutually exclusive options.'
 000E9C                            12664                       END
 000E9C 9120 6001/47E0_00001       12668                       IF    TAPEFNAR,BEGIN
 000EA4 4110 7356/4100_      011DE 12683  1                      TSEG  'NOARCHIVE and RETRIEVE are mutually exclusive '
 000EB6 4110 7238/4100_      010C0 12701  1                      ERROR  'options.'
 000EC2                            12708                       END
 000EC2 9680 6001/9680_00001       12712                       SET   TAPEFRET,TAPEFUPD
 000ECA 18D8/9808 D004_            12722                       PEND  ,
 DROP   *,R7
                                   12742
 000ED8 50E0 D000/9008_      00000 12743              VARCH    PROC  ,
 USING  *,R7
 000EF2 9180 6001/47E0_00001       12782                       IF    TAPEFRET,BEGIN
 000EFA 4110 726E/4100_      01160 12797  1                      ERROR 'RETRIEVE and ARCHIVE are mutually exclusive options.'
 000F06                            12804                       END
 000F06 9120 6001/47E0_00001       12808                       IF    TAPEFNAR,BEGIN
 000F0E 4110 72EC/4100_      011DE 12823  1                      TSEG  'NOARCHIVE and RETRIEVE are mutually exclusive '
 000F20 4110 71CE/4100_      010C0 12841  1                      ERROR  'options.'
 000F2C                            12848                       END
 000F2C 9640 6001/9680_00001       12852                       SET   TAPEFARC,TAPEFUPD
 000F34 18D8/9808 D004_            12862                       PEND  ,
 DROP   *,R7
                                   12882
 000F42 50E0 D000/9008_      00000 12883              VNOARCH  PROC  ,
 USING  *,R7
 000F5C 91C0 6001/4780_00001       12922                       IF    TAPEFRET+TAPEFARC,BEGIN
 000F64 4110 7301/4100_      0125D 12940  1                      TSEG  'NOARCHIVE can''t be specified with ARCHIVE or '
 000F76 4110 732E/4100_      0128A 12958  1                      ERROR 'RETRIEVE.'
 000F82                            12965                       END
 000F82 9620 6001/9680_00001       12969                       SET   TAPEFNAR,TAPEFUPD
 000F8A 18D8/9808 D004_            12979                       PEND  ,
 DROP   *,R7
                                   12999
 000F98 50E0 D000/9008_      00000 13000              VSLOT    PROC  ,
 USING  *,R7
1TAPE     (TAPE4072) (12:56) (15MAR04) SET/SHOW TAPE Commands                                                               Page   16
0Current Usings:  (TAPEWA,R6) (*,R7) (CP,R11) (CV,R12)
0Loc    Object Code    Addr1 Addr2  Stmt Lv Lineno    Source Statement           (Hibal 5, Asmedit 3.3)  HLASM R4.0  2004/03/15 12.56
+___    ______ ____    _____ _____  ____ __ ______    ______ _________
0000FB2 9690 6000      00000       13039                       SET   TAPEFSLT+TAPEFUPD
 000FB6 18D8/9808 D004_            13048                       PEND  ,
 DROP   *,R7
                                   13068
 000FC4 50E0 D000/9008_      00000 13069              VRESLOT  PROC  ,
 USING  *,R7
 000FDE 9698 6000      00000       13108                       SET   TAPEFSLT+TAPEFRSL+TAPEFUPD
 000FE2 18D8/9808 D004_            13121                       PEND  ,
 DROP   *,R7
                                   13141
 000FF0 50E0 D000/9008_      00000 13142              VNOSLOT  PROC  ,
 USING  *,R7
 00100A 9694 6000      00000       13181                       SET   TAPEFSLT+TAPEFNSL+TAPEFUPD
 00100E 18D8/9808 D004_            13194                       PEND  ,
 DROP   *,R7
                                   13214
 00101C 50E0 D000/9008_      00000 13215              VOWN     PROC  ,
 USING  *,R7
 001036 4110 715E/4100_      01194 13254                       ABORT 'Tape owner can''t be changed.'
 001042 18D8/9808 D004_            13261                       PEND  ,
 DROP   *,R7
                                   13281
 001050 50E0 D000/9008_      00000 13282              VLABEL   PROC  ,
 USING  *,R7
 00106A 9610 6001/9680_00001       13321                       SET   TAPEFLAB,TAPEFUPD
 001072 18D8/9808 D004_            13331                       PEND  ,
 DROP   *,R7
                                   13351
                                   13352                       QLTORG
1TAPE     (TAPE4072) (12:56) (15MAR04) SET/SHOW TAPE Commands                                                               Page   17
0Current Usings:  (TAPEWA,R6) (CP,R11) (CV,R12)
0Loc    Object Code    Addr1 Addr2  Stmt Lv Lineno    Source Statement           (Hibal 5, Asmedit 3.3)  HLASM R4.0  2004/03/15 12.56
+___    ______ ____    _____ _____  ____ __ ______    ______ _________
0                                  13396              ¿þþþþþþþþþþþþþþþþþþþþþþþþþþþþþþþþþþþþþþþþþþþþþþþþþþþþþþþþþþþþþþþþþþþþþÜ
                                   13397              Ÿ                                                                     Ÿ
                                   13398              Ÿ  TAPEDISP -- Routine to display tape information.                   Ÿ
                                   13399              Ÿ                                                                     Ÿ
                                                      ¾þþþþþþþþþþþþþþþþþþþþþþþþþþþþþþþþþþþþþþþþþþþþþþþþþþþþþþþþþþþþþþþþþþþþþ»
0001294 50E0 D000/9008_      00000 13400              TAPEDISP PROC  ,
 USING  *,R7
 0012AE 5860 BCA4            00CA4 13439                       L     R6,CPCWA
                                   13440                       USING TAPEWA,R6
                                   13442                       ¿þþþþþþþþþþþþþþþþþþþþþþþþþþþþþþþþþþþþþþþþþÜ
                                   13443                       Ÿ  RAW (completely unformatted) version.  Ÿ
                                   13444                       ¾þþþþþþþþþþþþþþþþþþþþþþþþþþþþþþþþþþþþþþþþþ»
 0012B2 9104 6001/47E0_00001       13445                       IF    TAPEFRAW,BEGIN      Raw...
 0012BA 4110 606E/4100_      0006E 13460  1                      TSEG  TAREA
 0012CC 47F0 77A6            01A54 13488  1                      B     TAPEDXIT
 0012D0                            13489                       END
                                   13493                       ¿þþþþþþþþþþþþþþþþþþþþþþþþþþþþþþþþþþþþÜ
                                   13494                       Ÿ  INTERNAL (fixed format) version.  Ÿ
                                   13495                       ¾þþþþþþþþþþþþþþþþþþþþþþþþþþþþþþþþþþþþ»
 0012D0 9110 BD58/47E0_00D58       13496                       IF    CPFINT,BEGIN        Internal...
 0012D8 58E0 7906/0DEE       01BB4 13511  1                      ACALL TAPEINTD            Display internal format
 0012DE 47F0 77A6            01A54 13515  1                      B     TAPEDXIT
 0012E2                            13516                       END
                                   13520                       ¿þþþþþþþþþþþþþþþþþÜ
                                   13521                       Ÿ  TYPE version.  Ÿ
                                   13522                       ¾þþþþþþþþþþþþþþþþþ»
 0012E2 9102 6001/47E0_00001       13523                       IF    TAPEFTYP,BEGIN
 0012EA 4110 6074            00074 13538  1                      LA    R1,TDRIVE
 0012EE 58E0 790A/0DEE       01BB8 13539  1                      ACALL DISPTYPE
 0012F4 47F0 77A6            01A54 13543  1                      B     TAPEDXIT
 0012F8                            13544                       END
                                   13548                       ¿þþþþþþþþþþþþþþþþþþþþÜ
                                   13549                       Ÿ  Regular version.  Ÿ
                                   13550                       ¾þþþþþþþþþþþþþþþþþþþþ»
 0012F8 4110 606E/4100_      0006E 13551                       TSEG  TVSN,,B
                                   13579
 00130A 4110 78C2/4100_      01B70 13580                       TSEG  '- Owner='
 00131C 4110 60AC/4100_      000AC 13598                       TSEG  TACCT+3,2
 00132E 4110 7A26/4100_      01CD4 13628                       TSEG  '.'
 001340 4110 60A9/4100_      000A9 13646                       TSEG  TACCT,3,B
                                   13676
 001352 4110 7A27/4100_      01CD5 13677                       TSEG  'Dsname='
 001364 4110 60B1/4100_      000B1 13695                       SETMSG TDSN
 00136C 9540 60D2/4770_000D2       13709                       IF    (TDSN+33,EQ,' '),'LA R0,32'  Get rid of hhmm
 001378 58E0 7912/0DEE       01BC0 13732                       VCALL LRTRIM
 00137E 41F0 B050/58E0_      00050 13736                       TSEG  (R1),(R0),B
 001388 1B00/41F0 B050_            13760                       TCR
                                   13785
 001394 4110 C4D8/4100_      004D8 13786                       TSEG  CVBLANKS,9
 0013A6 182D/41D0 D004             13816                       XPUSH ,,L'TLASTFIL,PTR=R2
 0013AC D202 2000 60AE 00000 000AE 13819                       MVC   @R2(L'TLASTFIL),TLASTFIL
 0013B2 D602 2000 7A2E 00000 01CDC 13820                       OC    @R2(L'TLASTFIL),=(L'TLASTFIL)C'0'
 0013B8 D502 2000 7A2E 00000 01CDC 13821                       CLC   @R2(L'TLASTFIL),=(L'TLASTFIL)C'0'
1TAPE     (TAPE4072) (12:56) (15MAR04) SET/SHOW TAPE Commands                                                               Page   18
0Current Usings:  (TAPEWA,R6) (*,R7) (CP,R11) (CV,R12)
0Loc    Object Code    Addr1 Addr2  Stmt Lv Lineno    Source Statement           (Hibal 5, Asmedit 3.3)  HLASM R4.0  2004/03/15 12.56
+___    ______ ____    _____ _____  ____ __ ______    ______ _________
00013BE 4770 7126/4110_      013D4 13822                       IF    EQ,'TSEG "Files=0 "'
 0013D4 712A/47F0 713E_013D4 013C0 13856                       ELSE  'TMSG "Files",TLASTFIL'
 0013EC 4BD0 7952            01C00 13892                       XPOP  ,,L'TLASTFIL
                                   13894
 0013F0 D507 6086 C4D8_00086 004D8 13895                       IF    (TJOBNAME,NE,CVBLANKS),BEGIN
 0013FA 4110 78D2/4100_      01B80 13913  1                      TSEG  'Jobname='
 00140C 4110 6086/4100_      00086 13931  1                      TSEG  TJOBNAME,,TB
 00141E                            13959                       END
                                   13963
 00141E D509 610B C4D8_0010B 004D8 13964                       IF    (TPRGRMMR,NE,CVBLANKS),BEGIN
 001428 4110 7A36/4100_      01CE4 13982  1                      TSEG  'Name='
 00143A 4110 610B/4100_      0010B 14000  1                      SETMSG TPRGRMMR
 001442 41F0 B050/58E0_      00050 14014  1                      TSEG  (R1),(R0),TB
 00144C                            14038                       END
                                   14042
 00144C 95E8 6134/4770_00134       14043                       IF    (TSCT,EQ,'Y'),BEGIN  Tape is in scratch status...
 001454 4110 7954/4100_      01C02 14060  1                      TSEG  '** Released **'
 001466                            14078                       END
 001466 71BC/47F0 72DA 01466 01452 14082                       ELSE  BEGIN               Otherwise, show in- outcodes...
 00146A 1B00/41F0 B050_            14093  1                      TCR
 001476 4110 C4D8/4100_      004D8 14118  1                      TSEG  CVBLANKS,9
 001488 4110 7A3B/4100_      01CE9 14148  1                      TSEG  'Incode='
 00149A 4110 6122/4100_      00122 14166  1                      TSEG  TINCODE,,B
 0014AC 1B00                       14194  1                      CLEAR R0
 0014AE 95F1 6122/4770_00122       14198  1                      IF    (TINCODE,EQ,'1'),'SETMSG "(No Read) "'
 0014BE 95F2 6122/4770_00122       14224  1                      IF    (TINCODE,EQ,'2'),'SETMSG "(Owner Read) "'
 0014CE 95F3 6122/4770_00122       14250  1                      IF    (TINCODE,EQ,'3'),'SETMSG "(Group Read) "'
 0014DE 95F4 6122/4770_00122       14276  1                      IF    (TINCODE,EQ,'4'),'SETMSG "(Community Read) "'
 0014EE 95F5 6122/4770_00122       14302  1                      IF    (TINCODE,EQ,'5'),'SETMSG "(Public Read) "'
 0014FE 41F0 B050/58E0_      00050 14328  1                      TSEG  (R1),(R0)
 001508 4110 78DA/4100_      01B88 14352  1                      TSEG  'Outcode='
 00151A 4110 6123/4100_      00123 14370  1                      TSEG  TOUTCODE,,B
 00152C 1B00                       14398  1                      CLEAR R0
 00152E 95F1 6123/4770_00123       14402  1                      IF    (TOUTCODE,EQ,'1'),'SETMSG "(No Write) "'
 00153E 95F2 6123/4770_00123       14428  1                      IF    (TOUTCODE,EQ,'2'),'SETMSG "(Owner Write) "'
 00154E 95F3 6123/4770_00123       14454  1                      IF    (TOUTCODE,EQ,'3'),'SETMSG "(Group Write) "'
 00155E 95F4 6123/4770_00123       14480  1                      IF    (TOUTCODE,EQ,'4'),'SETMSG "(Keep Date Protected) "'
 00156E 95F5 6123/4770_00123       14506  1                      IF    (TOUTCODE,EQ,'5'),'SETMSG "(Public Write) "'
 00157E 41F0 B050/58E0_      00050 14532  1                      TSEG  (R1),(R0)
 001588                            14556                       END
                                   14560
 001588 1B00/41F0 B050_            14561                       TCR
 001594 4110 C4D8/4100_      004D8 14586                       TSEG  CVBLANKS,9
 0015A6 4110 7A87/4100_      01D35 14616                       TSEG  'Location='
 0015B8 4110 60FB/4100_      000FB 14634                       TSEG  TLOCID
 0015CA 1B00                       14662                       CLEAR R0
 0015CC D501 79AC 60FB_01C5A 000FB 14666                       IF    (TLOCID,EQ,'10'),'SETMSG " (Forsythe)"'
 0015DE D501 79AE 60FB_01C5C 000FB 14692                       IF    (TLOCID,EQ,'15'),'SETMSG " (Forsythe)"'
 0015F0 D501 79B0 60FB_01C5E 000FB 14718                       IF    (TLOCID,EQ,'20'),'SETMSG " (Information Desk)"'
 001602 D501 79B2 60FB_01C60 000FB 14744                       IF    (TLOCID,EQ,'25'),'SETMSG " (Plot tape)"'
 001614 D501 79B4 60FB_01C62 000FB 14770                       IF    (TLOCID,EQ,'40'),'SETMSG " (Arcus)"'
 001626 D501 79B6 60FB_01C64 000FB 14796                       IF    (TLOCID,EQ,'51'),'SETMSG " (Searsville)"'
 001638 D501 79B8 60FB_01C66 000FB 14822                       IF    (TLOCID,EQ,'55'),'SETMSG " (Production Control)"'
 00164A D501 79BA 60FB_01C68 000FB 14848                       IF    (TLOCID,EQ,'80'),'SETMSG " (Archive)"'
1TAPE     (TAPE4072) (12:56) (15MAR04) SET/SHOW TAPE Commands                                                               Page   19
0Current Usings:  (TAPEWA,R6) (*,R7) (CP,R11) (CV,R12)
0Loc    Object Code    Addr1 Addr2  Stmt Lv Lineno    Source Statement           (Hibal 5, Asmedit 3.3)  HLASM R4.0  2004/03/15 12.56
+___    ______ ____    _____ _____  ____ __ ______    ______ _________
000165C D501 79C6 60FB_01C74 000FB 14874                       IF  (TLOCID,EQ,'81'),'SETMSG " (Forsythe -- Pending archive)"'
 00166E D501 79E6 60FB_01C94 000FB 14900                       IF  (TLOCID,EQ,'82'),'SETMSG " (Archive -- Pending retrieve)"'
 001680 D501 7A06 60FB_01CB4 000FB 14926                       IF    (TLOCID,EQ,'83'),'SETMSG " (Forsythe -- No archive)"'
 001692 D501 7A08 60FB_01CB6 000FB 14952                       IF    (TLOCID,EQ,'90'),'SETMSG " (User''s possession)"'
 0016A4 D501 7A0A 60FB_01CB8 000FB 14978                       IF    (TLOCID,EQ,'99'),'SETMSG " (Unknown)"'
 0016B6 41F0 B050/58E0_      00050 15004                       TSEG  (R1),(R0)
                                   15028
 0016C0 95E8 6133/4780_00133       15029                       IF    (TSER,NE,'Y'),BEGIN
 0016C8 4110 7AE9/4100_      01D97 15046  1                      TSEG  ' (Not in service)'
 0016DA                            15064                       END
 0016DA 1B00/41F0 B050_            15068                       TCR
                                   15093
 0016E6 4110 C4D8/4100_      004D8 15094                       TSEG  CVBLANKS,9
 0016F8 9540 60E6/4780_000E6       15124                       IF    (TSLOTNO,NE,' '),BEGIN
 001700 4110 7AFA/4100_      01DA8 15141  1                      TSEG  'Slot='
 001712 4110 60E6/4100_      000E6 15159  1                      TSEG  TSLOTNO,2
 001724 4110 7AFF/4100_      01DAD 15189  1                      TSEG  '-'
 001736 4110 60E8/4100_      000E8 15207  1                      TSEG  TSLOTNO+2,1
 001748 4110 7AFF/4100_      01DAD 15237  1                      TSEG  '-'
 00175A 4110 60E9/4100_      000E9 15255  1                      TSEG  TSLOTNO+3,2,B
 00176C                            15285                       END
                                   15289
 00176C 9540 60DD/4780_000DD       15290                       IF    (TPRVSLOT,NE,' '),BEGIN
 001774 4110 7B00/4100_      01DAE 15307  1                      TSEG  '(Previous slot was '
 001786 4110 60DD/4100_      000DD 15325  1                      TSEG  TPRVSLOT,2
 001798 4110 7AFF/4100_      01DAD 15355  1                      TSEG  '-'
 0017AA 4110 60DF/4100_      000DF 15373  1                      TSEG  TPRVSLOT+2,1
 0017BC 4110 7AFF/4100_      01DAD 15403  1                      TSEG  '-'
 0017CE 4110 60E0/4100_      000E0 15421  1                      TSEG  TPRVSLOT+3,2
 0017E0 4110 793E/4100_      01BEC 15451  1                      TSEG  ' on '
 0017F2 91F0 60EC      000EC       15469  1                      TM    TSLTYDDD,X'F0'      Test for new format slot-date
 0017F6 4770 756E            0181C 15470  1                      IF    Z,BEGIN             Yes - new format 0cyydddf
 0017FA BF0F 60EC            000EC 15481  2                        ICM   R0,15,TSLTYDDD      Set packed date into R0
 0017FE 4110 BC88            00C88 15482  2                        LA    R1,CPDOUB           Set output work area address
 001802 58E0 7942/0DEE       01BF0 15483  2                        VCALL DATE                Convert date to MM/DD/YY
 001808 D201 1006 1008 00006 00008 15487  2                        MVC   6(2,R1),8(R1)       Eliminate century for now
 00180E 4100 0008/41F0_      00008 15488  2                        TSEG  (R1),8              Set into output buffer
 00181C 7572/47F0 759A 0181C 017F8 15515  1                      END   ELSE,BEGIN          Process old style date
 001820 181D/41D0 D008             15530  2                        XPUSH ,,5,PTR=R1
 001826 95F9 60FD      000FD       15533  2                        CLI   TLOCDATE,C'9'       Generation date after 1990?
 00182A 4750 7584/92F9_      01832 15534  2                        IF    GE,'MVI @R1,C"9"'   Yes - set slot date to >1990
 001832 7588/47F0 758C_01832 0182C 15551  2                        ELSE  'MVI @R1,C"8"'      Else assume decade 1980.
 00183A D203 1001 60EC 00001 000EC 15568  2                        MVC   @R1+1(4),TSLTYDDD   Complete slot change date
 001840 4DE0 783E            01AEC 15569  2                        LCALL SEGDATE             Convert and seg character date
 001844 4BD0 7A16            01CC4 15571  2                        XPOP  ,,5                 Restore stack
 001848                            15573  1                      END   ,
 001848 4110 7A18/4100_      01CC6 15577  1                      TSEG  ') '                Complete message
 00185A                            15595                       END
                                   15599
 00185A 9540 60E6/4770_000E6       15600                       IF    ((TSLOTNO,EQ,' '),AND,(TPRVSLOT,EQ,' ')),BEGIN
 00186A 4110 7B13/4100_      01DC1 15633  1                      TSEG  '(No slot information available)'
 00187C                            15651                       END
 00187C 1B00/41F0 B050_            15655                       TCR
                                   15680
1TAPE     (TAPE4072) (12:56) (15MAR04) SET/SHOW TAPE Commands                                                               Page   20
0Current Usings:  (TAPEWA,R6) (*,R7) (CP,R11) (CV,R12)
0Loc    Object Code    Addr1 Addr2  Stmt Lv Lineno    Source Statement           (Hibal 5, Asmedit 3.3)  HLASM R4.0  2004/03/15 12.56
+___    ______ ____    _____ _____  ____ __ ______    ______ _________
0001888 4110 C4D8/4100_      004D8 15681                       TSEG  CVBLANKS,9
 00189A 4110 7B32/4100_      01DE0 15711                       TSEG  'CR:',,B
 0018AC 9540 60D2/4770_000D2       15729                       IF    ((TDSN+33,EQ,' '),AND,(TDSN+34.C'0',ONES)),BEGIN
 0018BC 4110 60D3/4100_      000D3 15763  1                      TSEG  TDSN+34,2
 0018CE 4110 7B35/4100_      01DE3 15793  1                      TSEG  ':'
 0018E0 4110 60D5/4100_      000D5 15811  1                      TSEG  TDSN+36,2,B
 0018F2                            15841                       END
 0018F2 4110 6077            00077 15845                       LA    R1,TGENDT           Creation date
 0018F6 4DE0 783E            01AEC 15846                       LCALL SEGDATE
 0018FA 4110 7B36/4100_      01DE4 15848                       TSEG  '  LA:',,B
 00190C 4110 60A4            000A4 15866                       LA    R1,TLUSED           Last accessed date
 001910 4DE0 783E            01AEC 15867                       LCALL SEGDATE
                                   15869
 001914 4110 7B3B/4100_      01DE9 15870                       TSEG  '  Keep='
 001926 4110 6081            00081 15888                       LA    R1,TKEEPDT          Keep date
 00192A 4DE0 783E            01AEC 15889                       LCALL SEGDATE
 00192E 1B00/41F0 B050_            15891                       TCR
                                   15916
 00193A 9108 6001/47E0_00001       15917                       IF    TAPEFALL,BEGIN      Display various counts...
 001942 4110 C4D8/4100_      004D8 15932  1                      TSEG  CVBLANKS,9
 001954 4110 7A1A/4100_      01CC8 15962  1                      TSEG  'Label='
 001966 4110 7B42/4100_      01DF0 15980  1                      SETMSG '???'
 00196E 9540 60A3/4780_000A3       15984  1                      IF    ((TLAB,NE,' '),AND,(TLAB,NZ)),'SETMSG TLAB'
 001986 95C1 60A3/4770_000A3       16035  1                      IF    (TLAB,EQ,'A'),'SETMSG "AL"'
 001996 95D5 60A3/4770_000A3       16061  1                      IF    (TLAB,EQ,'N'),'SETMSG "NL"'
 0019A6 95E2 60A3/4770_000A3       16087  1                      IF    (TLAB,EQ,'S'),'SETMSG "SL"'
 0019B6 95C2 60A3/4770_000A3       16113  1                      IF    (TLAB,EQ,'B'),'SETMSG "BLP"'
 0019C6 41F0 B050/58E0_      00050 16139  1                      TSEG  (R1),(R0),B
 0019D0 4110 7B48/4100_      01DF6 16163  1                      TMSG  'Density',TDEN
 0019E4 4110 7B4F/4100_      01DFD 16183  1                      TMSG  'Drive',TDRIVE
 0019F8 4110 78EA/4100_      01B98 16203  1                      TMSG  'Usecount',TUSECT
 001A0C 4110 7B54/4100_      01E02 16223  1                      TMSG  'SIO',TSIO
 001A20 4110 7B57/4100_      01E05 16243  1                      TMSG  'ERG',TERG
 001A34 4110 7B5A/4100_      01E08 16263  1                      TMSG  'TRE',TTRE
 001A48 1B00/41F0 B050_            16283  1                      TCR
 001A54                            16308                       END
                                   16312
 001A54 18D8/9808 D004_            16313              TAPEDXIT PEND
 DROP   *,R7
1TAPE     (TAPE4072) (12:56) (15MAR04) SET/SHOW TAPE Commands                                                               Page   21
0Current Usings:  (TAPEWA,R6) (CP,R11) (CV,R12)
0Loc    Object Code    Addr1 Addr2  Stmt Lv Lineno    Source Statement           (Hibal 5, Asmedit 3.3)  HLASM R4.0  2004/03/15 12.56
+___    ______ ____    _____ _____  ____ __ ______    ______ _________
0001A62 50E0 D000/9008_      00000 16335              TMSG     PROC  ,
 USING  *,R7
 001A7C 18F2                       16374                       LR    R15,R2
 001A7E 06F0/12FF/4740_            16375                       CMPR  R15,@R3,CVBLANKS    Anything?
 001A8A 4780 7062            01ADE 16413                       IF    NE,BEGIN            Yes...
 001A8E 44F0 7396/D500_      01E12 16424  1                      EX    R15,'CLC @R3(0),=C"00000000"'  Zeros?
 001A92 4780 7062            01ADE 16440  1                      IF    EQ,EXIT             Yes.. forget it
 001A96 41F0 B050/58E0_      00050 16454  1                      TSEG  (R1),(R0)
 001AA0 4110 738F/4100_      01E0B 16478  1                      TSEG  '='
 001AB2 1813/1802                  16496  1                      SETMSG (R3),(R2)
 001AB6 58E0 7144/0DEE       01BC0 16508  1                      VCALL LRTRIM
 001ABC 1200/47D0 7058_            16512  1                      WHILE ((R0,POS),AND,(@R1,EQ,'0')),'LA R1,@R1+1; DECR R0'
 001AD4 41F0 B050/58E0_      00050 16552  1                      TSEG  (R1),(R0),B
 001ADE                            16576                       END
 001ADE 18D8/9808 D004_            16580                       PEND  ,
 DROP   *,R7
-001AEC 50E0 D000/9008_      00000 16601              SEGDATE  PROC  ,
 USING  *,R7
 001B06 4100 0005/58E0_      00005 16640                       XTB   (R1),5
 001B10 4110 70A2            01BA8 16658                       LA    R1,=C'??/??/??'
 001B14 4770 7048/12FF_      01B4E 16659                       IF    (Z,AND,(R15,NZ)),BEGIN  Good date...
 001B1E 180F                       16683  1                      LR    R0,R15
 001B20 8800 000C            0000C 16684  1                      SRL   R0,12               Isolate YY
                                   16685  1           *
                                   16686  1           * Window dates between 00 and 69 to 2000-2069
                                   16687  1           *
 001B24 5900 70F2/47B0_      01BF8 16688  1                      IF    (R0,LT,=F'70'),BEGIN
 001B2C 5800 70F6            01BFC 16704  2                        L     R0,=XL4'0100000F'
 001B30                            16705  1                      END
 001B30 702E/47F0 7032 01B30 01B2A 16709  1                      ELSE  BEGIN
 001B34 4100 000F            0000F 16720  2                        LA    R0,X'F'
 001B38                            16721  1                      END
 001B38 89F0 0004            00004 16725  1                      SLL   R15,4
 001B3C 160F                       16726  1                      OR    R0,R15              Form "0CYYDDDF"
 001B3E 4110 BC88            00C88 16727  1                      LA    R1,CPDOUB
 001B42 58E0 70EA/0DEE       01BF0 16728  1                      VCALL DATE                Convert to "mm/dd/yy"
 001B48 D201 1006 1008 00006 00008 16732  1                      MVC   6(2,R1),8(R1)       Eliminate century for now
 001B4E                            16733                       END
 001B4E 4100 0008/41F0_      00008 16737                       TSEG  (R1),8
 001B5C 18D8/9808 D004_            16764                       PEND  ,
 DROP   *,R7
                                   16784
                                   16785                       QLTORG
1TAPE     (TAPE4072) (12:56) (15MAR04) SET/SHOW TAPE Commands                                                               Page   22
0Current Usings:  (TAPEWA,R6) (CP,R11) (CV,R12)
0Loc    Object Code    Addr1 Addr2  Stmt Lv Lineno    Source Statement           (Hibal 5, Asmedit 3.3)  HLASM R4.0  2004/03/15 12.56
+___    ______ ____    _____ _____  ____ __ ______    ______ _________
0                                  16884              ¿þþþþþþþþþþþþþþþþþþþþþþþþþþþþþþþþþþþþþþþþþþþþþþþþþþþþþþþþþþþþþþþþþþþþþÜ
                                   16885              Ÿ                                                                     Ÿ
                                   16886              Ÿ  DISPTYPE -- Routine to display SHOW TAPE TYPE response.            Ÿ
                                   16887              Ÿ                                                                     Ÿ
                                                      ¾þþþþþþþþþþþþþþþþþþþþþþþþþþþþþþþþþþþþþþþþþþþþþþþþþþþþþþþþþþþþþþþþþþþþþ»
0001E18 50E0 D000/9008_      00000 16888              DISPTYPE PROC  ,
 USING  *,R7
 USING  TTPD,R1                    16927                       WITH  (TTPD,R1)
 001E32 4100 0025/41F0_      00025 16940                       TSEG  (R1),TTYLNGTH
 001E40 18D8/9808 D004_            16967                       PEND
 DROP   TTPD,R1
 DROP   *,R7
1TAPE     (TAPE4072) (12:56) (15MAR04) SET/SHOW TAPE Commands                                                               Page   23
0Current Usings:  (TAPEWA,R6) (CP,R11) (CV,R12)
0Loc    Object Code    Addr1 Addr2  Stmt Lv Lineno    Source Statement           (Hibal 5, Asmedit 3.3)  HLASM R4.0  2004/03/15 12.56
+___    ______ ____    _____ _____  ____ __ ______    ______ _________
0                                  16993              ¿þþþþþþþþþþþþþþþþþþþþþþþþþþþþþþþþþþþþþþþþþþþþþþþþþþþþþþþþþþþþþþþþþþþþþÜ
                                   16994              Ÿ                                                                     Ÿ
                                   16995              Ÿ  TAPEINTD -- Routine to display SHOW TAPE INTERNAL response.        Ÿ
                                   16996              Ÿ                                                                     Ÿ
                                                      ¾þþþþþþþþþþþþþþþþþþþþþþþþþþþþþþþþþþþþþþþþþþþþþþþþþþþþþþþþþþþþþþþþþþþþþ»
0001E4E 50E0 D000/9008_      00000 16997              TAPEINTD PROC  ,
 USING  *,R7
 001E68 4110 606E/4100_      0006E 17036                       TSEG  TVSN,,B             Tape volser
                                   17064
 001E7A D504 60A9 C4D8_000A9 004D8 17065                       IF    (TACCT,EQ,CVBLANKS),'TSEG "??.???",,B'
 001E96 7032/47F0 7068 01E96 01E82 17106                       ELSE  BEGIN
 001E9A 4110 60AC/4100_      000AC 17117  1                      TSEG  TACCT+3,2           Account
 001EAC 4110 7898/4100_      02700 17147  1                      TSEG  '.'
 001EBE 4110 60A9/4100_      000A9 17165  1                      TSEG  TACCT,3,B
 001ED0                            17195                       END
                                   17199
 001ED0 4110 6086/4100_      00086 17200                       TSEG  TJOBNAME,,B         Jobname
                                   17228
 001EE2 4110 610B/4100_      0010B 17229                       TSEG  TPRGRMMR            User name
 001EF4 4110 C4D8/4100_      004D8 17257                       TSEG  CVBLANKS,20-L'TPRGRMMR,B
                                   17287
 001F06 4110 60B1/4100_      000B1 17288                       TSEG  TDSN,33             Filename (fixed part)
 001F18 4110 60D2/4100_      000D2 17318                       SETMSG TDSN+33,L'TDSN-33   Assume continuation of filename
 001F20 9540 1000/4770_00000       17334                       IF    (@R1,EQ,' '),'LA R1,CVBLANKS'
 001F2C 41F0 B050/58E0_      00050 17356                       TSEG  (R1),(R0),B
                                   17380
 001F36 4110 7899/4100_      02701 17381                       TSEG  ' '                 (Reserved for field expansion)
 001F48 4110 60AE/4100_      000AE 17399                       TSEG  TLASTFIL,,B         Number of files
                                   17427
 001F5A 9540 60D2/4770_000D2       17428                       IF    ((TDSN+33,EQ,' '),AND,(TDSN+34.C'0',ONES)),BEGIN
 001F6A 4110 60D3/4100_      000D3 17462  1                      TSEG  TDSN+34,2           Creation time
 001F7C 4110 789A/4100_      02702 17492  1                      TSEG  ':'
 001F8E 4110 60D5/4100_      000D5 17510  1                      TSEG  TDSN+36,2,B
 001FA0                            17540                       END
 001FA0 713C/713C/47F0_01FA0 01F60 17544                       ELSE  'TSEG "??:??",,B'
                                   17580
 001FB6 D504 6077 C4D8_00077 004D8 17581                       IF    (TGENDT,EQ,CVBLANKS),'TSEG "??.???",,B'
 001FD2 716E/47F0 71A4 01FD2 01FBE 17622                       ELSE  BEGIN
 001FD6 4110 6077/4100_      00077 17633  1                      TSEG  TGENDT,2            Creation date
 001FE8 4110 7898/4100_      02700 17663  1                      TSEG  '.'
 001FFA 4110 6079/4100_      00079 17681  1                      TSEG  TGENDT+2,3,B
 00200C                            17711                       END
                                   17715
 00200C D504 60A4 C4D8_000A4 004D8 17716                       IF    (TLUSED,EQ,CVBLANKS),'TSEG "??.???",,B'
 002028 71C4/47F0 71FA 02028 02014 17757                       ELSE  BEGIN
 00202C 4110 60A4/4100_      000A4 17768  1                      TSEG  TLUSED,2            Last accessed date
 00203E 4110 7898/4100_      02700 17798  1                      TSEG  '.'
 002050 4110 60A6/4100_      000A6 17816  1                      TSEG  TLUSED+2,3,B
 002062                            17846                       END
                                   17850
 002062 D504 6081 C4D8_00081 004D8 17851                       IF    (TKEEPDT,EQ,CVBLANKS),'TSEG "??.???",,B'
 00207E 721A/47F0 7250 0207E 0206A 17892                       ELSE  BEGIN
 002082 4110 6081/4100_      00081 17903  1                      TSEG  TKEEPDT,2           Keep date
1TAPE     (TAPE4072) (12:56) (15MAR04) SET/SHOW TAPE Commands                                                               Page   24
0Current Usings:  (TAPEWA,R6) (*,R7) (CP,R11) (CV,R12)
0Loc    Object Code    Addr1 Addr2  Stmt Lv Lineno    Source Statement           (Hibal 5, Asmedit 3.3)  HLASM R4.0  2004/03/15 12.56
+___    ______ ____    _____ _____  ____ __ ______    ______ _________
0002094 4110 7898/4100_      02700 17933  1                      TSEG  '.'
 0020A6 4110 6083/4100_      00083 17951  1                      TSEG  TKEEPDT+2,3,B
 0020B8                            17981                       END
                                   17985
 0020B8 9540 60D7/4770_000D7       17986                       IF    ((TDSN+38,EQ,' '),AND,(TDSN+39.C'0',ONES)),BEGIN
 0020C8 4110 60D8/4100_      000D8 18020  1                      TSEG  TDSN+39,2           Release date [Scratch tape]
 0020DA 4110 7898/4100_      02700 18050  1                      TSEG  '.'
 0020EC 4110 60DA/4100_      000DA 18068  1                      TSEG  TDSN+41,3,B
 0020FE                            18098                       END
 0020FE 729A/729A/47F0_020FE 020BE 18102                       ELSE  'TSEG "00.000",,B'
                                   18138
 002114 D500 6122 C4D8_00122 004D8 18139                       IF    (TINCODE,EQ,CVBLANKS),'TSEG "?",,B'
 002130 72CC/47F0 72DE_02130 0211C 18180                       ELSE  'TSEG TINCODE,,B'   Incode
                                   18224
 002146 D500 6123 C4D8_00123 004D8 18225                       IF    (TOUTCODE,EQ,CVBLANKS),'TSEG "?",,B'
 002162 72FE/47F0 7310_02162 0214E 18266                       ELSE  'TSEG TOUTCODE,,B'  Outcode
                                   18310
 002178 D503 608E C4D8_0008E 004D8 18311                       IF    (TDEN,EQ,CVBLANKS),'TSEG "????",,B'
 002194 7330/47F0 7342_02194 02180 18352                       ELSE  'TSEG TDEN,,B'      Density
                                   18396
 0021AA 1B00                       18397                       CLEAR R0
 0021AC 95C1 60A3/4770_000A3       18401                       IF    (TLAB,EQ,'A'),'SETMSG "AL "'
 0021BC 95D5 60A3/4770_000A3       18427                       IF    (TLAB,EQ,'N'),'SETMSG "NL "'
 0021CC 95E2 60A3/4770_000A3       18453                       IF    (TLAB,EQ,'S'),'SETMSG "SL "'
 0021DC 95C2 60A3/4770_000A3       18479                       IF    (TLAB,EQ,'B'),'SETMSG "BLP"'
 0021EC 9540 60A3/4780_000A3       18505                       IF    ((TLAB,NE,' '),AND,(R0,Z)),'TSEG TLAB; SETMSG "??"'
 002214 1200/4770 73BA_            18572                       IF    (R0,Z),'SETMSG "???"'
 002222 41F0 B050/58E0_      00050 18595                       TSEG  (R1),(R0),B         Label type
                                   18619
 00222C D503 60F3 C4D8_000F3 004D8 18620                       IF    (TLNGTH,EQ,CVBLANKS),'TSEG "????",,B'
 002248 73E4/47F0 73F6_02248 02234 18661                       ELSE  'TSEG TLNGTH,,B'    Length (e.g., 2400 feet)
                                   18705
 00225E D501 609F C4D8_0009F 004D8 18706                       IF    (TVSQ,EQ,CVBLANKS),'TSEG " ?",,B'
 00227A 7416/47F0 7428_0227A 02266 18747                       ELSE  'TSEG TVSQ,,B'      Volume sequence number
                                   18791
 002290 D501 60A1 C4D8_000A1 004D8 18792                       IF    (TVCT,EQ,CVBLANKS),'TSEG " ?",,B'
 0022AC 7448/47F0 745A_022AC 02298 18833                       ELSE  'TSEG TVCT,,B'      Total number of tapes
                                   18877
 0022C2 D502 6074 C4D8_00074 004D8 18878                       IF    (TDRIVE,EQ,CVBLANKS),'TSEG " ???",,B'
 0022DE 747A/47F0 749E 022DE 022CA 18919                       ELSE  BEGIN
 0022E2 4110 7899/4100_      02701 18930  1                      TSEG  ' '                 (Reserved for field expansion)
 0022F4 4110 6074/4100_      00074 18948  1                      TSEG  TDRIVE,,B           Last written unit address
 002306                            18976                       END
                                   18980
 002306 96F0 611C      0011C       18981                       OI    TUSECT+L'TUSECT-1,C'0'  (Force zero)
 00230A 4110 6118/4100_      00118 18982                       TSEG  TUSECT,,B           Use count
                                   19010
 00231C 96F0 6098      00098       19011                       OI    TSIO+L'TSIO-1,C'0'
 002320 4110 6094/4100_      00094 19012                       TSEG  TSIO,,B             Start I/O count
                                   19040
 002332 96F0 609B      0009B       19041                       OI    TERG+L'TERG-1,C'0'
 002336 4110 6099/4100_      00099 19042                       TSEG  TERG,,B             Number of erase gaps
                                   19070
 002348 96F0 6117      00117       19071                       OI    TMAXPWE+L'TMAXPWE-1,C'0'
1TAPE     (TAPE4072) (12:56) (15MAR04) SET/SHOW TAPE Commands                                                               Page   25
0Current Usings:  (TAPEWA,R6) (*,R7) (CP,R11) (CV,R12)
0Loc    Object Code    Addr1 Addr2  Stmt Lv Lineno    Source Statement           (Hibal 5, Asmedit 3.3)  HLASM R4.0  2004/03/15 12.56
+___    ______ ____    _____ _____  ____ __ ______    ______ _________
000234C 4110 6115/4100_      00115 19072                       TSEG  TMAXPWE,,B          Maximum number of write errors
                                   19100
 00235E 96F0 609E      0009E       19101                       OI    TTRE+L'TTRE-1,C'0'
 002362 4110 609C/4100_      0009C 19102                       TSEG  TTRE,,B             Number of temporary read errors
                                   19130
 002374 4110 6133/4100_      00133 19131                       TSEG  TSER                In service flag
                                   19159
 002386 4110 6134/4100_      00134 19160                       TSEG  TSCT                In scratch status flag
                                   19188
 002398 4110 60F0/4100_      000F0 19189                       TSEG  TSLTFLG             Slot flag
                                   19217              *
                                   19218              *        TSEG  TAPEINAT            **OBSOLETE**In ATL flag
 0023AA 4110 7899/4100_      02701 19219                       TSEG  ' '                   Just say Ahhh.
                                   19237
 0023BC 4110 60F1/4100_      000F1 19238                       TSEG  TCHRGFLG,,B         Archive charge flag
                                   19266
 0023CE 4110 60FB/4100_      000FB 19267                       TSEG  TLOCID,,B           Current TLMS location code
                                   19295
 0023E0 D501 6104 C4D8_00104 004D8 19296                       IF    (TPRELOC,EQ,CVBLANKS),'TSEG "??",,B'
 0023FC 7598/47F0 75AA_023FC 023E8 19337                       ELSE  'TSEG TPRELOC,,B'   Previous TLMS location code
                                   19381
 002412 D504 60FD C4D8_000FD 004D8 19382                       IF    (TLOCDATE,EQ,CVBLANKS),'TSEG "??.???",,B'
 00242E 75CA/47F0 7600 0242E 0241A 19423                       ELSE  BEGIN               Date of previous location change
 002432 4110 60FD/4100_      000FD 19434  1                      TSEG  TLOCDATE,2
 002444 4110 7898/4100_      02700 19464  1                      TSEG  '.'
 002456 4110 60FF/4100_      000FF 19482  1                      TSEG  TLOCDATE+2,3,B
 002468                            19512                       END
                                   19516
 002468 9540 60E6/4770_000E6       19517                       IF    (TSLOTNO,EQ,' '),'TSEG "??-?-??",,B'
 002482 761E/47F0 7678 02482 0246E 19557                       ELSE  BEGIN
 002486 4110 60E6/4100_      000E6 19568  1                      TSEG  TSLOTNO,2           Current slot number
 002498 4110 78B7/4100_      0271F 19598  1                      TSEG  '-'
 0024AA 4110 60E8/4100_      000E8 19616  1                      TSEG  TSLOTNO+2,1
 0024BC 4110 78B7/4100_      0271F 19646  1                      TSEG  '-'
 0024CE 4110 60E9/4100_      000E9 19664  1                      TSEG  TSLOTNO+3,2,B
 0024E0                            19694                       END
                                   19698
 0024E0 9540 60DD/4770_000DD       19699                       IF    (TPRVSLOT,EQ,' '),'TSEG "??-?-??",,B'
 0024FA 7696/47F0 76F0 024FA 024E6 19739                       ELSE  BEGIN
 0024FE 4110 60DD/4100_      000DD 19750  1                      TSEG  TPRVSLOT,2          Previous slot number
 002510 4110 78B7/4100_      0271F 19780  1                      TSEG  '-'
 002522 4110 60DF/4100_      000DF 19798  1                      TSEG  TPRVSLOT+2,1
 002534 4110 78B7/4100_      0271F 19828  1                      TSEG  '-'
 002546 4110 60E0/4100_      000E0 19846  1                      TSEG  TPRVSLOT+3,2,B
 002558                            19876                       END
                                   19880
 002558 9540 60EC/4770_000EC       19881                       IF    (TSLTYDDD,EQ,' '),'TSEG "??.???",,B'
 002572 770E/47F0 77E6 02572 0255E 19921                       ELSE  BEGIN               Output last slot change date
 002576 91F0 60EC      000EC       19932  1                      TM    TSLTYDDD,X'F0'      Test for new format dat
 00257A 4780 777C            025E4 19933  1                      IF    NZ,BEGIN            Old format
 00257E 95F9 60FD      000FD       19944  2                        CLI   TLOCDATE,C'9'       Test for >1990
 002582 4750 7730/4110_      02598 19945  2                        IF    GE,'TSEG "9"'       Set decade to 1990
 002598 7734/47F0 7746_02598 02584 19979  2                        ELSE  'TSEG "8"'          Set decade to 1980
 0025AE 4110 60EC/4100_      000EC 20013  2                        TSEG  TSLTYDDD,1          Add the year
1TAPE     (TAPE4072) (12:56) (15MAR04) SET/SHOW TAPE Commands                                                               Page   26
0Current Usings:  (TAPEWA,R6) (*,R7) (CP,R11) (CV,R12)
0Loc    Object Code    Addr1 Addr2  Stmt Lv Lineno    Source Statement           (Hibal 5, Asmedit 3.3)  HLASM R4.0  2004/03/15 12.56
+___    ______ ____    _____ _____  ____ __ ______    ______ _________
00025C0 4110 7898/4100_      02700 20043  2                        TSEG  '.'                 Set separator
 0025D2 4110 60ED/4100_      000ED 20061  2                        TSEG  TSLTYDDD+1,3,B      Add the days
 0025E4 7780/47F0 77E6 025E4 0257C 20091  1                      END   ELSE,BEGIN          Convert new format date
 0025E8 F373 BC88 60EC 00C88 000EC 20106  2                        UNPK  CPDOUB(8),TSLTYDDD  Convert to zoned decimal
 0025EE 96F0 BC88      00C88       20107  2                        OI    CPDOUB,X'F0'          set first zone to x'f0'
 0025F2 D306 BC89 BC88 00C89 00C88 20108  2                        MVZ   CPDOUB+1(7),CPDOUB      insure all valid zone codes
 0025F8 DD07 BC88 77CA 00C88 02632 20109  2                        TRT   CPDOUB,TRTTAB-240         test for valid number
 0025FE 4770 77D0            02638 20110  2                        IF    Z,BEGIN             Valid number
 002602 4110 BC8B/4100_      00C8B 20121  3                          TSEG  CPDOUB+3,2          Set year into message buffer
 002614 4110 7898/4100_      02700 20151  3                          TSEG  '.'                 Set delimeter
 002626 4110 BC8D/4100_      00C8D 20169  3                          TSEG  CPDOUB+5,3,B        Set day into message buffer
 002638 77D4/47F0 77E6 02638 02600 20199  2                        END   ELSE,BEGIN
 00263C 4110 7888/4100_      026F0 20214  3                          TSEG  '??.???',,B         Invalid date from TLMS
 00264E                            20232  2                        END   ,
 00264E                            20236  1                      END   ,
 00264E                            20240                       END
                                   20244
 00264E 9540 60F7/4770_000F7       20245                       IF    (TLOCBOX,EQ,' '),'TSEG "????",,B'
 002668 7804/47F0 7816 02668 02654 20285                       ELSE  BEGIN
 00266C 4110 60F7/4100_      000F7 20296  1                      TSEG  TLOCBOX,,B          TOSS box number
 00267E                            20324                       END
                                   20328
 00267E 9540 6106/4770_00106       20329                       IF    (TPRLOCDT,EQ,' '),'TSEG "??.???",,B'
 002698 7834/47F0 786A 02698 02684 20369                       ELSE  BEGIN
 00269C 4110 6106/4100_      00106 20380  1                      TSEG  TPRLOCDT,2          TOSS date
 0026AE 4110 7898/4100_      02700 20410  1                      TSEG  '.'
 0026C0 4110 6108/4100_      00108 20428  1                      TSEG  TPRLOCDT+2,3,B
 0026D2                            20458                       END
 0026D2 18D8/9808 D004_            20462                       PEND  ,
 DROP   *,R7
 DROP   TAPEWA,R6                  20482                       DROP  R6
                                   20489
                                   20490                       QLTORG
 002722 0000000000000000           20524              TRTTAB   DC    10X'00',6X'01'
1TAPE     (TAPE4072) (12:56) (15MAR04) SET/SHOW TAPE Commands                                                               Page   27
0Current Usings:  (CP,R11) (CV,R12)
0Loc    Object Code    Addr1 Addr2  Stmt Lv Lineno    Source Statement           (Hibal 5, Asmedit 3.3)  HLASM R4.0  2004/03/15 12.56
+___    ______ ____    _____ _____  ____ __ ______    ______ _________
0                                  20526              ¿þþþþþþþþþþþþþþþþþþþþþþþþþþþþþþþþþþþþþþþþþþþþþþþþþþþþþþþþþþþþþþþþþþþþþÜ
                                   20527              Ÿ                                                                     Ÿ
                                   20528              Ÿ  SENDTLMS -- Routine to send communications block (TDSECT) to       Ÿ
                                   20529              Ÿ    TLMS and wait for a response.  TAPEWA addressability is          Ÿ
                                   20530              Ÿ    assumed.                                                         Ÿ
                                   20531              Ÿ                                                                     Ÿ
                                                      ¾þþþþþþþþþþþþþþþþþþþþþþþþþþþþþþþþþþþþþþþþþþþþþþþþþþþþþþþþþþþþþþþþþþþþþ»
0002732 50E0 D000/9008_      00000 20532              SENDTLMS PROC  ,
 USING  *,R7
 00274C 5860 BDDC            00DDC 20571                       L     IOWAR,CPIOWAP
 USING  IOWA,R6                    20572                       USING IOWA
 002750 5850 BCA4            00CA4 20581                       L     R5,CPCWA            TAPEWA ptr
 USING  TAPEWA,R5                  20582                       USING TAPEWA,R5
                                   20591
 002754 4100 00E5            000E5 20592                       LA    R0,L'TAPETDSC       Room for TDSECT
 002758 5900 735C/47B0_      02AA8 20593                       FLOOR R0,256              (At least 256 bytes, for DG)
 002764 BF08 740C            02B58 20612                       ICM   R0,8,=AL1(231)      Set subpool 231 (CSA)
 002768 4510 7020/0A0A       0276C 20613                       GETMAIN R,LV=(0)
 00276E 1841                       20617                       LR    R4,R1
 002770 D2E4 4000 5050 00000 00050 20618                       MVC   @R4(L'TAPETDSC),TAPETDSC
 USING  TDSECT,R4                  20619                       USING TDSECT,R4
                                   20628
 002776 58E0 7360/0DEE       02AAC 20629                       WAITOFF X                 Enter subtask
 00277C 4110 4010            00060 20634                       LA    R1,TECB
 002780 5010 4008            00058 20635                       ST    R1,TECBPNTR         Ecb addr
 002784 D203 400C C718 0005C 00718 20636                       MVC   TASCBPTR,CVASCBP    Set ASCB ptr
 00278A D703 4004 4004_00054 00054 20637                       CLEAR TCODE,TECB
 002796 4100 0002            00002 20649                       LA    R0,2                TLMSQMGR 'put to queue' code
 00279A 4110 4000            00050 20650                       LA    R1,TDSECT
 00279E 0AEE                       20651                       SVC   &SVCTLMS            TLMSQMGR svc
 0027A0 1200/4780 7062_            20652                       IF    (R0,NZ),'LH R15,=H"-1"; B SENDON'  No TLMS
 0027AE 4100 0001/4110_      00001 20673                       WAIT  ECB=TECB            Wait for TLMS
 0027B8 1BFF                       20680                       CLEAR R15                 Assume unknown code
 0027BA 9500 4013/4770_00063       20684                       IF    (TECBCODE,EQ,TECBCOK),'LA R15,4'    Ok
 0027C6 9501 4013/4770_00063       20708                       IF    (TECBCODE,EQ,TECBCVNF),'LA R15,8'   Vol not found
 0027D2 9502 4013/4770_00063       20732                       IF    (TECBCODE,EQ,TECBCVNY),'LA R15,12'  Vol not yours
 0027DE 9504 4013/4770_00063       20756                       IF    (TECBCODE,EQ,TECBCVNX),'LA R15,12'  Vol not yours/mod
 0027EA 9505 4013/4770_00063       20780                       IF    (TECBCODE,EQ,TECBCVNS),'LA R15,16'  Vol not here
 0027F6 9506 4013/4770_00063       20804                       IF    (TECBCODE,EQ,TECBCVNL),'LA R15,20'  Not in Forsythe
 002802 9507 4013/4770_00063       20828                       IF    (TECBCODE,EQ,TECBCVNU),'LA R15,24'  Not in Archives
 00280E 58E0 7364/0DEE       02AB0 20852              SENDON   WAITON X                  Return to mother
 002814 182F                       20857                       LR    R2,R15              Save return code
 DROP   TDSECT,R4                  20858                       DROP  TDSECT
 002816 D2E4 5050 4000 00050 00000 20866                       MVC   TAPETDSC,@R4        Move TDSECT back
 00281C 4100 00E5            000E5 20867                       LA    R0,L'TAPETDSC       Length of TDSECT
 002820 5900 735C/47B0_      02AA8 20868                       FLOOR R0,256              (The same as for GETMAIN)
 00282C BF08 740C            02B58 20887                       ICM   R0,8,=AL1(231)      Set subpool 231 (CSA)
 002830 1800/4110 4000_            20888                       FREEMAIN R,A=(R4),LV=(R0)  Free TDSECT area
                                   20893              *
                                   20894              *  Log updates
                                   20895              *
 002838 95F0 5064/4780_00064       20896                       IF    ((TPARM,NE,TPINQ),AND,(TPARM,NE,TPINQTYP)),BEGIN
 002848 181D/41D0 D0C8             20931  1                      XPUSH ,,200,PTR=R1
1TAPE     (TAPE4072) (12:56) (15MAR04) SET/SHOW TAPE Commands                                                               Page   28
0Current Usings:  (TAPEWA,R5) (IOWA,R6) (*,R7) (CP,R11) (CV,R12)
0Loc    Object Code    Addr1 Addr2  Stmt Lv Lineno    Source Statement           (Hibal 5, Asmedit 3.3)  HLASM R4.0  2004/03/15 12.56
+___    ______ ____    _____ _____  ____ __ ______    ______ _________
000284E D2C7 1000 C4D8 00000 004D8 20934  1                      MVC   @R1(200),CVBLANKS
 002854 18F2                       20935  1                      LR    R15,R2
 002856 59F0 7368/4770_      02AB4 20936  1                      IF    (R15,EQ,4),'CLEAR R15'
 002860 4100 0004/58E0_      00004 20962  1                      BTD   @R1,4,(R15)         Return code
 00286A D603 1000 7370 00000 02ABC 20983  1                      OC    @R1(4),=C'0000'
 002870 D205 1004 506E 00004 0006E 20984  1                      MVC   @R1+4(6),TVSN       Volser
 002876 D2B7 1010 B242 00010 00242 20985  1                      MVC   @R1+16(200-16),CPCMD  User's command
 00287C 4100 0010            00010 20986  1                      LA    R0,16
 002880 4A00 B240            00240 20987  1                      AH    R0,CPCMDLEN
 002884 5900 7374/47D0_      02AC0 20988  1                      CEIL  R0,200
 002890 41F0 732C            02A78 21007  1                      LA    R15,=CL8'TLMS'      Record type
 002894 58E0 7378/0DEE       02AC4 21008  1                      VCALL SMFLOG              Write SMF record
 00289A 4BD0 73D6            02B22 21012  1                      XPOP  ,,200
 00289E                            21014                       END
                                   21018
 00289E 1222/4740 730A             21019                       IF    (R2,NEG),SENDNT     No TLMS
                                   21036
 0028A4 47F2 715C            028A8 21037                       B     *+4(R2)
 0028A8 47F0 7178            028C4 21038                       B     SENDERR             +0:  WYLBUR/TLMS problem
 0028AC 47F0 731C            02A68 21039                       B     SENDEXIT            +4:  Ok
 0028B0 47F0 71E4            02930 21040                       B     SENDNF              +8:  Not found
 0028B4 47F0 721A            02966 21041                       B     SENDNY              +12: Not yours
 0028B8 47F0 7274            029C0 21042                       B     SENDNE              +16: Not here (in library)
 0028BC 47F0 72AA            029F6 21043                       B     SENDNAF             +20: Not at Forsythe
 0028C0 47F0 72DA            02A26 21044                       B     SENDNIA             +24: Not in Archives
                                   21045
 0028C4 4110 740D/4100_      02B59 21046              SENDERR  TSEG  'WYLBUR/TLMS error (CMD='
 0028D6 1FFF/43F0 5064_            21064                       BTX   CPDOUB,2,LC:TPARM
 0028EA 41F0 B050/58E0_      00050 21092                       TSEG  (R1),(R0)
 0028F4 4110 7424/4100_      02B70 21116                       TSEG  ', RC='
 002906 1FFF/43F0 5063_            21134                       BTX   CPDOUB,2,LC:TECBCODE
 00291A 41F0 B050/58E0_      00050 21162                       TSEG  (R1),(R0)
 002924 4110 7429/4100_      02B75 21186                       ERROR ').  Please report to Systems.'
                                   21193
 002930 4110 7384/4100_      02AD0 21194              SENDNF   TSEG  'Tape',,B
 002942 4110 506E/4100_      0006E 21212                       SETMSG TVSN
 00294A 58E0 738C/0DEE       02AD8 21226                       VCALL LRTRIM
 002950 41F0 B050/58E0_      00050 21230                       TSEG  (R1),(R0),B
 00295A 4110 73D8/4100_      02B24 21254                       ERROR 'not found.'
                                   21261
 002966 95F4 5064/4770_00064       21262              SENDNY   IF    (TPARM,EQ,TPLABEL),BEGIN
 00296E 4110 73E2/4100_      02B2E 21281  1                      ABORT 'You can''t print a label from this account.'
 00297A                            21288                       END
                                   21292
 00297A 4110 7384/4100_      02AD0 21293                       TSEG  'Tape',,B
 00298C 4110 506E/4100_      0006E 21311                       SETMSG TVSN
 002994 58E0 738C/0DEE       02AD8 21325                       VCALL LRTRIM
 00299A 41F0 B050/58E0_      00050 21329                       TSEG  (R1),(R0),B
 0029A4 4110 7446/4100_      02B92 21353                       SETMSG 'is not yours to modify.'
 0029AC 9502 5063/4770_00063       21357                       IF    (TECBCODE,EQ,TECBCVNY),'SETMSG "is not yours."'
 0029BC 47F0 C7C8            007C8 21384                       ERROR (R1),(R0)
                                   21397
 0029C0 4110 7390/4100_      02ADC 21398              SENDNE   TSEG  'can''t release.  Tape',,B
 0029D2 4110 506E/4100_      0006E 21416                       SETMSG TVSN
1TAPE     (TAPE4072) (12:56) (15MAR04) SET/SHOW TAPE Commands                                                               Page   29
0Current Usings:  (TAPEWA,R5) (IOWA,R6) (*,R7) (CP,R11) (CV,R12)
0Loc    Object Code    Addr1 Addr2  Stmt Lv Lineno    Source Statement           (Hibal 5, Asmedit 3.3)  HLASM R4.0  2004/03/15 12.56
+___    ______ ____    _____ _____  ____ __ ______    ______ _________
00029DA 58E0 738C/0DEE       02AD8 21430                       VCALL LRTRIM
 0029E0 41F0 B050/58E0_      00050 21434                       TSEG  (R1),(R0),B
 0029EA 4110 7334/4100_      02A80 21458                       ABORT 'is not currently in the library.'
                                   21465
 0029F6 4110 746A/4100_      02BB6 21466              SENDNAF  TSEG  'Tape '
 002A08 4110 506E/4100_      0006E 21484                       TSEG  TVSN,,TB
 002A1A 4110 746F/4100_      02BBB 21512                       ABORT 'is not at Forsythe.  No action taken.'
                                   21519
 002A26 4110 746A/4100_      02BB6 21520              SENDNIA  TSEG  'Tape '
 002A38 4110 506E/4100_      0006E 21538                       TSEG  TVSN,,TB
 002A4A 4110 73A8/4100_      02AF4 21566                       ABORT 'is not in Archive storage.  No action taken.'
                                   21573
 002A56 D207 B886 7354_00886 02AA0 21574              SENDNT   ABORT 'TLMS is not up.',,NOTLMS
                                   21583
 002A68 18D8/9808 D004_            21584              SENDEXIT PEND  ,
 DROP   *,R7
 DROP   TAPEWA,R5                  21605                       DROP  TAPEWA,IOWA
 DROP   IOWA,R6
                                   21620                       AGO   .DONE
 002A78                            21621              .DONE    LTORG
 002A78 E3D3D4E240404040           21623                             =CL8'TLMS'
 002A80 89A2409596A34083           21624                             =C'is not currently in the library.'
 002AA0 D5D6E3D3D4E24040           21625                             =CL8'NOTLMS'
 002AA8 00000100                   21626                             =A(256)
 002AAC 00000000                   21627                             =V(WAITOFF)
 002AB0 00000000                   21628                             =V(WAITON)
 002AB4 00000004                   21629                             =A(4)
 002AB8 00000000                   21630                             =V(BTD)
 002ABC F0F0F0F0                   21631                             =C'0000'
 002AC0 000000C8                   21632                             =A(200)
 002AC4 00000000                   21633                             =V(SMFLOG)
 002AC8 00000000                   21634                             =V(SEG)
 002ACC 00000000                   21635                             =V(BTX)
 002AD0 E3819785                   21636                             =C'Tape'
 002AD4 00000000                   21637                             =V(SEGB)
 002AD8 00000000                   21638                             =V(LRTRIM)
 002ADC 8381957DA3409985           21639                             =C'can''t release.  Tape'
 002AF0 00000000                   21640                             =V(SEGTB)
 002AF4 89A2409596A34089           21641                             =C'is not in Archive storage.  No action taken.'
 002B20 FFFF                       21642                             =H'-1'
 002B22 00C8                       21643                             =Y((200+3)/4*4)
 002B24 9596A3408696A495           21644                             =C'not found.'
 002B2E E896A4408381957D           21645                             =C'You can''t print a label from this account.'
 002B58 E7                         21646                             =AL1(231)
 002B59 E6E8D3C2E4D961E3           21647                             =C'WYLBUR/TLMS error (CMD='
 002B70 6B40D9C37E                 21648                             =C', RC='
 002B75 5D4B4040D7938581           21649                             =C').  Please report to Systems.'
 002B92 89A2409596A340A8           21650                             =C'is not yours to modify.'
 002BA9 89A2409596A340A8           21651                             =C'is not yours.'
 002BB6 E381978540                 21652                             =C'Tape '
 002BBB 89A2409596A34081           21653                             =C'is not at Forsythe.  No action taken.'
 002BE0 E3D3D4E24089A240           21654                             =C'TLMS is not up.'
                                   21658
                                   21659                       VLTORG
1TAPE     (TAPE4072) (12:56) (15MAR04) SET/SHOW TAPE Commands                                                               Page   30
0Current Usings:  (CP,R11) (CV,R12)
0Loc    Object Code    Addr1 Addr2  Stmt Lv Lineno    Source Statement           (Hibal 5, Asmedit 3.3)  HLASM R4.0  2004/03/15 12.56
+___    ______ ____    _____ _____  ____ __ ______    ______ _________
0002BF0                02BF0 02BF0 21667                       END   .

1TAPE     (TAPE4072) (12:56) (15MAR04) Relocation Dictionary                                                                Page   31
-   Pos.Id   Rel.Id   Flags    Address                                                       HLASM R4.0  2004/03/15 12.56
0  00000001 00000001    0C    00000474
   00000001 00000001    0C    0000047C
   00000001 00000001    0C    0000048C
   00000001 00000001    0C    000004A4
   00000001 00000001    0C    00000520
   00000001 00000001    0C    00000548
   00000001 00000001    0C    00000570
   00000001 00000001    0C    00000598
   00000001 00000001    0C    000005C0
   00000001 00000001    0C    000005E8
   00000001 00000001    0C    00000610
   00000001 00000001    0C    00000638
   00000001 00000001    0C    00000660
   00000001 00000001    0C    00000688
   00000001 00000001    0C    000006B0
   00000001 00000001    0C    000006D8
   00000001 00000001    0C    00000700
   00000001 00000001    0C    00000728
   00000001 00000001    0C    00000750
   00000001 00000001    0C    00000778
   00000001 00000001    0C    000007A0
   00000001 00000001    0C    000007C8
   00000001 00000001    0C    000007F0
   00000001 00000001    0C    00000818
   00000001 00000001    0C    00000840
   00000001 00000001    0C    00000868
   00000001 00000001    0C    00000890
   00000001 00000001    0C    000008E0
   00000001 00000001    0C    00000908
   00000001 00000001    0C    00000930
   00000001 00000001    0C    00001BB4
   00000001 00000001    0C    00001BB8
   00000001 00000002    1C    00000464
   00000001 00000003    1C    0000046C
   00000001 00000003    1C    000009D0
   00000001 00000003    1C    000010C8
   00000001 00000004    1C    00000470
   00000001 00000004    1C    000010CC
   00000001 00000005    1C    00000478
   00000001 00000006    1C    00000480
   00000001 00000007    1C    00000484
   00000001 00000008    1C    00000488
   00000001 00000009    1C    00000494
   00000001 00000009    1C    00001108
   00000001 00000009    1C    00001BBC
   00000001 00000009    1C    000026E4
   00000001 00000009    1C    00002AD4
   00000001 0000000A    1C    00000498
   00000001 0000000A    1C    00001BC0
   00000001 0000000A    1C    00002AD8
   00000001 0000000B    1C    0000049C
   00000001 0000000B    1C    0000110C
   00000001 0000000B    1C    00001BB0
   00000001 0000000B    1C    000026E0
   00000001 0000000B    1C    00002AC8
1TAPE     (TAPE4072) (12:56) (15MAR04) Relocation Dictionary                                                                Page   32
   00000001 0000000C    1C    000004A0
   00000001 0000000D    1C    0000051C
   00000001 0000000D    1C    000005BC
   00000001 0000000D    1C    000006FC
   00000001 0000000D    1C    00000724
   00000001 0000000E    1C    00000544
   00000001 0000000E    1C    0000056C
   00000001 0000000E    1C    00000594
   00000001 0000000E    1C    000005E4
   00000001 0000000E    1C    00000774
   00000001 0000000F    1C    0000060C
   00000001 0000000F    1C    00000634
   00000001 0000000F    1C    0000065C
   00000001 0000000F    1C    00000684
   00000001 0000000F    1C    000006AC
   00000001 0000000F    1C    000006D4
   00000001 0000000F    1C    0000074C
   00000001 0000000F    1C    0000079C
   00000001 0000000F    1C    000007C4
   00000001 0000000F    1C    000007EC
   00000001 0000000F    1C    00000814
   00000001 0000000F    1C    0000083C
   00000001 0000000F    1C    00000864
   00000001 0000000F    1C    0000088C
   00000001 0000000F    1C    000008DC
   00000001 0000000F    1C    00000904
   00000001 0000000F    1C    0000092C
   00000001 00000010    1C    000008B8
   00000001 00000011    1C    00000958
   00000001 00000012    1C    00000980
   00000001 00000013    1C    000009A8
   00000001 00000014    1C    000009CC
   00000001 00000015    1C    000010D4
   00000001 00000016    1C    000010DC
   00000001 00000016    1C    00002AB8
   00000001 00000017    1C    000010E0
   00000001 00000018    1C    000010E4
   00000001 00000019    1C    000010E8
   00000001 00000019    1C    00002ACC
   00000001 0000001A    1C    00001BC4
   00000001 0000001B    1C    00001BC8
   00000001 0000001B    1C    00002AF0
   00000001 0000001C    1C    00001BF0
   00000001 0000001D    1C    00001BF4
   00000001 0000001E    1C    00002AAC
   00000001 0000001F    1C    00002AB0
   00000001 00000020    1C    00002AC4

1TAPE     (TAPE4072) (12:56) (15MAR04) Ordinary Symbol and Literal Cross Reference                                          Page   33
-Symbol   Length   Value     Id    R Type   Defn References                                  HLASM R4.0  2004/03/15 12.56
0$$$@R0        1 00000000 FFFFFFFE     J     705  1002
 $$$@R10       1 00000000 FFFFFFF4     J     835  1079
 $$$@R11       1 00000000 FFFFFFF3     J     848  1092
 $$$@R12       1 00000000 FFFFFFF2     J     861  1105
 $$$@R13       1 00000000 FFFFFFF1     J     874  1118
 $$$@R14       1 00000000 FFFFFFF0     J     887  1131
 $$$@R6        1 00000000 FFFFFFF8     J     783  1015
 $$$@R7        1 00000000 FFFFFFF7     J     796  1028
 $$$@R8        1 00000000 FFFFFFF6     J     809  1041   1053
 $$$@R9        1 00000000 FFFFFFF5     J     822  1066
 $$$C1WYLTAPE
               1 000004FA 00000001     J   10449 10451
 $$$C2WYLTAPE
               1 00001293 00000001     J   13390 13392  16407  16438
 $$$C3WYLTAPE
               1 00001E18 00000001     J   16878 16880
 $$$C4WYLTAPE
               1 00002722 00000001     J   20519 20521
 $$$C5WYLTAPE
               1 00002BEF 00000001     J   21655 21657
 $$$C6WYLTAPE
               1 00002BF0 00000001     J   21670 21672
 $$$DVT        4 000008B8 FFFFFFE9     F    7137  7191   7191
 $$$D2WYLTAPE
               1 00001E0C 00000001     J   13391 16396  16427
 $$$RCP        1 00000000 FFFFFFEC     J    2466  4726   6200   6200
 $$$RCV        1 00000000 FFFFFFEE     J    1191  2376   2376
 $$$RDEV       1 00000000 FFFFFFEB     J    4680  4725   4725
 $$$RNSCNCB
               1 00000000 FFFFFFED     J    2387  2460   2460
 $$$RTAPEWA
               1 00000000 FFFFFFE8     J    8963  9172   9172
 $$$RTTPD      1 00000000 FFFFFFE7     J    9178  9205   9205
 $$$RTTYPE
               1 00000000 FFFFFFEA     J    6211  6312   6312
 $$$SEGCB0
               4 00000050 FFFFFFEC     F    2497  2583   2583
 $$$101B       1 00000B2A 00000001     X   11416 11423U
 $$$102        1 00000050 00000001 A   U   11480 11477  11479
 $$$104B       1 00000B68 00000001     X   11507 11514U
 $$$105        1 00000050 00000001 A   U   11571 11568  11570
 $$$107B       1 00000BA8 00000001     X   11598 11605U
 $$$108F       2 00000BC6 00000001     H   11665 11653B
 $$$108T       2 00000BC0 00000001     H   11656 11629B 11642B
 $$$111        1 00000050 00000001 A   U   11714 11711  11713
 $$$113B       1 00000C06 00000001     X   11741 11748U
 $$$114        1 00000050 00000001 A   U   11809 11806  11808
 $$$116B       1 00000C4C 00000001     X   11836 11843U
 $$$117        1 00000050 00000001 A   U   11901 11898  11900
 $$$119B       1 00000C90 00000001     X   11928 11935U
 $$$120        1 00000050 00000001 A   U   11967 11964  11966
 $$$122B       1 00000CBC 00000001     X   11994 12001U
 $$$123        1 00000050 00000001 A   U   12033 12030  12032
 $$$125B       1 00000CE8 00000001     X   12060 12067U
 $$$126        1 00000050 00000001 A   U   12099 12096  12098
1TAPE     (TAPE4072) (12:56) (15MAR04) Ordinary Symbol and Literal Cross Reference                                          Page   34
 $$$128B       1 00000D14 00000001     X   12126 12133U
 $$$129F       2 00000D5C 00000001     H   12237 12152B
 $$$130F       2 00000D46 00000001     H   12202 12189B
 $$$131        1 00000050 00000001 A   U   12264 12261  12263
 $$$133B       1 00000D88 00000001     X   12291 12298U
 $$$134F       2 00000DD0 00000001     H   12402 12317B
 $$$135F       2 00000DBA 00000001     H   12367 12354B
 $$$136        1 00000050 00000001 A   U   12429 12426  12428
 $$$138B       1 00000DFC 00000001     X   12456 12463U
 $$$139        1 00000050 00000001 A   U   12514 12511  12513
 $$$141B       1 00000E42 00000001     X   12541 12548U
 $$$142        1 00000050 00000001 A   U   12599 12596  12598
 $$$144B       1 00000E88 00000001     X   12626 12633U
 $$$145F       2 00000E9C 00000001     H   12667 12652B
 $$$146F       2 00000EC2 00000001     H   12711 12678B
 $$$147        1 00000050 00000001 A   U   12739 12736  12738
 $$$149B       1 00000EF2 00000001     X   12766 12773U
 $$$150F       2 00000F06 00000001     H   12807 12792B
 $$$151F       2 00000F2C 00000001     H   12851 12818B
 $$$152        1 00000050 00000001 A   U   12879 12876  12878
 $$$154B       1 00000F5C 00000001     X   12906 12913U
 $$$155F       2 00000F82 00000001     H   12968 12935B
 $$$156        1 00000050 00000001 A   U   12996 12993  12995
 $$$158B       1 00000FB2 00000001     X   13023 13030U
 $$$159        1 00000050 00000001 A   U   13065 13062  13064
 $$$161B       1 00000FDE 00000001     X   13092 13099U
 $$$162        1 00000050 00000001 A   U   13138 13135  13137
 $$$164B       1 0000100A 00000001     X   13165 13172U
 $$$165        1 00000050 00000001 A   U   13211 13208  13210
 $$$167B       1 00001036 00000001     X   13238 13245U
 $$$168        1 00000050 00000001 A   U   13278 13275  13277
 $$$170B       1 0000106A 00000001     X   13305 13312U
 $$$171        1 00000050 00000001 A   U   13348 13345  13347
 $$$173B       1 000012AE 00000001     X   13423 13430U
 $$$174F       2 000012D0 00000001     H   13492 13455B
 $$$175F       2 000012E2 00000001     H   13519 13506B
 $$$176F       2 000012F8 00000001     H   13547 13533B
 $$$177F       2 00001378 00000001     H   13731 13721B
 $$$178B       4 000013BE 00000001     I   13828 13858
 $$$178F       2 000013D4 00000001     H   13855 13828B 13857
 $$$179E       2 000013D8 00000001     H   13865 13859
 $$$179F       2 000013EC 00000001     H   13891 13861B
 $$$180F       2 0000141E 00000001     H   13962 13908B
 $$$181F       2 0000144C 00000001     H   14041 13977B
 $$$182B       4 00001450 00000001     I   14055 14084
 $$$182F       2 00001466 00000001     H   14081 14055B 14083
 $$$183E       2 0000146A 00000001     H   14091 14085
 $$$183F       2 00001588 00000001     H   14559 14087B
 $$$184F       2 000014BE 00000001     H   14223 14210B
 $$$185F       2 000014CE 00000001     H   14249 14236B
 $$$186F       2 000014DE 00000001     H   14275 14262B
 $$$187F       2 000014EE 00000001     H   14301 14288B
 $$$188F       2 000014FE 00000001     H   14327 14314B
 $$$189F       2 0000153E 00000001     H   14427 14414B
 $$$190F       2 0000154E 00000001     H   14453 14440B
 $$$191F       2 0000155E 00000001     H   14479 14466B
 $$$192F       2 0000156E 00000001     H   14505 14492B
 $$$193F       2 0000157E 00000001     H   14531 14518B
 $$$194F       2 000015DE 00000001     H   14691 14678B
1TAPE     (TAPE4072) (12:56) (15MAR04) Ordinary Symbol and Literal Cross Reference                                          Page   35
 $$$195F       2 000015F0 00000001     H   14717 14704B
 $$$196F       2 00001602 00000001     H   14743 14730B
 $$$197F       2 00001614 00000001     H   14769 14756B
 $$$198F       2 00001626 00000001     H   14795 14782B
 $$$199F       2 00001638 00000001     H   14821 14808B
 $$$200F       2 0000164A 00000001     H   14847 14834B
 $$$201F       2 0000165C 00000001     H   14873 14860B
 $$$202F       2 0000166E 00000001     H   14899 14886B
 $$$203F       2 00001680 00000001     H   14925 14912B
 $$$204F       2 00001692 00000001     H   14951 14938B
 $$$205F       2 000016A4 00000001     H   14977 14964B
 $$$206F       2 000016B6 00000001     H   15003 14990B
 $$$207F       2 000016DA 00000001     H   15067 15041B
 $$$208F       2 0000176C 00000001     H   15288 15136B
 $$$209F       2 0000185A 00000001     H   15598 15302B
 $$$210B       4 000017F6 00000001     I   15476 15521
 $$$210F       2 0000181C 00000001     H   15518 15476B 15520
 $$$211E       2 00001820 00000001     H   15528 15522
 $$$211F       2 00001848 00000001     H   15576 15524B
 $$$212B       4 0000182A 00000001     I   15540 15553
 $$$212F       2 00001832 00000001     H   15550 15540B 15552
 $$$213E       2 00001836 00000001     H   15560 15554
 $$$213F       2 0000183A 00000001     H   15567 15556B
 $$$214F       2 0000187C 00000001     H   15654 15614B 15628B
 $$$216F       2 000018F2 00000001     H   15844 15743B 15758B
 $$$219F       2 00001A54 00000001     H   16311 15927B
 $$$220F       2 00001986 00000001     H   16034 15998B 16011B
 $$$222F       2 00001996 00000001     H   16060 16047B
 $$$223F       2 000019A6 00000001     H   16086 16073B
 $$$224F       2 000019B6 00000001     H   16112 16099B
 $$$225F       2 000019C6 00000001     H   16138 16125B
 $$$226        1 00000050 00000001 A   U   16331 16328  16330
 $$$228B       1 00001A7C 00000001     X   16358 16365U
 $$$229F       2 00001A8A 00000001     H   16412 16388B
 $$$230        6 00001E0C 00000001     I   16402 16394X
 $$$231        6 00001E0C 00000001     I   16401 16402  16402
 $$$232F       2 00001ADE 00000001     H   16579 16419B 16448B
 $$$233        6 00001E12 00000001     I   16433 16425X
 $$$234        6 00001E12 00000001     I   16432 16433  16433
 $$$236F       2 00001AD4 00000001     H   16551 16525B 16538B
 $$$236S       2 00001ABC 00000001     H   16517 16550B
 $$$239        1 00000050 00000001 A   U   16597 16594  16596
 $$$241B       1 00001B06 00000001     X   16624 16631U
 $$$242F       2 00001B4E 00000001     H   16736 16667B 16678B
 $$$244B       4 00001B28 00000001     I   16699 16711
 $$$244F       2 00001B30 00000001     H   16708 16699B 16710
 $$$245E       2 00001B34 00000001     H   16718 16712
 $$$245F       2 00001B38 00000001     H   16724 16714B
 $$$246        1 00000050 00000001 A   U   16781 16778  16780
 $$$248B       1 00001E32 00000001     X   16911 16918U
 $$$249        1 00000050 00000001 A   U   16989 16986  16988
 $$$251B       1 00001E68 00000001     X   17020 17027U
 $$$252B       4 00001E80 00000001     I   17078 17108
 $$$252F       2 00001E96 00000001     H   17105 17078B 17107
 $$$253E       2 00001E9A 00000001     H   17115 17109
 $$$253F       2 00001ED0 00000001     H   17198 17111B
 $$$254F       2 00001F2C 00000001     H   17355 17345B
 $$$255B       4 00001F66 00000001     I   17457 17548
 $$$255F       2 00001FA0 00000001     H   17543 17442B 17457B 17545
1TAPE     (TAPE4072) (12:56) (15MAR04) Ordinary Symbol and Literal Cross Reference                                          Page   36
 $$$256B       4 00001F5E 00000001     I   17442 17546
 $$$258E       2 00001FA4 00000001     H   17555 17547  17549
 $$$258F       2 00001FB6 00000001     H   17579 17551B
 $$$259B       4 00001FBC 00000001     I   17594 17624
 $$$259F       2 00001FD2 00000001     H   17621 17594B 17623
 $$$260E       2 00001FD6 00000001     H   17631 17625
 $$$260F       2 0000200C 00000001     H   17714 17627B
 $$$261B       4 00002012 00000001     I   17729 17759
 $$$261F       2 00002028 00000001     H   17756 17729B 17758
 $$$262E       2 0000202C 00000001     H   17766 17760
 $$$262F       2 00002062 00000001     H   17849 17762B
 $$$263B       4 00002068 00000001     I   17864 17894
 $$$263F       2 0000207E 00000001     H   17891 17864B 17893
 $$$264E       2 00002082 00000001     H   17901 17895
 $$$264F       2 000020B8 00000001     H   17984 17897B
 $$$265B       4 000020C4 00000001     I   18015 18106
 $$$265F       2 000020FE 00000001     H   18101 18000B 18015B 18103
 $$$266B       4 000020BC 00000001     I   18000 18104
 $$$268E       2 00002102 00000001     H   18113 18105  18107
 $$$268F       2 00002114 00000001     H   18137 18109B
 $$$269B       4 0000211A 00000001     I   18152 18182
 $$$269F       2 00002130 00000001     H   18179 18152B 18181
 $$$270E       2 00002134 00000001     H   18189 18183
 $$$270F       2 00002146 00000001     H   18223 18185B
 $$$271B       4 0000214C 00000001     I   18238 18268
 $$$271F       2 00002162 00000001     H   18265 18238B 18267
 $$$272E       2 00002166 00000001     H   18275 18269
 $$$272F       2 00002178 00000001     H   18309 18271B
 $$$273B       4 0000217E 00000001     I   18324 18354
 $$$273F       2 00002194 00000001     H   18351 18324B 18353
 $$$274E       2 00002198 00000001     H   18361 18355
 $$$274F       2 000021AA 00000001     H   18395 18357B
 $$$275F       2 000021BC 00000001     H   18426 18413B
 $$$276F       2 000021CC 00000001     H   18452 18439B
 $$$277F       2 000021DC 00000001     H   18478 18465B
 $$$278F       2 000021EC 00000001     H   18504 18491B
 $$$279F       2 00002214 00000001     H   18571 18519B 18530B
 $$$281F       2 00002222 00000001     H   18594 18581B
 $$$282B       4 00002232 00000001     I   18633 18663
 $$$282F       2 00002248 00000001     H   18660 18633B 18662
 $$$283E       2 0000224C 00000001     H   18670 18664
 $$$283F       2 0000225E 00000001     H   18704 18666B
 $$$284B       4 00002264 00000001     I   18719 18749
 $$$284F       2 0000227A 00000001     H   18746 18719B 18748
 $$$285E       2 0000227E 00000001     H   18756 18750
 $$$285F       2 00002290 00000001     H   18790 18752B
 $$$286B       4 00002296 00000001     I   18805 18835
 $$$286F       2 000022AC 00000001     H   18832 18805B 18834
 $$$287E       2 000022B0 00000001     H   18842 18836
 $$$287F       2 000022C2 00000001     H   18876 18838B
 $$$288B       4 000022C8 00000001     I   18891 18921
 $$$288F       2 000022DE 00000001     H   18918 18891B 18920
 $$$289E       2 000022E2 00000001     H   18928 18922
 $$$289F       2 00002306 00000001     H   18979 18924B
 $$$290B       4 000023E6 00000001     I   19309 19339
 $$$290F       2 000023FC 00000001     H   19336 19309B 19338
 $$$291E       2 00002400 00000001     H   19346 19340
 $$$291F       2 00002412 00000001     H   19380 19342B
 $$$292B       4 00002418 00000001     I   19395 19425
1TAPE     (TAPE4072) (12:56) (15MAR04) Ordinary Symbol and Literal Cross Reference                                          Page   37
 $$$292F       2 0000242E 00000001     H   19422 19395B 19424
 $$$293E       2 00002432 00000001     H   19432 19426
 $$$293F       2 00002468 00000001     H   19515 19428B
 $$$294B       4 0000246C 00000001     I   19529 19559
 $$$294F       2 00002482 00000001     H   19556 19529B 19558
 $$$295E       2 00002486 00000001     H   19566 19560
 $$$295F       2 000024E0 00000001     H   19697 19562B
 $$$296B       4 000024E4 00000001     I   19711 19741
 $$$296F       2 000024FA 00000001     H   19738 19711B 19740
 $$$297E       2 000024FE 00000001     H   19748 19742
 $$$297F       2 00002558 00000001     H   19879 19744B
 $$$298B       4 0000255C 00000001     I   19893 19923
 $$$298F       2 00002572 00000001     H   19920 19893B 19922
 $$$299E       2 00002576 00000001     H   19930 19924
 $$$299F       2 0000264E 00000001     H   20243 19926B
 $$$300B       4 0000257A 00000001     I   19939 20097
 $$$300F       2 000025E4 00000001     H   20094 19939B 20096
 $$$301B       4 00002582 00000001     I   19951 19981
 $$$301F       2 00002598 00000001     H   19978 19951B 19980
 $$$302E       2 0000259C 00000001     H   19988 19982
 $$$302F       2 000025AE 00000001     H   20012 19984B
 $$$303E       2 000025E8 00000001     H   20104 20098
 $$$303F       2 0000264E 00000001     H   20239 20100B
 $$$304B       4 000025FE 00000001     I   20116 20205
 $$$304F       2 00002638 00000001     H   20202 20116B 20204
 $$$305E       2 0000263C 00000001     H   20212 20206
 $$$305F       2 0000264E 00000001     H   20235 20208B
 $$$306B       4 00002652 00000001     I   20257 20287
 $$$306F       2 00002668 00000001     H   20284 20257B 20286
 $$$307E       2 0000266C 00000001     H   20294 20288
 $$$307F       2 0000267E 00000001     H   20327 20290B
 $$$308B       4 00002682 00000001     I   20341 20371
 $$$308F       2 00002698 00000001     H   20368 20341B 20370
 $$$309E       2 0000269C 00000001     H   20378 20372
 $$$309F       2 000026D2 00000001     H   20461 20374B
 $$$310        1 00000050 00000001 A   U   20479 20476  20478
 $$$312B       1 0000274C 00000001     X   20555 20562U
 $$$313F       2 00002764 00000001     H   20611 20602B
 $$$314F       2 000027AE 00000001     H   20672 20661B
 $$$315F       2 000027C6 00000001     H   20707 20697B
 $$$316F       2 000027D2 00000001     H   20731 20721B
 $$$317F       2 000027DE 00000001     H   20755 20745B
 $$$318F       2 000027EA 00000001     H   20779 20769B
 $$$319F       2 000027F6 00000001     H   20803 20793B
 $$$320F       2 00002802 00000001     H   20827 20817B
 $$$321F       2 0000280E 00000001     H   20851 20841B
 $$$322F       2 0000282C 00000001     H   20886 20877B
 $$$323F       2 0000289E 00000001     H   21017 20911B 20926B
 $$$325F       2 00002860 00000001     H   20961 20948B
 $$$326F       2 00002890 00000001     H   21006 20997B
 $$$328F       2 0000297A 00000001     H   21291 21276B
 $$$329F       2 000029BC 00000001     H   21383 21370B
 $$$330        1 00000050 00000001 A   U   21602 21599  21601
 $$$43B        1 00000032 00000001     X    9245  9252U
 $$$44F        2 000000CA 00000001     H    9355  9339B
 $$$45F        2 000000D8 00000001     H    9383  9370B
 $$$46B        4 000000F0 00000001     I    9418  9466
 $$$46F        2 0000014C 00000001     H    9463  9418B  9465
 $$$47E        2 00000150 00000001     H    9473  9467
1TAPE     (TAPE4072) (12:56) (15MAR04) Ordinary Symbol and Literal Cross Reference                                          Page   38
 $$$47F        2 000001A8 00000001     H    9515  9469B
 $$$48F        2 000001C6 00000001     H    9557  9530B  9542B
 $$$50F        2 000001D4 00000001     H    9580  9570B
 $$$52F        2 00000234 00000001     H    9692  9592B
 $$$53F        2 00000206 00000001     H    9643  9633B
 $$$54F        2 00000216 00000001     H    9665  9655B
 $$$55F        2 00000248 00000001     H    9723  9710B
 $$$56F        2 000002AC 00000001     H    9861  9738B
 $$$57F        2 00000260 00000001     H    9764  9754B
 $$$58F        2 000002A8 00000001     H    9856  9843B
 $$$59B        4 000002B0 00000001     I    9873  9885
 $$$59F        2 000002B8 00000001     H    9882  9873B  9884
 $$$60E        2 000002BC 00000001     H    9892  9886
 $$$60F        2 000002C0 00000001     H    9898  9888B
 $$$61F        2 00000412 00000001     H   10375  9913B
 $$$62F        2 000002FC 00000001     H    9991  9929B
 $$$63F        2 000002FC 00000001     H    9987  9978B
 $$$63T        2 000002F6 00000001     H    9981  9951B  9965B
 $$$67F        2 0000030A 00000001     H   10013 10003B
 $$$68F        2 00000318 00000001     H   10035 10025B
 $$$69F        2 00000328 00000001     H   10057 10047B
 $$$70F        2 00000338 00000001     H   10079 10069B
 $$$71F        2 00000348 00000001     H   10101 10091B
 $$$72F        2 00000358 00000001     H   10123 10113B
 $$$73F        2 00000396 00000001     H   10201 10140B
 $$$74F        2 0000037A 00000001     H   10166 10156B
 $$$75F        2 00000386 00000001     H   10187 10177B
 $$$76F        2 000003CA 00000001     H   10281 10220B
 $$$77F        2 000003AE 00000001     H   10246 10236B
 $$$78F        2 000003BA 00000001     H   10267 10257B
 $$$79F        2 00000412 00000001     H   10371 10293B
 $$$80         1 00000188 00000001 A   U   10411 10408  10410
 $$$82B        1 000009EE 00000001     X   10945 10952U
 $$$83F        2 00000A0C 00000001     H   11012 11000B
 $$$83T        2 00000A06 00000001     H   11003 10976B 10989B
 $$$86F        2 00000A32 00000001     H   11067 11052B
 $$$86T        2 00000A26 00000001     H   11055 11028B 11041B
 $$$89         1 00000050 00000001 A   U   11116 11113  11115
 $$$90F        2 00000AC4 00000001     H   11289 11183B
 $$$91B        1 00000A72 00000001     X   11143 11150U
 $$$92F        2 00000A8C 00000001     H   11187 11175B
 $$$93F        2 00000A9C 00000001     H   11211 11198B
 $$$94F        2 00000AB0 00000001     H   11250 11237B
 $$$94T        2 00000AAA 00000001     H   11240 11225B
 $$$96         1 00000050 00000001 A   U   11298 11295  11297
 $$$98B        1 00000AEC 00000001     X   11325 11332U
 $$$99         1 00000050 00000001 A   U   11389 11386  11388
 @RAR          0 00000000 FFFFFFF0     @    1132  2174   2182B
 @R0           0 00000000 FFFFFFFE     @     706   982U
 @R1           0 00000000 FFFFFFFD     @     719   978U  2180   2181  10973  10986  10999  11025  11038  11051  11180
                                                 11626  11639  11652  15546M 15563M 15568M 16537  16544  16973U 17344
                                                 20934M 20983M 20984M 20985M
 @R10          0 00000000 FFFFFFF4     @     836   942U
 @R11          0 00000000 FFFFFFF3     @     849   938U
 @R12          0 00000000 FFFFFFF2     @     862   934U
 @R13          0 00000000 FFFFFFF1     @     875   930U
 @R14          0 00000000 FFFFFFF0     @     888   926U
 @R15          0 00000000 FFFFFFEF     @     901   922U 21073U 21143U
 @R2           0 00000000 FFFFFFFC     @     732   974U  9689U 13819M 13820M 13821
1TAPE     (TAPE4072) (12:56) (15MAR04) Ordinary Symbol and Literal Cross Reference                                          Page   39
 @R3           0 00000000 FFFFFFFB     @     745   970U 16401  16432
 @R4           0 00000000 FFFFFFFA     @     758   966U 20618M 20864U 20866
 @R5           0 00000000 FFFFFFF9     @     771   962U 21611U
 @R6           0 00000000 FFFFFFF8     @     784   958U 20487U 21618U
 @R7           0 00000000 FFFFFFF7     @     797   954U 10400U 11105U 11287U 11378U 11469U 11560U 11703U 11798U 11890U
                                                 11956U 12022U 12088U 12253U 12418U 12503U 12588U 12728U 12868U 12985U
                                                 13054U 13127U 13200U 13267U 13337U 16320U 16586U 16770U 16978U 20468U
                                                 21591U
 @R8           0 00000000 FFFFFFF6     @     810   950U 10395U
 @R9           0 00000000 FFFFFFF5     @     823   946U
 ABSCENT       1 00000000 00000000 A   T    2190  2190
 ACCTPSH       1 00000000 00000012     T   10890 10890
 ACWOPER       1 00000468 FFFFFFE9     X    6686  6682
 ASCTBL        1 00000000 00000000 A   T    2198  2198
 BLDLSZ        1 0000004C FFFFFFE9 A   U    6528  6517
 BLTBL         1 00000000 00000000 A   T    2200  2200
 BR            7 00000007 FFFFFFFF A   #    1022  9240M 10940M 11138M 11320M 11411M 11502M 11593M 11736M 11831M 11923M
                                                 11989M 12055M 12121M 12286M 12451M 12536M 12621M 12761M 12901M 13018M
                                                 13087M 13160M 13233M 13300M 13418M 16353M 16619M 16906M 17015M 20550M
 BTD           1 00000000 00000016     T   13368 13368  21630
 BTX           1 00000000 00000019     T   13371 13371  21635
 CATBLOCK      8 00000988 FFFFFFE9     D    8356  6591   6601   8363   8365   8639
 CATDVTYP      4 0000098A FFFFFFE9     C    8358  8361
 CATNTTR       8 00000A88 FFFFFFE9     U    8363  6599   8364
 CATRSIZE      8 00000109 FFFFFFE9 A   U    8365  8639
 CATVOLID      8 00000A8B FFFFFFE9     U    8364  6600   8365
 CC            1 00000040 FFFFFFE9 A   U    6451  6457   6459   6461   6463   6465   6467   6471   6473   6479   6481
                                                  6483   6485   6487   6497   6499   6505
 CHECKIOB      1 00000000 00000000 A   T    2246  2246
 CNVDATE       1 00000000 00000018     T   13370 13370
 COLLPSH       1 00000000 00000013     T   10905 10905
 COMMAND       1 00000000 00000000 A   T    2186  2186
 COMMSEG       1 00000000 00000000 A   T    2187  2187
 CP         4096 00000000 FFFFFFEC     J    6200  1175U
 CP#XSTK       1 00000010 FFFFFFEC A   U    3932  3933
 CPACFLG       1 000005D5 FFFFFFEC     R    4035  4039   4044   4049   4054   4059
 CPACFLN       4 000005C4 FFFFFFEC     F    4027  4062   4062
 CPAFLAG       1 000005C3 FFFFFFEC     R    3999  4003   4008   4013   4018
 CPANAME       8 00000588 FFFFFFEC     C    3981  4077   4077
 CPAUTFLG      1 000008A9 FFFFFFEC     R    4345  4349   4354   4359   4364
 CPCACCT       5 00000C48 FFFFFFEC     C    5010  9591M  9591   9621
 CPCHFLAG      1 00000B68 FFFFFFEC     R    4972  4976
 CPCMD       235 00000242 FFFFFFEC     C    2825 20985
 CPCMDLEN      2 00000240 FFFFFFEC     H    2824 20987
 CPCMNM        3 00000D24 FFFFFFEC     C    5298  9417   9529
 CPCUSER       3 00000C48 FFFFFFEC     C    5011 11180M
 CPCWA         4 00000CA4 FFFFFFEC     F    5224  9295M 13439  20581
 CPDFLG        1 0000084C FFFFFFEC     R    4232  4236   4241   4246   4251   4256
 CPDFLG2       1 0000084D FFFFFFEC     R    4261  4265   4270   4275   4280   4285   4290
 CPDOUB        8 00000C88 FFFFFFEC     D    5218 15482  16727  20106M 20107M 20108M 20108  20109  20131  20179  21087
                                                 21157
 CPERRID       8 00000886 FFFFFFEC     C    4331 21577M
 CPEXFLG       1 00000758 FFFFFFEC     R    4101  4105
 CPEXFLG2      1 00000759 FFFFFFEC     R    4111  4120   4130
 CPEXFLG3      1 0000075A FFFFFFEC     R    4137  4141   4146
 CPEXTFLG      1 00000E28 FFFFFFEC     R    5783  5787   5792   5797   5802   5807   5812
 CPFABORT    128 00000D5A FFFFFFEC         5549  2150M  2150   2155M  2155
 CPFERROR     64 00000D5A FFFFFFEC         5554  2149M  2149   2154M  2154
 CPFINT       16 00000D58 FFFFFFEC         5519 13505
1TAPE     (TAPE4072) (12:56) (15MAR04) Ordinary Symbol and Literal Cross Reference                                          Page   40
 CPFKWENT      1 00000080 FFFFFFEC A   U    3584  9567
 CPFNTEX       1 00000040 FFFFFFEC A   U    5401  5402
 CPFRDRNG      1 00000D88 FFFFFFEC     R    5669  5673   5678   5683   5688   5693   5698   5703
 CPFRDSRC      1 00000D89 FFFFFFEC     R    5708  5717   5727   5737
 CPFUNUM       1 00000080 FFFFFFEC A   U    5400  5402
 CPFXDFLG      1 000007E4 FFFFFFEC     R    4179  4183   4188
 CPGFLG1       1 00000474 FFFFFFEC     R    3542  3546   3551   3556   3561   3566   3896   3896
 CPGFLG10      1 0000047D FFFFFFEC     R    3779  3783   3788   3793   3798   3803   3808
 CPGFLG11      1 0000047E FFFFFFEC     R    3814  3818   3823
 CPGFLG12      1 0000047F FFFFFFEC     R    3829  3833   3838   3843
 CPGFLG13      1 00000480 FFFFFFEC     R    3849  3853
 CPGFLG14      1 00000481 FFFFFFEC     R    3859  3863   3868   3873   3878   3883
 CPGFLG3       1 00000476 FFFFFFEC     R    3582  9569
 CPGFLG4       1 00000477 FFFFFFEC     R    3595  3606   3615   3624   3633   3642
 CPGFLG5       1 00000478 FFFFFFEC     R    3648  3652   3657   3662   3667   3672   3677   3682   3687
 CPGFLG6       1 00000479 FFFFFFEC     R    3693  3697   3702   3707
 CPGFLG7       1 0000047A FFFFFFEC     R    3713  3717   3722   3727   3732
 CPGFLG8       1 0000047B FFFFFFEC     R    3738  3742   3747   3752   3757
 CPGFLG9       1 0000047C FFFFFFEC     R    3763  3767   3773
 CPINIT        1 00000174 FFFFFFEC     U    2712  6169
 CPIOWAP       4 00000DDC FFFFFFEC     F    5761 20571
 CPJESFLG      1 000009E1 FFFFFFEC     R    4444  4448   4453   4458   4463   4468   4473   4478   4483
 CPJESFLY      1 000009FD FFFFFFEC     R    4494  4498   4503   4508
 CPJESHFL      1 000009E0 FFFFFFEC     R    4429  4433   4438   4517   4517
 CPLFLG10      1 00000D59 FFFFFFEC     R    5535  5539
 CPLFLG11      1 00000D5A FFFFFFEC     R    5545  5549   5554   5559   5564
 CPLFLG12      1 00000D5B FFFFFFEC     R    5570  5574
 CPLFLG14      1 00000D5C FFFFFFEC     R    5580  5584   5589   5594   5599   5604
 CPLFLG6       1 00000D55 FFFFFFEC     R    5410  5414   5419   5424   5429   5434   5439
 CPLFLG7       1 00000D56 FFFFFFEC     R    5445  5449   5454   5459   5464   5469
 CPLFLG8       1 00000D57 FFFFFFEC     R    5475  5479   5484   5489   5494
 CPLFLG9       1 00000D58 FFFFFFEC     R    5500  5504   5509   5514   5519   5524   5529
 CPLOCALZ      1 00000C48 FFFFFFEC     U    5002  6163   6163
 CPMFLG        1 0000084F FFFFFFEC     R    4299  4303
 CPMODFLG      1 00000C78 FFFFFFEC     R    5030  5034   5039   5044   5049   5054
 CPNAMELN      1 00000010 FFFFFFEC A   U    3925  4172
 CPNEDPFX     10 00000E29 FFFFFFEC     X    5816  5817   5818
 CPNSCANP      4 0000008C FFFFFFEC     A    2585  9301   9308   9323   9386   9425   9432   9448   9477   9484   9500
                                                 11076  11161  11531  11674
 CPNUMFLG      1 00000C79 FFFFFFEC     R    5060  5072
 CPORVCMD      1 00000140 FFFFFFEC     R    2594  2598   2603   2608   2613   2618   2623   2628   2633   2638   2638
                                                  2689   2689
 CPORVFLG      1 00000149 FFFFFFEC     R    2645  2649   2654   2659   2664   2669   2674   2679   2684
 CPORVWF       1 00000150 FFFFFFEC     R    2697  2701
 CPOSCANX      4 00000CA8 FFFFFFEC     F    5229  5296   5296
 CPR          11 0000000B FFFFFFFF A   #    1086  1175U
 CPRACBAD     16 000001FC FFFFFFEC         2763  2797   2797   2798   2798
 CPRACF1       1 000001FC FFFFFFEC     R    2744  2748   2753   2758   2763   2768   2773   2778   2783   2799
 CPRACPSW     32 000001FC FFFFFFEC         2758  2796   2796   2798   2798
 CPRACUND     64 000001FC FFFFFFEC         2753  2796   2796   2797   2797
 CPRCVCUR      4 00000730 FFFFFFEC     A    4080  4082   4082
 CPRFLG        1 000008AA FFFFFFEC     R    4370  4374   4379   4384   4389   4394   4399
 CPS         254 00000344 FFFFFFEC     X    3514  3517   3518   3520   3520
 CPSACCT       5 000003B4 FFFFFFEC     C    3113  3276   3276   9290
 CPSAMCOD      1 00000A22 FFFFFFEC     R    4566  4574   4584   4594   4603   4612   4621   4631   4640   4649
 CPSAMFLG      1 00000A21 FFFFFFEC     R    4526  4530   4535   4540   4545   4550   4555   4560   4671   4671
 CPSCNFLG      1 00000CD0 FFFFFFEC     R    5242  5253   5262   5273
 CPSCNF2       1 00000CD1 FFFFFFEC     R    5278  5282
 CPSCNMAX      1 00000014 FFFFFFEC A   U    5294  5295
1TAPE     (TAPE4072) (12:56) (15MAR04) Ordinary Symbol and Literal Cross Reference                                          Page   41
 CPSCRI        2 00000434 FFFFFFEC     H    3503  3508   3508
 CPSEG        60 00000050 FFFFFFEC     X    2583  9782   9824  10316  10358  12170  12222  12335  12387  12485  12570
                                                 12696  12836  12953  13483  13574  13593  13623  13641  13671  13690
                                                 13755  13780  13811  13847  13926  13954  13995  14033  14073  14113
                                                 14143  14161  14189  14347  14365  14393  14551  14581  14611  14629
                                                 14657  15023  15059  15088  15119  15154  15184  15202  15232  15250
                                                 15280  15320  15350  15368  15398  15416  15446  15464  15510  15590
                                                 15646  15675  15706  15724  15788  15806  15836  15861  15883  15911
                                                 15957  15975  16158  16303  16473  16491  16571  16759  16962  17059
                                                 17097  17142  17160  17190  17223  17252  17282  17313  17375  17394
                                                 17422  17487  17505  17535  17571  17613  17658  17676  17706  17748
                                                 17793  17811  17841  17883  17928  17946  17976  18045  18063  18093
                                                 18129  18171  18215  18257  18301  18343  18387  18559  18614  18652
                                                 18696  18738  18782  18824  18868  18910  18943  18971  19005  19035
                                                 19065  19095  19125  19154  19183  19212  19232  19261  19290  19328
                                                 19372  19414  19459  19477  19507  19548  19593  19611  19641  19659
                                                 19689  19730  19775  19793  19823  19841  19871  19912  19970  20004
                                                 20038  20056  20086  20146  20164  20194  20227  20276  20319  20360
                                                 20405  20423  20453  21059  21111  21129  21181  21207  21249  21306
                                                 21348  21411  21453  21479  21507  21533  21561
 CPSEGCOD      1 00000050 FFFFFFEC     R    2500  2509   2519   2529   2539   2549   2559   2569
 CPSFL         1 00000384 FFFFFFEC     R    2851  2855   2860   2865   2870   2875
 CPSFLG        1 000003F8 FFFFFFEC     R    3391  3395   3400   3405   3410   3415   3420   3425   3430
 CPSFLG2       1 000003F9 FFFFFFEC     R    3436  3440   3445   3450
 CPSFL2        1 00000385 FFFFFFEC     R    2881  2885   2890   2895   2900
 CPSFL3        1 00000386 FFFFFFEC     R    2906  2910   2915   2920
 CPSFL4        1 00000387 FFFFFFEC     R    2926  2930   2935   2940
 CPSFL5        1 00000388 FFFFFFEC     R    2946  2950   2955   2960
 CPSGRP        2 000003B7 FFFFFFEC     C    3115  9661
 CPSKAFL       1 000003BF FFFFFFEC     R    3247  3251   3256   3261   3266   3271
 CPSKIFL       1 000003BE FFFFFFEC     R    3202  3206   3211   3216   3221   3226   3231   3236   3241   9292
 CPSOF         1 000001F8 FFFFFFEC     X    2734  2736   2736
 CPSOFLAG      1 00000416 FFFFFFEC     R    3461  3465   3470   3475   3480   3485
 CPSOPST       4 000003C4 FFFFFFEC     F    3281  3510   3510
 CPSPORT       8 00000354 FFFFFFEC     C    2845  2965   2965
 CPSPROJ       8 000003F0 FFFFFFEC     C    3387  9291
 CPSQFLG       1 000003EC FFFFFFEC     R    3310  3314
 CPSSFLG       1 000003BB FFFFFFEC     R    3120  3124   3129   3134   3139   3144   3149
 CPSSTART      4 00000344 FFFFFFEC     F    2837  2841   2841   3277   3277   3382   3382   3514   3514
 CPSSTAT       1 0000038F FFFFFFEC     R    3057  3061   3066   3071   3076   3081   3086   3091
 CPSTACF       1 000003BC FFFFFFEC     R    3155  3159   3164   3169   3174   3179   3184   3189   3194
 CPSTART       4 00000000 FFFFFFEC     C    2473  6167   6171
 CPSTFLAG      1 000003EA FFFFFFEC     R    3288  3292   3297   3302
 CPSTYPE       1 0000038C FFFFFFEC     R    2970  2979   2989   2999   3009   3019   3029   3039   3049
 CPSUFLG       1 000003EE FFFFFFEC     R    3325  3329   3334   3339   3344   3349   3354   3359   3364
 CPSUFLG2      1 000003EF FFFFFFEC     R    3370  3374   3379
 CPSUSER       3 000003B4 FFFFFFEC     C    3114  9639
 CPSVPGM       8 0000039C FFFFFFEC     C    3103  3109   3109
 CPS1ST        4 0000038C FFFFFFEC     F    2967  3512   3512
 CPTEMPP#      1 0000005F FFFFFFEC A   U    4420  4422
 CPTRMFL1      1 00000C7A FFFFFFEC     R    5078  5082   5087   5092   5216   5216
 CPTRMFL2      1 00000C7B FFFFFFEC     R    5098  5102   5107   5112   5117   5122   5127
 CPTRMFL3      1 00000C7C FFFFFFEC     R    5133  5137   5142   5147   5152   5157   5162   5167
 CPTRMFL4      1 00000C7D FFFFFFEC     R    5173  5177   5182   5187   5192   5197   5202   5207
 CPUSED        1 00000FBC FFFFFFEC A   U    6167  6168
 CPUSERSV      3 000001B8 FFFFFFEC     C    2719  9576
 CPVACURS      8 00000AF0 FFFFFFEC     D    4945  4946   4947
 CPVCURS       8 00000AE0 FFFFFFEC     D    4939  4940   4941
 CPVFLAG       1 00000AC8 FFFFFFEC     R    4740  4744   4749   4754   4759   4764
1TAPE     (TAPE4072) (12:56) (15MAR04) Ordinary Symbol and Literal Cross Reference                                          Page   42
 CPVFLAG2      1 00000AC9 FFFFFFEC     R    4770  4774   4779   4784   4789   4794   4799
 CPVFLAG3      1 00000ACA FFFFFFEC     R    4805  4809   4814   4819   4824   4829   4834
 CPVFLAG4      1 00000ACB FFFFFFEC     R    4840  4844   4849   4854
 CPVLFLAG      1 00000ACE FFFFFFEC     R    4909  4913   4918   4923
 CPVMODE       1 00000ACC FFFFFFEC     R    4862  4866   4871   4876   4881   4886   4891   4896   4901
 CPVTWID       2 00000AD0 FFFFFFEC     H    4929  4932   4932
 CPWK1         4 00000D60 FFFFFFEC     F    5613  5628   5651
 CPWK2         4 00000D64 FFFFFFEC     F    5614  5629   5643
 CPWK3         4 00000D68 FFFFFFEC     F    5615  5630   5644
 CPWK4         4 00000D6C FFFFFFEC     F    5616  5631   5645
 CPWK5         4 00000D70 FFFFFFEC     F    5617  5633   5638   5646
 CPWK6         4 00000D74 FFFFFFEC     F    5618  5634   5639   5647   5654   5656
 CPWK7         4 00000D78 FFFFFFEC     F    5619  5632   5648
 CPXFLAG       1 000007FD FFFFFFEC     R    4207  4211
 CPXSTATE      4 000007F8 FFFFFFEC     F    4201  4214   4214
 CV         4016 00000000 FFFFFFEE     J    2376  1184U
 CVABSRTN      4 0000088C FFFFFFEE     V    2190  2165
 CVABTMSG      4 000007CC FFFFFFEE     I    2150 13260B 21287B 21464B 21518B 21572B 21582B
 CVASCBP       4 00000718 FFFFFFEE     A    2075 20636
 CVBLANKS    235 000004D8 FFFFFFEE     C    1970  9293   9294  13796  13907  13976  14128  14596  15104  15691  15942
                                                 16401  17077  17267  17351  17593  17728  17863  18151  18237  18323
                                                 18632  18718  18804  18890  19308  19394  20934
 CVBRMSK       1 00000751 FFFFFFEE     X    2106  2107   2108
 CVCFLAG       1 00000A00 FFFFFFEE     R    2271  2275   2280   2285   2290   2295
 CVCHKST       8 000009F0 FFFFFFEE     D    2261  2351   2351
 CVCHKST2      8 00000E28 FFFFFFEE     D    2354  2357   2357
 CVCOMRTN      4 0000087C FFFFFFEE     V    2186  2156
 CVDBGFLG      1 000004CC FFFFFFEE     R    1960  1964
 CVENT         4 0000074C FFFFFFEE     I    2104  9240B 10940B 11138B 11320B 11411B 11502B 11593B 11736B 11831B 11923B
                                                 11989B 12055B 12121B 12286B 12451B 12536B 12621B 12761B 12901B 13018B
                                                 13087B 13160B 13233B 13300B 13418B 16353B 16619B 16906B 17015B 20550B
 CVENTBR       2 00000750 FFFFFFEE     I    2105  2106
 CVERRMSG      4 000007C8 FFFFFFEE     I    2149  9351B  9553B 11063B 12233B 12398B 12496B 12581B 12663B 12707B 12803B
                                                 12847B 12964B 21192B 21260B 21396B
 CVERROR       4 000007D6 FFFFFFEE     I    2154  2170B
 CVEXIRTN      4 0000077C FFFFFFEE     V    2134  2130
 CVFCHRKBPR
               8 000004C9 FFFFFFEE         1875  1891   1891
 CVFCHRKBSE
               4 000004C9 FFFFFFEE         1880  1891   1891
 CVFCHRKCPR
               2 000004C9 FFFFFFEE         1897  1913   1913
 CVFCHRKCSE
               1 000004C9 FFFFFFEE         1902  1913   1913
 CVFCHRUBPR
             128 000004C9 FFFFFFEE         1831  1847   1847
 CVFCHRUBSE
              64 000004C9 FFFFFFEE         1836  1847   1847
 CVFCHRUCPR
              32 000004C9 FFFFFFEE         1853  1869   1869
 CVFCHRUCSE
              16 000004C9 FFFFFFEE         1858  1869   1869
 CVFL          1 000004C4 FFFFFFEE     R    1627  1631   1636   1641   1646   1651   1656   1661   1666
 CVFL2         1 000004C5 FFFFFFEE     R    1672  1676   1681   1686   1691   1696   1701   1706   1711
 CVFL3         1 000004C6 FFFFFFEE     R    1717  1721   1726   1731   1736   1741   1746   1751   1756
 CVFL4         1 000004C7 FFFFFFEE     R    1762  1766   1771   1776   1781   1786   1791   1796
 CVFL5         1 000004C8 FFFFFFEE     R    1802  1806   1811   1816   1821
 CVFL6         1 000004C9 FFFFFFEE     R    1827  1831   1836   1848   1853   1858   1870   1875   1880   1892   1897
                                                  1902   1914
1TAPE     (TAPE4072) (12:56) (15MAR04) Ordinary Symbol and Literal Cross Reference                                          Page   43
 CVHEAP#       1 00000200 FFFFFFEE A   U    1533  1534
 CVINVRTN      4 00000888 FFFFFFEE     V    2189  2159
 CVJESFLG      1 000004CA FFFFFFEE     R    1920  1924
 CVLNKRGS      4 00000780 FFFFFFEE     F    2136  2111M  2137
 CVLNKRTN      4 000007B0 FFFFFFEE     U    2137  2126M
 CVLOCK1       1 00000088 FFFFFFEE     R    1278  1282   1287
 CVLOCK2       1 00000089 FFFFFFEE     R    1292  1296
 CVLOCK3       1 0000008A FFFFFFEE     R    1301  1305
 CVLOCK4       1 0000008B FFFFFFEE     R    1310  1314
 CVLOGMOD      1 00000068 FFFFFFEE     R    1265  1269
 CVMACH        1 00000067 FFFFFFEE     R    1225  1229   1234   1239   1244   1249   1254   1259
 CVMILRTN      4 00000884 FFFFFFEE     V    2188  2168
 CVNEXT        4 000007DE FFFFFFEE     I    2156 10388B
 CVNOARTN      4 00000890 FFFFFFEE     V    2191  2162
 CVNWDATE      4 00000608 FFFFFFEE     F    1993  1997   1997
 CVNWMPG#      1 00000008 FFFFFFEE A   U    1995  1996
 CVNXTMSG      4 000007D0 FFFFFFEE     I    2151  9857B 10367B
 CVPFXRTN      1 00000000 00000000 A   T    2134  2134
 CVPGFLAG      1 00000A01 FFFFFFEE     R    2301  2305   2310   2315
 CVPIOSZ       1 00004F80 FFFFFFEE A   U    1364  1366
 CVPPDBQH      4 0000009C FFFFFFEE     A    1322  1323
 CVPSFNO       1 000003E9 FFFFFFEE A   N    1486  1488
 CVPSLNO       1 000007CF FFFFFFEE A   N    1487  1488
 CVPXSZ        1 00000008 FFFFFFEE A   U    1365  1366
 CVR          12 0000000C FFFFFFFF A   #    1099  1184U
 CVRKEY        1 00000008 FFFFFFEE A   U    2059  2060
 CVSEGRTN      4 00000880 FFFFFFEE     V    2187  2151
 CVSTACK#      1 00000080 FFFFFFEE A   U    1525  1526
 CVSTART       4 00000000 FFFFFFEE     C    1198  2369
 CVTRC         4 00000768 FFFFFFEE     I    2126  2112B
 CVTRCRTN      4 00000778 FFFFFFEE     V    2133  2127
 CVUSFNO       1 00000001 FFFFFFEE A   N    1493  1495
 CVUSLNO       1 000003E7 FFFFFFEE A   N    1494  1495
 CVVOL#        1 00000005 FFFFFFEE A   U    2344  2345
 CVWTOFLG      1 000004CB FFFFFFEE     R    1930  1934   1939   1944   1949   1954
 DATE          1 00000000 0000001C     T   16810 16810
 DBUF          8 00000720 FFFFFFE9     D    6986  6507   6559   6992
 DCB           4 00000498 FFFFFFE9     F    6723  6558   6647
 DEBUGSG       1 00000000 00000000 A   T    2087  2087
 DECB          4 0000037C FFFFFFE9     F    6554  6362
 DEV          12 00000000 FFFFFFEB     J    4725  4733
 DEVMAX#       1 00000002 FFFFFFEC A   U    4676  4733
 DEVTYPE       1 00000001 FFFFFFEB     R    4693  4702   4712
 DISPTYPE      2 00001E18 00000001     H   16892 16802
 DOPEN         1 00000000 00000007     T   10433 10433
 DOTTBL        1 00000000 00000000 A   T    2203  2203
 DRENCFLG      1 00000F9F FFFFFFEC     R    6131  6135   6140   6145   6150   6155
 DRENPROT      1 00000F9E FFFFFFEC     R    6118  6126
 DSN           1 0000029C FFFFFFE9     X    6512  6610
 DSNAME       44 00000270 FFFFFFE9     C    6511  6471   6479   6568   6579   6589   6630   6640   6683
 DSNFSIMP      1 000000FF FFFFFFEC A   U    5880  9694
 DSNON        40 00000E90 FFFFFFEC     C    5851  5852
 DSNWADSN     44 00000E5C FFFFFFEC     C    5838  5839   5840   5841   5850   5858   6089   6095   6097   6103   6106
                                                  6108   6111   6160
 DSNWAF2       1 00000F35 FFFFFFEC     R    5878  9694M
 DSNWAF4       1 00000F37 FFFFFFEC     R    5906  5910   5915   5920   5925   5930   5935   5940   5945
 DSNWAF5       1 00000F38 FFFFFFEC     R    5951  5955   5960   5965   5970   5975   5980   5985   5990
 DSNWAF6       1 00000F39 FFFFFFEC     R    5996  6000   6005   6010   6015   6020   6025   6030   6035
 DSNWAF7       1 00000F3A FFFFFFEC     R    6041  6045   6050   6055   6060
1TAPE     (TAPE4072) (12:56) (15MAR04) Ordinary Symbol and Literal Cross Reference                                          Page   44
 DSNXG         1 00000004 FFFFFFEC A   U    5843  5845
 DSNXGL        1 00000003 FFFFFFEC A   U    5844  5845
 DSNXU         1 00000007 FFFFFFEC A   U    5845  5847
 DSNXUL        1 00000004 FFFFFFEC A   U    5846  5847
 DSSIZ         1 00000108 FFFFFFEC A   U    6089  6097   6106   6111
 DSVID         6 0000034E FFFFFFE9     C    6535  6569   6611   6621   6660
 DS1DSNAM     44 00000998 FFFFFFE9     C    8372  6489   6489   6501   6501
 DS1END        1 00000A24 FFFFFFE9     U    8583  6489   6501   8585
 DS1FMTID      1 000009C4 FFFFFFE9     C    8373  6570   6684   8585
 DS1IND01      1 00000001 FFFFFFE9 A   U    8532  8533
 DS1IND02      1 00000002 FFFFFFE9 A   U    8528  8531
 DS1IND04      1 00000004 FFFFFFE9 A   U    8521  8527
 DS1IND10      1 00000010 FFFFFFE9 A   U    8516  8519
 DS1IND40      1 00000040 FFFFFFE9 A   U    8512  8513
 DS1PTRDS      5 00000A1F FFFFFFE9     X    8581  6620
 DS1SIZE       1 00000060 FFFFFFE9 A   U    8585  8654
 DS1SYSCD     13 000009D6 FFFFFFE9     C    8391  8586
 DS4DEVSZ      4 00000732 FFFFFFE9     X    7048  7049
 DS4VTOCE     10 0000075D FFFFFFE9     X    7104  7125
 DS5AVEXT      5 0000099C FFFFFFE9     X    8619  8630
 DS5EXTAV     35 000009A1 FFFFFFE9     X    8624  8630
 DTB           1 00000000 00000015     T   13366 13366
 DVTDEVCD      4 000008B8 FFFFFFE9     F    7138  7140   7144   7153
 EBCTBL        1 00000000 00000000 A   T    2199  2199
 EBCTBL7       1 00000000 00000000 A   T    2202  2202
 ECBLIST       1 00000000 00000000 A   T    2062  2062
 ENDCCW        8 00000238 FFFFFFE9     W    6492  6481   6541   6542
 ENDCCW1       8 00000208 FFFFFFE9     W    6479  6467
 ENDCCW2       8 00000220 FFFFFFE9     W    6485  6487
 ENDTEST       5 000008B0 FFFFFFE9     X    7134  6463   6485
 EPARTBL       1 00000000 00000000 A   T    2194  2194
 ERROR         4 0000036C FFFFFFE9     F    6545  6546
 EXLST         4 0000018C FFFFFFE9     F    6413  6781
 EXTCLOSE      1 00000000 0000000C     T   10440 10440
 FLAGS         5 0000016B FFFFFFE9     C    6390  6391   6392   6393   6394   6395
 FSR           0 00000000 FFFFFFFF A   #     996  9234  10408M 10935  11113M 11133  11295M 11315  11386M 11406  11477M
                                                 11497  11568M 11588  11711M 11731  11806M 11826  11898M 11918  11964M
                                                 11984  12030M 12050  12096M 12116  12261M 12281  12426M 12446  12511M
                                                 12531  12596M 12616  12736M 12756  12876M 12896  12993M 13013  13062M
                                                 13082  13135M 13155  13208M 13228  13275M 13295  13345M 13413  16328M
                                                 16348  16594M 16614  16778M 16901  16986M 17010  20476M 20545  21599M
 GETKWR        1 00000000 00000006     T   10432 10432
 HIBAL         1 00000000 FFFFFFFF     J     691   707    720    733    746    759    772    785    798    811    824
                                                   837    850    863    876    889    902   1004   1017   1030   1043
                                                  1055   1068   1081   1094   1107   1120   1133
 ICHELST       4 00000DE8 FFFFFFE9     F    8711  8809   8809
 ICHSETP       2 00000E10 FFFFFFE9     H    8763  8757
 ICHSETPD      2 00000E24 FFFFFFE9     H    8787  8760
 ID            8 000001D8 FFFFFFE9     W    6463  6461   6473   6539
 IECSDSL1      1 00000998 FFFFFFE9     U    8370  8371   8592   8613
 IECSDSL3      1 00000998 FFFFFFE9     U    8595  6622   8596
 IECSDSL4      1 00000720 FFFFFFE9     U    6995  6996
 IECSDSL5      1 00000998 FFFFFFE9     U    8616  8617
 IHB1146C      1 00000E04 FFFFFFE9     U    8742  8729
 IHB1209C      1 00000E04 FFFFFFE9     U    8843  8830
 IHB1238C      1 00000E04 FFFFFFE9     U    8889  8876
 IHB1267C      1 00000E04 FFFFFFE9     U    8935  8922
 INTPSH        1 00000000 00000011     T   10875 10875
 INVALID       1 00000000 00000000 A   T    2189  2189
1TAPE     (TAPE4072) (12:56) (15MAR04) Ordinary Symbol and Literal Cross Reference                                          Page   45
 IOBCSW        4 000001A0 FFFFFFE9     F    6424  6425   6426   6427
 IOWA          1 00000000 FFFFFFE9     J    6318 20579U
 IOWAR         6 00000006 FFFFFFFF A   #    1009 20571M 20579U
 IWAFLAGS      1 00000014 FFFFFFE9     R    6343  6347   6352   6357
 JFCB          8 000008D8 FFFFFFE9     D    7199  6417
 JFCBLGTH      1 000000B0 FFFFFFE9 A   U    8350  8645
 JFCRESRV      4 00000944 FFFFFFE9     B    8159  8196
 KEY           8 000001F0 FFFFFFE9     W    6471  6465
 KWR         504 00000524 FFFFFFE9     X    6977  9599   9609U  9619M  9619   9620M  9620   9666   9682M  9682   9683M
                                                  9683
 KWRDSTRT      1 00000529 FFFFFFE9     U    6801  6963   6963
 KWRGRP        2 00000527 FFFFFFE9     C    6798  9654M  9654   9661M
 KWRSTART      4 00000524 FFFFFFE9     F    6796  6977   6977   6978
 KWRUSER       3 00000524 FFFFFFE9     C    6797  6799   6799   9621M  9632M  9632   9639M  9675
 LOWTBL        1 00000000 00000000 A   T    2197  2197
 LRTRIM        1 00000000 0000000A     T   10438 10438  16804  21638
 LSR           8 00000008 FFFFFFFF A   #    1047  9234  10408M 10935  11113M 11133  11295M 11315  11386M 11406  11477M
                                                 11497  11568M 11588  11711M 11731  11806M 11826  11898M 11918  11964M
                                                 11984  12030M 12050  12096M 12116  12261M 12281  12426M 12446  12511M
                                                 12531  12596M 12616  12736M 12756  12876M 12896  12993M 13013  13062M
                                                 13082  13135M 13155  13208M 13228  13275M 13295  13345M 13413  16328M
                                                 16348  16594M 16614  16778M 16901  16986M 17010  20476M 20545  21599M
 MALL          1 00000000 00000014     T   10919 10919
 MEMBER        8 000002F8 FFFFFFE9     C    6518  6523   6528
 MILERR        1 00000000 00000000 A   T    2188  2188
 MPARM         1 00000000 0000000D     T   10468 10468  10528  10648  10663
 MPINT         1 00000000 0000000E     T   10483 10483  10498  10513  10543  10693
 MT            1 00000080 FFFFFFE9 A   U    6436  6463   6471   6475   6505
 MTOKEN        1 00000000 0000000F     T   10558 10558  10573  10588  10603  10618  10633  10678  10708  10723  10738
                                                 10753  10768  10783  10798  10829  10844  10859
 NBLTBL        1 00000000 00000000 A   T    2201  2201
 NEWDSNAM     44 000002C8 FFFFFFE9     C    6513  6641
 NOACTION      1 00000000 00000000 A   T    2191  2191
 NOPIC         1 00000003 FFFFFFE9 A   U    6449  6483   6492
 NOTVALID      1 00000000 00000003     T   10427 10427  10920  13363
 NPARTBL       1 00000000 00000000 A   T    2195  2195
 NSCAN         1 00000000 00000002     T   10425 10425
 NSCNCB      176 00000000 FFFFFFED     J    2460  2586   9309   9310   9311   9314M  9315M  9316M  9326M  9327M  9328M
                                                  9433   9434   9435   9438M  9439M  9441M  9451M  9452M  9453M  9485
                                                  9486   9487   9490M  9491M  9493M  9503M  9504M  9505M 11162
 NSCNFLGS      1 00000008 FFFFFFED     R    2397  2401   2406
 NSCNKWS       4 00000028 FFFFFFED     A    2446  9309   9316M  9326M  9433   9441M  9451M  9485   9493M  9503M
 NSCNSKIP      4 00000024 FFFFFFED     A    2445  9310   9314M  9327M  9434   9438M  9452M  9486   9490M  9504M
 NSCNSTOP      4 00000020 FFFFFFED     A    2444  9311   9315M  9328M  9435   9439M  9453M  9487   9491M  9505M
 NSCNTOK      16 00000030 FFFFFFED     C    2448 11162
 NSCNTYPE      1 00000018 FFFFFFED     R    2415  2419   2424   2429   2434   2439
 NTGDOPN       1 00000000 00000008     T   10434 10434
 PDSREAD       8 00000258 FFFFFFE9     W    6505  6540
 QUIETPSH      1 00000000 00000010     T   10814 10814
 RACFID        1 00000DA8 FFFFFFE9     X    8660  8675   8726
 RACFPDAT      3 00000DB8 FFFFFFE9     X    8662  8808
 RACFPSWD      1 00000DAF FFFFFFE9     X    8661  8676   8784
 RACINIT       4 00000DE8 FFFFFFE9     F    8669  8688   8689   8709   8810   8856   8902
 RAR          14 0000000E FFFFFFFF A   #    1125  2126   2127M  2128B  2130M  2131B  2151M  2152B  2156M  2157B  2159M
                                                  2160B  2162M  2163B  2165M  2166B  2168M  2169M  2169B  2175   9231
                                                  9319M  9320M  9320B  9378M  9379M  9379B  9403M  9404M  9404B  9444M
                                                  9445M  9445B  9458M  9459M  9459B  9496M  9497M  9497B  9510M  9511M
                                                  9511B  9673M  9674M  9674B  9702M  9703M  9703B  9718M  9719M  9719B
                                                  9767M  9768M  9768B  9785M  9786M  9786B  9803M  9804M  9804B  9827M
1TAPE     (TAPE4072) (12:56) (15MAR04) Ordinary Symbol and Literal Cross Reference                                          Page   46
                                                  9828M  9828B  9901M  9902M  9902B 10127M 10128M 10128B 10190M 10191M
                                                 10191B 10196M 10197M 10197B 10270M 10271M 10271B 10276M 10277M 10277B
                                                 10301M 10302M 10302B 10319M 10320M 10320B 10337M 10338M 10338B 10361M
                                                 10362M 10362B 10379M 10380M 10380B 10386M 10387M 10387B 10410M 10413B
                                                 10932  11007M 11008M 11008B 11093M 11094M 11094B 11115M 11118B 11130
                                                 11190M 11191M 11191B 11206M 11207M 11207B 11245M 11246M 11246B 11275M
                                                 11276M 11276B 11297M 11300B 11312  11366M 11367M 11367B 11388M 11391B
                                                 11403  11457M 11458M 11458B 11479M 11482B 11494  11548M 11549M 11549B
                                                 11570M 11573B 11585  11660M 11661M 11661B 11691M 11692M 11692B 11713M
                                                 11716B 11728  11765M 11766M 11766B 11786M 11787M 11787B 11808M 11811B
                                                 11823  11877M 11878M 11878B 11900M 11903B 11915  11966M 11969B 11981
                                                 12032M 12035B 12047  12098M 12101B 12113  12173M 12174M 12174B 12225M
                                                 12226M 12226B 12263M 12266B 12278  12338M 12339M 12339B 12390M 12391M
                                                 12391B 12428M 12431B 12443  12488M 12489M 12489B 12513M 12516B 12528
                                                 12573M 12574M 12574B 12598M 12601B 12613  12699M 12700M 12700B 12738M
                                                 12741B 12753  12839M 12840M 12840B 12878M 12881B 12893  12956M 12957M
                                                 12957B 12995M 12998B 13010  13064M 13067B 13079  13137M 13140B 13152
                                                 13210M 13213B 13225  13277M 13280B 13292  13347M 13350B 13410  13486M
                                                 13487M 13487B 13513M 13514M 13514B 13541M 13542M 13542B 13577M 13578M
                                                 13578B 13596M 13597M 13597B 13626M 13627M 13627B 13644M 13645M 13645B
                                                 13674M 13675M 13675B 13693M 13694M 13694B 13734M 13735M 13735B 13758M
                                                 13759M 13759B 13783M 13784M 13784B 13814M 13815M 13815B 13850M 13851M
                                                 13851B 13887M 13929M 13930M 13930B 13957M 13958M 13958B 13998M 13999M
                                                 13999B 14036M 14037M 14037B 14076M 14077M 14077B 14116M 14117M 14117B
                                                 14146M 14147M 14147B 14164M 14165M 14165B 14192M 14193M 14193B 14350M
                                                 14351M 14351B 14368M 14369M 14369B 14396M 14397M 14397B 14554M 14555M
                                                 14555B 14584M 14585M 14585B 14614M 14615M 14615B 14632M 14633M 14633B
                                                 14660M 14661M 14661B 15026M 15027M 15027B 15062M 15063M 15063B 15091M
                                                 15092M 15092B 15122M 15123M 15123B 15157M 15158M 15158B 15187M 15188M
                                                 15188B 15205M 15206M 15206B 15235M 15236M 15236B 15253M 15254M 15254B
                                                 15283M 15284M 15284B 15323M 15324M 15324B 15353M 15354M 15354B 15371M
                                                 15372M 15372B 15401M 15402M 15402B 15419M 15420M 15420B 15449M 15450M
                                                 15450B 15467M 15468M 15468B 15485M 15486M 15486B 15513M 15514M 15514B
                                                 15570M 15593M 15594M 15594B 15649M 15650M 15650B 15678M 15679M 15679B
                                                 15709M 15710M 15710B 15727M 15728M 15728B 15791M 15792M 15792B 15809M
                                                 15810M 15810B 15839M 15840M 15840B 15847M 15864M 15865M 15865B 15868M
                                                 15886M 15887M 15887B 15890M 15914M 15915M 15915B 15960M 15961M 15961B
                                                 15978M 15979M 15979B 16161M 16162M 16162B 16182M 16202M 16222M 16242M
                                                 16262M 16282M 16306M 16307M 16307B 16330M 16333B 16345  16476M 16477M
                                                 16477B 16494M 16495M 16495B 16510M 16511M 16511B 16574M 16575M 16575B
                                                 16596M 16599B 16611  16656M 16657M 16657B 16730M 16731M 16731B 16762M
                                                 16763M 16763B 16780M 16783B 16898  16965M 16966M 16966B 16988M 16991B
                                                 17007  17062M 17063M 17063B 17100M 17101M 17101B 17145M 17146M 17146B
                                                 17163M 17164M 17164B 17193M 17194M 17194B 17226M 17227M 17227B 17255M
                                                 17256M 17256B 17285M 17286M 17286B 17316M 17317M 17317B 17378M 17379M
                                                 17379B 17397M 17398M 17398B 17425M 17426M 17426B 17490M 17491M 17491B
                                                 17508M 17509M 17509B 17538M 17539M 17539B 17574M 17575M 17575B 17616M
                                                 17617M 17617B 17661M 17662M 17662B 17679M 17680M 17680B 17709M 17710M
                                                 17710B 17751M 17752M 17752B 17796M 17797M 17797B 17814M 17815M 17815B
                                                 17844M 17845M 17845B 17886M 17887M 17887B 17931M 17932M 17932B 17949M
                                                 17950M 17950B 17979M 17980M 17980B 18048M 18049M 18049B 18066M 18067M
                                                 18067B 18096M 18097M 18097B 18132M 18133M 18133B 18174M 18175M 18175B
                                                 18218M 18219M 18219B 18260M 18261M 18261B 18304M 18305M 18305B 18346M
                                                 18347M 18347B 18390M 18391M 18391B 18562M 18563M 18563B 18617M 18618M
                                                 18618B 18655M 18656M 18656B 18699M 18700M 18700B 18741M 18742M 18742B
                                                 18785M 18786M 18786B 18827M 18828M 18828B 18871M 18872M 18872B 18913M
                                                 18914M 18914B 18946M 18947M 18947B 18974M 18975M 18975B 19008M 19009M
                                                 19009B 19038M 19039M 19039B 19068M 19069M 19069B 19098M 19099M 19099B
                                                 19128M 19129M 19129B 19157M 19158M 19158B 19186M 19187M 19187B 19215M
1TAPE     (TAPE4072) (12:56) (15MAR04) Ordinary Symbol and Literal Cross Reference                                          Page   47
                                                 19216M 19216B 19235M 19236M 19236B 19264M 19265M 19265B 19293M 19294M
                                                 19294B 19331M 19332M 19332B 19375M 19376M 19376B 19417M 19418M 19418B
                                                 19462M 19463M 19463B 19480M 19481M 19481B 19510M 19511M 19511B 19551M
                                                 19552M 19552B 19596M 19597M 19597B 19614M 19615M 19615B 19644M 19645M
                                                 19645B 19662M 19663M 19663B 19692M 19693M 19693B 19733M 19734M 19734B
                                                 19778M 19779M 19779B 19796M 19797M 19797B 19826M 19827M 19827B 19844M
                                                 19845M 19845B 19874M 19875M 19875B 19915M 19916M 19916B 19973M 19974M
                                                 19974B 20007M 20008M 20008B 20041M 20042M 20042B 20059M 20060M 20060B
                                                 20089M 20090M 20090B 20149M 20150M 20150B 20167M 20168M 20168B 20197M
                                                 20198M 20198B 20230M 20231M 20231B 20279M 20280M 20280B 20322M 20323M
                                                 20323B 20363M 20364M 20364B 20408M 20409M 20409B 20426M 20427M 20427B
                                                 20456M 20457M 20457B 20478M 20481B 20542  20632M 20633M 20633B 20855M
                                                 20856M 20856B 20981M 20982M 20982B 21010M 21011M 21011B 21062M 21063M
                                                 21063B 21090M 21091M 21091B 21114M 21115M 21115B 21132M 21133M 21133B
                                                 21160M 21161M 21161B 21184M 21185M 21185B 21210M 21211M 21211B 21228M
                                                 21229M 21229B 21252M 21253M 21253B 21309M 21310M 21310B 21327M 21328M
                                                 21328B 21351M 21352M 21352B 21414M 21415M 21415B 21432M 21433M 21433B
                                                 21456M 21457M 21457B 21482M 21483M 21483B 21510M 21511M 21511B 21536M
                                                 21537M 21537B 21564M 21565M 21565B 21601M 21604B
 RDCNT         1 00000012 FFFFFFE9 A   U    6446  6475   6505
 RDKYDATA      1 0000000E FFFFFFE9 A   U    6448  6489   6501   6507
 READCCW       8 00000240 FFFFFFE9     W    6497  6499
 R0            0 00000000 FFFFFFFF A   #     699  2111   2180M  9305M  9305   9314   9315   9316   9338M  9338   9350M
                                                  9369   9400M  9429M  9429   9438   9439   9481M  9481   9490   9491
                                                  9552M  9670M  9670   9774M  9800M  9832M  9852M 10308M 10334M 10366M
                                                 11062M 11090M 11174  11265M 11341  11356M 11432  11447M 11545M 11688M
                                                 11776M 11858  11867M 12162M 12178M 12198M 12232M 12327M 12343M 12363M
                                                 12397M 12477M 12495M 12562M 12580M 12662M 12688M 12706M 12802M 12828M
                                                 12846M 12945M 12963M 13259M 13475M 13566M 13585M 13615M 13633M 13663M
                                                 13682M 13708M 13727M 13772M 13772  13803M 13839M 13872M 13918M 13946M
                                                 13987M 14013M 14065M 14105M 14105  14135M 14153M 14181M 14197M 14197
                                                 14219M 14245M 14271M 14297M 14323M 14357M 14385M 14401M 14401  14423M
                                                 14449M 14475M 14501M 14527M 14573M 14573  14603M 14621M 14649M 14665M
                                                 14665  14687M 14713M 14739M 14765M 14791M 14817M 14843M 14869M 14895M
                                                 14921M 14947M 14973M 14999M 15051M 15080M 15080  15111M 15146M 15176M
                                                 15194M 15224M 15242M 15272M 15312M 15342M 15360M 15390M 15408M 15438M
                                                 15456M 15481M 15502M 15582M 15638M 15667M 15667  15698M 15716M 15780M
                                                 15798M 15828M 15853M 15875M 15903M 15903  15949M 15967M 15983M 16030M
                                                 16056M 16082M 16108M 16134M 16167M 16187M 16207M 16227M 16247M 16267M
                                                 16295M 16295  16483M 16507M 16524M 16524  16546M 16653M 16683M 16684M
                                                 16698  16704M 16720M 16726M 16751M 16954M 17051M 17089M 17134M 17152M
                                                 17182M 17215M 17244M 17274M 17305M 17333M 17386M 17414M 17479M 17497M
                                                 17527M 17563M 17605M 17650M 17668M 17698M 17740M 17785M 17803M 17833M
                                                 17875M 17920M 17938M 17968M 18037M 18055M 18085M 18121M 18163M 18207M
                                                 18249M 18293M 18335M 18379M 18400M 18400  18422M 18448M 18474M 18500M
                                                 18529M 18529  18551M 18567M 18580M 18580  18590M 18644M 18688M 18730M
                                                 18774M 18816M 18860M 18902M 18935M 18963M 18997M 19027M 19057M 19087M
                                                 19117M 19146M 19175M 19204M 19224M 19253M 19282M 19320M 19364M 19406M
                                                 19451M 19469M 19499M 19540M 19585M 19603M 19633M 19651M 19681M 19722M
                                                 19767M 19785M 19815M 19833M 19863M 19904M 19962M 19996M 20030M 20048M
                                                 20078M 20138M 20156M 20186M 20219M 20268M 20311M 20352M 20397M 20415M
                                                 20445M 20592M 20595  20607M 20612M 20649M 20660M 20660  20867M 20870
                                                 20882M 20887M 20890  20972M 20986M 20987M 20990  21002M 21051M 21080M
                                                 21121M 21150M 21191M 21199M 21225M 21259M 21286M 21298M 21324M 21356M
                                                 21379M 21403M 21429M 21463M 21471M 21499M 21517M 21525M 21553M 21571M
                                                 21581M
 R1            1 00000001 FFFFFFFF A   #     712  2174M  2175M  2181M  9301M  9314   9315   9316   9349M  9395M  9425M
                                                  9438   9439   9441   9477M  9490   9491   9493   9551M  9666M  9773M
                                                  9795M  9831M  9851M 10307M 10329M 10365M 11061M 11085M 11161M 11162M
1TAPE     (TAPE4072) (12:56) (15MAR04) Ordinary Symbol and Literal Cross Reference                                          Page   48
                                                 11162  11272M 11363M 11454M 11540M 11683M 11783M 11874M 12161M 12177M
                                                 12197M 12231M 12326M 12342M 12362M 12396M 12476M 12494M 12561M 12579M
                                                 12661M 12687M 12705M 12801M 12827M 12845M 12944M 12962M 13258M 13470M
                                                 13538M 13561M 13584M 13608M 13632M 13656M 13681M 13703M 13796M 13838M
                                                 13871M 13917M 13941M 13986M 14008M 14064M 14128M 14152M 14176M 14218M
                                                 14244M 14270M 14296M 14322M 14356M 14380M 14422M 14448M 14474M 14500M
                                                 14526M 14596M 14620M 14644M 14686M 14712M 14738M 14764M 14790M 14816M
                                                 14842M 14868M 14894M 14920M 14946M 14972M 14998M 15050M 15104M 15145M
                                                 15169M 15193M 15217M 15241M 15265M 15311M 15335M 15359M 15383M 15407M
                                                 15431M 15455M 15482M 15487  15487  15531M 15581M 15637M 15691M 15715M
                                                 15773M 15797M 15821M 15845M 15852M 15866M 15874M 15888M 15942M 15966M
                                                 15982M 16025M 16055M 16081M 16107M 16133M 16166M 16186M 16206M 16226M
                                                 16246M 16266M 16482M 16502M 16544M 16658M 16727M 16732  16732  16936U
                                                 17046M 17088M 17127M 17151M 17175M 17210M 17239M 17267M 17298M 17326M
                                                 17351M 17385M 17409M 17472M 17496M 17520M 17562M 17604M 17643M 17667M
                                                 17691M 17739M 17778M 17802M 17826M 17874M 17913M 17937M 17961M 18030M
                                                 18054M 18078M 18120M 18162M 18202M 18248M 18288M 18334M 18374M 18421M
                                                 18447M 18473M 18499M 18546M 18566M 18589M 18643M 18683M 18729M 18769M
                                                 18815M 18855M 18901M 18934M 18958M 18992M 19022M 19052M 19082M 19112M
                                                 19141M 19170M 19199M 19223M 19248M 19277M 19319M 19359M 19405M 19444M
                                                 19468M 19492M 19539M 19578M 19602M 19626M 19650M 19674M 19721M 19760M
                                                 19784M 19808M 19832M 19856M 19903M 19961M 19995M 20023M 20047M 20071M
                                                 20131M 20155M 20179M 20218M 20267M 20306M 20351M 20390M 20414M 20438M
                                                 20617  20634M 20635  20650M 20932M 21050M 21087M 21120M 21157M 21190M
                                                 21198M 21220M 21258M 21285M 21297M 21319M 21355M 21378M 21402M 21424M
                                                 21462M 21470M 21494M 21516M 21524M 21548M 21570M 21580M
 R12          12 0000000C FFFFFFFF A   #     855  2137
 R13          13 0000000D FFFFFFFF A   #     868  9309   9310   9311   9326   9327   9328   9433   9434   9435   9451
                                                  9452   9453   9485   9486   9487   9503   9504   9505
 R14          14 0000000E FFFFFFFF A   #     881  2112M  9308M  9309   9310   9311   9323M  9326   9327   9328   9432M
                                                  9433   9434   9435   9440M  9441   9448M  9451   9452   9453   9484M
                                                  9485   9486   9487   9492M  9493   9500M  9503   9504   9505
 R15          15 0000000F FFFFFFFF A   #     894  2111   9329M  9329   9386M  9454M  9454   9506M  9506   9782M  9824M
                                                 10316M 10358M 10412M 10412  11076M 11098M 11098  11117M 11117  11222M
                                                 11222  11236  11280M 11280  11299M 11299  11341M 11371M 11371  11390M
                                                 11390  11432M 11462M 11462  11481M 11481  11531M 11553M 11553  11572M
                                                 11572  11674M 11696M 11696  11715M 11715  11767M 11791M 11791  11810M
                                                 11810  11858M 11883M 11883  11902M 11902  11968M 11968  12034M 12034
                                                 12100M 12100  12170M 12222M 12265M 12265  12335M 12387M 12430M 12430
                                                 12485M 12515M 12515  12570M 12600M 12600  12696M 12740M 12740  12836M
                                                 12880M 12880  12953M 12997M 12997  13066M 13066  13139M 13139  13212M
                                                 13212  13279M 13279  13349M 13349  13483M 13574M 13593M 13623M 13641M
                                                 13671M 13690M 13755M 13780M 13811M 13847M 13926M 13954M 13995M 14033M
                                                 14073M 14113M 14143M 14161M 14189M 14347M 14365M 14393M 14551M 14581M
                                                 14611M 14629M 14657M 15023M 15059M 15088M 15119M 15154M 15184M 15202M
                                                 15232M 15250M 15280M 15320M 15350M 15368M 15398M 15416M 15446M 15464M
                                                 15510M 15590M 15646M 15675M 15706M 15724M 15788M 15806M 15836M 15861M
                                                 15883M 15911M 15957M 15975M 16158M 16303M 16332M 16332  16374M 16378M
                                                 16387M 16387  16394  16425  16473M 16491M 16571M 16598M 16598  16677M
                                                 16677  16683  16725M 16726  16759M 16782M 16782  16962M 16990M 16990
                                                 17059M 17097M 17142M 17160M 17190M 17223M 17252M 17282M 17313M 17375M
                                                 17394M 17422M 17487M 17505M 17535M 17571M 17613M 17658M 17676M 17706M
                                                 17748M 17793M 17811M 17841M 17883M 17928M 17946M 17976M 18045M 18063M
                                                 18093M 18129M 18171M 18215M 18257M 18301M 18343M 18387M 18559M 18614M
                                                 18652M 18696M 18738M 18782M 18824M 18868M 18910M 18943M 18971M 19005M
                                                 19035M 19065M 19095M 19125M 19154M 19183M 19212M 19232M 19261M 19290M
                                                 19328M 19372M 19414M 19459M 19477M 19507M 19548M 19593M 19611M 19641M
                                                 19659M 19689M 19730M 19775M 19793M 19823M 19841M 19871M 19912M 19970M
                                                 20004M 20038M 20056M 20086M 20146M 20164M 20194M 20227M 20276M 20319M
1TAPE     (TAPE4072) (12:56) (15MAR04) Ordinary Symbol and Literal Cross Reference                                          Page   49
                                                 20360M 20405M 20423M 20453M 20480M 20480  20667M 20683M 20683  20703M
                                                 20727M 20751M 20775M 20799M 20823M 20847M 20857  20935M 20947  20957M
                                                 20957  21007M 21059M 21072M 21111M 21129M 21142M 21181M 21207M 21249M
                                                 21306M 21348M 21411M 21453M 21479M 21507M 21533M 21561M 21603M 21603
 R2            2 00000002 FFFFFFFF A   #     725  9598M  9609U 13817M 13885M 16180M 16200M 16220M 16240M 16260M 16280M
                                                 16374  16507  20857M 20935  21027M 21027  21037B
 R3            3 00000003 FFFFFFFF A   #     738 13880M 16175M 16195M 16215M 16235M 16255M 16275M 16502
 R4            4 00000004 FFFFFFFF A   #     751 20617M 20626U 20891
 R5            5 00000005 FFFFFFFF A   #     764 20581M 20589U
 R6            6 00000006 FFFFFFFF A   #     777  9270M  9278U  9295  13439M
 R7            7 00000007 FFFFFFFF A   #     790  2104M  2104   2105B  2117B
 R8            8 00000008 FFFFFFFF A   #     803  9266U
 SCANCHK       1 00000000 00000005     T   10430 10430
 SCDQUOTE      1 00000000 00000017     T   13369 13369
 SCHIDEQ       1 00000031 FFFFFFE9 A   U    6437  6457   6463   6485   6497
 SCHKADEQ      1 0000002D FFFFFFE9 A   U    6442  6471   6479
 SCHKADHE      1 0000006D FFFFFFE9 A   U    6444  6445
 SCHKYHE       1 00000069 FFFFFFE9 A   U    6441  6445
 SCRVLST       4 00000348 FFFFFFE9     F    6532  6581   6632   6642
 SCUPCASE      1 00000000 00000004     T   10428 10428  13364
 SDSNQSZ       1 0000002C FFFFFFEC A   U    6092  6093   6094
 SEEK          5 000001BB FFFFFFE9     X    6433  6457   6483   6492
 SEG           1 00000000 0000000B     T   10439 10439  13374  16800  20497  21634
 SEGB          1 00000000 00000009     T   10437 10437  13373  16803  20498  21637
 SEGCR         1 00000000 0000001A     T   16805 16805
 SEGDATE       2 00001AEC 00000001     H   16605 15570B 15847B 15868B 15890B
 SEGTB         1 00000000 0000001B     T   16806 16806  21640
 SENDERR       4 000028C4 00000001     I   21050 21038B
 SENDEXIT      2 00002A68 00000001     H   21587 21039B
 SENDNAF       4 000029F6 00000001     I   21470 21043B
 SENDNE        4 000029C0 00000001     I   21402 21042B
 SENDNF        4 00002930 00000001     I   21198 21040B
 SENDNIA       4 00002A26 00000001     I   21524 21044B
 SENDNT        2 00002A56 00000001     H   21576 21030B
 SENDNY        2 00002966 00000001     H   21264 21041B
 SENDON        4 0000280E 00000001     I   20855 20668B
 SENDTLMS      2 00002732 00000001     H   20536 10435
 SKP           1 00000010 FFFFFFE9 A   U    6454  6483
 SLI           1 00000020 FFFFFFE9 A   U    6453  6457   6459   6461   6463   6465   6467   6471   6473   6475   6479
                                                  6481   6483   6485   6487   6489   6492   6497   6499   6501   6505
                                                  6507
 SMFLOG        1 00000000 00000020     T   21633 21633
 SPR          13 0000000D FFFFFFFF A   #    1112  9231   9234   9236   9237M  9237  10404M 10408  10410  10932  10935
                                                 10936  10937M 10937  11109M 11113  11115  11130  11133  11134  11135M
                                                 11135  11291M 11295  11297  11312  11315  11316  11317M 11317  11382M
                                                 11386  11388  11403  11406  11407  11408M 11408  11473M 11477  11479
                                                 11494  11497  11498  11499M 11499  11564M 11568  11570  11585  11588
                                                 11589  11590M 11590  11707M 11711  11713  11728  11731  11732  11733M
                                                 11733  11802M 11806  11808  11823  11826  11827  11828M 11828  11894M
                                                 11898  11900  11915  11918  11919  11920M 11920  11960M 11964  11966
                                                 11981  11984  11985  11986M 11986  12026M 12030  12032  12047  12050
                                                 12051  12052M 12052  12092M 12096  12098  12113  12116  12117  12118M
                                                 12118  12257M 12261  12263  12278  12281  12282  12283M 12283  12422M
                                                 12426  12428  12443  12446  12447  12448M 12448  12507M 12511  12513
                                                 12528  12531  12532  12533M 12533  12592M 12596  12598  12613  12616
                                                 12617  12618M 12618  12732M 12736  12738  12753  12756  12757  12758M
                                                 12758  12872M 12876  12878  12893  12896  12897  12898M 12898  12989M
                                                 12993  12995  13010  13013  13014  13015M 13015  13058M 13062  13064
                                                 13079  13082  13083  13084M 13084  13131M 13135  13137  13152  13155
1TAPE     (TAPE4072) (12:56) (15MAR04) Ordinary Symbol and Literal Cross Reference                                          Page   50
                                                 13156  13157M 13157  13204M 13208  13210  13225  13228  13229  13230M
                                                 13230  13271M 13275  13277  13292  13295  13296  13297M 13297  13341M
                                                 13345  13347  13410  13413  13414  13415M 13415  16324M 16328  16330
                                                 16345  16348  16349  16350M 16350  16590M 16594  16596  16611  16614
                                                 16615  16616M 16616  16774M 16778  16780  16898  16901  16902  16903M
                                                 16903  16982M 16986  16988  17007  17010  17011  17012M 17012  20472M
                                                 20476  20478  20542  20545  20546  20547M 20547  21595M 21599  21601
 SRCHC         2 000008D2 FFFFFFE9     H    7195  6475   6497   6505
 SRCHCCW       8 000001C0 FFFFFFE9     W    6457  6459
 STOWLEN       1 00000303 FFFFFFE9     X    6521  6524
 TACCT         5 000000A9 FFFFFFE8     C    9127 13608  13656  17077  17127  17175
 TACCT2        5 00000129 FFFFFFE8     C    9157  9293M  9576M
 TACCT3        5 0000012E FFFFFFE8     C    9158  9294M  9675M
 TAPE          2 00000018 00000001     H    9224  9220
 TAPEDISP      2 00001294 00000001     H   13404 10441
 TAPEDSN      44 00000002 FFFFFFE8     C    9044  9928M  9928   9934   9948   9983  11085  11090
 TAPEDXIT      2 00001A54 00000001     H   16316 13488B 13515B 13543B
 TAPEFALL      8 00000001 FFFFFFE8         9030 11949M 15926
 TAPEFARC     64 00000001 FFFFFFE8         9015 10216  10216  10218  10218  10235  12651  12857M 12933  12933
 TAPEFILE      3 00000047 FFFFFFE8     C    9050 10112M 10112  10119  11867  11874  11879M
 TAPEFLAB     16 00000001 FFFFFFE8         9025 10292  13326M
 TAPEFLG1      1 00000000 FFFFFFE8     R    8971  8975   8980   8985   8990   8995   9000
 TAPEFLG2      1 00000001 FFFFFFE8     R    9006  9010   9015   9020   9025   9030   9035   9040
 TAPEFNAR     32 00000001 FFFFFFE8         9020 10217  10217  10218  10218  10256  12677  12817  12974M
 TAPEFNSL      4 00000000 FFFFFFE8         9000 10176  13190  13190  13192  13192
 TAPEFRAW      4 00000001 FFFFFFE8         9035 12015M 13454
 TAPEFREL     64 00000000 FFFFFFE8         8980  9736   9736   9753   9842  12245  12245  12246M 12353
 TAPEFRES     32 00000000 FFFFFFE8         8985  9736   9736   9737  12188  12410  12410  12411M
 TAPEFRET    128 00000001 FFFFFFE8         9010 10216  10216  10217  10217  10219  12717M 12791  12933  12933  12934
 TAPEFRSL      8 00000000 FFFFFFE8         8995 10155  13117  13117  13119  13119
 TAPEFSLT     16 00000000 FFFFFFE8         8990 10139  13046  13046  13047M 13117  13117  13118  13118  13120M 13190
                                                 13190  13191  13191  13193M
 TAPEFTYP      2 00000001 FFFFFFE8         9040  9872  12081M 13532
 TAPEFUPD    128 00000000 FFFFFFE8         8975  9541   9912  11073M 11256M 11347M 11438M 11528M 11671M 11762M 11857M
                                                 12151  12245  12245  12316  12410  12410  12721M 12861M 12978M 13046
                                                 13046  13118  13118  13119  13119  13191  13191  13192  13192  13330M
 TAPEIN        1 0000002E FFFFFFE8     X    9045 10002  10009  11356  11363
 TAPEINTD      2 00001E4E 00000001     H   17001 16801
 TAPEJOB       8 0000003A FFFFFFE8     C    9048 10068M 10068  10075  11683  11688
 TAPEKEEP      5 00000042 FFFFFFE8     X    9049 10090M 10090  10097  11776  11783
 TAPENAME     10 00000030 FFFFFFE8     C    9047 10046M 10046  10053  11540  11545
 TAPEOUT       1 0000002F FFFFFFE8     C    9046 10024  10031  11265  11272  11447  11454
 TAPEPRT       4 000004FC 00000001     F   10457 10431
 TAPEPRTS      4 000008BC 00000001     F   10818 10429
 TAPETDSC    229 00000050 FFFFFFE8     X    9165 20592  20618  20618  20866M 20867
 TAPEWA      309 00000000 FFFFFFE8     J    9172  9237   9266U  9270   9278U  9287M  9287   9288M  9288  10408  10410
                                                 10411  20589U
 TAPE4072      1 00000000 00000001     R    1149  1147
 TAREA       199 0000006E FFFFFFE8     X    9162 13470  13475
 TASCBPTR      4 0000005C FFFFFFE8     A    9061  9062  20636M
 TCHRGFLG      1 000000F1 FFFFFFE8     C    9138 19248  19253
 TCODE         4 00000054 FFFFFFE8     F    9058 20643M 20643
 TDEN          4 0000008E FFFFFFE8     C    9118 16175  16180  18323  18374  18379
 TDRIVE        3 00000074 FFFFFFE8     C    9113 13538  16195  16200  18890  18958  18963
 TDSECT        8 00000050 FFFFFFE8     D    9053  9165   9165  20626U 20650
 TDSN         44 000000B1 FFFFFFE8     C    9129  9934M  9962   9977   9983M 13703  13708  13720  15742  15757  15773
                                                 15821  17298  17326  17333  17441  17456  17472  17520  17999  18014
                                                 18030  18078
 TDTYPE        4 00000050 FFFFFFE8     C    9056  9164   9289M
1TAPE     (TAPE4072) (12:56) (15MAR04) Ordinary Symbol and Literal Cross Reference                                          Page   51
 TECB          4 00000060 FFFFFFE8     A    9063  9060   9064  20634  20648M 20648  20678
 TECBCODE      1 00000063 FFFFFFE8     X    9064 20696  20720  20744  20768  20792  20816  20840  21142  21369
 TECBCOK       1 00000000 FFFFFFE8 A   U    9065 20696
 TECBCVNF      1 00000001 FFFFFFE8 A   U    9066 20720
 TECBCVNL      1 00000006 FFFFFFE8 A   U    9080 20816
 TECBCVNS      1 00000005 FFFFFFE8 A   U    9078 20792
 TECBCVNU      1 00000007 FFFFFFE8 A   U    9082 20840
 TECBCVNX      1 00000004 FFFFFFE8 A   U    9076 20768
 TECBCVNY      1 00000002 FFFFFFE8 A   U    9067 20744  21369
 TECBPNTR      4 00000058 FFFFFFE8     A    9060 20635M
 TERG          3 00000099 FFFFFFE8     C    9121 16255  16260  19041M 19041M 19052  19057
 TGENDT        5 00000077 FFFFFFE8     C    9114 15845  17593  17643  17691
 TIC           1 00000008 FFFFFFE9 A   U    6438  6459   6461   6465   6467   6473   6481   6487   6499
 TIFL          1 0000006C FFFFFFE8     X    9104  9292M
 TINCODE       1 00000122 FFFFFFE8     C    9151 10009M 14176  14181  14209  14235  14261  14287  14313  18151  18202
                                                 18207
 TJOBNAME      8 00000086 FFFFFFE8     C    9117 10075M 13907  13941  13946  17210  17215
 TKEEPDT       5 00000081 FFFFFFE8     C    9116 10097M 15888  17863  17913  17961
 TLAB          1 000000A3 FFFFFFE8     C    9125 15997  16010  16025  16030  16046  16072  16098  16124  18412  18438
                                                 18464  18490  18518  18546  18551
 TLASTFIL      3 000000AE FFFFFFE8     C    9128 10119M 13818  13819  13819  13820  13821  13880  13885  16814  16846
                                                 17409  17414
 TLNGTH        4 000000F3 FFFFFFE8     C    9140 18632  18683  18688
 TLOCBOX       4 000000F7 FFFFFFE8     C    9141 20256  20306  20311
 TLOCDATE      5 000000FD FFFFFFE8     C    9143 15533  19394  19444  19492  19944
 TLOCID        2 000000FB FFFFFFE8     C    9142 14644  14649  14677  14703  14729  14755  14781  14807  14833  14859
                                                 14885  14911  14937  14963  14989  19277  19282
 TLUSED        5 000000A4 FFFFFFE8     C    9126 15866  17728  17778  17826
 TMAXPWE       3 00000115 FFFFFFE8     C    9148 19071M 19071M 19082  19087
 TMSG          2 00001A62 00000001     H   16339 13887B 16182B 16202B 16222B 16242B 16262B 16282B
 TOUTCODE      1 00000123 FFFFFFE8     C    9153 10031M 14380  14385  14413  14439  14465  14491  14517  18237  18288
                                                 18293
 TPARM         1 00000064 FFFFFFE8     X    9085  9743M  9760M  9878M  9894M 10124M 10145M 10162M 10183M 10193M 10225M
                                                 10242M 10263M 10273M 10298M 20910  20925  21072  21275
 TPFREESL      1 000000C6 FFFFFFE8 A   U    9098 10183
 TPINQ         1 000000F0 FFFFFFE8 A   U    9086  9894  10193  10273  20910
 TPINQTYP      1 000000C1 FFFFFFE8 A   U    9097  9878  20925
 TPLABEL       1 000000F4 FFFFFFE8 A   U    9090 10298  21275
 TPNOFFS       1 000000F9 FFFFFFE8 A   U    9096 10263
 TPOFFS        1 000000F8 FFFFFFE8 A   U    9095 10242
 TPONS         1 000000F7 FFFFFFE8 A   U    9094 10225
 TPREL         1 000000F2 FFFFFFE8 A   U    9088  9760
 TPRELOC       2 00000104 FFFFFFE8     C    9145 19308  19359  19364
 TPRES         1 000000F3 FFFFFFE8 A   U    9089  9743
 TPRESL        1 000000F6 FFFFFFE8 A   U    9092 10162
 TPRGRMMR     10 0000010B FFFFFFE8     C    9147 10053M 13976  14008  14013  17239  17244  17274
 TPRLOCDT      5 00000106 FFFFFFE8     C    9146 20340  20390  20438
 TPRVSLOT      5 000000DD FFFFFFE8     C    9130 15301  15335  15383  15431  15627  19710  19760  19808  19856
 TPSLOT        1 000000F5 FFFFFFE8 A   U    9091 10145
 TPUPD         1 000000F1 FFFFFFE8 A   U    9087 10124
 TRC           1 00000000 00000000 A   T    2133  2133
 TRTTAB        1 00002722 00000001     X   20524 20109
 TSCT          1 00000134 FFFFFFE8     C    9161 14054  19170  19175
 TSER          1 00000133 FFFFFFE8     C    9160 15040  19141  19146
 TSIO          5 00000094 FFFFFFE8     C    9120 16235  16240  19011M 19011M 19022  19027
 TSLOTNO       5 000000E6 FFFFFFE8     C    9133 15135  15169  15217  15265  15613  19528  19578  19626  19674
 TSLTFLG       1 000000F0 FFFFFFE8     C    9137 19199  19204
 TSLTYDDD      4 000000EC FFFFFFE8     C    9135 15469  15481  15568  19892  19932  20023  20071  20106
 TTPD         37 00000000 FFFFFFE7     J    9205 16936U
1TAPE     (TAPE4072) (12:56) (15MAR04) Ordinary Symbol and Literal Cross Reference                                          Page   52
 TTRE          3 0000009C FFFFFFE8     C    9122 16275  16280  19101M 19101M 19112  19117
 TTYFLAG       1 00000004 FFFFFFEA     R    6221  6225
 TTYLNGTH      1 00000025 FFFFFFE7 A   U    9198 16954
 TTYMAX#       1 00000006 FFFFFFEA A   U    6277  6278
 TTYPLEN       1 00000000 FFFFFFE7     R    9185  9198
 TTYTFLAG      1 00000005 FFFFFFEA     R    6231  6235   6240   6245   6250   6255   6260   6265
 TUSECT        5 00000118 FFFFFFE8     C    9149 16215  16220  18981M 18981M 18992  18997
 TUSER         3 00000065 FFFFFFE8     C    9101  9290M  9291M
 TVCT          2 000000A1 FFFFFFE8     C    9124 18804  18855  18860
 TVSN          6 0000006E FFFFFFE8     C    9107  9162   9162   9395   9400   9795   9800  10329  10334  13561  13566
                                                 17046  17051  20984  21220  21225  21319  21324  21424  21429  21494
                                                 21499  21548  21553
 TVSQ          2 0000009F FFFFFFE8     C    9123 18718  18769  18774
 UALAUTH       5 0000046E FFFFFFE9     C    6691  6685
 UPPTBL        1 00000000 00000000 A   T    2196  2196
 VALL          2 00000C76 00000001     H   11909 10830
 VARCH         2 00000ED8 00000001     H   12747 10604
 VDSN          2 000009D4 00000001     H   10926 10469
 VFIL          2 00000C32 00000001     H   11817 10694
 VIN           2 00000AD2 00000001     H   11306 10484  10499
 VJOB          2 00000B8E 00000001     H   11579 10664
 VKEEP         2 00000BEC 00000001     H   11722 10679
 VLABEL        2 00001050 00000001     H   13286 10784
 VNAME         2 00000B4E 00000001     H   11488 10649
 VNOARCH       2 00000F42 00000001     H   12887 10619
 VNOSLOT       2 00000FF0 00000001     H   13146 10769
 VOFF          2 00000E28 00000001     H   12522 10589
 VON           2 00000DE2 00000001     H   12437 10559  10574
 VOUT          2 00000B10 00000001     H   11397 10514  10544
 VOWN          2 0000101C 00000001     H   13219 10799
 VRAW          2 00000CA2 00000001     H   11975 10845
 VREL          2 00000CFA 00000001     H   12107 10709
 VRES          2 00000D6E 00000001     H   12272 10724
 VRESLOT       2 00000FC4 00000001     H   13073 10754
 VRET          2 00000E6E 00000001     H   12607 10634
 VSLOT         2 00000F98 00000001     H   13004 10739
 VTOCAREA      8 00000720 FFFFFFE9     D    6993  6612
 VTYPE         2 00000CCE 00000001     H   12041 10860
 VUSE          2 00000A58 00000001     H   11124 10529
 WAITOFF       1 00000000 0000001E     T   21627 21627
 WAITON        1 00000000 0000001F     T   21628 21628
 WAR           8 00000008 FFFFFFFF A   #    1035  9236M 10404  10936M 11109  11134M 11291  11316M 11382  11407M 11473
                                                 11498M 11564  11589M 11707  11732M 11802  11827M 11894  11919M 11960
                                                 11985M 12026  12051M 12092  12117M 12257  12282M 12422  12447M 12507
                                                 12532M 12592  12617M 12732  12757M 12872  12897M 12989  13014M 13058
                                                 13083M 13131  13156M 13204  13229M 13271  13296M 13341  13414M 16324
                                                 16349M 16590  16615M 16774  16902M 16982  17011M 20472  20546M 21595
 WAR14         4 00000134 FFFFFFE9     F    6374  6375
 WTOSG         1 00000000 00000000 A   T    2093  2093
 WYLTAPE       1 00000000 00000001     J    1140  1142   2377   2461   6201   6313   8954   9173   9206
 XTB           1 00000000 0000001D     T   16811 16811
 =(L'TLASTFIL)C'0'
               1 00001CDC 00000001     C   16846 13820  13821
 =A(DISPTYPE)
               4 00001BB8 00000001     A   16802 13541
 =A(SENDTLMS)
               4 0000048C 00000001     A   10435  9767   9901  10127  10190  10196  10270  10276  10301
 =A(TAPEDISP)
               4 000004A4 00000001     A   10441 10386
1TAPE     (TAPE4072) (12:56) (15MAR04) Ordinary Symbol and Literal Cross Reference                                          Page   53
 =A(TAPEINTD)
               4 00001BB4 00000001     A   16801 13513
 =A(TAPEPRT)
               4 0000047C 00000001     A   10431  9492
 =A(TAPEPRTS)
               4 00000474 00000001     A   10429  9440
 =A(200)       4 00002AC0 00000001     A   21632 20990  21002
 =A(256)       4 00002AA8 00000001     A   21626 20595  20607  20870  20882
 =A(3)         4 000010D0 00000001     A   13365 11174
 =A(4)         4 00002AB4 00000001     A   21629 20947
 =A(5)         4 000010D8 00000001     A   13367 11236
 =A(6)         4 00000468 00000001     A   10426  9369
 =AL1(231)
               1 00002B58 00000001     R   21646 20612  20887
 =C'  Keep='
               7 00001DE9 00000001     C   16869 15874
 =C'  LA:'
               5 00001DE4 00000001     C   16868 15852
 =C' (Archive -- Pending retrieve)'
              30 00001C96 00000001     C   16833 14920
 =C' (Archive)'
              10 00001C6A 00000001     C   16829 14868
 =C' (Arcus)'
               8 00001B90 00000001     C   16796 14790
 =C' (Forsythe -- No archive)'
              25 00001D7E 00000001     C   16860 14946
 =C' (Forsythe -- Pending archive)'
              30 00001C76 00000001     C   16831 14894
 =C' (Forsythe)'
              11 00001D3E 00000001     C   16856 14686  14712
 =C' (Information Desk)'
              19 00001D49 00000001     C   16857 14738
 =C' (Not in service)'
              17 00001D97 00000001     C   16861 15050
 =C' (Plot tape)'
              12 00001BCC 00000001     C   16807 14764
 =C' (Production Control)'
              21 00001D69 00000001     C   16859 14842
 =C' (Searsville)'
              13 00001D5C 00000001     C   16858 14816
 =C' (Unknown)'
              10 00001CBA 00000001     C   16837 14998
 =C' (User''s possession)'
              20 00001BD8 00000001     C   16808 14972
 =C' ???'      4 000026EC 00000001     C   20500 18901
 =C' ?'        2 000026FE 00000001     C   20504 18729  18815
 =C' '         1 00002701 00000001     C   20506 17385  18934  19223
 =C' on '      4 00001BEC 00000001     C   16809 15455
 =C'.'         1 000004F9 00000001     C   10448 10365
 =C'.'         1 0000121F 00000001     C   13384 12231  12396
 =C'.'         1 00001CD4 00000001     C   16844 13632
 =C'.'         1 00002700 00000001     C   20505 17151  17667  17802  17937  18054  19468  20047  20155  20414
 =C'(Community Read) '
              17 00001D0A 00000001     C   16852 14296
 =C'(Group Read) '
              13 00001CFD 00000001     C   16851 14270
 =C'(Group Write) '
              14 00001C36 00000001     C   16819 14474
 =C'(Keep Date Protected) '
1TAPE     (TAPE4072) (12:56) (15MAR04) Ordinary Symbol and Literal Cross Reference                                          Page   54
              22 00001C44 00000001     C   16820 14500
 =C'(No slot information available)'
              31 00001DC1 00000001     C   16865 15637
 =C'(No Read) '
              10 00001C10 00000001     C   16816 14218
 =C'(No Write) '
              11 00001D1B 00000001     C   16853 14422
 =C'(Owner Read) '
              13 00001CF0 00000001     C   16850 14244
 =C'(Owner Write) '
              14 00001C28 00000001     C   16818 14448
 =C'(Previous slot was '
              19 00001DAE 00000001     C   16864 15311
 =C'(Public Read) '
              14 00001C1A 00000001     C   16817 14322
 =C'(Public Write) '
              15 00001D26 00000001     C   16854 14526
 =C'&&'        1 0000120C 00000001     C   13381 11038
 =C'** Released **'
              14 00001C02 00000001     C   16815 14064
 =C') '        2 00001CC6 00000001     C   16839 15581
 =C').  Please report to Systems.'
              29 00002B75 00000001     C   21649 21190
 =C'- Owner='
               8 00001B70 00000001     C   16792 13584
 =C'-'         1 00001DAD 00000001     C   16863 15193  15241  15359  15407
 =C'-'         1 0000271F 00000001     C   20516 19602  19650  19784  19832
 =C', RC='
               5 00002B70 00000001     C   21648 21120
 =C'??.???'
               6 000026F0 00000001     C   20501 17088  17604  17739  17874  19405  19903  20218  20351
 =C'??-?-??'
               7 00002718 00000001     C   20515 19539  19721
 =C'??/??/??'
               8 00001BA8 00000001     C   16799 16658
 =C'????'      4 000026E8 00000001     C   20499 18334  18643  20267
 =C'???'       3 00001DF0 00000001     C   16870 15982
 =C'???'       3 00002715 00000001     C   20514 18589
 =C'??:??'
               5 00002703 00000001     C   20508 17562
 =C'??'        2 000026FC 00000001     C   20503 18566  19319
 =C'?'         1 00002708 00000001     C   20509 18162  18248
 =C':'         1 00001DE3 00000001     C   16867 15797
 =C':'         1 00002702 00000001     C   20507 17496
 =C'='         1 00001E0B 00000001     C   16877 16482
 =C'can''t release.  Tape'
              20 00002ADC 00000001     C   21639 21402
 =C'has been released.'
              18 000004BC 00000001     C   10444  9851
 =C'is not at Forsythe.  No action taken.'
              37 00002BBB 00000001     C   21653 21516
 =C'is not currently in the library.'
              32 00002A80 00000001     C   21624 21462
 =C'is not in Archive storage.  No action taken.'
              44 00002AF4 00000001     C   21641 21570
 =C'is not yours to modify.'
              23 00002B92 00000001     C   21650 21355
 =C'is not yours.'
              13 00002BA9 00000001     C   21651 21378
1TAPE     (TAPE4072) (12:56) (15MAR04) Ordinary Symbol and Literal Cross Reference                                          Page   55
 =C'is now reserved.'
              16 00000430 00000001     C   10422  9831
 =C'new options'
              11 0000120D 00000001     C   13382 12177  12342
 =C'not found.'
              10 00002B24 00000001     C   21644 21258
 =C'options.'
               8 000010C0 00000001     C   13362 12705  12845
 =C'A label will be printed for tape'
              32 00000440 00000001     C   10423 10307
 =C'AL '       3 00002709 00000001     C   20510 18421
 =C'AL'        2 00001CCE 00000001     C   16841 16055
 =C'ARCHIVE and RETRIEVE are mutually exclusive options.'
              52 0000112C 00000001     C   13376 12661
 =C'BLP'       3 00001DF3 00000001     C   16871 16133
 =C'BLP'       3 00002712 00000001     C   20513 18499
 =C'CR:'       3 00001DE0 00000001     C   16866 15715
 =C'Density'
               7 00001DF6 00000001     C   16872 16166
 =C'Drive'
               5 00001DFD 00000001     C   16873 16186
 =C'Dsname can''t be qualified with "$", "@", OR "&&".'
              48 00001080 00000001     C   13359 11061
 =C'Dsname='
               7 00001CD5 00000001     C   16845 13681
 =C'ERG'       3 00001E05 00000001     C   16875 16246
 =C'Files'
               5 00001CDF 00000001     C   16847 13871
 =C'Files=0 '
               8 00001B78 00000001     C   16793 13838
 =C'Incode='
               7 00001CE9 00000001     C   16849 14152
 =C'Jobname='
               8 00001B80 00000001     C   16794 13917
 =C'Label='
               6 00001CC8 00000001     C   16840 15966
 =C'Location='
               9 00001D35 00000001     C   16855 14620
 =C'Missing tape name.'
              18 000004AA 00000001     C   10443  9349
 =C'Name='
               5 00001CE4 00000001     C   16848 13986
 =C'NL '       3 0000270C 00000001     C   20511 18447
 =C'NL'        2 00001CD0 00000001     C   16842 16081
 =C'NOARCHIVE and RETRIEVE are mutually exclusive '
              46 000011DE 00000001     C   13380 12687  12827
 =C'NOARCHIVE can''t be specified with ARCHIVE or '
              45 0000125D 00000001     C   13388 12944
 =C'Options expected after the tape name.'
              37 000004D4 00000001     C   10447  9551
 =C'Outcode='
               8 00001B88 00000001     C   16795 14356
 =C'OFFSITE.'
               8 000010B8 00000001     C   13361 12579
 =C'ONSITE.'
               7 00001256 00000001     C   13387 12494
 =C'Please use the ARCHIVE option to place a tape '
              46 000011B0 00000001     C   13379 12561
 =C'Please use the RETRIEVE option to bring a tape '
1TAPE     (TAPE4072) (12:56) (15MAR04) Ordinary Symbol and Literal Cross Reference                                          Page   56
              47 00001227 00000001     C   13386 12476
 =C'RELEASE is inconsistent with'
              28 000010EC 00000001     C   13372 12161
 =C'RELEASE'
               7 00001220 00000001     C   13385 12362
 =C'RESERVE is inconsistent with'
              28 00001110 00000001     C   13375 12326
 =C'RESERVE'
               7 00001218 00000001     C   13383 12197
 =C'RETRIEVE and ARCHIVE are mutually exclusive options.'
              52 00001160 00000001     C   13377 12801
 =C'RETRIEVE.'
               9 0000128A 00000001     C   13389 12962
 =C'Slot='
               5 00001DA8 00000001     C   16862 15145
 =C'SET'       3 000004D1 00000001     C   10446  9529
 =C'SHO'       3 000004CE 00000001     C   10445  9417
 =C'SIO'       3 00001E02 00000001     C   16874 16226
 =C'SL '       3 0000270F 00000001     C   20512 18473
 =C'SL'        2 00001CD2 00000001     C   16843 16107
 =C'Tape '
               5 00002BB6 00000001     C   21652 21470  21524
 =C'Tape owner can''t be changed.'
              28 00001194 00000001     C   13378 13258
 =C'Tape'      4 00000490 00000001     C   10436  9773
 =C'Tape'      4 00002AD0 00000001     C   21636 21198  21297
 =C'TLMS is not up.'
              15 00002BE0 00000001     C   21654 21580
 =C'TRE'       3 00001E08 00000001     C   16876 16266
 =C'Usecount'
               8 00001B98 00000001     C   16797 16206
 =C'WYLBUR/TLMS error (CMD='
              23 00002B59 00000001     C   21647 21050
 =C'WYL7'      4 00000460 00000001     C   10424  9289
 =C'You can''t print a label from this account.'
              42 00002B2E 00000001     C   21645 21285
 =C'00.000'
               6 000026F6 00000001     C   20502 18120
 =C'0000'      4 00002ABC 00000001     C   21631 20983
 =C'00000000'
               8 000010B0 00000001     C   13360 11879
 =C'00000000'
               8 00001BA0 00000001     C   16798 16432
 =C'10'        2 00001C5A 00000001     C   16821 14677
 =C'15'        2 00001C5C 00000001     C   16822 14703
 =C'20'        2 00001C5E 00000001     C   16823 14729
 =C'25'        2 00001C60 00000001     C   16824 14755
 =C'40'        2 00001C62 00000001     C   16825 14781
 =C'51'        2 00001C64 00000001     C   16826 14807
 =C'55'        2 00001C66 00000001     C   16827 14833
 =C'8'         1 00002721 00000001     C   20518 19995
 =C'80'        2 00001C68 00000001     C   16828 14859
 =C'81'        2 00001C74 00000001     C   16830 14885
 =C'82'        2 00001C94 00000001     C   16832 14911
 =C'83'        2 00001CB4 00000001     C   16834 14937
 =C'9'         1 00002720 00000001     C   20517 19961
 =C'90'        2 00001CB6 00000001     C   16835 14963
 =C'99'        2 00001CB8 00000001     C   16836 14989
 =CL8'NOTLMS'
1TAPE     (TAPE4072) (12:56) (15MAR04) Ordinary Symbol and Literal Cross Reference                                          Page   57
               8 00002AA0 00000001     C   21625 21577
 =CL8'TLMS'
               8 00002A78 00000001     C   21623 21007
 =F'70'        4 00001BF8 00000001     F   16812 16698
 =H'-1'        2 00002B20 00000001     H   21642 20667
 =V(BTD)       4 000010DC 00000001     V   13368 11275  11366  11457  11877
 =V(BTD)       4 00002AB8 00000001     V   21630 20981
 =V(BTX)       4 000010E8 00000001     V   13371 11786
 =V(BTX)       4 00002ACC 00000001     V   21635 21090  21160
 =V(CNVDATE)
               4 000010E4 00000001     V   13370 11765
 =V(DATE)      4 00001BF0 00000001     V   16810 15485  16730
 =V(DOPEN)
               4 00000484 00000001     V   10433  9702
 =V(DTB)       4 000010D4 00000001     V   13366 11190
 =V(EXTCLOSE)
               4 000004A0 00000001     V   10440 10379
 =V(GETKWR)
               4 00000480 00000001     V   10432  9673
 =V(LRTRIM)
               4 00000498 00000001     V   10438  9803  10337
 =V(LRTRIM)
               4 00001BC0 00000001     V   16804 13734  16510
 =V(LRTRIM)
               4 00002AD8 00000001     V   21638 21228  21327  21432
 =V(NOTVALID)
               4 0000046C 00000001     V   10427  9378
 =V(NOTVALID)
               4 000010C8 00000001     V   13363 11007  11206  11245  11660
 =V(NSCAN)
               4 00000464 00000001     V   10425  9319   9444   9496
 =V(NTGDOPN)
               4 00000488 00000001     V   10434  9718
 =V(SCANCHK)
               4 00000478 00000001     V   10430  9458   9510
 =V(SCDQUOTE)
               4 000010E0 00000001     V   13369 11548
 =V(SCUPCASE)
               4 00000470 00000001     V   10428  9403
 =V(SCUPCASE)
               4 000010CC 00000001     V   13364 11093  11691
 =V(SEG)       4 0000049C 00000001     V   10439 10361
 =V(SEG)       4 0000110C 00000001     V   13374 12225  12390  12488  12573  12699  12839  12956
 =V(SEG)       4 00001BB0 00000001     V   16800 13486  13596  13626  13644  13693  13814  13850  13929  13998  14076
                                                 14146  14164  14350  14368  14554  14614  14632  14660  15026  15062
                                                 15122  15157  15187  15205  15235  15253  15323  15353  15371  15401
                                                 15419  15449  15467  15513  15593  15649  15709  15791  15809  15886
                                                 15960  15978  16476  16494  16762
 =V(SEG)       4 000026E0 00000001     V   20497 16965  17145  17163  17255  17316  17397  17490  17508  17661  17679
                                                 17796  17814  17931  17949  18048  18066  18562  18946  19157  19186
                                                 19215  19235  19462  19480  19596  19614  19644  19662  19778  19796
                                                 19826  19844  19973  20007  20041  20059  20149  20167  20408  20426
 =V(SEG)       4 00002AC8 00000001     V   21634 21062  21114  21132  21184  21482  21536
 =V(SEGB)      4 00000494 00000001     V   10437  9785   9827  10319
 =V(SEGB)      4 00001108 00000001     V   13373 12173  12338
 =V(SEGB)      4 00001BBC 00000001     V   16803 13577  13674  13758  14192  14396  15283  15727  15839  15864  16161
                                                 16574
 =V(SEGB)      4 000026E4 00000001     V   20498 17062  17100  17193  17226  17285  17378  17425  17538  17574  17616
                                                 17709  17751  17844  17886  17979  18096  18132  18174  18218  18260
1TAPE     (TAPE4072) (12:56) (15MAR04) Ordinary Symbol and Literal Cross Reference                                          Page   58
                                                 18304  18346  18390  18617  18655  18699  18741  18785  18827  18871
                                                 18913  18974  19008  19038  19068  19098  19128  19264  19293  19331
                                                 19375  19417  19510  19551  19692  19733  19874  19915  20089  20197
                                                 20230  20279  20322  20363  20456
 =V(SEGB)      4 00002AD4 00000001     V   21637 21210  21252  21309  21351  21414  21456
 =V(SEGCR)
               4 00001BC4 00000001     V   16805 13783  14116  14584  15091  15678  15914  16306
 =V(SEGTB)
               4 00001BC8 00000001     V   16806 13957  14036
 =V(SEGTB)
               4 00002AF0 00000001     V   21640 21510  21564
 =V(SMFLOG)
               4 00002AC4 00000001     V   21633 21010
 =V(WAITOFF)
               4 00002AAC 00000001     V   21627 20632
 =V(WAITON)
               4 00002AB0 00000001     V   21628 20855
 =V(XTB)       4 00001BF4 00000001     V   16811 16656
 =XL4'0100000F'
               4 00001BFC 00000001     X   16813 16704
 =Y((L'TLASTFIL+3)/4*4)
               2 00001C00 00000001     Y   16814 13893
 =Y((12+3)/4*4)
               2 000004A8 00000001     Y   10442  9325   9450   9502
 =Y((200+3)/4*4)
               2 00002B22 00000001     Y   21643 21013
 =Y((5+3)/4*4)
               2 00001CC4 00000001     Y   16838 15572

1TAPE     (TAPE4072) (12:56) (15MAR04) Macro and Copy Code Source Summary                                                   Page   59
- Con Source                                        Volume    Members                        HLASM R4.0  2004/03/15 12.56
0     PRIMARY INPUT                                           CSECT    DROP     END      EX       LTORG    POP
                                                              PRINT    PUSH     START    TMSG     USING
   L1 WYL.GS.WYL.WYLBUR.MACLIB                      SYSB05    ABORT    AINFO    ALLOPARM BASE     BTD      BTX      CCWP
                                                              COLINFO  CONTROL  CP       CPLOCAL  CV       CVLOCAL
                                                              DIOWAHDR DOPEN    ERROR    IOWA     RG       RSCHDR   SCAN
                                                              SCANCB   SCANCHK  SCCBADR  SCDQUOTE SCKW     SCPOP
                                                              SCPUSH   SCUPCASE SCUPTOK  TCR      TSEG     TTYPE
                                                              VLTORG   WAITOFF  WAITON   XTB      XTRACE
   L2 WYL.GG.SYS.MACLIB                             SYSB05    $BC      $BFLKUP  $BV      $CCLKUP  $CRS     $CSS     $L
                                                              $LA      $LBLAD   $LEXP    $LOR     $REL     $RGLKUP
                                                              $USLKUP  ACALL    BEGIN    CEIL     CLEAR    CMPR
                                                              COMPROC  CSECT    DATA     DECR     DEFCC    DROP     DTEX
                                                              ELSE     END      EX       EXIT     FLAG     FLOOR    GEN
                                                              HIBAL    IDENT    IF       LABEL    LC       LCALL    LS
                                                              LTORG    PEND     POP      PRINT    PROC     PUSH
                                                              QLTORG   RECORD   REG      REGS     SET      SETMSG
                                                              START    USING    VCALL    WHILE    WITH     XPROC
   L3 SYS3.IS.MACLIB                                SYSB05    DVTAREA  KWR      SEG      SEGCB    SEGCR    SEGLD    SIB
                                                              SYSDEFN  XPOP     XPUSH
   L4 SYS3.MACLIB                                   SYSB02    TDSECT   TTYPEFMT
   L5 SYS1.MACLIB                                   MVSBR9    CAMLST   DCB      ENQ      FREEMAIN GETMAIN  IEFJFCBN
                                                              IHBERMAC IHBINNRA IHBRDWRS IHB01    OPEN     RACHECK
                                                              RACINIT  READ     SYSSTATE WAIT
   L6 SYS1.MODGEN                                   MVSBR9    ICHEACTN ICHEIN   ICHEINTY ICHEOPT  IECSDSL1

1TAPE     (TAPE4072) (12:56) (15MAR04) Dsect Cross Reference                                                                Page   60
-Dsect     Length      Id       Defn                                                         HLASM R4.0  2004/03/15 12.56
0$$$@R0   00000000  FFFFFFFE     705
 $$$@R1   00000000  FFFFFFFD     718
 $$$@R10  00000000  FFFFFFF4     835
 $$$@R11  00000000  FFFFFFF3     848
 $$$@R12  00000000  FFFFFFF2     861
 $$$@R13  00000000  FFFFFFF1     874
 $$$@R14  00000000  FFFFFFF0     887
 $$$@R15  00000000  FFFFFFEF     900
 $$$@R2   00000000  FFFFFFFC     731
 $$$@R3   00000000  FFFFFFFB     744
 $$$@R4   00000000  FFFFFFFA     757
 $$$@R5   00000000  FFFFFFF9     770
 $$$@R6   00000000  FFFFFFF8     783
 $$$@R7   00000000  FFFFFFF7     796
 $$$@R8   00000000  FFFFFFF6     809
 $$$@R9   00000000  FFFFFFF5     822
 $$$RCP   00001000  FFFFFFEC    2466
 $$$RCV   00000FB0  FFFFFFEE    1191
 $$$RDEV  0000000C  FFFFFFEB    4680
 $$$RNSCNCB
          000000B0  FFFFFFED    2387
 $$$RTAPEWA
          00000135  FFFFFFE8    8963
 $$$RTTPD 00000025  FFFFFFE7    9178
 $$$RTTYPE
          0000010C  FFFFFFEA    6211
 HIBAL    00000000  FFFFFFFF     691
 IOWA     00008718  FFFFFFE9    6318

1TAPE     (TAPE4072) (12:56) (15MAR04) Using Map                                                                            Page   61
-                                                                                            HLASM R4.0  2004/03/15 12.56
   Stmt  -----Location----- Action ----------------Using----------------- Reg Max    Last  Label and Using Text
           Count      Id           Type          Value    Range     Id        Disp   Stmt
0   922  00000000  FFFFFFFF USING  ORDINARY    00000000 00001000 FFFFFFEF  15 000          @R15,15
    926  00000000  FFFFFFFF USING  ORDINARY    00000000 00001000 FFFFFFF0  14 002    2182  @R14,14
    930  00000000  FFFFFFFF USING  ORDINARY    00000000 00001000 FFFFFFF1  13 000          @R13,13
    934  00000000  FFFFFFFF USING  ORDINARY    00000000 00001000 FFFFFFF2  12 000          @R12,12
    938  00000000  FFFFFFFF USING  ORDINARY    00000000 00001000 FFFFFFF3  11 000          @R11,11
    942  00000000  FFFFFFFF USING  ORDINARY    00000000 00001000 FFFFFFF4  10 000          @R10,10
    946  00000000  FFFFFFFF USING  ORDINARY    00000000 00001000 FFFFFFF5   9 000          @R9,9
    950  00000000  FFFFFFFF USING  ORDINARY    00000000 00001000 FFFFFFF6   8 000          @R8,8
    954  00000000  FFFFFFFF USING  ORDINARY    00000000 00001000 FFFFFFF7   7 000          @R7,7
    958  00000000  FFFFFFFF USING  ORDINARY    00000000 00001000 FFFFFFF8   6 000          @R6,6
    962  00000000  FFFFFFFF USING  ORDINARY    00000000 00001000 FFFFFFF9   5 000          @R5,5
    966  00000000  FFFFFFFF USING  ORDINARY    00000000 00001000 FFFFFFFA   4 000   20618  @R4,4
    970  00000000  FFFFFFFF USING  ORDINARY    00000000 00001000 FFFFFFFB   3 000   16432  @R3,3
    974  00000000  FFFFFFFF USING  ORDINARY    00000000 00001000 FFFFFFFC   2 000          @R2,2
    978  00000000  FFFFFFFF USING  ORDINARY    00000000 00001000 FFFFFFFD   1 001   16544  @R1,1
    982  00000000  FFFFFFFF USING  ORDINARY    00000000 00001000 FFFFFFFE   0 000          @R0,0
    983  00000000  FFFFFFFF DROP                                            0              0
   1175  00000017  00000001 USING  ORDINARY    00000000 00001000 FFFFFFEC  11 F35   21577  CP,CPR
   1184  00000017  00000001 USING  ORDINARY    00000000 00001000 FFFFFFEE  12 890   21582  CV,CVR
   9252  00000032  00000001 USING  ORDINARY    00000032 00001000 00000001   7 4C7   10386  $$$43B,7
   9266  00000032  00000001 USING  ORDINARY    FFFFFFD8 00001000 FFFFFFE8   8 028    9270  TAPEWA-(4+36),R8
   9278  00000036  00000001 USING  ORDINARY    00000000 00001000 FFFFFFE8   6 134   20438  TAPEWA,R6
   9609  000001E4  00000001 USING  ORDINARY    00000524 00001000 FFFFFFE9   2 100    9683  KWR,R2
   9689  00000234  00000001 USING  ORDINARY    00000000 00001000 FFFFFFFC   2 000   13821  @R2,2
  10395  00000422  00000001 USING  ORDINARY    00000000 00001000 FFFFFFF6   8 000          @R8,8
  10400  00000422  00000001 USING  ORDINARY    00000000 00001000 FFFFFFF7   7 000          @R7,7
  10952  000009EE  00000001 USING  ORDINARY    000009EE 00001000 00000001   7 81E   11093  $$$82B,7
  11105  00000A4A  00000001 USING  ORDINARY    00000000 00001000 FFFFFFF7   7 000          @R7,7
  11150  00000A72  00000001 USING  ORDINARY    00000A72 00001000 00000001   7 66A   11275  $$$91B,7
  11287  00000AC4  00000001 USING  ORDINARY    00000000 00001000 FFFFFFF7   7 000          @R7,7
  11332  00000AEC  00000001 USING  ORDINARY    00000AEC 00001000 00000001   7 5F0   11366  $$$98B,7
  11378  00000B02  00000001 USING  ORDINARY    00000000 00001000 FFFFFFF7   7 000          @R7,7
  11423  00000B2A  00000001 USING  ORDINARY    00000B2A 00001000 00000001   7 5B2   11457  $$$101B,7
  11469  00000B40  00000001 USING  ORDINARY    00000000 00001000 FFFFFFF7   7 000          @R7,7
  11514  00000B68  00000001 USING  ORDINARY    00000B68 00001000 00000001   7 578   11548  $$$104B,7
  11560  00000B80  00000001 USING  ORDINARY    00000000 00001000 FFFFFFF7   7 000          @R7,7
  11605  00000BA8  00000001 USING  ORDINARY    00000BA8 00001000 00000001   7 524   11691  $$$107B,7
  11703  00000BDE  00000001 USING  ORDINARY    00000000 00001000 FFFFFFF7   7 000          @R7,7
  11748  00000C06  00000001 USING  ORDINARY    00000C06 00001000 00000001   7 4E2   11786  $$$113B,7
  11798  00000C24  00000001 USING  ORDINARY    00000000 00001000 FFFFFFF7   7 000          @R7,7
  11843  00000C4C  00000001 USING  ORDINARY    00000C4C 00001000 00000001   7 490   11879  $$$116B,7
  11890  00000C68  00000001 USING  ORDINARY    00000000 00001000 FFFFFFF7   7 000          @R7,7
  11935  00000C90  00000001 USING  ORDINARY    00000C90 00001000 00000001   7 000          $$$119B,7
  11956  00000C94  00000001 USING  ORDINARY    00000000 00001000 FFFFFFF7   7 000          @R7,7
  12001  00000CBC  00000001 USING  ORDINARY    00000CBC 00001000 00000001   7 000          $$$122B,7
  12022  00000CC0  00000001 USING  ORDINARY    00000000 00001000 FFFFFFF7   7 000          @R7,7
  12067  00000CE8  00000001 USING  ORDINARY    00000CE8 00001000 00000001   7 000          $$$125B,7
  12088  00000CEC  00000001 USING  ORDINARY    00000000 00001000 FFFFFFF7   7 000          @R7,7
  12133  00000D14  00000001 USING  ORDINARY    00000D14 00001000 00000001   7 50B   12231  $$$128B,7
  12253  00000D60  00000001 USING  ORDINARY    00000000 00001000 FFFFFFF7   7 000          @R7,7
  12298  00000D88  00000001 USING  ORDINARY    00000D88 00001000 00000001   7 498   12396  $$$133B,7
  12418  00000DD4  00000001 USING  ORDINARY    00000000 00001000 FFFFFFF7   7 000          @R7,7
  12463  00000DFC  00000001 USING  ORDINARY    00000DFC 00001000 00000001   7 45A   12494  $$$138B,7
1TAPE     (TAPE4072) (12:56) (15MAR04) Using Map                                                                            Page   62
  12503  00000E1A  00000001 USING  ORDINARY    00000000 00001000 FFFFFFF7   7 000          @R7,7
  12548  00000E42  00000001 USING  ORDINARY    00000E42 00001000 00000001   7 36E   12579  $$$141B,7
  12588  00000E60  00000001 USING  ORDINARY    00000000 00001000 FFFFFFF7   7 000          @R7,7
  12633  00000E88  00000001 USING  ORDINARY    00000E88 00001000 00000001   7 356   12705  $$$144B,7
  12728  00000ECA  00000001 USING  ORDINARY    00000000 00001000 FFFFFFF7   7 000          @R7,7
  12773  00000EF2  00000001 USING  ORDINARY    00000EF2 00001000 00000001   7 2EC   12845  $$$149B,7
  12868  00000F34  00000001 USING  ORDINARY    00000000 00001000 FFFFFFF7   7 000          @R7,7
  12913  00000F5C  00000001 USING  ORDINARY    00000F5C 00001000 00000001   7 32E   12962  $$$154B,7
  12985  00000F8A  00000001 USING  ORDINARY    00000000 00001000 FFFFFFF7   7 000          @R7,7
  13030  00000FB2  00000001 USING  ORDINARY    00000FB2 00001000 00000001   7 000          $$$158B,7
  13054  00000FB6  00000001 USING  ORDINARY    00000000 00001000 FFFFFFF7   7 000          @R7,7
  13099  00000FDE  00000001 USING  ORDINARY    00000FDE 00001000 00000001   7 000          $$$161B,7
  13127  00000FE2  00000001 USING  ORDINARY    00000000 00001000 FFFFFFF7   7 000          @R7,7
  13172  0000100A  00000001 USING  ORDINARY    0000100A 00001000 00000001   7 000          $$$164B,7
  13200  0000100E  00000001 USING  ORDINARY    00000000 00001000 FFFFFFF7   7 000          @R7,7
  13245  00001036  00000001 USING  ORDINARY    00001036 00001000 00000001   7 15E   13258  $$$167B,7
  13267  00001042  00000001 USING  ORDINARY    00000000 00001000 FFFFFFF7   7 000          @R7,7
  13312  0000106A  00000001 USING  ORDINARY    0000106A 00001000 00000001   7 000          $$$170B,7
  13337  00001072  00000001 USING  ORDINARY    00000000 00001000 FFFFFFF7   7 000          @R7,7
  13430  000012AE  00000001 USING  ORDINARY    000012AE 00001000 00000001   7 B5A   16306  $$$173B,7
  16320  00001A54  00000001 USING  ORDINARY    00000000 00001000 FFFFFFF7   7 000          @R7,7
  16365  00001A7C  00000001 USING  ORDINARY    00001A7C 00001000 00000001   7 396   16574  $$$228B,7
  16586  00001ADE  00000001 USING  ORDINARY    00000000 00001000 FFFFFFF7   7 000          @R7,7
  16631  00001B06  00000001 USING  ORDINARY    00001B06 00001000 00000001   7 0F6   16762  $$$241B,7
  16770  00001B5C  00000001 USING  ORDINARY    00000000 00001000 FFFFFFF7   7 000          @R7,7
  16918  00001E32  00000001 USING  ORDINARY    00001E32 00001000 00000001   7 8AE   16965  $$$248B,7
  16936  00001E32  00000001 USING  ORDINARY    00000000 00001000 FFFFFFE7   1 000          TTPD,R1
  16973  00001E40  00000001 USING  ORDINARY    00000000 00001000 FFFFFFFD   1 010   20985  @R1,1
  16978  00001E40  00000001 USING  ORDINARY    00000000 00001000 FFFFFFF7   7 000          @R7,7
  17027  00001E68  00000001 USING  ORDINARY    00001E68 00001000 00000001   7 8B9   20456  $$$251B,7
  20468  000026D2  00000001 USING  ORDINARY    00000000 00001000 FFFFFFF7   7 000          @R7,7
  20487  000026E0  00000001 USING  ORDINARY    00000000 00001000 FFFFFFF8   6 000          @R6,6
  20562  0000274C  00000001 USING  ORDINARY    0000274C 00001000 00000001   7 494   21580  $$$312B,7
  20579  00002750  00000001 USING  ORDINARY    00000000 00001000 FFFFFFE9   6 000          IOWA,IOWAR
  20589  00002754  00000001 USING  ORDINARY    00000000 00001000 FFFFFFE8   5 06E   21548  TAPEWA,R5
  20626  00002776  00000001 USING  ORDINARY    00000050 00001000 FFFFFFE8   4 013   20840  TDSECT,R4
  20864  00002816  00000001 USING  ORDINARY    00000000 00001000 FFFFFFFA   4 000   20866  @R4,4
  21069  000028D6  00000001 DROP                                           15              15
  21073  000028DC  00000001 USING  ORDINARY    00000000 00001000 FFFFFFEF  15 000          @R15,15
  21139  00002906  00000001 DROP                                           15              15
  21143  0000290C  00000001 USING  ORDINARY    00000000 00001000 FFFFFFEF  15 000          @R15,15
  21591  00002A68  00000001 USING  ORDINARY    00000000 00001000 FFFFFFF7   7 000          @R7,7
  21611  00002A76  00000001 USING  ORDINARY    00000000 00001000 FFFFFFF9   5 000          @R5,5
  21618  00002A76  00000001 USING  ORDINARY    00000000 00001000 FFFFFFF8   6 000          @R6,6

1         (TAPE4072) (12:56) (15MAR04) General Purpose Register Cross Reference                                             Page   63
- Register  References (M=modified, B=branch, U=USING, D=DROP, N=index)                      HLASM R4.0  2004/03/15 12.56
0    0(0)      982U   983D  2111   2179M  2179   2180M  9234   9305M  9305   9314   9315   9316   9338M  9338   9350M
              9369   9400M  9429M  9429   9438   9439   9481M  9481   9490   9491   9552M  9670M  9670   9774M  9800M
              9832M  9852M 10308M 10334M 10366M 10408M 10935  11062M 11090M 11113M 11133  11174  11265M 11295M 11315
             11341  11356M 11386M 11406  11432  11447M 11477M 11497  11545M 11568M 11588  11688M 11711M 11731  11776M
             11806M 11826  11858  11867M 11898M 11918  11964M 11984  12030M 12050  12096M 12116  12162M 12178M 12198M
             12232M 12261M 12281  12327M 12343M 12363M 12397M 12426M 12446  12477M 12495M 12511M 12531  12562M 12580M
             12596M 12616  12662M 12688M 12706M 12736M 12756  12802M 12828M 12846M 12876M 12896  12945M 12963M 12993M
             13013  13062M 13082  13135M 13155  13208M 13228  13259M 13275M 13295  13345M 13413  13475M 13566M 13585M
             13615M 13633M 13663M 13682M 13708M 13727M 13772M 13772  13803M 13839M 13872M 13918M 13946M 13987M 14013M
             14065M 14105M 14105  14135M 14153M 14181M 14197M 14197  14219M 14245M 14271M 14297M 14323M 14357M 14385M
             14401M 14401  14423M 14449M 14475M 14501M 14527M 14573M 14573  14603M 14621M 14649M 14665M 14665  14687M
             14713M 14739M 14765M 14791M 14817M 14843M 14869M 14895M 14921M 14947M 14973M 14999M 15051M 15080M 15080
             15111M 15146M 15176M 15194M 15224M 15242M 15272M 15312M 15342M 15360M 15390M 15408M 15438M 15456M 15481M
             15502M 15582M 15638M 15667M 15667  15698M 15716M 15780M 15798M 15828M 15853M 15875M 15903M 15903  15949M
             15967M 15983M 16030M 16056M 16082M 16108M 16134M 16167M 16187M 16207M 16227M 16247M 16267M 16295M 16295
             16328M 16348  16483M 16507M 16524M 16524  16546M 16594M 16614  16653M 16683M 16684M 16698  16704M 16720M
             16726M 16751M 16778M 16901  16954M 16986M 17010  17051M 17089M 17134M 17152M 17182M 17215M 17244M 17274M
             17305M 17333M 17386M 17414M 17479M 17497M 17527M 17563M 17605M 17650M 17668M 17698M 17740M 17785M 17803M
             17833M 17875M 17920M 17938M 17968M 18037M 18055M 18085M 18121M 18163M 18207M 18249M 18293M 18335M 18379M
             18400M 18400  18422M 18448M 18474M 18500M 18529M 18529  18551M 18567M 18580M 18580  18590M 18644M 18688M
             18730M 18774M 18816M 18860M 18902M 18935M 18963M 18997M 19027M 19057M 19087M 19117M 19146M 19175M 19204M
             19224M 19253M 19282M 19320M 19364M 19406M 19451M 19469M 19499M 19540M 19585M 19603M 19633M 19651M 19681M
             19722M 19767M 19785M 19815M 19833M 19863M 19904M 19962M 19996M 20030M 20048M 20078M 20138M 20156M 20186M
             20219M 20268M 20311M 20352M 20397M 20415M 20445M 20476M 20545  20592M 20595  20607M 20612M 20649M 20660M
             20660  20676M 20867M 20870  20882M 20887M 20890M 20890  20972M 20986M 20987M 20990  21002M 21051M 21080M
             21121M 21150M 21191M 21199M 21225M 21259M 21286M 21298M 21324M 21356M 21379M 21403M 21429M 21463M 21471M
             21499M 21517M 21525M 21553M 21571M 21581M 21599M
     1(1)      978U  2111   2174M  2175M  2181M  9234   9301M  9314N  9315N  9316N  9349M  9395M  9425M  9438N  9439N
              9441N  9477M  9490N  9491N  9493N  9551M  9666M  9773M  9795M  9831M  9851M 10307M 10329M 10365M 10408M
             10935  11061M 11085M 11113M 11133  11161M 11162M 11162N 11272M 11295M 11315  11363M 11386M 11406  11454M
             11477M 11497  11540M 11568M 11588  11683M 11711M 11731  11783M 11806M 11826  11874M 11898M 11918  11964M
             11984  12030M 12050  12096M 12116  12161M 12177M 12197M 12231M 12261M 12281  12326M 12342M 12362M 12396M
             12426M 12446  12476M 12494M 12511M 12531  12561M 12579M 12596M 12616  12661M 12687M 12705M 12736M 12756
             12801M 12827M 12845M 12876M 12896  12944M 12962M 12993M 13013  13062M 13082  13135M 13155  13208M 13228
             13258M 13275M 13295  13345M 13413  13470M 13538M 13561M 13584M 13608M 13632M 13656M 13681M 13703M 13796M
             13838M 13871M 13917M 13941M 13986M 14008M 14064M 14128M 14152M 14176M 14218M 14244M 14270M 14296M 14322M
             14356M 14380M 14422M 14448M 14474M 14500M 14526M 14596M 14620M 14644M 14686M 14712M 14738M 14764M 14790M
             14816M 14842M 14868M 14894M 14920M 14946M 14972M 14998M 15050M 15104M 15145M 15169M 15193M 15217M 15241M
             15265M 15311M 15335M 15359M 15383M 15407M 15431M 15455M 15482M 15487  15487  15531M 15581M 15637M 15691M
             15715M 15773M 15797M 15821M 15845M 15852M 15866M 15874M 15888M 15942M 15966M 15982M 16025M 16055M 16081M
             16107M 16133M 16166M 16186M 16206M 16226M 16246M 16266M 16328M 16348  16482M 16502M 16544M 16594M 16614
             16658M 16727M 16732  16732  16778M 16901  16936U 16973U 16986M 17010  17046M 17088M 17127M 17151M 17175M
             17210M 17239M 17267M 17298M 17326M 17351M 17385M 17409M 17472M 17496M 17520M 17562M 17604M 17643M 17667M
             17691M 17739M 17778M 17802M 17826M 17874M 17913M 17937M 17961M 18030M 18054M 18078M 18120M 18162M 18202M
             18248M 18288M 18334M 18374M 18421M 18447M 18473M 18499M 18546M 18566M 18589M 18643M 18683M 18729M 18769M
             18815M 18855M 18901M 18934M 18958M 18992M 19022M 19052M 19082M 19112M 19141M 19170M 19199M 19223M 19248M
             19277M 19319M 19359M 19405M 19444M 19468M 19492M 19539M 19578M 19602M 19626M 19650M 19674M 19721M 19760M
             19784M 19808M 19832M 19856M 19903M 19961M 19995M 20023M 20047M 20071M 20109M 20131M 20155M 20179M 20218M
             20267M 20306M 20351M 20390M 20414M 20438M 20476M 20545  20615M 20617  20634M 20635  20650M 20678M 20891M
             20932M 21050M 21087M 21120M 21157M 21190M 21198M 21220M 21258M 21285M 21297M 21319M 21355M 21378M 21402M
             21424M 21462M 21470M 21494M 21516M 21524M 21548M 21570M 21580M 21599M
     2(2)      974U  2111   9234   9598M  9609U  9689U 10408M 10935  11113M 11133  11295M 11315  11386M 11406  11477M
             11497  11568M 11588  11711M 11731  11806M 11826  11898M 11918  11964M 11984  12030M 12050  12096M 12116
             12261M 12281  12426M 12446  12511M 12531  12596M 12616  12736M 12756  12876M 12896  12993M 13013  13062M
             13082  13135M 13155  13208M 13228  13275M 13295  13345M 13413  13817M 13885M 16180M 16200M 16220M 16240M
1         (TAPE4072) (12:56) (15MAR04) General Purpose Register Cross Reference                                             Page   64
             16260M 16280M 16328M 16348  16374  16507  16594M 16614  16778M 16901  16986M 17010  20109M 20476M 20545
             20857M 20935  21027M 21027  21037N 21599M
     3(3)      970U  2111   9234  10408M 10935  11113M 11133  11295M 11315  11386M 11406  11477M 11497  11568M 11588
             11711M 11731  11806M 11826  11898M 11918  11964M 11984  12030M 12050  12096M 12116  12261M 12281  12426M
             12446  12511M 12531  12596M 12616  12736M 12756  12876M 12896  12993M 13013  13062M 13082  13135M 13155
             13208M 13228  13275M 13295  13345M 13413  13880M 16175M 16195M 16215M 16235M 16255M 16275M 16328M 16348
             16502  16594M 16614  16778M 16901  16986M 17010  20476M 20545  21599M
     4(4)      966U  2111   9234  10408M 10935  11113M 11133  11295M 11315  11386M 11406  11477M 11497  11568M 11588
             11711M 11731  11806M 11826  11898M 11918  11964M 11984  12030M 12050  12096M 12116  12261M 12281  12426M
             12446  12511M 12531  12596M 12616  12736M 12756  12876M 12896  12993M 13013  13062M 13082  13135M 13155
             13208M 13228  13275M 13295  13345M 13413  16328M 16348  16594M 16614  16778M 16901  16986M 17010  20476M
             20545  20617M 20626U 20864U 20891  21599M
     5(5)      962U  2111   9234  10408M 10935  11113M 11133  11295M 11315  11386M 11406  11477M 11497  11568M 11588
             11711M 11731  11806M 11826  11898M 11918  11964M 11984  12030M 12050  12096M 12116  12261M 12281  12426M
             12446  12511M 12531  12596M 12616  12736M 12756  12876M 12896  12993M 13013  13062M 13082  13135M 13155
             13208M 13228  13275M 13295  13345M 13413  16328M 16348  16594M 16614  16778M 16901  16986M 17010  20476M
             20545  20581M 20589U 21599M 21611U
     6(6)      958U  2111   9234   9270M  9278U  9295  10408M 10935  11113M 11133  11295M 11315  11386M 11406  11477M
             11497  11568M 11588  11711M 11731  11806M 11826  11898M 11918  11964M 11984  12030M 12050  12096M 12116
             12261M 12281  12426M 12446  12511M 12531  12596M 12616  12736M 12756  12876M 12896  12993M 13013  13062M
             13082  13135M 13155  13208M 13228  13275M 13295  13345M 13413  13439M 16328M 16348  16594M 16614  16778M
             16901  16986M 17010  20476M 20487U 20545  20571M 20579U 21599M 21618U
     7(7)      954U  2104M  2104   2105B  2111   2117B  9234   9240M  9252U 10400U 10408M 10935  10940M 10952U 11105U
             11113M 11133  11138M 11150U 11287U 11295M 11315  11320M 11332U 11378U 11386M 11406  11411M 11423U 11469U
             11477M 11497  11502M 11514U 11560U 11568M 11588  11593M 11605U 11703U 11711M 11731  11736M 11748U 11798U
             11806M 11826  11831M 11843U 11890U 11898M 11918  11923M 11935U 11956U 11964M 11984  11989M 12001U 12022U
             12030M 12050  12055M 12067U 12088U 12096M 12116  12121M 12133U 12253U 12261M 12281  12286M 12298U 12418U
             12426M 12446  12451M 12463U 12503U 12511M 12531  12536M 12548U 12588U 12596M 12616  12621M 12633U 12728U
             12736M 12756  12761M 12773U 12868U 12876M 12896  12901M 12913U 12985U 12993M 13013  13018M 13030U 13054U
             13062M 13082  13087M 13099U 13127U 13135M 13155  13160M 13172U 13200U 13208M 13228  13233M 13245U 13267U
             13275M 13295  13300M 13312U 13337U 13345M 13413  13418M 13430U 16320U 16328M 16348  16353M 16365U 16586U
             16594M 16614  16619M 16631U 16770U 16778M 16901  16906M 16918U 16978U 16986M 17010  17015M 17027U 20468U
             20476M 20545  20550M 20562U 21591U 21599M
     8(8)      950U  2111   9234   9236M  9266U 10395U 10404  10408M 10935  10936M 11109  11113M 11133  11134M 11291
             11295M 11315  11316M 11382  11386M 11406  11407M 11473  11477M 11497  11498M 11564  11568M 11588  11589M
             11707  11711M 11731  11732M 11802  11806M 11826  11827M 11894  11898M 11918  11919M 11960  11964M 11984
             11985M 12026  12030M 12050  12051M 12092  12096M 12116  12117M 12257  12261M 12281  12282M 12422  12426M
             12446  12447M 12507  12511M 12531  12532M 12592  12596M 12616  12617M 12732  12736M 12756  12757M 12872
             12876M 12896  12897M 12989  12993M 13013  13014M 13058  13062M 13082  13083M 13131  13135M 13155  13156M
             13204  13208M 13228  13229M 13271  13275M 13295  13296M 13341  13345M 13413  13414M 16324  16328M 16348
             16349M 16590  16594M 16614  16615M 16774  16778M 16901  16902M 16982  16986M 17010  17011M 20472  20476M
             20545  20546M 21595  21599M
     9(9)      946U  2111
    10(A)      942U  2111
    11(B)      938U  1175U  2111
    12(C)      934U  1184U  2111
    13(D)      930U  2111   9231   9234   9236   9237M  9237   9309   9310   9311   9313M  9313   9325M  9326   9327
              9328   9433   9434   9435   9437M  9437   9450M  9451   9452   9453   9485   9486   9487   9489M  9489
              9502M  9503   9504   9505   9598   9599M  9599  10404M 10408  10410  10932  10935  10936  10937M 10937
             11109M 11113  11115  11130  11133  11134  11135M 11135  11291M 11295  11297  11312  11315  11316  11317M
             11317  11382M 11386  11388  11403  11406  11407  11408M 11408  11473M 11477  11479  11494  11497  11498
             11499M 11499  11564M 11568  11570  11585  11588  11589  11590M 11590  11707M 11711  11713  11728  11731
             11732  11733M 11733  11802M 11806  11808  11823  11826  11827  11828M 11828  11894M 11898  11900  11915
             11918  11919  11920M 11920  11960M 11964  11966  11981  11984  11985  11986M 11986  12026M 12030  12032
             12047  12050  12051  12052M 12052  12092M 12096  12098  12113  12116  12117  12118M 12118  12257M 12261
             12263  12278  12281  12282  12283M 12283  12422M 12426  12428  12443  12446  12447  12448M 12448  12507M
             12511  12513  12528  12531  12532  12533M 12533  12592M 12596  12598  12613  12616  12617  12618M 12618
             12732M 12736  12738  12753  12756  12757  12758M 12758  12872M 12876  12878  12893  12896  12897  12898M
             12898  12989M 12993  12995  13010  13013  13014  13015M 13015  13058M 13062  13064  13079  13082  13083
1         (TAPE4072) (12:56) (15MAR04) General Purpose Register Cross Reference                                             Page   65
             13084M 13084  13131M 13135  13137  13152  13155  13156  13157M 13157  13204M 13208  13210  13225  13228
             13229  13230M 13230  13271M 13275  13277  13292  13295  13296  13297M 13297  13341M 13345  13347  13410
             13413  13414  13415M 13415  13817  13818M 13818  13893M 15531  15532M 15532  15572M 16324M 16328  16330
             16345  16348  16349  16350M 16350  16590M 16594  16596  16611  16614  16615  16616M 16616  16774M 16778
             16780  16898  16901  16902  16903M 16903  16982M 16986  16988  17007  17010  17011  17012M 17012  20472M
             20476  20478  20542  20545  20546  20547M 20547  20932  20933M 20933  21013M 21595M 21599  21601
    14(E)      926U  2111   2112M  2126   2127M  2128B  2130M  2131B  2151M  2152B  2156M  2157B  2159M  2160B  2162M
              2163B  2165M  2166B  2168M  2169M  2169B  2175   9231   9308M  9309   9310   9311   9319M  9320M  9320B
              9323M  9326   9327   9328   9378M  9379M  9379B  9403M  9404M  9404B  9432M  9433   9434   9435   9440M
              9441   9444M  9445M  9445B  9448M  9451   9452   9453   9458M  9459M  9459B  9484M  9485   9486   9487
              9492M  9493   9496M  9497M  9497B  9500M  9503   9504   9505   9510M  9511M  9511B  9673M  9674M  9674B
              9702M  9703M  9703B  9718M  9719M  9719B  9767M  9768M  9768B  9785M  9786M  9786B  9803M  9804M  9804B
              9827M  9828M  9828B  9901M  9902M  9902B 10127M 10128M 10128B 10190M 10191M 10191B 10196M 10197M 10197B
             10270M 10271M 10271B 10276M 10277M 10277B 10301M 10302M 10302B 10319M 10320M 10320B 10337M 10338M 10338B
             10361M 10362M 10362B 10379M 10380M 10380B 10386M 10387M 10387B 10410M 10413B 10932  11007M 11008M 11008B
             11093M 11094M 11094B 11115M 11118B 11130  11190M 11191M 11191B 11206M 11207M 11207B 11245M 11246M 11246B
             11275M 11276M 11276B 11297M 11300B 11312  11366M 11367M 11367B 11388M 11391B 11403  11457M 11458M 11458B
             11479M 11482B 11494  11548M 11549M 11549B 11570M 11573B 11585  11660M 11661M 11661B 11691M 11692M 11692B
             11713M 11716B 11728  11765M 11766M 11766B 11786M 11787M 11787B 11808M 11811B 11823  11877M 11878M 11878B
             11900M 11903B 11915  11966M 11969B 11981  12032M 12035B 12047  12098M 12101B 12113  12173M 12174M 12174B
             12225M 12226M 12226B 12263M 12266B 12278  12338M 12339M 12339B 12390M 12391M 12391B 12428M 12431B 12443
             12488M 12489M 12489B 12513M 12516B 12528  12573M 12574M 12574B 12598M 12601B 12613  12699M 12700M 12700B
             12738M 12741B 12753  12839M 12840M 12840B 12878M 12881B 12893  12956M 12957M 12957B 12995M 12998B 13010
             13064M 13067B 13079  13137M 13140B 13152  13210M 13213B 13225  13277M 13280B 13292  13347M 13350B 13410
             13486M 13487M 13487B 13513M 13514M 13514B 13541M 13542M 13542B 13577M 13578M 13578B 13596M 13597M 13597B
             13626M 13627M 13627B 13644M 13645M 13645B 13674M 13675M 13675B 13693M 13694M 13694B 13734M 13735M 13735B
             13758M 13759M 13759B 13783M 13784M 13784B 13814M 13815M 13815B 13850M 13851M 13851B 13887M 13929M 13930M
             13930B 13957M 13958M 13958B 13998M 13999M 13999B 14036M 14037M 14037B 14076M 14077M 14077B 14116M 14117M
             14117B 14146M 14147M 14147B 14164M 14165M 14165B 14192M 14193M 14193B 14350M 14351M 14351B 14368M 14369M
             14369B 14396M 14397M 14397B 14554M 14555M 14555B 14584M 14585M 14585B 14614M 14615M 14615B 14632M 14633M
             14633B 14660M 14661M 14661B 15026M 15027M 15027B 15062M 15063M 15063B 15091M 15092M 15092B 15122M 15123M
             15123B 15157M 15158M 15158B 15187M 15188M 15188B 15205M 15206M 15206B 15235M 15236M 15236B 15253M 15254M
             15254B 15283M 15284M 15284B 15323M 15324M 15324B 15353M 15354M 15354B 15371M 15372M 15372B 15401M 15402M
             15402B 15419M 15420M 15420B 15449M 15450M 15450B 15467M 15468M 15468B 15485M 15486M 15486B 15513M 15514M
             15514B 15570M 15593M 15594M 15594B 15649M 15650M 15650B 15678M 15679M 15679B 15709M 15710M 15710B 15727M
             15728M 15728B 15791M 15792M 15792B 15809M 15810M 15810B 15839M 15840M 15840B 15847M 15864M 15865M 15865B
             15868M 15886M 15887M 15887B 15890M 15914M 15915M 15915B 15960M 15961M 15961B 15978M 15979M 15979B 16161M
             16162M 16162B 16182M 16202M 16222M 16242M 16262M 16282M 16306M 16307M 16307B 16330M 16333B 16345  16476M
             16477M 16477B 16494M 16495M 16495B 16510M 16511M 16511B 16574M 16575M 16575B 16596M 16599B 16611  16656M
             16657M 16657B 16730M 16731M 16731B 16762M 16763M 16763B 16780M 16783B 16898  16965M 16966M 16966B 16988M
             16991B 17007  17062M 17063M 17063B 17100M 17101M 17101B 17145M 17146M 17146B 17163M 17164M 17164B 17193M
             17194M 17194B 17226M 17227M 17227B 17255M 17256M 17256B 17285M 17286M 17286B 17316M 17317M 17317B 17378M
             17379M 17379B 17397M 17398M 17398B 17425M 17426M 17426B 17490M 17491M 17491B 17508M 17509M 17509B 17538M
             17539M 17539B 17574M 17575M 17575B 17616M 17617M 17617B 17661M 17662M 17662B 17679M 17680M 17680B 17709M
             17710M 17710B 17751M 17752M 17752B 17796M 17797M 17797B 17814M 17815M 17815B 17844M 17845M 17845B 17886M
             17887M 17887B 17931M 17932M 17932B 17949M 17950M 17950B 17979M 17980M 17980B 18048M 18049M 18049B 18066M
             18067M 18067B 18096M 18097M 18097B 18132M 18133M 18133B 18174M 18175M 18175B 18218M 18219M 18219B 18260M
             18261M 18261B 18304M 18305M 18305B 18346M 18347M 18347B 18390M 18391M 18391B 18562M 18563M 18563B 18617M
             18618M 18618B 18655M 18656M 18656B 18699M 18700M 18700B 18741M 18742M 18742B 18785M 18786M 18786B 18827M
             18828M 18828B 18871M 18872M 18872B 18913M 18914M 18914B 18946M 18947M 18947B 18974M 18975M 18975B 19008M
             19009M 19009B 19038M 19039M 19039B 19068M 19069M 19069B 19098M 19099M 19099B 19128M 19129M 19129B 19157M
             19158M 19158B 19186M 19187M 19187B 19215M 19216M 19216B 19235M 19236M 19236B 19264M 19265M 19265B 19293M
             19294M 19294B 19331M 19332M 19332B 19375M 19376M 19376B 19417M 19418M 19418B 19462M 19463M 19463B 19480M
             19481M 19481B 19510M 19511M 19511B 19551M 19552M 19552B 19596M 19597M 19597B 19614M 19615M 19615B 19644M
             19645M 19645B 19662M 19663M 19663B 19692M 19693M 19693B 19733M 19734M 19734B 19778M 19779M 19779B 19796M
             19797M 19797B 19826M 19827M 19827B 19844M 19845M 19845B 19874M 19875M 19875B 19915M 19916M 19916B 19973M
             19974M 19974B 20007M 20008M 20008B 20041M 20042M 20042B 20059M 20060M 20060B 20089M 20090M 20090B 20149M
             20150M 20150B 20167M 20168M 20168B 20197M 20198M 20198B 20230M 20231M 20231B 20279M 20280M 20280B 20322M
             20323M 20323B 20363M 20364M 20364B 20408M 20409M 20409B 20426M 20427M 20427B 20456M 20457M 20457B 20478M
1         (TAPE4072) (12:56) (15MAR04) General Purpose Register Cross Reference                                             Page   66
             20481B 20542  20632M 20633M 20633B 20855M 20856M 20856B 20981M 20982M 20982B 21010M 21011M 21011B 21062M
             21063M 21063B 21090M 21091M 21091B 21114M 21115M 21115B 21132M 21133M 21133B 21160M 21161M 21161B 21184M
             21185M 21185B 21210M 21211M 21211B 21228M 21229M 21229B 21252M 21253M 21253B 21309M 21310M 21310B 21327M
             21328M 21328B 21351M 21352M 21352B 21414M 21415M 21415B 21432M 21433M 21433B 21456M 21457M 21457B 21482M
             21483M 21483B 21510M 21511M 21511B 21536M 21537M 21537B 21564M 21565M 21565B 21601M 21604B
    15(F)      922U  2111   9329M  9329   9386M  9454M  9454   9506M  9506   9782M  9824M 10316M 10358M 10412M 10412
             11076M 11098M 11098  11117M 11117  11222M 11222  11236  11280M 11280  11299M 11299  11341M 11371M 11371
             11390M 11390  11432M 11462M 11462  11481M 11481  11531M 11553M 11553  11572M 11572  11674M 11696M 11696
             11715M 11715  11767M 11791M 11791  11810M 11810  11858M 11883M 11883  11902M 11902  11968M 11968  12034M
             12034  12100M 12100  12170M 12222M 12265M 12265  12335M 12387M 12430M 12430  12485M 12515M 12515  12570M
             12600M 12600  12696M 12740M 12740  12836M 12880M 12880  12953M 12997M 12997  13066M 13066  13139M 13139
             13212M 13212  13279M 13279  13349M 13349  13483M 13574M 13593M 13623M 13641M 13671M 13690M 13755M 13780M
             13811M 13847M 13926M 13954M 13995M 14033M 14073M 14113M 14143M 14161M 14189M 14347M 14365M 14393M 14551M
             14581M 14611M 14629M 14657M 15023M 15059M 15088M 15119M 15154M 15184M 15202M 15232M 15250M 15280M 15320M
             15350M 15368M 15398M 15416M 15446M 15464M 15510M 15590M 15646M 15675M 15706M 15724M 15788M 15806M 15836M
             15861M 15883M 15911M 15957M 15975M 16158M 16303M 16332M 16332  16374M 16378M 16387M 16387  16394  16425
             16473M 16491M 16571M 16598M 16598  16677M 16677  16683  16725M 16726  16759M 16782M 16782  16962M 16990M
             16990  17059M 17097M 17142M 17160M 17190M 17223M 17252M 17282M 17313M 17375M 17394M 17422M 17487M 17505M
             17535M 17571M 17613M 17658M 17676M 17706M 17748M 17793M 17811M 17841M 17883M 17928M 17946M 17976M 18045M
             18063M 18093M 18129M 18171M 18215M 18257M 18301M 18343M 18387M 18559M 18614M 18652M 18696M 18738M 18782M
             18824M 18868M 18910M 18943M 18971M 19005M 19035M 19065M 19095M 19125M 19154M 19183M 19212M 19232M 19261M
             19290M 19328M 19372M 19414M 19459M 19477M 19507M 19548M 19593M 19611M 19641M 19659M 19689M 19730M 19775M
             19793M 19823M 19841M 19871M 19912M 19970M 20004M 20038M 20056M 20086M 20146M 20164M 20194M 20227M 20276M
             20319M 20360M 20405M 20423M 20453M 20480M 20480  20667M 20683M 20683  20703M 20727M 20751M 20775M 20799M
             20823M 20847M 20857  20935M 20947  20957M 20957  21007M 21059M 21069D 21071M 21071  21072M 21073U 21111M
             21129M 21139D 21141M 21141  21142M 21143U 21181M 21207M 21249M 21306M 21348M 21411M 21453M 21479M 21507M
             21533M 21561M 21603M 21603

1TAPE     (TAPE4072) (12:56) (15MAR04) Diagnostic Cross Reference and Assembler Summary                                     Page   67
-                                                                                            HLASM R4.0  2004/03/15 12.56
0     No Statements Flagged in this Assembly
 HIGH LEVEL ASSEMBLER, 5696-234, RELEASE 4.0, PTF P72483
0SYSTEM: OS/390 02.10.00            JOBNAME: WYL#TAPE    STEPNAME: ASM        PROCSTEP: (NOPROC)
0Datasets Allocated for this Assembly
  Con DDname   Dataset Name                                 Volume  Member
   P1 SYSIN    WYL.GS.WYL.WYLBUR.SOURCE                     SYSB05  TAPE
   L1 SYSLIB   WYL.GS.WYL.WYLBUR.MACLIB                     SYSB05
   L2          WYL.GG.SYS.MACLIB                            SYSB05
   L3          SYS3.IS.MACLIB                               SYSB05
   L4          SYS3.MACLIB                                  SYSB02
   L5          SYS1.MACLIB                                  MVSBR9
   L6          SYS1.MODGEN                                  MVSBR9
      SYSPRINT SYS04075.T125628.RA000.WYL#TAPE.PRINT.H01    SCR101
      SYSTERM  GG$SLP.WYL#TAPE.JOB03567.D0000101.?

    3668K allocated to Buffer Pool,         4333K would be required for this to be an In-Storage Assembly
     980 Primary Input Records Read        24575 Library Records Read                141 Work File Reads
       0 ASMAOPT Records Read               7326 Primary Print Records Written       169 Work File Writes
       0 Punch Records Written                 0 ADATA Records Written
0Assembly Start Time: 12.56.30 Stop Time: 12.56.45 Processor Time: 00.00.04.4521
 Return Code 000
