1                        J E S 2  J O B  L O G  --  S Y S T E M  S Y S B  --  N O D E  R L G
0
 12.49.30 JOB03546 ---- MONDAY,    15 MAR 2004 ----
 12.49.30 JOB03546  ICH70001I GG$SLP   LAST ACCESS AT 12:48:57 ON MONDAY, MARCH 15, 2004
 12.49.30 JOB03546  $HASP373 WYL#NET  STARTED - INIT 6    - CLASS B - SYS SYSB
 12.49.30 JOB03546  ***  HCMD      STEP $$QUIET
 12.49.30 JOB03546  PUR * Q OUT MUL
 12.49.31 JOB03546  JOB 5407 WYL#NET  WILL BE PURGED
 12.49.32 JOB03546  WYL#NET .$$QUIET .         RC=Zero TapeIO=0000 DiskIO=0000 CPU=  .01s Elapsed=70.99s
 12.49.44 JOB03546  WYL#NET .ASM     .         RC=Zero TapeIO=0000 DiskIO=0655 CPU= 4.48s Elapsed=72.07s
 12.49.45 JOB03546  WYL#NET .EDIT    .         RC=Zero TapeIO=0000 DiskIO=0218 CPU=  .66s Elapsed=84.26s
 12.49.45 JOB03546  WYL#NET  Ended.  Name=Assemble NET                   Total CPU= 5.15s Elapsed=70.99s
 12.49.45 JOB03546
 12.49.45 JOB03546  Execution charges   Priority=Standard   Block=Day
 12.49.45 JOB03546
 12.49.45 JOB03546  CPU Usage          95.06          $58.93   Standard Processing Unit Equivalent
 12.49.45 JOB03546                                   =======
 12.49.45 JOB03546                                    $58.93   Total Job execution charge
 12.49.45 JOB03546
 12.49.45 JOB03546  See back separator page for print charges
 12.49.45 JOB03546
 12.49.45 JOB03546  $HASP395 WYL#NET  ENDED  ASM=0, EDIT=0
1        1 //WYL#NET JOB SLP$GG,'Assemble NET',TIME=4,REGION=4M                    JOB03546
           //*
           /*JOBPARM LINES=99,COPIES=1
           /*JOBPARM FORMS=3HOL,PFORMAT=LAND,CHARS=BD13,DUPLEX=YES,FLASH=BAR4
           //*
           /*JOBPARM NOTIFY=GG.SLP,HOLD=OUTPUT                                     WYLGEN
         2 //$$QUIET EXEC PGM=HCMDX,PARM='PUR * Q OUT MUL'
           //*
         3 //ASM    EXEC PGM=ASMA90,REGION=8M,
           //            PARM=('NORENT,TERM,FLAG(NOCONT),US(MAP,WARN(10)),NODECK',
           //            'LC(32767),XREF(SHORT),ESD,DXREF,NOOBJECT')
         4 //STEPLIB DD DSN=SYS3.IS.TESTASM,DISP=SHR
         5 //SYSLIB   DD  DSN=WYL.GS.WYL.WYLBUR.MACLIB,DISP=SHR
         6 //         DD  DSN=WYL.GG.SYS.MACLIB,DISP=SHR
         7 //         DD  DSN=SYS3.IS.MACLIB,DISP=SHR
         8 //         DD  DSN=SYS3.MACLIB,DISP=SHR
         9 //         DD  DSN=SYS1.MACLIB,DISP=SHR
        10 //         DD  DSN=SYS1.MODGEN,DISP=SHR
        11 //SYSUT1   DD DSN=&&SYSUT1,UNIT=VIO,DISP=(,DELETE),
           //            SPACE=(4088,(500,250),,CONTIG,ROUND)
        12 //SYSTERM  DD SYSOUT=T
        13 //SYSPRINT DD DSN=&&PRINT,UNIT=SYSDA,DISP=(,PASS),
           //            SPACE=(6650,(250,250),RLSE),
           //            DCB=(BLKSIZE=6650,LRECL=133,RECFM=FB)
        14 //SYSUDUMP DD SYSOUT=A
        15 //SYSIN    DD  DSN=WYL.GS.WYL.WYLBUR.SOURCE(NET),DISP=SHR
           //*
        16 //EDIT    EXEC PGM=ASMEDIT,TIME=2,REGION=4000K,
           //             PARM='STMT'
        17 //STEPLIB  DD  DSN=WYL.GG.SYS.LINKLIB,DISP=SHR
        18 //ASMOUT   DD  DSN=&PRINT,DISP=(OLD,DELETE)
        19 //SYSPRINT DD  SYSOUT=A
1 STMT NO. MESSAGE
 -
        11 IGD01010I STORCLAS= TEMP STORGROUP =
        11 IGD01010I STORGRP=VIO ASSIGNED.
        13 IGD01010I STORCLAS= TEMP STORGROUP =
        13 IGD01010I STORGRP=VIO ASSIGNED.
 ICH70001I GG$SLP   LAST ACCESS AT 12:48:57 ON MONDAY, MARCH 15, 2004
 IEF142I WYL#NET $$QUIET - STEP WAS EXECUTED - COND CODE 0000
 *********************************************************************************
 *   WYL#NET /$$QUIET /                    Return Code      Zero                 *
 *   Region used      260K (16K user + 244K system)                              *
 *   Extended region  9692K (4K user + 9688K system)                             *
 *                                                                               *
 *   Paging              In      Out                                             *
 *   Private <-> Aux      0        0       CPU time (TCB)   00:00:00.01          *
 *   Private <-> Exp      0        0       CPU time (SRB)   00:00:00.00          *
 *   VIO                  0        0       Elapsed time    917:38:21.97          *
 *   Common               0      ---                                             *
 *                                                                               *
 *                                                                               *
 *   CPU Usage          0.18         $0.11  Standard Processing Unit Equivalent  *
 *                                   $0.11  Total Step execution charge          *
 *                                                                               *
 *    I/O count  DDname   Type Addr           I/O count  DDname   Type Addr      *
 *                         *** No I/O for this step ***                          *
 *********************************************************************************
 IEF373I STEP/$$QUIET /START 2004075.1249
 IEF374I STEP/$$QUIET /STOP  2004075.1249 CPU    0MIN 00.01SEC SRB    0MIN 00.00SEC VIRT    16K SYS   244K EXT       4K SYS    9688K
 IEF236I ALLOC. FOR WYL#NET ASM
 IEF237I 04DC ALLOCATED TO STEPLIB
 IEF237I 04DC ALLOCATED TO SYSLIB
 IEF237I 04DC ALLOCATED TO
 IEF237I 04DC ALLOCATED TO
 IEF237I 0402 ALLOCATED TO
 IEF237I 04A0 ALLOCATED TO
 IEF237I 04A0 ALLOCATED TO
 IGD101I SMS ALLOCATED TO DDNAME (SYSUT1  )
         DSN (SYS04075.T124930.RA000.WYL#NET.SYSUT1.H01   )
         STORCLAS (TEMP) MGMTCLAS (        ) DATACLAS (        )
         VOL SER NOS= VIO
 IEF237I JES2 ALLOCATED TO SYSTERM
 IGD101I SMS ALLOCATED TO DDNAME (SYSPRINT)
         DSN (SYS04075.T124930.RA000.WYL#NET.PRINT.H01    )
         STORCLAS (TEMP) MGMTCLAS (        ) DATACLAS (        )
         VOL SER NOS= SCR101
 IEF237I JES2 ALLOCATED TO SYSUDUMP
 IEF237I 04DC ALLOCATED TO SYSIN
 IEF142I WYL#NET ASM - STEP WAS EXECUTED - COND CODE 0000
 IEF285I   SYS3.IS.TESTASM                              KEPT
 IEF285I   VOL SER NOS= SYSB05.
 IEF285I   WYL.GS.WYL.WYLBUR.MACLIB                     KEPT
 IEF285I   VOL SER NOS= SYSB05.
 IEF285I   WYL.GG.SYS.MACLIB                            KEPT
 IEF285I   VOL SER NOS= SYSB05.
 IEF285I   SYS3.IS.MACLIB                               KEPT
 IEF285I   VOL SER NOS= SYSB05.
 IEF285I   SYS3.MACLIB                                  KEPT
 IEF285I   VOL SER NOS= SYSB02.
 IEF285I   SYS1.MACLIB                                  KEPT
 IEF285I   VOL SER NOS= MVSBR9.
 IEF285I   SYS1.MODGEN                                  KEPT
 IEF285I   VOL SER NOS= MVSBR9.
 IGD105I SYS04075.T124930.RA000.WYL#NET.SYSUT1.H01    DELETED,   DDNAME=SYSUT1
 IEF285I   GG$SLP.WYL#NET.JOB03546.D0000101.?           SYSOUT
 IGD106I SYS04075.T124930.RA000.WYL#NET.PRINT.H01     PASSED,    DDNAME=SYSPRINT
 IEF285I   GG$SLP.WYL#NET.JOB03546.D0000102.?           SYSOUT
 IEF285I   WYL.GS.WYL.WYLBUR.SOURCE                     KEPT
 IEF285I   VOL SER NOS= SYSB05.
 *********************************************************************************
 *   WYL#NET /ASM     /                    Return Code      Zero                 *
 *   Region used      4376K (4096K user + 280K system)                           *
 *   Extended region  10292K (412K user + 9880K system)                          *
 *                                                                               *
 *   Paging              In      Out                                             *
 *   Private <-> Aux      0        0       CPU time (TCB)   00:00:04.42          *
 *   Private <-> Exp      0        0       CPU time (SRB)   00:00:00.06          *
 *   VIO                  0        0       Elapsed time    917:38:20.89          *
 *   Common               0      ---                                             *
 *                                                                               *
 *                                                                               *
 *   CPU Usage         82.87        $51.37  Standard Processing Unit Equivalent  *
 *                                  $51.37  Total Step execution charge          *
 *                                                                               *
 *    I/O count  DDname   Type Addr           I/O count  DDname   Type Addr      *
 *           94  STEPLIB  Disk 04DC                 334  SYSLIB   Disk 04DC      *
 *            0  SYSLIB   Disk 04DC                   0  SYSLIB   Disk 04DC      *
 *            4  SYSLIB   Disk 0402                   0  SYSLIB   Disk 04A0      *
 *            0  SYSLIB   Disk 04A0                   0  SYSUT1   VIO  ----      *
 *            0  SYSTERM       ----                 215  SYSPRINT Disk 04E3      *
 *            0  SYSUDUMP      ----                   8  SYSIN    Disk 04DC      *
 *********************************************************************************
 IEF373I STEP/ASM     /START 2004075.1249
 IEF374I STEP/ASM     /STOP  2004075.1249 CPU    0MIN 04.42SEC SRB    0MIN 00.06SEC VIRT  4096K SYS   280K EXT     412K SYS    9880K
 IEF236I ALLOC. FOR WYL#NET EDIT
 IEF237I 0402 ALLOCATED TO STEPLIB
 IGD103I SMS ALLOCATED TO DDNAME ASMOUT
 IEF237I JES2 ALLOCATED TO SYSPRINT
 IEF142I WYL#NET EDIT - STEP WAS EXECUTED - COND CODE 0000
 IEF285I   WYL.GG.SYS.LINKLIB                           KEPT
 IEF285I   VOL SER NOS= SYSB02.
 IGD105I SYS04075.T124930.RA000.WYL#NET.PRINT.H01     DELETED,   DDNAME=ASMOUT
 IEF285I   GG$SLP.WYL#NET.JOB03546.D0000103.?           SYSOUT
 *********************************************************************************
 *   WYL#NET /EDIT    /                    Return Code      Zero                 *
 *   Region used      380K (116K user + 264K system)                             *
 *   Extended region  9812K (4K user + 9808K system)                             *
 *                                                                               *
 *   Paging              In      Out                                             *
 *   Private <-> Aux      0        0       CPU time (TCB)   00:00:00.64          *
 *   Private <-> Exp      0        0       CPU time (SRB)   00:00:00.02          *
 *   VIO                  0        0       Elapsed time    917:38:08.70          *
 *   Common               0      ---                                             *
 *                                                                               *
 *                                                                               *
 *   CPU Usage         12.00         $7.44  Standard Processing Unit Equivalent  *
 *                                   $7.44  Total Step execution charge          *
 *                                                                               *
 *    I/O count  DDname   Type Addr           I/O count  DDname   Type Addr      *
 *            2  STEPLIB  Disk 0402                 216  ASMOUT   Disk 04E3      *
 *            0  SYSPRINT      ----                                              *
 *********************************************************************************
 IEF373I STEP/EDIT    /START 2004075.1249
 IEF374I STEP/EDIT    /STOP  2004075.1249 CPU    0MIN 00.64SEC SRB    0MIN 00.02SEC VIRT   116K SYS   264K EXT       4K SYS    9808K
 *********************************************************************************
 *                                                                               *
 *                      S t a n f o r d   U n i v e r s i t y                    *
 *                                                                               *
 *                              *** Job Summary ***                              *
 *                                                                               *
 *   System Id      SYSB                   Input time     12:39:22  Mar 15, 2004 *
 *                                                                               *
 *   System Release SP6.1.0                Start time     12:49:30  Mar 15, 2004 *
 *                                                                               *
 *   Job name       WYL#NET                Stop  time     00:00:00  Mar 15, 2004 *
 *                                                                               *
 *   Account        SLP$GG                 Elapsed time  917:38:21.97            *
 *                                                                               *
 *   User Name      Assemble NET           CPU time       00:00:05.07            *
 *                                                                               *
 *   Job class      B                      SRB Time       00:00:00.08            *
 *                                                                               *
 *********************************************************************************
 IEF375I  JOB/WYL#NET /START 2004075.1249
 IEF376I  JOB/WYL#NET /STOP  2004075.1249 CPU    0MIN 05.07SEC SRB    0MIN 00.08SEC
1Assembler Done NET No Statements Flagged
1         High Level Assembler Option Summary                   (PTF P72483 )                                               Page    1
-                                                                                            HLASM R4.0  2004/03/15 12.49
0  No Overriding ASMAOPT Parameters
   Overriding Parameters-  NORENT,TERM,FLAG(NOCONT),US(MAP,WARN(10)),NODECK,LC(32767),XREF(SHORT),ESD,DXREF,NOOBJECT
   No Process Statements


   Options for this Assembly
0  NOADATA
     ALIGN
   NOASA
     BATCH
     CODEPAGE(047C)
   NOCOMPAT
   NODBCS
 3 NODECK
 3   DXREF
 3   ESD
   NOEXIT
 3   FLAG(0,ALIGN,NOCONT,NOIMPLEN,NOPAGE0,PUSH,RECORD,NOSUBSTR,USING0)
   NOFOLD
   NOGOFF
   NOINFO
     LANGUAGE(EN)
   NOLIBMAC
 3   LINECOUNT(32767)
     LIST(121)
     MXREF(SOURCE)
 3 NOOBJECT
     OPTABLE(UNI,NOLIST)
   NOPCONTROL
   NOPESTOP
   NOPROFILE
   NORA2
 3 NORENT
     RLD
     RXREF
     SIZE(MAX)
     SYSPARM()
 3   TERM(WIDE)
   NOTEST
     THREAD
   NOTRANSLATE
 3   USING(NOLIMIT,MAP,WARN(10))
 3   XREF(SHORT)

   No Overriding DD Names

1NET      External Symbol Dictionary                                                                                        Page    2
-Symbol   Type   Id     Address  Length     LD ID  Flags Alias-of                            HLASM R4.0  2004/03/15 12.49
0WYLNET    SD 00000001 00000000 00003AC8             00
 NET2025   LD          00000000           00000001
 HOSTINIT  LD          00000016           00000001
 SETHOST   LD          000000CC           00000001
 MTOKEN    ER 00000002
 MALL      ER 00000003
 NOTVALID  ER 00000004
 CLRHOSTS  LD          000005D0           00000001
 SHOWHOST  LD          00000732           00000001
 SHOWHSTS  LD          0000087E           00000001
 XSETSET   ER 00000005
 XPUT      ER 00000006
 NSCANSTR  ER 00000007
 SCANCHK   ER 00000008
 SEG       ER 00000009
 SCUPCASE  ER 0000000A
 NSCAN     ER 0000000B
 SEGT      ER 0000000C
 TREADQ    ER 0000000D
 LRTRIM    ER 0000000E
 XDELETE   ER 0000000F
 XDELSET   ER 00000010
 COLLOPTS  ER 00000011
 XGET      ER 00000012
 XGETNEXT  ER 00000013
 SEGCR     ER 00000014
 SETWNET   LD          00000B92           00000001
 SHOWWNET  LD          00000E26           00000001
 MINT      ER 00000015
 COLLPSH   ER 00000016
 SHOWTRC   LD          00000FEC           00000001
 NETDISP   LD          0000102C           00000001
 SHOWFTP   LD          00001308           00000001
 CLRFTP    LD          0000133C           00000001
 FREEETRC  ER 00000017
 DISPUNET  ER 00000018
 SEGDC     ER 00000019
 NTRCDISP  ER 0000001A
 HEXDUMP   ER 0000001B
 SEGHX     ER 0000001C
 NETOPEN   LD          00001520           00000001
 NETREAD   LD          000019CC           00000001
 NETWRITE  LD          00001AD6           00000001
 NETCLOSE  LD          00001CD0           00000001
 MARKHEAP  ER 0000001D
 GETHEAP   ER 0000001E
 NRESOLVE  ER 0000001F
 NPATALLO  ER 00000020
 NPATOPEN  ER 00000021
 RTRIM     ER 00000022
 NPATREAD  ER 00000023
 NPATXRD   ER 00000024
 SEGWR     ER 00000025
 CVEXNO    ER 00000026
 TOASCII   ER 00000027
1NET      External Symbol Dictionary                                                                                        Page    3
 YESNO     ER 00000028
 SEGCLR    ER 00000029
 NPATCTRL  ER 0000002A
 NPATCLS   ER 0000002B
 RELHEAP   ER 0000002C
 NETSCR    LD          00002090           00000001
 NETREN    LD          000022EE           00000001
 NETDIR    LD          00002322           00000001
 NETRESLV  LD          00002730           00000001
 NPATWAIT  ER 0000002D

1NET      WYLBUR's Network Interface                                                                                        Page    4
0Loc    Object Code    Addr1 Addr2  Stmt Lv Lineno    Source Statement                    (Asmedit 3.3)  HLASM R4.0  2004/03/15 12.49
+___    ______ ____    _____ _____  ____ __ ______    ______ _________
0                                      2              *******************************************************************
                                       3              *                                                                 *
                                       4              *     WYLBUR/370 - Release VI - Class I - Stanford Proprietary    *
                                       5              *                                                                 *
                                       6              *******************************************************************
                                       7                       HIBAL
                                     988
                                     989                       SYSDEFN
                                     990
 000000                00000 03AC8   991              WYLNET   CSECT
                                     995
                                     996              NET      IDENT 2025                11:49:25 01/25/02  (SLP)
                                     999             +
                                    1000    01-IDENT +         ENTRY NET2025
                                    1001             +
 000000 15D5C5E3F2F0F2F5            1002    01-IDENT +NET2025  DC    AL1(21),C'NET2025,15MAR04,12:49'
                                    1003             +*
                                    1005                       REGS  FSR,,,,,,,BR,(WAR,LSR),PAR,PBR,CPR,CVR,SPR,RAR
                                    1141
                                    1142                       PUSH  DSECTS
 USING  CP,R11                      1153             =         USING (CP),(CV)
 USING  CV,R12
 000016                00000 03AC8  1172             =         POP   PRINT
1NET      (NET2025) (12:49) (15MAR04) Common Control Blocks                                                                 Page    5
0Current Usings:  (CP,R11) (CV,R12)
0Loc    Object Code    Addr1 Addr2  Stmt Lv Lineno    Source Statement           (Hibal 5, Asmedit 3.3)  HLASM R4.0  2004/03/15 12.49
+___    ______ ____    _____ _____  ____ __ ______    ______ _________
0                                   7515                       COPY  FFINFO
                                    7516             =*
                                    7517             =*
                                    7518             =*  FILE INFO DSECT
                                    7519             =*
                                    7520             =*  THIS DSECT CONTAINS THE INFO NEEDED TO OPEN FILES.
                                    7521             =*  IT CONTAINS THE FILE NAME, FILE OPTIONS, FILE SYSTEM
                                    7522             =*  NAME AND FILE SYSTEM OPTIONS. THIS DSECT SHOULD CONTAIN
                                    7523             =*  ONLY DESCRIPTIVE INFO NEEDED TO OPEN THE FILE.
                                    7524             =*
                                    7525             =*
                                    7526             =FNAMELN  EQU   128                 MAXIMUM FILE NAME LENGTH
                                    7527             =FSYSLN   EQU   128                 MAXIMUM FILE SYSTEM LENGTH
                                    7528             =FHOSTLN  EQU   128                 MAXIMUM FILE SYSTEM HOST LENGTH
                                    7529             =*
                                    7530             =*
 000000                00000 003A0  7531             =FFINFO   RECORD BEGIN
 000000 00                          7539  1          =FFTYPE     FLAG  ,                   FILE SYSTEM TYPE FLAGS
 FFTYPE.FFFWINGS   01 EQ            7543  1          =           FLAG  (FFFWINGS,1,EQ)     WINGS
 FFTYPE.FFFUNIX    02 EQ            7553  1          =           FLAG  (FFFUNIX,2,EQ)      UNIX (NOT IMPLEMENTED)
 FFTYPE.FFFSAM     03 EQ            7563  1          =           FLAG  (FFFSAM,3,EQ)       SAMSON
 FFTYPE.FFFNET     04 EQ            7573  1          =           FLAG  (FFFNET,4,EQ)       NET
 FFTYPE.FFFOLD     05 EQ            7583  1          =           FLAG  (FFFOLD,5,EQ)       OLD IBM
 000001 00                          7593  1          =FFRQTYPE   FLAG  ,                   REQUEST TYPE FLAGS
 FFRQTYPE.FFFREAD  01 EQ            7597  1          =           FLAG  (FFFREAD,1,EQ)      READ (DEFAULT)
 FFRQTYPE.FFFWRITE 02 EQ            7607  1          =           FLAG  (FFFWRITE,2,EQ)     WRITE
 FFRQTYPE.FFFAPPD  04 EQ            7617  1          =           FLAG  (FFFAPPD,4,EQ)      APPEND
 FFRQTYPE.FFFREPL  08 EQ            7627  1          =           FLAG  (FFFREPL,8,EQ)      REPLACE
 000002 00                          7637  1          =FFMISC     FLAG  ,                   MISC FLAGS
 FFMISC.FFFPASSW   80 ONES          7641  1          =           FLAG  FFFPASSW            PASSWORD ACCESS OK
 FFMISC.FFFDIFFV   40 ONES          7646  1          =           FLAG  FFFDIFFV            DIFFERENT VOL SAVE OK
 FFMISC.FFFCHFMT   20 ONES          7651  1          =           FLAG  FFFCHFMT            CHANGE DSN FORMAT OK
 FFMISC.FFFNRACF   10 ONES          7656  1          =           FLAG  FFFNRACF            NO RACF PROCESSING
 FFMISC.FFFPDS     08 ONES          7661  1          =           FLAG  FFFPDS              OP APPLIES TO PDS
 000003 00                          7666  1          =FFPTYPE    FLAG  ,                   PREVIOUS FILE TYPE
 FFPTYPE.FFFPWINGS 01 EQ            7670  1          =           FLAG  (FFFPWINGS,1,EQ)    WINGS
 FFPTYPE.FFFPUNIX  02 EQ            7680  1          =           FLAG  (FFFPUNIX,2,EQ)     UNIX (NOT IMPLEMENTED)
 FFPTYPE.FFFPSAM   03 EQ            7690  1          =           FLAG  (FFFPSAM,3,EQ)      SAMSON
 FFPTYPE.FFFPNET   04 EQ            7700  1          =           FLAG  (FFFPNET,4,EQ)      NET
 FFPTYPE.FFFPOLD   05 EQ            7710  1          =           FLAG  (FFFPOLD,5,EQ)      OLD IBM
 000004 00                          7720  1          =FFFLAG4    FLAG  ,
 000008                             7724  1          =FFNAMEL    DS    F                   FILE NAME
 00000C                             7725  1          =FFNAME     DS    CL128
 00008C                             7726  1          =FFHOSTL    DS    F                   FILE HOST
 000090                             7727  1          =FFHOST     DS    CL128
 000110                             7728  1          =FFOPTSL    DS    F                   FILE OPTIONS (FORMAT ETC)
 000114                             7729  1          =FFOPTS     DS    CL256
 000214                             7730  1          =FFRNAMEL   DS    F                   RESOLVED FULL FILE NAME
 000218                             7731  1          =FFRNAME    DS    CL128
 000298                             7732  1          =FFPNAMEL   DS    F                   PREVIOUS FILE NAME (IE. *)
 00029C                             7733  1          =FFPNAME    DS    CL128
 00031C                             7734  1          =FFPHOSTL   DS    F                   PREVIOUS HOST
 000320                             7735  1          =FFPHOST    DS    CL128
 0003A0                003A0 003A0  7736             =         END   ,
1NET      (NET2025) (12:49) (15MAR04) Common Control Blocks                                                                 Page    6
0Current Usings:  (CP,R11) (CV,R12)
0Loc    Object Code    Addr1 Addr2  Stmt Lv Lineno    Source Statement           (Hibal 5, Asmedit 3.3)  HLASM R4.0  2004/03/15 12.49
+___    ______ ____    _____ _____  ____ __ ______    ______ _________
0                                   7746              ¿þþþþþþþþþþþþþþþþþþþþþþþþþþþþþþþþþþþþþþþþþþþþþþþþþþþþþþþþþþþþþþþþþþþþþÜ
                                    7747              Ÿ                                                                     Ÿ
                                    7748              Ÿ  Network File Device Work Area                                      Ÿ
                                    7749              Ÿ                                                                     Ÿ
                                                      ¾þþþþþþþþþþþþþþþþþþþþþþþþþþþþþþþþþþþþþþþþþþþþþþþþþþþþþþþþþþþþþþþþþþþþþ»
0000000                00000 0017C  7750              NETWA    RECORD BEGIN
 000000                             7758  1                      DS    C'NET '             Self identification
                                    7759  1
 000004 00                          7760  1           NWAFLAG    FLAG
 NWAFLAG.NWAFOPEN  80 ONES          7764  1                      FLAG  NWAFOPEN            - File is open
 NWAFLAG.NWAFWR    40 ONES          7769  1                      FLAG  NWAFWR              - Writing data (SAVE command)
 000005 00                          7774  1           NWAFLAG2   FLAG  ,
 NWAFLAG2.NWAFGUES 80 ONES          7778  1                      FLAG  NWAFGUEST
 NWAFLAG2.NWAFASCI 40 ONES          7783  1                      FLAG  NWAFASCII
 NWAFLAG2.NWAFTRAN 20 ONES          7788  1                      FLAG  NWAFTRAN
 NWAFLAG2.NWAFTABS 10 ONES          7793  1                      FLAG  NWAFTABS
                                    7798  1
 000008                             7799  1           NWAFNAMEL   DS   F                   File name length
 00000C                             7800  1           NWAFNAME   DS    XL(L'FFNAME)        File name
                                    7801  1
 00008C                             7802  1           NWAHOSTL   DS    F                   Host name length
 000090                             7803  1           NWAHOST    DS    XL(L'FFHOST)         Host name
                                    7804  1
 000110                             7805  1           NWALIKAD   DS    A                   Show dir like string
 000114                             7806  1           NWALIKLN   DS    F
 000118                             7807  1           NWANEWAD   DS    A                   Rename new name
 00011C                             7808  1           NWANEWLN   DS    F
                                    7809  1
 000120                             7810  1           NWANUSER   DS    CL32                Network user id
 000140                             7811  1           NWANPASS   DS    CL32                Network password
                                    7812  1
 000160                             7813  1           NWAUNETP   DS    A                   Primary UNET ptr
 000164                             7814  1           NWAUSG     DS    A                   Primary UNET output SEGCB ptr
                                    7815  1
 000168                             7816  1           NWADNETP   DS    A                   Data UNET ptr
 00016C                             7817  1           NWADSG     DS    A                   Data UNET output SEGCB ptr
                                    7818  1
 000170                             7819  1           NWALNO     DS    F                   Working line-number
                                    7820  1
 000174                             7821  1           NWAOHEAP   DS    A                   Old heap ptr
 000178                             7822  1           NWANHEAP   DS    A                   Current heap ptr
 00017C                0017C 0017C  7823                       END
1NET      (NET2025) (12:49) (15MAR04) Common Control Blocks                                                                 Page    7
0Current Usings:  (CP,R11) (CV,R12)
0Loc    Object Code    Addr1 Addr2  Stmt Lv Lineno    Source Statement           (Hibal 5, Asmedit 3.3)  HLASM R4.0  2004/03/15 12.49
+___    ______ ____    _____ _____  ____ __ ______    ______ _________
0                                   7833                       ¿þþþþþþþþþþþþþþþþþþþþþþþÜ
                                    7834                       Ÿ  Well known sockets.  Ÿ
                                    7835                       ¾þþþþþþþþþþþþþþþþþþþþþþþ»
                                    7836              FTPPORT# EQU   21,,C'N'            File transfer socket
-                                   7838                       ¿þþþþþþþþþþþþþþþþþþþþþþþþþþþþþþþþþþþþþþþÜ
                                    7839                       Ÿ  Special telnet control byte values.  Ÿ
                                    7840                       ¾þþþþþþþþþþþþþþþþþþþþþþþþþþþþþþþþþþþþþþþ»
                                    7841              $CTRLC   EQU   X'03',,C'N'         ASCII ctrl-C (treated as break)
                                    7842              $TAB     EQU   X'09',,C'N'         ASCII tab
                                    7843              $LF      EQU   X'0A',,C'N'         ASCII line-feed
                                    7844              $CR      EQU   X'0D',,C'N'         ASCII carriage return
                                    7845              $BLANK   EQU   X'20',,C'N'         ASCII blank
                                    7846
                                    7847              $SE      EQU   X'F0',,C'N'         240: End of subparms
                                    7848              $NOP     EQU   X'F1',,C'N'         241: No operation
                                    7849              $DM      EQU   X'F2',,C'N'         242: Data mark
                                    7850              $BRK     EQU   X'F3',,C'N'         243: Break
                                    7851              $IP      EQU   X'F4',,C'N'         244: Interrupt process
                                    7852              $ABORT   EQU   X'F5',,C'N'         245: Abort output
                                    7853              $AYT     EQU   X'F6',,C'N'         246: Are you there
                                    7854              $EC      EQU   X'F7',,C'N'         247: Erase character
                                    7855              $EL      EQU   X'F8',,C'N'         248: Erase line
                                    7856              $GA      EQU   X'F9',,C'N'         249: Go ahead
                                    7857              $SB      EQU   X'FA',,C'N'         250: Start of subparms
                                    7858              $WILL    EQU   X'FB',,C'N'         251: Will
                                    7859              $WONT    EQU   X'FC',,C'N'         252: Won't
                                    7860              $DO      EQU   X'FD',,C'N'         253: Do
                                    7861              $DONT    EQU   X'FE',,C'N'         254: Don't
                                    7862              $IAC     EQU   X'FF',,C'N'         255: I am a control byte
                                    7863
                                    7864              $BINARY  EQU   X'00',,C'N'         0:   Transmit-binary
                                    7865              $ECHO    EQU   X'01',,C'N'         1:   Echo
                                    7866              $SGA     EQU   X'03',,C'N'         3:   Suppress go ahead
                                    7867              $TTYPE   EQU   X'18',,C'N'         24:  Terminal type
                                    7868
                                    7869              $CRLF    EQU   1000,,C'N'          Our internal code for CR/LF
                                    7870              $STOP    EQU   1001,,C'N'          Our internal code for "stop!"
1NET      (NET2025) (12:49) (15MAR04) SET/SHOW/CLEAR HOSTS Commands                                                         Page    8
0Current Usings:  (CP,R11) (CV,R12)
0Loc    Object Code    Addr1 Addr2  Stmt Lv Lineno    Source Statement           (Hibal 5, Asmedit 3.3)  HLASM R4.0  2004/03/15 12.49
+___    ______ ____    _____ _____  ____ __ ______    ______ _________
0000000                00000 000E1  7872              HOSTWA   RECORD BEGIN
 000000 00                          7880  1           HOSTFLAG   FLAG
 HOSTFLAG.HOSFUNIX 80 ONES          7884  1                      FLAG  HOSFUNIX            - Unix/NoUnix option
 HOSTFLAG.HOSFNOUN 40 ONES          7889  1                      FLAG  HOSFNOUNIX          - NoUnix option
 HOSTFLAG.HOSFDCUR 20 ONES          7894  1                      FLAG  HOSFDCUR            - We displayed current host
                                    7899  1
 000001                             7900  1           HOSTHOST   DS    CL(L'CPHOST)        Working host name
 000021                             7901  1           HOSTUSER   DS    CL32                Working user name
 000041                             7902  1           HOSTPASS   DS    CL32                Working password
                                    7903  1
 000061                             7904  1           HOSTKEY    DS    CL64                Working record key area
                                    7905  1
 0000A1                             7906  1           HOSTDATA   DS    CL64                Working record data area
 0000E1                000E1 000E1  7907                       END
-                                   7917              ¿þþþþþþþþþþþþþþþþþþþþþþþþþþþþþþþþþþþþþþþþþþþþþþþþþþþþþþþþþþþþþþþþþþþþþÜ
                                    7918              Ÿ                                                                     Ÿ
                                    7919              Ÿ  HOSTINIT -- Routine to set up the user's default network host      Ÿ
                                    7920              Ÿ    and network user-id.  This routine is called whewn the user      Ÿ
                                    7921              Ÿ    first logs on.                                                   Ÿ
                                    7922              Ÿ                                                                     Ÿ
                                    7923              Ÿ    On entry:                                                        Ÿ
                                    7924              Ÿ      R1 - KWR ptr                                                   Ÿ
                                    7925              Ÿ                                                                     Ÿ
                                                      ¾þþþþþþþþþþþþþþþþþþþþþþþþþþþþþþþþþþþþþþþþþþþþþþþþþþþþþþþþþþþþþþþþþþþþþ»
0000016 50E0 D000/9008_      00000  7926              HOSTINIT XPROC HOSTWA
 USING  *,R7
 USING  HOSTWA-(4+36),R8
 000030 D7E0 8028 8028 00000 00000  7977                       CLEAR HOSTWA
                                    7984
 000036 1851                        7985                       LR    R5,R1
 USING  KWR,R5                      7986                       WITH  (KWR,R5)
                                    7999                       ¿þþþþþþþþþþþþþþþþþþþþþþþþþþþþþþþþþþþþþþþþþþÜ
                                    8000                       Ÿ  Build default network host and userid.  Ÿ
                                    8001                       ¾þþþþþþþþþþþþþþþþþþþþþþþþþþþþþþþþþþþþþþþþþþ»
 000038 D21F 8029 C4D8 00001 004D8  8002                       MVC   HOSTHOST,CVBLANKS
 00003E D61F 51CC 51CC_001CC 001CC  8003                       IF    (KWRNETH,NZ),'MVC HOSTHOST(L"KWRNETH),KWRNETH'
 00004E 7022/47F0 7028_0004E 00046  8025                       ELSE  'MVC HOSTHOST(5),=C"LINDY"'  Universal host
                                    8042
 000058 D21F 8049 C4D8 00021 004D8  8043                       MVC   HOSTUSER,CVBLANKS
 00005E D60F 51BC 51BC_001BC 001BC  8044                       IF    (KWRNETU,NZ),'MVC HOSTUSER(L"KWRNETU),KWRNETU'
 00006E 7042/47F0 7048_0006E 00066  8066                       ELSE  'MVC HOSTUSER(5),=C"GUEST"'  Universal userid
                                    8083
 000078 58F0 C8AC            008AC  8084                       L     R15,CVLOWTBL
 00007C DC1F 8049 F000 00021 00000  8085                       TR    HOSTUSER,@R15       Convert userid to lower case
                                    8086                       ¿þþþþþþþþþþþþþþþþþþþþþþþþþþþþþþþþþþþþþþþþþÜ
                                    8087                       Ÿ  Save information in user's host list.  Ÿ
                                    8088                       ¾þþþþþþþþþþþþþþþþþþþþþþþþþþþþþþþþþþþþþþþþþ»
 000082 4100 0012            00012  8089                       LA    R0,CP#HOSTI         Host information record set
 000086 41F0 B544            00544  8090                       LA    R15,CPRG64          Misc keylen 64 record group
 00008A 58E0 7A38/0DEE       00A68  8091                       VCALL XSETSET             Switch into correct RG
                                    8095
1NET      (NET2025) (12:49) (15MAR04) SET/SHOW/CLEAR HOSTS Commands                                                         Page    9
0Current Usings:  (KWR,R5) (*,R7) (HOSTWA-(4+36),R8) (CP,R11) (CV,R12)
0Loc    Object Code    Addr1 Addr2  Stmt Lv Lineno    Source Statement           (Hibal 5, Asmedit 3.3)  HLASM R4.0  2004/03/15 12.49
+___    ______ ____    _____ _____  ____ __ ______    ______ _________
0000090 D23F 8089 C4D8 00061 004D8  8096                       MVC   HOSTKEY,CVBLANKS
 000096 D204 8089 7AD2 00061 00B02  8097                       MVC   HOSTKEY(5),=C'USER_'
 00009C D21F 808E 8029 00066 00001  8098                       MVC   HOSTKEY+5(L'HOSTHOST),HOSTHOST
                                    8099
 0000A2 4120 8089            00061  8100                       LA    R2,HOSTKEY          Key
 0000A6 4110 8049/4100_      00021  8101                       SETMSG HOSTUSER            Data
 0000AE 41F0 B544            00544  8115                       LA    R15,CPRG64
 0000B2 58E0 7A3C/0DEE       00A6C  8116                       VCALL XPUT                Save the user-id
                                    8120                       ¿þþþþþþþþþþþþþþþþþþþþþþþþþþþþþþþÜ
                                    8121                       Ÿ  Make this the current host.  Ÿ
                                    8122                       ¾þþþþþþþþþþþþþþþþþþþþþþþþþþþþþþþ»
 0000B8 D21F B1BD 8029 001BD 00001  8123                       MVC   CPHOST,HOSTHOST     Set current host name
 0000BE 18D8/9808 D004_             8124                       PEND
 DROP   KWR,R5
 DROP   HOSTWA-(4+36),R8
 DROP   *,R7
1NET      (NET2025) (12:49) (15MAR04) SET/SHOW/CLEAR HOSTS Commands                                                         Page   10
0Current Usings:  (CP,R11) (CV,R12)
0Loc    Object Code    Addr1 Addr2  Stmt Lv Lineno    Source Statement           (Hibal 5, Asmedit 3.3)  HLASM R4.0  2004/03/15 12.49
+___    ______ ____    _____ _____  ____ __ ______    ______ _________
0                                   8155              ¿þþþþþþþþþþþþþþþþþþþþþþþþþþþþþþþþþþþþþþþþþþþþþþþþþþþþþþþþþþþþþþþþþþþþþÜ
                                    8156              Ÿ                                                                     Ÿ
                                    8157              Ÿ  SETHOST -- SET HOST Command.                                       Ÿ
                                    8158              Ÿ                                                                     Ÿ
                                                      ¾þþþþþþþþþþþþþþþþþþþþþþþþþþþþþþþþþþþþþþþþþþþþþþþþþþþþþþþþþþþþþþþþþþþþþ»
00000CC 50E0 D000/9008_      00000  8159              SETHOST  XPROC HOSTWA
 USING  *,R7
 USING  HOSTWA-(4+36),R8
 0000E6 4160 8028            00000  8210                       LA    R6,HOSTWA
 USING  HOSTWA,R6                   8211                       USING HOSTWA,R6
 0000EA D7E0 6000 6000 00000 00000  8220                       CLEAR HOSTWA
                                    8227
 0000F0 5810 B08C/1B00_      0008C  8228                       SCANSTR ,                 Pick up next token
 000136 58E0 798E/0DEE       00A74  8257                       SCANCHK
 00013C 1200/4770 707A              8262                       IF    (R0,Z),BEGIN
 000142 4110 7A21/4100_      00B07  8276  1                      TSEG  'Missing host name; '
 000154 4110 79E4/4100_      00ACA  8294  1                      ERROR 'expecting "SET HOST host USER userid".'
 000160                             8301                       END
                                    8305
 000160 5900 7996/47D0_      00A7C  8306                       IF    (R0,GT,L'CPHOST),BEGIN
 000168 41F0 B050/58E0_      00050  8323  1                      TSEG  (R1),(R0)
 000172 4110 793A/4100_      00A20  8347  1                      ERROR ': host name is too long.'
 00017E                             8354                       END
                                    8358
 00017E 58F0 B08C/4110_      0008C  8359                       SCUPCASE HOSTHOST,L'HOSTHOST
                                    8382
 000190 5810 B08C/1B00_      0008C  8383                       SCAN  SETHPRT             Scan SET HOST options
 0001E2 58E0 798E/0DEE       00A74  8415                       SCANCHK
                                    8420                       ¿þþþþþþþþþþþþþþþþþþþþþþþþÜ
                                    8421                       Ÿ  Prompt for password.  Ÿ
                                    8422                       ¾þþþþþþþþþþþþþþþþþþþþþþþþ»
 0001E8 D501 7A0A 6041_00AF0 00041  8423                       WHILE (HOSTPASS,EQ,'* '),BEGIN
 0001F2 4110 7A34/4100_      00B1A  8442  1                      TSEG  'Enter password for '
 000204 D61F 6021 6021_00021 00021  8460  1                      IF    (HOSTUSER,NZ),'TSEG HOSTUSER,,T; TSEG " on "'
 000232 4110 6001/4100_      00001  8527  1                      TSEG  HOSTHOST,,T
 000244 9640 BC7B      00C7B        8555  1                      SET   CPFNECHO
 000248 1B00/1BFF/58E0_             8561  1                      TREAD (R1),0,Q
 000252 94BF BC7B      00C7B        8581  1                      CLEAR CPFNECHO
                                    8588  1
 000256 12FF/4780 717C_             8589  1                      IF    (R15,NZ),'CLEAR HOSTPASS'  Attn means don't set pw
                                    8615  1
 000262 7180/47F0 71A6 00262 0025A  8616  1                      ELSE  BEGIN               Otherwise save new password...
 000266 58E0 79B2/0DEE       00A98  8627  2                        VCALL LRTRIM
 00026C 18F0                        8631  2                        LR    R15,R0
 00026E 59F0 79B6/47D0_      00A9C  8632  2                        CEIL  R15,L'HOSTPASS
 00027A D21F 6041 C4D8 00041 004D8  8651  2                        MVC   HOSTPASS,CVBLANKS
 000280 06F0/12FF/4740_             8652  2                        MOVE  R15,HOSTPASS,@R1    Save new password
 00028C                             8690  1                      END
 00028C 47F0 7102            001E8  8694                       END
                                    8699
 000290 4100 0012            00012  8700                       LA    R0,CP#HOSTI         Host information record set
 000294 41F0 B544            00544  8701                       LA    R15,CPRG64          Misc keylen 64 record group
 000298 58E0 7982/0DEE       00A68  8702                       VCALL XSETSET             Switch into correct RG
1NET      (NET2025) (12:49) (15MAR04) SET/SHOW/CLEAR HOSTS Commands                                                         Page   11
0Current Usings:  (HOSTWA,R6) (*,R7) (HOSTWA-(4+36),R8) (CP,R11) (CV,R12)
0Loc    Object Code    Addr1 Addr2  Stmt Lv Lineno    Source Statement           (Hibal 5, Asmedit 3.3)  HLASM R4.0  2004/03/15 12.49
+___    ______ ____    _____ _____  ____ __ ______    ______ _________
0                                   8706                       ¿þþþþþþþþþþþþþþþþþþþþþþþþþþþþþþþþÜ
                                    8707                       Ÿ  SET HOST USER userid option.  Ÿ
                                    8708                       ¾þþþþþþþþþþþþþþþþþþþþþþþþþþþþþþþþ»
 00029E D61F 6021 6021_00021 00021  8709                       IF    (HOSTUSER,NZ),BEGIN  Userid was specified...
 0002A8 D23F 6061 C4D8 00061 004D8  8725  1                      MVC   HOSTKEY,CVBLANKS
 0002AE D204 6061 7A1C 00061 00B02  8726  1                      MVC   HOSTKEY(5),=C'USER_'
 0002B4 D21F 6066 6001 00066 00001  8727  1                      MVC   HOSTKEY+5(L'HOSTHOST),HOSTHOST
                                    8728  1
 0002BA 4120 6061            00061  8729  1                      LA    R2,HOSTKEY          Key
 0002BE 4110 6021/4100_      00021  8730  1                      SETMSG HOSTUSER            Data
 0002C6 41F0 B544            00544  8744  1                      LA    R15,CPRG64
 0002CA 58E0 7986/0DEE       00A6C  8745  1                      VCALL XPUT                Save the user-id
                                    8749  1
 0002D0 D204 6061 7A47 00061 00B2D  8750  1                      MVC   HOSTKEY(5),=C'PASS_'
 0002D6 4120 6061            00061  8751  1                      LA    R2,HOSTKEY
 0002DA 41F0 B544            00544  8752  1                      LA    R15,CPRG64
 0002DE 58E0 79BA/0DEE       00AA0  8753  1                      VCALL XDELETE             Delete any previous password
 0002E4                             8757                       END
                                    8761                       ¿þþþþþþþþþþþþþþþþþþþþþþþþþþþþþþþþþþÜ
                                    8762                       Ÿ  SET HOST PASS password option.  Ÿ
                                    8763                       ¾þþþþþþþþþþþþþþþþþþþþþþþþþþþþþþþþþþ»
 0002E4 D61F 6041 6041_00041 00041  8764                       IF    (HOSTPASS,NZ),BEGIN  Password was specified...
 0002EE D23F 6061 C4D8 00061 004D8  8780  1                      MVC   HOSTKEY,CVBLANKS
 0002F4 D204 6061 7A47 00061 00B2D  8781  1                      MVC   HOSTKEY(5),=C'PASS_'
 0002FA D21F 6066 6001 00066 00001  8782  1                      MVC   HOSTKEY+5(L'HOSTHOST),HOSTHOST
                                    8783  1
 000300 4120 6061            00061  8784  1                      LA    R2,HOSTKEY          Key
 000304 4110 6041/4100_      00041  8785  1                      SETMSG HOSTPASS            Data
 00030C 41F0 B544            00544  8799  1                      LA    R15,CPRG64
 000310 58E0 7986/0DEE       00A6C  8800  1                      VCALL XPUT                Save the password
 000316                             8804                       END
                                    8808                       ¿þþþþþþþþþþþþþþþþþþþþþþþþþÜ
                                    8809                       Ÿ  SET HOST UNIX option.  Ÿ
                                    8810                       ¾þþþþþþþþþþþþþþþþþþþþþþþþþ»
 000316 9180 6000/47E0_00000        8811                       IF    HOSFUNIX,BEGIN      Unix/NoUnix was specified...
 00031E D23F 6061 C4D8 00061 004D8  8826  1                      MVC   HOSTKEY,CVBLANKS
 000324 D204 6061 7A4C 00061 00B32  8827  1                      MVC   HOSTKEY(5),=C'UNIX_'
 00032A D21F 6066 6001 00066 00001  8828  1                      MVC   HOSTKEY+5(L'HOSTHOST),HOSTHOST
                                    8829  1
 000330 4120 6061            00061  8830  1                      LA    R2,HOSTKEY          Key
 000334 4110 79BE/4100_      00AA4  8831  1                      SETMSG 'TRUE'              Data
 00033C 41F0 B544            00544  8835  1                      LA    R15,CPRG64
 000340 9140 6000/47E0_00000        8836  1                      IF    HOSFNOUNIX,'VCALL XDELETE'  NOUNIX
 00034E 726C/47F0 7272_0034E 00346  8860  1                      ELSE  'VCALL XPUT'        UNIX
 000358                             8880                       END
                                    8884                       ¿þþþþþþþþþþþþþþþþþþþþþþþþþþþþþþþÜ
                                    8885                       Ÿ  Make this the current host.  Ÿ
                                    8886                       ¾þþþþþþþþþþþþþþþþþþþþþþþþþþþþþþþ»
 000358 D21F B1BD 6001 001BD 00001  8887                       MVC   CPHOST,HOSTHOST     Set current host name
                                    8888
 00035E 47F0 C7DE            007DE  8889                       B     CVNEXT
 000362 18D8/9808 D004_             8890                       PEND  ,
 DROP   HOSTWA-(4+36),R8
 DROP   *,R7
1NET      (NET2025) (12:49) (15MAR04) SET/SHOW/CLEAR HOSTS Commands                                                         Page   12
0Current Usings:  (HOSTWA,R6) (CP,R11) (CV,R12)
0Loc    Object Code    Addr1 Addr2  Stmt Lv Lineno    Source Statement           (Hibal 5, Asmedit 3.3)  HLASM R4.0  2004/03/15 12.49
+___    ______ ____    _____ _____  ____ __ ______    ______ _________
0                                   8915                       ¿þþþþþþþþþþþþþþþþþþþþþÜ
                                    8916                       Ÿ  SET HOST Options.  Ÿ
                                    8917                       ¾þþþþþþþþþþþþþþþþþþþþþ»
 000370 E4E2C5D940404040_           8918              SETHPRT  SCKW  USER,SETHUSER,A
 000398 D7C1E2E2E6D6D9C4_           8933                       SCKW  PASSWORD,SETHPASS,A
 0003C0 E4D5C9E740404040_           8948                       SCKW  UNIX,SETHUNIX,A
 0003E8 D5D6E4D5C9E74040_           8963                       SCKW  NOUNIX,SETHNOUX,A
 000410 4040404040404040_           8978                       SCKW  ,V(NOTVALID)
                                    8993
 000438 50E0 D000/9008_      00000  8994              SETHUSER PROC  ,
 USING  *,R7
 000452 5810 B08C/1B00_      0008C  9033                       SCANSTR ,                 Get next token
 000498 58E0 7622/0DEE       00A74  9062                       SCANCHK
 00049E 1200/4780 C7F0              9067                       IF    (R0,Z),CVABSENT
 0004A4 18F0                        9084                       LR    R15,R0
 0004A6 59F0 7656/47D0_      00AA8  9085                       CEIL  R15,L'HOSTUSER
 0004B2 D21F 6021 C4D8 00021 004D8  9104                       MVC   HOSTUSER,CVBLANKS
 0004B8 06F0/12FF/4740_             9105                       MOVE  R15,HOSTUSER,@R1    Save userid
 0004C4 1BFF                        9143                       CLEAR R15
 0004C6 18D8/9808 D004_             9147                       PEND
 DROP   *,R7
                                    9167
 0004D4 50E0 D000/9008_      00000  9168              SETHPASS PROC  ,
 USING  *,R7
 0004EE 5810 B08C/1B00_      0008C  9207                       SCANSTR ,                 Get next token
 000534 58E0 7586/0DEE       00A74  9236                       SCANCHK
 00053A 1200/4780 C7F0              9241                       IF    (R0,Z),CVABSENT
 000540 18F0                        9258                       LR    R15,R0
 000542 59F0 75AE/47D0_      00A9C  9259                       CEIL  R15,L'HOSTPASS
 00054E D21F 6041 C4D8 00041 004D8  9278                       MVC   HOSTPASS,CVBLANKS
 000554 06F0/12FF/4740_             9279                       MOVE  R15,HOSTPASS,@R1    Save password
 000560 1BFF                        9317                       CLEAR R15
 000562 18D8/9808 D004_             9321                       PEND
 DROP   *,R7
                                    9341
 000570 50E0 D000/9008_      00000  9342              SETHUNIX PROC  ,
 USING  *,R7
 00058A 9680 6000      00000        9381                       SET   HOSFUNIX
 00058E 94BF 6000      00000        9387                       CLEAR HOSFNOUNIX
 000592 18D8/9808 D004_             9394                       PEND  ,
 DROP   *,R7
                                    9414
 0005A0 50E0 D000/9008_      00000  9415              SETHNOUX PROC  ,
 USING  *,R7
 0005BA 9680 6000      00000        9454                       SET   HOSFUNIX
 0005BE 9640 6000      00000        9460                       SET   HOSFNOUNIX
 0005C2 18D8/9808 D004_             9466                       PEND
 DROP   *,R7
                                    9486
 DROP   HOSTWA,R6                   9487                       DROP  R6
                                    9494
1NET      (NET2025) (12:49) (15MAR04) SET/SHOW/CLEAR HOSTS Commands                                                         Page   13
0Current Usings:  (CP,R11) (CV,R12)
0Loc    Object Code    Addr1 Addr2  Stmt Lv Lineno    Source Statement           (Hibal 5, Asmedit 3.3)  HLASM R4.0  2004/03/15 12.49
+___    ______ ____    _____ _____  ____ __ ______    ______ _________
0                                   9496              ¿þþþþþþþþþþþþþþþþþþþþþþþþþþþþþþþþþþþþþþþþþþþþþþþþþþþþþþþþþþþþþþþþþþþþþÜ
                                    9497              Ÿ                                                                     Ÿ
                                    9498              Ÿ  CLRHOSTS -- CLEAR HOSTS Command.                                   Ÿ
                                    9499              Ÿ                                                                     Ÿ
                                                      ¾þþþþþþþþþþþþþþþþþþþþþþþþþþþþþþþþþþþþþþþþþþþþþþþþþþþþþþþþþþþþþþþþþþþþþ»
00005D0 50E0 D000/9008_      00000  9500              CLRHOSTS XPROC HOSTWA
 USING  *,R7
 USING  HOSTWA-(4+36),R8
 0005EA D7E0 8028 8028 00000 00000  9551                       CLEAR HOSTWA
                                    9558
 0005F0 5810 B08C/1B00_      0008C  9559                       SCANSTR ,                 Pick up host name
 000636 58E0 748A/0DEE       00A74  9588                       SCANCHK
 00063C 1200/4780 7088              9593                       IF    (R0,NZ),BEGIN       We got a host name...
 000642 5900 7492/47D0_      00A7C  9607  1                      IF    (R0,GT,L'CPHOST),BEGIN
 00064A 41F0 B050/58E0_      00050  9624  2                        TSEG  (R1),(R0)
 000654 4110 7436/4100_      00A20  9648  2                        ERROR ': host name is too long.'
 000660                             9655  1                      END
 000660 58F0 B08C/4110_      0008C  9659  1                      SCUPCASE HOSTHOST,L'HOSTHOST
 000672                             9682                       END
                                    9686                       ¿þþþþþþþþþþþþþþþþþþþþþþþÜ
                                    9687                       Ÿ  CLEAR HOST hostname  Ÿ
                                    9688                       ¾þþþþþþþþþþþþþþþþþþþþþþþ»
 000672 D61F 8029 8029_00001 00001  9689                       IF    (HOSTHOST,NZ),BEGIN  Specific host...
 00067C D23F 8089 C4D8 00061 004D8  9705  1                      MVC   HOSTKEY,CVBLANKS
 000682 D204 8089 7518 00061 00B02  9706  1                      MVC   HOSTKEY(5),=C'USER_'
 000688 D21F 808E 8029 00066 00001  9707  1                      MVC   HOSTKEY+5(L'HOSTHOST),HOSTHOST
                                    9708  1
 00068E 4120 8089            00061  9709  1                      LA    R2,HOSTKEY
 000692 41F0 B544            00544  9710  1                      LA    R15,CPRG64
 000696 58E0 74B6/0DEE       00AA0  9711  1                      VCALL XDELETE             Delete "USER_hostname" record
 00069C 4780 70E6            006D0  9715  1                      IF    NZ,BEGIN            Nothing to delete...
 0006A0 4110 754D/4100_      00B37  9726  2                        TSEG  'Host '
 0006B2 4110 8029/4100_      00001  9744  2                        TSEG  HOSTHOST,,T
 0006C4 4110 744E/4100_      00A38  9772  2                        ERROR ' is not defined.'
 0006D0                             9779  1                      END
                                    9783  1
 0006D0 D203 8089 74C2 00061 00AAC  9784  1                      MVC   HOSTKEY(4),=C'PASS'
 0006D6 4120 8089            00061  9785  1                      LA    R2,HOSTKEY
 0006DA 41F0 B544            00544  9786  1                      LA    R15,CPRG64
 0006DE 58E0 74B6/0DEE       00AA0  9787  1                      VCALL XDELETE             Delete "PASS_hostname" record
                                    9791  1
 0006E4 D203 8089 74C6 00061 00AB0  9792  1                      MVC   HOSTKEY(4),=C'UNIX'
 0006EA 4120 8089            00061  9793  1                      LA    R2,HOSTKEY
 0006EE 41F0 B544            00544  9794  1                      LA    R15,CPRG64
 0006F2 58E0 74B6/0DEE       00AA0  9795  1                      VCALL XDELETE             Delete "UNIX_hostname" record
                                    9799  1
 0006F8 D51F B1BD 8029_001BD 00001  9800  1                      IF    (CPHOST,EQ,HOSTHOST),'CLEAR CPHOST'  Reset cur host
                                    9830  1
 000708 47F0 C7DE            007DE  9831  1                      B     CVNEXT
 00070C                             9832                       END
1NET      (NET2025) (12:49) (15MAR04) SET/SHOW/CLEAR HOSTS Commands                                                         Page   14
0Current Usings:  (*,R7) (HOSTWA-(4+36),R8) (CP,R11) (CV,R12)
0Loc    Object Code    Addr1 Addr2  Stmt Lv Lineno    Source Statement           (Hibal 5, Asmedit 3.3)  HLASM R4.0  2004/03/15 12.49
+___    ______ ____    _____ _____  ____ __ ______    ______ _________
0                                   9836                       ¿þþþþþþþþþþþþþþþþÜ
                                    9837                       Ÿ  CLEAR HOSTS.  Ÿ
                                    9838                       ¾þþþþþþþþþþþþþþþþ»
 00070C D71F B1BD B1BD 001BD 001BD  9839                       CLEAR CPHOST              Reset current host
                                    9846
 000712 4100 0012            00012  9847                       LA    R0,CP#HOSTI
 000716 41F0 B544            00544  9848                       LA    R15,CPRG64
 00071A 58E0 74CA/0DEE       00AB4  9849                       VCALL XDELSET             Delete all saved host info
                                    9853
 000720 47F0 C7DE            007DE  9854                       B     CVNEXT
 000724 18D8/9808 D004_             9855                       PEND  ,
 DROP   HOSTWA-(4+36),R8
 DROP   *,R7
1NET      (NET2025) (12:49) (15MAR04) SET/SHOW/CLEAR HOSTS Commands                                                         Page   15
0Current Usings:  (CP,R11) (CV,R12)
0Loc    Object Code    Addr1 Addr2  Stmt Lv Lineno    Source Statement           (Hibal 5, Asmedit 3.3)  HLASM R4.0  2004/03/15 12.49
+___    ______ ____    _____ _____  ____ __ ______    ______ _________
0                                   9881              ¿þþþþþþþþþþþþþþþþþþþþþþþþþþþþþþþþþþþþþþþþþþþþþþþþþþþþþþþþþþþþþþþþþþþþþÜ
                                    9882              Ÿ                                                                     Ÿ
                                    9883              Ÿ  SHOWHOST -- SHOW HOST Command.                                     Ÿ
                                    9884              Ÿ                                                                     Ÿ
                                                      ¾þþþþþþþþþþþþþþþþþþþþþþþþþþþþþþþþþþþþþþþþþþþþþþþþþþþþþþþþþþþþþþþþþþþþþ»
0000732 50E0 D000/9008_      00000  9885              SHOWHOST XPROC HOSTWA
 USING  *,R7
 USING  HOSTWA-(4+36),R8
 00074C D7E0 8028 8028 00000 00000  9936                       CLEAR HOSTWA
                                    9943
 000752 58E0 736C/0DEE       00AB8  9944                       VCALL COLLOPTS
                                    9948
 000758 D61F B1BD B1BD_001BD 001BD  9949                       IF    (CPHOST,Z),BEGIN    No host set...
 000762 4110 73F0/4100_      00B3C  9965  1                      SETMSG 'No current host is set.'
 00076A 47F0 C7D0            007D0  9969  1                      B     CVNXTMSG
 00076E                             9970                       END
                                    9974                       ¿þþþþþþþþþþþþþþþþþþþþþþþþþþþþþÜ
                                    9975                       Ÿ  Get current host options.  Ÿ
                                    9976                       ¾þþþþþþþþþþþþþþþþþþþþþþþþþþþþþ»
 00076E D23F 8089 C4D8 00061 004D8  9977                       MVC   HOSTKEY,CVBLANKS
 000774 D204 8089 73B6 00061 00B02  9978                       MVC   HOSTKEY(5),=C'USER_'
 00077A D21F 808E B1BD 00066 001BD  9979                       MVC   HOSTKEY+5(L'CPHOST),CPHOST
                                    9980
 000780 4100 0012            00012  9981                       LA    R0,CP#HOSTI
 000784 41F0 B544            00544  9982                       LA    R15,CPRG64
 000788 58E0 731C/0DEE       00A68  9983                       VCALL XSETSET             Select our record set
                                    9987
 00078E 4120 8089            00061  9988                       LA    R2,HOSTKEY
 000792 4110 8049/4100_      00021  9989                       SETMSG HOSTUSER
 00079A 41F0 B544            00544 10003                       LA    R15,CPRG64
 00079E 58E0 7370/0DEE       00ABC 10004                       VCALL XGET                Get userid
                                   10008
 0007A4 D203 8089 73E1 00061 00B2D 10009                       MVC   HOSTKEY(4),=C'PASS_'
 0007AA 4120 8089            00061 10010                       LA    R2,HOSTKEY
 0007AE 4110 8069/4100_      00041 10011                       SETMSG HOSTPASS
 0007B6 41F0 B544            00544 10025                       LA    R15,CPRG64
 0007BA 58E0 7370/0DEE       00ABC 10026                       VCALL XGET                Get password
                                   10030
 0007C0 D203 8089 73E6 00061 00B32 10031                       MVC   HOSTKEY(4),=C'UNIX_'
 0007C6 4120 8089            00061 10032                       LA    R2,HOSTKEY
 0007CA 4110 80C9/4100_      000A1 10033                       SETMSG HOSTDATA
 0007D2 41F0 B544            00544 10047                       LA    R15,CPRG64
 0007D6 58E0 7370/0DEE       00ABC 10048                       VCALL XGET                Get Unix/NoUnix flag
 0007DC 4770 7098/9680_      007E4 10052                       IF    Z,'SET HOSFUNIX'
                                   10074                       ¿þþþþþþþþþþþþþþþþþþþþþþþþþþþþþþþþþþÜ
                                   10075                       Ÿ  Display host information line.  Ÿ
                                   10076                       ¾þþþþþþþþþþþþþþþþþþþþþþþþþþþþþþþþþþ»
 0007E4 4110 7407/4100_      00B53 10077                       TSEG  '=> '
 0007F6 4110 B1BD/4100_      001BD 10095                       TSEG  CPHOST              Current host name
                                   10123
 000808 D61F 8049 8049_00021 00021 10124                       IF    (HOSTUSER,NZ),BEGIN  Display userid...
 000812 4110 73A6/4100_      00AF2 10140  1                      TSEG  ' User='
 000824 4110 8049/4100_      00021 10158  1                      TSEG  HOSTUSER,,T
1NET      (NET2025) (12:49) (15MAR04) SET/SHOW/CLEAR HOSTS Commands                                                         Page   16
0Current Usings:  (*,R7) (HOSTWA-(4+36),R8) (CP,R11) (CV,R12)
0Loc    Object Code    Addr1 Addr2  Stmt Lv Lineno    Source Statement           (Hibal 5, Asmedit 3.3)  HLASM R4.0  2004/03/15 12.49
+___    ______ ____    _____ _____  ____ __ ______    ______ _________
0000836                            10186                       END
                                   10190
 000836 D61F 8069 8069_00041 00041 10191                       IF    (HOSTPASS,NZ),BEGIN  Password is set...
 000840 4110 740A/4100_      00B56 10207  1                      TSEG  ' Password=*'
 000852                            10225                       END
                                   10229
 000852 9180 8028/47E0_00000       10230                       IF    HOSFUNIX,'TSEG " Unix"'  Unix mode
                                   10268
 00086C 47F0 C7DE            007DE 10269                       B     CVNEXT
                                   10270
 000870 18D8/9808 D004_            10271                       PEND  ,
 DROP   HOSTWA-(4+36),R8
 DROP   *,R7
1NET      (NET2025) (12:49) (15MAR04) SET/SHOW/CLEAR HOSTS Commands                                                         Page   17
0Current Usings:  (CP,R11) (CV,R12)
0Loc    Object Code    Addr1 Addr2  Stmt Lv Lineno    Source Statement           (Hibal 5, Asmedit 3.3)  HLASM R4.0  2004/03/15 12.49
+___    ______ ____    _____ _____  ____ __ ______    ______ _________
0                                  10297              ¿þþþþþþþþþþþþþþþþþþþþþþþþþþþþþþþþþþþþþþþþþþþþþþþþþþþþþþþþþþþþþþþþþþþþþÜ
                                   10298              Ÿ                                                                     Ÿ
                                   10299              Ÿ  SHOWHSTS -- SHOW HOSTS Command.                                    Ÿ
                                   10300              Ÿ                                                                     Ÿ
                                                      ¾þþþþþþþþþþþþþþþþþþþþþþþþþþþþþþþþþþþþþþþþþþþþþþþþþþþþþþþþþþþþþþþþþþþþþ»
000087E 50E0 D000/9008_      00000 10301              SHOWHSTS XPROC HOSTWA
 USING  *,R7
 USING  HOSTWA-(4+36),R8
 000898 D7E0 8028 8028 00000 00000 10352                       CLEAR HOSTWA
                                   10359
 00089E 58E0 7220/0DEE       00AB8 10360                       VCALL COLLOPTS
                                   10364
 0008A4 D61F B1BD B1BD_001BD 001BD 10365                       IF    (CPHOST,Z),BEGIN    No host set...
 0008AE 4110 72CE/4100_      00B66 10381  1                      SETMSG 'No hosts have been set.'
 0008B6 47F0 C7D0            007D0 10385  1                      B     CVNXTMSG
 0008BA                            10386                       END
                                   10390                       ¿þþþþþþþþþþþþþþþþþþþþþþþþþþþþþÜ
                                   10391                       Ÿ  Get current host options.  Ÿ
                                   10392                       ¾þþþþþþþþþþþþþþþþþþþþþþþþþþþþþ»
 0008BA D23F 8089 C4D8 00061 004D8 10393                       MVC   HOSTKEY,CVBLANKS
 0008C0 D21F 808E 71B0 00066 00A48 10394                       MVC   HOSTKEY+5(L'CPHOST),=(L'CPHOST)X'00'
                                   10395
 0008C6 4100 0012            00012 10396                       LA    R0,CP#HOSTI
 0008CA 41F0 B544            00544 10397                       LA    R15,CPRG64
 0008CE 58E0 71D0/0DEE       00A68 10398                       VCALL XSETSET             Select our record set
                                   10402
 0008D4                            10403                       LOOP  BEGIN
 0008D4 D204 8089 726A 00061 00B02 10409  1                      MVC   HOSTKEY(5),=C'USER_'
 0008DA 4120 8089            00061 10410  1                      LA    R2,HOSTKEY
 0008DE 4110 8049/4100_      00021 10411  1                      SETMSG HOSTUSER
 0008E6 41F0 B544            00544 10425  1                      LA    R15,CPRG64
 0008EA 58E0 7228/0DEE       00AC0 10426  1                      VCALL XGETNEXT            Get userid
 0008F0 4770 714A            009E2 10430  1                      IF    NZ,EXIT
                                   10444  1
 0008F4 D203 8089 7295 00061 00B2D 10445  1                      MVC   HOSTKEY(4),=C'PASS_'
 0008FA 4120 8089            00061 10446  1                      LA    R2,HOSTKEY
 0008FE 4110 8069/4100_      00041 10447  1                      SETMSG HOSTPASS
 000906 41F0 B544            00544 10461  1                      LA    R15,CPRG64
 00090A 58E0 7224/0DEE       00ABC 10462  1                      VCALL XGET                Get password
                                   10466  1
 000910 D203 8089 729A 00061 00B32 10467  1                      MVC   HOSTKEY(4),=C'UNIX_'
 000916 4120 8089            00061 10468  1                      LA    R2,HOSTKEY
 00091A 4110 80C9/4100_      000A1 10469  1                      SETMSG HOSTDATA
 000922 41F0 B544            00544 10483  1                      LA    R15,CPRG64
 000926 58E0 7224/0DEE       00ABC 10484  1                      VCALL XGET                Get Unix/NoUnix flag
 00092C 4770 709C/9680_      00934 10488  1                      IF    Z,'SET HOSFUNIX'
                                   10510  1                      ¿þþþþþþþþþþþþþþþþþþþþþþþþþþþþþþþþþþÜ
                                   10511  1                      Ÿ  Display host information line.  Ÿ
                                   10512  1                      ¾þþþþþþþþþþþþþþþþþþþþþþþþþþþþþþþþþþ»
 000934 4110 72E5/4100_      00B7D 10513  1                      SETMSG '   '
 00093C D51F B1BD 808E_001BD 00066 10517  1                      IF    (CPHOST,EQ,HOSTKEY+5),'SETMSG "=> "; SET HOSFDCUR'
 000952 41F0 B050/58E0_      00050 10550  1                      TSEG  (R1),(R0)
 00095C 4110 808E/4100_      00066 10574  1                      TSEG  HOSTKEY+5,L'CPHOST  Host name
1NET      (NET2025) (12:49) (15MAR04) SET/SHOW/CLEAR HOSTS Commands                                                         Page   18
0Current Usings:  (*,R7) (HOSTWA-(4+36),R8) (CP,R11) (CV,R12)
0Loc    Object Code    Addr1 Addr2  Stmt Lv Lineno    Source Statement           (Hibal 5, Asmedit 3.3)  HLASM R4.0  2004/03/15 12.49
+___    ______ ____    _____ _____  ____ __ ______    ______ _________
0                                  10604  1
 00096E D61F 8049 8049_00021 00021 10605  1                      IF    (HOSTUSER,NZ),BEGIN  Display userid...
 000978 4110 725A/4100_      00AF2 10621  2                        TSEG  ' User='
 00098A 4110 8049/4100_      00021 10639  2                        TSEG  HOSTUSER,,T
 00099C                            10667  1                      END
                                   10671  1
 00099C D61F 8069 8069_00041 00041 10672  1                      IF    (HOSTPASS,NZ),BEGIN  Password is set...
 0009A6 4110 72BE/4100_      00B56 10688  2                        TSEG  ' Password=*'
 0009B8                            10706  1                      END
                                   10710  1
 0009B8 9180 8028/47E0_00000       10711  1                      IF    HOSFUNIX,'TSEG " Unix"'  Unix mode
 0009D2 1B00/41F0 B050_            10749  1                      TCR
 0009DE 47F0 703C            008D4 10774                       END
                                   10779
 0009E2 9120 8028/4710_00000       10780                       IF    ~HOSFDCUR,BEGIN     Display current host now...
 0009EA 4110 72BB/4100_      00B53 10795  1                      TSEG  '=> '
 0009FC 4110 B1BD/4100_      001BD 10813  1                      TSEG  CPHOST,,T
 000A0E                            10841                       END
                                   10845
 000A0E 47F0 C7DE            007DE 10846                       B     CVNEXT
                                   10847
 000A12 18D8/9808 D004_            10848                       PEND  ,
 DROP   HOSTWA-(4+36),R8
 DROP   *,R7
                                   10873
                                   10874                       QLTORG
1NET      (NET2025) (12:49) (15MAR04) SET/SHOW WNET Commands                                                                Page   19
0Current Usings:  (CP,R11) (CV,R12)
0Loc    Object Code    Addr1 Addr2  Stmt Lv Lineno    Source Statement           (Hibal 5, Asmedit 3.3)  HLASM R4.0  2004/03/15 12.49
+___    ______ ____    _____ _____  ____ __ ______    ______ _________
0                                  10932              ¿þþþþþþþþþþþþþþþþþþþþþþþþþþþþþþþþþþþþþþþþþþþþþþþþþþþþþþþþþþþþþþþþþþþþþÜ
                                   10933              Ÿ                                                                     Ÿ
                                   10934              Ÿ  SETWNET -- SET WNET Command.                                       Ÿ
                                   10935              Ÿ                                                                     Ÿ
                                                      ¾þþþþþþþþþþþþþþþþþþþþþþþþþþþþþþþþþþþþþþþþþþþþþþþþþþþþþþþþþþþþþþþþþþþþþ»
0000B92 50E0 D000/9008_      00000 10936              SETWNET  XPROC
 USING  *,R7
 000BAC 5810 B08C/1B00_      0008C 10976                       SCAN  SETPRT              SET WNET Options
 000BFE 47F0 C7DE            007DE 11008                       B     CVNEXT
                                   11009
 000C02 18D8/9808 D004_            11010                       PEND  ,
 DROP   *,R7
                                   11030                       ¿þþþþþþþþþþþþþþþþþþþþÜ
                                   11031                       Ÿ  SET WNET Options  Ÿ
                                   11032                       ¾þþþþþþþþþþþþþþþþþþþþ»
 000C10 E3D9C1C3C5404040_          11033              SETPRT   SCKW  TRACE,SXTRC,A
 000C38 D5D6E3D9C1C3C540_          11048                       SCKW  NOTRACE,SXNOTRC,A
 000C60 D6D5404040404040_          11063                       SCKW  ON,SXON
 000C88 D6C6C64040404040_          11078                       SCKW  OFF,SXOFF
 000CB0 E3C3D3C5C1D94040_          11093                       SCKW  TCLEAR,SXTCLR,A
 000CD8 4040404040404040_          11108                       SCKW  ,V(NOTVALID)
                                   11123
 000D00 50E0 D000/9008_      00000 11124              SXTRC    PROC  ,
 USING  *,R7
 000D1A 9602 C4C4      004C4       11163                       SET   CVFNTRC
 000D1E 18D8/9808 D004_            11169                       PEND  ,
 DROP   *,R7
                                   11189
 000D2C 50E0 D000/9008_      00000 11190              SXNOTRC  PROC  ,
 USING  *,R7
 000D46 94FD C4C4      004C4       11229                       CLEAR CVFNTRC
 000D4A 18D8/9808 D004_            11236                       PEND  ,
 DROP   *,R7
                                   11256
 000D58 50E0 D000/9008_      00000 11257              SXON     PROC  ,
 USING  *,R7
 000D72 9130 B3BE/4770_003BE       11296                       IF    (CPSFSPR+CPSFOPR,Z),'VCALL NOTVALID'
 000D80 94EF CA00      00A00       11325                       CLEAR CVFNONET
 000D84 41F0 0001/4AF0_      00001 11332                       INCR  R15,CVCHKUC         Checkpoint write needed
 000D90 1BFF                       11338                       CLEAR R15
 000D92 18D8/9808 D004_            11342                       PEND  ,
 DROP   *,R7
                                   11362
 000DA0 50E0 D000/9008_      00000 11363              SXOFF    PROC  ,
 USING  *,R7
 000DBA 9130 B3BE/4770_003BE       11402                       IF    (CPSFSPR+CPSFOPR,Z),'VCALL NOTVALID'
 000DC8 9610 CA00      00A00       11431                       SET   CVFNONET
 000DCC 41F0 0001/4AF0_      00001 11437                       INCR  R15,CVCHKUC         Checkpoint write needed
 000DD8 1BFF                       11443                       CLEAR R15
 000DDA 18D8/9808 D004_            11447                       PEND  ,
 DROP   *,R7
                                   11467
 000DE8 50E0 D000/9008_      00000 11468              SXTCLR   PROC
1NET      (NET2025) (12:49) (15MAR04) SET/SHOW WNET Commands                                                                Page   20
0Current Usings:  (*,R7) (CP,R11) (CV,R12)
0Loc    Object Code    Addr1 Addr2  Stmt Lv Lineno    Source Statement           (Hibal 5, Asmedit 3.3)  HLASM R4.0  2004/03/15 12.49
+___    ______ ____    _____ _____  ____ __ ______    ______ _________
0USING  *,R7
 000E02 5810 C2B4/1211_      002B4 11507                       WHILE ('LT R1,CVETRCP',NZ),BEGIN  Free all trace entries...
 000E0C 58E0 759A/0DEE       0139C 11525  1                      VCALL FREEETRC            Free this entry
 000E12 47F0 7000            00E02 11529                       END
 000E16 1BFF                       11534                       CLEAR R15
 000E18 18D8/9808 D004_            11538                       PEND
 DROP   *,R7
1NET      (NET2025) (12:49) (15MAR04) SET/SHOW WNET Commands                                                                Page   21
0Current Usings:  (CP,R11) (CV,R12)
0Loc    Object Code    Addr1 Addr2  Stmt Lv Lineno    Source Statement           (Hibal 5, Asmedit 3.3)  HLASM R4.0  2004/03/15 12.49
+___    ______ ____    _____ _____  ____ __ ______    ______ _________
0                                  11559              ¿þþþþþþþþþþþþþþþþþþþþþþþþþþþþþþþþþþþþþþþþþþþþþþþþþþþþþþþþþþþþþþþþþþþþþÜ
                                   11560              Ÿ                                                                     Ÿ
                                   11561              Ÿ  SHOWWNET -- SHOW WNETWORK Command.                                 Ÿ
                                   11562              Ÿ                                                                     Ÿ
                                                      ¾þþþþþþþþþþþþþþþþþþþþþþþþþþþþþþþþþþþþþþþþþþþþþþþþþþþþþþþþþþþþþþþþþþþþþ»
0000E26 50E0 D000/9008_      00000 11563              SHOWWNET XPROC
 USING  *,R7
 000E40 1B55                       11603                       CLEAR R5                  Default is all UNETs
 000E42 5810 B08C/1B00_      0008C 11607                       SCAN  WNETPRT
 000E94 58E0 7564/0DEE       013A4 11639                       SCANCHK
                                   11644                       ¿þþþþþþþþþþþþþþþþþþþþþþþþþþþþþþþþþÜ
                                   11645                       Ÿ  Do the "SHOW WNET n" command.  Ÿ
                                   11646                       ¾þþþþþþþþþþþþþþþþþþþþþþþþþþþþþþþþþ»
 000E9A 1255/4780 70B0             11647                       IF    (R5,NZ),BEGIN       Specific UNET specified...
 000EA0 1865                       11661  1                      LR    R6,R5
 000EA2 0660                       11662  1                      DECR  R6                  Relative to one, not zero
 000EA4 8960 0002            00002 11664  1                      SLL   R6,2                Times 4 for word offset
 000EA8 5A60 C0A8            000A8 11665  1                      A     R6,CVNETP
 000EAC 58F0 6000/12FF       00000 11666  1                      LT    R15,@R6             Get UNET ptr
 000EB2 4780 707C/58E0_      00EBC 11670  1                      IF    NZ,'VCALL DISPUNET'  Display UNET info
 000EBC 7080/47F0 70AC 00EBC 00EB4 11690  1                      ELSE  BEGIN               Not active...
 000EC0 4110 7624/4100_      01464 11701  2                        TSEG  'Network connection '
 000ED2 1815/1B00/41F0_            11719  2                        TNUM  (R5)
 000EE0 4110 7637/4100_      01477 11741  2                        ERROR ' is not active.'
 000EEC                            11748  1                      END
                                   11752  1
 000EEC 47F0 C7DE            007DE 11753  1                      B     CVNEXT
 000EF0                            11754                       END
                                   11758                       ¿þþþþþþþþþþþþþþþþþþþþþþþþþþþþþþþÜ
                                   11759                       Ÿ  Do the "SHOW WNET" command.  Ÿ
                                   11760                       ¾þþþþþþþþþþþþþþþþþþþþþþþþþþþþþþþ»
                                   11761              *
 000EF0 58E0 7574/0DEE       013B4 11762                       ACALL NETDISP             Display general information
 000EF6 47F0 C7DE            007DE 11766                       B     CVNEXT
 000EFA 18D8/9808 D004_            11767                       PEND  ,
 DROP   *,R7
                                   11787                       ¿þþþþþþþþþþþþþþþþþþþþþþÜ
                                   11788                       Ÿ  SHOW WNET options.  Ÿ
                                   11789                       ¾þþþþþþþþþþþþþþþþþþþþþþ»
 000F08 4040404040404040_          11790              WNETPRT  SCKW  ,WNETNO,PI
 000F30 E3D9C1C3C5404040_          11805                       SCKW  TRACE,SHOWTRC,A
 000F58 4040404040404040_          11820                       SCKW  ,V(COLLPSH),PUSH
 000F80 4040404040404040_          11835                       SCKW  ,V(NOTVALID)
                                   11850              þþþþ
 000FA8 50E0 D000/9008_      00000 11851              WNETNO   PROC  ,
 USING  *,R7
 000FC2 1200/4740 700E_            11890                       IF    ((R0,NEG),OR,(R0,GT,CVNET#)),'VCALL NOTVALID'
 000FD6 1850                       11929                       LR    R5,R0
 000FD8 5058 0018            00018 11930                       PRETURN (R5)
 000FDC 1BFF                       11932                       CLEAR R15
 000FDE 18D8/9808 D004_            11936                       PEND  ,
 DROP   *,R7
                                   11956
1NET      (NET2025) (12:49) (15MAR04) SET/SHOW WNET Commands                                                                Page   22
0Current Usings:  (CP,R11) (CV,R12)
0Loc    Object Code    Addr1 Addr2  Stmt Lv Lineno    Source Statement           (Hibal 5, Asmedit 3.3)  HLASM R4.0  2004/03/15 12.49
+___    ______ ____    _____ _____  ____ __ ______    ______ _________
0                                  11958              ¿þþþþþþþþþþþþþþþþþþþþþþþþþþþþþþþþþþþþþþþþþþþþþþþþþþþþþþþþþþþþþþþþþþþþþÜ
                                   11959              Ÿ                                                                     Ÿ
                                   11960              Ÿ  SHOWTRC -- SHOW WNET TRACE Routine.                                Ÿ
                                   11961              Ÿ                                                                     Ÿ
                                                      ¾þþþþþþþþþþþþþþþþþþþþþþþþþþþþþþþþþþþþþþþþþþþþþþþþþþþþþþþþþþþþþþþþþþþþþ»
0000FEC 50E0 D000/9008_      00000 11962              SHOWTRC  XPROC
 USING  *,R7
                                   12002
 001006 9120 B3BE/4710_003BE       12003                       IF    ~CPSFSPR,'VCALL NOTVALID'   Priv'd
                                   12027
 001014 58E0 73B6/0DEE       013BC 12028                       VCALL NTRCDISP
 00101A 47F0 C7DE            007DE 12032                       B     CVNEXT
                                   12033
 00101E 18D8/9808 D004_            12034                       PEND  ,
 DROP   *,R7
1NET      (NET2025) (12:49) (15MAR04) SET/SHOW WNET Commands                                                                Page   23
0Current Usings:  (CP,R11) (CV,R12)
0Loc    Object Code    Addr1 Addr2  Stmt Lv Lineno    Source Statement           (Hibal 5, Asmedit 3.3)  HLASM R4.0  2004/03/15 12.49
+___    ______ ____    _____ _____  ____ __ ______    ______ _________
0                                  12055              ¿þþþþþþþþþþþþþþþþþþþþþþþþþþþþþþþþþþþþþþþþþþþþþþþþþþþþþþþþþþþþþþþþþþþþþÜ
                                   12056              Ÿ                                                                     Ÿ
                                   12057              Ÿ  NETDISP -- Routine to display general network information.         Ÿ
                                   12058              Ÿ                                                                     Ÿ
                                   12059              Ÿ    This routine is called by the SHOW WNET command and also the     Ÿ
                                   12060              Ÿ    dump formatter.                                                  Ÿ
                                   12061              Ÿ                                                                     Ÿ
                                                      ¾þþþþþþþþþþþþþþþþþþþþþþþþþþþþþþþþþþþþþþþþþþþþþþþþþþþþþþþþþþþþþþþþþþþþþ»
000102C 50E0 D000/9008_      00000 12062              NETDISP  XPROC
 USING  *,R7
 001046 4110 C028/4100_      00028 12102                       TSEG  CVWYLSSN,,T
 001058 4110 7440/4100_      01486 12130                       TSEG  ' network information:'
 00106A 1B00/41F0 B050_            12148                       TCR
 001076 1B00/41F0 B050_            12173                       TCR
                                   12198
 001082 4110 7455/4100_      0149B 12199                       TSEG  'Amelia interface is turned '
 001094 4110 7470/4100_      014B6 12217                       SETMSG 'ON.'
 00109C 9110 CA00/47E0_00A00       12221                       IF    CVFNONET,'SETMSG "OFF."'
 0010AC 41F0 B050/58E0_      00050 12245                       TSEG  (R1),(R0),CR
 0010B6 1B00/41F0 B050_            12269                       TCR
 0010C2 5810 C2D0/4100_      002D0 12294                       TNUM  L:CVENCMD,7
 0010D4 4110 7473/4100_      014B9 12319                       TSEG  ' network commands',,CR
 0010E6 5810 C2BC/4100_      002BC 12337                       TNUM  L:CVENUSE,7
 0010F8 4110 7484/4100_      014CA 12362                       TSEG  ' network uses',,CR
 00110A 5810 C2C0/4100_      002C0 12380                       TNUM  L:CVENSAVE,7
 00111C 4110 73A8/4100_      013EE 12405                       TSEG  ' network saves',,CR
 00112E 5810 C2C4/4100_      002C4 12423                       TNUM  L:CVENSCR,7
 001140 4110 73B6/4100_      013FC 12448                       TSEG  ' network scratches',,CR
 001152 5810 C2C8/4100_      002C8 12466                       TNUM  L:CVENREN,7
 001164 4110 732A/4100_      01370 12491                       TSEG  ' network renames',,CR
 001176 5810 C2CC/4100_      002CC 12509                       TNUM  L:CVENDIR,7
 001188 4110 7491/4100_      014D7 12534                       TSEG  ' network show directories',,CR
 00119A 1B00/41F0 B050_            12552                       TCR
                                   12577
 0011A6 5810 C2D4/4100_      002D4 12578                       TNUM  L:CVENIO,7
 0011B8 4110 73C8/4100_      0140E 12603                       TSEG  ' network I/O''s',,CR
 0011CA 1B00/41F0 B050_            12621                       TCR
                                   12646
 0011D6 D603 C2D8 C2D8_002D8 002D8 12647                       IF    (CVENERR,NZ),BEGIN  We have some errors...
 0011E0 4110 7386/4100_      013CC 12663  1                      TSEG  '*** '
 0011F2 5810 C2D8/1B00_      002D8 12681  1                      TNUM  L:CVENERR
 001202 4110 73D6/4100_      0141C 12703  1                      TSEG  ' error packets; last error packet follows:',,CR
 001214 5810 C2DC/4800_      002DC 12721  1                      HEXDUMP L:CVENERP,LH:CVENERL,FORM=OFFSET,CHARSET=EBCDIC
 001226 1B00/41F0 B050_            12738  1                      TCR
 001232                            12763                       END
                                   12767
 001232 4110 733A/4100_      01380 12768                       TSEG  'AMELIA UPATH at '
 001244 5810 C0B4/4100_      000B4 12786                       THEX  L:CVAMYP,8
 001256 4110 74AA/4100_      014F0 12811                       TSEG  ', TESTAMY UPATH at '
 001268 5810 C0B8/4100_      000B8 12829                       THEX  L:CVTAMYP,8
 00127A 1B00/41F0 B050_            12854                       TCR
 001286 1B00/41F0 B050_            12879                       TCR
                                   12904
1NET      (NET2025) (12:49) (15MAR04) SET/SHOW WNET Commands                                                                Page   24
0Current Usings:  (*,R7) (CP,R11) (CV,R12)
0Loc    Object Code    Addr1 Addr2  Stmt Lv Lineno    Source Statement           (Hibal 5, Asmedit 3.3)  HLASM R4.0  2004/03/15 12.49
+___    ______ ____    _____ _____  ____ __ ______    ______ _________
0001292 4110 7392/4100_      013D8 12905                       TSEG  'UNET index table at '
 0012A4 5810 C0A8/4100_      000A8 12923                       THEX  L:CVNETP,8
 0012B6 1B00/41F0 B050_            12948                       TCR
 0012C2 1B00/41F0 B050_            12973                       TCR
                                   12998
 0012CE 4150 0001            00001 12999                       LA    R5,1                Net path number
 0012D2 5860 C0A8            000A8 13000                       L     R6,CVNETP           Start of net path table
 0012D6 5950 7372/4730_      013B8 13001                       WHILE (R5,LE,CVNET#),BEGIN  Go through entries...
 0012DE 58F0 6000/12FF_      00000 13020  1                      IF    ('LT R15,@R6',NZ),'VCALL DISPUNET'  Display UNET info
                                   13045  1
 0012EE 4160 6004            00004 13046  1                      LA    R6,@R6+4            Next net path ptr
 0012F2 4150 5001            00001 13047  1                      LA    R5,@R5+1            Next net path number
 0012F6 47F0 7290            012D6 13048                       END
                                   13053
 0012FA 18D8/9808 D004_            13054                       PEND
 DROP   *,R7
1NET      (NET2025) (12:49) (15MAR04) SHOW/CLEAR FTPLOG Commands                                                            Page   25
0Current Usings:  (CP,R11) (CV,R12)
0Loc    Object Code    Addr1 Addr2  Stmt Lv Lineno    Source Statement           (Hibal 5, Asmedit 3.3)  HLASM R4.0  2004/03/15 12.49
+___    ______ ____    _____ _____  ____ __ ______    ______ _________
0                                  13075              ¿þþþþþþþþþþþþþþþþþþþþþþþþþþþþþþþþþþþþþþþþþþþþþþþþþþþþþþþþþþþþþþþþþþþþþÜ
                                   13076              Ÿ                                                                     Ÿ
                                   13077              Ÿ  SHOWFTP -- SHOW FTPLOG Command.                                    Ÿ
                                   13078              Ÿ                                                                     Ÿ
                                                      ¾þþþþþþþþþþþþþþþþþþþþþþþþþþþþþþþþþþþþþþþþþþþþþþþþþþþþþþþþþþþþþþþþþþþþþ»
0001308 50E0 D000/9008_      00000 13079              SHOWFTP  XPROC
 USING  *,R7
 001322 4110 71E1/4100_      01503 13119                       ABORT 'SHOW FTPLOG is not supported.'
 00132E 18D8/9808 D004_            13126                       PEND  ,
 DROP   *,R7
1NET      (NET2025) (12:49) (15MAR04) SHOW/CLEAR FTPLOG Commands                                                            Page   26
0Current Usings:  (CP,R11) (CV,R12)
0Loc    Object Code    Addr1 Addr2  Stmt Lv Lineno    Source Statement           (Hibal 5, Asmedit 3.3)  HLASM R4.0  2004/03/15 12.49
+___    ______ ____    _____ _____  ____ __ ______    ______ _________
0                                  13147              ¿þþþþþþþþþþþþþþþþþþþþþþþþþþþþþþþþþþþþþþþþþþþþþþþþþþþþþþþþþþþþþþþþþþþþþÜ
                                   13148              Ÿ                                                                     Ÿ
                                   13149              Ÿ  CLRFTP -- CLEAR FTPLOG Command.                                    Ÿ
                                   13150              Ÿ                                                                     Ÿ
                                                      ¾þþþþþþþþþþþþþþþþþþþþþþþþþþþþþþþþþþþþþþþþþþþþþþþþþþþþþþþþþþþþþþþþþþþþþ»
000133C 50E0 D000/9008_      00000 13151              CLRFTP   XPROC
 USING  *,R7
 001356 4110 70F0/4100_      01446 13191                       ABORT 'CLEAR FTPLOG is not supported.'
 001362 18D8/9808 D004_            13198                       PEND  ,
 DROP   *,R7
1NET      (NET2025) (12:49) (15MAR04) SHOW/CLEAR FTPLOG Commands                                                            Page   27
0Current Usings:  (CP,R11) (CV,R12)
0Loc    Object Code    Addr1 Addr2  Stmt Lv Lineno    Source Statement           (Hibal 5, Asmedit 3.3)  HLASM R4.0  2004/03/15 12.49
+___    ______ ____    _____ _____  ____ __ ______    ______ _________
0                                  13219                       QLTORG
1NET      (NET2025) (12:49) (15MAR04) Network File Access Routines                                                          Page   28
0Current Usings:  (CP,R11) (CV,R12)
0Loc    Object Code    Addr1 Addr2  Stmt Lv Lineno    Source Statement           (Hibal 5, Asmedit 3.3)  HLASM R4.0  2004/03/15 12.49
+___    ______ ____    _____ _____  ____ __ ______    ______ _________
0                                  13269              ¿þþþþþþþþþþþþþþþþþþþþþþþþþþþþþþþþþþþþþþþþþþþþþþþþþþþþþþþþþþþþþþþþþþþþþÜ
                                   13270              Ÿ                                                                     Ÿ
                                   13271              Ÿ  NETOPEN -- Routine to open a Network file.                         Ÿ
                                   13272              Ÿ                                                                     Ÿ
                                   13273              Ÿ    On entry:                                                        Ÿ
                                   13274              Ÿ      R1 - FILE INFO DSECT                                           Ÿ
                                   13275              Ÿ                                                                     Ÿ
                                   13276              Ÿ    On exit, R15 (and cc):                                           Ÿ
                                   13277              Ÿ      0 - opened successfully                                        Ÿ
                                   13278              Ÿ      nz- not opened (CPERRID contains error id)                     Ÿ
                                   13279              Ÿ                                                                     Ÿ
                                                      ¾þþþþþþþþþþþþþþþþþþþþþþþþþþþþþþþþþþþþþþþþþþþþþþþþþþþþþþþþþþþþþþþþþþþþþ»
0001520 50E0 D000/9008_      00000 13280              NETOPEN  XPROC
 USING  *,R7
 00153A 1851                       13320                       LR    R5,R1
 USING  FFINFO,R5                  13321                       USING FFINFO,R5
                                   13330                       ¿þþþþþþþþþþþþþþþþþþþþþþþþþþþþþþþþþþÜ
                                   13331                       Ÿ  Allocate heap space for NETWA.  Ÿ
                                   13332                       ¾þþþþþþþþþþþþþþþþþþþþþþþþþþþþþþþþþþ»
 00153C 58E0 7906/0DEE       01E40 13333                       VCALL MARKHEAP            Get current heap ptr
 001542 182F                       13337                       LR    R2,R15
                                   13338
 001544 4800 79B6            01EF0 13339                       LH    R0,=AL2(L'NETWA)
 001548 58E0 790A/0DEE       01E44 13340                       VCALL GETHEAP             Get work area
 00154E 5010 BE58            00E58 13344                       ST    R1,CPDEVP
 001552 1861                       13345                       LR    R6,R1
 USING  NETWA,R6                   13346                       USING NETWA,R6
 001554 D7FF 6000 6000_00000 00000 13355                       CLEAR NETWA
 001560 D202 6000 7A06 00000 01F40 13363                       MVC   NETWA(3),=C'NET'
 001566 D21F 6120 C4D8 00120 004D8 13364                       MVC   NWANUSER,CVBLANKS
 00156C D21F 6140 C4D8 00140 004D8 13365                       MVC   NWANPASS,CVBLANKS
                                   13366
 001572 5020 6174            00174 13367                       ST    R2,NWAOHEAP         Save old heap ptr
 001576 58E0 7906/0DEE       01E40 13368                       VCALL MARKHEAP            Get current heap ptr
 00157C 50F0 6178            00178 13372                       ST    R15,NWANHEAP        Save new heap ptr
                                   13373
                                   13374                       COMMENT                   Statistics
 001580 9501 5001/4770_00001       13375                       IF    FFFREAD,'INCR R15,CVENUSE'    use
 001594 705E/47F0 706A_01594 01586 13401                       ELSE  'INCR R15,CVENSAVE'           save
                                   13423
                                   13424                       COMMENT                   SCAN NET OPTIONS
 0015A4 58E0 B08C/D2AF_      0008C 13425                       SCPUSH
 0015B2 4110 5114/5800_      00114 13431                       SCINIT FFOPTS,L:FFOPTSL
 0015C8 5810 B08C/1B00_      0008C 13455                       SCAN  NWAOPRT
 00161A 58E0 7916/0DEE       01E50 13487                       SCANCHK                   ERROR EXIT FROM HERE !
 001620 58E0 B08C/4BD0_      0008C 13492                       SCPOP
                                   13498
                                   13499                       COMMENT                   RESOLVE NAME
 00162E 58E0 791A/0DEE       01E54 13500                       VCALL NRESOLVE
                                   13504
                                   13505                       COMMENT                   SET FILE, HOST NAMES
 001634 58E0 791E/0DEE       01E58 13506                       ACALL SETFNAME
 00163A 58E0 7922/0DEE       01E5C 13510                       ACALL SETFHOST
1NET      (NET2025) (12:49) (15MAR04) Network File Access Routines                                                          Page   29
0Current Usings:  (FFINFO,R5) (NETWA,R6) (*,R7) (CP,R11) (CV,R12)
0Loc    Object Code    Addr1 Addr2  Stmt Lv Lineno    Source Statement           (Hibal 5, Asmedit 3.3)  HLASM R4.0  2004/03/15 12.49
+___    ______ ____    _____ _____  ____ __ ______    ______ _________
0                                  13514                       ¿þþþþþþþþþþþþþþþþþþþþþþþþþþþþþþþþþÜ
                                   13515                       Ÿ  Allocate Amelia network path.  Ÿ
                                   13516                       ¾þþþþþþþþþþþþþþþþþþþþþþþþþþþþþþþþþ»
 001640 1B00                       13517                       CLEAR R0                  User UNET
 001642 58E0 7926/0DEE       01E60 13521                       VCALL NPATALLO            Allocate communications path
 001648 4780 714C            01686 13525                       IF    NZ,BEGIN            Trouble...
 00164C 9001 D000/41D0_      00000 13536  1                      XPUSH R0,R1
 001654 4110 7A09/4100_      01F43 13539  1                      TSEG  'Can''t allocate network connection -- '
 001666 4BD0 79BC/9801_      01EF6 13557  1                      XPOP  R0,R1
 00166E 41F0 B050/58E0_      00050 13560  1                      TSEG  (R1),(R0),CR
 001678 D207 B886 788E 00886 01DC8 13584  1                      MVC   CPERRID,=CL8'NETERR'
 00167E 41F0 0004            00004 13585  1                      LA    R15,4
 001682 47F0 72BA            017F4 13586  1                      B     NETOEXIT
 001686                            13587                       END
                                   13591                       ¿þþþþþþþþþþþþþþþþþþþþþþþþþþþþþþþþþþþþþþþþÜ
                                   13592                       Ÿ  Establish connection to remote host.  Ÿ
                                   13593                       ¾þþþþþþþþþþþþþþþþþþþþþþþþþþþþþþþþþþþþþþþþ»
 001686 5010 6160            00160 13594                       ST    R1,NWAUNETP         Save primary UNET path ptr
 00168A 1841                       13595                       LR    R4,R1
 USING  UNET,R4                    13596                       WITH  (UNET,R4)
 00168C 41F0 410C            0010C 13609                       LA    R15,UNETOUTSG
 001690 50F0 6164            00164 13610                       ST    R15,NWAUSG          Save output SEGCB ptr
                                   13611
 001694 D24F 417C C4D8 0017C 004D8 13612                       MVC   UNETRNAME,CVBLANKS  Pre-blank
 00169A 5830 608C            0008C 13613                       L     R3,NWAHOSTL
 00169E 5930 7932/47D0_      01E6C 13614                       CEIL  R3,L'UNETRNAME
 0016AA 0630/1233/4740_            13633                       MOVE  R3,UNETRNAME,NWAHOST Set remote host name
 0016B6 D203 41D0 7936 001D0 01E70 13671                       MVC   UNETRPORT,=A(FTPPORT#)  Set FTP port number
                                   13672
 0016BC 41F0 4000            00000 13673                       LA    R15,UNET
 0016C0 58E0 793A/0DEE       01E74 13674                       VCALL NPATOPEN            Open the network path
 0016C6 4780 7270            017AA 13678                       IF    NZ,BEGIN            Trouble...
 0016CA D510 7A2E 1000_01F68 00000 13689  1                      IF    (@R1,EQ,'NO NETWORK SERVER'),BEGIN
 0016D4 4110 7A3F/4100_      01F79 13705  2                        TSEG  'Amelia is not running; '
 0016E6 4110 7A56/4100_      01F90 13723  2                        SETMSG 'network access is not possible.'
 0016EE                            13727  1                      END
                                   13731  1
 0016EE 71B8/47F0 71DC_016EE 016D2 13732  1                      ELSEIF (@R1,EQ,'ERROR: UNKNOWN HOST'),BEGIN
 0016FC 4110 6090/5800_      00090 13757  2                        TSEG  NWAHOST,L:NWAHOSTL
 00170E 4110 7A88/4100_      01FC2 13785  2                        SETMSG ': host not found.'
 001716                            13789  1                      END
                                   13793  1
 001716 71E0/47F0 720A_01716 016FA 13794  1                      ELSEIF (@R1,EQ,'TIMEOUT'),BEGIN
 001724 4110 793E/4100_      01E78 13819  2                        TSEG  'Unable to do this command, no response from '
 001736 4110 6090/5800_      00090 13837  2                        SETMSG NWAHOST,L:NWAHOSTL
 00173E 58E0 796A/0DEE       01EA4 13851  2                        VCALL RTRIM
 001744                            13855  1                      END
                                   13859  1
 001744 720E/47F0 7238_01744 01722 13860  1                      ELSEIF (@R1,EQ,'ATTN'),BEGIN
 001752 4110 7AA0/4100_      01FDA 13885  2                        TSEG  'Can''t connect to '
 001764 4110 6090/5800_      00090 13903  2                        SETMSG NWAHOST,L:NWAHOSTL
 00176C 58E0 796A/0DEE       01EA4 13917  2                        VCALL RTRIM
 001772                            13921  1                      END
                                   13925  1
1NET      (NET2025) (12:49) (15MAR04) Network File Access Routines                                                          Page   30
0Current Usings:  (UNET,R4) (FFINFO,R5) (NETWA,R6) (*,R7) (CP,R11) (CV,R12)
0Loc    Object Code    Addr1 Addr2  Stmt Lv Lineno    Source Statement           (Hibal 5, Asmedit 3.3)  HLASM R4.0  2004/03/15 12.49
+___    ______ ____    _____ _____  ____ __ ______    ______ _________
0001772 723C/47F0 725E 01772 01750 13926  1                      ELSE  BEGIN
 001776 9001 D000/41D0_      00000 13937  2                        XPUSH R0,R1
 00177E 4110 7AB1/4100_      01FEB 13940  2                        TSEG  'Can''t open network connection -- '
 001790 4BD0 79BC/9801_      01EF6 13958  2                        XPOP  R0,R1
 001798                            13961  1                      END
                                   13965  1
 001798 41F0 B050/58E0_      00050 13966  1                      TSEG  (R1),(R0),CR
 0017A2 41F0 0004            00004 13990  1                      LA    R15,4
 0017A6 47F0 72BA            017F4 13991  1                      B     NETOEXIT            Trouble
 0017AA                            13992                       END
                                   13996
 0017AA 9505 B38C/4780_0038C       13997                       IF    ~CPSTVIRT,BEGIN     Real terminals only...
 0017B2 9608 BF37      00F37       14012  1                      SET   DSNFSTAT            Give "in progress" status msgs
 0017B6                            14018                       END
                                   14022
 0017B6 58E0 7972/0DEE       01EAC 14023                       ACALL FTPOPEN             Do initial FTP dialog
 0017BC 4770 72BA            017F4 14027                       IF    Z,BEGIN             Connection is established...
 0017C0 9680 6004      00004       14038  1                      SET   NWAFOPEN            File is open
                                   14044  1                      COMMENT                   If open for write
 0017C4 9502 5001/4780_00001       14045  1                      IF    (FFFWRITE,OR,FFFAPPD,OR,FFFREPL),BEGIN
 0017DC 9640 6004      00004       14086  2                        SET   NWAFWR
 0017E0 94BF BD51      00D51       14092  2                        CLEAR CPLFLG2.CPFSCRTC    Reset REPLACE (not implemented)
 0017E4 58E0 7976/0DEE       01EB0 14100  2                        ACALL FTPSAVE             Go do FTP STOR operation
 0017EA                            14104  1                      END
                                   14108  1
                                   14109  1                      COMMENT                   If open for read
 0017EA 72B4/47F0 72BA_017EA 017DA 14110  1                      ELSE  'ACALL FTPUSE'      Go do FTP RETR operation
 0017F4                            14130                       END
                                   14134
 0017F4 18D8/9808 D004_            14135              NETOEXIT PEND
 DROP   UNET,R4
 DROP   *,R7
1NET      (NET2025) (12:49) (15MAR04) Network File Access Routines                                                          Page   31
0Current Usings:  (FFINFO,R5) (NETWA,R6) (CP,R11) (CV,R12)
0Loc    Object Code    Addr1 Addr2  Stmt Lv Lineno    Source Statement           (Hibal 5, Asmedit 3.3)  HLASM R4.0  2004/03/15 12.49
+___    ______ ____    _____ _____  ____ __ ______    ______ _________
0                                  14162              *
                                   14163              *
                                   14164              *  NET OPEN OPTIONS
                                   14165              *
                                   14166              *
 001804 C7E4C5E2E3404040_          14167              NWAOPRT  SCKW  GUEST,NSCGUEST
 00182C C1E2C3C9C9404040_          14182                       SCKW  ASCII,NSCASCII
 001854 E3C1C2E240404040_          14197                       SCKW  TABS,NSCTABS,A
 00187C E3D9C1D5E2D7C1D9_          14212                       SCKW  TRANSPARENT,NSCTRANS,A
 0018A4 4040404040404040_          14227                       SCKW  ,V(NOTVALID)
                                   14242              *
                                   14243              *
                                   14244              *  NET SCRATCH OPTIONS
                                   14245              *
                                   14246              *
 0018CC 4040404040404040_          14247              NWASPRT  SCKW ,V(NOTVALID)
                                   14262              *
                                   14263              *
                                   14264              *  NET DIRECTORY OPTIONS
                                   14265              *
                                   14266              *
 0018F4 4040404040404040_          14267              NWADPRT  SCKW ,V(NOTVALID)
                                   14282              *
                                   14283              *
                                   14284              *
 00191C 50E0 D000/9008_      00000 14285              NSCGUEST PROC
 USING  *,R7
 001936 9680 6005      00005       14324                       SET   NWAFGUEST
 00193A 18D8/9808 D004_            14330                       PEND
 DROP   *,R7
                                   14350
 001948 50E0 D000/9008_      00000 14351              NSCASCII PROC
 USING  *,R7
 001962 9640 6005      00005       14390                       SET   NWAFASCII
 001966 18D8/9808 D004_            14396                       PEND
 DROP   *,R7
                                   14416
 001974 50E0 D000/9008_      00000 14417              NSCTRANS PROC
 USING  *,R7
 00198E 9620 6005      00005       14456                       SET   NWAFTRAN
 001992 18D8/9808 D004_            14462                       PEND
 DROP   *,R7
                                   14482
 0019A0 50E0 D000/9008_      00000 14483              NSCTABS  PROC
 USING  *,R7
 0019BA 9610 6005      00005       14522                       SET   NWAFTABS
 0019BE 18D8/9808 D004_            14528                       PEND
 DROP   *,R7
                                   14548
 DROP   FFINFO,R5                  14549                       DROP  R5
 DROP   NETWA,R6                   14556                       DROP  R6
1NET      (NET2025) (12:49) (15MAR04) Network File Access Routines                                                          Page   32
0Current Usings:  (CP,R11) (CV,R12)
0Loc    Object Code    Addr1 Addr2  Stmt Lv Lineno    Source Statement           (Hibal 5, Asmedit 3.3)  HLASM R4.0  2004/03/15 12.49
+___    ______ ____    _____ _____  ____ __ ______    ______ _________
0                                  14564              ¿þþþþþþþþþþþþþþþþþþþþþþþþþþþþþþþþþþþþþþþþþþþþþþþþþþþþþþþþþþþþþþþþþþþþþÜ
                                   14565              Ÿ                                                                     Ÿ
                                   14566              Ÿ  NETREAD -- Routine to read the next line from a network file.      Ÿ
                                   14567              Ÿ                                                                     Ÿ
                                   14568              Ÿ    On entry:                                                        Ÿ
                                   14569              Ÿ      R1,R0 - loc, len of line buffer                                Ÿ
                                   14570              Ÿ      DEVICE work area contains information about the file.          Ÿ
                                   14571              Ÿ                                                                     Ÿ
                                   14572              Ÿ    On exit, R15 (and cc):                                           Ÿ
                                   14573              Ÿ      R1,R0 - text loc,len                                           Ÿ
                                   14574              Ÿ      R2 - line number                                               Ÿ
                                   14575              Ÿ      R15=ZERO, line read.  R15=NZ, end of file                      Ÿ
                                   14576              Ÿ                                                                     Ÿ
                                   14577              Ÿ                                                                     Ÿ
                                                      ¾þþþþþþþþþþþþþþþþþþþþþþþþþþþþþþþþþþþþþþþþþþþþþþþþþþþþþþþþþþþþþþþþþþþþþ»
0000000                00000 00008 14578              NRDWA    RECORD BEGIN
 000000                            14586  1           NRDLOC     DS    F
 000004                            14587  1           NRDLEN     DS    F
 000008                00008 00008 14588                       END
                                   14597              *
                                   14598              *
 0019CC 50E0 D000/9008_      00000 14599              NETREAD  XPROC NRDWA
 USING  *,R7
 USING  NRDWA-(4+36),R8
 0019E6 5010 8028            00000 14650                       ST    R1,NRDLOC
 0019EA 5000 802C            00004 14651                       ST    R0,NRDLEN
                                   14652
 0019EE 5860 BE58            00E58 14653                       L     R6,CPDEVP           UNET ptr
 USING  NETWA,R6                   14654                       WITH  (NETWA,R6)
 0019F2 D502 755A 6000_01F40 00000 14667                       FAIL  (NETWA,NE,'NET'),BADNET,'Bad NETWA ptr'
                                   14696                       ¿þþþþþþþþþþþþþþþþþþþþþþÜ
                                   14697                       Ÿ  Get the next line.  Ÿ
                                   14698                       ¾þþþþþþþþþþþþþþþþþþþþþþ»
 001A14                            14699              NETRLOOP LOOP  BEGIN
 001A14 1B00                       14706  1                      CLEAR R0                  0 = EBCDIC mode
 001A16 9140 6005/47E0_00005       14710  1                      IF    NWAFASCII,'LA R0,1'  1 = ASCII mode
 001A22 58F0 6168            00168 14731  1                      L     R15,NWADNETP
 001A26 9120 6005/4710_00005       14732  1                      IF    ~NWAFTRAN,BEGIN     Regular text read
 001A2E 58E0 74D2/0DEE       01EB8 14747  2                        VCALL NPATREAD
 001A34                            14751  1                      END
 001A34 9120 6005/47E0_00005       14755  1                      IF    NWAFTRAN,BEGIN      Transparent mode
 001A3C 58E0 74D6/0DEE       01EBC 14770  2                        VCALL NPATXRD
 001A42                            14774  1                      END
 001A42 12FF/4780 70AC             14778  1                      IF    (R15,Z),EXIT        We have the line, scram
                                   14795  1                      ¿þþþþþþþþþþþþþþþþþþþþþþþÜ
                                   14796  1                      Ÿ  Normal end of file.  Ÿ
                                   14797  1                      ¾þþþþþþþþþþþþþþþþþþþþþþþ»
 001A48 D50A 7626 1000_0200C 00000 14798  1                      IF    (@R1,EQ,'END OF FILE'),BEGIN  End of file...
 001A52 41F0 0004            00004 14814  2                        LA    R15,4
 001A56 47F0 70BA            01AA0 14815  2                        B     NETREXIT
 001A5A                            14816  1                      END
1NET      (NET2025) (12:49) (15MAR04) Network File Access Routines                                                          Page   33
0Current Usings:  (NETWA,R6) (*,R7) (NRDWA-(4+36),R8) (CP,R11) (CV,R12)
0Loc    Object Code    Addr1 Addr2  Stmt Lv Lineno    Source Statement           (Hibal 5, Asmedit 3.3)  HLASM R4.0  2004/03/15 12.49
+___    ______ ____    _____ _____  ____ __ ______    ______ _________
0                                  14820  1                      ¿þþþþþþþþþþþþþþþþþþþþþþþþþþþþþþþÜ
                                   14821  1                      Ÿ  Network error of some sort.  Ÿ
                                   14822  1                      ¾þþþþþþþþþþþþþþþþþþþþþþþþþþþþþþþ»
 001A5A 9001 D000/41D0_      00000 14823  1                      XPUSH R0,R1
 001A62 4110 7631/4100_      02017 14826  1                      TSEG  'Network error while reading -- '
 001A74 4BD0 7510/9801_      01EF6 14844  1                      XPOP  R0,R1
 001A7C 41F0 B050/58E0_      00050 14847  1                      TSEG  (R1),(R0),WR
 001A86 41F0 0004            00004 14871  1                      LA    R15,4
 001A8A 47F0 70BA            01AA0 14872  1                      B     NETREXIT
 001A8E 47F0 702E            01A14 14873                       END
                                   14878                       ¿þþþþþþþþþþþþþþþþþþþþþþþþþÜ
                                   14879                       Ÿ  Return line to caller  Ÿ
                                   14880                       ¾þþþþþþþþþþþþþþþþþþþþþþþþþ»
 001A92 5820 6170            00170 14881                       L      R2,NWALNO
 001A96 5A20 B738            00738 14882                       A      R2,CPDELTA
 001A9A 5020 6170            00170 14883                       ST     R2,NWALNO         New lineno
 001A9E 1BFF                       14884                       CLEAR  R15
                                   14888
 001AA0                            14889              NETREXIT LABEL ,
 001AA0 12FF/4770 70E2             14891                       IF    (R15,Z),BEGIN       RETURN TEXT, LINE NUMBER
 001AA6 5820 8028            00000 14905  1                      L     R2,NRDLOC           MOVE TEXT TO LINE BUFFER
 001AAA 5830 802C            00004 14906  1                      L     R3,NRDLEN
 001AAE 1841                       14907  1                      LR    R4,R1
 001AB0 1850                       14908  1                      LR    R5,R0
 001AB2 1953/47D0 70D4_            14909  1                      IF    (R5,GT,R3),'LR R5,R3'
 001ABA 0E24                       14930  1                      MVCL  R2,R4
 001ABC 5810 8028            00000 14931  1                      L     R1,NRDLOC           RETURN LOC,LEN,LNO
 001AC0 5820 6170            00170 14932  1                      L     R2,NWALNO
 001AC4 9002 8004            00004 14933  1                      PRETURN (R0,R2)
 001AC8                            14935                       END
 001AC8 18D8/9808 D004_            14939                       PEND
 DROP   NETWA,R6
 DROP   NRDWA-(4+36),R8
 DROP   *,R7
1NET      (NET2025) (12:49) (15MAR04) Network File Access Routines                                                          Page   34
0Current Usings:  (CP,R11) (CV,R12)
0Loc    Object Code    Addr1 Addr2  Stmt Lv Lineno    Source Statement           (Hibal 5, Asmedit 3.3)  HLASM R4.0  2004/03/15 12.49
+___    ______ ____    _____ _____  ____ __ ______    ______ _________
0                                  14970              ¿þþþþþþþþþþþþþþþþþþþþþþþþþþþþþþþþþþþþþþþþþþþþþþþþþþþþþþþþþþþþþþþþþþþþþÜ
                                   14971              Ÿ                                                                     Ÿ
                                   14972              Ÿ  NETWRITE -- Routine to write the next line to a network file.      Ÿ
                                   14973              Ÿ                                                                     Ÿ
                                   14974              Ÿ    On entry:                                                        Ÿ
                                   14975              Ÿ      R1,R0 - line location, len                                     Ÿ
                                   14976              Ÿ      R2 - line number (ignored)                                     Ÿ
                                   14977              Ÿ      Device work area contains information about the file.          Ÿ
                                   14978              Ÿ                                                                     Ÿ
                                   14979              Ÿ    Only returns if ok.                                              Ÿ
                                   14980              Ÿ                                                                     Ÿ
                                                      ¾þþþþþþþþþþþþþþþþþþþþþþþþþþþþþþþþþþþþþþþþþþþþþþþþþþþþþþþþþþþþþþþþþþþþþ»
0001AD6 50E0 D000/9008_      00000 14981              NETWRITE XPROC
 USING  *,R7
 001AF0 5860 BE58            00E58 15021                       L     R6,CPDEVP           NETWA ptr
 USING  NETWA,R6                   15022                       WITH  (NETWA,R6)
 001AF4 D502 7450 6000_01F40 00000 15035                       FAIL  (NETWA,NE,'NET'),BADNET,'Bad NETWA ptr'
                                   15064
 001B16 1211/4770 7044_            15065                       FAIL  (R1,Z),NETERR9,'NETWRITE interface error.'
                                   15091                       ¿þþþþþþþþþþþþþþþþþþþþþþþþþþþþþþþþþþþþþþþþþþþþþþþþþþþþþÜ
                                   15092                       Ÿ  Add the new data line to the seg buffer.  The seg  Ÿ
                                   15093                       Ÿ    routines will automatically write the buffer if  Ÿ
                                   15094                       Ÿ    it overflows.                                    Ÿ
                                   15095                       ¾þþþþþþþþþþþþþþþþþþþþþþþþþþþþþþþþþþþþþþþþþþþþþþþþþþþþþ»
 001B34 9120 6005/4710_00005       15096                       IF    ~NWAFTRAN,BEGIN     Normal text mode...
                                   15111  1                      SEGDEF L:NWADSG
 001B3C 58F0 616C/58E0_      0016C 15112  1                      SEG   (R1),(R0)           Write line
 001B46 4110 7408/4100_      01EF8 15133  1                      SEG   X'0D25'             CR LF
 001B58                            15148                       END
                                   15152                       ¿þþþþþþþþþþþþþþþþþþþþþþþþþþþÜ
                                   15153                       Ÿ  Transparent write data.  Ÿ
                                   15154                       ¾þþþþþþþþþþþþþþþþþþþþþþþþþþþ»
 001B58 706C/47F0 712E 01B58 01B3A 15155                       ELSE  BEGIN               Transparent mode...
 001B5C 18F1                       15166  1                      LR    R15,R1              R1 = first character on line
 001B5E 1AF0                       15167  1                      AR    R15,R0
 001B60 06F0                       15168  1                      DECR  R15                 R15 = last character on line
                                   15170  1         C            IF    ((R0,LT,2),OR,
                                          1         C                  ('CLC @R1(1),@R15',NE),OR,
 001B62 5900 73D4/4740_      01EC4        1                            ((@R1,NE,'|'),AND,(@R1,NE,'@'))),BEGIN
 001B84 4110 7546/4100_      02036 15227  2                        TSEG  'Line '
 001B96 5800 B73C            0073C 15245  2                        L     R0,CPLCNO
 001B9A 58E0 73D8/0DEE       01EC8 15246  2                        VCALL CVEXNO
 001BA0 41F0 B050/58E0_      00050 15250  2                        TSEG  (R1),(R0)
 001BAA 4110 754B/4100_      0203B 15274  2                        SETMSG ' is not valid TRANSPARENT data.'
 001BB2 9560 4000/4780_00000       15278  2                        IF    ((@R4,EQ,'-'),OR,(@R4,EQ,X'2D')),BEGIN
 001BC2 4110 740A/4100_      01EFA 15309  3                          TSEG  ' has Macintosh transparent data which can not '
 001BD4 4110 7438/4100_      01F28 15327  3                          SETMSG 'be saved over the net.'
 001BDC                            15331  2                        END
 001BDC 41F0 B050/58E0_      00050 15335  2                        TSEG  (R1),(R0),CR
 001BE6 4110 72E0/4100_      01DD0 15359  2                        ABORT 'SAVE command incomplete.'
 001BF2                            15366  1                      END
1NET      (NET2025) (12:49) (15MAR04) Network File Access Routines                                                          Page   35
0Current Usings:  (NETWA,R6) (*,R7) (CP,R11) (CV,R12)
0Loc    Object Code    Addr1 Addr2  Stmt Lv Lineno    Source Statement           (Hibal 5, Asmedit 3.3)  HLASM R4.0  2004/03/15 12.49
+___    ______ ____    _____ _____  ____ __ ______    ______ _________
0                                  15370  1                      ¿þþþþþþþþþþþþþþþþþþþþþþþþþþþþþþþþþþþþþþþþþþþþþþþþþþþþþþþþþþþþþþþÜ
                                   15371  1                      Ÿ  If the first character is an "@" then the data is in ASCII,  Ÿ
                                   15372  1                      Ÿ    and if the first character is a "|" then it is in EBCDIC.  Ÿ
                                   15373  1                      ¾þþþþþþþþþþþþþþþþþþþþþþþþþþþþþþþþþþþþþþþþþþþþþþþþþþþþþþþþþþþþþþþ»
 001BF2 954F 1000/4770_00000       15374  1                      IF    (@R1,EQ,'|'),BEGIN  ASCII...
 001BFA 58E0 73DC/0DEE       01ECC 15390  2                        VCALL TOASCII             If EBCDIC, convert to ASCII
 001C00                            15394  1                      END
                                   15398  1
 001C00 5850 6168            00168 15399  1                      L     R5,NWADNETP
 USING  UNET,R5                    15400  1                      WITH  (UNET,R5),BEGIN
 001C04 9640 5104      00104       15414  2                        SET   UNETFNOXL           Don't translate data
                                   15420  2                        SEGDEF L:NWADSG
 001C08 4B00 744E            01F3E 15421  2                        SH    R0,=H'2'            Deduct len of guard chars
 001C0C 4110 1001/58F0_      00001 15422  2                        SEG   @R1+1,(R0)          Write line w/o translation
 001C1A 94BF 5104      00104       15446  2                        CLEAR UNETFNOXL           Reset
 DROP   UNET,R5                    15453  1                      END
 001C1E                            15461                       END
                                   15465                       ¿þþþþþþþþþþþþþþþþþþþþþþþþþþþþþþþþþþþþþþþþþþþþþþþþþþþþþþþþþþþþþþÜ
                                   15466                       Ÿ  Ask the user if he wants to stop if ATTN has been pressed.  Ÿ
                                   15467                       ¾þþþþþþþþþþþþþþþþþþþþþþþþþþþþþþþþþþþþþþþþþþþþþþþþþþþþþþþþþþþþþþ»
 001C1E 5850 C1C8            001C8 15468                       L     R5,CVCURJCB
 USING  JCB,R5                     15469                       WITH  (JCB,R5),BEGIN
 001C22 9102 5062/47E0_00062       15483  1                      IF    JCBFATTN,BEGIN      Attn received...
 001C2A 94FD 5062      00062       15498  2                        CLEAR JCBFATTN            Reset ATTN flag
                                   15505  2                        ¿þþþþþþþþþþþþþþþþþþþþþþþþþþþþþþþþþþþþþþþþþþþþþþþþþþþþþþþþþþþÜ
                                   15506  2                        Ÿ  Our message will erase the "(xxx lines written)" status  Ÿ
                                   15507  2                        Ÿ    message, so we reset the flag saying a status message  Ÿ
                                   15508  2                        Ÿ    has been written.                                      Ÿ
                                   15509  2                        ¾þþþþþþþþþþþþþþþþþþþþþþþþþþþþþþþþþþþþþþþþþþþþþþþþþþþþþþþþþþþ»
 001C2E 94F7 BC7D      00C7D       15510  2                        CLEAR CPFSTMSG            Turn off status message flag
                                   15517  2                        ¿þþþþþþþþþþþþþþþþþþþþþþþþþþþþþþÜ
                                   15518  2                        Ÿ  Write out our own message.  Ÿ
                                   15519  2                        ¾þþþþþþþþþþþþþþþþþþþþþþþþþþþþþþ»
 001C32 5810 BF50/1B00_      00F50 15520  2                        TNUM  L:DSNLCNT           Current number of lines
 001C42 D603 BF54 BF54_00F54 00F54 15542  2                        IF    (DSNLTOT,NZ),BEGIN  Give total line count too...
 001C4C 4110 73E4/4100_      01ED4 15558  3                          TSEG  ' of '
 001C5E 5810 BF54/1B00_      00F54 15576  3                          TNUM  L:DSNLTOT
 001C6E                            15598  2                        END
 001C6E 4110 72F8/4100_      01DE8 15602  2                        TSEG  ' lines have been written so far.'
 001C80 4110 C4D8/4100_      004D8 15620  2                        TSEG  CVBLANKS,20,CR      (Extra padding erases old msg)
                                   15650  2
 001C92 4110 7318/4100_      01E08 15651  2                        SETMSG 'Do you want to continue saving this file'
 001C9A 58E0 73E8/0DEE       01ED8 15655  2                        VCALL YESNO               We want a YES or a NO
 001CA0 4780 71D2            01CC2 15659  2                        IF    Z,EXIT              Yes, scram
                                   15673  2
 001CA4 4110 756A/4100_      0205A 15674  2                        TSEG  'File transfer stopped, your file is only '
 001CB6 4110 7340/4100_      01E30 15692  2                        ABORT 'partially saved.'
 001CC2                            15699  1                      END
 DROP   JCB,R5                     15703                       END
                                   15711
 001CC2 18D8/9808 D004_            15712                       PEND
 DROP   NETWA,R6
 DROP   *,R7
                                   15737
1NET      (NET2025) (12:49) (15MAR04) Network File Access Routines                                                          Page   36
0Current Usings:  (CP,R11) (CV,R12)
0Loc    Object Code    Addr1 Addr2  Stmt Lv Lineno    Source Statement           (Hibal 5, Asmedit 3.3)  HLASM R4.0  2004/03/15 12.49
+___    ______ ____    _____ _____  ____ __ ______    ______ _________
0                                  15738                       SEGDEF DUMMY              (Safety)
1NET      (NET2025) (12:49) (15MAR04) Network File Access Routines                                                          Page   37
0Current Usings:  (CP,R11) (CV,R12)
0Loc    Object Code    Addr1 Addr2  Stmt Lv Lineno    Source Statement           (Hibal 5, Asmedit 3.3)  HLASM R4.0  2004/03/15 12.49
+___    ______ ____    _____ _____  ____ __ ______    ______ _________
0                                  15740              ¿þþþþþþþþþþþþþþþþþþþþþþþþþþþþþþþþþþþþþþþþþþþþþþþþþþþþþþþþþþþþþþþþþþþþþÜ
                                   15741              Ÿ                                                                     Ÿ
                                   15742              Ÿ  NETCLOSE -- Routine to close a network file.                       Ÿ
                                   15743              Ÿ                                                                     Ÿ
                                   15744              Ÿ    On entry:                                                        Ÿ
                                   15745              Ÿ    NET DEVICE WORK AREA (NWA) contains info about the file          Ÿ
                                   15746              Ÿ                                                                     Ÿ
                                                      ¾þþþþþþþþþþþþþþþþþþþþþþþþþþþþþþþþþþþþþþþþþþþþþþþþþþþþþþþþþþþþþþþþþþþþþ»
0001CD0 50E0 D000/9008_      00000 15747              NETCLOSE XPROC
 USING  *,R7
 001CEA 5860 BE58            00E58 15787                       L     R6,CPDEVP           NETWA ptr
 USING  NETWA,R6                   15788                       WITH  (NETWA,R6)
 001CEE D502 7256 6000_01F40 00000 15801                       FAIL  (NETWA,NE,'NET'),NETCLOSE,'Bad NETWA ptr'
                                   15830                       ¿þþþþþþþþþþþþþþþþþþþþþþþþþþþþþþÜ
                                   15831                       Ÿ  Close any data connection.  Ÿ
                                   15832                       ¾þþþþþþþþþþþþþþþþþþþþþþþþþþþþþþ»
 001D10 5850 6168/1255_      00168 15833                       IF    ('LT R5,NWADNETP',NZ),BEGIN  Data connection...
 USING  UNET,R5                    15849  1                      WITH  (UNET,R5)
                                   15862  1
 001D1A 9160 5164/4770_00164       15863  1                      IF    (UNETFOUTEOF+UNETFOUTABORT,Z),BEGIN  Still active...
 001D22 9140 6004/47E0_00004       15883  2                        IF    NWAFWR,BEGIN        Write last buffer...
 001D2A D603 5118 5118_00118 00118 15898  3                          IF    (UNETOUTSGLENF,NZ),'SEGWR ,,UNETOUTSG'  Write buffer
 001D40                            15943  2                        END
 001D40 41F0 510C/58E0_      0010C 15947  2                        SEGCLR ,UNETOUTSG         (Neatness)
                                   15960  2
 001D4A 4110 7399            02083 15961  2                        LA    R1,=C'EOF'          Normal end of file
 001D4E 18F5                       15962  2                        LR    R15,R5
 001D50 58E0 71F6/0DEE       01EE0 15963  2                        VCALL NPATCTRL            Send end of file
 001D56                            15967  1                      END
                                   15971  1
 001D56 18F5                       15972  1                      LR    R15,R5
 001D58 58E0 71FA/0DEE       01EE4 15973  1                      VCALL NPATCLS             Close and free data path
 DROP   UNET,R5                    15977                       END
                                   15986                       ¿þþþþþþþþþþþþþþþþþþþþþþþþþþþþþþþþþþÜ
                                   15987                       Ÿ  Do FTP signoff if appropriate.  Ÿ
                                   15988                       ¾þþþþþþþþþþþþþþþþþþþþþþþþþþþþþþþþþþ»
 001D5E 9180 6004/47E0_00004       15989                       IF    NWAFOPEN,BEGIN
 001D66 947F 6004      00004       16004  1                      CLEAR NWAFOPEN            No longer open
 001D6A 58E0 71FE/0DEE       01EE8 16011  1                      ACALL FTPCLOSE            Close FTP connection
 001D70                            16015                       END
                                   16019                       ¿þþþþþþþþþþþþþþþþþþþþþþþþþþþþþþþþþÜ
                                   16020                       Ÿ  Close the control connection.  Ÿ
                                   16021                       ¾þþþþþþþþþþþþþþþþþþþþþþþþþþþþþþþþþ»
 001D70 5850 6160/1255_      00160 16022                       IF    ('LT R5,NWAUNETP',NZ),BEGIN  Control connection...
 USING  UNET,R5                    16038  1                      WITH  (UNET,R5)
                                   16051  1
 001D7A 9160 5164/4770_00164       16052  1                      IF    (UNETFOUTEOF+UNETFOUTABORT,Z),BEGIN  Still active...
 001D82 4110 7399            02083 16072  2                        LA    R1,=C'EOF'          Normal end of file
 001D86 18F5                       16073  2                        LR    R15,R5
 001D88 58E0 71F6/0DEE       01EE0 16074  2                        VCALL NPATCTRL            Send end of file
 001D8E                            16078  1                      END
                                   16082  1
 001D8E 18F5                       16083  1                      LR    R15,R5
1NET      (NET2025) (12:49) (15MAR04) Network File Access Routines                                                          Page   38
0Current Usings:  (UNET,R5) (NETWA,R6) (*,R7) (CP,R11) (CV,R12)
0Loc    Object Code    Addr1 Addr2  Stmt Lv Lineno    Source Statement           (Hibal 5, Asmedit 3.3)  HLASM R4.0  2004/03/15 12.49
+___    ______ ____    _____ _____  ____ __ ______    ______ _________
0001D90 58E0 71FA/0DEE       01EE4 16084  1                      VCALL NPATCLS             Close and free data path
 DROP   UNET,R5                    16088                       END
                                   16097                       ¿þþþþþþþþþþþþþþþþþþþþþþþþþþþþþþÜ
                                   16098                       Ÿ  Release NETWA if possible.  Ÿ
                                   16099                       ¾þþþþþþþþþþþþþþþþþþþþþþþþþþþþþþ»
 001D96 D202 6000 739C 00000 02086 16100                       MVC   NETWA(3),=C'ONT'    Invalidate NETWA
 001D9C D703 BE58 BE58 00E58 00E58 16101                       CLEAR CPDEVP
 001DA2 58E0 7156/0DEE       01E40 16108                       VCALL MARKHEAP            Get current heap ptr
 001DA8 59F0 6178/4770_      00178 16112                       IF    (R15,EQ,NWANHEAP),BEGIN  We can reduce the heap...
 001DB0 58F0 6174            00174 16129  1                      L     R15,NWAOHEAP
 001DB4 58E0 7202/0DEE       01EEC 16130  1                      VCALL RELHEAP             Release NETWA
 001DBA                            16134                       END
                                   16138
 001DBA 18D8/9808 D004_            16139                       PEND
 DROP   NETWA,R6
 DROP   *,R7
                                   16164
                                   16165                       QLTORG
1NET      (NET2025) (12:49) (15MAR04) Network File Access Routines                                                          Page   39
0Current Usings:  (CP,R11) (CV,R12)
0Loc    Object Code    Addr1 Addr2  Stmt Lv Lineno    Source Statement           (Hibal 5, Asmedit 3.3)  HLASM R4.0  2004/03/15 12.49
+___    ______ ____    _____ _____  ____ __ ______    ______ _________
0                                  16242              ¿þþþþþþþþþþþþþþþþþþþþþþþþþþþþþþþþþþþþþþþþþþþþþþþþþþþþþþþþþþþþþþþþþþþþþÜ
                                   16243              Ÿ                                                                     Ÿ
                                   16244              Ÿ  NETSCR -- Routine to scratch a network file.                       Ÿ
                                   16245              Ÿ                                                                     Ÿ
                                   16246              Ÿ    On entry:                                                        Ÿ
                                   16247              Ÿ    NET DEVICE WORK AREA (NWA) contains info about the file          Ÿ
                                   16248              Ÿ                                                                     Ÿ
                                                      ¾þþþþþþþþþþþþþþþþþþþþþþþþþþþþþþþþþþþþþþþþþþþþþþþþþþþþþþþþþþþþþþþþþþþþþ»
0002090 50E0 D000/9008_      00000 16249              NETSCR   XPROC
 USING  *,R7
                                   16289
 0020AA 5840 BE54            00E54 16290                       L     R4,CPFINFOP
 USING  FFINFO,R4                  16291                       USING FFINFO,R4
                                   16300                       ¿þþþþþþþþþþþþþþþþþþþþþþþþþþþþþþþþþþÜ
                                   16301                       Ÿ  Allocate heap space for NETWA.  Ÿ
                                   16302                       ¾þþþþþþþþþþþþþþþþþþþþþþþþþþþþþþþþþþ»
 0020AE 58E0 7506/0DEE       025B0 16303                       VCALL MARKHEAP            Get current heap ptr
 0020B4 182F                       16307                       LR    R2,R15
                                   16308
 0020B6 4800 758E            02638 16309                       LH    R0,=AL2(L'NETWA)
 0020BA 58E0 750A/0DEE       025B4 16310                       VCALL GETHEAP             Get work area
 0020C0 5010 BE58            00E58 16314                       ST    R1,CPDEVP
 0020C4 1861                       16315                       LR    R6,R1
 USING  NETWA,R6                   16316                       WITH  (NETWA,R6)
 0020C6 D7FF 6000 6000_00000 00000 16329                       CLEAR NETWA
 0020D2 D202 6000 7596 00000 02640 16337                       MVC   NETWA(3),=C'NET'
 0020D8 D21F 6120 C4D8 00120 004D8 16338                       MVC   NWANUSER,CVBLANKS
 0020DE D21F 6140 C4D8 00140 004D8 16339                       MVC   NWANPASS,CVBLANKS
                                   16340
 0020E4 5020 6174            00174 16341                       ST    R2,NWAOHEAP         Save old heap ptr
 0020E8 58E0 7506/0DEE       025B0 16342                       VCALL MARKHEAP            Get current heap ptr
 0020EE 50F0 6178            00178 16346                       ST    R15,NWANHEAP        Save new heap ptr
                                   16347
 0020F2 41F0 0001/5EF0_      00001 16348                       INCR  R15,CVENSCR         Count net scratch command
                                   16354
                                   16355                       COMMENT                   SCAN NET OPTIONS
 0020FE 58E0 B08C/D2AF_      0008C 16356                       SCPUSH
 00210C 4110 4114/5800_      00114 16362                       SCINIT FFOPTS,L:FFOPTSL
 002122 5810 B08C/1B00_      0008C 16386                       SCAN  NWASPRT
 002174 58E0 7516/0DEE       025C0 16418                       SCANCHK                   ERROR EXIT FROM HERE !
 00217A 58E0 B08C/4BD0_      0008C 16423                       SCPOP
                                   16429
                                   16430                       COMMENT                   RESOLVE NAME
 002188 58E0 751A/0DEE       025C4 16431                       VCALL NRESOLVE
                                   16435
                                   16436                       COMMENT                   SET FILE, HOST NAMES
 00218E 58E0 751E/0DEE       025C8 16437                       ACALL SETFNAME
 002194 58E0 7522/0DEE       025CC 16441                       ACALL SETFHOST
1NET      (NET2025) (12:49) (15MAR04) Network File Access Routines                                                          Page   40
0Current Usings:  (FFINFO,R4) (NETWA,R6) (*,R7) (CP,R11) (CV,R12)
0Loc    Object Code    Addr1 Addr2  Stmt Lv Lineno    Source Statement           (Hibal 5, Asmedit 3.3)  HLASM R4.0  2004/03/15 12.49
+___    ______ ____    _____ _____  ____ __ ______    ______ _________
0                                  16445                       ¿þþþþþþþþþþþþþþþþþþþþþþþþþþþþþþþþþÜ
                                   16446                       Ÿ  Allocate Amelia network path.  Ÿ
                                   16447                       ¾þþþþþþþþþþþþþþþþþþþþþþþþþþþþþþþþþ»
 00219A 1B00                       16448                       CLEAR R0                  User UNET
 00219C 58E0 7526/0DEE       025D0 16452                       VCALL NPATALLO            Allocate communications path
 0021A2 4780 7136            021E0 16456                       IF    NZ,BEGIN            Trouble...
 0021A6 9001 D000/41D0_      00000 16467  1                      XPUSH R0,R1
 0021AE 4110 7599/4100_      02643 16470  1                      TSEG  'Can''t allocate network connection -- '
 0021C0 4BD0 7594/9801_      0263E 16488  1                      XPOP  R0,R1
 0021C8 41F0 B050/58E0_      00050 16491  1                      TSEG  (R1),(R0),CR
 0021D2 D207 B886 74FE 00886 025A8 16515  1                      MVC   CPERRID,=CL8'NETERR'
 0021D8 41F0 0004            00004 16516  1                      LA    R15,4
 0021DC 47F0 7236            022E0 16517  1                      B     NETSEXIT
 0021E0                            16518                       END
                                   16522                       ¿þþþþþþþþþþþþþþþþþþþþþþþþþþþþþþþþþþþþþþþþÜ
                                   16523                       Ÿ  Establish connection to remote host.  Ÿ
                                   16524                       ¾þþþþþþþþþþþþþþþþþþþþþþþþþþþþþþþþþþþþþþþþ»
 0021E0 5010 6160            00160 16525                       ST    R1,NWAUNETP         Save primary UNET path ptr
 0021E4 1851                       16526                       LR    R5,R1
 USING  UNET,R5                    16527                       WITH  (UNET,R5)
 0021E6 41F0 510C            0010C 16540                       LA    R15,UNETOUTSG
 0021EA 50F0 6164            00164 16541                       ST    R15,NWAUSG          Save output SEGCB ptr
                                   16542
 0021EE D24F 517C C4D8 0017C 004D8 16543                       MVC   UNETRNAME,CVBLANKS  Pre-blank
 0021F4 5830 608C            0008C 16544                       L     R3,NWAHOSTL
 0021F8 5930 7532/47D0_      025DC 16545                       CEIL  R3,L'UNETRNAME
 002204 0630/1233/4740_            16564                       MOVE  R3,UNETRNAME,NWAHOST Host name
 002210 D203 51D0 7536 001D0 025E0 16602                       MVC   UNETRPORT,=A(FTPPORT#)  Set FTP port number
                                   16603
 002216 41F0 5000            00000 16604                       LA    R15,UNET
 00221A 58E0 753A/0DEE       025E4 16605                       VCALL NPATOPEN            Open the network path
 002220 4780 7226            022D0 16609                       IF    NZ,BEGIN            Trouble...
 002224 D510 75BE 1000_02668 00000 16620  1                      IF    (@R1,EQ,'NO NETWORK SERVER'),BEGIN
 00222E 4110 75CF/4100_      02679 16636  2                        TSEG  'Amelia is not running; '
 002240 4110 75E6/4100_      02690 16654  2                        SETMSG 'network access is not possible.'
 002248                            16658  1                      END
                                   16662  1
 002248 71A2/47F0 71C6_02248 0222C 16663  1                      ELSEIF (@R1,EQ,'ERROR: UNKNOWN HOST'),BEGIN
 002256 4110 6090/5800_      00090 16688  2                        TSEG  NWAHOST,L:NWAHOSTL
 002268 4110 7618/4100_      026C2 16716  2                        SETMSG ': host not found.'
 002270                            16720  1                      END
                                   16724  1
 002270 71CA/47F0 71EE_02270 02254 16725  1                      ELSEIF (@R1,EQ,'TIMEOUT'),BEGIN
 00227E 4110 753E/4100_      025E8 16750  2                        TSEG  'Unable to do this command, no response from '
 002290 4110 756A/4100_      02614 16768  2                        SETMSG 'the remote computer.'
 002298                            16772  1                      END
                                   16776  1
 002298 71F2/47F0 7214 02298 0227C 16777  1                      ELSE  BEGIN
 00229C 9001 D000/41D0_      00000 16788  2                        XPUSH R0,R1
 0022A4 4110 7630/4100_      026DA 16791  2                        TSEG  'Can''t open network connection -- '
 0022B6 4BD0 7594/9801_      0263E 16809  2                        XPOP  R0,R1
 0022BE                            16812  1                      END
                                   16816  1
 0022BE 41F0 B050/58E0_      00050 16817  1                      TSEG  (R1),(R0),CR
1NET      (NET2025) (12:49) (15MAR04) Network File Access Routines                                                          Page   41
0Current Usings:  (FFINFO,R4) (UNET,R5) (NETWA,R6) (*,R7) (CP,R11) (CV,R12)
0Loc    Object Code    Addr1 Addr2  Stmt Lv Lineno    Source Statement           (Hibal 5, Asmedit 3.3)  HLASM R4.0  2004/03/15 12.49
+___    ______ ____    _____ _____  ____ __ ______    ______ _________
00022C8 41F0 0004            00004 16841  1                      LA    R15,4
 0022CC 47F0 7236            022E0 16842  1                      B     NETSEXIT            Trouble
 0022D0                            16843                       END
                                   16847
 0022D0 58E0 757E/0DEE       02628 16848                       ACALL FTPOPEN             Do FTP dialog
 0022D6 4770 7236            022E0 16852                       IF    Z,BEGIN             Connection is open...
 0022DA 58E0 7582/0DEE       0262C 16863  1                      ACALL FTPSCR              Scratch the file
 0022E0                            16867                       END
                                   16871
 0022E0 18D8/9808 D004_            16872              NETSEXIT PEND
 DROP   UNET,R5
 DROP   NETWA,R6
 DROP   *,R7
 DROP   FFINFO,R4                  16903                       DROP  R4
1NET      (NET2025) (12:49) (15MAR04) Network File Access Routines                                                          Page   42
0Current Usings:  (CP,R11) (CV,R12)
0Loc    Object Code    Addr1 Addr2  Stmt Lv Lineno    Source Statement           (Hibal 5, Asmedit 3.3)  HLASM R4.0  2004/03/15 12.49
+___    ______ ____    _____ _____  ____ __ ______    ______ _________
0                                  16911              ¿þþþþþþþþþþþþþþþþþþþþþþþþþþþþþþþþþþþþþþþþþþþþþþþþþþþþþþþþþþþþþþþþþþþþþÜ
                                   16912              Ÿ                                                                     Ÿ
                                   16913              Ÿ  NETREN -- Routine to rename a network file.                        Ÿ
                                   16914              Ÿ                                                                     Ÿ
                                   16915              Ÿ    On entry:                                                        Ÿ
                                   16916              Ÿ    NET DEVICE WORK AREA (NWA) contains info about the file          Ÿ
                                   16917              Ÿ                                                                     Ÿ
                                                      ¾þþþþþþþþþþþþþþþþþþþþþþþþþþþþþþþþþþþþþþþþþþþþþþþþþþþþþþþþþþþþþþþþþþþþþ»
00022EE 50E0 D000/9008_      00000 16918              NETREN   XPROC
 USING  *,R7
 002308 4110 73F3/4100_      026FB 16958                       ABORT 'Network RENAME command not yet supported.'
 002314 18D8/9808 D004_            16965                       PEND
 DROP   *,R7
1NET      (NET2025) (12:49) (15MAR04) Network File Access Routines                                                          Page   43
0Current Usings:  (CP,R11) (CV,R12)
0Loc    Object Code    Addr1 Addr2  Stmt Lv Lineno    Source Statement           (Hibal 5, Asmedit 3.3)  HLASM R4.0  2004/03/15 12.49
+___    ______ ____    _____ _____  ____ __ ______    ______ _________
0                                  16986              ¿þþþþþþþþþþþþþþþþþþþþþþþþþþþþþþþþþþþþþþþþþþþþþþþþþþþþþþþþþþþþþþþþþþþþþÜ
                                   16987              Ÿ                                                                     Ÿ
                                   16988              Ÿ  NETDIR -- Routine to do a network "SHOW DIRECTORY" command.        Ÿ
                                   16989              Ÿ                                                                     Ÿ
                                   16990              Ÿ    On entry:                                                        Ÿ
                                   16991              Ÿ    R1,R0 - loc, len of like string                                  Ÿ
                                   16992              Ÿ    NET DEVICE WORK AREA (NWA) contains info about the file          Ÿ
                                   16993              Ÿ                                                                     Ÿ
                                                      ¾þþþþþþþþþþþþþþþþþþþþþþþþþþþþþþþþþþþþþþþþþþþþþþþþþþþþþþþþþþþþþþþþþþþþþ»
0002322 50E0 D000/9008_      00000 16994              NETDIR   XPROC
 USING  *,R7
                                   17034
 00233C 5840 BE54            00E54 17035                       L     R4,CPFINFOP
 USING  FFINFO,R4                  17036                       USING FFINFO,R4
                                   17045                       ¿þþþþþþþþþþþþþþþþþþþþþþþþþþþþþþþþþþÜ
                                   17046                       Ÿ  Allocate heap space for NETWA.  Ÿ
                                   17047                       ¾þþþþþþþþþþþþþþþþþþþþþþþþþþþþþþþþþþ»
 002340 58E0 7274/0DEE       025B0 17048                       VCALL MARKHEAP            Get current heap ptr
 002346 182F                       17052                       LR    R2,R15
                                   17053
 002348 9001 D000/41D0_      00000 17054                       XPUSH R0,R1
 002350 4800 72FC            02638 17057                       LH    R0,=AL2(L'NETWA)
 002354 58E0 7278/0DEE       025B4 17058                       VCALL GETHEAP             Get work area
 00235A 5010 BE58            00E58 17062                       ST    R1,CPDEVP
 00235E 1861                       17063                       LR    R6,R1
 USING  NETWA,R6                   17064                       WITH  (NETWA,R6)
 002360 4BD0 7302/9801_      0263E 17077                       XPOP  R0,R1
                                   17080
 002368 D7FF 6000 6000_00000 00000 17081                       CLEAR NETWA
 002374 D202 6000 7304 00000 02640 17089                       MVC   NETWA(3),=C'NET'
 00237A D21F 6120 C4D8 00120 004D8 17090                       MVC   NWANUSER,CVBLANKS
 002380 D21F 6140 C4D8 00140 004D8 17091                       MVC   NWANPASS,CVBLANKS
                                   17092
 002386 5000 6114            00114 17093                       ST    R0,NWALIKLN
 00238A 5010 6110            00110 17094                       ST    R1,NWALIKAD
                                   17095
 00238E 5020 6174            00174 17096                       ST    R2,NWAOHEAP         Save old heap ptr
 002392 58E0 7274/0DEE       025B0 17097                       VCALL MARKHEAP            Get current heap ptr
 002398 50F0 6178            00178 17101                       ST    R15,NWANHEAP        Save new heap ptr
                                   17102
 00239C 41F0 0001/5EF0_      00001 17103                       INCR  R15,CVENDIR         Count net directory command
                                   17109
                                   17110                       COMMENT                   SCAN NET OPTIONS
 0023A8 58E0 B08C/D2AF_      0008C 17111                       SCPUSH
 0023B6 4110 4114/5800_      00114 17117                       SCINIT FFOPTS,L:FFOPTSL
 0023CC 5810 B08C/1B00_      0008C 17141                       SCAN  NWADPRT
 00241E 58E0 7284/0DEE       025C0 17173                       SCANCHK                   ERROR EXIT FROM HERE !
 002424 58E0 B08C/4BD0_      0008C 17178                       SCPOP
                                   17184
                                   17185                       COMMENT                   IF DIRECTORY FILE NAME GIVEN
 002432 D603 4008 4008_00008 00008 17186                       IF    (FFNAMEL,NZ),BEGIN
                                   17202  1                      COMMENT                   RESOLVE NAME
 00243C 58E0 7288/0DEE       025C4 17203  1                      VCALL NRESOLVE
1NET      (NET2025) (12:49) (15MAR04) Network File Access Routines                                                          Page   44
0Current Usings:  (FFINFO,R4) (NETWA,R6) (*,R7) (CP,R11) (CV,R12)
0Loc    Object Code    Addr1 Addr2  Stmt Lv Lineno    Source Statement           (Hibal 5, Asmedit 3.3)  HLASM R4.0  2004/03/15 12.49
+___    ______ ____    _____ _____  ____ __ ______    ______ _________
0                                  17207  1                      COMMENT                   SET FILE
 002442 58E0 728C/0DEE       025C8 17208  1                      ACALL SETFNAME
 002448                            17212                       END
 002448 58E0 7290/0DEE       025CC 17216                       ACALL SETFHOST            SET HOST EVEN IF NO FILE NAME
                                   17220                       ¿þþþþþþþþþþþþþþþþþþþþþþþþþþþþþþþþþÜ
                                   17221                       Ÿ  Allocate Amelia network path.  Ÿ
                                   17222                       ¾þþþþþþþþþþþþþþþþþþþþþþþþþþþþþþþþþ»
 00244E 1B00                       17223                       CLEAR R0                  User UNET
 002450 58E0 7294/0DEE       025D0 17227                       VCALL NPATALLO            Allocate communications path
 002456 4780 7158            02494 17231                       IF    NZ,BEGIN            Trouble...
 00245A 9001 D000/41D0_      00000 17242  1                      XPUSH R0,R1
 002462 4110 7307/4100_      02643 17245  1                      TSEG  'Can''t allocate network connection -- '
 002474 4BD0 7302/9801_      0263E 17263  1                      XPOP  R0,R1
 00247C 41F0 B050/58E0_      00050 17266  1                      TSEG  (R1),(R0),CR
 002486 D207 B886 726C 00886 025A8 17290  1                      MVC   CPERRID,=CL8'NETERR'
 00248C 41F0 0004            00004 17291  1                      LA    R15,4
 002490 47F0 7258            02594 17292  1                      B     NETDEXIT
 002494                            17293                       END
                                   17297                       ¿þþþþþþþþþþþþþþþþþþþþþþþþþþþþþþþþþþþþþþþþÜ
                                   17298                       Ÿ  Establish connection to remote host.  Ÿ
                                   17299                       ¾þþþþþþþþþþþþþþþþþþþþþþþþþþþþþþþþþþþþþþþþ»
 002494 5010 6160            00160 17300                       ST    R1,NWAUNETP         Save primary UNET path ptr
 002498 1851                       17301                       LR    R5,R1
 USING  UNET,R5                    17302                       WITH  (UNET,R5)
 00249A 41F0 510C            0010C 17315                       LA    R15,UNETOUTSG
 00249E 50F0 6164            00164 17316                       ST    R15,NWAUSG          Save output SEGCB ptr
                                   17317
 0024A2 D24F 517C C4D8 0017C 004D8 17318                       MVC   UNETRNAME,CVBLANKS  Pre-blank
 0024A8 5830 608C            0008C 17319                       L     R3,NWAHOSTL
 0024AC 5930 72A0/47D0_      025DC 17320                       CEIL  R3,L'UNETRNAME
 0024B8 0630/1233/4740_            17339                       MOVE  R3,UNETRNAME,NWAHOST Host name
 0024C4 D203 51D0 72A4 001D0 025E0 17377                       MVC   UNETRPORT,=A(FTPPORT#)  Set FTP port number
                                   17378
 0024CA 41F0 5000            00000 17379                       LA    R15,UNET
 0024CE 58E0 72A8/0DEE       025E4 17380                       VCALL NPATOPEN            Open the network path
 0024D4 4780 7248            02584 17384                       IF    NZ,BEGIN            Trouble...
 0024D8 D510 732C 1000_02668 00000 17395  1                      IF    (@R1,EQ,'NO NETWORK SERVER'),BEGIN
 0024E2 4110 733D/4100_      02679 17411  2                        TSEG  'Amelia is not running; '
 0024F4 4110 7354/4100_      02690 17429  2                        SETMSG 'network access is not possible.'
 0024FC                            17433  1                      END
                                   17437  1
 0024FC 71C4/47F0 71E8_024FC 024E0 17438  1                      ELSEIF (@R1,EQ,'ERROR: UNKNOWN HOST'),BEGIN
 00250A 4110 6090/5800_      00090 17463  2                        TSEG  NWAHOST,L:NWAHOSTL
 00251C 4110 7386/4100_      026C2 17491  2                        SETMSG ': host not found.'
 002524                            17495  1                      END
                                   17499  1
 002524 71EC/47F0 7210_02524 02508 17500  1                      ELSEIF (@R1,EQ,'TIMEOUT'),BEGIN
 002532 4110 72AC/4100_      025E8 17525  2                        TSEG  'Unable to do this command, no response from '
 002544 4110 72D8/4100_      02614 17543  2                        SETMSG 'the remote computer.'
 00254C                            17547  1                      END
                                   17551  1
 00254C 7214/47F0 7236 0254C 02530 17552  1                      ELSE  BEGIN
 002550 9001 D000/41D0_      00000 17563  2                        XPUSH R0,R1
 002558 4110 739E/4100_      026DA 17566  2                        TSEG  'Can''t open network connection -- '
1NET      (NET2025) (12:49) (15MAR04) Network File Access Routines                                                          Page   45
0Current Usings:  (FFINFO,R4) (UNET,R5) (NETWA,R6) (*,R7) (CP,R11) (CV,R12)
0Loc    Object Code    Addr1 Addr2  Stmt Lv Lineno    Source Statement           (Hibal 5, Asmedit 3.3)  HLASM R4.0  2004/03/15 12.49
+___    ______ ____    _____ _____  ____ __ ______    ______ _________
000256A 4BD0 7302/9801_      0263E 17584  2                        XPOP  R0,R1
 002572                            17587  1                      END
                                   17591  1
 002572 41F0 B050/58E0_      00050 17592  1                      TSEG  (R1),(R0),CR
 00257C 41F0 0004            00004 17616  1                      LA    R15,4
 002580 47F0 7258            02594 17617  1                      B     NETDEXIT            Trouble
 002584                            17618                       END
                                   17622
 002584 58E0 72EC/0DEE       02628 17623                       ACALL FTPOPEN             Do FTP dialog
 00258A 4770 7258            02594 17627                       IF    Z,BEGIN             Connection is open...
 00258E 58E0 72F8/0DEE       02634 17638  1                      ACALL FTPDIR              Send LIST (show directory) cmd
 002594                            17642                       END
                                   17646
 002594 18D8/9808 D004_            17647              NETDEXIT PEND
 DROP   UNET,R5
 DROP   NETWA,R6
 DROP   *,R7
 DROP   FFINFO,R4                  17678                       DROP  R4
                                   17685
                                   17686                       QLTORG
1NET      (NET2025) (12:49) (15MAR04) Network File Access Routines                                                          Page   46
0Current Usings:  (CP,R11) (CV,R12)
0Loc    Object Code    Addr1 Addr2  Stmt Lv Lineno    Source Statement           (Hibal 5, Asmedit 3.3)  HLASM R4.0  2004/03/15 12.49
+___    ______ ____    _____ _____  ____ __ ______    ______ _________
0                                  17734              *
                                   17735              *  RESOLVE NETWORK NAME
                                   17736              *
                                   17737              *  PROCESS FILE NAME IN FFNAME IN FFINFO DSECT
                                   17738              *  WE HAVE A FEW SIMPLE RULES (COMPARED TO IBM FILES):
                                   17739              *    IF QUOTED, WE UNQUOTE.
                                   17740              *    IF '*', WE EXPAND.
                                   17741              *
                                   17742              *
 002730 50E0 D000/9008_      00000 17743              NETRESLV XPROC
 USING  *,R7
 00274A 1861                       17783                       LR    R6,R1
 USING  FFINFO,R6                  17784                       WITH  (FFINFO,R6)
                                   17797
                                   17798                       COMMENT                   NORMAL RESOLVED NAME IS FNAME
 00274C 5820 6008            00008 17799                       L     R2,FFNAMEL
 002750 5020 6214            00214 17800                       ST    R2,FFRNAMEL
 002754 0620/1222/4740_            17801                       MOVE  R2,FFRNAME,FFNAME
                                   17839
                                   17840                       COMMENT                   IF *, EXPAND FILE NAME, AND
                                   17841                       COMMENT                     HOST NAME TOO IF NEEDED
 002760 4110 600C/5800_      0000C 17842                       SETMSG FFNAME,L:FFNAMEL
 002768 5900 7176/4770_      028C0 17856                       IF    ((R0,EQ,1),AND,(@R1,EQ,'*')),BEGIN
 002778 5820 6298            00298 17888  1                      L     R2,FFPNAMEL
 00277C 5020 6214            00214 17889  1                      ST    R2,FFRNAMEL
 002780 0620/1222/4740_            17890  1                      MOVE  R2,FFRNAME,FFPNAME
 00278C D603 608C 608C_0008C 0008C 17928  1                      IF    (FFHOSTL,Z),BEGIN   SET HOST TOO
 002796 5820 631C            0031C 17944  2                        L     R2,FFPHOSTL
 00279A 5020 608C            0008C 17945  2                        ST    R2,FFHOSTL
 00279E 0620/1222/4740_            17946  2                        MOVE  R2,FFHOST,FFPHOST
 0027AA                            17984  1                      END
 0027AA                            17988                       END
                                   17992
                                   17993                       COMMENT                   IF QUOTED
 0027AA 4110 600C/5800_      0000C 17994                       SETMSG FFNAME,L:FFNAMEL
 0027B2 1200/47D0 7098             18008                       IF    (R0,POS),BEGIN
 0027B8 957D 1000/4780_00000       18022  1                      IF    ((@R1,EQ,''''),OR,(@R1,EQ,'"')),BEGIN
 0027C8 5E10 7176            028C0 18053  2                        INCR  R1
 0027CC 0600                       18056  2                        DECR  R0
 0027CE 0600                       18058  2                        DECR  R0
 0027D0 5000 6214            00214 18060  2                        ST    R0,FFRNAMEL
 0027D4 1820                       18061  2                        LR    R2,R0
 0027D6 0620/1222/4740_            18062  2                        MOVE  R2,FFRNAME,@R1
 0027E2                            18100  1                      END
 0027E2                            18104                       END
                                   18108
 0027E2 18D8/9808 D004_            18109                       PEND
 DROP   FFINFO,R6
 DROP   *,R7
1NET      (NET2025) (12:49) (15MAR04) Network File Access Routines                                                          Page   47
0Current Usings:  (CP,R11) (CV,R12)
0Loc    Object Code    Addr1 Addr2  Stmt Lv Lineno    Source Statement           (Hibal 5, Asmedit 3.3)  HLASM R4.0  2004/03/15 12.49
+___    ______ ____    _____ _____  ____ __ ______    ______ _________
0                                  18135              *
                                   18136              *  SET FNAME
                                   18137              *
                                   18138              *  USE RESOLVED FILE NAME. SET VALUE IN NWA DSECT.
                                   18139              *
                                   18140              *  NOTE/CAUTION !
                                   18141              *  SET FNAME USES RESOLVED FORM OF NET FILE NAME SO
                                   18142              *  NAME RESOLVE MUST BE CALLED PRIOR TO THIS CALL.
                                   18143              *  WOULD IT NOT BE BETTER JUST TO ISSUE NRESOLVE CALL
                                   18144              *  FROM THIS ROUTINE.  BE BETTER TO BUNDLE THEM UP
                                   18145              *  TOGETHER. ??
                                   18146              *
                                   18147              *
 0027F0 50E0 D000/9008_      00000 18148              SETFNAME PROC
 USING  *,R7
 00280A 5860 BE54            00E54 18187                       L     R6,CPFINFOP
 USING  FFINFO,R6                  18188                       WITH  (FFINFO,R6)
 00280E 5850 BE58            00E58 18201                       L     R5,CPDEVP
 USING  NETWA,R5                   18202                       WITH  (NETWA,R5)
                                   18215
 002812 5820 6214            00214 18216                       L     R2,FFRNAMEL
 002816 5020 5008            00008 18217                       ST    R2,NWAFNAMEL
 00281A 0620/1222/4740_            18218                       MOVE  R2,NWAFNAME,FFRNAME
                                   18256
 002826 18D8/9808 D004_            18257                       PEND
 DROP   NETWA,R5
 DROP   FFINFO,R6
 DROP   *,R7
1NET      (NET2025) (12:49) (15MAR04) Network File Access Routines                                                          Page   48
0Current Usings:  (CP,R11) (CV,R12)
0Loc    Object Code    Addr1 Addr2  Stmt Lv Lineno    Source Statement           (Hibal 5, Asmedit 3.3)  HLASM R4.0  2004/03/15 12.49
+___    ______ ____    _____ _____  ____ __ ______    ______ _________
0                                  18288              *
                                   18289              *  SET HOST NAME
                                   18290              *
                                   18291              *  PROCESS HOST NAME, MOVE HOST NAME FROM FFINFO TO NWA DSECT.
                                   18292              *  IF NO HOST NAME, USE CPHOST.
                                   18293              *
 002834 50E0 D000/9008_      00000 18294              SETFHOST PROC
 USING  *,R7
 00284E 5860 BE54            00E54 18333                       L     R6,CPFINFOP
 USING  FFINFO,R6                  18334                       WITH  (FFINFO,R6)
 002852 5850 BE58            00E58 18347                       L     R5,CPDEVP
 USING  NETWA,R5                   18348                       WITH  (NETWA,R5)
                                   18361
 002856 D703 508C 508C 0008C 0008C 18362                       CLEAR NWAHOSTL
                                   18369
 00285C 4110 6090/5800_      00090 18370                       SETMSG FFHOST,L:FFHOSTL
 002864 1200/47D0 702E             18384                       IF    (R0,POS),BEGIN      IF HOST NAME
 00286A 5000 508C            0008C 18398  1                      ST    R0,NWAHOSTL
 00286E 1820                       18399  1                      LR    R2,R0
 002870 0620/1222/4740_            18400  1                      MOVE  R2,NWAHOST,@R1
 00287C                            18438                       END
                                   18442
                                   18443                       COMMENT                   IF NO HOST, USE DEFAULT
 00287C 7032/47F0 7062 0287C 02868 18444                       ELSE  BEGIN
 002880 4110 B1BD/4100_      001BD 18455  1                      SETMSG CPHOST
 002888 9500 1000/4780_00000       18469  1                      IF    ((@R1,NE,X'0'),AND,(@R1,NE,' ')),BEGIN
 002898 58E0 7076/0DEE       028C4 18500  2                        VCALL LRTRIM
 00289E 5000 508C            0008C 18504  2                        ST    R0,NWAHOSTL
 0028A2 1820                       18505  2                        LR    R2,R0
 0028A4 0620/1222/4740_            18506  2                        MOVE  R2,NWAHOST,@R1
 0028B0                            18544  1                      END
 0028B0                            18548                       END
                                   18552
 0028B0 18D8/9808 D004_            18553                       PEND
 DROP   NETWA,R5
 DROP   FFINFO,R6
 DROP   *,R7
                                   18583                       QLTORG
1NET      (NET2025) (12:49) (15MAR04) Network File Access Routines                                                          Page   49
0Current Usings:  (CP,R11) (CV,R12)
0Loc    Object Code    Addr1 Addr2  Stmt Lv Lineno    Source Statement           (Hibal 5, Asmedit 3.3)  HLASM R4.0  2004/03/15 12.49
+___    ______ ____    _____ _____  ____ __ ______    ______ _________
0                                  18598              ¿þþþþþþþþþþþþþþþþþþþþþþþþþþþþþþþþþþþþþþþþþþþþþþþþþþþþþþþþþþþþþþþþþþþþþÜ
                                   18599              Ÿ                                                                     Ÿ
                                   18600              Ÿ  FTPOPEN -- Local routine to do initial FTP "signon" dialog.        Ÿ
                                   18601              Ÿ                                                                     Ÿ
                                   18602              Ÿ    On entry:                                                        Ÿ
                                   18603              Ÿ    NET DEVICE WORK AREA (NWA) contains info about the file          Ÿ
                                   18604              Ÿ                                                                     Ÿ
                                   18605              Ÿ    On exit, R15 (and cc):                                           Ÿ
                                   18606              Ÿ      0 - opened successfully                                        Ÿ
                                   18607              Ÿ      nz- not opened (CPERRID contains error id)                     Ÿ
                                   18608              Ÿ                                                                     Ÿ
                                                      ¾þþþþþþþþþþþþþþþþþþþþþþþþþþþþþþþþþþþþþþþþþþþþþþþþþþþþþþþþþþþþþþþþþþþþþ»
0000000                00000 00051 18609              FOPWA    RECORD BEGIN
 000000 00                         18617  1           FOPFLAG    FLAG
 FOPFLAG.FOPFASKUS 80 ONES         18621  1                      FLAG  FOPFASKUSER         - Ask for user-id
 FOPFLAG.FOPFASKPA 40 ONES         18626  1                      FLAG  FOPFASKPASS         - Ask for password
                                   18631  1
 000001                            18632  1           FOPKEY     DS    CL64                Working key area
                                   18633  1
 000041                            18634  1           FOPTEMP    DS    CL16                Temporary area
 000051                00051 00051 18635                       END
                                   18644              þþþþ
 0028F2 50E0 D000/9008_      00000 18645              FTPOPEN  PROC  FOPWA
 USING  *,R7
 USING  FOPWA-(4+36),R8
 00290C D750 8028 8028 00000 00000 18695                       CLEAR FOPWA
                                   18702
 USING  NETWA,R6                   18703                       WITH  (NETWA,R6)          Entry assumption
 002912 D502 7B52 6000_0345E 00000 18716                       FAIL  (NETWA,NE,'NET'),FTPOPEN,'Bad NETWA ptr'
                                   18745
 002934 5850 6160            00160 18746                       L     R5,NWAUNETP
 USING  UNET,R5                    18747                       WITH  (UNET,R5)
 002938 D503 7A64 5000_03370 00000 18760                       FAIL  (UNET,NE,'UNET'),FTPOPEN,'Bad UNET ptr'
                                   18789
 00295A 5840 BE54            00E54 18790                       L     R4,CPFINFOP
 USING  FFINFO,R4                  18791                       WITH  (FFINFO,R4)
                                   18804
                                   18805                       SEGDEF L:NWAUSG
                                   18806                       ¿þþþþþþþþþþþþþþþþþþþþþþþþþþþþþþþþþþþþþþþþþþþþþþþþþþþÜ
                                   18807                       Ÿ  Wait for initial ready message from FTP server.  Ÿ
                                   18808                       ¾þþþþþþþþþþþþþþþþþþþþþþþþþþþþþþþþþþþþþþþþþþþþþþþþþþþ»
 00295E 4110 7B55            03461 18809                       LA    R1,=C'...'          Wait for positive completion
 002962 58E0 7A68/0DEE       03374 18810                       ACALL FTPREAD             Get greeting (ready) message
 002968 4770 752C            02E38 18814                       BNZ   FTPOEXIT            Trouble, scram
                                   18815                       ¿þþþþþþþþþþþþþþþþþÜ
                                   18816                       Ÿ  Send user-id.  Ÿ
                                   18817                       ¾þþþþþþþþþþþþþþþþþ»
 00296C 9180 6005/47E0_00005       18818                       IF    (NWAFGUEST),BEGIN
 002974 D21F 6120 7A0C 00120 03318 18833  1                      MVC   NWANUSER,=CL(L'NWANUSER)'guest'
 00297A                            18834                       END
                                   18838
 00297A D51F 6120 C4D8_00120 004D8 18839                       IF    (NWANUSER,EQ,CVBLANKS),BEGIN  Prompt for userid...
 002984 4100 0012            00012 18857  1                      LA    R0,CP#HOSTI         Host information record set
1NET      (NET2025) (12:49) (15MAR04) Network File Access Routines                                                          Page   50
0Current Usings:  (FFINFO,R4) (UNET,R5) (NETWA,R6) (*,R7) (FOPWA-(4+36),R8) (CP,R11) (CV,R12)
0Loc    Object Code    Addr1 Addr2  Stmt Lv Lineno    Source Statement           (Hibal 5, Asmedit 3.3)  HLASM R4.0  2004/03/15 12.49
+___    ______ ____    _____ _____  ____ __ ______    ______ _________
0002988 41F0 B544            00544 18858  1                      LA    R15,CPRG64
 00298C 58E0 7A6C/0DEE       03378 18859  1                      VCALL XSETSET
                                   18863  1
 002992 D23F 8029 C4D8 00001 004D8 18864  1                      MVC   FOPKEY,CVBLANKS
 002998 D204 8029 7B58 00001 03464 18865  1                      MVC   FOPKEY(5),=C'USER_'
 00299E 5820 608C            0008C 18866  1                      L     R2,NWAHOSTL
 0029A2 5920 7A70/47D0_      0337C 18867  1                      CEIL  R2,L'FOPKEY-5
 0029AE 0620/1222/4740_            18886  1                      MOVE  R2,FOPKEY+5,NWAHOST  Host name
 0029BA 58F0 C8A8            008A8 18924  1                      L     R15,CVUPPTBL        Upper case host name
 0029BE DC3F 8029 F000 00001 00000 18925  1                      TR    FOPKEY,@R15
                                   18926  1
 0029C4 4120 8029            00001 18927  1                      LA    R2,FOPKEY
 0029C8 4110 6120/4100_      00120 18928  1                      SETMSG NWANUSER            Put data here
 0029D0 41F0 B544            00544 18942  1                      LA    R15,CPRG64
 0029D4 58E0 7A74/0DEE       03380 18943  1                      VCALL XGET                Lookup saved userid
                                   18947  1
 0029DA D51F 6120 C4D8_00120 004D8 18948  1                      WHILE (NWANUSER,EQ,CVBLANKS),BEGIN
 0029E4 9680 8028      00000       18968  2                        SET   FOPFASKUSER         We asked for the user-id
 0029E8 4110 7B5D/4100_      03469 18974  2                        TSEG  'Enter your '
 0029FA 4110 517C/4100_      0017C 18992  2                        TSEG  UNETRNAME,,T
 002A0C 4110 7A2C/4100_      03338 19020  2                        TREAD ' user-id',,Q       Ask for userid
 002A1C 4770 752C            02E38 19034  2                        BNZ   FTPOEXIT            Scram if logging off
 002A20 58E0 7A84/0DEE       03390 19035  2                        VCALL LRTRIM
                                   19039  2
 002A26 D21F 6120 C4D8 00120 004D8 19040  2                        MVC   NWANUSER,CVBLANKS
 002A2C 18F0                       19041  2                        LR    R15,R0
 002A2E 59F0 7A88/47D0_      03394 19042  2                        CEIL  R15,L'NWANUSER
 002A3A 06F0/12FF/4740_            19061  2                        MOVE  R15,NWANUSER,@R1    Save network userid
 002A46 47F0 70CE            029DA 19099  1                      END
 002A4A                            19104                       END
                                   19108
 002A4A 4110 7B68/4100_      03474 19109                       SEG   'USER '
 002A5C 4110 6120/4100_      00120 19124                       SEGT  NWANUSER
 002A6E 1B00/58F0 6164_            19150                       SEGCR
 002A7A 1B00/58F0 6164_            19172                       SEGWR
                                   19194                       ¿þþþþþþþþþþþþþþþþþþþþþþþþþþþþþþþþþþþþþþþþþþþþþþþþþþþþþþÜ
                                   19195                       Ÿ  Process the acceptance of the user-id and possibly  Ÿ
                                   19196                       Ÿ    send the password if one is requested.            Ÿ
                                   19197                       ¾þþþþþþþþþþþþþþþþþþþþþþþþþþþþþþþþþþþþþþþþþþþþþþþþþþþþþþ»
 002A86                            19198                       LOOP  BEGIN
 002A86 4110 7B6D            03479 19204  1                      LA    R1,=C'3..'          Wait for completion or 3xx msg
 002A8A 58E0 7A68/0DEE       03374 19205  1                      ACALL FTPREAD             Wait for USER to be accepted
 002A90 4770 752C            02E38 19209  1                      BNZ   FTPOEXIT
                                   19210  1
 002A94 95F2 1000/4780_00000       19211  1                      IF    (@R1,EQ,'2'),EXIT   USER/PASS accepted, scram
                                   19230  1                      ¿þþþþþþþþþþþþþþþþþþþþþþþþþþþþþþþþþþþþþþÜ
                                   19231  1                      Ÿ  Send password if one is requested.  Ÿ
                                   19232  1                      ¾þþþþþþþþþþþþþþþþþþþþþþþþþþþþþþþþþþþþþþ»
 002A9C D502 7B70 1000_0347C 00000 19233  1                      IF    (@R1,EQ,'331'),BEGIN  Password is needed...
1NET      (NET2025) (12:49) (15MAR04) Network File Access Routines                                                          Page   51
0Current Usings:  (FFINFO,R4) (UNET,R5) (NETWA,R6) (*,R7) (FOPWA-(4+36),R8) (CP,R11) (CV,R12)
0Loc    Object Code    Addr1 Addr2  Stmt Lv Lineno    Source Statement           (Hibal 5, Asmedit 3.3)  HLASM R4.0  2004/03/15 12.49
+___    ______ ____    _____ _____  ____ __ ______    ______ _________
0                                  19249  2                        ¿þþþþþþþþþþþþþþþþþþþþþþþþþþþþþþþþþþþþþþþþþþþþþþþþþþþþþþþþþþþþþÜ
                                   19250  2                        Ÿ  This is a temporary solution to let Forsythe users         Ÿ
                                   19251  2                        Ÿ    use/save files as GUEST on Lindy/Morrow without          Ÿ
                                   19252  2                        Ÿ    supplying the password.  We don't want to use Anonymous  Ÿ
                                   19253  2                        Ÿ    FTP because the Forsythe users need access to the real   Ÿ
                                   19254  2                        Ÿ    files.  Essentially, Forsythe is a trusted host (but     Ÿ
                                   19255  2                        Ÿ    FTP doesn't know about things like that).                Ÿ
                                   19256  2                        ¾þþþþþþþþþþþþþþþþþþþþþþþþþþþþþþþþþþþþþþþþþþþþþþþþþþþþþþþþþþþþþ»
 002AA6 D20F 8069 6120 00041 00120 19257  2                        MVC   FOPTEMP,NWANUSER    Copy net userid
 002AAC D60F 8069 C4D8 00041 004D8 19258  2                        OC    FOPTEMP,CVBLANKS    Convert to caps
 002AB2 D505 7AFC 8069_03408 00041 19259  2                        IF    (FOPTEMP,EQ,'GUEST '),BEGIN  User GUEST...
 002ABC D51F 6140 C4D8_00140 004D8 19276  3                          IF    (NWANPASS,EQ,CVBLANKS),BEGIN  No password...
 002AC6 D21F 6140 7A34 00140 03340 19294  4                            MVC   NWANPASS,=CL(L'NWANPASS)'Temp4U2'
 002ACC                            19295  3                          END
 002ACC                            19299  2                        END
                                   19303  2
 002ACC D51F 6140 C4D8_00140 004D8 19304  2                        IF    (NWANPASS,EQ,CVBLANKS),BEGIN  Prompt for password...
 002AD6 4100 0012            00012 19322  3                          LA    R0,CP#HOSTI         Host information record set
 002ADA 41F0 B544            00544 19323  3                          LA    R15,CPRG64
 002ADE 58E0 7A6C/0DEE       03378 19324  3                          VCALL XSETSET
                                   19328  3
 002AE4 D23F 8029 C4D8 00001 004D8 19329  3                          MVC   FOPKEY,CVBLANKS
 002AEA D204 8029 7B73 00001 0347F 19330  3                          MVC   FOPKEY(5),=C'PASS_'
 002AF0 5820 608C            0008C 19331  3                          L     R2,NWAHOSTL
 002AF4 5920 7A70/47D0_      0337C 19332  3                          CEIL  R2,L'FOPKEY-5
 002B00 0620/1222/4740_            19351  3                          MOVE  R2,FOPKEY+5,NWAHOST  Host name
 002B0C 58F0 C8A8            008A8 19389  3                          L     R15,CVUPPTBL        Upper case host name
 002B10 DC3F 8029 F000 00001 00000 19390  3                          TR    FOPKEY,@R15
                                   19391  3
 002B16 4120 8029            00001 19392  3                          LA    R2,FOPKEY
 002B1A 4110 6140/4100_      00140 19393  3                          SETMSG NWANPASS            Put data here
 002B22 41F0 B544            00544 19407  3                          LA    R15,CPRG64
 002B26 58E0 7A74/0DEE       03380 19408  3                          VCALL XGET                Lookup saved password
                                   19412  3
 002B2C D51F 6140 C4D8_00140 004D8 19413  3                          WHILE (NWANPASS,EQ,CVBLANKS),BEGIN
 002B36 9640 8028      00000       19433  4                            SET   FOPFASKPASS         We assked for the password
                                   19439  4
 002B3A 4110 7A54/4100_      03360 19440  4                            SETMSG 'Password'
 002B42 9180 8028/4710_00000       19444  4                            IF    ~FOPFASKUSER,BEGIN  Expand the message a little...
 002B4A 41F0 B050/58E0_      00050 19459  5                              TSEG  (R1),(R0)
 002B54 4110 7B02/4100_      0340E 19483  5                              TSEG  ' (for '
 002B66 4110 6120/4100_      00120 19501  5                              TSEG  NWANUSER,,T         User-id
 002B78 4110 7A94/4100_      033A0 19529  5                              TSEG  ' at '
 002B8A 4110 517C/4100_      0017C 19547  5                              TSEG  UNETRNAME,,T
 002B9C 4110 7B78/4100_      03484 19575  5                              SETMSG ')'
 002BA4                            19579  4                            END
                                   19583  4
 002BA4 9640 BC7B      00C7B       19584  4                            SET   CPFNECHO
 002BA8 1BFF/58E0 7A80_            19590  4                            TREAD (R1),(R0),Q         Ask for password
 002BB0 94BF BC7B      00C7B       19610  4                            CLEAR CPFNECHO
 002BB4 12FF/4770 752C             19617  4                            IF    (R15,NZ),FTPOEXIT   Scram if logging off
 002BBA 58E0 7A84/0DEE       03390 19634  4                            VCALL LRTRIM
                                   19638  4
 002BC0 D21F 6140 C4D8 00140 004D8 19639  4                            MVC   NWANPASS,CVBLANKS
1NET      (NET2025) (12:49) (15MAR04) Network File Access Routines                                                          Page   52
0Current Usings:  (FFINFO,R4) (UNET,R5) (NETWA,R6) (*,R7) (FOPWA-(4+36),R8) (CP,R11) (CV,R12)
0Loc    Object Code    Addr1 Addr2  Stmt Lv Lineno    Source Statement           (Hibal 5, Asmedit 3.3)  HLASM R4.0  2004/03/15 12.49
+___    ______ ____    _____ _____  ____ __ ______    ______ _________
0002BC6 18F0                       19640  4                            LR    R15,R0
 002BC8 59F0 7A98/47D0_      033A4 19641  4                            CEIL  R15,L'NWANPASS
 002BD4 06F0/12FF/4740_            19660  4                            MOVE  R15,NWANPASS,@R1    Save network password
 002BE0 47F0 7220            02B2C 19698  3                          END
 002BE4                            19703  2                        END
                                   19707  2
 002BE4 4110 7B79/4100_      03485 19708  2                        SEG   'PASS '
 002BF6 4110 6140/4100_      00140 19723  2                        SEGT  NWANPASS
 002C08 1B00/58F0 6164_            19749  2                        SEGCR
 002C14 1B00/58F0 6164_            19771  2                        SEGWR
 002C20                            19793  1                      END
                                   19797  1
 002C20 7318/47F0 7326 02C20 02AA4 19798  1                      ELSE  BEGIN               Write other msgs to terminal...
 002C24 41F0 B050/58E0_      00050 19809  2                        TSEG  (R1),(R0),WR
 002C2E 4770 752C            02E38 19833  2                        BNZ   FTPOEXIT
 002C32                            19834  1                      END
 002C32 47F0 717A            02A86 19838                       END
                                   19843                       ¿þþþþþþþþþþþþþþþþþþþþþþþþþþþþþþþþþþþþþþþþþþþþþþþþþþþþÜ
                                   19844                       Ÿ  Open a separate TCP connection for the FTP data.  Ÿ
                                   19845                       ¾þþþþþþþþþþþþþþþþþþþþþþþþþþþþþþþþþþþþþþþþþþþþþþþþþþþþ»
 002C36 1B00                       19846                       CLEAR R0                  User UNET
 002C38 58E0 7A9C/0DEE       033A8 19850                       VCALL NPATALLO            Allocate communications path
 002C3E 4780 7370            02C7C 19854                       IF    NZ,BEGIN
 002C42 9001 D000/41D0_      00000 19865  1                      XPUSH R0,R1
 002C4A 4110 7B08/4100_      03414 19868  1                      TSEG  'Can''t allocate data connection -- '
 002C5C 4BD0 7B2A/9801_      03436 19886  1                      XPOP  R0,R1
 002C64 41F0 B050/58E0_      00050 19889  1                      TSEG  (R1),(R0),CR
 002C6E D207 B886 7A5C 00886 03368 19913  1                      MVC   CPERRID,=CL8'NETERR'
 002C74 41F0 0004            00004 19914  1                      LA    R15,4
 002C78 47F0 752C            02E38 19915  1                      B     FTPOEXIT
 002C7C                            19916                       END
                                   19920                       ¿þþþþþþþþþþþþþþþþþþþþþþþþþþþþþþþþþþþþþþþþÜ
                                   19921                       Ÿ  Establish connection to remote host.  Ÿ
                                   19922                       ¾þþþþþþþþþþþþþþþþþþþþþþþþþþþþþþþþþþþþþþþþ»
 002C7C 5010 6168            00168 19923                       ST    R1,NWADNETP         Save data UNET path ptr
 002C80 1831                       19924                       LR    R3,R1
 DROP   UNET,R5                    19925                       WITH  (UNET,R3),BEGIN
 USING  UNET,R3
 002C82 D503 7A64 3000_03370 00000 19947  1                      FAIL  (UNET,NE,'UNET'),NETOERR,'Network interface error.'
 002CA4 41F0 310C            0010C 19976  1                      LA    R15,UNETOUTSG
 002CA8 50F0 616C            0016C 19977  1                      ST    R15,NWADSG          Save data output SEGCB ptr
 002CAC 58F0 6160            00160 19978  1                      L     R15,NWAUNETP        Primary UNET ptr
 002CB0 D203 3174 F174 00174 00174 19979  1                      MVC   UNETLIP,UNETLIP-UNET(R15)  Copy our IP address
 002CB6 D24F 317C F17C 0017C 0017C 19980  1                      MVC   UNETRNAME,UNETRNAME-UNET(R15)  Copy host name
 002CBC D203 31CC F1CC 001CC 001CC 19981  1                      MVC   UNETRIP,UNETRIP-UNET(R15)  Copy host IP address
                                   19982  1
 002CC2 9110 6005/47E0_00005       19983  1                      IF    (NWAFTABS),'SET UNETFKEEPTABS'
                                   20009  1
 002CCE 41F0 3000            00000 20010  1                      LA    R15,UNET
 002CD2 58E0 7AA0/0DEE       033AC 20011  1                      VCALL NPATOPEN            Open the network path
 002CD8 4780 747C            02D88 20015  1                      IF    NZ,BEGIN            Trouble...
 002CDC D510 7B7E 1000_0348A 00000 20026  2                        IF    (@R1,EQ,'NO NETWORK SERVER'),BEGIN
 002CE6 4110 7B8F/4100_      0349B 20042  3                          TSEG  'Amelia is not running; '
 002CF8 4110 7BA6/4100_      034B2 20060  3                          SETMSG 'network access is not possible.'
1NET      (NET2025) (12:49) (15MAR04) Network File Access Routines                                                          Page   53
0Current Usings:  (UNET,R3) (FFINFO,R4) (NETWA,R6) (*,R7) (FOPWA-(4+36),R8) (CP,R11) (CV,R12)
0Loc    Object Code    Addr1 Addr2  Stmt Lv Lineno    Source Statement           (Hibal 5, Asmedit 3.3)  HLASM R4.0  2004/03/15 12.49
+___    ______ ____    _____ _____  ____ __ ______    ______ _________
0002D00                            20064  2                        END
                                   20068  2
 002D00 73F8/47F0 741C_02D00 02CE4 20069  2                        ELSEIF (@R1,EQ,'ERROR: UNKNOWN HOST'),BEGIN
 002D0E 4110 6090/5800_      00090 20094  3                          TSEG  NWAHOST,L:NWAHOSTL
 002D20 4110 7BD8/4100_      034E4 20122  3                          SETMSG ': host not found.'
 002D28                            20126  2                        END
                                   20130  2
 002D28 7420/47F0 7444_02D28 02D0C 20131  2                        ELSEIF (@R1,EQ,'TIMEOUT'),BEGIN
 002D36 4110 7AA4/4100_      033B0 20156  3                          TSEG  'Unable to do this command, no response from '
 002D48 4110 7AD0/4100_      033DC 20174  3                          SETMSG 'the remote computer.'
 002D50                            20178  2                        END
                                   20182  2
 002D50 7448/47F0 746A 02D50 02D34 20183  2                        ELSE  BEGIN
 002D54 9001 D000/41D0_      00000 20194  3                          XPUSH R0,R1
 002D5C 4110 7B2C/4100_      03438 20197  3                          TSEG  'Can''t open data connection -- '
 002D6E 4BD0 7B2A/9801_      03436 20215  3                          XPOP  R0,R1
 002D76                            20218  2                        END
                                   20222  2
 002D76 41F0 B050/58E0_      00050 20223  2                        TSEG  (R1),(R0),CR
 002D80 41F0 0004            00004 20247  2                        LA    R15,4
 002D84 47F0 752C            02E38 20248  2                        B     FTPOEXIT            Trouble
 002D88                            20249  1                      END
 USING  UNET,R5                    20253                       END
 DROP   UNET,R3
                                   20270                       ¿þþþþþþþþþþþþþþþþþþþþþþþþþþþþþþþþþþþþþþþþþþþþþþþþþþþþþþþþþÜ
                                   20271                       Ÿ  If we had to ask for the user/password then save that  Ÿ
                                   20272                       Ÿ    information.                                         Ÿ
                                   20273                       ¾þþþþþþþþþþþþþþþþþþþþþþþþþþþþþþþþþþþþþþþþþþþþþþþþþþþþþþþþþ»
 002D88 4100 0012            00012 20274                       LA    R0,CP#HOSTI         Host information record set
 002D8C 41F0 B544            00544 20275                       LA    R15,CPRG64
 002D90 58E0 7A6C/0DEE       03378 20276                       VCALL XSETSET
                                   20280
 002D96 9180 8028/47E0_00000       20281                       IF    FOPFASKUSER,BEGIN   Save user-id...
 002D9E D23F 8029 C4D8 00001 004D8 20296  1                      MVC   FOPKEY,CVBLANKS
 002DA4 D204 8029 7B58 00001 03464 20297  1                      MVC   FOPKEY(5),=C'USER_'
 002DAA 5820 608C            0008C 20298  1                      L     R2,NWAHOSTL
 002DAE 5920 7A70/47D0_      0337C 20299  1                      CEIL  R2,L'FOPKEY-5
 002DBA 0620/1222/4740_            20318  1                      MOVE  R2,FOPKEY+5,NWAHOST  Host name
 002DC6 58F0 C8A8            008A8 20356  1                      L     R15,CVUPPTBL        Upper case host name
 002DCA DC3F 8029 F000 00001 00000 20357  1                      TR    FOPKEY,@R15
                                   20358  1
 002DD0 4120 8029            00001 20359  1                      LA    R2,FOPKEY
 002DD4 4110 6120/4100_      00120 20360  1                      SETMSG NWANUSER            Save this userid
 002DDC 41F0 B544            00544 20374  1                      LA    R15,CPRG64
 002DE0 58E0 7AE4/0DEE       033F0 20375  1                      VCALL XPUT                Save this userid
 002DE6                            20379                       END
                                   20383
 002DE6 9140 8028/47E0_00000       20384                       IF    FOPFASKPASS,BEGIN   Save password...
 002DEE D23F 8029 C4D8 00001 004D8 20399  1                      MVC   FOPKEY,CVBLANKS
 002DF4 D204 8029 7B73 00001 0347F 20400  1                      MVC   FOPKEY(5),=C'PASS_'
 002DFA 5820 608C            0008C 20401  1                      L     R2,NWAHOSTL
 002DFE 5920 7A70/47D0_      0337C 20402  1                      CEIL  R2,L'FOPKEY-5
 002E0A 0620/1222/4740_            20421  1                      MOVE  R2,FOPKEY+5,NWAHOST  Host name
 002E16 58F0 C8A8            008A8 20459  1                      L     R15,CVUPPTBL        Upper case host name
1NET      (NET2025) (12:49) (15MAR04) Network File Access Routines                                                          Page   54
0Current Usings:  (FFINFO,R4) (UNET,R5) (NETWA,R6) (*,R7) (FOPWA-(4+36),R8) (CP,R11) (CV,R12)
0Loc    Object Code    Addr1 Addr2  Stmt Lv Lineno    Source Statement           (Hibal 5, Asmedit 3.3)  HLASM R4.0  2004/03/15 12.49
+___    ______ ____    _____ _____  ____ __ ______    ______ _________
0002E1A DC3F 8029 F000 00001 00000 20460  1                      TR    FOPKEY,@R15
                                   20461  1
 002E20 4120 8029            00001 20462  1                      LA    R2,FOPKEY
 002E24 4110 6140/4100_      00140 20463  1                      SETMSG NWANPASS            Save this password
 002E2C 41F0 B544            00544 20477  1                      LA    R15,CPRG64
 002E30 58E0 7AE4/0DEE       033F0 20478  1                      VCALL XPUT                Save this userid
 002E36                            20482                       END
                                   20486
 002E36 1BFF                       20487                       CLEAR R15
 002E38 18D8/9808 D004_            20491              FTPOEXIT PEND
 DROP   FFINFO,R4
 DROP   UNET,R5
 DROP   NETWA,R6
 DROP   FOPWA-(4+36),R8
 DROP   *,R7
1NET      (NET2025) (12:49) (15MAR04) Network File Access Routines                                                          Page   55
0Current Usings:  (CP,R11) (CV,R12)
0Loc    Object Code    Addr1 Addr2  Stmt Lv Lineno    Source Statement           (Hibal 5, Asmedit 3.3)  HLASM R4.0  2004/03/15 12.49
+___    ______ ____    _____ _____  ____ __ ______    ______ _________
0                                  20533              ¿þþþþþþþþþþþþþþþþþþþþþþþþþþþþþþþþþþþþþþþþþþþþþþþþþþþþþþþþþþþþþþþþþþþþþÜ
                                   20534              Ÿ                                                                     Ÿ
                                   20535              Ÿ  FTPUSE -- Local routine to do the FTP dialog to start the          Ÿ
                                   20536              Ÿ    retreval of a remote file.                                       Ÿ
                                   20537              Ÿ                                                                     Ÿ
                                   20538              Ÿ    On entry:                                                        Ÿ
                                   20539              Ÿ    NET DEVICE WORK AREA (NWA) contains info about the file          Ÿ
                                   20540              Ÿ                                                                     Ÿ
                                   20541              Ÿ    On exit, R15 (and cc):                                           Ÿ
                                   20542              Ÿ      0 - opened successfully                                        Ÿ
                                   20543              Ÿ      nz- not opened (CPERRID contains error id)                     Ÿ
                                   20544              Ÿ                                                                     Ÿ
                                                      ¾þþþþþþþþþþþþþþþþþþþþþþþþþþþþþþþþþþþþþþþþþþþþþþþþþþþþþþþþþþþþþþþþþþþþþ»
0002E46 50E0 D000/9008_      00000 20545              FTPUSE   PROC
 USING  *,R7
 USING  NETWA,R6                   20584                       WITH  (NETWA,R6)          Entry assumption
 002E60 D502 75FE 6000_0345E 00000 20597                       FAIL  (NETWA,NE,'NET'),FTPOPEN,'Bad NETWA ptr'
                                   20626
 002E82 5840 BE54            00E54 20627                       L     R4,CPFINFOP
 USING  FFINFO,R4                  20628                       WITH  (FFINFO,R4)
                                   20641
                                   20642                       SEGDEF L:NWAUSG
                                   20643                       ¿þþþþþþþþþþþþþþþþþþþþþþþþþþþþþþþþþþþþþþþþþþþþþþþþþþþþþþþþþþþþÜ
                                   20644                       Ÿ  Tell FTP server host and port number of data connection.  Ÿ
                                   20645                       ¾þþþþþþþþþþþþþþþþþþþþþþþþþþþþþþþþþþþþþþþþþþþþþþþþþþþþþþþþþþþþ»
 002E86 5830 6168            00168 20646                       L     R3,NWADNETP         Data UNET path ptr
 USING  UNET,R3                    20647                       WITH  (UNET,R3),BEGIN
 002E8A 4110 769C/4100_      034FC 20661  1                      SEG   'PORT '
 002E9C 1F11/4310 3174_            20676  1                      SEGDC LC:UNETLIP          Our IP address
 002EAE 4110 76A1/4100_      03501 20700  1                      SEG   ','
 002EC0 1F11/4310 3175_            20715  1                      SEGDC LC:UNETLIP+1
 002ED2 4110 76A1/4100_      03501 20739  1                      SEG   ','
 002EE4 1F11/4310 3176_            20754  1                      SEGDC LC:UNETLIP+2
 002EF6 4110 76A1/4100_      03501 20778  1                      SEG   ','
 002F08 1F11/4310 3177_            20793  1                      SEGDC LC:UNETLIP+3
 002F1A 4110 76A1/4100_      03501 20817  1                      SEG   ','
 002F2C 1F11/4310 317A_            20832  1                      SEGDC LC:UNETLPORT+2      Port number
 002F3E 4110 76A1/4100_      03501 20856  1                      SEG   ','
 002F50 1F11/4310 317B_            20871  1                      SEGDC LC:UNETLPORT+3
 002F62 1B00/58F0 6164_            20895  1                      SEGCR
 002F6E 1B00/58F0 6164_            20917  1                      SEGWR
 DROP   UNET,R3                    20939                       END
                                   20947                       ¿þþþþþþþþþþþþþþþþþþþþþþþþþþþþþþþþþþþþþþþþÜ
                                   20948                       Ÿ  Wait for acceptance of PORT command.  Ÿ
                                   20949                       ¾þþþþþþþþþþþþþþþþþþþþþþþþþþþþþþþþþþþþþþþþ»
 002F7A 4110 7601            03461 20950                       LA    R1,=C'...'          Wait for completion msg
 002F7E 58E0 7514/0DEE       03374 20951                       ACALL FTPREAD             Get greeting (ready) message
 002F84 4770 7210            03070 20955                       BNZ   FTPUEXIT            Trouble, scram
1NET      (NET2025) (12:49) (15MAR04) Network File Access Routines                                                          Page   56
0Current Usings:  (FFINFO,R4) (NETWA,R6) (*,R7) (CP,R11) (CV,R12)
0Loc    Object Code    Addr1 Addr2  Stmt Lv Lineno    Source Statement           (Hibal 5, Asmedit 3.3)  HLASM R4.0  2004/03/15 12.49
+___    ______ ____    _____ _____  ____ __ ______    ______ _________
0                                  20956                       ¿þþþþþþþþþþþþþþþþþþþþþþþþþþþþþþþþþþþþþþþþþþþþþþþÜ
                                   20957                       Ÿ  Ask for image mode transfer if transparent.  Ÿ
                                   20958                       ¾þþþþþþþþþþþþþþþþþþþþþþþþþþþþþþþþþþþþþþþþþþþþþþþ»
 002F88 9120 6005/47E0_00005       20959                       IF    NWAFTRAN,BEGIN      Transparent mode...
 002F90 4110 75F6/4100_      03456 20974  1                      SEG   'TYPE I'            Image mode
 002FA2 1B00/58F0 6164_            20989  1                      SEGCR
 002FAE 1B00/58F0 6164_            21011  1                      SEGWR
                                   21033  1
 002FBA 4110 7601            03461 21034  1                      LA    R1,=C'...'          Wait for completion msg
 002FBE 58E0 7514/0DEE       03374 21035  1                      ACALL FTPREAD             Get response
 002FC4 4770 7210            03070 21039  1                      BNZ   FTPUEXIT            Trouble, scram
 002FC8                            21040                       END
                                   21044                       ¿þþþþþþþþþþþþþþþþþþþþþþþþþþþþþþþþþþþþþþþþþþþþþþþÜ
                                   21045                       Ÿ  Send the RETR command to use a remote file.  Ÿ
                                   21046                       ¾þþþþþþþþþþþþþþþþþþþþþþþþþþþþþþþþþþþþþþþþþþþþþþþ»
 002FC8 4110 76A2/4100_      03502 21047                       SEG   'RETR '             Retreive file
                                   21062
 002FDA 4110 600C/5800_      0000C 21063                       SEG   NWAFNAME,L:NWAFNAMEL    Original file name
                                   21088
 002FEC 1B00/58F0 6164_            21089                       SEGCR
 002FF8 1B00/58F0 6164_            21111                       SEGWR
                                   21133                       ¿þþþþþþþþþþþþþþþþþþþþþþþþþþþþþþþþþþþþþþþþþþþþþþþþþþþþþÜ
                                   21134                       Ÿ  Wait for response indicating RETR is in progress.  Ÿ
                                   21135                       ¾þþþþþþþþþþþþþþþþþþþþþþþþþþþþþþþþþþþþþþþþþþþþþþþþþþþþþ»
 003004 4110 76A7            03507 21136                       LA    R1,=C'1..'          Wait for preliminary reply
 003008 58E0 7514/0DEE       03374 21137                       ACALL FTPREAD             Get next message
 00300E 59F0 7598/4770_      033F8 21141                       IF    (R15,EQ,=F'8'),BEGIN Error signalled
 003016 50F0 D000/41D0_      00000 21157  1                      XPUSH R15
                                   21160  1           *
                                   21161  1           * Close the data connection (since it won't be needed)
                                   21162  1           * and signal QUIT to the other side.
                                   21163  1           *
 00301E 58F0 6168/12FF_      00168 21164  1                      IF    ('LT R15,NWADNETP',NZ),BEGIN  Data connection...
 003028 58E0 759C/0DEE       033FC 21180  2                        VCALL NPATCLS             Close and free data path
 00302E D703 6168 6168 00168 00168 21184  2                        CLEAR NWADNETP
 003034                            21191  1                      END
 003034 947F 6004      00004       21195  1                      CLEAR NWAFOPEN            No longer open
 003038 4110 75A0/4100_      03400 21202  1                      SEG   'QUIT'              Say goodbye
 00304A 1B00/58F0 6164_            21217  1                      SEGCR
 003056 1B00/58F0 6164_            21239  1                      SEGWR
 003062 4BD0 75FC/58F0_      0345C 21261  1                      XPOP  R15
 00306A                            21264                       END
 00306A 720E/47F0 7210 0306A 03014 21268                       ELSE  BEGIN
                                   21279  1                      ¿þþþþþþþþþþþþþþþþþþþþþþþþþþþþþþþþþþþþþþþþþþþþþþþþþþþþþþþþþþþþþþÜ
                                   21280  1                      Ÿ  RETR completion won't happen until the file has retreived.  Ÿ
                                   21281  1                      ¾þþþþþþþþþþþþþþþþþþþþþþþþþþþþþþþþþþþþþþþþþþþþþþþþþþþþþþþþþþþþþþ»
 00306E 1BFF                       21282  1                      CLEAR R15                 A-ok
 003070                            21286                       END
                                   21290
 003070 18D8/9808 D004_            21291              FTPUEXIT PEND
 DROP   FFINFO,R4
 DROP   NETWA,R6
 DROP   *,R7
1NET      (NET2025) (12:49) (15MAR04) Network File Access Routines                                                          Page   57
0Current Usings:  (CP,R11) (CV,R12)
0Loc    Object Code    Addr1 Addr2  Stmt Lv Lineno    Source Statement           (Hibal 5, Asmedit 3.3)  HLASM R4.0  2004/03/15 12.49
+___    ______ ____    _____ _____  ____ __ ______    ______ _________
0                                  21323              ¿þþþþþþþþþþþþþþþþþþþþþþþþþþþþþþþþþþþþþþþþþþþþþþþþþþþþþþþþþþþþþþþþþþþþþÜ
                                   21324              Ÿ                                                                     Ÿ
                                   21325              Ÿ  FTPSAVE -- Local routine to do the FTP dialog to start the         Ÿ
                                   21326              Ÿ    storing of a remote file.                                        Ÿ
                                   21327              Ÿ                                                                     Ÿ
                                   21328              Ÿ    On entry:                                                        Ÿ
                                   21329              Ÿ    NET DEVICE WORK AREA (NWA) contains info about the file          Ÿ
                                   21330              Ÿ                                                                     Ÿ
                                   21331              Ÿ    On exit, R15 (and cc):                                           Ÿ
                                   21332              Ÿ      0 - opened successfully                                        Ÿ
                                   21333              Ÿ      nz- not opened (CPERRID contains error id)                     Ÿ
                                   21334              Ÿ                                                                     Ÿ
                                                      ¾þþþþþþþþþþþþþþþþþþþþþþþþþþþþþþþþþþþþþþþþþþþþþþþþþþþþþþþþþþþþþþþþþþþþþ»
000307E 50E0 D000/9008_      00000 21335              FTPSAVE  PROC
 USING  *,R7
 USING  NETWA,R6                   21374                       WITH  (NETWA,R6)          Entry assumption
 003098 D502 73C6 6000_0345E 00000 21387                       FAIL  (NETWA,NE,'NET'),FTPOPEN,'Bad NETWA ptr'
                                   21416
 0030BA 5840 BE54            00E54 21417                       L     R4,CPFINFOP
 USING  FFINFO,R4                  21418                       WITH  (FFINFO,R4)
                                   21431
                                   21432                       SEGDEF L:NWAUSG
                                   21433                       ¿þþþþþþþþþþþþþþþþþþþþþþþþþþþþþþþþþþþþþþþþþþþþþþþþþþþþþþþþþþþþÜ
                                   21434                       Ÿ  Tell FTP server host and port number of data connection.  Ÿ
                                   21435                       ¾þþþþþþþþþþþþþþþþþþþþþþþþþþþþþþþþþþþþþþþþþþþþþþþþþþþþþþþþþþþþ»
 0030BE 5830 6168            00168 21436                       L     R3,NWADNETP         Data UNET path ptr
 USING  UNET,R3                    21437                       WITH  (UNET,R3),BEGIN
 0030C2 4110 7464/4100_      034FC 21451  1                      SEG   'PORT '
 0030D4 1F11/4310 3174_            21466  1                      SEGDC LC:UNETLIP          Our IP address
 0030E6 4110 7469/4100_      03501 21490  1                      SEG   ','
 0030F8 1F11/4310 3175_            21505  1                      SEGDC LC:UNETLIP+1
 00310A 4110 7469/4100_      03501 21529  1                      SEG   ','
 00311C 1F11/4310 3176_            21544  1                      SEGDC LC:UNETLIP+2
 00312E 4110 7469/4100_      03501 21568  1                      SEG   ','
 003140 1F11/4310 3177_            21583  1                      SEGDC LC:UNETLIP+3
 003152 4110 7469/4100_      03501 21607  1                      SEG   ','
 003164 1F11/4310 317A_            21622  1                      SEGDC LC:UNETLPORT+2      Port number
 003176 4110 7469/4100_      03501 21646  1                      SEG   ','
 003188 1F11/4310 317B_            21661  1                      SEGDC LC:UNETLPORT+3
 00319A 1B00/58F0 6164_            21685  1                      SEGCR
 0031A6 1B00/58F0 6164_            21707  1                      SEGWR
 DROP   UNET,R3                    21729                       END
                                   21737                       ¿þþþþþþþþþþþþþþþþþþþþþþþþþþþþþþþþþþþþþþþþÜ
                                   21738                       Ÿ  Wait for acceptance of PORT command.  Ÿ
                                   21739                       ¾þþþþþþþþþþþþþþþþþþþþþþþþþþþþþþþþþþþþþþþþ»
 0031B2 4110 73C9            03461 21740                       LA    R1,=C'...'          Wait for completion msg
 0031B6 58E0 72DC/0DEE       03374 21741                       ACALL FTPREAD             Get greeting (ready) message
 0031BC 4770 71D8            03270 21745                       BNZ   FTPSEXIT            Trouble, scram
1NET      (NET2025) (12:49) (15MAR04) Network File Access Routines                                                          Page   58
0Current Usings:  (FFINFO,R4) (NETWA,R6) (*,R7) (CP,R11) (CV,R12)
0Loc    Object Code    Addr1 Addr2  Stmt Lv Lineno    Source Statement           (Hibal 5, Asmedit 3.3)  HLASM R4.0  2004/03/15 12.49
+___    ______ ____    _____ _____  ____ __ ______    ______ _________
0                                  21746                       ¿þþþþþþþþþþþþþþþþþþþþþþþþþþþþþþþþþþþþþþþþþþþþþþþÜ
                                   21747                       Ÿ  Ask for image mode transfer if transparent.  Ÿ
                                   21748                       ¾þþþþþþþþþþþþþþþþþþþþþþþþþþþþþþþþþþþþþþþþþþþþþþþ»
 0031C0 9120 6005/47E0_00005       21749                       IF    NWAFTRAN,BEGIN      Transparent mode...
 0031C8 4110 73BE/4100_      03456 21764  1                      SEG   'TYPE I'            Image mode
 0031DA 1B00/58F0 6164_            21779  1                      SEGCR
 0031E6 1B00/58F0 6164_            21801  1                      SEGWR
                                   21823  1
 0031F2 4110 73C9            03461 21824  1                      LA    R1,=C'...'          Wait for completion msg
 0031F6 58E0 72DC/0DEE       03374 21825  1                      ACALL FTPREAD             Get response
 0031FC 4770 71D8            03270 21829  1                      BNZ   FTPSEXIT            Trouble, scram
 003200                            21830                       END
                                   21834                       ¿þþþþþþþþþþþþþþþþþþþþþþþþþþþþþþþþþþþþþþþþþþþþþþþþÜ
                                   21835                       Ÿ  Send the STOR command to save a remote file.  Ÿ
                                   21836                       ¾þþþþþþþþþþþþþþþþþþþþþþþþþþþþþþþþþþþþþþþþþþþþþþþþ»
 003200 4110 7472/4100_      0350A 21837                       SETMSG 'STOR '             Store file
 003208 9504 4001/4770_00001       21841                       IF    FFFAPPD,'SETMSG "APPE "'  Append file
 003218 58F0 6164/58E0_      00164 21865                       SEG   (R1),(R0)
                                   21886
 003222 4110 600C/5800_      0000C 21887                       SEG   NWAFNAME,L:NWAFNAMEL    Original file name
                                   21912
 003234 1B00/58F0 6164_            21913                       SEGCR
 003240 1B00/58F0 6164_            21935                       SEGWR
                                   21957                       ¿þþþþþþþþþþþþþþþþþþþþþþþþþþþþþþþþþþþþþþþþþþþþþþþþþþþþþÜ
                                   21958                       Ÿ  Wait for response indicating STOR is in progress.  Ÿ
                                   21959                       ¾þþþþþþþþþþþþþþþþþþþþþþþþþþþþþþþþþþþþþþþþþþþþþþþþþþþþþ»
 00324C 4110 746F            03507 21960                       LA    R1,=C'1..'          Wait for preliminary reply
 003250 58E0 72DC/0DEE       03374 21961                       ACALL FTPREAD             Get next message
 003256 4770 71D8            03270 21965                       BNZ   FTPSEXIT            Trouble, scram
                                   21966                       ¿þþþþþþþþþþþþþþþþþþþþþþþþþþþþþþþþþþþþþþþþþþþþþþþþþþþþþþþþþþþþþþÜ
                                   21967                       Ÿ  Wait for the remote host to open the data connection port.  Ÿ
                                   21968                       ¾þþþþþþþþþþþþþþþþþþþþþþþþþþþþþþþþþþþþþþþþþþþþþþþþþþþþþþþþþþþþþþ»
 00325A 1B00                       21969                       CLEAR R0                  No timeout
 00325C 4110 0004            00004 21973                       LA    R1,UNETSFOPEN
 003260 58F0 6168            00168 21974                       L     R15,NWADNETP
 003264 58E0 736C/0DEE       03404 21975                       VCALL NPATWAIT            Wait for open
 00326A 4770 71D8            03270 21979                       BNZ   FTPSEXIT            !!!!!!!! no msg to term here???
                                   21980                       ¿þþþþþþþþþþþþþþþþþþþþþþþþþþþþþþþþþþþþþþþþþþþþþþþþþþþþþþþþÜ
                                   21981                       Ÿ  STOR completion won't happen until the file has been  Ÿ
                                   21982                       Ÿ    stored.                                             Ÿ
                                   21983                       ¾þþþþþþþþþþþþþþþþþþþþþþþþþþþþþþþþþþþþþþþþþþþþþþþþþþþþþþþþ»
 00326E 1BFF                       21984                       CLEAR R15                 A-ok
 003270 18D8/9808 D004_            21988              FTPSEXIT PEND
 DROP   FFINFO,R4
 DROP   NETWA,R6
 DROP   *,R7
1NET      (NET2025) (12:49) (15MAR04) Network File Access Routines                                                          Page   59
0Current Usings:  (CP,R11) (CV,R12)
0Loc    Object Code    Addr1 Addr2  Stmt Lv Lineno    Source Statement           (Hibal 5, Asmedit 3.3)  HLASM R4.0  2004/03/15 12.49
+___    ______ ____    _____ _____  ____ __ ______    ______ _________
0                                  22020              ¿þþþþþþþþþþþþþþþþþþþþþþþþþþþþþþþþþþþþþþþþþþþþþþþþþþþþþþþþþþþþþþþþþþþþþÜ
                                   22021              Ÿ                                                                     Ÿ
                                   22022              Ÿ  FTPSCR -- Local routine to do the FTP dialog to scratch a file.    Ÿ
                                   22023              Ÿ                                                                     Ÿ
                                   22024              Ÿ    On entry:                                                        Ÿ
                                   22025              Ÿ    NET DEVICE WORK AREA (NWA) contains info about the file          Ÿ
                                   22026              Ÿ                                                                     Ÿ
                                   22027              Ÿ    On exit, R15 (and cc):                                           Ÿ
                                   22028              Ÿ      0 - opened successfully                                        Ÿ
                                   22029              Ÿ      nz- not opened (CPERRID contains error id)                     Ÿ
                                   22030              Ÿ                                                                     Ÿ
                                                      ¾þþþþþþþþþþþþþþþþþþþþþþþþþþþþþþþþþþþþþþþþþþþþþþþþþþþþþþþþþþþþþþþþþþþþþ»
000327E 50E0 D000/9008_      00000 22031              FTPSCR   PROC
 USING  *,R7
 USING  NETWA,R6                   22070                       WITH  (NETWA,R6)          Entry assumption
 003298 D502 71C6 6000_0345E 00000 22083                       FAIL  (NETWA,NE,'NET'),FTPOPEN,'Bad NETWA ptr'
                                   22112
 0032BA 5840 BE54            00E54 22113                       L     R4,CPFINFOP
 USING  FFINFO,R4                  22114                       WITH  (FFINFO,R4)
                                   22127
                                   22128                       SEGDEF L:NWAUSG
                                   22129                       ¿þþþþþþþþþþþþþþþþþþþþþþþþþþþþþþþþþþþþþþþþþþþþþþÜ
                                   22130                       Ÿ  Delete the file by sending a DELE command.  Ÿ
                                   22131                       ¾þþþþþþþþþþþþþþþþþþþþþþþþþþþþþþþþþþþþþþþþþþþþþþ»
 0032BE 4110 727C/4100_      03514 22132                       SEG   'DELE '             Delete file
                                   22147
 0032D0 4110 600C/5800_      0000C 22148                       SEG   NWAFNAME,L:NWAFNAMEL    Original file name
                                   22173
 0032E2 1B00/58F0 6164_            22174                       SEGCR
 0032EE 1B00/58F0 6164_            22196                       SEGWR
                                   22218                       ¿þþþþþþþþþþþþþþþþþþþþþþÜ
                                   22219                       Ÿ  Wait for response.  Ÿ
                                   22220                       ¾þþþþþþþþþþþþþþþþþþþþþþ»
 0032FA 4110 71C9            03461 22221                       LA    R1,=C'...'          Wait for reply
 0032FE 58E0 70DC/0DEE       03374 22222                       ACALL FTPREAD             Get next message
 003304 4770 7072            0330A 22226                       BNZ   FTPXEXIT            Trouble, scram
                                   22227
 003308 1BFF                       22228                       CLEAR R15                 A-ok
 00330A 18D8/9808 D004_            22232              FTPXEXIT PEND
 DROP   FFINFO,R4
 DROP   NETWA,R6
 DROP   *,R7
                                   22263
                                   22264                       QLTORG
1NET      (NET2025) (12:49) (15MAR04) Network File Access Routines                                                          Page   60
0Current Usings:  (CP,R11) (CV,R12)
0Loc    Object Code    Addr1 Addr2  Stmt Lv Lineno    Source Statement           (Hibal 5, Asmedit 3.3)  HLASM R4.0  2004/03/15 12.49
+___    ______ ____    _____ _____  ____ __ ______    ______ _________
0                                  22336              ¿þþþþþþþþþþþþþþþþþþþþþþþþþþþþþþþþþþþþþþþþþþþþþþþþþþþþþþþþþþþþþþþþþþþþþÜ
                                   22337              Ÿ                                                                     Ÿ
                                   22338              Ÿ  FTPDIR -- Local routine to do the FTP dialog to do list the        Ÿ
                                   22339              Ÿ    directory in a remote file system.                               Ÿ
                                   22340              Ÿ                                                                     Ÿ
                                   22341              Ÿ    On entry:                                                        Ÿ
                                   22342              Ÿ    NET DEVICE WORK AREA (NWA) contains info about the file          Ÿ
                                   22343              Ÿ                                                                     Ÿ
                                   22344              Ÿ    On exit, R15 (and cc):                                           Ÿ
                                   22345              Ÿ      0 - opened successfully                                        Ÿ
                                   22346              Ÿ      nz- not opened (CPERRID contains error id)                     Ÿ
                                   22347              Ÿ                                                                     Ÿ
                                                      ¾þþþþþþþþþþþþþþþþþþþþþþþþþþþþþþþþþþþþþþþþþþþþþþþþþþþþþþþþþþþþþþþþþþþþþ»
000353E 50E0 D000/9008_      00000 22348              FTPDIR   PROC
 USING  *,R7
 USING  NETWA,R6                   22387                       WITH  (NETWA,R6)          Entry assumption
 003558 D502 74FA 6000_03A52 00000 22400                       FAIL  (NETWA,NE,'NET'),FTPOPEN,'Bad NETWA ptr'
                                   22429
 00357A 5840 BE54            00E54 22430                       L     R4,CPFINFOP
 USING  FFINFO,R4                  22431                       WITH  (FFINFO,R4)
                                   22444
                                   22445                       SEGDEF L:NWAUSG
                                   22446                       ¿þþþþþþþþþþþþþþþþþþþþþþþþþþþþþþþþþþþþþþþþþþþþþþþþþþþþþþþþþþþþÜ
                                   22447                       Ÿ  Tell FTP server host and port number of data connection.  Ÿ
                                   22448                       ¾þþþþþþþþþþþþþþþþþþþþþþþþþþþþþþþþþþþþþþþþþþþþþþþþþþþþþþþþþþþþ»
 00357E 5830 6168            00168 22449                       L     R3,NWADNETP         Data UNET path ptr
 USING  UNET,R3                    22450                       WITH  (UNET,R3),BEGIN
 003582 4110 74FD/4100_      03A55 22464  1                      SEG   'PORT '
 003594 1F11/4310 3174_            22479  1                      SEGDC LC:UNETLIP          Our IP address
 0035A6 4110 7502/4100_      03A5A 22503  1                      SEG   ','
 0035B8 1F11/4310 3175_            22518  1                      SEGDC LC:UNETLIP+1
 0035CA 4110 7502/4100_      03A5A 22542  1                      SEG   ','
 0035DC 1F11/4310 3176_            22557  1                      SEGDC LC:UNETLIP+2
 0035EE 4110 7502/4100_      03A5A 22581  1                      SEG   ','
 003600 1F11/4310 3177_            22596  1                      SEGDC LC:UNETLIP+3
 003612 4110 7502/4100_      03A5A 22620  1                      SEG   ','
 003624 1F11/4310 317A_            22635  1                      SEGDC LC:UNETLPORT+2      Port number
 003636 4110 7502/4100_      03A5A 22659  1                      SEG   ','
 003648 1F11/4310 317B_            22674  1                      SEGDC LC:UNETLPORT+3
 00365A 1B00/58F0 6164_            22698  1                      SEGCR
 003666 1B00/58F0 6164_            22720  1                      SEGWR
 DROP   UNET,R3                    22742                       END
                                   22750                       ¿þþþþþþþþþþþþþþþþþþþþþþþþþþþþþþþþþþþþþþþþÜ
                                   22751                       Ÿ  Wait for acceptance of PORT command.  Ÿ
                                   22752                       ¾þþþþþþþþþþþþþþþþþþþþþþþþþþþþþþþþþþþþþþþþ»
 003672 4110 7503            03A5B 22753                       LA    R1,=C'...'          Wait for completion msg
 003676 58E0 74B0/0DEE       03A08 22754                       ACALL FTPREAD             Get greeting (ready) message
 00367C 4770 7298            037F0 22758                       BNZ   FTPDEXIT            Trouble, scram
1NET      (NET2025) (12:49) (15MAR04) Network File Access Routines                                                          Page   61
0Current Usings:  (FFINFO,R4) (NETWA,R6) (*,R7) (CP,R11) (CV,R12)
0Loc    Object Code    Addr1 Addr2  Stmt Lv Lineno    Source Statement           (Hibal 5, Asmedit 3.3)  HLASM R4.0  2004/03/15 12.49
+___    ______ ____    _____ _____  ____ __ ______    ______ _________
0                                  22759                       ¿þþþþþþþþþþþþþþþþþþþþþþþþþþþþþþþþþþþþþþþþþþþþþþþÜ
                                   22760                       Ÿ  Send the RETR command to use a remote file.  Ÿ
                                   22761                       ¾þþþþþþþþþþþþþþþþþþþþþþþþþþþþþþþþþþþþþþþþþþþþþþþ»
 003680 4110 74B4/4100_      03A0C 22762                       SEG   'LIST'              List directory
                                   22777
                                   22778                       COMMENT                   If show dir for ... [lik ...]
 003692 D603 6008 6008_00008 00008 22779                       IF    (NWAFNAMEL,NZ),BEGIN
 00369C 4110 7506/4100_      03A5E 22795  1                      SEG   ' '
 0036AE 4110 600C/5800_      0000C 22810  1                      SEG   NWAFNAME,L:NWAFNAMEL    Original file name
 0036C0 D603 6114 6114_00114 00114 22835  1                      IF    (NWALIKLN,NZ),BEGIN
 0036CA 4110 7507/4100_      03A5F 22851  2                        SEG   '/'
 0036DC 5810 6110/5800_      00110 22866  2                        SEG   L:NWALIKAD,L:NWALIKLN   Like string
 0036EE 4110 7508/4100_      03A60 22889  2                        SEG   '*'
 003700                            22904  1                      END
 003700                            22908                       END
                                   22912
                                   22913                       COMMENT                   If show dir like ..
 003700 D603 6008 6008_00008 00008 22914                       IF    (NWAFNAMEL,Z),BEGIN (no for ...)
 00370A D603 6114 6114_00114 00114 22930  1                      IF    (NWALIKLN,NZ),BEGIN
 003714 4110 7506/4100_      03A5E 22946  2                        SEG   ' '
 003726 5810 6110/5800_      00110 22961  2                        SEG   L:NWALIKAD,L:NWALIKLN
 003738 4110 7508/4100_      03A60 22984  2                        SEG   '*'
 00374A                            22999  1                      END
 00374A                            23003                       END
                                   23007
 00374A 1B00/58F0 6164_            23008                       SEGCR
 003756 1B00/58F0 6164_            23030                       SEGWR
                                   23052                       ¿þþþþþþþþþþþþþþþþþþþþþþþþþþþþþþþþþþþþþþþþþþþþþþþþþþþþþÜ
                                   23053                       Ÿ  Wait for response indicating LIST is in progress.  Ÿ
                                   23054                       ¾þþþþþþþþþþþþþþþþþþþþþþþþþþþþþþþþþþþþþþþþþþþþþþþþþþþþþ»
 003762 4110 7509            03A61 23055                       LA    R1,=C'1..'          Wait for preliminary reply
 003766 58E0 74B0/0DEE       03A08 23056                       ACALL FTPREAD             Get next message
 00376C 4770 7298            037F0 23060                       BNZ   FTPDEXIT            Trouble, scram
                                   23061                       ¿þþþþþþþþþþþþþþþþþþþþþþþþþþþÜ
                                   23062                       Ÿ  Get the LIST responses.  Ÿ
                                   23063                       ¾þþþþþþþþþþþþþþþþþþþþþþþþþþþ»
 003770 1B55                       23064                       CLEAR R5                  Flag: no response
                                   23068
 003772 58F0 6168/58E0_      00168 23069                       WHILE ('L R15,NWADNETP; VCALL NPATREAD',Z),BEGIN
 003780 41F0 B050/58E0_      00050 23088  1                      TSEG  (R1),(R0),CR
 00378A 4770 7298            037F0 23112  1                      BNZ   FTPDEXIT
 00378E 4150 0001            00001 23113  1                      LA    R5,1                We've written something
 003792 47F0 721A            03772 23114                       END
                                   23119
 003796 1255/4770 7296             23120                       IF    (R5,Z),BEGIN        No response...
 00379C 4110 7470/4100_      039C8 23134  1                      TSEG  'No files'
 0037AE D603 6008 6008_00008 00008 23152  1                      IF    (NWAFNAMEL,NZ),BEGIN
 0037B8 4110 74C4/4100_      03A1C 23168  2                        TSEG  ' like '
 0037CA 4110 600C/5800_      0000C 23186  2                        TSEG  NWAFNAME,L:NWAFNAMEL
 0037DC                            23214  1                      END
 0037DC 4110 750C/4100_      03A64 23218  1                      TSEG  ' found.',,CR
 0037EE                            23236                       END
                                   23240
 0037EE 1BFF                       23241                       CLEAR R15                 A-ok
1NET      (NET2025) (12:49) (15MAR04) Network File Access Routines                                                          Page   62
0Current Usings:  (CP,R11) (CV,R12)
0Loc    Object Code    Addr1 Addr2  Stmt Lv Lineno    Source Statement           (Hibal 5, Asmedit 3.3)  HLASM R4.0  2004/03/15 12.49
+___    ______ ____    _____ _____  ____ __ ______    ______ _________
00037F0 18D8/9808 D004_            23245              FTPDEXIT PEND
 DROP   FFINFO,R4
 DROP   NETWA,R6
 DROP   *,R7
1NET      (NET2025) (12:49) (15MAR04) Network File Access Routines                                                          Page   63
0Current Usings:  (CP,R11) (CV,R12)
0Loc    Object Code    Addr1 Addr2  Stmt Lv Lineno    Source Statement           (Hibal 5, Asmedit 3.3)  HLASM R4.0  2004/03/15 12.49
+___    ______ ____    _____ _____  ____ __ ______    ______ _________
0                                  23277              ¿þþþþþþþþþþþþþþþþþþþþþþþþþþþþþþþþþþþþþþþþþþþþþþþþþþþþþþþþþþþþþþþþþþþþþÜ
                                   23278              Ÿ                                                                     Ÿ
                                   23279              Ÿ  FTPREAD -- Local routine to get the next FTP control line          Ÿ
                                   23280              Ÿ    from the network path.                                           Ÿ
                                   23281              Ÿ                                                                     Ÿ
                                   23282              Ÿ    On entry:                                                        Ÿ
                                   23283              Ÿ      R1 -  "x.."   String (the first character is a code which      Ÿ
                                   23284              Ÿ                    will complete the read -- see FTP doc).          Ÿ
                                   23285              Ÿ                                                                     Ÿ
                                   23286              Ÿ    On exit, R15 (and cc):                                           Ÿ
                                   23287              Ÿ      0 - ok;  R1,R0 - data line loc, len                            Ÿ
                                   23288              Ÿ      4 - Path error (message already TSEG'd)                        Ÿ
                                   23289              Ÿ      8 - FTP error message (4xx or 5xx) (message already TSEG'd)    Ÿ
                                   23290              Ÿ                                                                     Ÿ
                                                      ¾þþþþþþþþþþþþþþþþþþþþþþþþþþþþþþþþþþþþþþþþþþþþþþþþþþþþþþþþþþþþþþþþþþþþþ»
0000000                00000 00003 23291              FRDWA    RECORD BEGIN
 000000                            23299  1           FRDOPT     DS    CL3                 Option code from entry
                                   23300  1           FRDCOMP    EQU   FRDOPT,1,C'X'       Stop on this numeric code
 000003                00003 00003 23301                       END
                                   23310              þþþþ
 0037FE 50E0 D000/9028_      00000 23311              FTPREAD  PROC  (R2,LSR),FRDWA
 USING  *,R7
 USING  FRDWA-(4+28),R8
 003818 D202 8020 1000 00000 00000 23360                       MVC   FRDOPT,@R1          Save option code
                                   23361
 USING  NETWA,R6                   23362                       WITH  (NETWA,R6)          Entry assumption
 00381E D502 723A 6000_03A52 00000 23375                       FAIL  (NETWA,NE,'NET'),FTPREAD,'Bad NETWA ptr'
                                   23404
 003840                            23405              FTPRLOOP LOOP  BEGIN
 003840 58F0 6160            00160 23412  1                      L     R15,NWAUNETP
 003844 58E0 71F8/0DEE       03A10 23413  1                      VCALL NPATREAD            Get input line
                                   23417  1
 00384A 4780 7066            0387E 23418  1                      IF    NZ,BEGIN            Connection problems...
 00384E 4110 720A/4100_      03A22 23429  2                        TSEG  'Remote host unexpectedly closed file transfer '
 003860 4110 7253/4100_      03A6B 23447  2                        TSEG  'connection.',,WR
 003872 9640 BD5A      00D5A       23465  2                        SET   CPFERROR
 003876 41F0 0004            00004 23471  2                        LA    R15,4
 00387A 47F0 7116            0392E 23472  2                        B     FTPREXIT
 00387E                            23473  1                      END
                                   23477  1                      ¿þþþþþþþþþþþþþþþþþþþþþþþþþþþþþþþþþþþþþþþþþþþþþþþþþþþþþþþþþÜ
                                   23478  1                      Ÿ  Handle continued messages, of the form (for example):  Ÿ
                                   23479  1                      Ÿ       500-This is the first part of a message           Ÿ
                                   23480  1                      Ÿ       500 This is the message                           Ÿ
                                   23481  1                      ¾þþþþþþþþþþþþþþþþþþþþþþþþþþþþþþþþþþþþþþþþþþþþþþþþþþþþþþþþþ»
 00387E 9560 1003/4770_00003       23482  1                      IF    (@R1+3,EQ,'-'),BEGIN  Continued message...
 003886 95F4 1000/4780_00000       23498  2                        IF    ((@R1,EQ,'4'),OR,(@R1,EQ,'5')),BEGIN  Error msg...
 003896 4110 1004            00004 23529  3                          LA    R1,@R1+4            Skip over error id
 00389A 4B00 7238            03A50 23530  3                          SH    R0,=H'4'
 00389E 41F0 B050/58E0_      00050 23531  3                          TSEG  (R1),(R0),CR        Write it
 0038A8                            23555  2                        END
                                   23559  2
 0038A8 47F0 7028            03840 23560  2                        B     FTPRLOOP            Loop back
 0038AC                            23561  1                      END
1NET      (NET2025) (12:49) (15MAR04) Network File Access Routines                                                          Page   64
0Current Usings:  (NETWA,R6) (*,R7) (FRDWA-(4+28),R8) (CP,R11) (CV,R12)
0Loc    Object Code    Addr1 Addr2  Stmt Lv Lineno    Source Statement           (Hibal 5, Asmedit 3.3)  HLASM R4.0  2004/03/15 12.49
+___    ______ ____    _____ _____  ____ __ ______    ______ _________
0                                  23565  1                      ¿þþþþþþþþþþþþþþþþþþþþþþþþþþþþþþþþþþþþþþþþþþþþþþþþþþþþÜ
                                   23566  1                      Ÿ  Return if we get what we were waiting for, or if  Ÿ
                                   23567  1                      Ÿ    we get a final completion.                      Ÿ
                                   23568  1                      ¾þþþþþþþþþþþþþþþþþþþþþþþþþþþþþþþþþþþþþþþþþþþþþþþþþþþþ»
 0038AC D500 8020 1000_00000 00000 23569  1                      IF    (@R1,EQ,FRDCOMP),EXIT    We got what we wanted
                                   23589  1
 0038B6 95F2 1000/4780_00000       23590  1                      IF    (@R1,EQ,'2'),EXIT        Positive completion
                                   23609  1                      ¿þþþþþþþþþþþþþþþþþþþþþþþþþþþþþþþþþþþþþþþþþþþþþþþþþþþþþþþþþþþþþþÜ
                                   23610  1                      Ÿ  Check out the response line to see if it is a fatal error.  Ÿ
                                   23611  1                      Ÿ    (FTP control messages begin with a three digit code.)     Ÿ
                                   23612  1                      ¾þþþþþþþþþþþþþþþþþþþþþþþþþþþþþþþþþþþþþþþþþþþþþþþþþþþþþþþþþþþþþþ»
 0038BE 95F4 1000/4780_00000       23613  1                      IF    ((@R1,EQ,'4'),OR,(@R1,EQ,'5')),BEGIN  Error...
 0038CE D207 B886 71B8 00886 039D0 23644  2                        MVC   CPERRID,=CL8'FTPERR'
                                   23645  2
 0038D4 1200/47D0 70D4_            23646  2                        WHILE ((R0,POS),AND,(@R1,NE,' ')),'LA R1,@R1+1; DECR R0'
 0038EC 1200/47D0 70EC_            23686  2                        WHILE ((R0,POS),AND,(@R1,EQ,' ')),'LA R1,@R1+1; DECR R0'
 003904 1200/4720 70FA_            23726  2                        IF    (R0,NP),'SETMSG "(Error: no message text, sorry.)"'
 003912 41F0 B050/58E0_      00050 23749  2                        TSEG  (R1),(R0),WR        Write out message text
 00391C 9640 BD5A      00D5A       23773  2                        SET   CPFERROR
 003920 41F0 0008            00008 23779  2                        LA    R15,8
 003924 47F0 7116            0392E 23780  2                        B     FTPREXIT
 003928                            23781  1                      END
 003928 47F0 7028            03840 23785                       END
                                   23790
 00392C 1BFF                       23791                       CLEAR R15                 A-ok
 00392E 18D8/9828 D004_            23795              FTPREXIT PEND
 DROP   NETWA,R6
 DROP   FRDWA-(4+28),R8
 DROP   *,R7
1NET      (NET2025) (12:49) (15MAR04) Network File Access Routines                                                          Page   65
0Current Usings:  (CP,R11) (CV,R12)
0Loc    Object Code    Addr1 Addr2  Stmt Lv Lineno    Source Statement           (Hibal 5, Asmedit 3.3)  HLASM R4.0  2004/03/15 12.49
+___    ______ ____    _____ _____  ____ __ ______    ______ _________
0                                  23827              ¿þþþþþþþþþþþþþþþþþþþþþþþþþþþþþþþþþþþþþþþþþþþþþþþþþþþþþþþþþþþþþþþþþþþþþÜ
                                   23828              Ÿ                                                                     Ÿ
                                   23829              Ÿ  FTPCLOSE -- Local routine to do FTP "signoff" dialog.              Ÿ
                                   23830              Ÿ                                                                     Ÿ
                                   23831              Ÿ    On entry:                                                        Ÿ
                                   23832              Ÿ    NET DEVICE WORK AREA (NWA) contains info about the file          Ÿ
                                   23833              Ÿ                                                                     Ÿ
                                                      ¾þþþþþþþþþþþþþþþþþþþþþþþþþþþþþþþþþþþþþþþþþþþþþþþþþþþþþþþþþþþþþþþþþþþþþ»
000393C 50E0 D000/9008_      00000 23834              FTPCLOSE PROC
 USING  *,R7
 USING  NETWA,R6                   23873                       WITH  (NETWA,R6)          Entry assumption
 003956 D502 70FC 6000_03A52 00000 23886                       FAIL  (NETWA,NE,'NET'),FTPCLOSE,'Bad NETWA ptr'
                                   23915
                                   23916                       SEGDEF L:NWAUSG
                                   23917                       ¿þþþþþþþþþþþþþþþþþþþþþþþþþþþþþþþþþþþþþþþþþþþþþþþþþþþþþþþþþÜ
                                   23918                       Ÿ  Wait for response indicating file transfer completed.  Ÿ
                                   23919                       ¾þþþþþþþþþþþþþþþþþþþþþþþþþþþþþþþþþþþþþþþþþþþþþþþþþþþþþþþþþ»
 003978 4110 7120            03A76 23920                       LA    R1,=C'2..'          Wait for 226
 00397C 58E0 70B2/0DEE       03A08 23921                       ACALL FTPREAD             Get next message
 003982 12FF/4780 703A_            23925                       IF    ((R15,Z),OR,(R15,EQ,=F'8')),BEGIN
                                   23954  1                      ¿þþþþþþþþþþþþþþþþþþþþþþþþþþþÜ
                                   23955  1                      Ÿ  Tell FTP server to quit  Ÿ
                                   23956  1                      ¾þþþþþþþþþþþþþþþþþþþþþþþþþþþ»
 003990 4110 70C2/4100_      03A18 23957  1                      SEG   'QUIT'              Say goodbye
 0039A2 1B00/58F0 6164_            23972  1                      SEGCR
 0039AE 1B00/58F0 6164_            23994  1                      SEGWR
 0039BA                            24016                       END
                                   24020
 0039BA 18D8/9808 D004_            24021                       PEND
 DROP   NETWA,R6
 DROP   *,R7
                                   24046
                                   24047                       QLTORG
                                   24085
                                   24086                       SEGDEF DUMMY              (Safety)
                                   24087
                                   24088                       VLTORG
 003AC8                03AC8 03AC8 24100                       END   .

1NET      (NET2025) (12:49) (15MAR04) Relocation Dictionary                                                                 Page   66
-   Pos.Id   Rel.Id   Flags    Address                                                       HLASM R4.0  2004/03/15 12.49
0  00000001 00000001    0C    00000394
   00000001 00000001    0C    000003BC
   00000001 00000001    0C    000003E4
   00000001 00000001    0C    0000040C
   00000001 00000001    0C    00000A84
   00000001 00000001    0C    00000C34
   00000001 00000001    0C    00000C5C
   00000001 00000001    0C    00000C84
   00000001 00000001    0C    00000CAC
   00000001 00000001    0C    00000CD4
   00000001 00000001    0C    00000F2C
   00000001 00000001    0C    00000F54
   00000001 00000001    0C    00001390
   00000001 00000001    0C    000013A0
   00000001 00000001    0C    000013B4
   00000001 00000001    0C    00001828
   00000001 00000001    0C    00001850
   00000001 00000001    0C    00001878
   00000001 00000001    0C    000018A0
   00000001 00000001    08    00001A11
   00000001 00000001    08    00001B13
   00000001 00000001    08    00001B31
   00000001 00000001    08    00001D0D
   00000001 00000001    0C    00001E48
   00000001 00000001    0C    00001E58
   00000001 00000001    0C    00001E5C
   00000001 00000001    0C    00001EAC
   00000001 00000001    0C    00001EB0
   00000001 00000001    0C    00001EB4
   00000001 00000001    0C    00001EE8
   00000001 00000001    0C    000025B8
   00000001 00000001    0C    000025C8
   00000001 00000001    0C    000025CC
   00000001 00000001    0C    00002628
   00000001 00000001    0C    0000262C
   00000001 00000001    0C    00002630
   00000001 00000001    0C    00002634
   00000001 00000001    08    00002931
   00000001 00000001    08    00002957
   00000001 00000001    08    00002CA1
   00000001 00000001    08    00002E7F
   00000001 00000001    08    000030B7
   00000001 00000001    08    000032B7
   00000001 00000001    0C    00003374
   00000001 00000001    08    00003577
   00000001 00000001    08    0000383D
   00000001 00000001    08    00003975
   00000001 00000001    0C    00003A08
   00000001 00000002    1C    00000390
   00000001 00000002    1C    000003B8
   00000001 00000002    1C    000003E0
   00000001 00000002    1C    00000408
   00000001 00000002    1C    00000C30
   00000001 00000002    1C    00000C58
   00000001 00000002    1C    00000C80
1NET      (NET2025) (12:49) (15MAR04) Relocation Dictionary                                                                 Page   67
   00000001 00000002    1C    00000CA8
   00000001 00000002    1C    00000CD0
   00000001 00000002    1C    00000F50
   00000001 00000002    1C    00001824
   00000001 00000002    1C    0000184C
   00000001 00000002    1C    00001874
   00000001 00000002    1C    0000189C
   00000001 00000003    1C    00000430
   00000001 00000003    1C    00000CF8
   00000001 00000003    1C    00000FA0
   00000001 00000003    1C    000018C4
   00000001 00000003    1C    000018EC
   00000001 00000003    1C    00001914
   00000001 00000004    1C    00000434
   00000001 00000004    1C    00000CFC
   00000001 00000004    1C    00000FA4
   00000001 00000004    1C    00001398
   00000001 00000004    1C    000018C8
   00000001 00000004    1C    000018F0
   00000001 00000004    1C    00001918
   00000001 00000005    1C    00000A68
   00000001 00000005    1C    00003378
   00000001 00000006    1C    00000A6C
   00000001 00000006    1C    000033F0
   00000001 00000007    1C    00000A70
   00000001 00000008    1C    00000A74
   00000001 00000008    1C    000013A4
   00000001 00000008    1C    00001E50
   00000001 00000008    1C    000025C0
   00000001 00000009    1C    00000A78
   00000001 00000009    1C    000013AC
   00000001 00000009    1C    00001E64
   00000001 00000009    1C    000025D4
   00000001 00000009    1C    00003384
   00000001 00000009    1C    000039F8
   00000001 0000000A    1C    00000A80
   00000001 0000000B    1C    00000A88
   00000001 0000000B    1C    00001394
   00000001 0000000B    1C    00001E4C
   00000001 0000000B    1C    000025BC
   00000001 0000000C    1C    00000A8C
   00000001 0000000C    1C    000013C0
   00000001 0000000C    1C    00003388
   00000001 0000000D    1C    00000A94
   00000001 0000000D    1C    0000338C
   00000001 0000000E    1C    00000A98
   00000001 0000000E    1C    000028C4
   00000001 0000000E    1C    00003390
   00000001 0000000F    1C    00000AA0
   00000001 00000010    1C    00000AB4
   00000001 00000011    1C    00000AB8
   00000001 00000012    1C    00000ABC
   00000001 00000012    1C    00003380
   00000001 00000013    1C    00000AC0
   00000001 00000014    1C    00000AC4
   00000001 00000014    1C    000013C4
   00000001 00000014    1C    00001E68
   00000001 00000014    1C    000025D8
   00000001 00000014    1C    00003398
1NET      (NET2025) (12:49) (15MAR04) Relocation Dictionary                                                                 Page   68
   00000001 00000014    1C    00003A00
   00000001 00000015    1C    00000F28
   00000001 00000016    1C    00000F7C
   00000001 00000017    1C    0000139C
   00000001 00000018    1C    000013A8
   00000001 00000019    1C    000013B0
   00000001 00000019    1C    00001ED0
   00000001 00000019    1C    000033F4
   00000001 00000019    1C    000039FC
   00000001 0000001A    1C    000013BC
   00000001 0000001B    1C    000013D0
   00000001 0000001C    1C    000013D4
   00000001 0000001D    1C    00001E40
   00000001 0000001D    1C    000025B0
   00000001 0000001E    1C    00001E44
   00000001 0000001E    1C    000025B4
   00000001 0000001F    1C    00001E54
   00000001 0000001F    1C    000025C4
   00000001 00000020    1C    00001E60
   00000001 00000020    1C    000025D0
   00000001 00000020    1C    000033A8
   00000001 00000021    1C    00001E74
   00000001 00000021    1C    000025E4
   00000001 00000021    1C    000033AC
   00000001 00000022    1C    00001EA4
   00000001 00000023    1C    00001EB8
   00000001 00000023    1C    00003A10
   00000001 00000024    1C    00001EBC
   00000001 00000025    1C    00001EC0
   00000001 00000025    1C    0000339C
   00000001 00000025    1C    00003A04
   00000001 00000026    1C    00001EC8
   00000001 00000027    1C    00001ECC
   00000001 00000028    1C    00001ED8
   00000001 00000029    1C    00001EDC
   00000001 0000002A    1C    00001EE0
   00000001 0000002B    1C    00001EE4
   00000001 0000002B    1C    000033FC
   00000001 0000002C    1C    00001EEC
   00000001 0000002D    1C    00003404

1NET      (NET2025) (12:49) (15MAR04) Ordinary Symbol and Literal Cross Reference                                           Page   69
-Symbol   Length   Value     Id    R Type   Defn References                                  HLASM R4.0  2004/03/15 12.49
0$$$@R0        1 00000000 FFFFFFFE     J     705  1018
 $$$@R10       1 00000000 FFFFFFF4     J     835  1082
 $$$@R11       1 00000000 FFFFFFF3     J     848  1095
 $$$@R12       1 00000000 FFFFFFF2     J     861  1108
 $$$@R13       1 00000000 FFFFFFF1     J     874  1121
 $$$@R14       1 00000000 FFFFFFF0     J     887  1134
 $$$@R7        1 00000000 FFFFFFF7     J     796  1031
 $$$@R8        1 00000000 FFFFFFF6     J     809  1044   1056
 $$$@R9        1 00000000 FFFFFFF5     J     822  1069
 $$$C1WYLNET
               1 00000B92 00000001     J   10926 10928
 $$$C2WYLNET
               1 00001520 00000001     J   13263 13265  13665  14595
 $$$C3WYLNET
               1 00002090 00000001     J   16236 16238  16596  17371
 $$$C4WYLNET
               1 00002730 00000001     J   17728 17730  17833  17922  17978  18094  18250  18432  18538
 $$$C5WYLNET
               1 000028F2 00000001     J   18592 18594  18642  18918  19093  19383  19692  20350  20453
 $$$C6WYLNET
               1 0000353E 00000001     J   22330 22332  23308
 $$$C7WYLNET
               1 00003A79 00000001     J   24080 24082
 $$$C8WYLNET
               1 00003AC8 00000001     J   24103 24105
 $$$D0WYLNET
               1 00000B80 00000001     J     993  8673   9126   9300
 $$$D2WYLNET
               1 00002089 00000001     J   13264 13654
 $$$D3WYLNET
               1 00002724 00000001     J   16237 16585  17360
 $$$D4WYLNET
               1 000028C8 00000001     J   17729 17822  17911  17967  18083  18239  18421  18527
 $$$D5WYLNET
               1 00003519 00000001     J   18593 18907  19082  19372  19681  20339  20442
 $$$RCP        1 00000000 FFFFFFEC     J    2452  4712   6186   6186
 $$$RCV        1 00000000 FFFFFFEE     J    1177  2362   2362
 $$$RDEV       1 00000000 FFFFFFEB     J    4666  4711   4711
 $$$RFFINFO
               1 00000000 FFFFFFE4     J    7533  7742   7742
 $$$RFOPWA
               1 00000000 FFFFFFE0     J   18611 18641  18641
 $$$RFRDWA
               1 00000000 FFFFFFDF     J   23293 23307  23307
 $$$RHOSTWA
               1 00000000 FFFFFFE2     J    7874  7913   7913
 $$$RJCB       1 00000000 FFFFFFE9     J    6304  6578   6578
 $$$RKWR       1 00000000 FFFFFFE8     J    6584  6789   6789
 $$$RNETWA
               1 00000000 FFFFFFE3     J    7752  7829   7829
 $$$RNRDWA
               1 00000000 FFFFFFE1     J   14580 14594  14594
 $$$RNSCNCB
               1 00000000 FFFFFFED     J    2373  2446   2446
 $$$RSEGCB
1NET      (NET2025) (12:49) (15MAR04) Ordinary Symbol and Literal Cross Reference                                           Page   70
               1 00000000 FFFFFFE5     J    7406  7506   7506
 $$$RTTYPE
               1 00000000 FFFFFFEA     J    6197  6298   6298
 $$$RUNET      1 00000000 FFFFFFE6     J    6944  7400   7400
 $$$RUPATH
               1 00000000 FFFFFFE7     J    6795  6938   6938
 $$$SEGCB0
               4 00000050 FFFFFFEC     F    2483  2569   2569
 $$$SEGCB42
               4 0000010C FFFFFFE6     F    7082  7168   7168
 $$$V01       13 00003A79 00000001     C   24094 14691  15059  15825  18740  20621  21411  22107  22424  23399  23910
 $$$V02       25 00003A86 00000001     C   24095 15086
 $$$V03       12 00003A9F 00000001     C   24096 18784
 $$$V04       24 00003AAB 00000001     C   24097 19971
 $$$100E       2 00000352 00000001     H    8869  8863
 $$$100F       2 00000358 00000001     H    8879  8865B
 $$$101        1 00000134 00000001 A   U    8912  8909   8911
 $$$103B       1 00000452 00000001     X    9017  9024U
 $$$105F       2 000004B2 00000001     H    9103  9094B
 $$$106F       2 000004C4 00000001     H    9142  9118B
 $$$107        6 00000B86 00000001     I    9132  9124X
 $$$108        6 00000B86 00000001     I    9131  9132   9132
 $$$109        1 00000050 00000001 A   U    9164  9161   9163
 $$$111B       1 000004EE 00000001     X    9191  9198U
 $$$113F       2 0000054E 00000001     H    9277  9268B
 $$$114F       2 00000560 00000001     H    9316  9292B
 $$$115        6 00000B8C 00000001     I    9306  9298X
 $$$116        6 00000B8C 00000001     I    9305  9306   9306
 $$$117        1 00000050 00000001 A   U    9338  9335   9337
 $$$119B       1 0000058A 00000001     X    9365  9372U
 $$$120        1 00000050 00000001 A   U    9411  9408   9410
 $$$122B       1 000005BA 00000001     X    9438  9445U
 $$$123        1 00000050 00000001 A   U    9483  9480   9482
 $$$125B       1 000005EA 00000001     X    9526  9533U
 $$$126F       2 00000672 00000001     H    9685  9602B
 $$$127F       2 00000660 00000001     H    9658  9619B
 $$$128F       2 0000070C 00000001     H    9835  9700B
 $$$129F       2 000006D0 00000001     H    9782  9721B
 $$$130F       2 00000708 00000001     H    9829  9813B
 $$$131        1 00000134 00000001 A   U    9877  9874   9876
 $$$133B       1 0000074C 00000001     X    9911  9918U
 $$$134F       2 0000076E 00000001     H    9973  9960B
 $$$135F       2 000007E4 00000001     H   10073 10058B
 $$$136F       2 00000836 00000001     H   10189 10135B
 $$$137F       2 00000852 00000001     H   10228 10202B
 $$$138F       2 0000086C 00000001     H   10267 10240B
 $$$139        1 00000134 00000001 A   U   10293 10290  10292
 $$$141B       1 00000898 00000001     X   10327 10334U
 $$$142F       2 000008BA 00000001     H   10389 10376B
 $$$143F       2 000009E2 00000001     H   10778 10438B
 $$$143S       2 000008D4 00000001     H   10407 10777B
 $$$145F       2 00000934 00000001     H   10509 10494B
 $$$146F       2 00000952 00000001     H   10549 10530B
 $$$147F       2 0000099C 00000001     H   10670 10616B
 $$$148F       2 000009B8 00000001     H   10709 10683B
 $$$149F       2 000009D2 00000001     H   10748 10721B
 $$$150F       2 00000A0E 00000001     H   10844 10790B
 $$$151        1 00000134 00000001 A   U   10870 10867  10869
 $$$153B       1 00000BAC 00000001     X   10960 10967U
1NET      (NET2025) (12:49) (15MAR04) Ordinary Symbol and Literal Cross Reference                                           Page   71
 $$$154        1 00000050 00000001 A   U   11027 11024  11026
 $$$156B       1 00000D1A 00000001     X   11147 11154U
 $$$157        1 00000050 00000001 A   U   11186 11183  11185
 $$$159B       1 00000D46 00000001     X   11213 11220U
 $$$160        1 00000050 00000001 A   U   11253 11250  11252
 $$$162B       1 00000D72 00000001     X   11280 11287U
 $$$163F       2 00000D80 00000001     H   11324 11311B
 $$$164        1 00000050 00000001 A   U   11359 11356  11358
 $$$166B       1 00000DBA 00000001     X   11386 11393U
 $$$167F       2 00000DC8 00000001     H   11430 11417B
 $$$168        1 00000050 00000001 A   U   11464 11461  11463
 $$$170B       1 00000E02 00000001     X   11491 11498U
 $$$171F       2 00000E16 00000001     H   11533 11520B
 $$$171S       2 00000E02 00000001     H   11512 11532B
 $$$173        1 00000050 00000001 A   U   11555 11552  11554
 $$$175B       1 00000E40 00000001     X   11587 11594U
 $$$176F       2 00000EF0 00000001     H   11757 11656B
 $$$177B       4 00000EB2 00000001     I   11676 11692
 $$$177F       2 00000EBC 00000001     H   11689 11676B 11691
 $$$178E       2 00000EC0 00000001     H   11699 11693
 $$$178F       2 00000EEC 00000001     H   11751 11695B
 $$$179        1 00000050 00000001 A   U   11784 11781  11783
 $$$181B       1 00000FC2 00000001     X   11874 11881U
 $$$182F       2 00000FD6 00000001     H   11928 11915B
 $$$182T       2 00000FD0 00000001     H   11918 11903B
 $$$184        1 00000050 00000001 A   U   11953 11950  11952
 $$$186B       1 00001006 00000001     X   11986 11993U
 $$$187F       2 00001014 00000001     H   12026 12013B
 $$$188        1 00000050 00000001 A   U   12051 12048  12050
 $$$190B       1 00001046 00000001     X   12086 12093U
 $$$191F       2 000010AC 00000001     H   12244 12231B
 $$$192F       2 00001232 00000001     H   12766 12658B
 $$$193F       2 000012FA 00000001     H   13052 13015B
 $$$193S       2 000012D6 00000001     H   13006 13051B
 $$$195F       2 000012EE 00000001     H   13044 13031B
 $$$196        1 00000050 00000001 A   U   13071 13068  13070
 $$$198B       1 00001322 00000001     X   13103 13110U
 $$$199        1 00000050 00000001 A   U   13143 13140  13142
 $$$201B       1 00001356 00000001     X   13175 13182U
 $$$202        1 00000050 00000001 A   U   13215 13212  13214
 $$$204B       1 0000153A 00000001     X   13304 13311U
 $$$205B       4 00001584 00000001     I   13385 13403
 $$$205F       2 00001594 00000001     H   13400 13385B 13402
 $$$206E       2 00001598 00000001     H   13410 13404
 $$$206F       2 000015A4 00000001     H   13422 13406B
 $$$207F       2 00001686 00000001     H   13590 13531B
 $$$208F       2 000016AA 00000001     H   13632 13623B
 $$$209F       2 000016B6 00000001     H   13670 13646B
 $$$210        6 0000208A 00000001     I   13660 13652X
 $$$211        6 0000208A 00000001     I   13659 13660  13660
 $$$212F       2 000017AA 00000001     H   13995 13684B
 $$$213B       4 000016D0 00000001     I   13700 13735
 $$$213F       2 000016EE 00000001     H   13730 13700B 13734
 $$$214B       4 000016F8 00000001     I   13752 13797
 $$$214E       2 000016F2 00000001     H   13742 13736
 $$$214F       2 00001716 00000001     H   13792 13738B 13752B 13796
 $$$216B       4 00001720 00000001     I   13814 13863
 $$$216E       2 0000171A 00000001     H   13804 13798
 $$$216F       2 00001744 00000001     H   13858 13800B 13814B 13862
1NET      (NET2025) (12:49) (15MAR04) Ordinary Symbol and Literal Cross Reference                                           Page   72
 $$$218B       4 0000174E 00000001     I   13880 13928
 $$$218E       2 00001748 00000001     H   13870 13864
 $$$218F       2 00001772 00000001     H   13924 13866B 13880B 13927
 $$$220E       2 00001776 00000001     H   13935 13929
 $$$220F       2 00001798 00000001     H   13964 13931B
 $$$221F       2 000017B6 00000001     H   14021 14007B
 $$$222F       2 000017F4 00000001     H   14133 14033B
 $$$223B       4 000017D8 00000001     I   14081 14112
 $$$223F       2 000017EA 00000001     H   14107 14081B 14111
 $$$223T       2 000017DC 00000001     H   14084 14059B 14071B
 $$$227E       2 000017EE 00000001     H   14119 14113
 $$$227F       2 000017F4 00000001     H   14129 14115B
 $$$228        1 00000050 00000001 A   U   14158 14155  14157
 $$$230B       1 00001936 00000001     X   14308 14315U
 $$$231        1 00000050 00000001 A   U   14347 14344  14346
 $$$233B       1 00001962 00000001     X   14374 14381U
 $$$234        1 00000050 00000001 A   U   14413 14410  14412
 $$$236B       1 0000198E 00000001     X   14440 14447U
 $$$237        1 00000050 00000001 A   U   14479 14476  14478
 $$$239B       1 000019BA 00000001     X   14506 14513U
 $$$240        1 00000050 00000001 A   U   14545 14542  14544
 $$$242B       1 000019E6 00000001     X   14625 14632U
 $$$243F       2 00001A14 00000001     H   14695 14680B
 $$$244F       2 00001A92 00000001     H   14877 14789B
 $$$244S       2 00001A14 00000001     H   14704 14876B
 $$$245F       2 00001A22 00000001     H   14730 14720B
 $$$246F       2 00001A34 00000001     H   14754 14742B
 $$$247F       2 00001A42 00000001     H   14777 14765B
 $$$249F       2 00001A5A 00000001     H   14819 14809B
 $$$250F       2 00001AC8 00000001     H   14938 14900B
 $$$251F       2 00001ABA 00000001     H   14929 14919B
 $$$252        1 00000058 00000001 A   U   14966 14963  14965
 $$$254B       1 00001AF0 00000001     X   15005 15012U
 $$$255F       2 00001B16 00000001     H   15063 15048B
 $$$256F       2 00001B34 00000001     H   15090 15075B
 $$$257B       4 00001B38 00000001     I   15106 15157
 $$$257F       2 00001B58 00000001     H   15151 15106B 15156
 $$$258E       2 00001B5C 00000001     H   15164 15158
 $$$258F       2 00001C1E 00000001     H   15464 15160B
 $$$259F       2 00001BF2 00000001     H   15369 15209B 15222B
 $$$259T       2 00001B84 00000001     H   15225 15186B 15196B
 $$$263F       2 00001BDC 00000001     H   15334 15304B
 $$$263T       2 00001BC2 00000001     H   15307 15293B
 $$$265F       2 00001C00 00000001     H   15397 15385B
 $$$266F       2 00001CC2 00000001     H   15702 15493B 15667B
 $$$267F       2 00001C6E 00000001     H   15601 15553B
 $$$269        1 00000050 00000001 A   U   15734 15731  15733
 $$$271B       1 00001CEA 00000001     X   15771 15778U
 $$$272F       2 00001D10 00000001     H   15829 15814B
 $$$273F       2 00001D5E 00000001     H   15985 15844B
 $$$274F       2 00001D56 00000001     H   15970 15878B
 $$$275F       2 00001D40 00000001     H   15946 15893B
 $$$276F       2 00001D40 00000001     H   15942 15909B
 $$$277F       2 00001D70 00000001     H   16018 15999B
 $$$278F       2 00001D96 00000001     H   16096 16033B
 $$$279F       2 00001D8E 00000001     H   16081 16067B
 $$$280F       2 00001DBA 00000001     H   16137 16124B
 $$$281        1 00000050 00000001 A   U   16161 16158  16160
 $$$283B       1 000020AA 00000001     X   16273 16280U
1NET      (NET2025) (12:49) (15MAR04) Ordinary Symbol and Literal Cross Reference                                           Page   73
 $$$284F       2 000021E0 00000001     H   16521 16462B
 $$$285F       2 00002204 00000001     H   16563 16554B
 $$$286F       2 00002210 00000001     H   16601 16577B
 $$$287        6 00002724 00000001     I   16591 16583X
 $$$288        6 00002724 00000001     I   16590 16591  16591
 $$$289F       2 000022D0 00000001     H   16846 16615B
 $$$290B       4 0000222A 00000001     I   16631 16666
 $$$290F       2 00002248 00000001     H   16661 16631B 16665
 $$$291B       4 00002252 00000001     I   16683 16728
 $$$291E       2 0000224C 00000001     H   16673 16667
 $$$291F       2 00002270 00000001     H   16723 16669B 16683B 16727
 $$$293B       4 0000227A 00000001     I   16745 16779
 $$$293E       2 00002274 00000001     H   16735 16729
 $$$293F       2 00002298 00000001     H   16775 16731B 16745B 16778
 $$$295E       2 0000229C 00000001     H   16786 16780
 $$$295F       2 000022BE 00000001     H   16815 16782B
 $$$296F       2 000022E0 00000001     H   16870 16858B
 $$$297        1 00000050 00000001 A   U   16900 16897  16899
 $$$299B       1 00002308 00000001     X   16942 16949U
 $$$300        1 00000050 00000001 A   U   16982 16979  16981
 $$$302B       1 0000233C 00000001     X   17018 17025U
 $$$303F       2 00002448 00000001     H   17215 17197B
 $$$304F       2 00002494 00000001     H   17296 17237B
 $$$305F       2 000024B8 00000001     H   17338 17329B
 $$$306F       2 000024C4 00000001     H   17376 17352B
 $$$307        6 0000272A 00000001     I   17366 17358X
 $$$308        6 0000272A 00000001     I   17365 17366  17366
 $$$309F       2 00002584 00000001     H   17621 17390B
 $$$310B       4 000024DE 00000001     I   17406 17441
 $$$310F       2 000024FC 00000001     H   17436 17406B 17440
 $$$311B       4 00002506 00000001     I   17458 17503
 $$$311E       2 00002500 00000001     H   17448 17442
 $$$311F       2 00002524 00000001     H   17498 17444B 17458B 17502
 $$$313B       4 0000252E 00000001     I   17520 17554
 $$$313E       2 00002528 00000001     H   17510 17504
 $$$313F       2 0000254C 00000001     H   17550 17506B 17520B 17553
 $$$315E       2 00002550 00000001     H   17561 17555
 $$$315F       2 00002572 00000001     H   17590 17557B
 $$$316F       2 00002594 00000001     H   17645 17633B
 $$$317        1 00000050 00000001 A   U   17675 17672  17674
 $$$319B       1 0000274A 00000001     X   17767 17774U
 $$$320F       2 00002760 00000001     H   17838 17814B
 $$$321        6 000028C8 00000001     I   17828 17820X
 $$$322        6 000028C8 00000001     I   17827 17828  17828
 $$$323F       2 000027AA 00000001     H   17991 17870B 17883B
 $$$325F       2 0000278C 00000001     H   17927 17903B
 $$$326        6 000028CE 00000001     I   17917 17909X
 $$$327        6 000028CE 00000001     I   17916 17917  17917
 $$$328F       2 000027AA 00000001     H   17987 17939B
 $$$329F       2 000027AA 00000001     H   17983 17959B
 $$$330        6 000028D4 00000001     I   17973 17965X
 $$$331        6 000028D4 00000001     I   17972 17973  17973
 $$$332F       2 000027E2 00000001     H   18107 18017B
 $$$333F       2 000027E2 00000001     H   18103 18048B
 $$$333T       2 000027C8 00000001     H   18051 18037B
 $$$335F       2 000027E2 00000001     H   18099 18075B
 $$$336        6 000028DA 00000001     I   18089 18081X
 $$$337        6 000028DA 00000001     I   18088 18089  18089
 $$$338        1 00000050 00000001 A   U   18131 18128  18130
1NET      (NET2025) (12:49) (15MAR04) Ordinary Symbol and Literal Cross Reference                                           Page   74
 $$$340B       1 0000280A 00000001     X   18171 18178U
 $$$341F       2 00002826 00000001     H   18255 18231B
 $$$342        6 000028E0 00000001     I   18245 18237X
 $$$343        6 000028E0 00000001     I   18244 18245  18245
 $$$344        1 00000050 00000001 A   U   18284 18281  18283
 $$$346B       1 0000284E 00000001     X   18317 18324U
 $$$347B       4 00002866 00000001     I   18393 18446
 $$$347F       2 0000287C 00000001     H   18441 18393B 18445
 $$$348F       2 0000287C 00000001     H   18437 18413B
 $$$349        6 000028E6 00000001     I   18427 18419X
 $$$350        6 000028E6 00000001     I   18426 18427  18427
 $$$351E       2 00002880 00000001     H   18453 18447
 $$$351F       2 000028B0 00000001     H   18551 18449B
 $$$352F       2 000028B0 00000001     H   18547 18482B 18495B
 $$$354F       2 000028B0 00000001     H   18543 18519B
 $$$355        6 000028EC 00000001     I   18533 18525X
 $$$356        6 000028EC 00000001     I   18532 18533  18533
 $$$357        1 00000050 00000001 A   U   18580 18577  18579
 $$$359B       1 0000290C 00000001     X   18670 18677U
 $$$360F       2 00002934 00000001     H   18744 18729B
 $$$361F       2 0000295A 00000001     H   18788 18773B
 $$$362F       2 0000297A 00000001     H   18837 18828B
 $$$363F       2 00002A4A 00000001     H   19107 18852B
 $$$364F       2 000029AE 00000001     H   18885 18876B
 $$$365F       2 000029BA 00000001     H   18923 18899B
 $$$366        6 0000351A 00000001     I   18913 18905X
 $$$367        6 0000351A 00000001     I   18912 18913  18913
 $$$368F       2 00002A4A 00000001     H   19103 18963B
 $$$368S       2 000029DA 00000001     H   18953 19102B
 $$$370F       2 00002A3A 00000001     H   19060 19051B
 $$$371F       2 00002A46 00000001     H   19098 19074B
 $$$372        6 00003520 00000001     I   19088 19080X
 $$$373        6 00003520 00000001     I   19087 19088  19088
 $$$374F       2 00002C36 00000001     H   19842 19224B
 $$$374S       2 00002A86 00000001     H   19202 19841B
 $$$376B       4 00002AA2 00000001     I   19244 19800
 $$$376F       2 00002C20 00000001     H   19796 19244B 19799
 $$$377F       2 00002ACC 00000001     H   19302 19271B
 $$$378F       2 00002ACC 00000001     H   19298 19289B
 $$$379F       2 00002BE4 00000001     H   19706 19317B
 $$$380F       2 00002B00 00000001     H   19350 19341B
 $$$381F       2 00002B0C 00000001     H   19388 19364B
 $$$382        6 00003526 00000001     I   19378 19370X
 $$$383        6 00003526 00000001     I   19377 19378  19378
 $$$384F       2 00002BE4 00000001     H   19702 19428B
 $$$384S       2 00002B2C 00000001     H   19418 19701B
 $$$386F       2 00002BA4 00000001     H   19582 19454B
 $$$388F       2 00002BD4 00000001     H   19659 19650B
 $$$389F       2 00002BE0 00000001     H   19697 19673B
 $$$390        6 0000352C 00000001     I   19687 19679X
 $$$391        6 0000352C 00000001     I   19686 19687  19687
 $$$392E       2 00002C24 00000001     H   19807 19801
 $$$392F       2 00002C32 00000001     H   19837 19803B
 $$$393F       2 00002C7C 00000001     H   19919 19860B
 $$$394F       2 00002CA4 00000001     H   19975 19960B
 $$$395F       2 00002CCE 00000001     H   20008 19993B
 $$$396F       2 00002D88 00000001     H   20252 20021B
 $$$397B       4 00002CE2 00000001     I   20037 20072
 $$$397F       2 00002D00 00000001     H   20067 20037B 20071
1NET      (NET2025) (12:49) (15MAR04) Ordinary Symbol and Literal Cross Reference                                           Page   75
 $$$398B       4 00002D0A 00000001     I   20089 20134
 $$$398E       2 00002D04 00000001     H   20079 20073
 $$$398F       2 00002D28 00000001     H   20129 20075B 20089B 20133
 $$$400B       4 00002D32 00000001     I   20151 20185
 $$$400E       2 00002D2C 00000001     H   20141 20135
 $$$400F       2 00002D50 00000001     H   20181 20137B 20151B 20184
 $$$402E       2 00002D54 00000001     H   20192 20186
 $$$402F       2 00002D76 00000001     H   20221 20188B
 $$$403F       2 00002DE6 00000001     H   20382 20291B
 $$$404F       2 00002DBA 00000001     H   20317 20308B
 $$$405F       2 00002DC6 00000001     H   20355 20331B
 $$$406        6 00003532 00000001     I   20345 20337X
 $$$407        6 00003532 00000001     I   20344 20345  20345
 $$$408F       2 00002E36 00000001     H   20485 20394B
 $$$409F       2 00002E0A 00000001     H   20420 20411B
 $$$410F       2 00002E16 00000001     H   20458 20434B
 $$$411        6 00003538 00000001     I   20448 20440X
 $$$412        6 00003538 00000001     I   20447 20448  20448
 $$$413        1 000000A4 00000001 A   U   20529 20526  20528
 $$$415B       1 00002E60 00000001     X   20568 20575U
 $$$416F       2 00002E82 00000001     H   20625 20610B
 $$$417F       2 00002FC8 00000001     H   21043 20969B
 $$$418B       4 00003012 00000001     I   21152 21270
 $$$418F       2 0000306A 00000001     H   21267 21152B 21269
 $$$419F       2 00003034 00000001     H   21194 21175B
 $$$420E       2 0000306E 00000001     H   21277 21271
 $$$420F       2 00003070 00000001     H   21289 21273B
 $$$421        1 00000050 00000001 A   U   21319 21316  21318
 $$$423B       1 00003098 00000001     X   21358 21365U
 $$$424F       2 000030BA 00000001     H   21415 21400B
 $$$425F       2 00003200 00000001     H   21833 21759B
 $$$426F       2 00003218 00000001     H   21864 21851B
 $$$427        1 00000050 00000001 A   U   22016 22013  22015
 $$$429B       1 00003298 00000001     X   22054 22061U
 $$$430F       2 000032BA 00000001     H   22111 22096B
 $$$431        1 00000050 00000001 A   U   22260 22257  22259
 $$$433B       1 00003558 00000001     X   22371 22378U
 $$$434F       2 0000357A 00000001     H   22428 22413B
 $$$435F       2 00003700 00000001     H   22911 22790B
 $$$436F       2 00003700 00000001     H   22907 22846B
 $$$437F       2 0000374A 00000001     H   23006 22925B
 $$$438F       2 0000374A 00000001     H   23002 22941B
 $$$439F       2 00003796 00000001     H   23118 23083B
 $$$439S       2 00003772 00000001     H   23074 23117B
 $$$441F       2 000037EE 00000001     H   23239 23129B
 $$$442F       2 000037DC 00000001     H   23217 23163B
 $$$443        1 00000050 00000001 A   U   23273 23270  23272
 $$$445B       1 00003818 00000001     X   23335 23342U
 $$$446F       2 00003840 00000001     H   23403 23388B
 $$$447F       2 0000392C 00000001     H   23789 23583B 23603B
 $$$447S       2 00003840 00000001     H   23410 23788B
 $$$448F       2 0000387E 00000001     H   23476 23424B
 $$$449F       2 000038AC 00000001     H   23564 23493B
 $$$450F       2 000038A8 00000001     H   23558 23524B
 $$$450T       2 00003896 00000001     H   23527 23513B
 $$$454F       2 00003928 00000001     H   23784 23639B
 $$$454T       2 000038CE 00000001     H   23642 23628B
 $$$456F       2 000038EC 00000001     H   23685 23659B 23672B
 $$$456S       2 000038D4 00000001     H   23651 23684B
1NET      (NET2025) (12:49) (15MAR04) Ordinary Symbol and Literal Cross Reference                                           Page   76
 $$$459F       2 00003904 00000001     H   23725 23699B 23712B
 $$$459S       2 000038EC 00000001     H   23691 23724B
 $$$462F       2 00003912 00000001     H   23748 23735B
 $$$463        1 00000044 00000001 A   U   23823 23820  23822
 $$$465B       1 00003956 00000001     X   23857 23864U
 $$$466F       2 00003978 00000001     H   23914 23899B
 $$$467F       2 000039BA 00000001     H   24019 23949B
 $$$467T       2 00003990 00000001     H   23952 23938B
 $$$469        1 00000050 00000001 A   U   24043 24040  24042
 $$$77B        1 00000030 00000001     X    7952  7959U
 $$$78B        4 00000044 00000001     I    8014  8027
 $$$78F        2 0000004E 00000001     H    8024  8014B  8026
 $$$79E        2 00000052 00000001     H    8034  8028
 $$$79F        2 00000058 00000001     H    8041  8030B
 $$$80B        4 00000064 00000001     I    8055  8068
 $$$80F        2 0000006E 00000001     H    8065  8055B  8067
 $$$81E        2 00000072 00000001     H    8075  8069
 $$$81F        2 00000078 00000001     H    8082  8071B
 $$$82         1 00000134 00000001 A   U    8151  8148   8150
 $$$84B        1 000000E6 00000001     X    8185  8192U
 $$$85F        2 00000160 00000001     H    8304  8271B
 $$$86F        2 0000017E 00000001     H    8357  8318B
 $$$87F        2 00000290 00000001     H    8698  8437B
 $$$87S        2 000001E8 00000001     H    8428  8697B
 $$$89F        2 00000232 00000001     H    8526  8471B
 $$$90B        4 00000258 00000001     I    8598  8618
 $$$90F        2 00000262 00000001     H    8614  8598B  8617
 $$$91E        2 00000266 00000001     H    8625  8619
 $$$91F        2 0000028C 00000001     H    8693  8621B
 $$$92F        2 0000027A 00000001     H    8650  8641B
 $$$93F        2 0000028C 00000001     H    8689  8665B
 $$$94         6 00000B80 00000001     I    8679  8671X
 $$$95         6 00000B80 00000001     I    8678  8679   8679
 $$$96F        2 000002E4 00000001     H    8760  8720B
 $$$97F        2 00000316 00000001     H    8807  8775B
 $$$98F        2 00000358 00000001     H    8883  8821B
 $$$99B        4 00000344 00000001     I    8846  8862
 $$$99F        2 0000034E 00000001     H    8859  8846B  8861
 @RAR          0 00000000 FFFFFFF0     @    1135  2160   2168B
 @R0           0 00000000 FFFFFFFE     @     706   982U
 @R1           0 00000000 FFFFFFFD     @     719   978U  2166   2167   8678   9131   9305  13699  13751  13813  13879
                                                 14808  15193  15208  15221  15384  15431  16630  16682  16744  17405
                                                 17457  17519  17882  18034  18047  18088  18426  18481  18494  18532
                                                 19087  19221  19243  19686  20036  20088  20150  20685U 20724U 20763U
                                                 20802U 20841U 20880U 21475U 21514U 21553U 21592U 21631U 21670U 22488U
                                                 22527U 22566U 22605U 22644U 22683U 23360  23492  23510  23523  23529
                                                 23580  23600  23625  23638  23671  23678  23711  23718
 @R10          0 00000000 FFFFFFF4     @     836   942U
 @R11          0 00000000 FFFFFFF3     @     849   938U
 @R12          0 00000000 FFFFFFF2     @     862   934U
 @R13          0 00000000 FFFFFFF1     @     875   930U 13497  16428  17183
 @R14          0 00000000 FFFFFFF0     @     888   926U
 @R15          0 00000000 FFFFFFEF     @     901   922U  8085  15193  18925  19390  20357  20460
 @R2           0 00000000 FFFFFFFC     @     732   974U
 @R3           0 00000000 FFFFFFFB     @     745   970U 20268U 20945U 21735U 22748U
 @R4           0 00000000 FFFFFFFA     @     758   966U 14142U 15290  15303  16908U 17683U 20498U 21298U 21995U 22239U
                                                 23252U
 @R5           0 00000000 FFFFFFF9     @     771   962U  8130U 13047  14554U 15459U 15709U 15982U 16093U 16879U 17654U
                                                 18263U 18559U 19939U 20503U
1NET      (NET2025) (12:49) (15MAR04) Ordinary Symbol and Literal Cross Reference                                           Page   77
 @R6           0 00000000 FFFFFFF8     @     784   958U  9492U 11668  13029  13046  14561U 14945U 15718U 16145U 16884U
                                                 17659U 18115U 18268U 18564U 20508U 21303U 22000U 22244U 23257U 23802U
                                                 24027U
 @R7           0 00000000 FFFFFFF7     @     797   954U  8140U  8901U  9153U  9327U  9400U  9472U  9866U 10282U 10859U
                                                 11016U 11175U 11242U 11348U 11453U 11544U 11773U 11942U 12040U 13060U
                                                 13132U 13204U 14147U 14336U 14402U 14468U 14534U 14955U 15723U 16150U
                                                 16889U 16971U 17664U 18120U 18273U 18569U 20518U 21308U 22005U 22249U
                                                 23262U 23812U 24032U
 @R8           0 00000000 FFFFFFF6     @     810   950U  8135U  8896U  9861U 10277U 10854U 14950U 20513U 23807U
 @R9           0 00000000 FFFFFFF5     @     823   946U
 ABSCENT       1 00000000 00000000 A   T    2176  2176
 ASCTBL        1 00000000 00000000 A   T    2184  2184
 BLTBL         1 00000000 00000000 A   T    2186  2186
 BR            7 00000007 00000001 A   #    1025  7947M  8180M  9012M  9186M  9360M  9433M  9521M  9906M 10322M 10955M
                                                 11142M 11208M 11275M 11381M 11486M 11582M 11869M 11981M 12081M 13098M
                                                 13170M 13299M 14303M 14369M 14435M 14501M 14620M 15000M 15766M 16268M
                                                 16937M 17013M 17762M 18166M 18312M 18665M 20563M 21353M 22049M 22366M
                                                 23330M 23852M
 CHECKIOB      1 00000000 00000000 A   T    2232  2232
 CLRFTP        2 0000133C 00000001     H   13156 13152
 CLRHOSTS      2 000005D0 00000001     H    9505  9501
 COLLOPTS      1 00000000 00000011     T   10904 10904
 COLLPSH       1 00000000 00000016     T   11834 11834
 COMMAND       1 00000000 00000000 A   T    2172  2172
 COMMSEG       1 00000000 00000000 A   T    2173  2173
 CP         4096 00000000 FFFFFFEC     J    6186  1161U
 CP#HOSTI      1 00000012 FFFFFFEC A   U    3939  8089   8700   9847   9981  10396  18857  19322  20274
 CP#XSTK       1 00000010 FFFFFFEC A   U    3918  3919
 CPACFLG       1 000005D5 FFFFFFEC     R    4021  4025   4030   4035   4040   4045
 CPACFLN       4 000005C4 FFFFFFEC     F    4013  4048   4048
 CPAFLAG       1 000005C3 FFFFFFEC     R    3985  3989   3994   3999   4004
 CPANAME       8 00000588 FFFFFFEC     C    3967  4063   4063
 CPAUTFLG      1 000008A9 FFFFFFEC     R    4331  4335   4340   4345   4350
 CPCHFLAG      1 00000B68 FFFFFFEC     R    4958  4962
 CPDELTA       4 00000738 FFFFFFEC     F    4070 14882
 CPDEVP        4 00000E58 FFFFFFEC     A    5818 13344M 14653  15021  15787  16107M 16107  16314M 17062M 18201  18347
 CPDFLG        1 0000084C FFFFFFEC     R    4218  4222   4227   4232   4237   4242
 CPDFLG2       1 0000084D FFFFFFEC     R    4247  4251   4256   4261   4266   4271   4276
 CPERRID       8 00000886 FFFFFFEC     C    4317 13584M 16515M 17290M 19913M 23644M
 CPEXFLG       1 00000758 FFFFFFEC     R    4087  4091
 CPEXFLG2      1 00000759 FFFFFFEC     R    4097  4106   4116
 CPEXFLG3      1 0000075A FFFFFFEC     R    4123  4127   4132
 CPEXTFLG      1 00000E28 FFFFFFEC     R    5769  5773   5778   5783   5788   5793   5798
 CPFABORT    128 00000D5A FFFFFFEC         5535  2136M  2136   2141M  2141
 CPFERROR     64 00000D5A FFFFFFEC         5540  2135M  2135   2140M  2140  23470M 23778M
 CPFINFOP      4 00000E54 FFFFFFEC     A    5817 16290  17035  18187  18333  18790  20627  21417  22113  22430
 CPFNECHO     64 00000C7B FFFFFFEC         5093  8560M  8587M 19589M 19616M
 CPFNTEX       1 00000040 FFFFFFEC A   U    5387  5388
 CPFRDRNG      1 00000D88 FFFFFFEC     R    5655  5659   5664   5669   5674   5679   5684   5689
 CPFRDSRC      1 00000D89 FFFFFFEC     R    5694  5703   5713   5723
 CPFSCRTC      1 00000040 FFFFFFEC A   U    5310 14097
 CPFSTMSG      8 00000C7D FFFFFFEC         5183 15516M
 CPFUNUM       1 00000080 FFFFFFEC A   U    5386  5388
 CPFXDFLG      1 000007E4 FFFFFFEC     R    4165  4169   4174
 CPGFLG1       1 00000474 FFFFFFEC     R    3528  3532   3537   3542   3547   3552   3882   3882
 CPGFLG10      1 0000047D FFFFFFEC     R    3765  3769   3774   3779   3784   3789   3794
 CPGFLG11      1 0000047E FFFFFFEC     R    3800  3804   3809
 CPGFLG12      1 0000047F FFFFFFEC     R    3815  3819   3824   3829
 CPGFLG13      1 00000480 FFFFFFEC     R    3835  3839
1NET      (NET2025) (12:49) (15MAR04) Ordinary Symbol and Literal Cross Reference                                           Page   78
 CPGFLG14      1 00000481 FFFFFFEC     R    3845  3849   3854   3859   3864   3869
 CPGFLG4       1 00000477 FFFFFFEC     R    3581  3592   3601   3610   3619   3628
 CPGFLG5       1 00000478 FFFFFFEC     R    3634  3638   3643   3648   3653   3658   3663   3668   3673
 CPGFLG6       1 00000479 FFFFFFEC     R    3679  3683   3688   3693
 CPGFLG7       1 0000047A FFFFFFEC     R    3699  3703   3708   3713   3718
 CPGFLG8       1 0000047B FFFFFFEC     R    3724  3728   3733   3738   3743
 CPGFLG9       1 0000047C FFFFFFEC     R    3749  3753   3759
 CPHOST       32 000001BD FFFFFFEC     C    2708  7900   8123M  8887M  9812   9825M  9825   9845M  9845   9959M  9959
                                                  9979   9979  10105  10110  10375M 10375  10394  10529  10591  10823
                                                 10828  10883  10889  18463  18468
 CPINIT        1 00000174 FFFFFFEC     U    2698  6155
 CPJESFLG      1 000009E1 FFFFFFEC     R    4430  4434   4439   4444   4449   4454   4459   4464   4469
 CPJESFLY      1 000009FD FFFFFFEC     R    4480  4484   4489   4494
 CPJESHFL      1 000009E0 FFFFFFEC     R    4415  4419   4424   4503   4503
 CPLCNO        4 0000073C FFFFFFEC     F    4072 15245
 CPLFLG10      1 00000D59 FFFFFFEC     R    5521  5525
 CPLFLG11      1 00000D5A FFFFFFEC     R    5531  5535   5540   5545   5550
 CPLFLG12      1 00000D5B FFFFFFEC     R    5556  5560
 CPLFLG14      1 00000D5C FFFFFFEC     R    5566  5570   5575   5580   5585   5590
 CPLFLG2       1 00000D51 FFFFFFEC     R    5308 14099M
 CPLFLG6       1 00000D55 FFFFFFEC     R    5396  5400   5405   5410   5415   5420   5425
 CPLFLG7       1 00000D56 FFFFFFEC     R    5431  5435   5440   5445   5450   5455
 CPLFLG8       1 00000D57 FFFFFFEC     R    5461  5465   5470   5475   5480
 CPLFLG9       1 00000D58 FFFFFFEC     R    5486  5490   5495   5500   5505   5510   5515
 CPLOCALZ      1 00000C48 FFFFFFEC     U    4988  6149   6149
 CPMFLG        1 0000084F FFFFFFEC     R    4285  4289
 CPMODFLG      1 00000C78 FFFFFFEC     R    5016  5020   5025   5030   5035   5040
 CPNAMELN      1 00000010 FFFFFFEC A   U    3911  4158
 CPNEDPFX     10 00000E29 FFFFFFEC     X    5802  5803   5804
 CPNSCANP      4 0000008C FFFFFFEC     A    2571  8230   8237   8250   8361   8385   8392   8408   9035   9042   9055
                                                  9209   9216   9229   9561   9568   9581   9661  10978  10985  11001
                                                 11609  11616  11632  13427  13448  13457  13464  13480  13494  16358
                                                 16379  16388  16395  16411  16425  17113  17134  17143  17150  17166
                                                 17180
 CPNUMFLG      1 00000C79 FFFFFFEC     R    5046  5058
 CPORVCMD      1 00000140 FFFFFFEC     R    2580  2584   2589   2594   2599   2604   2609   2614   2619   2624   2624
                                                  2675   2675
 CPORVFLG      1 00000149 FFFFFFEC     R    2631  2635   2640   2645   2650   2655   2660   2665   2670
 CPORVWF       1 00000150 FFFFFFEC     R    2683  2687
 CPOSCANX      4 00000CA8 FFFFFFEC     F    5215  5282   5282
 CPR          11 0000000B 00000001 A   #    1089  1161U
 CPRACBAD     16 000001FC FFFFFFEC         2749  2783   2783   2784   2784
 CPRACF1       1 000001FC FFFFFFEC     R    2730  2734   2739   2744   2749   2754   2759   2764   2769   2785
 CPRACPSW     32 000001FC FFFFFFEC         2744  2782   2782   2784   2784
 CPRACUND     64 000001FC FFFFFFEC         2739  2782   2782   2783   2783
 CPRCVCUR      4 00000730 FFFFFFEC     A    4066  4068   4068
 CPRFLG        1 000008AA FFFFFFEC     R    4356  4360   4365   4370   4375   4380   4385
 CPRG64       32 00000544 FFFFFFEC     X    3908  8090   8115   8701   8744   8752   8799   8835   9710   9786   9794
                                                  9848   9982  10003  10025  10047  10397  10425  10461  10483  18858
                                                 18942  19323  19407  20275  20374  20477
 CPS         254 00000344 FFFFFFEC     X    3500  3503   3504   3506   3506
 CPSACCT       5 000003B4 FFFFFFEC     C    3099  3262   3262
 CPSAMCOD      1 00000A22 FFFFFFEC     R    4552  4560   4570   4580   4589   4598   4607   4617   4626   4635
 CPSAMFLG      1 00000A21 FFFFFFEC     R    4512  4516   4521   4526   4531   4536   4541   4546   4657   4657
 CPSCNFLG      1 00000CD0 FFFFFFEC     R    5228  5239   5248   5259
 CPSCNF2       1 00000CD1 FFFFFFEC     R    5264  5268
 CPSCNMAX      1 00000014 FFFFFFEC A   U    5280  5281
 CPSCRI        2 00000434 FFFFFFEC     H    3489  3494   3494
 CPSEG        60 00000050 FFFFFFEC     X    2569  8289   8342   8455   8500   8518   8550   9643   9739   9767  10090
1NET      (NET2025) (12:49) (15MAR04) Ordinary Symbol and Literal Cross Reference                                           Page   79
                                                 10118  10153  10181  10220  10259  10569  10599  10634  10662  10701
                                                 10740  10769  10808  10836  11714  11736  12125  12143  12168  12193
                                                 12212  12264  12289  12314  12332  12357  12375  12400  12418  12443
                                                 12461  12486  12504  12529  12547  12572  12598  12616  12641  12676
                                                 12698  12716  12758  12781  12806  12824  12849  12874  12899  12918
                                                 12943  12968  12993  13552  13579  13718  13780  13832  13898  13953
                                                 13985  14839  14866  15240  15269  15322  15354  15537  15571  15593
                                                 15615  15645  15687  16483  16510  16649  16711  16763  16804  16836
                                                 17258  17285  17424  17486  17538  17579  17611  18987  19015  19478
                                                 19496  19524  19542  19570  19828  19881  19908  20055  20117  20169
                                                 20210  20242  23107  23147  23181  23209  23231  23442  23460  23550
                                                 23768
 CPSEGCOD      1 00000050 FFFFFFEC     R    2486  2495   2505   2515   2525   2535   2545   2555
 CPSFL         1 00000384 FFFFFFEC     R    2837  2841   2846   2851   2856   2861
 CPSFLG        1 000003F8 FFFFFFEC     R    3377  3381   3386   3391   3396   3401   3406   3411   3416
 CPSFLG2       1 000003F9 FFFFFFEC     R    3422  3426   3431   3436
 CPSFL2        1 00000385 FFFFFFEC     R    2867  2871   2876   2881   2886
 CPSFL3        1 00000386 FFFFFFEC     R    2892  2896   2901   2906
 CPSFL4        1 00000387 FFFFFFEC     R    2912  2916   2921   2926
 CPSFL5        1 00000388 FFFFFFEC     R    2932  2936   2941   2946
 CPSFOPR      16 000003BE FFFFFFEC         3207 11309  11309  11415  11415
 CPSFSPR      32 000003BE FFFFFFEC         3202 11309  11309  11310  11415  11415  11416  12012
 CPSKAFL       1 000003BF FFFFFFEC     R    3233  3237   3242   3247   3252   3257
 CPSKIFL       1 000003BE FFFFFFEC     R    3188  3192   3197   3202   3207   3212   3217   3222   3227
 CPSOF         1 000001F8 FFFFFFEC     X    2720  2722   2722
 CPSOFLAG      1 00000416 FFFFFFEC     R    3447  3451   3456   3461   3466   3471
 CPSOPST       4 000003C4 FFFFFFEC     F    3267  3496   3496
 CPSPORT       8 00000354 FFFFFFEC     C    2831  2951   2951
 CPSQFLG       1 000003EC FFFFFFEC     R    3296  3300
 CPSSFLG       1 000003BB FFFFFFEC     R    3106  3110   3115   3120   3125   3130   3135
 CPSSTART      4 00000344 FFFFFFEC     F    2823  2827   2827   3263   3263   3368   3368   3500   3500
 CPSSTAT       1 0000038F FFFFFFEC     R    3043  3047   3052   3057   3062   3067   3072   3077
 CPSTACF       1 000003BC FFFFFFEC     R    3141  3145   3150   3155   3160   3165   3170   3175   3180
 CPSTART       4 00000000 FFFFFFEC     C    2459  6153   6157
 CPSTFLAG      1 000003EA FFFFFFEC     R    3274  3278   3283   3288
 CPSTVIRT      5 0000038C FFFFFFEC         3005 14006
 CPSTYPE       1 0000038C FFFFFFEC     R    2956  2965   2975   2985   2995   3005   3015   3025   3035
 CPSUFLG       1 000003EE FFFFFFEC     R    3311  3315   3320   3325   3330   3335   3340   3345   3350
 CPSUFLG2      1 000003EF FFFFFFEC     R    3356  3360   3365
 CPSVPGM       8 0000039C FFFFFFEC     C    3089  3095   3095
 CPS1ST        4 0000038C FFFFFFEC     F    2953  3498   3498
 CPTEMPP#      1 0000005F FFFFFFEC A   U    4406  4408
 CPTRMFL1      1 00000C7A FFFFFFEC     R    5064  5068   5073   5078   5202   5202
 CPTRMFL2      1 00000C7B FFFFFFEC     R    5084  5088   5093   5098   5103   5108   5113
 CPTRMFL3      1 00000C7C FFFFFFEC     R    5119  5123   5128   5133   5138   5143   5148   5153
 CPTRMFL4      1 00000C7D FFFFFFEC     R    5159  5163   5168   5173   5178   5183   5188   5193
 CPUSED        1 00000FBC FFFFFFEC A   U    6153  6154
 CPVACURS      8 00000AF0 FFFFFFEC     D    4931  4932   4933
 CPVCURS       8 00000AE0 FFFFFFEC     D    4925  4926   4927
 CPVFLAG       1 00000AC8 FFFFFFEC     R    4726  4730   4735   4740   4745   4750
 CPVFLAG2      1 00000AC9 FFFFFFEC     R    4756  4760   4765   4770   4775   4780   4785
 CPVFLAG3      1 00000ACA FFFFFFEC     R    4791  4795   4800   4805   4810   4815   4820
 CPVFLAG4      1 00000ACB FFFFFFEC     R    4826  4830   4835   4840
 CPVLFLAG      1 00000ACE FFFFFFEC     R    4895  4899   4904   4909
 CPVMODE       1 00000ACC FFFFFFEC     R    4848  4852   4857   4862   4867   4872   4877   4882   4887
 CPVTWID       2 00000AD0 FFFFFFEC     H    4915  4918   4918
 CPWK1         4 00000D60 FFFFFFEC     F    5599  5614   5637
 CPWK2         4 00000D64 FFFFFFEC     F    5600  5615   5629
 CPWK3         4 00000D68 FFFFFFEC     F    5601  5616   5630
1NET      (NET2025) (12:49) (15MAR04) Ordinary Symbol and Literal Cross Reference                                           Page   80
 CPWK4         4 00000D6C FFFFFFEC     F    5602  5617   5631
 CPWK5         4 00000D70 FFFFFFEC     F    5603  5619   5624   5632
 CPWK6         4 00000D74 FFFFFFEC     F    5604  5620   5625   5633   5640   5642
 CPWK7         4 00000D78 FFFFFFEC     F    5605  5618   5634
 CPXFLAG       1 000007FD FFFFFFEC     R    4193  4197
 CPXSTATE      4 000007F8 FFFFFFEC     F    4187  4200   4200
 CV         4016 00000000 FFFFFFEE     J    2362  1170U
 CVABSENT      4 000007F0 FFFFFFEE     I    2151  9078B  9252B
 CVABSRTN      4 0000088C FFFFFFEE     V    2176  2151
 CVABTMSG      4 000007CC FFFFFFEE     I    2136 13125B 13197B 15365B 15698B 16964B
 CVAMYP        4 000000B4 FFFFFFEE     A    1322 12791
 CVBLANKS    235 000004D8 FFFFFFEE     C    1956  8002   8043   8096   8651   8725   8780   8826   9104   9278   9705
                                                  9977  10393  13364  13365  13612  15630  16338  16339  16543  17090
                                                 17091  17318  18851  18864  18962  19040  19258  19288  19316  19329
                                                 19427  19639  20296  20399
 CVBRMSK       1 00000751 FFFFFFEE     X    2092  2093   2094
 CVCFLAG       1 00000A00 FFFFFFEE     R    2257  2261   2266   2271   2276   2281
 CVCHKST       8 000009F0 FFFFFFEE     D    2247  2337   2337
 CVCHKST2      8 00000E28 FFFFFFEE     D    2340  2343   2343
 CVCHKUC       2 000009F4 FFFFFFEE     H    2250 11336  11337M 11441  11442M
 CVCOMRTN      4 0000087C FFFFFFEE     V    2172  2142
 CVCURJCB      4 000001C8 FFFFFFEE     A    1441 15468
 CVDBGFLG      1 000004CC FFFFFFEE     R    1946  1950
 CVENCMD       4 000002D0 FFFFFFEE     F    1557 12299
 CVENDIR       4 000002CC FFFFFFEE     F    1556 12514  17107  17108M
 CVENERL       2 000002BA FFFFFFEE     H    1550 12732
 CVENERP       4 000002DC FFFFFFEE     A    1560 12728
 CVENERR       4 000002D8 FFFFFFEE     F    1559 12657M 12657  12686
 CVENIO        4 000002D4 FFFFFFEE     F    1558 12583
 CVENREN       4 000002C8 FFFFFFEE     F    1555 12471
 CVENSAVE      4 000002C0 FFFFFFEE     F    1553 12385  13417  13418M
 CVENSCR       4 000002C4 FFFFFFEE     F    1554 12428  16352  16353M
 CVENT         4 0000074C FFFFFFEE     I    2090  7947B  8180B  9012B  9186B  9360B  9433B  9521B  9906B 10322B 10955B
                                                 11142B 11208B 11275B 11381B 11486B 11582B 11869B 11981B 12081B 13098B
                                                 13170B 13299B 14303B 14369B 14435B 14501B 14620B 15000B 15766B 16268B
                                                 16937B 17013B 17762B 18166B 18312B 18665B 20563B 21353B 22049B 22366B
                                                 23330B 23852B
 CVENTBR       2 00000750 FFFFFFEE     I    2091  2092
 CVENUSE       4 000002BC FFFFFFEE     F    1552 12342  13395  13396M
 CVERRMSG      4 000007C8 FFFFFFEE     I    2135  8300B  8353B  9654B  9778B 11747B
 CVERROR       4 000007D6 FFFFFFEE     I    2140  2156B
 CVETRCP       4 000002B4 FFFFFFEE     A    1548 11518
 CVEXIRTN      4 0000077C FFFFFFEE     V    2120  2116
 CVEXNO        1 00000000 00000026     T   16201 16201
 CVFCHRKBPR
               8 000004C9 FFFFFFEE         1861  1877   1877
 CVFCHRKBSE
               4 000004C9 FFFFFFEE         1866  1877   1877
 CVFCHRKCPR
               2 000004C9 FFFFFFEE         1883  1899   1899
 CVFCHRKCSE
               1 000004C9 FFFFFFEE         1888  1899   1899
 CVFCHRUBPR
             128 000004C9 FFFFFFEE         1817  1833   1833
 CVFCHRUBSE
              64 000004C9 FFFFFFEE         1822  1833   1833
 CVFCHRUCPR
              32 000004C9 FFFFFFEE         1839  1855   1855
 CVFCHRUCSE
1NET      (NET2025) (12:49) (15MAR04) Ordinary Symbol and Literal Cross Reference                                           Page   81
              16 000004C9 FFFFFFEE         1844  1855   1855
 CVFL          1 000004C4 FFFFFFEE     R    1613  1617   1622   1627   1632   1637   1642   1647   1652
 CVFL2         1 000004C5 FFFFFFEE     R    1658  1662   1667   1672   1677   1682   1687   1692   1697
 CVFL3         1 000004C6 FFFFFFEE     R    1703  1707   1712   1717   1722   1727   1732   1737   1742
 CVFL4         1 000004C7 FFFFFFEE     R    1748  1752   1757   1762   1767   1772   1777   1782
 CVFL5         1 000004C8 FFFFFFEE     R    1788  1792   1797   1802   1807
 CVFL6         1 000004C9 FFFFFFEE     R    1813  1817   1822   1834   1839   1844   1856   1861   1866   1878   1883
                                                  1888   1900
 CVFNONET     16 00000A00 FFFFFFEE         2276 11331M 11436M 12230
 CVFNTRC       2 000004C4 FFFFFFEE         1647 11168M 11235M
 CVHEAP#       1 00000200 FFFFFFEE A   U    1519  1520
 CVINVRTN      4 00000888 FFFFFFEE     V    2175  2145
 CVJESFLG      1 000004CA FFFFFFEE     R    1906  1910
 CVLNKRGS      4 00000780 FFFFFFEE     F    2122  2097M  2123  14688M 15056M 15083M 15822M 18737M 18781M 19968M 20618M
                                                 21408M 22104M 22421M 23396M 23907M
 CVLNKRTN      4 000007B0 FFFFFFEE     U    2123  2112M
 CVLOCK1       1 00000088 FFFFFFEE     R    1264  1268   1273
 CVLOCK2       1 00000089 FFFFFFEE     R    1278  1282
 CVLOCK3       1 0000008A FFFFFFEE     R    1287  1291
 CVLOCK4       1 0000008B FFFFFFEE     R    1296  1300
 CVLOGMOD      1 00000068 FFFFFFEE     R    1251  1255
 CVLOWTBL      4 000008AC FFFFFFEE     V    2183  8084
 CVMACH        1 00000067 FFFFFFEE     R    1211  1215   1220   1225   1230   1235   1240   1245
 CVMILRTN      4 00000884 FFFFFFEE     V    2174  2154
 CVNET#        1 000001F4 FFFFFFEE A   N    1316 13238
 CVNETP        4 000000A8 FFFFFFEE     A    1317 11665  12928  13000
 CVNEXT        4 000007DE FFFFFFEE     I    2142  8889B  9831B  9854B 10269B 10846B 11008B 11753B 11766B 12032B
 CVNOARTN      4 00000890 FFFFFFEE     V    2177  2148
 CVNWDATE      4 00000608 FFFFFFEE     F    1979  1983   1983
 CVNWMPG#      1 00000008 FFFFFFEE A   U    1981  1982
 CVNXTMSG      4 000007D0 FFFFFFEE     I    2137  9969B 10385B
 CVPFXRTN      1 00000000 00000000 A   T    2120  2120
 CVPGFLAG      1 00000A01 FFFFFFEE     R    2287  2291   2296   2301
 CVPIOSZ       1 00004F80 FFFFFFEE A   U    1350  1352
 CVPPDBQH      4 0000009C FFFFFFEE     A    1308  1309
 CVPSFNO       1 000003E9 FFFFFFEE A   N    1472  1474
 CVPSLNO       1 000007CF FFFFFFEE A   N    1473  1474
 CVPXSZ        1 00000008 FFFFFFEE A   U    1351  1352
 CVR          12 0000000C 00000001 A   #    1102  1170U
 CVRKEY        1 00000008 FFFFFFEE A   U    2045  2046
 CVSEGRTN      4 00000880 FFFFFFEE     V    2173  2137
 CVSTACK#      1 00000080 FFFFFFEE A   U    1511  1512
 CVSTART       4 00000000 FFFFFFEE     C    1184  2355
 CVTAMYP       4 000000B8 FFFFFFEE     A    1323 12834
 CVTRC         4 00000768 FFFFFFEE     I    2112  2098B 14689B 15057B 15084B 15823B 18738B 18782B 19969B 20619B 21409B
                                                 22105B 22422B 23397B 23908B
 CVTRCRTN      4 00000778 FFFFFFEE     V    2119  2113
 CVUPPTBL      4 000008A8 FFFFFFEE     V    2182 18924  19389  20356  20459
 CVUSFNO       1 00000001 FFFFFFEE A   N    1479  1481
 CVUSLNO       1 000003E7 FFFFFFEE A   N    1480  1481
 CVVOL#        1 00000005 FFFFFFEE A   U    2330  2331
 CVWTOFLG      1 000004CB FFFFFFEE     R    1916  1920   1925   1930   1935   1940
 CVWYLSSN      8 00000028 FFFFFFEE     C    1196 12112  12117
 DEBUGSG       1 00000000 00000000 A   T    2073  2073
 DEV          12 00000000 FFFFFFEB     J    4711  4719
 DEVMAX#       1 00000002 FFFFFFEC A   U    4662  4719
 DEVTYPE       1 00000001 FFFFFFEB     R    4679  4688   4698
 DISPUNET      1 00000000 00000018     T   13234 13234
 DOTTBL        1 00000000 00000000 A   T    2189  2189
1NET      (NET2025) (12:49) (15MAR04) Ordinary Symbol and Literal Cross Reference                                           Page   82
 DRENCFLG      1 00000F9F FFFFFFEC     R    6117  6121   6126   6131   6136   6141
 DRENPROT      1 00000F9E FFFFFFEC     R    6104  6112
 DSNFSTAT      8 00000F37 FFFFFFEC         5916 14017M
 DSNLCNT       4 00000F50 FFFFFFEC     F    6066 15525
 DSNLTOT       4 00000F54 FFFFFFEC     F    6067 15552M 15552  15581
 DSNON        40 00000E90 FFFFFFEC     C    5837  5838
 DSNWADSN     44 00000E5C FFFFFFEC     C    5824  5825   5826   5827   5836   5844   6075   6081   6083   6089   6092
                                                  6094   6097   6146
 DSNWAF4       1 00000F37 FFFFFFEC     R    5892  5896   5901   5906   5911   5916   5921   5926   5931
 DSNWAF5       1 00000F38 FFFFFFEC     R    5937  5941   5946   5951   5956   5961   5966   5971   5976
 DSNWAF6       1 00000F39 FFFFFFEC     R    5982  5986   5991   5996   6001   6006   6011   6016   6021
 DSNWAF7       1 00000F3A FFFFFFEC     R    6027  6031   6036   6041   6046
 DSNXG         1 00000004 FFFFFFEC A   U    5829  5831
 DSNXGL        1 00000003 FFFFFFEC A   U    5830  5831
 DSNXU         1 00000007 FFFFFFEC A   U    5831  5833
 DSNXUL        1 00000004 FFFFFFEC A   U    5832  5833
 DSSIZ         1 00000108 FFFFFFEC A   U    6075  6083   6092   6097
 EBCTBL        1 00000000 00000000 A   T    2185  2185
 EBCTBL7       1 00000000 00000000 A   T    2188  2188
 ECBLIST       1 00000000 00000000 A   T    2048  2048
 EPARTBL       1 00000000 00000000 A   T    2180  2180
 FFFAPPD       4 00000001 FFFFFFE4         7624 14068  21850
 FFFREAD       1 00000001 FFFFFFE4         7604 13384
 FFFREPL       8 00000001 FFFFFFE4         7634 14080
 FFFWRITE      2 00000001 FFFFFFE4         7614 14056
 FFHOST      128 00000090 FFFFFFE4     C    7727  7803  17972M 18378
 FFHOSTL       4 0000008C FFFFFFE4     F    7726 17938M 17938  17945M 18383
 FFINFO      928 00000000 FFFFFFE4     J    7742 13328U 16298U 17043U 17793U 18197U 18343U 18800U 20637U 21427U 22123U
                                                 22440U
 FFMISC        1 00000002 FFFFFFE4     R    7639  7643   7648   7653   7658   7663
 FFNAME      128 0000000C FFFFFFE4     C    7725  7800  17827  17850  18002
 FFNAMEL       4 00000008 FFFFFFE4     F    7724 17196M 17196  17799  17855  18007
 FFOPTS      256 00000114 FFFFFFE4     C    7729 13441  16372  17127
 FFOPTSL       4 00000110 FFFFFFE4     F    7728 13446  16377  17132
 FFPHOST     128 00000320 FFFFFFE4     C    7735 17972
 FFPHOSTL      4 0000031C FFFFFFE4     F    7734 17944
 FFPNAME     128 0000029C FFFFFFE4     C    7733 17916
 FFPNAMEL      4 00000298 FFFFFFE4     F    7732 17888
 FFPTYPE       1 00000003 FFFFFFE4     R    7668  7677   7687   7697   7707   7717
 FFRNAME     128 00000218 FFFFFFE4     C    7731 17827M 17916M 18088M 18244
 FFRNAMEL      4 00000214 FFFFFFE4     F    7730 17800M 17889M 18060M 18216
 FFRQTYPE      1 00000001 FFFFFFE4     R    7595  7604   7614   7624   7634
 FFTYPE        1 00000000 FFFFFFE4     R    7541  7550   7560   7570   7580   7590
 FOPFASKPASS
              64 00000000 FFFFFFE0        18628 19438M 20393
 FOPFASKUSER
             128 00000000 FFFFFFE0        18623 18973M 19453  20290
 FOPFLAG       1 00000000 FFFFFFE0     R   18619 18623  18628
 FOPKEY       64 00000001 FFFFFFE0     C   18632 18864M 18865M 18912M 18925M 18927  19329M 19330M 19377M 19390M 19392
                                                 20296M 20297M 20344M 20357M 20359  20399M 20400M 20447M 20460M 20462
                                                 22279
 FOPTEMP      16 00000041 FFFFFFE0     C   18634 19257M 19258M 19270
 FOPWA        81 00000000 FFFFFFE0     J   18641 18662  18691U 18701M 18701  20526  20528  20529
 FRDCOMP       1 00000000 FFFFFFDF     X   23300 23580
 FRDOPT        3 00000000 FFFFFFDF     C   23299 23300  23360M
 FRDWA         3 00000000 FFFFFFDF     J   23307 23327  23356U 23820  23822  23823
 FREEETRC      1 00000000 00000017     T   13231 13231
 FSR           0 00000000 00000001 A   #    1012  7941   8148M  8174   8909M  9007   9161M  9181   9335M  9355   9408M
                                                  9428   9480M  9515   9874M  9900  10290M 10316  10867M 10950  11024M
1NET      (NET2025) (12:49) (15MAR04) Ordinary Symbol and Literal Cross Reference                                           Page   83
                                                 11137  11183M 11203  11250M 11270  11356M 11376  11461M 11481  11552M
                                                 11577  11781M 11864  11931M 11950M 11976  12048M 12076  13068M 13093
                                                 13140M 13165  13212M 13294  14155M 14298  14344M 14364  14410M 14430
                                                 14476M 14496  14542M 14614  14934M 14963M 14995  15731M 15761  16158M
                                                 16263  16897M 16932  16979M 17008  17672M 17757  18128M 18161  18281M
                                                 18307  18577M 18659  20526M 20558  21316M 21348  22013M 22044  22257M
                                                 22361  23270M 23847  24040M
 FTPCLOSE      2 0000393C 00000001     H   23838 16209
 FTPDEXIT      2 000037F0 00000001     H   23248 22758B 23060B 23112B
 FTPDIR        2 0000353E 00000001     H   22352 17713
 FTPOEXIT      2 00002E38 00000001     H   20494 18814B 19034B 19209B 19628B 19833B 19915B 20248B
 FTPOPEN       2 000028F2 00000001     H   18649 16194  17710
 FTPPORT#      1 00000015 00000001 A   N    7836 16189  17706
 FTPREAD       2 000037FE 00000001     H   23315 22277  24061
 FTPREXIT      2 0000392E 00000001     H   23798 23472B 23780B
 FTPRLOOP      2 00003840 00000001     H   23407 23560B
 FTPSAVE       2 0000307E 00000001     H   21339 16195
 FTPSCR        2 0000327E 00000001     H   22035 17711
 FTPSEXIT      2 00003270 00000001     H   21991 21745B 21829B 21965B 21979B
 FTPUEXIT      2 00003070 00000001     H   21294 20955B 21039B
 FTPUSE        2 00002E46 00000001     H   20549 16196
 FTPXEXIT      2 0000330A 00000001     H   22235 22226B
 GETHEAP       1 00000000 0000001E     T   16178 16178  17695
 HEXDUMP       1 00000000 0000001B     T   13244 13244
 HIBAL         1 00000000 FFFFFFFF     J     691   707    720    733    746    759    772    785    798    811    824
                                                   837    850    863    876    889    902
 HOSFDCUR     32 00000000 FFFFFFE2         7896 10545M 10789
 HOSFNOUNIX
              64 00000000 FFFFFFE2         7891  8845   9393M  9465M
 HOSFUNIX    128 00000000 FFFFFFE2         7886  8820   9386M  9459M 10069M 10239  10505M 10720
 HOSTDATA     64 000000A1 FFFFFFE2     C    7906 10041  10046  10477  10482
 HOSTFLAG      1 00000000 FFFFFFE2     R    7882  7886   7891   7896
 HOSTHOST     32 00000001 FFFFFFE2     C    7900  8002M  8020M  8037M  8098   8098   8123   8370   8377   8537   8542
                                                  8727   8727   8782   8782   8828   8828   8887   9670   9677   9699M
                                                  9699   9707   9707   9754   9759   9812
 HOSTINIT      2 00000016 00000001     H    7931  7927
 HOSTKEY      64 00000061 FFFFFFE2     C    7904  8096M  8097M  8098M  8100   8725M  8726M  8727M  8729   8750M  8751
                                                  8780M  8781M  8782M  8784   8826M  8827M  8828M  8830   9705M  9706M
                                                  9707M  9709   9784M  9785   9792M  9793   9977M  9978M  9979M  9988
                                                 10009M 10010  10031M 10032  10393M 10394M 10409M 10410  10445M 10446
                                                 10467M 10468  10529  10584
 HOSTPASS     32 00000041 FFFFFFE2     C    7902  8436   8610M  8610   8651M  8678M  8774M  8774   8793   8798   9278M
                                                  9305M 10019  10024  10201M 10201  10455  10460  10682M 10682  10897
 HOSTUSER     32 00000021 FFFFFFE2     C    7901  8043M  8061M  8078M  8085M  8109   8114   8470M  8470   8487   8492
                                                  8719M  8719   8738   8743   9104M  9131M  9997  10002  10134M 10134
                                                 10168  10173  10419  10424  10615M 10615  10649  10654  10900
 HOSTWA      225 00000000 FFFFFFE2     J    7913  7944   7973U  7983M  7983   8148   8150   8151   8177   8206U  8210
                                                  8218U  8226M  8226   8909   8911   8912   9518   9547U  9557M  9557
                                                  9874   9876   9877   9903   9932U  9942M  9942  10290  10292  10293
                                                 10319  10348U 10358M 10358  10867  10869  10870
 INVALID       1 00000000 00000000 A   T    2175  2175
 JCB         208 00000000 FFFFFFE9     J    6578 15478U
 JCBAFL        1 00000062 FFFFFFE9     R    6423  6427   6432   6437   6442   6447   6452   6457   6462
 JCBBFL        1 00000063 FFFFFFE9     R    6468  6472   6477   6482   6487   6492   6497   6502
 JCBBILLX      8 00000088 FFFFFFE9     D    6553  6561   6561
 JCBFATTN      2 00000062 FFFFFFE9         6457 15492  15504M
 JCBRSCF1      1 00000064 FFFFFFE9     R    6508  6512   6517   6522
 JCBSFLG1      1 00000065 FFFFFFE9     R    6528  6532   6537
 JCBWFL        1 00000060 FFFFFFE9     R    6352  6356   6361   6366   6371   6376   6381   6386   6391   6419
1NET      (NET2025) (12:49) (15MAR04) Ordinary Symbol and Literal Cross Reference                                           Page   84
 JCBWWFL       1 00000061 FFFFFFE9     R    6397  6401   6406   6411   6416
 KWR         504 00000000 FFFFFFE8     J    6789  7995U
 KWRDSTRT      1 00000005 FFFFFFE8     U    6600  6762   6762
 KWRNETH      32 000001CC FFFFFFE8     C    6759  8013M  8013   8020   8020
 KWRNETU      16 000001BC FFFFFFE8     C    6758  8054M  8054   8061   8061
 KWRSTART      4 00000000 FFFFFFE8     F    6595  6776
 KWRUSER       3 00000000 FFFFFFE8     C    6596  6598   6598
 LOWTBL        1 00000000 00000000 A   T    2183  2183
 LRTRIM        1 00000000 0000000E     T   10896 10896  18591  22284
 LSR           8 00000008 00000001 A   #    1050  7941   8148M  8174   8909M  9007   9161M  9181   9335M  9355   9408M
                                                  9428   9480M  9515   9874M  9900  10290M 10316  10867M 10950  11024M
                                                 11137  11183M 11203  11250M 11270  11356M 11376  11461M 11481  11552M
                                                 11577  11781M 11864  11950M 11976  12048M 12076  13068M 13093  13140M
                                                 13165  13212M 13294  14155M 14298  14344M 14364  14410M 14430  14476M
                                                 14496  14542M 14614  14963M 14995  15731M 15761  16158M 16263  16897M
                                                 16932  16979M 17008  17672M 17757  18128M 18161  18281M 18307  18577M
                                                 18659  20526M 20558  21316M 21348  22013M 22044  22257M 22361  23270M
                                                 23324  23820M 23847  24040M
 MALL          1 00000000 00000003     T    8991  8991  11121  11848  14240  14260  14280
 MARKHEAP      1 00000000 0000001D     T   16177 16177  17694
 MILERR        1 00000000 00000000 A   T    2174  2174
 MINT          1 00000000 00000015     T   11803 11803
 MTOKEN        1 00000000 00000002     T    8931  8931   8946   8961   8976  11046  11061  11076  11091  11106  11818
                                                 14180  14195  14210  14225
 NBLTBL        1 00000000 00000000 A   T    2187  2187
 NETCLOSE      2 00001CD0 00000001     H   15752 15748
 NETDEXIT      2 00002594 00000001     H   17650 17292B 17617B
 NETDIR        2 00002322 00000001     H   16999 16995
 NETDISP       2 0000102C 00000001     H   12067 12063  13237
 NETOEXIT      2 000017F4 00000001     H   14138 13586B 13991B
 NETOPEN       2 00001520 00000001     H   13285 13281
 NETREAD       2 000019CC 00000001     H   14604 14600
 NETREN        2 000022EE 00000001     H   16923 16919
 NETRESLV      2 00002730 00000001     H   17748 17744
 NETREXIT      2 00001AA0 00000001     H   14890 14815B 14872B
 NETSCR        2 00002090 00000001     H   16254 16250
 NETSEXIT      2 000022E0 00000001     H   16875 16517B 16842B
 NETWA       380 00000000 FFFFFFE3     J    7829 13353U 13361M 13361  13362M 13362  13363M 14663U 14679  15031U 15047
                                                 15797U 15813  16100M 16211  16325U 16335M 16335  16336M 16336  16337M
                                                 17073U 17087M 17087  17088M 17088  17089M 17714  18211U 18357U 18712U
                                                 18728  20593U 20609  21383U 21399  22079U 22095  22396U 22412  23371U
                                                 23387  23882U 23898
 NETWRITE      2 00001AD6 00000001     H   14986 14982
 NET2025       1 00000000 00000001     R    1002  1000
 NOACTION      1 00000000 00000000 A   T    2177  2177
 NOTVALID      1 00000000 00000004     T    8992  8992  11122  11849  13230  14241  14261  14281
 NPARTBL       1 00000000 00000000 A   T    2181  2181
 NPATALLO      1 00000000 00000020     T   16185 16185  17702  22290
 NPATCLS       1 00000000 0000002B     T   16208 16208  22297
 NPATCTRL      1 00000000 0000002A     T   16207 16207
 NPATOPEN      1 00000000 00000021     T   16190 16190  17707  22291
 NPATREAD      1 00000000 00000023     T   16197 16197  24063
 NPATWAIT      1 00000000 0000002D     T   22299 22299
 NPATXRD       1 00000000 00000024     T   16198 16198
 NRDLEN        4 00000004 FFFFFFE1     F   14587 14651M 14906
 NRDLOC        4 00000000 FFFFFFE1     F   14586 14650M 14905  14931
 NRDWA         8 00000000 FFFFFFE1     J   14594 14617  14646U 14963  14965  14966
 NRESOLVE      1 00000000 0000001F     T   16182 16182  17699
 NSCAN         1 00000000 0000000B     T   10892 10892  13229  16180  17697
1NET      (NET2025) (12:49) (15MAR04) Ordinary Symbol and Literal Cross Reference                                           Page   85
 NSCANSTR      1 00000000 00000007     T   10886 10886
 NSCASCII      2 00001948 00000001     H   14355 14196
 NSCGUEST      2 0000191C 00000001     H   14289 14181
 NSCNCB      176 00000000 FFFFFFED     J    2446  2572   8238   8239   8240   8243M  8253M  8254M  8255M  8393   8394
                                                  8395   8398M  8399M  8401M  8411M  8412M  8413M  9043   9044   9045
                                                  9048M  9058M  9059M  9060M  9217   9218   9219   9222M  9232M  9233M
                                                  9234M  9569   9570   9571   9574M  9584M  9585M  9586M 10986  10987
                                                 10988  10991M 10992M 10994M 11004M 11005M 11006M 11617  11618  11619
                                                 11622M 11623M 11625M 11635M 11636M 11637M 13428  13430  13449M 13450M
                                                 13465  13466  13467  13470M 13471M 13473M 13483M 13484M 13485M 13497
                                                 16213  16359  16361  16380M 16381M 16396  16397  16398  16401M 16402M
                                                 16404M 16414M 16415M 16416M 16428  17114  17116  17135M 17136M 17151
                                                 17152  17153  17156M 17157M 17159M 17169M 17170M 17171M 17183  17716
 NSCNFLGS      1 00000008 FFFFFFED     R    2383  2387   2392
 NSCNKWS       4 00000028 FFFFFFED     A    2432  8238   8243M  8253M  8393   8401M  8411M  9043   9048M  9058M  9217
                                                  9222M  9232M  9569   9574M  9584M 10986  10994M 11004M 11617  11625M
                                                 11635M 13465  13473M 13483M 16396  16404M 16414M 17151  17159M 17169M
 NSCNLEN       4 00000004 FFFFFFED     F    2380 13450M 16381M 17136M
 NSCNLOC       4 00000000 FFFFFFED     A    2379 13449M 16380M 17135M
 NSCNSKIP      4 00000024 FFFFFFED     A    2431  8239   8254M  8394   8398M  8412M  9044   9059M  9218   9233M  9570
                                                  9585M 10987  10991M 11005M 11618  11622M 11636M 13466  13470M 13484M
                                                 16397  16401M 16415M 17152  17156M 17170M
 NSCNSTOP      4 00000020 FFFFFFED     A    2430  8240   8255M  8395   8399M  8413M  9045   9060M  9219   9234M  9571
                                                  9586M 10988  10992M 11006M 11619  11623M 11637M 13467  13471M 13485M
                                                 16398  16402M 16416M 17153  17157M 17171M
 NSCNTYPE      1 00000018 FFFFFFED     R    2401  2405   2410   2415   2420   2425
 NSCTABS       2 000019A0 00000001     H   14487 14211
 NSCTRANS      2 00001974 00000001     H   14421 14226
 NTRCDISP      1 00000000 0000001A     T   13239 13239
 NWADNETP      4 00000168 FFFFFFE3     A    7816 14731  15399  15842  19923M 20646  21173  21190M 21190  21436  21974
                                                 22449  23078
 NWADPRT       4 000018F4 00000001     F   14269 17712
 NWADSG        4 0000016C FFFFFFE3     A    7817 15128  15143  15441  19977M
 NWAFASCII
              64 00000005 FFFFFFE3         7785 14395M 14719
 NWAFGUEST
             128 00000005 FFFFFFE3         7780 14329M 18827
 NWAFLAG       1 00000004 FFFFFFE3     R    7762  7766   7771
 NWAFLAG2      1 00000005 FFFFFFE3     R    7776  7780   7785   7790   7795
 NWAFNAME    128 0000000C FFFFFFE3     X    7800 18244M 21072  21896  22157  22819  23196
 NWAFNAMEL
               4 00000008 FFFFFFE3     F    7799 18217M 21077  21901  22162  22789M 22789  22824  22924M 22924  23162M
                                                 23162  23201
 NWAFOPEN    128 00000004 FFFFFFE3         7766 14043M 15998  16010M 21201M
 NWAFTABS     16 00000005 FFFFFFE3         7795 14527M 19992
 NWAFTRAN     32 00000005 FFFFFFE3         7790 14461M 14741  14764  15105  20968  21758
 NWAFWR       64 00000004 FFFFFFE3         7771 14091M 15892
 NWAHOST     128 00000090 FFFFFFE3     X    7803 13659  13767  13845  13911  16590  16698  17365  17473  18426M 18532M
                                                 18912  19377  20104  20344  20447
 NWAHOSTL      4 0000008C FFFFFFE3     F    7802 13613  13772  13850  13916  16544  16703  17319  17478  18368M 18368
                                                 18398M 18504M 18866  19331  20109  20298  20401
 NWALIKAD      4 00000110 FFFFFFE3     A    7805 17094M 22873  22968
 NWALIKLN      4 00000114 FFFFFFE3     F    7806 17093M 22845M 22845  22878  22940M 22940  22973
 NWALNO        4 00000170 FFFFFFE3     F    7819 14881  14883M 14932
 NWANHEAP      4 00000178 FFFFFFE3     A    7822 13372M 16123  16346M 17101M
 NWANPASS     32 00000140 FFFFFFE3     C    7811 13365M 16339M 17091M 19288  19294M 19316  19401  19406  19427  19639M
                                                 19686M 19733  19738  20471  20476  22273  22289
 NWANUSER     32 00000120 FFFFFFE3     C    7810 13364M 16338M 17090M 18833M 18851  18936  18941  18962  19040M 19087M
                                                 19134  19139  19257  19511  19516  20368  20373  22271  22285
1NET      (NET2025) (12:49) (15MAR04) Ordinary Symbol and Literal Cross Reference                                           Page   86
 NWAOHEAP      4 00000174 FFFFFFE3     A    7821 13367M 16129  16341M 17096M
 NWAOPRT       4 00001804 00000001     F   14169 16179
 NWASPRT       4 000018CC 00000001     F   14249 17696
 NWAUNETP      4 00000160 FFFFFFE3     A    7813 13594M 16031  16525M 17300M 18746  19978  23412
 NWAUSG        4 00000164 FFFFFFE3     A    7814 13610M 16541M 17316M 19119  19145  19167  19189  19718  19744  19766
                                                 19788  20671  20695  20710  20734  20749  20773  20788  20812  20827
                                                 20851  20866  20890  20912  20934  20984  21006  21028  21057  21083
                                                 21106  21128  21212  21234  21256  21461  21485  21500  21524  21539
                                                 21563  21578  21602  21617  21641  21656  21680  21702  21724  21774
                                                 21796  21818  21881  21907  21930  21952  22142  22168  22191  22213
                                                 22474  22498  22513  22537  22552  22576  22591  22615  22630  22654
                                                 22669  22693  22715  22737  22772  22805  22830  22861  22884  22899
                                                 22956  22979  22994  23025  23047  23967  23989  24011
 RAR          14 0000000E 00000001 A   #    1128  2112   2113M  2114B  2116M  2117B  2137M  2138B  2142M  2143B  2145M
                                                  2146B  2148M  2149B  2151M  2152B  2154M  2155M  2155B  2161   7938
                                                  8093M  8094M  8094B  8118M  8119M  8119B  8150M  8153B  8171   8246M
                                                  8247M  8247B  8260M  8261M  8261B  8292M  8293M  8293B  8345M  8346M
                                                  8346B  8380M  8381M  8381B  8404M  8405M  8405B  8418M  8419M  8419B
                                                  8458M  8459M  8459B  8503M  8504M  8504B  8521M  8522M  8522B  8553M
                                                  8554M  8554B  8579M  8580M  8580B  8629M  8630M  8630B  8704M  8705M
                                                  8705B  8747M  8748M  8748B  8755M  8756M  8756B  8802M  8803M  8803B
                                                  8854M  8855M  8855B  8874M  8875M  8875B  8911M  8914B  9004   9051M
                                                  9052M  9052B  9065M  9066M  9066B  9163M  9166B  9178   9225M  9226M
                                                  9226B  9239M  9240M  9240B  9337M  9340B  9352   9410M  9413B  9425
                                                  9482M  9485B  9512   9577M  9578M  9578B  9591M  9592M  9592B  9646M
                                                  9647M  9647B  9680M  9681M  9681B  9713M  9714M  9714B  9742M  9743M
                                                  9743B  9770M  9771M  9771B  9789M  9790M  9790B  9797M  9798M  9798B
                                                  9851M  9852M  9852B  9876M  9879B  9897   9946M  9947M  9947B  9985M
                                                  9986M  9986B 10006M 10007M 10007B 10028M 10029M 10029B 10050M 10051M
                                                 10051B 10093M 10094M 10094B 10121M 10122M 10122B 10156M 10157M 10157B
                                                 10184M 10185M 10185B 10223M 10224M 10224B 10262M 10263M 10263B 10292M
                                                 10295B 10313  10362M 10363M 10363B 10400M 10401M 10401B 10428M 10429M
                                                 10429B 10464M 10465M 10465B 10486M 10487M 10487B 10572M 10573M 10573B
                                                 10602M 10603M 10603B 10637M 10638M 10638B 10665M 10666M 10666B 10704M
                                                 10705M 10705B 10743M 10744M 10744B 10772M 10773M 10773B 10811M 10812M
                                                 10812B 10839M 10840M 10840B 10869M 10872B 10947  10997M 10998M 10998B
                                                 11026M 11029B 11134  11185M 11188B 11200  11252M 11255B 11267  11319M
                                                 11320M 11320B 11358M 11361B 11373  11425M 11426M 11426B 11463M 11466B
                                                 11478  11527M 11528M 11528B 11554M 11557B 11574  11628M 11629M 11629B
                                                 11642M 11643M 11643B 11684M 11685M 11685B 11717M 11718M 11718B 11739M
                                                 11740M 11740B 11764M 11765M 11765B 11783M 11786B 11861  11923M 11924M
                                                 11924B 11952M 11955B 11973  12021M 12022M 12022B 12030M 12031M 12031B
                                                 12050M 12053B 12073  12128M 12129M 12129B 12146M 12147M 12147B 12171M
                                                 12172M 12172B 12196M 12197M 12197B 12215M 12216M 12216B 12267M 12268M
                                                 12268B 12292M 12293M 12293B 12317M 12318M 12318B 12335M 12336M 12336B
                                                 12360M 12361M 12361B 12378M 12379M 12379B 12403M 12404M 12404B 12421M
                                                 12422M 12422B 12446M 12447M 12447B 12464M 12465M 12465B 12489M 12490M
                                                 12490B 12507M 12508M 12508B 12532M 12533M 12533B 12550M 12551M 12551B
                                                 12575M 12576M 12576B 12601M 12602M 12602B 12619M 12620M 12620B 12644M
                                                 12645M 12645B 12679M 12680M 12680B 12701M 12702M 12702B 12719M 12720M
                                                 12720B 12736M 12737M 12737B 12761M 12762M 12762B 12784M 12785M 12785B
                                                 12809M 12810M 12810B 12827M 12828M 12828B 12852M 12853M 12853B 12877M
                                                 12878M 12878B 12902M 12903M 12903B 12921M 12922M 12922B 12946M 12947M
                                                 12947B 12971M 12972M 12972B 12996M 12997M 12997B 13039M 13040M 13040B
                                                 13070M 13073B 13090  13142M 13145B 13162  13214M 13217B 13291  13335M
                                                 13336M 13336B 13342M 13343M 13343B 13370M 13371M 13371B 13476M 13477M
                                                 13477B 13490M 13491M 13491B 13502M 13503M 13503B 13508M 13509M 13509B
                                                 13512M 13513M 13513B 13523M 13524M 13524B 13555M 13556M 13556B 13582M
                                                 13583M 13583B 13676M 13677M 13677B 13721M 13722M 13722B 13783M 13784M
1NET      (NET2025) (12:49) (15MAR04) Ordinary Symbol and Literal Cross Reference                                           Page   87
                                                 13784B 13835M 13836M 13836B 13853M 13854M 13854B 13901M 13902M 13902B
                                                 13919M 13920M 13920B 13956M 13957M 13957B 13988M 13989M 13989B 14025M
                                                 14026M 14026B 14102M 14103M 14103B 14124M 14125M 14125B 14157M 14160B
                                                 14295  14346M 14349B 14361  14412M 14415B 14427  14478M 14481B 14493
                                                 14544M 14547B 14611  14749M 14750M 14750B 14772M 14773M 14773B 14842M
                                                 14843M 14843B 14869M 14870M 14870B 14965M 14968B 14992  15131M 15132M
                                                 15132B 15146M 15147M 15147B 15243M 15244M 15244B 15248M 15249M 15249B
                                                 15272M 15273M 15273B 15325M 15326M 15326B 15357M 15358M 15358B 15392M
                                                 15393M 15393B 15444M 15445M 15445B 15540M 15541M 15541B 15574M 15575M
                                                 15575B 15596M 15597M 15597B 15618M 15619M 15619B 15648M 15649M 15649B
                                                 15657M 15658M 15658B 15690M 15691M 15691B 15733M 15736B 15758  15937M
                                                 15938M 15938B 15958M 15959M 15959B 15965M 15966M 15966B 15975M 15976M
                                                 15976B 16013M 16014M 16014B 16076M 16077M 16077B 16086M 16087M 16087B
                                                 16110M 16111M 16111B 16132M 16133M 16133B 16160M 16163B 16260  16305M
                                                 16306M 16306B 16312M 16313M 16313B 16344M 16345M 16345B 16407M 16408M
                                                 16408B 16421M 16422M 16422B 16433M 16434M 16434B 16439M 16440M 16440B
                                                 16443M 16444M 16444B 16454M 16455M 16455B 16486M 16487M 16487B 16513M
                                                 16514M 16514B 16607M 16608M 16608B 16652M 16653M 16653B 16714M 16715M
                                                 16715B 16766M 16767M 16767B 16807M 16808M 16808B 16839M 16840M 16840B
                                                 16850M 16851M 16851B 16865M 16866M 16866B 16899M 16902B 16929  16981M
                                                 16984B 17005  17050M 17051M 17051B 17060M 17061M 17061B 17099M 17100M
                                                 17100B 17162M 17163M 17163B 17176M 17177M 17177B 17205M 17206M 17206B
                                                 17210M 17211M 17211B 17218M 17219M 17219B 17229M 17230M 17230B 17261M
                                                 17262M 17262B 17288M 17289M 17289B 17382M 17383M 17383B 17427M 17428M
                                                 17428B 17489M 17490M 17490B 17541M 17542M 17542B 17582M 17583M 17583B
                                                 17614M 17615M 17615B 17625M 17626M 17626B 17640M 17641M 17641B 17674M
                                                 17677B 17754  18130M 18133B 18158  18283M 18286B 18304  18502M 18503M
                                                 18503B 18579M 18582B 18656  18812M 18813M 18813B 18861M 18862M 18862B
                                                 18945M 18946M 18946B 18990M 18991M 18991B 19018M 19019M 19019B 19032M
                                                 19033M 19033B 19037M 19038M 19038B 19122M 19123M 19123B 19148M 19149M
                                                 19149B 19170M 19171M 19171B 19192M 19193M 19193B 19207M 19208M 19208B
                                                 19326M 19327M 19327B 19410M 19411M 19411B 19481M 19482M 19482B 19499M
                                                 19500M 19500B 19527M 19528M 19528B 19545M 19546M 19546B 19573M 19574M
                                                 19574B 19608M 19609M 19609B 19636M 19637M 19637B 19721M 19722M 19722B
                                                 19747M 19748M 19748B 19769M 19770M 19770B 19791M 19792M 19792B 19831M
                                                 19832M 19832B 19852M 19853M 19853B 19884M 19885M 19885B 19911M 19912M
                                                 19912B 20013M 20014M 20014B 20058M 20059M 20059B 20120M 20121M 20121B
                                                 20172M 20173M 20173B 20213M 20214M 20214B 20245M 20246M 20246B 20278M
                                                 20279M 20279B 20377M 20378M 20378B 20480M 20481M 20481B 20528M 20531B
                                                 20555  20674M 20675M 20675B 20698M 20699M 20699B 20713M 20714M 20714B
                                                 20737M 20738M 20738B 20752M 20753M 20753B 20776M 20777M 20777B 20791M
                                                 20792M 20792B 20815M 20816M 20816B 20830M 20831M 20831B 20854M 20855M
                                                 20855B 20869M 20870M 20870B 20893M 20894M 20894B 20915M 20916M 20916B
                                                 20937M 20938M 20938B 20953M 20954M 20954B 20987M 20988M 20988B 21009M
                                                 21010M 21010B 21031M 21032M 21032B 21037M 21038M 21038B 21060M 21061M
                                                 21061B 21086M 21087M 21087B 21109M 21110M 21110B 21131M 21132M 21132B
                                                 21139M 21140M 21140B 21182M 21183M 21183B 21215M 21216M 21216B 21237M
                                                 21238M 21238B 21259M 21260M 21260B 21318M 21321B 21345  21464M 21465M
                                                 21465B 21488M 21489M 21489B 21503M 21504M 21504B 21527M 21528M 21528B
                                                 21542M 21543M 21543B 21566M 21567M 21567B 21581M 21582M 21582B 21605M
                                                 21606M 21606B 21620M 21621M 21621B 21644M 21645M 21645B 21659M 21660M
                                                 21660B 21683M 21684M 21684B 21705M 21706M 21706B 21727M 21728M 21728B
                                                 21743M 21744M 21744B 21777M 21778M 21778B 21799M 21800M 21800B 21821M
                                                 21822M 21822B 21827M 21828M 21828B 21884M 21885M 21885B 21910M 21911M
                                                 21911B 21933M 21934M 21934B 21955M 21956M 21956B 21963M 21964M 21964B
                                                 21977M 21978M 21978B 22015M 22018B 22041  22145M 22146M 22146B 22171M
                                                 22172M 22172B 22194M 22195M 22195B 22216M 22217M 22217B 22224M 22225M
                                                 22225B 22259M 22262B 22358  22477M 22478M 22478B 22501M 22502M 22502B
                                                 22516M 22517M 22517B 22540M 22541M 22541B 22555M 22556M 22556B 22579M
1NET      (NET2025) (12:49) (15MAR04) Ordinary Symbol and Literal Cross Reference                                           Page   88
                                                 22580M 22580B 22594M 22595M 22595B 22618M 22619M 22619B 22633M 22634M
                                                 22634B 22657M 22658M 22658B 22672M 22673M 22673B 22696M 22697M 22697B
                                                 22718M 22719M 22719B 22740M 22741M 22741B 22756M 22757M 22757B 22775M
                                                 22776M 22776B 22808M 22809M 22809B 22833M 22834M 22834B 22864M 22865M
                                                 22865B 22887M 22888M 22888B 22902M 22903M 22903B 22959M 22960M 22960B
                                                 22982M 22983M 22983B 22997M 22998M 22998B 23028M 23029M 23029B 23050M
                                                 23051M 23051B 23058M 23059M 23059B 23081M 23082M 23082B 23110M 23111M
                                                 23111B 23150M 23151M 23151B 23184M 23185M 23185B 23212M 23213M 23213B
                                                 23234M 23235M 23235B 23272M 23275B 23321  23415M 23416M 23416B 23445M
                                                 23446M 23446B 23463M 23464M 23464B 23553M 23554M 23554B 23771M 23772M
                                                 23772B 23822M 23825B 23844  23923M 23924M 23924B 23970M 23971M 23971B
                                                 23992M 23993M 23993B 24014M 24015M 24015B 24042M 24045B
 RELHEAP       1 00000000 0000002C     T   16210 16210
 RTRIM         1 00000000 00000022     T   16192 16192
 R0            0 00000000 FFFFFFFF A   #     699  2097   2166M  8089M  8114M  8234M  8234   8243   8270M  8270   8281M
                                                  8299M  8317   8352M  8377M  8389M  8389   8398   8399   8447M  8492M
                                                  8510M  8542M  8572M  8572   8631   8700M  8743M  8798M  8834M  9039M
                                                  9039   9048   9075M  9075   9084   9213M  9213   9222   9249M  9249
                                                  9258   9565M  9565   9574   9601M  9601   9618   9653M  9677M  9731M
                                                  9759M  9777M  9847M  9968M  9981M 10002M 10024M 10046M 10082M 10110M
                                                 10145M 10173M 10212M 10251M 10384M 10396M 10424M 10460M 10482M 10516M
                                                 10539M 10591M 10626M 10654M 10693M 10732M 10761M 10761  10800M 10828M
                                                 10982M 10982  10991  10992  11613M 11613  11622  11623  11706M 11728M
                                                 11728  11746M 11900M 11900  11914  11929  12117M 12135M 12160M 12160
                                                 12185M 12185  12204M 12220M 12240M 12281M 12281  12306M 12324M 12349M
                                                 12367M 12392M 12410M 12435M 12453M 12478M 12496M 12521M 12539M 12564M
                                                 12564  12590M 12608M 12633M 12633  12668M 12690M 12690  12708M 12732M
                                                 12750M 12750  12773M 12798M 12816M 12841M 12866M 12866  12891M 12891
                                                 12910M 12935M 12960M 12960  12985M 12985  13124M 13196M 13339M 13446M
                                                 13450  13461M 13461  13470  13471  13520M 13520  13537  13538  13538
                                                 13538  13544M 13559M 13710M 13726M 13772M 13788M 13824M 13850M 13890M
                                                 13916M 13938  13939  13939  13939  13945M 13960M 14651  14688  14709M
                                                 14709  14726M 14824  14825  14825  14825  14831M 14846M 14908  14934
                                                 14934M 15056  15083  15137M 15167  15183  15232M 15245M 15277M 15314M
                                                 15330M 15364M 15421M 15529M 15529  15563M 15585M 15585  15607M 15637M
                                                 15654M 15679M 15697M 15822  15926M 15926  16214  16214  16214  16309M
                                                 16377M 16381  16392M 16392  16401  16402  16451M 16451  16468  16469
                                                 16469  16469  16475M 16490M 16641M 16657M 16703M 16719M 16755M 16771M
                                                 16789  16790  16790  16790  16796M 16811M 16963M 17055  17056  17056
                                                 17056  17057M 17079M 17093  17132M 17136  17147M 17147  17156  17157
                                                 17226M 17226  17243  17244  17244  17244  17250M 17265M 17416M 17432M
                                                 17478M 17494M 17530M 17546M 17564  17565  17565  17565  17571M 17586M
                                                 17717  17717  17717  17855M 17869  18007M 18016M 18016  18057M 18059M
                                                 18060  18061  18383M 18392M 18392  18398  18399  18468M 18504  18505
                                                 18737  18781  18857M 18941M 18979M 19007M 19025M 19041  19113M 19139M
                                                 19161M 19161  19183M 19183  19322M 19406M 19443M 19488M 19516M 19534M
                                                 19562M 19578M 19640  19712M 19738M 19760M 19760  19782M 19782  19849M
                                                 19849  19866  19867  19867  19867  19873M 19888M 19968  20047M 20063M
                                                 20109M 20125M 20161M 20177M 20195  20196  20196  20196  20202M 20217M
                                                 20274M 20373M 20476M 20618  20665M 20689M 20689  20704M 20728M 20728
                                                 20743M 20767M 20767  20782M 20806M 20806  20821M 20845M 20845  20860M
                                                 20884M 20884  20906M 20906  20928M 20928  20978M 21000M 21000  21022M
                                                 21022  21051M 21077M 21100M 21100  21122M 21122  21206M 21228M 21228
                                                 21250M 21250  21408  21455M 21479M 21479  21494M 21518M 21518  21533M
                                                 21557M 21557  21572M 21596M 21596  21611M 21635M 21635  21650M 21674M
                                                 21674  21696M 21696  21718M 21718  21768M 21790M 21790  21812M 21812
                                                 21840M 21860M 21901M 21924M 21924  21946M 21946  21972M 21972  22104
                                                 22136M 22162M 22185M 22185  22207M 22207  22303  22303  22303  22421
                                                 22468M 22492M 22492  22507M 22531M 22531  22546M 22570M 22570  22585M
1NET      (NET2025) (12:49) (15MAR04) Ordinary Symbol and Literal Cross Reference                                           Page   89
                                                 22609M 22609  22624M 22648M 22648  22663M 22687M 22687  22709M 22709
                                                 22731M 22731  22766M 22799M 22824M 22855M 22878M 22893M 22950M 22973M
                                                 22988M 23019M 23019  23041M 23041  23139M 23173M 23201M 23223M 23396
                                                 23434M 23452M 23530M 23658M 23658  23680M 23698M 23698  23720M 23734M
                                                 23734  23744M 23907  23961M 23983M 23983  24005M 24005
 R1            1 00000001 FFFFFFFF A   #     712  2160M  2161M  2167M  7985   8109M  8230M  8243   8280M  8298M  8351M
                                                  8370M  8385M  8398   8399   8401   8446M  8487M  8509M  8537M  8738M
                                                  8793M  8833M  9035M  9048   9209M  9222   9561M  9574   9652M  9670M
                                                  9730M  9754M  9776M  9967M  9997M 10019M 10041M 10081M 10105M 10144M
                                                 10168M 10211M 10250M 10383M 10419M 10455M 10477M 10515M 10538M 10584M
                                                 10625M 10649M 10692M 10731M 10799M 10823M 10978M 10991  10992  10994
                                                 11518M 11519M 11519  11609M 11622  11623  11625  11705M 11724M 11745M
                                                 12112M 12134M 12203M 12219M 12239M 12299M 12323M 12342M 12366M 12385M
                                                 12409M 12428M 12452M 12471M 12495M 12514M 12538M 12583M 12607M 12667M
                                                 12686M 12707M 12728M 12772M 12791M 12815M 12834M 12909M 12928M 13123M
                                                 13195M 13320  13344  13345  13441M 13449  13457M 13470  13471  13473
                                                 13537  13538  13538  13538  13543M 13559M 13594  13595  13709M 13725M
                                                 13767M 13787M 13823M 13845M 13889M 13911M 13938  13939  13939  13939
                                                 13944M 13960M 14650  14824  14825  14825  14825  14830M 14846M 14907
                                                 14931M 15074M 15074  15136M 15166  15231M 15276M 15313M 15329M 15363M
                                                 15431M 15525M 15562M 15581M 15606M 15630M 15653M 15678M 15696M 15961M
                                                 16072M 16214  16214  16214  16314  16315  16372M 16380  16388M 16401
                                                 16402  16404  16468  16469  16469  16469  16474M 16490M 16525  16526
                                                 16640M 16656M 16698M 16718M 16754M 16770M 16789  16790  16790  16790
                                                 16795M 16811M 16962M 17055  17056  17056  17056  17062  17063  17079M
                                                 17094  17127M 17135  17143M 17156  17157  17159  17243  17244  17244
                                                 17244  17249M 17265M 17300  17301  17415M 17431M 17473M 17493M 17529M
                                                 17545M 17564  17565  17565  17565  17570M 17586M 17717  17717  17717
                                                 17783  17850M 18002M 18055M 18378M 18463M 18809M 18936M 18978M 19002M
                                                 19024M 19112M 19134M 19204M 19401M 19442M 19487M 19511M 19533M 19557M
                                                 19577M 19711M 19733M 19866  19867  19867  19867  19872M 19888M 19923
                                                 19924  20046M 20062M 20104M 20124M 20160M 20176M 20195  20196  20196
                                                 20196  20201M 20217M 20368M 20471M 20664M 20684M 20703M 20723M 20742M
                                                 20762M 20781M 20801M 20820M 20840M 20859M 20879M 20950M 20977M 21034M
                                                 21050M 21072M 21136M 21205M 21454M 21474M 21493M 21513M 21532M 21552M
                                                 21571M 21591M 21610M 21630M 21649M 21669M 21740M 21767M 21824M 21839M
                                                 21859M 21896M 21960M 21973M 22135M 22157M 22221M 22303  22303  22303
                                                 22467M 22487M 22506M 22526M 22545M 22565M 22584M 22604M 22623M 22643M
                                                 22662M 22682M 22753M 22765M 22798M 22819M 22854M 22873M 22892M 22949M
                                                 22968M 22987M 23055M 23138M 23172M 23196M 23222M 23433M 23451M 23529M
                                                 23678M 23718M 23743M 23920M 23960M
 R12          12 0000000C FFFFFFFF A   #     855  2123
 R13          13 0000000D FFFFFFFF A   #     868  8238   8239   8240   8253   8254   8255   8393   8394   8395   8411
                                                  8412   8413   9043   9044   9045   9058   9059   9060   9217   9218
                                                  9219   9232   9233   9234   9569   9570   9571   9584   9585   9586
                                                 10986  10987  10988  11004  11005  11006  11617  11618  11619  11635
                                                 11636  11637  13428  13465  13466  13467  13483  13484  13485  16359
                                                 16396  16397  16398  16414  16415  16416  17114  17151  17152  17153
                                                 17169  17170  17171
 R14          14 0000000E FFFFFFFF A   #     881  2098M  8237M  8238   8239   8240   8250M  8253   8254   8255   8392M
                                                  8393   8394   8395   8400M  8401   8408M  8411   8412   8413   9042M
                                                  9043   9044   9045   9055M  9058   9059   9060   9216M  9217   9218
                                                  9219   9229M  9232   9233   9234   9568M  9569   9570   9571   9581M
                                                  9584   9585   9586  10985M 10986  10987  10988  10993M 10994  11001M
                                                 11004  11005  11006  11616M 11617  11618  11619  11624M 11625  11632M
                                                 11635  11636  11637  13427M 13428  13448M 13449  13450  13454M 13454
                                                 13464M 13465  13466  13467  13472M 13473  13480M 13483  13484  13485
                                                 13494M 13497  14689M 15057M 15084M 15823M 16358M 16359  16379M 16380
                                                 16381  16385M 16385  16395M 16396  16397  16398  16403M 16404  16411M
1NET      (NET2025) (12:49) (15MAR04) Ordinary Symbol and Literal Cross Reference                                           Page   90
                                                 16414  16415  16416  16425M 16428  17113M 17114  17134M 17135  17136
                                                 17140M 17140  17150M 17151  17152  17153  17158M 17159  17166M 17169
                                                 17170  17171  17180M 17183  18738M 18782M 19969M 20619M 21409M 22105M
                                                 22422M 23397M 23908M
 R15          15 0000000F FFFFFFFF A   #     894  2097   8084M  8090M  8115M  8152M  8152   8256M  8256   8289M  8342M
                                                  8361M  8414M  8414   8455M  8500M  8518M  8550M  8576M  8576   8597M
                                                  8597   8631M  8634   8646M  8655M  8664M  8664   8671   8701M  8744M
                                                  8752M  8799M  8835M  8913M  8913   9061M  9061   9084M  9087   9099M
                                                  9108M  9117M  9117   9124   9146M  9146   9165M  9165   9235M  9235
                                                  9258M  9261   9273M  9282M  9291M  9291   9298   9320M  9320   9339M
                                                  9339   9412M  9412   9484M  9484   9587M  9587   9643M  9661M  9710M
                                                  9739M  9767M  9786M  9794M  9848M  9878M  9878   9982M 10003M 10025M
                                                 10047M 10090M 10118M 10153M 10181M 10220M 10259M 10294M 10294  10397M
                                                 10425M 10461M 10483M 10569M 10599M 10634M 10662M 10701M 10740M 10769M
                                                 10808M 10836M 10871M 10871  11007M 11007  11028M 11028  11187M 11187
                                                 11254M 11254  11335M 11336M 11337  11341M 11341  11360M 11360  11440M
                                                 11441M 11442  11446M 11446  11465M 11465  11537M 11537  11556M 11556
                                                 11638M 11638  11668M 11669M 11669  11714M 11736M 11785M 11785  11935M
                                                 11935  11954M 11954  12052M 12052  12125M 12143M 12168M 12193M 12212M
                                                 12264M 12289M 12314M 12332M 12357M 12375M 12400M 12418M 12443M 12461M
                                                 12486M 12504M 12529M 12547M 12572M 12598M 12616M 12641M 12676M 12698M
                                                 12716M 12733M 12758M 12781M 12806M 12824M 12849M 12874M 12899M 12918M
                                                 12943M 12968M 12993M 13029M 13030M 13030  13072M 13072  13144M 13144
                                                 13216M 13216  13337  13372  13394M 13395M 13396  13416M 13417M 13418
                                                 13486M 13486  13552M 13579M 13585M 13609M 13610  13673M 13718M 13780M
                                                 13832M 13898M 13953M 13985M 13990M 14159M 14159  14348M 14348  14414M
                                                 14414  14480M 14480  14546M 14546  14688  14731M 14786M 14786  14814M
                                                 14839M 14866M 14871M 14887M 14887  14899M 14899  14967M 14967  15056
                                                 15083  15128M 15143M 15166M 15167M 15169M 15240M 15269M 15322M 15354M
                                                 15441M 15537M 15571M 15593M 15615M 15645M 15687M 15735M 15735  15822
                                                 15934M 15955M 15962M 15972M 16073M 16083M 16123  16129M 16162M 16162
                                                 16307  16346  16351M 16352M 16353  16417M 16417  16483M 16510M 16516M
                                                 16540M 16541  16604M 16649M 16711M 16763M 16804M 16836M 16841M 16901M
                                                 16901  16983M 16983  17052  17101  17106M 17107M 17108  17172M 17172
                                                 17258M 17285M 17291M 17315M 17316  17379M 17424M 17486M 17538M 17579M
                                                 17611M 17616M 17676M 17676  18132M 18132  18285M 18285  18581M 18581
                                                 18737  18781  18858M 18924M 18942M 18987M 19015M 19029M 19029  19041M
                                                 19044  19056M 19064M 19073M 19073  19080  19119M 19145M 19167M 19189M
                                                 19323M 19389M 19407M 19478M 19496M 19524M 19542M 19570M 19605M 19605
                                                 19625M 19625  19640M 19643  19655M 19663M 19672M 19672  19679  19718M
                                                 19744M 19766M 19788M 19828M 19881M 19908M 19914M 19968  19976M 19977
                                                 19978M 19979  19980  19981  20010M 20055M 20117M 20169M 20210M 20242M
                                                 20247M 20275M 20356M 20374M 20459M 20477M 20490M 20490  20530M 20530
                                                 20618  20671M 20695M 20710M 20734M 20749M 20773M 20788M 20812M 20827M
                                                 20851M 20866M 20890M 20912M 20934M 20984M 21006M 21028M 21057M 21083M
                                                 21106M 21128M 21151  21158  21173M 21174M 21174  21212M 21234M 21256M
                                                 21263M 21285M 21285  21320M 21320  21408  21461M 21485M 21500M 21524M
                                                 21539M 21563M 21578M 21602M 21617M 21641M 21656M 21680M 21702M 21724M
                                                 21774M 21796M 21818M 21881M 21907M 21930M 21952M 21974M 21987M 21987
                                                 22017M 22017  22104  22142M 22168M 22191M 22213M 22231M 22231  22261M
                                                 22261  22421  22474M 22498M 22513M 22537M 22552M 22576M 22591M 22615M
                                                 22630M 22654M 22669M 22693M 22715M 22737M 22772M 22805M 22830M 22861M
                                                 22884M 22899M 22956M 22979M 22994M 23025M 23047M 23078M 23107M 23147M
                                                 23181M 23209M 23231M 23244M 23244  23274M 23274  23396  23412M 23442M
                                                 23460M 23471M 23550M 23768M 23779M 23794M 23794  23824M 23824  23907
                                                 23935M 23935  23948  23967M 23989M 24011M 24044M 24044
 R2            2 00000002 FFFFFFFF A   #     725  8100M  8729M  8751M  8784M  8830M  9709M  9785M  9793M  9988M 10010M
                                                 10032M 10410M 10446M 10468M 13337M 13367  14881M 14882M 14883  14905M
                                                 14930M 14932M 14934  16307M 16341  17052M 17096  17799M 17800  17804M
1NET      (NET2025) (12:49) (15MAR04) Ordinary Symbol and Literal Cross Reference                                           Page   91
                                                 17813M 17813  17820  17888M 17889  17893M 17902M 17902  17909  17944M
                                                 17945  17949M 17958M 17958  17965  18061M 18065M 18074M 18074  18081
                                                 18216M 18217  18221M 18230M 18230  18237  18399M 18403M 18412M 18412
                                                 18419  18505M 18509M 18518M 18518  18525  18866M 18869  18881M 18889M
                                                 18898M 18898  18905  18927M 19331M 19334  19346M 19354M 19363M 19363
                                                 19370  19392M 20298M 20301  20313M 20321M 20330M 20330  20337  20359M
                                                 20401M 20404  20416M 20424M 20433M 20433  20440  20462M 23324  23820M
 R3            3 00000003 FFFFFFFF A   #     738 13613M 13616  13628M 13636M 13645M 13645  13652  14906M 14918  14925
                                                 16544M 16547  16559M 16567M 16576M 16576  16583  17319M 17322  17334M
                                                 17342M 17351M 17351  17358  19924M 19942U 20646M 20656U 21436M 21446U
                                                 22449M 22459U
 R4            4 00000004 FFFFFFFF A   #     751 13595M 13605U 14907M 14930M 16290M 16298U 17035M 17043U 18790M 18800U
                                                 20627M 20637U 21417M 21427U 22113M 22123U 22430M 22440U
 R5            5 00000005 FFFFFFFF A   #     764  7985M  7995U 11606M 11606  11655M 11655  11661  11724  11929M 11931
                                                 11931M 12999M 13014  13047M 13320M 13328U 14908M 14918  14925M 15399M
                                                 15409U 15468M 15478U 15842M 15843M 15843  15858U 15962  15972  16031M
                                                 16032M 16032  16047U 16073  16083  16526M 16536U 17301M 17311U 18201M
                                                 18211U 18347M 18357U 18746M 18756U 23067M 23067  23113M 23128M 23128
 R6            6 00000006 FFFFFFFF A   #     777  8210M  8218U 11661M 11663M 11664M 11665M 13000M 13046M 13345M 13353U
                                                 14653M 14663U 15021M 15031U 15787M 15797U 16315M 16325U 17063M 17073U
                                                 17783M 17793U 18187M 18197U 18333M 18343U 18712U 20593U 21383U 22079U
                                                 22396U 23371U 23882U
 R7            7 00000007 FFFFFFFF A   #     790  2090M  2090   2091B  2103B
 R8            8 00000008 FFFFFFFF A   #     803  7973U  8206U  9547U  9932U 10348U 14646U 18691U 23356U
 SCANCHK       1 00000000 00000008     T   10887 10887  13233  16181  17698
 SCUPCASE      1 00000000 0000000A     T   10890 10890
 SDSNQSZ       1 0000002C FFFFFFEC A   U    6078  6079   6080
 SEG           1 00000000 00000009     T   10888 10888  13235  16186  17703  22281  24057
 SEGCBCOD      1 00000000 FFFFFFE5     R    7417  7426   7436   7446   7456   7466   7476   7486
 SEGCLR        1 00000000 00000029     T   16206 16206
 SEGCR         1 00000000 00000014     T   10907 10907  13241  16187  17704  22286  24059
 SEGDC         1 00000000 00000019     T   13236 13236  16203  22295  24058
 SEGHX         1 00000000 0000001C     T   13245 13245
 SEGT          1 00000000 0000000C     T   10893 10893  13240  22282
 SEGWR         1 00000000 00000025     T   16199 16199  22287  24060
 SETFHOST      2 00002834 00000001     H   18298 16184  17701
 SETFNAME      2 000027F0 00000001     H   18152 16183  17700
 SETHNOUX      2 000005A0 00000001     H    9419  8977
 SETHOST       2 000000CC 00000001     H    8164  8160
 SETHPASS      2 000004D4 00000001     H    9172  8947
 SETHPRT       4 00000370 00000001     F    8920 10891
 SETHUNIX      2 00000570 00000001     H    9346  8962
 SETHUSER      2 00000438 00000001     H    8998  8932
 SETPRT        4 00000C10 00000001     F   11035 13228
 SETWNET       2 00000B92 00000001     H   10941 10937
 SHOWFTP       2 00001308 00000001     H   13084 13080
 SHOWHOST      2 00000732 00000001     H    9890  9886
 SHOWHSTS      2 0000087E 00000001     H   10306 10302
 SHOWTRC       2 00000FEC 00000001     H   11967 11819  11963
 SHOWWNET      2 00000E26 00000001     H   11568 11564
 SPR          13 0000000D 00000001 A   #    1115  7938   7941   7943   7944M  7944   8144M  8148   8150   8171   8174
                                                  8176   8177M  8177   8905M  8909   8911   9004   9007   9008   9009M
                                                  9009   9157M  9161   9163   9178   9181   9182   9183M  9183   9331M
                                                  9335   9337   9352   9355   9356   9357M  9357   9404M  9408   9410
                                                  9425   9428   9429   9430M  9430   9476M  9480   9482   9512   9515
                                                  9517   9518M  9518   9870M  9874   9876   9897   9900   9902   9903M
                                                  9903  10286M 10290  10292  10313  10316  10318  10319M 10319  10863M
                                                 10867  10869  10947  10950  10951  10952M 10952  11020M 11024  11026
                                                 11134  11137  11138  11139M 11139  11179M 11183  11185  11200  11203
1NET      (NET2025) (12:49) (15MAR04) Ordinary Symbol and Literal Cross Reference                                           Page   92
                                                 11204  11205M 11205  11246M 11250  11252  11267  11270  11271  11272M
                                                 11272  11352M 11356  11358  11373  11376  11377  11378M 11378  11457M
                                                 11461  11463  11478  11481  11482  11483M 11483  11548M 11552  11554
                                                 11574  11577  11578  11579M 11579  11777M 11781  11783  11861  11864
                                                 11865  11866M 11866  11946M 11950  11952  11973  11976  11977  11978M
                                                 11978  12044M 12048  12050  12073  12076  12077  12078M 12078  13064M
                                                 13068  13070  13090  13093  13094  13095M 13095  13136M 13140  13142
                                                 13162  13165  13166  13167M 13167  13208M 13212  13214  13291  13294
                                                 13295  13296M 13296  14151M 14155  14157  14295  14298  14299  14300M
                                                 14300  14340M 14344  14346  14361  14364  14365  14366M 14366  14406M
                                                 14410  14412  14427  14430  14431  14432M 14432  14472M 14476  14478
                                                 14493  14496  14497  14498M 14498  14538M 14542  14544  14611  14614
                                                 14616  14617M 14617  14959M 14963  14965  14992  14995  14996  14997M
                                                 14997  15727M 15731  15733  15758  15761  15762  15763M 15763  16154M
                                                 16158  16160  16260  16263  16264  16265M 16265  16893M 16897  16899
                                                 16929  16932  16933  16934M 16934  16975M 16979  16981  17005  17008
                                                 17009  17010M 17010  17668M 17672  17674  17754  17757  17758  17759M
                                                 17759  18124M 18128  18130  18158  18161  18162  18163M 18163  18277M
                                                 18281  18283  18304  18307  18308  18309M 18309  18573M 18577  18579
                                                 18656  18659  18661  18662M 18662  20522M 20526  20528  20555  20558
                                                 20559  20560M 20560  21312M 21316  21318  21345  21348  21349  21350M
                                                 21350  22009M 22013  22015  22041  22044  22045  22046M 22046  22253M
                                                 22257  22259  22358  22361  22362  22363M 22363  23266M 23270  23272
                                                 23321  23324  23326  23327M 23327  23816M 23820  23822  23844  23847
                                                 23848  23849M 23849  24036M 24040  24042
 SXNOTRC       2 00000D2C 00000001     H   11194 11062
 SXOFF         2 00000DA0 00000001     H   11367 11092
 SXON          2 00000D58 00000001     H   11261 11077
 SXTCLR        2 00000DE8 00000001     H   11472 11107
 SXTRC         2 00000D00 00000001     H   11128 11047
 TOASCII       1 00000000 00000027     T   16202 16202
 TRC           1 00000000 00000000 A   T    2119  2119
 TREADQ        1 00000000 0000000D     T   10895 10895  22283
 TTYFLAG       1 00000004 FFFFFFEA     R    6207  6211
 TTYMAX#       1 00000006 FFFFFFEA A   U    6263  6264
 TTYTFLAG      1 00000005 FFFFFFEA     R    6217  6221   6226   6231   6236   6241   6246   6251
 UNET        632 00000000 FFFFFFE6     J    7400 13605U 13673  15409U 15858U 16047U 16536U 16604  17311U 17379  18756U
                                                 18772  19942U 19959  19979  19980  19981  20010  20263U 20656U 21446U
                                                 22459U
 UNETACCT      5 00000004 FFFFFFE6     C    6957  6958   6959
 UNETAFLG1
               1 00000163 FFFFFFE6     R    7202  7206   7211   7216
 UNETAFLG2
               1 00000164 FFFFFFE6     R    7222  7226   7231   7236   7241   7246   7251   7256   7261
 UNETAFLG3
               1 00000165 FFFFFFE6     R    7267  7271   7276   7281
 UNETFKEEPTABS
              32 00000165 FFFFFFE6         7281 20004M
 UNETFLG1      1 0000002C FFFFFFE6     R    6974  6978   6983   6988   6993   6998   7003   7008
 UNETFLG2      1 0000002D FFFFFFE6     R    7014  7018   7023   7028   7033
 UNETFNOXL
              64 00000104 FFFFFFE6         7064 15419M 15452M
 UNETFOUTABORT
              32 00000164 FFFFFFE6         7236 15876  15876  16065  16065
 UNETFOUTEOF
              64 00000164 FFFFFFE6         7231 15876  15876  15877  16065  16065  16066
 UNETINMODE
               1 00000166 FFFFFFE6     R    7287  7296   7306
 UNETLIP       4 00000174 FFFFFFE6     F    7341 19979M 19979  20684  20723  20762  20801  21474  21513  21552  21591
1NET      (NET2025) (12:49) (15MAR04) Ordinary Symbol and Literal Cross Reference                                           Page   93
                                                 22487  22526  22565  22604
 UNETLPORT
               4 00000178 FFFFFFE6     F    7342 20840  20879  21630  21669  22643  22682
 UNETOUTMODE
               1 00000167 FFFFFFE6     R    7312  7321   7331
 UNETOUTSG
              60 0000010C FFFFFFE6     X    7168 13609  15934  15955  16540  17315  19976
 UNETOUTSGCOD
               1 0000010C FFFFFFE6     R    7085  7094   7104   7114   7124   7134   7144   7154
 UNETOUTSGLENF
               4 00000118 FFFFFFE6     A    7160 15908M 15908
 UNETRIP       4 000001CC FFFFFFE6     F    7345 19981M 19981
 UNETRNAME
              80 0000017C FFFFFFE6     C    7344 13612M 13659M 16188  16543M 16590M 17318M 17365M 17705  19002  19007
                                                 19557  19562  19980M 19980
 UNETRPORT
               4 000001D0 FFFFFFE6     F    7346 13671M 16602M 17377M
 UNETSFOPEN
               1 00000004 FFFFFFE6 A   U    7185 21973
 UNETSGFLG
               1 00000104 FFFFFFE6     R    7055  7059   7064   7069   7074   7077   7077
 UNETVFLG1
               1 0000021C FFFFFFE6     R    7360  7364
 UPAT          4 00000074 FFFFFFE7     F    6868  6927
 UPATFLG1      1 00000018 FFFFFFE7     R    6817  6821   6826   6831   6836   6841   6846
 UPATSFLG      1 000000AC FFFFFFE7     X    6929  6891
 UPPTBL        1 00000000 00000000 A   T    2182  2182
 WAR           8 00000008 00000001 A   #    1038  7943M  8144   8176M  8905   9008M  9157   9182M  9331   9356M  9404
                                                  9429M  9476   9517M  9870   9902M 10286  10318M 10863  10951M 11020
                                                 11138M 11179  11204M 11246  11271M 11352  11377M 11457  11482M 11548
                                                 11578M 11777  11865M 11931  11946  11977M 12044  12077M 13064  13094M
                                                 13136  13166M 13208  13295M 14151  14299M 14340  14365M 14406  14431M
                                                 14472  14497M 14538  14616M 14934  14959  14996M 15727  15762M 16154
                                                 16264M 16893  16933M 16975  17009M 17668  17758M 18124  18162M 18277
                                                 18308M 18573  18661M 20522  20559M 21312  21349M 22009  22045M 22253
                                                 22362M 23266  23326M 23816  23848M 24036
 WNETNO        2 00000FA8 00000001     H   11855 11804
 WNETPRT       4 00000F08 00000001     F   11792 13232
 WTOSG         1 00000000 00000000 A   T    2079  2079
 WYLNET        1 00000000 00000001     J     992   994   1020   1033   1046   1058   1071   1084   1097   1110   1123
                                                  1136   2363   2447   6187   6299   6579   6790   6939   7401   7507
                                                  7512   7743   7830   7914   8684   9137   9311
 XDELETE       1 00000000 0000000F     T   10898 10898
 XDELSET       1 00000000 00000010     T   10903 10903
 XGET          1 00000000 00000012     T   10905 10905  22280
 XGETNEXT      1 00000000 00000013     T   10906 10906
 XPUT          1 00000000 00000006     T   10885 10885  22294
 XSETSET       1 00000000 00000005     T   10884 10884  22278
 YESNO         1 00000000 00000028     T   16205 16205
 =(L'CPHOST)X'00'
               1 00000A48 00000001     X   10883 10394
 =A(CVNET#)
               4 000013B8 00000001     A   13238 11914  13014
 =A(FTPCLOSE)
               4 00001EE8 00000001     A   16209 16013
 =A(FTPDIR)
               4 00002634 00000001     A   17713 17640
 =A(FTPOPEN)
               4 00001EAC 00000001     A   16194 14025
1NET      (NET2025) (12:49) (15MAR04) Ordinary Symbol and Literal Cross Reference                                           Page   94
 =A(FTPOPEN)
               4 00002628 00000001     A   17710 16850  17625
 =A(FTPPORT#)
               4 00001E70 00000001     A   16189 13671
 =A(FTPPORT#)
               4 000025E0 00000001     A   17706 16602  17377
 =A(FTPREAD)
               4 00003374 00000001     A   22277 18812  19207  20953  21037  21139  21743  21827  21963  22224
 =A(FTPREAD)
               4 00003A08 00000001     A   24061 22756  23058  23923
 =A(FTPSAVE)
               4 00001EB0 00000001     A   16195 14102
 =A(FTPSCR)
               4 0000262C 00000001     A   17711 16865
 =A(FTPUSE)
               4 00001EB4 00000001     A   16196 14124
 =A(L'CPHOST)
               4 00000A7C 00000001     A   10889  8317   9618
 =A(L'FOPKEY-5)
               4 0000337C 00000001     A   22279 18869  18881  19334  19346  20301  20313  20404  20416
 =A(L'HOSTPASS)
               4 00000A9C 00000001     A   10897  8634   8646   9261   9273
 =A(L'HOSTUSER)
               4 00000AA8 00000001     A   10900  9087   9099
 =A(L'NWANPASS)
               4 000033A4 00000001     A   22289 19643  19655
 =A(L'NWANUSER)
               4 00003394 00000001     A   22285 19044  19056
 =A(L'UNETRNAME)
               4 00001E6C 00000001     A   16188 13616  13628
 =A(L'UNETRNAME)
               4 000025DC 00000001     A   17705 16547  16559  17322  17334
 =A(NETDISP)
               4 000013B4 00000001     A   13237 11764
 =A(NWADPRT)
               4 00002630 00000001     A   17712 17158
 =A(NWAOPRT)
               4 00001E48 00000001     A   16179 13472
 =A(NWASPRT)
               4 000025B8 00000001     A   17696 16403
 =A(SETFHOST)
               4 00001E5C 00000001     A   16184 13512
 =A(SETFHOST)
               4 000025CC 00000001     A   17701 16443  17218
 =A(SETFNAME)
               4 00001E58 00000001     A   16183 13508
 =A(SETFNAME)
               4 000025C8 00000001     A   17700 16439  17210
 =A(SETHPRT)
               4 00000A84 00000001     A   10891  8400
 =A(SETPRT)
               4 00001390 00000001     A   13228 10993
 =A(WNETPRT)
               4 000013A0 00000001     A   13232 11624
 =A(1)         4 000028C0 00000001     A   18590 17869  18055
 =A(2)         4 00001EC4 00000001     A   16200 15183
 =AL2(L'NETWA)
               2 00001EF0 00000001     R   16211 13339
 =AL2(L'NETWA)
1NET      (NET2025) (12:49) (15MAR04) Ordinary Symbol and Literal Cross Reference                                           Page   95
               2 00002638 00000001     R   17714 16309  17057
 =C'   '       3 00000B7D 00000001     C   10925 10515
 =C' (for '
               6 0000340E 00000001     C   22301 19487
 =C' '         1 00003A5E 00000001     C   24073 22798  22949
 =C' at '      4 000033A0 00000001     C   22288 19533
 =C' error packets; last error packet follows:'
              42 0000141C 00000001     C   13251 12707
 =C' found.'
               7 00003A64 00000001     C   24077 23222
 =C' has Macintosh transparent data which can not '
              46 00001EFA 00000001     C   16216 15313
 =C' is not active.'
              15 00001477 00000001     C   13254 11745
 =C' is not defined.'
              16 00000A38 00000001     C   10882  9776
 =C' is not valid TRANSPARENT data.'
              31 0000203B 00000001     C   16232 15276
 =C' like '
               6 00003A1C 00000001     C   24066 23172
 =C' lines have been written so far.'
              32 00001DE8 00000001     C   16174 15606
 =C' network commands'
              17 000014B9 00000001     C   13258 12323
 =C' network information:'
              21 00001486 00000001     C   13255 12134
 =C' network renames'
              16 00001370 00000001     C   13226 12495
 =C' network saves'
              14 000013EE 00000001     C   13248 12409
 =C' network scratches'
              18 000013FC 00000001     C   13249 12452
 =C' network show directories'
              25 000014D7 00000001     C   13260 12538
 =C' network uses'
              13 000014CA 00000001     C   13259 12366
 =C' network I/O''s'
              14 0000140E 00000001     C   13250 12607
 =C' of '      4 00001ED4 00000001     C   16204 15562
 =C' on '      4 00000A90 00000001     C   10894  8509
 =C' user-id'
               8 00003338 00000001     C   22272 19024
 =C' Password=*'
              11 00000B56 00000001     C   10922 10211  10692
 =C' Unix'
               5 00000B61 00000001     C   10923 10250  10731
 =C' User='
               6 00000AF2 00000001     C   10911 10144  10625
 =C'...'       3 00003461 00000001     C   22308 18809  20950  21034  21740  21824  22221
 =C'...'       3 00003A5B 00000001     C   24072 22753
 =C'(Error: no message text, sorry.)'
              32 000039D8 00000001     C   24056 23743
 =C'* '        2 00000AF0 00000001     C   10910  8436
 =C'*** '      4 000013CC 00000001     C   13243 12667
 =C'*'         1 00003A60 00000001     C   24075 22892  22987
 =C')'         1 00003484 00000001     C   22315 19577
 =C'/'         1 00003A5F 00000001     C   24074 22854
 =C', TESTAMY UPATH at '
              19 000014F0 00000001     C   13261 12815
1NET      (NET2025) (12:49) (15MAR04) Ordinary Symbol and Literal Cross Reference                                           Page   96
 =C','         1 00003501 00000001     C   22324 20703  20742  20781  20820  20859  21493  21532  21571  21610  21649
 =C','         1 00003A5A 00000001     C   24071 22506  22545  22584  22623  22662
 =C': host name is too long.'
              24 00000A20 00000001     C   10881  8351   9652
 =C': host not found.'
              17 00001FC2 00000001     C   16225 13787
 =C': host not found.'
              17 000026C2 00000001     C   17724 16718  17493
 =C': host not found.'
              17 000034E4 00000001     C   22321 20124
 =C'=> '       3 00000B53 00000001     C   10921 10081  10538  10799
 =C'be saved over the net.'
              22 00001F28 00000001     C   16217 15329
 =C'connection.'
              11 00003A6B 00000001     C   24078 23451
 =C'expecting "SET HOST host USER userid".'
              38 00000ACA 00000001     C   10909  8298
 =C'network access is not possible.'
              31 00001F90 00000001     C   16223 13725
 =C'network access is not possible.'
              31 00002690 00000001     C   17722 16656  17431
 =C'network access is not possible.'
              31 000034B2 00000001     C   22319 20062
 =C'partially saved.'
              16 00001E30 00000001     C   16176 15696
 =C'the remote computer.'
              20 00002614 00000001     C   17709 16770  17545
 =C'the remote computer.'
              20 000033DC 00000001     C   22293 20176
 =C'Amelia interface is turned '
              27 0000149B 00000001     C   13256 12203
 =C'Amelia is not running; '
              23 00001F79 00000001     C   16222 13709
 =C'Amelia is not running; '
              23 00002679 00000001     C   17721 16640  17415
 =C'Amelia is not running; '
              23 0000349B 00000001     C   22318 20046
 =C'AMELIA UPATH at '
              16 00001380 00000001     C   13227 12772
 =C'APPE '
               5 0000350F 00000001     C   22328 21859
 =C'ATTN'      4 00001EA8 00000001     C   16193 13879
 =C'Can''t allocate data connection -- '
              34 00003414 00000001     C   22302 19872
 =C'Can''t allocate network connection -- '
              37 00001F43 00000001     C   16220 13543
 =C'Can''t allocate network connection -- '
              37 00002643 00000001     C   17719 16474  17249
 =C'Can''t connect to '
              17 00001FDA 00000001     C   16227 13889
 =C'Can''t open data connection -- '
              30 00003438 00000001     C   22304 20201
 =C'Can''t open network connection -- '
              33 00001FEB 00000001     C   16228 13944
 =C'Can''t open network connection -- '
              33 000026DA 00000001     C   17726 16795  17570
 =C'CLEAR FTPLOG is not supported.'
              30 00001446 00000001     C   13252 13195
 =C'Do you want to continue saving this file'
1NET      (NET2025) (12:49) (15MAR04) Ordinary Symbol and Literal Cross Reference                                           Page   97
              40 00001E08 00000001     C   16175 15653
 =C'DELE '
               5 00003514 00000001     C   22329 22135
 =C'Enter password for '
              19 00000B1A 00000001     C   10916  8446
 =C'Enter your '
              11 00003469 00000001     C   22310 18978
 =C'END OF FILE'
              11 0000200C 00000001     C   16229 14808
 =C'EOF'       3 00002083 00000001     C   16234 15961  16072
 =C'ERROR: UNKNOWN HOST'
              19 00001FAF 00000001     C   16224 13751
 =C'ERROR: UNKNOWN HOST'
              19 000026AF 00000001     C   17723 16682  17457
 =C'ERROR: UNKNOWN HOST'
              19 000034D1 00000001     C   22320 20088
 =C'File transfer stopped, your file is only '
              41 0000205A 00000001     C   16233 15678
 =C'GUEST '
               6 00003408 00000001     C   22300 19270
 =C'GUEST'
               5 00000AFD 00000001     C   10913  8078
 =C'Host '
               5 00000B37 00000001     C   10919  9730
 =C'Line '
               5 00002036 00000001     C   16231 15231
 =C'LINDY'
               5 00000AF8 00000001     C   10912  8037
 =C'LIST'      4 00003A0C 00000001     C   24062 22765
 =C'Missing host name; '
              19 00000B07 00000001     C   10915  8280
 =C'Network connection '
              19 00001464 00000001     C   13253 11705
 =C'Network error while reading -- '
              31 00002017 00000001     C   16230 14830
 =C'Network RENAME command not yet supported.'
              41 000026FB 00000001     C   17727 16962
 =C'No current host is set.'
              23 00000B3C 00000001     C   10920  9967
 =C'No files'
               8 000039C8 00000001     C   24054 23138
 =C'No hosts have been set.'
              23 00000B66 00000001     C   10924 10383
 =C'NET'       3 00001F40 00000001     C   16219 13363  14679  15047  15813
 =C'NET'       3 00002640 00000001     C   17718 16337  17089
 =C'NET'       3 0000345E 00000001     C   22307 18728  20609  21399  22095
 =C'NET'       3 00003A52 00000001     C   24069 22412  23387  23898
 =C'NO NETWORK SERVER'
              17 00001F68 00000001     C   16221 13699
 =C'NO NETWORK SERVER'
              17 00002668 00000001     C   17720 16630  17405
 =C'NO NETWORK SERVER'
              17 0000348A 00000001     C   22317 20036
 =C'OFF.'      4 000013C8 00000001     C   13242 12239
 =C'ON.'       3 000014B6 00000001     C   13257 12219
 =C'ONT'       3 00002086 00000001     C   16235 16100
 =C'Password'
               8 00003360 00000001     C   22274 19442
 =C'PASS '
1NET      (NET2025) (12:49) (15MAR04) Ordinary Symbol and Literal Cross Reference                                           Page   98
               5 00003485 00000001     C   22316 19711
 =C'PASS_'
               5 00000B2D 00000001     C   10917  8750   8781  10009  10445
 =C'PASS_'
               5 0000347F 00000001     C   22314 19330  20400
 =C'PASS'      4 00000AAC 00000001     C   10901  9784
 =C'PORT '
               5 000034FC 00000001     C   22323 20664  21454
 =C'PORT '
               5 00003A55 00000001     C   24070 22467
 =C'QUIT'      4 00003400 00000001     C   22298 21205
 =C'QUIT'      4 00003A18 00000001     C   24065 23960
 =C'Remote host unexpectedly closed file transfer '
              46 00003A22 00000001     C   24067 23433
 =C'RETR '
               5 00003502 00000001     C   22325 21050
 =C'SAVE command incomplete.'
              24 00001DD0 00000001     C   16173 15363
 =C'SHOW FTPLOG is not supported.'
              29 00001503 00000001     C   13262 13123
 =C'STOR '
               5 0000350A 00000001     C   22327 21839
 =C'TIMEOUT'
               7 00001FD3 00000001     C   16226 13813
 =C'TIMEOUT'
               7 000026D3 00000001     C   17725 16744  17519
 =C'TIMEOUT'
               7 000034F5 00000001     C   22322 20150
 =C'TRUE'      4 00000AA4 00000001     C   10899  8833
 =C'TYPE I'
               6 00003456 00000001     C   22305 20977  21767
 =C'Unable to do this command, no response from '
              44 00001E78 00000001     C   16191 13823
 =C'Unable to do this command, no response from '
              44 000025E8 00000001     C   17708 16754  17529
 =C'Unable to do this command, no response from '
              44 000033B0 00000001     C   22292 20160
 =C'UNET index table at '
              20 000013D8 00000001     C   13246 12909
 =C'UNET'      4 00003370 00000001     C   22276 18772  19959
 =C'UNIX_'
               5 00000B32 00000001     C   10918  8827  10031  10467
 =C'UNIX'      4 00000AB0 00000001     C   10902  9792
 =C'USER '
               5 00003474 00000001     C   22311 19112
 =C'USER_'
               5 00000B02 00000001     C   10914  8097   8726   9706   9978  10409
 =C'USER_'
               5 00003464 00000001     C   22309 18865  20297
 =C'1..'       3 00003507 00000001     C   22326 21136  21960
 =C'1..'       3 00003A61 00000001     C   24076 23055
 =C'2..'       3 00003A76 00000001     C   24079 23920
 =C'3..'       3 00003479 00000001     C   22312 19204
 =C'331'       3 0000347C 00000001     C   22313 19243
 =CL(L'NWANPASS)'Temp4U2'
              32 00003340 00000001     C   22273 19294
 =CL(L'NWANUSER)'guest'
              32 00003318 00000001     C   22271 18833
 =CL8'FTPERR'
1NET      (NET2025) (12:49) (15MAR04) Ordinary Symbol and Literal Cross Reference                                           Page   99
               8 000039D0 00000001     C   24055 23644
 =CL8'NETERR'
               8 00001DC8 00000001     C   16172 13584
 =CL8'NETERR'
               8 000025A8 00000001     C   17693 16515  17290
 =CL8'NETERR'
               8 00003368 00000001     C   22275 19913
 =F'8'         4 000033F8 00000001     F   22296 21151
 =F'8'         4 00003A14 00000001     F   24064 23948
 =H'2'         2 00001F3E 00000001     H   16218 15421
 =H'4'         2 00003A50 00000001     H   24068 23530
 =V(COLLOPTS)
               4 00000AB8 00000001     V   10904  9946  10362
 =V(CVEXNO)
               4 00001EC8 00000001     V   16201 15248
 =V(DISPUNET)
               4 000013A8 00000001     V   13234 11684  13039
 =V(FREEETRC)
               4 0000139C 00000001     V   13231 11527
 =V(GETHEAP)
               4 00001E44 00000001     V   16178 13342
 =V(GETHEAP)
               4 000025B4 00000001     V   17695 16312  17060
 =V(HEXDUMP)
               4 000013D0 00000001     V   13244 12736
 =V(LRTRIM)
               4 00000A98 00000001     V   10896  8629
 =V(LRTRIM)
               4 000028C4 00000001     V   18591 18502
 =V(LRTRIM)
               4 00003390 00000001     V   22284 19037  19636
 =V(MARKHEAP)
               4 00001E40 00000001     V   16177 13335  13370  16110
 =V(MARKHEAP)
               4 000025B0 00000001     V   17694 16305  16344  17050  17099
 =V(NOTVALID)
               4 00001398 00000001     V   13230 11319  11425  11923  12021
 =V(NPATALLO)
               4 00001E60 00000001     V   16185 13523
 =V(NPATALLO)
               4 000025D0 00000001     V   17702 16454  17229
 =V(NPATALLO)
               4 000033A8 00000001     V   22290 19852
 =V(NPATCLS)
               4 00001EE4 00000001     V   16208 15975  16086
 =V(NPATCLS)
               4 000033FC 00000001     V   22297 21182
 =V(NPATCTRL)
               4 00001EE0 00000001     V   16207 15965  16076
 =V(NPATOPEN)
               4 00001E74 00000001     V   16190 13676
 =V(NPATOPEN)
               4 000025E4 00000001     V   17707 16607  17382
 =V(NPATOPEN)
               4 000033AC 00000001     V   22291 20013
 =V(NPATREAD)
               4 00001EB8 00000001     V   16197 14749
 =V(NPATREAD)
               4 00003A10 00000001     V   24063 23081  23415
1NET      (NET2025) (12:49) (15MAR04) Ordinary Symbol and Literal Cross Reference                                           Page  100
 =V(NPATWAIT)
               4 00003404 00000001     V   22299 21977
 =V(NPATXRD)
               4 00001EBC 00000001     V   16198 14772
 =V(NRESOLVE)
               4 00001E54 00000001     V   16182 13502
 =V(NRESOLVE)
               4 000025C4 00000001     V   17699 16433  17205
 =V(NSCAN)
               4 00000A88 00000001     V   10892  8404
 =V(NSCAN)
               4 00001394 00000001     V   13229 10997  11628
 =V(NSCAN)
               4 00001E4C 00000001     V   16180 13476
 =V(NSCAN)
               4 000025BC 00000001     V   17697 16407  17162
 =V(NSCANSTR)
               4 00000A70 00000001     V   10886  8246   9051   9225   9577
 =V(NTRCDISP)
               4 000013BC 00000001     V   13239 12030
 =V(RELHEAP)
               4 00001EEC 00000001     V   16210 16132
 =V(RTRIM)
               4 00001EA4 00000001     V   16192 13853  13919
 =V(SCANCHK)
               4 00000A74 00000001     V   10887  8260   8418   9065   9239   9591
 =V(SCANCHK)
               4 000013A4 00000001     V   13233 11642
 =V(SCANCHK)
               4 00001E50 00000001     V   16181 13490
 =V(SCANCHK)
               4 000025C0 00000001     V   17698 16421  17176
 =V(SCUPCASE)
               4 00000A80 00000001     V   10890  8380   9680
 =V(SEG)       4 00000A78 00000001     V   10888  8292   8345   8458   8521   9646   9742  10093  10121  10156  10223
                                                 10262  10572  10602  10637  10704  10743  10811
 =V(SEG)       4 000013AC 00000001     V   13235 11717  12146  12215  12679  12784  12827  12921
 =V(SEG)       4 00001E64 00000001     V   16186 13555  13721  13783  13835  13901  13956  14842  15131  15146  15243
                                                 15272  15325  15444  15574  15618  15690
 =V(SEG)       4 000025D4 00000001     V   17703 16486  16652  16714  16766  16807  17261  17427  17489  17541  17582
 =V(SEG)       4 00003384 00000001     V   22281 18990  19122  19481  19499  19545  19721  19884  20058  20120  20172
                                                 20213  20674  20713  20752  20791  20830  20869  20987  21060  21086
                                                 21215  21464  21503  21542  21581  21620  21659  21777  21884  21910
                                                 22145  22171
 =V(SEG)       4 000039F8 00000001     V   24057 22477  22516  22555  22594  22633  22672  22775  22808  22833  22864
                                                 22887  22902  22959  22982  22997  23150  23184  23212  23445  23970
 =V(SEGCLR)
               4 00001EDC 00000001     V   16206 15958
 =V(SEGCR)
               4 00000AC4 00000001     V   10907 10772
 =V(SEGCR)
               4 000013C4 00000001     V   13241 12171  12196  12267  12292  12335  12378  12421  12464  12507  12550
                                                 12575  12619  12644  12719  12761  12877  12902  12971  12996
 =V(SEGCR)
               4 00001E68 00000001     V   16187 13582  13988  15357  15648
 =V(SEGCR)
               4 000025D8 00000001     V   17704 16513  16839  17288  17614
 =V(SEGCR)
               4 00003398 00000001     V   22286 19170  19769  19911  20245  20915  21009  21109  21237  21705  21799
1NET      (NET2025) (12:49) (15MAR04) Ordinary Symbol and Literal Cross Reference                                           Page  101
                                                 21933  22194
 =V(SEGCR)
               4 00003A00 00000001     V   24059 22718  23028  23110  23234  23553  23992
 =V(SEGDC)
               4 000013B0 00000001     V   13236 11739  12317  12360  12403  12446  12489  12532  12601  12701
 =V(SEGDC)
               4 00001ED0 00000001     V   16203 15540  15596
 =V(SEGDC)
               4 000033F4 00000001     V   22295 20698  20737  20776  20815  20854  20893  21488  21527  21566  21605
                                                 21644  21683
 =V(SEGDC)
               4 000039FC 00000001     V   24058 22501  22540  22579  22618  22657  22696
 =V(SEGHX)
               4 000013D4 00000001     V   13245 12809  12852  12946
 =V(SEGT)      4 00000A8C 00000001     V   10893  8503   8553   9770  10184  10665  10839
 =V(SEGT)      4 000013C0 00000001     V   13240 12128
 =V(SEGT)      4 00003388 00000001     V   22282 19018  19148  19527  19573  19747
 =V(SEGWR)
               4 00001EC0 00000001     V   16199 14869  15937
 =V(SEGWR)
               4 0000339C 00000001     V   22287 19192  19791  19831  20937  21031  21131  21259  21727  21821  21955
                                                 22216
 =V(SEGWR)
               4 00003A04 00000001     V   24060 22740  23050  23463  23771  24014
 =V(TOASCII)
               4 00001ECC 00000001     V   16202 15392
 =V(TREADQ)
               4 00000A94 00000001     V   10895  8579
 =V(TREADQ)
               4 0000338C 00000001     V   22283 19032  19608
 =V(XDELETE)
               4 00000AA0 00000001     V   10898  8755   8854   9713   9789   9797
 =V(XDELSET)
               4 00000AB4 00000001     V   10903  9851
 =V(XGET)      4 00000ABC 00000001     V   10905 10006  10028  10050  10464  10486
 =V(XGET)      4 00003380 00000001     V   22280 18945  19410
 =V(XGETNEXT)
               4 00000AC0 00000001     V   10906 10428
 =V(XPUT)      4 00000A6C 00000001     V   10885  8118   8747   8802   8874
 =V(XPUT)      4 000033F0 00000001     V   22294 20377  20480
 =V(XSETSET)
               4 00000A68 00000001     V   10884  8093   8704   9985  10400
 =V(XSETSET)
               4 00003378 00000001     V   22278 18861  19326  20278
 =V(YESNO)
               4 00001ED8 00000001     V   16205 15657
 =X'0D25'      2 00001EF8 00000001     X   16215 15136
 =Y((L'NSCNCB+3)/4*4)
               2 00001EF4 00000001     Y   16213 13496
 =Y((L'NSCNCB+3)/4*4)
               2 0000263C 00000001     Y   17716 16427  17182
 =Y((R1+1-(R0)+16*((R0)/(R1+1))/((R0)/(R1+1)))*4)
               2 00001EF6 00000001     Y   16214 13558  13959  14845
 =Y((R1+1-(R0)+16*((R0)/(R1+1))/((R0)/(R1+1)))*4)
               2 0000263E 00000001     Y   17717 16489  16810  17078  17264  17585
 =Y((R1+1-(R0)+16*((R0)/(R1+1))/((R0)/(R1+1)))*4)
               2 00003436 00000001     Y   22303 19887  20216
 =Y((12+3)/4*4)
               2 00000AC8 00000001     Y   10908  8252   8410   9057   9231   9583
1NET      (NET2025) (12:49) (15MAR04) Ordinary Symbol and Literal Cross Reference                                           Page  102
 =Y((12+3)/4*4)
               2 000013EC 00000001     Y   13247 11003  11634
 =Y((12+3)/4*4)
               2 00001EF2 00000001     Y   16212 13482
 =Y((12+3)/4*4)
               2 0000263A 00000001     Y   17715 16413  17168
 =Y(4)         2 0000345C 00000001     Y   22306 21262

1NET      (NET2025) (12:49) (15MAR04) Macro and Copy Code Source Summary                                                    Page  103
- Con Source                                        Volume    Members                        HLASM R4.0  2004/03/15 12.49
0     PRIMARY INPUT                                           CSECT    DROP     END      EX       LTORG    POP
                                                              PRINT    PUSH     START    USING
   L1 WYL.GS.WYL.WYLBUR.MACLIB                      SYSB05    ABORT    AINFO    BASE     COLINFO  COMMENT  CONTROL  CP
                                                              CPLOCAL  CV       CVLOCAL  ERROR    FAIL     FFINFO
                                                              HEXDUMP  JCB      KAPUT    RG       SCAN     SCANCB
                                                              SCANCHK  SCANSTR  SCCBADR  SCINIT   SCKW     SCPOP
                                                              SCPUSH   SCUPCASE TCR      THEX     TNUM     TREAD    TSEG
                                                              TTYPE    UNET     UPATH    VLTORG   XTRACE
   L2 WYL.GG.SYS.MACLIB                             SYSB05    $BC      $BFLKUP  $BV      $CCLKUP  $CRS     $CSS     $L
                                                              $LA      $LBLAD   $LEXP    $LOR     $REL     $RGLKUP
                                                              $USLKUP  ACALL    BEGIN    CEIL     CLEAR    COMPROC
                                                              CSECT    DATA     DECR     DEFCC    DROP     DTEX     ELSE
                                                              ELSEIF   END      EX       FLAG     GEN      HIBAL
                                                              IDENT    IF       INCR     LABEL    LC       LOOP     LS
                                                              LT       LTORG    MOVE     PEND     POP      PRETURN
                                                              PRINT    PROC     PUSH     QLTORG   RECORD   REG      REGS
                                                              SET      SETMSG   START    USING    VCALL    WHILE    WITH
                                                              XPROC
   L3 SYS3.IS.MACLIB                                SYSB05    DEFINE   KWR      SEG      SEGCB    SEGCLR   SEGCR
                                                              SEGDC    SEGDEF   SEGHX    SEGLD    SEGT     SEGWR    SIB
                                                              SYSDEFN  XPOP     XPUSH
   L4 SYS3.MACLIB                                   SYSB02    PATH

1NET      (NET2025) (12:49) (15MAR04) Dsect Cross Reference                                                                 Page  104
-Dsect     Length      Id       Defn                                                         HLASM R4.0  2004/03/15 12.49
0$$$@R0   00000000  FFFFFFFE     705
 $$$@R1   00000000  FFFFFFFD     718
 $$$@R10  00000000  FFFFFFF4     835
 $$$@R11  00000000  FFFFFFF3     848
 $$$@R12  00000000  FFFFFFF2     861
 $$$@R13  00000000  FFFFFFF1     874
 $$$@R14  00000000  FFFFFFF0     887
 $$$@R15  00000000  FFFFFFEF     900
 $$$@R2   00000000  FFFFFFFC     731
 $$$@R3   00000000  FFFFFFFB     744
 $$$@R4   00000000  FFFFFFFA     757
 $$$@R5   00000000  FFFFFFF9     770
 $$$@R6   00000000  FFFFFFF8     783
 $$$@R7   00000000  FFFFFFF7     796
 $$$@R8   00000000  FFFFFFF6     809
 $$$@R9   00000000  FFFFFFF5     822
 $$$RCP   00001000  FFFFFFEC    2452
 $$$RCV   00000FB0  FFFFFFEE    1177
 $$$RDEV  0000000C  FFFFFFEB    4666
 $$$RFFINFO
          000003A0  FFFFFFE4    7533
 $$$RFOPWA
          00000051  FFFFFFE0   18611
 $$$RFRDWA
          00000003  FFFFFFDF   23293
 $$$RHOSTWA
          000000E1  FFFFFFE2    7874
 $$$RJCB  000000D0  FFFFFFE9    6304
 $$$RKWR  000001F8  FFFFFFE8    6584
 $$$RNETWA
          0000017C  FFFFFFE3    7752
 $$$RNRDWA
          00000008  FFFFFFE1   14580
 $$$RNSCNCB
          000000B0  FFFFFFED    2373
 $$$RSEGCB
          0000003C  FFFFFFE5    7406
 $$$RTTYPE
          0000010C  FFFFFFEA    6197
 $$$RUNET 00000278  FFFFFFE6    6944
 $$$RUPATH
          000000B0  FFFFFFE7    6795
 HIBAL    00000000  FFFFFFFF     691

1NET      (NET2025) (12:49) (15MAR04) Using Map                                                                             Page  105
-                                                                                            HLASM R4.0  2004/03/15 12.49
   Stmt  -----Location----- Action ----------------Using----------------- Reg Max    Last  Label and Using Text
           Count      Id           Type          Value    Range     Id        Disp   Stmt
0   922  00000000  FFFFFFFF USING  ORDINARY    00000000 00001000 FFFFFFEF  15 000   20460  @R15,15
    926  00000000  FFFFFFFF USING  ORDINARY    00000000 00001000 FFFFFFF0  14 002    2168  @R14,14
    930  00000000  FFFFFFFF USING  ORDINARY    00000000 00001000 FFFFFFF1  13 000   17183  @R13,13
    934  00000000  FFFFFFFF USING  ORDINARY    00000000 00001000 FFFFFFF2  12 000          @R12,12
    938  00000000  FFFFFFFF USING  ORDINARY    00000000 00001000 FFFFFFF3  11 000          @R11,11
    942  00000000  FFFFFFFF USING  ORDINARY    00000000 00001000 FFFFFFF4  10 000          @R10,10
    946  00000000  FFFFFFFF USING  ORDINARY    00000000 00001000 FFFFFFF5   9 000          @R9,9
    950  00000000  FFFFFFFF USING  ORDINARY    00000000 00001000 FFFFFFF6   8 000          @R8,8
    954  00000000  FFFFFFFF USING  ORDINARY    00000000 00001000 FFFFFFF7   7 000          @R7,7
    958  00000000  FFFFFFFF USING  ORDINARY    00000000 00001000 FFFFFFF8   6 000          @R6,6
    962  00000000  FFFFFFFF USING  ORDINARY    00000000 00001000 FFFFFFF9   5 000          @R5,5
    966  00000000  FFFFFFFF USING  ORDINARY    00000000 00001000 FFFFFFFA   4 000          @R4,4
    970  00000000  FFFFFFFF USING  ORDINARY    00000000 00001000 FFFFFFFB   3 000          @R3,3
    974  00000000  FFFFFFFF USING  ORDINARY    00000000 00001000 FFFFFFFC   2 000          @R2,2
    978  00000000  FFFFFFFF USING  ORDINARY    00000000 00001000 FFFFFFFD   1 001   20150  @R1,1
    982  00000000  FFFFFFFF USING  ORDINARY    00000000 00001000 FFFFFFFE   0 000          @R0,0
    983  00000000  FFFFFFFF DROP                                            0              0
   1161  00000016  00000001 USING  ORDINARY    00000000 00001000 FFFFFFEC  11 F54   23778  CP,CPR
   1170  00000016  00000001 USING  ORDINARY    00000000 00001000 FFFFFFEE  12 A00   23908  CV,CVR
   7959  00000030  00000001 USING  ORDINARY    00000030 00001000 00000001   7 AD2    8118  $$$77B,7
   7973  00000030  00000001 USING  ORDINARY    FFFFFFD8 00001000 FFFFFFE2   8 08E    8123  HOSTWA-(4+36),R8
   7995  00000038  00000001 USING  ORDINARY    00000000 00001000 FFFFFFE8   5 1CC    8061  KWR,R5
   8130  000000BE  00000001 USING  ORDINARY    00000000 00001000 FFFFFFF9   5 001   13047  @R5,5
   8135  000000BE  00000001 USING  ORDINARY    00000000 00001000 FFFFFFF6   8 000          @R8,8
   8140  000000BE  00000001 USING  ORDINARY    00000000 00001000 FFFFFFF7   7 000          @R7,7
   8192  000000E6  00000001 USING  ORDINARY    000000E6 00001000 00000001   7 A9A    8874  $$$84B,7
   8206  000000E6  00000001 USING  ORDINARY    FFFFFFD8 00001000 FFFFFFE2   8 028    8210  HOSTWA-(4+36),R8
   8218  000000EA  00000001 USING  ORDINARY    00000000 00001000 FFFFFFE2   6 066    9465  HOSTWA,R6
   8896  00000362  00000001 USING  ORDINARY    00000000 00001000 FFFFFFF6   8 000          @R8,8
   8901  00000362  00000001 USING  ORDINARY    00000000 00001000 FFFFFFF7   7 000          @R7,7
   9024  00000452  00000001 USING  ORDINARY    00000452 00001000 00000001   7 734    9124  $$$103B,7
   9153  000004C6  00000001 USING  ORDINARY    00000000 00001000 FFFFFFF7   7 000          @R7,7
   9198  000004EE  00000001 USING  ORDINARY    000004EE 00001000 00000001   7 69E    9298  $$$111B,7
   9327  00000562  00000001 USING  ORDINARY    00000000 00001000 FFFFFFF7   7 000          @R7,7
   9372  0000058A  00000001 USING  ORDINARY    0000058A 00001000 00000001   7 000          $$$119B,7
   9400  00000592  00000001 USING  ORDINARY    00000000 00001000 FFFFFFF7   7 000          @R7,7
   9445  000005BA  00000001 USING  ORDINARY    000005BA 00001000 00000001   7 000          $$$122B,7
   9472  000005C2  00000001 USING  ORDINARY    00000000 00001000 FFFFFFF7   7 000          @R7,7
   9492  000005D0  00000001 USING  ORDINARY    00000000 00001000 FFFFFFF8   6 004   13046  @R6,6
   9533  000005EA  00000001 USING  ORDINARY    000005EA 00001000 00000001   7 54D    9851  $$$125B,7
   9547  000005EA  00000001 USING  ORDINARY    FFFFFFD8 00001000 FFFFFFE2   8 08E    9812  HOSTWA-(4+36),R8
   9861  00000724  00000001 USING  ORDINARY    00000000 00001000 FFFFFFF6   8 000          @R8,8
   9866  00000724  00000001 USING  ORDINARY    00000000 00001000 FFFFFFF7   7 000          @R7,7
   9918  0000074C  00000001 USING  ORDINARY    0000074C 00001000 00000001   7 415   10262  $$$133B,7
   9932  0000074C  00000001 USING  ORDINARY    FFFFFFD8 00001000 FFFFFFE2   8 0C9   10239  HOSTWA-(4+36),R8
  10277  00000870  00000001 USING  ORDINARY    00000000 00001000 FFFFFFF6   8 000          @R8,8
  10282  00000870  00000001 USING  ORDINARY    00000000 00001000 FFFFFFF7   7 000          @R7,7
  10334  00000898  00000001 USING  ORDINARY    00000898 00001000 00000001   7 2E5   10839  $$$141B,7
  10348  00000898  00000001 USING  ORDINARY    FFFFFFD8 00001000 FFFFFFE2   8 0C9   10789  HOSTWA-(4+36),R8
  10854  00000A12  00000001 USING  ORDINARY    00000000 00001000 FFFFFFF6   8 000          @R8,8
  10859  00000A12  00000001 USING  ORDINARY    00000000 00001000 FFFFFFF7   7 000          @R7,7
  10967  00000BAC  00000001 USING  ORDINARY    00000BAC 00001000 00000001   7 840   11003  $$$153B,7
  11016  00000C02  00000001 USING  ORDINARY    00000000 00001000 FFFFFFF7   7 000          @R7,7
1NET      (NET2025) (12:49) (15MAR04) Using Map                                                                             Page  106
  11154  00000D1A  00000001 USING  ORDINARY    00000D1A 00001000 00000001   7 000          $$$156B,7
  11175  00000D1E  00000001 USING  ORDINARY    00000000 00001000 FFFFFFF7   7 000          @R7,7
  11220  00000D46  00000001 USING  ORDINARY    00000D46 00001000 00000001   7 000          $$$159B,7
  11242  00000D4A  00000001 USING  ORDINARY    00000000 00001000 FFFFFFF7   7 000          @R7,7
  11287  00000D72  00000001 USING  ORDINARY    00000D72 00001000 00000001   7 626   11319  $$$162B,7
  11348  00000D92  00000001 USING  ORDINARY    00000000 00001000 FFFFFFF7   7 000          @R7,7
  11393  00000DBA  00000001 USING  ORDINARY    00000DBA 00001000 00000001   7 5DE   11425  $$$166B,7
  11453  00000DDA  00000001 USING  ORDINARY    00000000 00001000 FFFFFFF7   7 000          @R7,7
  11498  00000E02  00000001 USING  ORDINARY    00000E02 00001000 00000001   7 59A   11532  $$$170B,7
  11544  00000E18  00000001 USING  ORDINARY    00000000 00001000 FFFFFFF7   7 000          @R7,7
  11594  00000E40  00000001 USING  ORDINARY    00000E40 00001000 00000001   7 637   11764  $$$175B,7
  11773  00000EFA  00000001 USING  ORDINARY    00000000 00001000 FFFFFFF7   7 000          @R7,7
  11881  00000FC2  00000001 USING  ORDINARY    00000FC2 00001000 00000001   7 3F6   11923  $$$181B,7
  11942  00000FDE  00000001 USING  ORDINARY    00000000 00001000 FFFFFFF7   7 000          @R7,7
  11993  00001006  00000001 USING  ORDINARY    00001006 00001000 00000001   7 3B6   12030  $$$186B,7
  12040  0000101E  00000001 USING  ORDINARY    00000000 00001000 FFFFFFF7   7 000          @R7,7
  12093  00001046  00000001 USING  ORDINARY    00001046 00001000 00000001   7 4AA   13051  $$$190B,7
  13060  000012FA  00000001 USING  ORDINARY    00000000 00001000 FFFFFFF7   7 000          @R7,7
  13110  00001322  00000001 USING  ORDINARY    00001322 00001000 00000001   7 1E1   13123  $$$198B,7
  13132  0000132E  00000001 USING  ORDINARY    00000000 00001000 FFFFFFF7   7 000          @R7,7
  13182  00001356  00000001 USING  ORDINARY    00001356 00001000 00000001   7 0F0   13195  $$$201B,7
  13204  00001362  00000001 USING  ORDINARY    00000000 00001000 FFFFFFF7   7 000          @R7,7
  13311  0000153A  00000001 USING  ORDINARY    0000153A 00001000 00000001   7 B50   14124  $$$204B,7
  13328  0000153C  00000001 USING  ORDINARY    00000000 00001000 FFFFFFE4   5 114   14080  FFINFO,R5
  13353  00001554  00000001 USING  ORDINARY    00000000 00001000 FFFFFFE3   6 178   14527  NETWA,R6
  13605  0000168C  00000001 USING  ORDINARY    00000000 00001000 FFFFFFE6   4 1D0   13673  UNET,R4
  14142  000017F4  00000001 USING  ORDINARY    00000000 00001000 FFFFFFFA   4 000   15303  @R4,4
  14147  000017F4  00000001 USING  ORDINARY    00000000 00001000 FFFFFFF7   7 000          @R7,7
  14315  00001936  00000001 USING  ORDINARY    00001936 00001000 00000001   7 000          $$$230B,7
  14336  0000193A  00000001 USING  ORDINARY    00000000 00001000 FFFFFFF7   7 000          @R7,7
  14381  00001962  00000001 USING  ORDINARY    00001962 00001000 00000001   7 000          $$$233B,7
  14402  00001966  00000001 USING  ORDINARY    00000000 00001000 FFFFFFF7   7 000          @R7,7
  14447  0000198E  00000001 USING  ORDINARY    0000198E 00001000 00000001   7 000          $$$236B,7
  14468  00001992  00000001 USING  ORDINARY    00000000 00001000 FFFFFFF7   7 000          @R7,7
  14513  000019BA  00000001 USING  ORDINARY    000019BA 00001000 00000001   7 000          $$$239B,7
  14534  000019BE  00000001 USING  ORDINARY    00000000 00001000 FFFFFFF7   7 000          @R7,7
  14554  000019CC  00000001 USING  ORDINARY    00000000 00001000 FFFFFFF9   5 000          @R5,5
  14561  000019CC  00000001 USING  ORDINARY    00000000 00001000 FFFFFFF8   6 000          @R6,6
  14632  000019E6  00000001 USING  ORDINARY    000019E6 00001000 00000001   7 631   14919  $$$242B,7
  14646  000019E6  00000001 USING  ORDINARY    FFFFFFD8 00001000 FFFFFFE1   8 02C   14931  NRDWA-(4+36),R8
  14663  000019F2  00000001 USING  ORDINARY    00000000 00001000 FFFFFFE3   6 170   14932  NETWA,R6
  14945  00001AC8  00000001 USING  ORDINARY    00000000 00001000 FFFFFFF8   6 000          @R6,6
  14950  00001AC8  00000001 USING  ORDINARY    00000000 00001000 FFFFFFF6   8 000          @R8,8
  14955  00001AC8  00000001 USING  ORDINARY    00000000 00001000 FFFFFFF7   7 000          @R7,7
  15012  00001AF0  00000001 USING  ORDINARY    00001AF0 00001000 00000001   7 56A   15696  $$$254B,7
  15031  00001AF4  00000001 USING  ORDINARY    00000000 00001000 FFFFFFE3   6 16C   15441  NETWA,R6
  15409  00001C04  00000001 USING  ORDINARY    00000000 00001000 FFFFFFE6   5 104   15452  UNET,R5
  15459  00001C1E  00000001 USING  ORDINARY    00000000 00001000 FFFFFFF9   5 000          @R5,5
  15478  00001C22  00000001 USING  ORDINARY    00000000 00001000 FFFFFFE9   5 062   15504  JCB,R5
  15709  00001CC2  00000001 USING  ORDINARY    00000000 00001000 FFFFFFF9   5 000          @R5,5
  15718  00001CC2  00000001 USING  ORDINARY    00000000 00001000 FFFFFFF8   6 000          @R6,6
  15723  00001CC2  00000001 USING  ORDINARY    00000000 00001000 FFFFFFF7   7 000          @R7,7
  15778  00001CEA  00000001 USING  ORDINARY    00001CEA 00001000 00000001   7 39C   16132  $$$271B,7
  15797  00001CEE  00000001 USING  ORDINARY    00000000 00001000 FFFFFFE3   6 178   16129  NETWA,R6
  15858  00001D1A  00000001 USING  ORDINARY    00000000 00001000 FFFFFFE6   5 164   15955  UNET,R5
  15982  00001D5E  00000001 USING  ORDINARY    00000000 00001000 FFFFFFF9   5 000          @R5,5
  16047  00001D7A  00000001 USING  ORDINARY    00000000 00001000 FFFFFFE6   5 164   16066  UNET,R5
  16093  00001D96  00000001 USING  ORDINARY    00000000 00001000 FFFFFFF9   5 000          @R5,5
  16145  00001DBA  00000001 USING  ORDINARY    00000000 00001000 FFFFFFF8   6 000          @R6,6
1NET      (NET2025) (12:49) (15MAR04) Using Map                                                                             Page  107
  16150  00001DBA  00000001 USING  ORDINARY    00000000 00001000 FFFFFFF7   7 000          @R7,7
  16280  000020AA  00000001 USING  ORDINARY    000020AA 00001000 00000001   7 67A   16865  $$$283B,7
  16298  000020AE  00000001 USING  ORDINARY    00000000 00001000 FFFFFFE4   4 114   16377  FFINFO,R4
  16325  000020C6  00000001 USING  ORDINARY    00000000 00001000 FFFFFFE3   6 178   16703  NETWA,R6
  16536  000021E6  00000001 USING  ORDINARY    00000000 00001000 FFFFFFE6   5 1D0   16604  UNET,R5
  16879  000022E0  00000001 USING  ORDINARY    00000000 00001000 FFFFFFF9   5 000          @R5,5
  16884  000022E0  00000001 USING  ORDINARY    00000000 00001000 FFFFFFF8   6 000          @R6,6
  16889  000022E0  00000001 USING  ORDINARY    00000000 00001000 FFFFFFF7   7 000          @R7,7
  16908  000022EE  00000001 USING  ORDINARY    00000000 00001000 FFFFFFFA   4 000          @R4,4
  16949  00002308  00000001 USING  ORDINARY    00002308 00001000 00000001   7 3F3   16962  $$$299B,7
  16971  00002314  00000001 USING  ORDINARY    00000000 00001000 FFFFFFF7   7 000          @R7,7
  17025  0000233C  00000001 USING  ORDINARY    0000233C 00001000 00000001   7 3EE   17640  $$$302B,7
  17043  00002340  00000001 USING  ORDINARY    00000000 00001000 FFFFFFE4   4 114   17196  FFINFO,R4
  17073  00002360  00000001 USING  ORDINARY    00000000 00001000 FFFFFFE3   6 178   17478  NETWA,R6
  17311  0000249A  00000001 USING  ORDINARY    00000000 00001000 FFFFFFE6   5 1D0   17379  UNET,R5
  17654  00002594  00000001 USING  ORDINARY    00000000 00001000 FFFFFFF9   5 000          @R5,5
  17659  00002594  00000001 USING  ORDINARY    00000000 00001000 FFFFFFF8   6 000          @R6,6
  17664  00002594  00000001 USING  ORDINARY    00000000 00001000 FFFFFFF7   7 000          @R7,7
  17683  000025A2  00000001 USING  ORDINARY    00000000 00001000 FFFFFFFA   4 000          @R4,4
  17774  0000274A  00000001 USING  ORDINARY    0000274A 00001000 00000001   7 190   18081  $$$319B,7
  17793  0000274C  00000001 USING  ORDINARY    00000000 00001000 FFFFFFE4   6 320   18088  FFINFO,R6
  18115  000027E2  00000001 USING  ORDINARY    00000000 00001000 FFFFFFF8   6 000          @R6,6
  18120  000027E2  00000001 USING  ORDINARY    00000000 00001000 FFFFFFF7   7 000          @R7,7
  18178  0000280A  00000001 USING  ORDINARY    0000280A 00001000 00000001   7 0D6   18237  $$$340B,7
  18197  0000280E  00000001 USING  ORDINARY    00000000 00001000 FFFFFFE4   6 218   18244  FFINFO,R6
  18211  00002812  00000001 USING  ORDINARY    00000000 00001000 FFFFFFE3   5 00C   18244  NETWA,R5
  18263  00002826  00000001 USING  ORDINARY    00000000 00001000 FFFFFFF9   5 000          @R5,5
  18268  00002826  00000001 USING  ORDINARY    00000000 00001000 FFFFFFF8   6 000          @R6,6
  18273  00002826  00000001 USING  ORDINARY    00000000 00001000 FFFFFFF7   7 000          @R7,7
  18324  0000284E  00000001 USING  ORDINARY    0000284E 00001000 00000001   7 09E   18525  $$$346B,7
  18343  00002852  00000001 USING  ORDINARY    00000000 00001000 FFFFFFE4   6 090   18383  FFINFO,R6
  18357  00002856  00000001 USING  ORDINARY    00000000 00001000 FFFFFFE3   5 090   18532  NETWA,R5
  18559  000028B0  00000001 USING  ORDINARY    00000000 00001000 FFFFFFF9   5 000          @R5,5
  18564  000028B0  00000001 USING  ORDINARY    00000000 00001000 FFFFFFF8   6 000          @R6,6
  18569  000028B0  00000001 USING  ORDINARY    00000000 00001000 FFFFFFF7   7 000          @R7,7
  18677  0000290C  00000001 USING  ORDINARY    0000290C 00001000 00000001   7 C2C   20480  $$$359B,7
  18691  0000290C  00000001 USING  ORDINARY    FFFFFFD8 00001000 FFFFFFE0   8 069   20462  FOPWA-(4+36),R8
  18712  00002912  00000001 USING  ORDINARY    00000000 00001000 FFFFFFE3   6 16C   20471  NETWA,R6
  18756  00002938  00000001 USING  ORDINARY    00000000 00001000 FFFFFFE6   5 17C   19557  UNET,R5
  18800  0000295E  00000001 USING  ORDINARY    00000000 00001000 FFFFFFE4   4 000          FFINFO,R4
  19939  00002C82  00000001 USING  ORDINARY    00000000 00001000 FFFFFFF9   5 000          @R5,5
  19942  00002C82  00000001 USING  ORDINARY    00000000 00001000 FFFFFFE6   3 1CC   20010  UNET,R3
  20263  00002D88  00000001 USING  ORDINARY    00000000 00001000 FFFFFFE6   5 000          UNET,5
  20268  00002D88  00000001 USING  ORDINARY    00000000 00001000 FFFFFFFB   3 000          @R3,3
  20498  00002E38  00000001 USING  ORDINARY    00000000 00001000 FFFFFFFA   4 000          @R4,4
  20503  00002E38  00000001 USING  ORDINARY    00000000 00001000 FFFFFFF9   5 000          @R5,5
  20508  00002E38  00000001 USING  ORDINARY    00000000 00001000 FFFFFFF8   6 000          @R6,6
  20513  00002E38  00000001 USING  ORDINARY    00000000 00001000 FFFFFFF6   8 000          @R8,8
  20518  00002E38  00000001 USING  ORDINARY    00000000 00001000 FFFFFFF7   7 000          @R7,7
  20575  00002E60  00000001 USING  ORDINARY    00002E60 00001000 00000001   7 6A7   21273  $$$415B,7
  20593  00002E60  00000001 USING  ORDINARY    00000000 00001000 FFFFFFE3   6 168   21256  NETWA,R6
  20637  00002E86  00000001 USING  ORDINARY    00000000 00001000 FFFFFFE4   4 000          FFINFO,R4
  20656  00002E8A  00000001 USING  ORDINARY    00000000 00001000 FFFFFFE6   3 17B   20879  UNET,R3
  20681  00002E9C  00000001 DROP                                            1              1
  20685  00002EA2  00000001 USING  ORDINARY    00000000 00001000 FFFFFFFD   1 000          @R1,1
  20720  00002EC0  00000001 DROP                                            1              1
  20724  00002EC6  00000001 USING  ORDINARY    00000000 00001000 FFFFFFFD   1 000          @R1,1
  20759  00002EE4  00000001 DROP                                            1              1
  20763  00002EEA  00000001 USING  ORDINARY    00000000 00001000 FFFFFFFD   1 000          @R1,1
1NET      (NET2025) (12:49) (15MAR04) Using Map                                                                             Page  108
  20798  00002F08  00000001 DROP                                            1              1
  20802  00002F0E  00000001 USING  ORDINARY    00000000 00001000 FFFFFFFD   1 000          @R1,1
  20837  00002F2C  00000001 DROP                                            1              1
  20841  00002F32  00000001 USING  ORDINARY    00000000 00001000 FFFFFFFD   1 000          @R1,1
  20876  00002F50  00000001 DROP                                            1              1
  20880  00002F56  00000001 USING  ORDINARY    00000000 00001000 FFFFFFFD   1 000          @R1,1
  20945  00002F7A  00000001 USING  ORDINARY    00000000 00001000 FFFFFFFB   3 000          @R3,3
  21298  00003070  00000001 USING  ORDINARY    00000000 00001000 FFFFFFFA   4 000          @R4,4
  21303  00003070  00000001 USING  ORDINARY    00000000 00001000 FFFFFFF8   6 000          @R6,6
  21308  00003070  00000001 USING  ORDINARY    00000000 00001000 FFFFFFF7   7 000          @R7,7
  21365  00003098  00000001 USING  ORDINARY    00003098 00001000 00000001   7 477   21979  $$$423B,7
  21383  00003098  00000001 USING  ORDINARY    00000000 00001000 FFFFFFE3   6 168   21974  NETWA,R6
  21427  000030BE  00000001 USING  ORDINARY    00000000 00001000 FFFFFFE4   4 001   21850  FFINFO,R4
  21446  000030C2  00000001 USING  ORDINARY    00000000 00001000 FFFFFFE6   3 17B   21669  UNET,R3
  21471  000030D4  00000001 DROP                                            1              1
  21475  000030DA  00000001 USING  ORDINARY    00000000 00001000 FFFFFFFD   1 000          @R1,1
  21510  000030F8  00000001 DROP                                            1              1
  21514  000030FE  00000001 USING  ORDINARY    00000000 00001000 FFFFFFFD   1 000          @R1,1
  21549  0000311C  00000001 DROP                                            1              1
  21553  00003122  00000001 USING  ORDINARY    00000000 00001000 FFFFFFFD   1 000          @R1,1
  21588  00003140  00000001 DROP                                            1              1
  21592  00003146  00000001 USING  ORDINARY    00000000 00001000 FFFFFFFD   1 000          @R1,1
  21627  00003164  00000001 DROP                                            1              1
  21631  0000316A  00000001 USING  ORDINARY    00000000 00001000 FFFFFFFD   1 000          @R1,1
  21666  00003188  00000001 DROP                                            1              1
  21670  0000318E  00000001 USING  ORDINARY    00000000 00001000 FFFFFFFD   1 000          @R1,1
  21735  000031B2  00000001 USING  ORDINARY    00000000 00001000 FFFFFFFB   3 000          @R3,3
  21995  00003270  00000001 USING  ORDINARY    00000000 00001000 FFFFFFFA   4 000          @R4,4
  22000  00003270  00000001 USING  ORDINARY    00000000 00001000 FFFFFFF8   6 000          @R6,6
  22005  00003270  00000001 USING  ORDINARY    00000000 00001000 FFFFFFF7   7 000          @R7,7
  22061  00003298  00000001 USING  ORDINARY    00003298 00001000 00000001   7 27C   22226  $$$429B,7
  22079  00003298  00000001 USING  ORDINARY    00000000 00001000 FFFFFFE3   6 164   22213  NETWA,R6
  22123  000032BE  00000001 USING  ORDINARY    00000000 00001000 FFFFFFE4   4 000          FFINFO,R4
  22239  0000330A  00000001 USING  ORDINARY    00000000 00001000 FFFFFFFA   4 000          @R4,4
  22244  0000330A  00000001 USING  ORDINARY    00000000 00001000 FFFFFFF8   6 000          @R6,6
  22249  0000330A  00000001 USING  ORDINARY    00000000 00001000 FFFFFFF7   7 000          @R7,7
  22378  00003558  00000001 USING  ORDINARY    00003558 00001000 00000001   7 50C   23234  $$$433B,7
  22396  00003558  00000001 USING  ORDINARY    00000000 00001000 FFFFFFE3   6 168   23201  NETWA,R6
  22440  0000357E  00000001 USING  ORDINARY    00000000 00001000 FFFFFFE4   4 000          FFINFO,R4
  22459  00003582  00000001 USING  ORDINARY    00000000 00001000 FFFFFFE6   3 17B   22682  UNET,R3
  22484  00003594  00000001 DROP                                            1              1
  22488  0000359A  00000001 USING  ORDINARY    00000000 00001000 FFFFFFFD   1 000          @R1,1
  22523  000035B8  00000001 DROP                                            1              1
  22527  000035BE  00000001 USING  ORDINARY    00000000 00001000 FFFFFFFD   1 000          @R1,1
  22562  000035DC  00000001 DROP                                            1              1
  22566  000035E2  00000001 USING  ORDINARY    00000000 00001000 FFFFFFFD   1 000          @R1,1
  22601  00003600  00000001 DROP                                            1              1
  22605  00003606  00000001 USING  ORDINARY    00000000 00001000 FFFFFFFD   1 000          @R1,1
  22640  00003624  00000001 DROP                                            1              1
  22644  0000362A  00000001 USING  ORDINARY    00000000 00001000 FFFFFFFD   1 000          @R1,1
  22679  00003648  00000001 DROP                                            1              1
  22683  0000364E  00000001 USING  ORDINARY    00000000 00001000 FFFFFFFD   1 004   23718  @R1,1
  22748  00003672  00000001 USING  ORDINARY    00000000 00001000 FFFFFFFB   3 000          @R3,3
  23252  000037F0  00000001 USING  ORDINARY    00000000 00001000 FFFFFFFA   4 000          @R4,4
  23257  000037F0  00000001 USING  ORDINARY    00000000 00001000 FFFFFFF8   6 000          @R6,6
  23262  000037F0  00000001 USING  ORDINARY    00000000 00001000 FFFFFFF7   7 000          @R7,7
  23342  00003818  00000001 USING  ORDINARY    00003818 00001000 00000001   7 253   23788  $$$445B,7
  23356  00003818  00000001 USING  ORDINARY    FFFFFFE0 00001000 FFFFFFDF   8 020   23580  FRDWA-(4+28),R8
  23371  0000381E  00000001 USING  ORDINARY    00000000 00001000 FFFFFFE3   6 160   23412  NETWA,R6
1NET      (NET2025) (12:49) (15MAR04) Using Map                                                                             Page  109
  23802  0000392E  00000001 USING  ORDINARY    00000000 00001000 FFFFFFF8   6 000          @R6,6
  23807  0000392E  00000001 USING  ORDINARY    00000000 00001000 FFFFFFF6   8 000          @R8,8
  23812  0000392E  00000001 USING  ORDINARY    00000000 00001000 FFFFFFF7   7 000          @R7,7
  23864  00003956  00000001 USING  ORDINARY    00003956 00001000 00000001   7 120   24014  $$$465B,7
  23882  00003956  00000001 USING  ORDINARY    00000000 00001000 FFFFFFE3   6 164   24011  NETWA,R6
  24027  000039BA  00000001 USING  ORDINARY    00000000 00001000 FFFFFFF8   6 000          @R6,6
  24032  000039BA  00000001 USING  ORDINARY    00000000 00001000 FFFFFFF7   7 000          @R7,7

1         (NET2025) (12:49) (15MAR04) General Purpose Register Cross Reference                                              Page  110
- Register  References (M=modified, B=branch, U=USING, D=DROP, N=index)                      HLASM R4.0  2004/03/15 12.49
0    0(0)      982U   983D  2097   2165M  2165   2166M  7941   8089M  8114M  8148M  8174   8234M  8234   8243   8270M
              8270   8281M  8299M  8317   8352M  8377M  8389M  8389   8398   8399   8447M  8492M  8510M  8542M  8572M
              8572   8631   8700M  8743M  8798M  8834M  8909M  9007   9039M  9039   9048   9075M  9075   9084   9161M
              9181   9213M  9213   9222   9249M  9249   9258   9335M  9355   9408M  9428   9480M  9515   9565M  9565
              9574   9601M  9601   9618   9653M  9677M  9731M  9759M  9777M  9847M  9874M  9900   9968M  9981M 10002M
             10024M 10046M 10082M 10110M 10145M 10173M 10212M 10251M 10290M 10316  10384M 10396M 10424M 10460M 10482M
             10516M 10539M 10591M 10626M 10654M 10693M 10732M 10761M 10761  10800M 10828M 10867M 10950  10982M 10982
             10991  10992  11024M 11137  11183M 11203  11250M 11270  11356M 11376  11461M 11481  11552M 11577  11613M
             11613  11622  11623  11706M 11728M 11728  11746M 11781M 11864  11900M 11900  11914  11929  11950M 11976
             12048M 12076  12117M 12135M 12160M 12160  12185M 12185  12204M 12220M 12240M 12281M 12281  12306M 12324M
             12349M 12367M 12392M 12410M 12435M 12453M 12478M 12496M 12521M 12539M 12564M 12564  12590M 12608M 12633M
             12633  12668M 12690M 12690  12708M 12732M 12750M 12750  12773M 12798M 12816M 12841M 12866M 12866  12891M
             12891  12910M 12935M 12960M 12960  12985M 12985  13068M 13093  13124M 13140M 13165  13196M 13212M 13294
             13339M 13446M 13450  13461M 13461  13470  13471  13520M 13520  13537  13544M 13559M 13710M 13726M 13772M
             13788M 13824M 13850M 13890M 13916M 13938  13945M 13960M 14155M 14298  14344M 14364  14410M 14430  14476M
             14496  14542M 14614  14651  14688  14709M 14709  14726M 14824  14831M 14846M 14908  14934  14963M 14995
             15056  15083  15137M 15167  15183  15232M 15245M 15277M 15314M 15330M 15364M 15421M 15529M 15529  15563M
             15585M 15585  15607M 15637M 15654M 15679M 15697M 15731M 15761  15822  15926M 15926  16158M 16263  16309M
             16377M 16381  16392M 16392  16401  16402  16451M 16451  16468  16475M 16490M 16641M 16657M 16703M 16719M
             16755M 16771M 16789  16796M 16811M 16897M 16932  16963M 16979M 17008  17055  17057M 17079M 17093  17132M
             17136  17147M 17147  17156  17157  17226M 17226  17243  17250M 17265M 17416M 17432M 17478M 17494M 17530M
             17546M 17564  17571M 17586M 17672M 17757  17855M 17869  18007M 18016M 18016  18057M 18059M 18060  18061
             18128M 18161  18281M 18307  18383M 18392M 18392  18398  18399  18468M 18504  18505  18577M 18659  18737
             18781  18857M 18941M 18979M 19007M 19025M 19041  19113M 19139M 19161M 19161  19183M 19183  19322M 19406M
             19443M 19488M 19516M 19534M 19562M 19578M 19640  19712M 19738M 19760M 19760  19782M 19782  19849M 19849
             19866  19873M 19888M 19968  20047M 20063M 20109M 20125M 20161M 20177M 20195  20202M 20217M 20274M 20373M
             20476M 20526M 20558  20618  20665M 20689M 20689  20704M 20728M 20728  20743M 20767M 20767  20782M 20806M
             20806  20821M 20845M 20845  20860M 20884M 20884  20906M 20906  20928M 20928  20978M 21000M 21000  21022M
             21022  21051M 21077M 21100M 21100  21122M 21122  21206M 21228M 21228  21250M 21250  21316M 21348  21408
             21455M 21479M 21479  21494M 21518M 21518  21533M 21557M 21557  21572M 21596M 21596  21611M 21635M 21635
             21650M 21674M 21674  21696M 21696  21718M 21718  21768M 21790M 21790  21812M 21812  21840M 21860M 21901M
             21924M 21924  21946M 21946  21972M 21972  22013M 22044  22104  22136M 22162M 22185M 22185  22207M 22207
             22257M 22361  22421  22468M 22492M 22492  22507M 22531M 22531  22546M 22570M 22570  22585M 22609M 22609
             22624M 22648M 22648  22663M 22687M 22687  22709M 22709  22731M 22731  22766M 22799M 22824M 22855M 22878M
             22893M 22950M 22973M 22988M 23019M 23019  23041M 23041  23139M 23173M 23201M 23223M 23270M 23396  23434M
             23452M 23530M 23658M 23658  23680M 23698M 23698  23720M 23734M 23734  23744M 23847  23907  23961M 23983M
             23983  24005M 24005  24040M
     1(1)      978U  2097   2160M  2161M  2167M  7941   7985   8109M  8148M  8174   8230M  8243N  8280M  8298M  8351M
              8370M  8385M  8398N  8399N  8401N  8446M  8487M  8509M  8537M  8738M  8793M  8833M  8909M  9007   9035M
              9048N  9161M  9181   9209M  9222N  9335M  9355   9408M  9428   9480M  9515   9561M  9574N  9652M  9670M
              9730M  9754M  9776M  9874M  9900   9967M  9997M 10019M 10041M 10081M 10105M 10144M 10168M 10211M 10250M
             10290M 10316  10383M 10419M 10455M 10477M 10515M 10538M 10584M 10625M 10649M 10692M 10731M 10799M 10823M
             10867M 10950  10978M 10991N 10992N 10994N 11024M 11137  11183M 11203  11250M 11270  11356M 11376  11461M
             11481  11518M 11519M 11519  11552M 11577  11609M 11622N 11623N 11625N 11705M 11724M 11745M 11781M 11864
             11950M 11976  12048M 12076  12112M 12134M 12203M 12219M 12239M 12299M 12323M 12342M 12366M 12385M 12409M
             12428M 12452M 12471M 12495M 12514M 12538M 12583M 12607M 12667M 12686M 12707M 12728M 12772M 12791M 12815M
             12834M 12909M 12928M 13068M 13093  13123M 13140M 13165  13195M 13212M 13294  13320  13344  13345  13441M
             13449  13457M 13470N 13471N 13473N 13537  13543M 13559M 13594  13595  13709M 13725M 13767M 13787M 13823M
             13845M 13889M 13911M 13938  13944M 13960M 14155M 14298  14344M 14364  14410M 14430  14476M 14496  14542M
             14614  14650  14688  14824  14830M 14846M 14907  14931M 14934  14963M 14995  15056  15074M 15074  15083
             15136M 15166  15231M 15276M 15313M 15329M 15363M 15431M 15525M 15562M 15581M 15606M 15630M 15653M 15678M
             15696M 15731M 15761  15822  15961M 16072M 16158M 16263  16314  16315  16372M 16380  16388M 16401N 16402N
             16404N 16468  16474M 16490M 16525  16526  16640M 16656M 16698M 16718M 16754M 16770M 16789  16795M 16811M
             16897M 16932  16962M 16979M 17008  17055  17062  17063  17079M 17094  17127M 17135  17143M 17156N 17157N
             17159N 17243  17249M 17265M 17300  17301  17415M 17431M 17473M 17493M 17529M 17545M 17564  17570M 17586M
1         (NET2025) (12:49) (15MAR04) General Purpose Register Cross Reference                                              Page  111
             17672M 17757  17783  17850M 18002M 18055M 18128M 18161  18281M 18307  18378M 18463M 18577M 18659  18737
             18781  18809M 18936M 18978M 19002M 19024M 19112M 19134M 19204M 19401M 19442M 19487M 19511M 19533M 19557M
             19577M 19711M 19733M 19866  19872M 19888M 19923  19924  19968  20046M 20062M 20104M 20124M 20160M 20176M
             20195  20201M 20217M 20368M 20471M 20526M 20558  20618  20664M 20681D 20683M 20683  20684M 20685U 20703M
             20720D 20722M 20722  20723M 20724U 20742M 20759D 20761M 20761  20762M 20763U 20781M 20798D 20800M 20800
             20801M 20802U 20820M 20837D 20839M 20839  20840M 20841U 20859M 20876D 20878M 20878  20879M 20880U 20950M
             20977M 21034M 21050M 21072M 21136M 21205M 21316M 21348  21408  21454M 21471D 21473M 21473  21474M 21475U
             21493M 21510D 21512M 21512  21513M 21514U 21532M 21549D 21551M 21551  21552M 21553U 21571M 21588D 21590M
             21590  21591M 21592U 21610M 21627D 21629M 21629  21630M 21631U 21649M 21666D 21668M 21668  21669M 21670U
             21740M 21767M 21824M 21839M 21859M 21896M 21960M 21973M 22013M 22044  22104  22135M 22157M 22221M 22257M
             22361  22421  22467M 22484D 22486M 22486  22487M 22488U 22506M 22523D 22525M 22525  22526M 22527U 22545M
             22562D 22564M 22564  22565M 22566U 22584M 22601D 22603M 22603  22604M 22605U 22623M 22640D 22642M 22642
             22643M 22644U 22662M 22679D 22681M 22681  22682M 22683U 22753M 22765M 22798M 22819M 22854M 22873M 22892M
             22949M 22968M 22987M 23055M 23138M 23172M 23196M 23222M 23270M 23396  23433M 23451M 23529M 23678M 23718M
             23743M 23847  23907  23920M 23960M 24040M
     2(2)      974U  2097   7941   8100M  8148M  8174   8729M  8751M  8784M  8830M  8909M  9007   9161M  9181   9335M
              9355   9408M  9428   9480M  9515   9709M  9785M  9793M  9874M  9900   9988M 10010M 10032M 10290M 10316
             10410M 10446M 10468M 10867M 10950  11024M 11137  11183M 11203  11250M 11270  11356M 11376  11461M 11481
             11552M 11577  11781M 11864  11950M 11976  12048M 12076  13068M 13093  13140M 13165  13212M 13294  13337M
             13367  14155M 14298  14344M 14364  14410M 14430  14476M 14496  14542M 14614  14688  14881M 14882M 14883
             14905M 14930M 14932M 14934  14963M 14995  15056  15083  15731M 15761  15822  16158M 16263  16307M 16341
             16897M 16932  16979M 17008  17052M 17096  17672M 17757  17799M 17800  17804M 17813M 17813  17820  17888M
             17889  17893M 17902M 17902  17909  17944M 17945  17949M 17958M 17958  17965  18061M 18065M 18074M 18074
             18081  18128M 18161  18216M 18217  18221M 18230M 18230  18237  18281M 18307  18399M 18403M 18412M 18412
             18419  18505M 18509M 18518M 18518  18525  18577M 18659  18737  18781  18866M 18869  18881M 18889M 18898M
             18898  18905  18927M 19331M 19334  19346M 19354M 19363M 19363  19370  19392M 19968  20298M 20301  20313M
             20321M 20330M 20330  20337  20359M 20401M 20404  20416M 20424M 20433M 20433  20440  20462M 20526M 20558
             20618  21316M 21348  21408  22013M 22044  22104  22257M 22361  22421  23270M 23324  23396  23820M 23847
             23907  24040M
     3(3)      970U  2097   7941   8148M  8174   8909M  9007   9161M  9181   9335M  9355   9408M  9428   9480M  9515
              9874M  9900  10290M 10316  10867M 10950  11024M 11137  11183M 11203  11250M 11270  11356M 11376  11461M
             11481  11552M 11577  11781M 11864  11950M 11976  12048M 12076  13068M 13093  13140M 13165  13212M 13294
             13613M 13616  13628M 13636M 13645M 13645  13652  14155M 14298  14344M 14364  14410M 14430  14476M 14496
             14542M 14614  14688  14906M 14918  14925  14930M 14963M 14995  15056  15083  15731M 15761  15822  16158M
             16263  16544M 16547  16559M 16567M 16576M 16576  16583  16897M 16932  16979M 17008  17319M 17322  17334M
             17342M 17351M 17351  17358  17672M 17757  18128M 18161  18281M 18307  18577M 18659  18737  18781  19924M
             19942U 19968  20268U 20526M 20558  20618  20646M 20656U 20945U 21316M 21348  21408  21436M 21446U 21735U
             22013M 22044  22104  22257M 22361  22421  22449M 22459U 22748U 23270M 23324  23396  23820M 23847  23907
             24040M
     4(4)      966U  2097   7941   8148M  8174   8909M  9007   9161M  9181   9335M  9355   9408M  9428   9480M  9515
              9874M  9900  10290M 10316  10867M 10950  11024M 11137  11183M 11203  11250M 11270  11356M 11376  11461M
             11481  11552M 11577  11781M 11864  11950M 11976  12048M 12076  13068M 13093  13140M 13165  13212M 13294
             13595M 13605U 14142U 14155M 14298  14344M 14364  14410M 14430  14476M 14496  14542M 14614  14688  14907M
             14930M 14963M 14995  15056  15083  15731M 15761  15822  16158M 16263  16290M 16298U 16897M 16908U 16932
             16979M 17008  17035M 17043U 17672M 17683U 17757  18128M 18161  18281M 18307  18577M 18659  18737  18781
             18790M 18800U 19968  20498U 20526M 20558  20618  20627M 20637U 21298U 21316M 21348  21408  21417M 21427U
             21995U 22013M 22044  22104  22113M 22123U 22239U 22257M 22361  22421  22430M 22440U 23252U 23270M 23324
             23396  23820M 23847  23907  24040M
     5(5)      962U  2097   7941   7985M  7995U  8130U  8148M  8174   8909M  9007   9161M  9181   9335M  9355   9408M
              9428   9480M  9515   9874M  9900  10290M 10316  10867M 10950  11024M 11137  11183M 11203  11250M 11270
             11356M 11376  11461M 11481  11552M 11577  11606M 11606  11655M 11655  11661  11724  11781M 11864  11929M
             11931  11950M 11976  12048M 12076  12999M 13014  13047M 13068M 13093  13140M 13165  13212M 13294  13320M
             13328U 14155M 14298  14344M 14364  14410M 14430  14476M 14496  14542M 14554U 14614  14688  14908M 14918
             14925M 14930M 14963M 14995  15056  15083  15399M 15409U 15459U 15468M 15478U 15709U 15731M 15761  15822
             15842M 15843M 15843  15858U 15962  15972  15982U 16031M 16032M 16032  16047U 16073  16083  16093U 16158M
             16263  16526M 16536U 16879U 16897M 16932  16979M 17008  17301M 17311U 17654U 17672M 17757  18128M 18161
             18201M 18211U 18263U 18281M 18307  18347M 18357U 18559U 18577M 18659  18737  18746M 18756U 18781  19939U
             19968  20263U 20503U 20526M 20558  20618  21316M 21348  21408  22013M 22044  22104  22257M 22361  22421
             23067M 23067  23113M 23128M 23128  23270M 23324  23396  23820M 23847  23907  24040M
1         (NET2025) (12:49) (15MAR04) General Purpose Register Cross Reference                                              Page  112
     6(6)      958U  2097   7941   8148M  8174   8210M  8218U  8909M  9007   9161M  9181   9335M  9355   9408M  9428
              9480M  9492U  9515   9874M  9900  10290M 10316  10867M 10950  11024M 11137  11183M 11203  11250M 11270
             11356M 11376  11461M 11481  11552M 11577  11661M 11663M 11664M 11665M 11781M 11864  11950M 11976  12048M
             12076  13000M 13046M 13068M 13093  13140M 13165  13212M 13294  13345M 13353U 14155M 14298  14344M 14364
             14410M 14430  14476M 14496  14542M 14561U 14614  14653M 14663U 14688  14945U 14963M 14995  15021M 15031U
             15056  15083  15718U 15731M 15761  15787M 15797U 15822  16145U 16158M 16263  16315M 16325U 16884U 16897M
             16932  16979M 17008  17063M 17073U 17659U 17672M 17757  17783M 17793U 18115U 18128M 18161  18187M 18197U
             18268U 18281M 18307  18333M 18343U 18564U 18577M 18659  18712U 18737  18781  19968  20508U 20526M 20558
             20593U 20618  21303U 21316M 21348  21383U 21408  22000U 22013M 22044  22079U 22104  22244U 22257M 22361
             22396U 22421  23257U 23270M 23324  23371U 23396  23802U 23820M 23847  23882U 23907  24027U 24040M
     7(7)      954U  2090M  2090   2091B  2097   2103B  7941   7947M  7959U  8140U  8148M  8174   8180M  8192U  8901U
              8909M  9007   9012M  9024U  9153U  9161M  9181   9186M  9198U  9327U  9335M  9355   9360M  9372U  9400U
              9408M  9428   9433M  9445U  9472U  9480M  9515   9521M  9533U  9866U  9874M  9900   9906M  9918U 10282U
             10290M 10316  10322M 10334U 10859U 10867M 10950  10955M 10967U 11016U 11024M 11137  11142M 11154U 11175U
             11183M 11203  11208M 11220U 11242U 11250M 11270  11275M 11287U 11348U 11356M 11376  11381M 11393U 11453U
             11461M 11481  11486M 11498U 11544U 11552M 11577  11582M 11594U 11773U 11781M 11864  11869M 11881U 11942U
             11950M 11976  11981M 11993U 12040U 12048M 12076  12081M 12093U 13060U 13068M 13093  13098M 13110U 13132U
             13140M 13165  13170M 13182U 13204U 13212M 13294  13299M 13311U 14147U 14155M 14298  14303M 14315U 14336U
             14344M 14364  14369M 14381U 14402U 14410M 14430  14435M 14447U 14468U 14476M 14496  14501M 14513U 14534U
             14542M 14614  14620M 14632U 14688  14955U 14963M 14995  15000M 15012U 15056  15083  15723U 15731M 15761
             15766M 15778U 15822  16150U 16158M 16263  16268M 16280U 16889U 16897M 16932  16937M 16949U 16971U 16979M
             17008  17013M 17025U 17664U 17672M 17757  17762M 17774U 18120U 18128M 18161  18166M 18178U 18273U 18281M
             18307  18312M 18324U 18569U 18577M 18659  18665M 18677U 18737  18781  19968  20518U 20526M 20558  20563M
             20575U 20618  21308U 21316M 21348  21353M 21365U 21408  22005U 22013M 22044  22049M 22061U 22104  22249U
             22257M 22361  22366M 22378U 22421  23262U 23270M 23324  23330M 23342U 23396  23812U 23820M 23847  23852M
             23864U 23907  24032U 24040M
     8(8)      950U  2097   7941   7943M  7973U  8135U  8144   8148M  8174   8176M  8206U  8896U  8905   8909M  9007
              9008M  9157   9161M  9181   9182M  9331   9335M  9355   9356M  9404   9408M  9428   9429M  9476   9480M
              9515   9517M  9547U  9861U  9870   9874M  9900   9902M  9932U 10277U 10286  10290M 10316  10318M 10348U
             10854U 10863  10867M 10950  10951M 11020  11024M 11137  11138M 11179  11183M 11203  11204M 11246  11250M
             11270  11271M 11352  11356M 11376  11377M 11457  11461M 11481  11482M 11548  11552M 11577  11578M 11777
             11781M 11864  11865M 11931N 11946  11950M 11976  11977M 12044  12048M 12076  12077M 13064  13068M 13093
             13094M 13136  13140M 13165  13166M 13208  13212M 13294  13295M 14151  14155M 14298  14299M 14340  14344M
             14364  14365M 14406  14410M 14430  14431M 14472  14476M 14496  14497M 14538  14542M 14614  14616M 14646U
             14688  14934  14950U 14959  14963M 14995  14996M 15056  15083  15727  15731M 15761  15762M 15822  16154
             16158M 16263  16264M 16893  16897M 16932  16933M 16975  16979M 17008  17009M 17668  17672M 17757  17758M
             18124  18128M 18161  18162M 18277  18281M 18307  18308M 18573  18577M 18659  18661M 18691U 18737  18781
             19968  20513U 20522  20526M 20558  20559M 20618  21312  21316M 21348  21349M 21408  22009  22013M 22044
             22045M 22104  22253  22257M 22361  22362M 22421  23266  23270M 23324  23326M 23356U 23396  23807U 23816
             23820M 23847  23848M 23907  24036  24040M
     9(9)      946U  2097  14688  15056  15083  15822  18737  18781  19968  20618  21408  22104  22421  23396  23907
    10(A)      942U  2097  14688  15056  15083  15822  18737  18781  19968  20618  21408  22104  22421  23396  23907
    11(B)      938U  1161U  2097  14688  15056  15083  15822  18737  18781  19968  20618  21408  22104  22421  23396
             23907
    12(C)      934U  1170U  2097  14688  15056  15083  15822  18737  18781  19968  20618  21408  22104  22421  23396
             23907
    13(D)      930U  2097   7938   7941   7943   7944M  7944   8144M  8148   8150   8171   8174   8176   8177M  8177
              8238   8239   8240   8242M  8242   8252M  8253   8254   8255   8393   8394   8395   8397M  8397   8410M
              8411   8412   8413   8905M  8909   8911   9004   9007   9008   9009M  9009   9043   9044   9045   9047M
              9047   9057M  9058   9059   9060   9157M  9161   9163   9178   9181   9182   9183M  9183   9217   9218
              9219   9221M  9221   9231M  9232   9233   9234   9331M  9335   9337   9352   9355   9356   9357M  9357
              9404M  9408   9410   9425   9428   9429   9430M  9430   9476M  9480   9482   9512   9515   9517   9518M
              9518   9569   9570   9571   9573M  9573   9583M  9584   9585   9586   9870M  9874   9876   9897   9900
              9902   9903M  9903  10286M 10290  10292  10313  10316  10318  10319M 10319  10863M 10867  10869  10947
             10950  10951  10952M 10952  10986  10987  10988  10990M 10990  11003M 11004  11005  11006  11020M 11024
             11026  11134  11137  11138  11139M 11139  11179M 11183  11185  11200  11203  11204  11205M 11205  11246M
             11250  11252  11267  11270  11271  11272M 11272  11352M 11356  11358  11373  11376  11377  11378M 11378
             11457M 11461  11463  11478  11481  11482  11483M 11483  11548M 11552  11554  11574  11577  11578  11579M
             11579  11617  11618  11619  11621M 11621  11634M 11635  11636  11637  11777M 11781  11783  11861  11864
1         (NET2025) (12:49) (15MAR04) General Purpose Register Cross Reference                                              Page  113
             11865  11866M 11866  11946M 11950  11952  11973  11976  11977  11978M 11978  12044M 12048  12050  12073
             12076  12077  12078M 12078  13064M 13068  13070  13090  13093  13094  13095M 13095  13136M 13140  13142
             13162  13165  13166  13167M 13167  13208M 13212  13214  13291  13294  13295  13296M 13296  13428  13430M
             13430  13465  13466  13467  13469M 13469  13482M 13483  13484  13485  13496M 13537  13538M 13538  13558M
             13559  13938  13939M 13939  13959M 13960  14151M 14155  14157  14295  14298  14299  14300M 14300  14340M
             14344  14346  14361  14364  14365  14366M 14366  14406M 14410  14412  14427  14430  14431  14432M 14432
             14472M 14476  14478  14493  14496  14497  14498M 14498  14538M 14542  14544  14611  14614  14616  14617M
             14617  14688  14824  14825M 14825  14845M 14846  14959M 14963  14965  14992  14995  14996  14997M 14997
             15056  15083  15727M 15731  15733  15758  15761  15762  15763M 15763  15822  16154M 16158  16160  16260
             16263  16264  16265M 16265  16359  16361M 16361  16396  16397  16398  16400M 16400  16413M 16414  16415
             16416  16427M 16468  16469M 16469  16489M 16490  16789  16790M 16790  16810M 16811  16893M 16897  16899
             16929  16932  16933  16934M 16934  16975M 16979  16981  17005  17008  17009  17010M 17010  17055  17056M
             17056  17078M 17079  17114  17116M 17116  17151  17152  17153  17155M 17155  17168M 17169  17170  17171
             17182M 17243  17244M 17244  17264M 17265  17564  17565M 17565  17585M 17586  17668M 17672  17674  17754
             17757  17758  17759M 17759  18124M 18128  18130  18158  18161  18162  18163M 18163  18277M 18281  18283
             18304  18307  18308  18309M 18309  18573M 18577  18579  18656  18659  18661  18662M 18662  18737  18781
             19866  19867M 19867  19887M 19888  19968  20195  20196M 20196  20216M 20217  20522M 20526  20528  20555
             20558  20559  20560M 20560  20618  21158  21159M 21159  21262M 21263  21312M 21316  21318  21345  21348
             21349  21350M 21350  21408  22009M 22013  22015  22041  22044  22045  22046M 22046  22104  22253M 22257
             22259  22358  22361  22362  22363M 22363  22421  23266M 23270  23272  23321  23324  23326  23327M 23327
             23396  23816M 23820  23822  23844  23847  23848  23849M 23849  23907  24036M 24040  24042
    14(E)      926U  2097   2098M  2112   2113M  2114B  2116M  2117B  2137M  2138B  2142M  2143B  2145M  2146B  2148M
              2149B  2151M  2152B  2154M  2155M  2155B  2161   7938   8093M  8094M  8094B  8118M  8119M  8119B  8150M
              8153B  8171   8237M  8238   8239   8240   8246M  8247M  8247B  8250M  8253   8254   8255   8260M  8261M
              8261B  8292M  8293M  8293B  8345M  8346M  8346B  8380M  8381M  8381B  8392M  8393   8394   8395   8400M
              8401   8404M  8405M  8405B  8408M  8411   8412   8413   8418M  8419M  8419B  8458M  8459M  8459B  8503M
              8504M  8504B  8521M  8522M  8522B  8553M  8554M  8554B  8579M  8580M  8580B  8629M  8630M  8630B  8704M
              8705M  8705B  8747M  8748M  8748B  8755M  8756M  8756B  8802M  8803M  8803B  8854M  8855M  8855B  8874M
              8875M  8875B  8911M  8914B  9004   9042M  9043   9044   9045   9051M  9052M  9052B  9055M  9058   9059
              9060   9065M  9066M  9066B  9163M  9166B  9178   9216M  9217   9218   9219   9225M  9226M  9226B  9229M
              9232   9233   9234   9239M  9240M  9240B  9337M  9340B  9352   9410M  9413B  9425   9482M  9485B  9512
              9568M  9569   9570   9571   9577M  9578M  9578B  9581M  9584   9585   9586   9591M  9592M  9592B  9646M
              9647M  9647B  9680M  9681M  9681B  9713M  9714M  9714B  9742M  9743M  9743B  9770M  9771M  9771B  9789M
              9790M  9790B  9797M  9798M  9798B  9851M  9852M  9852B  9876M  9879B  9897   9946M  9947M  9947B  9985M
              9986M  9986B 10006M 10007M 10007B 10028M 10029M 10029B 10050M 10051M 10051B 10093M 10094M 10094B 10121M
             10122M 10122B 10156M 10157M 10157B 10184M 10185M 10185B 10223M 10224M 10224B 10262M 10263M 10263B 10292M
             10295B 10313  10362M 10363M 10363B 10400M 10401M 10401B 10428M 10429M 10429B 10464M 10465M 10465B 10486M
             10487M 10487B 10572M 10573M 10573B 10602M 10603M 10603B 10637M 10638M 10638B 10665M 10666M 10666B 10704M
             10705M 10705B 10743M 10744M 10744B 10772M 10773M 10773B 10811M 10812M 10812B 10839M 10840M 10840B 10869M
             10872B 10947  10985M 10986  10987  10988  10993M 10994  10997M 10998M 10998B 11001M 11004  11005  11006
             11026M 11029B 11134  11185M 11188B 11200  11252M 11255B 11267  11319M 11320M 11320B 11358M 11361B 11373
             11425M 11426M 11426B 11463M 11466B 11478  11527M 11528M 11528B 11554M 11557B 11574  11616M 11617  11618
             11619  11624M 11625  11628M 11629M 11629B 11632M 11635  11636  11637  11642M 11643M 11643B 11684M 11685M
             11685B 11717M 11718M 11718B 11739M 11740M 11740B 11764M 11765M 11765B 11783M 11786B 11861  11923M 11924M
             11924B 11952M 11955B 11973  12021M 12022M 12022B 12030M 12031M 12031B 12050M 12053B 12073  12128M 12129M
             12129B 12146M 12147M 12147B 12171M 12172M 12172B 12196M 12197M 12197B 12215M 12216M 12216B 12267M 12268M
             12268B 12292M 12293M 12293B 12317M 12318M 12318B 12335M 12336M 12336B 12360M 12361M 12361B 12378M 12379M
             12379B 12403M 12404M 12404B 12421M 12422M 12422B 12446M 12447M 12447B 12464M 12465M 12465B 12489M 12490M
             12490B 12507M 12508M 12508B 12532M 12533M 12533B 12550M 12551M 12551B 12575M 12576M 12576B 12601M 12602M
             12602B 12619M 12620M 12620B 12644M 12645M 12645B 12679M 12680M 12680B 12701M 12702M 12702B 12719M 12720M
             12720B 12736M 12737M 12737B 12761M 12762M 12762B 12784M 12785M 12785B 12809M 12810M 12810B 12827M 12828M
             12828B 12852M 12853M 12853B 12877M 12878M 12878B 12902M 12903M 12903B 12921M 12922M 12922B 12946M 12947M
             12947B 12971M 12972M 12972B 12996M 12997M 12997B 13039M 13040M 13040B 13070M 13073B 13090  13142M 13145B
             13162  13214M 13217B 13291  13335M 13336M 13336B 13342M 13343M 13343B 13370M 13371M 13371B 13427M 13428
             13448M 13449N 13450N 13454M 13454  13464M 13465  13466  13467  13472M 13473  13476M 13477M 13477B 13480M
             13483  13484  13485  13490M 13491M 13491B 13494M 13497  13502M 13503M 13503B 13508M 13509M 13509B 13512M
             13513M 13513B 13523M 13524M 13524B 13555M 13556M 13556B 13582M 13583M 13583B 13676M 13677M 13677B 13721M
             13722M 13722B 13783M 13784M 13784B 13835M 13836M 13836B 13853M 13854M 13854B 13901M 13902M 13902B 13919M
             13920M 13920B 13956M 13957M 13957B 13988M 13989M 13989B 14025M 14026M 14026B 14102M 14103M 14103B 14124M
1         (NET2025) (12:49) (15MAR04) General Purpose Register Cross Reference                                              Page  114
             14125M 14125B 14157M 14160B 14295  14346M 14349B 14361  14412M 14415B 14427  14478M 14481B 14493  14544M
             14547B 14611  14688  14689M 14749M 14750M 14750B 14772M 14773M 14773B 14842M 14843M 14843B 14869M 14870M
             14870B 14965M 14968B 14992  15056  15057M 15083  15084M 15131M 15132M 15132B 15146M 15147M 15147B 15243M
             15244M 15244B 15248M 15249M 15249B 15272M 15273M 15273B 15325M 15326M 15326B 15357M 15358M 15358B 15392M
             15393M 15393B 15444M 15445M 15445B 15540M 15541M 15541B 15574M 15575M 15575B 15596M 15597M 15597B 15618M
             15619M 15619B 15648M 15649M 15649B 15657M 15658M 15658B 15690M 15691M 15691B 15733M 15736B 15758  15822
             15823M 15937M 15938M 15938B 15958M 15959M 15959B 15965M 15966M 15966B 15975M 15976M 15976B 16013M 16014M
             16014B 16076M 16077M 16077B 16086M 16087M 16087B 16110M 16111M 16111B 16132M 16133M 16133B 16160M 16163B
             16260  16305M 16306M 16306B 16312M 16313M 16313B 16344M 16345M 16345B 16358M 16359  16379M 16380N 16381N
             16385M 16385  16395M 16396  16397  16398  16403M 16404  16407M 16408M 16408B 16411M 16414  16415  16416
             16421M 16422M 16422B 16425M 16428  16433M 16434M 16434B 16439M 16440M 16440B 16443M 16444M 16444B 16454M
             16455M 16455B 16486M 16487M 16487B 16513M 16514M 16514B 16607M 16608M 16608B 16652M 16653M 16653B 16714M
             16715M 16715B 16766M 16767M 16767B 16807M 16808M 16808B 16839M 16840M 16840B 16850M 16851M 16851B 16865M
             16866M 16866B 16899M 16902B 16929  16981M 16984B 17005  17050M 17051M 17051B 17060M 17061M 17061B 17099M
             17100M 17100B 17113M 17114  17134M 17135N 17136N 17140M 17140  17150M 17151  17152  17153  17158M 17159
             17162M 17163M 17163B 17166M 17169  17170  17171  17176M 17177M 17177B 17180M 17183  17205M 17206M 17206B
             17210M 17211M 17211B 17218M 17219M 17219B 17229M 17230M 17230B 17261M 17262M 17262B 17288M 17289M 17289B
             17382M 17383M 17383B 17427M 17428M 17428B 17489M 17490M 17490B 17541M 17542M 17542B 17582M 17583M 17583B
             17614M 17615M 17615B 17625M 17626M 17626B 17640M 17641M 17641B 17674M 17677B 17754  18130M 18133B 18158
             18283M 18286B 18304  18502M 18503M 18503B 18579M 18582B 18656  18737  18738M 18781  18782M 18812M 18813M
             18813B 18861M 18862M 18862B 18945M 18946M 18946B 18990M 18991M 18991B 19018M 19019M 19019B 19032M 19033M
             19033B 19037M 19038M 19038B 19122M 19123M 19123B 19148M 19149M 19149B 19170M 19171M 19171B 19192M 19193M
             19193B 19207M 19208M 19208B 19326M 19327M 19327B 19410M 19411M 19411B 19481M 19482M 19482B 19499M 19500M
             19500B 19527M 19528M 19528B 19545M 19546M 19546B 19573M 19574M 19574B 19608M 19609M 19609B 19636M 19637M
             19637B 19721M 19722M 19722B 19747M 19748M 19748B 19769M 19770M 19770B 19791M 19792M 19792B 19831M 19832M
             19832B 19852M 19853M 19853B 19884M 19885M 19885B 19911M 19912M 19912B 19968  19969M 20013M 20014M 20014B
             20058M 20059M 20059B 20120M 20121M 20121B 20172M 20173M 20173B 20213M 20214M 20214B 20245M 20246M 20246B
             20278M 20279M 20279B 20377M 20378M 20378B 20480M 20481M 20481B 20528M 20531B 20555  20618  20619M 20674M
             20675M 20675B 20698M 20699M 20699B 20713M 20714M 20714B 20737M 20738M 20738B 20752M 20753M 20753B 20776M
             20777M 20777B 20791M 20792M 20792B 20815M 20816M 20816B 20830M 20831M 20831B 20854M 20855M 20855B 20869M
             20870M 20870B 20893M 20894M 20894B 20915M 20916M 20916B 20937M 20938M 20938B 20953M 20954M 20954B 20987M
             20988M 20988B 21009M 21010M 21010B 21031M 21032M 21032B 21037M 21038M 21038B 21060M 21061M 21061B 21086M
             21087M 21087B 21109M 21110M 21110B 21131M 21132M 21132B 21139M 21140M 21140B 21182M 21183M 21183B 21215M
             21216M 21216B 21237M 21238M 21238B 21259M 21260M 21260B 21318M 21321B 21345  21408  21409M 21464M 21465M
             21465B 21488M 21489M 21489B 21503M 21504M 21504B 21527M 21528M 21528B 21542M 21543M 21543B 21566M 21567M
             21567B 21581M 21582M 21582B 21605M 21606M 21606B 21620M 21621M 21621B 21644M 21645M 21645B 21659M 21660M
             21660B 21683M 21684M 21684B 21705M 21706M 21706B 21727M 21728M 21728B 21743M 21744M 21744B 21777M 21778M
             21778B 21799M 21800M 21800B 21821M 21822M 21822B 21827M 21828M 21828B 21884M 21885M 21885B 21910M 21911M
             21911B 21933M 21934M 21934B 21955M 21956M 21956B 21963M 21964M 21964B 21977M 21978M 21978B 22015M 22018B
             22041  22104  22105M 22145M 22146M 22146B 22171M 22172M 22172B 22194M 22195M 22195B 22216M 22217M 22217B
             22224M 22225M 22225B 22259M 22262B 22358  22421  22422M 22477M 22478M 22478B 22501M 22502M 22502B 22516M
             22517M 22517B 22540M 22541M 22541B 22555M 22556M 22556B 22579M 22580M 22580B 22594M 22595M 22595B 22618M
             22619M 22619B 22633M 22634M 22634B 22657M 22658M 22658B 22672M 22673M 22673B 22696M 22697M 22697B 22718M
             22719M 22719B 22740M 22741M 22741B 22756M 22757M 22757B 22775M 22776M 22776B 22808M 22809M 22809B 22833M
             22834M 22834B 22864M 22865M 22865B 22887M 22888M 22888B 22902M 22903M 22903B 22959M 22960M 22960B 22982M
             22983M 22983B 22997M 22998M 22998B 23028M 23029M 23029B 23050M 23051M 23051B 23058M 23059M 23059B 23081M
             23082M 23082B 23110M 23111M 23111B 23150M 23151M 23151B 23184M 23185M 23185B 23212M 23213M 23213B 23234M
             23235M 23235B 23272M 23275B 23321  23396  23397M 23415M 23416M 23416B 23445M 23446M 23446B 23463M 23464M
             23464B 23553M 23554M 23554B 23771M 23772M 23772B 23822M 23825B 23844  23907  23908M 23923M 23924M 23924B
             23970M 23971M 23971B 23992M 23993M 23993B 24014M 24015M 24015B 24042M 24045B
    15(F)      922U  2097   8084M  8090M  8115M  8152M  8152   8256M  8256   8289M  8342M  8361M  8414M  8414   8455M
              8500M  8518M  8550M  8576M  8576   8597M  8597   8631M  8634   8646M  8655M  8664M  8664   8671   8701M
              8744M  8752M  8799M  8835M  8913M  8913   9061M  9061   9084M  9087   9099M  9108M  9117M  9117   9124
              9146M  9146   9165M  9165   9235M  9235   9258M  9261   9273M  9282M  9291M  9291   9298   9320M  9320
              9339M  9339   9412M  9412   9484M  9484   9587M  9587   9643M  9661M  9710M  9739M  9767M  9786M  9794M
              9848M  9878M  9878   9982M 10003M 10025M 10047M 10090M 10118M 10153M 10181M 10220M 10259M 10294M 10294
             10397M 10425M 10461M 10483M 10569M 10599M 10634M 10662M 10701M 10740M 10769M 10808M 10836M 10871M 10871
             11007M 11007  11028M 11028  11187M 11187  11254M 11254  11335M 11336M 11337  11341M 11341  11360M 11360
             11440M 11441M 11442  11446M 11446  11465M 11465  11537M 11537  11556M 11556  11638M 11638  11668M 11669M
1         (NET2025) (12:49) (15MAR04) General Purpose Register Cross Reference                                              Page  115
             11669  11714M 11736M 11785M 11785  11935M 11935  11954M 11954  12052M 12052  12125M 12143M 12168M 12193M
             12212M 12264M 12289M 12314M 12332M 12357M 12375M 12400M 12418M 12443M 12461M 12486M 12504M 12529M 12547M
             12572M 12598M 12616M 12641M 12676M 12698M 12716M 12733M 12758M 12781M 12806M 12824M 12849M 12874M 12899M
             12918M 12943M 12968M 12993M 13029M 13030M 13030  13072M 13072  13144M 13144  13216M 13216  13337  13372
             13394M 13395M 13396  13416M 13417M 13418  13486M 13486  13552M 13579M 13585M 13609M 13610  13673M 13718M
             13780M 13832M 13898M 13953M 13985M 13990M 14159M 14159  14348M 14348  14414M 14414  14480M 14480  14546M
             14546  14688  14731M 14786M 14786  14814M 14839M 14866M 14871M 14887M 14887  14899M 14899  14967M 14967
             15056  15083  15128M 15143M 15166M 15167M 15169M 15240M 15269M 15322M 15354M 15441M 15537M 15571M 15593M
             15615M 15645M 15687M 15735M 15735  15822  15934M 15955M 15962M 15972M 16073M 16083M 16123  16129M 16162M
             16162  16307  16346  16351M 16352M 16353  16417M 16417  16483M 16510M 16516M 16540M 16541  16604M 16649M
             16711M 16763M 16804M 16836M 16841M 16901M 16901  16983M 16983  17052  17101  17106M 17107M 17108  17172M
             17172  17258M 17285M 17291M 17315M 17316  17379M 17424M 17486M 17538M 17579M 17611M 17616M 17676M 17676
             18132M 18132  18285M 18285  18581M 18581  18737  18781  18858M 18924M 18942M 18987M 19015M 19029M 19029
             19041M 19044  19056M 19064M 19073M 19073  19080  19119M 19145M 19167M 19189M 19323M 19389M 19407M 19478M
             19496M 19524M 19542M 19570M 19605M 19605  19625M 19625  19640M 19643  19655M 19663M 19672M 19672  19679
             19718M 19744M 19766M 19788M 19828M 19881M 19908M 19914M 19968  19976M 19977  19978M 19979  19980  19981
             20010M 20055M 20117M 20169M 20210M 20242M 20247M 20275M 20356M 20374M 20459M 20477M 20490M 20490  20530M
             20530  20618  20671M 20695M 20710M 20734M 20749M 20773M 20788M 20812M 20827M 20851M 20866M 20890M 20912M
             20934M 20984M 21006M 21028M 21057M 21083M 21106M 21128M 21151  21158  21173M 21174M 21174  21212M 21234M
             21256M 21263M 21285M 21285  21320M 21320  21408  21461M 21485M 21500M 21524M 21539M 21563M 21578M 21602M
             21617M 21641M 21656M 21680M 21702M 21724M 21774M 21796M 21818M 21881M 21907M 21930M 21952M 21974M 21987M
             21987  22017M 22017  22104  22142M 22168M 22191M 22213M 22231M 22231  22261M 22261  22421  22474M 22498M
             22513M 22537M 22552M 22576M 22591M 22615M 22630M 22654M 22669M 22693M 22715M 22737M 22772M 22805M 22830M
             22861M 22884M 22899M 22956M 22979M 22994M 23025M 23047M 23078M 23107M 23147M 23181M 23209M 23231M 23244M
             23244  23274M 23274  23396  23412M 23442M 23460M 23471M 23550M 23768M 23779M 23794M 23794  23824M 23824
             23907  23935M 23935  23948  23967M 23989M 24011M 24044M 24044

1NET      (NET2025) (12:49) (15MAR04) Diagnostic Cross Reference and Assembler Summary                                      Page  116
-                                                                                            HLASM R4.0  2004/03/15 12.49
0     No Statements Flagged in this Assembly
 HIGH LEVEL ASSEMBLER, 5696-234, RELEASE 4.0, PTF P72483
0SYSTEM: OS/390 02.10.00            JOBNAME: WYL#NET     STEPNAME: ASM        PROCSTEP: (NOPROC)
0Datasets Allocated for this Assembly
  Con DDname   Dataset Name                                 Volume  Member
   P1 SYSIN    WYL.GS.WYL.WYLBUR.SOURCE                     SYSB05  NET
   L1 SYSLIB   WYL.GS.WYL.WYLBUR.MACLIB                     SYSB05
   L2          WYL.GG.SYS.MACLIB                            SYSB05
   L3          SYS3.IS.MACLIB                               SYSB05
   L4          SYS3.MACLIB                                  SYSB02
   L5          SYS1.MACLIB                                  MVSBR9
   L6          SYS1.MODGEN                                  MVSBR9
      SYSPRINT SYS04075.T124930.RA000.WYL#NET.PRINT.H01     SCR101
      SYSTERM  GG$SLP.WYL#NET.JOB03546.D0000101.?

    3668K allocated to Buffer Pool,         3053K would be required for this to be an In-Storage Assembly
    2213 Primary Input Records Read         7784 Library Records Read                  0 Work File Reads
       0 ASMAOPT Records Read              10717 Primary Print Records Written         0 Work File Writes
       0 Punch Records Written                 0 ADATA Records Written
0Assembly Start Time: 12.49.32 Stop Time: 12.49.44 Processor Time: 00.00.04.3112
 Return Code 000
