1FUNC     (FUNC2193) (12:45) (15MAR04) Ordinary Symbol and Literal Cross Reference                                          Page  297
 GTENDLN       1 00000000 00000041     T   36035 36035
 GTFNRTN       2 0000006C 00000001     H    8378  8374
 GTFRSTLN      1 00000000 00000043     T   36038 36038
 GTLASTLN      1 00000000 00000044     T   39383 39383
 GTNEXTLN      1 00000000 00000045     T   39386 39386
 GTPREVLN      1 00000000 00000046     T   39387 39387
 HIACCT        2 00003E9C 00000001     H   26486 26418
 HIBAL         1 00000000 FFFFFFFF     J     691   707    720    733    746    759    772    785    798    811    824
                                                   837    850    863    876    889    902
 HIDATA       32 00000044 FFFFFFCE     C   25721 26208  26213
 HIERR         2 00003F56 00000001     H   26741 26478
 HIFHOST     128 00000000 FFFFFFCE        25709 26063  26715M
 HIFLAG1       1 00000000 FFFFFFCE     R   25708 25709  25714  25799M
 HIFPASS      64 00000000 FFFFFFCE        25714 26257  26588M
 HIHOST        2 00003F2A 00000001     H   26675 26433
 HIKEY        64 00000004 FFFFFFCE     C   25718 26199  26521M 26582M 26649M
 HIKHOST      59 00000009 FFFFFFCE     C   25720 25800M 25949M 25962M 26077  26082  29337
 HIPASS        2 00003ECA 00000001     H   26547 26448
 HIPRT         4 00003DD4 00000001     F   26406 29338
 HIUSER        2 00003EFC 00000001     H   26614 26463
 HIWA        100 00000000 FFFFFFCE     J   25728 25750  25779U 25783  25791U 26395  26397  26398
 HIXIT         2 00003DC6 00000001     H   26375 26045B
 HWA         128 00000000 FFFFFFCD     J   26880 26901  26930U 27246  27248  27249
 HWAREA       64 00000000 FFFFFFCD     C   26872 26952M 26953M 27065M 27078M 27087  29345
 HWDATA       64 00000040 FFFFFFCD     C   26873 27096  27101
 IHB11168A
               2 00003ABC 00000001     H   25343 25334B
 IHB11168K
               4 00003A9C 00000001     F   25335 25328
 IHB11193A
               2 00003B44 00000001     H   25412 25403B
 IHB11193K
               4 00003B24 00000001     F   25404 25397
 INCATTN       2 00004494 00000001     H   28295 28139
 INCCLEAN      2 00004518 00000001     H   28493 28169
 INCECHO       2 00004544 00000001     H   28559 28184
 INCERR        2 000041A6 00000001     H   27665 27649B
 INCFORCE      2 000045F4 00000001     H   28825 28244
 INCHRDO       2 000041D4 00000001     H   27717 27576B 27655B
 INCHRERR      2 00004650 00000001     H   28953 28289
 INCHRFATTN
             128 00000000 FFFFFFCC        27273 27969  28335M
 INCHRFLG      1 00000000 FFFFFFCC     R   27269 27273  27278
 INCHRFTRAN
              64 00000000 FFFFFFCC        27278 27543  27808  28401M
 INCHRPTR      4 00000004 FFFFFFCC     A   27282 27558M 27758
 INCHRRC       4 0000000C FFFFFFCC     F   27283 27780M 27954  28037  28059
 INCHRTRM     14 00000014 FFFFFFCC     C   27286 27371M 28085
 INCHRTVL      4 00000010 FFFFFFCC     F   27285 27759  28927M
 INCHRWA      34 00000000 FFFFFFCC     J   27293 27314  27343U 27347  27355U 27363M 27363  28116  28118  28119
 INCHRXIT      6 000042BA 00000001     I   28085 27400B 27495B 27712B
 INCINT        2 000044EC 00000001     H   28427 28154
 INCNECHO      2 00004570 00000001     H   28626 28199
 INCNTYP       2 000045C8 00000001     H   28759 28229
 INCPRT        4 000042DC 00000001     F   28127 29347
 INCTMOUT      2 00004620 00000001     H   28891 28274
 INCTRAN       2 000044C0 00000001     H   28361 28259
 INCTYP        2 0000459C 00000001     H   28692 28214
 INITFUNC      2 00000018 00000001     H    8276  8272
1FUNC     (FUNC2193) (12:45) (15MAR04) Ordinary Symbol and Literal Cross Reference                                          Page  298
 INPATTN       2 00004F18 00000001     H   30820 30326
 INPBUF        2 00004FF4 00000001     H   31151 30401
 INPCLEAN      2 00004F70 00000001     H   30952 30356
 INPCONT       2 000049A2 00000001     H   29872 29732B 29811B
 INPDATN       2 000050FC 00000001     H   31550 30431
 INPECHO       2 00004F9C 00000001     H   31018 30371
 INPERR        2 00004974 00000001     H   29821 29805B
 INPEXIT       2 00004A64 00000001     H   30179 29581B 29676B 29868B
 INPFORCE      2 00005230 00000001     H   32014 30566
 INPINT        2 00004F44 00000001     H   30886 30341
 INPLF         2 00005154 00000001     H   31683 30491
 INPMAX        2 0000528C 00000001     H   32142 30641
 INPNBUF       2 00005020 00000001     H   31217 30416
 INPNDATN      2 00005128 00000001     H   31616 30446
 INPNECHO      2 00004FC8 00000001     H   31085 30386
 INPNMOD       2 000051D8 00000001     H   31882 30596
 INPNOLF       2 00005180 00000001     H   31750 30506
 INPNSTAR      2 000050D0 00000001     H   31484 30476
 INPNTYP       2 00005078 00000001     H   31351 30536
 INPPRT        4 00004AA8 00000001     F   30284 33093
 INPRUND       2 000052E4 00000001     H   32269 30656
 INPSLOW       2 000052B8 00000001     H   32203 30551
 INPSTAR       2 000050A4 00000001     H   31417 30461
 INPSTERR      2 00005320 00000001     H   32355 30671
 INPTMOUT      2 0000525C 00000001     H   32080 30626
 INPTRAN       2 000051AC 00000001     H   31816 30581
 INPTYP        2 0000504C 00000001     H   31284 30521
 INPUFMT       2 00005204 00000001     H   31948 30611
 INPUPLOW      2 00004EE8 00000001     H   30747 30311
 INPUPPER      2 00004EB8 00000001     H   30677 30296
 INSFATTN    128 00000000 FFFFFFCB        29395 30060  30860M
 INSFCASE     64 00000000 FFFFFFCB        29400 29528M 30199
 INSFLAG       1 00000000 FFFFFFCB     R   29391 29395  29400  29405
 INSFUPPER
              32 00000000 FFFFFFCB        29405 29554M 30225
 INSPTRS       4 00000004 FFFFFFCB     A   29409 29714M 29913
 INSRC         4 0000000C FFFFFFCB     F   29410 29935M 30045  30128  30150
 INSTMVAL      4 00000010 FFFFFFCB     F   29412 29914  32116M
 INSTRTRM     14 00000014 FFFFFFCB     X   29414 29506M 30242
 INSTRWA      34 00000000 FFFFFFCB     J   29421 29449  29478U 29482  29490U 29498M 29498  30273  30275  30276
 INVALID       1 00000000 00000000 A   T    2407  2407
 JCB         208 00000000 FFFFFFE8     J    6862 27985U 30076U 57336U
 JCBAFL        1 00000062 FFFFFFE8     R    6707  6711   6716   6721   6726   6731   6736   6741   6746
 JCBBFL        1 00000063 FFFFFFE8     R    6752  6756   6761   6766   6771   6776   6781   6786
 JCBBILLX      8 00000088 FFFFFFE8     D    6837  6845   6845
 JCBFATTN      2 00000062 FFFFFFE8         6741 27997M 30088M 57348M
 JCBFPATN      8 00000062 FFFFFFE8         6731 28002M 30093M
 JCBRSCF1      1 00000064 FFFFFFE8     R    6792  6796   6801   6806
 JCBSFLG1      1 00000065 FFFFFFE8     R    6812  6816   6821
 JCBWFL        1 00000060 FFFFFFE8     R    6636  6640   6645   6650   6655   6660   6665   6670   6675   6703
 JCBWWFL       1 00000061 FFFFFFE8     R    6681  6685   6690   6695   6700
 KWIO          1 00000000 0000000E     T   12668 12668  17151
 KWR         504 00000000 FFFFFFE7     J    7072 10997  11067U 11253M 11253  11254M 11254  11738M 11738  11739M 11739
                                                 15547  15623U 15633M 15633  15634M 15634  15843M 15843  15844M 15844
                                                 15957M 15957  15958M 15958  16139  16214U 16224M 16224  16225M 16225
                                                 16478  16494M 16494  16495M 16495
 KWRACCT       5 00000000 FFFFFFE7     X    6881 15859M 16469M
 KWRCRD        1 00000040 FFFFFFE7 A   U    7064 11265  15875
 KWRDSTRT      1 00000005 FFFFFFE7     U    6883  7045   7045
1FUNC     (FUNC2193) (12:45) (15MAR04) Ordinary Symbol and Literal Cross Reference                                          Page  299
 KWRGRP        2 00000003 FFFFFFE7     C    6880 11255M 15636M 15856M 16227M 16466M
 KWRIFL        1 0000000E FFFFFFE7     X    6889 11280  15892
 KWRIFVAL      1 00000080 FFFFFFE7 A   U    6890 11278  15890
 KWRMTXT      80 00000102 FFFFFFE7     X    7032 11497  11502
 KWRNAME      20 00000078 FFFFFFE7     X    7014 11368  11373
 KWRPASS       8 00000070 FFFFFFE7     X    7013 15910
 KWRSTART      4 00000000 FFFFFFE7     F    6878  7059
 KWRUSER       3 00000000 FFFFFFE7     C    6879  6881   6881  11256M 15635M 15857M 16226M 16467M
 LOWTBL        1 00000000 00000000 A   T    2415  2415
 LRTRIM        1 00000000 00000010     T   17136 17136  25668  29336  45965  51216
 LSR           8 00000008 00000001 A   #    1269  8285   8348M  8387   8518M  8565   9135M  9168   9320M  9387   9595M
                                                 10403  10463M 10489  10840M 10866  10970M 11023  11759M 11793  11957M
                                                 11984  12113M 12140  12269M 12296  12487M 12514  12643M 12731  13089M
                                                 13138  13398M 13457  14021M 14047  14116M 14142  14359M 14385  14454M
                                                 14480  14549M 14575  14644M 14693  14982M 15008  15077M 15103  15172M
                                                 15221  15523M 15576  16113M 16167  16610M 16659  17109M 17199  17741M
                                                 17795  17836M 17863  18499M 18553  18594M 18653  19102M 19156  19197M
                                                 19250  19741M 19795  19836M 19927  20772M 20797  20909M 20963  21004M
                                                 21068  21895M 21996  22042M 22062  22108M 22129  22170M 22247  22316M
                                                 22342  22411M 22438  22602M 22651  22940M 22970  23207M 23258  23919M
                                                 24000  24260M 24285  24545M 24570  24814M 24839  25024M 25075  25654M
                                                 25747  26395M 26495  26536M 26556  26603M 26623  26664M 26684  26730M
                                                 26750  26844M 26898  27246M 27311  28116M 28304  28350M 28370  28416M
                                                 28436  28482M 28502  28548M 28568  28615M 28635  28681M 28701  28748M
                                                 28768  28814M 28834  28880M 28900  28942M 28962  29003M 29039  29317M
                                                 29446  30273M 30686  30736M 30756  30809M 30829  30875M 30895  30941M
                                                 30961  31007M 31027  31074M 31094  31140M 31160  31206M 31226  31273M
                                                 31293  31340M 31360  31406M 31426  31473M 31493  31539M 31559  31605M
                                                 31625  31672M 31692  31739M 31759  31805M 31825  31871M 31891  31937M
                                                 31957  32003M 32023  32069M 32089  32131M 32151  32192M 32212  32258M
                                                 32278  32344M 32364  32405M 32438  32507M 32535  32668M 32694  32763M
                                                 32789  33075M 33150  33447M 33476  33702M 33728  34260M 34289  34520M
                                                 34581  34710M 34738  35029M 35057  35283M 35313  35694M 35722  36013M
                                                 36070  36361M 36389  36680M 36708  36999M 37025  37189M 37215  37284M
                                                 37344  38043M 38069  38209M 38235  38375M 38403  38536M 38566  38855M
                                                 38904  39167M 39201  39365M 39435  39582M 39606  39753M 39779  39848M
                                                 39898  40062M 40088  40157M 40183  40352M 40399  40715M 40783  41066M
                                                 41093  41576M 41603  42017M 42044  42476M 42503  42852M 42879  43311M
                                                 43338  43770M 43797  44223M 44277  44323M 44343  44384M 44418  44850M
                                                 44877  45357M 45384  45814M 45847  45945M 46032  46188M 46236  46583M
                                                 46643  47352M 47380  47656M 47684  47948M 47975  48137M 48167  48464M
                                                 48512  49013M 49046  49115M 49144  49270M 49296  49365M 49392  49580M
                                                 49641  50408M 50439  50743M 50769  50839M 50883  51183M 51299  51640M
                                                 51710  51884M 51911  52406M 52434  52503M 52529  52693M 52766  53044M
                                                 53094  53608M 53638  53869M 53896  54202M 54229  54536M 54564  54693M
                                                 54719  54864M 54960  55226M 55259  55329M 55355  55424M 55450  55519M
                                                 55545  55614M 55638  55785M 55809  55956M 55982  56317M 56343  56412M
                                                 56438  56507M 56581  57735M 57848  57894M 57914  57960M 57980  58026M
                                                 58046  58092M 58112  58158M 58178  58219M 58392  59233M 59260  59637M
                                                 59691  60193M
 MAKEBOOL      1 00000000 0000000B     T    9347  9347
 MAKECHAR      1 00000000 00000016     T   17155 17155
 MAKEHEX       1 00000000 00000048     T   39401 39401  51214  58245
 MAKEINT       1 00000000 00000008     T    9344  9344  17158  51212
 MAKEITOD      1 00000000 0000000F     T   12674 12674  23941  29359  33106  39395  39867  45976  51215  54894  58250
                                                 59660  60217
 MAKELNO       1 00000000 00000009     T    9345  9345  17157
 MAKELTOD      1 00000000 0000003F     T   36028 36028  39384  39866  54901  58248
 MAKENUMB      1 00000000 0000000A     T    9346  9346
1FUNC     (FUNC2193) (12:45) (15MAR04) Ordinary Symbol and Literal Cross Reference                                          Page  300
 MAKESTR       1 00000000 00000007     T    9343  9343  23942  51213
 MALL          1 00000000 00000018     T   17778 17778  18536  19139  19778  20946  21932  21980  26477  28288  30670
                                                 44260  57832
 MATFCASE    128 00000000 FFFFFFCA        37312 37497M 37820
 MATFLAG       1 00000000 FFFFFFCA     R   37308 37312  37317
 MATFSTRIP
              64 00000000 FFFFFFCA        37317 37548M 37662  37724
 MATWA         1 00000000 FFFFFFCA     J   37326 37347  37376U 37386M 38043  38045  38046
 MAXSTRLN      1 00000100 FFFFFFE4 A   N    7492  7493   7520  12662  13431  13554  14662  17132  22620  33108  33110
                                                 40374  42785  51198  51474  51658
 MILERR        1 00000000 00000000 A   T    2406  2406
 MPINT         1 00000000 00000032     T   28273 28273  30625  30640  30655
 MTOKEN        1 00000000 0000002B     T   21950 21950  21965  26417  26432  26447  26462  28138  28153  28168  28183
                                                 28198  28213  28228  28243  28258  30295  30310  30325  30340  30355
                                                 30370  30385  30400  30415  30430  30445  30460  30475  30490  30505
                                                 30520  30535  30550  30565  30580  30595  30610  44245  57757  57772
                                                 57787  57802  57817
 NBLTBL        1 00000000 00000000 A   T    2419  2419
 NOACTION      1 00000000 00000000 A   T    2409  2409
 NPARTBL       1 00000000 00000000 A   T    2413  2413
 NRESOLVE      1 00000000 00000021     T   19215 19215  21023  22208
 NSCAN         1 00000000 0000001A     T   18611 18611  19213  19853  21021  22206  29339  33094  45986  51208  58257
 NSCNCB      176 00000000 FFFFFFED     J    2678  2804  17228  17230  17309M 17310M 17355  17356  17357  17360M 17361M
                                                 17363M 17373M 17374M 17375M 17726  17892  17894  17973M 17974M 18019
                                                 18020  18021  18024M 18025M 18027M 18037M 18038M 18039M 18484  18621
                                                 18682  18684  18740M 18741M 18776M 18776  18796  18797  18798  18801M
                                                 18802M 18804M 18814M 18815M 18816M 18890M 18890  19087  19218  19279
                                                 19281  19338M 19339M 19387  19388  19389  19392M 19393M 19395M 19405M
                                                 19406M 19407M 19726  19859  19966  19968  20024M 20025M 20060M 20060
                                                 20080  20081  20082  20085M 20086M 20088M 20098M 20099M 20100M 20752
                                                 21037  21107  21109  21161M 21162M 21203M 21203  21223  21224  21225
                                                 21228M 21229M 21231M 21241M 21242M 21243M 21370M 21371M 21394  21395
                                                 21396  21399M 21400M 21402M 21412M 21413M 21414M 21875  22217  25969
                                                 25971  25990M 25991M 26006  26007  26008  26011M 26012M 26014M 26024M
                                                 26025M 26026M 26033  27368  27370  27600M 27601M 27616  27617  27618
                                                 27621M 27622M 27624M 27634M 27635M 27636M 28091  29361  29503  29505
                                                 29756M 29757M 29772  29773  29774  29777M 29778M 29780M 29790M 29791M
                                                 29792M 30248  33115  43853  43855  43906M 43907M 43922  43923  43924
                                                 43927M 43928M 43930M 43940M 43941M 43942M 44203  45997  47419  47421
                                                 47467M 47468M 47483  47484  47485  47488M 47489M 47490M 47500M 47501M
                                                 47502M 47533  47534  47636  47723  47725  47764M 47765M 47780  47781
                                                 47782  47785M 47786M 47787M 47797M 47798M 47799M 47928  51225  53133
                                                 53135  53588  54905  56638  56640  56823M 56824M 56839  56840  56841
                                                 56844M 56845M 56847M 56857M 56858M 56859M 57710  58275  59730  59732
                                                 60173  60220
 NSCNFLGS      1 00000008 FFFFFFED     R    2615  2619   2624
 NSCNKWS       4 00000028 FFFFFFED     A    2664 17355  17363M 17373M 18019  18027M 18037M 18796  18804M 18814M 19387
                                                 19395M 19405M 20080  20088M 20098M 21223  21231M 21241M 21394  21402M
                                                 21412M 26006  26014M 26024M 27616  27624M 27634M 29772  29780M 29790M
                                                 43922  43930M 43940M 47483  47490M 47500M 47780  47787M 47797M 56839
                                                 56847M 56857M
 NSCNLEN       4 00000004 FFFFFFED     F    2612 17310M 17974M 18741M 19339M 20025M 21162M 21371M 25991M 27601M 29757M
                                                 43907M 47468M 47534  47765M 56824M
 NSCNLOC       4 00000000 FFFFFFED     A    2611 17309M 17973M 18740M 19338M 20024M 21161M 21370M 25990M 27600M 29756M
                                                 43906M 47467M 47533  47764M 56823M
 NSCNMSGL      4 0000005C FFFFFFED     F    2670 18776  18776M 18776  18890  18890M 18890  20060  20060M 20060  21203
                                                 21203M 21203
 NSCNSKIP      4 00000024 FFFFFFED     A    2663 17356  17360M 17374M 18020  18024M 18038M 18797  18801M 18815M 19388
                                                 19392M 19406M 20081  20085M 20099M 21224  21228M 21242M 21395  21399M
1FUNC     (FUNC2193) (12:45) (15MAR04) Ordinary Symbol and Literal Cross Reference                                          Page  301
                                                 21413M 26007  26011M 26025M 27617  27621M 27635M 29773  29777M 29791M
                                                 43923  43927M 43941M 47484  47488M 47501M 47781  47785M 47798M 56840
                                                 56844M 56858M
 NSCNSTOP      4 00000020 FFFFFFED     A    2662 17357  17361M 17375M 18021  18025M 18039M 18798  18802M 18816M 19389
                                                 19393M 19407M 20082  20086M 20100M 21225  21229M 21243M 21396  21400M
                                                 21414M 26008  26012M 26026M 27618  27622M 27636M 29774  29778M 29792M
                                                 43924  43928M 43942M 47485  47489M 47502M 47782  47786M 47799M 56841
                                                 56845M 56859M
 NSCNTYPE      1 00000018 FFFFFFED     R    2633  2637   2642   2647   2652   2657
 PAR           9 00000009 00000001 A   #    1282 20321M 20321  20390  20409  20889M 20889
 PGETA         1 00000000 00000027     T   21027 21027
 PGETNEW       1 00000000 0000002A     T   21032 21032
 PJUNKA        1 00000000 00000029     T   21031 21031
 PNUMA         1 00000000 00000026     T   21026 21026
 PTAPPEND      1 00000000 0000003B     T   34542 34542
 PTLINE        1 00000000 0000003E     T   34546 34546
 QFRETSTR    256 00000000 FFFFFFC8     C   40374 40488  40489
 QFWA        256 00000000 FFFFFFC8     J   40381 40402  40431U 40715  40717  40718
 QUERYFC       1 00000000 0000004B     T   45966 45966
 RAR          14 0000000E 00000001 A   #    1347  2344   2345M  2346B  2348M  2349B  2369M  2370B  2374M  2375B  2377M
                                                  2378B  2380M  2381B  2383M  2384B  2386M  2387M  2387B  2393   8282
                                                  8316M  8317M  8317B  8332M  8333M  8333B  8350M  8353B  8384   8424M
                                                  8425M  8425B  8520M  8523B  8562   8626M  8627M  8627B  8654M  8655M
                                                  8655B  8672M  8673M  8673B  8714M  8715M  8715B  8742M  8743M  8743B
                                                  8760M  8761M  8761B  8807M  8808M  8808B  8855M  8856M  8856B  8903M
                                                  8904M  8904B  8951M  8952M  8952B  8999M  9000M  9000B  9088M  9089M
                                                  9089B  9115M  9116M  9116B  9137M  9140B  9165   9322M  9325B  9384
                                                  9469M  9470M  9470B  9491M  9492M  9492B  9513M  9514M  9514B  9531M
                                                  9532M  9532B  9559M  9560M  9560B  9577M  9578M  9578B  9597M  9600B
                                                 10400  10445M 10446M 10446B 10465M 10468B 10486  10519M 10520M 10520B
                                                 10618M 10619M 10619B 10842M 10845B 10863  10896M 10897M 10897B 10972M
                                                 10975B 11020  11074M 11075M 11075B 11212M 11213M 11213B 11223M 11224M
                                                 11224B 11268M 11269M 11269B 11302M 11303M 11303B 11604M 11605M 11605B
                                                 11615M 11616M 11616B 11761M 11764B 11790  11823M 11824M 11824B 11959M
                                                 11962B 11981  12014M 12015M 12015B 12085M 12086M 12086B 12115M 12118B
                                                 12137  12170M 12171M 12171B 12241M 12242M 12242B 12271M 12274B 12293
                                                 12326M 12327M 12327B 12489M 12492B 12511  12544M 12545M 12545B 12615M
                                                 12616M 12616B 12645M 12648B 12728  12780M 12781M 12781B 12853M 12854M
                                                 12854B 12948M 12949M 12949B 12959M 12960M 12960B 13091M 13094B 13135
                                                 13179M 13180M 13180B 13221M 13222M 13222B 13226M 13227M 13227B 13400M
                                                 13403B 13454  13497M 13498M 13498B 14023M 14026B 14044  14089M 14090M
                                                 14090B 14100M 14101M 14101B 14118M 14121B 14139  14172M 14173M 14173B
                                                 14249M 14250M 14250B 14361M 14364B 14382  14427M 14428M 14428B 14438M
                                                 14439M 14439B 14456M 14459B 14477  14522M 14523M 14523B 14533M 14534M
                                                 14534B 14551M 14554B 14572  14617M 14618M 14618B 14628M 14629M 14629B
                                                 14646M 14649B 14690  14742M 14743M 14743B 14866M 14867M 14867B 14984M
                                                 14987B 15005  15050M 15051M 15051B 15061M 15062M 15062B 15079M 15082B
                                                 15100  15145M 15146M 15146B 15156M 15157M 15157B 15174M 15177B 15218
                                                 15263M 15264M 15264B 15381M 15382M 15382B 15525M 15528B 15573  15645M
                                                 15646M 15646B 15764M 15765M 15765B 15878M 15879M 15879B 15939M 15940M
                                                 15940B 16115M 16118B 16164  16236M 16237M 16237B 16291M 16292M 16292B
                                                 16302M 16303M 16303B 16348M 16349M 16349B 16481M 16482M 16482B 16612M
                                                 16615B 16656  16708M 16709M 16709B 16771M 16772M 16772B 16782M 16783M
                                                 16783B 16795M 16796M 16796B 16921M 16922M 16922B 16942M 16943M 16943B
                                                 16954M 16955M 16955B 17076M 17077M 17077B 17111M 17114B 17196  17235M
                                                 17236M 17236B 17325M 17326M 17326B 17366M 17367M 17367B 17414M 17415M
                                                 17415B 17436M 17437M 17437B 17743M 17746B 17792  17838M 17841B 17860
                                                 17899M 17900M 17900B 17989M 17990M 17990B 18030M 18031M 18031B 18078M
                                                 18079M 18079B 18105M 18106M 18106B 18501M 18504B 18550  18596M 18599B
1FUNC     (FUNC2193) (12:45) (15MAR04) Ordinary Symbol and Literal Cross Reference                                          Page  302
                                                 18650  18689M 18690M 18690B 18756M 18757M 18757B 18807M 18808M 18808B
                                                 18838M 18839M 18839B 18870M 18871M 18871B 18907M 18908M 18908B 19104M
                                                 19107B 19153  19199M 19202B 19247  19286M 19287M 19287B 19357M 19358M
                                                 19358B 19398M 19399M 19399B 19446M 19447M 19447B 19469M 19470M 19470B
                                                 19743M 19746B 19792  19838M 19841B 19924  19973M 19974M 19974B 20040M
                                                 20041M 20041B 20091M 20092M 20092B 20122M 20123M 20123B 20175M 20176M
                                                 20176B 20205M 20206M 20206B 20256M 20257M 20257B 20331M 20332M 20332B
                                                 20362M 20363M 20363B 20486M 20487M 20487B 20556M 20557M 20557B 20774M
                                                 20777B 20794  20866M 20867M 20867B 20911M 20914B 20960  21006M 21009B
                                                 21065  21114M 21115M 21115B 21183M 21184M 21184B 21234M 21235M 21235B
                                                 21265M 21266M 21266B 21291M 21292M 21292B 21405M 21406M 21406B 21439M
                                                 21440M 21440B 21449M 21450M 21450B 21897M 21900B 21993  22044M 22047B
                                                 22059  22110M 22113B 22126  22172M 22175B 22244  22289M 22290M 22290B
                                                 22300M 22301M 22301B 22318M 22321B 22339  22384M 22385M 22385B 22395M
                                                 22396M 22396B 22413M 22416B 22435  22468M 22469M 22469B 22604M 22607B
                                                 22648  22700M 22701M 22701B 22824M 22825M 22825B 22942M 22945B 22967
                                                 23010M 23011M 23011B 23174M 23175M 23175B 23209M 23212B 23255  23299M
                                                 23300M 23300B 23327M 23328M 23328B 23416M 23417M 23417B 23469M 23470M
                                                 23470B 23921M 23924B 23997  24041M 24042M 24042B 24083M 24084M 24084B
                                                 24088M 24089M 24089B 24262M 24265B 24282  24326M 24327M 24327B 24368M
                                                 24369M 24369B 24373M 24374M 24374B 24425M 24426M 24426B 24547M 24550B
                                                 24567  24611M 24612M 24612B 24653M 24654M 24654B 24658M 24659M 24659B
                                                 24678M 24679M 24679B 24816M 24819B 24836  24880M 24881M 24881B 25026M
                                                 25029B 25072  25116M 25117M 25117B 25369M 25370M 25370B 25440M 25441M
                                                 25441B 25656M 25659B 25744  25805M 25806M 25806B 25868M 25869M 25869B
                                                 26017M 26018M 26018B 26170M 26171M 26171B 26194M 26195M 26195B 26217M
                                                 26218M 26218B 26359M 26360M 26360B 26397M 26400B 26492  26538M 26541B
                                                 26553  26605M 26608B 26620  26666M 26669B 26681  26732M 26735B 26747
                                                 26798M 26799M 26799B 26816M 26817M 26817B 26827M 26828M 26828B 26846M
                                                 26849B 26895  26939M 26940M 26940B 26984M 26985M 26985B 27084M 27085M
                                                 27085B 27105M 27106M 27106B 27215M 27216M 27216B 27248M 27251B 27308
                                                 27398M 27399M 27399B 27551M 27552M 27552B 27627M 27628M 27628B 27680M
                                                 27681M 27681B 27698M 27699M 27699B 27709M 27710M 27710B 27751M 27752M
                                                 27752B 27778M 27779M 27779B 28077M 28078M 28078B 28118M 28121B 28301
                                                 28352M 28355B 28367  28418M 28421B 28433  28484M 28487B 28499  28550M
                                                 28553B 28565  28617M 28620B 28632  28683M 28686B 28698  28750M 28753B
                                                 28765  28816M 28819B 28831  28882M 28885B 28897  28944M 28947B 28959
                                                 29005M 29008B 29036  29069M 29070M 29070B 29289M 29290M 29290B 29319M
                                                 29322B 29443  29579M 29580M 29580B 29783M 29784M 29784B 29836M 29837M
                                                 29837B 29854M 29855M 29855B 29865M 29866M 29866B 29906M 29907M 29907B
                                                 29933M 29934M 29934B 30168M 30169M 30169B 30275M 30278B 30683  30738M
                                                 30741B 30753  30811M 30814B 30826  30877M 30880B 30892  30943M 30946B
                                                 30958  31009M 31012B 31024  31076M 31079B 31091  31142M 31145B 31157
                                                 31208M 31211B 31223  31275M 31278B 31290  31342M 31345B 31357  31408M
                                                 31411B 31423  31475M 31478B 31490  31541M 31544B 31556  31607M 31610B
                                                 31622  31674M 31677B 31689  31741M 31744B 31756  31807M 31810B 31822
                                                 31873M 31876B 31888  31939M 31942B 31954  32005M 32008B 32020  32071M
                                                 32074B 32086  32133M 32136B 32148  32194M 32197B 32209  32260M 32263B
                                                 32275  32346M 32349B 32361  32407M 32410B 32435  32480M 32481M 32481B
                                                 32491M 32492M 32492B 32509M 32512B 32532  32565M 32566M 32566B 32636M
                                                 32637M 32637B 32648M 32649M 32649B 32670M 32673B 32691  32736M 32737M
                                                 32737B 32747M 32748M 32748B 32765M 32768B 32786  32819M 32820M 32820B
                                                 32893M 32894M 32894B 32957M 32958M 32958B 32968M 32969M 32969B 33077M
                                                 33080B 33147  33180M 33181M 33181B 33257M 33258M 33258B 33268M 33269M
                                                 33269B 33355M 33356M 33356B 33449M 33452B 33473  33506M 33507M 33507B
                                                 33588M 33589M 33589B 33704M 33707B 33725  33758M 33759M 33759B 33835M
                                                 33836M 33836B 33846M 33847M 33847B 33924M 33925M 33925B 33935M 33936M
                                                 33936B 33976M 33977M 33977B 33987M 33988M 33988B 34048M 34049M 34049B
                                                 34081M 34082M 34082B 34142M 34143M 34143B 34262M 34265B 34286  34319M
1FUNC     (FUNC2193) (12:45) (15MAR04) Ordinary Symbol and Literal Cross Reference                                          Page  303
                                                 34320M 34320B 34406M 34407M 34407B 34522M 34525B 34578  34611M 34612M
                                                 34612B 34682M 34683M 34683B 34712M 34715B 34735  34770M 34771M 34771B
                                                 34838M 34839M 34839B 34883M 34884M 34884B 34933M 34934M 34934B 34995M
                                                 34996M 34996B 35031M 35034B 35054  35089M 35090M 35090B 35155M 35156M
                                                 35156B 35199M 35200M 35200B 35249M 35250M 35250B 35285M 35288B 35310
                                                 35343M 35344M 35344B 35404M 35405M 35405B 35479M 35480M 35480B 35579M
                                                 35580M 35580B 35696M 35699B 35719  35754M 35755M 35755B 35822M 35823M
                                                 35823B 35867M 35868M 35868B 35917M 35918M 35918B 35979M 35980M 35980B
                                                 36015M 36018B 36067  36102M 36103M 36103B 36170M 36171M 36171B 36215M
                                                 36216M 36216B 36265M 36266M 36266B 36327M 36328M 36328B 36363M 36366B
                                                 36386  36421M 36422M 36422B 36489M 36490M 36490B 36534M 36535M 36535B
                                                 36584M 36585M 36585B 36646M 36647M 36647B 36682M 36685B 36705  36740M
                                                 36741M 36741B 36808M 36809M 36809B 36853M 36854M 36854B 36903M 36904M
                                                 36904B 36965M 36966M 36966B 37001M 37004B 37022  37055M 37056M 37056B
                                                 37191M 37194B 37212  37257M 37258M 37258B 37268M 37269M 37269B 37286M
                                                 37289B 37341  37392M 37393M 37393B 37592M 37593M 37593B 37610M 37611M
                                                 37611B 37621M 37622M 37622B 38045M 38048B 38066  38099M 38100M 38100B
                                                 38211M 38214B 38232  38265M 38266M 38266B 38377M 38380B 38400  38433M
                                                 38434M 38434B 38504M 38505M 38505B 38516M 38517M 38517B 38538M 38541B
                                                 38563  38596M 38597M 38597B 38627M 38628M 38628B 38655M 38656M 38656B
                                                 38750M 38751M 38751B 38827M 38828M 38828B 38857M 38860B 38901  38946M
                                                 38947M 38947B 38994M 38995M 38995B 39005M 39006M 39006B 39018M 39019M
                                                 39019B 39047M 39048M 39048B 39058M 39059M 39059B 39130M 39131M 39131B
                                                 39142M 39143M 39143B 39169M 39172B 39198  39231M 39232M 39232B 39367M
                                                 39370B 39432  39466M 39467M 39467B 39509M 39510M 39510B 39548M 39549M
                                                 39549B 39584M 39587B 39603  39637M 39638M 39638B 39680M 39681M 39681B
                                                 39719M 39720M 39720B 39755M 39758B 39776  39821M 39822M 39822B 39832M
                                                 39833M 39833B 39850M 39853B 39895  39928M 39929M 39929B 40064M 40067B
                                                 40085  40130M 40131M 40131B 40141M 40142M 40142B 40159M 40162B 40180
                                                 40213M 40214M 40214B 40243M 40244M 40244B 40354M 40357B 40396  40440M
                                                 40441M 40441B 40477M 40478M 40478B 40495M 40496M 40496B 40684M 40685M
                                                 40685B 40717M 40720B 40780  40831M 40832M 40832B 40882M 40883M 40883B
                                                 40920M 40921M 40921B 40926M 40927M 40927B 40943M 40944M 40944B 41068M
                                                 41071B 41090  41141M 41142M 41142B 41197M 41198M 41198B 41234M 41235M
                                                 41235B 41301M 41302M 41302B 41312M 41313M 41313B 41423M 41424M 41424B
                                                 41434M 41435M 41435B 41498M 41499M 41499B 41537M 41538M 41538B 41578M
                                                 41581B 41600  41651M 41652M 41652B 41703M 41704M 41704B 41740M 41741M
                                                 41741B 41746M 41747M 41747B 41794M 41795M 41795B 41805M 41806M 41806B
                                                 41858M 41859M 41859B 42019M 42022B 42041  42092M 42093M 42093B 42144M
                                                 42145M 42145B 42181M 42182M 42182B 42219M 42220M 42220B 42230M 42231M
                                                 42231B 42283M 42284M 42284B 42446M 42447M 42447B 42478M 42481B 42500
                                                 42551M 42552M 42552B 42603M 42604M 42604B 42640M 42641M 42641B 42678M
                                                 42679M 42679B 42689M 42690M 42690B 42789M 42790M 42790B 42854M 42857B
                                                 42876  42927M 42928M 42928B 42979M 42980M 42980B 43016M 43017M 43017B
                                                 43054M 43055M 43055B 43065M 43066M 43066B 43118M 43119M 43119B 43281M
                                                 43282M 43282B 43313M 43316B 43335  43386M 43387M 43387B 43438M 43439M
                                                 43439B 43475M 43476M 43476B 43513M 43514M 43514B 43524M 43525M 43525B
                                                 43577M 43578M 43578B 43740M 43741M 43741B 43772M 43775B 43794  43861M
                                                 43862M 43862B 43933M 43934M 43934B 43992M 43993M 43993B 44021M 44022M
                                                 44022B 44042M 44043M 44043B 44120M 44121M 44121B 44185M 44186M 44186B
                                                 44225M 44228B 44274  44325M 44328B 44340  44386M 44389B 44415  44466M
                                                 44467M 44467B 44518M 44519M 44519B 44555M 44556M 44556B 44593M 44594M
                                                 44594B 44604M 44605M 44605B 44657M 44658M 44658B 44820M 44821M 44821B
                                                 44852M 44855B 44874  44925M 44926M 44926B 44977M 44978M 44978B 45014M
                                                 45015M 45015B 45052M 45053M 45053B 45063M 45064M 45064B 45115M 45116M
                                                 45116B 45166M 45167M 45167B 45359M 45362B 45381  45432M 45433M 45433B
                                                 45484M 45485M 45485B 45521M 45522M 45522B 45527M 45528M 45528B 45575M
                                                 45576M 45576B 45586M 45587M 45587B 45655M 45656M 45656B 45816M 45819B
                                                 45844  45885M 45886M 45886B 45947M 45950B 46029  46062M 46063M 46063B
1FUNC     (FUNC2193) (12:45) (15MAR04) Ordinary Symbol and Literal Cross Reference                                          Page  304
                                                 46190M 46193B 46233  46285M 46286M 46286B 46358M 46359M 46359B 46449M
                                                 46450M 46450B 46460M 46461M 46461B 46585M 46588B 46640  46691M 46692M
                                                 46692B 46891M 46892M 46892B 46909M 46910M 46910B 46920M 46921M 46921B
                                                 47354M 47357B 47377  47426M 47427M 47427B 47493M 47494M 47494B 47658M
                                                 47661B 47681  47730M 47731M 47731B 47790M 47791M 47791B 47950M 47953B
                                                 47972  48005M 48006M 48006B 48139M 48142B 48164  48197M 48198M 48198B
                                                 48229M 48230M 48230B 48257M 48258M 48258B 48347M 48348M 48348B 48466M
                                                 48469B 48509  48554M 48555M 48555B 48611M 48612M 48612B 48622M 48623M
                                                 48623B 48634M 48635M 48635B 48656M 48657M 48657B 48815M 48816M 48816B
                                                 48837M 48838M 48838B 48851M 48852M 48852B 48881M 48882M 48882B 48892M
                                                 48893M 48893B 49015M 49018B 49043  49088M 49089M 49089B 49099M 49100M
                                                 49100B 49117M 49120B 49141  49174M 49175M 49175B 49242M 49243M 49243B
                                                 49272M 49275B 49293  49338M 49339M 49339B 49349M 49350M 49350B 49367M
                                                 49370B 49389  49422M 49423M 49423B 49465M 49466M 49466B 49469M 49470M
                                                 49470B 49582M 49585B 49638  49699M 49700M 49700B 49780M 49781M 49781B
                                                 49791M 49792M 49792B 50003M 50004M 50004B 50021M 50022M 50022B 50032M
                                                 50033M 50033B 50104M 50105M 50105B 50115M 50116M 50116B 50410M 50413B
                                                 50436  50469M 50470M 50470B 50535M 50536M 50536B 50660M 50661M 50661B
                                                 50745M 50748B 50766  50811M 50812M 50812B 50822M 50823M 50823B 50841M
                                                 50844B 50880  50923M 50924M 50924B 51042M 51043M 51043B 51185M 51188B
                                                 51296  51339M 51340M 51340B 51459M 51460M 51460B 51491M 51492M 51492B
                                                 51642M 51645B 51707  51740M 51741M 51741B 51780M 51781M 51781B 51886M
                                                 51889B 51908  51951M 51952M 51952B 52157M 52158M 52158B 52408M 52411B
                                                 52431  52476M 52477M 52477B 52487M 52488M 52488B 52505M 52508B 52526
                                                 52559M 52560M 52560B 52695M 52698B 52763  52806M 52807M 52807B 52932M
                                                 52933M 52933B 53046M 53049B 53091  53168M 53169M 53169B 53180M 53181M
                                                 53181B 53225M 53226M 53226B 53260M 53261M 53261B 53385M 53386M 53386B
                                                 53565M 53566M 53566B 53610M 53613B 53635  53678M 53679M 53679B 53836M
                                                 53837M 53837B 53871M 53874B 53893  53937M 53938M 53938B 54005M 54006M
                                                 54006B 54016M 54017M 54017B 54058M 54059M 54059B 54069M 54070M 54070B
                                                 54085M 54086M 54086B 54204M 54207B 54226  54270M 54271M 54271B 54338M
                                                 54339M 54339B 54349M 54350M 54350B 54391M 54392M 54392B 54402M 54403M
                                                 54403B 54418M 54419M 54419B 54538M 54541B 54561  54594M 54595M 54595B
                                                 54665M 54666M 54666B 54695M 54698B 54716  54749M 54750M 54750B 54791M
                                                 54792M 54792B 54830M 54831M 54831B 54866M 54869B 54957  55009M 55010M
                                                 55010B 55057M 55058M 55058B 55068M 55069M 55069B 55081M 55082M 55082B
                                                 55110M 55111M 55111B 55121M 55122M 55122B 55193M 55194M 55194B 55228M
                                                 55231B 55256  55301M 55302M 55302B 55312M 55313M 55313B 55331M 55334B
                                                 55352  55397M 55398M 55398B 55408M 55409M 55409B 55426M 55429B 55447
                                                 55492M 55493M 55493B 55503M 55504M 55504B 55521M 55524B 55542  55587M
                                                 55588M 55588B 55598M 55599M 55599B 55616M 55619B 55635  55669M 55670M
                                                 55670B 55712M 55713M 55713B 55751M 55752M 55752B 55787M 55790B 55806
                                                 55840M 55841M 55841B 55883M 55884M 55884B 55922M 55923M 55923B 55958M
                                                 55961B 55979  56012M 56013M 56013B 56108M 56109M 56109B 56193M 56194M
                                                 56194B 56319M 56322B 56340  56385M 56386M 56386B 56396M 56397M 56397B
                                                 56414M 56417B 56435  56480M 56481M 56481B 56491M 56492M 56492B 56509M
                                                 56512B 56578  56646M 56647M 56647B 56850M 56851M 56851B 56903M 56904M
                                                 56904B 56921M 56922M 56922B 56932M 56933M 56933B 57019M 57020M 57020B
                                                 57030M 57031M 57031B 57140M 57141M 57141B 57166M 57167M 57167B 57263M
                                                 57264M 57264B 57283M 57284M 57284B 57483M 57484M 57484B 57543M 57544M
                                                 57544B 57607M 57608M 57608B 57737M 57740B 57845  57896M 57899B 57911
                                                 57962M 57965B 57977  58028M 58031B 58043  58094M 58097B 58109  58160M
                                                 58163B 58175  58221M 58224B 58389  58440M 58441M 58441B 58525M 58526M
                                                 58526B 58558M 58559M 58559B 58910M 58911M 58911B 58993M 58994M 58994B
                                                 59045M 59046M 59046B 59076M 59077M 59077B 59195M 59196M 59196B 59235M
                                                 59238B 59257  59341M 59342M 59342B 59639M 59641B 59688  59765M 59766M
                                                 59766B 59777M 59778M 59778B 59885M 59886M 59886B 59924M 59925M 59925B
                                                 59963M 59964M 59964B 59983M 59984M 59984B 60142M 60143M 60143B 60195M
                                                 60198B
1FUNC     (FUNC2193) (12:45) (15MAR04) Ordinary Symbol and Literal Cross Reference                                          Page  305
 RECDRG        4 00000008 FFFFFFC7     A   40743 40914M 40917  40923  40940  41229M 41231  41495  41735M 41737  41743
                                                 41854  42176M 42178  42280  42635M 42637  42786  43011M 43013  43115
                                                 43470M 43472  43574  43984M 43989  44018  44039  44550M 44552  44654
                                                 45009M 45011  45112  45163  45516M 45518  45524  45652
 RECFLAG       1 00000000 FFFFFFC7     R   40734 40738
 RECFPUB     128 00000000 FFFFFFC7        40738 43972  44071  44308M
 RECKDATA     31 0000000D FFFFFFC7     X   40747 41246M 41246  41321M 41348M 41841M 42266M 42304  42309  42725M 43101M
                                                 43139  43144  43560M 43598  43603  44640M 44678  44683  45099M 45622M
                                                 45972
 RECKDAT2     31 0000002D FFFFFFC7     X   40751 41368M 41443M 41470M 45974  46002
 RECKEY       32 0000000C FFFFFFC7     C   40745 40746  40747  40747  41489  41814M 41855  42239M 42279  42320M 42320
                                                 42698M 42742  43074M 43114  43155M 43155  43533M 43573  43614M 43614
                                                 44033M 44033  44038  44613M 44653  44694M 44694  45072M 45149  45595M
                                                 45635  45875  45881
 RECKEY2      32 0000002C FFFFFFC7     C   40749 40750  40751  40751  41490
 RECKPFX       1 0000000C FFFFFFC7     X   40746 41239M
 RECKPFX2      1 0000002C FFFFFFC7     X   40750 41367M
 RECNARGS      4 00000004 FFFFFFC7     F   40742 41154M 41260  41382
 RECOPCHK      2 00007544 00000001     H   45838 45969
 RECWA        76 00000000 FFFFFFC7     J   40759 40786  40815U 40825M 40825  41066  41068  41069  41096  41125U 41135M
                                                 41135  41576  41578  41579  41606  41635U 41645M 41645  42017  42019
                                                 42020  42047  42076U 42086M 42086  42476  42478  42479  42506  42535U
                                                 42545M 42545  42852  42854  42855  42882  42911U 42921M 42921  43311
                                                 43313  43314  43341  43370U 43380M 43380  43770  43772  43773  43800
                                                 43829U 43833  43841U 43849M 43849  44223  44225  44226  44421  44450U
                                                 44460M 44460  44850  44852  44853  44880  44909U 44919M 44919  45357
                                                 45359  45360  45387  45416U 45426M 45426  45814  45816  45817
 RETFNAME      1 00000000 00000024     T   21024 21024
 RIGHTPAD      1 00000000 FFFFFFC6     C   46209 46279M 46488M 46534
 RIGHTPDL      2 00000002 FFFFFFC6     H   46210 46393M 46529
 RIGHTWA       6 00000000 FFFFFFC6     J   46218 46239  46268U 46278M 46278  46583  46585  46586
 RMATFCASE
             128 00000000 FFFFFFC5        46611 46796M 47129
 RMATFLAG      1 00000000 FFFFFFC5     R   46607 46611  46616
 RMATFSTRIP
              64 00000000 FFFFFFC5        46616 46847M 46961  47027
 RMATWA        1 00000000 FFFFFFC5     J   46625 46646  46675U 46685M 47352  47354  47355
 ROPNBAD       2 000071C8 00000001     H   44334 44261
 ROPNERR       2 0000710E 00000001     H   44145 43955B 44055B
 ROPNEXIT      4 0000712E 00000001     I   44200 44139B 44195B
 ROPNPRT       4 0000714C 00000001     F   44234 45985
 ROPNPUB       2 0000719C 00000001     H   44268 44246
 RTNENTRY     20 00000000 FFFFFFDE     J    8116  8327   8450U
 RTNNAME      16 00000000 FFFFFFDE     C    8107  8128   8129   8328   8469
 RTNPTR        4 00000010 FFFFFFDE     A    8109  8462M  8462   8468   8468
 R0            0 00000000 FFFFFFFF A   #     699  2329   2398M  8313M  8321M  8414   8418M  8604   8615M  8643M  8661M
                                                  8692   8703M  8731M  8749M  8782   9066   9066   9077M  9218M  9218
                                                  9219   9240M  9240   9241   9458M  9458   9480M  9502M  9502   9520M
                                                  9548M  9566M 10434M 10571  11163M 11177  11201M 11228M 11228  11291M
                                                 11309M 11309  11326M 11341  11373M 11375  11435M 11436M 11470  11502M
                                                 11504  11564M 11565M 11593M 11620M 11620  11684  11685  12907  12937M
                                                 13036M 13218M 13245M 13245  13279M 13324  13325  13608M 13648  13649
                                                 13908M 13909M 13949  13950  14078M 14416M 14511M 14606M 14755  14797M
                                                 14798M 14799M 14863M 14908  14909  15039M 15134M 15377M 15638  15761M
                                                 15779  16229  16280M 16345M 16363  16414M 16415  16416  16477M 16529M
                                                 16530  16531  16737M 16749  16760M 16837  16838  16949M 16996  16997
                                                 17065M 17306M 17310  17351M 17351  17360  17361  17441M 17460M 17504
                                                 17505  17591M 17592  17593  17673M 17674  17675  17970M 17974  18015M
                                                 18015  18024  18025  18125M 18160M 18195M 18215M 18260  18261  18347M
1FUNC     (FUNC2193) (12:45) (15MAR04) Ordinary Symbol and Literal Cross Reference                                          Page  306
                                                 18348  18349  18429M 18430  18431  18737M 18741  18792M 18792  18801
                                                 18802  19034M 19035  19036  19335M 19339  19383M 19383  19392  19393
                                                 19486M 19521M 19541M 19586  19587  19673M 19674  19675  20021M 20025
                                                 20076M 20076  20085  20086  20201M 20207  20208  20312M 20312  20348
                                                 20359M 20483M 20488  20603M 20604  20605  20699M 20700  20701  20856
                                                 20881  21127  21158M 21162  21219M 21219  21228  21229  21367M 21371
                                                 21390M 21390  21399  21400  21469M 21519M 21546M 21588M 21644M 21686M
                                                 21695M 21735  21736  21822M 21823  21824  22278M 22373M 22713  22755M
                                                 22756M 22757M 22821M 22866  22867  23055M 23074  23849M 23850  23851
                                                 24080M 24107M 24107  24141M 24186  24187  24365M 24392M 24392  24422M
                                                 24471  24472  24650M 24675M 24695M 24695  24740  24741  24910M 24950
                                                 24951  25173M 25174M 25184M 25194M 25204M 25231M 25241M 25246  25251M
                                                 25252M 25262M 25272M 25282M 25292M 25302M 25312M 25322M 25323  25365M
                                                 25436M 25483M 25483  25508M 25508  25533M 25533  25580  25581  25846
                                                 25865M 25898M 25903  25987M 25991  26002M 26002  26011  26012  26082M
                                                 26122  26123  26190M 26213M 26234M 26234  26267M 26311  26312  26805M
                                                 26981M 26994M 26994  27014M 27019  27080M 27101M 27122M 27122  27167
                                                 27168  27449M 27450  27451  27501  27532M 27558  27597M 27601  27612M
                                                 27612  27621  27622  27687M 27729M 27758M 27793  27839M 27884  27885
                                                 27940M 28019M 28068M 28926M 28927  29152M 29152  29166M 29166  29212M
                                                 29232M 29232  29630M 29631  29632  29682  29713M 29714  29753M 29757
                                                 29768M 29768  29777  29778  29843M 29884M 29913M 29975  29976  30031M
                                                 30110M 30159M 32115M 32116  32177  32312  32324M 32329  32469M 32725M
                                                 32916  32946M 33246M 33295  33352M 33376M 33376  33383M 33408M 33408
                                                 33413  33546  33573M 33633M 33634  33635  33824M 33870  33913M 33965M
                                                 34018  34065M 34077M 34098M 34118M 34125  34126  34126  34126  34150M
                                                 34191  34192  34363  34390M 34451M 34452  34453  34550  34550  34550
                                                 34807  34879M 34928  35124  35244  35393M 35423M 35443M 35443  35457
                                                 35468M 35513M 35514  35515  35625M 35626  35627  35791  35863M 35912
                                                 36139  36211M 36260  36458  36530M 36579  36777  36849M 36898  37246M
                                                 37422  37581M 37599M 38153M 38153  38179M 38319M 38319  38345M 38621
                                                 38622  38622  38622  38624M 38631M 38681  38703  38878  38960M 38972
                                                 38983M 39036M 39081  39088M 39404  39404  39404  39505M 39676M 39810M
                                                 40119M 40284  40285  40474M 40518M 40518  40540M 40567  40572M 40572
                                                 40621  40622  40680M 40916M 40939M 40948M 40993  40994  41154  41173M
                                                 41182M 41182  41216M 41216  41223M 41223  41290M 41412M 41489M 41679M
                                                 41688M 41688  41722M 41722  41729M 41729  41783M 41875M 41895M 41944
                                                 41945  42120M 42129M 42129  42163M 42163  42170M 42170  42208M 42309M
                                                 42330M 42330  42354M 42354  42398  42399  42579M 42588M 42588  42622M
                                                 42622  42629M 42629  42667M 42785M 42806M 42806  42811  42955M 42964M
                                                 42964  42998M 42998  43005M 43005  43043M 43144M 43165M 43165  43189M
                                                 43189  43233  43234  43414M 43423M 43423  43457M 43457  43464M 43464
                                                 43502M 43603M 43624M 43624  43648M 43648  43692  43693  43903M 43907
                                                 43918M 43918  43927  43928  43988M 44009M 44009  44014  44017M 44037M
                                                 44494M 44503M 44503  44537M 44537  44544M 44544  44582M 44683M 44704M
                                                 44704  44728M 44728  44772  44773  44953M 44962M 44962  44996M 44996
                                                 45003M 45003  45041M 45132M 45162M 45183M 45215M 45235M 45284  45285
                                                 45460M 45469M 45469  45503M 45503  45510M 45510  45564M 45651M 45672M
                                                 45692M 45741  45742  45904M 45904  45924M 45930  45930M 46408  46438M
                                                 46535M 46721  46880M 46898M 47464M 47468  47479M 47479  47488  47489
                                                 47490  47525M 47525  47534M 47578  47579  47761M 47765  47776M 47776
                                                 47785  47786  47787  47826M 47870  47871  48073M 48074  48075  48222
                                                 48223  48223  48223  48225M 48233M 48278  48300  48400M 48401  48402
                                                 48600M 48666M 48695  48703M 48748  48749  48846M 48870M 48941  48942
                                                 49077M 49327M 49461M 49511  49512  49739  49769M 49992M 50010M 50063
                                                 50093M 50155M 50184M 50184  50212M 50241  50255M 50255  50284M 50334
                                                 50335  50556  50586  50800M 50963M 50966  50978M 50984  51039M 51226
                                                 51226  51226  51379M 51382  51394M 51400  51455M 51488M 51518M 51518
                                                 51566  51567  51776M 51821  51822  51996  52042  52076  52106  52213M
1FUNC     (FUNC2193) (12:45) (15MAR04) Ordinary Symbol and Literal Cross Reference                                          Page  307
                                                 52234M 52254  52465M 52929M 53146M 53221M 53380M 53380  53516M 53517
                                                 53518  53717M 53717  53736  53994M 54047M 54080M 54128M 54129  54130
                                                 54327M 54380M 54413M 54462M 54463  54464  54788M 54933  55023M 55035
                                                 55046M 55099M 55144  55151M 55290M 55386M 55481M 55576M 55708M 55879M
                                                 56057  56142  56246M 56246  56258M 56284  56374M 56469M 56697M 56698
                                                 56699  56749  56780M 56781  56820M 56824  56835M 56835  56844  56845
                                                 56910M 57008M 57045M 57085M 57109M 57143M 57171M 57211M 57235M 57244M
                                                 57244  57310M 57397M 57442M 57442  57451M 57472M 57511M 57532M 57575M
                                                 57596M 57659  57660  58580  58636  58657  58697  58739  59300M 59300
                                                 59384M 59532  59604M 59743M 59814  59920M 59941M 59941
 R1            1 00000001 FFFFFFFF A   #     712  2392M  2393M  2399M  8318   8323M  8326M  8329   8415   8420M  8442
                                                  8469M  8503   8503M  8614M  8636M  8660M  8702M  8724M  8748M  8804
                                                  8852   8900   8948   8996   9076M  9097M  9097   9479M  9498M  9519M
                                                  9541M  9565M 10433M 10548  10554  10577  10909  11098  11103  11118M
                                                 11139M 11162M 11200M 11264M 11290M 11325M 11368M 11374  11391  11436
                                                 11497M 11503  11520  11565  11592M 11845  11846M 11903  12036  12038
                                                 12080M 12081  12192  12194  12236M 12237  12348  12350  12566  12568
                                                 12610M 12611  12806  12812  12913  12936M 13034M 13034  13035M 13192
                                                 13214M 13243M 13243  13272M 13531  13536  13541  13607M 13754M 13758M
                                                 13767M 13767  13774  13907M 13909  14077M 14198  14204  14415M 14510M
                                                 14605M 14756  14858M 15038M 15133M 15287  15339M 15378M 15639  15708M
                                                 15757M 15858M 15874M 16230  16279M 16341M 16413M 16468M 16478M 16528M
                                                 16721  16759M 16791M 16832M 16950M 16991M 17064M 17302M 17309  17347M
                                                 17360  17361  17363  17440M 17459M 17590M 17672M 17966M 17973  18011M
                                                 18024  18025  18027  18124M 18159M 18194M 18214M 18346M 18428M 18733M
                                                 18740  18788M 18801  18802  18804  19033M 19331M 19338  19379M 19392
                                                 19393  19395  19485M 19520M 19540M 19672M 20017M 20024  20072M 20085
                                                 20086  20088  20202M 20208M 20212M 20221M 20221  20228  20253M 20461M
                                                 20598M 20698M 21128  21154M 21161  21215M 21228  21229  21231  21363M
                                                 21370  21386M 21399  21400  21402  21468M 21518M 21545M 21587M 21643M
                                                 21685M 21694M 21821M 22277M 22372M 22490  22491M 22548  22714  22816M
                                                 23032  23035  23054M 23054  23073M 23074  23081M 23127M 23127  23137M
                                                 23170  23323  23372  23425  23567M 23610  23613M 23658  23661M 23717
                                                 23720M 23758  23761M 23783  23786M 23805  23806M 23807  24054  24076M
                                                 24105M 24105  24134M 24339  24361M 24390M 24390  24417M 24624  24646M
                                                 24670M 24893  24909M 25129  25180M 25182M 25183M 25184  25190M 25192M
                                                 25193M 25194  25200M 25202M 25203M 25204  25227M 25229M 25230M 25231
                                                 25237M 25239M 25240M 25241  25258M 25260M 25261M 25262  25268M 25270M
                                                 25271M 25272  25278M 25280M 25281M 25282  25288M 25290M 25291M 25292
                                                 25298M 25300M 25301M 25302  25308M 25310M 25311M 25312  25318M 25320M
                                                 25321M 25322  25365M 25436M 25464  25485M 25485  25510M 25510  25535M
                                                 25535  25821  25861M 25893M 25983M 25990  25998M 26011  26012  26014
                                                 26077M 26208M 26266M 26804M 26955  26977M 27009M 27096M 27448M 27502
                                                 27528M 27558  27593M 27600  27608M 27621  27622  27624  27686M 27726
                                                 27727  27727  27727  27728M 27755M 27758M 27832M 27939M 28018M 28067M
                                                 29091  29094  29104M 29151M 29178  29217M 29217  29239M 29252M 29285
                                                 29363  29363  29363  29629M 29683  29709M 29714  29749M 29756  29764M
                                                 29777  29778  29780  29842M 29881  29882  29882  29882  29883M 29910M
                                                 29913M 30030M 30109M 30158M 32468M 32590  32631M 32632  32724M 32845
                                                 32852  32922  32945M 33112  33112  33112  33209  33245M 33301  33345M
                                                 33552  33560  33569M 33632M 33787  33823M 33876  33912M 33964M 34024
                                                 34064M 34078M 34097M 34117M 34125  34126  34126  34126  34150M 34343
                                                 34369  34377  34386M 34450M 34550  34550  34550  34636  34677M 34678
                                                 34794  34813  34880M 34928M 34929  34990M 34991  35130  35196M 35244M
                                                 35245  35392M 35422  35467M 35512M 35618M 35778  35797  35864M 35912M
                                                 35913  35974M 35975  36126  36145  36212M 36260M 36261  36322M 36323
                                                 36445  36464  36531M 36579M 36580  36641M 36642  36764  36783  36850M
                                                 36898M 36899  36960M 36961  37077  37078M 37135  37245M 37428  37574M
                                                 37598M 37651  37652  37713  37714  37826M 38142  38308  38458  38499M
1FUNC     (FUNC2193) (12:45) (15MAR04) Ordinary Symbol and Literal Cross Reference                                          Page  308
                                                 38500  38618  38621  38622  38622  38622  38623M 38631M 38709  38822M
                                                 38823  38959  38982M 39014M 39035M 39067M 39087M 39126  39253  39254M
                                                 39311  39404  39404  39404  39479  39501M 39543M 39544  39650  39672M
                                                 39714M 39715  39809M 39950  39951M 40008  40118M 40226  40468  40472
                                                 40473M 40538M 40568  40574M 40574  40675M 40857  40947M 41155  41289M
                                                 41411M 41490M 41532M 41533  41664  41782M 41874M 41894M 42105  42207M
                                                 42304M 42564  42666M 42778M 42940  43042M 43139M 43399  43501M 43598M
                                                 43887  43899M 43906  43914M 43927  43928  43930  44036M 44115M 44116
                                                 44180M 44181  44479  44581M 44678M 44938  45040M 45131M 45158M 45182M
                                                 45214M 45234M 45445  45563M 45637M 45671M 45691M 45902M 45902  45923M
                                                 45930  46088  46311  46317  46414  46437M 46533M 46533  46534M 46727
                                                 46873M 46897M 46950  46951  47016  47017  47033M 47035M 47071M 47135M
                                                 47448  47459M 47467  47475M 47488  47489  47490  47521M 47521  47533M
                                                 47745  47756M 47764  47772M 47785  47786  47787  47821M 48023  48068M
                                                 48219  48222  48223  48223  48223  48224M 48233M 48306  48395M 48567
                                                 48599M 48665M 48701M 48701  48847M 48869M 48936M 49076M 49196  49237M
                                                 49238  49326M 49435  49457M 49745  49768M 49991M 50009M 50069  50092M
                                                 50153  50154M 50210M 50240  50491  50494  50562  50799M 50936  50959M
                                                 51034M 51226  51226  51226  51352  51375M 51450M 51488M 51522M 51522
                                                 51762  51764  51777M 51978  52048  52082  52112  52247M 52253M 52253
                                                 52464M 52581  52582M 52639  52828  52911M 52912  52922M 53007M 53008
                                                 53143  53144  53144  53144  53145M 53172M 53195  53217M 53256M 53257
                                                 53381M 53382  53511M 53700  53703  53716M 53716  53735M 53736  53743M
                                                 53789M 53789  53799M 53832  53959  53962  53993M 54046M 54081M 54292
                                                 54295  54326M 54379M 54414M 54455M 54619  54660M 54661  54762  54784M
                                                 54825M 54826  54903  54903  54903  55022  55045M 55077M 55098M 55130M
                                                 55150M 55189  55289M 55385M 55480M 55575M 55682  55704M 55746M 55747
                                                 55853  55875M 55917M 55918  56063  56148  56247M 56255M 56373M 56468M
                                                 56696M 56750  56776M 56781  56816M 56823  56831M 56844  56845  56847
                                                 56909M 57007M 57044M 57084M 57108M 57143M 57170M 57210M 57234M 57309M
                                                 57396M 57450M 57471M 57510M 57531M 57574M 57595M 58467  58586  58642
                                                 58663  58703  58745  58789  59190M 59191  59316M 59385M 59411  59418M
                                                 59546  59740  59741  59741  59741  59742M 59769M 59837  59907  59916M
                                                 59942M 59943  60137M 60138  60218  60218  60218
 R12          12 0000000C FFFFFFFF A   #     855  2355
 R13          13 0000000D FFFFFFFF A   #     868 17228  17355  17356  17357  17373  17374  17375  17892  18019  18020
                                                 18021  18037  18038  18039  18682  18796  18797  18798  18814  18815
                                                 18816  19279  19387  19388  19389  19405  19406  19407  19966  20080
                                                 20081  20082  20098  20099  20100  21107  21223  21224  21225  21241
                                                 21242  21243  21394  21395  21396  21412  21413  21414  25969  26006
                                                 26007  26008  26024  26025  26026  27368  27616  27617  27618  27634
                                                 27635  27636  29503  29772  29773  29774  29790  29791  29792  43853
                                                 43922  43923  43924  43940  43941  43942  47419  47483  47484  47485
                                                 47500  47501  47502  47723  47780  47781  47782  47797  47798  47799
                                                 53133  56638  56839  56840  56841  56857  56858  56859  59730
 R14          14 0000000E FFFFFFFF A   #     881  2330M 10555M 10700M 12887M 12888M 12889M 12890  12891  13029M 13036M
                                                 13042M 13562M 13563M 13564M 13567M 13721  13851M 13852M 13864  14208M
                                                 14290M 14311M 14785M 14790M 14798  14799M 17227M 17228  17308M 17309
                                                 17310  17314M 17314  17354M 17355  17356  17357  17362M 17363  17370M
                                                 17373  17374  17375  17723M 17726  17891M 17892  17972M 17973  17974
                                                 17978M 17978  18018M 18019  18020  18021  18026M 18027  18034M 18037
                                                 18038  18039  18481M 18484  18681M 18682  18739M 18740  18741  18745M
                                                 18745  18775M 18776  18776  18780M 18780  18795M 18796  18797  18798
                                                 18803M 18804  18811M 18814  18815  18816  18889M 18890  18890  18894M
                                                 18894  19084M 19087  19278M 19279  19337M 19338  19339  19343M 19343
                                                 19386M 19387  19388  19389  19394M 19395  19402M 19405  19406  19407
                                                 19723M 19726  19965M 19966  20023M 20024  20025  20029M 20029  20059M
                                                 20060  20060  20064M 20064  20079M 20080  20081  20082  20087M 20088
                                                 20095M 20098  20099  20100  20749M 20752  20857M 21106M 21107  21160M
1FUNC     (FUNC2193) (12:45) (15MAR04) Ordinary Symbol and Literal Cross Reference                                          Page  309
                                                 21161  21162  21166M 21166  21202M 21203  21203  21207M 21207  21222M
                                                 21223  21224  21225  21230M 21231  21238M 21241  21242  21243  21369M
                                                 21370  21371  21375M 21375  21393M 21394  21395  21396  21401M 21402
                                                 21409M 21412  21413  21414  21872M 21875  22743M 22748M 22756  22757M
                                                 25968M 25969  25989M 25990  25991  25995M 25995  26005M 26006  26007
                                                 26008  26013M 26014  26021M 26024  26025  26026  26030M 26033  27367M
                                                 27368  27599M 27600  27601  27605M 27605  27615M 27616  27617  27618
                                                 27623M 27624  27631M 27634  27635  27636  27722M 27726  27727  27727
                                                 27727  27728  27755M 28088M 28091  29363  29363  29363  29502M 29503
                                                 29755M 29756  29757  29761M 29761  29771M 29772  29773  29774  29779M
                                                 29780  29787M 29790  29791  29792  29877M 29881  29882  29882  29882
                                                 29883  29910M 30245M 30248  33036M 33038M 33112  33112  33112  43852M
                                                 43853  43905M 43906  43907  43911M 43911  43921M 43922  43923  43924
                                                 43929M 43930  43937M 43940  43941  43942  44200M 44203  46391M 46392M
                                                 46393  46528M 46535M 46538M 47418M 47419  47466M 47467  47468  47472M
                                                 47472  47482M 47483  47484  47485  47497M 47500  47501  47502  47532M
                                                 47533  47534  47538M 47538  47633M 47636  47722M 47723  47763M 47764
                                                 47765  47769M 47769  47779M 47780  47781  47782  47794M 47797  47798
                                                 47799  47925M 47928  52176M 52249M 52296M 52298M 53132M 53133  53139M
                                                 53143  53144  53144  53144  53145  53172M 53585M 53588  54903  54903
                                                 54903  56637M 56638  56822M 56823  56824  56828M 56828  56838M 56839
                                                 56840  56841  56846M 56847  56854M 56857  56858  56859  57707M 57710
                                                 59729M 59730  59736M 59740  59741  59741  59741  59742  59769M 60170M
                                                 60173  60218  60218  60218
 R15          15 0000000F FFFFFFFF A   #     894  2329   8352M  8352   8436M  8436   8492M  8522M  8522   8623M  8651M
                                                  8669M  8674M  8711M  8739M  8757M  8762M  9085M  9103M  9103   9139M
                                                  9139   9305M  9305   9324M  9324   9466M  9488M  9510M  9528M  9556M
                                                  9574M  9580M  9599M  9599  10442M 10448M 10467M 10467  10556M 10636
                                                 10672M 10672  10684M 10684  10699  10743M 10743  10798M 10798  10815M
                                                 10815  10844M 10844  10974M 10974  11209M 11299M 11305M 11440M 11440
                                                 11569M 11569  11601M 11643  11720M 11720  11731M 11763M 11763  11961M
                                                 11961  12117M 12117  12273M 12273  12402M 12402  12456M 12456  12491M
                                                 12491  12647M 12647  12945M 13030M 13040M 13044M 13045M 13046  13051M
                                                 13051  13093M 13093  13223M 13360M 13360  13402M 13402  13568M 13570M
                                                 13684M 13684  13728  13985M 13985  14025M 14025  14086M 14120M 14120
                                                 14207M 14209  14310M 14326M 14326  14363M 14363  14424M 14458M 14458
                                                 14519M 14553M 14553  14614M 14648M 14648  14944M 14944  14986M 14986
                                                 15047M 15081M 15081  15142M 15176M 15176  15299M 15395M 15395  15431M
                                                 15431  15485M 15485  15527M 15527  15828M 15828  15881M 15920M 15920
                                                 15941M 15973M 15973  16010M 16010  16065M 16065  16082M 16082  16117M
                                                 16117  16288M 16451M 16451  16486M 16486  16566M 16566  16579M 16579
                                                 16614M 16614  16768M 16873M 16873  17032M 17032  17073M 17078M 17113M
                                                 17113  17376M 17376  17385M 17385  17450M 17450  17540M 17540  17628M
                                                 17628  17710M 17710  17745M 17745  17821M 17840M 17840  18040M 18040
                                                 18049M 18049  18102M 18102  18115M 18115  18150  18185  18296M 18296
                                                 18384M 18384  18466M 18466  18503M 18503  18579M 18598M 18598  18766M
                                                 18766  18817M 18817  18826M 18826  18880M 18880  18904M 18943M 18947M
                                                 18956M 18956  18963  18993M 18993  19071M 19071  19106M 19106  19182M
                                                 19201M 19201  19408M 19408  19417M 19417  19511  19622M 19622  19710M
                                                 19710  19745M 19745  19821M 19840M 19840  20050M 20050  20101M 20101
                                                 20110M 20110  20192M 20192  20278M 20278  20640M 20640  20736M 20736
                                                 20776M 20776  20834  20856  20888M 20913M 20913  20989M 21008M 21008
                                                 21193M 21193  21244M 21244  21253M 21253  21301M 21301  21415M 21415
                                                 21424M 21424  21459M 21459  21771M 21771  21859M 21859  21899M 21899
                                                 22046M 22046  22112M 22112  22155M 22174M 22174  22286M 22320M 22320
                                                 22381M 22415M 22415  22606M 22606  22902M 22902  22944M 22944  23211M
                                                 23211  23886M 23886  23923M 23923  24085M 24222M 24222  24264M 24264
                                                 24370M 24408M 24507M 24507  24549M 24549  24655M 24661M 24776M 24776
                                                 24818M 24818  24986M 24986  25028M 25028  25359M 25359  25366M 25430M
1FUNC     (FUNC2193) (12:45) (15MAR04) Ordinary Symbol and Literal Cross Reference                                          Page  310
                                                 25430  25437M 25616M 25616  25658M 25658  25903M 25906  25918M 25926M
                                                 25935M 25935  25942  26027M 26027  26042M 26042  26158M 26158  26191M
                                                 26214M 26347M 26347  26399M 26399  26540M 26540  26607M 26607  26668M
                                                 26668  26734M 26734  26795M 26813M 26829M 26848M 26848  27019M 27022
                                                 27034M 27042M 27051M 27051  27058  27081M 27102M 27203M 27203  27250M
                                                 27250  27486M 27486  27637M 27637  27646M 27646  27677M 27695M 27711M
                                                 27748M 27759M 27780  27822M 27824M 27825M 27832  27920M 27920  28083M
                                                 28083  28120M 28120  28354M 28354  28420M 28420  28486M 28486  28552M
                                                 28552  28619M 28619  28685M 28685  28752M 28752  28818M 28818  28884M
                                                 28884  28946M 28946  28988M 29007M 29007  29321M 29321  29667M 29667
                                                 29793M 29793  29802M 29802  29833M 29851M 29867M 29903M 29914M 29935
                                                 30011M 30011  30174M 30174  30277M 30277  30740M 30740  30813M 30813
                                                 30879M 30879  30945M 30945  31011M 31011  31078M 31078  31144M 31144
                                                 31210M 31210  31277M 31277  31344M 31344  31410M 31410  31477M 31477
                                                 31543M 31543  31609M 31609  31676M 31676  31743M 31743  31809M 31809
                                                 31875M 31875  31941M 31941  32007M 32007  32073M 32073  32135M 32135
                                                 32196M 32196  32262M 32262  32348M 32348  32390M 32409M 32409  32477M
                                                 32511M 32511  32672M 32672  32733M 32767M 32767  32954M 33037M 33042M
                                                 33042  33079M 33079  33210M 33221M 33221  33235  33254M 33417M 33417
                                                 33451M 33451  33670M 33670  33706M 33706  33832M 33921M 33973M 34040M
                                                 34071  34127M 34227M 34227  34264M 34264  34488M 34488  34524M 34524
                                                 34714M 34714  35033M 35033  35287M 35287  35401M 35406M 35476M 35550M
                                                 35550  35559M 35662M 35662  35698M 35698  36017M 36017  36365M 36365
                                                 36684M 36684  37003M 37003  37193M 37193  37254M 37288M 37288  37589M
                                                 37607M 37778M 37778  37896M 37914M 37914  37951M 37951  38006M 38006
                                                 38023M 38023  38047M 38047  38213M 38213  38379M 38379  38540M 38540
                                                 38640M 38640  38859M 38859  38991M 39044M 39171M 39171  39369M 39369
                                                 39506M 39543  39586M 39586  39677M 39714  39757M 39757  39818M 39852M
                                                 39852  40066M 40066  40127M 40161M 40161  40240M 40320M 40320  40356M
                                                 40356  40657M 40657  40690M 40690  40719M 40719  40892M 40909M 40914
                                                 40917M 40923M 40940M 41029M 41029  41070M 41070  41207M 41224M 41229
                                                 41231M 41267M 41279  41298M 41325M 41334M 41334  41341  41389M 41401
                                                 41420M 41447M 41456M 41456  41463  41495M 41532  41580M 41580  41713M
                                                 41730M 41735  41737M 41743M 41760M 41772  41791M 41818M 41827M 41827
                                                 41834  41854M 41980M 41980  42021M 42021  42154M 42171M 42176  42178M
                                                 42185M 42197  42216M 42243M 42252M 42252  42259  42280M 42434M 42434
                                                 42480M 42480  42613M 42630M 42635  42637M 42644M 42656  42675M 42702M
                                                 42711M 42711  42718  42786M 42815M 42815  42856M 42856  42989M 43006M
                                                 43011  43013M 43020M 43032  43051M 43078M 43087M 43087  43094  43115M
                                                 43269M 43269  43315M 43315  43448M 43465M 43470  43472M 43479M 43491
                                                 43510M 43537M 43546M 43546  43553  43574M 43728M 43728  43774M 43774
                                                 43943M 43943  43952M 43952  43962M 43979M 43984  43989M 44018M 44039M
                                                 44052M 44052  44227M 44227  44327M 44327  44369M 44388M 44388  44528M
                                                 44545M 44550  44552M 44559M 44571  44590M 44617M 44626M 44626  44633
                                                 44654M 44808M 44808  44854M 44854  44987M 45004M 45009  45011M 45018M
                                                 45030  45049M 45076M 45085M 45085  45092  45112M 45163M 45205M 45205
                                                 45320M 45320  45361M 45361  45494M 45511M 45516  45518M 45524M 45541M
                                                 45553  45572M 45599M 45608M 45608  45615  45652M 45777M 45777  45818M
                                                 45818  45949M 45949  46192M 46192  46446M 46529M 46537M 46545M 46545
                                                 46587M 46587  46888M 46906M 47085M 47085  47205M 47223M 47223  47260M
                                                 47260  47315M 47315  47332M 47332  47356M 47356  47503M 47503  47512M
                                                 47512  47614M 47614  47626M 47626  47660M 47660  47800M 47800  47809M
                                                 47809  47906M 47906  47918M 47918  47952M 47952  48110M 48110  48141M
                                                 48141  48242M 48242  48437M 48437  48468M 48468  48608M 48784M 48784
                                                 48878M 48977M 48977  49017M 49017  49085M 49119M 49119  49274M 49274
                                                 49335M 49369M 49369  49547M 49547  49584M 49584  49777M 50000M 50018M
                                                 50101M 50370M 50370  50412M 50412  50747M 50747  50808M 50824M 50843M
                                                 50843  50984M 50988M 50997M 50997  51004  51023M 51086M 51086  51141M
                                                 51141  51187M 51187  51400M 51404M 51413M 51413  51420  51439M 51473M
1FUNC     (FUNC2193) (12:45) (15MAR04) Ordinary Symbol and Literal Cross Reference                                          Page  311
                                                 51602M 51602  51644M 51644  51774M 51857M 51857  51888M 51888  52176M
                                                 52188M 52188  52251M 52297M 52318M 52321  52333M 52340M 52342  52368M
                                                 52368  52410M 52410  52473M 52507M 52507  52697M 52697  52945M 53013M
                                                 53013  53048M 53048  53165M 53553M 53553  53612M 53612  53873M 53873
                                                 54002M 54055M 54165M 54165  54177M 54177  54206M 54206  54335M 54388M
                                                 54499M 54499  54511M 54511  54540M 54540  54697M 54697  54825  54868M
                                                 54868  55054M 55107M 55230M 55230  55298M 55314M 55333M 55333  55394M
                                                 55428M 55428  55489M 55523M 55523  55584M 55618M 55618  55709M 55746
                                                 55789M 55789  55880M 55917  55960M 55960  56321M 56321  56382M 56416M
                                                 56416  56477M 56511M 56511  56734M 56734  56860M 56860  56869M 56869
                                                 56900M 56918M 57016M 57137M 57163M 57301  57388  57425  57480M 57540M
                                                 57604M 57695M 57695  57739M 57739  57898M 57898  57964M 57964  58030M
                                                 58030  58096M 58096  58162M 58162  58204M 58223M 58223  59047  59087
                                                 59107  59131M 59131  59137  59237M 59237  59531M 59531  59546  59558
                                                 59576M 59762M 60197M 60197
 R2            2 00000002 FFFFFFFF A   #     725  8325M  8326   8327M  8421M  8591   8804M  8852M  8900M  8948M  8996M
                                                  9112M  9203M  9206M  9225M  9228M  9247M  9249   9265   9292   9498
                                                 10516M 10549M 10615M 10700M 10893M 11071M 11099M 11100  11104M 11105
                                                 11117M 11220M 11612M 11820M 11847M 11877  11886M 11886  11894M 11896
                                                 11913  12011M 12037M 12047M 12080  12082M 12167M 12193M 12203M 12236
                                                 12238M 12323M 12349M 12359M 12360  12541M 12567M 12577M 12610  12612M
                                                 12777M 12807M 12850M 12880M 12956M 13042M 13176M 13494M 13532M 13534
                                                 13537M 13539  13542M 13544  13553M 13554M 13554  13555  13558M 13721
                                                 13793M 13836M 13864  13873M 14097M 14169M 14199M 14246M 14308  14309
                                                 14309  14309  14311M 14314M 14435M 14530M 14625M 14739M 14806M 14806
                                                 14838M 15058M 15153M 15260M 15288M 15642M 15669M 15672  15684M 15691M
                                                 15693  15710  16233M 16299M 16705M 16779M 16792M 16832  16918M 16939M
                                                 16951M 16991  17162  17162  17162  17232M 17896M 18686M 18941M 18942
                                                 18943  19283M 19970M 20166M 20169M 20269M 20269  20369M 20370  20409M
                                                 20419U 20444M 20444  20474  20482M 20488M 20491  20503M 20511M 20520M
                                                 20520  20527  20548M 20603  20879M 20880  21111M 21127M 21329  21436M
                                                 22297M 22392M 22465M 22492M 22522  22531M 22531  22539M 22541  22558
                                                 22697M 22764M 22764  22796M 23007M 23033M 23081  23082  23171M 23296M
                                                 23324M 23373M 23374  23388  23401  23413M 23426M 23427  23441  23454
                                                 23466M 23562M 23563  23568M 23636M 23637M 23658  23664M 23723M 23758
                                                 23764M 23805M 23807M 23849  24038M 24323M 24608M 24877M 25113M 25143M
                                                 25173  25180  25190  25200  25227  25237  25251  25258  25268  25278
                                                 25288  25298  25308  25318  25802M 25961M 26199M 26824M 26936M 27077M
                                                 27087M 27395M 27501M 27573  27706M 27975M 27985U 28074M 29066M 29092M
                                                 29104  29148  29151  29239  29252  29286M 29576M 29682M 29729  29862M
                                                 30066M 30076U 30165M 32488M 32562M 32633M 32744M 32816M 32846M 32890M
                                                 32965M 33038M 33177M 33265M 33283M 33283  33302M 33503M 33755M 33843M
                                                 33932M 33984M 34006M 34006  34025M 34040  34071M 34127  34316M 34344M
                                                 34608M 34679M 34767M 34795M 34835M 34879  34930M 34992M 35086M 35152M
                                                 35246M 35340M 35368M 35368  35382  35751M 35779M 35819M 35863  35914M
                                                 35976M 36099M 36127M 36167M 36211  36262M 36324M 36418M 36446M 36486M
                                                 36530  36581M 36643M 36737M 36765M 36805M 36849  36900M 36962M 37052M
                                                 37079M 37109  37118M 37118  37126M 37128  37145  37265M 37389M 37443M
                                                 37454M 37454  37618M 37633M 37651M 37700M 38096M 38262M 38430M 38501M
                                                 38593M 38619M 38623  38652M 38747M 38763M 38763  38783M 38822  38824M
                                                 38943M 39002M 39015M 39055M 39127M 39228M 39255M 39285  39294M 39294
                                                 39302M 39304  39321  39463M 39545M 39634M 39716M 39829M 39925M 39952M
                                                 39982  39991M 39991  39999M 40001  40018  40138M 40210M 40437M 40470M
                                                 40548M 40548  40567M 40680  40681M 40828M 40879M 41138M 41194M 41309M
                                                 41431M 41494M 41494  41534M 41648M 41700M 41802M 41855M 42089M 42141M
                                                 42227M 42279M 42548M 42600M 42686M 42742M 42924M 42976M 43062M 43114M
                                                 43383M 43435M 43521M 43573M 43858M 44038M 44117M 44182M 44463M 44515M
                                                 44601M 44653M 44922M 44974M 45060M 45149M 45429M 45481M 45583M 45635M
                                                 45874M 46059M 46089M 46124M 46126M 46148M 46282M 46312M 46355M 46384M
1FUNC     (FUNC2193) (12:45) (15MAR04) Ordinary Symbol and Literal Cross Reference                                          Page  312
                                                 46457M 46538M 46688M 46742M 46753M 46753  46917M 46932M 46950M 47115M
                                                 47116M 47423M 47449M 47459  47727M 47746M 47756  47821  48002M 48024M
                                                 48068  48194M 48220M 48224  48254M 48344M 48395  48551M 48619M 48631M
                                                 48653M 48812M 48834M 48848M 48889M 48936  49096M 49171M 49239M 49346M
                                                 49419M 49696M 49788M 50029M 50112M 50466M 50492M 50532M 50657M 50669M
                                                 50716M 50819M 50920M 51336M 51456M 51484U 51737M 51763M 51776  51948M
                                                 51979M 51981  52028M 52028  52049M 52055  52062M 52062  52083M 52089
                                                 52154M 52177M 52235M 52294M 52298M 52300M 52358M 52484M 52556M 52583M
                                                 52613  52622M 52622  52630M 52632  52649  52803M 52829M 52947M 52947
                                                 52998M 53177M 53222M 53257M 53382M 53675M 53701M 53743  53744  53833M
                                                 53934M 53960M 54013M 54066M 54080  54082M 54267M 54293M 54346M 54399M
                                                 54413  54415M 54455  54591M 54662M 54746M 54827M 55006M 55065M 55078M
                                                 55118M 55190M 55309M 55405M 55500M 55595M 55666M 55748M 55837M 55919M
                                                 56009M 56041M 56041  56105M 56122M 56190M 56254  56268  56277M 56278M
                                                 56393M 56488M 56643M 56749M 56796  56929M 57027M 57326M 57336U 58437M
                                                 58522M 58555M 58790M 58804  58886M 58899  58906  58957M 58960M 59028M
                                                 59028  59047M 59087  59107  59137M 59192M 59310U 59315M 59316  59383
                                                 59386M 59423M 59582M 59604M 59774M 59882M 59921M 59943M 60139M
 R3            3 00000003 FFFFFFFF A   #     738  8328M  8593M  8594M  8604   8681M  8682M  8692   9204M  9226M  9248M
                                                  9249M  9250M  9265   9285M  9291M  9291   9292M  9293  10550M 10699M
                                                 11101M 11102  11106M 11107  11119M 11122M 11124  11140M 11143M 11145
                                                 11374M 11375M 11377M 11391  11426M 11434M 11435  11503M 11504M 11506M
                                                 11520  11555M 11563M 11564  11685M 11699M 11701  12039M 12047  12195M
                                                 12203  12351M 12359  12360  12569M 12577  12808M 12872  12878M 12879M
                                                 12880  12881M 12888  13041M 13325M 13339M 13341  13533M 13535  13538M
                                                 13540  13543M 13545  13559M 13649M 13663M 13665  13950M 13964M 13966
                                                 14200M 14207  14308  14309  14309  14309  14310  14314M 14316  14808M
                                                 14808  14842M 14909M 14923M 14925  15289M 15315  15329  15342M 15344
                                                 15360  16416M 16430M 16432  16531M 16545M 16547  16838M 16852M 16854
                                                 16997M 17011M 17013  17162  17162  17162  17505M 17519M 17521  17593M
                                                 17607M 17609  17675M 17689M 17691  18261M 18275M 18277  18349M 18363M
                                                 18365  18431M 18445M 18447  19036M 19050M 19052  19587M 19601M 19603
                                                 19675M 19689M 19691  20147M 20158U 20164  20165  20165  20165  20166
                                                 20167M 20172M 20605M 20619M 20621  20701M 20715M 20717  21034  21034
                                                 21034  21128M 21352  21736M 21750M 21752  21824M 21838M 21840  22766M
                                                 22766  22800M 22867M 22881M 22883  23034M 23091M 23091  23099M 23101
                                                 23329M 23330  23334M 23343M 23343  23350  23487M 23503  23524M 23539
                                                 23545  23558  23561  23569M 23588M 23604  23615M 23630  23637  23652M
                                                 23652  23666M 23675M 23737  23752  23767M 23789M 23851M 23865M 23867
                                                 24187M 24201M 24203  24472M 24486M 24488  24741M 24755M 24757  24951M
                                                 24965M 24967  25144M 25156  25216  25581M 25595M 25597  25783M 25791U
                                                 26123M 26137M 26139  26312M 26326M 26328  27168M 27182M 27184  27451M
                                                 27465M 27467  27502M 27519  27582  27885M 27899M 27901  29093M 29116M
                                                 29116  29142  29148M 29149M 29178  29632M 29646M 29648  29683M 29700
                                                 29738  29976M 29990M 29992  32591M 32631  32847M 32848M 32996M 33534M
                                                 33534  33553M 33635M 33649M 33651  33788M 33799M 33799  33813  33858
                                                 33954  34077  34192M 34206M 34208  34351M 34351  34370M 34453M 34467M
                                                 34469  34637M 34677  34814M 34823M 34823  34865M 34865  34880  35131M
                                                 35140M 35140  35182M 35182  35196  35515M 35529M 35531  35627M 35641M
                                                 35643  35798M 35807M 35807  35849M 35849  35864  36146M 36155M 36155
                                                 36197M 36197  36212  36465M 36474M 36474  36516M 36516  36531  36784M
                                                 36793M 36793  36835M 36835  36850  37442M 37631M 37652M 37680M 37680
                                                 37702M 37802  38459M 38499  38687M 38710M 38721M 38721  38735  38777
                                                 38784M 38784  40285M 40299M 40301  40469M 40550M 40550  40568M 40622M
                                                 40636M 40638  40675  40858M 40867M 40867  40901M 40901  40908M 40908
                                                 40916  40939  40994M 41008M 41010  41945M 41959M 41961  42399M 42413M
                                                 42415  43234M 43248M 43250  43693M 43707M 43709  44014M 44015M 44017
                                                 44078M 44078  44115  44147M 44147  44180  44773M 44787M 44789  45285M
                                                 45299M 45301  45742M 45756M 45758  46090M 46122  46124  46139M 46139
1FUNC     (FUNC2193) (12:45) (15MAR04) Ordinary Symbol and Literal Cross Reference                                          Page  313
                                                 46150M 46313M 46377  46383M 46384  46385M 46392  46537  46741M 46930M
                                                 46951M 46967  46982M 46982  47003M 47109  47115  47450M 47464  47579M
                                                 47593M 47595  47747M 47761  47826  47871M 47885M 47887  48025M 48073
                                                 48075M 48089M 48091  48284M 48307M 48318M 48318  48332  48400  48402M
                                                 48416M 48418  48749M 48763M 48765  48942M 48956M 48958  49197M 49237
                                                 49512M 49526M 49528  49829M 50240M 50241M 50243M 50282M 50335M 50349M
                                                 50351  50493M 50592  50670M 50679M 50679  50686M 50686  50691M 51567M
                                                 51581M 51583  51765M 51777  51822M 51836M 51838  51980M 51981  52030M
                                                 52030  52050M 52055  52064M 52064  52084M 52089  52177M 52202M 52202
                                                 52237M 52294M 52295  52297  52301M 52312M 52312  52318  52359M 52830M
                                                 52860  52872M 52872  52904  52949M 52951M 52995M 53518M 53532M 53534
                                                 53702M 53753M 53753  53761M 53763  53961M 53983  54130M 54144M 54146
                                                 54294M 54316  54464M 54478M 54480  54620M 54660  56042M 56207M 56268
                                                 56699M 56713M 56715  56750M 56767  56805  57660M 57674M 57676  58499M
                                                 58500  58587M 58598M 58598  58612  58619  58643M 58644  58664M 58673M
                                                 58673  58680  58704M 58706M 58715M 58715  58722  58746M 58755M 58755
                                                 58762  58791M 58792  58795M 58797  58829  58905M 58906M 58907M 58938
                                                 58957  58972M 58985  59011M 59023M 59023  59120M 59120  59138M 59157M
                                                 59157  59190  59333M 59338  59387M 59411  59418  59424M 59436  59443M
                                                 59456M 59456  59466M 59466  59489M 59491  59508M 59558  59821M 59838M
                                                 59856  59870  60030  60053  60076
 R4            4 00000004 FFFFFFFF A   #     751  8329M  8414M  8770M  8782   9096M  9096   9112   9206M  9228M 10578M
                                                 10589M 10589  10603  10636  11059M 11067U 11911M 11920  12813M 12824M
                                                 12824  12838  12872  12878  12881  12887  12891M 12892  13560M 14205M
                                                 14208  14209M 14220M 14220  14234  14288  14301M 14301  14316M 14777M
                                                 14790  14863  15613M 15623U 16204M 16214U 18840M 18848U 20124M 20169M
                                                 20390M 20400M 20400  20465M 20467  21267M 21275U 22556M 22565  22735M
                                                 22748  22821  23036M 23038  23067  23073  23075M 23075  23082M 23137
                                                 23488M 23489M 23503  23539  23548M 23557  23561M 23563M 23588  23604
                                                 23630  23636  25821M 25852  25972  27347M 27355U 29095M 29482M 29490U
                                                 32853M 32864M 32864  32878  33035  33037  33858M 33877M 33888M 33888
                                                 33902  33954  34078  37143M 37152  37713M 37762M 39319M 39328  40016M
                                                 40025  40489M 41155M 41172  41266  41388  41664M 41678  41759  42105M
                                                 42119  42184  42564M 42578  42643  42940M 42954  43019  43399M 43413
                                                 43478  43833M 43841U 44479M 44493  44558  44938M 44952  45017  45148
                                                 45445M 45459  45540  46128M 46146M 46318M 46329M 46329  46343  46377
                                                 46383  46385  46391  46540  46967M 46969M 47005M 47016M 50495M 50506M
                                                 50506  50520  50544M 50593  50669  50670  50714M 50716M 52002M 52115M
                                                 52116M 52116  52142  52647M 52656  52861M 53001M 53008M 53009  53704M
                                                 53706  53729  53735  53737M 53737  53744M 53799  53963M 54082  54296M
                                                 54414  56066M 56067M 56067  56093  56151M 56152M 56152  56178  56617M
                                                 56625U 58827M 58836  58887M 58899  58905  58938M 58940M 58973M 58985
                                                 59024M 59037M 59037  59054M 59068  59138  59145M 59333  59486M 59498
                                                 59532M 59579M 59905M 60003M 60003  60037M 60060M 60083M 60137
 R5            5 00000005 FFFFFFFF A   #     764  8415M  8421   8591M  8593   8681   8769M  8769   9095M  9095   9205M
                                                  9205   9227M 10541U 10548M 10554M 10577M 10909M 10940  11096U 11098M
                                                 11103M 11843U 11845M 12034U 12036M 12038M 12190U 12192M 12194M 12346U
                                                 12348M 12350M 12564U 12566M 12568M 12802U 12806M 12812M 12913M 13192M
                                                 13202U 13517U 13531M 13536M 13541M 13561M 13794M 13806  13813M 13839M
                                                 13876M 13895  13902M 13908  14194U 14198M 14204M 14767U 14774M 14775M
                                                 14828M 14829M 15285U 15287M 15658U 15665M 15666M 15746M 15747M 16249U
                                                 16256M 16257M 16330M 16331M 16702U 16721M 16918  16939  17286U 17291M
                                                 17950U 17955M 18717U 18722M 19315U 19320M 20001U 20006M 20164  20165
                                                 20165  20165  20168M 20168  20172M 20459M 20461  20462  20474  20482
                                                 21034  21034  21034  21138U 21143M 21347U 21352M 22488U 22490M 22725U
                                                 22732M 22733M 22786M 22787M 23030U 23032M 23035M 23037M 23038M 23067
                                                 23319U 23323M 23372M 23425M 23557M 23558M 23560M 23694  23752  24054M
                                                 24064U 24339M 24349U 24624M 24634U 24893M 24903U 25129M 25139U 25831U
                                                 25852M 25972M 26955M 26965U 27512U 27519M 27582M 29089U 29091M 29094M
1FUNC     (FUNC2193) (12:45) (15MAR04) Ordinary Symbol and Literal Cross Reference                                          Page  314
                                                 29096M 29127M 29127  29142  29149  29150M 29185  29693U 29700M 29738M
                                                 32588U 32590M 32841U 32845M 32852M 32922M 33202U 33209M 33301M 33526U
                                                 33552M 33560M 33780U 33787M 33876M 34024M 34339U 34343M 34369M 34377M
                                                 34634U 34636M 34792U 34794M 34813M 35111U 35130M 35420U 35422M 35776U
                                                 35778M 35797M 36124U 36126M 36145M 36443U 36445M 36464M 36762U 36764M
                                                 36783M 37075U 37077M 37428M 37438U 37714M 37742M 37742  37764M 37790M
                                                 37790  37802  37809M 37828  37844  37867  38142M 38159  38171  38177M
                                                 38308M 38325  38337  38343M 38456U 38458M 38616U 38618M 38709M 38959M
                                                 39251U 39253M 39479M 39489U 39650M 39660U 39948U 39950M 40226M 40236U
                                                 40463U 40468M 40472M 40488M 40853U 40857M 41165U 41172M 41266M 41388M
                                                 41674U 41678M 41759M 42115U 42119M 42184M 42574U 42578M 42643M 42950U
                                                 42954M 43019M 43409U 43413M 43478M 43883U 43887M 44489U 44493M 44558M
                                                 44948U 44952M 45017M 45148M 45455U 45459M 45540M 46084U 46088M 46307U
                                                 46311M 46317M 46414M 46727M 46737U 47017M 47033  47048M 47048  47069M
                                                 47097M 47097  47109  47116  47118M 47137  47153  47176  47446U 47448M
                                                 47745M 48023M 48217U 48219M 48306M 48567M 48631  48812  49194U 49196M
                                                 49435M 49445U 49721U 49745M 50069M 50153M 50489U 50491M 50494M 50562M
                                                 50563M 50592M 50593M 50605  50612M 50612  50631M 50631  50645  50715
                                                 50936M 50946U 51352M 51362U 51760U 51762M 51764M 51973U 51978M 52048M
                                                 52082M 52112M 52579U 52581M 52826U 52828M 53195M 53205U 53238M 53698U
                                                 53700M 53703M 53705M 53706M 53729  53957U 53959M 53962M 53964M 54036
                                                 54290U 54292M 54295M 54297M 54369  54617U 54619M 54762M 54772U 55003U
                                                 55022M 55682M 55692U 55853M 55863U 56034U 56063M 56148M 56760U 56767M
                                                 56805M 58462U 58467M 58468  58586M 58642M 58663M 58703M 58745M 58789M
                                                 59378U 59383M 59799U 59837M 59907M 59937M
 R6            6 00000006 FFFFFFFF A   #     777  8442M  8450U  8636   8724   9201U  9541  10653U 10724U 10779U 10922U
                                                 11656U 11862U 12059U 12215U 12383U 12437U 12589U 13008U 13296U 13620U
                                                 13921U 14270U 14880U 15412U 15466U 15809U 15991U 16046U 16393U 16508U
                                                 16808U 16967U 17476U 17570U 17652U 18232U 18326U 18408U 18923U 19013U
                                                 19558U 19652U 20572U 20678U 21707U 21801U 22507U 22838U 23149U 23821U
                                                 24158U 24443U 24712U 24922U 25552U 26094U 26283U 27139U 27428U 27856U
                                                 29264U 29609U 29947U 32610U 33017U 33319U 33612U 34163U 34430U 34656U
                                                 34907U 34969U 35223U 35492U 35592U 35891U 35953U 36239U 36301U 36558U
                                                 36620U 36877U 36939U 37094U 37932U 37987U 38121U 38287U 38478U 38801U
                                                 39105U 39270U 39522U 39693U 39967U 40256U 40593U 40965U 41511U 41916U
                                                 42370U 42752U 43205U 43664U 44094U 44159U 44744U 45256U 45713U 46103U
                                                 46509U 47241U 47296U 47550U 47842U 48044U 48371U 48720U 48912U 49216U
                                                 49483U 50306U 50699U 51067U 51122U 51538U 51793U 52276U 52598U 52845U
                                                 53485U 53811U 54098U 54431U 54639U 54804U 55168U 55725U 55896U 56225U
                                                 56676U 57631U 59169U 59295M 59617  60116U
 R7            7 00000007 FFFFFFFF A   #     790  2322M  2322   2323B  2335B
 R8            8 00000008 FFFFFFFF A   #     803 11055U 12763U 13170U 13489U 14725U 15253U 15608U 16199U 16691U 19959U
                                                 20829U 21100U 22683U 23002U 23290U 24032U 24317U 24602U 24871U 25107U
                                                 25779U 26930U 27343U 29478U 37376U 38878  38936U 40431U 40815U 41125U
                                                 41635U 42076U 42535U 42911U 43370U 43829U 44450U 44909U 45416U 46268U
                                                 46675U 47412U 47716U 48544U 49673U 50915U 51331U 51943U 52798U 53126U
                                                 53670U 53928U 54261U 54933  54992U 56613U 58424U 59291U 59295  59296M
                                                 59296  59617M 59723U
 SAVEDATA      1 00000000 00000038     T   29357 29357  33104  45967
 SBUF          8 00000000 FFFFFFD3     D   19886 19902
 SCNVDESC      1 00000000 0000005C     T   54889 54889  60214
 SDSNQSZ       1 0000002C FFFFFFEC A   U    6310  6311   6312
 SECSYS        1 00000000 00000023     T   19855 19855
 SEG           1 00000000 00000005     T    9341  9341   9611  17135  23934  29343  33095  34537  36036  39388  39868
                                                 45961  51201  52716  54896  58243
 SEGCLR        1 00000000 00000022     T   19216 19216
 SEGCR         1 00000000 0000000C     T    9610  9610  12659  17139  29348  39389  51203  58259
 SEGDC         1 00000000 0000000D     T    9612  9612
 SEGINIT       1 00000000 00000036     T   29349 29349  33098  54887  60206
1FUNC     (FUNC2193) (12:45) (15MAR04) Ordinary Symbol and Literal Cross Reference                                          Page  315
 SEGT          1 00000000 00000006     T    9342  9342   9613
 SETABAD       2 00000244 00000001     H    9107  8817B  8865B  8913B  8961B  9009B  9090B
 SETADONE      2 00000250 00000001     H    9120  8675B  8763B  9104B  9117B
 SETARGS       2 000000D0 00000001     H    8556  8552  12660  17131  18608  19210  19850  21018  22203  23936  25667
                                                 29334  33091  34536  36027  39380  39864  45960  51197  51654  52708
                                                 54883  58241  59649  60208
 SHDSARGS    512 00000000 FFFFFFE1     J    7755 20148  20158U 20167  20253  21036
 SHDSFLAG      1 00000000 FFFFFFE1     R    7681  7685   7690   7695   7700   7705   7710   7715   7720
 SHDSFLG2      1 00000001 FFFFFFE1     R    7725  7726
 SHDSLIKE    128 00000110 FFFFFFE1     C    7735 20235M
 SHDSLIKL      4 0000010C FFFFFFE1     F    7734 20207M
 SHDSONLY      2 00000000 FFFFFFE1         7715 20252M
 SHDSPAGS      4 00000194 FFFFFFE1     F    7741  7742  20348  20359
 SHDSPGCT      2 00000190 FFFFFFE1     H    7740 20300
 SINVPGM       8 00000098 FFFFFFE6     C    7117  7123   7123
 SPR          13 0000000D 00000001 A   #    1334  8282   8285   8286   8287M  8287   8344M  8348   8350   8384   8387
                                                  8388   8389M  8389   8514M  8518   8520   8562   8565   8566   8567M
                                                  8567   9131M  9135   9137   9165   9168   9169   9170M  9170   9316M
                                                  9320   9322   9384   9387   9388   9389M  9389   9591M  9595   9597
                                                 10400  10403  10404  10405M 10405  10459M 10463  10465  10486  10489
                                                 10490  10491M 10491  10836M 10840  10842  10863  10866  10867  10868M
                                                 10868  10966M 10970  10972  11020  11023  11025  11026M 11026  11755M
                                                 11759  11761  11790  11793  11794  11795M 11795  11953M 11957  11959
                                                 11981  11984  11985  11986M 11986  12109M 12113  12115  12137  12140
                                                 12141  12142M 12142  12265M 12269  12271  12293  12296  12297  12298M
                                                 12298  12483M 12487  12489  12511  12514  12515  12516M 12516  12639M
                                                 12643  12645  12728  12731  12733  12734M 12734  13085M 13089  13091
                                                 13135  13138  13140  13141M 13141  13394M 13398  13400  13454  13457
                                                 13459  13460M 13460  14017M 14021  14023  14044  14047  14048  14049M
                                                 14049  14112M 14116  14118  14139  14142  14143  14144M 14144  14355M
                                                 14359  14361  14382  14385  14386  14387M 14387  14450M 14454  14456
                                                 14477  14480  14481  14482M 14482  14545M 14549  14551  14572  14575
                                                 14576  14577M 14577  14640M 14644  14646  14690  14693  14695  14696M
                                                 14696  14978M 14982  14984  15005  15008  15009  15010M 15010  15073M
                                                 15077  15079  15100  15103  15104  15105M 15105  15168M 15172  15174
                                                 15218  15221  15223  15224M 15224  15519M 15523  15525  15573  15576
                                                 15578  15579M 15579  16109M 16113  16115  16164  16167  16169  16170M
                                                 16170  16606M 16610  16612  16656  16659  16661  16662M 16662  17105M
                                                 17109  17111  17196  17199  17200  17201M 17201  17737M 17741  17743
                                                 17792  17795  17796  17797M 17797  17832M 17836  17838  17860  17863
                                                 17864  17865M 17865  18495M 18499  18501  18550  18553  18554  18555M
                                                 18555  18590M 18594  18596  18650  18653  18654  18655M 18655  19098M
                                                 19102  19104  19153  19156  19157  19158M 19158  19193M 19197  19199
                                                 19247  19250  19251  19252M 19252  19737M 19741  19743  19792  19795
                                                 19796  19797M 19797  19832M 19836  19838  19924  19927  19929  19930M
                                                 19930  20768M 20772  20774  20794  20797  20799  20800M 20800  20905M
                                                 20909  20911  20960  20963  20964  20965M 20965  21000M 21004  21006
                                                 21065  21068  21070  21071M 21071  21891M 21895  21897  21993  21996
                                                 21997  21998M 21998  22038M 22042  22044  22059  22062  22063  22064M
                                                 22064  22104M 22108  22110  22126  22129  22130  22131M 22131  22166M
                                                 22170  22172  22244  22247  22248  22249M 22249  22312M 22316  22318
                                                 22339  22342  22343  22344M 22344  22407M 22411  22413  22435  22438
                                                 22439  22440M 22440  22598M 22602  22604  22648  22651  22653  22654M
                                                 22654  22936M 22940  22942  22967  22970  22972  22973M 22973  23203M
                                                 23207  23209  23255  23258  23260  23261M 23261  23915M 23919  23921
                                                 23997  24000  24002  24003M 24003  24256M 24260  24262  24282  24285
                                                 24287  24288M 24288  24541M 24545  24547  24567  24570  24572  24573M
                                                 24573  24810M 24814  24816  24836  24839  24841  24842M 24842  25020M
                                                 25024  25026  25072  25075  25077  25078M 25078  25650M 25654  25656
1FUNC     (FUNC2193) (12:45) (15MAR04) Ordinary Symbol and Literal Cross Reference                                          Page  316
                                                 25744  25747  25749  25750M 25750  26391M 26395  26397  26492  26495
                                                 26496  26497M 26497  26532M 26536  26538  26553  26556  26557  26558M
                                                 26558  26599M 26603  26605  26620  26623  26624  26625M 26625  26660M
                                                 26664  26666  26681  26684  26685  26686M 26686  26726M 26730  26732
                                                 26747  26750  26751  26752M 26752  26840M 26844  26846  26895  26898
                                                 26900  26901M 26901  27242M 27246  27248  27308  27311  27313  27314M
                                                 27314  28112M 28116  28118  28301  28304  28305  28306M 28306  28346M
                                                 28350  28352  28367  28370  28371  28372M 28372  28412M 28416  28418
                                                 28433  28436  28437  28438M 28438  28478M 28482  28484  28499  28502
                                                 28503  28504M 28504  28544M 28548  28550  28565  28568  28569  28570M
                                                 28570  28611M 28615  28617  28632  28635  28636  28637M 28637  28677M
                                                 28681  28683  28698  28701  28702  28703M 28703  28744M 28748  28750
                                                 28765  28768  28769  28770M 28770  28810M 28814  28816  28831  28834
                                                 28835  28836M 28836  28876M 28880  28882  28897  28900  28901  28902M
                                                 28902  28938M 28942  28944  28959  28962  28963  28964M 28964  28999M
                                                 29003  29005  29036  29039  29040  29041M 29041  29313M 29317  29319
                                                 29443  29446  29448  29449M 29449  30269M 30273  30275  30683  30686
                                                 30687  30688M 30688  30732M 30736  30738  30753  30756  30757  30758M
                                                 30758  30805M 30809  30811  30826  30829  30830  30831M 30831  30871M
                                                 30875  30877  30892  30895  30896  30897M 30897  30937M 30941  30943
                                                 30958  30961  30962  30963M 30963  31003M 31007  31009  31024  31027
                                                 31028  31029M 31029  31070M 31074  31076  31091  31094  31095  31096M
                                                 31096  31136M 31140  31142  31157  31160  31161  31162M 31162  31202M
                                                 31206  31208  31223  31226  31227  31228M 31228  31269M 31273  31275
                                                 31290  31293  31294  31295M 31295  31336M 31340  31342  31357  31360
                                                 31361  31362M 31362  31402M 31406  31408  31423  31426  31427  31428M
                                                 31428  31469M 31473  31475  31490  31493  31494  31495M 31495  31535M
                                                 31539  31541  31556  31559  31560  31561M 31561  31601M 31605  31607
                                                 31622  31625  31626  31627M 31627  31668M 31672  31674  31689  31692
                                                 31693  31694M 31694  31735M 31739  31741  31756  31759  31760  31761M
                                                 31761  31801M 31805  31807  31822  31825  31826  31827M 31827  31867M
                                                 31871  31873  31888  31891  31892  31893M 31893  31933M 31937  31939
                                                 31954  31957  31958  31959M 31959  31999M 32003  32005  32020  32023
                                                 32024  32025M 32025  32065M 32069  32071  32086  32089  32090  32091M
                                                 32091  32127M 32131  32133  32148  32151  32152  32153M 32153  32188M
                                                 32192  32194  32209  32212  32213  32214M 32214  32254M 32258  32260
                                                 32275  32278  32279  32280M 32280  32340M 32344  32346  32361  32364
                                                 32365  32366M 32366  32401M 32405  32407  32435  32438  32439  32440M
                                                 32440  32503M 32507  32509  32532  32535  32536  32537M 32537  32664M
                                                 32668  32670  32691  32694  32695  32696M 32696  32759M 32763  32765
                                                 32786  32789  32790  32791M 32791  33071M 33075  33077  33147  33150
                                                 33151  33152M 33152  33443M 33447  33449  33473  33476  33477  33478M
                                                 33478  33698M 33702  33704  33725  33728  33729  33730M 33730  34256M
                                                 34260  34262  34286  34289  34290  34291M 34291  34516M 34520  34522
                                                 34578  34581  34582  34583M 34583  34706M 34710  34712  34735  34738
                                                 34739  34740M 34740  35025M 35029  35031  35054  35057  35058  35059M
                                                 35059  35279M 35283  35285  35310  35313  35314  35315M 35315  35690M
                                                 35694  35696  35719  35722  35723  35724M 35724  36009M 36013  36015
                                                 36067  36070  36071  36072M 36072  36357M 36361  36363  36386  36389
                                                 36390  36391M 36391  36676M 36680  36682  36705  36708  36709  36710M
                                                 36710  36995M 36999  37001  37022  37025  37026  37027M 37027  37185M
                                                 37189  37191  37212  37215  37216  37217M 37217  37280M 37284  37286
                                                 37341  37344  37346  37347M 37347  38039M 38043  38045  38066  38069
                                                 38070  38071M 38071  38205M 38209  38211  38232  38235  38236  38237M
                                                 38237  38371M 38375  38377  38400  38403  38404  38405M 38405  38532M
                                                 38536  38538  38563  38566  38567  38568M 38568  38851M 38855  38857
                                                 38901  38904  38906  38907M 38907  39163M 39167  39169  39198  39201
                                                 39202  39203M 39203  39361M 39365  39367  39432  39435  39436  39437M
                                                 39437  39578M 39582  39584  39603  39606  39607  39608M 39608  39749M
1FUNC     (FUNC2193) (12:45) (15MAR04) Ordinary Symbol and Literal Cross Reference                                          Page  317
                                                 39753  39755  39776  39779  39780  39781M 39781  39844M 39848  39850
                                                 39895  39898  39899  39900M 39900  40058M 40062  40064  40085  40088
                                                 40089  40090M 40090  40153M 40157  40159  40180  40183  40184  40185M
                                                 40185  40348M 40352  40354  40396  40399  40401  40402M 40402  40711M
                                                 40715  40717  40780  40783  40785  40786M 40786  41062M 41066  41068
                                                 41090  41093  41095  41096M 41096  41572M 41576  41578  41600  41603
                                                 41605  41606M 41606  42013M 42017  42019  42041  42044  42046  42047M
                                                 42047  42472M 42476  42478  42500  42503  42505  42506M 42506  42848M
                                                 42852  42854  42876  42879  42881  42882M 42882  43307M 43311  43313
                                                 43335  43338  43340  43341M 43341  43766M 43770  43772  43794  43797
                                                 43799  43800M 43800  44219M 44223  44225  44274  44277  44278  44279M
                                                 44279  44319M 44323  44325  44340  44343  44344  44345M 44345  44380M
                                                 44384  44386  44415  44418  44420  44421M 44421  44846M 44850  44852
                                                 44874  44877  44879  44880M 44880  45353M 45357  45359  45381  45384
                                                 45386  45387M 45387  45810M 45814  45816  45844  45847  45848  45849M
                                                 45849  45941M 45945  45947  46029  46032  46033  46034M 46034  46184M
                                                 46188  46190  46233  46236  46238  46239M 46239  46579M 46583  46585
                                                 46640  46643  46645  46646M 46646  47348M 47352  47354  47377  47380
                                                 47382  47383M 47383  47652M 47656  47658  47681  47684  47686  47687M
                                                 47687  47944M 47948  47950  47972  47975  47976  47977M 47977  48133M
                                                 48137  48139  48164  48167  48168  48169M 48169  48460M 48464  48466
                                                 48509  48512  48514  48515M 48515  49009M 49013  49015  49043  49046
                                                 49047  49048M 49048  49111M 49115  49117  49141  49144  49145  49146M
                                                 49146  49266M 49270  49272  49293  49296  49297  49298M 49298  49361M
                                                 49365  49367  49389  49392  49393  49394M 49394  49576M 49580  49582
                                                 49638  49641  49643  49644M 49644  50404M 50408  50410  50436  50439
                                                 50440  50441M 50441  50739M 50743  50745  50766  50769  50770  50771M
                                                 50771  50835M 50839  50841  50880  50883  50885  50886M 50886  51179M
                                                 51183  51185  51296  51299  51301  51302M 51302  51636M 51640  51642
                                                 51707  51710  51711  51712M 51712  51880M 51884  51886  51908  51911
                                                 51913  51914M 51914  52402M 52406  52408  52431  52434  52435  52436M
                                                 52436  52499M 52503  52505  52526  52529  52530  52531M 52531  52689M
                                                 52693  52695  52763  52766  52768  52769M 52769  53040M 53044  53046
                                                 53091  53094  53096  53097M 53097  53604M 53608  53610  53635  53638
                                                 53640  53641M 53641  53865M 53869  53871  53893  53896  53898  53899M
                                                 53899  54198M 54202  54204  54226  54229  54231  54232M 54232  54532M
                                                 54536  54538  54561  54564  54565  54566M 54566  54689M 54693  54695
                                                 54716  54719  54720  54721M 54721  54860M 54864  54866  54957  54960
                                                 54962  54963M 54963  55222M 55226  55228  55256  55259  55260  55261M
                                                 55261  55325M 55329  55331  55352  55355  55356  55357M 55357  55420M
                                                 55424  55426  55447  55450  55451  55452M 55452  55515M 55519  55521
                                                 55542  55545  55546  55547M 55547  55610M 55614  55616  55635  55638
                                                 55639  55640M 55640  55781M 55785  55787  55806  55809  55810  55811M
                                                 55811  55952M 55956  55958  55979  55982  55983  55984M 55984  56313M
                                                 56317  56319  56340  56343  56344  56345M 56345  56408M 56412  56414
                                                 56435  56438  56439  56440M 56440  56503M 56507  56509  56578  56581
                                                 56583  56584M 56584  57731M 57735  57737  57845  57848  57849  57850M
                                                 57850  57890M 57894  57896  57911  57914  57915  57916M 57916  57956M
                                                 57960  57962  57977  57980  57981  57982M 57982  58022M 58026  58028
                                                 58043  58046  58047  58048M 58048  58088M 58092  58094  58109  58112
                                                 58113  58114M 58114  58154M 58158  58160  58175  58178  58179  58180M
                                                 58180  58215M 58219  58221  58389  58392  58394  58395M 58395  59229M
                                                 59233  59235  59257  59260  59262  59263M 59263  59633M 59637  59639
                                                 59688  59691  59693  59694M 59694  60189M 60193  60195
 SQSHRTN       1 00000000 00000056     T   51217 51217
 SSB          56 00000000 FFFFFFE9     J    6578 51274  51484U
 SSBFLAG       1 00000014 FFFFFFE9     R    6552  6556
 SSBNAME       8 00000004 FFFFFFE9     C    6548  6571   6571
 SSBSCLCK      8 00000018 FFFFFFE9     X    6562 51488
1FUNC     (FUNC2193) (12:45) (15MAR04) Ordinary Symbol and Literal Cross Reference                                          Page  318
 STRIPCHR      1 00000001 FFFFFFC3     C   49610 49693M 50143M 50201  50272
 STRIPFL     128 00000000 FFFFFFC3        49601 49691  49691  49692M 49827  49827  49828M 49867M 49970  49970  49971M
                                                 50168
 STRIPFLG      1 00000000 FFFFFFC3     R   49597 49601  49606
 STRIPFT      64 00000000 FFFFFFC3        49606 49691  49691  49827  49827  49918M 49970  49970  50234
 STRIPWA       2 00000000 FFFFFFC3     J   49617 49644  49673U 49683M 49683  50408  50410  50411
 SYSCHECK      1 00000000 00000057     T   51221 51221
 SYSCKNM       8 00000000 FFFFFFC1     C   51273 51399M 51427M 51440M 51450  51455  51655
 SYSCKSSB     56 00000008 FFFFFFC1     X   51274 51456
 SYSCKWA      64 00000000 FFFFFFC1     J   51281 51302  51331U 51640  51642  51643
 SYSFEND       4 00000EF0 00000001     F   10312  9336
 SYSFNS        4 00000478 00000001     F    9642  9337
 SYSGTSSB      1 00000000 00000058     T   51656 51656
 SYSUPNM       8 00000000 FFFFFFC2     C   50858 50983M 51011M 51024M 51034  51039  51220
 SYSUPWA       8 00000000 FFFFFFC2     J   50865 50886  50915U 51183  51185  51186
 TOASCII       1 00000000 00000035     T   29346 29346
 TRC           1 00000000 00000000 A   T    2351  2351
 TREAD         1 00000000 00000037     T   29350 29350  33099
 TRIMDONE      2 000002DC 00000001     H    9304  9220B  9242B  9294B
 TTYFLAG       1 00000004 FFFFFFEA     R    6439  6443
 TTYMAX#       1 00000006 FFFFFFEA A   U    6495  6496
 TTYTFLAG      1 00000005 FFFFFFEA     R    6449  6453   6458   6463   6468   6473   6478   6483
 UPPTBL        1 00000000 00000000 A   T    2414  2414
 VNADATA      48 00000020 FFFFFFE4     X    7288  7465   7465
 VNADIM1       2 00000032 FFFFFFE4     H    7461 58499  60037
 VNADIM2       2 00000034 FFFFFFE4     H    7462 60060
 VNADIM3       2 00000036 FFFFFFE4     H    7463 60083
 VNAFLAGS      1 00000011 FFFFFFE4     R    7269  7273
 VNAREA        1 00000024 FFFFFFE4     U    7406  7408   7412   7418   7467   7473   7478   7484
 VNARRAY       4 00000020 FFFFFFE4         7332  7649   7649  53345  58478  60013
 VNASTR        1 00000030 FFFFFFE4         7434 58493
 VNASUB1       2 00000012 FFFFFFE4     H    7276 53250M 53250  59338M 59954M 59954
 VNATYPE       1 00000030 FFFFFFE4     R    7425  7434   7444   7454
 VNBOOL        3 00000020 FFFFFFE4         7322  7645   7645  10670M 10741M 10796M 12400M 12454M 15429M 15483M 15826M
                                                 16008M 16063M 17054  37949M 38004M 47258M 47313M 51084M 51139M 53324
                                                 53449
 VNDATA       16 00000020 FFFFFFE4     X    7284  7285   7287   7289   7471   7471   7476   7476   7482   7482   7487
                                                  7487
 VNDEBUG       1 00000021 FFFFFFE4     R    7367  7371   7376   7381   7386
 VNDESC       32 00000000 FFFFFFE4     X    7210  7211   7279   7279   7574   7635   7635
 VNENTRY      80 00000000 FFFFFFE4     J    7500  7519   7566   7574   7635   7640   7643   7645   7647   7649   7652
                                                  7654   7656   9201U 10541U 10653U 10664M 10664  10724U 10735M 10735
                                                 10779U 10790M 10790  10922U 10933M 10933  10940  11096U 11656U 11667M
                                                 11667  11843U 11862U 11870M 11870  12034U 12059U 12070M 12070  12082
                                                 12190U 12215U 12226M 12226  12238  12346U 12383U 12394M 12394  12437U
                                                 12448M 12448  12564U 12589U 12600M 12600  12612  12802U 13008U 13019M
                                                 13019  13202U 13296U 13307M 13307  13517U 13620U 13631M 13631  13921U
                                                 13932M 13932  14194U 14270U 14281M 14281  14767U 14880U 14891M 14891
                                                 15285U 15412U 15423M 15423  15466U 15477M 15477  15658U 15809U 15820M
                                                 15820  15991U 16002M 16002  16046U 16057M 16057  16249U 16393U 16404M
                                                 16404  16508U 16519M 16519  16702U 16808U 16819M 16819  16967U 16978M
                                                 16978  17286U 17476U 17487M 17487  17570U 17581M 17581  17652U 17663M
                                                 17663  17950U 18232U 18243M 18243  18326U 18337M 18337  18408U 18419M
                                                 18419  18717U 18923U 18934M 18934  19013U 19024M 19024  19315U 19558U
                                                 19569M 19569  19652U 19663M 19663  20001U 20572U 20583M 20583  20678U
                                                 20689M 20689  21138U 21347U 21707U 21718M 21718  21801U 21812M 21812
                                                 22488U 22507U 22515M 22515  22725U 22838U 22849M 22849  23030U 23149U
                                                 23160M 23160  23171  23319U 23324  23821U 23832M 23832  24064U 24158U
                                                 24169M 24169  24349U 24443U 24454M 24454  24634U 24712U 24723M 24723
1FUNC     (FUNC2193) (12:45) (15MAR04) Ordinary Symbol and Literal Cross Reference                                          Page  319
                                                 24903U 24922U 24933M 24933  25139U 25552U 25563M 25563  25831U 26094U
                                                 26105M 26105  26283U 26294M 26294  26965U 27139U 27150M 27150  27428U
                                                 27439M 27439  27512U 27856U 27867M 27867  29089U 29264U 29275M 29275
                                                 29286  29609U 29620M 29620  29693U 29947U 29958M 29958  32588U 32610U
                                                 32621M 32621  32633  32841U 33017U 33028M 33028  33202U 33319U 33329M
                                                 33329  33526U 33612U 33623M 33623  33780U 34163U 34174M 34174  34339U
                                                 34430U 34441M 34441  34634U 34656U 34667M 34667  34679  34792U 34907U
                                                 34918M 34918  34930  34969U 34980M 34980  34992  35111U 35223U 35234M
                                                 35234  35246  35420U 35492U 35503M 35503  35592U 35603M 35603  35776U
                                                 35891U 35902M 35902  35914  35953U 35964M 35964  35976  36124U 36239U
                                                 36250M 36250  36262  36301U 36312M 36312  36324  36443U 36558U 36569M
                                                 36569  36581  36620U 36631M 36631  36643  36762U 36877U 36888M 36888
                                                 36900  36939U 36950M 36950  36962  37075U 37094U 37102M 37102  37438U
                                                 37651  37652  37713  37714  37932U 37943M 37943  37987U 37998M 37998
                                                 38121U 38131M 38131  38159  38171  38287U 38297M 38297  38325  38337
                                                 38456U 38478U 38489M 38489  38501  38616U 38801U 38812M 38812  38824
                                                 39105U 39116M 39116  39127  39251U 39270U 39278M 39278  39489U 39522U
                                                 39533M 39533  39545  39660U 39693U 39704M 39704  39716  39948U 39967U
                                                 39975M 39975  40236U 40256U 40267M 40267  40463U 40593U 40604M 40604
                                                 40853U 40965U 40976M 40976  41165U 41511U 41522M 41522  41534  41674U
                                                 41916U 41927M 41927  42115U 42370U 42381M 42381  42574U 42752U 42763M
                                                 42763  42950U 43205U 43216M 43216  43409U 43664U 43675M 43675  43883U
                                                 44094U 44105M 44105  44117  44159U 44170M 44170  44182  44489U 44744U
                                                 44755M 44755  44948U 45256U 45267M 45267  45455U 45713U 45724M 45724
                                                 46084U 46103U 46114M 46114  46307U 46509U 46520M 46520  46737U 46950
                                                 46951  47016  47017  47241U 47252M 47252  47296U 47307M 47307  47446U
                                                 47550U 47561M 47561  47842U 47853M 47853  48044U 48055M 48055  48217U
                                                 48371U 48382M 48382  48720U 48731M 48731  48912U 48923M 48923  49194U
                                                 49216U 49227M 49227  49239  49445U 49483U 49494M 49494  49721U 50306U
                                                 50317M 50317  50489U 50699U 50707M 50707  50946U 51067U 51078M 51078
                                                 51122U 51133M 51133  51362U 51538U 51549M 51549  51760U 51793U 51804M
                                                 51804  51973U 52276U 52287M 52287  52579U 52598U 52606M 52606  52826U
                                                 52845U 52853M 52853  53205U 53256  53381  53485U 53496M 53496  53698U
                                                 53811U 53822M 53822  53833  53957U 54098U 54109M 54109  54290U 54431U
                                                 54442M 54442  54617U 54639U 54650M 54650  54662  54772U 54804U 54815M
                                                 54815  54827  55003U 55168U 55179M 55179  55190  55692U 55725U 55736M
                                                 55736  55748  55863U 55896U 55907M 55907  55919  56034U 56225U 56236M
                                                 56236  56676U 56687M 56687  56760U 57631U 57642M 57642  58462U 59169U
                                                 59180M 59180  59192  59310U 59378U 59799U 59942  60116U 60127M 60127
                                                 60139
 VNFLAGS1      1 00000022 FFFFFFE4     R    7391  7395
 VNNAME       16 00000000 FFFFFFE4     C    7212  7464   7640   7640   8126   8127   8643   8731   9548
 VNNUMB        2 00000020 FFFFFFE4         7312  7643   7643  10939M 12076M 12232M 12606M 16900  23166M 29281M 32627M
                                                 34673M 34924M 34986M 35240M 35908M 35970M 36256M 36318M 36575M 36637M
                                                 36894M 36956M 38137M 38303M 38495M 38818M 39122M 39539M 39710M 41528M
                                                 44111M 44176M 48577  48806  49233M 53303  53428  53828M 54656M 54821M
                                                 55185M 55742M 55913M 59186M 60133M
 VNPREFIX      1 00000010 FFFFFFE4     R    7215  7224   7234   7244   7254   7264
 VNSDATA       6 00000020 FFFFFFE4     X    7286  7416   7416
 VNSTRING      1 00000020 FFFFFFE4         7302  7647   7647  11673M 11876M 13025M 13313M 13637M 13938M 14287M 14897M
                                                 16410M 16525M 16731  16825M 16984M 17493M 17587M 17669M 18249M 18343M
                                                 18425M 18940M 19030M 19575M 19669M 20589M 20695M 21724M 21818M 22521M
                                                 22855M 23838M 24175M 24460M 24729M 24939M 25569M 26111M 26300M 27156M
                                                 27445M 27873M 29626M 29964M 33034M 33335M 33629M 34180M 34447M 35509M
                                                 35609M 37108M 39284M 39981M 40273M 40610M 40982M 41933M 42387M 42769M
                                                 43222M 43681M 44761M 45273M 45730M 46120M 46526M 47567M 47859M 48061M
                                                 48388M 48737M 48929M 49500M 50323M 50713M 51555M 51810M 52293M 52612M
                                                 52859M 53282  53407  53502M 54115M 54448M 56242M 56693M 57648M
 VNSTRLEN      2 00000024 FFFFFFE4     H    7414  7656   7656   9204   9219M  9226   9241M  9248   9293M 10550  10556
1FUNC     (FUNC2193) (12:45) (15MAR04) Ordinary Symbol and Literal Cross Reference                                          Page  320
                                                 11101  11106  11684M 11847  11877M 12808  12926  12981  13046M 13218
                                                 13324M 13533  13538  13543  13648M 13949M 14200  14288M 14777  14842
                                                 14908M 15289  15669  15761  16269M 16269  16345  16415M 16530M 16737
                                                 16837M 16996M 17306  17504M 17592M 17674M 17970  18260M 18348M 18430M
                                                 18737  18942M 19035M 19335  19586M 19674M 20021  20604M 20700M 21158
                                                 21367  21735M 21823M 22492  22522M 22735  22800  22866M 23034  23037
                                                 23329  23850M 24080  24186M 24365  24471M 24650  24740M 24950M 25144
                                                 25580M 25865  25987  26122M 26311M 26981  27167M 27450M 27532  27597
                                                 27884M 29093  29096  29631M 29713  29753  29975M 32847  32935  32990
                                                 33035M 33413M 33573  33634M 34191M 34390  34452M 35514M 35626M 37079
                                                 37109M 37443  37652  37714  38960  39255  39285M 39505  39676  39952
                                                 39982M 40284M 40470  40474  40621M 40993M 41267  41389  41760  41944M
                                                 42185  42398M 42644  42811M 43020  43233M 43479  43692M 43903  44559
                                                 44772M 45018  45162  45284M 45541  45741M 46090  46122M 46313  46427
                                                 46482  46540M 46742  46951  47017  47450  47578M 47747  47870M 48025
                                                 48074M 48401M 48748M 48846  48941M 49197  49461  49511M 49758  49813
                                                 50082  50137  50155  50334M 50493  50715M 50963  51379  51566M 51821M
                                                 51980  52050  52084  52115  52295M 52301  52583  52613M 52830  52860M
                                                 53009M 53221  53517M 53702  53705  53961  53964  54129M 54294  54297
                                                 54463M 54788  55023  55708  55879  56066  56151  56284M 56698M 56780
                                                 56820  57659M 58791  59387  59920
 VNSTRLOC      1 00000026 FFFFFFE4     C    7415  7654   7654   9203   9225   9247  10549  10555  11099  11104  11708M
                                                 11846  11903M 11920M 12807  12987  13029  13214  13348M 13532  13537
                                                 13542  13672M 13973M 14199  14290  14797  14838  14932M 15288  15700
                                                 15757  16341  16439M 16554M 16791  16861M 17020M 17302  17528M 17616M
                                                 17698M 17966  18284M 18372M 18454M 18733  18970M 19059M 19331  19610M
                                                 19698M 20017  20628M 20724M 21154  21363  21759M 21847M 22491  22548M
                                                 22565M 22755  22796  22890M 23033  23036  23357  23874M 24076  24210M
                                                 24361  24495M 24646  24764M 24974M 25143  25604M 25861  25983  26146M
                                                 26335M 26977  27191M 27474M 27528  27593  27908M 29092  29095  29655M
                                                 29709  29749  29999M 32846  32996  33036  33345  33569  33658M 34215M
                                                 34386  34476M 35538M 35650M 37078  37135M 37152M 37442  37651  37713
                                                 39014  39254  39311M 39328M 39501  39672  39951  40008M 40025M 40308M
                                                 40469  40473  40645M 41017M 41348  41470  41841  41968M 42266  42422M
                                                 42725  42778  43101  43257M 43560  43716M 43899  44640  44796M 45099
                                                 45158  45308M 45622  45765M 46089  46128  46312  46488  46528  46741
                                                 46950  47016  47449  47602M 47746  47894M 48024  48098M 48425M 48772M
                                                 48847  48965M 49457  49535M 49829  50143  50154  50358M 50492  50714
                                                 50959  51375  51590M 51845M 51979  52049  52083  52166  52296  52300
                                                 52582  52639M 52656M 52829  52861  53007  53217  53541M 53701  53704
                                                 53960  53963  54153M 54293  54296  54487M 54784  55077  55704  55875
                                                 56122  56207  56247  56722M 56776  56816  57683M 58790  59386  59916
 VNTYPE        1 00000020 FFFFFFE4     R    7293  7302   7312   7322   7332   7342   7352   7362
 VNVALUE      12 00000024 FFFFFFE4     X    7410  7491   7652   7652  10578  10671M 10742M 10797M 10940M 10940  10941M
                                                 10941M 10942M 10942M 12037  12039  12081M 12193  12195  12237M 12349
                                                 12351  12401M 12455M 12567  12569  12611M 12813  14205  15430M 15484M
                                                 15827M 16009M 16064M 16906  16950  23170M 23373  23426  29285M 32591
                                                 32632M 32853  33210  33302  33553  33788  33877  34025  34344  34370
                                                 34637  34678M 34795  34814  34929M 34991M 35131  35245M 35423  35779
                                                 35798  35913M 35975M 36127  36146  36261M 36323M 36446  36465  36580M
                                                 36642M 36765  36784  36899M 36961M 37950M 38005M 38138M 38159  38159
                                                 38171M 38171  38304M 38325  38325  38337M 38337  38459  38500M 38619
                                                 38710  38823M 39126M 39544M 39715M 40240  40858  41173  41533M 41679
                                                 42120  42579  42955  43414  44116M 44181M 44494  44953  45460  46318
                                                 47259M 47314M 48220  48307  48583  48665  49238M 50495  50563  51085M
                                                 51140M 51763  51765  53832M 54620  54661M 54826M 55189M 55747M 55918M
                                                 58587  58643  58664  58704  58746  59191M 59838  60138M
 VPARM       336 00000000 FFFFFFE3     J    7527  7568   7658   7659   9097  10353  10354  10355  10356  10357  10358
                                                 10359  10360  10362  10373  38177  38343  53061
1FUNC     (FUNC2193) (12:45) (15MAR04) Ordinary Symbol and Literal Cross Reference                                          Page  321
 VTRIM         2 0000025E 00000001     H    9159  9155  29340  45980  54892
 WAR           8 00000008 00000001 A   #    1257  8286M  8344   8388M  8503   8514   8566M  9131   9169M  9316   9388M
                                                  9591  10404M 10459  10490M 10836  10867M 10966  11025M 11755  11794M
                                                 11953  11985M 12109  12141M 12265  12297M 12483  12515M 12639  12733M
                                                 13085  13140M 13394  13459M 14017  14048M 14112  14143M 14355  14386M
                                                 14450  14481M 14545  14576M 14640  14695M 14978  15009M 15073  15104M
                                                 15168  15223M 15519  15578M 16109  16169M 16606  16661M 17105  17200M
                                                 17737  17796M 17832  17864M 18495  18554M 18590  18654M 19098  19157M
                                                 19193  19251M 19737  19796M 19832  19929M 20768  20799M 20905  20964M
                                                 21000  21070M 21891  21997M 22038  22063M 22104  22130M 22166  22248M
                                                 22312  22343M 22407  22439M 22598  22653M 22936  22972M 23203  23260M
                                                 23915  24002M 24256  24287M 24541  24572M 24810  24841M 25020  25077M
                                                 25650  25749M 26391  26496M 26532  26557M 26599  26624M 26660  26685M
                                                 26726  26751M 26840  26900M 27242  27313M 28112  28305M 28346  28371M
                                                 28412  28437M 28478  28503M 28544  28569M 28611  28636M 28677  28702M
                                                 28744  28769M 28810  28835M 28876  28901M 28938  28963M 28999  29040M
                                                 29313  29448M 30269  30687M 30732  30757M 30805  30830M 30871  30896M
                                                 30937  30962M 31003  31028M 31070  31095M 31136  31161M 31202  31227M
                                                 31269  31294M 31336  31361M 31402  31427M 31469  31494M 31535  31560M
                                                 31601  31626M 31668  31693M 31735  31760M 31801  31826M 31867  31892M
                                                 31933  31958M 31999  32024M 32065  32090M 32127  32152M 32188  32213M
                                                 32254  32279M 32340  32365M 32401  32439M 32503  32536M 32664  32695M
                                                 32759  32790M 33071  33151M 33443  33477M 33698  33729M 34256  34290M
                                                 34516  34582M 34706  34739M 35025  35058M 35279  35314M 35690  35723M
                                                 36009  36071M 36357  36390M 36676  36709M 36995  37026M 37185  37216M
                                                 37280  37346M 38039  38070M 38205  38236M 38371  38404M 38532  38567M
                                                 38851  38906M 39163  39202M 39361  39436M 39578  39607M 39749  39780M
                                                 39844  39899M 40058  40089M 40153  40184M 40348  40401M 40711  40785M
                                                 41062  41095M 41572  41605M 42013  42046M 42472  42505M 42848  42881M
                                                 43307  43340M 43766  43799M 44219  44278M 44319  44344M 44380  44420M
                                                 44846  44879M 45353  45386M 45810  45848M 45930  45941  46033M 46184
                                                 46238M 46579  46645M 47348  47382M 47652  47686M 47944  47976M 48133
                                                 48168M 48460  48514M 49009  49047M 49111  49145M 49266  49297M 49361
                                                 49393M 49576  49643M 50404  50440M 50739  50770M 50835  50885M 51179
                                                 51301M 51636  51711M 51880  51913M 52402  52435M 52499  52530M 52689
                                                 52768M 53040  53096M 53604  53640M 53865  53898M 54198  54231M 54532
                                                 54565M 54689  54720M 54860  54962M 55222  55260M 55325  55356M 55420
                                                 55451M 55515  55546M 55610  55639M 55781  55810M 55952  55983M 56313
                                                 56344M 56408  56439M 56503  56583M 57731  57849M 57890  57915M 57956
                                                 57981M 58022  58047M 58088  58113M 58154  58179M 58215  58394M 59229
                                                 59262M 59633  59693M 60189
 WATCHKW       1 00000000 00000014     T   17152 17152
 WGSACCES      1 00000000 0000002C     T   22212 22212
 WGSHODSN      1 00000000 00000025     T   21025 21025
 WTOSG         1 00000000 00000000 A   T    2311  2311
 WYLFUNC       1 00000000 00000001     J    1221  1223   1239   1252   1265   1277   1290   1303   1316   1329   1342
                                                  1355   2595   2679   6419   6531   6579   6863   7073   7150   7155
                                                  7158   7188   7501   7528   7667   7756   7986   8090   8117
 XCNTRECS      1 00000000 0000004D     T   45975 45975
 XDELETE       1 00000000 0000004E     T   45978 45978
 XDELSET       1 00000000 0000004C     T   45970 45970
 XGET          1 00000000 00000034     T   29342 29342  45981
 XLASTSET      1 00000000 00000052     T   45988 45988
 XLFRPTRS      4 00000008 FFFFFFC0     F   51675 52089M 52176
 XLMDLTBL      1 00008798 00000001     R   52413 52174  52413
 XLOCATE       1 00000000 00000055     T   45991 45991
 XLOCFRST      1 00000000 0000004F     T   45979 45979
 XLOCLAST      1 00000000 00000050     T   45982 45982
 XLOCNEXT      1 00000000 00000051     T   45983 45983
1FUNC     (FUNC2193) (12:45) (15MAR04) Ordinary Symbol and Literal Cross Reference                                          Page  322
 XLOCPREV      1 00000000 00000054     T   45990 45990
 XLPAD         1 00000018 FFFFFFC0     C   51678 52093M 52166M 52213
 XLSTPTRS      4 00000000 FFFFFFC0     F   51674 51981M 52294
 XLTBL       256 00000019 FFFFFFC0     X   51680 52003M 52174M 52253  52349
 XLTOPTRS      4 00000010 FFFFFFC0     F   51676 52055M 52177
 XLWA        281 00000000 FFFFFFC0     J   51687 51914  51943U 52406  52408  52409
 XPUT          1 00000000 00000053     T   45989 45989
 XSENTRY      80 00000000 FFFFFFE2     J    7666  7640   7643   7645   7647   7652   7654   7656
 XSETSET       1 00000000 00000033     T   29341 29341  45968
 XSLENTRY    336 00000000 FFFFFFE2     U    7568  7658   7659
 XSTYPE        1 00000000 FFFFFFE2     R    7577  7586   7596   7606   7616   7626
 XTB           1 00000000 0000005B     T   54885 54885
 XXSSTART      8 00000000 FFFFFFE2     D    7565  7568   7574   7635
 YESRTN        1 00000000 00000063     T   58261 58261
 YESRTNH       1 00000000 00000062     T   58260 58260
 YNASK         4 00009598 00000001     I   57143 57038B
 YNATTN        2 0000985C 00000001     H   58037 57818
 YNBAD         2 000098B4 00000001     H   58169 57833
 YNCONT        2 00009526 00000001     H   56938 56799B 56878B
 YNERR         2 000094FC 00000001     H   56888 56872B
 YNEXIT        4 000096CC 00000001     I   57707 56648B 56743B 56934B 57032B
 YNFATTN      32 00000000 FFFFFFBC        56535 56960  56960  56961  56961  56962  56962  57320  58077M
 YNFHELP       8 00000000 FFFFFFBC        56545 57254  58011M
 YNFLAG        1 00000000 FFFFFFBC     R   56524 56525  56530  56535  56540  56545
 YNFNO        64 00000000 FFFFFFBC        56530 56957  56957  56959  56959  56961  56961  56976  56976  56996  56996
                                                 57059  57059  57099  57185  57185  57225  57521  57945M
 YNFNULL      16 00000000 FFFFFFBC        56540 56958  56958  56959  56959  56962  56962  57461  58143M
 YNFYES      128 00000000 FFFFFFBC        56525 56957  56957  56958  56958  56960  56960  56963  56976  56976  56977M
                                                 56996  56996  56997  57059  57059  57060  57075  57185  57185  57186
                                                 57201  57585  57879M
 YNHELP        2 00009830 00000001     H   57971 57788
 YNLOOP        4 0000955E 00000001     I   57044 57485B 57545B 57609B
 YNNO          2 00009804 00000001     H   57905 57773
 YNNULL        2 00009888 00000001     H   58103 57803
 YNPRT         4 000096E8 00000001     F   57746 58256
 YNPTRS        4 00000004 FFFFFFBC     A   56549 56781M 57143
 YNWA         12 00000000 FFFFFFBC     J   56556 56584  56613U 56617  56625U 56633M 56633  57735  57737  57738
 YNYES         2 000097D8 00000001     H   57839 57758
 ZAPINTR6      1 00000000 00000039     T   33107 33107  39396
 =(L'RECKDAT2)X'FF'
               1 00007679 00000001     X   46002 41368
 =A(-1)        4 00003708 00000001     A   23944 23401  23454
 =A(ASCMPC)
               4 00009DA4 00000001     A   59658 58910  58993  59045  59076
 =A(BADARG)
               4 0000034C 00000001     A    9348  9115
 =A(BADARG)
               4 00001498 00000001     A   12663 10618  11223  11615
 =A(BADARG)
               4 00001FE8 00000001     A   17133 12853  12959  14100  14249  14438  14533  14628  15061  15156  16302
                                                 16782
 =A(BADARG)
               4 00003294 00000001     A   22211 21439
 =A(BADARG)
               4 000036E4 00000001     A   23935 22300  22395  23416  23469
 =A(BADARG)
               4 0000478C 00000001     A   29344 26827  27709
 =A(BADARG)
               4 0000553C 00000001     A   33097 29865  32491  32747  32893  32968
1FUNC     (FUNC2193) (12:45) (15MAR04) Ordinary Symbol and Literal Cross Reference                                          Page  323
 =A(BADARG)
               4 00005904 00000001     A   34538 33268  33846  33935  33987
 =A(BADARG)
               4 00005CD0 00000001     A   36031 34838  35155  35822
 =A(BADARG)
               4 000064A4 00000001     A   39382 36170  36489  36808  37268  37621  38655  38750  39005  39058
 =A(BADARG)
               4 000066F4 00000001     A   39869 39832
 =A(BADARG)
               4 000075B8 00000001     A   45962 40141  40882  41197  41312  41434  41703  41805  42144  42230  42603
                                                 42689  42979  43065  43438  43524  44518  44604  44977  45063  45484
                                                 45586
 =A(BADARG)
               4 00008318 00000001     A   51199 46358  46460  46920  48257  48347  48622  48656  48837  48892  49099
                                                 49349  49791  50032  50115  50535  50660  50822
 =A(BADARG)
               4 0000895C 00000001     A   52714 52157  52487
 =A(BADARG)
               4 00008F58 00000001     A   54897 54016  54069  54349  54402
 =A(BADARG)
               4 0000990C 00000001     A   58244 55068  55121  55312  55408  55503  55598  56108  56193  56396  56491
                                                 56932  57030
 =A(BADARG)
               4 00009D84 00000001     A   59650 58525  58558
 =A(BADARG)
               4 00009F48 00000001     A   60212 59885
 =A(DSNVPRT)
               4 00003290 00000001     A   22210 21401
 =A(FNDEQPRT)
               4 000025B8 00000001     A   18610 17362
 =A(FNDSIPRT)
               4 00002DC0 00000001     A   21020 20087
 =A(FNDSNPRT)
               4 00002820 00000001     A   19212 18803
 =A(FNDSPPRT)
               4 00002A40 00000001     A   19852 19394
 =A(FNDSVPRT)
               4 0000327C 00000001     A   22205 21230
 =A(FNENQPRT)
               4 000025D4 00000001     A   18615 18026
 =A(HIPRT)
               4 00004774 00000001     A   29338 26013
 =A(INCPRT)
               4 00004798 00000001     A   29347 27623
 =A(INPPRT)
               4 00005514 00000001     A   33093 29779
 =A(L'DPASKEY)
               4 00002038 00000001     A   17149 15672  15684
 =A(L'FNWORK)
               4 00002DE4 00000001     A   21029 20491  20503
 =A(L'HIKHOST)
               4 00004770 00000001     A   29337 25906  25918
 =A(L'HWAREA-5)
               4 00004790 00000001     A   29345 27022  27034
 =A(L'RECKDATA)
               4 000075E0 00000001     A   45972 41279  41772  42197  42656  43032  43491  44571  45030  45553
 =A(L'RECKDAT2)
               4 000075E8 00000001     A   45974 41401
 =A(L'SYSCKNM)
1FUNC     (FUNC2193) (12:45) (15MAR04) Ordinary Symbol and Literal Cross Reference                                          Page  324
               4 000085AC 00000001     A   51655 51382  51394
 =A(L'SYSUPNM)
               4 0000837C 00000001     A   51220 50966  50978
 =A(MAXSTRLN)
               4 00001494 00000001     A   12662 10603
 =A(MAXSTRLN)
               4 00001FE4 00000001     A   17132 12838  14234
 =A(MAXSTRLN)
               4 00005568 00000001     A   33108 32878
 =A(MAXSTRLN)
               4 00008314 00000001     A   51198 46343  48332  50520  50645
 =A(RECOPCHK)
               4 000075D4 00000001     A   45969 40926  41746  45115  45527
 =A(ROPNPRT)
               4 00007614 00000001     A   45985 43929
 =A(SETARGS)
               4 0000148C 00000001     A   12660 10519  10896  11074  11823  12014  12170  12326  12544
 =A(SETARGS)
               4 00001FE0 00000001     A   17131 12780  13179  13497  14172  14742  15263  15645  16236  16708
 =A(SETARGS)
               4 000025B0 00000001     A   18608 17235  17899
 =A(SETARGS)
               4 00002818 00000001     A   19210 18689
 =A(SETARGS)
               4 00002A38 00000001     A   19850 19286
 =A(SETARGS)
               4 00002DB8 00000001     A   21018 19973
 =A(SETARGS)
               4 00003274 00000001     A   22203 21114
 =A(SETARGS)
               4 000036E8 00000001     A   23936 22468  22700  23010  23299
 =A(SETARGS)
               4 00003BD0 00000001     A   25667 24041  24326  24611  24880  25116
 =A(SETARGS)
               4 00004764 00000001     A   29334 25805  26939  27398  29069
 =A(SETARGS)
               4 0000550C 00000001     A   33091 29579  32565  32819
 =A(SETARGS)
               4 000058FC 00000001     A   34536 33180  33506  33758  34319
 =A(SETARGS)
               4 00005CC0 00000001     A   36027 34611  34770  35089  35343  35754
 =A(SETARGS)
               4 0000649C 00000001     A   39380 36102  36421  36740  37055  37392  38099  38265  38433  38596  38946
                                                 39231
 =A(SETARGS)
               4 000066E0 00000001     A   39864 39466  39637
 =A(SETARGS)
               4 000075B0 00000001     A   45960 39928  40213  40440  40831  41141  41651  42092  42551  42927  43386
                                                 43861  44466  44925  45432
 =A(SETARGS)
               4 00008310 00000001     A   51197 46062  46285  46691  47426  47730  48005  48197  48554  49174  49422
                                                 49699  50469  50923
 =A(SETARGS)
               4 000085A8 00000001     A   51654 51339
 =A(SETARGS)
               4 00008944 00000001     A   52708 51740  51951  52559
 =A(SETARGS)
               4 00008F20 00000001     A   54883 52806  53180  53678  53937  54270  54594  54749
 =A(SETARGS)
1FUNC     (FUNC2193) (12:45) (15MAR04) Ordinary Symbol and Literal Cross Reference                                          Page  325
               4 00009900 00000001     A   58241 55009  55669  55840  56012  56646
 =A(SETARGS)
               4 00009D80 00000001     A   59649 58440
 =A(SETARGS)
               4 00009F38 00000001     A   60208 59777
 =A(SYSFEND)
               4 0000031C 00000001     A    9336  8323
 =A(SYSFNS)
               4 00000320 00000001     A    9337  8325   8420
 =A(VTRIM)
               4 0000477C 00000001     A   29340 26170  26359  27215
 =A(VTRIM)
               4 00007600 00000001     A   45980 42446  43281  43740  44820
 =A(VTRIM)
               4 00008F44 00000001     A   54892 53565
 =A(X'FF')
               4 00009934 00000001     A   58254 56278
 =A(X'7F')
               4 000047AC 00000001     A   29352 27824
 =A(X'7FFFFFFF')
               4 0000761C 00000001     A   45987 43988
 =A(YNPRT)
               4 0000993C 00000001     A   58256 56846
 =A(0)         4 00008374 00000001     A   51218 50605
 =A(0)         4 0000996C 00000001     A   58262 57301  57425
 =A(1)         4 000014C4 00000001     A   12670 11434  11563
 =A(1)         4 00001FFC 00000001     A   17138 13567  13836  13839  13873  13876  15315
 =A(1)         4 00002DE8 00000001     A   21030 20548
 =A(1)         4 00003710 00000001     A   23946 23524  23548  23613  23661  23664  23720  23723  23761  23764  23767
                                                 23786  23789
 =A(1)         4 000047A8 00000001     A   29351 27793
 =A(1)         4 00005CDC 00000001     A   36034 35124
 =A(1)         4 000064C4 00000001     A   39390 37896  38681
 =A(1)         4 0000832C 00000001     A   51204 47205  48278  48695
 =A(1)         4 0000894C 00000001     A   52710 51996  52142
 =A(1)         4 00008F2C 00000001     A   54886 52998  53001
 =A(1)         4 0000992C 00000001     A   58252 56057  56093  56178  56258
 =A(1)         4 00009DA8 00000001     A   59659 58960  59011  59054  59145  59508  59576  59579  59582
 =A(1)         4 00009F40 00000001     A   60210 59856  60030
 =A(116)       4 0000204C 00000001     A   17154 16749
 =A(12)        4 000014C8 00000001     A   12671 11470
 =A(16)        4 00003BE4 00000001     A   25672 25156
 =A(19)        4 00003BE8 00000001     A   25673 25216
 =A(2)         4 0000328C 00000001     A   22209 21329
 =A(2)         4 00004768 00000001     A   29335 25846  27573
 =A(2)         4 00005510 00000001     A   33092 29729
 =A(2)         4 00005908 00000001     A   34539 33295  33546  33870
 =A(2)         4 00005CCC 00000001     A   36030 34807  35791
 =A(2)         4 000064A0 00000001     A   39381 36139  36458  36777  37422  38703
 =A(2)         4 00008324 00000001     A   51202 46721  48300  49739  50586
 =A(2)         4 00008950 00000001     A   52711 52042
 =A(2)         4 00009930 00000001     A   58253 56142  56796
 =A(2)         4 00009F3C 00000001     A   60209 59814  60053
 =A(256)       4 0000555C 00000001     A   33105 32312  32324
 =A(256)       4 00008960 00000001     A   52715 52321  52333
 =A(3)         4 00001490 00000001     A   12661 10571
 =A(3)         4 00001FEC 00000001     A   17134 12907
 =A(3)         4 0000556C 00000001     A   33109 32916
 =A(3)         4 00005918 00000001     A   34543 34018  34363
1FUNC     (FUNC2193) (12:45) (15MAR04) Ordinary Symbol and Literal Cross Reference                                          Page  326
 =A(3)         4 0000831C 00000001     A   51200 46408  50063  50556
 =A(3)         4 00008954 00000001     A   52712 52076
 =A(3)         4 00008F24 00000001     A   54884 52904
 =A(3)         4 00009D8C 00000001     A   59652 58580
 =A(3)         4 00009F44 00000001     A   60211 59870  60076
 =A(32)        4 0000370C 00000001     A   23945 23441
 =A(4)         4 000025DC 00000001     A   18617 18150
 =A(4)         4 00002A54 00000001     A   19857 19511
 =A(4)         4 00006508 00000001     A   39399 38735  38777  39081
 =A(4)         4 00008958 00000001     A   52713 52106
 =A(4)         4 00009914 00000001     A   58246 55144
 =A(4)         4 00009D90 00000001     A   59653 58636
 =A(5)         4 00009D94 00000001     A   59654 58657
 =A(6)         4 000014B8 00000001     A   12667 11177
 =A(6)         4 0000203C 00000001     A   17150 15779  16363
 =A(6)         4 00009D98 00000001     A   59655 58697
 =A(64)        4 00003704 00000001     A   23943 23388
 =A(7)         4 00009D9C 00000001     A   59656 58739
 =A(8)         4 00002018 00000001     A   17145 15329
 =A(8)         4 000025E0 00000001     A   18618 18185
 =A(8)         4 0000650C 00000001     A   39400 38972
 =A(8)         4 00008F50 00000001     A   54895 53983  54036  54316  54369
 =A(8)         4 00009904 00000001     A   58242 55035  57388
 =A(9)         4 000014C0 00000001     A   12669 11341
 =AL2(MAXSTRLN)
               2 00005570 00000001     R   33110 29573
 =AL2(1)       2 0000208C 00000001     R   17160 12926  12981
 =AL2(1)       2 00005588 00000001     R   33118 32935  32990
 =AL2(1)       2 00008384 00000001     R   51222 46427  46482  49758  49813  50082  50137
 =AL4(-1)      4 00003714 00000001     R   23947 23582  23688
 =AL4(1)       4 000047B0 00000001     R   29353 27954
 =AL4(1)       4 00005548 00000001     R   33100 30045
 =AL4(101)
               4 000047BC 00000001     R   29356 28059
 =AL4(101)
               4 00005554 00000001     R   33103 30150
 =AL4(2)       4 0000200C 00000001     R   17142 14822  15740  16324
 =AL4(2)       4 000036F0 00000001     R   23938 22780
 =AL4(2)       4 000047B8 00000001     R   29355 28037
 =AL4(2)       4 00005550 00000001     R   33102 30128
 =AL4(2)       4 000075DC 00000001     R   45971 41260
 =AL4(3)       4 000075E4 00000001     R   45973 41382
 =C' (No)'
               5 00009A57 00000001     C   58281 57234
 =C' (Yes)'
               6 00009A10 00000001     C   58273 57210
 =C' (Yes/No)'
               9 00009A4E 00000001     C   58280 57170
 =C' '         1 0000559E 00000001     C   33123 32848
 =C' is an unknown HOST_INFO option.'
              32 00004730 00000001     C   29331 26804
 =C' is an unknown INCHAR option.'
              29 000047F2 00000001     C   29373 27686
 =C' is an unknown INPUT option.'
              28 00005520 00000001     C   33096 29842
 =C' is an unknown YESNO option.'
              28 00009944 00000001     C   58258 56909
 =C' of "'
               5 00000470 00000001     C    9616  9519
1FUNC     (FUNC2193) (12:45) (15MAR04) Ordinary Symbol and Literal Cross Reference                                          Page  327
 =C'*'         1 000047DA 00000001     C   29367 26266
 =C'?????.???'
               9 00005D21 00000001     C   36042 35512
 =C'???'       3 00003BFB 00000001     C   25678 24909
 =C': bad MATCH option character.'
              29 00006542 00000001     C   39408 37598
 =C': bad RMATCH option character.'
              30 00008386 00000001     C   51223 46897
 =C'" is invalid. '
              14 00000462 00000001     C    9615  9565
 =C'". '       3 00000397 00000001     C    9352  8660   8748
 =C'"B"=both.'
               9 00008472 00000001     C   51238 50009
 =C'Account does not exist. '
              24 00001468 00000001     C   12657 11290
 =C'Answer '
               7 00009A5C 00000001     C   58282 57471
 =C'Argument #'
              10 00000458 00000001     C    9614  9479
 =C'Arithmetic overflow.  '
              22 00006524 00000001     C   39405 38982
 =C'Arithmetic overflow.  '
              22 000099A0 00000001     C   58267 55045
 =C'ACCT_'
               5 000047DB 00000001     C   29368 26521
 =C'ATTN'      4 000047B4 00000001     C   29354 28018
 =C'ATTN'      4 0000554C 00000001     C   33101 30109
 =C'ATTN'      4 00009970 00000001     C   58263 57309
 =C'Boolean values may not be displayed in hex. '
              44 00002060 00000001     C   17159 17064
 =C'BAD ACCOUNT FORMAT'
              18 0000209A 00000001     C   17163 16413
 =C'BAD DSN'
               7 000025F3 00000001     C   18624 17672  18428
 =C'BAD DSN'
               7 0000283B 00000001     C   19220 19033
 =C'BAD DSN'
               7 00002A66 00000001     C   19862 19672
 =C'BAD DSN'
               7 00002E03 00000001     C   21040 20698
 =C'BAD DSN'
               7 000032CB 00000001     C   22221 21821
 =C'BAD MEMBER'
              10 000032A6 00000001     C   22216 21685
 =C'BADOSDSN'
               8 00003218 00000001     C   22191 21486
 =C'Cipher must be exactly 8 bytes long.'
              36 00008F5C 00000001     C   54898 54046
 =C'DUMMY'
               5 000047ED 00000001     C   29372 27448
 =C'DUMMY'
               5 0000558A 00000001     C   33119 29629
 =C'DUMMY'
               5 00009A32 00000001     C   58278 56696
 =C'Expecting one character options string.  '
              41 0000841A 00000001     C   51236 49768
 =C'Expecting one character pad string.  '
              37 000020B5 00000001     C   17167 12936
 =C'Expecting one character pad string.  '
1FUNC     (FUNC2193) (12:45) (15MAR04) Ordinary Symbol and Literal Cross Reference                                          Page  328
              37 0000559F 00000001     C   33124 32945
 =C'Expecting one character pad string.  '
              37 000083BC 00000001     C   51230 46437
 =C'Expecting one character string.  '
              33 0000847B 00000001     C   51239 50092
 =C'Expecting string of "L"=leading, "T"=trailing, '
              47 00008443 00000001     C   51237 49991
 =C'ERROR'
               5 00002603 00000001     C   18626 18214
 =C'ERROR'
               5 000076AD 00000001     C   46006 45234
 =C'First line-number is greater than last line-number.'
              51 00005959 00000001     C   34552 33964
 =C'HELP'      4 00009974 00000001     C   58264 57396
 =C'Invalid account specified. '
              27 0000150C 00000001     C   12679 11200
 =C'Invalid hex string.  '
              21 0000656D 00000001     C   39411 39035
 =C'Invalid hex string.  '
              21 00008400 00000001     C   51234 48869
 =C'Invalid hex string.  '
              21 00009A1D 00000001     C   58277 55098
 =C'Invalid line number (negative or too large)'
              43 00005CF6 00000001     C   36041 35392  35467
 =C'Invalid number format. '
              23 000083E9 00000001     C   51233 48599
 =C'Invalid request. '
              17 00001530 00000001     C   12681 11592
 =C'Invalid specification of argument type. '
              40 000002F0 00000001     C    9334  9076
 =C'Invalid variable or function name.'
              34 000014E0 00000001     C   12675 10433
 =C'IN USE'
               6 000025EA 00000001     C   18622 18194
 =C'IN USE'
               6 000032A0 00000001     C   22215 21545
 =C'INUSE   '
               8 00003228 00000001     C   22193 21536
 =C'INVALID FUNCTION'
              16 000025A0 00000001     C   18607 17590  18346
 =C'INVVOL  '
               8 00003250 00000001     C   22198 21635
 =C'Key data string is too long.  '
              30 0000763C 00000001     C   45994 41289  41411  41782  42207  42666  43042  43501  44581  45040  45563
 =C'Key must be exactly 8 bytes long.'
              33 00008FBB 00000001     C   54908 53993  54326
 =C'Line-number out of bounds.'
              26 00005928 00000001     C   34547 33245  33823  33912
 =C'MAIL_MESSAGE'
              12 000014CC 00000001     C   12672 11483
 =C'Non-standard password prompt not implemented.'
              45 000020E2 00000001     C   17170 16279
 =C'Not Yet!  '
              10 0000208E 00000001     C   17161 14077  14415  14510  14605  15038  15133
 =C'Not Yet!  '
              10 00003718 00000001     C   23948 22277  22372
 =C'Not Yet!  '
              10 0000557E 00000001     C   33117 32468  32724
 =C'Not Yet!  '
1FUNC     (FUNC2193) (12:45) (15MAR04) Ordinary Symbol and Literal Cross Reference                                          Page  329
              10 00006518 00000001     C   39403 37245
 =C'Not Yet!  '
              10 000066F8 00000001     C   39870 39809
 =C'Not Yet!  '
              10 00007630 00000001     C   45992 40118
 =C'Not Yet!  '
              10 000083AA 00000001     C   51227 49076  49326  50799
 =C'Not Yet!  '
              10 00008970 00000001     C   52719 52464
 =C'Not Yet!  '
              10 000099B6 00000001     C   58268 55289  55385  55480  55575  56373  56468
 =C'NO when you are ready.'
              22 000099FA 00000001     C   58272 57108
 =C'NO ACCESS'
               9 000032BB 00000001     C   22219 21587
 =C'NO LINES'
               8 000058F0 00000001     C   34534 34117
 =C'NO ROOM'
               7 000076A6 00000001     C   46005 45214
 =C'NO SUCH ACTIVE'
              14 00005944 00000001     C   34549 34064
 =C'NO'        2 00009A16 00000001     C   58274 57510
 =C'NOACCESS'
               8 00003238 00000001     C   22195 21579
 =C'NOMEMBER'
               8 00003258 00000001     C   22199 21663
 =C'NOT ENQUEUED'
              12 000025C8 00000001     C   18614 17459
 =C'NOT FOUND'
               9 00007698 00000001     C   46003 41894  45691
 =C'NOT OPEN'
               8 000075A8 00000001     C   45959 45923
 =C'NOT OPENED'
              10 00007664 00000001     C   45998 45131
 =C'NOT THERE'
               9 000032B2 00000001     C   22218 21518
 =C'NOT YOURS'
               9 000025FA 00000001     C   18625 18159
 =C'NOTAUTH '
               8 00003230 00000001     C   22194 21565
 =C'NOTFOUND'
               8 00003220 00000001     C   22192 21509
 =C'NOTINPDS'
               8 00003260 00000001     C   22200 21677
 =C'NOTMNTD '
               8 00003240 00000001     C   22196 21607
 =C'NOVOL   '
               8 00003248 00000001     C   22197 21621
 =C'NULL'      4 00009978 00000001     C   58265 57450
 =C'OFFLINE'
               7 000032C4 00000001     C   22220 21643
 =C'OK'        2 000020AE 00000001     C   17165 16528
 =C'OK'        2 000025E6 00000001     C   18620 17440  18124
 =C'OK'        2 0000329E 00000001     C   22214 21468
 =C'OK'        2 000047D6 00000001     C   29365 27939
 =C'OK'        2 00005578 00000001     C   33114 30030
 =C'OK'        2 00005942 00000001     C   34548 33632  34097  34450
 =C'OK'        2 0000763A 00000001     C   45993 40947  41874  45182  45671
 =C'OPENED'
1FUNC     (FUNC2193) (12:45) (15MAR04) Ordinary Symbol and Literal Cross Reference                                          Page  330
               6 0000765C 00000001     C   45996 44036
 =C'PASS_'
               5 000047E0 00000001     C   29369 26582
 =C'RACF'      4 00002A50 00000001     C   19856 19485
 =C'Stanford'
               8 00002A30 00000001     C   19849 19520
 =C'String overflow. '
              17 00002112 00000001     C   17172 16759
 =C'Text must be exactly 8 bytes long.'
              34 00008F96 00000001     C   54906 54379
 =C'Too few arguments specified for "'
              33 00000376 00000001     C    9351  8614
 =C'Too many arguments specified for "'
              34 00000354 00000001     C    9350  8702
 =C'TIMEOUT'
               7 0000480F 00000001     C   29374 28067
 =C'TIMEOUT'
               7 0000558F 00000001     C   33120 30158
 =C'Unknown'
               7 00002A5F 00000001     C   19861 19540
 =C'UNUSABLE'
               8 00003268 00000001     C   22201 21694
 =C'USER_'
               5 000047E5 00000001     C   29370 26649  26953
 =C'USER_NAME'
               9 00001527 00000001     C   12680 11354
 =C'You can not answer NO here, answer '
              35 00009A63 00000001     C   58283 57531
 =C'You can not answer YES here, answer '
              36 0000997C 00000001     C   58266 57595
 =C'YES or NO must be specified as a YESNO option.'
              46 000099C2 00000001     C   58270 57007
 =C'YES or NO.'
              10 000099F0 00000001     C   58271 57044
 =C'YES when you are ready.'
              23 00009A37 00000001     C   58279 57084
 =C'YES'       3 00009A86 00000001     C   58284 57574
 =C'01I'       3 00005CF3 00000001     C   36040 35086
 =C'02SS'      4 00009928 00000001     C   58251 56009
 =C'11I'       3 00005596 00000001     C   33121 32562
 =C'11I'       3 0000656A 00000001     C   39410 38430
 =C'11I'       3 00007671 00000001     C   46000 40210  40828
 =C'11N'       3 00001509 00000001     C   12678 10893
 =C'11S'       3 00001541 00000001     C   12682 11820
 =C'11S'       3 000020DA 00000001     C   17168 13176
 =C'11S'       3 000025F0 00000001     C   18623 17232  17896
 =C'11S'       3 00002838 00000001     C   19219 18686
 =C'11S'       3 00002A5C 00000001     C   19860 19283
 =C'11S'       3 00002E00 00000001     C   21039 19970
 =C'11S'       3 00003722 00000001     C   23949 22465
 =C'11S'       3 00003BF8 00000001     C   25677 24038  24323  24608  24877  25113
 =C'11S'       3 000047EA 00000001     C   29371 26936
 =C'11S'       3 0000653A 00000001     C   39406 37052  38943  39228
 =C'11S'       3 00006702 00000001     C   39871 39463  39634
 =C'11S'       3 0000766E 00000001     C   45999 39925
 =C'11S'       3 000083B4 00000001     C   51228 46059  48002  49171  50920
 =C'11S'       3 000085BA 00000001     C   51659 51336
 =C'11S'       3 0000897A 00000001     C   52720 52556
 =C'11S'       3 00008FB8 00000001     C   54907 52803  54746
1FUNC     (FUNC2193) (12:45) (15MAR04) Ordinary Symbol and Literal Cross Reference                                          Page  331
 =C'11S'       3 00009A1A 00000001     C   58276 55006  55666  55837
 =C'11SS'      4 00002014 00000001     C   17144 15260
 =C'11SS'      4 00007610 00000001     C   45984 43858
 =C'11SS'      4 00008348 00000001     C   51207 47423  47727  49419
 =C'11SS'      4 00008F34 00000001     C   54888 53177
 =C'11W'       3 00005CF0 00000001     C   36039 34608  35340
 =C'11W'       3 00008FDC 00000001     C   54909 54591
 =C'11X'       3 0000210F 00000001     C   17171 16705
 =C'11X'       3 000083E6 00000001     C   51232 48551
 =C'12II'      4 00006500 00000001     C   39397 38593
 =C'12II'      4 00008350 00000001     C   51209 48194
 =C'12SI'      4 00005910 00000001     C   34541 33503
 =C'12SI'      4 00009F34 00000001     C   60207 59774
 =C'12SS'      4 00002008 00000001     C   17141 14739  15642  16233
 =C'12SS'      4 00003270 00000001     C   22202 21111
 =C'12SS'      4 000036EC 00000001     C   23937 22697
 =C'12SS'      4 00004760 00000001     C   29333 25802  27395
 =C'12SS'      4 00005508 00000001     C   33090 29576
 =C'12SS'      4 00009938 00000001     C   58255 56643
 =C'12WI'      4 000058F8 00000001     C   34535 33177
 =C'12WI'      4 00005CC8 00000001     C   36029 34767  35751
 =C'12WI'      4 00006498 00000001     C   39379 36099  36418  36737
 =C'13ISS'
               5 00007674 00000001     C   46001 41138
 =C'13SSS'
               5 00008415 00000001     C   51235 49696
 =C'13WWI'
               5 00005954 00000001     C   34551 33755
 =C'14SSSS'
               6 00008968 00000001     C   52717 51948
 =C'19NNNNNNNNN'
              11 0000655F 00000001     C   39409 38096  38262
 =C'22II'      4 000014D8 00000001     C   12673 12011  12167  12323  12541
 =C'22II'      4 00008940 00000001     C   52707 51737
 =C'22IS'      4 000075F4 00000001     C   45977 41648  42089  42548  42924  43383  44463  45429
 =C'22SI'      4 00002004 00000001     C   17140 14169
 =C'22SS'      4 000014B4 00000001     C   12666 11071
 =C'22SS'      4 000036F8 00000001     C   23940 23007
 =C'22SS'      4 000047C4 00000001     C   29358 29066
 =C'22SS'      4 000075C0 00000001     C   45964 40437
 =C'22SS'      4 00008F48 00000001     C   54893 53675  53934  54267
 =C'23SII'
               5 0000849C 00000001     C   51240 50466
 =C'23SIS'
               5 000020B0 00000001     C   17166 12777
 =C'23SIS'
               5 00005599 00000001     C   33122 32816
 =C'23SIS'
               5 000083B7 00000001     C   51229 46282
 =C'23SSI'
               5 00001504 00000001     C   12677 10516
 =C'23SSS'
               5 0000653D 00000001     C   39407 37389
 =C'23SSS'
               5 000083E1 00000001     C   51231 46688
 =C'23WSI'
               5 0000598C 00000001     C   34553 34316
 =C'27XSIIIII'
               9 00009DB4 00000001     C   59662 58437
1FUNC     (FUNC2193) (12:45) (15MAR04) Ordinary Symbol and Literal Cross Reference                                          Page  332
 =C'33ISS'
               5 000076A1 00000001     C   46004 44922
 =C'33NII'
               5 00003725 00000001     C   23950 23296
 =C'33SSS'
               5 000020DD 00000001     C   17169 13494
 =CL16'ARRAY'
              16 00008F10 00000001     C   54882 53352
 =CL16'BOOLEAN'
              16 00008F00 00000001     C   54881 53331  53456
 =CL16'NUMBER'
              16 00008EF0 00000001     C   54880 53310  53435
 =CL16'ORVYL_CPU'
              16 000066C0 00000001     C   39862 39506
 =CL16'ORVYL_IO'
              16 000066D0 00000001     C   39863 39677
 =CL16'STRING'
              16 00008EE0 00000001     C   54879 53289  53414
 =CL16'SYS.IORESULT'
              16 00004750 00000001     C   29332 28074
 =CL16'SYS.IORESULT'
              16 000054F8 00000001     C   33089 30165
 =CL16'SYS.QUERY_ERRINFO'
              16 00007598 00000001     C   45958 40681
 =CL16'UNDEFINED'
              16 00008ED0 00000001     C   54878 53193
 =CL16'WYLBUR_CPU'
              16 000098E0 00000001     C   58239 55709
 =CL16'WYLBUR_IO'
              16 000098F0 00000001     C   58240 55880
 =CL3'GMT'
               3 00003BFE 00000001     C   25679 25464
 =CL8'BADARG  '
               8 00000440 00000001     C    9609  9579
 =CL8'NOINFO  '
               8 00001480 00000001     C   12658 11304
 =F'-1'        4 00009F4C 00000001     F   60213 59905
 =F'-1000'
               4 00005CD8 00000001     F   36033 34990  35974
 =F'-1000'
               4 000064B0 00000001     F   39385 36322  36641  36960
 =F'1'         4 00006514 00000001     F   39402 39088
 =F'1'         4 00009918 00000001     F   58247 55151
 =F'1'         4 00009DA0 00000001     F   59657 58886  58972
 =F'256'       4 00009D88 00000001     F   59651 58568
 =H'-1'        2 000020AC 00000001     H   17164 16477
 =H'1'         2 000047D0 00000001     H   29362 27392
 =H'100'       2 000047D8 00000001     H   29366 28926
 =H'100'       2 0000557C 00000001     H   33116 32115
 =H'256'       2 0000896E 00000001     H   52718 52359
 =V(ABSEARCH)
               4 00000328 00000001     V    9339  8424
 =V(ACTPICK)
               4 0000591C 00000001     V   34544 34048  34142
 =V(BSINIT)
               4 00000324 00000001     V    9338  8332
 =V(CHECKLN)
               4 00005CD4 00000001     V   36032 34883
 =V(CHKACCT)
1FUNC     (FUNC2193) (12:45) (15MAR04) Ordinary Symbol and Literal Cross Reference                                          Page  333
               4 00001FF8 00000001     V   17137 13226
 =V(CHKRADDR)
               4 00006504 00000001     V   39398 38627
 =V(CHKRADDR)
               4 00008354 00000001     V   51210 48229
 =V(CVEXNO)
               4 00005CE8 00000001     V   36037 35579
 =V(DDEQ)      4 000025C4 00000001     V   18613 17436
 =V(DECRYPT)
               4 00002010 00000001     V   17143 14866
 =V(DELRANGE)
               4 00005920 00000001     V   34545 34081
 =V(DENQ)      4 000025D8 00000001     V   18616 18105
 =V(DESTCHK)
               4 0000201C 00000001     V   17146 15381
 =V(DODSNM)
               4 000025B4 00000001     V   18609 17325  17989
 =V(DODSNM)
               4 00002A3C 00000001     V   19851 19357
 =V(DSNFIN)
               4 000025C0 00000001     V   18612 17414  18078
 =V(DSNFIN)
               4 00002A48 00000001     V   19854 19446
 =V(DSPDSNIN)
               4 00002DE0 00000001     V   21028 20486
 =V(ENCRYPT)
               4 000036F4 00000001     V   23939 22824
 =V(FEALBLKD)
               4 00008F80 00000001     V   54899 54085
 =V(FEALBLKE)
               4 00008F84 00000001     V   54900 54418
 =V(FMTCLCK)
               4 000085B4 00000001     V   51657 51491
 =V(FMTTIME)
               4 00008948 00000001     V   52709 51780
 =V(FMTXDATE)
               4 00003BEC 00000001     V   25674 25369  25440
 =V(FNAMEFIN)
               4 00002828 00000001     V   19214 18838
 =V(FNAMEFIN)
               4 00002DC8 00000001     V   21022 20122
 =V(FNAMEFIN)
               4 00003284 00000001     V   22207 21265
 =V(FNAMESCN)
               4 0000281C 00000001     V   19211 18756
 =V(FNAMESCN)
               4 00002DBC 00000001     V   21019 20040
 =V(FNAMESCN)
               4 00003278 00000001     V   22204 21183
 =V(GETACCT)
               4 00003BD8 00000001     V   25669 24088  24373  24658
 =V(GETARRAY)
               4 00008F40 00000001     V   54891 53385
 =V(GETARRAY)
               4 00009DB0 00000001     V   59661 59341
 =V(GETARRAY)
               4 00009F58 00000001     V   60216 59983
 =V(GETCORE)
               4 00000318 00000001     V    9335  8316
1FUNC     (FUNC2193) (12:45) (15MAR04) Ordinary Symbol and Literal Cross Reference                                          Page  334
 =V(GETCVAR)
               4 000066E4 00000001     V   39865 39509  39680
 =V(GETCVAR)
               4 00009920 00000001     V   58249 55712  55883
 =V(GETKWR)
               4 00002048 00000001     V   17153 16481
 =V(GETLINEX)
               4 0000590C 00000001     V   34540 33355
 =V(GETQSTAT)
               4 000075BC 00000001     V   45963 40243
 =V(GETUID)
               4 00003BDC 00000001     V   25670 24425
 =V(GETUIDL)
               4 00003BE0 00000001     V   25671 24678
 =V(GETVAR)
               4 00008F3C 00000001     V   54890 53260
 =V(GETVAR)
               4 00009F54 00000001     V   60215 59963
 =V(GETWCNT)
               4 00008F8C 00000001     V   54902 54791
 =V(GTENDLN)
               4 00005CE0 00000001     V   36035 35199
 =V(GTFRSTLN)
               4 00005CEC 00000001     V   36038 35867
 =V(GTLASTLN)
               4 000064A8 00000001     V   39383 36215
 =V(GTNEXTLN)
               4 000064B4 00000001     V   39386 36534
 =V(GTPREVLN)
               4 000064B8 00000001     V   39387 36853
 =V(KWIO)      4 000014BC 00000001     V   12668 11268
 =V(KWIO)      4 00002040 00000001     V   17151 15878
 =V(LRTRIM)
               4 00001FF4 00000001     V   17136 13221  15764  16348
 =V(LRTRIM)
               4 00003BD4 00000001     V   25668 24083  24368  24653
 =V(LRTRIM)
               4 0000476C 00000001     V   29336 25868  26984
 =V(LRTRIM)
               4 000075C4 00000001     V   45965 40477
 =V(LRTRIM)
               4 0000836C 00000001     V   51216 49465
 =V(MAKEBOOL)
               4 00000348 00000001     V    9347  8999
 =V(MAKECHAR)
               4 00002050 00000001     V   17155 16795  16954
 =V(MAKEHEX)
               4 00006510 00000001     V   39401 39018
 =V(MAKEHEX)
               4 00008364 00000001     V   51214 48851
 =V(MAKEHEX)
               4 00009910 00000001     V   58245 55081
 =V(MAKEINT)
               4 0000033C 00000001     V    9344  8855
 =V(MAKEINT)
               4 0000205C 00000001     V   17158 16942
 =V(MAKEINT)
               4 0000835C 00000001     V   51212 48634
 =V(MAKEITOD)
1FUNC     (FUNC2193) (12:45) (15MAR04) Ordinary Symbol and Literal Cross Reference                                          Page  335
               4 000014DC 00000001     V   12674 12085  12241  12615
 =V(MAKEITOD)
               4 000036FC 00000001     V   23941 23174
 =V(MAKEITOD)
               4 000047C8 00000001     V   29359 29289
 =V(MAKEITOD)
               4 00005560 00000001     V   33106 32636
 =V(MAKEITOD)
               4 000064F8 00000001     V   39395 38504  38827  39130
 =V(MAKEITOD)
               4 000066EC 00000001     V   39867 39719
 =V(MAKEITOD)
               4 000075F0 00000001     V   45976 41537  44120  44185
 =V(MAKEITOD)
               4 00008368 00000001     V   51215 49242
 =V(MAKEITOD)
               4 00008F4C 00000001     V   54894 53836  54830
 =V(MAKEITOD)
               4 00009924 00000001     V   58250 55922
 =V(MAKEITOD)
               4 00009DAC 00000001     V   59660 59195
 =V(MAKEITOD)
               4 00009F5C 00000001     V   60217 60142
 =V(MAKELNO)
               4 00000340 00000001     V    9345  8903
 =V(MAKELNO)
               4 00002058 00000001     V   17157 16921
 =V(MAKELTOD)
               4 00005CC4 00000001     V   36028 34682  34933  34995  35249  35917  35979
 =V(MAKELTOD)
               4 000064AC 00000001     V   39384 36265  36327  36584  36646  36903  36965
 =V(MAKELTOD)
               4 000066E8 00000001     V   39866 39548
 =V(MAKELTOD)
               4 00008F88 00000001     V   54901 54665
 =V(MAKELTOD)
               4 0000991C 00000001     V   58248 55193  55751
 =V(MAKENUMB)
               4 00000344 00000001     V    9346  8951
 =V(MAKESTR)
               4 00000338 00000001     V    9343  8807
 =V(MAKESTR)
               4 00003700 00000001     V   23942 23327
 =V(MAKESTR)
               4 00008360 00000001     V   51213 48815
 =V(NRESOLVE)
               4 0000282C 00000001     V   19215 18870
 =V(NRESOLVE)
               4 00002DCC 00000001     V   21023 20175
 =V(NRESOLVE)
               4 00003288 00000001     V   22208 21291
 =V(NSCAN)
               4 000025BC 00000001     V   18611 17366  18030
 =V(NSCAN)
               4 00002824 00000001     V   19213 18807
 =V(NSCAN)
               4 00002A44 00000001     V   19853 19398
 =V(NSCAN)
               4 00002DC4 00000001     V   21021 20091
1FUNC     (FUNC2193) (12:45) (15MAR04) Ordinary Symbol and Literal Cross Reference                                          Page  336
 =V(NSCAN)
               4 00003280 00000001     V   22206 21234  21405
 =V(NSCAN)
               4 00004778 00000001     V   29339 26017  27627
 =V(NSCAN)
               4 00005518 00000001     V   33094 29783
 =V(NSCAN)
               4 00007618 00000001     V   45986 43933
 =V(NSCAN)
               4 0000834C 00000001     V   51208 47493  47790
 =V(NSCAN)
               4 00009940 00000001     V   58257 56850
 =V(PGETA)
               4 00002DDC 00000001     V   21027 20362
 =V(PGETNEW)
               4 00002DF0 00000001     V   21032 20866
 =V(PJUNKA)
               4 00002DEC 00000001     V   21031 20556
 =V(PNUMA)
               4 00002DD8 00000001     V   21026 20331
 =V(PTAPPEND)
               4 00005914 00000001     V   34542 33588
 =V(PTLINE)
               4 00005924 00000001     V   34546 34406
 =V(QUERYFC)
               4 000075C8 00000001     V   45966 40495
 =V(RETFNAME)
               4 00002DD0 00000001     V   21024 20205
 =V(SAVEDATA)
               4 000047C0 00000001     V   29357 28077
 =V(SAVEDATA)
               4 00005558 00000001     V   33104 30168
 =V(SAVEDATA)
               4 000075CC 00000001     V   45967 40684
 =V(SCNVDESC)
               4 00008F38 00000001     V   54889 53225
 =V(SCNVDESC)
               4 00009F50 00000001     V   60214 59924
 =V(SECSYS)
               4 00002A4C 00000001     V   19855 19469
 =V(SEG)       4 00000330 00000001     V    9341  8626   8672   8714   8760   9088
 =V(SEG)       4 0000044C 00000001     V    9611  9491   9531   9577
 =V(SEG)       4 00001FF0 00000001     V   17135 12948  14427  14522  14617  15050  15145  16291  16771  17076
 =V(SEG)       4 000036E0 00000001     V   23934 22289  22384
 =V(SEG)       4 00004788 00000001     V   29343 26798  26816  27680
 =V(SEG)       4 0000551C 00000001     V   33095 29836  29854  32480  32736  32957
 =V(SEG)       4 00005900 00000001     V   34537 33257  33835  33924  33976
 =V(SEG)       4 00005CE4 00000001     V   36036 35404  35479
 =V(SEG)       4 000064BC 00000001     V   39388 37257  37592  38994  39047
 =V(SEG)       4 000066F0 00000001     V   39868 39821
 =V(SEG)       4 000075B4 00000001     V   45961 40130  41301  41423  41794  42219  42678  43054  43513  44593  45052
                                                 45575
 =V(SEG)       4 00008320 00000001     V   51201 46449  46891  48611  48881  49088  49338  49780  50003  50104  50811
 =V(SEG)       4 00008964 00000001     V   52716 52476
 =V(SEG)       4 00008F54 00000001     V   54896 54005  54058  54338  54391
 =V(SEG)       4 00009908 00000001     V   58243 55057  55110  55301  55397  55492  55587  56385  56480  56903  56921
                                                 57019  57166  57483  57543  57607
 =V(SEGCLR)
               4 00002830 00000001     V   19216 18907
1FUNC     (FUNC2193) (12:45) (15MAR04) Ordinary Symbol and Literal Cross Reference                                          Page  337
 =V(SEGCR)
               4 00000448 00000001     V    9610  9469
 =V(SEGCR)
               4 00001488 00000001     V   12659 10445  11212  11302  11604
 =V(SEGCR)
               4 00002000 00000001     V   17139 14089
 =V(SEGCR)
               4 0000479C 00000001     V   29348 27698
 =V(SEGCR)
               4 000064C0 00000001     V   39389 37610
 =V(SEGCR)
               4 00008328 00000001     V   51203 46909  50021
 =V(SEGCR)
               4 00009960 00000001     V   58259 57140
 =V(SEGDC)
               4 00000450 00000001     V    9612  9513
 =V(SEGINIT)
               4 000047A0 00000001     V   29349 27751
 =V(SEGINIT)
               4 00005540 00000001     V   33098 29906
 =V(SEGINIT)
               4 00008F30 00000001     V   54887 53168
 =V(SEGINIT)
               4 00009F30 00000001     V   60206 59765
 =V(SEGT)      4 00000334 00000001     V    9342  8654   8742
 =V(SEGT)      4 00000454 00000001     V    9613  9559
 =V(SQSHRTN)
               4 00008370 00000001     V   51217 49469
 =V(SYSCHECK)
               4 00008380 00000001     V   51221 51042
 =V(SYSGTSSB)
               4 000085B0 00000001     V   51656 51459
 =V(TOASCII)
               4 00004794 00000001     V   29346 27551
 =V(TREAD)
               4 000047A4 00000001     V   29350 27778
 =V(TREAD)
               4 00005544 00000001     V   33099 29933
 =V(WATCHKW)
               4 00002044 00000001     V   17152 15939
 =V(WGSACCES)
               4 00003298 00000001     V   22212 21449
 =V(WGSHODSN)
               4 00002DD4 00000001     V   21025 20256
 =V(XCNTRECS)
               4 000075EC 00000001     V   45975 41498
 =V(XDELETE)
               4 000075F8 00000001     V   45978 41858
 =V(XDELSET)
               4 000075D8 00000001     V   45970 40943
 =V(XGET)      4 00004784 00000001     V   29342 26217  27105
 =V(XGET)      4 00007604 00000001     V   45981 42789  45655
 =V(XLASTSET)
               4 00007620 00000001     V   45988 43992
 =V(XLOCATE)
               4 0000762C 00000001     V   45991 45885
 =V(XLOCFRST)
               4 000075FC 00000001     V   45979 42283
 =V(XLOCLAST)
1FUNC     (FUNC2193) (12:45) (15MAR04) Ordinary Symbol and Literal Cross Reference                                          Page  338
               4 00007608 00000001     V   45982 43118
 =V(XLOCNEXT)
               4 0000760C 00000001     V   45983 43577
 =V(XLOCPREV)
               4 00007628 00000001     V   45990 44657
 =V(XPUT)      4 00007624 00000001     V   45989 44042  45166
 =V(XSETSET)
               4 00004780 00000001     V   29341 26194  27084
 =V(XSETSET)
               4 000075D0 00000001     V   45968 40920  41234  41740  42181  42640  43016  43475  44021  44555  45014
                                                 45521
 =V(XTB)       4 00008F28 00000001     V   54885 52932
 =V(YESRTN)
               4 00009968 00000001     V   58261 57283
 =V(YESRTNH)
               4 00009964 00000001     V   58260 57263
 =V(ZAPINTR6)
               4 00005564 00000001     V   33107 32648
 =V(ZAPINTR6)
               4 000064FC 00000001     V   39396 38516  39142
 =X'0000000F'
               4 0000032C 00000001     X    9340  8594   8682
 =X'00000000'
               4 00002054 00000001     X   17156 16906
 =X'00000000'
               4 00008358 00000001     X   51211 48583
 =X'00000000000000000000000C'
              12 0000149C 00000001     X   12664 10671  10797  12455
 =X'00000000000000000000000C'
              12 0000202C 00000001     X   17148 15484  15827  16064
 =X'00000000000000000000000C'
              12 000064C8 00000001     X   39391 37950
 =X'00000000000000000000000C'
              12 00008330 00000001     X   51205 47259  51140
 =X'00000000000001000000000C'
              12 000014A8 00000001     X   12665 10742  12401
 =X'00000000000001000000000C'
              12 00002020 00000001     X   17147 15430  16009
 =X'00000000000001000000000C'
              12 000064D4 00000001     X   39392 38005
 =X'00000000000001000000000C'
              12 0000833C 00000001     X   51206 47314  51085
 =X'0000700F'
               4 00003BF4 00000001     X   25676 25388
 =X'0000800F'
               4 00003BF0 00000001     X   25675 25371
 =X'40000000'
               4 00000350 00000001     X    9349  9227
 =X'40000000'
               4 00008378 00000001     X   51219 50691
 =X'99999999999999999999999C'
              12 000064EC 00000001     X   39394 38304
 =X'99999999999999999999999D'
              12 000064E0 00000001     X   39393 38138
 =Y((L'CPSEG+1024+3)/4*4)
               2 000047D4 00000001     Y   29364 27932
 =Y((L'CPSEG+1024+3)/4*4)
               2 00005576 00000001     Y   33113 30023
 =Y((L'CPSEG+1024+3)/4*4)
1FUNC     (FUNC2193) (12:45) (15MAR04) Ordinary Symbol and Literal Cross Reference                                          Page  339
               2 00008F92 00000001     Y   54904 53581
 =Y((L'CPSEG+1024+3)/4*4)
               2 00009F62 00000001     Y   60219 60166
 =Y((L'NSCNCB+3)/4*4)
               2 000025E8 00000001     Y   18621 17725  18483
 =Y((L'NSCNCB+3)/4*4)
               2 00002836 00000001     Y   19218 19086
 =Y((L'NSCNCB+3)/4*4)
               2 00002A5A 00000001     Y   19859 19725
 =Y((L'NSCNCB+3)/4*4)
               2 00002DFC 00000001     Y   21037 20751
 =Y((L'NSCNCB+3)/4*4)
               2 000032B0 00000001     Y   22217 21874
 =Y((L'NSCNCB+3)/4*4)
               2 000047CE 00000001     Y   29361 26032  28090
 =Y((L'NSCNCB+3)/4*4)
               2 0000557A 00000001     Y   33115 30247
 =Y((L'NSCNCB+3)/4*4)
               2 00007662 00000001     Y   45997 44202
 =Y((L'NSCNCB+3)/4*4)
               2 000083A6 00000001     Y   51225 47635  47927
 =Y((L'NSCNCB+3)/4*4)
               2 00008F94 00000001     Y   54905 53587
 =Y((L'NSCNCB+3)/4*4)
               2 00009A18 00000001     Y   58275 57709
 =Y((L'NSCNCB+3)/4*4)
               2 00009F64 00000001     Y   60220 60172
 =Y((L'SHDSARGS+3)/4*4)
               2 00002DFA 00000001     Y   21036 20560
 =Y((MAXSTRLN+3)/4*4)
               2 000085B8 00000001     Y   51658 51494
 =Y((R1+1-(R0)+16*((R0)/(R1+1))/((R0)/(R1+1)))*4)
               2 00005952 00000001     Y   34550 34149
 =Y((R1+1-(R0)+16*((R0)/(R1+1))/((R0)/(R1+1)))*4)
               2 00006522 00000001     Y   39404 38630
 =Y((R1+1-(R0)+16*((R0)/(R1+1))/((R0)/(R1+1)))*4)
               2 000083A8 00000001     Y   51226 48232
 =Y((R1+1-(R14)+16*((R14)/(R1+1))/((R14)/(R1+1)))*4)
               2 000047D2 00000001     Y   29363 27754
 =Y((R1+1-(R14)+16*((R14)/(R1+1))/((R14)/(R1+1)))*4)
               2 00005574 00000001     Y   33112 29909
 =Y((R1+1-(R14)+16*((R14)/(R1+1))/((R14)/(R1+1)))*4)
               2 00008F90 00000001     Y   54903 53171
 =Y((R1+1-(R14)+16*((R14)/(R1+1))/((R14)/(R1+1)))*4)
               2 00009F60 00000001     Y   60218 59768
 =Y((R3+1-(R2)+16*((R2)/(R3+1))/((R2)/(R3+1)))*4)
               2 00002098 00000001     Y   17162 14313
 =Y((R5+1-(R3)+16*((R3)/(R5+1))/((R3)/(R5+1)))*4)
               2 00002DF6 00000001     Y   21034 20171
 =Y((12+3)/4*4)
               2 000025E4 00000001     Y   18619 17372  18036
 =Y((12+3)/4*4)
               2 00002834 00000001     Y   19217 18813
 =Y((12+3)/4*4)
               2 00002A58 00000001     Y   19858 19404
 =Y((12+3)/4*4)
               2 00002DF4 00000001     Y   21033 20097
 =Y((12+3)/4*4)
               2 0000329C 00000001     Y   22213 21240  21411
1FUNC     (FUNC2193) (12:45) (15MAR04) Ordinary Symbol and Literal Cross Reference                                          Page  340
 =Y((12+3)/4*4)
               2 000047CC 00000001     Y   29360 26023  27633
 =Y((12+3)/4*4)
               2 00005572 00000001     Y   33111 29789
 =Y((12+3)/4*4)
               2 0000765A 00000001     Y   45995 43939
 =Y((12+3)/4*4)
               2 000083A4 00000001     Y   51224 47499  47796
 =Y((12+3)/4*4)
               2 000099C0 00000001     Y   58269 56856
 =Y((512+3)/4*4)
               2 00002DF8 00000001     Y   21035 20550
 =Y(4)         2 00001502 00000001     Y   12676 11730
 =Y(4)         2 00002DFE 00000001     Y   21038 20887

1FUNC     (FUNC2193) (12:45) (15MAR04) Macro and Copy Code Source Summary                                                   Page  341
- Con Source                                        Volume    Members                        HLASM R4.0  2004/03/15 12.45
0     PRIMARY INPUT                                           BADARG   CSECT    DROP     END      EX       LA$TABLE
                                                              LTORG    POP      PRINT    PUSH     SAMEAS   SETARGS
                                                              START    SYSFN    USING    VRETURN  VTRIM
   L1 WYL.GS.WYL.WYLBUR.MACLIB                      SYSB05    AINFO    BASE     BOMB     BSINFO   COLINFO  COMMENT
                                                              CONTROL  CP       CPLOCAL  CV       CVLOCAL  DEFRTNP
                                                              DSNINFO  FAIL     FFINFO   JCB      KAPUT    KREAD
                                                              PFREE    PGET     PNUM     RG       SCAN     SCANCB
                                                              SCCBADR  SCINFO   SCINIT   SCKW     SCPOP    SCPUSH
                                                              SCSEGCLR SDSNBUF  SEGINIT  SHDSARGS SYSRTN   TCCR
                                                              TCLEAR   TNUM     TPOP     TPUSH    TREAD    TSEG
                                                              TTYPE    VLTORG   VNENTRY  VPARM    XSA      XSENTRY  XTB
                                                              XTRACE
   L2 WYL.GG.SYS.MACLIB                             SYSB05    $BC      $BFLKUP  $BV      $CCLKUP  $CRS     $CSS     $L
                                                              $LA      $LBLAD   $LEXP    $LOR     $REL     $RGLKUP
                                                              $USLKUP  ACALL    BEGIN    CEIL     CLEAR    COMPROC
                                                              CSECT    DATA     DECR     DEFCC    DEX      DPROC    DROP
                                                              DTEX     ELSE     ELSEIF   END      EX       EXIT     FLAG
                                                              GEN      HIBAL    IDENT    IF       INCR     LABEL    LC
                                                              LOOP     LS       LTH      LTORG    MOVE     MOVEL    PEND
                                                              POP      PRETURN  PRINT    PROC     PUSH     QLTORG
                                                              RECORD   REG      REGS     SET      SETMSG   START
                                                              USING    VCALL    WHILE    WITH     XPROC
   L3 SYS3.IS.MACLIB                                SYSB05    KWR      SEG      SEGCB    SEGCLR   SEGCR    SEGDC
                                                              SEGDEF   SEGLD    SIB      SIN      SSB      SYSDEFN  XPOP
                                                              XPUSH
   L5 SYS1.MACLIB                                   MVSBR9    CONVTOD

1FUNC     (FUNC2193) (12:45) (15MAR04) Dsect Cross Reference                                                                Page  342
-Dsect     Length      Id       Defn                                                         HLASM R4.0  2004/03/15 12.45
0$$$@R0   00000000  FFFFFFFE     705
 $$$@R1   00000000  FFFFFFFD     718
 $$$@R10  00000000  FFFFFFF4     835
 $$$@R11  00000000  FFFFFFF3     848
 $$$@R12  00000000  FFFFFFF2     861
 $$$@R13  00000000  FFFFFFF1     874
 $$$@R14  00000000  FFFFFFF0     887
 $$$@R15  00000000  FFFFFFEF     900
 $$$@R2   00000000  FFFFFFFC     731
 $$$@R3   00000000  FFFFFFFB     744
 $$$@R4   00000000  FFFFFFFA     757
 $$$@R5   00000000  FFFFFFF9     770
 $$$@R6   00000000  FFFFFFF8     783
 $$$@R7   00000000  FFFFFFF7     796
 $$$@R8   00000000  FFFFFFF6     809
 $$$@R9   00000000  FFFFFFF5     822
 $$$RANFWA
          00000208  FFFFFFDC   10987
 $$$RASWA 0000011C  FFFFFFBB   58312
 $$$RBSINFO
          00000020  FFFFFFE5    7167
 $$$RCENWA
          00000008  FFFFFFDB   12691
 $$$RCP   00001000  FFFFFFEC    2684
 $$$RCV   00000FB0  FFFFFFEE    1409
 $$$RDCHECKWA
          00000008  FFFFFFD7   15190
 $$$RDECRYWA
          00000108  FFFFFFD8   14653
 $$$RDEV  0000000C  FFFFFFEB    4898
 $$$RDPASSWA
          00000208  FFFFFFD6   15541
 $$$RDPPWA
          00000200  FFFFFFD5   16133
 $$$RDSNINFO
          000000EB  FFFFFFDF    7991
 $$$RENCRYWA
          00000108  FFFFFFD2   22611
 $$$RFFINFO
          000003A0  FFFFFFE0    7776
 $$$RFMTWA
          00000092  FFFFFFD1   23223
 $$$RFNCAWA
          00000105  FFFFFFDA   13105
 $$$RFNCHWA
          00000324  FFFFFFD9   13417
 $$$RFNDSWA
          000000EB  FFFFFFD4   16627
 $$$RFNGIDWA
          00000105  FFFFFFD0   23964
 $$$RFNGMTWA
          0000003C  FFFFFFCF   25041
 $$$RFNNHWA
          00000030  FFFFFFC9   38871
 $$$RFNSHWA
1FUNC     (FUNC2193) (12:45) (15MAR04) Dsect Cross Reference                                                                Page  343
          000000EB  FFFFFFC4   48481
 $$$RFNURLWA
          00000002  FFFFFFBF   52735
 $$$RFNVARWA
          00000160  FFFFFFBE   53053
 $$$RFNWA 00000150  FFFFFFDD   10367
 $$$RFNWHWA
          00000030  FFFFFFBD   54926
 $$$RHIWA 00000064  FFFFFFCE   25700
 $$$RHWA  00000080  FFFFFFCD   26866
 $$$RINCHRWA
          00000022  FFFFFFCC   27261
 $$$RINSTRWA
          00000022  FFFFFFCB   29383
 $$$RJCB  000000D0  FFFFFFE8    6588
 $$$RKWR  000001F8  FFFFFFE7    6868
 $$$RMATWA
          00000001  FFFFFFCA   37300
 $$$RNSCNCB
          000000B0  FFFFFFED    2605
 $$$RQFWA 00000100  FFFFFFC8   40368
 $$$RRECWA
          0000004C  FFFFFFC7   40726
 $$$RRIGHTWA
          00000006  FFFFFFC6   46203
 $$$RRMATWA
          00000001  FFFFFFC5   46599
 $$$RRTNENTRY
          00000014  FFFFFFDE    8101
 $$$RSDSNBUF
          00000044  FFFFFFD3   19878
 $$$RSHDSARGS
          00000200  FFFFFFE1    7673
 $$$RSIN  000000E0  FFFFFFE6    7078
 $$$RSSB  00000038  FFFFFFE9    6539
 $$$RSTRIPWA
          00000002  FFFFFFC3   49589
 $$$RSYSCKWA
          00000040  FFFFFFC1   51267
 $$$RSYSUPWA
          00000008  FFFFFFC2   50852
 $$$RTTYPE
          0000010C  FFFFFFEA    6429
 $$$RVNENTRY
          00000050  FFFFFFE4    7201
 $$$RVPARM
          00000150  FFFFFFE3    7513
 $$$RXLWA 00000119  FFFFFFC0   51668
 $$$RXSENTRY
          00000050  FFFFFFE2    7559
 $$$RYNWA 0000000C  FFFFFFBC   56516
 HIBAL    00000000  FFFFFFFF     691

1FUNC     (FUNC2193) (12:45) (15MAR04) Using Map                                                                            Page  344
-                                                                                            HLASM R4.0  2004/03/15 12.45
   Stmt  -----Location----- Action ----------------Using----------------- Reg Max    Last  Label and Using Text
           Count      Id           Type          Value    Range     Id        Disp   Stmt
0   922  00000000  FFFFFFFF USING  ORDINARY    00000000 00001000 FFFFFFEF  15 000          @R15,15
    926  00000000  FFFFFFFF USING  ORDINARY    00000000 00001000 FFFFFFF0  14 024   59770  @R14,14
    930  00000000  FFFFFFFF USING  ORDINARY    00000000 00001000 FFFFFFF1  13 000   60173  @R13,13
    934  00000000  FFFFFFFF USING  ORDINARY    00000000 00001000 FFFFFFF2  12 000          @R12,12
    938  00000000  FFFFFFFF USING  ORDINARY    00000000 00001000 FFFFFFF3  11 000          @R11,11
    942  00000000  FFFFFFFF USING  ORDINARY    00000000 00001000 FFFFFFF4  10 000          @R10,10
    946  00000000  FFFFFFFF USING  ORDINARY    00000000 00001000 FFFFFFF5   9 000   20370  @R9,9
    950  00000000  FFFFFFFF USING  ORDINARY    00000000 00001000 FFFFFFF6   8 000          @R8,8
    954  00000000  FFFFFFFF USING  ORDINARY    00000000 00001000 FFFFFFF7   7 000          @R7,7
    958  00000000  FFFFFFFF USING  ORDINARY    00000000 00001000 FFFFFFF8   6 000          @R6,6
    962  00000000  FFFFFFFF USING  ORDINARY    00000000 00001000 FFFFFFF9   5 000    9038  @R5,5
    966  00000000  FFFFFFFF USING  ORDINARY    00000000 00001000 FFFFFFFA   4 000    8468  @R4,4
    970  00000000  FFFFFFFF USING  ORDINARY    00000000 00001000 FFFFFFFB   3 000   13735  @R3,3
    974  00000000  FFFFFFFF USING  ORDINARY    00000000 00001000 FFFFFFFC   2 000   20390  @R2,2
    978  00000000  FFFFFFFF USING  ORDINARY    00000000 00001000 FFFFFFFD   1 003   24974  @R1,1
    982  00000000  FFFFFFFF USING  ORDINARY    00000000 00001000 FFFFFFFE   0 000          @R0,0
    983  00000000  FFFFFFFF DROP                                            0              0
   1393  00000017  00000001 USING  ORDINARY    00000000 00001000 FFFFFFEC  11 E54   60170  CP,CPR
   1402  00000017  00000001 USING  ORDINARY    00000000 00001000 FFFFFFEE  12 8B4   59697  CV,CVR
   8302  00000032  00000001 USING  ORDINARY    00000032 00001000 00000001   7 2F2    8332  $$$77B,7
   8340  0000005E  00000001 USING  ORDINARY    00000000 00001000 FFFFFFF7   7 000          @R7,7
   8404  00000086  00000001 USING  ORDINARY    00000086 00001000 00000001   7 2A2    8486  $$$80B,7
   8450  000000A2  00000001 USING  ORDINARY    00000000 00001000 FFFFFFDE   6 010    8469  RTNENTRY,R6
   8475  000000B6  00000001 USING  ORDINARY    00000000 00001000 FFFFFFF8   6 000          @R6,6
   8510  000000C2  00000001 USING  ORDINARY    00000000 00001000 FFFFFFF7   7 000          @R7,7
   8582  000000EA  00000001 USING  ORDINARY    000000EA 00001000 00000001   7 2AD    9117  $$$86B,7
   9127  00000250  00000001 USING  ORDINARY    00000000 00001000 FFFFFFF7   7 000          @R7,7
   9185  00000278  00000001 USING  ORDINARY    00000278 00001000 00000001   7 0D8    9294  $$$111B,7
   9201  00000278  00000001 USING  ORDINARY    00000000 00001000 FFFFFFE4   6 026    9293  VNENTRY,R6
   9300  000002DC  00000001 USING  ORDINARY    00000000 00001000 FFFFFFF8   6 000          @R6,6
   9312  000002DE  00000001 USING  ORDINARY    00000000 00001000 FFFFFFF7   7 000          @R7,7
   9404  000003B4  00000001 USING  ORDINARY    000003B4 00001000 00000001   7 0BC    9579  $$$119B,7
   9587  00000432  00000001 USING  ORDINARY    00000000 00001000 FFFFFFF7   7 000          @R7,7
  10420  00000F22  00000001 USING  ORDINARY    00000F22 00001000 00000001   7 5BE   10445  $$$124B,7
  10455  00000F38  00000001 USING  ORDINARY    00000000 00001000 FFFFFFF7   7 000          @R7,7
  10506  00000F60  00000001 USING  ORDINARY    00000F60 00001000 00000001   7 5A4   10797  $$$127B,7
  10541  00000F6E  00000001 USING  ORDINARY    00000000 00001000 FFFFFFE4   5 026   10578  VNENTRY,R5
  10653  00000FB8  00000001 USING  ORDINARY    00000000 00001000 FFFFFFE4   6 024   10671  VNENTRY,R6
  10679  00000FCA  00000001 USING  ORDINARY    00000000 00001000 FFFFFFF8   6 000          @R6,6
  10724  00000FD8  00000001 USING  ORDINARY    00000000 00001000 FFFFFFE4   6 024   10742  VNENTRY,R6
  10750  00000FEA  00000001 USING  ORDINARY    00000000 00001000 FFFFFFF8   6 000          @R6,6
  10779  00000FEE  00000001 USING  ORDINARY    00000000 00001000 FFFFFFE4   6 024   10797  VNENTRY,R6
  10805  00001000  00000001 USING  ORDINARY    00000000 00001000 FFFFFFF8   6 000          @R6,6
  10821  00001002  00000001 USING  ORDINARY    00000000 00001000 FFFFFFF9   5 000          @R5,5
  10832  00001002  00000001 USING  ORDINARY    00000000 00001000 FFFFFFF7   7 000          @R7,7
  10883  0000102A  00000001 USING  ORDINARY    0000102A 00001000 00000001   7 4DF   10904  $$$137B,7
  10922  0000103C  00000001 USING  ORDINARY    00000000 00001000 FFFFFFE4   6 02F   10942  VNENTRY,R6
  10949  00001054  00000001 USING  ORDINARY    00000000 00001000 FFFFFFF8   6 000          @R6,6
  10962  00001054  00000001 USING  ORDINARY    00000000 00001000 FFFFFFF7   7 000          @R7,7
  11041  0000107C  00000001 USING  ORDINARY    0000107C 00001000 00000001   7 4D4   11730  $$$141B,7
  11055  0000107C  00000001 USING  ORDINARY    FFFFFFD8 00001000 FFFFFFDC   8 038   11326  ANFWA-(4+36),R8
  11067  00001080  00000001 USING  ORDINARY    00000000 00001000 FFFFFFE7   4 102   11739  KWR,R4
  11096  0000108E  00000001 USING  ORDINARY    00000000 00001000 FFFFFFE4   5 026   11106  VNENTRY,R5
1FUNC     (FUNC2193) (12:45) (15MAR04) Using Map                                                                            Page  345
  11113  000010B6  00000001 USING  ORDINARY    00000000 00001000 FFFFFFF9   5 000          @R5,5
  11656  00001228  00000001 USING  ORDINARY    00000000 00001000 FFFFFFE4   6 026   11708  VNENTRY,R6
  11727  00001244  00000001 USING  ORDINARY    00000000 00001000 FFFFFFF8   6 000          @R6,6
  11746  00001258  00000001 USING  ORDINARY    00000000 00001000 FFFFFFF6   8 000          @R8,8
  11751  00001258  00000001 USING  ORDINARY    00000000 00001000 FFFFFFF7   7 000          @R7,7
  11770  00001266  00000001 USING  ORDINARY    00000000 00001000 FFFFFFFA   4 000   13781  @R4,4
  11810  00001280  00000001 USING  ORDINARY    00001280 00001000 00000001   7 2DC   11913  $$$172B,7
  11843  0000128E  00000001 USING  ORDINARY    00000000 00001000 FFFFFFE4   5 026   11847  VNENTRY,R5
  11853  0000129A  00000001 USING  ORDINARY    00000000 00001000 FFFFFFF9   5 000          @R5,5
  11862  0000129A  00000001 USING  ORDINARY    00000000 00001000 FFFFFFE4   6 026   11920  VNENTRY,R6
  11937  000012BC  00000001 USING  ORDINARY    00000000 00001000 FFFFFFF8   6 000          @R6,6
  11949  000012BC  00000001 USING  ORDINARY    00000000 00001000 FFFFFFF7   7 000          @R7,7
  12001  000012E4  00000001 USING  ORDINARY    000012E4 00001000 00000001   7 1F8   12085  $$$181B,7
  12034  000012F2  00000001 USING  ORDINARY    00000000 00001000 FFFFFFE4   5 024   12039  VNENTRY,R5
  12045  00001302  00000001 USING  ORDINARY    00000000 00001000 FFFFFFF9   5 000          @R5,5
  12059  00001304  00000001 USING  ORDINARY    00000000 00001000 FFFFFFE4   6 024   12082  VNENTRY,R6
  12093  0000131E  00000001 USING  ORDINARY    00000000 00001000 FFFFFFF8   6 000          @R6,6
  12105  0000131E  00000001 USING  ORDINARY    00000000 00001000 FFFFFFF7   7 000          @R7,7
  12157  00001346  00000001 USING  ORDINARY    00001346 00001000 00000001   7 196   12241  $$$185B,7
  12190  00001354  00000001 USING  ORDINARY    00000000 00001000 FFFFFFE4   5 024   12195  VNENTRY,R5
  12201  00001364  00000001 USING  ORDINARY    00000000 00001000 FFFFFFF9   5 000          @R5,5
  12215  00001366  00000001 USING  ORDINARY    00000000 00001000 FFFFFFE4   6 024   12238  VNENTRY,R6
  12249  00001380  00000001 USING  ORDINARY    00000000 00001000 FFFFFFF8   6 000          @R6,6
  12261  00001380  00000001 USING  ORDINARY    00000000 00001000 FFFFFFF7   7 000          @R7,7
  12313  000013A8  00000001 USING  ORDINARY    000013A8 00001000 00000001   7 130   12455  $$$189B,7
  12346  000013B6  00000001 USING  ORDINARY    00000000 00001000 FFFFFFE4   5 024   12351  VNENTRY,R5
  12357  000013C6  00000001 USING  ORDINARY    00000000 00001000 FFFFFFF9   5 000          @R5,5
  12383  000013CE  00000001 USING  ORDINARY    00000000 00001000 FFFFFFE4   6 024   12401  VNENTRY,R6
  12409  000013E0  00000001 USING  ORDINARY    00000000 00001000 FFFFFFF8   6 000          @R6,6
  12437  000013E4  00000001 USING  ORDINARY    00000000 00001000 FFFFFFE4   6 024   12455  VNENTRY,R6
  12463  000013F6  00000001 USING  ORDINARY    00000000 00001000 FFFFFFF8   6 000          @R6,6
  12479  000013F6  00000001 USING  ORDINARY    00000000 00001000 FFFFFFF7   7 000          @R7,7
  12531  0000141E  00000001 USING  ORDINARY    0000141E 00001000 00000001   7 0BE   12615  $$$195B,7
  12564  0000142C  00000001 USING  ORDINARY    00000000 00001000 FFFFFFE4   5 024   12569  VNENTRY,R5
  12575  0000143C  00000001 USING  ORDINARY    00000000 00001000 FFFFFFF9   5 000          @R5,5
  12589  0000143E  00000001 USING  ORDINARY    00000000 00001000 FFFFFFE4   6 024   12612  VNENTRY,R6
  12623  00001458  00000001 USING  ORDINARY    00000000 00001000 FFFFFFF8   6 000          @R6,6
  12635  00001458  00000001 USING  ORDINARY    00000000 00001000 FFFFFFF7   7 000          @R7,7
  12749  0000157C  00000001 USING  ORDINARY    0000157C 00001000 00000001   7 B39   12982  $$$199B,7
  12763  0000157C  00000001 USING  ORDINARY    FFFFFFD8 00001000 FFFFFFDB   8 02C   13045  CENWA-(4+36),R8
  12802  00001594  00000001 USING  ORDINARY    00000000 00001000 FFFFFFE4   5 026   12987  VNENTRY,R5
  13008  0000162E  00000001 USING  ORDINARY    00000000 00001000 FFFFFFE4   6 026   13046  VNENTRY,R6
  13058  00001660  00000001 USING  ORDINARY    00000000 00001000 FFFFFFF8   6 000          @R6,6
  13065  00001660  00000001 USING  ORDINARY    00000000 00001000 FFFFFFF9   5 000          @R5,5
  13076  00001660  00000001 USING  ORDINARY    00000000 00001000 FFFFFFF6   8 000          @R8,8
  13081  00001660  00000001 USING  ORDINARY    00000000 00001000 FFFFFFF7   7 000          @R7,7
  13156  00001688  00000001 USING  ORDINARY    00001688 00001000 00000001   7 A9C   13341  $$$209B,7
  13170  00001688  00000001 USING  ORDINARY    FFFFFFD8 00001000 FFFFFFDA   8 030   13272  FNCAWA-(4+36),R8
  13202  0000169A  00000001 USING  ORDINARY    00000000 00001000 FFFFFFE4   5 026   13218  VNENTRY,R5
  13296  000016D6  00000001 USING  ORDINARY    00000000 00001000 FFFFFFE4   6 026   13348  VNENTRY,R6
  13367  000016F2  00000001 USING  ORDINARY    00000000 00001000 FFFFFFF8   6 000          @R6,6
  13374  000016F2  00000001 USING  ORDINARY    00000000 00001000 FFFFFFF9   5 000          @R5,5
  13385  000016F2  00000001 USING  ORDINARY    00000000 00001000 FFFFFFF6   8 000          @R8,8
  13390  000016F2  00000001 USING  ORDINARY    00000000 00001000 FFFFFFF7   7 000          @R7,7
  13475  0000171A  00000001 USING  ORDINARY    0000171A 00001000 00000001   7 A22   13966  $$$218B,7
  13489  0000171A  00000001 USING  ORDINARY    FFFFFFD8 00001000 FFFFFFD9   8 348   13907  FNCHWA-(4+36),R8
  13517  00001728  00000001 USING  ORDINARY    00000000 00001000 FFFFFFE4   5 026   13543  VNENTRY,R5
  13551  0000177C  00000001 USING  ORDINARY    00000000 00001000 FFFFFFF9   5 000   13870  @R5,5
  13620  000017CA  00000001 USING  ORDINARY    00000000 00001000 FFFFFFE4   6 026   13672  VNENTRY,R6
1FUNC     (FUNC2193) (12:45) (15MAR04) Using Map                                                                            Page  346
  13691  000017E6  00000001 USING  ORDINARY    00000000 00001000 FFFFFFF8   6 000          @R6,6
  13921  00001866  00000001 USING  ORDINARY    00000000 00001000 FFFFFFE4   6 026   13973  VNENTRY,R6
  13992  00001882  00000001 USING  ORDINARY    00000000 00001000 FFFFFFF8   6 000          @R6,6
  14008  00001882  00000001 USING  ORDINARY    00000000 00001000 FFFFFFF6   8 000          @R8,8
  14013  00001882  00000001 USING  ORDINARY    00000000 00001000 FFFFFFF7   7 000          @R7,7
  14064  000018AA  00000001 USING  ORDINARY    000018AA 00001000 00000001   7 7E4   14100  $$$244B,7
  14108  000018C6  00000001 USING  ORDINARY    00000000 00001000 FFFFFFF7   7 000          @R7,7
  14159  000018EE  00000001 USING  ORDINARY    000018EE 00001000 00000001   7 7AA   14320  $$$247B,7
  14194  000018FC  00000001 USING  ORDINARY    00000000 00001000 FFFFFFE4   5 026   14205  VNENTRY,R5
  14270  00001932  00000001 USING  ORDINARY    00000000 00001000 FFFFFFE4   6 026   14290  VNENTRY,R6
  14333  00001966  00000001 USING  ORDINARY    00000000 00001000 FFFFFFF8   6 000          @R6,6
  14340  00001966  00000001 USING  ORDINARY    00000000 00001000 FFFFFFF9   5 000          @R5,5
  14351  00001966  00000001 USING  ORDINARY    00000000 00001000 FFFFFFF7   7 000          @R7,7
  14402  0000198E  00000001 USING  ORDINARY    0000198E 00001000 00000001   7 700   14438  $$$255B,7
  14446  000019AA  00000001 USING  ORDINARY    00000000 00001000 FFFFFFF7   7 000          @R7,7
  14497  000019D2  00000001 USING  ORDINARY    000019D2 00001000 00000001   7 6BC   14533  $$$258B,7
  14541  000019EE  00000001 USING  ORDINARY    00000000 00001000 FFFFFFF7   7 000          @R7,7
  14592  00001A16  00000001 USING  ORDINARY    00001A16 00001000 00000001   7 678   14628  $$$261B,7
  14636  00001A32  00000001 USING  ORDINARY    00000000 00001000 FFFFFFF7   7 000          @R7,7
  14711  00001A5A  00000001 USING  ORDINARY    00001A5A 00001000 00000001   7 6E8   14925  $$$264B,7
  14725  00001A5A  00000001 USING  ORDINARY    FFFFFFD8 00001000 FFFFFFD8   8 128   14858  DECRYWA-(4+36),R8
  14767  00001A7C  00000001 USING  ORDINARY    00000000 00001000 FFFFFFE4   5 026   14842  VNENTRY,R5
  14880  00001AC0  00000001 USING  ORDINARY    00000000 00001000 FFFFFFE4   6 026   14932  VNENTRY,R6
  14951  00001ADC  00000001 USING  ORDINARY    00000000 00001000 FFFFFFF8   6 000          @R6,6
  14958  00001ADC  00000001 USING  ORDINARY    00000000 00001000 FFFFFFF9   5 000          @R5,5
  14969  00001ADC  00000001 USING  ORDINARY    00000000 00001000 FFFFFFF6   8 000          @R8,8
  14974  00001ADC  00000001 USING  ORDINARY    00000000 00001000 FFFFFFF7   7 000          @R7,7
  15025  00001B04  00000001 USING  ORDINARY    00001B04 00001000 00000001   7 58A   15061  $$$272B,7
  15069  00001B20  00000001 USING  ORDINARY    00000000 00001000 FFFFFFF7   7 000          @R7,7
  15120  00001B48  00000001 USING  ORDINARY    00001B48 00001000 00000001   7 546   15156  $$$275B,7
  15164  00001B64  00000001 USING  ORDINARY    00000000 00001000 FFFFFFF7   7 000          @R7,7
  15239  00001B8C  00000001 USING  ORDINARY    00001B8C 00001000 00000001   7 5C2   15484  $$$278B,7
  15253  00001B8C  00000001 USING  ORDINARY    FFFFFFD8 00001000 FFFFFFD7   8 028   15378  DCHECKWA-(4+36),R8
  15285  00001BA0  00000001 USING  ORDINARY    00000000 00001000 FFFFFFE4   5 026   15289  VNENTRY,R5
  15295  00001BAC  00000001 USING  ORDINARY    00000000 00001000 FFFFFFF9   5 000          @R5,5
  15412  00001BE8  00000001 USING  ORDINARY    00000000 00001000 FFFFFFE4   6 024   15430  VNENTRY,R6
  15438  00001BFA  00000001 USING  ORDINARY    00000000 00001000 FFFFFFF8   6 000          @R6,6
  15466  00001BFE  00000001 USING  ORDINARY    00000000 00001000 FFFFFFE4   6 024   15484  VNENTRY,R6
  15492  00001C10  00000001 USING  ORDINARY    00000000 00001000 FFFFFFF8   6 000          @R6,6
  15510  00001C10  00000001 USING  ORDINARY    00000000 00001000 FFFFFFF6   8 000          @R8,8
  15515  00001C10  00000001 USING  ORDINARY    00000000 00001000 FFFFFFF7   7 000          @R7,7
  15594  00001C38  00000001 USING  ORDINARY    00001C38 00001000 00000001   7 522   16064  $$$290B,7
  15608  00001C38  00000001 USING  ORDINARY    FFFFFFD8 00001000 FFFFFFD6   8 228   15963  DPASSWA-(4+36),R8
  15623  00001C3C  00000001 USING  ORDINARY    00000000 00001000 FFFFFFE7   4 100   15958  KWR,R4
  15658  00001C6A  00000001 USING  ORDINARY    00000000 00001000 FFFFFFE4   5 026   15761  VNENTRY,R5
  15809  00001CC6  00000001 USING  ORDINARY    00000000 00001000 FFFFFFE4   6 024   15827  VNENTRY,R6
  15835  00001CD8  00000001 USING  ORDINARY    00000000 00001000 FFFFFFF8   6 000          @R6,6
  15991  00001D4E  00000001 USING  ORDINARY    00000000 00001000 FFFFFFE4   6 024   16009  VNENTRY,R6
  16017  00001D60  00000001 USING  ORDINARY    00000000 00001000 FFFFFFF8   6 000          @R6,6
  16046  00001D64  00000001 USING  ORDINARY    00000000 00001000 FFFFFFE4   6 024   16064  VNENTRY,R6
  16072  00001D76  00000001 USING  ORDINARY    00000000 00001000 FFFFFFF8   6 000          @R6,6
  16090  00001D78  00000001 USING  ORDINARY    00000000 00001000 FFFFFFF9   5 000          @R5,5
  16095  00001D78  00000001 USING  ORDINARY    00000000 00001000 FFFFFFFA   4 000          @R4,4
  16100  00001D78  00000001 USING  ORDINARY    00000000 00001000 FFFFFFF6   8 000          @R8,8
  16105  00001D78  00000001 USING  ORDINARY    00000000 00001000 FFFFFFF7   7 000          @R7,7
  16185  00001DA0  00000001 USING  ORDINARY    00001DA0 00001000 00000001   7 3C6   16547  $$$307B,7
  16199  00001DA0  00000001 USING  ORDINARY    FFFFFFD8 00001000 FFFFFFD5   8 224   16331  DPPWA-(4+36),R8
  16214  00001DA4  00000001 USING  ORDINARY    00000000 00001000 FFFFFFE7   4 100   16495  KWR,R4
  16249  00001DD2  00000001 USING  ORDINARY    00000000 00001000 FFFFFFE4   5 026   16345  VNENTRY,R5
1FUNC     (FUNC2193) (12:45) (15MAR04) Using Map                                                                            Page  347
  16393  00001E34  00000001 USING  ORDINARY    00000000 00001000 FFFFFFE4   6 026   16439  VNENTRY,R6
  16458  00001E58  00000001 USING  ORDINARY    00000000 00001000 FFFFFFF8   6 000          @R6,6
  16508  00001E8E  00000001 USING  ORDINARY    00000000 00001000 FFFFFFE4   6 026   16554  VNENTRY,R6
  16573  00001EB2  00000001 USING  ORDINARY    00000000 00001000 FFFFFFF8   6 000          @R6,6
  16587  00001EB4  00000001 USING  ORDINARY    00000000 00001000 FFFFFFF9   5 000          @R5,5
  16592  00001EB4  00000001 USING  ORDINARY    00000000 00001000 FFFFFFFA   4 000          @R4,4
  16597  00001EB4  00000001 USING  ORDINARY    00000000 00001000 FFFFFFF6   8 000          @R8,8
  16602  00001EB4  00000001 USING  ORDINARY    00000000 00001000 FFFFFFF7   7 000          @R7,7
  16677  00001EDC  00000001 USING  ORDINARY    00001EDC 00001000 00000001   7 296   17076  $$$320B,7
  16691  00001EDC  00000001 USING  ORDINARY    FFFFFFD8 00001000 FFFFFFD4   8 028   16951  FNDSWA-(4+36),R8
  16702  00001EDC  00000001 USING  ORDINARY    00000000 00001000 FFFFFFE4   5 02B   17054  VNENTRY,R5
  16808  00001F30  00000001 USING  ORDINARY    00000000 00001000 FFFFFFE4   6 026   16861  VNENTRY,R6
  16880  00001F4E  00000001 USING  ORDINARY    00000000 00001000 FFFFFFF8   6 000          @R6,6
  16967  00001F8E  00000001 USING  ORDINARY    00000000 00001000 FFFFFFE4   6 026   17020  VNENTRY,R6
  17039  00001FAC  00000001 USING  ORDINARY    00000000 00001000 FFFFFFF8   6 000          @R6,6
  17096  00001FCA  00000001 USING  ORDINARY    00000000 00001000 FFFFFFF6   8 000          @R8,8
  17101  00001FCA  00000001 USING  ORDINARY    00000000 00001000 FFFFFFF7   7 000          @R7,7
  17120  00001FD8  00000001 USING  ORDINARY    00000000 00001000 FFFFFFF9   5 000          @R5,5
  17216  00002192  00000001 USING  ORDINARY    00002192 00001000 00000001   7 482   17725  $$$336B,7
  17286  000021BA  00000001 USING  ORDINARY    00000000 00001000 FFFFFFE4   5 026   17306  VNENTRY,R5
  17321  000021D4  00000001 USING  ORDINARY    00000000 00001000 FFFFFFF9   5 000          @R5,5
  17476  0000226C  00000001 USING  ORDINARY    00000000 00001000 FFFFFFE4   6 026   17528  VNENTRY,R6
  17547  00002288  00000001 USING  ORDINARY    00000000 00001000 FFFFFFF8   6 000          @R6,6
  17570  0000228C  00000001 USING  ORDINARY    00000000 00001000 FFFFFFE4   6 026   17616  VNENTRY,R6
  17635  000022B0  00000001 USING  ORDINARY    00000000 00001000 FFFFFFF8   6 000          @R6,6
  17652  000022B4  00000001 USING  ORDINARY    00000000 00001000 FFFFFFE4   6 026   17698  VNENTRY,R6
  17717  000022D8  00000001 USING  ORDINARY    00000000 00001000 FFFFFFF8   6 000          @R6,6
  17733  000022EA  00000001 USING  ORDINARY    00000000 00001000 FFFFFFF7   7 000          @R7,7
  17812  00002362  00000001 USING  ORDINARY    00002362 00001000 00000001   7 000          $$$355B,7
  17828  00002366  00000001 USING  ORDINARY    00000000 00001000 FFFFFFF7   7 000          @R7,7
  17880  0000238E  00000001 USING  ORDINARY    0000238E 00001000 00000001   7 298   18483  $$$358B,7
  17950  000023B6  00000001 USING  ORDINARY    00000000 00001000 FFFFFFE4   5 026   17970  VNENTRY,R5
  17985  000023D0  00000001 USING  ORDINARY    00000000 00001000 FFFFFFF9   5 000          @R5,5
  18232  00002496  00000001 USING  ORDINARY    00000000 00001000 FFFFFFE4   6 026   18284  VNENTRY,R6
  18303  000024B2  00000001 USING  ORDINARY    00000000 00001000 FFFFFFF8   6 000          @R6,6
  18326  000024B6  00000001 USING  ORDINARY    00000000 00001000 FFFFFFE4   6 026   18372  VNENTRY,R6
  18391  000024DA  00000001 USING  ORDINARY    00000000 00001000 FFFFFFF8   6 000          @R6,6
  18408  000024DE  00000001 USING  ORDINARY    00000000 00001000 FFFFFFE4   6 026   18454  VNENTRY,R6
  18473  00002502  00000001 USING  ORDINARY    00000000 00001000 FFFFFFF8   6 000          @R6,6
  18491  00002514  00000001 USING  ORDINARY    00000000 00001000 FFFFFFF7   7 000          @R7,7
  18570  0000258E  00000001 USING  ORDINARY    0000258E 00001000 00000001   7 000          $$$382B,7
  18586  00002592  00000001 USING  ORDINARY    00000000 00001000 FFFFFFF7   7 000          @R7,7
  18670  00002646  00000001 USING  ORDINARY    00002646 00001000 00000001   7 202   19086  $$$385B,7
  18717  00002666  00000001 USING  ORDINARY    00000000 00001000 FFFFFFE4   5 026   18737  VNENTRY,R5
  18752  00002680  00000001 USING  ORDINARY    00000000 00001000 FFFFFFF9   5 000          @R5,5
  18848  000026FE  00000001 USING  ORDINARY    00000000 00001000 FFFFFFE0   4 218   20235  FFINFO,R4
  18923  0000272C  00000001 USING  ORDINARY    00000000 00001000 FFFFFFE4   6 026   18970  VNENTRY,R6
  18988  0000274C  00000001 USING  ORDINARY    00000000 00001000 FFFFFFF8   6 000          @R6,6
  19013  00002752  00000001 USING  ORDINARY    00000000 00001000 FFFFFFE4   6 026   19059  VNENTRY,R6
  19078  00002776  00000001 USING  ORDINARY    00000000 00001000 FFFFFFF8   6 000          @R6,6
  19094  00002788  00000001 USING  ORDINARY    00000000 00001000 FFFFFFF7   7 000          @R7,7
  19173  00002802  00000001 USING  ORDINARY    00002802 00001000 00000001   7 000          $$$399B,7
  19189  00002806  00000001 USING  ORDINARY    00000000 00001000 FFFFFFF7   7 000          @R7,7
  19267  00002868  00000001 USING  ORDINARY    00002868 00001000 00000001   7 20C   19725  $$$402B,7
  19315  00002888  00000001 USING  ORDINARY    00000000 00001000 FFFFFFE4   5 026   19335  VNENTRY,R5
  19350  000028A2  00000001 USING  ORDINARY    00000000 00001000 FFFFFFF9   5 000          @R5,5
  19558  00002950  00000001 USING  ORDINARY    00000000 00001000 FFFFFFE4   6 026   19610  VNENTRY,R6
  19629  0000296C  00000001 USING  ORDINARY    00000000 00001000 FFFFFFF8   6 000          @R6,6
  19652  00002970  00000001 USING  ORDINARY    00000000 00001000 FFFFFFE4   6 026   19698  VNENTRY,R6
1FUNC     (FUNC2193) (12:45) (15MAR04) Using Map                                                                            Page  348
  19717  00002994  00000001 USING  ORDINARY    00000000 00001000 FFFFFFF8   6 000          @R6,6
  19733  000029A6  00000001 USING  ORDINARY    00000000 00001000 FFFFFFF7   7 000          @R7,7
  19812  00002A1E  00000001 USING  ORDINARY    00002A1E 00001000 00000001   7 000          $$$420B,7
  19828  00002A22  00000001 USING  ORDINARY    00000000 00001000 FFFFFFF7   7 000          @R7,7
  19945  00002A94  00000001 USING  ORDINARY    00002A94 00001000 00000001   7 38E   20751  $$$423B,7
  19959  00002A94  00000001 USING  ORDINARY    FFFFFFD8 00001000 FFFFFFDD   8 028   20598  FNWA-(4+36),R8
  20001  00002AB4  00000001 USING  ORDINARY    00000000 00001000 FFFFFFE4   5 026   20021  VNENTRY,R5
  20036  00002ACE  00000001 USING  ORDINARY    00000000 00001000 FFFFFFF9   5 000          @R5,5
  20158  00002B5A  00000001 USING  ORDINARY    00000000 00001000 FFFFFFE1   3 194   20359  SHDSARGS,R3
  20263  00002BB2  00000001 USING  ORDINARY    00000000 00001000 FFFFFFFA   4 000          @R4,4
  20387  00002BF0  00000001 DROP                                            4              4
  20391  00002BF6  00000001 USING  ORDINARY    00000000 00001000 FFFFFFFA   4 000          @R4,4
  20419  00002C00  00000001 USING  ORDINARY    00000000 00001000 FFFFFFDF   2 051   20435  DSNINFO,R2
  20456  00002C0E  00000001 USING  ORDINARY    00000000 00001000 FFFFFFFC   2 000   27078  @R2,2
  20572  00002C5C  00000001 USING  ORDINARY    00000000 00001000 FFFFFFE4   6 026   20628  VNENTRY,R6
  20647  00002C7E  00000001 USING  ORDINARY    00000000 00001000 FFFFFFF8   6 000          @R6,6
  20655  00002C7E  00000001 USING  ORDINARY    00000000 00001000 FFFFFFFB   3 000   23516  @R3,3
  20678  00002C82  00000001 USING  ORDINARY    00000000 00001000 FFFFFFE4   6 026   20724  VNENTRY,R6
  20743  00002CA6  00000001 USING  ORDINARY    00000000 00001000 FFFFFFF8   6 000          @R6,6
  20759  00002CB8  00000001 USING  ORDINARY    00000000 00001000 FFFFFFF6   8 000          @R8,8
  20764  00002CB8  00000001 USING  ORDINARY    00000000 00001000 FFFFFFF7   7 000          @R7,7
  20815  00002CE0  00000001 USING  ORDINARY    00002CE0 00001000 00000001   7 11E   20887  $$$453B,7
  20829  00002CE0  00000001 USING  ORDINARY    FFFFFFD8 00001000 FFFFFFDD   8 000          FNWA-(4+36),R8
  20896  00002D2A  00000001 USING  ORDINARY    00000000 00001000 FFFFFFF6   8 000          @R8,8
  20901  00002D2A  00000001 USING  ORDINARY    00000000 00001000 FFFFFFF7   7 000          @R7,7
  20980  00002DA2  00000001 USING  ORDINARY    00002DA2 00001000 00000001   7 000          $$$458B,7
  20996  00002DA6  00000001 USING  ORDINARY    00000000 00001000 FFFFFFF7   7 000          @R7,7
  21086  00002E42  00000001 USING  ORDINARY    00002E42 00001000 00000001   7 496   21874  $$$461B,7
  21100  00002E42  00000001 USING  ORDINARY    FFFFFFD8 00001000 FFFFFFDD   8 000          FNWA-(4+36),R8
  21138  00002E62  00000001 USING  ORDINARY    00000000 00001000 FFFFFFE4   5 026   21158  VNENTRY,R5
  21173  00002E7C  00000001 USING  ORDINARY    00000000 00001000 FFFFFFF9   5 000          @R5,5
  21275  00002EFE  00000001 USING  ORDINARY    00000000 00001000 FFFFFFE0   4 001   22093  FFINFO,R4
  21347  00002F1E  00000001 USING  ORDINARY    00000000 00001000 FFFFFFE4   5 026   21367  VNENTRY,R5
  21382  00002F38  00000001 USING  ORDINARY    00000000 00001000 FFFFFFF9   5 000          @R5,5
  21707  00003062  00000001 USING  ORDINARY    00000000 00001000 FFFFFFE4   6 026   21759  VNENTRY,R6
  21778  0000307E  00000001 USING  ORDINARY    00000000 00001000 FFFFFFF8   6 000          @R6,6
  21801  00003082  00000001 USING  ORDINARY    00000000 00001000 FFFFFFE4   6 026   21847  VNENTRY,R6
  21866  000030A6  00000001 USING  ORDINARY    00000000 00001000 FFFFFFF8   6 000          @R6,6
  21882  000030B8  00000001 USING  ORDINARY    00000000 00001000 FFFFFFF6   8 000          @R8,8
  21887  000030B8  00000001 USING  ORDINARY    00000000 00001000 FFFFFFF7   7 000          @R7,7
  22013  000031AA  00000001 USING  ORDINARY    000031AA 00001000 00000001   7 000          $$$487B,7
  22034  000031AE  00000001 USING  ORDINARY    00000000 00001000 FFFFFFF7   7 000          @R7,7
  22079  000031D6  00000001 USING  ORDINARY    000031D6 00001000 00000001   7 000          $$$490B,7
  22100  000031DA  00000001 USING  ORDINARY    00000000 00001000 FFFFFFF7   7 000          @R7,7
  22146  00003202  00000001 USING  ORDINARY    00003202 00001000 00000001   7 000          $$$493B,7
  22162  00003206  00000001 USING  ORDINARY    00000000 00001000 FFFFFFF7   7 000          @R7,7
  22182  00003214  00000001 USING  ORDINARY    00000000 00001000 FFFFFFFA   4 000          @R4,4
  22264  000032F8  00000001 USING  ORDINARY    000032F8 00001000 00000001   7 420   22300  $$$496B,7
  22308  00003314  00000001 USING  ORDINARY    00000000 00001000 FFFFFFF7   7 000          @R7,7
  22359  0000333C  00000001 USING  ORDINARY    0000333C 00001000 00000001   7 3DC   22395  $$$499B,7
  22403  00003358  00000001 USING  ORDINARY    00000000 00001000 FFFFFFF7   7 000          @R7,7
  22455  00003380  00000001 USING  ORDINARY    00003380 00001000 00000001   7 3B0   22558  $$$502B,7
  22488  0000338E  00000001 USING  ORDINARY    00000000 00001000 FFFFFFE4   5 026   22492  VNENTRY,R5
  22498  0000339A  00000001 USING  ORDINARY    00000000 00001000 FFFFFFF9   5 000          @R5,5
  22507  0000339A  00000001 USING  ORDINARY    00000000 00001000 FFFFFFE4   6 026   22565  VNENTRY,R6
  22582  000033BC  00000001 USING  ORDINARY    00000000 00001000 FFFFFFF8   6 000          @R6,6
  22594  000033BC  00000001 USING  ORDINARY    00000000 00001000 FFFFFFF7   7 000          @R7,7
  22669  000033E4  00000001 USING  ORDINARY    000033E4 00001000 00000001   7 352   22883  $$$511B,7
  22683  000033E4  00000001 USING  ORDINARY    FFFFFFD8 00001000 FFFFFFD2   8 128   22816  ENCRYWA-(4+36),R8
1FUNC     (FUNC2193) (12:45) (15MAR04) Using Map                                                                            Page  349
  22725  00003406  00000001 USING  ORDINARY    00000000 00001000 FFFFFFE4   5 026   22800  VNENTRY,R5
  22838  0000344A  00000001 USING  ORDINARY    00000000 00001000 FFFFFFE4   6 026   22890  VNENTRY,R6
  22909  00003466  00000001 USING  ORDINARY    00000000 00001000 FFFFFFF8   6 000          @R6,6
  22916  00003466  00000001 USING  ORDINARY    00000000 00001000 FFFFFFF9   5 000          @R5,5
  22927  00003466  00000001 USING  ORDINARY    00000000 00001000 FFFFFFF6   8 000          @R8,8
  22932  00003466  00000001 USING  ORDINARY    00000000 00001000 FFFFFFF7   7 000          @R7,7
  22988  0000348E  00000001 USING  ORDINARY    0000348E 00001000 00000001   7 2AE   23174  $$$519B,7
  23002  0000348E  00000001 USING  ORDINARY    FFFFFFD8 00001000 FFFFFFDD   8 128   23108  FNWA-(4+36),R8
  23030  0000349C  00000001 USING  ORDINARY    00000000 00001000 FFFFFFE4   5 026   23037  VNENTRY,R5
  23044  000034B6  00000001 USING  ORDINARY    00000000 00001000 FFFFFFF9   5 000          @R5,5
  23149  000034F8  00000001 USING  ORDINARY    00000000 00001000 FFFFFFE4   6 024   23171  VNENTRY,R6
  23182  00003510  00000001 USING  ORDINARY    00000000 00001000 FFFFFFF8   6 000          @R6,6
  23194  00003510  00000001 USING  ORDINARY    00000000 00001000 FFFFFFF6   8 000          @R8,8
  23199  00003510  00000001 USING  ORDINARY    00000000 00001000 FFFFFFF7   7 000          @R7,7
  23276  00003538  00000001 USING  ORDINARY    00003538 00001000 00000001   7 210   23867  $$$529B,7
  23290  00003538  00000001 USING  ORDINARY    FFFFFFD8 00001000 FFFFFFD1   8 078   23806  FMTWA-(4+36),R8
  23319  00003546  00000001 USING  ORDINARY    00000000 00001000 FFFFFFE4   5 026   23426  VNENTRY,R5
  23483  000035BC  00000001 USING  ORDINARY    00000000 00001000 FFFFFFF9   5 000          @R5,5
  23821  000036AE  00000001 USING  ORDINARY    00000000 00001000 FFFFFFE4   6 026   23874  VNENTRY,R6
  23893  000036CC  00000001 USING  ORDINARY    00000000 00001000 FFFFFFF8   6 000          @R6,6
  23906  000036CC  00000001 USING  ORDINARY    00000000 00001000 FFFFFFF6   8 000          @R8,8
  23911  000036CC  00000001 USING  ORDINARY    00000000 00001000 FFFFFFF7   7 000          @R7,7
  24018  00003768  00000001 USING  ORDINARY    00003768 00001000 00000001   7 49A   24203  $$$559B,7
  24032  00003768  00000001 USING  ORDINARY    FFFFFFD8 00001000 FFFFFFD0   8 030   24134  FNGIDWA-(4+36),R8
  24064  0000377A  00000001 USING  ORDINARY    00000000 00001000 FFFFFFE4   5 026   24080  VNENTRY,R5
  24158  000037B6  00000001 USING  ORDINARY    00000000 00001000 FFFFFFE4   6 026   24210  VNENTRY,R6
  24229  000037D2  00000001 USING  ORDINARY    00000000 00001000 FFFFFFF8   6 000          @R6,6
  24236  000037D2  00000001 USING  ORDINARY    00000000 00001000 FFFFFFF9   5 000          @R5,5
  24247  000037D2  00000001 USING  ORDINARY    00000000 00001000 FFFFFFF6   8 000          @R8,8
  24252  000037D2  00000001 USING  ORDINARY    00000000 00001000 FFFFFFF7   7 000          @R7,7
  24303  000037FA  00000001 USING  ORDINARY    000037FA 00001000 00000001   7 40E   24488  $$$568B,7
  24317  000037FA  00000001 USING  ORDINARY    FFFFFFD8 00001000 FFFFFFD0   8 02D   24417  FNGIDWA-(4+36),R8
  24349  0000380C  00000001 USING  ORDINARY    00000000 00001000 FFFFFFE4   5 026   24365  VNENTRY,R5
  24443  00003842  00000001 USING  ORDINARY    00000000 00001000 FFFFFFE4   6 026   24495  VNENTRY,R6
  24514  0000385E  00000001 USING  ORDINARY    00000000 00001000 FFFFFFF8   6 000          @R6,6
  24521  0000385E  00000001 USING  ORDINARY    00000000 00001000 FFFFFFF9   5 000          @R5,5
  24532  0000385E  00000001 USING  ORDINARY    00000000 00001000 FFFFFFF6   8 000          @R8,8
  24537  0000385E  00000001 USING  ORDINARY    00000000 00001000 FFFFFFF7   7 000          @R7,7
  24588  00003886  00000001 USING  ORDINARY    00003886 00001000 00000001   7 388   24757  $$$577B,7
  24602  00003886  00000001 USING  ORDINARY    FFFFFFD8 00001000 FFFFFFD0   8 02D   24670  FNGIDWA-(4+36),R8
  24634  00003898  00000001 USING  ORDINARY    00000000 00001000 FFFFFFE4   5 026   24650  VNENTRY,R5
  24712  000038C8  00000001 USING  ORDINARY    00000000 00001000 FFFFFFE4   6 026   24764  VNENTRY,R6
  24783  000038E4  00000001 USING  ORDINARY    00000000 00001000 FFFFFFF8   6 000          @R6,6
  24790  000038E4  00000001 USING  ORDINARY    00000000 00001000 FFFFFFF9   5 000          @R5,5
  24801  000038E4  00000001 USING  ORDINARY    00000000 00001000 FFFFFFF6   8 000          @R8,8
  24806  000038E4  00000001 USING  ORDINARY    00000000 00001000 FFFFFFF7   7 000          @R7,7
  24857  0000390C  00000001 USING  ORDINARY    0000390C 00001000 00000001   7 308   24967  $$$585B,7
  24871  0000390C  00000001 USING  ORDINARY    FFFFFFD8 00001000 FFFFFFD0   8 000          FNGIDWA-(4+36),R8
  24903  0000391E  00000001 USING  ORDINARY    00000000 00001000 FFFFFFE4   5 000          VNENTRY,R5
  24922  00003926  00000001 USING  ORDINARY    00000000 00001000 FFFFFFE4   6 026   24974  VNENTRY,R6
  24993  00003942  00000001 USING  ORDINARY    00000000 00001000 FFFFFFF8   6 000          @R6,6
  25000  00003942  00000001 USING  ORDINARY    00000000 00001000 FFFFFFF9   5 000          @R5,5
  25011  00003942  00000001 USING  ORDINARY    00000000 00001000 FFFFFFF6   8 000          @R8,8
  25016  00003942  00000001 USING  ORDINARY    00000000 00001000 FFFFFFF7   7 000          @R7,7
  25093  0000396A  00000001 USING  ORDINARY    0000396A 00001000 00000001   7 2B0   25597  $$$592B,7
  25107  0000396A  00000001 USING  ORDINARY    FFFFFFD8 00001000 FFFFFFCF   8 044   25437  FNGMTWA-(4+36),R8
  25139  0000397C  00000001 USING  ORDINARY    00000000 00001000 FFFFFFE4   5 026   25144  VNENTRY,R5
  25177  0000399C  00000001 DROP                                            1              1
  25181  000039A2  00000001 USING  ORDINARY    00000000 00001000 FFFFFFFD   1 000          @R1,1
1FUNC     (FUNC2193) (12:45) (15MAR04) Using Map                                                                            Page  350
  25187  000039AC  00000001 DROP                                            1              1
  25191  000039B2  00000001 USING  ORDINARY    00000000 00001000 FFFFFFFD   1 000          @R1,1
  25197  000039BC  00000001 DROP                                            1              1
  25201  000039C2  00000001 USING  ORDINARY    00000000 00001000 FFFFFFFD   1 000          @R1,1
  25224  000039D4  00000001 DROP                                            1              1
  25228  000039DA  00000001 USING  ORDINARY    00000000 00001000 FFFFFFFD   1 000          @R1,1
  25234  000039E4  00000001 DROP                                            1              1
  25238  000039EA  00000001 USING  ORDINARY    00000000 00001000 FFFFFFFD   1 000          @R1,1
  25255  00003A02  00000001 DROP                                            1              1
  25259  00003A08  00000001 USING  ORDINARY    00000000 00001000 FFFFFFFD   1 000          @R1,1
  25265  00003A12  00000001 DROP                                            1              1
  25269  00003A18  00000001 USING  ORDINARY    00000000 00001000 FFFFFFFD   1 000          @R1,1
  25275  00003A22  00000001 DROP                                            1              1
  25279  00003A28  00000001 USING  ORDINARY    00000000 00001000 FFFFFFFD   1 000          @R1,1
  25285  00003A32  00000001 DROP                                            1              1
  25289  00003A38  00000001 USING  ORDINARY    00000000 00001000 FFFFFFFD   1 000          @R1,1
  25295  00003A42  00000001 DROP                                            1              1
  25299  00003A48  00000001 USING  ORDINARY    00000000 00001000 FFFFFFFD   1 000          @R1,1
  25305  00003A52  00000001 DROP                                            1              1
  25309  00003A58  00000001 USING  ORDINARY    00000000 00001000 FFFFFFFD   1 000          @R1,1
  25315  00003A62  00000001 DROP                                            1              1
  25319  00003A68  00000001 USING  ORDINARY    00000000 00001000 FFFFFFFD   1 01B   51845  @R1,1
  25552  00003BA6  00000001 USING  ORDINARY    00000000 00001000 FFFFFFE4   6 026   25604  VNENTRY,R6
  25623  00003BC2  00000001 USING  ORDINARY    00000000 00001000 FFFFFFF8   6 000          @R6,6
  25630  00003BC2  00000001 USING  ORDINARY    00000000 00001000 FFFFFFF9   5 000          @R5,5
  25641  00003BC2  00000001 USING  ORDINARY    00000000 00001000 FFFFFFF6   8 000          @R8,8
  25646  00003BC2  00000001 USING  ORDINARY    00000000 00001000 FFFFFFF7   7 000          @R7,7
  25765  00003C3A  00000001 USING  ORDINARY    00003C3A 00001000 00000001   7 BE8   26359  $$$608B,7
  25779  00003C3A  00000001 USING  ORDINARY    FFFFFFD8 00001000 FFFFFFCE   8 028   25783  HIWA-(4+36),R8
  25791  00003C3E  00000001 USING  ORDINARY    00000000 00001000 FFFFFFCE   3 044   26715  HIWA,R3
  25831  00003C58  00000001 USING  ORDINARY    00000000 00001000 FFFFFFE4   5 026   25987  VNENTRY,R5
  26094  00003D40  00000001 USING  ORDINARY    00000000 00001000 FFFFFFE4   6 026   26146  VNENTRY,R6
  26165  00003D5C  00000001 USING  ORDINARY    00000000 00001000 FFFFFFF8   6 000          @R6,6
  26283  00003DA4  00000001 USING  ORDINARY    00000000 00001000 FFFFFFE4   6 026   26335  VNENTRY,R6
  26354  00003DC0  00000001 USING  ORDINARY    00000000 00001000 FFFFFFF8   6 000          @R6,6
  26370  00003DC6  00000001 USING  ORDINARY    00000000 00001000 FFFFFFF9   5 000          @R5,5
  26382  00003DC6  00000001 USING  ORDINARY    00000000 00001000 FFFFFFF6   8 000          @R8,8
  26387  00003DC6  00000001 USING  ORDINARY    00000000 00001000 FFFFFFF7   7 000          @R7,7
  26512  00003EB6  00000001 USING  ORDINARY    00003EB6 00001000 00000001   7 925   26521  $$$630B,7
  26528  00003EBC  00000001 USING  ORDINARY    00000000 00001000 FFFFFFF7   7 000          @R7,7
  26573  00003EE4  00000001 USING  ORDINARY    00003EE4 00001000 00000001   7 8FC   26582  $$$633B,7
  26595  00003EEE  00000001 USING  ORDINARY    00000000 00001000 FFFFFFF7   7 000          @R7,7
  26640  00003F16  00000001 USING  ORDINARY    00003F16 00001000 00000001   7 8CF   26649  $$$636B,7
  26656  00003F1C  00000001 USING  ORDINARY    00000000 00001000 FFFFFFF7   7 000          @R7,7
  26701  00003F44  00000001 USING  ORDINARY    00003F44 00001000 00000001   7 000          $$$639B,7
  26722  00003F48  00000001 USING  ORDINARY    00000000 00001000 FFFFFFF7   7 000          @R7,7
  26767  00003F70  00000001 USING  ORDINARY    00003F70 00001000 00000001   7 81C   26827  $$$642B,7
  26836  00003F9A  00000001 USING  ORDINARY    00000000 00001000 FFFFFFF7   7 000          @R7,7
  26855  00003FA8  00000001 USING  ORDINARY    00000000 00001000 FFFFFFFB   3 001   50272  @R3,3
  26916  00003FC2  00000001 USING  ORDINARY    00003FC2 00001000 00000001   7 86C   27215  $$$645B,7
  26930  00003FC2  00000001 USING  ORDINARY    FFFFFFD8 00001000 FFFFFFCD   8 068   27096  HWA-(4+36),R8
  26965  00003FE0  00000001 USING  ORDINARY    00000000 00001000 FFFFFFE4   5 026   26981  VNENTRY,R5
  27139  0000404A  00000001 USING  ORDINARY    00000000 00001000 FFFFFFE4   6 026   27191  VNENTRY,R6
  27210  00004066  00000001 USING  ORDINARY    00000000 00001000 FFFFFFF8   6 000          @R6,6
  27222  0000406C  00000001 USING  ORDINARY    00000000 00001000 FFFFFFF9   5 000          @R5,5
  27233  0000406C  00000001 USING  ORDINARY    00000000 00001000 FFFFFFF6   8 000          @R8,8
  27238  0000406C  00000001 USING  ORDINARY    00000000 00001000 FFFFFFF7   7 000          @R7,7
  27329  00004094  00000001 USING  ORDINARY    00004094 00001000 00000001   7 7A6   28090  $$$658B,7
  27343  00004094  00000001 USING  ORDINARY    FFFFFFD8 00001000 FFFFFFCC   8 028   27347  INCHRWA-(4+36),R8
1FUNC     (FUNC2193) (12:45) (15MAR04) Using Map                                                                            Page  351
  27355  00004098  00000001 USING  ORDINARY    00000000 00001000 FFFFFFCC   4 014   28927  INCHRWA,R4
  27428  000040DE  00000001 USING  ORDINARY    00000000 00001000 FFFFFFE4   6 026   27474  VNENTRY,R6
  27493  00004102  00000001 USING  ORDINARY    00000000 00001000 FFFFFFF8   6 000          @R6,6
  27512  0000410A  00000001 USING  ORDINARY    00000000 00001000 FFFFFFE4   5 026   27597  VNENTRY,R5
  27819  0000422A  00000001 DROP                                           15              15
  27823  00004230  00000001 USING  ORDINARY    00000000 00001000 FFFFFFEF  15 000   52946  @R15,15
  27856  0000423E  00000001 USING  ORDINARY    00000000 00001000 FFFFFFE4   6 026   27908  VNENTRY,R6
  27927  0000425A  00000001 USING  ORDINARY    00000000 00001000 FFFFFFF8   6 000          @R6,6
  27985  00004282  00000001 USING  ORDINARY    00000000 00001000 FFFFFFE8   2 062   28002  JCB,R2
  28009  0000428A  00000001 USING  ORDINARY    00000000 00001000 FFFFFFFC   2 000          @R2,2
  28098  000042CE  00000001 USING  ORDINARY    00000000 00001000 FFFFFFF9   5 000          @R5,5
  28103  000042CE  00000001 USING  ORDINARY    00000000 00001000 FFFFFFF6   8 000          @R8,8
  28108  000042CE  00000001 USING  ORDINARY    00000000 00001000 FFFFFFF7   7 000          @R7,7
  28321  000044AE  00000001 USING  ORDINARY    000044AE 00001000 00000001   7 000          $$$677B,7
  28342  000044B2  00000001 USING  ORDINARY    00000000 00001000 FFFFFFF7   7 000          @R7,7
  28387  000044DA  00000001 USING  ORDINARY    000044DA 00001000 00000001   7 000          $$$680B,7
  28408  000044DE  00000001 USING  ORDINARY    00000000 00001000 FFFFFFF7   7 000          @R7,7
  28453  00004506  00000001 USING  ORDINARY    00004506 00001000 00000001   7 000          $$$683B,7
  28474  0000450A  00000001 USING  ORDINARY    00000000 00001000 FFFFFFF7   7 000          @R7,7
  28519  00004532  00000001 USING  ORDINARY    00004532 00001000 00000001   7 000          $$$686B,7
  28540  00004536  00000001 USING  ORDINARY    00000000 00001000 FFFFFFF7   7 000          @R7,7
  28585  0000455E  00000001 USING  ORDINARY    0000455E 00001000 00000001   7 000          $$$689B,7
  28607  00004562  00000001 USING  ORDINARY    00000000 00001000 FFFFFFF7   7 000          @R7,7
  28652  0000458A  00000001 USING  ORDINARY    0000458A 00001000 00000001   7 000          $$$692B,7
  28673  0000458E  00000001 USING  ORDINARY    00000000 00001000 FFFFFFF7   7 000          @R7,7
  28718  000045B6  00000001 USING  ORDINARY    000045B6 00001000 00000001   7 000          $$$695B,7
  28740  000045BA  00000001 USING  ORDINARY    00000000 00001000 FFFFFFF7   7 000          @R7,7
  28785  000045E2  00000001 USING  ORDINARY    000045E2 00001000 00000001   7 000          $$$698B,7
  28806  000045E6  00000001 USING  ORDINARY    00000000 00001000 FFFFFFF7   7 000          @R7,7
  28851  0000460E  00000001 USING  ORDINARY    0000460E 00001000 00000001   7 000          $$$701B,7
  28872  00004612  00000001 USING  ORDINARY    00000000 00001000 FFFFFFF7   7 000          @R7,7
  28917  0000463A  00000001 USING  ORDINARY    0000463A 00001000 00000001   7 19E   28926  $$$704B,7
  28934  00004642  00000001 USING  ORDINARY    00000000 00001000 FFFFFFF7   7 000          @R7,7
  28979  0000466A  00000001 USING  ORDINARY    0000466A 00001000 00000001   7 000          $$$707B,7
  28995  0000466E  00000001 USING  ORDINARY    00000000 00001000 FFFFFFF7   7 000          @R7,7
  29014  0000467C  00000001 USING  ORDINARY    00000000 00001000 FFFFFFFA   4 000   29192  @R4,4
  29056  00004696  00000001 USING  ORDINARY    00004696 00001000 00000001   7 1AA   29289  $$$710B,7
  29089  000046A4  00000001 USING  ORDINARY    00000000 00001000 FFFFFFE4   5 026   29096  VNENTRY,R5
  29102  000046BC  00000001 USING  ORDINARY    00000000 00001000 FFFFFFF9   5 000          @R5,5
  29264  00004704  00000001 USING  ORDINARY    00000000 00001000 FFFFFFE4   6 024   29286  VNENTRY,R6
  29297  0000471C  00000001 USING  ORDINARY    00000000 00001000 FFFFFFF8   6 000          @R6,6
  29309  0000471C  00000001 USING  ORDINARY    00000000 00001000 FFFFFFF7   7 000          @R7,7
  29464  00004860  00000001 USING  ORDINARY    00004860 00001000 00000001   7 D6A   30247  $$$724B,7
  29478  00004860  00000001 USING  ORDINARY    FFFFFFD8 00001000 FFFFFFCB   8 028   29482  INSTRWA-(4+36),R8
  29490  00004864  00000001 USING  ORDINARY    00000000 00001000 FFFFFFCB   4 014   32116  INSTRWA,R4
  29609  000048BA  00000001 USING  ORDINARY    00000000 00001000 FFFFFFE4   6 026   29655  VNENTRY,R6
  29674  000048DE  00000001 USING  ORDINARY    00000000 00001000 FFFFFFF8   6 000          @R6,6
  29693  000048E6  00000001 USING  ORDINARY    00000000 00001000 FFFFFFE4   5 026   29753  VNENTRY,R5
  29947  000049E8  00000001 USING  ORDINARY    00000000 00001000 FFFFFFE4   6 026   29999  VNENTRY,R6
  30018  00004A04  00000001 USING  ORDINARY    00000000 00001000 FFFFFFF8   6 000          @R6,6
  30076  00004A2C  00000001 USING  ORDINARY    00000000 00001000 FFFFFFE8   2 062   30093  JCB,R2
  30100  00004A34  00000001 USING  ORDINARY    00000000 00001000 FFFFFFFC   2 001   47183  @R2,2
  30255  00004A98  00000001 USING  ORDINARY    00000000 00001000 FFFFFFF9   5 000          @R5,5
  30260  00004A98  00000001 USING  ORDINARY    00000000 00001000 FFFFFFF6   8 000          @R8,8
  30265  00004A98  00000001 USING  ORDINARY    00000000 00001000 FFFFFFF7   7 000          @R7,7
  30703  00004ED2  00000001 USING  ORDINARY    00004ED2 00001000 00000001   7 000          $$$744B,7
  30728  00004EDA  00000001 USING  ORDINARY    00000000 00001000 FFFFFFF7   7 000          @R7,7
  30773  00004F02  00000001 USING  ORDINARY    00004F02 00001000 00000001   7 000          $$$747B,7
  30801  00004F0A  00000001 USING  ORDINARY    00000000 00001000 FFFFFFF7   7 000          @R7,7
1FUNC     (FUNC2193) (12:45) (15MAR04) Using Map                                                                            Page  352
  30846  00004F32  00000001 USING  ORDINARY    00004F32 00001000 00000001   7 000          $$$750B,7
  30867  00004F36  00000001 USING  ORDINARY    00000000 00001000 FFFFFFF7   7 000          @R7,7
  30912  00004F5E  00000001 USING  ORDINARY    00004F5E 00001000 00000001   7 000          $$$753B,7
  30933  00004F62  00000001 USING  ORDINARY    00000000 00001000 FFFFFFF7   7 000          @R7,7
  30978  00004F8A  00000001 USING  ORDINARY    00004F8A 00001000 00000001   7 000          $$$756B,7
  30999  00004F8E  00000001 USING  ORDINARY    00000000 00001000 FFFFFFF7   7 000          @R7,7
  31044  00004FB6  00000001 USING  ORDINARY    00004FB6 00001000 00000001   7 000          $$$759B,7
  31066  00004FBA  00000001 USING  ORDINARY    00000000 00001000 FFFFFFF7   7 000          @R7,7
  31111  00004FE2  00000001 USING  ORDINARY    00004FE2 00001000 00000001   7 000          $$$762B,7
  31132  00004FE6  00000001 USING  ORDINARY    00000000 00001000 FFFFFFF7   7 000          @R7,7
  31177  0000500E  00000001 USING  ORDINARY    0000500E 00001000 00000001   7 000          $$$765B,7
  31198  00005012  00000001 USING  ORDINARY    00000000 00001000 FFFFFFF7   7 000          @R7,7
  31243  0000503A  00000001 USING  ORDINARY    0000503A 00001000 00000001   7 000          $$$768B,7
  31265  0000503E  00000001 USING  ORDINARY    00000000 00001000 FFFFFFF7   7 000          @R7,7
  31310  00005066  00000001 USING  ORDINARY    00005066 00001000 00000001   7 000          $$$771B,7
  31332  0000506A  00000001 USING  ORDINARY    00000000 00001000 FFFFFFF7   7 000          @R7,7
  31377  00005092  00000001 USING  ORDINARY    00005092 00001000 00000001   7 000          $$$774B,7
  31398  00005096  00000001 USING  ORDINARY    00000000 00001000 FFFFFFF7   7 000          @R7,7
  31443  000050BE  00000001 USING  ORDINARY    000050BE 00001000 00000001   7 000          $$$777B,7
  31465  000050C2  00000001 USING  ORDINARY    00000000 00001000 FFFFFFF7   7 000          @R7,7
  31510  000050EA  00000001 USING  ORDINARY    000050EA 00001000 00000001   7 000          $$$780B,7
  31531  000050EE  00000001 USING  ORDINARY    00000000 00001000 FFFFFFF7   7 000          @R7,7
  31576  00005116  00000001 USING  ORDINARY    00005116 00001000 00000001   7 000          $$$783B,7
  31597  0000511A  00000001 USING  ORDINARY    00000000 00001000 FFFFFFF7   7 000          @R7,7
  31642  00005142  00000001 USING  ORDINARY    00005142 00001000 00000001   7 000          $$$786B,7
  31664  00005146  00000001 USING  ORDINARY    00000000 00001000 FFFFFFF7   7 000          @R7,7
  31709  0000516E  00000001 USING  ORDINARY    0000516E 00001000 00000001   7 000          $$$789B,7
  31731  00005172  00000001 USING  ORDINARY    00000000 00001000 FFFFFFF7   7 000          @R7,7
  31776  0000519A  00000001 USING  ORDINARY    0000519A 00001000 00000001   7 000          $$$792B,7
  31797  0000519E  00000001 USING  ORDINARY    00000000 00001000 FFFFFFF7   7 000          @R7,7
  31842  000051C6  00000001 USING  ORDINARY    000051C6 00001000 00000001   7 000          $$$795B,7
  31863  000051CA  00000001 USING  ORDINARY    00000000 00001000 FFFFFFF7   7 000          @R7,7
  31908  000051F2  00000001 USING  ORDINARY    000051F2 00001000 00000001   7 000          $$$798B,7
  31929  000051F6  00000001 USING  ORDINARY    00000000 00001000 FFFFFFF7   7 000          @R7,7
  31974  0000521E  00000001 USING  ORDINARY    0000521E 00001000 00000001   7 000          $$$801B,7
  31995  00005222  00000001 USING  ORDINARY    00000000 00001000 FFFFFFF7   7 000          @R7,7
  32040  0000524A  00000001 USING  ORDINARY    0000524A 00001000 00000001   7 000          $$$804B,7
  32061  0000524E  00000001 USING  ORDINARY    00000000 00001000 FFFFFFF7   7 000          @R7,7
  32106  00005276  00000001 USING  ORDINARY    00005276 00001000 00000001   7 306   32115  $$$807B,7
  32123  0000527E  00000001 USING  ORDINARY    00000000 00001000 FFFFFFF7   7 000          @R7,7
  32168  000052A6  00000001 USING  ORDINARY    000052A6 00001000 00000001   7 000          $$$810B,7
  32184  000052AA  00000001 USING  ORDINARY    00000000 00001000 FFFFFFF7   7 000          @R7,7
  32229  000052D2  00000001 USING  ORDINARY    000052D2 00001000 00000001   7 000          $$$813B,7
  32250  000052D6  00000001 USING  ORDINARY    00000000 00001000 FFFFFFF7   7 000          @R7,7
  32295  000052FE  00000001 USING  ORDINARY    000052FE 00001000 00000001   7 25E   32324  $$$816B,7
  32336  00005312  00000001 USING  ORDINARY    00000000 00001000 FFFFFFF7   7 000          @R7,7
  32381  0000533A  00000001 USING  ORDINARY    0000533A 00001000 00000001   7 000          $$$820B,7
  32397  0000533E  00000001 USING  ORDINARY    00000000 00001000 FFFFFFF7   7 000          @R7,7
  32416  0000534C  00000001 USING  ORDINARY    00000000 00001000 FFFFFFFA   4 001   37874  @R4,4
  32455  00005366  00000001 USING  ORDINARY    00005366 00001000 00000001   7 218   32491  $$$823B,7
  32499  00005382  00000001 USING  ORDINARY    00000000 00001000 FFFFFFF7   7 000          @R7,7
  32552  000053AA  00000001 USING  ORDINARY    000053AA 00001000 00000001   7 1EC   32648  $$$826B,7
  32588  000053B8  00000001 USING  ORDINARY    00000000 00001000 FFFFFFE4   5 024   32591  VNENTRY,R5
  32597  000053C0  00000001 USING  ORDINARY    00000000 00001000 FFFFFFF9   5 000          @R5,5
  32610  000053C0  00000001 USING  ORDINARY    00000000 00001000 FFFFFFE4   6 024   32633  VNENTRY,R6
  32644  000053DA  00000001 USING  ORDINARY    00000000 00001000 FFFFFFF8   6 000          @R6,6
  32660  000053E0  00000001 USING  ORDINARY    00000000 00001000 FFFFFFF7   7 000          @R7,7
  32711  00005408  00000001 USING  ORDINARY    00005408 00001000 00000001   7 176   32747  $$$830B,7
  32755  00005424  00000001 USING  ORDINARY    00000000 00001000 FFFFFFF7   7 000          @R7,7
1FUNC     (FUNC2193) (12:45) (15MAR04) Using Map                                                                            Page  353
  32806  0000544C  00000001 USING  ORDINARY    0000544C 00001000 00000001   7 153   32991  $$$833B,7
  32841  0000545A  00000001 USING  ORDINARY    00000000 00001000 FFFFFFE4   5 026   32996  VNENTRY,R5
  33017  000054D2  00000001 USING  ORDINARY    00000000 00001000 FFFFFFE4   6 026   33036  VNENTRY,R6
  33049  000054EA  00000001 USING  ORDINARY    00000000 00001000 FFFFFFF8   6 000          @R6,6
  33056  000054EA  00000001 USING  ORDINARY    00000000 00001000 FFFFFFF9   5 000          @R5,5
  33067  000054EA  00000001 USING  ORDINARY    00000000 00001000 FFFFFFF7   7 000          @R7,7
  33167  000055EA  00000001 USING  ORDINARY    000055EA 00001000 00000001   7 33E   33398  $$$842B,7
  33202  000055F8  00000001 USING  ORDINARY    00000000 00001000 FFFFFFE4   5 024   33302  VNENTRY,R5
  33319  00005640  00000001 USING  ORDINARY    00000000 00001000 FFFFFFE4   6 026   33413  VNENTRY,R6
  33423  00005676  00000001 USING  ORDINARY    00000000 00001000 FFFFFFF8   6 000          @R6,6
  33428  00005676  00000001 USING  ORDINARY    00000000 00001000 FFFFFFF9   5 000          @R5,5
  33439  00005676  00000001 USING  ORDINARY    00000000 00001000 FFFFFFF7   7 000          @R7,7
  33493  0000569E  00000001 USING  ORDINARY    0000569E 00001000 00000001   7 2F4   33651  $$$852B,7
  33526  000056AC  00000001 USING  ORDINARY    00000000 00001000 FFFFFFE4   5 026   33573  VNENTRY,R5
  33579  000056CA  00000001 USING  ORDINARY    00000000 00001000 FFFFFFF9   5 000          @R5,5
  33612  000056D4  00000001 USING  ORDINARY    00000000 00001000 FFFFFFE4   6 026   33658  VNENTRY,R6
  33677  000056F8  00000001 USING  ORDINARY    00000000 00001000 FFFFFFF8   6 000          @R6,6
  33694  000056F8  00000001 USING  ORDINARY    00000000 00001000 FFFFFFF7   7 000          @R7,7
  33745  00005720  00000001 USING  ORDINARY    00005720 00001000 00000001   7 278   34208  $$$861B,7
  33780  0000572E  00000001 USING  ORDINARY    00000000 00001000 FFFFFFE4   5 024   34025  VNENTRY,R5
  34163  00005838  00000001 USING  ORDINARY    00000000 00001000 FFFFFFE4   6 026   34215  VNENTRY,R6
  34234  00005854  00000001 USING  ORDINARY    00000000 00001000 FFFFFFF8   6 000          @R6,6
  34241  00005854  00000001 USING  ORDINARY    00000000 00001000 FFFFFFF9   5 000          @R5,5
  34252  00005854  00000001 USING  ORDINARY    00000000 00001000 FFFFFFF7   7 000          @R7,7
  34306  0000587C  00000001 USING  ORDINARY    0000587C 00001000 00000001   7 122   34469  $$$880B,7
  34339  0000588A  00000001 USING  ORDINARY    00000000 00001000 FFFFFFE4   5 026   34390  VNENTRY,R5
  34396  000058B0  00000001 USING  ORDINARY    00000000 00001000 FFFFFFF9   5 000          @R5,5
  34430  000058BA  00000001 USING  ORDINARY    00000000 00001000 FFFFFFE4   6 026   34476  VNENTRY,R6
  34495  000058DE  00000001 USING  ORDINARY    00000000 00001000 FFFFFFF8   6 000          @R6,6
  34512  000058DE  00000001 USING  ORDINARY    00000000 00001000 FFFFFFF7   7 000          @R7,7
  34598  000059BE  00000001 USING  ORDINARY    000059BE 00001000 00000001   7 332   34682  $$$889B,7
  34634  000059CC  00000001 USING  ORDINARY    00000000 00001000 FFFFFFE4   5 024   34637  VNENTRY,R5
  34643  000059D4  00000001 USING  ORDINARY    00000000 00001000 FFFFFFF9   5 000          @R5,5
  34656  000059D4  00000001 USING  ORDINARY    00000000 00001000 FFFFFFE4   6 024   34679  VNENTRY,R6
  34690  000059EE  00000001 USING  ORDINARY    00000000 00001000 FFFFFFF8   6 000          @R6,6
  34702  000059EE  00000001 USING  ORDINARY    00000000 00001000 FFFFFFF7   7 000          @R7,7
  34755  00005A16  00000001 USING  ORDINARY    00005A16 00001000 00000001   7 2C2   34995  $$$893B,7
  34792  00005A24  00000001 USING  ORDINARY    00000000 00001000 FFFFFFE4   5 024   34814  VNENTRY,R5
  34875  00005A56  00000001 USING  ORDINARY    00000000 00001000 FFFFFFF9   5 000          @R5,5
  34907  00005A64  00000001 USING  ORDINARY    00000000 00001000 FFFFFFE4   6 024   34930  VNENTRY,R6
  34941  00005A7E  00000001 USING  ORDINARY    00000000 00001000 FFFFFFF8   6 000          @R6,6
  34969  00005A82  00000001 USING  ORDINARY    00000000 00001000 FFFFFFE4   6 024   34992  VNENTRY,R6
  35003  00005A9E  00000001 USING  ORDINARY    00000000 00001000 FFFFFFF8   6 000          @R6,6
  35021  00005A9E  00000001 USING  ORDINARY    00000000 00001000 FFFFFFF7   7 000          @R7,7
  35074  00005AC6  00000001 USING  ORDINARY    00005AC6 00001000 00000001   7 22D   35249  $$$902B,7
  35111  00005AD4  00000001 USING  ORDINARY    00000000 00001000 FFFFFFE4   5 024   35131  VNENTRY,R5
  35192  00005AFE  00000001 USING  ORDINARY    00000000 00001000 FFFFFFF9   5 000          @R5,5
  35223  00005B0A  00000001 USING  ORDINARY    00000000 00001000 FFFFFFE4   6 024   35246  VNENTRY,R6
  35257  00005B24  00000001 USING  ORDINARY    00000000 00001000 FFFFFFF8   6 000          @R6,6
  35275  00005B24  00000001 USING  ORDINARY    00000000 00001000 FFFFFFF7   7 000          @R7,7
  35330  00005B4C  00000001 USING  ORDINARY    00005B4C 00001000 00000001   7 1E4   35643  $$$910B,7
  35420  00005B7E  00000001 USING  ORDINARY    00000000 00001000 FFFFFFE4   5 024   35423  VNENTRY,R5
  35429  00005B86  00000001 USING  ORDINARY    00000000 00001000 FFFFFFF9   5 000          @R5,5
  35492  00005BA6  00000001 USING  ORDINARY    00000000 00001000 FFFFFFE4   6 026   35538  VNENTRY,R6
  35557  00005BCA  00000001 USING  ORDINARY    00000000 00001000 FFFFFFF8   6 000          @R6,6
  35592  00005BD8  00000001 USING  ORDINARY    00000000 00001000 FFFFFFE4   6 026   35650  VNENTRY,R6
  35669  00005BFC  00000001 USING  ORDINARY    00000000 00001000 FFFFFFF8   6 000          @R6,6
  35686  00005BFC  00000001 USING  ORDINARY    00000000 00001000 FFFFFFF7   7 000          @R7,7
  35739  00005C24  00000001 USING  ORDINARY    00005C24 00001000 00000001   7 0C8   35979  $$$925B,7
1FUNC     (FUNC2193) (12:45) (15MAR04) Using Map                                                                            Page  354
  35776  00005C32  00000001 USING  ORDINARY    00000000 00001000 FFFFFFE4   5 024   35798  VNENTRY,R5
  35859  00005C64  00000001 USING  ORDINARY    00000000 00001000 FFFFFFF9   5 000          @R5,5
  35891  00005C72  00000001 USING  ORDINARY    00000000 00001000 FFFFFFE4   6 024   35914  VNENTRY,R6
  35925  00005C8C  00000001 USING  ORDINARY    00000000 00001000 FFFFFFF8   6 000          @R6,6
  35953  00005C90  00000001 USING  ORDINARY    00000000 00001000 FFFFFFE4   6 024   35976  VNENTRY,R6
  35987  00005CAC  00000001 USING  ORDINARY    00000000 00001000 FFFFFFF8   6 000          @R6,6
  36005  00005CAC  00000001 USING  ORDINARY    00000000 00001000 FFFFFFF7   7 000          @R7,7
  36087  00005D50  00000001 USING  ORDINARY    00005D50 00001000 00000001   7 760   36327  $$$934B,7
  36124  00005D5E  00000001 USING  ORDINARY    00000000 00001000 FFFFFFE4   5 024   36146  VNENTRY,R5
  36207  00005D90  00000001 USING  ORDINARY    00000000 00001000 FFFFFFF9   5 000          @R5,5
  36239  00005D9E  00000001 USING  ORDINARY    00000000 00001000 FFFFFFE4   6 024   36262  VNENTRY,R6
  36273  00005DB8  00000001 USING  ORDINARY    00000000 00001000 FFFFFFF8   6 000          @R6,6
  36301  00005DBC  00000001 USING  ORDINARY    00000000 00001000 FFFFFFE4   6 024   36324  VNENTRY,R6
  36335  00005DD8  00000001 USING  ORDINARY    00000000 00001000 FFFFFFF8   6 000          @R6,6
  36353  00005DD8  00000001 USING  ORDINARY    00000000 00001000 FFFFFFF7   7 000          @R7,7
  36406  00005E00  00000001 USING  ORDINARY    00005E00 00001000 00000001   7 6B4   36646  $$$943B,7
  36443  00005E0E  00000001 USING  ORDINARY    00000000 00001000 FFFFFFE4   5 024   36465  VNENTRY,R5
  36526  00005E40  00000001 USING  ORDINARY    00000000 00001000 FFFFFFF9   5 000          @R5,5
  36558  00005E4E  00000001 USING  ORDINARY    00000000 00001000 FFFFFFE4   6 024   36581  VNENTRY,R6
  36592  00005E68  00000001 USING  ORDINARY    00000000 00001000 FFFFFFF8   6 000          @R6,6
  36620  00005E6C  00000001 USING  ORDINARY    00000000 00001000 FFFFFFE4   6 024   36643  VNENTRY,R6
  36654  00005E88  00000001 USING  ORDINARY    00000000 00001000 FFFFFFF8   6 000          @R6,6
  36672  00005E88  00000001 USING  ORDINARY    00000000 00001000 FFFFFFF7   7 000          @R7,7
  36725  00005EB0  00000001 USING  ORDINARY    00005EB0 00001000 00000001   7 608   36965  $$$952B,7
  36762  00005EBE  00000001 USING  ORDINARY    00000000 00001000 FFFFFFE4   5 024   36784  VNENTRY,R5
  36845  00005EF0  00000001 USING  ORDINARY    00000000 00001000 FFFFFFF9   5 000          @R5,5
  36877  00005EFE  00000001 USING  ORDINARY    00000000 00001000 FFFFFFE4   6 024   36900  VNENTRY,R6
  36911  00005F18  00000001 USING  ORDINARY    00000000 00001000 FFFFFFF8   6 000          @R6,6
  36939  00005F1C  00000001 USING  ORDINARY    00000000 00001000 FFFFFFE4   6 024   36962  VNENTRY,R6
  36973  00005F38  00000001 USING  ORDINARY    00000000 00001000 FFFFFFF8   6 000          @R6,6
  36991  00005F38  00000001 USING  ORDINARY    00000000 00001000 FFFFFFF7   7 000          @R7,7
  37042  00005F60  00000001 USING  ORDINARY    00005F60 00001000 00000001   7 628   37145  $$$961B,7
  37075  00005F6E  00000001 USING  ORDINARY    00000000 00001000 FFFFFFE4   5 026   37079  VNENTRY,R5
  37085  00005F7A  00000001 USING  ORDINARY    00000000 00001000 FFFFFFF9   5 000          @R5,5
  37094  00005F7A  00000001 USING  ORDINARY    00000000 00001000 FFFFFFE4   6 026   37152  VNENTRY,R6
  37169  00005F9C  00000001 USING  ORDINARY    00000000 00001000 FFFFFFF8   6 000          @R6,6
  37181  00005F9C  00000001 USING  ORDINARY    00000000 00001000 FFFFFFF7   7 000          @R7,7
  37232  00005FC4  00000001 USING  ORDINARY    00005FC4 00001000 00000001   7 554   37268  $$$970B,7
  37276  00005FE0  00000001 USING  ORDINARY    00000000 00001000 FFFFFFF7   7 000          @R7,7
  37362  00006008  00000001 USING  ORDINARY    00006008 00001000 00000001   7 592   38005  $$$973B,7
  37376  00006008  00000001 USING  ORDINARY    FFFFFFD8 00001000 FFFFFFCA   8 028   37820  MATWA-(4+36),R8
  37438  00006026  00000001 USING  ORDINARY    00000000 00001000 FFFFFFE4   5 026   37443  VNENTRY,R5
  37644  0000609E  00000001 USING  ORDINARY    00000000 00001000 FFFFFFF9   5 150   38343  @R5,5
  37932  00006124  00000001 USING  ORDINARY    00000000 00001000 FFFFFFE4   6 024   37950  VNENTRY,R6
  37958  00006136  00000001 USING  ORDINARY    00000000 00001000 FFFFFFF8   6 000          @R6,6
  37987  0000613A  00000001 USING  ORDINARY    00000000 00001000 FFFFFFE4   6 024   38005  VNENTRY,R6
  38013  0000614C  00000001 USING  ORDINARY    00000000 00001000 FFFFFFF8   6 000          @R6,6
  38030  0000614E  00000001 USING  ORDINARY    00000000 00001000 FFFFFFF6   8 000          @R8,8
  38035  0000614E  00000001 USING  ORDINARY    00000000 00001000 FFFFFFF7   7 000          @R7,7
  38086  00006176  00000001 USING  ORDINARY    00006176 00001000 00000001   7 3E9   38183  $$$1006B,7
  38121  00006184  00000001 USING  ORDINARY    00000000 00001000 FFFFFFE4   6 024   38171  VNENTRY,R6
  38190  000061B8  00000001 USING  ORDINARY    00000000 00001000 FFFFFFF8   6 000          @R6,6
  38201  000061B8  00000001 USING  ORDINARY    00000000 00001000 FFFFFFF7   7 000          @R7,7
  38252  000061E0  00000001 USING  ORDINARY    000061E0 00001000 00000001   7 37F   38349  $$$1013B,7
  38287  000061EE  00000001 USING  ORDINARY    00000000 00001000 FFFFFFE4   6 024   38337  VNENTRY,R6
  38356  00006222  00000001 USING  ORDINARY    00000000 00001000 FFFFFFF8   6 000          @R6,6
  38367  00006222  00000001 USING  ORDINARY    00000000 00001000 FFFFFFF7   7 000          @R7,7
  38420  0000624A  00000001 USING  ORDINARY    0000624A 00001000 00000001   7 320   38516  $$$1020B,7
  38456  00006258  00000001 USING  ORDINARY    00000000 00001000 FFFFFFE4   5 024   38459  VNENTRY,R5
1FUNC     (FUNC2193) (12:45) (15MAR04) Using Map                                                                            Page  355
  38465  00006260  00000001 USING  ORDINARY    00000000 00001000 FFFFFFF9   5 000          @R5,5
  38478  00006260  00000001 USING  ORDINARY    00000000 00001000 FFFFFFE4   6 024   38501  VNENTRY,R6
  38512  0000627A  00000001 USING  ORDINARY    00000000 00001000 FFFFFFF8   6 000          @R6,6
  38528  00006280  00000001 USING  ORDINARY    00000000 00001000 FFFFFFF7   7 000          @R7,7
  38583  000062A8  00000001 USING  ORDINARY    000062A8 00001000 00000001   7 27A   38827  $$$1024B,7
  38616  000062B6  00000001 USING  ORDINARY    00000000 00001000 FFFFFFE4   5 026   39014  VNENTRY,R5
  38801  0000633E  00000001 USING  ORDINARY    00000000 00001000 FFFFFFE4   6 024   38824  VNENTRY,R6
  38835  00006358  00000001 USING  ORDINARY    00000000 00001000 FFFFFFF8   6 000          @R6,6
  38847  00006358  00000001 USING  ORDINARY    00000000 00001000 FFFFFFF7   7 000          @R7,7
  38922  00006380  00000001 USING  ORDINARY    00006380 00001000 00000001   7 1ED   39142  $$$1035B,7
  38936  00006380  00000001 USING  ORDINARY    FFFFFFD8 00001000 FFFFFFC9   8 050   39067  FNNHWA-(4+36),R8
  39105  00006408  00000001 USING  ORDINARY    00000000 00001000 FFFFFFE4   6 024   39127  VNENTRY,R6
  39138  00006420  00000001 USING  ORDINARY    00000000 00001000 FFFFFFF8   6 000          @R6,6
  39154  00006426  00000001 USING  ORDINARY    00000000 00001000 FFFFFFF6   8 000          @R8,8
  39159  00006426  00000001 USING  ORDINARY    00000000 00001000 FFFFFFF7   7 000          @R7,7
  39178  00006434  00000001 USING  ORDINARY    00000000 00001000 FFFFFFF9   5 000          @R5,5
  39218  0000644E  00000001 USING  ORDINARY    0000644E 00001000 00000001   7 158   39321  $$$1043B,7
  39251  0000645C  00000001 USING  ORDINARY    00000000 00001000 FFFFFFE4   5 026   39255  VNENTRY,R5
  39261  00006468  00000001 USING  ORDINARY    00000000 00001000 FFFFFFF9   5 000          @R5,5
  39270  00006468  00000001 USING  ORDINARY    00000000 00001000 FFFFFFE4   6 026   39328  VNENTRY,R6
  39345  0000648A  00000001 USING  ORDINARY    00000000 00001000 FFFFFFF8   6 000          @R6,6
  39357  0000648A  00000001 USING  ORDINARY    00000000 00001000 FFFFFFF7   7 000          @R7,7
  39452  000065C6  00000001 USING  ORDINARY    000065C6 00001000 00000001   7 13C   39548  $$$1052B,7
  39489  000065D8  00000001 USING  ORDINARY    00000000 00001000 FFFFFFE4   5 026   39505  VNENTRY,R5
  39522  000065EA  00000001 USING  ORDINARY    00000000 00001000 FFFFFFE4   6 024   39545  VNENTRY,R6
  39556  00006604  00000001 USING  ORDINARY    00000000 00001000 FFFFFFF8   6 000          @R6,6
  39563  00006604  00000001 USING  ORDINARY    00000000 00001000 FFFFFFF9   5 000          @R5,5
  39574  00006604  00000001 USING  ORDINARY    00000000 00001000 FFFFFFF7   7 000          @R7,7
  39623  0000662C  00000001 USING  ORDINARY    0000662C 00001000 00000001   7 0D6   39719  $$$1056B,7
  39660  0000663E  00000001 USING  ORDINARY    00000000 00001000 FFFFFFE4   5 026   39676  VNENTRY,R5
  39693  00006650  00000001 USING  ORDINARY    00000000 00001000 FFFFFFE4   6 024   39716  VNENTRY,R6
  39727  0000666A  00000001 USING  ORDINARY    00000000 00001000 FFFFFFF8   6 000          @R6,6
  39734  0000666A  00000001 USING  ORDINARY    00000000 00001000 FFFFFFF9   5 000          @R5,5
  39745  0000666A  00000001 USING  ORDINARY    00000000 00001000 FFFFFFF7   7 000          @R7,7
  39796  00006692  00000001 USING  ORDINARY    00006692 00001000 00000001   7 066   39832  $$$1060B,7
  39840  000066AE  00000001 USING  ORDINARY    00000000 00001000 FFFFFFF7   7 000          @R7,7
  39915  00006720  00000001 USING  ORDINARY    00006720 00001000 00000001   7 F98   40018  $$$1063B,7
  39948  0000672E  00000001 USING  ORDINARY    00000000 00001000 FFFFFFE4   5 026   39952  VNENTRY,R5
  39958  0000673A  00000001 USING  ORDINARY    00000000 00001000 FFFFFFF9   5 000          @R5,5
  39967  0000673A  00000001 USING  ORDINARY    00000000 00001000 FFFFFFE4   6 026   40025  VNENTRY,R6
  40042  0000675C  00000001 USING  ORDINARY    00000000 00001000 FFFFFFF8   6 000          @R6,6
  40054  0000675C  00000001 USING  ORDINARY    00000000 00001000 FFFFFFF7   7 000          @R7,7
  40105  00006784  00000001 USING  ORDINARY    00006784 00001000 00000001   7 EAC   40141  $$$1072B,7
  40149  000067A0  00000001 USING  ORDINARY    00000000 00001000 FFFFFFF7   7 000          @R7,7
  40200  000067C8  00000001 USING  ORDINARY    000067C8 00001000 00000001   7 EF6   40301  $$$1075B,7
  40236  000067DA  00000001 USING  ORDINARY    00000000 00001000 FFFFFFE4   5 024   40240  VNENTRY,R5
  40256  000067E4  00000001 USING  ORDINARY    00000000 00001000 FFFFFFE4   6 026   40308  VNENTRY,R6
  40327  00006800  00000001 USING  ORDINARY    00000000 00001000 FFFFFFF8   6 000          @R6,6
  40334  00006800  00000001 USING  ORDINARY    00000000 00001000 FFFFFFF9   5 000          @R5,5
  40344  00006800  00000001 USING  ORDINARY    00000000 00001000 FFFFFFF7   7 000          @R7,7
  40417  00006828  00000001 USING  ORDINARY    00006828 00001000 00000001   7 E9C   40684  $$$1082B,7
  40431  00006828  00000001 USING  ORDINARY    FFFFFFD8 00001000 FFFFFFC8   8 028   40488  QFWA-(4+36),R8
  40463  00006836  00000001 USING  ORDINARY    00000000 00001000 FFFFFFE4   5 026   40474  VNENTRY,R5
  40485  00006854  00000001 USING  ORDINARY    00000000 00001000 FFFFFFF9   5 000          @R5,5
  40593  0000688A  00000001 USING  ORDINARY    00000000 00001000 FFFFFFE4   6 026   40645  VNENTRY,R6
  40664  000068A6  00000001 USING  ORDINARY    00000000 00001000 FFFFFFF8   6 000          @R6,6
  40702  000068B6  00000001 USING  ORDINARY    00000000 00001000 FFFFFFF6   8 000          @R8,8
  40707  000068B6  00000001 USING  ORDINARY    00000000 00001000 FFFFFFF7   7 000          @R7,7
  40801  000068DE  00000001 USING  ORDINARY    000068DE 00001000 00000001   7 DEC   41010  $$$1093B,7
1FUNC     (FUNC2193) (12:45) (15MAR04) Using Map                                                                            Page  356
  40815  000068DE  00000001 USING  ORDINARY    FFFFFFD8 00001000 FFFFFFC7   8 030   40940  RECWA-(4+36),R8
  40853  000068F2  00000001 USING  ORDINARY    00000000 00001000 FFFFFFE4   5 024   40858  VNENTRY,R5
  40965  00006950  00000001 USING  ORDINARY    00000000 00001000 FFFFFFE4   6 026   41017  VNENTRY,R6
  41036  0000696C  00000001 USING  ORDINARY    00000000 00001000 FFFFFFF8   6 000          @R6,6
  41043  0000696C  00000001 USING  ORDINARY    00000000 00001000 FFFFFFF9   5 000          @R5,5
  41053  0000696C  00000001 USING  ORDINARY    00000000 00001000 FFFFFFF6   8 000          @R8,8
  41058  0000696C  00000001 USING  ORDINARY    00000000 00001000 FFFFFFF7   7 000          @R7,7
  41111  00006994  00000001 USING  ORDINARY    00006994 00001000 00000001   7 D42   41537  $$$1103B,7
  41125  00006994  00000001 USING  ORDINARY    FFFFFFD8 00001000 FFFFFFC7   8 055   41495  RECWA-(4+36),R8
  41165  000069AE  00000001 USING  ORDINARY    00000000 00001000 FFFFFFE4   5 026   41470  VNENTRY,R5
  41511  00006AA8  00000001 USING  ORDINARY    00000000 00001000 FFFFFFE4   6 024   41534  VNENTRY,R6
  41545  00006AC2  00000001 USING  ORDINARY    00000000 00001000 FFFFFFF8   6 000          @R6,6
  41552  00006AC2  00000001 USING  ORDINARY    00000000 00001000 FFFFFFF9   5 000          @R5,5
  41563  00006AC2  00000001 USING  ORDINARY    00000000 00001000 FFFFFFF6   8 000          @R8,8
  41568  00006AC2  00000001 USING  ORDINARY    00000000 00001000 FFFFFFF7   7 000          @R7,7
  41621  00006AEA  00000001 USING  ORDINARY    00006AEA 00001000 00000001   7 BF8   41961  $$$1119B,7
  41635  00006AEA  00000001 USING  ORDINARY    FFFFFFD8 00001000 FFFFFFC7   8 035   41855  RECWA-(4+36),R8
  41674  00006B00  00000001 USING  ORDINARY    00000000 00001000 FFFFFFE4   5 026   41841  VNENTRY,R5
  41916  00006BB0  00000001 USING  ORDINARY    00000000 00001000 FFFFFFE4   6 026   41968  VNENTRY,R6
  41987  00006BCC  00000001 USING  ORDINARY    00000000 00001000 FFFFFFF8   6 000          @R6,6
  41994  00006BCC  00000001 USING  ORDINARY    00000000 00001000 FFFFFFF9   5 000          @R5,5
  42004  00006BCC  00000001 USING  ORDINARY    00000000 00001000 FFFFFFF6   8 000          @R8,8
  42009  00006BCC  00000001 USING  ORDINARY    00000000 00001000 FFFFFFF7   7 000          @R7,7
  42062  00006BF4  00000001 USING  ORDINARY    00006BF4 00001000 00000001   7 AFA   42446  $$$1135B,7
  42076  00006BF4  00000001 USING  ORDINARY    FFFFFFD8 00001000 FFFFFFC7   8 035   42320  RECWA-(4+36),R8
  42115  00006C0A  00000001 USING  ORDINARY    00000000 00001000 FFFFFFE4   5 026   42266  VNENTRY,R5
  42370  00006CB2  00000001 USING  ORDINARY    00000000 00001000 FFFFFFE4   6 026   42422  VNENTRY,R6
  42441  00006CCE  00000001 USING  ORDINARY    00000000 00001000 FFFFFFF8   6 000          @R6,6
  42453  00006CD4  00000001 USING  ORDINARY    00000000 00001000 FFFFFFF9   5 000          @R5,5
  42463  00006CD4  00000001 USING  ORDINARY    00000000 00001000 FFFFFFF6   8 000          @R8,8
  42468  00006CD4  00000001 USING  ORDINARY    00000000 00001000 FFFFFFF7   7 000          @R7,7
  42521  00006CFC  00000001 USING  ORDINARY    00006CFC 00001000 00000001   7 9F8   42797  $$$1151B,7
  42535  00006CFC  00000001 USING  ORDINARY    FFFFFFD8 00001000 FFFFFFC7   8 035   42786  RECWA-(4+36),R8
  42574  00006D12  00000001 USING  ORDINARY    00000000 00001000 FFFFFFE4   5 026   42725  VNENTRY,R5
  42752  00006D92  00000001 USING  ORDINARY    00000000 00001000 FFFFFFE4   6 026   42811  VNENTRY,R6
  42822  00006DBA  00000001 USING  ORDINARY    00000000 00001000 FFFFFFF8   6 000          @R6,6
  42829  00006DBA  00000001 USING  ORDINARY    00000000 00001000 FFFFFFF9   5 000          @R5,5
  42839  00006DBA  00000001 USING  ORDINARY    00000000 00001000 FFFFFFF6   8 000          @R8,8
  42844  00006DBA  00000001 USING  ORDINARY    00000000 00001000 FFFFFFF7   7 000          @R7,7
  42897  00006DE2  00000001 USING  ORDINARY    00006DE2 00001000 00000001   7 91E   43281  $$$1162B,7
  42911  00006DE2  00000001 USING  ORDINARY    FFFFFFD8 00001000 FFFFFFC7   8 035   43155  RECWA-(4+36),R8
  42950  00006DF8  00000001 USING  ORDINARY    00000000 00001000 FFFFFFE4   5 026   43101  VNENTRY,R5
  43205  00006EA0  00000001 USING  ORDINARY    00000000 00001000 FFFFFFE4   6 026   43257  VNENTRY,R6
  43276  00006EBC  00000001 USING  ORDINARY    00000000 00001000 FFFFFFF8   6 000          @R6,6
  43288  00006EC2  00000001 USING  ORDINARY    00000000 00001000 FFFFFFF9   5 000          @R5,5
  43298  00006EC2  00000001 USING  ORDINARY    00000000 00001000 FFFFFFF6   8 000          @R8,8
  43303  00006EC2  00000001 USING  ORDINARY    00000000 00001000 FFFFFFF7   7 000          @R7,7
  43356  00006EEA  00000001 USING  ORDINARY    00006EEA 00001000 00000001   7 822   43740  $$$1178B,7
  43370  00006EEA  00000001 USING  ORDINARY    FFFFFFD8 00001000 FFFFFFC7   8 035   43614  RECWA-(4+36),R8
  43409  00006F00  00000001 USING  ORDINARY    00000000 00001000 FFFFFFE4   5 026   43560  VNENTRY,R5
  43664  00006FA8  00000001 USING  ORDINARY    00000000 00001000 FFFFFFE4   6 026   43716  VNENTRY,R6
  43735  00006FC4  00000001 USING  ORDINARY    00000000 00001000 FFFFFFF8   6 000          @R6,6
  43747  00006FCA  00000001 USING  ORDINARY    00000000 00001000 FFFFFFF9   5 000          @R5,5
  43757  00006FCA  00000001 USING  ORDINARY    00000000 00001000 FFFFFFF6   8 000          @R8,8
  43762  00006FCA  00000001 USING  ORDINARY    00000000 00001000 FFFFFFF7   7 000          @R7,7
  43815  00006FF2  00000001 USING  ORDINARY    00006FF2 00001000 00000001   7 670   44202  $$$1194B,7
  43829  00006FF2  00000001 USING  ORDINARY    FFFFFFD8 00001000 FFFFFFC7   8 028   43833  RECWA-(4+36),R8
  43841  00006FF6  00000001 USING  ORDINARY    00000000 00001000 FFFFFFC7   4 00C   44308  RECWA,R4
  43883  00007018  00000001 USING  ORDINARY    00000000 00001000 FFFFFFE4   5 026   43903  VNENTRY,R5
1FUNC     (FUNC2193) (12:45) (15MAR04) Using Map                                                                            Page  357
  44094  000070F0  00000001 USING  ORDINARY    00000000 00001000 FFFFFFE4   6 024   44117  VNENTRY,R6
  44128  0000710A  00000001 USING  ORDINARY    00000000 00001000 FFFFFFF8   6 000          @R6,6
  44135  0000710A  00000001 USING  ORDINARY    00000000 00001000 FFFFFFF9   5 000          @R5,5
  44159  00007110  00000001 USING  ORDINARY    00000000 00001000 FFFFFFE4   6 024   44182  VNENTRY,R6
  44193  0000712A  00000001 USING  ORDINARY    00000000 00001000 FFFFFFF8   6 000          @R6,6
  44210  0000713C  00000001 USING  ORDINARY    00000000 00001000 FFFFFFF6   8 000          @R8,8
  44215  0000713C  00000001 USING  ORDINARY    00000000 00001000 FFFFFFF7   7 000          @R7,7
  44294  000071B6  00000001 USING  ORDINARY    000071B6 00001000 00000001   7 000          $$$1203B,7
  44315  000071BA  00000001 USING  ORDINARY    00000000 00001000 FFFFFFF7   7 000          @R7,7
  44360  000071E2  00000001 USING  ORDINARY    000071E2 00001000 00000001   7 000          $$$1206B,7
  44376  000071E6  00000001 USING  ORDINARY    00000000 00001000 FFFFFFF7   7 000          @R7,7
  44395  000071F4  00000001 USING  ORDINARY    00000000 00001000 FFFFFFFA   4 001   52989  @R4,4
  44436  0000720E  00000001 USING  ORDINARY    0000720E 00001000 00000001   7 50A   44820  $$$1209B,7
  44450  0000720E  00000001 USING  ORDINARY    FFFFFFD8 00001000 FFFFFFC7   8 035   44694  RECWA-(4+36),R8
  44489  00007224  00000001 USING  ORDINARY    00000000 00001000 FFFFFFE4   5 026   44640  VNENTRY,R5
  44744  000072CC  00000001 USING  ORDINARY    00000000 00001000 FFFFFFE4   6 026   44796  VNENTRY,R6
  44815  000072E8  00000001 USING  ORDINARY    00000000 00001000 FFFFFFF8   6 000          @R6,6
  44827  000072EE  00000001 USING  ORDINARY    00000000 00001000 FFFFFFF9   5 000          @R5,5
  44837  000072EE  00000001 USING  ORDINARY    00000000 00001000 FFFFFFF6   8 000          @R8,8
  44842  000072EE  00000001 USING  ORDINARY    00000000 00001000 FFFFFFF7   7 000          @R7,7
  44895  00007316  00000001 USING  ORDINARY    00007316 00001000 00000001   7 40E   45301  $$$1225B,7
  44909  00007316  00000001 USING  ORDINARY    FFFFFFD8 00001000 FFFFFFC7   8 035   45163  RECWA-(4+36),R8
  44948  0000732C  00000001 USING  ORDINARY    00000000 00001000 FFFFFFE4   5 026   45162  VNENTRY,R5
  45256  00007406  00000001 USING  ORDINARY    00000000 00001000 FFFFFFE4   6 026   45308  VNENTRY,R6
  45327  00007422  00000001 USING  ORDINARY    00000000 00001000 FFFFFFF8   6 000          @R6,6
  45334  00007422  00000001 USING  ORDINARY    00000000 00001000 FFFFFFF9   5 000          @R5,5
  45344  00007422  00000001 USING  ORDINARY    00000000 00001000 FFFFFFF6   8 000          @R8,8
  45349  00007422  00000001 USING  ORDINARY    00000000 00001000 FFFFFFF7   7 000          @R7,7
  45402  0000744A  00000001 USING  ORDINARY    0000744A 00001000 00000001   7 2E6   45758  $$$1244B,7
  45416  0000744A  00000001 USING  ORDINARY    FFFFFFD8 00001000 FFFFFFC7   8 035   45652  RECWA-(4+36),R8
  45455  00007460  00000001 USING  ORDINARY    00000000 00001000 FFFFFFE4   5 026   45622  VNENTRY,R5
  45713  0000751A  00000001 USING  ORDINARY    00000000 00001000 FFFFFFE4   6 026   45765  VNENTRY,R6
  45784  00007536  00000001 USING  ORDINARY    00000000 00001000 FFFFFFF8   6 000          @R6,6
  45791  00007536  00000001 USING  ORDINARY    00000000 00001000 FFFFFFF9   5 000          @R5,5
  45801  00007536  00000001 USING  ORDINARY    00000000 00001000 FFFFFFF6   8 000          @R8,8
  45806  00007536  00000001 USING  ORDINARY    00000000 00001000 FFFFFFF7   7 000          @R7,7
  45864  0000755E  00000001 USING  ORDINARY    0000755E 00001000 00000001   7 0CE   45923  $$$1260B,7
  45937  00007588  00000001 USING  ORDINARY    00000000 00001000 FFFFFFF7   7 000          @R7,7
  46049  00007750  00000001 USING  ORDINARY    00007750 00001000 00000001   7 C64   46154  $$$1266B,7
  46084  0000775E  00000001 USING  ORDINARY    00000000 00001000 FFFFFFE4   5 026   46090  VNENTRY,R5
  46103  0000776A  00000001 USING  ORDINARY    00000000 00001000 FFFFFFE4   6 026   46128  VNENTRY,R6
  46162  00007798  00000001 USING  ORDINARY    00000000 00001000 FFFFFFF8   6 000          @R6,6
  46169  00007798  00000001 USING  ORDINARY    00000000 00001000 FFFFFFF9   5 000          @R5,5
  46180  00007798  00000001 USING  ORDINARY    00000000 00001000 FFFFFFF7   7 000          @R7,7
  46254  000077C0  00000001 USING  ORDINARY    000077C0 00001000 00000001   7 BFC   46483  $$$1272B,7
  46268  000077C0  00000001 USING  ORDINARY    FFFFFFD8 00001000 FFFFFFC6   8 02A   46534  RIGHTWA-(4+36),R8
  46307  000077D8  00000001 USING  ORDINARY    00000000 00001000 FFFFFFE4   5 026   46488  VNENTRY,R5
  46509  00007864  00000001 USING  ORDINARY    00000000 00001000 FFFFFFE4   6 026   46540  VNENTRY,R6
  46552  00007888  00000001 USING  ORDINARY    00000000 00001000 FFFFFFF8   6 000          @R6,6
  46559  00007888  00000001 USING  ORDINARY    00000000 00001000 FFFFFFF9   5 000          @R5,5
  46570  00007888  00000001 USING  ORDINARY    00000000 00001000 FFFFFFF6   8 000          @R8,8
  46575  00007888  00000001 USING  ORDINARY    00000000 00001000 FFFFFFF7   7 000          @R7,7
  46661  000078B0  00000001 USING  ORDINARY    000078B0 00001000 00000001   7 BFE   47314  $$$1282B,7
  46675  000078B0  00000001 USING  ORDINARY    FFFFFFD8 00001000 FFFFFFC5   8 028   47129  RMATWA-(4+36),R8
  46737  000078CE  00000001 USING  ORDINARY    00000000 00001000 FFFFFFE4   5 026   46742  VNENTRY,R5
  46943  00007946  00000001 USING  ORDINARY    00000000 00001000 FFFFFFF9   5 000          @R5,5
  47241  000079D8  00000001 USING  ORDINARY    00000000 00001000 FFFFFFE4   6 024   47259  VNENTRY,R6
  47267  000079EA  00000001 USING  ORDINARY    00000000 00001000 FFFFFFF8   6 000          @R6,6
  47296  000079EE  00000001 USING  ORDINARY    00000000 00001000 FFFFFFE4   6 024   47314  VNENTRY,R6
1FUNC     (FUNC2193) (12:45) (15MAR04) Using Map                                                                            Page  358
  47322  00007A00  00000001 USING  ORDINARY    00000000 00001000 FFFFFFF8   6 000          @R6,6
  47339  00007A02  00000001 USING  ORDINARY    00000000 00001000 FFFFFFF6   8 000          @R8,8
  47344  00007A02  00000001 USING  ORDINARY    00000000 00001000 FFFFFFF7   7 000          @R7,7
  47398  00007A2A  00000001 USING  ORDINARY    00007A2A 00001000 00000001   7 A8A   47635  $$$1315B,7
  47412  00007A2A  00000001 USING  ORDINARY    FFFFFFD8 00001000 FFFFFFDD   8 000          FNWA-(4+36),R8
  47446  00007A46  00000001 USING  ORDINARY    00000000 00001000 FFFFFFE4   5 026   48025  VNENTRY,R5
  47550  00007ACA  00000001 USING  ORDINARY    00000000 00001000 FFFFFFE4   6 026   47602  VNENTRY,R6
  47621  00007AE6  00000001 USING  ORDINARY    00000000 00001000 FFFFFFF8   6 000          @R6,6
  47643  00007AF6  00000001 USING  ORDINARY    00000000 00001000 FFFFFFF6   8 000          @R8,8
  47648  00007AF6  00000001 USING  ORDINARY    00000000 00001000 FFFFFFF7   7 000          @R7,7
  47702  00007B1E  00000001 USING  ORDINARY    00007B1E 00001000 00000001   7 99C   47927  $$$1323B,7
  47716  00007B1E  00000001 USING  ORDINARY    FFFFFFD8 00001000 FFFFFFDD   8 000          FNWA-(4+36),R8
  47842  00007BB0  00000001 USING  ORDINARY    00000000 00001000 FFFFFFE4   6 026   47894  VNENTRY,R6
  47913  00007BCC  00000001 USING  ORDINARY    00000000 00001000 FFFFFFF8   6 000          @R6,6
  47935  00007BDC  00000001 USING  ORDINARY    00000000 00001000 FFFFFFF6   8 000          @R8,8
  47940  00007BDC  00000001 USING  ORDINARY    00000000 00001000 FFFFFFF7   7 000          @R7,7
  47992  00007C04  00000001 USING  ORDINARY    00007C04 00001000 00000001   7 8BC   48091  $$$1331B,7
  48031  00007C1E  00000001 USING  ORDINARY    00000000 00001000 FFFFFFF9   5 000          @R5,5
  48044  00007C1E  00000001 USING  ORDINARY    00000000 00001000 FFFFFFE4   6 026   48098  VNENTRY,R6
  48117  00007C3E  00000001 USING  ORDINARY    00000000 00001000 FFFFFFF8   6 000          @R6,6
  48129  00007C3E  00000001 USING  ORDINARY    00000000 00001000 FFFFFFF7   7 000          @R7,7
  48184  00007C66  00000001 USING  ORDINARY    00007C66 00001000 00000001   7 860   48418  $$$1338B,7
  48217  00007C74  00000001 USING  ORDINARY    00000000 00001000 FFFFFFE4   5 02B   48847  VNENTRY,R5
  48371  00007CE4  00000001 USING  ORDINARY    00000000 00001000 FFFFFFE4   6 026   48425  VNENTRY,R6
  48444  00007D04  00000001 USING  ORDINARY    00000000 00001000 FFFFFFF8   6 000          @R6,6
  48456  00007D04  00000001 USING  ORDINARY    00000000 00001000 FFFFFFF7   7 000          @R7,7
  48530  00007D2C  00000001 USING  ORDINARY    00007D2C 00001000 00000001   7 7A6   48958  $$$1350B,7
  48544  00007D2C  00000001 USING  ORDINARY    FFFFFFD8 00001000 FFFFFFC4   8 028   48848  FNSHWA-(4+36),R8
  48720  00007DAC  00000001 USING  ORDINARY    00000000 00001000 FFFFFFE4   6 026   48772  VNENTRY,R6
  48791  00007DC8  00000001 USING  ORDINARY    00000000 00001000 FFFFFFF8   6 000          @R6,6
  48912  00007E20  00000001 USING  ORDINARY    00000000 00001000 FFFFFFE4   6 026   48965  VNENTRY,R6
  48984  00007E3E  00000001 USING  ORDINARY    00000000 00001000 FFFFFFF8   6 000          @R6,6
  49000  00007E3E  00000001 USING  ORDINARY    00000000 00001000 FFFFFFF6   8 000          @R8,8
  49005  00007E3E  00000001 USING  ORDINARY    00000000 00001000 FFFFFFF7   7 000          @R7,7
  49024  00007E4C  00000001 USING  ORDINARY    00000000 00001000 FFFFFFF9   5 000          @R5,5
  49063  00007E66  00000001 USING  ORDINARY    00007E66 00001000 00000001   7 544   49099  $$$1369B,7
  49107  00007E82  00000001 USING  ORDINARY    00000000 00001000 FFFFFFF7   7 000          @R7,7
  49161  00007EAA  00000001 USING  ORDINARY    00007EAA 00001000 00000001   7 50A   49242  $$$1372B,7
  49194  00007EB8  00000001 USING  ORDINARY    00000000 00001000 FFFFFFE4   5 024   49197  VNENTRY,R5
  49203  00007EC0  00000001 USING  ORDINARY    00000000 00001000 FFFFFFF9   5 000          @R5,5
  49216  00007EC0  00000001 USING  ORDINARY    00000000 00001000 FFFFFFE4   6 024   49239  VNENTRY,R6
  49250  00007EDA  00000001 USING  ORDINARY    00000000 00001000 FFFFFFF8   6 000          @R6,6
  49262  00007EDA  00000001 USING  ORDINARY    00000000 00001000 FFFFFFF7   7 000          @R7,7
  49313  00007F02  00000001 USING  ORDINARY    00007F02 00001000 00000001   7 4A8   49349  $$$1376B,7
  49357  00007F1E  00000001 USING  ORDINARY    00000000 00001000 FFFFFFF7   7 000          @R7,7
  49409  00007F46  00000001 USING  ORDINARY    00007F46 00001000 00000001   7 592   49528  $$$1379B,7
  49445  00007F58  00000001 USING  ORDINARY    00000000 00001000 FFFFFFE4   5 026   49461  VNENTRY,R5
  49483  00007F6C  00000001 USING  ORDINARY    00000000 00001000 FFFFFFE4   6 026   49535  VNENTRY,R6
  49554  00007F88  00000001 USING  ORDINARY    00000000 00001000 FFFFFFF8   6 000          @R6,6
  49561  00007F88  00000001 USING  ORDINARY    00000000 00001000 FFFFFFF9   5 000          @R5,5
  49572  00007F88  00000001 USING  ORDINARY    00000000 00001000 FFFFFFF7   7 000          @R7,7
  49659  00007FB0  00000001 USING  ORDINARY    00007FB0 00001000 00000001   7 52E   50351  $$$1386B,7
  49673  00007FB0  00000001 USING  ORDINARY    FFFFFFD8 00001000 FFFFFFC3   8 029   50272  STRIPWA-(4+36),R8
  49721  00007FCC  00000001 USING  ORDINARY    00000000 00001000 FFFFFFE4   5 026   50155  VNENTRY,R5
  50306  00008128  00000001 USING  ORDINARY    00000000 00001000 FFFFFFE4   6 026   50358  VNENTRY,R6
  50377  00008144  00000001 USING  ORDINARY    00000000 00001000 FFFFFFF8   6 000          @R6,6
  50384  00008144  00000001 USING  ORDINARY    00000000 00001000 FFFFFFF9   5 000          @R5,5
  50395  00008144  00000001 USING  ORDINARY    00000000 00001000 FFFFFFF6   8 000          @R8,8
  50400  00008144  00000001 USING  ORDINARY    00000000 00001000 FFFFFFF7   7 000          @R7,7
1FUNC     (FUNC2193) (12:45) (15MAR04) Using Map                                                                            Page  359
  50456  0000816C  00000001 USING  ORDINARY    0000816C 00001000 00000001   7 330   50691  $$$1416B,7
  50489  0000817A  00000001 USING  ORDINARY    00000000 00001000 FFFFFFE4   5 026   50563  VNENTRY,R5
  50573  000081BC  00000001 USING  ORDINARY    00000000 00001000 FFFFFFF9   5 000          @R5,5
  50699  000081FE  00000001 USING  ORDINARY    00000000 00001000 FFFFFFE4   6 026   50715  VNENTRY,R6
  50722  00008212  00000001 USING  ORDINARY    00000000 00001000 FFFFFFF8   6 000          @R6,6
  50735  00008212  00000001 USING  ORDINARY    00000000 00001000 FFFFFFF7   7 000          @R7,7
  50786  0000823A  00000001 USING  ORDINARY    0000823A 00001000 00000001   7 170   50822  $$$1428B,7
  50831  0000825A  00000001 USING  ORDINARY    00000000 00001000 FFFFFFF7   7 000          @R7,7
  50901  00008282  00000001 USING  ORDINARY    00008282 00001000 00000001   7 262   51140  $$$1431B,7
  50915  00008282  00000001 USING  ORDINARY    FFFFFFD8 00001000 FFFFFFC2   8 028   51034  SYSUPWA-(4+36),R8
  50946  00008294  00000001 USING  ORDINARY    00000000 00001000 FFFFFFE4   5 026   50963  VNENTRY,R5
  51067  000082D8  00000001 USING  ORDINARY    00000000 00001000 FFFFFFE4   6 024   51085  VNENTRY,R6
  51093  000082EA  00000001 USING  ORDINARY    00000000 00001000 FFFFFFF8   6 000          @R6,6
  51122  000082EE  00000001 USING  ORDINARY    00000000 00001000 FFFFFFE4   6 024   51140  VNENTRY,R6
  51148  00008300  00000001 USING  ORDINARY    00000000 00001000 FFFFFFF8   6 000          @R6,6
  51159  00008300  00000001 USING  ORDINARY    00000000 00001000 FFFFFFF9   5 000          @R5,5
  51170  00008300  00000001 USING  ORDINARY    00000000 00001000 FFFFFFF6   8 000          @R8,8
  51175  00008300  00000001 USING  ORDINARY    00000000 00001000 FFFFFFF7   7 000          @R7,7
  51317  00008504  00000001 USING  ORDINARY    00008504 00001000 00000001   7 0C0   51583  $$$1441B,7
  51331  00008504  00000001 USING  ORDINARY    FFFFFFD8 00001000 FFFFFFC1   8 030   51456  SYSCKWA-(4+36),R8
  51362  00008516  00000001 USING  ORDINARY    00000000 00001000 FFFFFFE4   5 026   51379  VNENTRY,R5
  51484  00008564  00000001 USING  ORDINARY    00000000 00001000 FFFFFFE9   2 018   51488  SSB,R2
  51500  00008572  00000001 USING  ORDINARY    00000000 00001000 FFFFFFFC   2 100   52989  @R2,2
  51538  0000857A  00000001 USING  ORDINARY    00000000 00001000 FFFFFFE4   6 026   51590  VNENTRY,R6
  51609  00008596  00000001 USING  ORDINARY    00000000 00001000 FFFFFFF8   6 000          @R6,6
  51616  00008596  00000001 USING  ORDINARY    00000000 00001000 FFFFFFF9   5 000          @R5,5
  51627  00008596  00000001 USING  ORDINARY    00000000 00001000 FFFFFFF6   8 000          @R8,8
  51632  00008596  00000001 USING  ORDINARY    00000000 00001000 FFFFFFF7   7 000          @R7,7
  51727  000085E4  00000001 USING  ORDINARY    000085E4 00001000 00000001   7 39A   51838  $$$1454B,7
  51760  000085F2  00000001 USING  ORDINARY    00000000 00001000 FFFFFFE4   5 024   51765  VNENTRY,R5
  51771  00008602  00000001 USING  ORDINARY    00000000 00001000 FFFFFFF9   5 000          @R5,5
  51793  00008612  00000001 USING  ORDINARY    00000000 00001000 FFFFFFE4   6 026   51845  VNENTRY,R6
  51864  0000862E  00000001 USING  ORDINARY    00000000 00001000 FFFFFFF8   6 000          @R6,6
  51876  0000862E  00000001 USING  ORDINARY    00000000 00001000 FFFFFFF7   7 000          @R7,7
  51929  00008656  00000001 USING  ORDINARY    00008656 00001000 00000001   7 32E   52363  $$$1461B,7
  51943  00008656  00000001 USING  ORDINARY    FFFFFFD8 00001000 FFFFFFC0   8 041   52349  XLWA-(4+36),R8
  51973  00008664  00000001 USING  ORDINARY    00000000 00001000 FFFFFFE4   5 026   52166  VNENTRY,R5
  52244  00008728  00000001 DROP                                            1              1
  52248  0000872E  00000001 USING  ORDINARY    00000000 00001000 FFFFFFFD   1 001   57683  @R1,1
  52276  00008740  00000001 USING  ORDINARY    00000000 00001000 FFFFFFE4   6 026   52301  VNENTRY,R6
  52375  0000878A  00000001 USING  ORDINARY    00000000 00001000 FFFFFFF8   6 000          @R6,6
  52382  0000878A  00000001 USING  ORDINARY    00000000 00001000 FFFFFFF9   5 000          @R5,5
  52393  0000878A  00000001 USING  ORDINARY    00000000 00001000 FFFFFFF6   8 000          @R8,8
  52398  0000878A  00000001 USING  ORDINARY    00000000 00001000 FFFFFFF7   7 000          @R7,7
  52451  000088B2  00000001 USING  ORDINARY    000088B2 00001000 00000001   7 0BE   52487  $$$1481B,7
  52495  000088CE  00000001 USING  ORDINARY    00000000 00001000 FFFFFFF7   7 000          @R7,7
  52546  000088F6  00000001 USING  ORDINARY    000088F6 00001000 00000001   7 09A   52649  $$$1484B,7
  52579  00008904  00000001 USING  ORDINARY    00000000 00001000 FFFFFFE4   5 026   52583  VNENTRY,R5
  52589  00008910  00000001 USING  ORDINARY    00000000 00001000 FFFFFFF9   5 000          @R5,5
  52598  00008910  00000001 USING  ORDINARY    00000000 00001000 FFFFFFE4   6 026   52656  VNENTRY,R6
  52673  00008932  00000001 USING  ORDINARY    00000000 00001000 FFFFFFF8   6 000          @R6,6
  52685  00008932  00000001 USING  ORDINARY    00000000 00001000 FFFFFFF7   7 000          @R7,7
  52784  000089B0  00000001 USING  ORDINARY    000089B0 00001000 00000001   7 608   53005  $$$1493B,7
  52798  000089B0  00000001 USING  ORDINARY    FFFFFFD8 00001000 FFFFFFBF   8 028   52922  FNURLWA-(4+36),R8
  52826  000089BE  00000001 USING  ORDINARY    00000000 00001000 FFFFFFE4   5 026   52830  VNENTRY,R5
  52836  000089CA  00000001 USING  ORDINARY    00000000 00001000 FFFFFFF9   5 000          @R5,5
  52845  000089CA  00000001 USING  ORDINARY    00000000 00001000 FFFFFFE4   6 026   53009  VNENTRY,R6
  53019  00008A54  00000001 USING  ORDINARY    00000000 00001000 FFFFFFF8   6 000          @R6,6
  53031  00008A54  00000001 USING  ORDINARY    00000000 00001000 FFFFFFF6   8 000          @R8,8
1FUNC     (FUNC2193) (12:45) (15MAR04) Using Map                                                                            Page  360
  53036  00008A54  00000001 USING  ORDINARY    00000000 00001000 FFFFFFF7   7 000          @R7,7
  53112  00008A7C  00000001 USING  ORDINARY    00008A7C 00001000 00000001   7 564   53587  $$$1504B,7
  53126  00008A7C  00000001 USING  ORDINARY    FFFFFFD8 00001000 FFFFFFBE   8 038   53511  FNVARWA-(4+36),R8
  53205  00008AD6  00000001 USING  ORDINARY    00000000 00001000 FFFFFFE4   5 026   53449  VNENTRY,R5
  53485  00008B82  00000001 USING  ORDINARY    00000000 00001000 FFFFFFE4   6 026   53541  VNENTRY,R6
  53560  00008BA6  00000001 USING  ORDINARY    00000000 00001000 FFFFFFF8   6 000          @R6,6
  53572  00008BAC  00000001 USING  ORDINARY    00000000 00001000 FFFFFFF9   5 000          @R5,5
  53595  00008BC4  00000001 USING  ORDINARY    00000000 00001000 FFFFFFF6   8 000          @R8,8
  53600  00008BC4  00000001 USING  ORDINARY    00000000 00001000 FFFFFFF7   7 000          @R7,7
  53656  00008BEC  00000001 USING  ORDINARY    00008BEC 00001000 00000001   7 3FA   53836  $$$1523B,7
  53670  00008BEC  00000001 USING  ORDINARY    FFFFFFD8 00001000 FFFFFFDD   8 029   53770  FNWA-(4+36),R8
  53698  00008BFA  00000001 USING  ORDINARY    00000000 00001000 FFFFFFE4   5 026   53705  VNENTRY,R5
  53712  00008C14  00000001 USING  ORDINARY    00000000 00001000 FFFFFFF9   5 000          @R5,5
  53811  00008C52  00000001 USING  ORDINARY    00000000 00001000 FFFFFFE4   6 024   53833  VNENTRY,R6
  53844  00008C6A  00000001 USING  ORDINARY    00000000 00001000 FFFFFFF8   6 000          @R6,6
  53856  00008C6A  00000001 USING  ORDINARY    00000000 00001000 FFFFFFF6   8 000          @R8,8
  53861  00008C6A  00000001 USING  ORDINARY    00000000 00001000 FFFFFFF7   7 000          @R7,7
  53914  00008C92  00000001 USING  ORDINARY    00008C92 00001000 00000001   7 35A   54146  $$$1533B,7
  53928  00008C92  00000001 USING  ORDINARY    FFFFFFD8 00001000 FFFFFFDD   8 028   54081  FNWA-(4+36),R8
  53957  00008CA0  00000001 USING  ORDINARY    00000000 00001000 FFFFFFE4   5 026   53964  VNENTRY,R5
  53970  00008CB8  00000001 USING  ORDINARY    00000000 00001000 FFFFFFF9   5 000          @R5,5
  54098  00008D16  00000001 USING  ORDINARY    00000000 00001000 FFFFFFE4   6 026   54153  VNENTRY,R6
  54172  00008D36  00000001 USING  ORDINARY    00000000 00001000 FFFFFFF8   6 000          @R6,6
  54189  00008D38  00000001 USING  ORDINARY    00000000 00001000 FFFFFFF6   8 000          @R8,8
  54194  00008D38  00000001 USING  ORDINARY    00000000 00001000 FFFFFFF7   7 000          @R7,7
  54247  00008D60  00000001 USING  ORDINARY    00008D60 00001000 00000001   7 292   54480  $$$1542B,7
  54261  00008D60  00000001 USING  ORDINARY    FFFFFFD8 00001000 FFFFFFDD   8 028   54415  FNWA-(4+36),R8
  54290  00008D6E  00000001 USING  ORDINARY    00000000 00001000 FFFFFFE4   5 026   54297  VNENTRY,R5
  54303  00008D86  00000001 USING  ORDINARY    00000000 00001000 FFFFFFF9   5 000          @R5,5
  54431  00008DE4  00000001 USING  ORDINARY    00000000 00001000 FFFFFFE4   6 026   54487  VNENTRY,R6
  54506  00008E06  00000001 USING  ORDINARY    00000000 00001000 FFFFFFF8   6 000          @R6,6
  54523  00008E08  00000001 USING  ORDINARY    00000000 00001000 FFFFFFF6   8 000          @R8,8
  54528  00008E08  00000001 USING  ORDINARY    00000000 00001000 FFFFFFF7   7 000          @R7,7
  54581  00008E30  00000001 USING  ORDINARY    00008E30 00001000 00000001   7 1AC   54665  $$$1551B,7
  54617  00008E3E  00000001 USING  ORDINARY    00000000 00001000 FFFFFFE4   5 024   54620  VNENTRY,R5
  54626  00008E46  00000001 USING  ORDINARY    00000000 00001000 FFFFFFF9   5 000          @R5,5
  54639  00008E46  00000001 USING  ORDINARY    00000000 00001000 FFFFFFE4   6 024   54662  VNENTRY,R6
  54673  00008E60  00000001 USING  ORDINARY    00000000 00001000 FFFFFFF8   6 000          @R6,6
  54685  00008E60  00000001 USING  ORDINARY    00000000 00001000 FFFFFFF7   7 000          @R7,7
  54736  00008E88  00000001 USING  ORDINARY    00008E88 00001000 00000001   7 130   54830  $$$1555B,7
  54772  00008E9A  00000001 USING  ORDINARY    00000000 00001000 FFFFFFE4   5 026   54788  VNENTRY,R5
  54804  00008EA8  00000001 USING  ORDINARY    00000000 00001000 FFFFFFE4   6 024   54827  VNENTRY,R6
  54838  00008EC2  00000001 USING  ORDINARY    00000000 00001000 FFFFFFF8   6 000          @R6,6
  54845  00008EC2  00000001 USING  ORDINARY    00000000 00001000 FFFFFFF9   5 000          @R5,5
  54856  00008EC2  00000001 USING  ORDINARY    00000000 00001000 FFFFFFF7   7 000          @R7,7
  54978  00009012  00000001 USING  ORDINARY    00009012 00001000 00000001   7 A0B   55193  $$$1559B,7
  54992  00009012  00000001 USING  ORDINARY    FFFFFFD8 00001000 FFFFFFBD   8 050   55130  FNWHWA-(4+36),R8
  55003  00009012  00000001 USING  ORDINARY    00000000 00001000 FFFFFFE4   5 026   55077  VNENTRY,R5
  55168  0000909A  00000001 USING  ORDINARY    00000000 00001000 FFFFFFE4   6 024   55190  VNENTRY,R6
  55201  000090B2  00000001 USING  ORDINARY    00000000 00001000 FFFFFFF8   6 000          @R6,6
  55213  000090B2  00000001 USING  ORDINARY    00000000 00001000 FFFFFFF6   8 000          @R8,8
  55218  000090B2  00000001 USING  ORDINARY    00000000 00001000 FFFFFFF7   7 000          @R7,7
  55237  000090C0  00000001 USING  ORDINARY    00000000 00001000 FFFFFFF9   5 000          @R5,5
  55276  000090DA  00000001 USING  ORDINARY    000090DA 00001000 00000001   7 8DC   55312  $$$1567B,7
  55321  000090FA  00000001 USING  ORDINARY    00000000 00001000 FFFFFFF7   7 000          @R7,7
  55372  00009122  00000001 USING  ORDINARY    00009122 00001000 00000001   7 894   55408  $$$1570B,7
  55416  0000913E  00000001 USING  ORDINARY    00000000 00001000 FFFFFFF7   7 000          @R7,7
  55467  00009166  00000001 USING  ORDINARY    00009166 00001000 00000001   7 850   55503  $$$1573B,7
  55511  00009182  00000001 USING  ORDINARY    00000000 00001000 FFFFFFF7   7 000          @R7,7
1FUNC     (FUNC2193) (12:45) (15MAR04) Using Map                                                                            Page  361
  55562  000091AA  00000001 USING  ORDINARY    000091AA 00001000 00000001   7 80C   55598  $$$1576B,7
  55606  000091C6  00000001 USING  ORDINARY    00000000 00001000 FFFFFFF7   7 000          @R7,7
  55655  000091EE  00000001 USING  ORDINARY    000091EE 00001000 00000001   7 82C   55751  $$$1579B,7
  55692  00009200  00000001 USING  ORDINARY    00000000 00001000 FFFFFFE4   5 026   55708  VNENTRY,R5
  55725  00009212  00000001 USING  ORDINARY    00000000 00001000 FFFFFFE4   6 024   55748  VNENTRY,R6
  55759  0000922C  00000001 USING  ORDINARY    00000000 00001000 FFFFFFF8   6 000          @R6,6
  55766  0000922C  00000001 USING  ORDINARY    00000000 00001000 FFFFFFF9   5 000          @R5,5
  55777  0000922C  00000001 USING  ORDINARY    00000000 00001000 FFFFFFF7   7 000          @R7,7
  55826  00009254  00000001 USING  ORDINARY    00009254 00001000 00000001   7 7C6   55922  $$$1583B,7
  55863  00009266  00000001 USING  ORDINARY    00000000 00001000 FFFFFFE4   5 026   55879  VNENTRY,R5
  55896  00009278  00000001 USING  ORDINARY    00000000 00001000 FFFFFFE4   6 024   55919  VNENTRY,R6
  55930  00009292  00000001 USING  ORDINARY    00000000 00001000 FFFFFFF8   6 000          @R6,6
  55937  00009292  00000001 USING  ORDINARY    00000000 00001000 FFFFFFF9   5 000          @R5,5
  55948  00009292  00000001 USING  ORDINARY    00000000 00001000 FFFFFFF7   7 000          @R7,7
  55999  000092BA  00000001 USING  ORDINARY    000092BA 00001000 00000001   7 67A   56282  $$$1587B,7
  56034  000092C8  00000001 USING  ORDINARY    00000000 00001000 FFFFFFE4   5 026   56207  VNENTRY,R5
  56119  000092FA  00000001 DROP                                            2              2
  56123  00009300  00000001 USING  ORDINARY    00000000 00001000 FFFFFFFC   2 001   56277  @R2,2
  56204  0000932C  00000001 DROP                                            3              3
  56208  00009332  00000001 USING  ORDINARY    00000000 00001000 FFFFFFFB   3 000          @R3,3
  56225  00009332  00000001 USING  ORDINARY    00000000 00001000 FFFFFFE4   6 026   56284  VNENTRY,R6
  56291  00009364  00000001 USING  ORDINARY    00000000 00001000 FFFFFFF8   6 000          @R6,6
  56299  00009364  00000001 USING  ORDINARY    00000000 00001000 FFFFFFF9   5 000          @R5,5
  56309  00009364  00000001 USING  ORDINARY    00000000 00001000 FFFFFFF7   7 000          @R7,7
  56360  0000938C  00000001 USING  ORDINARY    0000938C 00001000 00000001   7 62A   56396  $$$1599B,7
  56404  000093A8  00000001 USING  ORDINARY    00000000 00001000 FFFFFFF7   7 000          @R7,7
  56455  000093D0  00000001 USING  ORDINARY    000093D0 00001000 00000001   7 5E6   56491  $$$1602B,7
  56499  000093EC  00000001 USING  ORDINARY    00000000 00001000 FFFFFFF7   7 000          @R7,7
  56599  00009414  00000001 USING  ORDINARY    00009414 00001000 00000001   7 67C   57709  $$$1605B,7
  56613  00009414  00000001 USING  ORDINARY    FFFFFFD8 00001000 FFFFFFBC   8 028   56617  YNWA-(4+36),R8
  56625  00009418  00000001 USING  ORDINARY    00000000 00001000 FFFFFFBC   4 004   58143  YNWA,R4
  56676  00009442  00000001 USING  ORDINARY    00000000 00001000 FFFFFFE4   6 026   56722  VNENTRY,R6
  56741  00009466  00000001 USING  ORDINARY    00000000 00001000 FFFFFFF8   6 000          @R6,6
  56760  0000946E  00000001 USING  ORDINARY    00000000 00001000 FFFFFFE4   5 026   56820  VNENTRY,R5
  57336  0000960C  00000001 USING  ORDINARY    00000000 00001000 FFFFFFE8   2 062   57348  JCB,R2
  57355  00009610  00000001 USING  ORDINARY    00000000 00001000 FFFFFFFC   2 000          @R2,2
  57631  000096B0  00000001 USING  ORDINARY    00000000 00001000 FFFFFFE4   6 026   57683  VNENTRY,R6
  57702  000096CC  00000001 USING  ORDINARY    00000000 00001000 FFFFFFF8   6 000          @R6,6
  57717  000096DA  00000001 USING  ORDINARY    00000000 00001000 FFFFFFF9   5 000          @R5,5
  57722  000096DA  00000001 USING  ORDINARY    00000000 00001000 FFFFFFF6   8 000          @R8,8
  57727  000096DA  00000001 USING  ORDINARY    00000000 00001000 FFFFFFF7   7 000          @R7,7
  57865  000097F2  00000001 USING  ORDINARY    000097F2 00001000 00000001   7 000          $$$1639B,7
  57886  000097F6  00000001 USING  ORDINARY    00000000 00001000 FFFFFFF7   7 000          @R7,7
  57931  0000981E  00000001 USING  ORDINARY    0000981E 00001000 00000001   7 000          $$$1642B,7
  57952  00009822  00000001 USING  ORDINARY    00000000 00001000 FFFFFFF7   7 000          @R7,7
  57997  0000984A  00000001 USING  ORDINARY    0000984A 00001000 00000001   7 000          $$$1645B,7
  58018  0000984E  00000001 USING  ORDINARY    00000000 00001000 FFFFFFF7   7 000          @R7,7
  58063  00009876  00000001 USING  ORDINARY    00009876 00001000 00000001   7 000          $$$1648B,7
  58084  0000987A  00000001 USING  ORDINARY    00000000 00001000 FFFFFFF7   7 000          @R7,7
  58129  000098A2  00000001 USING  ORDINARY    000098A2 00001000 00000001   7 000          $$$1651B,7
  58150  000098A6  00000001 USING  ORDINARY    00000000 00001000 FFFFFFF7   7 000          @R7,7
  58195  000098CE  00000001 USING  ORDINARY    000098CE 00001000 00000001   7 000          $$$1654B,7
  58211  000098D2  00000001 USING  ORDINARY    00000000 00001000 FFFFFFF7   7 000          @R7,7
  58230  000098E0  00000001 USING  ORDINARY    00000000 00001000 FFFFFFFA   4 000   59568  @R4,4
  58410  00009AB0  00000001 USING  ORDINARY    00009AB0 00001000 00000001   7 314   59195  $$$1657B,7
  58424  00009AB0  00000001 USING  ORDINARY    FFFFFFD8 00001000 FFFFFFBB   8 128   59068  ASWA-(4+36),R8
  58462  00009ACA  00000001 USING  ORDINARY    00000000 00001000 FFFFFFE4   5 032   58791  VNENTRY,R5
  59169  00009C80  00000001 USING  ORDINARY    00000000 00001000 FFFFFFE4   6 024   59192  VNENTRY,R6
  59203  00009C9A  00000001 USING  ORDINARY    00000000 00001000 FFFFFFF8   6 000          @R6,6
1FUNC     (FUNC2193) (12:45) (15MAR04) Using Map                                                                            Page  362
  59210  00009C9A  00000001 USING  ORDINARY    00000000 00001000 FFFFFFF9   5 000          @R5,5
  59220  00009C9A  00000001 USING  ORDINARY    00000000 00001000 FFFFFFF6   8 000          @R8,8
  59225  00009C9A  00000001 USING  ORDINARY    00000000 00001000 FFFFFFF7   7 000          @R7,7
  59277  00009CB8  00000001 USING  ORDINARY    00009CB8 00001000 00000001   7 112   59597  $$$1697B,7
  59291  00009CB8  00000001 USING  ORDINARY    FFFFFFD8 00001000 FFFFFFBB   8 044   59522  ASWA-(4+36),R8
  59310  00009CC0  00000001 USING  ORDINARY    00000000 00001000 FFFFFFE4   2 012   59338  VNENTRY,R2
  59367  00009CE0  00000001 USING  ORDINARY    00000000 00001000 FFFFFFFC   2 000   59568  @R2,2
  59378  00009CE0  00000001 USING  ORDINARY    00000000 00001000 FFFFFFE4   5 026   59387  VNENTRY,R5
  59615  00009D6C  00000001 USING  ORDINARY    00000000 00001000 FFFFFFF9   5 000          @R5,5
  59624  00009D6E  00000001 USING  ORDINARY    00000000 00001000 FFFFFFF6   8 000          @R8,8
  59629  00009D6E  00000001 USING  ORDINARY    00000000 00001000 FFFFFFF7   7 000          @R7,7
  59709  00009DEA  00000001 USING  ORDINARY    00009DEA 00001000 00000001   7 17A   60172  $$$1715B,7
  59723  00009DEA  00000001 USING  ORDINARY    FFFFFFD8 00001000 FFFFFFBE   8 038   59937  FNVARWA-(4+36),R8
  59799  00009E3A  00000001 USING  ORDINARY    00000000 00001000 FFFFFFE4   5 036   60083  VNENTRY,R5
  60116  00009EEA  00000001 USING  ORDINARY    00000000 00001000 FFFFFFE4   6 024   60139  VNENTRY,R6
  60150  00009F04  00000001 USING  ORDINARY    00000000 00001000 FFFFFFF8   6 000          @R6,6
  60157  00009F04  00000001 USING  ORDINARY    00000000 00001000 FFFFFFF9   5 000          @R5,5
  60180  00009F1C  00000001 USING  ORDINARY    00000000 00001000 FFFFFFF6   8 000          @R8,8
  60185  00009F1C  00000001 USING  ORDINARY    00000000 00001000 FFFFFFF7   7 000          @R7,7

1         (FUNC2193) (12:45) (15MAR04) General Purpose Register Cross Reference                                             Page  363
- Register  References (M=modified, B=branch, U=USING, D=DROP, N=index)                      HLASM R4.0  2004/03/15 12.45
0    0(0)      982U   983D  2329   2397M  2397   2398M  8285   8313M  8321M  8348M  8387   8414   8418M  8518M  8565
              8604   8615M  8643M  8661M  8692   8703M  8731M  8749M  8782   9066   9066   9077M  9135M  9168   9218M
              9218   9219   9240M  9240   9241   9320M  9387   9458M  9458   9480M  9502M  9502   9520M  9548M  9566M
              9595M 10403  10434M 10463M 10489  10571  10840M 10866  10970M 11023  11163M 11177  11201M 11228M 11228
             11265M 11291M 11309M 11309  11326M 11341  11373M 11375  11435M 11436M 11470  11502M 11504  11564M 11565M
             11593M 11620M 11620  11684  11685  11759M 11793  11957M 11984  12113M 12140  12269M 12296  12487M 12514
             12643M 12731  12907  12937M 13036M 13089M 13138  13218M 13245M 13245  13279M 13324  13325  13398M 13457
             13608M 13648  13649  13908M 13909M 13949  13950  14021M 14047  14078M 14116M 14142  14359M 14385  14416M
             14454M 14480  14511M 14549M 14575  14606M 14644M 14693  14755  14797M 14799M 14863M 14908  14909  14982M
             15008  15039M 15077M 15103  15134M 15172M 15221  15377M 15523M 15576  15638  15761M 15779  15875M 16113M
             16167  16229  16280M 16345M 16363  16414M 16415  16416  16477M 16529M 16530  16531  16610M 16659  16737M
             16749  16760M 16837  16838  16949M 16996  16997  17065M 17109M 17199  17306M 17310  17351M 17351  17360
             17361  17441M 17460M 17504  17505  17591M 17592  17593  17673M 17674  17675  17741M 17795  17836M 17863
             17970M 17974  18015M 18015  18024  18025  18125M 18160M 18195M 18215M 18260  18261  18347M 18348  18349
             18429M 18430  18431  18499M 18553  18594M 18653  18737M 18741  18792M 18792  18801  18802  19034M 19035
             19036  19102M 19156  19197M 19250  19335M 19339  19383M 19383  19392  19393  19486M 19521M 19541M 19586
             19587  19673M 19674  19675  19741M 19795  19836M 19927  20021M 20025  20076M 20076  20085  20086  20201M
             20207  20208  20312M 20312  20348  20359M 20483M 20488  20603M 20604  20605  20699M 20700  20701  20772M
             20797  20856  20881  20909M 20963  21004M 21068  21127  21158M 21162  21219M 21219  21228  21229  21367M
             21371  21390M 21390  21399  21400  21469M 21519M 21546M 21588M 21644M 21686M 21695M 21735  21736  21822M
             21823  21824  21895M 21996  22042M 22062  22108M 22129  22170M 22247  22278M 22316M 22342  22373M 22411M
             22438  22602M 22651  22713  22755M 22757M 22821M 22866  22867  22940M 22970  23055M 23074  23207M 23258
             23849M 23850  23851  23919M 24000  24080M 24107M 24107  24141M 24186  24187  24260M 24285  24365M 24392M
             24392  24422M 24471  24472  24545M 24570  24650M 24675M 24695M 24695  24740  24741  24814M 24839  24910M
             24950  24951  25024M 25075  25172M 25172  25173M 25174M 25184M 25194M 25204M 25231M 25241M 25246  25250M
             25250  25251M 25252M 25262M 25272M 25282M 25292M 25302M 25312M 25322M 25323  25365M 25436M 25483M 25483
             25508M 25508  25533M 25533  25580  25581  25654M 25747  25846  25865M 25898M 25903  25987M 25991  26002M
             26002  26011  26012  26082M 26122  26123  26190M 26213M 26234M 26234  26267M 26311  26312  26395M 26495
             26536M 26556  26603M 26623  26664M 26684  26730M 26750  26805M 26844M 26898  26981M 26994M 26994  27014M
             27019  27080M 27101M 27122M 27122  27167  27168  27246M 27311  27449M 27450  27451  27501  27532M 27558
             27597M 27601  27612M 27612  27621  27622  27687M 27726  27729M 27755M 27758M 27793  27839M 27884  27885
             27940M 28019M 28068M 28116M 28304  28350M 28370  28416M 28436  28482M 28502  28548M 28568  28615M 28635
             28681M 28701  28748M 28768  28814M 28834  28880M 28900  28926M 28927  28942M 28962  29003M 29039  29152M
             29152  29166M 29166  29212M 29232M 29232  29317M 29446  29630M 29631  29632  29682  29713M 29714  29753M
             29757  29768M 29768  29777  29778  29843M 29881  29884M 29910M 29913M 29975  29976  30031M 30110M 30159M
             30273M 30686  30736M 30756  30809M 30829  30875M 30895  30941M 30961  31007M 31027  31074M 31094  31140M
             31160  31206M 31226  31273M 31293  31340M 31360  31406M 31426  31473M 31493  31539M 31559  31605M 31625
             31672M 31692  31739M 31759  31805M 31825  31871M 31891  31937M 31957  32003M 32023  32069M 32089  32115M
             32116  32131M 32151  32177  32192M 32212  32258M 32278  32312  32324M 32329  32344M 32364  32405M 32438
             32469M 32507M 32535  32668M 32694  32725M 32763M 32789  32916  32946M 33075M 33150  33246M 33295  33352M
             33376M 33376  33383M 33408M 33408  33413  33447M 33476  33546  33573M 33633M 33634  33635  33702M 33728
             33824M 33870  33913M 33965M 34018  34065M 34077M 34098M 34118M 34125  34150M 34191  34192  34260M 34289
             34363  34390M 34451M 34452  34453  34520M 34581  34710M 34738  34807  34879M 34928  35029M 35057  35124
             35244  35283M 35313  35393M 35423M 35443M 35443  35457  35468M 35513M 35514  35515  35625M 35626  35627
             35694M 35722  35791  35863M 35912  36013M 36070  36139  36211M 36260  36361M 36389  36458  36530M 36579
             36680M 36708  36777  36849M 36898  36999M 37025  37189M 37215  37246M 37284M 37344  37422  37581M 37599M
             38043M 38069  38153M 38153  38179M 38209M 38235  38319M 38319  38345M 38375M 38403  38536M 38566  38621
             38624M 38631M 38681  38703  38855M 38904  38960M 38972  38983M 39036M 39081  39088M 39167M 39201  39365M
             39435  39505M 39582M 39606  39676M 39753M 39779  39810M 39848M 39898  40062M 40088  40119M 40157M 40183
             40284  40285  40352M 40399  40474M 40518M 40518  40540M 40567  40572M 40572  40621  40622  40680M 40715M
             40783  40916M 40939M 40948M 40993  40994  41066M 41093  41154  41173M 41182M 41182  41216M 41216  41223M
             41223  41290M 41412M 41489M 41576M 41603  41679M 41688M 41688  41722M 41722  41729M 41729  41783M 41875M
             41895M 41944  41945  42017M 42044  42120M 42129M 42129  42163M 42163  42170M 42170  42208M 42309M 42330M
             42330  42354M 42354  42398  42399  42476M 42503  42579M 42588M 42588  42622M 42622  42629M 42629  42667M
             42785M 42806M 42806  42811  42852M 42879  42955M 42964M 42964  42998M 42998  43005M 43005  43043M 43144M
1         (FUNC2193) (12:45) (15MAR04) General Purpose Register Cross Reference                                             Page  364
             43165M 43165  43189M 43189  43233  43234  43311M 43338  43414M 43423M 43423  43457M 43457  43464M 43464
             43502M 43603M 43624M 43624  43648M 43648  43692  43693  43770M 43797  43903M 43907  43918M 43918  43927
             43928  43988M 44009M 44009  44014  44017M 44037M 44223M 44277  44323M 44343  44384M 44418  44494M 44503M
             44503  44537M 44537  44544M 44544  44582M 44683M 44704M 44704  44728M 44728  44772  44773  44850M 44877
             44953M 44962M 44962  44996M 44996  45003M 45003  45041M 45132M 45162M 45183M 45215M 45235M 45284  45285
             45357M 45384  45460M 45469M 45469  45503M 45503  45510M 45510  45564M 45651M 45672M 45692M 45741  45742
             45814M 45847  45904M 45904  45924M 45930  45945M 46032  46188M 46236  46408  46438M 46535M 46583M 46643
             46721  46880M 46898M 47352M 47380  47464M 47468  47479M 47479  47488  47489  47490  47525M 47525  47534M
             47578  47579  47656M 47684  47761M 47765  47776M 47776  47785  47786  47787  47826M 47870  47871  47948M
             47975  48073M 48074  48075  48137M 48167  48222  48225M 48233M 48278  48300  48400M 48401  48402  48464M
             48512  48600M 48666M 48695  48703M 48748  48749  48846M 48870M 48941  48942  49013M 49046  49077M 49115M
             49144  49270M 49296  49327M 49365M 49392  49461M 49511  49512  49580M 49641  49739  49769M 49992M 50010M
             50063  50093M 50155M 50184M 50184  50212M 50241  50255M 50255  50284M 50334  50335  50408M 50439  50556
             50586  50743M 50769  50800M 50839M 50883  50963M 50966  50978M 50984  51039M 51183M 51299  51379M 51382
             51394M 51400  51455M 51488M 51518M 51518  51566  51567  51640M 51710  51776M 51821  51822  51884M 51911
             51996  52042  52076  52106  52212M 52212  52213M 52233M 52233  52234M 52254  52406M 52434  52465M 52503M
             52529  52693M 52766  52929M 53044M 53094  53143  53146M 53172M 53221M 53380M 53380  53516M 53517  53518
             53608M 53638  53717M 53717  53736  53869M 53896  53994M 54047M 54080M 54128M 54129  54130  54202M 54229
             54327M 54380M 54413M 54462M 54463  54464  54536M 54564  54693M 54719  54788M 54864M 54960  55023M 55035
             55046M 55099M 55144  55151M 55226M 55259  55290M 55329M 55355  55386M 55424M 55450  55481M 55519M 55545
             55576M 55614M 55638  55708M 55785M 55809  55879M 55956M 55982  56057  56142  56246M 56246  56258M 56284
             56317M 56343  56374M 56412M 56438  56469M 56507M 56581  56697M 56698  56699  56749  56780M 56781  56820M
             56824  56835M 56835  56844  56845  56910M 57008M 57045M 57085M 57109M 57143M 57171M 57211M 57235M 57244M
             57244  57310M 57397M 57442M 57442  57451M 57472M 57511M 57532M 57575M 57596M 57659  57660  57735M 57848
             57894M 57914  57960M 57980  58026M 58046  58092M 58112  58158M 58178  58219M 58392  58580  58636  58657
             58697  58739  59233M 59260  59300M 59300  59384M 59532  59604M 59637M 59691  59740  59743M 59769M 59814
             59920M 59941M 59941  60193M
     1(1)      978U  2329   2392M  2393M  2399M  8285   8318   8323M  8326M  8329   8348M  8387   8415   8420M  8442
              8469M  8503   8518M  8565   8614M  8636M  8660M  8702M  8724M  8748M  8804   8852   8900   8948   8996
              9076M  9097M  9097N  9135M  9168   9320M  9387   9479M  9498M  9519M  9541M  9565M  9595M 10403  10433M
             10463M 10489  10548N 10554N 10577N 10840M 10866  10909N 10970M 11023  11098N 11103N 11118M 11139M 11162M
             11200M 11264M 11290M 11325M 11368M 11374  11391  11436  11497M 11503  11520  11565  11592M 11759M 11793
             11845N 11846M 11903  11957M 11984  12036N 12038N 12080M 12081  12113M 12140  12192N 12194N 12236M 12237
             12269M 12296  12348N 12350N 12487M 12514  12566N 12568N 12610M 12611  12643M 12731  12806N 12812N 12913N
             12936M 13034M 13034  13035M 13036M 13089M 13138  13192N 13214M 13243M 13243  13272M 13398M 13457  13531N
             13536N 13541N 13607M 13754M 13758M 13767M 13767  13774  13907M 13909  14021M 14047  14077M 14116M 14142
             14198N 14204N 14359M 14385  14415M 14454M 14480  14510M 14549M 14575  14605M 14644M 14693  14756  14798M
             14799M 14858M 14982M 15008  15038M 15077M 15103  15133M 15172M 15221  15287N 15339M 15378M 15523M 15576
             15639  15708M 15757M 15858M 15874M 16113M 16167  16230  16279M 16341M 16413M 16468M 16478M 16528M 16610M
             16659  16721N 16759M 16791M 16832M 16950M 16991M 17064M 17109M 17199  17302M 17309  17347M 17360N 17361N
             17363N 17440M 17459M 17590M 17672M 17741M 17795  17836M 17863  17966M 17973  18011M 18024N 18025N 18027N
             18124M 18159M 18194M 18214M 18346M 18428M 18499M 18553  18594M 18653  18733M 18740  18788M 18801N 18802N
             18804N 19033M 19102M 19156  19197M 19250  19331M 19338  19379M 19392N 19393N 19395N 19485M 19520M 19540M
             19672M 19741M 19795  19836M 19927  20017M 20024  20072M 20085N 20086N 20088N 20202M 20208M 20212M 20221M
             20221  20228  20253M 20461M 20598M 20698M 20772M 20797  20856  20909M 20963  21004M 21068  21128  21154M
             21161  21215M 21228N 21229N 21231N 21363M 21370  21386M 21399N 21400N 21402N 21468M 21518M 21545M 21587M
             21643M 21685M 21694M 21821M 21895M 21996  22042M 22062  22108M 22129  22170M 22247  22277M 22316M 22342
             22372M 22411M 22438  22490N 22491M 22548  22602M 22651  22714  22756M 22757M 22816M 22940M 22970  23032N
             23035N 23054M 23054  23073M 23074N 23081M 23108M 23127M 23127N 23137M 23170  23207M 23258  23323N 23372N
             23425N 23567M 23610  23613M 23658  23661M 23717  23720M 23758  23761M 23783  23786M 23805  23806M 23807
             23919M 24000  24054N 24076M 24105M 24105  24134M 24260M 24285  24339N 24361M 24390M 24390  24417M 24545M
             24570  24624N 24646M 24670M 24814M 24839  24893N 24909M 25024M 25075  25129N 25177D 25179M 25179  25180M
             25181U 25182M 25183M 25184  25187D 25189M 25189  25190M 25191U 25192M 25193M 25194  25197D 25199M 25199
             25200M 25201U 25202M 25203M 25204  25224D 25226M 25226  25227M 25228U 25229M 25230M 25231  25234D 25236M
             25236  25237M 25238U 25239M 25240M 25241  25255D 25257M 25257  25258M 25259U 25260M 25261M 25262  25265D
             25267M 25267  25268M 25269U 25270M 25271M 25272  25275D 25277M 25277  25278M 25279U 25280M 25281M 25282
             25285D 25287M 25287  25288M 25289U 25290M 25291M 25292  25295D 25297M 25297  25298M 25299U 25300M 25301M
             25302  25305D 25307M 25307  25308M 25309U 25310M 25311M 25312  25315D 25317M 25317  25318M 25319U 25320M
             25321M 25322  25327M 25328M 25329  25329  25330  25331  25333  25349  25365M 25396M 25397M 25398  25398
1         (FUNC2193) (12:45) (15MAR04) General Purpose Register Cross Reference                                             Page  365
             25399  25400  25402  25414  25420  25436M 25464  25485M 25485  25510M 25510  25535M 25535  25654M 25747
             25821  25861M 25893M 25983M 25990  25998M 26011N 26012N 26014N 26077M 26208M 26266M 26395M 26495  26536M
             26556  26603M 26623  26664M 26684  26730M 26750  26804M 26844M 26898  26955N 26977M 27009M 27096M 27246M
             27311  27448M 27502  27528M 27558  27593M 27600  27608M 27621N 27622N 27624N 27686M 27726  27728M 27755M
             27758M 27832M 27939M 28018M 28067M 28116M 28304  28350M 28370  28416M 28436  28482M 28502  28548M 28568
             28615M 28635  28681M 28701  28748M 28768  28814M 28834  28880M 28900  28942M 28962  29003M 29039  29091N
             29094N 29104M 29151M 29178  29217M 29217N 29239M 29252M 29285  29317M 29446  29629M 29683  29709M 29714
             29749M 29756  29764M 29777N 29778N 29780N 29842M 29881  29883M 29910M 29913M 30030M 30109M 30158M 30273M
             30686  30736M 30756  30809M 30829  30875M 30895  30941M 30961  31007M 31027  31074M 31094  31140M 31160
             31206M 31226  31273M 31293  31340M 31360  31406M 31426  31473M 31493  31539M 31559  31605M 31625  31672M
             31692  31739M 31759  31805M 31825  31871M 31891  31937M 31957  32003M 32023  32069M 32089  32131M 32151
             32192M 32212  32258M 32278  32344M 32364  32405M 32438  32468M 32507M 32535  32590N 32631M 32632  32668M
             32694  32724M 32763M 32789  32845N 32852N 32922N 32945M 33075M 33150  33209N 33245M 33301N 33345M 33447M
             33476  33552N 33560N 33569M 33632M 33702M 33728  33787N 33823M 33876N 33912M 33964M 34024N 34064M 34078M
             34097M 34117M 34125  34150M 34260M 34289  34343N 34369N 34377N 34386M 34450M 34520M 34581  34636N 34677M
             34678  34710M 34738  34794N 34813N 34880M 34928M 34929  34990M 34991  35029M 35057  35130N 35196M 35244M
             35245  35283M 35313  35392M 35422N 35467M 35512M 35618M 35694M 35722  35778N 35797N 35864M 35912M 35913
             35974M 35975  36013M 36070  36126N 36145N 36212M 36260M 36261  36322M 36323  36361M 36389  36445N 36464N
             36531M 36579M 36580  36641M 36642  36680M 36708  36764N 36783N 36850M 36898M 36899  36960M 36961  36999M
             37025  37077N 37078M 37135  37189M 37215  37245M 37284M 37344  37428N 37574M 37598M 37651N 37652N 37713N
             37714N 37826M 38043M 38069  38142N 38209M 38235  38308N 38375M 38403  38458N 38499M 38500  38536M 38566
             38618N 38621  38623M 38631M 38709N 38822M 38823  38855M 38904  38959N 38982M 39014M 39035M 39067M 39087M
             39126  39167M 39201  39253N 39254M 39311  39365M 39435  39479N 39501M 39543M 39544  39582M 39606  39650N
             39672M 39714M 39715  39753M 39779  39809M 39848M 39898  39950N 39951M 40008  40062M 40088  40118M 40157M
             40183  40226N 40352M 40399  40468N 40472N 40473M 40538M 40568  40574M 40574  40675M 40715M 40783  40857N
             40947M 41066M 41093  41155  41289M 41411M 41490M 41532M 41533  41576M 41603  41664  41782M 41874M 41894M
             42017M 42044  42105  42207M 42304M 42476M 42503  42564  42666M 42778M 42852M 42879  42940  43042M 43139M
             43311M 43338  43399  43501M 43598M 43770M 43797  43887N 43899M 43906  43914M 43927N 43928N 43930N 44036M
             44115M 44116  44180M 44181  44223M 44277  44323M 44343  44384M 44418  44479  44581M 44678M 44850M 44877
             44938  45040M 45131M 45158M 45182M 45214M 45234M 45357M 45384  45445  45563M 45637M 45671M 45691M 45814M
             45847  45902M 45902  45923M 45930  45945M 46032  46088N 46188M 46236  46311N 46317N 46414N 46437M 46533M
             46533  46534M 46535M 46583M 46643  46727N 46873M 46897M 46950N 46951N 47016N 47017N 47033M 47035M 47071M
             47135M 47352M 47380  47448N 47459M 47467  47475M 47488N 47489N 47490N 47521M 47521  47533M 47656M 47684
             47745N 47756M 47764  47772M 47785N 47786N 47787N 47821M 47948M 47975  48023N 48068M 48137M 48167  48219N
             48222  48224M 48233M 48306N 48395M 48464M 48512  48567N 48599M 48665M 48701M 48701N 48847M 48869M 48936M
             49013M 49046  49076M 49115M 49144  49196N 49237M 49238  49270M 49296  49326M 49365M 49392  49435N 49457M
             49580M 49641  49745N 49768M 49991M 50009M 50069N 50092M 50153N 50154M 50210M 50240  50408M 50439  50491N
             50494N 50562N 50743M 50769  50799M 50839M 50883  50936N 50959M 51034M 51183M 51299  51352N 51375M 51450M
             51488M 51522M 51522  51640M 51710  51762N 51764N 51777M 51884M 51911  51978N 52048N 52082N 52112N 52244D
             52246M 52246  52247M 52248U 52253M 52253N 52406M 52434  52464M 52503M 52529  52581N 52582M 52639  52693M
             52766  52828N 52911M 52912  52922M 53007M 53008  53044M 53094  53143  53145M 53172M 53195N 53217M 53256M
             53257  53381M 53382  53511M 53608M 53638  53700N 53703N 53716M 53716  53735M 53736N 53743M 53770M 53789M
             53789N 53799M 53832  53869M 53896  53959N 53962N 53993M 54046M 54081M 54202M 54229  54292N 54295N 54326M
             54379M 54414M 54455M 54536M 54564  54619N 54660M 54661  54693M 54719  54762N 54784M 54825M 54826  54864M
             54960  55022N 55045M 55077M 55098M 55130M 55150M 55189  55226M 55259  55289M 55329M 55355  55385M 55424M
             55450  55480M 55519M 55545  55575M 55614M 55638  55682N 55704M 55746M 55747  55785M 55809  55853N 55875M
             55917M 55918  55956M 55982  56063N 56148N 56247M 56255M 56317M 56343  56373M 56412M 56438  56468M 56507M
             56581  56696M 56750  56776M 56781  56816M 56823  56831M 56844N 56845N 56847N 56909M 57007M 57044M 57084M
             57108M 57143M 57170M 57210M 57234M 57309M 57396M 57450M 57471M 57510M 57531M 57574M 57595M 57735M 57848
             57894M 57914  57960M 57980  58026M 58046  58092M 58112  58158M 58178  58219M 58392  58467N 58586N 58642N
             58663N 58703N 58745N 58789N 59190M 59191  59233M 59260  59316M 59385M 59411  59418M 59546  59604M 59637M
             59691  59740  59742M 59769M 59837N 59907N 59916M 59942M 59943  60137M 60138  60193M
     2(2)      974U  2329   8285   8325M  8326   8327M  8348M  8387   8421M  8518M  8565   8591   8804M  8852M  8900M
              8948M  8996M  9112M  9135M  9168   9203M  9206M  9225M  9228M  9247M  9249   9265   9292   9320M  9387
              9498   9595M 10403  10463M 10489  10516M 10549M 10615M 10700M 10840M 10866  10893M 10970M 11023  11071M
             11099M 11100  11104M 11105  11117M 11220M 11612M 11759M 11793  11820M 11847M 11877  11886M 11886  11894M
             11896  11913  11957M 11984  12011M 12037M 12047M 12080  12082M 12113M 12140  12167M 12193M 12203M 12236
             12238M 12269M 12296  12323M 12349M 12359M 12360  12487M 12514  12541M 12567M 12577M 12610  12612M 12643M
             12731  12777M 12807M 12850M 12880M 12956M 13042M 13089M 13138  13176M 13398M 13457  13494M 13532M 13534
1         (FUNC2193) (12:45) (15MAR04) General Purpose Register Cross Reference                                             Page  366
             13537M 13539  13542M 13544  13553M 13554M 13554N 13555  13558M 13721  13793M 13836M 13864  13873M 14021M
             14047  14097M 14116M 14142  14169M 14199M 14246M 14308  14311M 14314M 14359M 14385  14435M 14454M 14480
             14530M 14549M 14575  14625M 14644M 14693  14739M 14806M 14806  14838M 14982M 15008  15058M 15077M 15103
             15153M 15172M 15221  15260M 15288M 15523M 15576  15642M 15669M 15672  15684M 15691M 15693  15710  16113M
             16167  16233M 16299M 16610M 16659  16705M 16779M 16792M 16832  16918M 16939M 16951M 16991  17109M 17199
             17232M 17741M 17795  17836M 17863  17896M 18499M 18553  18594M 18653  18686M 18941M 18942  18943  19102M
             19156  19197M 19250  19283M 19741M 19795  19836M 19927  19970M 20166M 20169M 20269M 20269  20369M 20370
             20409M 20419U 20444M 20444  20456U 20474  20482M 20488M 20491  20503M 20511M 20520M 20520  20527  20548M
             20603  20772M 20797  20856  20879M 20880  20909M 20963  21004M 21068  21111M 21127M 21329  21436M 21895M
             21996  22042M 22062  22108M 22129  22170M 22247  22297M 22316M 22342  22392M 22411M 22438  22465M 22492M
             22522  22531M 22531  22539M 22541  22558  22602M 22651  22697M 22764M 22764  22796M 22940M 22970  23007M
             23033M 23081  23082  23108M 23171M 23207M 23258  23296M 23324M 23373M 23374  23388  23401  23413M 23426M
             23427  23441  23454  23466M 23562M 23563  23568M 23636M 23637M 23658  23664M 23723M 23758  23764M 23805M
             23807M 23849  23919M 24000  24038M 24260M 24285  24323M 24545M 24570  24608M 24814M 24839  24877M 25024M
             25075  25113M 25143M 25173  25180  25190  25200  25227  25237  25251  25258  25268  25278  25288  25298
             25308  25318  25654M 25747  25802M 25961M 26199M 26395M 26495  26536M 26556  26603M 26623  26664M 26684
             26730M 26750  26824M 26844M 26898  26936M 27077M 27087M 27246M 27311  27395M 27501M 27573  27706M 27975M
             27985U 28009U 28074M 28116M 28304  28350M 28370  28416M 28436  28482M 28502  28548M 28568  28615M 28635
             28681M 28701  28748M 28768  28814M 28834  28880M 28900  28942M 28962  29003M 29039  29066M 29092M 29104
             29148  29151  29239  29252  29286M 29317M 29446  29576M 29682M 29729  29862M 30066M 30076U 30100U 30165M
             30273M 30686  30736M 30756  30809M 30829  30875M 30895  30941M 30961  31007M 31027  31074M 31094  31140M
             31160  31206M 31226  31273M 31293  31340M 31360  31406M 31426  31473M 31493  31539M 31559  31605M 31625
             31672M 31692  31739M 31759  31805M 31825  31871M 31891  31937M 31957  32003M 32023  32069M 32089  32131M
             32151  32192M 32212  32258M 32278  32344M 32364  32405M 32438  32488M 32507M 32535  32562M 32633M 32668M
             32694  32744M 32763M 32789  32816M 32846M 32890M 32965M 33038M 33075M 33150  33177M 33265M 33283M 33283
             33302M 33447M 33476  33503M 33702M 33728  33755M 33843M 33932M 33984M 34006M 34006  34025M 34040  34071M
             34127  34260M 34289  34316M 34344M 34520M 34581  34608M 34679M 34710M 34738  34767M 34795M 34835M 34879
             34930M 34992M 35029M 35057  35086M 35152M 35246M 35283M 35313  35340M 35368M 35368  35382  35694M 35722
             35751M 35779M 35819M 35863  35914M 35976M 36013M 36070  36099M 36127M 36167M 36211  36262M 36324M 36361M
             36389  36418M 36446M 36486M 36530  36581M 36643M 36680M 36708  36737M 36765M 36805M 36849  36900M 36962M
             36999M 37025  37052M 37079M 37109  37118M 37118  37126M 37128  37145  37189M 37215  37265M 37284M 37344
             37389M 37443M 37454M 37454  37618M 37633M 37651M 37700M 38043M 38069  38096M 38209M 38235  38262M 38375M
             38403  38430M 38501M 38536M 38566  38593M 38619M 38623  38652M 38747M 38763M 38763N 38783M 38822  38824M
             38855M 38904  38943M 39002M 39015M 39055M 39127M 39167M 39201  39228M 39255M 39285  39294M 39294  39302M
             39304  39321  39365M 39435  39463M 39545M 39582M 39606  39634M 39716M 39753M 39779  39829M 39848M 39898
             39925M 39952M 39982  39991M 39991  39999M 40001  40018  40062M 40088  40138M 40157M 40183  40210M 40352M
             40399  40437M 40470M 40548M 40548  40567M 40680  40681M 40715M 40783  40828M 40879M 41066M 41093  41138M
             41194M 41309M 41431M 41494M 41494  41534M 41576M 41603  41648M 41700M 41802M 41855M 42017M 42044  42089M
             42141M 42227M 42279M 42476M 42503  42548M 42600M 42686M 42742M 42852M 42879  42924M 42976M 43062M 43114M
             43311M 43338  43383M 43435M 43521M 43573M 43770M 43797  43858M 44038M 44117M 44182M 44223M 44277  44323M
             44343  44384M 44418  44463M 44515M 44601M 44653M 44850M 44877  44922M 44974M 45060M 45149M 45357M 45384
             45429M 45481M 45583M 45635M 45814M 45847  45874M 45945M 46032  46059M 46089M 46124M 46126M 46148M 46188M
             46236  46282M 46312M 46355M 46384M 46457M 46538M 46583M 46643  46688M 46742M 46753M 46753  46917M 46932M
             46950M 47115M 47116M 47352M 47380  47423M 47449M 47459  47656M 47684  47727M 47746M 47756  47821  47948M
             47975  48002M 48024M 48068  48137M 48167  48194M 48220M 48224  48254M 48344M 48395  48464M 48512  48551M
             48619M 48631M 48653M 48812M 48834M 48848M 48889M 48936  49013M 49046  49096M 49115M 49144  49171M 49239M
             49270M 49296  49346M 49365M 49392  49419M 49580M 49641  49696M 49788M 50029M 50112M 50408M 50439  50466M
             50492M 50532M 50657M 50669M 50716M 50743M 50769  50819M 50839M 50883  50920M 51183M 51299  51336M 51456M
             51484U 51500U 51640M 51710  51737M 51763M 51776  51884M 51911  51948M 51979M 51981  52028M 52028  52049M
             52055  52062M 52062  52083M 52089  52154M 52177M 52235M 52294M 52298M 52300M 52358M 52406M 52434  52484M
             52503M 52529  52556M 52583M 52613  52622M 52622  52630M 52632  52649  52693M 52766  52803M 52829M 52947M
             52947  52998M 53044M 53094  53177M 53222M 53257M 53382M 53608M 53638  53675M 53701M 53743  53744  53770M
             53833M 53869M 53896  53934M 53960M 54013M 54066M 54080  54082M 54202M 54229  54267M 54293M 54346M 54399M
             54413  54415M 54455  54536M 54564  54591M 54662M 54693M 54719  54746M 54827M 54864M 54960  55006M 55065M
             55078M 55118M 55190M 55226M 55259  55309M 55329M 55355  55405M 55424M 55450  55500M 55519M 55545  55595M
             55614M 55638  55666M 55748M 55785M 55809  55837M 55919M 55956M 55982  56009M 56041M 56041  56105M 56119D
             56121M 56121  56122M 56123U 56190M 56254  56268  56277M 56278M 56317M 56343  56393M 56412M 56438  56488M
             56507M 56581  56643M 56749M 56796  56929M 57027M 57326M 57336U 57355U 57735M 57848  57894M 57914  57960M
             57980  58026M 58046  58092M 58112  58158M 58178  58219M 58392  58437M 58522M 58555M 58790M 58804  58886M
1         (FUNC2193) (12:45) (15MAR04) General Purpose Register Cross Reference                                             Page  367
             58899  58906  58957M 58960M 59028M 59028  59047M 59087  59107  59137M 59192M 59233M 59260  59310U 59315M
             59316  59367U 59383  59386M 59423M 59582M 59604M 59637M 59691  59774M 59882M 59921M 59943M 60139M 60193M
     3(3)      970U  2329   8285   8328M  8348M  8387   8518M  8565   8593M  8594M  8604   8681M  8682M  8692   9135M
              9168   9204M  9206M  9226M  9228M  9248M  9249M  9250M  9265   9285M  9291M  9291N  9292M  9293   9320M
              9387   9595M 10403  10463M 10489  10550M 10699M 10700M 10840M 10866  10970M 11023  11101M 11102  11106M
             11107  11119M 11122M 11124  11140M 11143M 11145  11374M 11375M 11377M 11391  11426M 11434M 11435  11503M
             11504M 11506M 11520  11555M 11563M 11564  11685M 11699M 11701  11759M 11793  11957M 11984  12039M 12047
             12113M 12140  12195M 12203  12269M 12296  12351M 12359  12360  12487M 12514  12569M 12577  12643M 12731
             12808M 12872  12878M 12879M 12880N 12881M 12888  13041M 13042M 13089M 13138  13325M 13339M 13341  13398M
             13457  13533M 13535  13538M 13540  13543M 13545  13559M 13649M 13663M 13665  13950M 13964M 13966  14021M
             14047  14116M 14142  14200M 14207  14308  14310  14311M 14314M 14316  14359M 14385  14454M 14480  14549M
             14575  14644M 14693  14808M 14808  14842M 14909M 14923M 14925  14982M 15008  15077M 15103  15172M 15221
             15289M 15315  15329  15342M 15344  15360  15523M 15576  16113M 16167  16416M 16430M 16432  16531M 16545M
             16547  16610M 16659  16838M 16852M 16854  16997M 17011M 17013  17109M 17199  17505M 17519M 17521  17593M
             17607M 17609  17675M 17689M 17691  17741M 17795  17836M 17863  18261M 18275M 18277  18349M 18363M 18365
             18431M 18445M 18447  18499M 18553  18594M 18653  19036M 19050M 19052  19102M 19156  19197M 19250  19587M
             19601M 19603  19675M 19689M 19691  19741M 19795  19836M 19927  20147M 20158U 20164  20166  20167M 20169M
             20172M 20605M 20619M 20621  20701M 20715M 20717  20772M 20797  20856  20909M 20963  21004M 21068  21128M
             21352N 21736M 21750M 21752  21824M 21838M 21840  21895M 21996  22042M 22062  22108M 22129  22170M 22247
             22316M 22342  22411M 22438  22602M 22651  22766M 22766  22800M 22867M 22881M 22883  22940M 22970  23034M
             23091M 23091  23099M 23101  23207M 23258  23329M 23330  23334M 23343M 23343  23350  23487M 23503  23524M
             23539  23545  23558  23561  23569M 23588M 23604  23615M 23630  23637  23652M 23652  23666M 23675M 23737
             23752  23767M 23789M 23851M 23865M 23867  23919M 24000  24187M 24201M 24203  24260M 24285  24472M 24486M
             24488  24545M 24570  24741M 24755M 24757  24814M 24839  24951M 24965M 24967  25024M 25075  25144M 25156
             25216  25347M 25418M 25581M 25595M 25597  25654M 25747  25783M 25791U 26123M 26137M 26139  26312M 26326M
             26328  26395M 26495  26536M 26556  26603M 26623  26664M 26684  26730M 26750  26844M 26855U 26898  27168M
             27182M 27184  27246M 27311  27451M 27465M 27467  27502M 27519N 27582N 27885M 27899M 27901  28116M 28304
             28350M 28370  28416M 28436  28482M 28502  28548M 28568  28615M 28635  28681M 28701  28748M 28768  28814M
             28834  28880M 28900  28942M 28962  29003M 29039  29093M 29116M 29116  29142  29148M 29149M 29178  29317M
             29446  29632M 29646M 29648  29683M 29700N 29738N 29976M 29990M 29992  30273M 30686  30736M 30756  30809M
             30829  30875M 30895  30941M 30961  31007M 31027  31074M 31094  31140M 31160  31206M 31226  31273M 31293
             31340M 31360  31406M 31426  31473M 31493  31539M 31559  31605M 31625  31672M 31692  31739M 31759  31805M
             31825  31871M 31891  31937M 31957  32003M 32023  32069M 32089  32131M 32151  32192M 32212  32258M 32278
             32344M 32364  32405M 32438  32507M 32535  32591M 32631  32668M 32694  32763M 32789  32847M 32848M 32996M
             33038M 33075M 33150  33447M 33476  33534M 33534  33553M 33635M 33649M 33651  33702M 33728  33788M 33799M
             33799  33813  33858  33954  34077  34192M 34206M 34208  34260M 34289  34351M 34351  34370M 34453M 34467M
             34469  34520M 34581  34637M 34677  34710M 34738  34814M 34823M 34823  34865M 34865  34880  35029M 35057
             35131M 35140M 35140  35182M 35182  35196  35283M 35313  35515M 35529M 35531  35627M 35641M 35643  35694M
             35722  35798M 35807M 35807  35849M 35849  35864  36013M 36070  36146M 36155M 36155  36197M 36197  36212
             36361M 36389  36465M 36474M 36474  36516M 36516  36531  36680M 36708  36784M 36793M 36793  36835M 36835
             36850  36999M 37025  37189M 37215  37284M 37344  37442M 37574  37631M 37652M 37680M 37680  37702M 37802
             38043M 38069  38209M 38235  38375M 38403  38459M 38499  38536M 38566  38687M 38710M 38721M 38721  38735
             38777  38784M 38784N 38855M 38904  39167M 39201  39365M 39435  39582M 39606  39753M 39779  39848M 39898
             40062M 40088  40157M 40183  40285M 40299M 40301  40352M 40399  40469M 40550M 40550  40568M 40622M 40636M
             40638  40675  40715M 40783  40858M 40867M 40867  40901M 40901  40908M 40908  40916  40939  40994M 41008M
             41010  41066M 41093  41576M 41603  41945M 41959M 41961  42017M 42044  42399M 42413M 42415  42476M 42503
             42852M 42879  43234M 43248M 43250  43311M 43338  43693M 43707M 43709  43770M 43797  44014M 44015M 44017
             44078M 44078  44115  44147M 44147  44180  44223M 44277  44323M 44343  44384M 44418  44773M 44787M 44789
             44850M 44877  45285M 45299M 45301  45357M 45384  45742M 45756M 45758  45814M 45847  45945M 46032  46090M
             46122  46124  46139M 46139  46150M 46188M 46236  46313M 46377  46383M 46384N 46385M 46392  46537  46538M
             46583M 46643  46741M 46873  46930M 46951M 46967N 46982M 46982  47003M 47109  47115  47352M 47380  47450M
             47464  47579M 47593M 47595  47656M 47684  47747M 47761  47826  47871M 47885M 47887  47948M 47975  48025M
             48073  48075M 48089M 48091  48137M 48167  48284M 48307M 48318M 48318  48332  48400  48402M 48416M 48418
             48464M 48512  48749M 48763M 48765  48942M 48956M 48958  49013M 49046  49115M 49144  49197M 49237  49270M
             49296  49365M 49392  49512M 49526M 49528  49580M 49641  49829M 50240M 50241M 50243M 50282M 50335M 50349M
             50351  50408M 50439  50493M 50592  50670M 50679M 50679  50686M 50686  50691M 50716M 50743M 50769  50839M
             50883  51183M 51299  51567M 51581M 51583  51640M 51710  51765M 51777  51822M 51836M 51838  51884M 51911
             51980M 51981  52030M 52030  52050M 52055  52064M 52064  52084M 52089  52177M 52202M 52202  52237M 52294M
             52295  52297  52298M 52301M 52312M 52312  52318  52359M 52406M 52434  52503M 52529  52693M 52766  52830M
1         (FUNC2193) (12:45) (15MAR04) General Purpose Register Cross Reference                                             Page  368
             52860  52872M 52872  52904  52949M 52951M 52995M 53044M 53094  53518M 53532M 53534  53608M 53638  53702M
             53753M 53753  53761M 53763  53869M 53896  53961M 53983  54130M 54144M 54146  54202M 54229  54294M 54316
             54464M 54478M 54480  54536M 54564  54620M 54660  54693M 54719  54864M 54960  55226M 55259  55329M 55355
             55424M 55450  55519M 55545  55614M 55638  55785M 55809  55956M 55982  56042M 56204D 56206M 56206  56207M
             56208U 56268  56317M 56343  56412M 56438  56507M 56581  56699M 56713M 56715  56750M 56767N 56805N 57660M
             57674M 57676  57735M 57848  57894M 57914  57960M 57980  58026M 58046  58092M 58112  58158M 58178  58219M
             58392  58499M 58500  58587M 58598M 58598  58612  58619  58643M 58644  58664M 58673M 58673  58680  58704M
             58706M 58715M 58715  58722  58746M 58755M 58755  58762  58791M 58792  58795M 58797  58829  58905M 58906M
             58907M 58938  58957  58972M 58985  59011M 59023M 59023  59120M 59120  59138M 59157M 59157  59190  59233M
             59260  59333M 59338  59387M 59411  59418  59424M 59436  59443M 59456M 59456  59466M 59466  59489M 59491
             59508M 59558  59604M 59637M 59691  59821M 59838M 59856  59870  60030  60053  60076  60193M
     4(4)      966U  2329   8285   8329M  8348M  8387   8414M  8518M  8565   8770M  8782   9096M  9096N  9112   9135M
              9168   9206M  9228M  9320M  9387   9595M 10403  10463M 10489  10578M 10589M 10589  10603  10636  10840M
             10866  10970M 11023  11059M 11067U 11264  11759M 11770U 11793  11911M 11920  11957M 11984  12113M 12140
             12269M 12296  12487M 12514  12643M 12731  12813M 12824M 12824  12838  12872  12878  12881  12887  12891M
             12892  13089M 13138  13398M 13457  13560M 14021M 14047  14116M 14142  14205M 14208  14209M 14220M 14220
             14234  14288  14301M 14301  14316M 14359M 14385  14454M 14480  14549M 14575  14644M 14693  14777M 14790
             14863  14982M 15008  15077M 15103  15172M 15221  15523M 15576  15613M 15623U 15874  16095U 16113M 16167
             16204M 16214U 16592U 16610M 16659  17109M 17199  17741M 17795  17836M 17863  18499M 18553  18594M 18653
             18840M 18848U 19102M 19156  19197M 19250  19741M 19795  19836M 19927  20124M 20164  20169M 20172M 20263U
             20387D 20389M 20389  20390M 20391U 20400M 20400  20465M 20467  20772M 20797  20856  20909M 20963  21004M
             21068  21267M 21275U 21895M 21996  22042M 22062  22108M 22129  22170M 22182U 22247  22316M 22342  22411M
             22438  22556M 22565  22602M 22651  22735M 22748  22821  22940M 22970  23036M 23038  23067  23073N 23075M
             23075N 23082M 23137  23207M 23258  23488M 23489M 23503  23539  23548M 23557  23561M 23563M 23588  23604
             23630  23636  23919M 24000  24260M 24285  24545M 24570  24814M 24839  25024M 25075  25347M 25418M 25654M
             25747  25821M 25852N 25972N 26395M 26495  26536M 26556  26603M 26623  26664M 26684  26730M 26750  26844M
             26898  27246M 27311  27347M 27355U 28116M 28304  28350M 28370  28416M 28436  28482M 28502  28548M 28568
             28615M 28635  28681M 28701  28748M 28768  28814M 28834  28880M 28900  28942M 28962  29003M 29014U 29039
             29095M 29317M 29446  29482M 29490U 30273M 30686  30736M 30756  30809M 30829  30875M 30895  30941M 30961
             31007M 31027  31074M 31094  31140M 31160  31206M 31226  31273M 31293  31340M 31360  31406M 31426  31473M
             31493  31539M 31559  31605M 31625  31672M 31692  31739M 31759  31805M 31825  31871M 31891  31937M 31957
             32003M 32023  32069M 32089  32131M 32151  32192M 32212  32258M 32278  32344M 32364  32405M 32416U 32438
             32507M 32535  32668M 32694  32763M 32789  32853M 32864M 32864  32878  33035  33037  33075M 33150  33447M
             33476  33702M 33728  33858M 33877M 33888M 33888  33902  33954  34078  34260M 34289  34520M 34581  34710M
             34738  35029M 35057  35283M 35313  35694M 35722  36013M 36070  36361M 36389  36680M 36708  36999M 37025
             37143M 37152  37189M 37215  37284M 37344  37713M 37762M 38043M 38069  38209M 38235  38375M 38403  38536M
             38566  38855M 38904  39167M 39201  39319M 39328  39365M 39435  39582M 39606  39753M 39779  39848M 39898
             40016M 40025  40062M 40088  40157M 40183  40352M 40399  40489M 40715M 40783  41066M 41093  41155M 41172N
             41266N 41388N 41576M 41603  41664M 41678N 41759N 42017M 42044  42105M 42119N 42184N 42476M 42503  42564M
             42578N 42643N 42852M 42879  42940M 42954N 43019N 43311M 43338  43399M 43413N 43478N 43770M 43797  43833M
             43841U 44223M 44277  44323M 44343  44384M 44395U 44418  44479M 44493N 44558N 44850M 44877  44938M 44952N
             45017N 45148N 45357M 45384  45445M 45459N 45540N 45814M 45847  45945M 46032  46128M 46146M 46188M 46236
             46318M 46329M 46329  46343  46377  46383  46385  46391  46540  46583M 46643  46967M 46969M 47005M 47016M
             47352M 47380  47656M 47684  47948M 47975  48137M 48167  48464M 48512  49013M 49046  49115M 49144  49270M
             49296  49365M 49392  49580M 49641  50408M 50439  50495M 50506M 50506  50520  50544M 50593  50669  50670
             50714M 50716M 50743M 50769  50839M 50883  51183M 51299  51640M 51710  51884M 51911  52002M 52115M 52116M
             52116  52142  52406M 52434  52503M 52529  52647M 52656  52693M 52766  52861M 53001M 53008M 53009  53044M
             53094  53608M 53638  53704M 53706  53729  53735N 53737M 53737N 53744M 53799  53869M 53896  53963M 54082
             54202M 54229  54296M 54414  54536M 54564  54693M 54719  54864M 54960  55226M 55259  55329M 55355  55424M
             55450  55519M 55545  55614M 55638  55785M 55809  55956M 55982  56066M 56067M 56067  56093  56151M 56152M
             56152  56178  56317M 56343  56412M 56438  56507M 56581  56617M 56625U 57735M 57848  57894M 57914  57960M
             57980  58026M 58046  58092M 58112  58158M 58178  58219M 58230U 58392  58827M 58836  58887M 58899  58905
             58938M 58940M 58973M 58985  59024M 59037M 59037  59054M 59068  59138  59145M 59233M 59260  59333  59486M
             59498  59532M 59579M 59637M 59691  59905M 60003M 60003  60037M 60060M 60083M 60137  60193M
     5(5)      962U  2329   8285   8348M  8387   8415M  8421   8518M  8565   8591M  8593N  8681N  8769M  8769N  9095M
              9095N  9135M  9168   9205M  9205   9206M  9227M  9228M  9320M  9387   9595M 10403  10463M 10489  10541U
             10548M 10554M 10577M 10821U 10840M 10866  10909M 10940  10970M 11023  11096U 11098M 11103M 11113U 11759M
             11793  11843U 11845M 11853U 11957M 11984  12034U 12036M 12038M 12045U 12113M 12140  12190U 12192M 12194M
             12201U 12269M 12296  12346U 12348M 12350M 12357U 12487M 12514  12564U 12566M 12568M 12575U 12643M 12731
1         (FUNC2193) (12:45) (15MAR04) General Purpose Register Cross Reference                                             Page  369
             12802U 12806M 12812M 12913M 13065U 13089M 13138  13192M 13202U 13374U 13398M 13457  13517U 13531M 13536M
             13541M 13551U 13561M 13794M 13806  13813M 13839M 13876M 13895  13902M 13908  14021M 14047  14116M 14142
             14194U 14198M 14204M 14340U 14359M 14385  14454M 14480  14549M 14575  14644M 14693  14767U 14774M 14775M
             14828M 14829M 14958U 14982M 15008  15077M 15103  15172M 15221  15285U 15287M 15295U 15523M 15576  15658U
             15665M 15666M 15746M 15747M 16090U 16113M 16167  16249U 16256M 16257M 16330M 16331M 16587U 16610M 16659
             16702U 16721M 16918  16939  17109M 17120U 17199  17286U 17291M 17321U 17741M 17795  17836M 17863  17950U
             17955M 17985U 18499M 18553  18594M 18653  18717U 18722M 18752U 19102M 19156  19197M 19250  19315U 19320M
             19350U 19741M 19795  19836M 19927  20001U 20006M 20036U 20164  20168M 20168  20169M 20172M 20459M 20461
             20462  20474  20482  20772M 20797  20856  20909M 20963  21004M 21068  21138U 21143M 21173U 21347U 21352M
             21382U 21895M 21996  22042M 22062  22108M 22129  22170M 22247  22316M 22342  22411M 22438  22488U 22490M
             22498U 22602M 22651  22725U 22732M 22733M 22786M 22787M 22916U 22940M 22970  23030U 23032M 23035M 23037M
             23038M 23044U 23067  23207M 23258  23319U 23323M 23372M 23425M 23483U 23557M 23558M 23560M 23694  23752
             23919M 24000  24054M 24064U 24236U 24260M 24285  24339M 24349U 24521U 24545M 24570  24624M 24634U 24790U
             24814M 24839  24893M 24903U 25000U 25024M 25075  25129M 25139U 25630U 25654M 25747  25831U 25852M 25972M
             26370U 26395M 26495  26536M 26556  26603M 26623  26664M 26684  26730M 26750  26844M 26898  26955M 26965U
             27222U 27246M 27311  27512U 27519M 27582M 28098U 28116M 28304  28350M 28370  28416M 28436  28482M 28502
             28548M 28568  28615M 28635  28681M 28701  28748M 28768  28814M 28834  28880M 28900  28942M 28962  29003M
             29039  29089U 29091M 29094M 29096M 29102U 29127M 29127  29142  29149  29150M 29185  29317M 29446  29693U
             29700M 29738M 30255U 30273M 30686  30736M 30756  30809M 30829  30875M 30895  30941M 30961  31007M 31027
             31074M 31094  31140M 31160  31206M 31226  31273M 31293  31340M 31360  31406M 31426  31473M 31493  31539M
             31559  31605M 31625  31672M 31692  31739M 31759  31805M 31825  31871M 31891  31937M 31957  32003M 32023
             32069M 32089  32131M 32151  32192M 32212  32258M 32278  32344M 32364  32405M 32438  32507M 32535  32588U
             32590M 32597U 32668M 32694  32763M 32789  32841U 32845M 32852M 32922M 33056U 33075M 33150  33202U 33209M
             33301M 33428U 33447M 33476  33526U 33552M 33560M 33579U 33702M 33728  33780U 33787M 33876M 34024M 34241U
             34260M 34289  34339U 34343M 34369M 34377M 34396U 34520M 34581  34634U 34636M 34643U 34710M 34738  34792U
             34794M 34813M 34875U 35029M 35057  35111U 35130M 35192U 35283M 35313  35420U 35422M 35429U 35694M 35722
             35776U 35778M 35797M 35859U 36013M 36070  36124U 36126M 36145M 36207U 36361M 36389  36443U 36445M 36464M
             36526U 36680M 36708  36762U 36764M 36783M 36845U 36999M 37025  37075U 37077M 37085U 37189M 37215  37284M
             37344  37428M 37438U 37644U 37714M 37742M 37742  37764M 37790M 37790  37802  37809M 37828  37844  37867
             38043M 38069  38142M 38159  38171  38177M 38209M 38235  38308M 38325  38337  38343M 38375M 38403  38456U
             38458M 38465U 38536M 38566  38616U 38618M 38709M 38855M 38904  38959M 39167M 39178U 39201  39251U 39253M
             39261U 39365M 39435  39479M 39489U 39563U 39582M 39606  39650M 39660U 39734U 39753M 39779  39848M 39898
             39948U 39950M 39958U 40062M 40088  40157M 40183  40226M 40236U 40334U 40352M 40399  40463U 40468M 40472M
             40485U 40488M 40715M 40783  40853U 40857M 41043U 41066M 41093  41165U 41172M 41266M 41388M 41552U 41576M
             41603  41674U 41678M 41759M 41994U 42017M 42044  42115U 42119M 42184M 42453U 42476M 42503  42574U 42578M
             42643M 42829U 42852M 42879  42950U 42954M 43019M 43288U 43311M 43338  43409U 43413M 43478M 43747U 43770M
             43797  43883U 43887M 44135U 44223M 44277  44323M 44343  44384M 44418  44489U 44493M 44558M 44827U 44850M
             44877  44948U 44952M 45017M 45148M 45334U 45357M 45384  45455U 45459M 45540M 45791U 45814M 45847  45945M
             46032  46084U 46088M 46169U 46188M 46236  46307U 46311M 46317M 46414M 46559U 46583M 46643  46727M 46737U
             46943U 47017M 47033N 47048M 47048  47069M 47097M 47097  47109  47116  47118M 47137  47153  47176  47352M
             47380  47446U 47448M 47656M 47684  47745M 47948M 47975  48023M 48031U 48137M 48167  48217U 48219M 48306M
             48464M 48512  48567M 48631  48812  49013M 49024U 49046  49115M 49144  49194U 49196M 49203U 49270M 49296
             49365M 49392  49435M 49445U 49561U 49580M 49641  49721U 49745M 50069M 50153M 50384U 50408M 50439  50489U
             50491M 50494M 50562M 50563M 50573U 50592M 50593M 50605  50612M 50612  50631M 50631  50645  50715  50716M
             50743M 50769  50839M 50883  50936M 50946U 51159U 51183M 51299  51352M 51362U 51616U 51640M 51710  51760U
             51762M 51764M 51771U 51884M 51911  51973U 51978M 52048M 52082M 52112M 52382U 52406M 52434  52503M 52529
             52579U 52581M 52589U 52693M 52766  52826U 52828M 52836U 53044M 53094  53195M 53205U 53238M 53572U 53608M
             53638  53698U 53700M 53703M 53705M 53706M 53712U 53729  53869M 53896  53957U 53959M 53962M 53964M 53970U
             54036  54202M 54229  54290U 54292M 54295M 54297M 54303U 54369  54536M 54564  54617U 54619M 54626U 54693M
             54719  54762M 54772U 54845U 54864M 54960  55003U 55022M 55226M 55237U 55259  55329M 55355  55424M 55450
             55519M 55545  55614M 55638  55682M 55692U 55766U 55785M 55809  55853M 55863U 55937U 55956M 55982  56034U
             56063M 56148M 56299U 56317M 56343  56412M 56438  56507M 56581  56760U 56767M 56805M 57717U 57735M 57848
             57894M 57914  57960M 57980  58026M 58046  58092M 58112  58158M 58178  58219M 58392  58462U 58467M 58468
             58586M 58642M 58663M 58703M 58745M 58789M 59210U 59233M 59260  59378U 59383M 59615U 59637M 59691  59799U
             59837M 59907M 59937M 60157U 60193M
     6(6)      958U  2329   8285   8348M  8387   8442M  8450U  8475U  8518M  8565   8636   8724   9135M  9168   9201U
              9300U  9320M  9387   9541   9595M 10403  10463M 10489  10653U 10679U 10724U 10750U 10779U 10805U 10840M
             10866  10922U 10949U 10970M 11023  11656U 11727U 11759M 11793  11862U 11937U 11957M 11984  12059U 12093U
             12113M 12140  12215U 12249U 12269M 12296  12383U 12409U 12437U 12463U 12487M 12514  12589U 12623U 12643M
1         (FUNC2193) (12:45) (15MAR04) General Purpose Register Cross Reference                                             Page  370
             12731  13008U 13058U 13089M 13138  13296U 13367U 13398M 13457  13620U 13691U 13921U 13992U 14021M 14047
             14116M 14142  14270U 14333U 14359M 14385  14454M 14480  14549M 14575  14644M 14693  14880U 14951U 14982M
             15008  15077M 15103  15172M 15221  15412U 15438U 15466U 15492U 15523M 15576  15809U 15835U 15991U 16017U
             16046U 16072U 16113M 16167  16393U 16458U 16508U 16573U 16610M 16659  16808U 16880U 16967U 17039U 17109M
             17199  17476U 17547U 17570U 17635U 17652U 17717U 17741M 17795  17836M 17863  18232U 18303U 18326U 18391U
             18408U 18473U 18499M 18553  18594M 18653  18923U 18988U 19013U 19078U 19102M 19156  19197M 19250  19558U
             19629U 19652U 19717U 19741M 19795  19836M 19927  20572U 20647U 20678U 20743U 20772M 20797  20856  20909M
             20963  21004M 21068  21707U 21778U 21801U 21866U 21895M 21996  22042M 22062  22108M 22129  22170M 22247
             22316M 22342  22411M 22438  22507U 22582U 22602M 22651  22838U 22909U 22940M 22970  23149U 23182U 23207M
             23258  23821U 23893U 23919M 24000  24158U 24229U 24260M 24285  24443U 24514U 24545M 24570  24712U 24783U
             24814M 24839  24922U 24993U 25024M 25075  25552U 25623U 25654M 25747  26094U 26165U 26283U 26354U 26395M
             26495  26536M 26556  26603M 26623  26664M 26684  26730M 26750  26844M 26898  27139U 27210U 27246M 27311
             27428U 27493U 27856U 27927U 28116M 28304  28350M 28370  28416M 28436  28482M 28502  28548M 28568  28615M
             28635  28681M 28701  28748M 28768  28814M 28834  28880M 28900  28942M 28962  29003M 29039  29264U 29297U
             29317M 29446  29609U 29674U 29947U 30018U 30273M 30686  30736M 30756  30809M 30829  30875M 30895  30941M
             30961  31007M 31027  31074M 31094  31140M 31160  31206M 31226  31273M 31293  31340M 31360  31406M 31426
             31473M 31493  31539M 31559  31605M 31625  31672M 31692  31739M 31759  31805M 31825  31871M 31891  31937M
             31957  32003M 32023  32069M 32089  32131M 32151  32192M 32212  32258M 32278  32344M 32364  32405M 32438
             32507M 32535  32610U 32644U 32668M 32694  32763M 32789  33017U 33049U 33075M 33150  33319U 33423U 33447M
             33476  33612U 33677U 33702M 33728  34163U 34234U 34260M 34289  34430U 34495U 34520M 34581  34656U 34690U
             34710M 34738  34907U 34941U 34969U 35003U 35029M 35057  35223U 35257U 35283M 35313  35492U 35557U 35592U
             35669U 35694M 35722  35891U 35925U 35953U 35987U 36013M 36070  36239U 36273U 36301U 36335U 36361M 36389
             36558U 36592U 36620U 36654U 36680M 36708  36877U 36911U 36939U 36973U 36999M 37025  37094U 37169U 37189M
             37215  37284M 37344  37932U 37958U 37987U 38013U 38043M 38069  38121U 38190U 38209M 38235  38287U 38356U
             38375M 38403  38478U 38512U 38536M 38566  38801U 38835U 38855M 38904  39105U 39138U 39167M 39201  39270U
             39345U 39365M 39435  39522U 39556U 39582M 39606  39693U 39727U 39753M 39779  39848M 39898  39967U 40042U
             40062M 40088  40157M 40183  40256U 40327U 40352M 40399  40593U 40664U 40715M 40783  40965U 41036U 41066M
             41093  41511U 41545U 41576M 41603  41916U 41987U 42017M 42044  42370U 42441U 42476M 42503  42752U 42822U
             42852M 42879  43205U 43276U 43311M 43338  43664U 43735U 43770M 43797  44094U 44128U 44159U 44193U 44223M
             44277  44323M 44343  44384M 44418  44744U 44815U 44850M 44877  45256U 45327U 45357M 45384  45713U 45784U
             45814M 45847  45945M 46032  46103U 46162U 46188M 46236  46509U 46552U 46583M 46643  47241U 47267U 47296U
             47322U 47352M 47380  47550U 47621U 47656M 47684  47842U 47913U 47948M 47975  48044U 48117U 48137M 48167
             48371U 48444U 48464M 48512  48720U 48791U 48912U 48984U 49013M 49046  49115M 49144  49216U 49250U 49270M
             49296  49365M 49392  49483U 49554U 49580M 49641  50306U 50377U 50408M 50439  50699U 50722U 50743M 50769
             50839M 50883  51067U 51093U 51122U 51148U 51183M 51299  51538U 51609U 51640M 51710  51793U 51864U 51884M
             51911  52276U 52375U 52406M 52434  52503M 52529  52598U 52673U 52693M 52766  52845U 53019U 53044M 53094
             53485U 53560U 53608M 53638  53811U 53844U 53869M 53896  54098U 54172U 54202M 54229  54431U 54506U 54536M
             54564  54639U 54673U 54693M 54719  54804U 54838U 54864M 54960  55168U 55201U 55226M 55259  55329M 55355
             55424M 55450  55519M 55545  55614M 55638  55725U 55759U 55785M 55809  55896U 55930U 55956M 55982  56225U
             56291U 56317M 56343  56412M 56438  56507M 56581  56676U 56741U 57631U 57702U 57735M 57848  57894M 57914
             57960M 57980  58026M 58046  58092M 58112  58158M 58178  58219M 58392  59169U 59203U 59233M 59260  59295M
             59617  59637M 59691  60116U 60150U 60193M
     7(7)      954U  2322M  2322   2323B  2329   2335B  8285   8290M  8302U  8340U  8348M  8387   8392M  8404U  8510U
              8518M  8565   8570M  8582U  9127U  9135M  9168   9173M  9185U  9312U  9320M  9387   9392M  9404U  9587U
              9595M 10403  10408M 10420U 10455U 10463M 10489  10494M 10506U 10832U 10840M 10866  10871M 10883U 10962U
             10970M 11023  11029M 11041U 11751U 11759M 11793  11798M 11810U 11949U 11957M 11984  11989M 12001U 12105U
             12113M 12140  12145M 12157U 12261U 12269M 12296  12301M 12313U 12479U 12487M 12514  12519M 12531U 12635U
             12643M 12731  12737M 12749U 13081U 13089M 13138  13144M 13156U 13390U 13398M 13457  13463M 13475U 14013U
             14021M 14047  14052M 14064U 14108U 14116M 14142  14147M 14159U 14351U 14359M 14385  14390M 14402U 14446U
             14454M 14480  14485M 14497U 14541U 14549M 14575  14580M 14592U 14636U 14644M 14693  14699M 14711U 14974U
             14982M 15008  15013M 15025U 15069U 15077M 15103  15108M 15120U 15164U 15172M 15221  15227M 15239U 15515U
             15523M 15576  15582M 15594U 16105U 16113M 16167  16173M 16185U 16602U 16610M 16659  16665M 16677U 17101U
             17109M 17199  17204M 17216U 17733U 17741M 17795  17800M 17812U 17828U 17836M 17863  17868M 17880U 18491U
             18499M 18553  18558M 18570U 18586U 18594M 18653  18658M 18670U 19094U 19102M 19156  19161M 19173U 19189U
             19197M 19250  19255M 19267U 19733U 19741M 19795  19800M 19812U 19828U 19836M 19927  19933M 19945U 20764U
             20772M 20797  20803M 20815U 20856  20901U 20909M 20963  20968M 20980U 20996U 21004M 21068  21074M 21086U
             21887U 21895M 21996  22001M 22013U 22034U 22042M 22062  22067M 22079U 22100U 22108M 22129  22134M 22146U
             22162U 22170M 22247  22252M 22264U 22308U 22316M 22342  22347M 22359U 22403U 22411M 22438  22443M 22455U
             22594U 22602M 22651  22657M 22669U 22932U 22940M 22970  22976M 22988U 23199U 23207M 23258  23264M 23276U
1         (FUNC2193) (12:45) (15MAR04) General Purpose Register Cross Reference                                             Page  371
             23911U 23919M 24000  24006M 24018U 24252U 24260M 24285  24291M 24303U 24537U 24545M 24570  24576M 24588U
             24806U 24814M 24839  24845M 24857U 25016U 25024M 25075  25081M 25093U 25646U 25654M 25747  25753M 25765U
             26387U 26395M 26495  26500M 26512U 26528U 26536M 26556  26561M 26573U 26595U 26603M 26623  26628M 26640U
             26656U 26664M 26684  26689M 26701U 26722U 26730M 26750  26755M 26767U 26836U 26844M 26898  26904M 26916U
             27238U 27246M 27311  27317M 27329U 28108U 28116M 28304  28309M 28321U 28342U 28350M 28370  28375M 28387U
             28408U 28416M 28436  28441M 28453U 28474U 28482M 28502  28507M 28519U 28540U 28548M 28568  28573M 28585U
             28607U 28615M 28635  28640M 28652U 28673U 28681M 28701  28706M 28718U 28740U 28748M 28768  28773M 28785U
             28806U 28814M 28834  28839M 28851U 28872U 28880M 28900  28905M 28917U 28934U 28942M 28962  28967M 28979U
             28995U 29003M 29039  29044M 29056U 29309U 29317M 29446  29452M 29464U 30265U 30273M 30686  30691M 30703U
             30728U 30736M 30756  30761M 30773U 30801U 30809M 30829  30834M 30846U 30867U 30875M 30895  30900M 30912U
             30933U 30941M 30961  30966M 30978U 30999U 31007M 31027  31032M 31044U 31066U 31074M 31094  31099M 31111U
             31132U 31140M 31160  31165M 31177U 31198U 31206M 31226  31231M 31243U 31265U 31273M 31293  31298M 31310U
             31332U 31340M 31360  31365M 31377U 31398U 31406M 31426  31431M 31443U 31465U 31473M 31493  31498M 31510U
             31531U 31539M 31559  31564M 31576U 31597U 31605M 31625  31630M 31642U 31664U 31672M 31692  31697M 31709U
             31731U 31739M 31759  31764M 31776U 31797U 31805M 31825  31830M 31842U 31863U 31871M 31891  31896M 31908U
             31929U 31937M 31957  31962M 31974U 31995U 32003M 32023  32028M 32040U 32061U 32069M 32089  32094M 32106U
             32123U 32131M 32151  32156M 32168U 32184U 32192M 32212  32217M 32229U 32250U 32258M 32278  32283M 32295U
             32336U 32344M 32364  32369M 32381U 32397U 32405M 32438  32443M 32455U 32499U 32507M 32535  32540M 32552U
             32660U 32668M 32694  32699M 32711U 32755U 32763M 32789  32794M 32806U 33067U 33075M 33150  33155M 33167U
             33439U 33447M 33476  33481M 33493U 33694U 33702M 33728  33733M 33745U 34252U 34260M 34289  34294M 34306U
             34512U 34520M 34581  34586M 34598U 34702U 34710M 34738  34743M 34755U 35021U 35029M 35057  35062M 35074U
             35275U 35283M 35313  35318M 35330U 35686U 35694M 35722  35727M 35739U 36005U 36013M 36070  36075M 36087U
             36353U 36361M 36389  36394M 36406U 36672U 36680M 36708  36713M 36725U 36991U 36999M 37025  37030M 37042U
             37181U 37189M 37215  37220M 37232U 37276U 37284M 37344  37350M 37362U 38035U 38043M 38069  38074M 38086U
             38201U 38209M 38235  38240M 38252U 38367U 38375M 38403  38408M 38420U 38528U 38536M 38566  38571M 38583U
             38847U 38855M 38904  38910M 38922U 39159U 39167M 39201  39206M 39218U 39357U 39365M 39435  39440M 39452U
             39574U 39582M 39606  39611M 39623U 39745U 39753M 39779  39784M 39796U 39840U 39848M 39898  39903M 39915U
             40054U 40062M 40088  40093M 40105U 40149U 40157M 40183  40188M 40200U 40344U 40352M 40399  40405M 40417U
             40707U 40715M 40783  40789M 40801U 41058U 41066M 41093  41099M 41111U 41568U 41576M 41603  41609M 41621U
             42009U 42017M 42044  42050M 42062U 42468U 42476M 42503  42509M 42521U 42844U 42852M 42879  42885M 42897U
             43303U 43311M 43338  43344M 43356U 43762U 43770M 43797  43803M 43815U 44215U 44223M 44277  44282M 44294U
             44315U 44323M 44343  44348M 44360U 44376U 44384M 44418  44424M 44436U 44842U 44850M 44877  44883M 44895U
             45349U 45357M 45384  45390M 45402U 45806U 45814M 45847  45852M 45864U 45937U 45945M 46032  46037M 46049U
             46180U 46188M 46236  46242M 46254U 46575U 46583M 46643  46649M 46661U 47344U 47352M 47380  47386M 47398U
             47648U 47656M 47684  47690M 47702U 47940U 47948M 47975  47980M 47992U 48129U 48137M 48167  48172M 48184U
             48456U 48464M 48512  48518M 48530U 49005U 49013M 49046  49051M 49063U 49107U 49115M 49144  49149M 49161U
             49262U 49270M 49296  49301M 49313U 49357U 49365M 49392  49397M 49409U 49572U 49580M 49641  49647M 49659U
             50400U 50408M 50439  50444M 50456U 50735U 50743M 50769  50774M 50786U 50831U 50839M 50883  50889M 50901U
             51175U 51183M 51299  51305M 51317U 51632U 51640M 51710  51715M 51727U 51876U 51884M 51911  51917M 51929U
             52398U 52406M 52434  52439M 52451U 52495U 52503M 52529  52534M 52546U 52685U 52693M 52766  52772M 52784U
             53036U 53044M 53094  53100M 53112U 53600U 53608M 53638  53644M 53656U 53861U 53869M 53896  53902M 53914U
             54194U 54202M 54229  54235M 54247U 54528U 54536M 54564  54569M 54581U 54685U 54693M 54719  54724M 54736U
             54856U 54864M 54960  54966M 54978U 55218U 55226M 55259  55264M 55276U 55321U 55329M 55355  55360M 55372U
             55416U 55424M 55450  55455M 55467U 55511U 55519M 55545  55550M 55562U 55606U 55614M 55638  55643M 55655U
             55777U 55785M 55809  55814M 55826U 55948U 55956M 55982  55987M 55999U 56309U 56317M 56343  56348M 56360U
             56404U 56412M 56438  56443M 56455U 56499U 56507M 56581  56587M 56599U 57727U 57735M 57848  57853M 57865U
             57886U 57894M 57914  57919M 57931U 57952U 57960M 57980  57985M 57997U 58018U 58026M 58046  58051M 58063U
             58084U 58092M 58112  58117M 58129U 58150U 58158M 58178  58183M 58195U 58211U 58219M 58392  58398M 58410U
             59225U 59233M 59260  59266M 59277U 59629U 59637M 59691  59697M 59709U 60185U 60193M
     8(8)      950U  2329   8285   8286M  8344   8348M  8387   8388M  8503N  8514   8518M  8565   8566M  9131   9135M
              9168   9169M  9316   9320M  9387   9388M  9591   9595M 10403  10404M 10459  10463M 10489  10490M 10836
             10840M 10866  10867M 10966  10970M 11023  11025M 11055U 11746U 11755  11759M 11793  11794M 11953  11957M
             11984  11985M 12109  12113M 12140  12141M 12265  12269M 12296  12297M 12483  12487M 12514  12515M 12639
             12643M 12731  12733M 12763U 13076U 13085  13089M 13138  13140M 13170U 13385U 13394  13398M 13457  13459M
             13489U 14008U 14017  14021M 14047  14048M 14112  14116M 14142  14143M 14355  14359M 14385  14386M 14450
             14454M 14480  14481M 14545  14549M 14575  14576M 14640  14644M 14693  14695M 14725U 14969U 14978  14982M
             15008  15009M 15073  15077M 15103  15104M 15168  15172M 15221  15223M 15253U 15510U 15519  15523M 15576
             15578M 15608U 16100U 16109  16113M 16167  16169M 16199U 16597U 16606  16610M 16659  16661M 16691U 17096U
             17105  17109M 17199  17200M 17737  17741M 17795  17796M 17832  17836M 17863  17864M 18495  18499M 18553
1         (FUNC2193) (12:45) (15MAR04) General Purpose Register Cross Reference                                             Page  372
             18554M 18590  18594M 18653  18654M 19098  19102M 19156  19157M 19193  19197M 19250  19251M 19737  19741M
             19795  19796M 19832  19836M 19927  19929M 19959U 20759U 20768  20772M 20797  20799M 20829U 20856  20896U
             20905  20909M 20963  20964M 21000  21004M 21068  21070M 21100U 21882U 21891  21895M 21996  21997M 22038
             22042M 22062  22063M 22104  22108M 22129  22130M 22166  22170M 22247  22248M 22312  22316M 22342  22343M
             22407  22411M 22438  22439M 22598  22602M 22651  22653M 22683U 22927U 22936  22940M 22970  22972M 23002U
             23194U 23203  23207M 23258  23260M 23290U 23906U 23915  23919M 24000  24002M 24032U 24247U 24256  24260M
             24285  24287M 24317U 24532U 24541  24545M 24570  24572M 24602U 24801U 24810  24814M 24839  24841M 24871U
             25011U 25020  25024M 25075  25077M 25107U 25641U 25650  25654M 25747  25749M 25779U 26382U 26391  26395M
             26495  26496M 26532  26536M 26556  26557M 26599  26603M 26623  26624M 26660  26664M 26684  26685M 26726
             26730M 26750  26751M 26840  26844M 26898  26900M 26930U 27233U 27242  27246M 27311  27313M 27343U 28103U
             28112  28116M 28304  28305M 28346  28350M 28370  28371M 28412  28416M 28436  28437M 28478  28482M 28502
             28503M 28544  28548M 28568  28569M 28611  28615M 28635  28636M 28677  28681M 28701  28702M 28744  28748M
             28768  28769M 28810  28814M 28834  28835M 28876  28880M 28900  28901M 28938  28942M 28962  28963M 28999
             29003M 29039  29040M 29313  29317M 29446  29448M 29478U 30260U 30269  30273M 30686  30687M 30732  30736M
             30756  30757M 30805  30809M 30829  30830M 30871  30875M 30895  30896M 30937  30941M 30961  30962M 31003
             31007M 31027  31028M 31070  31074M 31094  31095M 31136  31140M 31160  31161M 31202  31206M 31226  31227M
             31269  31273M 31293  31294M 31336  31340M 31360  31361M 31402  31406M 31426  31427M 31469  31473M 31493
             31494M 31535  31539M 31559  31560M 31601  31605M 31625  31626M 31668  31672M 31692  31693M 31735  31739M
             31759  31760M 31801  31805M 31825  31826M 31867  31871M 31891  31892M 31933  31937M 31957  31958M 31999
             32003M 32023  32024M 32065  32069M 32089  32090M 32127  32131M 32151  32152M 32188  32192M 32212  32213M
             32254  32258M 32278  32279M 32340  32344M 32364  32365M 32401  32405M 32438  32439M 32503  32507M 32535
             32536M 32664  32668M 32694  32695M 32759  32763M 32789  32790M 33071  33075M 33150  33151M 33443  33447M
             33476  33477M 33698  33702M 33728  33729M 34256  34260M 34289  34290M 34516  34520M 34581  34582M 34706
             34710M 34738  34739M 35025  35029M 35057  35058M 35279  35283M 35313  35314M 35690  35694M 35722  35723M
             36009  36013M 36070  36071M 36357  36361M 36389  36390M 36676  36680M 36708  36709M 36995  36999M 37025
             37026M 37185  37189M 37215  37216M 37280  37284M 37344  37346M 37376U 38030U 38039  38043M 38069  38070M
             38205  38209M 38235  38236M 38371  38375M 38403  38404M 38532  38536M 38566  38567M 38851  38855M 38904
             38906M 38936U 39154U 39163  39167M 39201  39202M 39361  39365M 39435  39436M 39578  39582M 39606  39607M
             39749  39753M 39779  39780M 39844  39848M 39898  39899M 40058  40062M 40088  40089M 40153  40157M 40183
             40184M 40348  40352M 40399  40401M 40431U 40702U 40711  40715M 40783  40785M 40815U 41053U 41062  41066M
             41093  41095M 41125U 41563U 41572  41576M 41603  41605M 41635U 42004U 42013  42017M 42044  42046M 42076U
             42463U 42472  42476M 42503  42505M 42535U 42839U 42848  42852M 42879  42881M 42911U 43298U 43307  43311M
             43338  43340M 43370U 43757U 43766  43770M 43797  43799M 43829U 44210U 44219  44223M 44277  44278M 44319
             44323M 44343  44344M 44380  44384M 44418  44420M 44450U 44837U 44846  44850M 44877  44879M 44909U 45344U
             45353  45357M 45384  45386M 45416U 45801U 45810  45814M 45847  45848M 45930  45941  45945M 46032  46033M
             46184  46188M 46236  46238M 46268U 46570U 46579  46583M 46643  46645M 46675U 47339U 47348  47352M 47380
             47382M 47412U 47643U 47652  47656M 47684  47686M 47716U 47935U 47944  47948M 47975  47976M 48133  48137M
             48167  48168M 48460  48464M 48512  48514M 48544U 49000U 49009  49013M 49046  49047M 49111  49115M 49144
             49145M 49266  49270M 49296  49297M 49361  49365M 49392  49393M 49576  49580M 49641  49643M 49673U 50395U
             50404  50408M 50439  50440M 50739  50743M 50769  50770M 50835  50839M 50883  50885M 50915U 51170U 51179
             51183M 51299  51301M 51331U 51627U 51636  51640M 51710  51711M 51880  51884M 51911  51913M 51943U 52393U
             52402  52406M 52434  52435M 52499  52503M 52529  52530M 52689  52693M 52766  52768M 52798U 53031U 53040
             53044M 53094  53096M 53126U 53595U 53604  53608M 53638  53640M 53670U 53856U 53865  53869M 53896  53898M
             53928U 54189U 54198  54202M 54229  54231M 54261U 54523U 54532  54536M 54564  54565M 54689  54693M 54719
             54720M 54860  54864M 54960  54962M 54992U 55213U 55222  55226M 55259  55260M 55325  55329M 55355  55356M
             55420  55424M 55450  55451M 55515  55519M 55545  55546M 55610  55614M 55638  55639M 55781  55785M 55809
             55810M 55952  55956M 55982  55983M 56313  56317M 56343  56344M 56408  56412M 56438  56439M 56503  56507M
             56581  56583M 56613U 57722U 57731  57735M 57848  57849M 57890  57894M 57914  57915M 57956  57960M 57980
             57981M 58022  58026M 58046  58047M 58088  58092M 58112  58113M 58154  58158M 58178  58179M 58215  58219M
             58392  58394M 58424U 59220U 59229  59233M 59260  59262M 59291U 59295  59296M 59296N 59617M 59624U 59633
             59637M 59691  59693M 59723U 60180U 60189  60193M
     9(9)      946U  2329  20321M 20321  20390N 20409  20856  20889M 20889
    10(A)      942U  2329  20856
    11(B)      938U  1393U  2329  20856
    12(C)      934U  1402U  2329  20856
    13(D)      930U  2329   8282   8285   8286   8287M  8287   8344M  8348   8350   8384   8387   8388   8389M  8389
              8514M  8518   8520   8562   8565   8566   8567M  8567   9131M  9135   9137   9165   9168   9169   9170M
              9170   9316M  9320   9322   9384   9387   9388   9389M  9389   9591M  9595   9597  10400  10403  10404
             10405M 10405  10459M 10463  10465  10486  10489  10490  10491M 10491  10836M 10840  10842  10863  10866
1         (FUNC2193) (12:45) (15MAR04) General Purpose Register Cross Reference                                             Page  373
             10867  10868M 10868  10966M 10970  10972  11020  11023  11025  11026M 11026  11643  11644M 11644  11730M
             11731  11755M 11759  11761  11790  11793  11794  11795M 11795  11953M 11957  11959  11981  11984  11985
             11986M 11986  12109M 12113  12115  12137  12140  12141  12142M 12142  12265M 12269  12271  12293  12296
             12297  12298M 12298  12483M 12487  12489  12511  12514  12515  12516M 12516  12639M 12643  12645  12728
             12731  12733  12734M 12734  13085M 13089  13091  13135  13138  13140  13141M 13141  13394M 13398  13400
             13454  13457  13459  13460M 13460  14017M 14021  14023  14044  14047  14048  14049M 14049  14112M 14116
             14118  14139  14142  14143  14144M 14144  14308  14309M 14309  14313M 14314  14355M 14359  14361  14382
             14385  14386  14387M 14387  14450M 14454  14456  14477  14480  14481  14482M 14482  14545M 14549  14551
             14572  14575  14576  14577M 14577  14640M 14644  14646  14690  14693  14695  14696M 14696  14978M 14982
             14984  15005  15008  15009  15010M 15010  15073M 15077  15079  15100  15103  15104  15105M 15105  15168M
             15172  15174  15218  15221  15223  15224M 15224  15519M 15523  15525  15573  15576  15578  15579M 15579
             16109M 16113  16115  16164  16167  16169  16170M 16170  16606M 16610  16612  16656  16659  16661  16662M
             16662  17105M 17109  17111  17196  17199  17200  17201M 17201  17228  17230M 17230  17355  17356  17357
             17359M 17359  17372M 17373  17374  17375  17725M 17737M 17741  17743  17792  17795  17796  17797M 17797
             17832M 17836  17838  17860  17863  17864  17865M 17865  17892  17894M 17894  18019  18020  18021  18023M
             18023  18036M 18037  18038  18039  18483M 18495M 18499  18501  18550  18553  18554  18555M 18555  18590M
             18594  18596  18650  18653  18654  18655M 18655  18682  18684M 18684  18796  18797  18798  18800M 18800
             18813M 18814  18815  18816  19086M 19098M 19102  19104  19153  19156  19157  19158M 19158  19193M 19197
             19199  19247  19250  19251  19252M 19252  19279  19281M 19281  19387  19388  19389  19391M 19391  19404M
             19405  19406  19407  19725M 19737M 19741  19743  19792  19795  19796  19797M 19797  19832M 19836  19838
             19924  19927  19929  19930M 19930  19966  19968M 19968  20080  20081  20082  20084M 20084  20097M 20098
             20099  20100  20147  20148M 20148  20164  20165M 20165  20171M 20172  20459  20460M 20460  20550M 20560M
             20751M 20768M 20772  20774  20794  20797  20799  20800M 20800  20834  20835M 20835  20856  20887M 20888
             20905M 20909  20911  20960  20963  20964  20965M 20965  21000M 21004  21006  21065  21068  21070  21071M
             21071  21107  21109M 21109  21223  21224  21225  21227M 21227  21240M 21241  21242  21243  21394  21395
             21396  21398M 21398  21411M 21412  21413  21414  21874M 21891M 21895  21897  21993  21996  21997  21998M
             21998  22038M 22042  22044  22059  22062  22063  22064M 22064  22104M 22108  22110  22126  22129  22130
             22131M 22131  22166M 22170  22172  22244  22247  22248  22249M 22249  22312M 22316  22318  22339  22342
             22343  22344M 22344  22407M 22411  22413  22435  22438  22439  22440M 22440  22598M 22602  22604  22648
             22651  22653  22654M 22654  22936M 22940  22942  22967  22970  22972  22973M 22973  23203M 23207  23209
             23255  23258  23260  23261M 23261  23915M 23919  23921  23997  24000  24002  24003M 24003  24256M 24260
             24262  24282  24285  24287  24288M 24288  24541M 24545  24547  24567  24570  24572  24573M 24573  24810M
             24814  24816  24836  24839  24841  24842M 24842  25020M 25024  25026  25072  25075  25077  25078M 25078
             25650M 25654  25656  25744  25747  25749  25750M 25750  25969  25971M 25971  26006  26007  26008  26010M
             26010  26023M 26024  26025  26026  26032M 26391M 26395  26397  26492  26495  26496  26497M 26497  26532M
             26536  26538  26553  26556  26557  26558M 26558  26599M 26603  26605  26620  26623  26624  26625M 26625
             26660M 26664  26666  26681  26684  26685  26686M 26686  26726M 26730  26732  26747  26750  26751  26752M
             26752  26840M 26844  26846  26895  26898  26900  26901M 26901  27242M 27246  27248  27308  27311  27313
             27314M 27314  27368  27370M 27370  27616  27617  27618  27620M 27620  27633M 27634  27635  27636  27722
             27723M 27723  27726  27727M 27727  27754M 27755  27932M 28090M 28112M 28116  28118  28301  28304  28305
             28306M 28306  28346M 28350  28352  28367  28370  28371  28372M 28372  28412M 28416  28418  28433  28436
             28437  28438M 28438  28478M 28482  28484  28499  28502  28503  28504M 28504  28544M 28548  28550  28565
             28568  28569  28570M 28570  28611M 28615  28617  28632  28635  28636  28637M 28637  28677M 28681  28683
             28698  28701  28702  28703M 28703  28744M 28748  28750  28765  28768  28769  28770M 28770  28810M 28814
             28816  28831  28834  28835  28836M 28836  28876M 28880  28882  28897  28900  28901  28902M 28902  28938M
             28942  28944  28959  28962  28963  28964M 28964  28999M 29003  29005  29036  29039  29040  29041M 29041
             29313M 29317  29319  29443  29446  29448  29449M 29449  29503  29505M 29505  29772  29773  29774  29776M
             29776  29789M 29790  29791  29792  29877  29878M 29878  29881  29882M 29882  29909M 29910  30023M 30247M
             30269M 30273  30275  30683  30686  30687  30688M 30688  30732M 30736  30738  30753  30756  30757  30758M
             30758  30805M 30809  30811  30826  30829  30830  30831M 30831  30871M 30875  30877  30892  30895  30896
             30897M 30897  30937M 30941  30943  30958  30961  30962  30963M 30963  31003M 31007  31009  31024  31027
             31028  31029M 31029  31070M 31074  31076  31091  31094  31095  31096M 31096  31136M 31140  31142  31157
             31160  31161  31162M 31162  31202M 31206  31208  31223  31226  31227  31228M 31228  31269M 31273  31275
             31290  31293  31294  31295M 31295  31336M 31340  31342  31357  31360  31361  31362M 31362  31402M 31406
             31408  31423  31426  31427  31428M 31428  31469M 31473  31475  31490  31493  31494  31495M 31495  31535M
             31539  31541  31556  31559  31560  31561M 31561  31601M 31605  31607  31622  31625  31626  31627M 31627
             31668M 31672  31674  31689  31692  31693  31694M 31694  31735M 31739  31741  31756  31759  31760  31761M
             31761  31801M 31805  31807  31822  31825  31826  31827M 31827  31867M 31871  31873  31888  31891  31892
             31893M 31893  31933M 31937  31939  31954  31957  31958  31959M 31959  31999M 32003  32005  32020  32023
1         (FUNC2193) (12:45) (15MAR04) General Purpose Register Cross Reference                                             Page  374
             32024  32025M 32025  32065M 32069  32071  32086  32089  32090  32091M 32091  32127M 32131  32133  32148
             32151  32152  32153M 32153  32188M 32192  32194  32209  32212  32213  32214M 32214  32254M 32258  32260
             32275  32278  32279  32280M 32280  32340M 32344  32346  32361  32364  32365  32366M 32366  32401M 32405
             32407  32435  32438  32439  32440M 32440  32503M 32507  32509  32532  32535  32536  32537M 32537  32664M
             32668  32670  32691  32694  32695  32696M 32696  32759M 32763  32765  32786  32789  32790  32791M 32791
             33071M 33075  33077  33147  33150  33151  33152M 33152  33443M 33447  33449  33473  33476  33477  33478M
             33478  33698M 33702  33704  33725  33728  33729  33730M 33730  34125  34126M 34126  34149M 34150  34256M
             34260  34262  34286  34289  34290  34291M 34291  34516M 34520  34522  34578  34581  34582  34583M 34583
             34706M 34710  34712  34735  34738  34739  34740M 34740  35025M 35029  35031  35054  35057  35058  35059M
             35059  35279M 35283  35285  35310  35313  35314  35315M 35315  35690M 35694  35696  35719  35722  35723
             35724M 35724  36009M 36013  36015  36067  36070  36071  36072M 36072  36357M 36361  36363  36386  36389
             36390  36391M 36391  36676M 36680  36682  36705  36708  36709  36710M 36710  36995M 36999  37001  37022
             37025  37026  37027M 37027  37185M 37189  37191  37212  37215  37216  37217M 37217  37280M 37284  37286
             37341  37344  37346  37347M 37347  38039M 38043  38045  38066  38069  38070  38071M 38071  38205M 38209
             38211  38232  38235  38236  38237M 38237  38371M 38375  38377  38400  38403  38404  38405M 38405  38532M
             38536  38538  38563  38566  38567  38568M 38568  38621  38622M 38622  38630M 38631  38851M 38855  38857
             38901  38904  38906  38907M 38907  39163M 39167  39169  39198  39201  39202  39203M 39203  39361M 39365
             39367  39432  39435  39436  39437M 39437  39578M 39582  39584  39603  39606  39607  39608M 39608  39749M
             39753  39755  39776  39779  39780  39781M 39781  39844M 39848  39850  39895  39898  39899  39900M 39900
             40058M 40062  40064  40085  40088  40089  40090M 40090  40153M 40157  40159  40180  40183  40184  40185M
             40185  40348M 40352  40354  40396  40399  40401  40402M 40402  40711M 40715  40717  40780  40783  40785
             40786M 40786  41062M 41066  41068  41090  41093  41095  41096M 41096  41572M 41576  41578  41600  41603
             41605  41606M 41606  42013M 42017  42019  42041  42044  42046  42047M 42047  42472M 42476  42478  42500
             42503  42505  42506M 42506  42848M 42852  42854  42876  42879  42881  42882M 42882  43307M 43311  43313
             43335  43338  43340  43341M 43341  43766M 43770  43772  43794  43797  43799  43800M 43800  43853  43855M
             43855  43922  43923  43924  43926M 43926  43939M 43940  43941  43942  44202M 44219M 44223  44225  44274
             44277  44278  44279M 44279  44319M 44323  44325  44340  44343  44344  44345M 44345  44380M 44384  44386
             44415  44418  44420  44421M 44421  44846M 44850  44852  44874  44877  44879  44880M 44880  45353M 45357
             45359  45381  45384  45386  45387M 45387  45637  45638M 45638  45810M 45814  45816  45844  45847  45848
             45849M 45849  45874  45875M 45875  45941M 45945  45947  46029  46032  46033  46034M 46034  46184M 46188
             46190  46233  46236  46238  46239M 46239  46579M 46583  46585  46640  46643  46645  46646M 46646  47348M
             47352  47354  47377  47380  47382  47383M 47383  47419  47421M 47421  47483  47484  47485  47487M 47487
             47499M 47500  47501  47502  47635M 47652M 47656  47658  47681  47684  47686  47687M 47687  47723  47725M
             47725  47780  47781  47782  47784M 47784  47796M 47797  47798  47799  47927M 47944M 47948  47950  47972
             47975  47976  47977M 47977  48133M 48137  48139  48164  48167  48168  48169M 48169  48222  48223M 48223
             48232M 48233  48460M 48464  48466  48509  48512  48514  48515M 48515  49009M 49013  49015  49043  49046
             49047  49048M 49048  49111M 49115  49117  49141  49144  49145  49146M 49146  49266M 49270  49272  49293
             49296  49297  49298M 49298  49361M 49365  49367  49389  49392  49393  49394M 49394  49576M 49580  49582
             49638  49641  49643  49644M 49644  50404M 50408  50410  50436  50439  50440  50441M 50441  50739M 50743
             50745  50766  50769  50770  50771M 50771  50835M 50839  50841  50880  50883  50885  50886M 50886  51179M
             51183  51185  51296  51299  51301  51302M 51302  51473  51474M 51474  51494M 51636M 51640  51642  51707
             51710  51711  51712M 51712  51774  51775M 51775  51880M 51884  51886  51908  51911  51913  51914M 51914
             52402M 52406  52408  52431  52434  52435  52436M 52436  52499M 52503  52505  52526  52529  52530  52531M
             52531  52689M 52693  52695  52763  52766  52768  52769M 52769  53040M 53044  53046  53091  53094  53096
             53097M 53097  53133  53135M 53135  53139  53140M 53140  53143  53144M 53144  53171M 53172  53581M 53587M
             53604M 53608  53610  53635  53638  53640  53641M 53641  53865M 53869  53871  53893  53896  53898  53899M
             53899  54198M 54202  54204  54226  54229  54231  54232M 54232  54532M 54536  54538  54561  54564  54565
             54566M 54566  54689M 54693  54695  54716  54719  54720  54721M 54721  54860M 54864  54866  54957  54960
             54962  54963M 54963  55222M 55226  55228  55256  55259  55260  55261M 55261  55325M 55329  55331  55352
             55355  55356  55357M 55357  55420M 55424  55426  55447  55450  55451  55452M 55452  55515M 55519  55521
             55542  55545  55546  55547M 55547  55610M 55614  55616  55635  55638  55639  55640M 55640  55781M 55785
             55787  55806  55809  55810  55811M 55811  55952M 55956  55958  55979  55982  55983  55984M 55984  56313M
             56317  56319  56340  56343  56344  56345M 56345  56408M 56412  56414  56435  56438  56439  56440M 56440
             56503M 56507  56509  56578  56581  56583  56584M 56584  56638  56640M 56640  56839  56840  56841  56843M
             56843  56856M 56857  56858  56859  57709M 57731M 57735  57737  57845  57848  57849  57850M 57850  57890M
             57894  57896  57911  57914  57915  57916M 57916  57956M 57960  57962  57977  57980  57981  57982M 57982
             58022M 58026  58028  58043  58046  58047  58048M 58048  58088M 58092  58094  58109  58112  58113  58114M
             58114  58154M 58158  58160  58175  58178  58179  58180M 58180  58215M 58219  58221  58389  58392  58394
             58395M 58395  59229M 59233  59235  59257  59260  59262  59263M 59263  59633M 59637  59639  59688  59691
1         (FUNC2193) (12:45) (15MAR04) General Purpose Register Cross Reference                                             Page  375
             59693  59694M 59694  59730  59732M 59732  59736  59737M 59737  59740  59741M 59741  59768M 59769  60166M
             60172M 60189M 60193  60195
    14(E)      926U  2329   2330M  2344   2345M  2346B  2348M  2349B  2369M  2370B  2374M  2375B  2377M  2378B  2380M
              2381B  2383M  2384B  2386M  2387M  2387B  2393   8282   8316M  8317M  8317B  8332M  8333M  8333B  8350M
              8353B  8384   8424M  8425M  8425B  8520M  8523B  8562   8626M  8627M  8627B  8654M  8655M  8655B  8672M
              8673M  8673B  8714M  8715M  8715B  8742M  8743M  8743B  8760M  8761M  8761B  8807M  8808M  8808B  8855M
              8856M  8856B  8903M  8904M  8904B  8951M  8952M  8952B  8999M  9000M  9000B  9088M  9089M  9089B  9115M
              9116M  9116B  9137M  9140B  9165   9322M  9325B  9384   9469M  9470M  9470B  9491M  9492M  9492B  9513M
              9514M  9514B  9531M  9532M  9532B  9559M  9560M  9560B  9577M  9578M  9578B  9597M  9600B 10400  10445M
             10446M 10446B 10465M 10468B 10486  10519M 10520M 10520B 10555M 10618M 10619M 10619B 10700M 10842M 10845B
             10863  10896M 10897M 10897B 10972M 10975B 11020  11074M 11075M 11075B 11212M 11213M 11213B 11223M 11224M
             11224B 11268M 11269M 11269B 11302M 11303M 11303B 11604M 11605M 11605B 11615M 11616M 11616B 11761M 11764B
             11790  11823M 11824M 11824B 11959M 11962B 11981  12014M 12015M 12015B 12085M 12086M 12086B 12115M 12118B
             12137  12170M 12171M 12171B 12241M 12242M 12242B 12271M 12274B 12293  12326M 12327M 12327B 12489M 12492B
             12511  12544M 12545M 12545B 12615M 12616M 12616B 12645M 12648B 12728  12780M 12781M 12781B 12853M 12854M
             12854B 12887M 12888M 12889M 12890  12891  12948M 12949M 12949B 12959M 12960M 12960B 13029M 13036M 13042M
             13091M 13094B 13135  13179M 13180M 13180B 13221M 13222M 13222B 13226M 13227M 13227B 13400M 13403B 13454
             13497M 13498M 13498B 13562M 13563M 13564M 13567M 13721  13851M 13852M 13864  14023M 14026B 14044  14089M
             14090M 14090B 14100M 14101M 14101B 14118M 14121B 14139  14172M 14173M 14173B 14208M 14249M 14250M 14250B
             14290M 14311M 14361M 14364B 14382  14427M 14428M 14428B 14438M 14439M 14439B 14456M 14459B 14477  14522M
             14523M 14523B 14533M 14534M 14534B 14551M 14554B 14572  14617M 14618M 14618B 14628M 14629M 14629B 14646M
             14649B 14690  14742M 14743M 14743B 14785M 14799M 14866M 14867M 14867B 14984M 14987B 15005  15050M 15051M
             15051B 15061M 15062M 15062B 15079M 15082B 15100  15145M 15146M 15146B 15156M 15157M 15157B 15174M 15177B
             15218  15263M 15264M 15264B 15381M 15382M 15382B 15525M 15528B 15573  15645M 15646M 15646B 15764M 15765M
             15765B 15878M 15879M 15879B 15939M 15940M 15940B 16115M 16118B 16164  16236M 16237M 16237B 16291M 16292M
             16292B 16302M 16303M 16303B 16348M 16349M 16349B 16481M 16482M 16482B 16612M 16615B 16656  16708M 16709M
             16709B 16771M 16772M 16772B 16782M 16783M 16783B 16795M 16796M 16796B 16921M 16922M 16922B 16942M 16943M
             16943B 16954M 16955M 16955B 17076M 17077M 17077B 17111M 17114B 17196  17227M 17228  17235M 17236M 17236B
             17308M 17309N 17310N 17314M 17314  17325M 17326M 17326B 17354M 17355  17356  17357  17362M 17363  17366M
             17367M 17367B 17370M 17373  17374  17375  17414M 17415M 17415B 17436M 17437M 17437B 17723M 17726  17743M
             17746B 17792  17838M 17841B 17860  17891M 17892  17899M 17900M 17900B 17972M 17973N 17974N 17978M 17978
             17989M 17990M 17990B 18018M 18019  18020  18021  18026M 18027  18030M 18031M 18031B 18034M 18037  18038
             18039  18078M 18079M 18079B 18105M 18106M 18106B 18481M 18484  18501M 18504B 18550  18596M 18599B 18650
             18681M 18682  18689M 18690M 18690B 18739M 18740N 18741N 18745M 18745  18756M 18757M 18757B 18775M 18776
             18776  18780M 18780  18795M 18796  18797  18798  18803M 18804  18807M 18808M 18808B 18811M 18814  18815
             18816  18838M 18839M 18839B 18870M 18871M 18871B 18889M 18890  18890  18894M 18894  18907M 18908M 18908B
             19084M 19087  19104M 19107B 19153  19199M 19202B 19247  19278M 19279  19286M 19287M 19287B 19337M 19338N
             19339N 19343M 19343  19357M 19358M 19358B 19386M 19387  19388  19389  19394M 19395  19398M 19399M 19399B
             19402M 19405  19406  19407  19446M 19447M 19447B 19469M 19470M 19470B 19723M 19726  19743M 19746B 19792
             19838M 19841B 19924  19965M 19966  19973M 19974M 19974B 20023M 20024N 20025N 20029M 20029  20040M 20041M
             20041B 20059M 20060  20060  20064M 20064  20079M 20080  20081  20082  20087M 20088  20091M 20092M 20092B
             20095M 20098  20099  20100  20122M 20123M 20123B 20175M 20176M 20176B 20205M 20206M 20206B 20256M 20257M
             20257B 20331M 20332M 20332B 20362M 20363M 20363B 20486M 20487M 20487B 20556M 20557M 20557B 20749M 20752
             20774M 20777B 20794  20856  20857M 20866M 20867M 20867B 20911M 20914B 20960  21006M 21009B 21065  21106M
             21107  21114M 21115M 21115B 21160M 21161N 21162N 21166M 21166  21183M 21184M 21184B 21202M 21203  21203
             21207M 21207  21222M 21223  21224  21225  21230M 21231  21234M 21235M 21235B 21238M 21241  21242  21243
             21265M 21266M 21266B 21291M 21292M 21292B 21369M 21370N 21371N 21375M 21375  21393M 21394  21395  21396
             21401M 21402  21405M 21406M 21406B 21409M 21412  21413  21414  21439M 21440M 21440B 21449M 21450M 21450B
             21872M 21875  21897M 21900B 21993  22044M 22047B 22059  22110M 22113B 22126  22172M 22175B 22244  22289M
             22290M 22290B 22300M 22301M 22301B 22318M 22321B 22339  22384M 22385M 22385B 22395M 22396M 22396B 22413M
             22416B 22435  22468M 22469M 22469B 22604M 22607B 22648  22700M 22701M 22701B 22743M 22757M 22824M 22825M
             22825B 22942M 22945B 22967  23010M 23011M 23011B 23174M 23175M 23175B 23209M 23212B 23255  23299M 23300M
             23300B 23327M 23328M 23328B 23416M 23417M 23417B 23469M 23470M 23470B 23921M 23924B 23997  24041M 24042M
             24042B 24083M 24084M 24084B 24088M 24089M 24089B 24262M 24265B 24282  24326M 24327M 24327B 24368M 24369M
             24369B 24373M 24374M 24374B 24425M 24426M 24426B 24547M 24550B 24567  24611M 24612M 24612B 24653M 24654M
             24654B 24658M 24659M 24659B 24678M 24679M 24679B 24816M 24819B 24836  24880M 24881M 24881B 25026M 25029B
             25072  25116M 25117M 25117B 25332M 25333  25344M 25345M 25345N 25346M 25346N 25347  25347M 25348M 25349
             25369M 25370M 25370B 25401M 25402  25413M 25414  25415M 25416M 25416N 25417M 25417N 25418  25418M 25419M
             25420  25440M 25441M 25441B 25656M 25659B 25744  25805M 25806M 25806B 25868M 25869M 25869B 25968M 25969
1         (FUNC2193) (12:45) (15MAR04) General Purpose Register Cross Reference                                             Page  376
             25989M 25990N 25991N 25995M 25995  26005M 26006  26007  26008  26013M 26014  26017M 26018M 26018B 26021M
             26024  26025  26026  26030M 26033  26170M 26171M 26171B 26194M 26195M 26195B 26217M 26218M 26218B 26359M
             26360M 26360B 26397M 26400B 26492  26538M 26541B 26553  26605M 26608B 26620  26666M 26669B 26681  26732M
             26735B 26747  26798M 26799M 26799B 26816M 26817M 26817B 26827M 26828M 26828B 26846M 26849B 26895  26939M
             26940M 26940B 26984M 26985M 26985B 27084M 27085M 27085B 27105M 27106M 27106B 27215M 27216M 27216B 27248M
             27251B 27308  27367M 27368  27398M 27399M 27399B 27551M 27552M 27552B 27599M 27600N 27601N 27605M 27605
             27615M 27616  27617  27618  27623M 27624  27627M 27628M 27628B 27631M 27634  27635  27636  27680M 27681M
             27681B 27698M 27699M 27699B 27709M 27710M 27710B 27722M 27726  27728N 27751M 27752M 27752B 27755M 27778M
             27779M 27779B 28077M 28078M 28078B 28088M 28091  28118M 28121B 28301  28352M 28355B 28367  28418M 28421B
             28433  28484M 28487B 28499  28550M 28553B 28565  28617M 28620B 28632  28683M 28686B 28698  28750M 28753B
             28765  28816M 28819B 28831  28882M 28885B 28897  28944M 28947B 28959  29005M 29008B 29036  29069M 29070M
             29070B 29289M 29290M 29290B 29319M 29322B 29443  29502M 29503  29579M 29580M 29580B 29755M 29756N 29757N
             29761M 29761  29771M 29772  29773  29774  29779M 29780  29783M 29784M 29784B 29787M 29790  29791  29792
             29836M 29837M 29837B 29854M 29855M 29855B 29865M 29866M 29866B 29877M 29881  29883N 29906M 29907M 29907B
             29910M 29933M 29934M 29934B 30168M 30169M 30169B 30245M 30248  30275M 30278B 30683  30738M 30741B 30753
             30811M 30814B 30826  30877M 30880B 30892  30943M 30946B 30958  31009M 31012B 31024  31076M 31079B 31091
             31142M 31145B 31157  31208M 31211B 31223  31275M 31278B 31290  31342M 31345B 31357  31408M 31411B 31423
             31475M 31478B 31490  31541M 31544B 31556  31607M 31610B 31622  31674M 31677B 31689  31741M 31744B 31756
             31807M 31810B 31822  31873M 31876B 31888  31939M 31942B 31954  32005M 32008B 32020  32071M 32074B 32086
             32133M 32136B 32148  32194M 32197B 32209  32260M 32263B 32275  32346M 32349B 32361  32407M 32410B 32435
             32480M 32481M 32481B 32491M 32492M 32492B 32509M 32512B 32532  32565M 32566M 32566B 32636M 32637M 32637B
             32648M 32649M 32649B 32670M 32673B 32691  32736M 32737M 32737B 32747M 32748M 32748B 32765M 32768B 32786
             32819M 32820M 32820B 32893M 32894M 32894B 32957M 32958M 32958B 32968M 32969M 32969B 33036M 33038M 33077M
             33080B 33147  33180M 33181M 33181B 33257M 33258M 33258B 33268M 33269M 33269B 33355M 33356M 33356B 33449M
             33452B 33473  33506M 33507M 33507B 33588M 33589M 33589B 33704M 33707B 33725  33758M 33759M 33759B 33835M
             33836M 33836B 33846M 33847M 33847B 33924M 33925M 33925B 33935M 33936M 33936B 33976M 33977M 33977B 33987M
             33988M 33988B 34048M 34049M 34049B 34081M 34082M 34082B 34142M 34143M 34143B 34262M 34265B 34286  34319M
             34320M 34320B 34406M 34407M 34407B 34522M 34525B 34578  34611M 34612M 34612B 34682M 34683M 34683B 34712M
             34715B 34735  34770M 34771M 34771B 34838M 34839M 34839B 34883M 34884M 34884B 34933M 34934M 34934B 34995M
             34996M 34996B 35031M 35034B 35054  35089M 35090M 35090B 35155M 35156M 35156B 35199M 35200M 35200B 35249M
             35250M 35250B 35285M 35288B 35310  35343M 35344M 35344B 35404M 35405M 35405B 35479M 35480M 35480B 35579M
             35580M 35580B 35696M 35699B 35719  35754M 35755M 35755B 35822M 35823M 35823B 35867M 35868M 35868B 35917M
             35918M 35918B 35979M 35980M 35980B 36015M 36018B 36067  36102M 36103M 36103B 36170M 36171M 36171B 36215M
             36216M 36216B 36265M 36266M 36266B 36327M 36328M 36328B 36363M 36366B 36386  36421M 36422M 36422B 36489M
             36490M 36490B 36534M 36535M 36535B 36584M 36585M 36585B 36646M 36647M 36647B 36682M 36685B 36705  36740M
             36741M 36741B 36808M 36809M 36809B 36853M 36854M 36854B 36903M 36904M 36904B 36965M 36966M 36966B 37001M
             37004B 37022  37055M 37056M 37056B 37191M 37194B 37212  37257M 37258M 37258B 37268M 37269M 37269B 37286M
             37289B 37341  37392M 37393M 37393B 37592M 37593M 37593B 37610M 37611M 37611B 37621M 37622M 37622B 38045M
             38048B 38066  38099M 38100M 38100B 38211M 38214B 38232  38265M 38266M 38266B 38377M 38380B 38400  38433M
             38434M 38434B 38504M 38505M 38505B 38516M 38517M 38517B 38538M 38541B 38563  38596M 38597M 38597B 38627M
             38628M 38628B 38655M 38656M 38656B 38750M 38751M 38751B 38827M 38828M 38828B 38857M 38860B 38901  38946M
             38947M 38947B 38994M 38995M 38995B 39005M 39006M 39006B 39018M 39019M 39019B 39047M 39048M 39048B 39058M
             39059M 39059B 39130M 39131M 39131B 39142M 39143M 39143B 39169M 39172B 39198  39231M 39232M 39232B 39367M
             39370B 39432  39466M 39467M 39467B 39509M 39510M 39510B 39548M 39549M 39549B 39584M 39587B 39603  39637M
             39638M 39638B 39680M 39681M 39681B 39719M 39720M 39720B 39755M 39758B 39776  39821M 39822M 39822B 39832M
             39833M 39833B 39850M 39853B 39895  39928M 39929M 39929B 40064M 40067B 40085  40130M 40131M 40131B 40141M
             40142M 40142B 40159M 40162B 40180  40213M 40214M 40214B 40243M 40244M 40244B 40354M 40357B 40396  40440M
             40441M 40441B 40477M 40478M 40478B 40495M 40496M 40496B 40684M 40685M 40685B 40717M 40720B 40780  40831M
             40832M 40832B 40882M 40883M 40883B 40920M 40921M 40921B 40926M 40927M 40927B 40943M 40944M 40944B 41068M
             41071B 41090  41141M 41142M 41142B 41197M 41198M 41198B 41234M 41235M 41235B 41301M 41302M 41302B 41312M
             41313M 41313B 41423M 41424M 41424B 41434M 41435M 41435B 41498M 41499M 41499B 41537M 41538M 41538B 41578M
             41581B 41600  41651M 41652M 41652B 41703M 41704M 41704B 41740M 41741M 41741B 41746M 41747M 41747B 41794M
             41795M 41795B 41805M 41806M 41806B 41858M 41859M 41859B 42019M 42022B 42041  42092M 42093M 42093B 42144M
             42145M 42145B 42181M 42182M 42182B 42219M 42220M 42220B 42230M 42231M 42231B 42283M 42284M 42284B 42446M
             42447M 42447B 42478M 42481B 42500  42551M 42552M 42552B 42603M 42604M 42604B 42640M 42641M 42641B 42678M
             42679M 42679B 42689M 42690M 42690B 42789M 42790M 42790B 42854M 42857B 42876  42927M 42928M 42928B 42979M
             42980M 42980B 43016M 43017M 43017B 43054M 43055M 43055B 43065M 43066M 43066B 43118M 43119M 43119B 43281M
             43282M 43282B 43313M 43316B 43335  43386M 43387M 43387B 43438M 43439M 43439B 43475M 43476M 43476B 43513M
             43514M 43514B 43524M 43525M 43525B 43577M 43578M 43578B 43740M 43741M 43741B 43772M 43775B 43794  43852M
1         (FUNC2193) (12:45) (15MAR04) General Purpose Register Cross Reference                                             Page  377
             43853  43861M 43862M 43862B 43905M 43906N 43907N 43911M 43911  43921M 43922  43923  43924  43929M 43930
             43933M 43934M 43934B 43937M 43940  43941  43942  43992M 43993M 43993B 44021M 44022M 44022B 44042M 44043M
             44043B 44120M 44121M 44121B 44185M 44186M 44186B 44200M 44203  44225M 44228B 44274  44325M 44328B 44340
             44386M 44389B 44415  44466M 44467M 44467B 44518M 44519M 44519B 44555M 44556M 44556B 44593M 44594M 44594B
             44604M 44605M 44605B 44657M 44658M 44658B 44820M 44821M 44821B 44852M 44855B 44874  44925M 44926M 44926B
             44977M 44978M 44978B 45014M 45015M 45015B 45052M 45053M 45053B 45063M 45064M 45064B 45115M 45116M 45116B
             45166M 45167M 45167B 45359M 45362B 45381  45432M 45433M 45433B 45484M 45485M 45485B 45521M 45522M 45522B
             45527M 45528M 45528B 45575M 45576M 45576B 45586M 45587M 45587B 45655M 45656M 45656B 45816M 45819B 45844
             45885M 45886M 45886B 45947M 45950B 46029  46062M 46063M 46063B 46190M 46193B 46233  46285M 46286M 46286B
             46358M 46359M 46359B 46391M 46392M 46393  46449M 46450M 46450B 46460M 46461M 46461B 46528M 46535M 46538M
             46585M 46588B 46640  46691M 46692M 46692B 46891M 46892M 46892B 46909M 46910M 46910B 46920M 46921M 46921B
             47354M 47357B 47377  47418M 47419  47426M 47427M 47427B 47466M 47467N 47468N 47472M 47472  47482M 47483
             47484  47485  47493M 47494M 47494B 47497M 47500  47501  47502  47532M 47533N 47534N 47538M 47538  47633M
             47636  47658M 47661B 47681  47722M 47723  47730M 47731M 47731B 47763M 47764N 47765N 47769M 47769  47779M
             47780  47781  47782  47790M 47791M 47791B 47794M 47797  47798  47799  47925M 47928  47950M 47953B 47972
             48005M 48006M 48006B 48139M 48142B 48164  48197M 48198M 48198B 48229M 48230M 48230B 48257M 48258M 48258B
             48347M 48348M 48348B 48466M 48469B 48509  48554M 48555M 48555B 48611M 48612M 48612B 48622M 48623M 48623B
             48634M 48635M 48635B 48656M 48657M 48657B 48815M 48816M 48816B 48837M 48838M 48838B 48851M 48852M 48852B
             48881M 48882M 48882B 48892M 48893M 48893B 49015M 49018B 49043  49088M 49089M 49089B 49099M 49100M 49100B
             49117M 49120B 49141  49174M 49175M 49175B 49242M 49243M 49243B 49272M 49275B 49293  49338M 49339M 49339B
             49349M 49350M 49350B 49367M 49370B 49389  49422M 49423M 49423B 49465M 49466M 49466B 49469M 49470M 49470B
             49582M 49585B 49638  49699M 49700M 49700B 49780M 49781M 49781B 49791M 49792M 49792B 50003M 50004M 50004B
             50021M 50022M 50022B 50032M 50033M 50033B 50104M 50105M 50105B 50115M 50116M 50116B 50410M 50413B 50436
             50469M 50470M 50470B 50535M 50536M 50536B 50660M 50661M 50661B 50745M 50748B 50766  50811M 50812M 50812B
             50822M 50823M 50823B 50841M 50844B 50880  50923M 50924M 50924B 51042M 51043M 51043B 51185M 51188B 51296
             51339M 51340M 51340B 51459M 51460M 51460B 51491M 51492M 51492B 51642M 51645B 51707  51740M 51741M 51741B
             51780M 51781M 51781B 51886M 51889B 51908  51951M 51952M 51952B 52157M 52158M 52158B 52176M 52249M 52296M
             52298M 52408M 52411B 52431  52476M 52477M 52477B 52487M 52488M 52488B 52505M 52508B 52526  52559M 52560M
             52560B 52695M 52698B 52763  52806M 52807M 52807B 52932M 52933M 52933B 53046M 53049B 53091  53132M 53133
             53139M 53143  53145N 53168M 53169M 53169B 53172M 53180M 53181M 53181B 53225M 53226M 53226B 53260M 53261M
             53261B 53385M 53386M 53386B 53565M 53566M 53566B 53585M 53588  53610M 53613B 53635  53678M 53679M 53679B
             53836M 53837M 53837B 53871M 53874B 53893  53937M 53938M 53938B 54005M 54006M 54006B 54016M 54017M 54017B
             54058M 54059M 54059B 54069M 54070M 54070B 54085M 54086M 54086B 54204M 54207B 54226  54270M 54271M 54271B
             54338M 54339M 54339B 54349M 54350M 54350B 54391M 54392M 54392B 54402M 54403M 54403B 54418M 54419M 54419B
             54538M 54541B 54561  54594M 54595M 54595B 54665M 54666M 54666B 54695M 54698B 54716  54749M 54750M 54750B
             54791M 54792M 54792B 54830M 54831M 54831B 54866M 54869B 54957  55009M 55010M 55010B 55057M 55058M 55058B
             55068M 55069M 55069B 55081M 55082M 55082B 55110M 55111M 55111B 55121M 55122M 55122B 55193M 55194M 55194B
             55228M 55231B 55256  55301M 55302M 55302B 55312M 55313M 55313B 55331M 55334B 55352  55397M 55398M 55398B
             55408M 55409M 55409B 55426M 55429B 55447  55492M 55493M 55493B 55503M 55504M 55504B 55521M 55524B 55542
             55587M 55588M 55588B 55598M 55599M 55599B 55616M 55619B 55635  55669M 55670M 55670B 55712M 55713M 55713B
             55751M 55752M 55752B 55787M 55790B 55806  55840M 55841M 55841B 55883M 55884M 55884B 55922M 55923M 55923B
             55958M 55961B 55979  56012M 56013M 56013B 56108M 56109M 56109B 56193M 56194M 56194B 56319M 56322B 56340
             56385M 56386M 56386B 56396M 56397M 56397B 56414M 56417B 56435  56480M 56481M 56481B 56491M 56492M 56492B
             56509M 56512B 56578  56637M 56638  56646M 56647M 56647B 56822M 56823N 56824N 56828M 56828  56838M 56839
             56840  56841  56846M 56847  56850M 56851M 56851B 56854M 56857  56858  56859  56903M 56904M 56904B 56921M
             56922M 56922B 56932M 56933M 56933B 57019M 57020M 57020B 57030M 57031M 57031B 57140M 57141M 57141B 57166M
             57167M 57167B 57263M 57264M 57264B 57283M 57284M 57284B 57483M 57484M 57484B 57543M 57544M 57544B 57607M
             57608M 57608B 57707M 57710  57737M 57740B 57845  57896M 57899B 57911  57962M 57965B 57977  58028M 58031B
             58043  58094M 58097B 58109  58160M 58163B 58175  58221M 58224B 58389  58440M 58441M 58441B 58525M 58526M
             58526B 58558M 58559M 58559B 58910M 58911M 58911B 58993M 58994M 58994B 59045M 59046M 59046B 59076M 59077M
             59077B 59195M 59196M 59196B 59235M 59238B 59257  59341M 59342M 59342B 59639M 59641B 59688  59729M 59730
             59736M 59740  59742N 59765M 59766M 59766B 59769M 59777M 59778M 59778B 59885M 59886M 59886B 59924M 59925M
             59925B 59963M 59964M 59964B 59983M 59984M 59984B 60142M 60143M 60143B 60170M 60173  60195M 60198B
    15(F)      922U  2329   8352M  8352   8436M  8436   8492M  8522M  8522   8623M  8651M  8669M  8674M  8711M  8739M
              8757M  8762M  9085M  9103M  9103   9139M  9139   9305M  9305   9324M  9324   9466M  9488M  9510M  9528M
              9556M  9574M  9580M  9599M  9599  10442M 10448M 10467M 10467  10556M 10636  10672M 10672  10684M 10684
             10699  10700M 10743M 10743  10798M 10798  10815M 10815  10844M 10844  10974M 10974  11209M 11299M 11305M
             11440M 11440  11569M 11569  11601M 11643  11720M 11720  11731M 11763M 11763  11961M 11961  12117M 12117
             12273M 12273  12402M 12402  12456M 12456  12491M 12491  12647M 12647  12945M 13030M 13036M 13040M 13042M
1         (FUNC2193) (12:45) (15MAR04) General Purpose Register Cross Reference                                             Page  378
             13044M 13045M 13046  13051M 13051  13093M 13093  13223M 13360M 13360  13402M 13402  13568M 13570M 13684M
             13684  13728  13985M 13985  14025M 14025  14086M 14120M 14120  14207M 14208M 14209  14310M 14311M 14326M
             14326  14363M 14363  14424M 14458M 14458  14519M 14553M 14553  14614M 14648M 14648  14790M 14798  14799M
             14944M 14944  14986M 14986  15047M 15081M 15081  15142M 15176M 15176  15299M 15395M 15395  15431M 15431
             15485M 15485  15527M 15527  15828M 15828  15881M 15920M 15920  15941M 15973M 15973  16010M 16010  16065M
             16065  16082M 16082  16117M 16117  16288M 16451M 16451  16486M 16486  16566M 16566  16579M 16579  16614M
             16614  16768M 16873M 16873  17032M 17032  17073M 17078M 17113M 17113  17376M 17376  17385M 17385  17450M
             17450  17540M 17540  17628M 17628  17710M 17710  17745M 17745  17821M 17840M 17840  18040M 18040  18049M
             18049  18102M 18102  18115M 18115  18150  18185  18296M 18296  18384M 18384  18466M 18466  18503M 18503
             18579M 18598M 18598  18766M 18766  18817M 18817  18826M 18826  18880M 18880  18904M 18943M 18947M 18956M
             18956  18963  18993M 18993  19071M 19071  19106M 19106  19182M 19201M 19201  19408M 19408  19417M 19417
             19511  19622M 19622  19710M 19710  19745M 19745  19821M 19840M 19840  20050M 20050  20101M 20101  20110M
             20110  20192M 20192  20278M 20278  20640M 20640  20736M 20736  20776M 20776  20834  20856  20888M 20913M
             20913  20989M 21008M 21008  21193M 21193  21244M 21244  21253M 21253  21301M 21301  21415M 21415  21424M
             21424  21459M 21459  21771M 21771  21859M 21859  21899M 21899  22046M 22046  22112M 22112  22155M 22174M
             22174  22286M 22320M 22320  22381M 22415M 22415  22606M 22606  22748M 22756  22757M 22902M 22902  22944M
             22944  23211M 23211  23886M 23886  23923M 23923  24085M 24222M 24222  24264M 24264  24370M 24408M 24507M
             24507  24549M 24549  24655M 24661M 24776M 24776  24818M 24818  24986M 24986  25028M 25028  25359M 25359
             25366M 25430M 25430  25437M 25616M 25616  25658M 25658  25903M 25906  25918M 25926M 25935M 25935  25942
             26027M 26027  26042M 26042  26158M 26158  26191M 26214M 26347M 26347  26399M 26399  26540M 26540  26607M
             26607  26668M 26668  26734M 26734  26795M 26813M 26829M 26848M 26848  27019M 27022  27034M 27042M 27051M
             27051  27058  27081M 27102M 27203M 27203  27250M 27250  27486M 27486  27637M 27637  27646M 27646  27677M
             27695M 27711M 27726  27748M 27755M 27759M 27780  27819D 27821M 27821  27822M 27823U 27824M 27825M 27832
             27920M 27920  28083M 28083  28120M 28120  28354M 28354  28420M 28420  28486M 28486  28552M 28552  28619M
             28619  28685M 28685  28752M 28752  28818M 28818  28884M 28884  28946M 28946  28988M 29007M 29007  29321M
             29321  29667M 29667  29793M 29793  29802M 29802  29833M 29851M 29867M 29881  29903M 29910M 29914M 29935
             30011M 30011  30174M 30174  30277M 30277  30740M 30740  30813M 30813  30879M 30879  30945M 30945  31011M
             31011  31078M 31078  31144M 31144  31210M 31210  31277M 31277  31344M 31344  31410M 31410  31477M 31477
             31543M 31543  31609M 31609  31676M 31676  31743M 31743  31809M 31809  31875M 31875  31941M 31941  32007M
             32007  32073M 32073  32135M 32135  32196M 32196  32262M 32262  32348M 32348  32390M 32409M 32409  32477M
             32511M 32511  32672M 32672  32733M 32767M 32767  32954M 33037M 33038M 33042M 33042  33079M 33079  33210M
             33221M 33221  33235  33254M 33417M 33417  33451M 33451  33670M 33670  33706M 33706  33832M 33921M 33973M
             34040M 34071  34127M 34227M 34227  34264M 34264  34488M 34488  34524M 34524  34714M 34714  35033M 35033
             35287M 35287  35401M 35406M 35476M 35550M 35550  35559M 35662M 35662  35698M 35698  36017M 36017  36365M
             36365  36684M 36684  37003M 37003  37193M 37193  37254M 37288M 37288  37589M 37607M 37778M 37778  37896M
             37914M 37914  37951M 37951  38006M 38006  38023M 38023  38047M 38047  38213M 38213  38379M 38379  38540M
             38540  38640M 38640  38859M 38859  38991M 39044M 39171M 39171  39369M 39369  39506M 39543  39586M 39586
             39677M 39714  39757M 39757  39818M 39852M 39852  40066M 40066  40127M 40161M 40161  40240M 40320M 40320
             40356M 40356  40657M 40657  40690M 40690  40719M 40719  40892M 40909M 40914  40917M 40923M 40940M 41029M
             41029  41070M 41070  41207M 41224M 41229  41231M 41267M 41279  41298M 41325M 41334M 41334  41341  41389M
             41401  41420M 41447M 41456M 41456  41463  41495M 41532  41580M 41580  41713M 41730M 41735  41737M 41743M
             41760M 41772  41791M 41818M 41827M 41827  41834  41854M 41980M 41980  42021M 42021  42154M 42171M 42176
             42178M 42185M 42197  42216M 42243M 42252M 42252  42259  42280M 42434M 42434  42480M 42480  42613M 42630M
             42635  42637M 42644M 42656  42675M 42702M 42711M 42711  42718  42786M 42815M 42815  42856M 42856  42989M
             43006M 43011  43013M 43020M 43032  43051M 43078M 43087M 43087  43094  43115M 43269M 43269  43315M 43315
             43448M 43465M 43470  43472M 43479M 43491  43510M 43537M 43546M 43546  43553  43574M 43728M 43728  43774M
             43774  43943M 43943  43952M 43952  43962M 43979M 43984  43989M 44018M 44039M 44052M 44052  44227M 44227
             44327M 44327  44369M 44388M 44388  44528M 44545M 44550  44552M 44559M 44571  44590M 44617M 44626M 44626
             44633  44654M 44808M 44808  44854M 44854  44987M 45004M 45009  45011M 45018M 45030  45049M 45076M 45085M
             45085  45092  45112M 45163M 45205M 45205  45320M 45320  45361M 45361  45494M 45511M 45516  45518M 45524M
             45541M 45553  45572M 45599M 45608M 45608  45615  45652M 45777M 45777  45818M 45818  45949M 45949  46192M
             46192  46446M 46529M 46535M 46537M 46538M 46545M 46545  46587M 46587  46888M 46906M 47085M 47085  47205M
             47223M 47223  47260M 47260  47315M 47315  47332M 47332  47356M 47356  47503M 47503  47512M 47512  47614M
             47614  47626M 47626  47660M 47660  47800M 47800  47809M 47809  47906M 47906  47918M 47918  47952M 47952
             48110M 48110  48141M 48141  48242M 48242  48437M 48437  48468M 48468  48608M 48784M 48784  48878M 48977M
             48977  49017M 49017  49085M 49119M 49119  49274M 49274  49335M 49369M 49369  49547M 49547  49584M 49584
             49777M 50000M 50018M 50101M 50370M 50370  50412M 50412  50747M 50747  50808M 50824M 50843M 50843  50984M
             50988M 50997M 50997  51004  51023M 51086M 51086  51141M 51141  51187M 51187  51400M 51404M 51413M 51413
             51420  51439M 51473M 51602M 51602  51644M 51644  51774M 51857M 51857  51888M 51888  52176M 52188M 52188
1         (FUNC2193) (12:45) (15MAR04) General Purpose Register Cross Reference                                             Page  379
             52251M 52297M 52298M 52318M 52321  52333M 52340M 52342  52368M 52368  52410M 52410  52473M 52507M 52507
             52697M 52697  52945M 53013M 53013  53048M 53048  53143  53165M 53172M 53553M 53553  53612M 53612  53873M
             53873  54002M 54055M 54165M 54165  54177M 54177  54206M 54206  54335M 54388M 54499M 54499  54511M 54511
             54540M 54540  54697M 54697  54825  54868M 54868  55054M 55107M 55230M 55230  55298M 55314M 55333M 55333
             55394M 55428M 55428  55489M 55523M 55523  55584M 55618M 55618  55709M 55746  55789M 55789  55880M 55917
             55960M 55960  56321M 56321  56382M 56416M 56416  56477M 56511M 56511  56734M 56734  56860M 56860  56869M
             56869  56900M 56918M 57016M 57137M 57163M 57301  57388  57425  57480M 57540M 57604M 57695M 57695  57739M
             57739  57898M 57898  57964M 57964  58030M 58030  58096M 58096  58162M 58162  58204M 58223M 58223  59047
             59087  59107  59131M 59131  59137  59237M 59237  59531M 59531  59546  59558  59576M 59740  59762M 59769M
             60197M 60197

1FUNC     (FUNC2193) (12:45) (15MAR04) Diagnostic Cross Reference and Assembler Summary                                     Page  380
-                                                                                            HLASM R4.0  2004/03/15 12.45
0     No Statements Flagged in this Assembly
 HIGH LEVEL ASSEMBLER, 5696-234, RELEASE 4.0, PTF P72483
0SYSTEM: OS/390 02.10.00            JOBNAME: WYL#FUNC    STEPNAME: ASM        PROCSTEP: (NOPROC)
0Datasets Allocated for this Assembly
  Con DDname   Dataset Name                                 Volume  Member
   P1 SYSIN    WYL.GS.WYL.WYLBUR.SOURCE                     SYSB05  FUNC
   L1 SYSLIB   WYL.GS.WYL.WYLBUR.MACLIB                     SYSB05
   L2          WYL.GG.SYS.MACLIB                            SYSB05
   L3          SYS3.IS.MACLIB                               SYSB05
   L4          SYS3.MACLIB                                  SYSB02
   L5          SYS1.MACLIB                                  MVSBR9
   L6          SYS1.MODGEN                                  MVSBR9
      SYSPRINT SYS04075.T124544.RA000.WYL#FUNC.PRINT.H01    SCR100
      SYSTERM  GG$SLP.WYL#FUNC.JOB03528.D0000101.?

    3668K allocated to Buffer Pool,         7065K would be required for this to be an In-Storage Assembly
    7087 Primary Input Records Read         8445 Library Records Read                802 Work File Reads
       0 ASMAOPT Records Read              34029 Primary Print Records Written       853 Work File Writes
       0 Punch Records Written                 0 ADATA Records Written
0Assembly Start Time: 12.45.46 Stop Time: 12.46.15 Processor Time: 00.00.12.7996
 Return Code 000
