1                        J E S 2  J O B  L O G  --  S Y S T E M  S Y S B  --  N O D E  R L G
0
 12.50.57 JOB03553 ---- MONDAY,    15 MAR 2004 ----
 12.50.57 JOB03553  ICH70001I GG$SLP   LAST ACCESS AT 12:50:53 ON MONDAY, MARCH 15, 2004
 12.50.57 JOB03553  $HASP373 WYL#PAGE STARTED - INIT 9    - CLASS B - SYS SYSB
 12.50.57 JOB03553  ***  HCMD      STEP $$QUIET
 12.50.57 JOB03553  PUR * Q OUT MUL
 12.50.57 JOB03553  JOB 5414 WYL#PAGE WILL BE PURGED
 12.50.58 JOB03553  WYL#PAGE.$$QUIET .         RC=Zero TapeIO=0000 DiskIO=0000 CPU=  .01s Elapsed=57.36s
 12.51.16 JOB03553  WYL#PAGE.ASM     .         RC=Zero TapeIO=0000 DiskIO=0891 CPU= 9.02s Elapsed=58.40s
 12.51.19 JOB03553  WYL#PAGE.EDIT    .         RC=Zero TapeIO=0000 DiskIO=0444 CPU= 1.41s Elapsed=76.65s
 12.51.19 JOB03553  WYL#PAGE Ended.  Name=Assemble PAGE                  Total CPU=10.44s Elapsed=57.36s
 12.51.19 JOB03553
 12.51.19 JOB03553  Execution charges   Priority=Standard   Block=Day
 12.51.19 JOB03553
 12.51.19 JOB03553  CPU Usage         193.87         $120.19   Standard Processing Unit Equivalent
 12.51.19 JOB03553                                   =======
 12.51.19 JOB03553                                   $120.19   Total Job execution charge
 12.51.19 JOB03553
 12.51.19 JOB03553  See back separator page for print charges
 12.51.19 JOB03553
 12.51.19 JOB03553  $HASP395 WYL#PAGE ENDED  ASM=0, EDIT=0
1        1 //WYL#PAGE JOB SLP$GG,'Assemble PAGE',TIME=4,REGION=4M                  JOB03553
           //*
           /*JOBPARM LINES=99,COPIES=1
           /*JOBPARM FORMS=3HOL,PFORMAT=LAND,CHARS=BD13,DUPLEX=YES,FLASH=BAR4
           //*
           /*JOBPARM NOTIFY=GG.SLP,HOLD=OUTPUT                                     WYLGEN
         2 //$$QUIET EXEC PGM=HCMDX,PARM='PUR * Q OUT MUL'
           //*
         3 //ASM    EXEC PGM=ASMA90,REGION=8M,
           //            PARM=('NORENT,TERM,FLAG(NOCONT),US(MAP,WARN(10)),NODECK',
           //            'LC(32767),XREF(SHORT),ESD,DXREF,NOOBJECT')
         4 //STEPLIB DD DSN=SYS3.IS.TESTASM,DISP=SHR
         5 //SYSLIB   DD  DSN=WYL.GS.WYL.WYLBUR.MACLIB,DISP=SHR
         6 //         DD  DSN=WYL.GG.SYS.MACLIB,DISP=SHR
         7 //         DD  DSN=SYS3.IS.MACLIB,DISP=SHR
         8 //         DD  DSN=SYS3.MACLIB,DISP=SHR
         9 //         DD  DSN=SYS1.MACLIB,DISP=SHR
        10 //         DD  DSN=SYS1.MODGEN,DISP=SHR
        11 //SYSUT1   DD DSN=&&SYSUT1,UNIT=VIO,DISP=(,DELETE),
           //            SPACE=(4088,(500,250),,CONTIG,ROUND)
        12 //SYSTERM  DD SYSOUT=T
        13 //SYSPRINT DD DSN=&&PRINT,UNIT=SYSDA,DISP=(,PASS),
           //            SPACE=(6650,(250,250),RLSE),
           //            DCB=(BLKSIZE=6650,LRECL=133,RECFM=FB)
        14 //SYSUDUMP DD SYSOUT=A
        15 //SYSIN    DD  DSN=WYL.GS.WYL.WYLBUR.SOURCE(PAGE),DISP=SHR
           //*
        16 //EDIT    EXEC PGM=ASMEDIT,TIME=2,REGION=4000K,
           //             PARM='STMT'
        17 //STEPLIB  DD  DSN=WYL.GG.SYS.LINKLIB,DISP=SHR
        18 //ASMOUT   DD  DSN=&PRINT,DISP=(OLD,DELETE)
        19 //SYSPRINT DD  SYSOUT=A
1 STMT NO. MESSAGE
 -
        11 IGD01010I STORCLAS= TEMP STORGROUP =
        11 IGD01010I STORGRP=VIO ASSIGNED.
        13 IGD01010I STORCLAS= TEMP STORGROUP =
        13 IGD01010I STORGRP=VIO ASSIGNED.
 ICH70001I GG$SLP   LAST ACCESS AT 12:50:53 ON MONDAY, MARCH 15, 2004
 IEF142I WYL#PAGE $$QUIET - STEP WAS EXECUTED - COND CODE 0000
 *********************************************************************************
 *   WYL#PAGE/$$QUIET /                    Return Code      Zero                 *
 *   Region used      260K (16K user + 244K system)                              *
 *   Extended region  9464K (4K user + 9460K system)                             *
 *                                                                               *
 *   Paging              In      Out                                             *
 *   Private <-> Aux      0        0       CPU time (TCB)   00:00:00.01          *
 *   Private <-> Exp      0        0       CPU time (SRB)   00:00:00.00          *
 *   VIO                  0        0       Elapsed time    917:36:55.60          *
 *   Common               0      ---                                             *
 *                                                                               *
 *                                                                               *
 *   CPU Usage          0.18         $0.11  Standard Processing Unit Equivalent  *
 *                                   $0.11  Total Step execution charge          *
 *                                                                               *
 *    I/O count  DDname   Type Addr           I/O count  DDname   Type Addr      *
 *                         *** No I/O for this step ***                          *
 *********************************************************************************
 IEF373I STEP/$$QUIET /START 2004075.1250
 IEF374I STEP/$$QUIET /STOP  2004075.1250 CPU    0MIN 00.01SEC SRB    0MIN 00.00SEC VIRT    16K SYS   244K EXT       4K SYS    9460K
 IEF236I ALLOC. FOR WYL#PAGE ASM
 IEF237I 04DC ALLOCATED TO STEPLIB
 IEF237I 04DC ALLOCATED TO SYSLIB
 IEF237I 04DC ALLOCATED TO
 IEF237I 04DC ALLOCATED TO
 IEF237I 0402 ALLOCATED TO
 IEF237I 04A0 ALLOCATED TO
 IEF237I 04A0 ALLOCATED TO
 IGD101I SMS ALLOCATED TO DDNAME (SYSUT1  )
         DSN (SYS04075.T125057.RA000.WYL#PAGE.SYSUT1.H01  )
         STORCLAS (TEMP) MGMTCLAS (        ) DATACLAS (        )
         VOL SER NOS= VIO
 IEF237I JES2 ALLOCATED TO SYSTERM
 IGD101I SMS ALLOCATED TO DDNAME (SYSPRINT)
         DSN (SYS04075.T125057.RA000.WYL#PAGE.PRINT.H01   )
         STORCLAS (TEMP) MGMTCLAS (        ) DATACLAS (        )
         VOL SER NOS= SCR101
 IEF237I JES2 ALLOCATED TO SYSUDUMP
 IEF237I 04DC ALLOCATED TO SYSIN
 IEF142I WYL#PAGE ASM - STEP WAS EXECUTED - COND CODE 0000
 IEF285I   SYS3.IS.TESTASM                              KEPT
 IEF285I   VOL SER NOS= SYSB05.
 IEF285I   WYL.GS.WYL.WYLBUR.MACLIB                     KEPT
 IEF285I   VOL SER NOS= SYSB05.
 IEF285I   WYL.GG.SYS.MACLIB                            KEPT
 IEF285I   VOL SER NOS= SYSB05.
 IEF285I   SYS3.IS.MACLIB                               KEPT
 IEF285I   VOL SER NOS= SYSB05.
 IEF285I   SYS3.MACLIB                                  KEPT
 IEF285I   VOL SER NOS= SYSB02.
 IEF285I   SYS1.MACLIB                                  KEPT
 IEF285I   VOL SER NOS= MVSBR9.
 IEF285I   SYS1.MODGEN                                  KEPT
 IEF285I   VOL SER NOS= MVSBR9.
 IGD105I SYS04075.T125057.RA000.WYL#PAGE.SYSUT1.H01   DELETED,   DDNAME=SYSUT1
 IEF285I   GG$SLP.WYL#PAGE.JOB03553.D0000101.?          SYSOUT
 IGD106I SYS04075.T125057.RA000.WYL#PAGE.PRINT.H01    PASSED,    DDNAME=SYSPRINT
 IEF285I   GG$SLP.WYL#PAGE.JOB03553.D0000102.?          SYSOUT
 IEF285I   WYL.GS.WYL.WYLBUR.SOURCE                     KEPT
 IEF285I   VOL SER NOS= SYSB05.
 *********************************************************************************
 *   WYL#PAGE/ASM     /                    Return Code      Zero                 *
 *   Region used      4376K (4096K user + 280K system)                           *
 *   Extended region  10080K (412K user + 9668K system)                          *
 *                                                                               *
 *   Paging              In      Out                                             *
 *   Private <-> Aux      0        0       CPU time (TCB)   00:00:08.96          *
 *   Private <-> Exp      0        0       CPU time (SRB)   00:00:00.06          *
 *   VIO                  0        0       Elapsed time    917:36:54.56          *
 *   Common               0      ---                                             *
 *                                                                               *
 *                                                                               *
 *   CPU Usage        168.00       $104.16  Standard Processing Unit Equivalent  *
 *                                 $104.16  Total Step execution charge          *
 *                                                                               *
 *    I/O count  DDname   Type Addr           I/O count  DDname   Type Addr      *
 *           83  STEPLIB  Disk 04DC                 350  SYSLIB   Disk 04DC      *
 *            0  SYSLIB   Disk 04DC                   0  SYSLIB   Disk 04DC      *
 *            0  SYSLIB   Disk 0402                   0  SYSLIB   Disk 04A0      *
 *            0  SYSLIB   Disk 04A0                 698  SYSUT1   VIO  ----      *
 *            0  SYSTERM       ----                 441  SYSPRINT Disk 04E3      *
 *            0  SYSUDUMP      ----                  17  SYSIN    Disk 04DC      *
 *********************************************************************************
 IEF373I STEP/ASM     /START 2004075.1250
 IEF374I STEP/ASM     /STOP  2004075.1251 CPU    0MIN 08.96SEC SRB    0MIN 00.06SEC VIRT  4096K SYS   280K EXT     412K SYS    9668K
 IEF236I ALLOC. FOR WYL#PAGE EDIT
 IEF237I 0402 ALLOCATED TO STEPLIB
 IGD103I SMS ALLOCATED TO DDNAME ASMOUT
 IEF237I JES2 ALLOCATED TO SYSPRINT
 IEF142I WYL#PAGE EDIT - STEP WAS EXECUTED - COND CODE 0000
 IEF285I   WYL.GG.SYS.LINKLIB                           KEPT
 IEF285I   VOL SER NOS= SYSB02.
 IGD105I SYS04075.T125057.RA000.WYL#PAGE.PRINT.H01    DELETED,   DDNAME=ASMOUT
 IEF285I   GG$SLP.WYL#PAGE.JOB03553.D0000103.?          SYSOUT
 *********************************************************************************
 *   WYL#PAGE/EDIT    /                    Return Code      Zero                 *
 *   Region used      380K (116K user + 264K system)                             *
 *   Extended region  9584K (4K user + 9580K system)                             *
 *                                                                               *
 *   Paging              In      Out                                             *
 *   Private <-> Aux      0        0       CPU time (TCB)   00:00:01.37          *
 *   Private <-> Exp      0        0       CPU time (SRB)   00:00:00.04          *
 *   VIO                  0        0       Elapsed time    917:36:36.31          *
 *   Common               0      ---                                             *
 *                                                                               *
 *                                                                               *
 *   CPU Usage         25.68        $15.92  Standard Processing Unit Equivalent  *
 *                                  $15.92  Total Step execution charge          *
 *                                                                               *
 *    I/O count  DDname   Type Addr           I/O count  DDname   Type Addr      *
 *            2  STEPLIB  Disk 0402                 442  ASMOUT   Disk 04E3      *
 *            0  SYSPRINT      ----                                              *
 *********************************************************************************
 IEF373I STEP/EDIT    /START 2004075.1251
 IEF374I STEP/EDIT    /STOP  2004075.1251 CPU    0MIN 01.37SEC SRB    0MIN 00.04SEC VIRT   116K SYS   264K EXT       4K SYS    9580K
 *********************************************************************************
 *                                                                               *
 *                      S t a n f o r d   U n i v e r s i t y                    *
 *                                                                               *
 *                              *** Job Summary ***                              *
 *                                                                               *
 *   System Id      SYSB                   Input time     12:39:24  Mar 15, 2004 *
 *                                                                               *
 *   System Release SP6.1.0                Start time     12:50:57  Mar 15, 2004 *
 *                                                                               *
 *   Job name       WYL#PAGE               Stop  time     00:00:00  Mar 15, 2004 *
 *                                                                               *
 *   Account        SLP$GG                 Elapsed time  917:36:55.60            *
 *                                                                               *
 *   User Name      Assemble PAGE          CPU time       00:00:10.34            *
 *                                                                               *
 *   Job class      B                      SRB Time       00:00:00.10            *
 *                                                                               *
 *********************************************************************************
 IEF375I  JOB/WYL#PAGE/START 2004075.1250
 IEF376I  JOB/WYL#PAGE/STOP  2004075.1251 CPU    0MIN 10.34SEC SRB    0MIN 00.10SEC
1Assembler Done PAGE No Statements Flagged
1         High Level Assembler Option Summary                   (PTF P72483 )                                               Page    1
-                                                                                            HLASM R4.0  2004/03/15 12.50
0  No Overriding ASMAOPT Parameters
   Overriding Parameters-  NORENT,TERM,FLAG(NOCONT),US(MAP,WARN(10)),NODECK,LC(32767),XREF(SHORT),ESD,DXREF,NOOBJECT
   No Process Statements


   Options for this Assembly
0  NOADATA
     ALIGN
   NOASA
     BATCH
     CODEPAGE(047C)
   NOCOMPAT
   NODBCS
 3 NODECK
 3   DXREF
 3   ESD
   NOEXIT
 3   FLAG(0,ALIGN,NOCONT,NOIMPLEN,NOPAGE0,PUSH,RECORD,NOSUBSTR,USING0)
   NOFOLD
   NOGOFF
   NOINFO
     LANGUAGE(EN)
   NOLIBMAC
 3   LINECOUNT(32767)
     LIST(121)
     MXREF(SOURCE)
 3 NOOBJECT
     OPTABLE(UNI,NOLIST)
   NOPCONTROL
   NOPESTOP
   NOPROFILE
   NORA2
 3 NORENT
     RLD
     RXREF
     SIZE(MAX)
     SYSPARM()
 3   TERM(WIDE)
   NOTEST
     THREAD
   NOTRANSLATE
 3   USING(NOLIMIT,MAP,WARN(10))
 3   XREF(SHORT)

   No Overriding DD Names

1PAGE     External Symbol Dictionary                                                                                        Page    2
-Symbol   Type   Id     Address  Length     LD ID  Flags Alias-of                            HLASM R4.0  2004/03/15 12.50
0WYLPAGE   SD 00000001 00000000 00006550             00
 PAGE2193  LD          00000000           00000001
 FREEVIEW  LD          000000A0           00000001
 GETVINFO  LD          00000118           00000001
 SETVINFO  LD          0000024E           00000001
 MNULL     ER 00000002
 MLNO      ER 00000003
 MALL      ER 00000004
 MINT      ER 00000005
 GETCORE   ER 00000006
 FREECORE  ER 00000007
 SEGINIT   ER 00000008
 SEG       ER 00000009
 CVEXNO    ER 0000000A
 SEGDC     ER 0000000B
 NSCAN     ER 0000000C
 SCANCHK   ER 0000000D
 WINDGET   LD          000006F4           00000001
 WINDPUT   LD          00000814           00000001
 MTOKEN    ER 0000000E
 MPINT     ER 0000000F
 MPLNO     ER 00000010
 ROWGET    LD          00000D2C           00000001
 ROWPUT    LD          00000E5E           00000001
 PAGETCHK  LD          0000120C           00000001
 PAGECMD   LD          00001320           00000001
 PAGEMSG   LD          000013C0           00000001
 SEGCR     ER 00000011
 SEGT      ER 00000012
 INITCMD   ER 00000013
 SEGCLR    ER 00000014
 PAGERES   LD          000016BA           00000001
 PAGEINIT  LD          0000189A           00000001
 PAGETABS  LD          00001B5E           00000001
 PAGEMAKE  LD          00001C0A           00000001
 PAGENEWW  LD          00001C50           00000001
 PAGETOP   LD          00001DD2           00000001
 PAGEBOT   LD          00001E96           00000001
 PAGECLR   LD          00001F5A           00000001
 PAGECOLS  LD          00002012           00000001
 PAGEMARK  LD          0000207C           00000001
 PAGECLRA  LD          00002120           00000001
 PAGEDEL   LD          0000217A           00000001
 PAGENUM   LD          000022B0           00000001
 PAGENCLR  LD          00002410           00000001
 PAGEFIND  LD          00002492           00000001
 TREND     ER 00000015
 SEGMARK   ER 00000016
 SEGWR     ER 00000017
 GETHCMD   ER 00000018
 TCURS     ER 00000019
 PAGEINIT  ER 0000001A
 PAGELINE  LD          000025EE           00000001
 PAGEFILL  LD          00002722           00000001
 WINDSET   LD          00002C80           00000001
1PAGE     External Symbol Dictionary                                                                                        Page    3
 WINDFIX   LD          00002CBE           00000001
 PAGESCRL  LD          00002D8A           00000001
 PAGECNT   LD          00002F02           00000001
 GETLINE   ER 0000001B
 MATLINE   ER 0000001C
 PREVLNO   ER 0000001D
 ACTPICK   ER 0000001E
 GETLNO    ER 0000001F
 SELDELTA  ER 00000020
 LOWMULT   ER 00000021
 ADDER     ER 00000022
 PAGEMOD   LD          00003006           00000001
 CHKTTYPE  ER 00000023
 SETTTYPE  ER 00000024
 UPDCPSIB  ER 00000025
 SEGB      ER 00000026
 EVALSTR   ER 00000027
 VIEWTRC   ER 00000028
 TREAD     ER 00000029
 VIEWPF    ER 0000002A
 BTD       ER 0000002B
 VIEWCMD   ER 0000002C
 RTRIM     ER 0000002D
 EDTCOM    ER 0000002E
 ACTGINFO  ER 0000002F
 SPELLINE  ER 00000030
 GTMIXTBL  ER 00000031
 RETFNAME  ER 00000032
 RETFMEM   ER 00000033
 LRTRIM    ER 00000034
 VPUTLINE  LD          00005A32           00000001
 CALCDIM   LD          00005AB2           00000001
 ESCFMT    ER 00000035
 YESREQ    ER 00000036
 XSETSET   ER 00000037
 XPUT      ER 00000038
 PUTLINE   ER 00000039
 DTB       ER 0000003A

1PAGE     WYLBUR's Page Manager                                                                                             Page    4
0Loc    Object Code    Addr1 Addr2  Stmt Lv Lineno    Source Statement                    (Asmedit 3.3)  HLASM R4.0  2004/03/15 12.50
+___    ______ ____    _____ _____  ____ __ ______    ______ _________
0                                      2              *******************************************************************
                                       3              *                                                                 *
                                       4              *     WYLBUR/370 - Release VI - Class I - Stanford Proprietary    *
                                       5              *                                                                 *
                                       6              *******************************************************************
                                       7                       HIBAL
                                     988
 000000                00000 06550   989              WYLPAGE  CSECT
                                     993              PAGE     IDENT 2193                15:11:47 07/12/02  (SLP)
                                     996             +
                                     997    01-IDENT +         ENTRY PAGE2193
                                     998             +
 000000 16D7C1C7C5F2F1F9             999    01-IDENT +PAGE2193 DC    AL1(22),C'PAGE2193,15MAR04,12:50'
                                    1000             +*
                                    1002                       REGS  FSR,,,,,,,BR,(WAR,LSR),PAR,PBR,CPR,CVR,SPR,RAR
                                    1138
                                    1139                       MACRO
                                    1140              &L       FREECURS
                                    1141                       CLEAR CPVCURS,CPVACURS
                                    1142                       MVC   CPVLNO,=F'-1000'
                                    1143                       MVC   CPVALNO,=F'-1'
                                    1144                       CLEAR CPVCOL,CPVACOL
                                    1145                       MEND
                                    1146
                                    1147                       MACRO
                                    1148              &L       FREELINT
                                    1149              &L       IF    (LINTLNO,EQ,LINTOLNO),BEGIN  Save old attributes...
                                    1150                       OC    LINTOFLG,LINTFLG    Preserve the attributes
                                    1151                       END
                                    1152                       CLEAR LINTOPT             (Also sets LINFFREE)
                                    1153                       MEND
                                    1154                       SYSDEFN
-                                   1156                       PUSH  DSECTS
 USING  CP,R11                      1167             =         USING (CP),(CV)
 USING  CV,R12
 000017                00000 06550  1186             =         POP   PRINT
1PAGE     (PAGE2193) (12:50) (15MAR04) DSECTS                                                                               Page    5
0Current Usings:  (CP,R11) (CV,R12)
0Loc    Object Code    Addr1 Addr2  Stmt Lv Lineno    Source Statement           (Hibal 5, Asmedit 3.3)  HLASM R4.0  2004/03/15 12.50
+___    ______ ____    _____ _____  ____ __ ______    ______ _________
0                                   6723                       COPY  WIND
                                    6724             =WINDMAX# EQU   6,,C'N'             Maximum number of windows
                                    6725             =
 000000                00000 00040  6726             =WIND     RECORD BEGIN
 000000 00                          6734  1          =WINDFLAG   FLAG
 WINDFLAG.WINFREWR 80 ONES          6738  1          =           FLAG  WINFREWR            - Rewrite this window
 WINDFLAG.WINFMOD  40 ONES          6743  1          =           FLAG  WINFMOD             - Mods made; recalc all linenos
 WINDFLAG.WINFUNN  20 ONES          6748  1          =           FLAG  WINFUNN             - Unnumbered
 WINDFLAG.WINFWRAP 10 ONES          6753  1          =           FLAG  WINFWRAP            - Wrap lines at right margin
                                    6758  1          =
 000001                             6759  1          =           DS    X                   Reserved
                                    6760  1          =
 000002                             6761  1          =WINDNO     DS    H                   Window number
                                    6762  1          =
 000004                             6763  1          =WINDTCNT   DS    H                   Number of text lines in window
                                    6764  1          =
 000006                             6765  1          =WINDFROW   DS    H                   First row in this window
 000008                             6766  1          =WINDLROW   DS    H                   Last row in this window
 00000A                             6767  1          =WINDTCOL   DS    H                   First text column in this window
 00000C                             6768  1          =WINDTLEN   DS    H                   Maximum text length
                                    6769  1          =
 00000E                             6770  1          =WINDFCOL   DS    H                   Starting column-1 for lines
                                    6771  1          =
 000010                             6772  1          =WINDIND    DS    H                   Default indentation (left margin)
 000012                             6773  1          =WINDMARG   DS    H                   Right margin column number
                                    6774  1          =
 000014                             6775  1          =WINDACT    DS    F                   Active file number
                                    6776  1          =
 000018                             6777  1          =WINDSLNO   DS    F                   Starting lineno in window
 00001C                             6778  1          =WINDELNO   DS    F                   Ending lineno in window
                                    6779  1          =
 000020                             6780  1          =WINDFLNO   DS    F                   First existing lineno in window
 000024                             6781  1          =WINDLLNO   DS    F                   Last existing lineno in window
                                    6782  1          =
 000028                             6783  1          =WINDOFLN   DS    F                   Old first lineno in window
 00002C                             6784  1          =WINDOLLN   DS    F                   Old last lineno in window
                                    6785  1          =
 000030                             6786  1          =WINDTABS   DS    XL16                Default tab stops for this window
                                    6787  1          =WINDNEXT   EQU   *
 000040                00040 00040  6788             =         END
1PAGE     (PAGE2193) (12:50) (15MAR04) DSECTS                                                                               Page    6
0Current Usings:  (CP,R11) (CV,R12)
0Loc    Object Code    Addr1 Addr2  Stmt Lv Lineno    Source Statement           (Hibal 5, Asmedit 3.3)  HLASM R4.0  2004/03/15 12.50
+___    ______ ____    _____ _____  ____ __ ______    ______ _________
0                                   6798                       COPY  LINT
                                    6799             =LINTMAX# EQU   80,,C'N'            Maximum number of lines on page
                                    6800             =
 000000                00000 00014  6801             =LINT     RECORD BEGIN              Line table entry
 000000                             6809  1          =LINTROW    DS    H                   Line's row number
 000002                             6810  1          =LINTWIND   DS    H                   Line's window number
                                    6811  1          =
 000004                             6812  1          =LINTOLNO   DS    F                   Previous line-number
                                    6813  1          =
 000008 00                          6814  1          =LINTOFLG   FLAG  ,                   Previous line flags
                                    6818  1          =
 000009                             6819  1          =           DS    XL3                 Reserved
                                    6820= 1          =     ¿þþþþþþþþþþþþþþþþþþþþþþþþþþþþþþþþþþþþþþþþþþþþþþþþþþþþþþþþþþþÜ
                                    6821= 1          =     Ÿ  LINT fields below get cleared when a new line is built.  Ÿ
                                    6822= 1          =     ¾þþþþþþþþþþþþþþþþþþþþþþþþþþþþþþþþþþþþþþþþþþþþþþþþþþþþþþþþþþþ»
 00000C 00                          6823  1          =LINTTYPE   FLAG
 LINTTYPE.LINFFREE 00 EQ            6827  1          =           FLAG  (LINFFREE,0,EQ)     - Empty line
 LINTTYPE.LINFNEW  01 EQ            6837  1          =           FLAG  (LINFNEW,1,EQ)      - New text line
 LINTTYPE.LINFTEXT 02 EQ            6847  1          =           FLAG  (LINFTEXT,2,EQ)     - Existing text line
 LINTTYPE.LINFCOL  03 EQ            6857  1          =           FLAG  (LINFCOL,3,EQ)      - Column line
 LINTTYPE.LINFCMD  04 EQ            6867  1          =           FLAG  (LINFCMD,4,EQ)      - Command line
 LINTTYPE.LINFMSG  05 EQ            6877  1          =           FLAG  (LINFMSG,5,EQ)      - Message line
 LINTTYPE.LINFSTAT 06 EQ            6887  1          =           FLAG  (LINFSTAT,6,EQ)     - Status line
                                    6897  1          =
 00000D 00                          6898  1          =LINTFLG    FLAG
 LINTFLG.LINFREWR  80 ONES          6902  1          =           FLAG  LINFREWR            - Rewrite line
 LINTFLG.LINFPREP  40 ONES          6907  1          =           FLAG  LINFPREP            - Pad lines will nulls (3270s)
                                    6912  1          =
 00000E 00                          6913  1          =LINTWFLG   FLAG  ,                   Working flags
 LINTWFLG.LINFREN  80 ONES          6917  1          =           FLAG  LINFREN             - Renumbered lineno
 LINTWFLG.LINFOREN 40 ONES          6922  1          =           FLAG  LINFOREN            - Renumbered old lineno
                                    6927  1          =
 00000F                             6928  1          =           DS    X                   Reserved
                                    6929  1          =
 000010                             6930  1          =LINTLNO    DS    F                   Line-number
                                    6931  1          =LINTOPT    EQU   LINTTYPE,*-LINTTYPE,C'X'
                                    6932  1          =LINTNEXT   EQU   *
 000014                00014 00014  6933             =         END
1PAGE     (PAGE2193) (12:50) (15MAR04) Page Editor Manager                                                                  Page    7
0Current Usings:  (CP,R11) (CV,R12)
0Loc    Object Code    Addr1 Addr2  Stmt Lv Lineno    Source Statement           (Hibal 5, Asmedit 3.3)  HLASM R4.0  2004/03/15 12.50
+___    ______ ____    _____ _____  ____ __ ______    ______ _________
0                                   6943              ¿þþþþþþþþþþþþþþþþþþþþþþþþþþþþþþþþþþþþþþþþþþþþþþþþþþþþþþþþþþþþþþþþþþþþþÜ
                                    6944              Ÿ                                                                     Ÿ
                                    6945              Ÿ  GETVIEW -- Routine to get session VIEW control block.              Ÿ
                                    6946              Ÿ                                                                     Ÿ
                                    6947              Ÿ    On exit:                                                         Ÿ
                                    6948              Ÿ      CP pointers are updated to point to VIEW control blocks        Ÿ
                                    6949              Ÿ                                                                     Ÿ
                                                      ¾þþþþþþþþþþþþþþþþþþþþþþþþþþþþþþþþþþþþþþþþþþþþþþþþþþþþþþþþþþþþþþþþþþþþþ»
0000018 50E0 D000/9008_      00000  6950              GETVIEW  PROC
 USING  *,R7
                                    6989                       ¿þþþþþþþþþþþþþþþþþþþþþþþþþþþþþþþþþþþþÜ
                                    6990                       Ÿ  Get and initialize WIND entries.  Ÿ
                                    6991                       ¾þþþþþþþþþþþþþþþþþþþþþþþþþþþþþþþþþþþþ»
 000032 4120 0006            00006  6992                       LA    R2,WINDMAX#
 000036 4C20 76AA            006DC  6993                       MH    R2,=AL2(L'WIND)     Total size of WIND entries
                                    6994
 00003A 5810 BB58/1211_      00B58  6995                       IF    ('LT R1,CPWINDP',Z),BEGIN  Get WIND entries...
 000044 1802                        7011  1                      LR    R0,R2
                                    7012  1           *        GETMAIN RU,LV=(0),LOC=ANY  Get control blocks
 000046 58E0 7666/0DEE       00698  7013  1                      VCALL GETCORE
 00004C 5010 BB58            00B58  7017  1                      ST    R1,CPWINDP          Save WIND ptr
 000050 18F1                        7018  1                      LR    R15,R1
 000052 4BF0 76AA            006DC  7019  1                      SH    R15,=AL2(L'WIND)
 000056 50F0 BB5C            00B5C  7020  1                      ST    R15,CPXWIND         Save WIND-(1 entry) ptr
 00005A                             7021                       END
                                    7025
 00005A 18E1/18F2/1B11_             7026                       ZOT   (R1),(R2)           Zero
                                    7039                       ¿þþþþþþþþþþþþþþþþþþþþþþþþþþþþþþþþþþþþÜ
                                    7040                       Ÿ  Get and initialize LINT entries.  Ÿ
                                    7041                       ¾þþþþþþþþþþþþþþþþþþþþþþþþþþþþþþþþþþþþ»
 000062 4120 0050            00050  7042                       LA    R2,LINTMAX#
 000066 4C20 76AC            006DE  7043                       MH    R2,=AL2(L'LINT)     Total size of WIND entries
                                    7044
 00006A 5810 BB60/1211_      00B60  7045                       IF    ('LT R1,CPLINTP',Z),BEGIN  Get LINT entries...
 000074 1802                        7061  1                      LR    R0,R2
                                    7062  1           *        GETMAIN RU,LV=(0),LOC=ANY  Get control blocks
 000076 58E0 7666/0DEE       00698  7063  1                      VCALL GETCORE
 00007C 5010 BB60            00B60  7067  1                      ST    R1,CPLINTP          Save WIND ptr
 000080 18F1                        7068  1                      LR    R15,R1
 000082 4BF0 76AC            006DE  7069  1                      SH    R15,=AL2(L'LINT)
 000086 50F0 BB64            00B64  7070  1                      ST    R15,CPXLINT         Save LINT-(1 entry) ptr
 00008A                             7071                       END
                                    7075
 00008A 18E1/18F2/1B11_             7076                       ZOT   (R1),(R2)           Zero
 000092 18D8/9808 D004_             7089                       PEND
 DROP   *,R7
1PAGE     (PAGE2193) (12:50) (15MAR04) Page Editor Manager                                                                  Page    8
0Current Usings:  (CP,R11) (CV,R12)
0Loc    Object Code    Addr1 Addr2  Stmt Lv Lineno    Source Statement           (Hibal 5, Asmedit 3.3)  HLASM R4.0  2004/03/15 12.50
+___    ______ ____    _____ _____  ____ __ ______    ______ _________
0                                   7110              ¿þþþþþþþþþþþþþþþþþþþþþþþþþþþþþþþþþþþþþþþþþþþþþþþþþþþþþþþþþþþþþþþþþþþþþÜ
                                    7111              Ÿ                                                                     Ÿ
                                    7112              Ÿ  FREEVIEW -- Routine to free VIEW control blocks.                   Ÿ
                                    7113              Ÿ                                                                     Ÿ
                                    7114              Ÿ    On exit:                                                         Ÿ
                                    7115              Ÿ      CP pointers are cleared                                        Ÿ
                                    7116              Ÿ                                                                     Ÿ
                                                      ¾þþþþþþþþþþþþþþþþþþþþþþþþþþþþþþþþþþþþþþþþþþþþþþþþþþþþþþþþþþþþþþþþþþþþþ»
00000A0 50E0 D000/9008_      00000  7117              FREEVIEW XPROC
 USING  *,R7
 0000BA D603 BB58 BB58_00B58 00B58  7157                       IF    (CPWINDP,NZ),BEGIN  Free WIND entries...
 0000C4 4100 0006            00006  7173  1                      LA    R0,WINDMAX#
 0000C8 4C00 7622            006DC  7174  1                      MH    R0,=AL2(L'WIND)     Total size of WIND entries
 0000CC 5810 BB58            00B58  7175  1                      L     R1,CPWINDP
 0000D0 D703 BB58 BB58_00B58 00B58  7176  1                      CLEAR CPWINDP,CPXWIND
                                    7188  1           *        FREEMAIN RU,A=(1),LV=(0)  Free WIND control blocks
 0000DC 58E0 75E2/0DEE       0069C  7189  1                      VCALL FREECORE
 0000E2                             7193                       END
                                    7197
 0000E2 D603 BB60 BB60_00B60 00B60  7198                       IF    (CPLINTP,NZ),BEGIN  Free LINT entries...
 0000EC 4100 0050            00050  7214  1                      LA    R0,LINTMAX#
 0000F0 4C00 7624            006DE  7215  1                      MH    R0,=AL2(L'LINT)     Total size of LINT entries
 0000F4 5810 BB60            00B60  7216  1                      L     R1,CPLINTP
 0000F8 D703 BB60 BB60_00B60 00B60  7217  1                      CLEAR CPLINTP,CPXLINT
                                    7229  1           *        FREEMAIN RU,A=(1),LV=(0)  Free LINT control blocks
 000104 58E0 75E2/0DEE       0069C  7230  1                      VCALL FREECORE
 00010A                             7234                       END
 00010A 18D8/9808 D004_             7238                       PEND
 DROP   *,R7
1PAGE     (PAGE2193) (12:50) (15MAR04) Page Editor Manager                                                                  Page    9
0Current Usings:  (CP,R11) (CV,R12)
0Loc    Object Code    Addr1 Addr2  Stmt Lv Lineno    Source Statement           (Hibal 5, Asmedit 3.3)  HLASM R4.0  2004/03/15 12.50
+___    ______ ____    _____ _____  ____ __ ______    ______ _________
0                                   7259              ¿þþþþþþþþþþþþþþþþþþþþþþþþþþþþþþþþþþþþþþþþþþþþþþþþþþþþþþþþþþþþþþþþþþþþþÜ
                                    7260              Ÿ                                                                     Ÿ
                                    7261              Ÿ  GETVINFO -- Routine to get information about the current           Ÿ
                                    7262              Ÿ    window being viewed.                                             Ÿ
                                    7263              Ÿ                                                                     Ÿ
                                    7264              Ÿ    On entry:                                                        Ÿ
                                    7265              Ÿ      R1,R0 - message text area                                      Ÿ
                                    7266              Ÿ                                                                     Ÿ
                                    7267              Ÿ    On exit:                                                         Ÿ
                                    7268              Ÿ      R15 - 0=ok; 4=not viewing the current Active file              Ÿ
                                    7269              Ÿ      R1,R0 - message text area filled in (R0=actual len)            Ÿ
                                    7270              Ÿ                                                                     Ÿ
                                                      ¾þþþþþþþþþþþþþþþþþþþþþþþþþþþþþþþþþþþþþþþþþþþþþþþþþþþþþþþþþþþþþþþþþþþþþ»
0000000                00000 0003C  7271              GINFWA   RECORD BEGIN
                                    7279  1           GINFSG     SEGCB
 000000 00                          7280  1 01-SEGCB +$$$SEGCB59   DS  0F
 GINFSGCOD.GINFSGS 01 EQ
 GINFSGCOD.GINFSGW 02 EQ
 GINFSGCOD.GINFSGC 03 EQ
 GINFSGCOD.GINFSGS 04 EQ
 GINFSGCOD.GINFSGO 05 EQ
 GINFSGCOD.GINFSGC 06 EQ
 GINFSGCOD.GINFSGM 07 EQ
 000001 00                          7355  1 01-SEGCB +           DC    X'00'               Reserved
 000002 0000                              1          +
 000004 00000000                    7356  1 01-SEGCB +GINFSGMAXF   DC  A(0)                Maximum buffer length
 000008 00000000                    7357  1 01-SEGCB +GINFSGMRKF   DC  A(0)                Length at last mark
 00000C 00000000                    7358  1 01-SEGCB +GINFSGLENF   DC  A(0)                Current length
 000010 00000000                    7359  1 01-SEGCB +GINFSGINDF   DC  A(0)                Overflow/indent count
 000014 00000000                    7360  1 01-SEGCB +GINFSGERR   DC   A(0)                Address of error recovery routine
 000018 0000000000000000            7361  1 01-SEGCB +           DC    2F'0'               Reserved
 000020 00000000                    7362  1 01-SEGCB +GINFSGLOC   DC   A(0)                Location of buffer
 000024 00000000                    7363  1 01-SEGCB +GINFSGRTN   DC   A(0)                Processing routine
 000028 0000000000000000            7364  1 01-SEGCB +           DC    4F'0'               Reserved
 000038 00000000                    7365  1 01-SEGCB +GINFSGUSR   DC   A(0)                USER field
                                    7366  1 01-SEGCB +GINFSG     EQU   $$$SEGCB59,*-$$$SEGCB59,C'X'
 00003C                0003C 0003C  7367                       END
                                    7376              þþþþ
 000118 50E0 D000/9008_      00000  7377              GETVINFO XPROC GINFWA
 USING  *,R7
 USING  GINFWA-(4+36),R8
 000132 4150 0004            00004  7428                       LA    R5,4                Pre-set bad return code
                                    7429
 000136 41F0 8028/58E0_      00000  7430                       SEGINIT (R1),(R0),GINFSG
1PAGE     (PAGE2193) (12:50) (15MAR04) Page Editor Manager                                                                  Page   10
0Current Usings:  (*,R7) (GINFWA-(4+36),R8) (CP,R11) (CV,R12)
0Loc    Object Code    Addr1 Addr2  Stmt Lv Lineno    Source Statement           (Hibal 5, Asmedit 3.3)  HLASM R4.0  2004/03/15 12.50
+___    ______ ____    _____ _____  ____ __ ______    ______ _________
0                                   7453                     ¿þþþþþþþþþþþþþþþþþþþþþþþþþþþþþþþþþþþþþþþþþþþþþþþþþþþþþþþþþþþþþþþþþÜ
                                    7454                     Ÿ    The following code generates an information line that can    Ÿ
                                    7455                     Ÿ     later be passed to the SETVINFO routine.  This information  Ÿ
                                    7456                     Ÿ      line can be saved in user data, so it's important not to   Ÿ
                                    7457                     Ÿ    change the format of the information (adding information at  Ÿ
                                    7458                     Ÿ      the end is OK though).                                     Ÿ
                                    7459                     Ÿ                                                                 Ÿ
                                    7460                     Ÿ      The format is:                                             Ÿ
                                    7461                     Ÿ                                                                 Ÿ
                                    7462                     Ÿ        VIEW=starting-lineno,flag,cursor-lineno,cursor-column    Ÿ
                                    7463                     Ÿ                                                                 Ÿ
                                    7464                     Ÿ  "flag" is 0 if the cursor is on the command line and 1 if the  Ÿ
                                    7465                     Ÿ      cursor is in the text area.                                Ÿ
                                    7466                     ¾þþþþþþþþþþþþþþþþþþþþþþþþþþþþþþþþþþþþþþþþþþþþþþþþþþþþþþþþþþþþþþþþþ»
 000140 4110 75B4/4100_      006E6  7467                       SEG   'VIEW='
 000152 4860 BAD6/1266       00AD6  7484                       LTH   R6,CPVWCUR
 000158 4770 703C            0016E  7488                       IF    Z,BEGIN
 00015C 4110 75AE/4100_      006E0  7499  1                      SEG   '-1'
 00016E                             7516                       END
                                    7520
 00016E 7040/47F0 7100 0016E 0015A  7521                       ELSE  BEGIN
 000172 4C60 75AA            006DC  7532  1                      MH    R6,=AL2(L'WIND)
 000176 5A60 BB5C            00B5C  7533  1                      A     R6,CPXWIND
 USING  WIND,R6                     7534  1                      WITH  (WIND,R6)
 00017A 5800 6020/1200       00020  7547  1                      LT    R0,WINDFLNO
 000180 4740 705C/D503_      0018E  7551  1                      IF    (NEG,OR,(WINDACT,NE,CPACTNO)),'SETMSG "-1"'
 000196 7068/47F0 7070 00196 0018C  7588  1                      ELSE  BEGIN
 00019A 1B55                        7599  2                        CLEAR R5                  Set good return code
 00019C 58E0 7576/0DEE       006A8  7603  2                        VCALL CVEXNO
 0001A2                             7607  1                      END
 0001A2 41F0 8028/58E0_      00000  7611  1                      SEG   (R1),(R0)           Starting lineno
                                    7634  1
 0001AC 4120 0001            00001  7635  1                      LA    R2,1                Flag: cursor in text area
 0001B0 5830 BADC            00ADC  7636  1                      L     R3,CPVLNO           Cursor lineno
 0001B4 4840 BADA            00ADA  7637  1                      LH    R4,CPVCOL           Cursor column
                                    7638  1
 0001B8 1233/47B0 7096              7639  1                      IF    (R3,NEG),BEGIN      Not in text area...
 0001BE 1B22                        7653  2                        CLEAR R2                  Flag: cursor NOT in text area
 0001C0 5830 BAEC            00AEC  7657  2                        L     R3,CPVALNO          Alternate cursor lineno
 0001C4 4840 BAE8            00AE8  7658  2                        LH    R4,CPVACOL          Alternate cursor column
 0001C8                             7659  1                      END
                                    7663  1
 0001C8 1233/4740 7100              7664  1                      IF    (R3,NEG),EXIT       No cursor info available
 0001CE 4110 75B9/4100_      006EB  7681  1                      SEG   ','
 0001E0 1812/1B00/41F0_             7698  1                      SEGDC (R2)                Cursor flag
 0001EE 4110 75B9/4100_      006EB  7719  1                      SEG   ','
 000200 1803                        7736  1                      LR    R0,R3
 000202 58E0 7576/0DEE       006A8  7737  1                      VCALL CVEXNO
 000208 41F0 8028/58E0_      00000  7741  1                      SEG   (R1),(R0)           Cursor line-number
 000212 4110 75B9/4100_      006EB  7764  1                      SEG   ','
 000224 1814/1B00/41F0_             7781  1                      SEGDC (R4)                Cursor column
 DROP   WIND,R6                     7802                       END
                                    7811              *
                                    7812              *
1PAGE     (PAGE2193) (12:50) (15MAR04) Page Editor Manager                                                                  Page   11
0Current Usings:  (*,R7) (GINFWA-(4+36),R8) (CP,R11) (CV,R12)
0Loc    Object Code    Addr1 Addr2  Stmt Lv Lineno    Source Statement           (Hibal 5, Asmedit 3.3)  HLASM R4.0  2004/03/15 12.50
+___    ______ ____    _____ _____  ____ __ ______    ______ _________
0000232 5810 8048/5800_      00020  7813                       SETMSG L:GINFSGLOC,L:GINFSGLENF  Text loc, len
 00023A 9001 8004            00004  7825                       PRETURN (R0,R1)           Pass ptrs back to caller
 00023E 18F5                        7827                       LR    R15,R5              Set return code
 000240 18D8/9808 D004_             7828                       PEND
 DROP   GINFWA-(4+36),R8
 DROP   *,R7
1PAGE     (PAGE2193) (12:50) (15MAR04) Page Editor Manager                                                                  Page   12
0Current Usings:  (CP,R11) (CV,R12)
0Loc    Object Code    Addr1 Addr2  Stmt Lv Lineno    Source Statement           (Hibal 5, Asmedit 3.3)  HLASM R4.0  2004/03/15 12.50
+___    ______ ____    _____ _____  ____ __ ______    ______ _________
0                                   7854              ¿þþþþþþþþþþþþþþþþþþþþþþþþþþþþþþþþþþþþþþþþþþþþþþþþþþþþþþþþþþþþþþþþþþþþþÜ
                                    7855              Ÿ                                                                     Ÿ
                                    7856              Ÿ  SETVINFO -- Routine to set information about the current           Ÿ
                                    7857              Ÿ    window being viewed.  This routine expects a string in the       Ÿ
                                    7858              Ÿ    format generated by the GETVINFO routine above.                  Ÿ
                                    7859              Ÿ                                                                     Ÿ
                                    7860              Ÿ    On entry:                                                        Ÿ
                                    7861              Ÿ      R1,R0 - message text area (R0=0 means default)                 Ÿ
                                    7862              Ÿ                                                                     Ÿ
                                                      ¾þþþþþþþþþþþþþþþþþþþþþþþþþþþþþþþþþþþþþþþþþþþþþþþþþþþþþþþþþþþþþþþþþþþþþ»
000024E 50E0 D000/9008_      00000  7863              SETVINFO XPROC ,
 USING  *,R7
 000268 58E0 B08C/D2AF_      0008C  7903                       SCPUSH ,
                                    7909                       ¿þþþþþþþþþþþþþþþþþÜ
                                    7910                       Ÿ  Default View.  Ÿ
                                    7911                       ¾þþþþþþþþþþþþþþþþþ»
 000276 1200/4720 7026              7912                       IF    (R0,NP),BEGIN       We want the default...
 00027C D601 BAD8 BAD8_00AD8 00AD8  7926  1                      IF    (CPVWCNT,Z),SETVEXIT  Not set up yet, scram
 000286 4110 7484/4100_      006EC  7945  1                      SETMSG 'VIEW=-1'           Default view
 00028E                             7949                       END
                                    7953                       ¿þþþþþþþþþþþþþþþþþþþÜ
                                    7954                       Ÿ  Scan View info.  Ÿ
                                    7955                       ¾þþþþþþþþþþþþþþþþþþþ»
 00028E 58E0 B08C/501E_      0008C  7956                       SCINIT (R1),(R0)
 00029C 5810 B08C/1B00_      0008C  7976                       SCAN  ,                   Skip over "VIEW="
 0002EA 58E0 744C/0DEE       006B4  8007                       SCANCHK
                                    8012
 0002F0 D601 BAD8 BAD8_00AD8 00AD8  8013                       IF    (CPVWCNT,Z),'ACALL PAGEINIT'  Initialize page
                                    8038                       ¿þþþþþþþþþþþþþþþþþþþþþþþþþþþþþþþþþþþþþþþþþþÜ
                                    8039                       Ÿ  Switch window to view new Active file.  Ÿ
                                    8040                       ¾þþþþþþþþþþþþþþþþþþþþþþþþþþþþþþþþþþþþþþþþþþ»
 000300 4860 BAD6            00AD6  8041                       LH    R6,CPVWCUR
 000304 4C60 7474            006DC  8042                       MH    R6,=AL2(L'WIND)
 000308 5A60 BB5C            00B5C  8043                       A     R6,CPXWIND          Current WIND ptr
 USING  WIND,R6                     8044                       WITH  (WIND,R6)
                                    8057
 00030C D203 6014 B57C 00014 0057C  8058                       MVC   WINDACT,CPACTNO     Set new Active file number
 000312 4840 6006            00006  8059                       LH    R4,WINDFROW
 000316 1854                        8060                       LR    R5,R4
 000318 4C50 7476            006DE  8061                       MH    R5,=AL2(L'LINT)
 00031C 5A50 BB64            00B64  8062                       A     R5,CPXLINT          First lint in window
 000320 4940 6008/4730_      00008  8063                       WHILE (R4,LE,WINDLROW),BEGIN  Go through lines...
 USING  LINT,R5                     8082  1                      WITH  (LINT,R5)
 000328 D203 5004 7454 00004 006BC  8095  1                      MVC   LINTOLNO,=F'-2'     Invalidate old line-number
                                    8096  1
 00032E 4150 5014            00014  8097  1                      LA    R5,LINTNEXT
 000332 4140 4001            00001  8098  1                      LA    R4,@R4+1
 000336 47F0 70B8            00320  8099                       END
 DROP   LINT,R5
1PAGE     (PAGE2193) (12:50) (15MAR04) Page Editor Manager                                                                  Page   13
0Current Usings:  (WIND,R6) (*,R7) (CP,R11) (CV,R12)
0Loc    Object Code    Addr1 Addr2  Stmt Lv Lineno    Source Statement           (Hibal 5, Asmedit 3.3)  HLASM R4.0  2004/03/15 12.50
+___    ______ ____    _____ _____  ____ __ ______    ______ _________
0                                   8109                       ¿þþþþþþþþþþþþþþþþþþþþþþþþþþþþþþþþþþþþþþþþþÜ
                                    8110                       Ÿ  Setup to view indicated part of file.  Ÿ
                                    8111                       ¾þþþþþþþþþþþþþþþþþþþþþþþþþþþþþþþþþþþþþþþþþ»
 00033A 58E0 7458/0DEE       006C0  8112                       ACALL PAGECLR             First clear the window
                                    8116
 000340 D707 BAE0 BAE0_00AE0 00AE0  8117                       FREECURS
                                    8144
 000364 58E0 7464/0DEE       006CC  8145                       ACALL SCANLNO             Get line-number
 00036A 4740 713C            003A4  8149                       IF    ~NEG,BEGIN          Save line-number...
 00036E 50F0 6018            00018  8160  1                      ST    R15,WINDSLNO        Make view with R15 first lineno
                                    8161  1
 000372 58E0 7468/0DEE       006D0  8162  1                      ACALL SCANINT             Looking for flag: 0/1
 000378 182F                        8166  1                      LR    R2,R15              Save
                                    8167  1
 00037A 58E0 7464/0DEE       006CC  8168  1                      ACALL SCANLNO             Cursor lineno
 000380 183F                        8172  1                      LR    R3,R15              Save
                                    8173  1
 000382 58E0 7468/0DEE       006D0  8174  1                      ACALL SCANINT             Cursor column
 000388 184F                        8178  1                      LR    R4,R15              Save
                                    8179  1                      ¿þþþþþþþþþþþþþþþþþþþþþþþþþþþþþþþþþþþþþþþþþþþþþþÜ
                                    8180  1                      Ÿ  Set cursor and alternate-cursor positions.  Ÿ
                                    8181  1                      ¾þþþþþþþþþþþþþþþþþþþþþþþþþþþþþþþþþþþþþþþþþþþþþþ»
 00038A 1222/4780 7130              8182  1                      IF    (R2,NZ),BEGIN       Primary cursor position...
 000390 5030 BADC            00ADC  8196  2                        ST    R3,CPVLNO           Line-number
 000394 4040 BADA            00ADA  8197  2                        STH   R4,CPVCOL           Column
 000398                             8198  1                      END
 000398 7134/47F0 713C 00398 0038E  8202  1                      ELSE  BEGIN               Alternate cursor position...
 00039C 5030 BAEC            00AEC  8213  2                        ST    R3,CPVALNO          Line-number
 0003A0 4040 BAE8            00AE8  8214  2                        STH   R4,CPVACOL          Column
 0003A4                             8215  1                      END
 0003A4                             8219                       END
                                    8223
 0003A4 58E0 B08C/4BD0_      0008C  8224              SETVEXIT SCPOP ,
 0003B2 1BFF                        8230                       CLEAR R15                 Set return code
 0003B4 18D8/9808 D004_             8234                       PEND
 DROP   WIND,R6
 DROP   *,R7
1PAGE     (PAGE2193) (12:50) (15MAR04) Page Editor Manager                                                                  Page   14
0Current Usings:  (CP,R11) (CV,R12)
0Loc    Object Code    Addr1 Addr2  Stmt Lv Lineno    Source Statement           (Hibal 5, Asmedit 3.3)  HLASM R4.0  2004/03/15 12.50
+___    ______ ____    _____ _____  ____ __ ______    ______ _________
0                                   8260              ¿þþþþþþþþþþþþþþþþþþþþþþþþþþþþþþþþþþþþþþþþþþþþþþþþþþþþþþþþþþþþþþþþþþþþþÜ
                                    8261              Ÿ                                                                     Ÿ
                                    8262              Ÿ  SCANLNO -- Local routine to scan a line-number.                    Ÿ
                                    8263              Ÿ                                                                     Ÿ
                                                      ¾þþþþþþþþþþþþþþþþþþþþþþþþþþþþþþþþþþþþþþþþþþþþþþþþþþþþþþþþþþþþþþþþþþþþþ»
00003C2 50E0 D000/9008_      00000  8264              SCANLNO  PROC
 USING  *,R7
 0003DC 1B33                        8303                       CLEAR R3
 0003DE 5810 B08C/1B00_      0008C  8307                       SCAN  SLNOPRT
 000430 12FF/47B0 705E              8339                       IF    (R15,NEG),BEGIN
 000436 5830 72EC            006C8  8353  1                      L     R3,=F'-1'
 00043A                             8354                       END
 00043A 18F3                        8358                       LR    R15,R3
 00043C 18D8/9808 D004_             8359                       PEND
 DROP   *,R7
                                    8379
 00044C 4040404040404040_           8380              SLNOPRT  SCKW  ,SLNOERR,NULL
 000474 4040404040404040_           8395                       SCKW  ,SLNORTN,LN
 00049C 4040404040404040_           8410                       SCKW  ,SLNOERR
                                    8425              þþþþ
 0004C4 50E0 D000/9008_      00000  8426              SLNORTN  PROC
 USING  *,R7
 0004DE 1830                        8465                       LR    R3,R0
 0004E0 5038 0010            00010  8466                       PRETURN (R3)
 0004E4 41F0 0004            00004  8468                       LA    R15,4
 0004E8 18D8/9808 D004_             8469                       PEND
 DROP   *,R7
                                    8489
 0004F6 50E0 D000/9008_      00000  8490              SLNOERR  PROC
 USING  *,R7
 000510 5830 71B8            006C8  8529                       L     R3,=F'-1'
 000514 5038 0010            00010  8530                       PRETURN (R3)
 000518 41F0 0004            00004  8532                       LA    R15,4
 00051C 18D8/9808 D004_             8533                       PEND
 DROP   *,R7
                                    8553              ¿þþþþþþþþþþþþþþþþþþþþþþþþþþþþþþþþþþþþþþþþþþþþþþþþþþþþþþþþþþþþþþþþþþþþþÜ
                                    8554              Ÿ                                                                     Ÿ
                                    8555              Ÿ  SCANINT -- Local routine to scan an integer.                       Ÿ
                                    8556              Ÿ                                                                     Ÿ
                                                      ¾þþþþþþþþþþþþþþþþþþþþþþþþþþþþþþþþþþþþþþþþþþþþþþþþþþþþþþþþþþþþþþþþþþþþþ»
000052A 50E0 D000/9008_      00000  8557              SCANINT  PROC
 USING  *,R7
 000544 1B33                        8596                       CLEAR R3
 000546 5810 B08C/1B00_      0008C  8600                       SCAN  SINTPRT
 000598 12FF/47B0 705E              8632                       IF    (R15,NEG),BEGIN
 00059E 5830 7184            006C8  8646  1                      L     R3,=F'-1'
 0005A2                             8647                       END
 0005A2 18F3                        8651                       LR    R15,R3
 0005A4 18D8/9808 D004_             8652                       PEND
 DROP   *,R7
                                    8672              *
                                    8673              *
1PAGE     (PAGE2193) (12:50) (15MAR04) Page Editor Manager                                                                  Page   15
0Current Usings:  (CP,R11) (CV,R12)
0Loc    Object Code    Addr1 Addr2  Stmt Lv Lineno    Source Statement           (Hibal 5, Asmedit 3.3)  HLASM R4.0  2004/03/15 12.50
+___    ______ ____    _____ _____  ____ __ ______    ______ _________
00005B4 4040404040404040_           8674              SINTPRT  SCKW  ,SINTERR,NULL
 0005DC 4040404040404040_           8689                       SCKW  ,SINTRTN,I
 000604 4040404040404040_           8704                       SCKW  ,SINTERR
                                    8719              þþþþ
 00062C 50E0 D000/9008_      00000  8720              SINTRTN  PROC
 USING  *,R7
 000646 1830                        8759                       LR    R3,R0
 000648 5038 0010            00010  8760                       PRETURN (R3)
 00064C 41F0 0004            00004  8762                       LA    R15,4
 000650 18D8/9808 D004_             8763                       PEND
 DROP   *,R7
                                    8783
 00065E 50E0 D000/9008_      00000  8784              SINTERR  PROC
 USING  *,R7
 000678 5830 7050            006C8  8823                       L     R3,=F'-1'
 00067C 5038 0010            00010  8824                       PRETURN (R3)
 000680 41F0 0004            00004  8826                       LA    R15,4
 000684 18D8/9808 D004_             8827                       PEND
 DROP   *,R7
                                    8847
                                    8848                       QLTORG
1PAGE     (PAGE2193) (12:50) (15MAR04) Page Editor Manager                                                                  Page   16
0Current Usings:  (CP,R11) (CV,R12)
0Loc    Object Code    Addr1 Addr2  Stmt Lv Lineno    Source Statement           (Hibal 5, Asmedit 3.3)  HLASM R4.0  2004/03/15 12.50
+___    ______ ____    _____ _____  ____ __ ______    ______ _________
0                                   8886              ¿þþþþþþþþþþþþþþþþþþþþþþþþþþþþþþþþþþþþþþþþþþþþþþþþþþþþþþþþþþþþþþþþþþþþþÜ
                                    8887              Ÿ                                                                     Ÿ
                                    8888              Ÿ  WINDGET -- Routine to return an information string about the       Ÿ
                                    8889              Ÿ    window specified.                                                Ÿ
                                    8890              Ÿ                                                                     Ÿ
                                    8891              Ÿ    On entry:                                                        Ÿ
                                    8892              Ÿ       R15 - window number                                           Ÿ
                                    8893              Ÿ       R1,R0 - return string area (loc,len)                          Ÿ
                                    8894              Ÿ                                                                     Ÿ
                                    8895              Ÿ    On exit:                                                         Ÿ
                                    8896              Ÿ       R1,R0 - message loc, len                                      Ÿ
                                    8897              Ÿ                                                                     Ÿ
                                                      ¾þþþþþþþþþþþþþþþþþþþþþþþþþþþþþþþþþþþþþþþþþþþþþþþþþþþþþþþþþþþþþþþþþþþþþ»
0000000                00000 0003C  8898              WGETWA   RECORD BEGIN
                                    8906  1           WGETSG     SEGCB
 000000 00                          8907  1 01-SEGCB +$$$SEGCB108   DS 0F
 WGETSGCOD.WGETSGS 01 EQ
 WGETSGCOD.WGETSGW 02 EQ
 WGETSGCOD.WGETSGC 03 EQ
 WGETSGCOD.WGETSGS 04 EQ
 WGETSGCOD.WGETSGO 05 EQ
 WGETSGCOD.WGETSGC 06 EQ
 WGETSGCOD.WGETSGM 07 EQ
 000001 00                          8982  1 01-SEGCB +           DC    X'00'               Reserved
 000002 0000                              1          +
 000004 00000000                    8983  1 01-SEGCB +WGETSGMAXF   DC  A(0)                Maximum buffer length
 000008 00000000                    8984  1 01-SEGCB +WGETSGMRKF   DC  A(0)                Length at last mark
 00000C 00000000                    8985  1 01-SEGCB +WGETSGLENF   DC  A(0)                Current length
 000010 00000000                    8986  1 01-SEGCB +WGETSGINDF   DC  A(0)                Overflow/indent count
 000014 00000000                    8987  1 01-SEGCB +WGETSGERR   DC   A(0)                Address of error recovery routine
 000018 0000000000000000            8988  1 01-SEGCB +           DC    2F'0'               Reserved
 000020 00000000                    8989  1 01-SEGCB +WGETSGLOC   DC   A(0)                Location of buffer
 000024 00000000                    8990  1 01-SEGCB +WGETSGRTN   DC   A(0)                Processing routine
 000028 0000000000000000            8991  1 01-SEGCB +           DC    4F'0'               Reserved
 000038 00000000                    8992  1 01-SEGCB +WGETSGUSR   DC   A(0)                USER field
                                    8993  1 01-SEGCB +WGETSG     EQU   $$$SEGCB108,*-$$$SEGCB108,C'X'
 00003C                0003C 0003C  8994                       END
                                    9003              þþþþ
 0006F4 50E0 D000/9008_      00000  9004              WINDGET  XPROC WGETWA
 USING  *,R7
 USING  WGETWA-(4+36),R8
 00070E D73B 8028 8028 00000 00000  9055                       CLEAR WGETWA
 000714 185F                        9062                       LR    R5,R15              Save window number
 000716 41F0 8028/58E0_      00000  9063                       SEGINIT (R1),(R0),WGETSG
                                    9086
 000720 4110 7EEC/4100_      015FA  9087                       SETMSG 'INVALID WINDOW NUMBER'
 000728 1255/47D0 70E0              9091                       IF    (R5,POS),BEGIN      Valid window number...
 00072E 4110 7D52/4100_      01460  9105  1                      SETMSG 'NOT OPEN'
 000736 4950 BAD8/4720_      00AD8  9109  1                      IF    (R5,GT,CPVWCNT),EXIT
                                    9129  1
 00073E 4C50 7E5A            01568  9130  1                      MH    R5,=AL2(L'WIND)
 000742 5A50 BB5C            00B5C  9131  1                      A     R5,CPXWIND
 USING  WIND,R5                     9132  1                      WITH  (WIND,R5)
1PAGE     (PAGE2193) (12:50) (15MAR04) Page Editor Manager                                                                  Page   17
0Current Usings:  (WIND,R5) (*,R7) (WGETWA-(4+36),R8) (CP,R11) (CV,R12)
0Loc    Object Code    Addr1 Addr2  Stmt Lv Lineno    Source Statement           (Hibal 5, Asmedit 3.3)  HLASM R4.0  2004/03/15 12.50
+___    ______ ____    _____ _____  ____ __ ______    ______ _________
0                                   9145  1                      ¿þþþþþþþþþþþþþþþþþþþþþþþþþþþþþþþþþþþþþÜ
                                    9146  1                      Ÿ  Format window information string.  Ÿ
                                    9147  1                      ¾þþþþþþþþþþþþþþþþþþþþþþþþþþþþþþþþþþþþþ»
 000746 D501 5002 BAD6_00002 00AD6  9148  1                      IF    (WINDNO,EQ,CPVWCUR),'SEG "CURRENT "'
                                    9188  1
 000762 4110 7D62/4100_      01470  9189  1                      SETMSG 'NUMBERED'
 00076A 9120 5000/47E0_00000        9193  1                      IF    WINFUNN,'SETMSG "UNNUMBERED"'
 00077A 41F0 8028/58E0_      00000  9217  1                      SEG   (R1),(R0)
                                    9240  1
 000784 4110 7E66/4100_      01574  9241  1                      SEG   ' FROW='
 000796 4810 5006/1B00_      00006  9258  1                      SEGDC LH:WINDFROW
                                    9278  1
 0007A6 4110 7E6C/4100_      0157A  9279  1                      SEG   ' LROW='
 0007B8 4810 5008/1B00_      00008  9296  1                      SEGDC LH:WINDLROW
                                    9316  1
 0007C8 4110 7D6A/4100_      01478  9317  1                      SEG   ' ACTIVE='
 0007DA 5810 5014/1B00_      00014  9334  1                      SEGDC L:WINDACT
                                    9355  1
 0007EA 1B11/1B00                   9356  1                      CLEAR R1,R0               (Fall through SEG below)
 DROP   WIND,R5                     9362                       END
                                    9371
 0007EE 41F0 8028/58E0_      00000  9372                       SEG   (R1),(R0)
                                    9395
 0007F8 5810 8048/5800_      00020  9396                       SETMSG L:WGETSGLOC,L:WGETSGLENF  Return string
 000800 9001 8004            00004  9408                       PRETURN (R0,R1)           Return to caller
                                    9410
 000804 1BFF                        9411                       CLEAR R15                 (Tidy)
 000806 18D8/9808 D004_             9415                       PEND
 DROP   WGETWA-(4+36),R8
 DROP   *,R7
1PAGE     (PAGE2193) (12:50) (15MAR04) Page Editor Manager                                                                  Page   18
0Current Usings:  (CP,R11) (CV,R12)
0Loc    Object Code    Addr1 Addr2  Stmt Lv Lineno    Source Statement           (Hibal 5, Asmedit 3.3)  HLASM R4.0  2004/03/15 12.50
+___    ______ ____    _____ _____  ____ __ ______    ______ _________
0                                   9441              ¿þþþþþþþþþþþþþþþþþþþþþþþþþþþþþþþþþþþþþþþþþþþþþþþþþþþþþþþþþþþþþþþþþþþþþÜ
                                    9442              Ÿ                                                                     Ÿ
                                    9443              Ÿ  WINDPUT -- Routine to set information about the window             Ÿ
                                    9444              Ÿ    specified.                                                       Ÿ
                                    9445              Ÿ                                                                     Ÿ
                                    9446              Ÿ    On entry:                                                        Ÿ
                                    9447              Ÿ      R15 - window number                                            Ÿ
                                    9448              Ÿ      R1,R0 - return string area (loc,len)                           Ÿ
                                    9449              Ÿ      R3,R2 - options string loc, len                                Ÿ
                                    9450              Ÿ                                                                     Ÿ
                                    9451              Ÿ    On exit:                                                         Ÿ
                                    9452              Ÿ      R1,R0 - return message loc, len                                Ÿ
                                    9453              Ÿ                                                                     Ÿ
                                                      ¾þþþþþþþþþþþþþþþþþþþþþþþþþþþþþþþþþþþþþþþþþþþþþþþþþþþþþþþþþþþþþþþþþþþþþ»
0000000                00000 00044  9454              WPUTWA   RECORD BEGIN
 000000 00                          9462  1           WPUTFLAG   FLAG
 WPUTFLAG.WPUTFFIX 80 ONES          9466  1                      FLAG  WPUTFFIX            - Fix window numbering
 WPUTFLAG.WPUTFTOP 40 ONES          9471  1                      FLAG  WPUTFTOP            - Set new top lineno
 WPUTFLAG.WPUTFBOT 20 ONES          9476  1                      FLAG  WPUTFBOT            - Set new bottom lineno
                                    9481  1
 000002                             9482  1           WPUTWNO    DS    H                   Saved window number
 000004                             9483  1           WPUTLNO    DS    F                   Working lineno
                                    9484  1
                                    9485  1           WPUTSG     SEGCB
 000008 00                          9486  1 01-SEGCB +$$$SEGCB123   DS 0F
 WPUTSGCOD.WPUTSGS 01 EQ
 WPUTSGCOD.WPUTSGW 02 EQ
 WPUTSGCOD.WPUTSGC 03 EQ
 WPUTSGCOD.WPUTSGS 04 EQ
 WPUTSGCOD.WPUTSGO 05 EQ
 WPUTSGCOD.WPUTSGC 06 EQ
 WPUTSGCOD.WPUTSGM 07 EQ
 000009 00                          9561  1 01-SEGCB +           DC    X'00'               Reserved
 00000A 0000                              1          +
 00000C 00000000                    9562  1 01-SEGCB +WPUTSGMAXF   DC  A(0)                Maximum buffer length
 000010 00000000                    9563  1 01-SEGCB +WPUTSGMRKF   DC  A(0)                Length at last mark
 000014 00000000                    9564  1 01-SEGCB +WPUTSGLENF   DC  A(0)                Current length
 000018 00000000                    9565  1 01-SEGCB +WPUTSGINDF   DC  A(0)                Overflow/indent count
 00001C 00000000                    9566  1 01-SEGCB +WPUTSGERR   DC   A(0)                Address of error recovery routine
 000020 0000000000000000            9567  1 01-SEGCB +           DC    2F'0'               Reserved
 000028 00000000                    9568  1 01-SEGCB +WPUTSGLOC   DC   A(0)                Location of buffer
 00002C 00000000                    9569  1 01-SEGCB +WPUTSGRTN   DC   A(0)                Processing routine
 000030 0000000000000000            9570  1 01-SEGCB +           DC    4F'0'               Reserved
 000040 00000000                    9571  1 01-SEGCB +WPUTSGUSR   DC   A(0)                USER field
                                    9572  1 01-SEGCB +WPUTSG     EQU   $$$SEGCB123,*-$$$SEGCB123,C'X'
 000044                00044 00044  9573                       END
                                    9582              þþþþ
 000814 50E0 D000/9008_      00000  9583              WINDPUT  XPROC WPUTWA
 USING  *,R7
 USING  WPUTWA-(4+36),R8
 00082E 4160 8028            00000  9634                       LA    R6,WPUTWA
 USING  WPUTWA,R6                   9635                       WITH  (WPUTWA,R6)
 000832 D743 6000 6000 00000 00000  9648                       CLEAR WPUTWA
1PAGE     (PAGE2193) (12:50) (15MAR04) Page Editor Manager                                                                  Page   19
0Current Usings:  (WPUTWA,R6) (*,R7) (WPUTWA-(4+36),R8) (CP,R11) (CV,R12)
0Loc    Object Code    Addr1 Addr2  Stmt Lv Lineno    Source Statement           (Hibal 5, Asmedit 3.3)  HLASM R4.0  2004/03/15 12.50
+___    ______ ____    _____ _____  ____ __ ______    ______ _________
0000838 185F                        9655                       LR    R5,R15              Save window number
 00083A 58E0 B08C/D2AF_      0008C  9656                       SCPUSH ,
 000848 41F0 6008/58E0_      00008  9662                       SEGINIT (R1),(R0),WPUTSG
                                    9685
 000852 4110 7DCC/4100_      015FA  9686                       SETMSG 'INVALID WINDOW NUMBER'
 00085A 1255/47D0 712C              9690                       IF    (R5,POS),BEGIN      Valid window number...
 000860 4950 BAD8/4720_      00AD8  9704  1                      IF    (R5,GT,CPVWCNT),EXIT  Not defined, scram
                                    9724  1
 000868 1845                        9725  1                      LR    R4,R5
 00086A 4C50 7D3A            01568  9726  1                      MH    R5,=AL2(L'WIND)
 00086E 5A50 BB5C            00B5C  9727  1                      A     R5,CPXWIND
 USING  WIND,R5                     9728  1                      WITH  (WIND,R5)
                                    9741  1                      ¿þþþþþþþþþþþþþþþþþþþþþþþþþþþþþþþþþþþþþÜ
                                    9742  1                      Ÿ  Modify existing window's options.  Ÿ
                                    9743  1                      ¾þþþþþþþþþþþþþþþþþþþþþþþþþþþþþþþþþþþþþ»
 000872 1813/1802/58E0_             9744  1                      SCINIT (R3),(R2)
 000884 5810 B08C/1B00_      0008C  9766  1                      SCAN WPUTPRT
 0008D6 12FF/4780 70B6_             9798  1                      IF    (R15,NZ),'SETMSG "ERROR"'
 0008E4 70BA/47F0 70C2_008E4 008DA  9821  1                      ELSE  'SETMSG "OK"'
                                    9841  1
 0008F0 9001 D000/41D0_      00000  9842  1                      XPUSH R0,R1
 0008F8 9140 6000/47E0_00000        9845  1                      IF    WPUTFTOP,BEGIN      Set new top lineno...
 000900 D201 6002 BAD6 00002 00AD6  9860  2                        MVC   WPUTWNO,CPVWCUR     Save current window number
 000906 D201 BAD6 5002 00AD6 00002  9861  2                        MVC   CPVWCUR,WINDNO      We are the new current
 00090C 1B00                        9862  2                        CLEAR R0                  No lines before
 00090E 58F0 6004            00004  9866  2                        L     R15,WPUTLNO         Top lineno
 000912 58E0 7C9E/0DEE       014CC  9867  2                        ACALL PAGETOP             Make it the top lineno
 000918 D201 BAD6 6002 00AD6 00002  9871  2                        MVC   CPVWCUR,WPUTWNO     Restore current window
 00091E                             9872  1                      END
                                    9876  1
 00091E 9120 6000/47E0_00000        9877  1                      IF    WPUTFBOT,BEGIN      Set new bottom lineno...
 000926 D201 6002 BAD6 00002 00AD6  9892  2                        MVC   WPUTWNO,CPVWCUR     Save current window number
 00092C D201 BAD6 5002 00AD6 00002  9893  2                        MVC   CPVWCUR,WINDNO      We are the new current
 000932 1B00                        9894  2                        CLEAR R0                  No lines after
 000934 58F0 6004            00004  9898  2                        L     R15,WPUTLNO         Bottom lineno
 000938 58E0 7CA2/0DEE       014D0  9899  2                        ACALL PAGEBOT             Make it the bottom lineno
 00093E D201 BAD6 6002 00AD6 00002  9903  2                        MVC   CPVWCUR,WPUTWNO     Restore current window
 000944                             9904  1                      END
                                    9908  1
 000944 9180 6000/47E0_00000        9909  1                      IF    WPUTFFIX,'ACALL WINDFIX'  Fix window numbering
 000952 4BD0 7D56/9801_      01584  9933  1                      XPOP  R0,R1
 DROP   WIND,R5                     9936                       END
                                    9945
 00095A 41F0 6008/58E0_      00008  9946                       SEG   (R1),(R0)
                                    9969
 000964 5810 6028/5800_      00028  9970                       SETMSG L:WPUTSGLOC,L:WPUTSGLENF  Return string
 00096C 9001 8004            00004  9982                       PRETURN (R0,R1)
                                    9984
 000970 58E0 B08C/4BD0_      0008C  9985                       SCPOP ,                   Restore scanner
                                    9991
 00097E 1BFF                        9992                       CLEAR R15                 (Tidy)
 000980 18D8/9808 D004_             9996                       PEND
 DROP   WPUTWA,R6
 DROP   WPUTWA-(4+36),R8
1PAGE     (PAGE2193) (12:50) (15MAR04) Page Editor Manager                                                                  Page   20
0Current Usings:  (CP,R11) (CV,R12)
0Loc    Object Code    Addr1 Addr2  Stmt Lv Lineno    Source Statement           (Hibal 5, Asmedit 3.3)  HLASM R4.0  2004/03/15 12.50
+___    ______ ____    _____ _____  ____ __ ______    ______ _________
0DROP   *,R7
                                   10026                       ¿þþþþþþþþþþþþþþþþþþþþÜ
                                   10027                       Ÿ  WINDPUT Options.  Ÿ
                                   10028                       ¾þþþþþþþþþþþþþþþþþþþþ»
 000990 E4D5D5E4D4C2C5D9_          10029              WPUTPRT  SCKW  UNNUMBERED,WPUTUNN,A
 0009B8 D5E4D4C2C5D9C5C4_          10044                       SCKW  NUMBERED,WPUTNUM,A
 0009E0 C6D9D6E640404040_          10059                       SCKW  FROW,WPUTFROW,(A,P,PI)
 000A08 D3D9D6E640404040_          10074                       SCKW  LROW,WPUTLROW,(A,P,PI)
 000A30 C1C3E3C9E5C54040_          10089                       SCKW  ACTIVE,WPUTACT,(A,P,PI)
 000A58 E3D6D74040404040_          10104                       SCKW  TOP,WPUTTOP,(A,P,LN)
 000A80 C2D6E3E3D6D44040_          10119                       SCKW  BOTTOM,WPUTBOT,(A,P,LN)
 000AA8 C3E4D9D9C5D5E340_          10134                       SCKW  CURRENT,WPUTCUR,A
 000AD0 4040404040404040_          10149                       SCKW  ,WPUTERR
                                   10164              þþþþ
 000AF8 50E0 D000/9008_      00000 10165              WPUTUNN  PROC
 USING  *,R7
 USING  WIND,R5                    10204                       WITH  (WIND,R5)
 000B12 9120 5000/4710_00000       10217                       IF    WINFUNN,EXIT
 000B1A 9660 5000      00000       10235                       SET   WINFUNN+WINFMOD
 000B1E 18D8/9808 D004_            10244                       PEND
 DROP   WIND,R5
 DROP   *,R7
                                   10269
 000B2C 50E0 D000/9008_      00000 10270              WPUTNUM  PROC
 USING  *,R7
 USING  WIND,R5                    10309                       WITH  (WIND,R5)
 000B46 9120 5000/47E0_00000       10322                       IF    ~WINFUNN,EXIT
 000B4E 94DF 5000      00000       10340                       CLEAR WINFUNN
 000B52 9640 5000      00000       10347                       SET   WINFMOD
 000B56 18D8/9808 D004_            10353                       PEND
 DROP   WIND,R5
 DROP   *,R7
                                   10378
 000B64 50E0 D000/9008_      00000 10379              WPUTFROW PROC
 USING  *,R7
 USING  WIND,R5                    10418                       WITH  (WIND,R5),(WPUTWA,R6)
 USING  WPUTWA,R6
 000B7E 1200/47D0 700E_            10441                       IF    ((R0,NP),OR,(R0,GT,LINTMAX#)),BEGIN
 000B8C 41F0 0004            00004 10471  1                      LA    R15,4               YUCKY VALUE
 000B90                            10472                       END
                                   10476
 000B90 7016/47F0 7020 00B90 00B8A 10477                       ELSE  BEGIN
 000B94 9680 6000      00000       10488  1                      SET   WPUTFFIX
 000B98 4000 5006            00006 10494  1                      STH   R0,WINDFROW
 000B9C 1BFF                       10495  1                      CLEAR R15
 000B9E                            10499                       END
 000B9E 18D8/9808 D004_            10503                       PEND
 DROP   WPUTWA,R6
 DROP   WIND,R5
 DROP   *,R7
                                   10533
 000BAC 50E0 D000/9008_      00000 10534              WPUTLROW PROC
 USING  *,R7
 USING  WIND,R5                    10573                       WITH  (WIND,R5),(WPUTWA,R6)
1PAGE     (PAGE2193) (12:50) (15MAR04) Page Editor Manager                                                                  Page   21
0Current Usings:  (WIND,R5) (WPUTWA,R6) (*,R7) (CP,R11) (CV,R12)
0Loc    Object Code    Addr1 Addr2  Stmt Lv Lineno    Source Statement           (Hibal 5, Asmedit 3.3)  HLASM R4.0  2004/03/15 12.50
+___    ______ ____    _____ _____  ____ __ ______    ______ _________
0USING  WPUTWA,R6
 000BC6 1200/47D0 700E_            10596                       IF    ((R0,NP),OR,(R0,GT,LINTMAX#)),BEGIN
 000BD4 41F0 0004            00004 10626  1                      LA    R15,4
 000BD8                            10627                       END
                                   10631
 000BD8 7016/47F0 7020 00BD8 00BD2 10632                       ELSE  BEGIN
 000BDC 9680 6000      00000       10643  1                      SET   WPUTFFIX
 000BE0 4000 5008            00008 10649  1                      STH   R0,WINDLROW
 000BE4 1BFF                       10650  1                      CLEAR R15
 000BE6                            10654                       END
 000BE6 18D8/9808 D004_            10658                       PEND
 DROP   WPUTWA,R6
 DROP   WIND,R5
 DROP   *,R7
                                   10688
 000BF4 50E0 D000/9008_      00000 10689              WPUTACT  PROC
 USING  *,R7
 USING  WIND,R5                    10728                       WITH  (WIND,R5)
 000C0E 5000 5014            00014 10741                       ST    R0,WINDACT
 000C12 D703 5018 5018 00018 00018 10742                       CLEAR WINDSLNO
 000C18 D203 501C C15C 0001C 0015C 10749                       MVC   WINDELNO,CVMAXLNO
 000C1E 5800 78CE            014DC 10750                       L     R0,=F'-1'
 000C22 5000 501C            0001C 10751                       ST    R0,WINDELNO
 000C26 5000 5024            00024 10752                       ST    R0,WINDLLNO
 000C2A 96C0 5000      00000       10753                       SET   WINFREWR+WINFMOD
 000C2E 1BFF                       10762                       CLEAR R15
 000C30 18D8/9808 D004_            10766                       PEND
 DROP   WIND,R5
 DROP   *,R7
                                   10791
 000C3E 50E0 D000/9008_      00000 10792              WPUTTOP  PROC
 USING  *,R7
 USING  WPUTWA,R6                  10831                       WITH  (WPUTWA,R6)
 000C58 1200/4740 700E_            10844                       IF    ((R0,NEG),OR,(R0,GT,CVMAXLNO)),BEGIN
 000C66 41F0 0004            00004 10874  1                      LA    R15,4               YUCKY VALUE
 000C6A                            10875                       END
                                   10879
 000C6A 7016/47F0 7022 00C6A 00C64 10880                       ELSE  BEGIN
 000C6E 9640 6000/94DF_00000       10891  1                      SET   WPUTFTOP,(WPUTFBOT,OFF)
 000C76 5000 6004            00004 10902  1                      ST    R0,WPUTLNO          Save lineno
 000C7A                            10903                       END
 000C7A 18D8/9808 D004_            10907                       PEND
 DROP   WPUTWA,R6
 DROP   *,R7
                                   10932
 000C88 50E0 D000/9008_      00000 10933              WPUTBOT  PROC
 USING  *,R7
 USING  WPUTWA,R6                  10972                       WITH  (WPUTWA,R6)
 000CA2 1200/4740 700E_            10985                       IF    ((R0,NEG),OR,(R0,GT,CVMAXLNO)),BEGIN
 000CB0 41F0 0004            00004 11015  1                      LA    R15,4               YUCKY VALUE
 000CB4                            11016                       END
                                   11020
 000CB4 7016/47F0 7022 00CB4 00CAE 11021                       ELSE  BEGIN
 000CB8 9620 6000/94BF_00000       11032  1                      SET   WPUTFBOT,(WPUTFTOP,OFF)
1PAGE     (PAGE2193) (12:50) (15MAR04) Page Editor Manager                                                                  Page   22
0Current Usings:  (WPUTWA,R6) (*,R7) (CP,R11) (CV,R12)
0Loc    Object Code    Addr1 Addr2  Stmt Lv Lineno    Source Statement           (Hibal 5, Asmedit 3.3)  HLASM R4.0  2004/03/15 12.50
+___    ______ ____    _____ _____  ____ __ ______    ______ _________
0000CC0 5000 6004            00004 11043  1                      ST    R0,WPUTLNO          Save lineno
 000CC4                            11044                       END
 000CC4 18D8/9808 D004_            11048                       PEND
 DROP   WPUTWA,R6
 DROP   *,R7
                                   11073
 000CD2 50E0 D000/9008_      00000 11074              WPUTCUR  PROC
 USING  *,R7
 USING  WIND,R5                    11113                       WITH  (WIND,R5)
 000CEC D201 BAD6 5002 00AD6 00002 11126                       MVC   CPVWCUR,WINDNO
 000CF2 18D8/9808 D004_            11127                       PEND
 DROP   WIND,R5
 DROP   *,R7
                                   11152
 000D00 50E0 D000/9008_      00000 11153              WPUTERR  PROC
 USING  *,R7
 000D1A 41F0 0004            00004 11192                       LA    R15,4
 000D1E 18D8/9808 D004_            11193                       PEND
 DROP   *,R7
1PAGE     (PAGE2193) (12:50) (15MAR04) Page Editor Manager                                                                  Page   23
0Current Usings:  (CP,R11) (CV,R12)
0Loc    Object Code    Addr1 Addr2  Stmt Lv Lineno    Source Statement           (Hibal 5, Asmedit 3.3)  HLASM R4.0  2004/03/15 12.50
+___    ______ ____    _____ _____  ____ __ ______    ______ _________
0                                  11214              ¿þþþþþþþþþþþþþþþþþþþþþþþþþþþþþþþþþþþþþþþþþþþþþþþþþþþþþþþþþþþþþþþþþþþþþÜ
                                   11215              Ÿ                                                                     Ÿ
                                   11216              Ÿ  ROWGET -- Routine to return an information string about the        Ÿ
                                   11217              Ÿ    row specified.                                                   Ÿ
                                   11218              Ÿ                                                                     Ÿ
                                   11219              Ÿ    On entry:                                                        Ÿ
                                   11220              Ÿ       R15 - row number                                              Ÿ
                                   11221              Ÿ       R1,R0 - return string area (loc,len)                          Ÿ
                                   11222              Ÿ                                                                     Ÿ
                                   11223              Ÿ    On exit:                                                         Ÿ
                                   11224              Ÿ       R1,R0 - message loc, len                                      Ÿ
                                   11225              Ÿ                                                                     Ÿ
                                                      ¾þþþþþþþþþþþþþþþþþþþþþþþþþþþþþþþþþþþþþþþþþþþþþþþþþþþþþþþþþþþþþþþþþþþþþ»
0000000                00000 0003C 11226              RGETWA   RECORD BEGIN
                                   11234  1           RGETSG     SEGCB
 000000 00                         11235  1 01-SEGCB +$$$SEGCB182   DS 0F
 RGETSGCOD.RGETSGS 01 EQ
 RGETSGCOD.RGETSGW 02 EQ
 RGETSGCOD.RGETSGC 03 EQ
 RGETSGCOD.RGETSGS 04 EQ
 RGETSGCOD.RGETSGO 05 EQ
 RGETSGCOD.RGETSGC 06 EQ
 RGETSGCOD.RGETSGM 07 EQ
 000001 00                         11310  1 01-SEGCB +           DC    X'00'               Reserved
 000002 0000                              1          +
 000004 00000000                   11311  1 01-SEGCB +RGETSGMAXF   DC  A(0)                Maximum buffer length
 000008 00000000                   11312  1 01-SEGCB +RGETSGMRKF   DC  A(0)                Length at last mark
 00000C 00000000                   11313  1 01-SEGCB +RGETSGLENF   DC  A(0)                Current length
 000010 00000000                   11314  1 01-SEGCB +RGETSGINDF   DC  A(0)                Overflow/indent count
 000014 00000000                   11315  1 01-SEGCB +RGETSGERR   DC   A(0)                Address of error recovery routine
 000018 0000000000000000           11316  1 01-SEGCB +           DC    2F'0'               Reserved
 000020 00000000                   11317  1 01-SEGCB +RGETSGLOC   DC   A(0)                Location of buffer
 000024 00000000                   11318  1 01-SEGCB +RGETSGRTN   DC   A(0)                Processing routine
 000028 0000000000000000           11319  1 01-SEGCB +           DC    4F'0'               Reserved
 000038 00000000                   11320  1 01-SEGCB +RGETSGUSR   DC   A(0)                USER field
                                   11321  1 01-SEGCB +RGETSG     EQU   $$$SEGCB182,*-$$$SEGCB182,C'X'
 00003C                0003C 0003C 11322                       END
                                   11331              þþþþ
 000D2C 50E0 D000/9008_      00000 11332              ROWGET   XPROC RGETWA
 USING  *,R7
 USING  RGETWA-(4+36),R8
 000D46 D73B 8028 8028 00000 00000 11383                       CLEAR RGETWA
 000D4C 184F                       11390                       LR    R4,R15              Save row number
 000D4E 41F0 8028/58E0_      00000 11391                       SEGINIT (R1),(R0),RGETSG
                                   11414
 000D58 4110 7842/4100_      01588 11415                       SETMSG 'INVALID ROW NUMBER'
 000D60 1244/47D0 70F2             11419                       IF    (R4,POS),BEGIN      Valid row number...
 000D66 4110 78CE/4100_      01614 11433  1                      SETMSG 'NOT DEFINED'
 000D6E 4940 BAD4/4720_      00AD4 11437  1                      IF    (R4,GT,CPVHEI),EXIT
                                   11457  1
 000D76 4C40 7854            0159A 11458  1                      MH    R4,=AL2(L'LINT)
 000D7A 5A40 BB64            00B64 11459  1                      A     R4,CPXLINT
 USING  LINT,R4                    11460  1                      WITH  (LINT,R4)
1PAGE     (PAGE2193) (12:50) (15MAR04) Page Editor Manager                                                                  Page   24
0Current Usings:  (LINT,R4) (*,R7) (RGETWA-(4+36),R8) (CP,R11) (CV,R12)
0Loc    Object Code    Addr1 Addr2  Stmt Lv Lineno    Source Statement           (Hibal 5, Asmedit 3.3)  HLASM R4.0  2004/03/15 12.50
+___    ______ ____    _____ _____  ____ __ ______    ______ _________
0                                  11473  1                      ¿þþþþþþþþþþþþþþþþþþþþþþþþþþþþþþþþþþÜ
                                   11474  1                      Ÿ  Format row information string.  Ÿ
                                   11475  1                      ¾þþþþþþþþþþþþþþþþþþþþþþþþþþþþþþþþþþ»
 000D7E 4110 779A/4100_      014E0 11476  1                      SETMSG 'ERR '
 000D86 9500 400C/4770_0000C       11480  1                      IF    LINFFREE,'LA R1,=CL4"FREE"'
 000D92 9501 400C/4770_0000C       11501  1                      IF    LINFNEW,'LA R1,=CL4"NEW "'
 000D9E 9502 400C/4770_0000C       11522  1                      IF    LINFTEXT,'LA R1,=CL4"TEXT"'
 000DAA 9503 400C/4770_0000C       11543  1                      IF    LINFCOL,'LA R1,=CL4"COL "'
 000DB6 9504 400C/4770_0000C       11564  1                      IF    LINFCMD,'LA R1,=CL4"CMD "'
 000DC2 9505 400C/4770_0000C       11585  1                      IF    LINFMSG,'LA R1,=CL4"MSG "'
 000DCE 9506 400C/4770_0000C       11606  1                      IF    LINFSTAT,'LA R1,=CL4"STAT"'
 000DDA 41F0 8028/58E0_      00000 11627  1                      SEG   (R1),(R0)
                                   11650  1
 000DE4 4110 773A/4100_      01480 11651  1                      SEG   ' WINDOW='
 000DF6 4810 4002/1B00_      00002 11668  1                      SEGDC LH:LINTWIND
                                   11688  1
 000E06 9502 400C/4770_0000C       11689  1                      IF    LINFTEXT,BEGIN
 000E0E 4110 7856/4100_      0159C 11704  2                        SEG   ' LINE='
 000E20 5800 4010            00010 11721  2                        L     R0,LINTLNO
 000E24 58E0 77BA/0DEE       01500 11722  2                        VCALL CVEXNO
 000E2A 41F0 8028/58E0_      00000 11726  2                        SEG   (R1),(R0)
 000E34                            11749  1                      END
                                   11753  1
 000E34 1B11/1B00                  11754  1                      CLEAR R1,R0               (Fall through SEG below)
 DROP   LINT,R4                    11760                       END
                                   11769
 000E38 41F0 8028/58E0_      00000 11770                       SEG   (R1),(R0)
                                   11793
 000E42 5810 8048/5800_      00020 11794                       SETMSG L:RGETSGLOC,L:RGETSGLENF  Return string
 000E4A 9001 8004            00004 11806                       PRETURN (R0,R1)           Return to caller
                                   11808
 000E4E 1BFF                       11809                       CLEAR R15                 (Tidy)
 000E50 18D8/9808 D004_            11813                       PEND
 DROP   RGETWA-(4+36),R8
 DROP   *,R7
1PAGE     (PAGE2193) (12:50) (15MAR04) Page Editor Manager                                                                  Page   25
0Current Usings:  (CP,R11) (CV,R12)
0Loc    Object Code    Addr1 Addr2  Stmt Lv Lineno    Source Statement           (Hibal 5, Asmedit 3.3)  HLASM R4.0  2004/03/15 12.50
+___    ______ ____    _____ _____  ____ __ ______    ______ _________
0                                  11839              ¿þþþþþþþþþþþþþþþþþþþþþþþþþþþþþþþþþþþþþþþþþþþþþþþþþþþþþþþþþþþþþþþþþþþþþÜ
                                   11840              Ÿ                                                                     Ÿ
                                   11841              Ÿ  ROWPUT -- Routine to set information about the row specified.      Ÿ
                                   11842              Ÿ                                                                     Ÿ
                                   11843              Ÿ    On entry:                                                        Ÿ
                                   11844              Ÿ      R15 - row number                                               Ÿ
                                   11845              Ÿ      R1,R0 - return string area (loc,len)                           Ÿ
                                   11846              Ÿ      R3,R2 - options string loc, len                                Ÿ
                                   11847              Ÿ                                                                     Ÿ
                                   11848              Ÿ    On exit:                                                         Ÿ
                                   11849              Ÿ      R1,R0 - return message loc, len                                Ÿ
                                   11850              Ÿ                                                                     Ÿ
                                                      ¾þþþþþþþþþþþþþþþþþþþþþþþþþþþþþþþþþþþþþþþþþþþþþþþþþþþþþþþþþþþþþþþþþþþþþ»
0000000                00000 0003C 11851              RPUTWA   RECORD BEGIN
                                   11859  1           RPUTSG     SEGCB
 000000 00                         11860  1 01-SEGCB +$$$SEGCB203   DS 0F
 RPUTSGCOD.RPUTSGS 01 EQ
 RPUTSGCOD.RPUTSGW 02 EQ
 RPUTSGCOD.RPUTSGC 03 EQ
 RPUTSGCOD.RPUTSGS 04 EQ
 RPUTSGCOD.RPUTSGO 05 EQ
 RPUTSGCOD.RPUTSGC 06 EQ
 RPUTSGCOD.RPUTSGM 07 EQ
 000001 00                         11935  1 01-SEGCB +           DC    X'00'               Reserved
 000002 0000                              1          +
 000004 00000000                   11936  1 01-SEGCB +RPUTSGMAXF   DC  A(0)                Maximum buffer length
 000008 00000000                   11937  1 01-SEGCB +RPUTSGMRKF   DC  A(0)                Length at last mark
 00000C 00000000                   11938  1 01-SEGCB +RPUTSGLENF   DC  A(0)                Current length
 000010 00000000                   11939  1 01-SEGCB +RPUTSGINDF   DC  A(0)                Overflow/indent count
 000014 00000000                   11940  1 01-SEGCB +RPUTSGERR   DC   A(0)                Address of error recovery routine
 000018 0000000000000000           11941  1 01-SEGCB +           DC    2F'0'               Reserved
 000020 00000000                   11942  1 01-SEGCB +RPUTSGLOC   DC   A(0)                Location of buffer
 000024 00000000                   11943  1 01-SEGCB +RPUTSGRTN   DC   A(0)                Processing routine
 000028 0000000000000000           11944  1 01-SEGCB +           DC    4F'0'               Reserved
 000038 00000000                   11945  1 01-SEGCB +RPUTSGUSR   DC   A(0)                USER field
                                   11946  1 01-SEGCB +RPUTSG     EQU   $$$SEGCB203,*-$$$SEGCB203,C'X'
 00003C                0003C 0003C 11947                       END
                                   11956              þþþþ
 000E5E 50E0 D000/9008_      00000 11957              ROWPUT   XPROC RPUTWA
 USING  *,R7
 USING  RPUTWA-(4+36),R8
 000E78 4160 8028            00000 12008                       LA    R6,RPUTWA
 USING  RPUTWA,R6                  12009                       WITH  (RPUTWA,R6)
 000E7C D73B 6000 6000 00000 00000 12022                       CLEAR RPUTWA
 000E82 184F                       12029                       LR    R4,R15              Save window number
 000E84 58E0 B08C/D2AF_      0008C 12030                       SCPUSH ,
 000E92 41F0 6000/58E0_      00000 12036                       SEGINIT (R1),(R0),RPUTSG
                                   12059
 000E9C 4110 7710/4100_      01588 12060                       SETMSG 'INVALID ROW NUMBER'
 000EA4 1244/47D0 70C0             12064                       IF    (R4,POS),BEGIN      Valid row number...
 000EAA 4940 BAD4/4720_      00AD4 12078  1                      IF    (R4,GT,CPVHEI),EXIT
                                   12098  1
 000EB2 4C40 7722            0159A 12099  1                      MH    R4,=AL2(L'LINT)
1PAGE     (PAGE2193) (12:50) (15MAR04) Page Editor Manager                                                                  Page   26
0Current Usings:  (RPUTWA,R6) (*,R7) (RPUTWA-(4+36),R8) (CP,R11) (CV,R12)
0Loc    Object Code    Addr1 Addr2  Stmt Lv Lineno    Source Statement           (Hibal 5, Asmedit 3.3)  HLASM R4.0  2004/03/15 12.50
+___    ______ ____    _____ _____  ____ __ ______    ______ _________
0000EB6 5A40 BB64            00B64 12100  1                      A     R4,CPXLINT
 USING  LINT,R4                    12101  1                      WITH  (LINT,R4)
                                   12114  1                      ¿þþþþþþþþþþþþþþþþþþþþþþþþþþþþþþþþþþÜ
                                   12115  1                      Ÿ  Modify existing row's options.  Ÿ
                                   12116  1                      ¾þþþþþþþþþþþþþþþþþþþþþþþþþþþþþþþþþþ»
 000EBA 1813/1802/58E0_            12117  1                      SCINIT (R3),(R2)
                                   12139  1
 000ECC 5810 B08C/1B00_      0008C 12140  1                      SCAN  RPUTPRT
 000F1E 12FF/4780 70B4_            12172  1                      IF    (R15,NZ),'SETMSG "ERROR"'
 000F2C 70B8/47F0 70C0_00F2C 00F22 12195  1                      ELSE  'SETMSG "OK"'
 DROP   LINT,R4                    12215                       END
                                   12224
 000F38 41F0 6000/58E0_      00000 12225                       SEG   (R1),(R0)
                                   12248
 000F42 5810 6020/5800_      00020 12249                       SETMSG L:RPUTSGLOC,L:RPUTSGLENF  Return string
 000F4A 9001 8004            00004 12261                       PRETURN (R0,R1)
                                   12263
 000F4E 58E0 B08C/4BD0_      0008C 12264                       SCPOP ,                   Restore scanner
                                   12270
 000F5C 1BFF                       12271                       CLEAR R15                 (Tidy)
 000F5E 18D8/9808 D004_            12275                       PEND
 DROP   RPUTWA,R6
 DROP   RPUTWA-(4+36),R8
 DROP   *,R7
                                   12305                       ¿þþþþþþþþþþþþþþþþþþþÜ
                                   12306                       Ÿ  ROWPUT Options.  Ÿ
                                   12307                       ¾þþþþþþþþþþþþþþþþþþþ»
 000F6C C6D9C5C540404040_          12308              RPUTPRT  SCKW  FREE,RPUTFREE,A
 000F94 D5C5E64040404040_          12323                       SCKW  NEW,RPUTNEW
 000FBC E3C5E7E340404040_          12338                       SCKW  TEXT,RPUTTEXT,A
 000FE4 C3D6D3E4D4D54040_          12353                       SCKW  COLUMN,RPUTCOL,A
 00100C C3D4C44040404040_          12368                       SCKW  CMD,RPUTCMD
 001034 D4E2C74040404040_          12383                       SCKW  MSG,RPUTMSG
 00105C E2E3C1E3E4E24040_          12398                       SCKW  STATUS,RPUTSTAT,A
 001084 4040404040404040_          12413                       SCKW  ,RPUTERR
                                   12428              þþþþ
 0010AC 50E0 D000/9008_      00000 12429              RPUTFREE PROC
 USING  *,R7
 USING  LINT,R4                    12468                       WITH  (LINT,R4)
 0010C6 9200 400C      0000C       12481                       SET   LINFFREE
 0010CA 18D8/9808 D004_            12487                       PEND
 DROP   LINT,R4
 DROP   *,R7
                                   12512
 0010D8 50E0 D000/9008_      00000 12513              RPUTNEW  PROC
 USING  *,R7
 USING  LINT,R4                    12552                       WITH  (LINT,R4)
 0010F2 9201 400C      0000C       12565                       SET   LINFNEW
 0010F6 18D8/9808 D004_            12571                       PEND
 DROP   LINT,R4
 DROP   *,R7
                                   12596
 001104 50E0 D000/9008_      00000 12597              RPUTTEXT PROC
 USING  *,R7
1PAGE     (PAGE2193) (12:50) (15MAR04) Page Editor Manager                                                                  Page   27
0Current Usings:  (LINT,R4) (*,R7) (CP,R11) (CV,R12)
0Loc    Object Code    Addr1 Addr2  Stmt Lv Lineno    Source Statement           (Hibal 5, Asmedit 3.3)  HLASM R4.0  2004/03/15 12.50
+___    ______ ____    _____ _____  ____ __ ______    ______ _________
0USING  LINT,R4                    12636                       WITH  (LINT,R4)
 00111E 9202 400C      0000C       12649                       SET   LINFTEXT
 001122 18D8/9808 D004_            12655                       PEND
 DROP   LINT,R4
 DROP   *,R7
                                   12680
 001130 50E0 D000/9008_      00000 12681              RPUTCOL  PROC
 USING  *,R7
 USING  LINT,R4                    12720                       WITH  (LINT,R4)
 00114A 9203 400C      0000C       12733                       SET   LINFCOL
 00114E 18D8/9808 D004_            12739                       PEND
 DROP   LINT,R4
 DROP   *,R7
                                   12764
 00115C 50E0 D000/9008_      00000 12765              RPUTCMD  PROC
 USING  *,R7
 USING  LINT,R4                    12804                       WITH  (LINT,R4)
 001176 9204 400C      0000C       12817                       SET   LINFCMD
 00117A 18D8/9808 D004_            12823                       PEND
 DROP   LINT,R4
 DROP   *,R7
                                   12848
 001188 50E0 D000/9008_      00000 12849              RPUTMSG  PROC
 USING  *,R7
 USING  LINT,R4                    12888                       WITH  (LINT,R4)
 0011A2 9205 400C      0000C       12901                       SET   LINFMSG
 0011A6 18D8/9808 D004_            12907                       PEND
 DROP   LINT,R4
 DROP   *,R7
                                   12932
 0011B4 50E0 D000/9008_      00000 12933              RPUTSTAT PROC
 USING  *,R7
 USING  LINT,R4                    12972                       WITH  (LINT,R4)
 0011CE 9206 400C      0000C       12985                       SET   LINFSTAT
 0011D2 18D8/9808 D004_            12991                       PEND
 DROP   LINT,R4
 DROP   *,R7
                                   13016
 0011E0 50E0 D000/9008_      00000 13017              RPUTERR  PROC
 USING  *,R7
 0011FA 41F0 0004            00004 13056                       LA    R15,4
 0011FE 18D8/9808 D004_            13057                       PEND
 DROP   *,R7
1PAGE     (PAGE2193) (12:50) (15MAR04) Page Editor Manager                                                                  Page   28
0Current Usings:  (CP,R11) (CV,R12)
0Loc    Object Code    Addr1 Addr2  Stmt Lv Lineno    Source Statement           (Hibal 5, Asmedit 3.3)  HLASM R4.0  2004/03/15 12.50
+___    ______ ____    _____ _____  ____ __ ______    ______ _________
0                                  13078              ¿þþþþþþþþþþþþþþþþþþþþþþþþþþþþþþþþþþþþþþþþþþþþþþþþþþþþþþþþþþþþþþþþþþþþþÜ
                                   13079              Ÿ                                                                     Ÿ
                                   13080              Ÿ  PAGETCHK -- Routine to make sure that the type of terminal being   Ÿ
                                   13081              Ÿ    used works in page mode.  This routine returns only if it's      Ÿ
                                   13082              Ÿ    ok.                                                              Ÿ
                                   13083              Ÿ                                                                     Ÿ
                                                      ¾þþþþþþþþþþþþþþþþþþþþþþþþþþþþþþþþþþþþþþþþþþþþþþþþþþþþþþþþþþþþþþþþþþþþþ»
000120C 50E0 D000/9008_      00000 13084              PAGETCHK XPROC
 USING  *,R7
                                   13124                       ¿þþþþþþþþþþþþþþþþþþþþþþþþþþþþþþþþþþþþþþþþþþþþþþþþþþÜ
                                   13125                       Ÿ  Make sure the front-end can support page mode.  Ÿ
                                   13126                       ¾þþþþþþþþþþþþþþþþþþþþþþþþþþþþþþþþþþþþþþþþþþþþþþþþþþ»
 001226 9502 B38C/4770_0038C       13127                       IF    CPSTASYN,BEGIN      1270...
 00122E 4110 737C/4100_      015A2 13142  1                      TSEG  'This type of terminal controller does not support '
 001240 4110 73F9/4100_      0161F 13160  1                      TSEG  'the VIEW command.',,CR
 001252 4110 740A/4100_      01630 13178  1                      ABORT 'Type HELP DIAL-UP for more information.'
 00125E                            13185                       END
                                   13189
 00125E 9505 B38C/4770_0038C       13190                       IF    CPSTVIRT,BEGIN      Virtual terminal...
 001266 4110 7431/4100_      01657 13205  1                      ABORT 'Virtual terminals can not use the VIEW command.'
 001272                            13212                       END
                                   13216
 001272 9501 B38C/4770_0038C       13217                       IF    CPSTCONS,BEGIN      Console...
 00127A 4110 73AE/4100_      015D4 13232  1                      ABORT 'Consoles can not use the VIEW command.'
 001286                            13239                       END
                                   13243                       ¿þþþþþþþþþþþþþþþþþþþþþþþþþþþþþþþþþþþþþþþþþþþþþþþþþÜ
                                   13244                       Ÿ  Make sure this type of terminal is supported.  Ÿ
                                   13245                       ¾þþþþþþþþþþþþþþþþþþþþþþþþþþþþþþþþþþþþþþþþþþþþþþþþþ»
 001286 5860 B468/1266       00468 13246                       LT    R6,CPTTYPEP
 00128C 4780 7072            01298 13250                       BZ    MODMSG
 USING  TTYPE,R6                   13251                       WITH  (TTYPE,R6),BEGIN
 001290 9180 6005/4710_00005       13265  1                      IF    ~TTYFMOD,BEGIN      Not supported by model terminal...
 001298 D607 B41E B41E_0041E 0041E 13280  2           MODMSG       IF    (CPSTTYPE,Z),BEGIN
 0012A2 4110 7460/4100_      01686 13297  3                          TSEG  'You must first issue the "SET TERMINAL type" '
 0012B4 4110 7262/4100_      01488 13315  3                          TSEG  'command.',,CR
 0012C6                            13333  2                        END
                                   13337  2
 0012C6 70A4/47F0 70DA 012C6 012A0 13338  2                        ELSE  BEGIN               Wrong type of terminal...
 0012CA 4110 72E6/4100_      0150C 13349  3                          TSEG  'The type of terminal you are using ('
 0012DC 4110 B41E/4100_      0041E 13367  3                          TSEG  CPSTTYPE,,T
 0012EE 4110 726A/4100_      01490 13395  3                          TSEG  ') is not supported in page mode.',,CR
 001300                            13413  2                        END
                                   13417  2
 001300 D207 B886 728A_00886 014B0 13418  2                        ABORT 'Type ? for more information.',,BADTERM
 001312                            13426  1                      END
 DROP   TTYPE,R6                   13430                       END
 001312 18D8/9808 D004_            13438                       PEND
 DROP   *,R7
1PAGE     (PAGE2193) (12:50) (15MAR04) Page Editor Manager                                                                  Page   29
0Current Usings:  (CP,R11) (CV,R12)
0Loc    Object Code    Addr1 Addr2  Stmt Lv Lineno    Source Statement           (Hibal 5, Asmedit 3.3)  HLASM R4.0  2004/03/15 12.50
+___    ______ ____    _____ _____  ____ __ ______    ______ _________
0                                  13459              ¿þþþþþþþþþþþþþþþþþþþþþþþþþþþþþþþþþþþþþþþþþþþþþþþþþþþþþþþþþþþþþþþþþþþþþÜ
                                   13460              Ÿ                                                                     Ÿ
                                   13461              Ÿ  PAGECMD -- Routine to get the next command when the user is        Ÿ
                                   13462              Ÿ    in page mode.                                                    Ÿ
                                   13463              Ÿ                                                                     Ÿ
                                   13464              Ÿ    This routine is entered from the command processor.              Ÿ
                                   13465              Ÿ                                                                     Ÿ
                                                      ¾þþþþþþþþþþþþþþþþþþþþþþþþþþþþþþþþþþþþþþþþþþþþþþþþþþþþþþþþþþþþþþþþþþþþþ»
0001320 50E0 D000/9008_      00000 13466              PAGECMD  XPROC
 USING  *,R7
                                   13506                       ¿þþþþþþþþþþþþþþþþþþþþþþþþþþþþþþþþþþþþþþþþþþþþþþþþÜ
                                   13507                       Ÿ  Initialize view control blocks if necessary.  Ÿ
                                   13508                       ¾þþþþþþþþþþþþþþþþþþþþþþþþþþþþþþþþþþþþþþþþþþþþþþþþ»
 00133A D601 BAD8 BAD8_00AD8 00AD8 13509                       IF    (CPVWCNT,Z),'ACALL PAGEINIT'  Initialize page
                                   13534                       ¿þþþþþþþþþþþþþþþþþþþþþþþþþþþþþþþþþþþþþþþþþþþþþþþþÜ
                                   13535                       Ÿ  Reset information from the previous command.  Ÿ
                                   13536                       ¾þþþþþþþþþþþþþþþþþþþþþþþþþþþþþþþþþþþþþþþþþþþþþþþþ»
 00134A 58E0 721A/0DEE       01554 13537                       VCALL INITCMD             Re-initialize
                                   13541                       ¿þþþþþþþþþþþþþþþþþþþþþþþþþþÜ
                                   13542                       Ÿ  View the current page.  Ÿ
                                   13543                       ¾þþþþþþþþþþþþþþþþþþþþþþþþþþ»
 001350                            13544                       LOOP  BEGIN               Loop forever in page mode ..
 001350 94DF BAC8      00AC8       13550  1                      CLEAR CPVFSPEC            Nothing specific
 001354 58E0 721E/0DEE       01558 13557  1                      ACALL PAGEMOD             View the current page
 00135A 4780 702E/58E0_      01368 13561  1                      IF    NZ,'ACALL PAGERES; B CVNEXT'  Reset page mode
                                   13582  1
 001368 D24F BAFC C4D8 00AFC 004D8 13583  1                      MVC   CPVMSG,CVBLANKS
 00136E D232 BAFC 7052 00AFC 0138C 13584  1                      MVC   CPVMSG(L'CONTMSG),CONTMSG  Nothing to continue
 001374 9620 BACE      00ACE       13585  1                      SET   CPVFBELL            Complain
 001378 47F0 7016            01350 13591                       END
                                   13596
 00137C 0000                       13597                       BOMB                      never hit, we loop above forever
 00137E 18D8/9808 D004_            13599                       PEND
 DROP   *,R7
                                   13619
 00138C D596A38889958740           13620              CONTMSGX DC    C'Nothing to continue, '
 0013A1 C3D6D5E3C9D5E4C5           13621                       DC    C'CONTINUE [ESC RETURN] ignored.'
                                   13622              CONTMSG  EQU   CONTMSGX,*-CONTMSGX,C'X'
1PAGE     (PAGE2193) (12:50) (15MAR04) Page Editor Manager                                                                  Page   30
0Current Usings:  (CP,R11) (CV,R12)
0Loc    Object Code    Addr1 Addr2  Stmt Lv Lineno    Source Statement           (Hibal 5, Asmedit 3.3)  HLASM R4.0  2004/03/15 12.50
+___    ______ ____    _____ _____  ____ __ ______    ______ _________
0                                  13624              ¿þþþþþþþþþþþþþþþþþþþþþþþþþþþþþþþþþþþþþþþþþþþþþþþþþþþþþþþþþþþþþþþþþþþþþÜ
                                   13625              Ÿ                                                                     Ÿ
                                   13626              Ÿ  PAGEMSG -- Routine to take the current terminal seg buffer and     Ÿ
                                   13627              Ÿ    place that text into the page mode message area.  If the         Ÿ
                                   13628              Ÿ    text won't fit, no action is taken.                              Ÿ
                                   13629              Ÿ                                                                     Ÿ
                                                      ¾þþþþþþþþþþþþþþþþþþþþþþþþþþþþþþþþþþþþþþþþþþþþþþþþþþþþþþþþþþþþþþþþþþþþþ»
00013C0 50E0 D000/9008_      00000 13630              PAGEMSG  XPROC
 USING  *,R7
 0013DA 9180 BD55/4710_00D55       13670                       IF    (CPFDUMP,OR,CPFQUIET),PMSGEXIT  Forget it
                                   13702
 0013EA 5820 B05C/1222       0005C 13703                       LT    R2,CPSEGLENF        Length of pending msg
 0013F0 47D0 7076            01450 13707                       IF    POS,BEGIN
 0013F4 9180 B758/4710_00758       13718  1                      IF    CPFEXEC,EXIT  In EXEC mode, forget it
                                   13736  1
 0013FC 5920 7186/4720_      01560 13737  1                      IF    (R2,GT,L'CPVMSG),EXIT  Too big, forget it
 001404 5830 B070            00070 13757  1                      L     R3,CPSEGLOC
 001408 41F2 3000            00000 13758  1                      LA    R15,@R3(R2)
 00140C 06F0                       13759  1                      DECR  R15                 Last char
 00140E 9515 F000/4770_00000       13761  1                      IF    (@R15,EQ,X'15'),'DECR R2'  Strip trailing NL
                                   13784  1                      ¿þþþþþþþþþþþþþþþþþþþþþþþþþþþþÜ
                                   13785  1                      Ÿ  Check for imbedded NL's.  Ÿ
                                   13786  1                      ¾þþþþþþþþþþþþþþþþþþþþþþþþþþþþ»
 001418 1813/1802                  13787  1                      SETMSG (R3),(R2)
 00141C 1200/47D0 705A             13799  1                      WHILE (R0,POS),BEGIN      Look for NL's...
 001422 9515 1000/4780_00000       13815  2                        IF    (@R1,EQ,X'15'),PMSGEXIT  Found an NL, scram
 00142A 4110 1001            00001 13834  2                        LA    R1,@R1+1
 00142E 0600                       13835  2                        DECR  R0
 001430 47F0 7042            0141C 13837  1                      END
                                   13842  1                      ¿þþþþþþþþþþþþþþþþþþþþþþþþþþþþþþþþþþþþþþþþþþþþþþþþÜ
                                   13843  1                      Ÿ  Save the text as the page mode message line.  Ÿ
                                   13844  1                      ¾þþþþþþþþþþþþþþþþþþþþþþþþþþþþþþþþþþþþþþþþþþþþþþþþ»
 001434 D24F BAFC C4D8 00AFC 004D8 13845  1                      MVC   CPVMSG,CVBLANKS
 00143A 0620/1222/4740_            13846  1                      MOVE  R2,CPVMSG,@R3       Set it as the info msg
                                   13884  1
 001446 41F0 B050/58E0_      00050 13885  1                      TCLEAR
 001450                            13899                       END
                                   13903
 001450 18D8/9808 D004_            13904              PMSGEXIT PEND
 DROP   *,R7
                                   13925
                                   13926                       QLTORG
1PAGE     (PAGE2193) (12:50) (15MAR04) Page Editor Manager                                                                  Page   31
0Current Usings:  (CP,R11) (CV,R12)
0Loc    Object Code    Addr1 Addr2  Stmt Lv Lineno    Source Statement           (Hibal 5, Asmedit 3.3)  HLASM R4.0  2004/03/15 12.50
+___    ______ ____    _____ _____  ____ __ ______    ______ _________
0                                  13997              ¿þþþþþþþþþþþþþþþþþþþþþþþþþþþþþþþþþþþþþþþþþþþþþþþþþþþþþþþþþþþþþþþþþþþþþÜ
                                   13998              Ÿ                                                                     Ÿ
                                   13999              Ÿ  PAGERES -- Routine to reset page mode if the user is currently     Ÿ
                                   14000              Ÿ    in page mode.                                                    Ÿ
                                   14001              Ÿ                                                                     Ÿ
                                                      ¾þþþþþþþþþþþþþþþþþþþþþþþþþþþþþþþþþþþþþþþþþþþþþþþþþþþþþþþþþþþþþþþþþþþþþ»
0000000                00000 0008A 14002              PRESWA   RECORD BEGIN
                                   14010  1           PRSEG      SEGCB
 000000 00                         14011  1 01-SEGCB +$$$SEGCB272   DS 0F
 PRSEGCOD.PRSEGSEG 01 EQ
 PRSEGCOD.PRSEGWR  02 EQ
 PRSEGCOD.PRSEGCLR 03 EQ
 PRSEGCOD.PRSEGSPP 04 EQ
 PRSEGCOD.PRSEGOVF 05 EQ
 PRSEGCOD.PRSEGCR  06 EQ
 PRSEGCOD.PRSEGMAR 07 EQ
 000001 00                         14086  1 01-SEGCB +           DC    X'00'               Reserved
 000002 0000                              1          +
 000004 00000000                   14087  1 01-SEGCB +PRSEGMAXF   DC   A(0)                Maximum buffer length
 000008 00000000                   14088  1 01-SEGCB +PRSEGMRKF   DC   A(0)                Length at last mark
 00000C 00000000                   14089  1 01-SEGCB +PRSEGLENF   DC   A(0)                Current length
 000010 00000000                   14090  1 01-SEGCB +PRSEGINDF   DC   A(0)                Overflow/indent count
 000014 00000000                   14091  1 01-SEGCB +PRSEGERR   DC    A(0)                Address of error recovery routine
 000018 0000000000000000           14092  1 01-SEGCB +           DC    2F'0'               Reserved
 000020 00000000                   14093  1 01-SEGCB +PRSEGLOC   DC    A(0)                Location of buffer
 000024 00000000                   14094  1 01-SEGCB +PRSEGRTN   DC    A(0)                Processing routine
 000028 0000000000000000           14095  1 01-SEGCB +           DC    4F'0'               Reserved
 000038 00000000                   14096  1 01-SEGCB +PRSEGUSR   DC    A(0)                USER field
                                   14097  1 01-SEGCB +PRSEG      EQU   $$$SEGCB272,*-$$$SEGCB272,C'X'
 00003C                            14098  1           PRTRM      DS    XL(L'CPTRM)         Terminal I/O options
                                   14099  1
 00004A                            14100  1           PRESBUF    DS    CL64                Local seg buffer
 00008A                0008A 0008A 14101                       END
                                   14110              þþþþ
 0016BA 50E0 D000/9008_      00000 14111              PAGERES  XPROC PRESWA
 USING  *,R7
 USING  PRESWA-(4+36),R8
                                   14162
 0016D4 9180 BAC8/47E0_00AC8       14163                       IF    CPVFPAGE,BEGIN      Currently in page mode...
                                   14178  1                      ¿þþþþþþþþþþþþþþþþþþþþþþþþþþþþþþþþþþþþþþþþþþþþþþþþþþþþþþþþþþþþÜ
                                   14179  1                      Ÿ  Save the current TSEG buffer and use a local seg buffer.  Ÿ
                                   14180  1                      ¾þþþþþþþþþþþþþþþþþþþþþþþþþþþþþþþþþþþþþþþþþþþþþþþþþþþþþþþþþþþþ»
 0016DC D23B 8028 B050 00000 00050 14181  1                      MVC   PRSEG,CPSEG         Save standard seg buffer info
 0016E2 D20D 8064 BC7A 0003C 00C7A 14182  1                      MVC   PRTRM,CPTRM         Save terminal I/O options
 0016E8 D70D BC7A BC7A 00C7A 00C7A 14183  1                      CLEAR CPTRM               Use default options
                                   14190  1                      ¿þþþþþþþþþþþþþþþþþþþþþþþþþþþþþþþþþþþþþþþþþþþþþþþþþþþþþþþþþþþþÜ
                                   14191  1                      Ÿ  Switch back to line mode (different for VTAM terminals).  Ÿ
                                   14192  1                      ¾þþþþþþþþþþþþþþþþþþþþþþþþþþþþþþþþþþþþþþþþþþþþþþþþþþþþþþþþþþþþ»
 0016EE 9180 BACB/47E0_00ACB       14193  1                      IF    CPVFVTAM,BEGIN      VTAM terminal...
 0016F6 4110 8072/4100_      0004A 14208  2                        SEGINIT PRESBUF,,CPSEG    Init new seg buffer
 001708 D203 B074 804C 00074 00024 14235  2                        MVC   CPSEGRTN,PRSEGRTN   Set appropriate routine
 00170E 9610 BC7B      00C7B       14236  2                        SET   CPFDISP             It's still display mode
1PAGE     (PAGE2193) (12:50) (15MAR04) Page Editor Manager                                                                  Page   32
0Current Usings:  (*,R7) (PRESWA-(4+36),R8) (CP,R11) (CV,R12)
0Loc    Object Code    Addr1 Addr2  Stmt Lv Lineno    Source Statement           (Hibal 5, Asmedit 3.3)  HLASM R4.0  2004/03/15 12.50
+___    ______ ____    _____ _____  ____ __ ______    ______ _________
0                                  14242  2                        ¿þþþþþþþþþþþþþþþþþþþþþþþþþþþþþþþþþþþþþþþþþþþþþþþþþþþþþþþþþþþþþÜ
                                   14243  2                        Ÿ  Write the final sequence when exiting page mode.  We will  Ÿ
                                   14244  2                        Ÿ    rewrite it (up to 5 times) if the user interrupts it.    Ÿ
                                   14245  2                        ¾þþþþþþþþþþþþþþþþþþþþþþþþþþþþþþþþþþþþþþþþþþþþþþþþþþþþþþþþþþþþþ»
 001712 4150 0005            00005 14246  2                        LA    R5,5                Maximum retry count
 001716 1255/47D0 7084             14247  2                        WHILE (R5,POS),BEGIN
 00171C 41F0 0104/58E0_      00104 14263  3                          TREND BACK                Set background rendition
 001726 5810 7E84/4100_      02558 14270  3                          TSEG  L:=A($CSVTAM),L'$CSVTAM  VTAM version of clear screen
 001738 41F0 B050/58E0_      00050 14298  3                          TMARK ,                   (Avoid NL)
 001742 1B00/41F0 B050_            14312  3                          TWRITE
 00174E 47D0 7084            01758 14337  3                          IF    NP,EXIT             Normal or logging off, scram
 001752 0650                       14351  3                          DECR  R5
 001754 47F0 7042            01716 14353  2                        END
                                   14358  2
 001758 947F BAC8/94EF_00AC8       14359  2                        CLEAR CPVFPAGE,CPFDISP    Reset page mode
 001760 D601 B240 B240_00240 00240 14371  2                        IF    (CPCMDLEN,NZ),BEGIN  We have a new command...
 00176A 1B11/1B00                  14387  3                          CLEAR R1,R0
 00176E 58E0 7E94/0DEE       02568 14393  3                          VCALL GETHCMD             Get most recently typed command
 001774 1200/47D0 70DE             14397  3                          IF    (R0,POS),BEGIN      Re-display the command...
 00177A 9001 D000/41D0_      00000 14411  4                            XPUSH R0,R1
 001782 4110 7F06/4100_      025DA 14414  4                            TSEG  'Command: '
 001794 4BD0 7EEC/9801_      025C0 14432  4                            XPOP  R0,R1
 00179C 41F0 B050/58E0_      00050 14435  4                            TSEG  (R1),(R0),T
 0017A6 1B00/41F0 B050_            14459  4                            TWRITE
 0017B2                            14484  3                          END
 0017B2                            14488  2                        END
                                   14492  2
 0017B2 47F0 71A4            01878 14493  2                        B     PRESDONE            Finish up
 0017B6                            14494  1                      END
                                   14498  1                      ¿þþþþþþþþþþþþþþþþþþþþþþþþþþþþþþþþþþþþþþþþþþþþþþþþþþþþþþþþþþþþþÜ
                                   14499  1                      Ÿ  Write the final sequence when exiting page mode.  We will  Ÿ
                                   14500  1                      Ÿ    rewrite it (up to 5 times) if the user interrupts it.    Ÿ
                                   14501  1                      ¾þþþþþþþþþþþþþþþþþþþþþþþþþþþþþþþþþþþþþþþþþþþþþþþþþþþþþþþþþþþþþ»
 0017B6 4150 0005            00005 14502  1                      LA    R5,5                Maximum retry count
 0017BA 1255/47D0 71A4             14503  1                      WHILE (R5,POS),BEGIN
 0017C0 4110 8072/4100_      0004A 14519  2                        SEGINIT PRESBUF,,CPSEG    Init new seg buffer
 0017D2 D203 B074 804C 00074 00024 14546  2                        MVC   CPSEGRTN,PRSEGRTN   Set appropriate routine
 0017D8 9610 BC7B      00C7B       14547  2                        SET   CPFDISP             It's still display mode
                                   14553  2                        ¿þþþþþþþþþþþþþþþþþþþþþþþþþþþþþþþþþþþþþþÜ
                                   14554  2                        Ÿ  Make sure the rendition is normal.  Ÿ
                                   14555  2                        ¾þþþþþþþþþþþþþþþþþþþþþþþþþþþþþþþþþþþþþþ»
 0017DC 41F0 0104/58E0_      00104 14556  2                        TREND BACK                Background rendition
                                   14563  2
 0017E6 4110 7F0F/4100_      025E3 14564  2                        TSEG  '<.normal>'         Do the other rendition reset
 0017F8 41F0 B050/58E0_      00050 14582  2                        TMARK
                                   14596  2                        ¿þþþþþþþþþþþþþþþþþþþþþþþþþþþÜ
                                   14597  2                        Ÿ  Clear any message area.  Ÿ
                                   14598  2                        ¾þþþþþþþþþþþþþþþþþþþþþþþþþþþ»
 001802 5810 7E9C/4100_      02570 14599  2                        TSEG  L:=A($CLRMSG),L'$CLRMSG
1PAGE     (PAGE2193) (12:50) (15MAR04) Page Editor Manager                                                                  Page   33
0Current Usings:  (*,R7) (PRESWA-(4+36),R8) (CP,R11) (CV,R12)
0Loc    Object Code    Addr1 Addr2  Stmt Lv Lineno    Source Statement           (Hibal 5, Asmedit 3.3)  HLASM R4.0  2004/03/15 12.50
+___    ______ ____    _____ _____  ____ __ ______    ______ _________
0                                  14627  2                        ¿þþþþþþþþþþþþþþþþþþþþþþþþþþþþþþþÜ
                                   14628  2                        Ÿ  Reset any scrolling region.  Ÿ
                                   14629  2                        ¾þþþþþþþþþþþþþþþþþþþþþþþþþþþþþþþ»
 001814 5810 7EA0/4100_      02574 14630  2                        TSEG  L:=A($CSI),L'$CSI
 001826 4110 7F18/4100_      025EC 14658  2                        TSEG  'r'
                                   14676  2                    ¿þþþþþþþþþþþþþþþþþþþþþþþþþþþþþþþþþþþþþþþþþþþþþþþþþþþþþþþþþþþþþþþþþþþÜ
                                   14677  2                    Ÿ  Clear everything from the message row to the end of the screen.  Ÿ
                                   14678  2                    ¾þþþþþþþþþþþþþþþþþþþþþþþþþþþþþþþþþþþþþþþþþþþþþþþþþþþþþþþþþþþþþþþþþþþ»
 001838 4800 BB4E/4110_      00B4E 14679  2                        TCURS LH:CPVMSGR,1         Position to message row
 001846 5810 7EA8/4100_      0257C 14696  2                        TSEG  L:=A($CREM),L'$CREM  Clear
 001858 41F0 B050/58E0_      00050 14724  2                        TMARK ,                   (Avoid NL)
 001862 1B00/41F0 B050_            14738  2                        TWRITE
 00186E 47D0 71A4            01878 14763  2                        IF    NP,EXIT             Normal or logging off, scram
                                   14777  2
 001872 0650                       14778  2                        DECR  R5
 001874 47F0 70E6            017BA 14780  1                      END
                                   14785  1                      ¿þþþþþþþþþþþþþþþþþþþþþþþþþþþþþþþþþÜ
                                   14786  1                      Ÿ  Restore standard TSEG buffer.  Ÿ
                                   14787  1                      ¾þþþþþþþþþþþþþþþþþþþþþþþþþþþþþþþþþ»
 001878 D23B B050 8028 00050 00000 14788  1           PRESDONE   MVC   CPSEG,PRSEG
 00187E D20D BC7A 8064 00C7A 0003C 14789  1                      MVC   CPTRM,PRTRM
                                   14790  1
 001884 947F BAC8/94EF_00AC8       14791  1                      CLEAR CPVFPAGE,CPFDISP    Reset page mode
 00188C                            14803                       END
 00188C 18D8/9808 D004_            14807                       PEND
 DROP   PRESWA-(4+36),R8
 DROP   *,R7
1PAGE     (PAGE2193) (12:50) (15MAR04) Page Editor Manager                                                                  Page   34
0Current Usings:  (CP,R11) (CV,R12)
0Loc    Object Code    Addr1 Addr2  Stmt Lv Lineno    Source Statement           (Hibal 5, Asmedit 3.3)  HLASM R4.0  2004/03/15 12.50
+___    ______ ____    _____ _____  ____ __ ______    ______ _________
0                                  14833              ¿þþþþþþþþþþþþþþþþþþþþþþþþþþþþþþþþþþþþþþþþþþþþþþþþþþþþþþþþþþþþþþþþþþþþþÜ
                                   14834              Ÿ                                                                     Ÿ
                                   14835              Ÿ  PAGEINIT -- Routine to re-build the page image with only one       Ÿ
                                   14836              Ÿ    window.                                                          Ÿ
                                   14837              Ÿ                                                                     Ÿ
                                                      ¾þþþþþþþþþþþþþþþþþþþþþþþþþþþþþþþþþþþþþþþþþþþþþþþþþþþþþþþþþþþþþþþþþþþþþ»
000189A 50E0 D000/9008_      00000 14838              PAGEINIT XPROC
 USING  *,R7
 0018B4 9680 BAC9      00AC9       14878                       SET   CPVFCLR             Clear and rewrite page
 0018B8 94DF BAC8      00AC8       14884                       CLEAR CPVFSPEC            Nothing specific on the page
 0018BC D707 BAE0 BAE0_00AE0 00AE0 14891                       FREECURS ,                Default cursor position
                                   14918                       ¿þþþþþþþþþþþþþþþþþþþþþþþþþþþþþþþþþþþþþþþþþþþþþþþþþþþþþþþþþþþþþþÜ
                                   14919                       Ÿ  Allocate view control blocks now if not already allocated.  Ÿ
                                   14920                       ¾þþþþþþþþþþþþþþþþþþþþþþþþþþþþþþþþþþþþþþþþþþþþþþþþþþþþþþþþþþþþþþ»
 0018E0 58E0 7CD4/0DEE       02588 14921                       ACALL GETVIEW
 0018E6 D701 BAD6 BAD6_00AD6 00AD6 14925                       CLEAR CPVWCUR,CPVWCNT
                                   14937                       ¿þþþþþþþþþþþþþþþþþþþþþþþþþþþþþþþþþÜ
                                   14938                       Ÿ  Initialize screen dimensions.  Ÿ
                                   14939                       ¾þþþþþþþþþþþþþþþþþþþþþþþþþþþþþþþþþ»
 0018F2 58E0 7CD8/0DEE       0258C 14940                       ACALL CALCDIM             Initialize screen dimensions.
                                   14944                       ¿þþþþþþþþþþþþþþþþþþþþþþþþþþþþþþþþþþþþþþþþþþþþþþþþþþþþþþþþþþþþþþþÜ
                                   14945                       Ÿ  If there is a current window expand it so that it takes the  Ÿ
                                   14946                       Ÿ  entire page.                                                 Ÿ
                                   14947                       ¾þþþþþþþþþþþþþþþþþþþþþþþþþþþþþþþþþþþþþþþþþþþþþþþþþþþþþþþþþþþþþþþ»
 0018F8 5860 BB58            00B58 14948                       L     R6,CPWINDP
 USING  WIND,R6                    14949                       WITH  (WIND,R6)
                                   14962
 0018FC 48F0 BAD6/12FF       00AD6 14963                       LTH   R15,CPVWCUR         Current window (if any)
 001902 4770 7058/D73F_      0190C 14967                       IF    Z,'CLEAR WIND'
 00190C 705C/47F0 706A 0190C 01904 14990                       ELSE  BEGIN               There is a current window...
 001910 4CF0 7D0E            025C2 15001  1                      MH    R15,=AL2(L'WIND)
 001914 5AF0 BB5C            00B5C 15002  1                      A     R15,CPXWIND
 001918 D23F 6000 F000 00000 00000 15003  1                      MVC   WIND,@R15           Make it window #1
 00191E                            15004                       END
                                   15008                       ¿þþþþþþþþþþþþþþþþþþþþþþþþþþþþþþþþþþþþþþþþÜ
                                   15009                       Ÿ  Tidy up line attributes on the page.  Ÿ
                                   15010                       ¾þþþþþþþþþþþþþþþþþþþþþþþþþþþþþþþþþþþþþþþþ»
 00191E 4140 0001            00001 15011                       LA    R4,1
 001922 5850 BB60            00B60 15012                       L     R5,CPLINTP
 001926 4940 BAD4/4730_      00AD4 15013                       WHILE (R4,LE,CPVHEI),BEGIN
 USING  LINT,R5                    15032  1                      WITH  (LINT,R5)
 00192E D501 5002 BAD6_00002 00AD6 15045  1                      IF    (LINTWIND,EQ,CPVWCUR),BEGIN
 001938 9503 500C/4770_0000C       15063  2                        IF    LINFCOL,'SET LINFFREE'
 001944                            15089  1                      END
 001944 7094/47F0 70AA 01944 01936 15093  1                      ELSE  BEGIN               Reset lines for other windows...
 001948 D503 5010 5004_00010 00004 15104  2                        FREELINT
 00195E                            15135  1                      END
                                   15139  1
 00195E 4040 5000            00000 15140  1                      STH   R4,LINTROW          Save line's row number
 001962 D201 5002 7D10 00002 025C4 15141  1                      MVC   LINTWIND,=H'1'      Set line's window number
                                   15142  1
 001968 4150 5014            00014 15143  1                      LA    R5,LINTNEXT
 00196C 4140 4001            00001 15144  1                      LA    R4,@R4+1
1PAGE     (PAGE2193) (12:50) (15MAR04) Page Editor Manager                                                                  Page   35
0Current Usings:  (WIND,R6) (*,R7) (CP,R11) (CV,R12)
0Loc    Object Code    Addr1 Addr2  Stmt Lv Lineno    Source Statement           (Hibal 5, Asmedit 3.3)  HLASM R4.0  2004/03/15 12.50
+___    ______ ____    _____ _____  ____ __ ______    ______ _________
0001970 47F0 7072            01926 15145                       END
 DROP   LINT,R5
                                   15155                       ¿þþþþþþþþþþþþþþþþþþþþþþþþþþÜ
                                   15156                       Ÿ  Set window attributes.  Ÿ
                                   15157                       ¾þþþþþþþþþþþþþþþþþþþþþþþþþþ»
 001974 D201 6002 7D10 00002 025C4 15158                       MVC   WINDNO,=H'1'        Set window number
 00197A D203 6014 B57C 00014 0057C 15159                       MVC   WINDACT,CPACTNO     Default Active file
                                   15160
 001980 9200 6000      00000       15161                       CLEAR WINDFLAG
 001984 41F0 000C            0000C 15168                       LA    R15,12
 001988 9140 BACA/47E0_00ACA       15169                       IF    CPVFUNN,'SET WINFUNN; LA R15,1'
 001998 40F0 600A            0000A 15196                       STH   R15,WINDTCOL        First text column
 00199C D701 600E 600E 0000E 0000E 15197                       CLEAR WINDFCOL            Reset starting column
                                   15204
 0019A2 D201 6010 BB50 00010 00B50 15205                       MVC   WINDIND,CPVIND      Set default indentation
 0019A8 D201 6012 BB52 00012 00B52 15206                       MVC   WINDMARG,CPVMARG    Set default right margin
 0019AE 94EF 6000      00000       15207                       CLEAR WINFWRAP            Assume no wordwrap
 0019B2 9180 BACA/47E0_00ACA       15214                       IF    CPVFWRAP,'SET WINFWRAP'  Wordwrap mode
                                   15240                       ¿þþþþþþþþþþþþþþþþþþþþþþþþþþþþþþþþþþÜ
                                   15241                       Ÿ  Add special lines to the page.  Ÿ
                                   15242                       ¾þþþþþþþþþþþþþþþþþþþþþþþþþþþþþþþþþþ»
 0019BE 4140 0001            00001 15243                       LA    R4,1
 0019C2 5850 BB60            00B60 15244                       L     R5,CPLINTP          First line on page
                                   15245
 0019C6 4040 6006            00006 15246                       STH   R4,WINDFROW         Set first row in window
                                   15247                      ¿þþþþþþþþþþþþþþþþþþþþþþþþþþþþþþþþþþþþþþþþþþþþþþþþþþþþþþþþþþþþþþþþÜ
                                   15248                      Ÿ  Add special lines at the top on the page for VTAM terminals.  Ÿ
                                   15249                      ¾þþþþþþþþþþþþþþþþþþþþþþþþþþþþþþþþþþþþþþþþþþþþþþþþþþþþþþþþþþþþþþþþ»
 0019CA 9180 BACB/47E0_00ACB       15250                       IF    CPVFVTAM,BEGIN      VTAM terminal...
 USING  LINT,R5                    15265  1                      WITH  (LINT,R5)
 0019D2 D503 5010 5004_00010 00004 15278  1                      FREELINT
 0019E8 D701 5002 5002 00002 00002 15309  1                      CLEAR LINTWIND            (Global line)
 0019EE 9204 500C      0000C       15316  1                      SET   LINFCMD             Command line
 0019F2 4040 BB4C            00B4C 15322  1                      STH   R4,CPVCMDR          Save command line's row
 0019F6 4140 4001            00001 15323  1                      LA    R4,@R4+1
 0019FA 4150 5014            00014 15324  1                      LA    R5,LINTNEXT
                                   15325  1
 0019FE D503 5010 5004_00010 00004 15326  1                      FREELINT
 001A14 D701 5002 5002 00002 00002 15357  1                      CLEAR LINTWIND            (Global line)
 001A1A 9205 500C      0000C       15364  1                      SET   LINFMSG             Message line
 001A1E 4040 BB4E            00B4E 15370  1                      STH   R4,CPVMSGR          Save message line's row
 001A22 4140 4001            00001 15371  1                      LA    R4,@R4+1
 001A26 4150 5014            00014 15372  1                      LA    R5,LINTNEXT
                                   15373  1
 001A2A D503 5010 5004_00010 00004 15374  1                      FREELINT
 001A40 D701 5002 5002 00002 00002 15405  1                      CLEAR LINTWIND            (Global line)
 001A46 9203 500C      0000C       15412  1                      SET   LINFCOL             Column line
 001A4A 4140 4001            00001 15418  1                      LA    R4,@R4+1
 001A4E 4150 5014            00014 15419  1                      LA    R5,LINTNEXT
                                   15420  1
 001A52 D503 5010 5004_00010 00004 15421  1                      FREELINT
 001A68 9206 500C      0000C       15452  1                      SET   LINFSTAT            Status line
                                   15458  1
 001A6C 4040 6006            00006 15459  1                      STH   R4,WINDFROW         First line on page
1PAGE     (PAGE2193) (12:50) (15MAR04) Page Editor Manager                                                                  Page   36
0Current Usings:  (LINT,R5) (WIND,R6) (*,R7) (CP,R11) (CV,R12)
0Loc    Object Code    Addr1 Addr2  Stmt Lv Lineno    Source Statement           (Hibal 5, Asmedit 3.3)  HLASM R4.0  2004/03/15 12.50
+___    ______ ____    _____ _____  ____ __ ______    ______ _________
0001A70 D201 6008 BAD4 00008 00AD4 15460  1                      MVC   WINDLROW,CPVHEI     Last line on page
 001A76 47F0 726C            01B20 15461  1                      B     PAGIDONE            Finish up
 DROP   LINT,R5                    15462                       END
                                   15471                       ¿þþþþþþþþþþþþþþþþþþþþþþþþþþþþþþþþþþþþþþþþþþþþþþþþþÜ
                                   15472                       Ÿ  Non-VTAM terminal format:                      Ÿ
                                   15473                       Ÿ    Make the status line the first on the page.  Ÿ
                                   15474                       ¾þþþþþþþþþþþþþþþþþþþþþþþþþþþþþþþþþþþþþþþþþþþþþþþþþ»
 USING  LINT,R5                    15475                       WITH  (LINT,R5),BEGIN
 001A7A D503 5010 5004_00010 00004 15489  1                      FREELINT
 001A90 9206 500C      0000C       15520  1                      SET   LINFSTAT            Status line
 DROP   LINT,R5                    15526                       END
                                   15534                       ¿þþþþþþþþþþþþþþþþþþþþþþþþþþþþþþþþþþþþþþþþþþþþþþþþÜ
                                   15535                       Ÿ  Add special lines to the bottom of the page.  Ÿ
                                   15536                       ¾þþþþþþþþþþþþþþþþþþþþþþþþþþþþþþþþþþþþþþþþþþþþþþþþ»
 001A94 4840 BAD4            00AD4 15537                       LH    R4,CPVHEI
 001A98 1854                       15538                       LR    R5,R4
 001A9A 4C50 7D12            025C6 15539                       MH    R5,=AL2(L'LINT)
 001A9E 5A50 BB64            00B64 15540                       A     R5,CPXLINT          Last line
 USING  LINT,R5                    15541                       WITH  (LINT,R5),BEGIN
                                   15555  1                      ¿þþþþþþþþþþþþþþþþþþþþþþþþþþþþþþþþþþÜ
                                   15556  1                      Ÿ  Add command and message lines.  Ÿ
                                   15557  1                      ¾þþþþþþþþþþþþþþþþþþþþþþþþþþþþþþþþþþ»
 001AA2 D503 5010 5004_00010 00004 15558  1                      FREELINT
 001AB8 D701 5002 5002 00002 00002 15589  1                      CLEAR LINTWIND            (Global line)
 001ABE 9205 500C      0000C       15596  1                      SET   LINFMSG             Message line
 001AC2 4040 BB4E            00B4E 15602  1                      STH   R4,CPVMSGR          Save message line's row
 001AC6 4B50 7D12            025C6 15603  1                      SH    R5,=AL2(L'LINT)
 001ACA 0640                       15604  1                      DECR  R4
                                   15606  1
 001ACC D503 5010 5004_00010 00004 15607  1                      FREELINT
 001AE2 D701 5002 5002 00002 00002 15638  1                      CLEAR LINTWIND            (Global line)
 001AE8 9204 500C      0000C       15645  1                      SET   LINFCMD             Command line
 001AEC 4040 BB4C            00B4C 15651  1                      STH   R4,CPVCMDR          Save command line's row
 001AF0 4B50 7D12            025C6 15652  1                      SH    R5,=AL2(L'LINT)
 001AF4 0640                       15653  1                      DECR  R4
                                   15655  1                      ¿þþþþþþþþþþþþþþþþþþþþÜ
                                   15656  1                      Ÿ  Add column line.  Ÿ
                                   15657  1                      ¾þþþþþþþþþþþþþþþþþþþþ»
 001AF6 D503 5010 5004_00010 00004 15658  1                      FREELINT
 001B0C D701 5002 5002 00002 00002 15689  1                      CLEAR LINTWIND            (Global line)
 001B12 9203 500C      0000C       15696  1                      SET   LINFCOL             Column line
 001B16 4B50 7D12            025C6 15702  1                      SH    R5,=AL2(L'LINT)
 001B1A 0640                       15703  1                      DECR  R4
 DROP   LINT,R5                    15705                       END
                                   15713
 001B1C 4040 6008            00008 15714                       STH   R4,WINDLROW         Last row of window
                                   15715              *
                                   15716              *
 001B20 D201 BAD6 7D10 00AD6 025C4 15717              PAGIDONE MVC   CPVWCUR,=H'1'       Set current window
 001B26 D201 BAD8 7D10 00AD8 025C4 15718                       MVC   CPVWCNT,=H'1'       No. of windows on page
                                   15719
 001B2C 1B00/1B11                  15720                       CLEAR R0,R1
 001B30 58E0 7CDC/0DEE       02590 15726                       ACALL PAGECNT             Get number of text lines
 001B36 40F0 6004            00004 15730                       STH   R15,WINDTCNT        Save it for later
1PAGE     (PAGE2193) (12:50) (15MAR04) Page Editor Manager                                                                  Page   37
0Current Usings:  (WIND,R6) (*,R7) (CP,R11) (CV,R12)
0Loc    Object Code    Addr1 Addr2  Stmt Lv Lineno    Source Statement           (Hibal 5, Asmedit 3.3)  HLASM R4.0  2004/03/15 12.50
+___    ______ ____    _____ _____  ____ __ ______    ______ _________
0                                  15731
 001B3A 9640 6000      00000       15732                       SET   WINFMOD
 001B3E D203 6018 7CD0 00018 02584 15738                       MVC   WINDSLNO,=F'-1'     Calculate actual starting lineno
                                   15739
 001B44 58E0 7CD8/0DEE       0258C 15740                       ACALL CALCDIM             Recalc window dimensions
                                   15744
 001B4A 58E0 7CE0/0DEE       02594 15745                       ACALL PAGETABS            Set window tabs
 001B50 18D8/9808 D004_            15749                       PEND
 DROP   WIND,R6
 DROP   *,R7
1PAGE     (PAGE2193) (12:50) (15MAR04) Page Editor Manager                                                                  Page   38
0Current Usings:  (CP,R11) (CV,R12)
0Loc    Object Code    Addr1 Addr2  Stmt Lv Lineno    Source Statement           (Hibal 5, Asmedit 3.3)  HLASM R4.0  2004/03/15 12.50
+___    ______ ____    _____ _____  ____ __ ______    ______ _________
0
0                                  15776              ¿þþþþþþþþþþþþþþþþþþþþþþþþþþþþþþþþþþþþþþþþþþþþþþþþþþþþþþþþþþþþþþþþþþþþþÜ
                                   15777              Ÿ                                                                     Ÿ
                                   15778              Ÿ  PAGETABS -- Routine to set the tabs in all the windows to the      Ÿ
                                   15779              Ÿ    current session tabs.                                            Ÿ
                                   15780              Ÿ                                                                     Ÿ
                                                      ¾þþþþþþþþþþþþþþþþþþþþþþþþþþþþþþþþþþþþþþþþþþþþþþþþþþþþþþþþþþþþþþþþþþþþþ»
0000000                00000 00010 15781              PTABWA   RECORD BEGIN
 000000                            15789  1           PTABTABS   DS    XL(L'WINDTABS)      Window tabs
 000010                00010 00010 15790                       END
                                   15799              þþþþ
 001B5E 50E0 D000/9008_      00000 15800              PAGETABS XPROC PTABWA
 USING  *,R7
 USING  PTABWA-(4+36),R8
                                   15851                       ¿þþþþþþþþþþþþþþþþþþþþþþþþþþþþþþþþþþþþþþþþþþþþþþþþþþþþþÜ
                                   15852                       Ÿ  Create window tabs information from session tabs.  Ÿ
                                   15853                       ¾þþþþþþþþþþþþþþþþþþþþþþþþþþþþþþþþþþþþþþþþþþþþþþþþþþþþþ»
 001B78 D70F 8028 8028 00000 00000 15854                       CLEAR PTABTABS
                                   15861
 001B7E 1B22/1B33                  15862                       CLEAR R2,R3
 001B82                            15868                       LOOP  BEGIN
 001B82 1FFF/43F2 B406             15874  1                      LC    R15,CPSTABS(R2)      Tab stop
 001B88 4BF0 7A50            025C8 15881  1                      SH    R15,=H'11'           Convert to WYLBUR style
 001B8C 47D0 7020            01B98 15882  1                      IF    POS,BEGIN
 001B90 42F3 8028            00000 15893  2                        STC   R15,PTABTABS(R3)     Save tab stop
 001B94 4130 3001            00001 15894  2                        LA    R3,@R3+1
 001B98                            15895  1                      END
                                   15899  1
 001B98 4120 2001            00001 15900  1                      LA    R2,@R2+1
 001B9C 5920 7A20/47A0_      02598 15901  1                      UNTIL (R2,GE,L'PTABTABS)
 001BA4 47F0 700A            01B82 15922                       END
                                   15927                       ¿þþþþþþþþþþþþþþþþþþþþþþþþþþþþþþþþþþþþþþþþþþþþþþþþþþþþþÜ
                                   15928                       Ÿ  Set the new tabs for all the lines in the window.  Ÿ
                                   15929                       ¾þþþþþþþþþþþþþþþþþþþþþþþþþþþþþþþþþþþþþþþþþþþþþþþþþþþþþ»
 001BA8 4140 0001            00001 15930                       LA    R4,1
 001BAC 5850 BB58            00B58 15931                       L     R5,CPWINDP
 001BB0 4940 BAD8/4730_      00AD8 15932                       WHILE (R4,LE,CPVWCNT),BEGIN  Go through windows...
 USING  WIND,R5                    15951  1                      WITH  (WIND,R5)
                                   15964  1
 001BB8 D20F 5030 8028 00030 00000 15965  1                      MVC   WINDTABS,PTABTABS   Set new tabs
                                   15966  1                      ¿þþþþþþþþþþþþþþþþþþþþþþþþþþþþþþþþþÜ
                                   15967  1                      Ÿ  Rewrite all the column lines.  Ÿ
                                   15968  1                      ¾þþþþþþþþþþþþþþþþþþþþþþþþþþþþþþþþþ»
 001BBE 4830 5006            00006 15969  1                      LH    R3,WINDFROW
 001BC2 1843                       15970  1                      LR    R4,R3
 001BC4 4C40 7A4E            025C6 15971  1                      MH    R4,=AL2(L'LINT)
 001BC8 5A40 BB64            00B64 15972  1                      A     R4,CPXLINT
 001BCC 4930 5008/4730_      00008 15973  1                      WHILE (R3,LE,WINDLROW),BEGIN
 USING  LINT,R4                    15992  2                        WITH  (LINT,R4)
                                   16005  2
 001BD4 9503 400C/4770_0000C       16006  2                        IF    LINFCOL,'SET LINFREWR'
                                   16032  2
1PAGE     (PAGE2193) (12:50) (15MAR04) Page Editor Manager                                                                  Page   39
0Current Usings:  (LINT,R4) (WIND,R5) (*,R7) (PTABWA-(4+36),R8) (CP,R11) (CV,R12)
0Loc    Object Code    Addr1 Addr2  Stmt Lv Lineno    Source Statement           (Hibal 5, Asmedit 3.3)  HLASM R4.0  2004/03/15 12.50
+___    ______ ____    _____ _____  ____ __ ______    ______ _________
0001BE0 4140 4014            00014 16033  2                        LA    R4,LINTNEXT
 001BE4 4130 3001            00001 16034  2                        LA    R3,@R3+1
 001BE8 47F0 7054            01BCC 16035  1                      END
 DROP   LINT,R4
                                   16045  1
 001BEC 4150 5040            00040 16046  1                      LA    R5,WINDNEXT
 001BF0 4140 4001            00001 16047  1                      LA    R4,@R4+1
 001BF4 47F0 7038            01BB0 16048                       END
 DROP   WIND,R5
                                   16058
 001BF8 9620 BAC9      00AC9       16059                       SET   CPVFFMT             Redo field formatting
 001BFC 18D8/9808 D004_            16065                       PEND
 DROP   PTABWA-(4+36),R8
 DROP   *,R7
1PAGE     (PAGE2193) (12:50) (15MAR04) Page Editor Manager                                                                  Page   40
0Current Usings:  (CP,R11) (CV,R12)
0Loc    Object Code    Addr1 Addr2  Stmt Lv Lineno    Source Statement           (Hibal 5, Asmedit 3.3)  HLASM R4.0  2004/03/15 12.50
+___    ______ ____    _____ _____  ____ __ ______    ______ _________
0                                  16091              ¿þþþþþþþþþþþþþþþþþþþþþþþþþþþþþþþþþþþþþþþþþþþþþþþþþþþþþþþþþþþþþþþþþþþþþÜ
                                   16092              Ÿ                                                                     Ÿ
                                   16093              Ÿ  PAGEMAKE -- Routine to make a new window starting with the         Ÿ
                                   16094              Ÿ    line-number specified.                                           Ÿ
                                   16095              Ÿ                                                                     Ÿ
                                   16096              Ÿ    On entry:                                                        Ÿ
                                   16097              Ÿ      R15 - Line-number; will become first in window                 Ÿ
                                   16098              Ÿ                                                                     Ÿ
                                                      ¾þþþþþþþþþþþþþþþþþþþþþþþþþþþþþþþþþþþþþþþþþþþþþþþþþþþþþþþþþþþþþþþþþþþþþ»
0001C0A 50E0 D000/9008_      00000 16099              PAGEMAKE XPROC
 USING  *,R7
 001C24 185F                       16139                       LR    R5,R15
                                   16140
 001C26 58E0 7978/0DEE       0259C 16141                       ACALL PAGECLR             First clear the window
                                   16145
 001C2C 4860 BAD6            00AD6 16146                       LH    R6,CPVWCUR
 001C30 4C60 799E            025C2 16147                       MH    R6,=AL2(L'WIND)
 001C34 5A60 BB5C            00B5C 16148                       A     R6,CPXWIND
 USING  WIND,R6                    16149                       WITH  (WIND,R6),BEGIN
 001C38 5050 6018            00018 16163  1                      ST    R5,WINDSLNO         New starting lineno
 DROP   WIND,R6                    16164                       END
                                   16172
 001C3C 58E0 797C/0DEE       025A0 16173                       ACALL PAGEFILL            Fill out the page
 001C42 18D8/9808 D004_            16177                       PEND
 DROP   *,R7
1PAGE     (PAGE2193) (12:50) (15MAR04) Page Editor Manager                                                                  Page   41
0Current Usings:  (CP,R11) (CV,R12)
0Loc    Object Code    Addr1 Addr2  Stmt Lv Lineno    Source Statement           (Hibal 5, Asmedit 3.3)  HLASM R4.0  2004/03/15 12.50
+___    ______ ____    _____ _____  ____ __ ______    ______ _________
0                                  16198              ¿þþþþþþþþþþþþþþþþþþþþþþþþþþþþþþþþþþþþþþþþþþþþþþþþþþþþþþþþþþþþþþþþþþþþþÜ
                                   16199              Ÿ                                                                     Ÿ
                                   16200              Ÿ  PAGENEWW -- Routine to create a new window by splitting the        Ÿ
                                   16201              Ÿ    window specified at the row specified.                           Ÿ
                                   16202              Ÿ                                                                     Ÿ
                                   16203              Ÿ    On entry:                                                        Ÿ
                                   16204              Ÿ      R0 - window number (0=current)                                 Ÿ
                                   16205              Ÿ      R1 - first row of new window (0=split window in half)          Ÿ
                                   16206              Ÿ                                                                     Ÿ
                                   16207              Ÿ    On exit, R15 (and cc):                                           Ÿ
                                   16208              Ÿ      0 - ok; R0 = new window number                                 Ÿ
                                   16209              Ÿ      nz- error; R1,R0 - error message loc,len                       Ÿ
                                   16210              Ÿ                                                                     Ÿ
                                                      ¾þþþþþþþþþþþþþþþþþþþþþþþþþþþþþþþþþþþþþþþþþþþþþþþþþþþþþþþþþþþþþþþþþþþþþ»
0000000                00000 001C0 16211              NEWWWA   RECORD BEGIN
 000000                            16219  1           NEWWWIND   DS    XL(L'WIND)          Working "new" window
                                   16220  1
 000040                            16221  1           NEWWSAVE   DS    XL(L'WIND*WINDMAX#)  Saved window area
 0001C0                001C0 001C0 16222                       END
                                   16231              þþþþ
 001C50 50E0 D000/9008_      00000 16232              PAGENEWW XPROC NEWWWA
 USING  *,R7
 USING  NEWWWA-(4+36),R8
 001C6A 1260                       16283                       LTR   R6,R0               Window number
 001C6C 4770 700A/4860_      01C74 16284                       IF    Z,'LH R6,CPVWCUR'   Use the default window
 001C74 4960 BAD8/47D0_      00AD8 16301                       IF    (R6,GT,CPVWCNT),'SETMSG "INVALID WINDOW"; B NEWWERR'
 001C88 4C60 7958            025C2 16328                       MH    R6,=AL2(L'WIND)
 001C8C 5A60 BB5C            00B5C 16329                       A     R6,CPXWIND          Get WIND ptr
 USING  WIND,R6                    16330                       WITH  (WIND,R6)
                                   16343
 001C90 1251                       16344                       LTR   R5,R1               Get first row number
 001C92 4770 7054            01CBE 16345                       IF    Z,BEGIN             We need to calculate it...
 001C96 4820 6006            00006 16356  1                      LH    R2,WINDFROW         First row of window
 001C9A 4850 6008            00008 16357  1                      LH    R5,WINDLROW         Last row of window
 001C9E 1B52                       16358  1                      SR    R5,R2               Number of rows in window
 001CA0 4150 5001            00001 16359  1                      LA    R5,@R5+1            Round up
 001CA4 8850 0001            00001 16360  1                      SRL   R5,1                Divide by two
 001CA8 5950 793A/4730_      025A4 16361  1                      IF    (R5,LE,2),'SETMSG "WINDOW TOO SMALL"; B NEWWERR'
 001CBC 1A52                       16388  1                      AR    R5,R2               New window's first row
 001CBE                            16389                       END
                                   16393
 001CBE D501 796E BAD8_025D8 00AD8 16394                       IF    (CPVWCNT,GE,WINDMAX#),BEGIN  Too many windows...
 001CC8 4110 78C6/4100_      02530 16412  1                      SETMSG 'TOO MANY WINDOWS'
 001CD0 47F0 7152            01DBC 16416  1                      B     NEWWERR
 001CD4                            16417                       END
                                   16421
 001CD4 4C50 795C            025C6 16422                       MH    R5,=AL2(L'LINT)
 001CD8 5A50 BB64            00B64 16423                       A     R5,CPXLINT          First row in new window
 USING  LINT,R5                    16424                       WITH  (LINT,R5)
                                   16437
 001CDC D501 5002 6002_00002 00002 16438                       IF    (LINTWIND,NE,WINDNO),BEGIN  Something is wrong...
 001CE6 4110 78D6/4100_      02540 16456  1                      SETMSG 'WINDOW ROW ERROR'
 001CEE 47F0 7152            01DBC 16460  1                      B     NEWWERR
1PAGE     (PAGE2193) (12:50) (15MAR04) Page Editor Manager                                                                  Page   42
0Current Usings:  (LINT,R5) (WIND,R6) (*,R7) (NEWWWA-(4+36),R8) (CP,R11) (CV,R12)
0Loc    Object Code    Addr1 Addr2  Stmt Lv Lineno    Source Statement           (Hibal 5, Asmedit 3.3)  HLASM R4.0  2004/03/15 12.50
+___    ______ ____    _____ _____  ____ __ ______    ______ _________
0001CF2                            16461                       END
                                   16465                       ¿þþþþþþþþþþþþþþþþþþþþþþþþþþþþþþþþþþþþþþÜ
                                   16466                       Ÿ  Create the new window information.  Ÿ
                                   16467                       ¾þþþþþþþþþþþþþþþþþþþþþþþþþþþþþþþþþþþþþþ»
 001CF2 D503 5010 5004_00010 00004 16468                       FREELINT
                                   16499
 001D08 9206 500C/9680_0000C       16500                       SET   LINFSTAT,LINFREWR   Window starts with status line
                                   16510
 001D10 D23F 8028 6000 00000 00000 16511                       MVC   NEWWWIND,WIND       Save current window
 001D16 4130 8028            00000 16512                       LA    R3,NEWWWIND
 DROP   WIND,R6                    16513                       WITH  (WIND,R3),BEGIN
 USING  WIND,R3
 001D1A 4800 5000            00000 16535  1                      LH    R0,LINTROW          New window's first row
 001D1E 4000 3006            00006 16536  1                      STH   R0,WINDFROW         Set it
                                   16537  1
 001D22 4810 3008            00008 16538  1                      LH    R1,WINDLROW
 001D26 58E0 7926/0DEE       02590 16539  1                      ACALL PAGECNT             Count the number of text lines
 001D2C 40F0 3004            00004 16543  1                      STH   R15,WINDTCNT        Save count
                                   16544  1
 001D30 58F0 791A            02584 16545  1                      L     R15,=F'-1'          Must recalc starting lineno, etc.
 001D34 50F0 3018            00018 16546  1                      ST    R15,WINDSLNO
 001D38 50F0 301C            0001C 16547  1                      ST    R15,WINDELNO
 001D3C 50F0 3020            00020 16548  1                      ST    R15,WINDFLNO
 001D40 50F0 3024            00024 16549  1                      ST    R15,WINDLLNO
                                   16550  1
 001D44 9640 3000      00000       16551  1                      SET   WINFMOD             Recalc first,last linenos
 USING  WIND,R6                    16557                       END
 DROP   WIND,R3
                                   16574                       ¿þþþþþþþþþþþþþþþþþþþþþþþþþþþþþþþþþþþþþþÜ
                                   16575                       Ÿ  Fix up the old window information.  Ÿ
                                   16576                       ¾þþþþþþþþþþþþþþþþþþþþþþþþþþþþþþþþþþþþþþ»
 001D48 4820 5000            00000 16577                       LH    R2,LINTROW          First row of new window
 001D4C 0620                       16578                       DECR  R2                  Back up
 001D4E 4020 6008            00008 16580                       STH   R2,WINDLROW         Set new last row
                                   16581
 001D52 4800 6006            00006 16582                       LH    R0,WINDFROW
 001D56 1812                       16583                       LR    R1,R2
 001D58 58E0 7926/0DEE       02590 16584                       ACALL PAGECNT             Count the number of text lines
 001D5E 40F0 6004            00004 16588                       STH   R15,WINDTCNT        Save count
                                   16589
 001D62 9640 6000      00000       16590                       SET   WINFMOD             Recalc first,last linenos
                                   16596                       ¿þþþþþþþþþþþþþþþþþþþþþþþþþþþþþþþþþþþþþþþþþþþþþþþþþþþÜ
                                   16597                       Ÿ  Insert the new window information in the table.  Ÿ
                                   16598                       ¾þþþþþþþþþþþþþþþþþþþþþþþþþþþþþþþþþþþþþþþþþþþþþþþþþþþ»
 001D66 4820 BAD8            00AD8 16599                       LH    R2,CPVWCNT
 001D6A 4B20 6002            00002 16600                       SH    R2,WINDNO           Number of windows after us
 001D6E 47D0 7128            01D92 16601                       IF    POS,BEGIN           Move the rest down...
 001D72 4C20 7958            025C2 16612  1                      MH    R2,=AL2(L'WIND)
 001D76 41E0 8068/18F2_      00040 16613  1                      MOVEL NEWWSAVE,WINDNEXT,(R2)  Open up...
 001D84 41E0 6080/18F2_      00080 16635  1                      MOVEL WINDNEXT+L'WIND,NEWWSAVE,(R2)  ...a space
 001D92                            16657                       END
                                   16661
 001D92 D23F 6040 8028 00040 00000 16662                       MVC   WINDNEXT(L'WIND),NEWWWIND  Insert new window info
 001D98 41F0 0001/4AF0_      00001 16663                       INCR  R15,CPVWCNT         Total window count
1PAGE     (PAGE2193) (12:50) (15MAR04) Page Editor Manager                                                                  Page   43
0Current Usings:  (LINT,R5) (WIND,R6) (*,R7) (NEWWWA-(4+36),R8) (CP,R11) (CV,R12)
0Loc    Object Code    Addr1 Addr2  Stmt Lv Lineno    Source Statement           (Hibal 5, Asmedit 3.3)  HLASM R4.0  2004/03/15 12.50
+___    ______ ____    _____ _____  ____ __ ______    ______ _________
0                                  16669                       ¿þþþþþþþþþþþþþþþþþþþþþþþþþþþþÜ
                                   16670                       Ÿ  Fix up window numbering.  Ÿ
                                   16671                       ¾þþþþþþþþþþþþþþþþþþþþþþþþþþþþ»
 001DA4 58E0 793E/0DEE       025A8 16672                       ACALL WINDFIX             Fix up window numbering
                                   16676
 001DAA 9620 BAC9      00AC9       16677                       SET   CPVFFMT             Resend formatting (for trig rows)
                                   16683
 001DAE 4800 5002            00002 16684                       LH    R0,LINTWIND         Get new window number
 001DB2 5008 0004            00004 16685                       PRETURN (R0)              Return it to caller
 001DB6 1BFF                       16687                       CLEAR R15                 A-ok
 001DB8 47F0 715A            01DC4 16691                       B     NEWWEXIT
                                   16692                       ¿þþþþþþþþþþþþþþþþþÜ
                                   16693                       Ÿ  Error return.  Ÿ
                                   16694                       ¾þþþþþþþþþþþþþþþþþ»
 001DBC 9001 8004            00004 16695              NEWWERR  PRETURN (R0,R1)           Return error message string
 001DC0 41F0 0004            00004 16697                       LA    R15,4               Error RC
 001DC4 18D8/9808 D004_            16698              NEWWEXIT PEND
 DROP   LINT,R5
 DROP   WIND,R6
 DROP   NEWWWA-(4+36),R8
 DROP   *,R7
1PAGE     (PAGE2193) (12:50) (15MAR04) Page Editor Manager                                                                  Page   44
0Current Usings:  (CP,R11) (CV,R12)
0Loc    Object Code    Addr1 Addr2  Stmt Lv Lineno    Source Statement           (Hibal 5, Asmedit 3.3)  HLASM R4.0  2004/03/15 12.50
+___    ______ ____    _____ _____  ____ __ ______    ______ _________
0                                  16735              ¿þþþþþþþþþþþþþþþþþþþþþþþþþþþþþþþþþþþþþþþþþþþþþþþþþþþþþþþþþþþþþþþþþþþþþÜ
                                   16736              Ÿ                                                                     Ÿ
                                   16737              Ÿ  PAGETOP -- Routine to put the line specified at the top of the     Ÿ
                                   16738              Ÿ    current window.                                                  Ÿ
                                   16739              Ÿ                                                                     Ÿ
                                   16740              Ÿ    On entry:                                                        Ÿ
                                   16741              Ÿ      R0 - Number of lines before first to display                   Ÿ
                                   16742              Ÿ      R15- Line-number; will become first in window                  Ÿ
                                   16743              Ÿ                                                                     Ÿ
                                                      ¾þþþþþþþþþþþþþþþþþþþþþþþþþþþþþþþþþþþþþþþþþþþþþþþþþþþþþþþþþþþþþþþþþþþþþ»
0001DD2 50E0 D000/9008_      00000 16744              PAGETOP  XPROC
 USING  *,R7
 001DEC 184F                       16784                       LR    R4,R15
 001DEE 1230                       16785                       LTR   R3,R0
 001DF0 47B0 700A/1B33       01DF6 16786                       IF    NEG,'CLEAR R3'      (Better safe than sorry)
                                   16806
 001DF6 58E0 77B0/0DEE       0259C 16807                       ACALL PAGECLR             First clear the window
 001DFC 12FF/4780 7096             16811                       IF    (R15,NZ),BEGIN      Have text lines in window...
 001E02 193F/4750 7020_            16825  1                      IF    (R3,GE,R15),'LR R3,R15; DECR R3'  Not too far
                                   16848  1
 001E0C 4860 BAD6            00AD6 16849  1                      LH    R6,CPVWCUR
 001E10 4C60 77D6            025C2 16850  1                      MH    R6,=AL2(L'WIND)
 001E14 5A60 BB5C            00B5C 16851  1                      A     R6,CPXWIND
 USING  WIND,R6                    16852  1                      WITH  (WIND,R6)
 001E18 4850 6006            00006 16865  1                      LH    R5,WINDFROW
 001E1C 4C50 77DA            025C6 16866  1                      MH    R5,=AL2(L'LINT)
 001E20 5A50 BB64            00B64 16867  1                      A     R5,CPXLINT
 USING  LINT,R5                    16868  1                      WITH  (LINT,R5)
                                   16881  1
 001E24                            16882  1                      LOOP  BEGIN               Leave room for before lines...
 001E24 D501 5002 BAD6_00002 00AD6 16888  2                        FAIL  (LINTWIND,NE,CPVWCUR),PAGETOP,'PAGETOP error.'
                                   16918  2
 001E46 9500 500C/4770_0000C       16919  2                        IF    LINFFREE,BEGIN      Will be a text line...
 001E4E 1233/4770 7086             16934  3                          IF    (R3,Z),BEGIN        Save last lineno...
 001E54 D503 5010 5004_00010 00004 16948  4                            FREELINT
 001E6A 9202 500C      0000C       16979  4                            SET   LINFTEXT            This is a text line
 001E6E 5040 5010            00010 16985  4                            ST    R4,LINTLNO          Save line-number
 001E72                            16986  3                          END
 001E72 0630                       16990  3                          DECR  R3
 001E74                            16992  2                        END
                                   16996  2
 001E74 4150 5014            00014 16997  2                        LA    R5,LINTNEXT
 001E78 1233/4740 7096             16998  2                        UNTIL (R3,NEG)
 001E7E 47F0 7038            01E24 17016  1                      END
 DROP   LINT,R5                    17021                       END
 DROP   WIND,R6
                                   17035
 001E82 58E0 77B4/0DEE       025A0 17036                       ACALL PAGEFILL            Fill out the page
 001E88 18D8/9808 D004_            17040                       PEND
 DROP   *,R7
1PAGE     (PAGE2193) (12:50) (15MAR04) Page Editor Manager                                                                  Page   45
0Current Usings:  (CP,R11) (CV,R12)
0Loc    Object Code    Addr1 Addr2  Stmt Lv Lineno    Source Statement           (Hibal 5, Asmedit 3.3)  HLASM R4.0  2004/03/15 12.50
+___    ______ ____    _____ _____  ____ __ ______    ______ _________
0                                  17061              ¿þþþþþþþþþþþþþþþþþþþþþþþþþþþþþþþþþþþþþþþþþþþþþþþþþþþþþþþþþþþþþþþþþþþþþÜ
                                   17062              Ÿ                                                                     Ÿ
                                   17063              Ÿ  PAGEBOT -- Routine to put the line specified at the bottom of      Ÿ
                                   17064              Ÿ    the current window.                                              Ÿ
                                   17065              Ÿ                                                                     Ÿ
                                   17066              Ÿ    On entry:                                                        Ÿ
                                   17067              Ÿ      R0 - Number of lines after last to display                     Ÿ
                                   17068              Ÿ      R15- Line-number; will become last in window                   Ÿ
                                   17069              Ÿ                                                                     Ÿ
                                                      ¾þþþþþþþþþþþþþþþþþþþþþþþþþþþþþþþþþþþþþþþþþþþþþþþþþþþþþþþþþþþþþþþþþþþþþ»
0001E96 50E0 D000/9008_      00000 17070              PAGEBOT  XPROC
 USING  *,R7
 001EB0 184F                       17110                       LR    R4,R15
 001EB2 1230                       17111                       LTR   R3,R0
 001EB4 47B0 700A/1B33       01EBA 17112                       IF    NEG,'CLEAR R3'      (Better safe than sorry)
                                   17132
 001EBA 58E0 76EC/0DEE       0259C 17133                       ACALL PAGECLR             First clear the window
 001EC0 12FF/4780 7096             17137                       IF    (R15,NZ),BEGIN      Have text lines in window...
 001EC6 193F/4750 7020_            17151  1                      IF    (R3,GE,R15),'LR R3,R15; DECR R3'  Not too far
                                   17174  1
 001ED0 4860 BAD6            00AD6 17175  1                      LH    R6,CPVWCUR
 001ED4 4C60 7712            025C2 17176  1                      MH    R6,=AL2(L'WIND)
 001ED8 5A60 BB5C            00B5C 17177  1                      A     R6,CPXWIND
 USING  WIND,R6                    17178  1                      WITH  (WIND,R6)
 001EDC 4850 6008            00008 17191  1                      LH    R5,WINDLROW
 001EE0 4C50 7716            025C6 17192  1                      MH    R5,=AL2(L'LINT)
 001EE4 5A50 BB64            00B64 17193  1                      A     R5,CPXLINT
 USING  LINT,R5                    17194  1                      WITH  (LINT,R5)
                                   17207  1
 001EE8                            17208  1                      LOOP  BEGIN               Backup, as needed...
 001EE8 D501 5002 BAD6_00002 00AD6 17214  2                        FAIL  (LINTWIND,NE,CPVWCUR),PAGEBOT,'PAGEBOT error.'
                                   17244  2
 001F0A 9500 500C/4770_0000C       17245  2                        IF    LINFFREE,BEGIN      Will be a text line...
 001F12 1233/4770 7086             17260  3                          IF    (R3,Z),BEGIN        Save last lineno...
 001F18 D503 5010 5004_00010 00004 17274  4                            FREELINT
 001F2E 9202 500C      0000C       17305  4                            SET   LINFTEXT            This is a text line
 001F32 5040 5010            00010 17311  4                            ST    R4,LINTLNO          Save line-number
 001F36                            17312  3                          END
 001F36 0630                       17316  3                          DECR  R3
 001F38                            17318  2                        END
                                   17322  2
 001F38 4B50 7716            025C6 17323  2                        SH    R5,=AL2(L'LINT)
 001F3C 1233/4740 7096             17324  2                        UNTIL (R3,NEG)
 001F42 47F0 7038            01EE8 17342  1                      END
 DROP   LINT,R5                    17347                       END
 DROP   WIND,R6
                                   17361
 001F46 58E0 76F0/0DEE       025A0 17362                       ACALL PAGEFILL            Fill out the page
 001F4C 18D8/9808 D004_            17366                       PEND
 DROP   *,R7
1PAGE     (PAGE2193) (12:50) (15MAR04) Page Editor Manager                                                                  Page   46
0Current Usings:  (CP,R11) (CV,R12)
0Loc    Object Code    Addr1 Addr2  Stmt Lv Lineno    Source Statement           (Hibal 5, Asmedit 3.3)  HLASM R4.0  2004/03/15 12.50
+___    ______ ____    _____ _____  ____ __ ______    ______ _________
0                                  17387              ¿þþþþþþþþþþþþþþþþþþþþþþþþþþþþþþþþþþþþþþþþþþþþþþþþþþþþþþþþþþþþþþþþþþþþþÜ
                                   17388              Ÿ                                                                     Ÿ
                                   17389              Ÿ  PAGECLR -- Routine to clear the lines in the current window        Ÿ
                                   17390              Ÿ    on the page.                                                     Ÿ
                                   17391              Ÿ                                                                     Ÿ
                                   17392              Ÿ    On exit:                                                         Ÿ
                                   17393              Ÿ      R15 (and cc) - no. of lines available in the current window    Ÿ
                                   17394              Ÿ                                                                     Ÿ
                                                      ¾þþþþþþþþþþþþþþþþþþþþþþþþþþþþþþþþþþþþþþþþþþþþþþþþþþþþþþþþþþþþþþþþþþþþþ»
0001F5A 50E0 D000/9008_      00000 17395              PAGECLR  XPROC
 USING  *,R7
 001F74 D601 BAD8 BAD8_00AD8 00AD8 17435                       IF    (CPVWCNT,Z),'ACALL PAGEINIT'  Initialize page
                                   17460
 001F84 1B33                       17461                       CLEAR R3                  Line counter
                                   17465
 001F86 4860 BAD6            00AD6 17466                       LH    R6,CPVWCUR
 001F8A 4C60 764E            025C2 17467                       MH    R6,=AL2(L'WIND)
 001F8E 5A60 BB5C            00B5C 17468                       A     R6,CPXWIND
 USING  WIND,R6                    17469                       WITH  (WIND,R6),BEGIN
                                   17483  1
 001F92 4840 6006            00006 17484  1                      LH    R4,WINDFROW
 001F96 1854                       17485  1                      LR    R5,R4
 001F98 4C50 7652            025C6 17486  1                      MH    R5,=AL2(L'LINT)
 001F9C 5A50 BB64            00B64 17487  1                      A     R5,CPXLINT          First line in window
 001FA0 4940 6008/4730_      00008 17488  1                      WHILE (R4,LE,WINDLROW),BEGIN  Go through lines...
 USING  LINT,R5                    17507  2                        WITH  (LINT,R5)
 001FA8 9501 500C/4780_0000C       17520  2                        IF    (LINFNEW,OR,LINFTEXT),'FREELINT'
 001FCE 9500 500C/4770_0000C       17585  2                        IF    LINFFREE,'LA R3,@R3+1'  Count available line
                                   17606  2
 001FDA 4150 5014            00014 17607  2                        LA    R5,LINTNEXT
 001FDE 4140 4001            00001 17608  2                        LA    R4,@R4+1
 001FE2 47F0 702C            01FA0 17609  1                      END
 DROP   LINT,R5
                                   17619  1
 001FE6 94DF BAC8      00AC8       17620  1                      CLEAR CPVFSPEC
                                   17627  1
 001FEA 58F0 7610            02584 17628  1                      L     R15,=F'-1'
 001FEE 50F0 6018            00018 17629  1                      ST    R15,WINDSLNO
 001FF2 50F0 601C            0001C 17630  1                      ST    R15,WINDELNO
 001FF6 50F0 6020            00020 17631  1                      ST    R15,WINDFLNO
 001FFA 50F0 6024            00024 17632  1                      ST    R15,WINDLLNO
 001FFE 9640 6000      00000       17633  1                      SET   WINFMOD
 DROP   WIND,R6                    17639                       END
                                   17647
 002002 18F3                       17648                       LR    R15,R3              No. of lines in window
 002004 18D8/9808 D004_            17649                       PEND
 DROP   *,R7
1PAGE     (PAGE2193) (12:50) (15MAR04) Page Editor Manager                                                                  Page   47
0Current Usings:  (CP,R11) (CV,R12)
0Loc    Object Code    Addr1 Addr2  Stmt Lv Lineno    Source Statement           (Hibal 5, Asmedit 3.3)  HLASM R4.0  2004/03/15 12.50
+___    ______ ____    _____ _____  ____ __ ______    ______ _________
0                                  17670              ¿þþþþþþþþþþþþþþþþþþþþþþþþþþþþþþþþþþþþþþþþþþþþþþþþþþþþþþþþþþþþþþþþþþþþþÜ
                                   17671              Ÿ                                                                     Ÿ
                                   17672              Ÿ  PAGECOLS -- Routine to set a new starting column for the           Ÿ
                                   17673              Ÿ    text in the window specified.                                    Ÿ
                                   17674              Ÿ                                                                     Ÿ
                                   17675              Ÿ    On entry:                                                        Ÿ
                                   17676              Ÿ      R0 - new starting column number                                Ÿ
                                   17677              Ÿ      R15- WIND ptr                                                  Ÿ
                                   17678              Ÿ                                                                     Ÿ
                                                      ¾þþþþþþþþþþþþþþþþþþþþþþþþþþþþþþþþþþþþþþþþþþþþþþþþþþþþþþþþþþþþþþþþþþþþþ»
0002012 50E0 D000/9008_      00000 17679              PAGECOLS XPROC
 USING  *,R7
 00202C 186F                       17719                       LR    R6,R15
 USING  WIND,R6                    17720                       WITH  (WIND,R6),BEGIN
                                   17734  1
 00202E 1810                       17735  1                      LR    R1,R0
 002030 0610                       17736  1                      DECR  R1
 002032 4910 600E/4780_      0000E 17738  1                      IF    (R1,EQ,WINDFCOL),PCOLEXIT  No change, scram
 00203A 4010 600E            0000E 17758  1                      STH   R1,WINDFCOL         Save column-1 for lines
                                   17759  1
 00203E 4820 BAD0            00AD0 17760  1                      LH    R2,CPVTWID
 002042 9120 6000/47E0_00000       17761  1                      IF    WINFUNN,'DECR R2'   Account for one char prot field
 00204C 4120 2001            00001 17783  1                      LA    R2,@R2+1
 002050 4B20 600A            0000A 17784  1                      SH    R2,WINDTCOL         Maximum line length
 002054 41F0 00EB            000EB 17785  1                      LA    R15,&LINESZ
 002058 1BF1                       17786  1                      SR    R15,R1
 00205A 192F/47D0 7036_            17787  1                      CEIL  R2,R15              Don't go past end of line
 002062 4020 600C            0000C 17793  1                      STH   R2,WINDTLEN         Save it
 002066 9680 6000      00000       17794  1                      SET   WINFREWR            Rewrite this window
 DROP   WIND,R6                    17800                       END
                                   17808
 00206A 9620 BAC9      00AC9       17809                       SET   CPVFFMT             Reformat fields on page
 00206E 18D8/9808 D004_            17815              PCOLEXIT PEND
 DROP   *,R7
1PAGE     (PAGE2193) (12:50) (15MAR04) Page Editor Manager                                                                  Page   48
0Current Usings:  (CP,R11) (CV,R12)
0Loc    Object Code    Addr1 Addr2  Stmt Lv Lineno    Source Statement           (Hibal 5, Asmedit 3.3)  HLASM R4.0  2004/03/15 12.50
+___    ______ ____    _____ _____  ____ __ ______    ______ _________
0                                  17837              ¿þþþþþþþþþþþþþþþþþþþþþþþþþþþþþþþþþþþþþþþþþþþþþþþþþþþþþþþþþþþþþþþþþþþþþÜ
                                   17838              Ÿ                                                                     Ÿ
                                   17839              Ÿ  PAGEMARK -- Routine to mark the line specified as changed if       Ÿ
                                   17840              Ÿ    it's on the current page.                                        Ÿ
                                   17841              Ÿ                                                                     Ÿ
                                   17842              Ÿ    On entry:                                                        Ÿ
                                   17843              Ÿ      R0 - line-number                                               Ÿ
                                   17844              Ÿ                                                                     Ÿ
                                   17845              Ÿ    Performance note:  This routine is called every time a line      Ÿ
                                   17846              Ÿ      is changed (or added) to the ACTIVE file, even when the user   Ÿ
                                   17847              Ÿ      isn't currently in page mode.  So processing here should be    Ÿ
                                   17848              Ÿ      kept to a minimum.                                             Ÿ
                                   17849              Ÿ                                                                     Ÿ
                                                      ¾þþþþþþþþþþþþþþþþþþþþþþþþþþþþþþþþþþþþþþþþþþþþþþþþþþþþþþþþþþþþþþþþþþþþþ»
000207C 50E0 D000/9008_      00000 17850              PAGEMARK XPROC
 USING  *,R7
 002096 4150 0001            00001 17890                       LA    R5,1
 00209A 5860 BB58            00B58 17891                       L     R6,CPWINDP
 00209E 4950 BAD8/4730_      00AD8 17892                       WHILE (R5,LE,CPVWCNT),BEGIN  Go through windows...
 USING  WIND,R6                    17911  1                      WITH  (WIND,R6)
                                   17924  1                      ¿þþþþþþþþþþþþþþþþþþþþþþþþþþþþþþþþþþþþþþþþþþþþþþþþþþþþþþþÜ
                                   17925  1                      Ÿ  Find the individual lines and mark them as changed.  Ÿ
                                   17926  1                      ¾þþþþþþþþþþþþþþþþþþþþþþþþþþþþþþþþþþþþþþþþþþþþþþþþþþþþþþþ»
 0020A6 D503 6014 B57C_00014 0057C 17927  1                      IF    (WINDACT,EQ,CPACTNO),BEGIN  This Active file...
 0020B0 5900 6018/4740_      00018 17945  2                        IF    ((R0,LT,WINDSLNO),OR,(R0,GT,WINDELNO)),EXIT
 0020C0 4830 6006            00006 17981  2                        LH    R3,WINDFROW
 0020C4 1843                       17982  2                        LR    R4,R3
 0020C6 4C40 7530            025C6 17983  2                        MH    R4,=AL2(L'LINT)
 0020CA 5A40 BB64            00B64 17984  2                        A     R4,CPXLINT          First line in window
 0020CE 4930 6008/4730_      00008 17985  2                        WHILE (R3,LE,WINDLROW),BEGIN  Go through lines...
 USING  LINT,R4                    18004  3                          WITH  (LINT,R4)
                                   18017  3
 0020D6 9502 400C/4770_0000C       18018  3                          IF    LINFTEXT,BEGIN      Existing text lineno...
 0020DE 5900 4010/4730_      00010 18033  4                            IF    (LINTLNO,GE,R0),BEGIN  Got a match...
 0020E6 5900 4010/4740_      00010 18050  5                              IF    (LINTLNO,GT,R0),PAGMCH  We didn't find it, scram
 0020EE 9680 400D      0000D       18070  5                              SET   LINFREWR            Rewrite modified line
 0020F2 47F0 7070            02106 18076  5                              B     PAGMOLD
 0020F6                            18077  4                            END
 0020F6                            18081  3                          END
                                   18085  3
 0020F6 4140 4014            00014 18086  3                          LA    R4,LINTNEXT
 0020FA 4130 3001            00001 18087  3                          LA    R3,@R3+1
 0020FE 47F0 7038            020CE 18088  2                        END
 DROP   LINT,R4
                                   18098  2
 002102 9640 6000      00000       18099  2           PAGMCH       SET   WINFMOD             A line has been added
 002106                            18106  1                      END
                                   18110  1
 002106 4160 6040            00040 18111  1           PAGMOLD    LA    R6,WINDNEXT
 00210A 4150 5001            00001 18112  1                      LA    R5,@R5+1
 00210E 47F0 7008            0209E 18113                       END
 DROP   WIND,R6
                                   18123
1PAGE     (PAGE2193) (12:50) (15MAR04) Page Editor Manager                                                                  Page   49
0Current Usings:  (CP,R11) (CV,R12)
0Loc    Object Code    Addr1 Addr2  Stmt Lv Lineno    Source Statement           (Hibal 5, Asmedit 3.3)  HLASM R4.0  2004/03/15 12.50
+___    ______ ____    _____ _____  ____ __ ______    ______ _________
0002112 18D8/9808 D004_            18124              PAGMKXIT PEND
 DROP   *,R7
1PAGE     (PAGE2193) (12:50) (15MAR04) Page Editor Manager                                                                  Page   50
0Current Usings:  (CP,R11) (CV,R12)
0Loc    Object Code    Addr1 Addr2  Stmt Lv Lineno    Source Statement           (Hibal 5, Asmedit 3.3)  HLASM R4.0  2004/03/15 12.50
+___    ______ ____    _____ _____  ____ __ ______    ______ _________
0                                  18146              ¿þþþþþþþþþþþþþþþþþþþþþþþþþþþþþþþþþþþþþþþþþþþþþþþþþþþþþþþþþþþþþþþþþþþþþÜ
                                   18147              Ÿ                                                                     Ÿ
                                   18148              Ÿ  PAGECLRA -- Routine to remove the Active file specified from       Ÿ
                                   18149              Ÿ    being viewed.  Right now, the logic simply checks to see if      Ÿ
                                   18150              Ÿ    the Active file is being viewed and if it is then PAGEINIT       Ÿ
                                   18151              Ÿ    is called.  Something smarter could be done to re-join the       Ÿ
                                   18152              Ÿ    windows.                                                         Ÿ
                                   18153              Ÿ                                                                     Ÿ
                                   18154              Ÿ    On entry:                                                        Ÿ
                                   18155              Ÿ      R15 - active file number which is no longer to be viewed       Ÿ
                                   18156              Ÿ                                                                     Ÿ
                                                      ¾þþþþþþþþþþþþþþþþþþþþþþþþþþþþþþþþþþþþþþþþþþþþþþþþþþþþþþþþþþþþþþþþþþþþþ»
0002120 50E0 D000/9008_      00000 18157              PAGECLRA XPROC
 USING  *,R7
 00213A 182F                       18197                       LR    R2,R15              Active file number
                                   18198
 00213C 4150 0001            00001 18199                       LA    R5,1
 002140 5860 BB58            00B58 18200                       L     R6,CPWINDP
 002144 4950 BAD8/4730_      00AD8 18201                       WHILE (R5,LE,CPVWCNT),BEGIN  Go through windows...
 USING  WIND,R6                    18220  1                      WITH  (WIND,R6)
                                   18233  1                      ¿þþþþþþþþþþþþþþþþþþþþþþþþþþþþþþþþþþþþþþþþþþþþþþþþþþþþþþþþþÜ
                                   18234  1                      Ÿ  Re-initialize if we are currently viewing this Active  Ÿ
                                   18235  1                      Ÿ    file.                                                Ÿ
                                   18236  1                      ¾þþþþþþþþþþþþþþþþþþþþþþþþþþþþþþþþþþþþþþþþþþþþþþþþþþþþþþþþþ»
 00214C 5920 6014/4770_      00014 18237  1                      IF    (WINDACT,EQ,R2),BEGIN  We are viewing the active...
 002154 58E0 7476/0DEE       025B0 18254  2                        VCALL PAGEINIT            Re-initialize
 00215A 47F0 7030            0216A 18258  2                        B     PCLAEXIT
 00215E                            18259  1                      END
                                   18263  1
 00215E 4160 6040            00040 18264  1                      LA    R6,WINDNEXT         Next window
 002162 4150 5001            00001 18265  1                      LA    R5,@R5+1
 002166 47F0 700A            02144 18266                       END
 DROP   WIND,R6
                                   18276
 00216A 1BFF                       18277              PCLAEXIT CLEAR R15                 Neatness
 00216C 18D8/9808 D004_            18282                       PEND
 DROP   *,R7
1PAGE     (PAGE2193) (12:50) (15MAR04) Page Editor Manager                                                                  Page   51
0Current Usings:  (CP,R11) (CV,R12)
0Loc    Object Code    Addr1 Addr2  Stmt Lv Lineno    Source Statement           (Hibal 5, Asmedit 3.3)  HLASM R4.0  2004/03/15 12.50
+___    ______ ____    _____ _____  ____ __ ______    ______ _________
0                                  18303              ¿þþþþþþþþþþþþþþþþþþþþþþþþþþþþþþþþþþþþþþþþþþþþþþþþþþþþþþþþþþþþþþþþþþþþþÜ
                                   18304              Ÿ                                                                     Ÿ
                                   18305              Ÿ  PAGEDEL -- Routine to mark the lines in the range given as         Ÿ
                                   18306              Ÿ    deleted.                                                         Ÿ
                                   18307              Ÿ                                                                     Ÿ
                                   18308              Ÿ    On entry:                                                        Ÿ
                                   18309              Ÿ      R0 - starting line-number                                      Ÿ
                                   18310              Ÿ      R1 - ending line-number                                        Ÿ
                                   18311              Ÿ                                                                     Ÿ
                                   18312              Ÿ    Performance note:  This routine is called every time a line      Ÿ
                                   18313              Ÿ      is deleted in the ACTIVE file, even when the user isn't        Ÿ
                                   18314              Ÿ      currently in page mode.  So processing here should be kept     Ÿ
                                   18315              Ÿ      to a minimum.                                                  Ÿ
                                   18316              Ÿ                                                                     Ÿ
                                                      ¾þþþþþþþþþþþþþþþþþþþþþþþþþþþþþþþþþþþþþþþþþþþþþþþþþþþþþþþþþþþþþþþþþþþþþ»
000217A 50E0 D000/9008_      00000 18317              PAGEDEL  XPROC
 USING  *,R7
                                   18357                       ¿þþþþþþþþþþþþþþþþþþþþþþþþþþþþþþþþþþþþþþþþþþþþþþþþþþþþþþþþþþþÜ
                                   18358                       Ÿ  Go through the windows looking for the specified lines.  Ÿ
                                   18359                       ¾þþþþþþþþþþþþþþþþþþþþþþþþþþþþþþþþþþþþþþþþþþþþþþþþþþþþþþþþþþþ»
 002194 4150 0001            00001 18360                       LA    R5,1
 002198 5860 BB58            00B58 18361                       L     R6,CPWINDP
 00219C 4950 BAD8/4730_      00AD8 18362                       WHILE (R5,LE,CPVWCNT),BEGIN  Go through windows...
 USING  WIND,R6                    18381  1                      WITH  (WIND,R6)
 0021A4 D503 6014 B57C_00014 0057C 18394  1                      IF    (WINDACT,EQ,CPACTNO),BEGIN  This Active file...
                                   18412  2                        ¿þþþþþþþþþþþþþþþþþþþþþþþþþþþþþþþþþþþþþþþþþþþþþþþþþþþþþþþÜ
                                   18413  2                        Ÿ  Find the individual lines and mark them as deleted.  Ÿ
                                   18414  2                        ¾þþþþþþþþþþþþþþþþþþþþþþþþþþþþþþþþþþþþþþþþþþþþþþþþþþþþþþþ»
                                   18415  2         C              IF    (((R0,GE,WINDSLNO),AND,(R0,LE,WINDELNO)),OR,
                                          2         C                    ((R1,GE,WINDSLNO),AND,(R1,LE,WINDELNO)),OR,
 0021AE 5900 6018/4750_      00018        2                              ((R0,LT,WINDSLNO),AND,(R1,GT,WINDELNO))),BEGIN
                                   18510  3
 0021DE 4830 6006            00006 18511  3                          LH    R3,WINDFROW
 0021E2 1843                       18512  3                          LR    R4,R3
 0021E4 4C40 7432            025C6 18513  3                          MH    R4,=AL2(L'LINT)
 0021E8 5A40 BB64            00B64 18514  3                          A     R4,CPXLINT          First line in window
 0021EC 4930 6008/4730_      00008 18515  3                          WHILE (R3,LE,WINDLROW),BEGIN  Go through lines...
 USING  LINT,R4                    18534  4                            WITH  (LINT,R4)
 0021F4 9502 400C/4770_0000C       18547  4                            IF    LINFTEXT,BEGIN      Check out the line...
 0021FC 5900 4010/4730_      00010 18562  5                              IF    ((LINTLNO,GE,R0),AND,(LINTLNO,LE,R1)),'FREELINT'
 002222                            18631  4                            END
                                   18635  4
 002222 4140 4014            00014 18636  4                            LA    R4,LINTNEXT
 002226 4130 3001            00001 18637  4                            LA    R3,@R3+1
 00222A 47F0 7058            021EC 18638  3                          END
 DROP   LINT,R4
 00222E                            18648  2                        END
                                   18652  2                        ¿þþþþþþþþþþþþþþþþþþþþþþþþþþþþþþþþþþþþþþþþþþþþþþþþþþþþþþþþþþþÜ
                                   18653  2                        Ÿ  Invalidate any old line-numbers that have been deleted.  Ÿ
                                   18654  2                        ¾þþþþþþþþþþþþþþþþþþþþþþþþþþþþþþþþþþþþþþþþþþþþþþþþþþþþþþþþþþþ»
                                   18655  2         C              IF    (((R0,GE,WINDOFLN),AND,(R0,LE,WINDOLLN)),OR,
                                          2         C                    ((R1,GE,WINDOFLN),AND,(R1,LE,WINDOLLN)),OR,
 00222E 5900 6028/4750_      00028        2                              ((R0,LT,WINDOFLN),AND,(R1,GT,WINDOLLN))),BEGIN
1PAGE     (PAGE2193) (12:50) (15MAR04) Page Editor Manager                                                                  Page   52
0Current Usings:  (WIND,R6) (*,R7) (CP,R11) (CV,R12)
0Loc    Object Code    Addr1 Addr2  Stmt Lv Lineno    Source Statement           (Hibal 5, Asmedit 3.3)  HLASM R4.0  2004/03/15 12.50
+___    ______ ____    _____ _____  ____ __ ______    ______ _________
0                                  18750  3
 00225E 4830 6006            00006 18751  3                          LH    R3,WINDFROW
 002262 1843                       18752  3                          LR    R4,R3
 002264 4C40 7432            025C6 18753  3                          MH    R4,=AL2(L'LINT)
 002268 5A40 BB64            00B64 18754  3                          A     R4,CPXLINT          First line in window
 00226C 4930 6008/4730_      00008 18755  3                          WHILE (R3,LE,WINDLROW),BEGIN  Go through lines...
 USING  LINT,R4                    18774  4                            WITH  (LINT,R4)
 002274 5900 4004/4730_      00004 18787  4                            IF    ((LINTOLNO,GE,R0),AND,(LINTOLNO,LE,R1)),BEGIN
 002284 D203 4004 7420 00004 025B4 18820  5                              MVC   LINTOLNO,=F'-2'     Invalidate old line-number
 00228A                            18821  4                            END
                                   18825  4
 00228A 4140 4014            00014 18826  4                            LA    R4,LINTNEXT
 00228E 4130 3001            00001 18827  4                            LA    R3,@R3+1
 002292 47F0 70D8            0226C 18828  3                          END
 DROP   LINT,R4
 002296                            18838  2                        END
 002296                            18842  1                      END
                                   18846  1
 002296 4160 6040            00040 18847  1                      LA    R6,WINDNEXT
 00229A 4150 5001            00001 18848  1                      LA    R5,@R5+1
 00229E 47F0 7008            0219C 18849                       END
 DROP   WIND,R6
                                   18859
 0022A2 18D8/9808 D004_            18860                       PEND
 DROP   *,R7
1PAGE     (PAGE2193) (12:50) (15MAR04) Page Editor Manager                                                                  Page   53
0Current Usings:  (CP,R11) (CV,R12)
0Loc    Object Code    Addr1 Addr2  Stmt Lv Lineno    Source Statement           (Hibal 5, Asmedit 3.3)  HLASM R4.0  2004/03/15 12.50
+___    ______ ____    _____ _____  ____ __ ______    ______ _________
0                                  18881              ¿þþþþþþþþþþþþþþþþþþþþþþþþþþþþþþþþþþþþþþþþþþþþþþþþþþþþþþþþþþþþþþþþþþþþþÜ
                                   18882              Ÿ                                                                     Ÿ
                                   18883              Ÿ  PAGENUM -- Routine to update a line-number that has been           Ÿ
                                   18884              Ÿ    renumbered if it is on the current page.  If this routine        Ÿ
                                   18885              Ÿ    changes any line-numbers it must set CPVFREN so the line-number  Ÿ
                                   18886              Ÿ    marks can be removed when the renumber has completed.            Ÿ
                                   18887              Ÿ                                                                     Ÿ
                                   18888              Ÿ    On entry:                                                        Ÿ
                                   18889              Ÿ      R0 - Old line-number                                           Ÿ
                                   18890              Ÿ      R1 - New line-number                                           Ÿ
                                   18891              Ÿ                                                                     Ÿ
                                                      ¾þþþþþþþþþþþþþþþþþþþþþþþþþþþþþþþþþþþþþþþþþþþþþþþþþþþþþþþþþþþþþþþþþþþþþ»
00022B0 50E0 D000/9008_      00000 18892              PAGENUM  XPROC
 USING  *,R7
                                   18932                       ¿þþþþþþþþþþþþþþþþþþþþþþþþþþþþþþþþþþþþþþþþþÜ
                                   18933                       Ÿ  Fix up cursor and block line-numbers.  Ÿ
                                   18934                       ¾þþþþþþþþþþþþþþþþþþþþþþþþþþþþþþþþþþþþþþþþþ»
 0022CA 9180 BADC/4710_00ADC       18935                       IF    ~CPVLNO.X'80',BEGIN  Check cursor lineno...
 0022D2 5900 BADC/4770_      00ADC 18951  1                      IF    (CPVLNO,NE,R0),EXIT  No change, scram
 0022DA 5010 BADC            00ADC 18971  1                      ST    R1,CPVLNO           Set new lineno
 0022DE 9680 BADC      00ADC       18972  1                      SET   CPVLNO.X'80'        Mark it so it's not changed again
 0022E2 9604 BAC9      00AC9       18979  1                      SET   CPVFREN
 0022E6                            18985                       END
                                   18989
 0022E6 9180 BAEC/4710_00AEC       18990                       IF    ~CPVALNO.X'80',BEGIN  Check cursor lineno...
 0022EE 5900 BAEC/4770_      00AEC 19006  1                      IF    (CPVALNO,NE,R0),EXIT  No change, scram
 0022F6 5010 BAEC            00AEC 19026  1                      ST    R1,CPVALNO          Set new lineno
 0022FA 9680 BAEC      00AEC       19027  1                      SET   CPVALNO.X'80'       Mark it so it's not changed again
 0022FE 9604 BAC9      00AC9       19034  1                      SET   CPVFREN
 002302                            19040                       END
                                   19044
 002302 D503 B748 B57C_00748 0057C 19045                       IF    (CPBLKACT,EQ,CPACTNO),BEGIN  This Active file...
 00230C 9180 B74C/4710_0074C       19063  1                      IF    ~CPFBKLNO.X'80',BEGIN  Check FBLOCK lineno...
 002314 5900 B74C/4770_      0074C 19079  2                        IF    (CPFBKLNO,NE,R0),EXIT  No change, scram
 00231C 5010 B74C            0074C 19099  2                        ST    R1,CPFBKLNO         Set new lineno
 002320 9680 B74C      0074C       19100  2                        SET   CPFBKLNO.X'80'      Mark it so it's not changed again
 002324 9604 BAC9      00AC9       19107  2                        SET   CPVFREN
 002328                            19113  1                      END
                                   19117  1
 002328 9180 B750/4710_00750       19118  1                      IF    ~CPLBKLNO.X'80',BEGIN  Check LBLOCK lineno...
 002330 5900 B750/4770_      00750 19134  2                        IF    (CPLBKLNO,NE,R0),EXIT  No change, scram
 002338 5010 B750            00750 19154  2                        ST    R1,CPLBKLNO         Set new lineno
 00233C 9680 B750      00750       19155  2                        SET   CPLBKLNO.X'80'      Mark it so it's not changed again
 002340 9604 BAC9      00AC9       19162  2                        SET   CPVFREN
 002344                            19168  1                      END
 002344                            19172                       END
                                   19176                       ¿þþþþþþþþþþþþþþþþþþþþþþþþþþþþþþþþþþþþþþþþþþþþþþþþþþþþþþþþþþþÜ
                                   19177                       Ÿ  Go through the windows looking for the specified lines.  Ÿ
                                   19178                       ¾þþþþþþþþþþþþþþþþþþþþþþþþþþþþþþþþþþþþþþþþþþþþþþþþþþþþþþþþþþþ»
 002344 4150 0001            00001 19179                       LA    R5,1
 002348 5860 BB58            00B58 19180                       L     R6,CPWINDP
 00234C 4950 BAD8/4730_      00AD8 19181                       WHILE (R5,LE,CPVWCNT),BEGIN  Go through windows...
 USING  WIND,R6                    19200  1                      WITH  (WIND,R6)
1PAGE     (PAGE2193) (12:50) (15MAR04) Page Editor Manager                                                                  Page   54
0Current Usings:  (WIND,R6) (*,R7) (CP,R11) (CV,R12)
0Loc    Object Code    Addr1 Addr2  Stmt Lv Lineno    Source Statement           (Hibal 5, Asmedit 3.3)  HLASM R4.0  2004/03/15 12.50
+___    ______ ____    _____ _____  ____ __ ______    ______ _________
0                                  19213  1
 002354 D503 6014 B57C_00014 0057C 19214  1                      IF    (WINDACT,EQ,CPACTNO),BEGIN  This Active file...
 00235E 5900 6020/4740_      00020 19232  2                        IF    ((R0,LT,WINDFLNO),OR,(R0,GT,WINDLLNO)),EXIT
                                   19268  2                        ¿þþþþþþþþþþþþþþþþþþþþþþþþþþþþþþþþþþþþÜ
                                   19269  2                        Ÿ  Look for the line in the window.  Ÿ
                                   19270  2                        ¾þþþþþþþþþþþþþþþþþþþþþþþþþþþþþþþþþþþþ»
 00236E 4830 6006            00006 19271  2                        LH    R3,WINDFROW
 002372 1843                       19272  2                        LR    R4,R3
 002374 4C40 72FC            025C6 19273  2                        MH    R4,=AL2(L'LINT)
 002378 5A40 BB64            00B64 19274  2                        A     R4,CPXLINT          First line in window
 00237C 4930 6008/4730_      00008 19275  2                        WHILE (R3,LE,WINDLROW),BEGIN  Go through lines...
 USING  LINT,R4                    19294  3                          WITH  (LINT,R4)
 002384 9502 400C/4770_0000C       19307  3                          IF    LINFTEXT,BEGIN
 00238C 5900 4010/4770_      00010 19322  4                            IF    (R0,NE,LINTLNO),EXIT  No match, scram
 002394 9180 400E/4710_0000E       19342  4                            IF    LINFREN,EXIT        Already changed, scram
 00239C 5010 4010            00010 19360  4                            ST    R1,LINTLNO          New line-number
 0023A0 5910 6020/47B0_      00020 19361  4                            IF    (R1,LT,WINDFLNO),'ST R1,WINDFLNO'  New first
 0023AC 5910 6024/47D0_      00024 19384  4                            IF    (R1,GT,WINDLLNO),'ST R1,WINDLLNO'  New last
 0023B8 9604 BAC9/9680_00AC9       19407  4                            SET   CPVFREN,LINFREN     Lineno has changed
 0023C0 9680 400D      0000D       19417  4                            SET   LINFREWR            Rewrite modified line
 0023C4                            19423  3                          END
                                   19427  3
 0023C4 5900 4004/4770_      00004 19428  3                          IF    (R0,EQ,LINTOLNO),BEGIN  Matched previous lineno...
 0023CC 9140 400E/4710_0000E       19445  4                            IF    LINFOREN,EXIT       Already changed, scram
 0023D4 5010 4004            00004 19463  4                            ST    R1,LINTOLNO         Update lineno
 0023D8 9604 BAC9/9640_00AC9       19464  4                            SET   CPVFREN,LINFOREN    Lineno has changed
 0023E0                            19474  3                          END
                                   19478  3
 0023E0 9640 6000      00000       19479  3                          SET   WINFMOD             Recalculate linenos
 0023E4 D203 6018 72BA 00018 02584 19485  3                          MVC   WINDSLNO,=F'-1'     Recalculate boundry linenos
                                   19486  3
 0023EA 4140 4014            00014 19487  3                          LA    R4,LINTNEXT
 0023EE 4130 3001            00001 19488  3                          LA    R3,@R3+1
 0023F2 47F0 70B2            0237C 19489  2                        END
 DROP   LINT,R4
 0023F6                            19499  1                      END
                                   19503  1
 0023F6 4160 6040            00040 19504  1                      LA    R6,WINDNEXT
 0023FA 4150 5001            00001 19505  1                      LA    R5,@R5+1
 0023FE 47F0 7082            0234C 19506                       END
 DROP   WIND,R6
 002402 18D8/9808 D004_            19516                       PEND
 DROP   *,R7
1PAGE     (PAGE2193) (12:50) (15MAR04) Page Editor Manager                                                                  Page   55
0Current Usings:  (CP,R11) (CV,R12)
0Loc    Object Code    Addr1 Addr2  Stmt Lv Lineno    Source Statement           (Hibal 5, Asmedit 3.3)  HLASM R4.0  2004/03/15 12.50
+___    ______ ____    _____ _____  ____ __ ______    ______ _________
0                                  19537              ¿þþþþþþþþþþþþþþþþþþþþþþþþþþþþþþþþþþþþþþþþþþþþþþþþþþþþþþþþþþþþþþþþþþþþþÜ
                                   19538              Ÿ                                                                     Ÿ
                                   19539              Ÿ  PAGENCLR -- Routine to unmark the renumbered lines.  Lines         Ÿ
                                   19540              Ÿ    are marked as renumbered so they only get processed once         Ÿ
                                   19541              Ÿ    (see PAGENUM).  After the renumber is done then these marks      Ÿ
                                   19542              Ÿ    have to be cleared (by this routine).                            Ÿ
                                   19543              Ÿ                                                                     Ÿ
                                                      ¾þþþþþþþþþþþþþþþþþþþþþþþþþþþþþþþþþþþþþþþþþþþþþþþþþþþþþþþþþþþþþþþþþþþþþ»
0002410 50E0 D000/9008_      00000 19544              PAGENCLR XPROC
 USING  *,R7
                                   19584                       ¿þþþþþþþþþþþþþþþþþþþþþþþþþþþþþþþþþþÜ
                                   19585                       Ÿ  Reset any marked line-numbers.  Ÿ
                                   19586                       ¾þþþþþþþþþþþþþþþþþþþþþþþþþþþþþþþþþþ»
 00242A 9180 BADC/47E0_00ADC       19587                       IF    CPVLNO.X'80',BEGIN  Marked or undefined lineno...
 002432 D503 718E BADC_025B8 00ADC 19603  1                      IF    (CPVLNO,NE,-1000),'CLEAR CPVLNO.X"80"'  Unmark it
 002440                            19634                       END
                                   19638
 002440 9180 BAEC/47E0_00AEC       19639                       IF    CPVALNO.X'80',BEGIN  Marked or undefined lineno...
 002448 D503 7192 BAEC_025BC 00AEC 19655  1                      IF    (CPVALNO,NE,-1),'CLEAR CPVALNO.X"80"'  Unmark it
 002456                            19686                       END
                                   19690
 002456 947F B74C      0074C       19691                       CLEAR CPFBKLNO.X'80'      Make sure FBLOCK mark is off
 00245A 947F B750      00750       19699                       CLEAR CPLBKLNO.X'80'      Ditto for LBLOCK
                                   19707                       ¿þþþþþþþþþþþþþþþþþþþþþþþþþþþþþþþþþþþþþþþÜ
                                   19708                       Ÿ  Reset any marked lines in the page.  Ÿ
                                   19709                       ¾þþþþþþþþþþþþþþþþþþþþþþþþþþþþþþþþþþþþþþþ»
 00245E 4140 0001            00001 19710                       LA    R4,1
 002462 5850 BB60/1255       00B60 19711                       LT    R5,CPLINTP
 002468 4780 705A            02484 19715                       IF    NZ,BEGIN
 00246C 4940 BAD4/4730_      00AD4 19726  1                      WHILE (R4,LE,CPVHEI),BEGIN  Go through lines...
 USING  LINT,R5                    19745  2                        WITH  (LINT,R5)
 002474 943F 500E      0000E       19758  2                        CLEAR LINFREN+LINFOREN    Reset any marks
                                   19768  2
 002478 4150 5014            00014 19769  2                        LA    R5,LINTNEXT
 00247C 4140 4001            00001 19770  2                        LA    R4,@R4+1
 002480 47F0 7042            0246C 19771  1                      END
 DROP   LINT,R5
 002484                            19781                       END
 002484 18D8/9808 D004_            19785                       PEND
 DROP   *,R7
1PAGE     (PAGE2193) (12:50) (15MAR04) Page Editor Manager                                                                  Page   56
0Current Usings:  (CP,R11) (CV,R12)
0Loc    Object Code    Addr1 Addr2  Stmt Lv Lineno    Source Statement           (Hibal 5, Asmedit 3.3)  HLASM R4.0  2004/03/15 12.50
+___    ______ ____    _____ _____  ____ __ ______    ______ _________
0                                  19806              ¿þþþþþþþþþþþþþþþþþþþþþþþþþþþþþþþþþþþþþþþþþþþþþþþþþþþþþþþþþþþþþþþþþþþþþÜ
                                   19807              Ÿ                                                                     Ÿ
                                   19808              Ÿ  PAGEFIND -- Routine to find the line-number specified in the       Ÿ
                                   19809              Ÿ    window.                                                          Ÿ
                                   19810              Ÿ                                                                     Ÿ
                                   19811              Ÿ    On entry:                                                        Ÿ
                                   19812              Ÿ      R0 - Window number (0=current)                                 Ÿ
                                   19813              Ÿ      R1 - Line-number to match                                      Ÿ
                                   19814              Ÿ                                                                     Ÿ
                                   19815              Ÿ    On exit, R15 (and cc):                                           Ÿ
                                   19816              Ÿ      0 - Line-number not found                                      Ÿ
                                   19817              Ÿ      nz- Row number of matched line                                 Ÿ
                                   19818              Ÿ            R0=number of lines before matched line                   Ÿ
                                   19819              Ÿ            R1=number of lines after matched line                    Ÿ
                                   19820              Ÿ                                                                     Ÿ
                                                      ¾þþþþþþþþþþþþþþþþþþþþþþþþþþþþþþþþþþþþþþþþþþþþþþþþþþþþþþþþþþþþþþþþþþþþþ»
0002492 50E0 D000/9028_      00000 19821              PAGEFIND XPROC (R2,LSR)
 USING  *,R7
 0024AC 1831                       19861                       LR    R3,R1               Save line-number to match
                                   19862
 0024AE 1260                       19863                       LTR   R6,R0               Window number
 0024B0 4770 700C/4860_      024B8 19864                       IF    Z,'LH R6,CPVWCUR'   Use the default window
 0024B8 4C60 7116            025C2 19881                       MH    R6,=AL2(L'WIND)
 0024BC 5A60 BB5C            00B5C 19882                       A     R6,CPXWIND          Current window
 USING  WIND,R6                    19883                       WITH  (WIND,R6)
                                   19896
 0024C0 1B00                       19897                       CLEAR R0                  R0=Number of lines before match
 0024C2 4810 6004            00004 19901                       LH    R1,WINDTCNT
 0024C6 0610                       19902                       DECR  R1                  R1=Number of lines after match
                                   19904
 0024C8 48F0 6006            00006 19905                       LH    R15,WINDFROW
 0024CC 185F                       19906                       LR    R5,R15
 0024CE 4C50 711A            025C6 19907                       MH    R5,=AL2(L'LINT)
 0024D2 5A50 BB64            00B64 19908                       A     R5,CPXLINT          First row in window
 0024D6 49F0 6008/4730_      00008 19909                       WHILE (R15,LE,WINDLROW),BEGIN  Go through lines...
 USING  LINT,R5                    19928  1                      WITH  (LINT,R5)
 0024DE 9501 500C/4770_0000C       19941  1                      IF    LINFNEW,'A R0,CVONE'  Count the new line
 0024EA 9502 500C/4770_0000C       19962  1                      IF    LINFTEXT,BEGIN      Text line...
 0024F2 5930 5010/4780_      00010 19977  2                        IF    (R3,EQ,LINTLNO),PAGCHXIT  Matched, scram
 0024FA 5A00 C4D0            004D0 19997  2                        A     R0,CVONE            Count the line before
 0024FE 0610                       19998  2                        DECR  R1                  One less line after
 002500                            20000  1                      END
                                   20004  1
 002500 4150 5014            00014 20005  1                      LA    R5,LINTNEXT
 002504 41F0 F001            00001 20006  1                      LA    R15,@R15+1
 002508 47F0 702A            024D6 20007                       END
 DROP   LINT,R5
                                   20017
 00250C 1BFF/1B00/1B11             20018                       CLEAR R15,R0,R1           No match
                                   20026
 002512 18D8/9828 D004_            20027              PAGCHXIT PEND
 DROP   WIND,R6
 DROP   *,R7
1PAGE     (PAGE2193) (12:50) (15MAR04) Page Editor Manager                                                                  Page   57
0Current Usings:  (CP,R11) (CV,R12)
0Loc    Object Code    Addr1 Addr2  Stmt Lv Lineno    Source Statement           (Hibal 5, Asmedit 3.3)  HLASM R4.0  2004/03/15 12.50
+___    ______ ____    _____ _____  ____ __ ______    ______ _________
0                                  20053
                                   20054                       QLTORG
1PAGE     (PAGE2193) (12:50) (15MAR04) Page Editor Manager                                                                  Page   58
0Current Usings:  (CP,R11) (CV,R12)
0Loc    Object Code    Addr1 Addr2  Stmt Lv Lineno    Source Statement           (Hibal 5, Asmedit 3.3)  HLASM R4.0  2004/03/15 12.50
+___    ______ ____    _____ _____  ____ __ ______    ______ _________
0                                  20108              ¿þþþþþþþþþþþþþþþþþþþþþþþþþþþþþþþþþþþþþþþþþþþþþþþþþþþþþþþþþþþþþþþþþþþþþÜ
                                   20109              Ÿ                                                                     Ÿ
                                   20110              Ÿ  PAGELINE -- Routine to add a line to the current page.             Ÿ
                                   20111              Ÿ                                                                     Ÿ
                                   20112              Ÿ    On entry:                                                        Ÿ
                                   20113              Ÿ      R15 - line-number                                              Ÿ
                                   20114              Ÿ                                                                     Ÿ
                                   20115              Ÿ    On exit, R15 (and cc):                                           Ÿ
                                   20116              Ÿ      0 - ok                                                         Ÿ
                                   20117              Ÿ      4 - no room on this page                                       Ÿ
                                   20118              Ÿ                                                                     Ÿ
                                                      ¾þþþþþþþþþþþþþþþþþþþþþþþþþþþþþþþþþþþþþþþþþþþþþþþþþþþþþþþþþþþþþþþþþþþþþ»
0000000                00000 000F7 20119              LWA      RECORD BEGIN
 000000 00                         20127  1           LWAFLAG    FLAG
 LWAFLAG.LWAFRTRY  80 ONES         20131  1                      FLAG  LWAFRTRY            - New window built
                                   20136  1
 000004                            20137  1           LWALNO     DS    F                   Lineno to add
 000008                            20138  1           LWANLNO    DS    F                   Next lineno if LNO is new
                                   20139  1
                                   20140  1           LWALINE    DS    CL(&LINESZ)         Working line buffer
 00000C                                   1          +LWALINE    DS    CL(235)             Working line buffer
 0000F7                000F7 000F7 20141                       END
                                   20150              þþþþ
 0025EE 50E0 D000/9008_      00000 20151              PAGELINE XPROC LWA
 USING  *,R7
 USING  LWA-(4+36),R8
 002608 D7F6 8028 8028 00000 00000 20202                       CLEAR LWA
                                   20209
 00260E 4860 BAD6            00AD6 20210                       LH    R6,CPVWCUR
 002612 4C60 79F8            03000 20211                       MH    R6,=AL2(L'WIND)
 002616 5A60 BB5C            00B5C 20212                       A     R6,CPXWIND          Current window
 USING  WIND,R6                    20213                       WITH  (WIND,R6)
                                   20226
 00261A 50F0 802C            00004 20227                       ST    R15,LWALNO          Line-number being added
 00261E 4110 8034            0000C 20228                       LA    R1,LWALINE
 002622 58E0 79B0/0DEE       02FB8 20229                       VCALL GETLINE
 002628 D203 8030 B73C 00008 0073C 20233                       MVC   LWANLNO,CPLCNO      Next line-number
                                   20234              *
                                   20235                       ¿þþþþþþþþþþþþþþþþþþþþþþþþþþþþþþþþþþþþþþþþþþþþþþþþþþþþþÜ
                                   20236                       Ÿ  First try to find the line in the current window.  Ÿ
                                   20237                       ¾þþþþþþþþþþþþþþþþþþþþþþþþþþþþþþþþþþþþþþþþþþþþþþþþþþþþþ»
 00262E D503 79B4 6018_02FBC 00018 20238              PAGLRTRY IF    (WINDSLNO,NE,-1),BEGIN  Window borders are defined...
 002638 9140 6000/47E0_00000       20257  1                      IF    WINFMOD,'ACALL PAGEFILL'  Must process updates now
                                   20281  1
 002646 4840 6006            00006 20282  1                      LH    R4,WINDFROW
 00264A 1854                       20283  1                      LR    R5,R4
 00264C 4C50 79FA            03002 20284  1                      MH    R5,=AL2(L'LINT)
 002650 5A50 BB64            00B64 20285  1                      A     R5,CPXLINT
 002654 4940 6008/4730_      00008 20286  1                      WHILE (R4,LE,WINDLROW),BEGIN  Go through lines...
 USING  LINT,R5                    20305  2                        WITH  (LINT,R5)
 00265C 9502 500C/4770_0000C       20318  2                        IF    (LINFTEXT,AND,(LINTLNO,EQ,LWALNO)),BEGIN  Matched...
 00266E 9120 BAC8/4710_00AC8       20350  3                          IF    ~CPVFSPEC,BEGIN     First specific lineno...
 002676 9620 BAC8      00AC8       20365  4                            SET   CPVFSPEC            We have a specific lineno
1PAGE     (PAGE2193) (12:50) (15MAR04) Page Editor Manager                                                                  Page   59
0Current Usings:  (LINT,R5) (WIND,R6) (*,R7) (LWA-(4+36),R8) (CP,R11) (CV,R12)
0Loc    Object Code    Addr1 Addr2  Stmt Lv Lineno    Source Statement           (Hibal 5, Asmedit 3.3)  HLASM R4.0  2004/03/15 12.50
+___    ______ ____    _____ _____  ____ __ ______    ______ _________
000267A D707 BAE0 BAE0_00AE0 00AE0 20371  4                            FREECURS ,                Reset prev cursor info
 00269E 58F0 5010            00010 20398  4                            L     R15,LINTLNO
 0026A2 50F0 BADC            00ADC 20399  4                            ST    R15,CPVLNO          Set cursor lineno
 0026A6 50F0 B73C            0073C 20400  4                            ST    R15,CPLCNO          Set parameter lineno
 0026AA 4110 8034            0000C 20401  4                            LA    R1,LWALINE          Line text
 0026AE 1B22                       20402  4                            CLEAR R2                  No rendition buffer
 0026B0 1BFF                       20406  4                            CLEAR R15                 Find first matching column
 0026B2 58E0 79C4/0DEE       02FCC 20410  4                            VCALL MATLINE             Find starting cursor position
 0026B8 4780 70B8/40F0_      026C0 20414  4                            IF    NZ,'STH R15,CPVCOL'  Set cursor column
 0026C0                            20431  3                          END
                                   20435  3
 0026C0 1BFF                       20436  3                          CLEAR R15                 A-ok
 0026C2 47F0 710C            02714 20440  3                          B     PAGLEXIT
 0026C6                            20441  2                        END
                                   20445  2
 0026C6 4150 5014            00014 20446  2                        LA    R5,LINTNEXT
 0026CA 4140 4001            00001 20447  2                        LA    R4,@R4+1
 0026CE 47F0 704C            02654 20448  1                      END
 DROP   LINT,R5
 0026D2                            20458                       END
                                   20462                       ¿þþþþþþþþþþþþþþþþþþþþþþþþþþþþþþþþþþþþþþþþþþþþþþÜ
                                   20463                       Ÿ  Clear the current window and add the line.  Ÿ
                                   20464                       ¾þþþþþþþþþþþþþþþþþþþþþþþþþþþþþþþþþþþþþþþþþþþþþþ»
 0026D2 9120 BAC8/4710_00AC8       20465                       IF    ~CPVFSPEC,BEGIN     Only if no specific lines...
 0026DA 9180 8028/4710_00000       20480  1                      IF    LWAFRTRY,EXIT       We've tried this before, scram
                                   20498  1
 0026E2 D203 B73C 8030 0073C 00008 20499  1                      MVC   CPLCNO,LWANLNO
 0026E8 D501 79FC 6004_03004 00004 20500  1                      IF    (WINDTCNT,GT,2),BEGIN  Over two lines in window...
 0026F2 58E0 79C8/0DEE       02FD0 20518  2                        VCALL PREVLNO             Back up...
 0026F8 58E0 79C8/0DEE       02FD0 20522  2                        VCALL PREVLNO             ...two lines
 0026FE                            20526  1                      END
 0026FE 58F0 B73C            0073C 20530  1                      L     R15,CPLCNO
 002702 58E0 79CC/0DEE       02FD4 20531  1                      ACALL PAGEMAKE            Build a new page
                                   20535  1
 002708 9680 8028      00000       20536  1                      SET   LWAFRTRY            Remember, this is the last chance
 00270C 47F0 7026            0262E 20542  1                      B     PAGLRTRY
 002710                            20543                       END
                                   20547                       ¿þþþþþþþþþþþþþþþþþþþþþþþþþþþþþþþþþþþþþþþÜ
                                   20548                       Ÿ  Can't add line, the window is full.  Ÿ
                                   20549                       ¾þþþþþþþþþþþþþþþþþþþþþþþþþþþþþþþþþþþþþþþ»
 002710 41F0 0004            00004 20550                       LA    R15,4               Page is full
 002714 18D8/9808 D004_            20551              PAGLEXIT PEND
 DROP   WIND,R6
 DROP   LWA-(4+36),R8
 DROP   *,R7
1PAGE     (PAGE2193) (12:50) (15MAR04) Page Editor Manager                                                                  Page   60
0Current Usings:  (CP,R11) (CV,R12)
0Loc    Object Code    Addr1 Addr2  Stmt Lv Lineno    Source Statement           (Hibal 5, Asmedit 3.3)  HLASM R4.0  2004/03/15 12.50
+___    ______ ____    _____ _____  ____ __ ______    ______ _________
0000000                00000 00018 20583              PFA      RECORD BEGIN
 000000 00                         20591  1           PFAFLAG    FLAG
 PFAFLAG.PFAFMODF  80 ONES         20595  1                      FLAG  PFAFMODF            - First lineno in window updated
 PFAFLAG.PFAFFILL  40 ONES         20600  1                      FLAG  PFAFFILL            - Fill remainder of window
                                   20605  1
 000004                            20606  1           PFAACTNO   DS    F                   Active file number on entry
                                   20607  1
 000008                            20608  1           PFAWCUR    DS    H                   Current window number
 00000A                            20609  1           PFAWNCNT   DS    H                   Number of new lines at top
                                   20610  1
 00000C                            20611  1           PFAOLDF    DS    F                   Old first lineno in window
 000010                            20612  1           PFAOLDL    DS    F                   Old last lineno in window
                                   20613  1
 000014                            20614  1           PFAWLNO    DS    F                   Working lineno
                                   20615  1           PFAINIT    EQU   PFAFLAG,*-PFAFLAG,C'X'
 000018                00018 00018 20616                       END
-                                  20626              ¿þþþþþþþþþþþþþþþþþþþþþþþþþþþþþþþþþþþþþþþþþþþþþþþþþþþþþþþþþþþþþþþþþþþþþÜ
                                   20627              Ÿ                                                                     Ÿ
                                   20628              Ÿ  PAGEFILL -- Routine to fill in any unassigned lines on the page    Ÿ
                                   20629              Ÿ    with line-numbers.  This routine also handles filling in the     Ÿ
                                   20630              Ÿ    "gaps" that have occurred because lines have been added or       Ÿ
                                   20631              Ÿ    deleted.                                                         Ÿ
                                   20632              Ÿ                                                                     Ÿ
                                                      ¾þþþþþþþþþþþþþþþþþþþþþþþþþþþþþþþþþþþþþþþþþþþþþþþþþþþþþþþþþþþþþþþþþþþþþ»
0002722 50E0 D000/9008_      00000 20633              PAGEFILL XPROC PFA
 USING  *,R7
 USING  PFA-(4+36),R8
 00273C D717 8028 8028 00000 00000 20684                       CLEAR PFA
                                   20691
 002742 D203 802C B57C 00004 0057C 20692                       MVC   PFAACTNO,CPACTNO    Save current Active file number
                                   20693                       ¿þþþþþþþþþþþþþþþþþþþþþþþþþþþþþþþÜ
                                   20694                       Ÿ  Process a window at a time.  Ÿ
                                   20695                       ¾þþþþþþþþþþþþþþþþþþþþþþþþþþþþþþþ»
 002748 5860 BB5C            00B5C 20696                       L     R6,CPXWIND
 00274C                            20697                       LOOP  BEGIN
 USING  WIND,R6                    20703  1                      WITH  (WIND,R6)
 00274C 4160 6040            00040 20716  1                      LA    R6,WINDNEXT         First/next window
 002750 41F0 0001/4AF0_      00001 20717  1                      INCR  R15,PFAWCUR         Our current window number
 00275C 49F0 BAD8/4730_      00AD8 20723  1                      WHILE (R15,LE,CPVWCNT)    Go through windows...
 002764 58F0 6014            00014 20741  1                      L     R15,WINDACT
 002768 58E0 789C/0DEE       02FD8 20742  1                      VCALL ACTPICK             Switch to correct Active file
                                   20746  1
 00276E 943F 8028      00000       20747  1                      CLEAR PFAFMODF+PFAFFILL
 002772 9140 6000/47E0_00000       20757  1                      IF    WINFMOD,'SET PFAFFILL'
                                   20783  1                 ¿þþþþþþþþþþþþþþþþþþþþþþþþþþþþþþþþþþþþþþþþþþþþþþþþþþþþþþþþþþþþþþþþþþþþÜ
                                   20784  1                 Ÿ  Calculate the first possible lineno in the window, if necessary.  Ÿ
                                   20785  1                 ¾þþþþþþþþþþþþþþþþþþþþþþþþþþþþþþþþþþþþþþþþþþþþþþþþþþþþþþþþþþþþþþþþþþþþ»
 00277E 5800 6018/1200       00018 20786  1                      LT    R0,WINDSLNO         First possible lineno in window
 002784 47B0 707E            027BA 20790  1                      IF    NEG,BEGIN           Not yet assigned...
 002788 4110 6000            00000 20801  2                        LA    R1,WIND
 00278C 58E0 78A0/0DEE       02FDC 20802  2                        ACALL BACKFILL            Back fill lineno's from existing
1PAGE     (PAGE2193) (12:50) (15MAR04) Page Editor Manager                                                                  Page   61
0Current Usings:  (WIND,R6) (*,R7) (PFA-(4+36),R8) (CP,R11) (CV,R12)
0Loc    Object Code    Addr1 Addr2  Stmt Lv Lineno    Source Statement           (Hibal 5, Asmedit 3.3)  HLASM R4.0  2004/03/15 12.50
+___    ______ ____    _____ _____  ____ __ ______    ______ _________
0002792 4740 707E            027BA 20806  2                        IF    ~NEG,BEGIN          Get lineno before first + .001...
 002796 4000 8032            0000A 20817  3                          STH   R0,PFAWNCNT         Save pending new line counter
 00279A 50F0 B73C            0073C 20818  3                          ST    R15,CPLCNO          Save first existing lineno
 00279E 58E0 7894/0DEE       02FD0 20819  3                          VCALL PREVLNO             Get previous lineno
 0027A4 5800 B73C            0073C 20823  3                          L     R0,CPLCNO
 0027A8 4780 7072/1B00       027AE 20824  3                          IF    NZ,'CLEAR R0'       No previous, use zero
 0027AE 7076/47F0 707A_027AE 027AA 20844  3                          ELSE  'INCR R0'           Lineno immediately after previous
 0027B6 5000 6018            00018 20863  3                          ST    R0,WINDSLNO         Save first possible lineno
 0027BA                            20864  2                        END
 0027BA                            20868  1                      END
 0027BA 5000 803C            00014 20872  1                      ST    R0,PFAWLNO          Save working lineno
                                   20873  1                      ¿þþþþþþþþþþþþþþþþþþþþþþþþþþþþþþþþþþþþþþþþþÜ
                                   20874  1                      Ÿ  Fill in the free lines in the window.  Ÿ
                                   20875  1                      ¾þþþþþþþþþþþþþþþþþþþþþþþþþþþþþþþþþþþþþþþþþ»
 0027BE D203 8034 6020 0000C 00020 20876  1                      MVC   PFAOLDF,WINDFLNO    Save "old" first...
 0027C4 D203 8038 6024 00010 00024 20877  1                      MVC   PFAOLDL,WINDLLNO    ...and last linenos
 0027CA D703 6020 6020 00020 00020 20878  1                      CLEAR WINDFLNO            Preset first...
 0027D0 D203 6024 C15C 00024 0015C 20885  1                      MVC   WINDLLNO,CVMAXLNO   ...and last linenos
                                   20886  1
 0027D6 4840 6006            00006 20887  1                      LH    R4,WINDFROW
 0027DA 1854                       20888  1                      LR    R5,R4
 0027DC 4C50 78C6            03002 20889  1                      MH    R5,=AL2(L'LINT)
 0027E0 5A50 BB64            00B64 20890  1                      A     R5,CPXLINT
 0027E4 4940 6008/4730_      00008 20891  1                      WHILE (R4,LE,WINDLROW),BEGIN  Go through lines...
 USING  LINT,R5                    20910  2                        WITH  (LINT,R5)
                                   20923  2
 0027EC 9140 8028/47E0_00000       20924  2                        IF    PFAFFILL,BEGIN      Need to recalc linenos...
 0027F4 9501 500C/4780_0000C       20939  3                          IF    (LINFNEW,OR,LINFTEXT),'SET LINFFREE'
 002808                            20979  2                        END
                                   20983  2                  ¿þþþþþþþþþþþþþþþþþþþþÜ
                                   20984  2                  Ÿ  ====> Free line.  Ÿ
                                   20985  2                  ¾þþþþþþþþþþþþþþþþþþþþ»
 002808 9500 500C/4770_0000C       20986  2                        IF    LINFFREE,BEGIN      Found a free line...
 002810 9640 8028      00000       21001  3                          SET   PFAFFILL            Recalc the remaining linenos
                                   21007  3                          ¿þþþþþþþþþþþþþþþþþþþþþþþþþþþþþþþþþÜ
                                   21008  3                          Ÿ  Fill in the next line-number.  Ÿ
                                   21009  3                          ¾þþþþþþþþþþþþþþþþþþþþþþþþþþþþþþþþþ»
 002814 D503 5010 5004_00010 00004 21010  3                          FREELINT
                                   21041  3                          ¿þþþþþþþþþþþþþþþþþþþþþþþþþþþþþþþÜ
                                   21042  3                          Ÿ  Preserve leading new lines.  Ÿ
                                   21043  3                          ¾þþþþþþþþþþþþþþþþþþþþþþþþþþþþþþþ»
 00282A 48F0 8032/12FF_      0000A 21044  3                          IF    ('LTH R15,PFAWNCNT',POS),BEGIN  Pending new lines...
 002834 9201 500C      0000C       21060  4                            SET   LINFNEW             It's a new line
 002838 D203 5010 788C 00010 02FC8 21066  4                            MVC   LINTLNO,=F'-1'      No line-number yet
 00283E 06F0                       21067  4                            DECR  R15
 002840 40F0 8032            0000A 21069  4                            STH   R15,PFAWNCNT        One less pending new line now
 002844 47F0 7162            0289E 21070  4                            B     PAGFNLIN
 002848                            21071  3                          END
                                   21075  3                          ¿þþþþþþþþþþþþþþþþþþþþþþþþþþþþþþþþþþþþÜ
                                   21076  3                          Ÿ  Figure out the next line-number.  Ÿ
                                   21077  3                          ¾þþþþþþþþþþþþþþþþþþþþþþþþþþþþþþþþþþþþ»
 002848 58F0 803C            00014 21078  3                          L     R15,PFAWLNO
 00284C 58E0 78A8/0DEE       02FE4 21079  3                          VCALL GETLNO              Find next lineno
 002852 47B0 7124            02860 21083  3                          IF    NEG,BEGIN           No next line...
1PAGE     (PAGE2193) (12:50) (15MAR04) Page Editor Manager                                                                  Page   62
0Current Usings:  (LINT,R5) (WIND,R6) (*,R7) (PFA-(4+36),R8) (CP,R11) (CV,R12)
0Loc    Object Code    Addr1 Addr2  Stmt Lv Lineno    Source Statement           (Hibal 5, Asmedit 3.3)  HLASM R4.0  2004/03/15 12.50
+___    ______ ____    _____ _____  ____ __ ______    ______ _________
0002856 9201 500C      0000C       21094  4                            SET   LINFNEW             It's a new line
 00285A D203 5010 788C 00010 02FC8 21100  4                            MVC   LINTLNO,=F'-1'      No line-number yet
 002860                            21101  3                          END
                                   21105  3
 002860 7128/47F0 7134 02860 02854 21106  3                          ELSE  BEGIN               We have the next lineno...
 002864 9202 500C      0000C       21117  4                            SET   LINFTEXT
 002868 5800 B73C            0073C 21123  4                            L     R0,CPLCNO
 00286C 5000 5010            00010 21124  4                            ST    R0,LINTLNO          Set line-number
 002870                            21125  3                          END
 002870                            21129  2                        END
                                   21133  2                  ¿þþþþþþþþþþþþþþþþþþþÜ
                                   21134  2                  Ÿ  ====> Text line  Ÿ
                                   21135  2                  ¾þþþþþþþþþþþþþþþþþþþ»
 002870 9502 500C/4770_0000C       21136  2                        IF    LINFTEXT,BEGIN      Text line...
 002878 D701 8032 8032 0000A 0000A 21151  3                          CLEAR PFAWNCNT            Can't have more new lines now
                                   21158  3
 00287E 58F0 5010            00010 21159  3                          L     R15,LINTLNO         Get line-number
 002882 9180 8028/4710_00000       21160  3                          IF    ~PFAFMODF,'ST R15,WINDFLNO; SET PFAFMODF'  Upd first
 002892 50F0 6024            00024 21187  3                          ST    R15,WINDLLNO        Update last lineno
 002896 5EF0 78A4            02FE0 21188  3                          INCR  R15
 00289A 50F0 803C            00014 21191  3                          ST    R15,PFAWLNO         Set new "next" lineno
 00289E                            21192  2                        END
                                   21196  2
 00289E 4150 5014            00014 21197  2           PAGFNLIN     LA    R5,LINTNEXT
 0028A2 4140 4001            00001 21198  2                        LA    R4,@R4+1
 0028A6 47F0 70A8            027E4 21199  1                      END
 DROP   LINT,R5
                                   21209  1                      ¿þþþþþþþþþþþþþþþþþþþþþþþþþþþþþþþþþþþþþþþþþþþþþþþþþþþþþþþþþþþþÜ
                                   21210  1                      Ÿ  Make sure first and last line-numbers are within bounds.  Ÿ
                                   21211  1                      ¾þþþþþþþþþþþþþþþþþþþþþþþþþþþþþþþþþþþþþþþþþþþþþþþþþþþþþþþþþþþþ»
 0028AA 9801 B5A0            005A0 21212  1                      LM    R0,R1,CPAFLNO
 0028AE 5900 6020/47D0_      00020 21213  1                      IF    (WINDFLNO,LT,R0),'ST R0,WINDFLNO'
 0028BA 5910 6024/47B0_      00024 21236  1                      IF    (WINDLLNO,GT,R1),'ST R1,WINDLLNO'
                                   21259  1                      ¿þþþþþþþþþþþþþþþþþþþþþþþþþþþþþþþþþþþþþþþþþþþþþþþþþþþþþþþþþþþþþþÜ
                                   21260  1                      Ÿ  Recalculate the starting and ending linenos, if necessary.  Ÿ
                                   21261  1                      ¾þþþþþþþþþþþþþþþþþþþþþþþþþþþþþþþþþþþþþþþþþþþþþþþþþþþþþþþþþþþþþþ»
 0028C6 9140 6000/4710_00000       21262  1                      IF    (WINFMOD,OR,(PFAOLDF,NE,WINDFLNO)),BEGIN  Recalc...
 0028D8 D203 B73C 6020 0073C 00020 21294  2                        MVC   CPLCNO,WINDFLNO
 0028DE 58E0 7894/0DEE       02FD0 21295  2                        VCALL PREVLNO             Line before actual first lineno
 0028E4 5800 B73C            0073C 21299  2                        L     R0,CPLCNO
 0028E8 4780 71B2/1B00       028EE 21300  2                        IF    NZ,'CLEAR R0'       No previous lineno, use zero
 0028EE 71B6/47F0 71BA_028EE 028EA 21320  2                        ELSE  'INCR R0'           Next lineno available
 0028F6 5000 6018            00018 21339  2                        ST    R0,WINDSLNO
 0028FA                            21340  1                      END
                                   21344  1
 0028FA 9140 6000/4710_00000       21345  1                      IF    (WINFMOD,OR,(PFAOLDL,NE,WINDLLNO)),BEGIN  Recalc...
 00290C 41F0 0001            00001 21377  2                        LA    R15,1
 002910 5AF0 6024            00024 21378  2                        A     R15,WINDLLNO
 002914 58E0 78A8/0DEE       02FE4 21379  2                        VCALL GETLNO              Find lineno after actual last
 00291A 47B0 71E6/58F0_      02922 21383  2                        IF    NEG,'L R15,CVMAXLNO'  None means highest possible
 002922 71EA/47F0 71F0 02922 0291C 21400  2                        ELSE  BEGIN
 002926 58F0 B73C            0073C 21411  3                          L     R15,CPLCNO
 00292A 06F0                       21412  3                          DECR  R15                 Next lineno - .001
 00292C                            21414  2                        END
1PAGE     (PAGE2193) (12:50) (15MAR04) Page Editor Manager                                                                  Page   63
0Current Usings:  (WIND,R6) (*,R7) (PFA-(4+36),R8) (CP,R11) (CV,R12)
0Loc    Object Code    Addr1 Addr2  Stmt Lv Lineno    Source Statement           (Hibal 5, Asmedit 3.3)  HLASM R4.0  2004/03/15 12.50
+___    ______ ____    _____ _____  ____ __ ______    ______ _________
000292C 50F0 601C            0001C 21418  2                        ST    R15,WINDELNO        Save ending lineno
 002930                            21419  1                      END
                                   21423  1                      ¿þþþþþþþþþþþþþþþþþþþþþþþþþþþþþþþþþþþþþþþþþþþþþþÜ
                                   21424  1                      Ÿ  Assign good line-numbers to the new lines.  Ÿ
                                   21425  1                      ¾þþþþþþþþþþþþþþþþþþþþþþþþþþþþþþþþþþþþþþþþþþþþþþ»
 002930 4110 6000            00000 21426  1                      LA    R1,WIND
 002934 58E0 78AC/0DEE       02FE8 21427  1                      ACALL NEWFILL             Assign line-numbers for new lines
                                   21431  1
 00293A 94BF 6000      00000       21432  1                      CLEAR WINFMOD             We've processed the modifications
 00293E 47F0 7010            0274C 21439                       END
 DROP   WIND,R6
                                   21449                       ¿þþþþþþþþþþþþþþþþþþþþþþþþþþþþþþþþþÜ
                                   21450                       Ÿ  Process changes due to marks.  Ÿ
                                   21451                       ¾þþþþþþþþþþþþþþþþþþþþþþþþþþþþþþþþþ»
 002942 58E0 78B0/0DEE       02FEC 21452                       ACALL MARKFILL            Process changes due to marks
                                   21456
 002948 58F0 802C            00004 21457                       L     R15,PFAACTNO        Active file number on entry
 00294C 58E0 789C/0DEE       02FD8 21458                       VCALL ACTPICK             Restore current Active file
 002952 18D8/9808 D004_            21462                       PEND
 DROP   PFA-(4+36),R8
 DROP   *,R7
1PAGE     (PAGE2193) (12:50) (15MAR04) Page Editor Manager                                                                  Page   64
0Current Usings:  (CP,R11) (CV,R12)
0Loc    Object Code    Addr1 Addr2  Stmt Lv Lineno    Source Statement           (Hibal 5, Asmedit 3.3)  HLASM R4.0  2004/03/15 12.50
+___    ______ ____    _____ _____  ____ __ ______    ______ _________
0                                  21488              ¿þþþþþþþþþþþþþþþþþþþþþþþþþþþþþþþþþþþþþþþþþþþþþþþþþþþþþþþþþþþþþþþþþþþþþÜ
                                   21489              Ÿ                                                                     Ÿ
                                   21490              Ÿ  BACKFILL -- Local routine to find an existing line-number in       Ÿ
                                   21491              Ÿ    the window and fill in the previous lines with their             Ÿ
                                   21492              Ÿ    line-numbers.                                                    Ÿ
                                   21493              Ÿ                                                                     Ÿ
                                   21494              Ÿ    On entry:                                                        Ÿ
                                   21495              Ÿ      R1 - WIND ptr                                                  Ÿ
                                   21496              Ÿ                                                                     Ÿ
                                   21497              Ÿ    On exit, R15 (and cc):                                           Ÿ
                                   21498              Ÿ          -1 - no existing lines in the window                       Ÿ
                                   21499              Ÿ      lineno - first line-number in the window;                      Ÿ
                                   21500              Ÿ               R0 = no. of new lines which precede first lineno      Ÿ
                                   21501              Ÿ                                                                     Ÿ
                                                      ¾þþþþþþþþþþþþþþþþþþþþþþþþþþþþþþþþþþþþþþþþþþþþþþþþþþþþþþþþþþþþþþþþþþþþþ»
0002960 50E0 D000/9008_      00000 21502              BACKFILL PROC
 USING  *,R7
 00297A 1861                       21541                       LR    R6,R1
 USING  WIND,R6                    21542                       WITH  (WIND,R6)
                                   21555
 00297C 4840 6006            00006 21556                       LH    R4,WINDFROW
 002980 1854                       21557                       LR    R5,R4
 002982 4C50 7688            03002 21558                       MH    R5,=AL2(L'LINT)
 002986 5A50 BB64            00B64 21559                       A     R5,CPXLINT
 USING  LINT,R5                    21560                       WITH  (LINT,R5)
                                   21573                       ¿þþþþþþþþþþþþþþþþþþþþþþþþþþþþþþþþþþþþþþþþþþþþþþþþþþþþþþÜ
                                   21574                       Ÿ  Find the first existing line-number in the window.  Ÿ
                                   21575                       ¾þþþþþþþþþþþþþþþþþþþþþþþþþþþþþþþþþþþþþþþþþþþþþþþþþþþþþþ»
 00298A D203 B73C 764E 0073C 02FC8 21576                       MVC   CPLCNO,=F'-1'       Assume no existing lineno
                                   21577
 002990 4940 6008/4730_      00008 21578              BACKFIND WHILE (R4,LE,WINDLROW),BEGIN
 002998 9502 500C/4770_0000C       21598  1                      IF    LINFTEXT,BEGIN      An existing line...
 0029A0 D203 B73C 5010 0073C 00010 21613  2                        MVC   CPLCNO,LINTLNO      Line-number
 0029A6 47F0 703C            029B6 21614  2                        EXIT  BACKFIND
 0029AA                            21617  1                      END
                                   21621  1
 0029AA 4150 5014            00014 21622  1                      LA    R5,LINTNEXT
 0029AE 4140 4001            00001 21623  1                      LA    R4,@R4+1
 0029B2 47F0 7016            02990 21624                       END
                                   21629                       ¿þþþþþþþþþþþþþþþþþþþþþþþþþþþþþþþþþþþþÜ
                                   21630                       Ÿ  Backup and fill in line-numbers.  Ÿ
                                   21631                       ¾þþþþþþþþþþþþþþþþþþþþþþþþþþþþþþþþþþþþ»
 0029B6 1B33                       21632                       CLEAR R3                  New lines counter
 0029B8 D503 7642 B73C_02FBC 0073C 21636                       IF    (CPLCNO,NE,-1),BEGIN  We have an existing lineno...
 0029C2                            21654  1                      LOOP  BEGIN
 0029C2 0640                       21660  2                        DECR  R4
 0029C4 4B50 7688            03002 21662  2                        SH    R5,=AL2(L'LINT)
 0029C8 4940 6006/4750_      00006 21663  2                        WHILE (R4,GE,WINDFROW)
                                   21681  2
 0029D0 9500 500C/4780_0000C       21682  2                        IF    (LINFFREE,OR,LINFNEW,OR,LINFTEXT),BEGIN
 0029E8 D503 5010 5004_00010 00004 21723  3                          FREELINT
 0029FE 58E0 7656/0DEE       02FD0 21754  3                          VCALL PREVLNO             Get the previous lineno
 002A04 4780 709C            02A16 21758  3                          IF    NZ,BEGIN            No previous line...
1PAGE     (PAGE2193) (12:50) (15MAR04) Page Editor Manager                                                                  Page   65
0Current Usings:  (LINT,R5) (WIND,R6) (*,R7) (CP,R11) (CV,R12)
0Loc    Object Code    Addr1 Addr2  Stmt Lv Lineno    Source Statement           (Hibal 5, Asmedit 3.3)  HLASM R4.0  2004/03/15 12.50
+___    ______ ____    _____ _____  ____ __ ______    ______ _________
0002A08 9201 500C      0000C       21769  4                            SET   LINFNEW             It's new
 002A0C D203 5010 764E 00010 02FC8 21775  4                            MVC   LINTLNO,=F'-1'      No line-number yet
 002A12 4130 3001            00001 21776  4                            LA    R3,@R3+1            Count the new line
 002A16                            21777  3                          END
                                   21781  3
 002A16 70A0/47F0 70AC 02A16 02A06 21782  3                          ELSE  BEGIN               We have the previous lineno...
 002A1A 9202 500C      0000C       21793  4                            SET   LINFTEXT
 002A1E 58F0 B73C            0073C 21799  4                            L     R15,CPLCNO
 002A22 50F0 5010            00010 21800  4                            ST    R15,LINTLNO         Set line-number
 002A26                            21801  3                          END
 002A26                            21805  2                        END
 002A26 47F0 7048            029C2 21809  1                      END
 002A2A                            21814                       END
                                   21818
 002A2A 58F0 B73C            0073C 21819                       L     R15,CPLCNO          First line-number in window
 002A2E 1803                       21820                       LR    R0,R3               Number of new lines counter
 002A30 5008 0004            00004 21821                       PRETURN (R0)
 002A34 18D8/9808 D004_            21823                       PEND
 DROP   LINT,R5
 DROP   WIND,R6
 DROP   *,R7
1PAGE     (PAGE2193) (12:50) (15MAR04) Page Editor Manager                                                                  Page   66
0Current Usings:  (CP,R11) (CV,R12)
0Loc    Object Code    Addr1 Addr2  Stmt Lv Lineno    Source Statement           (Hibal 5, Asmedit 3.3)  HLASM R4.0  2004/03/15 12.50
+___    ______ ____    _____ _____  ____ __ ______    ______ _________
0                                  21854              ¿þþþþþþþþþþþþþþþþþþþþþþþþþþþþþþþþþþþþþþþþþþþþþþþþþþþþþþþþþþþþþþþþþþþþþÜ
                                   21855              Ÿ                                                                     Ÿ
                                   21856              Ÿ  NEWFILL -- Local routine to assign line-numbers to all new lines.  Ÿ
                                   21857              Ÿ                                                                     Ÿ
                                   21858              Ÿ    On entry:                                                        Ÿ
                                   21859              Ÿ      R1 - WIND ptr                                                  Ÿ
                                   21860              Ÿ                                                                     Ÿ
                                                      ¾þþþþþþþþþþþþþþþþþþþþþþþþþþþþþþþþþþþþþþþþþþþþþþþþþþþþþþþþþþþþþþþþþþþþþ»
0002A42 50E0 D000/9008_      00000 21861              NEWFILL  PROC
 USING  *,R7
 002A5C 1861                       21900                       LR    R6,R1
 USING  WIND,R6                    21901                       WITH  (WIND,R6)
                                   21914
 002A5E 4840 6006            00006 21915                       LH    R4,WINDFROW
 002A62 1854                       21916                       LR    R5,R4
 002A64 4C50 75A6            03002 21917                       MH    R5,=AL2(L'LINT)
 002A68 5A50 BB64            00B64 21918                       A     R5,CPXLINT
 USING  LINT,R5                    21919                       WITH  (LINT,R5)
                                   21932                       ¿þþþþþþþþþþþþþþþþþþþþþþþþþþþþþþþþþþþþþþþþþþþþÜ
                                   21933                       Ÿ  All new lines (if Active file is empty).  Ÿ
                                   21934                       ¾þþþþþþþþþþþþþþþþþþþþþþþþþþþþþþþþþþþþþþþþþþþþ»
 002A6C D603 B5AC B5AC_005AC 005AC 21935                       IF    (CPALNCT,Z),BEGIN   No active file...
 002A76 1BFF                       21951  1                      CLEAR R15                 Working lineno
 002A78 4940 6008/4730_      00008 21955  1                      WHILE (R4,LE,WINDLROW),BEGIN  Go through lines...
 002A80 9501 500C/4770_0000C       21974  2                        IF    LINFNEW,BEGIN       Assign lineno to any new line...
 002A88 12FF/4740 7042             21989  3                          IF    (R15,~NEG),BEGIN
 002A8E 5AF0 B738            00738 22003  4                            A     R15,CPDELTA         Next lineno
 002A92 59F0 C15C/47D0_      0015C 22004  4                            IF    (R15,GT,CVMAXLNO),'L R15,=F"-1"'
 002A9E                            22027  3                          END
                                   22031  3
 002A9E 50F0 5010            00010 22032  3                          ST    R15,LINTLNO         Save lineno
 002AA2                            22033  2                        END
                                   22037  2
 002AA2 4150 5014            00014 22038  2                        LA    R5,LINTNEXT
 002AA6 4140 4001            00001 22039  2                        LA    R4,@R4+1
 002AAA 47F0 701C            02A78 22040  1                      END
 002AAE 47F0 7178            02BD4 22045  1                      B     NEWFEXIT            We are done, scram
 002AB2                            22046                       END
                                   22050                       ¿þþþþþþþþþþþþþþþþþþþþþþþþþþþþþþþþþþþþþþþþþþþþþÜ
                                   22051                       Ÿ  New lines at the beginning of the window.  Ÿ
                                   22052                       ¾þþþþþþþþþþþþþþþþþþþþþþþþþþþþþþþþþþþþþþþþþþþþþ»
 002AB2 D603 6018 6018_00018 00018 22053                       IF    (WINDSLNO,Z),BEGIN  Maybe new lines...
 002ABC 1BFF                       22069  1                      CLEAR R15                 New line count
 002ABE 4940 6008/4730_      00008 22073  1                      WHILE (R4,LE,WINDLROW),BEGIN  Count new lines...
 002AC6 9501 500C/4770_0000C       22092  2                        IF    LINFNEW,'LA R15,@R15+1'  Count the new line
 002AD2 9502 500C/4780_0000C       22113  2                        IF    LINFTEXT,EXIT       Stop at first text line
                                   22131  2
 002ADA 4150 5014            00014 22132  2                        LA    R5,LINTNEXT
 002ADE 4140 4001            00001 22133  2                        LA    R4,@R4+1
 002AE2 47F0 7062            02ABE 22134  1                      END
                                   22139  1
 002AE6 12FF/4780 70DC             22140  1                      IF    (R15,Z),EXIT        No new lines, scram
                                   22157  1
1PAGE     (PAGE2193) (12:50) (15MAR04) Page Editor Manager                                                                  Page   67
0Current Usings:  (LINT,R5) (WIND,R6) (*,R7) (CP,R11) (CV,R12)
0Loc    Object Code    Addr1 Addr2  Stmt Lv Lineno    Source Statement           (Hibal 5, Asmedit 3.3)  HLASM R4.0  2004/03/15 12.50
+___    ______ ____    _____ _____  ____ __ ______    ______ _________
0002AEC 1B00                       22158  1                      CLEAR R0
 002AEE 5810 6020/1211       00020 22162  1                      LT    R1,WINDFLNO         First existing lineno
 002AF4 4770 70A0/4110_      02AFC 22166  1                      IF    Z,'LA R1,1'         Special case for line zero
 002AFC 70A4/47F0 70AE 02AFC 02AF6 22183  1                      ELSE  BEGIN               Normal case...
 002B00 0610                       22194  2                        DECR  R1
 002B02 1D0F                       22196  2                        DR    R0,R15              Delta between new lines
 002B04 58E0 7594/0DEE       02FF0 22197  2                        VCALL SELDELTA            Select a good delta in R1
 002B0A                            22201  1                      END
                                   22205  1                ¿þþþþþþþþþþþþþþþþþþþþþþþþþþþþþþþþþþþþþþþþþþþþþþþþþþþþþþþþþþþþþþþþþþþþþÜ
                                   22206  1                Ÿ  Now fill in possible line-numbers for the new lines at the start.  Ÿ
                                   22207  1                Ÿ          (Fill in -1 if no line-number is possible.)                Ÿ
                                   22208  1                ¾þþþþþþþþþþþþþþþþþþþþþþþþþþþþþþþþþþþþþþþþþþþþþþþþþþþþþþþþþþþþþþþþþþþþþ»
 002B0A 5830 6020            00020 22209  1                      L     R3,WINDFLNO         Starting lineno
 002B0E 1821                       22210  1                      LR    R2,R1               Delta
 002B10                            22211  1                      LOOP  BEGIN
 002B10 4B50 75A6            03002 22217  2                        SH    R5,=AL2(L'LINT)
 002B14 0640                       22218  2                        DECR  R4
 002B16 4940 6006/4750_      00006 22220  2                        WHILE (R4,GE,WINDFROW)
 002B1E 9501 500C/4770_0000C       22238  2                        IF    LINFNEW,BEGIN       New line...
 002B26 1B32                       22253  3                          SR    R3,R2               Calculate a previous lineno
 002B28 47B0 70D4/5830_      02B30 22254  3                          IF    NEG,'L R3,=F"-1"'
 002B30 5030 5010            00010 22271  3                          ST    R3,LINTLNO          Save possible lineno
 002B34                            22272  2                        END
 002B34 47F0 70B4            02B10 22276  1                      END
 002B38                            22281                       END
                                   22285                       ¿þþþþþþþþþþþþþþþþþþþþþþþþþþþþþþþþþþþþþþþÜ
                                   22286                       Ÿ  New lines at the end of the window.  Ÿ
                                   22287                       ¾þþþþþþþþþþþþþþþþþþþþþþþþþþþþþþþþþþþþþþþ»
 002B38 D503 601C C15C_0001C 0015C 22288                       IF    (WINDELNO,EQ,CVMAXLNO),BEGIN  Maybe new lines...
 002B42 4840 6008            00008 22306  1                      LH    R4,WINDLROW
 002B46 1854                       22307  1                      LR    R5,R4
 002B48 4C50 75A6            03002 22308  1                      MH    R5,=AL2(L'LINT)
 002B4C 5A50 BB64            00B64 22309  1                      A     R5,CPXLINT          Last row in the window
                                   22310  1
 002B50 1BFF                       22311  1                      CLEAR R15                 New line count
 002B52 4940 6006/4750_      00006 22315  1                      WHILE (R4,GE,WINDFROW),BEGIN  Count new lines...
 002B5A 9501 500C/4770_0000C       22334  2                        IF    LINFNEW,'LA R15,@R15+1'  Count the new line
 002B66 9502 500C/4780_0000C       22355  2                        IF    LINFTEXT,EXIT       Stop at last text line
                                   22373  2
 002B6E 4B50 75A6            03002 22374  2                        SH    R5,=AL2(L'LINT)
 002B72 0640                       22375  2                        DECR  R4
 002B74 47F0 70F6            02B52 22377  1                      END
                                   22382  1
 002B78 12FF/4780 7178             22383  1                      IF    (R15,Z),EXIT        No new lines, scram
                                   22400  1                  ¿þþþþþþþþþþþþþþþþþþþþþþþþþþþþþþþþþþþþþþþþþþþþþþþþþþþþþþþþþþþþþþþþþþþÜ
                                   22401  1                  Ÿ  Now fill in possible line-numbers for the new lines at the end.  Ÿ
                                   22402  1                  Ÿ        (Fill in -1 if no line-number is possible.)                Ÿ
                                   22403  1                  ¾þþþþþþþþþþþþþþþþþþþþþþþþþþþþþþþþþþþþþþþþþþþþþþþþþþþþþþþþþþþþþþþþþþþ»
 002B7E 5800 6024            00024 22404  1                      L     R0,WINDLLNO         Last lineno in the window
 002B82 5810 B738            00738 22405  1                      L     R1,CPDELTA
 002B86 58E0 7598/0DEE       02FF4 22406  1                      VCALL LOWMULT
 002B8C 58E0 759C/0DEE       02FF8 22410  1                      VCALL ADDER               Calc new end lineno
 002B92 47B0 713E/5800_      02B9A 22414  1                      IF    NEG,'L R0,=F"-1"'
                                   22431  1
1PAGE     (PAGE2193) (12:50) (15MAR04) Page Editor Manager                                                                  Page   68
0Current Usings:  (LINT,R5) (WIND,R6) (*,R7) (CP,R11) (CV,R12)
0Loc    Object Code    Addr1 Addr2  Stmt Lv Lineno    Source Statement           (Hibal 5, Asmedit 3.3)  HLASM R4.0  2004/03/15 12.50
+___    ______ ____    _____ _____  ____ __ ______    ______ _________
0002B9A 1830                       22432  1                      LR    R3,R0               Starting lineno
 002B9C 5820 B738            00738 22433  1                      L     R2,CPDELTA          Delta
 002BA0 4940 6008/4730_      00008 22434  1                      WHILE (R4,LE,WINDLROW),BEGIN  Go through lines...
 002BA8 9501 500C/4770_0000C       22453  2                        IF    LINFNEW,BEGIN       New line...
 002BB0 5030 5010            00010 22468  3                          ST    R3,LINTLNO          Save possible lineno
 002BB4 1233/4740 716C             22469  3                          IF    (R3,NEG),EXIT       No next possible lineno
 002BBA 1A32                       22486  3                          AR    R3,R2               Calculate a next lineno
 002BBC 5930 C15C/47D0_      0015C 22487  3                          IF    (R3,GT,CVMAXLNO),'L R3,=F"-1"'  No lineno possible
 002BC8                            22510  2                        END
                                   22514  2
 002BC8 4150 5014            00014 22515  2                        LA    R5,LINTNEXT         Next line
 002BCC 4140 4001            00001 22516  2                        LA    R4,@R4+1
 002BD0 47F0 7144            02BA0 22517  1                      END
 002BD4                            22522                       END
 002BD4 18D8/9808 D004_            22526              NEWFEXIT PEND
 DROP   LINT,R5
 DROP   WIND,R6
 DROP   *,R7
1PAGE     (PAGE2193) (12:50) (15MAR04) Page Editor Manager                                                                  Page   69
0Current Usings:  (CP,R11) (CV,R12)
0Loc    Object Code    Addr1 Addr2  Stmt Lv Lineno    Source Statement           (Hibal 5, Asmedit 3.3)  HLASM R4.0  2004/03/15 12.50
+___    ______ ____    _____ _____  ____ __ ______    ______ _________
0                                  22558              ¿þþþþþþþþþþþþþþþþþþþþþþþþþþþþþþþþþþþþþþþþþþþþþþþþþþþþþþþþþþþþþþþþþþþþþÜ
                                   22559              Ÿ                                                                     Ÿ
                                   22560              Ÿ  MARKFILL -- Local routine to make sure that any lines in a         Ÿ
                                   22561              Ÿ    marked area get rewritten if the marked boundries have           Ÿ
                                   22562              Ÿ    changed.                                                         Ÿ
                                   22563              Ÿ                                                                     Ÿ
                                                      ¾þþþþþþþþþþþþþþþþþþþþþþþþþþþþþþþþþþþþþþþþþþþþþþþþþþþþþþþþþþþþþþþþþþþþþ»
0002BE2 50E0 D000/9008_      00000 22564              MARKFILL PROC
 USING  *,R7
 002BFC 9108 BAC9/47E0_00AC9       22603                       IF    CPVFMARK,BEGIN      Block marks have changed...
 002C04 4140 0001            00001 22618  1                      LA    R4,1
 002C08 5850 BB60            00B60 22619  1                      L     R5,CPLINTP
 002C0C 4940 BAD4/4730_      00AD4 22620  1                      WHILE (R4,LE,CPVHEI),BEGIN  Go through lines...
 USING  LINT,R5                    22639  2                        WITH  (LINT,R5)
 002C14 9502 500C/4770_0000C       22652  2                        IF    LINFTEXT,BEGIN
 002C1C 4860 5002            00002 22667  3                          LH    R6,LINTWIND
 002C20 4C60 7404            03000 22668  3                          MH    R6,=AL2(L'WIND)
 002C24 5A60 BB5C            00B5C 22669  3                          A     R6,CPXWIND          WIND ptr for this LINT entry
 USING  WIND,R6                    22670  3                          WITH  (WIND,R6)
 002C28 D503 B748 6014_00748 00014 22683  3                          IF    (CPBLKACT,EQ,WINDACT),BEGIN  Correct Active file...
 002C32 58F0 5010            00010 22701  4                            L     R15,LINTLNO
                                   22702  4         C                  IF    (~CPVFHIDE,AND,
 002C36 9108 BAC8/4710_00AC8              4                                  ((R15,GE,CPFBKLNO),AND,(R15,LE,CPLBKLNO))),BEGIN
 002C4E 59F0 B74C/4780_      0074C 22749  5                              IF    ((R15,EQ,CPFBKLNO),OR,(R15,EQ,CPLBKLNO)),'SET LINFREWR'
 002C62                            22793  4                            END
 002C62                            22797  3                          END
 DROP   WIND,R6                    22801  2                        END
                                   22810  2
 002C62 4150 5014            00014 22811  2                        LA    R5,LINTNEXT
 002C66 4140 4001            00001 22812  2                        LA    R4,@R4+1
 002C6A 47F0 7010            02C0C 22813  1                      END
 DROP   LINT,R5
                                   22823  1
 002C6E 94F7 BAC9      00AC9       22824  1                      CLEAR CPVFMARK            We've processed the change
 002C72                            22831                       END
 002C72 18D8/9808 D004_            22835                       PEND
 DROP   *,R7
1PAGE     (PAGE2193) (12:50) (15MAR04) Page Editor Manager                                                                  Page   70
0Current Usings:  (CP,R11) (CV,R12)
0Loc    Object Code    Addr1 Addr2  Stmt Lv Lineno    Source Statement           (Hibal 5, Asmedit 3.3)  HLASM R4.0  2004/03/15 12.50
+___    ______ ____    _____ _____  ____ __ ______    ______ _________
0                                  22856              ¿þþþþþþþþþþþþþþþþþþþþþþþþþþþþþþþþþþþþþþþþþþþþþþþþþþþþþþþþþþþþþþþþþþþþþÜ
                                   22857              Ÿ                                                                     Ÿ
                                   22858              Ÿ  WINDSET -- Routine to set the default window.                      Ÿ
                                   22859              Ÿ                                                                     Ÿ
                                   22860              Ÿ    On entry:                                                        Ÿ
                                   22861              Ÿ      R15 - window number to become default                          Ÿ
                                   22862              Ÿ                                                                     Ÿ
                                   22863              Ÿ    On exit, R15 (and cc):                                           Ÿ
                                   22864              Ÿ      0 - ok; done                                                   Ÿ
                                   22865              Ÿ      4 - window not defined                                         Ÿ
                                   22866              Ÿ                                                                     Ÿ
                                                      ¾þþþþþþþþþþþþþþþþþþþþþþþþþþþþþþþþþþþþþþþþþþþþþþþþþþþþþþþþþþþþþþþþþþþþþ»
0002C80 50E0 D000/9008_      00000 22867              WINDSET  XPROC
 USING  *,R7
 002C9A 49F0 BAD8/4730_      00AD8 22907                       IF    (R15,LE,CPVWCNT),BEGIN  OK...
 002CA2 40F0 BAD6            00AD6 22924  1                      STH   R15,CPVWCUR         Set new current window
 002CA6 1BFF                       22925  1                      CLEAR R15
 002CA8                            22929                       END
                                   22933
 002CA8 7012/47F0 7016_02CA8 02CA0 22934                       ELSE  'LA R15,4'
 002CB0 18D8/9808 D004_            22951                       PEND
 DROP   *,R7
1PAGE     (PAGE2193) (12:50) (15MAR04) Page Editor Manager                                                                  Page   71
0Current Usings:  (CP,R11) (CV,R12)
0Loc    Object Code    Addr1 Addr2  Stmt Lv Lineno    Source Statement           (Hibal 5, Asmedit 3.3)  HLASM R4.0  2004/03/15 12.50
+___    ______ ____    _____ _____  ____ __ ______    ______ _________
0                                  22972              ¿þþþþþþþþþþþþþþþþþþþþþþþþþþþþþþþþþþþþþþþþþþþþþþþþþþþþþþþþþþþþþþþþþþþþþÜ
                                   22973              Ÿ                                                                     Ÿ
                                   22974              Ÿ  WINDFIX -- Routine to fix the window numbering after               Ÿ
                                   22975              Ÿ    a window has been added or deleted.                              Ÿ
                                   22976              Ÿ                                                                     Ÿ
                                                      ¾þþþþþþþþþþþþþþþþþþþþþþþþþþþþþþþþþþþþþþþþþþþþþþþþþþþþþþþþþþþþþþþþþþþþþ»
0002CBE 50E0 D000/9008_      00000 22977              WINDFIX  XPROC
 USING  *,R7
                                   23017                       ¿þþþþþþþþþþþþþþþþþþþþþþþþþþþþþþþþþþþþþþþþþþþÜ
                                   23018                       Ÿ  First reset window number of every row.  Ÿ
                                   23019                       ¾þþþþþþþþþþþþþþþþþþþþþþþþþþþþþþþþþþþþþþþþþþþ»
 002CD8 4140 0001            00001 23020                       LA    R4,1
 002CDC 5850 BB60            00B60 23021                       L     R5,CPLINTP
 002CE0 4940 BAD4/4730_      00AD4 23022                       WHILE (R4,LE,CPVHEI),BEGIN  Go through rows...
 USING  LINT,R5                    23041  1                      WITH  (LINT,R5)
 002CE8 D701 5002 5002 00002 00002 23054  1                      CLEAR LINTWIND            Reset window number
                                   23061  1
 002CEE 4150 5014            00014 23062  1                      LA    R5,LINTNEXT
 002CF2 4140 4001            00001 23063  1                      LA    R4,@R4+1
 002CF6 47F0 7008            02CE0 23064                       END
 DROP   LINT,R5
                                   23074                       ¿þþþþþþþþþþþþþþþþþþþþþþþþþþþþþþþþþþþþþþþþþþþþþþþþþþÜ
                                   23075                       Ÿ  Now set the window number for every owned row.  Ÿ
                                   23076                       ¾þþþþþþþþþþþþþþþþþþþþþþþþþþþþþþþþþþþþþþþþþþþþþþþþþþ»
 002CFA 4140 0001            00001 23077                       LA    R4,1
 002CFE 5850 BB58            00B58 23078                       L     R5,CPWINDP
 002D02 4940 BAD8/4730_      00AD8 23079                       WHILE (R4,LE,CPVWCNT),BEGIN  Go through windows...
 USING  WIND,R5                    23098  1                      WITH  (WIND,R5)
 002D0A 4040 5002            00002 23111  1                      STH   R4,WINDNO           Set window number
                                   23112  1
 002D0E 1BFF                       23113  1                      CLEAR R15                 Window's text line count
 002D10 4820 5006            00006 23117  1                      LH    R2,WINDFROW
 002D14 1832                       23118  1                      LR    R3,R2
 002D16 4C30 732A            03002 23119  1                      MH    R3,=AL2(L'LINT)
 002D1A 5A30 BB64            00B64 23120  1                      A     R3,CPXLINT          Starting LINT entry
                                   23121  1
 002D1E 4920 5008/4730_      00008 23122  1                      WHILE (R2,LE,WINDLROW),BEGIN  Go through lines...
 USING  LINT,R3                    23141  2                        WITH  (LINT,R3)
 002D26 9502 300C/4780_0000C       23154  2                        IF    (LINFTEXT,OR,LINFNEW,OR,LINFFREE),'LA R15,@R15+1'
 002D42 9503 300C/4780_0000C       23201  2                        IF    (~LINFCOL,AND,~LINFCMD,AND,~LINFMSG),BEGIN
 002D5A 4040 3002            00002 23242  3                          STH   R4,LINTWIND         Set window number in LINT
 002D5E                            23243  2                        END
                                   23247  2
 002D5E 4130 3014            00014 23248  2                        LA    R3,LINTNEXT
 002D62 4120 2001            00001 23249  2                        LA    R2,@R2+1
 002D66 47F0 7046            02D1E 23250  1                      END
 DROP   LINT,R3
 002D6A 40F0 5004            00004 23260  1                      STH   R15,WINDTCNT        Save text line count
                                   23261  1
 002D6E 4150 5040            00040 23262  1                      LA    R5,WINDNEXT
 002D72 4140 4001            00001 23263  1                      LA    R4,@R4+1
 002D76 47F0 702A            02D02 23264                       END
 DROP   WIND,R5
1PAGE     (PAGE2193) (12:50) (15MAR04) Page Editor Manager                                                                  Page   72
0Current Usings:  (*,R7) (CP,R11) (CV,R12)
0Loc    Object Code    Addr1 Addr2  Stmt Lv Lineno    Source Statement           (Hibal 5, Asmedit 3.3)  HLASM R4.0  2004/03/15 12.50
+___    ______ ____    _____ _____  ____ __ ______    ______ _________
0                                  23274
 002D7A 1BFF                       23275                       CLEAR R15                 A-ok
 002D7C 18D8/9808 D004_            23279                       PEND
 DROP   *,R7
1PAGE     (PAGE2193) (12:50) (15MAR04) Page Editor Manager                                                                  Page   73
0Current Usings:  (CP,R11) (CV,R12)
0Loc    Object Code    Addr1 Addr2  Stmt Lv Lineno    Source Statement           (Hibal 5, Asmedit 3.3)  HLASM R4.0  2004/03/15 12.50
+___    ______ ____    _____ _____  ____ __ ______    ______ _________
0                                  23300              ¿þþþþþþþþþþþþþþþþþþþþþþþþþþþþþþþþþþþþþþþþþþþþþþþþþþþþþþþþþþþþþþþþþþþþþÜ
                                   23301              Ÿ                                                                     Ÿ
                                   23302              Ÿ  PAGESCRL -- Routine to move the lines in on the page up or down    Ÿ
                                   23303              Ÿ    the specified number of lines.  The routine won't move lines     Ÿ
                                   23304              Ÿ    past the window boundries.                                       Ÿ
                                   23305              Ÿ                                                                     Ÿ
                                   23306              Ÿ    On entry:                                                        Ÿ
                                   23307              Ÿ      R15- neg: number of lines to move up by                        Ÿ
                                   23308              Ÿ           pos: number of lines to move down by                      Ÿ
                                   23309              Ÿ                                                                     Ÿ
                                                      ¾þþþþþþþþþþþþþþþþþþþþþþþþþþþþþþþþþþþþþþþþþþþþþþþþþþþþþþþþþþþþþþþþþþþþþ»
0000000                00000 0028C 23310              PAGSWA   RECORD BEGIN
 000000 00                         23318  1           PAGSFLAG   FLAG
 PAGSFLAG.PAGSFUP  80 ONES         23322  1                      FLAG  PAGSFUP             - Scroll up
                                   23327  1
 000002                            23328  1           PAGSFROW   DS    H                   First row to scroll
 000004                            23329  1           PAGSLROW   DS    H                   Last row to scroll
                                   23330  1
 000006                            23331  1           PAGSSKPC   DS    H                   Working skip count
 000008                            23332  1           PAGSFILC   DS    H                   Working fill count
                                   23333  1
 00000A                            23334  1           PAGSCNT    DS    H                   No. of saved lines
 00000C                            23335  1           PAGSINT    DS    XL(LINTMAX#*L'LINTOPT)  Saved line area
 00028C                0028C 0028C 23336                       END
                                   23345              þþþþ
 002D8A 50E0 D000/9008_      00000 23346              PAGESCRL XPROC PAGSWA
 USING  *,R7
 USING  PAGSWA-(4+36),R8
 002DA4 D7FF 8028 8028_00000 00000 23397                       CLEAR PAGSWA
                                   23406
 002DB6 122F                       23407                       LTR   R2,R15              Number of lines to scroll
 002DB8 4780 7144            02EE8 23408                       BZ    SCRLFIN
 002DBC 47B0 7022/9680_      02DC6 23409                       IF    NEG,'SET PAGSFUP; LPR R2,R2'
                                   23432
 002DC6 1B00/1B11                  23433                       CLEAR R0,R1
 002DCA 58E0 7258/0DEE       02FFC 23439                       ACALL PAGECNT             Get the no. of lines in window
 002DD0 47D0 7144            02EE8 23443                       BNP   SCRLFIN
 002DD4 06F0                       23444                       DECR  R15                 Always keep at least one line
                                   23446
 002DD6 192F/47D0 703A_            23447                       CEIL  R2,R15              Don't scroll too much
                                   23453
 002DDE 9180 8028/47E0_00000       23454                       IF    PAGSFUP,'STH R2,PAGSSKPC'
 002DEA 704A/47F0 704E_02DEA 02DE4 23475                       ELSE  'STH R2,PAGSFILC'
                                   23492
 002DF2 4000 802A            00002 23493                       STH   R0,PAGSFROW         Save first scroll row
 002DF6 4010 802C            00004 23494                       STH   R1,PAGSLROW         Save last scroll row
                                   23495                       ¿þþþþþþþþþþþþþþþþþþþþþþþþþþþþþþþþþþþþþþþþþþþÜ
                                   23496                       Ÿ  First save all the lines in the window.  Ÿ
                                   23497                       ¾þþþþþþþþþþþþþþþþþþþþþþþþþþþþþþþþþþþþþþþþþþþ»
 002DFA 1B22                       23498                       CLEAR R2
 002DFC 4130 8034            0000C 23502                       LA    R3,PAGSINT
 002E00 4840 802A            00002 23503                       LH    R4,PAGSFROW
 002E04 1854                       23504                       LR    R5,R4
1PAGE     (PAGE2193) (12:50) (15MAR04) Page Editor Manager                                                                  Page   74
0Current Usings:  (*,R7) (PAGSWA-(4+36),R8) (CP,R11) (CV,R12)
0Loc    Object Code    Addr1 Addr2  Stmt Lv Lineno    Source Statement           (Hibal 5, Asmedit 3.3)  HLASM R4.0  2004/03/15 12.50
+___    ______ ____    _____ _____  ____ __ ______    ______ _________
0002E06 4C50 725E            03002 23505                       MH    R5,=AL2(L'LINT)
 002E0A 5A50 BB64            00B64 23506                       A     R5,CPXLINT
                                   23507
 002E0E 4860 5002            00002 23508                       WITH  (LINT,R5),'LH R6,LINTWIND'
 USING  LINT,R5
 DROP   LINT,R5
 002E12 4C60 725C            03000 23532                       MH    R6,=AL2(L'WIND)
 002E16 5A60 BB5C            00B5C 23533                       A     R6,CPXWIND
 USING  WIND,R6                    23534                       WITH  (WIND,R6),BEGIN
                                   23548  1
 002E1A 4940 802C/4730_      00004 23549  1                      WHILE (R4,LE,PAGSLROW),BEGIN  Save the lines...
 USING  LINT,R5                    23568  2                        WITH  (LINT,R5)
                                   23581  2
 002E22 9500 500C/4780_0000C       23582  2                        IF    (LINFFREE,OR,LINFNEW,OR,LINFTEXT),BEGIN  Scroll...
 002E3A 48F0 802E/12FF_      00006 23623  3                          IF    ('LTH R15,PAGSSKPC',POS),BEGIN  Skip it...
 002E44 06F0                       23639  4                            DECR  R15
 002E46 40F0 802E            00006 23641  4                            STH   R15,PAGSSKPC        One less line now
 002E4A                            23642  3                          END
 002E4A 70AA/47F0 70C0 02E4A 02E42 23646  3                          ELSE  BEGIN               Save it...
 002E4E D207 3000 500C 00000 0000C 23657  4                            MVC   @R3(L'LINTOPT),LINTOPT
 002E54 4130 3008            00008 23658  4                            LA    R3,@R3+L'LINTOPT
 002E58 41F0 0001/4AF0_      00001 23659  4                            INCR  R15,PAGSCNT
 002E64                            23665  3                          END
                                   23669  3
 002E64 D503 5010 5004_00010 00004 23670  3                          FREELINT ,                It's free now
                                   23701  3
 002E7A 1222/4770 70F2             23702  3                          IF    (R2,Z),BEGIN        Save row for restored lines...
 002E80 48F0 8030/12FF_      00008 23716  4                            IF    ('LTH R15,PAGSFILC',POS),BEGIN
 002E8A 06F0                       23732  5                              DECR  R15
 002E8C 40F0 8030            00008 23734  5                              STH   R15,PAGSFILC
 002E90                            23735  4                            END
 002E90 70F0/47F0 70F2_02E90 02E88 23739  4                            ELSE  'LR R2,R4'          Remember row for later
 002E96                            23756  3                          END
 002E96                            23760  2                        END
                                   23764  2
 002E96 4150 5014            00014 23765  2                        LA    R5,LINTNEXT
 002E9A 4140 4001            00001 23766  2                        LA    R4,@R4+1
 002E9E 47F0 7076            02E1A 23767  1                      END
 DROP   LINT,R5
                                   23777  1                      ¿þþþþþþþþþþþþþþþþþþþþþþþþþþþþþþþþþþþþþþþþþþþþþþþþþþþÜ
                                   23778  1                      Ÿ  Now move the lines back to their new positions.  Ÿ
                                   23779  1                      ¾þþþþþþþþþþþþþþþþþþþþþþþþþþþþþþþþþþþþþþþþþþþþþþþþþþþ»
 002EA2 4130 8034            0000C 23780  1                      LA    R3,PAGSINT
 002EA6 1842                       23781  1                      LR    R4,R2
 002EA8 1854                       23782  1                      LR    R5,R4
 002EAA 4C50 725E            03002 23783  1                      MH    R5,=AL2(L'LINT)
 002EAE 5A50 BB64            00B64 23784  1                      A     R5,CPXLINT
 002EB2 4940 802C/4730_      00004 23785  1                      WHILE (R4,LE,PAGSLROW),BEGIN  Restore the lines...
 USING  LINT,R5                    23804  2                        WITH  (LINT,R5)
                                   23817  2
 002EBA 9500 500C/4770_0000C       23818  2                        IF    LINFFREE,BEGIN      Put a line here...
 002EC2 D207 500C 3000 0000C 00000 23833  3                          MVC   LINTOPT,@R3
 002EC8 4130 3008            00008 23834  3                          LA    R3,@R3+L'LINTOPT
 002ECC 48F0 8032/06F0_      0000A 23835  3                          DECR  R15,PAGSCNT
1PAGE     (PAGE2193) (12:50) (15MAR04) Page Editor Manager                                                                  Page   75
0Current Usings:  (LINT,R5) (WIND,R6) (*,R7) (PAGSWA-(4+36),R8) (CP,R11) (CV,R12)
0Loc    Object Code    Addr1 Addr2  Stmt Lv Lineno    Source Statement           (Hibal 5, Asmedit 3.3)  HLASM R4.0  2004/03/15 12.50
+___    ______ ____    _____ _____  ____ __ ______    ______ _________
0002ED6 12FF/47D0 7144             23840  3                          IF    (R15,NP),SCRLFIN    All done, scram
 002EDC                            23857  2                        END
                                   23861  2
 002EDC 4150 5014            00014 23862  2                        LA    R5,LINTNEXT
 002EE0 4140 4001            00001 23863  2                        LA    R4,@R4+1
 002EE4 47F0 710E            02EB2 23864  1                      END
 DROP   LINT,R5
                                   23874  1
 002EE8 D203 6018 7224 00018 02FC8 23875  1           SCRLFIN    MVC   WINDSLNO,=F'-1'     Recalc boundry linenos
 002EEE 58E0 721C/0DEE       02FC0 23876  1                      ACALL PAGEFILL            Fill up page image
 DROP   WIND,R6                    23880                       END
 002EF4 18D8/9808 D004_            23888                       PEND
 DROP   PAGSWA-(4+36),R8
 DROP   *,R7
1PAGE     (PAGE2193) (12:50) (15MAR04) Page Editor Manager                                                                  Page   76
0Current Usings:  (CP,R11) (CV,R12)
0Loc    Object Code    Addr1 Addr2  Stmt Lv Lineno    Source Statement           (Hibal 5, Asmedit 3.3)  HLASM R4.0  2004/03/15 12.50
+___    ______ ____    _____ _____  ____ __ ______    ______ _________
0                                  23914              ¿þþþþþþþþþþþþþþþþþþþþþþþþþþþþþþþþþþþþþþþþþþþþþþþþþþþþþþþþþþþþþþþþþþþþþÜ
                                   23915              Ÿ                                                                     Ÿ
                                   23916              Ÿ  PAGECNT -- Routine to count the number of lines on the page        Ÿ
                                   23917              Ÿ    between the rows specified.  The routine will stop at a          Ÿ
                                   23918              Ÿ    window boundry.                                                  Ÿ
                                   23919              Ÿ                                                                     Ÿ
                                   23920              Ÿ    On entry:                                                        Ÿ
                                   23921              Ÿ      R0 - first row (0=first in current window)                     Ÿ
                                   23922              Ÿ      R1 - last row (0=last in current window)                       Ÿ
                                   23923              Ÿ                                                                     Ÿ
                                   23924              Ÿ    On exit:                                                         Ÿ
                                   23925              Ÿ      R0 - actual first row                                          Ÿ
                                   23926              Ÿ      R1 - actual last row                                           Ÿ
                                   23927              Ÿ      R15 (and cc) - no. of lines                                    Ÿ
                                   23928              Ÿ                                                                     Ÿ
                                                      ¾þþþþþþþþþþþþþþþþþþþþþþþþþþþþþþþþþþþþþþþþþþþþþþþþþþþþþþþþþþþþþþþþþþþþþ»
0002F02 50E0 D000/9028_      00000 23929              PAGECNT  XPROC (R2,LSR)
 USING  *,R7
 002F1C 1B66                       23969                       CLEAR R6                  Assume the current window
                                   23973
 002F1E 1211/4780 7016             23974                       IF    (R1,NZ),BEGIN       We have an ending row...
 002F24 18F1                       23988  1                      LR    R15,R1
 002F26 4CF0 70E6            03002 23989  1                      MH    R15,=AL2(L'LINT)
 002F2A 5AF0 BB64            00B64 23990  1                      A     R15,CPXLINT
 002F2E 4860 F002            00002 23991  1                      WITH  (LINT,R15),'LH R6,LINTWIND'  Window number
 USING  LINT,R15
 DROP   LINT,R15
 002F32                            24015                       END
                                   24019
 002F32 1200/4780 702A             24020                       IF    (R0,NZ),BEGIN       We have a starting row...
 002F38 18F0                       24034  1                      LR    R15,R0
 002F3A 4CF0 70E6            03002 24035  1                      MH    R15,=AL2(L'LINT)
 002F3E 5AF0 BB64            00B64 24036  1                      A     R15,CPXLINT
 002F42 4860 F002            00002 24037  1                      WITH  (LINT,R15),'LH R6,LINTWIND'  Window number
 USING  LINT,R15
 DROP   LINT,R15
 002F46                            24061                       END
                                   24065
 002F46 1266/4770 7034_            24066                       IF    (R6,Z),'LH R6,CPVWCUR'
 002F50 4C60 70E4            03000 24086                       MH    R6,=AL2(L'WIND)
 002F54 5A60 BB5C            00B5C 24087                       A     R6,CPXWIND
 USING  WIND,R6                    24088                       USING WIND,R6
                                   24097
 002F58 1BFF                       24098                       CLEAR R15                 Counter, for loop below
                                   24102                       ¿þþþþþþþþþþþþþþþþþþþþþþþþþþþþþþþÜ
                                   24103                       Ÿ  Adjust first and last rows.  Ÿ
                                   24104                       ¾þþþþþþþþþþþþþþþþþþþþþþþþþþþþþþþ»
 002F5A 1200/4770 7048_            24105                       IF    (R0,Z),'LH R0,WINDFROW'
 002F64 1211/4770 7052_            24125                       IF    (R1,Z),'LH R1,WINDLROW'
1PAGE     (PAGE2193) (12:50) (15MAR04) Page Editor Manager                                                                  Page   77
0Current Usings:  (WIND,R6) (*,R7) (CP,R11) (CV,R12)
0Loc    Object Code    Addr1 Addr2  Stmt Lv Lineno    Source Statement           (Hibal 5, Asmedit 3.3)  HLASM R4.0  2004/03/15 12.50
+___    ______ ____    _____ _____  ____ __ ______    ______ _________
0                                  24145                       ¿þþþþþþþþþþþþþþþþþþþþÜ
                                   24146                       Ÿ  Count the lines.  Ÿ
                                   24147                       ¾þþþþþþþþþþþþþþþþþþþþ»
 002F6E 1840                       24148                       LR    R4,R0
 002F70 1850                       24149                       LR    R5,R0
 002F72 4C50 70E6            03002 24150                       MH    R5,=AL2(L'LINT)
 002F76 5A50 BB64            00B64 24151                       A     R5,CPXLINT
 002F7A 1941/4730 708C             24152                       WHILE (R4,LE,R1),BEGIN    Go through lines...
 USING  LINT,R5                    24169  1                      WITH  (LINT,R5)
 002F80 9502 500C/4780_0000C       24182  1                      IF    (LINFTEXT,OR,LINFNEW,OR,LINFFREE),'LA R15,@R15+1'
                                   24229  1
 002F9C 4150 5014            00014 24230  1                      LA    R5,LINTNEXT
 002FA0 4140 4001            00001 24231  1                      LA    R4,@R4+1
 002FA4 47F0 705E            02F7A 24232                       END
 DROP   LINT,R5
 002FA8 18D8/9828 D004_            24242                       PEND
 DROP   *,R7
                                   24262
                                   24263                       QLTORG
1PAGE     (PAGE2193) (12:50) (15MAR04) Page Editor Manager                                                                  Page   78
0Current Usings:  (WIND,R6) (CP,R11) (CV,R12)
0Loc    Object Code    Addr1 Addr2  Stmt Lv Lineno    Source Statement           (Hibal 5, Asmedit 3.3)  HLASM R4.0  2004/03/15 12.50
+___    ______ ____    _____ _____  ____ __ ______    ______ _________
0000000                00000 004F3 24297              PWA      RECORD BEGIN              Page work area
 000000 00                         24305  1           PWAFLAG    FLAG
 PWAFLAG.PWAFESC   80 ONES         24309  1                      FLAG  PWAFESC             - ESC emulation mode (3270s)
 PWAFLAG.PWAFSCMD  40 ONES         24314  1                      FLAG  PWAFSCMD            - Command text has been saved
                                   24319  1
 000002                            24320  1           PWACROW    DS    H                   Current row
                                   24321  1
 000004                            24322  1           PWAOROW    DS    H                   Old row
 000006                            24323  1           PWAOWIND   DS    H                   Old window
                                   24324  1
 000008                            24325  1           PWATOPR    DS    H                   Top row
 00000A                            24326  1           PWABOTR    DS    H                   Bottom row
 00000C                            24327  1           PWAFNEWR   DS    H                   First "new" row
 00000E                            24328  1           PWALNEWR   DS    H                   Last "new" row
                                   24329  1           PWAROWS    EQU   PWATOPR,*-PWATOPR,C'X'
                                   24330  1
 000010                            24331  1           PWARLEN    DS    H                   Remaining len
 000014                            24332  1           PWARLOC    DS    A                   Response text ptr
                                   24333  1
 000018                            24334  1           PWAFUNC    DS    X                   Ending function code
                                   24335  1
                                   24336  1           PWALINE    DS    CL(&LINESZ)         Working line buffer
 000019                                   1          +PWALINE    DS    CL(235)             Working line buffer
                                   24337  1                      DS    CL(&PRESSZ-&LINESZ)
 000104                                   1          +           DS    CL(256-235)
                                   24338  1                ¿þþþþþþþþþþþþþþþþþþþþþþþþþþþþþþþþþþþþþþþþþþþþþþþþþþþþþþþþþþþþþþþþþþþþþÜ
                                   24339  1                Ÿ  Each character in PWALINE has a corresponding position in PWAREND  Ÿ
                                   24340  1                Ÿ  and PWAATTR which contains that character's rendition and special  Ÿ
                                   24341  1                Ÿ        attributes.                                                  Ÿ
                                   24342  1                ¾þþþþþþþþþþþþþþþþþþþþþþþþþþþþþþþþþþþþþþþþþþþþþþþþþþþþþþþþþþþþþþþþþþþþþ»
                                   24343  1           PWAREND    DS    XL(&LINESZ)         Working rendition buffer
 000119                                   1          +PWAREND    DS    XL(235)             Working rendition buffer
                                   24344  1
                                   24345  1           PWARNORM   EQU   X'00'               - Normal rendition
                                   24346  1           PWARMARK   EQU   X'20'               - Marked text
                                   24347  1           PWARCOLT   EQU   X'10'               - Column line with tab stop
                                   24348  1           PWARCOLM   EQU   X'08'               - Column line past margin
                                   24349  1           PWARRULE   EQU   X'04'               - Ruling char set
                                   24350  1           PWARBOLD   EQU   X'02'               - Highlighted text
                                   24351  1           PWARSPEL   EQU   X'01'               - Text is misspelled
                                   24352  1
                                   24353  1           PWAATTR    DS    XL(&LINESZ)         Working attribute buffer
 000204                                   1          +PWAATTR    DS    XL(235)             Working attribute buffer
                                   24354  1
                                   24355  1           PWAANORM   EQU   X'00'               - Normal attributes
                                   24356  1           PWAAFBLK   EQU   X'80'               - FBLOCK point is here
                                   24357  1           PWAALBLK   EQU   X'40'               - LBLOCK point is here
                                   24358  1
 0002F0                            24359  1           PWADEFR    DS    H                   Working default rendition
                                   24360  1
 0002F8                            24361  1           PWAFCURS   DS    D                   FBLOCK cursor position
 000300                            24362  1           PWALCURS   DS    D                   LBLOCK cursor position
                                   24363  1
 000308                            24364  1           PWACURS    DS    D                   Working cursor position
1PAGE     (PAGE2193) (12:50) (15MAR04) Page Editor Manager                                                                  Page   79
0Current Usings:  (WIND,R6) (CP,R11) (CV,R12)
0Loc    Object Code    Addr1 Addr2  Stmt Lv Lineno    Source Statement           (Hibal 5, Asmedit 3.3)  HLASM R4.0  2004/03/15 12.50
+___    ______ ____    _____ _____  ____ __ ______    ______ _________
0000310                            24365  1           PWAFLEN    DS    H                   Working field length
                                   24366  1           PWAFIELD   DS    CL(&LINESZ)         Working field
 000312                                   1          +PWAFIELD   DS    CL(235)             Working field
                                   24367  1
 0003FE                            24368  1           PWASCMDL   DS    H                   Saved command line length
 000400                            24369  1           PWASCMD    DS    CL(L'CPCMD)         Saved command line text
 0004EB                            24370  1           PWASCURS   DS    XL(L'CPVCURS)       Saved cursor address
 0004F3                004F3 004F3 24371                       END
1PAGE     (PAGE2193) (12:50) (15MAR04) Page Editor Manager                                                                  Page   80
0Current Usings:  (WIND,R6) (CP,R11) (CV,R12)
0Loc    Object Code    Addr1 Addr2  Stmt Lv Lineno    Source Statement           (Hibal 5, Asmedit 3.3)  HLASM R4.0  2004/03/15 12.50
+___    ______ ____    _____ _____  ____ __ ______    ______ _________
0                                  24381              ¿þþþþþþþþþþþþþþþþþþþþþþþþþþþþþþþþþþþþþþþþþþþþþþþþþþþþþþþþþþþþþþþþþþþþþÜ
                                   24382              Ÿ                                                                     Ÿ
                                   24383              Ÿ  PAGEMOD -- Routine to display the current page and process         Ÿ
                                   24384              Ÿ    any updates.                                                     Ÿ
                                   24385              Ÿ                                                                     Ÿ
                                   24386              Ÿ    On exit, R15 (and cc):                                           Ÿ
                                   24387              Ÿ      0 - go on to the next page                                     Ÿ
                                   24388              Ÿ      4 - abort (break)                                              Ÿ
                                   24389              Ÿ                                                                     Ÿ
                                   24390              Ÿ    Note:  This routine will not return to the caller if the         Ÿ
                                   24391              Ÿ           user executes a new command.                              Ÿ
                                   24392              Ÿ                                                                     Ÿ
                                                      ¾þþþþþþþþþþþþþþþþþþþþþþþþþþþþþþþþþþþþþþþþþþþþþþþþþþþþþþþþþþþþþþþþþþþþþ»
0003006 50E0 D000/9008_      00000 24393              PAGEMOD  XPROC
 USING  *,R7
 003020 186D/41D0 D4F4             24433                       XPUSH ,,L'PWA,PTR=R6
 DROP   WIND,R6                    24436                       USING PWA,R6
 USING  PWA,R6
 003026 D7FF 6000 6000_00000 00000 24448                       CLEAR PWA
                                   24459
 003044 9680 BAC8      00AC8       24460                       SET   CPVFPAGE            Page mode
 003048 9200 BACE      00ACE       24466                       CLEAR CPVLFLAG            Reset local flags
                                   24473
 00304C 9110 BAC9/47E0_00AC9       24474                       IF    CPVFRTRY,BEGIN      Command retry...
 003054 94EF BAC9      00AC9       24489  1                      CLEAR CPVFRTRY            Don't do this again
 003058 D707 BAE0 BAE0_00AE0 00AE0 24496  1                      FREECURS
 00307C 48F0 BB4C            00B4C 24523  1                      LH    R15,CPVCMDR         Command line row
 003080 50F0 BAE0            00AE0 24524  1                      ST    R15,CPVCURR         Set current row
 003084 D203 BAE4 7910 00AE4 03930 24525  1                      MVC   CPVCURC,=F'12'      Set current column
 00308A                            24526                       END
                                   24530
 00308A 706E/47F0 707A 0308A 03052 24531                       ELSE  BEGIN               Normal entry...
 00308E D701 B240 B240 00240 00240 24542  1                      CLEAR CPCMDLEN
 003094 D2EA B242 C4D8 00242 004D8 24549  1                      MVC   CPCMD,CVBLANKS
 00309A                            24550                       END
                                   24554                       ¿þþþþþþþþþþþþþþþþþþþþþþþþþþþþþþþþþþþþþþþþþþþþþþþþþþþþþþÜ
                                   24555                       Ÿ  Get the new terminal type entry if it has changed.  Ÿ
                                   24556                       ¾þþþþþþþþþþþþþþþþþþþþþþþþþþþþþþþþþþþþþþþþþþþþþþþþþþþþþþ»
 00309A 9180 BAC9/47E0_00AC9       24557              PAGMLOOP IF    CPVFCLR,BEGIN       Check for updated ttype entry...
 0030A2 5850 B468/1255       00468 24573  1                      LT    R5,CPTTYPEP         Current ttype entry
 0030A8 4780 78D2            038F2 24577  1                      BZ    PAGMERR
                                   24578  1
 USING  TTYPE,R5                   24579  1                      WITH  (TTYPE,R5)
                                   24592  1
 0030AC 9180 5004/47E0_00004       24593  1                      IF    TTYFREL,BEGIN       Release old ttype entry...
 0030B4 41F0 B41E            0041E 24608  2                        LA    R15,CPSTTYPE
 0030B8 58E0 7914/0DEE       03934 24609  2                        VCALL CHKTTYPE            Look up terminal type
 0030BE 4780 78D2            038F2 24613  2                        BZ    PAGMERR             Not found, oops
 0030C2 58E0 7918/0DEE       03938 24614  2                        VCALL SETTTYPE            Set new terminal type
 0030C8 5850 B468            00468 24618  2                        L     R5,CPTTYPEP
 0030CC                            24619  1                      END
                                   24623  1
 0030CC 9180 5005/47E0_00005       24624  1                      IF    ~TTYFMOD,PAGMERR    Terminal not supported, scram
1PAGE     (PAGE2193) (12:50) (15MAR04) Page Editor Manager                                                                  Page   81
0Current Usings:  (PWA,R6) (*,R7) (CP,R11) (CV,R12)
0Loc    Object Code    Addr1 Addr2  Stmt Lv Lineno    Source Statement           (Hibal 5, Asmedit 3.3)  HLASM R4.0  2004/03/15 12.50
+___    ______ ____    _____ _____  ____ __ ______    ______ _________
0DROP   TTYPE,R5                   24642                       END
                                   24651                       ¿þþþþþþþþþþþþþþþþþþþþþÜ
                                   24652                       Ÿ  Rewrite the page.  Ÿ
                                   24653                       ¾þþþþþþþþþþþþþþþþþþþþþ»
 0030D4 9610 BC7B      00C7B       24654                       SET   CPFDISP
 0030D8 9104 BACA/4710_00ACA       24660                       IF    ~CPVFFORMAT,'SET CPFUFMT'  Unformatted is normal
 0030E4 41F0 B050/58E0_      00050 24686                       TCLEAR
                                   24700                       ¿þþþþþþþþþþþþþþþþþþþþþþþþþþþþþþÜ
                                   24701                       Ÿ  Check for message waiting.  Ÿ
                                   24702                       ¾þþþþþþþþþþþþþþþþþþþþþþþþþþþþþþ»
 0030EE D54F BAFC C4D8_00AFC 004D8 24703                       IF    (CPVMSG,EQ,CVBLANKS),BEGIN  Add any message notes...
 0030F8 48F0 B3C4/06F0_      003C4 24721  1                      DECR  R15,CPSUC
 003102 58E0 7920/0DEE       03940 24726  1                      VCALL UPDCPSIB            Get another copy of the SIB
                                   24730  1
 003108 4820 B390/1222_      00390 24731  1                      IF    ('LTH R2,CPSNMSG',Z),EXIT  Nothing special, scram
 003112 4110 7A08/4100_      03A28 24750  1                      TSEG  'Note: You have '
 003124 4110 7A17/4100_      03A37 24768  1                      SETMSG 'a message'
 00312C 5920 7928/47D0_      03948 24772  1                      IF    (R2,GT,1),BEGIN
 003134 1812/1B00/41F0_            24789  2                        TNUM  (R2)
 003142 4110 7A20/4100_      03A40 24811  2                        SETMSG ' messages'
 00314A                            24815  1                      END
 00314A 41F0 B050/58E0_      00050 24819  1                      TSEG  (R1),(R0),B
 003154 4110 7900/4100_      03920 24843  1                      TSEG  'waiting.'
                                   24861  1
 003166 5810 B070            00070 24862  1                      L     R1,CPSEGLOC
 00316A 58F0 B05C            0005C 24863  1                      L     R15,CPSEGLENF
 00316E 06F0/12FF/4740_            24864  1                      MOVE  R15,CPVMSG,@R1      Save our message
                                   24902  1
 00317A 41F0 B050/58E0_      00050 24903  1                      TCLEAR
                                   24917  1
 003184 D501 B390 BB54_00390 00B54 24918  1                      IF    (CPSNMSG,NE,CPVNMSG),'SET CPVFBELL'  Bell
 003192                            24947                       END
                                   24951
 003192 D201 BB54 B390 00B54 00390 24952                       MVC   CPVNMSG,CPSNMSG     Save message counter
                                   24953                       ¿þþþþþþþþþþþþþþþþþþþþþþþþþþþþþþþþþþþþþþþþþþþþþÜ
                                   24954                       Ÿ  Move in the system view message (if any).  Ÿ
                                   24955                       ¾þþþþþþþþþþþþþþþþþþþþþþþþþþþþþþþþþþþþþþþþþþþþþ»
 003198 D54F BAFC C4D8_00AFC 004D8 24956                       IF    (CPVMSG,EQ,CVBLANKS),BEGIN  Message area is free...
 0031A2 9500 CCEC/4780_00CEC       24974  1                      IF    (CVVMSG,EQ,X'00'),EXIT  No message, scram
 0031AA D24F BAFC CCEC 00AFC 00CEC 24994  1                      MVC   CPVMSG,CVVMSG
 0031B0                            24995                       END
                                   24999                       ¿þþþþþþþþþþþþþþþþþþþþþþþþþþþþþþþþþþþþþþþþþþþþþþþþÜ
                                   25000                       Ÿ  Finally, move in user view message (if any).  Ÿ
                                   25001                       ¾þþþþþþþþþþþþþþþþþþþþþþþþþþþþþþþþþþþþþþþþþþþþþþþþ»
 0031B0 D54F BAFC C4D8_00AFC 004D8 25002                       IF    (CPVMSG,EQ,CVBLANKS),BEGIN  Message area is free...
 0031BA 18ED/41D0 D43C_            25020  1                      TPUSH
                                   25058  1
 0031EE 4120 BAFC            00AFC 25059  1                      LA    R2,CPVMSG           Put result here
 0031F2 4130 0050            00050 25060  1                      LA    R3,L'CPVMSG
 0031F6 4110 7938/4100_      03958 25061  1                      SETMSG 'SES.VIEW_MSG'
 0031FE 58E0 7944/0DEE       03964 25065  1                      VCALL EVALSTR             Get string value, if defined
                                   25069  1
 003204 4BD0 79F2/D23B_      03A12 25070  1                      TPOP  JUNK
 00320E                            25075                       END
1PAGE     (PAGE2193) (12:50) (15MAR04) Page Editor Manager                                                                  Page   82
0Current Usings:  (PWA,R6) (*,R7) (CP,R11) (CV,R12)
0Loc    Object Code    Addr1 Addr2  Stmt Lv Lineno    Source Statement           (Hibal 5, Asmedit 3.3)  HLASM R4.0  2004/03/15 12.50
+___    ______ ____    _____ _____  ____ __ ______    ______ _________
0                                  25079
 00320E 58E0 7948/0DEE       03968 25080                       ACALL PAGEFILL            Fill out the page
                                   25084                       ¿þþþþþþþþþþþþþþþþþþþþþþþþþþþþþþþþþþþþþþþþþþþþþþþþþþþþþþþþÜ
                                   25085                       Ÿ  Update default window settings if they have changed.  Ÿ
                                   25086                       ¾þþþþþþþþþþþþþþþþþþþþþþþþþþþþþþþþþþþþþþþþþþþþþþþþþþþþþþþþ»
 003214 4850 BAD6            00AD6 25087                       LH    R5,CPVWCUR
 003218 4C50 79F4            03A14 25088                       MH    R5,=AL2(L'WIND)
 00321C 5A50 BB5C            00B5C 25089                       A     R5,CPXWIND
 USING  WIND,R5                    25090                       WITH  (WIND,R5),BEGIN
                                   25104  1                      ¿þþþþþþþþþþþþþþþþþþþþþþþþþþþþþþþþþþþþþþþþþþþþþþþþþþþþÜ
                                   25105  1                      Ÿ  Calculate cursor and alternate cursor positions.  Ÿ
                                   25106  1                      ¾þþþþþþþþþþþþþþþþþþþþþþþþþþþþþþþþþþþþþþþþþþþþþþþþþþþþ»
 003220 D503 794C BADC_0396C 00ADC 25107  1                      IF    (CPVLNO,NE,-1000),'CLEAR CPVCURS'  Recalc cursor pos
 003230 D503 7950 BAEC_03970 00AEC 25137  1                      IF    (CPVALNO,NE,-1),'CLEAR CPVACURS'  Recalc alt curs too
 003240 D603 B5AC B5AC_005AC 005AC 25167  1                      IF    (CPALNCT,Z),'CLEAR CPVLNO,CPVALNO'  No Act
                                   25200  1
 003256 D607 BAF0 BAF0_00AF0 00AF0 25201  1                      IF    (CPVACURS,Z),BEGIN  No absolute cursor location...
 003260 4810 BAE8            00AE8 25217  2                        LH    R1,CPVACOL          Current column (in line)
 003264 58F0 BAEC            00AEC 25218  2                        L     R15,CPVALNO         Current lineno
 003268 58E0 7954/0DEE       03974 25219  2                        ACALL CALCCURS            Calculate absolute cursor pos
 00326E 9001 BAF0            00AF0 25223  2                        STM   R0,R1,CPVACURS      Save alternate cursor
 003272                            25224  1                      END
                                   25228  1
 003272 D607 BAE0 BAE0_00AE0 00AE0 25229  1                      IF    (CPVCURS,Z),BEGIN   No absolute cursor location...
                                   25245  2                        ¿þþþþþþþþþþþþþþþþþþþþþþþþþþþþþþþþþþþþþþþþþþþþþþþþþþþþþþþþþþþþþÜ
                                   25246  2                        Ÿ  Make sure cursor is in the visible portion of the screen.  Ÿ
                                   25247  2                        ¾þþþþþþþþþþþþþþþþþþþþþþþþþþþþþþþþþþþþþþþþþþþþþþþþþþþþþþþþþþþþþ»
 00327C 4820 500E            0000E 25248  2                        LH    R2,WINDFCOL
 003280 4120 2001            00001 25249  2                        LA    R2,@R2+1            First displayed text column
 003284 1832                       25250  2                        LR    R3,R2
 003286 4A30 BAD2            00AD2 25251  2                        AH    R3,CPVWID
 00328A 4B30 500A            0000A 25252  2                        SH    R3,WINDTCOL         Last displayed text column
                                   25253  2
 00328E 4810 BADA            00ADA 25254  2                        LH    R1,CPVCOL           Current text column
 003292 1912/4740 727E_            25255  2                        IF    ((R1,LT,R2),OR,(R1,GT,R3)),BEGIN  Out of bounds...
 00329E 4100 0001            00001 25284  3                          LA    R0,1                Assume column 1
 0032A2 48F0 BAD2            00AD2 25285  3                          LH    R15,CPVWID
 0032A6 4BF0 500A            0000A 25286  3                          SH    R15,WINDTCOL        Last possible text column
 0032AA 191F/47D0 7296             25287  3                          IF    (R1,GT,R15),BEGIN   Calculate new starting column...
 0032B0 4100 100A            0000A 25302  4                            LA    R0,@R1+10           We need ten spaces after cursor
 0032B4 1B0F                       25303  4                            SR    R0,R15              New starting column
 0032B6                            25304  3                          END
 0032B6 41F0 5000            00000 25308  3                          LA    R15,WIND
 0032BA 58E0 7958/0DEE       03978 25309  3                          ACALL PAGECOLS            Do horizontal scrolling
 0032C0                            25313  2                        END
                                   25317  2
 0032C0 4810 BADA            00ADA 25318  2                        LH    R1,CPVCOL           Current column (in line)
 0032C4 58F0 BADC            00ADC 25319  2                        L     R15,CPVLNO          Current lineno
 0032C8 58E0 7954/0DEE       03974 25320  2                        ACALL CALCCURS            Calculate absolute cursor pos
 0032CE 9001 BAE0            00AE0 25324  2                        STM   R0,R1,CPVCURS       Save cursor
 0032D2                            25325  1                      END
 DROP   WIND,R5                    25329                       END
1PAGE     (PAGE2193) (12:50) (15MAR04) Page Editor Manager                                                                  Page   83
0Current Usings:  (PWA,R6) (*,R7) (CP,R11) (CV,R12)
0Loc    Object Code    Addr1 Addr2  Stmt Lv Lineno    Source Statement           (Hibal 5, Asmedit 3.3)  HLASM R4.0  2004/03/15 12.50
+___    ______ ____    _____ _____  ____ __ ______    ______ _________
0                                  25337                       ¿þþþþþþþþþþþþþþþþþþþþþþþþþþþþþþþþþþþþþþþþþþþþþþþþþþþþþþÜ
                                   25338                       Ÿ  Clear screen (and reinitialize screen parameters).  Ÿ
                                   25339                       ¾þþþþþþþþþþþþþþþþþþþþþþþþþþþþþþþþþþþþþþþþþþþþþþþþþþþþþþ»
 0032D2 9180 BAC9/47E0_00AC9       25340                       IF    CPVFCLR,BEGIN       Clear screen and rewrite page...
 0032DA 5810 795C/4100_      0397C 25355  1                      TSEG  L:=A($LCSI),L'$LCSI
 0032EC 4810 BAD4/1B00_      00AD4 25383  1                      TNUM  LH:CPVHEI           Height
 0032FC 4110 7A29/4100_      03A49 25404  1                      TSEG  ';'
 00330E 4810 BAD2/1B00_      00AD2 25422  1                      TNUM  LH:CPVWID           Displayed width
 00331E 4110 7A29/4100_      03A49 25443  1                      TSEG  ';'
 003330 4810 BAD0/1B00_      00AD0 25461  1                      TNUM  LH:CPVTWID          Total number of cols
 003340 4110 7A2A/4100_      03A4A 25482  1                      TSEG  'i'                 Initialize screen buffer
                                   25500  1
 003352 5810 7960/4100_      03980 25501  1                      TSEG  L:=A($CS),L'$CS     Clear screen
                                   25529  1
 003364 5810 7964/4100_      03984 25530  1                      TSEG  L:=A($CLRMSG),L'$CLRMSG  Clear message area
                                   25558  1
 003376 5810 7968/4100_      03988 25559  1                      TSEG  L:=A($SETRULE),L'$SETRULE  Set ruling alt charset
 003388 41F0 0104/58E0_      00104 25587  1                      TREND BACK                Background rendition
 003392 41F0 B050/58E0_      00050 25594  1                      TMARK
                                   25608  1
 00339C 9660 BAC9      00AC9       25609  1                      SET   CPVFFMT+CPVFREWR    Define and rewrite all lines
 0033A0                            25618                       END
                                   25622                       ¿þþþþþþþþþþþþþþþþþþþþþþÜ
                                   25623                       Ÿ  Set editing modes.  Ÿ
                                   25624                       ¾þþþþþþþþþþþþþþþþþþþþþþ»
 0033A0 5810 795C/4100_      0397C 25625                       TSEG  L:=A($LCSI),L'$LCSI
 0033B2 9680 BACC      00ACC       25653                       SET   CPVFWYL             Always use WYLBUR mode
 0033B6 1F11/4310 BACC_            25659                       TNUM  LC:CPVMODE          Editing flags
 0033C8 4110 7A29/4100_      03A49 25686                       TSEG  ';'
 0033DA 1F11/4310 BACD             25704                       LC    R1,CPVWCHAR
 0033E0 5A10 C8B0            008B0 25711                       A     R1,CVASCTBL
 0033E4 1FFF/43F0 1000             25712                       LC    R15,@R1             Value of word separator in ASCII
 0033EA 181F/1B00/41F0_            25719                       TNUM  (R15)               Word separator
 0033F8 5810 7974/4100_      03994 25741                       TSEG  L:=A($SEM),L'$SEM
                                   25769                       ¿þþþþþþþþþþþþþþþþþþþþþþþþþþþþþþþþþþþþþþÜ
                                   25770                       Ÿ  Define all the fields on the page.  Ÿ
                                   25771                       ¾þþþþþþþþþþþþþþþþþþþþþþþþþþþþþþþþþþþþþþ»
 00340A 58E0 7978/0DEE       03998 25772                       ACALL FMTPAGE             Format all fields on the page
                                   25776                       ¿þþþþþþþþþþþþþþþþþþþþþþþþþþþþþþþþþþþþþþþþÜ
                                   25777                       Ÿ  Write any changed lines on the page.  Ÿ
                                   25778                       ¾þþþþþþþþþþþþþþþþþþþþþþþþþþþþþþþþþþþþþþþþ»
 003410 58E0 797C/0DEE       0399C 25779                       ACALL OUTPAGE             Rewrite changed portion of page
                                   25783                       ¿þþþþþþþþþþþþþþþþþþþþþþþþþþþþþÜ
                                   25784                       Ÿ  Reset display attributes.  Ÿ
                                   25785                       ¾þþþþþþþþþþþþþþþþþþþþþþþþþþþþþ»
 003416 941F BAC9/94DF_00AC9       25786                       CLEAR CPVFCLR+CPVFFMT+CPVFREWR,CPVFSPEC
                                   25805
 00341E 4140 0001            00001 25806                       LA    R4,1
 003422 5850 BB58            00B58 25807                       L     R5,CPWINDP
 003426 4940 BAD8/4730_      00AD8 25808                       WHILE (R4,LE,CPVWCNT),BEGIN  Go through windows...
 USING  WIND,R5                    25827  1                      WITH  (WIND,R5)
 00342E 947F 5000      00000       25840  1                      CLEAR WINFREWR
                                   25847  1
 003432 D203 5028 5018 00028 00018 25848  1                      MVC   WINDOFLN,WINDSLNO   Save old starting lineno
1PAGE     (PAGE2193) (12:50) (15MAR04) Page Editor Manager                                                                  Page   84
0Current Usings:  (WIND,R5) (PWA,R6) (*,R7) (CP,R11) (CV,R12)
0Loc    Object Code    Addr1 Addr2  Stmt Lv Lineno    Source Statement           (Hibal 5, Asmedit 3.3)  HLASM R4.0  2004/03/15 12.50
+___    ______ ____    _____ _____  ____ __ ______    ______ _________
0003438 D203 502C 501C 0002C 0001C 25849  1                      MVC   WINDOLLN,WINDELNO   Save old ending lineno
                                   25850  1
 00343E 4150 5040            00040 25851  1                      LA    R5,WINDNEXT
 003442 4140 4001            00001 25852  1                      LA    R4,@R4+1
 003446 47F0 7406            03426 25853                       END
 DROP   WIND,R5
                                   25863                       ¿þþþþþþþþþþþþþþþþþþþþÜ
                                   25864                       Ÿ  Position cursor.  Ÿ
                                   25865                       ¾þþþþþþþþþþþþþþþþþþþþ»
 00344A 9801 BAF0/58E0_      00AF0 25866                       TCURS CPVACURS            Alternate cursor location
 003454 5810 7984/4100_      039A4 25873                       TSEG  L:=A($ALTHOME),L'$ALTHOME  Set alternate home point
                                   25901
 003466 D507 BAF0 BAE0_00AF0 00AE0 25902                       IF    (CPVACURS,NE,CPVCURS),'TCURS CPVCURS'  Set cursor
                                   25932
 00347A 9120 BACE/47E0_00ACE       25933                       IF    CPVFBELL,BEGIN      Ring the bell...
 003482 4110 7A2B/4100_      03A4B 25948  1                      TSEG  X'2F'               (Bell)
 003494 94DF BACE      00ACE       25966  1                      CLEAR CPVFBELL
 003498                            25973                       END
                                   25977                       ¿þþþþþþþþþþþþþþþþþþþþþþþþþþþþþÜ
                                   25978                       Ÿ  Do output buffer tracing.  Ÿ
                                   25979                       ¾þþþþþþþþþþþþþþþþþþþþþþþþþþþþþ»
 003498 1BFF                       25980                       CLEAR R15                 Indicate output buffer
 00349A 5810 B070/5800_      00070 25984                       SETMSG L:CPSEGLOC,L:CPSEGLENF
 0034A2 58E0 7988/0DEE       039A8 25996                       VCALL VIEWTRC             Do any tracing
                                   26000              *
                                   26001              *******************************************************************
                                   26002              **       Write display and read back updates.                    **
                                   26003              *******************************************************************
 0034A8 1B00/1BFF/58E0_            26004                       TREAD ,                   Read back updates
                                   26018                       ¿þþþþþþþþþþþþþþþþþþþþþþþþþþþþþþþþþþþþþÜ
                                   26019                       Ÿ  Process responses from page read.  Ÿ
                                   26020                       ¾þþþþþþþþþþþþþþþþþþþþþþþþþþþþþþþþþþþþþ»
 0034B2 94EF BC7B      00C7B       26021                       CLEAR CPFDISP             Reset display mode
 0034B6 94F7 BC7C      00C7C       26028                       CLEAR CPFUFMT             Reset display mode options too
 0034BA 94F7 BC7B      00C7B       26035                       CLEAR CPFNOCURS           Reset don't move cursor flag
                                   26042
 0034BE 947F 6000      00000       26043                       CLEAR PWAFESC             Reset ESC emulation mode
 0034C2 9120 BACB/47E0_00ACB       26050                       IF    CPVFESC,'SET PWAFESC; CLEAR CPVFESC'  Save & reset
                                   26083
 0034D2 12FF/47B0 74C0_            26084                       IF    (R15,NEG),'CLEAR CPVFPAGE; B CVNEXT'  Logging off
                                   26111
 0034E0 9180 BACB/47E0_00ACB       26112                       IF    CPVFVTAM,BEGIN      Special case for VTAM...
 0034E8 59F0 7990/4770_      039B0 26127  1                      IF    (R15,EQ,101),BEGIN  Reverse break...
 0034F0 9608 BC7B      00C7B       26144  2                        SET   CPFNOCURS           Don't change the cursor position
 0034F4 D24F BAFC C4D8 00AFC 004D8 26150  2                        MVC   CPVMSG,CVBLANKS     Reset any old message
 0034FA                            26151  1                      END
                                   26155  1
 0034FA 59F0 7928/4770_      03948 26156  1                      IF    ((R15,EQ,1),AND,(R0,Z)),BEGIN  ATTN...
 003508 9608 BC7B      00C7B       26186  2                        SET   CPFNOCURS           Don't move cursor
 00350C 1BFF                       26192  2                        CLEAR R15                 Reset attn indication
 00350E D206 1000 7A2C 00000 03A4C 26196  2                        MVC   @R1(7),=X'27AD4CF1F3F0E5'  BREAK function code
 003514 4100 0007            00007 26197  2                        LA    R0,7
 003518                            26198  1                      END
                                   26202  1
1PAGE     (PAGE2193) (12:50) (15MAR04) Page Editor Manager                                                                  Page   85
0Current Usings:  (PWA,R6) (*,R7) (CP,R11) (CV,R12)
0Loc    Object Code    Addr1 Addr2  Stmt Lv Lineno    Source Statement           (Hibal 5, Asmedit 3.3)  HLASM R4.0  2004/03/15 12.50
+___    ______ ____    _____ _____  ____ __ ______    ______ _________
0003518 9108 BC7B/47E0_00C7B       26203  1                      IF    CPFNOCURS,BEGIN     Don't update cursor...
 003520 4820 BB4C/1222       00B4C 26218  2                        LTH   R2,CPVCMDR          Row of command line
 003526 4780 7516            03536 26222  2                        IF    Z,EXIT              Not defined, scram
 00352A 4C20 79F6            03A16 26236  2                        MH    R2,=AL2(L'LINT)
 00352E 5A20 BB64            00B64 26237  2                        A     R2,CPXLINT          Last line
 USING  LINT,R2                    26238  2                        WITH  (LINT,R2)
 003532 947F 200D      0000D       26251  2                        CLEAR LINFREWR            Don't rewrite command line
 DROP   LINT,R2                    26258  1                      END
 003536                            26267                       END
                                   26271
 003536 59F0 7990/4780_      039B0 26272                       IF    (R15,EQ,101),PAGMLOOP     Reverse break
 00353E 59F0 7928/4770_      03948 26292                       IF    (R15,EQ,1),'SET CPVFBRK'  Break/Attn
                                   26320
 00354A 9200 6018      00018       26321                       CLEAR PWAFUNC             Initialize function code
 00354E 5010 6014            00014 26328                       ST    R1,PWARLOC          Save response text ptr
 003552 4000 6010            00010 26329                       STH   R0,PWARLEN          Save remaining len
                                   26330                       ¿þþþþþþþþþþþþþþþþþþþþþþþþþþþþÜ
                                   26331                       Ÿ  Do input buffer tracing.  Ÿ
                                   26332                       ¾þþþþþþþþþþþþþþþþþþþþþþþþþþþþ»
 003556 41F0 0001            00001 26333                       LA    R15,1               Indicate input buffer
 00355A 58E0 7988/0DEE       039A8 26334                       VCALL VIEWTRC             Do any tracing
                                   26338                       ¿þþþþþþþþþþþþþþþþþþþþþþþþþþþþþþþþþþÜ
                                   26339                       Ÿ  Display debugging information.  Ÿ
                                   26340                       ¾þþþþþþþþþþþþþþþþþþþþþþþþþþþþþþþþþþ»
 003560 9110 BACA/47E0_00ACA       26341                       IF    CPVFBUG,BEGIN       Debugging mode...
 003568 5810 6014/4800_      00014 26356  1                      SETMSG L:PWARLOC,LH:PWARLEN  Input buffer
 003570 58E0 7994/0DEE       039B4 26367  1                      ACALL INPBUG              Display debugging info
 003576                            26371                       END
                                   26375                       ¿þþþþþþþþþþþþþþþþþþþþþþþþþþþþþþþþþþþþÜ
                                   26376                       Ÿ  Process text returned from read.  Ÿ
                                   26377                       ¾þþþþþþþþþþþþþþþþþþþþþþþþþþþþþþþþþþþþ»
 003576 9140 BACE/4710_00ACE       26378                       IF    CPVFBRK,PAGMEXIT    Read ended by BREAK
                                   26396
 00357E 58E0 7998/0DEE_      039B8 26397                       WHILE ('ACALL GETFIELD',Z),BEGIN  Process returned fields...
 003588 1200/47D0 75CE_            26415  1                      IF    ((R0,POS),AND,(R0,LE,CPVHEI)),BEGIN
 003596 1840                       26445  2                        LR    R4,R0
 003598 4C40 79F6            03A16 26446  2                        MH    R4,=AL2(L'LINT)
 00359C 5A40 BB64            00B64 26447  2                        A     R4,CPXLINT
 USING  LINT,R4                    26448  2                        WITH  (LINT,R4)
 0035A0 4850 4002/1255       00002 26461  2                        LTH   R5,LINTWIND
 0035A6 4770 758E/4850_      035AE 26465  2                        IF    Z,'LH R5,CPVWCUR'
 0035AE 4C50 79F4            03A14 26482  2                        MH    R5,=AL2(L'WIND)
 0035B2 5A50 BB5C            00B5C 26483  2                        A     R5,CPXWIND
 USING  WIND,R5                    26484  2                        WITH  (WIND,R5)
                                   26497  2
 0035B6 58F0 5014            00014 26498  2                        L     R15,WINDACT
 0035BA 58E0 799C/0DEE       039BC 26499  2                        VCALL ACTPICK             Switch into correct Active file
 0035C0 183F                       26503  2                        LR    R3,R15              Save previous Active file no
                                   26504  2
 0035C2 9501 400C/4780_0000C       26505  2                        IF    (LINFNEW,OR,LINFTEXT),'ACALL INPTEXT'  Update line
 0035D8 9504 400C/4770_0000C       26543  2                        IF    LINFCMD,'ACALL INPCMD'  Update command
                                   26567  2
 0035E6 18F3                       26568  2                        LR    R15,R3
 0035E8 58E0 799C/0DEE       039BC 26569  2                        VCALL ACTPICK             Switch back to previous Active
1PAGE     (PAGE2193) (12:50) (15MAR04) Page Editor Manager                                                                  Page   86
0Current Usings:  (PWA,R6) (*,R7) (CP,R11) (CV,R12)
0Loc    Object Code    Addr1 Addr2  Stmt Lv Lineno    Source Statement           (Hibal 5, Asmedit 3.3)  HLASM R4.0  2004/03/15 12.50
+___    ______ ____    _____ _____  ____ __ ______    ______ _________
0DROP   WIND,R5                    26573  1                      END
 DROP   LINT,R4
 0035EE 47F0 755E            0357E 26587                       END
                                   26592                       ¿þþþþþþþþþþþþþþþþþþþþþþþþþþþþþþþþþÜ
                                   26593                       Ÿ  Account for any file changes.  Ÿ
                                   26594                       ¾þþþþþþþþþþþþþþþþþþþþþþþþþþþþþþþþþ»
 0035F2 9110 BAC8/47E0_00AC8       26595                       IF    CPVFCH,BEGIN        Count the change to the file...
 0035FA 4100 0001/5E00_      00001 26610  1                      INCR  R0,CPACHCT
 003606 94EF BAC8      00AC8       26616  1                      CLEAR CPVFCH
 00360A                            26623                       END
                                   26627                       ¿þþþþþþþþþþþþþþþþþþþþþþþþþþþþþþþþþþþþþÜ
                                   26628                       Ÿ  Process immediate function codes.  Ÿ
                                   26629                       ¾þþþþþþþþþþþþþþþþþþþþþþþþþþþþþþþþþþþþþ»
 00360A 94BF 6000      00000       26630                       CLEAR PWAFSCMD
                                   26637
 00360E 1FFF/43F0 6018             26638                       LC    R15,PWAFUNC
 003614 58E0 79A8/0DEE       039C8 26645                       VCALL VIEWPF              Process immediate function code.
 00361A 4780 707A            0309A 26649                       BZ    PAGMLOOP
                                   26650                       ¿þþþþþþþþþþþþþþþþþþþþþþþþþþþþþþþþþþÜ
                                   26651                       Ÿ  Process regular function code.  Ÿ
                                   26652                       ¾þþþþþþþþþþþþþþþþþþþþþþþþþþþþþþþþþþ»
 00361E 1FFF/43F0 6018             26653                       LC    R15,PWAFUNC
 003624 12FF/4780 76E2             26660                       IF    (R15,NZ),BEGIN      Something special...
                                   26674  1                ¿þþþþþþþþþþþþþþþþþþþþþþþþþþþþþþþþþþþþþþþþþþþþþþþþþþþþþþþþþþþþþþþþþþþþþÜ
                                   26675  1                Ÿ  Save current command line text before moving in a pseudo-command.  Ÿ
                                   26676  1                ¾þþþþþþþþþþþþþþþþþþþþþþþþþþþþþþþþþþþþþþþþþþþþþþþþþþþþþþþþþþþþþþþþþþþþþ»
 00362A D201 63FE B240 003FE 00240 26677  1                      MVC   PWASCMDL,CPCMDLEN
 003630 D2EA 6400 B242 00400 00242 26678  1                      MVC   PWASCMD,CPCMD       Save current command line
 003636 D207 64EB BAE0 004EB 00AE0 26679  1                      MVC   PWASCURS,CPVCURS    Save cursor position
 00363C 9640 6000      00000       26680  1                      SET   PWAFSCMD            We have a saved command
                                   26686  1                      ¿þþþþþþþþþþþþþþþþþþþþþþþþþþþþþþþþþþþþþþþþÜ
                                   26687  1                      Ÿ  Turn function code into dot command.  Ÿ
                                   26688  1                      ¾þþþþþþþþþþþþþþþþþþþþþþþþþþþþþþþþþþþþþþþþ»
 003640 D201 B240 79F8 00240 03A18 26689  1                      MVC   CPCMDLEN,=H'8'
 003646 D2EA B242 C4D8 00242 004D8 26690  1                      MVC   CPCMD,CVBLANKS
                                   26691  1
 00364C 59F0 79AC/47B0_      039CC 26692  1                      IF    (R15,LT,128),BEGIN  ESC char...
 003654 924B B242      00242       26709  2                        MVI   CPCMD,C'.'
 003658 4120 B243            00243 26710  2                        LA    R2,CPCMD+1
                                   26711  2
 00365C 59F0 79B0/47B0_      039D0 26712  2                        IF    (R15,LT,32),BEGIN   ESC control-char...
 003664 924B 2000      00000       26729  3                          MVI   @R2,C'.'
 003668 4120 2001            00001 26730  3                          LA    R2,@R2+1
 00366C 41F0 F040            00040 26731  3                          LA    R15,@R15+64         Convert to alpha char
 003670                            26732  2                        END
                                   26736  2
 003670 59F0 79B4/47D0_      039D4 26737  2                        IF    (R15,GT,96),BEGIN   ESC W alpha...
 003678 92E6 2000      00000       26754  3                          MVI   @R2,C'W'
 00367C 4120 2001            00001 26755  3                          LA    R2,@R2+1
 003680 4BF0 79FA            03A1A 26756  3                          SH    R15,=H'32'          Convert to upper case
 003684                            26757  2                        END
                                   26761  2
 003684 5810 C8B4            008B4 26762  2                        L     R1,CVEBCTBL
 003688 411F 1000            00000 26763  2                        LA    R1,@R1(R15)         Convert to EBCDIC (from ASCII)
1PAGE     (PAGE2193) (12:50) (15MAR04) Page Editor Manager                                                                  Page   87
0Current Usings:  (PWA,R6) (*,R7) (CP,R11) (CV,R12)
0Loc    Object Code    Addr1 Addr2  Stmt Lv Lineno    Source Statement           (Hibal 5, Asmedit 3.3)  HLASM R4.0  2004/03/15 12.50
+___    ______ ____    _____ _____  ____ __ ______    ______ _________
000368C D200 2000 1000 00000 00000 26764  2                        MVC   @R2(1),@R1             Char
 003692 9540 2000/4770_00000       26765  2                        IF    (@R2,EQ,' '),'MVC @R2(7),=C"COLLECT"'
 0036A0                            26787  1                      END
                                   26791  1
 0036A0 7684/47F0 76AC_036A0 03652 26792  1                      ELSEIF ((R15,GE,145),AND,(R15,LE,159)),BEGIN  ESC W spec...
 0036B4 4110 7A3A            03A5A 26834  2                        LA    R1,=C'<>+-/0123456789'
 0036B8 4BF0 79FC            03A1C 26835  2                        SH    R15,=H'145'
 0036BC 411F 1000            00000 26836  2                        LA    R1,@R1(R15)
 0036C0 D201 B242 79FE 00242 03A1E 26837  2                        MVC   CPCMD(2),=C'.W'
 0036C6 D200 B244 1000 00244 00000 26838  2                        MVC   CPCMD+2(1),@R1
 0036CC                            26839  1                      END
                                   26843  1
 0036CC 76B0/76B0/47F0_036CC 036AA 26844  1                      ELSE  BEGIN               Special function...
 0036D0 D202 B242 7A49 00242 03A69 26857  2                        MVC   CPCMD(3),=C' .#'
 0036D6 59F0 79C0/4750_      039E0 26858  2                        IF    (R15,GE,200),BEGIN
 0036DE 4BF0 7A00            03A20 26875  3                          SH    R15,=H'200'         PF keys are 200..255
 0036E2 D202 B242 7A4C 00242 03A6C 26876  3                          MVC   CPCMD(3),=C'.PF'
 0036E8                            26877  2                        END
 0036E8 1B00/4110 BC88_            26881  2                        BTD   CPDOUB,0,(R15)
 0036F4 18F0                       26900  2                        LR    R15,R0
 0036F6 06F0/12FF/4740_            26901  2                        MOVE  R15,CPCMD+3,CPDOUB  PF number
 003702                            26939  1                      END
 003702                            26943                       END
                                   26947
 003702 D502 7A4F B242_03A6F 00242 26948                       IF    (CPCMD,EQ,'.( '),'MVC CPCMD(7),=C".FBLOCK"'
 003712 D502 7A59 B242_03A79 00242 26971                       IF    (CPCMD,EQ,'.) '),'MVC CPCMD(7),=C".LBLOCK"'
 003722 D502 7A63 B242_03A83 00242 26994                       IF    (CPCMD,EQ,'.+ '),'MVC CPCMD(7),=C".REMARK"'
 003732 D502 7A6D B242_03A8D 00242 27017                       IF    (CPCMD,EQ,'.- '),'MVC CPCMD(7),=C".UNMARK"'
 003742 D503 79C8 B242_039E8 00242 27040                       IF    (CPCMD,EQ,'.W+ '),'MVC CPCMD(6),=C".WPLUS"'
 003752 D503 79CC B242_039EC 00242 27063                       IF    (CPCMD,EQ,'.W- '),'MVC CPCMD(7),=C".WMINUS"'
 003762 D503 79D0 B242_039F0 00242 27086                       IF    (CPCMD,EQ,'.W/ '),'MVC CPCMD(7),=C".WSLASH"'
                                   27109                       ¿þþþþþþþþþþþþþþþþþþþþþþþþþþþþþþþþþþþþþþÜ
                                   27110                       Ÿ  Process alternate cursor position.  Ÿ
                                   27111                       ¾þþþþþþþþþþþþþþþþþþþþþþþþþþþþþþþþþþþþþþ»
 003772 D203 BAEC 790C 00AEC 0392C 27112                       MVC   CPVALNO,=F'-1'      Assume alt curs is not on a lineno
 003778 D701 BAE8 BAE8 00AE8 00AE8 27113                       CLEAR CPVACOL             No column pos yet
                                   27120
 00377E 5840 BAF0            00AF0 27121                       L     R4,CPVACURS         Get alternate cursor row
 003782 1244/47D0 77BA_            27122                       IF    ((R4,POS),AND,(R4,LE,CPVHEI)),BEGIN
 003790 4C40 79F6            03A16 27152  1                      MH    R4,=AL2(L'LINT)
 003794 5A40 BB64            00B64 27153  1                      A     R4,CPXLINT          Alternate cursor LINT
 USING  LINT,R4                    27154  1                      WITH  (LINT,R4)
                                   27167  1
 003798 9501 400C/4780_0000C       27168  1                      IF    (LINFNEW,OR,LINFTEXT),BEGIN  Save lineno and col...
 0037A8 4850 4002/1255       00002 27197  2                        LTH   R5,LINTWIND
 0037AE 4780 77BA            037DA 27201  2                        IF    Z,EXIT              Not in a window, scram
 0037B2 4C50 79F4            03A14 27215  2                        MH    R5,=AL2(L'WIND)
 0037B6 5A50 BB5C            00B5C 27216  2                        A     R5,CPXWIND
 USING  WIND,R5                    27217  2                        WITH  (WIND,R5)
 0037BA 58F0 BAF4            00AF4 27230  2                        L     R15,CPVACURS+4      Absolute alternate cursor column
 0037BE 41F0 F001            00001 27231  2                        LA    R15,@R15+1          Column number is rel to one
 0037C2 4BF0 500A            0000A 27232  2                        SH    R15,WINDTCOL        Adjust for column number
 0037C6 47B0 77AC/1BFF       037CC 27233  2                        IF    NEG,'CLEAR R15'
 0037CC 4AF0 500E            0000E 27253  2                        AH    R15,WINDFCOL        Adjust for cols being displayed
1PAGE     (PAGE2193) (12:50) (15MAR04) Page Editor Manager                                                                  Page   88
0Current Usings:  (LINT,R4) (WIND,R5) (PWA,R6) (*,R7) (CP,R11) (CV,R12)
0Loc    Object Code    Addr1 Addr2  Stmt Lv Lineno    Source Statement           (Hibal 5, Asmedit 3.3)  HLASM R4.0  2004/03/15 12.50
+___    ______ ____    _____ _____  ____ __ ______    ______ _________
00037D0 40F0 BAE8            00AE8 27254  2                        STH   R15,CPVACOL         Set alternate column
                                   27255  2
 0037D4 D203 BAEC 4010 00AEC 00010 27256  2                        MVC   CPVALNO,LINTLNO     Set alternate lineno
 DROP   WIND,R5                    27257  1                      END
 DROP   LINT,R4                    27266                       END
                                   27275                       ¿þþþþþþþþþþþþþþþþþþþþþþþþþþþþþþþþþþþÜ
                                   27276                       Ÿ  Process cursor ending position.  Ÿ
                                   27277                       ¾þþþþþþþþþþþþþþþþþþþþþþþþþþþþþþþþþþþ»
 0037DA D203 BADC 7908 00ADC 03928 27278                       MVC   CPVLNO,=F'-1000'    Assume cursor is not on a lineno
 0037E0 D701 BADA BADA 00ADA 00ADA 27279                       CLEAR CPVCOL              No column pos yet
                                   27286
 0037E6 5840 BAE0            00AE0 27287                       L     R4,CPVCURS          Get cursor row
 0037EA 1244/47D0 784A_            27288                       IF    ((R4,POS),AND,(R4,LE,CPVHEI)),BEGIN
 0037F8 4C40 79F6            03A16 27318  1                      MH    R4,=AL2(L'LINT)
 0037FC 5A40 BB64            00B64 27319  1                      A     R4,CPXLINT          Cursor LINT
 USING  LINT,R4                    27320  1                      WITH  (LINT,R4)
                                   27333  1
 003800 4850 4002/1255       00002 27334  1                      LTH   R5,LINTWIND
 003806 4780 7814            03834 27338  1                      IF    NZ,BEGIN            Currently in a window...
 00380A 4C50 79F4            03A14 27349  2                        MH    R5,=AL2(L'WIND)
 00380E 5A50 BB5C            00B5C 27350  2                        A     R5,CPXWIND
 USING  WIND,R5                    27351  2                        WITH  (WIND,R5)
                                   27364  2
 003812 D501 4002 BAD6_00002 00AD6 27365  2                        IF    (LINTWIND,NE,CPVWCUR),BEGIN  Changed windows...
 00381C D201 BAD6 4002 00AD6 00002 27383  3                          MVC   CPVWCUR,LINTWIND    Set new window
 003822                            27384  2                        END
                                   27388  2
 003822 58F0 5014            00014 27389  2                        L     R15,WINDACT         Window's Active file number
 003826 59F0 B57C/4780_      0057C 27390  2                        IF    (R15,NE,CPACTNO),'VCALL ACTPICK'  Switch Actives
 DROP   WIND,R5                    27416  1                      END
                                   27425  1                      ¿þþþþþþþþþþþþþþþþþþþþþþþþþþþþþþþþþþþþþþþþþþþþþþþþþþþþþþÜ
                                   27426  1                      Ÿ  Process ending cursor position based on line type.  Ÿ
                                   27427  1                      ¾þþþþþþþþþþþþþþþþþþþþþþþþþþþþþþþþþþþþþþþþþþþþþþþþþþþþþþ»
 003834 9801 BAE0            00AE0 27428  1                      LM    R0,R1,CPVCURS       Ending cursor location
 003838 9501 400C/4780_0000C       27429  1                      IF    (LINFNEW,OR,LINFTEXT),'ACALL CURSTEXT'
 00384E 9504 400C/4770_0000C       27467  1                      IF    LINFCMD,'ACALL CURSCMD'
 00385C 9503 400C/4770_0000C       27491  1                      IF    LINFCOL,'ACALL CURSCOL'
 DROP   LINT,R4                    27515                       END
                                   27524                       ¿þþþþþþþþþþþþþþþþþþþþþþþþþþþþÜ
                                   27525                       Ÿ  Execute any new command.  Ÿ
                                   27526                       ¾þþþþþþþþþþþþþþþþþþþþþþþþþþþþ»
 00386A 4110 B242/4800_      00242 27527                       SETMSG CPCMD,LH:CPCMDLEN
 003872 1200/4780 78CE             27540                       IF    (R0,NZ),BEGIN       New command...
 003878 4000 B240            00240 27554  1                      STH   R0,CPCMDLEN
                                   27555  1
 00387C 58E0 79E0/0DEE       03A00 27556  1                      VCALL VIEWCMD             Process any subcommand
 003882 9180 BACE/4710_00ACE       27560  1                      IF    CPVFEXIT,PAGMEXIT
                                   27578  1
 00388A 12FF/4770 78A8             27579  1                      IF    (R15,Z),BEGIN       Local command was executed...
 003890 9140 6000/47E0_00000       27593  2                        IF    PWAFSCMD,BEGIN      Restore saved command...
 003898 D601 B240 B240_00240 00240 27608  3                          IF    (CPCMDLEN,NZ),EXIT  Partial cmd already there, scram
 0038A2 D201 B240 63FE 00240 003FE 27627  3                          MVC   CPCMDLEN,PWASCMDL
 0038A8 D2EA B242 6400 00242 00400 27628  3                          MVC   CPCMD,PWASCMD       Restore saved command
                                   27629  3           *  Also restore the cursor position if the user was on the
1PAGE     (PAGE2193) (12:50) (15MAR04) Page Editor Manager                                                                  Page   89
0Current Usings:  (PWA,R6) (*,R7) (CP,R11) (CV,R12)
0Loc    Object Code    Addr1 Addr2  Stmt Lv Lineno    Source Statement           (Hibal 5, Asmedit 3.3)  HLASM R4.0  2004/03/15 12.50
+___    ______ ____    _____ _____  ____ __ ______    ______ _________
0                                  27630  3           *    command line.
 0038AE 58F0 BAE0            00AE0 27631  3                          L     R15,CPVCURR         Cursor's row
 0038B2 49F0 BB4C/4770_      00B4C 27632  3                          IF    (R15,EQ,CPVCMDR),'MVC CPVCURS,PWASCURS'  Restore curs
 0038C0 94BF 6000      00000       27655  3                          CLEAR PWAFSCMD
 0038C4                            27662  2                        END
                                   27666  2
 0038C4 47F0 707A            0309A 27667  2                        B     PAGMLOOP            Don't execute command yet
 0038C8                            27668  1                      END
                                   27672  1
 0038C8 4110 B242/4800_      00242 27673  1                      SETMSG CPCMD,LH:CPCMDLEN
 0038D0 58E0 79E4/0DEE       03A04 27686  1                      VCALL RTRIM
 0038D6 1200/4780 707A             27690  1                      IF    (R0,Z),PAGMLOOP     Blank command line, forget it
                                   27707  1
 0038DC 9610 B477      00477       27708  1                      SET   CPFTYPED            It's a typed command
 0038E0 4110 B242/4800_      00242 27714  1                      SETMSG CPCMD,LH:CPCMDLEN
 0038E8 58E0 79E8/0DEE       03A08 27727  1                      VCALL EDTCOM              Execute new command (no return)
 0038EE                            27731                       END
                                   27735
 0038EE 47F0 707A            0309A 27736                       B     PAGMLOOP            Stay a while
                                   27737
 0038F2 58E0 79EC/0DEE       03A0C 27738              PAGMERR  ACALL PAGERES             Force user out of page mode
 0038F8 4110 7A85/4100_      03AA5 27742                       ABORT 'Terminal type is not supported.'
                                   27749
 003904 1BFF                       27750              PAGMEXIT CLEAR R15                 Assume ok
 003906 9140 BACE/47E0_00ACE       27755                       IF    CPVFBRK,'LA R15,4'
 003912 18D8/9808 D004_            27776                       PEND
 DROP   *,R7
                                   27796
                                   27797                       QLTORG
1PAGE     (PAGE2193) (12:50) (15MAR04) Page Editor Manager                                                                  Page   90
0Current Usings:  (PWA,R6) (CP,R11) (CV,R12)
0Loc    Object Code    Addr1 Addr2  Stmt Lv Lineno    Source Statement           (Hibal 5, Asmedit 3.3)  HLASM R4.0  2004/03/15 12.50
+___    ______ ____    _____ _____  ____ __ ______    ______ _________
0                                  27899              ¿þþþþþþþþþþþþþþþþþþþþþþþþþþþþþþþþþþþþþþþþþþþþþþþþþþþþþþþþþþþþþþþþþþþþþÜ
                                   27900              Ÿ                                                                     Ÿ
                                   27901              Ÿ  FMTPAGE -- Local routine to format the fields on the page.         Ÿ
                                   27902              Ÿ                                                                     Ÿ
                                                      ¾þþþþþþþþþþþþþþþþþþþþþþþþþþþþþþþþþþþþþþþþþþþþþþþþþþþþþþþþþþþþþþþþþþþþþ»
0003AD0 50E0 D000/9008_      00000 27903              FMTPAGE  PROC
 USING  *,R7
 003AEA 9120 BAC9/47E0_00AC9       27942                       IF    ~CPVFFMT,FPAGEXIT   Format all fields...
                                   27960                       ¿þþþþþþþþþþþþþþþþþþþþþþþþþþþþþþþþþþþþþþþþþþþþþþÜ
                                   27961                       Ÿ  Clear all special locations, if necessary.  Ÿ
                                   27962                       ¾þþþþþþþþþþþþþþþþþþþþþþþþþþþþþþþþþþþþþþþþþþþþþþ»
 003AF2 9180 BAC9/4710_00AC9       27963                       IF    ~CPVFCLR,BEGIN      (Not necessary if clear)...
 003AFA 5810 7C06/4100_      046F0 27978  1                      TSEG  L:=A($CLRFMT),L'$CLRFMT  Clear all points
 003B0C                            28006                       END
                                   28010
 003B0C D701 6004 6004_00004 00004 28011                       CLEAR PWAOROW,PWAOWIND    Reset (for loop below)
                                   28023
 003B18 4130 0001            00001 28024                       LA    R3,1
 003B1C 5840 BB60            00B60 28025                       L     R4,CPLINTP
 003B20 4930 BAD4/4730_      00AD4 28026                       WHILE (R3,LE,CPVHEI),BEGIN  Go through lines...
 USING  LINT,R4                    28045  1                      USING LINT,R4
                                   28054  1
 003B28 4850 4002/1255       00002 28055  1                      LTH   R5,LINTWIND
 003B2E 4770 704C/4850_      03B36 28059  1                      IF    Z,'LH R5,CPVWCUR'
 003B36 4C50 7C8A            04774 28076  1                      MH    R5,=AL2(L'WIND)
 003B3A 5A50 BB5C            00B5C 28077  1                      A     R5,CPXWIND
 USING  WIND,R5                    28078  1                      USING WIND,R5
                                   28087  1                      ¿þþþþþþþþþþþþþþþþþþþþþþþþþþþþþþþþþþþþÜ
                                   28088  1                      Ÿ  Set trigger row between windows.  Ÿ
                                   28089  1                      ¾þþþþþþþþþþþþþþþþþþþþþþþþþþþþþþþþþþþþ»
 003B3E D501 7C8C BAD8_04776 00AD8 28090  1                      IF    (CPVWCNT,GT,1),BEGIN  Set trig row between windows...
 003B48 4930 5008/4770_      00008 28108  2                        IF    (R3,NE,WINDLROW),EXIT  Not the last row, scram
 003B50 1803/4110 0001_            28128  2                        TCURS (R3),1
 003B5C 5810 7C12/4100_      046FC 28146  2                        TSEG  L:=A($SETTROW),L'$SETTROW
 003B6E                            28174  1                      END
                                   28178  1                      ¿þþþþþþþþþþþþþþþþþþþþþþþþþþþþþþþþþÜ
                                   28179  1                      Ÿ  Set the fields for this line.  Ÿ
                                   28180  1                      ¾þþþþþþþþþþþþþþþþþþþþþþþþþþþþþþþþþ»
 003B6E 58E0 7C16/0DEE       04700 28181  1                      ACALL FMTLINE             Define this line's fields
                                   28185  1
 003B74 4140 4014            00014 28186  1                      LA    R4,LINTNEXT
 003B78 4130 3001            00001 28187  1                      LA    R3,@R3+1
 003B7C 47F0 7036            03B20 28188                       END
                                   28193                       ¿þþþþþþþþþþþþþþþþþþþþþþþÜ
                                   28194                       Ÿ  End the last field.  Ÿ
                                   28195                       ¾þþþþþþþþþþþþþþþþþþþþþþþ»
 003B80 4100 0001/4110_      00001 28196                       TCURS 1,1                 Prev position is end of buffer
 003B8E 5810 7C1A/4100_      04704 28216                       TSEG  L:=A($FEND),L'$FEND  End of field
1PAGE     (PAGE2193) (12:50) (15MAR04) Page Editor Manager                                                                  Page   91
0Current Usings:  (LINT,R4) (WIND,R5) (PWA,R6) (*,R7) (CP,R11) (CV,R12)
0Loc    Object Code    Addr1 Addr2  Stmt Lv Lineno    Source Statement           (Hibal 5, Asmedit 3.3)  HLASM R4.0  2004/03/15 12.50
+___    ______ ____    _____ _____  ____ __ ______    ______ _________
0                                  28244                       ¿þþþþþþþþþþþþþþþþþþþþþþþþþþþþþþþþþþþþþþþþþþþþþþþþÜ
                                   28245                       Ÿ  Process any final duplicate fields (if any).  Ÿ
                                   28246                       ¾þþþþþþþþþþþþþþþþþþþþþþþþþþþþþþþþþþþþþþþþþþþþþþþþ»
 003BA0 D601 6004 6004_00004 00004 28247                       IF    (PWAOROW,NZ),BEGIN  Pending duplicates...
 003BAA D501 6004 BAD4_00004 00AD4 28263  1                      IF    (PWAOROW,GE,CPVHEI),EXIT  No duplicates, scram
 003BB4 5810 7C1E/4100_      04708 28284  1                      TSEG  L:=A($LCSI),L'$LCSI
 003BC6 4810 6004/1B00_      00004 28312  1                      TNUM  LH:PWAOROW          First row (original line's row)
 003BD6 4110 7C94/4100_      0477E 28333  1                      TSEG  ';'
 003BE8 4810 BAD4/1B00_      00AD4 28351  1                      TNUM  LH:CPVHEI           Last duplicate row
 003BF8 4110 7C95/4100_      0477F 28372  1                      TSEG  'z'                 Duplicate field attributes
 003C0A                            28390                       END
                                   28394
 003C0A 18D8/9808 D004_            28395              FPAGEXIT PEND
 DROP   *,R7
1PAGE     (PAGE2193) (12:50) (15MAR04) Page Editor Manager                                                                  Page   92
0Current Usings:  (LINT,R4) (WIND,R5) (PWA,R6) (CP,R11) (CV,R12)
0Loc    Object Code    Addr1 Addr2  Stmt Lv Lineno    Source Statement           (Hibal 5, Asmedit 3.3)  HLASM R4.0  2004/03/15 12.50
+___    ______ ____    _____ _____  ____ __ ______    ______ _________
0                                  28417              ¿þþþþþþþþþþþþþþþþþþþþþþþþþþþþþþþþþþþþþþþþþþþþþþþþþþþþþþþþþþþþþþþþþþþþþÜ
                                   28418              Ÿ                                                                     Ÿ
                                   28419              Ÿ  FMTLINE -- Local routine to define the fields in a line.           Ÿ
                                   28420              Ÿ                                                                     Ÿ
                                   28421              Ÿ    On entry:                                                        Ÿ
                                   28422              Ÿ      R6 - PWA ptr                                                   Ÿ
                                   28423              Ÿ      R5 - WIND ptr                                                  Ÿ
                                   28424              Ÿ      R4 - LINT ptr                                                  Ÿ
                                   28425              Ÿ                                                                     Ÿ
                                                      ¾þþþþþþþþþþþþþþþþþþþþþþþþþþþþþþþþþþþþþþþþþþþþþþþþþþþþþþþþþþþþþþþþþþþþþ»
0003C18 50E0 D000/9008_      00000 28426              FMTLINE  PROC
 USING  *,R7
 003C32 41F0 B050/58E0_      00050 28465                       TMARK
                                   28479
 003C3C 58E0 7AE2/0DEE       04714 28480                       ACALL FMTDUP              Process duplicate line
 003C42 4780 708C            03CBE 28484                       IF    NZ,BEGIN            Not a duplicate...
 003C46 4800 4000/4110_      00000 28495  1                      TCURS LH:LINTROW,1        Position to line row, 1st col
                                   28512  1
 003C54 9180 BACB/47E0_00ACB       28513  1                      IF    CPVFVTAM,'ACALL FMTVTAM'  Do special VTAM formatting
                                   28537  1
 003C62 9500 400C/4770_0000C       28538  1                      IF    LINFFREE,'ACALL FMTFREE'
 003C70 9501 400C/4780_0000C       28562  1                      IF    (LINFNEW,OR,LINFTEXT),'ACALL FMTTEXT'
 003C86 9504 400C/4770_0000C       28600  1                      IF    LINFCMD,'ACALL FMTCMD'
 003C94 9505 400C/4770_0000C       28624  1                      IF    LINFMSG,'ACALL FMTMSG'
 003CA2 9503 400C/4770_0000C       28648  1                      IF    LINFCOL,'ACALL FMTCOL'
 003CB0 9506 400C/4770_0000C       28672  1                      IF    LINFSTAT,'ACALL FMTSTAT'
 003CBE                            28696                       END
                                   28700
 003CBE 18D8/9808 D004_            28701                       PEND
 DROP   *,R7
1PAGE     (PAGE2193) (12:50) (15MAR04) Page Editor Manager                                                                  Page   93
0Current Usings:  (LINT,R4) (WIND,R5) (PWA,R6) (CP,R11) (CV,R12)
0Loc    Object Code    Addr1 Addr2  Stmt Lv Lineno    Source Statement           (Hibal 5, Asmedit 3.3)  HLASM R4.0  2004/03/15 12.50
+___    ______ ____    _____ _____  ____ __ ______    ______ _________
0                                  28722              ¿þþþþþþþþþþþþþþþþþþþþþþþþþþþþþþþþþþþþþþþþþþþþþþþþþþþþþþþþþþþþþþþþþþþþþÜ
                                   28723              Ÿ                                                                     Ÿ
                                   28724              Ÿ  FMTVTAM -- Local routine to do special VTAM preparations before    Ÿ
                                   28725              Ÿ    defining the field.  This routine is only called for VTAM        Ÿ
                                   28726              Ÿ    terminals.                                                       Ÿ
                                   28727              Ÿ                                                                     Ÿ
                                                      ¾þþþþþþþþþþþþþþþþþþþþþþþþþþþþþþþþþþþþþþþþþþþþþþþþþþþþþþþþþþþþþþþþþþþþþ»
0003CCC 50E0 D000/9008_      00000 28728              FMTVTAM  PROC
 USING  *,R7
 003CE6 41F0 0104            00104 28767                       LA    R15,TTYBACK-TTYPE
 003CEA 9501 400C/4780_0000C       28768                       IF    (LINFNEW,OR,LINFTEXT),'LA R15,TTYNEW-TTYPE'
 003CFE 9504 400C/4770_0000C       28803                       IF    LINFCMD,'LA R15,TTYCMD-TTYPE'
 003D0A 9505 400C/4770_0000C       28824                       IF    LINFMSG,'LA R15,TTYMSG-TTYPE'
 003D16 9503 400C/4770_0000C       28845                       IF    LINFCOL,'LA R15,TTYCOL-TTYPE'
 003D22 9506 400C/4770_0000C       28866                       IF    LINFSTAT,'LA R15,TTYSTAT-TTYPE'
 003D2E 58E0 7A4E/0DEE       04734 28887                       TREND
 003D34 18D8/9808 D004_            28893                       PEND
 DROP   *,R7
1PAGE     (PAGE2193) (12:50) (15MAR04) Page Editor Manager                                                                  Page   94
0Current Usings:  (LINT,R4) (WIND,R5) (PWA,R6) (CP,R11) (CV,R12)
0Loc    Object Code    Addr1 Addr2  Stmt Lv Lineno    Source Statement           (Hibal 5, Asmedit 3.3)  HLASM R4.0  2004/03/15 12.50
+___    ______ ____    _____ _____  ____ __ ______    ______ _________
0                                  28914              ¿þþþþþþþþþþþþþþþþþþþþþþþþþþþþþþþþþþþþþþþþþþþþþþþþþþþþþþþþþþþþþþþþþþþþþÜ
                                   28915              Ÿ                                                                     Ÿ
                                   28916              Ÿ  FMTFREE -- Local routine to define the fields in a free line.      Ÿ
                                   28917              Ÿ                                                                     Ÿ
                                   28918              Ÿ    On entry:                                                        Ÿ
                                   28919              Ÿ      R6 - PWA ptr                                                   Ÿ
                                   28920              Ÿ      R5 - WIND ptr                                                  Ÿ
                                   28921              Ÿ      R4 - LINT ptr                                                  Ÿ
                                   28922              Ÿ                                                                     Ÿ
                                                      ¾þþþþþþþþþþþþþþþþþþþþþþþþþþþþþþþþþþþþþþþþþþþþþþþþþþþþþþþþþþþþþþþþþþþþþ»
0003D42 50E0 D000/9008_      00000 28923              FMTFREE  PROC
 USING  *,R7
 003D5C 5810 79DC/4100_      04738 28962                       TSEG  L:=A($FPROT),L'$FPROT  Protected field
 003D6E 18D8/9808 D004_            28990                       PEND
 DROP   *,R7
1PAGE     (PAGE2193) (12:50) (15MAR04) Page Editor Manager                                                                  Page   95
0Current Usings:  (LINT,R4) (WIND,R5) (PWA,R6) (CP,R11) (CV,R12)
0Loc    Object Code    Addr1 Addr2  Stmt Lv Lineno    Source Statement           (Hibal 5, Asmedit 3.3)  HLASM R4.0  2004/03/15 12.50
+___    ______ ____    _____ _____  ____ __ ______    ______ _________
0                                  29011              ¿þþþþþþþþþþþþþþþþþþþþþþþþþþþþþþþþþþþþþþþþþþþþþþþþþþþþþþþþþþþþþþþþþþþþþÜ
                                   29012              Ÿ                                                                     Ÿ
                                   29013              Ÿ  FMTTEXT -- Local routine to define the fields in a text line.      Ÿ
                                   29014              Ÿ                                                                     Ÿ
                                   29015              Ÿ    On entry:                                                        Ÿ
                                   29016              Ÿ      R6 - PWA ptr                                                   Ÿ
                                   29017              Ÿ      R5 - WIND ptr                                                  Ÿ
                                   29018              Ÿ      R4 - LINT ptr                                                  Ÿ
                                   29019              Ÿ                                                                     Ÿ
                                                      ¾þþþþþþþþþþþþþþþþþþþþþþþþþþþþþþþþþþþþþþþþþþþþþþþþþþþþþþþþþþþþþþþþþþþþþ»
0003D7C 50E0 D000/9008_      00000 29020              FMTTEXT  PROC
 USING  *,R7
                                   29059                       ¿þþþþþþþþþþþþþþþþþþþþþþþþþþþþþþþþþþþþþþþþþþþþþþþþþþÜ
                                   29060                       Ÿ  Define line-number field as protected,skipped.  Ÿ
                                   29061                       ¾þþþþþþþþþþþþþþþþþþþþþþþþþþþþþþþþþþþþþþþþþþþþþþþþþþ»
 003D96 9120 5000/4710_00000       29062                       IF    ~WINFUNN,BEGIN      Define lineno as protected...
 003D9E 5810 79A6/4100_      0473C 29077  1                      TSEG  L:=A($FPROTS),L'$FPROTS  Skipped field for lineno
 003DB0 4800 4000/4110_      00000 29105  1                      TCURS LH:LINTROW,12
 003DBE                            29122                       END
                                   29126                   ¿þþþþþþþþþþþþþþþþþþþþþþþþþþþþþþþþþþþþþþþþþþþþþþþþþþþþþþþþþþþþþþþþþþþÜ
                                   29127                   Ÿ  Define text field as unprotected if Active file is unprotected.  Ÿ
                                   29128                   ¾þþþþþþþþþþþþþþþþþþþþþþþþþþþþþþþþþþþþþþþþþþþþþþþþþþþþþþþþþþþþþþþþþþþ»
 003DBE 1B22                       29129                       CLEAR R2                  Assume unprotected
                                   29133
 003DC0 D503 5014 B57C_00014 0057C 29134                       IF    (WINDACT,EQ,CPACTNO),BEGIN  Current Active...
 003DCA 9140 B5C3/47E0_005C3       29152  1                      IF    CPAFPRT,'LA R2,1'   Active is protected
 003DD6                            29173                       END
                                   29177
 003DD6 7044/47F0 7068 03DD6 03DC8 29178                       ELSE  BEGIN               Check another Active...
 003DDA 181D/41D0 D1A8             29189  1                      XPUSH ,,L'AINFO,PTR=R1
 USING  AINFO,R1                   29192  1                      WITH  (AINFO,R1)
 003DE0 58F0 5014            00014 29205  1                      L     R15,WINDACT
 003DE4 58E0 79AA/0DEE       04740 29206  1                      VCALL ACTGINFO            Get this Active's AINFO
 003DEA 4770 7064            03DFA 29210  1                      IF    Z,BEGIN             Got it...
 003DEE 9140 103B/47E0_0003B       29221  2                        IF    AINAFPRT,'LA R2,1'  It's protected
 003DFA                            29242  1                      END
 003DFA 4BD0 79E2            04778 29246  1                      XPOP  ,,L'AINFO
 DROP   AINFO,R1                   29248                       END
                                   29257
 003DFE 9104 BACA/47E0_00ACA       29258                       IF    CPVFFORMAT,'LA R2,1'  It's read-only
                                   29279
 003E0A 5810 79AE/4100_      04744 29280                       SETMSG L:=A($FUNPROT),L'$FUNPROT
 003E12 1222/4780 708A_            29294                       IF    (R2,NZ),'SETMSG L:=A($FPROT),L"$FPROT'
 003E20 41F0 B050/58E0_      00050 29327                       TSEG  (R1),(R0)
                                   29351                       ¿þþþþþþþþþþþþþþþþþþþþþþþþþþþþþþÜ
                                   29352                       Ÿ  Set tab stops in the line.  Ÿ
                                   29353                       ¾þþþþþþþþþþþþþþþþþþþþþþþþþþþþþþ»
 003E2A 4130 5030            00030 29354                       LA    R3,WINDTABS
 003E2E 4120 0010            00010 29355                       LA    R2,L'WINDTABS
 003E32                            29356                       LOOP  BEGIN               Set appropriate tabs...
 003E32 1F11/4310 3000             29362  1                      LC    R1,@R3              Tab position
 003E38 1211/4780 70E2             29369  1                      IF    (R1,Z),EXIT         No more tabs, scram
 003E3E 4B10 500E            0000E 29386  1                      SH    R1,WINDFCOL         Adjust for displayable columns
1PAGE     (PAGE2193) (12:50) (15MAR04) Page Editor Manager                                                                  Page   96
0Current Usings:  (LINT,R4) (WIND,R5) (PWA,R6) (*,R7) (CP,R11) (CV,R12)
0Loc    Object Code    Addr1 Addr2  Stmt Lv Lineno    Source Statement           (Hibal 5, Asmedit 3.3)  HLASM R4.0  2004/03/15 12.50
+___    ______ ____    _____ _____  ____ __ ______    ______ _________
0003E42 47D0 70D2            03E68 29387  1                      IF    POS,BEGIN           Within cols being displayed...
 003E46 4A10 500A            0000A 29398  2                        AH    R1,WINDTCOL         Convert to cursor pos
 003E4A 0610                       29399  2                        DECR  R1                  Cursor column
 003E4C 4800 4000/58E0_      00000 29401  2                        TCURS LH:LINTROW,(R1)
 003E56 5810 79B2/4100_      04748 29415  2                        TSEG  L:=A($SETTAB),L'$SETTAB  Set tab stop
 003E68                            29443  1                      END
                                   29447  1
 003E68 4130 3001            00001 29448  1                      LA    R3,@R3+1
 003E6C 0620                       29449  1                      DECR  R2
 003E6E 1222/4780 70E2             29451  1                      UNTIL (R2,Z)
 003E74 47F0 709C            03E32 29469                       END
                                   29474                       ¿þþþþþþþþþþþþþþþþþþþþþþþþþþþþþþþþþþþþþþþþþÜ
                                   29475                       Ÿ  Set a trigger point if wordwrap mode.  Ÿ
                                   29476                       ¾þþþþþþþþþþþþþþþþþþþþþþþþþþþþþþþþþþþþþþþþþ»
 003E78 9110 5000/47E0_00000       29477                       IF    WINFWRAP,BEGIN      Wordwrap mode...
 003E80 4810 5012            00012 29492  1                      LH    R1,WINDMARG         Right margin
 003E84 4B10 500E            0000E 29493  1                      SH    R1,WINDFCOL         Relative to cols displayed
 003E88 47D0 7116            03EAC 29494  1                      IF    NP,EXIT             Not visible, scram
 003E8C 4A10 500A            0000A 29508  1                      AH    R1,WINDTCOL         Calc cursor column
 003E90 4800 4000/58E0_      00000 29509  1                      TCURS LH:LINTROW,(R1)
 003E9A 5810 79B6/4100_      0474C 29523  1                      TSEG  L:=A($SETTRIG),L'$SETTRIG  Set trigger point
 003EAC                            29551                       END
                                   29555                       ¿þþþþþþþþþþþþþþþþþþþþþþþþþþþþþþþþþþþþþþþþþþþþþþþþþþþþþþþþþþþþþþþÜ
                                   29556                       Ÿ  If the window is unnumbered then define a one character      Ÿ
                                   29557                       Ÿ  protected field at the very end of the line.  This prevents  Ÿ
                                   29558                       Ÿ   a user from accidently doing a cursor left on "line+1" and  Ÿ
                                   29559                       Ÿ    ending up at the last possible character of "line".        Ÿ
                                   29560                       ¾þþþþþþþþþþþþþþþþþþþþþþþþþþþþþþþþþþþþþþþþþþþþþþþþþþþþþþþþþþþþþþþ»
 003EAC 9120 5000/47E0_00000       29561                       IF    WINFUNN,BEGIN       Unnumbered window...
 003EB4 9180 BACB/4710_00ACB       29576  1                      IF    CPVFVTAM,EXIT       Not needed for VTAM, scram
 003EBC 4800 4000/4810_      00000 29594  1                      TCURS LH:LINTROW,LH:WINDTLEN
 003ECA 5810 79A6/4100_      0473C 29608  1                      TSEG  L:=A($FPROTS),L'$FPROTS
 003EDC 4110 79EA/4100_      04780 29636  1                      TSEG  '!'                 (Never displayed)
 003EEE                            29654                       END
                                   29658                       ¿þþþþþþþþþþþþþþþþþþþþþþþþþþþþþþþþþþþþþþþþþþþþþþþþþþþþþþþÜ
                                   29659                       Ÿ  Save row and window information for duplicate check  Ÿ
                                   29660                       Ÿ    (see FMTDUP).                                      Ÿ
                                   29661                       ¾þþþþþþþþþþþþþþþþþþþþþþþþþþþþþþþþþþþþþþþþþþþþþþþþþþþþþþþ»
 003EEE D201 6004 4000 00004 00000 29662                       MVC   PWAOROW,LINTROW     Save "old" row
 003EF4 D201 6006 4002 00006 00002 29663                       MVC   PWAOWIND,LINTWIND   Save "old" window number
 003EFA 18D8/9808 D004_            29664                       PEND
 DROP   *,R7
1PAGE     (PAGE2193) (12:50) (15MAR04) Page Editor Manager                                                                  Page   97
0Current Usings:  (LINT,R4) (WIND,R5) (PWA,R6) (CP,R11) (CV,R12)
0Loc    Object Code    Addr1 Addr2  Stmt Lv Lineno    Source Statement           (Hibal 5, Asmedit 3.3)  HLASM R4.0  2004/03/15 12.50
+___    ______ ____    _____ _____  ____ __ ______    ______ _________
0                                  29685              ¿þþþþþþþþþþþþþþþþþþþþþþþþþþþþþþþþþþþþþþþþþþþþþþþþþþþþþþþþþþþþþþþþþþþþþÜ
                                   29686              Ÿ                                                                     Ÿ
                                   29687              Ÿ  FMTDUP -- Local routine to process defining the fields for         Ÿ
                                   29688              Ÿ    duplicate text lines.                                            Ÿ
                                   29689              Ÿ                                                                     Ÿ
                                   29690              Ÿ    This routine takes advantage of a special model terminal         Ÿ
                                   29691              Ÿ    sequence which duplicates the field definitions when multiple    Ÿ
                                   29692              Ÿ    lines have exactly the same definitions.  This greatly reduces   Ÿ
                                   29693              Ÿ    the number of definitions we have to sent.                       Ÿ
                                   29694              Ÿ                                                                     Ÿ
                                   29695              Ÿ    On entry:                                                        Ÿ
                                   29696              Ÿ      R6 - PWA ptr                                                   Ÿ
                                   29697              Ÿ      R5 - WIND ptr                                                  Ÿ
                                   29698              Ÿ      R4 - LINT ptr                                                  Ÿ
                                   29699              Ÿ                                                                     Ÿ
                                   29700              Ÿ    On exit, R15 (and cc):                                           Ÿ
                                   29701              Ÿ      0 - line was processed (line is a duplicate of previous)       Ÿ
                                   29702              Ÿ      4 - can't process line                                         Ÿ
                                   29703              Ÿ                                                                     Ÿ
                                                      ¾þþþþþþþþþþþþþþþþþþþþþþþþþþþþþþþþþþþþþþþþþþþþþþþþþþþþþþþþþþþþþþþþþþþþþ»
0003F08 50E0 D000/9008_      00000 29704              FMTDUP   PROC
 USING  *,R7
 003F22 4130 0004            00004 29743                       LA    R3,4                Assume not a duplicate
                                   29744
 003F26 D601 6004 6004_00004 00004 29745                       IF    (PWAOROW,NZ),BEGIN  We have a prev text line...
 003F30 9180 BACB/4710_00ACB       29761  1                      IF    CPVFVTAM,EXIT       VTAM can't do this, scram
                                   29779  1
 003F38 D501 4002 6006_00002 00006 29780  1                      IF    (LINTWIND,EQ,PWAOWIND),BEGIN  Same window...
 003F42 9501 400C/4780_0000C       29798  2                        IF    (~LINFNEW,AND,~LINFTEXT),EXIT  Not a text line, scram
 003F52 1B33                       29830  2                        CLEAR R3                  This line is a duplicate
 003F54 47F0 70C8            03FEA 29834  2                        B     FDUPEXIT
 003F58                            29835  1                      END
                                   29839  1
 003F58 4820 4000            00000 29840  1                      LH    R2,LINTROW          Current row
 003F5C 0620                       29841  1                      DECR  R2                  Last duplicate line
 003F5E 4920 6004/47D0_      00004 29843  1                      IF    (R2,GT,PWAOROW),BEGIN  Multiple lines...
 003F66 4100 0001            00001 29860  2                        LA    R0,1
 003F6A 4A00 6004            00004 29861  2                        AH    R0,PWAOROW
 003F6E 4110 0001/58E0_      00001 29862  2                        TCURS (R0),1              Line after original
 003F78 5810 77E2/4100_      04704 29879  2                        TSEG  L:=A($FEND),L'$FEND  End that line
                                   29907  2
 003F8A 5810 77E6/4100_      04708 29908  2                        TSEG  L:=A($LCSI),L'$LCSI
 003F9C 4810 6004/1B00_      00004 29936  2                        TNUM  LH:PWAOROW          First row (original line's row)
 003FAC 4110 785C/4100_      0477E 29957  2                        TSEG  ';'
 003FBE 1812/1B00/41F0_            29975  2                        TNUM  (R2)                Last duplicate row
 003FCC 4110 785D/4100_      0477F 29997  2                        TSEG  'z'                 Duplicate field attributes
 003FDE                            30015  1                      END
                                   30019  1
 003FDE D701 6004 6004_00004 00004 30020  1                      CLEAR PWAOROW,PWAOWIND    Reset
 003FEA                            30032                       END
                                   30036
 003FEA 18F3                       30037              FDUPEXIT LR    R15,R3              Set return code
 003FEC 18D8/9808 D004_            30038                       PEND
1PAGE     (PAGE2193) (12:50) (15MAR04) Page Editor Manager                                                                  Page   98
0Current Usings:  (LINT,R4) (WIND,R5) (PWA,R6) (CP,R11) (CV,R12)
0Loc    Object Code    Addr1 Addr2  Stmt Lv Lineno    Source Statement           (Hibal 5, Asmedit 3.3)  HLASM R4.0  2004/03/15 12.50
+___    ______ ____    _____ _____  ____ __ ______    ______ _________
0DROP   *,R7
1PAGE     (PAGE2193) (12:50) (15MAR04) Page Editor Manager                                                                  Page   99
0Current Usings:  (LINT,R4) (WIND,R5) (PWA,R6) (CP,R11) (CV,R12)
0Loc    Object Code    Addr1 Addr2  Stmt Lv Lineno    Source Statement           (Hibal 5, Asmedit 3.3)  HLASM R4.0  2004/03/15 12.50
+___    ______ ____    _____ _____  ____ __ ______    ______ _________
0                                  30059              ¿þþþþþþþþþþþþþþþþþþþþþþþþþþþþþþþþþþþþþþþþþþþþþþþþþþþþþþþþþþþþþþþþþþþþþÜ
                                   30060              Ÿ                                                                     Ÿ
                                   30061              Ÿ  FMTCMD -- Local routine to define the fields in a command line.    Ÿ
                                   30062              Ÿ                                                                     Ÿ
                                   30063              Ÿ    On entry:                                                        Ÿ
                                   30064              Ÿ      R6 - PWA ptr                                                   Ÿ
                                   30065              Ÿ      R5 - WIND ptr                                                  Ÿ
                                   30066              Ÿ      R4 - LINT ptr                                                  Ÿ
                                   30067              Ÿ                                                                     Ÿ
                                                      ¾þþþþþþþþþþþþþþþþþþþþþþþþþþþþþþþþþþþþþþþþþþþþþþþþþþþþþþþþþþþþþþþþþþþþþ»
0003FFA 50E0 D000/9008_      00000 30068              FMTCMD   PROC
 USING  *,R7
 004014 5810 7728/4100_      0473C 30107                       TSEG  L:=A($FPROTS),L'$FPROTS  Command prompt is protected
 004026 4800 4000/4110_      00000 30135                       TCURS LH:LINTROW,12
                                   30152
 004034 5810 7730/4100_      04744 30153                       TSEG  L:=A($FUNPROT),L'$FUNPROT  Command input is unprot
 004046 5810 773C/4100_      04750 30181                       TSEG  L:=A($SETHOME),L'$SETHOME
 004058 5810 7734/4100_      04748 30209                       TSEG  L:=A($SETTAB),L'$SETTAB
                                   30237                       ¿þþþþþþþþþþþþþþþþþþþþþþþþþþþþþþþþþþþþþþþþþþþþþþþþþþþþÜ
                                   30238                       Ÿ  Set tab stops every 8 positions on command line.  Ÿ
                                   30239                       ¾þþþþþþþþþþþþþþþþþþþþþþþþþþþþþþþþþþþþþþþþþþþþþþþþþþþþ»
 00406A 4120 0014            00014 30240                       LA    R2,12+8             First tab stop position
 00406E 4920 BAD2/4730_      00AD2 30241                       WHILE (R2,LE,CPVWID),BEGIN  Set tab stops...
 004076 4800 4000/1812_      00000 30260  1                      TCURS LH:LINTROW,(R2)
 004082 5810 7734/4100_      04748 30275  1                      TSEG  L:=A($SETTAB),L'$SETTAB
 004094 4120 2008            00008 30303  1                      LA    R2,@R2+8
 004098 47F0 705A            0406E 30304                       END
                                   30309
 00409C 18D8/9808 D004_            30310                       PEND
 DROP   *,R7
1PAGE     (PAGE2193) (12:50) (15MAR04) Page Editor Manager                                                                  Page  100
0Current Usings:  (LINT,R4) (WIND,R5) (PWA,R6) (CP,R11) (CV,R12)
0Loc    Object Code    Addr1 Addr2  Stmt Lv Lineno    Source Statement           (Hibal 5, Asmedit 3.3)  HLASM R4.0  2004/03/15 12.50
+___    ______ ____    _____ _____  ____ __ ______    ______ _________
0                                  30331              ¿þþþþþþþþþþþþþþþþþþþþþþþþþþþþþþþþþþþþþþþþþþþþþþþþþþþþþþþþþþþþþþþþþþþþþÜ
                                   30332              Ÿ                                                                     Ÿ
                                   30333              Ÿ  FMTMSG -- Local routine to define the fields in a message line.    Ÿ
                                   30334              Ÿ                                                                     Ÿ
                                   30335              Ÿ    On entry:                                                        Ÿ
                                   30336              Ÿ      R6 - PWA ptr                                                   Ÿ
                                   30337              Ÿ      R5 - WIND ptr                                                  Ÿ
                                   30338              Ÿ      R4 - LINT ptr                                                  Ÿ
                                   30339              Ÿ                                                                     Ÿ
                                                      ¾þþþþþþþþþþþþþþþþþþþþþþþþþþþþþþþþþþþþþþþþþþþþþþþþþþþþþþþþþþþþþþþþþþþþþ»
00040AA 50E0 D000/9008_      00000 30340              FMTMSG   PROC
 USING  *,R7
 0040C4 5810 7678/4100_      0473C 30379                       TSEG  L:=A($FPROTS),L'$FPROTS  Protected and skipped
 0040D6 18D8/9808 D004_            30407                       PEND
 DROP   *,R7
1PAGE     (PAGE2193) (12:50) (15MAR04) Page Editor Manager                                                                  Page  101
0Current Usings:  (LINT,R4) (WIND,R5) (PWA,R6) (CP,R11) (CV,R12)
0Loc    Object Code    Addr1 Addr2  Stmt Lv Lineno    Source Statement           (Hibal 5, Asmedit 3.3)  HLASM R4.0  2004/03/15 12.50
+___    ______ ____    _____ _____  ____ __ ______    ______ _________
0                                  30428              ¿þþþþþþþþþþþþþþþþþþþþþþþþþþþþþþþþþþþþþþþþþþþþþþþþþþþþþþþþþþþþþþþþþþþþþÜ
                                   30429              Ÿ                                                                     Ÿ
                                   30430              Ÿ  FMTCOL -- Local routine to define the fields in a column line.     Ÿ
                                   30431              Ÿ                                                                     Ÿ
                                   30432              Ÿ    On entry:                                                        Ÿ
                                   30433              Ÿ      R6 - PWA ptr                                                   Ÿ
                                   30434              Ÿ      R5 - WIND ptr                                                  Ÿ
                                   30435              Ÿ      R4 - LINT ptr                                                  Ÿ
                                   30436              Ÿ                                                                     Ÿ
                                                      ¾þþþþþþþþþþþþþþþþþþþþþþþþþþþþþþþþþþþþþþþþþþþþþþþþþþþþþþþþþþþþþþþþþþþþþ»
00040E4 50E0 D000/9008_      00000 30437              FMTCOL   PROC
 USING  *,R7
                                   30476                       ¿þþþþþþþþþþþþþþþþþþþþþþþþþþþþþþþþþþþþþþþþþþþþþþþþþþþþþÜ
                                   30477                       Ÿ  Define line-number area as protected and skipped.  Ÿ
                                   30478                       ¾þþþþþþþþþþþþþþþþþþþþþþþþþþþþþþþþþþþþþþþþþþþþþþþþþþþþþ»
 0040FE 9120 5000/4710_00000       30479                       IF    ~WINFUNN,BEGIN      Define lineno as protected...
 004106 5810 763E/4100_      0473C 30494  1                      TSEG  L:=A($FPROTS),L'$FPROTS  Skipped field for lineno
 004118 4800 4000/4110_      00000 30522  1                      TCURS LH:LINTROW,12
 004126                            30539                       END
                                   30543                       ¿þþþþþþþþþþþþþþþþþþþþþþþþþþþþþþþþþþþþþþþþþþþþþþþþþþþþþþÜ
                                   30544                       Ÿ  Define column text as protected (but not skipped).  Ÿ
                                   30545                       ¾þþþþþþþþþþþþþþþþþþþþþþþþþþþþþþþþþþþþþþþþþþþþþþþþþþþþþþ»
 004126 5810 763A/4100_      04738 30546                       TSEG  L:=A($FPROT),L'$FPROT  Column line is protected
 004138 18D8/9808 D004_            30574                       PEND
 DROP   *,R7
1PAGE     (PAGE2193) (12:50) (15MAR04) Page Editor Manager                                                                  Page  102
0Current Usings:  (LINT,R4) (WIND,R5) (PWA,R6) (CP,R11) (CV,R12)
0Loc    Object Code    Addr1 Addr2  Stmt Lv Lineno    Source Statement           (Hibal 5, Asmedit 3.3)  HLASM R4.0  2004/03/15 12.50
+___    ______ ____    _____ _____  ____ __ ______    ______ _________
0                                  30595              ¿þþþþþþþþþþþþþþþþþþþþþþþþþþþþþþþþþþþþþþþþþþþþþþþþþþþþþþþþþþþþþþþþþþþþþÜ
                                   30596              Ÿ                                                                     Ÿ
                                   30597              Ÿ  FMTSTAT -- Local routine to define the fields in a status line.    Ÿ
                                   30598              Ÿ                                                                     Ÿ
                                   30599              Ÿ    On entry:                                                        Ÿ
                                   30600              Ÿ      R6 - PWA ptr                                                   Ÿ
                                   30601              Ÿ      R5 - WIND ptr                                                  Ÿ
                                   30602              Ÿ      R4 - LINT ptr                                                  Ÿ
                                   30603              Ÿ                                                                     Ÿ
                                                      ¾þþþþþþþþþþþþþþþþþþþþþþþþþþþþþþþþþþþþþþþþþþþþþþþþþþþþþþþþþþþþþþþþþþþþþ»
0004146 50E0 D000/9008_      00000 30604              FMTSTAT  PROC
 USING  *,R7
 004160 5810 75D8/4100_      04738 30643                       SETMSG L:=A($FPROT),L'$FPROT  Status line is protected
 004168 D501 7616 4000_04776 00000 30657                       IF    (LINTROW,EQ,1),BEGIN  Status line on first row...
 004172 5810 75DC/4100_      0473C 30675  1                      SETMSG L:=A($FPROTS),L'$FPROTS  Make it prot and skip
 00417A                            30689                       END
 00417A 41F0 B050/58E0_      00050 30693                       TSEG  (R1),(R0)
 004184 18D8/9808 D004_            30717                       PEND
 DROP   *,R7
                                   30737
 DROP   LINT,R4                    30738                       DROP  LINT,WIND
 DROP   WIND,R5
1PAGE     (PAGE2193) (12:50) (15MAR04) Page Editor Manager                                                                  Page  103
0Current Usings:  (PWA,R6) (CP,R11) (CV,R12)
0Loc    Object Code    Addr1 Addr2  Stmt Lv Lineno    Source Statement           (Hibal 5, Asmedit 3.3)  HLASM R4.0  2004/03/15 12.50
+___    ______ ____    _____ _____  ____ __ ______    ______ _________
0                                  30754              ¿þþþþþþþþþþþþþþþþþþþþþþþþþþþþþþþþþþþþþþþþþþþþþþþþþþþþþþþþþþþþþþþþþþþþþÜ
                                   30755              Ÿ                                                                     Ÿ
                                   30756              Ÿ  OUTPAGE -- Local routine to rewrite any changed lines on           Ÿ
                                   30757              Ÿ    the page.                                                        Ÿ
                                   30758              Ÿ                                                                     Ÿ
                                                      ¾þþþþþþþþþþþþþþþþþþþþþþþþþþþþþþþþþþþþþþþþþþþþþþþþþþþþþþþþþþþþþþþþþþþþþ»
0004192 50E0 D000/9008_      00000 30759              OUTPAGE  PROC
 USING  *,R7
                                   30798                       ¿þþþþþþþþþþþþþþþþþþþþþþþþþþþþþþþþþþþþþþþþþþþþþÜ
                                   30799                       Ÿ  Count any file changes as one change now.  Ÿ
                                   30800                       ¾þþþþþþþþþþþþþþþþþþþþþþþþþþþþþþþþþþþþþþþþþþþþþ»
 0041AC 9110 BAC8/47E0_00AC8       30801                       IF    CPVFCH,BEGIN        File changes have occurred...
 0041B4 4100 0001/5E00_      00001 30816  1                      INCR  R0,CPACHCT          Count the change
 0041C0 94EF BAC8      00AC8       30822  1                      CLEAR CPVFCH
 0041C4                            30829                       END
                                   30833                       ¿þþþþþþþþþþþþþþþþþþþþþþþþþþþþþþþþþþþþþþþþþþþþþþþþþþþþþþþþÜ
                                   30834                       Ÿ  First try to scroll lines to accomidate the changes.  Ÿ
                                   30835                       ¾þþþþþþþþþþþþþþþþþþþþþþþþþþþþþþþþþþþþþþþþþþþþþþþþþþþþþþþþ»
 0041C4 58E0 75A8/0DEE       04754 30836                       ACALL OUTSCRL             Do any scrolling
                                   30840                       ¿þþþþþþþþþþþþþþþþþþþþþþþþþþþþÜ
                                   30841                       Ÿ  Write any changed lines.  Ÿ
                                   30842                       ¾þþþþþþþþþþþþþþþþþþþþþþþþþþþþ»
 0041CA D201 6002 75CE 00002 0477A 30843                       MVC   PWACROW,=H'1'
 0041D0 D707 6008 6008 00008 00008 30844                       CLEAR PWAROWS             Initialize top, bottom, cmd rows
 0041D6 5840 BB60            00B60 30851                       L     R4,CPLINTP
 0041DA D501 6002 BAD4_00002 00AD4 30852                       WHILE (PWACROW,LE,CPVHEI),BEGIN  Go through lines...
 USING  LINT,R4                    30872  1                      WITH  (LINT,R4)
 0041E4 4110 4000            00000 30885  1                      LA    R1,LINT
 0041E8 58E0 75AC/0DEE       04758 30886  1                      ACALL OUTLINE             Write line if it has changed
                                   30890  1
 0041EE 4140 4014            00014 30891  1                      LA    R4,LINTNEXT
 0041F2 41F0 0001/4AF0_      00001 30892  1                      INCR  R15,PWACROW
 0041FE 47F0 702E            041DA 30898                       END
 DROP   LINT,R4
                                   30908                       ¿þþþþþþþþþþþþþþþþþþþþþþþþþþþþþþÜ
                                   30909                       Ÿ  Set top and bottom points.  Ÿ
                                   30910                       ¾þþþþþþþþþþþþþþþþþþþþþþþþþþþþþþ»
 004202 D601 6008 6008_00008 00008 30911                       IF    (PWATOPR,Z),BEGIN   No top/bottom points...
 00420C D201 6008 600C 00008 0000C 30927  1                      MVC   PWATOPR,PWAFNEWR    Make top the first new line
 004212 D201 600A 600E 0000A 0000E 30928  1                      MVC   PWABOTR,PWALNEWR    Make bottom the last new line
 004218                            30929                       END
                                   30933
 004218 D601 6008 6008_00008 00008 30934                       IF    (PWATOPR,NZ),BEGIN  Set top/bottom points...
 004222 4850 BAD6            00AD6 30950  1                      LH    R5,CPVWCUR
 004226 4C50 75C8            04774 30951  1                      MH    R5,=AL2(L'WIND)
 00422A 5A50 BB5C            00B5C 30952  1                      A     R5,CPXWIND          Default window
 USING  WIND,R5                    30953  1                      WITH  (WIND,R5)
                                   30966  1
 00422E 4800 6008/4810_      00008 30967  1                      TCURS LH:PWATOPR,LH:WINDTCOL
 00423C 5810 75B0/4100_      0475C 30981  1                      TSEG  L:=A($SETTOP),L'$SETTOP  Set top point
                                   31009  1
 00424E 4800 600A/4810_      0000A 31010  1                      TCURS LH:PWABOTR,LH:WINDTCOL
 00425C 5810 75B4/4100_      04760 31024  1                      TSEG  L:=A($SETBOT),L'$SETBOT  Set bottom point
1PAGE     (PAGE2193) (12:50) (15MAR04) Page Editor Manager                                                                  Page  104
0Current Usings:  (PWA,R6) (*,R7) (CP,R11) (CV,R12)
0Loc    Object Code    Addr1 Addr2  Stmt Lv Lineno    Source Statement           (Hibal 5, Asmedit 3.3)  HLASM R4.0  2004/03/15 12.50
+___    ______ ____    _____ _____  ____ __ ______    ______ _________
0DROP   WIND,R5                    31052                       END
                                   31061
 00426E 18D8/9808 D004_            31062                       PEND
 DROP   *,R7
1PAGE     (PAGE2193) (12:50) (15MAR04) Page Editor Manager                                                                  Page  105
0Current Usings:  (PWA,R6) (CP,R11) (CV,R12)
0Loc    Object Code    Addr1 Addr2  Stmt Lv Lineno    Source Statement           (Hibal 5, Asmedit 3.3)  HLASM R4.0  2004/03/15 12.50
+___    ______ ____    _____ _____  ____ __ ______    ______ _________
0                                  31083              ¿þþþþþþþþþþþþþþþþþþþþþþþþþþþþþþþþþþþþþþþþþþþþþþþþþþþþþþþþþþþþþþþþþþþþþÜ
                                   31084              Ÿ                                                                     Ÿ
                                   31085              Ÿ  OUTSCRL -- Local routine to scroll any lines that have moved       Ÿ
                                   31086              Ÿ    up or down since the last rewrite.                               Ÿ
                                   31087              Ÿ                                                                     Ÿ
                                                      ¾þþþþþþþþþþþþþþþþþþþþþþþþþþþþþþþþþþþþþþþþþþþþþþþþþþþþþþþþþþþþþþþþþþþþþ»
0000000                00000 00054 31088              OUTSWA   RECORD BEGIN
 000000 00                         31096  1           OUTSFLAG   FLAG
 OUTSFLAG.OUTSFUP  80 ONES         31100  1                      FLAG  OUTSFUP             - Something to scroll up
 OUTSFLAG.OUTSFDWN 40 ONES         31105  1                      FLAG  OUTSFDWN            - Something to scroll down
 OUTSFLAG.OUTSFRGN 20 ONES         31110  1                      FLAG  OUTSFRGN            - Scrolling region is set
                                   31115  1
 000002                            31116  1           OUTSCNT    DS    H                   Working scroll up/down count
                                   31117  1
 000004                            31118  1           OUTSMAP    DS    XL(LINTMAX#)        Scroll row map
 000054                00054 00054 31119                       END
                                   31128              þþþþ
 00427C 50E0 D000/9008_      00000 31129              OUTSCRL  PROC  OUTSWA
 USING  *,R7
 USING  OUTSWA-(4+36),R8
 004296 D753 8028 8028 00000 00000 31179                       CLEAR OUTSWA
                                   31186
 00429C 9140 BAC9/4710_00AC9       31187                       IF    CPVFREWR,OUTSFIN    No previous lines, scram
                                   31205
 0042A4 58F0 B468/12FF       00468 31206                       LT    R15,CPTTYPEP
 0042AA 4780 7020            042B6 31210                       IF    NZ,BEGIN
 USING  TTYPE,R15                  31221  1                      WITH  (TTYPE,R15)
 0042AE 9118 F005/4780_00005       31234  1                      IF    (TTYFSCR+TTYFQSCR,Z),OUTSFIN  Terminal can't scroll
 DROP   TTYPE,R15                  31257                       END
                                   31266                  ¿þþþþþþþþþþþþþþþþþþþþþþþþþþþþþþþþþþþþþþþþþþþþþþþþþþþþþþþþþþþþþþþþþþþþÜ
                                   31267                  Ÿ  Compare new line-numbers to the current line-numbers on the page  Ÿ
                                   31268                  Ÿ         building a table of what has scrolled.                     Ÿ
                                   31269                  ¾þþþþþþþþþþþþþþþþþþþþþþþþþþþþþþþþþþþþþþþþþþþþþþþþþþþþþþþþþþþþþþþþþþþþ»
 0042B6 4140 0001            00001 31270                       LA    R4,1
 0042BA 5850 BB60            00B60 31271                       L     R5,CPLINTP
 0042BE 4940 BAD4/4730_      00AD4 31272                       WHILE (R4,LE,CPVHEI),BEGIN  Go through lines...
 USING  LINT,R5                    31291  1                      WITH  (LINT,R5)
                                   31304  1
 0042C6 5810 5004/1211       00004 31305  1                      LT    R1,LINTOLNO
 0042CC 4740 707A            04310 31309  1                      IF    ~NEG,BEGIN          Currently a line-number...
 0042D0 5910 5010/4780_      00010 31320  2                        IF    (R1,EQ,LINTLNO),OUTSLNXT  Same lineno, scram
                                   31340  2
 0042D8 4800 5002/1200       00002 31341  2                        LTH   R0,LINTWIND         Window number
 0042DE 4780 707A            04310 31345  2                        IF    Z,EXIT              Special line, forget it
 0042E2 58E0 74CE/0DEE       04764 31359  2                        ACALL PAGEFIND            Find the row for the new lineno
 0042E8 4780 707A            04310 31363  2                        IF    NZ,BEGIN            Found it on the page...
 0042EC 42F4 802B            00003 31374  3                          STC   R15,OUTSMAP-1(R4)   Save the new row
 0042F0 19F4/4730 7064_            31375  3                          IF    (R15,LE,R4),'SET OUTSFUP'  Scroll up(s) needed
 0042FA 7068/47F0 706C_042FA 042F4 31401  3                          ELSE  'SET OUTSFDWN'      Scroll down(s) needed
                                   31423  3
 004302 4CF0 74E6            0477C 31424  3                          MH    R15,=AL2(L'LINT)
 004306 5AF0 BB64            00B64 31425  3                          A     R15,CPXLINT
 00430A D600 F00D 5008 0000D 00008 31426  3                          OC    LINTFLG-LINT(1,R15),LINTOFLG  Preserve line flags
1PAGE     (PAGE2193) (12:50) (15MAR04) Page Editor Manager                                                                  Page  106
0Current Usings:  (LINT,R5) (PWA,R6) (*,R7) (OUTSWA-(4+36),R8) (CP,R11) (CV,R12)
0Loc    Object Code    Addr1 Addr2  Stmt Lv Lineno    Source Statement           (Hibal 5, Asmedit 3.3)  HLASM R4.0  2004/03/15 12.50
+___    ______ ____    _____ _____  ____ __ ______    ______ _________
0004310                            31427  2                        END
 004310                            31431  1                      END
                                   31435  1
 004310 4150 5014            00014 31436  1           OUTSLNXT   LA    R5,LINTNEXT
 004314 4140 4001            00001 31437  1                      LA    R4,@R4+1
 004318 47F0 7028            042BE 31438                       END
 DROP   LINT,R5
                                   31448                       ¿þþþþþþþþþþþþþþþþþþþþþþþþþþþþÜ
                                   31449                       Ÿ  Do any scroll ups first.  Ÿ
                                   31450                       ¾þþþþþþþþþþþþþþþþþþþþþþþþþþþþ»
 00431C 9180 8028/47E0_00000       31451                       IF    OUTSFUP,BEGIN       Do scroll ups first...
 004324 4140 0001            00001 31466  1                      LA    R4,1
 004328 5850 BB60            00B60 31467  1                      L     R5,CPLINTP
 00432C 4940 BAD4/4730_      00AD4 31468  1                      WHILE (R4,LE,CPVHEI),BEGIN  Go through lines...
 USING  LINT,R5                    31487  2                        WITH  (LINT,R5)
                                   31500  2
 004334 1F33/4334 802B             31501  2                        LC    R3,OUTSMAP-1(R4)    New row for this line
 00433A 1233/4780 70F2             31508  2                        IF    (R3,NZ),BEGIN       The line has moved...
 004340 18F3                       31522  3                          LR    R15,R3
 004342 1BF4                       31523  3                          SR    R15,R4              Pos if scroll down; neg if up
 004344 47B0 70F2            04388 31524  3                          IF    ~NEG,EXIT           Not a scroll up, scram
 004348 40F0 802A            00002 31538  3                          STH   R15,OUTSCNT         Save scroll up count
                                   31539  3                          ¿þþþþþþþþþþþþþþþþþþþþþþþþþþþþþþþþþþþþþþþþþÜ
                                   31540  3                          Ÿ  Find the end of the scrolling region.  Ÿ
                                   31541  3                          ¾þþþþþþþþþþþþþþþþþþþþþþþþþþþþþþþþþþþþþþþþþ»
 00434C 1823                       31542  3                          LR    R2,R3
 00434E 4940 BAD4/47B0_      00AD4 31543  3                          WHILE (R4,LT,CPVHEI),BEGIN
 004356 4120 2001            00001 31562  4                            LA    R2,@R2+1            Expecting this as the next row
 00435A 1FFF/43F4 802C             31563  4                            LC    R15,OUTSMAP(R4)     Actual next row
 004360 192F/4770 70DC             31570  4                            IF    (R2,NE,R15),EXIT    End of scroll area, scram
                                   31588  4
 004366 4150 5014            00014 31589  4                            LA    R5,LINTNEXT
 00436A 4140 4001            00001 31590  4                            LA    R4,@R4+1
 00436E 47F0 70B8            0434E 31591  3                          END
                                   31596  3
 004372 1803                       31597  3                          LR    R0,R3               First row in scrolling region
 004374 1814                       31598  3                          LR    R1,R4               Last row in scrolling region
 004376 4120 802C            00004 31599  3                          LA    R2,OUTSMAP          Row scroll map
 00437A 48F0 802A            00002 31600  3                          LH    R15,OUTSCNT         Scroll count
 00437E 58E0 74D2/0DEE       04768 31601  3                          ACALL SCRLRGN             Scroll text
 004384 9620 8028      00000       31605  3                          SET   OUTSFRGN            A scrolling region is set
 004388                            31611  2                        END
                                   31615  2
 004388 4150 5014            00014 31616  2                        LA    R5,LINTNEXT
 00438C 4140 4001            00001 31617  2                        LA    R4,@R4+1
 004390 47F0 7096            0432C 31618  1                      END
 DROP   LINT,R5
 004394                            31628                       END
                                   31632                       ¿þþþþþþþþþþþþþþþþþþþþþþþþþþþþþþþþþþþþþþþþþþþþþþþþþþþþþþþþþþþþÜ
                                   31633                       Ÿ  Now do any scroll downs (processing rows bottom to top).  Ÿ
                                   31634                       ¾þþþþþþþþþþþþþþþþþþþþþþþþþþþþþþþþþþþþþþþþþþþþþþþþþþþþþþþþþþþþ»
 004394 9140 8028/47E0_00000       31635                       IF    OUTSFDWN,BEGIN      Do any scroll downs...
 00439C 4840 BAD4            00AD4 31650  1                      LH    R4,CPVHEI
 0043A0 1854                       31651  1                      LR    R5,R4
1PAGE     (PAGE2193) (12:50) (15MAR04) Page Editor Manager                                                                  Page  107
0Current Usings:  (PWA,R6) (*,R7) (OUTSWA-(4+36),R8) (CP,R11) (CV,R12)
0Loc    Object Code    Addr1 Addr2  Stmt Lv Lineno    Source Statement           (Hibal 5, Asmedit 3.3)  HLASM R4.0  2004/03/15 12.50
+___    ______ ____    _____ _____  ____ __ ______    ______ _________
00043A2 4C50 74E6            0477C 31652  1                      MH    R5,=AL2(L'LINT)
 0043A6 5A50 BB64            00B64 31653  1                      A     R5,CPXLINT          Last row
 0043AA 1244/47D0 7174             31654  1                      WHILE (R4,POS),BEGIN      Go through lines...
 USING  LINT,R5                    31670  2                        WITH  (LINT,R5)
                                   31683  2
 0043B0 1F33/4334 802B             31684  2                        LC    R3,OUTSMAP-1(R4)    New row for this line
 0043B6 1233/4780 716A             31691  2                        IF    (R3,NZ),BEGIN       The line has moved...
 0043BC 18F3                       31705  3                          LR    R15,R3
 0043BE 1BF4                       31706  3                          SR    R15,R4              Pos if scroll down; neg if up
 0043C0 4740 716A            04400 31707  3                          IF    NEG,EXIT            We only want scroll downs
 0043C4 40F0 802A            00002 31721  3                          STH   R15,OUTSCNT         Save scroll down count
                                   31722  3                          ¿þþþþþþþþþþþþþþþþþþþþþþþþþþþþþþþþþþþþþþþþþþþÜ
                                   31723  3                          Ÿ  Find the start of the scrolling region.  Ÿ
                                   31724  3                          ¾þþþþþþþþþþþþþþþþþþþþþþþþþþþþþþþþþþþþþþþþþþþ»
 0043C8 1823                       31725  3                          LR    R2,R3
 0043CA 5940 74D6/47D0_      0476C 31726  3                          WHILE (R4,GT,1),BEGIN
 0043D2 0620                       31745  4                            DECR  R2                  Expecting this as the prev row
 0043D4 1FFF/43F4 802A             31747  4                            LC    R15,OUTSMAP-2(R4)   Actual previous row
 0043DA 192F/4770 7154             31754  4                            IF    (R2,NE,R15),EXIT    Start of scroll area, scram
                                   31772  4
 0043E0 4B50 74E6            0477C 31773  4                            SH    R5,=AL2(L'LINT)     Previous line
 0043E4 0640                       31774  4                            DECR  R4
 0043E6 47F0 7134            043CA 31776  3                          END
                                   31781  3
 0043EA 1804                       31782  3                          LR    R0,R4               First row in scrolling region
 0043EC 1813                       31783  3                          LR    R1,R3               Last row in scrolling region
 0043EE 4120 802C            00004 31784  3                          LA    R2,OUTSMAP          Row scroll map
 0043F2 48F0 802A            00002 31785  3                          LH    R15,OUTSCNT         Scroll count
 0043F6 58E0 74D2/0DEE       04768 31786  3                          ACALL SCRLRGN             Scroll text
 0043FC 9620 8028      00000       31790  3                          SET   OUTSFRGN            A scrolling region is set
 004400                            31796  2                        END
                                   31800  2
 004400 4B50 74E6            0477C 31801  2                        SH    R5,=AL2(L'LINT)
 004404 0640                       31802  2                        DECR  R4
 004406 47F0 7114            043AA 31804  1                      END
 DROP   LINT,R5
 00440A                            31814                       END
                                   31818                       ¿þþþþþþþþþþþþþþþþþþþþþþþþþþþþþþþÜ
                                   31819                       Ÿ  Reset any scrolling region.  Ÿ
                                   31820                       ¾þþþþþþþþþþþþþþþþþþþþþþþþþþþþþþþ»
 00440A 9120 8028/47E0_00000       31821                       IF    OUTSFRGN,BEGIN      A region is set...
 004412 5810 74DA/4100_      04770 31836  1                      TSEG  L:=A($CSI),L'$CSI
 004424 4110 74EB/4100_      04781 31864  1                      TSEG  'r'
 004436                            31882                       END
                                   31886
 004436 18D8/9808 D004_            31887              OUTSFIN  PEND
 DROP   OUTSWA-(4+36),R8
 DROP   *,R7
1PAGE     (PAGE2193) (12:50) (15MAR04) Page Editor Manager                                                                  Page  108
0Current Usings:  (PWA,R6) (CP,R11) (CV,R12)
0Loc    Object Code    Addr1 Addr2  Stmt Lv Lineno    Source Statement           (Hibal 5, Asmedit 3.3)  HLASM R4.0  2004/03/15 12.50
+___    ______ ____    _____ _____  ____ __ ______    ______ _________
0                                  31914              ¿þþþþþþþþþþþþþþþþþþþþþþþþþþþþþþþþþþþþþþþþþþþþþþþþþþþþþþþþþþþþþþþþþþþþþÜ
                                   31915              Ÿ                                                                     Ÿ
                                   31916              Ÿ  SCRLRGN -- Routine to scroll a region of text up or down           Ÿ
                                   31917              Ÿ    the specified number of lines.                                   Ÿ
                                   31918              Ÿ                                                                     Ÿ
                                   31919              Ÿ    On entry:                                                        Ÿ
                                   31920              Ÿ      R0 - first row                                                 Ÿ
                                   31921              Ÿ      R1 - last row                                                  Ÿ
                                   31922              Ÿ      R2 - row scroll map ptr                                        Ÿ
                                   31923              Ÿ      R15 - amount to scroll (positive scrolls down;                 Ÿ
                                   31924              Ÿ                              negative scrolls up)                   Ÿ
                                   31925              Ÿ                                                                     Ÿ
                                                      ¾þþþþþþþþþþþþþþþþþþþþþþþþþþþþþþþþþþþþþþþþþþþþþþþþþþþþþþþþþþþþþþþþþþþþþ»
0000000                00000 00008 31926              SCRLWA   RECORD BEGIN
 000000                            31934  1           SCRLFROW   DS    H                   First row in scrolling region
 000002                            31935  1           SCRLLROW   DS    H                   Last row in scrolling region
 000004                            31936  1           SCRLCNT    DS    H                   Scroll count
 000006                            31937  1           SCRLWCNT   DS    H                   Working scroll count
 000008                00008 00008 31938                       END
                                   31947              þþþþ
 004444 50E0 D000/9008_      00000 31948              SCRLRGN  PROC  SCRLWA
 USING  *,R7
 USING  SCRLWA-(4+36),R8
 00445E 4000 8028            00000 31998                       STH   R0,SCRLFROW         First row
 004462 4010 802A            00002 31999                       STH   R1,SCRLLROW         Last row
 004466 40F0 802C            00004 32000                       STH   R15,SCRLCNT         Scroll up/down count
                                   32001
 00446A 0620                       32002                       DECR  R2
 00446C 1852                       32004                       LR    R5,R2               Save map ptr for later
                                   32005                       ¿þþþþþþþþþþþþþþþþþþþþþþþþþþþþþþþþþþþþþþþþþþþþþþþþþþþþÜ
                                   32006                       Ÿ  Don't scroll in a window that will be rewritten.  Ÿ
                                   32007                       ¾þþþþþþþþþþþþþþþþþþþþþþþþþþþþþþþþþþþþþþþþþþþþþþþþþþþþ»
 00446E 58F0 B468/12FF       00468 32008                       LT    R15,CPTTYPEP
 004474 4780 7048            044A6 32012                       IF    NZ,BEGIN
 USING  TTYPE,R15                  32023  1                      WITH  (TTYPE,R15)
 004478 9108 F005/4710_00005       32036  1                      IF    TTYFQSCR,EXIT       Terminal can quick scroll, scram
                                   32054  1
 004480 48F0 8028            00000 32055  1                      LH    R15,SCRLFROW
 004484 4CF0 731E            0477C 32056  1                      MH    R15,=AL2(L'LINT)
 004488 5AF0 BB64            00B64 32057  1                      A     R15,CPXLINT
 00448C 4810 F002            00002 32058  1                      WITH  (LINT,R15),'LH R1,LINTWIND'
 DROP   TTYPE,R15
 USING  LINT,R15
 DROP   LINT,R15
 USING  TTYPE,R15
 004490 1211/4780 7048             32092  1                      IF    (R1,NZ),BEGIN
 004496 4C10 7316            04774 32106  2                        MH    R1,=AL2(L'WIND)
 00449A 5A10 BB5C            00B5C 32107  2                        A     R1,CPXWIND
 USING  WIND,R1                    32108  2                        WITH  (WIND,R1)
                                   32121  2
 00449E 9180 1000/4710_00000       32122  2                        IF    WINFREWR,SCRLEXIT   Don't scroll if window rewrite
 DROP   WIND,R1                    32140  1                      END
 DROP   TTYPE,R15                  32149                       END
1PAGE     (PAGE2193) (12:50) (15MAR04) Page Editor Manager                                                                  Page  109
0Current Usings:  (PWA,R6) (*,R7) (SCRLWA-(4+36),R8) (CP,R11) (CV,R12)
0Loc    Object Code    Addr1 Addr2  Stmt Lv Lineno    Source Statement           (Hibal 5, Asmedit 3.3)  HLASM R4.0  2004/03/15 12.50
+___    ______ ____    _____ _____  ____ __ ______    ______ _________
0                                  32158                       ¿þþþþþþþþþþþþþþþþþþþþþÜ
                                   32159                       Ÿ  Do the scrolling.  Ÿ
                                   32160                       ¾þþþþþþþþþþþþþþþþþþþþþ»
 0044A6 5810 7312/4100_      04770 32161                       TSEG  L:=A($CSI),L'$CSI
 0044B8 4810 8028/1B00_      00000 32189                       TNUM  LH:SCRLFROW         First row
 0044C8 4110 7320/4100_      0477E 32210                       TSEG  ';'
 0044DA 4810 802A/1B00_      00002 32228                       TNUM  LH:SCRLLROW         Last row
 0044EA 4110 7323/4100_      04781 32249                       TSEG  'r'                 Set scrolling region
                                   32267                       ¿þþþþþþþþþþþþþþþþþþþþþþþþþþþþþþþþþþþÜ
                                   32268                       Ÿ  Scroll all at once if possible.  Ÿ
                                   32269                       ¾þþþþþþþþþþþþþþþþþþþþþþþþþþþþþþþþþþþ»
 0044FC 58F0 B468/12FF       00468 32270                       LT    R15,CPTTYPEP
 004502 9108 F005      00005       32274                       WITH  (TTYPE,R15),'TM TTYFQSCR,L"TTYFQSCR'
 USING  TTYPE,R15
 DROP   TTYPE,R15
 004506 4780 70F0            0454E 32298                       IF    NZ,BEGIN            Scroll all at once...
 00450A 5810 72AA/4100_      04708 32309  1                      TSEG  L:=A($LCSI),L'$LCSI
 00451C 4830 802C            00004 32337  1                      LH    R3,SCRLCNT          Scroll count
 004520 1013                       32338  1                      LPR   R1,R3
 004522 1B00/41F0 B050_            32339  1                      TNUM  (R1)                Number of lines to scroll
 00452E 4110 7324/4100_      04782 32360  1                      SETMSG 'D'                 Assume down
 004536 1233/47B0 70E6_            32364  1                      IF    (R3,NEG),'SETMSG "U"'
 004544 41F0 B050/58E0_      00050 32387  1                      TSEG  (R1),(R0)
 00454E                            32411                       END
                                   32415                       ¿þþþþþþþþþþþþþþþþþþþþþþþþþþþþþþÜ
                                   32416                       Ÿ  Scroll one line at a time.  Ÿ
                                   32417                       ¾þþþþþþþþþþþþþþþþþþþþþþþþþþþþþþ»
 00454E 70F4/47F0 71D0 0454E 04508 32418                       ELSE  BEGIN               Scroll one line at a time...
 004552 48F0 802C            00004 32429  1                      LH    R15,SCRLCNT         Scroll up/down count
 004556 40F0 802E            00006 32430  1                      STH   R15,SCRLWCNT        Save working scroll count
                                   32431  1
 00455A 12FF/47B0 716C             32432  1                      IF    (R15,NEG),BEGIN     Scroll up...
 004560 10FF                       32446  2                        LPR   R15,R15
 004562 40F0 802E            00006 32447  2                        STH   R15,SCRLWCNT        Convert to unsigned scroll count
 004566 D201 6002 802A 00002 00002 32448  2                        MVC   PWACROW,SCRLLROW    Put new lines here
                                   32449  2
 00456C 4830 802A            00002 32450  2                        LH    R3,SCRLLROW
 004570 48F0 802E            00006 32451  2                        LH    R15,SCRLWCNT
 004574 06F0                       32452  2                        DECR  R15
 004576 1B3F                       32454  2                        SR    R3,R15
 004578 1843                       32455  2                        LR    R4,R3
 00457A 4C40 731E            0477C 32456  2                        MH    R4,=AL2(L'LINT)
 00457E 5A40 BB64            00B64 32457  2                        A     R4,CPXLINT          New lines start here
                                   32458  2
 004582                            32459  2                        LOOP  BEGIN
 USING  LINT,R4                    32465  3                          WITH  (LINT,R4)
 004582 5810 72AA/4100_      04708 32478  3                          TSEG  L:=A($LCSI),L'$LCSI
 004594 4110 7325/4100_      04783 32506  3                          TSEG  'U'
                                   32524  3
 0045A6 1814                       32525  3                          LR    R1,R4
 0045A8 58E0 72FA/0DEE       04758 32526  3                          ACALL OUTLINE             Write the new line
                                   32530  3
 0045AE 4140 4014            00014 32531  3                          LA    R4,LINTNEXT
 0045B2 4130 3001            00001 32532  3                          LA    R3,@R3+1
1PAGE     (PAGE2193) (12:50) (15MAR04) Page Editor Manager                                                                  Page  110
0Current Usings:  (LINT,R4) (PWA,R6) (*,R7) (SCRLWA-(4+36),R8) (CP,R11) (CV,R12)
0Loc    Object Code    Addr1 Addr2  Stmt Lv Lineno    Source Statement           (Hibal 5, Asmedit 3.3)  HLASM R4.0  2004/03/15 12.50
+___    ______ ____    _____ _____  ____ __ ______    ______ _________
00045B6 48F0 802E/06F0_      00006 32533  3                          DECR  R15,SCRLWCNT
 0045C0 12FF/47D0 716C             32538  3                          UNTIL (R15,NP)
 0045C6 47F0 7124            04582 32556  2                        END
 DROP   LINT,R4
 0045CA                            32566  1                      END
                                   32570  1
 0045CA 7170/47F0 71D0 045CA 0455E 32571  1                      ELSE  BEGIN               Scroll down...
 0045CE D201 6002 8028 00002 00000 32582  2                        MVC   PWACROW,SCRLFROW    Put new lines here
                                   32583  2
 0045D4 4830 802E            00006 32584  2                        LH    R3,SCRLWCNT
 0045D8 0630                       32585  2                        DECR  R3
 0045DA 4A30 8028            00000 32587  2                        AH    R3,SCRLFROW
 0045DE 1843                       32588  2                        LR    R4,R3
 0045E0 4C40 731E            0477C 32589  2                        MH    R4,=AL2(L'LINT)
 0045E4 5A40 BB64            00B64 32590  2                        A     R4,CPXLINT          New lines start here
                                   32591  2
 0045E8                            32592  2                        LOOP  BEGIN
 USING  LINT,R4                    32598  3                          WITH  (LINT,R4)
 0045E8 5810 72AA/4100_      04708 32611  3                          TSEG  L:=A($LCSI),L'$LCSI
 0045FA 4110 7324/4100_      04782 32639  3                          TSEG  'D'
                                   32657  3
 00460C 1814                       32658  3                          LR    R1,R4
 00460E 58E0 72FA/0DEE       04758 32659  3                          ACALL OUTLINE             Write the new line
                                   32663  3
 004614 4B40 731E            0477C 32664  3                          SH    R4,=AL2(L'LINT)
 004618 0630                       32665  3                          DECR  R3
 00461A 48F0 802E/06F0_      00006 32667  3                          DECR  R15,SCRLWCNT
 004624 12FF/47D0 71D0             32672  3                          UNTIL (R15,NP)
 00462A 47F0 718A            045E8 32690  2                        END
 DROP   LINT,R4
 00462E                            32700  1                      END
 00462E                            32704                       END
                                   32708                       ¿þþþþþþþþþþþþþþþþþþþþþþþþþþþþþþþþþþþþþþþþþþþþþþþþþþþþþþþþþþþþþþþÜ
                                   32709                       Ÿ  Since we have scrolled the lines the old line-number field   Ÿ
                                   32710                       Ÿ    needs to be set to the current line-number (otherwise the  Ÿ
                                   32711                       Ÿ    line would be rewritten unnecessarily).                    Ÿ
                                   32712                       ¾þþþþþþþþþþþþþþþþþþþþþþþþþþþþþþþþþþþþþþþþþþþþþþþþþþþþþþþþþþþþþþþ»
 00462E 4820 802C            00004 32713                       LH    R2,SCRLCNT          Signed scroll count
 004632 4830 8028            00000 32714                       LH    R3,SCRLFROW
 004636 1843                       32715                       LR    R4,R3
 004638 4C40 731E            0477C 32716                       MH    R4,=AL2(L'LINT)
 00463C 5A40 BB64            00B64 32717                       A     R4,CPXLINT
                                   32718
 004640 4153 5000            00000 32719                       LA    R5,@R5(R3)          Map ptr for the lines
                                   32720                       ¿þþþþþþþþþþþþþþþþþþþþþþþþþþþþþþþþþþþÜ
                                   32721                       Ÿ  Post-process scroll down lines.  Ÿ
                                   32722                       ¾þþþþþþþþþþþþþþþþþþþþþþþþþþþþþþþþþþþ»
 004644 1222/47D0 7232             32723                       IF    (R2,POS),BEGIN      Scroll down...
 00464A 4930 802A/4730_      00002 32737  1                      WHILE (R3,LE,SCRLLROW),BEGIN  Go through lines...
 USING  LINT,R4                    32756  2                        WITH  (LINT,R4)
                                   32769  2
 004652 1222/47D0 7200             32770  2                        IF    (R2,POS),BEGIN      Lines which were blanked...
 004658 9680 400D      0000D       32784  3                          SET   LINFREWR            Rewrite this line
 00465C 0620                       32790  3                          DECR  R2
1PAGE     (PAGE2193) (12:50) (15MAR04) Page Editor Manager                                                                  Page  111
0Current Usings:  (LINT,R4) (PWA,R6) (*,R7) (SCRLWA-(4+36),R8) (CP,R11) (CV,R12)
0Loc    Object Code    Addr1 Addr2  Stmt Lv Lineno    Source Statement           (Hibal 5, Asmedit 3.3)  HLASM R4.0  2004/03/15 12.50
+___    ______ ____    _____ _____  ____ __ ______    ______ _________
000465E                            32792  2                        END
                                   32796  2
 00465E 7204/47F0 721E 0465E 04656 32797  2                        ELSE  BEGIN               Lines which were scrolled...
 004662 1FFF/43F0 5000             32808  3                          LC    R15,@R5
 004668 12FF/4780 721E             32815  3                          IF    (R15,Z),EXIT        (Shouldn't happen)
 00466E 4CF0 731E            0477C 32832  3                          MH    R15,=AL2(L'LINT)
 004672 5AF0 BB64            00B64 32833  3                          A     R15,CPXLINT         New LINT ptr
 004676 D203 F004 F010 00004 00010 32834  3                          MVC   LINTOLNO-LINT(4,R15),LINTLNO-LINT(R15)  Set lineno
 00467C                            32835  2                        END
                                   32839  2
 00467C 9200 5000      00000       32840  2                        MVI   @R5,0               Unmap line now
 004680 4150 5001            00001 32841  2                        LA    R5,@R5+1            Next map entry
 004684 4140 4014            00014 32842  2                        LA    R4,LINTNEXT
 004688 4130 3001            00001 32843  2                        LA    R3,@R3+1
 00468C 47F0 71EC            0464A 32844  1                      END
 DROP   LINT,R4
 004690                            32854                       END
                                   32858                       ¿þþþþþþþþþþþþþþþþþþþþþþþþþþþþþþþþþÜ
                                   32859                       Ÿ  Post-process scroll up lines.  Ÿ
                                   32860                       ¾þþþþþþþþþþþþþþþþþþþþþþþþþþþþþþþþþ»
 004690 7236/47F0 727E 04690 04648 32861                       ELSE  BEGIN               Scroll up...
 004694 4A20 802A            00002 32872  1                      AH    R2,SCRLLROW         Last scrolled row (R2 was neg)
                                   32873  1
 004698 4930 802A/4730_      00002 32874  1                      WHILE (R3,LE,SCRLLROW),BEGIN  Go through lines...
 USING  LINT,R4                    32893  2                        WITH  (LINT,R4)
                                   32906  2
 0046A0 1932/47D0 724C             32907  2                        IF    (R3,GT,R2),BEGIN    Lines which were blanked...
 0046A6 9680 400D      0000D       32922  3                          SET   LINFREWR            Rewrite this line
 0046AA                            32928  2                        END
                                   32932  2
 0046AA 7250/47F0 726A 046AA 046A4 32933  2                        ELSE  BEGIN               Lines which were scrolled...
 0046AE 1FFF/43F0 5000             32944  3                          LC    R15,@R5
 0046B4 12FF/4780 726A             32951  3                          IF    (R15,Z),EXIT        (Shouldn't happen)
 0046BA 4CF0 731E            0477C 32968  3                          MH    R15,=AL2(L'LINT)
 0046BE 5AF0 BB64            00B64 32969  3                          A     R15,CPXLINT         New LINT ptr
 0046C2 D203 F004 F010 00004 00010 32970  3                          MVC   LINTOLNO-LINT(4,R15),LINTLNO-LINT(R15)  Set lineno
 0046C8                            32971  2                        END
                                   32975  2
 0046C8 9200 5000      00000       32976  2                        MVI   @R5,0               Unmap line now
 0046CC 4150 5001            00001 32977  2                        LA    R5,@R5+1            Next map entry
 0046D0 4140 4014            00014 32978  2                        LA    R4,LINTNEXT
 0046D4 4130 3001            00001 32979  2                        LA    R3,@R3+1
 0046D8 47F0 723A            04698 32980  1                      END
 DROP   LINT,R4
 0046DC                            32990                       END
                                   32994
 0046DC 18D8/9808 D004_            32995              SCRLEXIT PEND
 DROP   SCRLWA-(4+36),R8
 DROP   *,R7
                                   33021
                                   33022                       QLTORG
1PAGE     (PAGE2193) (12:50) (15MAR04) Page Editor Manager                                                                  Page  112
0Current Usings:  (PWA,R6) (CP,R11) (CV,R12)
0Loc    Object Code    Addr1 Addr2  Stmt Lv Lineno    Source Statement           (Hibal 5, Asmedit 3.3)  HLASM R4.0  2004/03/15 12.50
+___    ______ ____    _____ _____  ____ __ ______    ______ _________
0                                  33079              ¿þþþþþþþþþþþþþþþþþþþþþþþþþþþþþþþþþþþþþþþþþþþþþþþþþþþþþþþþþþþþþþþþþþþþþÜ
                                   33080              Ÿ                                                                     Ÿ
                                   33081              Ÿ  OUTLINE -- Local routine to rewrite a line on the page if it       Ÿ
                                   33082              Ÿ    has been changed.                                                Ÿ
                                   33083              Ÿ                                                                     Ÿ
                                   33084              Ÿ    On entry:                                                        Ÿ
                                   33085              Ÿ      R6 - PWA ptr                                                   Ÿ
                                   33086              Ÿ      R1 - LINT ptr                                                  Ÿ
                                   33087              Ÿ                                                                     Ÿ
                                                      ¾þþþþþþþþþþþþþþþþþþþþþþþþþþþþþþþþþþþþþþþþþþþþþþþþþþþþþþþþþþþþþþþþþþþþþ»
0000000                00000 00004 33088              OLINWA   RECORD BEGIN
 000000                            33096  1           OLINACT    DS    F                   Current Active file on entry
 000004                00004 00004 33097                       END
                                   33106              þþþþ
 004784 50E0 D000/9008_      00000 33107              OUTLINE  PROC  OLINWA
 USING  *,R7
 USING  OLINWA-(4+36),R8
 00479E 1841                       33157                       LR    R4,R1               LINT ptr
 USING  LINT,R4                    33158                       WITH  (LINT,R4)
 0047A0 4850 4002/1255       00002 33171                       LTH   R5,LINTWIND
 0047A6 4770 7010/4850_      047AE 33175                       IF    Z,'LH R5,CPVWCUR'
 0047AE 4C50 7A06            051A4 33192                       MH    R5,=AL2(L'WIND)
 0047B2 5A50 BB5C            00B5C 33193                       A     R5,CPXWIND
 USING  WIND,R5                    33194                       WITH  (WIND,R5)
                                   33207
 0047B6 D203 8028 B57C 00000 0057C 33208                       MVC   OLINACT,CPACTNO     Save Active file number on entry
 0047BC 58F0 5014            00014 33209                       L     R15,WINDACT         Window's Active file number
 0047C0 58E0 797A/0DEE       05118 33210                       VCALL ACTPICK             Switch into window's Active file
                                   33214                       ¿þþþþþþþþþþþþþþþþþþþþþþþþþþþþþþþþþþþþþþþþþþþþþþÜ
                                   33215                       Ÿ  Save top and bottom row numbers for later.  Ÿ
                                   33216                       ¾þþþþþþþþþþþþþþþþþþþþþþþþþþþþþþþþþþþþþþþþþþþþþþ»
 0047C6 9501 400C/4770_0000C       33217                       IF    LINFNEW,BEGIN       New line...
 0047CE D501 4002 BAD6_00002 00AD6 33232  1                      IF    (LINTWIND,NE,CPVWCUR),EXIT  Only the default window
 0047D8 D601 600C 600C_0000C 0000C 33253  1                      IF    (PWAFNEWR,Z),'MVC PWAFNEWR,PWACROW'  Save first row
 0047E8 D201 600E 6002 0000E 00002 33275  1                      MVC   PWALNEWR,PWACROW    Save last row
 0047EE                            33276                       END
                                   33280
 0047EE 9502 400C/4770_0000C       33281                       IF    LINFTEXT,BEGIN      Text line...
 0047F6 D501 4002 BAD6_00002 00AD6 33296  1                      IF    (LINTWIND,NE,CPVWCUR),EXIT  Only the default window
 004800 D601 6008 6008_00008 00008 33317  1                      IF    (PWATOPR,Z),'MVC PWATOPR,PWACROW'  Save top row
 004810 D201 600A 6002 0000A 00002 33339  1                      MVC   PWABOTR,PWACROW     Save bottom row
 004816                            33340                       END
                                   33344                  ¿þþþþþþþþþþþþþþþþþþþþþþþþþþþþþþþþþþþþþþþþþþþþþþþþþþþþþþþþþþþþþþþþþþþþÜ
                                   33345                  Ÿ  Update old line-number field now, if the line-number has changed  Ÿ
                                   33346                  Ÿ         then we must rewrite the line.                             Ÿ
                                   33347                  ¾þþþþþþþþþþþþþþþþþþþþþþþþþþþþþþþþþþþþþþþþþþþþþþþþþþþþþþþþþþþþþþþþþþþþ»
 004816 58F0 797E            0511C 33348                       L     R15,=F'-2'          Assume invalid entry
                                   33349
 00481A 9501 400C/4770_0000C       33350                       IF    LINFNEW,BEGIN
 004822 D503 7982 4010_05120 00010 33365  1                      IF    (LINTLNO,NE,-1),'L R15,=F"-1"'  New line has -1 lno
 004830                            33389                       END
                                   33393
 004830 9502 400C/4770_0000C       33394                       IF    LINFTEXT,BEGIN      Text has a line-number...
1PAGE     (PAGE2193) (12:50) (15MAR04) Page Editor Manager                                                                  Page  113
0Current Usings:  (LINT,R4) (WIND,R5) (PWA,R6) (*,R7) (OLINWA-(4+36),R8) (CP,R11) (CV,R12)
0Loc    Object Code    Addr1 Addr2  Stmt Lv Lineno    Source Statement           (Hibal 5, Asmedit 3.3)  HLASM R4.0  2004/03/15 12.50
+___    ______ ____    _____ _____  ____ __ ______    ______ _________
0004838 58F0 4010            00010 33409  1                      L     R15,LINTLNO
 00483C D503 5014 B748_00014 00748 33410  1                      IF    (WINDACT,EQ,CPBLKACT),BEGIN  Block in this Active...
 004846 59F0 B74C/4740_      0074C 33428  2                        IF    ((R15,LT,CPFBKLNO),OR,(R15,GT,CPLBKLNO)),EXIT
 004856 9108 BAC8/4710_00AC8       33464  2                        IF    CPVFHIDE,EXIT
 00485E 9680 400D      0000D       33482  2                        SET   LINFREWR            Always rewrite marked lines
 004862                            33488  1                      END
 004862                            33492                       END
                                   33496
 004862 59F0 4004/4770_      00004 33497                       IF    (R15,EQ,LINTOLNO),BEGIN  Same line-number...
 00486A D600 400D 4008 0000D 00008 33514  1                      OC    LINTFLG,LINTOFLG    Preserve line attributes
 004870                            33515                       END
 004870 70D6/47F0 70DE 04870 04868 33519                       ELSE  BEGIN               Line-number has changed...
 004874 9680 400D      0000D       33530  1                      SET   LINFREWR            We'll need to rewrite this line
 004878 50F0 4004            00004 33536  1                      ST    R15,LINTOLNO        Update old line-number
 00487C                            33537                       END
                                   33541
 00487C 9200 4008      00008       33542                       CLEAR LINTOFLG            Reset old line attributes
                                   33549                       ¿þþþþþþþþþþþþþþþþþþþþþþþþþþþþþþþþÜ
                                   33550                       Ÿ  Write the line if necessary.  Ÿ
                                   33551                       ¾þþþþþþþþþþþþþþþþþþþþþþþþþþþþþþþþ»
 004880 9140 BAC9/4710_00AC9       33552                       IF    (CPVFREWR,OR,WINFREWR,OR,LINFREWR),BEGIN  Rewrite...
 004898 41F0 B050/58E0_      00050 33593  1                      TMARK
 0048A2 4800 6002/4110_      00002 33607  1                      TCURS LH:PWACROW,1        Position to line row, 1st col
                                   33624  1
 0048B0 947F 400D      0000D       33625  1                      CLEAR LINFREWR
                                   33632  1
 0048B4 9500 400C/4770_0000C       33633  1                      IF    LINFFREE,'ACALL OUTFREE'
 0048C2 9501 400C/4770_0000C       33657  1                      IF    LINFNEW,'ACALL OUTNEW'
 0048D0 9502 400C/4770_0000C       33681  1                      IF    LINFTEXT,'ACALL OUTTEXT'
 0048DE 9503 400C/4770_0000C       33705  1                      IF    LINFCOL,'ACALL OUTCOL'
 0048EC 9504 400C/4770_0000C       33729  1                      IF    LINFCMD,'ACALL OUTCMD'
 0048FA 9505 400C/4770_0000C       33753  1                      IF    LINFMSG,'ACALL OUTMSG'
 004908 9506 400C/4770_0000C       33777  1                      IF    LINFSTAT,'ACALL OUTSTAT'
                                   33801  1
 004916 41F0 B050/58E0_      00050 33802  1                      TMARK
 004920                            33816                       END
                                   33820
 004920 58F0 8028            00000 33821                       L     R15,OLINACT
 004924 58E0 797A/0DEE       05118 33822                       VCALL ACTPICK             Restore current Active file
 00492A 18D8/9808 D004_            33826                       PEND
 DROP   WIND,R5
 DROP   LINT,R4
 DROP   OLINWA-(4+36),R8
 DROP   *,R7
1PAGE     (PAGE2193) (12:50) (15MAR04) Page Editor Manager                                                                  Page  114
0Current Usings:  (PWA,R6) (CP,R11) (CV,R12)
0Loc    Object Code    Addr1 Addr2  Stmt Lv Lineno    Source Statement           (Hibal 5, Asmedit 3.3)  HLASM R4.0  2004/03/15 12.50
+___    ______ ____    _____ _____  ____ __ ______    ______ _________
0                                  33862              ¿þþþþþþþþþþþþþþþþþþþþþþþþþþþþþþþþþþþþþþþþþþþþþþþþþþþþþþþþþþþþþþþþþþþþþÜ
                                   33863              Ÿ                                                                     Ÿ
                                   33864              Ÿ  OUTFREE -- Local routine to format a free line.                    Ÿ
                                   33865              Ÿ                                                                     Ÿ
                                   33866              Ÿ    On entry:                                                        Ÿ
                                   33867              Ÿ      R6 - PWA ptr                                                   Ÿ
                                   33868              Ÿ      R5 - current WIND ptr                                          Ÿ
                                   33869              Ÿ      R4 - current LINT ptr                                          Ÿ
                                   33870              Ÿ                                                                     Ÿ
                                                      ¾þþþþþþþþþþþþþþþþþþþþþþþþþþþþþþþþþþþþþþþþþþþþþþþþþþþþþþþþþþþþþþþþþþþþþ»
0004938 50E0 D000/9008_      00000 33871              OUTFREE  PROC
 USING  *,R7
 USING  LINT,R4                    33910                       WITH  (LINT,R4),(WIND,R5)
 USING  WIND,R5
                                   33933
 004952 41F0 0104/58E0_      00104 33934                       TREND BACK                Background rendition
 00495C 48F0 500C            0000C 33941                       LH    R15,WINDTLEN        Total text length
 004960 4AF0 500A            0000A 33942                       AH    R15,WINDTCOL
 004964 06F0                       33943                       DECR  R15                 Page width
 004966 58E0 77FE/0DEE       05150 33945                       ACALL DELTEXT             Blank entire line
 00496C 18D8/9808 D004_            33949                       PEND
 DROP   WIND,R5
 DROP   LINT,R4
 DROP   *,R7
1PAGE     (PAGE2193) (12:50) (15MAR04) Page Editor Manager                                                                  Page  115
0Current Usings:  (PWA,R6) (CP,R11) (CV,R12)
0Loc    Object Code    Addr1 Addr2  Stmt Lv Lineno    Source Statement           (Hibal 5, Asmedit 3.3)  HLASM R4.0  2004/03/15 12.50
+___    ______ ____    _____ _____  ____ __ ______    ______ _________
0                                  33980              ¿þþþþþþþþþþþþþþþþþþþþþþþþþþþþþþþþþþþþþþþþþþþþþþþþþþþþþþþþþþþþþþþþþþþþþÜ
                                   33981              Ÿ                                                                     Ÿ
                                   33982              Ÿ  OUTNEW -- Local routine to format a new text line.                 Ÿ
                                   33983              Ÿ                                                                     Ÿ
                                   33984              Ÿ    On entry:                                                        Ÿ
                                   33985              Ÿ      R6 - PWA ptr                                                   Ÿ
                                   33986              Ÿ      R5 - current WIND ptr                                          Ÿ
                                   33987              Ÿ      R4 - current LINT ptr                                          Ÿ
                                   33988              Ÿ                                                                     Ÿ
                                                      ¾þþþþþþþþþþþþþþþþþþþþþþþþþþþþþþþþþþþþþþþþþþþþþþþþþþþþþþþþþþþþþþþþþþþþþ»
000497A 50E0 D000/9008_      00000 33989              OUTNEW   PROC
 USING  *,R7
 USING  LINT,R4                    34028                       WITH  (LINT,R4),(WIND,R5)
 USING  WIND,R5
                                   34051                  ¿þþþþþþþþþþþþþþþþþþþþþþþþþþþþþþþþþþþþþþþþþþþþþþþþþþþþþþþþþþþþþþþþþþþþÜ
                                   34052                  Ÿ  Write completely blank line if there is no possible line-number.  Ÿ
                                   34053                  ¾þþþþþþþþþþþþþþþþþþþþþþþþþþþþþþþþþþþþþþþþþþþþþþþþþþþþþþþþþþþþþþþþþþþþ»
 004994 D503 778C 4010_05120 00010 34054                       IF    (LINTLNO,EQ,-1),BEGIN  No possible line-number...
 00499E 58E0 779C/0DEE       05130 34072  1                      ACALL OUTFREE             Display blank line
 0049A4 47F0 70DA            04A6E 34076  1                      B     OUTNEXIT
 0049A8                            34077                       END
                                   34081                       ¿þþþþþþþþþþþþþþþþþþþþþþþþþþþþþÜ
                                   34082                       Ÿ  Set up new line defaults.  Ÿ
                                   34083                       ¾þþþþþþþþþþþþþþþþþþþþþþþþþþþþþ»
 0049A8 41F0 0084            00084 34084                       LA    R15,TTYNEW-TTYPE
 0049AC 40F0 62F0            002F0 34085                       STH   R15,PWADEFR         Save normal rendition value
 0049B0 D2EA 6019 C4D8 00019 004D8 34086                       MVC   PWALINE,CVBLANKS    A new line is always blank
 0049B6 D7EA 6119 6119_00119 00119 34087                       CLEAR PWAREND,PWAATTR     Assume every character is normal
                                   34099                       ¿þþþþþþþþþþþþþþþþþþþþþþþþþþþþþþþþþþþþþþþþþþþþþþþþþþþþþþþþþþþþÜ
                                   34100                       Ÿ  Prepare mode pads the line with nulls instead of blanks.  Ÿ
                                   34101                       ¾þþþþþþþþþþþþþþþþþþþþþþþþþþþþþþþþþþþþþþþþþþþþþþþþþþþþþþþþþþþþ»
 0049C2 9140 400D/47E0_0000D       34102                       IF    LINFPREP,BEGIN      Prepare (nulls) mode...
 0049CA D7EA 6019 6019 00019 00019 34117  1                      CLEAR PWALINE             Set entire line to nulls
 0049D0                            34124                       END
                                   34128                       ¿þþþþþþþþþþþþþþþþþþþþþþþþþþÜ
                                   34129                       Ÿ  Write the line-number.  Ÿ
                                   34130                       ¾þþþþþþþþþþþþþþþþþþþþþþþþþþ»
 0049D0 9120 5000/4710_00000       34131                       IF    ~WINFUNN,BEGIN      Numbered...
 0049D8 41F0 00B4/58E0_      000B4 34146  1                      TREND LNEW
 0049E2 4110 7830/4100_      051C4 34153  1                      TSEG  '  New.   '         Indicate new line
                                   34171  1
 0049F4 4110 7839/4100_      051CD 34172  1                      SETMSG ' '
 0049FC 9140 400D/47E0_0000D       34176  1                      IF    LINFPREP,'SETMSG "+"'
 004A0C 41F0 B050/58E0_      00050 34200  1                      TSEG  (R1),(R0)
                                   34224  1
 004A16 9180 BACB/47E0_00ACB       34225  1                      IF    CPVFVTAM,'TCURS LH:LINTROW,12'  Skip VTAM FAC
 004A2C 709C/47F0 70AE_04A2C 04A1C 34262  1                      ELSE  'TSEG " "'
 004A42                            34296                       END
1PAGE     (PAGE2193) (12:50) (15MAR04) Page Editor Manager                                                                  Page  116
0Current Usings:  (LINT,R4) (WIND,R5) (PWA,R6) (*,R7) (CP,R11) (CV,R12)
0Loc    Object Code    Addr1 Addr2  Stmt Lv Lineno    Source Statement           (Hibal 5, Asmedit 3.3)  HLASM R4.0  2004/03/15 12.50
+___    ______ ____    _____ _____  ____ __ ______    ______ _________
0                                  34300                       ¿þþþþþþþþþþþþþþþþþþþþþþþþþþþþþþþþþþþþþþþÜ
                                   34301                       Ÿ  Write blanks for the new line text.  Ÿ
                                   34302                       ¾þþþþþþþþþþþþþþþþþþþþþþþþþþþþþþþþþþþþþþþ»
 004A42 41F0 0104/58E0_      00104 34303                       TREND BACK                Background rendition
                                   34310
 004A4C 4110 6019            00019 34311                       LA    R1,PWALINE
 004A50 4A10 500E            0000E 34312                       AH    R1,WINDFCOL         Line text ptr
 004A54 4120 6119            00119 34313                       LA    R2,PWAREND
 004A58 4A20 500E            0000E 34314                       AH    R2,WINDFCOL         Rendition ptr
 004A5C 4130 6204            00204 34315                       LA    R3,PWAATTR
 004A60 4A30 500E            0000E 34316                       AH    R3,WINDFCOL         Attribute ptr
 004A64 4800 500C            0000C 34317                       LH    R0,WINDTLEN         Line length
 004A68 58E0 77C4/0DEE       05158 34318                       ACALL DISPTEXT            Display the line
                                   34322
 004A6E 18D8/9808 D004_            34323              OUTNEXIT PEND
 DROP   WIND,R5
 DROP   LINT,R4
 DROP   *,R7
1PAGE     (PAGE2193) (12:50) (15MAR04) Page Editor Manager                                                                  Page  117
0Current Usings:  (PWA,R6) (CP,R11) (CV,R12)
0Loc    Object Code    Addr1 Addr2  Stmt Lv Lineno    Source Statement           (Hibal 5, Asmedit 3.3)  HLASM R4.0  2004/03/15 12.50
+___    ______ ____    _____ _____  ____ __ ______    ______ _________
0                                  34355              ¿þþþþþþþþþþþþþþþþþþþþþþþþþþþþþþþþþþþþþþþþþþþþþþþþþþþþþþþþþþþþþþþþþþþþþÜ
                                   34356              Ÿ                                                                     Ÿ
                                   34357              Ÿ  OUTTEXT -- Local routine to format a text line.                    Ÿ
                                   34358              Ÿ                                                                     Ÿ
                                   34359              Ÿ    On entry:                                                        Ÿ
                                   34360              Ÿ      R6 - PWA ptr                                                   Ÿ
                                   34361              Ÿ      R5 - current WIND ptr                                          Ÿ
                                   34362              Ÿ      R4 - current LINT ptr                                          Ÿ
                                   34363              Ÿ                                                                     Ÿ
                                                      ¾þþþþþþþþþþþþþþþþþþþþþþþþþþþþþþþþþþþþþþþþþþþþþþþþþþþþþþþþþþþþþþþþþþþþþ»
0000000                00000 000F9 34364              OUTTWA   RECORD BEGIN
 000000                            34372  1           OUTTWORK   DS    CL11                Working formatting area
                                   34373  1
 00000C                            34374  1           OUTLLEN    DS    H                   Working line length
                                   34375  1           OUTBUF     DS    CL(&LINESZ)         Working line area
 00000E                                   1          +OUTBUF     DS    CL(235)             Working line area
 0000F9                000F9 000F9 34376                       END
                                   34385              þþþþ
 004A7C 50E0 D000/9008_      00000 34386              OUTTEXT  PROC  OUTTWA
 USING  *,R7
 USING  OUTTWA-(4+36),R8
 USING  LINT,R4                    34436                       WITH  (LINT,R4),(WIND,R5)
 USING  WIND,R5
                                   34459                       ¿þþþþþþþþþþþþþþþþþÜ
                                   34460                       Ÿ  Get the line.  Ÿ
                                   34461                       ¾þþþþþþþþþþþþþþþþþ»
 004A96 58F0 4010            00010 34462                       L     R15,LINTLNO
 004A9A 4110 6019            00019 34463                       LA    R1,PWALINE
 004A9E 58E0 76C6/0DEE       0515C 34464                       VCALL GETLINE             Get line text
 004AA4 4000 8034            0000C 34468                       STH   R0,OUTLLEN          Save line length for later
                                   34469
 004AA8 5830 B468            00468 34470                       L     R3,CPTTYPEP
 USING  TTYPE,R3                   34471                       WITH  (TTYPE,R3),BEGIN
                                   34485  1                      ¿þþþþþþþþþþþþþþþþþþþþþþþþþþþþþþþþþþþþþþþþþþþþþþþþþþþþþþþþþþþþÜ
                                   34486  1                      Ÿ  Prepare mode pads the line with nulls instead of blanks.  Ÿ
                                   34487  1                      ¾þþþþþþþþþþþþþþþþþþþþþþþþþþþþþþþþþþþþþþþþþþþþþþþþþþþþþþþþþþþþ»
 004AAC 9140 400D/47E0_0000D       34488  1                      IF    LINFPREP,BEGIN      Prepare (nulls) mode...
 004AB4 4110 6019            00019 34503  2                        LA    R1,PWALINE
 004AB8 4A10 8034            0000C 34504  2                        AH    R1,OUTLLEN          End of line
 004ABC 41F0 00EB            000EB 34505  2                        LA    R15,&LINESZ
 004AC0 4BF0 8034            0000C 34506  2                        SH    R15,OUTLLEN         Number of chars after end
 004AC4 18E1/18FF/1B11_            34507  2                        ZOT   @R1,(R15)           Clear chars to nulls
 004ACC                            34522  1                      END
                                   34526  1                      ¿þþþþþþþþþþþþþþþþþþþþþþþþþþþþþþþþþþþþþþþþþþþþþþþþþÜ
                                   34527  1                      Ÿ  Determine the normal rendition for this line.  Ÿ
                                   34528  1                      ¾þþþþþþþþþþþþþþþþþþþþþþþþþþþþþþþþþþþþþþþþþþþþþþþþþ»
 004ACC 41F0 004C            0004C 34529  1                      LA    R15,TTYNORM-TTYPE
 004AD0 40F0 62F0            002F0 34530  1                      STH   R15,PWADEFR         Save normal rendition value
                                   34531  1
 004AD4 D7EA 6119 6119_00119 00119 34532  1                      CLEAR PWAREND,PWAATTR     Assume every character is normal
1PAGE     (PAGE2193) (12:50) (15MAR04) Page Editor Manager                                                                  Page  118
0Current Usings:  (TTYPE,R3) (LINT,R4) (WIND,R5) (PWA,R6) (*,R7) (OUTTWA-(4+36),R8) (CP,R11) (CV,R12)
0Loc    Object Code    Addr1 Addr2  Stmt Lv Lineno    Source Statement           (Hibal 5, Asmedit 3.3)  HLASM R4.0  2004/03/15 12.50
+___    ______ ____    _____ _____  ____ __ ______    ______ _________
0                                  34544  1                      ¿þþþþþþþþþþþþþþþþþþþþþþþþþþþþþþþþþþþþþþþþþþþþþþþþÜ
                                   34545  1                      Ÿ  Set the rendition for the marked characters.  Ÿ
                                   34546  1                      ¾þþþþþþþþþþþþþþþþþþþþþþþþþþþþþþþþþþþþþþþþþþþþþþþþ»
 004AE0 D503 5014 B748_00014 00748 34547  1                      IF    (WINDACT,EQ,CPBLKACT),BEGIN  Marked Active file...
 004AEA 5820 4010            00010 34565  2                        L     R2,LINTLNO
 004AEE 5920 B74C/4740_      0074C 34566  2                        IF    ((R2,LT,CPFBKLNO),OR,(R2,GT,CPLBKLNO)),EXIT
 004AFE 9108 BAC8/4710_00AC8       34602  2                        IF    CPVFHIDE,EXIT       Block is hidden, forget it
                                   34620  2
 004B06 9680 400D      0000D       34621  2                        SET   LINFREWR            Rewrite line next time
                                   34627  2
 004B0A D503 4010 B74C_00010 0074C 34628  2                        IF    (LINTLNO,EQ,CPFBKLNO),BEGIN  FBLOCK line...
 004B14 48F0 B754            00754 34646  3                          LH    R15,CPFBKCOL
 004B18 411F 6203            00203 34647  3                          LA    R1,PWAATTR-1(R15)
 004B1C 9680 1000      00000       34648  3                          SET   @R1.PWAAFBLK        Set FBLOCK point
 004B20                            34655  2                        END
                                   34659  2
 004B20 D503 4010 B750_00010 00750 34660  2                        IF    (LINTLNO,EQ,CPLBKLNO),BEGIN  LBLOCK line...
 004B2A 48F0 B756/12FF       00756 34678  3                          LTH   R15,CPLBKCOL
 004B30 4780 70A6            04B3C 34682  3                          IF    Z,EXIT
 004B34 411F 6203            00203 34696  3                          LA    R1,PWAATTR-1(R15)
 004B38 9640 1000      00000       34697  3                          SET   @R1.PWAALBLK        Set LBLOCK point
 004B3C                            34704  2                        END
                                   34708  2           *
                                   34709  2           *
 004B3C 4110 6119            00119 34710  2                        LA    R1,PWAREND
 004B40 48F0 8034            0000C 34711  2                        LH    R15,OUTLLEN         Mark the entire line
 004B44 9120 3005/47E0_00005       34712  2                        IF    TTYFMARK,'LA R15,&LINESZ'  Including trailing blanks
                                   34733  2
 004B50 D503 4010 B750_00010 00750 34734  2                        IF    (LINTLNO,EQ,CPLBKLNO),BEGIN  Last line in block...
 004B5A D601 B756 B756_00756 00756 34752  3                          IF    (CPLBKCOL,NZ),'LH R15,CPLBKCOL'  Last column is here
 004B68 70D6/47F0 70E6_04B68 04B62 34774  3                          ELSE  'LA R15,@R15+1; CEIL R15,&LINESZ'
 004B7C                            34810  2                        END
                                   34814  2
 004B7C D503 4010 B74C_00010 0074C 34815  2                        IF    (LINTLNO,EQ,CPFBKLNO),BEGIN  Start at first column...
 004B86 4A10 B754            00754 34833  3                          AH    R1,CPFBKCOL
 004B8A 0610                       34834  3                          DECR  R1
 004B8C 4BF0 B754            00754 34836  3                          SH    R15,CPFBKCOL
 004B90 41F0 F001            00001 34837  3                          LA    R15,@R15+1
 004B94                            34838  2                        END
                                   34842  2
 004B94 59F0 76CE/47B0_      05164 34843  2                        FLOOR R15,1               Always show at least one char
                                   34862  2
 004BA0 12FF/47D0 7122             34863  2                        IF    (R15,POS),BEGIN     Mark the characters...
 004BA6 9220 1000      00000       34877  3                          MVI   @R1,PWARMARK
 004BAA 06F0                       34878  3                          DECR  R15
 004BAC 06F0/12FF/4740_            34880  3                          MOVE  R15,@R1+1,@R1
 004BB8                            34918  2                        END
 004BB8                            34922  1                      END
                                   34926  1                      ¿þþþþþþþþþþþþþþþþþþþþþþþþþþþþþþþþþþþÜ
                                   34927  1                      Ÿ  Highlight any misspelled words.  Ÿ
                                   34928  1                      ¾þþþþþþþþþþþþþþþþþþþþþþþþþþþþþþþþþþþ»
 004BB8 9180 BD59/4710_00D59       34929  1                      IF    (CPLFSPEL,OR,CPVFSPEL),BEGIN  Check spelling...
 004BC8 4110 6019/4800_      00019 34958  2                        SETMSG PWALINE,LH:OUTLLEN  Line text
 004BD0 4120 6119            00119 34971  2                        LA    R2,PWAREND          Rendition buffer
1PAGE     (PAGE2193) (12:50) (15MAR04) Page Editor Manager                                                                  Page  119
0Current Usings:  (TTYPE,R3) (LINT,R4) (WIND,R5) (PWA,R6) (*,R7) (OUTTWA-(4+36),R8) (CP,R11) (CV,R12)
0Loc    Object Code    Addr1 Addr2  Stmt Lv Lineno    Source Statement           (Hibal 5, Asmedit 3.3)  HLASM R4.0  2004/03/15 12.50
+___    ______ ____    _____ _____  ____ __ ______    ______ _________
0004BD4 4130 6204            00204 34972  2                        LA    R3,PWAATTR          Attribute buffer
 004BD8 58E0 76D2/0DEE       05168 34973  2                        VCALL SPELLINE            Check spelling in this line
 004BDE 4780 7150/9680_      04BE6 34977  2                        IF    NZ,'SET LINFREWR'   Rewrite line next time
 004BE6                            34999  1                      END
 DROP   TTYPE,R3                   35003                       END
                                   35011                       ¿þþþþþþþþþþþþþþþþþþþþþþþþþþþþþþþþþþþþþþþþþÜ
                                   35012                       Ÿ  Highlight any associative range text.  Ÿ
                                   35013                       ¾þþþþþþþþþþþþþþþþþþþþþþþþþþþþþþþþþþþþþþþþþ»
 004BE6 D203 B73C 4010 0073C 00010 35014                       MVC   CPLCNO,LINTLNO      Line-number
 004BEC 4110 6019            00019 35015                       LA    R1,PWALINE          Line text
 004BF0 4120 6119            00119 35016                       LA    R2,PWAREND          Rendition buffer
 004BF4 1BFF                       35017                       CLEAR R15                 Find any match
 004BF6 58E0 76D6/0DEE       0516C 35021                       VCALL MATLINE             Highlight associative range text
 004BFC 4780 716E/9680_      04C04 35025                       IF    NZ,'SET LINFREWR'   Rewrite line next time
                                   35047                       ¿þþþþþþþþþþþþþþþþþþþþþþþþþþÜ
                                   35048                       Ÿ  Write the line-number.  Ÿ
                                   35049                       ¾þþþþþþþþþþþþþþþþþþþþþþþþþþ»
 004C04 9120 5000/4710_00000       35050                       IF    ~WINFUNN,BEGIN      Numbered...
 004C0C 5800 4010            00010 35065  1                      L     R0,LINTLNO
 004C10 58E0 76DA/0DEE       05170 35066  1                      VCALL CVEXNO              Format lineno in CPDOUB
 004C16 D20A 8028 C4D8 00000 004D8 35070  1                      MVC   OUTTWORK,CVBLANKS
 004C1C D208 8028 BC88 00000 00C88 35071  1                      MVC   OUTTWORK(9),CPDOUB
                                   35072  1
 004C22 48F0 BAD2            00AD2 35073  1                      LH    R15,CPVWID          Total DISPLAYED width
 004C26 4AF0 500E            0000E 35074  1                      AH    R15,WINDFCOL        Add in starting column-1
 004C2A 4BF0 500A            0000A 35075  1                      SH    R15,WINDTCOL        Account for space for lineno
 004C2E 41F0 F001            00001 35076  1                      LA    R15,@R15+1          Value of last column displayed
 004C32 49F0 8034/47B0_      0000C 35077  1                      IF    (OUTLLEN,GT,R15),'MVI OUTTWORK+9,C"!"'  Overflow
                                   35100  1
 004C3E 41F0 0094            00094 35101  1                      LA    R15,TTYLNORM-TTYPE
 004C42 9108 B5D5/47E0_005D5       35102  1                      IF    (CPACFPG,AND,(LINTLNO,EQ,CPACNLN)),BEGIN
 004C54 9680 400D      0000D       35134  2                        SET   LINFREWR            Line contains bold text (lineno)
 004C58 5810 B468            00468 35140  2                        L     R1,CPTTYPEP
 USING  TTYPE,R1                   35141  2                        WITH  (TTYPE,R1)
 004C5C D507 109C C4D8_0009C 004D8 35154  2                        IF    (TTYLCOL,NE,CVBLANKS),'LA R15,TTYLCOL-TTYPE'
 004C6A 926E 8031      00009       35178  2                        MVI   OUTTWORK+9,C'>'     Flag collect lineno
 DROP   TTYPE,R1                   35179  1                      END
                                   35188  1           *TEMP*   IF    LINFMARK,'LA R15,TTYLMARK-TTYPE'
 004C6E 58E0 76B6/0DEE       0514C 35189  1                      TREND
                                   35195  1
 004C74 9140 400D/47E0_0000D       35196  1                      IF    LINFPREP,'MVI OUTTWORK+9,C"+"'  Prepare (nulls) mode
                                   35217  1
 004C80 4110 8028/4100_      00000 35218  1                      TSEG  OUTTWORK,10         Line-number
                                   35248  1
 004C92 9180 BACB/47E0_00ACB       35249  1                      IF    CPVFVTAM,'TCURS LH:LINTROW,12'  Skip VTAM FAC
 004CA8 7216/47F0 7228_04CA8 04C98 35286  1                      ELSE  'TSEG " "'
 004CBE                            35320                       END
                                   35324                       ¿þþþþþþþþþþþþþþþþþþþþþþþþÜ
                                   35325                       Ÿ  Write the line text.  Ÿ
                                   35326                       ¾þþþþþþþþþþþþþþþþþþþþþþþþ»
 004CBE 41F0 0104/58E0_      00104 35327                       TREND BACK                Background rendition
1PAGE     (PAGE2193) (12:50) (15MAR04) Page Editor Manager                                                                  Page  120
0Current Usings:  (LINT,R4) (WIND,R5) (PWA,R6) (*,R7) (OUTTWA-(4+36),R8) (CP,R11) (CV,R12)
0Loc    Object Code    Addr1 Addr2  Stmt Lv Lineno    Source Statement           (Hibal 5, Asmedit 3.3)  HLASM R4.0  2004/03/15 12.50
+___    ______ ____    _____ _____  ____ __ ______    ______ _________
0                                  35334                       ¿þþþþþþþþþþþþþþþþþþþþþþþþþþþþþþþþþþþþþþþþþþþþþþþþþþþþþþþþþþþÜ
                                   35335                       Ÿ  Convert non-printing characters to "blotch" characters.  Ÿ
                                   35336                       ¾þþþþþþþþþþþþþþþþþþþþþþþþþþþþþþþþþþþþþþþþþþþþþþþþþþþþþþþþþþþ»
 004CC8 4130 6019            00019 35337                       LA    R3,PWALINE          Line text ptr
 004CCC 48F0 500C/12FF       0000C 35338                       LTH   R15,WINDTLEN
 004CD2 47D0 72A6            04D3C 35342                       IF    POS,BEGIN           Look for non-printing chars...
 004CD6 58E0 76DE/0DEE       05174 35353  1                      VCALL GTMIXTBL
 004CDC 18EF                       35357  1                      LR    R14,R15
 004CDE 48F0 500C/12FF       0000C 35358  1                      LTH   R15,WINDTLEN
 004CE4 06F0/44F0 7756_            35362  1                      DEX   R15,'TRT @R3(0),@R14'  Any non-printing chars?
 004CEA 4780 72A6            04D3C 35381  1                      IF    Z,EXIT              No, scram
                                   35395  1
 004CEE 4120 6119            00119 35396  1                      LA    R2,PWAREND          Rendition ptr
 004CF2 58E0 76DE/0DEE       05174 35397  1                      VCALL GTMIXTBL
 004CF8 18EF                       35401  1                      LR    R14,R15
 004CFA 4800 500C            0000C 35402  1                      LH    R0,WINDTLEN
 004CFE 1200/47D0 72A6             35403  1                      WHILE (R0,POS),BEGIN      Go through characters...
 004D04 1FFF/43F0 3000             35419  2                        LC    R15,@R3             Get character
 004D0A 1F11/431F E000             35426  2                        LC    R1,@R14(R15)        0=normal, ff=non-printing
 004D10 12FF/4770 728A_            35433  2                        IF    ((R15,Z),AND,CPVFVTAM),'CLEAR R1'  VTAM null
 004D20 1211/4780 7298             35470  2                        IF    (R1,NZ),BEGIN       Non-printing...
 004D26 927E 3000      00000       35484  3                          MVI   @R3,C'='            Blotch character
 004D2A 9604 2000      00000       35485  3                          SET   @R2.PWARRULE        Alternate character set
 004D2E                            35492  2                        END
                                   35496  2
 004D2E 4130 3001            00001 35497  2                        LA    R3,@R3+1            Next character
 004D32 4120 2001            00001 35498  2                        LA    R2,@R2+1            Next rendition byte
 004D36 0600                       35499  2                        DECR  R0                  One less character
 004D38 47F0 7268            04CFE 35501  1                      END
 004D3C                            35506                       END
                                   35510                       ¿þþþþþþþþþþþþþþþþþþþþþþþþþþþþþþþþþþþþþþþÜ
                                   35511                       Ÿ  Display just the columns requested.  Ÿ
                                   35512                       ¾þþþþþþþþþþþþþþþþþþþþþþþþþþþþþþþþþþþþþþþ»
 004D3C 4110 6019            00019 35513                       LA    R1,PWALINE
 004D40 4A10 500E            0000E 35514                       AH    R1,WINDFCOL         Line text ptr
 004D44 4120 6119            00119 35515                       LA    R2,PWAREND
 004D48 4A20 500E            0000E 35516                       AH    R2,WINDFCOL         Rendition ptr
 004D4C 4130 6204            00204 35517                       LA    R3,PWAATTR
 004D50 4A30 500E            0000E 35518                       AH    R3,WINDFCOL         Attribute ptr
 004D54 4800 500C            0000C 35519                       LH    R0,WINDTLEN         Line length
 004D58 58E0 76C2/0DEE       05158 35520                       ACALL DISPTEXT            Display the line
                                   35524
 004D5E 18D8/9808 D004_            35525              OUTLEXIT PEND
 DROP   WIND,R5
 DROP   LINT,R4
 DROP   OUTTWA-(4+36),R8
 DROP   *,R7
1PAGE     (PAGE2193) (12:50) (15MAR04) Page Editor Manager                                                                  Page  121
0Current Usings:  (PWA,R6) (CP,R11) (CV,R12)
0Loc    Object Code    Addr1 Addr2  Stmt Lv Lineno    Source Statement           (Hibal 5, Asmedit 3.3)  HLASM R4.0  2004/03/15 12.50
+___    ______ ____    _____ _____  ____ __ ______    ______ _________
0000000                00000 000C8 35562              OUTZWA   RECORD BEGIN
                                   35570  1           OUTZL      SEGCB ,                   Seg buffer for left hand text
 000000 00                         35571  1 01-SEGCB +$$$SEGCB985   DS 0F
 OUTZLCOD.OUTZLSEG 01 EQ
 OUTZLCOD.OUTZLWR  02 EQ
 OUTZLCOD.OUTZLCLR 03 EQ
 OUTZLCOD.OUTZLSPP 04 EQ
 OUTZLCOD.OUTZLOVF 05 EQ
 OUTZLCOD.OUTZLCR  06 EQ
 OUTZLCOD.OUTZLMAR 07 EQ
 000001 00                         35646  1 01-SEGCB +           DC    X'00'               Reserved
 000002 0000                              1          +
 000004 00000000                   35647  1 01-SEGCB +OUTZLMAXF   DC   A(0)                Maximum buffer length
 000008 00000000                   35648  1 01-SEGCB +OUTZLMRKF   DC   A(0)                Length at last mark
 00000C 00000000                   35649  1 01-SEGCB +OUTZLLENF   DC   A(0)                Current length
 000010 00000000                   35650  1 01-SEGCB +OUTZLINDF   DC   A(0)                Overflow/indent count
 000014 00000000                   35651  1 01-SEGCB +OUTZLERR   DC    A(0)                Address of error recovery routine
 000018 0000000000000000           35652  1 01-SEGCB +           DC    2F'0'               Reserved
 000020 00000000                   35653  1 01-SEGCB +OUTZLLOC   DC    A(0)                Location of buffer
 000024 00000000                   35654  1 01-SEGCB +OUTZLRTN   DC    A(0)                Processing routine
 000028 0000000000000000           35655  1 01-SEGCB +           DC    4F'0'               Reserved
 000038 00000000                   35656  1 01-SEGCB +OUTZLUSR   DC    A(0)                USER field
                                   35657  1 01-SEGCB +OUTZL      EQU   $$$SEGCB985,*-$$$SEGCB985,C'X'
                                   35658  1
                                   35659  1           OUTZR      SEGCB ,                   Seg buffer for right hand text
 00003C 00                         35660  1 01-SEGCB +$$$SEGCB993   DS 0F
 OUTZRCOD.OUTZRSEG 01 EQ
 OUTZRCOD.OUTZRWR  02 EQ
 OUTZRCOD.OUTZRCLR 03 EQ
 OUTZRCOD.OUTZRSPP 04 EQ
 OUTZRCOD.OUTZROVF 05 EQ
 OUTZRCOD.OUTZRCR  06 EQ
 OUTZRCOD.OUTZRMAR 07 EQ
 00003D 00                         35735  1 01-SEGCB +           DC    X'00'               Reserved
 00003E 0000                              1          +
 000040 00000000                   35736  1 01-SEGCB +OUTZRMAXF   DC   A(0)                Maximum buffer length
 000044 00000000                   35737  1 01-SEGCB +OUTZRMRKF   DC   A(0)                Length at last mark
 000048 00000000                   35738  1 01-SEGCB +OUTZRLENF   DC   A(0)                Current length
 00004C 00000000                   35739  1 01-SEGCB +OUTZRINDF   DC   A(0)                Overflow/indent count
 000050 00000000                   35740  1 01-SEGCB +OUTZRERR   DC    A(0)                Address of error recovery routine
 000054 0000000000000000           35741  1 01-SEGCB +           DC    2F'0'               Reserved
 00005C 00000000                   35742  1 01-SEGCB +OUTZRLOC   DC    A(0)                Location of buffer
 000060 00000000                   35743  1 01-SEGCB +OUTZRRTN   DC    A(0)                Processing routine
 000064 0000000000000000           35744  1 01-SEGCB +           DC    4F'0'               Reserved
 000074 00000000                   35745  1 01-SEGCB +OUTZRUSR   DC    A(0)                USER field
                                   35746  1 01-SEGCB +OUTZR      EQU   $$$SEGCB993,*-$$$SEGCB993,C'X'
                                   35747  1
 000078                            35748  1           OUTZBUF    DS    XL80                Working seg buffer
 0000C8                000C8 000C8 35749                       END
-                                  35759              ¿þþþþþþþþþþþþþþþþþþþþþþþþþþþþþþþþþþþþþþþþþþþþþþþþþþþþþþþþþþþþþþþþþþþþþÜ
                                   35760              Ÿ                                                                     Ÿ
                                   35761              Ÿ  OUTSTAT -- Local routine to format the ACTIVE file status line     Ÿ
1PAGE     (PAGE2193) (12:50) (15MAR04) Page Editor Manager                                                                  Page  122
0Current Usings:  (PWA,R6) (CP,R11) (CV,R12)
0Loc    Object Code    Addr1 Addr2  Stmt Lv Lineno    Source Statement           (Hibal 5, Asmedit 3.3)  HLASM R4.0  2004/03/15 12.50
+___    ______ ____    _____ _____  ____ __ ______    ______ _________
0                                  35762              Ÿ    on the page.                                                     Ÿ
                                   35763              Ÿ                                                                     Ÿ
                                   35764              Ÿ    On entry:                                                        Ÿ
                                   35765              Ÿ      R6 - PWA ptr                                                   Ÿ
                                   35766              Ÿ      R5 - WIND ptr                                                  Ÿ
                                   35767              Ÿ      R4 - LINT ptr                                                  Ÿ
                                   35768              Ÿ                                                                     Ÿ
                                                      ¾þþþþþþþþþþþþþþþþþþþþþþþþþþþþþþþþþþþþþþþþþþþþþþþþþþþþþþþþþþþþþþþþþþþþþ»
0004D6C 50E0 D000/9008_      00000 35769              OUTSTAT  PROC  OUTZWA
 USING  *,R7
 USING  OUTZWA-(4+36),R8
 USING  LINT,R4                    35819                       WITH  (LINT,R4),(WIND,R5)
 USING  WIND,R5
                                   35842                       ¿þþþþþþþþþþþþþþþþþþþþþþþþþþþþþþþþÜ
                                   35843                       Ÿ  Set up status line defaults.  Ÿ
                                   35844                       ¾þþþþþþþþþþþþþþþþþþþþþþþþþþþþþþþþ»
 004D86 41F0 005C            0005C 35845                       LA    R15,TTYSTAT-TTYPE
 004D8A 40F0 62F0            002F0 35846                       STH   R15,PWADEFR         Save rendition value
                                   35847
 004D8E D2EA 6019 C4D8 00019 004D8 35848                       MVC   PWALINE,CVBLANKS    Initialize blank status line
 004D94 D7EA 6119 6119_00119 00119 35849                       CLEAR PWAREND,PWAATTR     Every character is normal
                                   35861                       ¿þþþþþþþþþþþþþþþþþþþþþþþþþþþþþþþþþþþþþþþþþþþþþþþþÜ
                                   35862                       Ÿ  Format right hand part of status line first.  Ÿ
                                   35863                       ¾þþþþþþþþþþþþþþþþþþþþþþþþþþþþþþþþþþþþþþþþþþþþþþþþ»
 004DA0 4110 80A0/4100_      00078 35864                       SEGINIT OUTZBUF,,OUTZR
 004DB2 4820 500E/1222_      0000E 35891                       IF    ('LTH R2,WINDFCOL',NZ),BEGIN  Show columns...
 004DBC 4110 7449/4100_      051CF 35907  1                      SEG   ' (Cols='
 004DCE 4110 2001/1B00_      00001 35924  1                      SEGDC LA:@R2+1            Starting column
 004DDE 4110 7450/4100_      051D6 35945  1                      SEG   '/'
 004DF0 4A20 BAD2            00AD2 35962  1                      AH    R2,CPVWID           Total DISPLAYED width
 004DF4 4B20 500A            0000A 35963  1                      SH    R2,WINDTCOL         Account for space for lineno
 004DF8 4110 2001/1B00_      00001 35964  1                      SEGDC LA:@R2+1            Ending column
 004E08 4110 7451/4100_      051D7 35985  1                      SEG   ')'
 004E1A                            36002                       END
                                   36006
 004E1A 9120 5000/47E0_00000       36007                       IF    WINFUNN,BEGIN       Show linenos...
 004E22 D603 B5AC B5AC_005AC 005AC 36022  1                      IF    (CPALNCT,Z),EXIT
 004E2C 4110 738A/4100_      05110 36041  1                      SEG   ' (Lines='
 004E3E 5800 5020            00020 36058  1                      L     R0,WINDFLNO
 004E42 58E0 73EA/0DEE       05170 36059  1                      VCALL CVEXNO
 004E48 41F0 8064/58E0_      0003C 36063  1                      SEG   (R1),(R0)           Starting lineno
 004E52 4110 7450/4100_      051D6 36086  1                      SEG   '/'
 004E64 5800 5024            00024 36103  1                      L     R0,WINDLLNO
 004E68 58E0 73EA/0DEE       05170 36104  1                      VCALL CVEXNO
 004E6E 41F0 8064/58E0_      0003C 36108  1                      SEG   (R1),(R0)           Ending lineno
 004E78 4110 7451/4100_      051D7 36131  1                      SEG   ')'
 004E8A                            36148                       END
                                   36152
 004E8A 9108 BAC8/4710_00AC8       36153                       IF    (~CPVFHIDE,AND,(CPBLKACT,NZ)),BEGIN
 004E9C 4110 7452/4100_      051D8 36183  1                      SEG   ' (Marked)'
 004EAE                            36200                       END
                                   36204
 004EAE D603 B5B4 B5B4_005B4 005B4 36205                       IF    (CPACHCT,NZ),BEGIN  File has changed...
1PAGE     (PAGE2193) (12:50) (15MAR04) Page Editor Manager                                                                  Page  123
0Current Usings:  (LINT,R4) (WIND,R5) (PWA,R6) (*,R7) (OUTZWA-(4+36),R8) (CP,R11) (CV,R12)
0Loc    Object Code    Addr1 Addr2  Stmt Lv Lineno    Source Statement           (Hibal 5, Asmedit 3.3)  HLASM R4.0  2004/03/15 12.50
+___    ______ ____    _____ _____  ____ __ ______    ______ _________
0004EB8 4110 7420/4100_      051A6 36221  1                      SEG   ' (Changed)'
 004ECA                            36238                       END
                                   36242
 004ECA 9104 BACA/47E0_00ACA       36243                       IF    CPVFFORMAT,BEGIN    Formatted...
 004ED2 4110 73FA/4100_      05180 36258  1                      SEG   ' (Formatted)'
 004EE4                            36275                       END
                                   36279
 004EE4 4110 7447/4100_      051CD 36280                       SEG   ' '
 004EF6 5810 B5AC/1B00_      005AC 36297                       SEGDC L:CPALNCT           Number of lines
 004F06 4110 742A/4100_      051B0 36318                       SETMSG ' lines'
 004F0E 5920 73DE/4770_      05164 36322                       IF    (R2,EQ,1),'DECR R0'
 004F18 41F0 8064/58E0_      0003C 36346                       SEG   (R1),(R0)
                                   36369                       ¿þþþþþþþþþþþþþþþþþþþþþþþþþþþþþþþþþþþþþþþþþþþþþþþþþþþÜ
                                   36370                       Ÿ  Format the main (left) part of the status line.  Ÿ
                                   36371                       ¾þþþþþþþþþþþþþþþþþþþþþþþþþþþþþþþþþþþþþþþþþþþþþþþþþþþ»
 004F22 4110 6019/4100_      00019 36372                       SEGINIT PWALINE,,OUTZL
 004F34 4110 7430/4100_      051B6 36399                       SETMSG '=>'
 004F3C D501 5002 BAD6_00002 00AD6 36403                       IF    (WINDNO,NE,CPVWCUR),'SETMSG CVBLANKS,2'
 004F4E 41F0 8028/58E0_      00000 36442                       SEG   (R1),(R0)
 004F58 5810 B57C/4100_      0057C 36465                       SEGDC L:CPACTNO,4
 004F6A 4110 C4D8/4100_      004D8 36489                       SEG   CVBLANKS,1
 004F7C 4110 B588/4100_      00588 36518                       SEG   CPANAME
                                   36545
 004F8E D64F B5D6 B5D6_005D6 005D6 36546                       IF    (CPATITL,NZ),BEGIN  Show title...
 004F98 4110 C4D8/4100_      004D8 36562  1                      SEG   CVBLANKS,1
 004FAA 4110 B5D6/4100_      005D6 36591  1                      SEGT  CPATITL
 004FBC                            36619                       END
                                   36623
 004FBC 723A/47F0 731A 04FBC 04F96 36624                       ELSE  BEGIN               Show saved dsname...
 004FC0 D503 7382 B628_05108 00628 36635  1                      IF    (CPAFNAMEL,NE,0),BEGIN  From file name ...
 004FCA 4110 7432/4100_      051B8 36653  2                        SEG   ' From '
                                   36670  2                        COMMENT                   FILE NAME
 004FDC 4110 B62C/5800_      0062C 36671  2                        SETMSG CPAFNAME,L:CPAFNAMEL
 004FE4 58E0 740A/0DEE       05190 36685  2                        VCALL RETFNAME
                                   36689  2         C              IF    ((R0,GE,11),AND,(@R1,EQ,'WYL.'),AND,
                                          2         C                    (@R1+6,EQ,'.'),AND,(@R1+10,EQ,'.'),AND,
 004FEA 5900 740E/4750_      05194        2                              (CPSGRP,EQ,@R1+4),AND,(CPSUSER,EQ,@R1+7)),BEGIN
 005020 4110 100B            0000B 36775  3                          LA    R1,@R1+11           Skip past the standard prefix
 005024 4B00 7438            051BE 36776  3                          SH    R0,=H'11'
 005028                            36777  2                        END
 005028 41F0 8028/58E0_      00000 36781  2                        SEG   (R1),(R0)
                                   36804  2                        COMMENT                   #MEMBER, IF ANY
 005032 4110 B62C/5800_      0062C 36805  2                        SETMSG CPAFNAME,L:CPAFNAMEL
 00503A 58E0 7416/0DEE       0519C 36819  2                        VCALL RETFMEM
 005040 1200/47D0 72EC             36823  2                        IF    (R0,POS),BEGIN
 005046 9001 D000/41D0_      00000 36837  3                          XPUSH R0,R1
 00504E 4110 745B/4100_      051E1 36840  3                          SEG   '#'
 005060 4BD0 743A/9801_      051C0 36857  3                          XPOP  R0,R1
 005068 41F0 8028/58E0_      00000 36860  3                          SEG   (R1),(R0)
 005072                            36883  2                        END
                                   36887  2                        COMMENT                   ON HOST, IF ANY
 005072 D503 7382 B6AC_05108 006AC 36888  2                        IF    (CPAHOSTL,NE,0),BEGIN
 00507C 4110 741A/4100_      051A0 36906  3                          SEG   ' on '
 00508E 4110 B6B0/5800_      006B0 36923  3                          SEG   CPAHOST,L:CPAHOSTL
1PAGE     (PAGE2193) (12:50) (15MAR04) Page Editor Manager                                                                  Page  124
0Current Usings:  (LINT,R4) (WIND,R5) (PWA,R6) (*,R7) (OUTZWA-(4+36),R8) (CP,R11) (CV,R12)
0Loc    Object Code    Addr1 Addr2  Stmt Lv Lineno    Source Statement           (Hibal 5, Asmedit 3.3)  HLASM R4.0  2004/03/15 12.50
+___    ______ ____    _____ _____  ____ __ ______    ______ _________
00050A0                            36950  2                        END
 0050A0                            36954  1                      END
 0050A0                            36958                       END
                                   36962                       ¿þþþþþþþþþþþþþþþþþþþþþþþþþþþþþþþþþþþþþþþþþþþþþþþþþþþþþþþþþþÜ
                                   36963                       Ÿ  Now merge the left and right sides of the status line.  Ÿ
                                   36964                       ¾þþþþþþþþþþþþþþþþþþþþþþþþþþþþþþþþþþþþþþþþþþþþþþþþþþþþþþþþþþ»
 0050A0 4820 BAD2            00AD2 36965                       LH    R2,CPVWID           Total line length
 0050A4 5B20 8070            00048 36966                       S     R2,OUTZRLENF        Allow room for right side
 0050A8 47B0 7328/1B22       050AE 36967                       IF    NEG,'CLEAR R2'
                                   36987
 0050AE 5920 8034/47B0_      0000C 36988                       IF    (OUTZLLENF,GT,R2),BEGIN  Overlap...
 0050B6 18F2                       37005  1                      LR    R15,R2
 0050B8 4BF0 743C            051C2 37006  1                      SH    R15,=H'3'           Backup for truncation dots
 0050BC 4740 7344            050CA 37007  1                      IF    NEG,EXIT            No room, scram
 0050C0 411F 6019            00019 37021  1                      LA    R1,PWALINE(R15)
 0050C4 D202 1000 745C 00000 051E2 37022  1                      MVC   @R1(3),=C'...'      Truncation dots
 0050CA                            37023                       END
                                   37027
 0050CA 4112 6019            00019 37028                       LA    R1,PWALINE(R2)      Put right hand text here
 0050CE 58F0 8070            00048 37029                       L     R15,OUTZRLENF
 0050D2 06F0/12FF/4740_            37030                       MOVE  R15,@R1,OUTZBUF     Move in the right side
                                   37068                       ¿þþþþþþþþþþþþþþþþþþþþþþþþþþþþÜ
                                   37069                       Ÿ  Display the status line.  Ÿ
                                   37070                       ¾þþþþþþþþþþþþþþþþþþþþþþþþþþþþ»
 0050DE 4110 6019/4800_      00019 37071                       SETMSG PWALINE,LH:CPVWID   Line text
 0050E6 4120 6119            00119 37084                       LA    R2,PWAREND          Rendition map
 0050EA 4130 6204            00204 37085                       LA    R3,PWAATTR          Attribute map
 0050EE 58E0 73D2/0DEE       05158 37086                       ACALL DISPTEXT            Display the line
                                   37090
 0050F4 9680 400D      0000D       37091                       SET   LINFREWR            Rewrite line next time
 0050F8 18D8/9808 D004_            37097                       PEND
 DROP   WIND,R5
 DROP   LINT,R4
 DROP   OUTZWA-(4+36),R8
 DROP   *,R7
                                   37132
                                   37133                       QLTORG
1PAGE     (PAGE2193) (12:50) (15MAR04) Page Editor Manager                                                                  Page  125
0Current Usings:  (PWA,R6) (CP,R11) (CV,R12)
0Loc    Object Code    Addr1 Addr2  Stmt Lv Lineno    Source Statement           (Hibal 5, Asmedit 3.3)  HLASM R4.0  2004/03/15 12.50
+___    ______ ____    _____ _____  ____ __ ______    ______ _________
0000000                00000 0000A 37198              OUTCWA   RECORD BEGIN
 000000 00                         37206  1           OUTCFLAG   FLAG
                                   37210  1
 000002                            37211  1           OUTCCOL    DS    H                   Current cursor column
 000004                            37212  1           OUTCLEN    DS    H                   Working length
 000006                            37213  1           OUTCNO     DS    H                   Current tab index
                                   37214  1
 000008                            37215  1           OUTCREND   DS    H                   Current rendition ptrs
 00000A                0000A 0000A 37216                       END
-                                  37226              ¿þþþþþþþþþþþþþþþþþþþþþþþþþþþþþþþþþþþþþþþþþþþþþþþþþþþþþþþþþþþþþþþþþþþþþÜ
                                   37227              Ÿ                                                                     Ÿ
                                   37228              Ÿ  OUTCOL -- Local routine to format a column line on the page.       Ÿ
                                   37229              Ÿ                                                                     Ÿ
                                   37230              Ÿ    On entry:                                                        Ÿ
                                   37231              Ÿ      R6 - PWA ptr                                                   Ÿ
                                   37232              Ÿ      R5 - current WIND ptr                                          Ÿ
                                   37233              Ÿ      R4 - current LINT ptr                                          Ÿ
                                   37234              Ÿ                                                                     Ÿ
                                                      ¾þþþþþþþþþþþþþþþþþþþþþþþþþþþþþþþþþþþþþþþþþþþþþþþþþþþþþþþþþþþþþþþþþþþþþ»
00051F8 50E0 D000/9008_      00000 37235              OUTCOL   PROC  OUTCWA
 USING  *,R7
 USING  OUTCWA-(4+36),R8
 USING  LINT,R4                    37285                       WITH  (LINT,R4),(WIND,R5)
 USING  WIND,R5
                                   37308
 005212 D709 8028 8028 00000 00000 37309                       CLEAR OUTCWA
                                   37316                       ¿þþþþþþþþþþþþþþþþþþþþþþþþþþþþþþþþþþþþþþþþþþþþÜ
                                   37317                       Ÿ  Set the default rendition for this line.  Ÿ
                                   37318                       ¾þþþþþþþþþþþþþþþþþþþþþþþþþþþþþþþþþþþþþþþþþþþþ»
 005218 41F0 00D4            000D4 37319                       LA    R15,TTYCOL-TTYPE
 00521C 40F0 62F0            002F0 37320                       STH   R15,PWADEFR         Save normal rendition value
                                   37321
 005220 D7EA 6204 6204 00204 00204 37322                       CLEAR PWAATTR             No special attributes
                                   37329                       ¿þþþþþþþþþþþþþþþþþþþþþþþÜ
                                   37330                       Ÿ  Create column line.  Ÿ
                                   37331                       ¾þþþþþþþþþþþþþþþþþþþþþþþ»
 005226 58F0 B468            00468 37332                       L     R15,CPTTYPEP
 00522A D2EA 6019 7110 00019 05322 37333                       MVC   PWALINE,COLMAP      Set column line text
 005230 D7EA 6119 6119 00119 00119 37334                       CLEAR PWAREND             ...no special renditions
                                   37341                       ¿þþþþþþþþþþþþþþþþþþþþþþþþþþþþþþþþÜ
                                   37342                       Ÿ  Flag columns with tab stops.  Ÿ
                                   37343                       ¾þþþþþþþþþþþþþþþþþþþþþþþþþþþþþþþþ»
 005236 4130 5030            00030 37344                       LA    R3,WINDTABS
 00523A 4120 0010            00010 37345                       LA    R2,L'WINDTABS
 00523E                            37346                       LOOP  BEGIN               Set appropriate tabs...
 00523E 1FFF/43F0 3000             37352  1                      LC    R15,@R3             Tab position
 005244 12FF/4780 705C             37359  1                      IF    (R15,Z),EXIT        None, scram
 00524A 411F 6018            00018 37376  1                      LA    R1,PWALINE-1(R15)
 00524E 92A3 1000      00000       37377  1                      MVI   @R1,C't'            Mark column with tab stop
 005252 411F 6118            00118 37378  1                      LA    R1,PWAREND-1(R15)
 005256 94FB 1000      00000       37379  1                      CLEAR @R1.PWARRULE        Normal character set
1PAGE     (PAGE2193) (12:50) (15MAR04) Page Editor Manager                                                                  Page  126
0Current Usings:  (LINT,R4) (WIND,R5) (PWA,R6) (*,R7) (OUTCWA-(4+36),R8) (CP,R11) (CV,R12)
0Loc    Object Code    Addr1 Addr2  Stmt Lv Lineno    Source Statement           (Hibal 5, Asmedit 3.3)  HLASM R4.0  2004/03/15 12.50
+___    ______ ____    _____ _____  ____ __ ______    ______ _________
000525A 9610 1000      00000       37387  1                      SET   @R1.PWARCOLT        Column line tab stop rendition
                                   37394  1
 00525E 4130 3001            00001 37395  1                      LA    R3,@R3+1
 005262 0620                       37396  1                      DECR  R2
 005264 1222/4780 705C             37398  1                      UNTIL (R2,Z)
 00526A 47F0 702C            0523E 37416                       END
                                   37421                       ¿þþþþþþþþþþþþþþþþþþþþþÜ
                                   37422                       Ÿ  Flag left margin.  Ÿ
                                   37423                       ¾þþþþþþþþþþþþþþþþþþþþþ»
 00526E 4820 5010/1222       00010 37424                       LTH   R2,WINDIND
 005274 4740 7076            05288 37428                       IF    ~NEG,BEGIN          Flag left margin...
 005278 4112 6019            00019 37439  1                      LA    R1,PWALINE(R2)
 00527C 924C 1000      00000       37440  1                      MVI   @R1,C'<'            Left margin
 005280 4112 6119            00119 37441  1                      LA    R1,PWAREND(R2)
 005284 94FB 1000      00000       37442  1                      CLEAR @R1.PWARRULE
 005288                            37450                       END
                                   37454
 005288 707A/47F0 7092 05288 05276 37455                       ELSE  BEGIN               Flag automatic indendation...
 00528C 4110 6019            00019 37466  1                      LA    R1,PWALINE
 005290 4A10 500E            0000E 37467  1                      AH    R1,WINDFCOL
 005294 9261 1000      00000       37468  1                      MVI   @R1,C'/'            Automatic indentation
 005298 4110 6119            00119 37469  1                      LA    R1,PWAREND
 00529C 4A10 500E            0000E 37470  1                      AH    R1,WINDFCOL
 0052A0 94FB 1000      00000       37471  1                      CLEAR @R1.PWARRULE
 0052A4                            37479                       END
                                   37483                       ¿þþþþþþþþþþþþþþþþþþþþþþþþþþþþþþþþþþþþþþþþþþþþþþþþþþþþÜ
                                   37484                       Ÿ  Flag right margin and columns beyond the margin.  Ÿ
                                   37485                       ¾þþþþþþþþþþþþþþþþþþþþþþþþþþþþþþþþþþþþþþþþþþþþþþþþþþþþ»
 0052A4 4820 5012            00012 37486                       LH    R2,WINDMARG
                                   37487
 0052A8 9110 5000/47E0_00000       37488                       IF    WINFWRAP,BEGIN      Margin only counts if wordwrap...
 0052B0 4112 6018            00018 37503  1                      LA    R1,PWALINE-1(R2)
 0052B4 926E 1000      00000       37504  1                      MVI   @R1,C'>'
 0052B8 4112 6118            00118 37505  1                      LA    R1,PWAREND-1(R2)
 0052BC 94FB 1000      00000       37506  1                      CLEAR @R1.PWARRULE
                                   37514  1
 0052C0 4112 6119            00119 37515  1                      LA    R1,PWAREND(R2)
 0052C4 41F0 00EB            000EB 37516  1                      LA    R15,&LINESZ
 0052C8 1BF2                       37517  1                      SR    R15,R2
 0052CA 47D0 70C2            052D4 37518  1                      IF    POS,BEGIN           Set rendition for past margin...
 0052CE 06F0/44F0 7472_            37529  2                        DEX   R15,'OC @R1(0),COLMREND'
 0052D4                            37548  1                      END
 0052D4                            37552                       END
                                   37556                       ¿þþþþþþþþþþþþþþþþþþþþþþÜ
                                   37557                       Ÿ  Write column line.  Ÿ
                                   37558                       ¾þþþþþþþþþþþþþþþþþþþþþþ»
 0052D4 41F0 00D4/58E0_      000D4 37559                       TREND COL
                                   37566
 0052DE 4800 500A            0000A 37567                       LH    R0,WINDTCOL
 0052E2 0600                       37568                       DECR  R0
 0052E4 4110 C4D8/41F0_      004D8 37570                       TSEG  CVBLANKS,(R0)       Space over
1PAGE     (PAGE2193) (12:50) (15MAR04) Page Editor Manager                                                                  Page  127
0Current Usings:  (LINT,R4) (WIND,R5) (PWA,R6) (*,R7) (OUTCWA-(4+36),R8) (CP,R11) (CV,R12)
0Loc    Object Code    Addr1 Addr2  Stmt Lv Lineno    Source Statement           (Hibal 5, Asmedit 3.3)  HLASM R4.0  2004/03/15 12.50
+___    ______ ____    _____ _____  ____ __ ______    ______ _________
0                                  37597                       ¿þþþþþþþþþþþþþþþþþþþþþþþþþþþþþþþþþþþþþþþÜ
                                   37598                       Ÿ  Display just the columns requested.  Ÿ
                                   37599                       ¾þþþþþþþþþþþþþþþþþþþþþþþþþþþþþþþþþþþþþþþ»
 0052F2 4110 6019            00019 37600                       LA    R1,PWALINE
 0052F6 4A10 500E            0000E 37601                       AH    R1,WINDFCOL         Line text ptr
 0052FA 4120 6119            00119 37602                       LA    R2,PWAREND
 0052FE 4A20 500E            0000E 37603                       AH    R2,WINDFCOL         Rendition ptr
 005302 4130 6204            00204 37604                       LA    R3,PWAATTR
 005306 4A30 500E            0000E 37605                       AH    R3,WINDFCOL         Attribute ptr
 00530A 4800 500C            0000C 37606                       LH    R0,WINDTLEN         Line length
 00530E 58E0 742E/0DEE       05640 37607                       ACALL DISPTEXT            Display the line
                                   37611
 005314 18D8/9808 D004_            37612                       PEND
 DROP   WIND,R5
 DROP   LINT,R4
 DROP   OUTCWA-(4+36),R8
 DROP   *,R7
                                   37647
 005322 606060604E606060           37648              COLMAP   DC    C'----+----1----+----2----+----3----+----4----+----5'
 005354 606060604E606060           37649                       DC    C'----+----6----+----7----+----8----+----9----+----A'
 005386 606060604E606060           37650                       DC    C'----+----B----+----C----+----D----+----E----+----F'
 0053B8 606060604E606060           37651                       DC    C'----+----G----+----H----+----I----+----J----+----K'
 0053EA 606060604E606060           37652                       DC    C'----+----L----+----M----+----N----+'
                                   37653
 00540D 0808080808080808           37654              COLMREND DC    (&LINESZ)AL1(PWARCOLM)
1PAGE     (PAGE2193) (12:50) (15MAR04) Page Editor Manager                                                                  Page  128
0Current Usings:  (PWA,R6) (CP,R11) (CV,R12)
0Loc    Object Code    Addr1 Addr2  Stmt Lv Lineno    Source Statement           (Hibal 5, Asmedit 3.3)  HLASM R4.0  2004/03/15 12.50
+___    ______ ____    _____ _____  ____ __ ______    ______ _________
0                                  37656              ¿þþþþþþþþþþþþþþþþþþþþþþþþþþþþþþþþþþþþþþþþþþþþþþþþþþþþþþþþþþþþþþþþþþþþþÜ
                                   37657              Ÿ                                                                     Ÿ
                                   37658              Ÿ  OUTCMD -- Local routine to format the command line on the page.    Ÿ
                                   37659              Ÿ                                                                     Ÿ
                                   37660              Ÿ    On entry:                                                        Ÿ
                                   37661              Ÿ      R6 - PWA ptr                                                   Ÿ
                                   37662              Ÿ      R5 - current WIND ptr                                          Ÿ
                                   37663              Ÿ      R4 - current LINT ptr                                          Ÿ
                                   37664              Ÿ                                                                     Ÿ
                                                      ¾þþþþþþþþþþþþþþþþþþþþþþþþþþþþþþþþþþþþþþþþþþþþþþþþþþþþþþþþþþþþþþþþþþþþþ»
00054F8 50E0 D000/9008_      00000 37665              OUTCMD   PROC
 USING  *,R7
 USING  LINT,R4                    37704                       WITH  (LINT,R4),(WIND,R5)
 USING  WIND,R5
                                   37727
 005512 41F0 00FC/58E0_      000FC 37728                       TREND CMD
                                   37735
 00551C 4120 000B            0000B 37736                       LA    R2,11               Prompt length
 005520 9180 BACB/47E0_00ACB       37737                       IF    CPVFVTAM,BEGIN      VTAM is different...
 005528 4110 7166/4100_      05678 37752  1                      SETMSG 'Command:   '
 005530 9120 BACB/47E0_00ACB       37756  1                      IF    CPVFESC,BEGIN
 005538 4110 714A/4100_      0565C 37771  2                        SETMSG 'Command ("." means ESC):  '
 005540                            37775  1                      END
 005540 1820                       37779  1                      LR    R2,R0
 005542 41F0 B050/58E0_      00050 37780  1                      TSEG  (R1),(R0)
 00554C 5810 7132/4100_      05644 37804  1                      TSEG  L:=A($FUNPROT),L'$FUNPROT
 00555E                            37832                       END
                                   37836
 00555E 7050/47F0 7062 0555E 05526 37837                       ELSE  BEGIN               Regular front-ends...
 005562 4110 7166/4100_      05678 37848  1                      TSEG  'Command:   '
 005574                            37866                       END
                                   37870
 005574 1322                       37871                       LCR   R2,R2               Negative prompt length
 005576 4A20 BAD2            00AD2 37872                       AH    R2,CPVWID           Amount of text allowed
                                   37873
 00557A 4110 B242/4800_      00242 37874                       SETMSG CPCMD,LH:CPCMDLEN   Current command
 005582 58E0 7136/0DEE       05648 37887                       VCALL RTRIM
 005588 1B20                       37891                       SR    R2,R0               No. of blanks after command
 00558A 41F0 B050/58E0_      00050 37892                       TSEG  (R1),(R0)           Command text
 005594 18F2                       37916                       LR    R15,R2
 005596 58E0 713A/0DEE       0564C 37917                       ACALL DELTEXT             Delete any chars which follow
                                   37921
 00559C 9680 400D      0000D       37922                       SET   LINFREWR            Rewrite line next time
 0055A0 18D8/9808 D004_            37928                       PEND
 DROP   WIND,R5
 DROP   LINT,R4
 DROP   *,R7
1PAGE     (PAGE2193) (12:50) (15MAR04) Page Editor Manager                                                                  Page  129
0Current Usings:  (PWA,R6) (CP,R11) (CV,R12)
0Loc    Object Code    Addr1 Addr2  Stmt Lv Lineno    Source Statement           (Hibal 5, Asmedit 3.3)  HLASM R4.0  2004/03/15 12.50
+___    ______ ____    _____ _____  ____ __ ______    ______ _________
0                                  37959              ¿þþþþþþþþþþþþþþþþþþþþþþþþþþþþþþþþþþþþþþþþþþþþþþþþþþþþþþþþþþþþþþþþþþþþþÜ
                                   37960              Ÿ                                                                     Ÿ
                                   37961              Ÿ  OUTMSG -- Local routine to format the message line on the page.    Ÿ
                                   37962              Ÿ                                                                     Ÿ
                                   37963              Ÿ    On entry:                                                        Ÿ
                                   37964              Ÿ      R6 - PWA ptr                                                   Ÿ
                                   37965              Ÿ      R5 - current WIND ptr                                          Ÿ
                                   37966              Ÿ      R4 - current LINT ptr                                          Ÿ
                                   37967              Ÿ                                                                     Ÿ
                                                      ¾þþþþþþþþþþþþþþþþþþþþþþþþþþþþþþþþþþþþþþþþþþþþþþþþþþþþþþþþþþþþþþþþþþþþþ»
00055AE 50E0 D000/9008_      00000 37968              OUTMSG   PROC
 USING  *,R7
 USING  LINT,R4                    38007                       WITH  (LINT,R4),(WIND,R5)
 USING  WIND,R5
                                   38030
 0055C8 41F0 0074/58E0_      00074 38031                       TREND MSG
 0055D2 4110 BAFC/4100_      00AFC 38038                       SETMSG CPVMSG              Message
 0055DA 58E0 7088/0DEE       05650 38052                       VCALL LRTRIM
 0055E0 4820 BAD2            00AD2 38056                       LH    R2,CPVWID
 0055E4 1B20                       38057                       SR    R2,R0
 0055E6 0620                       38058                       DECR  R2                  No. of chars after message
 0055E8 41F0 B050/58E0_      00050 38060                       TSEG  (R1),(R0),B         Message text
                                   38084                       ¿þþþþþþþþþþþþþþþþþþþþþþþþþþþþþþþþþþþþþÜ
                                   38085                       Ÿ  Write out status part of message.  Ÿ
                                   38086                       ¾þþþþþþþþþþþþþþþþþþþþþþþþþþþþþþþþþþþþþ»
 0055F2 18F2                       38087                       LR    R15,R2
 0055F4 4BF0 70AE            05676 38088                       SH    R15,=H'25'          We need at least 25 blanks
 0055F8 47D0 703E            05606 38089                       IF    POS,BEGIN           Tab over...
 0055FC 58E0 7084/0DEE       0564C 38100  1                      ACALL DELTEXT             Delete any chars which follow
 005602 4120 0019            00019 38104  1                      LA    R2,25               Remaining blanks
 005606                            38105                       END
                                   38109
 005606 5810 7090/4100_      05658 38110                       TSEG  L:=A($SETMSG),L'$SETMSG  Front-end message area
                                   38138
 005618 18F2                       38139                       LR    R15,R2
 00561A 58E0 7084/0DEE       0564C 38140                       ACALL DELTEXT             Delete any chars which follow
                                   38144
 005620 9680 400D      0000D       38145                       SET   LINFREWR            Rewrite line next time
 005624 18D8/9808 D004_            38151                       PEND
 DROP   WIND,R5
 DROP   LINT,R4
 DROP   *,R7
                                   38181
                                   38182                       QLTORG
1PAGE     (PAGE2193) (12:50) (15MAR04) Page Editor Manager                                                                  Page  130
0Current Usings:  (PWA,R6) (CP,R11) (CV,R12)
0Loc    Object Code    Addr1 Addr2  Stmt Lv Lineno    Source Statement           (Hibal 5, Asmedit 3.3)  HLASM R4.0  2004/03/15 12.50
+___    ______ ____    _____ _____  ____ __ ______    ______ _________
0                                  38207              ¿þþþþþþþþþþþþþþþþþþþþþþþþþþþþþþþþþþþþþþþþþþþþþþþþþþþþþþþþþþþþþþþþþþþþþÜ
                                   38208              Ÿ                                                                     Ÿ
                                   38209              Ÿ  INPTEXT -- Local routine to process text line updates.             Ÿ
                                   38210              Ÿ                                                                     Ÿ
                                   38211              Ÿ    On entry:                                                        Ÿ
                                   38212              Ÿ      R6 - PWA ptr (PWAFIELD contains data)                          Ÿ
                                   38213              Ÿ      R5 - current WIND ptr                                          Ÿ
                                   38214              Ÿ      R4 - current LINT ptr                                          Ÿ
                                   38215              Ÿ                                                                     Ÿ
                                                      ¾þþþþþþþþþþþþþþþþþþþþþþþþþþþþþþþþþþþþþþþþþþþþþþþþþþþþþþþþþþþþþþþþþþþþþ»
000568A 50E0 D000/9008_      00000 38216              INPTEXT  PROC
 USING  *,R7
 USING  LINT,R4                    38255                       WITH  (LINT,R4),(WIND,R5)
 USING  WIND,R5
                                   38278
 0056A4 58F0 4010/12FF       00010 38279                       LT    R15,LINTLNO
 0056AA 4740 7104            057A8 38283                       BM    INPTEXIT
 0056AE 4110 6019            00019 38284                       LA    R1,PWALINE
 0056B2 58E0 7D24/0DEE       063C8 38285                       VCALL GETLINE             Get the line
                                   38289
 0056B8 4820 500C            0000C 38290                       LH    R2,WINDTLEN
 0056BC 4810 500E            0000E 38291                       LH    R1,WINDFCOL
 0056C0 4111 6019            00019 38292                       LA    R1,PWALINE(R1)
 0056C4 18F2                       38293                       LR    R15,R2
 0056C6 06F0/12FF/4740_            38294                       MOVE  R15,@R1,CVBLANKS    Blank entire field first
                                   38332
 0056D2 48F0 6310            00310 38333                       LH    R15,PWAFLEN
 0056D6 19F2/47D0 703A_            38334                       CEIL  R15,R2
 0056DE 06F0/12FF/4740_            38340                       MOVE  R15,@R1,PWAFIELD    Move in new text
                                   38378
 0056EA 9610 BAC8      00AC8       38379                       SET   CPVFCH              File changes have occurred
                                   38385
 0056EE 58F0 4010            00010 38386                       L     R15,LINTLNO         Use the line-number shown
 0056F2 4110 6019/4100_      00019 38387                       SETMSG PWALINE             Line text
                                   38401                       ¿þþþþþþþþþþþþþþþþþþþþþþþþþþþþÜ
                                   38402                       Ÿ  Update an existing line.  Ÿ
                                   38403                       ¾þþþþþþþþþþþþþþþþþþþþþþþþþþþþ»
 0056FA 9502 400C/4770_0000C       38404                       IF    LINFTEXT,BEGIN      Updating an existing line...
 005702 58E0 7D28/0DEE       063CC 38419  1                      ACALL VPUTLINE            Replace the line
 005708 47F0 7104            057A8 38423  1                      B     INPTEXIT
 00570C                            38424                       END
                                   38428                    ¿þþþþþþþþþþþþþþþþþþþþþþþþþþþþþþþþþþþþþþþþþþþþþþþþþþþþþþþþþþþþþþþþþþÜ
                                   38429                    Ÿ  Add a new line.  Make sure that any other new lines before (or  Ÿ
                                   38430                    Ÿ       after) this line are also filled in.                       Ÿ
                                   38431                    ¾þþþþþþþþþþþþþþþþþþþþþþþþþþþþþþþþþþþþþþþþþþþþþþþþþþþþþþþþþþþþþþþþþþ»
 00570C 9501 400C/4770_0000C       38432                       IF    LINFNEW,BEGIN       This is a new line...
 005714 9202 400C/9680_0000C       38447  1                      SET   LINFTEXT,LINFREWR   Make it look like an existing lno
 00571C D203 4004 4010 00004 00010 38457  1                      MVC   LINTOLNO,LINTLNO    Set "old" lineno
 005722 58E0 7D28/0DEE       063CC 38458  1                      ACALL VPUTLINE            Add the new line
                                   38462  1
 005728 D503 7D2C B5AC_063D0 005AC 38463  1                      IF    (CPALNCT,EQ,1),INPTEXIT  Only one line in file, scram
                                   38484  1
 005732 5830 6308            00308 38485  1                      L     R3,PWACURS          Current row
1PAGE     (PAGE2193) (12:50) (15MAR04) Page Editor Manager                                                                  Page  131
0Current Usings:  (LINT,R4) (WIND,R5) (PWA,R6) (*,R7) (CP,R11) (CV,R12)
0Loc    Object Code    Addr1 Addr2  Stmt Lv Lineno    Source Statement           (Hibal 5, Asmedit 3.3)  HLASM R4.0  2004/03/15 12.50
+___    ______ ____    _____ _____  ____ __ ______    ______ _________
0                                  38486  1
 005736 5900 4010/4750_      00010 38487  1                      IF    (LINTLNO,LE,R0),BEGIN  Fill after new first...
 00573E                            38504  2                        LOOP  BEGIN
 00573E 4140 4014            00014 38510  3                          LA    R4,LINTNEXT         Next line
 005742 4130 3001            00001 38511  3                          LA    R3,@R3+1
 005746 4930 5008/4730_      00008 38512  3                          WHILE (R3,LE,WINDLROW)
                                   38530  3
 00574E 9502 400C/4780_0000C       38531  3                          IF    LINFTEXT,INPTEXIT   Stop scan at first existing line
                                   38549  3
 005756 9501 400C/4770_0000C       38550  3                          IF    LINFNEW,BEGIN       Fill in new line...
 00575E 58F0 4010            00010 38565  4                            L     R15,LINTLNO         Line-number
 005762 4110 6019/1B00       00019 38566  4                            SETMSG PWALINE,0           No line text
 005768 58E0 7D28/0DEE       063CC 38579  4                            ACALL VPUTLINE            Add the line
 00576E                            38583  3                          END
 00576E 47F0 709A            0573E 38587  2                        END
 005772                            38592  1                      END
                                   38596  1
 005772 70D2/47F0 7104 05772 0573C 38597  1                      ELSE  BEGIN               Fill in lines before new end...
 005776                            38608  2                        LOOP  BEGIN
 005776 4B40 7DC8            0646C 38614  3                          SH    R4,=AL2(L'LINT)     Previous line
 00577A 0630                       38615  3                          DECR  R3
 00577C 4930 5006/4750_      00006 38617  3                          WHILE (R3,GE,WINDFROW)
                                   38635  3
 005784 9502 400C/4780_0000C       38636  3                          IF    LINFTEXT,INPTEXIT   Stop scan at first existing line
                                   38654  3
 00578C 9501 400C/4770_0000C       38655  3                          IF    LINFNEW,BEGIN       Fill in new line...
 005794 58F0 4010            00010 38670  4                            L     R15,LINTLNO         Line-number
 005798 4110 6019/1B00       00019 38671  4                            SETMSG PWALINE,0           No line text
 00579E 58E0 7D28/0DEE       063CC 38684  4                            ACALL VPUTLINE            Add the line
 0057A4                            38688  3                          END
 0057A4 47F0 70D2            05776 38692  2                        END
 0057A8                            38697  1                      END
 0057A8                            38701                       END
                                   38705
 0057A8 18D8/9808 D004_            38706              INPTEXIT PEND
 DROP   WIND,R5
 DROP   LINT,R4
 DROP   *,R7
1PAGE     (PAGE2193) (12:50) (15MAR04) Page Editor Manager                                                                  Page  132
0Current Usings:  (PWA,R6) (CP,R11) (CV,R12)
0Loc    Object Code    Addr1 Addr2  Stmt Lv Lineno    Source Statement           (Hibal 5, Asmedit 3.3)  HLASM R4.0  2004/03/15 12.50
+___    ______ ____    _____ _____  ____ __ ______    ______ _________
0                                  38738              ¿þþþþþþþþþþþþþþþþþþþþþþþþþþþþþþþþþþþþþþþþþþþþþþþþþþþþþþþþþþþþþþþþþþþþþÜ
                                   38739              Ÿ                                                                     Ÿ
                                   38740              Ÿ  INPCMD -- Local routine to process command line updates.           Ÿ
                                   38741              Ÿ                                                                     Ÿ
                                   38742              Ÿ    On entry:                                                        Ÿ
                                   38743              Ÿ      R6 - PWA ptr (PWAFIELD contains data)                          Ÿ
                                   38744              Ÿ      R5 - current WIND ptr                                          Ÿ
                                   38745              Ÿ      R4 - current LINT ptr                                          Ÿ
                                   38746              Ÿ                                                                     Ÿ
                                                      ¾þþþþþþþþþþþþþþþþþþþþþþþþþþþþþþþþþþþþþþþþþþþþþþþþþþþþþþþþþþþþþþþþþþþþþ»
00057B6 50E0 D000/9008_      00000 38747              INPCMD   PROC
 USING  *,R7
 USING  LINT,R4                    38786                       WITH  (LINT,R4),(WIND,R5)
 USING  WIND,R5
                                   38809
 0057D0 D2EA B242 C4D8 00242 004D8 38810                       MVC   CPCMD,CVBLANKS
 0057D6 48F0 6310            00310 38811                       LH    R15,PWAFLEN
 0057DA 59F0 7C04/47D0_      063D4 38812                       CEIL  R15,L'CPCMD
 0057E6 40F0 B240            00240 38831                       STH   R15,CPCMDLEN
 0057EA 06F0/12FF/4740_            38832                       MOVE  R15,CPCMD,PWAFIELD  Save new command text
                                   38870
 0057F6 4110 B242/4800_      00242 38871                       SETMSG CPCMD,LH:CPCMDLEN
 0057FE 58E0 7C08/0DEE       063D8 38884                       VCALL RTRIM               Trim trailing blanks
 005804 4000 B240            00240 38888                       STH   R0,CPCMDLEN
 005808 18D8/9808 D004_            38889                       PEND
 DROP   WIND,R5
 DROP   LINT,R4
 DROP   *,R7
1PAGE     (PAGE2193) (12:50) (15MAR04) Page Editor Manager                                                                  Page  133
0Current Usings:  (PWA,R6) (CP,R11) (CV,R12)
0Loc    Object Code    Addr1 Addr2  Stmt Lv Lineno    Source Statement           (Hibal 5, Asmedit 3.3)  HLASM R4.0  2004/03/15 12.50
+___    ______ ____    _____ _____  ____ __ ______    ______ _________
0                                  38920              ¿þþþþþþþþþþþþþþþþþþþþþþþþþþþþþþþþþþþþþþþþþþþþþþþþþþþþþþþþþþþþþþþþþþþþþÜ
                                   38921              Ÿ                                                                     Ÿ
                                   38922              Ÿ  INPBUG -- Local routine to display the input buffer if the user    Ÿ
                                   38923              Ÿ    is in debugging mode.                                            Ÿ
                                   38924              Ÿ                                                                     Ÿ
                                                      ¾þþþþþþþþþþþþþþþþþþþþþþþþþþþþþþþþþþþþþþþþþþþþþþþþþþþþþþþþþþþþþþþþþþþþþ»
0005816 50E0 D000/9008_      00000 38925              INPBUG   PROC
 USING  *,R7
 005830 9110 BACA/47E0_00ACA       38964                       IF    CPVFBUG,BEGIN       Debugging mode...
 005838 4840 6010            00010 38979  1                      LH    R4,PWARLEN
 00583C 185D/1AD4/41D0_            38980  1                      XPUSH ,,(R4),PTR=R5
 005848 18E5/18F4/5800_            38985  1                      MOVEL (R5),L:PWARLOC,(R4)  Save text
                                   39003  1
 005854 41F0 B050/58E0_      00050 39004  1                      TCLEAR
 00585E 5810 7BB4/4100_      063E4 39018  1                      TSEG  L:=A($CS),L'$CS
 005870 4110 7BBC/4100_      063EC 39046  1                      TSEG  'Input text ('
 005882 4810 6010/1B00_      00010 39064  1                      TNUM  LH:PWARLEN
 005892 4110 7B80/4100_      063B0 39085  1                      TSEG  ' chars):',,CR
                                   39103  1
 0058A4 1815/1804                  39104  1                      SETMSG (R5),(R4)
 0058A8 41F0 0002            00002 39116  1                      LA    R15,2
 0058AC 5820 7BD0            06400 39117  1                      L     R2,=A(X'273B')      Break on ESC, CSI
 0058B0 58E0 7BD4/0DEE       06404 39118  1                      VCALL ESCFMT              Display input text
 0058B6 1B00/41F0 B050_            39122  1                      TCR
                                   39147  1
 0058C2 4110 7B88/4100_      063B8 39148  1                      SETMSG 'Continue'
 0058CA 58E0 7BD8/0DEE       06408 39152  1                      VCALL YESREQ
                                   39156  1
 0058D0 58E0 6014/18F4_      00014 39157  1                      MOVEL L:PWARLOC,(R5),(R4)  Restore text
 0058DC 18D5                       39175  1                      XPOP  ,,PTR=R5
                                   39177  1
 0058DE 9680 BAC9      00AC9       39178  1                      SET   CPVFCLR             Clear and rewrite text
 0058E2                            39184                       END
                                   39188
 0058E2 18D8/9808 D004_            39189                       PEND
 DROP   *,R7
1PAGE     (PAGE2193) (12:50) (15MAR04) Page Editor Manager                                                                  Page  134
0Current Usings:  (PWA,R6) (CP,R11) (CV,R12)
0Loc    Object Code    Addr1 Addr2  Stmt Lv Lineno    Source Statement           (Hibal 5, Asmedit 3.3)  HLASM R4.0  2004/03/15 12.50
+___    ______ ____    _____ _____  ____ __ ______    ______ _________
0                                  39210              ¿þþþþþþþþþþþþþþþþþþþþþþþþþþþþþþþþþþþþþþþþþþþþþþþþþþþþþþþþþþþþþþþþþþþþþÜ
                                   39211              Ÿ                                                                     Ÿ
                                   39212              Ÿ  CURSCMD -- Local routine to process cursor ending on a             Ÿ
                                   39213              Ÿ    command line.                                                    Ÿ
                                   39214              Ÿ                                                                     Ÿ
                                   39215              Ÿ    On entry:                                                        Ÿ
                                   39216              Ÿ      R6 - PWA ptr                                                   Ÿ
                                   39217              Ÿ      R5 - WIND ptr                                                  Ÿ
                                   39218              Ÿ      R4 - LINT ptr                                                  Ÿ
                                   39219              Ÿ      R0,R1 - cursor row, column                                     Ÿ
                                   39220              Ÿ                                                                     Ÿ
                                                      ¾þþþþþþþþþþþþþþþþþþþþþþþþþþþþþþþþþþþþþþþþþþþþþþþþþþþþþþþþþþþþþþþþþþþþþ»
00058F0 50E0 D000/9008_      00000 39221              CURSCMD  PROC
 USING  *,R7
 USING  LINT,R4                    39260                       WITH  (LINT,R4),(WIND,R5)
 USING  WIND,R5
                                   39283
 00590A 41F0 000C            0000C 39284                       LA    R15,12              Start of command line
 00590E 5900 BAE0/4770_      00AE0 39285                       IF    (R0,EQ,CPVCURR),'ST R15,CPVCURC'  Set cursor addr
 00591A 18D8/9808 D004_            39308                       PEND
 DROP   WIND,R5
 DROP   LINT,R4
 DROP   *,R7
1PAGE     (PAGE2193) (12:50) (15MAR04) Page Editor Manager                                                                  Page  135
0Current Usings:  (PWA,R6) (CP,R11) (CV,R12)
0Loc    Object Code    Addr1 Addr2  Stmt Lv Lineno    Source Statement           (Hibal 5, Asmedit 3.3)  HLASM R4.0  2004/03/15 12.50
+___    ______ ____    _____ _____  ____ __ ______    ______ _________
0                                  39339              ¿þþþþþþþþþþþþþþþþþþþþþþþþþþþþþþþþþþþþþþþþþþþþþþþþþþþþþþþþþþþþþþþþþþþþþÜ
                                   39340              Ÿ                                                                     Ÿ
                                   39341              Ÿ  CURSTEXT -- Local routine to process cursor ending on a text       Ÿ
                                   39342              Ÿ    line.                                                            Ÿ
                                   39343              Ÿ                                                                     Ÿ
                                   39344              Ÿ    On entry:                                                        Ÿ
                                   39345              Ÿ      R6 - PWA ptr                                                   Ÿ
                                   39346              Ÿ      R5 - WIND ptr                                                  Ÿ
                                   39347              Ÿ      R4 - LINT ptr                                                  Ÿ
                                   39348              Ÿ      R0,R1 - cursor row, column                                     Ÿ
                                   39349              Ÿ                                                                     Ÿ
                                                      ¾þþþþþþþþþþþþþþþþþþþþþþþþþþþþþþþþþþþþþþþþþþþþþþþþþþþþþþþþþþþþþþþþþþþþþ»
0005928 50E0 D000/9008_      00000 39350              CURSTEXT PROC
 USING  *,R7
 USING  LINT,R4                    39389                       WITH  (LINT,R4),(WIND,R5)
 USING  WIND,R5
                                   39412
 005942 D203 BADC 4010 00ADC 00010 39413                       MVC   CPVLNO,LINTLNO      Set cursor lineno
 005948 D203 B5A8 BADC 005A8 00ADC 39414                       MVC   CPACLNO,CPVLNO      Set current lineno too
                                   39415
 00594E 4110 1001            00001 39416                       LA    R1,@R1+1            Column number is rel to one
 005952 4B10 500A            0000A 39417                       SH    R1,WINDTCOL         Adjust for column number
 005956 47B0 701A/1B11       0595C 39418                       IF    NEG,'CLEAR R1'
 00595C 4A10 500E            0000E 39438                       AH    R1,WINDFCOL         Adjust for cols being displayed
 005960 4010 BADA            00ADA 39439                       STH   R1,CPVCOL           Set page column
                                   39440                       ¿þþþþþþþþþþþþþþþþþþþþþþþþþþþþþþþþþþþþþþþþþþþþþþþþþþþþþþþþÜ
                                   39441                       Ÿ  Don't move the cursor if there is a command waiting.  Ÿ
                                   39442                       ¾þþþþþþþþþþþþþþþþþþþþþþþþþþþþþþþþþþþþþþþþþþþþþþþþþþþþþþþþ»
 005964 D601 B240 B240_00240 00240 39443                       IF    (CPCMDLEN,NZ),CURSLFIN  We have a command, scram
                                   39462                       ¿þþþþþþþþþþþþþþþþþþþþþþþþþþþþþþþþþþþþþþþþþþþþþþþÜ
                                   39463                       Ÿ  Make sure the line the cursor is on exists.  Ÿ
                                   39464                       ¾þþþþþþþþþþþþþþþþþþþþþþþþþþþþþþþþþþþþþþþþþþþþþþþ»
 00596E 9501 400C/4770_0000C       39465                       IF    LINFNEW,BEGIN       It doesn't exist yet...
 005976 58F0 BADC            00ADC 39480  1                      L     R15,CPVLNO          Cursor lineno
 00597A 4110 6019/1B00       00019 39481  1                      SETMSG PWALINE,0
 005980 58E0 7A8A/0DEE       063CC 39494  1                      ACALL VPUTLINE            Add a null line
 005986 9610 BAC8      00AC8       39498  1                      SET   CPVFCH              File changes have occurred
 00598A                            39504                       END
                                   39508                       ¿þþþþþþþþþþþþþþþþþþþþþþþþþþþþþþþþþþÜ
                                   39509                       Ÿ  Continue collecting new lines.  Ÿ
                                   39510                       ¾þþþþþþþþþþþþþþþþþþþþþþþþþþþþþþþþþþ»
 00598A D503 4010 B5C8_00010 005C8 39511                       IF    (LINTLNO,EQ,CPACNLN),BEGIN  Continue collect...
 005994 D201 B240 7B2C 00240 0646E 39529  1                      MVC   CPCMDLEN,=H'8'
 00599A D207 B242 7A7E 00242 063C0 39530  1                      MVC   CPCMD(8),=C'.COLMORE'
 0059A0 47F0 70AC            059EE 39531  1                      B     CURSLFIN
 0059A4                            39532                       END
                                   39536                       ¿þþþþþþþþþþþþþþþþþþþþþþþþþþþþþþþþþþþþþþÜ
                                   39537                       Ÿ  Insert mode means make a new line.  Ÿ
                                   39538                       ¾þþþþþþþþþþþþþþþþþþþþþþþþþþþþþþþþþþþþþþ»
 0059A4 9101 BACC/47E0_00ACC       39539                       IF    CPVFINS,BEGIN       Insert mode...
 0059AC D201 B240 7B2E 00240 06470 39554  1                      MVC   CPCMDLEN,=H'7'
 0059B2 D206 B242 7B3E 00242 06480 39555  1                      MVC   CPCMD(7),=C'.INSERT'  Makes a new line
 0059B8 47F0 70AC            059EE 39556  1                      B     CURSLFIN
1PAGE     (PAGE2193) (12:50) (15MAR04) Page Editor Manager                                                                  Page  136
0Current Usings:  (LINT,R4) (WIND,R5) (PWA,R6) (*,R7) (CP,R11) (CV,R12)
0Loc    Object Code    Addr1 Addr2  Stmt Lv Lineno    Source Statement           (Hibal 5, Asmedit 3.3)  HLASM R4.0  2004/03/15 12.50
+___    ______ ____    _____ _____  ____ __ ______    ______ _________
00059BC                            39557                       END
                                   39561                       ¿þþþþþþþþþþþþþþþþþþþþþþþþþþþþþþþþþþþþþþþþþÜ
                                   39562                       Ÿ  Now move the cursor to the next line.  Ÿ
                                   39563                       ¾þþþþþþþþþþþþþþþþþþþþþþþþþþþþþþþþþþþþþþþþþ»
 0059BC 41F0 0001            00001 39564                       LA    R15,1
 0059C0 5AF0 BADC            00ADC 39565                       A     R15,CPVLNO
 0059C4 50F0 BADC            00ADC 39566                       ST    R15,CPVLNO          Put cursor on next line
 0059C8 D701 BADA BADA 00ADA 00ADA 39567                       CLEAR CPVCOL              Recalc cursor column
                                   39574                       ¿þþþþþþþþþþþþþþþþþþþþþþþþþþþþþþþþþþþþþþþþþþþþþþþþþþþþþþþþþþþþþþÜ
                                   39575                       Ÿ  Scroll the window up if the cursor was on the bottom line.  Ÿ
                                   39576                       ¾þþþþþþþþþþþþþþþþþþþþþþþþþþþþþþþþþþþþþþþþþþþþþþþþþþþþþþþþþþþþþþ»
 0059CE 4800 4000            00000 39577                       LH    R0,LINTROW
 0059D2 4810 5008            00008 39578                       LH    R1,WINDLROW
 0059D6 58E0 7ACA/0DEE       0640C 39579                       ACALL PAGECNT             Any more lines left?
 0059DC 59F0 7ACE/4730_      06410 39583                       IF    (R15,LE,1),BEGIN    We need to scroll up...
 0059E4 48F0 7B30            06472 39600  1                      LH    R15,=H'-2'          Scroll up two lines
 0059E8 58E0 7AD2/0DEE       06414 39601  1                      ACALL PAGESCRL            Make room for cursor line
 0059EE                            39605                       END
                                   39609
 0059EE 18D8/9808 D004_            39610              CURSLFIN PEND
 DROP   WIND,R5
 DROP   LINT,R4
 DROP   *,R7
1PAGE     (PAGE2193) (12:50) (15MAR04) Page Editor Manager                                                                  Page  137
0Current Usings:  (PWA,R6) (CP,R11) (CV,R12)
0Loc    Object Code    Addr1 Addr2  Stmt Lv Lineno    Source Statement           (Hibal 5, Asmedit 3.3)  HLASM R4.0  2004/03/15 12.50
+___    ______ ____    _____ _____  ____ __ ______    ______ _________
0                                  39642              ¿þþþþþþþþþþþþþþþþþþþþþþþþþþþþþþþþþþþþþþþþþþþþþþþþþþþþþþþþþþþþþþþþþþþþþÜ
                                   39643              Ÿ                                                                     Ÿ
                                   39644              Ÿ  CURSCOL -- Local routine to process cursor ending on a column      Ÿ
                                   39645              Ÿ    line.                                                            Ÿ
                                   39646              Ÿ                                                                     Ÿ
                                   39647              Ÿ    On entry:                                                        Ÿ
                                   39648              Ÿ      R6 - PWA ptr                                                   Ÿ
                                   39649              Ÿ      R5 - WIND ptr                                                  Ÿ
                                   39650              Ÿ      R4 - LINT ptr                                                  Ÿ
                                   39651              Ÿ      R0,R1 - cursor row, column                                     Ÿ
                                   39652              Ÿ                                                                     Ÿ
                                                      ¾þþþþþþþþþþþþþþþþþþþþþþþþþþþþþþþþþþþþþþþþþþþþþþþþþþþþþþþþþþþþþþþþþþþþþ»
00059FC 50E0 D000/9008_      00000 39653              CURSCOL  PROC
 USING  *,R7
 USING  LINT,R4                    39692                       WITH  (LINT,R4),(WIND,R5)
 USING  WIND,R5
                                   39715
 005A16 D601 B240 B240_00240 00240 39716                       IF    (CPCMDLEN,Z),BEGIN  RETURN on column line...
 005A20 9620 BACE      00ACE       39732  1                      SET   CPVFBELL            Say, what!
 005A24                            39738                       END
                                   39742
 005A24 18D8/9808 D004_            39743                       PEND
 DROP   WIND,R5
 DROP   LINT,R4
 DROP   *,R7
1PAGE     (PAGE2193) (12:50) (15MAR04) Page Editor Manager                                                                  Page  138
0Current Usings:  (PWA,R6) (CP,R11) (CV,R12)
0Loc    Object Code    Addr1 Addr2  Stmt Lv Lineno    Source Statement           (Hibal 5, Asmedit 3.3)  HLASM R4.0  2004/03/15 12.50
+___    ______ ____    _____ _____  ____ __ ______    ______ _________
0000000                00000 0010C 39774              VPUTWA   RECORD BEGIN
 000000                            39782  1           VPUTKEY    DS    XL16                Working key for CPRG16 rg
                                   39783  1           VPUTWLIN   DS    CL(&LINESZ)         Working line text area
 000010                                   1          +VPUTWLIN   DS    CL(235)             Working line text area
 0000FC                            39784  1           VPUTOPTR   DS    2A                  Old text loc, len
 000104                            39785  1           VPUTPTRS   DS    2A                  New text loc, len
 00010C                0010C 0010C 39786                       END
-                                  39796              ¿þþþþþþþþþþþþþþþþþþþþþþþþþþþþþþþþþþþþþþþþþþþþþþþþþþþþþþþþþþþþþþþþþþþþþÜ
                                   39797              Ÿ                                                                     Ÿ
                                   39798              Ÿ  VPUTLINE -- Routine to add/replace a line in the Active            Ÿ
                                   39799              Ÿ    file.  This routine is exactly the same as "PUTLINE"             Ÿ
                                   39800              Ÿ    except that it keeps a previous copy of the line in a            Ÿ
                                   39801              Ÿ    shadow Active file (for the OOPS function).                      Ÿ
                                   39802              Ÿ                                                                     Ÿ
                                   39803              Ÿ    On entry:                                                        Ÿ
                                   39804              Ÿ      R15 - line-number                                              Ÿ
                                   39805              Ÿ      R1,R0 - line text loc, len                                     Ÿ
                                   39806              Ÿ                                                                     Ÿ
                                                      ¾þþþþþþþþþþþþþþþþþþþþþþþþþþþþþþþþþþþþþþþþþþþþþþþþþþþþþþþþþþþþþþþþþþþþþ»
0005A32 50E0 D000/9008_      00000 39807              VPUTLINE XPROC VPUTWA
 USING  *,R7
 USING  VPUTWA-(4+36),R8
 005A4C 185F                       39858                       LR    R5,R15              Save lineno
 005A4E 9001 812C            00104 39859                       STM   R0,R1,VPUTPTRS      Save line text ptrs
                                   39860                    ¿þþþþþþþþþþþþþþþþþþþþþþþþþþþþþþþþþþþþþþþþþþþþþþþþþþþþþþþþþþþþþþþþþþÜ
                                   39861                    Ÿ  First get the current version of this line's text and save it.  Ÿ
                                   39862                    ¾þþþþþþþþþþþþþþþþþþþþþþþþþþþþþþþþþþþþþþþþþþþþþþþþþþþþþþþþþþþþþþþþþþ»
 005A52 4110 8038/4100_      00010 39863                       SETMSG VPUTWLIN
 005A5A 58E0 797C/0DEE       063C8 39877                       VCALL GETLINE             Get current line contents
 005A60 4770 704C            05A98 39881                       IF    Z,BEGIN             Got it...
 005A64 9001 8124            000FC 39892  1                      STM   R0,R1,VPUTOPTR      Save line text loc, len
 005A68 4100 0007            00007 39893  1                      LA    R0,CP#OOPS          Previous lines kept here
 005A6C 41F0 B524            00524 39894  1                      LA    R15,CPRG16          Misc record group
 005A70 58E0 79CC/0DEE       06418 39895  1                      VCALL XSETSET
                                   39899  1
 005A76 D70F 8028 8028 00000 00000 39900  1                      CLEAR VPUTKEY
 005A7C D203 8028 B57C 00000 0057C 39907  1                      MVC   VPUTKEY(4),CPACTNO  Current Active file number
 005A82 5050 802C            00004 39908  1                      ST    R5,VPUTKEY+4        Current line-number
 005A86 4120 8028            00000 39909  1                      LA    R2,VPUTKEY
 005A8A 9801 8124            000FC 39910  1                      LM    R0,R1,VPUTOPTR      Line text loc, len
 005A8E 41F0 B524            00524 39911  1                      LA    R15,CPRG16          Undo record group
 005A92 58E0 79D0/0DEE       0641C 39912  1                      VCALL XPUT                Save previous line text
 005A98                            39916                       END
                                   39920                       ¿þþþþþþþþþþþþþþþþþþþþþþþÜ
                                   39921                       Ÿ  Now do the PUTLINE.  Ÿ
                                   39922                       ¾þþþþþþþþþþþþþþþþþþþþþþþ»
 005A98 18F5                       39923                       LR    R15,R5              Line-number
 005A9A 9801 812C            00104 39924                       LM    R0,R1,VPUTPTRS      Line text ptrs
 005A9E 58E0 79D4/0DEE       06420 39925                       VCALL PUTLINE             Save line text
                                   39929
 005AA4 18D8/9808 D004_            39930                       PEND
1PAGE     (PAGE2193) (12:50) (15MAR04) Page Editor Manager                                                                  Page  139
0Current Usings:  (PWA,R6) (CP,R11) (CV,R12)
0Loc    Object Code    Addr1 Addr2  Stmt Lv Lineno    Source Statement           (Hibal 5, Asmedit 3.3)  HLASM R4.0  2004/03/15 12.50
+___    ______ ____    _____ _____  ____ __ ______    ______ _________
0DROP   VPUTWA-(4+36),R8
 DROP   *,R7
1PAGE     (PAGE2193) (12:50) (15MAR04) Page Editor Manager                                                                  Page  140
0Current Usings:  (PWA,R6) (CP,R11) (CV,R12)
0Loc    Object Code    Addr1 Addr2  Stmt Lv Lineno    Source Statement           (Hibal 5, Asmedit 3.3)  HLASM R4.0  2004/03/15 12.50
+___    ______ ____    _____ _____  ____ __ ______    ______ _________
0                                  39956              ¿þþþþþþþþþþþþþþþþþþþþþþþþþþþþþþþþþþþþþþþþþþþþþþþþþþþþþþþþþþþþþþþþþþþþþÜ
                                   39957              Ÿ                                                                     Ÿ
                                   39958              Ÿ  CALCDIM -- Routine to calculate screen dimensions and update       Ÿ
                                   39959              Ÿ    the various lengths in the window control blocks.                Ÿ
                                   39960              Ÿ                                                                     Ÿ
                                                      ¾þþþþþþþþþþþþþþþþþþþþþþþþþþþþþþþþþþþþþþþþþþþþþþþþþþþþþþþþþþþþþþþþþþþþþ»
0005AB2 50E0 D000/9008_      00000 39961              CALCDIM  XPROC
 USING  *,R7
 005ACC 9680 BAC9      00AC9       40001                       SET   CPVFCLR             Redisplay the entire screen
                                   40007                       ¿þþþþþþþþþþþþþþþþþþþþþþþþþþþþþÜ
                                   40008                       Ÿ  Calculate default height.  Ÿ
                                   40009                       ¾þþþþþþþþþþþþþþþþþþþþþþþþþþþþþ»
 005AD0 5820 B468            00468 40010                       L     R2,CPTTYPEP
 USING  TTYPE,R2                   40011                       WITH  (TTYPE,R2)
                                   40024
 005AD4 4840 BAD4/1244       00AD4 40025                       LTH   R4,CPVHEI           Number of lines on page
 005ADA 4770 7030            05AFC 40029                       IF    Z,BEGIN
 005ADE 4840 B41C/1244       0041C 40040  1                      LTH   R4,CPSHEI           Get session default
 005AE4 4770 7030            05AFC 40044  1                      IF    NZ,EXIT             Got it, scram
 005AE8 1222                       40058  1                      LTR   R2,R2
 005AEA 4780 7028            05AF4 40059  1                      IF    NZ,BEGIN
 005AEE 4840 2008/1244       00008 40070  2                        LTH   R4,TTYHEI           Terminal height
 005AF4                            40074  1                      END
 005AF4 4770 7030            05AFC 40078  1                      IF    NZ,EXIT             Got it, scram
 005AF8 4140 0018            00018 40092  1                      LA    R4,24               Universal default
 005AFC                            40093                       END
                                   40097
 005AFC 5940 7958/47B0_      06424 40098                       FLOOR R4,10               Be reasonable
 005B08 5940 795C/47D0_      06428 40117                       CEIL  R4,LINTMAX#
 005B14 4040 BAD4            00AD4 40136                       STH   R4,CPVHEI           Page height
                                   40137                      ¿þþþþþþþþþþþþþþþþþþþþþþþþþþþþþþþþþþþþþþþþþþþþþþþþþþþþþþþþþþþþþþþþÜ
                                   40138                      Ÿ   Calculate default width.                                     Ÿ
                                   40139                      Ÿ                                                                Ÿ
                                   40140                      Ÿ                                                                Ÿ
                                   40141                      Ÿ  For VTAM we use the actual width minus one to allow room for  Ÿ
                                   40142                      Ÿ     those damn field attribute characters!                     Ÿ
                                   40143                      ¾þþþþþþþþþþþþþþþþþþþþþþþþþþþþþþþþþþþþþþþþþþþþþþþþþþþþþþþþþþþþþþþþ»
 005B18 9180 BACB/47E0_00ACB       40144                       IF    CPVFVTAM,BEGIN      VTAM is different...
 005B20 48F0 BAD2/12FF       00AD2 40159  1                      LTH   R15,CPVWID          Displayed width
 005B26 4780 7062/41F0_      05B2E 40163  1                      IF    NZ,'LA R15,@R15+1'  Re-adjust for logic below
 005B2E 7066/47F0 708E 05B2E 05B28 40180  1                      ELSE  BEGIN               No width set...
 005B32 48F0 BA9C/12FF       00A9C 40191  2                        LTH   R15,CPSAMWID        Samson width
 005B38 4770 708E            05B5A 40195  2                        IF    NZ,EXIT             Got it, scram
 005B3C 1222                       40209  2                        LTR   R2,R2
 005B3E 4780 707C            05B48 40210  2                        IF    NZ,BEGIN
 005B42 48F0 200A/12FF       0000A 40221  3                          LTH   R15,TTYWID          Terminal width
 005B48                            40225  2                        END
 005B48 4770 708E            05B5A 40229  2                        IF    NZ,EXIT             Got it, scram
 005B4C 48F0 B418/12FF       00418 40243  2                        LTH   R15,CPSWID          Get session default
 005B52 4770 708E            05B5A 40247  2                        IF    NZ,EXIT             Got it, scram
 005B56 41F0 0050            00050 40261  2                        LA    R15,80              Universal default
 005B5A                            40262  1                      END
                                   40266  1
1PAGE     (PAGE2193) (12:50) (15MAR04) Page Editor Manager                                                                  Page  141
0Current Usings:  (TTYPE,R2) (PWA,R6) (*,R7) (CP,R11) (CV,R12)
0Loc    Object Code    Addr1 Addr2  Stmt Lv Lineno    Source Statement           (Hibal 5, Asmedit 3.3)  HLASM R4.0  2004/03/15 12.50
+___    ______ ____    _____ _____  ____ __ ______    ______ _________
0005B5A 59F0 7960/47B0_      0642C 40267  1                      FLOOR R15,20              Be reasonable
 005B66 59F0 7964/47D0_      06430 40286  1                      CEIL  R15,255
 005B72 06F0                       40305  1                      DECR  R15                 Back down to length-1
 005B74 40F0 BAD2            00AD2 40307  1                      STH   R15,CPVWID          Save displayed width
 005B78 D201 BAD0 BAD2 00AD0 00AD2 40308  1                      MVC   CPVTWID,CPVWID      Buffer and displayed are the same
 005B7E                            40309                       END
                                   40313
 005B7E 70B6/47F0 7148 05B7E 05B1E 40314                       ELSE  BEGIN               Regular front-ends...
 005B82 48F0 BAD2/12FF       00AD2 40325  1                      LTH   R15,CPVWID          Displayed width
 005B88 4770 70DE            05BAA 40329  1                      IF    Z,BEGIN
 005B8C 48F0 BA9C/12FF       00A9C 40340  2                        LTH   R15,CPSAMWID        Samson width
 005B92 4770 70DE            05BAA 40344  2                        IF    NZ,EXIT             Got it, scram
 005B96 1222                       40358  2                        LTR   R2,R2
 005B98 4780 70D6            05BA2 40359  2                        IF    NZ,BEGIN
 005B9C 48F0 200A/12FF       0000A 40370  3                          LTH   R15,TTYWID          Terminal width
 005BA2                            40374  2                        END
 005BA2 4770 70DE            05BAA 40378  2                        IF    NZ,EXIT             Got it, scram
 005BA6 41F0 0050            00050 40392  2                        LA    R15,80              Universal default
 005BAA                            40393  1                      END
                                   40397  1
 005BAA 50F0 D000/41D0_      00000 40398  1                      XPUSH R15
 005BB2 59F0 7960/47B0_      0642C 40401  1                      FLOOR R15,20              Be reasonable
 005BBE 59F0 7964/47D0_      06430 40420  1                      CEIL  R15,255
 005BCA 40F0 BAD2            00AD2 40439  1                      STH   R15,CPVWID          Displayed width
 005BCE 59F0 7968/47B0_      06434 40440  1                      FLOOR R15,200
 005BDA 40F0 BAD0            00AD0 40459  1                      STH   R15,CPVTWID         Total width (generally 200)
 005BDE 4BD0 79A8/58F0_      06474 40460  1                      XPOP  R15
                                   40463  1                     ¿þþþþþþþþþþþþþþþþþþþþþþþþþþþþþþþþþþþþþþþþþþþþþþþþþþþþþþþþþþþþÜ
                                   40464  1                     Ÿ  For the pre-ALF front-ends (the RLG PDP-11) we have to    Ÿ
                                   40465  1                     Ÿ    make sure that "height*totalwidth" does not exceed the  Ÿ
                                   40466  1                     Ÿ    front-end limit.                                        Ÿ
                                   40467  1                     ¾þþþþþþþþþþþþþþþþþþþþþþþþþþþþþþþþþþþþþþþþþþþþþþþþþþþþþþþþþþþþ»
 005BE6 D501 79AA B34C_06476 0034C 40468  1                      IF    (CPSFE,EQ,'11'),BEGIN  PDP-11...
 005BF0 1B22                       40485  2                        CLEAR R2
 005BF2 4830 718C            05C58 40489  2                        LH    R3,DIMFEMAX         Maximum front-end buffer size
 005BF6 1D24                       40490  2                        DR    R2,R4               Divide by number of lines
 005BF8 5930 7968/47D0_      06434 40491  2                        CEIL  R3,200              Don't bother going past col 200
                                   40510  2
 005C04 19F3/47D0 7140_            40511  2                        CEIL  R15,R3
 005C0C 40F0 BAD2            00AD2 40517  2                        STH   R15,CPVWID          Displayed width
 005C10 4030 BAD0            00AD0 40518  2                        STH   R3,CPVTWID          Total width
 005C14                            40519  1                      END
 005C14                            40523                       END
                                   40527                       ¿þþþþþþþþþþþþþþþþþþþþþþþþþþþþþþþÜ
                                   40528                       Ÿ  Recalculate window lengths.  Ÿ
                                   40529                       ¾þþþþþþþþþþþþþþþþþþþþþþþþþþþþþþþ»
 005C14 4140 0001            00001 40530                       LA    R4,1
 005C18 5850 BB58            00B58 40531                       L     R5,CPWINDP
 005C1C 4940 BAD8/4730_      00AD8 40532                       WHILE (R4,LE,CPVWCNT),BEGIN  Go through windows...
 USING  WIND,R5                    40551  1                      WITH  (WIND,R5)
                                   40564  1
 005C24 48F0 500A            0000A 40565  1                      LH    R15,WINDTCOL        First text column
 005C28 06F0                       40566  1                      DECR  R15
 005C2A 4820 BAD0            00AD0 40568  1                      LH    R2,CPVTWID
1PAGE     (PAGE2193) (12:50) (15MAR04) Page Editor Manager                                                                  Page  142
0Current Usings:  (TTYPE,R2) (WIND,R5) (PWA,R6) (*,R7) (CP,R11) (CV,R12)
0Loc    Object Code    Addr1 Addr2  Stmt Lv Lineno    Source Statement           (Hibal 5, Asmedit 3.3)  HLASM R4.0  2004/03/15 12.50
+___    ______ ____    _____ _____  ____ __ ______    ______ _________
0005C2E 9120 5000/47E0_00000       40569  1                      IF    WINFUNN,'DECR R2'   Account for one char prot field
 005C38 1B2F                       40591  1                      SR    R2,R15              Maximum text length
 005C3A 4020 500C            0000C 40592  1                      STH   R2,WINDTLEN         Save it
                                   40593  1
 005C3E 4150 5040            00040 40594  1                      LA    R5,WINDNEXT
 005C42 4140 4001            00001 40595  1                      LA    R4,@R4+1
 005C46 47F0 7150            05C1C 40596                       END
 DROP   WIND,R5
                                   40606
 005C4A 18D8/9808 D004_            40607                       PEND
 DROP   TTYPE,R2
 DROP   *,R7
                                   40632
 005C58 1800                       40633              DIMFEMAX DC    H'6144'             Max old front-end buffer size
1PAGE     (PAGE2193) (12:50) (15MAR04) Page Editor Manager                                                                  Page  143
0Current Usings:  (PWA,R6) (CP,R11) (CV,R12)
0Loc    Object Code    Addr1 Addr2  Stmt Lv Lineno    Source Statement           (Hibal 5, Asmedit 3.3)  HLASM R4.0  2004/03/15 12.50
+___    ______ ____    _____ _____  ____ __ ______    ______ _________
0                                  40635              ¿þþþþþþþþþþþþþþþþþþþþþþþþþþþþþþþþþþþþþþþþþþþþþþþþþþþþþþþþþþþþþþþþþþþþþÜ
                                   40636              Ÿ                                                                     Ÿ
                                   40637              Ÿ  CALCCURS -- Local routine to calculate an absolute cursor          Ÿ
                                   40638              Ÿ    location on the page, given a line-number and a column.          Ÿ
                                   40639              Ÿ                                                                     Ÿ
                                   40640              Ÿ    On entry:                                                        Ÿ
                                   40641              Ÿ      R1 - column in the line (rel to one)                           Ÿ
                                   40642              Ÿ      R15- line-number                                               Ÿ
                                   40643              Ÿ                                                                     Ÿ
                                   40644              Ÿ    On exit, R15 (and cc):                                           Ÿ
                                   40645              Ÿ     -4 - no lineno;                                                 Ÿ
                                   40646              Ÿ            R0,R1 - cursor row,col of command line                   Ÿ
                                   40647              Ÿ      0 - ok;                                                        Ÿ
                                   40648              Ÿ            R0,R1 - absolute cursor row,col                          Ÿ
                                   40649              Ÿ      4 - can't find the lineno;                                     Ÿ
                                   40650              Ÿ            R0,R1 - next line's absolute cursor row,col              Ÿ
                                   40651              Ÿ                                                                     Ÿ
                                                      ¾þþþþþþþþþþþþþþþþþþþþþþþþþþþþþþþþþþþþþþþþþþþþþþþþþþþþþþþþþþþþþþþþþþþþþ»
0000000                00000 000F7 40652              CALCWA   RECORD BEGIN
 000000                            40660  1           CALCCRS    DS    D                   Cursor row, col
 000008                            40661  1           CALCRC     DS    F                   Saved return code
                                   40662  1
                                   40663  1           CALCLINE   DS    CL(&LINESZ)         Working line buffer
 00000C                                   1          +CALCLINE   DS    CL(235)             Working line buffer
 0000F7                000F7 000F7 40664                       END
                                   40673              þþþþ
 005C5A 50E0 D000/9028_      00000 40674              CALCCURS PROC  (R2,LSR),CALCWA
 USING  *,R7
 USING  CALCWA-(4+28),R8
                                   40723                       ¿þþþþþþþþþþþþþþþþþþþþþþþþþþþþþþþþþþþþþþþþþþþþþþþþþþþþþþþþþþþþþÜ
                                   40724                       Ÿ  Return the command line position if -1 line-number given.  Ÿ
                                   40725                       ¾þþþþþþþþþþþþþþþþþþþþþþþþþþþþþþþþþþþþþþþþþþþþþþþþþþþþþþþþþþþþþ»
 005C74 12FF/4740 706C             40726                       IF    (R15,NEG),CALCCMC   No line-number, scram
                                   40743                       ¿þþþþþþþþþþþþþþþþþþþþþþþþþþþÜ
                                   40744                       Ÿ  Get the current window.  Ÿ
                                   40745                       ¾þþþþþþþþþþþþþþþþþþþþþþþþþþþ»
 005C7A 4850 BAD6            00AD6 40746                       LH    R5,CPVWCUR
 005C7E 4C50 7804            06478 40747                       MH    R5,=AL2(L'WIND)
 005C82 5A50 BB5C            00B5C 40748                       A     R5,CPXWIND          Current window
 USING  WIND,R5                    40749                       WITH  (WIND,R5)
                                   40762                       ¿þþþþþþþþþþþþþþþþþþþþþþþþþþþþþþþþþþþþþþþþþþþÜ
                                   40763                       Ÿ  Look for the line-number in the window.  Ÿ
                                   40764                       ¾þþþþþþþþþþþþþþþþþþþþþþþþþþþþþþþþþþþþþþþþþþþ»
 005C86 1B00                       40765                       CLEAR R0                  We don't know the row yet
                                   40769
 005C88 4830 5006            00006 40770                       LH    R3,WINDFROW
 005C8C 1843                       40771                       LR    R4,R3
 005C8E 4C40 77F8            0646C 40772                       MH    R4,=AL2(L'LINT)
 005C92 5A40 BB64            00B64 40773                       A     R4,CPXLINT
 005C96 4930 5008/4730_      00008 40774                       WHILE (R3,LE,WINDLROW),BEGIN  Go through lines...
 USING  LINT,R4                    40793  1                      WITH  (LINT,R4)
                                   40806  1
 005C9E 9501 400C/4780_0000C       40807  1                      IF    (LINFNEW,OR,LINFTEXT),BEGIN  Text line...
1PAGE     (PAGE2193) (12:50) (15MAR04) Page Editor Manager                                                                  Page  144
0Current Usings:  (LINT,R4) (WIND,R5) (PWA,R6) (*,R7) (CALCWA-(4+28),R8) (CP,R11) (CV,R12)
0Loc    Object Code    Addr1 Addr2  Stmt Lv Lineno    Source Statement           (Hibal 5, Asmedit 3.3)  HLASM R4.0  2004/03/15 12.50
+___    ______ ____    _____ _____  ____ __ ______    ______ _________
0005CAE 1803                       40836  2                        LR    R0,R3               Save text cursor row
                                   40837  2
 005CB0 59F0 4010/4730_      00010 40838  2                        IF    (LINTLNO,GE,R15),BEGIN  We've reached the lineno...
 005CB8 59F0 4010/4770_      00010 40855  3                          IF    (R15,EQ,LINTLNO),'CLEAR R15'
 005CC2 7052/47F0 7056_05CC2 05CBE 40881  3                          ELSE  'LA R15,4'
 005CCA 47F0 7080            05CF4 40898  3                          B     CALCCOL
 005CCE                            40899  2                        END
 005CCE                            40903  1                      END
                                   40907  1
 005CCE 4140 4014            00014 40908  1                      LA    R4,LINTNEXT
 005CD2 4130 3001            00001 40909  1                      LA    R3,@R3+1
 005CD6 47F0 7022            05C96 40910                       END
 DROP   LINT,R4
                                   40920
 005CDA 1200/4770 707C             40921                       IF    (R0,Z),BEGIN        No text lines...
 005CE0 48F0 7806            0647A 40935  1           CALCCMC    LH    R15,=H'-4'
 005CE4 4800 BB4C/4110_      00B4C 40936  1                      CURS  LH:CPVCMDR,12       Command line cursor position
 005CEC 47F0 7136            05DAA 40948  1                      B     CALCEXIT
 005CF0                            40949                       END
                                   40953
 005CF0 41F0 0004            00004 40954                       LA    R15,4               No match; pos to last text line
 005CF4 50F0 8028            00008 40955              CALCCOL  ST    R15,CALCRC          Save return code
 005CF8 9001 8020            00000 40956                       STM   R0,R1,CALCCRS       Save cursor row,col
                                   40957                       ¿þþþþþþþþþþþþþþþþþþþþþþþþþþþþþþþþþþþþþþþþþþþþþþþþþÜ
                                   40958                       Ÿ  Calculate specific indentation, if necessary.  Ÿ
                                   40959                       ¾þþþþþþþþþþþþþþþþþþþþþþþþþþþþþþþþþþþþþþþþþþþþþþþþþ»
 005CFC 1211/4770 7112             40960                       IF    (R1,Z),BEGIN        No specific column yet...
 005D02 41F0 0001            00001 40974  1                      LA    R15,1
 005D06 4AF0 5010            00010 40975  1                      AH    R15,WINDIND         Get default indentation
                                   40976  1
 005D0A 12FF/4720 710E             40977  1                      IF    (R15,NP),BEGIN      Do auto indentation...
 005D10 1840                       40991  2                        LR    R4,R0
 005D12 4C40 77F8            0646C 40992  2                        MH    R4,=AL2(L'LINT)
 005D16 5A40 BB64            00B64 40993  2                        A     R4,CPXLINT
 USING  LINT,R4                    40994  2                        WITH  (LINT,R4)
                                   41007  2
 005D1A 9502 400C/4780_0000C       41008  2                        IF    (~LINFTEXT,AND,~LINFNEW),EXIT  Can't indent, scram
                                   41040  2
 005D2A 58F0 4010            00010 41041  2                        L     R15,LINTLNO         Line-number
 005D2E 59F0 B5A4/47D0_      005A4 41042  2                        IF    (R15,GT,CPALLNO),'L R15,CPALLNO'  Don't go past eof
 005D3A 4110 802C            0000C 41065  2                        LA    R1,CALCLINE
 005D3E 58E0 7754/0DEE       063C8 41066  2                        VCALL GETLINE             Get line text
 005D44 4770 70DA/1200_      05D4E 41070  2                        IF    (NZ,OR,(R0,Z)),BEGIN  Look at previous line...
 005D4E 58E0 77C4/0DEE       06438 41094  3                          VCALL PREVLNO             Get previous lineno
 005D54 58F0 B73C            0073C 41098  3                          L     R15,CPLCNO
 005D58 4110 802C            0000C 41099  3                          LA    R1,CALCLINE
 005D5C 58E0 7754/0DEE       063C8 41100  3                          VCALL GETLINE             Get previous line text
 005D62                            41104  2                        END
                                   41108  2
 005D62 41F0 0001            00001 41109  2                        LA    R15,1               Calc first non-blank column
 005D66 1200/47D0 710E_            41110  2                        WHILE ((R0,POS),AND,(@R1,EQ,' ')),BEGIN  Find non-blank...
 005D74 41F0 F001            00001 41141  3                          LA    R15,@R15+1
 005D78 4110 1001            00001 41142  3                          LA    R1,@R1+1
 005D7C 0600                       41143  3                          DECR  R0
1PAGE     (PAGE2193) (12:50) (15MAR04) Page Editor Manager                                                                  Page  145
0Current Usings:  (LINT,R4) (WIND,R5) (PWA,R6) (*,R7) (CALCWA-(4+28),R8) (CP,R11) (CV,R12)
0Loc    Object Code    Addr1 Addr2  Stmt Lv Lineno    Source Statement           (Hibal 5, Asmedit 3.3)  HLASM R4.0  2004/03/15 12.50
+___    ______ ____    _____ _____  ____ __ ______    ______ _________
0005D7E 47F0 70F2            05D66 41145  2                        END
 DROP   LINT,R4                    41150  1                      END
                                   41159  1
 005D82 50F0 8024            00004 41160  1                      ST    R15,CALCCRS+4       Save calculated column
 005D86                            41161                       END
                                   41165                       ¿þþþþþþþþþþþþþþþþþþþþþþþþþþþþþþþþþþþþþþþþþþþþþþþþþþþþþþÜ
                                   41166                       Ÿ  Convert the column to an absolute column position.  Ÿ
                                   41167                       ¾þþþþþþþþþþþþþþþþþþþþþþþþþþþþþþþþþþþþþþþþþþþþþþþþþþþþþþ»
 005D86 9801 8020            00000 41168                       LM    R0,R1,CALCCRS       Restore cursor row,col
 005D8A 0610                       41169                       DECR  R1                  Rel to zero
 005D8C 4B10 500E            0000E 41171                       SH    R1,WINDFCOL         Adjust for cols being displayed
 005D90 47B0 7122/1B11       05D96 41172                       IF    NEG,'CLEAR R1'      First possible col
 005D96 4910 500C/47D0_      0000C 41192                       IF    (R1,GT,WINDTLEN),'LH R1,WINDTLEN'  Last possible col
 005DA2 4A10 500A            0000A 41215                       AH    R1,WINDTCOL         Convert to absolute column
                                   41216
 005DA6 58F0 8028            00008 41217                       L     R15,CALCRC          Return code
                                   41218
 005DAA 18D8/9828 D004_            41219              CALCEXIT PEND
 DROP   WIND,R5
 DROP   CALCWA-(4+28),R8
 DROP   *,R7
1PAGE     (PAGE2193) (12:50) (15MAR04) Page Editor Manager                                                                  Page  146
0Current Usings:  (PWA,R6) (CP,R11) (CV,R12)
0Loc    Object Code    Addr1 Addr2  Stmt Lv Lineno    Source Statement           (Hibal 5, Asmedit 3.3)  HLASM R4.0  2004/03/15 12.50
+___    ______ ____    _____ _____  ____ __ ______    ______ _________
0                                  41251              ¿þþþþþþþþþþþþþþþþþþþþþþþþþþþþþþþþþþþþþþþþþþþþþþþþþþþþþþþþþþþþþþþþþþþþþÜ
                                   41252              Ÿ                                                                     Ÿ
                                   41253              Ÿ  GETFIELD -- Routine to pick out the next field in the read         Ÿ
                                   41254              Ÿ    buffer.  This routine also processes the model terminal          Ÿ
                                   41255              Ÿ    sequences (which are also in the read buffer).                   Ÿ
                                   41256              Ÿ                                                                     Ÿ
                                   41257              Ÿ    On exit, R15 (and cc):                                           Ÿ
                                   41258              Ÿ      0 - field returned in PWAFIELD (R0,R1 - cursor)                Ÿ
                                   41259              Ÿ      4 - no more fields                                             Ÿ
                                   41260              Ÿ                                                                     Ÿ
                                                      ¾þþþþþþþþþþþþþþþþþþþþþþþþþþþþþþþþþþþþþþþþþþþþþþþþþþþþþþþþþþþþþþþþþþþþþ»
0000000                00000 00034 41261              FIELDWA  RECORD BEGIN
 000000 00                         41269  1           FIELDFLG   FLAG
 FIELDFLG.FIELDFST 80 ONES         41273  1                      FLAG  FIELDFST            - Start of field processed
                                   41278  1
 000004                            41279  1           FIELDSTA   DS    A                   Start of field
                                   41280  1
 000008 00                         41281  1           FIELDCSF   FLAG
 FIELDCSF.FIELDFL  80 ONES         41285  1                      FLAG  FIELDFL             - Local CSI sequence
                                   41290  1
                                   41291  1           FIELDCS#   EQU   10                  Max no. of parms
 00000A                            41292  1           FIELDCSN   DS    H                   Current no. of parms
 00000C                            41293  1           FIELDCS    DS    (FIELDCS#)F         Parms
                                   41294  1           FIELDC     EQU   FIELDCSF,*-FIELDCSF,C'X'
 000034                00034 00034 41295                       END
                                   41304              þþþþ
 005DB8 50E0 D000/9028_      00000 41305              GETFIELD PROC  (R2,LSR),FIELDWA
 USING  *,R7
 USING  FIELDWA-(4+28),R8
 005DD2 D733 8020 8020 00000 00000 41354                       CLEAR FIELDWA
                                   41361
 005DD8 5850 6014            00014 41362                       L     R5,PWARLOC          Data ptr
 005DDC 4840 6010            00010 41363                       LH    R4,PWARLEN          Remaining length
                                   41364
 005DE0 5050 8024            00004 41365              GETFNLP  ST    R5,FIELDSTA         Start of field
 005DE4 1244/47D0 716C             41366              GETFLP   IF    (R4,NP),GETFDONE    All done
 005DEA 18F4                       41384                       LR    R15,R4
 005DEC 59F0 766A/47D0_      0643C 41385                       CEIL  R15,256
 005DF8 1B22                       41404                       CLEAR R2
 005DFA 411F 5000            00000 41408                       LA    R1,@R5(R15)
 005DFE 06F0/44F0 76C8_            41409                       DEX   R15,'TRT @R5(0),ESCTBL'  Look for ESC (start of CSI)
 005E04 1B15                       41428                       SR    R1,R5
 005E06 4155 1000            00000 41429                       LA    R5,@R1(R5)          Kick...
 005E0A 1B41                       41430                       SR    R4,R1               ...ptrs
                                   41431
 005E0C 1222/4780 7012             41432                       IF    (R2,Z),GETFLP       No match, go back
 005E12 D501 76EC 5000_064BE 00000 41449                       IF    (@R5,NE,$CSI),BEGIN  Not a CSI...
 005E1C 4150 5001            00001 41466  1                      LA    R5,@R5+1
 005E20 0640                       41467  1                      DECR  R4
 005E22 47F0 7012            05DE4 41469  1                      B     GETFLP              Go back
 005E26                            41470                       END
                                   41474
 005E26 9180 8020/4710_00000       41475                       IF    FIELDFST,GETFDONE   We have a field, scram
1PAGE     (PAGE2193) (12:50) (15MAR04) Page Editor Manager                                                                  Page  147
0Current Usings:  (PWA,R6) (*,R7) (FIELDWA-(4+28),R8) (CP,R11) (CV,R12)
0Loc    Object Code    Addr1 Addr2  Stmt Lv Lineno    Source Statement           (Hibal 5, Asmedit 3.3)  HLASM R4.0  2004/03/15 12.50
+___    ______ ____    _____ _____  ____ __ ______    ______ _________
0                                  41493                       ¿þþþþþþþþþþþþþþþþþþþþþþþþþþþþþþÜ
                                   41494                       Ÿ  Process control sequences.  Ÿ
                                   41495                       ¾þþþþþþþþþþþþþþþþþþþþþþþþþþþþþþ»
 005E2E D72B 8028 8028 00008 00008 41496                       CLEAR FIELDC
 005E34 4150 5002            00002 41503                       LA    R5,@R5+2            Start of CSI
 005E38 4B40 76AA            0647C 41504                       SH    R4,=H'2'
 005E3C 47D0 7080/954C_      05E52 41505                       IF    (POS,AND,(@R5,EQ,'<')),BEGIN  Local CSI seq...
 005E48 9680 8028      00008       41531  1                      SET   FIELDFL             Remember that it's a local seq
 005E4C 4150 5001            00001 41537  1                      LA    R5,@R5+1
 005E50 0640                       41538  1                      DECR  R4
 005E52                            41540                       END
                                   41544
 005E52                            41545                       LOOP  BEGIN
 005E52 1815/1804/58E0_            41551  1                      DTB   (R5),(R4)           Pick up a numeric parameter
 005E5C 4820 802A            0000A 41568  1                      LH    R2,FIELDCSN         Parameter number
 005E60 5920 7672/47B0_      06444 41569  1                      IF    (R2,LT,FIELDCS#),BEGIN
 005E68 8920 0002            00002 41586  2                        SLL   R2,2
 005E6C 50F2 802C            0000C 41587  2                        ST    R15,FIELDCS(R2)     Save parameter
 005E70 41F0 0001/4AF0_      00001 41588  2                        INCR  R15,FIELDCSN
 005E7C                            41594  1                      END
                                   41598  1
 005E7C 4150 1001            00001 41599  1                      LA    R5,@R1+1
 005E80 1840                       41600  1                      LR    R4,R0
 005E82 0640                       41601  1                      DECR  R4
 005E84 955E 1000/4770_00000       41603  1                      UNTIL (@R1,NE,';')
 005E8C 47F0 7080            05E52 41623                       END
                                   41628
 005E90 9180 8028/47E0_00008       41629                       IF    FIELDFL,BEGIN       Local sequence...
 005E98 D500 7758 1000_0652A 00000 41644  1                      IF    (@R1,EQ,$RFC),BEGIN  Ending function code...
 005EA2 D200 6018 802F 00018 0000F 41661  2                        MVC   PWAFUNC,FIELDCS+3   Save function code
 005EA8 D200 BACC 8033 00ACC 00013 41662  2                        MVC   CPVMODE,FIELDCS+4+3  Save new editing mode
 005EAE 58F0 8034            00014 41663  2                        L     R15,FIELDCS+8       Word separator character...
 005EB2 12FF/4780 70F4             41664  2                        IF    (R15,NZ),BEGIN      We have something...
 005EB8 5810 C8B4            008B4 41678  3                          L     R1,CVEBCTBL
 005EBC 411F 1000            00000 41679  3                          LA    R1,@R1(R15)
 005EC0 1FFF/43F0 1000             41680  3                          LC    R15,@R1             Word character in EBCDIC
 005EC6                            41687  2                        END
 005EC6 42F0 BACD            00ACD 41691  2                        STC   R15,CPVWCHAR        Save new word separator char
 005ECA                            41692  1                      END
                                   41696  1
 005ECA 70FC/47F0 7150_05ECA 05EA0 41697  1                      ELSEIF (@R1,EQ,$RCP),BEGIN  Ending cursor position...
 005ED8 D207 BAE0 802C 00AE0 0000C 41723  2                        MVC   CPVCURS,FIELDCS     Save ending cursor position
 005EDE 9180 BACB/4710_00ACB       41724  2                        IF    ~CPVFVTAM,BEGIN     Don't save alternate if VTAM...
 005EE6 D207 BAF0 8034 00AF0 00014 41739  3                          MVC   CPVACURS,FIELDCS+8  Save alternate cursor position
 005EEC                            41740  2                        END
                                   41744  2
 005EEC D207 62F8 803C 002F8 0001C 41745  2                        MVC   PWAFCURS,FIELDCS+16 Save FBLOCK cursor position
 005EF2 D207 6300 8044 00300 00024 41746  2                        MVC   PWALCURS,FIELDCS+24 Save LBLOCK cursor position
                                   41747  2
 005EF8 58F0 BAE0            00AE0 41748  2                        L     R15,CPVCURS         Tidy up alt cursor...
 005EFC 49F0 BB4C/4780_      00B4C 41749  2                        IF    (R15,NE,CPVCMDR),'CLEAR CPVACURS'  No alternate
                                   41778  2
 005F0A 9180 6000/47E0_00000       41779  2                        IF    PWAFESC,BEGIN       ESC emulation mode...
 005F12 D607 BAF0 BAF0_00AF0 00AF0 41794  3                          IF    (CPVACURS,NZ),'MVC CPVCURS,CPVACURS'  Repos cursor
1PAGE     (PAGE2193) (12:50) (15MAR04) Page Editor Manager                                                                  Page  148
0Current Usings:  (PWA,R6) (*,R7) (FIELDWA-(4+28),R8) (CP,R11) (CV,R12)
0Loc    Object Code    Addr1 Addr2  Stmt Lv Lineno    Source Statement           (Hibal 5, Asmedit 3.3)  HLASM R4.0  2004/03/15 12.50
+___    ______ ____    _____ _____  ____ __ ______    ______ _________
0005F22                            41816  2                        END
 005F22                            41820  1                      END
                                   41824  1
 005F22 7154/47F0 7168_05F22 05ED6 41825  1                      ELSEIF (@R1,EQ,$RFP),BEGIN  Field cursor position...
 005F30 9680 8020      00000       41851  2                        SET   FIELDFST            Start of a field
 005F34 D207 6308 802C 00308 0000C 41857  2                        MVC   PWACURS,FIELDCS     Cursor position
 005F3A                            41858  1                      END
 005F3A                            41862                       END
                                   41866
 005F3A 47F0 700E            05DE0 41867                       B     GETFNLP
                                   41868
 005F3E 9180 8020/4710_00000       41869              GETFDONE IF    ~FIELDFST,BEGIN     No field...
 005F46 D2EA 6312 C4D8 00312 004D8 41885  1                      MVC   PWAFIELD,CVBLANKS
 005F4C D701 6310 6310_00310 00310 41886  1                      CLEAR PWAFLEN,PWACURS
 005F58 4840 76AC            0647E 41898  1                      LH    R4,=H'-1'
 005F5C 41F0 0004            00004 41899  1                      LA    R15,4               Nothing left
 005F60                            41900                       END
                                   41904
 005F60 7192/47F0 71C8 05F60 05F44 41905                       ELSE  BEGIN               We have a field...
 005F64 D701 6310 6310 00310 00310 41916  1                      CLEAR PWAFLEN
 005F6A D2EA 6312 C4D8 00312 004D8 41923  1                      MVC   PWAFIELD,CVBLANKS   Pre-set blank field
                                   41924  1
 005F70 5810 8024            00004 41925  1                      L     R1,FIELDSTA         Start of field
 005F74 18F5                       41926  1                      LR    R15,R5
 005F76 1BF1                       41927  1                      SR    R15,R1              Length of field
 005F78 47D0 71C6            05F98 41928  1                      IF    POS,BEGIN           There is a field...
 005F7C 59F0 7676/47D0_      06448 41939  2                        CEIL  R15,L'PWAFIELD
 005F88 40F0 6310            00310 41958  2                        STH   R15,PWAFLEN
 005F8C 06F0/12FF/4740_            41959  2                        MOVE  R15,PWAFIELD,@R1    Move in field
 005F98                            41997  1                      END
 005F98 1BFF                       42001  1                      CLEAR R15                 Set rc
 005F9A                            42005                       END
                                   42009
 005F9A 5050 6014            00014 42010              GETFEXIT ST    R5,PWARLOC          Save new location...
 005F9E 4040 6010            00010 42011                       STH   R4,PWARLEN          ...and remaining length
 005FA2 9801 6308            00308 42012                       LM    R0,R1,PWACURS
                                   42013
 005FA6 18D8/9828 D004_            42014                       PEND
 DROP   FIELDWA-(4+28),R8
 DROP   *,R7
                                   42039
 005FB4 0000000000000000           42040              ESCTBL   DC    XL256'00'
 0060B4                060B4 05FDB 42041                       ORG   ESCTBL+X'27'
 005FDB 27                         42042                       DC    X'27'
 005FDC                05FDC 060B4 42043                       ORG
1PAGE     (PAGE2193) (12:50) (15MAR04) Page Editor Manager                                                                  Page  149
0Current Usings:  (PWA,R6) (CP,R11) (CV,R12)
0Loc    Object Code    Addr1 Addr2  Stmt Lv Lineno    Source Statement           (Hibal 5, Asmedit 3.3)  HLASM R4.0  2004/03/15 12.50
+___    ______ ____    _____ _____  ____ __ ______    ______ _________
0                                  42045              ¿þþþþþþþþþþþþþþþþþþþþþþþþþþþþþþþþþþþþþþþþþþþþþþþþþþþþþþþþþþþþþþþþþþþþþÜ
                                   42046              Ÿ                                                                     Ÿ
                                   42047              Ÿ  DISPTEXT -- Local routine to display text with rendition and       Ÿ
                                   42048              Ÿ    attribute buffers.                                               Ÿ
                                   42049              Ÿ                                                                     Ÿ
                                   42050              Ÿ    On entry:                                                        Ÿ
                                   42051              Ÿ      R6 - PWA ptr                                                   Ÿ
                                   42052              Ÿ      R1,R0 - text location, length                                  Ÿ
                                   42053              Ÿ      R2 - rendition mapping buffer                                  Ÿ
                                   42054              Ÿ      R3 - attribute mapping buffer                                  Ÿ
                                   42055              Ÿ                                                                     Ÿ
                                                      ¾þþþþþþþþþþþþþþþþþþþþþþþþþþþþþþþþþþþþþþþþþþþþþþþþþþþþþþþþþþþþþþþþþþþþþ»
0000000                00000 00114 42056              DISPWA   RECORD BEGIN
 000000 00                         42064  1           DISPFLAG   FLAG
 DISPFLAG.DISFRULE 80 ONES         42068  1                      FLAG  DISFRULE            - We are in the ruling char set
                                   42073  1
 000002                            42074  1           DISPLEN    DS    H                   Remaining length
 000004                            42075  1           DISPXLEN   DS    H                   Working length
 000006                            42076  1           DISPBLEN   DS    H                   Working blank count
                                   42077  1
 000008                            42078  1           DISPTPTR   DS    A                   Working text ptr
 00000C                            42079  1           DISPRPTR   DS    A                   Working rendition ptr
 000010                            42080  1           DISPAPTR   DS    A                   Working attribute ptr
                                   42081  1
 000014                            42082  1           DISPTBL    DS    XL256               Working TRT table
 000114                00114 00114 42083                       END
                                   42092              þþþþ
 0060B4 50E0 D000/9008_      00000 42093              DISPTEXT PROC  DISPWA
 USING  *,R7
 USING  DISPWA-(4+36),R8
                                   42143
 0060CE 9200 8028      00000       42144                       CLEAR DISPFLAG
 0060D2 4000 802A            00002 42151                       STH   R0,DISPLEN
 0060D6 9013 8030            00008 42152                       STM   R1,R3,DISPTPTR
                                   42153
 0060DA 92FF 803C      00014       42154                       MVI   DISPTBL,X'FF'
 0060DE D2FE 803D 803C 00015 00014 42155                       MVC   DISPTBL+1(L'DISPTBL-1),DISPTBL  Initialize TRT table
                                   42156
 0060E4 48F0 802A/12FF_      00002 42157                       WHILE ('LTH R15,DISPLEN',POS),BEGIN  Process text...
                                   42175  1                      ¿þþþþþþþþþþþþþþþþþþþþþþþþþþþþþþþÜ
                                   42176  1                      Ÿ  Set any special attributes.  Ÿ
                                   42177  1                      ¾þþþþþþþþþþþþþþþþþþþþþþþþþþþþþþþ»
 0060EE 5850 8038            00010 42178  1                      L     R5,DISPAPTR         Attribute buffer
 0060F2 9180 5000/47E0_00000       42179  1                      IF    @R5.PWAAFBLK,'TSEG L:=A($SETFBLK),L"$SETFBLK'
 00610C 9140 5000/47E0_00000       42228  1                      IF    @R5.PWAALBLK,'TSEG L:=A($SETLBLK),L"$SETLBLK'
                                   42277  1                      ¿þþþþþþþþþþþþþþþþþþþþþþþþþþþþþþþþþþþþÜ
                                   42278  1                      Ÿ  Find the next special attribute.  Ÿ
                                   42279  1                      ¾þþþþþþþþþþþþþþþþþþþþþþþþþþþþþþþþþþþþ»
 006126 48F0 802A            00002 42280  1                      LH    R15,DISPLEN
 00612A 411F 5000            00000 42281  1                      LA    R1,@R5(R15)
 00612E 4130 5001            00001 42282  1                      LA    R3,@R5+1
 006132 06F0                       42283  1                      DECR  R15
 006134 9200 803C      00014       42285  1                      MVI   DISPTBL,0
1PAGE     (PAGE2193) (12:50) (15MAR04) Page Editor Manager                                                                  Page  150
0Current Usings:  (PWA,R6) (*,R7) (DISPWA-(4+36),R8) (CP,R11) (CV,R12)
0Loc    Object Code    Addr1 Addr2  Stmt Lv Lineno    Source Statement           (Hibal 5, Asmedit 3.3)  HLASM R4.0  2004/03/15 12.50
+___    ______ ____    _____ _____  ____ __ ______    ______ _________
0006138 06F0/12FF/4740_            42286  1                      DTEX  R15,'TRT @R3(0),DISPTBL'  Look for an attribute
 006144 92FF 803C      00014       42323  1                      MVI   DISPTBL,X'FF'       (Restore TRT table)
 006148 1B15                       42324  1                      SR    R1,R5               Length until attribute
 00614A 4010 802C            00004 42325  1                      STH   R1,DISPXLEN
 00614E 1831                       42326  1                      LR    R3,R1
                                   42327  1                      ¿þþþþþþþþþþþþþþþþþþþþþþþþþþþþþþþþþþþþþþþþþþþþþþþþþþþþþþþþþÜ
                                   42328  1                      Ÿ  Process the text up until the next special attribute.  Ÿ
                                   42329  1                      Ÿ    R5=text ptr, R4=rendition ptr, R3=length             Ÿ
                                   42330  1                      ¾þþþþþþþþþþþþþþþþþþþþþþþþþþþþþþþþþþþþþþþþþþþþþþþþþþþþþþþþþ»
 006150 5850 8030            00008 42331  1                      L     R5,DISPTPTR
 006154 5840 8034            0000C 42332  1                      L     R4,DISPRPTR
 006158 1233/47D0 7222             42333  1                      WHILE (R3,POS),BEGIN      Go through text...
                                   42349  2                        ¿þþþþþþþþþþþþþþþþþþþþþþÜ
                                   42350  2                        Ÿ  Set the rendition.  Ÿ
                                   42351  2                        ¾þþþþþþþþþþþþþþþþþþþþþþ»
 00615E 48F0 62F0            002F0 42352  2                        LH    R15,PWADEFR
 006162 58E0 7386/0DEE       06454 42353  2                        TREND
 006168 9101 4000/47E0_00000       42359  2                        IF    @R4.PWARSPEL,'TREND SPELL'  Misspelled word
 00617A 9120 4000/47E0_00000       42387  2                        IF    @R4.PWARMARK,'TREND MARK'  Marked text
 00618C 9102 4000/47E0_00000       42415  2                        IF    @R4.PWARBOLD,'TREND BOLD'  Bold
 00619E 9108 4000/47E0_00000       42443  2                        IF    @R4.PWARCOLM,'TREND COLM'  Column line past margin
 0061B0 9110 4000/47E0_00000       42471  2                        IF    @R4.PWARCOLT,'TREND COLT'  Column line with tab
                                   42499  2
 0061C2 9104 4000/47E0_00000       42500  2                        IF    @R4.PWARRULE,BEGIN  Ruling char set...
 0061CA 9180 8028/4710_00000       42516  3                          IF    ~DISFRULE,BEGIN     Not currently in ruling set...
 0061D2 5810 738A/4100_      06458 42531  4                            TSEG  L:=A($SO),L'$SO     Ruling char set
 0061E4 9680 8028      00000       42559  4                            SET   DISFRULE
 0061E8                            42565  3                          END
 0061E8                            42569  2                        END
 0061E8 711E/47F0 713C 061E8 061C8 42573  2                        ELSE  BEGIN               Normal char set...
 0061EC 9180 8028/47E0_00000       42584  3                          IF    DISFRULE,BEGIN      Not currently in normal set...
 0061F4 5810 738E/4100_      0645C 42599  4                            TSEG  L:=A($SI),L'$SI     Normal char set
 006206 947F 8028      00000       42627  4                            CLEAR DISFRULE
 00620A                            42634  3                          END
 00620A                            42638  2                        END
                                   42642  2
 00620A 1FEE/43E0 4000             42643  2                        LC    R14,@R4             Get current rendition
 006210 41EE 803C            00014 42650  2                        LA    R14,DISPTBL(R14)
 006214 9200 E000      00000       42651  2                        MVI   @R14,0
 006218 18F3                       42652  2                        LR    R15,R3
 00621A 4113 4000            00000 42653  2                        LA    R1,@R4(R3)
 00621E 06F0/44F0 73DE_            42654  2                        DEX   R15,'TRT @R4(0),DISPTBL'  Look for changed rendition
 006224 92FF E000      00000       42673  2                        MVI   @R14,X'FF'          (Restore TRT table)
 006228 1B14                       42674  2                        SR    R1,R4               No. of chars that have this rend
 00622A 1821                       42675  2                        LR    R2,R1
                                   42676  2                    ¿þþþþþþþþþþþþþþþþþþþþþþþþþþþþþþþþþþþþþþþþþþþþþþþþþþþþþþþþþþþþþþþþþþþÜ
                                   42677  2                    Ÿ  Write the text (sending multiple blanks with the BCT sequence).  Ÿ
                                   42678  2                    ¾þþþþþþþþþþþþþþþþþþþþþþþþþþþþþþþþþþþþþþþþþþþþþþþþþþþþþþþþþþþþþþþþþþþ»
 00622C 1222/47D0 721E             42679  2           DISPWLP      WHILE (R2,POS),BEGIN
 006232 4112 5000            00000 42696  3                          LA    R1,@R5(R2)
 006236 58F0 C8B8            008B8 42697  3                          L     R15,CVBLTBL
 00623A 18E2                       42698  3                          LR    R14,R2
 00623C 0620/4420 73E4_            42699  3                          DEX   R2,'TRT @R5(0),@R15'   Look for a non-blank
 006242 182E                       42718  3                          LR    R2,R14
1PAGE     (PAGE2193) (12:50) (15MAR04) Page Editor Manager                                                                  Page  151
0Current Usings:  (PWA,R6) (*,R7) (DISPWA-(4+36),R8) (CP,R11) (CV,R12)
0Loc    Object Code    Addr1 Addr2  Stmt Lv Lineno    Source Statement           (Hibal 5, Asmedit 3.3)  HLASM R4.0  2004/03/15 12.50
+___    ______ ____    _____ _____  ____ __ ______    ______ _________
0006244 1B15                       42719  3                          SR    R1,R5               Blank count
                                   42720  3
 006246 47D0 71E4            062B2 42721  3                          IF    POS,BEGIN           We have some blanks...
 00624A 4010 802E            00006 42732  4                            STH   R1,DISPBLEN
 00624E 5910 7392/4750_      06460 42733  4                            IF    (R1,GE,6),BEGIN     Mult blank sequence...
 006256 5810 7396/4100_      06464 42750  5                              TSEG  L:=A($LCSI),L'$LCSI
 006268 4810 802E/1B00_      00006 42778  5                              TNUM  LH:DISPBLEN
 006278 5810 739A/4100_      06468 42799  5                              TSEG  L:=A($BCT),L'$BCT
 00628A                            42827  4                            END
 00628A 71C0/47F0 71D0 0628A 06254 42831  4                            ELSE  BEGIN               Just write blanks...
 00628E 1801                       42842  5                              LR    R0,R1
 006290 4110 C4D8/41F0_      004D8 42843  5                              TSEG  CVBLANKS,(R0)
 00629E                            42870  4                            END
                                   42874  4
 00629E 4A50 802E            00006 42875  4                            AH    R5,DISPBLEN         Kick text ptr
 0062A2 4A40 802E            00006 42876  4                            AH    R4,DISPBLEN         Kick rendition ptr
 0062A6 4B30 802E            00006 42877  4                            SH    R3,DISPBLEN         Decrement remaining length
 0062AA 4B20 802E            00006 42878  4                            SH    R2,DISPBLEN         Decrement our length
 0062AE 47D0 721E            062EC 42879  4                            IF    NP,EXIT,DISPWLP     All done, scram
 0062B2                            42893  3                          END
                                   42897  3
 0062B2 4112 5000            00000 42898  3                          LA    R1,@R5(R2)
 0062B6 58F0 C8BC            008BC 42899  3                          L     R15,CVNBLTBL
 0062BA 18E2                       42900  3                          LR    R14,R2
 0062BC 0620/4420 73EA_            42901  3                          DEX   R2,'TRT @R5(0),@R15'   Look for a blank
 0062C2 182E                       42920  3                          LR    R2,R14
 0062C4 1B15                       42921  3                          SR    R1,R5               No. of non-blanks
 0062C6 1801                       42922  3                          LR    R0,R1
 0062C8 4000 802E            00006 42923  3                          STH   R0,DISPBLEN         Save count
 0062CC 1815/41F0 B050_            42924  3                          TSEG  (R5),(R0)           Write non-blank text
                                   42949  3
 0062D8 4A50 802E            00006 42950  3                          AH    R5,DISPBLEN         Kick text ptr
 0062DC 4A40 802E            00006 42951  3                          AH    R4,DISPBLEN         Kick rendition ptr
 0062E0 4B30 802E            00006 42952  3                          SH    R3,DISPBLEN         Decrement remaining length
 0062E4 4B20 802E            00006 42953  3                          SH    R2,DISPBLEN         Decrement our length
 0062E8 47F0 715E            0622C 42954  2                        END
                                   42959  2
 0062EC 47F0 708A            06158 42960  1                      END
                                   42965  1
 0062F0 58F0 8030            00008 42966  1                      L     R15,DISPTPTR
 0062F4 4AF0 802C            00004 42967  1                      AH    R15,DISPXLEN
 0062F8 50F0 8030            00008 42968  1                      ST    R15,DISPTPTR        Kick text ptr
                                   42969  1
 0062FC 58F0 8034            0000C 42970  1                      L     R15,DISPRPTR
 006300 4AF0 802C            00004 42971  1                      AH    R15,DISPXLEN
 006304 50F0 8034            0000C 42972  1                      ST    R15,DISPRPTR        Kick rendition ptr
                                   42973  1
 006308 58F0 8038            00010 42974  1                      L     R15,DISPAPTR
 00630C 4AF0 802C            00004 42975  1                      AH    R15,DISPXLEN
 006310 50F0 8038            00010 42976  1                      ST    R15,DISPAPTR        Kick attribute ptr
                                   42977  1
 006314 48F0 802A            00002 42978  1                      LH    R15,DISPLEN
 006318 4BF0 802C            00004 42979  1                      SH    R15,DISPXLEN
 00631C 40F0 802A            00002 42980  1                      STH   R15,DISPLEN         Decrement remaining length
1PAGE     (PAGE2193) (12:50) (15MAR04) Page Editor Manager                                                                  Page  152
0Current Usings:  (PWA,R6) (*,R7) (DISPWA-(4+36),R8) (CP,R11) (CV,R12)
0Loc    Object Code    Addr1 Addr2  Stmt Lv Lineno    Source Statement           (Hibal 5, Asmedit 3.3)  HLASM R4.0  2004/03/15 12.50
+___    ______ ____    _____ _____  ____ __ ______    ______ _________
0006320 47F0 7016            060E4 42981                       END
                                   42986                       ¿þþþþþþþþþþþþþþþþþþþþþþþþþþþþþþþþþþþþþþþþþþþþþþþþþþþþþþÜ
                                   42987                       Ÿ  Switch out of ruling character set (if necessary).  Ÿ
                                   42988                       ¾þþþþþþþþþþþþþþþþþþþþþþþþþþþþþþþþþþþþþþþþþþþþþþþþþþþþþþ»
 006324 9180 8028/47E0_00000       42989                       IF    DISFRULE,BEGIN      We are in the ruling charset...
 00632C 5810 738E/4100_      0645C 43004  1                      TSEG  L:=A($SI),L'$SI
 00633E                            43032                       END
                                   43036
 00633E 18D8/9808 D004_            43037                       PEND
 DROP   DISPWA-(4+36),R8
 DROP   *,R7
1PAGE     (PAGE2193) (12:50) (15MAR04) Page Editor Manager                                                                  Page  153
0Current Usings:  (PWA,R6) (CP,R11) (CV,R12)
0Loc    Object Code    Addr1 Addr2  Stmt Lv Lineno    Source Statement           (Hibal 5, Asmedit 3.3)  HLASM R4.0  2004/03/15 12.50
+___    ______ ____    _____ _____  ____ __ ______    ______ _________
0                                  43063              ¿þþþþþþþþþþþþþþþþþþþþþþþþþþþþþþþþþþþþþþþþþþþþþþþþþþþþþþþþþþþþþþþþþþþþþÜ
                                   43064              Ÿ                                                                     Ÿ
                                   43065              Ÿ  DELTEXT -- Local routine to seg the delete characters              Ÿ
                                   43066              Ÿ    sequence.  It is used to delete old text from the page           Ÿ
                                   43067              Ÿ    when the page is only being partially rewritten.                 Ÿ
                                   43068              Ÿ                                                                     Ÿ
                                   43069              Ÿ    On entry:                                                        Ÿ
                                   43070              Ÿ      R15 - no. of chars to delete                                   Ÿ
                                   43071              Ÿ                                                                     Ÿ
                                                      ¾þþþþþþþþþþþþþþþþþþþþþþþþþþþþþþþþþþþþþþþþþþþþþþþþþþþþþþþþþþþþþþþþþþþþþ»
000634C 50E0 D000/9008_      00000 43072              DELTEXT  PROC
 USING  *,R7
 006366 122F                       43111                       LTR   R2,R15              No. of chars to delete
 006368 47D0 7038            0639E 43112                       IF    POS,BEGIN
 00636C 4110 7158/4100_      064BE 43123  1                      TSEG  $LCSI
 00637E 1812/1B00/41F0_            43151  1                      TNUM  (R2)
 00638C 4110 7168/4100_      064CE 43173  1                      TSEG  $BCT                Delete chars
 00639E                            43201                       END
 00639E 18D8/9808 D004_            43205                       PEND
 DROP   *,R7
                                   43225
                                   43226                       QLTORG
1PAGE     (PAGE2193) (12:50) (15MAR04) Page Editor Manager                                                                  Page  154
0Current Usings:  (PWA,R6) (CP,R11) (CV,R12)
0Loc    Object Code    Addr1 Addr2  Stmt Lv Lineno    Source Statement           (Hibal 5, Asmedit 3.3)  HLASM R4.0  2004/03/15 12.50
+___    ______ ____    _____ _____  ____ __ ______    ______ _________
0                                  43292              ***
                                   43293              ***  Model terminal control sequences.
                                   43294              ***
                                   43295              $CSI     EQU   *,2,C'X'            Control sequence prefix
 0064BE 27AD4C                     43296              $LCSI    DC    X'27AD4C'           Local control sequence introducer
 0064C1 27AD8627ADF2D1             43297              $CS      DC    X'27AD8627ADF2D1'   Home & clear screen
 0064C8 27AD86                     43298              $CSVTAM  DC    X'27AD86'           Home cursor (and that's all!)
 0064CB 27ADD1                     43299              $CREM    DC    X'27ADD1'           Clear from cursor to end screen
 0064CE E9                         43300              $BCT     DC    C'Z'                Blank count
 0064CF 27AD4CF1C6                 43301              $FPROT   DC    X'27AD4CF1C6'       Protected field
 0064D4 27AD4CF15EF1F1C6           43302              $FPROTS  DC    X'27AD4CF15EF1F1C6' Protected skip field
 0064DC 27AD4CC6                   43303              $FUNPROT DC    X'27AD4CC6'         Unprotected field
 0064E0 27AD4CC5                   43304              $FEND    DC    X'27AD4CC5'         End of field
 0064E4 275DF2                     43305              $SETRULE DC    X'275DF2'           Set ruling alternate char set
 0064E7 0E                         43306              $SO      DC    X'0E'               Shift out to alternate char set
 0064E8 0F                         43307              $SI      DC    X'0F'               Shift in to normal char set
                                   43308
 0064E9 27AD4CE6                   43309              $SETTAB  DC    X'27AD4CE6'         Set a tab here
 0064ED 27AD4CC9                   43310              $SETTRIG DC    X'27AD4CC9'         Set a trigger point here
 0064F1 27AD4CC7                   43311              $SETTROW DC    X'27AD4CC7'         Set a trigger row
 0064F5 27AD4C81                   43312              $SETFBLK DC    X'27AD4C81'         Set an FBLOCK point
 0064F9 27AD4C82                   43313              $SETLBLK DC    X'27AD4C82'         Set an LBLOCK point
 0064FD 27AD4CC8                   43314              $SETHOME DC    X'27AD4CC8'         Set a home point
 006501 27AD4CC1                   43315              $ALTHOME DC    X'27AD4CC1'         Set an alternate home point
 006505 27AD4CE3                   43316              $SETTOP  DC    X'27AD4CE3'         Set top point
 006509 27AD4CC2                   43317              $SETBOT  DC    X'27AD4CC2'         Set bottom point
 00650D 27AD4CF5D4                 43318              $CLRMSG  DC    X'27AD4CF5D4'       Clear message area
 006512 27AD4CD4                   43319              $SETMSG  DC    X'27AD4CD4'         Set message area
                                   43320
 006516 27AD4CF5E6                 43321              $CLRTABS DC    X'27AD4CF5E6'       Clear all tabs
 00651B 27AD4CF5C9                 43322              $CLRTRIG DC    X'27AD4CF5C9'       Clear all trigger points
 006520 27AD4CF5C7                 43323              $CLRTROW DC    X'27AD4CF5C7'       Clear all trigger rows
 006525 27AD4C81                   43324              $CLRBLK  DC    X'27AD4C81'         Clear marked block points
                                   43325              $CLRFMT  EQU   $CLRTABS,*-$CLRTABS,C'X'
                                   43326
 006529 E2                         43327              $SEM     DC    C'S'                Set editing mode
 00652A E5                         43328              $RFC     DC    C'V'                Report ending function code
 00652B C3                         43329              $RCP     DC    C'C'                Report ending cursor position
 00652C D9                         43330              $RFP     DC    C'R'                Report cursor position
                                   43331
 DROP   PWA,R6                     43332                       DROP  PWA
                                   43340
                                   43341                       VLTORG
 006550                06550 06550 43351                       END   .

1PAGE     (PAGE2193) (12:50) (15MAR04) Relocation Dictionary                                                                Page  155
-   Pos.Id   Rel.Id   Flags    Address                                                       HLASM R4.0  2004/03/15 12.50
0  00000001 00000001    0C    00000470
   00000001 00000001    0C    00000498
   00000001 00000001    0C    000004C0
   00000001 00000001    0C    000005D8
   00000001 00000001    0C    00000600
   00000001 00000001    0C    00000628
   00000001 00000001    0C    000006B8
   00000001 00000001    0C    000006C0
   00000001 00000001    0C    000006CC
   00000001 00000001    0C    000006D0
   00000001 00000001    0C    000006D4
   00000001 00000001    0C    000006D8
   00000001 00000001    0C    000009B4
   00000001 00000001    0C    000009DC
   00000001 00000001    0C    00000A04
   00000001 00000001    0C    00000A2C
   00000001 00000001    0C    00000A54
   00000001 00000001    0C    00000A7C
   00000001 00000001    0C    00000AA4
   00000001 00000001    0C    00000ACC
   00000001 00000001    0C    00000AF4
   00000001 00000001    0C    00000F90
   00000001 00000001    0C    00000FB8
   00000001 00000001    0C    00000FE0
   00000001 00000001    0C    00001008
   00000001 00000001    0C    00001030
   00000001 00000001    0C    00001058
   00000001 00000001    0C    00001080
   00000001 00000001    0C    000010A8
   00000001 00000001    0C    000014C4
   00000001 00000001    0C    000014CC
   00000001 00000001    0C    000014D0
   00000001 00000001    0C    000014D4
   00000001 00000001    0C    00001504
   00000001 00000001    0C    00001550
   00000001 00000001    0C    00001558
   00000001 00000001    0C    0000155C
   00000001 00000001    08    00001E43
   00000001 00000001    08    00001F07
   00000001 00000001    0C    00002558
   00000001 00000001    0C    00002570
   00000001 00000001    0C    00002574
   00000001 00000001    0C    0000257C
   00000001 00000001    0C    00002588
   00000001 00000001    0C    0000258C
   00000001 00000001    0C    00002590
   00000001 00000001    0C    00002594
   00000001 00000001    0C    0000259C
   00000001 00000001    0C    000025A0
   00000001 00000001    0C    000025A8
   00000001 00000001    0C    000025AC
   00000001 00000001    0C    00002FC0
   00000001 00000001    0C    00002FD4
   00000001 00000001    0C    00002FDC
   00000001 00000001    0C    00002FE8
1PAGE     (PAGE2193) (12:50) (15MAR04) Relocation Dictionary                                                                Page  156
   00000001 00000001    0C    00002FEC
   00000001 00000001    0C    00002FFC
   00000001 00000001    0C    00003968
   00000001 00000001    0C    00003974
   00000001 00000001    0C    00003978
   00000001 00000001    0C    0000397C
   00000001 00000001    0C    00003980
   00000001 00000001    0C    00003984
   00000001 00000001    0C    00003988
   00000001 00000001    0C    00003994
   00000001 00000001    0C    00003998
   00000001 00000001    0C    0000399C
   00000001 00000001    0C    000039A4
   00000001 00000001    0C    000039B4
   00000001 00000001    0C    000039B8
   00000001 00000001    0C    000039C0
   00000001 00000001    0C    000039C4
   00000001 00000001    0C    000039F4
   00000001 00000001    0C    000039F8
   00000001 00000001    0C    000039FC
   00000001 00000001    0C    00003A0C
   00000001 00000001    0C    000046F0
   00000001 00000001    0C    000046FC
   00000001 00000001    0C    00004700
   00000001 00000001    0C    00004704
   00000001 00000001    0C    00004708
   00000001 00000001    0C    00004714
   00000001 00000001    0C    00004718
   00000001 00000001    0C    0000471C
   00000001 00000001    0C    00004720
   00000001 00000001    0C    00004724
   00000001 00000001    0C    00004728
   00000001 00000001    0C    0000472C
   00000001 00000001    0C    00004730
   00000001 00000001    0C    00004738
   00000001 00000001    0C    0000473C
   00000001 00000001    0C    00004744
   00000001 00000001    0C    00004748
   00000001 00000001    0C    0000474C
   00000001 00000001    0C    00004750
   00000001 00000001    0C    00004754
   00000001 00000001    0C    00004758
   00000001 00000001    0C    0000475C
   00000001 00000001    0C    00004760
   00000001 00000001    0C    00004764
   00000001 00000001    0C    00004768
   00000001 00000001    0C    00004770
   00000001 00000001    0C    00005130
   00000001 00000001    0C    00005134
   00000001 00000001    0C    00005138
   00000001 00000001    0C    0000513C
   00000001 00000001    0C    00005140
   00000001 00000001    0C    00005144
   00000001 00000001    0C    00005148
   00000001 00000001    0C    00005150
   00000001 00000001    0C    00005158
   00000001 00000001    0C    00005640
   00000001 00000001    0C    00005644
   00000001 00000001    0C    0000564C
1PAGE     (PAGE2193) (12:50) (15MAR04) Relocation Dictionary                                                                Page  157
   00000001 00000001    0C    00005658
   00000001 00000001    0C    000063CC
   00000001 00000001    0C    000063E4
   00000001 00000001    0C    0000640C
   00000001 00000001    0C    00006414
   00000001 00000001    0C    0000644C
   00000001 00000001    0C    00006450
   00000001 00000001    0C    00006458
   00000001 00000001    0C    0000645C
   00000001 00000001    0C    00006464
   00000001 00000001    0C    00006468
   00000001 00000002    1C    0000046C
   00000001 00000002    1C    000005D4
   00000001 00000003    1C    00000494
   00000001 00000004    1C    000004BC
   00000001 00000004    1C    00000624
   00000001 00000004    1C    00000AF0
   00000001 00000004    1C    000010A4
   00000001 00000005    1C    000005FC
   00000001 00000006    1C    00000698
   00000001 00000007    1C    0000069C
   00000001 00000008    1C    000006A0
   00000001 00000008    1C    000014B8
   00000001 00000008    1C    00002550
   00000001 00000008    1C    00003954
   00000001 00000008    1C    00005178
   00000001 00000009    1C    000006A4
   00000001 00000009    1C    000014BC
   00000001 00000009    1C    0000255C
   00000001 00000009    1C    00003944
   00000001 00000009    1C    000046F4
   00000001 00000009    1C    00005154
   00000001 00000009    1C    0000563C
   00000001 00000009    1C    000063E8
   00000001 0000000A    1C    000006A8
   00000001 0000000A    1C    00001500
   00000001 0000000A    1C    00005170
   00000001 0000000B    1C    000006AC
   00000001 0000000B    1C    000014C0
   00000001 0000000B    1C    0000394C
   00000001 0000000B    1C    0000470C
   00000001 0000000B    1C    0000517C
   00000001 0000000B    1C    000063F8
   00000001 0000000C    1C    000006B0
   00000001 0000000C    1C    000014C8
   00000001 0000000D    1C    000006B4
   00000001 0000000E    1C    000009B0
   00000001 0000000E    1C    000009D8
   00000001 0000000E    1C    00000AC8
   00000001 0000000E    1C    00000F8C
   00000001 0000000E    1C    00000FB4
   00000001 0000000E    1C    00000FDC
   00000001 0000000E    1C    00001004
   00000001 0000000E    1C    0000102C
   00000001 0000000E    1C    00001054
   00000001 0000000E    1C    0000107C
   00000001 0000000F    1C    00000A00
   00000001 0000000F    1C    00000A28
   00000001 0000000F    1C    00000A50
1PAGE     (PAGE2193) (12:50) (15MAR04) Relocation Dictionary                                                                Page  158
   00000001 00000010    1C    00000A78
   00000001 00000010    1C    00000AA0
   00000001 00000011    1C    00001508
   00000001 00000011    1C    000063FC
   00000001 00000012    1C    00001530
   00000001 00000012    1C    0000256C
   00000001 00000012    1C    0000518C
   00000001 00000013    1C    00001554
   00000001 00000014    1C    00001564
   00000001 00000014    1C    0000393C
   00000001 00000014    1C    000063E0
   00000001 00000015    1C    00002554
   00000001 00000015    1C    0000398C
   00000001 00000015    1C    00004734
   00000001 00000015    1C    0000514C
   00000001 00000015    1C    00005638
   00000001 00000015    1C    00006454
   00000001 00000016    1C    00002560
   00000001 00000016    1C    00003990
   00000001 00000016    1C    00004710
   00000001 00000016    1C    00005128
   00000001 00000017    1C    00002564
   00000001 00000018    1C    00002568
   00000001 00000019    1C    00002578
   00000001 00000019    1C    000039A0
   00000001 00000019    1C    000046F8
   00000001 00000019    1C    0000512C
   00000001 0000001A    1C    000025B0
   00000001 0000001B    1C    00002FB8
   00000001 0000001B    1C    0000515C
   00000001 0000001B    1C    000063C8
   00000001 0000001C    1C    00002FCC
   00000001 0000001C    1C    0000516C
   00000001 0000001D    1C    00002FD0
   00000001 0000001D    1C    00006438
   00000001 0000001E    1C    00002FD8
   00000001 0000001E    1C    000039BC
   00000001 0000001E    1C    00005118
   00000001 0000001F    1C    00002FE4
   00000001 00000020    1C    00002FF0
   00000001 00000021    1C    00002FF4
   00000001 00000022    1C    00002FF8
   00000001 00000023    1C    00003934
   00000001 00000024    1C    00003938
   00000001 00000025    1C    00003940
   00000001 00000026    1C    00003950
   00000001 00000026    1C    00005654
   00000001 00000027    1C    00003964
   00000001 00000028    1C    000039A8
   00000001 00000029    1C    000039AC
   00000001 0000002A    1C    000039C8
   00000001 0000002B    1C    000039E4
   00000001 0000002C    1C    00003A00
   00000001 0000002D    1C    00003A04
   00000001 0000002D    1C    00005648
   00000001 0000002D    1C    000063D8
   00000001 0000002E    1C    00003A08
   00000001 0000002F    1C    00004740
   00000001 00000030    1C    00005168
1PAGE     (PAGE2193) (12:50) (15MAR04) Relocation Dictionary                                                                Page  159
   00000001 00000031    1C    00005174
   00000001 00000032    1C    00005190
   00000001 00000033    1C    0000519C
   00000001 00000034    1C    00005650
   00000001 00000035    1C    00006404
   00000001 00000036    1C    00006408
   00000001 00000037    1C    00006418
   00000001 00000038    1C    0000641C
   00000001 00000039    1C    00006420
   00000001 0000003A    1C    00006440

1PAGE     (PAGE2193) (12:50) (15MAR04) Ordinary Symbol and Literal Cross Reference                                          Page  160
-Symbol   Length   Value     Id    R Type   Defn References                                  HLASM R4.0  2004/03/15 12.50
0$$$@R0        1 00000000 FFFFFFFE     J     705  1015
 $$$@R10       1 00000000 FFFFFFF4     J     835  1079
 $$$@R11       1 00000000 FFFFFFF3     J     848  1092
 $$$@R12       1 00000000 FFFFFFF2     J     861  1105
 $$$@R13       1 00000000 FFFFFFF1     J     874  1118
 $$$@R14       1 00000000 FFFFFFF0     J     887  1131
 $$$@R7        1 00000000 FFFFFFF7     J     796  1028
 $$$@R8        1 00000000 FFFFFFF6     J     809  1041   1053
 $$$@R9        1 00000000 FFFFFFF5     J     822  1066
 $$$C1WYLPAGE
               1 000006F3 00000001     J    8880  8882   9001   9580  11329  11954  13878
 $$$C10WYLPAGE
               1 00006550 00000001     J   43354 43356
 $$$C2WYLPAGE
               1 000016BA 00000001     J   13991 13993  14108  15797  16229
 $$$C3WYLPAGE
               1 000025ED 00000001     J   20102 20104  20148  20623  23343
 $$$C4WYLPAGE
               1 00003006 00000001     J   24291 24293  24378  24896  26933
 $$$C5WYLPAGE
               1 00003AD0 00000001     J   27893 27895  31126  31945
 $$$C6WYLPAGE
               1 00004784 00000001     J   33073 33075  33104  34383  34912  35379  35756  37062
 $$$C7WYLPAGE
               1 000051F8 00000001     J   37192 37194  37223  37546
 $$$C8WYLPAGE
               1 0000568A 00000001     J   38201 38203  38326  38372  38864  39793  40671  41302  41426  41991  42090
                                                 42317  42671  42716  42918
 $$$C9WYLPAGE
               1 000064BE 00000001     J   43286 43288
 $$$D1WYLPAGE
               1 000016B3 00000001     J    8881 13867
 $$$D4WYLPAGE
               1 00003AC4 00000001     J   24292 24885  26922
 $$$D6WYLPAGE
               1 000051E5 00000001     J   33074 34901  35368  37051
 $$$D7WYLPAGE
               1 00005683 00000001     J   37193 37535
 $$$D8WYLPAGE
               1 00006487 00000001     J   38202 38315  38361  38853  41415  41980  42306  42660  42705  42907
 $$$RAINFO
               1 00000000 FFFFFFE8     J    6598  6714   6714
 $$$RCALCWA
               1 00000000 FFFFFFD2     J   40654 40670  40670
 $$$RCP        1 00000000 FFFFFFEC     J    2466  4726   6200   6200
 $$$RCV        1 00000000 FFFFFFEE     J    1191  2376   2376
 $$$RDEV       1 00000000 FFFFFFEB     J    4680  4725   4725
 $$$RDISPWA
               1 00000000 FFFFFFD0     J   42058 42089  42089
 $$$RFIELDWA
               1 00000000 FFFFFFD1     J   41263 41301  41301
 $$$RGINFWA
               1 00000000 FFFFFFE5     J    7273  7373   7373
 $$$RJCB       1 00000000 FFFFFFE9     J    6318  6592   6592
 $$$RLINT      1 00000000 FFFFFFE6     J    6803  6939   6939
1PAGE     (PAGE2193) (12:50) (15MAR04) Ordinary Symbol and Literal Cross Reference                                          Page  161
 $$$RLWA       1 00000000 FFFFFFDD     J   20121 20147  20147
 $$$RNEWWWA
               1 00000000 FFFFFFDE     J   16213 16228  16228
 $$$RNSCNCB
               1 00000000 FFFFFFED     J    2387  2460   2460
 $$$ROLINWA
               1 00000000 FFFFFFD7     J   33090 33103  33103
 $$$ROUTCWA
               1 00000000 FFFFFFD4     J   37200 37222  37222
 $$$ROUTSWA
               1 00000000 FFFFFFD9     J   31090 31125  31125
 $$$ROUTTWA
               1 00000000 FFFFFFD6     J   34366 34382  34382
 $$$ROUTZWA
               1 00000000 FFFFFFD5     J   35564 35755  35755
 $$$RPAGSWA
               1 00000000 FFFFFFDB     J   23312 23342  23342
 $$$RPFA       1 00000000 FFFFFFDC     J   20585 20622  20622
 $$$RPRESWA
               1 00000000 FFFFFFE0     J   14004 14107  14107
 $$$RPTABWA
               1 00000000 FFFFFFDF     J   15783 15796  15796
 $$$RPWA       1 00000000 FFFFFFDA     J   24299 24377  24377
 $$$RRGETWA
               1 00000000 FFFFFFE2     J   11228 11328  11328
 $$$RRPUTWA
               1 00000000 FFFFFFE1     J   11853 11953  11953
 $$$RSCRLWA
               1 00000000 FFFFFFD8     J   31928 31944  31944
 $$$RTTYPE
               1 00000000 FFFFFFEA     J    6211  6312   6312
 $$$RVPUTWA
               1 00000000 FFFFFFD3     J   39776 39792  39792
 $$$RWGETWA
               1 00000000 FFFFFFE4     J    8900  9000   9000
 $$$RWIND      1 00000000 FFFFFFE7     J    6728  6794   6794
 $$$RWPUTWA
               1 00000000 FFFFFFE3     J    9456  9579   9579
 $$$SEGCB0
               4 00000050 FFFFFFEC     F    2497  2583   2583
 $$$SEGCB108
               4 00000000 FFFFFFE4     F    8907  8993   8993
 $$$SEGCB123
               4 00000008 FFFFFFE3     F    9486  9572   9572
 $$$SEGCB182
               4 00000000 FFFFFFE2     F   11235 11321  11321
 $$$SEGCB203
               4 00000000 FFFFFFE1     F   11860 11946  11946
 $$$SEGCB272
               4 00000000 FFFFFFE0     F   14011 14097  14097
 $$$SEGCB59
               4 00000000 FFFFFFE5     F    7280  7366   7366
 $$$SEGCB985
               4 00000000 FFFFFFD5     F   35571 35657  35657
 $$$SEGCB993
               4 0000003C FFFFFFD5     F   35660 35746  35746
 $$$V01       14 0000652D 00000001     C   43347 16913
 $$$V02       14 0000653B 00000001     C   43348 17239
 $$$Z6         4 00005108 00000001     F   37139 36647  36900
1PAGE     (PAGE2193) (12:50) (15MAR04) Ordinary Symbol and Literal Cross Reference                                          Page  162
 $$$100F       2 000005A2 00000001     H    8650  8641B
 $$$1002B      1 00004D86 00000001     X   35794 35801U
 $$$1003F      2 00004E1A 00000001     H   36005 35902B
 $$$1004F      2 00004E8A 00000001     H   36151 36017B 36035B
 $$$1006F      2 00004EAE 00000001     H   36203 36165B 36178B
 $$$1008F      2 00004ECA 00000001     H   36241 36216B
 $$$1009F      2 00004EE4 00000001     H   36278 36253B
 $$$101        1 00000050 00000001 A   U    8669  8666   8668
 $$$1010F      2 00004F18 00000001     H   36345 36334B
 $$$1011F      2 00004F4E 00000001     H   36441 36416B
 $$$1012B      4 00004F94 00000001     I   36557 36626
 $$$1012F      2 00004FBC 00000001     H   36622 36557B 36625
 $$$1013E      2 00004FC0 00000001     H   36633 36627
 $$$1013F      2 000050A0 00000001     H   36961 36629B
 $$$1014F      2 000050A0 00000001     H   36957 36648B
 $$$1015F      2 00005028 00000001     H   36780 36703B 36716B 36729B 36742B 36756B 36770B
 $$$1021F      2 00005072 00000001     H   36886 36832B
 $$$1022F      2 000050A0 00000001     H   36953 36901B
 $$$1023F      2 000050AE 00000001     H   36986 36973B
 $$$1024F      2 000050CA 00000001     H   37026 37000B 37015B
 $$$1026F      2 000050DE 00000001     H   37067 37043B
 $$$1027       6 000051F2 00000001     I   37057 37049X
 $$$1028       6 000051F2 00000001     I   37056 37057  37057
 $$$1029       1 00000118 00000001 A   U   37129 37126  37128
 $$$103B       1 00000646 00000001     X    8743  8750U
 $$$1031B      1 00005212 00000001     X   37260 37267U
 $$$1032F      2 0000526E 00000001     H   37420 37370B 37411B
 $$$1032S      2 0000523E 00000001     H   37350 37419B
 $$$1038B      4 00005274 00000001     I   37434 37457
 $$$1038F      2 00005288 00000001     H   37453 37434B 37456
 $$$104        1 00000050 00000001 A   U    8780  8777   8779
 $$$1040E      2 0000528C 00000001     H   37464 37458
 $$$1040F      2 000052A4 00000001     H   37482 37460B
 $$$1042F      2 000052D4 00000001     H   37555 37498B
 $$$1044F      2 000052D4 00000001     H   37551 37524B
 $$$1045       6 00005684 00000001     I   37541 37533X
 $$$1046       6 00005684 00000001     I   37540 37541  37541
 $$$1047       1 0000005C 00000001 A   U   37644 37641  37643
 $$$1049B      1 00005512 00000001     X   37688 37695U
 $$$1050B      4 00005524 00000001     I   37747 37839
 $$$1050F      2 0000555E 00000001     H   37835 37747B 37838
 $$$1051F      2 00005540 00000001     H   37778 37766B
 $$$1052E      2 00005562 00000001     H   37846 37840
 $$$1052F      2 00005574 00000001     H   37869 37842B
 $$$1053       1 00000050 00000001 A   U   37955 37952  37954
 $$$1055B      1 000055C8 00000001     X   37991 37998U
 $$$1056F      2 00005606 00000001     H   38108 38095B
 $$$1057       1 00000050 00000001 A   U   38178 38175  38177
 $$$1059B      1 000056A4 00000001     X   38239 38246U
 $$$106B       1 00000678 00000001     X    8807  8814U
 $$$1060F      2 000056D2 00000001     H   38331 38307B
 $$$1061       6 00006488 00000001     I   38321 38313X
 $$$1062       6 00006488 00000001     I   38320 38321  38321
 $$$1063F      2 000056EA 00000001     H   38377 38353B
 $$$1064       6 0000648E 00000001     I   38367 38359X
 $$$1065       6 0000648E 00000001     I   38366 38367  38367
 $$$1066F      2 0000570C 00000001     H   38427 38414B
 $$$1067F      2 000057A8 00000001     H   38704 38442B
 $$$1069B      4 0000573A 00000001     I   38499 38599
1PAGE     (PAGE2193) (12:50) (15MAR04) Ordinary Symbol and Literal Cross Reference                                          Page  163
 $$$1069F      2 00005772 00000001     H   38595 38499B 38598
 $$$107        1 00000050 00000001 A   U    8844  8841   8843
 $$$1070F      2 00005772 00000001     H   38591 38525B
 $$$1070S      2 0000573E 00000001     H   38508 38590B
 $$$1074F      2 0000576E 00000001     H   38586 38560B
 $$$1075E      2 00005776 00000001     H   38606 38600
 $$$1075F      2 000057A8 00000001     H   38700 38602B
 $$$1076F      2 000057A8 00000001     H   38696 38630B
 $$$1076S      2 00005776 00000001     H   38612 38695B
 $$$1080F      2 000057A4 00000001     H   38691 38665B
 $$$1081       1 00000050 00000001 A   U   38734 38731  38733
 $$$1083B      1 000057D0 00000001     X   38770 38777U
 $$$1084F      2 000057E6 00000001     H   38830 38821B
 $$$1085F      2 000057F6 00000001     H   38869 38845B
 $$$1086       6 00006494 00000001     I   38859 38851X
 $$$1087       6 00006494 00000001     I   38858 38859  38859
 $$$1088       1 00000050 00000001 A   U   38916 38913  38915
 $$$1090B      1 00005830 00000001     X   38948 38955U
 $$$1091F      2 000058E2 00000001     H   39187 38974B
 $$$1092       1 00000050 00000001 A   U   39206 39203  39205
 $$$1094B      1 0000590A 00000001     X   39244 39251U
 $$$1095F      2 0000591A 00000001     H   39307 39297B
 $$$1096       1 00000050 00000001 A   U   39335 39332  39334
 $$$1098B      1 00005942 00000001     X   39373 39380U
 $$$1099F      2 0000595C 00000001     H   39437 39424B
 $$$1101F      2 0000598A 00000001     H   39507 39475B
 $$$1102F      2 000059A4 00000001     H   39535 39524B
 $$$1103F      2 000059BC 00000001     H   39560 39549B
 $$$1104F      2 000059EE 00000001     H   39608 39595B
 $$$1105       1 00000050 00000001 A   U   39638 39635  39637
 $$$1107B      1 00005A16 00000001     X   39676 39683U
 $$$1108F      2 00005A24 00000001     H   39741 39727B
 $$$1109       1 00000050 00000001 A   U   39770 39767  39769
 $$$1111B      1 00005A4C 00000001     X   39833 39840U
 $$$1112F      2 00005A98 00000001     H   39919 39887B
 $$$1113       1 0000015C 00000001 A   U   39952 39949  39951
 $$$1115B      1 00005ACC 00000001     X   39985 39992U
 $$$1116F      2 00005AFC 00000001     H   40096 40035B 40052B 40086B
 $$$1118F      2 00005AF4 00000001     H   40077 40065B
 $$$1120F      2 00005B08 00000001     H   40116 40107B
 $$$1121F      2 00005B14 00000001     H   40135 40126B
 $$$1122B      4 00005B1C 00000001     I   40154 40316
 $$$1122F      2 00005B7E 00000001     H   40312 40154B 40315
 $$$1123B      4 00005B26 00000001     I   40169 40182
 $$$1123F      2 00005B2E 00000001     H   40179 40169B 40181
 $$$1124E      2 00005B32 00000001     H   40189 40183
 $$$1124F      2 00005B5A 00000001     H   40265 40185B 40203B 40237B 40255B
 $$$1126F      2 00005B48 00000001     H   40228 40216B
 $$$1129F      2 00005B66 00000001     H   40285 40276B
 $$$1130F      2 00005B72 00000001     H   40304 40295B
 $$$1131E      2 00005B82 00000001     H   40323 40317
 $$$1131F      2 00005C14 00000001     H   40526 40319B
 $$$1132F      2 00005BAA 00000001     H   40396 40335B 40352B 40386B
 $$$1134F      2 00005BA2 00000001     H   40377 40365B
 $$$1136F      2 00005BBE 00000001     H   40419 40410B
 $$$1137F      2 00005BCA 00000001     H   40438 40429B
 $$$1138F      2 00005BDA 00000001     H   40458 40449B
 $$$1139F      2 00005C14 00000001     H   40522 40480B
 $$$1140F      2 00005C04 00000001     H   40509 40500B
1PAGE     (PAGE2193) (12:50) (15MAR04) Ordinary Symbol and Literal Cross Reference                                          Page  164
 $$$1141F      2 00005C4A 00000001     H   40605 40546B
 $$$1141S      2 00005C1C 00000001     H   40537 40604B
 $$$1143F      2 00005C38 00000001     H   40590 40579B
 $$$1144       1 00000050 00000001 A   U   40629 40626  40628
 $$$1146B      1 00005C74 00000001     X   40698 40705U
 $$$1148F      2 00005CDA 00000001     H   40919 40788B
 $$$1148S      2 00005C96 00000001     H   40779 40918B
 $$$1150F      2 00005CCE 00000001     H   40906 40831B
 $$$1150T      2 00005CAE 00000001     H   40834 40821B
 $$$1152F      2 00005CCE 00000001     H   40902 40850B
 $$$1153B      4 00005CBC 00000001     I   40867 40883
 $$$1153F      2 00005CC2 00000001     H   40880 40867B 40882
 $$$1154E      2 00005CC6 00000001     H   40890 40884
 $$$1154F      2 00005CCA 00000001     H   40897 40886B
 $$$1155F      2 00005CF0 00000001     H   40952 40930B
 $$$1156F      2 00005D86 00000001     H   41164 40969B
 $$$1157F      2 00005D82 00000001     H   41158 40986B 41034B
 $$$1158F      2 00005D2A 00000001     H   41037 41020B
 $$$1160F      2 00005D3A 00000001     H   41064 41054B
 $$$1161F      2 00005D62 00000001     H   41107 41089B
 $$$1161T      2 00005D4E 00000001     H   41092 41080B
 $$$1163F      2 00005D82 00000001     H   41149 41123B 41136B
 $$$1163S      2 00005D66 00000001     H   41115 41148B
 $$$1166F      2 00005D96 00000001     H   41191 41178B
 $$$1167F      2 00005DA2 00000001     H   41214 41204B
 $$$1168       1 00000138 00000001 A   U   41247 41244  41246
 $$$117B       1 0000070E 00000001     X    9030  9037U
 $$$1170B      1 00005DD2 00000001     X   41329 41336U
 $$$1172F      2 00005DF8 00000001     H   41403 41394B
 $$$1173       6 0000649A 00000001     I   41421 41413X
 $$$1174       6 0000649A 00000001     I   41420 41421  41421
 $$$1176F      2 00005E26 00000001     H   41473 41461B
 $$$1178F      2 00005E52 00000001     H   41543 41513B 41526B
 $$$118F       2 000007EE 00000001     H    9370  9100B  9123B
 $$$1180F      2 00005E90 00000001     H   41627 41618B
 $$$1180S      2 00005E52 00000001     H   41549 41626B
 $$$1181F      2 00005E7C 00000001     H   41597 41581B
 $$$1184F      2 00005F3A 00000001     H   41865 41639B
 $$$1185B      4 00005E9E 00000001     I   41656 41700
 $$$1185F      2 00005ECA 00000001     H   41695 41656B 41699
 $$$1186F      2 00005EC6 00000001     H   41690 41673B
 $$$1187B      4 00005ED4 00000001     I   41718 41828
 $$$1187E      2 00005ECE 00000001     H   41707 41701
 $$$1187F      2 00005F22 00000001     H   41823 41703B 41718B 41827
 $$$1189F      2 00005EEC 00000001     H   41743 41734B
 $$$1190F      2 00005F0A 00000001     H   41777 41761B
 $$$1191F      2 00005F22 00000001     H   41819 41789B
 $$$1192F      2 00005F22 00000001     H   41815 41805B
 $$$1193E      2 00005F26 00000001     H   41835 41829
 $$$1193F      2 00005F3A 00000001     H   41861 41831B 41846B
 $$$1195B      4 00005F42 00000001     I   41880 41907
 $$$1195F      2 00005F60 00000001     H   41903 41880B 41906
 $$$1196E      2 00005F64 00000001     H   41914 41908
 $$$1196F      2 00005F9A 00000001     H   42008 41910B
 $$$1197F      2 00005F98 00000001     H   42000 41934B
 $$$1198F      2 00005F88 00000001     H   41957 41948B
 $$$1199F      2 00005F98 00000001     H   41996 41972B
 $$$120F       2 00000762 00000001     H    9187  9161B
 $$$1200       6 000064A0 00000001     I   41986 41978X
1PAGE     (PAGE2193) (12:50) (15MAR04) Ordinary Symbol and Literal Cross Reference                                          Page  165
 $$$1201       6 000064A0 00000001     I   41985 41986  41986
 $$$1202       1 00000074 00000001 A   U   42036 42033  42035
 $$$1204B      1 000060CE 00000001     X   42118 42125U
 $$$1205F      2 00006324 00000001     H   42985 42170B
 $$$1205S      2 000060E4 00000001     H   42162 42984B
 $$$1207F      2 0000610C 00000001     H   42227 42190B
 $$$1209F      2 00006126 00000001     H   42276 42239B
 $$$121F       2 0000077A 00000001     H    9216  9203B
 $$$1211F      2 00006144 00000001     H   42322 42298B
 $$$1212       6 000064A6 00000001     I   42312 42304X
 $$$1213       6 000064A6 00000001     I   42311 42312  42312
 $$$1214F      2 000062F0 00000001     H   42964 42344B
 $$$1214S      2 00006158 00000001     H   42338 42963B
 $$$1216F      2 0000617A 00000001     H   42386 42370B
 $$$1218F      2 0000618C 00000001     H   42414 42398B
 $$$122        1 0000008C 00000001 A   U    9437  9434   9436
 $$$1220F      2 0000619E 00000001     H   42442 42426B
 $$$1222F      2 000061B0 00000001     H   42470 42454B
 $$$1224F      2 000061C2 00000001     H   42498 42482B
 $$$1226B      4 000061C6 00000001     I   42511 42575
 $$$1226F      2 000061E8 00000001     H   42572 42511B 42574
 $$$1228F      2 000061E8 00000001     H   42568 42526B
 $$$1229E      2 000061EC 00000001     H   42582 42576
 $$$1229F      2 0000620A 00000001     H   42641 42578B
 $$$1230F      2 0000620A 00000001     H   42637 42594B
 $$$1231       6 000064AC 00000001     I   42666 42658X
 $$$1232       6 000064AC 00000001     I   42665 42666  42666
 $$$1233F      2 000062EC 00000001     H   42958 42691B 42887B
 $$$1233S      2 0000622C 00000001     H   42685 42957B
 $$$1235       6 000064B2 00000001     I   42711 42703X
 $$$1236       6 000064B2 00000001     I   42710 42711  42711
 $$$1237F      2 000062B2 00000001     H   42896 42727B
 $$$1238B      4 00006252 00000001     I   42745 42833
 $$$1238F      2 0000628A 00000001     H   42830 42745B 42832
 $$$1239E      2 0000628E 00000001     H   42840 42834
 $$$1239F      2 0000629E 00000001     H   42873 42836B
 $$$1241       6 000064B8 00000001     I   42913 42905X
 $$$1242       6 000064B8 00000001     I   42912 42913  42913
 $$$1243F      2 0000633E 00000001     H   43035 42999B
 $$$1244       1 00000164 00000001 A   U   43059 43056  43058
 $$$1246B      1 00006366 00000001     X   43095 43102U
 $$$1247F      2 0000639E 00000001     H   43204 43118B
 $$$1248       1 00000050 00000001 A   U   43222 43219  43221
 $$$132B       1 0000082E 00000001     X    9609  9616U
 $$$133F       2 0000095A 00000001     H    9944  9699B  9718B
 $$$135B       4 000008D8 00000001     I    9807  9823
 $$$135F       2 000008E4 00000001     H    9820  9807B  9822
 $$$136E       2 000008E8 00000001     H    9830  9824
 $$$136F       2 000008F0 00000001     H    9840  9826B
 $$$137F       2 0000091E 00000001     H    9875  9855B
 $$$138F       2 00000944 00000001     H    9907  9887B
 $$$139F       2 00000952 00000001     H    9932  9919B
 $$$140        1 00000094 00000001 A   U   10023 10020  10022
 $$$141F       2 00000B1E 00000001     H   10257 10229B
 $$$142B       1 00000B12 00000001     X   10188 10195U
 $$$144        1 00000050 00000001 A   U   10266 10263  10265
 $$$145F       2 00000B56 00000001     H   10366 10334B
 $$$146B       1 00000B46 00000001     X   10293 10300U
 $$$148        1 00000050 00000001 A   U   10375 10372  10374
1PAGE     (PAGE2193) (12:50) (15MAR04) Ordinary Symbol and Literal Cross Reference                                          Page  166
 $$$150B       1 00000B7E 00000001     X   10402 10409U
 $$$151B       4 00000B88 00000001     I   10466 10479
 $$$151F       2 00000B90 00000001     H   10475 10466B 10478
 $$$151T       2 00000B8C 00000001     H   10469 10454B
 $$$153E       2 00000B94 00000001     H   10486 10480
 $$$153F       2 00000B9E 00000001     H   10502 10482B
 $$$154        1 00000050 00000001 A   U   10530 10527  10529
 $$$156B       1 00000BC6 00000001     X   10557 10564U
 $$$157B       4 00000BD0 00000001     I   10621 10634
 $$$157F       2 00000BD8 00000001     H   10630 10621B 10633
 $$$157T       2 00000BD4 00000001     H   10624 10609B
 $$$159E       2 00000BDC 00000001     H   10641 10635
 $$$159F       2 00000BE6 00000001     H   10657 10637B
 $$$160        1 00000050 00000001 A   U   10685 10682  10684
 $$$162B       1 00000C0E 00000001     X   10712 10719U
 $$$163        1 00000050 00000001 A   U   10788 10785  10787
 $$$165B       1 00000C58 00000001     X   10815 10822U
 $$$166B       4 00000C62 00000001     I   10869 10882
 $$$166F       2 00000C6A 00000001     H   10878 10869B 10881
 $$$166T       2 00000C66 00000001     H   10872 10857B
 $$$168E       2 00000C6E 00000001     H   10889 10883
 $$$168F       2 00000C7A 00000001     H   10906 10885B
 $$$169        1 00000050 00000001 A   U   10929 10926  10928
 $$$171B       1 00000CA2 00000001     X   10956 10963U
 $$$172B       4 00000CAC 00000001     I   11010 11023
 $$$172F       2 00000CB4 00000001     H   11019 11010B 11022
 $$$172T       2 00000CB0 00000001     H   11013 10998B
 $$$174E       2 00000CB8 00000001     H   11030 11024
 $$$174F       2 00000CC4 00000001     H   11047 11026B
 $$$175        1 00000050 00000001 A   U   11070 11067  11069
 $$$177B       1 00000CEC 00000001     X   11097 11104U
 $$$178        1 00000050 00000001 A   U   11149 11146  11148
 $$$180B       1 00000D1A 00000001     X   11176 11183U
 $$$181        1 00000050 00000001 A   U   11210 11207  11209
 $$$191B       1 00000D46 00000001     X   11358 11365U
 $$$192F       2 00000E38 00000001     H   11768 11428B 11451B
 $$$194F       2 00000D92 00000001     H   11500 11490B
 $$$195F       2 00000D9E 00000001     H   11521 11511B
 $$$196F       2 00000DAA 00000001     H   11542 11532B
 $$$197F       2 00000DB6 00000001     H   11563 11553B
 $$$198F       2 00000DC2 00000001     H   11584 11574B
 $$$199F       2 00000DCE 00000001     H   11605 11595B
 $$$200F       2 00000DDA 00000001     H   11626 11616B
 $$$201F       2 00000E34 00000001     H   11752 11699B
 $$$202        1 0000008C 00000001 A   U   11835 11832  11834
 $$$212B       1 00000E78 00000001     X   11983 11990U
 $$$213F       2 00000F38 00000001     H   12223 12073B 12092B
 $$$215B       4 00000F20 00000001     I   12181 12197
 $$$215F       2 00000F2C 00000001     H   12194 12181B 12196
 $$$216E       2 00000F30 00000001     H   12204 12198
 $$$216F       2 00000F38 00000001     H   12214 12200B
 $$$217        1 0000008C 00000001 A   U   12302 12299  12301
 $$$219B       1 000010C6 00000001     X   12452 12459U
 $$$220        1 00000050 00000001 A   U   12509 12506  12508
 $$$222B       1 000010F2 00000001     X   12536 12543U
 $$$223        1 00000050 00000001 A   U   12593 12590  12592
 $$$225B       1 0000111E 00000001     X   12620 12627U
 $$$226        1 00000050 00000001 A   U   12677 12674  12676
 $$$228B       1 0000114A 00000001     X   12704 12711U
1PAGE     (PAGE2193) (12:50) (15MAR04) Ordinary Symbol and Literal Cross Reference                                          Page  167
 $$$229        1 00000050 00000001 A   U   12761 12758  12760
 $$$231B       1 00001176 00000001     X   12788 12795U
 $$$232        1 00000050 00000001 A   U   12845 12842  12844
 $$$234B       1 000011A2 00000001     X   12872 12879U
 $$$235        1 00000050 00000001 A   U   12929 12926  12928
 $$$237B       1 000011CE 00000001     X   12956 12963U
 $$$238        1 00000050 00000001 A   U   13013 13010  13012
 $$$240B       1 000011FA 00000001     X   13040 13047U
 $$$241        1 00000050 00000001 A   U   13074 13071  13073
 $$$243B       1 00001226 00000001     X   13108 13115U
 $$$244F       2 0000125E 00000001     H   13188 13137B
 $$$245F       2 00001272 00000001     H   13215 13200B
 $$$246F       2 00001286 00000001     H   13242 13227B
 $$$247F       2 00001312 00000001     H   13429 13275B
 $$$248B       4 0000129E 00000001     I   13292 13340
 $$$248F       2 000012C6 00000001     H   13336 13292B 13339
 $$$249E       2 000012CA 00000001     H   13347 13341
 $$$249F       2 00001300 00000001     H   13416 13343B
 $$$250        1 00000050 00000001 A   U   13455 13452  13454
 $$$252B       1 0000133A 00000001     X   13490 13497U
 $$$253F       2 0000134A 00000001     H   13533 13520B
 $$$254S       2 00001350 00000001     H   13548 13594B
 $$$255F       2 00001368 00000001     H   13581 13567B
 $$$256        1 00000050 00000001 A   U   13616 13613  13615
 $$$258B       1 000013DA 00000001     X   13654 13661U
 $$$261F       2 00001450 00000001     H   13902 13713B 13730B 13751B
 $$$264F       2 00001418 00000001     H   13783 13772B
 $$$265F       2 00001434 00000001     H   13841 13810B
 $$$265S       2 0000141C 00000001     H   13804 13840B
 $$$268F       2 00001446 00000001     H   13883 13859B
 $$$269        6 000016B4 00000001     I   13873 13865X
 $$$270        6 000016B4 00000001     I   13872 13873  13873
 $$$271        1 00000050 00000001 A   U   13922 13919  13921
 $$$281B       1 000016D4 00000001     X   14137 14144U
 $$$282F       2 0000188C 00000001     H   14806 14173B
 $$$283F       2 000017B6 00000001     H   14497 14203B
 $$$284F       2 00001758 00000001     H   14357 14258B 14345B
 $$$284S       2 00001716 00000001     H   14252 14356B
 $$$287F       2 000017B2 00000001     H   14491 14382B
 $$$288F       2 000017B2 00000001     H   14487 14406B
 $$$289F       2 00001878 00000001     H   14784 14514B 14771B
 $$$289S       2 000017BA 00000001     H   14508 14783B
 $$$292        1 000000DC 00000001 A   U   14829 14826  14828
 $$$294B       1 000018B4 00000001     X   14862 14869U
 $$$295B       4 00001902 00000001     I   14973 14992
 $$$295F       2 0000190C 00000001     H   14989 14973B 14991
 $$$296E       2 00001910 00000001     H   14999 14993
 $$$296F       2 0000191E 00000001     H   15007 14995B
 $$$297F       2 00001974 00000001     H   15154 15027B
 $$$297S       2 00001926 00000001     H   15018 15153B
 $$$299B       4 00001934 00000001     I   15058 15095
 $$$299F       2 00001944 00000001     H   15092 15058B 15094
 $$$300F       2 00001944 00000001     H   15088 15073B
 $$$301E       2 00001948 00000001     H   15102 15096
 $$$301F       2 0000195E 00000001     H   15138 15098B
 $$$302F       2 00001958 00000001     H   15127 15118B
 $$$303F       2 00001998 00000001     H   15195 15179B
 $$$304F       2 000019BE 00000001     H   15239 15224B
 $$$305F       2 00001A7A 00000001     H   15470 15260B
1PAGE     (PAGE2193) (12:50) (15MAR04) Ordinary Symbol and Literal Cross Reference                                          Page  168
 $$$306F       2 000019E2 00000001     H   15301 15292B
 $$$307F       2 00001A0E 00000001     H   15349 15340B
 $$$308F       2 00001A3A 00000001     H   15397 15388B
 $$$309F       2 00001A62 00000001     H   15444 15435B
 $$$310F       2 00001A8A 00000001     H   15512 15503B
 $$$311F       2 00001AB2 00000001     H   15581 15572B
 $$$312F       2 00001ADC 00000001     H   15630 15621B
 $$$313F       2 00001B06 00000001     H   15681 15672B
 $$$314        1 00000050 00000001 A   U   15771 15768  15770
 $$$316B       1 00001B78 00000001     X   15826 15833U
 $$$317F       2 00001BA8 00000001     H   15926 15917B
 $$$317S       2 00001B82 00000001     H   15872 15925B
 $$$318F       2 00001B98 00000001     H   15898 15888B
 $$$321F       2 00001BF8 00000001     H   16057 15946B
 $$$321S       2 00001BB0 00000001     H   15937 16056B
 $$$323F       2 00001BEC 00000001     H   16044 15987B
 $$$323S       2 00001BCC 00000001     H   15978 16043B
 $$$325F       2 00001BE0 00000001     H   16031 16016B
 $$$326        1 00000060 00000001 A   U   16087 16084  16086
 $$$328B       1 00001C24 00000001     X   16123 16130U
 $$$329        1 00000050 00000001 A   U   16194 16191  16193
 $$$331B       1 00001C6A 00000001     X   16258 16265U
 $$$332F       2 00001C74 00000001     H   16300 16290B
 $$$333F       2 00001C88 00000001     H   16327 16313B
 $$$334F       2 00001CBE 00000001     H   16392 16351B
 $$$335F       2 00001CBC 00000001     H   16387 16373B
 $$$336F       2 00001CD4 00000001     H   16420 16407B
 $$$337F       2 00001CF2 00000001     H   16464 16451B
 $$$338F       2 00001D02 00000001     H   16491 16482B
 $$$339F       2 00001D92 00000001     H   16660 16607B
 $$$340        1 00000210 00000001 A   U   16731 16728  16730
 $$$342B       1 00001DEC 00000001     X   16768 16775U
 $$$343F       2 00001DF6 00000001     H   16805 16792B
 $$$344F       2 00001E82 00000001     H   17034 16820B
 $$$345F       2 00001E0C 00000001     H   16847 16835B
 $$$346F       2 00001E82 00000001     H   17020 17011B
 $$$346S       2 00001E24 00000001     H   16886 17019B
 $$$347F       2 00001E46 00000001     H   16917 16902B
 $$$348F       2 00001E74 00000001     H   16995 16929B
 $$$349F       2 00001E72 00000001     H   16989 16943B
 $$$350F       2 00001E64 00000001     H   16971 16962B
 $$$353        1 00000050 00000001 A   U   17057 17054  17056
 $$$355B       1 00001EB0 00000001     X   17094 17101U
 $$$356F       2 00001EBA 00000001     H   17131 17118B
 $$$357F       2 00001F46 00000001     H   17360 17146B
 $$$358F       2 00001ED0 00000001     H   17173 17161B
 $$$359F       2 00001F46 00000001     H   17346 17337B
 $$$359S       2 00001EE8 00000001     H   17212 17345B
 $$$360F       2 00001F0A 00000001     H   17243 17228B
 $$$361F       2 00001F38 00000001     H   17321 17255B
 $$$362F       2 00001F36 00000001     H   17315 17269B
 $$$363F       2 00001F28 00000001     H   17297 17288B
 $$$366        1 00000050 00000001 A   U   17383 17380  17382
 $$$368B       1 00001F74 00000001     X   17419 17426U
 $$$369F       2 00001F84 00000001     H   17459 17446B
 $$$370F       2 00001FE6 00000001     H   17618 17502B
 $$$370S       2 00001FA0 00000001     H   17493 17617B
 $$$372F       2 00001FCE 00000001     H   17584 17544B
 $$$372T       2 00001FB8 00000001     H   17547 17534B
1PAGE     (PAGE2193) (12:50) (15MAR04) Ordinary Symbol and Literal Cross Reference                                          Page  169
 $$$374F       2 00001FC8 00000001     H   17573 17564B
 $$$375F       2 00001FDA 00000001     H   17605 17595B
 $$$376        1 00000050 00000001 A   U   17666 17663  17665
 $$$378B       1 0000202C 00000001     X   17703 17710U
 $$$380F       2 0000204C 00000001     H   17782 17771B
 $$$381        1 00000050 00000001 A   U   17833 17830  17832
 $$$383B       1 00002096 00000001     X   17874 17881U
 $$$384F       2 00002112 00000001     H   18122 17906B
 $$$384S       2 0000209E 00000001     H   17897 18121B
 $$$386F       2 00002106 00000001     H   18109 17940B 17961B 17975B
 $$$389F       2 00002102 00000001     H   18097 17999B
 $$$389S       2 000020CE 00000001     H   17990 18096B
 $$$391F       2 000020F6 00000001     H   18084 18028B
 $$$392F       2 000020F6 00000001     H   18080 18045B
 $$$394        1 00000050 00000001 A   U   18142 18139  18141
 $$$396B       1 0000213A 00000001     X   18181 18188U
 $$$397F       2 0000216A 00000001     H   18275 18215B
 $$$397S       2 00002144 00000001     H   18206 18274B
 $$$399F       2 0000215E 00000001     H   18262 18249B
 $$$400        1 00000050 00000001 A   U   18299 18296  18298
 $$$402B       1 00002194 00000001     X   18341 18348U
 $$$403F       2 000022A2 00000001     H   18858 18376B
 $$$403S       2 0000219C 00000001     H   18367 18857B
 $$$405F       2 00002296 00000001     H   18845 18407B
 $$$406F       2 0000222E 00000001     H   18651 18491B 18505B
 $$$406T       2 000021DE 00000001     H   18508 18447B 18477B
 $$$407F       2 000021BE 00000001     H   18450 18431B
 $$$409F       2 000021CE 00000001     H   18480 18461B
 $$$412F       2 0000222E 00000001     H   18647 18529B
 $$$412S       2 000021EC 00000001     H   18520 18646B
 $$$414F       2 00002222 00000001     H   18634 18557B
 $$$415F       2 00002222 00000001     H   18630 18576B 18590B
 $$$417F       2 0000221C 00000001     H   18619 18610B
 $$$418F       2 00002296 00000001     H   18841 18731B 18745B
 $$$418T       2 0000225E 00000001     H   18748 18687B 18717B
 $$$419F       2 0000223E 00000001     H   18690 18671B
 $$$421F       2 0000224E 00000001     H   18720 18701B
 $$$424F       2 00002296 00000001     H   18837 18769B
 $$$424S       2 0000226C 00000001     H   18760 18836B
 $$$426F       2 0000228A 00000001     H   18824 18801B 18815B
 $$$428        1 00000050 00000001 A   U   18877 18874  18876
 $$$430B       1 000022CA 00000001     X   18916 18923U
 $$$431F       2 000022E6 00000001     H   18988 18946B 18965B
 $$$435F       2 00002302 00000001     H   19043 19001B 19020B
 $$$439F       2 00002344 00000001     H   19175 19058B
 $$$440F       2 00002328 00000001     H   19116 19074B 19093B
 $$$444F       2 00002344 00000001     H   19171 19129B 19148B
 $$$448F       2 00002402 00000001     H   19515 19195B
 $$$448S       2 0000234C 00000001     H   19186 19514B
 $$$450F       2 000023F6 00000001     H   19502 19227B 19248B 19262B
 $$$453F       2 000023F6 00000001     H   19498 19289B
 $$$453S       2 0000237C 00000001     H   19280 19497B
 $$$455F       2 000023C4 00000001     H   19426 19317B 19336B 19354B
 $$$458F       2 000023AC 00000001     H   19383 19373B
 $$$459F       2 000023B8 00000001     H   19406 19396B
 $$$460F       2 000023E0 00000001     H   19477 19440B 19457B
 $$$462        1 00000050 00000001 A   U   19533 19530  19532
 $$$464B       1 0000242A 00000001     X   19568 19575U
 $$$465F       2 00002440 00000001     H   19637 19598B
1PAGE     (PAGE2193) (12:50) (15MAR04) Ordinary Symbol and Literal Cross Reference                                          Page  170
 $$$467F       2 00002440 00000001     H   19633 19616B
 $$$469F       2 00002456 00000001     H   19689 19650B
 $$$471F       2 00002456 00000001     H   19685 19668B
 $$$475F       2 00002484 00000001     H   19784 19721B
 $$$476F       2 00002484 00000001     H   19780 19740B
 $$$476S       2 0000246C 00000001     H   19731 19779B
 $$$478        1 00000050 00000001 A   U   19802 19799  19801
 $$$480B       1 000024AC 00000001     X   19845 19852U
 $$$481F       2 000024B8 00000001     H   19880 19870B
 $$$482F       2 0000250C 00000001     H   20016 19923B
 $$$482S       2 000024D6 00000001     H   19914 20015B
 $$$484F       2 000024EA 00000001     H   19961 19951B
 $$$485F       2 00002500 00000001     H   20003 19972B
 $$$487        1 00000040 00000001 A   U   20050 20047  20049
 $$$489B       1 00002608 00000001     X   20177 20184U
 $$$490F       2 000026D2 00000001     H   20461 20252B
 $$$491F       2 00002646 00000001     H   20280 20267B
 $$$492F       2 000026D2 00000001     H   20457 20300B
 $$$492S       2 00002654 00000001     H   20291 20456B
 $$$494F       2 000026C6 00000001     H   20444 20330B 20345B
 $$$496F       2 000026C0 00000001     H   20434 20360B
 $$$497F       2 000026C0 00000001     H   20430 20420B
 $$$498F       2 00002710 00000001     H   20546 20475B 20492B
 $$$50B        1 00000032 00000001     X    6973  6980U
 $$$500F       2 000026FE 00000001     H   20529 20513B
 $$$501        1 00000148 00000001 A   U   20579 20576  20578
 $$$503B       1 0000273C 00000001     X   20659 20666U
 $$$504F       2 00002942 00000001     H   21448 20736B
 $$$504S       2 0000274C 00000001     H   20701 21447B
 $$$507F       2 0000277E 00000001     H   20782 20767B
 $$$508F       2 000027BA 00000001     H   20871 20796B
 $$$509F       2 000027BA 00000001     H   20867 20812B
 $$$51F        2 0000005A 00000001     H    7024  7006B
 $$$510B       4 000027A8 00000001     I   20830 20846
 $$$510F       2 000027AE 00000001     H   20843 20830B 20845
 $$$511E       2 000027B2 00000001     H   20853 20847
 $$$511F       2 000027B6 00000001     H   20862 20849B
 $$$512F       2 000028AA 00000001     H   21208 20905B
 $$$512S       2 000027E4 00000001     H   20896 21207B
 $$$514F       2 00002808 00000001     H   20982 20934B
 $$$515F       2 00002808 00000001     H   20978 20963B
 $$$515T       2 00002804 00000001     H   20966 20953B
 $$$517F       2 00002870 00000001     H   21132 20996B
 $$$518F       2 00002824 00000001     H   21033 21024B
 $$$519F       2 00002848 00000001     H   21074 21055B
 $$$52F        2 0000008A 00000001     H    7074  7056B
 $$$520B       4 00002852 00000001     I   21089 21108
 $$$520F       2 00002860 00000001     H   21104 21089B 21107
 $$$521E       2 00002864 00000001     H   21115 21109
 $$$521F       2 00002870 00000001     H   21128 21111B
 $$$522F       2 0000289E 00000001     H   21195 21146B
 $$$523F       2 00002892 00000001     H   21186 21170B
 $$$524F       2 000028BA 00000001     H   21235 21225B
 $$$525F       2 000028C6 00000001     H   21258 21248B
 $$$526F       2 000028FA 00000001     H   21343 21289B
 $$$526T       2 000028D8 00000001     H   21292 21276B
 $$$528B       4 000028E8 00000001     I   21306 21322
 $$$528F       2 000028EE 00000001     H   21319 21306B 21321
 $$$529E       2 000028F2 00000001     H   21329 21323
1PAGE     (PAGE2193) (12:50) (15MAR04) Ordinary Symbol and Literal Cross Reference                                          Page  171
 $$$529F       2 000028F6 00000001     H   21338 21325B
 $$$53         1 00000050 00000001 A   U    7106  7103   7105
 $$$530F       2 00002930 00000001     H   21422 21372B
 $$$530T       2 0000290C 00000001     H   21375 21359B
 $$$532B       4 0000291A 00000001     I   21389 21402
 $$$532F       2 00002922 00000001     H   21399 21389B 21401
 $$$533E       2 00002926 00000001     H   21409 21403
 $$$533F       2 0000292C 00000001     H   21417 21405B
 $$$534        1 00000068 00000001 A   U   21484 21481  21483
 $$$536B       1 0000297A 00000001     X   21525 21532U
 $$$537F       2 000029B6 00000001     H   21628 21593B 21616B
 $$$537S       2 00002990 00000001     H   21584 21627B
 $$$539F       2 000029AA 00000001     H   21620 21608B
 $$$540F       2 00002A2A 00000001     H   21817 21649B
 $$$541F       2 00002A2A 00000001     H   21813 21676B
 $$$541S       2 000029C2 00000001     H   21658 21812B
 $$$544F       2 00002A26 00000001     H   21808 21718B
 $$$544T       2 000029E8 00000001     H   21721 21696B 21708B
 $$$547F       2 000029F8 00000001     H   21746 21737B
 $$$548B       4 00002A04 00000001     I   21764 21784
 $$$548F       2 00002A16 00000001     H   21780 21764B 21783
 $$$549E       2 00002A1A 00000001     H   21791 21785
 $$$549F       2 00002A26 00000001     H   21804 21787B
 $$$55B        1 000000BA 00000001     X    7141  7148U
 $$$550        1 00000050 00000001 A   U   21850 21847  21849
 $$$552B       1 00002A5C 00000001     X   21884 21891U
 $$$553F       2 00002AB2 00000001     H   22049 21946B
 $$$554F       2 00002AAE 00000001     H   22044 21969B
 $$$554S       2 00002A78 00000001     H   21960 22043B
 $$$556F       2 00002AA2 00000001     H   22036 21984B
 $$$557F       2 00002A9E 00000001     H   22030 21998B
 $$$558F       2 00002A9E 00000001     H   22026 22016B
 $$$559F       2 00002B38 00000001     H   22284 22064B 22151B
 $$$56F        2 000000E2 00000001     H    7196  7168B
 $$$560F       2 00002AE6 00000001     H   22138 22087B 22125B
 $$$560S       2 00002ABE 00000001     H   22078 22137B
 $$$562F       2 00002AD2 00000001     H   22112 22102B
 $$$565B       4 00002AF4 00000001     I   22172 22185
 $$$565F       2 00002AFC 00000001     H   22182 22172B 22184
 $$$566E       2 00002B00 00000001     H   22192 22186
 $$$566F       2 00002B0A 00000001     H   22204 22188B
 $$$567F       2 00002B38 00000001     H   22280 22233B
 $$$567S       2 00002B10 00000001     H   22215 22279B
 $$$57F        2 0000010A 00000001     H    7237  7209B
 $$$570F       2 00002B34 00000001     H   22275 22248B
 $$$571F       2 00002B30 00000001     H   22270 22260B
 $$$572F       2 00002BD4 00000001     H   22525 22301B 22394B
 $$$573F       2 00002B78 00000001     H   22381 22329B 22367B
 $$$573S       2 00002B52 00000001     H   22320 22380B
 $$$575F       2 00002B66 00000001     H   22354 22344B
 $$$578F       2 00002B9A 00000001     H   22430 22420B
 $$$579F       2 00002BD4 00000001     H   22521 22448B
 $$$579S       2 00002BA0 00000001     H   22439 22520B
 $$$58         1 00000050 00000001 A   U    7255  7252   7254
 $$$581F       2 00002BC8 00000001     H   22513 22463B 22480B
 $$$583F       2 00002BC8 00000001     H   22509 22499B
 $$$584        1 00000050 00000001 A   U   22554 22551  22553
 $$$586B       1 00002BFC 00000001     X   22587 22594U
 $$$587F       2 00002C72 00000001     H   22834 22613B
1PAGE     (PAGE2193) (12:50) (15MAR04) Ordinary Symbol and Literal Cross Reference                                          Page  172
 $$$588F       2 00002C6E 00000001     H   22822 22634B
 $$$588S       2 00002C0C 00000001     H   22625 22821B
 $$$590F       2 00002C62 00000001     H   22809 22662B
 $$$591F       2 00002C62 00000001     H   22800 22696B
 $$$592F       2 00002C62 00000001     H   22796 22714B 22730B 22744B
 $$$595F       2 00002C62 00000001     H   22792 22777B
 $$$595T       2 00002C5E 00000001     H   22780 22765B
 $$$597        1 00000050 00000001 A   U   22852 22849  22851
 $$$599B       1 00002C9A 00000001     X   22891 22898U
 $$$600B       4 00002C9E 00000001     I   22919 22936
 $$$600F       2 00002CA8 00000001     H   22932 22919B 22935
 $$$601E       2 00002CAC 00000001     H   22943 22937
 $$$601F       2 00002CB0 00000001     H   22950 22939B
 $$$602        1 00000050 00000001 A   U   22968 22965  22967
 $$$604B       1 00002CD8 00000001     X   23001 23008U
 $$$605F       2 00002CFA 00000001     H   23073 23036B
 $$$605S       2 00002CE0 00000001     H   23027 23072B
 $$$607F       2 00002D7A 00000001     H   23273 23093B
 $$$607S       2 00002D02 00000001     H   23084 23272B
 $$$609F       2 00002D6A 00000001     H   23259 23136B
 $$$609S       2 00002D1E 00000001     H   23127 23258B
 $$$611F       2 00002D42 00000001     H   23200 23190B
 $$$611T       2 00002D3E 00000001     H   23193 23168B 23180B
 $$$614F       2 00002D5E 00000001     H   23246 23213B 23225B 23237B
 $$$617        1 00000050 00000001 A   U   23296 23293  23295
 $$$619B       1 00002DA4 00000001     X   23372 23379U
 $$$620F       2 00002DC6 00000001     H   23431 23415B
 $$$621B       4 00002DE2 00000001     I   23464 23477
 $$$621F       2 00002DEA 00000001     H   23474 23464B 23476
 $$$622E       2 00002DEE 00000001     H   23484 23478
 $$$622F       2 00002DF2 00000001     H   23491 23480B
 $$$623F       2 00002EA2 00000001     H   23776 23563B
 $$$623S       2 00002E1A 00000001     H   23554 23775B
 $$$625F       2 00002E96 00000001     H   23763 23618B
 $$$625T       2 00002E3A 00000001     H   23621 23596B 23608B
 $$$628B       4 00002E40 00000001     I   23634 23648
 $$$628F       2 00002E4A 00000001     H   23645 23634B 23647
 $$$629E       2 00002E4E 00000001     H   23655 23649
 $$$629F       2 00002E64 00000001     H   23668 23651B
 $$$630F       2 00002E74 00000001     H   23693 23684B
 $$$631F       2 00002E96 00000001     H   23759 23711B
 $$$632B       4 00002E86 00000001     I   23727 23741
 $$$632F       2 00002E90 00000001     H   23738 23727B 23740
 $$$633E       2 00002E94 00000001     H   23748 23742
 $$$633F       2 00002E96 00000001     H   23755 23744B
 $$$634F       2 00002EE8 00000001     H   23873 23799B
 $$$634S       2 00002EB2 00000001     H   23790 23872B
 $$$636F       2 00002EDC 00000001     H   23860 23828B
 $$$638        1 000002DC 00000001 A   U   23910 23907  23909
 $$$640B       1 00002F1C 00000001     X   23953 23960U
 $$$641F       2 00002F32 00000001     H   24018 23983B
 $$$642F       2 00002F46 00000001     H   24064 24029B
 $$$643F       2 00002F50 00000001     H   24085 24075B
 $$$644F       2 00002F64 00000001     H   24124 24114B
 $$$645F       2 00002F6E 00000001     H   24144 24134B
 $$$646F       2 00002FA8 00000001     H   24241 24164B
 $$$646S       2 00002F7A 00000001     H   24157 24240B
 $$$648F       2 00002F9C 00000001     H   24228 24218B
 $$$648T       2 00002F98 00000001     H   24221 24196B 24208B
1PAGE     (PAGE2193) (12:50) (15MAR04) Ordinary Symbol and Literal Cross Reference                                          Page  173
 $$$651        1 00000040 00000001 A   U   24259 24256  24258
 $$$653B       1 00003020 00000001     X   24417 24424U
 $$$654B       4 00003050 00000001     I   24484 24533
 $$$654F       2 0000308A 00000001     H   24529 24484B 24532
 $$$655E       2 0000308E 00000001     H   24540 24534
 $$$655F       2 0000309A 00000001     H   24553 24536B
 $$$656F       2 000030D4 00000001     H   24650 24568B
 $$$657F       2 000030CC 00000001     H   24622 24603B
 $$$659F       2 000030E4 00000001     H   24685 24670B
 $$$660F       2 00003192 00000001     H   24950 24716B 24744B
 $$$662F       2 0000314A 00000001     H   24818 24784B
 $$$663F       2 0000317A 00000001     H   24901 24877B
 $$$664        6 00003AC4 00000001     I   24891 24883X
 $$$665        6 00003AC4 00000001     I   24890 24891  24891
 $$$666F       2 00003192 00000001     H   24946 24931B
 $$$667F       2 000031B0 00000001     H   24998 24969B 24988B
 $$$669F       2 0000320E 00000001     H   25078 25015B
 $$$670F       2 00003230 00000001     H   25136 25120B
 $$$671F       2 00003240 00000001     H   25166 25150B
 $$$672F       2 00003256 00000001     H   25199 25178B
 $$$673F       2 00003272 00000001     H   25227 25212B
 $$$674F       2 000032D2 00000001     H   25328 25240B
 $$$675F       2 000032C0 00000001     H   25316 25279B
 $$$675T       2 0000329E 00000001     H   25282 25269B
 $$$677F       2 000032B6 00000001     H   25307 25297B
 $$$678F       2 000033A0 00000001     H   25621 25350B
 $$$679F       2 0000344A 00000001     H   25862 25822B
 $$$679S       2 00003426 00000001     H   25813 25861B
 $$$68B        1 00000132 00000001     X    7403  7410U
 $$$681F       2 0000347A 00000001     H   25931 25915B
 $$$682F       2 00003498 00000001     H   25976 25943B
 $$$683F       2 000034D2 00000001     H   26082 26060B
 $$$684F       2 000034E0 00000001     H   26110 26093B
 $$$685F       2 00003536 00000001     H   26270 26122B
 $$$686F       2 000034FA 00000001     H   26154 26139B
 $$$687F       2 00003518 00000001     H   26201 26170B 26181B
 $$$689F       2 00003536 00000001     H   26266 26213B 26230B
 $$$69B        4 00000158 00000001     I    7494  7523
 $$$69F        2 0000016E 00000001     H    7519  7494B  7522
 $$$692F       2 0000354A 00000001     H   26319 26304B
 $$$693F       2 00003576 00000001     H   26374 26351B
 $$$695F       2 000035F2 00000001     H   26591 26410B
 $$$695S       2 0000357E 00000001     H   26402 26590B
 $$$697F       2 000035EE 00000001     H   26586 26426B 26440B
 $$$699F       2 000035AE 00000001     H   26481 26471B
 $$$70E        2 00000172 00000001     H    7530  7524
 $$$70F        2 00000232 00000001     H    7810  7526B  7675B
 $$$700F       2 000035D8 00000001     H   26542 26529B
 $$$700T       2 000035D2 00000001     H   26532 26519B
 $$$702F       2 000035E6 00000001     H   26566 26553B
 $$$703F       2 0000360A 00000001     H   26626 26605B
 $$$704F       2 00003702 00000001     H   26946 26669B
 $$$705B       4 00003650 00000001     I   26704 26795
 $$$705F       2 000036A0 00000001     H   26790 26704B 26794
 $$$706F       2 00003670 00000001     H   26735 26724B
 $$$707F       2 00003684 00000001     H   26760 26749B
 $$$708F       2 000036A0 00000001     H   26786 26776B
 $$$709B       4 000036B0 00000001     I   26829 26848
 $$$709E       2 000036A4 00000001     H   26802 26796
1PAGE     (PAGE2193) (12:50) (15MAR04) Ordinary Symbol and Literal Cross Reference                                          Page  174
 $$$709F       2 000036CC 00000001     H   26842 26798B 26815B 26829B 26845
 $$$71B        4 0000018A 00000001     I    7574  7590
 $$$71F        2 00000196 00000001     H    7587  7574B  7589
 $$$71T        2 0000018E 00000001     H    7577  7561B
 $$$711B       4 000036A8 00000001     I   26815 26846
 $$$712E       2 000036D0 00000001     H   26855 26847  26849
 $$$712F       2 00003702 00000001     H   26942 26851B
 $$$713F       2 000036E8 00000001     H   26880 26870B
 $$$714F       2 00003702 00000001     H   26938 26914B
 $$$715        6 00003ACA 00000001     I   26928 26920X
 $$$716        6 00003ACA 00000001     I   26927 26928  26928
 $$$717F       2 00003712 00000001     H   26970 26960B
 $$$718F       2 00003722 00000001     H   26993 26983B
 $$$719F       2 00003732 00000001     H   27016 27006B
 $$$720F       2 00003742 00000001     H   27039 27029B
 $$$721F       2 00003752 00000001     H   27062 27052B
 $$$722F       2 00003762 00000001     H   27085 27075B
 $$$723F       2 00003772 00000001     H   27108 27098B
 $$$724F       2 000037DA 00000001     H   27274 27133B 27147B
 $$$726F       2 000037DA 00000001     H   27265 27192B 27209B
 $$$726T       2 000037A8 00000001     H   27195 27182B
 $$$729F       2 000037CC 00000001     H   27252 27239B
 $$$73E        2 0000019A 00000001     H    7597  7591
 $$$73F        2 000001A2 00000001     H    7610  7593B
 $$$730F       2 0000386A 00000001     H   27523 27299B 27313B
 $$$732F       2 00003834 00000001     H   27424 27344B
 $$$733F       2 00003822 00000001     H   27387 27378B
 $$$734F       2 00003834 00000001     H   27415 27402B
 $$$735F       2 0000384E 00000001     H   27466 27453B
 $$$735T       2 00003848 00000001     H   27456 27443B
 $$$737F       2 0000385C 00000001     H   27490 27477B
 $$$738F       2 0000386A 00000001     H   27514 27501B
 $$$739F       2 000038EE 00000001     H   27734 27549B
 $$$74F        2 000001C8 00000001     H    7662  7648B
 $$$741F       2 000038C8 00000001     H   27671 27588B
 $$$742F       2 000038C4 00000001     H   27665 27603B 27621B
 $$$744F       2 000038C0 00000001     H   27654 27644B
 $$$746F       2 00003912 00000001     H   27775 27765B
 $$$747        1 00000050 00000001 A   U   27793 27790  27792
 $$$749B       1 00003AEA 00000001     X   27926 27933U
 $$$751F       2 00003B0C 00000001     H   28009 27973B
 $$$752F       2 00003B80 00000001     H   28192 28040B
 $$$752S       2 00003B20 00000001     H   28031 28191B
 $$$754F       2 00003B36 00000001     H   28075 28065B
 $$$755F       2 00003B6E 00000001     H   28177 28103B 28122B
 $$$757F       2 00003C0A 00000001     H   28393 28258B 28278B
 $$$759        1 00000050 00000001 A   U   28413 28410  28412
 $$$76         1 0000008C 00000001 A   U    7850  7847   7849
 $$$761B       1 00003C32 00000001     X   28449 28456U
 $$$762F       2 00003CBE 00000001     H   28699 28490B
 $$$763F       2 00003C62 00000001     H   28536 28523B
 $$$764F       2 00003C70 00000001     H   28561 28548B
 $$$765F       2 00003C86 00000001     H   28599 28586B
 $$$765T       2 00003C80 00000001     H   28589 28576B
 $$$767F       2 00003C94 00000001     H   28623 28610B
 $$$768F       2 00003CA2 00000001     H   28647 28634B
 $$$769F       2 00003CB0 00000001     H   28671 28658B
 $$$770F       2 00003CBE 00000001     H   28695 28682B
 $$$771        1 00000050 00000001 A   U   28718 28715  28717
1PAGE     (PAGE2193) (12:50) (15MAR04) Ordinary Symbol and Literal Cross Reference                                          Page  175
 $$$773B       1 00003CE6 00000001     X   28751 28758U
 $$$774F       2 00003CFE 00000001     H   28802 28792B
 $$$774T       2 00003CFA 00000001     H   28795 28782B
 $$$776F       2 00003D0A 00000001     H   28823 28813B
 $$$777F       2 00003D16 00000001     H   28844 28834B
 $$$778F       2 00003D22 00000001     H   28865 28855B
 $$$779F       2 00003D2E 00000001     H   28886 28876B
 $$$78B        1 00000268 00000001     X    7887  7894U
 $$$780        1 00000050 00000001 A   U   28910 28907  28909
 $$$782B       1 00003D5C 00000001     X   28946 28953U
 $$$783        1 00000050 00000001 A   U   29007 29004  29006
 $$$785B       1 00003D96 00000001     X   29043 29050U
 $$$786F       2 00003DBE 00000001     H   29125 29072B
 $$$787B       4 00003DC6 00000001     I   29147 29180
 $$$787F       2 00003DD6 00000001     H   29176 29147B 29179
 $$$788F       2 00003DD6 00000001     H   29172 29162B
 $$$789E       2 00003DDA 00000001     H   29187 29181
 $$$789F       2 00003DFE 00000001     H   29256 29183B
 $$$79F        2 0000028E 00000001     H    7952  7921B
 $$$790F       2 00003DFA 00000001     H   29245 29216B
 $$$791F       2 00003DFA 00000001     H   29241 29231B
 $$$792F       2 00003E0A 00000001     H   29278 29268B
 $$$793F       2 00003E20 00000001     H   29326 29303B
 $$$794F       2 00003E78 00000001     H   29473 29380B 29464B
 $$$794S       2 00003E32 00000001     H   29360 29472B
 $$$796F       2 00003E68 00000001     H   29446 29393B
 $$$799F       2 00003EAC 00000001     H   29554 29487B 29502B
 $$$801F       2 00003EEE 00000001     H   29657 29571B 29588B
 $$$803        1 00000050 00000001 A   U   29681 29678  29680
 $$$805B       1 00003F22 00000001     X   29727 29734U
 $$$806F       2 00003FEA 00000001     H   30035 29756B 29773B
 $$$808F       2 00003F58 00000001     H   29838 29793B 29824B
 $$$809F       2 00003F52 00000001     H   29827 29810B
 $$$81F        2 00000300 00000001     H    8037  8024B
 $$$811F       2 00003FDE 00000001     H   30018 29855B
 $$$812        1 00000050 00000001 A   U   30055 30052  30054
 $$$814B       1 00004014 00000001     X   30091 30098U
 $$$815F       2 0000409C 00000001     H   30308 30255B
 $$$815S       2 0000406E 00000001     H   30246 30307B
 $$$817        1 00000050 00000001 A   U   30327 30324  30326
 $$$819B       1 000040C4 00000001     X   30363 30370U
 $$$82F        2 0000033A 00000001     H    8108  8077B
 $$$82S        2 00000320 00000001     H    8068  8107B
 $$$820        1 00000050 00000001 A   U   30424 30421  30423
 $$$822B       1 000040FE 00000001     X   30460 30467U
 $$$823F       2 00004126 00000001     H   30542 30489B
 $$$824        1 00000050 00000001 A   U   30591 30588  30590
 $$$826B       1 00004160 00000001     X   30627 30634U
 $$$827F       2 0000417A 00000001     H   30692 30670B
 $$$828        1 00000050 00000001 A   U   30734 30731  30733
 $$$830B       1 000041AC 00000001     X   30782 30789U
 $$$831F       2 000041C4 00000001     H   30832 30811B
 $$$832F       2 00004202 00000001     H   30907 30867B
 $$$832S       2 000041DA 00000001     H   30857 30906B
 $$$834F       2 00004218 00000001     H   30932 30922B
 $$$835F       2 0000426E 00000001     H   31060 30945B
 $$$836        1 00000050 00000001 A   U   31079 31076  31078
 $$$838B       1 00004296 00000001     X   31154 31161U
 $$$84F        2 000003A4 00000001     H    8222  8155B
1PAGE     (PAGE2193) (12:50) (15MAR04) Ordinary Symbol and Literal Cross Reference                                          Page  176
 $$$840F       2 000042B6 00000001     H   31265 31216B
 $$$842F       2 0000431C 00000001     H   31447 31286B
 $$$842S       2 000042BE 00000001     H   31277 31446B
 $$$844F       2 00004310 00000001     H   31434 31315B 31353B
 $$$847F       2 00004310 00000001     H   31430 31369B
 $$$848B       4 000042F2 00000001     I   31385 31403
 $$$848F       2 000042FA 00000001     H   31400 31385B 31402
 $$$849E       2 000042FE 00000001     H   31410 31404
 $$$849F       2 00004302 00000001     H   31422 31406B
 $$$85B        4 0000038C 00000001     I    8191  8204
 $$$85F        2 00000398 00000001     H    8201  8191B  8203
 $$$850F       2 00004394 00000001     H   31631 31461B
 $$$851F       2 00004394 00000001     H   31627 31482B
 $$$851S       2 0000432C 00000001     H   31473 31626B
 $$$853F       2 00004388 00000001     H   31614 31517B 31532B
 $$$855F       2 00004372 00000001     H   31595 31557B 31582B
 $$$855S       2 0000434E 00000001     H   31548 31594B
 $$$858F       2 0000440A 00000001     H   31817 31645B
 $$$859F       2 0000440A 00000001     H   31813 31665B
 $$$859S       2 000043AA 00000001     H   31659 31812B
 $$$86E        2 0000039C 00000001     H    8211  8205
 $$$86F        2 000003A4 00000001     H    8218  8207B
 $$$861F       2 00004400 00000001     H   31799 31700B 31715B
 $$$863F       2 000043EA 00000001     H   31780 31740B 31766B
 $$$863S       2 000043CA 00000001     H   31731 31779B
 $$$866F       2 00004436 00000001     H   31885 31831B
 $$$867        1 000000A4 00000001 A   U   31910 31907  31909
 $$$869B       1 0000445E 00000001     X   31973 31980U
 $$$87         1 00000050 00000001 A   U    8256  8253   8255
 $$$870F       2 000044A6 00000001     H   32157 32018B 32048B
 $$$872F       2 000044A6 00000001     H   32148 32101B
 $$$874B       4 00004506 00000001     I   32304 32420
 $$$874F       2 0000454E 00000001     H   32414 32304B 32419
 $$$875F       2 00004544 00000001     H   32386 32373B
 $$$876E       2 00004552 00000001     H   32427 32421
 $$$876F       2 0000462E 00000001     H   32707 32423B
 $$$877B       4 0000455C 00000001     I   32441 32573
 $$$877F       2 000045CA 00000001     H   32569 32441B 32572
 $$$878F       2 000045CA 00000001     H   32565 32551B
 $$$878S       2 00004582 00000001     H   32463 32564B
 $$$881E       2 000045CE 00000001     H   32580 32574
 $$$881F       2 0000462E 00000001     H   32703 32576B
 $$$882F       2 0000462E 00000001     H   32699 32685B
 $$$882S       2 000045E8 00000001     H   32596 32698B
 $$$885B       4 00004646 00000001     I   32732 32863
 $$$885F       2 00004690 00000001     H   32857 32732B 32862
 $$$886F       2 00004690 00000001     H   32853 32751B
 $$$886S       2 0000464A 00000001     H   32742 32852B
 $$$888B       4 00004654 00000001     I   32779 32799
 $$$888F       2 0000465E 00000001     H   32795 32779B 32798
 $$$889E       2 00004662 00000001     H   32806 32800
 $$$889F       2 0000467C 00000001     H   32838 32802B 32826B
 $$$89B        1 000003DC 00000001     X    8287  8294U
 $$$891E       2 00004694 00000001     H   32870 32864
 $$$891F       2 000046DC 00000001     H   32993 32866B
 $$$892F       2 000046DC 00000001     H   32989 32888B
 $$$892S       2 00004698 00000001     H   32879 32988B
 $$$894B       4 000046A2 00000001     I   32917 32935
 $$$894F       2 000046AA 00000001     H   32931 32917B 32934
1PAGE     (PAGE2193) (12:50) (15MAR04) Ordinary Symbol and Literal Cross Reference                                          Page  177
 $$$895E       2 000046AE 00000001     H   32942 32936
 $$$895F       2 000046C8 00000001     H   32974 32938B 32962B
 $$$897        1 00000058 00000001 A   U   33018 33015  33017
 $$$899B       1 0000479E 00000001     X   33132 33139U
 $$$90F        2 0000043A 00000001     H    8357  8348B
 $$$900F       2 000047AE 00000001     H   33191 33181B
 $$$901F       2 000047EE 00000001     H   33279 33227B 33247B
 $$$903F       2 000047E8 00000001     H   33274 33264B
 $$$904F       2 00004816 00000001     H   33343 33291B 33311B
 $$$906F       2 00004810 00000001     H   33338 33328B
 $$$907F       2 00004830 00000001     H   33392 33360B
 $$$908F       2 00004830 00000001     H   33388 33378B
 $$$909F       2 00004862 00000001     H   33495 33404B
 $$$91         1 00000050 00000001 A   U    8376  8373   8375
 $$$910F       2 00004862 00000001     H   33491 33423B 33444B 33458B 33476B
 $$$914B       4 00004866 00000001     I   33509 33521
 $$$914F       2 00004870 00000001     H   33518 33509B 33520
 $$$915E       2 00004874 00000001     H   33528 33522
 $$$915F       2 0000487C 00000001     H   33540 33524B
 $$$916F       2 00004920 00000001     H   33819 33588B
 $$$916T       2 00004898 00000001     H   33591 33566B 33578B
 $$$919F       2 000048C2 00000001     H   33656 33643B
 $$$920F       2 000048D0 00000001     H   33680 33667B
 $$$921F       2 000048DE 00000001     H   33704 33691B
 $$$922F       2 000048EC 00000001     H   33728 33715B
 $$$923F       2 000048FA 00000001     H   33752 33739B
 $$$924F       2 00004908 00000001     H   33776 33763B
 $$$925F       2 00004916 00000001     H   33800 33787B
 $$$926        1 00000054 00000001 A   U   33858 33855  33857
 $$$928B       1 00004952 00000001     X   33894 33901U
 $$$929        1 00000050 00000001 A   U   33976 33973  33975
 $$$93B        1 000004DE 00000001     X    8449  8456U
 $$$931B       1 00004994 00000001     X   34012 34019U
 $$$932F       2 000049A8 00000001     H   34080 34067B
 $$$933F       2 000049D0 00000001     H   34127 34112B
 $$$934F       2 00004A42 00000001     H   34299 34141B
 $$$935F       2 00004A0C 00000001     H   34199 34186B
 $$$936B       4 00004A1A 00000001     I   34235 34264
 $$$936F       2 00004A2C 00000001     H   34261 34235B 34263
 $$$937E       2 00004A30 00000001     H   34271 34265
 $$$937F       2 00004A42 00000001     H   34295 34267B
 $$$938        1 00000050 00000001 A   U   34351 34348  34350
 $$$94         1 00000050 00000001 A   U    8486  8483   8485
 $$$940B       1 00004A96 00000001     X   34411 34418U
 $$$941F       2 00004ACC 00000001     H   34525 34498B
 $$$942F       2 00004BB8 00000001     H   34925 34560B 34582B 34596B 34614B
 $$$946F       2 00004B20 00000001     H   34658 34641B
 $$$948F       2 00004B3C 00000001     H   34707 34673B 34690B
 $$$951F       2 00004B50 00000001     H   34732 34722B
 $$$952F       2 00004B7C 00000001     H   34813 34747B
 $$$953B       4 00004B60 00000001     I   34763 34776
 $$$953F       2 00004B68 00000001     H   34773 34763B 34775
 $$$954E       2 00004B6C 00000001     H   34783 34777
 $$$954F       2 00004B7C 00000001     H   34809 34779B
 $$$955F       2 00004B7C 00000001     H   34805 34796B
 $$$956F       2 00004B94 00000001     H   34841 34828B
 $$$957F       2 00004BA0 00000001     H   34861 34852B
 $$$958F       2 00004BB8 00000001     H   34921 34872B
 $$$959F       2 00004BB8 00000001     H   34917 34893B
1PAGE     (PAGE2193) (12:50) (15MAR04) Ordinary Symbol and Literal Cross Reference                                          Page  178
 $$$96B        1 00000510 00000001     X    8513  8520U
 $$$960        6 000051E6 00000001     I   34907 34899X
 $$$961        6 000051E6 00000001     I   34906 34907  34907
 $$$962F       2 00004BE6 00000001     H   35002 34953B
 $$$962T       2 00004BC8 00000001     H   34956 34943B
 $$$964F       2 00004BE6 00000001     H   34998 34983B
 $$$965F       2 00004C04 00000001     H   35046 35031B
 $$$966F       2 00004CBE 00000001     H   35323 35060B
 $$$967F       2 00004C3E 00000001     H   35099 35089B
 $$$968F       2 00004C6E 00000001     H   35187 35114B 35129B
 $$$97         1 00000050 00000001 A   U    8550  8547   8549
 $$$970F       2 00004C6A 00000001     H   35177 35167B
 $$$971F       2 00004C80 00000001     H   35216 35206B
 $$$972B       4 00004C96 00000001     I   35259 35288
 $$$972F       2 00004CA8 00000001     H   35285 35259B 35287
 $$$973E       2 00004CAC 00000001     H   35295 35289
 $$$973F       2 00004CBE 00000001     H   35319 35291B
 $$$974F       2 00004D3C 00000001     H   35509 35348B 35389B
 $$$975        6 000051EC 00000001     I   35374 35366X
 $$$976        6 000051EC 00000001     I   35373 35374  35374
 $$$978F       2 00004D3C 00000001     H   35505 35414B
 $$$978S       2 00004CFE 00000001     H   35408 35504B
 $$$980F       2 00004D20 00000001     H   35469 35444B 35456B
 $$$982F       2 00004D2E 00000001     H   35495 35479B
 $$$984        1 0000014C 00000001 A   U   35558 35555  35557
 $$$99B        1 00000544 00000001     X    8580  8587U
 $ALTHOME      4 00006501 00000001     X   43315 25888  27834
 $BCT          1 000064CE 00000001     C   43300 42814  43183  43188  43274
 $CLRFMT      19 00006516 00000001     X   43325 27993  33029
 $CLRMSG       5 0000650D 00000001     X   43318 14614  20072  25545  27826
 $CLRTABS      5 00006516 00000001     X   43321 43325  43325
 $CREM         3 000064CB 00000001     X   43299 14711  20075
 $CS           7 000064C1 00000001     X   43297 25516  27825  39033  43243
 $CSI          2 000064BE 00000001     X   43295 14645  20073  31851  32176  33061  41460
 $CSVTAM       3 000064C8 00000001     X   43298 14285  20066
 $FEND         4 000064E0 00000001     X   43304 28231  29894  33034
 $FPROT        5 000064CF 00000001     X   43301 28977  29322  30561  30656  33047
 $FPROTS       8 000064D4 00000001     X   43302 29092  29623  30122  30394  30509  30688  33048
 $FUNPROT      4 000064DC 00000001     X   43303 29293  30168  33050  37819  38192
 $LCSI         3 000064BE 00000001     X   43296 25370  25640  27824  28299  29923  32324  32493  32626  33035  42765
                                                 43133  43138  43273
 $RCP          1 0000652B 00000001     C   43329 41717
 $RFC          1 0000652A 00000001     C   43328 41655
 $RFP          1 0000652C 00000001     C   43330 41845
 $SEM          1 00006529 00000001     C   43327 25756  27830
 $SETBOT       4 00006509 00000001     X   43317 31039  33057
 $SETFBLK      4 000064F5 00000001     X   43312 42211  43267
 $SETHOME      4 000064FD 00000001     X   43314 30196  33053
 $SETLBLK      4 000064F9 00000001     X   43313 42260  43268
 $SETMSG       4 00006512 00000001     X   43319 38125  38197
 $SETRULE      3 000064E4 00000001     X   43305 25574  27827
 $SETTAB       4 000064E9 00000001     X   43309 29430  30224  30290  33051
 $SETTOP       4 00006505 00000001     X   43316 30996  33056
 $SETTRIG      4 000064ED 00000001     X   43310 29538  33052
 $SETTROW      4 000064F1 00000001     X   43311 28161  33032
 $SI           1 000064E8 00000001     X   43307 42614  43019  43271
 $SO           1 000064E7 00000001     X   43306 42546  43270
 @RAR          0 00000000 FFFFFFF0     @    1132  2174   2182B
 @R0           0 00000000 FFFFFFFE     @     706   982U
1PAGE     (PAGE2193) (12:50) (15MAR04) Ordinary Symbol and Literal Cross Reference                                          Page  179
 @R1           0 00000000 FFFFFFFD     @     719   978U  2180   2181  13825  13834  24890  25302  25669U 25710U 25717
                                                 26196M 26763  26764  26836  26838  29253U 29368U 32145U 34654M 34703M
                                                 34877M 34906M 34906  35184U 35432U 36715  36728  36741  36755  36769
                                                 36775  37022M 37056M 37377M 37386M 37393M 37440M 37449M 37468M 37478M
                                                 37504M 37513M 37540M 38320M 38366M 39416  41135  41142  41429  41599
                                                 41617  41655  41679  41685  41717  41845  41985
 @R10          0 00000000 FFFFFFF4     @     836   942U
 @R11          0 00000000 FFFFFFF3     @     849   938U
 @R12          0 00000000 FFFFFFF2     @     862   934U
 @R13          0 00000000 FFFFFFF1     @     875   930U  8229   9990  12269  25074
 @R14          0 00000000 FFFFFFF0     @     888   926U 25025M 25057  35373  35431  42649U 42651M 42673M
 @R15          0 00000000 FFFFFFEF     @     901   922U 13771  15003  15880U 20006  22108  22350  23196  24013U 24059U
                                                 24224  25718U 26644U 26659U 26731  27231  31262U 31569U 31753U 32067U
                                                 32087U 32154U 32296U 32814U 32950U 34786  34837  35076  35425U 37358U
                                                 40175  41141  41686U 42710  42912
 @R2           0 00000000 FFFFFFFC     @     732   974U 15900  17783  23249  25249  26263U 26729M 26730  26754M 26755
                                                 26764M 26775  26782M 30303  31562  35491M 35498  35928  35968  40613U
 @R3           0 00000000 FFFFFFFB     @     745   970U 13758  13872  15894  16034  16572U 17601  18087  18637  18827
                                                 19488  21776  23255U 23657M 23658  23833  23834  28187  29367  29448
                                                 31507U 31690U 32532  32843  32979  35009U 35373  35424  35484M 35497
                                                 37357  37395  38511  40909  42311
 @R4           0 00000000 FFFFFFFA     @     758   966U  8098  11765U 12220U 12493U 12577U 12661U 12745U 12829U 12913U
                                                 12997U 15144  15323  15371  15418  16040U 16047  17608  18093U 18643U
                                                 18833U 19494U 19770  20447  21198  21623  22039  22133  22516  22812
                                                 23063  23263  23766  23863  24231  25852  26583U 27271U 27520U 30744U
                                                 30903U 31437  31590  31617  32561U 32695U 32849U 32985U 33837U 33960U
                                                 34335U 35537U 37108U 37623U 37939U 38162U 38718U 38900U 39319U 39622U
                                                 39754U 40595  40915U 41155U 42369  42397  42425  42453  42481  42510
                                                 42648  42653  42665
 @R5           0 00000000 FFFFFFF9     @     771   962U  8104U  9367U  9941U 10250U 10359U 10514U 10669U 10772U 11133U
                                                 15150U 15467U 15532U 15711U 16053U 16359  16705U 17026U 17352U 17614U
                                                 18112  18265  18848  19505  19776U 20012U 20453U 21204U 21829U 22533U
                                                 22818U 23069U 23269U 23530U 23772U 23869U 24237U 24647U 25335U 25858U
                                                 26578U 27262U 27421U 30751U 31057U 31443U 31623U 31809U 32719  32813
                                                 32840M 32841  32949  32976M 32977  33832U 33955U 34330U 35532U 37103U
                                                 37618U 37934U 38157U 38713U 38895U 39314U 39617U 39749U 40601U 41226U
                                                 41408  41420  41460  41466  41503  41525  41537  42189  42238  42281
                                                 42282  42696  42710  42898  42912
 @R6           0 00000000 FFFFFFF8     @     784   958U  7807U  8240U 10002U 10509U 10664U 10913U 11054U 12281U 13436U
                                                 15755U 16170U 16527U 16710U 17031U 17357U 17645U 17806U 18118U 18271U
                                                 18854U 19511U 20034U 20558U 21444U 21834U 22538U 22806U 23886U 24443U
                                                 43338U
 @R7           0 00000000 FFFFFFF7     @     797   954U  7095U  7244U  7839U  8245U  8365U  8475U  8539U  8658U  8769U
                                                  8833U  9426U 10012U 10255U 10364U 10519U 10674U 10777U 10918U 11059U
                                                 11138U 11199U 11824U 12291U 12498U 12582U 12666U 12750U 12834U 12918U
                                                 13002U 13063U 13444U 13605U 13911U 14818U 15760U 16076U 16183U 16720U
                                                 17046U 17372U 17655U 17822U 18131U 18288U 18866U 19522U 19791U 20039U
                                                 20568U 21473U 21839U 22543U 22841U 22957U 23285U 23899U 24248U 27782U
                                                 28402U 28707U 28899U 28996U 29670U 30044U 30316U 30413U 30580U 30723U
                                                 31068U 31899U 33007U 33847U 33965U 34340U 35547U 37118U 37633U 37944U
                                                 38167U 38723U 38905U 39195U 39324U 39627U 39759U 39941U 40618U 41236U
                                                 42025U 43048U 43211U
 @R8           0 00000000 FFFFFFF6     @     810   950U  7834U  9421U 10007U 11819U 12286U 14813U 16071U 16715U 20563U
                                                 21468U 23894U 31894U 33002U 33842U 35542U 37113U 37628U 39936U 41231U
                                                 42020U 43043U
 @R9           0 00000000 FFFFFFF5     @     823   946U
 ABSCENT       1 00000000 00000000 A   T    2190  2190
 ACTGINFO      1 00000000 0000002F     T   33049 33049
 ACTPICK       1 00000000 0000001E     T   24278 24278  27840  37142
1PAGE     (PAGE2193) (12:50) (15MAR04) Ordinary Symbol and Literal Cross Reference                                          Page  180
 ADDER         1 00000000 00000022     T   24286 24286
 AINACFLG      1 0000004D FFFFFFE8     R    6664  6668   6673   6678   6683   6688
 AINACFLN      4 0000003C FFFFFFE8     F    6656  6691   6691
 AINAFLAG      1 0000003B FFFFFFE8     R    6628  6632   6637   6642   6647
 AINAFPRT     64 0000003B FFFFFFE8         6637 29230
 AINANAME      8 00000000 FFFFFFE8     C    6610  6706   6706
 AINFO       424 00000000 FFFFFFE8     J    6714 29191  29201U 33064
 ASCTBL        1 00000000 00000000 A   T    2198  2198
 BACKFILL      2 00002960 00000001     H   21506 24279
 BLTBL         1 00000000 00000000 A   T    2200  2200
 BR            7 00000007 00000001 A   #    1022  6968M  7136M  7398M  7882M  8282M  8444M  8508M  8575M  8738M  8802M
                                                  9025M  9604M 10183M 10288M 10397M 10552M 10707M 10810M 10951M 11092M
                                                 11171M 11353M 11978M 12447M 12531M 12615M 12699M 12783M 12867M 12951M
                                                 13035M 13103M 13485M 13649M 14132M 14857M 15821M 16118M 16253M 16763M
                                                 17089M 17414M 17698M 17869M 18176M 18336M 18911M 19563M 19840M 20172M
                                                 20654M 21520M 21879M 22582M 22886M 22996M 23367M 23948M 24412M 27921M
                                                 28444M 28746M 28941M 29038M 29722M 30086M 30358M 30455M 30622M 30777M
                                                 31149M 31968M 33127M 33889M 34007M 34406M 35789M 37255M 37683M 37986M
                                                 38234M 38765M 38943M 39239M 39368M 39671M 39828M 39980M 40693M 41324M
                                                 42113M 43090M
 BTD           1 00000000 0000002B     T   27850 27850
 CALCCMC       4 00005CE0 00000001     I   40935 40737B
 CALCCOL       4 00005CF4 00000001     I   40955 40898B
 CALCCRS       8 00000000 FFFFFFD2     D   40660 40956M 41160M 41168
 CALCCURS      2 00005C5A 00000001     H   40678 27822
 CALCDIM       2 00005AB2 00000001     H   39966 20079  39962
 CALCEXIT      2 00005DAA 00000001     H   41222 40948B
 CALCLINE    235 0000000C FFFFFFD2     C   40663 41065  41099
 CALCRC        4 00000008 FFFFFFD2     F   40661 40955M 41217
 CALCWA      247 00000000 FFFFFFD2     J   40670 40690  40719U 41244  41246  41247
 CHECKIOB      1 00000000 00000000 A   T    2246  2246
 CHKTTYPE      1 00000000 00000023     T   27808 27808
 COLMAP       50 00005322 00000001     C   37648 37333
 COLMREND      1 0000540D 00000001     R   37654 37540
 COMMAND       1 00000000 00000000 A   T    2186  2186
 COMMSEG       1 00000000 00000000 A   T    2187  2187
 CONTMSG      51 0000138C 00000001     X   13622 13584  13584
 CONTMSGX     21 0000138C 00000001     C   13620 13622  13622
 CP         4096 00000000 FFFFFFEC     J    6200  1175U
 CP#OOPS       1 00000007 FFFFFFEC A   U    3943 39893
 CP#XSTK       1 00000010 FFFFFFEC A   U    3932  3933
 CPACFLG       1 000005D5 FFFFFFEC     R    4035  4039   4044   4049   4054   4059
 CPACFLN       4 000005C4 FFFFFFEC     F    4027  4062   4062
 CPACFPG       8 000005D5 FFFFFFEC         4059 35113
 CPACHCT       4 000005B4 FFFFFFEC     F    3992 26614  26615M 30820  30821M 36215M 36215
 CPACLNO       4 000005A8 FFFFFFEC     F    3989 39414M
 CPACNLN       4 000005C8 FFFFFFEC     F    4028 35128  39523
 CPACTNO       4 0000057C FFFFFFEC     F    3971  7573   8058  15159  17939  18406  19057  19226  20692  27401  29146
                                                 33208  36469  39907
 CPAFLAG       1 000005C3 FFFFFFEC     R    3999  4003   4008   4013   4018
 CPAFLNO       4 000005A0 FFFFFFEC     F    3987 21212
 CPAFNAME    128 0000062C FFFFFFEC     C    4073 36679  36813
 CPAFNAMEL
               4 00000628 FFFFFFEC     F    4072 36647  36684  36818
 CPAFPRT      64 000005C3 FFFFFFEC         4008 29161
 CPAHOST     128 000006B0 FFFFFFEC     C    4075 36932
 CPAHOSTL      4 000006AC FFFFFFEC     F    4074 36900  36937
 CPALLNO       4 000005A4 FFFFFFEC     F    3988 41053  41060
 CPALNCT       4 000005AC FFFFFFEC     F    3990 21945M 21945  25177M 25177  36032M 36032  36301  38475
1PAGE     (PAGE2193) (12:50) (15MAR04) Ordinary Symbol and Literal Cross Reference                                          Page  181
 CPANAME       8 00000588 FFFFFFEC     C    3981  4077   4077  36527  36532
 CPATITL      80 000005D6 FFFFFFEC     C    4067 36556M 36556  36601  36606
 CPAUTFLG      1 000008A9 FFFFFFEC     R    4345  4349   4354   4359   4364
 CPBLKACT      4 00000748 FFFFFFEC     F    4091 19057  22695  33422  34559  36177M 36177
 CPCHFLAG      1 00000B68 FFFFFFEC     R    4972  4976
 CPCMD       235 00000242 FFFFFFEC     C    2825 24369  24549M 26678  26690M 26709M 26710  26837M 26838M 26857M 26876M
                                                 26927M 26959  26966M 26982  26989M 27005  27012M 27028  27035M 27051
                                                 27058M 27074  27081M 27097  27104M 27535  27628M 27681  27722  37882
                                                 38810M 38858M 38879  39530M 39555M 43239
 CPCMDLEN      2 00000240 FFFFFFEC     H    2824 14381M 14381  24548M 24548  26677  26689M 27539  27554M 27618M 27618
                                                 27627M 27685  27726  37886  38831M 38883  38888M 39453M 39453  39529M
                                                 39554M 39726M 39726
 CPDELTA       4 00000738 FFFFFFEC     F    4084 22003  22405  22433
 CPDFLG        1 0000084C FFFFFFEC     R    4232  4236   4241   4246   4251   4256
 CPDFLG2       1 0000084D FFFFFFEC     R    4261  4265   4270   4275   4280   4285   4290
 CPDOUB        8 00000C88 FFFFFFEC     D    5218 26895  26927  35071
 CPERRID       8 00000886 FFFFFFEC     C    4331 13420M
 CPEXFLG       1 00000758 FFFFFFEC     R    4101  4105
 CPEXFLG2      1 00000759 FFFFFFEC     R    4111  4120   4130
 CPEXFLG3      1 0000075A FFFFFFEC     R    4137  4141   4146
 CPEXTFLG      1 00000E28 FFFFFFEC     R    5783  5787   5792   5797   5802   5807   5812
 CPFABORT    128 00000D5A FFFFFFEC         5549  2150M  2150   2155M  2155
 CPFBKCOL      2 00000754 FFFFFFEC     H    4094 34646  34833  34836
 CPFBKLNO      4 0000074C FFFFFFEC     F    4092 19073  19090  19099M 19106M 19698M 22729  22762  33441  34579  34640
                                                 34827
 CPFDISP      16 00000C7B FFFFFFEC         5117 14241M 14370M 14552M 14802M 24659M 26027M
 CPFDUMP     128 00000D55 FFFFFFEC         5414 13681
 CPFERROR     64 00000D5A FFFFFFEC         5554  2149M  2149   2154M  2154
 CPFEXEC     128 00000758 FFFFFFEC         4105 13727
 CPFNOCURS
               8 00000C7B FFFFFFEC         5122 26041M 26149M 26191M 26212
 CPFNTEX       1 00000040 FFFFFFEC A   U    5401  5402
 CPFQUIET     64 00000D55 FFFFFFEC         5419 13693
 CPFRDRNG      1 00000D88 FFFFFFEC     R    5669  5673   5678   5683   5688   5693   5698   5703
 CPFRDSRC      1 00000D89 FFFFFFEC     R    5708  5717   5727   5737
 CPFTYPED     16 00000477 FFFFFFEC         3606 27713M
 CPFUFMT       8 00000C7C FFFFFFEC         5157 24681M 26034M
 CPFUNUM       1 00000080 FFFFFFEC A   U    5400  5402
 CPFXDFLG      1 000007E4 FFFFFFEC     R    4179  4183   4188
 CPGFLG1       1 00000474 FFFFFFEC     R    3542  3546   3551   3556   3561   3566   3896   3896
 CPGFLG10      1 0000047D FFFFFFEC     R    3779  3783   3788   3793   3798   3803   3808
 CPGFLG11      1 0000047E FFFFFFEC     R    3814  3818   3823
 CPGFLG12      1 0000047F FFFFFFEC     R    3829  3833   3838   3843
 CPGFLG13      1 00000480 FFFFFFEC     R    3849  3853
 CPGFLG14      1 00000481 FFFFFFEC     R    3859  3863   3868   3873   3878   3883
 CPGFLG4       1 00000477 FFFFFFEC     R    3595  3606   3615   3624   3633   3642
 CPGFLG5       1 00000478 FFFFFFEC     R    3648  3652   3657   3662   3667   3672   3677   3682   3687
 CPGFLG6       1 00000479 FFFFFFEC     R    3693  3697   3702   3707
 CPGFLG7       1 0000047A FFFFFFEC     R    3713  3717   3722   3727   3732
 CPGFLG8       1 0000047B FFFFFFEC     R    3738  3742   3747   3752   3757
 CPGFLG9       1 0000047C FFFFFFEC     R    3763  3767   3773
 CPINIT        1 00000174 FFFFFFEC     U    2712  6169
 CPJESFLG      1 000009E1 FFFFFFEC     R    4444  4448   4453   4458   4463   4468   4473   4478   4483
 CPJESFLY      1 000009FD FFFFFFEC     R    4494  4498   4503   4508
 CPJESHFL      1 000009E0 FFFFFFEC     R    4429  4433   4438   4517   4517
 CPLBKCOL      2 00000756 FFFFFFEC     H    4095 34680  34762M 34762  34769
 CPLBKLNO      4 00000750 FFFFFFEC     F    4093 19128  19145  19154M 19161M 19706M 22743  22776  33455  34593  34672
                                                 34746
 CPLCNO        4 0000073C FFFFFFEC     F    4086 20233  20400M 20499M 20530  20818M 20823  21123  21294M 21299  21411
1PAGE     (PAGE2193) (12:50) (15MAR04) Ordinary Symbol and Literal Cross Reference                                          Page  182
                                                 21576M 21613M 21648  21799  21819  35014M 41098
 CPLFLG10      1 00000D59 FFFFFFEC     R    5535  5539
 CPLFLG11      1 00000D5A FFFFFFEC     R    5545  5549   5554   5559   5564
 CPLFLG12      1 00000D5B FFFFFFEC     R    5570  5574
 CPLFLG14      1 00000D5C FFFFFFEC     R    5580  5584   5589   5594   5599   5604
 CPLFLG6       1 00000D55 FFFFFFEC     R    5410  5414   5419   5424   5429   5434   5439
 CPLFLG7       1 00000D56 FFFFFFEC     R    5445  5449   5454   5459   5464   5469
 CPLFLG8       1 00000D57 FFFFFFEC     R    5475  5479   5484   5489   5494
 CPLFLG9       1 00000D58 FFFFFFEC     R    5500  5504   5509   5514   5519   5524   5529
 CPLFSPEL    128 00000D59 FFFFFFEC         5539 34940
 CPLINTP       4 00000B60 FFFFFFEC     A    4964  7054   7067M  7208M  7208   7216   7223M  7223  15012  15244  19713
                                                 22619  23021  28025  30851  31271  31467
 CPLOCALZ      1 00000C48 FFFFFFEC     U    5002  6163   6163
 CPMFLG        1 0000084F FFFFFFEC     R    4299  4303
 CPMODFLG      1 00000C78 FFFFFFEC     R    5030  5034   5039   5044   5049   5054
 CPNAMELN      1 00000010 FFFFFFEC A   U    3925  4172
 CPNEDPFX     10 00000E29 FFFFFFEC     X    5816  5817   5818
 CPNSCANP      4 0000008C FFFFFFEC     A    2585  7905   7969   7978   7985   8000   8226   8309   8316   8332   8602
                                                  8609   8625   9658   9759   9768   9775   9791   9987  12032  12132
                                                 12142  12149  12165  12266
 CPNUMFLG      1 00000C79 FFFFFFEC     R    5060  5072
 CPORVCMD      1 00000140 FFFFFFEC     R    2594  2598   2603   2608   2613   2618   2623   2628   2633   2638   2638
                                                  2689   2689
 CPORVFLG      1 00000149 FFFFFFEC     R    2645  2649   2654   2659   2664   2669   2674   2679   2684
 CPORVWF       1 00000150 FFFFFFEC     R    2697  2701
 CPOSCANX      4 00000CA8 FFFFFFEC     F    5229  5296   5296
 CPR          11 0000000B 00000001 A   #    1086  1175U
 CPRACBAD     16 000001FC FFFFFFEC         2763  2797   2797   2798   2798
 CPRACF1       1 000001FC FFFFFFEC     R    2744  2748   2753   2758   2763   2768   2773   2778   2783   2799
 CPRACPSW     32 000001FC FFFFFFEC         2758  2796   2796   2798   2798
 CPRACUND     64 000001FC FFFFFFEC         2753  2796   2796   2797   2797
 CPRCVCUR      4 00000730 FFFFFFEC     A    4080  4082   4082
 CPRFLG        1 000008AA FFFFFFEC     R    4370  4374   4379   4384   4389   4394   4399
 CPRG16       32 00000524 FFFFFFEC     X    3919 39894  39911
 CPS         254 00000344 FFFFFFEC     X    3514  3517   3518   3520   3520
 CPSACCT       5 000003B4 FFFFFFEC     C    3113  3276   3276
 CPSAMCOD      1 00000A22 FFFFFFEC     R    4566  4574   4584   4594   4603   4612   4621   4631   4640   4649
 CPSAMFLG      1 00000A21 FFFFFFEC     R    4526  4530   4535   4540   4545   4550   4555   4560   4671   4671
 CPSAMWID      2 00000A9C FFFFFFEC     H    4664 40193  40342
 CPSCNFLG      1 00000CD0 FFFFFFEC     R    5242  5253   5262   5273
 CPSCNF2       1 00000CD1 FFFFFFEC     R    5278  5282
 CPSCNMAX      1 00000014 FFFFFFEC A   U    5294  5295
 CPSCRI        2 00000434 FFFFFFEC     H    3503  3508   3508
 CPSEG        60 00000050 FFFFFFEC     X    2583 13155  13173  13310  13328  13362  13390  13408  13894  14181  14230
                                                 14293  14307  14332  14427  14454  14479  14541  14577  14591  14622
                                                 14653  14671  14719  14733  14758  14788M 24695  24763  24806  24838
                                                 24856  24912  25024  25025  25025  25029  25049  25057  25074M 25378
                                                 25399  25417  25438  25456  25477  25495  25524  25553  25582  25603
                                                 25648  25681  25699  25736  25764  25896  25961  27862  28001  28169
                                                 28239  28307  28328  28346  28367  28385  28474  28985  29100  29346
                                                 29438  29546  29631  29649  29902  29931  29952  29970  29992  30010
                                                 30130  30176  30204  30232  30298  30402  30517  30569  30712  31004
                                                 31047  31859  31877  32184  32205  32223  32244  32262  32332  32355
                                                 32406  32501  32519  32634  32652  33602  33811  34166  34219  34287
                                                 35243  35311  37592  37799  37827  37861  37911  38079  38133  39013
                                                 39041  39059  39080  39098  39142  42219  42268  42554  42622  42773
                                                 42794  42822  42865  42944  43027  43146  43168  43196
 CPSEGCOD      1 00000050 FFFFFFEC     R    2500  2509   2519   2529   2539   2549   2559   2569
 CPSEGLENF
1PAGE     (PAGE2193) (12:50) (15MAR04) Ordinary Symbol and Literal Cross Reference                                          Page  183
               4 0000005C FFFFFFEC     A    2575 13705  24863  25995
 CPSEGLOC      4 00000070 FFFFFFEC     A    2579 13757  24862  25990
 CPSEGRTN      4 00000074 FFFFFFEC     A    2580 14235M 14546M 25057M 25057
 CPSFE         8 0000034C FFFFFFEC     C    2843 40479
 CPSFL         1 00000384 FFFFFFEC     R    2851  2855   2860   2865   2870   2875
 CPSFLG        1 000003F8 FFFFFFEC     R    3391  3395   3400   3405   3410   3415   3420   3425   3430
 CPSFLG2       1 000003F9 FFFFFFEC     R    3436  3440   3445   3450
 CPSFL2        1 00000385 FFFFFFEC     R    2881  2885   2890   2895   2900
 CPSFL3        1 00000386 FFFFFFEC     R    2906  2910   2915   2920
 CPSFL4        1 00000387 FFFFFFEC     R    2926  2930   2935   2940
 CPSFL5        1 00000388 FFFFFFEC     R    2946  2950   2955   2960
 CPSGRP        2 000003B7 FFFFFFEC     C    3115 36755
 CPSHEI        2 0000041C FFFFFFEC     H    3491 40042
 CPSKAFL       1 000003BF FFFFFFEC     R    3247  3251   3256   3261   3266   3271
 CPSKIFL       1 000003BE FFFFFFEC     R    3202  3206   3211   3216   3221   3226   3231   3236   3241
 CPSNMSG       2 00000390 FFFFFFEC     H    3095 24740  24930  24952
 CPSOF         1 000001F8 FFFFFFEC     X    2734  2736   2736
 CPSOFLAG      1 00000416 FFFFFFEC     R    3461  3465   3470   3475   3480   3485
 CPSOPST       4 000003C4 FFFFFFEC     F    3281  3510   3510
 CPSPORT       8 00000354 FFFFFFEC     C    2845  2965   2965
 CPSQFLG       1 000003EC FFFFFFEC     R    3310  3314
 CPSSFLG       1 000003BB FFFFFFEC     R    3120  3124   3129   3134   3139   3144   3149
 CPSSTART      4 00000344 FFFFFFEC     F    2837  2841   2841   3277   3277   3382   3382   3514   3514
 CPSSTAT       1 0000038F FFFFFFEC     R    3057  3061   3066   3071   3076   3081   3086   3091
 CPSTABS      16 00000406 FFFFFFEC     X    3457 15879
 CPSTACF       1 000003BC FFFFFFEC     R    3155  3159   3164   3169   3174   3179   3184   3189   3194
 CPSTART       4 00000000 FFFFFFEC     C    2473  6167   6171
 CPSTASYN      2 0000038C FFFFFFEC         2989 13136
 CPSTCONS      1 0000038C FFFFFFEC         2979 13226
 CPSTFLAG      1 000003EA FFFFFFEC     R    3288  3292   3297   3302
 CPSTTYPE      8 0000041E FFFFFFEC     C    3493 13291M 13291  13377  13382  24608
 CPSTVIRT      5 0000038C FFFFFFEC         3019 13199
 CPSTYPE       1 0000038C FFFFFFEC     R    2970  2979   2989   2999   3009   3019   3029   3039   3049
 CPSUC         2 000003C4 FFFFFFEC     H    3282 24723  24725M
 CPSUFLG       1 000003EE FFFFFFEC     R    3325  3329   3334   3339   3344   3349   3354   3359   3364
 CPSUFLG2      1 000003EF FFFFFFEC     R    3370  3374   3379
 CPSUSER       3 000003B4 FFFFFFEC     C    3114 36769
 CPSVPGM       8 0000039C FFFFFFEC     C    3103  3109   3109
 CPSWID        2 00000418 FFFFFFEC     H    3489 40245
 CPS1ST        4 0000038C FFFFFFEC     F    2967  3512   3512
 CPTEMPP#      1 0000005F FFFFFFEC A   U    4420  4422
 CPTRM        14 00000C7A FFFFFFEC     X    5216 14098  14182  14189M 14189  14789M
 CPTRMFL1      1 00000C7A FFFFFFEC     R    5078  5082   5087   5092   5216   5216
 CPTRMFL2      1 00000C7B FFFFFFEC     R    5098  5102   5107   5112   5117   5122   5127
 CPTRMFL3      1 00000C7C FFFFFFEC     R    5133  5137   5142   5147   5152   5157   5162   5167
 CPTRMFL4      1 00000C7D FFFFFFEC     R    5173  5177   5182   5187   5192   5197   5202   5207
 CPTTYPEP      4 00000468 FFFFFFEC     A    3533 13248  24575  24618  31208  32010  32272  34470  35140  37332  40010
 CPUSED        1 00000FBC FFFFFFEC A   U    6167  6168
 CPVACOL       2 00000AE8 FFFFFFEC     H    4943  7658   8143M  8143   8214M 14917M 14917  20397M 20397  24522M 24522
                                                 25217  27119M 27119  27254M
 CPVACURS      8 00000AF0 FFFFFFEC     D    4945  4946   4947   8129M  8129  14903M 14903  20383M 20383  24508M 24508
                                                 25162M 25162  25211M 25211  25223M 25868  25914  27121  27230  41739M
                                                 41773M 41773  41804M 41804  41811
 CPVALNO       4 00000AEC FFFFFFEC     F    4944  7657   8131M  8213M 14905M 19000  19017  19026M 19033M 19649  19667
                                                 19681M 20385M 24510M 25149  25195M 25195  25218  27112M 27256M
 CPVCMDR       2 00000B4C FFFFFFEC     H    4952 15322M 15651M 24523  26220  27643  40940  41760
 CPVCOL        2 00000ADA FFFFFFEC     H    4937  7637   8138M  8138   8197M 14912M 14912  20392M 20392  20426M 24517M
                                                 24517  25254  25318  27285M 27285  39439M 39573M 39573
 CPVCURC       4 00000AE4 FFFFFFEC     F    4941 24525M 39303M
1PAGE     (PAGE2193) (12:50) (15MAR04) Ordinary Symbol and Literal Cross Reference                                          Page  184
 CPVCURR       4 00000AE0 FFFFFFEC     F    4940 24524M 27631  39296
 CPVCURS       8 00000AE0 FFFFFFEC     D    4939  4940   4941   8124M  8124  14898M 14898  20378M 20378  24370  24503M
                                                 24503  25132M 25132  25239M 25239  25324M 25914  25923  26679  27287
                                                 27428  27650M 41723M 41748  41811M
 CPVFBELL     32 00000ACE FFFFFFEC         4923 13590M 24942M 25942  25972M 39737M
 CPVFBRK      64 00000ACE FFFFFFEC         4918 26315M 26387  27764
 CPVFBUG      16 00000ACA FFFFFFEC         4824 26350  38973
 CPVFCH       16 00000AC8 FFFFFFEC         4759 26604  26622M 30810  30828M 38384M 39503M
 CPVFCLR     128 00000AC9 FFFFFFEC         4774 14883M 24567  25349  25796  25796  25797  25797  25799M 27972  39183M
                                                 40006M
 CPVFESC      32 00000ACB FFFFFFEC         4854 26059  26078M 37765
 CPVFEXIT    128 00000ACE FFFFFFEC         4913 27569
 CPVFFMT      32 00000AC9 FFFFFFEC         4784 16064M 16682M 17814M 25616  25616  25617M 25796  25796  25798  25798
                                                 27951
 CPVFFORMAT
               4 00000ACA FFFFFFEC         4834 24669  29267  36252
 CPVFHIDE      8 00000AC8 FFFFFFEC         4764 22713  33473  34611  36164
 CPVFINS       1 00000ACC FFFFFFEC         4901 39548
 CPVFLAG       1 00000AC8 FFFFFFEC     R    4740  4744   4749   4754   4759   4764
 CPVFLAG2      1 00000AC9 FFFFFFEC     R    4770  4774   4779   4784   4789   4794   4799
 CPVFLAG3      1 00000ACA FFFFFFEC     R    4805  4809   4814   4819   4824   4829   4834
 CPVFLAG4      1 00000ACB FFFFFFEC     R    4840  4844   4849   4854
 CPVFMARK      8 00000AC9 FFFFFFEC         4794 22612  22830M
 CPVFPAGE    128 00000AC8 FFFFFFEC         4744 14172  14365M 14797M 24465M 26105M
 CPVFREN       4 00000AC9 FFFFFFEC         4799 18984M 19039M 19112M 19167M 19412M 19469M
 CPVFREWR     64 00000AC9 FFFFFFEC         4779 25616  25616  25797  25797  25798  25798  31196  33563
 CPVFRTRY     16 00000AC9 FFFFFFEC         4789 24483  24495M
 CPVFSPEC     32 00000AC8 FFFFFFEC         4754 13556M 14890M 17626M 20359  20370M 20474  25804M
 CPVFSPEL      8 00000ACA FFFFFFEC         4829 34952
 CPVFUNN      64 00000ACA FFFFFFEC         4814 15178
 CPVFVTAM    128 00000ACB FFFFFFEC         4844 14202  15259  26121  28522  29585  29770  34234  35258  35455  37746
                                                 40153  41733
 CPVFWRAP    128 00000ACA FFFFFFEC         4809 15223
 CPVFWYL     128 00000ACC FFFFFFEC         4866 25658M
 CPVHEI        2 00000AD4 FFFFFFEC     H    4931 11448  12089  15026  15460  15537  19739  22633  23035  25387  26439
                                                 27146  27312  28039  28275  28355  30866  31285  31481  31556  31650
                                                 40027  40136M
 CPVIND        2 00000B50 FFFFFFEC     H    4955 15205
 CPVLFLAG      1 00000ACE FFFFFFEC     R    4909  4913   4918   4923  24472M
 CPVLNO        4 00000ADC FFFFFFEC     F    4938  7636   8130M  8196M 14904M 18945  18962  18971M 18978M 19597  19615
                                                 19629M 20384M 20399M 24509M 25119  25190M 25190  25319  27278M 39413M
                                                 39414  39480  39565  39566M
 CPVMARG       2 00000B52 FFFFFFEC     H    4956 15206
 CPVMODE       1 00000ACC FFFFFFEC     R    4862  4866   4871   4876   4881   4886   4891   4896   4901  25668  41662M
 CPVMSG       80 00000AFC FFFFFFEC     C    4950 13583M 13584M 13845M 13872M 13969  24715  24890M 24968  24994M 25014
                                                 25059  25060  26150M 38046  38051
 CPVMSGR       2 00000B4E FFFFFFEC     H    4953 14684  15370M 15602M
 CPVNMSG       2 00000B54 FFFFFFEC     H    4958 24930  24952M
 CPVTWID       2 00000AD0 FFFFFFEC     H    4929  4932   4932  17760  25465  40308M 40459M 40518M 40568
 CPVWCHAR      1 00000ACD FFFFFFEC     C    4905 25709  41691M
 CPVWCNT       2 00000AD8 FFFFFFEC     H    4935  7936M  7936   8023M  8023   9120   9715  13519M 13519  14936M 14936
                                                 15718M 15945  16312  16406  16599  16667  16668M 17445M 17445  17905
                                                 18214  18375  19194  20735  22918  23092  25821  28102  40545
 CPVWCUR       2 00000AD6 FFFFFFEC     H    4934  7486   8041   9160   9860   9861M  9871M  9892   9893M  9903M 11126M
                                                 14931M 14931  14965  15057  15717M 16146  16296  16849  16901  17175
                                                 17227  17466  19876  20210  22924M 24081  25087  26477  27377  27383M
                                                 28071  30950  33187  33244  33308  36415  40746
 CPVWID        2 00000AD2 FFFFFFEC     H    4930 25251  25285  25426  30254  35073  35962  36965  37083  37872  38056
                                                 40161  40307M 40308  40327  40439M 40517M
1PAGE     (PAGE2193) (12:50) (15MAR04) Ordinary Symbol and Literal Cross Reference                                          Page  185
 CPWINDP       4 00000B58 FFFFFFEC     A    4961  7004   7017M  7167M  7167   7175   7182M  7182  14948  15931  17891
                                                 18200  18361  19180  23078  25807  40531
 CPWK1         4 00000D60 FFFFFFEC     F    5613  5628   5651
 CPWK2         4 00000D64 FFFFFFEC     F    5614  5629   5643
 CPWK3         4 00000D68 FFFFFFEC     F    5615  5630   5644
 CPWK4         4 00000D6C FFFFFFEC     F    5616  5631   5645
 CPWK5         4 00000D70 FFFFFFEC     F    5617  5633   5638   5646
 CPWK6         4 00000D74 FFFFFFEC     F    5618  5634   5639   5647   5654   5656
 CPWK7         4 00000D78 FFFFFFEC     F    5619  5632   5648
 CPXFLAG       1 000007FD FFFFFFEC     R    4207  4211
 CPXLINT       4 00000B64 FFFFFFEC     A    4965  7070M  7228M  7228   8062  11459  12100  15540  15972  16423  16867
                                                 17193  17487  17984  18514  18754  19274  19908  20285  20890  21559
                                                 21918  22309  23120  23506  23784  23990  24036  24151  26237  26447
                                                 27153  27319  31425  31653  32057  32457  32590  32717  32833  32969
                                                 40773  40993
 CPXSTATE      4 000007F8 FFFFFFEC     F    4201  4214   4214
 CPXWIND       4 00000B5C FFFFFFEC     A    4962  7020M  7187M  7187   7533   8043   9131   9727  15002  16148  16329
                                                 16851  17177  17468  19882  20212  20696  22669  23533  24087  25089
                                                 26483  27216  27350  28077  30952  32107  33193  40748
 CURSCMD       2 000058F0 00000001     H   39225 27855
 CURSCOL       2 000059FC 00000001     H   39657 27856
 CURSLFIN      2 000059EE 00000001     H   39613 39456B 39531B 39556B
 CURSTEXT      2 00005928 00000001     H   39354 27854
 CV         4016 00000000 FFFFFFEE     J    2376  1184U
 CVABSRTN      4 0000088C FFFFFFEE     V    2190  2165
 CVABTMSG      4 000007CC FFFFFFEE     I    2150 13184B 13211B 13238B 13425B 27748B
 CVASCTBL      4 000008B0 FFFFFFEE     V    2198 25711
 CVBLANKS    235 000004D8 FFFFFFEE     C    1970 13583  13845  24549  24715  24968  25014  26150  26690  34086  35070
                                                 35166  35848  36430  36498  36571  37580  38320  38810  41885  41923
                                                 42853
 CVBLTBL       4 000008B8 FFFFFFEE     V    2200 42697
 CVBRMSK       1 00000751 FFFFFFEE     X    2106  2107   2108
 CVCFLAG       1 00000A00 FFFFFFEE     R    2271  2275   2280   2285   2290   2295
 CVCHKST       8 000009F0 FFFFFFEE     D    2261  2351   2351
 CVCHKST2      8 00000E28 FFFFFFEE     D    2354  2357   2357
 CVCOMRTN      4 0000087C FFFFFFEE     V    2186  2156
 CVDBGFLG      1 000004CC FFFFFFEE     R    1960  1964
 CVEBCTBL      4 000008B4 FFFFFFEE     V    2199 26762  41678
 CVENT         4 0000074C FFFFFFEE     I    2104  6968B  7136B  7398B  7882B  8282B  8444B  8508B  8575B  8738B  8802B
                                                  9025B  9604B 10183B 10288B 10397B 10552B 10707B 10810B 10951B 11092B
                                                 11171B 11353B 11978B 12447B 12531B 12615B 12699B 12783B 12867B 12951B
                                                 13035B 13103B 13485B 13649B 14132B 14857B 15821B 16118B 16253B 16763B
                                                 17089B 17414B 17698B 17869B 18176B 18336B 18911B 19563B 19840B 20172B
                                                 20654B 21520B 21879B 22582B 22886B 22996B 23367B 23948B 24412B 27921B
                                                 28444B 28746B 28941B 29038B 29722B 30086B 30358B 30455B 30622B 30777B
                                                 31149B 31968B 33127B 33889B 34007B 34406B 35789B 37255B 37683B 37986B
                                                 38234B 38765B 38943B 39239B 39368B 39671B 39828B 39980B 40693B 41324B
                                                 42113B 43090B
 CVENTBR       2 00000750 FFFFFFEE     I    2105  2106
 CVERROR       4 000007D6 FFFFFFEE     I    2154  2170B
 CVEXIRTN      4 0000077C FFFFFFEE     V    2134  2130
 CVEXNO        1 00000000 0000000A     T    8859  8859  13959  37164
 CVFCHRKBPR
               8 000004C9 FFFFFFEE         1875  1891   1891
 CVFCHRKBSE
               4 000004C9 FFFFFFEE         1880  1891   1891
 CVFCHRKCPR
               2 000004C9 FFFFFFEE         1897  1913   1913
 CVFCHRKCSE
1PAGE     (PAGE2193) (12:50) (15MAR04) Ordinary Symbol and Literal Cross Reference                                          Page  186
               1 000004C9 FFFFFFEE         1902  1913   1913
 CVFCHRUBPR
             128 000004C9 FFFFFFEE         1831  1847   1847
 CVFCHRUBSE
              64 000004C9 FFFFFFEE         1836  1847   1847
 CVFCHRUCPR
              32 000004C9 FFFFFFEE         1853  1869   1869
 CVFCHRUCSE
              16 000004C9 FFFFFFEE         1858  1869   1869
 CVFL          1 000004C4 FFFFFFEE     R    1627  1631   1636   1641   1646   1651   1656   1661   1666
 CVFL2         1 000004C5 FFFFFFEE     R    1672  1676   1681   1686   1691   1696   1701   1706   1711
 CVFL3         1 000004C6 FFFFFFEE     R    1717  1721   1726   1731   1736   1741   1746   1751   1756
 CVFL4         1 000004C7 FFFFFFEE     R    1762  1766   1771   1776   1781   1786   1791   1796
 CVFL5         1 000004C8 FFFFFFEE     R    1802  1806   1811   1816   1821
 CVFL6         1 000004C9 FFFFFFEE     R    1827  1831   1836   1848   1853   1858   1870   1875   1880   1892   1897
                                                  1902   1914
 CVHEAP#       1 00000200 FFFFFFEE A   U    1533  1534
 CVINVRTN      4 00000888 FFFFFFEE     V    2189  2159
 CVJESFLG      1 000004CA FFFFFFEE     R    1920  1924
 CVLNKRGS      4 00000780 FFFFFFEE     F    2136  2111M  2137  16910M 17236M
 CVLNKRTN      4 000007B0 FFFFFFEE     U    2137  2126M
 CVLOCK1       1 00000088 FFFFFFEE     R    1278  1282   1287
 CVLOCK2       1 00000089 FFFFFFEE     R    1292  1296
 CVLOCK3       1 0000008A FFFFFFEE     R    1301  1305
 CVLOCK4       1 0000008B FFFFFFEE     R    1310  1314
 CVLOGMOD      1 00000068 FFFFFFEE     R    1265  1269
 CVMACH        1 00000067 FFFFFFEE     R    1225  1229   1234   1239   1244   1249   1254   1259
 CVMAXLNO      4 0000015C FFFFFFEE     A    1419 10749  10868  11009  20885  21395  22015  22300  22498
 CVMILRTN      4 00000884 FFFFFFEE     V    2188  2168
 CVNBLTBL      4 000008BC FFFFFFEE     V    2201 42899
 CVNEXT        4 000007DE FFFFFFEE     I    2156 13577B 26106B
 CVNOARTN      4 00000890 FFFFFFEE     V    2191  2162
 CVNWDATE      4 00000608 FFFFFFEE     F    1993  1997   1997
 CVNWMPG#      1 00000008 FFFFFFEE A   U    1995  1996
 CVONE         4 000004D0 FFFFFFEE     F    1968 19957  19997
 CVPFXRTN      1 00000000 00000000 A   T    2134  2134
 CVPGFLAG      1 00000A01 FFFFFFEE     R    2301  2305   2310   2315
 CVPIOSZ       1 00004F80 FFFFFFEE A   U    1364  1366
 CVPPDBQH      4 0000009C FFFFFFEE     A    1322  1323
 CVPSFNO       1 000003E9 FFFFFFEE A   N    1486  1488
 CVPSLNO       1 000007CF FFFFFFEE A   N    1487  1488
 CVPXSZ        1 00000008 FFFFFFEE A   U    1365  1366
 CVR          12 0000000C 00000001 A   #    1099  1184U
 CVRKEY        1 00000008 FFFFFFEE A   U    2059  2060
 CVSEGRTN      4 00000880 FFFFFFEE     V    2187  2151
 CVSTACK#      1 00000080 FFFFFFEE A   U    1525  1526
 CVSTART       4 00000000 FFFFFFEE     C    1198  2369
 CVTRC         4 00000768 FFFFFFEE     I    2126  2112B 16911B 17237B
 CVTRCRTN      4 00000778 FFFFFFEE     V    2133  2127
 CVUSFNO       1 00000001 FFFFFFEE A   N    1493  1495
 CVUSLNO       1 000003E7 FFFFFFEE A   N    1494  1495
 CVVMSG      235 00000CEC FFFFFFEE     X    2340 24985  24994
 CVVOL#        1 00000005 FFFFFFEE A   U    2344  2345
 CVWTOFLG      1 000004CB FFFFFFEE     R    1930  1934   1939   1944   1949   1954
 DEBUGSG       1 00000000 00000000 A   T    2087  2087
 DELTEXT       2 0000634C 00000001     H   43076 37156  38194
 DEV          12 00000000 FFFFFFEB     J    4725  4733
 DEVMAX#       1 00000002 FFFFFFEC A   U    4676  4733
 DEVTYPE       1 00000001 FFFFFFEB     R    4693  4702   4712
1PAGE     (PAGE2193) (12:50) (15MAR04) Ordinary Symbol and Literal Cross Reference                                          Page  187
 DIMFEMAX      2 00005C58 00000001     H   40633 40489
 DISFRULE    128 00000000 FFFFFFD0        42070 42525  42564M 42593  42633M 42998
 DISPAPTR      4 00000010 FFFFFFD0     A   42080 42178  42974  42976M
 DISPBLEN      2 00000006 FFFFFFD0     H   42076 42732M 42782  42875  42876  42877  42878  42923M 42950  42951  42952
                                                 42953
 DISPFLAG      1 00000000 FFFFFFD0     R   42066 42070  42150M
 DISPLEN       2 00000002 FFFFFFD0     H   42074 42151M 42168  42280  42978  42980M
 DISPRPTR      4 0000000C FFFFFFD0     A   42079 42332  42970  42972M
 DISPTBL     256 00000014 FFFFFFD0     X   42082 42154M 42155  42155M 42155  42285M 42311  42323M 42650  42665
 DISPTEXT      2 000060B4 00000001     H   42097 37158  38191
 DISPTPTR      4 00000008 FFFFFFD0     A   42078 42152M 42331  42966  42968M
 DISPWA      276 00000000 FFFFFFD0     J   42089 42110  42139U 43056  43058  43059
 DISPXLEN      2 00000004 FFFFFFD0     H   42075 42325M 42967  42971  42975  42979
 DOTTBL        1 00000000 00000000 A   T    2203  2203
 DRENCFLG      1 00000F9F FFFFFFEC     R    6131  6135   6140   6145   6150   6155
 DRENPROT      1 00000F9E FFFFFFEC     R    6118  6126
 DSNON        40 00000E90 FFFFFFEC     C    5851  5852
 DSNWADSN     44 00000E5C FFFFFFEC     C    5838  5839   5840   5841   5850   5858   6089   6095   6097   6103   6106
                                                  6108   6111   6160
 DSNWAF4       1 00000F37 FFFFFFEC     R    5906  5910   5915   5920   5925   5930   5935   5940   5945
 DSNWAF5       1 00000F38 FFFFFFEC     R    5951  5955   5960   5965   5970   5975   5980   5985   5990
 DSNWAF6       1 00000F39 FFFFFFEC     R    5996  6000   6005   6010   6015   6020   6025   6030   6035
 DSNWAF7       1 00000F3A FFFFFFEC     R    6041  6045   6050   6055   6060
 DSNXG         1 00000004 FFFFFFEC A   U    5843  5845
 DSNXGL        1 00000003 FFFFFFEC A   U    5844  5845
 DSNXU         1 00000007 FFFFFFEC A   U    5845  5847
 DSNXUL        1 00000004 FFFFFFEC A   U    5846  5847
 DSSIZ         1 00000108 FFFFFFEC A   U    6089  6097   6106   6111
 DTB           1 00000000 0000003A     T   43264 43264
 EBCTBL        1 00000000 00000000 A   T    2199  2199
 EBCTBL7       1 00000000 00000000 A   T    2202  2202
 ECBLIST       1 00000000 00000000 A   T    2062  2062
 EDTCOM        1 00000000 0000002E     T   27859 27859
 EPARTBL       1 00000000 00000000 A   T    2194  2194
 ESCFMT        1 00000000 00000035     T   43249 43249
 ESCTBL      256 00005FB4 00000001     X   42040 41420  42041
 EVALSTR       1 00000000 00000027     T   27818 27818
 FDUPEXIT      2 00003FEA 00000001     I   30037 29834B
 FIELDC       44 00000008 FFFFFFD1     X   41294 41502M 41502
 FIELDCS       4 0000000C FFFFFFD1     F   41293 41587M 41661  41662  41663  41723  41739  41745  41746  41857
 FIELDCS#      1 0000000A FFFFFFD1 A   U   41291 41293  43265
 FIELDCSF      1 00000008 FFFFFFD1     R   41283 41287  41294  41294
 FIELDCSN      2 0000000A FFFFFFD1     H   41292 41568  41592  41593M
 FIELDFL     128 00000008 FFFFFFD1        41287 41536M 41638
 FIELDFLG      1 00000000 FFFFFFD1     R   41271 41275
 FIELDFST    128 00000000 FFFFFFD1        41275 41484  41856M 41879
 FIELDSTA      4 00000004 FFFFFFD1     A   41279 41365M 41925
 FIELDWA      52 00000000 FFFFFFD1     J   41301 41321  41350U 41360M 41360  42033  42035  42036
 FMTCMD        2 00003FFA 00000001     H   30072 33042
 FMTCOL        2 000040E4 00000001     H   30441 33044
 FMTDUP        2 00003F08 00000001     H   29708 33038
 FMTFREE       2 00003D42 00000001     H   28927 33040
 FMTLINE       2 00003C18 00000001     H   28430 33033
 FMTMSG        2 000040AA 00000001     H   30344 33043
 FMTPAGE       2 00003AD0 00000001     H   27907 27831
 FMTSTAT       2 00004146 00000001     H   30608 33045
 FMTTEXT       2 00003D7C 00000001     H   29024 33041
 FMTVTAM       2 00003CCC 00000001     H   28732 33039
 FPAGEXIT      2 00003C0A 00000001     H   28398 27954B
1PAGE     (PAGE2193) (12:50) (15MAR04) Ordinary Symbol and Literal Cross Reference                                          Page  188
 FREECORE      1 00000000 00000007     T    8856  8856
 FREEVIEW      2 000000A0 00000001     H    7122  7118
 FSR           0 00000000 00000001 A   #    1009  6963   7103M  7131   7252M  7392   7826M  7847M  7877   8253M  8277
                                                  8373M  8439   8467M  8483M  8503   8531M  8547M  8570   8666M  8733
                                                  8761M  8777M  8797   8825M  8841M  9019   9409M  9434M  9598   9983M
                                                 10020M 10178  10263M 10283  10372M 10392  10527M 10547  10682M 10702
                                                 10785M 10805  10926M 10946  11067M 11087  11146M 11166  11207M 11347
                                                 11807M 11832M 11972  12262M 12299M 12442  12506M 12526  12590M 12610
                                                 12674M 12694  12758M 12778  12842M 12862  12926M 12946  13010M 13030
                                                 13071M 13098  13452M 13480  13613M 13644  13919M 14126  14826M 14852
                                                 15768M 15815  16084M 16113  16191M 16247  16686M 16696M 16728M 16758
                                                 17054M 17084  17380M 17409  17663M 17693  17830M 17864  18139M 18171
                                                 18296M 18331  18874M 18906  19530M 19558  19799M 20166  20576M 20648
                                                 21481M 21515  21822M 21847M 21874  22551M 22577  22849M 22881  22965M
                                                 22991  23293M 23361  23907M 24407  27790M 27916  28410M 28439  28715M
                                                 28741  28907M 28936  29004M 29033  29678M 29717  30052M 30081  30324M
                                                 30353  30421M 30450  30588M 30617  30731M 30772  31076M 31143  31907M
                                                 31962  33015M 33121  33855M 33884  33973M 34002  34348M 34400  35555M
                                                 35783  37126M 37249  37641M 37678  37952M 37981  38175M 38229  38731M
                                                 38760  38913M 38938  39203M 39234  39332M 39363  39635M 39666  39767M
                                                 39822  39949M 39975  40626M 42107  43056M 43085  43219M
 GETCORE       1 00000000 00000006     T    8855  8855
 GETFDONE      2 00005F3E 00000001     H   41871 41378B 41487B
 GETFIELD      2 00005DB8 00000001     H   41309 27839
 GETFLP        2 00005DE4 00000001     H   41368 41443B 41469B
 GETFNLP       4 00005DE0 00000001     I   41365 41867B
 GETHCMD       1 00000000 00000018     T   20070 20070
 GETLINE       1 00000000 0000001B     T   24270 24270  37159  43236
 GETLNO        1 00000000 0000001F     T   24281 24281
 GETVIEW       2 00000018 00000001     H    6954 20078
 GETVINFO      2 00000118 00000001     H    7382  7378
 GINFSG       60 00000000 FFFFFFE5     X    7366  7448   7479   7511   7629   7693   7714   7731   7759   7776   7797
 GINFSGCOD
               1 00000000 FFFFFFE5     R    7283  7292   7302   7312   7322   7332   7342   7352
 GINFSGLENF
               4 0000000C FFFFFFE5     A    7358  7824
 GINFSGLOC
               4 00000020 FFFFFFE5     A    7362  7819
 GINFWA       60 00000000 FFFFFFE5     J    7373  7395   7424U  7847   7849   7850
 GTMIXTBL      1 00000000 00000031     T   37165 37165
 HIBAL         1 00000000 FFFFFFFF     J     691   707    720    733    746    759    772    785    798    811    824
                                                   837    850    863    876    889    902
 INITCMD       1 00000000 00000013     T   13966 13966
 INPBUG        2 00005816 00000001     H   38929 27838
 INPCMD        2 000057B6 00000001     H   38751 27842
 INPTEXIT      2 000057A8 00000001     H   38709 38283B 38423B 38478B 38543B 38648B
 INPTEXT       2 0000568A 00000001     H   38220 27841
 INVALID       1 00000000 00000000 A   T    2189  2189
 JCBAFL        1 00000062 FFFFFFE9     R    6437  6441   6446   6451   6456   6461   6466   6471   6476
 JCBBFL        1 00000063 FFFFFFE9     R    6482  6486   6491   6496   6501   6506   6511   6516
 JCBBILLX      8 00000088 FFFFFFE9     D    6567  6575   6575
 JCBRSCF1      1 00000064 FFFFFFE9     R    6522  6526   6531   6536
 JCBSFLG1      1 00000065 FFFFFFE9     R    6542  6546   6551
 JCBWFL        1 00000060 FFFFFFE9     R    6366  6370   6375   6380   6385   6390   6395   6400   6405   6433
 JCBWWFL       1 00000061 FFFFFFE9     R    6411  6415   6420   6425   6430
 LINFCMD       4 0000000C FFFFFFE6         6874 11573  12822M 15321M 15650M 23224  26552  27476  28609  28812  33738
 LINFCOL       3 0000000C FFFFFFE6         6864 11552  12738M 15072  15417M 15701M 16015  23212  27500  28657  28854
                                                 33714
 LINFFREE      0 0000000C FFFFFFE6         6834 11489  12486M 15084M 16928  17254  17594  20974M 20995  21693  23189
1PAGE     (PAGE2193) (12:50) (15MAR04) Ordinary Symbol and Literal Cross Reference                                          Page  189
                                                 23593  23827  24217  28547  33642
 LINFMSG       5 0000000C FFFFFFE6         6884 11594  12906M 15369M 15601M 23236  28633  28833  33762
 LINFNEW       1 0000000C FFFFFFE6         6844 11510  12570M 17531  19950  20950  21065M 21099M 21705  21774M 21983
                                                 22101  22247  22343  22462  23177  23605  24205  26516  27179  27440
                                                 28573  28779  29809  33226  33359  33666  38441  38559  38664  39474
                                                 40818  41031
 LINFOREN     64 0000000E FFFFFFE6         6924 19454  19473M 19766  19766
 LINFPREP     64 0000000D FFFFFFE6         6909 34111  34185  34497  35205
 LINFREN     128 0000000E FFFFFFE6         6919 19351  19416M 19766  19766  19767M
 LINFREWR    128 0000000D FFFFFFE6         6904 16027M 16509M 18075M 19422M 22788M 26257M 32789M 32927M 33487M 33535M
                                                 33587  33631M 34626M 34994M 35042M 35139M 37096M 37927M 38150M 38456M
 LINFSTAT      6 0000000C FFFFFFE6         6894 11615  12990M 15457M 15525M 16505M 28681  28875  33786
 LINFTEXT      2 0000000C FFFFFFE6         6854 11531  11698  12654M 16984M 17310M 17543  18027  18556  19316  19971
                                                 20329  20962  21122M 21145  21607  21717  21798M 22122  22364  22661
                                                 23165  23617  24193  26528  27191  27452  28585  28791  29821  33290
                                                 33403  33690  38413  38452M 38540  38645  40830  41019
 LINT         20 00000000 FFFFFFE6     J    6939  8091U  8873  11469U 12110U 12477U 12561U 12645U 12729U 12813U 12897U
                                                 12981U 13980  15041U 15274U 15484U 15550U 16001U 16433U 16877U 17203U
                                                 17516U 18013U 18543U 18783U 19303U 19754U 19937U 20095  20314U 20919U
                                                 21569U 21928U 22648U 23050U 23150U 23517U 23577U 23813U 24000U 24046U
                                                 24178U 24289  26247U 26457U 27163U 27329U 27864  28052U 30881U 30885
                                                 31300U 31426M 31496U 31679U 32070U 32474U 32607U 32765U 32834M 32834
                                                 32902U 32970M 32970  33066  33167U 33919U 34037U 34445U 35828U 37294U
                                                 37713U 38016U 38264U 38795U 39269U 39398U 39701U 40802U 41003U 43275
 LINTFLG       1 0000000D FFFFFFE6     R    6900  6904   6909  15123  15297  15345  15393  15440  15508  15577  15626
                                                 15677  16487  16967  17293  17569  18615  21029  21742  23689  31426M
                                                 33514M
 LINTLNO       4 00000010 FFFFFFE6     F    6930 11721  15117  15291  15339  15387  15434  15502  15571  15620  15671
                                                 16481  16961  16985M 17287  17311M 17563  18044  18061  18575  18589
                                                 18609  19333  19360M 19988  20344  20398  21023  21066M 21100M 21124M
                                                 21159  21613  21736  21775M 21800M 22032M 22271M 22468M 22701  23683
                                                 27256  31331  32834  32970  33377  33409  34066  34462  34565  34640
                                                 34672  34746  34827  35014  35065  35128  38281  38386  38457  38498
                                                 38565  38670  39413  39523  40849  40866  41041
 LINTMAX#      1 00000050 00000001 A   N    6799  7042   7214  13949  23335  31118  43258
 LINTNEXT      1 00000014 FFFFFFE6     U    6932  8097  15143  15324  15372  15419  16033  16997  17607  18086  18636
                                                 18826  19487  19769  20005  20446  21197  21622  22038  22132  22515
                                                 22811  23062  23248  23765  23862  24230  28186  30891  31436  31589
                                                 31616  32531  32842  32978  38510  40908
 LINTOFLG      1 00000008 FFFFFFE6     R    6816 15123M 15297M 15345M 15393M 15440M 15508M 15577M 15626M 15677M 16487M
                                                 16967M 17293M 17569M 18615M 21029M 21742M 23689M 31426  33514  33548M
 LINTOLNO      4 00000004 FFFFFFE6     F    6812  8095M 15117  15291  15339  15387  15434  15502  15571  15620  15671
                                                 16481  16961  17287  17563  18609  18800  18814  18820M 19439  19463M
                                                 21023  21736  23683  31307  32834M 32970M 33508  33536M 38457M
 LINTOPT       8 0000000C FFFFFFE6     X    6931 15134M 15134  15308M 15308  15356M 15356  15404M 15404  15451M 15451
                                                 15519M 15519  15588M 15588  15637M 15637  15688M 15688  16498M 16498
                                                 16978M 16978  17304M 17304  17580M 17580  18626M 18626  21040M 21040
                                                 21753M 21753  23335  23657  23657  23658  23700M 23700  23833M 23834
 LINTROW       2 00000000 FFFFFFE6     H    6809 15140M 16535  16577  28500  29110  29406  29514  29599  29662  29840
                                                 30140  30265  30527  30669  34246  35270  39577
 LINTTYPE      1 0000000C FFFFFFE6     R    6825  6834   6844   6854   6864   6874   6884   6894   6931   6931
 LINTWFLG      1 0000000E FFFFFFE6     R    6915  6919   6924
 LINTWIND      2 00000002 FFFFFFE6     H    6810 11671  15057  15141M 15315M 15315  15363M 15363  15411M 15411  15595M
                                                 15595  15644M 15644  15695M 15695  16450  16684  16901  17227  22667
                                                 23060M 23060  23242M 23523  24006  24052  26463  27199  27336  27377
                                                 27383  28057  29663  29792  31343  32076  33173  33244  33308
 LOWMULT       1 00000000 00000021     T   24285 24285
 LOWTBL        1 00000000 00000000 A   T    2197  2197
 LRTRIM        1 00000000 00000034     T   38195 38195
1PAGE     (PAGE2193) (12:50) (15MAR04) Ordinary Symbol and Literal Cross Reference                                          Page  190
 LSR           8 00000008 00000001 A   #    1047  6963   7103M  7131   7252M  7392   7847M  7877   8253M  8277   8373M
                                                  8439   8483M  8503   8547M  8570   8666M  8733   8777M  8797   8841M
                                                  9019   9434M  9598  10020M 10178  10263M 10283  10372M 10392  10527M
                                                 10547  10682M 10702  10785M 10805  10926M 10946  11067M 11087  11146M
                                                 11166  11207M 11347  11832M 11972  12299M 12442  12506M 12526  12590M
                                                 12610  12674M 12694  12758M 12778  12842M 12862  12926M 12946  13010M
                                                 13030  13071M 13098  13452M 13480  13613M 13644  13919M 14126  14826M
                                                 14852  15768M 15815  16084M 16113  16191M 16247  16728M 16758  17054M
                                                 17084  17380M 17409  17663M 17693  17830M 17864  18139M 18171  18296M
                                                 18331  18874M 18906  19530M 19558  19799M 19835  20047M 20166  20576M
                                                 20648  21481M 21515  21847M 21874  22551M 22577  22849M 22881  22965M
                                                 22991  23293M 23361  23907M 23943  24256M 24407  27790M 27916  28410M
                                                 28439  28715M 28741  28907M 28936  29004M 29033  29678M 29717  30052M
                                                 30081  30324M 30353  30421M 30450  30588M 30617  30731M 30772  31076M
                                                 31143  31907M 31962  33015M 33121  33855M 33884  33973M 34002  34348M
                                                 34400  35555M 35783  37126M 37249  37641M 37678  37952M 37981  38175M
                                                 38229  38731M 38760  38913M 38938  39203M 39234  39332M 39363  39635M
                                                 39666  39767M 39822  39949M 39975  40626M 40687  41244M 41318  42033M
                                                 42107  43056M 43085  43219M
 LWA         247 00000000 FFFFFFDD     J   20147 20169  20198U 20208M 20208  20576  20578  20579
 LWAFLAG       1 00000000 FFFFFFDD     R   20129 20133
 LWAFRTRY    128 00000000 FFFFFFDD        20133 20489  20541M
 LWALINE     235 0000000C FFFFFFDD     C   20140 20228  20401
 LWALNO        4 00000004 FFFFFFDD     F   20137 20227M 20344
 LWANLNO       4 00000008 FFFFFFDD     F   20138 20233M 20499
 MALL          1 00000000 00000004     T    8423  8423   8717  10162  12426
 MARKFILL      2 00002BE2 00000001     H   22568 24283
 MATLINE       1 00000000 0000001C     T   24275 24275  37163
 MILERR        1 00000000 00000000 A   T    2188  2188
 MINT          1 00000000 00000005     T    8702  8702
 MLNO          1 00000000 00000003     T    8408  8408
 MNULL         1 00000000 00000002     T    8393  8393   8687
 MODMSG        2 00001298 00000001     H   13282 13250B
 MPINT         1 00000000 0000000F     T   10072 10072  10087  10102
 MPLNO         1 00000000 00000010     T   10117 10117  10132
 MTOKEN        1 00000000 0000000E     T   10042 10042  10057  10147  12321  12336  12351  12366  12381  12396  12411
 NBLTBL        1 00000000 00000000 A   T    2201  2201
 NEWFEXIT      2 00002BD4 00000001     H   22529 22045B
 NEWFILL       2 00002A42 00000001     H   21865 24282
 NEWWERR       4 00001DBC 00000001     I   16696 16323B 16383B 16416B 16460B
 NEWWEXIT      2 00001DC4 00000001     H   16701 16691B
 NEWWSAVE    384 00000040 FFFFFFDE     X   16221 16620  16654
 NEWWWA      448 00000000 FFFFFFDE     J   16228 16250  16279U 16728  16730  16731
 NEWWWIND     64 00000000 FFFFFFDE     X   16219 16511M 16512  16662
 NOACTION      1 00000000 00000000 A   T    2191  2191
 NPARTBL       1 00000000 00000000 A   T    2195  2195
 NSCAN         1 00000000 0000000C     T    8861  8861  13945
 NSCNCB      176 00000000 FFFFFFED     J    2460  2586   7906   7908   7970M  7971M  7986   7987   7988   7991M  7992M
                                                  7993M  8003M  8004M  8005M  8229   8317   8318   8319   8322M  8323M
                                                  8325M  8335M  8336M  8337M  8610   8611   8612   8615M  8616M  8618M
                                                  8628M  8629M  8630M  8876   9659   9661   9760M  9761M  9776   9777
                                                  9778   9781M  9782M  9784M  9794M  9795M  9796M  9990  12033  12035
                                                 12133M 12134M 12150  12151  12152  12155M 12156M 12158M 12168M 12169M
                                                 12170M 12269  13978
 NSCNFLGS      1 00000008 FFFFFFED     R    2397  2401   2406
 NSCNKWS       4 00000028 FFFFFFED     A    2446  7986   7993M  8003M  8317   8325M  8335M  8610   8618M  8628M  9776
                                                  9784M  9794M 12150  12158M 12168M
 NSCNLEN       4 00000004 FFFFFFED     F    2394  7971M  9761M 12134M
 NSCNLOC       4 00000000 FFFFFFED     A    2393  7970M  9760M 12133M
1PAGE     (PAGE2193) (12:50) (15MAR04) Ordinary Symbol and Literal Cross Reference                                          Page  191
 NSCNSKIP      4 00000024 FFFFFFED     A    2445  7987   7991M  8004M  8318   8322M  8336M  8611   8615M  8629M  9777
                                                  9781M  9795M 12151  12155M 12169M
 NSCNSTOP      4 00000020 FFFFFFED     A    2444  7988   7992M  8005M  8319   8323M  8337M  8612   8616M  8630M  9778
                                                  9782M  9796M 12152  12156M 12170M
 NSCNTYPE      1 00000018 FFFFFFED     R    2415  2419   2424   2429   2434   2439
 OLINACT       4 00000000 FFFFFFD7     F   33096 33208M 33821
 OLINWA        4 00000000 FFFFFFD7     J   33103 33124  33153U 33855  33857  33858
 OUTCMD        2 000054F8 00000001     H   37669 37152
 OUTCOL        2 000051F8 00000001     H   37239 37151
 OUTCWA       10 00000000 FFFFFFD4     J   37222 37252  37281U 37315M 37315  37641  37643  37644
 OUTFREE       2 00004938 00000001     H   33875 37148
 OUTLINE       2 00004784 00000001     H   33111 33055
 OUTLLEN       2 0000000C FFFFFFD6     H   34374 34468M 34504  34506  34711  34970  35088
 OUTMSG        2 000055AE 00000001     H   37972 37153
 OUTNEW        2 0000497A 00000001     H   33993 37149
 OUTNEXIT      2 00004A6E 00000001     H   34326 34076B
 OUTPAGE       2 00004192 00000001     H   30763 27832
 OUTSCNT       2 00000002 FFFFFFD9     H   31116 31538M 31600  31721M 31785
 OUTSCRL       2 0000427C 00000001     H   31133 33054
 OUTSFDWN     64 00000000 FFFFFFD9        31107 31418M 31644
 OUTSFIN       2 00004436 00000001     H   31890 31199B 31251B
 OUTSFLAG      1 00000000 FFFFFFD9     R   31098 31102  31107  31112
 OUTSFRGN     32 00000000 FFFFFFD9        31112 31610M 31795M 31830
 OUTSFUP     128 00000000 FFFFFFD9        31102 31396M 31460
 OUTSLNXT      4 00004310 00000001     I   31436 31334B
 OUTSMAP      80 00000004 FFFFFFD9     X   31118 31374M 31506  31568  31599  31689  31752  31784
 OUTSTAT       2 00004D6C 00000001     H   35773 37154
 OUTSWA       84 00000000 FFFFFFD9     J   31125 31146  31175U 31185M 31185  31907  31909  31910
 OUTTEXT       2 00004A7C 00000001     H   34390 37150
 OUTTWA      249 00000000 FFFFFFD6     J   34382 34403  34432U 35555  35557  35558
 OUTTWORK     11 00000000 FFFFFFD6     C   34372 35070M 35071M 35095M 35178M 35212M 35228
 OUTZBUF      80 00000078 FFFFFFD5     X   35748 35873  35878  37056
 OUTZL        60 00000000 FFFFFFD5     X   35657 36394  36460  36484  36513  36540  36586  36614  36665  36799  36852
                                                 36878  36918  36945
 OUTZLCOD      1 00000000 FFFFFFD5     R   35574 35583  35593  35603  35613  35623  35633  35643
 OUTZLLENF
               4 0000000C FFFFFFD5     A   35649 36999
 OUTZR        60 0000003C FFFFFFD5     X   35746 35886  35919  35940  35957  35980  35997  36053  36081  36098  36126
                                                 36143  36195  36233  36270  36292  36313  36364
 OUTZRCOD      1 0000003C FFFFFFD5     R   35663 35672  35682  35692  35702  35712  35722  35732
 OUTZRLENF
               4 00000048 FFFFFFD5     A   35738 36966  37029
 OUTZWA      200 00000000 FFFFFFD5     J   35755 35786  35815U 37126  37128  37129
 PAGCHXIT      2 00002512 00000001     H   20030 19991B
 PAGEBOT       2 00001E96 00000001     H   17075 13947  17071
 PAGECLR       2 00001F5A 00000001     H   17400  8865  17396  20083
 PAGECLRA      2 00002120 00000001     H   18162 18158
 PAGECMD       2 00001320 00000001     H   13471 13467
 PAGECNT       2 00002F02 00000001     H   23934 20080  23930  24287  43251
 PAGECOLS      2 00002012 00000001     H   17684 17680  27823
 PAGEDEL       2 0000217A 00000001     H   18322 18318
 PAGEFILL      2 00002722 00000001     H   20638 20084  20634  24272  27819
 PAGEFIND      2 00002492 00000001     H   19826 19822  33058
 PAGEINIT      2 0000189A 00000001     H   14843  8863  13965  14839  20087
 PAGEINIT      1 00000000 0000001A     T   20088 20088
 PAGELINE      2 000025EE 00000001     H   20156 20152
 PAGEMAKE      2 00001C0A 00000001     H   16104 16100  24277
 PAGEMARK      2 0000207C 00000001     H   17855 17851
 PAGEMOD       2 00003006 00000001     H   24398 13967  24394
1PAGE     (PAGE2193) (12:50) (15MAR04) Ordinary Symbol and Literal Cross Reference                                          Page  192
 PAGEMSG       2 000013C0 00000001     H   13635 13631
 PAGENCLR      2 00002410 00000001     H   19549 19545
 PAGENEWW      2 00001C50 00000001     H   16237 16233
 PAGENUM       2 000022B0 00000001     H   18897 18893
 PAGERES       2 000016BA 00000001     H   14116 13968  14112  27860
 PAGESCRL      2 00002D8A 00000001     H   23351 23347  43253
 PAGETABS      2 00001B5E 00000001     H   15805 15801  20081
 PAGETCHK      2 0000120C 00000001     H   13089 13085
 PAGETOP       2 00001DD2 00000001     H   16749 13946  16745
 PAGE2193      1 00000000 00000001     R     999   997
 PAGFNLIN      4 0000289E 00000001     I   21197 21070B
 PAGIDONE      6 00001B20 00000001     I   15717 15461B
 PAGLEXIT      2 00002714 00000001     H   20554 20440B
 PAGLRTRY      2 0000262E 00000001     H   20240 20542B
 PAGMCH        2 00002102 00000001     H   18101 18064B
 PAGMERR       4 000038F2 00000001     I   27740 24577B 24613B 24636B
 PAGMEXIT      2 00003904 00000001     H   27752 26390B 27572B
 PAGMLOOP      2 0000309A 00000001     H   24559 26286B 26649B 27667B 27701B 27736B
 PAGMOLD       4 00002106 00000001     I   18111 18076B
 PAGSCNT       2 0000000A FFFFFFDB     H   23334 23663  23664M 23837  23839M
 PAGSFILC      2 00000008 FFFFFFDB     H   23332 23487M 23725  23734M
 PAGSFLAG      1 00000000 FFFFFFDB     R   23320 23324
 PAGSFROW      2 00000002 FFFFFFDB     H   23328 23493M 23503
 PAGSFUP     128 00000000 FFFFFFDB        23324 23426M 23463
 PAGSINT     640 0000000C FFFFFFDB     X   23335 23502  23780
 PAGSLROW      2 00000004 FFFFFFDB     H   23329 23494M 23562  23798
 PAGSSKPC      2 00000006 FFFFFFDB     H   23331 23470M 23632  23641M
 PAGSWA      652 00000000 FFFFFFDB     J   23342 23364  23393U 23403M 23403  23404M 23404  23405M 23405  23907  23909
                                                 23910
 PCLAEXIT      2 0000216A 00000001     H   18279 18258B
 PCOLEXIT      2 0000206E 00000001     H   17818 17752B
 PFA          24 00000000 FFFFFFDC     J   20622 20651  20680U 20690M 20690  21481  21483  21484
 PFAACTNO      4 00000004 FFFFFFDC     F   20606 20692M 21457
 PFAFFILL     64 00000000 FFFFFFDC        20602 20755  20755  20778M 20933  21006M
 PFAFLAG       1 00000000 FFFFFFDC     R   20593 20597  20602  20615  20615
 PFAFMODF    128 00000000 FFFFFFDC        20597 20755  20755  20756M 21169  21182M
 PFAOLDF       4 0000000C FFFFFFDC     F   20611 20876M 21288
 PFAOLDL       4 00000010 FFFFFFDC     F   20612 20877M 21371
 PFAWCUR       2 00000008 FFFFFFDC     H   20608 20721  20722M
 PFAWLNO       4 00000014 FFFFFFDC     F   20614 20872M 21078  21191M
 PFAWNCNT      2 0000000A FFFFFFDC     H   20609 20817M 21053  21069M 21157M 21157
 PMSGEXIT      2 00001450 00000001     H   13907 13684B 13696B 13828B
 PRESBUF      64 0000004A FFFFFFE0     C   14100 14217  14222  14528  14533
 PRESDONE      6 00001878 00000001     I   14788 14493B
 PRESWA      138 00000000 FFFFFFE0     J   14107 14129  14158U 14826  14828  14829
 PREVLNO       1 00000000 0000001D     T   24276 24276  43262
 PRSEG        60 00000000 FFFFFFE0     X   14097 14181M 14788
 PRSEGCOD      1 00000000 FFFFFFE0     R   14014 14023  14033  14043  14053  14063  14073  14083
 PRSEGRTN      4 00000024 FFFFFFE0     A   14094 14235  14546
 PRTRM        14 0000003C FFFFFFE0     X   14098 14182M 14789
 PTABTABS     16 00000000 FFFFFFDF     X   15789 15860M 15860  15893M 15965  20082
 PTABWA       16 00000000 FFFFFFDF     J   15796 15818  15847U 16084  16086  16087
 PUTLINE       1 00000000 00000039     T   43256 43256
 PWA        1267 00000000 FFFFFFDA     J   24377 24435  24446U 24454M 24454  24455M 24455  24456M 24456  24457M 24457
                                                 24458M 24458
 PWAAFBLK      1 00000080 FFFFFFDA A   U   24356 34652  42187
 PWAALBLK      1 00000040 FFFFFFDA A   U   24357 34701  42236
 PWAATTR     235 00000204 FFFFFFDA     X   24353 34098M 34098  34315  34543M 34543  34647  34696  34972  35517  35860M
                                                 35860  37085  37328M 37328  37604
1PAGE     (PAGE2193) (12:50) (15MAR04) Ordinary Symbol and Literal Cross Reference                                          Page  193
 PWABOTR       2 0000000A FFFFFFDA     H   24326 30928M 31015  33339M
 PWACROW       2 00000002 FFFFFFDA     H   24320 30843M 30866  30896  30897M 32448M 32582M 33270  33275  33334  33339
                                                 33612
 PWACURS       8 00000308 FFFFFFDA     D   24364 38485  41857M 41897M 41897  42012
 PWADEFR       2 000002F0 FFFFFFDA     H   24359 34085M 34530M 35846M 37320M 42352
 PWAFCURS      8 000002F8 FFFFFFDA     D   24361 41745M
 PWAFESC     128 00000000 FFFFFFDA        24311 26049M 26071M 41788
 PWAFIELD    235 00000312 FFFFFFDA     C   24366 38366  38858  41885M 41923M 41985M 43266
 PWAFLAG       1 00000000 FFFFFFDA     R   24307 24311  24316
 PWAFLEN       2 00000310 FFFFFFDA     H   24365 38333  38811  41892M 41892  41922M 41922  41958M
 PWAFNEWR      2 0000000C FFFFFFDA     H   24327 30927  33263M 33263  33270M
 PWAFSCMD     64 00000000 FFFFFFDA        24316 26636M 26685M 27602  27661M
 PWAFUNC       1 00000018 FFFFFFDA     X   24334 26327M 26643  26658  41661M
 PWALCURS      8 00000300 FFFFFFDA     D   24362 41746M
 PWALINE     235 00000019 FFFFFFDA     C   24336 34086M 34123M 34123  34311  34463  34503  34966  35015  35337  35513
                                                 35848M 36381  36386  37021  37028  37079  37333M 37376  37439  37466
                                                 37503  37600  38284  38292  38395  38400  38574  38679  39489
 PWALNEWR      2 0000000E FFFFFFDA     H   24328 30928  33275M
 PWAOROW       2 00000004 FFFFFFDA     H   24322 28017M 28017  28257M 28257  28275  28316  29662M 29755M 29755  29854
                                                 29861  29940  30026M 30026
 PWAOWIND      2 00000006 FFFFFFDA     H   24323 28022M 28022  29663M 29792  30031M 30031
 PWARBOLD      1 00000002 FFFFFFDA A   U   24350 42423
 PWARCOLM      1 00000008 FFFFFFDA A   U   24348 37654  42451
 PWARCOLT      1 00000010 FFFFFFDA A   U   24347 37391  42479
 PWAREND     235 00000119 FFFFFFDA     X   24343 34093M 34093  34313  34538M 34538  34710  34971  35016  35396  35515
                                                 35855M 35855  37084  37340M 37340  37378  37441  37469  37505  37515
                                                 37602
 PWARLEN       2 00000010 FFFFFFDA     H   24331 26329M 26366  38979  39068  41363  42011M
 PWARLOC       4 00000014 FFFFFFDA     A   24332 26328M 26362  39000  39162  41362  42010M
 PWARMARK      1 00000020 FFFFFFDA A   U   24346 34877  42395
 PWAROWS       8 00000008 FFFFFFDA     X   24329 30850M 30850
 PWARRULE      1 00000004 FFFFFFDA A   U   24349 35489  37384  37447  37476  37511  42508
 PWARSPEL      1 00000001 FFFFFFDA A   U   24351 42367
 PWASCMD     235 00000400 FFFFFFDA     C   24369 26678M 27628
 PWASCMDL      2 000003FE FFFFFFDA     H   24368 26677M 27627
 PWASCURS      8 000004EB FFFFFFDA     X   24370 26679M 27650
 PWATOPR       2 00000008 FFFFFFDA     H   24325 24329  24329  30921M 30921  30927M 30944M 30944  30972  33327M 33327
                                                 33334M
 RAR          14 0000000E 00000001 A   #    1125  2126   2127M  2128B  2130M  2131B  2151M  2152B  2156M  2157B  2159M
                                                  2160B  2162M  2163B  2165M  2166B  2168M  2169M  2169B  2175   6960
                                                  7015M  7016M  7016B  7065M  7066M  7066B  7105M  7108B  7128   7191M
                                                  7192M  7192B  7232M  7233M  7233B  7254M  7257B  7389   7451M  7452M
                                                  7452B  7482M  7483M  7483B  7514M  7515M  7515B  7605M  7606M  7606B
                                                  7632M  7633M  7633B  7696M  7697M  7697B  7717M  7718M  7718B  7734M
                                                  7735M  7735B  7739M  7740M  7740B  7762M  7763M  7763B  7779M  7780M
                                                  7780B  7800M  7801M  7801B  7849M  7852B  7874   7996M  7997M  7997B
                                                  8010M  8011M  8011B  8032M  8033M  8033B  8114M  8115M  8115B  8147M
                                                  8148M  8148B  8164M  8165M  8165B  8170M  8171M  8171B  8176M  8177M
                                                  8177B  8255M  8258B  8274   8328M  8329M  8329B  8375M  8378B  8436
                                                  8485M  8488B  8500   8549M  8552B  8567   8621M  8622M  8622B  8668M
                                                  8671B  8730   8779M  8782B  8794   8843M  8846B  9016   9084M  9085M
                                                  9085B  9182M  9183M  9183B  9238M  9239M  9239B  9256M  9257M  9257B
                                                  9276M  9277M  9277B  9294M  9295M  9295B  9314M  9315M  9315B  9332M
                                                  9333M  9333B  9353M  9354M  9354B  9393M  9394M  9394B  9436M  9439B
                                                  9595   9683M  9684M  9684B  9787M  9788M  9788B  9869M  9870M  9870B
                                                  9901M  9902M  9902B  9927M  9928M  9928B  9967M  9968M  9968B 10022M
                                                 10025B 10175  10265M 10268B 10280  10374M 10377B 10389  10529M 10532B
                                                 10544  10684M 10687B 10699  10787M 10790B 10802  10928M 10931B 10943
                                                 11069M 11072B 11084  11148M 11151B 11163  11209M 11212B 11344  11412M
1PAGE     (PAGE2193) (12:50) (15MAR04) Ordinary Symbol and Literal Cross Reference                                          Page  194
                                                 11413M 11413B 11648M 11649M 11649B 11666M 11667M 11667B 11686M 11687M
                                                 11687B 11719M 11720M 11720B 11724M 11725M 11725B 11747M 11748M 11748B
                                                 11791M 11792M 11792B 11834M 11837B 11969  12057M 12058M 12058B 12161M
                                                 12162M 12162B 12246M 12247M 12247B 12301M 12304B 12439  12508M 12511B
                                                 12523  12592M 12595B 12607  12676M 12679B 12691  12760M 12763B 12775
                                                 12844M 12847B 12859  12928M 12931B 12943  13012M 13015B 13027  13073M
                                                 13076B 13095  13158M 13159M 13159B 13176M 13177M 13177B 13313M 13314M
                                                 13314B 13331M 13332M 13332B 13365M 13366M 13366B 13393M 13394M 13394B
                                                 13411M 13412M 13412B 13454M 13457B 13477  13528M 13529M 13529B 13539M
                                                 13540M 13540B 13559M 13560M 13560B 13575M 13576M 13576B 13615M 13618B
                                                 13641  13897M 13898M 13898B 13921M 13924B 14123  14233M 14234M 14234B
                                                 14268M 14269M 14269B 14296M 14297M 14297B 14310M 14311M 14311B 14335M
                                                 14336M 14336B 14395M 14396M 14396B 14430M 14431M 14431B 14457M 14458M
                                                 14458B 14482M 14483M 14483B 14544M 14545M 14545B 14561M 14562M 14562B
                                                 14580M 14581M 14581B 14594M 14595M 14595B 14625M 14626M 14626B 14656M
                                                 14657M 14657B 14674M 14675M 14675B 14694M 14695M 14695B 14722M 14723M
                                                 14723B 14736M 14737M 14737B 14761M 14762M 14762B 14828M 14831B 14849
                                                 14923M 14924M 14924B 14942M 14943M 14943B 15728M 15729M 15729B 15742M
                                                 15743M 15743B 15747M 15748M 15748B 15770M 15773B 15812  16086M 16089B
                                                 16110  16143M 16144M 16144B 16175M 16176M 16176B 16193M 16196B 16244
                                                 16541M 16542M 16542B 16586M 16587M 16587B 16674M 16675M 16675B 16730M
                                                 16733B 16755  16809M 16810M 16810B 17038M 17039M 17039B 17056M 17059B
                                                 17081  17135M 17136M 17136B 17364M 17365M 17365B 17382M 17385B 17406
                                                 17454M 17455M 17455B 17665M 17668B 17690  17832M 17835B 17861  18141M
                                                 18144B 18168  18256M 18257M 18257B 18298M 18301B 18328  18876M 18879B
                                                 18903  19532M 19535B 19555  19801M 19804B 19832  20049M 20052B 20163
                                                 20231M 20232M 20232B 20275M 20276M 20276B 20412M 20413M 20413B 20520M
                                                 20521M 20521B 20524M 20525M 20525B 20533M 20534M 20534B 20578M 20581B
                                                 20645  20744M 20745M 20745B 20804M 20805M 20805B 20821M 20822M 20822B
                                                 21081M 21082M 21082B 21297M 21298M 21298B 21381M 21382M 21382B 21429M
                                                 21430M 21430B 21454M 21455M 21455B 21460M 21461M 21461B 21483M 21486B
                                                 21512  21756M 21757M 21757B 21849M 21852B 21871  22199M 22200M 22200B
                                                 22408M 22409M 22409B 22412M 22413M 22413B 22553M 22556B 22574  22851M
                                                 22854B 22878  22967M 22970B 22988  23295M 23298B 23358  23441M 23442M
                                                 23442B 23878M 23879M 23879B 23909M 23912B 23940  24258M 24261B 24404
                                                 24611M 24612M 24612B 24616M 24617M 24617B 24698M 24699M 24699B 24728M
                                                 24729M 24729B 24766M 24767M 24767B 24809M 24810M 24810B 24841M 24842M
                                                 24842B 24859M 24860M 24860B 24915M 24916M 24916B 25052M 25053M 25053B
                                                 25067M 25068M 25068B 25082M 25083M 25083B 25221M 25222M 25222B 25311M
                                                 25312M 25312B 25322M 25323M 25323B 25381M 25382M 25382B 25402M 25403M
                                                 25403B 25420M 25421M 25421B 25441M 25442M 25442B 25459M 25460M 25460B
                                                 25480M 25481M 25481B 25498M 25499M 25499B 25527M 25528M 25528B 25556M
                                                 25557M 25557B 25585M 25586M 25586B 25592M 25593M 25593B 25606M 25607M
                                                 25607B 25651M 25652M 25652B 25684M 25685M 25685B 25702M 25703M 25703B
                                                 25739M 25740M 25740B 25767M 25768M 25768B 25774M 25775M 25775B 25781M
                                                 25782M 25782B 25871M 25872M 25872B 25899M 25900M 25900B 25926M 25927M
                                                 25927B 25964M 25965M 25965B 25998M 25999M 25999B 26016M 26017M 26017B
                                                 26336M 26337M 26337B 26369M 26370M 26370B 26408M 26409M 26409B 26501M
                                                 26502M 26502B 26537M 26538M 26538B 26561M 26562M 26562B 26571M 26572M
                                                 26572B 26647M 26648M 26648B 26898M 26899M 26899B 27410M 27411M 27411B
                                                 27461M 27462M 27462B 27485M 27486M 27486B 27509M 27510M 27510B 27558M
                                                 27559M 27559B 27688M 27689M 27689B 27729M 27730M 27730B 27740M 27741M
                                                 27741B 27792M 27795B 27913  28004M 28005M 28005B 28144M 28145M 28145B
                                                 28172M 28173M 28173B 28183M 28184M 28184B 28214M 28215M 28215B 28242M
                                                 28243M 28243B 28310M 28311M 28311B 28331M 28332M 28332B 28349M 28350M
                                                 28350B 28370M 28371M 28371B 28388M 28389M 28389B 28412M 28415B 28436
                                                 28477M 28478M 28478B 28482M 28483M 28483B 28510M 28511M 28511B 28531M
                                                 28532M 28532B 28556M 28557M 28557B 28594M 28595M 28595B 28618M 28619M
                                                 28619B 28642M 28643M 28643B 28666M 28667M 28667B 28690M 28691M 28691B
1PAGE     (PAGE2193) (12:50) (15MAR04) Ordinary Symbol and Literal Cross Reference                                          Page  195
                                                 28717M 28720B 28738  28891M 28892M 28892B 28909M 28912B 28933  28988M
                                                 28989M 28989B 29006M 29009B 29030  29103M 29104M 29104B 29120M 29121M
                                                 29121B 29208M 29209M 29209B 29349M 29350M 29350B 29413M 29414M 29414B
                                                 29441M 29442M 29442B 29521M 29522M 29522B 29549M 29550M 29550B 29606M
                                                 29607M 29607B 29634M 29635M 29635B 29652M 29653M 29653B 29680M 29683B
                                                 29714  29877M 29878M 29878B 29905M 29906M 29906B 29934M 29935M 29935B
                                                 29955M 29956M 29956B 29973M 29974M 29974B 29995M 29996M 29996B 30013M
                                                 30014M 30014B 30054M 30057B 30078  30133M 30134M 30134B 30150M 30151M
                                                 30151B 30179M 30180M 30180B 30207M 30208M 30208B 30235M 30236M 30236B
                                                 30273M 30274M 30274B 30301M 30302M 30302B 30326M 30329B 30350  30405M
                                                 30406M 30406B 30423M 30426B 30447  30520M 30521M 30521B 30537M 30538M
                                                 30538B 30572M 30573M 30573B 30590M 30593B 30614  30715M 30716M 30716B
                                                 30733M 30736B 30769  30838M 30839M 30839B 30888M 30889M 30889B 30979M
                                                 30980M 30980B 31007M 31008M 31008B 31022M 31023M 31023B 31050M 31051M
                                                 31051B 31078M 31081B 31140  31361M 31362M 31362B 31603M 31604M 31604B
                                                 31788M 31789M 31789B 31862M 31863M 31863B 31880M 31881M 31881B 31909M
                                                 31912B 31959  32187M 32188M 32188B 32208M 32209M 32209B 32226M 32227M
                                                 32227B 32247M 32248M 32248B 32265M 32266M 32266B 32335M 32336M 32336B
                                                 32358M 32359M 32359B 32409M 32410M 32410B 32504M 32505M 32505B 32522M
                                                 32523M 32523B 32528M 32529M 32529B 32637M 32638M 32638B 32655M 32656M
                                                 32656B 32661M 32662M 32662B 33017M 33020B 33118  33212M 33213M 33213B
                                                 33605M 33606M 33606B 33622M 33623M 33623B 33651M 33652M 33652B 33675M
                                                 33676M 33676B 33699M 33700M 33700B 33723M 33724M 33724B 33747M 33748M
                                                 33748B 33771M 33772M 33772B 33795M 33796M 33796B 33814M 33815M 33815B
                                                 33824M 33825M 33825B 33857M 33860B 33881  33939M 33940M 33940B 33947M
                                                 33948M 33948B 33975M 33978B 33999  34074M 34075M 34075B 34151M 34152M
                                                 34152B 34169M 34170M 34170B 34222M 34223M 34223B 34256M 34257M 34257B
                                                 34290M 34291M 34291B 34308M 34309M 34309B 34320M 34321M 34321B 34350M
                                                 34353B 34397  34466M 34467M 34467B 34975M 34976M 34976B 35023M 35024M
                                                 35024B 35068M 35069M 35069B 35193M 35194M 35194B 35246M 35247M 35247B
                                                 35280M 35281M 35281B 35314M 35315M 35315B 35332M 35333M 35333B 35355M
                                                 35356M 35356B 35399M 35400M 35400B 35522M 35523M 35523B 35557M 35560B
                                                 35780  35889M 35890M 35890B 35922M 35923M 35923B 35943M 35944M 35944B
                                                 35960M 35961M 35961B 35983M 35984M 35984B 36000M 36001M 36001B 36056M
                                                 36057M 36057B 36061M 36062M 36062B 36084M 36085M 36085B 36101M 36102M
                                                 36102B 36106M 36107M 36107B 36129M 36130M 36130B 36146M 36147M 36147B
                                                 36198M 36199M 36199B 36236M 36237M 36237B 36273M 36274M 36274B 36295M
                                                 36296M 36296B 36316M 36317M 36317B 36367M 36368M 36368B 36397M 36398M
                                                 36398B 36463M 36464M 36464B 36487M 36488M 36488B 36516M 36517M 36517B
                                                 36543M 36544M 36544B 36589M 36590M 36590B 36617M 36618M 36618B 36668M
                                                 36669M 36669B 36687M 36688M 36688B 36802M 36803M 36803B 36821M 36822M
                                                 36822B 36855M 36856M 36856B 36881M 36882M 36882B 36921M 36922M 36922B
                                                 36948M 36949M 36949B 37088M 37089M 37089B 37128M 37131B 37246  37564M
                                                 37565M 37565B 37595M 37596M 37596B 37609M 37610M 37610B 37643M 37646B
                                                 37675  37733M 37734M 37734B 37802M 37803M 37803B 37830M 37831M 37831B
                                                 37864M 37865M 37865B 37889M 37890M 37890B 37914M 37915M 37915B 37919M
                                                 37920M 37920B 37954M 37957B 37978  38036M 38037M 38037B 38054M 38055M
                                                 38055B 38082M 38083M 38083B 38102M 38103M 38103B 38136M 38137M 38137B
                                                 38142M 38143M 38143B 38177M 38180B 38226  38287M 38288M 38288B 38421M
                                                 38422M 38422B 38460M 38461M 38461B 38581M 38582M 38582B 38686M 38687M
                                                 38687B 38733M 38736B 38757  38886M 38887M 38887B 38915M 38918B 38935
                                                 39016M 39017M 39017B 39044M 39045M 39045B 39062M 39063M 39063B 39083M
                                                 39084M 39084B 39101M 39102M 39102B 39120M 39121M 39121B 39145M 39146M
                                                 39146B 39154M 39155M 39155B 39205M 39208B 39231  39334M 39337B 39360
                                                 39496M 39497M 39497B 39581M 39582M 39582B 39603M 39604M 39604B 39637M
                                                 39640B 39663  39769M 39772B 39819  39879M 39880M 39880B 39897M 39898M
                                                 39898B 39914M 39915M 39915B 39927M 39928M 39928B 39951M 39954B 39972
                                                 40628M 40631B 40684  41068M 41069M 41069B 41096M 41097M 41097B 41102M
                                                 41103M 41103B 41246M 41249B 41315  41566M 41567M 41567B 42035M 42038B
1PAGE     (PAGE2193) (12:50) (15MAR04) Ordinary Symbol and Literal Cross Reference                                          Page  196
                                                 42104  42222M 42223M 42223B 42271M 42272M 42272B 42357M 42358M 42358B
                                                 42381M 42382M 42382B 42409M 42410M 42410B 42437M 42438M 42438B 42465M
                                                 42466M 42466B 42493M 42494M 42494B 42557M 42558M 42558B 42625M 42626M
                                                 42626B 42776M 42777M 42777B 42797M 42798M 42798B 42825M 42826M 42826B
                                                 42868M 42869M 42869B 42947M 42948M 42948B 43030M 43031M 43031B 43058M
                                                 43061B 43082  43149M 43150M 43150B 43171M 43172M 43172B 43199M 43200M
                                                 43200B 43221M 43224B
 RETFMEM       1 00000000 00000033     T   37173 37173
 RETFNAME      1 00000000 00000032     T   37170 37170
 RGETSG       60 00000000 FFFFFFE2     X   11321 11409  11645  11663  11683  11716  11744  11788
 RGETSGCOD
               1 00000000 FFFFFFE2     R   11238 11247  11257  11267  11277  11287  11297  11307
 RGETSGLENF
               4 0000000C FFFFFFE2     A   11313 11805
 RGETSGLOC
               4 00000020 FFFFFFE2     A   11317 11800
 RGETWA       60 00000000 FFFFFFE2     J   11328 11350  11379U 11389M 11389  11832  11834  11835
 ROWGET        2 00000D2C 00000001     H   11337 11333
 ROWPUT        2 00000E5E 00000001     H   11962 11958
 RPUTCMD       2 0000115C 00000001     H   12769 12382
 RPUTCOL       2 00001130 00000001     H   12685 12367
 RPUTERR       2 000011E0 00000001     H   13021 12427
 RPUTFREE      2 000010AC 00000001     H   12433 12322
 RPUTMSG       2 00001188 00000001     H   12853 12397
 RPUTNEW       2 000010D8 00000001     H   12517 12337
 RPUTPRT       4 00000F6C 00000001     F   12310 13960
 RPUTSG       60 00000000 FFFFFFE1     X   11946 12054  12243
 RPUTSGCOD
               1 00000000 FFFFFFE1     R   11863 11872  11882  11892  11902  11912  11922  11932
 RPUTSGLENF
               4 0000000C FFFFFFE1     A   11938 12260
 RPUTSGLOC
               4 00000020 FFFFFFE1     A   11942 12255
 RPUTSTAT      2 000011B4 00000001     H   12937 12412
 RPUTTEXT      2 00001104 00000001     H   12601 12352
 RPUTWA       60 00000000 FFFFFFE1     J   11953 11975  12004U 12008  12018U 12028M 12028  12299  12301  12302
 RTRIM         1 00000000 0000002D     T   27858 27858  38193  43240
 R0            0 00000000 FFFFFFFF A   #     699  2111   2180M  7011M  7037M  7037   7038M  7061M  7087M  7087   7088M
                                                  7173M  7174M  7214M  7215M  7471M  7503M  7549M  7550M  7550   7583M
                                                  7685M  7706M  7706   7723M  7736M  7768M  7789M  7789   7824M  7826
                                                  7826M  7920M  7920   7948M  7971   7982M  7982   7991   7992   7993
                                                  8313M  8313   8322   8323   8465   8606M  8606   8615   8616   8759
                                                  9090M  9108M  9171M  9192M  9212M  9245M  9265M  9265   9283M  9303M
                                                  9303   9321M  9342M  9342   9361M  9361   9407M  9409   9409M  9689M
                                                  9757M  9761   9772M  9772   9781   9782   9816M  9836M  9843   9844
                                                  9844   9844   9865M  9865   9897M  9897   9935M  9981M  9983   9983M
                                                 10451M 10451  10465  10494  10606M 10606  10620  10649  10741  10750M
                                                 10751  10752  10854M 10854  10868  10902  10995M 10995  11009  11043
                                                 11418M 11436M 11479M 11655M 11675M 11675  11708M 11721M 11759M 11759
                                                 11805M 11807  11807M 12063M 12130M 12134  12146M 12146  12155  12156
                                                 12190M 12210M 12260M 12262  12262M 13147M 13165M 13183M 13210M 13237M
                                                 13302M 13320M 13354M 13382M 13400M 13424M 13798M 13809M 13809  13836M
                                                 13977  13977  13977  14222M 14285M 14324M 14324  14392M 14392  14405M
                                                 14405  14412  14413  14413  14413  14419M 14434M 14471M 14471  14533M
                                                 14569M 14614M 14645M 14663M 14684M 14711M 14750M 14750  15723M 15723
                                                 16283  16322M 16382M 16415M 16459M 16535M 16536  16582M 16632M 16633M
                                                 16634M 16654M 16655M 16656M 16684M 16686  16686M 16696  16696M 16785
                                                 16910  17111  17236  17735  17958  17972  18044  18061  18430  18444
                                                 18490  18575  18670  18684  18730  18800  18962  19017  19090  19145
1PAGE     (PAGE2193) (12:50) (15MAR04) Ordinary Symbol and Literal Cross Reference                                          Page  197
                                                 19245  19259  19333  19439  19863  19900M 19900  19957M 19997M 20023M
                                                 20023  20092  20092  20092  20788M 20789M 20789  20817  20823M 20839M
                                                 20839  20858M 20863  20872  21123M 21124  21212M 21224  21231  21299M
                                                 21315M 21315  21334M 21339  21820M 21822  21822M 22161M 22161  22196M
                                                 22404M 22426M 22432  23436M 23436  23493  24028M 24028  24034  24113M
                                                 24113  24120M 24148  24149  24755M 24771M 24798M 24798  24814M 24848M
                                                 25030M 25064M 25223  25284M 25302M 25303M 25324  25370M 25391M 25391
                                                 25409M 25430M 25430  25448M 25469M 25469  25487M 25516M 25545M 25574M
                                                 25640M 25673M 25673  25691M 25728M 25728  25756M 25868M 25888M 25923M
                                                 25953M 25995M 26009M 26009  26180M 26180  26197M 26329  26366M 26425M
                                                 26425  26439  26445  26613M 26614M 26615  26888M 26888  26900  27428M
                                                 27539M 27548M 27548  27554  27685M 27698M 27698  27726M 27747M 27993M
                                                 28134M 28161M 28204M 28231M 28299M 28320M 28320  28338M 28359M 28359
                                                 28377M 28500M 28977M 29092M 29110M 29293M 29322M 29406M 29430M 29514M
                                                 29538M 29599M 29623M 29641M 29860M 29861M 29894M 29923M 29944M 29944
                                                 29962M 29984M 29984  30002M 30122M 30140M 30168M 30196M 30224M 30265M
                                                 30290M 30394M 30509M 30527M 30561M 30656M 30688M 30819M 30820M 30821
                                                 30972M 30996M 31015M 31039M 31343M 31344M 31344  31597M 31782M 31851M
                                                 31869M 31998  32176M 32197M 32197  32215M 32236M 32236  32254M 32324M
                                                 32347M 32347  32363M 32382M 32493M 32511M 32626M 32644M 33612M 34158M
                                                 34175M 34195M 34246M 34279M 34317M 34468  34520M 34520  34521M 34970M
                                                 35065M 35235M 35270M 35303M 35402M 35413M 35413  35500M 35519M 35878M
                                                 35911M 35932M 35932  35949M 35972M 35972  35989M 36045M 36058M 36090M
                                                 36103M 36135M 36187M 36225M 36262M 36284M 36305M 36305  36321M 36341M
                                                 36386M 36402M 36437M 36476M 36505M 36532M 36578M 36606M 36657M 36684M
                                                 36702  36776M 36818M 36831M 36831  36838  36839  36839  36839  36844M
                                                 36859M 36910M 36937M 37083M 37181  37181  37181  37567M 37569M 37606M
                                                 37755M 37774M 37779  37819M 37853M 37886M 37891  38051M 38057  38125M
                                                 38400M 38498  38578M 38578  38683M 38683  38883M 38888  39000M 39001M
                                                 39002M 39033M 39051M 39072M 39072  39090M 39115M 39134M 39134  39151M
                                                 39172M 39173M 39174M 39296  39493M 39493  39577M 39859  39876M 39892
                                                 39893M 39910M 39924M 40768M 40768  40836M 40929M 40929  40940M 40956
                                                 40991  41088M 41088  41122M 41122  41144M 41168M 41563M 41600  42012M
                                                 42151  42211M 42260M 42546M 42614M 42765M 42786M 42786  42814M 42842M
                                                 42922M 42923  43019M 43138M 43160M 43160  43188M
 R1            1 00000001 FFFFFFFF A   #     712  2174M  2175M  2181M  7004M  7005M  7005   7017   7018   7031   7054M
                                                  7055M  7055   7067   7068   7081   7175M  7216M  7470M  7502M  7582M
                                                  7684M  7702M  7722M  7767M  7785M  7819M  7826   7947M  7970   7978M
                                                  7991   7992   7993   8309M  8322   8323   8325   8602M  8615   8616
                                                  8618   9089M  9107M  9170M  9191M  9211M  9244M  9261M  9282M  9299M
                                                  9320M  9338M  9359M  9359   9402M  9409   9688M  9752M  9760   9768M
                                                  9781   9782   9784   9815M  9835M  9843   9844   9844   9844   9935M
                                                  9976M  9983  11417M 11435M 11478M 11496M 11517M 11538M 11559M 11580M
                                                 11601M 11622M 11654M 11671M 11707M 11757M 11757  11800M 11807  12062M
                                                 12125M 12133  12142M 12155  12156  12158  12189M 12209M 12255M 12262
                                                 13146M 13164M 13182M 13209M 13236M 13301M 13319M 13353M 13377M 13399M
                                                 13423M 13793M 13834M 13977  13977  13977  14217M 14278M 14390M 14390
                                                 14412  14413  14413  14413  14418M 14434M 14528M 14568M 14607M 14638M
                                                 14662M 14691M 14704M 15725M 15725  16321M 16344  16381M 16414M 16458M
                                                 16538M 16583M 16696  17735M 17737M 17749  17758  17786  18460  18474
                                                 18504  18589  18700  18714  18744  18814  18971  19026  19099  19154
                                                 19360  19372  19379  19395  19402  19463  19861  19901M 19903M 19999M
                                                 20025M 20025  20092  20092  20092  20228M 20401M 20801M 21212M 21247
                                                 21254  21426M 21541  21900  22164M 22165M 22165  22178M 22195M 22210
                                                 22405M 23438M 23438  23494  23982M 23982  23988  24133M 24133  24140M
                                                 24163  24754M 24770M 24794M 24813M 24847M 24862M 25027  25028  25028
                                                 25028  25029M 25056M 25063M 25217M 25223  25254M 25266  25278  25296
                                                 25318M 25324  25363M 25387M 25408M 25426M 25447M 25465M 25486M 25509M
                                                 25538M 25567M 25633M 25668M 25690M 25709M 25711M 25724M 25749M 25868M
1PAGE     (PAGE2193) (12:50) (15MAR04) Ordinary Symbol and Literal Cross Reference                                          Page  198
                                                 25881M 25923M 25952M 25990M 26328  26362M 26762M 26763M 26834M 26836M
                                                 26895M 27428M 27535M 27681M 27722M 27746M 27861  27861  27861  27986M
                                                 28141M 28154M 28211M 28224M 28292M 28316M 28337M 28355M 28376M 28507M
                                                 28970M 29085M 29117M 29190M 29201U 29286M 29315M 29367M 29377M 29377
                                                 29386M 29398M 29400M 29423M 29492M 29493M 29508M 29531M 29603M 29616M
                                                 29640M 29874M 29887M 29916M 29940M 29961M 29980M 30001M 30115M 30147M
                                                 30161M 30189M 30217M 30270M 30283M 30387M 30502M 30534M 30554M 30649M
                                                 30681M 30885M 30976M 30989M 31019M 31032M 31307M 31308M 31308  31331
                                                 31598M 31783M 31844M 31868M 31999  32076M 32100M 32100  32106M 32107M
                                                 32117U 32169M 32193M 32214M 32232M 32253M 32317M 32338M 32362M 32381M
                                                 32486M 32510M 32525M 32619M 32643M 32658M 33157  33619M 34157M 34174M
                                                 34194M 34253M 34278M 34311M 34312M 34463M 34503M 34504M 34647M 34696M
                                                 34710M 34833M 34835M 34966M 35015M 35140M 35150U 35228M 35277M 35302M
                                                 35431M 35465M 35465  35478M 35478  35513M 35514M 35873M 35910M 35928M
                                                 35948M 35968M 35988M 36044M 36089M 36134M 36186M 36224M 36261M 36283M
                                                 36301M 36320M 36381M 36401M 36430M 36469M 36498M 36527M 36571M 36601M
                                                 36656M 36679M 36775M 36813M 36838  36839  36839  36839  36843M 36859M
                                                 36909M 36932M 37021M 37028M 37079M 37181  37181  37181  37376M 37378M
                                                 37439M 37441M 37466M 37467M 37469M 37470M 37503M 37505M 37515M 37580M
                                                 37600M 37601M 37754M 37773M 37812M 37852M 37882M 38046M 38118M 38284M
                                                 38291M 38292M 38292  38395M 38574M 38679M 38879M 39026M 39050M 39068M
                                                 39089M 39110M 39150M 39416M 39417M 39433M 39433  39438M 39439  39489M
                                                 39578M 39859  39871M 39892  39910M 39924M 40947M 40956  40968M 40968
                                                 41065M 41099M 41142M 41168M 41170M 41171M 41187M 41187  41203  41210M
                                                 41215M 41408M 41428M 41430  41558M 41678M 41679M 41925M 41927  42012M
                                                 42152  42204M 42253M 42281M 42324M 42325  42326  42539M 42607M 42653M
                                                 42674M 42675  42696M 42719M 42732  42744  42758M 42782M 42807M 42842
                                                 42853M 42898M 42921M 42922  42932M 43012M 43133M 43156M 43183M
 R12          12 0000000C FFFFFFFF A   #     855  2137
 R13          13 0000000D FFFFFFFF A   #     868  7906   7986   7987   7988   8003   8004   8005   8317   8318   8319
                                                  8335   8336   8337   8610   8611   8612   8628   8629   8630   9659
                                                  9776   9777   9778   9794   9795   9796  12033  12150  12151  12152
                                                 12168  12169  12170
 R14          14 0000000E FFFFFFFF A   #     881  2112M  7031M  7036M  7038M  7081M  7086M  7088M  7905M  7906   7969M
                                                  7970   7971   7975M  7975   7985M  7986   7987   7988   8000M  8003
                                                  8004   8005   8226M  8229   8316M  8317   8318   8319   8324M  8325
                                                  8332M  8335   8336   8337   8609M  8610   8611   8612   8617M  8618
                                                  8625M  8628   8629   8630   9658M  9659   9759M  9760   9761   9765M
                                                  9765   9775M  9776   9777   9778   9783M  9784   9791M  9794   9795
                                                  9796   9987M  9990  12032M 12033  12132M 12133  12134  12138M 12138
                                                 12149M 12150  12151  12152  12157M 12158  12165M 12168  12169  12170
                                                 12266M 12269  16620M 16625M 16633  16634M 16642M 16647M 16655  16656M
                                                 16911M 17237M 25023M 25027  25028  25028  25028  25029  25056M 27861
                                                 27861  27861  34514M 34519M 34521M 35357M 35401M 38990M 38995M 39001
                                                 39002M 39162M 39167M 39173  39174M 42648M 42650M 42650  42698M 42718
                                                 42900M 42920
 R15          15 0000000F FFFFFFFF A   #     894  2111   7018M  7019M  7020   7068M  7069M  7070   7107M  7107   7256M
                                                  7256   7448M  7479M  7511M  7629M  7693M  7714M  7731M  7759M  7776M
                                                  7797M  7827M  7851M  7851   8006M  8006   8160   8166   8172   8178
                                                  8233M  8233   8257M  8257   8338M  8338   8347M  8347   8358M  8377M
                                                  8377   8468M  8487M  8487   8532M  8551M  8551   8631M  8631   8640M
                                                  8640   8651M  8670M  8670   8762M  8781M  8781   8826M  8845M  8845
                                                  9062   9081M  9179M  9235M  9253M  9273M  9291M  9311M  9329M  9350M
                                                  9390M  9414M  9414   9438M  9438   9655   9680M  9797M  9797   9806M
                                                  9806   9866M  9898M  9964M  9995M  9995  10024M 10024  10267M 10267
                                                 10376M 10376  10471M 10498M 10498  10531M 10531  10626M 10653M 10653
                                                 10686M 10686  10765M 10765  10789M 10789  10874M 10930M 10930  11015M
                                                 11071M 11071  11150M 11150  11192M 11211M 11211  11390  11409M 11645M
                                                 11663M 11683M 11716M 11744M 11788M 11812M 11812  11836M 11836  12029
1PAGE     (PAGE2193) (12:50) (15MAR04) Ordinary Symbol and Literal Cross Reference                                          Page  199
                                                 12054M 12171M 12171  12180M 12180  12243M 12274M 12274  12303M 12303
                                                 12510M 12510  12594M 12594  12678M 12678  12762M 12762  12846M 12846
                                                 12930M 12930  13014M 13014  13056M 13075M 13075  13155M 13173M 13310M
                                                 13328M 13362M 13390M 13408M 13456M 13456  13617M 13617  13758M 13760M
                                                 13894M 13923M 13923  14230M 14265M 14293M 14307M 14332M 14427M 14454M
                                                 14479M 14541M 14558M 14577M 14591M 14622M 14653M 14671M 14719M 14733M
                                                 14758M 14830M 14830  14965M 14966M 14966  15001M 15002M 15168M 15191M
                                                 15196  15730  15772M 15772  15879M 15881M 15893  16088M 16088  16139
                                                 16195M 16195  16543  16545M 16546  16547  16548  16549  16588  16666M
                                                 16667M 16668  16690M 16690  16697M 16732M 16732  16784  16819M 16819
                                                 16834  16841  16910  17058M 17058  17110  17145M 17145  17160  17167
                                                 17236  17384M 17384  17628M 17629  17630  17631  17632  17648M 17667M
                                                 17667  17719  17785M 17786M 17790  17792  17834M 17834  18143M 18143
                                                 18197  18281M 18281  18300M 18300  18878M 18878  19534M 19534  19803M
                                                 19803  19905M 19906  19922  20006M 20021M 20021  20051M 20051  20227
                                                 20398M 20399  20400  20409M 20409  20426  20439M 20439  20530M 20550M
                                                 20580M 20580  20720M 20721M 20722  20735  20741M 20818  21053M 21054M
                                                 21054  21068M 21069  21078M 21159M 21176  21187  21190M 21191  21377M
                                                 21378M 21395M 21411M 21413M 21418  21457M 21485M 21485  21799M 21800
                                                 21819M 21851M 21851  21954M 21954  21997M 21997  22003M 22015  22022M
                                                 22032  22072M 22072  22108M 22148M 22148  22196  22314M 22314  22350M
                                                 22391M 22391  22555M 22555  22701M 22729  22743  22762  22776  22853M
                                                 22853  22918  22924  22928M 22928  22946M 22969M 22969  23116M 23116
                                                 23196M 23260  23278M 23278  23297M 23297  23407  23445M 23450  23452
                                                 23632M 23633M 23633  23640M 23641  23662M 23663M 23664  23725M 23726M
                                                 23726  23733M 23734  23837M 23838M 23839  23848M 23848  23911M 23911
                                                 23988M 23989M 23990M 24000U 24034M 24035M 24036M 24046U 24101M 24101
                                                 24224M 24260M 24260  24523M 24524  24608M 24695M 24723M 24724M 24725
                                                 24763M 24806M 24838M 24856M 24863M 24867M 24876M 24876  24883  24912M
                                                 25049M 25218M 25285M 25286M 25296  25303  25308M 25319M 25378M 25399M
                                                 25417M 25438M 25456M 25477M 25495M 25524M 25553M 25582M 25589M 25603M
                                                 25648M 25681M 25699M 25717M 25724  25736M 25764M 25896M 25961M 25983M
                                                 25983  26013M 26013  26092M 26092  26138  26169  26195M 26195  26283
                                                 26303  26333M 26498M 26503  26568M 26643M 26658M 26668M 26668  26703
                                                 26723  26731M 26748  26756M 26763  26814  26828  26835M 26836  26869
                                                 26875M 26900M 26904M 26913M 26913  26920  27230M 27231M 27232M 27248M
                                                 27248  27253M 27254  27389M 27401  27587M 27587  27631M 27643  27754M
                                                 27754  27771M 27794M 27794  28001M 28169M 28239M 28307M 28328M 28346M
                                                 28367M 28385M 28414M 28414  28474M 28719M 28719  28767M 28798M 28819M
                                                 28840M 28861M 28882M 28911M 28911  28985M 29008M 29008  29100M 29205M
                                                 29346M 29438M 29546M 29631M 29649M 29682M 29682  29902M 29931M 29952M
                                                 29970M 29992M 30010M 30037M 30056M 30056  30130M 30176M 30204M 30232M
                                                 30298M 30328M 30328  30402M 30425M 30425  30517M 30569M 30592M 30592
                                                 30712M 30735M 30735  30895M 30896M 30897  31004M 31047M 31080M 31080
                                                 31208M 31209M 31209  31230U 31374  31384  31424M 31425M 31426  31522M
                                                 31523M 31538  31568M 31579  31600M 31705M 31706M 31721  31752M 31763
                                                 31785M 31859M 31877M 31911M 31911  32000  32010M 32011M 32011  32032U
                                                 32055M 32056M 32057M 32070U 32184M 32205M 32223M 32244M 32262M 32272M
                                                 32273M 32273  32283U 32332M 32355M 32406M 32429M 32430  32440M 32440
                                                 32446M 32446  32447  32451M 32453M 32454  32501M 32519M 32535M 32536M
                                                 32537  32550M 32550  32634M 32652M 32669M 32670M 32671  32684M 32684
                                                 32813M 32823M 32823  32832M 32833M 32834  32834  32949M 32959M 32959
                                                 32968M 32969M 32970  32970  33019M 33019  33209M 33348M 33384M 33409M
                                                 33441  33455  33508  33536  33602M 33811M 33821M 33859M 33859  33936M
                                                 33941M 33942M 33944M 33977M 33977  34084M 34085  34148M 34166M 34219M
                                                 34287M 34305M 34352M 34352  34462M 34505M 34506M 34519  34529M 34530
                                                 34646M 34647  34680M 34681M 34681  34696  34711M 34728M 34769M 34786M
                                                 34789  34801M 34836M 34837M 34845  34857M 34871M 34871  34879M 34883M
                                                 34892M 34892  34899  35020M 35020  35073M 35074M 35075M 35076M 35088
1PAGE     (PAGE2193) (12:50) (15MAR04) Ordinary Symbol and Literal Cross Reference                                          Page  200
                                                 35101M 35173M 35243M 35311M 35329M 35340M 35341M 35341  35357  35360M
                                                 35361M 35361  35364M 35366  35401  35424M 35431  35443M 35443  35559M
                                                 35559  35845M 35846  35886M 35919M 35940M 35957M 35980M 35997M 36053M
                                                 36081M 36098M 36126M 36143M 36195M 36233M 36270M 36292M 36313M 36364M
                                                 36394M 36460M 36484M 36513M 36540M 36586M 36614M 36665M 36799M 36852M
                                                 36878M 36918M 36945M 37005M 37006M 37021  37029M 37033M 37042M 37042
                                                 37049  37130M 37130  37319M 37320  37332M 37357M 37367M 37367  37376
                                                 37378  37516M 37517M 37531M 37533  37561M 37592M 37645M 37645  37730M
                                                 37799M 37827M 37861M 37911M 37916M 37956M 37956  38033M 38079M 38087M
                                                 38088M 38133M 38139M 38179M 38179  38281M 38282M 38282  38293M 38297M
                                                 38306M 38306  38313  38333M 38337  38339M 38343M 38352M 38352  38359
                                                 38386M 38565M 38670M 38735M 38735  38811M 38814  38826M 38831  38835M
                                                 38844M 38844  38851  38917M 38917  39013M 39041M 39059M 39080M 39098M
                                                 39116M 39142M 39207M 39207  39284M 39303  39336M 39336  39480M 39564M
                                                 39565M 39566  39594  39600M 39639M 39639  39771M 39771  39858  39894M
                                                 39911M 39923M 39953M 39953  40161M 40162M 40162  40175M 40193M 40194M
                                                 40194  40223M 40224M 40224  40245M 40246M 40246  40261M 40269  40281M
                                                 40288  40300M 40306M 40307  40327M 40328M 40328  40342M 40343M 40343
                                                 40372M 40373M 40373  40392M 40399  40403  40415M 40422  40434M 40439
                                                 40442  40454M 40459  40462M 40514  40516M 40517  40565M 40567M 40591
                                                 40630M 40630  40734M 40734  40849  40866  40876M 40876  40893M 40935M
                                                 40954M 40955  40974M 40975M 40985M 40985  41041M 41053  41060M 41098M
                                                 41109M 41141M 41160  41217M 41248M 41248  41384M 41387  41399M 41408
                                                 41411M 41413  41587  41591M 41592M 41593  41663M 41672M 41672  41679
                                                 41685M 41691  41748M 41760  41899M 41926M 41927M 41941  41953M 41958
                                                 41962M 41971M 41971  41978  42004M 42004  42037M 42037  42168M 42169M
                                                 42169  42219M 42268M 42280M 42281  42284M 42288M 42297M 42297  42304
                                                 42352M 42378M 42406M 42434M 42462M 42490M 42554M 42622M 42652M 42656M
                                                 42658  42697M 42773M 42794M 42822M 42865M 42899M 42944M 42966M 42967M
                                                 42968  42970M 42971M 42972  42974M 42975M 42976  42978M 42979M 42980
                                                 43027M 43060M 43060  43111  43146M 43168M 43196M 43223M 43223
 R2            2 00000002 FFFFFFFF A   #     725  6992M  6993M  7011   7036   7042M  7043M  7061   7086   7635M  7656M
                                                  7656   7702   8166M  8190M  8190   9757  12130  13705M 13706M 13706
                                                 13748  13758  13779M 13798  13849M 13858M 13858  13865  15865M 15865
                                                 15879  15900M 15916  16356M 16358  16388  16577M 16579M 16580  16583
                                                 16599M 16600M 16612M 16625  16647  17760M 17778M 17783M 17784M 17790
                                                 17792M 17793  18197M 18248  19835  20047M 20405M 20405  22210M 22253
                                                 22433M 22486  23117M 23118  23135  23249M 23407M 23427M 23427  23450
                                                 23452M 23470  23487  23501M 23501  23710M 23710  23751M 23781  23943
                                                 24256M 24740M 24741M 24741  24783  24794  25059M 25248M 25249M 25250
                                                 25266  26220M 26221M 26221  26236M 26237M 26247U 26710M 26730M 26755M
                                                 29132M 29132  29168M 29237M 29274M 29302M 29302  29355M 29450M 29463M
                                                 29463  29840M 29842M 29854  29980  30240M 30254  30270  30303M 31542M
                                                 31562M 31579  31599M 31725M 31746M 31763  31784M 32003M 32004  32713M
                                                 32731M 32731  32778M 32778  32791M 32872M 32916  34313M 34314M 34565M
                                                 34579  34593  34971M 35016M 35396M 35498M 35515M 35516M 35900M 35901M
                                                 35901  35962M 35963M 36333  36965M 36966M 36982M 36982  36999  37005
                                                 37028  37084M 37345M 37397M 37410M 37410  37426M 37427M 37427  37439
                                                 37441  37486M 37503  37505  37515  37517  37602M 37603M 37736M 37779M
                                                 37871M 37871  37872M 37891M 37916  38056M 38057M 38059M 38087  38104M
                                                 38139  38290M 38293  38337  38339  39117M 39909M 40010M 40020U 40058M
                                                 40058  40209M 40209  40358M 40358  40488M 40488  40490M 40568M 40586M
                                                 40591M 40592  40687  41244M 41318  41407M 41407  41440M 41440  41568M
                                                 41580  41586M 41587  42033M 42675M 42690M 42690  42696  42698  42701M
                                                 42703  42718M 42878M 42898  42900  42903M 42905  42920M 42953M 43111M
                                                 43156
 R3            3 00000003 FFFFFFFF A   #     738  7636M  7647M  7647   7657M  7672M  7672   7736   8172M  8196   8213
                                                  8306M  8306   8353M  8358   8465M  8467   8467M  8529M  8531   8531M
                                                  8599M  8599   8646M  8651   8759M  8761   8761M  8823M  8825   8825M
1PAGE     (PAGE2193) (12:50) (15MAR04) Ordinary Symbol and Literal Cross Reference                                          Page  201
                                                  9752  12125  13757M 13793  15867M 15867  15893  15894M 15969M 15970
                                                 15986  16034M 16512M 16530U 16785M 16801M 16801  16834  16841M 16843M
                                                 16942M 16942  16991M 17010M 17010  17111M 17127M 17127  17160  17167M
                                                 17169M 17268M 17268  17317M 17336M 17336  17464M 17464  17601M 17648
                                                 17981M 17982  17998  18087M 18511M 18512  18528  18637M 18751M 18752
                                                 18768  18827M 19271M 19272  19288  19488M 19861M 19988  21635M 21635
                                                 21776M 21820  22209M 22253M 22266M 22271  22432M 22468  22477M 22477
                                                 22486M 22498  22505M 23118M 23119M 23120M 23150U 23248M 23502M 23658M
                                                 23780M 23834M 25060M 25250M 25251M 25252M 25278  26503M 26568  28024M
                                                 28039  28119  28134  28187M 29354M 29448M 29743M 29833M 29833  30037
                                                 31506M 31516M 31516  31522  31542  31597  31689M 31699M 31699  31705
                                                 31725  31783  32337M 32338  32372M 32372  32450M 32454M 32455  32532M
                                                 32584M 32586M 32587M 32588  32666M 32714M 32715  32719  32750  32843M
                                                 32887  32916  32979M 34315M 34316M 34470M 34480U 34972M 35337M 35497M
                                                 35517M 35518M 37085M 37344M 37395M 37604M 37605M 38485M 38511M 38524
                                                 38616M 38629  40489M 40493  40505M 40514  40516  40518  40770M 40771
                                                 40787  40836  40909M 42152  42282M 42326M 42343M 42343  42652  42653
                                                 42877M 42952M
 R4            4 00000004 FFFFFFFF A   #     751  7637M  7658M  7785   8059M  8060   8076   8098M  8178M  8197   8214
                                                  9725M 11390M 11427M 11427  11448  11458M 11459M 11469U 12029M 12072M
                                                 12072  12089  12099M 12100M 12110U 12477U 12561U 12645U 12729U 12813U
                                                 12897U 12981U 15011M 15026  15140  15144M 15243M 15246  15322  15323M
                                                 15370  15371M 15418M 15459  15537M 15538  15602  15605M 15651  15654M
                                                 15704M 15714  15930M 15945  15970M 15971M 15972M 16001U 16033M 16047M
                                                 16784M 16985  17110M 17311  17484M 17485  17501  17608M 17982M 17983M
                                                 17984M 18013U 18086M 18512M 18513M 18514M 18543U 18636M 18752M 18753M
                                                 18754M 18783U 18826M 19272M 19273M 19274M 19303U 19487M 19710M 19739
                                                 19770M 20282M 20283  20299  20447M 20887M 20888  20904  21198M 21556M
                                                 21557  21592  21623M 21661M 21675  21915M 21916  21968  22039M 22086
                                                 22133M 22219M 22232  22306M 22307  22328  22376M 22447  22516M 22618M
                                                 22633  22812M 23020M 23035  23063M 23077M 23092  23111  23242  23263M
                                                 23503M 23504  23562  23751  23766M 23781M 23782  23798  23863M 24148M
                                                 24163  24231M 25806M 25821  25852M 26445M 26446M 26447M 26457U 27121M
                                                 27132M 27132  27146  27152M 27153M 27163U 27287M 27298M 27298  27312
                                                 27318M 27319M 27329U 28025M 28052U 28186M 30851M 30881U 30891M 31270M
                                                 31285  31374  31384  31437M 31466M 31481  31506  31523  31556  31568
                                                 31590M 31598  31617M 31650M 31651  31664M 31664  31689  31706  31739
                                                 31752  31775M 31782  31803M 32455M 32456M 32457M 32474U 32525  32531M
                                                 32588M 32589M 32590M 32607U 32658  32664M 32715M 32716M 32717M 32765U
                                                 32842M 32902U 32978M 33157M 33167U 33919U 34037U 34445U 35828U 37294U
                                                 37713U 38016U 38264U 38510M 38614M 38795U 38979M 38982  38995  39115
                                                 39167  39269U 39398U 39701U 40027M 40028M 40028  40042M 40043M 40043
                                                 40072M 40073M 40073  40092M 40100  40112M 40119  40131M 40136  40490
                                                 40530M 40545  40595M 40771M 40772M 40773M 40802U 40908M 40991M 40992M
                                                 40993M 41003U 41363M 41375M 41375  41384  41430M 41468M 41504M 41539M
                                                 41563  41600M 41602M 41898M 42011  42332M 42674  42876M 42951M
 R5            5 00000005 FFFFFFFF A   #     764  7428M  7602M  7602   7827   8060M  8061M  8062M  8091U  8097M  9062M
                                                  9099M  9099   9120   9130M  9131M  9141U  9655M  9698M  9698   9715
                                                  9725   9726M  9727M  9737U 10213U 10318U 10427U 10582U 10737U 11122U
                                                 14246M 14257M 14257  14352M 14502M 14513M 14513  14779M 15012M 15041U
                                                 15143M 15244M 15274U 15324M 15372M 15419M 15484U 15538M 15539M 15540M
                                                 15550U 15603M 15652M 15702M 15931M 15960U 16046M 16139M 16163  16344M
                                                 16357M 16358M 16359M 16360M 16372  16388M 16422M 16423M 16433U 16865M
                                                 16866M 16867M 16877U 16997M 17191M 17192M 17193M 17203U 17323M 17485M
                                                 17486M 17487M 17516U 17607M 17890M 17905  18112M 18199M 18214  18265M
                                                 18360M 18375  18848M 19179M 19194  19505M 19713M 19714M 19714  19754U
                                                 19769M 19906M 19907M 19908M 19937U 20005M 20283M 20284M 20285M 20314U
                                                 20446M 20888M 20889M 20890M 20919U 21197M 21557M 21558M 21559M 21569U
                                                 21622M 21662M 21916M 21917M 21918M 21928U 22038M 22132M 22217M 22307M
1PAGE     (PAGE2193) (12:50) (15MAR04) Ordinary Symbol and Literal Cross Reference                                          Page  202
                                                 22308M 22309M 22374M 22515M 22619M 22648U 22811M 23021M 23050U 23062M
                                                 23078M 23107U 23262M 23504M 23505M 23506M 23517U 23577U 23765M 23782M
                                                 23783M 23784M 23813U 23862M 24149M 24150M 24151M 24178U 24230M 24575M
                                                 24576M 24576  24588U 24618M 25087M 25088M 25089M 25099U 25807M 25836U
                                                 25851M 26463M 26464M 26464  26477M 26482M 26483M 26493U 27199M 27200M
                                                 27200  27215M 27216M 27226U 27336M 27337M 27337  27349M 27350M 27360U
                                                 28057M 28058M 28058  28071M 28076M 28077M 28085U 30950M 30951M 30952M
                                                 30962U 31271M 31300U 31436M 31467M 31496U 31589M 31616M 31651M 31652M
                                                 31653M 31679U 31773M 31801M 32004M 32719M 32841M 32977M 33173M 33174M
                                                 33174  33187M 33192M 33193M 33203U 33929U 34047U 34455U 35838U 37304U
                                                 37723U 38026U 38274U 38805U 38981M 38990  39110  39172  39176  39279U
                                                 39408U 39711U 39858M 39908  39923  40531M 40560U 40594M 40746M 40747M
                                                 40748M 40758U 41362M 41365  41428  41429M 41429  41466M 41503M 41537M
                                                 41558  41599M 41926  42010  42178M 42324  42331M 42719  42875M 42921
                                                 42932  42950M
 R6            6 00000006 FFFFFFFF A   #     777  7486M  7487M  7487   7532M  7533M  7543U  8041M  8042M  8043M  8053U
                                                  9634M  9644U 10437U 10592U 10840U 10981U 12008M 12018U 13248M 13249M
                                                 13249  13260U 14948M 14958U 16146M 16147M 16148M 16158U 16283M 16296M
                                                 16312  16328M 16329M 16339U 16849M 16850M 16851M 16861U 17175M 17176M
                                                 17177M 17187U 17466M 17467M 17468M 17478U 17719M 17729U 17891M 17920U
                                                 18111M 18200M 18229U 18264M 18361M 18390U 18847M 19180M 19209U 19504M
                                                 19863M 19876M 19881M 19882M 19892U 20210M 20211M 20212M 20222U 20696M
                                                 20712U 20716M 21541M 21551U 21900M 21910U 22667M 22668M 22669M 22679U
                                                 23523M 23532M 23533M 23543U 23972M 23972  24006M 24052M 24074M 24074
                                                 24081M 24086M 24087M 24095U 24434M 24446U
 R7            7 00000007 FFFFFFFF A   #     790  2104M  2104   2105B  2117B
 R8            8 00000008 FFFFFFFF A   #     803  7424U  9051U  9630U 11379U 12004U 14158U 15847U 16279U 20198U 20680U
                                                 23393U 31175U 31994U 33153U 34432U 35815U 37281U 39854U 40719U 41350U
                                                 42139U
 SCANCHK       1 00000000 0000000D     T    8862  8862
 SCANINT       2 0000052A 00000001     H    8561  8869
 SCANLNO       2 000003C2 00000001     H    8268  8868
 SCRLCNT       2 00000004 FFFFFFD8     H   31936 32000M 32337  32429  32713
 SCRLEXIT      2 000046DC 00000001     H   32998 32134B
 SCRLFIN       6 00002EE8 00000001     I   23875 23408B 23443B 23851B
 SCRLFROW      2 00000000 FFFFFFD8     H   31934 31998M 32055  32193  32582  32587  32714
 SCRLLROW      2 00000002 FFFFFFD8     H   31935 31999M 32232  32448  32450  32750  32872  32887
 SCRLRGN       2 00004444 00000001     H   31952 33059
 SCRLWA        8 00000000 FFFFFFD8     J   31944 31965  31994U 33015  33017  33018
 SCRLWCNT      2 00000006 FFFFFFD8     H   31937 32430M 32447M 32451  32535  32537M 32584  32669  32671M
 SDSNQSZ       1 0000002C FFFFFFEC A   U    6092  6093   6094
 SEG           1 00000000 00000009     T    8858  8858  13942  20067  27812  33030  37157  38190  43244
 SEGB          1 00000000 00000026     T   27815 27815  38196
 SEGCLR        1 00000000 00000014     T   13970 13970  27810  43242
 SEGCR         1 00000000 00000011     T   13961 13961  43247
 SEGDC         1 00000000 0000000B     T    8860  8860  13943  27814  33036  37167  43246
 SEGINIT       1 00000000 00000008     T    8857  8857  13941  20064  27816  37166
 SEGMARK       1 00000000 00000016     T   20068 20068  27829  33037  37146
 SEGT          1 00000000 00000012     T   13963 13963  20071  37169
 SEGWR         1 00000000 00000017     T   20069 20069
 SELDELTA      1 00000000 00000020     T   24284 24284
 SETTTYPE      1 00000000 00000024     T   27809 27809
 SETVEXIT      4 000003A4 00000001     I    8226  7939B
 SETVINFO      2 0000024E 00000001     H    7868  7864
 SINTERR       2 0000065E 00000001     H    8788  8688   8718
 SINTPRT       4 000005B4 00000001     F    8676  8871
 SINTRTN       2 0000062C 00000001     H    8724  8703
 SLNOERR       2 000004F6 00000001     H    8494  8394   8424
 SLNOPRT       4 0000044C 00000001     F    8382  8870
1PAGE     (PAGE2193) (12:50) (15MAR04) Ordinary Symbol and Literal Cross Reference                                          Page  203
 SLNORTN       2 000004C4 00000001     H    8430  8409
 SPELLINE      1 00000000 00000030     T   37162 37162
 SPR          13 0000000D 00000001 A   #    1112  6960   6963   6964   6965M  6965   7099M  7103   7105   7128   7131
                                                  7132   7133M  7133   7248M  7252   7254   7389   7392   7394   7395M
                                                  7395   7843M  7847   7849   7874   7877   7878   7879M  7879   8249M
                                                  8253   8255   8274   8277   8278   8279M  8279   8369M  8373   8375
                                                  8436   8439   8440   8441M  8441   8479M  8483   8485   8500   8503
                                                  8504   8505M  8505   8543M  8547   8549   8567   8570   8571   8572M
                                                  8572   8662M  8666   8668   8730   8733   8734   8735M  8735   8773M
                                                  8777   8779   8794   8797   8798   8799M  8799   8837M  8841   8843
                                                  9016   9019   9021   9022M  9022   9430M  9434   9436   9595   9598
                                                  9600   9601M  9601  10016M 10020  10022  10175  10178  10179  10180M
                                                 10180  10259M 10263  10265  10280  10283  10284  10285M 10285  10368M
                                                 10372  10374  10389  10392  10393  10394M 10394  10523M 10527  10529
                                                 10544  10547  10548  10549M 10549  10678M 10682  10684  10699  10702
                                                 10703  10704M 10704  10781M 10785  10787  10802  10805  10806  10807M
                                                 10807  10922M 10926  10928  10943  10946  10947  10948M 10948  11063M
                                                 11067  11069  11084  11087  11088  11089M 11089  11142M 11146  11148
                                                 11163  11166  11167  11168M 11168  11203M 11207  11209  11344  11347
                                                 11349  11350M 11350  11828M 11832  11834  11969  11972  11974  11975M
                                                 11975  12295M 12299  12301  12439  12442  12443  12444M 12444  12502M
                                                 12506  12508  12523  12526  12527  12528M 12528  12586M 12590  12592
                                                 12607  12610  12611  12612M 12612  12670M 12674  12676  12691  12694
                                                 12695  12696M 12696  12754M 12758  12760  12775  12778  12779  12780M
                                                 12780  12838M 12842  12844  12859  12862  12863  12864M 12864  12922M
                                                 12926  12928  12943  12946  12947  12948M 12948  13006M 13010  13012
                                                 13027  13030  13031  13032M 13032  13067M 13071  13073  13095  13098
                                                 13099  13100M 13100  13448M 13452  13454  13477  13480  13481  13482M
                                                 13482  13609M 13613  13615  13641  13644  13645  13646M 13646  13915M
                                                 13919  13921  14123  14126  14128  14129M 14129  14822M 14826  14828
                                                 14849  14852  14853  14854M 14854  15764M 15768  15770  15812  15815
                                                 15817  15818M 15818  16080M 16084  16086  16110  16113  16114  16115M
                                                 16115  16187M 16191  16193  16244  16247  16249  16250M 16250  16724M
                                                 16728  16730  16755  16758  16759  16760M 16760  17050M 17054  17056
                                                 17081  17084  17085  17086M 17086  17376M 17380  17382  17406  17409
                                                 17410  17411M 17411  17659M 17663  17665  17690  17693  17694  17695M
                                                 17695  17826M 17830  17832  17861  17864  17865  17866M 17866  18135M
                                                 18139  18141  18168  18171  18172  18173M 18173  18292M 18296  18298
                                                 18328  18331  18332  18333M 18333  18870M 18874  18876  18903  18906
                                                 18907  18908M 18908  19526M 19530  19532  19555  19558  19559  19560M
                                                 19560  19795M 19799  19801  19832  19835  19836  19837M 19837  20043M
                                                 20047  20049  20163  20166  20168  20169M 20169  20572M 20576  20578
                                                 20645  20648  20650  20651M 20651  21477M 21481  21483  21512  21515
                                                 21516  21517M 21517  21843M 21847  21849  21871  21874  21875  21876M
                                                 21876  22547M 22551  22553  22574  22577  22578  22579M 22579  22845M
                                                 22849  22851  22878  22881  22882  22883M 22883  22961M 22965  22967
                                                 22988  22991  22992  22993M 22993  23289M 23293  23295  23358  23361
                                                 23363  23364M 23364  23903M 23907  23909  23940  23943  23944  23945M
                                                 23945  24252M 24256  24258  24404  24407  24408  24409M 24409  27786M
                                                 27790  27792  27913  27916  27917  27918M 27918  28406M 28410  28412
                                                 28436  28439  28440  28441M 28441  28711M 28715  28717  28738  28741
                                                 28742  28743M 28743  28903M 28907  28909  28933  28936  28937  28938M
                                                 28938  29000M 29004  29006  29030  29033  29034  29035M 29035  29674M
                                                 29678  29680  29714  29717  29718  29719M 29719  30048M 30052  30054
                                                 30078  30081  30082  30083M 30083  30320M 30324  30326  30350  30353
                                                 30354  30355M 30355  30417M 30421  30423  30447  30450  30451  30452M
                                                 30452  30584M 30588  30590  30614  30617  30618  30619M 30619  30727M
                                                 30731  30733  30769  30772  30773  30774M 30774  31072M 31076  31078
                                                 31140  31143  31145  31146M 31146  31903M 31907  31909  31959  31962
1PAGE     (PAGE2193) (12:50) (15MAR04) Ordinary Symbol and Literal Cross Reference                                          Page  204
                                                 31964  31965M 31965  33011M 33015  33017  33118  33121  33123  33124M
                                                 33124  33851M 33855  33857  33881  33884  33885  33886M 33886  33969M
                                                 33973  33975  33999  34002  34003  34004M 34004  34344M 34348  34350
                                                 34397  34400  34402  34403M 34403  35551M 35555  35557  35780  35783
                                                 35785  35786M 35786  37122M 37126  37128  37246  37249  37251  37252M
                                                 37252  37637M 37641  37643  37675  37678  37679  37680M 37680  37948M
                                                 37952  37954  37978  37981  37982  37983M 37983  38171M 38175  38177
                                                 38226  38229  38230  38231M 38231  38727M 38731  38733  38757  38760
                                                 38761  38762M 38762  38909M 38913  38915  38935  38938  38939  38940M
                                                 38940  39199M 39203  39205  39231  39234  39235  39236M 39236  39328M
                                                 39332  39334  39360  39363  39364  39365M 39365  39631M 39635  39637
                                                 39663  39666  39667  39668M 39668  39763M 39767  39769  39819  39822
                                                 39824  39825M 39825  39945M 39949  39951  39972  39975  39976  39977M
                                                 39977  40622M 40626  40628  40684  40687  40689  40690M 40690  41240M
                                                 41244  41246  41315  41318  41320  41321M 41321  42029M 42033  42035
                                                 42104  42107  42109  42110M 42110  43052M 43056  43058  43082  43085
                                                 43086  43087M 43087  43215M 43219  43221
 TCURS         1 00000000 00000019     T   20074 20074  27833  33031  37147
 TRC           1 00000000 00000000 A   T    2133  2133
 TREAD         1 00000000 00000029     T   27836 27836
 TREND         1 00000000 00000015     T   20065 20065  27828  33046  37155  38189  43269
 TTYBACK       8 00000104 FFFFFFEA     C    6305 14265  14558  25589  28767  33936  34305  35329
 TTYBOLD       8 00000054 FFFFFFEA     C    6283 42434
 TTYCMD        8 000000FC FFFFFFEA     C    6304 28819  37730
 TTYCOL        8 000000D4 FFFFFFEA     C    6299 28861  37319  37561
 TTYCOLM       8 000000E4 FFFFFFEA     C    6301 42462
 TTYCOLT       8 000000DC FFFFFFEA     C    6300 42490
 TTYFLAG       1 00000004 FFFFFFEA     R    6221  6225
 TTYFMARK     32 00000005 FFFFFFEA         6245 34721
 TTYFMOD     128 00000005 FFFFFFEA         6235 13274  24633
 TTYFQSCR      8 00000005 FFFFFFEA         6255 31247  31247  32045  32289  32289
 TTYFREL     128 00000004 FFFFFFEA         6225 24602
 TTYFSCR      16 00000005 FFFFFFEA         6250 31247  31247  31248
 TTYHEI        2 00000008 FFFFFFEA     H    6271 40072
 TTYLCOL       8 0000009C FFFFFFEA     C    6292 35166  35173
 TTYLNEW       8 000000B4 FFFFFFEA     C    6295 34148
 TTYLNORM      8 00000094 FFFFFFEA     C    6291 35101
 TTYMARK       8 0000008C FFFFFFEA     C    6290 42406
 TTYMAX#       1 00000006 FFFFFFEA A   U    6277  6278
 TTYMSG        8 00000074 FFFFFFEA     C    6287 28840  38033
 TTYNEW        8 00000084 FFFFFFEA     C    6289 28798  34084
 TTYNORM       8 0000004C FFFFFFEA     C    6282 34529
 TTYPE       268 00000000 FFFFFFEA     J    6312 13260U 14265  14558  24588U 25589  28767  28798  28819  28840  28861
                                                 28882  31230U 32032U 32090U 32283U 33936  34084  34148  34305  34480U
                                                 34529  35101  35150U 35173  35329  35845  37319  37561  37730  38033
                                                 40020U 42378  42406  42434  42462  42490
 TTYSPELL      8 000000F4 FFFFFFEA     C    6303 42378
 TTYSTAT       8 0000005C FFFFFFEA     C    6284 28882  35845
 TTYTFLAG      1 00000005 FFFFFFEA     R    6231  6235   6240   6245   6250   6255   6260   6265
 TTYWID        2 0000000A FFFFFFEA     H    6272 40223  40372
 UPDCPSIB      1 00000000 00000025     T   27811 27811
 UPPTBL        1 00000000 00000000 A   T    2196  2196
 VIEWCMD       1 00000000 0000002C     T   27857 27857
 VIEWPF        1 00000000 0000002A     T   27843 27843
 VIEWTRC       1 00000000 00000028     T   27835 27835
 VPUTKEY      16 00000000 FFFFFFD3     X   39782 39906M 39906  39907M 39908M 39909
 VPUTLINE      2 00005A32 00000001     H   39812 39808  43237
 VPUTOPTR      4 000000FC FFFFFFD3     A   39784 39892M 39910
 VPUTPTRS      4 00000104 FFFFFFD3     A   39785 39859M 39924
1PAGE     (PAGE2193) (12:50) (15MAR04) Ordinary Symbol and Literal Cross Reference                                          Page  205
 VPUTWA      268 00000000 FFFFFFD3     J   39792 39825  39854U 39949  39951  39952
 VPUTWLIN    235 00000010 FFFFFFD3     C   39783 39871  39876
 WAR           8 00000008 00000001 A   #    1035  6964M  7099   7132M  7248   7394M  7826   7843   7878M  8249   8278M
                                                  8369   8440M  8467   8479   8504M  8531   8543   8571M  8662   8734M
                                                  8761   8773   8798M  8825   8837   9021M  9409   9430   9600M  9983
                                                 10016  10179M 10259  10284M 10368  10393M 10523  10548M 10678  10703M
                                                 10781  10806M 10922  10947M 11063  11088M 11142  11167M 11203  11349M
                                                 11807  11828  11974M 12262  12295  12443M 12502  12527M 12586  12611M
                                                 12670  12695M 12754  12779M 12838  12863M 12922  12947M 13006  13031M
                                                 13067  13099M 13448  13481M 13609  13645M 13915  14128M 14822  14853M
                                                 15764  15817M 16080  16114M 16187  16249M 16686  16696  16724  16759M
                                                 17050  17085M 17376  17410M 17659  17694M 17826  17865M 18135  18172M
                                                 18292  18332M 18870  18907M 19526  19559M 19795  19836M 20043  20168M
                                                 20572  20650M 21477  21516M 21822  21843  21875M 22547  22578M 22845
                                                 22882M 22961  22992M 23289  23363M 23903  23944M 24252  24408M 27786
                                                 27917M 28406  28440M 28711  28742M 28903  28937M 29000  29034M 29674
                                                 29718M 30048  30082M 30320  30354M 30417  30451M 30584  30618M 30727
                                                 30773M 31072  31145M 31903  31964M 33011  33123M 33851  33885M 33969
                                                 34003M 34344  34402M 35551  35785M 37122  37251M 37637  37679M 37948
                                                 37982M 38171  38230M 38727  38761M 38909  38939M 39199  39235M 39328
                                                 39364M 39631  39667M 39763  39824M 39945  39976M 40622  40689M 41240
                                                 41320M 42029  42109M 43052  43086M 43215
 WGETSG       60 00000000 FFFFFFE4     X    8993  9081   9179   9235   9253   9273   9291   9311   9329   9350   9390
 WGETSGCOD
               1 00000000 FFFFFFE4     R    8910  8919   8929   8939   8949   8959   8969   8979
 WGETSGLENF
               4 0000000C FFFFFFE4     A    8985  9407
 WGETSGLOC
               4 00000020 FFFFFFE4     A    8989  9402
 WGETWA       60 00000000 FFFFFFE4     J    9000  9022   9051U  9061M  9061   9434   9436   9437
 WIND         64 00000000 FFFFFFE7     J    6794  7543U  8053U  8872   9141U  9737U 10213U 10318U 10427U 10582U 10737U
                                                 11122U 13971  14958U 14985M 14985  15003M 15960U 16158U 16219  16221
                                                 16339U 16511  16530U 16567U 16642  16662  16861U 17187U 17478U 17729U
                                                 17920U 18229U 18390U 19209U 19892U 20093  20222U 20712U 20801  21426
                                                 21551U 21910U 22679U 23107U 23543U 24095U 24288  25099U 25308  25836U
                                                 26493U 27226U 27360U 27863  28085U 30962U 32117U 33062  33203U 33929U
                                                 34047U 34455U 35838U 37175  37304U 37723U 38026U 38274U 38805U 39279U
                                                 39408U 39711U 40560U 40758U 43281
 WINDACT       4 00000014 FFFFFFE7     F    6775  7573   8058M  9338  10741M 15159M 17939  18248  18406  19226  20741
                                                 22695  26498  27389  29146  29205  33209  33422  34559
 WINDELNO      4 0000001C FFFFFFE7     F    6778 10749M 10751M 16547M 17630M 17972  18444  18474  18504  21418M 22300
                                                 25849
 WINDFCOL      2 0000000E FFFFFFE7     H    6770 15203M 15203  17749  17758M 25248  27253  29386  29493  34312  34314
                                                 34316  35074  35514  35516  35518  35900  37467  37470  37601  37603
                                                 37605  38291  39438  41171
 WINDFIX       2 00002CBE 00000001     H   22982 13948  20086  22978
 WINDFLAG      1 00000000 FFFFFFE7     R    6736  6740   6745   6750   6755  15167M
 WINDFLNO      4 00000020 FFFFFFE7     F    6780  7549  16548M 17631M 19245  19372  19379M 20876  20884M 20884  21176M
                                                 21224  21231M 21288  21294  22164  22209  36058
 WINDFROW      2 00000006 FFFFFFE7     H    6765  8059   9261  10494M 15246M 15459M 15969  16356  16536M 16582  16865
                                                 17484  17981  18511  18751  19271  19905  20282  20887  21556  21675
                                                 21915  22232  22328  23117  24120  38629  40770
 WINDGET       2 000006F4 00000001     H    9009  9005
 WINDIND       2 00000010 FFFFFFE7     H    6772 15205M 37426  40975
 WINDLLNO      4 00000024 FFFFFFE7     F    6781 10752M 16549M 17632M 19259  19395  19402M 20877  20885M 21187M 21247
                                                 21254M 21371  21378  22404  36103
 WINDLROW      2 00000008 FFFFFFE7     H    6766  8076   9299  10649M 15460M 15714M 15986  16357  16538  16580M 17191
                                                 17501  17998  18528  18768  19288  19922  20299  20904  21592  21968
                                                 22086  22306  22447  23135  24140  28119  38524  39578  40787
1PAGE     (PAGE2193) (12:50) (15MAR04) Ordinary Symbol and Literal Cross Reference                                          Page  206
 WINDMARG      2 00000012 FFFFFFE7     H    6773 15206M 29492  37486
 WINDMAX#      1 00000006 00000001 A   N    6724  6992   7173  16221  20098
 WINDNEXT      1 00000040 FFFFFFE7     U    6787 16046  16632  16642  16662M 18111  18264  18847  19504  20716  23262
                                                 25851  40594
 WINDNO        2 00000002 FFFFFFE7     H    6761  9160   9861   9893  11126  15158M 16450  16600  23111M 36415
 WINDOFLN      4 00000028 FFFFFFE7     F    6783 18670  18700  18730  25848M
 WINDOLLN      4 0000002C FFFFFFE7     F    6784 18684  18714  18744  25849M
 WINDPUT       2 00000814 00000001     H    9588  9584
 WINDSET       2 00002C80 00000001     H   22872 22868
 WINDSLNO      4 00000018 FFFFFFE7     F    6777  8160M 10748M 10748  15738M 16163M 16546M 17629M 17958  18430  18460
                                                 18490  19485M 20251  20788  20863M 21339M 22063M 22063  23875M 25848
 WINDTABS     16 00000030 FFFFFFE7     X    6786 15789  15965M 29354  29355  37344  37345
 WINDTCNT      2 00000004 FFFFFFE7     H    6763 15730M 16543M 16588M 19901  20512  23260M
 WINDTCOL      2 0000000A FFFFFFE7     H    6767 15196M 17784  25252  25286  27232  29398  29508  30976  31019  33942
                                                 35075  35963  37567  39417  40565  41215
 WINDTLEN      2 0000000C FFFFFFE7     H    6768 17793M 29603  33941  34317  35340  35360  35402  35519  37606  38290
                                                 40592M 41203  41210
 WINFMOD      64 00000000 FFFFFFE7         6745 10242  10242  10352M 10760  10760  15737M 16556M 16595M 17638M 18105M
                                                 19484M 20266  20766  21273  21356  21438M
 WINFREWR    128 00000000 FFFFFFE7         6740 10760  10760  10761M 17799M 25846M 32131  33575
 WINFUNN      32 00000000 FFFFFFE7         6750  9202  10226  10242  10242  10243M 10331  10346M 15190M 17770  29071
                                                 29570  30488  34140  35059  36016  40578
 WINFWRAP     16 00000000 FFFFFFE7         6755 15213M 15235M 29486  37497
 WPUTACT       2 00000BF4 00000001     H   10693 10103
 WPUTBOT       2 00000C88 00000001     H   10937 10133
 WPUTCUR       2 00000CD2 00000001     H   11078 10148
 WPUTERR       2 00000D00 00000001     H   11157 10163
 WPUTFBOT     32 00000000 FFFFFFE3         9478  9886  10901M 11037M
 WPUTFFIX    128 00000000 FFFFFFE3         9468  9918  10493M 10648M
 WPUTFLAG      1 00000000 FFFFFFE3     R    9464  9468   9473   9478
 WPUTFROW      2 00000B64 00000001     H   10383 10073
 WPUTFTOP     64 00000000 FFFFFFE3         9473  9854  10896M 11042M
 WPUTLNO       4 00000004 FFFFFFE3     F    9483  9866   9898  10902M 11043M
 WPUTLROW      2 00000BAC 00000001     H   10538 10088
 WPUTNUM       2 00000B2C 00000001     H   10274 10058
 WPUTPRT       4 00000990 00000001     F   10031 13944
 WPUTSG       60 00000008 FFFFFFE3     X    9572  9680   9964
 WPUTSGCOD
               1 00000008 FFFFFFE3     R    9489  9498   9508   9518   9528   9538   9548   9558
 WPUTSGLENF
               4 00000014 FFFFFFE3     A    9564  9981
 WPUTSGLOC
               4 00000028 FFFFFFE3     A    9568  9976
 WPUTTOP       2 00000C3E 00000001     H   10796 10118
 WPUTUNN       2 00000AF8 00000001     H   10169 10043
 WPUTWA       68 00000000 FFFFFFE3     J    9579  9601   9630U  9634   9644U  9654M  9654  10020  10022  10023  10437U
                                                 10592U 10840U 10981U
 WPUTWNO       2 00000002 FFFFFFE3     H    9482  9860M  9871   9892M  9903
 WTOSG         1 00000000 00000000 A   T    2093  2093
 WYLPAGE       1 00000000 00000001     J     990   992   1017   1030   1043   1055   1068   1081   1094   1107   1120
                                                  1133   2377   2461   6201   6313   6593   6715   6720   6795   6940
                                                  7374
 XPUT          1 00000000 00000038     T   43255 43255
 XSETSET       1 00000000 00000037     T   43254 43254
 YESREQ        1 00000000 00000036     T   43250 43250
 =A($ALTHOME)
               4 000039A4 00000001     A   27834 25881
 =A($BCT)      4 00006468 00000001     A   43274 42807
 =A($CLRFMT)
1PAGE     (PAGE2193) (12:50) (15MAR04) Ordinary Symbol and Literal Cross Reference                                          Page  207
               4 000046F0 00000001     A   33029 27986
 =A($CLRMSG)
               4 00002570 00000001     A   20072 14607
 =A($CLRMSG)
               4 00003984 00000001     A   27826 25538
 =A($CREM)
               4 0000257C 00000001     A   20075 14704
 =A($CS)       4 00003980 00000001     A   27825 25509
 =A($CS)       4 000063E4 00000001     A   43243 39026
 =A($CSI)      4 00002574 00000001     A   20073 14638
 =A($CSI)      4 00004770 00000001     A   33061 31844  32169
 =A($CSVTAM)
               4 00002558 00000001     A   20066 14278
 =A($FEND)
               4 00004704 00000001     A   33034 28224  29887
 =A($FPROT)
               4 00004738 00000001     A   33047 28970  29315  30554  30649
 =A($FPROTS)
               4 0000473C 00000001     A   33048 29085  29616  30115  30387  30502  30681
 =A($FUNPROT)
               4 00004744 00000001     A   33050 29286  30161
 =A($FUNPROT)
               4 00005644 00000001     A   38192 37812
 =A($LCSI)
               4 0000397C 00000001     A   27824 25363  25633
 =A($LCSI)
               4 00004708 00000001     A   33035 28292  29916  32317  32486  32619
 =A($LCSI)
               4 00006464 00000001     A   43273 42758
 =A($SEM)      4 00003994 00000001     A   27830 25749
 =A($SETBOT)
               4 00004760 00000001     A   33057 31032
 =A($SETFBLK)
               4 0000644C 00000001     A   43267 42204
 =A($SETHOME)
               4 00004750 00000001     A   33053 30189
 =A($SETLBLK)
               4 00006450 00000001     A   43268 42253
 =A($SETMSG)
               4 00005658 00000001     A   38197 38118
 =A($SETRULE)
               4 00003988 00000001     A   27827 25567
 =A($SETTAB)
               4 00004748 00000001     A   33051 29423  30217  30283
 =A($SETTOP)
               4 0000475C 00000001     A   33056 30989
 =A($SETTRIG)
               4 0000474C 00000001     A   33052 29531
 =A($SETTROW)
               4 000046FC 00000001     A   33032 28154
 =A($SI)       4 0000645C 00000001     A   43271 42607  43012
 =A($SO)       4 00006458 00000001     A   43270 42539
 =A(BACKFILL)
               4 00002FDC 00000001     A   24279 20804
 =A(CALCCURS)
               4 00003974 00000001     A   27822 25221  25322
 =A(CALCDIM)
               4 0000258C 00000001     A   20079 14942  15742
 =A(CURSCMD)
1PAGE     (PAGE2193) (12:50) (15MAR04) Ordinary Symbol and Literal Cross Reference                                          Page  208
               4 000039F8 00000001     A   27855 27485
 =A(CURSCOL)
               4 000039FC 00000001     A   27856 27509
 =A(CURSTEXT)
               4 000039F4 00000001     A   27854 27461
 =A(DELTEXT)
               4 00005150 00000001     A   37156 33947
 =A(DELTEXT)
               4 0000564C 00000001     A   38194 37919  38102  38142
 =A(DISPTEXT)
               4 00005158 00000001     A   37158 34320  35522  37088
 =A(DISPTEXT)
               4 00005640 00000001     A   38191 37609
 =A(FIELDCS#)
               4 00006444 00000001     A   43265 41580
 =A(FMTCMD)
               4 00004724 00000001     A   33042 28618
 =A(FMTCOL)
               4 0000472C 00000001     A   33044 28666
 =A(FMTDUP)
               4 00004714 00000001     A   33038 28482
 =A(FMTFREE)
               4 0000471C 00000001     A   33040 28556
 =A(FMTLINE)
               4 00004700 00000001     A   33033 28183
 =A(FMTMSG)
               4 00004728 00000001     A   33043 28642
 =A(FMTPAGE)
               4 00003998 00000001     A   27831 25774
 =A(FMTSTAT)
               4 00004730 00000001     A   33045 28690
 =A(FMTTEXT)
               4 00004720 00000001     A   33041 28594
 =A(FMTVTAM)
               4 00004718 00000001     A   33039 28531
 =A(GETFIELD)
               4 000039B8 00000001     A   27839 26408
 =A(GETVIEW)
               4 00002588 00000001     A   20078 14923
 =A(INPBUG)
               4 000039B4 00000001     A   27838 26369
 =A(INPCMD)
               4 000039C4 00000001     A   27842 26561
 =A(INPTEXT)
               4 000039C0 00000001     A   27841 26537
 =A(L'CPCMD)
               4 000063D4 00000001     A   43239 38814  38826
 =A(L'CPVMSG)
               4 00001560 00000001     A   13969 13748
 =A(L'PTABTABS)
               4 00002598 00000001     A   20082 15916
 =A(L'PWAFIELD)
               4 00006448 00000001     A   43266 41941  41953
 =A(LINTMAX#)
               4 000014D8 00000001     A   13949 10465  10620
 =A(LINTMAX#)
               4 00006428 00000001     A   43258 40119  40131
 =A(MARKFILL)
               4 00002FEC 00000001     A   24283 21454
1PAGE     (PAGE2193) (12:50) (15MAR04) Ordinary Symbol and Literal Cross Reference                                          Page  209
 =A(NEWFILL)
               4 00002FE8 00000001     A   24282 21429
 =A(OUTCMD)
               4 00005140 00000001     A   37152 33747
 =A(OUTCOL)
               4 0000513C 00000001     A   37151 33723
 =A(OUTFREE)
               4 00005130 00000001     A   37148 33651  34074
 =A(OUTLINE)
               4 00004758 00000001     A   33055 30888  32528  32661
 =A(OUTMSG)
               4 00005144 00000001     A   37153 33771
 =A(OUTNEW)
               4 00005134 00000001     A   37149 33675
 =A(OUTPAGE)
               4 0000399C 00000001     A   27832 25781
 =A(OUTSCRL)
               4 00004754 00000001     A   33054 30838
 =A(OUTSTAT)
               4 00005148 00000001     A   37154 33795
 =A(OUTTEXT)
               4 00005138 00000001     A   37150 33699
 =A(PAGEBOT)
               4 000014D0 00000001     A   13947  9901
 =A(PAGECLR)
               4 000006C0 00000001     A    8865  8114
 =A(PAGECLR)
               4 0000259C 00000001     A   20083 16143  16809  17135
 =A(PAGECNT)
               4 00002590 00000001     A   20080 15728  16541  16586
 =A(PAGECNT)
               4 00002FFC 00000001     A   24287 23441
 =A(PAGECNT)
               4 0000640C 00000001     A   43251 39581
 =A(PAGECOLS)
               4 00003978 00000001     A   27823 25311
 =A(PAGEFILL)
               4 000025A0 00000001     A   20084 16175  17038  17364
 =A(PAGEFILL)
               4 00002FC0 00000001     A   24272 20275  23878
 =A(PAGEFILL)
               4 00003968 00000001     A   27819 25082
 =A(PAGEFIND)
               4 00004764 00000001     A   33058 31361
 =A(PAGEINIT)
               4 000006B8 00000001     A    8863  8032
 =A(PAGEINIT)
               4 00001550 00000001     A   13965 13528
 =A(PAGEINIT)
               4 000025AC 00000001     A   20087 17454
 =A(PAGEMAKE)
               4 00002FD4 00000001     A   24277 20533
 =A(PAGEMOD)
               4 00001558 00000001     A   13967 13559
 =A(PAGERES)
               4 0000155C 00000001     A   13968 13575
 =A(PAGERES)
               4 00003A0C 00000001     A   27860 27740
 =A(PAGESCRL)
1PAGE     (PAGE2193) (12:50) (15MAR04) Ordinary Symbol and Literal Cross Reference                                          Page  210
               4 00006414 00000001     A   43253 39603
 =A(PAGETABS)
               4 00002594 00000001     A   20081 15747
 =A(PAGETOP)
               4 000014CC 00000001     A   13946  9869
 =A(RPUTPRT)
               4 00001504 00000001     A   13960 12157
 =A(SCANINT)
               4 000006D0 00000001     A    8869  8164   8176
 =A(SCANLNO)
               4 000006CC 00000001     A    8868  8147   8170
 =A(SCRLRGN)
               4 00004768 00000001     A   33059 31603  31788
 =A(SINTPRT)
               4 000006D8 00000001     A    8871  8617
 =A(SLNOPRT)
               4 000006D4 00000001     A    8870  8324
 =A(VPUTLINE)
               4 000063CC 00000001     A   43237 38421  38460  38581  38686  39496
 =A(WINDFIX)
               4 000014D4 00000001     A   13948  9927
 =A(WINDFIX)
               4 000025A8 00000001     A   20086 16674
 =A(WPUTPRT)
               4 000014C4 00000001     A   13944  9783
 =A(X'273B')
               4 00006400 00000001     A   43248 39117
 =A(1)         4 00002FE0 00000001     A   24280 20858  21190  21334
 =A(1)         4 00003948 00000001     A   27813 24783  26169  26303
 =A(1)         4 0000476C 00000001     A   33060 31739
 =A(1)         4 00005164 00000001     A   37161 34845  34857  36333
 =A(1)         4 00006410 00000001     A   43252 39594
 =A(10)        4 00006424 00000001     A   43257 40100  40112
 =A(101)       4 000039B0 00000001     A   27837 26138  26283
 =A(11)        4 00005194 00000001     A   37171 36702
 =A(128)       4 000039CC 00000001     A   27844 26703
 =A(145)       4 000039D8 00000001     A   27847 26814
 =A(159)       4 000039DC 00000001     A   27848 26828
 =A(2)         4 000025A4 00000001     A   20085 16372
 =A(20)        4 0000642C 00000001     A   43259 40269  40281  40403  40415
 =A(200)       4 000039E0 00000001     A   27849 26869
 =A(200)       4 00006434 00000001     A   43261 40442  40454  40493  40505
 =A(235)       4 00005160 00000001     A   37160 34789  34801
 =A(255)       4 00006430 00000001     A   43260 40288  40300  40422  40434
 =A(256)       4 0000643C 00000001     A   43263 41387  41399
 =A(32)        4 000039D0 00000001     A   27845 26723
 =A(6)         4 00006460 00000001     A   43272 42744
 =A(96)        4 000039D4 00000001     A   27846 26748
 =AL2(L'LINT)
               2 000006DE 00000001     R    8873  7043   7069   7215   8061
 =AL2(L'LINT)
               2 0000159A 00000001     R   13980 11458  12099
 =AL2(L'LINT)
               2 000025C6 00000001     R   20095 15539  15603  15652  15702  15971  16422  16866  17192  17323  17486
                                                 17983  18513  18753  19273  19907
 =AL2(L'LINT)
               2 00003002 00000001     R   24289 20284  20889  21558  21662  21917  22217  22308  22374  23119  23505
                                                 23783  23989  24035  24150
 =AL2(L'LINT)
1PAGE     (PAGE2193) (12:50) (15MAR04) Ordinary Symbol and Literal Cross Reference                                          Page  211
               2 00003A16 00000001     R   27864 26236  26446  27152  27318
 =AL2(L'LINT)
               2 0000477C 00000001     R   33066 31424  31652  31773  31801  32056  32456  32589  32664  32716  32832
                                                 32968
 =AL2(L'LINT)
               2 0000646C 00000001     R   43275 38614  40772  40992
 =AL2(L'WIND)
               2 000006DC 00000001     R    8872  6993   7019   7174   7532   8042
 =AL2(L'WIND)
               2 00001568 00000001     R   13971  9130   9726
 =AL2(L'WIND)
               2 000025C2 00000001     R   20093 15001  16147  16328  16612  16850  17176  17467  19881
 =AL2(L'WIND)
               2 00003000 00000001     R   24288 20211  22668  23532  24086
 =AL2(L'WIND)
               2 00003A14 00000001     R   27863 25088  26482  27215  27349
 =AL2(L'WIND)
               2 00004774 00000001     R   33062 28076  30951  32106
 =AL2(L'WIND)
               2 000051A4 00000001     R   37175 33192
 =AL2(L'WIND)
               2 00006478 00000001     R   43281 40747
 =AL2(WINDMAX#)
               2 000025D8 00000001     R   20098 16406
 =AL2(1)       2 00004776 00000001     R   33063 28102  30669
 =AL2(2)       2 00003004 00000001     R   24290 20512
 =AL4(-1)      4 000025BC 00000001     R   20091 19667
 =AL4(-1)      4 00002FBC 00000001     R   24271 20251  21648
 =AL4(-1)      4 00003970 00000001     R   27821 25149
 =AL4(-1)      4 00005120 00000001     R   37144 33377  34066
 =AL4(-1000)
               4 000025B8 00000001     R   20090 19615
 =AL4(-1000)
               4 0000396C 00000001     R   27820 25119
 =AL4(1)       4 000063D0 00000001     R   43238 38475
 =C'  New.   '
               9 000051C4 00000001     C   37183 34157
 =C' .#'       3 00003A69 00000001     C   27880 26857
 =C' (Changed)'
              10 000051A6 00000001     C   37176 36224
 =C' (Cols='
               7 000051CF 00000001     C   37186 35910
 =C' (Formatted)'
              12 00005180 00000001     C   37168 36261
 =C' (Lines='
               8 00005110 00000001     C   37141 36044
 =C' (Marked)'
               9 000051D8 00000001     C   37189 36186
 =C' '         1 000051CD 00000001     C   37184 34174  34278  35302  36283
 =C' chars):'
               8 000063B0 00000001     C   43233 39089
 =C' lines'
               6 000051B0 00000001     C   37177 36320
 =C' messages'
               9 00003A40 00000001     C   27873 24813
 =C' on '      4 000051A0 00000001     C   37174 36909
 =C' ACTIVE='
               8 00001478 00000001     C   13936  9320
 =C' From '
1PAGE     (PAGE2193) (12:50) (15MAR04) Ordinary Symbol and Literal Cross Reference                                          Page  212
               6 000051B8 00000001     C   37179 36656
 =C' FROW='
               6 00001574 00000001     C   13973  9244
 =C' LINE='
               6 0000159C 00000001     C   13981 11707
 =C' LROW='
               6 0000157A 00000001     C   13974  9282
 =C' WINDOW='
               8 00001480 00000001     C   13937 11654
 =C'...'       3 000051E2 00000001     C   37191 37022
 =C'.( '       3 00003A6F 00000001     C   27882 26959
 =C'.+ '       3 00003A83 00000001     C   27886 27005
 =C'.) '       3 00003A79 00000001     C   27884 26982
 =C'.- '       3 00003A8D 00000001     C   27888 27028
 =C'.COLMORE'
               8 000063C0 00000001     C   43235 39530
 =C'.FBLOCK'
               7 00003A72 00000001     C   27883 26966
 =C'.INSERT'
               7 00006480 00000001     C   43285 39555
 =C'.LBLOCK'
               7 00003A7C 00000001     C   27885 26989
 =C'.PF'       3 00003A6C 00000001     C   27881 26876
 =C'.REMARK'
               7 00003A86 00000001     C   27887 27012
 =C'.UNMARK'
               7 00003A90 00000001     C   27889 27035
 =C'.W+ '      4 000039E8 00000001     C   27851 27051
 =C'.W- '      4 000039EC 00000001     C   27852 27074
 =C'.W/ '      4 000039F0 00000001     C   27853 27097
 =C'.W'        2 00003A1E 00000001     C   27868 26837
 =C'.WMINUS'
               7 00003A97 00000001     C   27890 27081
 =C'.WPLUS'
               6 00003A22 00000001     C   27870 27058
 =C'.WSLASH'
               7 00003A9E 00000001     C   27891 27104
 =C'<.normal>'
               9 000025E3 00000001     C   20100 14568
 =C'<>+-/0123456789'
              15 00003A5A 00000001     C   27879 26834
 =C'+'         1 000051CE 00000001     C   37185 34194
 =C'!'         1 00004780 00000001     C   33069 29640
 =C') is not supported in page mode.'
              32 00001490 00000001     C   13939 13399
 =C')'         1 000051D7 00000001     C   37188 35988  36134
 =C';'         1 00003A49 00000001     C   27874 25408  25447  25690
 =C';'         1 0000477E 00000001     C   33067 28337  29961  32214
 =C'-1'        2 000006E0 00000001     C    8874  7502   7582
 =C'/'         1 000051D6 00000001     C   37187 35948  36089
 =C','         1 000006EB 00000001     C    8878  7684   7722   7767
 =C'#'         1 000051E1 00000001     C   37190 36843
 =C'=>'        2 000051B6 00000001     C   37178 36401
 =C'a message'
               9 00003A37 00000001     C   27872 24770
 =C'command.'
               8 00001488 00000001     C   13938 13319
 =C'i'         1 00003A4A 00000001     C   27875 25486
 =C'r'         1 000025EC 00000001     C   20101 14662
1PAGE     (PAGE2193) (12:50) (15MAR04) Ordinary Symbol and Literal Cross Reference                                          Page  213
 =C'r'         1 00004781 00000001     C   33070 31868  32253
 =C'the VIEW command.'
              17 0000161F 00000001     C   13987 13164
 =C'waiting.'
               8 00003920 00000001     C   27804 24847
 =C'z'         1 0000477F 00000001     C   33068 28376  30001
 =C'Command ("." means ESC):  '
              26 0000565C 00000001     C   38198 37773
 =C'Command:   '
              11 00005678 00000001     C   38200 37754  37852
 =C'Command: '
               9 000025DA 00000001     C   20099 14418
 =C'Consoles can not use the VIEW command.'
              38 000015D4 00000001     C   13983 13236
 =C'Continue'
               8 000063B8 00000001     C   43234 39150
 =C'COLLECT'
               7 00003A53 00000001     C   27878 26782
 =C'CURRENT '
               8 00001468 00000001     C   13934  9170
 =C'D'         1 00004782 00000001     C   33071 32362  32643
 =C'ERR '      4 000014E0 00000001     C   13951 11478
 =C'ERROR'
               5 0000160F 00000001     C   13985  9815  12189
 =C'Input text ('
              12 000063EC 00000001     C   43245 39050
 =C'INVALID ROW NUMBER'
              18 00001588 00000001     C   13979 11417  12062
 =C'INVALID WINDOW NUMBER'
              21 000015FA 00000001     C   13984  9089   9688
 =C'INVALID WINDOW'
              14 000025CA 00000001     C   20097 16321
 =C'Note: You have '
              15 00003A28 00000001     C   27871 24754
 =C'NOT DEFINED'
              11 00001614 00000001     C   13986 11435
 =C'NOT OPEN'
               8 00001460 00000001     C   13933  9107
 =C'NUMBERED'
               8 00001470 00000001     C   13935  9191
 =C'OK'        2 00001582 00000001     C   13976  9835  12209
 =C'SES.VIEW_MSG'
              12 00003958 00000001     C   27817 25063
 =C'Terminal type is not supported.'
              31 00003AA5 00000001     C   27892 27746
 =C'The type of terminal you are using ('
              36 0000150C 00000001     C   13962 13353
 =C'This type of terminal controller does not support '
              50 000015A2 00000001     C   13982 13146
 =C'Type ? for more information.'
              28 00001534 00000001     C   13964 13423
 =C'Type HELP DIAL-UP for more information.'
              39 00001630 00000001     C   13988 13182
 =C'TOO MANY WINDOWS'
              16 00002530 00000001     C   20062 16414
 =C'U'         1 00004783 00000001     C   33072 32381  32510
 =C'UNNUMBERED'
              10 0000156A 00000001     C   13972  9211
 =C'Virtual terminals can not use the VIEW command.'
1PAGE     (PAGE2193) (12:50) (15MAR04) Ordinary Symbol and Literal Cross Reference                                          Page  214
              47 00001657 00000001     C   13989 13209
 =C'VIEW=-1'
               7 000006EC 00000001     C    8879  7947
 =C'VIEW='
               5 000006E6 00000001     C    8877  7470
 =C'WINDOW ROW ERROR'
              16 00002540 00000001     C   20063 16458
 =C'WINDOW TOO SMALL'
              16 00002520 00000001     C   20061 16381
 =C'WYL.'      4 00005198 00000001     C   37172 36715
 =C'You must first issue the "SET TERMINAL type" '
              45 00001686 00000001     C   13990 13301
 =C'11'        2 00006476 00000001     C   43280 40479
 =CL4'CMD '
               4 000014F4 00000001     C   13956 11580
 =CL4'COL '
               4 000014F0 00000001     C   13955 11559
 =CL4'FREE'
               4 000014E4 00000001     C   13952 11496
 =CL4'MSG '
               4 000014F8 00000001     C   13957 11601
 =CL4'NEW '
               4 000014E8 00000001     C   13953 11517
 =CL4'STAT'
               4 000014FC 00000001     C   13958 11622
 =CL4'TEXT'
               4 000014EC 00000001     C   13954 11538
 =CL8'BADTERM'
               8 000014B0 00000001     C   13940 13420
 =F'-1'        4 000006C8 00000001     F    8867  8131   8353   8529   8646   8823
 =F'-1'        4 000014DC 00000001     F   13950 10750
 =F'-1'        4 00002584 00000001     F   20077 14905  15738  16545  17628  19485
 =F'-1'        4 00002FC8 00000001     F   24274 20385  21066  21100  21576  21775  22022  22266  22426  22505  23875
 =F'-1'        4 0000392C 00000001     F   27806 24510  27112
 =F'-1'        4 00005124 00000001     F   37145 33384
 =F'-1000'
               4 000006C4 00000001     F    8866  8130
 =F'-1000'
               4 00002580 00000001     F   20076 14904
 =F'-1000'
               4 00002FC4 00000001     F   24273 20384
 =F'-1000'
               4 00003928 00000001     F   27805 24509  27278
 =F'-2'        4 000006BC 00000001     F    8864  8095
 =F'-2'        4 000025B4 00000001     F   20089 18820
 =F'-2'        4 0000511C 00000001     F   37143 33348
 =F'-4'        4 000063DC 00000001     F   43241 38984
 =F'12'        4 00003930 00000001     F   27807 24525
 =H'-1'        2 0000647E 00000001     H   43284 41898
 =H'-2'        2 00006472 00000001     H   43278 39600
 =H'-4'        2 0000647A 00000001     H   43282 40935
 =H'1'         2 000025C4 00000001     H   20094 15141  15158  15717  15718
 =H'1'         2 0000477A 00000001     H   33065 30843
 =H'11'        2 000025C8 00000001     H   20096 15881
 =H'11'        2 000051BE 00000001     H   37180 36776
 =H'145'       2 00003A1C 00000001     H   27867 26835
 =H'2'         2 0000647C 00000001     H   43283 41504
 =H'200'       2 00003A20 00000001     H   27869 26875
 =H'25'        2 00005676 00000001     H   38199 38088
1PAGE     (PAGE2193) (12:50) (15MAR04) Ordinary Symbol and Literal Cross Reference                                          Page  215
 =H'3'         2 000051C2 00000001     H   37182 37006
 =H'32'        2 00003A1A 00000001     H   27866 26756
 =H'7'         2 00006470 00000001     H   43277 39554
 =H'8'         2 00003A18 00000001     H   27865 26689
 =H'8'         2 0000646E 00000001     H   43276 39529
 =V(ACTGINFO)
               4 00004740 00000001     V   33049 29208
 =V(ACTPICK)
               4 00002FD8 00000001     V   24278 20744  21460
 =V(ACTPICK)
               4 000039BC 00000001     V   27840 26501  26571  27410
 =V(ACTPICK)
               4 00005118 00000001     V   37142 33212  33824
 =V(ADDER)
               4 00002FF8 00000001     V   24286 22412
 =V(BTD)       4 000039E4 00000001     V   27850 26898
 =V(CHKTTYPE)
               4 00003934 00000001     V   27808 24611
 =V(CVEXNO)
               4 000006A8 00000001     V    8859  7605   7739
 =V(CVEXNO)
               4 00001500 00000001     V   13959 11724
 =V(CVEXNO)
               4 00005170 00000001     V   37164 35068  36061  36106
 =V(DTB)       4 00006440 00000001     V   43264 41566
 =V(EDTCOM)
               4 00003A08 00000001     V   27859 27729
 =V(ESCFMT)
               4 00006404 00000001     V   43249 39120
 =V(EVALSTR)
               4 00003964 00000001     V   27818 25067
 =V(FREECORE)
               4 0000069C 00000001     V    8856  7191   7232
 =V(GETCORE)
               4 00000698 00000001     V    8855  7015   7065
 =V(GETHCMD)
               4 00002568 00000001     V   20070 14395
 =V(GETLINE)
               4 00002FB8 00000001     V   24270 20231
 =V(GETLINE)
               4 0000515C 00000001     V   37159 34466
 =V(GETLINE)
               4 000063C8 00000001     V   43236 38287  39879  41068  41102
 =V(GETLNO)
               4 00002FE4 00000001     V   24281 21081  21381
 =V(GTMIXTBL)
               4 00005174 00000001     V   37165 35355  35399
 =V(INITCMD)
               4 00001554 00000001     V   13966 13539
 =V(LOWMULT)
               4 00002FF4 00000001     V   24285 22408
 =V(LRTRIM)
               4 00005650 00000001     V   38195 38054
 =V(MATLINE)
               4 00002FCC 00000001     V   24275 20412
 =V(MATLINE)
               4 0000516C 00000001     V   37163 35023
 =V(NSCAN)
               4 000006B0 00000001     V    8861  7996   8328   8621
1PAGE     (PAGE2193) (12:50) (15MAR04) Ordinary Symbol and Literal Cross Reference                                          Page  216
 =V(NSCAN)
               4 000014C8 00000001     V   13945  9787  12161
 =V(PAGEINIT)
               4 000025B0 00000001     V   20088 18256
 =V(PREVLNO)
               4 00002FD0 00000001     V   24276 20520  20524  20821  21297  21756
 =V(PREVLNO)
               4 00006438 00000001     V   43262 41096
 =V(PUTLINE)
               4 00006420 00000001     V   43256 39927
 =V(RETFMEM)
               4 0000519C 00000001     V   37173 36821
 =V(RETFNAME)
               4 00005190 00000001     V   37170 36687
 =V(RTRIM)
               4 00003A04 00000001     V   27858 27688
 =V(RTRIM)
               4 00005648 00000001     V   38193 37889
 =V(RTRIM)
               4 000063D8 00000001     V   43240 38886
 =V(SCANCHK)
               4 000006B4 00000001     V    8862  8010
 =V(SEG)       4 000006A4 00000001     V    8858  7482   7514   7632   7696   7734   7762   7779
 =V(SEG)       4 000014BC 00000001     V   13942  9182   9238   9256   9294   9332   9393   9967  11648  11666  11719
                                                 11747  11791  12246  13158  13313  13365
 =V(SEG)       4 0000255C 00000001     V   20067 14296  14430  14580  14625  14656  14674  14722
 =V(SEG)       4 00003944 00000001     V   27812 24766  24859  25381  25420  25459  25498  25527  25556  25585  25651
                                                 25702  25767  25899  25964
 =V(SEG)       4 000046F4 00000001     V   33030 28004  28172  28242  28310  28349  28388  28988  29103  29349  29441
                                                 29549  29634  29652  29905  29934  29973  30013  30133  30179  30207
                                                 30235  30301  30405  30520  30572  30715  31007  31050  31862  31880
                                                 32187  32226  32265  32335  32409  32504  32522  32637  32655
 =V(SEG)       4 00005154 00000001     V   37157 34169  34222  34290  35246  35314  35922  35960  36000  36056  36084
                                                 36101  36129  36146  36198  36236  36273  36295  36367  36463  36516
                                                 36543  36589  36668  36802  36855  36881  36921  36948
 =V(SEG)       4 0000563C 00000001     V   38190 37595  37802  37830  37864  37914  38136
 =V(SEG)       4 000063E8 00000001     V   43244 39044  39062  42222  42271  42557  42625  42776  42825  42868  42947
                                                 43030  43149  43199
 =V(SEGB)      4 00003950 00000001     V   27815 24841
 =V(SEGB)      4 00005654 00000001     V   38196 38082
 =V(SEGCLR)
               4 00001564 00000001     V   13970 13897
 =V(SEGCLR)
               4 0000393C 00000001     V   27810 24698  24915
 =V(SEGCLR)
               4 000063E0 00000001     V   43242 39016
 =V(SEGCR)
               4 00001508 00000001     V   13961 13176  13331  13411
 =V(SEGCR)
               4 000063FC 00000001     V   43247 39101  39145
 =V(SEGDC)
               4 000006AC 00000001     V    8860  7717   7800
 =V(SEGDC)
               4 000014C0 00000001     V   13943  9276   9314   9353  11686
 =V(SEGDC)
               4 0000394C 00000001     V   27814 24809  25402  25441  25480  25684  25739
 =V(SEGDC)
               4 0000470C 00000001     V   33036 28331  28370  29955  29995  32208  32247  32358
 =V(SEGDC)
1PAGE     (PAGE2193) (12:50) (15MAR04) Ordinary Symbol and Literal Cross Reference                                          Page  217
               4 0000517C 00000001     V   37167 35943  35983  36316  36487
 =V(SEGDC)
               4 000063F8 00000001     V   43246 39083  42797  43171
 =V(SEGINIT)
               4 000006A0 00000001     V    8857  7451
 =V(SEGINIT)
               4 000014B8 00000001     V   13941  9084   9683  11412  12057
 =V(SEGINIT)
               4 00002550 00000001     V   20064 14233  14544
 =V(SEGINIT)
               4 00003954 00000001     V   27816 25052
 =V(SEGINIT)
               4 00005178 00000001     V   37166 35889  36397
 =V(SEGMARK)
               4 00002560 00000001     V   20068 14310  14594  14736
 =V(SEGMARK)
               4 00003990 00000001     V   27829 25606
 =V(SEGMARK)
               4 00004710 00000001     V   33037 28477
 =V(SEGMARK)
               4 00005128 00000001     V   37146 33605  33814
 =V(SEGT)      4 00001530 00000001     V   13963 13393
 =V(SEGT)      4 0000256C 00000001     V   20071 14457
 =V(SEGT)      4 0000518C 00000001     V   37169 36617
 =V(SEGWR)
               4 00002564 00000001     V   20069 14335  14482  14761
 =V(SELDELTA)
               4 00002FF0 00000001     V   24284 22199
 =V(SETTTYPE)
               4 00003938 00000001     V   27809 24616
 =V(SPELLINE)
               4 00005168 00000001     V   37162 34975
 =V(TCURS)
               4 00002578 00000001     V   20074 14694
 =V(TCURS)
               4 000039A0 00000001     V   27833 25871  25926
 =V(TCURS)
               4 000046F8 00000001     V   33031 28144  28214  28510  29120  29413  29521  29606  29877  30150  30273
                                                 30537  30979  31022
 =V(TCURS)
               4 0000512C 00000001     V   37147 33622  34256  35280
 =V(TREAD)
               4 000039AC 00000001     V   27836 26016
 =V(TREND)
               4 00002554 00000001     V   20065 14268  14561
 =V(TREND)
               4 0000398C 00000001     V   27828 25592
 =V(TREND)
               4 00004734 00000001     V   33046 28891
 =V(TREND)
               4 0000514C 00000001     V   37155 33939  34151  34308  35193  35332
 =V(TREND)
               4 00005638 00000001     V   38189 37564  37733  38036
 =V(TREND)
               4 00006454 00000001     V   43269 42357  42381  42409  42437  42465  42493
 =V(UPDCPSIB)
               4 00003940 00000001     V   27811 24728
 =V(VIEWCMD)
               4 00003A00 00000001     V   27857 27558
1PAGE     (PAGE2193) (12:50) (15MAR04) Ordinary Symbol and Literal Cross Reference                                          Page  218
 =V(VIEWPF)
               4 000039C8 00000001     V   27843 26647
 =V(VIEWTRC)
               4 000039A8 00000001     V   27835 25998  26336
 =V(XPUT)      4 0000641C 00000001     V   43255 39914
 =V(XSETSET)
               4 00006418 00000001     V   43254 39897
 =V(YESREQ)
               4 00006408 00000001     V   43250 39154
 =X'2F'        1 00003A4B 00000001     X   27876 25952
 =X'27AD4CF1F3F0E5'
               7 00003A4C 00000001     X   27877 26196
 =Y((L'AINFO+3)/4*4)
               2 00004778 00000001     Y   33064 29247
 =Y((L'CPSEG+1024+3)/4*4)
               2 00003A12 00000001     Y   27862 25073
 =Y((L'NSCNCB+3)/4*4)
               2 000006E4 00000001     Y    8876  8228
 =Y((L'NSCNCB+3)/4*4)
               2 00001586 00000001     Y   13978  9989  12268
 =Y((R1+1-(R0)+16*((R0)/(R1+1))/((R0)/(R1+1)))*4)
               2 00001584 00000001     Y   13977  9934
 =Y((R1+1-(R0)+16*((R0)/(R1+1))/((R0)/(R1+1)))*4)
               2 000025C0 00000001     Y   20092 14433
 =Y((R1+1-(R0)+16*((R0)/(R1+1))/((R0)/(R1+1)))*4)
               2 000051C0 00000001     Y   37181 36858
 =Y((R1+1-(R14)+16*((R14)/(R1+1))/((R14)/(R1+1)))*4)
               2 00003A10 00000001     Y   27861 25055
 =Y((12+3)/4*4)
               2 000006E2 00000001     Y    8875  8002   8334   8627
 =Y((12+3)/4*4)
               2 00001580 00000001     Y   13975  9793  12167
 =Y(4)         2 00006474 00000001     Y   43279 40461

1PAGE     (PAGE2193) (12:50) (15MAR04) Macro and Copy Code Source Summary                                                   Page  219
- Con Source                                        Volume    Members                        HLASM R4.0  2004/03/15 12.50
0     PRIMARY INPUT                                           CSECT    DROP     END      EX       FREECURS FREELINT
                                                              LTORG    POP      PRINT    PUSH     START    USING
   L1 WYL.GS.WYL.WYLBUR.MACLIB                      SYSB05    ABORT    AINFO    BASE     BOMB     BTD      COLINFO
                                                              COMMENT  CONTROL  CP       CPLOCAL  CURS     CV
                                                              CVLOCAL  DTB      FAIL     JCB      KAPUT    LINT     RG
                                                              SCAN     SCANCB   SCANCHK  SCCBADR  SCINIT   SCKW
                                                              SCPOP    SCPUSH   SEGINIT  TCLEAR   TCR      TCURS
                                                              TMARK    TNUM     TPOP     TPUSH    TREAD    TREND    TSEG
                                                              TTYPE    TWRITE   VLTORG   WIND     XTRACE
   L2 WYL.GG.SYS.MACLIB                             SYSB05    $BC      $BFLKUP  $BV      $CCLKUP  $CRS     $CSS     $L
                                                              $LA      $LBLAD   $LEXP    $LOR     $REL     $RGLKUP
                                                              $USLKUP  ACALL    BEGIN    CEIL     CLEAR    COMPROC
                                                              CSECT    DATA     DECR     DEFCC    DEX      DROP     DTEX
                                                              ELSE     ELSEIF   END      EX       EXIT     FLAG
                                                              FLOOR    GEN      HIBAL    IDENT    IF       INCR
                                                              LABEL    LC       LOOP     LS       LT       LTH
                                                              LTORG    MOVE     MOVEL    PEND     POP      PRETURN
                                                              PRINT    PROC     PUSH     QLTORG   RECORD   REG      REGS
                                                              SET      SETMSG   START    UNTIL    USING    VCALL
                                                              WHILE    WITH     XPROC    ZOT
   L3 SYS3.IS.MACLIB                                SYSB05    SEG      SEGCB    SEGCLR   SEGCR    SEGDC    SEGLD
                                                              SEGMARK  SEGT     SEGWR    SIB      SYSDEFN  XPOP
                                                              XPUSH

1PAGE     (PAGE2193) (12:50) (15MAR04) Dsect Cross Reference                                                                Page  220
-Dsect     Length      Id       Defn                                                         HLASM R4.0  2004/03/15 12.50
0$$$@R0   00000000  FFFFFFFE     705
 $$$@R1   00000000  FFFFFFFD     718
 $$$@R10  00000000  FFFFFFF4     835
 $$$@R11  00000000  FFFFFFF3     848
 $$$@R12  00000000  FFFFFFF2     861
 $$$@R13  00000000  FFFFFFF1     874
 $$$@R14  00000000  FFFFFFF0     887
 $$$@R15  00000000  FFFFFFEF     900
 $$$@R2   00000000  FFFFFFFC     731
 $$$@R3   00000000  FFFFFFFB     744
 $$$@R4   00000000  FFFFFFFA     757
 $$$@R5   00000000  FFFFFFF9     770
 $$$@R6   00000000  FFFFFFF8     783
 $$$@R7   00000000  FFFFFFF7     796
 $$$@R8   00000000  FFFFFFF6     809
 $$$@R9   00000000  FFFFFFF5     822
 $$$RAINFO
          000001A8  FFFFFFE8    6598
 $$$RCALCWA
          000000F7  FFFFFFD2   40654
 $$$RCP   00001000  FFFFFFEC    2466
 $$$RCV   00000FB0  FFFFFFEE    1191
 $$$RDEV  0000000C  FFFFFFEB    4680
 $$$RDISPWA
          00000114  FFFFFFD0   42058
 $$$RFIELDWA
          00000034  FFFFFFD1   41263
 $$$RGINFWA
          0000003C  FFFFFFE5    7273
 $$$RJCB  000000D0  FFFFFFE9    6318
 $$$RLINT 00000014  FFFFFFE6    6803
 $$$RLWA  000000F7  FFFFFFDD   20121
 $$$RNEWWWA
          000001C0  FFFFFFDE   16213
 $$$RNSCNCB
          000000B0  FFFFFFED    2387
 $$$ROLINWA
          00000004  FFFFFFD7   33090
 $$$ROUTCWA
          0000000A  FFFFFFD4   37200
 $$$ROUTSWA
          00000054  FFFFFFD9   31090
 $$$ROUTTWA
          000000F9  FFFFFFD6   34366
 $$$ROUTZWA
          000000C8  FFFFFFD5   35564
 $$$RPAGSWA
          0000028C  FFFFFFDB   23312
 $$$RPFA  00000018  FFFFFFDC   20585
 $$$RPRESWA
          0000008A  FFFFFFE0   14004
 $$$RPTABWA
          00000010  FFFFFFDF   15783
 $$$RPWA  000004F3  FFFFFFDA   24299
 $$$RRGETWA
1PAGE     (PAGE2193) (12:50) (15MAR04) Dsect Cross Reference                                                                Page  221
          0000003C  FFFFFFE2   11228
 $$$RRPUTWA
          0000003C  FFFFFFE1   11853
 $$$RSCRLWA
          00000008  FFFFFFD8   31928
 $$$RTTYPE
          0000010C  FFFFFFEA    6211
 $$$RVPUTWA
          0000010C  FFFFFFD3   39776
 $$$RWGETWA
          0000003C  FFFFFFE4    8900
 $$$RWIND 00000040  FFFFFFE7    6728
 $$$RWPUTWA
          00000044  FFFFFFE3    9456
 HIBAL    00000000  FFFFFFFF     691

1PAGE     (PAGE2193) (12:50) (15MAR04) Using Map                                                                            Page  222
-                                                                                            HLASM R4.0  2004/03/15 12.50
   Stmt  -----Location----- Action ----------------Using----------------- Reg Max    Last  Label and Using Text
           Count      Id           Type          Value    Range     Id        Disp   Stmt
0   922  00000000  FFFFFFFF USING  ORDINARY    00000000 00001000 FFFFFFEF  15 000   15003  @R15,15
    926  00000000  FFFFFFFF USING  ORDINARY    00000000 00001000 FFFFFFF0  14 024   35431  @R14,14
    930  00000000  FFFFFFFF USING  ORDINARY    00000000 00001000 FFFFFFF1  13 000   25074  @R13,13
    934  00000000  FFFFFFFF USING  ORDINARY    00000000 00001000 FFFFFFF2  12 000          @R12,12
    938  00000000  FFFFFFFF USING  ORDINARY    00000000 00001000 FFFFFFF3  11 000          @R11,11
    942  00000000  FFFFFFFF USING  ORDINARY    00000000 00001000 FFFFFFF4  10 000          @R10,10
    946  00000000  FFFFFFFF USING  ORDINARY    00000000 00001000 FFFFFFF5   9 000          @R9,9
    950  00000000  FFFFFFFF USING  ORDINARY    00000000 00001000 FFFFFFF6   8 000          @R8,8
    954  00000000  FFFFFFFF USING  ORDINARY    00000000 00001000 FFFFFFF7   7 000          @R7,7
    958  00000000  FFFFFFFF USING  ORDINARY    00000000 00001000 FFFFFFF8   6 000          @R6,6
    962  00000000  FFFFFFFF USING  ORDINARY    00000000 00001000 FFFFFFF9   5 000          @R5,5
    966  00000000  FFFFFFFF USING  ORDINARY    00000000 00001000 FFFFFFFA   4 001    8098  @R4,4
    970  00000000  FFFFFFFF USING  ORDINARY    00000000 00001000 FFFFFFFB   3 001   16034  @R3,3
    974  00000000  FFFFFFFF USING  ORDINARY    00000000 00001000 FFFFFFFC   2 001   25249  @R2,2
    978  00000000  FFFFFFFF USING  ORDINARY    00000000 00001000 FFFFFFFD   1 00A   25302  @R1,1
    982  00000000  FFFFFFFF USING  ORDINARY    00000000 00001000 FFFFFFFE   0 000          @R0,0
    983  00000000  FFFFFFFF DROP                                            0              0
   1175  00000017  00000001 USING  ORDINARY    00000000 00001000 FFFFFFEC  11 D5A   43196  CP,CPR
   1184  00000017  00000001 USING  ORDINARY    00000000 00001000 FFFFFFEE  12 CEC   43090  CV,CVR
   6980  00000032  00000001 USING  ORDINARY    00000032 00001000 00000001   7 6AC    7069  $$$50B,7
   7095  00000092  00000001 USING  ORDINARY    00000000 00001000 FFFFFFF7   7 000          @R7,7
   7148  000000BA  00000001 USING  ORDINARY    000000BA 00001000 00000001   7 624    7232  $$$55B,7
   7244  0000010A  00000001 USING  ORDINARY    00000000 00001000 FFFFFFF7   7 000          @R7,7
   7410  00000132  00000001 USING  ORDINARY    00000132 00001000 00000001   7 5B9    7800  $$$68B,7
   7424  00000132  00000001 USING  ORDINARY    FFFFFFD8 00001000 FFFFFFE5   8 048    7824  GINFWA-(4+36),R8
   7543  0000017A  00000001 USING  ORDINARY    00000000 00001000 FFFFFFE7   6 020    7573  WIND,R6
   7807  00000232  00000001 USING  ORDINARY    00000000 00001000 FFFFFFF8   6 000          @R6,6
   7834  00000240  00000001 USING  ORDINARY    00000000 00001000 FFFFFFF6   8 000          @R8,8
   7839  00000240  00000001 USING  ORDINARY    00000000 00001000 FFFFFFF7   7 000          @R7,7
   7894  00000268  00000001 USING  ORDINARY    00000268 00001000 00000001   7 484    8228  $$$78B,7
   8053  0000030C  00000001 USING  ORDINARY    00000000 00001000 FFFFFFE7   6 018    8160  WIND,R6
   8091  00000328  00000001 USING  ORDINARY    00000000 00001000 FFFFFFE6   5 014    8097  LINT,R5
   8104  00000336  00000001 USING  ORDINARY    00000000 00001000 FFFFFFF9   5 000          @R5,5
   8240  000003B4  00000001 USING  ORDINARY    00000000 00001000 FFFFFFF8   6 000          @R6,6
   8245  000003B4  00000001 USING  ORDINARY    00000000 00001000 FFFFFFF7   7 000          @R7,7
   8294  000003DC  00000001 USING  ORDINARY    000003DC 00001000 00000001   7 306    8353  $$$89B,7
   8365  0000043C  00000001 USING  ORDINARY    00000000 00001000 FFFFFFF7   7 000          @R7,7
   8456  000004DE  00000001 USING  ORDINARY    000004DE 00001000 00000001   7 000          $$$93B,7
   8475  000004E8  00000001 USING  ORDINARY    00000000 00001000 FFFFFFF7   7 000          @R7,7
   8520  00000510  00000001 USING  ORDINARY    00000510 00001000 00000001   7 1B8    8529  $$$96B,7
   8539  0000051C  00000001 USING  ORDINARY    00000000 00001000 FFFFFFF7   7 000          @R7,7
   8587  00000544  00000001 USING  ORDINARY    00000544 00001000 00000001   7 19E    8646  $$$99B,7
   8658  000005A4  00000001 USING  ORDINARY    00000000 00001000 FFFFFFF7   7 000          @R7,7
   8750  00000646  00000001 USING  ORDINARY    00000646 00001000 00000001   7 000          $$$103B,7
   8769  00000650  00000001 USING  ORDINARY    00000000 00001000 FFFFFFF7   7 000          @R7,7
   8814  00000678  00000001 USING  ORDINARY    00000678 00001000 00000001   7 050    8823  $$$106B,7
   8833  00000684  00000001 USING  ORDINARY    00000000 00001000 FFFFFFF7   7 000          @R7,7
   9037  0000070E  00000001 USING  ORDINARY    0000070E 00001000 00000001   7 EEC    9393  $$$117B,7
   9051  0000070E  00000001 USING  ORDINARY    FFFFFFD8 00001000 FFFFFFE4   8 048    9407  WGETWA-(4+36),R8
   9141  00000746  00000001 USING  ORDINARY    00000000 00001000 FFFFFFE7   5 014    9338  WIND,R5
   9367  000007EE  00000001 USING  ORDINARY    00000000 00001000 FFFFFFF9   5 000          @R5,5
   9421  00000806  00000001 USING  ORDINARY    00000000 00001000 FFFFFFF6   8 000          @R8,8
   9426  00000806  00000001 USING  ORDINARY    00000000 00001000 FFFFFFF7   7 000          @R7,7
1PAGE     (PAGE2193) (12:50) (15MAR04) Using Map                                                                            Page  223
   9616  0000082E  00000001 USING  ORDINARY    0000082E 00001000 00000001   7 DE1    9989  $$$132B,7
   9630  0000082E  00000001 USING  ORDINARY    FFFFFFD8 00001000 FFFFFFE3   8 028    9634  WPUTWA-(4+36),R8
   9644  00000832  00000001 USING  ORDINARY    00000000 00001000 FFFFFFE3   6 028    9981  WPUTWA,R6
   9737  00000872  00000001 USING  ORDINARY    00000000 00001000 FFFFFFE7   5 002    9893  WIND,R5
   9941  0000095A  00000001 USING  ORDINARY    00000000 00001000 FFFFFFF9   5 000          @R5,5
  10002  00000980  00000001 USING  ORDINARY    00000000 00001000 FFFFFFF8   6 000          @R6,6
  10007  00000980  00000001 USING  ORDINARY    00000000 00001000 FFFFFFF6   8 000          @R8,8
  10012  00000980  00000001 USING  ORDINARY    00000000 00001000 FFFFFFF7   7 000          @R7,7
  10195  00000B12  00000001 USING  ORDINARY    00000B12 00001000 00000001   7 00C   10229  $$$142B,7
  10213  00000B12  00000001 USING  ORDINARY    00000000 00001000 FFFFFFE7   5 000   10243  WIND,R5
  10250  00000B1E  00000001 USING  ORDINARY    00000000 00001000 FFFFFFF9   5 000          @R5,5
  10255  00000B1E  00000001 USING  ORDINARY    00000000 00001000 FFFFFFF7   7 000          @R7,7
  10300  00000B46  00000001 USING  ORDINARY    00000B46 00001000 00000001   7 010   10334  $$$146B,7
  10318  00000B46  00000001 USING  ORDINARY    00000000 00001000 FFFFFFE7   5 000   10352  WIND,R5
  10359  00000B56  00000001 USING  ORDINARY    00000000 00001000 FFFFFFF9   5 000          @R5,5
  10364  00000B56  00000001 USING  ORDINARY    00000000 00001000 FFFFFFF7   7 000          @R7,7
  10409  00000B7E  00000001 USING  ORDINARY    00000B7E 00001000 00000001   7 95A   10482  $$$150B,7
  10427  00000B7E  00000001 USING  ORDINARY    00000000 00001000 FFFFFFE7   5 006   10494  WIND,R5
  10437  00000B7E  00000001 USING  ORDINARY    00000000 00001000 FFFFFFE3   6 000   10493  WPUTWA,R6
  10509  00000B9E  00000001 USING  ORDINARY    00000000 00001000 FFFFFFF8   6 000          @R6,6
  10514  00000B9E  00000001 USING  ORDINARY    00000000 00001000 FFFFFFF9   5 000          @R5,5
  10519  00000B9E  00000001 USING  ORDINARY    00000000 00001000 FFFFFFF7   7 000          @R7,7
  10564  00000BC6  00000001 USING  ORDINARY    00000BC6 00001000 00000001   7 912   10637  $$$156B,7
  10582  00000BC6  00000001 USING  ORDINARY    00000000 00001000 FFFFFFE7   5 008   10649  WIND,R5
  10592  00000BC6  00000001 USING  ORDINARY    00000000 00001000 FFFFFFE3   6 000   10648  WPUTWA,R6
  10664  00000BE6  00000001 USING  ORDINARY    00000000 00001000 FFFFFFF8   6 000          @R6,6
  10669  00000BE6  00000001 USING  ORDINARY    00000000 00001000 FFFFFFF9   5 000          @R5,5
  10674  00000BE6  00000001 USING  ORDINARY    00000000 00001000 FFFFFFF7   7 000          @R7,7
  10719  00000C0E  00000001 USING  ORDINARY    00000C0E 00001000 00000001   7 8CE   10750  $$$162B,7
  10737  00000C0E  00000001 USING  ORDINARY    00000000 00001000 FFFFFFE7   5 024   10761  WIND,R5
  10772  00000C30  00000001 USING  ORDINARY    00000000 00001000 FFFFFFF9   5 000          @R5,5
  10777  00000C30  00000001 USING  ORDINARY    00000000 00001000 FFFFFFF7   7 000          @R7,7
  10822  00000C58  00000001 USING  ORDINARY    00000C58 00001000 00000001   7 022   10885  $$$165B,7
  10840  00000C58  00000001 USING  ORDINARY    00000000 00001000 FFFFFFE3   6 004   10902  WPUTWA,R6
  10913  00000C7A  00000001 USING  ORDINARY    00000000 00001000 FFFFFFF8   6 000          @R6,6
  10918  00000C7A  00000001 USING  ORDINARY    00000000 00001000 FFFFFFF7   7 000          @R7,7
  10963  00000CA2  00000001 USING  ORDINARY    00000CA2 00001000 00000001   7 022   11026  $$$171B,7
  10981  00000CA2  00000001 USING  ORDINARY    00000000 00001000 FFFFFFE3   6 004   11043  WPUTWA,R6
  11054  00000CC4  00000001 USING  ORDINARY    00000000 00001000 FFFFFFF8   6 000          @R6,6
  11059  00000CC4  00000001 USING  ORDINARY    00000000 00001000 FFFFFFF7   7 000          @R7,7
  11104  00000CEC  00000001 USING  ORDINARY    00000CEC 00001000 00000001   7 000          $$$177B,7
  11122  00000CEC  00000001 USING  ORDINARY    00000000 00001000 FFFFFFE7   5 002   11126  WIND,R5
  11133  00000CF2  00000001 USING  ORDINARY    00000000 00001000 FFFFFFF9   5 000          @R5,5
  11138  00000CF2  00000001 USING  ORDINARY    00000000 00001000 FFFFFFF7   7 000          @R7,7
  11183  00000D1A  00000001 USING  ORDINARY    00000D1A 00001000 00000001   7 000          $$$180B,7
  11199  00000D1E  00000001 USING  ORDINARY    00000000 00001000 FFFFFFF7   7 000          @R7,7
  11365  00000D46  00000001 USING  ORDINARY    00000D46 00001000 00000001   7 8CE   11791  $$$191B,7
  11379  00000D46  00000001 USING  ORDINARY    FFFFFFD8 00001000 FFFFFFE2   8 048   11805  RGETWA-(4+36),R8
  11469  00000D7E  00000001 USING  ORDINARY    00000000 00001000 FFFFFFE6   4 010   11721  LINT,R4
  11765  00000E38  00000001 USING  ORDINARY    00000000 00001000 FFFFFFFA   4 000          @R4,4
  11819  00000E50  00000001 USING  ORDINARY    00000000 00001000 FFFFFFF6   8 000          @R8,8
  11824  00000E50  00000001 USING  ORDINARY    00000000 00001000 FFFFFFF7   7 000          @R7,7
  11990  00000E78  00000001 USING  ORDINARY    00000E78 00001000 00000001   7 797   12268  $$$212B,7
  12004  00000E78  00000001 USING  ORDINARY    FFFFFFD8 00001000 FFFFFFE1   8 028   12008  RPUTWA-(4+36),R8
  12018  00000E7C  00000001 USING  ORDINARY    00000000 00001000 FFFFFFE1   6 020   12260  RPUTWA,R6
  12110  00000EBA  00000001 USING  ORDINARY    00000000 00001000 FFFFFFE6   4 000          LINT,R4
  12220  00000F38  00000001 USING  ORDINARY    00000000 00001000 FFFFFFFA   4 000          @R4,4
  12281  00000F5E  00000001 USING  ORDINARY    00000000 00001000 FFFFFFF8   6 000          @R6,6
  12286  00000F5E  00000001 USING  ORDINARY    00000000 00001000 FFFFFFF6   8 000          @R8,8
1PAGE     (PAGE2193) (12:50) (15MAR04) Using Map                                                                            Page  224
  12291  00000F5E  00000001 USING  ORDINARY    00000000 00001000 FFFFFFF7   7 000          @R7,7
  12459  000010C6  00000001 USING  ORDINARY    000010C6 00001000 00000001   7 000          $$$219B,7
  12477  000010C6  00000001 USING  ORDINARY    00000000 00001000 FFFFFFE6   4 00C   12486  LINT,R4
  12493  000010CA  00000001 USING  ORDINARY    00000000 00001000 FFFFFFFA   4 000          @R4,4
  12498  000010CA  00000001 USING  ORDINARY    00000000 00001000 FFFFFFF7   7 000          @R7,7
  12543  000010F2  00000001 USING  ORDINARY    000010F2 00001000 00000001   7 000          $$$222B,7
  12561  000010F2  00000001 USING  ORDINARY    00000000 00001000 FFFFFFE6   4 00C   12570  LINT,R4
  12577  000010F6  00000001 USING  ORDINARY    00000000 00001000 FFFFFFFA   4 000          @R4,4
  12582  000010F6  00000001 USING  ORDINARY    00000000 00001000 FFFFFFF7   7 000          @R7,7
  12627  0000111E  00000001 USING  ORDINARY    0000111E 00001000 00000001   7 000          $$$225B,7
  12645  0000111E  00000001 USING  ORDINARY    00000000 00001000 FFFFFFE6   4 00C   12654  LINT,R4
  12661  00001122  00000001 USING  ORDINARY    00000000 00001000 FFFFFFFA   4 000          @R4,4
  12666  00001122  00000001 USING  ORDINARY    00000000 00001000 FFFFFFF7   7 000          @R7,7
  12711  0000114A  00000001 USING  ORDINARY    0000114A 00001000 00000001   7 000          $$$228B,7
  12729  0000114A  00000001 USING  ORDINARY    00000000 00001000 FFFFFFE6   4 00C   12738  LINT,R4
  12745  0000114E  00000001 USING  ORDINARY    00000000 00001000 FFFFFFFA   4 000          @R4,4
  12750  0000114E  00000001 USING  ORDINARY    00000000 00001000 FFFFFFF7   7 000          @R7,7
  12795  00001176  00000001 USING  ORDINARY    00001176 00001000 00000001   7 000          $$$231B,7
  12813  00001176  00000001 USING  ORDINARY    00000000 00001000 FFFFFFE6   4 00C   12822  LINT,R4
  12829  0000117A  00000001 USING  ORDINARY    00000000 00001000 FFFFFFFA   4 000          @R4,4
  12834  0000117A  00000001 USING  ORDINARY    00000000 00001000 FFFFFFF7   7 000          @R7,7
  12879  000011A2  00000001 USING  ORDINARY    000011A2 00001000 00000001   7 000          $$$234B,7
  12897  000011A2  00000001 USING  ORDINARY    00000000 00001000 FFFFFFE6   4 00C   12906  LINT,R4
  12913  000011A6  00000001 USING  ORDINARY    00000000 00001000 FFFFFFFA   4 000          @R4,4
  12918  000011A6  00000001 USING  ORDINARY    00000000 00001000 FFFFFFF7   7 000          @R7,7
  12963  000011CE  00000001 USING  ORDINARY    000011CE 00001000 00000001   7 000          $$$237B,7
  12981  000011CE  00000001 USING  ORDINARY    00000000 00001000 FFFFFFE6   4 00C   12990  LINT,R4
  12997  000011D2  00000001 USING  ORDINARY    00000000 00001000 FFFFFFFA   4 001   15418  @R4,4
  13002  000011D2  00000001 USING  ORDINARY    00000000 00001000 FFFFFFF7   7 000          @R7,7
  13047  000011FA  00000001 USING  ORDINARY    000011FA 00001000 00000001   7 000          $$$240B,7
  13063  000011FE  00000001 USING  ORDINARY    00000000 00001000 FFFFFFF7   7 000          @R7,7
  13115  00001226  00000001 USING  ORDINARY    00001226 00001000 00000001   7 460   13423  $$$243B,7
  13260  00001290  00000001 USING  ORDINARY    00000000 00001000 FFFFFFEA   6 005   13274  TTYPE,R6
  13436  00001312  00000001 USING  ORDINARY    00000000 00001000 FFFFFFF8   6 000          @R6,6
  13444  00001312  00000001 USING  ORDINARY    00000000 00001000 FFFFFFF7   7 000          @R7,7
  13497  0000133A  00000001 USING  ORDINARY    0000133A 00001000 00000001   7 222   13594  $$$252B,7
  13605  0000137E  00000001 USING  ORDINARY    00000000 00001000 FFFFFFF7   7 000          @R7,7
  13661  000013DA  00000001 USING  ORDINARY    000013DA 00001000 00000001   7 2DA   13897  $$$258B,7
  13911  00001450  00000001 USING  ORDINARY    00000000 00001000 FFFFFFF7   7 000          @R7,7
  14144  000016D4  00000001 USING  ORDINARY    000016D4 00001000 00000001   7 F18   14783  $$$281B,7
  14158  000016D4  00000001 USING  ORDINARY    FFFFFFD8 00001000 FFFFFFE0   8 072   14789  PRESWA-(4+36),R8
  14813  0000188C  00000001 USING  ORDINARY    00000000 00001000 FFFFFFF6   8 000          @R8,8
  14818  0000188C  00000001 USING  ORDINARY    00000000 00001000 FFFFFFF7   7 000          @R7,7
  14869  000018B4  00000001 USING  ORDINARY    000018B4 00001000 00000001   7 D12   15747  $$$294B,7
  14958  000018FC  00000001 USING  ORDINARY    00000000 00001000 FFFFFFE7   6 018   15738  WIND,R6
  15041  0000192E  00000001 USING  ORDINARY    00000000 00001000 FFFFFFE6   5 014   15143  LINT,R5
  15150  00001970  00000001 USING  ORDINARY    00000000 00001000 FFFFFFF9   5 000          @R5,5
  15274  000019D2  00000001 USING  ORDINARY    00000000 00001000 FFFFFFE6   5 014   15457  LINT,R5
  15467  00001A7A  00000001 USING  ORDINARY    00000000 00001000 FFFFFFF9   5 000          @R5,5
  15484  00001A7A  00000001 USING  ORDINARY    00000000 00001000 FFFFFFE6   5 010   15525  LINT,R5
  15532  00001A94  00000001 USING  ORDINARY    00000000 00001000 FFFFFFF9   5 000          @R5,5
  15550  00001AA2  00000001 USING  ORDINARY    00000000 00001000 FFFFFFE6   5 010   15701  LINT,R5
  15711  00001B1C  00000001 USING  ORDINARY    00000000 00001000 FFFFFFF9   5 000          @R5,5
  15755  00001B50  00000001 USING  ORDINARY    00000000 00001000 FFFFFFF8   6 000          @R6,6
  15760  00001B50  00000001 USING  ORDINARY    00000000 00001000 FFFFFFF7   7 000          @R7,7
  15833  00001B78  00000001 USING  ORDINARY    00001B78 00001000 00000001   7 A50   16056  $$$316B,7
  15847  00001B78  00000001 USING  ORDINARY    FFFFFFD8 00001000 FFFFFFDF   8 028   15965  PTABWA-(4+36),R8
  15876  00001B82  00000001 DROP                                           15              15
  15880  00001B88  00000001 USING  ORDINARY    00000000 00001000 FFFFFFEF  15 001   23196  @R15,15
1PAGE     (PAGE2193) (12:50) (15MAR04) Using Map                                                                            Page  225
  15960  00001BB8  00000001 USING  ORDINARY    00000000 00001000 FFFFFFE7   5 040   16046  WIND,R5
  16001  00001BD4  00000001 USING  ORDINARY    00000000 00001000 FFFFFFE6   4 014   16033  LINT,R4
  16040  00001BE8  00000001 USING  ORDINARY    00000000 00001000 FFFFFFFA   4 001   17608  @R4,4
  16053  00001BF4  00000001 USING  ORDINARY    00000000 00001000 FFFFFFF9   5 001   16359  @R5,5
  16071  00001BFC  00000001 USING  ORDINARY    00000000 00001000 FFFFFFF6   8 000          @R8,8
  16076  00001BFC  00000001 USING  ORDINARY    00000000 00001000 FFFFFFF7   7 000          @R7,7
  16130  00001C24  00000001 USING  ORDINARY    00001C24 00001000 00000001   7 99E   16175  $$$328B,7
  16158  00001C38  00000001 USING  ORDINARY    00000000 00001000 FFFFFFE7   6 018   16163  WIND,R6
  16170  00001C3C  00000001 USING  ORDINARY    00000000 00001000 FFFFFFF8   6 000          @R6,6
  16183  00001C42  00000001 USING  ORDINARY    00000000 00001000 FFFFFFF7   7 000          @R7,7
  16265  00001C6A  00000001 USING  ORDINARY    00001C6A 00001000 00000001   7 96E   16691  $$$331B,7
  16279  00001C6A  00000001 USING  ORDINARY    FFFFFFD8 00001000 FFFFFFDE   8 068   16662  NEWWWA-(4+36),R8
  16339  00001C90  00000001 USING  ORDINARY    00000000 00001000 FFFFFFE7   6 008   16511  WIND,R6
  16433  00001CDC  00000001 USING  ORDINARY    00000000 00001000 FFFFFFE6   5 010   16684  LINT,R5
  16527  00001D1A  00000001 USING  ORDINARY    00000000 00001000 FFFFFFF8   6 000          @R6,6
  16530  00001D1A  00000001 USING  ORDINARY    00000000 00001000 FFFFFFE7   3 024   16556  WIND,R3
  16567  00001D48  00000001 USING  ORDINARY    00000000 00001000 FFFFFFE7   6 080   16662  WIND,6
  16572  00001D48  00000001 USING  ORDINARY    00000000 00001000 FFFFFFFB   3 001   21776  @R3,3
  16705  00001DC4  00000001 USING  ORDINARY    00000000 00001000 FFFFFFF9   5 000          @R5,5
  16710  00001DC4  00000001 USING  ORDINARY    00000000 00001000 FFFFFFF8   6 000          @R6,6
  16715  00001DC4  00000001 USING  ORDINARY    00000000 00001000 FFFFFFF6   8 000          @R8,8
  16720  00001DC4  00000001 USING  ORDINARY    00000000 00001000 FFFFFFF7   7 000          @R7,7
  16775  00001DEC  00000001 USING  ORDINARY    00001DEC 00001000 00000001   7 7DA   17038  $$$342B,7
  16861  00001E18  00000001 USING  ORDINARY    00000000 00001000 FFFFFFE7   6 006   16865  WIND,R6
  16877  00001E24  00000001 USING  ORDINARY    00000000 00001000 FFFFFFE6   5 014   16997  LINT,R5
  17026  00001E82  00000001 USING  ORDINARY    00000000 00001000 FFFFFFF9   5 000          @R5,5
  17031  00001E82  00000001 USING  ORDINARY    00000000 00001000 FFFFFFF8   6 000          @R6,6
  17046  00001E88  00000001 USING  ORDINARY    00000000 00001000 FFFFFFF7   7 000          @R7,7
  17101  00001EB0  00000001 USING  ORDINARY    00001EB0 00001000 00000001   7 716   17364  $$$355B,7
  17187  00001EDC  00000001 USING  ORDINARY    00000000 00001000 FFFFFFE7   6 008   17191  WIND,R6
  17203  00001EE8  00000001 USING  ORDINARY    00000000 00001000 FFFFFFE6   5 010   17311  LINT,R5
  17352  00001F46  00000001 USING  ORDINARY    00000000 00001000 FFFFFFF9   5 000          @R5,5
  17357  00001F46  00000001 USING  ORDINARY    00000000 00001000 FFFFFFF8   6 000          @R6,6
  17372  00001F4C  00000001 USING  ORDINARY    00000000 00001000 FFFFFFF7   7 000          @R7,7
  17426  00001F74  00000001 USING  ORDINARY    00001F74 00001000 00000001   7 652   17628  $$$368B,7
  17478  00001F92  00000001 USING  ORDINARY    00000000 00001000 FFFFFFE7   6 024   17638  WIND,R6
  17516  00001FA8  00000001 USING  ORDINARY    00000000 00001000 FFFFFFE6   5 014   17607  LINT,R5
  17614  00001FE2  00000001 USING  ORDINARY    00000000 00001000 FFFFFFF9   5 001   19505  @R5,5
  17645  00002002  00000001 USING  ORDINARY    00000000 00001000 FFFFFFF8   6 000          @R6,6
  17655  00002004  00000001 USING  ORDINARY    00000000 00001000 FFFFFFF7   7 000          @R7,7
  17710  0000202C  00000001 USING  ORDINARY    0000202C 00001000 00000001   7 042   17791  $$$378B,7
  17729  0000202E  00000001 USING  ORDINARY    00000000 00001000 FFFFFFE7   6 00E   17799  WIND,R6
  17806  0000206A  00000001 USING  ORDINARY    00000000 00001000 FFFFFFF8   6 000          @R6,6
  17822  0000206E  00000001 USING  ORDINARY    00000000 00001000 FFFFFFF7   7 000          @R7,7
  17881  00002096  00000001 USING  ORDINARY    00002096 00001000 00000001   7 530   18121  $$$383B,7
  17920  000020A6  00000001 USING  ORDINARY    00000000 00001000 FFFFFFE7   6 040   18111  WIND,R6
  18013  000020D6  00000001 USING  ORDINARY    00000000 00001000 FFFFFFE6   4 014   18086  LINT,R4
  18093  000020FE  00000001 USING  ORDINARY    00000000 00001000 FFFFFFFA   4 000          @R4,4
  18118  0000210E  00000001 USING  ORDINARY    00000000 00001000 FFFFFFF8   6 000          @R6,6
  18131  00002112  00000001 USING  ORDINARY    00000000 00001000 FFFFFFF7   7 000          @R7,7
  18188  0000213A  00000001 USING  ORDINARY    0000213A 00001000 00000001   7 476   18274  $$$396B,7
  18229  0000214C  00000001 USING  ORDINARY    00000000 00001000 FFFFFFE7   6 040   18264  WIND,R6
  18271  00002166  00000001 USING  ORDINARY    00000000 00001000 FFFFFFF8   6 000          @R6,6
  18288  0000216C  00000001 USING  ORDINARY    00000000 00001000 FFFFFFF7   7 000          @R7,7
  18348  00002194  00000001 USING  ORDINARY    00002194 00001000 00000001   7 432   18857  $$$402B,7
  18390  000021A4  00000001 USING  ORDINARY    00000000 00001000 FFFFFFE7   6 040   18847  WIND,R6
  18543  000021F4  00000001 USING  ORDINARY    00000000 00001000 FFFFFFE6   4 014   18636  LINT,R4
  18643  0000222A  00000001 USING  ORDINARY    00000000 00001000 FFFFFFFA   4 000          @R4,4
  18783  00002274  00000001 USING  ORDINARY    00000000 00001000 FFFFFFE6   4 014   18826  LINT,R4
1PAGE     (PAGE2193) (12:50) (15MAR04) Using Map                                                                            Page  226
  18833  00002292  00000001 USING  ORDINARY    00000000 00001000 FFFFFFFA   4 000          @R4,4
  18854  0000229E  00000001 USING  ORDINARY    00000000 00001000 FFFFFFF8   6 000          @R6,6
  18866  000022A2  00000001 USING  ORDINARY    00000000 00001000 FFFFFFF7   7 000          @R7,7
  18923  000022CA  00000001 USING  ORDINARY    000022CA 00001000 00000001   7 2FC   19514  $$$430B,7
  19209  00002354  00000001 USING  ORDINARY    00000000 00001000 FFFFFFE7   6 040   19504  WIND,R6
  19303  00002384  00000001 USING  ORDINARY    00000000 00001000 FFFFFFE6   4 014   19487  LINT,R4
  19494  000023F2  00000001 USING  ORDINARY    00000000 00001000 FFFFFFFA   4 001   25852  @R4,4
  19511  000023FE  00000001 USING  ORDINARY    00000000 00001000 FFFFFFF8   6 000          @R6,6
  19522  00002402  00000001 USING  ORDINARY    00000000 00001000 FFFFFFF7   7 000          @R7,7
  19575  0000242A  00000001 USING  ORDINARY    0000242A 00001000 00000001   7 192   19779  $$$464B,7
  19754  00002474  00000001 USING  ORDINARY    00000000 00001000 FFFFFFE6   5 014   19769  LINT,R5
  19776  00002480  00000001 USING  ORDINARY    00000000 00001000 FFFFFFF9   5 000          @R5,5
  19791  00002484  00000001 USING  ORDINARY    00000000 00001000 FFFFFFF7   7 000          @R7,7
  19852  000024AC  00000001 USING  ORDINARY    000024AC 00001000 00000001   7 11A   20015  $$$480B,7
  19892  000024C0  00000001 USING  ORDINARY    00000000 00001000 FFFFFFE7   6 008   19922  WIND,R6
  19937  000024DE  00000001 USING  ORDINARY    00000000 00001000 FFFFFFE6   5 014   20005  LINT,R5
  20012  00002508  00000001 USING  ORDINARY    00000000 00001000 FFFFFFF9   5 000          @R5,5
  20034  00002512  00000001 USING  ORDINARY    00000000 00001000 FFFFFFF8   6 000          @R6,6
  20039  00002512  00000001 USING  ORDINARY    00000000 00001000 FFFFFFF7   7 000          @R7,7
  20184  00002608  00000001 USING  ORDINARY    00002608 00001000 00000001   7 9FC   20542  $$$489B,7
  20198  00002608  00000001 USING  ORDINARY    FFFFFFD8 00001000 FFFFFFDD   8 034   20541  LWA-(4+36),R8
  20222  0000261A  00000001 USING  ORDINARY    00000000 00001000 FFFFFFE7   6 018   20512  WIND,R6
  20314  0000265C  00000001 USING  ORDINARY    00000000 00001000 FFFFFFE6   5 014   20446  LINT,R5
  20453  000026CE  00000001 USING  ORDINARY    00000000 00001000 FFFFFFF9   5 000          @R5,5
  20558  00002714  00000001 USING  ORDINARY    00000000 00001000 FFFFFFF8   6 000          @R6,6
  20563  00002714  00000001 USING  ORDINARY    00000000 00001000 FFFFFFF6   8 000          @R8,8
  20568  00002714  00000001 USING  ORDINARY    00000000 00001000 FFFFFFF7   7 000          @R7,7
  20666  0000273C  00000001 USING  ORDINARY    0000273C 00001000 00000001   7 8C6   21460  $$$503B,7
  20680  0000273C  00000001 USING  ORDINARY    FFFFFFD8 00001000 FFFFFFDC   8 03C   21457  PFA-(4+36),R8
  20712  0000274C  00000001 USING  ORDINARY    00000000 00001000 FFFFFFE7   6 040   21438  WIND,R6
  20919  000027EC  00000001 USING  ORDINARY    00000000 00001000 FFFFFFE6   5 014   21197  LINT,R5
  21204  000028A6  00000001 USING  ORDINARY    00000000 00001000 FFFFFFF9   5 000          @R5,5
  21444  0000293E  00000001 USING  ORDINARY    00000000 00001000 FFFFFFF8   6 000          @R6,6
  21468  00002952  00000001 USING  ORDINARY    00000000 00001000 FFFFFFF6   8 000          @R8,8
  21473  00002952  00000001 USING  ORDINARY    00000000 00001000 FFFFFFF7   7 000          @R7,7
  21532  0000297A  00000001 USING  ORDINARY    0000297A 00001000 00000001   7 688   21812  $$$536B,7
  21551  0000297C  00000001 USING  ORDINARY    00000000 00001000 FFFFFFE7   6 008   21675  WIND,R6
  21569  0000298A  00000001 USING  ORDINARY    00000000 00001000 FFFFFFE6   5 014   21800  LINT,R5
  21829  00002A34  00000001 USING  ORDINARY    00000000 00001000 FFFFFFF9   5 000          @R5,5
  21834  00002A34  00000001 USING  ORDINARY    00000000 00001000 FFFFFFF8   6 000          @R6,6
  21839  00002A34  00000001 USING  ORDINARY    00000000 00001000 FFFFFFF7   7 000          @R7,7
  21891  00002A5C  00000001 USING  ORDINARY    00002A5C 00001000 00000001   7 5A6   22520  $$$552B,7
  21910  00002A5E  00000001 USING  ORDINARY    00000000 00001000 FFFFFFE7   6 024   22447  WIND,R6
  21928  00002A6C  00000001 USING  ORDINARY    00000000 00001000 FFFFFFE6   5 014   22515  LINT,R5
  22533  00002BD4  00000001 USING  ORDINARY    00000000 00001000 FFFFFFF9   5 000          @R5,5
  22538  00002BD4  00000001 USING  ORDINARY    00000000 00001000 FFFFFFF8   6 000          @R6,6
  22543  00002BD4  00000001 USING  ORDINARY    00000000 00001000 FFFFFFF7   7 000          @R7,7
  22594  00002BFC  00000001 USING  ORDINARY    00002BFC 00001000 00000001   7 404   22821  $$$586B,7
  22648  00002C14  00000001 USING  ORDINARY    00000000 00001000 FFFFFFE6   5 014   22811  LINT,R5
  22679  00002C28  00000001 USING  ORDINARY    00000000 00001000 FFFFFFE7   6 014   22695  WIND,R6
  22806  00002C62  00000001 USING  ORDINARY    00000000 00001000 FFFFFFF8   6 000          @R6,6
  22818  00002C6A  00000001 USING  ORDINARY    00000000 00001000 FFFFFFF9   5 000          @R5,5
  22841  00002C72  00000001 USING  ORDINARY    00000000 00001000 FFFFFFF7   7 000          @R7,7
  22898  00002C9A  00000001 USING  ORDINARY    00002C9A 00001000 00000001   7 016   22939  $$$599B,7
  22957  00002CB0  00000001 USING  ORDINARY    00000000 00001000 FFFFFFF7   7 000          @R7,7
  23008  00002CD8  00000001 USING  ORDINARY    00002CD8 00001000 00000001   7 32A   23272  $$$604B,7
  23050  00002CE8  00000001 USING  ORDINARY    00000000 00001000 FFFFFFE6   5 014   23062  LINT,R5
  23069  00002CF6  00000001 USING  ORDINARY    00000000 00001000 FFFFFFF9   5 000          @R5,5
  23107  00002D0A  00000001 USING  ORDINARY    00000000 00001000 FFFFFFE7   5 040   23262  WIND,R5
1PAGE     (PAGE2193) (12:50) (15MAR04) Using Map                                                                            Page  227
  23150  00002D26  00000001 USING  ORDINARY    00000000 00001000 FFFFFFE6   3 014   23248  LINT,R3
  23255  00002D66  00000001 USING  ORDINARY    00000000 00001000 FFFFFFFB   3 008   29448  @R3,3
  23269  00002D76  00000001 USING  ORDINARY    00000000 00001000 FFFFFFF9   5 000          @R5,5
  23285  00002D7C  00000001 USING  ORDINARY    00000000 00001000 FFFFFFF7   7 000          @R7,7
  23379  00002DA4  00000001 USING  ORDINARY    00002DA4 00001000 00000001   7 25E   23878  $$$619B,7
  23393  00002DA4  00000001 USING  ORDINARY    FFFFFFD8 00001000 FFFFFFDB   8 228   23839  PAGSWA-(4+36),R8
  23517  00002E0E  00000001 USING  ORDINARY    00000000 00001000 FFFFFFE6   5 002   23523  LINT,R5
  23530  00002E12  00000001 USING  ORDINARY    00000000 00001000 FFFFFFF9   5 000          @R5,5
  23543  00002E1A  00000001 USING  ORDINARY    00000000 00001000 FFFFFFE7   6 018   23875  WIND,R6
  23577  00002E22  00000001 USING  ORDINARY    00000000 00001000 FFFFFFE6   5 014   23765  LINT,R5
  23772  00002E9E  00000001 USING  ORDINARY    00000000 00001000 FFFFFFF9   5 000          @R5,5
  23813  00002EBA  00000001 USING  ORDINARY    00000000 00001000 FFFFFFE6   5 014   23862  LINT,R5
  23869  00002EE4  00000001 USING  ORDINARY    00000000 00001000 FFFFFFF9   5 000          @R5,5
  23886  00002EF4  00000001 USING  ORDINARY    00000000 00001000 FFFFFFF8   6 000          @R6,6
  23894  00002EF4  00000001 USING  ORDINARY    00000000 00001000 FFFFFFF6   8 000          @R8,8
  23899  00002EF4  00000001 USING  ORDINARY    00000000 00001000 FFFFFFF7   7 000          @R7,7
  23960  00002F1C  00000001 USING  ORDINARY    00002F1C 00001000 00000001   7 0E6   24240  $$$640B,7
  24000  00002F2E  00000001 USING  ORDINARY    00000000 00001000 FFFFFFE6  15 002   24006  LINT,R15
  24013  00002F32  00000001 USING  ORDINARY    00000000 00001000 FFFFFFEF  15 000          @R15,15
  24046  00002F42  00000001 USING  ORDINARY    00000000 00001000 FFFFFFE6  15 002   24052  LINT,R15
  24059  00002F46  00000001 USING  ORDINARY    00000000 00001000 FFFFFFEF  15 001   24224  @R15,15
  24095  00002F58  00000001 USING  ORDINARY    00000000 00001000 FFFFFFE7   6 008   24140  WIND,R6
  24178  00002F80  00000001 USING  ORDINARY    00000000 00001000 FFFFFFE6   5 014   24230  LINT,R5
  24237  00002FA4  00000001 USING  ORDINARY    00000000 00001000 FFFFFFF9   5 000          @R5,5
  24248  00002FA8  00000001 USING  ORDINARY    00000000 00001000 FFFFFFF7   7 000          @R7,7
  24424  00003020  00000001 USING  ORDINARY    00003020 00001000 00000001   7 AAA   27765  $$$653B,7
  24443  00003026  00000001 USING  ORDINARY    00000000 00001000 FFFFFFF8   6 000          @R6,6
  24446  00003026  00000001 USING  ORDINARY    00000000 00001000 FFFFFFDA   6 4EB   42352  PWA,R6
  24588  000030AC  00000001 USING  ORDINARY    00000000 00001000 FFFFFFEA   5 005   24633  TTYPE,R5
  24647  000030D4  00000001 USING  ORDINARY    00000000 00001000 FFFFFFF9   5 000          @R5,5
  25099  00003220  00000001 USING  ORDINARY    00000000 00001000 FFFFFFE7   5 00E   25308  WIND,R5
  25335  000032D2  00000001 USING  ORDINARY    00000000 00001000 FFFFFFF9   5 000          @R5,5
  25665  000033B6  00000001 DROP                                            1              1
  25669  000033BC  00000001 USING  ORDINARY    00000000 00001000 FFFFFFFD   1 000          @R1,1
  25706  000033DA  00000001 DROP                                            1              1
  25710  000033E0  00000001 USING  ORDINARY    00000000 00001000 FFFFFFFD   1 000   26838  @R1,1
  25714  000033E4  00000001 DROP                                           15              15
  25718  000033EA  00000001 USING  ORDINARY    00000000 00001000 FFFFFFEF  15 000          @R15,15
  25836  0000342E  00000001 USING  ORDINARY    00000000 00001000 FFFFFFE7   5 040   25851  WIND,R5
  25858  00003446  00000001 USING  ORDINARY    00000000 00001000 FFFFFFF9   5 000          @R5,5
  26247  00003532  00000001 USING  ORDINARY    00000000 00001000 FFFFFFE6   2 00D   26257  LINT,R2
  26263  00003536  00000001 USING  ORDINARY    00000000 00001000 FFFFFFFC   2 008   35968  @R2,2
  26457  000035A0  00000001 USING  ORDINARY    00000000 00001000 FFFFFFE6   4 00C   26552  LINT,R4
  26493  000035B6  00000001 USING  ORDINARY    00000000 00001000 FFFFFFE7   5 014   26498  WIND,R5
  26578  000035EE  00000001 USING  ORDINARY    00000000 00001000 FFFFFFF9   5 000          @R5,5
  26583  000035EE  00000001 USING  ORDINARY    00000000 00001000 FFFFFFFA   4 000          @R4,4
  26640  0000360E  00000001 DROP                                           15              15
  26644  00003614  00000001 USING  ORDINARY    00000000 00001000 FFFFFFEF  15 000          @R15,15
  26655  0000361E  00000001 DROP                                           15              15
  26659  00003624  00000001 USING  ORDINARY    00000000 00001000 FFFFFFEF  15 040   27231  @R15,15
  27163  00003798  00000001 USING  ORDINARY    00000000 00001000 FFFFFFE6   4 010   27256  LINT,R4
  27226  000037BA  00000001 USING  ORDINARY    00000000 00001000 FFFFFFE7   5 00E   27253  WIND,R5
  27262  000037DA  00000001 USING  ORDINARY    00000000 00001000 FFFFFFF9   5 000          @R5,5
  27271  000037DA  00000001 USING  ORDINARY    00000000 00001000 FFFFFFFA   4 000          @R4,4
  27329  00003800  00000001 USING  ORDINARY    00000000 00001000 FFFFFFE6   4 00C   27500  LINT,R4
  27360  00003812  00000001 USING  ORDINARY    00000000 00001000 FFFFFFE7   5 014   27389  WIND,R5
  27421  00003834  00000001 USING  ORDINARY    00000000 00001000 FFFFFFF9   5 000          @R5,5
  27520  0000386A  00000001 USING  ORDINARY    00000000 00001000 FFFFFFFA   4 000          @R4,4
  27782  00003912  00000001 USING  ORDINARY    00000000 00001000 FFFFFFF7   7 000          @R7,7
1PAGE     (PAGE2193) (12:50) (15MAR04) Using Map                                                                            Page  228
  27933  00003AEA  00000001 USING  ORDINARY    00003AEA 00001000 00000001   7 C95   28388  $$$749B,7
  28052  00003B28  00000001 USING  ORDINARY    00000000 00001000 FFFFFFE6   4 014   30669  LINT,R4
  28085  00003B3E  00000001 USING  ORDINARY    00000000 00001000 FFFFFFE7   5 030   30488  WIND,R5
  28402  00003C0A  00000001 USING  ORDINARY    00000000 00001000 FFFFFFF7   7 000          @R7,7
  28456  00003C32  00000001 USING  ORDINARY    00003C32 00001000 00000001   7 AFE   28690  $$$761B,7
  28707  00003CBE  00000001 USING  ORDINARY    00000000 00001000 FFFFFFF7   7 000          @R7,7
  28758  00003CE6  00000001 USING  ORDINARY    00003CE6 00001000 00000001   7 A4E   28891  $$$773B,7
  28899  00003D34  00000001 USING  ORDINARY    00000000 00001000 FFFFFFF7   7 000          @R7,7
  28953  00003D5C  00000001 USING  ORDINARY    00003D5C 00001000 00000001   7 9DC   28988  $$$782B,7
  28996  00003D6E  00000001 USING  ORDINARY    00000000 00001000 FFFFFFF7   7 000          @R7,7
  29050  00003D96  00000001 USING  ORDINARY    00003D96 00001000 00000001   7 9EA   29652  $$$785B,7
  29201  00003DE0  00000001 USING  ORDINARY    00000000 00001000 FFFFFFE8   1 03B   29230  AINFO,R1
  29253  00003DFE  00000001 USING  ORDINARY    00000000 00001000 FFFFFFFD   1 000          @R1,1
  29364  00003E32  00000001 DROP                                            1              1
  29368  00003E38  00000001 USING  ORDINARY    00000000 00001000 FFFFFFFD   1 000          @R1,1
  29670  00003EFA  00000001 USING  ORDINARY    00000000 00001000 FFFFFFF7   7 000          @R7,7
  29734  00003F22  00000001 USING  ORDINARY    00003F22 00001000 00000001   7 85D   30013  $$$805B,7
  30044  00003FEC  00000001 USING  ORDINARY    00000000 00001000 FFFFFFF7   7 000          @R7,7
  30098  00004014  00000001 USING  ORDINARY    00004014 00001000 00000001   7 73C   30307  $$$814B,7
  30316  0000409C  00000001 USING  ORDINARY    00000000 00001000 FFFFFFF7   7 000          @R7,7
  30370  000040C4  00000001 USING  ORDINARY    000040C4 00001000 00000001   7 678   30405  $$$819B,7
  30413  000040D6  00000001 USING  ORDINARY    00000000 00001000 FFFFFFF7   7 000          @R7,7
  30467  000040FE  00000001 USING  ORDINARY    000040FE 00001000 00000001   7 63E   30572  $$$822B,7
  30580  00004138  00000001 USING  ORDINARY    00000000 00001000 FFFFFFF7   7 000          @R7,7
  30634  00004160  00000001 USING  ORDINARY    00004160 00001000 00000001   7 616   30715  $$$826B,7
  30723  00004184  00000001 USING  ORDINARY    00000000 00001000 FFFFFFF7   7 000          @R7,7
  30744  00004192  00000001 USING  ORDINARY    00000000 00001000 FFFFFFFA   4 000          @R4,4
  30751  00004192  00000001 USING  ORDINARY    00000000 00001000 FFFFFFF9   5 000          @R5,5
  30789  000041AC  00000001 USING  ORDINARY    000041AC 00001000 00000001   7 5CE   31050  $$$830B,7
  30881  000041E4  00000001 USING  ORDINARY    00000000 00001000 FFFFFFE6   4 014   30891  LINT,R4
  30903  000041FE  00000001 USING  ORDINARY    00000000 00001000 FFFFFFFA   4 001   31617  @R4,4
  30962  0000422E  00000001 USING  ORDINARY    00000000 00001000 FFFFFFE7   5 00A   31019  WIND,R5
  31057  0000426E  00000001 USING  ORDINARY    00000000 00001000 FFFFFFF9   5 000          @R5,5
  31068  0000426E  00000001 USING  ORDINARY    00000000 00001000 FFFFFFF7   7 000          @R7,7
  31161  00004296  00000001 USING  ORDINARY    00004296 00001000 00000001   7 4EB   31880  $$$838B,7
  31175  00004296  00000001 USING  ORDINARY    FFFFFFD8 00001000 FFFFFFD9   8 02C   31830  OUTSWA-(4+36),R8
  31230  000042AE  00000001 USING  ORDINARY    00000000 00001000 FFFFFFEA  15 005   31248  TTYPE,R15
  31262  000042B6  00000001 USING  ORDINARY    00000000 00001000 FFFFFFEF  15 000          @R15,15
  31300  000042C6  00000001 USING  ORDINARY    00000000 00001000 FFFFFFE6   5 014   31436  LINT,R5
  31443  00004318  00000001 USING  ORDINARY    00000000 00001000 FFFFFFF9   5 000          @R5,5
  31496  00004334  00000001 USING  ORDINARY    00000000 00001000 FFFFFFE6   5 014   31616  LINT,R5
  31503  00004334  00000001 DROP                                            3              3
  31507  0000433A  00000001 USING  ORDINARY    00000000 00001000 FFFFFFFB   3 000          @R3,3
  31565  0000435A  00000001 DROP                                           15              15
  31569  00004360  00000001 USING  ORDINARY    00000000 00001000 FFFFFFEF  15 000          @R15,15
  31623  00004390  00000001 USING  ORDINARY    00000000 00001000 FFFFFFF9   5 000          @R5,5
  31679  000043B0  00000001 USING  ORDINARY    00000000 00001000 FFFFFFE6   5 000          LINT,R5
  31686  000043B0  00000001 DROP                                            3              3
  31690  000043B6  00000001 USING  ORDINARY    00000000 00001000 FFFFFFFB   3 001   32979  @R3,3
  31749  000043D4  00000001 DROP                                           15              15
  31753  000043DA  00000001 USING  ORDINARY    00000000 00001000 FFFFFFEF  15 000          @R15,15
  31809  00004406  00000001 USING  ORDINARY    00000000 00001000 FFFFFFF9   5 001   32977  @R5,5
  31894  00004436  00000001 USING  ORDINARY    00000000 00001000 FFFFFFF6   8 000          @R8,8
  31899  00004436  00000001 USING  ORDINARY    00000000 00001000 FFFFFFF7   7 000          @R7,7
  31980  0000445E  00000001 USING  ORDINARY    0000445E 00001000 00000001   7 325   32988  $$$869B,7
  31994  0000445E  00000001 USING  ORDINARY    FFFFFFD8 00001000 FFFFFFD8   8 02E   32887  SCRLWA-(4+36),R8
  32032  00004478  00000001 USING  ORDINARY    00000000 00001000 FFFFFFEA  15 005   32045  TTYPE,R15
  32067  0000448C  00000001 USING  ORDINARY    00000000 00001000 FFFFFFEF  15 000          @R15,15
  32070  0000448C  00000001 USING  ORDINARY    00000000 00001000 FFFFFFE6  15 002   32076  LINT,R15
1PAGE     (PAGE2193) (12:50) (15MAR04) Using Map                                                                            Page  229
  32087  00004490  00000001 USING  ORDINARY    00000000 00001000 FFFFFFEF  15 000          @R15,15
  32090  00004490  00000001 USING  ORDINARY    00000000 00001000 FFFFFFEA  15 000          TTYPE,15
  32117  0000449E  00000001 USING  ORDINARY    00000000 00001000 FFFFFFE7   1 000   32131  WIND,R1
  32145  000044A6  00000001 USING  ORDINARY    00000000 00001000 FFFFFFFD   1 001   34906  @R1,1
  32154  000044A6  00000001 USING  ORDINARY    00000000 00001000 FFFFFFEF  15 000          @R15,15
  32283  00004502  00000001 USING  ORDINARY    00000000 00001000 FFFFFFEA  15 005   32289  TTYPE,R15
  32296  00004506  00000001 USING  ORDINARY    00000000 00001000 FFFFFFEF  15 000          @R15,15
  32474  00004582  00000001 USING  ORDINARY    00000000 00001000 FFFFFFE6   4 014   32531  LINT,R4
  32561  000045C6  00000001 USING  ORDINARY    00000000 00001000 FFFFFFFA   4 000          @R4,4
  32607  000045E8  00000001 USING  ORDINARY    00000000 00001000 FFFFFFE6   4 000          LINT,R4
  32695  0000462A  00000001 USING  ORDINARY    00000000 00001000 FFFFFFFA   4 000          @R4,4
  32765  00004652  00000001 USING  ORDINARY    00000000 00001000 FFFFFFE6   4 014   32842  LINT,R4
  32810  00004662  00000001 DROP                                           15              15
  32814  00004668  00000001 USING  ORDINARY    00000000 00001000 FFFFFFEF  15 000          @R15,15
  32849  0000468C  00000001 USING  ORDINARY    00000000 00001000 FFFFFFFA   4 000          @R4,4
  32902  000046A0  00000001 USING  ORDINARY    00000000 00001000 FFFFFFE6   4 014   32978  LINT,R4
  32946  000046AE  00000001 DROP                                           15              15
  32950  000046B4  00000001 USING  ORDINARY    00000000 00001000 FFFFFFEF  15 001   35076  @R15,15
  32985  000046D8  00000001 USING  ORDINARY    00000000 00001000 FFFFFFFA   4 000          @R4,4
  33002  000046DC  00000001 USING  ORDINARY    00000000 00001000 FFFFFFF6   8 000          @R8,8
  33007  000046DC  00000001 USING  ORDINARY    00000000 00001000 FFFFFFF7   7 000          @R7,7
  33139  0000479E  00000001 USING  ORDINARY    0000479E 00001000 00000001   7 A06   33824  $$$899B,7
  33153  0000479E  00000001 USING  ORDINARY    FFFFFFD8 00001000 FFFFFFD7   8 028   33821  OLINWA-(4+36),R8
  33167  000047A0  00000001 USING  ORDINARY    00000000 00001000 FFFFFFE6   4 010   33786  LINT,R4
  33203  000047B6  00000001 USING  ORDINARY    00000000 00001000 FFFFFFE7   5 014   33575  WIND,R5
  33832  0000492A  00000001 USING  ORDINARY    00000000 00001000 FFFFFFF9   5 000          @R5,5
  33837  0000492A  00000001 USING  ORDINARY    00000000 00001000 FFFFFFFA   4 000          @R4,4
  33842  0000492A  00000001 USING  ORDINARY    00000000 00001000 FFFFFFF6   8 000          @R8,8
  33847  0000492A  00000001 USING  ORDINARY    00000000 00001000 FFFFFFF7   7 000          @R7,7
  33901  00004952  00000001 USING  ORDINARY    00004952 00001000 00000001   7 7FE   33947  $$$928B,7
  33919  00004952  00000001 USING  ORDINARY    00000000 00001000 FFFFFFE6   4 000          LINT,R4
  33929  00004952  00000001 USING  ORDINARY    00000000 00001000 FFFFFFE7   5 00C   33942  WIND,R5
  33955  0000496C  00000001 USING  ORDINARY    00000000 00001000 FFFFFFF9   5 000          @R5,5
  33960  0000496C  00000001 USING  ORDINARY    00000000 00001000 FFFFFFFA   4 000          @R4,4
  33965  0000496C  00000001 USING  ORDINARY    00000000 00001000 FFFFFFF7   7 000          @R7,7
  34019  00004994  00000001 USING  ORDINARY    00004994 00001000 00000001   7 83A   34320  $$$931B,7
  34037  00004994  00000001 USING  ORDINARY    00000000 00001000 FFFFFFE6   4 010   34246  LINT,R4
  34047  00004994  00000001 USING  ORDINARY    00000000 00001000 FFFFFFE7   5 00E   34317  WIND,R5
  34330  00004A6E  00000001 USING  ORDINARY    00000000 00001000 FFFFFFF9   5 000          @R5,5
  34335  00004A6E  00000001 USING  ORDINARY    00000000 00001000 FFFFFFFA   4 000          @R4,4
  34340  00004A6E  00000001 USING  ORDINARY    00000000 00001000 FFFFFFF7   7 000          @R7,7
  34418  00004A96  00000001 USING  ORDINARY    00004A96 00001000 00000001   7 756   35522  $$$940B,7
  34432  00004A96  00000001 USING  ORDINARY    FFFFFFD8 00001000 FFFFFFD6   8 034   35228  OUTTWA-(4+36),R8
  34445  00004A96  00000001 USING  ORDINARY    00000000 00001000 FFFFFFE6   4 010   35270  LINT,R4
  34455  00004A96  00000001 USING  ORDINARY    00000000 00001000 FFFFFFE7   5 014   35519  WIND,R5
  34480  00004AAC  00000001 USING  ORDINARY    00000000 00001000 FFFFFFEA   3 005   34721  TTYPE,R3
  35009  00004BE6  00000001 USING  ORDINARY    00000000 00001000 FFFFFFFB   3 001   42311  @R3,3
  35150  00004C5C  00000001 USING  ORDINARY    00000000 00001000 FFFFFFEA   1 09C   35166  TTYPE,R1
  35184  00004C6E  00000001 USING  ORDINARY    00000000 00001000 FFFFFFFD   1 000          @R1,1
  35421  00004D04  00000001 DROP                                           15              15
  35425  00004D0A  00000001 USING  ORDINARY    00000000 00001000 FFFFFFEF  15 000          @R15,15
  35428  00004D0A  00000001 DROP                                            1              1
  35432  00004D10  00000001 USING  ORDINARY    00000000 00001000 FFFFFFFD   1 00B   41985  @R1,1
  35532  00004D5E  00000001 USING  ORDINARY    00000000 00001000 FFFFFFF9   5 000          @R5,5
  35537  00004D5E  00000001 USING  ORDINARY    00000000 00001000 FFFFFFFA   4 000          @R4,4
  35542  00004D5E  00000001 USING  ORDINARY    00000000 00001000 FFFFFFF6   8 000          @R8,8
  35547  00004D5E  00000001 USING  ORDINARY    00000000 00001000 FFFFFFF7   7 000          @R7,7
  35801  00004D86  00000001 USING  ORDINARY    00004D86 00001000 00000001   7 46C   37088  $$$1002B,7
  35815  00004D86  00000001 USING  ORDINARY    FFFFFFD8 00001000 FFFFFFD5   8 0A0   37056  OUTZWA-(4+36),R8
1PAGE     (PAGE2193) (12:50) (15MAR04) Using Map                                                                            Page  230
  35828  00004D86  00000001 USING  ORDINARY    00000000 00001000 FFFFFFE6   4 00D   37096  LINT,R4
  35838  00004D86  00000001 USING  ORDINARY    00000000 00001000 FFFFFFE7   5 024   36415  WIND,R5
  37103  000050F8  00000001 USING  ORDINARY    00000000 00001000 FFFFFFF9   5 000          @R5,5
  37108  000050F8  00000001 USING  ORDINARY    00000000 00001000 FFFFFFFA   4 000          @R4,4
  37113  000050F8  00000001 USING  ORDINARY    00000000 00001000 FFFFFFF6   8 000          @R8,8
  37118  000050F8  00000001 USING  ORDINARY    00000000 00001000 FFFFFFF7   7 000          @R7,7
  37267  00005212  00000001 USING  ORDINARY    00005212 00001000 00000001   7 472   37609  $$$1031B,7
  37281  00005212  00000001 USING  ORDINARY    FFFFFFD8 00001000 FFFFFFD4   8 028   37315  OUTCWA-(4+36),R8
  37294  00005212  00000001 USING  ORDINARY    00000000 00001000 FFFFFFE6   4 000          LINT,R4
  37304  00005212  00000001 USING  ORDINARY    00000000 00001000 FFFFFFE7   5 030   37606  WIND,R5
  37354  0000523E  00000001 DROP                                           15              15
  37358  00005244  00000001 USING  ORDINARY    00000000 00001000 FFFFFFEF  15 001   41141  @R15,15
  37618  00005314  00000001 USING  ORDINARY    00000000 00001000 FFFFFFF9   5 000          @R5,5
  37623  00005314  00000001 USING  ORDINARY    00000000 00001000 FFFFFFFA   4 000          @R4,4
  37628  00005314  00000001 USING  ORDINARY    00000000 00001000 FFFFFFF6   8 000          @R8,8
  37633  00005314  00000001 USING  ORDINARY    00000000 00001000 FFFFFFF7   7 000          @R7,7
  37695  00005512  00000001 USING  ORDINARY    00005512 00001000 00000001   7 166   37919  $$$1049B,7
  37713  00005512  00000001 USING  ORDINARY    00000000 00001000 FFFFFFE6   4 00D   37927  LINT,R4
  37723  00005512  00000001 USING  ORDINARY    00000000 00001000 FFFFFFE7   5 000          WIND,R5
  37934  000055A0  00000001 USING  ORDINARY    00000000 00001000 FFFFFFF9   5 000          @R5,5
  37939  000055A0  00000001 USING  ORDINARY    00000000 00001000 FFFFFFFA   4 000          @R4,4
  37944  000055A0  00000001 USING  ORDINARY    00000000 00001000 FFFFFFF7   7 000          @R7,7
  37998  000055C8  00000001 USING  ORDINARY    000055C8 00001000 00000001   7 0AE   38142  $$$1055B,7
  38016  000055C8  00000001 USING  ORDINARY    00000000 00001000 FFFFFFE6   4 00D   38150  LINT,R4
  38026  000055C8  00000001 USING  ORDINARY    00000000 00001000 FFFFFFE7   5 000          WIND,R5
  38157  00005624  00000001 USING  ORDINARY    00000000 00001000 FFFFFFF9   5 000          @R5,5
  38162  00005624  00000001 USING  ORDINARY    00000000 00001000 FFFFFFFA   4 000          @R4,4
  38167  00005624  00000001 USING  ORDINARY    00000000 00001000 FFFFFFF7   7 000          @R7,7
  38246  000056A4  00000001 USING  ORDINARY    000056A4 00001000 00000001   7 DEA   38695  $$$1059B,7
  38264  000056A4  00000001 USING  ORDINARY    00000000 00001000 FFFFFFE6   4 014   38670  LINT,R4
  38274  000056A4  00000001 USING  ORDINARY    00000000 00001000 FFFFFFE7   5 00E   38629  WIND,R5
  38713  000057A8  00000001 USING  ORDINARY    00000000 00001000 FFFFFFF9   5 000          @R5,5
  38718  000057A8  00000001 USING  ORDINARY    00000000 00001000 FFFFFFFA   4 000          @R4,4
  38723  000057A8  00000001 USING  ORDINARY    00000000 00001000 FFFFFFF7   7 000          @R7,7
  38777  000057D0  00000001 USING  ORDINARY    000057D0 00001000 00000001   7 CC4   38886  $$$1083B,7
  38795  000057D0  00000001 USING  ORDINARY    00000000 00001000 FFFFFFE6   4 000          LINT,R4
  38805  000057D0  00000001 USING  ORDINARY    00000000 00001000 FFFFFFE7   5 000          WIND,R5
  38895  00005808  00000001 USING  ORDINARY    00000000 00001000 FFFFFFF9   5 000          @R5,5
  38900  00005808  00000001 USING  ORDINARY    00000000 00001000 FFFFFFFA   4 000          @R4,4
  38905  00005808  00000001 USING  ORDINARY    00000000 00001000 FFFFFFF7   7 000          @R7,7
  38955  00005830  00000001 USING  ORDINARY    00005830 00001000 00000001   7 BD8   39154  $$$1090B,7
  39195  000058E2  00000001 USING  ORDINARY    00000000 00001000 FFFFFFF7   7 000          @R7,7
  39251  0000590A  00000001 USING  ORDINARY    0000590A 00001000 00000001   7 010   39297  $$$1094B,7
  39269  0000590A  00000001 USING  ORDINARY    00000000 00001000 FFFFFFE6   4 000          LINT,R4
  39279  0000590A  00000001 USING  ORDINARY    00000000 00001000 FFFFFFE7   5 000          WIND,R5
  39314  0000591A  00000001 USING  ORDINARY    00000000 00001000 FFFFFFF9   5 000          @R5,5
  39319  0000591A  00000001 USING  ORDINARY    00000000 00001000 FFFFFFFA   4 000          @R4,4
  39324  0000591A  00000001 USING  ORDINARY    00000000 00001000 FFFFFFF7   7 000          @R7,7
  39380  00005942  00000001 USING  ORDINARY    00005942 00001000 00000001   7 B3E   39603  $$$1098B,7
  39398  00005942  00000001 USING  ORDINARY    00000000 00001000 FFFFFFE6   4 010   39577  LINT,R4
  39408  00005942  00000001 USING  ORDINARY    00000000 00001000 FFFFFFE7   5 00E   39578  WIND,R5
  39617  000059EE  00000001 USING  ORDINARY    00000000 00001000 FFFFFFF9   5 000          @R5,5
  39622  000059EE  00000001 USING  ORDINARY    00000000 00001000 FFFFFFFA   4 000          @R4,4
  39627  000059EE  00000001 USING  ORDINARY    00000000 00001000 FFFFFFF7   7 000          @R7,7
  39683  00005A16  00000001 USING  ORDINARY    00005A16 00001000 00000001   7 00E   39727  $$$1107B,7
  39701  00005A16  00000001 USING  ORDINARY    00000000 00001000 FFFFFFE6   4 000          LINT,R4
  39711  00005A16  00000001 USING  ORDINARY    00000000 00001000 FFFFFFE7   5 000          WIND,R5
  39749  00005A24  00000001 USING  ORDINARY    00000000 00001000 FFFFFFF9   5 000          @R5,5
  39754  00005A24  00000001 USING  ORDINARY    00000000 00001000 FFFFFFFA   4 001   40595  @R4,4
1PAGE     (PAGE2193) (12:50) (15MAR04) Using Map                                                                            Page  231
  39759  00005A24  00000001 USING  ORDINARY    00000000 00001000 FFFFFFF7   7 000          @R7,7
  39840  00005A4C  00000001 USING  ORDINARY    00005A4C 00001000 00000001   7 9D4   39927  $$$1111B,7
  39854  00005A4C  00000001 USING  ORDINARY    FFFFFFD8 00001000 FFFFFFD3   8 12C   39924  VPUTWA-(4+36),R8
  39936  00005AA4  00000001 USING  ORDINARY    00000000 00001000 FFFFFFF6   8 000          @R8,8
  39941  00005AA4  00000001 USING  ORDINARY    00000000 00001000 FFFFFFF7   7 000          @R7,7
  39992  00005ACC  00000001 USING  ORDINARY    00005ACC 00001000 00000001   7 9AA   40604  $$$1115B,7
  40020  00005AD4  00000001 USING  ORDINARY    00000000 00001000 FFFFFFEA   2 00A   40372  TTYPE,R2
  40560  00005C24  00000001 USING  ORDINARY    00000000 00001000 FFFFFFE7   5 040   40594  WIND,R5
  40601  00005C46  00000001 USING  ORDINARY    00000000 00001000 FFFFFFF9   5 000          @R5,5
  40613  00005C4A  00000001 USING  ORDINARY    00000000 00001000 FFFFFFFC   2 000          @R2,2
  40618  00005C4A  00000001 USING  ORDINARY    00000000 00001000 FFFFFFF7   7 000          @R7,7
  40705  00005C74  00000001 USING  ORDINARY    00005C74 00001000 00000001   7 806   41204  $$$1146B,7
  40719  00005C74  00000001 USING  ORDINARY    FFFFFFE0 00001000 FFFFFFD2   8 02C   41217  CALCWA-(4+28),R8
  40758  00005C86  00000001 USING  ORDINARY    00000000 00001000 FFFFFFE7   5 010   41215  WIND,R5
  40802  00005C9E  00000001 USING  ORDINARY    00000000 00001000 FFFFFFE6   4 014   40908  LINT,R4
  40915  00005CD6  00000001 USING  ORDINARY    00000000 00001000 FFFFFFFA   4 000          @R4,4
  41003  00005D1A  00000001 USING  ORDINARY    00000000 00001000 FFFFFFE6   4 010   41041  LINT,R4
  41155  00005D82  00000001 USING  ORDINARY    00000000 00001000 FFFFFFFA   4 000   42665  @R4,4
  41226  00005DAA  00000001 USING  ORDINARY    00000000 00001000 FFFFFFF9   5 002   42912  @R5,5
  41231  00005DAA  00000001 USING  ORDINARY    00000000 00001000 FFFFFFF6   8 000          @R8,8
  41236  00005DAA  00000001 USING  ORDINARY    00000000 00001000 FFFFFFF7   7 000          @R7,7
  41336  00005DD2  00000001 USING  ORDINARY    00005DD2 00001000 00000001   7 75A   41978  $$$1170B,7
  41350  00005DD2  00000001 USING  ORDINARY    FFFFFFE0 00001000 FFFFFFD1   8 044   41925  FIELDWA-(4+28),R8
  41682  00005EC0  00000001 DROP                                           15              15
  41686  00005EC6  00000001 USING  ORDINARY    00000000 00001000 FFFFFFEF  15 000   42912  @R15,15
  42020  00005FA6  00000001 USING  ORDINARY    00000000 00001000 FFFFFFF6   8 000          @R8,8
  42025  00005FA6  00000001 USING  ORDINARY    00000000 00001000 FFFFFFF7   7 000          @R7,7
  42125  000060CE  00000001 USING  ORDINARY    000060CE 00001000 00000001   7 3EA   43030  $$$1204B,7
  42139  000060CE  00000001 USING  ORDINARY    FFFFFFD8 00001000 FFFFFFD0   8 03D   42998  DISPWA-(4+36),R8
  42645  0000620A  00000001 DROP                                           14              14
  42649  00006210  00000001 USING  ORDINARY    00000000 00001000 FFFFFFF0  14 000   42673  @R14,14
  43043  0000633E  00000001 USING  ORDINARY    00000000 00001000 FFFFFFF6   8 000          @R8,8
  43048  0000633E  00000001 USING  ORDINARY    00000000 00001000 FFFFFFF7   7 000          @R7,7
  43102  00006366  00000001 USING  ORDINARY    00006366 00001000 00000001   7 168   43199  $$$1246B,7
  43211  0000639E  00000001 USING  ORDINARY    00000000 00001000 FFFFFFF7   7 000          @R7,7
  43338  0000652D  00000001 USING  ORDINARY    00000000 00001000 FFFFFFF8   6 000          @R6,6

1         (PAGE2193) (12:50) (15MAR04) General Purpose Register Cross Reference                                             Page  232
- Register  References (M=modified, B=branch, U=USING, D=DROP, N=index)                      HLASM R4.0  2004/03/15 12.50
0    0(0)      982U   983D  2111   2179M  2179   2180M  6963   7011M  7038M  7061M  7088M  7103M  7131   7173M  7174M
              7214M  7215M  7252M  7392   7471M  7503M  7549M  7550M  7550   7583M  7685M  7706M  7706   7723M  7736M
              7768M  7789M  7789   7824M  7826   7847M  7877   7920M  7920   7948M  7971   7982M  7982   7991   7992
              7993   8253M  8277   8313M  8313   8322   8323   8373M  8439   8465   8483M  8503   8547M  8570   8606M
              8606   8615   8616   8666M  8733   8759   8777M  8797   8841M  9019   9090M  9108M  9171M  9192M  9212M
              9245M  9265M  9265   9283M  9303M  9303   9321M  9342M  9342   9361M  9361   9407M  9409   9434M  9598
              9689M  9757M  9761   9772M  9772   9781   9782   9816M  9836M  9843   9865M  9865   9897M  9897   9935M
              9981M  9983  10020M 10178  10263M 10283  10372M 10392  10451M 10451  10465  10494  10527M 10547  10606M
             10606  10620  10649  10682M 10702  10741  10750M 10751  10752  10785M 10805  10854M 10854  10868  10902
             10926M 10946  10995M 10995  11009  11043  11067M 11087  11146M 11166  11207M 11347  11418M 11436M 11479M
             11655M 11675M 11675  11708M 11721M 11759M 11759  11805M 11807  11832M 11972  12063M 12130M 12134  12146M
             12146  12155  12156  12190M 12210M 12260M 12262  12299M 12442  12506M 12526  12590M 12610  12674M 12694
             12758M 12778  12842M 12862  12926M 12946  13010M 13030  13071M 13098  13147M 13165M 13183M 13210M 13237M
             13302M 13320M 13354M 13382M 13400M 13424M 13452M 13480  13613M 13644  13798M 13809M 13809  13836M 13919M
             14126  14222M 14285M 14324M 14324  14392M 14392  14405M 14405  14412  14419M 14434M 14471M 14471  14533M
             14569M 14614M 14645M 14663M 14684M 14711M 14750M 14750  14826M 14852  15723M 15723  15768M 15815  16084M
             16113  16191M 16247  16283  16322M 16382M 16415M 16459M 16535M 16536  16582M 16632M 16634M 16654M 16656M
             16684M 16686  16696  16728M 16758  16785  16910  17054M 17084  17111  17236  17380M 17409  17663M 17693
             17735  17830M 17864  17958  17972  18044  18061  18139M 18171  18296M 18331  18430  18444  18490  18575
             18670  18684  18730  18800  18874M 18906  18962  19017  19090  19145  19245  19259  19333  19439  19530M
             19558  19799M 19863  19900M 19900  19957M 19997M 20023M 20023  20166  20576M 20648  20788M 20789M 20789
             20817  20823M 20839M 20839  20858M 20863  20872  21123M 21124  21212M 21224  21231  21299M 21315M 21315
             21334M 21339  21481M 21515  21820M 21822  21847M 21874  22161M 22161  22196M 22404M 22426M 22432  22551M
             22577  22849M 22881  22965M 22991  23293M 23361  23436M 23436  23493  23907M 24028M 24028  24034  24113M
             24113  24120M 24148  24149  24407  24755M 24771M 24798M 24798  24814M 24848M 25027  25030M 25056M 25064M
             25223  25284M 25302M 25303M 25324  25370M 25391M 25391  25409M 25430M 25430  25448M 25469M 25469  25487M
             25516M 25545M 25574M 25640M 25673M 25673  25691M 25728M 25728  25756M 25868M 25888M 25923M 25953M 25995M
             26009M 26009  26180M 26180  26197M 26329  26366M 26425M 26425  26439  26445  26613M 26614M 26615  26888M
             26888  26900  27428M 27539M 27548M 27548  27554  27685M 27698M 27698  27726M 27747M 27790M 27916  27993M
             28134M 28161M 28204M 28231M 28299M 28320M 28320  28338M 28359M 28359  28377M 28410M 28439  28500M 28715M
             28741  28907M 28936  28977M 29004M 29033  29092M 29110M 29293M 29322M 29406M 29430M 29514M 29538M 29599M
             29623M 29641M 29678M 29717  29860M 29861M 29894M 29923M 29944M 29944  29962M 29984M 29984  30002M 30052M
             30081  30122M 30140M 30168M 30196M 30224M 30265M 30290M 30324M 30353  30394M 30421M 30450  30509M 30527M
             30561M 30588M 30617  30656M 30688M 30731M 30772  30819M 30820M 30821  30972M 30996M 31015M 31039M 31076M
             31143  31343M 31344M 31344  31597M 31782M 31851M 31869M 31907M 31962  31998  32176M 32197M 32197  32215M
             32236M 32236  32254M 32324M 32347M 32347  32363M 32382M 32493M 32511M 32626M 32644M 33015M 33121  33612M
             33855M 33884  33973M 34002  34158M 34175M 34195M 34246M 34279M 34317M 34348M 34400  34468  34521M 34970M
             35065M 35235M 35270M 35303M 35402M 35413M 35413  35500M 35519M 35555M 35783  35878M 35911M 35932M 35932
             35949M 35972M 35972  35989M 36045M 36058M 36090M 36103M 36135M 36187M 36225M 36262M 36284M 36305M 36305
             36321M 36341M 36386M 36402M 36437M 36476M 36505M 36532M 36578M 36606M 36657M 36684M 36702  36776M 36818M
             36831M 36831  36838  36844M 36859M 36910M 36937M 37083M 37126M 37249  37567M 37569M 37606M 37641M 37678
             37755M 37774M 37779  37819M 37853M 37886M 37891  37952M 37981  38051M 38057  38125M 38175M 38229  38400M
             38498  38578M 38578  38683M 38683  38731M 38760  38883M 38888  38913M 38938  39000M 39002M 39033M 39051M
             39072M 39072  39090M 39115M 39134M 39134  39151M 39172M 39174M 39203M 39234  39296  39332M 39363  39493M
             39493  39577M 39635M 39666  39767M 39822  39859  39876M 39892  39893M 39910M 39924M 39949M 39975  40626M
             40768M 40768  40836M 40929M 40929  40940M 40956  40991  41088M 41088  41122M 41122  41144M 41168M 41563M
             41600  42012M 42107  42151  42211M 42260M 42546M 42614M 42765M 42786M 42786  42814M 42842M 42922M 42923
             43019M 43056M 43085  43138M 43160M 43160  43188M 43219M
     1(1)      978U  2111   2174M  2175M  2181M  6963   7004M  7005M  7005   7017   7018   7031   7037M  7037   7038M
              7054M  7055M  7055   7067   7068   7081   7087M  7087   7088M  7103M  7131   7175M  7216M  7252M  7392
              7470M  7502M  7582M  7684M  7702M  7722M  7767M  7785M  7819M  7826   7847M  7877   7947M  7970   7978M
              7991N  7992N  7993N  8253M  8277   8309M  8322N  8323N  8325N  8373M  8439   8483M  8503   8547M  8570
              8602M  8615N  8616N  8618N  8666M  8733   8777M  8797   8841M  9019   9089M  9107M  9170M  9191M  9211M
              9244M  9261M  9282M  9299M  9320M  9338M  9359M  9359   9402M  9409   9434M  9598   9688M  9752M  9760
              9768M  9781N  9782N  9784N  9815M  9835M  9843   9935M  9976M  9983  10020M 10178  10263M 10283  10372M
1         (PAGE2193) (12:50) (15MAR04) General Purpose Register Cross Reference                                             Page  233
             10392  10527M 10547  10682M 10702  10785M 10805  10926M 10946  11067M 11087  11146M 11166  11207M 11347
             11417M 11435M 11478M 11496M 11517M 11538M 11559M 11580M 11601M 11622M 11654M 11671M 11707M 11757M 11757
             11800M 11807  11832M 11972  12062M 12125M 12133  12142M 12155N 12156N 12158N 12189M 12209M 12255M 12262
             12299M 12442  12506M 12526  12590M 12610  12674M 12694  12758M 12778  12842M 12862  12926M 12946  13010M
             13030  13071M 13098  13146M 13164M 13182M 13209M 13236M 13301M 13319M 13353M 13377M 13399M 13423M 13452M
             13480  13613M 13644  13793M 13834M 13919M 14126  14217M 14278M 14390M 14390  14412  14418M 14434M 14528M
             14568M 14607M 14638M 14662M 14691M 14704M 14826M 14852  15725M 15725  15768M 15815  16084M 16113  16191M
             16247  16321M 16344  16381M 16414M 16458M 16538M 16583M 16633M 16634M 16655M 16656M 16696  16728M 16758
             16910  17054M 17084  17236  17380M 17409  17663M 17693  17735M 17737M 17749  17758  17786  17830M 17864
             18139M 18171  18296M 18331  18460  18474  18504  18589  18700  18714  18744  18814  18874M 18906  18971
             19026  19099  19154  19360  19372  19379  19395  19402  19463  19530M 19558  19799M 19861  19901M 19903M
             19999M 20025M 20025  20166  20228M 20401M 20576M 20648  20801M 21212M 21247  21254  21426M 21481M 21515
             21541  21847M 21874  21900  22164M 22165M 22165  22178M 22195M 22196M 22210  22405M 22551M 22577  22849M
             22881  22965M 22991  23293M 23361  23438M 23438  23494  23907M 23982M 23982  23988  24133M 24133  24140M
             24163  24407  24754M 24770M 24794M 24813M 24847M 24862M 25027  25029M 25056M 25063M 25217M 25223  25254M
             25266  25278  25296  25318M 25324  25363M 25387M 25408M 25426M 25447M 25465M 25486M 25509M 25538M 25567M
             25633M 25665D 25667M 25667  25668M 25669U 25690M 25706D 25708M 25708  25709M 25710U 25711M 25724M 25749M
             25868M 25881M 25923M 25952M 25990M 26328  26362M 26762M 26763M 26834M 26836M 26895M 27428M 27535M 27681M
             27722M 27746M 27790M 27916  27986M 28141M 28154M 28211M 28224M 28292M 28316M 28337M 28355M 28376M 28410M
             28439  28507M 28715M 28741  28907M 28936  28970M 29004M 29033  29085M 29117M 29190M 29201U 29253U 29286M
             29315M 29364D 29366M 29366  29367M 29368U 29377M 29377  29386M 29398M 29400M 29423M 29492M 29493M 29508M
             29531M 29603M 29616M 29640M 29678M 29717  29874M 29887M 29916M 29940M 29961M 29980M 30001M 30052M 30081
             30115M 30147M 30161M 30189M 30217M 30270M 30283M 30324M 30353  30387M 30421M 30450  30502M 30534M 30554M
             30588M 30617  30649M 30681M 30731M 30772  30885M 30976M 30989M 31019M 31032M 31076M 31143  31307M 31308M
             31308  31331  31598M 31783M 31844M 31868M 31907M 31962  31999  32076M 32100M 32100  32106M 32107M 32117U
             32145U 32169M 32193M 32214M 32232M 32253M 32317M 32338M 32362M 32381M 32486M 32510M 32525M 32619M 32643M
             32658M 33015M 33121  33157  33619M 33855M 33884  33973M 34002  34157M 34174M 34194M 34253M 34278M 34311M
             34312M 34348M 34400  34463M 34503M 34504M 34514  34520M 34520  34521M 34647M 34696M 34710M 34833M 34835M
             34966M 35015M 35140M 35150U 35184U 35228M 35277M 35302M 35373M 35428D 35430M 35430  35431M 35432U 35465M
             35465  35478M 35478  35513M 35514M 35555M 35783  35873M 35910M 35928M 35948M 35968M 35988M 36044M 36089M
             36134M 36186M 36224M 36261M 36283M 36301M 36320M 36381M 36401M 36430M 36469M 36498M 36527M 36571M 36601M
             36656M 36679M 36775M 36813M 36838  36843M 36859M 36909M 36932M 37021M 37028M 37079M 37126M 37249  37376M
             37378M 37439M 37441M 37466M 37467M 37469M 37470M 37503M 37505M 37515M 37580M 37600M 37601M 37641M 37678
             37754M 37773M 37812M 37852M 37882M 37952M 37981  38046M 38118M 38175M 38229  38284M 38291M 38292M 38292N
             38395M 38574M 38679M 38731M 38760  38879M 38913M 38938  39001M 39002M 39026M 39050M 39068M 39089M 39110M
             39150M 39173M 39174M 39203M 39234  39332M 39363  39416M 39417M 39433M 39433  39438M 39439  39489M 39578M
             39635M 39666  39767M 39822  39859  39871M 39892  39910M 39924M 39949M 39975  40626M 40947M 40956  40968M
             40968  41065M 41099M 41142M 41168M 41170M 41171M 41187M 41187  41203  41210M 41215M 41408M 41420M 41428M
             41430  41558M 41678M 41679M 41925M 41927  42012M 42107  42152  42204M 42253M 42281M 42311M 42324M 42325
             42326  42539M 42607M 42653M 42665M 42674M 42675  42696M 42710M 42719M 42732  42744  42758M 42782M 42807M
             42842  42853M 42898M 42912M 42921M 42922  42932M 43012M 43056M 43085  43133M 43156M 43183M 43219M
     2(2)      974U  2111   6963   6992M  6993M  7011   7036   7042M  7043M  7061   7086   7103M  7131   7252M  7392
              7635M  7656M  7656   7702   7847M  7877   8166M  8190M  8190   8253M  8277   8373M  8439   8483M  8503
              8547M  8570   8666M  8733   8777M  8797   8841M  9019   9434M  9598   9757  10020M 10178  10263M 10283
             10372M 10392  10527M 10547  10682M 10702  10785M 10805  10926M 10946  11067M 11087  11146M 11166  11207M
             11347  11832M 11972  12130  12299M 12442  12506M 12526  12590M 12610  12674M 12694  12758M 12778  12842M
             12862  12926M 12946  13010M 13030  13071M 13098  13452M 13480  13613M 13644  13705M 13706M 13706  13748
             13758N 13779M 13798  13849M 13858M 13858  13865  13919M 14126  14826M 14852  15768M 15815  15865M 15865
             15879N 15900M 15916  16084M 16113  16191M 16247  16356M 16358  16388  16577M 16579M 16580  16583  16599M
             16600M 16612M 16625  16647  16728M 16758  16910  17054M 17084  17236  17380M 17409  17663M 17693  17760M
             17778M 17783M 17784M 17790  17792M 17793  17830M 17864  18139M 18171  18197M 18248  18296M 18331  18874M
             18906  19530M 19558  19799M 19835  20047M 20166  20405M 20405  20576M 20648  21481M 21515  21847M 21874
             22210M 22253  22433M 22486  22551M 22577  22849M 22881  22965M 22991  23117M 23118  23135  23249M 23293M
             23361  23407M 23427M 23427  23450  23452M 23470  23487  23501M 23501  23710M 23710  23751M 23781  23907M
             23943  24256M 24407  24740M 24741M 24741  24783  24794  25059M 25248M 25249M 25250  25266  26220M 26221M
             26221  26236M 26237M 26247U 26263U 26710M 26730M 26755M 27790M 27916  28410M 28439  28715M 28741  28907M
             28936  29004M 29033  29132M 29132  29168M 29237M 29274M 29302M 29302  29355M 29450M 29463M 29463  29678M
             29717  29840M 29842M 29854  29980  30052M 30081  30240M 30254  30270  30303M 30324M 30353  30421M 30450
             30588M 30617  30731M 30772  31076M 31143  31542M 31562M 31579  31599M 31725M 31746M 31763  31784M 31907M
1         (PAGE2193) (12:50) (15MAR04) General Purpose Register Cross Reference                                             Page  234
             31962  32003M 32004  32713M 32731M 32731  32778M 32778  32791M 32872M 32916  33015M 33121  33855M 33884
             33973M 34002  34313M 34314M 34348M 34400  34565M 34579  34593  34971M 35016M 35373M 35396M 35498M 35515M
             35516M 35555M 35783  35900M 35901M 35901  35962M 35963M 36333  36965M 36966M 36982M 36982  36999  37005
             37028N 37084M 37126M 37249  37345M 37397M 37410M 37410  37426M 37427M 37427  37439N 37441N 37486M 37503N
             37505N 37515N 37517  37602M 37603M 37641M 37678  37736M 37779M 37871M 37871  37872M 37891M 37916  37952M
             37981  38056M 38057M 38059M 38087  38104M 38139  38175M 38229  38290M 38293  38337  38339  38731M 38760
             38913M 38938  39117M 39203M 39234  39332M 39363  39635M 39666  39767M 39822  39909M 39949M 39975  40010M
             40020U 40058M 40058  40209M 40209  40358M 40358  40488M 40488  40490M 40568M 40586M 40591M 40592  40613U
             40626M 40687  41244M 41318  41407M 41407  41420M 41440M 41440  41568M 41580  41586M 41587N 42033M 42107
             42152  42311M 42665M 42675M 42690M 42690  42696N 42698  42701M 42703  42710M 42718M 42878M 42898N 42900
             42903M 42905  42912M 42920M 42953M 43056M 43085  43111M 43156  43219M
     3(3)      970U  2111   6963   7103M  7131   7252M  7392   7636M  7647M  7647   7657M  7672M  7672   7736   7847M
              7877   8172M  8196   8213   8253M  8277   8306M  8306   8353M  8358   8373M  8439   8465M  8467   8483M
              8503   8529M  8531   8547M  8570   8599M  8599   8646M  8651   8666M  8733   8759M  8761   8777M  8797
              8823M  8825   8841M  9019   9434M  9598   9752  10020M 10178  10263M 10283  10372M 10392  10527M 10547
             10682M 10702  10785M 10805  10926M 10946  11067M 11087  11146M 11166  11207M 11347  11832M 11972  12125
             12299M 12442  12506M 12526  12590M 12610  12674M 12694  12758M 12778  12842M 12862  12926M 12946  13010M
             13030  13071M 13098  13452M 13480  13613M 13644  13757M 13793  13919M 14126  14826M 14852  15768M 15815
             15867M 15867  15893N 15894M 15969M 15970  15986  16034M 16084M 16113  16191M 16247  16512M 16530U 16572U
             16728M 16758  16785M 16801M 16801  16834  16841M 16843M 16910  16942M 16942  16991M 17010M 17010  17054M
             17084  17111M 17127M 17127  17160  17167M 17169M 17236  17268M 17268  17317M 17336M 17336  17380M 17409
             17464M 17464  17601M 17648  17663M 17693  17830M 17864  17981M 17982  17998  18087M 18139M 18171  18296M
             18331  18511M 18512  18528  18637M 18751M 18752  18768  18827M 18874M 18906  19271M 19272  19288  19488M
             19530M 19558  19799M 19835  19861M 19988  20047M 20166  20576M 20648  21481M 21515  21635M 21635  21776M
             21820  21847M 21874  22209M 22253M 22266M 22271  22432M 22468  22477M 22477  22486M 22498  22505M 22551M
             22577  22849M 22881  22965M 22991  23118M 23119M 23120M 23150U 23248M 23255U 23293M 23361  23502M 23658M
             23780M 23834M 23907M 23943  24256M 24407  25060M 25250M 25251M 25252M 25278  26503M 26568  27790M 27916
             28024M 28039  28119  28134  28187M 28410M 28439  28715M 28741  28907M 28936  29004M 29033  29354M 29448M
             29678M 29717  29743M 29833M 29833  30037  30052M 30081  30324M 30353  30421M 30450  30588M 30617  30731M
             30772  31076M 31143  31503D 31505M 31505  31506M 31507U 31516M 31516  31522  31542  31597  31686D 31688M
             31688  31689M 31690U 31699M 31699  31705  31725  31783  31907M 31962  32337M 32338  32372M 32372  32450M
             32454M 32455  32532M 32584M 32586M 32587M 32588  32666M 32714M 32715  32719N 32750  32843M 32887  32916
             32979M 33015M 33121  33855M 33884  33973M 34002  34315M 34316M 34348M 34400  34470M 34480U 34972M 35009U
             35337M 35497M 35517M 35518M 35555M 35783  37085M 37126M 37249  37344M 37395M 37604M 37605M 37641M 37678
             37952M 37981  38175M 38229  38485M 38511M 38524  38616M 38629  38731M 38760  38913M 38938  39203M 39234
             39332M 39363  39635M 39666  39767M 39822  39949M 39975  40489M 40490M 40493  40505M 40514  40516  40518
             40626M 40687  40770M 40771  40787  40836  40909M 41244M 41318  42033M 42107  42152  42282M 42326M 42343M
             42343  42652  42653N 42877M 42952M 43056M 43085  43219M
     4(4)      966U  2111   6963   7103M  7131   7252M  7392   7637M  7658M  7785   7847M  7877   8059M  8060   8076
              8098M  8178M  8197   8214   8253M  8277   8373M  8439   8483M  8503   8547M  8570   8666M  8733   8777M
              8797   8841M  9019   9434M  9598   9725M 10020M 10178  10263M 10283  10372M 10392  10527M 10547  10682M
             10702  10785M 10805  10926M 10946  11067M 11087  11146M 11166  11207M 11347  11390M 11427M 11427  11448
             11458M 11459M 11469U 11765U 11832M 11972  12029M 12072M 12072  12089  12099M 12100M 12110U 12220U 12299M
             12442  12477U 12493U 12506M 12526  12561U 12577U 12590M 12610  12645U 12661U 12674M 12694  12729U 12745U
             12758M 12778  12813U 12829U 12842M 12862  12897U 12913U 12926M 12946  12981U 12997U 13010M 13030  13071M
             13098  13452M 13480  13613M 13644  13919M 14126  14826M 14852  15011M 15026  15140  15144M 15243M 15246
             15322  15323M 15370  15371M 15418M 15459  15537M 15538  15602  15605M 15651  15654M 15704M 15714  15768M
             15815  15930M 15945  15970M 15971M 15972M 16001U 16033M 16040U 16047M 16084M 16113  16191M 16247  16728M
             16758  16784M 16910  16985  17054M 17084  17110M 17236  17311  17380M 17409  17484M 17485  17501  17608M
             17663M 17693  17830M 17864  17982M 17983M 17984M 18013U 18086M 18093U 18139M 18171  18296M 18331  18512M
             18513M 18514M 18543U 18636M 18643U 18752M 18753M 18754M 18783U 18826M 18833U 18874M 18906  19272M 19273M
             19274M 19303U 19487M 19494U 19530M 19558  19710M 19739  19770M 19799M 19835  20047M 20166  20282M 20283
             20299  20447M 20576M 20648  20887M 20888  20904  21198M 21481M 21515  21556M 21557  21592  21623M 21661M
             21675  21847M 21874  21915M 21916  21968  22039M 22086  22133M 22219M 22232  22306M 22307  22328  22376M
             22447  22516M 22551M 22577  22618M 22633  22812M 22849M 22881  22965M 22991  23020M 23035  23063M 23077M
             23092  23111  23242  23263M 23293M 23361  23503M 23504  23562  23751  23766M 23781M 23782  23798  23863M
             23907M 23943  24148M 24163  24231M 24256M 24407  25806M 25821  25852M 26445M 26446M 26447M 26457U 26583U
             27121M 27132M 27132  27146  27152M 27153M 27163U 27271U 27287M 27298M 27298  27312  27318M 27319M 27329U
             27520U 27790M 27916  28025M 28052U 28186M 28410M 28439  28715M 28741  28907M 28936  29004M 29033  29678M
1         (PAGE2193) (12:50) (15MAR04) General Purpose Register Cross Reference                                             Page  235
             29717  30052M 30081  30324M 30353  30421M 30450  30588M 30617  30731M 30744U 30772  30851M 30881U 30891M
             30903U 31076M 31143  31270M 31285  31374N 31384  31437M 31466M 31481  31506N 31523  31556  31568N 31590M
             31598  31617M 31650M 31651  31664M 31664  31689N 31706  31739  31752N 31775M 31782  31803M 31907M 31962
             32455M 32456M 32457M 32474U 32525  32531M 32561U 32588M 32589M 32590M 32607U 32658  32664M 32695U 32715M
             32716M 32717M 32765U 32842M 32849U 32902U 32978M 32985U 33015M 33121  33157M 33167U 33837U 33855M 33884
             33919U 33960U 33973M 34002  34037U 34335U 34348M 34400  34445U 35537U 35555M 35783  35828U 37108U 37126M
             37249  37294U 37623U 37641M 37678  37713U 37939U 37952M 37981  38016U 38162U 38175M 38229  38264U 38510M
             38614M 38718U 38731M 38760  38795U 38900U 38913M 38938  38979M 38982  38995  39115  39167  39203M 39234
             39269U 39319U 39332M 39363  39398U 39622U 39635M 39666  39701U 39754U 39767M 39822  39949M 39975  40027M
             40028M 40028  40042M 40043M 40043  40072M 40073M 40073  40092M 40100  40112M 40119  40131M 40136  40490
             40530M 40545  40595M 40626M 40687  40771M 40772M 40773M 40802U 40908M 40915U 40991M 40992M 40993M 41003U
             41155U 41244M 41318  41363M 41375M 41375  41384  41430M 41468M 41504M 41539M 41563  41600M 41602M 41898M
             42011  42033M 42107  42332M 42674  42876M 42951M 43056M 43085  43219M
     5(5)      962U  2111   6963   7103M  7131   7252M  7392   7428M  7602M  7602   7827   7847M  7877   8060M  8061M
              8062M  8091U  8097M  8104U  8253M  8277   8373M  8439   8483M  8503   8547M  8570   8666M  8733   8777M
              8797   8841M  9019   9062M  9099M  9099   9120   9130M  9131M  9141U  9367U  9434M  9598   9655M  9698M
              9698   9715   9725   9726M  9727M  9737U  9941U 10020M 10178  10213U 10250U 10263M 10283  10318U 10359U
             10372M 10392  10427U 10514U 10527M 10547  10582U 10669U 10682M 10702  10737U 10772U 10785M 10805  10926M
             10946  11067M 11087  11122U 11133U 11146M 11166  11207M 11347  11832M 11972  12299M 12442  12506M 12526
             12590M 12610  12674M 12694  12758M 12778  12842M 12862  12926M 12946  13010M 13030  13071M 13098  13452M
             13480  13613M 13644  13919M 14126  14246M 14257M 14257  14352M 14502M 14513M 14513  14779M 14826M 14852
             15012M 15041U 15143M 15150U 15244M 15274U 15324M 15372M 15419M 15467U 15484U 15532U 15538M 15539M 15540M
             15550U 15603M 15652M 15702M 15711U 15768M 15815  15931M 15960U 16046M 16053U 16084M 16113  16139M 16163
             16191M 16247  16344M 16357M 16358M 16359M 16360M 16372  16388M 16422M 16423M 16433U 16705U 16728M 16758
             16865M 16866M 16867M 16877U 16910  16997M 17026U 17054M 17084  17191M 17192M 17193M 17203U 17236  17323M
             17352U 17380M 17409  17485M 17486M 17487M 17516U 17607M 17614U 17663M 17693  17830M 17864  17890M 17905
             18112M 18139M 18171  18199M 18214  18265M 18296M 18331  18360M 18375  18848M 18874M 18906  19179M 19194
             19505M 19530M 19558  19713M 19714M 19714  19754U 19769M 19776U 19799M 19835  19906M 19907M 19908M 19937U
             20005M 20012U 20047M 20166  20283M 20284M 20285M 20314U 20446M 20453U 20576M 20648  20888M 20889M 20890M
             20919U 21197M 21204U 21481M 21515  21557M 21558M 21559M 21569U 21622M 21662M 21829U 21847M 21874  21916M
             21917M 21918M 21928U 22038M 22132M 22217M 22307M 22308M 22309M 22374M 22515M 22533U 22551M 22577  22619M
             22648U 22811M 22818U 22849M 22881  22965M 22991  23021M 23050U 23062M 23069U 23078M 23107U 23262M 23269U
             23293M 23361  23504M 23505M 23506M 23517U 23530U 23577U 23765M 23772U 23782M 23783M 23784M 23813U 23862M
             23869U 23907M 23943  24149M 24150M 24151M 24178U 24230M 24237U 24256M 24407  24575M 24576M 24576  24588U
             24618M 24647U 25087M 25088M 25089M 25099U 25335U 25807M 25836U 25851M 25858U 26463M 26464M 26464  26477M
             26482M 26483M 26493U 26578U 27199M 27200M 27200  27215M 27216M 27226U 27262U 27336M 27337M 27337  27349M
             27350M 27360U 27421U 27790M 27916  28057M 28058M 28058  28071M 28076M 28077M 28085U 28410M 28439  28715M
             28741  28907M 28936  29004M 29033  29678M 29717  30052M 30081  30324M 30353  30421M 30450  30588M 30617
             30731M 30751U 30772  30950M 30951M 30952M 30962U 31057U 31076M 31143  31271M 31300U 31436M 31443U 31467M
             31496U 31589M 31616M 31623U 31651M 31652M 31653M 31679U 31773M 31801M 31809U 31907M 31962  32004M 32719M
             32841M 32977M 33015M 33121  33173M 33174M 33174  33187M 33192M 33193M 33203U 33832U 33855M 33884  33929U
             33955U 33973M 34002  34047U 34330U 34348M 34400  34455U 35532U 35555M 35783  35838U 37103U 37126M 37249
             37304U 37618U 37641M 37678  37723U 37934U 37952M 37981  38026U 38157U 38175M 38229  38274U 38713U 38731M
             38760  38805U 38895U 38913M 38938  38981M 38990  39110  39172  39176  39203M 39234  39279U 39314U 39332M
             39363  39408U 39617U 39635M 39666  39711U 39749U 39767M 39822  39858M 39908  39923  39949M 39975  40531M
             40560U 40594M 40601U 40626M 40687  40746M 40747M 40748M 40758U 41226U 41244M 41318  41362M 41365  41428
             41429M 41429N 41466M 41503M 41537M 41558  41599M 41926  42010  42033M 42107  42178M 42324  42331M 42719
             42875M 42921  42932  42950M 43056M 43085  43219M
     6(6)      958U  2111   6963   7103M  7131   7252M  7392   7486M  7487M  7487   7532M  7533M  7543U  7807U  7847M
              7877   8041M  8042M  8043M  8053U  8240U  8253M  8277   8373M  8439   8483M  8503   8547M  8570   8666M
              8733   8777M  8797   8841M  9019   9434M  9598   9634M  9644U 10002U 10020M 10178  10263M 10283  10372M
             10392  10437U 10509U 10527M 10547  10592U 10664U 10682M 10702  10785M 10805  10840U 10913U 10926M 10946
             10981U 11054U 11067M 11087  11146M 11166  11207M 11347  11832M 11972  12008M 12018U 12281U 12299M 12442
             12506M 12526  12590M 12610  12674M 12694  12758M 12778  12842M 12862  12926M 12946  13010M 13030  13071M
             13098  13248M 13249M 13249  13260U 13436U 13452M 13480  13613M 13644  13919M 14126  14826M 14852  14948M
             14958U 15755U 15768M 15815  16084M 16113  16146M 16147M 16148M 16158U 16170U 16191M 16247  16283M 16296M
             16312  16328M 16329M 16339U 16527U 16567U 16710U 16728M 16758  16849M 16850M 16851M 16861U 16910  17031U
             17054M 17084  17175M 17176M 17177M 17187U 17236  17357U 17380M 17409  17466M 17467M 17468M 17478U 17645U
             17663M 17693  17719M 17729U 17806U 17830M 17864  17891M 17920U 18111M 18118U 18139M 18171  18200M 18229U
1         (PAGE2193) (12:50) (15MAR04) General Purpose Register Cross Reference                                             Page  236
             18264M 18271U 18296M 18331  18361M 18390U 18847M 18854U 18874M 18906  19180M 19209U 19504M 19511U 19530M
             19558  19799M 19835  19863M 19876M 19881M 19882M 19892U 20034U 20047M 20166  20210M 20211M 20212M 20222U
             20558U 20576M 20648  20696M 20712U 20716M 21444U 21481M 21515  21541M 21551U 21834U 21847M 21874  21900M
             21910U 22538U 22551M 22577  22667M 22668M 22669M 22679U 22806U 22849M 22881  22965M 22991  23293M 23361
             23523M 23532M 23533M 23543U 23886U 23907M 23943  23972M 23972  24006M 24052M 24074M 24074  24081M 24086M
             24087M 24095U 24256M 24407  24434M 24443U 24446U 27790M 27916  28410M 28439  28715M 28741  28907M 28936
             29004M 29033  29678M 29717  30052M 30081  30324M 30353  30421M 30450  30588M 30617  30731M 30772  31076M
             31143  31907M 31962  33015M 33121  33855M 33884  33973M 34002  34348M 34400  35555M 35783  37126M 37249
             37641M 37678  37952M 37981  38175M 38229  38731M 38760  38913M 38938  39203M 39234  39332M 39363  39635M
             39666  39767M 39822  39949M 39975  40626M 40687  41244M 41318  42033M 42107  43056M 43085  43219M 43338U
     7(7)      954U  2104M  2104   2105B  2111   2117B  6963   6968M  6980U  7095U  7103M  7131   7136M  7148U  7244U
              7252M  7392   7398M  7410U  7839U  7847M  7877   7882M  7894U  8245U  8253M  8277   8282M  8294U  8365U
              8373M  8439   8444M  8456U  8475U  8483M  8503   8508M  8520U  8539U  8547M  8570   8575M  8587U  8658U
              8666M  8733   8738M  8750U  8769U  8777M  8797   8802M  8814U  8833U  8841M  9019   9025M  9037U  9426U
              9434M  9598   9604M  9616U 10012U 10020M 10178  10183M 10195U 10255U 10263M 10283  10288M 10300U 10364U
             10372M 10392  10397M 10409U 10519U 10527M 10547  10552M 10564U 10674U 10682M 10702  10707M 10719U 10777U
             10785M 10805  10810M 10822U 10918U 10926M 10946  10951M 10963U 11059U 11067M 11087  11092M 11104U 11138U
             11146M 11166  11171M 11183U 11199U 11207M 11347  11353M 11365U 11824U 11832M 11972  11978M 11990U 12291U
             12299M 12442  12447M 12459U 12498U 12506M 12526  12531M 12543U 12582U 12590M 12610  12615M 12627U 12666U
             12674M 12694  12699M 12711U 12750U 12758M 12778  12783M 12795U 12834U 12842M 12862  12867M 12879U 12918U
             12926M 12946  12951M 12963U 13002U 13010M 13030  13035M 13047U 13063U 13071M 13098  13103M 13115U 13444U
             13452M 13480  13485M 13497U 13605U 13613M 13644  13649M 13661U 13911U 13919M 14126  14132M 14144U 14818U
             14826M 14852  14857M 14869U 15760U 15768M 15815  15821M 15833U 16076U 16084M 16113  16118M 16130U 16183U
             16191M 16247  16253M 16265U 16720U 16728M 16758  16763M 16775U 16910  17046U 17054M 17084  17089M 17101U
             17236  17372U 17380M 17409  17414M 17426U 17655U 17663M 17693  17698M 17710U 17822U 17830M 17864  17869M
             17881U 18131U 18139M 18171  18176M 18188U 18288U 18296M 18331  18336M 18348U 18866U 18874M 18906  18911M
             18923U 19522U 19530M 19558  19563M 19575U 19791U 19799M 19835  19840M 19852U 20039U 20047M 20166  20172M
             20184U 20568U 20576M 20648  20654M 20666U 21473U 21481M 21515  21520M 21532U 21839U 21847M 21874  21879M
             21891U 22543U 22551M 22577  22582M 22594U 22841U 22849M 22881  22886M 22898U 22957U 22965M 22991  22996M
             23008U 23285U 23293M 23361  23367M 23379U 23899U 23907M 23943  23948M 23960U 24248U 24256M 24407  24412M
             24424U 27782U 27790M 27916  27921M 27933U 28402U 28410M 28439  28444M 28456U 28707U 28715M 28741  28746M
             28758U 28899U 28907M 28936  28941M 28953U 28996U 29004M 29033  29038M 29050U 29670U 29678M 29717  29722M
             29734U 30044U 30052M 30081  30086M 30098U 30316U 30324M 30353  30358M 30370U 30413U 30421M 30450  30455M
             30467U 30580U 30588M 30617  30622M 30634U 30723U 30731M 30772  30777M 30789U 31068U 31076M 31143  31149M
             31161U 31899U 31907M 31962  31968M 31980U 33007U 33015M 33121  33127M 33139U 33847U 33855M 33884  33889M
             33901U 33965U 33973M 34002  34007M 34019U 34340U 34348M 34400  34406M 34418U 35547U 35555M 35783  35789M
             35801U 37118U 37126M 37249  37255M 37267U 37633U 37641M 37678  37683M 37695U 37944U 37952M 37981  37986M
             37998U 38167U 38175M 38229  38234M 38246U 38723U 38731M 38760  38765M 38777U 38905U 38913M 38938  38943M
             38955U 39195U 39203M 39234  39239M 39251U 39324U 39332M 39363  39368M 39380U 39627U 39635M 39666  39671M
             39683U 39759U 39767M 39822  39828M 39840U 39941U 39949M 39975  39980M 39992U 40618U 40626M 40687  40693M
             40705U 41236U 41244M 41318  41324M 41336U 42025U 42033M 42107  42113M 42125U 43048U 43056M 43085  43090M
             43102U 43211U 43219M
     8(8)      950U  2111   6963   6964M  7099   7103M  7131   7132M  7248   7252M  7392   7394M  7424U  7826   7834U
              7843   7847M  7877   7878M  8249   8253M  8277   8278M  8369   8373M  8439   8440M  8467N  8479   8483M
              8503   8504M  8531N  8543   8547M  8570   8571M  8662   8666M  8733   8734M  8761N  8773   8777M  8797
              8798M  8825N  8837   8841M  9019   9021M  9051U  9409   9421U  9430   9434M  9598   9600M  9630U  9983
             10007U 10016  10020M 10178  10179M 10259  10263M 10283  10284M 10368  10372M 10392  10393M 10523  10527M
             10547  10548M 10678  10682M 10702  10703M 10781  10785M 10805  10806M 10922  10926M 10946  10947M 11063
             11067M 11087  11088M 11142  11146M 11166  11167M 11203  11207M 11347  11349M 11379U 11807  11819U 11828
             11832M 11972  11974M 12004U 12262  12286U 12295  12299M 12442  12443M 12502  12506M 12526  12527M 12586
             12590M 12610  12611M 12670  12674M 12694  12695M 12754  12758M 12778  12779M 12838  12842M 12862  12863M
             12922  12926M 12946  12947M 13006  13010M 13030  13031M 13067  13071M 13098  13099M 13448  13452M 13480
             13481M 13609  13613M 13644  13645M 13915  13919M 14126  14128M 14158U 14813U 14822  14826M 14852  14853M
             15764  15768M 15815  15817M 15847U 16071U 16080  16084M 16113  16114M 16187  16191M 16247  16249M 16279U
             16686N 16696  16715U 16724  16728M 16758  16759M 16910  17050  17054M 17084  17085M 17236  17376  17380M
             17409  17410M 17659  17663M 17693  17694M 17826  17830M 17864  17865M 18135  18139M 18171  18172M 18292
             18296M 18331  18332M 18870  18874M 18906  18907M 19526  19530M 19558  19559M 19795  19799M 19835  19836M
             20043  20047M 20166  20168M 20198U 20563U 20572  20576M 20648  20650M 20680U 21468U 21477  21481M 21515
             21516M 21822N 21843  21847M 21874  21875M 22547  22551M 22577  22578M 22845  22849M 22881  22882M 22961
1         (PAGE2193) (12:50) (15MAR04) General Purpose Register Cross Reference                                             Page  237
             22965M 22991  22992M 23289  23293M 23361  23363M 23393U 23894U 23903  23907M 23943  23944M 24252  24256M
             24407  24408M 27786  27790M 27916  27917M 28406  28410M 28439  28440M 28711  28715M 28741  28742M 28903
             28907M 28936  28937M 29000  29004M 29033  29034M 29674  29678M 29717  29718M 30048  30052M 30081  30082M
             30320  30324M 30353  30354M 30417  30421M 30450  30451M 30584  30588M 30617  30618M 30727  30731M 30772
             30773M 31072  31076M 31143  31145M 31175U 31894U 31903  31907M 31962  31964M 31994U 33002U 33011  33015M
             33121  33123M 33153U 33842U 33851  33855M 33884  33885M 33969  33973M 34002  34003M 34344  34348M 34400
             34402M 34432U 35542U 35551  35555M 35783  35785M 35815U 37113U 37122  37126M 37249  37251M 37281U 37628U
             37637  37641M 37678  37679M 37948  37952M 37981  37982M 38171  38175M 38229  38230M 38727  38731M 38760
             38761M 38909  38913M 38938  38939M 39199  39203M 39234  39235M 39328  39332M 39363  39364M 39631  39635M
             39666  39667M 39763  39767M 39822  39824M 39854U 39936U 39945  39949M 39975  39976M 40622  40626M 40687
             40689M 40719U 41231U 41240  41244M 41318  41320M 41350U 42020U 42029  42033M 42107  42109M 42139U 43043U
             43052  43056M 43085  43086M 43215  43219M
     9(9)      946U  2111  16910  17236
    10(A)      942U  2111  16910  17236
    11(B)      938U  1175U  2111  16910  17236
    12(C)      934U  1184U  2111  16910  17236
    13(D)      930U  2111   6960   6963   6964   6965M  6965   7099M  7103   7105   7128   7131   7132   7133M  7133
              7248M  7252   7254   7389   7392   7394   7395M  7395   7843M  7847   7849   7874   7877   7878   7879M
              7879   7906   7908M  7908   7986   7987   7988   7990M  7990   8002M  8003   8004   8005   8228M  8249M
              8253   8255   8274   8277   8278   8279M  8279   8317   8318   8319   8321M  8321   8334M  8335   8336
              8337   8369M  8373   8375   8436   8439   8440   8441M  8441   8479M  8483   8485   8500   8503   8504
              8505M  8505   8543M  8547   8549   8567   8570   8571   8572M  8572   8610   8611   8612   8614M  8614
              8627M  8628   8629   8630   8662M  8666   8668   8730   8733   8734   8735M  8735   8773M  8777   8779
              8794   8797   8798   8799M  8799   8837M  8841   8843   9016   9019   9021   9022M  9022   9430M  9434
              9436   9595   9598   9600   9601M  9601   9659   9661M  9661   9776   9777   9778   9780M  9780   9793M
              9794   9795   9796   9843   9844M  9844   9934M  9935   9989M 10016M 10020  10022  10175  10178  10179
             10180M 10180  10259M 10263  10265  10280  10283  10284  10285M 10285  10368M 10372  10374  10389  10392
             10393  10394M 10394  10523M 10527  10529  10544  10547  10548  10549M 10549  10678M 10682  10684  10699
             10702  10703  10704M 10704  10781M 10785  10787  10802  10805  10806  10807M 10807  10922M 10926  10928
             10943  10946  10947  10948M 10948  11063M 11067  11069  11084  11087  11088  11089M 11089  11142M 11146
             11148  11163  11166  11167  11168M 11168  11203M 11207  11209  11344  11347  11349  11350M 11350  11828M
             11832  11834  11969  11972  11974  11975M 11975  12033  12035M 12035  12150  12151  12152  12154M 12154
             12167M 12168  12169  12170  12268M 12295M 12299  12301  12439  12442  12443  12444M 12444  12502M 12506
             12508  12523  12526  12527  12528M 12528  12586M 12590  12592  12607  12610  12611  12612M 12612  12670M
             12674  12676  12691  12694  12695  12696M 12696  12754M 12758  12760  12775  12778  12779  12780M 12780
             12838M 12842  12844  12859  12862  12863  12864M 12864  12922M 12926  12928  12943  12946  12947  12948M
             12948  13006M 13010  13012  13027  13030  13031  13032M 13032  13067M 13071  13073  13095  13098  13099
             13100M 13100  13448M 13452  13454  13477  13480  13481  13482M 13482  13609M 13613  13615  13641  13644
             13645  13646M 13646  13915M 13919  13921  14123  14126  14128  14129M 14129  14412  14413M 14413  14433M
             14434  14822M 14826  14828  14849  14852  14853  14854M 14854  15764M 15768  15770  15812  15815  15817
             15818M 15818  16080M 16084  16086  16110  16113  16114  16115M 16115  16187M 16191  16193  16244  16247
             16249  16250M 16250  16724M 16728  16730  16755  16758  16759  16760M 16760  16910  17050M 17054  17056
             17081  17084  17085  17086M 17086  17236  17376M 17380  17382  17406  17409  17410  17411M 17411  17659M
             17663  17665  17690  17693  17694  17695M 17695  17826M 17830  17832  17861  17864  17865  17866M 17866
             18135M 18139  18141  18168  18171  18172  18173M 18173  18292M 18296  18298  18328  18331  18332  18333M
             18333  18870M 18874  18876  18903  18906  18907  18908M 18908  19526M 19530  19532  19555  19558  19559
             19560M 19560  19795M 19799  19801  19832  19835  19836  19837M 19837  20043M 20047  20049  20163  20166
             20168  20169M 20169  20572M 20576  20578  20645  20648  20650  20651M 20651  21477M 21481  21483  21512
             21515  21516  21517M 21517  21843M 21847  21849  21871  21874  21875  21876M 21876  22547M 22551  22553
             22574  22577  22578  22579M 22579  22845M 22849  22851  22878  22881  22882  22883M 22883  22961M 22965
             22967  22988  22991  22992  22993M 22993  23289M 23293  23295  23358  23361  23363  23364M 23364  23903M
             23907  23909  23940  23943  23944  23945M 23945  24252M 24256  24258  24404  24407  24408  24409M 24409
             24434  24435M 24435  25023  25024M 25024  25027  25028M 25028  25055M 25056  25073M 27786M 27790  27792
             27913  27916  27917  27918M 27918  28406M 28410  28412  28436  28439  28440  28441M 28441  28711M 28715
             28717  28738  28741  28742  28743M 28743  28903M 28907  28909  28933  28936  28937  28938M 28938  29000M
             29004  29006  29030  29033  29034  29035M 29035  29190  29191M 29191  29247M 29674M 29678  29680  29714
             29717  29718  29719M 29719  30048M 30052  30054  30078  30081  30082  30083M 30083  30320M 30324  30326
             30350  30353  30354  30355M 30355  30417M 30421  30423  30447  30450  30451  30452M 30452  30584M 30588
             30590  30614  30617  30618  30619M 30619  30727M 30731  30733  30769  30772  30773  30774M 30774  31072M
1         (PAGE2193) (12:50) (15MAR04) General Purpose Register Cross Reference                                             Page  238
             31076  31078  31140  31143  31145  31146M 31146  31903M 31907  31909  31959  31962  31964  31965M 31965
             33011M 33015  33017  33118  33121  33123  33124M 33124  33851M 33855  33857  33881  33884  33885  33886M
             33886  33969M 33973  33975  33999  34002  34003  34004M 34004  34344M 34348  34350  34397  34400  34402
             34403M 34403  35551M 35555  35557  35780  35783  35785  35786M 35786  36838  36839M 36839  36858M 36859
             37122M 37126  37128  37246  37249  37251  37252M 37252  37637M 37641  37643  37675  37678  37679  37680M
             37680  37948M 37952  37954  37978  37981  37982  37983M 37983  38171M 38175  38177  38226  38229  38230
             38231M 38231  38727M 38731  38733  38757  38760  38761  38762M 38762  38909M 38913  38915  38935  38938
             38939  38940M 38940  38981  38982M 38983M 38983  38984M 39176M 39199M 39203  39205  39231  39234  39235
             39236M 39236  39328M 39332  39334  39360  39363  39364  39365M 39365  39631M 39635  39637  39663  39666
             39667  39668M 39668  39763M 39767  39769  39819  39822  39824  39825M 39825  39945M 39949  39951  39972
             39975  39976  39977M 39977  40399  40400M 40400  40461M 40462  40622M 40626  40628  40684  40687  40689
             40690M 40690  41240M 41244  41246  41315  41318  41320  41321M 41321  42029M 42033  42035  42104  42107
             42109  42110M 42110  43052M 43056  43058  43082  43085  43086  43087M 43087  43215M 43219  43221
    14(E)      926U  2111   2112M  2126   2127M  2128B  2130M  2131B  2151M  2152B  2156M  2157B  2159M  2160B  2162M
              2163B  2165M  2166B  2168M  2169M  2169B  2175   6960   7015M  7016M  7016B  7031M  7038M  7065M  7066M
              7066B  7081M  7088M  7105M  7108B  7128   7191M  7192M  7192B  7232M  7233M  7233B  7254M  7257B  7389
              7451M  7452M  7452B  7482M  7483M  7483B  7514M  7515M  7515B  7605M  7606M  7606B  7632M  7633M  7633B
              7696M  7697M  7697B  7717M  7718M  7718B  7734M  7735M  7735B  7739M  7740M  7740B  7762M  7763M  7763B
              7779M  7780M  7780B  7800M  7801M  7801B  7849M  7852B  7874   7905M  7906   7969M  7970N  7971N  7975M
              7975   7985M  7986   7987   7988   7996M  7997M  7997B  8000M  8003   8004   8005   8010M  8011M  8011B
              8032M  8033M  8033B  8114M  8115M  8115B  8147M  8148M  8148B  8164M  8165M  8165B  8170M  8171M  8171B
              8176M  8177M  8177B  8226M  8229   8255M  8258B  8274   8316M  8317   8318   8319   8324M  8325   8328M
              8329M  8329B  8332M  8335   8336   8337   8375M  8378B  8436   8485M  8488B  8500   8549M  8552B  8567
              8609M  8610   8611   8612   8617M  8618   8621M  8622M  8622B  8625M  8628   8629   8630   8668M  8671B
              8730   8779M  8782B  8794   8843M  8846B  9016   9084M  9085M  9085B  9182M  9183M  9183B  9238M  9239M
              9239B  9256M  9257M  9257B  9276M  9277M  9277B  9294M  9295M  9295B  9314M  9315M  9315B  9332M  9333M
              9333B  9353M  9354M  9354B  9393M  9394M  9394B  9436M  9439B  9595   9658M  9659   9683M  9684M  9684B
              9759M  9760N  9761N  9765M  9765   9775M  9776   9777   9778   9783M  9784   9787M  9788M  9788B  9791M
              9794   9795   9796   9869M  9870M  9870B  9901M  9902M  9902B  9927M  9928M  9928B  9967M  9968M  9968B
              9987M  9990  10022M 10025B 10175  10265M 10268B 10280  10374M 10377B 10389  10529M 10532B 10544  10684M
             10687B 10699  10787M 10790B 10802  10928M 10931B 10943  11069M 11072B 11084  11148M 11151B 11163  11209M
             11212B 11344  11412M 11413M 11413B 11648M 11649M 11649B 11666M 11667M 11667B 11686M 11687M 11687B 11719M
             11720M 11720B 11724M 11725M 11725B 11747M 11748M 11748B 11791M 11792M 11792B 11834M 11837B 11969  12032M
             12033  12057M 12058M 12058B 12132M 12133N 12134N 12138M 12138  12149M 12150  12151  12152  12157M 12158
             12161M 12162M 12162B 12165M 12168  12169  12170  12246M 12247M 12247B 12266M 12269  12301M 12304B 12439
             12508M 12511B 12523  12592M 12595B 12607  12676M 12679B 12691  12760M 12763B 12775  12844M 12847B 12859
             12928M 12931B 12943  13012M 13015B 13027  13073M 13076B 13095  13158M 13159M 13159B 13176M 13177M 13177B
             13313M 13314M 13314B 13331M 13332M 13332B 13365M 13366M 13366B 13393M 13394M 13394B 13411M 13412M 13412B
             13454M 13457B 13477  13528M 13529M 13529B 13539M 13540M 13540B 13559M 13560M 13560B 13575M 13576M 13576B
             13615M 13618B 13641  13897M 13898M 13898B 13921M 13924B 14123  14233M 14234M 14234B 14268M 14269M 14269B
             14296M 14297M 14297B 14310M 14311M 14311B 14335M 14336M 14336B 14395M 14396M 14396B 14430M 14431M 14431B
             14457M 14458M 14458B 14482M 14483M 14483B 14544M 14545M 14545B 14561M 14562M 14562B 14580M 14581M 14581B
             14594M 14595M 14595B 14625M 14626M 14626B 14656M 14657M 14657B 14674M 14675M 14675B 14694M 14695M 14695B
             14722M 14723M 14723B 14736M 14737M 14737B 14761M 14762M 14762B 14828M 14831B 14849  14923M 14924M 14924B
             14942M 14943M 14943B 15728M 15729M 15729B 15742M 15743M 15743B 15747M 15748M 15748B 15770M 15773B 15812
             16086M 16089B 16110  16143M 16144M 16144B 16175M 16176M 16176B 16193M 16196B 16244  16541M 16542M 16542B
             16586M 16587M 16587B 16620M 16634M 16642M 16656M 16674M 16675M 16675B 16730M 16733B 16755  16809M 16810M
             16810B 16910  16911M 17038M 17039M 17039B 17056M 17059B 17081  17135M 17136M 17136B 17236  17237M 17364M
             17365M 17365B 17382M 17385B 17406  17454M 17455M 17455B 17665M 17668B 17690  17832M 17835B 17861  18141M
             18144B 18168  18256M 18257M 18257B 18298M 18301B 18328  18876M 18879B 18903  19532M 19535B 19555  19801M
             19804B 19832  20049M 20052B 20163  20231M 20232M 20232B 20275M 20276M 20276B 20412M 20413M 20413B 20520M
             20521M 20521B 20524M 20525M 20525B 20533M 20534M 20534B 20578M 20581B 20645  20744M 20745M 20745B 20804M
             20805M 20805B 20821M 20822M 20822B 21081M 21082M 21082B 21297M 21298M 21298B 21381M 21382M 21382B 21429M
             21430M 21430B 21454M 21455M 21455B 21460M 21461M 21461B 21483M 21486B 21512  21756M 21757M 21757B 21849M
             21852B 21871  22199M 22200M 22200B 22408M 22409M 22409B 22412M 22413M 22413B 22553M 22556B 22574  22851M
             22854B 22878  22967M 22970B 22988  23295M 23298B 23358  23441M 23442M 23442B 23878M 23879M 23879B 23909M
             23912B 23940  24258M 24261B 24404  24611M 24612M 24612B 24616M 24617M 24617B 24698M 24699M 24699B 24728M
             24729M 24729B 24766M 24767M 24767B 24809M 24810M 24810B 24841M 24842M 24842B 24859M 24860M 24860B 24915M
             24916M 24916B 25023M 25027  25029N 25052M 25053M 25053B 25056M 25067M 25068M 25068B 25082M 25083M 25083B
